{"contracts/HemShop.sol":{"HemShop":{"abi":[{"inputs":[{"internalType":"uint256","name":"_pct","type":"uint256"}],"stateMutability":"nonpayable","type":"constructor"},{"anonymous":false,"inputs":[{"indexed":true,"internalType":"address","name":"owner","type":"address"},{"indexed":true,"internalType":"address","name":"approved","type":"address"},{"indexed":true,"internalType":"uint256","name":"tokenId","type":"uint256"}],"name":"Approval","type":"event"},{"anonymous":false,"inputs":[{"indexed":true,"internalType":"address","name":"owner","type":"address"},{"indexed":true,"internalType":"address","name":"operator","type":"address"},{"indexed":false,"internalType":"bool","name":"approved","type":"bool"}],"name":"ApprovalForAll","type":"event"},{"anonymous":false,"inputs":[{"indexed":true,"internalType":"address","name":"seller","type":"address"},{"indexed":false,"internalType":"uint256","name":"newBalance","type":"uint256"}],"name":"BalanceUpdated","type":"event"},{"anonymous":false,"inputs":[{"indexed":true,"internalType":"uint256","name":"productId","type":"uint256"},{"indexed":true,"internalType":"address","name":"buyer","type":"address"},{"indexed":false,"internalType":"bool","name":"isDelivered","type":"bool"}],"name":"DeliveryStatusUpdated","type":"event"},{"anonymous":false,"inputs":[{"indexed":true,"internalType":"address","name":"previousOwner","type":"address"},{"indexed":true,"internalType":"address","name":"newOwner","type":"address"}],"name":"OwnershipTransferred","type":"event"},{"anonymous":false,"inputs":[{"indexed":true,"internalType":"uint256","name":"productId","type":"uint256"},{"indexed":true,"internalType":"address","name":"buyer","type":"address"},{"indexed":true,"internalType":"address","name":"seller","type":"address"},{"indexed":false,"internalType":"uint256","name":"price","type":"uint256"},{"indexed":false,"internalType":"uint256","name":"timestamp","type":"uint256"}],"name":"ProductPurchased","type":"event"},{"anonymous":false,"inputs":[{"indexed":true,"internalType":"uint256","name":"productId","type":"uint256"},{"indexed":true,"internalType":"address","name":"buyer","type":"address"},{"indexed":true,"internalType":"address","name":"seller","type":"address"},{"indexed":false,"internalType":"uint256","name":"totalAmount","type":"uint256"},{"indexed":false,"internalType":"uint256","name":"basePrice","type":"uint256"},{"indexed":false,"internalType":"uint256","name":"timestamp","type":"uint256"}],"name":"PurchaseRecorded","type":"event"},{"anonymous":false,"inputs":[{"indexed":true,"internalType":"address","name":"seller","type":"address"},{"indexed":false,"internalType":"uint256","name":"timestamp","type":"uint256"}],"name":"SellerRegistered","type":"event"},{"anonymous":false,"inputs":[{"indexed":true,"internalType":"address","name":"seller","type":"address"},{"indexed":false,"internalType":"enum HemShop.SellerStatus","name":"status","type":"uint8"}],"name":"SellerStatusUpdated","type":"event"},{"anonymous":false,"inputs":[{"indexed":true,"internalType":"address","name":"from","type":"address"},{"indexed":true,"internalType":"address","name":"to","type":"address"},{"indexed":true,"internalType":"uint256","name":"tokenId","type":"uint256"}],"name":"Transfer","type":"event"},{"inputs":[{"internalType":"address","name":"to","type":"address"},{"internalType":"uint256","name":"tokenId","type":"uint256"}],"name":"approve","outputs":[],"stateMutability":"nonpayable","type":"function"},{"inputs":[{"internalType":"address","name":"owner","type":"address"}],"name":"balanceOf","outputs":[{"internalType":"uint256","name":"","type":"uint256"}],"stateMutability":"view","type":"function"},{"inputs":[{"internalType":"uint256","name":"productId","type":"uint256"}],"name":"buyProduct","outputs":[],"stateMutability":"payable","type":"function"},{"inputs":[{"internalType":"address","name":"","type":"address"},{"internalType":"uint256","name":"","type":"uint256"}],"name":"buyerPurchaseHistory","outputs":[{"internalType":"uint256","name":"productId","type":"uint256"},{"internalType":"uint256","name":"totalAmount","type":"uint256"},{"internalType":"uint256","name":"basePrice","type":"uint256"},{"internalType":"uint256","name":"timestamp","type":"uint256"},{"internalType":"address","name":"buyer","type":"address"},{"internalType":"address","name":"seller","type":"address"},{"internalType":"bool","name":"isDelivered","type":"bool"}],"stateMutability":"view","type":"function"},{"inputs":[{"components":[{"internalType":"string","name":"name","type":"string"},{"internalType":"string","name":"description","type":"string"},{"internalType":"uint256","name":"price","type":"uint256"},{"internalType":"uint256","name":"stock","type":"uint256"},{"internalType":"string","name":"color","type":"string"},{"internalType":"string","name":"size","type":"string"},{"internalType":"string[]","name":"images","type":"string[]"},{"internalType":"string","name":"category","type":"string"},{"internalType":"string","name":"subCategory","type":"string"},{"internalType":"string","name":"model","type":"string"},{"internalType":"string","name":"brand","type":"string"},{"internalType":"uint256","name":"weight","type":"uint256"},{"internalType":"uint256","name":"sku","type":"uint256"}],"internalType":"struct HemShop.ProductInput","name":"input","type":"tuple"}],"name":"createProduct","outputs":[],"stateMutability":"nonpayable","type":"function"},{"inputs":[{"internalType":"uint256","name":"productId","type":"uint256"},{"internalType":"uint256","name":"rating","type":"uint256"},{"internalType":"string","name":"comment","type":"string"}],"name":"createReview","outputs":[],"stateMutability":"nonpayable","type":"function"},{"inputs":[{"internalType":"uint256","name":"productId","type":"uint256"}],"name":"deleteProduct","outputs":[],"stateMutability":"nonpayable","type":"function"},{"inputs":[{"internalType":"uint256","name":"productId","type":"uint256"},{"internalType":"uint256","name":"reviewId","type":"uint256"}],"name":"deleteReview","outputs":[],"stateMutability":"nonpayable","type":"function"},{"inputs":[],"name":"getAllProducts","outputs":[{"components":[{"internalType":"uint256","name":"id","type":"uint256"},{"internalType":"address","name":"seller","type":"address"},{"internalType":"string","name":"name","type":"string"},{"internalType":"string","name":"description","type":"string"},{"internalType":"uint256","name":"price","type":"uint256"},{"internalType":"uint256","name":"stock","type":"uint256"},{"internalType":"string","name":"color","type":"string"},{"internalType":"string","name":"size","type":"string"},{"internalType":"string[]","name":"images","type":"string[]"},{"internalType":"string","name":"category","type":"string"},{"internalType":"string","name":"subCategory","type":"string"},{"internalType":"uint256","name":"weight","type":"uint256"},{"internalType":"string","name":"model","type":"string"},{"internalType":"string","name":"brand","type":"string"},{"internalType":"uint256","name":"sku","type":"uint256"},{"internalType":"bool","name":"soldout","type":"bool"},{"internalType":"bool","name":"wishlist","type":"bool"},{"internalType":"bool","name":"deleted","type":"bool"},{"components":[{"internalType":"uint256","name":"reviewId","type":"uint256"},{"internalType":"address","name":"reviewer","type":"address"},{"internalType":"uint256","name":"rating","type":"uint256"},{"internalType":"string","name":"comment","type":"string"},{"internalType":"bool","name":"deleted","type":"bool"}],"internalType":"struct HemShop.ReviewStruct[]","name":"reviews","type":"tuple[]"}],"internalType":"struct HemShop.ProductStruct[]","name":"","type":"tuple[]"}],"stateMutability":"view","type":"function"},{"inputs":[{"internalType":"uint256","name":"tokenId","type":"uint256"}],"name":"getApproved","outputs":[{"internalType":"address","name":"","type":"address"}],"stateMutability":"view","type":"function"},{"inputs":[{"internalType":"address","name":"buyer","type":"address"}],"name":"getBuyerPurchaseHistory","outputs":[{"components":[{"internalType":"uint256","name":"productId","type":"uint256"},{"internalType":"uint256","name":"totalAmount","type":"uint256"},{"internalType":"uint256","name":"basePrice","type":"uint256"},{"internalType":"uint256","name":"timestamp","type":"uint256"},{"internalType":"address","name":"buyer","type":"address"},{"internalType":"address","name":"seller","type":"address"},{"internalType":"bool","name":"isDelivered","type":"bool"}],"internalType":"struct HemShop.PurchaseHistoryStruct[]","name":"","type":"tuple[]"}],"stateMutability":"view","type":"function"},{"inputs":[],"name":"getMyProducts","outputs":[{"components":[{"internalType":"uint256","name":"id","type":"uint256"},{"internalType":"address","name":"seller","type":"address"},{"internalType":"string","name":"name","type":"string"},{"internalType":"string","name":"description","type":"string"},{"internalType":"uint256","name":"price","type":"uint256"},{"internalType":"uint256","name":"stock","type":"uint256"},{"internalType":"string","name":"color","type":"string"},{"internalType":"string","name":"size","type":"string"},{"internalType":"string[]","name":"images","type":"string[]"},{"internalType":"string","name":"category","type":"string"},{"internalType":"string","name":"subCategory","type":"string"},{"internalType":"uint256","name":"weight","type":"uint256"},{"internalType":"string","name":"model","type":"string"},{"internalType":"string","name":"brand","type":"string"},{"internalType":"uint256","name":"sku","type":"uint256"},{"internalType":"bool","name":"soldout","type":"bool"},{"internalType":"bool","name":"wishlist","type":"bool"},{"internalType":"bool","name":"deleted","type":"bool"},{"components":[{"internalType":"uint256","name":"reviewId","type":"uint256"},{"internalType":"address","name":"reviewer","type":"address"},{"internalType":"uint256","name":"rating","type":"uint256"},{"internalType":"string","name":"comment","type":"string"},{"internalType":"bool","name":"deleted","type":"bool"}],"internalType":"struct HemShop.ReviewStruct[]","name":"reviews","type":"tuple[]"}],"internalType":"struct HemShop.ProductStruct[]","name":"","type":"tuple[]"}],"stateMutability":"view","type":"function"},{"inputs":[{"internalType":"uint256","name":"productId","type":"uint256"}],"name":"getProduct","outputs":[{"components":[{"internalType":"uint256","name":"id","type":"uint256"},{"internalType":"address","name":"seller","type":"address"},{"internalType":"string","name":"name","type":"string"},{"internalType":"string","name":"description","type":"string"},{"internalType":"uint256","name":"price","type":"uint256"},{"internalType":"uint256","name":"stock","type":"uint256"},{"internalType":"string","name":"color","type":"string"},{"internalType":"string","name":"size","type":"string"},{"internalType":"string[]","name":"images","type":"string[]"},{"internalType":"string","name":"category","type":"string"},{"internalType":"string","name":"subCategory","type":"string"},{"internalType":"uint256","name":"weight","type":"uint256"},{"internalType":"string","name":"model","type":"string"},{"internalType":"string","name":"brand","type":"string"},{"internalType":"uint256","name":"sku","type":"uint256"},{"internalType":"bool","name":"soldout","type":"bool"},{"internalType":"bool","name":"wishlist","type":"bool"},{"internalType":"bool","name":"deleted","type":"bool"},{"components":[{"internalType":"uint256","name":"reviewId","type":"uint256"},{"internalType":"address","name":"reviewer","type":"address"},{"internalType":"uint256","name":"rating","type":"uint256"},{"internalType":"string","name":"comment","type":"string"},{"internalType":"bool","name":"deleted","type":"bool"}],"internalType":"struct HemShop.ReviewStruct[]","name":"reviews","type":"tuple[]"}],"internalType":"struct HemShop.ProductStruct","name":"","type":"tuple"}],"stateMutability":"view","type":"function"},{"inputs":[{"internalType":"uint256","name":"productId","type":"uint256"}],"name":"getReviews","outputs":[{"components":[{"internalType":"uint256","name":"reviewId","type":"uint256"},{"internalType":"address","name":"reviewer","type":"address"},{"internalType":"uint256","name":"rating","type":"uint256"},{"internalType":"string","name":"comment","type":"string"},{"internalType":"bool","name":"deleted","type":"bool"}],"internalType":"struct HemShop.ReviewStruct[]","name":"","type":"tuple[]"}],"stateMutability":"view","type":"function"},{"inputs":[{"internalType":"address","name":"seller","type":"address"}],"name":"getSellerBalance","outputs":[{"internalType":"uint256","name":"","type":"uint256"}],"stateMutability":"view","type":"function"},{"inputs":[{"internalType":"address","name":"seller","type":"address"}],"name":"getSellerPurchaseHistory","outputs":[{"components":[{"internalType":"uint256","name":"productId","type":"uint256"},{"internalType":"uint256","name":"totalAmount","type":"uint256"},{"internalType":"uint256","name":"basePrice","type":"uint256"},{"internalType":"uint256","name":"timestamp","type":"uint256"},{"internalType":"address","name":"buyer","type":"address"},{"internalType":"address","name":"seller","type":"address"},{"internalType":"bool","name":"isDelivered","type":"bool"}],"internalType":"struct HemShop.PurchaseHistoryStruct[]","name":"","type":"tuple[]"}],"stateMutability":"view","type":"function"},{"inputs":[{"internalType":"address","name":"owner","type":"address"},{"internalType":"address","name":"operator","type":"address"}],"name":"isApprovedForAll","outputs":[{"internalType":"bool","name":"","type":"bool"}],"stateMutability":"view","type":"function"},{"inputs":[{"internalType":"uint256","name":"productId","type":"uint256"},{"internalType":"address","name":"buyer","type":"address"}],"name":"markPurchaseDelivered","outputs":[],"stateMutability":"nonpayable","type":"function"},{"inputs":[],"name":"name","outputs":[{"internalType":"string","name":"","type":"string"}],"stateMutability":"view","type":"function"},{"inputs":[],"name":"owner","outputs":[{"internalType":"address","name":"","type":"address"}],"stateMutability":"view","type":"function"},{"inputs":[{"internalType":"uint256","name":"tokenId","type":"uint256"}],"name":"ownerOf","outputs":[{"internalType":"address","name":"","type":"address"}],"stateMutability":"view","type":"function"},{"inputs":[{"internalType":"uint256","name":"","type":"uint256"}],"name":"productExists","outputs":[{"internalType":"bool","name":"","type":"bool"}],"stateMutability":"view","type":"function"},{"inputs":[{"internalType":"uint256","name":"","type":"uint256"}],"name":"products","outputs":[{"internalType":"uint256","name":"id","type":"uint256"},{"internalType":"address","name":"seller","type":"address"},{"internalType":"string","name":"name","type":"string"},{"internalType":"string","name":"description","type":"string"},{"internalType":"uint256","name":"price","type":"uint256"},{"internalType":"uint256","name":"stock","type":"uint256"},{"internalType":"string","name":"color","type":"string"},{"internalType":"string","name":"size","type":"string"},{"internalType":"string","name":"category","type":"string"},{"internalType":"string","name":"subCategory","type":"string"},{"internalType":"uint256","name":"weight","type":"uint256"},{"internalType":"string","name":"model","type":"string"},{"internalType":"string","name":"brand","type":"string"},{"internalType":"uint256","name":"sku","type":"uint256"},{"internalType":"bool","name":"soldout","type":"bool"},{"internalType":"bool","name":"wishlist","type":"bool"},{"internalType":"bool","name":"deleted","type":"bool"}],"stateMutability":"view","type":"function"},{"inputs":[],"name":"registerSeller","outputs":[],"stateMutability":"nonpayable","type":"function"},{"inputs":[{"internalType":"address","name":"","type":"address"}],"name":"registeredSellers","outputs":[{"internalType":"bool","name":"","type":"bool"}],"stateMutability":"view","type":"function"},{"inputs":[],"name":"renounceOwnership","outputs":[],"stateMutability":"nonpayable","type":"function"},{"inputs":[{"internalType":"uint256","name":"","type":"uint256"}],"name":"reviewExists","outputs":[{"internalType":"bool","name":"","type":"bool"}],"stateMutability":"view","type":"function"},{"inputs":[{"internalType":"address","name":"from","type":"address"},{"internalType":"address","name":"to","type":"address"},{"internalType":"uint256","name":"tokenId","type":"uint256"}],"name":"safeTransferFrom","outputs":[],"stateMutability":"nonpayable","type":"function"},{"inputs":[{"internalType":"address","name":"from","type":"address"},{"internalType":"address","name":"to","type":"address"},{"internalType":"uint256","name":"tokenId","type":"uint256"},{"internalType":"bytes","name":"data","type":"bytes"}],"name":"safeTransferFrom","outputs":[],"stateMutability":"nonpayable","type":"function"},{"inputs":[{"internalType":"address","name":"","type":"address"}],"name":"sellerBalances","outputs":[{"internalType":"uint256","name":"","type":"uint256"}],"stateMutability":"view","type":"function"},{"inputs":[{"internalType":"address","name":"","type":"address"},{"internalType":"uint256","name":"","type":"uint256"}],"name":"sellerProducts","outputs":[{"internalType":"uint256","name":"","type":"uint256"}],"stateMutability":"view","type":"function"},{"inputs":[{"internalType":"address","name":"","type":"address"},{"internalType":"uint256","name":"","type":"uint256"}],"name":"sellerPurchaseHistory","outputs":[{"internalType":"uint256","name":"productId","type":"uint256"},{"internalType":"uint256","name":"totalAmount","type":"uint256"},{"internalType":"uint256","name":"basePrice","type":"uint256"},{"internalType":"uint256","name":"timestamp","type":"uint256"},{"internalType":"address","name":"buyer","type":"address"},{"internalType":"address","name":"seller","type":"address"},{"internalType":"bool","name":"isDelivered","type":"bool"}],"stateMutability":"view","type":"function"},{"inputs":[{"internalType":"address","name":"","type":"address"}],"name":"sellerStatus","outputs":[{"internalType":"enum HemShop.SellerStatus","name":"","type":"uint8"}],"stateMutability":"view","type":"function"},{"inputs":[],"name":"servicePct","outputs":[{"internalType":"uint256","name":"","type":"uint256"}],"stateMutability":"view","type":"function"},{"inputs":[{"internalType":"address","name":"operator","type":"address"},{"internalType":"bool","name":"approved","type":"bool"}],"name":"setApprovalForAll","outputs":[],"stateMutability":"nonpayable","type":"function"},{"inputs":[{"internalType":"bytes4","name":"interfaceId","type":"bytes4"}],"name":"supportsInterface","outputs":[{"internalType":"bool","name":"","type":"bool"}],"stateMutability":"view","type":"function"},{"inputs":[],"name":"symbol","outputs":[{"internalType":"string","name":"","type":"string"}],"stateMutability":"view","type":"function"},{"inputs":[{"internalType":"uint256","name":"tokenId","type":"uint256"}],"name":"tokenURI","outputs":[{"internalType":"string","name":"","type":"string"}],"stateMutability":"view","type":"function"},{"inputs":[{"internalType":"address","name":"from","type":"address"},{"internalType":"address","name":"to","type":"address"},{"internalType":"uint256","name":"tokenId","type":"uint256"}],"name":"transferFrom","outputs":[],"stateMutability":"nonpayable","type":"function"},{"inputs":[{"internalType":"address","name":"newOwner","type":"address"}],"name":"transferOwnership","outputs":[],"stateMutability":"nonpayable","type":"function"},{"inputs":[{"internalType":"uint256","name":"productId","type":"uint256"},{"components":[{"internalType":"string","name":"name","type":"string"},{"internalType":"string","name":"description","type":"string"},{"internalType":"uint256","name":"price","type":"uint256"},{"internalType":"uint256","name":"stock","type":"uint256"},{"internalType":"string","name":"color","type":"string"},{"internalType":"string","name":"size","type":"string"},{"internalType":"string[]","name":"images","type":"string[]"},{"internalType":"string","name":"category","type":"string"},{"internalType":"string","name":"subCategory","type":"string"},{"internalType":"string","name":"model","type":"string"},{"internalType":"string","name":"brand","type":"string"},{"internalType":"uint256","name":"weight","type":"uint256"},{"internalType":"uint256","name":"sku","type":"uint256"}],"internalType":"struct HemShop.ProductInput","name":"input","type":"tuple"}],"name":"updateProduct","outputs":[],"stateMutability":"nonpayable","type":"function"},{"inputs":[{"internalType":"address","name":"seller","type":"address"},{"internalType":"enum HemShop.SellerStatus","name":"status","type":"uint8"}],"name":"updateSellerStatus","outputs":[],"stateMutability":"nonpayable","type":"function"},{"inputs":[],"name":"withdraw","outputs":[],"stateMutability":"nonpayable","type":"function"}],"evm":{"bytecode":{"linkReferences":{},"object":"6080346200037757601f90601f196001600160401b0362005d603881900385810184168501838111868210176200037c57859282916040528339602094859181010312620003775751936200005362000392565b926007845266048656d53686f760cc1b858501526200007162000392565b60038082526204873760ec1b8783015260008054336001600160a01b031982168117835592989394919392906001600160a01b03167f8be0079c531659141344cd1fd0a4f28419497f9722a3daafe3b4186f6b6457e08580a360019687805580519087821162000363576002548981811c9116801562000358575b858210146200034457908188849311620002f0575b5084908883116001146200028e57869262000282575b5050600019828b1b1c191690881b176002555b83519586116200026e5787548781811c9116801562000263575b838210146200024f5785811162000207575b5081948611600114620001a25750509183949184939462000196575b50501b9160001990841b1c19161790555b600b556040516159ad9081620003b38239f35b01519250388062000172565b8783528183209493928692918316915b88838310620001ec5750505010620001d3575b505050811b01905562000183565b015160001983861b60f8161c19169055388080620001c5565b858701518855909601959485019487935090810190620001b2565b8884528284208680890160051c820192858a1062000245575b0160051c019088905b8281106200023957505062000156565b85815501889062000229565b9250819262000220565b634e487b7160e01b84526022600452602484fd5b90607f169062000144565b634e487b7160e01b83526041600452602483fd5b01519050388062000117565b90848b9416916002885286882092885b88828210620002d95750508411620002c0575b505050811b016002556200012a565b0151600019838d1b60f8161c19169055388080620002b1565b8385015186558e979095019493840193016200029e565b909150600286528486208880850160051c8201928786106200033a575b918c91869594930160051c01915b8281106200032b57505062000101565b8881558594508c91016200031b565b925081926200030d565b634e487b7160e01b86526022600452602486fd5b90607f1690620000ec565b634e487b7160e01b85526041600452602485fd5b600080fd5b634e487b7160e01b600052604160045260246000fd5b60408051919082016001600160401b038111838210176200037c5760405256fe608080604052600436101561001357600080fd5b60003560e01c908162d64e76146143555750806301ffc9a7146142e757806302ee3a521461404e57806306fdde0314613fa8578063081812fc14613f8a578063095ea7b314613e1057806311aa5b3414613ad757806316d81b38146138f45780632148893f1461335157806323b872dd146138cb57806324d41a03146136a65780633c2575d5146135d25780633ccfd60b146134b257806342842e0e1461348a57806345de84db1461344857806352c9224c1461338b578063607eb4e4146133515780636352211e1461332157806370a082311461328a578063715018a6146132315780637acc0b20146130995780638642269e14612c9e5780638da5cb5b14612c7557806395d89b4114612b9357806397b6f393146129975780639d4a2255146128045780639fa44dbf146127bc578063a22cb465146126e1578063af55ed64146126b0578063b119105214611ba4578063b235b4a914610cd2578063b27e169714610bfe578063b88d4fde14610b9d578063b9db15b414610967578063c1302b341461090f578063c64b8a8f146108d0578063c87b56dd14610860578063e01ef6e614610842578063e585cb2c1461078e578063e985e9c514610738578063ed90c7b7146105a4578063f2fde38b146104e05763fdca4ca3146101f757600080fd5b346104db5760003660031901126104db5760088054600060015b8281111561047a5750610223906157cf565b9060009260015b82811115610244576040518061024086826145f9565b0390f35b6000818152600c6020818152604090922060018101546001600160a01b031692919033841480610468575b610286575b505050506102819061575c565b61022a565b6040989498519361029685614687565b81548552838501526102aa60028201614894565b60408501526102bb60038201614894565b6060850152600481015460808501526005918282015460a08601526102e260068301614894565b60c08601526102f360078301614894565b60e08601528682018054610306816153ba565b9161031460405193846146f4565b818352600090815286812090878085015b84831061044a5750505050506101008601526103719061034760098401614894565b610120870152610359600a8401614894565b610140870152600b8301546101608701528201614894565b610180850152610383600d8201614894565b6101a0850152600e8101546101c0850152600f81015460ff80821615156101e087015281881c81161515610200870152601091821c16151561022086015201805491906103cf836153ba565b936103dd60405195866146f4565b8385526000918252808220918186015b85821061042e57505050505050918161028193610240610424940152610413828861576b565b5261041e818761576b565b5061575c565b9490388080610274565b848360019261043c8761577f565b8152019401910190926103ed565b600191829161045886614894565b8152019301910190918890610325565b5060ff600f82015460101c161561026f565b6000818152600c6020526040902060018101546001600160a01b0316331490816104c8575b506104b3575b6104ae9061575c565b610211565b906104c06104ae9161575c565b9190506104a5565b60ff9150600f015460101c16153861049f565b600080fd5b346104db5760203660031901126104db576104f961465b565b610501614984565b6001600160a01b0390811690811561055057600054826001600160601b0360a01b821617600055167f8be0079c531659141344cd1fd0a4f28419497f9722a3daafe3b4186f6b6457e0600080a3005b60405162461bcd60e51b815260206004820152602660248201527f4f776e61626c653a206e6577206f776e657220697320746865207a65726f206160448201526564647265737360d01b6064820152608490fd5b346104db576020806003193601126104db576004359033600052600f815260ff60406000205416600481101561072257600214801561070e575b6105e7906156bb565b816000526013815261060060ff60406000205416615635565b6000828152600c825260409020600101546001600160a01b039081163314908115610700575b50156106ac5781600052600c815260ff600f6040600020015460101c16610668576000918252600c905260409020600f01805462ff0000191662010000179055005b6064906040519062461bcd60e51b82526004820152601a60248201527f50726f6475637420697320616c72656164792064656c657465640000000000006044820152fd5b6084906040519062461bcd60e51b82526004820152602760248201527f4f6e6c792070726f647563742073656c6c6572206f72206f776e65722063616e6044820152662064656c65746560c81b6064820152fd5b600054163314905083610626565b506000546001600160a01b031633146105de565b634e487b7160e01b600052602160045260246000fd5b346104db5760403660031901126104db5761075161465b565b610759614671565b9060018060a01b03809116600052600760205260406000209116600052602052602060ff604060002054166040519015158152f35b346104db5760403660031901126104db576107a761465b565b6001600160a01b0390811660009081526011602052604090208054602435908110156104db576107d69161493a565b50805460018201546002830154600384015460048501546005909501546040805195865260208601949094529284019190915260608301529183166001600160a01b03908116608083015292821690921660a08084019190915260ff91901c16151560c082015260e090f35b346104db5760003660031901126104db576020600b54604051908152f35b346104db5760203660031901126104db5761089a610895600435600052600460205260018060a01b0360406000205416151590565b6149dc565b60006040516108a8816146d9565b526102406040516108b8816146d9565b60008152604051918291602083526020830190614382565b346104db5760203660031901126104db576001600160a01b036108f161465b565b166000526012602052602060ff604060002054166040519015158152f35b346104db5760403660031901126104db5761092861465b565b6001600160a01b03166000908152600d60205260409020805460243591908210156104db576020916109599161496c565b90546040519160031b1c8152f35b346104db576020806003193601126104db5760043561098461532e565b5080600052600c82526109a560ff600f6040600020015460101c161561567a565b80600052601382526109be60ff60406000205416615635565b600052600c8152604060002090604051916109d883614687565b805483526001808201546001600160a01b0316838501526109fb60028301614894565b6040850152610a0c60038301614894565b6060850152600482015460808501526005918281015460a0860152610a3360068201614894565b60c0860152610a4460078201614894565b60e0860152600881018054610a58816153ba565b91610a6660405193846146f4565b818352600090815286812085888086015b858510610b805750888b9260108989610100870152610a9860098201614894565b610120870152610aaa600a8201614894565b610140870152600b810154610160870152610ac7600c8201614894565b610180870152610ad9600d8201614894565b6101a0870152600e8101546101c087015260ff600f82015481811615156101e0890152818160081c161515610200890152831c1615156102208701520191825490610b23826153ba565b93610b3160405195866146f4565b8285526000908152858120868087015b858410610b63576102408a01889052604051828152806102408185018d614459565b86918591610b708561577f565b8152019201920191908790610b41565b908291610b8c85614894565b815201920192019190888791610a77565b346104db5760803660031901126104db57610bb661465b565b610bbe614671565b606435916001600160401b0383116104db57366023840112156104db57610bf2610bfc933690602481600401359101614730565b9160443591614aeb565b005b346104db576020806003193601126104db576001600160a01b039081610c2261465b565b16600052601081526040600020805490610c3b826153ba565b92610c4960405194856146f4565b82845260009182528082208185015b848410610c6d576040518061024088826147b7565b600683600192604051610c7f816146a3565b85548152848601548382015260028601546040820152600386015460608201528a600487015416608082015260ff600587015460a08d8216818501521c16151560c0820152815201920193019290610c58565b346104db576003196020368201126104db576001600160401b03600435116104db576101a090600435360301126104db5733600052600f60205260ff604060002054166004811015610722576002610d2a9114614e8e565b610d44610d3b600480350180614ed0565b90501515614f02565b6024610d65610d5c8260043501600435600401614ed0565b90501515614f45565b610d76604460043501351515614f91565b610d87606460043501351515614fdd565b610da7610d9e608460043501600435600401614ed0565b90501515615029565b610dc7610dbe60c46004350160043560040161506d565b905015156150a2565b610de86005610de060c46004350160043560040161506d565b9050106150e7565b610e08610dff60a460043501600435600401614ed0565b90501515615133565b610e28610e1f60e460043501600435600401614ed0565b90501515615176565b610e49610e4061010460043501600435600401614ed0565b905015156151c2565b610e6a610e6161012460043501600435600401614ed0565b9050151561520e565b610e8b610e8261014460043501600435600401614ed0565b90501515615252565b610e9d61016460043501351515615296565b610eaf610184600435013515156152e2565b60016008540180600855610ec161532e565b818152336020820152610ee2610edb600480350180614ed0565b3691614730565b6040820152610efd610edb8460043501600435600401614ed0565b60608201526044600435013560808201526064600435013560a0820152610f31610edb608460043501600435600401614ed0565b60c0820152610f4d610edb60a460043501600435600401614ed0565b60e0820152610f6660c46004350160043560040161506d565b90610f70826153ba565b91610f7e60405193846146f4565b8083526020830191368260051b8201116104db5780925b8260051b82018410611b795750505050610100820152610fc2610edb60e460043501600435600401614ed0565b610120820152610fe0610edb61010460043501600435600401614ed0565b610140820152610ffe610edb61012460043501600435600401614ed0565b61018082015261101c610edb61014460043501600435600401614ed0565b6101a0820152610164600435013561016082015261018460043501356101c082015260006101e082015260006102208201523315611b3557600082815260046020526040902054611079906001600160a01b031615155b156155e9565b60008281526004602052604090205461109c906001600160a01b03161515611073565b3360005260056020526040600020600181540190558160005260046020526040600020336001600160601b0360a01b825416179055813360007fddf252ad1be2c89b69c2b068fc378daa952ba7f163c4a11628f55a4df523b3ef8180a4600c6020526040600020815181556001810160018060a01b036020840151166001600160601b0360a01b82541617905560408201518051906001600160401b03821161163c57819061115b82611152600287015461485a565b600287016153e8565b602090601f8311600114611ac357600092611ab8575b50508160011b916000199060031b1c19161760028201555b60608201518051906001600160401b03821161163c5781906111bb826111b2600387015461485a565b600387016153e8565b602090601f8311600114611a4657600092611a3b575b50508160011b916000199060031b1c19161760038201555b6080820151600482015560a0820151600582015560c08201518051906001600160401b03821161163c57819061122f82611226600687015461485a565b600687016153e8565b602090601f83116001146119c9576000926119be575b50508160011b916000199060031b1c19161760068201555b60e08201518051906001600160401b03821161163c57819061128f82611286600787015461485a565b600787016153e8565b602090601f831160011461194c57600092611941575b50508160011b916000199060031b1c19161760078201555b600881016101008301519060208251926112d78484615476565b019060005260206000206000915b83831061184957505050506101208201518051906001600160401b03821161163c5781906113238261131a600987015461485a565b600987016153e8565b602090601f83116001146117d7576000926117cc575b50508160011b916000199060031b1c19161760098201555b6101408201518051906001600160401b03821161163c5781906113848261137b600a87015461485a565b600a87016153e8565b602090601f831160011461175a5760009261174f575b50508160011b916000199060031b1c191617600a8201555b610160820151600b8201556101808201518051906001600160401b03821161163c5781906113f0826113e7600c87015461485a565b600c87016153e8565b602090601f83116001146116dd576000926116d2575b50508160011b916000199060031b1c191617600c8201555b6101a08201518051906001600160401b03821161163c5761144f82611446600d86015461485a565b600d86016153e8565b602090601f831160011461165c5791806102409492601094600092611651575b50508160011b916000199060031b1c191617600d8201555b6101c0840151600e820155600f81016114b36101e08601511515829060ff801983541691151516179055565b6102008501511515815461ff0062ff00006102208901511515871b169260081b169062ffff001916171790550191015190815190600160401b9283831161163c5781548383558084106115ac575b506020019060005260206000206000915b83831061158e57505050508160005260136020526040600020600160ff1982541617905533600052600d6020526040600020805491821015611579579061155e9160018201815561496c565b819291549060031b91821b91600019901b1916179055600080f35b83634e487b7160e01b60005260416004526000fd5b60056020826115a060019451866154bf565b01920192019190611512565b8060050290600582040361162757836005026005810485036116125783600052602060002091820191015b8181106115e45750611501565b8060006005925560006001820155600060028201556116056003820161542d565b60006004820155016115d7565b87634e487b7160e01b60005260116004526000fd5b86634e487b7160e01b60005260116004526000fd5b85634e487b7160e01b60005260416004526000fd5b01519050888061146f565b90600d840160005260206000209160005b601f19851681106116ba575092610240949260019260109583601f198116106116a1575b505050811b01600d820155611487565b015160001960f88460031b161c19169055888080611691565b9192602060018192868501518155019401920161166d565b015190508680611406565b9250600c84016000526020600020906000935b601f1984168510611734576001945083601f1981161061171b575b505050811b01600c82015561141e565b015160001960f88460031b161c1916905586808061170b565b818101518355602094850194600190930192909101906116f0565b01519050868061139a565b9250600a84016000526020600020906000935b601f19841685106117b1576001945083601f19811610611798575b505050811b01600a8201556113b2565b015160001960f88460031b161c19169055868080611788565b8181015183556020948501946001909301929091019061176d565b015190508680611339565b9250600984016000526020600020906000935b601f198416851061182e576001945083601f19811610611815575b505050811b016009820155611351565b015160001960f88460031b161c19169055868080611805565b818101518355602094850194600190930192909101906117ea565b80518051906001600160401b03821161192c576118708261186a865461485a565b866153e8565b602090601f83116001146118bc5792826001949360209386956000926118b1575b5050600019600383901b1c191690841b1785555b019201920191906112e5565b015190508d80611891565b908460005260206000209160005b601f1985168110611914575083602093600196938796938794601f198116106118fb575b505050811b0185556118a5565b015160001960f88460031b161c191690558d80806118ee565b919260206001819286850151815501940192016118ca565b89634e487b7160e01b60005260416004526000fd5b0151905086806112a5565b9250600784016000526020600020906000935b601f19841685106119a3576001945083601f1981161061198a575b505050811b0160078201556112bd565b015160001960f88460031b161c1916905586808061197a565b8181015183556020948501946001909301929091019061195f565b015190508680611245565b9250600684016000526020600020906000935b601f1984168510611a20576001945083601f19811610611a07575b505050811b01600682015561125d565b015160001960f88460031b161c191690558680806119f7565b818101518355602094850194600190930192909101906119dc565b0151905086806111d1565b9250600384016000526020600020906000935b601f1984168510611a9d576001945083601f19811610611a84575b505050811b0160038201556111e9565b015160001960f88460031b161c19169055868080611a74565b81810151835560209485019460019093019290910190611a59565b015190508680611171565b9250600284016000526020600020906000935b601f1984168510611b1a576001945083601f19811610611b01575b505050811b016002820155611189565b015160001960f88460031b161c19169055868080611af1565b81810151835560209485019460019093019290910190611ad6565b60405162461bcd60e51b8152602060048201819052818501527f4552433732313a206d696e7420746f20746865207a65726f20616464726573736044820152606490fd5b6001600160401b038435116104db5760208091611b993687358601614767565b815201930192610f95565b346104db576003196040368201126104db576001600160401b03602435116104db576101a090602435360301126104db5733600052600f60205260ff604060002054166004811015610722576002611bfc9114614e8e565b600435600052600c6020523360018060a01b03600160406000200154160361265a576004356000526013602052611c3a60ff60406000205416615635565b600435600052600c602052611c5d60ff600f6040600020015460101c161561567a565b611c6f610d3b60046024350180614ed0565b611c85610d5c6024803501602435600401614ed0565b611c96604460243501351515614f91565b611cad610dbe60c46024350160243560040161506d565b611cc66005610de060c46024350160243560040161506d565b611cd7606460243501351515614fdd565b611cee610d9e608460243501602435600401614ed0565b611d05610dff60a460243501602435600401614ed0565b611d1c610e1f60e460243501602435600401614ed0565b611d34610e4061010460243501602435600401614ed0565b611d4c610e6161012460243501602435600401614ed0565b611d64610e8261014460243501602435600401614ed0565b611d7661016460243501351515615296565b611d88610184602435013515156152e2565b611d9760046024350180614ed0565b600435600052600c6020526002604060002001906001600160401b03811161222857611dcd81611dc7845461485a565b846153e8565b600092601f82116001146125f157928192936000926125e6575b50508160011b916000199060031b1c19161790555b611e0f6024803501602435600401614ed0565b600435600052600c6020526003604060002001906001600160401b03811161222857611e3f81611dc7845461485a565b600092601f821160011461257d5792819293600092612572575b50508160011b916000199060031b1c19161790555b600435600052600c6020526040600020604460243501356004820155606460243501356005820155611eaa608460243501602435600401614ed0565b906001600160401b03821161222857611ed382611eca600686015461485a565b600686016153e8565b600090601f83116001146125025760069291600091836124f7575b50508160011b916000199060031b1c1916179101555b611f1860a460243501602435600401614ed0565b600435600052600c6020526007604060002001906001600160401b03811161222857611f4881611dc7845461485a565b600092601f821160011461248e5792819293600092612483575b50508160011b916000199060031b1c19161790555b611f8b60c46024350160243560040161506d565b600435600052600c602052600860406000200191611fa98284615476565b60009283526020832090805b83851061239a57611fd060e460243501602435600401614ed0565b600435600052600c6020526009604060002001906001600160401b0381116122285761200081611dc7845461485a565b600092601f82116001146123315792819293600092612326575b50508160011b916000199060031b1c19161790555b61204461010460243501602435600401614ed0565b600435600052600c602052600a604060002001906001600160401b0381116122285761207481611dc7845461485a565b600092601f82116001146122bd57928192936000926122b2575b50508160011b916000199060031b1c19161790555b6120b861012460243501602435600401614ed0565b600435600052600c602052600c604060002001906001600160401b038111612228576120e881611dc7845461485a565b600092601f8211600114612249579281929360009261223e575b50508160011b916000199060031b1c19161790555b61212c61014460243501602435600401614ed0565b600435600052600c602052600d604060002001906001600160401b0381116122285761215c81611dc7845461485a565b6000601f82116001146121c3578192936000926121b8575b50508160011b916000199060031b1c19161790555b600435600052600c60205260406000206101646024350135600b820155600e6101846024350135910155600080f35b013590508380612174565b601f198216938360005260206000209160005b86811061221057508360019596106121f6575b505050811b019055612189565b0135600019600384901b60f8161c191690558380806121e9565b909260206001819286860135815501940191016121d6565b634e487b7160e01b600052604160045260246000fd5b013590508380612102565b826000526020600020906000945b601f198416861061229a57600194955083601f19811610612280575b505050811b019055612117565b0135600019600384901b60f8161c19169055838080612273565b91602060018192858501358155019301950194612257565b01359050838061208e565b826000526020600020906000945b601f198416861061230e57600194955083601f198116106122f4575b505050811b0190556120a3565b0135600019600384901b60f8161c191690558380806122e7565b916020600181928585013581550193019501946122cb565b01359050838061201a565b826000526020600020906000945b601f198416861061238257600194955083601f19811610612368575b505050811b01905561202f565b0135600019600384901b60f8161c1916905583808061235b565b9160206001819285850135815501930195019461233f565b6123a48183614ed0565b906001600160401b038211612228576123c7826123c1875461485a565b876153e8565b600090601f8311600114612413579282600194936020938695600092612408575b5050600019600383901b1c191690841b1786555b01930194019391611fb5565b013590508a806123e8565b8560005260206000209160005b601f198516811061246b575083602093600196938796938794601f19811610612451575b505050811b0186556123fc565b0135600019600384901b60f8161c191690558a8080612444565b90926020600181928686013581550194019101612420565b013590508380611f62565b826000526020600020906000945b601f19841686106124df57600194955083601f198116106124c5575b505050811b019055611f77565b0135600019600384901b60f8161c191690558380806124b8565b9160206001819285850135815501930195019461249c565b013590508480611eee565b6006840160005260206000209160005b601f198516811061255a5750918391600193600695601f19811610612540575b505050811b01910155611f04565b0135600019600384901b60f8161c19169055848080612532565b90926020600181928686013581550194019101612512565b013590508380611e59565b826000526020600020906000945b601f19841686106125ce57600194955083601f198116106125b4575b505050811b019055611e6e565b0135600019600384901b60f8161c191690558380806125a7565b9160206001819285850135815501930195019461258b565b013590508380611de7565b826000526020600020906000945b601f198416861061264257600194955083601f19811610612628575b505050811b019055611dfc565b0135600019600384901b60f8161c1916905583808061261b565b916020600181928585013581550193019501946125ff565b60405162461bcd60e51b815260206004820152602860248201527f4f6e6c79207468652073656c6c65722063616e20757064617465207468656972604482015267081c1c9bd91d58dd60c21b6064820152608490fd5b346104db5760203660031901126104db576004356000526013602052602060ff604060002054166040519015158152f35b346104db5760403660031901126104db576126fa61465b565b60243590811515908183036104db576001600160a01b031691338314612777576127499033600052600760205260406000208460005260205260406000209060ff801983541691151516179055565b6040519081527f17307eab39ab6107e8899845ad3d59bd9653f200f220920489ca2b5937696c3160203392a3005b60405162461bcd60e51b815260206004820152601960248201527f4552433732313a20617070726f766520746f2063616c6c6572000000000000006044820152606490fd5b346104db5760403660031901126104db576127d561465b565b6001600160a01b0390811660009081526010602052604090208054602435908110156104db576107d69161493a565b346104db576020806003193601126104db5760043580600052600c9081835260ff600f604060002001549161283f82601094851c161561567a565b80600052601385526128578260406000205416615635565b60009260005b826000528587528160406000200180548210156128ae576004612881838793615740565b5001541615612899575b6128949061575c565b61285d565b936128a66128949161575c565b94905061288b565b505084866128bb866153ba565b956128c960405197886146f4565b8087526128d8601f19916153ba565b018160005b8281106129815750505060009360005b8160005283835284604060002001805482101561296e576004612911838a93615740565b5001541615612929575b6129249061575c565b6128ed565b94612966612924918360005285855261295161294b8989604060002001615740565b5061577f565b61295b828c61576b565b5261041e818b61576b565b95905061291b565b604051848152806102408187018c6143c2565b612989615715565b82828b0101520182906128dd565b346104db5760403660031901126104db576129b061465b565b60249081359060048210156104db576129c7614984565b6001600160a01b0316918215612b5657826000526020906012825260ff6040600020541615612b1b5783600052600f825260ff604060002054166004811015612ace578314612ae35760028314612a6a575b507fd8f7bcb2c5cffc294a0aaef719685993d7be95273fb8254803a1563510ccefed91600f612a65928560005252604060002060ff1981541660ff831617905560405191829182614847565b0390a2005b83600052600f825260ff604060002054166004811015612ace57600114612a195790601f6064926040519262461bcd60e51b845260048401528201527f43616e206f6e6c79207665726966792070656e64696e672073656c6c657273006044820152fd5b50634e487b7160e01b60009081526021600452fd5b9060126064926040519262461bcd60e51b845260048401528201527114dd185d1d5cc8185b1c9958591e481cd95d60721b6044820152fd5b9060156064926040519262461bcd60e51b845260048401528201527414d95b1b195c881b9bdd081c9959da5cdd195c9959605a1b6044820152fd5b60649060166040519162461bcd60e51b83526020600484015282015275496e76616c69642073656c6c6572206164647265737360501b6044820152fd5b346104db5760003660031901126104db576040516000600354612bb58161485a565b80845290600190818116908115612c4e5750600114612bf3575b61024084612bdf818603826146f4565b604051918291602083526020830190614382565b6003600090815292507fc2575a0e9e593c00f959f8c92f12db2869c3395a3b0502d05e2516446f71f85b5b828410612c36575050508101602001612bdf82612bcf565b80546020858701810191909152909301928101612c1e565b60ff191660208087019190915292151560051b85019092019250612bdf9150839050612bcf565b346104db5760003660031901126104db576000546040516001600160a01b039091168152602090f35b6020806003193601126104db5760043590600191600283541461305457600283558060005260138252612cd860ff60406000205416615635565b80600052600c90818352612cfa60ff600f6040600020015460101c161561567a565b600081815282845260408082208601546001600160a01b039081168352600f865291205460ff16600481101561072257600203613016578160005282845260056040600020015415612fd1578160005282845260ff600f6040600020015416612f8c5781600052828452808560406000200154163314612f47578160005282845260046040600020015492833410612f0d5782600052808552600560406000200180548015612ee4576000190190558260005280855281866040600020600581015415612efa575b015416612e23604051612dd4816146a3565b85815286888201528660408201524260608201523360808201528260a0820152600060c08201523360005260108852612e1181604060002061582c565b8260005260118852604060002061582c565b80600052600e86526040600020805490868201809211612ee457556040518581528587820152426040820152847f45280c7ac9cec77edd454e39e1641a3e22619146cf074a4239beee86a7c07edc60603393a48560095401600955612e88843461581f565b80612ed4575b508260005284528460406000200154169260405192835242908301527fbe6177108f4df43c5d7be79cb219c969fc97915bbdb4b56d14d391dcdcc1606060403393a48055005b612ede90336158e1565b86612e8e565b634e487b7160e01b600052601160045260246000fd5b600f8101805460ff191683179055612dc2565b60405162461bcd60e51b8152600481018690526012602482015271496e73756666696369656e742066756e647360701b6044820152606490fd5b60405162461bcd60e51b815260048101859052601b60248201527f43616e6e6f742062757920796f7572206f776e2070726f6475637400000000006044820152606490fd5b60405162461bcd60e51b815260048101859052601a60248201527f50726f6475637420697320616c726561647920736f6c646f75740000000000006044820152606490fd5b60405162461bcd60e51b815260048101859052601760248201527f50726f64756374206973206f7574206f662073746f636b0000000000000000006044820152606490fd5b60405162461bcd60e51b815260048101859052601660248201527514d95b1b195c881a5cc81b9bdd081d995c9a599a595960521b6044820152606490fd5b60405162461bcd60e51b815260048101839052601f60248201527f5265656e7472616e637947756172643a207265656e7472616e742063616c6c006044820152606490fd5b346104db5760203660031901126104db576004356000908152600c60205260409020805460018201546001600160a01b0316916130d860028201614894565b6130e460038301614894565b60048301546005840154906130fb60068601614894565b61310760078701614894565b61311360098801614894565b90613120600a8901614894565b92600b89015494600c8a0161313490614894565b96613141600d8c01614894565b98600e8c01549b600f01549a6040519e8f9e8f908152602001528d610220908160408201520161317091614382565b8d810360608f015261318191614382565b9160808d015260a08c01528a810360c08c015261319d91614382565b89810360e08b01526131ae91614382565b8881036101008a01526131c091614382565b8781036101208901526131d291614382565b906101408701528581036101608701526131eb91614382565b8481036101808601526131fd91614382565b916101a084015260ff811615156101c08401528060081c60ff1615156101e084015260101c60ff1615156102008301520390f35b346104db5760003660031901126104db5761324a614984565b600080546001600160a01b0319811682556001600160a01b03167f8be0079c531659141344cd1fd0a4f28419497f9722a3daafe3b4186f6b6457e08280a3005b346104db5760203660031901126104db576001600160a01b036132ab61465b565b1680156132ca5760005260056020526020604060002054604051908152f35b60405162461bcd60e51b815260206004820152602960248201527f4552433732313a2061646472657373207a65726f206973206e6f7420612076616044820152683634b21037bbb732b960b91b6064820152608490fd5b346104db5760203660031901126104db57602061333f600435614a28565b6040516001600160a01b039091168152f35b346104db5760203660031901126104db576001600160a01b0361337261465b565b16600052600e6020526020604060002054604051908152f35b346104db5760003660031901126104db5733600052601260205260ff6040600020541661340e57336000526012602052604060002060ff1990600182825416179055600f60205260016040600020918254161790556040514281527fa1a1a78ff3033d5ee8393372052aeb2a16bbb347a29f3780370e9506c109e37260203392a2005b60405162461bcd60e51b8152602060048201526012602482015271105b1c9958591e481c9959da5cdd195c995960721b6044820152606490fd5b346104db5760203660031901126104db576001600160a01b0361346961465b565b16600052600f60205261024060ff6040600020541660405191829182614847565b346104db57610bfc61349b36614782565b90604051926134a9846146d9565b60008452614aeb565b346104db5760003660031901126104db5733600052600f60205260ff6040600020541660048110156107225760021480156135be575b6134f1906156bb565b33600052600e602052604060002054801561358057600b54908181029181830403612ee45761354b61352a60646135519404809361581f565b9133600052600e6020526000604081205560018060a01b03600054166158e1565b336158e1565b604051600081527f8ad64a0ac7700dd8425ab0499f107cb6e2cd1581d803c5b8c1c79dcb8190b1af60203392a2005b60405162461bcd60e51b81526020600482015260166024820152754e6f2062616c616e636520746f20776974686472617760501b6044820152606490fd5b506000546001600160a01b031633146134e8565b346104db576020806003193601126104db576001600160a01b0390816135f661465b565b1660005260118152604060002080549061360f826153ba565b9261361d60405194856146f4565b82845260009182528082208185015b848410613641576040518061024088826147b7565b600683600192604051613653816146a3565b85548152848601548382015260028601546040820152600386015460608201528a600487015416608082015260ff600587015460a08d8216818501521c16151560c082015281520192019301929061362c565b346104db5760403660031901126104db57602480356004356000805b82600052600c6020908082526010918260406000200180548510156138be576136ec858992615740565b505414613704575050506136ff9061575c565b6136c2565b9193509193946000526014815260ff9485604060002054161561388257806000528282526137388585604060002001615740565b50600190810154909690336001600160a01b0391821614908115613874575b501561381f578160005283835260046137768787604060002001615740565b500154166137e2579161379793916004959360005252604060002001615740565b5001805460ff1916821790555b156137ab57005b60649060106040519162461bcd60e51b8352602060048401528201526f14995d9a595dc81b9bdd08199bdd5b9960821b6044820152fd5b60405162461bcd60e51b8152600481018390526016818901527514995d9a595dc8185b1c9958591e4819195b195d195960521b6044820152606490fd5b60405162461bcd60e51b8152600481018490526028818a01527f4f6e6c79207265766965776572206f72206f776e65722063616e2064656c6574604482015267652072657669657760c01b6064820152608490fd5b600054163314905089613757565b60405162461bcd60e51b8152600481018390526015818901527414995d9a595dc8191bd95cc81b9bdd08195e1a5cdd605a1b6044820152606490fd5b50505050509150506137a4565b346104db57610bfc6138dc36614782565b916138ef6138ea8433614b86565b614a89565b614c4e565b346104db5760603660031901126104db57602480356004356044356001600160401b0381116104db5761392b903690600401614767565b9080600052602091600c835260018060a01b03600160406000200154163314613a845783151580613a79575b15613a35578051156139f15790600c92916001600a54019081600a5561397b615715565b95828752338588015260408701526060860152600052601482526040600020600160ff198254161790556000525260106040600020018054600160401b811015611579576139ce91600182018155615740565b6139dc57610bfc92506154bf565b82634e487b7160e01b60005260006004526000fd5b60405162461bcd60e51b8152600481018490526017818701527f436f6d6d656e742063616e6e6f7420626520656d7074790000000000000000006044820152606490fd5b60405162461bcd60e51b815260048101849052601e818701527f526174696e67206d757374206265206265747765656e203120616e64203500006044820152606490fd5b506005841115613957565b60405162461bcd60e51b8152600481018490526026818701527f53656c6c65722063616e6e6f7420726576696577207468656972206f776e20706044820152651c9bd91d58dd60d21b6064820152608490fd5b346104db5760403660031901126104db57600435613af3614671565b9033600052602091600f835260ff9182604060002054166004811015610722576002148015613dfc575b613b29909493946156bb565b6001600160a01b039182169360009390845b86600052601080845260406000208054831015613df057613b5d83879261493a565b505414613b735750613b6e9061575c565b613b3b565b9091929394955086600052808452613b8f82604060002061493a565b509260058094015460a01c16613dab5786600052808452613bb482604060002061493a565b50830154861633148015613d9e575b15613d465790613bdd91876000528452604060002061493a565b5001805460ff60a01b1916600160a01b17905560015b15613d0d5781600052600c815260019280846040600020015416846000905b613c46575b5050507ff9dc8543b583e01f592678422369b2777e3649761f5808ae432cb1c24ca9438c9192604051908152a3005b81600052601180855260406000208054831015613d0657613c6883889261493a565b50541480613ce2575b613c8a575090613c8286939261575c565b909192613c12565b7ff9dc8543b583e01f592678422369b2777e3649761f5808ae432cb1c24ca9438c9596935090613cc6916005936000528552604060002061493a565b5001805460ff60a01b1916600160a01b17905592918580613c17565b508260005280855287846004613cfc85604060002061493a565b5001541614613c71565b5050613c17565b6064906040519062461bcd60e51b825260048201526012602482015271141d5c98da185cd9481b9bdd08199bdd5b9960721b6044820152fd5b60405162461bcd60e51b815260048101859052602a60248201527f4f6e6c792073656c6c6572206f72206f776e65722063616e206d61726b2061736044820152690819195b1a5d995c995960b21b6064820152608490fd5b5033866000541614613bc3565b60405162461bcd60e51b815260048101859052601b60248201527f416c7265616479206d61726b65642061732064656c69766572656400000000006044820152606490fd5b50505050909192613bf3565b506000546001600160a01b03163314613b1d565b346104db5760403660031901126104db57613e2961465b565b602435906001600160a01b038080613e4085614a28565b16921691808314613f3b57803314908115613f16575b5015613eab57600083815260066020526040902080546001600160a01b03191683179055613e8383614a28565b167f8c5be1e5ebec7d5bd14f71427d1e84f3dd0314c0f7b2291e5b200ac8c7c3b925600080a4005b60405162461bcd60e51b815260206004820152603d60248201527f4552433732313a20617070726f76652063616c6c6572206973206e6f7420746f60448201527f6b656e206f776e6572206f7220617070726f76656420666f7220616c6c0000006064820152608490fd5b9050600052600760205260406000203360005260205260ff6040600020541684613e56565b60405162461bcd60e51b815260206004820152602160248201527f4552433732313a20617070726f76616c20746f2063757272656e74206f776e656044820152603960f91b6064820152608490fd5b346104db5760203660031901126104db57602061333f600435614a4b565b346104db5760003660031901126104db576040516000600254613fca8161485a565b80845290600190818116908115612c4e5750600114613ff35761024084612bdf818603826146f4565b6002600090815292507f405787fa12a823e0f2b7631cc41b3ba8828b3321ca811111fa75cd3aa3bb5ace5b828410614036575050508101602001612bdf82612bcf565b8054602085870181019190915290930192810161401e565b346104db5760003660031901126104db57600854600060015b828111156142a65750614079906157cf565b90600160005b82821115614095576040518061024086826145f9565b81600052600c6020526040600020600f8101549060ff8260101c16156140c8575b5050906140c29061575c565b9061407f565b604051916140d583614687565b8154835260018201546001600160a01b031660208401526140f860028301614894565b604084015261410960038301614894565b606084015260048201546080840152600582015460a084015261412e60068301614894565b60c084015261413f60078301614894565b60e08401526008820154614152816153ba565b9061416060405192836146f4565b80825260208201600885016000526020600020906000905b83821061428957505050506010929160ff9161010086015261419c60098401614894565b6101208601526141ae600a8401614894565b610140860152600b8301546101608601526141cb600c8401614894565b6101808601526141dd600d8401614894565b6101a0860152600e8301546101c086015281811615156101e0860152818160081c161515610200860152831c1615156102208401520180549061421f826153ba565b9161422d60405193846146f4565b808352602083019160005260206000206000925b82841061426b57505050506102408201526140c29161426491610413828861576b565b90856140b6565b6005602060019261427b8561577f565b815201920193019290614241565b60016020819261429886614894565b815201930191019091614178565b80600052600c60205260ff600f6040600020015460101c16156142d2575b6142cd9061575c565b614067565b906142df6142cd9161575c565b9190506142c4565b346104db5760203660031901126104db5760043563ffffffff60e01b81168091036104db576020906380ac58cd60e01b8114908115614344575b8115614333575b506040519015158152f35b6301ffc9a760e01b14905082614328565b635b5e139f60e01b81149150614321565b346104db5760203660031901126104db576020906004356000526014825260ff6040600020541615158152f35b919082519283825260005b8481106143ae575050826000602080949584010152601f8019910116010190565b60208183018101518483018201520161438d565b908082519081815260208091019281808460051b8301019501936000915b8483106143f05750505050505090565b9091929394958480600192601f1985820301865289519081518152848060a01b038383015116838201526040808301519082015261443d6060808401519060a08091850152830190614382565b91608080910151151591015298019301930191949392906143e0565b91908251815260209260018060a01b038482015116848301526144de6144cc6144a66144946040850151610260806040890152870190614382565b60608501518682036060880152614382565b6080840151608086015260a084015160a086015260c084015185820360c0870152614382565b60e083015184820360e0860152614382565b6101009485830151958483039085015285518083528183019180808360051b8601019801926000905b8382106145c95750505050505061458061456c61454d6145396145c69697610120808701519088830390890152614382565b610140808601519087830390880152614382565b6101608085015190860152610180808501519086830390870152614382565b6101a0808401519085830390860152614382565b916101c080830151908201526101e080830151151590820152610200808301511515908201526102208083015115159082015261024080920151918184039101526143c2565b90565b90919293949883806145e86001938d601f199082030186528951614382565b9b9701959493919091019101614507565b602080820190808352835180925260408301928160408460051b8301019501936000915b84831061462d5750505050505090565b909192939495848061464b600193603f198682030187528a51614459565b980193019301919493929061461d565b600435906001600160a01b03821682036104db57565b602435906001600160a01b03821682036104db57565b61026081019081106001600160401b0382111761222857604052565b60e081019081106001600160401b0382111761222857604052565b60a081019081106001600160401b0382111761222857604052565b602081019081106001600160401b0382111761222857604052565b90601f801991011681019081106001600160401b0382111761222857604052565b6001600160401b03811161222857601f01601f191660200190565b92919261473c82614715565b9161474a60405193846146f4565b8294818452818301116104db578281602093846000960137010152565b9080601f830112156104db578160206145c693359101614730565b60609060031901126104db576001600160a01b039060043582811681036104db579160243590811681036104db579060443590565b60208082019080835283518092528060408094019401926000905b8382106147e157505050505090565b84518051875280840151878501528082015187830152606080820151908801526080808201516001600160a01b039081169189019190915260a0808301519091169088015260c09081015115159087015260e090950194938201936001909101906147d2565b9190602083019260048210156107225752565b90600182811c9216801561488a575b602083101461487457565b634e487b7160e01b600052602260045260246000fd5b91607f1691614869565b90604051918260008254926148a88461485a565b90818452600194858116908160001461491757506001146148d4575b50506148d2925003836146f4565b565b9093915060005260209081600020936000915b8183106148ff5750506148d2935082010138806148c4565b855488840185015294850194879450918301916148e7565b9150506148d294506020925060ff191682840152151560051b82010138806148c4565b8054821015614956576000526006602060002091020190600090565b634e487b7160e01b600052603260045260246000fd5b80548210156149565760005260206000200190600090565b6000546001600160a01b0316330361499857565b606460405162461bcd60e51b815260206004820152602060248201527f4f776e61626c653a2063616c6c6572206973206e6f7420746865206f776e65726044820152fd5b156149e357565b60405162461bcd60e51b815260206004820152601860248201527f4552433732313a20696e76616c696420746f6b656e20494400000000000000006044820152606490fd5b6000908152600460205260409020546001600160a01b03166145c68115156149dc565b600081815260046020526040902054614a6e906001600160a01b031615156149dc565b6000908152600660205260409020546001600160a01b031690565b15614a9057565b60405162461bcd60e51b815260206004820152602d60248201527f4552433732313a2063616c6c6572206973206e6f7420746f6b656e206f776e6560448201526c1c881bdc88185c1c1c9bdd9959609a1b6064820152608490fd5b90614b0f939291614aff6138ea8433614b86565b614b0a838383614c4e565b614d8f565b15614b1657565b60405162461bcd60e51b815280614b2f60048201614b33565b0390fd5b60809060208152603260208201527f4552433732313a207472616e7366657220746f206e6f6e20455243373231526560408201527131b2b4bb32b91034b6b83632b6b2b73a32b960711b60608201520190565b906001600160a01b038080614b9a84614a28565b16931691838314938415614bcd575b508315614bb7575b50505090565b614bc391929350614a4b565b1614388080614bb1565b909350600052600760205260406000208260005260205260ff604060002054169238614ba9565b15614bfb57565b60405162461bcd60e51b815260206004820152602560248201527f4552433732313a207472616e736665722066726f6d20696e636f72726563742060448201526437bbb732b960d91b6064820152608490fd5b90614c7691614c5c84614a28565b6001600160a01b0393918416928492909183168414614bf4565b16918215614d0e5781614c9391614c8c86614a28565b1614614bf4565b7fddf252ad1be2c89b69c2b068fc378daa952ba7f163c4a11628f55a4df523b3ef60008481526006602052604081206001600160601b0360a01b9081815416905583825260056020526040822060001981540190558482526040822060018154019055858252600460205284604083209182541617905580a4565b60405162461bcd60e51b8152602060048201526024808201527f4552433732313a207472616e7366657220746f20746865207a65726f206164646044820152637265737360e01b6064820152608490fd5b3d15614d8a573d90614d7082614715565b91614d7e60405193846146f4565b82523d6000602084013e565b606090565b91926000929190813b15614e8457602091614de59185604051958680958194630a85bd0160e11b9b8c845233600485015260018060a01b0380951660248501526044840152608060648401526084830190614382565b0393165af190829082614e35575b5050614e2757614e01614d5f565b80519081614e225760405162461bcd60e51b815280614b2f60048201614b33565b602001fd5b6001600160e01b0319161490565b909192506020813d8211614e7c575b81614e51602093836146f4565b81010312614e785751906001600160e01b031982168203614e755750903880614df3565b80fd5b5080fd5b3d9150614e44565b5050505050600190565b15614e9557565b60405162461bcd60e51b815260206004820152601360248201527214d95b1b195c881b9bdd081d995c9a599a5959606a1b6044820152606490fd5b903590601e19813603018212156104db57018035906001600160401b0382116104db576020019181360383136104db57565b15614f0957565b60405162461bcd60e51b81526020600482015260146024820152734e616d652063616e6e6f7420626520656d70747960601b6044820152606490fd5b15614f4c57565b60405162461bcd60e51b815260206004820152601b60248201527f4465736372697074696f6e2063616e6e6f7420626520656d70747900000000006044820152606490fd5b15614f9857565b60405162461bcd60e51b815260206004820152601c60248201527f5072696365206d7573742062652067726561746572207468616e2030000000006044820152606490fd5b15614fe457565b60405162461bcd60e51b815260206004820152601c60248201527f53746f636b206d7573742062652067726561746572207468616e2030000000006044820152606490fd5b1561503057565b60405162461bcd60e51b8152602060048201526015602482015274436f6c6f722063616e6e6f7420626520656d70747960581b6044820152606490fd5b903590601e19813603018212156104db57018035906001600160401b0382116104db57602001918160051b360383136104db57565b156150a957565b60405162461bcd60e51b8152602060048201526016602482015275496d616765732063616e6e6f7420626520656d70747960501b6044820152606490fd5b156150ee57565b60405162461bcd60e51b815260206004820152601c60248201527f496d616765732063616e6e6f74206265206d6f7265207468616e2035000000006044820152606490fd5b1561513a57565b60405162461bcd60e51b815260206004820152601460248201527353697a652063616e6e6f7420626520656d70747960601b6044820152606490fd5b1561517d57565b60405162461bcd60e51b815260206004820152601860248201527f43617465676f72792063616e6e6f7420626520656d70747900000000000000006044820152606490fd5b156151c957565b60405162461bcd60e51b815260206004820152601c60248201527f5375622d63617465676f72792063616e6e6f7420626520656d707479000000006044820152606490fd5b1561521557565b60405162461bcd60e51b81526020600482015260156024820152744d6f64656c2063616e6e6f7420626520656d70747960581b6044820152606490fd5b1561525957565b60405162461bcd60e51b81526020600482015260156024820152744272616e642063616e6e6f7420626520656d70747960581b6044820152606490fd5b1561529d57565b60405162461bcd60e51b815260206004820152601d60248201527f576569676874206d7573742062652067726561746572207468616e20300000006044820152606490fd5b156152e957565b60405162461bcd60e51b815260206004820152601a60248201527f534b55206d7573742062652067726561746572207468616e20300000000000006044820152606490fd5b6040519061533b82614687565b8161024060009182815282602082015260609283604083015283808301528060808301528060a08301528360c08301528360e08301528361010083015283610120830152836101408301528061016083015283610180830152836101a0830152806101c0830152806101e0830152806102008301526102208201520152565b6001600160401b0381116122285760051b60200190565b8181106153dc575050565b600081556001016153d1565b9190601f81116153f757505050565b6148d2926000526020600020906020601f840160051c83019310615423575b601f0160051c01906153d1565b9091508190615416565b615437815461485a565b9081615441575050565b81601f60009311600114615453575055565b908083918252615472601f60208420940160051c8401600185016153d1565b5555565b90600160401b81116122285781549181815582821061549457505050565b600052602060002091820191015b8181106154ad575050565b806154b960019261542d565b016154a2565b8151815560019182820160209060018060a01b0382840151166001600160601b0360a01b8254161790556040820151600284015560038301906060830151948551916001600160401b0383116122285761551d8361186a865461485a565b80601f8411600114615575575091808060809593600497956148d29a60009461556a575b50501b916000199060031b1c19161790555b0151151591019060ff801983541691151516179055565b015192503880615541565b9193949596601f1984168660005283600020936000905b8282106155d2575050926080959285926148d29a999660049996106155b9575b505050811b019055615553565b015160001960f88460031b161c191690553880806155ac565b80888697829497870151815501960194019061558c565b156155f057565b60405162461bcd60e51b815260206004820152601c60248201527f4552433732313a20746f6b656e20616c7265616479206d696e746564000000006044820152606490fd5b1561563c57565b60405162461bcd60e51b8152602060048201526016602482015275141c9bd91d58dd08191bd95cc81b9bdd08195e1a5cdd60521b6044820152606490fd5b1561568157565b60405162461bcd60e51b8152602060048201526012602482015271141c9bd91d58dd081a5cc819195b195d195960721b6044820152606490fd5b156156c257565b60405162461bcd60e51b815260206004820152602560248201527f4f6e6c792076657269666965642073656c6c6572206f72206f776e657220616c6044820152641b1bddd95960da1b6064820152608490fd5b60405190615722826146be565b60006080838281528260208201528260408201526060808201520152565b8054821015614956576000526005602060002091020190600090565b6000198114612ee45760010190565b80518210156149565760209160051b010190565b9060405161578c816146be565b608060ff600483958054855260018060a01b036001820154166020860152600281015460408601526157c060038201614894565b60608601520154161515910152565b906157d9826153ba565b6157e660405191826146f4565b82815280926157f7601f19916153ba565b019060005b82811061580857505050565b60209061581361532e565b828285010152016157fc565b91908203918211612ee457565b8054600160401b811015612228576158499160018201815561493a565b9190916158cb57805182556020810151600183015560408101516002830155606081015160038301556005600483019260018060a01b0393846080850151166001600160601b0360a01b825416179055019160a08201511682549160c060ff60a01b910151151560a01b16916affffffffffffffffffffff60a81b1617179055565b634e487b7160e01b600052600060045260246000fd5b6001600160a01b0316801561594057600080809381935af1615901614d5f565b501561590957565b60405162461bcd60e51b815260206004820152600f60248201526e151c985b9cd9995c8819985a5b1959608a1b6044820152606490fd5b60405162461bcd60e51b815260206004820152600f60248201526e496e76616c6964206164647265737360881b6044820152606490fdfea2646970667358221220bffd74834bdaeffb6e7b3c662b873eb7374a664186cae1e2e49aed78dcdf366664736f6c63430008130033","opcodes":"PUSH1 0x80 CALLVALUE PUSH3 0x377 JUMPI PUSH1 0x1F SWAP1 PUSH1 0x1F NOT PUSH1 0x1 PUSH1 0x1 PUSH1 0x40 SHL SUB PUSH3 0x5D60 CODESIZE DUP2 SWAP1 SUB DUP6 DUP2 ADD DUP5 AND DUP6 ADD DUP4 DUP2 GT DUP7 DUP3 LT OR PUSH3 0x37C JUMPI DUP6 SWAP3 DUP3 SWAP2 PUSH1 0x40 MSTORE DUP4 CODECOPY PUSH1 0x20 SWAP5 DUP6 SWAP2 DUP2 ADD SUB SLT PUSH3 0x377 JUMPI MLOAD SWAP4 PUSH3 0x53 PUSH3 0x392 JUMP JUMPDEST SWAP3 PUSH1 0x7 DUP5 MSTORE PUSH7 0x48656D53686F7 PUSH1 0xCC SHL DUP6 DUP6 ADD MSTORE PUSH3 0x71 PUSH3 0x392 JUMP JUMPDEST PUSH1 0x3 DUP1 DUP3 MSTORE PUSH3 0x48737 PUSH1 0xEC SHL DUP8 DUP4 ADD MSTORE PUSH1 0x0 DUP1 SLOAD CALLER PUSH1 0x1 PUSH1 0x1 PUSH1 0xA0 SHL SUB NOT DUP3 AND DUP2 OR DUP4 SSTORE SWAP3 SWAP9 SWAP4 SWAP5 SWAP2 SWAP4 SWAP3 SWAP1 PUSH1 0x1 PUSH1 0x1 PUSH1 0xA0 SHL SUB AND PUSH32 0x8BE0079C531659141344CD1FD0A4F28419497F9722A3DAAFE3B4186F6B6457E0 DUP6 DUP1 LOG3 PUSH1 0x1 SWAP7 DUP8 DUP1 SSTORE DUP1 MLOAD SWAP1 DUP8 DUP3 GT PUSH3 0x363 JUMPI PUSH1 0x2 SLOAD DUP10 DUP2 DUP2 SHR SWAP2 AND DUP1 ISZERO PUSH3 0x358 JUMPI JUMPDEST DUP6 DUP3 LT EQ PUSH3 0x344 JUMPI SWAP1 DUP2 DUP9 DUP5 SWAP4 GT PUSH3 0x2F0 JUMPI JUMPDEST POP DUP5 SWAP1 DUP9 DUP4 GT PUSH1 0x1 EQ PUSH3 0x28E JUMPI DUP7 SWAP3 PUSH3 0x282 JUMPI JUMPDEST POP POP PUSH1 0x0 NOT DUP3 DUP12 SHL SHR NOT AND SWAP1 DUP9 SHL OR PUSH1 0x2 SSTORE JUMPDEST DUP4 MLOAD SWAP6 DUP7 GT PUSH3 0x26E JUMPI DUP8 SLOAD DUP8 DUP2 DUP2 SHR SWAP2 AND DUP1 ISZERO PUSH3 0x263 JUMPI JUMPDEST DUP4 DUP3 LT EQ PUSH3 0x24F JUMPI DUP6 DUP2 GT PUSH3 0x207 JUMPI JUMPDEST POP DUP2 SWAP5 DUP7 GT PUSH1 0x1 EQ PUSH3 0x1A2 JUMPI POP POP SWAP2 DUP4 SWAP5 SWAP2 DUP5 SWAP4 SWAP5 PUSH3 0x196 JUMPI JUMPDEST POP POP SHL SWAP2 PUSH1 0x0 NOT SWAP1 DUP5 SHL SHR NOT AND OR SWAP1 SSTORE JUMPDEST PUSH1 0xB SSTORE PUSH1 0x40 MLOAD PUSH2 0x59AD SWAP1 DUP2 PUSH3 0x3B3 DUP3 CODECOPY RETURN JUMPDEST ADD MLOAD SWAP3 POP CODESIZE DUP1 PUSH3 0x172 JUMP JUMPDEST DUP8 DUP4 MSTORE DUP2 DUP4 KECCAK256 SWAP5 SWAP4 SWAP3 DUP7 SWAP3 SWAP2 DUP4 AND SWAP2 JUMPDEST DUP9 DUP4 DUP4 LT PUSH3 0x1EC JUMPI POP POP POP LT PUSH3 0x1D3 JUMPI JUMPDEST POP POP POP DUP2 SHL ADD SWAP1 SSTORE PUSH3 0x183 JUMP JUMPDEST ADD MLOAD PUSH1 0x0 NOT DUP4 DUP7 SHL PUSH1 0xF8 AND SHR NOT AND SWAP1 SSTORE CODESIZE DUP1 DUP1 PUSH3 0x1C5 JUMP JUMPDEST DUP6 DUP8 ADD MLOAD DUP9 SSTORE SWAP1 SWAP7 ADD SWAP6 SWAP5 DUP6 ADD SWAP5 DUP8 SWAP4 POP SWAP1 DUP2 ADD SWAP1 PUSH3 0x1B2 JUMP JUMPDEST DUP9 DUP5 MSTORE DUP3 DUP5 KECCAK256 DUP7 DUP1 DUP10 ADD PUSH1 0x5 SHR DUP3 ADD SWAP3 DUP6 DUP11 LT PUSH3 0x245 JUMPI JUMPDEST ADD PUSH1 0x5 SHR ADD SWAP1 DUP9 SWAP1 JUMPDEST DUP3 DUP2 LT PUSH3 0x239 JUMPI POP POP PUSH3 0x156 JUMP JUMPDEST DUP6 DUP2 SSTORE ADD DUP9 SWAP1 PUSH3 0x229 JUMP JUMPDEST SWAP3 POP DUP2 SWAP3 PUSH3 0x220 JUMP JUMPDEST PUSH4 0x4E487B71 PUSH1 0xE0 SHL DUP5 MSTORE PUSH1 0x22 PUSH1 0x4 MSTORE PUSH1 0x24 DUP5 REVERT JUMPDEST SWAP1 PUSH1 0x7F AND SWAP1 PUSH3 0x144 JUMP JUMPDEST PUSH4 0x4E487B71 PUSH1 0xE0 SHL DUP4 MSTORE PUSH1 0x41 PUSH1 0x4 MSTORE PUSH1 0x24 DUP4 REVERT JUMPDEST ADD MLOAD SWAP1 POP CODESIZE DUP1 PUSH3 0x117 JUMP JUMPDEST SWAP1 DUP5 DUP12 SWAP5 AND SWAP2 PUSH1 0x2 DUP9 MSTORE DUP7 DUP9 KECCAK256 SWAP3 DUP9 JUMPDEST DUP9 DUP3 DUP3 LT PUSH3 0x2D9 JUMPI POP POP DUP5 GT PUSH3 0x2C0 JUMPI JUMPDEST POP POP POP DUP2 SHL ADD PUSH1 0x2 SSTORE PUSH3 0x12A JUMP JUMPDEST ADD MLOAD PUSH1 0x0 NOT DUP4 DUP14 SHL PUSH1 0xF8 AND SHR NOT AND SWAP1 SSTORE CODESIZE DUP1 DUP1 PUSH3 0x2B1 JUMP JUMPDEST DUP4 DUP6 ADD MLOAD DUP7 SSTORE DUP15 SWAP8 SWAP1 SWAP6 ADD SWAP5 SWAP4 DUP5 ADD SWAP4 ADD PUSH3 0x29E JUMP JUMPDEST SWAP1 SWAP2 POP PUSH1 0x2 DUP7 MSTORE DUP5 DUP7 KECCAK256 DUP9 DUP1 DUP6 ADD PUSH1 0x5 SHR DUP3 ADD SWAP3 DUP8 DUP7 LT PUSH3 0x33A JUMPI JUMPDEST SWAP2 DUP13 SWAP2 DUP7 SWAP6 SWAP5 SWAP4 ADD PUSH1 0x5 SHR ADD SWAP2 JUMPDEST DUP3 DUP2 LT PUSH3 0x32B JUMPI POP POP PUSH3 0x101 JUMP JUMPDEST DUP9 DUP2 SSTORE DUP6 SWAP5 POP DUP13 SWAP2 ADD PUSH3 0x31B JUMP JUMPDEST SWAP3 POP DUP2 SWAP3 PUSH3 0x30D JUMP JUMPDEST PUSH4 0x4E487B71 PUSH1 0xE0 SHL DUP7 MSTORE PUSH1 0x22 PUSH1 0x4 MSTORE PUSH1 0x24 DUP7 REVERT JUMPDEST SWAP1 PUSH1 0x7F AND SWAP1 PUSH3 0xEC JUMP JUMPDEST PUSH4 0x4E487B71 PUSH1 0xE0 SHL DUP6 MSTORE PUSH1 0x41 PUSH1 0x4 MSTORE PUSH1 0x24 DUP6 REVERT JUMPDEST PUSH1 0x0 DUP1 REVERT JUMPDEST PUSH4 0x4E487B71 PUSH1 0xE0 SHL PUSH1 0x0 MSTORE PUSH1 0x41 PUSH1 0x4 MSTORE PUSH1 0x24 PUSH1 0x0 REVERT JUMPDEST PUSH1 0x40 DUP1 MLOAD SWAP2 SWAP1 DUP3 ADD PUSH1 0x1 PUSH1 0x1 PUSH1 0x40 SHL SUB DUP2 GT DUP4 DUP3 LT OR PUSH3 0x37C JUMPI PUSH1 0x40 MSTORE JUMP INVALID PUSH1 0x80 DUP1 PUSH1 0x40 MSTORE PUSH1 0x4 CALLDATASIZE LT ISZERO PUSH2 0x13 JUMPI PUSH1 0x0 DUP1 REVERT JUMPDEST PUSH1 0x0 CALLDATALOAD PUSH1 0xE0 SHR SWAP1 DUP2 PUSH3 0xD64E76 EQ PUSH2 0x4355 JUMPI POP DUP1 PUSH4 0x1FFC9A7 EQ PUSH2 0x42E7 JUMPI DUP1 PUSH4 0x2EE3A52 EQ PUSH2 0x404E JUMPI DUP1 PUSH4 0x6FDDE03 EQ PUSH2 0x3FA8 JUMPI DUP1 PUSH4 0x81812FC EQ PUSH2 0x3F8A JUMPI DUP1 PUSH4 0x95EA7B3 EQ PUSH2 0x3E10 JUMPI DUP1 PUSH4 0x11AA5B34 EQ PUSH2 0x3AD7 JUMPI DUP1 PUSH4 0x16D81B38 EQ PUSH2 0x38F4 JUMPI DUP1 PUSH4 0x2148893F EQ PUSH2 0x3351 JUMPI DUP1 PUSH4 0x23B872DD EQ PUSH2 0x38CB JUMPI DUP1 PUSH4 0x24D41A03 EQ PUSH2 0x36A6 JUMPI DUP1 PUSH4 0x3C2575D5 EQ PUSH2 0x35D2 JUMPI DUP1 PUSH4 0x3CCFD60B EQ PUSH2 0x34B2 JUMPI DUP1 PUSH4 0x42842E0E EQ PUSH2 0x348A JUMPI DUP1 PUSH4 0x45DE84DB EQ PUSH2 0x3448 JUMPI DUP1 PUSH4 0x52C9224C EQ PUSH2 0x338B JUMPI DUP1 PUSH4 0x607EB4E4 EQ PUSH2 0x3351 JUMPI DUP1 PUSH4 0x6352211E EQ PUSH2 0x3321 JUMPI DUP1 PUSH4 0x70A08231 EQ PUSH2 0x328A JUMPI DUP1 PUSH4 0x715018A6 EQ PUSH2 0x3231 JUMPI DUP1 PUSH4 0x7ACC0B20 EQ PUSH2 0x3099 JUMPI DUP1 PUSH4 0x8642269E EQ PUSH2 0x2C9E JUMPI DUP1 PUSH4 0x8DA5CB5B EQ PUSH2 0x2C75 JUMPI DUP1 PUSH4 0x95D89B41 EQ PUSH2 0x2B93 JUMPI DUP1 PUSH4 0x97B6F393 EQ PUSH2 0x2997 JUMPI DUP1 PUSH4 0x9D4A2255 EQ PUSH2 0x2804 JUMPI DUP1 PUSH4 0x9FA44DBF EQ PUSH2 0x27BC JUMPI DUP1 PUSH4 0xA22CB465 EQ PUSH2 0x26E1 JUMPI DUP1 PUSH4 0xAF55ED64 EQ PUSH2 0x26B0 JUMPI DUP1 PUSH4 0xB1191052 EQ PUSH2 0x1BA4 JUMPI DUP1 PUSH4 0xB235B4A9 EQ PUSH2 0xCD2 JUMPI DUP1 PUSH4 0xB27E1697 EQ PUSH2 0xBFE JUMPI DUP1 PUSH4 0xB88D4FDE EQ PUSH2 0xB9D JUMPI DUP1 PUSH4 0xB9DB15B4 EQ PUSH2 0x967 JUMPI DUP1 PUSH4 0xC1302B34 EQ PUSH2 0x90F JUMPI DUP1 PUSH4 0xC64B8A8F EQ PUSH2 0x8D0 JUMPI DUP1 PUSH4 0xC87B56DD EQ PUSH2 0x860 JUMPI DUP1 PUSH4 0xE01EF6E6 EQ PUSH2 0x842 JUMPI DUP1 PUSH4 0xE585CB2C EQ PUSH2 0x78E JUMPI DUP1 PUSH4 0xE985E9C5 EQ PUSH2 0x738 JUMPI DUP1 PUSH4 0xED90C7B7 EQ PUSH2 0x5A4 JUMPI DUP1 PUSH4 0xF2FDE38B EQ PUSH2 0x4E0 JUMPI PUSH4 0xFDCA4CA3 EQ PUSH2 0x1F7 JUMPI PUSH1 0x0 DUP1 REVERT JUMPDEST CALLVALUE PUSH2 0x4DB JUMPI PUSH1 0x0 CALLDATASIZE PUSH1 0x3 NOT ADD SLT PUSH2 0x4DB JUMPI PUSH1 0x8 DUP1 SLOAD PUSH1 0x0 PUSH1 0x1 JUMPDEST DUP3 DUP2 GT ISZERO PUSH2 0x47A JUMPI POP PUSH2 0x223 SWAP1 PUSH2 0x57CF JUMP JUMPDEST SWAP1 PUSH1 0x0 SWAP3 PUSH1 0x1 JUMPDEST DUP3 DUP2 GT ISZERO PUSH2 0x244 JUMPI PUSH1 0x40 MLOAD DUP1 PUSH2 0x240 DUP7 DUP3 PUSH2 0x45F9 JUMP JUMPDEST SUB SWAP1 RETURN JUMPDEST PUSH1 0x0 DUP2 DUP2 MSTORE PUSH1 0xC PUSH1 0x20 DUP2 DUP2 MSTORE PUSH1 0x40 SWAP1 SWAP3 KECCAK256 PUSH1 0x1 DUP2 ADD SLOAD PUSH1 0x1 PUSH1 0x1 PUSH1 0xA0 SHL SUB AND SWAP3 SWAP2 SWAP1 CALLER DUP5 EQ DUP1 PUSH2 0x468 JUMPI JUMPDEST PUSH2 0x286 JUMPI JUMPDEST POP POP POP POP PUSH2 0x281 SWAP1 PUSH2 0x575C JUMP JUMPDEST PUSH2 0x22A JUMP JUMPDEST PUSH1 0x40 SWAP9 SWAP5 SWAP9 MLOAD SWAP4 PUSH2 0x296 DUP6 PUSH2 0x4687 JUMP JUMPDEST DUP2 SLOAD DUP6 MSTORE DUP4 DUP6 ADD MSTORE PUSH2 0x2AA PUSH1 0x2 DUP3 ADD PUSH2 0x4894 JUMP JUMPDEST PUSH1 0x40 DUP6 ADD MSTORE PUSH2 0x2BB PUSH1 0x3 DUP3 ADD PUSH2 0x4894 JUMP JUMPDEST PUSH1 0x60 DUP6 ADD MSTORE PUSH1 0x4 DUP2 ADD SLOAD PUSH1 0x80 DUP6 ADD MSTORE PUSH1 0x5 SWAP2 DUP3 DUP3 ADD SLOAD PUSH1 0xA0 DUP7 ADD MSTORE PUSH2 0x2E2 PUSH1 0x6 DUP4 ADD PUSH2 0x4894 JUMP JUMPDEST PUSH1 0xC0 DUP7 ADD MSTORE PUSH2 0x2F3 PUSH1 0x7 DUP4 ADD PUSH2 0x4894 JUMP JUMPDEST PUSH1 0xE0 DUP7 ADD MSTORE DUP7 DUP3 ADD DUP1 SLOAD PUSH2 0x306 DUP2 PUSH2 0x53BA JUMP JUMPDEST SWAP2 PUSH2 0x314 PUSH1 0x40 MLOAD SWAP4 DUP5 PUSH2 0x46F4 JUMP JUMPDEST DUP2 DUP4 MSTORE PUSH1 0x0 SWAP1 DUP2 MSTORE DUP7 DUP2 KECCAK256 SWAP1 DUP8 DUP1 DUP6 ADD JUMPDEST DUP5 DUP4 LT PUSH2 0x44A JUMPI POP POP POP POP POP PUSH2 0x100 DUP7 ADD MSTORE PUSH2 0x371 SWAP1 PUSH2 0x347 PUSH1 0x9 DUP5 ADD PUSH2 0x4894 JUMP JUMPDEST PUSH2 0x120 DUP8 ADD MSTORE PUSH2 0x359 PUSH1 0xA DUP5 ADD PUSH2 0x4894 JUMP JUMPDEST PUSH2 0x140 DUP8 ADD MSTORE PUSH1 0xB DUP4 ADD SLOAD PUSH2 0x160 DUP8 ADD MSTORE DUP3 ADD PUSH2 0x4894 JUMP JUMPDEST PUSH2 0x180 DUP6 ADD MSTORE PUSH2 0x383 PUSH1 0xD DUP3 ADD PUSH2 0x4894 JUMP JUMPDEST PUSH2 0x1A0 DUP6 ADD MSTORE PUSH1 0xE DUP2 ADD SLOAD PUSH2 0x1C0 DUP6 ADD MSTORE PUSH1 0xF DUP2 ADD SLOAD PUSH1 0xFF DUP1 DUP3 AND ISZERO ISZERO PUSH2 0x1E0 DUP8 ADD MSTORE DUP2 DUP9 SHR DUP2 AND ISZERO ISZERO PUSH2 0x200 DUP8 ADD MSTORE PUSH1 0x10 SWAP2 DUP3 SHR AND ISZERO ISZERO PUSH2 0x220 DUP7 ADD MSTORE ADD DUP1 SLOAD SWAP2 SWAP1 PUSH2 0x3CF DUP4 PUSH2 0x53BA JUMP JUMPDEST SWAP4 PUSH2 0x3DD PUSH1 0x40 MLOAD SWAP6 DUP7 PUSH2 0x46F4 JUMP JUMPDEST DUP4 DUP6 MSTORE PUSH1 0x0 SWAP2 DUP3 MSTORE DUP1 DUP3 KECCAK256 SWAP2 DUP2 DUP7 ADD JUMPDEST DUP6 DUP3 LT PUSH2 0x42E JUMPI POP POP POP POP POP POP SWAP2 DUP2 PUSH2 0x281 SWAP4 PUSH2 0x240 PUSH2 0x424 SWAP5 ADD MSTORE PUSH2 0x413 DUP3 DUP9 PUSH2 0x576B JUMP JUMPDEST MSTORE PUSH2 0x41E DUP2 DUP8 PUSH2 0x576B JUMP JUMPDEST POP PUSH2 0x575C JUMP JUMPDEST SWAP5 SWAP1 CODESIZE DUP1 DUP1 PUSH2 0x274 JUMP JUMPDEST DUP5 DUP4 PUSH1 0x1 SWAP3 PUSH2 0x43C DUP8 PUSH2 0x577F JUMP JUMPDEST DUP2 MSTORE ADD SWAP5 ADD SWAP2 ADD SWAP1 SWAP3 PUSH2 0x3ED JUMP JUMPDEST PUSH1 0x1 SWAP2 DUP3 SWAP2 PUSH2 0x458 DUP7 PUSH2 0x4894 JUMP JUMPDEST DUP2 MSTORE ADD SWAP4 ADD SWAP2 ADD SWAP1 SWAP2 DUP9 SWAP1 PUSH2 0x325 JUMP JUMPDEST POP PUSH1 0xFF PUSH1 0xF DUP3 ADD SLOAD PUSH1 0x10 SHR AND ISZERO PUSH2 0x26F JUMP JUMPDEST PUSH1 0x0 DUP2 DUP2 MSTORE PUSH1 0xC PUSH1 0x20 MSTORE PUSH1 0x40 SWAP1 KECCAK256 PUSH1 0x1 DUP2 ADD SLOAD PUSH1 0x1 PUSH1 0x1 PUSH1 0xA0 SHL SUB AND CALLER EQ SWAP1 DUP2 PUSH2 0x4C8 JUMPI JUMPDEST POP PUSH2 0x4B3 JUMPI JUMPDEST PUSH2 0x4AE SWAP1 PUSH2 0x575C JUMP JUMPDEST PUSH2 0x211 JUMP JUMPDEST SWAP1 PUSH2 0x4C0 PUSH2 0x4AE SWAP2 PUSH2 0x575C JUMP JUMPDEST SWAP2 SWAP1 POP PUSH2 0x4A5 JUMP JUMPDEST PUSH1 0xFF SWAP2 POP PUSH1 0xF ADD SLOAD PUSH1 0x10 SHR AND ISZERO CODESIZE PUSH2 0x49F JUMP JUMPDEST PUSH1 0x0 DUP1 REVERT JUMPDEST CALLVALUE PUSH2 0x4DB JUMPI PUSH1 0x20 CALLDATASIZE PUSH1 0x3 NOT ADD SLT PUSH2 0x4DB JUMPI PUSH2 0x4F9 PUSH2 0x465B JUMP JUMPDEST PUSH2 0x501 PUSH2 0x4984 JUMP JUMPDEST PUSH1 0x1 PUSH1 0x1 PUSH1 0xA0 SHL SUB SWAP1 DUP2 AND SWAP1 DUP2 ISZERO PUSH2 0x550 JUMPI PUSH1 0x0 SLOAD DUP3 PUSH1 0x1 PUSH1 0x1 PUSH1 0x60 SHL SUB PUSH1 0xA0 SHL DUP3 AND OR PUSH1 0x0 SSTORE AND PUSH32 0x8BE0079C531659141344CD1FD0A4F28419497F9722A3DAAFE3B4186F6B6457E0 PUSH1 0x0 DUP1 LOG3 STOP JUMPDEST PUSH1 0x40 MLOAD PUSH3 0x461BCD PUSH1 0xE5 SHL DUP2 MSTORE PUSH1 0x20 PUSH1 0x4 DUP3 ADD MSTORE PUSH1 0x26 PUSH1 0x24 DUP3 ADD MSTORE PUSH32 0x4F776E61626C653A206E6577206F776E657220697320746865207A65726F2061 PUSH1 0x44 DUP3 ADD MSTORE PUSH6 0x646472657373 PUSH1 0xD0 SHL PUSH1 0x64 DUP3 ADD MSTORE PUSH1 0x84 SWAP1 REVERT JUMPDEST CALLVALUE PUSH2 0x4DB JUMPI PUSH1 0x20 DUP1 PUSH1 0x3 NOT CALLDATASIZE ADD SLT PUSH2 0x4DB JUMPI PUSH1 0x4 CALLDATALOAD SWAP1 CALLER PUSH1 0x0 MSTORE PUSH1 0xF DUP2 MSTORE PUSH1 0xFF PUSH1 0x40 PUSH1 0x0 KECCAK256 SLOAD AND PUSH1 0x4 DUP2 LT ISZERO PUSH2 0x722 JUMPI PUSH1 0x2 EQ DUP1 ISZERO PUSH2 0x70E JUMPI JUMPDEST PUSH2 0x5E7 SWAP1 PUSH2 0x56BB JUMP JUMPDEST DUP2 PUSH1 0x0 MSTORE PUSH1 0x13 DUP2 MSTORE PUSH2 0x600 PUSH1 0xFF PUSH1 0x40 PUSH1 0x0 KECCAK256 SLOAD AND PUSH2 0x5635 JUMP JUMPDEST PUSH1 0x0 DUP3 DUP2 MSTORE PUSH1 0xC DUP3 MSTORE PUSH1 0x40 SWAP1 KECCAK256 PUSH1 0x1 ADD SLOAD PUSH1 0x1 PUSH1 0x1 PUSH1 0xA0 SHL SUB SWAP1 DUP2 AND CALLER EQ SWAP1 DUP2 ISZERO PUSH2 0x700 JUMPI JUMPDEST POP ISZERO PUSH2 0x6AC JUMPI DUP2 PUSH1 0x0 MSTORE PUSH1 0xC DUP2 MSTORE PUSH1 0xFF PUSH1 0xF PUSH1 0x40 PUSH1 0x0 KECCAK256 ADD SLOAD PUSH1 0x10 SHR AND PUSH2 0x668 JUMPI PUSH1 0x0 SWAP2 DUP3 MSTORE PUSH1 0xC SWAP1 MSTORE PUSH1 0x40 SWAP1 KECCAK256 PUSH1 0xF ADD DUP1 SLOAD PUSH3 0xFF0000 NOT AND PUSH3 0x10000 OR SWAP1 SSTORE STOP JUMPDEST PUSH1 0x64 SWAP1 PUSH1 0x40 MLOAD SWAP1 PUSH3 0x461BCD PUSH1 0xE5 SHL DUP3 MSTORE PUSH1 0x4 DUP3 ADD MSTORE PUSH1 0x1A PUSH1 0x24 DUP3 ADD MSTORE PUSH32 0x50726F6475637420697320616C72656164792064656C65746564000000000000 PUSH1 0x44 DUP3 ADD MSTORE REVERT JUMPDEST PUSH1 0x84 SWAP1 PUSH1 0x40 MLOAD SWAP1 PUSH3 0x461BCD PUSH1 0xE5 SHL DUP3 MSTORE PUSH1 0x4 DUP3 ADD MSTORE PUSH1 0x27 PUSH1 0x24 DUP3 ADD MSTORE PUSH32 0x4F6E6C792070726F647563742073656C6C6572206F72206F776E65722063616E PUSH1 0x44 DUP3 ADD MSTORE PUSH7 0x2064656C657465 PUSH1 0xC8 SHL PUSH1 0x64 DUP3 ADD MSTORE REVERT JUMPDEST PUSH1 0x0 SLOAD AND CALLER EQ SWAP1 POP DUP4 PUSH2 0x626 JUMP JUMPDEST POP PUSH1 0x0 SLOAD PUSH1 0x1 PUSH1 0x1 PUSH1 0xA0 SHL SUB AND CALLER EQ PUSH2 0x5DE JUMP JUMPDEST PUSH4 0x4E487B71 PUSH1 0xE0 SHL PUSH1 0x0 MSTORE PUSH1 0x21 PUSH1 0x4 MSTORE PUSH1 0x24 PUSH1 0x0 REVERT JUMPDEST CALLVALUE PUSH2 0x4DB JUMPI PUSH1 0x40 CALLDATASIZE PUSH1 0x3 NOT ADD SLT PUSH2 0x4DB JUMPI PUSH2 0x751 PUSH2 0x465B JUMP JUMPDEST PUSH2 0x759 PUSH2 0x4671 JUMP JUMPDEST SWAP1 PUSH1 0x1 DUP1 PUSH1 0xA0 SHL SUB DUP1 SWAP2 AND PUSH1 0x0 MSTORE PUSH1 0x7 PUSH1 0x20 MSTORE PUSH1 0x40 PUSH1 0x0 KECCAK256 SWAP2 AND PUSH1 0x0 MSTORE PUSH1 0x20 MSTORE PUSH1 0x20 PUSH1 0xFF PUSH1 0x40 PUSH1 0x0 KECCAK256 SLOAD AND PUSH1 0x40 MLOAD SWAP1 ISZERO ISZERO DUP2 MSTORE RETURN JUMPDEST CALLVALUE PUSH2 0x4DB JUMPI PUSH1 0x40 CALLDATASIZE PUSH1 0x3 NOT ADD SLT PUSH2 0x4DB JUMPI PUSH2 0x7A7 PUSH2 0x465B JUMP JUMPDEST PUSH1 0x1 PUSH1 0x1 PUSH1 0xA0 SHL SUB SWAP1 DUP2 AND PUSH1 0x0 SWAP1 DUP2 MSTORE PUSH1 0x11 PUSH1 0x20 MSTORE PUSH1 0x40 SWAP1 KECCAK256 DUP1 SLOAD PUSH1 0x24 CALLDATALOAD SWAP1 DUP2 LT ISZERO PUSH2 0x4DB JUMPI PUSH2 0x7D6 SWAP2 PUSH2 0x493A JUMP JUMPDEST POP DUP1 SLOAD PUSH1 0x1 DUP3 ADD SLOAD PUSH1 0x2 DUP4 ADD SLOAD PUSH1 0x3 DUP5 ADD SLOAD PUSH1 0x4 DUP6 ADD SLOAD PUSH1 0x5 SWAP1 SWAP6 ADD SLOAD PUSH1 0x40 DUP1 MLOAD SWAP6 DUP7 MSTORE PUSH1 0x20 DUP7 ADD SWAP5 SWAP1 SWAP5 MSTORE SWAP3 DUP5 ADD SWAP2 SWAP1 SWAP2 MSTORE PUSH1 0x60 DUP4 ADD MSTORE SWAP2 DUP4 AND PUSH1 0x1 PUSH1 0x1 PUSH1 0xA0 SHL SUB SWAP1 DUP2 AND PUSH1 0x80 DUP4 ADD MSTORE SWAP3 DUP3 AND SWAP1 SWAP3 AND PUSH1 0xA0 DUP1 DUP5 ADD SWAP2 SWAP1 SWAP2 MSTORE PUSH1 0xFF SWAP2 SWAP1 SHR AND ISZERO ISZERO PUSH1 0xC0 DUP3 ADD MSTORE PUSH1 0xE0 SWAP1 RETURN JUMPDEST CALLVALUE PUSH2 0x4DB JUMPI PUSH1 0x0 CALLDATASIZE PUSH1 0x3 NOT ADD SLT PUSH2 0x4DB JUMPI PUSH1 0x20 PUSH1 0xB SLOAD PUSH1 0x40 MLOAD SWAP1 DUP2 MSTORE RETURN JUMPDEST CALLVALUE PUSH2 0x4DB JUMPI PUSH1 0x20 CALLDATASIZE PUSH1 0x3 NOT ADD SLT PUSH2 0x4DB JUMPI PUSH2 0x89A PUSH2 0x895 PUSH1 0x4 CALLDATALOAD PUSH1 0x0 MSTORE PUSH1 0x4 PUSH1 0x20 MSTORE PUSH1 0x1 DUP1 PUSH1 0xA0 SHL SUB PUSH1 0x40 PUSH1 0x0 KECCAK256 SLOAD AND ISZERO ISZERO SWAP1 JUMP JUMPDEST PUSH2 0x49DC JUMP JUMPDEST PUSH1 0x0 PUSH1 0x40 MLOAD PUSH2 0x8A8 DUP2 PUSH2 0x46D9 JUMP JUMPDEST MSTORE PUSH2 0x240 PUSH1 0x40 MLOAD PUSH2 0x8B8 DUP2 PUSH2 0x46D9 JUMP JUMPDEST PUSH1 0x0 DUP2 MSTORE PUSH1 0x40 MLOAD SWAP2 DUP3 SWAP2 PUSH1 0x20 DUP4 MSTORE PUSH1 0x20 DUP4 ADD SWAP1 PUSH2 0x4382 JUMP JUMPDEST CALLVALUE PUSH2 0x4DB JUMPI PUSH1 0x20 CALLDATASIZE PUSH1 0x3 NOT ADD SLT PUSH2 0x4DB JUMPI PUSH1 0x1 PUSH1 0x1 PUSH1 0xA0 SHL SUB PUSH2 0x8F1 PUSH2 0x465B JUMP JUMPDEST AND PUSH1 0x0 MSTORE PUSH1 0x12 PUSH1 0x20 MSTORE PUSH1 0x20 PUSH1 0xFF PUSH1 0x40 PUSH1 0x0 KECCAK256 SLOAD AND PUSH1 0x40 MLOAD SWAP1 ISZERO ISZERO DUP2 MSTORE RETURN JUMPDEST CALLVALUE PUSH2 0x4DB JUMPI PUSH1 0x40 CALLDATASIZE PUSH1 0x3 NOT ADD SLT PUSH2 0x4DB JUMPI PUSH2 0x928 PUSH2 0x465B JUMP JUMPDEST PUSH1 0x1 PUSH1 0x1 PUSH1 0xA0 SHL SUB AND PUSH1 0x0 SWAP1 DUP2 MSTORE PUSH1 0xD PUSH1 0x20 MSTORE PUSH1 0x40 SWAP1 KECCAK256 DUP1 SLOAD PUSH1 0x24 CALLDATALOAD SWAP2 SWAP1 DUP3 LT ISZERO PUSH2 0x4DB JUMPI PUSH1 0x20 SWAP2 PUSH2 0x959 SWAP2 PUSH2 0x496C JUMP JUMPDEST SWAP1 SLOAD PUSH1 0x40 MLOAD SWAP2 PUSH1 0x3 SHL SHR DUP2 MSTORE RETURN JUMPDEST CALLVALUE PUSH2 0x4DB JUMPI PUSH1 0x20 DUP1 PUSH1 0x3 NOT CALLDATASIZE ADD SLT PUSH2 0x4DB JUMPI PUSH1 0x4 CALLDATALOAD PUSH2 0x984 PUSH2 0x532E JUMP JUMPDEST POP DUP1 PUSH1 0x0 MSTORE PUSH1 0xC DUP3 MSTORE PUSH2 0x9A5 PUSH1 0xFF PUSH1 0xF PUSH1 0x40 PUSH1 0x0 KECCAK256 ADD SLOAD PUSH1 0x10 SHR AND ISZERO PUSH2 0x567A JUMP JUMPDEST DUP1 PUSH1 0x0 MSTORE PUSH1 0x13 DUP3 MSTORE PUSH2 0x9BE PUSH1 0xFF PUSH1 0x40 PUSH1 0x0 KECCAK256 SLOAD AND PUSH2 0x5635 JUMP JUMPDEST PUSH1 0x0 MSTORE PUSH1 0xC DUP2 MSTORE PUSH1 0x40 PUSH1 0x0 KECCAK256 SWAP1 PUSH1 0x40 MLOAD SWAP2 PUSH2 0x9D8 DUP4 PUSH2 0x4687 JUMP JUMPDEST DUP1 SLOAD DUP4 MSTORE PUSH1 0x1 DUP1 DUP3 ADD SLOAD PUSH1 0x1 PUSH1 0x1 PUSH1 0xA0 SHL SUB AND DUP4 DUP6 ADD MSTORE PUSH2 0x9FB PUSH1 0x2 DUP4 ADD PUSH2 0x4894 JUMP JUMPDEST PUSH1 0x40 DUP6 ADD MSTORE PUSH2 0xA0C PUSH1 0x3 DUP4 ADD PUSH2 0x4894 JUMP JUMPDEST PUSH1 0x60 DUP6 ADD MSTORE PUSH1 0x4 DUP3 ADD SLOAD PUSH1 0x80 DUP6 ADD MSTORE PUSH1 0x5 SWAP2 DUP3 DUP2 ADD SLOAD PUSH1 0xA0 DUP7 ADD MSTORE PUSH2 0xA33 PUSH1 0x6 DUP3 ADD PUSH2 0x4894 JUMP JUMPDEST PUSH1 0xC0 DUP7 ADD MSTORE PUSH2 0xA44 PUSH1 0x7 DUP3 ADD PUSH2 0x4894 JUMP JUMPDEST PUSH1 0xE0 DUP7 ADD MSTORE PUSH1 0x8 DUP2 ADD DUP1 SLOAD PUSH2 0xA58 DUP2 PUSH2 0x53BA JUMP JUMPDEST SWAP2 PUSH2 0xA66 PUSH1 0x40 MLOAD SWAP4 DUP5 PUSH2 0x46F4 JUMP JUMPDEST DUP2 DUP4 MSTORE PUSH1 0x0 SWAP1 DUP2 MSTORE DUP7 DUP2 KECCAK256 DUP6 DUP9 DUP1 DUP7 ADD JUMPDEST DUP6 DUP6 LT PUSH2 0xB80 JUMPI POP DUP9 DUP12 SWAP3 PUSH1 0x10 DUP10 DUP10 PUSH2 0x100 DUP8 ADD MSTORE PUSH2 0xA98 PUSH1 0x9 DUP3 ADD PUSH2 0x4894 JUMP JUMPDEST PUSH2 0x120 DUP8 ADD MSTORE PUSH2 0xAAA PUSH1 0xA DUP3 ADD PUSH2 0x4894 JUMP JUMPDEST PUSH2 0x140 DUP8 ADD MSTORE PUSH1 0xB DUP2 ADD SLOAD PUSH2 0x160 DUP8 ADD MSTORE PUSH2 0xAC7 PUSH1 0xC DUP3 ADD PUSH2 0x4894 JUMP JUMPDEST PUSH2 0x180 DUP8 ADD MSTORE PUSH2 0xAD9 PUSH1 0xD DUP3 ADD PUSH2 0x4894 JUMP JUMPDEST PUSH2 0x1A0 DUP8 ADD MSTORE PUSH1 0xE DUP2 ADD SLOAD PUSH2 0x1C0 DUP8 ADD MSTORE PUSH1 0xFF PUSH1 0xF DUP3 ADD SLOAD DUP2 DUP2 AND ISZERO ISZERO PUSH2 0x1E0 DUP10 ADD MSTORE DUP2 DUP2 PUSH1 0x8 SHR AND ISZERO ISZERO PUSH2 0x200 DUP10 ADD MSTORE DUP4 SHR AND ISZERO ISZERO PUSH2 0x220 DUP8 ADD MSTORE ADD SWAP2 DUP3 SLOAD SWAP1 PUSH2 0xB23 DUP3 PUSH2 0x53BA JUMP JUMPDEST SWAP4 PUSH2 0xB31 PUSH1 0x40 MLOAD SWAP6 DUP7 PUSH2 0x46F4 JUMP JUMPDEST DUP3 DUP6 MSTORE PUSH1 0x0 SWAP1 DUP2 MSTORE DUP6 DUP2 KECCAK256 DUP7 DUP1 DUP8 ADD JUMPDEST DUP6 DUP5 LT PUSH2 0xB63 JUMPI PUSH2 0x240 DUP11 ADD DUP9 SWAP1 MSTORE PUSH1 0x40 MLOAD DUP3 DUP2 MSTORE DUP1 PUSH2 0x240 DUP2 DUP6 ADD DUP14 PUSH2 0x4459 JUMP JUMPDEST DUP7 SWAP2 DUP6 SWAP2 PUSH2 0xB70 DUP6 PUSH2 0x577F JUMP JUMPDEST DUP2 MSTORE ADD SWAP3 ADD SWAP3 ADD SWAP2 SWAP1 DUP8 SWAP1 PUSH2 0xB41 JUMP JUMPDEST SWAP1 DUP3 SWAP2 PUSH2 0xB8C DUP6 PUSH2 0x4894 JUMP JUMPDEST DUP2 MSTORE ADD SWAP3 ADD SWAP3 ADD SWAP2 SWAP1 DUP9 DUP8 SWAP2 PUSH2 0xA77 JUMP JUMPDEST CALLVALUE PUSH2 0x4DB JUMPI PUSH1 0x80 CALLDATASIZE PUSH1 0x3 NOT ADD SLT PUSH2 0x4DB JUMPI PUSH2 0xBB6 PUSH2 0x465B JUMP JUMPDEST PUSH2 0xBBE PUSH2 0x4671 JUMP JUMPDEST PUSH1 0x64 CALLDATALOAD SWAP2 PUSH1 0x1 PUSH1 0x1 PUSH1 0x40 SHL SUB DUP4 GT PUSH2 0x4DB JUMPI CALLDATASIZE PUSH1 0x23 DUP5 ADD SLT ISZERO PUSH2 0x4DB JUMPI PUSH2 0xBF2 PUSH2 0xBFC SWAP4 CALLDATASIZE SWAP1 PUSH1 0x24 DUP2 PUSH1 0x4 ADD CALLDATALOAD SWAP2 ADD PUSH2 0x4730 JUMP JUMPDEST SWAP2 PUSH1 0x44 CALLDATALOAD SWAP2 PUSH2 0x4AEB JUMP JUMPDEST STOP JUMPDEST CALLVALUE PUSH2 0x4DB JUMPI PUSH1 0x20 DUP1 PUSH1 0x3 NOT CALLDATASIZE ADD SLT PUSH2 0x4DB JUMPI PUSH1 0x1 PUSH1 0x1 PUSH1 0xA0 SHL SUB SWAP1 DUP2 PUSH2 0xC22 PUSH2 0x465B JUMP JUMPDEST AND PUSH1 0x0 MSTORE PUSH1 0x10 DUP2 MSTORE PUSH1 0x40 PUSH1 0x0 KECCAK256 DUP1 SLOAD SWAP1 PUSH2 0xC3B DUP3 PUSH2 0x53BA JUMP JUMPDEST SWAP3 PUSH2 0xC49 PUSH1 0x40 MLOAD SWAP5 DUP6 PUSH2 0x46F4 JUMP JUMPDEST DUP3 DUP5 MSTORE PUSH1 0x0 SWAP2 DUP3 MSTORE DUP1 DUP3 KECCAK256 DUP2 DUP6 ADD JUMPDEST DUP5 DUP5 LT PUSH2 0xC6D JUMPI PUSH1 0x40 MLOAD DUP1 PUSH2 0x240 DUP9 DUP3 PUSH2 0x47B7 JUMP JUMPDEST PUSH1 0x6 DUP4 PUSH1 0x1 SWAP3 PUSH1 0x40 MLOAD PUSH2 0xC7F DUP2 PUSH2 0x46A3 JUMP JUMPDEST DUP6 SLOAD DUP2 MSTORE DUP5 DUP7 ADD SLOAD DUP4 DUP3 ADD MSTORE PUSH1 0x2 DUP7 ADD SLOAD PUSH1 0x40 DUP3 ADD MSTORE PUSH1 0x3 DUP7 ADD SLOAD PUSH1 0x60 DUP3 ADD MSTORE DUP11 PUSH1 0x4 DUP8 ADD SLOAD AND PUSH1 0x80 DUP3 ADD MSTORE PUSH1 0xFF PUSH1 0x5 DUP8 ADD SLOAD PUSH1 0xA0 DUP14 DUP3 AND DUP2 DUP6 ADD MSTORE SHR AND ISZERO ISZERO PUSH1 0xC0 DUP3 ADD MSTORE DUP2 MSTORE ADD SWAP3 ADD SWAP4 ADD SWAP3 SWAP1 PUSH2 0xC58 JUMP JUMPDEST CALLVALUE PUSH2 0x4DB JUMPI PUSH1 0x3 NOT PUSH1 0x20 CALLDATASIZE DUP3 ADD SLT PUSH2 0x4DB JUMPI PUSH1 0x1 PUSH1 0x1 PUSH1 0x40 SHL SUB PUSH1 0x4 CALLDATALOAD GT PUSH2 0x4DB JUMPI PUSH2 0x1A0 SWAP1 PUSH1 0x4 CALLDATALOAD CALLDATASIZE SUB ADD SLT PUSH2 0x4DB JUMPI CALLER PUSH1 0x0 MSTORE PUSH1 0xF PUSH1 0x20 MSTORE PUSH1 0xFF PUSH1 0x40 PUSH1 0x0 KECCAK256 SLOAD AND PUSH1 0x4 DUP2 LT ISZERO PUSH2 0x722 JUMPI PUSH1 0x2 PUSH2 0xD2A SWAP2 EQ PUSH2 0x4E8E JUMP JUMPDEST PUSH2 0xD44 PUSH2 0xD3B PUSH1 0x4 DUP1 CALLDATALOAD ADD DUP1 PUSH2 0x4ED0 JUMP JUMPDEST SWAP1 POP ISZERO ISZERO PUSH2 0x4F02 JUMP JUMPDEST PUSH1 0x24 PUSH2 0xD65 PUSH2 0xD5C DUP3 PUSH1 0x4 CALLDATALOAD ADD PUSH1 0x4 CALLDATALOAD PUSH1 0x4 ADD PUSH2 0x4ED0 JUMP JUMPDEST SWAP1 POP ISZERO ISZERO PUSH2 0x4F45 JUMP JUMPDEST PUSH2 0xD76 PUSH1 0x44 PUSH1 0x4 CALLDATALOAD ADD CALLDATALOAD ISZERO ISZERO PUSH2 0x4F91 JUMP JUMPDEST PUSH2 0xD87 PUSH1 0x64 PUSH1 0x4 CALLDATALOAD ADD CALLDATALOAD ISZERO ISZERO PUSH2 0x4FDD JUMP JUMPDEST PUSH2 0xDA7 PUSH2 0xD9E PUSH1 0x84 PUSH1 0x4 CALLDATALOAD ADD PUSH1 0x4 CALLDATALOAD PUSH1 0x4 ADD PUSH2 0x4ED0 JUMP JUMPDEST SWAP1 POP ISZERO ISZERO PUSH2 0x5029 JUMP JUMPDEST PUSH2 0xDC7 PUSH2 0xDBE PUSH1 0xC4 PUSH1 0x4 CALLDATALOAD ADD PUSH1 0x4 CALLDATALOAD PUSH1 0x4 ADD PUSH2 0x506D JUMP JUMPDEST SWAP1 POP ISZERO ISZERO PUSH2 0x50A2 JUMP JUMPDEST PUSH2 0xDE8 PUSH1 0x5 PUSH2 0xDE0 PUSH1 0xC4 PUSH1 0x4 CALLDATALOAD ADD PUSH1 0x4 CALLDATALOAD PUSH1 0x4 ADD PUSH2 0x506D JUMP JUMPDEST SWAP1 POP LT PUSH2 0x50E7 JUMP JUMPDEST PUSH2 0xE08 PUSH2 0xDFF PUSH1 0xA4 PUSH1 0x4 CALLDATALOAD ADD PUSH1 0x4 CALLDATALOAD PUSH1 0x4 ADD PUSH2 0x4ED0 JUMP JUMPDEST SWAP1 POP ISZERO ISZERO PUSH2 0x5133 JUMP JUMPDEST PUSH2 0xE28 PUSH2 0xE1F PUSH1 0xE4 PUSH1 0x4 CALLDATALOAD ADD PUSH1 0x4 CALLDATALOAD PUSH1 0x4 ADD PUSH2 0x4ED0 JUMP JUMPDEST SWAP1 POP ISZERO ISZERO PUSH2 0x5176 JUMP JUMPDEST PUSH2 0xE49 PUSH2 0xE40 PUSH2 0x104 PUSH1 0x4 CALLDATALOAD ADD PUSH1 0x4 CALLDATALOAD PUSH1 0x4 ADD PUSH2 0x4ED0 JUMP JUMPDEST SWAP1 POP ISZERO ISZERO PUSH2 0x51C2 JUMP JUMPDEST PUSH2 0xE6A PUSH2 0xE61 PUSH2 0x124 PUSH1 0x4 CALLDATALOAD ADD PUSH1 0x4 CALLDATALOAD PUSH1 0x4 ADD PUSH2 0x4ED0 JUMP JUMPDEST SWAP1 POP ISZERO ISZERO PUSH2 0x520E JUMP JUMPDEST PUSH2 0xE8B PUSH2 0xE82 PUSH2 0x144 PUSH1 0x4 CALLDATALOAD ADD PUSH1 0x4 CALLDATALOAD PUSH1 0x4 ADD PUSH2 0x4ED0 JUMP JUMPDEST SWAP1 POP ISZERO ISZERO PUSH2 0x5252 JUMP JUMPDEST PUSH2 0xE9D PUSH2 0x164 PUSH1 0x4 CALLDATALOAD ADD CALLDATALOAD ISZERO ISZERO PUSH2 0x5296 JUMP JUMPDEST PUSH2 0xEAF PUSH2 0x184 PUSH1 0x4 CALLDATALOAD ADD CALLDATALOAD ISZERO ISZERO PUSH2 0x52E2 JUMP JUMPDEST PUSH1 0x1 PUSH1 0x8 SLOAD ADD DUP1 PUSH1 0x8 SSTORE PUSH2 0xEC1 PUSH2 0x532E JUMP JUMPDEST DUP2 DUP2 MSTORE CALLER PUSH1 0x20 DUP3 ADD MSTORE PUSH2 0xEE2 PUSH2 0xEDB PUSH1 0x4 DUP1 CALLDATALOAD ADD DUP1 PUSH2 0x4ED0 JUMP JUMPDEST CALLDATASIZE SWAP2 PUSH2 0x4730 JUMP JUMPDEST PUSH1 0x40 DUP3 ADD MSTORE PUSH2 0xEFD PUSH2 0xEDB DUP5 PUSH1 0x4 CALLDATALOAD ADD PUSH1 0x4 CALLDATALOAD PUSH1 0x4 ADD PUSH2 0x4ED0 JUMP JUMPDEST PUSH1 0x60 DUP3 ADD MSTORE PUSH1 0x44 PUSH1 0x4 CALLDATALOAD ADD CALLDATALOAD PUSH1 0x80 DUP3 ADD MSTORE PUSH1 0x64 PUSH1 0x4 CALLDATALOAD ADD CALLDATALOAD PUSH1 0xA0 DUP3 ADD MSTORE PUSH2 0xF31 PUSH2 0xEDB PUSH1 0x84 PUSH1 0x4 CALLDATALOAD ADD PUSH1 0x4 CALLDATALOAD PUSH1 0x4 ADD PUSH2 0x4ED0 JUMP JUMPDEST PUSH1 0xC0 DUP3 ADD MSTORE PUSH2 0xF4D PUSH2 0xEDB PUSH1 0xA4 PUSH1 0x4 CALLDATALOAD ADD PUSH1 0x4 CALLDATALOAD PUSH1 0x4 ADD PUSH2 0x4ED0 JUMP JUMPDEST PUSH1 0xE0 DUP3 ADD MSTORE PUSH2 0xF66 PUSH1 0xC4 PUSH1 0x4 CALLDATALOAD ADD PUSH1 0x4 CALLDATALOAD PUSH1 0x4 ADD PUSH2 0x506D JUMP JUMPDEST SWAP1 PUSH2 0xF70 DUP3 PUSH2 0x53BA JUMP JUMPDEST SWAP2 PUSH2 0xF7E PUSH1 0x40 MLOAD SWAP4 DUP5 PUSH2 0x46F4 JUMP JUMPDEST DUP1 DUP4 MSTORE PUSH1 0x20 DUP4 ADD SWAP2 CALLDATASIZE DUP3 PUSH1 0x5 SHL DUP3 ADD GT PUSH2 0x4DB JUMPI DUP1 SWAP3 JUMPDEST DUP3 PUSH1 0x5 SHL DUP3 ADD DUP5 LT PUSH2 0x1B79 JUMPI POP POP POP POP PUSH2 0x100 DUP3 ADD MSTORE PUSH2 0xFC2 PUSH2 0xEDB PUSH1 0xE4 PUSH1 0x4 CALLDATALOAD ADD PUSH1 0x4 CALLDATALOAD PUSH1 0x4 ADD PUSH2 0x4ED0 JUMP JUMPDEST PUSH2 0x120 DUP3 ADD MSTORE PUSH2 0xFE0 PUSH2 0xEDB PUSH2 0x104 PUSH1 0x4 CALLDATALOAD ADD PUSH1 0x4 CALLDATALOAD PUSH1 0x4 ADD PUSH2 0x4ED0 JUMP JUMPDEST PUSH2 0x140 DUP3 ADD MSTORE PUSH2 0xFFE PUSH2 0xEDB PUSH2 0x124 PUSH1 0x4 CALLDATALOAD ADD PUSH1 0x4 CALLDATALOAD PUSH1 0x4 ADD PUSH2 0x4ED0 JUMP JUMPDEST PUSH2 0x180 DUP3 ADD MSTORE PUSH2 0x101C PUSH2 0xEDB PUSH2 0x144 PUSH1 0x4 CALLDATALOAD ADD PUSH1 0x4 CALLDATALOAD PUSH1 0x4 ADD PUSH2 0x4ED0 JUMP JUMPDEST PUSH2 0x1A0 DUP3 ADD MSTORE PUSH2 0x164 PUSH1 0x4 CALLDATALOAD ADD CALLDATALOAD PUSH2 0x160 DUP3 ADD MSTORE PUSH2 0x184 PUSH1 0x4 CALLDATALOAD ADD CALLDATALOAD PUSH2 0x1C0 DUP3 ADD MSTORE PUSH1 0x0 PUSH2 0x1E0 DUP3 ADD MSTORE PUSH1 0x0 PUSH2 0x220 DUP3 ADD MSTORE CALLER ISZERO PUSH2 0x1B35 JUMPI PUSH1 0x0 DUP3 DUP2 MSTORE PUSH1 0x4 PUSH1 0x20 MSTORE PUSH1 0x40 SWAP1 KECCAK256 SLOAD PUSH2 0x1079 SWAP1 PUSH1 0x1 PUSH1 0x1 PUSH1 0xA0 SHL SUB AND ISZERO ISZERO JUMPDEST ISZERO PUSH2 0x55E9 JUMP JUMPDEST PUSH1 0x0 DUP3 DUP2 MSTORE PUSH1 0x4 PUSH1 0x20 MSTORE PUSH1 0x40 SWAP1 KECCAK256 SLOAD PUSH2 0x109C SWAP1 PUSH1 0x1 PUSH1 0x1 PUSH1 0xA0 SHL SUB AND ISZERO ISZERO PUSH2 0x1073 JUMP JUMPDEST CALLER PUSH1 0x0 MSTORE PUSH1 0x5 PUSH1 0x20 MSTORE PUSH1 0x40 PUSH1 0x0 KECCAK256 PUSH1 0x1 DUP2 SLOAD ADD SWAP1 SSTORE DUP2 PUSH1 0x0 MSTORE PUSH1 0x4 PUSH1 0x20 MSTORE PUSH1 0x40 PUSH1 0x0 KECCAK256 CALLER PUSH1 0x1 PUSH1 0x1 PUSH1 0x60 SHL SUB PUSH1 0xA0 SHL DUP3 SLOAD AND OR SWAP1 SSTORE DUP2 CALLER PUSH1 0x0 PUSH32 0xDDF252AD1BE2C89B69C2B068FC378DAA952BA7F163C4A11628F55A4DF523B3EF DUP2 DUP1 LOG4 PUSH1 0xC PUSH1 0x20 MSTORE PUSH1 0x40 PUSH1 0x0 KECCAK256 DUP2 MLOAD DUP2 SSTORE PUSH1 0x1 DUP2 ADD PUSH1 0x1 DUP1 PUSH1 0xA0 SHL SUB PUSH1 0x20 DUP5 ADD MLOAD AND PUSH1 0x1 PUSH1 0x1 PUSH1 0x60 SHL SUB PUSH1 0xA0 SHL DUP3 SLOAD AND OR SWAP1 SSTORE PUSH1 0x40 DUP3 ADD MLOAD DUP1 MLOAD SWAP1 PUSH1 0x1 PUSH1 0x1 PUSH1 0x40 SHL SUB DUP3 GT PUSH2 0x163C JUMPI DUP2 SWAP1 PUSH2 0x115B DUP3 PUSH2 0x1152 PUSH1 0x2 DUP8 ADD SLOAD PUSH2 0x485A JUMP JUMPDEST PUSH1 0x2 DUP8 ADD PUSH2 0x53E8 JUMP JUMPDEST PUSH1 0x20 SWAP1 PUSH1 0x1F DUP4 GT PUSH1 0x1 EQ PUSH2 0x1AC3 JUMPI PUSH1 0x0 SWAP3 PUSH2 0x1AB8 JUMPI JUMPDEST POP POP DUP2 PUSH1 0x1 SHL SWAP2 PUSH1 0x0 NOT SWAP1 PUSH1 0x3 SHL SHR NOT AND OR PUSH1 0x2 DUP3 ADD SSTORE JUMPDEST PUSH1 0x60 DUP3 ADD MLOAD DUP1 MLOAD SWAP1 PUSH1 0x1 PUSH1 0x1 PUSH1 0x40 SHL SUB DUP3 GT PUSH2 0x163C JUMPI DUP2 SWAP1 PUSH2 0x11BB DUP3 PUSH2 0x11B2 PUSH1 0x3 DUP8 ADD SLOAD PUSH2 0x485A JUMP JUMPDEST PUSH1 0x3 DUP8 ADD PUSH2 0x53E8 JUMP JUMPDEST PUSH1 0x20 SWAP1 PUSH1 0x1F DUP4 GT PUSH1 0x1 EQ PUSH2 0x1A46 JUMPI PUSH1 0x0 SWAP3 PUSH2 0x1A3B JUMPI JUMPDEST POP POP DUP2 PUSH1 0x1 SHL SWAP2 PUSH1 0x0 NOT SWAP1 PUSH1 0x3 SHL SHR NOT AND OR PUSH1 0x3 DUP3 ADD SSTORE JUMPDEST PUSH1 0x80 DUP3 ADD MLOAD PUSH1 0x4 DUP3 ADD SSTORE PUSH1 0xA0 DUP3 ADD MLOAD PUSH1 0x5 DUP3 ADD SSTORE PUSH1 0xC0 DUP3 ADD MLOAD DUP1 MLOAD SWAP1 PUSH1 0x1 PUSH1 0x1 PUSH1 0x40 SHL SUB DUP3 GT PUSH2 0x163C JUMPI DUP2 SWAP1 PUSH2 0x122F DUP3 PUSH2 0x1226 PUSH1 0x6 DUP8 ADD SLOAD PUSH2 0x485A JUMP JUMPDEST PUSH1 0x6 DUP8 ADD PUSH2 0x53E8 JUMP JUMPDEST PUSH1 0x20 SWAP1 PUSH1 0x1F DUP4 GT PUSH1 0x1 EQ PUSH2 0x19C9 JUMPI PUSH1 0x0 SWAP3 PUSH2 0x19BE JUMPI JUMPDEST POP POP DUP2 PUSH1 0x1 SHL SWAP2 PUSH1 0x0 NOT SWAP1 PUSH1 0x3 SHL SHR NOT AND OR PUSH1 0x6 DUP3 ADD SSTORE JUMPDEST PUSH1 0xE0 DUP3 ADD MLOAD DUP1 MLOAD SWAP1 PUSH1 0x1 PUSH1 0x1 PUSH1 0x40 SHL SUB DUP3 GT PUSH2 0x163C JUMPI DUP2 SWAP1 PUSH2 0x128F DUP3 PUSH2 0x1286 PUSH1 0x7 DUP8 ADD SLOAD PUSH2 0x485A JUMP JUMPDEST PUSH1 0x7 DUP8 ADD PUSH2 0x53E8 JUMP JUMPDEST PUSH1 0x20 SWAP1 PUSH1 0x1F DUP4 GT PUSH1 0x1 EQ PUSH2 0x194C JUMPI PUSH1 0x0 SWAP3 PUSH2 0x1941 JUMPI JUMPDEST POP POP DUP2 PUSH1 0x1 SHL SWAP2 PUSH1 0x0 NOT SWAP1 PUSH1 0x3 SHL SHR NOT AND OR PUSH1 0x7 DUP3 ADD SSTORE JUMPDEST PUSH1 0x8 DUP2 ADD PUSH2 0x100 DUP4 ADD MLOAD SWAP1 PUSH1 0x20 DUP3 MLOAD SWAP3 PUSH2 0x12D7 DUP5 DUP5 PUSH2 0x5476 JUMP JUMPDEST ADD SWAP1 PUSH1 0x0 MSTORE PUSH1 0x20 PUSH1 0x0 KECCAK256 PUSH1 0x0 SWAP2 JUMPDEST DUP4 DUP4 LT PUSH2 0x1849 JUMPI POP POP POP POP PUSH2 0x120 DUP3 ADD MLOAD DUP1 MLOAD SWAP1 PUSH1 0x1 PUSH1 0x1 PUSH1 0x40 SHL SUB DUP3 GT PUSH2 0x163C JUMPI DUP2 SWAP1 PUSH2 0x1323 DUP3 PUSH2 0x131A PUSH1 0x9 DUP8 ADD SLOAD PUSH2 0x485A JUMP JUMPDEST PUSH1 0x9 DUP8 ADD PUSH2 0x53E8 JUMP JUMPDEST PUSH1 0x20 SWAP1 PUSH1 0x1F DUP4 GT PUSH1 0x1 EQ PUSH2 0x17D7 JUMPI PUSH1 0x0 SWAP3 PUSH2 0x17CC JUMPI JUMPDEST POP POP DUP2 PUSH1 0x1 SHL SWAP2 PUSH1 0x0 NOT SWAP1 PUSH1 0x3 SHL SHR NOT AND OR PUSH1 0x9 DUP3 ADD SSTORE JUMPDEST PUSH2 0x140 DUP3 ADD MLOAD DUP1 MLOAD SWAP1 PUSH1 0x1 PUSH1 0x1 PUSH1 0x40 SHL SUB DUP3 GT PUSH2 0x163C JUMPI DUP2 SWAP1 PUSH2 0x1384 DUP3 PUSH2 0x137B PUSH1 0xA DUP8 ADD SLOAD PUSH2 0x485A JUMP JUMPDEST PUSH1 0xA DUP8 ADD PUSH2 0x53E8 JUMP JUMPDEST PUSH1 0x20 SWAP1 PUSH1 0x1F DUP4 GT PUSH1 0x1 EQ PUSH2 0x175A JUMPI PUSH1 0x0 SWAP3 PUSH2 0x174F JUMPI JUMPDEST POP POP DUP2 PUSH1 0x1 SHL SWAP2 PUSH1 0x0 NOT SWAP1 PUSH1 0x3 SHL SHR NOT AND OR PUSH1 0xA DUP3 ADD SSTORE JUMPDEST PUSH2 0x160 DUP3 ADD MLOAD PUSH1 0xB DUP3 ADD SSTORE PUSH2 0x180 DUP3 ADD MLOAD DUP1 MLOAD SWAP1 PUSH1 0x1 PUSH1 0x1 PUSH1 0x40 SHL SUB DUP3 GT PUSH2 0x163C JUMPI DUP2 SWAP1 PUSH2 0x13F0 DUP3 PUSH2 0x13E7 PUSH1 0xC DUP8 ADD SLOAD PUSH2 0x485A JUMP JUMPDEST PUSH1 0xC DUP8 ADD PUSH2 0x53E8 JUMP JUMPDEST PUSH1 0x20 SWAP1 PUSH1 0x1F DUP4 GT PUSH1 0x1 EQ PUSH2 0x16DD JUMPI PUSH1 0x0 SWAP3 PUSH2 0x16D2 JUMPI JUMPDEST POP POP DUP2 PUSH1 0x1 SHL SWAP2 PUSH1 0x0 NOT SWAP1 PUSH1 0x3 SHL SHR NOT AND OR PUSH1 0xC DUP3 ADD SSTORE JUMPDEST PUSH2 0x1A0 DUP3 ADD MLOAD DUP1 MLOAD SWAP1 PUSH1 0x1 PUSH1 0x1 PUSH1 0x40 SHL SUB DUP3 GT PUSH2 0x163C JUMPI PUSH2 0x144F DUP3 PUSH2 0x1446 PUSH1 0xD DUP7 ADD SLOAD PUSH2 0x485A JUMP JUMPDEST PUSH1 0xD DUP7 ADD PUSH2 0x53E8 JUMP JUMPDEST PUSH1 0x20 SWAP1 PUSH1 0x1F DUP4 GT PUSH1 0x1 EQ PUSH2 0x165C JUMPI SWAP2 DUP1 PUSH2 0x240 SWAP5 SWAP3 PUSH1 0x10 SWAP5 PUSH1 0x0 SWAP3 PUSH2 0x1651 JUMPI JUMPDEST POP POP DUP2 PUSH1 0x1 SHL SWAP2 PUSH1 0x0 NOT SWAP1 PUSH1 0x3 SHL SHR NOT AND OR PUSH1 0xD DUP3 ADD SSTORE JUMPDEST PUSH2 0x1C0 DUP5 ADD MLOAD PUSH1 0xE DUP3 ADD SSTORE PUSH1 0xF DUP2 ADD PUSH2 0x14B3 PUSH2 0x1E0 DUP7 ADD MLOAD ISZERO ISZERO DUP3 SWAP1 PUSH1 0xFF DUP1 NOT DUP4 SLOAD AND SWAP2 ISZERO ISZERO AND OR SWAP1 SSTORE JUMP JUMPDEST PUSH2 0x200 DUP6 ADD MLOAD ISZERO ISZERO DUP2 SLOAD PUSH2 0xFF00 PUSH3 0xFF0000 PUSH2 0x220 DUP10 ADD MLOAD ISZERO ISZERO DUP8 SHL AND SWAP3 PUSH1 0x8 SHL AND SWAP1 PUSH3 0xFFFF00 NOT AND OR OR SWAP1 SSTORE ADD SWAP2 ADD MLOAD SWAP1 DUP2 MLOAD SWAP1 PUSH1 0x1 PUSH1 0x40 SHL SWAP3 DUP4 DUP4 GT PUSH2 0x163C JUMPI DUP2 SLOAD DUP4 DUP4 SSTORE DUP1 DUP5 LT PUSH2 0x15AC JUMPI JUMPDEST POP PUSH1 0x20 ADD SWAP1 PUSH1 0x0 MSTORE PUSH1 0x20 PUSH1 0x0 KECCAK256 PUSH1 0x0 SWAP2 JUMPDEST DUP4 DUP4 LT PUSH2 0x158E JUMPI POP POP POP POP DUP2 PUSH1 0x0 MSTORE PUSH1 0x13 PUSH1 0x20 MSTORE PUSH1 0x40 PUSH1 0x0 KECCAK256 PUSH1 0x1 PUSH1 0xFF NOT DUP3 SLOAD AND OR SWAP1 SSTORE CALLER PUSH1 0x0 MSTORE PUSH1 0xD PUSH1 0x20 MSTORE PUSH1 0x40 PUSH1 0x0 KECCAK256 DUP1 SLOAD SWAP2 DUP3 LT ISZERO PUSH2 0x1579 JUMPI SWAP1 PUSH2 0x155E SWAP2 PUSH1 0x1 DUP3 ADD DUP2 SSTORE PUSH2 0x496C JUMP JUMPDEST DUP2 SWAP3 SWAP2 SLOAD SWAP1 PUSH1 0x3 SHL SWAP2 DUP3 SHL SWAP2 PUSH1 0x0 NOT SWAP1 SHL NOT AND OR SWAP1 SSTORE PUSH1 0x0 DUP1 RETURN JUMPDEST DUP4 PUSH4 0x4E487B71 PUSH1 0xE0 SHL PUSH1 0x0 MSTORE PUSH1 0x41 PUSH1 0x4 MSTORE PUSH1 0x0 REVERT JUMPDEST PUSH1 0x5 PUSH1 0x20 DUP3 PUSH2 0x15A0 PUSH1 0x1 SWAP5 MLOAD DUP7 PUSH2 0x54BF JUMP JUMPDEST ADD SWAP3 ADD SWAP3 ADD SWAP2 SWAP1 PUSH2 0x1512 JUMP JUMPDEST DUP1 PUSH1 0x5 MUL SWAP1 PUSH1 0x5 DUP3 DIV SUB PUSH2 0x1627 JUMPI DUP4 PUSH1 0x5 MUL PUSH1 0x5 DUP2 DIV DUP6 SUB PUSH2 0x1612 JUMPI DUP4 PUSH1 0x0 MSTORE PUSH1 0x20 PUSH1 0x0 KECCAK256 SWAP2 DUP3 ADD SWAP2 ADD JUMPDEST DUP2 DUP2 LT PUSH2 0x15E4 JUMPI POP PUSH2 0x1501 JUMP JUMPDEST DUP1 PUSH1 0x0 PUSH1 0x5 SWAP3 SSTORE PUSH1 0x0 PUSH1 0x1 DUP3 ADD SSTORE PUSH1 0x0 PUSH1 0x2 DUP3 ADD SSTORE PUSH2 0x1605 PUSH1 0x3 DUP3 ADD PUSH2 0x542D JUMP JUMPDEST PUSH1 0x0 PUSH1 0x4 DUP3 ADD SSTORE ADD PUSH2 0x15D7 JUMP JUMPDEST DUP8 PUSH4 0x4E487B71 PUSH1 0xE0 SHL PUSH1 0x0 MSTORE PUSH1 0x11 PUSH1 0x4 MSTORE PUSH1 0x0 REVERT JUMPDEST DUP7 PUSH4 0x4E487B71 PUSH1 0xE0 SHL PUSH1 0x0 MSTORE PUSH1 0x11 PUSH1 0x4 MSTORE PUSH1 0x0 REVERT JUMPDEST DUP6 PUSH4 0x4E487B71 PUSH1 0xE0 SHL PUSH1 0x0 MSTORE PUSH1 0x41 PUSH1 0x4 MSTORE PUSH1 0x0 REVERT JUMPDEST ADD MLOAD SWAP1 POP DUP9 DUP1 PUSH2 0x146F JUMP JUMPDEST SWAP1 PUSH1 0xD DUP5 ADD PUSH1 0x0 MSTORE PUSH1 0x20 PUSH1 0x0 KECCAK256 SWAP2 PUSH1 0x0 JUMPDEST PUSH1 0x1F NOT DUP6 AND DUP2 LT PUSH2 0x16BA JUMPI POP SWAP3 PUSH2 0x240 SWAP5 SWAP3 PUSH1 0x1 SWAP3 PUSH1 0x10 SWAP6 DUP4 PUSH1 0x1F NOT DUP2 AND LT PUSH2 0x16A1 JUMPI JUMPDEST POP POP POP DUP2 SHL ADD PUSH1 0xD DUP3 ADD SSTORE PUSH2 0x1487 JUMP JUMPDEST ADD MLOAD PUSH1 0x0 NOT PUSH1 0xF8 DUP5 PUSH1 0x3 SHL AND SHR NOT AND SWAP1 SSTORE DUP9 DUP1 DUP1 PUSH2 0x1691 JUMP JUMPDEST SWAP2 SWAP3 PUSH1 0x20 PUSH1 0x1 DUP2 SWAP3 DUP7 DUP6 ADD MLOAD DUP2 SSTORE ADD SWAP5 ADD SWAP3 ADD PUSH2 0x166D JUMP JUMPDEST ADD MLOAD SWAP1 POP DUP7 DUP1 PUSH2 0x1406 JUMP JUMPDEST SWAP3 POP PUSH1 0xC DUP5 ADD PUSH1 0x0 MSTORE PUSH1 0x20 PUSH1 0x0 KECCAK256 SWAP1 PUSH1 0x0 SWAP4 JUMPDEST PUSH1 0x1F NOT DUP5 AND DUP6 LT PUSH2 0x1734 JUMPI PUSH1 0x1 SWAP5 POP DUP4 PUSH1 0x1F NOT DUP2 AND LT PUSH2 0x171B JUMPI JUMPDEST POP POP POP DUP2 SHL ADD PUSH1 0xC DUP3 ADD SSTORE PUSH2 0x141E JUMP JUMPDEST ADD MLOAD PUSH1 0x0 NOT PUSH1 0xF8 DUP5 PUSH1 0x3 SHL AND SHR NOT AND SWAP1 SSTORE DUP7 DUP1 DUP1 PUSH2 0x170B JUMP JUMPDEST DUP2 DUP2 ADD MLOAD DUP4 SSTORE PUSH1 0x20 SWAP5 DUP6 ADD SWAP5 PUSH1 0x1 SWAP1 SWAP4 ADD SWAP3 SWAP1 SWAP2 ADD SWAP1 PUSH2 0x16F0 JUMP JUMPDEST ADD MLOAD SWAP1 POP DUP7 DUP1 PUSH2 0x139A JUMP JUMPDEST SWAP3 POP PUSH1 0xA DUP5 ADD PUSH1 0x0 MSTORE PUSH1 0x20 PUSH1 0x0 KECCAK256 SWAP1 PUSH1 0x0 SWAP4 JUMPDEST PUSH1 0x1F NOT DUP5 AND DUP6 LT PUSH2 0x17B1 JUMPI PUSH1 0x1 SWAP5 POP DUP4 PUSH1 0x1F NOT DUP2 AND LT PUSH2 0x1798 JUMPI JUMPDEST POP POP POP DUP2 SHL ADD PUSH1 0xA DUP3 ADD SSTORE PUSH2 0x13B2 JUMP JUMPDEST ADD MLOAD PUSH1 0x0 NOT PUSH1 0xF8 DUP5 PUSH1 0x3 SHL AND SHR NOT AND SWAP1 SSTORE DUP7 DUP1 DUP1 PUSH2 0x1788 JUMP JUMPDEST DUP2 DUP2 ADD MLOAD DUP4 SSTORE PUSH1 0x20 SWAP5 DUP6 ADD SWAP5 PUSH1 0x1 SWAP1 SWAP4 ADD SWAP3 SWAP1 SWAP2 ADD SWAP1 PUSH2 0x176D JUMP JUMPDEST ADD MLOAD SWAP1 POP DUP7 DUP1 PUSH2 0x1339 JUMP JUMPDEST SWAP3 POP PUSH1 0x9 DUP5 ADD PUSH1 0x0 MSTORE PUSH1 0x20 PUSH1 0x0 KECCAK256 SWAP1 PUSH1 0x0 SWAP4 JUMPDEST PUSH1 0x1F NOT DUP5 AND DUP6 LT PUSH2 0x182E JUMPI PUSH1 0x1 SWAP5 POP DUP4 PUSH1 0x1F NOT DUP2 AND LT PUSH2 0x1815 JUMPI JUMPDEST POP POP POP DUP2 SHL ADD PUSH1 0x9 DUP3 ADD SSTORE PUSH2 0x1351 JUMP JUMPDEST ADD MLOAD PUSH1 0x0 NOT PUSH1 0xF8 DUP5 PUSH1 0x3 SHL AND SHR NOT AND SWAP1 SSTORE DUP7 DUP1 DUP1 PUSH2 0x1805 JUMP JUMPDEST DUP2 DUP2 ADD MLOAD DUP4 SSTORE PUSH1 0x20 SWAP5 DUP6 ADD SWAP5 PUSH1 0x1 SWAP1 SWAP4 ADD SWAP3 SWAP1 SWAP2 ADD SWAP1 PUSH2 0x17EA JUMP JUMPDEST DUP1 MLOAD DUP1 MLOAD SWAP1 PUSH1 0x1 PUSH1 0x1 PUSH1 0x40 SHL SUB DUP3 GT PUSH2 0x192C JUMPI PUSH2 0x1870 DUP3 PUSH2 0x186A DUP7 SLOAD PUSH2 0x485A JUMP JUMPDEST DUP7 PUSH2 0x53E8 JUMP JUMPDEST PUSH1 0x20 SWAP1 PUSH1 0x1F DUP4 GT PUSH1 0x1 EQ PUSH2 0x18BC JUMPI SWAP3 DUP3 PUSH1 0x1 SWAP5 SWAP4 PUSH1 0x20 SWAP4 DUP7 SWAP6 PUSH1 0x0 SWAP3 PUSH2 0x18B1 JUMPI JUMPDEST POP POP PUSH1 0x0 NOT PUSH1 0x3 DUP4 SWAP1 SHL SHR NOT AND SWAP1 DUP5 SHL OR DUP6 SSTORE JUMPDEST ADD SWAP3 ADD SWAP3 ADD SWAP2 SWAP1 PUSH2 0x12E5 JUMP JUMPDEST ADD MLOAD SWAP1 POP DUP14 DUP1 PUSH2 0x1891 JUMP JUMPDEST SWAP1 DUP5 PUSH1 0x0 MSTORE PUSH1 0x20 PUSH1 0x0 KECCAK256 SWAP2 PUSH1 0x0 JUMPDEST PUSH1 0x1F NOT DUP6 AND DUP2 LT PUSH2 0x1914 JUMPI POP DUP4 PUSH1 0x20 SWAP4 PUSH1 0x1 SWAP7 SWAP4 DUP8 SWAP7 SWAP4 DUP8 SWAP5 PUSH1 0x1F NOT DUP2 AND LT PUSH2 0x18FB JUMPI JUMPDEST POP POP POP DUP2 SHL ADD DUP6 SSTORE PUSH2 0x18A5 JUMP JUMPDEST ADD MLOAD PUSH1 0x0 NOT PUSH1 0xF8 DUP5 PUSH1 0x3 SHL AND SHR NOT AND SWAP1 SSTORE DUP14 DUP1 DUP1 PUSH2 0x18EE JUMP JUMPDEST SWAP2 SWAP3 PUSH1 0x20 PUSH1 0x1 DUP2 SWAP3 DUP7 DUP6 ADD MLOAD DUP2 SSTORE ADD SWAP5 ADD SWAP3 ADD PUSH2 0x18CA JUMP JUMPDEST DUP10 PUSH4 0x4E487B71 PUSH1 0xE0 SHL PUSH1 0x0 MSTORE PUSH1 0x41 PUSH1 0x4 MSTORE PUSH1 0x0 REVERT JUMPDEST ADD MLOAD SWAP1 POP DUP7 DUP1 PUSH2 0x12A5 JUMP JUMPDEST SWAP3 POP PUSH1 0x7 DUP5 ADD PUSH1 0x0 MSTORE PUSH1 0x20 PUSH1 0x0 KECCAK256 SWAP1 PUSH1 0x0 SWAP4 JUMPDEST PUSH1 0x1F NOT DUP5 AND DUP6 LT PUSH2 0x19A3 JUMPI PUSH1 0x1 SWAP5 POP DUP4 PUSH1 0x1F NOT DUP2 AND LT PUSH2 0x198A JUMPI JUMPDEST POP POP POP DUP2 SHL ADD PUSH1 0x7 DUP3 ADD SSTORE PUSH2 0x12BD JUMP JUMPDEST ADD MLOAD PUSH1 0x0 NOT PUSH1 0xF8 DUP5 PUSH1 0x3 SHL AND SHR NOT AND SWAP1 SSTORE DUP7 DUP1 DUP1 PUSH2 0x197A JUMP JUMPDEST DUP2 DUP2 ADD MLOAD DUP4 SSTORE PUSH1 0x20 SWAP5 DUP6 ADD SWAP5 PUSH1 0x1 SWAP1 SWAP4 ADD SWAP3 SWAP1 SWAP2 ADD SWAP1 PUSH2 0x195F JUMP JUMPDEST ADD MLOAD SWAP1 POP DUP7 DUP1 PUSH2 0x1245 JUMP JUMPDEST SWAP3 POP PUSH1 0x6 DUP5 ADD PUSH1 0x0 MSTORE PUSH1 0x20 PUSH1 0x0 KECCAK256 SWAP1 PUSH1 0x0 SWAP4 JUMPDEST PUSH1 0x1F NOT DUP5 AND DUP6 LT PUSH2 0x1A20 JUMPI PUSH1 0x1 SWAP5 POP DUP4 PUSH1 0x1F NOT DUP2 AND LT PUSH2 0x1A07 JUMPI JUMPDEST POP POP POP DUP2 SHL ADD PUSH1 0x6 DUP3 ADD SSTORE PUSH2 0x125D JUMP JUMPDEST ADD MLOAD PUSH1 0x0 NOT PUSH1 0xF8 DUP5 PUSH1 0x3 SHL AND SHR NOT AND SWAP1 SSTORE DUP7 DUP1 DUP1 PUSH2 0x19F7 JUMP JUMPDEST DUP2 DUP2 ADD MLOAD DUP4 SSTORE PUSH1 0x20 SWAP5 DUP6 ADD SWAP5 PUSH1 0x1 SWAP1 SWAP4 ADD SWAP3 SWAP1 SWAP2 ADD SWAP1 PUSH2 0x19DC JUMP JUMPDEST ADD MLOAD SWAP1 POP DUP7 DUP1 PUSH2 0x11D1 JUMP JUMPDEST SWAP3 POP PUSH1 0x3 DUP5 ADD PUSH1 0x0 MSTORE PUSH1 0x20 PUSH1 0x0 KECCAK256 SWAP1 PUSH1 0x0 SWAP4 JUMPDEST PUSH1 0x1F NOT DUP5 AND DUP6 LT PUSH2 0x1A9D JUMPI PUSH1 0x1 SWAP5 POP DUP4 PUSH1 0x1F NOT DUP2 AND LT PUSH2 0x1A84 JUMPI JUMPDEST POP POP POP DUP2 SHL ADD PUSH1 0x3 DUP3 ADD SSTORE PUSH2 0x11E9 JUMP JUMPDEST ADD MLOAD PUSH1 0x0 NOT PUSH1 0xF8 DUP5 PUSH1 0x3 SHL AND SHR NOT AND SWAP1 SSTORE DUP7 DUP1 DUP1 PUSH2 0x1A74 JUMP JUMPDEST DUP2 DUP2 ADD MLOAD DUP4 SSTORE PUSH1 0x20 SWAP5 DUP6 ADD SWAP5 PUSH1 0x1 SWAP1 SWAP4 ADD SWAP3 SWAP1 SWAP2 ADD SWAP1 PUSH2 0x1A59 JUMP JUMPDEST ADD MLOAD SWAP1 POP DUP7 DUP1 PUSH2 0x1171 JUMP JUMPDEST SWAP3 POP PUSH1 0x2 DUP5 ADD PUSH1 0x0 MSTORE PUSH1 0x20 PUSH1 0x0 KECCAK256 SWAP1 PUSH1 0x0 SWAP4 JUMPDEST PUSH1 0x1F NOT DUP5 AND DUP6 LT PUSH2 0x1B1A JUMPI PUSH1 0x1 SWAP5 POP DUP4 PUSH1 0x1F NOT DUP2 AND LT PUSH2 0x1B01 JUMPI JUMPDEST POP POP POP DUP2 SHL ADD PUSH1 0x2 DUP3 ADD SSTORE PUSH2 0x1189 JUMP JUMPDEST ADD MLOAD PUSH1 0x0 NOT PUSH1 0xF8 DUP5 PUSH1 0x3 SHL AND SHR NOT AND SWAP1 SSTORE DUP7 DUP1 DUP1 PUSH2 0x1AF1 JUMP JUMPDEST DUP2 DUP2 ADD MLOAD DUP4 SSTORE PUSH1 0x20 SWAP5 DUP6 ADD SWAP5 PUSH1 0x1 SWAP1 SWAP4 ADD SWAP3 SWAP1 SWAP2 ADD SWAP1 PUSH2 0x1AD6 JUMP JUMPDEST PUSH1 0x40 MLOAD PUSH3 0x461BCD PUSH1 0xE5 SHL DUP2 MSTORE PUSH1 0x20 PUSH1 0x4 DUP3 ADD DUP2 SWAP1 MSTORE DUP2 DUP6 ADD MSTORE PUSH32 0x4552433732313A206D696E7420746F20746865207A65726F2061646472657373 PUSH1 0x44 DUP3 ADD MSTORE PUSH1 0x64 SWAP1 REVERT JUMPDEST PUSH1 0x1 PUSH1 0x1 PUSH1 0x40 SHL SUB DUP5 CALLDATALOAD GT PUSH2 0x4DB JUMPI PUSH1 0x20 DUP1 SWAP2 PUSH2 0x1B99 CALLDATASIZE DUP8 CALLDATALOAD DUP7 ADD PUSH2 0x4767 JUMP JUMPDEST DUP2 MSTORE ADD SWAP4 ADD SWAP3 PUSH2 0xF95 JUMP JUMPDEST CALLVALUE PUSH2 0x4DB JUMPI PUSH1 0x3 NOT PUSH1 0x40 CALLDATASIZE DUP3 ADD SLT PUSH2 0x4DB JUMPI PUSH1 0x1 PUSH1 0x1 PUSH1 0x40 SHL SUB PUSH1 0x24 CALLDATALOAD GT PUSH2 0x4DB JUMPI PUSH2 0x1A0 SWAP1 PUSH1 0x24 CALLDATALOAD CALLDATASIZE SUB ADD SLT PUSH2 0x4DB JUMPI CALLER PUSH1 0x0 MSTORE PUSH1 0xF PUSH1 0x20 MSTORE PUSH1 0xFF PUSH1 0x40 PUSH1 0x0 KECCAK256 SLOAD AND PUSH1 0x4 DUP2 LT ISZERO PUSH2 0x722 JUMPI PUSH1 0x2 PUSH2 0x1BFC SWAP2 EQ PUSH2 0x4E8E JUMP JUMPDEST PUSH1 0x4 CALLDATALOAD PUSH1 0x0 MSTORE PUSH1 0xC PUSH1 0x20 MSTORE CALLER PUSH1 0x1 DUP1 PUSH1 0xA0 SHL SUB PUSH1 0x1 PUSH1 0x40 PUSH1 0x0 KECCAK256 ADD SLOAD AND SUB PUSH2 0x265A JUMPI PUSH1 0x4 CALLDATALOAD PUSH1 0x0 MSTORE PUSH1 0x13 PUSH1 0x20 MSTORE PUSH2 0x1C3A PUSH1 0xFF PUSH1 0x40 PUSH1 0x0 KECCAK256 SLOAD AND PUSH2 0x5635 JUMP JUMPDEST PUSH1 0x4 CALLDATALOAD PUSH1 0x0 MSTORE PUSH1 0xC PUSH1 0x20 MSTORE PUSH2 0x1C5D PUSH1 0xFF PUSH1 0xF PUSH1 0x40 PUSH1 0x0 KECCAK256 ADD SLOAD PUSH1 0x10 SHR AND ISZERO PUSH2 0x567A JUMP JUMPDEST PUSH2 0x1C6F PUSH2 0xD3B PUSH1 0x4 PUSH1 0x24 CALLDATALOAD ADD DUP1 PUSH2 0x4ED0 JUMP JUMPDEST PUSH2 0x1C85 PUSH2 0xD5C PUSH1 0x24 DUP1 CALLDATALOAD ADD PUSH1 0x24 CALLDATALOAD PUSH1 0x4 ADD PUSH2 0x4ED0 JUMP JUMPDEST PUSH2 0x1C96 PUSH1 0x44 PUSH1 0x24 CALLDATALOAD ADD CALLDATALOAD ISZERO ISZERO PUSH2 0x4F91 JUMP JUMPDEST PUSH2 0x1CAD PUSH2 0xDBE PUSH1 0xC4 PUSH1 0x24 CALLDATALOAD ADD PUSH1 0x24 CALLDATALOAD PUSH1 0x4 ADD PUSH2 0x506D JUMP JUMPDEST PUSH2 0x1CC6 PUSH1 0x5 PUSH2 0xDE0 PUSH1 0xC4 PUSH1 0x24 CALLDATALOAD ADD PUSH1 0x24 CALLDATALOAD PUSH1 0x4 ADD PUSH2 0x506D JUMP JUMPDEST PUSH2 0x1CD7 PUSH1 0x64 PUSH1 0x24 CALLDATALOAD ADD CALLDATALOAD ISZERO ISZERO PUSH2 0x4FDD JUMP JUMPDEST PUSH2 0x1CEE PUSH2 0xD9E PUSH1 0x84 PUSH1 0x24 CALLDATALOAD ADD PUSH1 0x24 CALLDATALOAD PUSH1 0x4 ADD PUSH2 0x4ED0 JUMP JUMPDEST PUSH2 0x1D05 PUSH2 0xDFF PUSH1 0xA4 PUSH1 0x24 CALLDATALOAD ADD PUSH1 0x24 CALLDATALOAD PUSH1 0x4 ADD PUSH2 0x4ED0 JUMP JUMPDEST PUSH2 0x1D1C PUSH2 0xE1F PUSH1 0xE4 PUSH1 0x24 CALLDATALOAD ADD PUSH1 0x24 CALLDATALOAD PUSH1 0x4 ADD PUSH2 0x4ED0 JUMP JUMPDEST PUSH2 0x1D34 PUSH2 0xE40 PUSH2 0x104 PUSH1 0x24 CALLDATALOAD ADD PUSH1 0x24 CALLDATALOAD PUSH1 0x4 ADD PUSH2 0x4ED0 JUMP JUMPDEST PUSH2 0x1D4C PUSH2 0xE61 PUSH2 0x124 PUSH1 0x24 CALLDATALOAD ADD PUSH1 0x24 CALLDATALOAD PUSH1 0x4 ADD PUSH2 0x4ED0 JUMP JUMPDEST PUSH2 0x1D64 PUSH2 0xE82 PUSH2 0x144 PUSH1 0x24 CALLDATALOAD ADD PUSH1 0x24 CALLDATALOAD PUSH1 0x4 ADD PUSH2 0x4ED0 JUMP JUMPDEST PUSH2 0x1D76 PUSH2 0x164 PUSH1 0x24 CALLDATALOAD ADD CALLDATALOAD ISZERO ISZERO PUSH2 0x5296 JUMP JUMPDEST PUSH2 0x1D88 PUSH2 0x184 PUSH1 0x24 CALLDATALOAD ADD CALLDATALOAD ISZERO ISZERO PUSH2 0x52E2 JUMP JUMPDEST PUSH2 0x1D97 PUSH1 0x4 PUSH1 0x24 CALLDATALOAD ADD DUP1 PUSH2 0x4ED0 JUMP JUMPDEST PUSH1 0x4 CALLDATALOAD PUSH1 0x0 MSTORE PUSH1 0xC PUSH1 0x20 MSTORE PUSH1 0x2 PUSH1 0x40 PUSH1 0x0 KECCAK256 ADD SWAP1 PUSH1 0x1 PUSH1 0x1 PUSH1 0x40 SHL SUB DUP2 GT PUSH2 0x2228 JUMPI PUSH2 0x1DCD DUP2 PUSH2 0x1DC7 DUP5 SLOAD PUSH2 0x485A JUMP JUMPDEST DUP5 PUSH2 0x53E8 JUMP JUMPDEST PUSH1 0x0 SWAP3 PUSH1 0x1F DUP3 GT PUSH1 0x1 EQ PUSH2 0x25F1 JUMPI SWAP3 DUP2 SWAP3 SWAP4 PUSH1 0x0 SWAP3 PUSH2 0x25E6 JUMPI JUMPDEST POP POP DUP2 PUSH1 0x1 SHL SWAP2 PUSH1 0x0 NOT SWAP1 PUSH1 0x3 SHL SHR NOT AND OR SWAP1 SSTORE JUMPDEST PUSH2 0x1E0F PUSH1 0x24 DUP1 CALLDATALOAD ADD PUSH1 0x24 CALLDATALOAD PUSH1 0x4 ADD PUSH2 0x4ED0 JUMP JUMPDEST PUSH1 0x4 CALLDATALOAD PUSH1 0x0 MSTORE PUSH1 0xC PUSH1 0x20 MSTORE PUSH1 0x3 PUSH1 0x40 PUSH1 0x0 KECCAK256 ADD SWAP1 PUSH1 0x1 PUSH1 0x1 PUSH1 0x40 SHL SUB DUP2 GT PUSH2 0x2228 JUMPI PUSH2 0x1E3F DUP2 PUSH2 0x1DC7 DUP5 SLOAD PUSH2 0x485A JUMP JUMPDEST PUSH1 0x0 SWAP3 PUSH1 0x1F DUP3 GT PUSH1 0x1 EQ PUSH2 0x257D JUMPI SWAP3 DUP2 SWAP3 SWAP4 PUSH1 0x0 SWAP3 PUSH2 0x2572 JUMPI JUMPDEST POP POP DUP2 PUSH1 0x1 SHL SWAP2 PUSH1 0x0 NOT SWAP1 PUSH1 0x3 SHL SHR NOT AND OR SWAP1 SSTORE JUMPDEST PUSH1 0x4 CALLDATALOAD PUSH1 0x0 MSTORE PUSH1 0xC PUSH1 0x20 MSTORE PUSH1 0x40 PUSH1 0x0 KECCAK256 PUSH1 0x44 PUSH1 0x24 CALLDATALOAD ADD CALLDATALOAD PUSH1 0x4 DUP3 ADD SSTORE PUSH1 0x64 PUSH1 0x24 CALLDATALOAD ADD CALLDATALOAD PUSH1 0x5 DUP3 ADD SSTORE PUSH2 0x1EAA PUSH1 0x84 PUSH1 0x24 CALLDATALOAD ADD PUSH1 0x24 CALLDATALOAD PUSH1 0x4 ADD PUSH2 0x4ED0 JUMP JUMPDEST SWAP1 PUSH1 0x1 PUSH1 0x1 PUSH1 0x40 SHL SUB DUP3 GT PUSH2 0x2228 JUMPI PUSH2 0x1ED3 DUP3 PUSH2 0x1ECA PUSH1 0x6 DUP7 ADD SLOAD PUSH2 0x485A JUMP JUMPDEST PUSH1 0x6 DUP7 ADD PUSH2 0x53E8 JUMP JUMPDEST PUSH1 0x0 SWAP1 PUSH1 0x1F DUP4 GT PUSH1 0x1 EQ PUSH2 0x2502 JUMPI PUSH1 0x6 SWAP3 SWAP2 PUSH1 0x0 SWAP2 DUP4 PUSH2 0x24F7 JUMPI JUMPDEST POP POP DUP2 PUSH1 0x1 SHL SWAP2 PUSH1 0x0 NOT SWAP1 PUSH1 0x3 SHL SHR NOT AND OR SWAP2 ADD SSTORE JUMPDEST PUSH2 0x1F18 PUSH1 0xA4 PUSH1 0x24 CALLDATALOAD ADD PUSH1 0x24 CALLDATALOAD PUSH1 0x4 ADD PUSH2 0x4ED0 JUMP JUMPDEST PUSH1 0x4 CALLDATALOAD PUSH1 0x0 MSTORE PUSH1 0xC PUSH1 0x20 MSTORE PUSH1 0x7 PUSH1 0x40 PUSH1 0x0 KECCAK256 ADD SWAP1 PUSH1 0x1 PUSH1 0x1 PUSH1 0x40 SHL SUB DUP2 GT PUSH2 0x2228 JUMPI PUSH2 0x1F48 DUP2 PUSH2 0x1DC7 DUP5 SLOAD PUSH2 0x485A JUMP JUMPDEST PUSH1 0x0 SWAP3 PUSH1 0x1F DUP3 GT PUSH1 0x1 EQ PUSH2 0x248E JUMPI SWAP3 DUP2 SWAP3 SWAP4 PUSH1 0x0 SWAP3 PUSH2 0x2483 JUMPI JUMPDEST POP POP DUP2 PUSH1 0x1 SHL SWAP2 PUSH1 0x0 NOT SWAP1 PUSH1 0x3 SHL SHR NOT AND OR SWAP1 SSTORE JUMPDEST PUSH2 0x1F8B PUSH1 0xC4 PUSH1 0x24 CALLDATALOAD ADD PUSH1 0x24 CALLDATALOAD PUSH1 0x4 ADD PUSH2 0x506D JUMP JUMPDEST PUSH1 0x4 CALLDATALOAD PUSH1 0x0 MSTORE PUSH1 0xC PUSH1 0x20 MSTORE PUSH1 0x8 PUSH1 0x40 PUSH1 0x0 KECCAK256 ADD SWAP2 PUSH2 0x1FA9 DUP3 DUP5 PUSH2 0x5476 JUMP JUMPDEST PUSH1 0x0 SWAP3 DUP4 MSTORE PUSH1 0x20 DUP4 KECCAK256 SWAP1 DUP1 JUMPDEST DUP4 DUP6 LT PUSH2 0x239A JUMPI PUSH2 0x1FD0 PUSH1 0xE4 PUSH1 0x24 CALLDATALOAD ADD PUSH1 0x24 CALLDATALOAD PUSH1 0x4 ADD PUSH2 0x4ED0 JUMP JUMPDEST PUSH1 0x4 CALLDATALOAD PUSH1 0x0 MSTORE PUSH1 0xC PUSH1 0x20 MSTORE PUSH1 0x9 PUSH1 0x40 PUSH1 0x0 KECCAK256 ADD SWAP1 PUSH1 0x1 PUSH1 0x1 PUSH1 0x40 SHL SUB DUP2 GT PUSH2 0x2228 JUMPI PUSH2 0x2000 DUP2 PUSH2 0x1DC7 DUP5 SLOAD PUSH2 0x485A JUMP JUMPDEST PUSH1 0x0 SWAP3 PUSH1 0x1F DUP3 GT PUSH1 0x1 EQ PUSH2 0x2331 JUMPI SWAP3 DUP2 SWAP3 SWAP4 PUSH1 0x0 SWAP3 PUSH2 0x2326 JUMPI JUMPDEST POP POP DUP2 PUSH1 0x1 SHL SWAP2 PUSH1 0x0 NOT SWAP1 PUSH1 0x3 SHL SHR NOT AND OR SWAP1 SSTORE JUMPDEST PUSH2 0x2044 PUSH2 0x104 PUSH1 0x24 CALLDATALOAD ADD PUSH1 0x24 CALLDATALOAD PUSH1 0x4 ADD PUSH2 0x4ED0 JUMP JUMPDEST PUSH1 0x4 CALLDATALOAD PUSH1 0x0 MSTORE PUSH1 0xC PUSH1 0x20 MSTORE PUSH1 0xA PUSH1 0x40 PUSH1 0x0 KECCAK256 ADD SWAP1 PUSH1 0x1 PUSH1 0x1 PUSH1 0x40 SHL SUB DUP2 GT PUSH2 0x2228 JUMPI PUSH2 0x2074 DUP2 PUSH2 0x1DC7 DUP5 SLOAD PUSH2 0x485A JUMP JUMPDEST PUSH1 0x0 SWAP3 PUSH1 0x1F DUP3 GT PUSH1 0x1 EQ PUSH2 0x22BD JUMPI SWAP3 DUP2 SWAP3 SWAP4 PUSH1 0x0 SWAP3 PUSH2 0x22B2 JUMPI JUMPDEST POP POP DUP2 PUSH1 0x1 SHL SWAP2 PUSH1 0x0 NOT SWAP1 PUSH1 0x3 SHL SHR NOT AND OR SWAP1 SSTORE JUMPDEST PUSH2 0x20B8 PUSH2 0x124 PUSH1 0x24 CALLDATALOAD ADD PUSH1 0x24 CALLDATALOAD PUSH1 0x4 ADD PUSH2 0x4ED0 JUMP JUMPDEST PUSH1 0x4 CALLDATALOAD PUSH1 0x0 MSTORE PUSH1 0xC PUSH1 0x20 MSTORE PUSH1 0xC PUSH1 0x40 PUSH1 0x0 KECCAK256 ADD SWAP1 PUSH1 0x1 PUSH1 0x1 PUSH1 0x40 SHL SUB DUP2 GT PUSH2 0x2228 JUMPI PUSH2 0x20E8 DUP2 PUSH2 0x1DC7 DUP5 SLOAD PUSH2 0x485A JUMP JUMPDEST PUSH1 0x0 SWAP3 PUSH1 0x1F DUP3 GT PUSH1 0x1 EQ PUSH2 0x2249 JUMPI SWAP3 DUP2 SWAP3 SWAP4 PUSH1 0x0 SWAP3 PUSH2 0x223E JUMPI JUMPDEST POP POP DUP2 PUSH1 0x1 SHL SWAP2 PUSH1 0x0 NOT SWAP1 PUSH1 0x3 SHL SHR NOT AND OR SWAP1 SSTORE JUMPDEST PUSH2 0x212C PUSH2 0x144 PUSH1 0x24 CALLDATALOAD ADD PUSH1 0x24 CALLDATALOAD PUSH1 0x4 ADD PUSH2 0x4ED0 JUMP JUMPDEST PUSH1 0x4 CALLDATALOAD PUSH1 0x0 MSTORE PUSH1 0xC PUSH1 0x20 MSTORE PUSH1 0xD PUSH1 0x40 PUSH1 0x0 KECCAK256 ADD SWAP1 PUSH1 0x1 PUSH1 0x1 PUSH1 0x40 SHL SUB DUP2 GT PUSH2 0x2228 JUMPI PUSH2 0x215C DUP2 PUSH2 0x1DC7 DUP5 SLOAD PUSH2 0x485A JUMP JUMPDEST PUSH1 0x0 PUSH1 0x1F DUP3 GT PUSH1 0x1 EQ PUSH2 0x21C3 JUMPI DUP2 SWAP3 SWAP4 PUSH1 0x0 SWAP3 PUSH2 0x21B8 JUMPI JUMPDEST POP POP DUP2 PUSH1 0x1 SHL SWAP2 PUSH1 0x0 NOT SWAP1 PUSH1 0x3 SHL SHR NOT AND OR SWAP1 SSTORE JUMPDEST PUSH1 0x4 CALLDATALOAD PUSH1 0x0 MSTORE PUSH1 0xC PUSH1 0x20 MSTORE PUSH1 0x40 PUSH1 0x0 KECCAK256 PUSH2 0x164 PUSH1 0x24 CALLDATALOAD ADD CALLDATALOAD PUSH1 0xB DUP3 ADD SSTORE PUSH1 0xE PUSH2 0x184 PUSH1 0x24 CALLDATALOAD ADD CALLDATALOAD SWAP2 ADD SSTORE PUSH1 0x0 DUP1 RETURN JUMPDEST ADD CALLDATALOAD SWAP1 POP DUP4 DUP1 PUSH2 0x2174 JUMP JUMPDEST PUSH1 0x1F NOT DUP3 AND SWAP4 DUP4 PUSH1 0x0 MSTORE PUSH1 0x20 PUSH1 0x0 KECCAK256 SWAP2 PUSH1 0x0 JUMPDEST DUP7 DUP2 LT PUSH2 0x2210 JUMPI POP DUP4 PUSH1 0x1 SWAP6 SWAP7 LT PUSH2 0x21F6 JUMPI JUMPDEST POP POP POP DUP2 SHL ADD SWAP1 SSTORE PUSH2 0x2189 JUMP JUMPDEST ADD CALLDATALOAD PUSH1 0x0 NOT PUSH1 0x3 DUP5 SWAP1 SHL PUSH1 0xF8 AND SHR NOT AND SWAP1 SSTORE DUP4 DUP1 DUP1 PUSH2 0x21E9 JUMP JUMPDEST SWAP1 SWAP3 PUSH1 0x20 PUSH1 0x1 DUP2 SWAP3 DUP7 DUP7 ADD CALLDATALOAD DUP2 SSTORE ADD SWAP5 ADD SWAP2 ADD PUSH2 0x21D6 JUMP JUMPDEST PUSH4 0x4E487B71 PUSH1 0xE0 SHL PUSH1 0x0 MSTORE PUSH1 0x41 PUSH1 0x4 MSTORE PUSH1 0x24 PUSH1 0x0 REVERT JUMPDEST ADD CALLDATALOAD SWAP1 POP DUP4 DUP1 PUSH2 0x2102 JUMP JUMPDEST DUP3 PUSH1 0x0 MSTORE PUSH1 0x20 PUSH1 0x0 KECCAK256 SWAP1 PUSH1 0x0 SWAP5 JUMPDEST PUSH1 0x1F NOT DUP5 AND DUP7 LT PUSH2 0x229A JUMPI PUSH1 0x1 SWAP5 SWAP6 POP DUP4 PUSH1 0x1F NOT DUP2 AND LT PUSH2 0x2280 JUMPI JUMPDEST POP POP POP DUP2 SHL ADD SWAP1 SSTORE PUSH2 0x2117 JUMP JUMPDEST ADD CALLDATALOAD PUSH1 0x0 NOT PUSH1 0x3 DUP5 SWAP1 SHL PUSH1 0xF8 AND SHR NOT AND SWAP1 SSTORE DUP4 DUP1 DUP1 PUSH2 0x2273 JUMP JUMPDEST SWAP2 PUSH1 0x20 PUSH1 0x1 DUP2 SWAP3 DUP6 DUP6 ADD CALLDATALOAD DUP2 SSTORE ADD SWAP4 ADD SWAP6 ADD SWAP5 PUSH2 0x2257 JUMP JUMPDEST ADD CALLDATALOAD SWAP1 POP DUP4 DUP1 PUSH2 0x208E JUMP JUMPDEST DUP3 PUSH1 0x0 MSTORE PUSH1 0x20 PUSH1 0x0 KECCAK256 SWAP1 PUSH1 0x0 SWAP5 JUMPDEST PUSH1 0x1F NOT DUP5 AND DUP7 LT PUSH2 0x230E JUMPI PUSH1 0x1 SWAP5 SWAP6 POP DUP4 PUSH1 0x1F NOT DUP2 AND LT PUSH2 0x22F4 JUMPI JUMPDEST POP POP POP DUP2 SHL ADD SWAP1 SSTORE PUSH2 0x20A3 JUMP JUMPDEST ADD CALLDATALOAD PUSH1 0x0 NOT PUSH1 0x3 DUP5 SWAP1 SHL PUSH1 0xF8 AND SHR NOT AND SWAP1 SSTORE DUP4 DUP1 DUP1 PUSH2 0x22E7 JUMP JUMPDEST SWAP2 PUSH1 0x20 PUSH1 0x1 DUP2 SWAP3 DUP6 DUP6 ADD CALLDATALOAD DUP2 SSTORE ADD SWAP4 ADD SWAP6 ADD SWAP5 PUSH2 0x22CB JUMP JUMPDEST ADD CALLDATALOAD SWAP1 POP DUP4 DUP1 PUSH2 0x201A JUMP JUMPDEST DUP3 PUSH1 0x0 MSTORE PUSH1 0x20 PUSH1 0x0 KECCAK256 SWAP1 PUSH1 0x0 SWAP5 JUMPDEST PUSH1 0x1F NOT DUP5 AND DUP7 LT PUSH2 0x2382 JUMPI PUSH1 0x1 SWAP5 SWAP6 POP DUP4 PUSH1 0x1F NOT DUP2 AND LT PUSH2 0x2368 JUMPI JUMPDEST POP POP POP DUP2 SHL ADD SWAP1 SSTORE PUSH2 0x202F JUMP JUMPDEST ADD CALLDATALOAD PUSH1 0x0 NOT PUSH1 0x3 DUP5 SWAP1 SHL PUSH1 0xF8 AND SHR NOT AND SWAP1 SSTORE DUP4 DUP1 DUP1 PUSH2 0x235B JUMP JUMPDEST SWAP2 PUSH1 0x20 PUSH1 0x1 DUP2 SWAP3 DUP6 DUP6 ADD CALLDATALOAD DUP2 SSTORE ADD SWAP4 ADD SWAP6 ADD SWAP5 PUSH2 0x233F JUMP JUMPDEST PUSH2 0x23A4 DUP2 DUP4 PUSH2 0x4ED0 JUMP JUMPDEST SWAP1 PUSH1 0x1 PUSH1 0x1 PUSH1 0x40 SHL SUB DUP3 GT PUSH2 0x2228 JUMPI PUSH2 0x23C7 DUP3 PUSH2 0x23C1 DUP8 SLOAD PUSH2 0x485A JUMP JUMPDEST DUP8 PUSH2 0x53E8 JUMP JUMPDEST PUSH1 0x0 SWAP1 PUSH1 0x1F DUP4 GT PUSH1 0x1 EQ PUSH2 0x2413 JUMPI SWAP3 DUP3 PUSH1 0x1 SWAP5 SWAP4 PUSH1 0x20 SWAP4 DUP7 SWAP6 PUSH1 0x0 SWAP3 PUSH2 0x2408 JUMPI JUMPDEST POP POP PUSH1 0x0 NOT PUSH1 0x3 DUP4 SWAP1 SHL SHR NOT AND SWAP1 DUP5 SHL OR DUP7 SSTORE JUMPDEST ADD SWAP4 ADD SWAP5 ADD SWAP4 SWAP2 PUSH2 0x1FB5 JUMP JUMPDEST ADD CALLDATALOAD SWAP1 POP DUP11 DUP1 PUSH2 0x23E8 JUMP JUMPDEST DUP6 PUSH1 0x0 MSTORE PUSH1 0x20 PUSH1 0x0 KECCAK256 SWAP2 PUSH1 0x0 JUMPDEST PUSH1 0x1F NOT DUP6 AND DUP2 LT PUSH2 0x246B JUMPI POP DUP4 PUSH1 0x20 SWAP4 PUSH1 0x1 SWAP7 SWAP4 DUP8 SWAP7 SWAP4 DUP8 SWAP5 PUSH1 0x1F NOT DUP2 AND LT PUSH2 0x2451 JUMPI JUMPDEST POP POP POP DUP2 SHL ADD DUP7 SSTORE PUSH2 0x23FC JUMP JUMPDEST ADD CALLDATALOAD PUSH1 0x0 NOT PUSH1 0x3 DUP5 SWAP1 SHL PUSH1 0xF8 AND SHR NOT AND SWAP1 SSTORE DUP11 DUP1 DUP1 PUSH2 0x2444 JUMP JUMPDEST SWAP1 SWAP3 PUSH1 0x20 PUSH1 0x1 DUP2 SWAP3 DUP7 DUP7 ADD CALLDATALOAD DUP2 SSTORE ADD SWAP5 ADD SWAP2 ADD PUSH2 0x2420 JUMP JUMPDEST ADD CALLDATALOAD SWAP1 POP DUP4 DUP1 PUSH2 0x1F62 JUMP JUMPDEST DUP3 PUSH1 0x0 MSTORE PUSH1 0x20 PUSH1 0x0 KECCAK256 SWAP1 PUSH1 0x0 SWAP5 JUMPDEST PUSH1 0x1F NOT DUP5 AND DUP7 LT PUSH2 0x24DF JUMPI PUSH1 0x1 SWAP5 SWAP6 POP DUP4 PUSH1 0x1F NOT DUP2 AND LT PUSH2 0x24C5 JUMPI JUMPDEST POP POP POP DUP2 SHL ADD SWAP1 SSTORE PUSH2 0x1F77 JUMP JUMPDEST ADD CALLDATALOAD PUSH1 0x0 NOT PUSH1 0x3 DUP5 SWAP1 SHL PUSH1 0xF8 AND SHR NOT AND SWAP1 SSTORE DUP4 DUP1 DUP1 PUSH2 0x24B8 JUMP JUMPDEST SWAP2 PUSH1 0x20 PUSH1 0x1 DUP2 SWAP3 DUP6 DUP6 ADD CALLDATALOAD DUP2 SSTORE ADD SWAP4 ADD SWAP6 ADD SWAP5 PUSH2 0x249C JUMP JUMPDEST ADD CALLDATALOAD SWAP1 POP DUP5 DUP1 PUSH2 0x1EEE JUMP JUMPDEST PUSH1 0x6 DUP5 ADD PUSH1 0x0 MSTORE PUSH1 0x20 PUSH1 0x0 KECCAK256 SWAP2 PUSH1 0x0 JUMPDEST PUSH1 0x1F NOT DUP6 AND DUP2 LT PUSH2 0x255A JUMPI POP SWAP2 DUP4 SWAP2 PUSH1 0x1 SWAP4 PUSH1 0x6 SWAP6 PUSH1 0x1F NOT DUP2 AND LT PUSH2 0x2540 JUMPI JUMPDEST POP POP POP DUP2 SHL ADD SWAP2 ADD SSTORE PUSH2 0x1F04 JUMP JUMPDEST ADD CALLDATALOAD PUSH1 0x0 NOT PUSH1 0x3 DUP5 SWAP1 SHL PUSH1 0xF8 AND SHR NOT AND SWAP1 SSTORE DUP5 DUP1 DUP1 PUSH2 0x2532 JUMP JUMPDEST SWAP1 SWAP3 PUSH1 0x20 PUSH1 0x1 DUP2 SWAP3 DUP7 DUP7 ADD CALLDATALOAD DUP2 SSTORE ADD SWAP5 ADD SWAP2 ADD PUSH2 0x2512 JUMP JUMPDEST ADD CALLDATALOAD SWAP1 POP DUP4 DUP1 PUSH2 0x1E59 JUMP JUMPDEST DUP3 PUSH1 0x0 MSTORE PUSH1 0x20 PUSH1 0x0 KECCAK256 SWAP1 PUSH1 0x0 SWAP5 JUMPDEST PUSH1 0x1F NOT DUP5 AND DUP7 LT PUSH2 0x25CE JUMPI PUSH1 0x1 SWAP5 SWAP6 POP DUP4 PUSH1 0x1F NOT DUP2 AND LT PUSH2 0x25B4 JUMPI JUMPDEST POP POP POP DUP2 SHL ADD SWAP1 SSTORE PUSH2 0x1E6E JUMP JUMPDEST ADD CALLDATALOAD PUSH1 0x0 NOT PUSH1 0x3 DUP5 SWAP1 SHL PUSH1 0xF8 AND SHR NOT AND SWAP1 SSTORE DUP4 DUP1 DUP1 PUSH2 0x25A7 JUMP JUMPDEST SWAP2 PUSH1 0x20 PUSH1 0x1 DUP2 SWAP3 DUP6 DUP6 ADD CALLDATALOAD DUP2 SSTORE ADD SWAP4 ADD SWAP6 ADD SWAP5 PUSH2 0x258B JUMP JUMPDEST ADD CALLDATALOAD SWAP1 POP DUP4 DUP1 PUSH2 0x1DE7 JUMP JUMPDEST DUP3 PUSH1 0x0 MSTORE PUSH1 0x20 PUSH1 0x0 KECCAK256 SWAP1 PUSH1 0x0 SWAP5 JUMPDEST PUSH1 0x1F NOT DUP5 AND DUP7 LT PUSH2 0x2642 JUMPI PUSH1 0x1 SWAP5 SWAP6 POP DUP4 PUSH1 0x1F NOT DUP2 AND LT PUSH2 0x2628 JUMPI JUMPDEST POP POP POP DUP2 SHL ADD SWAP1 SSTORE PUSH2 0x1DFC JUMP JUMPDEST ADD CALLDATALOAD PUSH1 0x0 NOT PUSH1 0x3 DUP5 SWAP1 SHL PUSH1 0xF8 AND SHR NOT AND SWAP1 SSTORE DUP4 DUP1 DUP1 PUSH2 0x261B JUMP JUMPDEST SWAP2 PUSH1 0x20 PUSH1 0x1 DUP2 SWAP3 DUP6 DUP6 ADD CALLDATALOAD DUP2 SSTORE ADD SWAP4 ADD SWAP6 ADD SWAP5 PUSH2 0x25FF JUMP JUMPDEST PUSH1 0x40 MLOAD PUSH3 0x461BCD PUSH1 0xE5 SHL DUP2 MSTORE PUSH1 0x20 PUSH1 0x4 DUP3 ADD MSTORE PUSH1 0x28 PUSH1 0x24 DUP3 ADD MSTORE PUSH32 0x4F6E6C79207468652073656C6C65722063616E20757064617465207468656972 PUSH1 0x44 DUP3 ADD MSTORE PUSH8 0x81C1C9BD91D58DD PUSH1 0xC2 SHL PUSH1 0x64 DUP3 ADD MSTORE PUSH1 0x84 SWAP1 REVERT JUMPDEST CALLVALUE PUSH2 0x4DB JUMPI PUSH1 0x20 CALLDATASIZE PUSH1 0x3 NOT ADD SLT PUSH2 0x4DB JUMPI PUSH1 0x4 CALLDATALOAD PUSH1 0x0 MSTORE PUSH1 0x13 PUSH1 0x20 MSTORE PUSH1 0x20 PUSH1 0xFF PUSH1 0x40 PUSH1 0x0 KECCAK256 SLOAD AND PUSH1 0x40 MLOAD SWAP1 ISZERO ISZERO DUP2 MSTORE RETURN JUMPDEST CALLVALUE PUSH2 0x4DB JUMPI PUSH1 0x40 CALLDATASIZE PUSH1 0x3 NOT ADD SLT PUSH2 0x4DB JUMPI PUSH2 0x26FA PUSH2 0x465B JUMP JUMPDEST PUSH1 0x24 CALLDATALOAD SWAP1 DUP2 ISZERO ISZERO SWAP1 DUP2 DUP4 SUB PUSH2 0x4DB JUMPI PUSH1 0x1 PUSH1 0x1 PUSH1 0xA0 SHL SUB AND SWAP2 CALLER DUP4 EQ PUSH2 0x2777 JUMPI PUSH2 0x2749 SWAP1 CALLER PUSH1 0x0 MSTORE PUSH1 0x7 PUSH1 0x20 MSTORE PUSH1 0x40 PUSH1 0x0 KECCAK256 DUP5 PUSH1 0x0 MSTORE PUSH1 0x20 MSTORE PUSH1 0x40 PUSH1 0x0 KECCAK256 SWAP1 PUSH1 0xFF DUP1 NOT DUP4 SLOAD AND SWAP2 ISZERO ISZERO AND OR SWAP1 SSTORE JUMP JUMPDEST PUSH1 0x40 MLOAD SWAP1 DUP2 MSTORE PUSH32 0x17307EAB39AB6107E8899845AD3D59BD9653F200F220920489CA2B5937696C31 PUSH1 0x20 CALLER SWAP3 LOG3 STOP JUMPDEST PUSH1 0x40 MLOAD PUSH3 0x461BCD PUSH1 0xE5 SHL DUP2 MSTORE PUSH1 0x20 PUSH1 0x4 DUP3 ADD MSTORE PUSH1 0x19 PUSH1 0x24 DUP3 ADD MSTORE PUSH32 0x4552433732313A20617070726F766520746F2063616C6C657200000000000000 PUSH1 0x44 DUP3 ADD MSTORE PUSH1 0x64 SWAP1 REVERT JUMPDEST CALLVALUE PUSH2 0x4DB JUMPI PUSH1 0x40 CALLDATASIZE PUSH1 0x3 NOT ADD SLT PUSH2 0x4DB JUMPI PUSH2 0x27D5 PUSH2 0x465B JUMP JUMPDEST PUSH1 0x1 PUSH1 0x1 PUSH1 0xA0 SHL SUB SWAP1 DUP2 AND PUSH1 0x0 SWAP1 DUP2 MSTORE PUSH1 0x10 PUSH1 0x20 MSTORE PUSH1 0x40 SWAP1 KECCAK256 DUP1 SLOAD PUSH1 0x24 CALLDATALOAD SWAP1 DUP2 LT ISZERO PUSH2 0x4DB JUMPI PUSH2 0x7D6 SWAP2 PUSH2 0x493A JUMP JUMPDEST CALLVALUE PUSH2 0x4DB JUMPI PUSH1 0x20 DUP1 PUSH1 0x3 NOT CALLDATASIZE ADD SLT PUSH2 0x4DB JUMPI PUSH1 0x4 CALLDATALOAD DUP1 PUSH1 0x0 MSTORE PUSH1 0xC SWAP1 DUP2 DUP4 MSTORE PUSH1 0xFF PUSH1 0xF PUSH1 0x40 PUSH1 0x0 KECCAK256 ADD SLOAD SWAP2 PUSH2 0x283F DUP3 PUSH1 0x10 SWAP5 DUP6 SHR AND ISZERO PUSH2 0x567A JUMP JUMPDEST DUP1 PUSH1 0x0 MSTORE PUSH1 0x13 DUP6 MSTORE PUSH2 0x2857 DUP3 PUSH1 0x40 PUSH1 0x0 KECCAK256 SLOAD AND PUSH2 0x5635 JUMP JUMPDEST PUSH1 0x0 SWAP3 PUSH1 0x0 JUMPDEST DUP3 PUSH1 0x0 MSTORE DUP6 DUP8 MSTORE DUP2 PUSH1 0x40 PUSH1 0x0 KECCAK256 ADD DUP1 SLOAD DUP3 LT ISZERO PUSH2 0x28AE JUMPI PUSH1 0x4 PUSH2 0x2881 DUP4 DUP8 SWAP4 PUSH2 0x5740 JUMP JUMPDEST POP ADD SLOAD AND ISZERO PUSH2 0x2899 JUMPI JUMPDEST PUSH2 0x2894 SWAP1 PUSH2 0x575C JUMP JUMPDEST PUSH2 0x285D JUMP JUMPDEST SWAP4 PUSH2 0x28A6 PUSH2 0x2894 SWAP2 PUSH2 0x575C JUMP JUMPDEST SWAP5 SWAP1 POP PUSH2 0x288B JUMP JUMPDEST POP POP DUP5 DUP7 PUSH2 0x28BB DUP7 PUSH2 0x53BA JUMP JUMPDEST SWAP6 PUSH2 0x28C9 PUSH1 0x40 MLOAD SWAP8 DUP9 PUSH2 0x46F4 JUMP JUMPDEST DUP1 DUP8 MSTORE PUSH2 0x28D8 PUSH1 0x1F NOT SWAP2 PUSH2 0x53BA JUMP JUMPDEST ADD DUP2 PUSH1 0x0 JUMPDEST DUP3 DUP2 LT PUSH2 0x2981 JUMPI POP POP POP PUSH1 0x0 SWAP4 PUSH1 0x0 JUMPDEST DUP2 PUSH1 0x0 MSTORE DUP4 DUP4 MSTORE DUP5 PUSH1 0x40 PUSH1 0x0 KECCAK256 ADD DUP1 SLOAD DUP3 LT ISZERO PUSH2 0x296E JUMPI PUSH1 0x4 PUSH2 0x2911 DUP4 DUP11 SWAP4 PUSH2 0x5740 JUMP JUMPDEST POP ADD SLOAD AND ISZERO PUSH2 0x2929 JUMPI JUMPDEST PUSH2 0x2924 SWAP1 PUSH2 0x575C JUMP JUMPDEST PUSH2 0x28ED JUMP JUMPDEST SWAP5 PUSH2 0x2966 PUSH2 0x2924 SWAP2 DUP4 PUSH1 0x0 MSTORE DUP6 DUP6 MSTORE PUSH2 0x2951 PUSH2 0x294B DUP10 DUP10 PUSH1 0x40 PUSH1 0x0 KECCAK256 ADD PUSH2 0x5740 JUMP JUMPDEST POP PUSH2 0x577F JUMP JUMPDEST PUSH2 0x295B DUP3 DUP13 PUSH2 0x576B JUMP JUMPDEST MSTORE PUSH2 0x41E DUP2 DUP12 PUSH2 0x576B JUMP JUMPDEST SWAP6 SWAP1 POP PUSH2 0x291B JUMP JUMPDEST PUSH1 0x40 MLOAD DUP5 DUP2 MSTORE DUP1 PUSH2 0x240 DUP2 DUP8 ADD DUP13 PUSH2 0x43C2 JUMP JUMPDEST PUSH2 0x2989 PUSH2 0x5715 JUMP JUMPDEST DUP3 DUP3 DUP12 ADD ADD MSTORE ADD DUP3 SWAP1 PUSH2 0x28DD JUMP JUMPDEST CALLVALUE PUSH2 0x4DB JUMPI PUSH1 0x40 CALLDATASIZE PUSH1 0x3 NOT ADD SLT PUSH2 0x4DB JUMPI PUSH2 0x29B0 PUSH2 0x465B JUMP JUMPDEST PUSH1 0x24 SWAP1 DUP2 CALLDATALOAD SWAP1 PUSH1 0x4 DUP3 LT ISZERO PUSH2 0x4DB JUMPI PUSH2 0x29C7 PUSH2 0x4984 JUMP JUMPDEST PUSH1 0x1 PUSH1 0x1 PUSH1 0xA0 SHL SUB AND SWAP2 DUP3 ISZERO PUSH2 0x2B56 JUMPI DUP3 PUSH1 0x0 MSTORE PUSH1 0x20 SWAP1 PUSH1 0x12 DUP3 MSTORE PUSH1 0xFF PUSH1 0x40 PUSH1 0x0 KECCAK256 SLOAD AND ISZERO PUSH2 0x2B1B JUMPI DUP4 PUSH1 0x0 MSTORE PUSH1 0xF DUP3 MSTORE PUSH1 0xFF PUSH1 0x40 PUSH1 0x0 KECCAK256 SLOAD AND PUSH1 0x4 DUP2 LT ISZERO PUSH2 0x2ACE JUMPI DUP4 EQ PUSH2 0x2AE3 JUMPI PUSH1 0x2 DUP4 EQ PUSH2 0x2A6A JUMPI JUMPDEST POP PUSH32 0xD8F7BCB2C5CFFC294A0AAEF719685993D7BE95273FB8254803A1563510CCEFED SWAP2 PUSH1 0xF PUSH2 0x2A65 SWAP3 DUP6 PUSH1 0x0 MSTORE MSTORE PUSH1 0x40 PUSH1 0x0 KECCAK256 PUSH1 0xFF NOT DUP2 SLOAD AND PUSH1 0xFF DUP4 AND OR SWAP1 SSTORE PUSH1 0x40 MLOAD SWAP2 DUP3 SWAP2 DUP3 PUSH2 0x4847 JUMP JUMPDEST SUB SWAP1 LOG2 STOP JUMPDEST DUP4 PUSH1 0x0 MSTORE PUSH1 0xF DUP3 MSTORE PUSH1 0xFF PUSH1 0x40 PUSH1 0x0 KECCAK256 SLOAD AND PUSH1 0x4 DUP2 LT ISZERO PUSH2 0x2ACE JUMPI PUSH1 0x1 EQ PUSH2 0x2A19 JUMPI SWAP1 PUSH1 0x1F PUSH1 0x64 SWAP3 PUSH1 0x40 MLOAD SWAP3 PUSH3 0x461BCD PUSH1 0xE5 SHL DUP5 MSTORE PUSH1 0x4 DUP5 ADD MSTORE DUP3 ADD MSTORE PUSH32 0x43616E206F6E6C79207665726966792070656E64696E672073656C6C65727300 PUSH1 0x44 DUP3 ADD MSTORE REVERT JUMPDEST POP PUSH4 0x4E487B71 PUSH1 0xE0 SHL PUSH1 0x0 SWAP1 DUP2 MSTORE PUSH1 0x21 PUSH1 0x4 MSTORE REVERT JUMPDEST SWAP1 PUSH1 0x12 PUSH1 0x64 SWAP3 PUSH1 0x40 MLOAD SWAP3 PUSH3 0x461BCD PUSH1 0xE5 SHL DUP5 MSTORE PUSH1 0x4 DUP5 ADD MSTORE DUP3 ADD MSTORE PUSH18 0x14DD185D1D5CC8185B1C9958591E481CD95D PUSH1 0x72 SHL PUSH1 0x44 DUP3 ADD MSTORE REVERT JUMPDEST SWAP1 PUSH1 0x15 PUSH1 0x64 SWAP3 PUSH1 0x40 MLOAD SWAP3 PUSH3 0x461BCD PUSH1 0xE5 SHL DUP5 MSTORE PUSH1 0x4 DUP5 ADD MSTORE DUP3 ADD MSTORE PUSH21 0x14D95B1B195C881B9BDD081C9959DA5CDD195C9959 PUSH1 0x5A SHL PUSH1 0x44 DUP3 ADD MSTORE REVERT JUMPDEST PUSH1 0x64 SWAP1 PUSH1 0x16 PUSH1 0x40 MLOAD SWAP2 PUSH3 0x461BCD PUSH1 0xE5 SHL DUP4 MSTORE PUSH1 0x20 PUSH1 0x4 DUP5 ADD MSTORE DUP3 ADD MSTORE PUSH22 0x496E76616C69642073656C6C65722061646472657373 PUSH1 0x50 SHL PUSH1 0x44 DUP3 ADD MSTORE REVERT JUMPDEST CALLVALUE PUSH2 0x4DB JUMPI PUSH1 0x0 CALLDATASIZE PUSH1 0x3 NOT ADD SLT PUSH2 0x4DB JUMPI PUSH1 0x40 MLOAD PUSH1 0x0 PUSH1 0x3 SLOAD PUSH2 0x2BB5 DUP2 PUSH2 0x485A JUMP JUMPDEST DUP1 DUP5 MSTORE SWAP1 PUSH1 0x1 SWAP1 DUP2 DUP2 AND SWAP1 DUP2 ISZERO PUSH2 0x2C4E JUMPI POP PUSH1 0x1 EQ PUSH2 0x2BF3 JUMPI JUMPDEST PUSH2 0x240 DUP5 PUSH2 0x2BDF DUP2 DUP7 SUB DUP3 PUSH2 0x46F4 JUMP JUMPDEST PUSH1 0x40 MLOAD SWAP2 DUP3 SWAP2 PUSH1 0x20 DUP4 MSTORE PUSH1 0x20 DUP4 ADD SWAP1 PUSH2 0x4382 JUMP JUMPDEST PUSH1 0x3 PUSH1 0x0 SWAP1 DUP2 MSTORE SWAP3 POP PUSH32 0xC2575A0E9E593C00F959F8C92F12DB2869C3395A3B0502D05E2516446F71F85B JUMPDEST DUP3 DUP5 LT PUSH2 0x2C36 JUMPI POP POP POP DUP2 ADD PUSH1 0x20 ADD PUSH2 0x2BDF DUP3 PUSH2 0x2BCF JUMP JUMPDEST DUP1 SLOAD PUSH1 0x20 DUP6 DUP8 ADD DUP2 ADD SWAP2 SWAP1 SWAP2 MSTORE SWAP1 SWAP4 ADD SWAP3 DUP2 ADD PUSH2 0x2C1E JUMP JUMPDEST PUSH1 0xFF NOT AND PUSH1 0x20 DUP1 DUP8 ADD SWAP2 SWAP1 SWAP2 MSTORE SWAP3 ISZERO ISZERO PUSH1 0x5 SHL DUP6 ADD SWAP1 SWAP3 ADD SWAP3 POP PUSH2 0x2BDF SWAP2 POP DUP4 SWAP1 POP PUSH2 0x2BCF JUMP JUMPDEST CALLVALUE PUSH2 0x4DB JUMPI PUSH1 0x0 CALLDATASIZE PUSH1 0x3 NOT ADD SLT PUSH2 0x4DB JUMPI PUSH1 0x0 SLOAD PUSH1 0x40 MLOAD PUSH1 0x1 PUSH1 0x1 PUSH1 0xA0 SHL SUB SWAP1 SWAP2 AND DUP2 MSTORE PUSH1 0x20 SWAP1 RETURN JUMPDEST PUSH1 0x20 DUP1 PUSH1 0x3 NOT CALLDATASIZE ADD SLT PUSH2 0x4DB JUMPI PUSH1 0x4 CALLDATALOAD SWAP1 PUSH1 0x1 SWAP2 PUSH1 0x2 DUP4 SLOAD EQ PUSH2 0x3054 JUMPI PUSH1 0x2 DUP4 SSTORE DUP1 PUSH1 0x0 MSTORE PUSH1 0x13 DUP3 MSTORE PUSH2 0x2CD8 PUSH1 0xFF PUSH1 0x40 PUSH1 0x0 KECCAK256 SLOAD AND PUSH2 0x5635 JUMP JUMPDEST DUP1 PUSH1 0x0 MSTORE PUSH1 0xC SWAP1 DUP2 DUP4 MSTORE PUSH2 0x2CFA PUSH1 0xFF PUSH1 0xF PUSH1 0x40 PUSH1 0x0 KECCAK256 ADD SLOAD PUSH1 0x10 SHR AND ISZERO PUSH2 0x567A JUMP JUMPDEST PUSH1 0x0 DUP2 DUP2 MSTORE DUP3 DUP5 MSTORE PUSH1 0x40 DUP1 DUP3 KECCAK256 DUP7 ADD SLOAD PUSH1 0x1 PUSH1 0x1 PUSH1 0xA0 SHL SUB SWAP1 DUP2 AND DUP4 MSTORE PUSH1 0xF DUP7 MSTORE SWAP2 KECCAK256 SLOAD PUSH1 0xFF AND PUSH1 0x4 DUP2 LT ISZERO PUSH2 0x722 JUMPI PUSH1 0x2 SUB PUSH2 0x3016 JUMPI DUP2 PUSH1 0x0 MSTORE DUP3 DUP5 MSTORE PUSH1 0x5 PUSH1 0x40 PUSH1 0x0 KECCAK256 ADD SLOAD ISZERO PUSH2 0x2FD1 JUMPI DUP2 PUSH1 0x0 MSTORE DUP3 DUP5 MSTORE PUSH1 0xFF PUSH1 0xF PUSH1 0x40 PUSH1 0x0 KECCAK256 ADD SLOAD AND PUSH2 0x2F8C JUMPI DUP2 PUSH1 0x0 MSTORE DUP3 DUP5 MSTORE DUP1 DUP6 PUSH1 0x40 PUSH1 0x0 KECCAK256 ADD SLOAD AND CALLER EQ PUSH2 0x2F47 JUMPI DUP2 PUSH1 0x0 MSTORE DUP3 DUP5 MSTORE PUSH1 0x4 PUSH1 0x40 PUSH1 0x0 KECCAK256 ADD SLOAD SWAP3 DUP4 CALLVALUE LT PUSH2 0x2F0D JUMPI DUP3 PUSH1 0x0 MSTORE DUP1 DUP6 MSTORE PUSH1 0x5 PUSH1 0x40 PUSH1 0x0 KECCAK256 ADD DUP1 SLOAD DUP1 ISZERO PUSH2 0x2EE4 JUMPI PUSH1 0x0 NOT ADD SWAP1 SSTORE DUP3 PUSH1 0x0 MSTORE DUP1 DUP6 MSTORE DUP2 DUP7 PUSH1 0x40 PUSH1 0x0 KECCAK256 PUSH1 0x5 DUP2 ADD SLOAD ISZERO PUSH2 0x2EFA JUMPI JUMPDEST ADD SLOAD AND PUSH2 0x2E23 PUSH1 0x40 MLOAD PUSH2 0x2DD4 DUP2 PUSH2 0x46A3 JUMP JUMPDEST DUP6 DUP2 MSTORE DUP7 DUP9 DUP3 ADD MSTORE DUP7 PUSH1 0x40 DUP3 ADD MSTORE TIMESTAMP PUSH1 0x60 DUP3 ADD MSTORE CALLER PUSH1 0x80 DUP3 ADD MSTORE DUP3 PUSH1 0xA0 DUP3 ADD MSTORE PUSH1 0x0 PUSH1 0xC0 DUP3 ADD MSTORE CALLER PUSH1 0x0 MSTORE PUSH1 0x10 DUP9 MSTORE PUSH2 0x2E11 DUP2 PUSH1 0x40 PUSH1 0x0 KECCAK256 PUSH2 0x582C JUMP JUMPDEST DUP3 PUSH1 0x0 MSTORE PUSH1 0x11 DUP9 MSTORE PUSH1 0x40 PUSH1 0x0 KECCAK256 PUSH2 0x582C JUMP JUMPDEST DUP1 PUSH1 0x0 MSTORE PUSH1 0xE DUP7 MSTORE PUSH1 0x40 PUSH1 0x0 KECCAK256 DUP1 SLOAD SWAP1 DUP7 DUP3 ADD DUP1 SWAP3 GT PUSH2 0x2EE4 JUMPI SSTORE PUSH1 0x40 MLOAD DUP6 DUP2 MSTORE DUP6 DUP8 DUP3 ADD MSTORE TIMESTAMP PUSH1 0x40 DUP3 ADD MSTORE DUP5 PUSH32 0x45280C7AC9CEC77EDD454E39E1641A3E22619146CF074A4239BEEE86A7C07EDC PUSH1 0x60 CALLER SWAP4 LOG4 DUP6 PUSH1 0x9 SLOAD ADD PUSH1 0x9 SSTORE PUSH2 0x2E88 DUP5 CALLVALUE PUSH2 0x581F JUMP JUMPDEST DUP1 PUSH2 0x2ED4 JUMPI JUMPDEST POP DUP3 PUSH1 0x0 MSTORE DUP5 MSTORE DUP5 PUSH1 0x40 PUSH1 0x0 KECCAK256 ADD SLOAD AND SWAP3 PUSH1 0x40 MLOAD SWAP3 DUP4 MSTORE TIMESTAMP SWAP1 DUP4 ADD MSTORE PUSH32 0xBE6177108F4DF43C5D7BE79CB219C969FC97915BBDB4B56D14D391DCDCC16060 PUSH1 0x40 CALLER SWAP4 LOG4 DUP1 SSTORE STOP JUMPDEST PUSH2 0x2EDE SWAP1 CALLER PUSH2 0x58E1 JUMP JUMPDEST DUP7 PUSH2 0x2E8E JUMP JUMPDEST PUSH4 0x4E487B71 PUSH1 0xE0 SHL PUSH1 0x0 MSTORE PUSH1 0x11 PUSH1 0x4 MSTORE PUSH1 0x24 PUSH1 0x0 REVERT JUMPDEST PUSH1 0xF DUP2 ADD DUP1 SLOAD PUSH1 0xFF NOT AND DUP4 OR SWAP1 SSTORE PUSH2 0x2DC2 JUMP JUMPDEST PUSH1 0x40 MLOAD PUSH3 0x461BCD PUSH1 0xE5 SHL DUP2 MSTORE PUSH1 0x4 DUP2 ADD DUP7 SWAP1 MSTORE PUSH1 0x12 PUSH1 0x24 DUP3 ADD MSTORE PUSH18 0x496E73756666696369656E742066756E6473 PUSH1 0x70 SHL PUSH1 0x44 DUP3 ADD MSTORE PUSH1 0x64 SWAP1 REVERT JUMPDEST PUSH1 0x40 MLOAD PUSH3 0x461BCD PUSH1 0xE5 SHL DUP2 MSTORE PUSH1 0x4 DUP2 ADD DUP6 SWAP1 MSTORE PUSH1 0x1B PUSH1 0x24 DUP3 ADD MSTORE PUSH32 0x43616E6E6F742062757920796F7572206F776E2070726F647563740000000000 PUSH1 0x44 DUP3 ADD MSTORE PUSH1 0x64 SWAP1 REVERT JUMPDEST PUSH1 0x40 MLOAD PUSH3 0x461BCD PUSH1 0xE5 SHL DUP2 MSTORE PUSH1 0x4 DUP2 ADD DUP6 SWAP1 MSTORE PUSH1 0x1A PUSH1 0x24 DUP3 ADD MSTORE PUSH32 0x50726F6475637420697320616C726561647920736F6C646F7574000000000000 PUSH1 0x44 DUP3 ADD MSTORE PUSH1 0x64 SWAP1 REVERT JUMPDEST PUSH1 0x40 MLOAD PUSH3 0x461BCD PUSH1 0xE5 SHL DUP2 MSTORE PUSH1 0x4 DUP2 ADD DUP6 SWAP1 MSTORE PUSH1 0x17 PUSH1 0x24 DUP3 ADD MSTORE PUSH32 0x50726F64756374206973206F7574206F662073746F636B000000000000000000 PUSH1 0x44 DUP3 ADD MSTORE PUSH1 0x64 SWAP1 REVERT JUMPDEST PUSH1 0x40 MLOAD PUSH3 0x461BCD PUSH1 0xE5 SHL DUP2 MSTORE PUSH1 0x4 DUP2 ADD DUP6 SWAP1 MSTORE PUSH1 0x16 PUSH1 0x24 DUP3 ADD MSTORE PUSH22 0x14D95B1B195C881A5CC81B9BDD081D995C9A599A5959 PUSH1 0x52 SHL PUSH1 0x44 DUP3 ADD MSTORE PUSH1 0x64 SWAP1 REVERT JUMPDEST PUSH1 0x40 MLOAD PUSH3 0x461BCD PUSH1 0xE5 SHL DUP2 MSTORE PUSH1 0x4 DUP2 ADD DUP4 SWAP1 MSTORE PUSH1 0x1F PUSH1 0x24 DUP3 ADD MSTORE PUSH32 0x5265656E7472616E637947756172643A207265656E7472616E742063616C6C00 PUSH1 0x44 DUP3 ADD MSTORE PUSH1 0x64 SWAP1 REVERT JUMPDEST CALLVALUE PUSH2 0x4DB JUMPI PUSH1 0x20 CALLDATASIZE PUSH1 0x3 NOT ADD SLT PUSH2 0x4DB JUMPI PUSH1 0x4 CALLDATALOAD PUSH1 0x0 SWAP1 DUP2 MSTORE PUSH1 0xC PUSH1 0x20 MSTORE PUSH1 0x40 SWAP1 KECCAK256 DUP1 SLOAD PUSH1 0x1 DUP3 ADD SLOAD PUSH1 0x1 PUSH1 0x1 PUSH1 0xA0 SHL SUB AND SWAP2 PUSH2 0x30D8 PUSH1 0x2 DUP3 ADD PUSH2 0x4894 JUMP JUMPDEST PUSH2 0x30E4 PUSH1 0x3 DUP4 ADD PUSH2 0x4894 JUMP JUMPDEST PUSH1 0x4 DUP4 ADD SLOAD PUSH1 0x5 DUP5 ADD SLOAD SWAP1 PUSH2 0x30FB PUSH1 0x6 DUP7 ADD PUSH2 0x4894 JUMP JUMPDEST PUSH2 0x3107 PUSH1 0x7 DUP8 ADD PUSH2 0x4894 JUMP JUMPDEST PUSH2 0x3113 PUSH1 0x9 DUP9 ADD PUSH2 0x4894 JUMP JUMPDEST SWAP1 PUSH2 0x3120 PUSH1 0xA DUP10 ADD PUSH2 0x4894 JUMP JUMPDEST SWAP3 PUSH1 0xB DUP10 ADD SLOAD SWAP5 PUSH1 0xC DUP11 ADD PUSH2 0x3134 SWAP1 PUSH2 0x4894 JUMP JUMPDEST SWAP7 PUSH2 0x3141 PUSH1 0xD DUP13 ADD PUSH2 0x4894 JUMP JUMPDEST SWAP9 PUSH1 0xE DUP13 ADD SLOAD SWAP12 PUSH1 0xF ADD SLOAD SWAP11 PUSH1 0x40 MLOAD SWAP15 DUP16 SWAP15 DUP16 SWAP1 DUP2 MSTORE PUSH1 0x20 ADD MSTORE DUP14 PUSH2 0x220 SWAP1 DUP2 PUSH1 0x40 DUP3 ADD MSTORE ADD PUSH2 0x3170 SWAP2 PUSH2 0x4382 JUMP JUMPDEST DUP14 DUP2 SUB PUSH1 0x60 DUP16 ADD MSTORE PUSH2 0x3181 SWAP2 PUSH2 0x4382 JUMP JUMPDEST SWAP2 PUSH1 0x80 DUP14 ADD MSTORE PUSH1 0xA0 DUP13 ADD MSTORE DUP11 DUP2 SUB PUSH1 0xC0 DUP13 ADD MSTORE PUSH2 0x319D SWAP2 PUSH2 0x4382 JUMP JUMPDEST DUP10 DUP2 SUB PUSH1 0xE0 DUP12 ADD MSTORE PUSH2 0x31AE SWAP2 PUSH2 0x4382 JUMP JUMPDEST DUP9 DUP2 SUB PUSH2 0x100 DUP11 ADD MSTORE PUSH2 0x31C0 SWAP2 PUSH2 0x4382 JUMP JUMPDEST DUP8 DUP2 SUB PUSH2 0x120 DUP10 ADD MSTORE PUSH2 0x31D2 SWAP2 PUSH2 0x4382 JUMP JUMPDEST SWAP1 PUSH2 0x140 DUP8 ADD MSTORE DUP6 DUP2 SUB PUSH2 0x160 DUP8 ADD MSTORE PUSH2 0x31EB SWAP2 PUSH2 0x4382 JUMP JUMPDEST DUP5 DUP2 SUB PUSH2 0x180 DUP7 ADD MSTORE PUSH2 0x31FD SWAP2 PUSH2 0x4382 JUMP JUMPDEST SWAP2 PUSH2 0x1A0 DUP5 ADD MSTORE PUSH1 0xFF DUP2 AND ISZERO ISZERO PUSH2 0x1C0 DUP5 ADD MSTORE DUP1 PUSH1 0x8 SHR PUSH1 0xFF AND ISZERO ISZERO PUSH2 0x1E0 DUP5 ADD MSTORE PUSH1 0x10 SHR PUSH1 0xFF AND ISZERO ISZERO PUSH2 0x200 DUP4 ADD MSTORE SUB SWAP1 RETURN JUMPDEST CALLVALUE PUSH2 0x4DB JUMPI PUSH1 0x0 CALLDATASIZE PUSH1 0x3 NOT ADD SLT PUSH2 0x4DB JUMPI PUSH2 0x324A PUSH2 0x4984 JUMP JUMPDEST PUSH1 0x0 DUP1 SLOAD PUSH1 0x1 PUSH1 0x1 PUSH1 0xA0 SHL SUB NOT DUP2 AND DUP3 SSTORE PUSH1 0x1 PUSH1 0x1 PUSH1 0xA0 SHL SUB AND PUSH32 0x8BE0079C531659141344CD1FD0A4F28419497F9722A3DAAFE3B4186F6B6457E0 DUP3 DUP1 LOG3 STOP JUMPDEST CALLVALUE PUSH2 0x4DB JUMPI PUSH1 0x20 CALLDATASIZE PUSH1 0x3 NOT ADD SLT PUSH2 0x4DB JUMPI PUSH1 0x1 PUSH1 0x1 PUSH1 0xA0 SHL SUB PUSH2 0x32AB PUSH2 0x465B JUMP JUMPDEST AND DUP1 ISZERO PUSH2 0x32CA JUMPI PUSH1 0x0 MSTORE PUSH1 0x5 PUSH1 0x20 MSTORE PUSH1 0x20 PUSH1 0x40 PUSH1 0x0 KECCAK256 SLOAD PUSH1 0x40 MLOAD SWAP1 DUP2 MSTORE RETURN JUMPDEST PUSH1 0x40 MLOAD PUSH3 0x461BCD PUSH1 0xE5 SHL DUP2 MSTORE PUSH1 0x20 PUSH1 0x4 DUP3 ADD MSTORE PUSH1 0x29 PUSH1 0x24 DUP3 ADD MSTORE PUSH32 0x4552433732313A2061646472657373207A65726F206973206E6F742061207661 PUSH1 0x44 DUP3 ADD MSTORE PUSH9 0x3634B21037BBB732B9 PUSH1 0xB9 SHL PUSH1 0x64 DUP3 ADD MSTORE PUSH1 0x84 SWAP1 REVERT JUMPDEST CALLVALUE PUSH2 0x4DB JUMPI PUSH1 0x20 CALLDATASIZE PUSH1 0x3 NOT ADD SLT PUSH2 0x4DB JUMPI PUSH1 0x20 PUSH2 0x333F PUSH1 0x4 CALLDATALOAD PUSH2 0x4A28 JUMP JUMPDEST PUSH1 0x40 MLOAD PUSH1 0x1 PUSH1 0x1 PUSH1 0xA0 SHL SUB SWAP1 SWAP2 AND DUP2 MSTORE RETURN JUMPDEST CALLVALUE PUSH2 0x4DB JUMPI PUSH1 0x20 CALLDATASIZE PUSH1 0x3 NOT ADD SLT PUSH2 0x4DB JUMPI PUSH1 0x1 PUSH1 0x1 PUSH1 0xA0 SHL SUB PUSH2 0x3372 PUSH2 0x465B JUMP JUMPDEST AND PUSH1 0x0 MSTORE PUSH1 0xE PUSH1 0x20 MSTORE PUSH1 0x20 PUSH1 0x40 PUSH1 0x0 KECCAK256 SLOAD PUSH1 0x40 MLOAD SWAP1 DUP2 MSTORE RETURN JUMPDEST CALLVALUE PUSH2 0x4DB JUMPI PUSH1 0x0 CALLDATASIZE PUSH1 0x3 NOT ADD SLT PUSH2 0x4DB JUMPI CALLER PUSH1 0x0 MSTORE PUSH1 0x12 PUSH1 0x20 MSTORE PUSH1 0xFF PUSH1 0x40 PUSH1 0x0 KECCAK256 SLOAD AND PUSH2 0x340E JUMPI CALLER PUSH1 0x0 MSTORE PUSH1 0x12 PUSH1 0x20 MSTORE PUSH1 0x40 PUSH1 0x0 KECCAK256 PUSH1 0xFF NOT SWAP1 PUSH1 0x1 DUP3 DUP3 SLOAD AND OR SWAP1 SSTORE PUSH1 0xF PUSH1 0x20 MSTORE PUSH1 0x1 PUSH1 0x40 PUSH1 0x0 KECCAK256 SWAP2 DUP3 SLOAD AND OR SWAP1 SSTORE PUSH1 0x40 MLOAD TIMESTAMP DUP2 MSTORE PUSH32 0xA1A1A78FF3033D5EE8393372052AEB2A16BBB347A29F3780370E9506C109E372 PUSH1 0x20 CALLER SWAP3 LOG2 STOP JUMPDEST PUSH1 0x40 MLOAD PUSH3 0x461BCD PUSH1 0xE5 SHL DUP2 MSTORE PUSH1 0x20 PUSH1 0x4 DUP3 ADD MSTORE PUSH1 0x12 PUSH1 0x24 DUP3 ADD MSTORE PUSH18 0x105B1C9958591E481C9959DA5CDD195C9959 PUSH1 0x72 SHL PUSH1 0x44 DUP3 ADD MSTORE PUSH1 0x64 SWAP1 REVERT JUMPDEST CALLVALUE PUSH2 0x4DB JUMPI PUSH1 0x20 CALLDATASIZE PUSH1 0x3 NOT ADD SLT PUSH2 0x4DB JUMPI PUSH1 0x1 PUSH1 0x1 PUSH1 0xA0 SHL SUB PUSH2 0x3469 PUSH2 0x465B JUMP JUMPDEST AND PUSH1 0x0 MSTORE PUSH1 0xF PUSH1 0x20 MSTORE PUSH2 0x240 PUSH1 0xFF PUSH1 0x40 PUSH1 0x0 KECCAK256 SLOAD AND PUSH1 0x40 MLOAD SWAP2 DUP3 SWAP2 DUP3 PUSH2 0x4847 JUMP JUMPDEST CALLVALUE PUSH2 0x4DB JUMPI PUSH2 0xBFC PUSH2 0x349B CALLDATASIZE PUSH2 0x4782 JUMP JUMPDEST SWAP1 PUSH1 0x40 MLOAD SWAP3 PUSH2 0x34A9 DUP5 PUSH2 0x46D9 JUMP JUMPDEST PUSH1 0x0 DUP5 MSTORE PUSH2 0x4AEB JUMP JUMPDEST CALLVALUE PUSH2 0x4DB JUMPI PUSH1 0x0 CALLDATASIZE PUSH1 0x3 NOT ADD SLT PUSH2 0x4DB JUMPI CALLER PUSH1 0x0 MSTORE PUSH1 0xF PUSH1 0x20 MSTORE PUSH1 0xFF PUSH1 0x40 PUSH1 0x0 KECCAK256 SLOAD AND PUSH1 0x4 DUP2 LT ISZERO PUSH2 0x722 JUMPI PUSH1 0x2 EQ DUP1 ISZERO PUSH2 0x35BE JUMPI JUMPDEST PUSH2 0x34F1 SWAP1 PUSH2 0x56BB JUMP JUMPDEST CALLER PUSH1 0x0 MSTORE PUSH1 0xE PUSH1 0x20 MSTORE PUSH1 0x40 PUSH1 0x0 KECCAK256 SLOAD DUP1 ISZERO PUSH2 0x3580 JUMPI PUSH1 0xB SLOAD SWAP1 DUP2 DUP2 MUL SWAP2 DUP2 DUP4 DIV SUB PUSH2 0x2EE4 JUMPI PUSH2 0x354B PUSH2 0x352A PUSH1 0x64 PUSH2 0x3551 SWAP5 DIV DUP1 SWAP4 PUSH2 0x581F JUMP JUMPDEST SWAP2 CALLER PUSH1 0x0 MSTORE PUSH1 0xE PUSH1 0x20 MSTORE PUSH1 0x0 PUSH1 0x40 DUP2 KECCAK256 SSTORE PUSH1 0x1 DUP1 PUSH1 0xA0 SHL SUB PUSH1 0x0 SLOAD AND PUSH2 0x58E1 JUMP JUMPDEST CALLER PUSH2 0x58E1 JUMP JUMPDEST PUSH1 0x40 MLOAD PUSH1 0x0 DUP2 MSTORE PUSH32 0x8AD64A0AC7700DD8425AB0499F107CB6E2CD1581D803C5B8C1C79DCB8190B1AF PUSH1 0x20 CALLER SWAP3 LOG2 STOP JUMPDEST PUSH1 0x40 MLOAD PUSH3 0x461BCD PUSH1 0xE5 SHL DUP2 MSTORE PUSH1 0x20 PUSH1 0x4 DUP3 ADD MSTORE PUSH1 0x16 PUSH1 0x24 DUP3 ADD MSTORE PUSH22 0x4E6F2062616C616E636520746F207769746864726177 PUSH1 0x50 SHL PUSH1 0x44 DUP3 ADD MSTORE PUSH1 0x64 SWAP1 REVERT JUMPDEST POP PUSH1 0x0 SLOAD PUSH1 0x1 PUSH1 0x1 PUSH1 0xA0 SHL SUB AND CALLER EQ PUSH2 0x34E8 JUMP JUMPDEST CALLVALUE PUSH2 0x4DB JUMPI PUSH1 0x20 DUP1 PUSH1 0x3 NOT CALLDATASIZE ADD SLT PUSH2 0x4DB JUMPI PUSH1 0x1 PUSH1 0x1 PUSH1 0xA0 SHL SUB SWAP1 DUP2 PUSH2 0x35F6 PUSH2 0x465B JUMP JUMPDEST AND PUSH1 0x0 MSTORE PUSH1 0x11 DUP2 MSTORE PUSH1 0x40 PUSH1 0x0 KECCAK256 DUP1 SLOAD SWAP1 PUSH2 0x360F DUP3 PUSH2 0x53BA JUMP JUMPDEST SWAP3 PUSH2 0x361D PUSH1 0x40 MLOAD SWAP5 DUP6 PUSH2 0x46F4 JUMP JUMPDEST DUP3 DUP5 MSTORE PUSH1 0x0 SWAP2 DUP3 MSTORE DUP1 DUP3 KECCAK256 DUP2 DUP6 ADD JUMPDEST DUP5 DUP5 LT PUSH2 0x3641 JUMPI PUSH1 0x40 MLOAD DUP1 PUSH2 0x240 DUP9 DUP3 PUSH2 0x47B7 JUMP JUMPDEST PUSH1 0x6 DUP4 PUSH1 0x1 SWAP3 PUSH1 0x40 MLOAD PUSH2 0x3653 DUP2 PUSH2 0x46A3 JUMP JUMPDEST DUP6 SLOAD DUP2 MSTORE DUP5 DUP7 ADD SLOAD DUP4 DUP3 ADD MSTORE PUSH1 0x2 DUP7 ADD SLOAD PUSH1 0x40 DUP3 ADD MSTORE PUSH1 0x3 DUP7 ADD SLOAD PUSH1 0x60 DUP3 ADD MSTORE DUP11 PUSH1 0x4 DUP8 ADD SLOAD AND PUSH1 0x80 DUP3 ADD MSTORE PUSH1 0xFF PUSH1 0x5 DUP8 ADD SLOAD PUSH1 0xA0 DUP14 DUP3 AND DUP2 DUP6 ADD MSTORE SHR AND ISZERO ISZERO PUSH1 0xC0 DUP3 ADD MSTORE DUP2 MSTORE ADD SWAP3 ADD SWAP4 ADD SWAP3 SWAP1 PUSH2 0x362C JUMP JUMPDEST CALLVALUE PUSH2 0x4DB JUMPI PUSH1 0x40 CALLDATASIZE PUSH1 0x3 NOT ADD SLT PUSH2 0x4DB JUMPI PUSH1 0x24 DUP1 CALLDATALOAD PUSH1 0x4 CALLDATALOAD PUSH1 0x0 DUP1 JUMPDEST DUP3 PUSH1 0x0 MSTORE PUSH1 0xC PUSH1 0x20 SWAP1 DUP1 DUP3 MSTORE PUSH1 0x10 SWAP2 DUP3 PUSH1 0x40 PUSH1 0x0 KECCAK256 ADD DUP1 SLOAD DUP6 LT ISZERO PUSH2 0x38BE JUMPI PUSH2 0x36EC DUP6 DUP10 SWAP3 PUSH2 0x5740 JUMP JUMPDEST POP SLOAD EQ PUSH2 0x3704 JUMPI POP POP POP PUSH2 0x36FF SWAP1 PUSH2 0x575C JUMP JUMPDEST PUSH2 0x36C2 JUMP JUMPDEST SWAP2 SWAP4 POP SWAP2 SWAP4 SWAP5 PUSH1 0x0 MSTORE PUSH1 0x14 DUP2 MSTORE PUSH1 0xFF SWAP5 DUP6 PUSH1 0x40 PUSH1 0x0 KECCAK256 SLOAD AND ISZERO PUSH2 0x3882 JUMPI DUP1 PUSH1 0x0 MSTORE DUP3 DUP3 MSTORE PUSH2 0x3738 DUP6 DUP6 PUSH1 0x40 PUSH1 0x0 KECCAK256 ADD PUSH2 0x5740 JUMP JUMPDEST POP PUSH1 0x1 SWAP1 DUP2 ADD SLOAD SWAP1 SWAP7 SWAP1 CALLER PUSH1 0x1 PUSH1 0x1 PUSH1 0xA0 SHL SUB SWAP2 DUP3 AND EQ SWAP1 DUP2 ISZERO PUSH2 0x3874 JUMPI JUMPDEST POP ISZERO PUSH2 0x381F JUMPI DUP2 PUSH1 0x0 MSTORE DUP4 DUP4 MSTORE PUSH1 0x4 PUSH2 0x3776 DUP8 DUP8 PUSH1 0x40 PUSH1 0x0 KECCAK256 ADD PUSH2 0x5740 JUMP JUMPDEST POP ADD SLOAD AND PUSH2 0x37E2 JUMPI SWAP2 PUSH2 0x3797 SWAP4 SWAP2 PUSH1 0x4 SWAP6 SWAP4 PUSH1 0x0 MSTORE MSTORE PUSH1 0x40 PUSH1 0x0 KECCAK256 ADD PUSH2 0x5740 JUMP JUMPDEST POP ADD DUP1 SLOAD PUSH1 0xFF NOT AND DUP3 OR SWAP1 SSTORE JUMPDEST ISZERO PUSH2 0x37AB JUMPI STOP JUMPDEST PUSH1 0x64 SWAP1 PUSH1 0x10 PUSH1 0x40 MLOAD SWAP2 PUSH3 0x461BCD PUSH1 0xE5 SHL DUP4 MSTORE PUSH1 0x20 PUSH1 0x4 DUP5 ADD MSTORE DUP3 ADD MSTORE PUSH16 0x14995D9A595DC81B9BDD08199BDD5B99 PUSH1 0x82 SHL PUSH1 0x44 DUP3 ADD MSTORE REVERT JUMPDEST PUSH1 0x40 MLOAD PUSH3 0x461BCD PUSH1 0xE5 SHL DUP2 MSTORE PUSH1 0x4 DUP2 ADD DUP4 SWAP1 MSTORE PUSH1 0x16 DUP2 DUP10 ADD MSTORE PUSH22 0x14995D9A595DC8185B1C9958591E4819195B195D1959 PUSH1 0x52 SHL PUSH1 0x44 DUP3 ADD MSTORE PUSH1 0x64 SWAP1 REVERT JUMPDEST PUSH1 0x40 MLOAD PUSH3 0x461BCD PUSH1 0xE5 SHL DUP2 MSTORE PUSH1 0x4 DUP2 ADD DUP5 SWAP1 MSTORE PUSH1 0x28 DUP2 DUP11 ADD MSTORE PUSH32 0x4F6E6C79207265766965776572206F72206F776E65722063616E2064656C6574 PUSH1 0x44 DUP3 ADD MSTORE PUSH8 0x6520726576696577 PUSH1 0xC0 SHL PUSH1 0x64 DUP3 ADD MSTORE PUSH1 0x84 SWAP1 REVERT JUMPDEST PUSH1 0x0 SLOAD AND CALLER EQ SWAP1 POP DUP10 PUSH2 0x3757 JUMP JUMPDEST PUSH1 0x40 MLOAD PUSH3 0x461BCD PUSH1 0xE5 SHL DUP2 MSTORE PUSH1 0x4 DUP2 ADD DUP4 SWAP1 MSTORE PUSH1 0x15 DUP2 DUP10 ADD MSTORE PUSH21 0x14995D9A595DC8191BD95CC81B9BDD08195E1A5CDD PUSH1 0x5A SHL PUSH1 0x44 DUP3 ADD MSTORE PUSH1 0x64 SWAP1 REVERT JUMPDEST POP POP POP POP POP SWAP2 POP POP PUSH2 0x37A4 JUMP JUMPDEST CALLVALUE PUSH2 0x4DB JUMPI PUSH2 0xBFC PUSH2 0x38DC CALLDATASIZE PUSH2 0x4782 JUMP JUMPDEST SWAP2 PUSH2 0x38EF PUSH2 0x38EA DUP5 CALLER PUSH2 0x4B86 JUMP JUMPDEST PUSH2 0x4A89 JUMP JUMPDEST PUSH2 0x4C4E JUMP JUMPDEST CALLVALUE PUSH2 0x4DB JUMPI PUSH1 0x60 CALLDATASIZE PUSH1 0x3 NOT ADD SLT PUSH2 0x4DB JUMPI PUSH1 0x24 DUP1 CALLDATALOAD PUSH1 0x4 CALLDATALOAD PUSH1 0x44 CALLDATALOAD PUSH1 0x1 PUSH1 0x1 PUSH1 0x40 SHL SUB DUP2 GT PUSH2 0x4DB JUMPI PUSH2 0x392B SWAP1 CALLDATASIZE SWAP1 PUSH1 0x4 ADD PUSH2 0x4767 JUMP JUMPDEST SWAP1 DUP1 PUSH1 0x0 MSTORE PUSH1 0x20 SWAP2 PUSH1 0xC DUP4 MSTORE PUSH1 0x1 DUP1 PUSH1 0xA0 SHL SUB PUSH1 0x1 PUSH1 0x40 PUSH1 0x0 KECCAK256 ADD SLOAD AND CALLER EQ PUSH2 0x3A84 JUMPI DUP4 ISZERO ISZERO DUP1 PUSH2 0x3A79 JUMPI JUMPDEST ISZERO PUSH2 0x3A35 JUMPI DUP1 MLOAD ISZERO PUSH2 0x39F1 JUMPI SWAP1 PUSH1 0xC SWAP3 SWAP2 PUSH1 0x1 PUSH1 0xA SLOAD ADD SWAP1 DUP2 PUSH1 0xA SSTORE PUSH2 0x397B PUSH2 0x5715 JUMP JUMPDEST SWAP6 DUP3 DUP8 MSTORE CALLER DUP6 DUP9 ADD MSTORE PUSH1 0x40 DUP8 ADD MSTORE PUSH1 0x60 DUP7 ADD MSTORE PUSH1 0x0 MSTORE PUSH1 0x14 DUP3 MSTORE PUSH1 0x40 PUSH1 0x0 KECCAK256 PUSH1 0x1 PUSH1 0xFF NOT DUP3 SLOAD AND OR SWAP1 SSTORE PUSH1 0x0 MSTORE MSTORE PUSH1 0x10 PUSH1 0x40 PUSH1 0x0 KECCAK256 ADD DUP1 SLOAD PUSH1 0x1 PUSH1 0x40 SHL DUP2 LT ISZERO PUSH2 0x1579 JUMPI PUSH2 0x39CE SWAP2 PUSH1 0x1 DUP3 ADD DUP2 SSTORE PUSH2 0x5740 JUMP JUMPDEST PUSH2 0x39DC JUMPI PUSH2 0xBFC SWAP3 POP PUSH2 0x54BF JUMP JUMPDEST DUP3 PUSH4 0x4E487B71 PUSH1 0xE0 SHL PUSH1 0x0 MSTORE PUSH1 0x0 PUSH1 0x4 MSTORE PUSH1 0x0 REVERT JUMPDEST PUSH1 0x40 MLOAD PUSH3 0x461BCD PUSH1 0xE5 SHL DUP2 MSTORE PUSH1 0x4 DUP2 ADD DUP5 SWAP1 MSTORE PUSH1 0x17 DUP2 DUP8 ADD MSTORE PUSH32 0x436F6D6D656E742063616E6E6F7420626520656D707479000000000000000000 PUSH1 0x44 DUP3 ADD MSTORE PUSH1 0x64 SWAP1 REVERT JUMPDEST PUSH1 0x40 MLOAD PUSH3 0x461BCD PUSH1 0xE5 SHL DUP2 MSTORE PUSH1 0x4 DUP2 ADD DUP5 SWAP1 MSTORE PUSH1 0x1E DUP2 DUP8 ADD MSTORE PUSH32 0x526174696E67206D757374206265206265747765656E203120616E6420350000 PUSH1 0x44 DUP3 ADD MSTORE PUSH1 0x64 SWAP1 REVERT JUMPDEST POP PUSH1 0x5 DUP5 GT ISZERO PUSH2 0x3957 JUMP JUMPDEST PUSH1 0x40 MLOAD PUSH3 0x461BCD PUSH1 0xE5 SHL DUP2 MSTORE PUSH1 0x4 DUP2 ADD DUP5 SWAP1 MSTORE PUSH1 0x26 DUP2 DUP8 ADD MSTORE PUSH32 0x53656C6C65722063616E6E6F7420726576696577207468656972206F776E2070 PUSH1 0x44 DUP3 ADD MSTORE PUSH6 0x1C9BD91D58DD PUSH1 0xD2 SHL PUSH1 0x64 DUP3 ADD MSTORE PUSH1 0x84 SWAP1 REVERT JUMPDEST CALLVALUE PUSH2 0x4DB JUMPI PUSH1 0x40 CALLDATASIZE PUSH1 0x3 NOT ADD SLT PUSH2 0x4DB JUMPI PUSH1 0x4 CALLDATALOAD PUSH2 0x3AF3 PUSH2 0x4671 JUMP JUMPDEST SWAP1 CALLER PUSH1 0x0 MSTORE PUSH1 0x20 SWAP2 PUSH1 0xF DUP4 MSTORE PUSH1 0xFF SWAP2 DUP3 PUSH1 0x40 PUSH1 0x0 KECCAK256 SLOAD AND PUSH1 0x4 DUP2 LT ISZERO PUSH2 0x722 JUMPI PUSH1 0x2 EQ DUP1 ISZERO PUSH2 0x3DFC JUMPI JUMPDEST PUSH2 0x3B29 SWAP1 SWAP5 SWAP4 SWAP5 PUSH2 0x56BB JUMP JUMPDEST PUSH1 0x1 PUSH1 0x1 PUSH1 0xA0 SHL SUB SWAP2 DUP3 AND SWAP4 PUSH1 0x0 SWAP4 SWAP1 DUP5 JUMPDEST DUP7 PUSH1 0x0 MSTORE PUSH1 0x10 DUP1 DUP5 MSTORE PUSH1 0x40 PUSH1 0x0 KECCAK256 DUP1 SLOAD DUP4 LT ISZERO PUSH2 0x3DF0 JUMPI PUSH2 0x3B5D DUP4 DUP8 SWAP3 PUSH2 0x493A JUMP JUMPDEST POP SLOAD EQ PUSH2 0x3B73 JUMPI POP PUSH2 0x3B6E SWAP1 PUSH2 0x575C JUMP JUMPDEST PUSH2 0x3B3B JUMP JUMPDEST SWAP1 SWAP2 SWAP3 SWAP4 SWAP5 SWAP6 POP DUP7 PUSH1 0x0 MSTORE DUP1 DUP5 MSTORE PUSH2 0x3B8F DUP3 PUSH1 0x40 PUSH1 0x0 KECCAK256 PUSH2 0x493A JUMP JUMPDEST POP SWAP3 PUSH1 0x5 DUP1 SWAP5 ADD SLOAD PUSH1 0xA0 SHR AND PUSH2 0x3DAB JUMPI DUP7 PUSH1 0x0 MSTORE DUP1 DUP5 MSTORE PUSH2 0x3BB4 DUP3 PUSH1 0x40 PUSH1 0x0 KECCAK256 PUSH2 0x493A JUMP JUMPDEST POP DUP4 ADD SLOAD DUP7 AND CALLER EQ DUP1 ISZERO PUSH2 0x3D9E JUMPI JUMPDEST ISZERO PUSH2 0x3D46 JUMPI SWAP1 PUSH2 0x3BDD SWAP2 DUP8 PUSH1 0x0 MSTORE DUP5 MSTORE PUSH1 0x40 PUSH1 0x0 KECCAK256 PUSH2 0x493A JUMP JUMPDEST POP ADD DUP1 SLOAD PUSH1 0xFF PUSH1 0xA0 SHL NOT AND PUSH1 0x1 PUSH1 0xA0 SHL OR SWAP1 SSTORE PUSH1 0x1 JUMPDEST ISZERO PUSH2 0x3D0D JUMPI DUP2 PUSH1 0x0 MSTORE PUSH1 0xC DUP2 MSTORE PUSH1 0x1 SWAP3 DUP1 DUP5 PUSH1 0x40 PUSH1 0x0 KECCAK256 ADD SLOAD AND DUP5 PUSH1 0x0 SWAP1 JUMPDEST PUSH2 0x3C46 JUMPI JUMPDEST POP POP POP PUSH32 0xF9DC8543B583E01F592678422369B2777E3649761F5808AE432CB1C24CA9438C SWAP2 SWAP3 PUSH1 0x40 MLOAD SWAP1 DUP2 MSTORE LOG3 STOP JUMPDEST DUP2 PUSH1 0x0 MSTORE PUSH1 0x11 DUP1 DUP6 MSTORE PUSH1 0x40 PUSH1 0x0 KECCAK256 DUP1 SLOAD DUP4 LT ISZERO PUSH2 0x3D06 JUMPI PUSH2 0x3C68 DUP4 DUP9 SWAP3 PUSH2 0x493A JUMP JUMPDEST POP SLOAD EQ DUP1 PUSH2 0x3CE2 JUMPI JUMPDEST PUSH2 0x3C8A JUMPI POP SWAP1 PUSH2 0x3C82 DUP7 SWAP4 SWAP3 PUSH2 0x575C JUMP JUMPDEST SWAP1 SWAP2 SWAP3 PUSH2 0x3C12 JUMP JUMPDEST PUSH32 0xF9DC8543B583E01F592678422369B2777E3649761F5808AE432CB1C24CA9438C SWAP6 SWAP7 SWAP4 POP SWAP1 PUSH2 0x3CC6 SWAP2 PUSH1 0x5 SWAP4 PUSH1 0x0 MSTORE DUP6 MSTORE PUSH1 0x40 PUSH1 0x0 KECCAK256 PUSH2 0x493A JUMP JUMPDEST POP ADD DUP1 SLOAD PUSH1 0xFF PUSH1 0xA0 SHL NOT AND PUSH1 0x1 PUSH1 0xA0 SHL OR SWAP1 SSTORE SWAP3 SWAP2 DUP6 DUP1 PUSH2 0x3C17 JUMP JUMPDEST POP DUP3 PUSH1 0x0 MSTORE DUP1 DUP6 MSTORE DUP8 DUP5 PUSH1 0x4 PUSH2 0x3CFC DUP6 PUSH1 0x40 PUSH1 0x0 KECCAK256 PUSH2 0x493A JUMP JUMPDEST POP ADD SLOAD AND EQ PUSH2 0x3C71 JUMP JUMPDEST POP POP PUSH2 0x3C17 JUMP JUMPDEST PUSH1 0x64 SWAP1 PUSH1 0x40 MLOAD SWAP1 PUSH3 0x461BCD PUSH1 0xE5 SHL DUP3 MSTORE PUSH1 0x4 DUP3 ADD MSTORE PUSH1 0x12 PUSH1 0x24 DUP3 ADD MSTORE PUSH18 0x141D5C98DA185CD9481B9BDD08199BDD5B99 PUSH1 0x72 SHL PUSH1 0x44 DUP3 ADD MSTORE REVERT JUMPDEST PUSH1 0x40 MLOAD PUSH3 0x461BCD PUSH1 0xE5 SHL DUP2 MSTORE PUSH1 0x4 DUP2 ADD DUP6 SWAP1 MSTORE PUSH1 0x2A PUSH1 0x24 DUP3 ADD MSTORE PUSH32 0x4F6E6C792073656C6C6572206F72206F776E65722063616E206D61726B206173 PUSH1 0x44 DUP3 ADD MSTORE PUSH10 0x819195B1A5D995C9959 PUSH1 0xB2 SHL PUSH1 0x64 DUP3 ADD MSTORE PUSH1 0x84 SWAP1 REVERT JUMPDEST POP CALLER DUP7 PUSH1 0x0 SLOAD AND EQ PUSH2 0x3BC3 JUMP JUMPDEST PUSH1 0x40 MLOAD PUSH3 0x461BCD PUSH1 0xE5 SHL DUP2 MSTORE PUSH1 0x4 DUP2 ADD DUP6 SWAP1 MSTORE PUSH1 0x1B PUSH1 0x24 DUP3 ADD MSTORE PUSH32 0x416C7265616479206D61726B65642061732064656C6976657265640000000000 PUSH1 0x44 DUP3 ADD MSTORE PUSH1 0x64 SWAP1 REVERT JUMPDEST POP POP POP POP SWAP1 SWAP2 SWAP3 PUSH2 0x3BF3 JUMP JUMPDEST POP PUSH1 0x0 SLOAD PUSH1 0x1 PUSH1 0x1 PUSH1 0xA0 SHL SUB AND CALLER EQ PUSH2 0x3B1D JUMP JUMPDEST CALLVALUE PUSH2 0x4DB JUMPI PUSH1 0x40 CALLDATASIZE PUSH1 0x3 NOT ADD SLT PUSH2 0x4DB JUMPI PUSH2 0x3E29 PUSH2 0x465B JUMP JUMPDEST PUSH1 0x24 CALLDATALOAD SWAP1 PUSH1 0x1 PUSH1 0x1 PUSH1 0xA0 SHL SUB DUP1 DUP1 PUSH2 0x3E40 DUP6 PUSH2 0x4A28 JUMP JUMPDEST AND SWAP3 AND SWAP2 DUP1 DUP4 EQ PUSH2 0x3F3B JUMPI DUP1 CALLER EQ SWAP1 DUP2 ISZERO PUSH2 0x3F16 JUMPI JUMPDEST POP ISZERO PUSH2 0x3EAB JUMPI PUSH1 0x0 DUP4 DUP2 MSTORE PUSH1 0x6 PUSH1 0x20 MSTORE PUSH1 0x40 SWAP1 KECCAK256 DUP1 SLOAD PUSH1 0x1 PUSH1 0x1 PUSH1 0xA0 SHL SUB NOT AND DUP4 OR SWAP1 SSTORE PUSH2 0x3E83 DUP4 PUSH2 0x4A28 JUMP JUMPDEST AND PUSH32 0x8C5BE1E5EBEC7D5BD14F71427D1E84F3DD0314C0F7B2291E5B200AC8C7C3B925 PUSH1 0x0 DUP1 LOG4 STOP JUMPDEST PUSH1 0x40 MLOAD PUSH3 0x461BCD PUSH1 0xE5 SHL DUP2 MSTORE PUSH1 0x20 PUSH1 0x4 DUP3 ADD MSTORE PUSH1 0x3D PUSH1 0x24 DUP3 ADD MSTORE PUSH32 0x4552433732313A20617070726F76652063616C6C6572206973206E6F7420746F PUSH1 0x44 DUP3 ADD MSTORE PUSH32 0x6B656E206F776E6572206F7220617070726F76656420666F7220616C6C000000 PUSH1 0x64 DUP3 ADD MSTORE PUSH1 0x84 SWAP1 REVERT JUMPDEST SWAP1 POP PUSH1 0x0 MSTORE PUSH1 0x7 PUSH1 0x20 MSTORE PUSH1 0x40 PUSH1 0x0 KECCAK256 CALLER PUSH1 0x0 MSTORE PUSH1 0x20 MSTORE PUSH1 0xFF PUSH1 0x40 PUSH1 0x0 KECCAK256 SLOAD AND DUP5 PUSH2 0x3E56 JUMP JUMPDEST PUSH1 0x40 MLOAD PUSH3 0x461BCD PUSH1 0xE5 SHL DUP2 MSTORE PUSH1 0x20 PUSH1 0x4 DUP3 ADD MSTORE PUSH1 0x21 PUSH1 0x24 DUP3 ADD MSTORE PUSH32 0x4552433732313A20617070726F76616C20746F2063757272656E74206F776E65 PUSH1 0x44 DUP3 ADD MSTORE PUSH1 0x39 PUSH1 0xF9 SHL PUSH1 0x64 DUP3 ADD MSTORE PUSH1 0x84 SWAP1 REVERT JUMPDEST CALLVALUE PUSH2 0x4DB JUMPI PUSH1 0x20 CALLDATASIZE PUSH1 0x3 NOT ADD SLT PUSH2 0x4DB JUMPI PUSH1 0x20 PUSH2 0x333F PUSH1 0x4 CALLDATALOAD PUSH2 0x4A4B JUMP JUMPDEST CALLVALUE PUSH2 0x4DB JUMPI PUSH1 0x0 CALLDATASIZE PUSH1 0x3 NOT ADD SLT PUSH2 0x4DB JUMPI PUSH1 0x40 MLOAD PUSH1 0x0 PUSH1 0x2 SLOAD PUSH2 0x3FCA DUP2 PUSH2 0x485A JUMP JUMPDEST DUP1 DUP5 MSTORE SWAP1 PUSH1 0x1 SWAP1 DUP2 DUP2 AND SWAP1 DUP2 ISZERO PUSH2 0x2C4E JUMPI POP PUSH1 0x1 EQ PUSH2 0x3FF3 JUMPI PUSH2 0x240 DUP5 PUSH2 0x2BDF DUP2 DUP7 SUB DUP3 PUSH2 0x46F4 JUMP JUMPDEST PUSH1 0x2 PUSH1 0x0 SWAP1 DUP2 MSTORE SWAP3 POP PUSH32 0x405787FA12A823E0F2B7631CC41B3BA8828B3321CA811111FA75CD3AA3BB5ACE JUMPDEST DUP3 DUP5 LT PUSH2 0x4036 JUMPI POP POP POP DUP2 ADD PUSH1 0x20 ADD PUSH2 0x2BDF DUP3 PUSH2 0x2BCF JUMP JUMPDEST DUP1 SLOAD PUSH1 0x20 DUP6 DUP8 ADD DUP2 ADD SWAP2 SWAP1 SWAP2 MSTORE SWAP1 SWAP4 ADD SWAP3 DUP2 ADD PUSH2 0x401E JUMP JUMPDEST CALLVALUE PUSH2 0x4DB JUMPI PUSH1 0x0 CALLDATASIZE PUSH1 0x3 NOT ADD SLT PUSH2 0x4DB JUMPI PUSH1 0x8 SLOAD PUSH1 0x0 PUSH1 0x1 JUMPDEST DUP3 DUP2 GT ISZERO PUSH2 0x42A6 JUMPI POP PUSH2 0x4079 SWAP1 PUSH2 0x57CF JUMP JUMPDEST SWAP1 PUSH1 0x1 PUSH1 0x0 JUMPDEST DUP3 DUP3 GT ISZERO PUSH2 0x4095 JUMPI PUSH1 0x40 MLOAD DUP1 PUSH2 0x240 DUP7 DUP3 PUSH2 0x45F9 JUMP JUMPDEST DUP2 PUSH1 0x0 MSTORE PUSH1 0xC PUSH1 0x20 MSTORE PUSH1 0x40 PUSH1 0x0 KECCAK256 PUSH1 0xF DUP2 ADD SLOAD SWAP1 PUSH1 0xFF DUP3 PUSH1 0x10 SHR AND ISZERO PUSH2 0x40C8 JUMPI JUMPDEST POP POP SWAP1 PUSH2 0x40C2 SWAP1 PUSH2 0x575C JUMP JUMPDEST SWAP1 PUSH2 0x407F JUMP JUMPDEST PUSH1 0x40 MLOAD SWAP2 PUSH2 0x40D5 DUP4 PUSH2 0x4687 JUMP JUMPDEST DUP2 SLOAD DUP4 MSTORE PUSH1 0x1 DUP3 ADD SLOAD PUSH1 0x1 PUSH1 0x1 PUSH1 0xA0 SHL SUB AND PUSH1 0x20 DUP5 ADD MSTORE PUSH2 0x40F8 PUSH1 0x2 DUP4 ADD PUSH2 0x4894 JUMP JUMPDEST PUSH1 0x40 DUP5 ADD MSTORE PUSH2 0x4109 PUSH1 0x3 DUP4 ADD PUSH2 0x4894 JUMP JUMPDEST PUSH1 0x60 DUP5 ADD MSTORE PUSH1 0x4 DUP3 ADD SLOAD PUSH1 0x80 DUP5 ADD MSTORE PUSH1 0x5 DUP3 ADD SLOAD PUSH1 0xA0 DUP5 ADD MSTORE PUSH2 0x412E PUSH1 0x6 DUP4 ADD PUSH2 0x4894 JUMP JUMPDEST PUSH1 0xC0 DUP5 ADD MSTORE PUSH2 0x413F PUSH1 0x7 DUP4 ADD PUSH2 0x4894 JUMP JUMPDEST PUSH1 0xE0 DUP5 ADD MSTORE PUSH1 0x8 DUP3 ADD SLOAD PUSH2 0x4152 DUP2 PUSH2 0x53BA JUMP JUMPDEST SWAP1 PUSH2 0x4160 PUSH1 0x40 MLOAD SWAP3 DUP4 PUSH2 0x46F4 JUMP JUMPDEST DUP1 DUP3 MSTORE PUSH1 0x20 DUP3 ADD PUSH1 0x8 DUP6 ADD PUSH1 0x0 MSTORE PUSH1 0x20 PUSH1 0x0 KECCAK256 SWAP1 PUSH1 0x0 SWAP1 JUMPDEST DUP4 DUP3 LT PUSH2 0x4289 JUMPI POP POP POP POP PUSH1 0x10 SWAP3 SWAP2 PUSH1 0xFF SWAP2 PUSH2 0x100 DUP7 ADD MSTORE PUSH2 0x419C PUSH1 0x9 DUP5 ADD PUSH2 0x4894 JUMP JUMPDEST PUSH2 0x120 DUP7 ADD MSTORE PUSH2 0x41AE PUSH1 0xA DUP5 ADD PUSH2 0x4894 JUMP JUMPDEST PUSH2 0x140 DUP7 ADD MSTORE PUSH1 0xB DUP4 ADD SLOAD PUSH2 0x160 DUP7 ADD MSTORE PUSH2 0x41CB PUSH1 0xC DUP5 ADD PUSH2 0x4894 JUMP JUMPDEST PUSH2 0x180 DUP7 ADD MSTORE PUSH2 0x41DD PUSH1 0xD DUP5 ADD PUSH2 0x4894 JUMP JUMPDEST PUSH2 0x1A0 DUP7 ADD MSTORE PUSH1 0xE DUP4 ADD SLOAD PUSH2 0x1C0 DUP7 ADD MSTORE DUP2 DUP2 AND ISZERO ISZERO PUSH2 0x1E0 DUP7 ADD MSTORE DUP2 DUP2 PUSH1 0x8 SHR AND ISZERO ISZERO PUSH2 0x200 DUP7 ADD MSTORE DUP4 SHR AND ISZERO ISZERO PUSH2 0x220 DUP5 ADD MSTORE ADD DUP1 SLOAD SWAP1 PUSH2 0x421F DUP3 PUSH2 0x53BA JUMP JUMPDEST SWAP2 PUSH2 0x422D PUSH1 0x40 MLOAD SWAP4 DUP5 PUSH2 0x46F4 JUMP JUMPDEST DUP1 DUP4 MSTORE PUSH1 0x20 DUP4 ADD SWAP2 PUSH1 0x0 MSTORE PUSH1 0x20 PUSH1 0x0 KECCAK256 PUSH1 0x0 SWAP3 JUMPDEST DUP3 DUP5 LT PUSH2 0x426B JUMPI POP POP POP POP PUSH2 0x240 DUP3 ADD MSTORE PUSH2 0x40C2 SWAP2 PUSH2 0x4264 SWAP2 PUSH2 0x413 DUP3 DUP9 PUSH2 0x576B JUMP JUMPDEST SWAP1 DUP6 PUSH2 0x40B6 JUMP JUMPDEST PUSH1 0x5 PUSH1 0x20 PUSH1 0x1 SWAP3 PUSH2 0x427B DUP6 PUSH2 0x577F JUMP JUMPDEST DUP2 MSTORE ADD SWAP3 ADD SWAP4 ADD SWAP3 SWAP1 PUSH2 0x4241 JUMP JUMPDEST PUSH1 0x1 PUSH1 0x20 DUP2 SWAP3 PUSH2 0x4298 DUP7 PUSH2 0x4894 JUMP JUMPDEST DUP2 MSTORE ADD SWAP4 ADD SWAP2 ADD SWAP1 SWAP2 PUSH2 0x4178 JUMP JUMPDEST DUP1 PUSH1 0x0 MSTORE PUSH1 0xC PUSH1 0x20 MSTORE PUSH1 0xFF PUSH1 0xF PUSH1 0x40 PUSH1 0x0 KECCAK256 ADD SLOAD PUSH1 0x10 SHR AND ISZERO PUSH2 0x42D2 JUMPI JUMPDEST PUSH2 0x42CD SWAP1 PUSH2 0x575C JUMP JUMPDEST PUSH2 0x4067 JUMP JUMPDEST SWAP1 PUSH2 0x42DF PUSH2 0x42CD SWAP2 PUSH2 0x575C JUMP JUMPDEST SWAP2 SWAP1 POP PUSH2 0x42C4 JUMP JUMPDEST CALLVALUE PUSH2 0x4DB JUMPI PUSH1 0x20 CALLDATASIZE PUSH1 0x3 NOT ADD SLT PUSH2 0x4DB JUMPI PUSH1 0x4 CALLDATALOAD PUSH4 0xFFFFFFFF PUSH1 0xE0 SHL DUP2 AND DUP1 SWAP2 SUB PUSH2 0x4DB JUMPI PUSH1 0x20 SWAP1 PUSH4 0x80AC58CD PUSH1 0xE0 SHL DUP2 EQ SWAP1 DUP2 ISZERO PUSH2 0x4344 JUMPI JUMPDEST DUP2 ISZERO PUSH2 0x4333 JUMPI JUMPDEST POP PUSH1 0x40 MLOAD SWAP1 ISZERO ISZERO DUP2 MSTORE RETURN JUMPDEST PUSH4 0x1FFC9A7 PUSH1 0xE0 SHL EQ SWAP1 POP DUP3 PUSH2 0x4328 JUMP JUMPDEST PUSH4 0x5B5E139F PUSH1 0xE0 SHL DUP2 EQ SWAP2 POP PUSH2 0x4321 JUMP JUMPDEST CALLVALUE PUSH2 0x4DB JUMPI PUSH1 0x20 CALLDATASIZE PUSH1 0x3 NOT ADD SLT PUSH2 0x4DB JUMPI PUSH1 0x20 SWAP1 PUSH1 0x4 CALLDATALOAD PUSH1 0x0 MSTORE PUSH1 0x14 DUP3 MSTORE PUSH1 0xFF PUSH1 0x40 PUSH1 0x0 KECCAK256 SLOAD AND ISZERO ISZERO DUP2 MSTORE RETURN JUMPDEST SWAP2 SWAP1 DUP3 MLOAD SWAP3 DUP4 DUP3 MSTORE PUSH1 0x0 JUMPDEST DUP5 DUP2 LT PUSH2 0x43AE JUMPI POP POP DUP3 PUSH1 0x0 PUSH1 0x20 DUP1 SWAP5 SWAP6 DUP5 ADD ADD MSTORE PUSH1 0x1F DUP1 NOT SWAP2 ADD AND ADD ADD SWAP1 JUMP JUMPDEST PUSH1 0x20 DUP2 DUP4 ADD DUP2 ADD MLOAD DUP5 DUP4 ADD DUP3 ADD MSTORE ADD PUSH2 0x438D JUMP JUMPDEST SWAP1 DUP1 DUP3 MLOAD SWAP1 DUP2 DUP2 MSTORE PUSH1 0x20 DUP1 SWAP2 ADD SWAP3 DUP2 DUP1 DUP5 PUSH1 0x5 SHL DUP4 ADD ADD SWAP6 ADD SWAP4 PUSH1 0x0 SWAP2 JUMPDEST DUP5 DUP4 LT PUSH2 0x43F0 JUMPI POP POP POP POP POP POP SWAP1 JUMP JUMPDEST SWAP1 SWAP2 SWAP3 SWAP4 SWAP5 SWAP6 DUP5 DUP1 PUSH1 0x1 SWAP3 PUSH1 0x1F NOT DUP6 DUP3 SUB ADD DUP7 MSTORE DUP10 MLOAD SWAP1 DUP2 MLOAD DUP2 MSTORE DUP5 DUP1 PUSH1 0xA0 SHL SUB DUP4 DUP4 ADD MLOAD AND DUP4 DUP3 ADD MSTORE PUSH1 0x40 DUP1 DUP4 ADD MLOAD SWAP1 DUP3 ADD MSTORE PUSH2 0x443D PUSH1 0x60 DUP1 DUP5 ADD MLOAD SWAP1 PUSH1 0xA0 DUP1 SWAP2 DUP6 ADD MSTORE DUP4 ADD SWAP1 PUSH2 0x4382 JUMP JUMPDEST SWAP2 PUSH1 0x80 DUP1 SWAP2 ADD MLOAD ISZERO ISZERO SWAP2 ADD MSTORE SWAP9 ADD SWAP4 ADD SWAP4 ADD SWAP2 SWAP5 SWAP4 SWAP3 SWAP1 PUSH2 0x43E0 JUMP JUMPDEST SWAP2 SWAP1 DUP3 MLOAD DUP2 MSTORE PUSH1 0x20 SWAP3 PUSH1 0x1 DUP1 PUSH1 0xA0 SHL SUB DUP5 DUP3 ADD MLOAD AND DUP5 DUP4 ADD MSTORE PUSH2 0x44DE PUSH2 0x44CC PUSH2 0x44A6 PUSH2 0x4494 PUSH1 0x40 DUP6 ADD MLOAD PUSH2 0x260 DUP1 PUSH1 0x40 DUP10 ADD MSTORE DUP8 ADD SWAP1 PUSH2 0x4382 JUMP JUMPDEST PUSH1 0x60 DUP6 ADD MLOAD DUP7 DUP3 SUB PUSH1 0x60 DUP9 ADD MSTORE PUSH2 0x4382 JUMP JUMPDEST PUSH1 0x80 DUP5 ADD MLOAD PUSH1 0x80 DUP7 ADD MSTORE PUSH1 0xA0 DUP5 ADD MLOAD PUSH1 0xA0 DUP7 ADD MSTORE PUSH1 0xC0 DUP5 ADD MLOAD DUP6 DUP3 SUB PUSH1 0xC0 DUP8 ADD MSTORE PUSH2 0x4382 JUMP JUMPDEST PUSH1 0xE0 DUP4 ADD MLOAD DUP5 DUP3 SUB PUSH1 0xE0 DUP7 ADD MSTORE PUSH2 0x4382 JUMP JUMPDEST PUSH2 0x100 SWAP5 DUP6 DUP4 ADD MLOAD SWAP6 DUP5 DUP4 SUB SWAP1 DUP6 ADD MSTORE DUP6 MLOAD DUP1 DUP4 MSTORE DUP2 DUP4 ADD SWAP2 DUP1 DUP1 DUP4 PUSH1 0x5 SHL DUP7 ADD ADD SWAP9 ADD SWAP3 PUSH1 0x0 SWAP1 JUMPDEST DUP4 DUP3 LT PUSH2 0x45C9 JUMPI POP POP POP POP POP POP PUSH2 0x4580 PUSH2 0x456C PUSH2 0x454D PUSH2 0x4539 PUSH2 0x45C6 SWAP7 SWAP8 PUSH2 0x120 DUP1 DUP8 ADD MLOAD SWAP1 DUP9 DUP4 SUB SWAP1 DUP10 ADD MSTORE PUSH2 0x4382 JUMP JUMPDEST PUSH2 0x140 DUP1 DUP7 ADD MLOAD SWAP1 DUP8 DUP4 SUB SWAP1 DUP9 ADD MSTORE PUSH2 0x4382 JUMP JUMPDEST PUSH2 0x160 DUP1 DUP6 ADD MLOAD SWAP1 DUP7 ADD MSTORE PUSH2 0x180 DUP1 DUP6 ADD MLOAD SWAP1 DUP7 DUP4 SUB SWAP1 DUP8 ADD MSTORE PUSH2 0x4382 JUMP JUMPDEST PUSH2 0x1A0 DUP1 DUP5 ADD MLOAD SWAP1 DUP6 DUP4 SUB SWAP1 DUP7 ADD MSTORE PUSH2 0x4382 JUMP JUMPDEST SWAP2 PUSH2 0x1C0 DUP1 DUP4 ADD MLOAD SWAP1 DUP3 ADD MSTORE PUSH2 0x1E0 DUP1 DUP4 ADD MLOAD ISZERO ISZERO SWAP1 DUP3 ADD MSTORE PUSH2 0x200 DUP1 DUP4 ADD MLOAD ISZERO ISZERO SWAP1 DUP3 ADD MSTORE PUSH2 0x220 DUP1 DUP4 ADD MLOAD ISZERO ISZERO SWAP1 DUP3 ADD MSTORE PUSH2 0x240 DUP1 SWAP3 ADD MLOAD SWAP2 DUP2 DUP5 SUB SWAP2 ADD MSTORE PUSH2 0x43C2 JUMP JUMPDEST SWAP1 JUMP JUMPDEST SWAP1 SWAP2 SWAP3 SWAP4 SWAP5 SWAP9 DUP4 DUP1 PUSH2 0x45E8 PUSH1 0x1 SWAP4 DUP14 PUSH1 0x1F NOT SWAP1 DUP3 SUB ADD DUP7 MSTORE DUP10 MLOAD PUSH2 0x4382 JUMP JUMPDEST SWAP12 SWAP8 ADD SWAP6 SWAP5 SWAP4 SWAP2 SWAP1 SWAP2 ADD SWAP2 ADD PUSH2 0x4507 JUMP JUMPDEST PUSH1 0x20 DUP1 DUP3 ADD SWAP1 DUP1 DUP4 MSTORE DUP4 MLOAD DUP1 SWAP3 MSTORE PUSH1 0x40 DUP4 ADD SWAP3 DUP2 PUSH1 0x40 DUP5 PUSH1 0x5 SHL DUP4 ADD ADD SWAP6 ADD SWAP4 PUSH1 0x0 SWAP2 JUMPDEST DUP5 DUP4 LT PUSH2 0x462D JUMPI POP POP POP POP POP POP SWAP1 JUMP JUMPDEST SWAP1 SWAP2 SWAP3 SWAP4 SWAP5 SWAP6 DUP5 DUP1 PUSH2 0x464B PUSH1 0x1 SWAP4 PUSH1 0x3F NOT DUP7 DUP3 SUB ADD DUP8 MSTORE DUP11 MLOAD PUSH2 0x4459 JUMP JUMPDEST SWAP9 ADD SWAP4 ADD SWAP4 ADD SWAP2 SWAP5 SWAP4 SWAP3 SWAP1 PUSH2 0x461D JUMP JUMPDEST PUSH1 0x4 CALLDATALOAD SWAP1 PUSH1 0x1 PUSH1 0x1 PUSH1 0xA0 SHL SUB DUP3 AND DUP3 SUB PUSH2 0x4DB JUMPI JUMP JUMPDEST PUSH1 0x24 CALLDATALOAD SWAP1 PUSH1 0x1 PUSH1 0x1 PUSH1 0xA0 SHL SUB DUP3 AND DUP3 SUB PUSH2 0x4DB JUMPI JUMP JUMPDEST PUSH2 0x260 DUP2 ADD SWAP1 DUP2 LT PUSH1 0x1 PUSH1 0x1 PUSH1 0x40 SHL SUB DUP3 GT OR PUSH2 0x2228 JUMPI PUSH1 0x40 MSTORE JUMP JUMPDEST PUSH1 0xE0 DUP2 ADD SWAP1 DUP2 LT PUSH1 0x1 PUSH1 0x1 PUSH1 0x40 SHL SUB DUP3 GT OR PUSH2 0x2228 JUMPI PUSH1 0x40 MSTORE JUMP JUMPDEST PUSH1 0xA0 DUP2 ADD SWAP1 DUP2 LT PUSH1 0x1 PUSH1 0x1 PUSH1 0x40 SHL SUB DUP3 GT OR PUSH2 0x2228 JUMPI PUSH1 0x40 MSTORE JUMP JUMPDEST PUSH1 0x20 DUP2 ADD SWAP1 DUP2 LT PUSH1 0x1 PUSH1 0x1 PUSH1 0x40 SHL SUB DUP3 GT OR PUSH2 0x2228 JUMPI PUSH1 0x40 MSTORE JUMP JUMPDEST SWAP1 PUSH1 0x1F DUP1 NOT SWAP2 ADD AND DUP2 ADD SWAP1 DUP2 LT PUSH1 0x1 PUSH1 0x1 PUSH1 0x40 SHL SUB DUP3 GT OR PUSH2 0x2228 JUMPI PUSH1 0x40 MSTORE JUMP JUMPDEST PUSH1 0x1 PUSH1 0x1 PUSH1 0x40 SHL SUB DUP2 GT PUSH2 0x2228 JUMPI PUSH1 0x1F ADD PUSH1 0x1F NOT AND PUSH1 0x20 ADD SWAP1 JUMP JUMPDEST SWAP3 SWAP2 SWAP3 PUSH2 0x473C DUP3 PUSH2 0x4715 JUMP JUMPDEST SWAP2 PUSH2 0x474A PUSH1 0x40 MLOAD SWAP4 DUP5 PUSH2 0x46F4 JUMP JUMPDEST DUP3 SWAP5 DUP2 DUP5 MSTORE DUP2 DUP4 ADD GT PUSH2 0x4DB JUMPI DUP3 DUP2 PUSH1 0x20 SWAP4 DUP5 PUSH1 0x0 SWAP7 ADD CALLDATACOPY ADD ADD MSTORE JUMP JUMPDEST SWAP1 DUP1 PUSH1 0x1F DUP4 ADD SLT ISZERO PUSH2 0x4DB JUMPI DUP2 PUSH1 0x20 PUSH2 0x45C6 SWAP4 CALLDATALOAD SWAP2 ADD PUSH2 0x4730 JUMP JUMPDEST PUSH1 0x60 SWAP1 PUSH1 0x3 NOT ADD SLT PUSH2 0x4DB JUMPI PUSH1 0x1 PUSH1 0x1 PUSH1 0xA0 SHL SUB SWAP1 PUSH1 0x4 CALLDATALOAD DUP3 DUP2 AND DUP2 SUB PUSH2 0x4DB JUMPI SWAP2 PUSH1 0x24 CALLDATALOAD SWAP1 DUP2 AND DUP2 SUB PUSH2 0x4DB JUMPI SWAP1 PUSH1 0x44 CALLDATALOAD SWAP1 JUMP JUMPDEST PUSH1 0x20 DUP1 DUP3 ADD SWAP1 DUP1 DUP4 MSTORE DUP4 MLOAD DUP1 SWAP3 MSTORE DUP1 PUSH1 0x40 DUP1 SWAP5 ADD SWAP5 ADD SWAP3 PUSH1 0x0 SWAP1 JUMPDEST DUP4 DUP3 LT PUSH2 0x47E1 JUMPI POP POP POP POP POP SWAP1 JUMP JUMPDEST DUP5 MLOAD DUP1 MLOAD DUP8 MSTORE DUP1 DUP5 ADD MLOAD DUP8 DUP6 ADD MSTORE DUP1 DUP3 ADD MLOAD DUP8 DUP4 ADD MSTORE PUSH1 0x60 DUP1 DUP3 ADD MLOAD SWAP1 DUP9 ADD MSTORE PUSH1 0x80 DUP1 DUP3 ADD MLOAD PUSH1 0x1 PUSH1 0x1 PUSH1 0xA0 SHL SUB SWAP1 DUP2 AND SWAP2 DUP10 ADD SWAP2 SWAP1 SWAP2 MSTORE PUSH1 0xA0 DUP1 DUP4 ADD MLOAD SWAP1 SWAP2 AND SWAP1 DUP9 ADD MSTORE PUSH1 0xC0 SWAP1 DUP2 ADD MLOAD ISZERO ISZERO SWAP1 DUP8 ADD MSTORE PUSH1 0xE0 SWAP1 SWAP6 ADD SWAP5 SWAP4 DUP3 ADD SWAP4 PUSH1 0x1 SWAP1 SWAP2 ADD SWAP1 PUSH2 0x47D2 JUMP JUMPDEST SWAP2 SWAP1 PUSH1 0x20 DUP4 ADD SWAP3 PUSH1 0x4 DUP3 LT ISZERO PUSH2 0x722 JUMPI MSTORE JUMP JUMPDEST SWAP1 PUSH1 0x1 DUP3 DUP2 SHR SWAP3 AND DUP1 ISZERO PUSH2 0x488A JUMPI JUMPDEST PUSH1 0x20 DUP4 LT EQ PUSH2 0x4874 JUMPI JUMP JUMPDEST PUSH4 0x4E487B71 PUSH1 0xE0 SHL PUSH1 0x0 MSTORE PUSH1 0x22 PUSH1 0x4 MSTORE PUSH1 0x24 PUSH1 0x0 REVERT JUMPDEST SWAP2 PUSH1 0x7F AND SWAP2 PUSH2 0x4869 JUMP JUMPDEST SWAP1 PUSH1 0x40 MLOAD SWAP2 DUP3 PUSH1 0x0 DUP3 SLOAD SWAP3 PUSH2 0x48A8 DUP5 PUSH2 0x485A JUMP JUMPDEST SWAP1 DUP2 DUP5 MSTORE PUSH1 0x1 SWAP5 DUP6 DUP2 AND SWAP1 DUP2 PUSH1 0x0 EQ PUSH2 0x4917 JUMPI POP PUSH1 0x1 EQ PUSH2 0x48D4 JUMPI JUMPDEST POP POP PUSH2 0x48D2 SWAP3 POP SUB DUP4 PUSH2 0x46F4 JUMP JUMPDEST JUMP JUMPDEST SWAP1 SWAP4 SWAP2 POP PUSH1 0x0 MSTORE PUSH1 0x20 SWAP1 DUP2 PUSH1 0x0 KECCAK256 SWAP4 PUSH1 0x0 SWAP2 JUMPDEST DUP2 DUP4 LT PUSH2 0x48FF JUMPI POP POP PUSH2 0x48D2 SWAP4 POP DUP3 ADD ADD CODESIZE DUP1 PUSH2 0x48C4 JUMP JUMPDEST DUP6 SLOAD DUP9 DUP5 ADD DUP6 ADD MSTORE SWAP5 DUP6 ADD SWAP5 DUP8 SWAP5 POP SWAP2 DUP4 ADD SWAP2 PUSH2 0x48E7 JUMP JUMPDEST SWAP2 POP POP PUSH2 0x48D2 SWAP5 POP PUSH1 0x20 SWAP3 POP PUSH1 0xFF NOT AND DUP3 DUP5 ADD MSTORE ISZERO ISZERO PUSH1 0x5 SHL DUP3 ADD ADD CODESIZE DUP1 PUSH2 0x48C4 JUMP JUMPDEST DUP1 SLOAD DUP3 LT ISZERO PUSH2 0x4956 JUMPI PUSH1 0x0 MSTORE PUSH1 0x6 PUSH1 0x20 PUSH1 0x0 KECCAK256 SWAP2 MUL ADD SWAP1 PUSH1 0x0 SWAP1 JUMP JUMPDEST PUSH4 0x4E487B71 PUSH1 0xE0 SHL PUSH1 0x0 MSTORE PUSH1 0x32 PUSH1 0x4 MSTORE PUSH1 0x24 PUSH1 0x0 REVERT JUMPDEST DUP1 SLOAD DUP3 LT ISZERO PUSH2 0x4956 JUMPI PUSH1 0x0 MSTORE PUSH1 0x20 PUSH1 0x0 KECCAK256 ADD SWAP1 PUSH1 0x0 SWAP1 JUMP JUMPDEST PUSH1 0x0 SLOAD PUSH1 0x1 PUSH1 0x1 PUSH1 0xA0 SHL SUB AND CALLER SUB PUSH2 0x4998 JUMPI JUMP JUMPDEST PUSH1 0x64 PUSH1 0x40 MLOAD PUSH3 0x461BCD PUSH1 0xE5 SHL DUP2 MSTORE PUSH1 0x20 PUSH1 0x4 DUP3 ADD MSTORE PUSH1 0x20 PUSH1 0x24 DUP3 ADD MSTORE PUSH32 0x4F776E61626C653A2063616C6C6572206973206E6F7420746865206F776E6572 PUSH1 0x44 DUP3 ADD MSTORE REVERT JUMPDEST ISZERO PUSH2 0x49E3 JUMPI JUMP JUMPDEST PUSH1 0x40 MLOAD PUSH3 0x461BCD PUSH1 0xE5 SHL DUP2 MSTORE PUSH1 0x20 PUSH1 0x4 DUP3 ADD MSTORE PUSH1 0x18 PUSH1 0x24 DUP3 ADD MSTORE PUSH32 0x4552433732313A20696E76616C696420746F6B656E2049440000000000000000 PUSH1 0x44 DUP3 ADD MSTORE PUSH1 0x64 SWAP1 REVERT JUMPDEST PUSH1 0x0 SWAP1 DUP2 MSTORE PUSH1 0x4 PUSH1 0x20 MSTORE PUSH1 0x40 SWAP1 KECCAK256 SLOAD PUSH1 0x1 PUSH1 0x1 PUSH1 0xA0 SHL SUB AND PUSH2 0x45C6 DUP2 ISZERO ISZERO PUSH2 0x49DC JUMP JUMPDEST PUSH1 0x0 DUP2 DUP2 MSTORE PUSH1 0x4 PUSH1 0x20 MSTORE PUSH1 0x40 SWAP1 KECCAK256 SLOAD PUSH2 0x4A6E SWAP1 PUSH1 0x1 PUSH1 0x1 PUSH1 0xA0 SHL SUB AND ISZERO ISZERO PUSH2 0x49DC JUMP JUMPDEST PUSH1 0x0 SWAP1 DUP2 MSTORE PUSH1 0x6 PUSH1 0x20 MSTORE PUSH1 0x40 SWAP1 KECCAK256 SLOAD PUSH1 0x1 PUSH1 0x1 PUSH1 0xA0 SHL SUB AND SWAP1 JUMP JUMPDEST ISZERO PUSH2 0x4A90 JUMPI JUMP JUMPDEST PUSH1 0x40 MLOAD PUSH3 0x461BCD PUSH1 0xE5 SHL DUP2 MSTORE PUSH1 0x20 PUSH1 0x4 DUP3 ADD MSTORE PUSH1 0x2D PUSH1 0x24 DUP3 ADD MSTORE PUSH32 0x4552433732313A2063616C6C6572206973206E6F7420746F6B656E206F776E65 PUSH1 0x44 DUP3 ADD MSTORE PUSH13 0x1C881BDC88185C1C1C9BDD9959 PUSH1 0x9A SHL PUSH1 0x64 DUP3 ADD MSTORE PUSH1 0x84 SWAP1 REVERT JUMPDEST SWAP1 PUSH2 0x4B0F SWAP4 SWAP3 SWAP2 PUSH2 0x4AFF PUSH2 0x38EA DUP5 CALLER PUSH2 0x4B86 JUMP JUMPDEST PUSH2 0x4B0A DUP4 DUP4 DUP4 PUSH2 0x4C4E JUMP JUMPDEST PUSH2 0x4D8F JUMP JUMPDEST ISZERO PUSH2 0x4B16 JUMPI JUMP JUMPDEST PUSH1 0x40 MLOAD PUSH3 0x461BCD PUSH1 0xE5 SHL DUP2 MSTORE DUP1 PUSH2 0x4B2F PUSH1 0x4 DUP3 ADD PUSH2 0x4B33 JUMP JUMPDEST SUB SWAP1 REVERT JUMPDEST PUSH1 0x80 SWAP1 PUSH1 0x20 DUP2 MSTORE PUSH1 0x32 PUSH1 0x20 DUP3 ADD MSTORE PUSH32 0x4552433732313A207472616E7366657220746F206E6F6E204552433732315265 PUSH1 0x40 DUP3 ADD MSTORE PUSH18 0x31B2B4BB32B91034B6B83632B6B2B73A32B9 PUSH1 0x71 SHL PUSH1 0x60 DUP3 ADD MSTORE ADD SWAP1 JUMP JUMPDEST SWAP1 PUSH1 0x1 PUSH1 0x1 PUSH1 0xA0 SHL SUB DUP1 DUP1 PUSH2 0x4B9A DUP5 PUSH2 0x4A28 JUMP JUMPDEST AND SWAP4 AND SWAP2 DUP4 DUP4 EQ SWAP4 DUP5 ISZERO PUSH2 0x4BCD JUMPI JUMPDEST POP DUP4 ISZERO PUSH2 0x4BB7 JUMPI JUMPDEST POP POP POP SWAP1 JUMP JUMPDEST PUSH2 0x4BC3 SWAP2 SWAP3 SWAP4 POP PUSH2 0x4A4B JUMP JUMPDEST AND EQ CODESIZE DUP1 DUP1 PUSH2 0x4BB1 JUMP JUMPDEST SWAP1 SWAP4 POP PUSH1 0x0 MSTORE PUSH1 0x7 PUSH1 0x20 MSTORE PUSH1 0x40 PUSH1 0x0 KECCAK256 DUP3 PUSH1 0x0 MSTORE PUSH1 0x20 MSTORE PUSH1 0xFF PUSH1 0x40 PUSH1 0x0 KECCAK256 SLOAD AND SWAP3 CODESIZE PUSH2 0x4BA9 JUMP JUMPDEST ISZERO PUSH2 0x4BFB JUMPI JUMP JUMPDEST PUSH1 0x40 MLOAD PUSH3 0x461BCD PUSH1 0xE5 SHL DUP2 MSTORE PUSH1 0x20 PUSH1 0x4 DUP3 ADD MSTORE PUSH1 0x25 PUSH1 0x24 DUP3 ADD MSTORE PUSH32 0x4552433732313A207472616E736665722066726F6D20696E636F727265637420 PUSH1 0x44 DUP3 ADD MSTORE PUSH5 0x37BBB732B9 PUSH1 0xD9 SHL PUSH1 0x64 DUP3 ADD MSTORE PUSH1 0x84 SWAP1 REVERT JUMPDEST SWAP1 PUSH2 0x4C76 SWAP2 PUSH2 0x4C5C DUP5 PUSH2 0x4A28 JUMP JUMPDEST PUSH1 0x1 PUSH1 0x1 PUSH1 0xA0 SHL SUB SWAP4 SWAP2 DUP5 AND SWAP3 DUP5 SWAP3 SWAP1 SWAP2 DUP4 AND DUP5 EQ PUSH2 0x4BF4 JUMP JUMPDEST AND SWAP2 DUP3 ISZERO PUSH2 0x4D0E JUMPI DUP2 PUSH2 0x4C93 SWAP2 PUSH2 0x4C8C DUP7 PUSH2 0x4A28 JUMP JUMPDEST AND EQ PUSH2 0x4BF4 JUMP JUMPDEST PUSH32 0xDDF252AD1BE2C89B69C2B068FC378DAA952BA7F163C4A11628F55A4DF523B3EF PUSH1 0x0 DUP5 DUP2 MSTORE PUSH1 0x6 PUSH1 0x20 MSTORE PUSH1 0x40 DUP2 KECCAK256 PUSH1 0x1 PUSH1 0x1 PUSH1 0x60 SHL SUB PUSH1 0xA0 SHL SWAP1 DUP2 DUP2 SLOAD AND SWAP1 SSTORE DUP4 DUP3 MSTORE PUSH1 0x5 PUSH1 0x20 MSTORE PUSH1 0x40 DUP3 KECCAK256 PUSH1 0x0 NOT DUP2 SLOAD ADD SWAP1 SSTORE DUP5 DUP3 MSTORE PUSH1 0x40 DUP3 KECCAK256 PUSH1 0x1 DUP2 SLOAD ADD SWAP1 SSTORE DUP6 DUP3 MSTORE PUSH1 0x4 PUSH1 0x20 MSTORE DUP5 PUSH1 0x40 DUP4 KECCAK256 SWAP2 DUP3 SLOAD AND OR SWAP1 SSTORE DUP1 LOG4 JUMP JUMPDEST PUSH1 0x40 MLOAD PUSH3 0x461BCD PUSH1 0xE5 SHL DUP2 MSTORE PUSH1 0x20 PUSH1 0x4 DUP3 ADD MSTORE PUSH1 0x24 DUP1 DUP3 ADD MSTORE PUSH32 0x4552433732313A207472616E7366657220746F20746865207A65726F20616464 PUSH1 0x44 DUP3 ADD MSTORE PUSH4 0x72657373 PUSH1 0xE0 SHL PUSH1 0x64 DUP3 ADD MSTORE PUSH1 0x84 SWAP1 REVERT JUMPDEST RETURNDATASIZE ISZERO PUSH2 0x4D8A JUMPI RETURNDATASIZE SWAP1 PUSH2 0x4D70 DUP3 PUSH2 0x4715 JUMP JUMPDEST SWAP2 PUSH2 0x4D7E PUSH1 0x40 MLOAD SWAP4 DUP5 PUSH2 0x46F4 JUMP JUMPDEST DUP3 MSTORE RETURNDATASIZE PUSH1 0x0 PUSH1 0x20 DUP5 ADD RETURNDATACOPY JUMP JUMPDEST PUSH1 0x60 SWAP1 JUMP JUMPDEST SWAP2 SWAP3 PUSH1 0x0 SWAP3 SWAP2 SWAP1 DUP2 EXTCODESIZE ISZERO PUSH2 0x4E84 JUMPI PUSH1 0x20 SWAP2 PUSH2 0x4DE5 SWAP2 DUP6 PUSH1 0x40 MLOAD SWAP6 DUP7 DUP1 SWAP6 DUP2 SWAP5 PUSH4 0xA85BD01 PUSH1 0xE1 SHL SWAP12 DUP13 DUP5 MSTORE CALLER PUSH1 0x4 DUP6 ADD MSTORE PUSH1 0x1 DUP1 PUSH1 0xA0 SHL SUB DUP1 SWAP6 AND PUSH1 0x24 DUP6 ADD MSTORE PUSH1 0x44 DUP5 ADD MSTORE PUSH1 0x80 PUSH1 0x64 DUP5 ADD MSTORE PUSH1 0x84 DUP4 ADD SWAP1 PUSH2 0x4382 JUMP JUMPDEST SUB SWAP4 AND GAS CALL SWAP1 DUP3 SWAP1 DUP3 PUSH2 0x4E35 JUMPI JUMPDEST POP POP PUSH2 0x4E27 JUMPI PUSH2 0x4E01 PUSH2 0x4D5F JUMP JUMPDEST DUP1 MLOAD SWAP1 DUP2 PUSH2 0x4E22 JUMPI PUSH1 0x40 MLOAD PUSH3 0x461BCD PUSH1 0xE5 SHL DUP2 MSTORE DUP1 PUSH2 0x4B2F PUSH1 0x4 DUP3 ADD PUSH2 0x4B33 JUMP JUMPDEST PUSH1 0x20 ADD REVERT JUMPDEST PUSH1 0x1 PUSH1 0x1 PUSH1 0xE0 SHL SUB NOT AND EQ SWAP1 JUMP JUMPDEST SWAP1 SWAP2 SWAP3 POP PUSH1 0x20 DUP2 RETURNDATASIZE DUP3 GT PUSH2 0x4E7C JUMPI JUMPDEST DUP2 PUSH2 0x4E51 PUSH1 0x20 SWAP4 DUP4 PUSH2 0x46F4 JUMP JUMPDEST DUP2 ADD SUB SLT PUSH2 0x4E78 JUMPI MLOAD SWAP1 PUSH1 0x1 PUSH1 0x1 PUSH1 0xE0 SHL SUB NOT DUP3 AND DUP3 SUB PUSH2 0x4E75 JUMPI POP SWAP1 CODESIZE DUP1 PUSH2 0x4DF3 JUMP JUMPDEST DUP1 REVERT JUMPDEST POP DUP1 REVERT JUMPDEST RETURNDATASIZE SWAP2 POP PUSH2 0x4E44 JUMP JUMPDEST POP POP POP POP POP PUSH1 0x1 SWAP1 JUMP JUMPDEST ISZERO PUSH2 0x4E95 JUMPI JUMP JUMPDEST PUSH1 0x40 MLOAD PUSH3 0x461BCD PUSH1 0xE5 SHL DUP2 MSTORE PUSH1 0x20 PUSH1 0x4 DUP3 ADD MSTORE PUSH1 0x13 PUSH1 0x24 DUP3 ADD MSTORE PUSH19 0x14D95B1B195C881B9BDD081D995C9A599A5959 PUSH1 0x6A SHL PUSH1 0x44 DUP3 ADD MSTORE PUSH1 0x64 SWAP1 REVERT JUMPDEST SWAP1 CALLDATALOAD SWAP1 PUSH1 0x1E NOT DUP2 CALLDATASIZE SUB ADD DUP3 SLT ISZERO PUSH2 0x4DB JUMPI ADD DUP1 CALLDATALOAD SWAP1 PUSH1 0x1 PUSH1 0x1 PUSH1 0x40 SHL SUB DUP3 GT PUSH2 0x4DB JUMPI PUSH1 0x20 ADD SWAP2 DUP2 CALLDATASIZE SUB DUP4 SGT PUSH2 0x4DB JUMPI JUMP JUMPDEST ISZERO PUSH2 0x4F09 JUMPI JUMP JUMPDEST PUSH1 0x40 MLOAD PUSH3 0x461BCD PUSH1 0xE5 SHL DUP2 MSTORE PUSH1 0x20 PUSH1 0x4 DUP3 ADD MSTORE PUSH1 0x14 PUSH1 0x24 DUP3 ADD MSTORE PUSH20 0x4E616D652063616E6E6F7420626520656D707479 PUSH1 0x60 SHL PUSH1 0x44 DUP3 ADD MSTORE PUSH1 0x64 SWAP1 REVERT JUMPDEST ISZERO PUSH2 0x4F4C JUMPI JUMP JUMPDEST PUSH1 0x40 MLOAD PUSH3 0x461BCD PUSH1 0xE5 SHL DUP2 MSTORE PUSH1 0x20 PUSH1 0x4 DUP3 ADD MSTORE PUSH1 0x1B PUSH1 0x24 DUP3 ADD MSTORE PUSH32 0x4465736372697074696F6E2063616E6E6F7420626520656D7074790000000000 PUSH1 0x44 DUP3 ADD MSTORE PUSH1 0x64 SWAP1 REVERT JUMPDEST ISZERO PUSH2 0x4F98 JUMPI JUMP JUMPDEST PUSH1 0x40 MLOAD PUSH3 0x461BCD PUSH1 0xE5 SHL DUP2 MSTORE PUSH1 0x20 PUSH1 0x4 DUP3 ADD MSTORE PUSH1 0x1C PUSH1 0x24 DUP3 ADD MSTORE PUSH32 0x5072696365206D7573742062652067726561746572207468616E203000000000 PUSH1 0x44 DUP3 ADD MSTORE PUSH1 0x64 SWAP1 REVERT JUMPDEST ISZERO PUSH2 0x4FE4 JUMPI JUMP JUMPDEST PUSH1 0x40 MLOAD PUSH3 0x461BCD PUSH1 0xE5 SHL DUP2 MSTORE PUSH1 0x20 PUSH1 0x4 DUP3 ADD MSTORE PUSH1 0x1C PUSH1 0x24 DUP3 ADD MSTORE PUSH32 0x53746F636B206D7573742062652067726561746572207468616E203000000000 PUSH1 0x44 DUP3 ADD MSTORE PUSH1 0x64 SWAP1 REVERT JUMPDEST ISZERO PUSH2 0x5030 JUMPI JUMP JUMPDEST PUSH1 0x40 MLOAD PUSH3 0x461BCD PUSH1 0xE5 SHL DUP2 MSTORE PUSH1 0x20 PUSH1 0x4 DUP3 ADD MSTORE PUSH1 0x15 PUSH1 0x24 DUP3 ADD MSTORE PUSH21 0x436F6C6F722063616E6E6F7420626520656D707479 PUSH1 0x58 SHL PUSH1 0x44 DUP3 ADD MSTORE PUSH1 0x64 SWAP1 REVERT JUMPDEST SWAP1 CALLDATALOAD SWAP1 PUSH1 0x1E NOT DUP2 CALLDATASIZE SUB ADD DUP3 SLT ISZERO PUSH2 0x4DB JUMPI ADD DUP1 CALLDATALOAD SWAP1 PUSH1 0x1 PUSH1 0x1 PUSH1 0x40 SHL SUB DUP3 GT PUSH2 0x4DB JUMPI PUSH1 0x20 ADD SWAP2 DUP2 PUSH1 0x5 SHL CALLDATASIZE SUB DUP4 SGT PUSH2 0x4DB JUMPI JUMP JUMPDEST ISZERO PUSH2 0x50A9 JUMPI JUMP JUMPDEST PUSH1 0x40 MLOAD PUSH3 0x461BCD PUSH1 0xE5 SHL DUP2 MSTORE PUSH1 0x20 PUSH1 0x4 DUP3 ADD MSTORE PUSH1 0x16 PUSH1 0x24 DUP3 ADD MSTORE PUSH22 0x496D616765732063616E6E6F7420626520656D707479 PUSH1 0x50 SHL PUSH1 0x44 DUP3 ADD MSTORE PUSH1 0x64 SWAP1 REVERT JUMPDEST ISZERO PUSH2 0x50EE JUMPI JUMP JUMPDEST PUSH1 0x40 MLOAD PUSH3 0x461BCD PUSH1 0xE5 SHL DUP2 MSTORE PUSH1 0x20 PUSH1 0x4 DUP3 ADD MSTORE PUSH1 0x1C PUSH1 0x24 DUP3 ADD MSTORE PUSH32 0x496D616765732063616E6E6F74206265206D6F7265207468616E203500000000 PUSH1 0x44 DUP3 ADD MSTORE PUSH1 0x64 SWAP1 REVERT JUMPDEST ISZERO PUSH2 0x513A JUMPI JUMP JUMPDEST PUSH1 0x40 MLOAD PUSH3 0x461BCD PUSH1 0xE5 SHL DUP2 MSTORE PUSH1 0x20 PUSH1 0x4 DUP3 ADD MSTORE PUSH1 0x14 PUSH1 0x24 DUP3 ADD MSTORE PUSH20 0x53697A652063616E6E6F7420626520656D707479 PUSH1 0x60 SHL PUSH1 0x44 DUP3 ADD MSTORE PUSH1 0x64 SWAP1 REVERT JUMPDEST ISZERO PUSH2 0x517D JUMPI JUMP JUMPDEST PUSH1 0x40 MLOAD PUSH3 0x461BCD PUSH1 0xE5 SHL DUP2 MSTORE PUSH1 0x20 PUSH1 0x4 DUP3 ADD MSTORE PUSH1 0x18 PUSH1 0x24 DUP3 ADD MSTORE PUSH32 0x43617465676F72792063616E6E6F7420626520656D7074790000000000000000 PUSH1 0x44 DUP3 ADD MSTORE PUSH1 0x64 SWAP1 REVERT JUMPDEST ISZERO PUSH2 0x51C9 JUMPI JUMP JUMPDEST PUSH1 0x40 MLOAD PUSH3 0x461BCD PUSH1 0xE5 SHL DUP2 MSTORE PUSH1 0x20 PUSH1 0x4 DUP3 ADD MSTORE PUSH1 0x1C PUSH1 0x24 DUP3 ADD MSTORE PUSH32 0x5375622D63617465676F72792063616E6E6F7420626520656D70747900000000 PUSH1 0x44 DUP3 ADD MSTORE PUSH1 0x64 SWAP1 REVERT JUMPDEST ISZERO PUSH2 0x5215 JUMPI JUMP JUMPDEST PUSH1 0x40 MLOAD PUSH3 0x461BCD PUSH1 0xE5 SHL DUP2 MSTORE PUSH1 0x20 PUSH1 0x4 DUP3 ADD MSTORE PUSH1 0x15 PUSH1 0x24 DUP3 ADD MSTORE PUSH21 0x4D6F64656C2063616E6E6F7420626520656D707479 PUSH1 0x58 SHL PUSH1 0x44 DUP3 ADD MSTORE PUSH1 0x64 SWAP1 REVERT JUMPDEST ISZERO PUSH2 0x5259 JUMPI JUMP JUMPDEST PUSH1 0x40 MLOAD PUSH3 0x461BCD PUSH1 0xE5 SHL DUP2 MSTORE PUSH1 0x20 PUSH1 0x4 DUP3 ADD MSTORE PUSH1 0x15 PUSH1 0x24 DUP3 ADD MSTORE PUSH21 0x4272616E642063616E6E6F7420626520656D707479 PUSH1 0x58 SHL PUSH1 0x44 DUP3 ADD MSTORE PUSH1 0x64 SWAP1 REVERT JUMPDEST ISZERO PUSH2 0x529D JUMPI JUMP JUMPDEST PUSH1 0x40 MLOAD PUSH3 0x461BCD PUSH1 0xE5 SHL DUP2 MSTORE PUSH1 0x20 PUSH1 0x4 DUP3 ADD MSTORE PUSH1 0x1D PUSH1 0x24 DUP3 ADD MSTORE PUSH32 0x576569676874206D7573742062652067726561746572207468616E2030000000 PUSH1 0x44 DUP3 ADD MSTORE PUSH1 0x64 SWAP1 REVERT JUMPDEST ISZERO PUSH2 0x52E9 JUMPI JUMP JUMPDEST PUSH1 0x40 MLOAD PUSH3 0x461BCD PUSH1 0xE5 SHL DUP2 MSTORE PUSH1 0x20 PUSH1 0x4 DUP3 ADD MSTORE PUSH1 0x1A PUSH1 0x24 DUP3 ADD MSTORE PUSH32 0x534B55206D7573742062652067726561746572207468616E2030000000000000 PUSH1 0x44 DUP3 ADD MSTORE PUSH1 0x64 SWAP1 REVERT JUMPDEST PUSH1 0x40 MLOAD SWAP1 PUSH2 0x533B DUP3 PUSH2 0x4687 JUMP JUMPDEST DUP2 PUSH2 0x240 PUSH1 0x0 SWAP2 DUP3 DUP2 MSTORE DUP3 PUSH1 0x20 DUP3 ADD MSTORE PUSH1 0x60 SWAP3 DUP4 PUSH1 0x40 DUP4 ADD MSTORE DUP4 DUP1 DUP4 ADD MSTORE DUP1 PUSH1 0x80 DUP4 ADD MSTORE DUP1 PUSH1 0xA0 DUP4 ADD MSTORE DUP4 PUSH1 0xC0 DUP4 ADD MSTORE DUP4 PUSH1 0xE0 DUP4 ADD MSTORE DUP4 PUSH2 0x100 DUP4 ADD MSTORE DUP4 PUSH2 0x120 DUP4 ADD MSTORE DUP4 PUSH2 0x140 DUP4 ADD MSTORE DUP1 PUSH2 0x160 DUP4 ADD MSTORE DUP4 PUSH2 0x180 DUP4 ADD MSTORE DUP4 PUSH2 0x1A0 DUP4 ADD MSTORE DUP1 PUSH2 0x1C0 DUP4 ADD MSTORE DUP1 PUSH2 0x1E0 DUP4 ADD MSTORE DUP1 PUSH2 0x200 DUP4 ADD MSTORE PUSH2 0x220 DUP3 ADD MSTORE ADD MSTORE JUMP JUMPDEST PUSH1 0x1 PUSH1 0x1 PUSH1 0x40 SHL SUB DUP2 GT PUSH2 0x2228 JUMPI PUSH1 0x5 SHL PUSH1 0x20 ADD SWAP1 JUMP JUMPDEST DUP2 DUP2 LT PUSH2 0x53DC JUMPI POP POP JUMP JUMPDEST PUSH1 0x0 DUP2 SSTORE PUSH1 0x1 ADD PUSH2 0x53D1 JUMP JUMPDEST SWAP2 SWAP1 PUSH1 0x1F DUP2 GT PUSH2 0x53F7 JUMPI POP POP POP JUMP JUMPDEST PUSH2 0x48D2 SWAP3 PUSH1 0x0 MSTORE PUSH1 0x20 PUSH1 0x0 KECCAK256 SWAP1 PUSH1 0x20 PUSH1 0x1F DUP5 ADD PUSH1 0x5 SHR DUP4 ADD SWAP4 LT PUSH2 0x5423 JUMPI JUMPDEST PUSH1 0x1F ADD PUSH1 0x5 SHR ADD SWAP1 PUSH2 0x53D1 JUMP JUMPDEST SWAP1 SWAP2 POP DUP2 SWAP1 PUSH2 0x5416 JUMP JUMPDEST PUSH2 0x5437 DUP2 SLOAD PUSH2 0x485A JUMP JUMPDEST SWAP1 DUP2 PUSH2 0x5441 JUMPI POP POP JUMP JUMPDEST DUP2 PUSH1 0x1F PUSH1 0x0 SWAP4 GT PUSH1 0x1 EQ PUSH2 0x5453 JUMPI POP SSTORE JUMP JUMPDEST SWAP1 DUP1 DUP4 SWAP2 DUP3 MSTORE PUSH2 0x5472 PUSH1 0x1F PUSH1 0x20 DUP5 KECCAK256 SWAP5 ADD PUSH1 0x5 SHR DUP5 ADD PUSH1 0x1 DUP6 ADD PUSH2 0x53D1 JUMP JUMPDEST SSTORE SSTORE JUMP JUMPDEST SWAP1 PUSH1 0x1 PUSH1 0x40 SHL DUP2 GT PUSH2 0x2228 JUMPI DUP2 SLOAD SWAP2 DUP2 DUP2 SSTORE DUP3 DUP3 LT PUSH2 0x5494 JUMPI POP POP POP JUMP JUMPDEST PUSH1 0x0 MSTORE PUSH1 0x20 PUSH1 0x0 KECCAK256 SWAP2 DUP3 ADD SWAP2 ADD JUMPDEST DUP2 DUP2 LT PUSH2 0x54AD JUMPI POP POP JUMP JUMPDEST DUP1 PUSH2 0x54B9 PUSH1 0x1 SWAP3 PUSH2 0x542D JUMP JUMPDEST ADD PUSH2 0x54A2 JUMP JUMPDEST DUP2 MLOAD DUP2 SSTORE PUSH1 0x1 SWAP2 DUP3 DUP3 ADD PUSH1 0x20 SWAP1 PUSH1 0x1 DUP1 PUSH1 0xA0 SHL SUB DUP3 DUP5 ADD MLOAD AND PUSH1 0x1 PUSH1 0x1 PUSH1 0x60 SHL SUB PUSH1 0xA0 SHL DUP3 SLOAD AND OR SWAP1 SSTORE PUSH1 0x40 DUP3 ADD MLOAD PUSH1 0x2 DUP5 ADD SSTORE PUSH1 0x3 DUP4 ADD SWAP1 PUSH1 0x60 DUP4 ADD MLOAD SWAP5 DUP6 MLOAD SWAP2 PUSH1 0x1 PUSH1 0x1 PUSH1 0x40 SHL SUB DUP4 GT PUSH2 0x2228 JUMPI PUSH2 0x551D DUP4 PUSH2 0x186A DUP7 SLOAD PUSH2 0x485A JUMP JUMPDEST DUP1 PUSH1 0x1F DUP5 GT PUSH1 0x1 EQ PUSH2 0x5575 JUMPI POP SWAP2 DUP1 DUP1 PUSH1 0x80 SWAP6 SWAP4 PUSH1 0x4 SWAP8 SWAP6 PUSH2 0x48D2 SWAP11 PUSH1 0x0 SWAP5 PUSH2 0x556A JUMPI JUMPDEST POP POP SHL SWAP2 PUSH1 0x0 NOT SWAP1 PUSH1 0x3 SHL SHR NOT AND OR SWAP1 SSTORE JUMPDEST ADD MLOAD ISZERO ISZERO SWAP2 ADD SWAP1 PUSH1 0xFF DUP1 NOT DUP4 SLOAD AND SWAP2 ISZERO ISZERO AND OR SWAP1 SSTORE JUMP JUMPDEST ADD MLOAD SWAP3 POP CODESIZE DUP1 PUSH2 0x5541 JUMP JUMPDEST SWAP2 SWAP4 SWAP5 SWAP6 SWAP7 PUSH1 0x1F NOT DUP5 AND DUP7 PUSH1 0x0 MSTORE DUP4 PUSH1 0x0 KECCAK256 SWAP4 PUSH1 0x0 SWAP1 JUMPDEST DUP3 DUP3 LT PUSH2 0x55D2 JUMPI POP POP SWAP3 PUSH1 0x80 SWAP6 SWAP3 DUP6 SWAP3 PUSH2 0x48D2 SWAP11 SWAP10 SWAP7 PUSH1 0x4 SWAP10 SWAP7 LT PUSH2 0x55B9 JUMPI JUMPDEST POP POP POP DUP2 SHL ADD SWAP1 SSTORE PUSH2 0x5553 JUMP JUMPDEST ADD MLOAD PUSH1 0x0 NOT PUSH1 0xF8 DUP5 PUSH1 0x3 SHL AND SHR NOT AND SWAP1 SSTORE CODESIZE DUP1 DUP1 PUSH2 0x55AC JUMP JUMPDEST DUP1 DUP9 DUP7 SWAP8 DUP3 SWAP5 SWAP8 DUP8 ADD MLOAD DUP2 SSTORE ADD SWAP7 ADD SWAP5 ADD SWAP1 PUSH2 0x558C JUMP JUMPDEST ISZERO PUSH2 0x55F0 JUMPI JUMP JUMPDEST PUSH1 0x40 MLOAD PUSH3 0x461BCD PUSH1 0xE5 SHL DUP2 MSTORE PUSH1 0x20 PUSH1 0x4 DUP3 ADD MSTORE PUSH1 0x1C PUSH1 0x24 DUP3 ADD MSTORE PUSH32 0x4552433732313A20746F6B656E20616C7265616479206D696E74656400000000 PUSH1 0x44 DUP3 ADD MSTORE PUSH1 0x64 SWAP1 REVERT JUMPDEST ISZERO PUSH2 0x563C JUMPI JUMP JUMPDEST PUSH1 0x40 MLOAD PUSH3 0x461BCD PUSH1 0xE5 SHL DUP2 MSTORE PUSH1 0x20 PUSH1 0x4 DUP3 ADD MSTORE PUSH1 0x16 PUSH1 0x24 DUP3 ADD MSTORE PUSH22 0x141C9BD91D58DD08191BD95CC81B9BDD08195E1A5CDD PUSH1 0x52 SHL PUSH1 0x44 DUP3 ADD MSTORE PUSH1 0x64 SWAP1 REVERT JUMPDEST ISZERO PUSH2 0x5681 JUMPI JUMP JUMPDEST PUSH1 0x40 MLOAD PUSH3 0x461BCD PUSH1 0xE5 SHL DUP2 MSTORE PUSH1 0x20 PUSH1 0x4 DUP3 ADD MSTORE PUSH1 0x12 PUSH1 0x24 DUP3 ADD MSTORE PUSH18 0x141C9BD91D58DD081A5CC819195B195D1959 PUSH1 0x72 SHL PUSH1 0x44 DUP3 ADD MSTORE PUSH1 0x64 SWAP1 REVERT JUMPDEST ISZERO PUSH2 0x56C2 JUMPI JUMP JUMPDEST PUSH1 0x40 MLOAD PUSH3 0x461BCD PUSH1 0xE5 SHL DUP2 MSTORE PUSH1 0x20 PUSH1 0x4 DUP3 ADD MSTORE PUSH1 0x25 PUSH1 0x24 DUP3 ADD MSTORE PUSH32 0x4F6E6C792076657269666965642073656C6C6572206F72206F776E657220616C PUSH1 0x44 DUP3 ADD MSTORE PUSH5 0x1B1BDDD959 PUSH1 0xDA SHL PUSH1 0x64 DUP3 ADD MSTORE PUSH1 0x84 SWAP1 REVERT JUMPDEST PUSH1 0x40 MLOAD SWAP1 PUSH2 0x5722 DUP3 PUSH2 0x46BE JUMP JUMPDEST PUSH1 0x0 PUSH1 0x80 DUP4 DUP3 DUP2 MSTORE DUP3 PUSH1 0x20 DUP3 ADD MSTORE DUP3 PUSH1 0x40 DUP3 ADD MSTORE PUSH1 0x60 DUP1 DUP3 ADD MSTORE ADD MSTORE JUMP JUMPDEST DUP1 SLOAD DUP3 LT ISZERO PUSH2 0x4956 JUMPI PUSH1 0x0 MSTORE PUSH1 0x5 PUSH1 0x20 PUSH1 0x0 KECCAK256 SWAP2 MUL ADD SWAP1 PUSH1 0x0 SWAP1 JUMP JUMPDEST PUSH1 0x0 NOT DUP2 EQ PUSH2 0x2EE4 JUMPI PUSH1 0x1 ADD SWAP1 JUMP JUMPDEST DUP1 MLOAD DUP3 LT ISZERO PUSH2 0x4956 JUMPI PUSH1 0x20 SWAP2 PUSH1 0x5 SHL ADD ADD SWAP1 JUMP JUMPDEST SWAP1 PUSH1 0x40 MLOAD PUSH2 0x578C DUP2 PUSH2 0x46BE JUMP JUMPDEST PUSH1 0x80 PUSH1 0xFF PUSH1 0x4 DUP4 SWAP6 DUP1 SLOAD DUP6 MSTORE PUSH1 0x1 DUP1 PUSH1 0xA0 SHL SUB PUSH1 0x1 DUP3 ADD SLOAD AND PUSH1 0x20 DUP7 ADD MSTORE PUSH1 0x2 DUP2 ADD SLOAD PUSH1 0x40 DUP7 ADD MSTORE PUSH2 0x57C0 PUSH1 0x3 DUP3 ADD PUSH2 0x4894 JUMP JUMPDEST PUSH1 0x60 DUP7 ADD MSTORE ADD SLOAD AND ISZERO ISZERO SWAP2 ADD MSTORE JUMP JUMPDEST SWAP1 PUSH2 0x57D9 DUP3 PUSH2 0x53BA JUMP JUMPDEST PUSH2 0x57E6 PUSH1 0x40 MLOAD SWAP2 DUP3 PUSH2 0x46F4 JUMP JUMPDEST DUP3 DUP2 MSTORE DUP1 SWAP3 PUSH2 0x57F7 PUSH1 0x1F NOT SWAP2 PUSH2 0x53BA JUMP JUMPDEST ADD SWAP1 PUSH1 0x0 JUMPDEST DUP3 DUP2 LT PUSH2 0x5808 JUMPI POP POP POP JUMP JUMPDEST PUSH1 0x20 SWAP1 PUSH2 0x5813 PUSH2 0x532E JUMP JUMPDEST DUP3 DUP3 DUP6 ADD ADD MSTORE ADD PUSH2 0x57FC JUMP JUMPDEST SWAP2 SWAP1 DUP3 SUB SWAP2 DUP3 GT PUSH2 0x2EE4 JUMPI JUMP JUMPDEST DUP1 SLOAD PUSH1 0x1 PUSH1 0x40 SHL DUP2 LT ISZERO PUSH2 0x2228 JUMPI PUSH2 0x5849 SWAP2 PUSH1 0x1 DUP3 ADD DUP2 SSTORE PUSH2 0x493A JUMP JUMPDEST SWAP2 SWAP1 SWAP2 PUSH2 0x58CB JUMPI DUP1 MLOAD DUP3 SSTORE PUSH1 0x20 DUP2 ADD MLOAD PUSH1 0x1 DUP4 ADD SSTORE PUSH1 0x40 DUP2 ADD MLOAD PUSH1 0x2 DUP4 ADD SSTORE PUSH1 0x60 DUP2 ADD MLOAD PUSH1 0x3 DUP4 ADD SSTORE PUSH1 0x5 PUSH1 0x4 DUP4 ADD SWAP3 PUSH1 0x1 DUP1 PUSH1 0xA0 SHL SUB SWAP4 DUP5 PUSH1 0x80 DUP6 ADD MLOAD AND PUSH1 0x1 PUSH1 0x1 PUSH1 0x60 SHL SUB PUSH1 0xA0 SHL DUP3 SLOAD AND OR SWAP1 SSTORE ADD SWAP2 PUSH1 0xA0 DUP3 ADD MLOAD AND DUP3 SLOAD SWAP2 PUSH1 0xC0 PUSH1 0xFF PUSH1 0xA0 SHL SWAP2 ADD MLOAD ISZERO ISZERO PUSH1 0xA0 SHL AND SWAP2 PUSH11 0xFFFFFFFFFFFFFFFFFFFFFF PUSH1 0xA8 SHL AND OR OR SWAP1 SSTORE JUMP JUMPDEST PUSH4 0x4E487B71 PUSH1 0xE0 SHL PUSH1 0x0 MSTORE PUSH1 0x0 PUSH1 0x4 MSTORE PUSH1 0x24 PUSH1 0x0 REVERT JUMPDEST PUSH1 0x1 PUSH1 0x1 PUSH1 0xA0 SHL SUB AND DUP1 ISZERO PUSH2 0x5940 JUMPI PUSH1 0x0 DUP1 DUP1 SWAP4 DUP2 SWAP4 GAS CALL PUSH2 0x5901 PUSH2 0x4D5F JUMP JUMPDEST POP ISZERO PUSH2 0x5909 JUMPI JUMP JUMPDEST PUSH1 0x40 MLOAD PUSH3 0x461BCD PUSH1 0xE5 SHL DUP2 MSTORE PUSH1 0x20 PUSH1 0x4 DUP3 ADD MSTORE PUSH1 0xF PUSH1 0x24 DUP3 ADD MSTORE PUSH15 0x151C985B9CD9995C8819985A5B1959 PUSH1 0x8A SHL PUSH1 0x44 DUP3 ADD MSTORE PUSH1 0x64 SWAP1 REVERT JUMPDEST PUSH1 0x40 MLOAD PUSH3 0x461BCD PUSH1 0xE5 SHL DUP2 MSTORE PUSH1 0x20 PUSH1 0x4 DUP3 ADD MSTORE PUSH1 0xF PUSH1 0x24 DUP3 ADD MSTORE PUSH15 0x496E76616C69642061646472657373 PUSH1 0x88 SHL PUSH1 0x44 DUP3 ADD MSTORE PUSH1 0x64 SWAP1 REVERT INVALID LOG2 PUSH5 0x6970667358 0x22 SLT KECCAK256 0xBF REVERT PUSH21 0x834BDAEFFB6E7B3C662B873EB7374A664186CAE1E2 0xE4 SWAP11 0xED PUSH25 0xDCDF366664736F6C6343000813003300000000000000000000 "},"methodIdentifiers":{"approve(address,uint256)":"095ea7b3","balanceOf(address)":"70a08231","buyProduct(uint256)":"8642269e","buyerPurchaseHistory(address,uint256)":"9fa44dbf","createProduct((string,string,uint256,uint256,string,string,string[],string,string,string,string,uint256,uint256))":"b235b4a9","createReview(uint256,uint256,string)":"16d81b38","deleteProduct(uint256)":"ed90c7b7","deleteReview(uint256,uint256)":"24d41a03","getAllProducts()":"02ee3a52","getApproved(uint256)":"081812fc","getBuyerPurchaseHistory(address)":"b27e1697","getMyProducts()":"fdca4ca3","getProduct(uint256)":"b9db15b4","getReviews(uint256)":"9d4a2255","getSellerBalance(address)":"2148893f","getSellerPurchaseHistory(address)":"3c2575d5","isApprovedForAll(address,address)":"e985e9c5","markPurchaseDelivered(uint256,address)":"11aa5b34","name()":"06fdde03","owner()":"8da5cb5b","ownerOf(uint256)":"6352211e","productExists(uint256)":"af55ed64","products(uint256)":"7acc0b20","registerSeller()":"52c9224c","registeredSellers(address)":"c64b8a8f","renounceOwnership()":"715018a6","reviewExists(uint256)":"00d64e76","safeTransferFrom(address,address,uint256)":"42842e0e","safeTransferFrom(address,address,uint256,bytes)":"b88d4fde","sellerBalances(address)":"607eb4e4","sellerProducts(address,uint256)":"c1302b34","sellerPurchaseHistory(address,uint256)":"e585cb2c","sellerStatus(address)":"45de84db","servicePct()":"e01ef6e6","setApprovalForAll(address,bool)":"a22cb465","supportsInterface(bytes4)":"01ffc9a7","symbol()":"95d89b41","tokenURI(uint256)":"c87b56dd","transferFrom(address,address,uint256)":"23b872dd","transferOwnership(address)":"f2fde38b","updateProduct(uint256,(string,string,uint256,uint256,string,string,string[],string,string,string,string,uint256,uint256))":"b1191052","updateSellerStatus(address,uint8)":"97b6f393","withdraw()":"3ccfd60b"}}}}}