{"contracts/HemShop.sol":{"HemShop":{"abi":[{"inputs":[{"internalType":"address","name":"_userSellerManager","type":"address"},{"internalType":"address","name":"_productManager","type":"address"},{"internalType":"address","name":"_categoryManager","type":"address"},{"internalType":"address","name":"_reviewManager","type":"address"},{"internalType":"address","name":"_purchaseManager","type":"address"}],"stateMutability":"nonpayable","type":"constructor"},{"anonymous":false,"inputs":[{"indexed":true,"internalType":"address","name":"owner","type":"address"},{"indexed":true,"internalType":"address","name":"approved","type":"address"},{"indexed":true,"internalType":"uint256","name":"tokenId","type":"uint256"}],"name":"Approval","type":"event"},{"anonymous":false,"inputs":[{"indexed":true,"internalType":"address","name":"owner","type":"address"},{"indexed":true,"internalType":"address","name":"operator","type":"address"},{"indexed":false,"internalType":"bool","name":"approved","type":"bool"}],"name":"ApprovalForAll","type":"event"},{"anonymous":false,"inputs":[{"indexed":true,"internalType":"address","name":"previousOwner","type":"address"},{"indexed":true,"internalType":"address","name":"newOwner","type":"address"}],"name":"OwnershipTransferred","type":"event"},{"anonymous":false,"inputs":[{"indexed":true,"internalType":"address","name":"from","type":"address"},{"indexed":true,"internalType":"address","name":"to","type":"address"},{"indexed":true,"internalType":"uint256","name":"tokenId","type":"uint256"}],"name":"Transfer","type":"event"},{"stateMutability":"payable","type":"fallback"},{"inputs":[{"internalType":"address","name":"to","type":"address"},{"internalType":"uint256","name":"tokenId","type":"uint256"}],"name":"approve","outputs":[],"stateMutability":"nonpayable","type":"function"},{"inputs":[{"internalType":"address","name":"owner","type":"address"}],"name":"balanceOf","outputs":[{"internalType":"uint256","name":"","type":"uint256"}],"stateMutability":"view","type":"function"},{"inputs":[],"name":"categoryManager","outputs":[{"internalType":"address","name":"","type":"address"}],"stateMutability":"view","type":"function"},{"inputs":[{"internalType":"uint256","name":"tokenId","type":"uint256"}],"name":"getApproved","outputs":[{"internalType":"address","name":"","type":"address"}],"stateMutability":"view","type":"function"},{"inputs":[{"internalType":"address","name":"owner","type":"address"},{"internalType":"address","name":"operator","type":"address"}],"name":"isApprovedForAll","outputs":[{"internalType":"bool","name":"","type":"bool"}],"stateMutability":"view","type":"function"},{"inputs":[],"name":"name","outputs":[{"internalType":"string","name":"","type":"string"}],"stateMutability":"view","type":"function"},{"inputs":[],"name":"owner","outputs":[{"internalType":"address","name":"","type":"address"}],"stateMutability":"view","type":"function"},{"inputs":[{"internalType":"uint256","name":"tokenId","type":"uint256"}],"name":"ownerOf","outputs":[{"internalType":"address","name":"","type":"address"}],"stateMutability":"view","type":"function"},{"inputs":[],"name":"productManager","outputs":[{"internalType":"address","name":"","type":"address"}],"stateMutability":"view","type":"function"},{"inputs":[],"name":"purchaseManager","outputs":[{"internalType":"address","name":"","type":"address"}],"stateMutability":"view","type":"function"},{"inputs":[],"name":"renounceOwnership","outputs":[],"stateMutability":"nonpayable","type":"function"},{"inputs":[],"name":"reviewManager","outputs":[{"internalType":"address","name":"","type":"address"}],"stateMutability":"view","type":"function"},{"inputs":[{"internalType":"address","name":"from","type":"address"},{"internalType":"address","name":"to","type":"address"},{"internalType":"uint256","name":"tokenId","type":"uint256"}],"name":"safeTransferFrom","outputs":[],"stateMutability":"nonpayable","type":"function"},{"inputs":[{"internalType":"address","name":"from","type":"address"},{"internalType":"address","name":"to","type":"address"},{"internalType":"uint256","name":"tokenId","type":"uint256"},{"internalType":"bytes","name":"data","type":"bytes"}],"name":"safeTransferFrom","outputs":[],"stateMutability":"nonpayable","type":"function"},{"inputs":[{"internalType":"address","name":"operator","type":"address"},{"internalType":"bool","name":"approved","type":"bool"}],"name":"setApprovalForAll","outputs":[],"stateMutability":"nonpayable","type":"function"},{"inputs":[{"internalType":"bytes4","name":"interfaceId","type":"bytes4"}],"name":"supportsInterface","outputs":[{"internalType":"bool","name":"","type":"bool"}],"stateMutability":"view","type":"function"},{"inputs":[],"name":"symbol","outputs":[{"internalType":"string","name":"","type":"string"}],"stateMutability":"view","type":"function"},{"inputs":[{"internalType":"uint256","name":"tokenId","type":"uint256"}],"name":"tokenURI","outputs":[{"internalType":"string","name":"","type":"string"}],"stateMutability":"view","type":"function"},{"inputs":[{"internalType":"address","name":"from","type":"address"},{"internalType":"address","name":"to","type":"address"},{"internalType":"uint256","name":"tokenId","type":"uint256"}],"name":"transferFrom","outputs":[],"stateMutability":"nonpayable","type":"function"},{"inputs":[{"internalType":"address","name":"newOwner","type":"address"}],"name":"transferOwnership","outputs":[],"stateMutability":"nonpayable","type":"function"},{"inputs":[],"name":"userSellerManager","outputs":[{"internalType":"address","name":"","type":"address"}],"stateMutability":"view","type":"function"},{"stateMutability":"payable","type":"receive"}],"evm":{"bytecode":{"linkReferences":{},"object":"6080346200044457601f1990601f620019513881900391820184168301916001600160401b03831184841017620003405780849260a09460405283398101031262000444576200004f8162000469565b916200005e6020830162000469565b906200006d6040840162000469565b936200008a6080620000826060870162000469565b950162000469565b916200009562000449565b6007815266048656d53686f760cc1b6020820152620000b362000449565b600381526204873760ec1b6020820152815190916001600160401b038211620003405760005490600182811c9216801562000439575b60208310146200031f5781601f849311620003d6575b50602090601f8311600114620003625760009262000356575b50508160011b916000199060031b1c1916176000555b8051916001600160401b038311620003405760015491600183811c9316801562000335575b60208410146200031f5782601f859411620002b9575b50602091601f841160011462000242575060009262000236575b50508160011b916000199060031b1c1916176001555b600680546001600160a01b0319808216339081179093556040519790966001600160a01b039687959194869485938492909183167f8be0079c531659141344cd1fd0a4f28419497f9722a3daafe3b4186f6b6457e0600080a3600160075516896008541617600855168760095416176009551685600a541617600a551683600b541617600b551690600c541617600c5561149290816200047f8239f35b01519050388062000183565b600160009081526000805160206200193183398151915294909116905b818110620002a0575090846001959493921062000286575b505050811b0160015562000199565b015160001960f88460031b161c1916905538808062000277565b929360206001819287860151815501950193016200025f565b60016000529192509060008051602062001931833981519152601f850160051c8101916020861062000314575b90601f86959493920160051c01905b81811062000304575062000169565b60008155859450600101620002f5565b9091508190620002e6565b634e487b7160e01b600052602260045260246000fd5b92607f169262000153565b634e487b7160e01b600052604160045260246000fd5b01519050388062000118565b600080805260008051602062001911833981519152938716905b818110620003bd5750908460019594939210620003a3575b505050811b016000556200012e565b015160001960f88460031b161c1916905538808062000394565b929360206001819287860151815501950193016200037c565b6000805290915060008051602062001911833981519152601f840160051c810191602085106200042e575b90601f859493920160051c01905b8181106200041e5750620000ff565b600081558493506001016200040f565b909150819062000401565b91607f1691620000e9565b600080fd5b60408051919082016001600160401b038111838210176200034057604052565b51906001600160a01b0382168203620004445756fe60806040526004361015610015575b3661119257005b60003560e01c806301ffc9a71461016557806306fdde0314610160578063081812fc1461015b578063095ea7b31461015657806323b872dd1461015157806342842e0e1461014c5780635cbf60cc146101475780636352211e1461014257806370a082311461013d578063715018a6146101385780638da5cb5b1461013357806395d89b411461012e578063a22cb46514610129578063b749293a14610124578063b88d4fde1461011f578063c87b56dd1461011a578063c9b8158314610115578063d86ec23814610110578063e985e9c51461010b578063f2fde38b146101065763f426306f0361000e57610b12565b610a49565b6109ec565b6109c3565b61099a565b610948565b6108bf565b610821565b610735565b610674565b61064b565b6105ed565b61054c565b61052e565b610505565b6104dd565b6104b4565b6103a9565b61034d565b610243565b610181565b6001600160e01b031981160361017c57565b600080fd5b3461017c57602036600319011261017c5760206004356101a08161016a565b63ffffffff60e01b166380ac58cd60e01b81149081156101de575b81156101cd575b506040519015158152f35b6301ffc9a760e01b149050386101c2565b635b5e139f60e01b811491506101bb565b919082519283825260005b84811061021b575050826000602080949584010152601f8019910116010190565b6020818301810151848301820152016101fa565b9060206102409281815201906101ef565b90565b3461017c5760008060031936011261034a57604051908080549060019180831c92808216928315610340575b602092838610851461032c57858852602088019490811561030b57506001146102b3575b6102af876102a381890382610881565b6040519182918261022f565b0390f35b6000805294509192917f290decd9548b62a8d60345a988386fc84ba6bc95484008f6362f93160ef3e5635b8386106102fa57505050910190506102a3826102af3880610293565b8054858701529482019481016102de565b60ff191685525050505090151560051b0190506102a3826102af3880610293565b634e487b7160e01b82526022600452602482fd5b93607f169361026f565b80fd5b3461017c57602036600319011261017c57602061036b600435610c74565b6040516001600160a01b039091168152f35b600435906001600160a01b038216820361017c57565b602435906001600160a01b038216820361017c57565b3461017c57604036600319011261017c576103c261037d565b6024356103ce81610bdf565b916001600160a01b03808416908216811461043057610400936103fb913314908115610402575b50610c02565b610fd0565b005b6001600160a01b0316600090815260056020908152604080832033845290915290205460ff169050386103f5565b60405162461bcd60e51b815260206004820152602160248201527f4552433732313a20617070726f76616c20746f2063757272656e74206f776e656044820152603960f91b6064820152608490fd5b606090600319011261017c576001600160a01b0390600435828116810361017c5791602435908116810361017c579060443590565b3461017c576104006104c53661047f565b916104d86104d38433610d95565b610c98565b610e67565b3461017c576104006104ee3661047f565b90604051926104fc84610860565b60008452610cfa565b3461017c57600036600319011261017c57600c546040516001600160a01b039091168152602090f35b3461017c57602036600319011261017c57602061036b600435610bdf565b3461017c57602036600319011261017c576001600160a01b0361056d61037d565b1680156105965760005260036020526102af604060002054604051918291829190602083019252565b60405162461bcd60e51b815260206004820152602960248201527f4552433732313a2061646472657373207a65726f206973206e6f7420612076616044820152683634b21037bbb732b960b91b6064820152608490fd5b3461017c5760008060031936011261034a57610607610b3b565b600680546001600160a01b0319811690915581906001600160a01b03167f8be0079c531659141344cd1fd0a4f28419497f9722a3daafe3b4186f6b6457e08280a380f35b3461017c57600036600319011261017c576006546040516001600160a01b039091168152602090f35b3461017c5760008060031936011261034a576040519080600190815480831c9280821692831561072b575b602092838610851461032c57858852602088019490811561030b57506001146106d2576102af876102a381890382610881565b600160005294509192917fb10e2d527612073b26eecdfd717e6a320cf44b4afac2b0732d9fcbe2b7fa0cf65b83861061071a57505050910190506102a3826102af3880610293565b8054858701529482019481016106fe565b93607f169361069f565b3461017c57604036600319011261017c5761074e61037d565b602435801515810361017c576001600160a01b038216913383146107dc57816107996107aa9233600052600560205260406000209060018060a01b0316600052602052604060002090565b9060ff801983541691151516179055565b604051901515815233907f17307eab39ab6107e8899845ad3d59bd9653f200f220920489ca2b5937696c3190602090a3005b60405162461bcd60e51b815260206004820152601960248201527f4552433732313a20617070726f766520746f2063616c6c6572000000000000006044820152606490fd5b3461017c57600036600319011261017c576008546040516001600160a01b039091168152602090f35b634e487b7160e01b600052604160045260246000fd5b6020810190811067ffffffffffffffff82111761087c57604052565b61084a565b90601f8019910116810190811067ffffffffffffffff82111761087c57604052565b67ffffffffffffffff811161087c57601f01601f191660200190565b3461017c57608036600319011261017c576108d861037d565b6108e0610393565b6064359167ffffffffffffffff831161017c573660238401121561017c5782600401359161090d836108a3565b9261091b6040519485610881565b808452366024828701011161017c5760208160009260246104009801838801378501015260443591610cfa565b3461017c57602036600319011261017c57610964600435611034565b600060405161097281610860565b526102af60405161098281610860565b600081526040519182916020835260208301906101ef565b3461017c57600036600319011261017c57600b546040516001600160a01b039091168152602090f35b3461017c57600036600319011261017c57600a546040516001600160a01b039091168152602090f35b3461017c57604036600319011261017c57602060ff610a3d610a0c61037d565b610a14610393565b6001600160a01b0391821660009081526005865260408082209290931681526020919091522090565b54166040519015158152f35b3461017c57602036600319011261017c57610a6261037d565b610a6a610b3b565b6001600160a01b03908116908115610abe57600654826bffffffffffffffffffffffff60a01b821617600655167f8be0079c531659141344cd1fd0a4f28419497f9722a3daafe3b4186f6b6457e0600080a3005b60405162461bcd60e51b815260206004820152602660248201527f4f776e61626c653a206e6577206f776e657220697320746865207a65726f206160448201526564647265737360d01b6064820152608490fd5b3461017c57600036600319011261017c576009546040516001600160a01b039091168152602090f35b6006546001600160a01b03163303610b4f57565b606460405162461bcd60e51b815260206004820152602060248201527f4f776e61626c653a2063616c6c6572206973206e6f7420746865206f776e65726044820152fd5b15610b9a57565b60405162461bcd60e51b815260206004820152601860248201527f4552433732313a20696e76616c696420746f6b656e20494400000000000000006044820152606490fd5b6000908152600260205260409020546001600160a01b0316610240811515610b93565b15610c0957565b60405162461bcd60e51b815260206004820152603d60248201527f4552433732313a20617070726f76652063616c6c6572206973206e6f7420746f60448201527f6b656e206f776e6572206f7220617070726f76656420666f7220616c6c0000006064820152608490fd5b610c7d81611034565b6000908152600460205260409020546001600160a01b031690565b15610c9f57565b60405162461bcd60e51b815260206004820152602d60248201527f4552433732313a2063616c6c6572206973206e6f7420746f6b656e206f776e6560448201526c1c881bdc88185c1c1c9bdd9959609a1b6064820152608490fd5b90610d1e939291610d0e6104d38433610d95565b610d19838383610e67565b6110cf565b15610d2557565b60405162461bcd60e51b815280610d3e60048201610d42565b0390fd5b60809060208152603260208201527f4552433732313a207472616e7366657220746f206e6f6e20455243373231526560408201527131b2b4bb32b91034b6b83632b6b2b73a32b960711b60608201520190565b6001600160a01b0380610da784610bdf565b169281831692848414948515610ddd575b50508315610dc7575b50505090565b610dd391929350610c74565b1614388080610dc1565b60009081526005602090815260408083206001600160a01b03949094168352929052205460ff1693503880610db8565b15610e1457565b60405162461bcd60e51b815260206004820152602560248201527f4552433732313a207472616e736665722066726f6d20696e636f72726563742060448201526437bbb732b960d91b6064820152608490fd5b610e8b90610e7484610bdf565b6001600160a01b0382811693909182168414610e0d565b8316928315610f7f57610efe610f5892610ebd85610eb7610eab8a610bdf565b6001600160a01b031690565b14610e0d565b610ee4610ed4886000526004602052604060002090565b80546001600160a01b0319169055565b6001600160a01b0316600090815260036020526040902090565b80546000190190556001600160a01b038116600090815260036020526040902060018154019055610f39856000526002602052604060002090565b80546001600160a01b0319166001600160a01b03909216919091179055565b7fddf252ad1be2c89b69c2b068fc378daa952ba7f163c4a11628f55a4df523b3ef600080a4565b60405162461bcd60e51b8152602060048201526024808201527f4552433732313a207472616e7366657220746f20746865207a65726f206164646044820152637265737360e01b6064820152608490fd5b600082815260046020526040902080546001600160a01b0319166001600160a01b0383161790556001600160a01b038061100984610bdf565b169116907f8c5be1e5ebec7d5bd14f71427d1e84f3dd0314c0f7b2291e5b200ac8c7c3b925600080a4565b600090815260026020526040902054611057906001600160a01b03161515610b93565b565b9081602091031261017c57516102408161016a565b6001600160a01b039182168152911660208201526040810191909152608060608201819052610240929101906101ef565b3d156110ca573d906110b0826108a3565b916110be6040519384610881565b82523d6000602084013e565b606090565b92909190823b1561118957611102926020926000604051809681958294630a85bd0160e11b9a8b8552336004860161106e565b03926001600160a01b03165af160009181611159575b5061114b5761112561109f565b805190816111465760405162461bcd60e51b815280610d3e60048201610d42565b602001fd5b6001600160e01b0319161490565b61117b91925060203d8111611182575b6111738183610881565b810190611059565b9038611118565b503d611169565b50505050600190565b6000356001600160e01b0319166111a8816112a8565b156111dd575060085460009081906001600160a01b03165b368280378136915af43d6000803e156111d8573d6000f35b3d6000fd5b6111e681611304565b15611202575060095460009081906001600160a01b03166111c0565b61120b81611360565b156112275750600a5460009081906001600160a01b03166111c0565b611230816113bc565b1561124c5750600b5460009081906001600160a01b03166111c0565b61125590611400565b1561127057600c5460009081906001600160a01b03166111c0565b60405162461bcd60e51b815260206004820152601060248201526f2ab735b737bbb710333ab731ba34b7b760811b6044820152606490fd5b63ffffffff60e01b16637e8555ed60e01b81149081156112f3575b81156112e2575b81156112d4575090565b633ac4710d60e21b14919050565b632149f2e760e11b811491506112ca565b636b1bee7d60e11b811491506112c3565b63ffffffff60e01b166301bd649f60e61b811490811561134f575b811561133e575b8115611330575090565b632e76c56d60e21b14919050565b63ed90c7b760e01b81149150611326565b6316ab9de760e31b8114915061131f565b63ffffffff60e01b16636e14c34160e11b81149081156113ab575b811561139a575b811561138c575090565b637982969360e11b14919050565b63331126c760e11b81149150611382565b637d3978db60e01b8114915061137b565b63ffffffff60e01b166302db036760e31b81149081156113ef575b81156113e1575090565b639d4a225560e01b14919050565b6324d41a0360e01b811491506113d7565b63ffffffff60e01b1663731bc05d60e01b811490811561144b575b811561143a575b811561142c575090565b632148893f60e01b14919050565b63046a96cd60e21b81149150611422565b633ccfd60b60e01b8114915061141b56fea264697066735822122092e07c8823d291e434610f2cf91883a9143e9a66c1c00cb6d1a39734127f3a6964736f6c63430008130033290decd9548b62a8d60345a988386fc84ba6bc95484008f6362f93160ef3e563b10e2d527612073b26eecdfd717e6a320cf44b4afac2b0732d9fcbe2b7fa0cf6","opcodes":"PUSH1 0x80 CALLVALUE PUSH3 0x444 JUMPI PUSH1 0x1F NOT SWAP1 PUSH1 0x1F PUSH3 0x1951 CODESIZE DUP2 SWAP1 SUB SWAP2 DUP3 ADD DUP5 AND DUP4 ADD SWAP2 PUSH1 0x1 PUSH1 0x1 PUSH1 0x40 SHL SUB DUP4 GT DUP5 DUP5 LT OR PUSH3 0x340 JUMPI DUP1 DUP5 SWAP3 PUSH1 0xA0 SWAP5 PUSH1 0x40 MSTORE DUP4 CODECOPY DUP2 ADD SUB SLT PUSH3 0x444 JUMPI PUSH3 0x4F DUP2 PUSH3 0x469 JUMP JUMPDEST SWAP2 PUSH3 0x5E PUSH1 0x20 DUP4 ADD PUSH3 0x469 JUMP JUMPDEST SWAP1 PUSH3 0x6D PUSH1 0x40 DUP5 ADD PUSH3 0x469 JUMP JUMPDEST SWAP4 PUSH3 0x8A PUSH1 0x80 PUSH3 0x82 PUSH1 0x60 DUP8 ADD PUSH3 0x469 JUMP JUMPDEST SWAP6 ADD PUSH3 0x469 JUMP JUMPDEST SWAP2 PUSH3 0x95 PUSH3 0x449 JUMP JUMPDEST PUSH1 0x7 DUP2 MSTORE PUSH7 0x48656D53686F7 PUSH1 0xCC SHL PUSH1 0x20 DUP3 ADD MSTORE PUSH3 0xB3 PUSH3 0x449 JUMP JUMPDEST PUSH1 0x3 DUP2 MSTORE PUSH3 0x48737 PUSH1 0xEC SHL PUSH1 0x20 DUP3 ADD MSTORE DUP2 MLOAD SWAP1 SWAP2 PUSH1 0x1 PUSH1 0x1 PUSH1 0x40 SHL SUB DUP3 GT PUSH3 0x340 JUMPI PUSH1 0x0 SLOAD SWAP1 PUSH1 0x1 DUP3 DUP2 SHR SWAP3 AND DUP1 ISZERO PUSH3 0x439 JUMPI JUMPDEST PUSH1 0x20 DUP4 LT EQ PUSH3 0x31F JUMPI DUP2 PUSH1 0x1F DUP5 SWAP4 GT PUSH3 0x3D6 JUMPI JUMPDEST POP PUSH1 0x20 SWAP1 PUSH1 0x1F DUP4 GT PUSH1 0x1 EQ PUSH3 0x362 JUMPI PUSH1 0x0 SWAP3 PUSH3 0x356 JUMPI JUMPDEST POP POP DUP2 PUSH1 0x1 SHL SWAP2 PUSH1 0x0 NOT SWAP1 PUSH1 0x3 SHL SHR NOT AND OR PUSH1 0x0 SSTORE JUMPDEST DUP1 MLOAD SWAP2 PUSH1 0x1 PUSH1 0x1 PUSH1 0x40 SHL SUB DUP4 GT PUSH3 0x340 JUMPI PUSH1 0x1 SLOAD SWAP2 PUSH1 0x1 DUP4 DUP2 SHR SWAP4 AND DUP1 ISZERO PUSH3 0x335 JUMPI JUMPDEST PUSH1 0x20 DUP5 LT EQ PUSH3 0x31F JUMPI DUP3 PUSH1 0x1F DUP6 SWAP5 GT PUSH3 0x2B9 JUMPI JUMPDEST POP PUSH1 0x20 SWAP2 PUSH1 0x1F DUP5 GT PUSH1 0x1 EQ PUSH3 0x242 JUMPI POP PUSH1 0x0 SWAP3 PUSH3 0x236 JUMPI JUMPDEST POP POP DUP2 PUSH1 0x1 SHL SWAP2 PUSH1 0x0 NOT SWAP1 PUSH1 0x3 SHL SHR NOT AND OR PUSH1 0x1 SSTORE JUMPDEST PUSH1 0x6 DUP1 SLOAD PUSH1 0x1 PUSH1 0x1 PUSH1 0xA0 SHL SUB NOT DUP1 DUP3 AND CALLER SWAP1 DUP2 OR SWAP1 SWAP4 SSTORE PUSH1 0x40 MLOAD SWAP8 SWAP1 SWAP7 PUSH1 0x1 PUSH1 0x1 PUSH1 0xA0 SHL SUB SWAP7 DUP8 SWAP6 SWAP2 SWAP5 DUP7 SWAP5 DUP6 SWAP4 DUP5 SWAP3 SWAP1 SWAP2 DUP4 AND PUSH32 0x8BE0079C531659141344CD1FD0A4F28419497F9722A3DAAFE3B4186F6B6457E0 PUSH1 0x0 DUP1 LOG3 PUSH1 0x1 PUSH1 0x7 SSTORE AND DUP10 PUSH1 0x8 SLOAD AND OR PUSH1 0x8 SSTORE AND DUP8 PUSH1 0x9 SLOAD AND OR PUSH1 0x9 SSTORE AND DUP6 PUSH1 0xA SLOAD AND OR PUSH1 0xA SSTORE AND DUP4 PUSH1 0xB SLOAD AND OR PUSH1 0xB SSTORE AND SWAP1 PUSH1 0xC SLOAD AND OR PUSH1 0xC SSTORE PUSH2 0x1492 SWAP1 DUP2 PUSH3 0x47F DUP3 CODECOPY RETURN JUMPDEST ADD MLOAD SWAP1 POP CODESIZE DUP1 PUSH3 0x183 JUMP JUMPDEST PUSH1 0x1 PUSH1 0x0 SWAP1 DUP2 MSTORE PUSH1 0x0 DUP1 MLOAD PUSH1 0x20 PUSH3 0x1931 DUP4 CODECOPY DUP2 MLOAD SWAP2 MSTORE SWAP5 SWAP1 SWAP2 AND SWAP1 JUMPDEST DUP2 DUP2 LT PUSH3 0x2A0 JUMPI POP SWAP1 DUP5 PUSH1 0x1 SWAP6 SWAP5 SWAP4 SWAP3 LT PUSH3 0x286 JUMPI JUMPDEST POP POP POP DUP2 SHL ADD PUSH1 0x1 SSTORE PUSH3 0x199 JUMP JUMPDEST ADD MLOAD PUSH1 0x0 NOT PUSH1 0xF8 DUP5 PUSH1 0x3 SHL AND SHR NOT AND SWAP1 SSTORE CODESIZE DUP1 DUP1 PUSH3 0x277 JUMP JUMPDEST SWAP3 SWAP4 PUSH1 0x20 PUSH1 0x1 DUP2 SWAP3 DUP8 DUP7 ADD MLOAD DUP2 SSTORE ADD SWAP6 ADD SWAP4 ADD PUSH3 0x25F JUMP JUMPDEST PUSH1 0x1 PUSH1 0x0 MSTORE SWAP2 SWAP3 POP SWAP1 PUSH1 0x0 DUP1 MLOAD PUSH1 0x20 PUSH3 0x1931 DUP4 CODECOPY DUP2 MLOAD SWAP2 MSTORE PUSH1 0x1F DUP6 ADD PUSH1 0x5 SHR DUP2 ADD SWAP2 PUSH1 0x20 DUP7 LT PUSH3 0x314 JUMPI JUMPDEST SWAP1 PUSH1 0x1F DUP7 SWAP6 SWAP5 SWAP4 SWAP3 ADD PUSH1 0x5 SHR ADD SWAP1 JUMPDEST DUP2 DUP2 LT PUSH3 0x304 JUMPI POP PUSH3 0x169 JUMP JUMPDEST PUSH1 0x0 DUP2 SSTORE DUP6 SWAP5 POP PUSH1 0x1 ADD PUSH3 0x2F5 JUMP JUMPDEST SWAP1 SWAP2 POP DUP2 SWAP1 PUSH3 0x2E6 JUMP JUMPDEST PUSH4 0x4E487B71 PUSH1 0xE0 SHL PUSH1 0x0 MSTORE PUSH1 0x22 PUSH1 0x4 MSTORE PUSH1 0x24 PUSH1 0x0 REVERT JUMPDEST SWAP3 PUSH1 0x7F AND SWAP3 PUSH3 0x153 JUMP JUMPDEST PUSH4 0x4E487B71 PUSH1 0xE0 SHL PUSH1 0x0 MSTORE PUSH1 0x41 PUSH1 0x4 MSTORE PUSH1 0x24 PUSH1 0x0 REVERT JUMPDEST ADD MLOAD SWAP1 POP CODESIZE DUP1 PUSH3 0x118 JUMP JUMPDEST PUSH1 0x0 DUP1 DUP1 MSTORE PUSH1 0x0 DUP1 MLOAD PUSH1 0x20 PUSH3 0x1911 DUP4 CODECOPY DUP2 MLOAD SWAP2 MSTORE SWAP4 DUP8 AND SWAP1 JUMPDEST DUP2 DUP2 LT PUSH3 0x3BD JUMPI POP SWAP1 DUP5 PUSH1 0x1 SWAP6 SWAP5 SWAP4 SWAP3 LT PUSH3 0x3A3 JUMPI JUMPDEST POP POP POP DUP2 SHL ADD PUSH1 0x0 SSTORE PUSH3 0x12E JUMP JUMPDEST ADD MLOAD PUSH1 0x0 NOT PUSH1 0xF8 DUP5 PUSH1 0x3 SHL AND SHR NOT AND SWAP1 SSTORE CODESIZE DUP1 DUP1 PUSH3 0x394 JUMP JUMPDEST SWAP3 SWAP4 PUSH1 0x20 PUSH1 0x1 DUP2 SWAP3 DUP8 DUP7 ADD MLOAD DUP2 SSTORE ADD SWAP6 ADD SWAP4 ADD PUSH3 0x37C JUMP JUMPDEST PUSH1 0x0 DUP1 MSTORE SWAP1 SWAP2 POP PUSH1 0x0 DUP1 MLOAD PUSH1 0x20 PUSH3 0x1911 DUP4 CODECOPY DUP2 MLOAD SWAP2 MSTORE PUSH1 0x1F DUP5 ADD PUSH1 0x5 SHR DUP2 ADD SWAP2 PUSH1 0x20 DUP6 LT PUSH3 0x42E JUMPI JUMPDEST SWAP1 PUSH1 0x1F DUP6 SWAP5 SWAP4 SWAP3 ADD PUSH1 0x5 SHR ADD SWAP1 JUMPDEST DUP2 DUP2 LT PUSH3 0x41E JUMPI POP PUSH3 0xFF JUMP JUMPDEST PUSH1 0x0 DUP2 SSTORE DUP5 SWAP4 POP PUSH1 0x1 ADD PUSH3 0x40F JUMP JUMPDEST SWAP1 SWAP2 POP DUP2 SWAP1 PUSH3 0x401 JUMP JUMPDEST SWAP2 PUSH1 0x7F AND SWAP2 PUSH3 0xE9 JUMP JUMPDEST PUSH1 0x0 DUP1 REVERT JUMPDEST PUSH1 0x40 DUP1 MLOAD SWAP2 SWAP1 DUP3 ADD PUSH1 0x1 PUSH1 0x1 PUSH1 0x40 SHL SUB DUP2 GT DUP4 DUP3 LT OR PUSH3 0x340 JUMPI PUSH1 0x40 MSTORE JUMP JUMPDEST MLOAD SWAP1 PUSH1 0x1 PUSH1 0x1 PUSH1 0xA0 SHL SUB DUP3 AND DUP3 SUB PUSH3 0x444 JUMPI JUMP INVALID PUSH1 0x80 PUSH1 0x40 MSTORE PUSH1 0x4 CALLDATASIZE LT ISZERO PUSH2 0x15 JUMPI JUMPDEST CALLDATASIZE PUSH2 0x1192 JUMPI STOP JUMPDEST PUSH1 0x0 CALLDATALOAD PUSH1 0xE0 SHR DUP1 PUSH4 0x1FFC9A7 EQ PUSH2 0x165 JUMPI DUP1 PUSH4 0x6FDDE03 EQ PUSH2 0x160 JUMPI DUP1 PUSH4 0x81812FC EQ PUSH2 0x15B JUMPI DUP1 PUSH4 0x95EA7B3 EQ PUSH2 0x156 JUMPI DUP1 PUSH4 0x23B872DD EQ PUSH2 0x151 JUMPI DUP1 PUSH4 0x42842E0E EQ PUSH2 0x14C JUMPI DUP1 PUSH4 0x5CBF60CC EQ PUSH2 0x147 JUMPI DUP1 PUSH4 0x6352211E EQ PUSH2 0x142 JUMPI DUP1 PUSH4 0x70A08231 EQ PUSH2 0x13D JUMPI DUP1 PUSH4 0x715018A6 EQ PUSH2 0x138 JUMPI DUP1 PUSH4 0x8DA5CB5B EQ PUSH2 0x133 JUMPI DUP1 PUSH4 0x95D89B41 EQ PUSH2 0x12E JUMPI DUP1 PUSH4 0xA22CB465 EQ PUSH2 0x129 JUMPI DUP1 PUSH4 0xB749293A EQ PUSH2 0x124 JUMPI DUP1 PUSH4 0xB88D4FDE EQ PUSH2 0x11F JUMPI DUP1 PUSH4 0xC87B56DD EQ PUSH2 0x11A JUMPI DUP1 PUSH4 0xC9B81583 EQ PUSH2 0x115 JUMPI DUP1 PUSH4 0xD86EC238 EQ PUSH2 0x110 JUMPI DUP1 PUSH4 0xE985E9C5 EQ PUSH2 0x10B JUMPI DUP1 PUSH4 0xF2FDE38B EQ PUSH2 0x106 JUMPI PUSH4 0xF426306F SUB PUSH2 0xE JUMPI PUSH2 0xB12 JUMP JUMPDEST PUSH2 0xA49 JUMP JUMPDEST PUSH2 0x9EC JUMP JUMPDEST PUSH2 0x9C3 JUMP JUMPDEST PUSH2 0x99A JUMP JUMPDEST PUSH2 0x948 JUMP JUMPDEST PUSH2 0x8BF JUMP JUMPDEST PUSH2 0x821 JUMP JUMPDEST PUSH2 0x735 JUMP JUMPDEST PUSH2 0x674 JUMP JUMPDEST PUSH2 0x64B JUMP JUMPDEST PUSH2 0x5ED JUMP JUMPDEST PUSH2 0x54C JUMP JUMPDEST PUSH2 0x52E JUMP JUMPDEST PUSH2 0x505 JUMP JUMPDEST PUSH2 0x4DD JUMP JUMPDEST PUSH2 0x4B4 JUMP JUMPDEST PUSH2 0x3A9 JUMP JUMPDEST PUSH2 0x34D JUMP JUMPDEST PUSH2 0x243 JUMP JUMPDEST PUSH2 0x181 JUMP JUMPDEST PUSH1 0x1 PUSH1 0x1 PUSH1 0xE0 SHL SUB NOT DUP2 AND SUB PUSH2 0x17C JUMPI JUMP JUMPDEST PUSH1 0x0 DUP1 REVERT JUMPDEST CALLVALUE PUSH2 0x17C JUMPI PUSH1 0x20 CALLDATASIZE PUSH1 0x3 NOT ADD SLT PUSH2 0x17C JUMPI PUSH1 0x20 PUSH1 0x4 CALLDATALOAD PUSH2 0x1A0 DUP2 PUSH2 0x16A JUMP JUMPDEST PUSH4 0xFFFFFFFF PUSH1 0xE0 SHL AND PUSH4 0x80AC58CD PUSH1 0xE0 SHL DUP2 EQ SWAP1 DUP2 ISZERO PUSH2 0x1DE JUMPI JUMPDEST DUP2 ISZERO PUSH2 0x1CD JUMPI JUMPDEST POP PUSH1 0x40 MLOAD SWAP1 ISZERO ISZERO DUP2 MSTORE RETURN JUMPDEST PUSH4 0x1FFC9A7 PUSH1 0xE0 SHL EQ SWAP1 POP CODESIZE PUSH2 0x1C2 JUMP JUMPDEST PUSH4 0x5B5E139F PUSH1 0xE0 SHL DUP2 EQ SWAP2 POP PUSH2 0x1BB JUMP JUMPDEST SWAP2 SWAP1 DUP3 MLOAD SWAP3 DUP4 DUP3 MSTORE PUSH1 0x0 JUMPDEST DUP5 DUP2 LT PUSH2 0x21B JUMPI POP POP DUP3 PUSH1 0x0 PUSH1 0x20 DUP1 SWAP5 SWAP6 DUP5 ADD ADD MSTORE PUSH1 0x1F DUP1 NOT SWAP2 ADD AND ADD ADD SWAP1 JUMP JUMPDEST PUSH1 0x20 DUP2 DUP4 ADD DUP2 ADD MLOAD DUP5 DUP4 ADD DUP3 ADD MSTORE ADD PUSH2 0x1FA JUMP JUMPDEST SWAP1 PUSH1 0x20 PUSH2 0x240 SWAP3 DUP2 DUP2 MSTORE ADD SWAP1 PUSH2 0x1EF JUMP JUMPDEST SWAP1 JUMP JUMPDEST CALLVALUE PUSH2 0x17C JUMPI PUSH1 0x0 DUP1 PUSH1 0x3 NOT CALLDATASIZE ADD SLT PUSH2 0x34A JUMPI PUSH1 0x40 MLOAD SWAP1 DUP1 DUP1 SLOAD SWAP1 PUSH1 0x1 SWAP2 DUP1 DUP4 SHR SWAP3 DUP1 DUP3 AND SWAP3 DUP4 ISZERO PUSH2 0x340 JUMPI JUMPDEST PUSH1 0x20 SWAP3 DUP4 DUP7 LT DUP6 EQ PUSH2 0x32C JUMPI DUP6 DUP9 MSTORE PUSH1 0x20 DUP9 ADD SWAP5 SWAP1 DUP2 ISZERO PUSH2 0x30B JUMPI POP PUSH1 0x1 EQ PUSH2 0x2B3 JUMPI JUMPDEST PUSH2 0x2AF DUP8 PUSH2 0x2A3 DUP2 DUP10 SUB DUP3 PUSH2 0x881 JUMP JUMPDEST PUSH1 0x40 MLOAD SWAP2 DUP3 SWAP2 DUP3 PUSH2 0x22F JUMP JUMPDEST SUB SWAP1 RETURN JUMPDEST PUSH1 0x0 DUP1 MSTORE SWAP5 POP SWAP2 SWAP3 SWAP2 PUSH32 0x290DECD9548B62A8D60345A988386FC84BA6BC95484008F6362F93160EF3E563 JUMPDEST DUP4 DUP7 LT PUSH2 0x2FA JUMPI POP POP POP SWAP2 ADD SWAP1 POP PUSH2 0x2A3 DUP3 PUSH2 0x2AF CODESIZE DUP1 PUSH2 0x293 JUMP JUMPDEST DUP1 SLOAD DUP6 DUP8 ADD MSTORE SWAP5 DUP3 ADD SWAP5 DUP2 ADD PUSH2 0x2DE JUMP JUMPDEST PUSH1 0xFF NOT AND DUP6 MSTORE POP POP POP POP SWAP1 ISZERO ISZERO PUSH1 0x5 SHL ADD SWAP1 POP PUSH2 0x2A3 DUP3 PUSH2 0x2AF CODESIZE DUP1 PUSH2 0x293 JUMP JUMPDEST PUSH4 0x4E487B71 PUSH1 0xE0 SHL DUP3 MSTORE PUSH1 0x22 PUSH1 0x4 MSTORE PUSH1 0x24 DUP3 REVERT JUMPDEST SWAP4 PUSH1 0x7F AND SWAP4 PUSH2 0x26F JUMP JUMPDEST DUP1 REVERT JUMPDEST CALLVALUE PUSH2 0x17C JUMPI PUSH1 0x20 CALLDATASIZE PUSH1 0x3 NOT ADD SLT PUSH2 0x17C JUMPI PUSH1 0x20 PUSH2 0x36B PUSH1 0x4 CALLDATALOAD PUSH2 0xC74 JUMP JUMPDEST PUSH1 0x40 MLOAD PUSH1 0x1 PUSH1 0x1 PUSH1 0xA0 SHL SUB SWAP1 SWAP2 AND DUP2 MSTORE RETURN JUMPDEST PUSH1 0x4 CALLDATALOAD SWAP1 PUSH1 0x1 PUSH1 0x1 PUSH1 0xA0 SHL SUB DUP3 AND DUP3 SUB PUSH2 0x17C JUMPI JUMP JUMPDEST PUSH1 0x24 CALLDATALOAD SWAP1 PUSH1 0x1 PUSH1 0x1 PUSH1 0xA0 SHL SUB DUP3 AND DUP3 SUB PUSH2 0x17C JUMPI JUMP JUMPDEST CALLVALUE PUSH2 0x17C JUMPI PUSH1 0x40 CALLDATASIZE PUSH1 0x3 NOT ADD SLT PUSH2 0x17C JUMPI PUSH2 0x3C2 PUSH2 0x37D JUMP JUMPDEST PUSH1 0x24 CALLDATALOAD PUSH2 0x3CE DUP2 PUSH2 0xBDF JUMP JUMPDEST SWAP2 PUSH1 0x1 PUSH1 0x1 PUSH1 0xA0 SHL SUB DUP1 DUP5 AND SWAP1 DUP3 AND DUP2 EQ PUSH2 0x430 JUMPI PUSH2 0x400 SWAP4 PUSH2 0x3FB SWAP2 CALLER EQ SWAP1 DUP2 ISZERO PUSH2 0x402 JUMPI JUMPDEST POP PUSH2 0xC02 JUMP JUMPDEST PUSH2 0xFD0 JUMP JUMPDEST STOP JUMPDEST PUSH1 0x1 PUSH1 0x1 PUSH1 0xA0 SHL SUB AND PUSH1 0x0 SWAP1 DUP2 MSTORE PUSH1 0x5 PUSH1 0x20 SWAP1 DUP2 MSTORE PUSH1 0x40 DUP1 DUP4 KECCAK256 CALLER DUP5 MSTORE SWAP1 SWAP2 MSTORE SWAP1 KECCAK256 SLOAD PUSH1 0xFF AND SWAP1 POP CODESIZE PUSH2 0x3F5 JUMP JUMPDEST PUSH1 0x40 MLOAD PUSH3 0x461BCD PUSH1 0xE5 SHL DUP2 MSTORE PUSH1 0x20 PUSH1 0x4 DUP3 ADD MSTORE PUSH1 0x21 PUSH1 0x24 DUP3 ADD MSTORE PUSH32 0x4552433732313A20617070726F76616C20746F2063757272656E74206F776E65 PUSH1 0x44 DUP3 ADD MSTORE PUSH1 0x39 PUSH1 0xF9 SHL PUSH1 0x64 DUP3 ADD MSTORE PUSH1 0x84 SWAP1 REVERT JUMPDEST PUSH1 0x60 SWAP1 PUSH1 0x3 NOT ADD SLT PUSH2 0x17C JUMPI PUSH1 0x1 PUSH1 0x1 PUSH1 0xA0 SHL SUB SWAP1 PUSH1 0x4 CALLDATALOAD DUP3 DUP2 AND DUP2 SUB PUSH2 0x17C JUMPI SWAP2 PUSH1 0x24 CALLDATALOAD SWAP1 DUP2 AND DUP2 SUB PUSH2 0x17C JUMPI SWAP1 PUSH1 0x44 CALLDATALOAD SWAP1 JUMP JUMPDEST CALLVALUE PUSH2 0x17C JUMPI PUSH2 0x400 PUSH2 0x4C5 CALLDATASIZE PUSH2 0x47F JUMP JUMPDEST SWAP2 PUSH2 0x4D8 PUSH2 0x4D3 DUP5 CALLER PUSH2 0xD95 JUMP JUMPDEST PUSH2 0xC98 JUMP JUMPDEST PUSH2 0xE67 JUMP JUMPDEST CALLVALUE PUSH2 0x17C JUMPI PUSH2 0x400 PUSH2 0x4EE CALLDATASIZE PUSH2 0x47F JUMP JUMPDEST SWAP1 PUSH1 0x40 MLOAD SWAP3 PUSH2 0x4FC DUP5 PUSH2 0x860 JUMP JUMPDEST PUSH1 0x0 DUP5 MSTORE PUSH2 0xCFA JUMP JUMPDEST CALLVALUE PUSH2 0x17C JUMPI PUSH1 0x0 CALLDATASIZE PUSH1 0x3 NOT ADD SLT PUSH2 0x17C JUMPI PUSH1 0xC SLOAD PUSH1 0x40 MLOAD PUSH1 0x1 PUSH1 0x1 PUSH1 0xA0 SHL SUB SWAP1 SWAP2 AND DUP2 MSTORE PUSH1 0x20 SWAP1 RETURN JUMPDEST CALLVALUE PUSH2 0x17C JUMPI PUSH1 0x20 CALLDATASIZE PUSH1 0x3 NOT ADD SLT PUSH2 0x17C JUMPI PUSH1 0x20 PUSH2 0x36B PUSH1 0x4 CALLDATALOAD PUSH2 0xBDF JUMP JUMPDEST CALLVALUE PUSH2 0x17C JUMPI PUSH1 0x20 CALLDATASIZE PUSH1 0x3 NOT ADD SLT PUSH2 0x17C JUMPI PUSH1 0x1 PUSH1 0x1 PUSH1 0xA0 SHL SUB PUSH2 0x56D PUSH2 0x37D JUMP JUMPDEST AND DUP1 ISZERO PUSH2 0x596 JUMPI PUSH1 0x0 MSTORE PUSH1 0x3 PUSH1 0x20 MSTORE PUSH2 0x2AF PUSH1 0x40 PUSH1 0x0 KECCAK256 SLOAD PUSH1 0x40 MLOAD SWAP2 DUP3 SWAP2 DUP3 SWAP2 SWAP1 PUSH1 0x20 DUP4 ADD SWAP3 MSTORE JUMP JUMPDEST PUSH1 0x40 MLOAD PUSH3 0x461BCD PUSH1 0xE5 SHL DUP2 MSTORE PUSH1 0x20 PUSH1 0x4 DUP3 ADD MSTORE PUSH1 0x29 PUSH1 0x24 DUP3 ADD MSTORE PUSH32 0x4552433732313A2061646472657373207A65726F206973206E6F742061207661 PUSH1 0x44 DUP3 ADD MSTORE PUSH9 0x3634B21037BBB732B9 PUSH1 0xB9 SHL PUSH1 0x64 DUP3 ADD MSTORE PUSH1 0x84 SWAP1 REVERT JUMPDEST CALLVALUE PUSH2 0x17C JUMPI PUSH1 0x0 DUP1 PUSH1 0x3 NOT CALLDATASIZE ADD SLT PUSH2 0x34A JUMPI PUSH2 0x607 PUSH2 0xB3B JUMP JUMPDEST PUSH1 0x6 DUP1 SLOAD PUSH1 0x1 PUSH1 0x1 PUSH1 0xA0 SHL SUB NOT DUP2 AND SWAP1 SWAP2 SSTORE DUP2 SWAP1 PUSH1 0x1 PUSH1 0x1 PUSH1 0xA0 SHL SUB AND PUSH32 0x8BE0079C531659141344CD1FD0A4F28419497F9722A3DAAFE3B4186F6B6457E0 DUP3 DUP1 LOG3 DUP1 RETURN JUMPDEST CALLVALUE PUSH2 0x17C JUMPI PUSH1 0x0 CALLDATASIZE PUSH1 0x3 NOT ADD SLT PUSH2 0x17C JUMPI PUSH1 0x6 SLOAD PUSH1 0x40 MLOAD PUSH1 0x1 PUSH1 0x1 PUSH1 0xA0 SHL SUB SWAP1 SWAP2 AND DUP2 MSTORE PUSH1 0x20 SWAP1 RETURN JUMPDEST CALLVALUE PUSH2 0x17C JUMPI PUSH1 0x0 DUP1 PUSH1 0x3 NOT CALLDATASIZE ADD SLT PUSH2 0x34A JUMPI PUSH1 0x40 MLOAD SWAP1 DUP1 PUSH1 0x1 SWAP1 DUP2 SLOAD DUP1 DUP4 SHR SWAP3 DUP1 DUP3 AND SWAP3 DUP4 ISZERO PUSH2 0x72B JUMPI JUMPDEST PUSH1 0x20 SWAP3 DUP4 DUP7 LT DUP6 EQ PUSH2 0x32C JUMPI DUP6 DUP9 MSTORE PUSH1 0x20 DUP9 ADD SWAP5 SWAP1 DUP2 ISZERO PUSH2 0x30B JUMPI POP PUSH1 0x1 EQ PUSH2 0x6D2 JUMPI PUSH2 0x2AF DUP8 PUSH2 0x2A3 DUP2 DUP10 SUB DUP3 PUSH2 0x881 JUMP JUMPDEST PUSH1 0x1 PUSH1 0x0 MSTORE SWAP5 POP SWAP2 SWAP3 SWAP2 PUSH32 0xB10E2D527612073B26EECDFD717E6A320CF44B4AFAC2B0732D9FCBE2B7FA0CF6 JUMPDEST DUP4 DUP7 LT PUSH2 0x71A JUMPI POP POP POP SWAP2 ADD SWAP1 POP PUSH2 0x2A3 DUP3 PUSH2 0x2AF CODESIZE DUP1 PUSH2 0x293 JUMP JUMPDEST DUP1 SLOAD DUP6 DUP8 ADD MSTORE SWAP5 DUP3 ADD SWAP5 DUP2 ADD PUSH2 0x6FE JUMP JUMPDEST SWAP4 PUSH1 0x7F AND SWAP4 PUSH2 0x69F JUMP JUMPDEST CALLVALUE PUSH2 0x17C JUMPI PUSH1 0x40 CALLDATASIZE PUSH1 0x3 NOT ADD SLT PUSH2 0x17C JUMPI PUSH2 0x74E PUSH2 0x37D JUMP JUMPDEST PUSH1 0x24 CALLDATALOAD DUP1 ISZERO ISZERO DUP2 SUB PUSH2 0x17C JUMPI PUSH1 0x1 PUSH1 0x1 PUSH1 0xA0 SHL SUB DUP3 AND SWAP2 CALLER DUP4 EQ PUSH2 0x7DC JUMPI DUP2 PUSH2 0x799 PUSH2 0x7AA SWAP3 CALLER PUSH1 0x0 MSTORE PUSH1 0x5 PUSH1 0x20 MSTORE PUSH1 0x40 PUSH1 0x0 KECCAK256 SWAP1 PUSH1 0x1 DUP1 PUSH1 0xA0 SHL SUB AND PUSH1 0x0 MSTORE PUSH1 0x20 MSTORE PUSH1 0x40 PUSH1 0x0 KECCAK256 SWAP1 JUMP JUMPDEST SWAP1 PUSH1 0xFF DUP1 NOT DUP4 SLOAD AND SWAP2 ISZERO ISZERO AND OR SWAP1 SSTORE JUMP JUMPDEST PUSH1 0x40 MLOAD SWAP1 ISZERO ISZERO DUP2 MSTORE CALLER SWAP1 PUSH32 0x17307EAB39AB6107E8899845AD3D59BD9653F200F220920489CA2B5937696C31 SWAP1 PUSH1 0x20 SWAP1 LOG3 STOP JUMPDEST PUSH1 0x40 MLOAD PUSH3 0x461BCD PUSH1 0xE5 SHL DUP2 MSTORE PUSH1 0x20 PUSH1 0x4 DUP3 ADD MSTORE PUSH1 0x19 PUSH1 0x24 DUP3 ADD MSTORE PUSH32 0x4552433732313A20617070726F766520746F2063616C6C657200000000000000 PUSH1 0x44 DUP3 ADD MSTORE PUSH1 0x64 SWAP1 REVERT JUMPDEST CALLVALUE PUSH2 0x17C JUMPI PUSH1 0x0 CALLDATASIZE PUSH1 0x3 NOT ADD SLT PUSH2 0x17C JUMPI PUSH1 0x8 SLOAD PUSH1 0x40 MLOAD PUSH1 0x1 PUSH1 0x1 PUSH1 0xA0 SHL SUB SWAP1 SWAP2 AND DUP2 MSTORE PUSH1 0x20 SWAP1 RETURN JUMPDEST PUSH4 0x4E487B71 PUSH1 0xE0 SHL PUSH1 0x0 MSTORE PUSH1 0x41 PUSH1 0x4 MSTORE PUSH1 0x24 PUSH1 0x0 REVERT JUMPDEST PUSH1 0x20 DUP2 ADD SWAP1 DUP2 LT PUSH8 0xFFFFFFFFFFFFFFFF DUP3 GT OR PUSH2 0x87C JUMPI PUSH1 0x40 MSTORE JUMP JUMPDEST PUSH2 0x84A JUMP JUMPDEST SWAP1 PUSH1 0x1F DUP1 NOT SWAP2 ADD AND DUP2 ADD SWAP1 DUP2 LT PUSH8 0xFFFFFFFFFFFFFFFF DUP3 GT OR PUSH2 0x87C JUMPI PUSH1 0x40 MSTORE JUMP JUMPDEST PUSH8 0xFFFFFFFFFFFFFFFF DUP2 GT PUSH2 0x87C JUMPI PUSH1 0x1F ADD PUSH1 0x1F NOT AND PUSH1 0x20 ADD SWAP1 JUMP JUMPDEST CALLVALUE PUSH2 0x17C JUMPI PUSH1 0x80 CALLDATASIZE PUSH1 0x3 NOT ADD SLT PUSH2 0x17C JUMPI PUSH2 0x8D8 PUSH2 0x37D JUMP JUMPDEST PUSH2 0x8E0 PUSH2 0x393 JUMP JUMPDEST PUSH1 0x64 CALLDATALOAD SWAP2 PUSH8 0xFFFFFFFFFFFFFFFF DUP4 GT PUSH2 0x17C JUMPI CALLDATASIZE PUSH1 0x23 DUP5 ADD SLT ISZERO PUSH2 0x17C JUMPI DUP3 PUSH1 0x4 ADD CALLDATALOAD SWAP2 PUSH2 0x90D DUP4 PUSH2 0x8A3 JUMP JUMPDEST SWAP3 PUSH2 0x91B PUSH1 0x40 MLOAD SWAP5 DUP6 PUSH2 0x881 JUMP JUMPDEST DUP1 DUP5 MSTORE CALLDATASIZE PUSH1 0x24 DUP3 DUP8 ADD ADD GT PUSH2 0x17C JUMPI PUSH1 0x20 DUP2 PUSH1 0x0 SWAP3 PUSH1 0x24 PUSH2 0x400 SWAP9 ADD DUP4 DUP9 ADD CALLDATACOPY DUP6 ADD ADD MSTORE PUSH1 0x44 CALLDATALOAD SWAP2 PUSH2 0xCFA JUMP JUMPDEST CALLVALUE PUSH2 0x17C JUMPI PUSH1 0x20 CALLDATASIZE PUSH1 0x3 NOT ADD SLT PUSH2 0x17C JUMPI PUSH2 0x964 PUSH1 0x4 CALLDATALOAD PUSH2 0x1034 JUMP JUMPDEST PUSH1 0x0 PUSH1 0x40 MLOAD PUSH2 0x972 DUP2 PUSH2 0x860 JUMP JUMPDEST MSTORE PUSH2 0x2AF PUSH1 0x40 MLOAD PUSH2 0x982 DUP2 PUSH2 0x860 JUMP JUMPDEST PUSH1 0x0 DUP2 MSTORE PUSH1 0x40 MLOAD SWAP2 DUP3 SWAP2 PUSH1 0x20 DUP4 MSTORE PUSH1 0x20 DUP4 ADD SWAP1 PUSH2 0x1EF JUMP JUMPDEST CALLVALUE PUSH2 0x17C JUMPI PUSH1 0x0 CALLDATASIZE PUSH1 0x3 NOT ADD SLT PUSH2 0x17C JUMPI PUSH1 0xB SLOAD PUSH1 0x40 MLOAD PUSH1 0x1 PUSH1 0x1 PUSH1 0xA0 SHL SUB SWAP1 SWAP2 AND DUP2 MSTORE PUSH1 0x20 SWAP1 RETURN JUMPDEST CALLVALUE PUSH2 0x17C JUMPI PUSH1 0x0 CALLDATASIZE PUSH1 0x3 NOT ADD SLT PUSH2 0x17C JUMPI PUSH1 0xA SLOAD PUSH1 0x40 MLOAD PUSH1 0x1 PUSH1 0x1 PUSH1 0xA0 SHL SUB SWAP1 SWAP2 AND DUP2 MSTORE PUSH1 0x20 SWAP1 RETURN JUMPDEST CALLVALUE PUSH2 0x17C JUMPI PUSH1 0x40 CALLDATASIZE PUSH1 0x3 NOT ADD SLT PUSH2 0x17C JUMPI PUSH1 0x20 PUSH1 0xFF PUSH2 0xA3D PUSH2 0xA0C PUSH2 0x37D JUMP JUMPDEST PUSH2 0xA14 PUSH2 0x393 JUMP JUMPDEST PUSH1 0x1 PUSH1 0x1 PUSH1 0xA0 SHL SUB SWAP2 DUP3 AND PUSH1 0x0 SWAP1 DUP2 MSTORE PUSH1 0x5 DUP7 MSTORE PUSH1 0x40 DUP1 DUP3 KECCAK256 SWAP3 SWAP1 SWAP4 AND DUP2 MSTORE PUSH1 0x20 SWAP2 SWAP1 SWAP2 MSTORE KECCAK256 SWAP1 JUMP JUMPDEST SLOAD AND PUSH1 0x40 MLOAD SWAP1 ISZERO ISZERO DUP2 MSTORE RETURN JUMPDEST CALLVALUE PUSH2 0x17C JUMPI PUSH1 0x20 CALLDATASIZE PUSH1 0x3 NOT ADD SLT PUSH2 0x17C JUMPI PUSH2 0xA62 PUSH2 0x37D JUMP JUMPDEST PUSH2 0xA6A PUSH2 0xB3B JUMP JUMPDEST PUSH1 0x1 PUSH1 0x1 PUSH1 0xA0 SHL SUB SWAP1 DUP2 AND SWAP1 DUP2 ISZERO PUSH2 0xABE JUMPI PUSH1 0x6 SLOAD DUP3 PUSH12 0xFFFFFFFFFFFFFFFFFFFFFFFF PUSH1 0xA0 SHL DUP3 AND OR PUSH1 0x6 SSTORE AND PUSH32 0x8BE0079C531659141344CD1FD0A4F28419497F9722A3DAAFE3B4186F6B6457E0 PUSH1 0x0 DUP1 LOG3 STOP JUMPDEST PUSH1 0x40 MLOAD PUSH3 0x461BCD PUSH1 0xE5 SHL DUP2 MSTORE PUSH1 0x20 PUSH1 0x4 DUP3 ADD MSTORE PUSH1 0x26 PUSH1 0x24 DUP3 ADD MSTORE PUSH32 0x4F776E61626C653A206E6577206F776E657220697320746865207A65726F2061 PUSH1 0x44 DUP3 ADD MSTORE PUSH6 0x646472657373 PUSH1 0xD0 SHL PUSH1 0x64 DUP3 ADD MSTORE PUSH1 0x84 SWAP1 REVERT JUMPDEST CALLVALUE PUSH2 0x17C JUMPI PUSH1 0x0 CALLDATASIZE PUSH1 0x3 NOT ADD SLT PUSH2 0x17C JUMPI PUSH1 0x9 SLOAD PUSH1 0x40 MLOAD PUSH1 0x1 PUSH1 0x1 PUSH1 0xA0 SHL SUB SWAP1 SWAP2 AND DUP2 MSTORE PUSH1 0x20 SWAP1 RETURN JUMPDEST PUSH1 0x6 SLOAD PUSH1 0x1 PUSH1 0x1 PUSH1 0xA0 SHL SUB AND CALLER SUB PUSH2 0xB4F JUMPI JUMP JUMPDEST PUSH1 0x64 PUSH1 0x40 MLOAD PUSH3 0x461BCD PUSH1 0xE5 SHL DUP2 MSTORE PUSH1 0x20 PUSH1 0x4 DUP3 ADD MSTORE PUSH1 0x20 PUSH1 0x24 DUP3 ADD MSTORE PUSH32 0x4F776E61626C653A2063616C6C6572206973206E6F7420746865206F776E6572 PUSH1 0x44 DUP3 ADD MSTORE REVERT JUMPDEST ISZERO PUSH2 0xB9A JUMPI JUMP JUMPDEST PUSH1 0x40 MLOAD PUSH3 0x461BCD PUSH1 0xE5 SHL DUP2 MSTORE PUSH1 0x20 PUSH1 0x4 DUP3 ADD MSTORE PUSH1 0x18 PUSH1 0x24 DUP3 ADD MSTORE PUSH32 0x4552433732313A20696E76616C696420746F6B656E2049440000000000000000 PUSH1 0x44 DUP3 ADD MSTORE PUSH1 0x64 SWAP1 REVERT JUMPDEST PUSH1 0x0 SWAP1 DUP2 MSTORE PUSH1 0x2 PUSH1 0x20 MSTORE PUSH1 0x40 SWAP1 KECCAK256 SLOAD PUSH1 0x1 PUSH1 0x1 PUSH1 0xA0 SHL SUB AND PUSH2 0x240 DUP2 ISZERO ISZERO PUSH2 0xB93 JUMP JUMPDEST ISZERO PUSH2 0xC09 JUMPI JUMP JUMPDEST PUSH1 0x40 MLOAD PUSH3 0x461BCD PUSH1 0xE5 SHL DUP2 MSTORE PUSH1 0x20 PUSH1 0x4 DUP3 ADD MSTORE PUSH1 0x3D PUSH1 0x24 DUP3 ADD MSTORE PUSH32 0x4552433732313A20617070726F76652063616C6C6572206973206E6F7420746F PUSH1 0x44 DUP3 ADD MSTORE PUSH32 0x6B656E206F776E6572206F7220617070726F76656420666F7220616C6C000000 PUSH1 0x64 DUP3 ADD MSTORE PUSH1 0x84 SWAP1 REVERT JUMPDEST PUSH2 0xC7D DUP2 PUSH2 0x1034 JUMP JUMPDEST PUSH1 0x0 SWAP1 DUP2 MSTORE PUSH1 0x4 PUSH1 0x20 MSTORE PUSH1 0x40 SWAP1 KECCAK256 SLOAD PUSH1 0x1 PUSH1 0x1 PUSH1 0xA0 SHL SUB AND SWAP1 JUMP JUMPDEST ISZERO PUSH2 0xC9F JUMPI JUMP JUMPDEST PUSH1 0x40 MLOAD PUSH3 0x461BCD PUSH1 0xE5 SHL DUP2 MSTORE PUSH1 0x20 PUSH1 0x4 DUP3 ADD MSTORE PUSH1 0x2D PUSH1 0x24 DUP3 ADD MSTORE PUSH32 0x4552433732313A2063616C6C6572206973206E6F7420746F6B656E206F776E65 PUSH1 0x44 DUP3 ADD MSTORE PUSH13 0x1C881BDC88185C1C1C9BDD9959 PUSH1 0x9A SHL PUSH1 0x64 DUP3 ADD MSTORE PUSH1 0x84 SWAP1 REVERT JUMPDEST SWAP1 PUSH2 0xD1E SWAP4 SWAP3 SWAP2 PUSH2 0xD0E PUSH2 0x4D3 DUP5 CALLER PUSH2 0xD95 JUMP JUMPDEST PUSH2 0xD19 DUP4 DUP4 DUP4 PUSH2 0xE67 JUMP JUMPDEST PUSH2 0x10CF JUMP JUMPDEST ISZERO PUSH2 0xD25 JUMPI JUMP JUMPDEST PUSH1 0x40 MLOAD PUSH3 0x461BCD PUSH1 0xE5 SHL DUP2 MSTORE DUP1 PUSH2 0xD3E PUSH1 0x4 DUP3 ADD PUSH2 0xD42 JUMP JUMPDEST SUB SWAP1 REVERT JUMPDEST PUSH1 0x80 SWAP1 PUSH1 0x20 DUP2 MSTORE PUSH1 0x32 PUSH1 0x20 DUP3 ADD MSTORE PUSH32 0x4552433732313A207472616E7366657220746F206E6F6E204552433732315265 PUSH1 0x40 DUP3 ADD MSTORE PUSH18 0x31B2B4BB32B91034B6B83632B6B2B73A32B9 PUSH1 0x71 SHL PUSH1 0x60 DUP3 ADD MSTORE ADD SWAP1 JUMP JUMPDEST PUSH1 0x1 PUSH1 0x1 PUSH1 0xA0 SHL SUB DUP1 PUSH2 0xDA7 DUP5 PUSH2 0xBDF JUMP JUMPDEST AND SWAP3 DUP2 DUP4 AND SWAP3 DUP5 DUP5 EQ SWAP5 DUP6 ISZERO PUSH2 0xDDD JUMPI JUMPDEST POP POP DUP4 ISZERO PUSH2 0xDC7 JUMPI JUMPDEST POP POP POP SWAP1 JUMP JUMPDEST PUSH2 0xDD3 SWAP2 SWAP3 SWAP4 POP PUSH2 0xC74 JUMP JUMPDEST AND EQ CODESIZE DUP1 DUP1 PUSH2 0xDC1 JUMP JUMPDEST PUSH1 0x0 SWAP1 DUP2 MSTORE PUSH1 0x5 PUSH1 0x20 SWAP1 DUP2 MSTORE PUSH1 0x40 DUP1 DUP4 KECCAK256 PUSH1 0x1 PUSH1 0x1 PUSH1 0xA0 SHL SUB SWAP5 SWAP1 SWAP5 AND DUP4 MSTORE SWAP3 SWAP1 MSTORE KECCAK256 SLOAD PUSH1 0xFF AND SWAP4 POP CODESIZE DUP1 PUSH2 0xDB8 JUMP JUMPDEST ISZERO PUSH2 0xE14 JUMPI JUMP JUMPDEST PUSH1 0x40 MLOAD PUSH3 0x461BCD PUSH1 0xE5 SHL DUP2 MSTORE PUSH1 0x20 PUSH1 0x4 DUP3 ADD MSTORE PUSH1 0x25 PUSH1 0x24 DUP3 ADD MSTORE PUSH32 0x4552433732313A207472616E736665722066726F6D20696E636F727265637420 PUSH1 0x44 DUP3 ADD MSTORE PUSH5 0x37BBB732B9 PUSH1 0xD9 SHL PUSH1 0x64 DUP3 ADD MSTORE PUSH1 0x84 SWAP1 REVERT JUMPDEST PUSH2 0xE8B SWAP1 PUSH2 0xE74 DUP5 PUSH2 0xBDF JUMP JUMPDEST PUSH1 0x1 PUSH1 0x1 PUSH1 0xA0 SHL SUB DUP3 DUP2 AND SWAP4 SWAP1 SWAP2 DUP3 AND DUP5 EQ PUSH2 0xE0D JUMP JUMPDEST DUP4 AND SWAP3 DUP4 ISZERO PUSH2 0xF7F JUMPI PUSH2 0xEFE PUSH2 0xF58 SWAP3 PUSH2 0xEBD DUP6 PUSH2 0xEB7 PUSH2 0xEAB DUP11 PUSH2 0xBDF JUMP JUMPDEST PUSH1 0x1 PUSH1 0x1 PUSH1 0xA0 SHL SUB AND SWAP1 JUMP JUMPDEST EQ PUSH2 0xE0D JUMP JUMPDEST PUSH2 0xEE4 PUSH2 0xED4 DUP9 PUSH1 0x0 MSTORE PUSH1 0x4 PUSH1 0x20 MSTORE PUSH1 0x40 PUSH1 0x0 KECCAK256 SWAP1 JUMP JUMPDEST DUP1 SLOAD PUSH1 0x1 PUSH1 0x1 PUSH1 0xA0 SHL SUB NOT AND SWAP1 SSTORE JUMP JUMPDEST PUSH1 0x1 PUSH1 0x1 PUSH1 0xA0 SHL SUB AND PUSH1 0x0 SWAP1 DUP2 MSTORE PUSH1 0x3 PUSH1 0x20 MSTORE PUSH1 0x40 SWAP1 KECCAK256 SWAP1 JUMP JUMPDEST DUP1 SLOAD PUSH1 0x0 NOT ADD SWAP1 SSTORE PUSH1 0x1 PUSH1 0x1 PUSH1 0xA0 SHL SUB DUP2 AND PUSH1 0x0 SWAP1 DUP2 MSTORE PUSH1 0x3 PUSH1 0x20 MSTORE PUSH1 0x40 SWAP1 KECCAK256 PUSH1 0x1 DUP2 SLOAD ADD SWAP1 SSTORE PUSH2 0xF39 DUP6 PUSH1 0x0 MSTORE PUSH1 0x2 PUSH1 0x20 MSTORE PUSH1 0x40 PUSH1 0x0 KECCAK256 SWAP1 JUMP JUMPDEST DUP1 SLOAD PUSH1 0x1 PUSH1 0x1 PUSH1 0xA0 SHL SUB NOT AND PUSH1 0x1 PUSH1 0x1 PUSH1 0xA0 SHL SUB SWAP1 SWAP3 AND SWAP2 SWAP1 SWAP2 OR SWAP1 SSTORE JUMP JUMPDEST PUSH32 0xDDF252AD1BE2C89B69C2B068FC378DAA952BA7F163C4A11628F55A4DF523B3EF PUSH1 0x0 DUP1 LOG4 JUMP JUMPDEST PUSH1 0x40 MLOAD PUSH3 0x461BCD PUSH1 0xE5 SHL DUP2 MSTORE PUSH1 0x20 PUSH1 0x4 DUP3 ADD MSTORE PUSH1 0x24 DUP1 DUP3 ADD MSTORE PUSH32 0x4552433732313A207472616E7366657220746F20746865207A65726F20616464 PUSH1 0x44 DUP3 ADD MSTORE PUSH4 0x72657373 PUSH1 0xE0 SHL PUSH1 0x64 DUP3 ADD MSTORE PUSH1 0x84 SWAP1 REVERT JUMPDEST PUSH1 0x0 DUP3 DUP2 MSTORE PUSH1 0x4 PUSH1 0x20 MSTORE PUSH1 0x40 SWAP1 KECCAK256 DUP1 SLOAD PUSH1 0x1 PUSH1 0x1 PUSH1 0xA0 SHL SUB NOT AND PUSH1 0x1 PUSH1 0x1 PUSH1 0xA0 SHL SUB DUP4 AND OR SWAP1 SSTORE PUSH1 0x1 PUSH1 0x1 PUSH1 0xA0 SHL SUB DUP1 PUSH2 0x1009 DUP5 PUSH2 0xBDF JUMP JUMPDEST AND SWAP2 AND SWAP1 PUSH32 0x8C5BE1E5EBEC7D5BD14F71427D1E84F3DD0314C0F7B2291E5B200AC8C7C3B925 PUSH1 0x0 DUP1 LOG4 JUMP JUMPDEST PUSH1 0x0 SWAP1 DUP2 MSTORE PUSH1 0x2 PUSH1 0x20 MSTORE PUSH1 0x40 SWAP1 KECCAK256 SLOAD PUSH2 0x1057 SWAP1 PUSH1 0x1 PUSH1 0x1 PUSH1 0xA0 SHL SUB AND ISZERO ISZERO PUSH2 0xB93 JUMP JUMPDEST JUMP JUMPDEST SWAP1 DUP2 PUSH1 0x20 SWAP2 SUB SLT PUSH2 0x17C JUMPI MLOAD PUSH2 0x240 DUP2 PUSH2 0x16A JUMP JUMPDEST PUSH1 0x1 PUSH1 0x1 PUSH1 0xA0 SHL SUB SWAP2 DUP3 AND DUP2 MSTORE SWAP2 AND PUSH1 0x20 DUP3 ADD MSTORE PUSH1 0x40 DUP2 ADD SWAP2 SWAP1 SWAP2 MSTORE PUSH1 0x80 PUSH1 0x60 DUP3 ADD DUP2 SWAP1 MSTORE PUSH2 0x240 SWAP3 SWAP2 ADD SWAP1 PUSH2 0x1EF JUMP JUMPDEST RETURNDATASIZE ISZERO PUSH2 0x10CA JUMPI RETURNDATASIZE SWAP1 PUSH2 0x10B0 DUP3 PUSH2 0x8A3 JUMP JUMPDEST SWAP2 PUSH2 0x10BE PUSH1 0x40 MLOAD SWAP4 DUP5 PUSH2 0x881 JUMP JUMPDEST DUP3 MSTORE RETURNDATASIZE PUSH1 0x0 PUSH1 0x20 DUP5 ADD RETURNDATACOPY JUMP JUMPDEST PUSH1 0x60 SWAP1 JUMP JUMPDEST SWAP3 SWAP1 SWAP2 SWAP1 DUP3 EXTCODESIZE ISZERO PUSH2 0x1189 JUMPI PUSH2 0x1102 SWAP3 PUSH1 0x20 SWAP3 PUSH1 0x0 PUSH1 0x40 MLOAD DUP1 SWAP7 DUP2 SWAP6 DUP3 SWAP5 PUSH4 0xA85BD01 PUSH1 0xE1 SHL SWAP11 DUP12 DUP6 MSTORE CALLER PUSH1 0x4 DUP7 ADD PUSH2 0x106E JUMP JUMPDEST SUB SWAP3 PUSH1 0x1 PUSH1 0x1 PUSH1 0xA0 SHL SUB AND GAS CALL PUSH1 0x0 SWAP2 DUP2 PUSH2 0x1159 JUMPI JUMPDEST POP PUSH2 0x114B JUMPI PUSH2 0x1125 PUSH2 0x109F JUMP JUMPDEST DUP1 MLOAD SWAP1 DUP2 PUSH2 0x1146 JUMPI PUSH1 0x40 MLOAD PUSH3 0x461BCD PUSH1 0xE5 SHL DUP2 MSTORE DUP1 PUSH2 0xD3E PUSH1 0x4 DUP3 ADD PUSH2 0xD42 JUMP JUMPDEST PUSH1 0x20 ADD REVERT JUMPDEST PUSH1 0x1 PUSH1 0x1 PUSH1 0xE0 SHL SUB NOT AND EQ SWAP1 JUMP JUMPDEST PUSH2 0x117B SWAP2 SWAP3 POP PUSH1 0x20 RETURNDATASIZE DUP2 GT PUSH2 0x1182 JUMPI JUMPDEST PUSH2 0x1173 DUP2 DUP4 PUSH2 0x881 JUMP JUMPDEST DUP2 ADD SWAP1 PUSH2 0x1059 JUMP JUMPDEST SWAP1 CODESIZE PUSH2 0x1118 JUMP JUMPDEST POP RETURNDATASIZE PUSH2 0x1169 JUMP JUMPDEST POP POP POP POP PUSH1 0x1 SWAP1 JUMP JUMPDEST PUSH1 0x0 CALLDATALOAD PUSH1 0x1 PUSH1 0x1 PUSH1 0xE0 SHL SUB NOT AND PUSH2 0x11A8 DUP2 PUSH2 0x12A8 JUMP JUMPDEST ISZERO PUSH2 0x11DD JUMPI POP PUSH1 0x8 SLOAD PUSH1 0x0 SWAP1 DUP2 SWAP1 PUSH1 0x1 PUSH1 0x1 PUSH1 0xA0 SHL SUB AND JUMPDEST CALLDATASIZE DUP3 DUP1 CALLDATACOPY DUP2 CALLDATASIZE SWAP2 GAS DELEGATECALL RETURNDATASIZE PUSH1 0x0 DUP1 RETURNDATACOPY ISZERO PUSH2 0x11D8 JUMPI RETURNDATASIZE PUSH1 0x0 RETURN JUMPDEST RETURNDATASIZE PUSH1 0x0 REVERT JUMPDEST PUSH2 0x11E6 DUP2 PUSH2 0x1304 JUMP JUMPDEST ISZERO PUSH2 0x1202 JUMPI POP PUSH1 0x9 SLOAD PUSH1 0x0 SWAP1 DUP2 SWAP1 PUSH1 0x1 PUSH1 0x1 PUSH1 0xA0 SHL SUB AND PUSH2 0x11C0 JUMP JUMPDEST PUSH2 0x120B DUP2 PUSH2 0x1360 JUMP JUMPDEST ISZERO PUSH2 0x1227 JUMPI POP PUSH1 0xA SLOAD PUSH1 0x0 SWAP1 DUP2 SWAP1 PUSH1 0x1 PUSH1 0x1 PUSH1 0xA0 SHL SUB AND PUSH2 0x11C0 JUMP JUMPDEST PUSH2 0x1230 DUP2 PUSH2 0x13BC JUMP JUMPDEST ISZERO PUSH2 0x124C JUMPI POP PUSH1 0xB SLOAD PUSH1 0x0 SWAP1 DUP2 SWAP1 PUSH1 0x1 PUSH1 0x1 PUSH1 0xA0 SHL SUB AND PUSH2 0x11C0 JUMP JUMPDEST PUSH2 0x1255 SWAP1 PUSH2 0x1400 JUMP JUMPDEST ISZERO PUSH2 0x1270 JUMPI PUSH1 0xC SLOAD PUSH1 0x0 SWAP1 DUP2 SWAP1 PUSH1 0x1 PUSH1 0x1 PUSH1 0xA0 SHL SUB AND PUSH2 0x11C0 JUMP JUMPDEST PUSH1 0x40 MLOAD PUSH3 0x461BCD PUSH1 0xE5 SHL DUP2 MSTORE PUSH1 0x20 PUSH1 0x4 DUP3 ADD MSTORE PUSH1 0x10 PUSH1 0x24 DUP3 ADD MSTORE PUSH16 0x2AB735B737BBB710333AB731BA34B7B7 PUSH1 0x81 SHL PUSH1 0x44 DUP3 ADD MSTORE PUSH1 0x64 SWAP1 REVERT JUMPDEST PUSH4 0xFFFFFFFF PUSH1 0xE0 SHL AND PUSH4 0x7E8555ED PUSH1 0xE0 SHL DUP2 EQ SWAP1 DUP2 ISZERO PUSH2 0x12F3 JUMPI JUMPDEST DUP2 ISZERO PUSH2 0x12E2 JUMPI JUMPDEST DUP2 ISZERO PUSH2 0x12D4 JUMPI POP SWAP1 JUMP JUMPDEST PUSH4 0x3AC4710D PUSH1 0xE2 SHL EQ SWAP2 SWAP1 POP JUMP JUMPDEST PUSH4 0x2149F2E7 PUSH1 0xE1 SHL DUP2 EQ SWAP2 POP PUSH2 0x12CA JUMP JUMPDEST PUSH4 0x6B1BEE7D PUSH1 0xE1 SHL DUP2 EQ SWAP2 POP PUSH2 0x12C3 JUMP JUMPDEST PUSH4 0xFFFFFFFF PUSH1 0xE0 SHL AND PUSH4 0x1BD649F PUSH1 0xE6 SHL DUP2 EQ SWAP1 DUP2 ISZERO PUSH2 0x134F JUMPI JUMPDEST DUP2 ISZERO PUSH2 0x133E JUMPI JUMPDEST DUP2 ISZERO PUSH2 0x1330 JUMPI POP SWAP1 JUMP JUMPDEST PUSH4 0x2E76C56D PUSH1 0xE2 SHL EQ SWAP2 SWAP1 POP JUMP JUMPDEST PUSH4 0xED90C7B7 PUSH1 0xE0 SHL DUP2 EQ SWAP2 POP PUSH2 0x1326 JUMP JUMPDEST PUSH4 0x16AB9DE7 PUSH1 0xE3 SHL DUP2 EQ SWAP2 POP PUSH2 0x131F JUMP JUMPDEST PUSH4 0xFFFFFFFF PUSH1 0xE0 SHL AND PUSH4 0x6E14C341 PUSH1 0xE1 SHL DUP2 EQ SWAP1 DUP2 ISZERO PUSH2 0x13AB JUMPI JUMPDEST DUP2 ISZERO PUSH2 0x139A JUMPI JUMPDEST DUP2 ISZERO PUSH2 0x138C JUMPI POP SWAP1 JUMP JUMPDEST PUSH4 0x79829693 PUSH1 0xE1 SHL EQ SWAP2 SWAP1 POP JUMP JUMPDEST PUSH4 0x331126C7 PUSH1 0xE1 SHL DUP2 EQ SWAP2 POP PUSH2 0x1382 JUMP JUMPDEST PUSH4 0x7D3978DB PUSH1 0xE0 SHL DUP2 EQ SWAP2 POP PUSH2 0x137B JUMP JUMPDEST PUSH4 0xFFFFFFFF PUSH1 0xE0 SHL AND PUSH4 0x2DB0367 PUSH1 0xE3 SHL DUP2 EQ SWAP1 DUP2 ISZERO PUSH2 0x13EF JUMPI JUMPDEST DUP2 ISZERO PUSH2 0x13E1 JUMPI POP SWAP1 JUMP JUMPDEST PUSH4 0x9D4A2255 PUSH1 0xE0 SHL EQ SWAP2 SWAP1 POP JUMP JUMPDEST PUSH4 0x24D41A03 PUSH1 0xE0 SHL DUP2 EQ SWAP2 POP PUSH2 0x13D7 JUMP JUMPDEST PUSH4 0xFFFFFFFF PUSH1 0xE0 SHL AND PUSH4 0x731BC05D PUSH1 0xE0 SHL DUP2 EQ SWAP1 DUP2 ISZERO PUSH2 0x144B JUMPI JUMPDEST DUP2 ISZERO PUSH2 0x143A JUMPI JUMPDEST DUP2 ISZERO PUSH2 0x142C JUMPI POP SWAP1 JUMP JUMPDEST PUSH4 0x2148893F PUSH1 0xE0 SHL EQ SWAP2 SWAP1 POP JUMP JUMPDEST PUSH4 0x46A96CD PUSH1 0xE2 SHL DUP2 EQ SWAP2 POP PUSH2 0x1422 JUMP JUMPDEST PUSH4 0x3CCFD60B PUSH1 0xE0 SHL DUP2 EQ SWAP2 POP PUSH2 0x141B JUMP INVALID LOG2 PUSH5 0x6970667358 0x22 SLT KECCAK256 SWAP3 0xE0 PUSH29 0x8823D291E434610F2CF91883A9143E9A66C1C00CB6D1A39734127F3A69 PUSH5 0x736F6C6343 STOP ADDMOD SGT STOP CALLER 0x29 0xD 0xEC 0xD9 SLOAD DUP12 PUSH3 0xA8D603 GASLIMIT 0xA9 DUP9 CODESIZE PUSH16 0xC84BA6BC95484008F6362F93160EF3E5 PUSH4 0xB10E2D52 PUSH23 0x12073B26EECDFD717E6A320CF44B4AFAC2B0732D9FCBE2 0xB7 STATICCALL 0xC 0xF6 "},"methodIdentifiers":{"approve(address,uint256)":"095ea7b3","balanceOf(address)":"70a08231","categoryManager()":"d86ec238","getApproved(uint256)":"081812fc","isApprovedForAll(address,address)":"e985e9c5","name()":"06fdde03","owner()":"8da5cb5b","ownerOf(uint256)":"6352211e","productManager()":"f426306f","purchaseManager()":"5cbf60cc","renounceOwnership()":"715018a6","reviewManager()":"c9b81583","safeTransferFrom(address,address,uint256)":"42842e0e","safeTransferFrom(address,address,uint256,bytes)":"b88d4fde","setApprovalForAll(address,bool)":"a22cb465","supportsInterface(bytes4)":"01ffc9a7","symbol()":"95d89b41","tokenURI(uint256)":"c87b56dd","transferFrom(address,address,uint256)":"23b872dd","transferOwnership(address)":"f2fde38b","userSellerManager()":"b749293a"}}}}}