{"contracts/HemShop.sol":{"HemShop":{"abi":[{"inputs":[{"internalType":"uint256","name":"_pct","type":"uint256"}],"stateMutability":"nonpayable","type":"constructor"},{"anonymous":false,"inputs":[{"indexed":false,"internalType":"address","name":"admin","type":"address"},{"indexed":false,"internalType":"address","name":"impersonatedAccount","type":"address"}],"name":"AdminImpersonationChanged","type":"event"},{"anonymous":false,"inputs":[{"indexed":true,"internalType":"address","name":"owner","type":"address"},{"indexed":true,"internalType":"address","name":"approved","type":"address"},{"indexed":true,"internalType":"uint256","name":"tokenId","type":"uint256"}],"name":"Approval","type":"event"},{"anonymous":false,"inputs":[{"indexed":true,"internalType":"address","name":"owner","type":"address"},{"indexed":true,"internalType":"address","name":"operator","type":"address"},{"indexed":false,"internalType":"bool","name":"approved","type":"bool"}],"name":"ApprovalForAll","type":"event"},{"anonymous":false,"inputs":[{"indexed":true,"internalType":"address","name":"seller","type":"address"},{"indexed":false,"internalType":"uint256","name":"newBalance","type":"uint256"}],"name":"BalanceUpdated","type":"event"},{"anonymous":false,"inputs":[{"indexed":true,"internalType":"uint256","name":"id","type":"uint256"},{"indexed":false,"internalType":"string","name":"name","type":"string"}],"name":"CategoryCreated","type":"event"},{"anonymous":false,"inputs":[{"indexed":true,"internalType":"uint256","name":"id","type":"uint256"},{"indexed":false,"internalType":"string","name":"name","type":"string"},{"indexed":false,"internalType":"bool","name":"isActive","type":"bool"}],"name":"CategoryUpdated","type":"event"},{"anonymous":false,"inputs":[{"indexed":true,"internalType":"uint256","name":"productId","type":"uint256"},{"indexed":true,"internalType":"address","name":"buyer","type":"address"},{"indexed":false,"internalType":"bool","name":"isDelivered","type":"bool"}],"name":"DeliveryStatusUpdated","type":"event"},{"anonymous":false,"inputs":[{"indexed":true,"internalType":"address","name":"previousOwner","type":"address"},{"indexed":true,"internalType":"address","name":"newOwner","type":"address"}],"name":"OwnershipTransferred","type":"event"},{"anonymous":false,"inputs":[{"indexed":true,"internalType":"uint256","name":"productId","type":"uint256"},{"indexed":true,"internalType":"address","name":"buyer","type":"address"},{"indexed":true,"internalType":"address","name":"seller","type":"address"},{"indexed":false,"internalType":"uint256","name":"price","type":"uint256"},{"indexed":false,"internalType":"uint256","name":"timestamp","type":"uint256"}],"name":"ProductPurchased","type":"event"},{"anonymous":false,"inputs":[{"indexed":true,"internalType":"uint256","name":"productId","type":"uint256"},{"indexed":true,"internalType":"address","name":"buyer","type":"address"},{"indexed":true,"internalType":"address","name":"seller","type":"address"},{"indexed":false,"internalType":"uint256","name":"totalAmount","type":"uint256"},{"indexed":false,"internalType":"uint256","name":"basePrice","type":"uint256"},{"indexed":false,"internalType":"uint256","name":"timestamp","type":"uint256"}],"name":"PurchaseRecorded","type":"event"},{"anonymous":false,"inputs":[{"indexed":true,"internalType":"address","name":"seller","type":"address"},{"indexed":false,"internalType":"uint256","name":"timestamp","type":"uint256"}],"name":"SellerRegistered","type":"event"},{"anonymous":false,"inputs":[{"indexed":true,"internalType":"address","name":"seller","type":"address"},{"indexed":false,"internalType":"enum HemShop.SellerStatus","name":"status","type":"uint8"}],"name":"SellerStatusUpdated","type":"event"},{"anonymous":false,"inputs":[{"indexed":true,"internalType":"uint256","name":"id","type":"uint256"},{"indexed":true,"internalType":"uint256","name":"parentId","type":"uint256"},{"indexed":false,"internalType":"string","name":"name","type":"string"}],"name":"SubCategoryCreated","type":"event"},{"anonymous":false,"inputs":[{"indexed":true,"internalType":"uint256","name":"id","type":"uint256"},{"indexed":false,"internalType":"string","name":"name","type":"string"},{"indexed":false,"internalType":"bool","name":"isActive","type":"bool"}],"name":"SubCategoryUpdated","type":"event"},{"anonymous":false,"inputs":[{"indexed":true,"internalType":"address","name":"from","type":"address"},{"indexed":true,"internalType":"address","name":"to","type":"address"},{"indexed":true,"internalType":"uint256","name":"tokenId","type":"uint256"}],"name":"Transfer","type":"event"},{"anonymous":false,"inputs":[{"indexed":true,"internalType":"address","name":"user","type":"address"},{"indexed":false,"internalType":"string","name":"name","type":"string"}],"name":"UserRegistered","type":"event"},{"inputs":[{"internalType":"address","name":"","type":"address"}],"name":"adminImpersonating","outputs":[{"internalType":"address","name":"","type":"address"}],"stateMutability":"view","type":"function"},{"inputs":[{"internalType":"address","name":"to","type":"address"},{"internalType":"uint256","name":"tokenId","type":"uint256"}],"name":"approve","outputs":[],"stateMutability":"nonpayable","type":"function"},{"inputs":[{"internalType":"address","name":"owner","type":"address"}],"name":"balanceOf","outputs":[{"internalType":"uint256","name":"","type":"uint256"}],"stateMutability":"view","type":"function"},{"inputs":[{"internalType":"uint256","name":"productId","type":"uint256"},{"components":[{"internalType":"string","name":"fullName","type":"string"},{"internalType":"string","name":"streetAddress","type":"string"},{"internalType":"string","name":"city","type":"string"},{"internalType":"string","name":"state","type":"string"},{"internalType":"string","name":"country","type":"string"},{"internalType":"string","name":"postalCode","type":"string"},{"internalType":"string","name":"phone","type":"string"},{"internalType":"string","name":"email","type":"string"}],"internalType":"struct HemShop.ShippingDetails","name":"shippingDetails","type":"tuple"}],"name":"buyProduct","outputs":[],"stateMutability":"payable","type":"function"},{"inputs":[{"internalType":"address","name":"","type":"address"},{"internalType":"uint256","name":"","type":"uint256"}],"name":"buyerPurchaseHistory","outputs":[{"internalType":"uint256","name":"productId","type":"uint256"},{"internalType":"uint256","name":"totalAmount","type":"uint256"},{"internalType":"uint256","name":"basePrice","type":"uint256"},{"internalType":"uint256","name":"timestamp","type":"uint256"},{"internalType":"address","name":"buyer","type":"address"},{"internalType":"address","name":"seller","type":"address"},{"internalType":"bool","name":"isDelivered","type":"bool"},{"components":[{"internalType":"string","name":"fullName","type":"string"},{"internalType":"string","name":"streetAddress","type":"string"},{"internalType":"string","name":"city","type":"string"},{"internalType":"string","name":"state","type":"string"},{"internalType":"string","name":"country","type":"string"},{"internalType":"string","name":"postalCode","type":"string"},{"internalType":"string","name":"phone","type":"string"},{"internalType":"string","name":"email","type":"string"}],"internalType":"struct HemShop.ShippingDetails","name":"shippingDetails","type":"tuple"}],"stateMutability":"view","type":"function"},{"inputs":[{"internalType":"uint256","name":"newPct","type":"uint256"}],"name":"changeServicePct","outputs":[],"stateMutability":"nonpayable","type":"function"},{"inputs":[{"internalType":"string","name":"_name","type":"string"}],"name":"createCategory","outputs":[],"stateMutability":"nonpayable","type":"function"},{"inputs":[{"components":[{"internalType":"string","name":"name","type":"string"},{"internalType":"string","name":"description","type":"string"},{"internalType":"uint256","name":"price","type":"uint256"},{"internalType":"uint256","name":"stock","type":"uint256"},{"internalType":"string[]","name":"colors","type":"string[]"},{"internalType":"string[]","name":"sizes","type":"string[]"},{"internalType":"string[]","name":"images","type":"string[]"},{"internalType":"uint256","name":"categoryId","type":"uint256"},{"internalType":"uint256","name":"subCategoryId","type":"uint256"},{"internalType":"uint256","name":"weight","type":"uint256"},{"internalType":"string","name":"model","type":"string"},{"internalType":"string","name":"brand","type":"string"},{"internalType":"uint256","name":"sku","type":"uint256"}],"internalType":"struct HemShop.ProductInput","name":"input","type":"tuple"}],"name":"createProduct","outputs":[],"stateMutability":"nonpayable","type":"function"},{"inputs":[{"internalType":"uint256","name":"productId","type":"uint256"},{"internalType":"uint256","name":"rating","type":"uint256"},{"internalType":"string","name":"comment","type":"string"}],"name":"createReview","outputs":[],"stateMutability":"nonpayable","type":"function"},{"inputs":[{"internalType":"uint256","name":"parentId","type":"uint256"},{"internalType":"string[]","name":"names","type":"string[]"}],"name":"createSubCategoriesBulk","outputs":[],"stateMutability":"nonpayable","type":"function"},{"inputs":[{"internalType":"uint256","name":"_parentId","type":"uint256"},{"internalType":"string","name":"_name","type":"string"}],"name":"createSubCategory","outputs":[],"stateMutability":"nonpayable","type":"function"},{"inputs":[{"internalType":"uint256","name":"_id","type":"uint256"}],"name":"deleteCategory","outputs":[],"stateMutability":"nonpayable","type":"function"},{"inputs":[{"internalType":"uint256","name":"productId","type":"uint256"}],"name":"deleteProduct","outputs":[],"stateMutability":"nonpayable","type":"function"},{"inputs":[{"internalType":"uint256","name":"productId","type":"uint256"},{"internalType":"uint256","name":"reviewId","type":"uint256"}],"name":"deleteReview","outputs":[],"stateMutability":"nonpayable","type":"function"},{"inputs":[{"internalType":"uint256","name":"_id","type":"uint256"}],"name":"deleteSubCategory","outputs":[],"stateMutability":"nonpayable","type":"function"},{"inputs":[],"name":"getAllCategories","outputs":[{"internalType":"uint256[]","name":"ids","type":"uint256[]"},{"internalType":"string[]","name":"names","type":"string[]"},{"internalType":"bool[]","name":"activeStates","type":"bool[]"},{"internalType":"uint256[][]","name":"subCategoryIdArrays","type":"uint256[][]"}],"stateMutability":"view","type":"function"},{"inputs":[],"name":"getAllProducts","outputs":[{"components":[{"internalType":"uint256","name":"id","type":"uint256"},{"internalType":"address","name":"seller","type":"address"},{"internalType":"string","name":"name","type":"string"},{"internalType":"string","name":"description","type":"string"},{"internalType":"uint256","name":"price","type":"uint256"},{"internalType":"uint256","name":"stock","type":"uint256"},{"internalType":"string[]","name":"colors","type":"string[]"},{"internalType":"string[]","name":"sizes","type":"string[]"},{"internalType":"string[]","name":"images","type":"string[]"},{"internalType":"string","name":"category","type":"string"},{"internalType":"string","name":"subCategory","type":"string"},{"internalType":"uint256","name":"weight","type":"uint256"},{"internalType":"string","name":"model","type":"string"},{"internalType":"string","name":"brand","type":"string"},{"internalType":"uint256","name":"sku","type":"uint256"},{"internalType":"bool","name":"soldout","type":"bool"},{"internalType":"bool","name":"wishlist","type":"bool"},{"internalType":"bool","name":"deleted","type":"bool"},{"components":[{"internalType":"uint256","name":"reviewId","type":"uint256"},{"internalType":"address","name":"reviewer","type":"address"},{"internalType":"uint256","name":"rating","type":"uint256"},{"internalType":"string","name":"comment","type":"string"},{"internalType":"bool","name":"deleted","type":"bool"},{"internalType":"uint256","name":"timestamp","type":"uint256"}],"internalType":"struct HemShop.ReviewStruct[]","name":"reviews","type":"tuple[]"}],"internalType":"struct HemShop.ProductStruct[]","name":"","type":"tuple[]"}],"stateMutability":"view","type":"function"},{"inputs":[{"internalType":"uint256","name":"tokenId","type":"uint256"}],"name":"getApproved","outputs":[{"internalType":"address","name":"","type":"address"}],"stateMutability":"view","type":"function"},{"inputs":[{"internalType":"address","name":"buyer","type":"address"}],"name":"getBuyerPurchaseHistory","outputs":[{"components":[{"internalType":"uint256","name":"productId","type":"uint256"},{"internalType":"uint256","name":"totalAmount","type":"uint256"},{"internalType":"uint256","name":"basePrice","type":"uint256"},{"internalType":"uint256","name":"timestamp","type":"uint256"},{"internalType":"address","name":"buyer","type":"address"},{"internalType":"address","name":"seller","type":"address"},{"internalType":"bool","name":"isDelivered","type":"bool"},{"components":[{"internalType":"string","name":"fullName","type":"string"},{"internalType":"string","name":"streetAddress","type":"string"},{"internalType":"string","name":"city","type":"string"},{"internalType":"string","name":"state","type":"string"},{"internalType":"string","name":"country","type":"string"},{"internalType":"string","name":"postalCode","type":"string"},{"internalType":"string","name":"phone","type":"string"},{"internalType":"string","name":"email","type":"string"}],"internalType":"struct HemShop.ShippingDetails","name":"shippingDetails","type":"tuple"}],"internalType":"struct HemShop.PurchaseHistoryStruct[]","name":"","type":"tuple[]"}],"stateMutability":"view","type":"function"},{"inputs":[{"internalType":"uint256","name":"_id","type":"uint256"}],"name":"getCategory","outputs":[{"internalType":"uint256","name":"id","type":"uint256"},{"internalType":"string","name":"name","type":"string"},{"internalType":"bool","name":"isActive","type":"bool"},{"internalType":"uint256[]","name":"subCategoryIds","type":"uint256[]"}],"stateMutability":"view","type":"function"},{"inputs":[],"name":"getMyProducts","outputs":[{"components":[{"internalType":"uint256","name":"id","type":"uint256"},{"internalType":"address","name":"seller","type":"address"},{"internalType":"string","name":"name","type":"string"},{"internalType":"string","name":"description","type":"string"},{"internalType":"uint256","name":"price","type":"uint256"},{"internalType":"uint256","name":"stock","type":"uint256"},{"internalType":"string[]","name":"colors","type":"string[]"},{"internalType":"string[]","name":"sizes","type":"string[]"},{"internalType":"string[]","name":"images","type":"string[]"},{"internalType":"string","name":"category","type":"string"},{"internalType":"string","name":"subCategory","type":"string"},{"internalType":"uint256","name":"weight","type":"uint256"},{"internalType":"string","name":"model","type":"string"},{"internalType":"string","name":"brand","type":"string"},{"internalType":"uint256","name":"sku","type":"uint256"},{"internalType":"bool","name":"soldout","type":"bool"},{"internalType":"bool","name":"wishlist","type":"bool"},{"internalType":"bool","name":"deleted","type":"bool"},{"components":[{"internalType":"uint256","name":"reviewId","type":"uint256"},{"internalType":"address","name":"reviewer","type":"address"},{"internalType":"uint256","name":"rating","type":"uint256"},{"internalType":"string","name":"comment","type":"string"},{"internalType":"bool","name":"deleted","type":"bool"},{"internalType":"uint256","name":"timestamp","type":"uint256"}],"internalType":"struct HemShop.ReviewStruct[]","name":"reviews","type":"tuple[]"}],"internalType":"struct HemShop.ProductStruct[]","name":"","type":"tuple[]"}],"stateMutability":"view","type":"function"},{"inputs":[],"name":"getPendingSellers","outputs":[{"internalType":"address[]","name":"","type":"address[]"}],"stateMutability":"view","type":"function"},{"inputs":[],"name":"getPendingVerificationUsers","outputs":[{"internalType":"address[]","name":"","type":"address[]"}],"stateMutability":"view","type":"function"},{"inputs":[{"internalType":"uint256","name":"productId","type":"uint256"}],"name":"getProduct","outputs":[{"components":[{"internalType":"uint256","name":"id","type":"uint256"},{"internalType":"address","name":"seller","type":"address"},{"internalType":"string","name":"name","type":"string"},{"internalType":"string","name":"description","type":"string"},{"internalType":"uint256","name":"price","type":"uint256"},{"internalType":"uint256","name":"stock","type":"uint256"},{"internalType":"string[]","name":"colors","type":"string[]"},{"internalType":"string[]","name":"sizes","type":"string[]"},{"internalType":"string[]","name":"images","type":"string[]"},{"internalType":"string","name":"category","type":"string"},{"internalType":"string","name":"subCategory","type":"string"},{"internalType":"uint256","name":"weight","type":"uint256"},{"internalType":"string","name":"model","type":"string"},{"internalType":"string","name":"brand","type":"string"},{"internalType":"uint256","name":"sku","type":"uint256"},{"internalType":"bool","name":"soldout","type":"bool"},{"internalType":"bool","name":"wishlist","type":"bool"},{"internalType":"bool","name":"deleted","type":"bool"},{"components":[{"internalType":"uint256","name":"reviewId","type":"uint256"},{"internalType":"address","name":"reviewer","type":"address"},{"internalType":"uint256","name":"rating","type":"uint256"},{"internalType":"string","name":"comment","type":"string"},{"internalType":"bool","name":"deleted","type":"bool"},{"internalType":"uint256","name":"timestamp","type":"uint256"}],"internalType":"struct HemShop.ReviewStruct[]","name":"reviews","type":"tuple[]"}],"internalType":"struct HemShop.ProductStruct","name":"","type":"tuple"}],"stateMutability":"view","type":"function"},{"inputs":[{"internalType":"string","name":"categoryName","type":"string"}],"name":"getProductsByCategory","outputs":[{"components":[{"internalType":"uint256","name":"id","type":"uint256"},{"internalType":"address","name":"seller","type":"address"},{"internalType":"string","name":"name","type":"string"},{"internalType":"string","name":"description","type":"string"},{"internalType":"uint256","name":"price","type":"uint256"},{"internalType":"uint256","name":"stock","type":"uint256"},{"internalType":"string[]","name":"colors","type":"string[]"},{"internalType":"string[]","name":"sizes","type":"string[]"},{"internalType":"string[]","name":"images","type":"string[]"},{"internalType":"string","name":"category","type":"string"},{"internalType":"string","name":"subCategory","type":"string"},{"internalType":"uint256","name":"weight","type":"uint256"},{"internalType":"string","name":"model","type":"string"},{"internalType":"string","name":"brand","type":"string"},{"internalType":"uint256","name":"sku","type":"uint256"},{"internalType":"bool","name":"soldout","type":"bool"},{"internalType":"bool","name":"wishlist","type":"bool"},{"internalType":"bool","name":"deleted","type":"bool"},{"components":[{"internalType":"uint256","name":"reviewId","type":"uint256"},{"internalType":"address","name":"reviewer","type":"address"},{"internalType":"uint256","name":"rating","type":"uint256"},{"internalType":"string","name":"comment","type":"string"},{"internalType":"bool","name":"deleted","type":"bool"},{"internalType":"uint256","name":"timestamp","type":"uint256"}],"internalType":"struct HemShop.ReviewStruct[]","name":"reviews","type":"tuple[]"}],"internalType":"struct HemShop.ProductStruct[]","name":"","type":"tuple[]"}],"stateMutability":"view","type":"function"},{"inputs":[{"internalType":"uint256","name":"productId","type":"uint256"}],"name":"getReviews","outputs":[{"components":[{"internalType":"uint256","name":"reviewId","type":"uint256"},{"internalType":"address","name":"reviewer","type":"address"},{"internalType":"uint256","name":"rating","type":"uint256"},{"internalType":"string","name":"comment","type":"string"},{"internalType":"bool","name":"deleted","type":"bool"},{"internalType":"uint256","name":"timestamp","type":"uint256"}],"internalType":"struct HemShop.ReviewStruct[]","name":"","type":"tuple[]"}],"stateMutability":"view","type":"function"},{"inputs":[{"internalType":"address","name":"seller","type":"address"}],"name":"getSeller","outputs":[{"components":[{"internalType":"string","name":"businessName","type":"string"},{"internalType":"string","name":"description","type":"string"},{"internalType":"string","name":"email","type":"string"},{"internalType":"string","name":"phone","type":"string"},{"internalType":"string","name":"logo","type":"string"},{"internalType":"uint256","name":"registeredAt","type":"uint256"},{"internalType":"bool","name":"termsAccepted","type":"bool"}],"internalType":"struct HemShop.SellerProfile","name":"profile","type":"tuple"},{"internalType":"enum HemShop.SellerStatus","name":"status","type":"uint8"},{"internalType":"uint256","name":"balance","type":"uint256"},{"internalType":"uint256[]","name":"productIds","type":"uint256[]"}],"stateMutability":"view","type":"function"},{"inputs":[{"internalType":"address","name":"seller","type":"address"}],"name":"getSellerBalance","outputs":[{"internalType":"uint256","name":"","type":"uint256"}],"stateMutability":"view","type":"function"},{"inputs":[{"internalType":"address","name":"seller","type":"address"}],"name":"getSellerProducts","outputs":[{"components":[{"internalType":"uint256","name":"id","type":"uint256"},{"internalType":"address","name":"seller","type":"address"},{"internalType":"string","name":"name","type":"string"},{"internalType":"string","name":"description","type":"string"},{"internalType":"uint256","name":"price","type":"uint256"},{"internalType":"uint256","name":"stock","type":"uint256"},{"internalType":"string[]","name":"colors","type":"string[]"},{"internalType":"string[]","name":"sizes","type":"string[]"},{"internalType":"string[]","name":"images","type":"string[]"},{"internalType":"string","name":"category","type":"string"},{"internalType":"string","name":"subCategory","type":"string"},{"internalType":"uint256","name":"weight","type":"uint256"},{"internalType":"string","name":"model","type":"string"},{"internalType":"string","name":"brand","type":"string"},{"internalType":"uint256","name":"sku","type":"uint256"},{"internalType":"bool","name":"soldout","type":"bool"},{"internalType":"bool","name":"wishlist","type":"bool"},{"internalType":"bool","name":"deleted","type":"bool"},{"components":[{"internalType":"uint256","name":"reviewId","type":"uint256"},{"internalType":"address","name":"reviewer","type":"address"},{"internalType":"uint256","name":"rating","type":"uint256"},{"internalType":"string","name":"comment","type":"string"},{"internalType":"bool","name":"deleted","type":"bool"},{"internalType":"uint256","name":"timestamp","type":"uint256"}],"internalType":"struct HemShop.ReviewStruct[]","name":"reviews","type":"tuple[]"}],"internalType":"struct HemShop.ProductStruct[]","name":"","type":"tuple[]"}],"stateMutability":"view","type":"function"},{"inputs":[{"internalType":"address","name":"seller","type":"address"}],"name":"getSellerProfile","outputs":[{"components":[{"internalType":"string","name":"businessName","type":"string"},{"internalType":"string","name":"description","type":"string"},{"internalType":"string","name":"email","type":"string"},{"internalType":"string","name":"phone","type":"string"},{"internalType":"string","name":"logo","type":"string"},{"internalType":"uint256","name":"registeredAt","type":"uint256"},{"internalType":"bool","name":"termsAccepted","type":"bool"}],"internalType":"struct HemShop.SellerProfile","name":"","type":"tuple"}],"stateMutability":"view","type":"function"},{"inputs":[{"internalType":"address","name":"seller","type":"address"}],"name":"getSellerPurchaseHistory","outputs":[{"components":[{"internalType":"uint256","name":"productId","type":"uint256"},{"internalType":"uint256","name":"totalAmount","type":"uint256"},{"internalType":"uint256","name":"basePrice","type":"uint256"},{"internalType":"uint256","name":"timestamp","type":"uint256"},{"internalType":"address","name":"buyer","type":"address"},{"internalType":"address","name":"seller","type":"address"},{"internalType":"bool","name":"isDelivered","type":"bool"},{"components":[{"internalType":"string","name":"fullName","type":"string"},{"internalType":"string","name":"streetAddress","type":"string"},{"internalType":"string","name":"city","type":"string"},{"internalType":"string","name":"state","type":"string"},{"internalType":"string","name":"country","type":"string"},{"internalType":"string","name":"postalCode","type":"string"},{"internalType":"string","name":"phone","type":"string"},{"internalType":"string","name":"email","type":"string"}],"internalType":"struct HemShop.ShippingDetails","name":"shippingDetails","type":"tuple"}],"internalType":"struct HemShop.PurchaseHistoryStruct[]","name":"","type":"tuple[]"}],"stateMutability":"view","type":"function"},{"inputs":[{"internalType":"address","name":"seller","type":"address"}],"name":"getSellerStatus","outputs":[{"internalType":"enum HemShop.SellerStatus","name":"","type":"uint8"}],"stateMutability":"view","type":"function"},{"inputs":[{"internalType":"uint256","name":"_id","type":"uint256"}],"name":"getSubCategory","outputs":[{"internalType":"uint256","name":"id","type":"uint256"},{"internalType":"string","name":"name","type":"string"},{"internalType":"uint256","name":"parentCategoryId","type":"uint256"},{"internalType":"bool","name":"isActive","type":"bool"}],"stateMutability":"view","type":"function"},{"inputs":[{"internalType":"address","name":"user","type":"address"}],"name":"getUser","outputs":[{"internalType":"bool","name":"isRegistered","type":"bool"},{"components":[{"internalType":"string","name":"name","type":"string"},{"internalType":"string","name":"email","type":"string"},{"internalType":"string","name":"avatar","type":"string"},{"internalType":"uint256","name":"registeredAt","type":"uint256"},{"internalType":"bool","name":"isActive","type":"bool"}],"internalType":"struct HemShop.UserProfile","name":"profile","type":"tuple"},{"internalType":"bool","name":"isSeller","type":"bool"},{"internalType":"enum HemShop.SellerStatus","name":"sellerState","type":"uint8"}],"stateMutability":"view","type":"function"},{"inputs":[{"internalType":"address","name":"account","type":"address"}],"name":"impersonateAccount","outputs":[],"stateMutability":"nonpayable","type":"function"},{"inputs":[{"internalType":"address","name":"owner","type":"address"},{"internalType":"address","name":"operator","type":"address"}],"name":"isApprovedForAll","outputs":[{"internalType":"bool","name":"","type":"bool"}],"stateMutability":"view","type":"function"},{"inputs":[{"internalType":"uint256","name":"productId","type":"uint256"},{"internalType":"address","name":"buyer","type":"address"}],"name":"markPurchaseDelivered","outputs":[],"stateMutability":"nonpayable","type":"function"},{"inputs":[],"name":"name","outputs":[{"internalType":"string","name":"","type":"string"}],"stateMutability":"view","type":"function"},{"inputs":[],"name":"owner","outputs":[{"internalType":"address","name":"","type":"address"}],"stateMutability":"view","type":"function"},{"inputs":[{"internalType":"uint256","name":"tokenId","type":"uint256"}],"name":"ownerOf","outputs":[{"internalType":"address","name":"","type":"address"}],"stateMutability":"view","type":"function"},{"inputs":[{"internalType":"uint256","name":"","type":"uint256"}],"name":"productExists","outputs":[{"internalType":"bool","name":"","type":"bool"}],"stateMutability":"view","type":"function"},{"inputs":[{"internalType":"uint256","name":"","type":"uint256"}],"name":"products","outputs":[{"internalType":"uint256","name":"id","type":"uint256"},{"internalType":"address","name":"seller","type":"address"},{"internalType":"string","name":"name","type":"string"},{"internalType":"string","name":"description","type":"string"},{"internalType":"uint256","name":"price","type":"uint256"},{"internalType":"uint256","name":"stock","type":"uint256"},{"internalType":"string","name":"category","type":"string"},{"internalType":"string","name":"subCategory","type":"string"},{"internalType":"uint256","name":"weight","type":"uint256"},{"internalType":"string","name":"model","type":"string"},{"internalType":"string","name":"brand","type":"string"},{"internalType":"uint256","name":"sku","type":"uint256"},{"internalType":"bool","name":"soldout","type":"bool"},{"internalType":"bool","name":"wishlist","type":"bool"},{"internalType":"bool","name":"deleted","type":"bool"}],"stateMutability":"view","type":"function"},{"inputs":[{"internalType":"string","name":"businessName","type":"string"},{"internalType":"string","name":"description","type":"string"},{"internalType":"string","name":"email","type":"string"},{"internalType":"string","name":"phone","type":"string"},{"internalType":"string","name":"logo","type":"string"}],"name":"registerSeller","outputs":[],"stateMutability":"nonpayable","type":"function"},{"inputs":[{"internalType":"string","name":"name","type":"string"},{"internalType":"string","name":"email","type":"string"},{"internalType":"string","name":"avatar","type":"string"}],"name":"registerUser","outputs":[],"stateMutability":"nonpayable","type":"function"},{"inputs":[{"internalType":"address","name":"","type":"address"}],"name":"registeredSellers","outputs":[{"internalType":"bool","name":"","type":"bool"}],"stateMutability":"view","type":"function"},{"inputs":[{"internalType":"address","name":"","type":"address"}],"name":"registeredUsers","outputs":[{"internalType":"bool","name":"","type":"bool"}],"stateMutability":"view","type":"function"},{"inputs":[],"name":"renounceOwnership","outputs":[],"stateMutability":"nonpayable","type":"function"},{"inputs":[{"internalType":"uint256","name":"","type":"uint256"}],"name":"reviewExists","outputs":[{"internalType":"bool","name":"","type":"bool"}],"stateMutability":"view","type":"function"},{"inputs":[{"internalType":"address","name":"from","type":"address"},{"internalType":"address","name":"to","type":"address"},{"internalType":"uint256","name":"tokenId","type":"uint256"}],"name":"safeTransferFrom","outputs":[],"stateMutability":"nonpayable","type":"function"},{"inputs":[{"internalType":"address","name":"from","type":"address"},{"internalType":"address","name":"to","type":"address"},{"internalType":"uint256","name":"tokenId","type":"uint256"},{"internalType":"bytes","name":"data","type":"bytes"}],"name":"safeTransferFrom","outputs":[],"stateMutability":"nonpayable","type":"function"},{"inputs":[{"internalType":"address","name":"","type":"address"}],"name":"sellerBalances","outputs":[{"internalType":"uint256","name":"","type":"uint256"}],"stateMutability":"view","type":"function"},{"inputs":[{"internalType":"address","name":"","type":"address"},{"internalType":"uint256","name":"","type":"uint256"}],"name":"sellerProducts","outputs":[{"internalType":"uint256","name":"","type":"uint256"}],"stateMutability":"view","type":"function"},{"inputs":[{"internalType":"address","name":"","type":"address"}],"name":"sellerProfiles","outputs":[{"internalType":"string","name":"businessName","type":"string"},{"internalType":"string","name":"description","type":"string"},{"internalType":"string","name":"email","type":"string"},{"internalType":"string","name":"phone","type":"string"},{"internalType":"string","name":"logo","type":"string"},{"internalType":"uint256","name":"registeredAt","type":"uint256"},{"internalType":"bool","name":"termsAccepted","type":"bool"}],"stateMutability":"view","type":"function"},{"inputs":[{"internalType":"address","name":"","type":"address"},{"internalType":"uint256","name":"","type":"uint256"}],"name":"sellerPurchaseHistory","outputs":[{"internalType":"uint256","name":"productId","type":"uint256"},{"internalType":"uint256","name":"totalAmount","type":"uint256"},{"internalType":"uint256","name":"basePrice","type":"uint256"},{"internalType":"uint256","name":"timestamp","type":"uint256"},{"internalType":"address","name":"buyer","type":"address"},{"internalType":"address","name":"seller","type":"address"},{"internalType":"bool","name":"isDelivered","type":"bool"},{"components":[{"internalType":"string","name":"fullName","type":"string"},{"internalType":"string","name":"streetAddress","type":"string"},{"internalType":"string","name":"city","type":"string"},{"internalType":"string","name":"state","type":"string"},{"internalType":"string","name":"country","type":"string"},{"internalType":"string","name":"postalCode","type":"string"},{"internalType":"string","name":"phone","type":"string"},{"internalType":"string","name":"email","type":"string"}],"internalType":"struct HemShop.ShippingDetails","name":"shippingDetails","type":"tuple"}],"stateMutability":"view","type":"function"},{"inputs":[{"internalType":"address","name":"","type":"address"}],"name":"sellerStatus","outputs":[{"internalType":"enum HemShop.SellerStatus","name":"","type":"uint8"}],"stateMutability":"view","type":"function"},{"inputs":[],"name":"servicePct","outputs":[{"internalType":"uint256","name":"","type":"uint256"}],"stateMutability":"view","type":"function"},{"inputs":[{"internalType":"address","name":"operator","type":"address"},{"internalType":"bool","name":"approved","type":"bool"}],"name":"setApprovalForAll","outputs":[],"stateMutability":"nonpayable","type":"function"},{"inputs":[],"name":"stopImpersonating","outputs":[],"stateMutability":"nonpayable","type":"function"},{"inputs":[{"internalType":"bytes4","name":"interfaceId","type":"bytes4"}],"name":"supportsInterface","outputs":[{"internalType":"bool","name":"","type":"bool"}],"stateMutability":"view","type":"function"},{"inputs":[],"name":"symbol","outputs":[{"internalType":"string","name":"","type":"string"}],"stateMutability":"view","type":"function"},{"inputs":[{"internalType":"uint256","name":"tokenId","type":"uint256"}],"name":"tokenURI","outputs":[{"internalType":"string","name":"","type":"string"}],"stateMutability":"view","type":"function"},{"inputs":[{"internalType":"address","name":"from","type":"address"},{"internalType":"address","name":"to","type":"address"},{"internalType":"uint256","name":"tokenId","type":"uint256"}],"name":"transferFrom","outputs":[],"stateMutability":"nonpayable","type":"function"},{"inputs":[{"internalType":"address","name":"newOwner","type":"address"}],"name":"transferOwnership","outputs":[],"stateMutability":"nonpayable","type":"function"},{"inputs":[{"internalType":"uint256","name":"_id","type":"uint256"},{"internalType":"string","name":"_name","type":"string"},{"internalType":"bool","name":"_isActive","type":"bool"}],"name":"updateCategory","outputs":[],"stateMutability":"nonpayable","type":"function"},{"inputs":[{"internalType":"uint256","name":"productId","type":"uint256"},{"components":[{"internalType":"string","name":"name","type":"string"},{"internalType":"string","name":"description","type":"string"},{"internalType":"uint256","name":"price","type":"uint256"},{"internalType":"uint256","name":"stock","type":"uint256"},{"internalType":"string[]","name":"colors","type":"string[]"},{"internalType":"string[]","name":"sizes","type":"string[]"},{"internalType":"string[]","name":"images","type":"string[]"},{"internalType":"uint256","name":"categoryId","type":"uint256"},{"internalType":"uint256","name":"subCategoryId","type":"uint256"},{"internalType":"uint256","name":"weight","type":"uint256"},{"internalType":"string","name":"model","type":"string"},{"internalType":"string","name":"brand","type":"string"},{"internalType":"uint256","name":"sku","type":"uint256"}],"internalType":"struct HemShop.ProductInput","name":"input","type":"tuple"}],"name":"updateProduct","outputs":[],"stateMutability":"nonpayable","type":"function"},{"inputs":[{"internalType":"address","name":"seller","type":"address"},{"internalType":"enum HemShop.SellerStatus","name":"status","type":"uint8"}],"name":"updateSellerStatus","outputs":[],"stateMutability":"nonpayable","type":"function"},{"inputs":[{"internalType":"uint256","name":"_id","type":"uint256"},{"internalType":"string","name":"_name","type":"string"},{"internalType":"bool","name":"_isActive","type":"bool"}],"name":"updateSubCategory","outputs":[],"stateMutability":"nonpayable","type":"function"},{"inputs":[{"internalType":"address","name":"","type":"address"}],"name":"userProfiles","outputs":[{"internalType":"string","name":"name","type":"string"},{"internalType":"string","name":"email","type":"string"},{"internalType":"string","name":"avatar","type":"string"},{"internalType":"uint256","name":"registeredAt","type":"uint256"},{"internalType":"bool","name":"isActive","type":"bool"}],"stateMutability":"view","type":"function"},{"inputs":[{"internalType":"uint256","name":"","type":"uint256"}],"name":"usersList","outputs":[{"internalType":"address","name":"","type":"address"}],"stateMutability":"view","type":"function"},{"inputs":[],"name":"withdraw","outputs":[],"stateMutability":"nonpayable","type":"function"}],"evm":{"bytecode":{"linkReferences":{},"object":"6080346200037757601f90601f196001600160401b0362009b9c3881900385810184168501838111868210176200037c57859282916040528339602094859181010312620003775751936200005362000392565b926007845266048656d53686f760cc1b858501526200007162000392565b60038082526204873760ec1b8783015260008054336001600160a01b031982168117835592989394919392906001600160a01b03167f8be0079c531659141344cd1fd0a4f28419497f9722a3daafe3b4186f6b6457e08580a360019687805580519087821162000363576002548981811c9116801562000358575b858210146200034457908188849311620002f0575b5084908883116001146200028e57869262000282575b5050600019828b1b1c191690881b176002555b83519586116200026e5787548781811c9116801562000263575b838210146200024f5785811162000207575b5081948611600114620001a25750509183949184939462000196575b50501b9160001990841b1c19161790555b600b556040516197e99081620003b38239f35b01519250388062000172565b8783528183209493928692918316915b88838310620001ec5750505010620001d3575b505050811b01905562000183565b015160001983861b60f8161c19169055388080620001c5565b858701518855909601959485019487935090810190620001b2565b8884528284208680890160051c820192858a1062000245575b0160051c019088905b8281106200023957505062000156565b85815501889062000229565b9250819262000220565b634e487b7160e01b84526022600452602484fd5b90607f169062000144565b634e487b7160e01b83526041600452602483fd5b01519050388062000117565b90848b9416916002885286882092885b88828210620002d95750508411620002c0575b505050811b016002556200012a565b0151600019838d1b60f8161c19169055388080620002b1565b8385015186558e979095019493840193016200029e565b909150600286528486208880850160051c8201928786106200033a575b918c91869594930160051c01915b8281106200032b57505062000101565b8881558594508c91016200031b565b925081926200030d565b634e487b7160e01b86526022600452602486fd5b90607f1690620000ec565b634e487b7160e01b85526041600452602485fd5b600080fd5b634e487b7160e01b600052604160045260246000fd5b60408051919082016001600160401b038111838210176200037c5760405256fe608080604052600436101561001357600080fd5b60003560e01c908162d64e76146152915750806301ffc9a71461522357806302ee3a5214614fa957806306fdde0314614f04578063081812fc14614ee6578063095ea7b314614d6c5780630e50cee514614d2d57806311aa5b3414614d095780631385fd9214614cb557806316d81b3814614abd57806317e9854814614a455780632148893f146142ae57806323b872dd14614a1c57806324d41a03146147ff578063317a0827146146b8578063332d56d7146145f75780633c2575d5146145125780633ccfd60b146144f957806342842e0e146144d15780634293e5ce146143cf57806345de84db1461438d578063502aa3b51461434b5780635be20959146142e8578063607eb4e4146142ae5780636352211e1461427e578063661e171214613a7c57806366224d8e146139265780636f2c85991461387b5780636f68ef3a1461374f5780636f77926b1461356b57806370a08231146134d4578063715018a61461348d5780637acc0b20146132ce5780637d3978db146130b05780637e8555ed14612a0e578063868a5461146129ce5780638da5cb5b146129a55780638f38cc7b146126825780639196dfcb1461256857806395d89b411461248657806397b6f393146123155780639d4a2255146121865780639fa44dbf1461213e578063a22cb46514612073578063a22fb38714611fc8578063a323d29e14611e75578063af55ed6414611e44578063b27e169714611d5f578063b88d4fde14611d00578063b95a062814611cc5578063b9db15b414611aab578063c1302b3414611a53578063c64b8a8f14611a14578063c87b56dd146119ba578063ceca737f14611936578063d2bc9d7814611689578063d3e2457f14611556578063d637dcfa146110e1578063dadd0a5714610dee578063dc29868214610bb7578063e01ef6e614610b99578063e40971e514610b5c578063e585cb2c14610acc578063e6a93e161461080b578063e985e9c5146107b5578063eb11c43414610783578063ed90c7b714610765578063f2fde38b146106b6578063f3052d26146105f65763fdca4ca31461032057600080fd5b346105f15760003660031901126105f15760088054600060015b8281111561058b575061034c906187c9565b9060009260015b8281111561036d5760405180610369868261554b565b0390f35b600081815260106020818152604090922060018101546001600160a01b031692913384148061057a575b6103ae575b505050506103a99061635f565b610353565b604098949851936103be856155d9565b82548552838501526040516103e1816103da81600287016157d6565b0382615698565b60408501526040516103fa816103da81600387016157d6565b606085015260048201546080850152600582015460a0850152600691610421838201618703565b60c086015261043260078201618703565b60e0860152610442878201618703565b61010086015260405161045c816103da81600986016157d6565b610120860152604051610476816103da81600a86016157d6565b610140860152600b81015461016086015260405161049b816103da81600c86016157d6565b6101808601526040516104b5816103da81600d86016157d6565b6101a0860152600e8101546101c0860152600f81015460ff9081811615156101e088015281818a1c161515610200880152831c16151561022086015201908154916104ff8361636e565b9361050d6040519586615698565b8385526000918252808220918186015b85821061055e5750505050505091816103a99361024061055494015261054382886163b7565b5261054e81876163b7565b5061635f565b949038808061039c565b848360019261056c87618768565b81520194019101909261051d565b5060ff600f830154821c1615610397565b600081815260106020819052604090912060018101546001600160a01b031633149190826105de575b50506105c9575b6105c49061635f565b61033a565b906105d66105c49161635f565b9190506105bb565b60ff9250600f0154901c161538806105b4565b600080fd5b346105f15760203660031901126105f157600435600052600e60205260406000206040516106238161562c565b81548152610369604051916106468361063f81600188016157d6565b0384615698565b6020810192835261066a600360ff600287015416956040840196151587520161897a565b906060810191825261067e815115156188cb565b5192519351151590516106a360405195869586526080602087015260808601906152be565b9160408501528382036060850152615c39565b346105f15760203660031901126105f1576106cf6155ad565b6106d7615c6d565b6001600160a01b03908116908115610711576000548260018060a01b03198216176000551660008051602061975d833981519152600080a3005b60405162461bcd60e51b815260206004820152602660248201527f4f776e61626c653a206e6577206f776e657220697320746865207a65726f206160448201526564647265737360d01b6064820152608490fd5b346105f15760203660031901126105f15761078160043561852a565b005b346105f15760203660031901126105f15760206107a66107a16155ad565b616324565b6107b36040518092615a52565bf35b346105f15760403660031901126105f1576107ce6155ad565b6107d66155c3565b9060018060a01b03809116600052600760205260406000209116600052602052602060ff604060002054166040519015158152f35b346105f15760203660031901126105f1576108246155ad565b600854600060015b82811115610a63575061083e906187c9565b90600160005b8282111561085a5760405180610369868261554b565b600082815260106020819052604090912060018101546001600160a01b039081169291908816831480610a52575b6108a0575b5050509061089a9061635f565b90610844565b604051926108ad846155d9565b8154845260208401526040516108ca816103da81600286016157d6565b60408401526040516108e3816103da81600386016157d6565b606084015260048101546080840152600581015460a084015261090860068201618703565b60c084015261091960078201618703565b60e084015261092a60088201618703565b610100840152604051610944816103da81600986016157d6565b61012084015260405161095e816103da81600a86016157d6565b610140840152600b810154610160840152604051610983816103da81600c86016157d6565b61018084015260405161099d816103da81600d86016157d6565b6101a0840152600e8101546101c0840152600f81015460ff9081811615156101e0860152818160081c161515610200860152831c161515610220840152018054906109e78261636e565b916109f56040519384615698565b808352602083019160005260206000206000925b828410610a34575050505061024082015261089a91610a2c9161054382886163b7565b90868061088d565b60066020600192610a4485618768565b815201920193019290610a09565b5060ff600f820154831c1615610888565b600081815260106020819052604090912060018101546001600160a01b03878116911614919082610ab9575b5050610aa4575b610a9f9061635f565b61082c565b90610ab1610a9f9161635f565b919050610a96565b60ff9250600f0154901c16158580610a8f565b346105f15760403660031901126105f157610ae56155ad565b6001600160a01b0390811660009081526015602052604090208054602435908110156105f157610b1491615b07565b5090610369825460018401549360028101549160038201548560048401541690610b45600660058601549501615b23565b9460405198899860ff8760a01c1696169489615bef565b346105f1576003196020368201126105f157600435906001600160401b0382116105f1576101a09082360301126105f157610781906004016163cb565b346105f15760003660031901126105f1576020600b54604051908152f35b346105f1576020806003193601126105f1576001600160401b036004358181116105f157610be990369060040161570d565b90610bf2615c6d565b610bfe82511515618819565b610c09601d5461635f565b9081601d55604051610c1a8161567d565b60008152604051610c2a8161562c565b838152858101858152604082019060019586835260608401948552600052600e88526040600020925183558583019051805190868211610d5c57610c7882610c72855461579c565b85616205565b8990601f8311600114610d7d579180610cb794926003979694600092610d72575b505060001982881b1c191690891b1790555b51151560028301616017565b0190518051928311610d5c57600160401b8311610d5c5785908254848455808510610d3f575b5001906000528460002060005b838110610d2e57601d546040518881527f11c167cc9b439f0ad8bec5588159f1b06b813bc38d50c867a41b23b077be2c1a9080610d29818c018b6152be565b0390a2005b825182820155918601918401610cea565b610d569084600052858460002091820191016161ee565b87610cdd565b634e487b7160e01b600052604160045260246000fd5b015190508c80610c99565b889291601f19831691856000528c600020928d6000905b828210610dd7575050916003989795939185610cb798969410610dbf575b505050811b019055610cab565b0151600019838a1b60f8161c191690558c8080610db2565b8385015186558d979095019493840193018e610d94565b346105f15760003660031901126105f157601d54610e0b81616385565b610e148261636e565b91610e226040519384615698565b808352610e3e601f19610e348361636e565b01602085016189c9565b610e478161636e565b92610e556040519485615698565b818452601f19610e648361636e565b01366020860137610e748261636e565b90610e826040519283615698565b828252610e8e8361636e565b92610ea16020840194601f1901856189c9565b60015b81811115610fdd575050610ec360405194608086526080860190615c39565b8481036020860152815180825260208201916020808360051b8301019401926000915b838310610fb057505050505083810360408501526020808651928381520195019060005b818110610f9857505050828403606084015251808452602084019060208160051b86010192916000905b828210610f415785850386f35b90919293601f19878203018252845190602080835192838152019201906000905b808210610f8057505050602080600192960192019201909291610f34565b90919260208060019286518152019401920190610f62565b82511515875260209687019690920191600101610f0a565b9091929394602080610fce600193601f1986820301875289516152be565b97019301930191939290610ee6565b80600052600e602052604060002090611030600360405193610ffe8561562c565b80548552604051611016816103da81600186016157d6565b602086015260ff600282015416151560408601520161897a565b6060830152815161104b575b611046915061635f565b610ea4565b806000198101116110cb57606082611046935161106c60001985018b6163b7565b5260208101516110806000198501886163b7565b5261108f6000198401876163b7565b50604081015115156110a560001985018c6163b7565b5201516110b66000198301876163b7565b526110c56000198201866163b7565b5061103c565b634e487b7160e01b600052601160045260246000fd5b346105f15760603660031901126105f1576004356001600160401b0381116105f15761111190369060040161570d565b6024356001600160401b0381116105f15761113090369060040161570d565b6044356001600160401b0381116105f15761114f90369060040161570d565b33600052601a60205260ff6040600020541661151757611171835115156164cb565b8151156114da576040519161118583615647565b838352602083015260408201524260608201526001608082015233600052601b602052604060002091815192835160018060401b038111610d5c576111d4816111ce845461579c565b84616205565b6020601f8211600114611471578192939495600092611466575b50508160011b916000199060031b1c19161781555b602083015180519093906001600160401b038111610d5c576112358161122c600186015461579c565b60018601616205565b6020601f82116001146113f75781929394956000926113ec575b50508160011b916000199060031b1c19161760018301555b6040810151805160028401916001600160401b038211610d5c5761128f82610c72855461579c565b602090601f831160011461137a5792826080936112dd97969360049660009261136f575b50508160011b916000199060031b1c19161790555b60608101516003850155015115159101616017565b336000908152601a60205260409020805460ff19166001179055601c54600160401b811015610d5c576113198160016113379301601c55615a5f565b81546001600160a01b0360039290921b91821b19163390911b179055565b7f48cac28ad4dc618e15f4c2dd5e97751182f166de97b25618318b2112aa951a2f6040516020815280610d29339460208301906152be565b0151905089806112b3565b90601f198316918460005260206000209260005b8181106113d45750936112dd9796936004969360019383608098106113bb575b505050811b0190556112c8565b015160001960f88460031b161c191690558980806113ae565b9293602060018192878601518155019501930161138e565b01519050858061124f565b6001840160005260206000209060005b601f198416811061144e575060019394959683601f19811610611435575b505050811b016001830155611267565b015160001960f88460031b161c19169055858080611425565b9091602060018192858b015181550193019101611407565b0151905085806111ee565b8260005260206000209060005b601f19841681106114c2575060019394959683601f198116106114a9575b505050811b018155611203565b015160001960f88460031b161c1916905585808061149c565b9091602060018192858b01518155019301910161147e565b60405162461bcd60e51b8152602060048201526015602482015274456d61696c2063616e6e6f7420626520656d70747960581b6044820152606490fd5b60405162461bcd60e51b8152602060048201526017602482015276155cd95c88185b1c9958591e481c9959da5cdd195c9959604a1b6044820152606490fd5b346105f15760003660031901126105f157600c546000805b82811061162c575061157f90616385565b906000805b82811061159957604051806103698682615ac3565b6115a281615a90565b60018060a01b03809254600392831b1c16600052601360205260ff604060002054166004811015611616576001146115e5575b50506115e09061635f565b611584565b9261160e9183946115f86115e095615a90565b9054911b1c1661160882886163b7565b5261635f565b9190856115d5565b634e487b7160e01b600052602160045260246000fd5b61163581615a90565b60018060a01b0391549060031b1c16600052601360205260ff60406000205416600481101561161657600114611674575b61166f9061635f565b61156e565b9061168161166f9161635f565b919050611666565b346105f15760403660031901126105f1576024356001600160401b0381116105f157366023820112156105f1576001600160401b036004820135116105f157366024826004013560051b830101116105f157600435600052600e60205260ff60026040600020015416156118f45760005b8160040135811061170757005b611712601e5461635f565b80601e5561174461172b838560040135602487016188b0565b91906040519261173a8461562c565b84845236916156d6565b9160208201928352600435604083015260016060830152600052600f602052604060002091815183555180519060018060401b038211610d5c576117988261178f600187015461579c565b60018701616205565b602090601f83116001146118765761180a93836118669796946117f09460609460009261186b575b50508160011b916000199060031b1c19161760018501555b60408101516002850155015115156003809301616017565b600435600052600e602052604060002001601e5490616a47565b60008051602061979d833981519152601e5461182e838660040135602488016188b0565b9290836040519160208352816020840152604083013760006040858301015260408160043595601f80199101168101030190a361635f565b6116fa565b015190508a806117c0565b906001850160005260206000209160005b601f19851681106118dc5750936001846117f09460609461180a986118669b9a98601f198116106118c3575b505050811b0160018501556117d8565b015160001960f88460031b161c191690558a80806118b3565b91926020600181928685015181550194019201611887565b60405162461bcd60e51b815260206004820152601a602482015279506172656e742063617465676f7279206e6f742061637469766560301b6044820152606490fd5b346105f15760203660031901126105f157600435611952615c6d565b80600052600e60205261196b60406000205415156188cb565b80600052600e60205260008051602061973d8339815191526119ae60406000206002810160ff1981541690556040519182916040835260016040840191016157d6565b600060208301520390a2005b346105f15760203660031901126105f1576119de6119d9600435616028565b615cc5565b60006040516119ec8161567d565b526103696040516119fc8161567d565b600081526040519182916020835260208301906152be565b346105f15760203660031901126105f1576001600160a01b03611a356155ad565b166000526016602052602060ff604060002054166040519015158152f35b346105f15760403660031901126105f157611a6c6155ad565b6001600160a01b03166000908152601160205260409020805460243591908210156105f157602091611a9d91615aab565b90546040519160031b1c8152f35b346105f1576020806003193601126105f157600435611ac8616786565b508060005260108252611ae960ff600f6040600020015460101c16156179c7565b8060005260178252611b0260ff60406000205416617982565b6000526010815260406000209060405191611b1c836155d9565b805483526001808201546001600160a01b031683850152604051611b47816103da81600287016157d6565b6040850152604051611b60816103da81600387016157d6565b606085015260048201546080850152600582015460a08501526010600692611b89848201618703565b60c0870152611b9a60078201618703565b60e0870152611bab60088201618703565b610100870152604051611bc5816103da81600986016157d6565b610120870152604051611bdf816103da81600a86016157d6565b610140870152600b810154610160870152604051611c04816103da81600c86016157d6565b610180870152604051611c1e816103da81600d86016157d6565b6101a0870152600e8101546101c087015260ff600f82015481811615156101e0890152818160081c161515610200890152831c1615156102208701520191825490611c688261636e565b93611c766040519586615698565b8285526000908152858120868087015b858410611ca8576102408a01889052604051828152806103698185018d6153fb565b86918591611cb585618768565b8152019201920191908790611c86565b346105f15760203660031901126105f15760206001600160a01b0380611ce96155ad565b166000526019825260406000205416604051908152f35b346105f15760803660031901126105f157611d196155ad565b611d216155c3565b606435916001600160401b0383116105f157366023840112156105f157611d556107819336906024816004013591016156d6565b9160443591615db8565b346105f1576020806003193601126105f1576001600160a01b039081611d836155ad565b16600052601481526040600020805490611d9c8261636e565b92611daa6040519485615698565b82845260009182528082208185015b848410611dce57604051806103698882615914565b600e83600192604051611de0816155f5565b85548152848601548382015260028601546040820152600386015460608201528a600487015416608082015260ff600587015460a08d8216818501521c16151560c0820152611e3160068701615b23565b60e0820152815201920193019290611db9565b346105f15760203660031901126105f1576004356000526017602052602060ff604060002054166040519015158152f35b346105f1576020806003193601126105f157611fad90610369611e966155ad565b611e9e6162ed565b5060018060a01b0316918260005260168152611ec160ff604060002054166162a9565b82600052600d815260406000209260ff600660405195611ee087615611565b604051611ef1816103da81856157d6565b8752604051611f07816103da81600186016157d6565b85880152604051611f1f816103da81600286016157d6565b6040880152604051611f38816103da81600386016157d6565b6060880152604051611f51816103da81600486016157d6565b6080880152600581015460a0880152015416151560c08501526000526013815260ff604060002054166012825260406000205460118352611fb6611f98604060002061897a565b926040519788976080895260808901906159d2565b94870190615a52565b60408501528382036060850152615c39565b346105f15760203660031901126105f157611fe16155ad565b611fe9615c6d565b6001600160a01b031680156120345760406000805160206196fd83398151915291336000526019602052816000208160018060a01b03198254161790558151903382526020820152a1005b60405162461bcd60e51b8152602060048201526017602482015276496e76616c6964206163636f756e74206164647265737360481b6044820152606490fd5b346105f15760403660031901126105f15761208c6155ad565b60243590811515908183036105f1576001600160a01b0316913383146120fd576120cf903360005260076020526040600020846000526020526040600020616017565b6040519081527f17307eab39ab6107e8899845ad3d59bd9653f200f220920489ca2b5937696c3160203392a3005b60405162461bcd60e51b815260206004820152601960248201527822a9219b99189d1030b8383937bb32903a379031b0b63632b960391b6044820152606490fd5b346105f15760403660031901126105f1576121576155ad565b6001600160a01b0390811660009081526014602052604090208054602435908110156105f157610b1491615b07565b346105f1576020806003193601126105f1576004358060005260109182815260ff6121bd81600f60406000200154861c16156179c7565b82600052601782526121d58160406000205416617982565b60009160005b8460005285825285604060002001805482101561222c5760046121ff838693618a24565b5001541615612217575b6122129061635f565b6121db565b926122246122129161635f565b939050612209565b505083856122398561636e565b946122476040519687615698565b808652612256601f199161636e565b018360005b8281106122ff5750505060009160005b816000528285528260406000200180548210156122ec57600461228f838993618a24565b50015416156122a7575b6122a29061635f565b61226b565b926122e46122a291836000528487526122cf6122c98787604060002001618a24565b50618768565b6122d9828b6163b7565b5261054e818a6163b7565b939050612299565b604051868152806103698189018b61535a565b6123076189f3565b82828a01015201849061225b565b346105f15760403660031901126105f15761232e6155ad565b6024359060048210156105f157612343615c6d565b6001600160a01b031690612358821515616264565b816000526020906016825261237460ff604060002054166162a9565b826000526013825260ff60406000205416600481101561161657811461244c57600281146123e6575b907fd8f7bcb2c5cffc294a0aaef719685993d7be95273fb8254803a1563510ccefed9183600052601382526123d681604060002061624c565b6123e36040518092615a52565ba2005b826000526013825260ff6040600020541660048110156116165760011461239d5760405162461bcd60e51b815260048101839052601f60248201527f43616e206f6e6c79207665726966792070656e64696e672073656c6c657273006044820152606490fd5b60405162461bcd60e51b815260048101839052601260248201527114dd185d1d5cc8185b1c9958591e481cd95d60721b6044820152606490fd5b346105f15760003660031901126105f1576040516000906003546124a98161579c565b80835260019180831690811561254057506001146124e6575b610369836124d281870382615698565b6040519182916020835260208301906152be565b6003600090815260209450917fc2575a0e9e593c00f959f8c92f12db2869c3395a3b0502d05e2516446f71f85b5b82841061252d575050508101909101906124d2816124c2565b8054858501870152928501928101612514565b61036995506124d293506020915091849260ff191682840152151560051b82010193506124c2565b346105f15760203660031901126105f1576001600160a01b036125896155ad565b16600052600d6020526126396040600020604051906125b3826125ac81846157d6565b0383615698565b6040516125c7816103da81600186016157d6565b6126716040516125de816103da81600288016157d6565b6126636040516125f5816103da8160038a016157d6565b612655604051936126148561260d8160048c016157d6565b0386615698565b61264760ff600660058b01549a015416976040519b8c9b60e08d5260e08d01906152be565b908b820360208d01526152be565b9089820360408b01526152be565b9087820360608901526152be565b9085820360808701526152be565b9160a0840152151560c08301520390f35b346105f15760203660031901126105f1576004356001600160401b0381116105f1576126b290369060040161570d565b600854600060015b8281111561292357506126cc906187c9565b90600160005b828211156126e85760405180610369868261554b565b816000526010806020526009906103da61270e83604060002001604051928380926157d6565b60208151910120875160208901201480612906575b61273a575b5050906127349061635f565b906126d2565b836000528060205260406000206103da6127f96040519461275a866155d9565b8354865260018401546001600160a01b03166020870152604051612785816103da81600289016157d6565b604087015260405161279e816103da81600389016157d6565b606087015260048401546080870152600584015460a08701526127c360068501618703565b60c08701526127d460078501618703565b60e08701526127e560088501618703565b6101008701526040519283809286016157d6565b610120840152604051612813816103da81600a86016157d6565b610140840152600b810154610160840152604051612838816103da81600c86016157d6565b610180840152604051612852816103da81600d86016157d6565b6101a0840152600e8101546101c0840152600f81015460ff9081811615156101e0860152818160081c161515610200860152831c1615156102208401520180549061289c8261636e565b916128aa6040519384615698565b808352602083019160005260206000206000925b8284106128e85750505050610240820152612734916128e19161054382886163b7565b9086612728565b600660206001926128f885618768565b8152019201930192906128be565b50836000528060205260ff600f60406000200154821c1615612723565b806000526010806020526103da6129476009604060002001604051928380926157d6565b6020815191012085516020870120149081612986575b50612971575b61296c9061635f565b6126ba565b9061297e61296c9161635f565b919050612963565b60ff91508260005280602052600f60406000200154901c16158561295d565b346105f15760003660031901126105f1576000546040516001600160a01b039091168152602090f35b346105f1576003196040368201126105f157602435906001600160401b0382116105f1576101a09082360301126105f15761078190600401600435617893565b346105f15760a03660031901126105f1576004356001600160401b0381116105f157612a3e90369060040161570d565b6024356001600160401b0381116105f157612a5d90369060040161570d565b6044356001600160401b0381116105f157612a7c90369060040161570d565b6064356001600160401b0381116105f157612a9b90369060040161570d565b906084356001600160401b0381116105f157612abb90369060040161570d565b6000549093906001600160a01b0316330361305f575b84511561302157612ae482511515616174565b612af0835115156161b1565b60405194612afd86615611565b855260208501526040840152606083015260808201524260a0820152600160c082015233600052600d6020526040600020815191825160018060401b038111610d5c57612b4e81610c72855461579c565b6020601f8211600114612fb95781929394600092612fae575b50508160011b916000199060031b1c19161782555b602081015180519092906001600160401b038111610d5c57612bae81612ba5600185015461579c565b60018501616205565b6020601f8211600114612f405781929394600092612f35575b50508160011b916000199060031b1c19161760018201555b604082015180519092906001600160401b038111610d5c57612c1181612c08600286015461579c565b60028601616205565b6020601f8211600114612ec75781929394600092612ebc575b50508160011b916000199060031b1c19161760028301555b606081015180519092906001600160401b038111610d5c57612c7481612c6b600385015461579c565b60038501616205565b6020601f8211600114612e4e5781929394600092612e43575b50508160011b916000199060031b1c19161760038201555b6080820151805190929060048301906001600160401b038111610d5c57612cd0816111ce845461579c565b6020601f8211600114612dd35791816006949260c094612d1c98600092612dc8575b50508160011b916000199060031b1c19161790555b60a08101516005850155015115159101616017565b336000818152601660205260408120805460ff19166001179055546001600160a01b031603612dbe57612d5a60025b6013602052604060002061624c565b612d63336196ab565b15612d97575b6040514281527fa1a1a78ff3033d5ee8393372052aeb2a16bbb347a29f3780370e9506c109e37260203392a2005b600c54600160401b811015610d5c57611319816001612db99301600c55615a90565b612d69565b612d5a6001612d4b565b015190508880612cf2565b601f198216958360005260206000209660005b818110612e2b575092612d1c9760c09593600193836006999710612e12575b505050811b019055612d07565b015160001960f88460031b161c19169055888080612e05565b83830151895560019098019760209384019301612de6565b015190508480612c8d565b6003830160005260206000209060005b601f1984168110612ea45750600193949583601f19811610612e8b575b505050811b016003820155612ca5565b015160001960f88460031b161c19169055848080612e7b565b9091602060018192858a015181550193019101612e5e565b015190508480612c2a565b6002840160005260206000209060005b601f1984168110612f1d5750600193949583601f19811610612f04575b505050811b016002830155612c42565b015160001960f88460031b161c19169055848080612ef4565b9091602060018192858a015181550193019101612ed7565b015190508480612bc7565b6001830160005260206000209060005b601f1984168110612f965750600193949583601f19811610612f7d575b505050811b016001820155612bdf565b015160001960f88460031b161c19169055848080612f6d565b9091602060018192858a015181550193019101612f50565b015190508480612b67565b8360005260206000209060005b601f19841681106130095750600193949583601f19811610612ff0575b505050811b018255612b7c565b015160001960f88460031b161c19169055848080612fe3565b9091602060018192858a015181550193019101612fc6565b60405162461bcd60e51b8152602060048201526016602482015275109d5cda5b995cdcc81b985b59481c995c5d5a5c995960521b6044820152606490fd5b33600052601660205260ff6040600020541615612ad15760405162461bcd60e51b8152602060048201526012602482015271105b1c9958591e481c9959da5cdd195c995960721b6044820152606490fd5b346105f15760403660031901126105f1576001600160401b036004356024358281116105f1576130e490369060040161570d565b6130ec615c6d565b81600052602090600e8252604060002054156132895761310e81511515618865565b613119601e5461635f565b80601e556040519061312a8261562c565b80825283820183815260408301908682526060840192600190818552600052600f875260406000209451855580850191518051998a11610d5c576131728a610c72855461579c565b8790601f8b1160011461320c57998080600396946131c89998969460008051602061979d8339815191529c9d9e600094613201575b50501b9160001990871b1c19161790555b5160028401555115159101616017565b83600052600e83526131e46003604060002001601e5490616a47565b601e54926131fc6040519282849384528301906152be565b0390a3005b015192508e806131a7565b9990601f1982169a84600052896000209b60005b81811061327457509b600396949284926131c89a99979560008051602061979d8339815191529d9e9f1061325c575b505050811b0190556131b8565b015160001983891b60f8161c191690558c808061324f565b838301518e559c85019c928b01928b01613220565b60405162461bcd60e51b815260048101839052601e60248201527f506172656e742063617465676f727920646f6573206e6f7420657869737400006044820152606490fd5b346105f15760203660031901126105f157600435600052601060205260406000208054600160a01b600190036001830154169160405180806002840190613314916157d6565b0361331f9082615698565b6040518061333081600386016157d6565b0361333b9082615698565b600483015460058401549060405180806009880190613359916157d6565b036133649082615698565b604051908161337681600a8a016157d6565b036133819083615698565b600b87015492604051948580600c8b019061339b916157d6565b036133a69087615698565b60405196876133b881600d8d016157d6565b036133c39089615698565b600e8a015499600f0154986040519c8d9c8d5260208d01528b6101e06040819201528c016133f0916152be565b8b810360608d0152613401916152be565b9160808b015260a08a015288810360c08a015261341d916152be565b87810360e089015261342e916152be565b90610100870152858103610120870152613447916152be565b848103610140860152613459916152be565b9161016084015260ff811615156101808401528060081c60ff1615156101a084015260101c60ff1615156101c08301520390f35b346105f15760003660031901126105f1576134a6615c6d565b600080546001600160a01b0319811682556001600160a01b031660008051602061975d8339815191528280a3005b346105f15760203660031901126105f1576001600160a01b036134f56155ad565b1680156135145760005260056020526020604060002054604051908152f35b60405162461bcd60e51b815260206004820152602960248201527f4552433732313a2061646472657373207a65726f206973206e6f7420612076616044820152683634b21037bbb732b960b91b6064820152608490fd5b346105f1576020806003193601126105f1576135856155ad565b60405161359181615647565b6103696060928383528385840152836040840152600084840152600060808094015260018060a01b03169182600052601a855260ff6040600020541693846000146136f65783600052601b8652604060002060ff6004604051926135f484615647565b604051613605816103da81856157d6565b845260405161361b816103da81600186016157d6565b8a850152604051613633816103da81600286016157d6565b6040850152600381015485850152015416151583820152935b6000526016865260ff60406000205416806000146136ee576013875260ff60406000205416925b6136cb6040519889981515895282818a01526136b661369e895160a0868d01526101208c01906152be565b9189015191607f1992838c83030160a08d01526152be565b906040890151908a83030160c08b01526152be565b958381015160e08901520151151561010087015215156040860152840190615a52565b600092613673565b60405161370281615647565b60405161370e8161567d565b6000815281526040516137208161567d565b60008152878201526040516137348161567d565b6000815260408201526000828201526000838201529361364c565b346105f15760003660031901126105f157601c546000805b82811061380a575061377890616385565b906000805b82811061379257604051806103698682615ac3565b61379b81615a5f565b60018060a01b0391549060031b1c16806000526020601a815260ff806040600020541691826137f5575b50506137db575b506137d69061635f565b61377d565b826137ee916116086137d69495886163b7565b91906137cc565b601691925052604060002054161586806137c5565b61381381615a5f565b60018060a01b0391549060031b1c166000526020601a815260ff80604060002054169182613866575b5050613851575b61384c9061635f565b613767565b9061385e61384c9161635f565b919050613843565b6016919250526040600020541615848061383c565b346105f15760203660031901126105f157600435600052600f60205260406000206040516138a88161562c565b81548152604051906138c1826125ac81600187016157d6565b6020810191825260ff600360028501549460408401958652015416906060810191151582526138f281511515618931565b51915192519051151561391760405194859485526080602086015260808501906152be565b91604084015260608301520390f35b346105f1576139343661575d565b61393f929192615c6d565b81600052602092600e845261395a60406000205415156188cb565b61396681511515618819565b6000838152600e855260409020815194906001908101906001600160401b038711610d5c57613999876111ce845461579c565b82601f8811600114613a0757968080600e95949360008051602061973d833981519152999a6000936139fc575b501b916000199060031b1c19161790555b85600052526139ed826002604060002001616017565b610d2960405192839283618911565b88015192508b6139c6565b96601f1981169783600052846000209860005b818110613a675750988291600e9695949360008051602061973d8339815191529a9b10613a4e575b5050811b0190556139d7565b87015160001960f88460031b161c191690558980613a42565b878301518b5599840199918601918601613a1a565b6003196040368201126105f1576024906001600160401b038235116105f157610100908235360301126105f15760026001541461423a5760026001556004356000526017602052613ad460ff60406000205416617982565b6004356000526010602052613af760ff600f6040600020015460101c16156179c7565b600435600052601060205260018060a01b0360016040600020015416600052601360205260ff604060002054166004811015614225576002036141e8576004356000526010602052600560406000200154156141aa57600435600052601060205260ff600f604060002001541661416957600435600052601060205260018060a01b0360016040600020015416331461412757613b98600482350180616499565b9050156140ee57613bb0818035018235600401616499565b9050156140b057613bc960448235018235600401616499565b90501561407c57613be260648235018235600401616499565b90501561404757613bfb60848235018235600401616499565b90501561401057613c1460a48235018235600401616499565b905015613fd557613c39613c3060c48335018335600401616499565b905015156161b1565b613c57613c4e60e48335018335600401616499565b90501515616174565b600435600052601060205260046040600020015490813410613f9c576004356000526010602052600560406000200180548015613f875760001901905560043560005260106020526040600020600581015415613f73575b600101546040516001600160a01b039091169190613ccc816155f5565b6004823501356001600160401b0381116105f157613cf190600436918535010161570d565b81526001600160401b038235830135116105f157613d18368335808501350160040161570d565b60208201528135604401356001600160401b0381116105f157613d4290600436918535010161570d565b60408201528135606401356001600160401b0381116105f157613d6c90600436918535010161570d565b60608201528135608401356001600160401b0381116105f157613d9690600436918535010161570d565b6080820152813560a401356001600160401b0381116105f157613dc090600436918535010161570d565b60a0820152813560c401356001600160401b0381116105f157613dea90600436918535010161570d565b60c0820152813560e40135906001600160401b0382116105f157613e18613e8392600436918635010161570d565b60e082015260405190613e2a826155f5565b60043582528560208301528560408301524260608301523360808301528460a0830152600060c083015260e0820152336000526014602052613e70816040600020618a40565b8360005260156020526040600020618a40565b8160005260126020526040600020805491848301809311613f5f57505560405182815282602082015242604082015233907f45280c7ac9cec77edd454e39e1641a3e22619146cf074a4239beee86a7c07edc606060043592a4600160095401600955613eef81346189e6565b80613f4f575b50600435600052601060205260018060a01b03600160406000200154169060405190815242602082015233907fbe6177108f4df43c5d7be79cb219c969fc97915bbdb4b56d14d391dcdcc16060604060043592a460018055005b613f599033619615565b81613ef5565b634e487b7160e01b60009081526011600452fd5b600f8101805460ff19166001179055613caf565b82634e487b7160e01b60005260116004526000fd5b60649060126040519162461bcd60e51b83526020600484015282015271496e73756666696369656e742066756e647360701b6044820152fd5b60649060146040519162461bcd60e51b83526020600484015282015273141bdcdd185b0818dbd919481c995c5d5a5c995960621b6044820152fd5b60649060106040519162461bcd60e51b8352602060048401528201526f10dbdd5b9d1c9e481c995c5d5a5c995960821b6044820152fd5b606490600e6040519162461bcd60e51b8352602060048401528201526d14dd185d19481c995c5d5a5c995960921b6044820152fd5b606490600d6040519162461bcd60e51b8352602060048401528201526c10da5d1e481c995c5d5a5c9959609a1b6044820152fd5b60649060176040519162461bcd60e51b8352602060048401528201527614dd1c99595d081859191c995cdcc81c995c5d5a5c9959604a1b6044820152fd5b60649060126040519162461bcd60e51b83526020600484015282015271119d5b1b081b985b59481c995c5d5a5c995960721b6044820152fd5b606490601b6040519162461bcd60e51b8352602060048401528201527a10d85b9b9bdd08189d5e481e5bdd5c881bdddb881c1c9bd91d58dd602a1b6044820152fd5b606490601a6040519162461bcd60e51b83526020600484015282015279141c9bd91d58dd081a5cc8185b1c9958591e481cdbdb191bdd5d60321b6044820152fd5b60649060176040519162461bcd60e51b8352602060048401528201527650726f64756374206973206f7574206f662073746f636b60481b6044820152fd5b60649060166040519162461bcd60e51b8352602060048401528201527514d95b1b195c881a5cc81b9bdd081d995c9a599a595960521b6044820152fd5b50634e487b7160e01b60009081526021600452fd5b606490601f6040519162461bcd60e51b8352602060048401528201527f5265656e7472616e637947756172643a207265656e7472616e742063616c6c006044820152fd5b346105f15760203660031901126105f157602061429c600435615d0c565b6040516001600160a01b039091168152f35b346105f15760203660031901126105f1576001600160a01b036142cf6155ad565b1660005260126020526020604060002054604051908152f35b346105f15760203660031901126105f157600435614304615c6d565b6064811161431157600b55005b60405162461bcd60e51b8152602060048201526012602482015271496e76616c69642070657263656e7461676560701b6044820152606490fd5b346105f15760203660031901126105f157600435601c548110156105f157614374602091615a5f565b905460405160039290921b1c6001600160a01b03168152f35b346105f15760203660031901126105f1576001600160a01b036143ae6155ad565b166000526013602052602060ff604060002054166107b36040518092615a52565b346105f1576020806003193601126105f1576143e96155ad565b6143f16162ed565b506001600160a01b031660008181526016835260409020546144159060ff166162a9565b600052600d815260406000209060ff60066040519361443385615611565b604051614444816103da81856157d6565b855260405161445a816103da81600186016157d6565b84860152604051614472816103da81600286016157d6565b604086015260405161448b816103da81600386016157d6565b60608601526040516144a4816103da81600486016157d6565b6080860152600581015460a0860152015416151560c08301526103696040519282849384528301906159d2565b346105f1576107816144e236615728565b90604051926144f08461567d565b60008452615db8565b346105f15760003660031901126105f15761078161911c565b346105f1576020806003193601126105f1576001600160a01b0390816145366155ad565b1660005260158152604060002080549061454f8261636e565b9261455d6040519485615698565b82845260009182528082208185015b84841061458157604051806103698882615914565b600e83600192604051614593816155f5565b85548152848601548382015260028601546040820152600386015460608201528a600487015416608082015260ff600587015460a08d8216818501521c16151560c08201526145e460068701615b23565b60e082015281520192019301929061456c565b346105f15760203660031901126105f1576001600160a01b036146186155ad565b16600052601b60205261468b60406000206040519061463b826125ac81846157d6565b60405161464f816103da81600186016157d6565b6146a7604051614666816103da81600288016157d6565b61469960ff60046003870154960154169360405197889760a0895260a08901906152be565b9087820360208901526152be565b9085820360408701526152be565b916060840152151560808301520390f35b346105f1576146c63661575d565b6146d1929192615c6d565b81600052602092600f84526146ec6040600020541515618931565b6146f881511515618865565b6000838152600f855260409020815194906001908101906001600160401b038711610d5c5761472b876111ce845461579c565b82601f881160011461478a57968080600f9594936000805160206197bd833981519152999a60009361477f575b501b916000199060031b1c19161790555b85600052526139ed826003604060002001616017565b88015192508b614758565b96601f1981169783600052846000209860005b8181106147ea5750988291600f969594936000805160206197bd8339815191529a9b106147d1575b5050811b019055614769565b87015160001960f88460031b161c1916905589806147c5565b878301518b559984019991860191860161479d565b346105f15760403660031901126105f157602460006004358235825b8260005260106020818152816040600020018054841015614a1157614841848692618a24565b5054146148585750506148539061635f565b61481b565b91939450916000526018815260ff938460406000205416156149d5578060005282825261488b8484604060002001618a24565b50600190810154909590336001600160a01b03918216149081156149c7575b5015614972578160005283835260046148c98686604060002001618a24565b50015416614935579180600494926148ea9460005252604060002001618a24565b5001805460ff1916821790555b156148fe57005b60649060106040519162461bcd60e51b8352602060048401528201526f14995d9a595dc81b9bdd08199bdd5b9960821b6044820152fd5b60405162461bcd60e51b8152600481018390526016818801527514995d9a595dc8185b1c9958591e4819195b195d195960521b6044820152606490fd5b60405162461bcd60e51b8152600481018490526028818901527f4f6e6c79207265766965776572206f72206f776e65722063616e2064656c6574604482015267652072657669657760c01b6064820152608490fd5b6000541633149050886148aa565b60405162461bcd60e51b8152600481018390526015818801527414995d9a595dc8191bd95cc81b9bdd08195e1a5cdd605a1b6044820152606490fd5b5050505050506148f7565b346105f157610781614a2d36615728565b91614a40614a3b8433615e53565b615d56565b615f1b565b346105f15760203660031901126105f157600435614a61615c6d565b80600052600f602052614a7a6040600020541515618931565b80600052600f6020526000805160206197bd8339815191526119ae60406000206003810160ff1981541690556040519182916040835260016040840191016157d6565b346105f15760603660031901126105f157602480356004356044356001600160401b0381116105f157614af490369060040161570d565b90806000526020916010835260018060a01b03600160406000200154163314614c625783151580614c57575b15614c1357805115614bd55790601092916001600a54019081600a55614b446189f3565b958287523385880152604087015260608601524260a0860152600052601882526040600020600160ff198254161790556000525260106040600020018054600160401b811015614bc057614b9d91600182018155618a24565b614bab576107819250616913565b82634e487b7160e01b60005260006004526000fd5b83634e487b7160e01b60005260416004526000fd5b60405162461bcd60e51b81526004810184905260178187015276436f6d6d656e742063616e6e6f7420626520656d70747960481b6044820152606490fd5b60405162461bcd60e51b815260048101849052601e818701527f526174696e67206d757374206265206265747765656e203120616e64203500006044820152606490fd5b506005841115614b20565b60405162461bcd60e51b8152600481018490526026818701527f53656c6c65722063616e6e6f7420726576696577207468656972206f776e20706044820152651c9bd91d58dd60d21b6064820152608490fd5b346105f15760003660031901126105f157614cce615c6d565b336000526019602052604060002060018060a01b031981541690556000805160206196fd8339815191526040805133815260006020820152a1005b346105f15760403660031901126105f157610781614d256155c3565b6004356192b2565b346105f15760203660031901126105f1576001600160a01b03614d4e6155ad565b16600052601a602052602060ff604060002054166040519015158152f35b346105f15760403660031901126105f157614d856155ad565b602435906001600160a01b038080614d9c85615d0c565b16921691808314614e9757803314908115614e72575b5015614e0757600083815260066020526040902080546001600160a01b03191683179055614ddf83615d0c565b167f8c5be1e5ebec7d5bd14f71427d1e84f3dd0314c0f7b2291e5b200ac8c7c3b925600080a4005b60405162461bcd60e51b815260206004820152603d60248201527f4552433732313a20617070726f76652063616c6c6572206973206e6f7420746f60448201527f6b656e206f776e6572206f7220617070726f76656420666f7220616c6c0000006064820152608490fd5b9050600052600760205260406000203360005260205260ff6040600020541684614db2565b60405162461bcd60e51b815260206004820152602160248201527f4552433732313a20617070726f76616c20746f2063757272656e74206f776e656044820152603960f91b6064820152608490fd5b346105f15760203660031901126105f157602061429c600435615d2f565b346105f15760003660031901126105f157604051600090600254614f278161579c565b8083526001918083169081156125405750600114614f4f57610369836124d281870382615698565b6002600090815260209450917f405787fa12a823e0f2b7631cc41b3ba8828b3321ca811111fa75cd3aa3bb5ace5b828410614f96575050508101909101906124d2816124c2565b8054858501870152928501928101614f7d565b346105f15760003660031901126105f15760088054600060015b828111156151e25750614fd5906187c9565b9060009260015b82811115614ff25760405180610369868261554b565b8060005260106020818152604060002091600f8301549060ff938483831c16158061502c575b5050505050506150279061635f565b614fdc565b60409a969a519561503c876155d9565b8254875260018301546001600160a01b031686880152604051615066816103da81600288016157d6565b604088015260405161507f816103da81600388016157d6565b606088015260048301546080880152600583015460a08801526006946150a6868501618703565b60c08901526150b760078501618703565b60e08901526150c78a8501618703565b6101008901526040516150e1816103da81600989016157d6565b6101208901526040516150fb816103da81600a89016157d6565b610140890152600b840154610160890152604051615120816103da81600c89016157d6565b61018089015260405161513a816103da81600d89016157d6565b6101a0890152600e8401546101c089015281811615156101e0890152891c1615156102008701521561022086015201908154916151768361636e565b936151846040519586615698565b8385526000918252808220918186015b8582106151c6575050505050509181615027936102406151ba94015261054382886163b7565b94908680808080615018565b84836001926151d487618768565b815201940191019092615194565b8060005260ff601080602052600f60406000200154901c161561520e575b6152099061635f565b614fc3565b9061521b6152099161635f565b919050615200565b346105f15760203660031901126105f15760043563ffffffff60e01b81168091036105f1576020906380ac58cd60e01b8114908115615280575b811561526f575b506040519015158152f35b6301ffc9a760e01b14905082615264565b635b5e139f60e01b8114915061525d565b346105f15760203660031901126105f1576020906004356000526018825260ff6040600020541615158152f35b919082519283825260005b8481106152ea575050826000602080949584010152601f8019910116010190565b6020818301810151848301820152016152c9565b908082519081815260208091019281808460051b8301019501936000915b84831061532c5750505050505090565b909192939495848061534a600193601f198682030187528a516152be565b980193019301919493929061531c565b90808183519182825260208080809401958560051b01019501936000915b8483106153885750505050505090565b9091929394958480600192601f1985820301865289519081518152848060a01b03838301511683820152604080830151908201526153d56060808401519060c080918501528301906152be565b9160808082015115159083015260a0809101519101529801930193019194939290615378565b90615548918051825260018060a01b0360208201511660208301526155026154ee6154cf6154bb6154a761549361548161545b61544960408a015160408c61026091829101528c01906152be565b60608a01518b820360608d01526152be565b608089015160808b015260a089015160a08b015260c08901518a820360c08c01526152fe565b60e088015189820360e08b01526152fe565b6101008088015190898303908a01526152fe565b6101208087015190888303908901526152be565b6101408086015190878303908801526152be565b61016080850151908601526101808085015190868303908701526152be565b6101a08084015190858303908601526152be565b916101c080830151908201526101e0808301511515908201526102008083015115159082015261022080830151151590820152610240809201519181840391015261535a565b90565b602080820190808352835180925260408301928160408460051b8301019501936000915b84831061557f5750505050505090565b909192939495848061559d600193603f198682030187528a516153fb565b980193019301919493929061556f565b600435906001600160a01b03821682036105f157565b602435906001600160a01b03821682036105f157565b61026081019081106001600160401b03821117610d5c57604052565b61010081019081106001600160401b03821117610d5c57604052565b60e081019081106001600160401b03821117610d5c57604052565b608081019081106001600160401b03821117610d5c57604052565b60a081019081106001600160401b03821117610d5c57604052565b60c081019081106001600160401b03821117610d5c57604052565b602081019081106001600160401b03821117610d5c57604052565b601f909101601f19168101906001600160401b03821190821017610d5c57604052565b6001600160401b038111610d5c57601f01601f191660200190565b9291926156e2826156bb565b916156f06040519384615698565b8294818452818301116105f1578281602093846000960137010152565b9080601f830112156105f157816020615548933591016156d6565b60609060031901126105f1576001600160a01b039060043582811681036105f1579160243590811681036105f1579060443590565b9060606003198301126105f15760043591602435906001600160401b0382116105f15761578c9160040161570d565b9060443580151581036105f15790565b90600182811c921680156157cc575b60208310146157b657565b634e487b7160e01b600052602260045260246000fd5b91607f16916157ab565b90600092918054916157e78361579c565b9182825260019384811690816000146158495750600114615809575b50505050565b90919394506000526020928360002092846000945b838610615835575050505001019038808080615803565b80548587018301529401938590820161581e565b9294505050602093945060ff191683830152151560051b01019038808080615803565b6155489160e06159036158f16158df6158cd6158bb6158a96158978951610100808b528a01906152be565b60208a015189820360208b01526152be565b604089015188820360408a01526152be565b606088015187820360608901526152be565b608087015186820360808801526152be565b60a086015185820360a08701526152be565b60c085015184820360c08601526152be565b9201519060e08184039101526152be565b602080820190808352835180925260409283810182858560051b8401019601946000925b858410615949575050505050505090565b9091929394959685806159c1600193603f198682030188528b51805182528381015184830152878101518883015260608082015190830152858060a01b0360808181840151169084015260a09081830151169083015260c08082015115159083015260e080910151916101008092820152019061586c565b990194019401929594939190615938565b9060c080615a3d615a2b615a19615a076159f5885160e0895260e08901906152be565b602089015188820360208a01526152be565b604088015187820360408901526152be565b606087015186820360608801526152be565b608086015185820360808701526152be565b9360a081015160a08501520151151591015290565b9060048210156116165752565b601c54811015615a7a57601c60005260206000200190600090565b634e487b7160e01b600052603260045260246000fd5b600c54811015615a7a57600c60005260206000200190600090565b8054821015615a7a5760005260206000200190600090565b6020908160408183019282815285518094520193019160005b828110615aea575050505090565b83516001600160a01b031685529381019392810192600101615adc565b8054821015615a7a57600052600e602060002091020190600090565b90600760e0604093615beb855191615b3a836155f5565b61063f83978051615b4f816103da81876157d6565b85528051615b64816103da81600188016157d6565b60208601528051615b7c816103da81600288016157d6565b818601528051615b93816103da81600388016157d6565b60608601528051615bab816103da81600488016157d6565b60808601528051615bc3816103da81600588016157d6565b60a08601528051615bdb816103da81600688016157d6565b60c08601525180968193016157d6565b0152565b959290916155489897959492875260208701526040860152606085015260018060a01b0380921660808501521660a0830152151560c0820152610100908160e0820152019061586c565b90815180825260208080930193019160005b828110615c59575050505090565b835185529381019392810192600101615c4b565b6000546001600160a01b03163303615c8157565b606460405162461bcd60e51b815260206004820152602060248201527f4f776e61626c653a2063616c6c6572206973206e6f7420746865206f776e65726044820152fd5b15615ccc57565b60405162461bcd60e51b8152602060048201526018602482015277115490cdcc8c4e881a5b9d985b1a59081d1bdad95b88125160421b6044820152606490fd5b6000908152600460205260409020546001600160a01b0316615548811515615cc5565b615d3b6119d982616028565b6000908152600660205260409020546001600160a01b031690565b15615d5d57565b60405162461bcd60e51b815260206004820152602d60248201527f4552433732313a2063616c6c6572206973206e6f7420746f6b656e206f776e6560448201526c1c881bdc88185c1c1c9bdd9959609a1b6064820152608490fd5b90615ddc939291615dcc614a3b8433615e53565b615dd7838383615f1b565b616075565b15615de357565b60405162461bcd60e51b815280615dfc60048201615e00565b0390fd5b60809060208152603260208201527f4552433732313a207472616e7366657220746f206e6f6e20455243373231526560408201527131b2b4bb32b91034b6b83632b6b2b73a32b960711b60608201520190565b906001600160a01b038080615e6784615d0c565b16931691838314938415615e9a575b508315615e84575b50505090565b615e9091929350615d2f565b1614388080615e7e565b909350600052600760205260406000208260005260205260ff604060002054169238615e76565b15615ec857565b60405162461bcd60e51b815260206004820152602560248201527f4552433732313a207472616e736665722066726f6d20696e636f72726563742060448201526437bbb732b960d91b6064820152608490fd5b90615f4391615f2984615d0c565b6001600160a01b0393918416928492909183168414615ec1565b16918215615fc65781615f6091615f5986615d0c565b1614615ec1565b60008051602061977d833981519152600084815260066020526040812060018060a01b03199081815416905583825260056020526040822060001981540190558482526040822060018154019055858252600460205284604083209182541617905580a4565b60405162461bcd60e51b8152602060048201526024808201527f4552433732313a207472616e7366657220746f20746865207a65726f206164646044820152637265737360e01b6064820152608490fd5b9060ff801983541691151516179055565b6000908152600460205260409020546001600160a01b0316151590565b3d15616070573d90616056826156bb565b916160646040519384615698565b82523d6000602084013e565b606090565b91926000929190813b1561616a576020916160cb9185604051958680958194630a85bd0160e11b9b8c845233600485015260018060a01b03809516602485015260448401526080606484015260848301906152be565b0393165af19082908261611b575b505061610d576160e7616045565b805190816161085760405162461bcd60e51b815280615dfc60048201615e00565b602001fd5b6001600160e01b0319161490565b909192506020813d8211616162575b8161613760209383615698565b8101031261615e5751906001600160e01b03198216820361615b57509038806160d9565b80fd5b5080fd5b3d915061612a565b5050505050600190565b1561617b57565b60405162461bcd60e51b815260206004820152600e60248201526d115b585a5b081c995c5d5a5c995960921b6044820152606490fd5b156161b857565b60405162461bcd60e51b815260206004820152600e60248201526d141a1bdb99481c995c5d5a5c995960921b6044820152606490fd5b8181106161f9575050565b600081556001016161ee565b9190601f811161621457505050565b616240926000526020600020906020601f840160051c83019310616242575b601f0160051c01906161ee565b565b9091508190616233565b9060048110156116165760ff80198354169116179055565b1561626b57565b60405162461bcd60e51b8152602060048201526016602482015275496e76616c69642073656c6c6572206164647265737360501b6044820152606490fd5b156162b057565b60405162461bcd60e51b815260206004820152601560248201527414d95b1b195c881b9bdd081c9959da5cdd195c9959605a1b6044820152606490fd5b604051906162fa82615611565b600060c0836060808252806020830152806040830152808083015260808201528260a08201520152565b6001600160a01b039081169061633b821515616264565b60005416811461635957600052601360205260ff6040600020541690565b50600290565b60001981146110cb5760010190565b6001600160401b038111610d5c5760051b60200190565b9061638f8261636e565b61639c6040519182615698565b82815280926163ad601f199161636e565b0190602036910137565b8051821015615a7a5760209160051b010190565b600080546001600160a01b03908116331461648e57338252601960205260408220541661648457338152601360205260ff604082205416906004821015616470575060020361641d5761624090616a7c565b60405162461bcd60e51b815260206004820152602560248201527f4f6e6c792076657269666965642073656c6c6572206f722061646d696e20616c6044820152641b1bddd95960da1b6064820152608490fd5b634e487b7160e01b81526021600452602490fd5b5061624090616a7c565b505061624090616a7c565b903590601e19813603018212156105f157018035906001600160401b0382116105f1576020019181360383136105f157565b156164d257565b60405162461bcd60e51b81526020600482015260146024820152734e616d652063616e6e6f7420626520656d70747960601b6044820152606490fd5b1561651557565b60405162461bcd60e51b815260206004820152601c60248201527b05072696365206d7573742062652067726561746572207468616e20360241b6044820152606490fd5b1561656057565b60405162461bcd60e51b815260206004820152601c60248201527b053746f636b206d7573742062652067726561746572207468616e20360241b6044820152606490fd5b156165ab57565b60405162461bcd60e51b815260206004820152601d60248201527f576569676874206d7573742062652067726561746572207468616e20300000006044820152606490fd5b156165f757565b60405162461bcd60e51b81526020600482015260156024820152744d6f64656c2063616e6e6f7420626520656d70747960581b6044820152606490fd5b1561663b57565b60405162461bcd60e51b81526020600482015260156024820152744272616e642063616e6e6f7420626520656d70747960581b6044820152606490fd5b1561667f57565b60405162461bcd60e51b815260206004820152601a6024820152790534b55206d7573742062652067726561746572207468616e20360341b6044820152606490fd5b903590601e19813603018212156105f157018035906001600160401b0382116105f157602001918160051b360383136105f157565b156166fd57565b60405162461bcd60e51b8152602060048201526016602482015275496d616765732063616e6e6f7420626520656d70747960501b6044820152606490fd5b1561674257565b60405162461bcd60e51b815260206004820152601c60248201527b496d616765732063616e6e6f74206265206d6f7265207468616e203560201b6044820152606490fd5b60405190616793826155d9565b8161024060009182815282602082015260609283604083015283808301528060808301528060a08301528360c08301528360e08301528361010083015283610120830152836101408301528061016083015283610180830152836101a0830152806101c0830152806101e0830152806102008301526102208201520152565b9291909261681f8461636e565b9161682d6040519384615698565b829480845260208094019060051b8301928284116105f15780915b84831061685757505050505050565b82356001600160401b0381116105f1578691616876868493860161570d565b815201920191616848565b61688b815461579c565b9081616895575050565b81601f600093116001146168a7575055565b9080839182526168c6601f60208420940160051c8401600185016161ee565b5555565b90600160401b8111610d5c578154918181558282106168e857505050565b600052602060002091820191015b818110616901575050565b8061690d600192616881565b016168f6565b81518155602080830151600180840180546001600160a01b0319166001600160a01b03939093169290921790915560408401516002840155606084015180519394909390926003860192906001600160401b038311610d5c576169808361697a865461579c565b86616205565b80601f84116001146169d857509180809260a09695946005986000946169cd575b50501b916000199060031b1c19161790555b6169c66080820151151560048601616017565b0151910155565b0151925038806169a1565b91939495601f1984168660005283600020936000905b828210616a30575050916005979593918560a098969410616a17575b505050811b0190556169b3565b015160001960f88460031b161c19169055388080616a0a565b8088869782949787015181550196019401906169ee565b8054600160401b811015610d5c57616a6491600182018155615aab565b819291549060031b91821b91600019901b1916179055565b616a92616a898280616499565b905015156164cb565b616aa16040820135151561650e565b616ab060608201351515616559565b60e08101351561779e576101008101351561774b57616ad561012082013515156165a4565b616aef616ae6610140830183616499565b905015156165f0565b616b09616b00610160830183616499565b90501515616634565b616b196101808201351515616678565b616b32616b2960c08301836166c1565b905015156166f6565b616b4d6005616b4460c08401846166c1565b9050111561673b565b6001600854019081600855610180616b63616786565b91838352336020840152616b81616b7a8280616499565b36916156d6565b6040840152616b96616b7a6020830183616499565b606084015260408101356080840152606081013560a0840152616bc6616bbf60808301836166c1565b3691616812565b60c0840152616bdb616bbf60a08301836166c1565b60e0840152616bf0616bbf60c08301836166c1565b61010084015260e0810135600052600e6020526103da616c1d6001604060002001604051928380926157d6565b610120840152610100810135600052600f6020526103da616c4b6001604060002001604051928380926157d6565b610140840152616c62616b7a610140830183616499565b82840152616c77616b7a610160830183616499565b6101a084015261012081013561016084015201356101c0820152331561770757616ca9616ca383616028565b156177ee565b616cb5616ca383616028565b33600052600560205260406000206001815401905581600052600460205260406000203360018060a01b03198254161790558133600060008051602061977d8339815191528180a4601060209081526040600081902083518155918301516001830180546001600160a01b0319166001600160a01b03929092169190911790558201518051906001600160401b038211610d5c578190616d6582616d5c600287015461579c565b60028701616205565b602090601f83116001146176955760009261768a575b50508160011b916000199060031b1c19161760028201555b60608201518051906001600160401b038211610d5c578190616dc582616dbc600387015461579c565b60038701616205565b602090601f83116001146176185760009261760d575b50508160011b916000199060031b1c19161760038201555b6080820151600482015560a082015160058201556006810160c08301516020815191616e1f83856168ca565b01916000526020600020916000905b82821061753057505050506007810160e08301516020815191616e5183856168ca565b01916000526020600020916000905b8282106174535750505050600881016101008301516020815191616e8483856168ca565b01916000526020600020916000905b82821061737057505050506101208201518051906001600160401b038211610d5c578190616ed182616ec8600987015461579c565b60098701616205565b602090601f83116001146172fe576000926172f3575b50508160011b916000199060031b1c19161760098201555b6101408201518051906001600160401b038211610d5c578190616f3282616f29600a87015461579c565b600a8701616205565b602090601f831160011461728157600092617276575b50508160011b916000199060031b1c191617600a8201555b610160820151600b8201556101808201518051906001600160401b038211610d5c578190616f9e82616f95600c87015461579c565b600c8701616205565b602090601f8311600114617204576000926171f9575b50508160011b916000199060031b1c191617600c8201555b6101a08201518051906001600160401b038211610d5c57616ffd82616ff4600d86015461579c565b600d8601616205565b602090601f83116001146171835791806102409492601094600092617178575b50508160011b916000199060031b1c191617600d8201555b6101c0840151600e820155600f81016170556101e0860151151582616017565b6102008501511515815461ff0062ff00006102208901511515871b169260081b169062ffff001916171790550191015190815191600160401b8311610d5c57815483835580841061710b575b506020019060005260206000206000915b8383106170ed5750505050806162409160005260176020526040600020600160ff198254161790553360005260116020526040600020616a47565b60066020826170ff6001945186616913565b019201920191906170b2565b806006029060068204036110cb57836006026006810485036110cb5783600052602060002091820191015b81811061714357506170a1565b80600060069255600060018201556000600282015561716460038201616881565b600060048201556000600582015501617136565b01519050388061701d565b90600d840160005260206000209160005b601f19851681106171e1575092610240949260019260109583601f198116106171c8575b505050811b01600d820155617035565b015160001960f88460031b161c191690553880806171b8565b91926020600181928685015181550194019201617194565b015190503880616fb4565b9250600c84016000526020600020906000935b601f198416851061725b576001945083601f19811610617242575b505050811b01600c820155616fcc565b015160001960f88460031b161c19169055388080617232565b81810151835560209485019460019093019290910190617217565b015190503880616f48565b9250600a84016000526020600020906000935b601f19841685106172d8576001945083601f198116106172bf575b505050811b01600a820155616f60565b015160001960f88460031b161c191690553880806172af565b81810151835560209485019460019093019290910190617294565b015190503880616ee7565b9250600984016000526020600020906000935b601f1984168510617355576001945083601f1981161061733c575b505050811b016009820155616eff565b015160001960f88460031b161c1916905538808061732c565b81810151835560209485019460019093019290910190617311565b80518051906001600160401b038211610d5c5761739782617391885461579c565b88616205565b602090601f83116001146173e35792826001949360209386956000926173d8575b5050600019600383901b1c191690841b1787555b01940191019092616e93565b0151905038806173b8565b908660005260206000209160005b601f198516811061743b575083602093600196938796938794601f19811610617422575b505050811b0187556173cc565b015160001960f88460031b161c19169055388080617415565b919260206001819286850151815501940192016173f1565b80518051906001600160401b038211610d5c5761747482617391885461579c565b602090601f83116001146174c05792826001949360209386956000926174b5575b5050600019600383901b1c191690841b1787555b01940191019092616e60565b015190503880617495565b908660005260206000209160005b601f1985168110617518575083602093600196938796938794601f198116106174ff575b505050811b0187556174a9565b015160001960f88460031b161c191690553880806174f2565b919260206001819286850151815501940192016174ce565b80518051906001600160401b038211610d5c5761755182617391885461579c565b602090601f831160011461759d579282600194936020938695600092617592575b5050600019600383901b1c191690841b1787555b01940191019092616e2e565b015190503880617572565b908660005260206000209160005b601f19851681106175f5575083602093600196938796938794601f198116106175dc575b505050811b018755617586565b015160001960f88460031b161c191690553880806175cf565b919260206001819286850151815501940192016175ab565b015190503880616ddb565b9250600384016000526020600020906000935b601f198416851061766f576001945083601f19811610617656575b505050811b016003820155616df3565b015160001960f88460031b161c19169055388080617646565b8181015183556020948501946001909301929091019061762b565b015190503880616d7b565b9250600284016000526020600020906000935b601f19841685106176ec576001945083601f198116106176d3575b505050811b016002820155616d93565b015160001960f88460031b161c191690553880806176c3565b818101518355602094850194600190930192909101906176a8565b606460405162461bcd60e51b815260206004820152602060248201527f4552433732313a206d696e7420746f20746865207a65726f20616464726573736044820152fd5b60405162461bcd60e51b815260206004820152602560248201527f53756243617465676f7279204944206d75737420626520677265617465722074604482015264068616e20360dc1b6064820152608490fd5b60405162461bcd60e51b815260206004820152602260248201527f43617465676f7279204944206d7573742062652067726561746572207468616e604482015261020360f41b6064820152608490fd5b156177f557565b60405162461bcd60e51b815260206004820152601c60248201527b115490cdcc8c4e881d1bdad95b88185b1c9958591e481b5a5b9d195960221b6044820152606490fd5b1561784057565b60405162461bcd60e51b815260206004820152602560248201527f4f6e6c792076657269666965642073656c6c6572206f72206f776e657220616c6044820152641b1bddd95960da1b6064820152608490fd5b6000805490939291906001600160a01b0390811633146179765733855260196020526040852054811690811561792057818652601360205260ff604087205416600481101561790c579161624095969160026178fa94149283156178ff575b505050617839565b617ae0565b54161490503880806178f2565b634e487b7160e01b87526021600452602487fd5b9050601360205260ff604086205416600481101561796257946178fa916002616240969714918215617954575b5050617839565b90915054163314388061794d565b634e487b7160e01b86526021600452602486fd5b50616240929350617ae0565b1561798957565b60405162461bcd60e51b8152602060048201526016602482015275141c9bd91d58dd08191bd95cc81b9bdd08195e1a5cdd60521b6044820152606490fd5b156179ce57565b60405162461bcd60e51b8152602060048201526012602482015271141c9bd91d58dd081a5cc819195b195d195960721b6044820152606490fd5b90808214617adc57617a1a815461579c565b906001600160401b038211610d5c578190617a398261697a865461579c565b600090601f8311600114617a7057600092617a65575b50508160011b916000199060031b1c1916179055565b015490503880617a4f565b81526020808220858352818320935090601f1985169083905b828210617ac3575050908460019594939210617aaa575b505050811b019055565b015460001960f88460031b161c19169055388080617aa0565b8495819295850154815560018091019601940190617a89565b5050565b6000818152601060205260409020600101546001600160a01b031633036184d457806000526017602052617b1b60ff60406000205416617982565b806000526010602052617b3c60ff600f6040600020015460101c16156179c7565b617b49616a898380616499565b617b566020830183616499565b90501561849157617b6c6040830135151561650e565b617b7b60608301351515616559565b617b8860808301836166c1565b90501561845357617b9c60a08301836166c1565b90501561841657617bb3616b2960c08401846166c1565b617bc56005616b4460c08501856166c1565b60e0820135156183d6576101008201351561839257617beb616ae6610140840184616499565b617bfc616b00610160840184616499565b617c0c61012083013515156165a4565b617c1c6101808301351515616678565b617c268280616499565b6000838152601060205260409020600201916001600160401b038211610d5c578190617c568261697a865461579c565b600090601f831160011461832a5760009261831f575b50508160011b916000199060031b1c19161790555b617c8e6020830183616499565b6000838152601060205260409020600301916001600160401b038211610d5c578190617cbe8261697a865461579c565b600090601f83116001146182b7576000926182ac575b50508160011b916000199060031b1c19161790555b806000526010602052604060002060408301356004820155606083013560058201556006617d1a60808501856166c1565b9190920191617d2982846168ca565b60009283526020832090805b8385106181c9575050505050617d4e60a08301836166c1565b826000526010602052600760406000200191617d6a82846168ca565b60009283526020832090805b8385106180e6575050505050617d8f60c08301836166c1565b826000526010602052600860406000200191617dab82846168ca565b60009283526020832090805b838510617ffd57505050505060e0820135600052600e602052617df160016040600020018260005260106020526009604060002001617a08565b610100820135600052600f602052617e206001604060002001826000526010602052600a604060002001617a08565b617e2e610140830183616499565b6000838152601060205260409020600c01916001600160401b038211610d5c578190617e5e8261697a865461579c565b600090601f8311600114617f9557600092617f8a575b50508160011b916000199060031b1c19161790555b617e97610160830183616499565b6000838152601060205260409020600d01916001600160401b038211610d5c578190617ec78261697a865461579c565b600090601f8311600114617f2257600092617f17575b50508160011b916000199060031b1c19161790555b6000526010602052600e610180604060002092610120810135600b8501550135910155565b013590503880617edd565b600085815260208120909450915b601f1984168510617f72576001945083601f19811610617f58575b505050811b019055617ef2565b0135600019600384901b60f8161c19169055388080617f4b565b81810135835560209485019460019093019201617f30565b013590503880617e74565b600085815260208120909450915b601f1984168510617fe5576001945083601f19811610617fcb575b505050811b019055617e89565b0135600019600384901b60f8161c19169055388080617fbe565b81810135835560209485019460019093019201617fa3565b6180078183616499565b906001600160401b038211610d5c5761802a82618024875461579c565b87616205565b600090601f831160011461807657928260019493602093869560009261806b575b5050600019600383901b1c191690841b1786555b01930194019391617db7565b01359050388061804b565b8560005260206000209160005b601f19851681106180ce575083602093600196938796938794601f198116106180b4575b505050811b01865561805f565b0135600019600384901b60f8161c191690553880806180a7565b90926020600181928686013581550194019101618083565b6180f08183616499565b906001600160401b038211610d5c5761810d82618024875461579c565b600090601f831160011461815957928260019493602093869560009261814e575b5050600019600383901b1c191690841b1786555b01930194019391617d76565b01359050388061812e565b8560005260206000209160005b601f19851681106181b1575083602093600196938796938794601f19811610618197575b505050811b018655618142565b0135600019600384901b60f8161c1916905538808061818a565b90926020600181928686013581550194019101618166565b6181d38183616499565b906001600160401b038211610d5c576181f082618024875461579c565b600090601f831160011461823c579282600194936020938695600092618231575b5050600019600383901b1c191690841b1786555b01930194019391617d35565b013590503880618211565b8560005260206000209160005b601f1985168110618294575083602093600196938796938794601f1981161061827a575b505050811b018655618225565b0135600019600384901b60f8161c1916905538808061826d565b90926020600181928686013581550194019101618249565b013590503880617cd4565b600085815260208120909450915b601f1984168510618307576001945083601f198116106182ed575b505050811b019055617ce9565b0135600019600384901b60f8161c191690553880806182e0565b818101358355602094850194600190930192016182c5565b013590503880617c6c565b600085815260208120909450915b601f198416851061837a576001945083601f19811610618360575b505050811b019055617c81565b0135600019600384901b60f8161c19169055388080618353565b81810135835560209485019460019093019201618338565b60405162461bcd60e51b815260206004820152601c60248201527b5375622d63617465676f72792063616e6e6f7420626520656d70747960201b6044820152606490fd5b60405162461bcd60e51b815260206004820152601860248201527743617465676f72792063616e6e6f7420626520656d70747960401b6044820152606490fd5b60405162461bcd60e51b815260206004820152601560248201527453697a65732063616e6e6f7420626520656d70747960581b6044820152606490fd5b60405162461bcd60e51b8152602060048201526016602482015275436f6c6f72732063616e6e6f7420626520656d70747960501b6044820152606490fd5b60405162461bcd60e51b815260206004820152601b60248201527a4465736372697074696f6e2063616e6e6f7420626520656d70747960281b6044820152606490fd5b60405162461bcd60e51b815260206004820152602860248201527f4f6e6c79207468652073656c6c65722063616e20757064617465207468656972604482015267081c1c9bd91d58dd60c21b6064820152608490fd5b60008054909291906001600160a01b0390811633146185db5733845260196020526040842054811690811561859457818552601360205260ff60408620541660048110156179625791616240949591600261858f94149283156178ff57505050617839565b6185e3565b9050601360205260ff60408520541660048110156185c7579361858f916002616240959614918215617954575050617839565b634e487b7160e01b85526021600452602485fd5b506162409192505b906000918083526020926017845260409161860360ff8484205416617982565b8082526010855282822060010154336001600160a01b03918216149081156186f6575b50156186a2578082526010855260ff600f848420015460101c1661866157600f939460109183525220016201000062ff000019825416179055565b825162461bcd60e51b815260048101869052601a602482015279141c9bd91d58dd081a5cc8185b1c9958591e4819195b195d195960321b6044820152606490fd5b825162461bcd60e51b815260048101869052602760248201527f4f6e6c792070726f647563742073656c6c6572206f72206f776e65722063616e6044820152662064656c65746560c81b6064820152608490fd5b8354163314905038618626565b90815461870f8161636e565b9260409361871f85519182615698565b828152809460208092019260005281600020906000935b85851061874557505050505050565b6001848192845161875a816103da818a6157d6565b815201930194019391618736565b9060405161877581615662565b60a06005829480548452600180841b036001820154166020850152600281015460408501526040516187ae816103da81600386016157d6565b606085015260ff600482015416151560808501520154910152565b906187d38261636e565b6187e06040519182615698565b82815280926187f1601f199161636e565b019060005b82811061880257505050565b60209061880d616786565b828285010152016187f6565b1561882057565b60405162461bcd60e51b815260206004820152601d60248201527f43617465676f7279206e616d652063616e6e6f7420626520656d7074790000006044820152606490fd5b1561886c57565b606460405162461bcd60e51b815260206004820152602060248201527f53756263617465676f7279206e616d652063616e6e6f7420626520656d7074796044820152fd5b90821015615a7a576188c79160051b810190616499565b9091565b156188d257565b60405162461bcd60e51b815260206004820152601760248201527610d85d1959dbdc9e48191bd95cc81b9bdd08195e1a5cdd604a1b6044820152606490fd5b906189296020919493946040845260408401906152be565b931515910152565b1561893857565b60405162461bcd60e51b815260206004820152601a60248201527914dd5898d85d1959dbdc9e48191bd95cc81b9bdd08195e1a5cdd60321b6044820152606490fd5b9060405191828154918282526020928383019160005283600020936000905b8282106189af5750505061624092500383615698565b855484526001958601958895509381019390910190618999565b60005b8281106189d857505050565b6060828201526020016189cc565b919082039182116110cb57565b60405190618a0082615662565b600060a0838281528260208201528260408201526060808201528260808201520152565b8054821015615a7a576000526006602060002091020190600090565b8054600160401b811015610d5c57618a5f906001928382018155615b07565b9290926191065780518355602080820151838501556040820151600285015560608201516003808601919091556080830151600480870180546001600160a01b0319166001600160a01b0393841617905560a08086015160058901805460c08901516001600160a81b0319909116929095169190911793151590911b60ff60a01b169290921790915560e0909301518051805191966001600160401b0395939491939260068201908781116190f157618b1c816111ce845461579c565b8084601f9788831160011461908f57600092619084575b505060001982891b1c191690891b1790555b6007810182890151805190888211618e4e578190618b678261697a865461579c565b859088831160011461902257600092619017575b505060001982891b1c191690891b1790555b600881016040890151805190888211618e4e578190618bb08261697a865461579c565b8590888311600114618fb557600092618faa575b505060001982891b1c191690891b1790555b600981016060890151805190888211618e4e578190618bf98261697a865461579c565b8590888311600114618f4857600092618f3d575b505060001982891b1c191690891b1790555b600a81016080890151805190888211618e4e578190618c428261697a865461579c565b8590888311600114618edb57600092618ed0575b505060001982891b1c191690891b1790555b600b810160a0890151805190888211618e4e578190618c8b8261697a865461579c565b8590888311600114618e6e57600092618e63575b505060001982891b1c191690891b1790555b600c810160c0890151805190888211618e4e57618cd282610c72855461579c565b8490878311600114618de1579180600d949260e09694600092618dd6575b5050600019828b1b1c1916908b1b1790555b01970151918251958611618dc15750618d2585618d1f895461579c565b89616205565b80928511600114618d5b5750938394918492600095618d50575b50501b92600019911b1c1916179055565b015193503880618d3f565b92919084601f1981168860005285600020956000905b89838310618da75750505010618d8d575b50505050811b019055565b01519060f884600019921b161c1916905538808080618d82565b858701518955909701969485019488935090810190618d71565b604190634e487b7160e01b6000525260246000fd5b015190503880618cf0565b8a9291601f1983169185600052876000209260005b89828210618e385750509160e09795939185600d98969410618e20575b505050811b019055618d02565b0151600019838d1b60f8161c19169055388080618e13565b8385015186558f97909501949384019301618df6565b604186634e487b7160e01b6000525260246000fd5b015190503880618c9f565b908b9350601f1983169185600052876000209260005b89828210618eba5750508411618ea2575b505050811b019055618cb1565b0151600019838b1b60f8161c19169055388080618e95565b8385015186558f97909501949384019301618e84565b015190503880618c56565b908b9350601f1983169185600052876000209260005b89828210618f275750508411618f0f575b505050811b019055618c68565b0151600019838b1b60f8161c19169055388080618f02565b8385015186558f97909501949384019301618ef1565b015190503880618c0d565b908b9350601f1983169185600052876000209260005b89828210618f945750508411618f7c575b505050811b019055618c1f565b0151600019838b1b60f8161c19169055388080618f6f565b8385015186558f97909501949384019301618f5e565b015190503880618bc4565b908b9350601f1983169185600052876000209260005b898282106190015750508411618fe9575b505050811b019055618bd6565b0151600019838b1b60f8161c19169055388080618fdc565b8385015186558f97909501949384019301618fcb565b015190503880618b7b565b908b9350601f1983169185600052876000209260005b8982821061906e5750508411619056575b505050811b019055618b8d565b0151600019838b1b60f8161c19169055388080619049565b8385015186558f97909501949384019301619038565b015190503880618b33565b908b9350601f1983169185600052876000209260005b898282106190db57505084116190c3575b505050811b019055618b45565b0151600019838b1b60f8161c191690553880806190b6565b8385015186558f979095019493840193016190a5565b604185634e487b7160e01b6000525260246000fd5b634e487b7160e01b600052600060045260246000fd5b600080546001600160a01b03929190831633146191ca57338152601960205260408120548316801561919557808252601360205260ff6040832054169360048510156191815760026191799495149283156178ff57505050617839565b6162406191d1565b634e487b7160e01b83526021600452602483fd5b509091601360205260ff6040832054166004811015619181579060026191c5939214918215617954575050617839565b619179565b5090506162405b600033815260126020526040812054801561927457600b548082029082820403619260579061922c61920a6064619232940480936189e6565b33855260126020526040852085905584549092906001600160a01b0316619615565b33619615565b6040519081527f8ad64a0ac7700dd8425ab0499f107cb6e2cd1581d803c5b8c1c79dcb8190b1af60203392a2565b634e487b7160e01b83526011600452602483fd5b60405162461bcd60e51b81526020600482015260166024820152754e6f2062616c616e636520746f20776974686472617760501b6044820152606490fd5b6000805490939291906001600160a01b0390811633146193505733855260196020526040852054811690811561931d57818652601360205260ff604087205416600481101561790c5791616240959691600261931894149283156178ff57505050617839565b619358565b9050601360205260ff60408620541660048110156179625794619318916002616240969714918215617954575050617839565b506162409293505b600091825b60018060a01b0380831680600052601460208181526040928360002080548710156196075761938d878a92615b07565b5054146193a75750505050506193a29061635f565b61935d565b8091929394969798506000528282526193c38585600020615b07565b509560ff60058098015460a01c166195c5578160005283835280876193eb8888600020615b07565b5001541633149081156195b7575b501561956057906194139493929160005252600020615b07565b5001805460ff60a01b1916600160a01b17905560015b1561952657816000526020916010835260018060a01b039260019384936040828682600020015416866000905b619478575b505060008051602061971d833981519152949550519586521693a3565b81600052601580875283600020805483101561951f57619499838a92615b07565b505414806194fa575b6194b657506194b09061635f565b87619456565b60008051602061971d833981519152979850906194de91600593600052875283600020615b07565b5001805460ff60a01b1916600160a01b1790558695943861945b565b50826000528087528560046195128487600020615b07565b50015416868616146194a2565b505061945b565b60405162461bcd60e51b8152602060048201526012602482015271141d5c98da185cd9481b9bdd08199bdd5b9960721b6044820152606490fd5b835162461bcd60e51b815260048101839052602a60248201527f4f6e6c792073656c6c6572206f72206f776e65722063616e206d61726b2061736044820152690819195b1a5d995c995960b21b6064820152608490fd5b6000541633149050386193f9565b845162461bcd60e51b815260048101849052601b60248201527a105b1c9958591e481b585c9ad95908185cc819195b1a5d995c9959602a1b6044820152606490fd5b505050505050509091619429565b6001600160a01b0316801561967457600080809381935af1619635616045565b501561963d57565b60405162461bcd60e51b815260206004820152600f60248201526e151c985b9cd9995c8819985a5b1959608a1b6044820152606490fd5b60405162461bcd60e51b815260206004820152600f60248201526e496e76616c6964206164647265737360881b6044820152606490fd5b600c549060005b8281106196c157505050600090565b6196ca81615a90565b905460039190911b1c6001600160a01b03908116908316146196f4576196ef9061635f565b6196b2565b50505060019056fe32b449308c94e824ccedd9877932cd82f89a481c06c4643a0cb2914454a8c582f9dc8543b583e01f592678422369b2777e3649761f5808ae432cb1c24ca9438c79d3150b1760cd391f5006c9543aea088e4c9060f3e582ea0a948dc6649b25da8be0079c531659141344cd1fd0a4f28419497f9722a3daafe3b4186f6b6457e0ddf252ad1be2c89b69c2b068fc378daa952ba7f163c4a11628f55a4df523b3ef5a8a989e12f3ce7cf805b73156a361da5d8369f0c37173209308910b322117ac4cfca6396923c3eee68be58aa35fd6623ae5d67bb552da5e1de2e0d5854166dca164736f6c6343000813000a","opcodes":"PUSH1 0x80 CALLVALUE PUSH3 0x377 JUMPI PUSH1 0x1F SWAP1 PUSH1 0x1F NOT PUSH1 0x1 PUSH1 0x1 PUSH1 0x40 SHL SUB PUSH3 0x9B9C CODESIZE DUP2 SWAP1 SUB DUP6 DUP2 ADD DUP5 AND DUP6 ADD DUP4 DUP2 GT DUP7 DUP3 LT OR PUSH3 0x37C JUMPI DUP6 SWAP3 DUP3 SWAP2 PUSH1 0x40 MSTORE DUP4 CODECOPY PUSH1 0x20 SWAP5 DUP6 SWAP2 DUP2 ADD SUB SLT PUSH3 0x377 JUMPI MLOAD SWAP4 PUSH3 0x53 PUSH3 0x392 JUMP JUMPDEST SWAP3 PUSH1 0x7 DUP5 MSTORE PUSH7 0x48656D53686F7 PUSH1 0xCC SHL DUP6 DUP6 ADD MSTORE PUSH3 0x71 PUSH3 0x392 JUMP JUMPDEST PUSH1 0x3 DUP1 DUP3 MSTORE PUSH3 0x48737 PUSH1 0xEC SHL DUP8 DUP4 ADD MSTORE PUSH1 0x0 DUP1 SLOAD CALLER PUSH1 0x1 PUSH1 0x1 PUSH1 0xA0 SHL SUB NOT DUP3 AND DUP2 OR DUP4 SSTORE SWAP3 SWAP9 SWAP4 SWAP5 SWAP2 SWAP4 SWAP3 SWAP1 PUSH1 0x1 PUSH1 0x1 PUSH1 0xA0 SHL SUB AND PUSH32 0x8BE0079C531659141344CD1FD0A4F28419497F9722A3DAAFE3B4186F6B6457E0 DUP6 DUP1 LOG3 PUSH1 0x1 SWAP7 DUP8 DUP1 SSTORE DUP1 MLOAD SWAP1 DUP8 DUP3 GT PUSH3 0x363 JUMPI PUSH1 0x2 SLOAD DUP10 DUP2 DUP2 SHR SWAP2 AND DUP1 ISZERO PUSH3 0x358 JUMPI JUMPDEST DUP6 DUP3 LT EQ PUSH3 0x344 JUMPI SWAP1 DUP2 DUP9 DUP5 SWAP4 GT PUSH3 0x2F0 JUMPI JUMPDEST POP DUP5 SWAP1 DUP9 DUP4 GT PUSH1 0x1 EQ PUSH3 0x28E JUMPI DUP7 SWAP3 PUSH3 0x282 JUMPI JUMPDEST POP POP PUSH1 0x0 NOT DUP3 DUP12 SHL SHR NOT AND SWAP1 DUP9 SHL OR PUSH1 0x2 SSTORE JUMPDEST DUP4 MLOAD SWAP6 DUP7 GT PUSH3 0x26E JUMPI DUP8 SLOAD DUP8 DUP2 DUP2 SHR SWAP2 AND DUP1 ISZERO PUSH3 0x263 JUMPI JUMPDEST DUP4 DUP3 LT EQ PUSH3 0x24F JUMPI DUP6 DUP2 GT PUSH3 0x207 JUMPI JUMPDEST POP DUP2 SWAP5 DUP7 GT PUSH1 0x1 EQ PUSH3 0x1A2 JUMPI POP POP SWAP2 DUP4 SWAP5 SWAP2 DUP5 SWAP4 SWAP5 PUSH3 0x196 JUMPI JUMPDEST POP POP SHL SWAP2 PUSH1 0x0 NOT SWAP1 DUP5 SHL SHR NOT AND OR SWAP1 SSTORE JUMPDEST PUSH1 0xB SSTORE PUSH1 0x40 MLOAD PUSH2 0x97E9 SWAP1 DUP2 PUSH3 0x3B3 DUP3 CODECOPY RETURN JUMPDEST ADD MLOAD SWAP3 POP CODESIZE DUP1 PUSH3 0x172 JUMP JUMPDEST DUP8 DUP4 MSTORE DUP2 DUP4 KECCAK256 SWAP5 SWAP4 SWAP3 DUP7 SWAP3 SWAP2 DUP4 AND SWAP2 JUMPDEST DUP9 DUP4 DUP4 LT PUSH3 0x1EC JUMPI POP POP POP LT PUSH3 0x1D3 JUMPI JUMPDEST POP POP POP DUP2 SHL ADD SWAP1 SSTORE PUSH3 0x183 JUMP JUMPDEST ADD MLOAD PUSH1 0x0 NOT DUP4 DUP7 SHL PUSH1 0xF8 AND SHR NOT AND SWAP1 SSTORE CODESIZE DUP1 DUP1 PUSH3 0x1C5 JUMP JUMPDEST DUP6 DUP8 ADD MLOAD DUP9 SSTORE SWAP1 SWAP7 ADD SWAP6 SWAP5 DUP6 ADD SWAP5 DUP8 SWAP4 POP SWAP1 DUP2 ADD SWAP1 PUSH3 0x1B2 JUMP JUMPDEST DUP9 DUP5 MSTORE DUP3 DUP5 KECCAK256 DUP7 DUP1 DUP10 ADD PUSH1 0x5 SHR DUP3 ADD SWAP3 DUP6 DUP11 LT PUSH3 0x245 JUMPI JUMPDEST ADD PUSH1 0x5 SHR ADD SWAP1 DUP9 SWAP1 JUMPDEST DUP3 DUP2 LT PUSH3 0x239 JUMPI POP POP PUSH3 0x156 JUMP JUMPDEST DUP6 DUP2 SSTORE ADD DUP9 SWAP1 PUSH3 0x229 JUMP JUMPDEST SWAP3 POP DUP2 SWAP3 PUSH3 0x220 JUMP JUMPDEST PUSH4 0x4E487B71 PUSH1 0xE0 SHL DUP5 MSTORE PUSH1 0x22 PUSH1 0x4 MSTORE PUSH1 0x24 DUP5 REVERT JUMPDEST SWAP1 PUSH1 0x7F AND SWAP1 PUSH3 0x144 JUMP JUMPDEST PUSH4 0x4E487B71 PUSH1 0xE0 SHL DUP4 MSTORE PUSH1 0x41 PUSH1 0x4 MSTORE PUSH1 0x24 DUP4 REVERT JUMPDEST ADD MLOAD SWAP1 POP CODESIZE DUP1 PUSH3 0x117 JUMP JUMPDEST SWAP1 DUP5 DUP12 SWAP5 AND SWAP2 PUSH1 0x2 DUP9 MSTORE DUP7 DUP9 KECCAK256 SWAP3 DUP9 JUMPDEST DUP9 DUP3 DUP3 LT PUSH3 0x2D9 JUMPI POP POP DUP5 GT PUSH3 0x2C0 JUMPI JUMPDEST POP POP POP DUP2 SHL ADD PUSH1 0x2 SSTORE PUSH3 0x12A JUMP JUMPDEST ADD MLOAD PUSH1 0x0 NOT DUP4 DUP14 SHL PUSH1 0xF8 AND SHR NOT AND SWAP1 SSTORE CODESIZE DUP1 DUP1 PUSH3 0x2B1 JUMP JUMPDEST DUP4 DUP6 ADD MLOAD DUP7 SSTORE DUP15 SWAP8 SWAP1 SWAP6 ADD SWAP5 SWAP4 DUP5 ADD SWAP4 ADD PUSH3 0x29E JUMP JUMPDEST SWAP1 SWAP2 POP PUSH1 0x2 DUP7 MSTORE DUP5 DUP7 KECCAK256 DUP9 DUP1 DUP6 ADD PUSH1 0x5 SHR DUP3 ADD SWAP3 DUP8 DUP7 LT PUSH3 0x33A JUMPI JUMPDEST SWAP2 DUP13 SWAP2 DUP7 SWAP6 SWAP5 SWAP4 ADD PUSH1 0x5 SHR ADD SWAP2 JUMPDEST DUP3 DUP2 LT PUSH3 0x32B JUMPI POP POP PUSH3 0x101 JUMP JUMPDEST DUP9 DUP2 SSTORE DUP6 SWAP5 POP DUP13 SWAP2 ADD PUSH3 0x31B JUMP JUMPDEST SWAP3 POP DUP2 SWAP3 PUSH3 0x30D JUMP JUMPDEST PUSH4 0x4E487B71 PUSH1 0xE0 SHL DUP7 MSTORE PUSH1 0x22 PUSH1 0x4 MSTORE PUSH1 0x24 DUP7 REVERT JUMPDEST SWAP1 PUSH1 0x7F AND SWAP1 PUSH3 0xEC JUMP JUMPDEST PUSH4 0x4E487B71 PUSH1 0xE0 SHL DUP6 MSTORE PUSH1 0x41 PUSH1 0x4 MSTORE PUSH1 0x24 DUP6 REVERT JUMPDEST PUSH1 0x0 DUP1 REVERT JUMPDEST PUSH4 0x4E487B71 PUSH1 0xE0 SHL PUSH1 0x0 MSTORE PUSH1 0x41 PUSH1 0x4 MSTORE PUSH1 0x24 PUSH1 0x0 REVERT JUMPDEST PUSH1 0x40 DUP1 MLOAD SWAP2 SWAP1 DUP3 ADD PUSH1 0x1 PUSH1 0x1 PUSH1 0x40 SHL SUB DUP2 GT DUP4 DUP3 LT OR PUSH3 0x37C JUMPI PUSH1 0x40 MSTORE JUMP INVALID PUSH1 0x80 DUP1 PUSH1 0x40 MSTORE PUSH1 0x4 CALLDATASIZE LT ISZERO PUSH2 0x13 JUMPI PUSH1 0x0 DUP1 REVERT JUMPDEST PUSH1 0x0 CALLDATALOAD PUSH1 0xE0 SHR SWAP1 DUP2 PUSH3 0xD64E76 EQ PUSH2 0x5291 JUMPI POP DUP1 PUSH4 0x1FFC9A7 EQ PUSH2 0x5223 JUMPI DUP1 PUSH4 0x2EE3A52 EQ PUSH2 0x4FA9 JUMPI DUP1 PUSH4 0x6FDDE03 EQ PUSH2 0x4F04 JUMPI DUP1 PUSH4 0x81812FC EQ PUSH2 0x4EE6 JUMPI DUP1 PUSH4 0x95EA7B3 EQ PUSH2 0x4D6C JUMPI DUP1 PUSH4 0xE50CEE5 EQ PUSH2 0x4D2D JUMPI DUP1 PUSH4 0x11AA5B34 EQ PUSH2 0x4D09 JUMPI DUP1 PUSH4 0x1385FD92 EQ PUSH2 0x4CB5 JUMPI DUP1 PUSH4 0x16D81B38 EQ PUSH2 0x4ABD JUMPI DUP1 PUSH4 0x17E98548 EQ PUSH2 0x4A45 JUMPI DUP1 PUSH4 0x2148893F EQ PUSH2 0x42AE JUMPI DUP1 PUSH4 0x23B872DD EQ PUSH2 0x4A1C JUMPI DUP1 PUSH4 0x24D41A03 EQ PUSH2 0x47FF JUMPI DUP1 PUSH4 0x317A0827 EQ PUSH2 0x46B8 JUMPI DUP1 PUSH4 0x332D56D7 EQ PUSH2 0x45F7 JUMPI DUP1 PUSH4 0x3C2575D5 EQ PUSH2 0x4512 JUMPI DUP1 PUSH4 0x3CCFD60B EQ PUSH2 0x44F9 JUMPI DUP1 PUSH4 0x42842E0E EQ PUSH2 0x44D1 JUMPI DUP1 PUSH4 0x4293E5CE EQ PUSH2 0x43CF JUMPI DUP1 PUSH4 0x45DE84DB EQ PUSH2 0x438D JUMPI DUP1 PUSH4 0x502AA3B5 EQ PUSH2 0x434B JUMPI DUP1 PUSH4 0x5BE20959 EQ PUSH2 0x42E8 JUMPI DUP1 PUSH4 0x607EB4E4 EQ PUSH2 0x42AE JUMPI DUP1 PUSH4 0x6352211E EQ PUSH2 0x427E JUMPI DUP1 PUSH4 0x661E1712 EQ PUSH2 0x3A7C JUMPI DUP1 PUSH4 0x66224D8E EQ PUSH2 0x3926 JUMPI DUP1 PUSH4 0x6F2C8599 EQ PUSH2 0x387B JUMPI DUP1 PUSH4 0x6F68EF3A EQ PUSH2 0x374F JUMPI DUP1 PUSH4 0x6F77926B EQ PUSH2 0x356B JUMPI DUP1 PUSH4 0x70A08231 EQ PUSH2 0x34D4 JUMPI DUP1 PUSH4 0x715018A6 EQ PUSH2 0x348D JUMPI DUP1 PUSH4 0x7ACC0B20 EQ PUSH2 0x32CE JUMPI DUP1 PUSH4 0x7D3978DB EQ PUSH2 0x30B0 JUMPI DUP1 PUSH4 0x7E8555ED EQ PUSH2 0x2A0E JUMPI DUP1 PUSH4 0x868A5461 EQ PUSH2 0x29CE JUMPI DUP1 PUSH4 0x8DA5CB5B EQ PUSH2 0x29A5 JUMPI DUP1 PUSH4 0x8F38CC7B EQ PUSH2 0x2682 JUMPI DUP1 PUSH4 0x9196DFCB EQ PUSH2 0x2568 JUMPI DUP1 PUSH4 0x95D89B41 EQ PUSH2 0x2486 JUMPI DUP1 PUSH4 0x97B6F393 EQ PUSH2 0x2315 JUMPI DUP1 PUSH4 0x9D4A2255 EQ PUSH2 0x2186 JUMPI DUP1 PUSH4 0x9FA44DBF EQ PUSH2 0x213E JUMPI DUP1 PUSH4 0xA22CB465 EQ PUSH2 0x2073 JUMPI DUP1 PUSH4 0xA22FB387 EQ PUSH2 0x1FC8 JUMPI DUP1 PUSH4 0xA323D29E EQ PUSH2 0x1E75 JUMPI DUP1 PUSH4 0xAF55ED64 EQ PUSH2 0x1E44 JUMPI DUP1 PUSH4 0xB27E1697 EQ PUSH2 0x1D5F JUMPI DUP1 PUSH4 0xB88D4FDE EQ PUSH2 0x1D00 JUMPI DUP1 PUSH4 0xB95A0628 EQ PUSH2 0x1CC5 JUMPI DUP1 PUSH4 0xB9DB15B4 EQ PUSH2 0x1AAB JUMPI DUP1 PUSH4 0xC1302B34 EQ PUSH2 0x1A53 JUMPI DUP1 PUSH4 0xC64B8A8F EQ PUSH2 0x1A14 JUMPI DUP1 PUSH4 0xC87B56DD EQ PUSH2 0x19BA JUMPI DUP1 PUSH4 0xCECA737F EQ PUSH2 0x1936 JUMPI DUP1 PUSH4 0xD2BC9D78 EQ PUSH2 0x1689 JUMPI DUP1 PUSH4 0xD3E2457F EQ PUSH2 0x1556 JUMPI DUP1 PUSH4 0xD637DCFA EQ PUSH2 0x10E1 JUMPI DUP1 PUSH4 0xDADD0A57 EQ PUSH2 0xDEE JUMPI DUP1 PUSH4 0xDC298682 EQ PUSH2 0xBB7 JUMPI DUP1 PUSH4 0xE01EF6E6 EQ PUSH2 0xB99 JUMPI DUP1 PUSH4 0xE40971E5 EQ PUSH2 0xB5C JUMPI DUP1 PUSH4 0xE585CB2C EQ PUSH2 0xACC JUMPI DUP1 PUSH4 0xE6A93E16 EQ PUSH2 0x80B JUMPI DUP1 PUSH4 0xE985E9C5 EQ PUSH2 0x7B5 JUMPI DUP1 PUSH4 0xEB11C434 EQ PUSH2 0x783 JUMPI DUP1 PUSH4 0xED90C7B7 EQ PUSH2 0x765 JUMPI DUP1 PUSH4 0xF2FDE38B EQ PUSH2 0x6B6 JUMPI DUP1 PUSH4 0xF3052D26 EQ PUSH2 0x5F6 JUMPI PUSH4 0xFDCA4CA3 EQ PUSH2 0x320 JUMPI PUSH1 0x0 DUP1 REVERT JUMPDEST CALLVALUE PUSH2 0x5F1 JUMPI PUSH1 0x0 CALLDATASIZE PUSH1 0x3 NOT ADD SLT PUSH2 0x5F1 JUMPI PUSH1 0x8 DUP1 SLOAD PUSH1 0x0 PUSH1 0x1 JUMPDEST DUP3 DUP2 GT ISZERO PUSH2 0x58B JUMPI POP PUSH2 0x34C SWAP1 PUSH2 0x87C9 JUMP JUMPDEST SWAP1 PUSH1 0x0 SWAP3 PUSH1 0x1 JUMPDEST DUP3 DUP2 GT ISZERO PUSH2 0x36D JUMPI PUSH1 0x40 MLOAD DUP1 PUSH2 0x369 DUP7 DUP3 PUSH2 0x554B JUMP JUMPDEST SUB SWAP1 RETURN JUMPDEST PUSH1 0x0 DUP2 DUP2 MSTORE PUSH1 0x10 PUSH1 0x20 DUP2 DUP2 MSTORE PUSH1 0x40 SWAP1 SWAP3 KECCAK256 PUSH1 0x1 DUP2 ADD SLOAD PUSH1 0x1 PUSH1 0x1 PUSH1 0xA0 SHL SUB AND SWAP3 SWAP2 CALLER DUP5 EQ DUP1 PUSH2 0x57A JUMPI JUMPDEST PUSH2 0x3AE JUMPI JUMPDEST POP POP POP POP PUSH2 0x3A9 SWAP1 PUSH2 0x635F JUMP JUMPDEST PUSH2 0x353 JUMP JUMPDEST PUSH1 0x40 SWAP9 SWAP5 SWAP9 MLOAD SWAP4 PUSH2 0x3BE DUP6 PUSH2 0x55D9 JUMP JUMPDEST DUP3 SLOAD DUP6 MSTORE DUP4 DUP6 ADD MSTORE PUSH1 0x40 MLOAD PUSH2 0x3E1 DUP2 PUSH2 0x3DA DUP2 PUSH1 0x2 DUP8 ADD PUSH2 0x57D6 JUMP JUMPDEST SUB DUP3 PUSH2 0x5698 JUMP JUMPDEST PUSH1 0x40 DUP6 ADD MSTORE PUSH1 0x40 MLOAD PUSH2 0x3FA DUP2 PUSH2 0x3DA DUP2 PUSH1 0x3 DUP8 ADD PUSH2 0x57D6 JUMP JUMPDEST PUSH1 0x60 DUP6 ADD MSTORE PUSH1 0x4 DUP3 ADD SLOAD PUSH1 0x80 DUP6 ADD MSTORE PUSH1 0x5 DUP3 ADD SLOAD PUSH1 0xA0 DUP6 ADD MSTORE PUSH1 0x6 SWAP2 PUSH2 0x421 DUP4 DUP3 ADD PUSH2 0x8703 JUMP JUMPDEST PUSH1 0xC0 DUP7 ADD MSTORE PUSH2 0x432 PUSH1 0x7 DUP3 ADD PUSH2 0x8703 JUMP JUMPDEST PUSH1 0xE0 DUP7 ADD MSTORE PUSH2 0x442 DUP8 DUP3 ADD PUSH2 0x8703 JUMP JUMPDEST PUSH2 0x100 DUP7 ADD MSTORE PUSH1 0x40 MLOAD PUSH2 0x45C DUP2 PUSH2 0x3DA DUP2 PUSH1 0x9 DUP7 ADD PUSH2 0x57D6 JUMP JUMPDEST PUSH2 0x120 DUP7 ADD MSTORE PUSH1 0x40 MLOAD PUSH2 0x476 DUP2 PUSH2 0x3DA DUP2 PUSH1 0xA DUP7 ADD PUSH2 0x57D6 JUMP JUMPDEST PUSH2 0x140 DUP7 ADD MSTORE PUSH1 0xB DUP2 ADD SLOAD PUSH2 0x160 DUP7 ADD MSTORE PUSH1 0x40 MLOAD PUSH2 0x49B DUP2 PUSH2 0x3DA DUP2 PUSH1 0xC DUP7 ADD PUSH2 0x57D6 JUMP JUMPDEST PUSH2 0x180 DUP7 ADD MSTORE PUSH1 0x40 MLOAD PUSH2 0x4B5 DUP2 PUSH2 0x3DA DUP2 PUSH1 0xD DUP7 ADD PUSH2 0x57D6 JUMP JUMPDEST PUSH2 0x1A0 DUP7 ADD MSTORE PUSH1 0xE DUP2 ADD SLOAD PUSH2 0x1C0 DUP7 ADD MSTORE PUSH1 0xF DUP2 ADD SLOAD PUSH1 0xFF SWAP1 DUP2 DUP2 AND ISZERO ISZERO PUSH2 0x1E0 DUP9 ADD MSTORE DUP2 DUP2 DUP11 SHR AND ISZERO ISZERO PUSH2 0x200 DUP9 ADD MSTORE DUP4 SHR AND ISZERO ISZERO PUSH2 0x220 DUP7 ADD MSTORE ADD SWAP1 DUP2 SLOAD SWAP2 PUSH2 0x4FF DUP4 PUSH2 0x636E JUMP JUMPDEST SWAP4 PUSH2 0x50D PUSH1 0x40 MLOAD SWAP6 DUP7 PUSH2 0x5698 JUMP JUMPDEST DUP4 DUP6 MSTORE PUSH1 0x0 SWAP2 DUP3 MSTORE DUP1 DUP3 KECCAK256 SWAP2 DUP2 DUP7 ADD JUMPDEST DUP6 DUP3 LT PUSH2 0x55E JUMPI POP POP POP POP POP POP SWAP2 DUP2 PUSH2 0x3A9 SWAP4 PUSH2 0x240 PUSH2 0x554 SWAP5 ADD MSTORE PUSH2 0x543 DUP3 DUP9 PUSH2 0x63B7 JUMP JUMPDEST MSTORE PUSH2 0x54E DUP2 DUP8 PUSH2 0x63B7 JUMP JUMPDEST POP PUSH2 0x635F JUMP JUMPDEST SWAP5 SWAP1 CODESIZE DUP1 DUP1 PUSH2 0x39C JUMP JUMPDEST DUP5 DUP4 PUSH1 0x1 SWAP3 PUSH2 0x56C DUP8 PUSH2 0x8768 JUMP JUMPDEST DUP2 MSTORE ADD SWAP5 ADD SWAP2 ADD SWAP1 SWAP3 PUSH2 0x51D JUMP JUMPDEST POP PUSH1 0xFF PUSH1 0xF DUP4 ADD SLOAD DUP3 SHR AND ISZERO PUSH2 0x397 JUMP JUMPDEST PUSH1 0x0 DUP2 DUP2 MSTORE PUSH1 0x10 PUSH1 0x20 DUP2 SWAP1 MSTORE PUSH1 0x40 SWAP1 SWAP2 KECCAK256 PUSH1 0x1 DUP2 ADD SLOAD PUSH1 0x1 PUSH1 0x1 PUSH1 0xA0 SHL SUB AND CALLER EQ SWAP2 SWAP1 DUP3 PUSH2 0x5DE JUMPI JUMPDEST POP POP PUSH2 0x5C9 JUMPI JUMPDEST PUSH2 0x5C4 SWAP1 PUSH2 0x635F JUMP JUMPDEST PUSH2 0x33A JUMP JUMPDEST SWAP1 PUSH2 0x5D6 PUSH2 0x5C4 SWAP2 PUSH2 0x635F JUMP JUMPDEST SWAP2 SWAP1 POP PUSH2 0x5BB JUMP JUMPDEST PUSH1 0xFF SWAP3 POP PUSH1 0xF ADD SLOAD SWAP1 SHR AND ISZERO CODESIZE DUP1 PUSH2 0x5B4 JUMP JUMPDEST PUSH1 0x0 DUP1 REVERT JUMPDEST CALLVALUE PUSH2 0x5F1 JUMPI PUSH1 0x20 CALLDATASIZE PUSH1 0x3 NOT ADD SLT PUSH2 0x5F1 JUMPI PUSH1 0x4 CALLDATALOAD PUSH1 0x0 MSTORE PUSH1 0xE PUSH1 0x20 MSTORE PUSH1 0x40 PUSH1 0x0 KECCAK256 PUSH1 0x40 MLOAD PUSH2 0x623 DUP2 PUSH2 0x562C JUMP JUMPDEST DUP2 SLOAD DUP2 MSTORE PUSH2 0x369 PUSH1 0x40 MLOAD SWAP2 PUSH2 0x646 DUP4 PUSH2 0x63F DUP2 PUSH1 0x1 DUP9 ADD PUSH2 0x57D6 JUMP JUMPDEST SUB DUP5 PUSH2 0x5698 JUMP JUMPDEST PUSH1 0x20 DUP2 ADD SWAP3 DUP4 MSTORE PUSH2 0x66A PUSH1 0x3 PUSH1 0xFF PUSH1 0x2 DUP8 ADD SLOAD AND SWAP6 PUSH1 0x40 DUP5 ADD SWAP7 ISZERO ISZERO DUP8 MSTORE ADD PUSH2 0x897A JUMP JUMPDEST SWAP1 PUSH1 0x60 DUP2 ADD SWAP2 DUP3 MSTORE PUSH2 0x67E DUP2 MLOAD ISZERO ISZERO PUSH2 0x88CB JUMP JUMPDEST MLOAD SWAP3 MLOAD SWAP4 MLOAD ISZERO ISZERO SWAP1 MLOAD PUSH2 0x6A3 PUSH1 0x40 MLOAD SWAP6 DUP7 SWAP6 DUP7 MSTORE PUSH1 0x80 PUSH1 0x20 DUP8 ADD MSTORE PUSH1 0x80 DUP7 ADD SWAP1 PUSH2 0x52BE JUMP JUMPDEST SWAP2 PUSH1 0x40 DUP6 ADD MSTORE DUP4 DUP3 SUB PUSH1 0x60 DUP6 ADD MSTORE PUSH2 0x5C39 JUMP JUMPDEST CALLVALUE PUSH2 0x5F1 JUMPI PUSH1 0x20 CALLDATASIZE PUSH1 0x3 NOT ADD SLT PUSH2 0x5F1 JUMPI PUSH2 0x6CF PUSH2 0x55AD JUMP JUMPDEST PUSH2 0x6D7 PUSH2 0x5C6D JUMP JUMPDEST PUSH1 0x1 PUSH1 0x1 PUSH1 0xA0 SHL SUB SWAP1 DUP2 AND SWAP1 DUP2 ISZERO PUSH2 0x711 JUMPI PUSH1 0x0 SLOAD DUP3 PUSH1 0x1 DUP1 PUSH1 0xA0 SHL SUB NOT DUP3 AND OR PUSH1 0x0 SSTORE AND PUSH1 0x0 DUP1 MLOAD PUSH1 0x20 PUSH2 0x975D DUP4 CODECOPY DUP2 MLOAD SWAP2 MSTORE PUSH1 0x0 DUP1 LOG3 STOP JUMPDEST PUSH1 0x40 MLOAD PUSH3 0x461BCD PUSH1 0xE5 SHL DUP2 MSTORE PUSH1 0x20 PUSH1 0x4 DUP3 ADD MSTORE PUSH1 0x26 PUSH1 0x24 DUP3 ADD MSTORE PUSH32 0x4F776E61626C653A206E6577206F776E657220697320746865207A65726F2061 PUSH1 0x44 DUP3 ADD MSTORE PUSH6 0x646472657373 PUSH1 0xD0 SHL PUSH1 0x64 DUP3 ADD MSTORE PUSH1 0x84 SWAP1 REVERT JUMPDEST CALLVALUE PUSH2 0x5F1 JUMPI PUSH1 0x20 CALLDATASIZE PUSH1 0x3 NOT ADD SLT PUSH2 0x5F1 JUMPI PUSH2 0x781 PUSH1 0x4 CALLDATALOAD PUSH2 0x852A JUMP JUMPDEST STOP JUMPDEST CALLVALUE PUSH2 0x5F1 JUMPI PUSH1 0x20 CALLDATASIZE PUSH1 0x3 NOT ADD SLT PUSH2 0x5F1 JUMPI PUSH1 0x20 PUSH2 0x7A6 PUSH2 0x7A1 PUSH2 0x55AD JUMP JUMPDEST PUSH2 0x6324 JUMP JUMPDEST PUSH2 0x7B3 PUSH1 0x40 MLOAD DUP1 SWAP3 PUSH2 0x5A52 JUMP JUMPDEST RETURN JUMPDEST CALLVALUE PUSH2 0x5F1 JUMPI PUSH1 0x40 CALLDATASIZE PUSH1 0x3 NOT ADD SLT PUSH2 0x5F1 JUMPI PUSH2 0x7CE PUSH2 0x55AD JUMP JUMPDEST PUSH2 0x7D6 PUSH2 0x55C3 JUMP JUMPDEST SWAP1 PUSH1 0x1 DUP1 PUSH1 0xA0 SHL SUB DUP1 SWAP2 AND PUSH1 0x0 MSTORE PUSH1 0x7 PUSH1 0x20 MSTORE PUSH1 0x40 PUSH1 0x0 KECCAK256 SWAP2 AND PUSH1 0x0 MSTORE PUSH1 0x20 MSTORE PUSH1 0x20 PUSH1 0xFF PUSH1 0x40 PUSH1 0x0 KECCAK256 SLOAD AND PUSH1 0x40 MLOAD SWAP1 ISZERO ISZERO DUP2 MSTORE RETURN JUMPDEST CALLVALUE PUSH2 0x5F1 JUMPI PUSH1 0x20 CALLDATASIZE PUSH1 0x3 NOT ADD SLT PUSH2 0x5F1 JUMPI PUSH2 0x824 PUSH2 0x55AD JUMP JUMPDEST PUSH1 0x8 SLOAD PUSH1 0x0 PUSH1 0x1 JUMPDEST DUP3 DUP2 GT ISZERO PUSH2 0xA63 JUMPI POP PUSH2 0x83E SWAP1 PUSH2 0x87C9 JUMP JUMPDEST SWAP1 PUSH1 0x1 PUSH1 0x0 JUMPDEST DUP3 DUP3 GT ISZERO PUSH2 0x85A JUMPI PUSH1 0x40 MLOAD DUP1 PUSH2 0x369 DUP7 DUP3 PUSH2 0x554B JUMP JUMPDEST PUSH1 0x0 DUP3 DUP2 MSTORE PUSH1 0x10 PUSH1 0x20 DUP2 SWAP1 MSTORE PUSH1 0x40 SWAP1 SWAP2 KECCAK256 PUSH1 0x1 DUP2 ADD SLOAD PUSH1 0x1 PUSH1 0x1 PUSH1 0xA0 SHL SUB SWAP1 DUP2 AND SWAP3 SWAP2 SWAP1 DUP9 AND DUP4 EQ DUP1 PUSH2 0xA52 JUMPI JUMPDEST PUSH2 0x8A0 JUMPI JUMPDEST POP POP POP SWAP1 PUSH2 0x89A SWAP1 PUSH2 0x635F JUMP JUMPDEST SWAP1 PUSH2 0x844 JUMP JUMPDEST PUSH1 0x40 MLOAD SWAP3 PUSH2 0x8AD DUP5 PUSH2 0x55D9 JUMP JUMPDEST DUP2 SLOAD DUP5 MSTORE PUSH1 0x20 DUP5 ADD MSTORE PUSH1 0x40 MLOAD PUSH2 0x8CA DUP2 PUSH2 0x3DA DUP2 PUSH1 0x2 DUP7 ADD PUSH2 0x57D6 JUMP JUMPDEST PUSH1 0x40 DUP5 ADD MSTORE PUSH1 0x40 MLOAD PUSH2 0x8E3 DUP2 PUSH2 0x3DA DUP2 PUSH1 0x3 DUP7 ADD PUSH2 0x57D6 JUMP JUMPDEST PUSH1 0x60 DUP5 ADD MSTORE PUSH1 0x4 DUP2 ADD SLOAD PUSH1 0x80 DUP5 ADD MSTORE PUSH1 0x5 DUP2 ADD SLOAD PUSH1 0xA0 DUP5 ADD MSTORE PUSH2 0x908 PUSH1 0x6 DUP3 ADD PUSH2 0x8703 JUMP JUMPDEST PUSH1 0xC0 DUP5 ADD MSTORE PUSH2 0x919 PUSH1 0x7 DUP3 ADD PUSH2 0x8703 JUMP JUMPDEST PUSH1 0xE0 DUP5 ADD MSTORE PUSH2 0x92A PUSH1 0x8 DUP3 ADD PUSH2 0x8703 JUMP JUMPDEST PUSH2 0x100 DUP5 ADD MSTORE PUSH1 0x40 MLOAD PUSH2 0x944 DUP2 PUSH2 0x3DA DUP2 PUSH1 0x9 DUP7 ADD PUSH2 0x57D6 JUMP JUMPDEST PUSH2 0x120 DUP5 ADD MSTORE PUSH1 0x40 MLOAD PUSH2 0x95E DUP2 PUSH2 0x3DA DUP2 PUSH1 0xA DUP7 ADD PUSH2 0x57D6 JUMP JUMPDEST PUSH2 0x140 DUP5 ADD MSTORE PUSH1 0xB DUP2 ADD SLOAD PUSH2 0x160 DUP5 ADD MSTORE PUSH1 0x40 MLOAD PUSH2 0x983 DUP2 PUSH2 0x3DA DUP2 PUSH1 0xC DUP7 ADD PUSH2 0x57D6 JUMP JUMPDEST PUSH2 0x180 DUP5 ADD MSTORE PUSH1 0x40 MLOAD PUSH2 0x99D DUP2 PUSH2 0x3DA DUP2 PUSH1 0xD DUP7 ADD PUSH2 0x57D6 JUMP JUMPDEST PUSH2 0x1A0 DUP5 ADD MSTORE PUSH1 0xE DUP2 ADD SLOAD PUSH2 0x1C0 DUP5 ADD MSTORE PUSH1 0xF DUP2 ADD SLOAD PUSH1 0xFF SWAP1 DUP2 DUP2 AND ISZERO ISZERO PUSH2 0x1E0 DUP7 ADD MSTORE DUP2 DUP2 PUSH1 0x8 SHR AND ISZERO ISZERO PUSH2 0x200 DUP7 ADD MSTORE DUP4 SHR AND ISZERO ISZERO PUSH2 0x220 DUP5 ADD MSTORE ADD DUP1 SLOAD SWAP1 PUSH2 0x9E7 DUP3 PUSH2 0x636E JUMP JUMPDEST SWAP2 PUSH2 0x9F5 PUSH1 0x40 MLOAD SWAP4 DUP5 PUSH2 0x5698 JUMP JUMPDEST DUP1 DUP4 MSTORE PUSH1 0x20 DUP4 ADD SWAP2 PUSH1 0x0 MSTORE PUSH1 0x20 PUSH1 0x0 KECCAK256 PUSH1 0x0 SWAP3 JUMPDEST DUP3 DUP5 LT PUSH2 0xA34 JUMPI POP POP POP POP PUSH2 0x240 DUP3 ADD MSTORE PUSH2 0x89A SWAP2 PUSH2 0xA2C SWAP2 PUSH2 0x543 DUP3 DUP9 PUSH2 0x63B7 JUMP JUMPDEST SWAP1 DUP7 DUP1 PUSH2 0x88D JUMP JUMPDEST PUSH1 0x6 PUSH1 0x20 PUSH1 0x1 SWAP3 PUSH2 0xA44 DUP6 PUSH2 0x8768 JUMP JUMPDEST DUP2 MSTORE ADD SWAP3 ADD SWAP4 ADD SWAP3 SWAP1 PUSH2 0xA09 JUMP JUMPDEST POP PUSH1 0xFF PUSH1 0xF DUP3 ADD SLOAD DUP4 SHR AND ISZERO PUSH2 0x888 JUMP JUMPDEST PUSH1 0x0 DUP2 DUP2 MSTORE PUSH1 0x10 PUSH1 0x20 DUP2 SWAP1 MSTORE PUSH1 0x40 SWAP1 SWAP2 KECCAK256 PUSH1 0x1 DUP2 ADD SLOAD PUSH1 0x1 PUSH1 0x1 PUSH1 0xA0 SHL SUB DUP8 DUP2 AND SWAP2 AND EQ SWAP2 SWAP1 DUP3 PUSH2 0xAB9 JUMPI JUMPDEST POP POP PUSH2 0xAA4 JUMPI JUMPDEST PUSH2 0xA9F SWAP1 PUSH2 0x635F JUMP JUMPDEST PUSH2 0x82C JUMP JUMPDEST SWAP1 PUSH2 0xAB1 PUSH2 0xA9F SWAP2 PUSH2 0x635F JUMP JUMPDEST SWAP2 SWAP1 POP PUSH2 0xA96 JUMP JUMPDEST PUSH1 0xFF SWAP3 POP PUSH1 0xF ADD SLOAD SWAP1 SHR AND ISZERO DUP6 DUP1 PUSH2 0xA8F JUMP JUMPDEST CALLVALUE PUSH2 0x5F1 JUMPI PUSH1 0x40 CALLDATASIZE PUSH1 0x3 NOT ADD SLT PUSH2 0x5F1 JUMPI PUSH2 0xAE5 PUSH2 0x55AD JUMP JUMPDEST PUSH1 0x1 PUSH1 0x1 PUSH1 0xA0 SHL SUB SWAP1 DUP2 AND PUSH1 0x0 SWAP1 DUP2 MSTORE PUSH1 0x15 PUSH1 0x20 MSTORE PUSH1 0x40 SWAP1 KECCAK256 DUP1 SLOAD PUSH1 0x24 CALLDATALOAD SWAP1 DUP2 LT ISZERO PUSH2 0x5F1 JUMPI PUSH2 0xB14 SWAP2 PUSH2 0x5B07 JUMP JUMPDEST POP SWAP1 PUSH2 0x369 DUP3 SLOAD PUSH1 0x1 DUP5 ADD SLOAD SWAP4 PUSH1 0x2 DUP2 ADD SLOAD SWAP2 PUSH1 0x3 DUP3 ADD SLOAD DUP6 PUSH1 0x4 DUP5 ADD SLOAD AND SWAP1 PUSH2 0xB45 PUSH1 0x6 PUSH1 0x5 DUP7 ADD SLOAD SWAP6 ADD PUSH2 0x5B23 JUMP JUMPDEST SWAP5 PUSH1 0x40 MLOAD SWAP9 DUP10 SWAP9 PUSH1 0xFF DUP8 PUSH1 0xA0 SHR AND SWAP7 AND SWAP5 DUP10 PUSH2 0x5BEF JUMP JUMPDEST CALLVALUE PUSH2 0x5F1 JUMPI PUSH1 0x3 NOT PUSH1 0x20 CALLDATASIZE DUP3 ADD SLT PUSH2 0x5F1 JUMPI PUSH1 0x4 CALLDATALOAD SWAP1 PUSH1 0x1 PUSH1 0x1 PUSH1 0x40 SHL SUB DUP3 GT PUSH2 0x5F1 JUMPI PUSH2 0x1A0 SWAP1 DUP3 CALLDATASIZE SUB ADD SLT PUSH2 0x5F1 JUMPI PUSH2 0x781 SWAP1 PUSH1 0x4 ADD PUSH2 0x63CB JUMP JUMPDEST CALLVALUE PUSH2 0x5F1 JUMPI PUSH1 0x0 CALLDATASIZE PUSH1 0x3 NOT ADD SLT PUSH2 0x5F1 JUMPI PUSH1 0x20 PUSH1 0xB SLOAD PUSH1 0x40 MLOAD SWAP1 DUP2 MSTORE RETURN JUMPDEST CALLVALUE PUSH2 0x5F1 JUMPI PUSH1 0x20 DUP1 PUSH1 0x3 NOT CALLDATASIZE ADD SLT PUSH2 0x5F1 JUMPI PUSH1 0x1 PUSH1 0x1 PUSH1 0x40 SHL SUB PUSH1 0x4 CALLDATALOAD DUP2 DUP2 GT PUSH2 0x5F1 JUMPI PUSH2 0xBE9 SWAP1 CALLDATASIZE SWAP1 PUSH1 0x4 ADD PUSH2 0x570D JUMP JUMPDEST SWAP1 PUSH2 0xBF2 PUSH2 0x5C6D JUMP JUMPDEST PUSH2 0xBFE DUP3 MLOAD ISZERO ISZERO PUSH2 0x8819 JUMP JUMPDEST PUSH2 0xC09 PUSH1 0x1D SLOAD PUSH2 0x635F JUMP JUMPDEST SWAP1 DUP2 PUSH1 0x1D SSTORE PUSH1 0x40 MLOAD PUSH2 0xC1A DUP2 PUSH2 0x567D JUMP JUMPDEST PUSH1 0x0 DUP2 MSTORE PUSH1 0x40 MLOAD PUSH2 0xC2A DUP2 PUSH2 0x562C JUMP JUMPDEST DUP4 DUP2 MSTORE DUP6 DUP2 ADD DUP6 DUP2 MSTORE PUSH1 0x40 DUP3 ADD SWAP1 PUSH1 0x1 SWAP6 DUP7 DUP4 MSTORE PUSH1 0x60 DUP5 ADD SWAP5 DUP6 MSTORE PUSH1 0x0 MSTORE PUSH1 0xE DUP9 MSTORE PUSH1 0x40 PUSH1 0x0 KECCAK256 SWAP3 MLOAD DUP4 SSTORE DUP6 DUP4 ADD SWAP1 MLOAD DUP1 MLOAD SWAP1 DUP7 DUP3 GT PUSH2 0xD5C JUMPI PUSH2 0xC78 DUP3 PUSH2 0xC72 DUP6 SLOAD PUSH2 0x579C JUMP JUMPDEST DUP6 PUSH2 0x6205 JUMP JUMPDEST DUP10 SWAP1 PUSH1 0x1F DUP4 GT PUSH1 0x1 EQ PUSH2 0xD7D JUMPI SWAP2 DUP1 PUSH2 0xCB7 SWAP5 SWAP3 PUSH1 0x3 SWAP8 SWAP7 SWAP5 PUSH1 0x0 SWAP3 PUSH2 0xD72 JUMPI JUMPDEST POP POP PUSH1 0x0 NOT DUP3 DUP9 SHL SHR NOT AND SWAP1 DUP10 SHL OR SWAP1 SSTORE JUMPDEST MLOAD ISZERO ISZERO PUSH1 0x2 DUP4 ADD PUSH2 0x6017 JUMP JUMPDEST ADD SWAP1 MLOAD DUP1 MLOAD SWAP3 DUP4 GT PUSH2 0xD5C JUMPI PUSH1 0x1 PUSH1 0x40 SHL DUP4 GT PUSH2 0xD5C JUMPI DUP6 SWAP1 DUP3 SLOAD DUP5 DUP5 SSTORE DUP1 DUP6 LT PUSH2 0xD3F JUMPI JUMPDEST POP ADD SWAP1 PUSH1 0x0 MSTORE DUP5 PUSH1 0x0 KECCAK256 PUSH1 0x0 JUMPDEST DUP4 DUP2 LT PUSH2 0xD2E JUMPI PUSH1 0x1D SLOAD PUSH1 0x40 MLOAD DUP9 DUP2 MSTORE PUSH32 0x11C167CC9B439F0AD8BEC5588159F1B06B813BC38D50C867A41B23B077BE2C1A SWAP1 DUP1 PUSH2 0xD29 DUP2 DUP13 ADD DUP12 PUSH2 0x52BE JUMP JUMPDEST SUB SWAP1 LOG2 STOP JUMPDEST DUP3 MLOAD DUP3 DUP3 ADD SSTORE SWAP2 DUP7 ADD SWAP2 DUP5 ADD PUSH2 0xCEA JUMP JUMPDEST PUSH2 0xD56 SWAP1 DUP5 PUSH1 0x0 MSTORE DUP6 DUP5 PUSH1 0x0 KECCAK256 SWAP2 DUP3 ADD SWAP2 ADD PUSH2 0x61EE JUMP JUMPDEST DUP8 PUSH2 0xCDD JUMP JUMPDEST PUSH4 0x4E487B71 PUSH1 0xE0 SHL PUSH1 0x0 MSTORE PUSH1 0x41 PUSH1 0x4 MSTORE PUSH1 0x24 PUSH1 0x0 REVERT JUMPDEST ADD MLOAD SWAP1 POP DUP13 DUP1 PUSH2 0xC99 JUMP JUMPDEST DUP9 SWAP3 SWAP2 PUSH1 0x1F NOT DUP4 AND SWAP2 DUP6 PUSH1 0x0 MSTORE DUP13 PUSH1 0x0 KECCAK256 SWAP3 DUP14 PUSH1 0x0 SWAP1 JUMPDEST DUP3 DUP3 LT PUSH2 0xDD7 JUMPI POP POP SWAP2 PUSH1 0x3 SWAP9 SWAP8 SWAP6 SWAP4 SWAP2 DUP6 PUSH2 0xCB7 SWAP9 SWAP7 SWAP5 LT PUSH2 0xDBF JUMPI JUMPDEST POP POP POP DUP2 SHL ADD SWAP1 SSTORE PUSH2 0xCAB JUMP JUMPDEST ADD MLOAD PUSH1 0x0 NOT DUP4 DUP11 SHL PUSH1 0xF8 AND SHR NOT AND SWAP1 SSTORE DUP13 DUP1 DUP1 PUSH2 0xDB2 JUMP JUMPDEST DUP4 DUP6 ADD MLOAD DUP7 SSTORE DUP14 SWAP8 SWAP1 SWAP6 ADD SWAP5 SWAP4 DUP5 ADD SWAP4 ADD DUP15 PUSH2 0xD94 JUMP JUMPDEST CALLVALUE PUSH2 0x5F1 JUMPI PUSH1 0x0 CALLDATASIZE PUSH1 0x3 NOT ADD SLT PUSH2 0x5F1 JUMPI PUSH1 0x1D SLOAD PUSH2 0xE0B DUP2 PUSH2 0x6385 JUMP JUMPDEST PUSH2 0xE14 DUP3 PUSH2 0x636E JUMP JUMPDEST SWAP2 PUSH2 0xE22 PUSH1 0x40 MLOAD SWAP4 DUP5 PUSH2 0x5698 JUMP JUMPDEST DUP1 DUP4 MSTORE PUSH2 0xE3E PUSH1 0x1F NOT PUSH2 0xE34 DUP4 PUSH2 0x636E JUMP JUMPDEST ADD PUSH1 0x20 DUP6 ADD PUSH2 0x89C9 JUMP JUMPDEST PUSH2 0xE47 DUP2 PUSH2 0x636E JUMP JUMPDEST SWAP3 PUSH2 0xE55 PUSH1 0x40 MLOAD SWAP5 DUP6 PUSH2 0x5698 JUMP JUMPDEST DUP2 DUP5 MSTORE PUSH1 0x1F NOT PUSH2 0xE64 DUP4 PUSH2 0x636E JUMP JUMPDEST ADD CALLDATASIZE PUSH1 0x20 DUP7 ADD CALLDATACOPY PUSH2 0xE74 DUP3 PUSH2 0x636E JUMP JUMPDEST SWAP1 PUSH2 0xE82 PUSH1 0x40 MLOAD SWAP3 DUP4 PUSH2 0x5698 JUMP JUMPDEST DUP3 DUP3 MSTORE PUSH2 0xE8E DUP4 PUSH2 0x636E JUMP JUMPDEST SWAP3 PUSH2 0xEA1 PUSH1 0x20 DUP5 ADD SWAP5 PUSH1 0x1F NOT ADD DUP6 PUSH2 0x89C9 JUMP JUMPDEST PUSH1 0x1 JUMPDEST DUP2 DUP2 GT ISZERO PUSH2 0xFDD JUMPI POP POP PUSH2 0xEC3 PUSH1 0x40 MLOAD SWAP5 PUSH1 0x80 DUP7 MSTORE PUSH1 0x80 DUP7 ADD SWAP1 PUSH2 0x5C39 JUMP JUMPDEST DUP5 DUP2 SUB PUSH1 0x20 DUP7 ADD MSTORE DUP2 MLOAD DUP1 DUP3 MSTORE PUSH1 0x20 DUP3 ADD SWAP2 PUSH1 0x20 DUP1 DUP4 PUSH1 0x5 SHL DUP4 ADD ADD SWAP5 ADD SWAP3 PUSH1 0x0 SWAP2 JUMPDEST DUP4 DUP4 LT PUSH2 0xFB0 JUMPI POP POP POP POP POP DUP4 DUP2 SUB PUSH1 0x40 DUP6 ADD MSTORE PUSH1 0x20 DUP1 DUP7 MLOAD SWAP3 DUP4 DUP2 MSTORE ADD SWAP6 ADD SWAP1 PUSH1 0x0 JUMPDEST DUP2 DUP2 LT PUSH2 0xF98 JUMPI POP POP POP DUP3 DUP5 SUB PUSH1 0x60 DUP5 ADD MSTORE MLOAD DUP1 DUP5 MSTORE PUSH1 0x20 DUP5 ADD SWAP1 PUSH1 0x20 DUP2 PUSH1 0x5 SHL DUP7 ADD ADD SWAP3 SWAP2 PUSH1 0x0 SWAP1 JUMPDEST DUP3 DUP3 LT PUSH2 0xF41 JUMPI DUP6 DUP6 SUB DUP7 RETURN JUMPDEST SWAP1 SWAP2 SWAP3 SWAP4 PUSH1 0x1F NOT DUP8 DUP3 SUB ADD DUP3 MSTORE DUP5 MLOAD SWAP1 PUSH1 0x20 DUP1 DUP4 MLOAD SWAP3 DUP4 DUP2 MSTORE ADD SWAP3 ADD SWAP1 PUSH1 0x0 SWAP1 JUMPDEST DUP1 DUP3 LT PUSH2 0xF80 JUMPI POP POP POP PUSH1 0x20 DUP1 PUSH1 0x1 SWAP3 SWAP7 ADD SWAP3 ADD SWAP3 ADD SWAP1 SWAP3 SWAP2 PUSH2 0xF34 JUMP JUMPDEST SWAP1 SWAP2 SWAP3 PUSH1 0x20 DUP1 PUSH1 0x1 SWAP3 DUP7 MLOAD DUP2 MSTORE ADD SWAP5 ADD SWAP3 ADD SWAP1 PUSH2 0xF62 JUMP JUMPDEST DUP3 MLOAD ISZERO ISZERO DUP8 MSTORE PUSH1 0x20 SWAP7 DUP8 ADD SWAP7 SWAP1 SWAP3 ADD SWAP2 PUSH1 0x1 ADD PUSH2 0xF0A JUMP JUMPDEST SWAP1 SWAP2 SWAP3 SWAP4 SWAP5 PUSH1 0x20 DUP1 PUSH2 0xFCE PUSH1 0x1 SWAP4 PUSH1 0x1F NOT DUP7 DUP3 SUB ADD DUP8 MSTORE DUP10 MLOAD PUSH2 0x52BE JUMP JUMPDEST SWAP8 ADD SWAP4 ADD SWAP4 ADD SWAP2 SWAP4 SWAP3 SWAP1 PUSH2 0xEE6 JUMP JUMPDEST DUP1 PUSH1 0x0 MSTORE PUSH1 0xE PUSH1 0x20 MSTORE PUSH1 0x40 PUSH1 0x0 KECCAK256 SWAP1 PUSH2 0x1030 PUSH1 0x3 PUSH1 0x40 MLOAD SWAP4 PUSH2 0xFFE DUP6 PUSH2 0x562C JUMP JUMPDEST DUP1 SLOAD DUP6 MSTORE PUSH1 0x40 MLOAD PUSH2 0x1016 DUP2 PUSH2 0x3DA DUP2 PUSH1 0x1 DUP7 ADD PUSH2 0x57D6 JUMP JUMPDEST PUSH1 0x20 DUP7 ADD MSTORE PUSH1 0xFF PUSH1 0x2 DUP3 ADD SLOAD AND ISZERO ISZERO PUSH1 0x40 DUP7 ADD MSTORE ADD PUSH2 0x897A JUMP JUMPDEST PUSH1 0x60 DUP4 ADD MSTORE DUP2 MLOAD PUSH2 0x104B JUMPI JUMPDEST PUSH2 0x1046 SWAP2 POP PUSH2 0x635F JUMP JUMPDEST PUSH2 0xEA4 JUMP JUMPDEST DUP1 PUSH1 0x0 NOT DUP2 ADD GT PUSH2 0x10CB JUMPI PUSH1 0x60 DUP3 PUSH2 0x1046 SWAP4 MLOAD PUSH2 0x106C PUSH1 0x0 NOT DUP6 ADD DUP12 PUSH2 0x63B7 JUMP JUMPDEST MSTORE PUSH1 0x20 DUP2 ADD MLOAD PUSH2 0x1080 PUSH1 0x0 NOT DUP6 ADD DUP9 PUSH2 0x63B7 JUMP JUMPDEST MSTORE PUSH2 0x108F PUSH1 0x0 NOT DUP5 ADD DUP8 PUSH2 0x63B7 JUMP JUMPDEST POP PUSH1 0x40 DUP2 ADD MLOAD ISZERO ISZERO PUSH2 0x10A5 PUSH1 0x0 NOT DUP6 ADD DUP13 PUSH2 0x63B7 JUMP JUMPDEST MSTORE ADD MLOAD PUSH2 0x10B6 PUSH1 0x0 NOT DUP4 ADD DUP8 PUSH2 0x63B7 JUMP JUMPDEST MSTORE PUSH2 0x10C5 PUSH1 0x0 NOT DUP3 ADD DUP7 PUSH2 0x63B7 JUMP JUMPDEST POP PUSH2 0x103C JUMP JUMPDEST PUSH4 0x4E487B71 PUSH1 0xE0 SHL PUSH1 0x0 MSTORE PUSH1 0x11 PUSH1 0x4 MSTORE PUSH1 0x24 PUSH1 0x0 REVERT JUMPDEST CALLVALUE PUSH2 0x5F1 JUMPI PUSH1 0x60 CALLDATASIZE PUSH1 0x3 NOT ADD SLT PUSH2 0x5F1 JUMPI PUSH1 0x4 CALLDATALOAD PUSH1 0x1 PUSH1 0x1 PUSH1 0x40 SHL SUB DUP2 GT PUSH2 0x5F1 JUMPI PUSH2 0x1111 SWAP1 CALLDATASIZE SWAP1 PUSH1 0x4 ADD PUSH2 0x570D JUMP JUMPDEST PUSH1 0x24 CALLDATALOAD PUSH1 0x1 PUSH1 0x1 PUSH1 0x40 SHL SUB DUP2 GT PUSH2 0x5F1 JUMPI PUSH2 0x1130 SWAP1 CALLDATASIZE SWAP1 PUSH1 0x4 ADD PUSH2 0x570D JUMP JUMPDEST PUSH1 0x44 CALLDATALOAD PUSH1 0x1 PUSH1 0x1 PUSH1 0x40 SHL SUB DUP2 GT PUSH2 0x5F1 JUMPI PUSH2 0x114F SWAP1 CALLDATASIZE SWAP1 PUSH1 0x4 ADD PUSH2 0x570D JUMP JUMPDEST CALLER PUSH1 0x0 MSTORE PUSH1 0x1A PUSH1 0x20 MSTORE PUSH1 0xFF PUSH1 0x40 PUSH1 0x0 KECCAK256 SLOAD AND PUSH2 0x1517 JUMPI PUSH2 0x1171 DUP4 MLOAD ISZERO ISZERO PUSH2 0x64CB JUMP JUMPDEST DUP2 MLOAD ISZERO PUSH2 0x14DA JUMPI PUSH1 0x40 MLOAD SWAP2 PUSH2 0x1185 DUP4 PUSH2 0x5647 JUMP JUMPDEST DUP4 DUP4 MSTORE PUSH1 0x20 DUP4 ADD MSTORE PUSH1 0x40 DUP3 ADD MSTORE TIMESTAMP PUSH1 0x60 DUP3 ADD MSTORE PUSH1 0x1 PUSH1 0x80 DUP3 ADD MSTORE CALLER PUSH1 0x0 MSTORE PUSH1 0x1B PUSH1 0x20 MSTORE PUSH1 0x40 PUSH1 0x0 KECCAK256 SWAP2 DUP2 MLOAD SWAP3 DUP4 MLOAD PUSH1 0x1 DUP1 PUSH1 0x40 SHL SUB DUP2 GT PUSH2 0xD5C JUMPI PUSH2 0x11D4 DUP2 PUSH2 0x11CE DUP5 SLOAD PUSH2 0x579C JUMP JUMPDEST DUP5 PUSH2 0x6205 JUMP JUMPDEST PUSH1 0x20 PUSH1 0x1F DUP3 GT PUSH1 0x1 EQ PUSH2 0x1471 JUMPI DUP2 SWAP3 SWAP4 SWAP5 SWAP6 PUSH1 0x0 SWAP3 PUSH2 0x1466 JUMPI JUMPDEST POP POP DUP2 PUSH1 0x1 SHL SWAP2 PUSH1 0x0 NOT SWAP1 PUSH1 0x3 SHL SHR NOT AND OR DUP2 SSTORE JUMPDEST PUSH1 0x20 DUP4 ADD MLOAD DUP1 MLOAD SWAP1 SWAP4 SWAP1 PUSH1 0x1 PUSH1 0x1 PUSH1 0x40 SHL SUB DUP2 GT PUSH2 0xD5C JUMPI PUSH2 0x1235 DUP2 PUSH2 0x122C PUSH1 0x1 DUP7 ADD SLOAD PUSH2 0x579C JUMP JUMPDEST PUSH1 0x1 DUP7 ADD PUSH2 0x6205 JUMP JUMPDEST PUSH1 0x20 PUSH1 0x1F DUP3 GT PUSH1 0x1 EQ PUSH2 0x13F7 JUMPI DUP2 SWAP3 SWAP4 SWAP5 SWAP6 PUSH1 0x0 SWAP3 PUSH2 0x13EC JUMPI JUMPDEST POP POP DUP2 PUSH1 0x1 SHL SWAP2 PUSH1 0x0 NOT SWAP1 PUSH1 0x3 SHL SHR NOT AND OR PUSH1 0x1 DUP4 ADD SSTORE JUMPDEST PUSH1 0x40 DUP2 ADD MLOAD DUP1 MLOAD PUSH1 0x2 DUP5 ADD SWAP2 PUSH1 0x1 PUSH1 0x1 PUSH1 0x40 SHL SUB DUP3 GT PUSH2 0xD5C JUMPI PUSH2 0x128F DUP3 PUSH2 0xC72 DUP6 SLOAD PUSH2 0x579C JUMP JUMPDEST PUSH1 0x20 SWAP1 PUSH1 0x1F DUP4 GT PUSH1 0x1 EQ PUSH2 0x137A JUMPI SWAP3 DUP3 PUSH1 0x80 SWAP4 PUSH2 0x12DD SWAP8 SWAP7 SWAP4 PUSH1 0x4 SWAP7 PUSH1 0x0 SWAP3 PUSH2 0x136F JUMPI JUMPDEST POP POP DUP2 PUSH1 0x1 SHL SWAP2 PUSH1 0x0 NOT SWAP1 PUSH1 0x3 SHL SHR NOT AND OR SWAP1 SSTORE JUMPDEST PUSH1 0x60 DUP2 ADD MLOAD PUSH1 0x3 DUP6 ADD SSTORE ADD MLOAD ISZERO ISZERO SWAP2 ADD PUSH2 0x6017 JUMP JUMPDEST CALLER PUSH1 0x0 SWAP1 DUP2 MSTORE PUSH1 0x1A PUSH1 0x20 MSTORE PUSH1 0x40 SWAP1 KECCAK256 DUP1 SLOAD PUSH1 0xFF NOT AND PUSH1 0x1 OR SWAP1 SSTORE PUSH1 0x1C SLOAD PUSH1 0x1 PUSH1 0x40 SHL DUP2 LT ISZERO PUSH2 0xD5C JUMPI PUSH2 0x1319 DUP2 PUSH1 0x1 PUSH2 0x1337 SWAP4 ADD PUSH1 0x1C SSTORE PUSH2 0x5A5F JUMP JUMPDEST DUP2 SLOAD PUSH1 0x1 PUSH1 0x1 PUSH1 0xA0 SHL SUB PUSH1 0x3 SWAP3 SWAP1 SWAP3 SHL SWAP2 DUP3 SHL NOT AND CALLER SWAP1 SWAP2 SHL OR SWAP1 SSTORE JUMP JUMPDEST PUSH32 0x48CAC28AD4DC618E15F4C2DD5E97751182F166DE97B25618318B2112AA951A2F PUSH1 0x40 MLOAD PUSH1 0x20 DUP2 MSTORE DUP1 PUSH2 0xD29 CALLER SWAP5 PUSH1 0x20 DUP4 ADD SWAP1 PUSH2 0x52BE JUMP JUMPDEST ADD MLOAD SWAP1 POP DUP10 DUP1 PUSH2 0x12B3 JUMP JUMPDEST SWAP1 PUSH1 0x1F NOT DUP4 AND SWAP2 DUP5 PUSH1 0x0 MSTORE PUSH1 0x20 PUSH1 0x0 KECCAK256 SWAP3 PUSH1 0x0 JUMPDEST DUP2 DUP2 LT PUSH2 0x13D4 JUMPI POP SWAP4 PUSH2 0x12DD SWAP8 SWAP7 SWAP4 PUSH1 0x4 SWAP7 SWAP4 PUSH1 0x1 SWAP4 DUP4 PUSH1 0x80 SWAP9 LT PUSH2 0x13BB JUMPI JUMPDEST POP POP POP DUP2 SHL ADD SWAP1 SSTORE PUSH2 0x12C8 JUMP JUMPDEST ADD MLOAD PUSH1 0x0 NOT PUSH1 0xF8 DUP5 PUSH1 0x3 SHL AND SHR NOT AND SWAP1 SSTORE DUP10 DUP1 DUP1 PUSH2 0x13AE JUMP JUMPDEST SWAP3 SWAP4 PUSH1 0x20 PUSH1 0x1 DUP2 SWAP3 DUP8 DUP7 ADD MLOAD DUP2 SSTORE ADD SWAP6 ADD SWAP4 ADD PUSH2 0x138E JUMP JUMPDEST ADD MLOAD SWAP1 POP DUP6 DUP1 PUSH2 0x124F JUMP JUMPDEST PUSH1 0x1 DUP5 ADD PUSH1 0x0 MSTORE PUSH1 0x20 PUSH1 0x0 KECCAK256 SWAP1 PUSH1 0x0 JUMPDEST PUSH1 0x1F NOT DUP5 AND DUP2 LT PUSH2 0x144E JUMPI POP PUSH1 0x1 SWAP4 SWAP5 SWAP6 SWAP7 DUP4 PUSH1 0x1F NOT DUP2 AND LT PUSH2 0x1435 JUMPI JUMPDEST POP POP POP DUP2 SHL ADD PUSH1 0x1 DUP4 ADD SSTORE PUSH2 0x1267 JUMP JUMPDEST ADD MLOAD PUSH1 0x0 NOT PUSH1 0xF8 DUP5 PUSH1 0x3 SHL AND SHR NOT AND SWAP1 SSTORE DUP6 DUP1 DUP1 PUSH2 0x1425 JUMP JUMPDEST SWAP1 SWAP2 PUSH1 0x20 PUSH1 0x1 DUP2 SWAP3 DUP6 DUP12 ADD MLOAD DUP2 SSTORE ADD SWAP4 ADD SWAP2 ADD PUSH2 0x1407 JUMP JUMPDEST ADD MLOAD SWAP1 POP DUP6 DUP1 PUSH2 0x11EE JUMP JUMPDEST DUP3 PUSH1 0x0 MSTORE PUSH1 0x20 PUSH1 0x0 KECCAK256 SWAP1 PUSH1 0x0 JUMPDEST PUSH1 0x1F NOT DUP5 AND DUP2 LT PUSH2 0x14C2 JUMPI POP PUSH1 0x1 SWAP4 SWAP5 SWAP6 SWAP7 DUP4 PUSH1 0x1F NOT DUP2 AND LT PUSH2 0x14A9 JUMPI JUMPDEST POP POP POP DUP2 SHL ADD DUP2 SSTORE PUSH2 0x1203 JUMP JUMPDEST ADD MLOAD PUSH1 0x0 NOT PUSH1 0xF8 DUP5 PUSH1 0x3 SHL AND SHR NOT AND SWAP1 SSTORE DUP6 DUP1 DUP1 PUSH2 0x149C JUMP JUMPDEST SWAP1 SWAP2 PUSH1 0x20 PUSH1 0x1 DUP2 SWAP3 DUP6 DUP12 ADD MLOAD DUP2 SSTORE ADD SWAP4 ADD SWAP2 ADD PUSH2 0x147E JUMP JUMPDEST PUSH1 0x40 MLOAD PUSH3 0x461BCD PUSH1 0xE5 SHL DUP2 MSTORE PUSH1 0x20 PUSH1 0x4 DUP3 ADD MSTORE PUSH1 0x15 PUSH1 0x24 DUP3 ADD MSTORE PUSH21 0x456D61696C2063616E6E6F7420626520656D707479 PUSH1 0x58 SHL PUSH1 0x44 DUP3 ADD MSTORE PUSH1 0x64 SWAP1 REVERT JUMPDEST PUSH1 0x40 MLOAD PUSH3 0x461BCD PUSH1 0xE5 SHL DUP2 MSTORE PUSH1 0x20 PUSH1 0x4 DUP3 ADD MSTORE PUSH1 0x17 PUSH1 0x24 DUP3 ADD MSTORE PUSH23 0x155CD95C88185B1C9958591E481C9959DA5CDD195C9959 PUSH1 0x4A SHL PUSH1 0x44 DUP3 ADD MSTORE PUSH1 0x64 SWAP1 REVERT JUMPDEST CALLVALUE PUSH2 0x5F1 JUMPI PUSH1 0x0 CALLDATASIZE PUSH1 0x3 NOT ADD SLT PUSH2 0x5F1 JUMPI PUSH1 0xC SLOAD PUSH1 0x0 DUP1 JUMPDEST DUP3 DUP2 LT PUSH2 0x162C JUMPI POP PUSH2 0x157F SWAP1 PUSH2 0x6385 JUMP JUMPDEST SWAP1 PUSH1 0x0 DUP1 JUMPDEST DUP3 DUP2 LT PUSH2 0x1599 JUMPI PUSH1 0x40 MLOAD DUP1 PUSH2 0x369 DUP7 DUP3 PUSH2 0x5AC3 JUMP JUMPDEST PUSH2 0x15A2 DUP2 PUSH2 0x5A90 JUMP JUMPDEST PUSH1 0x1 DUP1 PUSH1 0xA0 SHL SUB DUP1 SWAP3 SLOAD PUSH1 0x3 SWAP3 DUP4 SHL SHR AND PUSH1 0x0 MSTORE PUSH1 0x13 PUSH1 0x20 MSTORE PUSH1 0xFF PUSH1 0x40 PUSH1 0x0 KECCAK256 SLOAD AND PUSH1 0x4 DUP2 LT ISZERO PUSH2 0x1616 JUMPI PUSH1 0x1 EQ PUSH2 0x15E5 JUMPI JUMPDEST POP POP PUSH2 0x15E0 SWAP1 PUSH2 0x635F JUMP JUMPDEST PUSH2 0x1584 JUMP JUMPDEST SWAP3 PUSH2 0x160E SWAP2 DUP4 SWAP5 PUSH2 0x15F8 PUSH2 0x15E0 SWAP6 PUSH2 0x5A90 JUMP JUMPDEST SWAP1 SLOAD SWAP2 SHL SHR AND PUSH2 0x1608 DUP3 DUP9 PUSH2 0x63B7 JUMP JUMPDEST MSTORE PUSH2 0x635F JUMP JUMPDEST SWAP2 SWAP1 DUP6 PUSH2 0x15D5 JUMP JUMPDEST PUSH4 0x4E487B71 PUSH1 0xE0 SHL PUSH1 0x0 MSTORE PUSH1 0x21 PUSH1 0x4 MSTORE PUSH1 0x24 PUSH1 0x0 REVERT JUMPDEST PUSH2 0x1635 DUP2 PUSH2 0x5A90 JUMP JUMPDEST PUSH1 0x1 DUP1 PUSH1 0xA0 SHL SUB SWAP2 SLOAD SWAP1 PUSH1 0x3 SHL SHR AND PUSH1 0x0 MSTORE PUSH1 0x13 PUSH1 0x20 MSTORE PUSH1 0xFF PUSH1 0x40 PUSH1 0x0 KECCAK256 SLOAD AND PUSH1 0x4 DUP2 LT ISZERO PUSH2 0x1616 JUMPI PUSH1 0x1 EQ PUSH2 0x1674 JUMPI JUMPDEST PUSH2 0x166F SWAP1 PUSH2 0x635F JUMP JUMPDEST PUSH2 0x156E JUMP JUMPDEST SWAP1 PUSH2 0x1681 PUSH2 0x166F SWAP2 PUSH2 0x635F JUMP JUMPDEST SWAP2 SWAP1 POP PUSH2 0x1666 JUMP JUMPDEST CALLVALUE PUSH2 0x5F1 JUMPI PUSH1 0x40 CALLDATASIZE PUSH1 0x3 NOT ADD SLT PUSH2 0x5F1 JUMPI PUSH1 0x24 CALLDATALOAD PUSH1 0x1 PUSH1 0x1 PUSH1 0x40 SHL SUB DUP2 GT PUSH2 0x5F1 JUMPI CALLDATASIZE PUSH1 0x23 DUP3 ADD SLT ISZERO PUSH2 0x5F1 JUMPI PUSH1 0x1 PUSH1 0x1 PUSH1 0x40 SHL SUB PUSH1 0x4 DUP3 ADD CALLDATALOAD GT PUSH2 0x5F1 JUMPI CALLDATASIZE PUSH1 0x24 DUP3 PUSH1 0x4 ADD CALLDATALOAD PUSH1 0x5 SHL DUP4 ADD ADD GT PUSH2 0x5F1 JUMPI PUSH1 0x4 CALLDATALOAD PUSH1 0x0 MSTORE PUSH1 0xE PUSH1 0x20 MSTORE PUSH1 0xFF PUSH1 0x2 PUSH1 0x40 PUSH1 0x0 KECCAK256 ADD SLOAD AND ISZERO PUSH2 0x18F4 JUMPI PUSH1 0x0 JUMPDEST DUP2 PUSH1 0x4 ADD CALLDATALOAD DUP2 LT PUSH2 0x1707 JUMPI STOP JUMPDEST PUSH2 0x1712 PUSH1 0x1E SLOAD PUSH2 0x635F JUMP JUMPDEST DUP1 PUSH1 0x1E SSTORE PUSH2 0x1744 PUSH2 0x172B DUP4 DUP6 PUSH1 0x4 ADD CALLDATALOAD PUSH1 0x24 DUP8 ADD PUSH2 0x88B0 JUMP JUMPDEST SWAP2 SWAP1 PUSH1 0x40 MLOAD SWAP3 PUSH2 0x173A DUP5 PUSH2 0x562C JUMP JUMPDEST DUP5 DUP5 MSTORE CALLDATASIZE SWAP2 PUSH2 0x56D6 JUMP JUMPDEST SWAP2 PUSH1 0x20 DUP3 ADD SWAP3 DUP4 MSTORE PUSH1 0x4 CALLDATALOAD PUSH1 0x40 DUP4 ADD MSTORE PUSH1 0x1 PUSH1 0x60 DUP4 ADD MSTORE PUSH1 0x0 MSTORE PUSH1 0xF PUSH1 0x20 MSTORE PUSH1 0x40 PUSH1 0x0 KECCAK256 SWAP2 DUP2 MLOAD DUP4 SSTORE MLOAD DUP1 MLOAD SWAP1 PUSH1 0x1 DUP1 PUSH1 0x40 SHL SUB DUP3 GT PUSH2 0xD5C JUMPI PUSH2 0x1798 DUP3 PUSH2 0x178F PUSH1 0x1 DUP8 ADD SLOAD PUSH2 0x579C JUMP JUMPDEST PUSH1 0x1 DUP8 ADD PUSH2 0x6205 JUMP JUMPDEST PUSH1 0x20 SWAP1 PUSH1 0x1F DUP4 GT PUSH1 0x1 EQ PUSH2 0x1876 JUMPI PUSH2 0x180A SWAP4 DUP4 PUSH2 0x1866 SWAP8 SWAP7 SWAP5 PUSH2 0x17F0 SWAP5 PUSH1 0x60 SWAP5 PUSH1 0x0 SWAP3 PUSH2 0x186B JUMPI JUMPDEST POP POP DUP2 PUSH1 0x1 SHL SWAP2 PUSH1 0x0 NOT SWAP1 PUSH1 0x3 SHL SHR NOT AND OR PUSH1 0x1 DUP6 ADD SSTORE JUMPDEST PUSH1 0x40 DUP2 ADD MLOAD PUSH1 0x2 DUP6 ADD SSTORE ADD MLOAD ISZERO ISZERO PUSH1 0x3 DUP1 SWAP4 ADD PUSH2 0x6017 JUMP JUMPDEST PUSH1 0x4 CALLDATALOAD PUSH1 0x0 MSTORE PUSH1 0xE PUSH1 0x20 MSTORE PUSH1 0x40 PUSH1 0x0 KECCAK256 ADD PUSH1 0x1E SLOAD SWAP1 PUSH2 0x6A47 JUMP JUMPDEST PUSH1 0x0 DUP1 MLOAD PUSH1 0x20 PUSH2 0x979D DUP4 CODECOPY DUP2 MLOAD SWAP2 MSTORE PUSH1 0x1E SLOAD PUSH2 0x182E DUP4 DUP7 PUSH1 0x4 ADD CALLDATALOAD PUSH1 0x24 DUP9 ADD PUSH2 0x88B0 JUMP JUMPDEST SWAP3 SWAP1 DUP4 PUSH1 0x40 MLOAD SWAP2 PUSH1 0x20 DUP4 MSTORE DUP2 PUSH1 0x20 DUP5 ADD MSTORE PUSH1 0x40 DUP4 ADD CALLDATACOPY PUSH1 0x0 PUSH1 0x40 DUP6 DUP4 ADD ADD MSTORE PUSH1 0x40 DUP2 PUSH1 0x4 CALLDATALOAD SWAP6 PUSH1 0x1F DUP1 NOT SWAP2 ADD AND DUP2 ADD SUB ADD SWAP1 LOG3 PUSH2 0x635F JUMP JUMPDEST PUSH2 0x16FA JUMP JUMPDEST ADD MLOAD SWAP1 POP DUP11 DUP1 PUSH2 0x17C0 JUMP JUMPDEST SWAP1 PUSH1 0x1 DUP6 ADD PUSH1 0x0 MSTORE PUSH1 0x20 PUSH1 0x0 KECCAK256 SWAP2 PUSH1 0x0 JUMPDEST PUSH1 0x1F NOT DUP6 AND DUP2 LT PUSH2 0x18DC JUMPI POP SWAP4 PUSH1 0x1 DUP5 PUSH2 0x17F0 SWAP5 PUSH1 0x60 SWAP5 PUSH2 0x180A SWAP9 PUSH2 0x1866 SWAP12 SWAP11 SWAP9 PUSH1 0x1F NOT DUP2 AND LT PUSH2 0x18C3 JUMPI JUMPDEST POP POP POP DUP2 SHL ADD PUSH1 0x1 DUP6 ADD SSTORE PUSH2 0x17D8 JUMP JUMPDEST ADD MLOAD PUSH1 0x0 NOT PUSH1 0xF8 DUP5 PUSH1 0x3 SHL AND SHR NOT AND SWAP1 SSTORE DUP11 DUP1 DUP1 PUSH2 0x18B3 JUMP JUMPDEST SWAP2 SWAP3 PUSH1 0x20 PUSH1 0x1 DUP2 SWAP3 DUP7 DUP6 ADD MLOAD DUP2 SSTORE ADD SWAP5 ADD SWAP3 ADD PUSH2 0x1887 JUMP JUMPDEST PUSH1 0x40 MLOAD PUSH3 0x461BCD PUSH1 0xE5 SHL DUP2 MSTORE PUSH1 0x20 PUSH1 0x4 DUP3 ADD MSTORE PUSH1 0x1A PUSH1 0x24 DUP3 ADD MSTORE PUSH26 0x506172656E742063617465676F7279206E6F7420616374697665 PUSH1 0x30 SHL PUSH1 0x44 DUP3 ADD MSTORE PUSH1 0x64 SWAP1 REVERT JUMPDEST CALLVALUE PUSH2 0x5F1 JUMPI PUSH1 0x20 CALLDATASIZE PUSH1 0x3 NOT ADD SLT PUSH2 0x5F1 JUMPI PUSH1 0x4 CALLDATALOAD PUSH2 0x1952 PUSH2 0x5C6D JUMP JUMPDEST DUP1 PUSH1 0x0 MSTORE PUSH1 0xE PUSH1 0x20 MSTORE PUSH2 0x196B PUSH1 0x40 PUSH1 0x0 KECCAK256 SLOAD ISZERO ISZERO PUSH2 0x88CB JUMP JUMPDEST DUP1 PUSH1 0x0 MSTORE PUSH1 0xE PUSH1 0x20 MSTORE PUSH1 0x0 DUP1 MLOAD PUSH1 0x20 PUSH2 0x973D DUP4 CODECOPY DUP2 MLOAD SWAP2 MSTORE PUSH2 0x19AE PUSH1 0x40 PUSH1 0x0 KECCAK256 PUSH1 0x2 DUP2 ADD PUSH1 0xFF NOT DUP2 SLOAD AND SWAP1 SSTORE PUSH1 0x40 MLOAD SWAP2 DUP3 SWAP2 PUSH1 0x40 DUP4 MSTORE PUSH1 0x1 PUSH1 0x40 DUP5 ADD SWAP2 ADD PUSH2 0x57D6 JUMP JUMPDEST PUSH1 0x0 PUSH1 0x20 DUP4 ADD MSTORE SUB SWAP1 LOG2 STOP JUMPDEST CALLVALUE PUSH2 0x5F1 JUMPI PUSH1 0x20 CALLDATASIZE PUSH1 0x3 NOT ADD SLT PUSH2 0x5F1 JUMPI PUSH2 0x19DE PUSH2 0x19D9 PUSH1 0x4 CALLDATALOAD PUSH2 0x6028 JUMP JUMPDEST PUSH2 0x5CC5 JUMP JUMPDEST PUSH1 0x0 PUSH1 0x40 MLOAD PUSH2 0x19EC DUP2 PUSH2 0x567D JUMP JUMPDEST MSTORE PUSH2 0x369 PUSH1 0x40 MLOAD PUSH2 0x19FC DUP2 PUSH2 0x567D JUMP JUMPDEST PUSH1 0x0 DUP2 MSTORE PUSH1 0x40 MLOAD SWAP2 DUP3 SWAP2 PUSH1 0x20 DUP4 MSTORE PUSH1 0x20 DUP4 ADD SWAP1 PUSH2 0x52BE JUMP JUMPDEST CALLVALUE PUSH2 0x5F1 JUMPI PUSH1 0x20 CALLDATASIZE PUSH1 0x3 NOT ADD SLT PUSH2 0x5F1 JUMPI PUSH1 0x1 PUSH1 0x1 PUSH1 0xA0 SHL SUB PUSH2 0x1A35 PUSH2 0x55AD JUMP JUMPDEST AND PUSH1 0x0 MSTORE PUSH1 0x16 PUSH1 0x20 MSTORE PUSH1 0x20 PUSH1 0xFF PUSH1 0x40 PUSH1 0x0 KECCAK256 SLOAD AND PUSH1 0x40 MLOAD SWAP1 ISZERO ISZERO DUP2 MSTORE RETURN JUMPDEST CALLVALUE PUSH2 0x5F1 JUMPI PUSH1 0x40 CALLDATASIZE PUSH1 0x3 NOT ADD SLT PUSH2 0x5F1 JUMPI PUSH2 0x1A6C PUSH2 0x55AD JUMP JUMPDEST PUSH1 0x1 PUSH1 0x1 PUSH1 0xA0 SHL SUB AND PUSH1 0x0 SWAP1 DUP2 MSTORE PUSH1 0x11 PUSH1 0x20 MSTORE PUSH1 0x40 SWAP1 KECCAK256 DUP1 SLOAD PUSH1 0x24 CALLDATALOAD SWAP2 SWAP1 DUP3 LT ISZERO PUSH2 0x5F1 JUMPI PUSH1 0x20 SWAP2 PUSH2 0x1A9D SWAP2 PUSH2 0x5AAB JUMP JUMPDEST SWAP1 SLOAD PUSH1 0x40 MLOAD SWAP2 PUSH1 0x3 SHL SHR DUP2 MSTORE RETURN JUMPDEST CALLVALUE PUSH2 0x5F1 JUMPI PUSH1 0x20 DUP1 PUSH1 0x3 NOT CALLDATASIZE ADD SLT PUSH2 0x5F1 JUMPI PUSH1 0x4 CALLDATALOAD PUSH2 0x1AC8 PUSH2 0x6786 JUMP JUMPDEST POP DUP1 PUSH1 0x0 MSTORE PUSH1 0x10 DUP3 MSTORE PUSH2 0x1AE9 PUSH1 0xFF PUSH1 0xF PUSH1 0x40 PUSH1 0x0 KECCAK256 ADD SLOAD PUSH1 0x10 SHR AND ISZERO PUSH2 0x79C7 JUMP JUMPDEST DUP1 PUSH1 0x0 MSTORE PUSH1 0x17 DUP3 MSTORE PUSH2 0x1B02 PUSH1 0xFF PUSH1 0x40 PUSH1 0x0 KECCAK256 SLOAD AND PUSH2 0x7982 JUMP JUMPDEST PUSH1 0x0 MSTORE PUSH1 0x10 DUP2 MSTORE PUSH1 0x40 PUSH1 0x0 KECCAK256 SWAP1 PUSH1 0x40 MLOAD SWAP2 PUSH2 0x1B1C DUP4 PUSH2 0x55D9 JUMP JUMPDEST DUP1 SLOAD DUP4 MSTORE PUSH1 0x1 DUP1 DUP3 ADD SLOAD PUSH1 0x1 PUSH1 0x1 PUSH1 0xA0 SHL SUB AND DUP4 DUP6 ADD MSTORE PUSH1 0x40 MLOAD PUSH2 0x1B47 DUP2 PUSH2 0x3DA DUP2 PUSH1 0x2 DUP8 ADD PUSH2 0x57D6 JUMP JUMPDEST PUSH1 0x40 DUP6 ADD MSTORE PUSH1 0x40 MLOAD PUSH2 0x1B60 DUP2 PUSH2 0x3DA DUP2 PUSH1 0x3 DUP8 ADD PUSH2 0x57D6 JUMP JUMPDEST PUSH1 0x60 DUP6 ADD MSTORE PUSH1 0x4 DUP3 ADD SLOAD PUSH1 0x80 DUP6 ADD MSTORE PUSH1 0x5 DUP3 ADD SLOAD PUSH1 0xA0 DUP6 ADD MSTORE PUSH1 0x10 PUSH1 0x6 SWAP3 PUSH2 0x1B89 DUP5 DUP3 ADD PUSH2 0x8703 JUMP JUMPDEST PUSH1 0xC0 DUP8 ADD MSTORE PUSH2 0x1B9A PUSH1 0x7 DUP3 ADD PUSH2 0x8703 JUMP JUMPDEST PUSH1 0xE0 DUP8 ADD MSTORE PUSH2 0x1BAB PUSH1 0x8 DUP3 ADD PUSH2 0x8703 JUMP JUMPDEST PUSH2 0x100 DUP8 ADD MSTORE PUSH1 0x40 MLOAD PUSH2 0x1BC5 DUP2 PUSH2 0x3DA DUP2 PUSH1 0x9 DUP7 ADD PUSH2 0x57D6 JUMP JUMPDEST PUSH2 0x120 DUP8 ADD MSTORE PUSH1 0x40 MLOAD PUSH2 0x1BDF DUP2 PUSH2 0x3DA DUP2 PUSH1 0xA DUP7 ADD PUSH2 0x57D6 JUMP JUMPDEST PUSH2 0x140 DUP8 ADD MSTORE PUSH1 0xB DUP2 ADD SLOAD PUSH2 0x160 DUP8 ADD MSTORE PUSH1 0x40 MLOAD PUSH2 0x1C04 DUP2 PUSH2 0x3DA DUP2 PUSH1 0xC DUP7 ADD PUSH2 0x57D6 JUMP JUMPDEST PUSH2 0x180 DUP8 ADD MSTORE PUSH1 0x40 MLOAD PUSH2 0x1C1E DUP2 PUSH2 0x3DA DUP2 PUSH1 0xD DUP7 ADD PUSH2 0x57D6 JUMP JUMPDEST PUSH2 0x1A0 DUP8 ADD MSTORE PUSH1 0xE DUP2 ADD SLOAD PUSH2 0x1C0 DUP8 ADD MSTORE PUSH1 0xFF PUSH1 0xF DUP3 ADD SLOAD DUP2 DUP2 AND ISZERO ISZERO PUSH2 0x1E0 DUP10 ADD MSTORE DUP2 DUP2 PUSH1 0x8 SHR AND ISZERO ISZERO PUSH2 0x200 DUP10 ADD MSTORE DUP4 SHR AND ISZERO ISZERO PUSH2 0x220 DUP8 ADD MSTORE ADD SWAP2 DUP3 SLOAD SWAP1 PUSH2 0x1C68 DUP3 PUSH2 0x636E JUMP JUMPDEST SWAP4 PUSH2 0x1C76 PUSH1 0x40 MLOAD SWAP6 DUP7 PUSH2 0x5698 JUMP JUMPDEST DUP3 DUP6 MSTORE PUSH1 0x0 SWAP1 DUP2 MSTORE DUP6 DUP2 KECCAK256 DUP7 DUP1 DUP8 ADD JUMPDEST DUP6 DUP5 LT PUSH2 0x1CA8 JUMPI PUSH2 0x240 DUP11 ADD DUP9 SWAP1 MSTORE PUSH1 0x40 MLOAD DUP3 DUP2 MSTORE DUP1 PUSH2 0x369 DUP2 DUP6 ADD DUP14 PUSH2 0x53FB JUMP JUMPDEST DUP7 SWAP2 DUP6 SWAP2 PUSH2 0x1CB5 DUP6 PUSH2 0x8768 JUMP JUMPDEST DUP2 MSTORE ADD SWAP3 ADD SWAP3 ADD SWAP2 SWAP1 DUP8 SWAP1 PUSH2 0x1C86 JUMP JUMPDEST CALLVALUE PUSH2 0x5F1 JUMPI PUSH1 0x20 CALLDATASIZE PUSH1 0x3 NOT ADD SLT PUSH2 0x5F1 JUMPI PUSH1 0x20 PUSH1 0x1 PUSH1 0x1 PUSH1 0xA0 SHL SUB DUP1 PUSH2 0x1CE9 PUSH2 0x55AD JUMP JUMPDEST AND PUSH1 0x0 MSTORE PUSH1 0x19 DUP3 MSTORE PUSH1 0x40 PUSH1 0x0 KECCAK256 SLOAD AND PUSH1 0x40 MLOAD SWAP1 DUP2 MSTORE RETURN JUMPDEST CALLVALUE PUSH2 0x5F1 JUMPI PUSH1 0x80 CALLDATASIZE PUSH1 0x3 NOT ADD SLT PUSH2 0x5F1 JUMPI PUSH2 0x1D19 PUSH2 0x55AD JUMP JUMPDEST PUSH2 0x1D21 PUSH2 0x55C3 JUMP JUMPDEST PUSH1 0x64 CALLDATALOAD SWAP2 PUSH1 0x1 PUSH1 0x1 PUSH1 0x40 SHL SUB DUP4 GT PUSH2 0x5F1 JUMPI CALLDATASIZE PUSH1 0x23 DUP5 ADD SLT ISZERO PUSH2 0x5F1 JUMPI PUSH2 0x1D55 PUSH2 0x781 SWAP4 CALLDATASIZE SWAP1 PUSH1 0x24 DUP2 PUSH1 0x4 ADD CALLDATALOAD SWAP2 ADD PUSH2 0x56D6 JUMP JUMPDEST SWAP2 PUSH1 0x44 CALLDATALOAD SWAP2 PUSH2 0x5DB8 JUMP JUMPDEST CALLVALUE PUSH2 0x5F1 JUMPI PUSH1 0x20 DUP1 PUSH1 0x3 NOT CALLDATASIZE ADD SLT PUSH2 0x5F1 JUMPI PUSH1 0x1 PUSH1 0x1 PUSH1 0xA0 SHL SUB SWAP1 DUP2 PUSH2 0x1D83 PUSH2 0x55AD JUMP JUMPDEST AND PUSH1 0x0 MSTORE PUSH1 0x14 DUP2 MSTORE PUSH1 0x40 PUSH1 0x0 KECCAK256 DUP1 SLOAD SWAP1 PUSH2 0x1D9C DUP3 PUSH2 0x636E JUMP JUMPDEST SWAP3 PUSH2 0x1DAA PUSH1 0x40 MLOAD SWAP5 DUP6 PUSH2 0x5698 JUMP JUMPDEST DUP3 DUP5 MSTORE PUSH1 0x0 SWAP2 DUP3 MSTORE DUP1 DUP3 KECCAK256 DUP2 DUP6 ADD JUMPDEST DUP5 DUP5 LT PUSH2 0x1DCE JUMPI PUSH1 0x40 MLOAD DUP1 PUSH2 0x369 DUP9 DUP3 PUSH2 0x5914 JUMP JUMPDEST PUSH1 0xE DUP4 PUSH1 0x1 SWAP3 PUSH1 0x40 MLOAD PUSH2 0x1DE0 DUP2 PUSH2 0x55F5 JUMP JUMPDEST DUP6 SLOAD DUP2 MSTORE DUP5 DUP7 ADD SLOAD DUP4 DUP3 ADD MSTORE PUSH1 0x2 DUP7 ADD SLOAD PUSH1 0x40 DUP3 ADD MSTORE PUSH1 0x3 DUP7 ADD SLOAD PUSH1 0x60 DUP3 ADD MSTORE DUP11 PUSH1 0x4 DUP8 ADD SLOAD AND PUSH1 0x80 DUP3 ADD MSTORE PUSH1 0xFF PUSH1 0x5 DUP8 ADD SLOAD PUSH1 0xA0 DUP14 DUP3 AND DUP2 DUP6 ADD MSTORE SHR AND ISZERO ISZERO PUSH1 0xC0 DUP3 ADD MSTORE PUSH2 0x1E31 PUSH1 0x6 DUP8 ADD PUSH2 0x5B23 JUMP JUMPDEST PUSH1 0xE0 DUP3 ADD MSTORE DUP2 MSTORE ADD SWAP3 ADD SWAP4 ADD SWAP3 SWAP1 PUSH2 0x1DB9 JUMP JUMPDEST CALLVALUE PUSH2 0x5F1 JUMPI PUSH1 0x20 CALLDATASIZE PUSH1 0x3 NOT ADD SLT PUSH2 0x5F1 JUMPI PUSH1 0x4 CALLDATALOAD PUSH1 0x0 MSTORE PUSH1 0x17 PUSH1 0x20 MSTORE PUSH1 0x20 PUSH1 0xFF PUSH1 0x40 PUSH1 0x0 KECCAK256 SLOAD AND PUSH1 0x40 MLOAD SWAP1 ISZERO ISZERO DUP2 MSTORE RETURN JUMPDEST CALLVALUE PUSH2 0x5F1 JUMPI PUSH1 0x20 DUP1 PUSH1 0x3 NOT CALLDATASIZE ADD SLT PUSH2 0x5F1 JUMPI PUSH2 0x1FAD SWAP1 PUSH2 0x369 PUSH2 0x1E96 PUSH2 0x55AD JUMP JUMPDEST PUSH2 0x1E9E PUSH2 0x62ED JUMP JUMPDEST POP PUSH1 0x1 DUP1 PUSH1 0xA0 SHL SUB AND SWAP2 DUP3 PUSH1 0x0 MSTORE PUSH1 0x16 DUP2 MSTORE PUSH2 0x1EC1 PUSH1 0xFF PUSH1 0x40 PUSH1 0x0 KECCAK256 SLOAD AND PUSH2 0x62A9 JUMP JUMPDEST DUP3 PUSH1 0x0 MSTORE PUSH1 0xD DUP2 MSTORE PUSH1 0x40 PUSH1 0x0 KECCAK256 SWAP3 PUSH1 0xFF PUSH1 0x6 PUSH1 0x40 MLOAD SWAP6 PUSH2 0x1EE0 DUP8 PUSH2 0x5611 JUMP JUMPDEST PUSH1 0x40 MLOAD PUSH2 0x1EF1 DUP2 PUSH2 0x3DA DUP2 DUP6 PUSH2 0x57D6 JUMP JUMPDEST DUP8 MSTORE PUSH1 0x40 MLOAD PUSH2 0x1F07 DUP2 PUSH2 0x3DA DUP2 PUSH1 0x1 DUP7 ADD PUSH2 0x57D6 JUMP JUMPDEST DUP6 DUP9 ADD MSTORE PUSH1 0x40 MLOAD PUSH2 0x1F1F DUP2 PUSH2 0x3DA DUP2 PUSH1 0x2 DUP7 ADD PUSH2 0x57D6 JUMP JUMPDEST PUSH1 0x40 DUP9 ADD MSTORE PUSH1 0x40 MLOAD PUSH2 0x1F38 DUP2 PUSH2 0x3DA DUP2 PUSH1 0x3 DUP7 ADD PUSH2 0x57D6 JUMP JUMPDEST PUSH1 0x60 DUP9 ADD MSTORE PUSH1 0x40 MLOAD PUSH2 0x1F51 DUP2 PUSH2 0x3DA DUP2 PUSH1 0x4 DUP7 ADD PUSH2 0x57D6 JUMP JUMPDEST PUSH1 0x80 DUP9 ADD MSTORE PUSH1 0x5 DUP2 ADD SLOAD PUSH1 0xA0 DUP9 ADD MSTORE ADD SLOAD AND ISZERO ISZERO PUSH1 0xC0 DUP6 ADD MSTORE PUSH1 0x0 MSTORE PUSH1 0x13 DUP2 MSTORE PUSH1 0xFF PUSH1 0x40 PUSH1 0x0 KECCAK256 SLOAD AND PUSH1 0x12 DUP3 MSTORE PUSH1 0x40 PUSH1 0x0 KECCAK256 SLOAD PUSH1 0x11 DUP4 MSTORE PUSH2 0x1FB6 PUSH2 0x1F98 PUSH1 0x40 PUSH1 0x0 KECCAK256 PUSH2 0x897A JUMP JUMPDEST SWAP3 PUSH1 0x40 MLOAD SWAP8 DUP9 SWAP8 PUSH1 0x80 DUP10 MSTORE PUSH1 0x80 DUP10 ADD SWAP1 PUSH2 0x59D2 JUMP JUMPDEST SWAP5 DUP8 ADD SWAP1 PUSH2 0x5A52 JUMP JUMPDEST PUSH1 0x40 DUP6 ADD MSTORE DUP4 DUP3 SUB PUSH1 0x60 DUP6 ADD MSTORE PUSH2 0x5C39 JUMP JUMPDEST CALLVALUE PUSH2 0x5F1 JUMPI PUSH1 0x20 CALLDATASIZE PUSH1 0x3 NOT ADD SLT PUSH2 0x5F1 JUMPI PUSH2 0x1FE1 PUSH2 0x55AD JUMP JUMPDEST PUSH2 0x1FE9 PUSH2 0x5C6D JUMP JUMPDEST PUSH1 0x1 PUSH1 0x1 PUSH1 0xA0 SHL SUB AND DUP1 ISZERO PUSH2 0x2034 JUMPI PUSH1 0x40 PUSH1 0x0 DUP1 MLOAD PUSH1 0x20 PUSH2 0x96FD DUP4 CODECOPY DUP2 MLOAD SWAP2 MSTORE SWAP2 CALLER PUSH1 0x0 MSTORE PUSH1 0x19 PUSH1 0x20 MSTORE DUP2 PUSH1 0x0 KECCAK256 DUP2 PUSH1 0x1 DUP1 PUSH1 0xA0 SHL SUB NOT DUP3 SLOAD AND OR SWAP1 SSTORE DUP2 MLOAD SWAP1 CALLER DUP3 MSTORE PUSH1 0x20 DUP3 ADD MSTORE LOG1 STOP JUMPDEST PUSH1 0x40 MLOAD PUSH3 0x461BCD PUSH1 0xE5 SHL DUP2 MSTORE PUSH1 0x20 PUSH1 0x4 DUP3 ADD MSTORE PUSH1 0x17 PUSH1 0x24 DUP3 ADD MSTORE PUSH23 0x496E76616C6964206163636F756E742061646472657373 PUSH1 0x48 SHL PUSH1 0x44 DUP3 ADD MSTORE PUSH1 0x64 SWAP1 REVERT JUMPDEST CALLVALUE PUSH2 0x5F1 JUMPI PUSH1 0x40 CALLDATASIZE PUSH1 0x3 NOT ADD SLT PUSH2 0x5F1 JUMPI PUSH2 0x208C PUSH2 0x55AD JUMP JUMPDEST PUSH1 0x24 CALLDATALOAD SWAP1 DUP2 ISZERO ISZERO SWAP1 DUP2 DUP4 SUB PUSH2 0x5F1 JUMPI PUSH1 0x1 PUSH1 0x1 PUSH1 0xA0 SHL SUB AND SWAP2 CALLER DUP4 EQ PUSH2 0x20FD JUMPI PUSH2 0x20CF SWAP1 CALLER PUSH1 0x0 MSTORE PUSH1 0x7 PUSH1 0x20 MSTORE PUSH1 0x40 PUSH1 0x0 KECCAK256 DUP5 PUSH1 0x0 MSTORE PUSH1 0x20 MSTORE PUSH1 0x40 PUSH1 0x0 KECCAK256 PUSH2 0x6017 JUMP JUMPDEST PUSH1 0x40 MLOAD SWAP1 DUP2 MSTORE PUSH32 0x17307EAB39AB6107E8899845AD3D59BD9653F200F220920489CA2B5937696C31 PUSH1 0x20 CALLER SWAP3 LOG3 STOP JUMPDEST PUSH1 0x40 MLOAD PUSH3 0x461BCD PUSH1 0xE5 SHL DUP2 MSTORE PUSH1 0x20 PUSH1 0x4 DUP3 ADD MSTORE PUSH1 0x19 PUSH1 0x24 DUP3 ADD MSTORE PUSH25 0x22A9219B99189D1030B8383937BB32903A379031B0B63632B9 PUSH1 0x39 SHL PUSH1 0x44 DUP3 ADD MSTORE PUSH1 0x64 SWAP1 REVERT JUMPDEST CALLVALUE PUSH2 0x5F1 JUMPI PUSH1 0x40 CALLDATASIZE PUSH1 0x3 NOT ADD SLT PUSH2 0x5F1 JUMPI PUSH2 0x2157 PUSH2 0x55AD JUMP JUMPDEST PUSH1 0x1 PUSH1 0x1 PUSH1 0xA0 SHL SUB SWAP1 DUP2 AND PUSH1 0x0 SWAP1 DUP2 MSTORE PUSH1 0x14 PUSH1 0x20 MSTORE PUSH1 0x40 SWAP1 KECCAK256 DUP1 SLOAD PUSH1 0x24 CALLDATALOAD SWAP1 DUP2 LT ISZERO PUSH2 0x5F1 JUMPI PUSH2 0xB14 SWAP2 PUSH2 0x5B07 JUMP JUMPDEST CALLVALUE PUSH2 0x5F1 JUMPI PUSH1 0x20 DUP1 PUSH1 0x3 NOT CALLDATASIZE ADD SLT PUSH2 0x5F1 JUMPI PUSH1 0x4 CALLDATALOAD DUP1 PUSH1 0x0 MSTORE PUSH1 0x10 SWAP2 DUP3 DUP2 MSTORE PUSH1 0xFF PUSH2 0x21BD DUP2 PUSH1 0xF PUSH1 0x40 PUSH1 0x0 KECCAK256 ADD SLOAD DUP7 SHR AND ISZERO PUSH2 0x79C7 JUMP JUMPDEST DUP3 PUSH1 0x0 MSTORE PUSH1 0x17 DUP3 MSTORE PUSH2 0x21D5 DUP2 PUSH1 0x40 PUSH1 0x0 KECCAK256 SLOAD AND PUSH2 0x7982 JUMP JUMPDEST PUSH1 0x0 SWAP2 PUSH1 0x0 JUMPDEST DUP5 PUSH1 0x0 MSTORE DUP6 DUP3 MSTORE DUP6 PUSH1 0x40 PUSH1 0x0 KECCAK256 ADD DUP1 SLOAD DUP3 LT ISZERO PUSH2 0x222C JUMPI PUSH1 0x4 PUSH2 0x21FF DUP4 DUP7 SWAP4 PUSH2 0x8A24 JUMP JUMPDEST POP ADD SLOAD AND ISZERO PUSH2 0x2217 JUMPI JUMPDEST PUSH2 0x2212 SWAP1 PUSH2 0x635F JUMP JUMPDEST PUSH2 0x21DB JUMP JUMPDEST SWAP3 PUSH2 0x2224 PUSH2 0x2212 SWAP2 PUSH2 0x635F JUMP JUMPDEST SWAP4 SWAP1 POP PUSH2 0x2209 JUMP JUMPDEST POP POP DUP4 DUP6 PUSH2 0x2239 DUP6 PUSH2 0x636E JUMP JUMPDEST SWAP5 PUSH2 0x2247 PUSH1 0x40 MLOAD SWAP7 DUP8 PUSH2 0x5698 JUMP JUMPDEST DUP1 DUP7 MSTORE PUSH2 0x2256 PUSH1 0x1F NOT SWAP2 PUSH2 0x636E JUMP JUMPDEST ADD DUP4 PUSH1 0x0 JUMPDEST DUP3 DUP2 LT PUSH2 0x22FF JUMPI POP POP POP PUSH1 0x0 SWAP2 PUSH1 0x0 JUMPDEST DUP2 PUSH1 0x0 MSTORE DUP3 DUP6 MSTORE DUP3 PUSH1 0x40 PUSH1 0x0 KECCAK256 ADD DUP1 SLOAD DUP3 LT ISZERO PUSH2 0x22EC JUMPI PUSH1 0x4 PUSH2 0x228F DUP4 DUP10 SWAP4 PUSH2 0x8A24 JUMP JUMPDEST POP ADD SLOAD AND ISZERO PUSH2 0x22A7 JUMPI JUMPDEST PUSH2 0x22A2 SWAP1 PUSH2 0x635F JUMP JUMPDEST PUSH2 0x226B JUMP JUMPDEST SWAP3 PUSH2 0x22E4 PUSH2 0x22A2 SWAP2 DUP4 PUSH1 0x0 MSTORE DUP5 DUP8 MSTORE PUSH2 0x22CF PUSH2 0x22C9 DUP8 DUP8 PUSH1 0x40 PUSH1 0x0 KECCAK256 ADD PUSH2 0x8A24 JUMP JUMPDEST POP PUSH2 0x8768 JUMP JUMPDEST PUSH2 0x22D9 DUP3 DUP12 PUSH2 0x63B7 JUMP JUMPDEST MSTORE PUSH2 0x54E DUP2 DUP11 PUSH2 0x63B7 JUMP JUMPDEST SWAP4 SWAP1 POP PUSH2 0x2299 JUMP JUMPDEST PUSH1 0x40 MLOAD DUP7 DUP2 MSTORE DUP1 PUSH2 0x369 DUP2 DUP10 ADD DUP12 PUSH2 0x535A JUMP JUMPDEST PUSH2 0x2307 PUSH2 0x89F3 JUMP JUMPDEST DUP3 DUP3 DUP11 ADD ADD MSTORE ADD DUP5 SWAP1 PUSH2 0x225B JUMP JUMPDEST CALLVALUE PUSH2 0x5F1 JUMPI PUSH1 0x40 CALLDATASIZE PUSH1 0x3 NOT ADD SLT PUSH2 0x5F1 JUMPI PUSH2 0x232E PUSH2 0x55AD JUMP JUMPDEST PUSH1 0x24 CALLDATALOAD SWAP1 PUSH1 0x4 DUP3 LT ISZERO PUSH2 0x5F1 JUMPI PUSH2 0x2343 PUSH2 0x5C6D JUMP JUMPDEST PUSH1 0x1 PUSH1 0x1 PUSH1 0xA0 SHL SUB AND SWAP1 PUSH2 0x2358 DUP3 ISZERO ISZERO PUSH2 0x6264 JUMP JUMPDEST DUP2 PUSH1 0x0 MSTORE PUSH1 0x20 SWAP1 PUSH1 0x16 DUP3 MSTORE PUSH2 0x2374 PUSH1 0xFF PUSH1 0x40 PUSH1 0x0 KECCAK256 SLOAD AND PUSH2 0x62A9 JUMP JUMPDEST DUP3 PUSH1 0x0 MSTORE PUSH1 0x13 DUP3 MSTORE PUSH1 0xFF PUSH1 0x40 PUSH1 0x0 KECCAK256 SLOAD AND PUSH1 0x4 DUP2 LT ISZERO PUSH2 0x1616 JUMPI DUP2 EQ PUSH2 0x244C JUMPI PUSH1 0x2 DUP2 EQ PUSH2 0x23E6 JUMPI JUMPDEST SWAP1 PUSH32 0xD8F7BCB2C5CFFC294A0AAEF719685993D7BE95273FB8254803A1563510CCEFED SWAP2 DUP4 PUSH1 0x0 MSTORE PUSH1 0x13 DUP3 MSTORE PUSH2 0x23D6 DUP2 PUSH1 0x40 PUSH1 0x0 KECCAK256 PUSH2 0x624C JUMP JUMPDEST PUSH2 0x23E3 PUSH1 0x40 MLOAD DUP1 SWAP3 PUSH2 0x5A52 JUMP JUMPDEST LOG2 STOP JUMPDEST DUP3 PUSH1 0x0 MSTORE PUSH1 0x13 DUP3 MSTORE PUSH1 0xFF PUSH1 0x40 PUSH1 0x0 KECCAK256 SLOAD AND PUSH1 0x4 DUP2 LT ISZERO PUSH2 0x1616 JUMPI PUSH1 0x1 EQ PUSH2 0x239D JUMPI PUSH1 0x40 MLOAD PUSH3 0x461BCD PUSH1 0xE5 SHL DUP2 MSTORE PUSH1 0x4 DUP2 ADD DUP4 SWAP1 MSTORE PUSH1 0x1F PUSH1 0x24 DUP3 ADD MSTORE PUSH32 0x43616E206F6E6C79207665726966792070656E64696E672073656C6C65727300 PUSH1 0x44 DUP3 ADD MSTORE PUSH1 0x64 SWAP1 REVERT JUMPDEST PUSH1 0x40 MLOAD PUSH3 0x461BCD PUSH1 0xE5 SHL DUP2 MSTORE PUSH1 0x4 DUP2 ADD DUP4 SWAP1 MSTORE PUSH1 0x12 PUSH1 0x24 DUP3 ADD MSTORE PUSH18 0x14DD185D1D5CC8185B1C9958591E481CD95D PUSH1 0x72 SHL PUSH1 0x44 DUP3 ADD MSTORE PUSH1 0x64 SWAP1 REVERT JUMPDEST CALLVALUE PUSH2 0x5F1 JUMPI PUSH1 0x0 CALLDATASIZE PUSH1 0x3 NOT ADD SLT PUSH2 0x5F1 JUMPI PUSH1 0x40 MLOAD PUSH1 0x0 SWAP1 PUSH1 0x3 SLOAD PUSH2 0x24A9 DUP2 PUSH2 0x579C JUMP JUMPDEST DUP1 DUP4 MSTORE PUSH1 0x1 SWAP2 DUP1 DUP4 AND SWAP1 DUP2 ISZERO PUSH2 0x2540 JUMPI POP PUSH1 0x1 EQ PUSH2 0x24E6 JUMPI JUMPDEST PUSH2 0x369 DUP4 PUSH2 0x24D2 DUP2 DUP8 SUB DUP3 PUSH2 0x5698 JUMP JUMPDEST PUSH1 0x40 MLOAD SWAP2 DUP3 SWAP2 PUSH1 0x20 DUP4 MSTORE PUSH1 0x20 DUP4 ADD SWAP1 PUSH2 0x52BE JUMP JUMPDEST PUSH1 0x3 PUSH1 0x0 SWAP1 DUP2 MSTORE PUSH1 0x20 SWAP5 POP SWAP2 PUSH32 0xC2575A0E9E593C00F959F8C92F12DB2869C3395A3B0502D05E2516446F71F85B JUMPDEST DUP3 DUP5 LT PUSH2 0x252D JUMPI POP POP POP DUP2 ADD SWAP1 SWAP2 ADD SWAP1 PUSH2 0x24D2 DUP2 PUSH2 0x24C2 JUMP JUMPDEST DUP1 SLOAD DUP6 DUP6 ADD DUP8 ADD MSTORE SWAP3 DUP6 ADD SWAP3 DUP2 ADD PUSH2 0x2514 JUMP JUMPDEST PUSH2 0x369 SWAP6 POP PUSH2 0x24D2 SWAP4 POP PUSH1 0x20 SWAP2 POP SWAP2 DUP5 SWAP3 PUSH1 0xFF NOT AND DUP3 DUP5 ADD MSTORE ISZERO ISZERO PUSH1 0x5 SHL DUP3 ADD ADD SWAP4 POP PUSH2 0x24C2 JUMP JUMPDEST CALLVALUE PUSH2 0x5F1 JUMPI PUSH1 0x20 CALLDATASIZE PUSH1 0x3 NOT ADD SLT PUSH2 0x5F1 JUMPI PUSH1 0x1 PUSH1 0x1 PUSH1 0xA0 SHL SUB PUSH2 0x2589 PUSH2 0x55AD JUMP JUMPDEST AND PUSH1 0x0 MSTORE PUSH1 0xD PUSH1 0x20 MSTORE PUSH2 0x2639 PUSH1 0x40 PUSH1 0x0 KECCAK256 PUSH1 0x40 MLOAD SWAP1 PUSH2 0x25B3 DUP3 PUSH2 0x25AC DUP2 DUP5 PUSH2 0x57D6 JUMP JUMPDEST SUB DUP4 PUSH2 0x5698 JUMP JUMPDEST PUSH1 0x40 MLOAD PUSH2 0x25C7 DUP2 PUSH2 0x3DA DUP2 PUSH1 0x1 DUP7 ADD PUSH2 0x57D6 JUMP JUMPDEST PUSH2 0x2671 PUSH1 0x40 MLOAD PUSH2 0x25DE DUP2 PUSH2 0x3DA DUP2 PUSH1 0x2 DUP9 ADD PUSH2 0x57D6 JUMP JUMPDEST PUSH2 0x2663 PUSH1 0x40 MLOAD PUSH2 0x25F5 DUP2 PUSH2 0x3DA DUP2 PUSH1 0x3 DUP11 ADD PUSH2 0x57D6 JUMP JUMPDEST PUSH2 0x2655 PUSH1 0x40 MLOAD SWAP4 PUSH2 0x2614 DUP6 PUSH2 0x260D DUP2 PUSH1 0x4 DUP13 ADD PUSH2 0x57D6 JUMP JUMPDEST SUB DUP7 PUSH2 0x5698 JUMP JUMPDEST PUSH2 0x2647 PUSH1 0xFF PUSH1 0x6 PUSH1 0x5 DUP12 ADD SLOAD SWAP11 ADD SLOAD AND SWAP8 PUSH1 0x40 MLOAD SWAP12 DUP13 SWAP12 PUSH1 0xE0 DUP14 MSTORE PUSH1 0xE0 DUP14 ADD SWAP1 PUSH2 0x52BE JUMP JUMPDEST SWAP1 DUP12 DUP3 SUB PUSH1 0x20 DUP14 ADD MSTORE PUSH2 0x52BE JUMP JUMPDEST SWAP1 DUP10 DUP3 SUB PUSH1 0x40 DUP12 ADD MSTORE PUSH2 0x52BE JUMP JUMPDEST SWAP1 DUP8 DUP3 SUB PUSH1 0x60 DUP10 ADD MSTORE PUSH2 0x52BE JUMP JUMPDEST SWAP1 DUP6 DUP3 SUB PUSH1 0x80 DUP8 ADD MSTORE PUSH2 0x52BE JUMP JUMPDEST SWAP2 PUSH1 0xA0 DUP5 ADD MSTORE ISZERO ISZERO PUSH1 0xC0 DUP4 ADD MSTORE SUB SWAP1 RETURN JUMPDEST CALLVALUE PUSH2 0x5F1 JUMPI PUSH1 0x20 CALLDATASIZE PUSH1 0x3 NOT ADD SLT PUSH2 0x5F1 JUMPI PUSH1 0x4 CALLDATALOAD PUSH1 0x1 PUSH1 0x1 PUSH1 0x40 SHL SUB DUP2 GT PUSH2 0x5F1 JUMPI PUSH2 0x26B2 SWAP1 CALLDATASIZE SWAP1 PUSH1 0x4 ADD PUSH2 0x570D JUMP JUMPDEST PUSH1 0x8 SLOAD PUSH1 0x0 PUSH1 0x1 JUMPDEST DUP3 DUP2 GT ISZERO PUSH2 0x2923 JUMPI POP PUSH2 0x26CC SWAP1 PUSH2 0x87C9 JUMP JUMPDEST SWAP1 PUSH1 0x1 PUSH1 0x0 JUMPDEST DUP3 DUP3 GT ISZERO PUSH2 0x26E8 JUMPI PUSH1 0x40 MLOAD DUP1 PUSH2 0x369 DUP7 DUP3 PUSH2 0x554B JUMP JUMPDEST DUP2 PUSH1 0x0 MSTORE PUSH1 0x10 DUP1 PUSH1 0x20 MSTORE PUSH1 0x9 SWAP1 PUSH2 0x3DA PUSH2 0x270E DUP4 PUSH1 0x40 PUSH1 0x0 KECCAK256 ADD PUSH1 0x40 MLOAD SWAP3 DUP4 DUP1 SWAP3 PUSH2 0x57D6 JUMP JUMPDEST PUSH1 0x20 DUP2 MLOAD SWAP2 ADD KECCAK256 DUP8 MLOAD PUSH1 0x20 DUP10 ADD KECCAK256 EQ DUP1 PUSH2 0x2906 JUMPI JUMPDEST PUSH2 0x273A JUMPI JUMPDEST POP POP SWAP1 PUSH2 0x2734 SWAP1 PUSH2 0x635F JUMP JUMPDEST SWAP1 PUSH2 0x26D2 JUMP JUMPDEST DUP4 PUSH1 0x0 MSTORE DUP1 PUSH1 0x20 MSTORE PUSH1 0x40 PUSH1 0x0 KECCAK256 PUSH2 0x3DA PUSH2 0x27F9 PUSH1 0x40 MLOAD SWAP5 PUSH2 0x275A DUP7 PUSH2 0x55D9 JUMP JUMPDEST DUP4 SLOAD DUP7 MSTORE PUSH1 0x1 DUP5 ADD SLOAD PUSH1 0x1 PUSH1 0x1 PUSH1 0xA0 SHL SUB AND PUSH1 0x20 DUP8 ADD MSTORE PUSH1 0x40 MLOAD PUSH2 0x2785 DUP2 PUSH2 0x3DA DUP2 PUSH1 0x2 DUP10 ADD PUSH2 0x57D6 JUMP JUMPDEST PUSH1 0x40 DUP8 ADD MSTORE PUSH1 0x40 MLOAD PUSH2 0x279E DUP2 PUSH2 0x3DA DUP2 PUSH1 0x3 DUP10 ADD PUSH2 0x57D6 JUMP JUMPDEST PUSH1 0x60 DUP8 ADD MSTORE PUSH1 0x4 DUP5 ADD SLOAD PUSH1 0x80 DUP8 ADD MSTORE PUSH1 0x5 DUP5 ADD SLOAD PUSH1 0xA0 DUP8 ADD MSTORE PUSH2 0x27C3 PUSH1 0x6 DUP6 ADD PUSH2 0x8703 JUMP JUMPDEST PUSH1 0xC0 DUP8 ADD MSTORE PUSH2 0x27D4 PUSH1 0x7 DUP6 ADD PUSH2 0x8703 JUMP JUMPDEST PUSH1 0xE0 DUP8 ADD MSTORE PUSH2 0x27E5 PUSH1 0x8 DUP6 ADD PUSH2 0x8703 JUMP JUMPDEST PUSH2 0x100 DUP8 ADD MSTORE PUSH1 0x40 MLOAD SWAP3 DUP4 DUP1 SWAP3 DUP7 ADD PUSH2 0x57D6 JUMP JUMPDEST PUSH2 0x120 DUP5 ADD MSTORE PUSH1 0x40 MLOAD PUSH2 0x2813 DUP2 PUSH2 0x3DA DUP2 PUSH1 0xA DUP7 ADD PUSH2 0x57D6 JUMP JUMPDEST PUSH2 0x140 DUP5 ADD MSTORE PUSH1 0xB DUP2 ADD SLOAD PUSH2 0x160 DUP5 ADD MSTORE PUSH1 0x40 MLOAD PUSH2 0x2838 DUP2 PUSH2 0x3DA DUP2 PUSH1 0xC DUP7 ADD PUSH2 0x57D6 JUMP JUMPDEST PUSH2 0x180 DUP5 ADD MSTORE PUSH1 0x40 MLOAD PUSH2 0x2852 DUP2 PUSH2 0x3DA DUP2 PUSH1 0xD DUP7 ADD PUSH2 0x57D6 JUMP JUMPDEST PUSH2 0x1A0 DUP5 ADD MSTORE PUSH1 0xE DUP2 ADD SLOAD PUSH2 0x1C0 DUP5 ADD MSTORE PUSH1 0xF DUP2 ADD SLOAD PUSH1 0xFF SWAP1 DUP2 DUP2 AND ISZERO ISZERO PUSH2 0x1E0 DUP7 ADD MSTORE DUP2 DUP2 PUSH1 0x8 SHR AND ISZERO ISZERO PUSH2 0x200 DUP7 ADD MSTORE DUP4 SHR AND ISZERO ISZERO PUSH2 0x220 DUP5 ADD MSTORE ADD DUP1 SLOAD SWAP1 PUSH2 0x289C DUP3 PUSH2 0x636E JUMP JUMPDEST SWAP2 PUSH2 0x28AA PUSH1 0x40 MLOAD SWAP4 DUP5 PUSH2 0x5698 JUMP JUMPDEST DUP1 DUP4 MSTORE PUSH1 0x20 DUP4 ADD SWAP2 PUSH1 0x0 MSTORE PUSH1 0x20 PUSH1 0x0 KECCAK256 PUSH1 0x0 SWAP3 JUMPDEST DUP3 DUP5 LT PUSH2 0x28E8 JUMPI POP POP POP POP PUSH2 0x240 DUP3 ADD MSTORE PUSH2 0x2734 SWAP2 PUSH2 0x28E1 SWAP2 PUSH2 0x543 DUP3 DUP9 PUSH2 0x63B7 JUMP JUMPDEST SWAP1 DUP7 PUSH2 0x2728 JUMP JUMPDEST PUSH1 0x6 PUSH1 0x20 PUSH1 0x1 SWAP3 PUSH2 0x28F8 DUP6 PUSH2 0x8768 JUMP JUMPDEST DUP2 MSTORE ADD SWAP3 ADD SWAP4 ADD SWAP3 SWAP1 PUSH2 0x28BE JUMP JUMPDEST POP DUP4 PUSH1 0x0 MSTORE DUP1 PUSH1 0x20 MSTORE PUSH1 0xFF PUSH1 0xF PUSH1 0x40 PUSH1 0x0 KECCAK256 ADD SLOAD DUP3 SHR AND ISZERO PUSH2 0x2723 JUMP JUMPDEST DUP1 PUSH1 0x0 MSTORE PUSH1 0x10 DUP1 PUSH1 0x20 MSTORE PUSH2 0x3DA PUSH2 0x2947 PUSH1 0x9 PUSH1 0x40 PUSH1 0x0 KECCAK256 ADD PUSH1 0x40 MLOAD SWAP3 DUP4 DUP1 SWAP3 PUSH2 0x57D6 JUMP JUMPDEST PUSH1 0x20 DUP2 MLOAD SWAP2 ADD KECCAK256 DUP6 MLOAD PUSH1 0x20 DUP8 ADD KECCAK256 EQ SWAP1 DUP2 PUSH2 0x2986 JUMPI JUMPDEST POP PUSH2 0x2971 JUMPI JUMPDEST PUSH2 0x296C SWAP1 PUSH2 0x635F JUMP JUMPDEST PUSH2 0x26BA JUMP JUMPDEST SWAP1 PUSH2 0x297E PUSH2 0x296C SWAP2 PUSH2 0x635F JUMP JUMPDEST SWAP2 SWAP1 POP PUSH2 0x2963 JUMP JUMPDEST PUSH1 0xFF SWAP2 POP DUP3 PUSH1 0x0 MSTORE DUP1 PUSH1 0x20 MSTORE PUSH1 0xF PUSH1 0x40 PUSH1 0x0 KECCAK256 ADD SLOAD SWAP1 SHR AND ISZERO DUP6 PUSH2 0x295D JUMP JUMPDEST CALLVALUE PUSH2 0x5F1 JUMPI PUSH1 0x0 CALLDATASIZE PUSH1 0x3 NOT ADD SLT PUSH2 0x5F1 JUMPI PUSH1 0x0 SLOAD PUSH1 0x40 MLOAD PUSH1 0x1 PUSH1 0x1 PUSH1 0xA0 SHL SUB SWAP1 SWAP2 AND DUP2 MSTORE PUSH1 0x20 SWAP1 RETURN JUMPDEST CALLVALUE PUSH2 0x5F1 JUMPI PUSH1 0x3 NOT PUSH1 0x40 CALLDATASIZE DUP3 ADD SLT PUSH2 0x5F1 JUMPI PUSH1 0x24 CALLDATALOAD SWAP1 PUSH1 0x1 PUSH1 0x1 PUSH1 0x40 SHL SUB DUP3 GT PUSH2 0x5F1 JUMPI PUSH2 0x1A0 SWAP1 DUP3 CALLDATASIZE SUB ADD SLT PUSH2 0x5F1 JUMPI PUSH2 0x781 SWAP1 PUSH1 0x4 ADD PUSH1 0x4 CALLDATALOAD PUSH2 0x7893 JUMP JUMPDEST CALLVALUE PUSH2 0x5F1 JUMPI PUSH1 0xA0 CALLDATASIZE PUSH1 0x3 NOT ADD SLT PUSH2 0x5F1 JUMPI PUSH1 0x4 CALLDATALOAD PUSH1 0x1 PUSH1 0x1 PUSH1 0x40 SHL SUB DUP2 GT PUSH2 0x5F1 JUMPI PUSH2 0x2A3E SWAP1 CALLDATASIZE SWAP1 PUSH1 0x4 ADD PUSH2 0x570D JUMP JUMPDEST PUSH1 0x24 CALLDATALOAD PUSH1 0x1 PUSH1 0x1 PUSH1 0x40 SHL SUB DUP2 GT PUSH2 0x5F1 JUMPI PUSH2 0x2A5D SWAP1 CALLDATASIZE SWAP1 PUSH1 0x4 ADD PUSH2 0x570D JUMP JUMPDEST PUSH1 0x44 CALLDATALOAD PUSH1 0x1 PUSH1 0x1 PUSH1 0x40 SHL SUB DUP2 GT PUSH2 0x5F1 JUMPI PUSH2 0x2A7C SWAP1 CALLDATASIZE SWAP1 PUSH1 0x4 ADD PUSH2 0x570D JUMP JUMPDEST PUSH1 0x64 CALLDATALOAD PUSH1 0x1 PUSH1 0x1 PUSH1 0x40 SHL SUB DUP2 GT PUSH2 0x5F1 JUMPI PUSH2 0x2A9B SWAP1 CALLDATASIZE SWAP1 PUSH1 0x4 ADD PUSH2 0x570D JUMP JUMPDEST SWAP1 PUSH1 0x84 CALLDATALOAD PUSH1 0x1 PUSH1 0x1 PUSH1 0x40 SHL SUB DUP2 GT PUSH2 0x5F1 JUMPI PUSH2 0x2ABB SWAP1 CALLDATASIZE SWAP1 PUSH1 0x4 ADD PUSH2 0x570D JUMP JUMPDEST PUSH1 0x0 SLOAD SWAP1 SWAP4 SWAP1 PUSH1 0x1 PUSH1 0x1 PUSH1 0xA0 SHL SUB AND CALLER SUB PUSH2 0x305F JUMPI JUMPDEST DUP5 MLOAD ISZERO PUSH2 0x3021 JUMPI PUSH2 0x2AE4 DUP3 MLOAD ISZERO ISZERO PUSH2 0x6174 JUMP JUMPDEST PUSH2 0x2AF0 DUP4 MLOAD ISZERO ISZERO PUSH2 0x61B1 JUMP JUMPDEST PUSH1 0x40 MLOAD SWAP5 PUSH2 0x2AFD DUP7 PUSH2 0x5611 JUMP JUMPDEST DUP6 MSTORE PUSH1 0x20 DUP6 ADD MSTORE PUSH1 0x40 DUP5 ADD MSTORE PUSH1 0x60 DUP4 ADD MSTORE PUSH1 0x80 DUP3 ADD MSTORE TIMESTAMP PUSH1 0xA0 DUP3 ADD MSTORE PUSH1 0x1 PUSH1 0xC0 DUP3 ADD MSTORE CALLER PUSH1 0x0 MSTORE PUSH1 0xD PUSH1 0x20 MSTORE PUSH1 0x40 PUSH1 0x0 KECCAK256 DUP2 MLOAD SWAP2 DUP3 MLOAD PUSH1 0x1 DUP1 PUSH1 0x40 SHL SUB DUP2 GT PUSH2 0xD5C JUMPI PUSH2 0x2B4E DUP2 PUSH2 0xC72 DUP6 SLOAD PUSH2 0x579C JUMP JUMPDEST PUSH1 0x20 PUSH1 0x1F DUP3 GT PUSH1 0x1 EQ PUSH2 0x2FB9 JUMPI DUP2 SWAP3 SWAP4 SWAP5 PUSH1 0x0 SWAP3 PUSH2 0x2FAE JUMPI JUMPDEST POP POP DUP2 PUSH1 0x1 SHL SWAP2 PUSH1 0x0 NOT SWAP1 PUSH1 0x3 SHL SHR NOT AND OR DUP3 SSTORE JUMPDEST PUSH1 0x20 DUP2 ADD MLOAD DUP1 MLOAD SWAP1 SWAP3 SWAP1 PUSH1 0x1 PUSH1 0x1 PUSH1 0x40 SHL SUB DUP2 GT PUSH2 0xD5C JUMPI PUSH2 0x2BAE DUP2 PUSH2 0x2BA5 PUSH1 0x1 DUP6 ADD SLOAD PUSH2 0x579C JUMP JUMPDEST PUSH1 0x1 DUP6 ADD PUSH2 0x6205 JUMP JUMPDEST PUSH1 0x20 PUSH1 0x1F DUP3 GT PUSH1 0x1 EQ PUSH2 0x2F40 JUMPI DUP2 SWAP3 SWAP4 SWAP5 PUSH1 0x0 SWAP3 PUSH2 0x2F35 JUMPI JUMPDEST POP POP DUP2 PUSH1 0x1 SHL SWAP2 PUSH1 0x0 NOT SWAP1 PUSH1 0x3 SHL SHR NOT AND OR PUSH1 0x1 DUP3 ADD SSTORE JUMPDEST PUSH1 0x40 DUP3 ADD MLOAD DUP1 MLOAD SWAP1 SWAP3 SWAP1 PUSH1 0x1 PUSH1 0x1 PUSH1 0x40 SHL SUB DUP2 GT PUSH2 0xD5C JUMPI PUSH2 0x2C11 DUP2 PUSH2 0x2C08 PUSH1 0x2 DUP7 ADD SLOAD PUSH2 0x579C JUMP JUMPDEST PUSH1 0x2 DUP7 ADD PUSH2 0x6205 JUMP JUMPDEST PUSH1 0x20 PUSH1 0x1F DUP3 GT PUSH1 0x1 EQ PUSH2 0x2EC7 JUMPI DUP2 SWAP3 SWAP4 SWAP5 PUSH1 0x0 SWAP3 PUSH2 0x2EBC JUMPI JUMPDEST POP POP DUP2 PUSH1 0x1 SHL SWAP2 PUSH1 0x0 NOT SWAP1 PUSH1 0x3 SHL SHR NOT AND OR PUSH1 0x2 DUP4 ADD SSTORE JUMPDEST PUSH1 0x60 DUP2 ADD MLOAD DUP1 MLOAD SWAP1 SWAP3 SWAP1 PUSH1 0x1 PUSH1 0x1 PUSH1 0x40 SHL SUB DUP2 GT PUSH2 0xD5C JUMPI PUSH2 0x2C74 DUP2 PUSH2 0x2C6B PUSH1 0x3 DUP6 ADD SLOAD PUSH2 0x579C JUMP JUMPDEST PUSH1 0x3 DUP6 ADD PUSH2 0x6205 JUMP JUMPDEST PUSH1 0x20 PUSH1 0x1F DUP3 GT PUSH1 0x1 EQ PUSH2 0x2E4E JUMPI DUP2 SWAP3 SWAP4 SWAP5 PUSH1 0x0 SWAP3 PUSH2 0x2E43 JUMPI JUMPDEST POP POP DUP2 PUSH1 0x1 SHL SWAP2 PUSH1 0x0 NOT SWAP1 PUSH1 0x3 SHL SHR NOT AND OR PUSH1 0x3 DUP3 ADD SSTORE JUMPDEST PUSH1 0x80 DUP3 ADD MLOAD DUP1 MLOAD SWAP1 SWAP3 SWAP1 PUSH1 0x4 DUP4 ADD SWAP1 PUSH1 0x1 PUSH1 0x1 PUSH1 0x40 SHL SUB DUP2 GT PUSH2 0xD5C JUMPI PUSH2 0x2CD0 DUP2 PUSH2 0x11CE DUP5 SLOAD PUSH2 0x579C JUMP JUMPDEST PUSH1 0x20 PUSH1 0x1F DUP3 GT PUSH1 0x1 EQ PUSH2 0x2DD3 JUMPI SWAP2 DUP2 PUSH1 0x6 SWAP5 SWAP3 PUSH1 0xC0 SWAP5 PUSH2 0x2D1C SWAP9 PUSH1 0x0 SWAP3 PUSH2 0x2DC8 JUMPI JUMPDEST POP POP DUP2 PUSH1 0x1 SHL SWAP2 PUSH1 0x0 NOT SWAP1 PUSH1 0x3 SHL SHR NOT AND OR SWAP1 SSTORE JUMPDEST PUSH1 0xA0 DUP2 ADD MLOAD PUSH1 0x5 DUP6 ADD SSTORE ADD MLOAD ISZERO ISZERO SWAP2 ADD PUSH2 0x6017 JUMP JUMPDEST CALLER PUSH1 0x0 DUP2 DUP2 MSTORE PUSH1 0x16 PUSH1 0x20 MSTORE PUSH1 0x40 DUP2 KECCAK256 DUP1 SLOAD PUSH1 0xFF NOT AND PUSH1 0x1 OR SWAP1 SSTORE SLOAD PUSH1 0x1 PUSH1 0x1 PUSH1 0xA0 SHL SUB AND SUB PUSH2 0x2DBE JUMPI PUSH2 0x2D5A PUSH1 0x2 JUMPDEST PUSH1 0x13 PUSH1 0x20 MSTORE PUSH1 0x40 PUSH1 0x0 KECCAK256 PUSH2 0x624C JUMP JUMPDEST PUSH2 0x2D63 CALLER PUSH2 0x96AB JUMP JUMPDEST ISZERO PUSH2 0x2D97 JUMPI JUMPDEST PUSH1 0x40 MLOAD TIMESTAMP DUP2 MSTORE PUSH32 0xA1A1A78FF3033D5EE8393372052AEB2A16BBB347A29F3780370E9506C109E372 PUSH1 0x20 CALLER SWAP3 LOG2 STOP JUMPDEST PUSH1 0xC SLOAD PUSH1 0x1 PUSH1 0x40 SHL DUP2 LT ISZERO PUSH2 0xD5C JUMPI PUSH2 0x1319 DUP2 PUSH1 0x1 PUSH2 0x2DB9 SWAP4 ADD PUSH1 0xC SSTORE PUSH2 0x5A90 JUMP JUMPDEST PUSH2 0x2D69 JUMP JUMPDEST PUSH2 0x2D5A PUSH1 0x1 PUSH2 0x2D4B JUMP JUMPDEST ADD MLOAD SWAP1 POP DUP9 DUP1 PUSH2 0x2CF2 JUMP JUMPDEST PUSH1 0x1F NOT DUP3 AND SWAP6 DUP4 PUSH1 0x0 MSTORE PUSH1 0x20 PUSH1 0x0 KECCAK256 SWAP7 PUSH1 0x0 JUMPDEST DUP2 DUP2 LT PUSH2 0x2E2B JUMPI POP SWAP3 PUSH2 0x2D1C SWAP8 PUSH1 0xC0 SWAP6 SWAP4 PUSH1 0x1 SWAP4 DUP4 PUSH1 0x6 SWAP10 SWAP8 LT PUSH2 0x2E12 JUMPI JUMPDEST POP POP POP DUP2 SHL ADD SWAP1 SSTORE PUSH2 0x2D07 JUMP JUMPDEST ADD MLOAD PUSH1 0x0 NOT PUSH1 0xF8 DUP5 PUSH1 0x3 SHL AND SHR NOT AND SWAP1 SSTORE DUP9 DUP1 DUP1 PUSH2 0x2E05 JUMP JUMPDEST DUP4 DUP4 ADD MLOAD DUP10 SSTORE PUSH1 0x1 SWAP1 SWAP9 ADD SWAP8 PUSH1 0x20 SWAP4 DUP5 ADD SWAP4 ADD PUSH2 0x2DE6 JUMP JUMPDEST ADD MLOAD SWAP1 POP DUP5 DUP1 PUSH2 0x2C8D JUMP JUMPDEST PUSH1 0x3 DUP4 ADD PUSH1 0x0 MSTORE PUSH1 0x20 PUSH1 0x0 KECCAK256 SWAP1 PUSH1 0x0 JUMPDEST PUSH1 0x1F NOT DUP5 AND DUP2 LT PUSH2 0x2EA4 JUMPI POP PUSH1 0x1 SWAP4 SWAP5 SWAP6 DUP4 PUSH1 0x1F NOT DUP2 AND LT PUSH2 0x2E8B JUMPI JUMPDEST POP POP POP DUP2 SHL ADD PUSH1 0x3 DUP3 ADD SSTORE PUSH2 0x2CA5 JUMP JUMPDEST ADD MLOAD PUSH1 0x0 NOT PUSH1 0xF8 DUP5 PUSH1 0x3 SHL AND SHR NOT AND SWAP1 SSTORE DUP5 DUP1 DUP1 PUSH2 0x2E7B JUMP JUMPDEST SWAP1 SWAP2 PUSH1 0x20 PUSH1 0x1 DUP2 SWAP3 DUP6 DUP11 ADD MLOAD DUP2 SSTORE ADD SWAP4 ADD SWAP2 ADD PUSH2 0x2E5E JUMP JUMPDEST ADD MLOAD SWAP1 POP DUP5 DUP1 PUSH2 0x2C2A JUMP JUMPDEST PUSH1 0x2 DUP5 ADD PUSH1 0x0 MSTORE PUSH1 0x20 PUSH1 0x0 KECCAK256 SWAP1 PUSH1 0x0 JUMPDEST PUSH1 0x1F NOT DUP5 AND DUP2 LT PUSH2 0x2F1D JUMPI POP PUSH1 0x1 SWAP4 SWAP5 SWAP6 DUP4 PUSH1 0x1F NOT DUP2 AND LT PUSH2 0x2F04 JUMPI JUMPDEST POP POP POP DUP2 SHL ADD PUSH1 0x2 DUP4 ADD SSTORE PUSH2 0x2C42 JUMP JUMPDEST ADD MLOAD PUSH1 0x0 NOT PUSH1 0xF8 DUP5 PUSH1 0x3 SHL AND SHR NOT AND SWAP1 SSTORE DUP5 DUP1 DUP1 PUSH2 0x2EF4 JUMP JUMPDEST SWAP1 SWAP2 PUSH1 0x20 PUSH1 0x1 DUP2 SWAP3 DUP6 DUP11 ADD MLOAD DUP2 SSTORE ADD SWAP4 ADD SWAP2 ADD PUSH2 0x2ED7 JUMP JUMPDEST ADD MLOAD SWAP1 POP DUP5 DUP1 PUSH2 0x2BC7 JUMP JUMPDEST PUSH1 0x1 DUP4 ADD PUSH1 0x0 MSTORE PUSH1 0x20 PUSH1 0x0 KECCAK256 SWAP1 PUSH1 0x0 JUMPDEST PUSH1 0x1F NOT DUP5 AND DUP2 LT PUSH2 0x2F96 JUMPI POP PUSH1 0x1 SWAP4 SWAP5 SWAP6 DUP4 PUSH1 0x1F NOT DUP2 AND LT PUSH2 0x2F7D JUMPI JUMPDEST POP POP POP DUP2 SHL ADD PUSH1 0x1 DUP3 ADD SSTORE PUSH2 0x2BDF JUMP JUMPDEST ADD MLOAD PUSH1 0x0 NOT PUSH1 0xF8 DUP5 PUSH1 0x3 SHL AND SHR NOT AND SWAP1 SSTORE DUP5 DUP1 DUP1 PUSH2 0x2F6D JUMP JUMPDEST SWAP1 SWAP2 PUSH1 0x20 PUSH1 0x1 DUP2 SWAP3 DUP6 DUP11 ADD MLOAD DUP2 SSTORE ADD SWAP4 ADD SWAP2 ADD PUSH2 0x2F50 JUMP JUMPDEST ADD MLOAD SWAP1 POP DUP5 DUP1 PUSH2 0x2B67 JUMP JUMPDEST DUP4 PUSH1 0x0 MSTORE PUSH1 0x20 PUSH1 0x0 KECCAK256 SWAP1 PUSH1 0x0 JUMPDEST PUSH1 0x1F NOT DUP5 AND DUP2 LT PUSH2 0x3009 JUMPI POP PUSH1 0x1 SWAP4 SWAP5 SWAP6 DUP4 PUSH1 0x1F NOT DUP2 AND LT PUSH2 0x2FF0 JUMPI JUMPDEST POP POP POP DUP2 SHL ADD DUP3 SSTORE PUSH2 0x2B7C JUMP JUMPDEST ADD MLOAD PUSH1 0x0 NOT PUSH1 0xF8 DUP5 PUSH1 0x3 SHL AND SHR NOT AND SWAP1 SSTORE DUP5 DUP1 DUP1 PUSH2 0x2FE3 JUMP JUMPDEST SWAP1 SWAP2 PUSH1 0x20 PUSH1 0x1 DUP2 SWAP3 DUP6 DUP11 ADD MLOAD DUP2 SSTORE ADD SWAP4 ADD SWAP2 ADD PUSH2 0x2FC6 JUMP JUMPDEST PUSH1 0x40 MLOAD PUSH3 0x461BCD PUSH1 0xE5 SHL DUP2 MSTORE PUSH1 0x20 PUSH1 0x4 DUP3 ADD MSTORE PUSH1 0x16 PUSH1 0x24 DUP3 ADD MSTORE PUSH22 0x109D5CDA5B995CDCC81B985B59481C995C5D5A5C9959 PUSH1 0x52 SHL PUSH1 0x44 DUP3 ADD MSTORE PUSH1 0x64 SWAP1 REVERT JUMPDEST CALLER PUSH1 0x0 MSTORE PUSH1 0x16 PUSH1 0x20 MSTORE PUSH1 0xFF PUSH1 0x40 PUSH1 0x0 KECCAK256 SLOAD AND ISZERO PUSH2 0x2AD1 JUMPI PUSH1 0x40 MLOAD PUSH3 0x461BCD PUSH1 0xE5 SHL DUP2 MSTORE PUSH1 0x20 PUSH1 0x4 DUP3 ADD MSTORE PUSH1 0x12 PUSH1 0x24 DUP3 ADD MSTORE PUSH18 0x105B1C9958591E481C9959DA5CDD195C9959 PUSH1 0x72 SHL PUSH1 0x44 DUP3 ADD MSTORE PUSH1 0x64 SWAP1 REVERT JUMPDEST CALLVALUE PUSH2 0x5F1 JUMPI PUSH1 0x40 CALLDATASIZE PUSH1 0x3 NOT ADD SLT PUSH2 0x5F1 JUMPI PUSH1 0x1 PUSH1 0x1 PUSH1 0x40 SHL SUB PUSH1 0x4 CALLDATALOAD PUSH1 0x24 CALLDATALOAD DUP3 DUP2 GT PUSH2 0x5F1 JUMPI PUSH2 0x30E4 SWAP1 CALLDATASIZE SWAP1 PUSH1 0x4 ADD PUSH2 0x570D JUMP JUMPDEST PUSH2 0x30EC PUSH2 0x5C6D JUMP JUMPDEST DUP2 PUSH1 0x0 MSTORE PUSH1 0x20 SWAP1 PUSH1 0xE DUP3 MSTORE PUSH1 0x40 PUSH1 0x0 KECCAK256 SLOAD ISZERO PUSH2 0x3289 JUMPI PUSH2 0x310E DUP2 MLOAD ISZERO ISZERO PUSH2 0x8865 JUMP JUMPDEST PUSH2 0x3119 PUSH1 0x1E SLOAD PUSH2 0x635F JUMP JUMPDEST DUP1 PUSH1 0x1E SSTORE PUSH1 0x40 MLOAD SWAP1 PUSH2 0x312A DUP3 PUSH2 0x562C JUMP JUMPDEST DUP1 DUP3 MSTORE DUP4 DUP3 ADD DUP4 DUP2 MSTORE PUSH1 0x40 DUP4 ADD SWAP1 DUP7 DUP3 MSTORE PUSH1 0x60 DUP5 ADD SWAP3 PUSH1 0x1 SWAP1 DUP2 DUP6 MSTORE PUSH1 0x0 MSTORE PUSH1 0xF DUP8 MSTORE PUSH1 0x40 PUSH1 0x0 KECCAK256 SWAP5 MLOAD DUP6 SSTORE DUP1 DUP6 ADD SWAP2 MLOAD DUP1 MLOAD SWAP10 DUP11 GT PUSH2 0xD5C JUMPI PUSH2 0x3172 DUP11 PUSH2 0xC72 DUP6 SLOAD PUSH2 0x579C JUMP JUMPDEST DUP8 SWAP1 PUSH1 0x1F DUP12 GT PUSH1 0x1 EQ PUSH2 0x320C JUMPI SWAP10 DUP1 DUP1 PUSH1 0x3 SWAP7 SWAP5 PUSH2 0x31C8 SWAP10 SWAP9 SWAP7 SWAP5 PUSH1 0x0 DUP1 MLOAD PUSH1 0x20 PUSH2 0x979D DUP4 CODECOPY DUP2 MLOAD SWAP2 MSTORE SWAP13 SWAP14 SWAP15 PUSH1 0x0 SWAP5 PUSH2 0x3201 JUMPI JUMPDEST POP POP SHL SWAP2 PUSH1 0x0 NOT SWAP1 DUP8 SHL SHR NOT AND OR SWAP1 SSTORE JUMPDEST MLOAD PUSH1 0x2 DUP5 ADD SSTORE MLOAD ISZERO ISZERO SWAP2 ADD PUSH2 0x6017 JUMP JUMPDEST DUP4 PUSH1 0x0 MSTORE PUSH1 0xE DUP4 MSTORE PUSH2 0x31E4 PUSH1 0x3 PUSH1 0x40 PUSH1 0x0 KECCAK256 ADD PUSH1 0x1E SLOAD SWAP1 PUSH2 0x6A47 JUMP JUMPDEST PUSH1 0x1E SLOAD SWAP3 PUSH2 0x31FC PUSH1 0x40 MLOAD SWAP3 DUP3 DUP5 SWAP4 DUP5 MSTORE DUP4 ADD SWAP1 PUSH2 0x52BE JUMP JUMPDEST SUB SWAP1 LOG3 STOP JUMPDEST ADD MLOAD SWAP3 POP DUP15 DUP1 PUSH2 0x31A7 JUMP JUMPDEST SWAP10 SWAP1 PUSH1 0x1F NOT DUP3 AND SWAP11 DUP5 PUSH1 0x0 MSTORE DUP10 PUSH1 0x0 KECCAK256 SWAP12 PUSH1 0x0 JUMPDEST DUP2 DUP2 LT PUSH2 0x3274 JUMPI POP SWAP12 PUSH1 0x3 SWAP7 SWAP5 SWAP3 DUP5 SWAP3 PUSH2 0x31C8 SWAP11 SWAP10 SWAP8 SWAP6 PUSH1 0x0 DUP1 MLOAD PUSH1 0x20 PUSH2 0x979D DUP4 CODECOPY DUP2 MLOAD SWAP2 MSTORE SWAP14 SWAP15 SWAP16 LT PUSH2 0x325C JUMPI JUMPDEST POP POP POP DUP2 SHL ADD SWAP1 SSTORE PUSH2 0x31B8 JUMP JUMPDEST ADD MLOAD PUSH1 0x0 NOT DUP4 DUP10 SHL PUSH1 0xF8 AND SHR NOT AND SWAP1 SSTORE DUP13 DUP1 DUP1 PUSH2 0x324F JUMP JUMPDEST DUP4 DUP4 ADD MLOAD DUP15 SSTORE SWAP13 DUP6 ADD SWAP13 SWAP3 DUP12 ADD SWAP3 DUP12 ADD PUSH2 0x3220 JUMP JUMPDEST PUSH1 0x40 MLOAD PUSH3 0x461BCD PUSH1 0xE5 SHL DUP2 MSTORE PUSH1 0x4 DUP2 ADD DUP4 SWAP1 MSTORE PUSH1 0x1E PUSH1 0x24 DUP3 ADD MSTORE PUSH32 0x506172656E742063617465676F727920646F6573206E6F742065786973740000 PUSH1 0x44 DUP3 ADD MSTORE PUSH1 0x64 SWAP1 REVERT JUMPDEST CALLVALUE PUSH2 0x5F1 JUMPI PUSH1 0x20 CALLDATASIZE PUSH1 0x3 NOT ADD SLT PUSH2 0x5F1 JUMPI PUSH1 0x4 CALLDATALOAD PUSH1 0x0 MSTORE PUSH1 0x10 PUSH1 0x20 MSTORE PUSH1 0x40 PUSH1 0x0 KECCAK256 DUP1 SLOAD PUSH1 0x1 PUSH1 0xA0 SHL PUSH1 0x1 SWAP1 SUB PUSH1 0x1 DUP4 ADD SLOAD AND SWAP2 PUSH1 0x40 MLOAD DUP1 DUP1 PUSH1 0x2 DUP5 ADD SWAP1 PUSH2 0x3314 SWAP2 PUSH2 0x57D6 JUMP JUMPDEST SUB PUSH2 0x331F SWAP1 DUP3 PUSH2 0x5698 JUMP JUMPDEST PUSH1 0x40 MLOAD DUP1 PUSH2 0x3330 DUP2 PUSH1 0x3 DUP7 ADD PUSH2 0x57D6 JUMP JUMPDEST SUB PUSH2 0x333B SWAP1 DUP3 PUSH2 0x5698 JUMP JUMPDEST PUSH1 0x4 DUP4 ADD SLOAD PUSH1 0x5 DUP5 ADD SLOAD SWAP1 PUSH1 0x40 MLOAD DUP1 DUP1 PUSH1 0x9 DUP9 ADD SWAP1 PUSH2 0x3359 SWAP2 PUSH2 0x57D6 JUMP JUMPDEST SUB PUSH2 0x3364 SWAP1 DUP3 PUSH2 0x5698 JUMP JUMPDEST PUSH1 0x40 MLOAD SWAP1 DUP2 PUSH2 0x3376 DUP2 PUSH1 0xA DUP11 ADD PUSH2 0x57D6 JUMP JUMPDEST SUB PUSH2 0x3381 SWAP1 DUP4 PUSH2 0x5698 JUMP JUMPDEST PUSH1 0xB DUP8 ADD SLOAD SWAP3 PUSH1 0x40 MLOAD SWAP5 DUP6 DUP1 PUSH1 0xC DUP12 ADD SWAP1 PUSH2 0x339B SWAP2 PUSH2 0x57D6 JUMP JUMPDEST SUB PUSH2 0x33A6 SWAP1 DUP8 PUSH2 0x5698 JUMP JUMPDEST PUSH1 0x40 MLOAD SWAP7 DUP8 PUSH2 0x33B8 DUP2 PUSH1 0xD DUP14 ADD PUSH2 0x57D6 JUMP JUMPDEST SUB PUSH2 0x33C3 SWAP1 DUP10 PUSH2 0x5698 JUMP JUMPDEST PUSH1 0xE DUP11 ADD SLOAD SWAP10 PUSH1 0xF ADD SLOAD SWAP9 PUSH1 0x40 MLOAD SWAP13 DUP14 SWAP13 DUP14 MSTORE PUSH1 0x20 DUP14 ADD MSTORE DUP12 PUSH2 0x1E0 PUSH1 0x40 DUP2 SWAP3 ADD MSTORE DUP13 ADD PUSH2 0x33F0 SWAP2 PUSH2 0x52BE JUMP JUMPDEST DUP12 DUP2 SUB PUSH1 0x60 DUP14 ADD MSTORE PUSH2 0x3401 SWAP2 PUSH2 0x52BE JUMP JUMPDEST SWAP2 PUSH1 0x80 DUP12 ADD MSTORE PUSH1 0xA0 DUP11 ADD MSTORE DUP9 DUP2 SUB PUSH1 0xC0 DUP11 ADD MSTORE PUSH2 0x341D SWAP2 PUSH2 0x52BE JUMP JUMPDEST DUP8 DUP2 SUB PUSH1 0xE0 DUP10 ADD MSTORE PUSH2 0x342E SWAP2 PUSH2 0x52BE JUMP JUMPDEST SWAP1 PUSH2 0x100 DUP8 ADD MSTORE DUP6 DUP2 SUB PUSH2 0x120 DUP8 ADD MSTORE PUSH2 0x3447 SWAP2 PUSH2 0x52BE JUMP JUMPDEST DUP5 DUP2 SUB PUSH2 0x140 DUP7 ADD MSTORE PUSH2 0x3459 SWAP2 PUSH2 0x52BE JUMP JUMPDEST SWAP2 PUSH2 0x160 DUP5 ADD MSTORE PUSH1 0xFF DUP2 AND ISZERO ISZERO PUSH2 0x180 DUP5 ADD MSTORE DUP1 PUSH1 0x8 SHR PUSH1 0xFF AND ISZERO ISZERO PUSH2 0x1A0 DUP5 ADD MSTORE PUSH1 0x10 SHR PUSH1 0xFF AND ISZERO ISZERO PUSH2 0x1C0 DUP4 ADD MSTORE SUB SWAP1 RETURN JUMPDEST CALLVALUE PUSH2 0x5F1 JUMPI PUSH1 0x0 CALLDATASIZE PUSH1 0x3 NOT ADD SLT PUSH2 0x5F1 JUMPI PUSH2 0x34A6 PUSH2 0x5C6D JUMP JUMPDEST PUSH1 0x0 DUP1 SLOAD PUSH1 0x1 PUSH1 0x1 PUSH1 0xA0 SHL SUB NOT DUP2 AND DUP3 SSTORE PUSH1 0x1 PUSH1 0x1 PUSH1 0xA0 SHL SUB AND PUSH1 0x0 DUP1 MLOAD PUSH1 0x20 PUSH2 0x975D DUP4 CODECOPY DUP2 MLOAD SWAP2 MSTORE DUP3 DUP1 LOG3 STOP JUMPDEST CALLVALUE PUSH2 0x5F1 JUMPI PUSH1 0x20 CALLDATASIZE PUSH1 0x3 NOT ADD SLT PUSH2 0x5F1 JUMPI PUSH1 0x1 PUSH1 0x1 PUSH1 0xA0 SHL SUB PUSH2 0x34F5 PUSH2 0x55AD JUMP JUMPDEST AND DUP1 ISZERO PUSH2 0x3514 JUMPI PUSH1 0x0 MSTORE PUSH1 0x5 PUSH1 0x20 MSTORE PUSH1 0x20 PUSH1 0x40 PUSH1 0x0 KECCAK256 SLOAD PUSH1 0x40 MLOAD SWAP1 DUP2 MSTORE RETURN JUMPDEST PUSH1 0x40 MLOAD PUSH3 0x461BCD PUSH1 0xE5 SHL DUP2 MSTORE PUSH1 0x20 PUSH1 0x4 DUP3 ADD MSTORE PUSH1 0x29 PUSH1 0x24 DUP3 ADD MSTORE PUSH32 0x4552433732313A2061646472657373207A65726F206973206E6F742061207661 PUSH1 0x44 DUP3 ADD MSTORE PUSH9 0x3634B21037BBB732B9 PUSH1 0xB9 SHL PUSH1 0x64 DUP3 ADD MSTORE PUSH1 0x84 SWAP1 REVERT JUMPDEST CALLVALUE PUSH2 0x5F1 JUMPI PUSH1 0x20 DUP1 PUSH1 0x3 NOT CALLDATASIZE ADD SLT PUSH2 0x5F1 JUMPI PUSH2 0x3585 PUSH2 0x55AD JUMP JUMPDEST PUSH1 0x40 MLOAD PUSH2 0x3591 DUP2 PUSH2 0x5647 JUMP JUMPDEST PUSH2 0x369 PUSH1 0x60 SWAP3 DUP4 DUP4 MSTORE DUP4 DUP6 DUP5 ADD MSTORE DUP4 PUSH1 0x40 DUP5 ADD MSTORE PUSH1 0x0 DUP5 DUP5 ADD MSTORE PUSH1 0x0 PUSH1 0x80 DUP1 SWAP5 ADD MSTORE PUSH1 0x1 DUP1 PUSH1 0xA0 SHL SUB AND SWAP2 DUP3 PUSH1 0x0 MSTORE PUSH1 0x1A DUP6 MSTORE PUSH1 0xFF PUSH1 0x40 PUSH1 0x0 KECCAK256 SLOAD AND SWAP4 DUP5 PUSH1 0x0 EQ PUSH2 0x36F6 JUMPI DUP4 PUSH1 0x0 MSTORE PUSH1 0x1B DUP7 MSTORE PUSH1 0x40 PUSH1 0x0 KECCAK256 PUSH1 0xFF PUSH1 0x4 PUSH1 0x40 MLOAD SWAP3 PUSH2 0x35F4 DUP5 PUSH2 0x5647 JUMP JUMPDEST PUSH1 0x40 MLOAD PUSH2 0x3605 DUP2 PUSH2 0x3DA DUP2 DUP6 PUSH2 0x57D6 JUMP JUMPDEST DUP5 MSTORE PUSH1 0x40 MLOAD PUSH2 0x361B DUP2 PUSH2 0x3DA DUP2 PUSH1 0x1 DUP7 ADD PUSH2 0x57D6 JUMP JUMPDEST DUP11 DUP6 ADD MSTORE PUSH1 0x40 MLOAD PUSH2 0x3633 DUP2 PUSH2 0x3DA DUP2 PUSH1 0x2 DUP7 ADD PUSH2 0x57D6 JUMP JUMPDEST PUSH1 0x40 DUP6 ADD MSTORE PUSH1 0x3 DUP2 ADD SLOAD DUP6 DUP6 ADD MSTORE ADD SLOAD AND ISZERO ISZERO DUP4 DUP3 ADD MSTORE SWAP4 JUMPDEST PUSH1 0x0 MSTORE PUSH1 0x16 DUP7 MSTORE PUSH1 0xFF PUSH1 0x40 PUSH1 0x0 KECCAK256 SLOAD AND DUP1 PUSH1 0x0 EQ PUSH2 0x36EE JUMPI PUSH1 0x13 DUP8 MSTORE PUSH1 0xFF PUSH1 0x40 PUSH1 0x0 KECCAK256 SLOAD AND SWAP3 JUMPDEST PUSH2 0x36CB PUSH1 0x40 MLOAD SWAP9 DUP10 SWAP9 ISZERO ISZERO DUP10 MSTORE DUP3 DUP2 DUP11 ADD MSTORE PUSH2 0x36B6 PUSH2 0x369E DUP10 MLOAD PUSH1 0xA0 DUP7 DUP14 ADD MSTORE PUSH2 0x120 DUP13 ADD SWAP1 PUSH2 0x52BE JUMP JUMPDEST SWAP2 DUP10 ADD MLOAD SWAP2 PUSH1 0x7F NOT SWAP3 DUP4 DUP13 DUP4 SUB ADD PUSH1 0xA0 DUP14 ADD MSTORE PUSH2 0x52BE JUMP JUMPDEST SWAP1 PUSH1 0x40 DUP10 ADD MLOAD SWAP1 DUP11 DUP4 SUB ADD PUSH1 0xC0 DUP12 ADD MSTORE PUSH2 0x52BE JUMP JUMPDEST SWAP6 DUP4 DUP2 ADD MLOAD PUSH1 0xE0 DUP10 ADD MSTORE ADD MLOAD ISZERO ISZERO PUSH2 0x100 DUP8 ADD MSTORE ISZERO ISZERO PUSH1 0x40 DUP7 ADD MSTORE DUP5 ADD SWAP1 PUSH2 0x5A52 JUMP JUMPDEST PUSH1 0x0 SWAP3 PUSH2 0x3673 JUMP JUMPDEST PUSH1 0x40 MLOAD PUSH2 0x3702 DUP2 PUSH2 0x5647 JUMP JUMPDEST PUSH1 0x40 MLOAD PUSH2 0x370E DUP2 PUSH2 0x567D JUMP JUMPDEST PUSH1 0x0 DUP2 MSTORE DUP2 MSTORE PUSH1 0x40 MLOAD PUSH2 0x3720 DUP2 PUSH2 0x567D JUMP JUMPDEST PUSH1 0x0 DUP2 MSTORE DUP8 DUP3 ADD MSTORE PUSH1 0x40 MLOAD PUSH2 0x3734 DUP2 PUSH2 0x567D JUMP JUMPDEST PUSH1 0x0 DUP2 MSTORE PUSH1 0x40 DUP3 ADD MSTORE PUSH1 0x0 DUP3 DUP3 ADD MSTORE PUSH1 0x0 DUP4 DUP3 ADD MSTORE SWAP4 PUSH2 0x364C JUMP JUMPDEST CALLVALUE PUSH2 0x5F1 JUMPI PUSH1 0x0 CALLDATASIZE PUSH1 0x3 NOT ADD SLT PUSH2 0x5F1 JUMPI PUSH1 0x1C SLOAD PUSH1 0x0 DUP1 JUMPDEST DUP3 DUP2 LT PUSH2 0x380A JUMPI POP PUSH2 0x3778 SWAP1 PUSH2 0x6385 JUMP JUMPDEST SWAP1 PUSH1 0x0 DUP1 JUMPDEST DUP3 DUP2 LT PUSH2 0x3792 JUMPI PUSH1 0x40 MLOAD DUP1 PUSH2 0x369 DUP7 DUP3 PUSH2 0x5AC3 JUMP JUMPDEST PUSH2 0x379B DUP2 PUSH2 0x5A5F JUMP JUMPDEST PUSH1 0x1 DUP1 PUSH1 0xA0 SHL SUB SWAP2 SLOAD SWAP1 PUSH1 0x3 SHL SHR AND DUP1 PUSH1 0x0 MSTORE PUSH1 0x20 PUSH1 0x1A DUP2 MSTORE PUSH1 0xFF DUP1 PUSH1 0x40 PUSH1 0x0 KECCAK256 SLOAD AND SWAP2 DUP3 PUSH2 0x37F5 JUMPI JUMPDEST POP POP PUSH2 0x37DB JUMPI JUMPDEST POP PUSH2 0x37D6 SWAP1 PUSH2 0x635F JUMP JUMPDEST PUSH2 0x377D JUMP JUMPDEST DUP3 PUSH2 0x37EE SWAP2 PUSH2 0x1608 PUSH2 0x37D6 SWAP5 SWAP6 DUP9 PUSH2 0x63B7 JUMP JUMPDEST SWAP2 SWAP1 PUSH2 0x37CC JUMP JUMPDEST PUSH1 0x16 SWAP2 SWAP3 POP MSTORE PUSH1 0x40 PUSH1 0x0 KECCAK256 SLOAD AND ISZERO DUP7 DUP1 PUSH2 0x37C5 JUMP JUMPDEST PUSH2 0x3813 DUP2 PUSH2 0x5A5F JUMP JUMPDEST PUSH1 0x1 DUP1 PUSH1 0xA0 SHL SUB SWAP2 SLOAD SWAP1 PUSH1 0x3 SHL SHR AND PUSH1 0x0 MSTORE PUSH1 0x20 PUSH1 0x1A DUP2 MSTORE PUSH1 0xFF DUP1 PUSH1 0x40 PUSH1 0x0 KECCAK256 SLOAD AND SWAP2 DUP3 PUSH2 0x3866 JUMPI JUMPDEST POP POP PUSH2 0x3851 JUMPI JUMPDEST PUSH2 0x384C SWAP1 PUSH2 0x635F JUMP JUMPDEST PUSH2 0x3767 JUMP JUMPDEST SWAP1 PUSH2 0x385E PUSH2 0x384C SWAP2 PUSH2 0x635F JUMP JUMPDEST SWAP2 SWAP1 POP PUSH2 0x3843 JUMP JUMPDEST PUSH1 0x16 SWAP2 SWAP3 POP MSTORE PUSH1 0x40 PUSH1 0x0 KECCAK256 SLOAD AND ISZERO DUP5 DUP1 PUSH2 0x383C JUMP JUMPDEST CALLVALUE PUSH2 0x5F1 JUMPI PUSH1 0x20 CALLDATASIZE PUSH1 0x3 NOT ADD SLT PUSH2 0x5F1 JUMPI PUSH1 0x4 CALLDATALOAD PUSH1 0x0 MSTORE PUSH1 0xF PUSH1 0x20 MSTORE PUSH1 0x40 PUSH1 0x0 KECCAK256 PUSH1 0x40 MLOAD PUSH2 0x38A8 DUP2 PUSH2 0x562C JUMP JUMPDEST DUP2 SLOAD DUP2 MSTORE PUSH1 0x40 MLOAD SWAP1 PUSH2 0x38C1 DUP3 PUSH2 0x25AC DUP2 PUSH1 0x1 DUP8 ADD PUSH2 0x57D6 JUMP JUMPDEST PUSH1 0x20 DUP2 ADD SWAP2 DUP3 MSTORE PUSH1 0xFF PUSH1 0x3 PUSH1 0x2 DUP6 ADD SLOAD SWAP5 PUSH1 0x40 DUP5 ADD SWAP6 DUP7 MSTORE ADD SLOAD AND SWAP1 PUSH1 0x60 DUP2 ADD SWAP2 ISZERO ISZERO DUP3 MSTORE PUSH2 0x38F2 DUP2 MLOAD ISZERO ISZERO PUSH2 0x8931 JUMP JUMPDEST MLOAD SWAP2 MLOAD SWAP3 MLOAD SWAP1 MLOAD ISZERO ISZERO PUSH2 0x3917 PUSH1 0x40 MLOAD SWAP5 DUP6 SWAP5 DUP6 MSTORE PUSH1 0x80 PUSH1 0x20 DUP7 ADD MSTORE PUSH1 0x80 DUP6 ADD SWAP1 PUSH2 0x52BE JUMP JUMPDEST SWAP2 PUSH1 0x40 DUP5 ADD MSTORE PUSH1 0x60 DUP4 ADD MSTORE SUB SWAP1 RETURN JUMPDEST CALLVALUE PUSH2 0x5F1 JUMPI PUSH2 0x3934 CALLDATASIZE PUSH2 0x575D JUMP JUMPDEST PUSH2 0x393F SWAP3 SWAP2 SWAP3 PUSH2 0x5C6D JUMP JUMPDEST DUP2 PUSH1 0x0 MSTORE PUSH1 0x20 SWAP3 PUSH1 0xE DUP5 MSTORE PUSH2 0x395A PUSH1 0x40 PUSH1 0x0 KECCAK256 SLOAD ISZERO ISZERO PUSH2 0x88CB JUMP JUMPDEST PUSH2 0x3966 DUP2 MLOAD ISZERO ISZERO PUSH2 0x8819 JUMP JUMPDEST PUSH1 0x0 DUP4 DUP2 MSTORE PUSH1 0xE DUP6 MSTORE PUSH1 0x40 SWAP1 KECCAK256 DUP2 MLOAD SWAP5 SWAP1 PUSH1 0x1 SWAP1 DUP2 ADD SWAP1 PUSH1 0x1 PUSH1 0x1 PUSH1 0x40 SHL SUB DUP8 GT PUSH2 0xD5C JUMPI PUSH2 0x3999 DUP8 PUSH2 0x11CE DUP5 SLOAD PUSH2 0x579C JUMP JUMPDEST DUP3 PUSH1 0x1F DUP9 GT PUSH1 0x1 EQ PUSH2 0x3A07 JUMPI SWAP7 DUP1 DUP1 PUSH1 0xE SWAP6 SWAP5 SWAP4 PUSH1 0x0 DUP1 MLOAD PUSH1 0x20 PUSH2 0x973D DUP4 CODECOPY DUP2 MLOAD SWAP2 MSTORE SWAP10 SWAP11 PUSH1 0x0 SWAP4 PUSH2 0x39FC JUMPI JUMPDEST POP SHL SWAP2 PUSH1 0x0 NOT SWAP1 PUSH1 0x3 SHL SHR NOT AND OR SWAP1 SSTORE JUMPDEST DUP6 PUSH1 0x0 MSTORE MSTORE PUSH2 0x39ED DUP3 PUSH1 0x2 PUSH1 0x40 PUSH1 0x0 KECCAK256 ADD PUSH2 0x6017 JUMP JUMPDEST PUSH2 0xD29 PUSH1 0x40 MLOAD SWAP3 DUP4 SWAP3 DUP4 PUSH2 0x8911 JUMP JUMPDEST DUP9 ADD MLOAD SWAP3 POP DUP12 PUSH2 0x39C6 JUMP JUMPDEST SWAP7 PUSH1 0x1F NOT DUP2 AND SWAP8 DUP4 PUSH1 0x0 MSTORE DUP5 PUSH1 0x0 KECCAK256 SWAP9 PUSH1 0x0 JUMPDEST DUP2 DUP2 LT PUSH2 0x3A67 JUMPI POP SWAP9 DUP3 SWAP2 PUSH1 0xE SWAP7 SWAP6 SWAP5 SWAP4 PUSH1 0x0 DUP1 MLOAD PUSH1 0x20 PUSH2 0x973D DUP4 CODECOPY DUP2 MLOAD SWAP2 MSTORE SWAP11 SWAP12 LT PUSH2 0x3A4E JUMPI JUMPDEST POP POP DUP2 SHL ADD SWAP1 SSTORE PUSH2 0x39D7 JUMP JUMPDEST DUP8 ADD MLOAD PUSH1 0x0 NOT PUSH1 0xF8 DUP5 PUSH1 0x3 SHL AND SHR NOT AND SWAP1 SSTORE DUP10 DUP1 PUSH2 0x3A42 JUMP JUMPDEST DUP8 DUP4 ADD MLOAD DUP12 SSTORE SWAP10 DUP5 ADD SWAP10 SWAP2 DUP7 ADD SWAP2 DUP7 ADD PUSH2 0x3A1A JUMP JUMPDEST PUSH1 0x3 NOT PUSH1 0x40 CALLDATASIZE DUP3 ADD SLT PUSH2 0x5F1 JUMPI PUSH1 0x24 SWAP1 PUSH1 0x1 PUSH1 0x1 PUSH1 0x40 SHL SUB DUP3 CALLDATALOAD GT PUSH2 0x5F1 JUMPI PUSH2 0x100 SWAP1 DUP3 CALLDATALOAD CALLDATASIZE SUB ADD SLT PUSH2 0x5F1 JUMPI PUSH1 0x2 PUSH1 0x1 SLOAD EQ PUSH2 0x423A JUMPI PUSH1 0x2 PUSH1 0x1 SSTORE PUSH1 0x4 CALLDATALOAD PUSH1 0x0 MSTORE PUSH1 0x17 PUSH1 0x20 MSTORE PUSH2 0x3AD4 PUSH1 0xFF PUSH1 0x40 PUSH1 0x0 KECCAK256 SLOAD AND PUSH2 0x7982 JUMP JUMPDEST PUSH1 0x4 CALLDATALOAD PUSH1 0x0 MSTORE PUSH1 0x10 PUSH1 0x20 MSTORE PUSH2 0x3AF7 PUSH1 0xFF PUSH1 0xF PUSH1 0x40 PUSH1 0x0 KECCAK256 ADD SLOAD PUSH1 0x10 SHR AND ISZERO PUSH2 0x79C7 JUMP JUMPDEST PUSH1 0x4 CALLDATALOAD PUSH1 0x0 MSTORE PUSH1 0x10 PUSH1 0x20 MSTORE PUSH1 0x1 DUP1 PUSH1 0xA0 SHL SUB PUSH1 0x1 PUSH1 0x40 PUSH1 0x0 KECCAK256 ADD SLOAD AND PUSH1 0x0 MSTORE PUSH1 0x13 PUSH1 0x20 MSTORE PUSH1 0xFF PUSH1 0x40 PUSH1 0x0 KECCAK256 SLOAD AND PUSH1 0x4 DUP2 LT ISZERO PUSH2 0x4225 JUMPI PUSH1 0x2 SUB PUSH2 0x41E8 JUMPI PUSH1 0x4 CALLDATALOAD PUSH1 0x0 MSTORE PUSH1 0x10 PUSH1 0x20 MSTORE PUSH1 0x5 PUSH1 0x40 PUSH1 0x0 KECCAK256 ADD SLOAD ISZERO PUSH2 0x41AA JUMPI PUSH1 0x4 CALLDATALOAD PUSH1 0x0 MSTORE PUSH1 0x10 PUSH1 0x20 MSTORE PUSH1 0xFF PUSH1 0xF PUSH1 0x40 PUSH1 0x0 KECCAK256 ADD SLOAD AND PUSH2 0x4169 JUMPI PUSH1 0x4 CALLDATALOAD PUSH1 0x0 MSTORE PUSH1 0x10 PUSH1 0x20 MSTORE PUSH1 0x1 DUP1 PUSH1 0xA0 SHL SUB PUSH1 0x1 PUSH1 0x40 PUSH1 0x0 KECCAK256 ADD SLOAD AND CALLER EQ PUSH2 0x4127 JUMPI PUSH2 0x3B98 PUSH1 0x4 DUP3 CALLDATALOAD ADD DUP1 PUSH2 0x6499 JUMP JUMPDEST SWAP1 POP ISZERO PUSH2 0x40EE JUMPI PUSH2 0x3BB0 DUP2 DUP1 CALLDATALOAD ADD DUP3 CALLDATALOAD PUSH1 0x4 ADD PUSH2 0x6499 JUMP JUMPDEST SWAP1 POP ISZERO PUSH2 0x40B0 JUMPI PUSH2 0x3BC9 PUSH1 0x44 DUP3 CALLDATALOAD ADD DUP3 CALLDATALOAD PUSH1 0x4 ADD PUSH2 0x6499 JUMP JUMPDEST SWAP1 POP ISZERO PUSH2 0x407C JUMPI PUSH2 0x3BE2 PUSH1 0x64 DUP3 CALLDATALOAD ADD DUP3 CALLDATALOAD PUSH1 0x4 ADD PUSH2 0x6499 JUMP JUMPDEST SWAP1 POP ISZERO PUSH2 0x4047 JUMPI PUSH2 0x3BFB PUSH1 0x84 DUP3 CALLDATALOAD ADD DUP3 CALLDATALOAD PUSH1 0x4 ADD PUSH2 0x6499 JUMP JUMPDEST SWAP1 POP ISZERO PUSH2 0x4010 JUMPI PUSH2 0x3C14 PUSH1 0xA4 DUP3 CALLDATALOAD ADD DUP3 CALLDATALOAD PUSH1 0x4 ADD PUSH2 0x6499 JUMP JUMPDEST SWAP1 POP ISZERO PUSH2 0x3FD5 JUMPI PUSH2 0x3C39 PUSH2 0x3C30 PUSH1 0xC4 DUP4 CALLDATALOAD ADD DUP4 CALLDATALOAD PUSH1 0x4 ADD PUSH2 0x6499 JUMP JUMPDEST SWAP1 POP ISZERO ISZERO PUSH2 0x61B1 JUMP JUMPDEST PUSH2 0x3C57 PUSH2 0x3C4E PUSH1 0xE4 DUP4 CALLDATALOAD ADD DUP4 CALLDATALOAD PUSH1 0x4 ADD PUSH2 0x6499 JUMP JUMPDEST SWAP1 POP ISZERO ISZERO PUSH2 0x6174 JUMP JUMPDEST PUSH1 0x4 CALLDATALOAD PUSH1 0x0 MSTORE PUSH1 0x10 PUSH1 0x20 MSTORE PUSH1 0x4 PUSH1 0x40 PUSH1 0x0 KECCAK256 ADD SLOAD SWAP1 DUP2 CALLVALUE LT PUSH2 0x3F9C JUMPI PUSH1 0x4 CALLDATALOAD PUSH1 0x0 MSTORE PUSH1 0x10 PUSH1 0x20 MSTORE PUSH1 0x5 PUSH1 0x40 PUSH1 0x0 KECCAK256 ADD DUP1 SLOAD DUP1 ISZERO PUSH2 0x3F87 JUMPI PUSH1 0x0 NOT ADD SWAP1 SSTORE PUSH1 0x4 CALLDATALOAD PUSH1 0x0 MSTORE PUSH1 0x10 PUSH1 0x20 MSTORE PUSH1 0x40 PUSH1 0x0 KECCAK256 PUSH1 0x5 DUP2 ADD SLOAD ISZERO PUSH2 0x3F73 JUMPI JUMPDEST PUSH1 0x1 ADD SLOAD PUSH1 0x40 MLOAD PUSH1 0x1 PUSH1 0x1 PUSH1 0xA0 SHL SUB SWAP1 SWAP2 AND SWAP2 SWAP1 PUSH2 0x3CCC DUP2 PUSH2 0x55F5 JUMP JUMPDEST PUSH1 0x4 DUP3 CALLDATALOAD ADD CALLDATALOAD PUSH1 0x1 PUSH1 0x1 PUSH1 0x40 SHL SUB DUP2 GT PUSH2 0x5F1 JUMPI PUSH2 0x3CF1 SWAP1 PUSH1 0x4 CALLDATASIZE SWAP2 DUP6 CALLDATALOAD ADD ADD PUSH2 0x570D JUMP JUMPDEST DUP2 MSTORE PUSH1 0x1 PUSH1 0x1 PUSH1 0x40 SHL SUB DUP3 CALLDATALOAD DUP4 ADD CALLDATALOAD GT PUSH2 0x5F1 JUMPI PUSH2 0x3D18 CALLDATASIZE DUP4 CALLDATALOAD DUP1 DUP6 ADD CALLDATALOAD ADD PUSH1 0x4 ADD PUSH2 0x570D JUMP JUMPDEST PUSH1 0x20 DUP3 ADD MSTORE DUP2 CALLDATALOAD PUSH1 0x44 ADD CALLDATALOAD PUSH1 0x1 PUSH1 0x1 PUSH1 0x40 SHL SUB DUP2 GT PUSH2 0x5F1 JUMPI PUSH2 0x3D42 SWAP1 PUSH1 0x4 CALLDATASIZE SWAP2 DUP6 CALLDATALOAD ADD ADD PUSH2 0x570D JUMP JUMPDEST PUSH1 0x40 DUP3 ADD MSTORE DUP2 CALLDATALOAD PUSH1 0x64 ADD CALLDATALOAD PUSH1 0x1 PUSH1 0x1 PUSH1 0x40 SHL SUB DUP2 GT PUSH2 0x5F1 JUMPI PUSH2 0x3D6C SWAP1 PUSH1 0x4 CALLDATASIZE SWAP2 DUP6 CALLDATALOAD ADD ADD PUSH2 0x570D JUMP JUMPDEST PUSH1 0x60 DUP3 ADD MSTORE DUP2 CALLDATALOAD PUSH1 0x84 ADD CALLDATALOAD PUSH1 0x1 PUSH1 0x1 PUSH1 0x40 SHL SUB DUP2 GT PUSH2 0x5F1 JUMPI PUSH2 0x3D96 SWAP1 PUSH1 0x4 CALLDATASIZE SWAP2 DUP6 CALLDATALOAD ADD ADD PUSH2 0x570D JUMP JUMPDEST PUSH1 0x80 DUP3 ADD MSTORE DUP2 CALLDATALOAD PUSH1 0xA4 ADD CALLDATALOAD PUSH1 0x1 PUSH1 0x1 PUSH1 0x40 SHL SUB DUP2 GT PUSH2 0x5F1 JUMPI PUSH2 0x3DC0 SWAP1 PUSH1 0x4 CALLDATASIZE SWAP2 DUP6 CALLDATALOAD ADD ADD PUSH2 0x570D JUMP JUMPDEST PUSH1 0xA0 DUP3 ADD MSTORE DUP2 CALLDATALOAD PUSH1 0xC4 ADD CALLDATALOAD PUSH1 0x1 PUSH1 0x1 PUSH1 0x40 SHL SUB DUP2 GT PUSH2 0x5F1 JUMPI PUSH2 0x3DEA SWAP1 PUSH1 0x4 CALLDATASIZE SWAP2 DUP6 CALLDATALOAD ADD ADD PUSH2 0x570D JUMP JUMPDEST PUSH1 0xC0 DUP3 ADD MSTORE DUP2 CALLDATALOAD PUSH1 0xE4 ADD CALLDATALOAD SWAP1 PUSH1 0x1 PUSH1 0x1 PUSH1 0x40 SHL SUB DUP3 GT PUSH2 0x5F1 JUMPI PUSH2 0x3E18 PUSH2 0x3E83 SWAP3 PUSH1 0x4 CALLDATASIZE SWAP2 DUP7 CALLDATALOAD ADD ADD PUSH2 0x570D JUMP JUMPDEST PUSH1 0xE0 DUP3 ADD MSTORE PUSH1 0x40 MLOAD SWAP1 PUSH2 0x3E2A DUP3 PUSH2 0x55F5 JUMP JUMPDEST PUSH1 0x4 CALLDATALOAD DUP3 MSTORE DUP6 PUSH1 0x20 DUP4 ADD MSTORE DUP6 PUSH1 0x40 DUP4 ADD MSTORE TIMESTAMP PUSH1 0x60 DUP4 ADD MSTORE CALLER PUSH1 0x80 DUP4 ADD MSTORE DUP5 PUSH1 0xA0 DUP4 ADD MSTORE PUSH1 0x0 PUSH1 0xC0 DUP4 ADD MSTORE PUSH1 0xE0 DUP3 ADD MSTORE CALLER PUSH1 0x0 MSTORE PUSH1 0x14 PUSH1 0x20 MSTORE PUSH2 0x3E70 DUP2 PUSH1 0x40 PUSH1 0x0 KECCAK256 PUSH2 0x8A40 JUMP JUMPDEST DUP4 PUSH1 0x0 MSTORE PUSH1 0x15 PUSH1 0x20 MSTORE PUSH1 0x40 PUSH1 0x0 KECCAK256 PUSH2 0x8A40 JUMP JUMPDEST DUP2 PUSH1 0x0 MSTORE PUSH1 0x12 PUSH1 0x20 MSTORE PUSH1 0x40 PUSH1 0x0 KECCAK256 DUP1 SLOAD SWAP2 DUP5 DUP4 ADD DUP1 SWAP4 GT PUSH2 0x3F5F JUMPI POP SSTORE PUSH1 0x40 MLOAD DUP3 DUP2 MSTORE DUP3 PUSH1 0x20 DUP3 ADD MSTORE TIMESTAMP PUSH1 0x40 DUP3 ADD MSTORE CALLER SWAP1 PUSH32 0x45280C7AC9CEC77EDD454E39E1641A3E22619146CF074A4239BEEE86A7C07EDC PUSH1 0x60 PUSH1 0x4 CALLDATALOAD SWAP3 LOG4 PUSH1 0x1 PUSH1 0x9 SLOAD ADD PUSH1 0x9 SSTORE PUSH2 0x3EEF DUP2 CALLVALUE PUSH2 0x89E6 JUMP JUMPDEST DUP1 PUSH2 0x3F4F JUMPI JUMPDEST POP PUSH1 0x4 CALLDATALOAD PUSH1 0x0 MSTORE PUSH1 0x10 PUSH1 0x20 MSTORE PUSH1 0x1 DUP1 PUSH1 0xA0 SHL SUB PUSH1 0x1 PUSH1 0x40 PUSH1 0x0 KECCAK256 ADD SLOAD AND SWAP1 PUSH1 0x40 MLOAD SWAP1 DUP2 MSTORE TIMESTAMP PUSH1 0x20 DUP3 ADD MSTORE CALLER SWAP1 PUSH32 0xBE6177108F4DF43C5D7BE79CB219C969FC97915BBDB4B56D14D391DCDCC16060 PUSH1 0x40 PUSH1 0x4 CALLDATALOAD SWAP3 LOG4 PUSH1 0x1 DUP1 SSTORE STOP JUMPDEST PUSH2 0x3F59 SWAP1 CALLER PUSH2 0x9615 JUMP JUMPDEST DUP2 PUSH2 0x3EF5 JUMP JUMPDEST PUSH4 0x4E487B71 PUSH1 0xE0 SHL PUSH1 0x0 SWAP1 DUP2 MSTORE PUSH1 0x11 PUSH1 0x4 MSTORE REVERT JUMPDEST PUSH1 0xF DUP2 ADD DUP1 SLOAD PUSH1 0xFF NOT AND PUSH1 0x1 OR SWAP1 SSTORE PUSH2 0x3CAF JUMP JUMPDEST DUP3 PUSH4 0x4E487B71 PUSH1 0xE0 SHL PUSH1 0x0 MSTORE PUSH1 0x11 PUSH1 0x4 MSTORE PUSH1 0x0 REVERT JUMPDEST PUSH1 0x64 SWAP1 PUSH1 0x12 PUSH1 0x40 MLOAD SWAP2 PUSH3 0x461BCD PUSH1 0xE5 SHL DUP4 MSTORE PUSH1 0x20 PUSH1 0x4 DUP5 ADD MSTORE DUP3 ADD MSTORE PUSH18 0x496E73756666696369656E742066756E6473 PUSH1 0x70 SHL PUSH1 0x44 DUP3 ADD MSTORE REVERT JUMPDEST PUSH1 0x64 SWAP1 PUSH1 0x14 PUSH1 0x40 MLOAD SWAP2 PUSH3 0x461BCD PUSH1 0xE5 SHL DUP4 MSTORE PUSH1 0x20 PUSH1 0x4 DUP5 ADD MSTORE DUP3 ADD MSTORE PUSH20 0x141BDCDD185B0818DBD919481C995C5D5A5C9959 PUSH1 0x62 SHL PUSH1 0x44 DUP3 ADD MSTORE REVERT JUMPDEST PUSH1 0x64 SWAP1 PUSH1 0x10 PUSH1 0x40 MLOAD SWAP2 PUSH3 0x461BCD PUSH1 0xE5 SHL DUP4 MSTORE PUSH1 0x20 PUSH1 0x4 DUP5 ADD MSTORE DUP3 ADD MSTORE PUSH16 0x10DBDD5B9D1C9E481C995C5D5A5C9959 PUSH1 0x82 SHL PUSH1 0x44 DUP3 ADD MSTORE REVERT JUMPDEST PUSH1 0x64 SWAP1 PUSH1 0xE PUSH1 0x40 MLOAD SWAP2 PUSH3 0x461BCD PUSH1 0xE5 SHL DUP4 MSTORE PUSH1 0x20 PUSH1 0x4 DUP5 ADD MSTORE DUP3 ADD MSTORE PUSH14 0x14DD185D19481C995C5D5A5C9959 PUSH1 0x92 SHL PUSH1 0x44 DUP3 ADD MSTORE REVERT JUMPDEST PUSH1 0x64 SWAP1 PUSH1 0xD PUSH1 0x40 MLOAD SWAP2 PUSH3 0x461BCD PUSH1 0xE5 SHL DUP4 MSTORE PUSH1 0x20 PUSH1 0x4 DUP5 ADD MSTORE DUP3 ADD MSTORE PUSH13 0x10DA5D1E481C995C5D5A5C9959 PUSH1 0x9A SHL PUSH1 0x44 DUP3 ADD MSTORE REVERT JUMPDEST PUSH1 0x64 SWAP1 PUSH1 0x17 PUSH1 0x40 MLOAD SWAP2 PUSH3 0x461BCD PUSH1 0xE5 SHL DUP4 MSTORE PUSH1 0x20 PUSH1 0x4 DUP5 ADD MSTORE DUP3 ADD MSTORE PUSH23 0x14DD1C99595D081859191C995CDCC81C995C5D5A5C9959 PUSH1 0x4A SHL PUSH1 0x44 DUP3 ADD MSTORE REVERT JUMPDEST PUSH1 0x64 SWAP1 PUSH1 0x12 PUSH1 0x40 MLOAD SWAP2 PUSH3 0x461BCD PUSH1 0xE5 SHL DUP4 MSTORE PUSH1 0x20 PUSH1 0x4 DUP5 ADD MSTORE DUP3 ADD MSTORE PUSH18 0x119D5B1B081B985B59481C995C5D5A5C9959 PUSH1 0x72 SHL PUSH1 0x44 DUP3 ADD MSTORE REVERT JUMPDEST PUSH1 0x64 SWAP1 PUSH1 0x1B PUSH1 0x40 MLOAD SWAP2 PUSH3 0x461BCD PUSH1 0xE5 SHL DUP4 MSTORE PUSH1 0x20 PUSH1 0x4 DUP5 ADD MSTORE DUP3 ADD MSTORE PUSH27 0x10D85B9B9BDD08189D5E481E5BDD5C881BDDDB881C1C9BD91D58DD PUSH1 0x2A SHL PUSH1 0x44 DUP3 ADD MSTORE REVERT JUMPDEST PUSH1 0x64 SWAP1 PUSH1 0x1A PUSH1 0x40 MLOAD SWAP2 PUSH3 0x461BCD PUSH1 0xE5 SHL DUP4 MSTORE PUSH1 0x20 PUSH1 0x4 DUP5 ADD MSTORE DUP3 ADD MSTORE PUSH26 0x141C9BD91D58DD081A5CC8185B1C9958591E481CDBDB191BDD5D PUSH1 0x32 SHL PUSH1 0x44 DUP3 ADD MSTORE REVERT JUMPDEST PUSH1 0x64 SWAP1 PUSH1 0x17 PUSH1 0x40 MLOAD SWAP2 PUSH3 0x461BCD PUSH1 0xE5 SHL DUP4 MSTORE PUSH1 0x20 PUSH1 0x4 DUP5 ADD MSTORE DUP3 ADD MSTORE PUSH23 0x50726F64756374206973206F7574206F662073746F636B PUSH1 0x48 SHL PUSH1 0x44 DUP3 ADD MSTORE REVERT JUMPDEST PUSH1 0x64 SWAP1 PUSH1 0x16 PUSH1 0x40 MLOAD SWAP2 PUSH3 0x461BCD PUSH1 0xE5 SHL DUP4 MSTORE PUSH1 0x20 PUSH1 0x4 DUP5 ADD MSTORE DUP3 ADD MSTORE PUSH22 0x14D95B1B195C881A5CC81B9BDD081D995C9A599A5959 PUSH1 0x52 SHL PUSH1 0x44 DUP3 ADD MSTORE REVERT JUMPDEST POP PUSH4 0x4E487B71 PUSH1 0xE0 SHL PUSH1 0x0 SWAP1 DUP2 MSTORE PUSH1 0x21 PUSH1 0x4 MSTORE REVERT JUMPDEST PUSH1 0x64 SWAP1 PUSH1 0x1F PUSH1 0x40 MLOAD SWAP2 PUSH3 0x461BCD PUSH1 0xE5 SHL DUP4 MSTORE PUSH1 0x20 PUSH1 0x4 DUP5 ADD MSTORE DUP3 ADD MSTORE PUSH32 0x5265656E7472616E637947756172643A207265656E7472616E742063616C6C00 PUSH1 0x44 DUP3 ADD MSTORE REVERT JUMPDEST CALLVALUE PUSH2 0x5F1 JUMPI PUSH1 0x20 CALLDATASIZE PUSH1 0x3 NOT ADD SLT PUSH2 0x5F1 JUMPI PUSH1 0x20 PUSH2 0x429C PUSH1 0x4 CALLDATALOAD PUSH2 0x5D0C JUMP JUMPDEST PUSH1 0x40 MLOAD PUSH1 0x1 PUSH1 0x1 PUSH1 0xA0 SHL SUB SWAP1 SWAP2 AND DUP2 MSTORE RETURN JUMPDEST CALLVALUE PUSH2 0x5F1 JUMPI PUSH1 0x20 CALLDATASIZE PUSH1 0x3 NOT ADD SLT PUSH2 0x5F1 JUMPI PUSH1 0x1 PUSH1 0x1 PUSH1 0xA0 SHL SUB PUSH2 0x42CF PUSH2 0x55AD JUMP JUMPDEST AND PUSH1 0x0 MSTORE PUSH1 0x12 PUSH1 0x20 MSTORE PUSH1 0x20 PUSH1 0x40 PUSH1 0x0 KECCAK256 SLOAD PUSH1 0x40 MLOAD SWAP1 DUP2 MSTORE RETURN JUMPDEST CALLVALUE PUSH2 0x5F1 JUMPI PUSH1 0x20 CALLDATASIZE PUSH1 0x3 NOT ADD SLT PUSH2 0x5F1 JUMPI PUSH1 0x4 CALLDATALOAD PUSH2 0x4304 PUSH2 0x5C6D JUMP JUMPDEST PUSH1 0x64 DUP2 GT PUSH2 0x4311 JUMPI PUSH1 0xB SSTORE STOP JUMPDEST PUSH1 0x40 MLOAD PUSH3 0x461BCD PUSH1 0xE5 SHL DUP2 MSTORE PUSH1 0x20 PUSH1 0x4 DUP3 ADD MSTORE PUSH1 0x12 PUSH1 0x24 DUP3 ADD MSTORE PUSH18 0x496E76616C69642070657263656E74616765 PUSH1 0x70 SHL PUSH1 0x44 DUP3 ADD MSTORE PUSH1 0x64 SWAP1 REVERT JUMPDEST CALLVALUE PUSH2 0x5F1 JUMPI PUSH1 0x20 CALLDATASIZE PUSH1 0x3 NOT ADD SLT PUSH2 0x5F1 JUMPI PUSH1 0x4 CALLDATALOAD PUSH1 0x1C SLOAD DUP2 LT ISZERO PUSH2 0x5F1 JUMPI PUSH2 0x4374 PUSH1 0x20 SWAP2 PUSH2 0x5A5F JUMP JUMPDEST SWAP1 SLOAD PUSH1 0x40 MLOAD PUSH1 0x3 SWAP3 SWAP1 SWAP3 SHL SHR PUSH1 0x1 PUSH1 0x1 PUSH1 0xA0 SHL SUB AND DUP2 MSTORE RETURN JUMPDEST CALLVALUE PUSH2 0x5F1 JUMPI PUSH1 0x20 CALLDATASIZE PUSH1 0x3 NOT ADD SLT PUSH2 0x5F1 JUMPI PUSH1 0x1 PUSH1 0x1 PUSH1 0xA0 SHL SUB PUSH2 0x43AE PUSH2 0x55AD JUMP JUMPDEST AND PUSH1 0x0 MSTORE PUSH1 0x13 PUSH1 0x20 MSTORE PUSH1 0x20 PUSH1 0xFF PUSH1 0x40 PUSH1 0x0 KECCAK256 SLOAD AND PUSH2 0x7B3 PUSH1 0x40 MLOAD DUP1 SWAP3 PUSH2 0x5A52 JUMP JUMPDEST CALLVALUE PUSH2 0x5F1 JUMPI PUSH1 0x20 DUP1 PUSH1 0x3 NOT CALLDATASIZE ADD SLT PUSH2 0x5F1 JUMPI PUSH2 0x43E9 PUSH2 0x55AD JUMP JUMPDEST PUSH2 0x43F1 PUSH2 0x62ED JUMP JUMPDEST POP PUSH1 0x1 PUSH1 0x1 PUSH1 0xA0 SHL SUB AND PUSH1 0x0 DUP2 DUP2 MSTORE PUSH1 0x16 DUP4 MSTORE PUSH1 0x40 SWAP1 KECCAK256 SLOAD PUSH2 0x4415 SWAP1 PUSH1 0xFF AND PUSH2 0x62A9 JUMP JUMPDEST PUSH1 0x0 MSTORE PUSH1 0xD DUP2 MSTORE PUSH1 0x40 PUSH1 0x0 KECCAK256 SWAP1 PUSH1 0xFF PUSH1 0x6 PUSH1 0x40 MLOAD SWAP4 PUSH2 0x4433 DUP6 PUSH2 0x5611 JUMP JUMPDEST PUSH1 0x40 MLOAD PUSH2 0x4444 DUP2 PUSH2 0x3DA DUP2 DUP6 PUSH2 0x57D6 JUMP JUMPDEST DUP6 MSTORE PUSH1 0x40 MLOAD PUSH2 0x445A DUP2 PUSH2 0x3DA DUP2 PUSH1 0x1 DUP7 ADD PUSH2 0x57D6 JUMP JUMPDEST DUP5 DUP7 ADD MSTORE PUSH1 0x40 MLOAD PUSH2 0x4472 DUP2 PUSH2 0x3DA DUP2 PUSH1 0x2 DUP7 ADD PUSH2 0x57D6 JUMP JUMPDEST PUSH1 0x40 DUP7 ADD MSTORE PUSH1 0x40 MLOAD PUSH2 0x448B DUP2 PUSH2 0x3DA DUP2 PUSH1 0x3 DUP7 ADD PUSH2 0x57D6 JUMP JUMPDEST PUSH1 0x60 DUP7 ADD MSTORE PUSH1 0x40 MLOAD PUSH2 0x44A4 DUP2 PUSH2 0x3DA DUP2 PUSH1 0x4 DUP7 ADD PUSH2 0x57D6 JUMP JUMPDEST PUSH1 0x80 DUP7 ADD MSTORE PUSH1 0x5 DUP2 ADD SLOAD PUSH1 0xA0 DUP7 ADD MSTORE ADD SLOAD AND ISZERO ISZERO PUSH1 0xC0 DUP4 ADD MSTORE PUSH2 0x369 PUSH1 0x40 MLOAD SWAP3 DUP3 DUP5 SWAP4 DUP5 MSTORE DUP4 ADD SWAP1 PUSH2 0x59D2 JUMP JUMPDEST CALLVALUE PUSH2 0x5F1 JUMPI PUSH2 0x781 PUSH2 0x44E2 CALLDATASIZE PUSH2 0x5728 JUMP JUMPDEST SWAP1 PUSH1 0x40 MLOAD SWAP3 PUSH2 0x44F0 DUP5 PUSH2 0x567D JUMP JUMPDEST PUSH1 0x0 DUP5 MSTORE PUSH2 0x5DB8 JUMP JUMPDEST CALLVALUE PUSH2 0x5F1 JUMPI PUSH1 0x0 CALLDATASIZE PUSH1 0x3 NOT ADD SLT PUSH2 0x5F1 JUMPI PUSH2 0x781 PUSH2 0x911C JUMP JUMPDEST CALLVALUE PUSH2 0x5F1 JUMPI PUSH1 0x20 DUP1 PUSH1 0x3 NOT CALLDATASIZE ADD SLT PUSH2 0x5F1 JUMPI PUSH1 0x1 PUSH1 0x1 PUSH1 0xA0 SHL SUB SWAP1 DUP2 PUSH2 0x4536 PUSH2 0x55AD JUMP JUMPDEST AND PUSH1 0x0 MSTORE PUSH1 0x15 DUP2 MSTORE PUSH1 0x40 PUSH1 0x0 KECCAK256 DUP1 SLOAD SWAP1 PUSH2 0x454F DUP3 PUSH2 0x636E JUMP JUMPDEST SWAP3 PUSH2 0x455D PUSH1 0x40 MLOAD SWAP5 DUP6 PUSH2 0x5698 JUMP JUMPDEST DUP3 DUP5 MSTORE PUSH1 0x0 SWAP2 DUP3 MSTORE DUP1 DUP3 KECCAK256 DUP2 DUP6 ADD JUMPDEST DUP5 DUP5 LT PUSH2 0x4581 JUMPI PUSH1 0x40 MLOAD DUP1 PUSH2 0x369 DUP9 DUP3 PUSH2 0x5914 JUMP JUMPDEST PUSH1 0xE DUP4 PUSH1 0x1 SWAP3 PUSH1 0x40 MLOAD PUSH2 0x4593 DUP2 PUSH2 0x55F5 JUMP JUMPDEST DUP6 SLOAD DUP2 MSTORE DUP5 DUP7 ADD SLOAD DUP4 DUP3 ADD MSTORE PUSH1 0x2 DUP7 ADD SLOAD PUSH1 0x40 DUP3 ADD MSTORE PUSH1 0x3 DUP7 ADD SLOAD PUSH1 0x60 DUP3 ADD MSTORE DUP11 PUSH1 0x4 DUP8 ADD SLOAD AND PUSH1 0x80 DUP3 ADD MSTORE PUSH1 0xFF PUSH1 0x5 DUP8 ADD SLOAD PUSH1 0xA0 DUP14 DUP3 AND DUP2 DUP6 ADD MSTORE SHR AND ISZERO ISZERO PUSH1 0xC0 DUP3 ADD MSTORE PUSH2 0x45E4 PUSH1 0x6 DUP8 ADD PUSH2 0x5B23 JUMP JUMPDEST PUSH1 0xE0 DUP3 ADD MSTORE DUP2 MSTORE ADD SWAP3 ADD SWAP4 ADD SWAP3 SWAP1 PUSH2 0x456C JUMP JUMPDEST CALLVALUE PUSH2 0x5F1 JUMPI PUSH1 0x20 CALLDATASIZE PUSH1 0x3 NOT ADD SLT PUSH2 0x5F1 JUMPI PUSH1 0x1 PUSH1 0x1 PUSH1 0xA0 SHL SUB PUSH2 0x4618 PUSH2 0x55AD JUMP JUMPDEST AND PUSH1 0x0 MSTORE PUSH1 0x1B PUSH1 0x20 MSTORE PUSH2 0x468B PUSH1 0x40 PUSH1 0x0 KECCAK256 PUSH1 0x40 MLOAD SWAP1 PUSH2 0x463B DUP3 PUSH2 0x25AC DUP2 DUP5 PUSH2 0x57D6 JUMP JUMPDEST PUSH1 0x40 MLOAD PUSH2 0x464F DUP2 PUSH2 0x3DA DUP2 PUSH1 0x1 DUP7 ADD PUSH2 0x57D6 JUMP JUMPDEST PUSH2 0x46A7 PUSH1 0x40 MLOAD PUSH2 0x4666 DUP2 PUSH2 0x3DA DUP2 PUSH1 0x2 DUP9 ADD PUSH2 0x57D6 JUMP JUMPDEST PUSH2 0x4699 PUSH1 0xFF PUSH1 0x4 PUSH1 0x3 DUP8 ADD SLOAD SWAP7 ADD SLOAD AND SWAP4 PUSH1 0x40 MLOAD SWAP8 DUP9 SWAP8 PUSH1 0xA0 DUP10 MSTORE PUSH1 0xA0 DUP10 ADD SWAP1 PUSH2 0x52BE JUMP JUMPDEST SWAP1 DUP8 DUP3 SUB PUSH1 0x20 DUP10 ADD MSTORE PUSH2 0x52BE JUMP JUMPDEST SWAP1 DUP6 DUP3 SUB PUSH1 0x40 DUP8 ADD MSTORE PUSH2 0x52BE JUMP JUMPDEST SWAP2 PUSH1 0x60 DUP5 ADD MSTORE ISZERO ISZERO PUSH1 0x80 DUP4 ADD MSTORE SUB SWAP1 RETURN JUMPDEST CALLVALUE PUSH2 0x5F1 JUMPI PUSH2 0x46C6 CALLDATASIZE PUSH2 0x575D JUMP JUMPDEST PUSH2 0x46D1 SWAP3 SWAP2 SWAP3 PUSH2 0x5C6D JUMP JUMPDEST DUP2 PUSH1 0x0 MSTORE PUSH1 0x20 SWAP3 PUSH1 0xF DUP5 MSTORE PUSH2 0x46EC PUSH1 0x40 PUSH1 0x0 KECCAK256 SLOAD ISZERO ISZERO PUSH2 0x8931 JUMP JUMPDEST PUSH2 0x46F8 DUP2 MLOAD ISZERO ISZERO PUSH2 0x8865 JUMP JUMPDEST PUSH1 0x0 DUP4 DUP2 MSTORE PUSH1 0xF DUP6 MSTORE PUSH1 0x40 SWAP1 KECCAK256 DUP2 MLOAD SWAP5 SWAP1 PUSH1 0x1 SWAP1 DUP2 ADD SWAP1 PUSH1 0x1 PUSH1 0x1 PUSH1 0x40 SHL SUB DUP8 GT PUSH2 0xD5C JUMPI PUSH2 0x472B DUP8 PUSH2 0x11CE DUP5 SLOAD PUSH2 0x579C JUMP JUMPDEST DUP3 PUSH1 0x1F DUP9 GT PUSH1 0x1 EQ PUSH2 0x478A JUMPI SWAP7 DUP1 DUP1 PUSH1 0xF SWAP6 SWAP5 SWAP4 PUSH1 0x0 DUP1 MLOAD PUSH1 0x20 PUSH2 0x97BD DUP4 CODECOPY DUP2 MLOAD SWAP2 MSTORE SWAP10 SWAP11 PUSH1 0x0 SWAP4 PUSH2 0x477F JUMPI JUMPDEST POP SHL SWAP2 PUSH1 0x0 NOT SWAP1 PUSH1 0x3 SHL SHR NOT AND OR SWAP1 SSTORE JUMPDEST DUP6 PUSH1 0x0 MSTORE MSTORE PUSH2 0x39ED DUP3 PUSH1 0x3 PUSH1 0x40 PUSH1 0x0 KECCAK256 ADD PUSH2 0x6017 JUMP JUMPDEST DUP9 ADD MLOAD SWAP3 POP DUP12 PUSH2 0x4758 JUMP JUMPDEST SWAP7 PUSH1 0x1F NOT DUP2 AND SWAP8 DUP4 PUSH1 0x0 MSTORE DUP5 PUSH1 0x0 KECCAK256 SWAP9 PUSH1 0x0 JUMPDEST DUP2 DUP2 LT PUSH2 0x47EA JUMPI POP SWAP9 DUP3 SWAP2 PUSH1 0xF SWAP7 SWAP6 SWAP5 SWAP4 PUSH1 0x0 DUP1 MLOAD PUSH1 0x20 PUSH2 0x97BD DUP4 CODECOPY DUP2 MLOAD SWAP2 MSTORE SWAP11 SWAP12 LT PUSH2 0x47D1 JUMPI JUMPDEST POP POP DUP2 SHL ADD SWAP1 SSTORE PUSH2 0x4769 JUMP JUMPDEST DUP8 ADD MLOAD PUSH1 0x0 NOT PUSH1 0xF8 DUP5 PUSH1 0x3 SHL AND SHR NOT AND SWAP1 SSTORE DUP10 DUP1 PUSH2 0x47C5 JUMP JUMPDEST DUP8 DUP4 ADD MLOAD DUP12 SSTORE SWAP10 DUP5 ADD SWAP10 SWAP2 DUP7 ADD SWAP2 DUP7 ADD PUSH2 0x479D JUMP JUMPDEST CALLVALUE PUSH2 0x5F1 JUMPI PUSH1 0x40 CALLDATASIZE PUSH1 0x3 NOT ADD SLT PUSH2 0x5F1 JUMPI PUSH1 0x24 PUSH1 0x0 PUSH1 0x4 CALLDATALOAD DUP3 CALLDATALOAD DUP3 JUMPDEST DUP3 PUSH1 0x0 MSTORE PUSH1 0x10 PUSH1 0x20 DUP2 DUP2 MSTORE DUP2 PUSH1 0x40 PUSH1 0x0 KECCAK256 ADD DUP1 SLOAD DUP5 LT ISZERO PUSH2 0x4A11 JUMPI PUSH2 0x4841 DUP5 DUP7 SWAP3 PUSH2 0x8A24 JUMP JUMPDEST POP SLOAD EQ PUSH2 0x4858 JUMPI POP POP PUSH2 0x4853 SWAP1 PUSH2 0x635F JUMP JUMPDEST PUSH2 0x481B JUMP JUMPDEST SWAP2 SWAP4 SWAP5 POP SWAP2 PUSH1 0x0 MSTORE PUSH1 0x18 DUP2 MSTORE PUSH1 0xFF SWAP4 DUP5 PUSH1 0x40 PUSH1 0x0 KECCAK256 SLOAD AND ISZERO PUSH2 0x49D5 JUMPI DUP1 PUSH1 0x0 MSTORE DUP3 DUP3 MSTORE PUSH2 0x488B DUP5 DUP5 PUSH1 0x40 PUSH1 0x0 KECCAK256 ADD PUSH2 0x8A24 JUMP JUMPDEST POP PUSH1 0x1 SWAP1 DUP2 ADD SLOAD SWAP1 SWAP6 SWAP1 CALLER PUSH1 0x1 PUSH1 0x1 PUSH1 0xA0 SHL SUB SWAP2 DUP3 AND EQ SWAP1 DUP2 ISZERO PUSH2 0x49C7 JUMPI JUMPDEST POP ISZERO PUSH2 0x4972 JUMPI DUP2 PUSH1 0x0 MSTORE DUP4 DUP4 MSTORE PUSH1 0x4 PUSH2 0x48C9 DUP7 DUP7 PUSH1 0x40 PUSH1 0x0 KECCAK256 ADD PUSH2 0x8A24 JUMP JUMPDEST POP ADD SLOAD AND PUSH2 0x4935 JUMPI SWAP2 DUP1 PUSH1 0x4 SWAP5 SWAP3 PUSH2 0x48EA SWAP5 PUSH1 0x0 MSTORE MSTORE PUSH1 0x40 PUSH1 0x0 KECCAK256 ADD PUSH2 0x8A24 JUMP JUMPDEST POP ADD DUP1 SLOAD PUSH1 0xFF NOT AND DUP3 OR SWAP1 SSTORE JUMPDEST ISZERO PUSH2 0x48FE JUMPI STOP JUMPDEST PUSH1 0x64 SWAP1 PUSH1 0x10 PUSH1 0x40 MLOAD SWAP2 PUSH3 0x461BCD PUSH1 0xE5 SHL DUP4 MSTORE PUSH1 0x20 PUSH1 0x4 DUP5 ADD MSTORE DUP3 ADD MSTORE PUSH16 0x14995D9A595DC81B9BDD08199BDD5B99 PUSH1 0x82 SHL PUSH1 0x44 DUP3 ADD MSTORE REVERT JUMPDEST PUSH1 0x40 MLOAD PUSH3 0x461BCD PUSH1 0xE5 SHL DUP2 MSTORE PUSH1 0x4 DUP2 ADD DUP4 SWAP1 MSTORE PUSH1 0x16 DUP2 DUP9 ADD MSTORE PUSH22 0x14995D9A595DC8185B1C9958591E4819195B195D1959 PUSH1 0x52 SHL PUSH1 0x44 DUP3 ADD MSTORE PUSH1 0x64 SWAP1 REVERT JUMPDEST PUSH1 0x40 MLOAD PUSH3 0x461BCD PUSH1 0xE5 SHL DUP2 MSTORE PUSH1 0x4 DUP2 ADD DUP5 SWAP1 MSTORE PUSH1 0x28 DUP2 DUP10 ADD MSTORE PUSH32 0x4F6E6C79207265766965776572206F72206F776E65722063616E2064656C6574 PUSH1 0x44 DUP3 ADD MSTORE PUSH8 0x6520726576696577 PUSH1 0xC0 SHL PUSH1 0x64 DUP3 ADD MSTORE PUSH1 0x84 SWAP1 REVERT JUMPDEST PUSH1 0x0 SLOAD AND CALLER EQ SWAP1 POP DUP9 PUSH2 0x48AA JUMP JUMPDEST PUSH1 0x40 MLOAD PUSH3 0x461BCD PUSH1 0xE5 SHL DUP2 MSTORE PUSH1 0x4 DUP2 ADD DUP4 SWAP1 MSTORE PUSH1 0x15 DUP2 DUP9 ADD MSTORE PUSH21 0x14995D9A595DC8191BD95CC81B9BDD08195E1A5CDD PUSH1 0x5A SHL PUSH1 0x44 DUP3 ADD MSTORE PUSH1 0x64 SWAP1 REVERT JUMPDEST POP POP POP POP POP POP PUSH2 0x48F7 JUMP JUMPDEST CALLVALUE PUSH2 0x5F1 JUMPI PUSH2 0x781 PUSH2 0x4A2D CALLDATASIZE PUSH2 0x5728 JUMP JUMPDEST SWAP2 PUSH2 0x4A40 PUSH2 0x4A3B DUP5 CALLER PUSH2 0x5E53 JUMP JUMPDEST PUSH2 0x5D56 JUMP JUMPDEST PUSH2 0x5F1B JUMP JUMPDEST CALLVALUE PUSH2 0x5F1 JUMPI PUSH1 0x20 CALLDATASIZE PUSH1 0x3 NOT ADD SLT PUSH2 0x5F1 JUMPI PUSH1 0x4 CALLDATALOAD PUSH2 0x4A61 PUSH2 0x5C6D JUMP JUMPDEST DUP1 PUSH1 0x0 MSTORE PUSH1 0xF PUSH1 0x20 MSTORE PUSH2 0x4A7A PUSH1 0x40 PUSH1 0x0 KECCAK256 SLOAD ISZERO ISZERO PUSH2 0x8931 JUMP JUMPDEST DUP1 PUSH1 0x0 MSTORE PUSH1 0xF PUSH1 0x20 MSTORE PUSH1 0x0 DUP1 MLOAD PUSH1 0x20 PUSH2 0x97BD DUP4 CODECOPY DUP2 MLOAD SWAP2 MSTORE PUSH2 0x19AE PUSH1 0x40 PUSH1 0x0 KECCAK256 PUSH1 0x3 DUP2 ADD PUSH1 0xFF NOT DUP2 SLOAD AND SWAP1 SSTORE PUSH1 0x40 MLOAD SWAP2 DUP3 SWAP2 PUSH1 0x40 DUP4 MSTORE PUSH1 0x1 PUSH1 0x40 DUP5 ADD SWAP2 ADD PUSH2 0x57D6 JUMP JUMPDEST CALLVALUE PUSH2 0x5F1 JUMPI PUSH1 0x60 CALLDATASIZE PUSH1 0x3 NOT ADD SLT PUSH2 0x5F1 JUMPI PUSH1 0x24 DUP1 CALLDATALOAD PUSH1 0x4 CALLDATALOAD PUSH1 0x44 CALLDATALOAD PUSH1 0x1 PUSH1 0x1 PUSH1 0x40 SHL SUB DUP2 GT PUSH2 0x5F1 JUMPI PUSH2 0x4AF4 SWAP1 CALLDATASIZE SWAP1 PUSH1 0x4 ADD PUSH2 0x570D JUMP JUMPDEST SWAP1 DUP1 PUSH1 0x0 MSTORE PUSH1 0x20 SWAP2 PUSH1 0x10 DUP4 MSTORE PUSH1 0x1 DUP1 PUSH1 0xA0 SHL SUB PUSH1 0x1 PUSH1 0x40 PUSH1 0x0 KECCAK256 ADD SLOAD AND CALLER EQ PUSH2 0x4C62 JUMPI DUP4 ISZERO ISZERO DUP1 PUSH2 0x4C57 JUMPI JUMPDEST ISZERO PUSH2 0x4C13 JUMPI DUP1 MLOAD ISZERO PUSH2 0x4BD5 JUMPI SWAP1 PUSH1 0x10 SWAP3 SWAP2 PUSH1 0x1 PUSH1 0xA SLOAD ADD SWAP1 DUP2 PUSH1 0xA SSTORE PUSH2 0x4B44 PUSH2 0x89F3 JUMP JUMPDEST SWAP6 DUP3 DUP8 MSTORE CALLER DUP6 DUP9 ADD MSTORE PUSH1 0x40 DUP8 ADD MSTORE PUSH1 0x60 DUP7 ADD MSTORE TIMESTAMP PUSH1 0xA0 DUP7 ADD MSTORE PUSH1 0x0 MSTORE PUSH1 0x18 DUP3 MSTORE PUSH1 0x40 PUSH1 0x0 KECCAK256 PUSH1 0x1 PUSH1 0xFF NOT DUP3 SLOAD AND OR SWAP1 SSTORE PUSH1 0x0 MSTORE MSTORE PUSH1 0x10 PUSH1 0x40 PUSH1 0x0 KECCAK256 ADD DUP1 SLOAD PUSH1 0x1 PUSH1 0x40 SHL DUP2 LT ISZERO PUSH2 0x4BC0 JUMPI PUSH2 0x4B9D SWAP2 PUSH1 0x1 DUP3 ADD DUP2 SSTORE PUSH2 0x8A24 JUMP JUMPDEST PUSH2 0x4BAB JUMPI PUSH2 0x781 SWAP3 POP PUSH2 0x6913 JUMP JUMPDEST DUP3 PUSH4 0x4E487B71 PUSH1 0xE0 SHL PUSH1 0x0 MSTORE PUSH1 0x0 PUSH1 0x4 MSTORE PUSH1 0x0 REVERT JUMPDEST DUP4 PUSH4 0x4E487B71 PUSH1 0xE0 SHL PUSH1 0x0 MSTORE PUSH1 0x41 PUSH1 0x4 MSTORE PUSH1 0x0 REVERT JUMPDEST PUSH1 0x40 MLOAD PUSH3 0x461BCD PUSH1 0xE5 SHL DUP2 MSTORE PUSH1 0x4 DUP2 ADD DUP5 SWAP1 MSTORE PUSH1 0x17 DUP2 DUP8 ADD MSTORE PUSH23 0x436F6D6D656E742063616E6E6F7420626520656D707479 PUSH1 0x48 SHL PUSH1 0x44 DUP3 ADD MSTORE PUSH1 0x64 SWAP1 REVERT JUMPDEST PUSH1 0x40 MLOAD PUSH3 0x461BCD PUSH1 0xE5 SHL DUP2 MSTORE PUSH1 0x4 DUP2 ADD DUP5 SWAP1 MSTORE PUSH1 0x1E DUP2 DUP8 ADD MSTORE PUSH32 0x526174696E67206D757374206265206265747765656E203120616E6420350000 PUSH1 0x44 DUP3 ADD MSTORE PUSH1 0x64 SWAP1 REVERT JUMPDEST POP PUSH1 0x5 DUP5 GT ISZERO PUSH2 0x4B20 JUMP JUMPDEST PUSH1 0x40 MLOAD PUSH3 0x461BCD PUSH1 0xE5 SHL DUP2 MSTORE PUSH1 0x4 DUP2 ADD DUP5 SWAP1 MSTORE PUSH1 0x26 DUP2 DUP8 ADD MSTORE PUSH32 0x53656C6C65722063616E6E6F7420726576696577207468656972206F776E2070 PUSH1 0x44 DUP3 ADD MSTORE PUSH6 0x1C9BD91D58DD PUSH1 0xD2 SHL PUSH1 0x64 DUP3 ADD MSTORE PUSH1 0x84 SWAP1 REVERT JUMPDEST CALLVALUE PUSH2 0x5F1 JUMPI PUSH1 0x0 CALLDATASIZE PUSH1 0x3 NOT ADD SLT PUSH2 0x5F1 JUMPI PUSH2 0x4CCE PUSH2 0x5C6D JUMP JUMPDEST CALLER PUSH1 0x0 MSTORE PUSH1 0x19 PUSH1 0x20 MSTORE PUSH1 0x40 PUSH1 0x0 KECCAK256 PUSH1 0x1 DUP1 PUSH1 0xA0 SHL SUB NOT DUP2 SLOAD AND SWAP1 SSTORE PUSH1 0x0 DUP1 MLOAD PUSH1 0x20 PUSH2 0x96FD DUP4 CODECOPY DUP2 MLOAD SWAP2 MSTORE PUSH1 0x40 DUP1 MLOAD CALLER DUP2 MSTORE PUSH1 0x0 PUSH1 0x20 DUP3 ADD MSTORE LOG1 STOP JUMPDEST CALLVALUE PUSH2 0x5F1 JUMPI PUSH1 0x40 CALLDATASIZE PUSH1 0x3 NOT ADD SLT PUSH2 0x5F1 JUMPI PUSH2 0x781 PUSH2 0x4D25 PUSH2 0x55C3 JUMP JUMPDEST PUSH1 0x4 CALLDATALOAD PUSH2 0x92B2 JUMP JUMPDEST CALLVALUE PUSH2 0x5F1 JUMPI PUSH1 0x20 CALLDATASIZE PUSH1 0x3 NOT ADD SLT PUSH2 0x5F1 JUMPI PUSH1 0x1 PUSH1 0x1 PUSH1 0xA0 SHL SUB PUSH2 0x4D4E PUSH2 0x55AD JUMP JUMPDEST AND PUSH1 0x0 MSTORE PUSH1 0x1A PUSH1 0x20 MSTORE PUSH1 0x20 PUSH1 0xFF PUSH1 0x40 PUSH1 0x0 KECCAK256 SLOAD AND PUSH1 0x40 MLOAD SWAP1 ISZERO ISZERO DUP2 MSTORE RETURN JUMPDEST CALLVALUE PUSH2 0x5F1 JUMPI PUSH1 0x40 CALLDATASIZE PUSH1 0x3 NOT ADD SLT PUSH2 0x5F1 JUMPI PUSH2 0x4D85 PUSH2 0x55AD JUMP JUMPDEST PUSH1 0x24 CALLDATALOAD SWAP1 PUSH1 0x1 PUSH1 0x1 PUSH1 0xA0 SHL SUB DUP1 DUP1 PUSH2 0x4D9C DUP6 PUSH2 0x5D0C JUMP JUMPDEST AND SWAP3 AND SWAP2 DUP1 DUP4 EQ PUSH2 0x4E97 JUMPI DUP1 CALLER EQ SWAP1 DUP2 ISZERO PUSH2 0x4E72 JUMPI JUMPDEST POP ISZERO PUSH2 0x4E07 JUMPI PUSH1 0x0 DUP4 DUP2 MSTORE PUSH1 0x6 PUSH1 0x20 MSTORE PUSH1 0x40 SWAP1 KECCAK256 DUP1 SLOAD PUSH1 0x1 PUSH1 0x1 PUSH1 0xA0 SHL SUB NOT AND DUP4 OR SWAP1 SSTORE PUSH2 0x4DDF DUP4 PUSH2 0x5D0C JUMP JUMPDEST AND PUSH32 0x8C5BE1E5EBEC7D5BD14F71427D1E84F3DD0314C0F7B2291E5B200AC8C7C3B925 PUSH1 0x0 DUP1 LOG4 STOP JUMPDEST PUSH1 0x40 MLOAD PUSH3 0x461BCD PUSH1 0xE5 SHL DUP2 MSTORE PUSH1 0x20 PUSH1 0x4 DUP3 ADD MSTORE PUSH1 0x3D PUSH1 0x24 DUP3 ADD MSTORE PUSH32 0x4552433732313A20617070726F76652063616C6C6572206973206E6F7420746F PUSH1 0x44 DUP3 ADD MSTORE PUSH32 0x6B656E206F776E6572206F7220617070726F76656420666F7220616C6C000000 PUSH1 0x64 DUP3 ADD MSTORE PUSH1 0x84 SWAP1 REVERT JUMPDEST SWAP1 POP PUSH1 0x0 MSTORE PUSH1 0x7 PUSH1 0x20 MSTORE PUSH1 0x40 PUSH1 0x0 KECCAK256 CALLER PUSH1 0x0 MSTORE PUSH1 0x20 MSTORE PUSH1 0xFF PUSH1 0x40 PUSH1 0x0 KECCAK256 SLOAD AND DUP5 PUSH2 0x4DB2 JUMP JUMPDEST PUSH1 0x40 MLOAD PUSH3 0x461BCD PUSH1 0xE5 SHL DUP2 MSTORE PUSH1 0x20 PUSH1 0x4 DUP3 ADD MSTORE PUSH1 0x21 PUSH1 0x24 DUP3 ADD MSTORE PUSH32 0x4552433732313A20617070726F76616C20746F2063757272656E74206F776E65 PUSH1 0x44 DUP3 ADD MSTORE PUSH1 0x39 PUSH1 0xF9 SHL PUSH1 0x64 DUP3 ADD MSTORE PUSH1 0x84 SWAP1 REVERT JUMPDEST CALLVALUE PUSH2 0x5F1 JUMPI PUSH1 0x20 CALLDATASIZE PUSH1 0x3 NOT ADD SLT PUSH2 0x5F1 JUMPI PUSH1 0x20 PUSH2 0x429C PUSH1 0x4 CALLDATALOAD PUSH2 0x5D2F JUMP JUMPDEST CALLVALUE PUSH2 0x5F1 JUMPI PUSH1 0x0 CALLDATASIZE PUSH1 0x3 NOT ADD SLT PUSH2 0x5F1 JUMPI PUSH1 0x40 MLOAD PUSH1 0x0 SWAP1 PUSH1 0x2 SLOAD PUSH2 0x4F27 DUP2 PUSH2 0x579C JUMP JUMPDEST DUP1 DUP4 MSTORE PUSH1 0x1 SWAP2 DUP1 DUP4 AND SWAP1 DUP2 ISZERO PUSH2 0x2540 JUMPI POP PUSH1 0x1 EQ PUSH2 0x4F4F JUMPI PUSH2 0x369 DUP4 PUSH2 0x24D2 DUP2 DUP8 SUB DUP3 PUSH2 0x5698 JUMP JUMPDEST PUSH1 0x2 PUSH1 0x0 SWAP1 DUP2 MSTORE PUSH1 0x20 SWAP5 POP SWAP2 PUSH32 0x405787FA12A823E0F2B7631CC41B3BA8828B3321CA811111FA75CD3AA3BB5ACE JUMPDEST DUP3 DUP5 LT PUSH2 0x4F96 JUMPI POP POP POP DUP2 ADD SWAP1 SWAP2 ADD SWAP1 PUSH2 0x24D2 DUP2 PUSH2 0x24C2 JUMP JUMPDEST DUP1 SLOAD DUP6 DUP6 ADD DUP8 ADD MSTORE SWAP3 DUP6 ADD SWAP3 DUP2 ADD PUSH2 0x4F7D JUMP JUMPDEST CALLVALUE PUSH2 0x5F1 JUMPI PUSH1 0x0 CALLDATASIZE PUSH1 0x3 NOT ADD SLT PUSH2 0x5F1 JUMPI PUSH1 0x8 DUP1 SLOAD PUSH1 0x0 PUSH1 0x1 JUMPDEST DUP3 DUP2 GT ISZERO PUSH2 0x51E2 JUMPI POP PUSH2 0x4FD5 SWAP1 PUSH2 0x87C9 JUMP JUMPDEST SWAP1 PUSH1 0x0 SWAP3 PUSH1 0x1 JUMPDEST DUP3 DUP2 GT ISZERO PUSH2 0x4FF2 JUMPI PUSH1 0x40 MLOAD DUP1 PUSH2 0x369 DUP7 DUP3 PUSH2 0x554B JUMP JUMPDEST DUP1 PUSH1 0x0 MSTORE PUSH1 0x10 PUSH1 0x20 DUP2 DUP2 MSTORE PUSH1 0x40 PUSH1 0x0 KECCAK256 SWAP2 PUSH1 0xF DUP4 ADD SLOAD SWAP1 PUSH1 0xFF SWAP4 DUP5 DUP4 DUP4 SHR AND ISZERO DUP1 PUSH2 0x502C JUMPI JUMPDEST POP POP POP POP POP POP PUSH2 0x5027 SWAP1 PUSH2 0x635F JUMP JUMPDEST PUSH2 0x4FDC JUMP JUMPDEST PUSH1 0x40 SWAP11 SWAP7 SWAP11 MLOAD SWAP6 PUSH2 0x503C DUP8 PUSH2 0x55D9 JUMP JUMPDEST DUP3 SLOAD DUP8 MSTORE PUSH1 0x1 DUP4 ADD SLOAD PUSH1 0x1 PUSH1 0x1 PUSH1 0xA0 SHL SUB AND DUP7 DUP9 ADD MSTORE PUSH1 0x40 MLOAD PUSH2 0x5066 DUP2 PUSH2 0x3DA DUP2 PUSH1 0x2 DUP9 ADD PUSH2 0x57D6 JUMP JUMPDEST PUSH1 0x40 DUP9 ADD MSTORE PUSH1 0x40 MLOAD PUSH2 0x507F DUP2 PUSH2 0x3DA DUP2 PUSH1 0x3 DUP9 ADD PUSH2 0x57D6 JUMP JUMPDEST PUSH1 0x60 DUP9 ADD MSTORE PUSH1 0x4 DUP4 ADD SLOAD PUSH1 0x80 DUP9 ADD MSTORE PUSH1 0x5 DUP4 ADD SLOAD PUSH1 0xA0 DUP9 ADD MSTORE PUSH1 0x6 SWAP5 PUSH2 0x50A6 DUP7 DUP6 ADD PUSH2 0x8703 JUMP JUMPDEST PUSH1 0xC0 DUP10 ADD MSTORE PUSH2 0x50B7 PUSH1 0x7 DUP6 ADD PUSH2 0x8703 JUMP JUMPDEST PUSH1 0xE0 DUP10 ADD MSTORE PUSH2 0x50C7 DUP11 DUP6 ADD PUSH2 0x8703 JUMP JUMPDEST PUSH2 0x100 DUP10 ADD MSTORE PUSH1 0x40 MLOAD PUSH2 0x50E1 DUP2 PUSH2 0x3DA DUP2 PUSH1 0x9 DUP10 ADD PUSH2 0x57D6 JUMP JUMPDEST PUSH2 0x120 DUP10 ADD MSTORE PUSH1 0x40 MLOAD PUSH2 0x50FB DUP2 PUSH2 0x3DA DUP2 PUSH1 0xA DUP10 ADD PUSH2 0x57D6 JUMP JUMPDEST PUSH2 0x140 DUP10 ADD MSTORE PUSH1 0xB DUP5 ADD SLOAD PUSH2 0x160 DUP10 ADD MSTORE PUSH1 0x40 MLOAD PUSH2 0x5120 DUP2 PUSH2 0x3DA DUP2 PUSH1 0xC DUP10 ADD PUSH2 0x57D6 JUMP JUMPDEST PUSH2 0x180 DUP10 ADD MSTORE PUSH1 0x40 MLOAD PUSH2 0x513A DUP2 PUSH2 0x3DA DUP2 PUSH1 0xD DUP10 ADD PUSH2 0x57D6 JUMP JUMPDEST PUSH2 0x1A0 DUP10 ADD MSTORE PUSH1 0xE DUP5 ADD SLOAD PUSH2 0x1C0 DUP10 ADD MSTORE DUP2 DUP2 AND ISZERO ISZERO PUSH2 0x1E0 DUP10 ADD MSTORE DUP10 SHR AND ISZERO ISZERO PUSH2 0x200 DUP8 ADD MSTORE ISZERO PUSH2 0x220 DUP7 ADD MSTORE ADD SWAP1 DUP2 SLOAD SWAP2 PUSH2 0x5176 DUP4 PUSH2 0x636E JUMP JUMPDEST SWAP4 PUSH2 0x5184 PUSH1 0x40 MLOAD SWAP6 DUP7 PUSH2 0x5698 JUMP JUMPDEST DUP4 DUP6 MSTORE PUSH1 0x0 SWAP2 DUP3 MSTORE DUP1 DUP3 KECCAK256 SWAP2 DUP2 DUP7 ADD JUMPDEST DUP6 DUP3 LT PUSH2 0x51C6 JUMPI POP POP POP POP POP POP SWAP2 DUP2 PUSH2 0x5027 SWAP4 PUSH2 0x240 PUSH2 0x51BA SWAP5 ADD MSTORE PUSH2 0x543 DUP3 DUP9 PUSH2 0x63B7 JUMP JUMPDEST SWAP5 SWAP1 DUP7 DUP1 DUP1 DUP1 DUP1 PUSH2 0x5018 JUMP JUMPDEST DUP5 DUP4 PUSH1 0x1 SWAP3 PUSH2 0x51D4 DUP8 PUSH2 0x8768 JUMP JUMPDEST DUP2 MSTORE ADD SWAP5 ADD SWAP2 ADD SWAP1 SWAP3 PUSH2 0x5194 JUMP JUMPDEST DUP1 PUSH1 0x0 MSTORE PUSH1 0xFF PUSH1 0x10 DUP1 PUSH1 0x20 MSTORE PUSH1 0xF PUSH1 0x40 PUSH1 0x0 KECCAK256 ADD SLOAD SWAP1 SHR AND ISZERO PUSH2 0x520E JUMPI JUMPDEST PUSH2 0x5209 SWAP1 PUSH2 0x635F JUMP JUMPDEST PUSH2 0x4FC3 JUMP JUMPDEST SWAP1 PUSH2 0x521B PUSH2 0x5209 SWAP2 PUSH2 0x635F JUMP JUMPDEST SWAP2 SWAP1 POP PUSH2 0x5200 JUMP JUMPDEST CALLVALUE PUSH2 0x5F1 JUMPI PUSH1 0x20 CALLDATASIZE PUSH1 0x3 NOT ADD SLT PUSH2 0x5F1 JUMPI PUSH1 0x4 CALLDATALOAD PUSH4 0xFFFFFFFF PUSH1 0xE0 SHL DUP2 AND DUP1 SWAP2 SUB PUSH2 0x5F1 JUMPI PUSH1 0x20 SWAP1 PUSH4 0x80AC58CD PUSH1 0xE0 SHL DUP2 EQ SWAP1 DUP2 ISZERO PUSH2 0x5280 JUMPI JUMPDEST DUP2 ISZERO PUSH2 0x526F JUMPI JUMPDEST POP PUSH1 0x40 MLOAD SWAP1 ISZERO ISZERO DUP2 MSTORE RETURN JUMPDEST PUSH4 0x1FFC9A7 PUSH1 0xE0 SHL EQ SWAP1 POP DUP3 PUSH2 0x5264 JUMP JUMPDEST PUSH4 0x5B5E139F PUSH1 0xE0 SHL DUP2 EQ SWAP2 POP PUSH2 0x525D JUMP JUMPDEST CALLVALUE PUSH2 0x5F1 JUMPI PUSH1 0x20 CALLDATASIZE PUSH1 0x3 NOT ADD SLT PUSH2 0x5F1 JUMPI PUSH1 0x20 SWAP1 PUSH1 0x4 CALLDATALOAD PUSH1 0x0 MSTORE PUSH1 0x18 DUP3 MSTORE PUSH1 0xFF PUSH1 0x40 PUSH1 0x0 KECCAK256 SLOAD AND ISZERO ISZERO DUP2 MSTORE RETURN JUMPDEST SWAP2 SWAP1 DUP3 MLOAD SWAP3 DUP4 DUP3 MSTORE PUSH1 0x0 JUMPDEST DUP5 DUP2 LT PUSH2 0x52EA JUMPI POP POP DUP3 PUSH1 0x0 PUSH1 0x20 DUP1 SWAP5 SWAP6 DUP5 ADD ADD MSTORE PUSH1 0x1F DUP1 NOT SWAP2 ADD AND ADD ADD SWAP1 JUMP JUMPDEST PUSH1 0x20 DUP2 DUP4 ADD DUP2 ADD MLOAD DUP5 DUP4 ADD DUP3 ADD MSTORE ADD PUSH2 0x52C9 JUMP JUMPDEST SWAP1 DUP1 DUP3 MLOAD SWAP1 DUP2 DUP2 MSTORE PUSH1 0x20 DUP1 SWAP2 ADD SWAP3 DUP2 DUP1 DUP5 PUSH1 0x5 SHL DUP4 ADD ADD SWAP6 ADD SWAP4 PUSH1 0x0 SWAP2 JUMPDEST DUP5 DUP4 LT PUSH2 0x532C JUMPI POP POP POP POP POP POP SWAP1 JUMP JUMPDEST SWAP1 SWAP2 SWAP3 SWAP4 SWAP5 SWAP6 DUP5 DUP1 PUSH2 0x534A PUSH1 0x1 SWAP4 PUSH1 0x1F NOT DUP7 DUP3 SUB ADD DUP8 MSTORE DUP11 MLOAD PUSH2 0x52BE JUMP JUMPDEST SWAP9 ADD SWAP4 ADD SWAP4 ADD SWAP2 SWAP5 SWAP4 SWAP3 SWAP1 PUSH2 0x531C JUMP JUMPDEST SWAP1 DUP1 DUP2 DUP4 MLOAD SWAP2 DUP3 DUP3 MSTORE PUSH1 0x20 DUP1 DUP1 DUP1 SWAP5 ADD SWAP6 DUP6 PUSH1 0x5 SHL ADD ADD SWAP6 ADD SWAP4 PUSH1 0x0 SWAP2 JUMPDEST DUP5 DUP4 LT PUSH2 0x5388 JUMPI POP POP POP POP POP POP SWAP1 JUMP JUMPDEST SWAP1 SWAP2 SWAP3 SWAP4 SWAP5 SWAP6 DUP5 DUP1 PUSH1 0x1 SWAP3 PUSH1 0x1F NOT DUP6 DUP3 SUB ADD DUP7 MSTORE DUP10 MLOAD SWAP1 DUP2 MLOAD DUP2 MSTORE DUP5 DUP1 PUSH1 0xA0 SHL SUB DUP4 DUP4 ADD MLOAD AND DUP4 DUP3 ADD MSTORE PUSH1 0x40 DUP1 DUP4 ADD MLOAD SWAP1 DUP3 ADD MSTORE PUSH2 0x53D5 PUSH1 0x60 DUP1 DUP5 ADD MLOAD SWAP1 PUSH1 0xC0 DUP1 SWAP2 DUP6 ADD MSTORE DUP4 ADD SWAP1 PUSH2 0x52BE JUMP JUMPDEST SWAP2 PUSH1 0x80 DUP1 DUP3 ADD MLOAD ISZERO ISZERO SWAP1 DUP4 ADD MSTORE PUSH1 0xA0 DUP1 SWAP2 ADD MLOAD SWAP2 ADD MSTORE SWAP9 ADD SWAP4 ADD SWAP4 ADD SWAP2 SWAP5 SWAP4 SWAP3 SWAP1 PUSH2 0x5378 JUMP JUMPDEST SWAP1 PUSH2 0x5548 SWAP2 DUP1 MLOAD DUP3 MSTORE PUSH1 0x1 DUP1 PUSH1 0xA0 SHL SUB PUSH1 0x20 DUP3 ADD MLOAD AND PUSH1 0x20 DUP4 ADD MSTORE PUSH2 0x5502 PUSH2 0x54EE PUSH2 0x54CF PUSH2 0x54BB PUSH2 0x54A7 PUSH2 0x5493 PUSH2 0x5481 PUSH2 0x545B PUSH2 0x5449 PUSH1 0x40 DUP11 ADD MLOAD PUSH1 0x40 DUP13 PUSH2 0x260 SWAP2 DUP3 SWAP2 ADD MSTORE DUP13 ADD SWAP1 PUSH2 0x52BE JUMP JUMPDEST PUSH1 0x60 DUP11 ADD MLOAD DUP12 DUP3 SUB PUSH1 0x60 DUP14 ADD MSTORE PUSH2 0x52BE JUMP JUMPDEST PUSH1 0x80 DUP10 ADD MLOAD PUSH1 0x80 DUP12 ADD MSTORE PUSH1 0xA0 DUP10 ADD MLOAD PUSH1 0xA0 DUP12 ADD MSTORE PUSH1 0xC0 DUP10 ADD MLOAD DUP11 DUP3 SUB PUSH1 0xC0 DUP13 ADD MSTORE PUSH2 0x52FE JUMP JUMPDEST PUSH1 0xE0 DUP9 ADD MLOAD DUP10 DUP3 SUB PUSH1 0xE0 DUP12 ADD MSTORE PUSH2 0x52FE JUMP JUMPDEST PUSH2 0x100 DUP1 DUP9 ADD MLOAD SWAP1 DUP10 DUP4 SUB SWAP1 DUP11 ADD MSTORE PUSH2 0x52FE JUMP JUMPDEST PUSH2 0x120 DUP1 DUP8 ADD MLOAD SWAP1 DUP9 DUP4 SUB SWAP1 DUP10 ADD MSTORE PUSH2 0x52BE JUMP JUMPDEST PUSH2 0x140 DUP1 DUP7 ADD MLOAD SWAP1 DUP8 DUP4 SUB SWAP1 DUP9 ADD MSTORE PUSH2 0x52BE JUMP JUMPDEST PUSH2 0x160 DUP1 DUP6 ADD MLOAD SWAP1 DUP7 ADD MSTORE PUSH2 0x180 DUP1 DUP6 ADD MLOAD SWAP1 DUP7 DUP4 SUB SWAP1 DUP8 ADD MSTORE PUSH2 0x52BE JUMP JUMPDEST PUSH2 0x1A0 DUP1 DUP5 ADD MLOAD SWAP1 DUP6 DUP4 SUB SWAP1 DUP7 ADD MSTORE PUSH2 0x52BE JUMP JUMPDEST SWAP2 PUSH2 0x1C0 DUP1 DUP4 ADD MLOAD SWAP1 DUP3 ADD MSTORE PUSH2 0x1E0 DUP1 DUP4 ADD MLOAD ISZERO ISZERO SWAP1 DUP3 ADD MSTORE PUSH2 0x200 DUP1 DUP4 ADD MLOAD ISZERO ISZERO SWAP1 DUP3 ADD MSTORE PUSH2 0x220 DUP1 DUP4 ADD MLOAD ISZERO ISZERO SWAP1 DUP3 ADD MSTORE PUSH2 0x240 DUP1 SWAP3 ADD MLOAD SWAP2 DUP2 DUP5 SUB SWAP2 ADD MSTORE PUSH2 0x535A JUMP JUMPDEST SWAP1 JUMP JUMPDEST PUSH1 0x20 DUP1 DUP3 ADD SWAP1 DUP1 DUP4 MSTORE DUP4 MLOAD DUP1 SWAP3 MSTORE PUSH1 0x40 DUP4 ADD SWAP3 DUP2 PUSH1 0x40 DUP5 PUSH1 0x5 SHL DUP4 ADD ADD SWAP6 ADD SWAP4 PUSH1 0x0 SWAP2 JUMPDEST DUP5 DUP4 LT PUSH2 0x557F JUMPI POP POP POP POP POP POP SWAP1 JUMP JUMPDEST SWAP1 SWAP2 SWAP3 SWAP4 SWAP5 SWAP6 DUP5 DUP1 PUSH2 0x559D PUSH1 0x1 SWAP4 PUSH1 0x3F NOT DUP7 DUP3 SUB ADD DUP8 MSTORE DUP11 MLOAD PUSH2 0x53FB JUMP JUMPDEST SWAP9 ADD SWAP4 ADD SWAP4 ADD SWAP2 SWAP5 SWAP4 SWAP3 SWAP1 PUSH2 0x556F JUMP JUMPDEST PUSH1 0x4 CALLDATALOAD SWAP1 PUSH1 0x1 PUSH1 0x1 PUSH1 0xA0 SHL SUB DUP3 AND DUP3 SUB PUSH2 0x5F1 JUMPI JUMP JUMPDEST PUSH1 0x24 CALLDATALOAD SWAP1 PUSH1 0x1 PUSH1 0x1 PUSH1 0xA0 SHL SUB DUP3 AND DUP3 SUB PUSH2 0x5F1 JUMPI JUMP JUMPDEST PUSH2 0x260 DUP2 ADD SWAP1 DUP2 LT PUSH1 0x1 PUSH1 0x1 PUSH1 0x40 SHL SUB DUP3 GT OR PUSH2 0xD5C JUMPI PUSH1 0x40 MSTORE JUMP JUMPDEST PUSH2 0x100 DUP2 ADD SWAP1 DUP2 LT PUSH1 0x1 PUSH1 0x1 PUSH1 0x40 SHL SUB DUP3 GT OR PUSH2 0xD5C JUMPI PUSH1 0x40 MSTORE JUMP JUMPDEST PUSH1 0xE0 DUP2 ADD SWAP1 DUP2 LT PUSH1 0x1 PUSH1 0x1 PUSH1 0x40 SHL SUB DUP3 GT OR PUSH2 0xD5C JUMPI PUSH1 0x40 MSTORE JUMP JUMPDEST PUSH1 0x80 DUP2 ADD SWAP1 DUP2 LT PUSH1 0x1 PUSH1 0x1 PUSH1 0x40 SHL SUB DUP3 GT OR PUSH2 0xD5C JUMPI PUSH1 0x40 MSTORE JUMP JUMPDEST PUSH1 0xA0 DUP2 ADD SWAP1 DUP2 LT PUSH1 0x1 PUSH1 0x1 PUSH1 0x40 SHL SUB DUP3 GT OR PUSH2 0xD5C JUMPI PUSH1 0x40 MSTORE JUMP JUMPDEST PUSH1 0xC0 DUP2 ADD SWAP1 DUP2 LT PUSH1 0x1 PUSH1 0x1 PUSH1 0x40 SHL SUB DUP3 GT OR PUSH2 0xD5C JUMPI PUSH1 0x40 MSTORE JUMP JUMPDEST PUSH1 0x20 DUP2 ADD SWAP1 DUP2 LT PUSH1 0x1 PUSH1 0x1 PUSH1 0x40 SHL SUB DUP3 GT OR PUSH2 0xD5C JUMPI PUSH1 0x40 MSTORE JUMP JUMPDEST PUSH1 0x1F SWAP1 SWAP2 ADD PUSH1 0x1F NOT AND DUP2 ADD SWAP1 PUSH1 0x1 PUSH1 0x1 PUSH1 0x40 SHL SUB DUP3 GT SWAP1 DUP3 LT OR PUSH2 0xD5C JUMPI PUSH1 0x40 MSTORE JUMP JUMPDEST PUSH1 0x1 PUSH1 0x1 PUSH1 0x40 SHL SUB DUP2 GT PUSH2 0xD5C JUMPI PUSH1 0x1F ADD PUSH1 0x1F NOT AND PUSH1 0x20 ADD SWAP1 JUMP JUMPDEST SWAP3 SWAP2 SWAP3 PUSH2 0x56E2 DUP3 PUSH2 0x56BB JUMP JUMPDEST SWAP2 PUSH2 0x56F0 PUSH1 0x40 MLOAD SWAP4 DUP5 PUSH2 0x5698 JUMP JUMPDEST DUP3 SWAP5 DUP2 DUP5 MSTORE DUP2 DUP4 ADD GT PUSH2 0x5F1 JUMPI DUP3 DUP2 PUSH1 0x20 SWAP4 DUP5 PUSH1 0x0 SWAP7 ADD CALLDATACOPY ADD ADD MSTORE JUMP JUMPDEST SWAP1 DUP1 PUSH1 0x1F DUP4 ADD SLT ISZERO PUSH2 0x5F1 JUMPI DUP2 PUSH1 0x20 PUSH2 0x5548 SWAP4 CALLDATALOAD SWAP2 ADD PUSH2 0x56D6 JUMP JUMPDEST PUSH1 0x60 SWAP1 PUSH1 0x3 NOT ADD SLT PUSH2 0x5F1 JUMPI PUSH1 0x1 PUSH1 0x1 PUSH1 0xA0 SHL SUB SWAP1 PUSH1 0x4 CALLDATALOAD DUP3 DUP2 AND DUP2 SUB PUSH2 0x5F1 JUMPI SWAP2 PUSH1 0x24 CALLDATALOAD SWAP1 DUP2 AND DUP2 SUB PUSH2 0x5F1 JUMPI SWAP1 PUSH1 0x44 CALLDATALOAD SWAP1 JUMP JUMPDEST SWAP1 PUSH1 0x60 PUSH1 0x3 NOT DUP4 ADD SLT PUSH2 0x5F1 JUMPI PUSH1 0x4 CALLDATALOAD SWAP2 PUSH1 0x24 CALLDATALOAD SWAP1 PUSH1 0x1 PUSH1 0x1 PUSH1 0x40 SHL SUB DUP3 GT PUSH2 0x5F1 JUMPI PUSH2 0x578C SWAP2 PUSH1 0x4 ADD PUSH2 0x570D JUMP JUMPDEST SWAP1 PUSH1 0x44 CALLDATALOAD DUP1 ISZERO ISZERO DUP2 SUB PUSH2 0x5F1 JUMPI SWAP1 JUMP JUMPDEST SWAP1 PUSH1 0x1 DUP3 DUP2 SHR SWAP3 AND DUP1 ISZERO PUSH2 0x57CC JUMPI JUMPDEST PUSH1 0x20 DUP4 LT EQ PUSH2 0x57B6 JUMPI JUMP JUMPDEST PUSH4 0x4E487B71 PUSH1 0xE0 SHL PUSH1 0x0 MSTORE PUSH1 0x22 PUSH1 0x4 MSTORE PUSH1 0x24 PUSH1 0x0 REVERT JUMPDEST SWAP2 PUSH1 0x7F AND SWAP2 PUSH2 0x57AB JUMP JUMPDEST SWAP1 PUSH1 0x0 SWAP3 SWAP2 DUP1 SLOAD SWAP2 PUSH2 0x57E7 DUP4 PUSH2 0x579C JUMP JUMPDEST SWAP2 DUP3 DUP3 MSTORE PUSH1 0x1 SWAP4 DUP5 DUP2 AND SWAP1 DUP2 PUSH1 0x0 EQ PUSH2 0x5849 JUMPI POP PUSH1 0x1 EQ PUSH2 0x5809 JUMPI JUMPDEST POP POP POP POP JUMP JUMPDEST SWAP1 SWAP2 SWAP4 SWAP5 POP PUSH1 0x0 MSTORE PUSH1 0x20 SWAP3 DUP4 PUSH1 0x0 KECCAK256 SWAP3 DUP5 PUSH1 0x0 SWAP5 JUMPDEST DUP4 DUP7 LT PUSH2 0x5835 JUMPI POP POP POP POP ADD ADD SWAP1 CODESIZE DUP1 DUP1 DUP1 PUSH2 0x5803 JUMP JUMPDEST DUP1 SLOAD DUP6 DUP8 ADD DUP4 ADD MSTORE SWAP5 ADD SWAP4 DUP6 SWAP1 DUP3 ADD PUSH2 0x581E JUMP JUMPDEST SWAP3 SWAP5 POP POP POP PUSH1 0x20 SWAP4 SWAP5 POP PUSH1 0xFF NOT AND DUP4 DUP4 ADD MSTORE ISZERO ISZERO PUSH1 0x5 SHL ADD ADD SWAP1 CODESIZE DUP1 DUP1 DUP1 PUSH2 0x5803 JUMP JUMPDEST PUSH2 0x5548 SWAP2 PUSH1 0xE0 PUSH2 0x5903 PUSH2 0x58F1 PUSH2 0x58DF PUSH2 0x58CD PUSH2 0x58BB PUSH2 0x58A9 PUSH2 0x5897 DUP10 MLOAD PUSH2 0x100 DUP1 DUP12 MSTORE DUP11 ADD SWAP1 PUSH2 0x52BE JUMP JUMPDEST PUSH1 0x20 DUP11 ADD MLOAD DUP10 DUP3 SUB PUSH1 0x20 DUP12 ADD MSTORE PUSH2 0x52BE JUMP JUMPDEST PUSH1 0x40 DUP10 ADD MLOAD DUP9 DUP3 SUB PUSH1 0x40 DUP11 ADD MSTORE PUSH2 0x52BE JUMP JUMPDEST PUSH1 0x60 DUP9 ADD MLOAD DUP8 DUP3 SUB PUSH1 0x60 DUP10 ADD MSTORE PUSH2 0x52BE JUMP JUMPDEST PUSH1 0x80 DUP8 ADD MLOAD DUP7 DUP3 SUB PUSH1 0x80 DUP9 ADD MSTORE PUSH2 0x52BE JUMP JUMPDEST PUSH1 0xA0 DUP7 ADD MLOAD DUP6 DUP3 SUB PUSH1 0xA0 DUP8 ADD MSTORE PUSH2 0x52BE JUMP JUMPDEST PUSH1 0xC0 DUP6 ADD MLOAD DUP5 DUP3 SUB PUSH1 0xC0 DUP7 ADD MSTORE PUSH2 0x52BE JUMP JUMPDEST SWAP3 ADD MLOAD SWAP1 PUSH1 0xE0 DUP2 DUP5 SUB SWAP2 ADD MSTORE PUSH2 0x52BE JUMP JUMPDEST PUSH1 0x20 DUP1 DUP3 ADD SWAP1 DUP1 DUP4 MSTORE DUP4 MLOAD DUP1 SWAP3 MSTORE PUSH1 0x40 SWAP3 DUP4 DUP2 ADD DUP3 DUP6 DUP6 PUSH1 0x5 SHL DUP5 ADD ADD SWAP7 ADD SWAP5 PUSH1 0x0 SWAP3 JUMPDEST DUP6 DUP5 LT PUSH2 0x5949 JUMPI POP POP POP POP POP POP POP SWAP1 JUMP JUMPDEST SWAP1 SWAP2 SWAP3 SWAP4 SWAP5 SWAP6 SWAP7 DUP6 DUP1 PUSH2 0x59C1 PUSH1 0x1 SWAP4 PUSH1 0x3F NOT DUP7 DUP3 SUB ADD DUP9 MSTORE DUP12 MLOAD DUP1 MLOAD DUP3 MSTORE DUP4 DUP2 ADD MLOAD DUP5 DUP4 ADD MSTORE DUP8 DUP2 ADD MLOAD DUP9 DUP4 ADD MSTORE PUSH1 0x60 DUP1 DUP3 ADD MLOAD SWAP1 DUP4 ADD MSTORE DUP6 DUP1 PUSH1 0xA0 SHL SUB PUSH1 0x80 DUP2 DUP2 DUP5 ADD MLOAD AND SWAP1 DUP5 ADD MSTORE PUSH1 0xA0 SWAP1 DUP2 DUP4 ADD MLOAD AND SWAP1 DUP4 ADD MSTORE PUSH1 0xC0 DUP1 DUP3 ADD MLOAD ISZERO ISZERO SWAP1 DUP4 ADD MSTORE PUSH1 0xE0 DUP1 SWAP2 ADD MLOAD SWAP2 PUSH2 0x100 DUP1 SWAP3 DUP3 ADD MSTORE ADD SWAP1 PUSH2 0x586C JUMP JUMPDEST SWAP10 ADD SWAP5 ADD SWAP5 ADD SWAP3 SWAP6 SWAP5 SWAP4 SWAP2 SWAP1 PUSH2 0x5938 JUMP JUMPDEST SWAP1 PUSH1 0xC0 DUP1 PUSH2 0x5A3D PUSH2 0x5A2B PUSH2 0x5A19 PUSH2 0x5A07 PUSH2 0x59F5 DUP9 MLOAD PUSH1 0xE0 DUP10 MSTORE PUSH1 0xE0 DUP10 ADD SWAP1 PUSH2 0x52BE JUMP JUMPDEST PUSH1 0x20 DUP10 ADD MLOAD DUP9 DUP3 SUB PUSH1 0x20 DUP11 ADD MSTORE PUSH2 0x52BE JUMP JUMPDEST PUSH1 0x40 DUP9 ADD MLOAD DUP8 DUP3 SUB PUSH1 0x40 DUP10 ADD MSTORE PUSH2 0x52BE JUMP JUMPDEST PUSH1 0x60 DUP8 ADD MLOAD DUP7 DUP3 SUB PUSH1 0x60 DUP9 ADD MSTORE PUSH2 0x52BE JUMP JUMPDEST PUSH1 0x80 DUP7 ADD MLOAD DUP6 DUP3 SUB PUSH1 0x80 DUP8 ADD MSTORE PUSH2 0x52BE JUMP JUMPDEST SWAP4 PUSH1 0xA0 DUP2 ADD MLOAD PUSH1 0xA0 DUP6 ADD MSTORE ADD MLOAD ISZERO ISZERO SWAP2 ADD MSTORE SWAP1 JUMP JUMPDEST SWAP1 PUSH1 0x4 DUP3 LT ISZERO PUSH2 0x1616 JUMPI MSTORE JUMP JUMPDEST PUSH1 0x1C SLOAD DUP2 LT ISZERO PUSH2 0x5A7A JUMPI PUSH1 0x1C PUSH1 0x0 MSTORE PUSH1 0x20 PUSH1 0x0 KECCAK256 ADD SWAP1 PUSH1 0x0 SWAP1 JUMP JUMPDEST PUSH4 0x4E487B71 PUSH1 0xE0 SHL PUSH1 0x0 MSTORE PUSH1 0x32 PUSH1 0x4 MSTORE PUSH1 0x24 PUSH1 0x0 REVERT JUMPDEST PUSH1 0xC SLOAD DUP2 LT ISZERO PUSH2 0x5A7A JUMPI PUSH1 0xC PUSH1 0x0 MSTORE PUSH1 0x20 PUSH1 0x0 KECCAK256 ADD SWAP1 PUSH1 0x0 SWAP1 JUMP JUMPDEST DUP1 SLOAD DUP3 LT ISZERO PUSH2 0x5A7A JUMPI PUSH1 0x0 MSTORE PUSH1 0x20 PUSH1 0x0 KECCAK256 ADD SWAP1 PUSH1 0x0 SWAP1 JUMP JUMPDEST PUSH1 0x20 SWAP1 DUP2 PUSH1 0x40 DUP2 DUP4 ADD SWAP3 DUP3 DUP2 MSTORE DUP6 MLOAD DUP1 SWAP5 MSTORE ADD SWAP4 ADD SWAP2 PUSH1 0x0 JUMPDEST DUP3 DUP2 LT PUSH2 0x5AEA JUMPI POP POP POP POP SWAP1 JUMP JUMPDEST DUP4 MLOAD PUSH1 0x1 PUSH1 0x1 PUSH1 0xA0 SHL SUB AND DUP6 MSTORE SWAP4 DUP2 ADD SWAP4 SWAP3 DUP2 ADD SWAP3 PUSH1 0x1 ADD PUSH2 0x5ADC JUMP JUMPDEST DUP1 SLOAD DUP3 LT ISZERO PUSH2 0x5A7A JUMPI PUSH1 0x0 MSTORE PUSH1 0xE PUSH1 0x20 PUSH1 0x0 KECCAK256 SWAP2 MUL ADD SWAP1 PUSH1 0x0 SWAP1 JUMP JUMPDEST SWAP1 PUSH1 0x7 PUSH1 0xE0 PUSH1 0x40 SWAP4 PUSH2 0x5BEB DUP6 MLOAD SWAP2 PUSH2 0x5B3A DUP4 PUSH2 0x55F5 JUMP JUMPDEST PUSH2 0x63F DUP4 SWAP8 DUP1 MLOAD PUSH2 0x5B4F DUP2 PUSH2 0x3DA DUP2 DUP8 PUSH2 0x57D6 JUMP JUMPDEST DUP6 MSTORE DUP1 MLOAD PUSH2 0x5B64 DUP2 PUSH2 0x3DA DUP2 PUSH1 0x1 DUP9 ADD PUSH2 0x57D6 JUMP JUMPDEST PUSH1 0x20 DUP7 ADD MSTORE DUP1 MLOAD PUSH2 0x5B7C DUP2 PUSH2 0x3DA DUP2 PUSH1 0x2 DUP9 ADD PUSH2 0x57D6 JUMP JUMPDEST DUP2 DUP7 ADD MSTORE DUP1 MLOAD PUSH2 0x5B93 DUP2 PUSH2 0x3DA DUP2 PUSH1 0x3 DUP9 ADD PUSH2 0x57D6 JUMP JUMPDEST PUSH1 0x60 DUP7 ADD MSTORE DUP1 MLOAD PUSH2 0x5BAB DUP2 PUSH2 0x3DA DUP2 PUSH1 0x4 DUP9 ADD PUSH2 0x57D6 JUMP JUMPDEST PUSH1 0x80 DUP7 ADD MSTORE DUP1 MLOAD PUSH2 0x5BC3 DUP2 PUSH2 0x3DA DUP2 PUSH1 0x5 DUP9 ADD PUSH2 0x57D6 JUMP JUMPDEST PUSH1 0xA0 DUP7 ADD MSTORE DUP1 MLOAD PUSH2 0x5BDB DUP2 PUSH2 0x3DA DUP2 PUSH1 0x6 DUP9 ADD PUSH2 0x57D6 JUMP JUMPDEST PUSH1 0xC0 DUP7 ADD MSTORE MLOAD DUP1 SWAP7 DUP2 SWAP4 ADD PUSH2 0x57D6 JUMP JUMPDEST ADD MSTORE JUMP JUMPDEST SWAP6 SWAP3 SWAP1 SWAP2 PUSH2 0x5548 SWAP9 SWAP8 SWAP6 SWAP5 SWAP3 DUP8 MSTORE PUSH1 0x20 DUP8 ADD MSTORE PUSH1 0x40 DUP7 ADD MSTORE PUSH1 0x60 DUP6 ADD MSTORE PUSH1 0x1 DUP1 PUSH1 0xA0 SHL SUB DUP1 SWAP3 AND PUSH1 0x80 DUP6 ADD MSTORE AND PUSH1 0xA0 DUP4 ADD MSTORE ISZERO ISZERO PUSH1 0xC0 DUP3 ADD MSTORE PUSH2 0x100 SWAP1 DUP2 PUSH1 0xE0 DUP3 ADD MSTORE ADD SWAP1 PUSH2 0x586C JUMP JUMPDEST SWAP1 DUP2 MLOAD DUP1 DUP3 MSTORE PUSH1 0x20 DUP1 DUP1 SWAP4 ADD SWAP4 ADD SWAP2 PUSH1 0x0 JUMPDEST DUP3 DUP2 LT PUSH2 0x5C59 JUMPI POP POP POP POP SWAP1 JUMP JUMPDEST DUP4 MLOAD DUP6 MSTORE SWAP4 DUP2 ADD SWAP4 SWAP3 DUP2 ADD SWAP3 PUSH1 0x1 ADD PUSH2 0x5C4B JUMP JUMPDEST PUSH1 0x0 SLOAD PUSH1 0x1 PUSH1 0x1 PUSH1 0xA0 SHL SUB AND CALLER SUB PUSH2 0x5C81 JUMPI JUMP JUMPDEST PUSH1 0x64 PUSH1 0x40 MLOAD PUSH3 0x461BCD PUSH1 0xE5 SHL DUP2 MSTORE PUSH1 0x20 PUSH1 0x4 DUP3 ADD MSTORE PUSH1 0x20 PUSH1 0x24 DUP3 ADD MSTORE PUSH32 0x4F776E61626C653A2063616C6C6572206973206E6F7420746865206F776E6572 PUSH1 0x44 DUP3 ADD MSTORE REVERT JUMPDEST ISZERO PUSH2 0x5CCC JUMPI JUMP JUMPDEST PUSH1 0x40 MLOAD PUSH3 0x461BCD PUSH1 0xE5 SHL DUP2 MSTORE PUSH1 0x20 PUSH1 0x4 DUP3 ADD MSTORE PUSH1 0x18 PUSH1 0x24 DUP3 ADD MSTORE PUSH24 0x115490CDCC8C4E881A5B9D985B1A59081D1BDAD95B881251 PUSH1 0x42 SHL PUSH1 0x44 DUP3 ADD MSTORE PUSH1 0x64 SWAP1 REVERT JUMPDEST PUSH1 0x0 SWAP1 DUP2 MSTORE PUSH1 0x4 PUSH1 0x20 MSTORE PUSH1 0x40 SWAP1 KECCAK256 SLOAD PUSH1 0x1 PUSH1 0x1 PUSH1 0xA0 SHL SUB AND PUSH2 0x5548 DUP2 ISZERO ISZERO PUSH2 0x5CC5 JUMP JUMPDEST PUSH2 0x5D3B PUSH2 0x19D9 DUP3 PUSH2 0x6028 JUMP JUMPDEST PUSH1 0x0 SWAP1 DUP2 MSTORE PUSH1 0x6 PUSH1 0x20 MSTORE PUSH1 0x40 SWAP1 KECCAK256 SLOAD PUSH1 0x1 PUSH1 0x1 PUSH1 0xA0 SHL SUB AND SWAP1 JUMP JUMPDEST ISZERO PUSH2 0x5D5D JUMPI JUMP JUMPDEST PUSH1 0x40 MLOAD PUSH3 0x461BCD PUSH1 0xE5 SHL DUP2 MSTORE PUSH1 0x20 PUSH1 0x4 DUP3 ADD MSTORE PUSH1 0x2D PUSH1 0x24 DUP3 ADD MSTORE PUSH32 0x4552433732313A2063616C6C6572206973206E6F7420746F6B656E206F776E65 PUSH1 0x44 DUP3 ADD MSTORE PUSH13 0x1C881BDC88185C1C1C9BDD9959 PUSH1 0x9A SHL PUSH1 0x64 DUP3 ADD MSTORE PUSH1 0x84 SWAP1 REVERT JUMPDEST SWAP1 PUSH2 0x5DDC SWAP4 SWAP3 SWAP2 PUSH2 0x5DCC PUSH2 0x4A3B DUP5 CALLER PUSH2 0x5E53 JUMP JUMPDEST PUSH2 0x5DD7 DUP4 DUP4 DUP4 PUSH2 0x5F1B JUMP JUMPDEST PUSH2 0x6075 JUMP JUMPDEST ISZERO PUSH2 0x5DE3 JUMPI JUMP JUMPDEST PUSH1 0x40 MLOAD PUSH3 0x461BCD PUSH1 0xE5 SHL DUP2 MSTORE DUP1 PUSH2 0x5DFC PUSH1 0x4 DUP3 ADD PUSH2 0x5E00 JUMP JUMPDEST SUB SWAP1 REVERT JUMPDEST PUSH1 0x80 SWAP1 PUSH1 0x20 DUP2 MSTORE PUSH1 0x32 PUSH1 0x20 DUP3 ADD MSTORE PUSH32 0x4552433732313A207472616E7366657220746F206E6F6E204552433732315265 PUSH1 0x40 DUP3 ADD MSTORE PUSH18 0x31B2B4BB32B91034B6B83632B6B2B73A32B9 PUSH1 0x71 SHL PUSH1 0x60 DUP3 ADD MSTORE ADD SWAP1 JUMP JUMPDEST SWAP1 PUSH1 0x1 PUSH1 0x1 PUSH1 0xA0 SHL SUB DUP1 DUP1 PUSH2 0x5E67 DUP5 PUSH2 0x5D0C JUMP JUMPDEST AND SWAP4 AND SWAP2 DUP4 DUP4 EQ SWAP4 DUP5 ISZERO PUSH2 0x5E9A JUMPI JUMPDEST POP DUP4 ISZERO PUSH2 0x5E84 JUMPI JUMPDEST POP POP POP SWAP1 JUMP JUMPDEST PUSH2 0x5E90 SWAP2 SWAP3 SWAP4 POP PUSH2 0x5D2F JUMP JUMPDEST AND EQ CODESIZE DUP1 DUP1 PUSH2 0x5E7E JUMP JUMPDEST SWAP1 SWAP4 POP PUSH1 0x0 MSTORE PUSH1 0x7 PUSH1 0x20 MSTORE PUSH1 0x40 PUSH1 0x0 KECCAK256 DUP3 PUSH1 0x0 MSTORE PUSH1 0x20 MSTORE PUSH1 0xFF PUSH1 0x40 PUSH1 0x0 KECCAK256 SLOAD AND SWAP3 CODESIZE PUSH2 0x5E76 JUMP JUMPDEST ISZERO PUSH2 0x5EC8 JUMPI JUMP JUMPDEST PUSH1 0x40 MLOAD PUSH3 0x461BCD PUSH1 0xE5 SHL DUP2 MSTORE PUSH1 0x20 PUSH1 0x4 DUP3 ADD MSTORE PUSH1 0x25 PUSH1 0x24 DUP3 ADD MSTORE PUSH32 0x4552433732313A207472616E736665722066726F6D20696E636F727265637420 PUSH1 0x44 DUP3 ADD MSTORE PUSH5 0x37BBB732B9 PUSH1 0xD9 SHL PUSH1 0x64 DUP3 ADD MSTORE PUSH1 0x84 SWAP1 REVERT JUMPDEST SWAP1 PUSH2 0x5F43 SWAP2 PUSH2 0x5F29 DUP5 PUSH2 0x5D0C JUMP JUMPDEST PUSH1 0x1 PUSH1 0x1 PUSH1 0xA0 SHL SUB SWAP4 SWAP2 DUP5 AND SWAP3 DUP5 SWAP3 SWAP1 SWAP2 DUP4 AND DUP5 EQ PUSH2 0x5EC1 JUMP JUMPDEST AND SWAP2 DUP3 ISZERO PUSH2 0x5FC6 JUMPI DUP2 PUSH2 0x5F60 SWAP2 PUSH2 0x5F59 DUP7 PUSH2 0x5D0C JUMP JUMPDEST AND EQ PUSH2 0x5EC1 JUMP JUMPDEST PUSH1 0x0 DUP1 MLOAD PUSH1 0x20 PUSH2 0x977D DUP4 CODECOPY DUP2 MLOAD SWAP2 MSTORE PUSH1 0x0 DUP5 DUP2 MSTORE PUSH1 0x6 PUSH1 0x20 MSTORE PUSH1 0x40 DUP2 KECCAK256 PUSH1 0x1 DUP1 PUSH1 0xA0 SHL SUB NOT SWAP1 DUP2 DUP2 SLOAD AND SWAP1 SSTORE DUP4 DUP3 MSTORE PUSH1 0x5 PUSH1 0x20 MSTORE PUSH1 0x40 DUP3 KECCAK256 PUSH1 0x0 NOT DUP2 SLOAD ADD SWAP1 SSTORE DUP5 DUP3 MSTORE PUSH1 0x40 DUP3 KECCAK256 PUSH1 0x1 DUP2 SLOAD ADD SWAP1 SSTORE DUP6 DUP3 MSTORE PUSH1 0x4 PUSH1 0x20 MSTORE DUP5 PUSH1 0x40 DUP4 KECCAK256 SWAP2 DUP3 SLOAD AND OR SWAP1 SSTORE DUP1 LOG4 JUMP JUMPDEST PUSH1 0x40 MLOAD PUSH3 0x461BCD PUSH1 0xE5 SHL DUP2 MSTORE PUSH1 0x20 PUSH1 0x4 DUP3 ADD MSTORE PUSH1 0x24 DUP1 DUP3 ADD MSTORE PUSH32 0x4552433732313A207472616E7366657220746F20746865207A65726F20616464 PUSH1 0x44 DUP3 ADD MSTORE PUSH4 0x72657373 PUSH1 0xE0 SHL PUSH1 0x64 DUP3 ADD MSTORE PUSH1 0x84 SWAP1 REVERT JUMPDEST SWAP1 PUSH1 0xFF DUP1 NOT DUP4 SLOAD AND SWAP2 ISZERO ISZERO AND OR SWAP1 SSTORE JUMP JUMPDEST PUSH1 0x0 SWAP1 DUP2 MSTORE PUSH1 0x4 PUSH1 0x20 MSTORE PUSH1 0x40 SWAP1 KECCAK256 SLOAD PUSH1 0x1 PUSH1 0x1 PUSH1 0xA0 SHL SUB AND ISZERO ISZERO SWAP1 JUMP JUMPDEST RETURNDATASIZE ISZERO PUSH2 0x6070 JUMPI RETURNDATASIZE SWAP1 PUSH2 0x6056 DUP3 PUSH2 0x56BB JUMP JUMPDEST SWAP2 PUSH2 0x6064 PUSH1 0x40 MLOAD SWAP4 DUP5 PUSH2 0x5698 JUMP JUMPDEST DUP3 MSTORE RETURNDATASIZE PUSH1 0x0 PUSH1 0x20 DUP5 ADD RETURNDATACOPY JUMP JUMPDEST PUSH1 0x60 SWAP1 JUMP JUMPDEST SWAP2 SWAP3 PUSH1 0x0 SWAP3 SWAP2 SWAP1 DUP2 EXTCODESIZE ISZERO PUSH2 0x616A JUMPI PUSH1 0x20 SWAP2 PUSH2 0x60CB SWAP2 DUP6 PUSH1 0x40 MLOAD SWAP6 DUP7 DUP1 SWAP6 DUP2 SWAP5 PUSH4 0xA85BD01 PUSH1 0xE1 SHL SWAP12 DUP13 DUP5 MSTORE CALLER PUSH1 0x4 DUP6 ADD MSTORE PUSH1 0x1 DUP1 PUSH1 0xA0 SHL SUB DUP1 SWAP6 AND PUSH1 0x24 DUP6 ADD MSTORE PUSH1 0x44 DUP5 ADD MSTORE PUSH1 0x80 PUSH1 0x64 DUP5 ADD MSTORE PUSH1 0x84 DUP4 ADD SWAP1 PUSH2 0x52BE JUMP JUMPDEST SUB SWAP4 AND GAS CALL SWAP1 DUP3 SWAP1 DUP3 PUSH2 0x611B JUMPI JUMPDEST POP POP PUSH2 0x610D JUMPI PUSH2 0x60E7 PUSH2 0x6045 JUMP JUMPDEST DUP1 MLOAD SWAP1 DUP2 PUSH2 0x6108 JUMPI PUSH1 0x40 MLOAD PUSH3 0x461BCD PUSH1 0xE5 SHL DUP2 MSTORE DUP1 PUSH2 0x5DFC PUSH1 0x4 DUP3 ADD PUSH2 0x5E00 JUMP JUMPDEST PUSH1 0x20 ADD REVERT JUMPDEST PUSH1 0x1 PUSH1 0x1 PUSH1 0xE0 SHL SUB NOT AND EQ SWAP1 JUMP JUMPDEST SWAP1 SWAP2 SWAP3 POP PUSH1 0x20 DUP2 RETURNDATASIZE DUP3 GT PUSH2 0x6162 JUMPI JUMPDEST DUP2 PUSH2 0x6137 PUSH1 0x20 SWAP4 DUP4 PUSH2 0x5698 JUMP JUMPDEST DUP2 ADD SUB SLT PUSH2 0x615E JUMPI MLOAD SWAP1 PUSH1 0x1 PUSH1 0x1 PUSH1 0xE0 SHL SUB NOT DUP3 AND DUP3 SUB PUSH2 0x615B JUMPI POP SWAP1 CODESIZE DUP1 PUSH2 0x60D9 JUMP JUMPDEST DUP1 REVERT JUMPDEST POP DUP1 REVERT JUMPDEST RETURNDATASIZE SWAP2 POP PUSH2 0x612A JUMP JUMPDEST POP POP POP POP POP PUSH1 0x1 SWAP1 JUMP JUMPDEST ISZERO PUSH2 0x617B JUMPI JUMP JUMPDEST PUSH1 0x40 MLOAD PUSH3 0x461BCD PUSH1 0xE5 SHL DUP2 MSTORE PUSH1 0x20 PUSH1 0x4 DUP3 ADD MSTORE PUSH1 0xE PUSH1 0x24 DUP3 ADD MSTORE PUSH14 0x115B585A5B081C995C5D5A5C9959 PUSH1 0x92 SHL PUSH1 0x44 DUP3 ADD MSTORE PUSH1 0x64 SWAP1 REVERT JUMPDEST ISZERO PUSH2 0x61B8 JUMPI JUMP JUMPDEST PUSH1 0x40 MLOAD PUSH3 0x461BCD PUSH1 0xE5 SHL DUP2 MSTORE PUSH1 0x20 PUSH1 0x4 DUP3 ADD MSTORE PUSH1 0xE PUSH1 0x24 DUP3 ADD MSTORE PUSH14 0x141A1BDB99481C995C5D5A5C9959 PUSH1 0x92 SHL PUSH1 0x44 DUP3 ADD MSTORE PUSH1 0x64 SWAP1 REVERT JUMPDEST DUP2 DUP2 LT PUSH2 0x61F9 JUMPI POP POP JUMP JUMPDEST PUSH1 0x0 DUP2 SSTORE PUSH1 0x1 ADD PUSH2 0x61EE JUMP JUMPDEST SWAP2 SWAP1 PUSH1 0x1F DUP2 GT PUSH2 0x6214 JUMPI POP POP POP JUMP JUMPDEST PUSH2 0x6240 SWAP3 PUSH1 0x0 MSTORE PUSH1 0x20 PUSH1 0x0 KECCAK256 SWAP1 PUSH1 0x20 PUSH1 0x1F DUP5 ADD PUSH1 0x5 SHR DUP4 ADD SWAP4 LT PUSH2 0x6242 JUMPI JUMPDEST PUSH1 0x1F ADD PUSH1 0x5 SHR ADD SWAP1 PUSH2 0x61EE JUMP JUMPDEST JUMP JUMPDEST SWAP1 SWAP2 POP DUP2 SWAP1 PUSH2 0x6233 JUMP JUMPDEST SWAP1 PUSH1 0x4 DUP2 LT ISZERO PUSH2 0x1616 JUMPI PUSH1 0xFF DUP1 NOT DUP4 SLOAD AND SWAP2 AND OR SWAP1 SSTORE JUMP JUMPDEST ISZERO PUSH2 0x626B JUMPI JUMP JUMPDEST PUSH1 0x40 MLOAD PUSH3 0x461BCD PUSH1 0xE5 SHL DUP2 MSTORE PUSH1 0x20 PUSH1 0x4 DUP3 ADD MSTORE PUSH1 0x16 PUSH1 0x24 DUP3 ADD MSTORE PUSH22 0x496E76616C69642073656C6C65722061646472657373 PUSH1 0x50 SHL PUSH1 0x44 DUP3 ADD MSTORE PUSH1 0x64 SWAP1 REVERT JUMPDEST ISZERO PUSH2 0x62B0 JUMPI JUMP JUMPDEST PUSH1 0x40 MLOAD PUSH3 0x461BCD PUSH1 0xE5 SHL DUP2 MSTORE PUSH1 0x20 PUSH1 0x4 DUP3 ADD MSTORE PUSH1 0x15 PUSH1 0x24 DUP3 ADD MSTORE PUSH21 0x14D95B1B195C881B9BDD081C9959DA5CDD195C9959 PUSH1 0x5A SHL PUSH1 0x44 DUP3 ADD MSTORE PUSH1 0x64 SWAP1 REVERT JUMPDEST PUSH1 0x40 MLOAD SWAP1 PUSH2 0x62FA DUP3 PUSH2 0x5611 JUMP JUMPDEST PUSH1 0x0 PUSH1 0xC0 DUP4 PUSH1 0x60 DUP1 DUP3 MSTORE DUP1 PUSH1 0x20 DUP4 ADD MSTORE DUP1 PUSH1 0x40 DUP4 ADD MSTORE DUP1 DUP1 DUP4 ADD MSTORE PUSH1 0x80 DUP3 ADD MSTORE DUP3 PUSH1 0xA0 DUP3 ADD MSTORE ADD MSTORE JUMP JUMPDEST PUSH1 0x1 PUSH1 0x1 PUSH1 0xA0 SHL SUB SWAP1 DUP2 AND SWAP1 PUSH2 0x633B DUP3 ISZERO ISZERO PUSH2 0x6264 JUMP JUMPDEST PUSH1 0x0 SLOAD AND DUP2 EQ PUSH2 0x6359 JUMPI PUSH1 0x0 MSTORE PUSH1 0x13 PUSH1 0x20 MSTORE PUSH1 0xFF PUSH1 0x40 PUSH1 0x0 KECCAK256 SLOAD AND SWAP1 JUMP JUMPDEST POP PUSH1 0x2 SWAP1 JUMP JUMPDEST PUSH1 0x0 NOT DUP2 EQ PUSH2 0x10CB JUMPI PUSH1 0x1 ADD SWAP1 JUMP JUMPDEST PUSH1 0x1 PUSH1 0x1 PUSH1 0x40 SHL SUB DUP2 GT PUSH2 0xD5C JUMPI PUSH1 0x5 SHL PUSH1 0x20 ADD SWAP1 JUMP JUMPDEST SWAP1 PUSH2 0x638F DUP3 PUSH2 0x636E JUMP JUMPDEST PUSH2 0x639C PUSH1 0x40 MLOAD SWAP2 DUP3 PUSH2 0x5698 JUMP JUMPDEST DUP3 DUP2 MSTORE DUP1 SWAP3 PUSH2 0x63AD PUSH1 0x1F NOT SWAP2 PUSH2 0x636E JUMP JUMPDEST ADD SWAP1 PUSH1 0x20 CALLDATASIZE SWAP2 ADD CALLDATACOPY JUMP JUMPDEST DUP1 MLOAD DUP3 LT ISZERO PUSH2 0x5A7A JUMPI PUSH1 0x20 SWAP2 PUSH1 0x5 SHL ADD ADD SWAP1 JUMP JUMPDEST PUSH1 0x0 DUP1 SLOAD PUSH1 0x1 PUSH1 0x1 PUSH1 0xA0 SHL SUB SWAP1 DUP2 AND CALLER EQ PUSH2 0x648E JUMPI CALLER DUP3 MSTORE PUSH1 0x19 PUSH1 0x20 MSTORE PUSH1 0x40 DUP3 KECCAK256 SLOAD AND PUSH2 0x6484 JUMPI CALLER DUP2 MSTORE PUSH1 0x13 PUSH1 0x20 MSTORE PUSH1 0xFF PUSH1 0x40 DUP3 KECCAK256 SLOAD AND SWAP1 PUSH1 0x4 DUP3 LT ISZERO PUSH2 0x6470 JUMPI POP PUSH1 0x2 SUB PUSH2 0x641D JUMPI PUSH2 0x6240 SWAP1 PUSH2 0x6A7C JUMP JUMPDEST PUSH1 0x40 MLOAD PUSH3 0x461BCD PUSH1 0xE5 SHL DUP2 MSTORE PUSH1 0x20 PUSH1 0x4 DUP3 ADD MSTORE PUSH1 0x25 PUSH1 0x24 DUP3 ADD MSTORE PUSH32 0x4F6E6C792076657269666965642073656C6C6572206F722061646D696E20616C PUSH1 0x44 DUP3 ADD MSTORE PUSH5 0x1B1BDDD959 PUSH1 0xDA SHL PUSH1 0x64 DUP3 ADD MSTORE PUSH1 0x84 SWAP1 REVERT JUMPDEST PUSH4 0x4E487B71 PUSH1 0xE0 SHL DUP2 MSTORE PUSH1 0x21 PUSH1 0x4 MSTORE PUSH1 0x24 SWAP1 REVERT JUMPDEST POP PUSH2 0x6240 SWAP1 PUSH2 0x6A7C JUMP JUMPDEST POP POP PUSH2 0x6240 SWAP1 PUSH2 0x6A7C JUMP JUMPDEST SWAP1 CALLDATALOAD SWAP1 PUSH1 0x1E NOT DUP2 CALLDATASIZE SUB ADD DUP3 SLT ISZERO PUSH2 0x5F1 JUMPI ADD DUP1 CALLDATALOAD SWAP1 PUSH1 0x1 PUSH1 0x1 PUSH1 0x40 SHL SUB DUP3 GT PUSH2 0x5F1 JUMPI PUSH1 0x20 ADD SWAP2 DUP2 CALLDATASIZE SUB DUP4 SGT PUSH2 0x5F1 JUMPI JUMP JUMPDEST ISZERO PUSH2 0x64D2 JUMPI JUMP JUMPDEST PUSH1 0x40 MLOAD PUSH3 0x461BCD PUSH1 0xE5 SHL DUP2 MSTORE PUSH1 0x20 PUSH1 0x4 DUP3 ADD MSTORE PUSH1 0x14 PUSH1 0x24 DUP3 ADD MSTORE PUSH20 0x4E616D652063616E6E6F7420626520656D707479 PUSH1 0x60 SHL PUSH1 0x44 DUP3 ADD MSTORE PUSH1 0x64 SWAP1 REVERT JUMPDEST ISZERO PUSH2 0x6515 JUMPI JUMP JUMPDEST PUSH1 0x40 MLOAD PUSH3 0x461BCD PUSH1 0xE5 SHL DUP2 MSTORE PUSH1 0x20 PUSH1 0x4 DUP3 ADD MSTORE PUSH1 0x1C PUSH1 0x24 DUP3 ADD MSTORE PUSH28 0x5072696365206D7573742062652067726561746572207468616E203 PUSH1 0x24 SHL PUSH1 0x44 DUP3 ADD MSTORE PUSH1 0x64 SWAP1 REVERT JUMPDEST ISZERO PUSH2 0x6560 JUMPI JUMP JUMPDEST PUSH1 0x40 MLOAD PUSH3 0x461BCD PUSH1 0xE5 SHL DUP2 MSTORE PUSH1 0x20 PUSH1 0x4 DUP3 ADD MSTORE PUSH1 0x1C PUSH1 0x24 DUP3 ADD MSTORE PUSH28 0x53746F636B206D7573742062652067726561746572207468616E203 PUSH1 0x24 SHL PUSH1 0x44 DUP3 ADD MSTORE PUSH1 0x64 SWAP1 REVERT JUMPDEST ISZERO PUSH2 0x65AB JUMPI JUMP JUMPDEST PUSH1 0x40 MLOAD PUSH3 0x461BCD PUSH1 0xE5 SHL DUP2 MSTORE PUSH1 0x20 PUSH1 0x4 DUP3 ADD MSTORE PUSH1 0x1D PUSH1 0x24 DUP3 ADD MSTORE PUSH32 0x576569676874206D7573742062652067726561746572207468616E2030000000 PUSH1 0x44 DUP3 ADD MSTORE PUSH1 0x64 SWAP1 REVERT JUMPDEST ISZERO PUSH2 0x65F7 JUMPI JUMP JUMPDEST PUSH1 0x40 MLOAD PUSH3 0x461BCD PUSH1 0xE5 SHL DUP2 MSTORE PUSH1 0x20 PUSH1 0x4 DUP3 ADD MSTORE PUSH1 0x15 PUSH1 0x24 DUP3 ADD MSTORE PUSH21 0x4D6F64656C2063616E6E6F7420626520656D707479 PUSH1 0x58 SHL PUSH1 0x44 DUP3 ADD MSTORE PUSH1 0x64 SWAP1 REVERT JUMPDEST ISZERO PUSH2 0x663B JUMPI JUMP JUMPDEST PUSH1 0x40 MLOAD PUSH3 0x461BCD PUSH1 0xE5 SHL DUP2 MSTORE PUSH1 0x20 PUSH1 0x4 DUP3 ADD MSTORE PUSH1 0x15 PUSH1 0x24 DUP3 ADD MSTORE PUSH21 0x4272616E642063616E6E6F7420626520656D707479 PUSH1 0x58 SHL PUSH1 0x44 DUP3 ADD MSTORE PUSH1 0x64 SWAP1 REVERT JUMPDEST ISZERO PUSH2 0x667F JUMPI JUMP JUMPDEST PUSH1 0x40 MLOAD PUSH3 0x461BCD PUSH1 0xE5 SHL DUP2 MSTORE PUSH1 0x20 PUSH1 0x4 DUP3 ADD MSTORE PUSH1 0x1A PUSH1 0x24 DUP3 ADD MSTORE PUSH26 0x534B55206D7573742062652067726561746572207468616E203 PUSH1 0x34 SHL PUSH1 0x44 DUP3 ADD MSTORE PUSH1 0x64 SWAP1 REVERT JUMPDEST SWAP1 CALLDATALOAD SWAP1 PUSH1 0x1E NOT DUP2 CALLDATASIZE SUB ADD DUP3 SLT ISZERO PUSH2 0x5F1 JUMPI ADD DUP1 CALLDATALOAD SWAP1 PUSH1 0x1 PUSH1 0x1 PUSH1 0x40 SHL SUB DUP3 GT PUSH2 0x5F1 JUMPI PUSH1 0x20 ADD SWAP2 DUP2 PUSH1 0x5 SHL CALLDATASIZE SUB DUP4 SGT PUSH2 0x5F1 JUMPI JUMP JUMPDEST ISZERO PUSH2 0x66FD JUMPI JUMP JUMPDEST PUSH1 0x40 MLOAD PUSH3 0x461BCD PUSH1 0xE5 SHL DUP2 MSTORE PUSH1 0x20 PUSH1 0x4 DUP3 ADD MSTORE PUSH1 0x16 PUSH1 0x24 DUP3 ADD MSTORE PUSH22 0x496D616765732063616E6E6F7420626520656D707479 PUSH1 0x50 SHL PUSH1 0x44 DUP3 ADD MSTORE PUSH1 0x64 SWAP1 REVERT JUMPDEST ISZERO PUSH2 0x6742 JUMPI JUMP JUMPDEST PUSH1 0x40 MLOAD PUSH3 0x461BCD PUSH1 0xE5 SHL DUP2 MSTORE PUSH1 0x20 PUSH1 0x4 DUP3 ADD MSTORE PUSH1 0x1C PUSH1 0x24 DUP3 ADD MSTORE PUSH28 0x496D616765732063616E6E6F74206265206D6F7265207468616E2035 PUSH1 0x20 SHL PUSH1 0x44 DUP3 ADD MSTORE PUSH1 0x64 SWAP1 REVERT JUMPDEST PUSH1 0x40 MLOAD SWAP1 PUSH2 0x6793 DUP3 PUSH2 0x55D9 JUMP JUMPDEST DUP2 PUSH2 0x240 PUSH1 0x0 SWAP2 DUP3 DUP2 MSTORE DUP3 PUSH1 0x20 DUP3 ADD MSTORE PUSH1 0x60 SWAP3 DUP4 PUSH1 0x40 DUP4 ADD MSTORE DUP4 DUP1 DUP4 ADD MSTORE DUP1 PUSH1 0x80 DUP4 ADD MSTORE DUP1 PUSH1 0xA0 DUP4 ADD MSTORE DUP4 PUSH1 0xC0 DUP4 ADD MSTORE DUP4 PUSH1 0xE0 DUP4 ADD MSTORE DUP4 PUSH2 0x100 DUP4 ADD MSTORE DUP4 PUSH2 0x120 DUP4 ADD MSTORE DUP4 PUSH2 0x140 DUP4 ADD MSTORE DUP1 PUSH2 0x160 DUP4 ADD MSTORE DUP4 PUSH2 0x180 DUP4 ADD MSTORE DUP4 PUSH2 0x1A0 DUP4 ADD MSTORE DUP1 PUSH2 0x1C0 DUP4 ADD MSTORE DUP1 PUSH2 0x1E0 DUP4 ADD MSTORE DUP1 PUSH2 0x200 DUP4 ADD MSTORE PUSH2 0x220 DUP3 ADD MSTORE ADD MSTORE JUMP JUMPDEST SWAP3 SWAP2 SWAP1 SWAP3 PUSH2 0x681F DUP5 PUSH2 0x636E JUMP JUMPDEST SWAP2 PUSH2 0x682D PUSH1 0x40 MLOAD SWAP4 DUP5 PUSH2 0x5698 JUMP JUMPDEST DUP3 SWAP5 DUP1 DUP5 MSTORE PUSH1 0x20 DUP1 SWAP5 ADD SWAP1 PUSH1 0x5 SHL DUP4 ADD SWAP3 DUP3 DUP5 GT PUSH2 0x5F1 JUMPI DUP1 SWAP2 JUMPDEST DUP5 DUP4 LT PUSH2 0x6857 JUMPI POP POP POP POP POP POP JUMP JUMPDEST DUP3 CALLDATALOAD PUSH1 0x1 PUSH1 0x1 PUSH1 0x40 SHL SUB DUP2 GT PUSH2 0x5F1 JUMPI DUP7 SWAP2 PUSH2 0x6876 DUP7 DUP5 SWAP4 DUP7 ADD PUSH2 0x570D JUMP JUMPDEST DUP2 MSTORE ADD SWAP3 ADD SWAP2 PUSH2 0x6848 JUMP JUMPDEST PUSH2 0x688B DUP2 SLOAD PUSH2 0x579C JUMP JUMPDEST SWAP1 DUP2 PUSH2 0x6895 JUMPI POP POP JUMP JUMPDEST DUP2 PUSH1 0x1F PUSH1 0x0 SWAP4 GT PUSH1 0x1 EQ PUSH2 0x68A7 JUMPI POP SSTORE JUMP JUMPDEST SWAP1 DUP1 DUP4 SWAP2 DUP3 MSTORE PUSH2 0x68C6 PUSH1 0x1F PUSH1 0x20 DUP5 KECCAK256 SWAP5 ADD PUSH1 0x5 SHR DUP5 ADD PUSH1 0x1 DUP6 ADD PUSH2 0x61EE JUMP JUMPDEST SSTORE SSTORE JUMP JUMPDEST SWAP1 PUSH1 0x1 PUSH1 0x40 SHL DUP2 GT PUSH2 0xD5C JUMPI DUP2 SLOAD SWAP2 DUP2 DUP2 SSTORE DUP3 DUP3 LT PUSH2 0x68E8 JUMPI POP POP POP JUMP JUMPDEST PUSH1 0x0 MSTORE PUSH1 0x20 PUSH1 0x0 KECCAK256 SWAP2 DUP3 ADD SWAP2 ADD JUMPDEST DUP2 DUP2 LT PUSH2 0x6901 JUMPI POP POP JUMP JUMPDEST DUP1 PUSH2 0x690D PUSH1 0x1 SWAP3 PUSH2 0x6881 JUMP JUMPDEST ADD PUSH2 0x68F6 JUMP JUMPDEST DUP2 MLOAD DUP2 SSTORE PUSH1 0x20 DUP1 DUP4 ADD MLOAD PUSH1 0x1 DUP1 DUP5 ADD DUP1 SLOAD PUSH1 0x1 PUSH1 0x1 PUSH1 0xA0 SHL SUB NOT AND PUSH1 0x1 PUSH1 0x1 PUSH1 0xA0 SHL SUB SWAP4 SWAP1 SWAP4 AND SWAP3 SWAP1 SWAP3 OR SWAP1 SWAP2 SSTORE PUSH1 0x40 DUP5 ADD MLOAD PUSH1 0x2 DUP5 ADD SSTORE PUSH1 0x60 DUP5 ADD MLOAD DUP1 MLOAD SWAP4 SWAP5 SWAP1 SWAP4 SWAP1 SWAP3 PUSH1 0x3 DUP7 ADD SWAP3 SWAP1 PUSH1 0x1 PUSH1 0x1 PUSH1 0x40 SHL SUB DUP4 GT PUSH2 0xD5C JUMPI PUSH2 0x6980 DUP4 PUSH2 0x697A DUP7 SLOAD PUSH2 0x579C JUMP JUMPDEST DUP7 PUSH2 0x6205 JUMP JUMPDEST DUP1 PUSH1 0x1F DUP5 GT PUSH1 0x1 EQ PUSH2 0x69D8 JUMPI POP SWAP2 DUP1 DUP1 SWAP3 PUSH1 0xA0 SWAP7 SWAP6 SWAP5 PUSH1 0x5 SWAP9 PUSH1 0x0 SWAP5 PUSH2 0x69CD JUMPI JUMPDEST POP POP SHL SWAP2 PUSH1 0x0 NOT SWAP1 PUSH1 0x3 SHL SHR NOT AND OR SWAP1 SSTORE JUMPDEST PUSH2 0x69C6 PUSH1 0x80 DUP3 ADD MLOAD ISZERO ISZERO PUSH1 0x4 DUP7 ADD PUSH2 0x6017 JUMP JUMPDEST ADD MLOAD SWAP2 ADD SSTORE JUMP JUMPDEST ADD MLOAD SWAP3 POP CODESIZE DUP1 PUSH2 0x69A1 JUMP JUMPDEST SWAP2 SWAP4 SWAP5 SWAP6 PUSH1 0x1F NOT DUP5 AND DUP7 PUSH1 0x0 MSTORE DUP4 PUSH1 0x0 KECCAK256 SWAP4 PUSH1 0x0 SWAP1 JUMPDEST DUP3 DUP3 LT PUSH2 0x6A30 JUMPI POP POP SWAP2 PUSH1 0x5 SWAP8 SWAP6 SWAP4 SWAP2 DUP6 PUSH1 0xA0 SWAP9 SWAP7 SWAP5 LT PUSH2 0x6A17 JUMPI JUMPDEST POP POP POP DUP2 SHL ADD SWAP1 SSTORE PUSH2 0x69B3 JUMP JUMPDEST ADD MLOAD PUSH1 0x0 NOT PUSH1 0xF8 DUP5 PUSH1 0x3 SHL AND SHR NOT AND SWAP1 SSTORE CODESIZE DUP1 DUP1 PUSH2 0x6A0A JUMP JUMPDEST DUP1 DUP9 DUP7 SWAP8 DUP3 SWAP5 SWAP8 DUP8 ADD MLOAD DUP2 SSTORE ADD SWAP7 ADD SWAP5 ADD SWAP1 PUSH2 0x69EE JUMP JUMPDEST DUP1 SLOAD PUSH1 0x1 PUSH1 0x40 SHL DUP2 LT ISZERO PUSH2 0xD5C JUMPI PUSH2 0x6A64 SWAP2 PUSH1 0x1 DUP3 ADD DUP2 SSTORE PUSH2 0x5AAB JUMP JUMPDEST DUP2 SWAP3 SWAP2 SLOAD SWAP1 PUSH1 0x3 SHL SWAP2 DUP3 SHL SWAP2 PUSH1 0x0 NOT SWAP1 SHL NOT AND OR SWAP1 SSTORE JUMP JUMPDEST PUSH2 0x6A92 PUSH2 0x6A89 DUP3 DUP1 PUSH2 0x6499 JUMP JUMPDEST SWAP1 POP ISZERO ISZERO PUSH2 0x64CB JUMP JUMPDEST PUSH2 0x6AA1 PUSH1 0x40 DUP3 ADD CALLDATALOAD ISZERO ISZERO PUSH2 0x650E JUMP JUMPDEST PUSH2 0x6AB0 PUSH1 0x60 DUP3 ADD CALLDATALOAD ISZERO ISZERO PUSH2 0x6559 JUMP JUMPDEST PUSH1 0xE0 DUP2 ADD CALLDATALOAD ISZERO PUSH2 0x779E JUMPI PUSH2 0x100 DUP2 ADD CALLDATALOAD ISZERO PUSH2 0x774B JUMPI PUSH2 0x6AD5 PUSH2 0x120 DUP3 ADD CALLDATALOAD ISZERO ISZERO PUSH2 0x65A4 JUMP JUMPDEST PUSH2 0x6AEF PUSH2 0x6AE6 PUSH2 0x140 DUP4 ADD DUP4 PUSH2 0x6499 JUMP JUMPDEST SWAP1 POP ISZERO ISZERO PUSH2 0x65F0 JUMP JUMPDEST PUSH2 0x6B09 PUSH2 0x6B00 PUSH2 0x160 DUP4 ADD DUP4 PUSH2 0x6499 JUMP JUMPDEST SWAP1 POP ISZERO ISZERO PUSH2 0x6634 JUMP JUMPDEST PUSH2 0x6B19 PUSH2 0x180 DUP3 ADD CALLDATALOAD ISZERO ISZERO PUSH2 0x6678 JUMP JUMPDEST PUSH2 0x6B32 PUSH2 0x6B29 PUSH1 0xC0 DUP4 ADD DUP4 PUSH2 0x66C1 JUMP JUMPDEST SWAP1 POP ISZERO ISZERO PUSH2 0x66F6 JUMP JUMPDEST PUSH2 0x6B4D PUSH1 0x5 PUSH2 0x6B44 PUSH1 0xC0 DUP5 ADD DUP5 PUSH2 0x66C1 JUMP JUMPDEST SWAP1 POP GT ISZERO PUSH2 0x673B JUMP JUMPDEST PUSH1 0x1 PUSH1 0x8 SLOAD ADD SWAP1 DUP2 PUSH1 0x8 SSTORE PUSH2 0x180 PUSH2 0x6B63 PUSH2 0x6786 JUMP JUMPDEST SWAP2 DUP4 DUP4 MSTORE CALLER PUSH1 0x20 DUP5 ADD MSTORE PUSH2 0x6B81 PUSH2 0x6B7A DUP3 DUP1 PUSH2 0x6499 JUMP JUMPDEST CALLDATASIZE SWAP2 PUSH2 0x56D6 JUMP JUMPDEST PUSH1 0x40 DUP5 ADD MSTORE PUSH2 0x6B96 PUSH2 0x6B7A PUSH1 0x20 DUP4 ADD DUP4 PUSH2 0x6499 JUMP JUMPDEST PUSH1 0x60 DUP5 ADD MSTORE PUSH1 0x40 DUP2 ADD CALLDATALOAD PUSH1 0x80 DUP5 ADD MSTORE PUSH1 0x60 DUP2 ADD CALLDATALOAD PUSH1 0xA0 DUP5 ADD MSTORE PUSH2 0x6BC6 PUSH2 0x6BBF PUSH1 0x80 DUP4 ADD DUP4 PUSH2 0x66C1 JUMP JUMPDEST CALLDATASIZE SWAP2 PUSH2 0x6812 JUMP JUMPDEST PUSH1 0xC0 DUP5 ADD MSTORE PUSH2 0x6BDB PUSH2 0x6BBF PUSH1 0xA0 DUP4 ADD DUP4 PUSH2 0x66C1 JUMP JUMPDEST PUSH1 0xE0 DUP5 ADD MSTORE PUSH2 0x6BF0 PUSH2 0x6BBF PUSH1 0xC0 DUP4 ADD DUP4 PUSH2 0x66C1 JUMP JUMPDEST PUSH2 0x100 DUP5 ADD MSTORE PUSH1 0xE0 DUP2 ADD CALLDATALOAD PUSH1 0x0 MSTORE PUSH1 0xE PUSH1 0x20 MSTORE PUSH2 0x3DA PUSH2 0x6C1D PUSH1 0x1 PUSH1 0x40 PUSH1 0x0 KECCAK256 ADD PUSH1 0x40 MLOAD SWAP3 DUP4 DUP1 SWAP3 PUSH2 0x57D6 JUMP JUMPDEST PUSH2 0x120 DUP5 ADD MSTORE PUSH2 0x100 DUP2 ADD CALLDATALOAD PUSH1 0x0 MSTORE PUSH1 0xF PUSH1 0x20 MSTORE PUSH2 0x3DA PUSH2 0x6C4B PUSH1 0x1 PUSH1 0x40 PUSH1 0x0 KECCAK256 ADD PUSH1 0x40 MLOAD SWAP3 DUP4 DUP1 SWAP3 PUSH2 0x57D6 JUMP JUMPDEST PUSH2 0x140 DUP5 ADD MSTORE PUSH2 0x6C62 PUSH2 0x6B7A PUSH2 0x140 DUP4 ADD DUP4 PUSH2 0x6499 JUMP JUMPDEST DUP3 DUP5 ADD MSTORE PUSH2 0x6C77 PUSH2 0x6B7A PUSH2 0x160 DUP4 ADD DUP4 PUSH2 0x6499 JUMP JUMPDEST PUSH2 0x1A0 DUP5 ADD MSTORE PUSH2 0x120 DUP2 ADD CALLDATALOAD PUSH2 0x160 DUP5 ADD MSTORE ADD CALLDATALOAD PUSH2 0x1C0 DUP3 ADD MSTORE CALLER ISZERO PUSH2 0x7707 JUMPI PUSH2 0x6CA9 PUSH2 0x6CA3 DUP4 PUSH2 0x6028 JUMP JUMPDEST ISZERO PUSH2 0x77EE JUMP JUMPDEST PUSH2 0x6CB5 PUSH2 0x6CA3 DUP4 PUSH2 0x6028 JUMP JUMPDEST CALLER PUSH1 0x0 MSTORE PUSH1 0x5 PUSH1 0x20 MSTORE PUSH1 0x40 PUSH1 0x0 KECCAK256 PUSH1 0x1 DUP2 SLOAD ADD SWAP1 SSTORE DUP2 PUSH1 0x0 MSTORE PUSH1 0x4 PUSH1 0x20 MSTORE PUSH1 0x40 PUSH1 0x0 KECCAK256 CALLER PUSH1 0x1 DUP1 PUSH1 0xA0 SHL SUB NOT DUP3 SLOAD AND OR SWAP1 SSTORE DUP2 CALLER PUSH1 0x0 PUSH1 0x0 DUP1 MLOAD PUSH1 0x20 PUSH2 0x977D DUP4 CODECOPY DUP2 MLOAD SWAP2 MSTORE DUP2 DUP1 LOG4 PUSH1 0x10 PUSH1 0x20 SWAP1 DUP2 MSTORE PUSH1 0x40 PUSH1 0x0 DUP2 SWAP1 KECCAK256 DUP4 MLOAD DUP2 SSTORE SWAP2 DUP4 ADD MLOAD PUSH1 0x1 DUP4 ADD DUP1 SLOAD PUSH1 0x1 PUSH1 0x1 PUSH1 0xA0 SHL SUB NOT AND PUSH1 0x1 PUSH1 0x1 PUSH1 0xA0 SHL SUB SWAP3 SWAP1 SWAP3 AND SWAP2 SWAP1 SWAP2 OR SWAP1 SSTORE DUP3 ADD MLOAD DUP1 MLOAD SWAP1 PUSH1 0x1 PUSH1 0x1 PUSH1 0x40 SHL SUB DUP3 GT PUSH2 0xD5C JUMPI DUP2 SWAP1 PUSH2 0x6D65 DUP3 PUSH2 0x6D5C PUSH1 0x2 DUP8 ADD SLOAD PUSH2 0x579C JUMP JUMPDEST PUSH1 0x2 DUP8 ADD PUSH2 0x6205 JUMP JUMPDEST PUSH1 0x20 SWAP1 PUSH1 0x1F DUP4 GT PUSH1 0x1 EQ PUSH2 0x7695 JUMPI PUSH1 0x0 SWAP3 PUSH2 0x768A JUMPI JUMPDEST POP POP DUP2 PUSH1 0x1 SHL SWAP2 PUSH1 0x0 NOT SWAP1 PUSH1 0x3 SHL SHR NOT AND OR PUSH1 0x2 DUP3 ADD SSTORE JUMPDEST PUSH1 0x60 DUP3 ADD MLOAD DUP1 MLOAD SWAP1 PUSH1 0x1 PUSH1 0x1 PUSH1 0x40 SHL SUB DUP3 GT PUSH2 0xD5C JUMPI DUP2 SWAP1 PUSH2 0x6DC5 DUP3 PUSH2 0x6DBC PUSH1 0x3 DUP8 ADD SLOAD PUSH2 0x579C JUMP JUMPDEST PUSH1 0x3 DUP8 ADD PUSH2 0x6205 JUMP JUMPDEST PUSH1 0x20 SWAP1 PUSH1 0x1F DUP4 GT PUSH1 0x1 EQ PUSH2 0x7618 JUMPI PUSH1 0x0 SWAP3 PUSH2 0x760D JUMPI JUMPDEST POP POP DUP2 PUSH1 0x1 SHL SWAP2 PUSH1 0x0 NOT SWAP1 PUSH1 0x3 SHL SHR NOT AND OR PUSH1 0x3 DUP3 ADD SSTORE JUMPDEST PUSH1 0x80 DUP3 ADD MLOAD PUSH1 0x4 DUP3 ADD SSTORE PUSH1 0xA0 DUP3 ADD MLOAD PUSH1 0x5 DUP3 ADD SSTORE PUSH1 0x6 DUP2 ADD PUSH1 0xC0 DUP4 ADD MLOAD PUSH1 0x20 DUP2 MLOAD SWAP2 PUSH2 0x6E1F DUP4 DUP6 PUSH2 0x68CA JUMP JUMPDEST ADD SWAP2 PUSH1 0x0 MSTORE PUSH1 0x20 PUSH1 0x0 KECCAK256 SWAP2 PUSH1 0x0 SWAP1 JUMPDEST DUP3 DUP3 LT PUSH2 0x7530 JUMPI POP POP POP POP PUSH1 0x7 DUP2 ADD PUSH1 0xE0 DUP4 ADD MLOAD PUSH1 0x20 DUP2 MLOAD SWAP2 PUSH2 0x6E51 DUP4 DUP6 PUSH2 0x68CA JUMP JUMPDEST ADD SWAP2 PUSH1 0x0 MSTORE PUSH1 0x20 PUSH1 0x0 KECCAK256 SWAP2 PUSH1 0x0 SWAP1 JUMPDEST DUP3 DUP3 LT PUSH2 0x7453 JUMPI POP POP POP POP PUSH1 0x8 DUP2 ADD PUSH2 0x100 DUP4 ADD MLOAD PUSH1 0x20 DUP2 MLOAD SWAP2 PUSH2 0x6E84 DUP4 DUP6 PUSH2 0x68CA JUMP JUMPDEST ADD SWAP2 PUSH1 0x0 MSTORE PUSH1 0x20 PUSH1 0x0 KECCAK256 SWAP2 PUSH1 0x0 SWAP1 JUMPDEST DUP3 DUP3 LT PUSH2 0x7370 JUMPI POP POP POP POP PUSH2 0x120 DUP3 ADD MLOAD DUP1 MLOAD SWAP1 PUSH1 0x1 PUSH1 0x1 PUSH1 0x40 SHL SUB DUP3 GT PUSH2 0xD5C JUMPI DUP2 SWAP1 PUSH2 0x6ED1 DUP3 PUSH2 0x6EC8 PUSH1 0x9 DUP8 ADD SLOAD PUSH2 0x579C JUMP JUMPDEST PUSH1 0x9 DUP8 ADD PUSH2 0x6205 JUMP JUMPDEST PUSH1 0x20 SWAP1 PUSH1 0x1F DUP4 GT PUSH1 0x1 EQ PUSH2 0x72FE JUMPI PUSH1 0x0 SWAP3 PUSH2 0x72F3 JUMPI JUMPDEST POP POP DUP2 PUSH1 0x1 SHL SWAP2 PUSH1 0x0 NOT SWAP1 PUSH1 0x3 SHL SHR NOT AND OR PUSH1 0x9 DUP3 ADD SSTORE JUMPDEST PUSH2 0x140 DUP3 ADD MLOAD DUP1 MLOAD SWAP1 PUSH1 0x1 PUSH1 0x1 PUSH1 0x40 SHL SUB DUP3 GT PUSH2 0xD5C JUMPI DUP2 SWAP1 PUSH2 0x6F32 DUP3 PUSH2 0x6F29 PUSH1 0xA DUP8 ADD SLOAD PUSH2 0x579C JUMP JUMPDEST PUSH1 0xA DUP8 ADD PUSH2 0x6205 JUMP JUMPDEST PUSH1 0x20 SWAP1 PUSH1 0x1F DUP4 GT PUSH1 0x1 EQ PUSH2 0x7281 JUMPI PUSH1 0x0 SWAP3 PUSH2 0x7276 JUMPI JUMPDEST POP POP DUP2 PUSH1 0x1 SHL SWAP2 PUSH1 0x0 NOT SWAP1 PUSH1 0x3 SHL SHR NOT AND OR PUSH1 0xA DUP3 ADD SSTORE JUMPDEST PUSH2 0x160 DUP3 ADD MLOAD PUSH1 0xB DUP3 ADD SSTORE PUSH2 0x180 DUP3 ADD MLOAD DUP1 MLOAD SWAP1 PUSH1 0x1 PUSH1 0x1 PUSH1 0x40 SHL SUB DUP3 GT PUSH2 0xD5C JUMPI DUP2 SWAP1 PUSH2 0x6F9E DUP3 PUSH2 0x6F95 PUSH1 0xC DUP8 ADD SLOAD PUSH2 0x579C JUMP JUMPDEST PUSH1 0xC DUP8 ADD PUSH2 0x6205 JUMP JUMPDEST PUSH1 0x20 SWAP1 PUSH1 0x1F DUP4 GT PUSH1 0x1 EQ PUSH2 0x7204 JUMPI PUSH1 0x0 SWAP3 PUSH2 0x71F9 JUMPI JUMPDEST POP POP DUP2 PUSH1 0x1 SHL SWAP2 PUSH1 0x0 NOT SWAP1 PUSH1 0x3 SHL SHR NOT AND OR PUSH1 0xC DUP3 ADD SSTORE JUMPDEST PUSH2 0x1A0 DUP3 ADD MLOAD DUP1 MLOAD SWAP1 PUSH1 0x1 PUSH1 0x1 PUSH1 0x40 SHL SUB DUP3 GT PUSH2 0xD5C JUMPI PUSH2 0x6FFD DUP3 PUSH2 0x6FF4 PUSH1 0xD DUP7 ADD SLOAD PUSH2 0x579C JUMP JUMPDEST PUSH1 0xD DUP7 ADD PUSH2 0x6205 JUMP JUMPDEST PUSH1 0x20 SWAP1 PUSH1 0x1F DUP4 GT PUSH1 0x1 EQ PUSH2 0x7183 JUMPI SWAP2 DUP1 PUSH2 0x240 SWAP5 SWAP3 PUSH1 0x10 SWAP5 PUSH1 0x0 SWAP3 PUSH2 0x7178 JUMPI JUMPDEST POP POP DUP2 PUSH1 0x1 SHL SWAP2 PUSH1 0x0 NOT SWAP1 PUSH1 0x3 SHL SHR NOT AND OR PUSH1 0xD DUP3 ADD SSTORE JUMPDEST PUSH2 0x1C0 DUP5 ADD MLOAD PUSH1 0xE DUP3 ADD SSTORE PUSH1 0xF DUP2 ADD PUSH2 0x7055 PUSH2 0x1E0 DUP7 ADD MLOAD ISZERO ISZERO DUP3 PUSH2 0x6017 JUMP JUMPDEST PUSH2 0x200 DUP6 ADD MLOAD ISZERO ISZERO DUP2 SLOAD PUSH2 0xFF00 PUSH3 0xFF0000 PUSH2 0x220 DUP10 ADD MLOAD ISZERO ISZERO DUP8 SHL AND SWAP3 PUSH1 0x8 SHL AND SWAP1 PUSH3 0xFFFF00 NOT AND OR OR SWAP1 SSTORE ADD SWAP2 ADD MLOAD SWAP1 DUP2 MLOAD SWAP2 PUSH1 0x1 PUSH1 0x40 SHL DUP4 GT PUSH2 0xD5C JUMPI DUP2 SLOAD DUP4 DUP4 SSTORE DUP1 DUP5 LT PUSH2 0x710B JUMPI JUMPDEST POP PUSH1 0x20 ADD SWAP1 PUSH1 0x0 MSTORE PUSH1 0x20 PUSH1 0x0 KECCAK256 PUSH1 0x0 SWAP2 JUMPDEST DUP4 DUP4 LT PUSH2 0x70ED JUMPI POP POP POP POP DUP1 PUSH2 0x6240 SWAP2 PUSH1 0x0 MSTORE PUSH1 0x17 PUSH1 0x20 MSTORE PUSH1 0x40 PUSH1 0x0 KECCAK256 PUSH1 0x1 PUSH1 0xFF NOT DUP3 SLOAD AND OR SWAP1 SSTORE CALLER PUSH1 0x0 MSTORE PUSH1 0x11 PUSH1 0x20 MSTORE PUSH1 0x40 PUSH1 0x0 KECCAK256 PUSH2 0x6A47 JUMP JUMPDEST PUSH1 0x6 PUSH1 0x20 DUP3 PUSH2 0x70FF PUSH1 0x1 SWAP5 MLOAD DUP7 PUSH2 0x6913 JUMP JUMPDEST ADD SWAP3 ADD SWAP3 ADD SWAP2 SWAP1 PUSH2 0x70B2 JUMP JUMPDEST DUP1 PUSH1 0x6 MUL SWAP1 PUSH1 0x6 DUP3 DIV SUB PUSH2 0x10CB JUMPI DUP4 PUSH1 0x6 MUL PUSH1 0x6 DUP2 DIV DUP6 SUB PUSH2 0x10CB JUMPI DUP4 PUSH1 0x0 MSTORE PUSH1 0x20 PUSH1 0x0 KECCAK256 SWAP2 DUP3 ADD SWAP2 ADD JUMPDEST DUP2 DUP2 LT PUSH2 0x7143 JUMPI POP PUSH2 0x70A1 JUMP JUMPDEST DUP1 PUSH1 0x0 PUSH1 0x6 SWAP3 SSTORE PUSH1 0x0 PUSH1 0x1 DUP3 ADD SSTORE PUSH1 0x0 PUSH1 0x2 DUP3 ADD SSTORE PUSH2 0x7164 PUSH1 0x3 DUP3 ADD PUSH2 0x6881 JUMP JUMPDEST PUSH1 0x0 PUSH1 0x4 DUP3 ADD SSTORE PUSH1 0x0 PUSH1 0x5 DUP3 ADD SSTORE ADD PUSH2 0x7136 JUMP JUMPDEST ADD MLOAD SWAP1 POP CODESIZE DUP1 PUSH2 0x701D JUMP JUMPDEST SWAP1 PUSH1 0xD DUP5 ADD PUSH1 0x0 MSTORE PUSH1 0x20 PUSH1 0x0 KECCAK256 SWAP2 PUSH1 0x0 JUMPDEST PUSH1 0x1F NOT DUP6 AND DUP2 LT PUSH2 0x71E1 JUMPI POP SWAP3 PUSH2 0x240 SWAP5 SWAP3 PUSH1 0x1 SWAP3 PUSH1 0x10 SWAP6 DUP4 PUSH1 0x1F NOT DUP2 AND LT PUSH2 0x71C8 JUMPI JUMPDEST POP POP POP DUP2 SHL ADD PUSH1 0xD DUP3 ADD SSTORE PUSH2 0x7035 JUMP JUMPDEST ADD MLOAD PUSH1 0x0 NOT PUSH1 0xF8 DUP5 PUSH1 0x3 SHL AND SHR NOT AND SWAP1 SSTORE CODESIZE DUP1 DUP1 PUSH2 0x71B8 JUMP JUMPDEST SWAP2 SWAP3 PUSH1 0x20 PUSH1 0x1 DUP2 SWAP3 DUP7 DUP6 ADD MLOAD DUP2 SSTORE ADD SWAP5 ADD SWAP3 ADD PUSH2 0x7194 JUMP JUMPDEST ADD MLOAD SWAP1 POP CODESIZE DUP1 PUSH2 0x6FB4 JUMP JUMPDEST SWAP3 POP PUSH1 0xC DUP5 ADD PUSH1 0x0 MSTORE PUSH1 0x20 PUSH1 0x0 KECCAK256 SWAP1 PUSH1 0x0 SWAP4 JUMPDEST PUSH1 0x1F NOT DUP5 AND DUP6 LT PUSH2 0x725B JUMPI PUSH1 0x1 SWAP5 POP DUP4 PUSH1 0x1F NOT DUP2 AND LT PUSH2 0x7242 JUMPI JUMPDEST POP POP POP DUP2 SHL ADD PUSH1 0xC DUP3 ADD SSTORE PUSH2 0x6FCC JUMP JUMPDEST ADD MLOAD PUSH1 0x0 NOT PUSH1 0xF8 DUP5 PUSH1 0x3 SHL AND SHR NOT AND SWAP1 SSTORE CODESIZE DUP1 DUP1 PUSH2 0x7232 JUMP JUMPDEST DUP2 DUP2 ADD MLOAD DUP4 SSTORE PUSH1 0x20 SWAP5 DUP6 ADD SWAP5 PUSH1 0x1 SWAP1 SWAP4 ADD SWAP3 SWAP1 SWAP2 ADD SWAP1 PUSH2 0x7217 JUMP JUMPDEST ADD MLOAD SWAP1 POP CODESIZE DUP1 PUSH2 0x6F48 JUMP JUMPDEST SWAP3 POP PUSH1 0xA DUP5 ADD PUSH1 0x0 MSTORE PUSH1 0x20 PUSH1 0x0 KECCAK256 SWAP1 PUSH1 0x0 SWAP4 JUMPDEST PUSH1 0x1F NOT DUP5 AND DUP6 LT PUSH2 0x72D8 JUMPI PUSH1 0x1 SWAP5 POP DUP4 PUSH1 0x1F NOT DUP2 AND LT PUSH2 0x72BF JUMPI JUMPDEST POP POP POP DUP2 SHL ADD PUSH1 0xA DUP3 ADD SSTORE PUSH2 0x6F60 JUMP JUMPDEST ADD MLOAD PUSH1 0x0 NOT PUSH1 0xF8 DUP5 PUSH1 0x3 SHL AND SHR NOT AND SWAP1 SSTORE CODESIZE DUP1 DUP1 PUSH2 0x72AF JUMP JUMPDEST DUP2 DUP2 ADD MLOAD DUP4 SSTORE PUSH1 0x20 SWAP5 DUP6 ADD SWAP5 PUSH1 0x1 SWAP1 SWAP4 ADD SWAP3 SWAP1 SWAP2 ADD SWAP1 PUSH2 0x7294 JUMP JUMPDEST ADD MLOAD SWAP1 POP CODESIZE DUP1 PUSH2 0x6EE7 JUMP JUMPDEST SWAP3 POP PUSH1 0x9 DUP5 ADD PUSH1 0x0 MSTORE PUSH1 0x20 PUSH1 0x0 KECCAK256 SWAP1 PUSH1 0x0 SWAP4 JUMPDEST PUSH1 0x1F NOT DUP5 AND DUP6 LT PUSH2 0x7355 JUMPI PUSH1 0x1 SWAP5 POP DUP4 PUSH1 0x1F NOT DUP2 AND LT PUSH2 0x733C JUMPI JUMPDEST POP POP POP DUP2 SHL ADD PUSH1 0x9 DUP3 ADD SSTORE PUSH2 0x6EFF JUMP JUMPDEST ADD MLOAD PUSH1 0x0 NOT PUSH1 0xF8 DUP5 PUSH1 0x3 SHL AND SHR NOT AND SWAP1 SSTORE CODESIZE DUP1 DUP1 PUSH2 0x732C JUMP JUMPDEST DUP2 DUP2 ADD MLOAD DUP4 SSTORE PUSH1 0x20 SWAP5 DUP6 ADD SWAP5 PUSH1 0x1 SWAP1 SWAP4 ADD SWAP3 SWAP1 SWAP2 ADD SWAP1 PUSH2 0x7311 JUMP JUMPDEST DUP1 MLOAD DUP1 MLOAD SWAP1 PUSH1 0x1 PUSH1 0x1 PUSH1 0x40 SHL SUB DUP3 GT PUSH2 0xD5C JUMPI PUSH2 0x7397 DUP3 PUSH2 0x7391 DUP9 SLOAD PUSH2 0x579C JUMP JUMPDEST DUP9 PUSH2 0x6205 JUMP JUMPDEST PUSH1 0x20 SWAP1 PUSH1 0x1F DUP4 GT PUSH1 0x1 EQ PUSH2 0x73E3 JUMPI SWAP3 DUP3 PUSH1 0x1 SWAP5 SWAP4 PUSH1 0x20 SWAP4 DUP7 SWAP6 PUSH1 0x0 SWAP3 PUSH2 0x73D8 JUMPI JUMPDEST POP POP PUSH1 0x0 NOT PUSH1 0x3 DUP4 SWAP1 SHL SHR NOT AND SWAP1 DUP5 SHL OR DUP8 SSTORE JUMPDEST ADD SWAP5 ADD SWAP2 ADD SWAP1 SWAP3 PUSH2 0x6E93 JUMP JUMPDEST ADD MLOAD SWAP1 POP CODESIZE DUP1 PUSH2 0x73B8 JUMP JUMPDEST SWAP1 DUP7 PUSH1 0x0 MSTORE PUSH1 0x20 PUSH1 0x0 KECCAK256 SWAP2 PUSH1 0x0 JUMPDEST PUSH1 0x1F NOT DUP6 AND DUP2 LT PUSH2 0x743B JUMPI POP DUP4 PUSH1 0x20 SWAP4 PUSH1 0x1 SWAP7 SWAP4 DUP8 SWAP7 SWAP4 DUP8 SWAP5 PUSH1 0x1F NOT DUP2 AND LT PUSH2 0x7422 JUMPI JUMPDEST POP POP POP DUP2 SHL ADD DUP8 SSTORE PUSH2 0x73CC JUMP JUMPDEST ADD MLOAD PUSH1 0x0 NOT PUSH1 0xF8 DUP5 PUSH1 0x3 SHL AND SHR NOT AND SWAP1 SSTORE CODESIZE DUP1 DUP1 PUSH2 0x7415 JUMP JUMPDEST SWAP2 SWAP3 PUSH1 0x20 PUSH1 0x1 DUP2 SWAP3 DUP7 DUP6 ADD MLOAD DUP2 SSTORE ADD SWAP5 ADD SWAP3 ADD PUSH2 0x73F1 JUMP JUMPDEST DUP1 MLOAD DUP1 MLOAD SWAP1 PUSH1 0x1 PUSH1 0x1 PUSH1 0x40 SHL SUB DUP3 GT PUSH2 0xD5C JUMPI PUSH2 0x7474 DUP3 PUSH2 0x7391 DUP9 SLOAD PUSH2 0x579C JUMP JUMPDEST PUSH1 0x20 SWAP1 PUSH1 0x1F DUP4 GT PUSH1 0x1 EQ PUSH2 0x74C0 JUMPI SWAP3 DUP3 PUSH1 0x1 SWAP5 SWAP4 PUSH1 0x20 SWAP4 DUP7 SWAP6 PUSH1 0x0 SWAP3 PUSH2 0x74B5 JUMPI JUMPDEST POP POP PUSH1 0x0 NOT PUSH1 0x3 DUP4 SWAP1 SHL SHR NOT AND SWAP1 DUP5 SHL OR DUP8 SSTORE JUMPDEST ADD SWAP5 ADD SWAP2 ADD SWAP1 SWAP3 PUSH2 0x6E60 JUMP JUMPDEST ADD MLOAD SWAP1 POP CODESIZE DUP1 PUSH2 0x7495 JUMP JUMPDEST SWAP1 DUP7 PUSH1 0x0 MSTORE PUSH1 0x20 PUSH1 0x0 KECCAK256 SWAP2 PUSH1 0x0 JUMPDEST PUSH1 0x1F NOT DUP6 AND DUP2 LT PUSH2 0x7518 JUMPI POP DUP4 PUSH1 0x20 SWAP4 PUSH1 0x1 SWAP7 SWAP4 DUP8 SWAP7 SWAP4 DUP8 SWAP5 PUSH1 0x1F NOT DUP2 AND LT PUSH2 0x74FF JUMPI JUMPDEST POP POP POP DUP2 SHL ADD DUP8 SSTORE PUSH2 0x74A9 JUMP JUMPDEST ADD MLOAD PUSH1 0x0 NOT PUSH1 0xF8 DUP5 PUSH1 0x3 SHL AND SHR NOT AND SWAP1 SSTORE CODESIZE DUP1 DUP1 PUSH2 0x74F2 JUMP JUMPDEST SWAP2 SWAP3 PUSH1 0x20 PUSH1 0x1 DUP2 SWAP3 DUP7 DUP6 ADD MLOAD DUP2 SSTORE ADD SWAP5 ADD SWAP3 ADD PUSH2 0x74CE JUMP JUMPDEST DUP1 MLOAD DUP1 MLOAD SWAP1 PUSH1 0x1 PUSH1 0x1 PUSH1 0x40 SHL SUB DUP3 GT PUSH2 0xD5C JUMPI PUSH2 0x7551 DUP3 PUSH2 0x7391 DUP9 SLOAD PUSH2 0x579C JUMP JUMPDEST PUSH1 0x20 SWAP1 PUSH1 0x1F DUP4 GT PUSH1 0x1 EQ PUSH2 0x759D JUMPI SWAP3 DUP3 PUSH1 0x1 SWAP5 SWAP4 PUSH1 0x20 SWAP4 DUP7 SWAP6 PUSH1 0x0 SWAP3 PUSH2 0x7592 JUMPI JUMPDEST POP POP PUSH1 0x0 NOT PUSH1 0x3 DUP4 SWAP1 SHL SHR NOT AND SWAP1 DUP5 SHL OR DUP8 SSTORE JUMPDEST ADD SWAP5 ADD SWAP2 ADD SWAP1 SWAP3 PUSH2 0x6E2E JUMP JUMPDEST ADD MLOAD SWAP1 POP CODESIZE DUP1 PUSH2 0x7572 JUMP JUMPDEST SWAP1 DUP7 PUSH1 0x0 MSTORE PUSH1 0x20 PUSH1 0x0 KECCAK256 SWAP2 PUSH1 0x0 JUMPDEST PUSH1 0x1F NOT DUP6 AND DUP2 LT PUSH2 0x75F5 JUMPI POP DUP4 PUSH1 0x20 SWAP4 PUSH1 0x1 SWAP7 SWAP4 DUP8 SWAP7 SWAP4 DUP8 SWAP5 PUSH1 0x1F NOT DUP2 AND LT PUSH2 0x75DC JUMPI JUMPDEST POP POP POP DUP2 SHL ADD DUP8 SSTORE PUSH2 0x7586 JUMP JUMPDEST ADD MLOAD PUSH1 0x0 NOT PUSH1 0xF8 DUP5 PUSH1 0x3 SHL AND SHR NOT AND SWAP1 SSTORE CODESIZE DUP1 DUP1 PUSH2 0x75CF JUMP JUMPDEST SWAP2 SWAP3 PUSH1 0x20 PUSH1 0x1 DUP2 SWAP3 DUP7 DUP6 ADD MLOAD DUP2 SSTORE ADD SWAP5 ADD SWAP3 ADD PUSH2 0x75AB JUMP JUMPDEST ADD MLOAD SWAP1 POP CODESIZE DUP1 PUSH2 0x6DDB JUMP JUMPDEST SWAP3 POP PUSH1 0x3 DUP5 ADD PUSH1 0x0 MSTORE PUSH1 0x20 PUSH1 0x0 KECCAK256 SWAP1 PUSH1 0x0 SWAP4 JUMPDEST PUSH1 0x1F NOT DUP5 AND DUP6 LT PUSH2 0x766F JUMPI PUSH1 0x1 SWAP5 POP DUP4 PUSH1 0x1F NOT DUP2 AND LT PUSH2 0x7656 JUMPI JUMPDEST POP POP POP DUP2 SHL ADD PUSH1 0x3 DUP3 ADD SSTORE PUSH2 0x6DF3 JUMP JUMPDEST ADD MLOAD PUSH1 0x0 NOT PUSH1 0xF8 DUP5 PUSH1 0x3 SHL AND SHR NOT AND SWAP1 SSTORE CODESIZE DUP1 DUP1 PUSH2 0x7646 JUMP JUMPDEST DUP2 DUP2 ADD MLOAD DUP4 SSTORE PUSH1 0x20 SWAP5 DUP6 ADD SWAP5 PUSH1 0x1 SWAP1 SWAP4 ADD SWAP3 SWAP1 SWAP2 ADD SWAP1 PUSH2 0x762B JUMP JUMPDEST ADD MLOAD SWAP1 POP CODESIZE DUP1 PUSH2 0x6D7B JUMP JUMPDEST SWAP3 POP PUSH1 0x2 DUP5 ADD PUSH1 0x0 MSTORE PUSH1 0x20 PUSH1 0x0 KECCAK256 SWAP1 PUSH1 0x0 SWAP4 JUMPDEST PUSH1 0x1F NOT DUP5 AND DUP6 LT PUSH2 0x76EC JUMPI PUSH1 0x1 SWAP5 POP DUP4 PUSH1 0x1F NOT DUP2 AND LT PUSH2 0x76D3 JUMPI JUMPDEST POP POP POP DUP2 SHL ADD PUSH1 0x2 DUP3 ADD SSTORE PUSH2 0x6D93 JUMP JUMPDEST ADD MLOAD PUSH1 0x0 NOT PUSH1 0xF8 DUP5 PUSH1 0x3 SHL AND SHR NOT AND SWAP1 SSTORE CODESIZE DUP1 DUP1 PUSH2 0x76C3 JUMP JUMPDEST DUP2 DUP2 ADD MLOAD DUP4 SSTORE PUSH1 0x20 SWAP5 DUP6 ADD SWAP5 PUSH1 0x1 SWAP1 SWAP4 ADD SWAP3 SWAP1 SWAP2 ADD SWAP1 PUSH2 0x76A8 JUMP JUMPDEST PUSH1 0x64 PUSH1 0x40 MLOAD PUSH3 0x461BCD PUSH1 0xE5 SHL DUP2 MSTORE PUSH1 0x20 PUSH1 0x4 DUP3 ADD MSTORE PUSH1 0x20 PUSH1 0x24 DUP3 ADD MSTORE PUSH32 0x4552433732313A206D696E7420746F20746865207A65726F2061646472657373 PUSH1 0x44 DUP3 ADD MSTORE REVERT JUMPDEST PUSH1 0x40 MLOAD PUSH3 0x461BCD PUSH1 0xE5 SHL DUP2 MSTORE PUSH1 0x20 PUSH1 0x4 DUP3 ADD MSTORE PUSH1 0x25 PUSH1 0x24 DUP3 ADD MSTORE PUSH32 0x53756243617465676F7279204944206D75737420626520677265617465722074 PUSH1 0x44 DUP3 ADD MSTORE PUSH5 0x68616E203 PUSH1 0xDC SHL PUSH1 0x64 DUP3 ADD MSTORE PUSH1 0x84 SWAP1 REVERT JUMPDEST PUSH1 0x40 MLOAD PUSH3 0x461BCD PUSH1 0xE5 SHL DUP2 MSTORE PUSH1 0x20 PUSH1 0x4 DUP3 ADD MSTORE PUSH1 0x22 PUSH1 0x24 DUP3 ADD MSTORE PUSH32 0x43617465676F7279204944206D7573742062652067726561746572207468616E PUSH1 0x44 DUP3 ADD MSTORE PUSH2 0x203 PUSH1 0xF4 SHL PUSH1 0x64 DUP3 ADD MSTORE PUSH1 0x84 SWAP1 REVERT JUMPDEST ISZERO PUSH2 0x77F5 JUMPI JUMP JUMPDEST PUSH1 0x40 MLOAD PUSH3 0x461BCD PUSH1 0xE5 SHL DUP2 MSTORE PUSH1 0x20 PUSH1 0x4 DUP3 ADD MSTORE PUSH1 0x1C PUSH1 0x24 DUP3 ADD MSTORE PUSH28 0x115490CDCC8C4E881D1BDAD95B88185B1C9958591E481B5A5B9D1959 PUSH1 0x22 SHL PUSH1 0x44 DUP3 ADD MSTORE PUSH1 0x64 SWAP1 REVERT JUMPDEST ISZERO PUSH2 0x7840 JUMPI JUMP JUMPDEST PUSH1 0x40 MLOAD PUSH3 0x461BCD PUSH1 0xE5 SHL DUP2 MSTORE PUSH1 0x20 PUSH1 0x4 DUP3 ADD MSTORE PUSH1 0x25 PUSH1 0x24 DUP3 ADD MSTORE PUSH32 0x4F6E6C792076657269666965642073656C6C6572206F72206F776E657220616C PUSH1 0x44 DUP3 ADD MSTORE PUSH5 0x1B1BDDD959 PUSH1 0xDA SHL PUSH1 0x64 DUP3 ADD MSTORE PUSH1 0x84 SWAP1 REVERT JUMPDEST PUSH1 0x0 DUP1 SLOAD SWAP1 SWAP4 SWAP3 SWAP2 SWAP1 PUSH1 0x1 PUSH1 0x1 PUSH1 0xA0 SHL SUB SWAP1 DUP2 AND CALLER EQ PUSH2 0x7976 JUMPI CALLER DUP6 MSTORE PUSH1 0x19 PUSH1 0x20 MSTORE PUSH1 0x40 DUP6 KECCAK256 SLOAD DUP2 AND SWAP1 DUP2 ISZERO PUSH2 0x7920 JUMPI DUP2 DUP7 MSTORE PUSH1 0x13 PUSH1 0x20 MSTORE PUSH1 0xFF PUSH1 0x40 DUP8 KECCAK256 SLOAD AND PUSH1 0x4 DUP2 LT ISZERO PUSH2 0x790C JUMPI SWAP2 PUSH2 0x6240 SWAP6 SWAP7 SWAP2 PUSH1 0x2 PUSH2 0x78FA SWAP5 EQ SWAP3 DUP4 ISZERO PUSH2 0x78FF JUMPI JUMPDEST POP POP POP PUSH2 0x7839 JUMP JUMPDEST PUSH2 0x7AE0 JUMP JUMPDEST SLOAD AND EQ SWAP1 POP CODESIZE DUP1 DUP1 PUSH2 0x78F2 JUMP JUMPDEST PUSH4 0x4E487B71 PUSH1 0xE0 SHL DUP8 MSTORE PUSH1 0x21 PUSH1 0x4 MSTORE PUSH1 0x24 DUP8 REVERT JUMPDEST SWAP1 POP PUSH1 0x13 PUSH1 0x20 MSTORE PUSH1 0xFF PUSH1 0x40 DUP7 KECCAK256 SLOAD AND PUSH1 0x4 DUP2 LT ISZERO PUSH2 0x7962 JUMPI SWAP5 PUSH2 0x78FA SWAP2 PUSH1 0x2 PUSH2 0x6240 SWAP7 SWAP8 EQ SWAP2 DUP3 ISZERO PUSH2 0x7954 JUMPI JUMPDEST POP POP PUSH2 0x7839 JUMP JUMPDEST SWAP1 SWAP2 POP SLOAD AND CALLER EQ CODESIZE DUP1 PUSH2 0x794D JUMP JUMPDEST PUSH4 0x4E487B71 PUSH1 0xE0 SHL DUP7 MSTORE PUSH1 0x21 PUSH1 0x4 MSTORE PUSH1 0x24 DUP7 REVERT JUMPDEST POP PUSH2 0x6240 SWAP3 SWAP4 POP PUSH2 0x7AE0 JUMP JUMPDEST ISZERO PUSH2 0x7989 JUMPI JUMP JUMPDEST PUSH1 0x40 MLOAD PUSH3 0x461BCD PUSH1 0xE5 SHL DUP2 MSTORE PUSH1 0x20 PUSH1 0x4 DUP3 ADD MSTORE PUSH1 0x16 PUSH1 0x24 DUP3 ADD MSTORE PUSH22 0x141C9BD91D58DD08191BD95CC81B9BDD08195E1A5CDD PUSH1 0x52 SHL PUSH1 0x44 DUP3 ADD MSTORE PUSH1 0x64 SWAP1 REVERT JUMPDEST ISZERO PUSH2 0x79CE JUMPI JUMP JUMPDEST PUSH1 0x40 MLOAD PUSH3 0x461BCD PUSH1 0xE5 SHL DUP2 MSTORE PUSH1 0x20 PUSH1 0x4 DUP3 ADD MSTORE PUSH1 0x12 PUSH1 0x24 DUP3 ADD MSTORE PUSH18 0x141C9BD91D58DD081A5CC819195B195D1959 PUSH1 0x72 SHL PUSH1 0x44 DUP3 ADD MSTORE PUSH1 0x64 SWAP1 REVERT JUMPDEST SWAP1 DUP1 DUP3 EQ PUSH2 0x7ADC JUMPI PUSH2 0x7A1A DUP2 SLOAD PUSH2 0x579C JUMP JUMPDEST SWAP1 PUSH1 0x1 PUSH1 0x1 PUSH1 0x40 SHL SUB DUP3 GT PUSH2 0xD5C JUMPI DUP2 SWAP1 PUSH2 0x7A39 DUP3 PUSH2 0x697A DUP7 SLOAD PUSH2 0x579C JUMP JUMPDEST PUSH1 0x0 SWAP1 PUSH1 0x1F DUP4 GT PUSH1 0x1 EQ PUSH2 0x7A70 JUMPI PUSH1 0x0 SWAP3 PUSH2 0x7A65 JUMPI JUMPDEST POP POP DUP2 PUSH1 0x1 SHL SWAP2 PUSH1 0x0 NOT SWAP1 PUSH1 0x3 SHL SHR NOT AND OR SWAP1 SSTORE JUMP JUMPDEST ADD SLOAD SWAP1 POP CODESIZE DUP1 PUSH2 0x7A4F JUMP JUMPDEST DUP2 MSTORE PUSH1 0x20 DUP1 DUP3 KECCAK256 DUP6 DUP4 MSTORE DUP2 DUP4 KECCAK256 SWAP4 POP SWAP1 PUSH1 0x1F NOT DUP6 AND SWAP1 DUP4 SWAP1 JUMPDEST DUP3 DUP3 LT PUSH2 0x7AC3 JUMPI POP POP SWAP1 DUP5 PUSH1 0x1 SWAP6 SWAP5 SWAP4 SWAP3 LT PUSH2 0x7AAA JUMPI JUMPDEST POP POP POP DUP2 SHL ADD SWAP1 SSTORE JUMP JUMPDEST ADD SLOAD PUSH1 0x0 NOT PUSH1 0xF8 DUP5 PUSH1 0x3 SHL AND SHR NOT AND SWAP1 SSTORE CODESIZE DUP1 DUP1 PUSH2 0x7AA0 JUMP JUMPDEST DUP5 SWAP6 DUP2 SWAP3 SWAP6 DUP6 ADD SLOAD DUP2 SSTORE PUSH1 0x1 DUP1 SWAP2 ADD SWAP7 ADD SWAP5 ADD SWAP1 PUSH2 0x7A89 JUMP JUMPDEST POP POP JUMP JUMPDEST PUSH1 0x0 DUP2 DUP2 MSTORE PUSH1 0x10 PUSH1 0x20 MSTORE PUSH1 0x40 SWAP1 KECCAK256 PUSH1 0x1 ADD SLOAD PUSH1 0x1 PUSH1 0x1 PUSH1 0xA0 SHL SUB AND CALLER SUB PUSH2 0x84D4 JUMPI DUP1 PUSH1 0x0 MSTORE PUSH1 0x17 PUSH1 0x20 MSTORE PUSH2 0x7B1B PUSH1 0xFF PUSH1 0x40 PUSH1 0x0 KECCAK256 SLOAD AND PUSH2 0x7982 JUMP JUMPDEST DUP1 PUSH1 0x0 MSTORE PUSH1 0x10 PUSH1 0x20 MSTORE PUSH2 0x7B3C PUSH1 0xFF PUSH1 0xF PUSH1 0x40 PUSH1 0x0 KECCAK256 ADD SLOAD PUSH1 0x10 SHR AND ISZERO PUSH2 0x79C7 JUMP JUMPDEST PUSH2 0x7B49 PUSH2 0x6A89 DUP4 DUP1 PUSH2 0x6499 JUMP JUMPDEST PUSH2 0x7B56 PUSH1 0x20 DUP4 ADD DUP4 PUSH2 0x6499 JUMP JUMPDEST SWAP1 POP ISZERO PUSH2 0x8491 JUMPI PUSH2 0x7B6C PUSH1 0x40 DUP4 ADD CALLDATALOAD ISZERO ISZERO PUSH2 0x650E JUMP JUMPDEST PUSH2 0x7B7B PUSH1 0x60 DUP4 ADD CALLDATALOAD ISZERO ISZERO PUSH2 0x6559 JUMP JUMPDEST PUSH2 0x7B88 PUSH1 0x80 DUP4 ADD DUP4 PUSH2 0x66C1 JUMP JUMPDEST SWAP1 POP ISZERO PUSH2 0x8453 JUMPI PUSH2 0x7B9C PUSH1 0xA0 DUP4 ADD DUP4 PUSH2 0x66C1 JUMP JUMPDEST SWAP1 POP ISZERO PUSH2 0x8416 JUMPI PUSH2 0x7BB3 PUSH2 0x6B29 PUSH1 0xC0 DUP5 ADD DUP5 PUSH2 0x66C1 JUMP JUMPDEST PUSH2 0x7BC5 PUSH1 0x5 PUSH2 0x6B44 PUSH1 0xC0 DUP6 ADD DUP6 PUSH2 0x66C1 JUMP JUMPDEST PUSH1 0xE0 DUP3 ADD CALLDATALOAD ISZERO PUSH2 0x83D6 JUMPI PUSH2 0x100 DUP3 ADD CALLDATALOAD ISZERO PUSH2 0x8392 JUMPI PUSH2 0x7BEB PUSH2 0x6AE6 PUSH2 0x140 DUP5 ADD DUP5 PUSH2 0x6499 JUMP JUMPDEST PUSH2 0x7BFC PUSH2 0x6B00 PUSH2 0x160 DUP5 ADD DUP5 PUSH2 0x6499 JUMP JUMPDEST PUSH2 0x7C0C PUSH2 0x120 DUP4 ADD CALLDATALOAD ISZERO ISZERO PUSH2 0x65A4 JUMP JUMPDEST PUSH2 0x7C1C PUSH2 0x180 DUP4 ADD CALLDATALOAD ISZERO ISZERO PUSH2 0x6678 JUMP JUMPDEST PUSH2 0x7C26 DUP3 DUP1 PUSH2 0x6499 JUMP JUMPDEST PUSH1 0x0 DUP4 DUP2 MSTORE PUSH1 0x10 PUSH1 0x20 MSTORE PUSH1 0x40 SWAP1 KECCAK256 PUSH1 0x2 ADD SWAP2 PUSH1 0x1 PUSH1 0x1 PUSH1 0x40 SHL SUB DUP3 GT PUSH2 0xD5C JUMPI DUP2 SWAP1 PUSH2 0x7C56 DUP3 PUSH2 0x697A DUP7 SLOAD PUSH2 0x579C JUMP JUMPDEST PUSH1 0x0 SWAP1 PUSH1 0x1F DUP4 GT PUSH1 0x1 EQ PUSH2 0x832A JUMPI PUSH1 0x0 SWAP3 PUSH2 0x831F JUMPI JUMPDEST POP POP DUP2 PUSH1 0x1 SHL SWAP2 PUSH1 0x0 NOT SWAP1 PUSH1 0x3 SHL SHR NOT AND OR SWAP1 SSTORE JUMPDEST PUSH2 0x7C8E PUSH1 0x20 DUP4 ADD DUP4 PUSH2 0x6499 JUMP JUMPDEST PUSH1 0x0 DUP4 DUP2 MSTORE PUSH1 0x10 PUSH1 0x20 MSTORE PUSH1 0x40 SWAP1 KECCAK256 PUSH1 0x3 ADD SWAP2 PUSH1 0x1 PUSH1 0x1 PUSH1 0x40 SHL SUB DUP3 GT PUSH2 0xD5C JUMPI DUP2 SWAP1 PUSH2 0x7CBE DUP3 PUSH2 0x697A DUP7 SLOAD PUSH2 0x579C JUMP JUMPDEST PUSH1 0x0 SWAP1 PUSH1 0x1F DUP4 GT PUSH1 0x1 EQ PUSH2 0x82B7 JUMPI PUSH1 0x0 SWAP3 PUSH2 0x82AC JUMPI JUMPDEST POP POP DUP2 PUSH1 0x1 SHL SWAP2 PUSH1 0x0 NOT SWAP1 PUSH1 0x3 SHL SHR NOT AND OR SWAP1 SSTORE JUMPDEST DUP1 PUSH1 0x0 MSTORE PUSH1 0x10 PUSH1 0x20 MSTORE PUSH1 0x40 PUSH1 0x0 KECCAK256 PUSH1 0x40 DUP4 ADD CALLDATALOAD PUSH1 0x4 DUP3 ADD SSTORE PUSH1 0x60 DUP4 ADD CALLDATALOAD PUSH1 0x5 DUP3 ADD SSTORE PUSH1 0x6 PUSH2 0x7D1A PUSH1 0x80 DUP6 ADD DUP6 PUSH2 0x66C1 JUMP JUMPDEST SWAP2 SWAP1 SWAP3 ADD SWAP2 PUSH2 0x7D29 DUP3 DUP5 PUSH2 0x68CA JUMP JUMPDEST PUSH1 0x0 SWAP3 DUP4 MSTORE PUSH1 0x20 DUP4 KECCAK256 SWAP1 DUP1 JUMPDEST DUP4 DUP6 LT PUSH2 0x81C9 JUMPI POP POP POP POP POP PUSH2 0x7D4E PUSH1 0xA0 DUP4 ADD DUP4 PUSH2 0x66C1 JUMP JUMPDEST DUP3 PUSH1 0x0 MSTORE PUSH1 0x10 PUSH1 0x20 MSTORE PUSH1 0x7 PUSH1 0x40 PUSH1 0x0 KECCAK256 ADD SWAP2 PUSH2 0x7D6A DUP3 DUP5 PUSH2 0x68CA JUMP JUMPDEST PUSH1 0x0 SWAP3 DUP4 MSTORE PUSH1 0x20 DUP4 KECCAK256 SWAP1 DUP1 JUMPDEST DUP4 DUP6 LT PUSH2 0x80E6 JUMPI POP POP POP POP POP PUSH2 0x7D8F PUSH1 0xC0 DUP4 ADD DUP4 PUSH2 0x66C1 JUMP JUMPDEST DUP3 PUSH1 0x0 MSTORE PUSH1 0x10 PUSH1 0x20 MSTORE PUSH1 0x8 PUSH1 0x40 PUSH1 0x0 KECCAK256 ADD SWAP2 PUSH2 0x7DAB DUP3 DUP5 PUSH2 0x68CA JUMP JUMPDEST PUSH1 0x0 SWAP3 DUP4 MSTORE PUSH1 0x20 DUP4 KECCAK256 SWAP1 DUP1 JUMPDEST DUP4 DUP6 LT PUSH2 0x7FFD JUMPI POP POP POP POP POP PUSH1 0xE0 DUP3 ADD CALLDATALOAD PUSH1 0x0 MSTORE PUSH1 0xE PUSH1 0x20 MSTORE PUSH2 0x7DF1 PUSH1 0x1 PUSH1 0x40 PUSH1 0x0 KECCAK256 ADD DUP3 PUSH1 0x0 MSTORE PUSH1 0x10 PUSH1 0x20 MSTORE PUSH1 0x9 PUSH1 0x40 PUSH1 0x0 KECCAK256 ADD PUSH2 0x7A08 JUMP JUMPDEST PUSH2 0x100 DUP3 ADD CALLDATALOAD PUSH1 0x0 MSTORE PUSH1 0xF PUSH1 0x20 MSTORE PUSH2 0x7E20 PUSH1 0x1 PUSH1 0x40 PUSH1 0x0 KECCAK256 ADD DUP3 PUSH1 0x0 MSTORE PUSH1 0x10 PUSH1 0x20 MSTORE PUSH1 0xA PUSH1 0x40 PUSH1 0x0 KECCAK256 ADD PUSH2 0x7A08 JUMP JUMPDEST PUSH2 0x7E2E PUSH2 0x140 DUP4 ADD DUP4 PUSH2 0x6499 JUMP JUMPDEST PUSH1 0x0 DUP4 DUP2 MSTORE PUSH1 0x10 PUSH1 0x20 MSTORE PUSH1 0x40 SWAP1 KECCAK256 PUSH1 0xC ADD SWAP2 PUSH1 0x1 PUSH1 0x1 PUSH1 0x40 SHL SUB DUP3 GT PUSH2 0xD5C JUMPI DUP2 SWAP1 PUSH2 0x7E5E DUP3 PUSH2 0x697A DUP7 SLOAD PUSH2 0x579C JUMP JUMPDEST PUSH1 0x0 SWAP1 PUSH1 0x1F DUP4 GT PUSH1 0x1 EQ PUSH2 0x7F95 JUMPI PUSH1 0x0 SWAP3 PUSH2 0x7F8A JUMPI JUMPDEST POP POP DUP2 PUSH1 0x1 SHL SWAP2 PUSH1 0x0 NOT SWAP1 PUSH1 0x3 SHL SHR NOT AND OR SWAP1 SSTORE JUMPDEST PUSH2 0x7E97 PUSH2 0x160 DUP4 ADD DUP4 PUSH2 0x6499 JUMP JUMPDEST PUSH1 0x0 DUP4 DUP2 MSTORE PUSH1 0x10 PUSH1 0x20 MSTORE PUSH1 0x40 SWAP1 KECCAK256 PUSH1 0xD ADD SWAP2 PUSH1 0x1 PUSH1 0x1 PUSH1 0x40 SHL SUB DUP3 GT PUSH2 0xD5C JUMPI DUP2 SWAP1 PUSH2 0x7EC7 DUP3 PUSH2 0x697A DUP7 SLOAD PUSH2 0x579C JUMP JUMPDEST PUSH1 0x0 SWAP1 PUSH1 0x1F DUP4 GT PUSH1 0x1 EQ PUSH2 0x7F22 JUMPI PUSH1 0x0 SWAP3 PUSH2 0x7F17 JUMPI JUMPDEST POP POP DUP2 PUSH1 0x1 SHL SWAP2 PUSH1 0x0 NOT SWAP1 PUSH1 0x3 SHL SHR NOT AND OR SWAP1 SSTORE JUMPDEST PUSH1 0x0 MSTORE PUSH1 0x10 PUSH1 0x20 MSTORE PUSH1 0xE PUSH2 0x180 PUSH1 0x40 PUSH1 0x0 KECCAK256 SWAP3 PUSH2 0x120 DUP2 ADD CALLDATALOAD PUSH1 0xB DUP6 ADD SSTORE ADD CALLDATALOAD SWAP2 ADD SSTORE JUMP JUMPDEST ADD CALLDATALOAD SWAP1 POP CODESIZE DUP1 PUSH2 0x7EDD JUMP JUMPDEST PUSH1 0x0 DUP6 DUP2 MSTORE PUSH1 0x20 DUP2 KECCAK256 SWAP1 SWAP5 POP SWAP2 JUMPDEST PUSH1 0x1F NOT DUP5 AND DUP6 LT PUSH2 0x7F72 JUMPI PUSH1 0x1 SWAP5 POP DUP4 PUSH1 0x1F NOT DUP2 AND LT PUSH2 0x7F58 JUMPI JUMPDEST POP POP POP DUP2 SHL ADD SWAP1 SSTORE PUSH2 0x7EF2 JUMP JUMPDEST ADD CALLDATALOAD PUSH1 0x0 NOT PUSH1 0x3 DUP5 SWAP1 SHL PUSH1 0xF8 AND SHR NOT AND SWAP1 SSTORE CODESIZE DUP1 DUP1 PUSH2 0x7F4B JUMP JUMPDEST DUP2 DUP2 ADD CALLDATALOAD DUP4 SSTORE PUSH1 0x20 SWAP5 DUP6 ADD SWAP5 PUSH1 0x1 SWAP1 SWAP4 ADD SWAP3 ADD PUSH2 0x7F30 JUMP JUMPDEST ADD CALLDATALOAD SWAP1 POP CODESIZE DUP1 PUSH2 0x7E74 JUMP JUMPDEST PUSH1 0x0 DUP6 DUP2 MSTORE PUSH1 0x20 DUP2 KECCAK256 SWAP1 SWAP5 POP SWAP2 JUMPDEST PUSH1 0x1F NOT DUP5 AND DUP6 LT PUSH2 0x7FE5 JUMPI PUSH1 0x1 SWAP5 POP DUP4 PUSH1 0x1F NOT DUP2 AND LT PUSH2 0x7FCB JUMPI JUMPDEST POP POP POP DUP2 SHL ADD SWAP1 SSTORE PUSH2 0x7E89 JUMP JUMPDEST ADD CALLDATALOAD PUSH1 0x0 NOT PUSH1 0x3 DUP5 SWAP1 SHL PUSH1 0xF8 AND SHR NOT AND SWAP1 SSTORE CODESIZE DUP1 DUP1 PUSH2 0x7FBE JUMP JUMPDEST DUP2 DUP2 ADD CALLDATALOAD DUP4 SSTORE PUSH1 0x20 SWAP5 DUP6 ADD SWAP5 PUSH1 0x1 SWAP1 SWAP4 ADD SWAP3 ADD PUSH2 0x7FA3 JUMP JUMPDEST PUSH2 0x8007 DUP2 DUP4 PUSH2 0x6499 JUMP JUMPDEST SWAP1 PUSH1 0x1 PUSH1 0x1 PUSH1 0x40 SHL SUB DUP3 GT PUSH2 0xD5C JUMPI PUSH2 0x802A DUP3 PUSH2 0x8024 DUP8 SLOAD PUSH2 0x579C JUMP JUMPDEST DUP8 PUSH2 0x6205 JUMP JUMPDEST PUSH1 0x0 SWAP1 PUSH1 0x1F DUP4 GT PUSH1 0x1 EQ PUSH2 0x8076 JUMPI SWAP3 DUP3 PUSH1 0x1 SWAP5 SWAP4 PUSH1 0x20 SWAP4 DUP7 SWAP6 PUSH1 0x0 SWAP3 PUSH2 0x806B JUMPI JUMPDEST POP POP PUSH1 0x0 NOT PUSH1 0x3 DUP4 SWAP1 SHL SHR NOT AND SWAP1 DUP5 SHL OR DUP7 SSTORE JUMPDEST ADD SWAP4 ADD SWAP5 ADD SWAP4 SWAP2 PUSH2 0x7DB7 JUMP JUMPDEST ADD CALLDATALOAD SWAP1 POP CODESIZE DUP1 PUSH2 0x804B JUMP JUMPDEST DUP6 PUSH1 0x0 MSTORE PUSH1 0x20 PUSH1 0x0 KECCAK256 SWAP2 PUSH1 0x0 JUMPDEST PUSH1 0x1F NOT DUP6 AND DUP2 LT PUSH2 0x80CE JUMPI POP DUP4 PUSH1 0x20 SWAP4 PUSH1 0x1 SWAP7 SWAP4 DUP8 SWAP7 SWAP4 DUP8 SWAP5 PUSH1 0x1F NOT DUP2 AND LT PUSH2 0x80B4 JUMPI JUMPDEST POP POP POP DUP2 SHL ADD DUP7 SSTORE PUSH2 0x805F JUMP JUMPDEST ADD CALLDATALOAD PUSH1 0x0 NOT PUSH1 0x3 DUP5 SWAP1 SHL PUSH1 0xF8 AND SHR NOT AND SWAP1 SSTORE CODESIZE DUP1 DUP1 PUSH2 0x80A7 JUMP JUMPDEST SWAP1 SWAP3 PUSH1 0x20 PUSH1 0x1 DUP2 SWAP3 DUP7 DUP7 ADD CALLDATALOAD DUP2 SSTORE ADD SWAP5 ADD SWAP2 ADD PUSH2 0x8083 JUMP JUMPDEST PUSH2 0x80F0 DUP2 DUP4 PUSH2 0x6499 JUMP JUMPDEST SWAP1 PUSH1 0x1 PUSH1 0x1 PUSH1 0x40 SHL SUB DUP3 GT PUSH2 0xD5C JUMPI PUSH2 0x810D DUP3 PUSH2 0x8024 DUP8 SLOAD PUSH2 0x579C JUMP JUMPDEST PUSH1 0x0 SWAP1 PUSH1 0x1F DUP4 GT PUSH1 0x1 EQ PUSH2 0x8159 JUMPI SWAP3 DUP3 PUSH1 0x1 SWAP5 SWAP4 PUSH1 0x20 SWAP4 DUP7 SWAP6 PUSH1 0x0 SWAP3 PUSH2 0x814E JUMPI JUMPDEST POP POP PUSH1 0x0 NOT PUSH1 0x3 DUP4 SWAP1 SHL SHR NOT AND SWAP1 DUP5 SHL OR DUP7 SSTORE JUMPDEST ADD SWAP4 ADD SWAP5 ADD SWAP4 SWAP2 PUSH2 0x7D76 JUMP JUMPDEST ADD CALLDATALOAD SWAP1 POP CODESIZE DUP1 PUSH2 0x812E JUMP JUMPDEST DUP6 PUSH1 0x0 MSTORE PUSH1 0x20 PUSH1 0x0 KECCAK256 SWAP2 PUSH1 0x0 JUMPDEST PUSH1 0x1F NOT DUP6 AND DUP2 LT PUSH2 0x81B1 JUMPI POP DUP4 PUSH1 0x20 SWAP4 PUSH1 0x1 SWAP7 SWAP4 DUP8 SWAP7 SWAP4 DUP8 SWAP5 PUSH1 0x1F NOT DUP2 AND LT PUSH2 0x8197 JUMPI JUMPDEST POP POP POP DUP2 SHL ADD DUP7 SSTORE PUSH2 0x8142 JUMP JUMPDEST ADD CALLDATALOAD PUSH1 0x0 NOT PUSH1 0x3 DUP5 SWAP1 SHL PUSH1 0xF8 AND SHR NOT AND SWAP1 SSTORE CODESIZE DUP1 DUP1 PUSH2 0x818A JUMP JUMPDEST SWAP1 SWAP3 PUSH1 0x20 PUSH1 0x1 DUP2 SWAP3 DUP7 DUP7 ADD CALLDATALOAD DUP2 SSTORE ADD SWAP5 ADD SWAP2 ADD PUSH2 0x8166 JUMP JUMPDEST PUSH2 0x81D3 DUP2 DUP4 PUSH2 0x6499 JUMP JUMPDEST SWAP1 PUSH1 0x1 PUSH1 0x1 PUSH1 0x40 SHL SUB DUP3 GT PUSH2 0xD5C JUMPI PUSH2 0x81F0 DUP3 PUSH2 0x8024 DUP8 SLOAD PUSH2 0x579C JUMP JUMPDEST PUSH1 0x0 SWAP1 PUSH1 0x1F DUP4 GT PUSH1 0x1 EQ PUSH2 0x823C JUMPI SWAP3 DUP3 PUSH1 0x1 SWAP5 SWAP4 PUSH1 0x20 SWAP4 DUP7 SWAP6 PUSH1 0x0 SWAP3 PUSH2 0x8231 JUMPI JUMPDEST POP POP PUSH1 0x0 NOT PUSH1 0x3 DUP4 SWAP1 SHL SHR NOT AND SWAP1 DUP5 SHL OR DUP7 SSTORE JUMPDEST ADD SWAP4 ADD SWAP5 ADD SWAP4 SWAP2 PUSH2 0x7D35 JUMP JUMPDEST ADD CALLDATALOAD SWAP1 POP CODESIZE DUP1 PUSH2 0x8211 JUMP JUMPDEST DUP6 PUSH1 0x0 MSTORE PUSH1 0x20 PUSH1 0x0 KECCAK256 SWAP2 PUSH1 0x0 JUMPDEST PUSH1 0x1F NOT DUP6 AND DUP2 LT PUSH2 0x8294 JUMPI POP DUP4 PUSH1 0x20 SWAP4 PUSH1 0x1 SWAP7 SWAP4 DUP8 SWAP7 SWAP4 DUP8 SWAP5 PUSH1 0x1F NOT DUP2 AND LT PUSH2 0x827A JUMPI JUMPDEST POP POP POP DUP2 SHL ADD DUP7 SSTORE PUSH2 0x8225 JUMP JUMPDEST ADD CALLDATALOAD PUSH1 0x0 NOT PUSH1 0x3 DUP5 SWAP1 SHL PUSH1 0xF8 AND SHR NOT AND SWAP1 SSTORE CODESIZE DUP1 DUP1 PUSH2 0x826D JUMP JUMPDEST SWAP1 SWAP3 PUSH1 0x20 PUSH1 0x1 DUP2 SWAP3 DUP7 DUP7 ADD CALLDATALOAD DUP2 SSTORE ADD SWAP5 ADD SWAP2 ADD PUSH2 0x8249 JUMP JUMPDEST ADD CALLDATALOAD SWAP1 POP CODESIZE DUP1 PUSH2 0x7CD4 JUMP JUMPDEST PUSH1 0x0 DUP6 DUP2 MSTORE PUSH1 0x20 DUP2 KECCAK256 SWAP1 SWAP5 POP SWAP2 JUMPDEST PUSH1 0x1F NOT DUP5 AND DUP6 LT PUSH2 0x8307 JUMPI PUSH1 0x1 SWAP5 POP DUP4 PUSH1 0x1F NOT DUP2 AND LT PUSH2 0x82ED JUMPI JUMPDEST POP POP POP DUP2 SHL ADD SWAP1 SSTORE PUSH2 0x7CE9 JUMP JUMPDEST ADD CALLDATALOAD PUSH1 0x0 NOT PUSH1 0x3 DUP5 SWAP1 SHL PUSH1 0xF8 AND SHR NOT AND SWAP1 SSTORE CODESIZE DUP1 DUP1 PUSH2 0x82E0 JUMP JUMPDEST DUP2 DUP2 ADD CALLDATALOAD DUP4 SSTORE PUSH1 0x20 SWAP5 DUP6 ADD SWAP5 PUSH1 0x1 SWAP1 SWAP4 ADD SWAP3 ADD PUSH2 0x82C5 JUMP JUMPDEST ADD CALLDATALOAD SWAP1 POP CODESIZE DUP1 PUSH2 0x7C6C JUMP JUMPDEST PUSH1 0x0 DUP6 DUP2 MSTORE PUSH1 0x20 DUP2 KECCAK256 SWAP1 SWAP5 POP SWAP2 JUMPDEST PUSH1 0x1F NOT DUP5 AND DUP6 LT PUSH2 0x837A JUMPI PUSH1 0x1 SWAP5 POP DUP4 PUSH1 0x1F NOT DUP2 AND LT PUSH2 0x8360 JUMPI JUMPDEST POP POP POP DUP2 SHL ADD SWAP1 SSTORE PUSH2 0x7C81 JUMP JUMPDEST ADD CALLDATALOAD PUSH1 0x0 NOT PUSH1 0x3 DUP5 SWAP1 SHL PUSH1 0xF8 AND SHR NOT AND SWAP1 SSTORE CODESIZE DUP1 DUP1 PUSH2 0x8353 JUMP JUMPDEST DUP2 DUP2 ADD CALLDATALOAD DUP4 SSTORE PUSH1 0x20 SWAP5 DUP6 ADD SWAP5 PUSH1 0x1 SWAP1 SWAP4 ADD SWAP3 ADD PUSH2 0x8338 JUMP JUMPDEST PUSH1 0x40 MLOAD PUSH3 0x461BCD PUSH1 0xE5 SHL DUP2 MSTORE PUSH1 0x20 PUSH1 0x4 DUP3 ADD MSTORE PUSH1 0x1C PUSH1 0x24 DUP3 ADD MSTORE PUSH28 0x5375622D63617465676F72792063616E6E6F7420626520656D707479 PUSH1 0x20 SHL PUSH1 0x44 DUP3 ADD MSTORE PUSH1 0x64 SWAP1 REVERT JUMPDEST PUSH1 0x40 MLOAD PUSH3 0x461BCD PUSH1 0xE5 SHL DUP2 MSTORE PUSH1 0x20 PUSH1 0x4 DUP3 ADD MSTORE PUSH1 0x18 PUSH1 0x24 DUP3 ADD MSTORE PUSH24 0x43617465676F72792063616E6E6F7420626520656D707479 PUSH1 0x40 SHL PUSH1 0x44 DUP3 ADD MSTORE PUSH1 0x64 SWAP1 REVERT JUMPDEST PUSH1 0x40 MLOAD PUSH3 0x461BCD PUSH1 0xE5 SHL DUP2 MSTORE PUSH1 0x20 PUSH1 0x4 DUP3 ADD MSTORE PUSH1 0x15 PUSH1 0x24 DUP3 ADD MSTORE PUSH21 0x53697A65732063616E6E6F7420626520656D707479 PUSH1 0x58 SHL PUSH1 0x44 DUP3 ADD MSTORE PUSH1 0x64 SWAP1 REVERT JUMPDEST PUSH1 0x40 MLOAD PUSH3 0x461BCD PUSH1 0xE5 SHL DUP2 MSTORE PUSH1 0x20 PUSH1 0x4 DUP3 ADD MSTORE PUSH1 0x16 PUSH1 0x24 DUP3 ADD MSTORE PUSH22 0x436F6C6F72732063616E6E6F7420626520656D707479 PUSH1 0x50 SHL PUSH1 0x44 DUP3 ADD MSTORE PUSH1 0x64 SWAP1 REVERT JUMPDEST PUSH1 0x40 MLOAD PUSH3 0x461BCD PUSH1 0xE5 SHL DUP2 MSTORE PUSH1 0x20 PUSH1 0x4 DUP3 ADD MSTORE PUSH1 0x1B PUSH1 0x24 DUP3 ADD MSTORE PUSH27 0x4465736372697074696F6E2063616E6E6F7420626520656D707479 PUSH1 0x28 SHL PUSH1 0x44 DUP3 ADD MSTORE PUSH1 0x64 SWAP1 REVERT JUMPDEST PUSH1 0x40 MLOAD PUSH3 0x461BCD PUSH1 0xE5 SHL DUP2 MSTORE PUSH1 0x20 PUSH1 0x4 DUP3 ADD MSTORE PUSH1 0x28 PUSH1 0x24 DUP3 ADD MSTORE PUSH32 0x4F6E6C79207468652073656C6C65722063616E20757064617465207468656972 PUSH1 0x44 DUP3 ADD MSTORE PUSH8 0x81C1C9BD91D58DD PUSH1 0xC2 SHL PUSH1 0x64 DUP3 ADD MSTORE PUSH1 0x84 SWAP1 REVERT JUMPDEST PUSH1 0x0 DUP1 SLOAD SWAP1 SWAP3 SWAP2 SWAP1 PUSH1 0x1 PUSH1 0x1 PUSH1 0xA0 SHL SUB SWAP1 DUP2 AND CALLER EQ PUSH2 0x85DB JUMPI CALLER DUP5 MSTORE PUSH1 0x19 PUSH1 0x20 MSTORE PUSH1 0x40 DUP5 KECCAK256 SLOAD DUP2 AND SWAP1 DUP2 ISZERO PUSH2 0x8594 JUMPI DUP2 DUP6 MSTORE PUSH1 0x13 PUSH1 0x20 MSTORE PUSH1 0xFF PUSH1 0x40 DUP7 KECCAK256 SLOAD AND PUSH1 0x4 DUP2 LT ISZERO PUSH2 0x7962 JUMPI SWAP2 PUSH2 0x6240 SWAP5 SWAP6 SWAP2 PUSH1 0x2 PUSH2 0x858F SWAP5 EQ SWAP3 DUP4 ISZERO PUSH2 0x78FF JUMPI POP POP POP PUSH2 0x7839 JUMP JUMPDEST PUSH2 0x85E3 JUMP JUMPDEST SWAP1 POP PUSH1 0x13 PUSH1 0x20 MSTORE PUSH1 0xFF PUSH1 0x40 DUP6 KECCAK256 SLOAD AND PUSH1 0x4 DUP2 LT ISZERO PUSH2 0x85C7 JUMPI SWAP4 PUSH2 0x858F SWAP2 PUSH1 0x2 PUSH2 0x6240 SWAP6 SWAP7 EQ SWAP2 DUP3 ISZERO PUSH2 0x7954 JUMPI POP POP PUSH2 0x7839 JUMP JUMPDEST PUSH4 0x4E487B71 PUSH1 0xE0 SHL DUP6 MSTORE PUSH1 0x21 PUSH1 0x4 MSTORE PUSH1 0x24 DUP6 REVERT JUMPDEST POP PUSH2 0x6240 SWAP2 SWAP3 POP JUMPDEST SWAP1 PUSH1 0x0 SWAP2 DUP1 DUP4 MSTORE PUSH1 0x20 SWAP3 PUSH1 0x17 DUP5 MSTORE PUSH1 0x40 SWAP2 PUSH2 0x8603 PUSH1 0xFF DUP5 DUP5 KECCAK256 SLOAD AND PUSH2 0x7982 JUMP JUMPDEST DUP1 DUP3 MSTORE PUSH1 0x10 DUP6 MSTORE DUP3 DUP3 KECCAK256 PUSH1 0x1 ADD SLOAD CALLER PUSH1 0x1 PUSH1 0x1 PUSH1 0xA0 SHL SUB SWAP2 DUP3 AND EQ SWAP1 DUP2 ISZERO PUSH2 0x86F6 JUMPI JUMPDEST POP ISZERO PUSH2 0x86A2 JUMPI DUP1 DUP3 MSTORE PUSH1 0x10 DUP6 MSTORE PUSH1 0xFF PUSH1 0xF DUP5 DUP5 KECCAK256 ADD SLOAD PUSH1 0x10 SHR AND PUSH2 0x8661 JUMPI PUSH1 0xF SWAP4 SWAP5 PUSH1 0x10 SWAP2 DUP4 MSTORE MSTORE KECCAK256 ADD PUSH3 0x10000 PUSH3 0xFF0000 NOT DUP3 SLOAD AND OR SWAP1 SSTORE JUMP JUMPDEST DUP3 MLOAD PUSH3 0x461BCD PUSH1 0xE5 SHL DUP2 MSTORE PUSH1 0x4 DUP2 ADD DUP7 SWAP1 MSTORE PUSH1 0x1A PUSH1 0x24 DUP3 ADD MSTORE PUSH26 0x141C9BD91D58DD081A5CC8185B1C9958591E4819195B195D1959 PUSH1 0x32 SHL PUSH1 0x44 DUP3 ADD MSTORE PUSH1 0x64 SWAP1 REVERT JUMPDEST DUP3 MLOAD PUSH3 0x461BCD PUSH1 0xE5 SHL DUP2 MSTORE PUSH1 0x4 DUP2 ADD DUP7 SWAP1 MSTORE PUSH1 0x27 PUSH1 0x24 DUP3 ADD MSTORE PUSH32 0x4F6E6C792070726F647563742073656C6C6572206F72206F776E65722063616E PUSH1 0x44 DUP3 ADD MSTORE PUSH7 0x2064656C657465 PUSH1 0xC8 SHL PUSH1 0x64 DUP3 ADD MSTORE PUSH1 0x84 SWAP1 REVERT JUMPDEST DUP4 SLOAD AND CALLER EQ SWAP1 POP CODESIZE PUSH2 0x8626 JUMP JUMPDEST SWAP1 DUP2 SLOAD PUSH2 0x870F DUP2 PUSH2 0x636E JUMP JUMPDEST SWAP3 PUSH1 0x40 SWAP4 PUSH2 0x871F DUP6 MLOAD SWAP2 DUP3 PUSH2 0x5698 JUMP JUMPDEST DUP3 DUP2 MSTORE DUP1 SWAP5 PUSH1 0x20 DUP1 SWAP3 ADD SWAP3 PUSH1 0x0 MSTORE DUP2 PUSH1 0x0 KECCAK256 SWAP1 PUSH1 0x0 SWAP4 JUMPDEST DUP6 DUP6 LT PUSH2 0x8745 JUMPI POP POP POP POP POP POP JUMP JUMPDEST PUSH1 0x1 DUP5 DUP2 SWAP3 DUP5 MLOAD PUSH2 0x875A DUP2 PUSH2 0x3DA DUP2 DUP11 PUSH2 0x57D6 JUMP JUMPDEST DUP2 MSTORE ADD SWAP4 ADD SWAP5 ADD SWAP4 SWAP2 PUSH2 0x8736 JUMP JUMPDEST SWAP1 PUSH1 0x40 MLOAD PUSH2 0x8775 DUP2 PUSH2 0x5662 JUMP JUMPDEST PUSH1 0xA0 PUSH1 0x5 DUP3 SWAP5 DUP1 SLOAD DUP5 MSTORE PUSH1 0x1 DUP1 DUP5 SHL SUB PUSH1 0x1 DUP3 ADD SLOAD AND PUSH1 0x20 DUP6 ADD MSTORE PUSH1 0x2 DUP2 ADD SLOAD PUSH1 0x40 DUP6 ADD MSTORE PUSH1 0x40 MLOAD PUSH2 0x87AE DUP2 PUSH2 0x3DA DUP2 PUSH1 0x3 DUP7 ADD PUSH2 0x57D6 JUMP JUMPDEST PUSH1 0x60 DUP6 ADD MSTORE PUSH1 0xFF PUSH1 0x4 DUP3 ADD SLOAD AND ISZERO ISZERO PUSH1 0x80 DUP6 ADD MSTORE ADD SLOAD SWAP2 ADD MSTORE JUMP JUMPDEST SWAP1 PUSH2 0x87D3 DUP3 PUSH2 0x636E JUMP JUMPDEST PUSH2 0x87E0 PUSH1 0x40 MLOAD SWAP2 DUP3 PUSH2 0x5698 JUMP JUMPDEST DUP3 DUP2 MSTORE DUP1 SWAP3 PUSH2 0x87F1 PUSH1 0x1F NOT SWAP2 PUSH2 0x636E JUMP JUMPDEST ADD SWAP1 PUSH1 0x0 JUMPDEST DUP3 DUP2 LT PUSH2 0x8802 JUMPI POP POP POP JUMP JUMPDEST PUSH1 0x20 SWAP1 PUSH2 0x880D PUSH2 0x6786 JUMP JUMPDEST DUP3 DUP3 DUP6 ADD ADD MSTORE ADD PUSH2 0x87F6 JUMP JUMPDEST ISZERO PUSH2 0x8820 JUMPI JUMP JUMPDEST PUSH1 0x40 MLOAD PUSH3 0x461BCD PUSH1 0xE5 SHL DUP2 MSTORE PUSH1 0x20 PUSH1 0x4 DUP3 ADD MSTORE PUSH1 0x1D PUSH1 0x24 DUP3 ADD MSTORE PUSH32 0x43617465676F7279206E616D652063616E6E6F7420626520656D707479000000 PUSH1 0x44 DUP3 ADD MSTORE PUSH1 0x64 SWAP1 REVERT JUMPDEST ISZERO PUSH2 0x886C JUMPI JUMP JUMPDEST PUSH1 0x64 PUSH1 0x40 MLOAD PUSH3 0x461BCD PUSH1 0xE5 SHL DUP2 MSTORE PUSH1 0x20 PUSH1 0x4 DUP3 ADD MSTORE PUSH1 0x20 PUSH1 0x24 DUP3 ADD MSTORE PUSH32 0x53756263617465676F7279206E616D652063616E6E6F7420626520656D707479 PUSH1 0x44 DUP3 ADD MSTORE REVERT JUMPDEST SWAP1 DUP3 LT ISZERO PUSH2 0x5A7A JUMPI PUSH2 0x88C7 SWAP2 PUSH1 0x5 SHL DUP2 ADD SWAP1 PUSH2 0x6499 JUMP JUMPDEST SWAP1 SWAP2 JUMP JUMPDEST ISZERO PUSH2 0x88D2 JUMPI JUMP JUMPDEST PUSH1 0x40 MLOAD PUSH3 0x461BCD PUSH1 0xE5 SHL DUP2 MSTORE PUSH1 0x20 PUSH1 0x4 DUP3 ADD MSTORE PUSH1 0x17 PUSH1 0x24 DUP3 ADD MSTORE PUSH23 0x10D85D1959DBDC9E48191BD95CC81B9BDD08195E1A5CDD PUSH1 0x4A SHL PUSH1 0x44 DUP3 ADD MSTORE PUSH1 0x64 SWAP1 REVERT JUMPDEST SWAP1 PUSH2 0x8929 PUSH1 0x20 SWAP2 SWAP5 SWAP4 SWAP5 PUSH1 0x40 DUP5 MSTORE PUSH1 0x40 DUP5 ADD SWAP1 PUSH2 0x52BE JUMP JUMPDEST SWAP4 ISZERO ISZERO SWAP2 ADD MSTORE JUMP JUMPDEST ISZERO PUSH2 0x8938 JUMPI JUMP JUMPDEST PUSH1 0x40 MLOAD PUSH3 0x461BCD PUSH1 0xE5 SHL DUP2 MSTORE PUSH1 0x20 PUSH1 0x4 DUP3 ADD MSTORE PUSH1 0x1A PUSH1 0x24 DUP3 ADD MSTORE PUSH26 0x14DD5898D85D1959DBDC9E48191BD95CC81B9BDD08195E1A5CDD PUSH1 0x32 SHL PUSH1 0x44 DUP3 ADD MSTORE PUSH1 0x64 SWAP1 REVERT JUMPDEST SWAP1 PUSH1 0x40 MLOAD SWAP2 DUP3 DUP2 SLOAD SWAP2 DUP3 DUP3 MSTORE PUSH1 0x20 SWAP3 DUP4 DUP4 ADD SWAP2 PUSH1 0x0 MSTORE DUP4 PUSH1 0x0 KECCAK256 SWAP4 PUSH1 0x0 SWAP1 JUMPDEST DUP3 DUP3 LT PUSH2 0x89AF JUMPI POP POP POP PUSH2 0x6240 SWAP3 POP SUB DUP4 PUSH2 0x5698 JUMP JUMPDEST DUP6 SLOAD DUP5 MSTORE PUSH1 0x1 SWAP6 DUP7 ADD SWAP6 DUP9 SWAP6 POP SWAP4 DUP2 ADD SWAP4 SWAP1 SWAP2 ADD SWAP1 PUSH2 0x8999 JUMP JUMPDEST PUSH1 0x0 JUMPDEST DUP3 DUP2 LT PUSH2 0x89D8 JUMPI POP POP POP JUMP JUMPDEST PUSH1 0x60 DUP3 DUP3 ADD MSTORE PUSH1 0x20 ADD PUSH2 0x89CC JUMP JUMPDEST SWAP2 SWAP1 DUP3 SUB SWAP2 DUP3 GT PUSH2 0x10CB JUMPI JUMP JUMPDEST PUSH1 0x40 MLOAD SWAP1 PUSH2 0x8A00 DUP3 PUSH2 0x5662 JUMP JUMPDEST PUSH1 0x0 PUSH1 0xA0 DUP4 DUP3 DUP2 MSTORE DUP3 PUSH1 0x20 DUP3 ADD MSTORE DUP3 PUSH1 0x40 DUP3 ADD MSTORE PUSH1 0x60 DUP1 DUP3 ADD MSTORE DUP3 PUSH1 0x80 DUP3 ADD MSTORE ADD MSTORE JUMP JUMPDEST DUP1 SLOAD DUP3 LT ISZERO PUSH2 0x5A7A JUMPI PUSH1 0x0 MSTORE PUSH1 0x6 PUSH1 0x20 PUSH1 0x0 KECCAK256 SWAP2 MUL ADD SWAP1 PUSH1 0x0 SWAP1 JUMP JUMPDEST DUP1 SLOAD PUSH1 0x1 PUSH1 0x40 SHL DUP2 LT ISZERO PUSH2 0xD5C JUMPI PUSH2 0x8A5F SWAP1 PUSH1 0x1 SWAP3 DUP4 DUP3 ADD DUP2 SSTORE PUSH2 0x5B07 JUMP JUMPDEST SWAP3 SWAP1 SWAP3 PUSH2 0x9106 JUMPI DUP1 MLOAD DUP4 SSTORE PUSH1 0x20 DUP1 DUP3 ADD MLOAD DUP4 DUP6 ADD SSTORE PUSH1 0x40 DUP3 ADD MLOAD PUSH1 0x2 DUP6 ADD SSTORE PUSH1 0x60 DUP3 ADD MLOAD PUSH1 0x3 DUP1 DUP7 ADD SWAP2 SWAP1 SWAP2 SSTORE PUSH1 0x80 DUP4 ADD MLOAD PUSH1 0x4 DUP1 DUP8 ADD DUP1 SLOAD PUSH1 0x1 PUSH1 0x1 PUSH1 0xA0 SHL SUB NOT AND PUSH1 0x1 PUSH1 0x1 PUSH1 0xA0 SHL SUB SWAP4 DUP5 AND OR SWAP1 SSTORE PUSH1 0xA0 DUP1 DUP7 ADD MLOAD PUSH1 0x5 DUP10 ADD DUP1 SLOAD PUSH1 0xC0 DUP10 ADD MLOAD PUSH1 0x1 PUSH1 0x1 PUSH1 0xA8 SHL SUB NOT SWAP1 SWAP2 AND SWAP3 SWAP1 SWAP6 AND SWAP2 SWAP1 SWAP2 OR SWAP4 ISZERO ISZERO SWAP1 SWAP2 SHL PUSH1 0xFF PUSH1 0xA0 SHL AND SWAP3 SWAP1 SWAP3 OR SWAP1 SWAP2 SSTORE PUSH1 0xE0 SWAP1 SWAP4 ADD MLOAD DUP1 MLOAD DUP1 MLOAD SWAP2 SWAP7 PUSH1 0x1 PUSH1 0x1 PUSH1 0x40 SHL SUB SWAP6 SWAP4 SWAP5 SWAP2 SWAP4 SWAP3 PUSH1 0x6 DUP3 ADD SWAP1 DUP8 DUP2 GT PUSH2 0x90F1 JUMPI PUSH2 0x8B1C DUP2 PUSH2 0x11CE DUP5 SLOAD PUSH2 0x579C JUMP JUMPDEST DUP1 DUP5 PUSH1 0x1F SWAP8 DUP9 DUP4 GT PUSH1 0x1 EQ PUSH2 0x908F JUMPI PUSH1 0x0 SWAP3 PUSH2 0x9084 JUMPI JUMPDEST POP POP PUSH1 0x0 NOT DUP3 DUP10 SHL SHR NOT AND SWAP1 DUP10 SHL OR SWAP1 SSTORE JUMPDEST PUSH1 0x7 DUP2 ADD DUP3 DUP10 ADD MLOAD DUP1 MLOAD SWAP1 DUP9 DUP3 GT PUSH2 0x8E4E JUMPI DUP2 SWAP1 PUSH2 0x8B67 DUP3 PUSH2 0x697A DUP7 SLOAD PUSH2 0x579C JUMP JUMPDEST DUP6 SWAP1 DUP9 DUP4 GT PUSH1 0x1 EQ PUSH2 0x9022 JUMPI PUSH1 0x0 SWAP3 PUSH2 0x9017 JUMPI JUMPDEST POP POP PUSH1 0x0 NOT DUP3 DUP10 SHL SHR NOT AND SWAP1 DUP10 SHL OR SWAP1 SSTORE JUMPDEST PUSH1 0x8 DUP2 ADD PUSH1 0x40 DUP10 ADD MLOAD DUP1 MLOAD SWAP1 DUP9 DUP3 GT PUSH2 0x8E4E JUMPI DUP2 SWAP1 PUSH2 0x8BB0 DUP3 PUSH2 0x697A DUP7 SLOAD PUSH2 0x579C JUMP JUMPDEST DUP6 SWAP1 DUP9 DUP4 GT PUSH1 0x1 EQ PUSH2 0x8FB5 JUMPI PUSH1 0x0 SWAP3 PUSH2 0x8FAA JUMPI JUMPDEST POP POP PUSH1 0x0 NOT DUP3 DUP10 SHL SHR NOT AND SWAP1 DUP10 SHL OR SWAP1 SSTORE JUMPDEST PUSH1 0x9 DUP2 ADD PUSH1 0x60 DUP10 ADD MLOAD DUP1 MLOAD SWAP1 DUP9 DUP3 GT PUSH2 0x8E4E JUMPI DUP2 SWAP1 PUSH2 0x8BF9 DUP3 PUSH2 0x697A DUP7 SLOAD PUSH2 0x579C JUMP JUMPDEST DUP6 SWAP1 DUP9 DUP4 GT PUSH1 0x1 EQ PUSH2 0x8F48 JUMPI PUSH1 0x0 SWAP3 PUSH2 0x8F3D JUMPI JUMPDEST POP POP PUSH1 0x0 NOT DUP3 DUP10 SHL SHR NOT AND SWAP1 DUP10 SHL OR SWAP1 SSTORE JUMPDEST PUSH1 0xA DUP2 ADD PUSH1 0x80 DUP10 ADD MLOAD DUP1 MLOAD SWAP1 DUP9 DUP3 GT PUSH2 0x8E4E JUMPI DUP2 SWAP1 PUSH2 0x8C42 DUP3 PUSH2 0x697A DUP7 SLOAD PUSH2 0x579C JUMP JUMPDEST DUP6 SWAP1 DUP9 DUP4 GT PUSH1 0x1 EQ PUSH2 0x8EDB JUMPI PUSH1 0x0 SWAP3 PUSH2 0x8ED0 JUMPI JUMPDEST POP POP PUSH1 0x0 NOT DUP3 DUP10 SHL SHR NOT AND SWAP1 DUP10 SHL OR SWAP1 SSTORE JUMPDEST PUSH1 0xB DUP2 ADD PUSH1 0xA0 DUP10 ADD MLOAD DUP1 MLOAD SWAP1 DUP9 DUP3 GT PUSH2 0x8E4E JUMPI DUP2 SWAP1 PUSH2 0x8C8B DUP3 PUSH2 0x697A DUP7 SLOAD PUSH2 0x579C JUMP JUMPDEST DUP6 SWAP1 DUP9 DUP4 GT PUSH1 0x1 EQ PUSH2 0x8E6E JUMPI PUSH1 0x0 SWAP3 PUSH2 0x8E63 JUMPI JUMPDEST POP POP PUSH1 0x0 NOT DUP3 DUP10 SHL SHR NOT AND SWAP1 DUP10 SHL OR SWAP1 SSTORE JUMPDEST PUSH1 0xC DUP2 ADD PUSH1 0xC0 DUP10 ADD MLOAD DUP1 MLOAD SWAP1 DUP9 DUP3 GT PUSH2 0x8E4E JUMPI PUSH2 0x8CD2 DUP3 PUSH2 0xC72 DUP6 SLOAD PUSH2 0x579C JUMP JUMPDEST DUP5 SWAP1 DUP8 DUP4 GT PUSH1 0x1 EQ PUSH2 0x8DE1 JUMPI SWAP2 DUP1 PUSH1 0xD SWAP5 SWAP3 PUSH1 0xE0 SWAP7 SWAP5 PUSH1 0x0 SWAP3 PUSH2 0x8DD6 JUMPI JUMPDEST POP POP PUSH1 0x0 NOT DUP3 DUP12 SHL SHR NOT AND SWAP1 DUP12 SHL OR SWAP1 SSTORE JUMPDEST ADD SWAP8 ADD MLOAD SWAP2 DUP3 MLOAD SWAP6 DUP7 GT PUSH2 0x8DC1 JUMPI POP PUSH2 0x8D25 DUP6 PUSH2 0x8D1F DUP10 SLOAD PUSH2 0x579C JUMP JUMPDEST DUP10 PUSH2 0x6205 JUMP JUMPDEST DUP1 SWAP3 DUP6 GT PUSH1 0x1 EQ PUSH2 0x8D5B JUMPI POP SWAP4 DUP4 SWAP5 SWAP2 DUP5 SWAP3 PUSH1 0x0 SWAP6 PUSH2 0x8D50 JUMPI JUMPDEST POP POP SHL SWAP3 PUSH1 0x0 NOT SWAP2 SHL SHR NOT AND OR SWAP1 SSTORE JUMP JUMPDEST ADD MLOAD SWAP4 POP CODESIZE DUP1 PUSH2 0x8D3F JUMP JUMPDEST SWAP3 SWAP2 SWAP1 DUP5 PUSH1 0x1F NOT DUP2 AND DUP9 PUSH1 0x0 MSTORE DUP6 PUSH1 0x0 KECCAK256 SWAP6 PUSH1 0x0 SWAP1 JUMPDEST DUP10 DUP4 DUP4 LT PUSH2 0x8DA7 JUMPI POP POP POP LT PUSH2 0x8D8D JUMPI JUMPDEST POP POP POP POP DUP2 SHL ADD SWAP1 SSTORE JUMP JUMPDEST ADD MLOAD SWAP1 PUSH1 0xF8 DUP5 PUSH1 0x0 NOT SWAP3 SHL AND SHR NOT AND SWAP1 SSTORE CODESIZE DUP1 DUP1 DUP1 PUSH2 0x8D82 JUMP JUMPDEST DUP6 DUP8 ADD MLOAD DUP10 SSTORE SWAP1 SWAP8 ADD SWAP7 SWAP5 DUP6 ADD SWAP5 DUP9 SWAP4 POP SWAP1 DUP2 ADD SWAP1 PUSH2 0x8D71 JUMP JUMPDEST PUSH1 0x41 SWAP1 PUSH4 0x4E487B71 PUSH1 0xE0 SHL PUSH1 0x0 MSTORE MSTORE PUSH1 0x24 PUSH1 0x0 REVERT JUMPDEST ADD MLOAD SWAP1 POP CODESIZE DUP1 PUSH2 0x8CF0 JUMP JUMPDEST DUP11 SWAP3 SWAP2 PUSH1 0x1F NOT DUP4 AND SWAP2 DUP6 PUSH1 0x0 MSTORE DUP8 PUSH1 0x0 KECCAK256 SWAP3 PUSH1 0x0 JUMPDEST DUP10 DUP3 DUP3 LT PUSH2 0x8E38 JUMPI POP POP SWAP2 PUSH1 0xE0 SWAP8 SWAP6 SWAP4 SWAP2 DUP6 PUSH1 0xD SWAP9 SWAP7 SWAP5 LT PUSH2 0x8E20 JUMPI JUMPDEST POP POP POP DUP2 SHL ADD SWAP1 SSTORE PUSH2 0x8D02 JUMP JUMPDEST ADD MLOAD PUSH1 0x0 NOT DUP4 DUP14 SHL PUSH1 0xF8 AND SHR NOT AND SWAP1 SSTORE CODESIZE DUP1 DUP1 PUSH2 0x8E13 JUMP JUMPDEST DUP4 DUP6 ADD MLOAD DUP7 SSTORE DUP16 SWAP8 SWAP1 SWAP6 ADD SWAP5 SWAP4 DUP5 ADD SWAP4 ADD PUSH2 0x8DF6 JUMP JUMPDEST PUSH1 0x41 DUP7 PUSH4 0x4E487B71 PUSH1 0xE0 SHL PUSH1 0x0 MSTORE MSTORE PUSH1 0x24 PUSH1 0x0 REVERT JUMPDEST ADD MLOAD SWAP1 POP CODESIZE DUP1 PUSH2 0x8C9F JUMP JUMPDEST SWAP1 DUP12 SWAP4 POP PUSH1 0x1F NOT DUP4 AND SWAP2 DUP6 PUSH1 0x0 MSTORE DUP8 PUSH1 0x0 KECCAK256 SWAP3 PUSH1 0x0 JUMPDEST DUP10 DUP3 DUP3 LT PUSH2 0x8EBA JUMPI POP POP DUP5 GT PUSH2 0x8EA2 JUMPI JUMPDEST POP POP POP DUP2 SHL ADD SWAP1 SSTORE PUSH2 0x8CB1 JUMP JUMPDEST ADD MLOAD PUSH1 0x0 NOT DUP4 DUP12 SHL PUSH1 0xF8 AND SHR NOT AND SWAP1 SSTORE CODESIZE DUP1 DUP1 PUSH2 0x8E95 JUMP JUMPDEST DUP4 DUP6 ADD MLOAD DUP7 SSTORE DUP16 SWAP8 SWAP1 SWAP6 ADD SWAP5 SWAP4 DUP5 ADD SWAP4 ADD PUSH2 0x8E84 JUMP JUMPDEST ADD MLOAD SWAP1 POP CODESIZE DUP1 PUSH2 0x8C56 JUMP JUMPDEST SWAP1 DUP12 SWAP4 POP PUSH1 0x1F NOT DUP4 AND SWAP2 DUP6 PUSH1 0x0 MSTORE DUP8 PUSH1 0x0 KECCAK256 SWAP3 PUSH1 0x0 JUMPDEST DUP10 DUP3 DUP3 LT PUSH2 0x8F27 JUMPI POP POP DUP5 GT PUSH2 0x8F0F JUMPI JUMPDEST POP POP POP DUP2 SHL ADD SWAP1 SSTORE PUSH2 0x8C68 JUMP JUMPDEST ADD MLOAD PUSH1 0x0 NOT DUP4 DUP12 SHL PUSH1 0xF8 AND SHR NOT AND SWAP1 SSTORE CODESIZE DUP1 DUP1 PUSH2 0x8F02 JUMP JUMPDEST DUP4 DUP6 ADD MLOAD DUP7 SSTORE DUP16 SWAP8 SWAP1 SWAP6 ADD SWAP5 SWAP4 DUP5 ADD SWAP4 ADD PUSH2 0x8EF1 JUMP JUMPDEST ADD MLOAD SWAP1 POP CODESIZE DUP1 PUSH2 0x8C0D JUMP JUMPDEST SWAP1 DUP12 SWAP4 POP PUSH1 0x1F NOT DUP4 AND SWAP2 DUP6 PUSH1 0x0 MSTORE DUP8 PUSH1 0x0 KECCAK256 SWAP3 PUSH1 0x0 JUMPDEST DUP10 DUP3 DUP3 LT PUSH2 0x8F94 JUMPI POP POP DUP5 GT PUSH2 0x8F7C JUMPI JUMPDEST POP POP POP DUP2 SHL ADD SWAP1 SSTORE PUSH2 0x8C1F JUMP JUMPDEST ADD MLOAD PUSH1 0x0 NOT DUP4 DUP12 SHL PUSH1 0xF8 AND SHR NOT AND SWAP1 SSTORE CODESIZE DUP1 DUP1 PUSH2 0x8F6F JUMP JUMPDEST DUP4 DUP6 ADD MLOAD DUP7 SSTORE DUP16 SWAP8 SWAP1 SWAP6 ADD SWAP5 SWAP4 DUP5 ADD SWAP4 ADD PUSH2 0x8F5E JUMP JUMPDEST ADD MLOAD SWAP1 POP CODESIZE DUP1 PUSH2 0x8BC4 JUMP JUMPDEST SWAP1 DUP12 SWAP4 POP PUSH1 0x1F NOT DUP4 AND SWAP2 DUP6 PUSH1 0x0 MSTORE DUP8 PUSH1 0x0 KECCAK256 SWAP3 PUSH1 0x0 JUMPDEST DUP10 DUP3 DUP3 LT PUSH2 0x9001 JUMPI POP POP DUP5 GT PUSH2 0x8FE9 JUMPI JUMPDEST POP POP POP DUP2 SHL ADD SWAP1 SSTORE PUSH2 0x8BD6 JUMP JUMPDEST ADD MLOAD PUSH1 0x0 NOT DUP4 DUP12 SHL PUSH1 0xF8 AND SHR NOT AND SWAP1 SSTORE CODESIZE DUP1 DUP1 PUSH2 0x8FDC JUMP JUMPDEST DUP4 DUP6 ADD MLOAD DUP7 SSTORE DUP16 SWAP8 SWAP1 SWAP6 ADD SWAP5 SWAP4 DUP5 ADD SWAP4 ADD PUSH2 0x8FCB JUMP JUMPDEST ADD MLOAD SWAP1 POP CODESIZE DUP1 PUSH2 0x8B7B JUMP JUMPDEST SWAP1 DUP12 SWAP4 POP PUSH1 0x1F NOT DUP4 AND SWAP2 DUP6 PUSH1 0x0 MSTORE DUP8 PUSH1 0x0 KECCAK256 SWAP3 PUSH1 0x0 JUMPDEST DUP10 DUP3 DUP3 LT PUSH2 0x906E JUMPI POP POP DUP5 GT PUSH2 0x9056 JUMPI JUMPDEST POP POP POP DUP2 SHL ADD SWAP1 SSTORE PUSH2 0x8B8D JUMP JUMPDEST ADD MLOAD PUSH1 0x0 NOT DUP4 DUP12 SHL PUSH1 0xF8 AND SHR NOT AND SWAP1 SSTORE CODESIZE DUP1 DUP1 PUSH2 0x9049 JUMP JUMPDEST DUP4 DUP6 ADD MLOAD DUP7 SSTORE DUP16 SWAP8 SWAP1 SWAP6 ADD SWAP5 SWAP4 DUP5 ADD SWAP4 ADD PUSH2 0x9038 JUMP JUMPDEST ADD MLOAD SWAP1 POP CODESIZE DUP1 PUSH2 0x8B33 JUMP JUMPDEST SWAP1 DUP12 SWAP4 POP PUSH1 0x1F NOT DUP4 AND SWAP2 DUP6 PUSH1 0x0 MSTORE DUP8 PUSH1 0x0 KECCAK256 SWAP3 PUSH1 0x0 JUMPDEST DUP10 DUP3 DUP3 LT PUSH2 0x90DB JUMPI POP POP DUP5 GT PUSH2 0x90C3 JUMPI JUMPDEST POP POP POP DUP2 SHL ADD SWAP1 SSTORE PUSH2 0x8B45 JUMP JUMPDEST ADD MLOAD PUSH1 0x0 NOT DUP4 DUP12 SHL PUSH1 0xF8 AND SHR NOT AND SWAP1 SSTORE CODESIZE DUP1 DUP1 PUSH2 0x90B6 JUMP JUMPDEST DUP4 DUP6 ADD MLOAD DUP7 SSTORE DUP16 SWAP8 SWAP1 SWAP6 ADD SWAP5 SWAP4 DUP5 ADD SWAP4 ADD PUSH2 0x90A5 JUMP JUMPDEST PUSH1 0x41 DUP6 PUSH4 0x4E487B71 PUSH1 0xE0 SHL PUSH1 0x0 MSTORE MSTORE PUSH1 0x24 PUSH1 0x0 REVERT JUMPDEST PUSH4 0x4E487B71 PUSH1 0xE0 SHL PUSH1 0x0 MSTORE PUSH1 0x0 PUSH1 0x4 MSTORE PUSH1 0x24 PUSH1 0x0 REVERT JUMPDEST PUSH1 0x0 DUP1 SLOAD PUSH1 0x1 PUSH1 0x1 PUSH1 0xA0 SHL SUB SWAP3 SWAP2 SWAP1 DUP4 AND CALLER EQ PUSH2 0x91CA JUMPI CALLER DUP2 MSTORE PUSH1 0x19 PUSH1 0x20 MSTORE PUSH1 0x40 DUP2 KECCAK256 SLOAD DUP4 AND DUP1 ISZERO PUSH2 0x9195 JUMPI DUP1 DUP3 MSTORE PUSH1 0x13 PUSH1 0x20 MSTORE PUSH1 0xFF PUSH1 0x40 DUP4 KECCAK256 SLOAD AND SWAP4 PUSH1 0x4 DUP6 LT ISZERO PUSH2 0x9181 JUMPI PUSH1 0x2 PUSH2 0x9179 SWAP5 SWAP6 EQ SWAP3 DUP4 ISZERO PUSH2 0x78FF JUMPI POP POP POP PUSH2 0x7839 JUMP JUMPDEST PUSH2 0x6240 PUSH2 0x91D1 JUMP JUMPDEST PUSH4 0x4E487B71 PUSH1 0xE0 SHL DUP4 MSTORE PUSH1 0x21 PUSH1 0x4 MSTORE PUSH1 0x24 DUP4 REVERT JUMPDEST POP SWAP1 SWAP2 PUSH1 0x13 PUSH1 0x20 MSTORE PUSH1 0xFF PUSH1 0x40 DUP4 KECCAK256 SLOAD AND PUSH1 0x4 DUP2 LT ISZERO PUSH2 0x9181 JUMPI SWAP1 PUSH1 0x2 PUSH2 0x91C5 SWAP4 SWAP3 EQ SWAP2 DUP3 ISZERO PUSH2 0x7954 JUMPI POP POP PUSH2 0x7839 JUMP JUMPDEST PUSH2 0x9179 JUMP JUMPDEST POP SWAP1 POP PUSH2 0x6240 JUMPDEST PUSH1 0x0 CALLER DUP2 MSTORE PUSH1 0x12 PUSH1 0x20 MSTORE PUSH1 0x40 DUP2 KECCAK256 SLOAD DUP1 ISZERO PUSH2 0x9274 JUMPI PUSH1 0xB SLOAD DUP1 DUP3 MUL SWAP1 DUP3 DUP3 DIV SUB PUSH2 0x9260 JUMPI SWAP1 PUSH2 0x922C PUSH2 0x920A PUSH1 0x64 PUSH2 0x9232 SWAP5 DIV DUP1 SWAP4 PUSH2 0x89E6 JUMP JUMPDEST CALLER DUP6 MSTORE PUSH1 0x12 PUSH1 0x20 MSTORE PUSH1 0x40 DUP6 KECCAK256 DUP6 SWAP1 SSTORE DUP5 SLOAD SWAP1 SWAP3 SWAP1 PUSH1 0x1 PUSH1 0x1 PUSH1 0xA0 SHL SUB AND PUSH2 0x9615 JUMP JUMPDEST CALLER PUSH2 0x9615 JUMP JUMPDEST PUSH1 0x40 MLOAD SWAP1 DUP2 MSTORE PUSH32 0x8AD64A0AC7700DD8425AB0499F107CB6E2CD1581D803C5B8C1C79DCB8190B1AF PUSH1 0x20 CALLER SWAP3 LOG2 JUMP JUMPDEST PUSH4 0x4E487B71 PUSH1 0xE0 SHL DUP4 MSTORE PUSH1 0x11 PUSH1 0x4 MSTORE PUSH1 0x24 DUP4 REVERT JUMPDEST PUSH1 0x40 MLOAD PUSH3 0x461BCD PUSH1 0xE5 SHL DUP2 MSTORE PUSH1 0x20 PUSH1 0x4 DUP3 ADD MSTORE PUSH1 0x16 PUSH1 0x24 DUP3 ADD MSTORE PUSH22 0x4E6F2062616C616E636520746F207769746864726177 PUSH1 0x50 SHL PUSH1 0x44 DUP3 ADD MSTORE PUSH1 0x64 SWAP1 REVERT JUMPDEST PUSH1 0x0 DUP1 SLOAD SWAP1 SWAP4 SWAP3 SWAP2 SWAP1 PUSH1 0x1 PUSH1 0x1 PUSH1 0xA0 SHL SUB SWAP1 DUP2 AND CALLER EQ PUSH2 0x9350 JUMPI CALLER DUP6 MSTORE PUSH1 0x19 PUSH1 0x20 MSTORE PUSH1 0x40 DUP6 KECCAK256 SLOAD DUP2 AND SWAP1 DUP2 ISZERO PUSH2 0x931D JUMPI DUP2 DUP7 MSTORE PUSH1 0x13 PUSH1 0x20 MSTORE PUSH1 0xFF PUSH1 0x40 DUP8 KECCAK256 SLOAD AND PUSH1 0x4 DUP2 LT ISZERO PUSH2 0x790C JUMPI SWAP2 PUSH2 0x6240 SWAP6 SWAP7 SWAP2 PUSH1 0x2 PUSH2 0x9318 SWAP5 EQ SWAP3 DUP4 ISZERO PUSH2 0x78FF JUMPI POP POP POP PUSH2 0x7839 JUMP JUMPDEST PUSH2 0x9358 JUMP JUMPDEST SWAP1 POP PUSH1 0x13 PUSH1 0x20 MSTORE PUSH1 0xFF PUSH1 0x40 DUP7 KECCAK256 SLOAD AND PUSH1 0x4 DUP2 LT ISZERO PUSH2 0x7962 JUMPI SWAP5 PUSH2 0x9318 SWAP2 PUSH1 0x2 PUSH2 0x6240 SWAP7 SWAP8 EQ SWAP2 DUP3 ISZERO PUSH2 0x7954 JUMPI POP POP PUSH2 0x7839 JUMP JUMPDEST POP PUSH2 0x6240 SWAP3 SWAP4 POP JUMPDEST PUSH1 0x0 SWAP2 DUP3 JUMPDEST PUSH1 0x1 DUP1 PUSH1 0xA0 SHL SUB DUP1 DUP4 AND DUP1 PUSH1 0x0 MSTORE PUSH1 0x14 PUSH1 0x20 DUP2 DUP2 MSTORE PUSH1 0x40 SWAP3 DUP4 PUSH1 0x0 KECCAK256 DUP1 SLOAD DUP8 LT ISZERO PUSH2 0x9607 JUMPI PUSH2 0x938D DUP8 DUP11 SWAP3 PUSH2 0x5B07 JUMP JUMPDEST POP SLOAD EQ PUSH2 0x93A7 JUMPI POP POP POP POP POP PUSH2 0x93A2 SWAP1 PUSH2 0x635F JUMP JUMPDEST PUSH2 0x935D JUMP JUMPDEST DUP1 SWAP2 SWAP3 SWAP4 SWAP5 SWAP7 SWAP8 SWAP9 POP PUSH1 0x0 MSTORE DUP3 DUP3 MSTORE PUSH2 0x93C3 DUP6 DUP6 PUSH1 0x0 KECCAK256 PUSH2 0x5B07 JUMP JUMPDEST POP SWAP6 PUSH1 0xFF PUSH1 0x5 DUP1 SWAP9 ADD SLOAD PUSH1 0xA0 SHR AND PUSH2 0x95C5 JUMPI DUP2 PUSH1 0x0 MSTORE DUP4 DUP4 MSTORE DUP1 DUP8 PUSH2 0x93EB DUP9 DUP9 PUSH1 0x0 KECCAK256 PUSH2 0x5B07 JUMP JUMPDEST POP ADD SLOAD AND CALLER EQ SWAP1 DUP2 ISZERO PUSH2 0x95B7 JUMPI JUMPDEST POP ISZERO PUSH2 0x9560 JUMPI SWAP1 PUSH2 0x9413 SWAP5 SWAP4 SWAP3 SWAP2 PUSH1 0x0 MSTORE MSTORE PUSH1 0x0 KECCAK256 PUSH2 0x5B07 JUMP JUMPDEST POP ADD DUP1 SLOAD PUSH1 0xFF PUSH1 0xA0 SHL NOT AND PUSH1 0x1 PUSH1 0xA0 SHL OR SWAP1 SSTORE PUSH1 0x1 JUMPDEST ISZERO PUSH2 0x9526 JUMPI DUP2 PUSH1 0x0 MSTORE PUSH1 0x20 SWAP2 PUSH1 0x10 DUP4 MSTORE PUSH1 0x1 DUP1 PUSH1 0xA0 SHL SUB SWAP3 PUSH1 0x1 SWAP4 DUP5 SWAP4 PUSH1 0x40 DUP3 DUP7 DUP3 PUSH1 0x0 KECCAK256 ADD SLOAD AND DUP7 PUSH1 0x0 SWAP1 JUMPDEST PUSH2 0x9478 JUMPI JUMPDEST POP POP PUSH1 0x0 DUP1 MLOAD PUSH1 0x20 PUSH2 0x971D DUP4 CODECOPY DUP2 MLOAD SWAP2 MSTORE SWAP5 SWAP6 POP MLOAD SWAP6 DUP7 MSTORE AND SWAP4 LOG3 JUMP JUMPDEST DUP2 PUSH1 0x0 MSTORE PUSH1 0x15 DUP1 DUP8 MSTORE DUP4 PUSH1 0x0 KECCAK256 DUP1 SLOAD DUP4 LT ISZERO PUSH2 0x951F JUMPI PUSH2 0x9499 DUP4 DUP11 SWAP3 PUSH2 0x5B07 JUMP JUMPDEST POP SLOAD EQ DUP1 PUSH2 0x94FA JUMPI JUMPDEST PUSH2 0x94B6 JUMPI POP PUSH2 0x94B0 SWAP1 PUSH2 0x635F JUMP JUMPDEST DUP8 PUSH2 0x9456 JUMP JUMPDEST PUSH1 0x0 DUP1 MLOAD PUSH1 0x20 PUSH2 0x971D DUP4 CODECOPY DUP2 MLOAD SWAP2 MSTORE SWAP8 SWAP9 POP SWAP1 PUSH2 0x94DE SWAP2 PUSH1 0x5 SWAP4 PUSH1 0x0 MSTORE DUP8 MSTORE DUP4 PUSH1 0x0 KECCAK256 PUSH2 0x5B07 JUMP JUMPDEST POP ADD DUP1 SLOAD PUSH1 0xFF PUSH1 0xA0 SHL NOT AND PUSH1 0x1 PUSH1 0xA0 SHL OR SWAP1 SSTORE DUP7 SWAP6 SWAP5 CODESIZE PUSH2 0x945B JUMP JUMPDEST POP DUP3 PUSH1 0x0 MSTORE DUP1 DUP8 MSTORE DUP6 PUSH1 0x4 PUSH2 0x9512 DUP5 DUP8 PUSH1 0x0 KECCAK256 PUSH2 0x5B07 JUMP JUMPDEST POP ADD SLOAD AND DUP7 DUP7 AND EQ PUSH2 0x94A2 JUMP JUMPDEST POP POP PUSH2 0x945B JUMP JUMPDEST PUSH1 0x40 MLOAD PUSH3 0x461BCD PUSH1 0xE5 SHL DUP2 MSTORE PUSH1 0x20 PUSH1 0x4 DUP3 ADD MSTORE PUSH1 0x12 PUSH1 0x24 DUP3 ADD MSTORE PUSH18 0x141D5C98DA185CD9481B9BDD08199BDD5B99 PUSH1 0x72 SHL PUSH1 0x44 DUP3 ADD MSTORE PUSH1 0x64 SWAP1 REVERT JUMPDEST DUP4 MLOAD PUSH3 0x461BCD PUSH1 0xE5 SHL DUP2 MSTORE PUSH1 0x4 DUP2 ADD DUP4 SWAP1 MSTORE PUSH1 0x2A PUSH1 0x24 DUP3 ADD MSTORE PUSH32 0x4F6E6C792073656C6C6572206F72206F776E65722063616E206D61726B206173 PUSH1 0x44 DUP3 ADD MSTORE PUSH10 0x819195B1A5D995C9959 PUSH1 0xB2 SHL PUSH1 0x64 DUP3 ADD MSTORE PUSH1 0x84 SWAP1 REVERT JUMPDEST PUSH1 0x0 SLOAD AND CALLER EQ SWAP1 POP CODESIZE PUSH2 0x93F9 JUMP JUMPDEST DUP5 MLOAD PUSH3 0x461BCD PUSH1 0xE5 SHL DUP2 MSTORE PUSH1 0x4 DUP2 ADD DUP5 SWAP1 MSTORE PUSH1 0x1B PUSH1 0x24 DUP3 ADD MSTORE PUSH27 0x105B1C9958591E481B585C9AD95908185CC819195B1A5D995C9959 PUSH1 0x2A SHL PUSH1 0x44 DUP3 ADD MSTORE PUSH1 0x64 SWAP1 REVERT JUMPDEST POP POP POP POP POP POP POP SWAP1 SWAP2 PUSH2 0x9429 JUMP JUMPDEST PUSH1 0x1 PUSH1 0x1 PUSH1 0xA0 SHL SUB AND DUP1 ISZERO PUSH2 0x9674 JUMPI PUSH1 0x0 DUP1 DUP1 SWAP4 DUP2 SWAP4 GAS CALL PUSH2 0x9635 PUSH2 0x6045 JUMP JUMPDEST POP ISZERO PUSH2 0x963D JUMPI JUMP JUMPDEST PUSH1 0x40 MLOAD PUSH3 0x461BCD PUSH1 0xE5 SHL DUP2 MSTORE PUSH1 0x20 PUSH1 0x4 DUP3 ADD MSTORE PUSH1 0xF PUSH1 0x24 DUP3 ADD MSTORE PUSH15 0x151C985B9CD9995C8819985A5B1959 PUSH1 0x8A SHL PUSH1 0x44 DUP3 ADD MSTORE PUSH1 0x64 SWAP1 REVERT JUMPDEST PUSH1 0x40 MLOAD PUSH3 0x461BCD PUSH1 0xE5 SHL DUP2 MSTORE PUSH1 0x20 PUSH1 0x4 DUP3 ADD MSTORE PUSH1 0xF PUSH1 0x24 DUP3 ADD MSTORE PUSH15 0x496E76616C69642061646472657373 PUSH1 0x88 SHL PUSH1 0x44 DUP3 ADD MSTORE PUSH1 0x64 SWAP1 REVERT JUMPDEST PUSH1 0xC SLOAD SWAP1 PUSH1 0x0 JUMPDEST DUP3 DUP2 LT PUSH2 0x96C1 JUMPI POP POP POP PUSH1 0x0 SWAP1 JUMP JUMPDEST PUSH2 0x96CA DUP2 PUSH2 0x5A90 JUMP JUMPDEST SWAP1 SLOAD PUSH1 0x3 SWAP2 SWAP1 SWAP2 SHL SHR PUSH1 0x1 PUSH1 0x1 PUSH1 0xA0 SHL SUB SWAP1 DUP2 AND SWAP1 DUP4 AND EQ PUSH2 0x96F4 JUMPI PUSH2 0x96EF SWAP1 PUSH2 0x635F JUMP JUMPDEST PUSH2 0x96B2 JUMP JUMPDEST POP POP POP PUSH1 0x1 SWAP1 JUMP INVALID ORIGIN 0xB4 0x49 ADDRESS DUP13 SWAP5 0xE8 0x24 0xCC 0xED 0xD9 DUP8 PUSH26 0x32CD82F89A481C06C4643A0CB2914454A8C582F9DC8543B583E0 0x1F MSIZE 0x26 PUSH25 0x422369B2777E3649761F5808AE432CB1C24CA9438C79D3150B OR PUSH1 0xCD CODECOPY 0x1F POP MOD 0xC9 SLOAD GASPRICE 0xEA ADDMOD DUP15 0x4C SWAP1 PUSH1 0xF3 0xE5 DUP3 0xEA EXP SWAP5 DUP14 0xC6 PUSH5 0x9B25DA8BE0 SMOD SWAP13 MSTORE8 AND MSIZE EQ SGT DIFFICULTY 0xCD 0x1F 0xD0 LOG4 CALLCODE DUP5 NOT 0x49 PUSH32 0x9722A3DAAFE3B4186F6B6457E0DDF252AD1BE2C89B69C2B068FC378DAA952BA7 CALL PUSH4 0xC4A11628 CREATE2 GAS 0x4D CREATE2 0x23 0xB3 0xEF GAS DUP11 SWAP9 SWAP15 SLT RETURN 0xCE PUSH29 0xF805B73156A361DA5D8369F0C37173209308910B322117AC4CFCA63969 0x23 0xC3 0xEE 0xE6 DUP12 0xE5 DUP11 LOG3 0x5F 0xD6 PUSH3 0x3AE5D6 PUSH28 0xB552DA5E1DE2E0D5854166DCA164736F6C6343000813000A00000000 "},"methodIdentifiers":{"adminImpersonating(address)":"b95a0628","approve(address,uint256)":"095ea7b3","balanceOf(address)":"70a08231","buyProduct(uint256,(string,string,string,string,string,string,string,string))":"661e1712","buyerPurchaseHistory(address,uint256)":"9fa44dbf","changeServicePct(uint256)":"5be20959","createCategory(string)":"dc298682","createProduct((string,string,uint256,uint256,string[],string[],string[],uint256,uint256,uint256,string,string,uint256))":"e40971e5","createReview(uint256,uint256,string)":"16d81b38","createSubCategoriesBulk(uint256,string[])":"d2bc9d78","createSubCategory(uint256,string)":"7d3978db","deleteCategory(uint256)":"ceca737f","deleteProduct(uint256)":"ed90c7b7","deleteReview(uint256,uint256)":"24d41a03","deleteSubCategory(uint256)":"17e98548","getAllCategories()":"dadd0a57","getAllProducts()":"02ee3a52","getApproved(uint256)":"081812fc","getBuyerPurchaseHistory(address)":"b27e1697","getCategory(uint256)":"f3052d26","getMyProducts()":"fdca4ca3","getPendingSellers()":"d3e2457f","getPendingVerificationUsers()":"6f68ef3a","getProduct(uint256)":"b9db15b4","getProductsByCategory(string)":"8f38cc7b","getReviews(uint256)":"9d4a2255","getSeller(address)":"a323d29e","getSellerBalance(address)":"2148893f","getSellerProducts(address)":"e6a93e16","getSellerProfile(address)":"4293e5ce","getSellerPurchaseHistory(address)":"3c2575d5","getSellerStatus(address)":"eb11c434","getSubCategory(uint256)":"6f2c8599","getUser(address)":"6f77926b","impersonateAccount(address)":"a22fb387","isApprovedForAll(address,address)":"e985e9c5","markPurchaseDelivered(uint256,address)":"11aa5b34","name()":"06fdde03","owner()":"8da5cb5b","ownerOf(uint256)":"6352211e","productExists(uint256)":"af55ed64","products(uint256)":"7acc0b20","registerSeller(string,string,string,string,string)":"7e8555ed","registerUser(string,string,string)":"d637dcfa","registeredSellers(address)":"c64b8a8f","registeredUsers(address)":"0e50cee5","renounceOwnership()":"715018a6","reviewExists(uint256)":"00d64e76","safeTransferFrom(address,address,uint256)":"42842e0e","safeTransferFrom(address,address,uint256,bytes)":"b88d4fde","sellerBalances(address)":"607eb4e4","sellerProducts(address,uint256)":"c1302b34","sellerProfiles(address)":"9196dfcb","sellerPurchaseHistory(address,uint256)":"e585cb2c","sellerStatus(address)":"45de84db","servicePct()":"e01ef6e6","setApprovalForAll(address,bool)":"a22cb465","stopImpersonating()":"1385fd92","supportsInterface(bytes4)":"01ffc9a7","symbol()":"95d89b41","tokenURI(uint256)":"c87b56dd","transferFrom(address,address,uint256)":"23b872dd","transferOwnership(address)":"f2fde38b","updateCategory(uint256,string,bool)":"66224d8e","updateProduct(uint256,(string,string,uint256,uint256,string[],string[],string[],uint256,uint256,uint256,string,string,uint256))":"868a5461","updateSellerStatus(address,uint8)":"97b6f393","updateSubCategory(uint256,string,bool)":"317a0827","userProfiles(address)":"332d56d7","usersList(uint256)":"502aa3b5","withdraw()":"3ccfd60b"}}}}}