{"contracts/HemShop.sol":{"HemShop":{"abi":[{"inputs":[{"internalType":"uint256","name":"_pct","type":"uint256"}],"stateMutability":"nonpayable","type":"constructor"},{"anonymous":false,"inputs":[{"indexed":false,"internalType":"address","name":"admin","type":"address"},{"indexed":false,"internalType":"address","name":"impersonatedAccount","type":"address"}],"name":"AdminImpersonationChanged","type":"event"},{"anonymous":false,"inputs":[{"indexed":true,"internalType":"address","name":"owner","type":"address"},{"indexed":true,"internalType":"address","name":"approved","type":"address"},{"indexed":true,"internalType":"uint256","name":"tokenId","type":"uint256"}],"name":"Approval","type":"event"},{"anonymous":false,"inputs":[{"indexed":true,"internalType":"address","name":"owner","type":"address"},{"indexed":true,"internalType":"address","name":"operator","type":"address"},{"indexed":false,"internalType":"bool","name":"approved","type":"bool"}],"name":"ApprovalForAll","type":"event"},{"anonymous":false,"inputs":[{"indexed":true,"internalType":"address","name":"seller","type":"address"},{"indexed":false,"internalType":"uint256","name":"newBalance","type":"uint256"}],"name":"BalanceUpdated","type":"event"},{"anonymous":false,"inputs":[{"indexed":true,"internalType":"uint256","name":"id","type":"uint256"},{"indexed":false,"internalType":"string","name":"name","type":"string"}],"name":"CategoryCreated","type":"event"},{"anonymous":false,"inputs":[{"indexed":true,"internalType":"uint256","name":"id","type":"uint256"},{"indexed":false,"internalType":"string","name":"name","type":"string"},{"indexed":false,"internalType":"bool","name":"isActive","type":"bool"}],"name":"CategoryUpdated","type":"event"},{"anonymous":false,"inputs":[{"indexed":true,"internalType":"uint256","name":"productId","type":"uint256"},{"indexed":true,"internalType":"address","name":"buyer","type":"address"},{"indexed":false,"internalType":"bool","name":"isDelivered","type":"bool"}],"name":"DeliveryStatusUpdated","type":"event"},{"anonymous":false,"inputs":[{"indexed":true,"internalType":"address","name":"previousOwner","type":"address"},{"indexed":true,"internalType":"address","name":"newOwner","type":"address"}],"name":"OwnershipTransferred","type":"event"},{"anonymous":false,"inputs":[{"indexed":true,"internalType":"uint256","name":"productId","type":"uint256"},{"indexed":true,"internalType":"address","name":"buyer","type":"address"},{"indexed":true,"internalType":"address","name":"seller","type":"address"},{"indexed":false,"internalType":"uint256","name":"price","type":"uint256"},{"indexed":false,"internalType":"uint256","name":"timestamp","type":"uint256"}],"name":"ProductPurchased","type":"event"},{"anonymous":false,"inputs":[{"indexed":true,"internalType":"uint256","name":"productId","type":"uint256"},{"indexed":true,"internalType":"address","name":"buyer","type":"address"},{"indexed":true,"internalType":"address","name":"seller","type":"address"},{"indexed":false,"internalType":"uint256","name":"totalAmount","type":"uint256"},{"indexed":false,"internalType":"uint256","name":"basePrice","type":"uint256"},{"indexed":false,"internalType":"uint256","name":"timestamp","type":"uint256"}],"name":"PurchaseRecorded","type":"event"},{"anonymous":false,"inputs":[{"indexed":true,"internalType":"address","name":"seller","type":"address"}],"name":"SellerAccessGranted","type":"event"},{"anonymous":false,"inputs":[{"indexed":true,"internalType":"address","name":"seller","type":"address"},{"indexed":false,"internalType":"uint256","name":"timestamp","type":"uint256"}],"name":"SellerRegistered","type":"event"},{"anonymous":false,"inputs":[{"indexed":true,"internalType":"address","name":"seller","type":"address"},{"indexed":false,"internalType":"enum HemShop.SellerStatus","name":"status","type":"uint8"}],"name":"SellerStatusUpdated","type":"event"},{"anonymous":false,"inputs":[{"indexed":true,"internalType":"uint256","name":"id","type":"uint256"},{"indexed":true,"internalType":"uint256","name":"parentId","type":"uint256"},{"indexed":false,"internalType":"string","name":"name","type":"string"}],"name":"SubCategoryCreated","type":"event"},{"anonymous":false,"inputs":[{"indexed":true,"internalType":"uint256","name":"id","type":"uint256"},{"indexed":false,"internalType":"string","name":"name","type":"string"},{"indexed":false,"internalType":"bool","name":"isActive","type":"bool"}],"name":"SubCategoryUpdated","type":"event"},{"anonymous":false,"inputs":[{"indexed":true,"internalType":"address","name":"from","type":"address"},{"indexed":true,"internalType":"address","name":"to","type":"address"},{"indexed":true,"internalType":"uint256","name":"tokenId","type":"uint256"}],"name":"Transfer","type":"event"},{"anonymous":false,"inputs":[{"indexed":true,"internalType":"address","name":"user","type":"address"},{"indexed":false,"internalType":"string","name":"name","type":"string"}],"name":"UserRegistered","type":"event"},{"inputs":[{"internalType":"address","name":"","type":"address"}],"name":"adminImpersonating","outputs":[{"internalType":"address","name":"","type":"address"}],"stateMutability":"view","type":"function"},{"inputs":[{"internalType":"address","name":"to","type":"address"},{"internalType":"uint256","name":"tokenId","type":"uint256"}],"name":"approve","outputs":[],"stateMutability":"nonpayable","type":"function"},{"inputs":[{"internalType":"address","name":"owner","type":"address"}],"name":"balanceOf","outputs":[{"internalType":"uint256","name":"","type":"uint256"}],"stateMutability":"view","type":"function"},{"inputs":[{"internalType":"uint256","name":"productId","type":"uint256"},{"components":[{"internalType":"string","name":"fullName","type":"string"},{"internalType":"string","name":"streetAddress","type":"string"},{"internalType":"string","name":"city","type":"string"},{"internalType":"string","name":"state","type":"string"},{"internalType":"string","name":"country","type":"string"},{"internalType":"string","name":"postalCode","type":"string"},{"internalType":"string","name":"phone","type":"string"},{"internalType":"string","name":"email","type":"string"}],"internalType":"struct HemShop.ShippingDetails","name":"shippingDetails","type":"tuple"}],"name":"buyProduct","outputs":[],"stateMutability":"payable","type":"function"},{"inputs":[{"internalType":"address","name":"","type":"address"},{"internalType":"uint256","name":"","type":"uint256"}],"name":"buyerPurchaseHistory","outputs":[{"internalType":"uint256","name":"productId","type":"uint256"},{"internalType":"uint256","name":"totalAmount","type":"uint256"},{"internalType":"uint256","name":"basePrice","type":"uint256"},{"internalType":"uint256","name":"timestamp","type":"uint256"},{"internalType":"address","name":"buyer","type":"address"},{"internalType":"address","name":"seller","type":"address"},{"internalType":"bool","name":"isDelivered","type":"bool"},{"components":[{"internalType":"string","name":"fullName","type":"string"},{"internalType":"string","name":"streetAddress","type":"string"},{"internalType":"string","name":"city","type":"string"},{"internalType":"string","name":"state","type":"string"},{"internalType":"string","name":"country","type":"string"},{"internalType":"string","name":"postalCode","type":"string"},{"internalType":"string","name":"phone","type":"string"},{"internalType":"string","name":"email","type":"string"}],"internalType":"struct HemShop.ShippingDetails","name":"shippingDetails","type":"tuple"}],"stateMutability":"view","type":"function"},{"inputs":[{"internalType":"uint256","name":"newPct","type":"uint256"}],"name":"changeServicePct","outputs":[],"stateMutability":"nonpayable","type":"function"},{"inputs":[{"internalType":"string","name":"_name","type":"string"}],"name":"createCategory","outputs":[],"stateMutability":"nonpayable","type":"function"},{"inputs":[{"components":[{"internalType":"string","name":"name","type":"string"},{"internalType":"string","name":"description","type":"string"},{"internalType":"uint256","name":"price","type":"uint256"},{"internalType":"uint256","name":"stock","type":"uint256"},{"internalType":"string[]","name":"colors","type":"string[]"},{"internalType":"string[]","name":"sizes","type":"string[]"},{"internalType":"string[]","name":"images","type":"string[]"},{"internalType":"uint256","name":"categoryId","type":"uint256"},{"internalType":"uint256","name":"subCategoryId","type":"uint256"},{"internalType":"uint256","name":"weight","type":"uint256"},{"internalType":"string","name":"model","type":"string"},{"internalType":"string","name":"brand","type":"string"},{"internalType":"uint256","name":"sku","type":"uint256"}],"internalType":"struct HemShop.ProductInput","name":"input","type":"tuple"}],"name":"createProduct","outputs":[],"stateMutability":"nonpayable","type":"function"},{"inputs":[{"internalType":"uint256","name":"productId","type":"uint256"},{"internalType":"uint256","name":"rating","type":"uint256"},{"internalType":"string","name":"comment","type":"string"}],"name":"createReview","outputs":[],"stateMutability":"nonpayable","type":"function"},{"inputs":[{"internalType":"uint256","name":"parentId","type":"uint256"},{"internalType":"string[]","name":"names","type":"string[]"}],"name":"createSubCategoriesBulk","outputs":[],"stateMutability":"nonpayable","type":"function"},{"inputs":[{"internalType":"uint256","name":"_parentId","type":"uint256"},{"internalType":"string","name":"_name","type":"string"}],"name":"createSubCategory","outputs":[],"stateMutability":"nonpayable","type":"function"},{"inputs":[{"internalType":"uint256","name":"_id","type":"uint256"}],"name":"deleteCategory","outputs":[],"stateMutability":"nonpayable","type":"function"},{"inputs":[{"internalType":"uint256","name":"productId","type":"uint256"}],"name":"deleteProduct","outputs":[],"stateMutability":"nonpayable","type":"function"},{"inputs":[{"internalType":"uint256","name":"productId","type":"uint256"},{"internalType":"uint256","name":"reviewId","type":"uint256"}],"name":"deleteReview","outputs":[],"stateMutability":"nonpayable","type":"function"},{"inputs":[{"internalType":"uint256","name":"_id","type":"uint256"}],"name":"deleteSubCategory","outputs":[],"stateMutability":"nonpayable","type":"function"},{"inputs":[],"name":"getAllCategories","outputs":[{"internalType":"uint256[]","name":"ids","type":"uint256[]"},{"internalType":"string[]","name":"names","type":"string[]"},{"internalType":"bool[]","name":"activeStates","type":"bool[]"},{"internalType":"uint256[][]","name":"subCategoryIdArrays","type":"uint256[][]"}],"stateMutability":"view","type":"function"},{"inputs":[],"name":"getAllProducts","outputs":[{"components":[{"internalType":"uint256","name":"id","type":"uint256"},{"internalType":"address","name":"seller","type":"address"},{"internalType":"string","name":"name","type":"string"},{"internalType":"string","name":"description","type":"string"},{"internalType":"uint256","name":"price","type":"uint256"},{"internalType":"uint256","name":"stock","type":"uint256"},{"internalType":"string[]","name":"colors","type":"string[]"},{"internalType":"string[]","name":"sizes","type":"string[]"},{"internalType":"string[]","name":"images","type":"string[]"},{"internalType":"string","name":"category","type":"string"},{"internalType":"string","name":"subCategory","type":"string"},{"internalType":"uint256","name":"weight","type":"uint256"},{"internalType":"string","name":"model","type":"string"},{"internalType":"string","name":"brand","type":"string"},{"internalType":"uint256","name":"sku","type":"uint256"},{"internalType":"bool","name":"soldout","type":"bool"},{"internalType":"bool","name":"wishlist","type":"bool"},{"internalType":"bool","name":"deleted","type":"bool"},{"components":[{"internalType":"uint256","name":"reviewId","type":"uint256"},{"internalType":"address","name":"reviewer","type":"address"},{"internalType":"uint256","name":"rating","type":"uint256"},{"internalType":"string","name":"comment","type":"string"},{"internalType":"bool","name":"deleted","type":"bool"},{"internalType":"uint256","name":"timestamp","type":"uint256"}],"internalType":"struct HemShop.ReviewStruct[]","name":"reviews","type":"tuple[]"}],"internalType":"struct HemShop.ProductStruct[]","name":"","type":"tuple[]"}],"stateMutability":"view","type":"function"},{"inputs":[],"name":"getAllRegisteredSellers","outputs":[{"internalType":"address[]","name":"","type":"address[]"}],"stateMutability":"view","type":"function"},{"inputs":[{"internalType":"uint256","name":"tokenId","type":"uint256"}],"name":"getApproved","outputs":[{"internalType":"address","name":"","type":"address"}],"stateMutability":"view","type":"function"},{"inputs":[{"internalType":"address","name":"buyer","type":"address"}],"name":"getBuyerPurchaseHistory","outputs":[{"components":[{"internalType":"uint256","name":"productId","type":"uint256"},{"internalType":"uint256","name":"totalAmount","type":"uint256"},{"internalType":"uint256","name":"basePrice","type":"uint256"},{"internalType":"uint256","name":"timestamp","type":"uint256"},{"internalType":"address","name":"buyer","type":"address"},{"internalType":"address","name":"seller","type":"address"},{"internalType":"bool","name":"isDelivered","type":"bool"},{"components":[{"internalType":"string","name":"fullName","type":"string"},{"internalType":"string","name":"streetAddress","type":"string"},{"internalType":"string","name":"city","type":"string"},{"internalType":"string","name":"state","type":"string"},{"internalType":"string","name":"country","type":"string"},{"internalType":"string","name":"postalCode","type":"string"},{"internalType":"string","name":"phone","type":"string"},{"internalType":"string","name":"email","type":"string"}],"internalType":"struct HemShop.ShippingDetails","name":"shippingDetails","type":"tuple"}],"internalType":"struct HemShop.PurchaseHistoryStruct[]","name":"","type":"tuple[]"}],"stateMutability":"view","type":"function"},{"inputs":[{"internalType":"uint256","name":"_id","type":"uint256"}],"name":"getCategory","outputs":[{"internalType":"uint256","name":"id","type":"uint256"},{"internalType":"string","name":"name","type":"string"},{"internalType":"bool","name":"isActive","type":"bool"},{"internalType":"uint256[]","name":"subCategoryIds","type":"uint256[]"}],"stateMutability":"view","type":"function"},{"inputs":[],"name":"getMyProducts","outputs":[{"components":[{"internalType":"uint256","name":"id","type":"uint256"},{"internalType":"address","name":"seller","type":"address"},{"internalType":"string","name":"name","type":"string"},{"internalType":"string","name":"description","type":"string"},{"internalType":"uint256","name":"price","type":"uint256"},{"internalType":"uint256","name":"stock","type":"uint256"},{"internalType":"string[]","name":"colors","type":"string[]"},{"internalType":"string[]","name":"sizes","type":"string[]"},{"internalType":"string[]","name":"images","type":"string[]"},{"internalType":"string","name":"category","type":"string"},{"internalType":"string","name":"subCategory","type":"string"},{"internalType":"uint256","name":"weight","type":"uint256"},{"internalType":"string","name":"model","type":"string"},{"internalType":"string","name":"brand","type":"string"},{"internalType":"uint256","name":"sku","type":"uint256"},{"internalType":"bool","name":"soldout","type":"bool"},{"internalType":"bool","name":"wishlist","type":"bool"},{"internalType":"bool","name":"deleted","type":"bool"},{"components":[{"internalType":"uint256","name":"reviewId","type":"uint256"},{"internalType":"address","name":"reviewer","type":"address"},{"internalType":"uint256","name":"rating","type":"uint256"},{"internalType":"string","name":"comment","type":"string"},{"internalType":"bool","name":"deleted","type":"bool"},{"internalType":"uint256","name":"timestamp","type":"uint256"}],"internalType":"struct HemShop.ReviewStruct[]","name":"reviews","type":"tuple[]"}],"internalType":"struct HemShop.ProductStruct[]","name":"","type":"tuple[]"}],"stateMutability":"view","type":"function"},{"inputs":[],"name":"getPendingVerificationUsers","outputs":[{"internalType":"address[]","name":"","type":"address[]"}],"stateMutability":"view","type":"function"},{"inputs":[{"internalType":"uint256","name":"productId","type":"uint256"}],"name":"getProduct","outputs":[{"components":[{"internalType":"uint256","name":"id","type":"uint256"},{"internalType":"address","name":"seller","type":"address"},{"internalType":"string","name":"name","type":"string"},{"internalType":"string","name":"description","type":"string"},{"internalType":"uint256","name":"price","type":"uint256"},{"internalType":"uint256","name":"stock","type":"uint256"},{"internalType":"string[]","name":"colors","type":"string[]"},{"internalType":"string[]","name":"sizes","type":"string[]"},{"internalType":"string[]","name":"images","type":"string[]"},{"internalType":"string","name":"category","type":"string"},{"internalType":"string","name":"subCategory","type":"string"},{"internalType":"uint256","name":"weight","type":"uint256"},{"internalType":"string","name":"model","type":"string"},{"internalType":"string","name":"brand","type":"string"},{"internalType":"uint256","name":"sku","type":"uint256"},{"internalType":"bool","name":"soldout","type":"bool"},{"internalType":"bool","name":"wishlist","type":"bool"},{"internalType":"bool","name":"deleted","type":"bool"},{"components":[{"internalType":"uint256","name":"reviewId","type":"uint256"},{"internalType":"address","name":"reviewer","type":"address"},{"internalType":"uint256","name":"rating","type":"uint256"},{"internalType":"string","name":"comment","type":"string"},{"internalType":"bool","name":"deleted","type":"bool"},{"internalType":"uint256","name":"timestamp","type":"uint256"}],"internalType":"struct HemShop.ReviewStruct[]","name":"reviews","type":"tuple[]"}],"internalType":"struct HemShop.ProductStruct","name":"","type":"tuple"}],"stateMutability":"view","type":"function"},{"inputs":[{"internalType":"string","name":"categoryName","type":"string"}],"name":"getProductsByCategory","outputs":[{"components":[{"internalType":"uint256","name":"id","type":"uint256"},{"internalType":"address","name":"seller","type":"address"},{"internalType":"string","name":"name","type":"string"},{"internalType":"string","name":"description","type":"string"},{"internalType":"uint256","name":"price","type":"uint256"},{"internalType":"uint256","name":"stock","type":"uint256"},{"internalType":"string[]","name":"colors","type":"string[]"},{"internalType":"string[]","name":"sizes","type":"string[]"},{"internalType":"string[]","name":"images","type":"string[]"},{"internalType":"string","name":"category","type":"string"},{"internalType":"string","name":"subCategory","type":"string"},{"internalType":"uint256","name":"weight","type":"uint256"},{"internalType":"string","name":"model","type":"string"},{"internalType":"string","name":"brand","type":"string"},{"internalType":"uint256","name":"sku","type":"uint256"},{"internalType":"bool","name":"soldout","type":"bool"},{"internalType":"bool","name":"wishlist","type":"bool"},{"internalType":"bool","name":"deleted","type":"bool"},{"components":[{"internalType":"uint256","name":"reviewId","type":"uint256"},{"internalType":"address","name":"reviewer","type":"address"},{"internalType":"uint256","name":"rating","type":"uint256"},{"internalType":"string","name":"comment","type":"string"},{"internalType":"bool","name":"deleted","type":"bool"},{"internalType":"uint256","name":"timestamp","type":"uint256"}],"internalType":"struct HemShop.ReviewStruct[]","name":"reviews","type":"tuple[]"}],"internalType":"struct HemShop.ProductStruct[]","name":"","type":"tuple[]"}],"stateMutability":"view","type":"function"},{"inputs":[{"internalType":"uint256","name":"productId","type":"uint256"}],"name":"getReviews","outputs":[{"components":[{"internalType":"uint256","name":"reviewId","type":"uint256"},{"internalType":"address","name":"reviewer","type":"address"},{"internalType":"uint256","name":"rating","type":"uint256"},{"internalType":"string","name":"comment","type":"string"},{"internalType":"bool","name":"deleted","type":"bool"},{"internalType":"uint256","name":"timestamp","type":"uint256"}],"internalType":"struct HemShop.ReviewStruct[]","name":"","type":"tuple[]"}],"stateMutability":"view","type":"function"},{"inputs":[{"internalType":"address","name":"seller","type":"address"}],"name":"getSeller","outputs":[{"components":[{"internalType":"string","name":"businessName","type":"string"},{"internalType":"string","name":"description","type":"string"},{"internalType":"string","name":"email","type":"string"},{"internalType":"string","name":"phone","type":"string"},{"internalType":"string","name":"logo","type":"string"},{"internalType":"uint256","name":"registeredAt","type":"uint256"},{"internalType":"bool","name":"termsAccepted","type":"bool"}],"internalType":"struct HemShop.SellerProfile","name":"profile","type":"tuple"},{"internalType":"enum HemShop.SellerStatus","name":"status","type":"uint8"},{"internalType":"uint256","name":"balance","type":"uint256"},{"internalType":"uint256[]","name":"productIds","type":"uint256[]"}],"stateMutability":"view","type":"function"},{"inputs":[{"internalType":"address","name":"seller","type":"address"}],"name":"getSellerBalance","outputs":[{"internalType":"uint256","name":"","type":"uint256"}],"stateMutability":"view","type":"function"},{"inputs":[{"internalType":"address","name":"seller","type":"address"}],"name":"getSellerProducts","outputs":[{"components":[{"internalType":"uint256","name":"id","type":"uint256"},{"internalType":"address","name":"seller","type":"address"},{"internalType":"string","name":"name","type":"string"},{"internalType":"string","name":"description","type":"string"},{"internalType":"uint256","name":"price","type":"uint256"},{"internalType":"uint256","name":"stock","type":"uint256"},{"internalType":"string[]","name":"colors","type":"string[]"},{"internalType":"string[]","name":"sizes","type":"string[]"},{"internalType":"string[]","name":"images","type":"string[]"},{"internalType":"string","name":"category","type":"string"},{"internalType":"string","name":"subCategory","type":"string"},{"internalType":"uint256","name":"weight","type":"uint256"},{"internalType":"string","name":"model","type":"string"},{"internalType":"string","name":"brand","type":"string"},{"internalType":"uint256","name":"sku","type":"uint256"},{"internalType":"bool","name":"soldout","type":"bool"},{"internalType":"bool","name":"wishlist","type":"bool"},{"internalType":"bool","name":"deleted","type":"bool"},{"components":[{"internalType":"uint256","name":"reviewId","type":"uint256"},{"internalType":"address","name":"reviewer","type":"address"},{"internalType":"uint256","name":"rating","type":"uint256"},{"internalType":"string","name":"comment","type":"string"},{"internalType":"bool","name":"deleted","type":"bool"},{"internalType":"uint256","name":"timestamp","type":"uint256"}],"internalType":"struct HemShop.ReviewStruct[]","name":"reviews","type":"tuple[]"}],"internalType":"struct HemShop.ProductStruct[]","name":"","type":"tuple[]"}],"stateMutability":"view","type":"function"},{"inputs":[{"internalType":"address","name":"seller","type":"address"}],"name":"getSellerProfile","outputs":[{"components":[{"internalType":"string","name":"businessName","type":"string"},{"internalType":"string","name":"description","type":"string"},{"internalType":"string","name":"email","type":"string"},{"internalType":"string","name":"phone","type":"string"},{"internalType":"string","name":"logo","type":"string"},{"internalType":"uint256","name":"registeredAt","type":"uint256"},{"internalType":"bool","name":"termsAccepted","type":"bool"}],"internalType":"struct HemShop.SellerProfile","name":"","type":"tuple"}],"stateMutability":"view","type":"function"},{"inputs":[{"internalType":"address","name":"seller","type":"address"}],"name":"getSellerPurchaseHistory","outputs":[{"components":[{"internalType":"uint256","name":"productId","type":"uint256"},{"internalType":"uint256","name":"totalAmount","type":"uint256"},{"internalType":"uint256","name":"basePrice","type":"uint256"},{"internalType":"uint256","name":"timestamp","type":"uint256"},{"internalType":"address","name":"buyer","type":"address"},{"internalType":"address","name":"seller","type":"address"},{"internalType":"bool","name":"isDelivered","type":"bool"},{"components":[{"internalType":"string","name":"fullName","type":"string"},{"internalType":"string","name":"streetAddress","type":"string"},{"internalType":"string","name":"city","type":"string"},{"internalType":"string","name":"state","type":"string"},{"internalType":"string","name":"country","type":"string"},{"internalType":"string","name":"postalCode","type":"string"},{"internalType":"string","name":"phone","type":"string"},{"internalType":"string","name":"email","type":"string"}],"internalType":"struct HemShop.ShippingDetails","name":"shippingDetails","type":"tuple"}],"internalType":"struct HemShop.PurchaseHistoryStruct[]","name":"","type":"tuple[]"}],"stateMutability":"view","type":"function"},{"inputs":[{"internalType":"address","name":"seller","type":"address"}],"name":"getSellerStatus","outputs":[{"internalType":"enum HemShop.SellerStatus","name":"","type":"uint8"}],"stateMutability":"view","type":"function"},{"inputs":[{"internalType":"uint256","name":"_id","type":"uint256"}],"name":"getSubCategory","outputs":[{"internalType":"uint256","name":"id","type":"uint256"},{"internalType":"string","name":"name","type":"string"},{"internalType":"uint256","name":"parentCategoryId","type":"uint256"},{"internalType":"bool","name":"isActive","type":"bool"}],"stateMutability":"view","type":"function"},{"inputs":[{"internalType":"address","name":"user","type":"address"}],"name":"getUser","outputs":[{"internalType":"bool","name":"isRegistered","type":"bool"},{"components":[{"internalType":"string","name":"name","type":"string"},{"internalType":"string","name":"email","type":"string"},{"internalType":"string","name":"avatar","type":"string"},{"internalType":"uint256","name":"registeredAt","type":"uint256"},{"internalType":"bool","name":"isActive","type":"bool"}],"internalType":"struct HemShop.UserProfile","name":"profile","type":"tuple"},{"internalType":"bool","name":"isUserSeller","type":"bool"},{"internalType":"enum HemShop.SellerStatus","name":"sellerState","type":"uint8"}],"stateMutability":"view","type":"function"},{"inputs":[],"name":"grantOwnerSellerAccess","outputs":[],"stateMutability":"nonpayable","type":"function"},{"inputs":[{"internalType":"address","name":"seller","type":"address"}],"name":"grantSellerAccess","outputs":[],"stateMutability":"nonpayable","type":"function"},{"inputs":[{"internalType":"address","name":"account","type":"address"}],"name":"impersonateAccount","outputs":[],"stateMutability":"nonpayable","type":"function"},{"inputs":[{"internalType":"address","name":"owner","type":"address"},{"internalType":"address","name":"operator","type":"address"}],"name":"isApprovedForAll","outputs":[{"internalType":"bool","name":"","type":"bool"}],"stateMutability":"view","type":"function"},{"inputs":[{"internalType":"address","name":"","type":"address"}],"name":"isSeller","outputs":[{"internalType":"bool","name":"","type":"bool"}],"stateMutability":"view","type":"function"},{"inputs":[{"internalType":"uint256","name":"productId","type":"uint256"},{"internalType":"address","name":"buyer","type":"address"}],"name":"markPurchaseDelivered","outputs":[],"stateMutability":"nonpayable","type":"function"},{"inputs":[],"name":"name","outputs":[{"internalType":"string","name":"","type":"string"}],"stateMutability":"view","type":"function"},{"inputs":[],"name":"owner","outputs":[{"internalType":"address","name":"","type":"address"}],"stateMutability":"view","type":"function"},{"inputs":[{"internalType":"uint256","name":"tokenId","type":"uint256"}],"name":"ownerOf","outputs":[{"internalType":"address","name":"","type":"address"}],"stateMutability":"view","type":"function"},{"inputs":[{"internalType":"uint256","name":"","type":"uint256"}],"name":"productExists","outputs":[{"internalType":"bool","name":"","type":"bool"}],"stateMutability":"view","type":"function"},{"inputs":[{"internalType":"uint256","name":"","type":"uint256"}],"name":"products","outputs":[{"internalType":"uint256","name":"id","type":"uint256"},{"internalType":"address","name":"seller","type":"address"},{"internalType":"string","name":"name","type":"string"},{"internalType":"string","name":"description","type":"string"},{"internalType":"uint256","name":"price","type":"uint256"},{"internalType":"uint256","name":"stock","type":"uint256"},{"internalType":"string","name":"category","type":"string"},{"internalType":"string","name":"subCategory","type":"string"},{"internalType":"uint256","name":"weight","type":"uint256"},{"internalType":"string","name":"model","type":"string"},{"internalType":"string","name":"brand","type":"string"},{"internalType":"uint256","name":"sku","type":"uint256"},{"internalType":"bool","name":"soldout","type":"bool"},{"internalType":"bool","name":"wishlist","type":"bool"},{"internalType":"bool","name":"deleted","type":"bool"}],"stateMutability":"view","type":"function"},{"inputs":[{"internalType":"string","name":"businessName","type":"string"},{"internalType":"string","name":"description","type":"string"},{"internalType":"string","name":"email","type":"string"},{"internalType":"string","name":"phone","type":"string"},{"internalType":"string","name":"logo","type":"string"}],"name":"registerSeller","outputs":[],"stateMutability":"nonpayable","type":"function"},{"inputs":[{"internalType":"string","name":"name","type":"string"},{"internalType":"string","name":"email","type":"string"},{"internalType":"string","name":"avatar","type":"string"}],"name":"registerUser","outputs":[],"stateMutability":"nonpayable","type":"function"},{"inputs":[{"internalType":"address","name":"","type":"address"}],"name":"registeredSellers","outputs":[{"internalType":"bool","name":"","type":"bool"}],"stateMutability":"view","type":"function"},{"inputs":[{"internalType":"address","name":"","type":"address"}],"name":"registeredUsers","outputs":[{"internalType":"bool","name":"","type":"bool"}],"stateMutability":"view","type":"function"},{"inputs":[],"name":"renounceOwnership","outputs":[],"stateMutability":"nonpayable","type":"function"},{"inputs":[{"internalType":"uint256","name":"","type":"uint256"}],"name":"reviewExists","outputs":[{"internalType":"bool","name":"","type":"bool"}],"stateMutability":"view","type":"function"},{"inputs":[{"internalType":"address","name":"from","type":"address"},{"internalType":"address","name":"to","type":"address"},{"internalType":"uint256","name":"tokenId","type":"uint256"}],"name":"safeTransferFrom","outputs":[],"stateMutability":"nonpayable","type":"function"},{"inputs":[{"internalType":"address","name":"from","type":"address"},{"internalType":"address","name":"to","type":"address"},{"internalType":"uint256","name":"tokenId","type":"uint256"},{"internalType":"bytes","name":"data","type":"bytes"}],"name":"safeTransferFrom","outputs":[],"stateMutability":"nonpayable","type":"function"},{"inputs":[{"internalType":"address","name":"","type":"address"}],"name":"sellerBalances","outputs":[{"internalType":"uint256","name":"","type":"uint256"}],"stateMutability":"view","type":"function"},{"inputs":[{"internalType":"address","name":"","type":"address"},{"internalType":"uint256","name":"","type":"uint256"}],"name":"sellerProducts","outputs":[{"internalType":"uint256","name":"","type":"uint256"}],"stateMutability":"view","type":"function"},{"inputs":[{"internalType":"address","name":"","type":"address"}],"name":"sellerProfiles","outputs":[{"internalType":"string","name":"businessName","type":"string"},{"internalType":"string","name":"description","type":"string"},{"internalType":"string","name":"email","type":"string"},{"internalType":"string","name":"phone","type":"string"},{"internalType":"string","name":"logo","type":"string"},{"internalType":"uint256","name":"registeredAt","type":"uint256"},{"internalType":"bool","name":"termsAccepted","type":"bool"}],"stateMutability":"view","type":"function"},{"inputs":[{"internalType":"address","name":"","type":"address"},{"internalType":"uint256","name":"","type":"uint256"}],"name":"sellerPurchaseHistory","outputs":[{"internalType":"uint256","name":"productId","type":"uint256"},{"internalType":"uint256","name":"totalAmount","type":"uint256"},{"internalType":"uint256","name":"basePrice","type":"uint256"},{"internalType":"uint256","name":"timestamp","type":"uint256"},{"internalType":"address","name":"buyer","type":"address"},{"internalType":"address","name":"seller","type":"address"},{"internalType":"bool","name":"isDelivered","type":"bool"},{"components":[{"internalType":"string","name":"fullName","type":"string"},{"internalType":"string","name":"streetAddress","type":"string"},{"internalType":"string","name":"city","type":"string"},{"internalType":"string","name":"state","type":"string"},{"internalType":"string","name":"country","type":"string"},{"internalType":"string","name":"postalCode","type":"string"},{"internalType":"string","name":"phone","type":"string"},{"internalType":"string","name":"email","type":"string"}],"internalType":"struct HemShop.ShippingDetails","name":"shippingDetails","type":"tuple"}],"stateMutability":"view","type":"function"},{"inputs":[{"internalType":"address","name":"","type":"address"}],"name":"sellerStatus","outputs":[{"internalType":"enum HemShop.SellerStatus","name":"","type":"uint8"}],"stateMutability":"view","type":"function"},{"inputs":[],"name":"servicePct","outputs":[{"internalType":"uint256","name":"","type":"uint256"}],"stateMutability":"view","type":"function"},{"inputs":[{"internalType":"address","name":"operator","type":"address"},{"internalType":"bool","name":"approved","type":"bool"}],"name":"setApprovalForAll","outputs":[],"stateMutability":"nonpayable","type":"function"},{"inputs":[],"name":"stopImpersonating","outputs":[],"stateMutability":"nonpayable","type":"function"},{"inputs":[{"internalType":"bytes4","name":"interfaceId","type":"bytes4"}],"name":"supportsInterface","outputs":[{"internalType":"bool","name":"","type":"bool"}],"stateMutability":"view","type":"function"},{"inputs":[],"name":"symbol","outputs":[{"internalType":"string","name":"","type":"string"}],"stateMutability":"view","type":"function"},{"inputs":[{"internalType":"uint256","name":"tokenId","type":"uint256"}],"name":"tokenURI","outputs":[{"internalType":"string","name":"","type":"string"}],"stateMutability":"view","type":"function"},{"inputs":[{"internalType":"address","name":"from","type":"address"},{"internalType":"address","name":"to","type":"address"},{"internalType":"uint256","name":"tokenId","type":"uint256"}],"name":"transferFrom","outputs":[],"stateMutability":"nonpayable","type":"function"},{"inputs":[{"internalType":"address","name":"newOwner","type":"address"}],"name":"transferOwnership","outputs":[],"stateMutability":"nonpayable","type":"function"},{"inputs":[{"internalType":"uint256","name":"_id","type":"uint256"},{"internalType":"string","name":"_name","type":"string"},{"internalType":"bool","name":"_isActive","type":"bool"}],"name":"updateCategory","outputs":[],"stateMutability":"nonpayable","type":"function"},{"inputs":[{"internalType":"uint256","name":"productId","type":"uint256"},{"components":[{"internalType":"string","name":"name","type":"string"},{"internalType":"string","name":"description","type":"string"},{"internalType":"uint256","name":"price","type":"uint256"},{"internalType":"uint256","name":"stock","type":"uint256"},{"internalType":"string[]","name":"colors","type":"string[]"},{"internalType":"string[]","name":"sizes","type":"string[]"},{"internalType":"string[]","name":"images","type":"string[]"},{"internalType":"uint256","name":"categoryId","type":"uint256"},{"internalType":"uint256","name":"subCategoryId","type":"uint256"},{"internalType":"uint256","name":"weight","type":"uint256"},{"internalType":"string","name":"model","type":"string"},{"internalType":"string","name":"brand","type":"string"},{"internalType":"uint256","name":"sku","type":"uint256"}],"internalType":"struct HemShop.ProductInput","name":"input","type":"tuple"}],"name":"updateProduct","outputs":[],"stateMutability":"nonpayable","type":"function"},{"inputs":[{"internalType":"address","name":"seller","type":"address"},{"internalType":"enum HemShop.SellerStatus","name":"status","type":"uint8"}],"name":"updateSellerStatus","outputs":[],"stateMutability":"nonpayable","type":"function"},{"inputs":[{"internalType":"uint256","name":"_id","type":"uint256"},{"internalType":"string","name":"_name","type":"string"},{"internalType":"bool","name":"_isActive","type":"bool"}],"name":"updateSubCategory","outputs":[],"stateMutability":"nonpayable","type":"function"},{"inputs":[{"internalType":"address","name":"","type":"address"}],"name":"userProfiles","outputs":[{"internalType":"string","name":"name","type":"string"},{"internalType":"string","name":"email","type":"string"},{"internalType":"string","name":"avatar","type":"string"},{"internalType":"uint256","name":"registeredAt","type":"uint256"},{"internalType":"bool","name":"isActive","type":"bool"}],"stateMutability":"view","type":"function"},{"inputs":[{"internalType":"uint256","name":"","type":"uint256"}],"name":"usersList","outputs":[{"internalType":"address","name":"","type":"address"}],"stateMutability":"view","type":"function"},{"inputs":[],"name":"withdraw","outputs":[],"stateMutability":"nonpayable","type":"function"}],"evm":{"bytecode":{"linkReferences":{},"object":"6080346200037757601f90601f196001600160401b0362009d153881900385810184168501838111868210176200037c57859282916040528339602094859181010312620003775751936200005362000392565b926007845266048656d53686f760cc1b858501526200007162000392565b60038082526204873760ec1b8783015260008054336001600160a01b031982168117835592989394919392906001600160a01b03167f8be0079c531659141344cd1fd0a4f28419497f9722a3daafe3b4186f6b6457e08580a360019687805580519087821162000363576002548981811c9116801562000358575b858210146200034457908188849311620002f0575b5084908883116001146200028e57869262000282575b5050600019828b1b1c191690881b176002555b83519586116200026e5787548781811c9116801562000263575b838210146200024f5785811162000207575b5081948611600114620001a25750509183949184939462000196575b50501b9160001990841b1c19161790555b600b556040516199629081620003b38239f35b01519250388062000172565b8783528183209493928692918316915b88838310620001ec5750505010620001d3575b505050811b01905562000183565b015160001983861b60f8161c19169055388080620001c5565b858701518855909601959485019487935090810190620001b2565b8884528284208680890160051c820192858a1062000245575b0160051c019088905b8281106200023957505062000156565b85815501889062000229565b9250819262000220565b634e487b7160e01b84526022600452602484fd5b90607f169062000144565b634e487b7160e01b83526041600452602483fd5b01519050388062000117565b90848b9416916002885286882092885b88828210620002d95750508411620002c0575b505050811b016002556200012a565b0151600019838d1b60f8161c19169055388080620002b1565b8385015186558e979095019493840193016200029e565b909150600286528486208880850160051c8201928786106200033a575b918c91869594930160051c01915b8281106200032b57505062000101565b8881558594508c91016200031b565b925081926200030d565b634e487b7160e01b86526022600452602486fd5b90607f1690620000ec565b634e487b7160e01b85526041600452602485fd5b600080fd5b634e487b7160e01b600052604160045260246000fd5b60408051919082016001600160401b038111838210176200037c5760405256fe608080604052600436101561001357600080fd5b60003560e01c908162d64e7614616cdf5750806301ffc9a714616c7157806302ee3a52146169f757806306fdde0314616952578063081812fc14616934578063095ea7b3146167ba5780630e50cee51461677b57806311aa5b34146167575780631385fd921461670357806316d81b381461650b57806317e98548146164935780632148893f14615c1957806323b872dd1461646a57806324d41a031461624d578063317a082714616106578063332d56d7146160455780633c2575d514615f605780633ccfd60b14615f4757806342842e0e14615f1f5780634293e5ce14615e1d57806345de84db14615ddb5780634e213d2014615d74578063502aa3b514615d325780635ad6a58014615cb65780635be2095914615c53578063607eb4e414615c195780636352211e14615be9578063661e1712146153e757806366224d8e146152915780636f2c8599146151e65780636f68ef3a146150905780636f77926b14614eac57806370a0823114614e15578063715018a614614dce5780637acc0b2014614c0f5780637d3978db146149f15780637e8555ed14614371578063868a5461146138105780638da5cb5b146137e75780638f38cc7b146134c45780639196dfcb146133aa57806395d89b41146132c857806397b6f393146131575780639d4a225514612fc85780639fa44dbf14612f80578063a22cb46514612eb5578063a22fb38714612e0a578063a323d29e14612cb7578063af55ed6414612c86578063b27e169714612ba1578063b88d4fde14612b42578063b95a062814612b07578063b9db15b4146128ed578063c1302b3414612895578063c64b8a8f14612856578063c87b56dd146127fc578063ceca737f14612778578063d2bc9d78146124cb578063d637dcfa1461205e578063dadd0a5714611d5e578063dc29868214611b3d578063e01ef6e614611b1f578063e40971e514610c9d578063e585cb2c14610c0d578063e6a93e161461094c578063e985e9c5146108f6578063eb11c434146108c4578063ed90c7b7146108a6578063ee95feaf14610867578063f2fde38b146107b8578063f3052d26146106f8578063f6b22fa7146106175763fdca4ca31461034157600080fd5b346106125760003660031901126106125760088054600060015b828111156105ac575061036d906188fd565b9060009260015b8281111561038e576040518061038a8682616f99565b0390f35b600081815260106020818152604090922060018101546001600160a01b031692913384148061059b575b6103cf575b505050506103ca906188ee565b610374565b604098949851936103df85617027565b8254855283850152604051610402816103fb8160028701617224565b03826170e6565b604085015260405161041b816103fb8160038701617224565b606085015260048201546080850152600582015460a0850152600691610442838201618828565b60c086015261045360078201618828565b60e0860152610463878201618828565b61010086015260405161047d816103fb8160098601617224565b610120860152604051610497816103fb81600a8601617224565b610140860152600b8101546101608601526040516104bc816103fb81600c8601617224565b6101808601526040516104d6816103fb81600d8601617224565b6101a0860152600e8101546101c0860152600f81015460ff9081811615156101e088015281818a1c161515610200880152831c16151561022086015201908154916105208361819a565b9361052e60405195866170e6565b8385526000918252808220918186015b85821061057f5750505050505091816103ca93610240610575940152610564828861894d565b5261056f818761894d565b506188ee565b94903880806103bd565b848360019261058d8761888d565b81520194019101909261053e565b5060ff600f830154821c16156103b8565b600081815260106020819052604090912060018101546001600160a01b031633149190826105ff575b50506105ea575b6105e5906188ee565b61035b565b906105f76105e5916188ee565b9190506105dc565b60ff9250600f0154901c161538806105d5565b600080fd5b3461061257602036600319011261061257610630616ffb565b6106386176a0565b6001600160a01b031660008181526013602052604090205460ff1660048110156106e2576002036106a35780600052601d6020526040600020600160ff198254161790557fd6d6313ffaf8812d569798f401675afaf93c3b25ab54bcca87e1e612ef25c23b600080a2005b60405162461bcd60e51b815260206004820152601760248201527614d95b1b195c881b5d5cdd081899481d995c9a599a5959604a1b6044820152606490fd5b634e487b7160e01b600052602160045260246000fd5b3461061257602036600319011261061257600435600052600e60205260406000206040516107258161707a565b8154815261038a60405191610748836107418160018801617224565b03846170e6565b6020810192835261076c600360ff6002870154169560408401961515875201618ac2565b906060810191825261078081511515618a13565b5192519351151590516107a56040519586958652608060208701526080860190616d0c565b916040850152838203606085015261766c565b34610612576020366003190112610612576107d1616ffb565b6107d96176a0565b6001600160a01b03908116908115610813576000548260018060a01b0319821617600055166000805160206198d6833981519152600080a3005b60405162461bcd60e51b815260206004820152602660248201527f4f776e61626c653a206e6577206f776e657220697320746865207a65726f206160448201526564647265737360d01b6064820152608490fd5b34610612576020366003190112610612576001600160a01b03610888616ffb565b16600052601d602052602060ff604060002054166040519015158152f35b34610612576020366003190112610612576108c260043561861e565b005b346106125760203660031901126106125760206108e76108e2616ffb565b617da9565b6108f460405180926174a0565bf35b346106125760403660031901126106125761090f616ffb565b610917617011565b9060018060a01b03809116600052600760205260406000209116600052602052602060ff604060002054166040519015158152f35b3461061257602036600319011261061257610965616ffb565b600854600060015b82811115610ba4575061097f906188fd565b90600160005b8282111561099b576040518061038a8682616f99565b600082815260106020819052604090912060018101546001600160a01b039081169291908816831480610b93575b6109e1575b505050906109db906188ee565b90610985565b604051926109ee84617027565b815484526020840152604051610a0b816103fb8160028601617224565b6040840152604051610a24816103fb8160038601617224565b606084015260048101546080840152600581015460a0840152610a4960068201618828565b60c0840152610a5a60078201618828565b60e0840152610a6b60088201618828565b610100840152604051610a85816103fb8160098601617224565b610120840152604051610a9f816103fb81600a8601617224565b610140840152600b810154610160840152604051610ac4816103fb81600c8601617224565b610180840152604051610ade816103fb81600d8601617224565b6101a0840152600e8101546101c0840152600f81015460ff9081811615156101e0860152818160081c161515610200860152831c16151561022084015201805490610b288261819a565b91610b3660405193846170e6565b808352602083019160005260206000206000925b828410610b7557505050506102408201526109db91610b6d91610564828861894d565b9086806109ce565b60066020600192610b858561888d565b815201920193019290610b4a565b5060ff600f820154831c16156109c9565b600081815260106020819052604090912060018101546001600160a01b03878116911614919082610bfa575b5050610be5575b610be0906188ee565b61096d565b90610bf2610be0916188ee565b919050610bd7565b60ff9250600f0154901c16158580610bd0565b3461061257604036600319011261061257610c26616ffb565b6001600160a01b03908116600090815260156020526040902080546024359081101561061257610c559161753a565b509061038a825460018401549360028101549160038201548560048401541690610c86600660058601549501617556565b9460405198899860ff8760a01c1696169489617622565b3461061257600319602036820112610612576001600160401b0360043511610612576101a09060043536030112610612576000546001600160a01b031633148015611ae6575b610cec90617de4565b610d06610cfd600480350180617e21565b90501515617e53565b610d17604460043501351515617e96565b610d28606460043501351515617ee1565b60e4600435013515611a9657610104600435013515611a4357610d5361012460043501351515617f2c565b610d74610d6b61014460043501600435600401617e21565b90501515617f78565b610d95610d8c61016460043501600435600401617e21565b90501515617fbc565b610da761018460043501351515618000565b610dc7610dbe60c460043501600435600401618049565b9050151561807e565b610de96005610de060c460043501600435600401618049565b905011156180c3565b60016008540180600855610dfb61810e565b81815233602082015290610e1d610e16600480350180617e21565b3691617124565b6040830152610e39610e16602460043501600435600401617e21565b60608301526044600435013560808301526064600435013560a0830152610e74610e6d608460043501600435600401618049565b36916181b1565b60c0830152610e90610e6d60a460043501600435600401618049565b60e0830152610eac610e6d60c460043501600435600401618049565b61010083015260e46004350135600052600e6020526103fb610edb600160406000200160405192838092617224565b6101208301526101046004350135600052600f6020526103fb610f0b600160406000200160405192838092617224565b610140830152610f29610e1661014460043501600435600401617e21565b610180830152610f47610e1661016460043501600435600401617e21565b6101a083015260043561012481013561016084015261018401356101c083015233156119ff57610f7f610f7982617a5b565b1561841b565b610f8b610f7982617a5b565b33600052600560205260406000206001815401905580600052600460205260406000203360018060a01b0319825416179055803360006000805160206198f68339815191528180a46010602052604060002090825182556001820160018060a01b0360208501511660018060a01b0319825416179055604083015192835160018060401b038111611469576110308161102760028701546171ea565b60028701617c38565b6020601f8211600114611990578192939495600092611985575b50508160011b916000199060031b1c19161760028401555b606081015180519093906001600160401b038111611469576110948161108b60038501546171ea565b60038501617c38565b6020601f821160011461191657819293949560009261190b575b50508160011b916000199060031b1c19161760038201555b6080820151600482015560a082015160058201556006810160c083015160208151916110f28385618269565b01916000526020600020916000905b82821061182e57505050506007810160e083015160208151916111248385618269565b01916000526020600020916000905b82821061175157505050506008810161010083015160208151916111578385618269565b01916000526020600020916000905b82821061166e575050505061012082015180519093906001600160401b038111611469576111a48161119b60098601546171ea565b60098601617c38565b6020601f82116001146115ff5781929394956000926115f4575b50508160011b916000199060031b1c19161760098301555b61014083015180519093906001600160401b0381116114695761120981611200600a8701546171ea565b600a8701617c38565b6020601f821160011461158557819293949560009261157a575b50508160011b916000199060031b1c191617600a8401555b610160810151600b84015561018081015180519093906001600160401b0381116114695761127981611270600c8501546171ea565b600c8501617c38565b6020601f821160011461150b578192939495600092611500575b50508160011b916000199060031b1c191617600c8201555b6101a08201518051906001600160401b038211611469576112dc826112d3600d8601546171ea565b600d8601617c38565b602090601f831160011461148a579180610240949260109460009261147f575b50508160011b916000199060031b1c191617600d8201555b6101c0840151600e820155600f81016113346101e0860151151582617a4a565b6102008501511515815461ff0062ff00006102208901511515871b169260081b169062ffff001916171790550191015190815191600160401b83116114695781548383558084106113e6575b506020019060005260206000206000915b8383106113c8576108c2858060005260176020526040600020600160ff1982541617905533600052601160205260406000206183e6565b60066020826113da60019451866182b2565b01920192019190611391565b8060060290600682040361145357836006026006810485036114535783600052602060002091820191015b81811061141e5750611380565b80600060069255600060018201556000600282015561143f60038201618220565b600060048201556000600582015501611411565b634e487b7160e01b600052601160045260246000fd5b634e487b7160e01b600052604160045260246000fd5b0151905087806112fc565b90600d840160005260206000209160005b601f19851681106114e8575092610240949260019260109583601f198116106114cf575b505050811b01600d820155611314565b015160001960f88460031b161c191690558780806114bf565b9192602060018192868501518155019401920161149b565b015190508580611293565b600c830160005260206000209060005b601f1984168110611562575060019394959683601f19811610611549575b505050811b01600c8201556112ab565b015160001960f88460031b161c19169055858080611539565b9091602060018192858b01518155019301910161151b565b015190508580611223565b600a850160005260206000209060005b601f19841681106115dc575060019394959683601f198116106115c3575b505050811b01600a84015561123b565b015160001960f88460031b161c191690558580806115b3565b9091602060018192858b015181550193019101611595565b0151905085806111be565b6009840160005260206000209060005b601f1984168110611656575060019394959683601f1981161061163d575b505050811b0160098301556111d6565b015160001960f88460031b161c1916905585808061162d565b9091602060018192858b01518155019301910161160f565b80518051906001600160401b038211611469576116958261168f88546171ea565b88617c38565b602090601f83116001146116e15792826001949360209386956000926116d6575b5050600019600383901b1c191690841b1787555b01940191019092611166565b015190508c806116b6565b908660005260206000209160005b601f1985168110611739575083602093600196938796938794601f19811610611720575b505050811b0187556116ca565b015160001960f88460031b161c191690558c8080611713565b919260206001819286850151815501940192016116ef565b80518051906001600160401b038211611469576117728261168f88546171ea565b602090601f83116001146117be5792826001949360209386956000926117b3575b5050600019600383901b1c191690841b1787555b01940191019092611133565b015190508c80611793565b908660005260206000209160005b601f1985168110611816575083602093600196938796938794601f198116106117fd575b505050811b0187556117a7565b015160001960f88460031b161c191690558c80806117f0565b919260206001819286850151815501940192016117cc565b80518051906001600160401b0382116114695761184f8261168f88546171ea565b602090601f831160011461189b579282600194936020938695600092611890575b5050600019600383901b1c191690841b1787555b01940191019092611101565b015190508c80611870565b908660005260206000209160005b601f19851681106118f3575083602093600196938796938794601f198116106118da575b505050811b018755611884565b015160001960f88460031b161c191690558c80806118cd565b919260206001819286850151815501940192016118a9565b0151905085806110ae565b6003830160005260206000209060005b601f198416811061196d575060019394959683601f19811610611954575b505050811b0160038201556110c6565b015160001960f88460031b161c19169055858080611944565b9091602060018192858b015181550193019101611926565b01519050858061104a565b6002850160005260206000209060005b601f19841681106119e7575060019394959683601f198116106119ce575b505050811b016002840155611062565b015160001960f88460031b161c191690558580806119be565b9091602060018192858b0151815501930191016119a0565b606460405162461bcd60e51b815260206004820152602060248201527f4552433732313a206d696e7420746f20746865207a65726f20616464726573736044820152fd5b60405162461bcd60e51b815260206004820152602560248201527f53756243617465676f7279204944206d75737420626520677265617465722074604482015264068616e20360dc1b6064820152608490fd5b60405162461bcd60e51b815260206004820152602260248201527f43617465676f7279204944206d7573742062652067726561746572207468616e604482015261020360f41b6064820152608490fd5b5033600052601660205260ff604060002054168015610ce35750601360205260ff6040600020541660048110156106e257600214610ce3565b34610612576000366003190112610612576020600b54604051908152f35b3461061257602080600319360112610612576001600160401b0360043581811161061257611b6f90369060040161715b565b90611b786176a0565b611b8482511515618961565b611b8f601e546188ee565b9081601e55604051611ba0816170cb565b60008152604051611bb08161707a565b838152858101858152604082019060019586835260608401948552600052600e8852604060002092518355858301905180519086821161146957611bfe82611bf885546171ea565b85617c38565b8990601f8311600114611ced579180611c3d94926003979694600092611ce2575b505060001982881b1c191690891b1790555b51151560028301617a4a565b019051805192831161146957600160401b83116114695785908254848455808510611cc5575b5001906000528460002060005b838110611cb457601e546040518881527f11c167cc9b439f0ad8bec5588159f1b06b813bc38d50c867a41b23b077be2c1a9080611caf818c018b616d0c565b0390a2005b825182820155918601918401611c70565b611cdc908460005285846000209182019101617c21565b87611c63565b015190508c80611c1f565b889291601f19831691856000528c600020928d6000905b828210611d47575050916003989795939185611c3d98969410611d2f575b505050811b019055611c31565b0151600019838a1b60f8161c191690558c8080611d22565b8385015186558d979095019493840193018e611d04565b3461061257600036600319011261061257601e54611d7b8161819a565b611d8860405191826170e6565b818152601f19611d978361819a565b01366020830137611da78261819a565b91611db560405193846170e6565b808352611dd1601f19611dc78361819a565b0160208501618b11565b611dda8161819a565b92611de860405194856170e6565b818452601f19611df78361819a565b01366020860137611e078261819a565b90611e1560405192836170e6565b828252611e218361819a565b92611e346020840194601f190185618b11565b60015b81811115611f70575050611e566040519460808652608086019061766c565b8481036020860152815180825260208201916020808360051b8301019401926000915b838310611f4357505050505083810360408501526020808651928381520195019060005b818110611f2b57505050828403606084015251808452602084019060208160051b86010192916000905b828210611ed45785850386f35b90919293601f19878203018252845190602080835192838152019201906000905b808210611f1357505050602080600192960192019201909291611ec7565b90919260208060019286518152019401920190611ef5565b82511515875260209687019690920191600101611e9d565b9091929394602080611f61600193601f198682030187528951616d0c565b97019301930191939290611e79565b80600052600e602052604060002090611fc3600360405193611f918561707a565b80548552604051611fa9816103fb8160018601617224565b602086015260ff6002820154161515604086015201618ac2565b60608301528151611fde575b611fd991506188ee565b611e37565b8060001981011161145357606082611fd99351611fff60001985018b61894d565b52602081015161201360001985018861894d565b5261202260001984018761894d565b506040810151151561203860001985018c61894d565b52015161204960001983018761894d565b5261205860001982018661894d565b50611fcf565b34610612576060366003190112610612576004356001600160401b0381116106125761208e90369060040161715b565b6024356001600160401b038111610612576120ad90369060040161715b565b6044356001600160401b038111610612576120cc90369060040161715b565b33600052601a60205260ff6040600020541661248c576120ee83511515617e53565b81511561244f576040519161210283617095565b838352602083015260408201524260608201526001608082015233600052601b602052604060002091815192835160018060401b038111611469576121518161214b84546171ea565b84617c38565b6020601f82116001146123e65781929394956000926123db575b50508160011b916000199060031b1c19161781555b602083015180519093906001600160401b038111611469576121b2816121a960018601546171ea565b60018601617c38565b6020601f821160011461236c578192939495600092612361575b50508160011b916000199060031b1c19161760018301555b6040810151805160028401916001600160401b0382116114695761220c82611bf885546171ea565b602090601f83116001146122ef57928260809361225a9796936004966000926122e4575b50508160011b916000199060031b1c19161790555b60608101516003850155015115159101617a4a565b336000908152601a60205260409020805460ff19166001179055601c54600160401b811015611469578060016122939201601c556174ad565b81549060031b9033821b9160018060a01b03901b19161790557f48cac28ad4dc618e15f4c2dd5e97751182f166de97b25618318b2112aa951a2f6040516020815280611caf33946020830190616d0c565b015190508980612230565b90601f198316918460005260206000209260005b81811061234957509361225a979693600496936001938360809810612330575b505050811b019055612245565b015160001960f88460031b161c19169055898080612323565b92936020600181928786015181550195019301612303565b0151905085806121cc565b6001840160005260206000209060005b601f19841681106123c3575060019394959683601f198116106123aa575b505050811b0160018301556121e4565b015160001960f88460031b161c1916905585808061239a565b9091602060018192858b01518155019301910161237c565b01519050858061216b565b8260005260206000209060005b601f1984168110612437575060019394959683601f1981161061241e575b505050811b018155612180565b015160001960f88460031b161c19169055858080612411565b9091602060018192858b0151815501930191016123f3565b60405162461bcd60e51b8152602060048201526015602482015274456d61696c2063616e6e6f7420626520656d70747960581b6044820152606490fd5b60405162461bcd60e51b8152602060048201526017602482015276155cd95c88185b1c9958591e481c9959da5cdd195c9959604a1b6044820152606490fd5b34610612576040366003190112610612576024356001600160401b0381116106125736602382011215610612576001600160401b0360048201351161061257366024826004013560051b8301011161061257600435600052600e60205260ff60026040600020015416156127365760005b8160040135811061254957005b612554601f546188ee565b80601f5561258661256d838560040135602487016189f8565b91906040519261257c8461707a565b8484523691617124565b9160208201928352600435604083015260016060830152600052600f602052604060002091815183555180519060018060401b038211611469576125da826125d160018701546171ea565b60018701617c38565b602090601f83116001146126b85761264c93836126a8979694612632946060946000926126ad575b50508160011b916000199060031b1c19161760018501555b60408101516002850155015115156003809301617a4a565b600435600052600e602052604060002001601f54906183e6565b600080516020619916833981519152601f54612670838660040135602488016189f8565b9290836040519160208352816020840152604083013760006040858301015260408160043595601f80199101168101030190a36188ee565b61253c565b015190508a80612602565b906001850160005260206000209160005b601f198516811061271e5750936001846126329460609461264c986126a89b9a98601f19811610612705575b505050811b01600185015561261a565b015160001960f88460031b161c191690558a80806126f5565b919260206001819286850151815501940192016126c9565b60405162461bcd60e51b815260206004820152601a602482015279506172656e742063617465676f7279206e6f742061637469766560301b6044820152606490fd5b34610612576020366003190112610612576004356127946176a0565b80600052600e6020526127ad6040600020541515618a13565b80600052600e6020526000805160206198b68339815191526127f060406000206002810160ff198154169055604051918291604083526001604084019101617224565b600060208301520390a2005b346106125760203660031901126106125761282061281b600435617a5b565b6176f8565b600060405161282e816170cb565b5261038a60405161283e816170cb565b60008152604051918291602083526020830190616d0c565b34610612576020366003190112610612576001600160a01b03612877616ffb565b166000526016602052602060ff604060002054166040519015158152f35b34610612576040366003190112610612576128ae616ffb565b6001600160a01b0316600090815260116020526040902080546024359190821015610612576020916128df916174de565b90546040519160031b1c8152f35b34610612576020806003193601126106125760043561290a61810e565b50806000526010825261292b60ff600f6040600020015460101c16156184ab565b806000526017825261294460ff60406000205416618466565b600052601081526040600020906040519161295e83617027565b805483526001808201546001600160a01b031683850152604051612989816103fb8160028701617224565b60408501526040516129a2816103fb8160038701617224565b606085015260048201546080850152600582015460a085015260106006926129cb848201618828565b60c08701526129dc60078201618828565b60e08701526129ed60088201618828565b610100870152604051612a07816103fb8160098601617224565b610120870152604051612a21816103fb81600a8601617224565b610140870152600b810154610160870152604051612a46816103fb81600c8601617224565b610180870152604051612a60816103fb81600d8601617224565b6101a0870152600e8101546101c087015260ff600f82015481811615156101e0890152818160081c161515610200890152831c1615156102208701520191825490612aaa8261819a565b93612ab860405195866170e6565b8285526000908152858120868087015b858410612aea576102408a018890526040518281528061038a8185018d616e49565b86918591612af78561888d565b8152019201920191908790612ac8565b346106125760203660031901126106125760206001600160a01b0380612b2b616ffb565b166000526019825260406000205416604051908152f35b3461061257608036600319011261061257612b5b616ffb565b612b63617011565b606435916001600160401b038311610612573660238401121561061257612b976108c2933690602481600401359101617124565b91604435916177eb565b3461061257602080600319360112610612576001600160a01b039081612bc5616ffb565b16600052601481526040600020805490612bde8261819a565b92612bec60405194856170e6565b82845260009182528082208185015b848410612c10576040518061038a8882617362565b600e83600192604051612c2281617043565b85548152848601548382015260028601546040820152600386015460608201528a600487015416608082015260ff600587015460a08d8216818501521c16151560c0820152612c7360068701617556565b60e0820152815201920193019290612bfb565b34610612576020366003190112610612576004356000526017602052602060ff604060002054166040519015158152f35b346106125760208060031936011261061257612def9061038a612cd8616ffb565b612ce0617d72565b5060018060a01b0316918260005260168152612d0360ff60406000205416617d2e565b82600052600d815260406000209260ff600660405195612d228761705f565b604051612d33816103fb8185617224565b8752604051612d49816103fb8160018601617224565b85880152604051612d61816103fb8160028601617224565b6040880152604051612d7a816103fb8160038601617224565b6060880152604051612d93816103fb8160048601617224565b6080880152600581015460a0880152015416151560c08501526000526013815260ff604060002054166012825260406000205460118352612df8612dda6040600020618ac2565b92604051978897608089526080890190617420565b948701906174a0565b6040850152838203606085015261766c565b3461061257602036600319011261061257612e23616ffb565b612e2b6176a0565b6001600160a01b03168015612e7657604060008051602061987683398151915291336000526019602052816000208160018060a01b03198254161790558151903382526020820152a1005b60405162461bcd60e51b8152602060048201526017602482015276496e76616c6964206163636f756e74206164647265737360481b6044820152606490fd5b3461061257604036600319011261061257612ece616ffb565b6024359081151590818303610612576001600160a01b031691338314612f3f57612f11903360005260076020526040600020846000526020526040600020617a4a565b6040519081527f17307eab39ab6107e8899845ad3d59bd9653f200f220920489ca2b5937696c3160203392a3005b60405162461bcd60e51b815260206004820152601960248201527822a9219b99189d1030b8383937bb32903a379031b0b63632b960391b6044820152606490fd5b3461061257604036600319011261061257612f99616ffb565b6001600160a01b03908116600090815260146020526040902080546024359081101561061257610c559161753a565b3461061257602080600319360112610612576004358060005260109182815260ff612fff81600f60406000200154861c16156184ab565b82600052601782526130178160406000205416618466565b60009160005b8460005285825285604060002001805482101561306e576004613041838693618b6c565b5001541615613059575b613054906188ee565b61301d565b92613066613054916188ee565b93905061304b565b5050838561307b8561819a565b9461308960405196876170e6565b808652613098601f199161819a565b018360005b8281106131415750505060009160005b8160005282855282604060002001805482101561312e5760046130d1838993618b6c565b50015416156130e9575b6130e4906188ee565b6130ad565b926131266130e4918360005284875261311161310b8787604060002001618b6c565b5061888d565b61311b828b61894d565b5261056f818a61894d565b9390506130db565b6040518681528061038a8189018b616da8565b613149618b3b565b82828a01015201849061309d565b3461061257604036600319011261061257613170616ffb565b602435906004821015610612576131856176a0565b6001600160a01b03169061319a821515617ce9565b81600052602090601682526131b660ff60406000205416617d2e565b826000526013825260ff6040600020541660048110156106e257811461328e5760028114613228575b907fd8f7bcb2c5cffc294a0aaef719685993d7be95273fb8254803a1563510ccefed918360005260138252613218816040600020617c7f565b61322560405180926174a0565ba2005b826000526013825260ff6040600020541660048110156106e2576001146131df5760405162461bcd60e51b815260048101839052601f60248201527f43616e206f6e6c79207665726966792070656e64696e672073656c6c657273006044820152606490fd5b60405162461bcd60e51b815260048101839052601260248201527114dd185d1d5cc8185b1c9958591e481cd95d60721b6044820152606490fd5b34610612576000366003190112610612576040516000906003546132eb816171ea565b8083526001918083169081156133825750600114613328575b61038a83613314818703826170e6565b604051918291602083526020830190616d0c565b6003600090815260209450917fc2575a0e9e593c00f959f8c92f12db2869c3395a3b0502d05e2516446f71f85b5b82841061336f5750505081019091019061331481613304565b8054858501870152928501928101613356565b61038a955061331493506020915091849260ff191682840152151560051b8201019350613304565b34610612576020366003190112610612576001600160a01b036133cb616ffb565b16600052600d60205261347b6040600020604051906133f5826133ee8184617224565b03836170e6565b604051613409816103fb8160018601617224565b6134b3604051613420816103fb8160028801617224565b6134a5604051613437816103fb8160038a01617224565b613497604051936134568561344f8160048c01617224565b03866170e6565b61348960ff600660058b01549a015416976040519b8c9b60e08d5260e08d0190616d0c565b908b820360208d0152616d0c565b9089820360408b0152616d0c565b908782036060890152616d0c565b908582036080870152616d0c565b9160a0840152151560c08301520390f35b34610612576020366003190112610612576004356001600160401b038111610612576134f490369060040161715b565b600854600060015b82811115613765575061350e906188fd565b90600160005b8282111561352a576040518061038a8682616f99565b816000526010806020526009906103fb6135508360406000200160405192838092617224565b60208151910120875160208901201480613748575b61357c575b505090613576906188ee565b90613514565b836000528060205260406000206103fb61363b6040519461359c86617027565b8354865260018401546001600160a01b031660208701526040516135c7816103fb8160028901617224565b60408701526040516135e0816103fb8160038901617224565b606087015260048401546080870152600584015460a087015261360560068501618828565b60c087015261361660078501618828565b60e087015261362760088501618828565b610100870152604051928380928601617224565b610120840152604051613655816103fb81600a8601617224565b610140840152600b81015461016084015260405161367a816103fb81600c8601617224565b610180840152604051613694816103fb81600d8601617224565b6101a0840152600e8101546101c0840152600f81015460ff9081811615156101e0860152818160081c161515610200860152831c161515610220840152018054906136de8261819a565b916136ec60405193846170e6565b808352602083019160005260206000206000925b82841061372a57505050506102408201526135769161372391610564828861894d565b908661356a565b6006602060019261373a8561888d565b815201920193019290613700565b50836000528060205260ff600f60406000200154821c1615613565565b806000526010806020526103fb613789600960406000200160405192838092617224565b60208151910120855160208701201490816137c8575b506137b3575b6137ae906188ee565b6134fc565b906137c06137ae916188ee565b9190506137a5565b60ff91508260005280602052600f60406000200154901c16158561379f565b34610612576000366003190112610612576000546040516001600160a01b039091168152602090f35b3461061257600319604036820112610612576001600160401b0360243511610612576101a09060243536030112610612576000546001600160a01b0390811633148015614338575b61386190617de4565b6004356000526010602052339060016040600020015416036142e257600435600052601760205261389960ff60406000205416618466565b60043560005260106020526138bc60ff600f6040600020015460101c16156184ab565b6138ce610cfd60046024350180617e21565b6138e16024803501602435600401617e21565b90501561429f576138f9604460243501351515617e96565b61390a606460243501351515617ee1565b61391e608460243501602435600401618049565b9050156142615761393960a460243501602435600401618049565b90501561422457613957610dbe60c460243501602435600401618049565b6139706005610de060c460243501602435600401618049565b60e46024350135156141e4576101046024350135156141a0576139a1610d6b61014460243501602435600401617e21565b6139b9610d8c61016460243501602435600401617e21565b6139cb61012460243501351515617f2c565b6139dd61018460243501351515618000565b6139ec60046024350180617e21565b6004356000908152601060205260409020600201906001600160401b03811161146957613a1d8161214b84546171ea565b600092601f8211600114614137579281929360009261412c575b50508160011b916000199060031b1c19161790555b613a5f6024803501602435600401617e21565b6004356000908152601060205260409020600301906001600160401b03811161146957613a908161214b84546171ea565b600092601f82116001146140c357928192936000926140b8575b50508160011b916000199060031b1c19161790555b600435600052601060205260406000206044602435013560048201556064602435013560058201556006613afd608460243501602435600401618049565b9190920191613b0c8284618269565b60009283526020832090805b838510613fd557613b3360a460243501602435600401618049565b6004356000526010602052600760406000200191613b518284618269565b60009283526020832090805b838510613ef257613b7860c460243501602435600401618049565b6004356000526010602052600860406000200191613b968284618269565b60009283526020832090805b838510613e095760e46024350135600052600e602052613bdb6001604060002001600435600052601060205260096040600020016184ec565b6101046024350135600052600f602052613c0e60016040600020016004356000526010602052600a6040600020016184ec565b613c2361014460243501602435600401617e21565b6004356000908152601060205260409020600c01906001600160401b03811161146957613c548161214b84546171ea565b600092601f8211600114613da05792819293600092613d95575b50508160011b916000199060031b1c19161790555b613c9861016460243501602435600401617e21565b6004356000908152601060205260409020600d01906001600160401b03811161146957613cc98161214b84546171ea565b6000601f8211600114613d3057819293600092613d25575b50508160011b916000199060031b1c19161790555b600435600052601060205260406000206101246024350135600b820155600e6101846024350135910155600080f35b013590508380613ce1565b601f198216938360005260206000209160005b868110613d7d5750836001959610613d63575b505050811b019055613cf6565b0135600019600384901b60f8161c19169055838080613d56565b90926020600181928686013581550194019101613d43565b013590508380613c6e565b826000526020600020906000945b601f1984168610613df157600194955083601f19811610613dd7575b505050811b019055613c83565b0135600019600384901b60f8161c19169055838080613dca565b91602060018192858501358155019301950194613dae565b613e138183617e21565b906001600160401b03821161146957613e3682613e3087546171ea565b87617c38565b600090601f8311600114613e82579282600194936020938695600092613e77575b5050600019600383901b1c191690841b1786555b01930194019391613ba2565b013590508a80613e57565b8560005260206000209160005b601f1985168110613eda575083602093600196938796938794601f19811610613ec0575b505050811b018655613e6b565b0135600019600384901b60f8161c191690558a8080613eb3565b90926020600181928686013581550194019101613e8f565b613efc8183617e21565b906001600160401b03821161146957613f1982613e3087546171ea565b600090601f8311600114613f65579282600194936020938695600092613f5a575b5050600019600383901b1c191690841b1786555b01930194019391613b5d565b013590508a80613f3a565b8560005260206000209160005b601f1985168110613fbd575083602093600196938796938794601f19811610613fa3575b505050811b018655613f4e565b0135600019600384901b60f8161c191690558a8080613f96565b90926020600181928686013581550194019101613f72565b613fdf8183617e21565b906001600160401b03821161146957613ffc82613e3087546171ea565b600090601f831160011461404857928260019493602093869560009261403d575b5050600019600383901b1c191690841b1786555b01930194019391613b18565b013590508a8061401d565b8560005260206000209160005b601f19851681106140a0575083602093600196938796938794601f19811610614086575b505050811b018655614031565b0135600019600384901b60f8161c191690558a8080614079565b90926020600181928686013581550194019101614055565b013590508380613aaa565b826000526020600020906000945b601f198416861061411457600194955083601f198116106140fa575b505050811b019055613abf565b0135600019600384901b60f8161c191690558380806140ed565b916020600181928585013581550193019501946140d1565b013590508380613a37565b826000526020600020906000945b601f198416861061418857600194955083601f1981161061416e575b505050811b019055613a4c565b0135600019600384901b60f8161c19169055838080614161565b91602060018192858501358155019301950194614145565b60405162461bcd60e51b815260206004820152601c60248201527b5375622d63617465676f72792063616e6e6f7420626520656d70747960201b6044820152606490fd5b60405162461bcd60e51b815260206004820152601860248201527743617465676f72792063616e6e6f7420626520656d70747960401b6044820152606490fd5b60405162461bcd60e51b815260206004820152601560248201527453697a65732063616e6e6f7420626520656d70747960581b6044820152606490fd5b60405162461bcd60e51b8152602060048201526016602482015275436f6c6f72732063616e6e6f7420626520656d70747960501b6044820152606490fd5b60405162461bcd60e51b815260206004820152601b60248201527a4465736372697074696f6e2063616e6e6f7420626520656d70747960281b6044820152606490fd5b60405162461bcd60e51b815260206004820152602860248201527f4f6e6c79207468652073656c6c65722063616e20757064617465207468656972604482015267081c1c9bd91d58dd60c21b6064820152608490fd5b5033600052601660205260ff6040600020541680156138585750601360205260ff6040600020541660048110156106e257600214613858565b346106125760a0366003190112610612576004356001600160401b038111610612576143a190369060040161715b565b6024356001600160401b038111610612576143c090369060040161715b565b6044356001600160401b038111610612576143df90369060040161715b565b6064356001600160401b038111610612576143fe90369060040161715b565b906084356001600160401b0381116106125761441e90369060040161715b565b6000549093906001600160a01b031633036149a0575b8451156149625761444782511515617ba7565b61445383511515617be4565b604051946144608661705f565b855260208501526040840152606083015260808201524260a0820152600160c082015233600052600d6020526040600020815191825160018060401b038111611469576144b181611bf885546171ea565b6020601f82116001146148fa57819293946000926148ef575b50508160011b916000199060031b1c19161782555b602081015180519092906001600160401b038111611469576145118161450860018501546171ea565b60018501617c38565b6020601f82116001146148815781929394600092614876575b50508160011b916000199060031b1c19161760018201555b604082015180519092906001600160401b038111611469576145748161456b60028601546171ea565b60028601617c38565b6020601f821160011461480857819293946000926147fd575b50508160011b916000199060031b1c19161760028301555b606081015180519092906001600160401b038111611469576145ce8161108b60038501546171ea565b6020601f821160011461478f5781929394600092614784575b50508160011b916000199060031b1c19161760038201555b6080820151805190929060048301906001600160401b0381116114695761462a8161214b84546171ea565b6020601f82116001146147145791816006949260c09461467698600092614709575b50508160011b916000199060031b1c19161790555b60a08101516005850155015115159101617a4a565b336000818152601660205260408120805460ff19166001179055546001600160a01b0316036146ff576146b460025b60136020526040600020617c7f565b6146bd33619807565b156146f1575b6040514281527fa1a1a78ff3033d5ee8393372052aeb2a16bbb347a29f3780370e9506c109e37260203392a2005b6146fa33617c97565b6146c3565b6146b460016146a5565b01519050888061464c565b601f198216958360005260206000209660005b81811061476c5750926146769760c09593600193836006999710614753575b505050811b019055614661565b015160001960f88460031b161c19169055888080614746565b83830151895560019098019760209384019301614727565b0151905084806145e7565b6003830160005260206000209060005b601f19841681106147e55750600193949583601f198116106147cc575b505050811b0160038201556145ff565b015160001960f88460031b161c191690558480806147bc565b9091602060018192858a01518155019301910161479f565b01519050848061458d565b6002840160005260206000209060005b601f198416811061485e5750600193949583601f19811610614845575b505050811b0160028301556145a5565b015160001960f88460031b161c19169055848080614835565b9091602060018192858a015181550193019101614818565b01519050848061452a565b6001830160005260206000209060005b601f19841681106148d75750600193949583601f198116106148be575b505050811b016001820155614542565b015160001960f88460031b161c191690558480806148ae565b9091602060018192858a015181550193019101614891565b0151905084806144ca565b8360005260206000209060005b601f198416811061494a5750600193949583601f19811610614931575b505050811b0182556144df565b015160001960f88460031b161c19169055848080614924565b9091602060018192858a015181550193019101614907565b60405162461bcd60e51b8152602060048201526016602482015275109d5cda5b995cdcc81b985b59481c995c5d5a5c995960521b6044820152606490fd5b33600052601660205260ff60406000205416156144345760405162461bcd60e51b8152602060048201526012602482015271105b1c9958591e481c9959da5cdd195c995960721b6044820152606490fd5b34610612576040366003190112610612576001600160401b0360043560243582811161061257614a2590369060040161715b565b614a2d6176a0565b81600052602090600e825260406000205415614bca57614a4f815115156189ad565b614a5a601f546188ee565b80601f5560405190614a6b8261707a565b80825283820183815260408301908682526060840192600190818552600052600f875260406000209451855580850191518051998a1161146957614ab38a611bf885546171ea565b8790601f8b11600114614b4d5799808060039694614b09999896946000805160206199168339815191529c9d9e600094614b42575b50501b9160001990871b1c19161790555b5160028401555115159101617a4a565b83600052600e8352614b256003604060002001601f54906183e6565b601f5492614b3d604051928284938452830190616d0c565b0390a3005b015192508e80614ae8565b9990601f1982169a84600052896000209b60005b818110614bb557509b60039694928492614b099a9997956000805160206199168339815191529d9e9f10614b9d575b505050811b019055614af9565b015160001983891b60f8161c191690558c8080614b90565b838301518e559c85019c928b01928b01614b61565b60405162461bcd60e51b815260048101839052601e60248201527f506172656e742063617465676f727920646f6573206e6f7420657869737400006044820152606490fd5b3461061257602036600319011261061257600435600052601060205260406000208054600160a01b600190036001830154169160405180806002840190614c5591617224565b03614c6090826170e6565b60405180614c718160038601617224565b03614c7c90826170e6565b600483015460058401549060405180806009880190614c9a91617224565b03614ca590826170e6565b6040519081614cb781600a8a01617224565b03614cc290836170e6565b600b87015492604051948580600c8b0190614cdc91617224565b03614ce790876170e6565b6040519687614cf981600d8d01617224565b03614d0490896170e6565b600e8a015499600f0154986040519c8d9c8d5260208d01528b6101e06040819201528c01614d3191616d0c565b8b810360608d0152614d4291616d0c565b9160808b015260a08a015288810360c08a0152614d5e91616d0c565b87810360e0890152614d6f91616d0c565b90610100870152858103610120870152614d8891616d0c565b848103610140860152614d9a91616d0c565b9161016084015260ff811615156101808401528060081c60ff1615156101a084015260101c60ff1615156101c08301520390f35b3461061257600036600319011261061257614de76176a0565b600080546001600160a01b0319811682556001600160a01b03166000805160206198d68339815191528280a3005b34610612576020366003190112610612576001600160a01b03614e36616ffb565b168015614e555760005260056020526020604060002054604051908152f35b60405162461bcd60e51b815260206004820152602960248201527f4552433732313a2061646472657373207a65726f206973206e6f7420612076616044820152683634b21037bbb732b960b91b6064820152608490fd5b346106125760208060031936011261061257614ec6616ffb565b604051614ed281617095565b61038a6060928383528385840152836040840152600084840152600060808094015260018060a01b03169182600052601a855260ff6040600020541693846000146150375783600052601b8652604060002060ff600460405192614f3584617095565b604051614f46816103fb8185617224565b8452604051614f5c816103fb8160018601617224565b8a850152604051614f74816103fb8160028601617224565b6040850152600381015485850152015416151583820152935b6000526016865260ff604060002054168060001461502f576013875260ff60406000205416925b61500c6040519889981515895282818a0152614ff7614fdf895160a0868d01526101208c0190616d0c565b9189015191607f1992838c83030160a08d0152616d0c565b906040890151908a83030160c08b0152616d0c565b958381015160e089015201511515610100870152151560408601528401906174a0565b600092614fb4565b60405161504381617095565b60405161504f816170cb565b600081528152604051615061816170cb565b6000815287820152604051615075816170cb565b60008152604082015260008282015260008382015293614f8d565b3461061257600036600319011261061257600080601c54905b81811061517557506150ba8261819a565b916150c860405193846170e6565b8083526150d7601f199161819a565b01602090368285013760009060005b8381106150fb576040518061038a87826174f6565b615104816174ad565b60018060a01b0391549060031b1c1680600052601a835260ff80604060002054169081615161575b50615141575b5061513c906188ee565b6150e6565b8361515a9161515461513c94968961894d565b526188ee565b9290615132565b90506016845260406000205416158761512c565b61517e816174ad565b60018060a01b0391549060031b1c166000526020601a815260ff806040600020541691826151d1575b50506151bc575b6151b7906188ee565b6150a9565b916151c96151b7916188ee565b9290506151ae565b601691925052604060002054161584806151a7565b3461061257602036600319011261061257600435600052600f60205260406000206040516152138161707a565b815481526040519061522c826133ee8160018701617224565b6020810191825260ff6003600285015494604084019586520154169060608101911515825261525d81511515618a79565b5191519251905115156152826040519485948552608060208601526080850190616d0c565b91604084015260608301520390f35b346106125761529f366171ab565b6152aa9291926176a0565b81600052602092600e84526152c56040600020541515618a13565b6152d181511515618961565b6000838152600e855260409020815194906001908101906001600160401b038711611469576153048761214b84546171ea565b82601f881160011461537257968080600e9594936000805160206198b6833981519152999a600093615367575b501b916000199060031b1c19161790555b8560005252615358826002604060002001617a4a565b611caf60405192839283618a59565b88015192508b615331565b96601f1981169783600052846000209860005b8181106153d25750988291600e969594936000805160206198b68339815191529a9b106153b9575b5050811b019055615342565b87015160001960f88460031b161c1916905589806153ad565b878301518b5599840199918601918601615385565b600319604036820112610612576024906001600160401b03823511610612576101009082353603011261061257600260015414615ba5576002600155600435600052601760205261543f60ff60406000205416618466565b600435600052601060205261546260ff600f6040600020015460101c16156184ab565b600435600052601060205260018060a01b0360016040600020015416600052601360205260ff604060002054166004811015615b9057600203615b5357600435600052601060205260056040600020015415615b1557600435600052601060205260ff600f6040600020015416615ad457600435600052601060205260018060a01b03600160406000200154163314615a9257615503600482350180617e21565b905015615a595761551b818035018235600401617e21565b905015615a1b5761553460448235018235600401617e21565b9050156159e75761554d60648235018235600401617e21565b9050156159b25761556660848235018235600401617e21565b90501561597b5761557f60a48235018235600401617e21565b905015615940576155a461559b60c48335018335600401617e21565b90501515617be4565b6155c26155b960e48335018335600401617e21565b90501515617ba7565b6004356000526010602052600460406000200154908134106159075760043560005260106020526005604060002001805480156158f257600019019055600435600052601060205260406000206005810154156158de575b600101546040516001600160a01b03909116919061563781617043565b6004823501356001600160401b0381116106125761565c90600436918535010161715b565b81526001600160401b0382358301351161061257615683368335808501350160040161715b565b60208201528135604401356001600160401b038111610612576156ad90600436918535010161715b565b60408201528135606401356001600160401b038111610612576156d790600436918535010161715b565b60608201528135608401356001600160401b0381116106125761570190600436918535010161715b565b6080820152813560a401356001600160401b0381116106125761572b90600436918535010161715b565b60a0820152813560c401356001600160401b0381116106125761575590600436918535010161715b565b60c0820152813560e40135906001600160401b038211610612576157836157ee92600436918635010161715b565b60e08201526040519061579582617043565b60043582528560208301528560408301524260608301523360808301528460a0830152600060c083015260e08201523360005260146020526157db816040600020618b88565b8360005260156020526040600020618b88565b81600052601260205260406000208054918483018093116158ca57505560405182815282602082015242604082015233907f45280c7ac9cec77edd454e39e1641a3e22619146cf074a4239beee86a7c07edc606060043592a460016009540160095561585a8134618b2e565b806158ba575b50600435600052601060205260018060a01b03600160406000200154169060405190815242602082015233907fbe6177108f4df43c5d7be79cb219c969fc97915bbdb4b56d14d391dcdcc16060604060043592a460018055005b6158c49033619771565b81615860565b634e487b7160e01b60009081526011600452fd5b600f8101805460ff1916600117905561561a565b82634e487b7160e01b60005260116004526000fd5b60649060126040519162461bcd60e51b83526020600484015282015271496e73756666696369656e742066756e647360701b6044820152fd5b60649060146040519162461bcd60e51b83526020600484015282015273141bdcdd185b0818dbd919481c995c5d5a5c995960621b6044820152fd5b60649060106040519162461bcd60e51b8352602060048401528201526f10dbdd5b9d1c9e481c995c5d5a5c995960821b6044820152fd5b606490600e6040519162461bcd60e51b8352602060048401528201526d14dd185d19481c995c5d5a5c995960921b6044820152fd5b606490600d6040519162461bcd60e51b8352602060048401528201526c10da5d1e481c995c5d5a5c9959609a1b6044820152fd5b60649060176040519162461bcd60e51b8352602060048401528201527614dd1c99595d081859191c995cdcc81c995c5d5a5c9959604a1b6044820152fd5b60649060126040519162461bcd60e51b83526020600484015282015271119d5b1b081b985b59481c995c5d5a5c995960721b6044820152fd5b606490601b6040519162461bcd60e51b8352602060048401528201527a10d85b9b9bdd08189d5e481e5bdd5c881bdddb881c1c9bd91d58dd602a1b6044820152fd5b606490601a6040519162461bcd60e51b83526020600484015282015279141c9bd91d58dd081a5cc8185b1c9958591e481cdbdb191bdd5d60321b6044820152fd5b60649060176040519162461bcd60e51b8352602060048401528201527650726f64756374206973206f7574206f662073746f636b60481b6044820152fd5b60649060166040519162461bcd60e51b8352602060048401528201527514d95b1b195c881a5cc81b9bdd081d995c9a599a595960521b6044820152fd5b50634e487b7160e01b60009081526021600452fd5b606490601f6040519162461bcd60e51b8352602060048401528201527f5265656e7472616e637947756172643a207265656e7472616e742063616c6c006044820152fd5b34610612576020366003190112610612576020615c0760043561773f565b6040516001600160a01b039091168152f35b34610612576020366003190112610612576001600160a01b03615c3a616ffb565b1660005260126020526020604060002054604051908152f35b3461061257602036600319011261061257600435615c6f6176a0565b60648111615c7c57600b55005b60405162461bcd60e51b8152602060048201526012602482015271496e76616c69642070657263656e7461676560701b6044820152606490fd5b3461061257600036600319011261061257604051600c805480835260009182526020808401939260008051602061985683398151915292915b828210615d125761038a85615d06818903826170e6565b604051918291826174f6565b83546001600160a01b031686529485019460019384019390910190615cef565b3461061257602036600319011261061257600435601c5481101561061257615d5b6020916174ad565b905460405160039290921b1c6001600160a01b03168152f35b3461061257600036600319011261061257615d8d6176a0565b60018060a01b0360005416806000526016602052604060002090815460ff811615615db457005b6108c292600160ff1980931617905560136020526002604060002091825416179055617c97565b34610612576020366003190112610612576001600160a01b03615dfc616ffb565b166000526013602052602060ff604060002054166108f460405180926174a0565b346106125760208060031936011261061257615e37616ffb565b615e3f617d72565b506001600160a01b03166000818152601683526040902054615e639060ff16617d2e565b600052600d815260406000209060ff600660405193615e818561705f565b604051615e92816103fb8185617224565b8552604051615ea8816103fb8160018601617224565b84860152604051615ec0816103fb8160028601617224565b6040860152604051615ed9816103fb8160038601617224565b6060860152604051615ef2816103fb8160048601617224565b6080860152600581015460a0860152015416151560c083015261038a604051928284938452830190617420565b34610612576108c2615f3036617176565b9060405192615f3e846170cb565b600084526177eb565b34610612576000366003190112610612576108c2619264565b3461061257602080600319360112610612576001600160a01b039081615f84616ffb565b16600052601581526040600020805490615f9d8261819a565b92615fab60405194856170e6565b82845260009182528082208185015b848410615fcf576040518061038a8882617362565b600e83600192604051615fe181617043565b85548152848601548382015260028601546040820152600386015460608201528a600487015416608082015260ff600587015460a08d8216818501521c16151560c082015261603260068701617556565b60e0820152815201920193019290615fba565b34610612576020366003190112610612576001600160a01b03616066616ffb565b16600052601b6020526160d9604060002060405190616089826133ee8184617224565b60405161609d816103fb8160018601617224565b6160f56040516160b4816103fb8160028801617224565b6160e760ff60046003870154960154169360405197889760a0895260a0890190616d0c565b908782036020890152616d0c565b908582036040870152616d0c565b916060840152151560808301520390f35b3461061257616114366171ab565b61611f9291926176a0565b81600052602092600f845261613a6040600020541515618a79565b616146815115156189ad565b6000838152600f855260409020815194906001908101906001600160401b038711611469576161798761214b84546171ea565b82601f88116001146161d857968080600f959493600080516020619936833981519152999a6000936161cd575b501b916000199060031b1c19161790555b8560005252615358826003604060002001617a4a565b88015192508b6161a6565b96601f1981169783600052846000209860005b8181106162385750988291600f969594936000805160206199368339815191529a9b1061621f575b5050811b0190556161b7565b87015160001960f88460031b161c191690558980616213565b878301518b55998401999186019186016161eb565b3461061257604036600319011261061257602460006004358235825b826000526010602081815281604060002001805484101561645f5761628f848692618b6c565b5054146162a65750506162a1906188ee565b616269565b91939450916000526018815260ff9384604060002054161561642357806000528282526162d98484604060002001618b6c565b50600190810154909590336001600160a01b0391821614908115616415575b50156163c0578160005283835260046163178686604060002001618b6c565b50015416616383579180600494926163389460005252604060002001618b6c565b5001805460ff1916821790555b1561634c57005b60649060106040519162461bcd60e51b8352602060048401528201526f14995d9a595dc81b9bdd08199bdd5b9960821b6044820152fd5b60405162461bcd60e51b8152600481018390526016818801527514995d9a595dc8185b1c9958591e4819195b195d195960521b6044820152606490fd5b60405162461bcd60e51b8152600481018490526028818901527f4f6e6c79207265766965776572206f72206f776e65722063616e2064656c6574604482015267652072657669657760c01b6064820152608490fd5b6000541633149050886162f8565b60405162461bcd60e51b8152600481018390526015818801527414995d9a595dc8191bd95cc81b9bdd08195e1a5cdd605a1b6044820152606490fd5b505050505050616345565b34610612576108c261647b36617176565b9161648e6164898433617886565b617789565b61794e565b34610612576020366003190112610612576004356164af6176a0565b80600052600f6020526164c86040600020541515618a79565b80600052600f6020526000805160206199368339815191526127f060406000206003810160ff198154169055604051918291604083526001604084019101617224565b3461061257606036600319011261061257602480356004356044356001600160401b0381116106125761654290369060040161715b565b90806000526020916010835260018060a01b036001604060002001541633146166b057831515806166a5575b15616661578051156166235790601092916001600a54019081600a55616592618b3b565b958287523385880152604087015260608601524260a0860152600052601882526040600020600160ff198254161790556000525260106040600020018054600160401b81101561660e576165eb91600182018155618b6c565b6165f9576108c292506182b2565b82634e487b7160e01b60005260006004526000fd5b83634e487b7160e01b60005260416004526000fd5b60405162461bcd60e51b81526004810184905260178187015276436f6d6d656e742063616e6e6f7420626520656d70747960481b6044820152606490fd5b60405162461bcd60e51b815260048101849052601e818701527f526174696e67206d757374206265206265747765656e203120616e64203500006044820152606490fd5b50600584111561656e565b60405162461bcd60e51b8152600481018490526026818701527f53656c6c65722063616e6e6f7420726576696577207468656972206f776e20706044820152651c9bd91d58dd60d21b6064820152608490fd5b346106125760003660031901126106125761671c6176a0565b336000526019602052604060002060018060a01b031981541690556000805160206198768339815191526040805133815260006020820152a1005b34610612576040366003190112610612576108c2616773617011565b6004356193fa565b34610612576020366003190112610612576001600160a01b0361679c616ffb565b16600052601a602052602060ff604060002054166040519015158152f35b34610612576040366003190112610612576167d3616ffb565b602435906001600160a01b0380806167ea8561773f565b169216918083146168e5578033149081156168c0575b501561685557600083815260066020526040902080546001600160a01b0319168317905561682d8361773f565b167f8c5be1e5ebec7d5bd14f71427d1e84f3dd0314c0f7b2291e5b200ac8c7c3b925600080a4005b60405162461bcd60e51b815260206004820152603d60248201527f4552433732313a20617070726f76652063616c6c6572206973206e6f7420746f60448201527f6b656e206f776e6572206f7220617070726f76656420666f7220616c6c0000006064820152608490fd5b9050600052600760205260406000203360005260205260ff6040600020541684616800565b60405162461bcd60e51b815260206004820152602160248201527f4552433732313a20617070726f76616c20746f2063757272656e74206f776e656044820152603960f91b6064820152608490fd5b34610612576020366003190112610612576020615c07600435617762565b3461061257600036600319011261061257604051600090600254616975816171ea565b808352600191808316908115613382575060011461699d5761038a83613314818703826170e6565b6002600090815260209450917f405787fa12a823e0f2b7631cc41b3ba8828b3321ca811111fa75cd3aa3bb5ace5b8284106169e45750505081019091019061331481613304565b80548585018701529285019281016169cb565b346106125760003660031901126106125760088054600060015b82811115616c305750616a23906188fd565b9060009260015b82811115616a40576040518061038a8682616f99565b8060005260106020818152604060002091600f8301549060ff938483831c161580616a7a575b505050505050616a75906188ee565b616a2a565b60409a969a5195616a8a87617027565b8254875260018301546001600160a01b031686880152604051616ab4816103fb8160028801617224565b6040880152604051616acd816103fb8160038801617224565b606088015260048301546080880152600583015460a0880152600694616af4868501618828565b60c0890152616b0560078501618828565b60e0890152616b158a8501618828565b610100890152604051616b2f816103fb8160098901617224565b610120890152604051616b49816103fb81600a8901617224565b610140890152600b840154610160890152604051616b6e816103fb81600c8901617224565b610180890152604051616b88816103fb81600d8901617224565b6101a0890152600e8401546101c089015281811615156101e0890152891c161515610200870152156102208601520190815491616bc48361819a565b93616bd260405195866170e6565b8385526000918252808220918186015b858210616c14575050505050509181616a7593610240616c08940152610564828861894d565b94908680808080616a66565b8483600192616c228761888d565b815201940191019092616be2565b8060005260ff601080602052600f60406000200154901c1615616c5c575b616c57906188ee565b616a11565b90616c69616c57916188ee565b919050616c4e565b346106125760203660031901126106125760043563ffffffff60e01b8116809103610612576020906380ac58cd60e01b8114908115616cce575b8115616cbd575b506040519015158152f35b6301ffc9a760e01b14905082616cb2565b635b5e139f60e01b81149150616cab565b34610612576020366003190112610612576020906004356000526018825260ff6040600020541615158152f35b919082519283825260005b848110616d38575050826000602080949584010152601f8019910116010190565b602081830181015184830182015201616d17565b908082519081815260208091019281808460051b8301019501936000915b848310616d7a5750505050505090565b9091929394958480616d98600193601f198682030187528a51616d0c565b9801930193019194939290616d6a565b908082519081815260208091019281808460051b8301019501936000915b848310616dd65750505050505090565b9091929394958480600192601f1985820301865289519081518152848060a01b0383830151168382015260408083015190820152616e236060808401519060c08091850152830190616d0c565b9160808082015115159083015260a0809101519101529801930193019194939290616dc6565b90616f96918051825260018060a01b036020820151166020830152616f50616f3c616f1d616f09616ef5616ee1616ecf616ea9616e9760408a015160408c61026091829101528c0190616d0c565b60608a01518b820360608d0152616d0c565b608089015160808b015260a089015160a08b015260c08901518a820360c08c0152616d4c565b60e088015189820360e08b0152616d4c565b6101008088015190898303908a0152616d4c565b610120808701519088830390890152616d0c565b610140808601519087830390880152616d0c565b6101608085015190860152610180808501519086830390870152616d0c565b6101a0808401519085830390860152616d0c565b916101c080830151908201526101e08083015115159082015261020080830151151590820152610220808301511515908201526102408092015191818403910152616da8565b90565b602080820190808352835180925260408301928160408460051b8301019501936000915b848310616fcd5750505050505090565b9091929394958480616feb600193603f198682030187528a51616e49565b9801930193019194939290616fbd565b600435906001600160a01b038216820361061257565b602435906001600160a01b038216820361061257565b61026081019081106001600160401b0382111761146957604052565b61010081019081106001600160401b0382111761146957604052565b60e081019081106001600160401b0382111761146957604052565b608081019081106001600160401b0382111761146957604052565b60a081019081106001600160401b0382111761146957604052565b60c081019081106001600160401b0382111761146957604052565b602081019081106001600160401b0382111761146957604052565b601f909101601f19168101906001600160401b0382119082101761146957604052565b6001600160401b03811161146957601f01601f191660200190565b92919261713082617109565b9161713e60405193846170e6565b829481845281830111610612578281602093846000960137010152565b9080601f8301121561061257816020616f9693359101617124565b6060906003190112610612576001600160a01b0390600435828116810361061257916024359081168103610612579060443590565b9060606003198301126106125760043591602435906001600160401b038211610612576171da9160040161715b565b9060443580151581036106125790565b90600182811c9216801561721a575b602083101461720457565b634e487b7160e01b600052602260045260246000fd5b91607f16916171f9565b9060009291805491617235836171ea565b9182825260019384811690816000146172975750600114617257575b50505050565b90919394506000526020928360002092846000945b838610617283575050505001019038808080617251565b80548587018301529401938590820161726c565b9294505050602093945060ff191683830152151560051b01019038808080617251565b616f969160e061735161733f61732d61731b6173096172f76172e58951610100808b528a0190616d0c565b60208a015189820360208b0152616d0c565b604089015188820360408a0152616d0c565b60608801518782036060890152616d0c565b60808701518682036080880152616d0c565b60a086015185820360a0870152616d0c565b60c085015184820360c0860152616d0c565b9201519060e0818403910152616d0c565b602080820190808352835180925260409283810182858560051b8401019601946000925b858410617397575050505050505090565b90919293949596858061740f600193603f198682030188528b51805182528381015184830152878101518883015260608082015190830152858060a01b0360808181840151169084015260a09081830151169083015260c08082015115159083015260e08091015191610100809282015201906172ba565b990194019401929594939190617386565b9060c08061748b617479617467617455617443885160e0895260e0890190616d0c565b602089015188820360208a0152616d0c565b60408801518782036040890152616d0c565b60608701518682036060880152616d0c565b60808601518582036080870152616d0c565b9360a081015160a08501520151151591015290565b9060048210156106e25752565b601c548110156174c857601c60005260206000200190600090565b634e487b7160e01b600052603260045260246000fd5b80548210156174c85760005260206000200190600090565b6020908160408183019282815285518094520193019160005b82811061751d575050505090565b83516001600160a01b03168552938101939281019260010161750f565b80548210156174c857600052600e602060002091020190600090565b90600760e060409361761e85519161756d83617043565b61074183978051617582816103fb8187617224565b85528051617597816103fb8160018801617224565b602086015280516175af816103fb8160028801617224565b8186015280516175c6816103fb8160038801617224565b606086015280516175de816103fb8160048801617224565b608086015280516175f6816103fb8160058801617224565b60a0860152805161760e816103fb8160068801617224565b60c0860152518096819301617224565b0152565b95929091616f969897959492875260208701526040860152606085015260018060a01b0380921660808501521660a0830152151560c0820152610100908160e082015201906172ba565b90815180825260208080930193019160005b82811061768c575050505090565b83518552938101939281019260010161767e565b6000546001600160a01b031633036176b457565b606460405162461bcd60e51b815260206004820152602060248201527f4f776e61626c653a2063616c6c6572206973206e6f7420746865206f776e65726044820152fd5b156176ff57565b60405162461bcd60e51b8152602060048201526018602482015277115490cdcc8c4e881a5b9d985b1a59081d1bdad95b88125160421b6044820152606490fd5b6000908152600460205260409020546001600160a01b0316616f968115156176f8565b61776e61281b82617a5b565b6000908152600660205260409020546001600160a01b031690565b1561779057565b60405162461bcd60e51b815260206004820152602d60248201527f4552433732313a2063616c6c6572206973206e6f7420746f6b656e206f776e6560448201526c1c881bdc88185c1c1c9bdd9959609a1b6064820152608490fd5b9061780f9392916177ff6164898433617886565b61780a83838361794e565b617aa8565b1561781657565b60405162461bcd60e51b81528061782f60048201617833565b0390fd5b60809060208152603260208201527f4552433732313a207472616e7366657220746f206e6f6e20455243373231526560408201527131b2b4bb32b91034b6b83632b6b2b73a32b960711b60608201520190565b906001600160a01b03808061789a8461773f565b169316918383149384156178cd575b5083156178b7575b50505090565b6178c391929350617762565b16143880806178b1565b909350600052600760205260406000208260005260205260ff6040600020541692386178a9565b156178fb57565b60405162461bcd60e51b815260206004820152602560248201527f4552433732313a207472616e736665722066726f6d20696e636f72726563742060448201526437bbb732b960d91b6064820152608490fd5b906179769161795c8461773f565b6001600160a01b03939184169284929091831684146178f4565b169182156179f957816179939161798c8661773f565b16146178f4565b6000805160206198f6833981519152600084815260066020526040812060018060a01b03199081815416905583825260056020526040822060001981540190558482526040822060018154019055858252600460205284604083209182541617905580a4565b60405162461bcd60e51b8152602060048201526024808201527f4552433732313a207472616e7366657220746f20746865207a65726f206164646044820152637265737360e01b6064820152608490fd5b9060ff801983541691151516179055565b6000908152600460205260409020546001600160a01b0316151590565b3d15617aa3573d90617a8982617109565b91617a9760405193846170e6565b82523d6000602084013e565b606090565b91926000929190813b15617b9d57602091617afe9185604051958680958194630a85bd0160e11b9b8c845233600485015260018060a01b0380951660248501526044840152608060648401526084830190616d0c565b0393165af190829082617b4e575b5050617b4057617b1a617a78565b80519081617b3b5760405162461bcd60e51b81528061782f60048201617833565b602001fd5b6001600160e01b0319161490565b909192506020813d8211617b95575b81617b6a602093836170e6565b81010312617b915751906001600160e01b031982168203617b8e5750903880617b0c565b80fd5b5080fd5b3d9150617b5d565b5050505050600190565b15617bae57565b60405162461bcd60e51b815260206004820152600e60248201526d115b585a5b081c995c5d5a5c995960921b6044820152606490fd5b15617beb57565b60405162461bcd60e51b815260206004820152600e60248201526d141a1bdb99481c995c5d5a5c995960921b6044820152606490fd5b818110617c2c575050565b60008155600101617c21565b9190601f8111617c4757505050565b617c73926000526020600020906020601f840160051c83019310617c75575b601f0160051c0190617c21565b565b9091508190617c66565b9060048110156106e25760ff80198354169116179055565b600c54600160401b811015611469576001810180600c558110156174c857600c6000526000805160206198568339815191520180546001600160a01b0319166001600160a01b03909216919091179055565b15617cf057565b60405162461bcd60e51b8152602060048201526016602482015275496e76616c69642073656c6c6572206164647265737360501b6044820152606490fd5b15617d3557565b60405162461bcd60e51b815260206004820152601560248201527414d95b1b195c881b9bdd081c9959da5cdd195c9959605a1b6044820152606490fd5b60405190617d7f8261705f565b600060c0836060808252806020830152806040830152808083015260808201528260a08201520152565b6001600160a01b0390811690617dc0821515617ce9565b600054168114617dde57600052601360205260ff6040600020541690565b50600290565b15617deb57565b60405162461bcd60e51b815260206004820152600e60248201526d139bdd08185d5d1a1bdc9a5e995960921b6044820152606490fd5b903590601e198136030182121561061257018035906001600160401b0382116106125760200191813603831361061257565b15617e5a57565b60405162461bcd60e51b81526020600482015260146024820152734e616d652063616e6e6f7420626520656d70747960601b6044820152606490fd5b15617e9d57565b60405162461bcd60e51b815260206004820152601c60248201527b05072696365206d7573742062652067726561746572207468616e20360241b6044820152606490fd5b15617ee857565b60405162461bcd60e51b815260206004820152601c60248201527b053746f636b206d7573742062652067726561746572207468616e20360241b6044820152606490fd5b15617f3357565b60405162461bcd60e51b815260206004820152601d60248201527f576569676874206d7573742062652067726561746572207468616e20300000006044820152606490fd5b15617f7f57565b60405162461bcd60e51b81526020600482015260156024820152744d6f64656c2063616e6e6f7420626520656d70747960581b6044820152606490fd5b15617fc357565b60405162461bcd60e51b81526020600482015260156024820152744272616e642063616e6e6f7420626520656d70747960581b6044820152606490fd5b1561800757565b60405162461bcd60e51b815260206004820152601a6024820152790534b55206d7573742062652067726561746572207468616e20360341b6044820152606490fd5b903590601e198136030182121561061257018035906001600160401b03821161061257602001918160051b3603831361061257565b1561808557565b60405162461bcd60e51b8152602060048201526016602482015275496d616765732063616e6e6f7420626520656d70747960501b6044820152606490fd5b156180ca57565b60405162461bcd60e51b815260206004820152601c60248201527b496d616765732063616e6e6f74206265206d6f7265207468616e203560201b6044820152606490fd5b6040519061811b82617027565b8161024060009182815282602082015260609283604083015283808301528060808301528060a08301528360c08301528360e08301528361010083015283610120830152836101408301528061016083015283610180830152836101a0830152806101c0830152806101e0830152806102008301526102208201520152565b6001600160401b0381116114695760051b60200190565b929190926181be8461819a565b916181cc60405193846170e6565b829480845260208094019060051b8301928284116106125780915b8483106181f657505050505050565b82356001600160401b038111610612578691618215868493860161715b565b8152019201916181e7565b61822a81546171ea565b9081618234575050565b81601f60009311600114618246575055565b908083918252618265601f60208420940160051c840160018501617c21565b5555565b90600160401b81116114695781549181815582821061828757505050565b600052602060002091820191015b8181106182a0575050565b806182ac600192618220565b01618295565b81518155602080830151600180840180546001600160a01b0319166001600160a01b03939093169290921790915560408401516002840155606084015180519394909390926003860192906001600160401b0383116114695761831f8361831986546171ea565b86617c38565b80601f841160011461837757509180809260a096959460059860009461836c575b50501b916000199060031b1c19161790555b6183656080820151151560048601617a4a565b0151910155565b015192503880618340565b91939495601f1984168660005283600020936000905b8282106183cf575050916005979593918560a0989694106183b6575b505050811b019055618352565b015160001960f88460031b161c191690553880806183a9565b80888697829497870151815501960194019061838d565b8054600160401b81101561146957618403916001820181556174de565b819291549060031b91821b91600019901b1916179055565b1561842257565b60405162461bcd60e51b815260206004820152601c60248201527b115490cdcc8c4e881d1bdad95b88185b1c9958591e481b5a5b9d195960221b6044820152606490fd5b1561846d57565b60405162461bcd60e51b8152602060048201526016602482015275141c9bd91d58dd08191bd95cc81b9bdd08195e1a5cdd60521b6044820152606490fd5b156184b257565b60405162461bcd60e51b8152602060048201526012602482015271141c9bd91d58dd081a5cc819195b195d195960721b6044820152606490fd5b908082146185c0576184fe81546171ea565b906001600160401b03821161146957819061851d8261831986546171ea565b600090601f831160011461855457600092618549575b50508160011b916000199060031b1c1916179055565b015490503880618533565b81526020808220858352818320935090601f1985169083905b8282106185a757505090846001959493921061858e575b505050811b019055565b015460001960f88460031b161c19169055388080618584565b849581929585015481556001809101960194019061856d565b5050565b156185cb57565b60405162461bcd60e51b815260206004820152602560248201527f4f6e6c792076657269666965642073656c6c6572206f72206f776e657220616c6044820152641b1bddd95960da1b6064820152608490fd5b60008054909291906001600160a01b039081163314618700573384526019602052604084205481169081156186aa57818552601360205260ff60408620541660048110156186965791617c7394959160026186849414928315618689575b5050506185c4565b618708565b541614905038808061867c565b634e487b7160e01b86526021600452602486fd5b9050601360205260ff60408520541660048110156186ec5793618684916002617c739596149182156186de575b50506185c4565b9091505416331438806186d7565b634e487b7160e01b85526021600452602485fd5b50617c739192505b906000918083526020926017845260409161872860ff8484205416618466565b8082526010855282822060010154336001600160a01b039182161490811561881b575b50156187c7578082526010855260ff600f848420015460101c1661878657600f939460109183525220016201000062ff000019825416179055565b825162461bcd60e51b815260048101869052601a602482015279141c9bd91d58dd081a5cc8185b1c9958591e4819195b195d195960321b6044820152606490fd5b825162461bcd60e51b815260048101869052602760248201527f4f6e6c792070726f647563742073656c6c6572206f72206f776e65722063616e6044820152662064656c65746560c81b6064820152608490fd5b835416331490503861874b565b9081546188348161819a565b92604093618844855191826170e6565b828152809460208092019260005281600020906000935b85851061886a57505050505050565b6001848192845161887f816103fb818a617224565b81520193019401939161885b565b9060405161889a816170b0565b60a06005829480548452600180841b036001820154166020850152600281015460408501526040516188d3816103fb8160038601617224565b606085015260ff600482015416151560808501520154910152565b60001981146114535760010190565b906189078261819a565b61891460405191826170e6565b8281528092618925601f199161819a565b019060005b82811061893657505050565b60209061894161810e565b8282850101520161892a565b80518210156174c85760209160051b010190565b1561896857565b60405162461bcd60e51b815260206004820152601d60248201527f43617465676f7279206e616d652063616e6e6f7420626520656d7074790000006044820152606490fd5b156189b457565b606460405162461bcd60e51b815260206004820152602060248201527f53756263617465676f7279206e616d652063616e6e6f7420626520656d7074796044820152fd5b908210156174c857618a0f9160051b810190617e21565b9091565b15618a1a57565b60405162461bcd60e51b815260206004820152601760248201527610d85d1959dbdc9e48191bd95cc81b9bdd08195e1a5cdd604a1b6044820152606490fd5b90618a71602091949394604084526040840190616d0c565b931515910152565b15618a8057565b60405162461bcd60e51b815260206004820152601a60248201527914dd5898d85d1959dbdc9e48191bd95cc81b9bdd08195e1a5cdd60321b6044820152606490fd5b9060405191828154918282526020928383019160005283600020936000905b828210618af757505050617c73925003836170e6565b855484526001958601958895509381019390910190618ae1565b60005b828110618b2057505050565b606082820152602001618b14565b9190820391821161145357565b60405190618b48826170b0565b600060a0838281528260208201528260408201526060808201528260808201520152565b80548210156174c8576000526006602060002091020190600090565b8054600160401b81101561146957618ba790600192838201815561753a565b92909261924e5780518355602080820151838501556040820151600285015560608201516003808601919091556080830151600480870180546001600160a01b0319166001600160a01b0393841617905560a08086015160058901805460c08901516001600160a81b0319909116929095169190911793151590911b60ff60a01b169290921790915560e0909301518051805191966001600160401b03959394919392600682019087811161923957618c648161214b84546171ea565b8084601f978883116001146191d7576000926191cc575b505060001982891b1c191690891b1790555b6007810182890151805190888211618f96578190618caf8261831986546171ea565b859088831160011461916a5760009261915f575b505060001982891b1c191690891b1790555b600881016040890151805190888211618f96578190618cf88261831986546171ea565b85908883116001146190fd576000926190f2575b505060001982891b1c191690891b1790555b600981016060890151805190888211618f96578190618d418261831986546171ea565b859088831160011461909057600092619085575b505060001982891b1c191690891b1790555b600a81016080890151805190888211618f96578190618d8a8261831986546171ea565b859088831160011461902357600092619018575b505060001982891b1c191690891b1790555b600b810160a0890151805190888211618f96578190618dd38261831986546171ea565b8590888311600114618fb657600092618fab575b505060001982891b1c191690891b1790555b600c810160c0890151805190888211618f9657618e1a82611bf885546171ea565b8490878311600114618f29579180600d949260e09694600092618f1e575b5050600019828b1b1c1916908b1b1790555b01970151918251958611618f095750618e6d85618e6789546171ea565b89617c38565b80928511600114618ea35750938394918492600095618e98575b50501b92600019911b1c1916179055565b015193503880618e87565b92919084601f1981168860005285600020956000905b89838310618eef5750505010618ed5575b50505050811b019055565b01519060f884600019921b161c1916905538808080618eca565b858701518955909701969485019488935090810190618eb9565b604190634e487b7160e01b6000525260246000fd5b015190503880618e38565b8a9291601f1983169185600052876000209260005b89828210618f805750509160e09795939185600d98969410618f68575b505050811b019055618e4a565b0151600019838d1b60f8161c19169055388080618f5b565b8385015186558f97909501949384019301618f3e565b604186634e487b7160e01b6000525260246000fd5b015190503880618de7565b908b9350601f1983169185600052876000209260005b898282106190025750508411618fea575b505050811b019055618df9565b0151600019838b1b60f8161c19169055388080618fdd565b8385015186558f97909501949384019301618fcc565b015190503880618d9e565b908b9350601f1983169185600052876000209260005b8982821061906f5750508411619057575b505050811b019055618db0565b0151600019838b1b60f8161c1916905538808061904a565b8385015186558f97909501949384019301619039565b015190503880618d55565b908b9350601f1983169185600052876000209260005b898282106190dc57505084116190c4575b505050811b019055618d67565b0151600019838b1b60f8161c191690553880806190b7565b8385015186558f979095019493840193016190a6565b015190503880618d0c565b908b9350601f1983169185600052876000209260005b898282106191495750508411619131575b505050811b019055618d1e565b0151600019838b1b60f8161c19169055388080619124565b8385015186558f97909501949384019301619113565b015190503880618cc3565b908b9350601f1983169185600052876000209260005b898282106191b6575050841161919e575b505050811b019055618cd5565b0151600019838b1b60f8161c19169055388080619191565b8385015186558f97909501949384019301619180565b015190503880618c7b565b908b9350601f1983169185600052876000209260005b89828210619223575050841161920b575b505050811b019055618c8d565b0151600019838b1b60f8161c191690553880806191fe565b8385015186558f979095019493840193016191ed565b604185634e487b7160e01b6000525260246000fd5b634e487b7160e01b600052600060045260246000fd5b600080546001600160a01b03929190831633146193125733815260196020526040812054831680156192dd57808252601360205260ff6040832054169360048510156192c95760026192c1949514928315618689575050506185c4565b617c73619319565b634e487b7160e01b83526021600452602483fd5b509091601360205260ff60408320541660048110156192c95790600261930d9392149182156186de5750506185c4565b6192c1565b509050617c735b60003381526012602052604081205480156193bc57600b5480820290828204036193a85790619374619352606461937a94048093618b2e565b33855260126020526040852085905584549092906001600160a01b0316619771565b33619771565b6040519081527f8ad64a0ac7700dd8425ab0499f107cb6e2cd1581d803c5b8c1c79dcb8190b1af60203392a2565b634e487b7160e01b83526011600452602483fd5b60405162461bcd60e51b81526020600482015260166024820152754e6f2062616c616e636520746f20776974686472617760501b6044820152606490fd5b6000805490939291906001600160a01b0390811633146194ac5733855260196020526040852054811690811561947957818652601360205260ff60408720541660048110156194655791617c7395969160026194609414928315618689575050506185c4565b6194b4565b634e487b7160e01b87526021600452602487fd5b9050601360205260ff60408620541660048110156186965794619460916002617c739697149182156186de5750506185c4565b50617c739293505b600091825b60018060a01b038083168060005260146020818152604092836000208054871015619763576194e9878a9261753a565b5054146195035750505050506194fe906188ee565b6194b9565b80919293949697985060005282825261951f858560002061753a565b509560ff60058098015460a01c1661972157816000528383528087619547888860002061753a565b500154163314908115619713575b50156196bc579061956f949392916000525260002061753a565b5001805460ff60a01b1916600160a01b17905560015b1561968257816000526020916010835260018060a01b039260019384936040828682600020015416866000905b6195d4575b5050600080516020619896833981519152949550519586521693a3565b81600052601580875283600020805483101561967b576195f5838a9261753a565b50541480619656575b619612575061960c906188ee565b876195b2565b6000805160206198968339815191529798509061963a9160059360005287528360002061753a565b5001805460ff60a01b1916600160a01b179055869594386195b7565b508260005280875285600461966e848760002061753a565b50015416868616146195fe565b50506195b7565b60405162461bcd60e51b8152602060048201526012602482015271141d5c98da185cd9481b9bdd08199bdd5b9960721b6044820152606490fd5b835162461bcd60e51b815260048101839052602a60248201527f4f6e6c792073656c6c6572206f72206f776e65722063616e206d61726b2061736044820152690819195b1a5d995c995960b21b6064820152608490fd5b600054163314905038619555565b845162461bcd60e51b815260048101849052601b60248201527a105b1c9958591e481b585c9ad95908185cc819195b1a5d995c9959602a1b6044820152606490fd5b505050505050509091619585565b6001600160a01b031680156197d057600080809381935af1619791617a78565b501561979957565b60405162461bcd60e51b815260206004820152600f60248201526e151c985b9cd9995c8819985a5b1959608a1b6044820152606490fd5b60405162461bcd60e51b815260206004820152600f60248201526e496e76616c6964206164647265737360881b6044820152606490fd5b600090600c8054925b8381106198205750505050600090565b6000828152602090208101546001600160a01b0384811691161461984c57619847906188ee565b619810565b5050505060019056fedf6966c971051c3d54ec59162606531493a51404a002842f56009d7e5cf4a8c732b449308c94e824ccedd9877932cd82f89a481c06c4643a0cb2914454a8c582f9dc8543b583e01f592678422369b2777e3649761f5808ae432cb1c24ca9438c79d3150b1760cd391f5006c9543aea088e4c9060f3e582ea0a948dc6649b25da8be0079c531659141344cd1fd0a4f28419497f9722a3daafe3b4186f6b6457e0ddf252ad1be2c89b69c2b068fc378daa952ba7f163c4a11628f55a4df523b3ef5a8a989e12f3ce7cf805b73156a361da5d8369f0c37173209308910b322117ac4cfca6396923c3eee68be58aa35fd6623ae5d67bb552da5e1de2e0d5854166dca164736f6c6343000813000a","opcodes":"PUSH1 0x80 CALLVALUE PUSH3 0x377 JUMPI PUSH1 0x1F SWAP1 PUSH1 0x1F NOT PUSH1 0x1 PUSH1 0x1 PUSH1 0x40 SHL SUB PUSH3 0x9D15 CODESIZE DUP2 SWAP1 SUB DUP6 DUP2 ADD DUP5 AND DUP6 ADD DUP4 DUP2 GT DUP7 DUP3 LT OR PUSH3 0x37C JUMPI DUP6 SWAP3 DUP3 SWAP2 PUSH1 0x40 MSTORE DUP4 CODECOPY PUSH1 0x20 SWAP5 DUP6 SWAP2 DUP2 ADD SUB SLT PUSH3 0x377 JUMPI MLOAD SWAP4 PUSH3 0x53 PUSH3 0x392 JUMP JUMPDEST SWAP3 PUSH1 0x7 DUP5 MSTORE PUSH7 0x48656D53686F7 PUSH1 0xCC SHL DUP6 DUP6 ADD MSTORE PUSH3 0x71 PUSH3 0x392 JUMP JUMPDEST PUSH1 0x3 DUP1 DUP3 MSTORE PUSH3 0x48737 PUSH1 0xEC SHL DUP8 DUP4 ADD MSTORE PUSH1 0x0 DUP1 SLOAD CALLER PUSH1 0x1 PUSH1 0x1 PUSH1 0xA0 SHL SUB NOT DUP3 AND DUP2 OR DUP4 SSTORE SWAP3 SWAP9 SWAP4 SWAP5 SWAP2 SWAP4 SWAP3 SWAP1 PUSH1 0x1 PUSH1 0x1 PUSH1 0xA0 SHL SUB AND PUSH32 0x8BE0079C531659141344CD1FD0A4F28419497F9722A3DAAFE3B4186F6B6457E0 DUP6 DUP1 LOG3 PUSH1 0x1 SWAP7 DUP8 DUP1 SSTORE DUP1 MLOAD SWAP1 DUP8 DUP3 GT PUSH3 0x363 JUMPI PUSH1 0x2 SLOAD DUP10 DUP2 DUP2 SHR SWAP2 AND DUP1 ISZERO PUSH3 0x358 JUMPI JUMPDEST DUP6 DUP3 LT EQ PUSH3 0x344 JUMPI SWAP1 DUP2 DUP9 DUP5 SWAP4 GT PUSH3 0x2F0 JUMPI JUMPDEST POP DUP5 SWAP1 DUP9 DUP4 GT PUSH1 0x1 EQ PUSH3 0x28E JUMPI DUP7 SWAP3 PUSH3 0x282 JUMPI JUMPDEST POP POP PUSH1 0x0 NOT DUP3 DUP12 SHL SHR NOT AND SWAP1 DUP9 SHL OR PUSH1 0x2 SSTORE JUMPDEST DUP4 MLOAD SWAP6 DUP7 GT PUSH3 0x26E JUMPI DUP8 SLOAD DUP8 DUP2 DUP2 SHR SWAP2 AND DUP1 ISZERO PUSH3 0x263 JUMPI JUMPDEST DUP4 DUP3 LT EQ PUSH3 0x24F JUMPI DUP6 DUP2 GT PUSH3 0x207 JUMPI JUMPDEST POP DUP2 SWAP5 DUP7 GT PUSH1 0x1 EQ PUSH3 0x1A2 JUMPI POP POP SWAP2 DUP4 SWAP5 SWAP2 DUP5 SWAP4 SWAP5 PUSH3 0x196 JUMPI JUMPDEST POP POP SHL SWAP2 PUSH1 0x0 NOT SWAP1 DUP5 SHL SHR NOT AND OR SWAP1 SSTORE JUMPDEST PUSH1 0xB SSTORE PUSH1 0x40 MLOAD PUSH2 0x9962 SWAP1 DUP2 PUSH3 0x3B3 DUP3 CODECOPY RETURN JUMPDEST ADD MLOAD SWAP3 POP CODESIZE DUP1 PUSH3 0x172 JUMP JUMPDEST DUP8 DUP4 MSTORE DUP2 DUP4 KECCAK256 SWAP5 SWAP4 SWAP3 DUP7 SWAP3 SWAP2 DUP4 AND SWAP2 JUMPDEST DUP9 DUP4 DUP4 LT PUSH3 0x1EC JUMPI POP POP POP LT PUSH3 0x1D3 JUMPI JUMPDEST POP POP POP DUP2 SHL ADD SWAP1 SSTORE PUSH3 0x183 JUMP JUMPDEST ADD MLOAD PUSH1 0x0 NOT DUP4 DUP7 SHL PUSH1 0xF8 AND SHR NOT AND SWAP1 SSTORE CODESIZE DUP1 DUP1 PUSH3 0x1C5 JUMP JUMPDEST DUP6 DUP8 ADD MLOAD DUP9 SSTORE SWAP1 SWAP7 ADD SWAP6 SWAP5 DUP6 ADD SWAP5 DUP8 SWAP4 POP SWAP1 DUP2 ADD SWAP1 PUSH3 0x1B2 JUMP JUMPDEST DUP9 DUP5 MSTORE DUP3 DUP5 KECCAK256 DUP7 DUP1 DUP10 ADD PUSH1 0x5 SHR DUP3 ADD SWAP3 DUP6 DUP11 LT PUSH3 0x245 JUMPI JUMPDEST ADD PUSH1 0x5 SHR ADD SWAP1 DUP9 SWAP1 JUMPDEST DUP3 DUP2 LT PUSH3 0x239 JUMPI POP POP PUSH3 0x156 JUMP JUMPDEST DUP6 DUP2 SSTORE ADD DUP9 SWAP1 PUSH3 0x229 JUMP JUMPDEST SWAP3 POP DUP2 SWAP3 PUSH3 0x220 JUMP JUMPDEST PUSH4 0x4E487B71 PUSH1 0xE0 SHL DUP5 MSTORE PUSH1 0x22 PUSH1 0x4 MSTORE PUSH1 0x24 DUP5 REVERT JUMPDEST SWAP1 PUSH1 0x7F AND SWAP1 PUSH3 0x144 JUMP JUMPDEST PUSH4 0x4E487B71 PUSH1 0xE0 SHL DUP4 MSTORE PUSH1 0x41 PUSH1 0x4 MSTORE PUSH1 0x24 DUP4 REVERT JUMPDEST ADD MLOAD SWAP1 POP CODESIZE DUP1 PUSH3 0x117 JUMP JUMPDEST SWAP1 DUP5 DUP12 SWAP5 AND SWAP2 PUSH1 0x2 DUP9 MSTORE DUP7 DUP9 KECCAK256 SWAP3 DUP9 JUMPDEST DUP9 DUP3 DUP3 LT PUSH3 0x2D9 JUMPI POP POP DUP5 GT PUSH3 0x2C0 JUMPI JUMPDEST POP POP POP DUP2 SHL ADD PUSH1 0x2 SSTORE PUSH3 0x12A JUMP JUMPDEST ADD MLOAD PUSH1 0x0 NOT DUP4 DUP14 SHL PUSH1 0xF8 AND SHR NOT AND SWAP1 SSTORE CODESIZE DUP1 DUP1 PUSH3 0x2B1 JUMP JUMPDEST DUP4 DUP6 ADD MLOAD DUP7 SSTORE DUP15 SWAP8 SWAP1 SWAP6 ADD SWAP5 SWAP4 DUP5 ADD SWAP4 ADD PUSH3 0x29E JUMP JUMPDEST SWAP1 SWAP2 POP PUSH1 0x2 DUP7 MSTORE DUP5 DUP7 KECCAK256 DUP9 DUP1 DUP6 ADD PUSH1 0x5 SHR DUP3 ADD SWAP3 DUP8 DUP7 LT PUSH3 0x33A JUMPI JUMPDEST SWAP2 DUP13 SWAP2 DUP7 SWAP6 SWAP5 SWAP4 ADD PUSH1 0x5 SHR ADD SWAP2 JUMPDEST DUP3 DUP2 LT PUSH3 0x32B JUMPI POP POP PUSH3 0x101 JUMP JUMPDEST DUP9 DUP2 SSTORE DUP6 SWAP5 POP DUP13 SWAP2 ADD PUSH3 0x31B JUMP JUMPDEST SWAP3 POP DUP2 SWAP3 PUSH3 0x30D JUMP JUMPDEST PUSH4 0x4E487B71 PUSH1 0xE0 SHL DUP7 MSTORE PUSH1 0x22 PUSH1 0x4 MSTORE PUSH1 0x24 DUP7 REVERT JUMPDEST SWAP1 PUSH1 0x7F AND SWAP1 PUSH3 0xEC JUMP JUMPDEST PUSH4 0x4E487B71 PUSH1 0xE0 SHL DUP6 MSTORE PUSH1 0x41 PUSH1 0x4 MSTORE PUSH1 0x24 DUP6 REVERT JUMPDEST PUSH1 0x0 DUP1 REVERT JUMPDEST PUSH4 0x4E487B71 PUSH1 0xE0 SHL PUSH1 0x0 MSTORE PUSH1 0x41 PUSH1 0x4 MSTORE PUSH1 0x24 PUSH1 0x0 REVERT JUMPDEST PUSH1 0x40 DUP1 MLOAD SWAP2 SWAP1 DUP3 ADD PUSH1 0x1 PUSH1 0x1 PUSH1 0x40 SHL SUB DUP2 GT DUP4 DUP3 LT OR PUSH3 0x37C JUMPI PUSH1 0x40 MSTORE JUMP INVALID PUSH1 0x80 DUP1 PUSH1 0x40 MSTORE PUSH1 0x4 CALLDATASIZE LT ISZERO PUSH2 0x13 JUMPI PUSH1 0x0 DUP1 REVERT JUMPDEST PUSH1 0x0 CALLDATALOAD PUSH1 0xE0 SHR SWAP1 DUP2 PUSH3 0xD64E76 EQ PUSH2 0x6CDF JUMPI POP DUP1 PUSH4 0x1FFC9A7 EQ PUSH2 0x6C71 JUMPI DUP1 PUSH4 0x2EE3A52 EQ PUSH2 0x69F7 JUMPI DUP1 PUSH4 0x6FDDE03 EQ PUSH2 0x6952 JUMPI DUP1 PUSH4 0x81812FC EQ PUSH2 0x6934 JUMPI DUP1 PUSH4 0x95EA7B3 EQ PUSH2 0x67BA JUMPI DUP1 PUSH4 0xE50CEE5 EQ PUSH2 0x677B JUMPI DUP1 PUSH4 0x11AA5B34 EQ PUSH2 0x6757 JUMPI DUP1 PUSH4 0x1385FD92 EQ PUSH2 0x6703 JUMPI DUP1 PUSH4 0x16D81B38 EQ PUSH2 0x650B JUMPI DUP1 PUSH4 0x17E98548 EQ PUSH2 0x6493 JUMPI DUP1 PUSH4 0x2148893F EQ PUSH2 0x5C19 JUMPI DUP1 PUSH4 0x23B872DD EQ PUSH2 0x646A JUMPI DUP1 PUSH4 0x24D41A03 EQ PUSH2 0x624D JUMPI DUP1 PUSH4 0x317A0827 EQ PUSH2 0x6106 JUMPI DUP1 PUSH4 0x332D56D7 EQ PUSH2 0x6045 JUMPI DUP1 PUSH4 0x3C2575D5 EQ PUSH2 0x5F60 JUMPI DUP1 PUSH4 0x3CCFD60B EQ PUSH2 0x5F47 JUMPI DUP1 PUSH4 0x42842E0E EQ PUSH2 0x5F1F JUMPI DUP1 PUSH4 0x4293E5CE EQ PUSH2 0x5E1D JUMPI DUP1 PUSH4 0x45DE84DB EQ PUSH2 0x5DDB JUMPI DUP1 PUSH4 0x4E213D20 EQ PUSH2 0x5D74 JUMPI DUP1 PUSH4 0x502AA3B5 EQ PUSH2 0x5D32 JUMPI DUP1 PUSH4 0x5AD6A580 EQ PUSH2 0x5CB6 JUMPI DUP1 PUSH4 0x5BE20959 EQ PUSH2 0x5C53 JUMPI DUP1 PUSH4 0x607EB4E4 EQ PUSH2 0x5C19 JUMPI DUP1 PUSH4 0x6352211E EQ PUSH2 0x5BE9 JUMPI DUP1 PUSH4 0x661E1712 EQ PUSH2 0x53E7 JUMPI DUP1 PUSH4 0x66224D8E EQ PUSH2 0x5291 JUMPI DUP1 PUSH4 0x6F2C8599 EQ PUSH2 0x51E6 JUMPI DUP1 PUSH4 0x6F68EF3A EQ PUSH2 0x5090 JUMPI DUP1 PUSH4 0x6F77926B EQ PUSH2 0x4EAC JUMPI DUP1 PUSH4 0x70A08231 EQ PUSH2 0x4E15 JUMPI DUP1 PUSH4 0x715018A6 EQ PUSH2 0x4DCE JUMPI DUP1 PUSH4 0x7ACC0B20 EQ PUSH2 0x4C0F JUMPI DUP1 PUSH4 0x7D3978DB EQ PUSH2 0x49F1 JUMPI DUP1 PUSH4 0x7E8555ED EQ PUSH2 0x4371 JUMPI DUP1 PUSH4 0x868A5461 EQ PUSH2 0x3810 JUMPI DUP1 PUSH4 0x8DA5CB5B EQ PUSH2 0x37E7 JUMPI DUP1 PUSH4 0x8F38CC7B EQ PUSH2 0x34C4 JUMPI DUP1 PUSH4 0x9196DFCB EQ PUSH2 0x33AA JUMPI DUP1 PUSH4 0x95D89B41 EQ PUSH2 0x32C8 JUMPI DUP1 PUSH4 0x97B6F393 EQ PUSH2 0x3157 JUMPI DUP1 PUSH4 0x9D4A2255 EQ PUSH2 0x2FC8 JUMPI DUP1 PUSH4 0x9FA44DBF EQ PUSH2 0x2F80 JUMPI DUP1 PUSH4 0xA22CB465 EQ PUSH2 0x2EB5 JUMPI DUP1 PUSH4 0xA22FB387 EQ PUSH2 0x2E0A JUMPI DUP1 PUSH4 0xA323D29E EQ PUSH2 0x2CB7 JUMPI DUP1 PUSH4 0xAF55ED64 EQ PUSH2 0x2C86 JUMPI DUP1 PUSH4 0xB27E1697 EQ PUSH2 0x2BA1 JUMPI DUP1 PUSH4 0xB88D4FDE EQ PUSH2 0x2B42 JUMPI DUP1 PUSH4 0xB95A0628 EQ PUSH2 0x2B07 JUMPI DUP1 PUSH4 0xB9DB15B4 EQ PUSH2 0x28ED JUMPI DUP1 PUSH4 0xC1302B34 EQ PUSH2 0x2895 JUMPI DUP1 PUSH4 0xC64B8A8F EQ PUSH2 0x2856 JUMPI DUP1 PUSH4 0xC87B56DD EQ PUSH2 0x27FC JUMPI DUP1 PUSH4 0xCECA737F EQ PUSH2 0x2778 JUMPI DUP1 PUSH4 0xD2BC9D78 EQ PUSH2 0x24CB JUMPI DUP1 PUSH4 0xD637DCFA EQ PUSH2 0x205E JUMPI DUP1 PUSH4 0xDADD0A57 EQ PUSH2 0x1D5E JUMPI DUP1 PUSH4 0xDC298682 EQ PUSH2 0x1B3D JUMPI DUP1 PUSH4 0xE01EF6E6 EQ PUSH2 0x1B1F JUMPI DUP1 PUSH4 0xE40971E5 EQ PUSH2 0xC9D JUMPI DUP1 PUSH4 0xE585CB2C EQ PUSH2 0xC0D JUMPI DUP1 PUSH4 0xE6A93E16 EQ PUSH2 0x94C JUMPI DUP1 PUSH4 0xE985E9C5 EQ PUSH2 0x8F6 JUMPI DUP1 PUSH4 0xEB11C434 EQ PUSH2 0x8C4 JUMPI DUP1 PUSH4 0xED90C7B7 EQ PUSH2 0x8A6 JUMPI DUP1 PUSH4 0xEE95FEAF EQ PUSH2 0x867 JUMPI DUP1 PUSH4 0xF2FDE38B EQ PUSH2 0x7B8 JUMPI DUP1 PUSH4 0xF3052D26 EQ PUSH2 0x6F8 JUMPI DUP1 PUSH4 0xF6B22FA7 EQ PUSH2 0x617 JUMPI PUSH4 0xFDCA4CA3 EQ PUSH2 0x341 JUMPI PUSH1 0x0 DUP1 REVERT JUMPDEST CALLVALUE PUSH2 0x612 JUMPI PUSH1 0x0 CALLDATASIZE PUSH1 0x3 NOT ADD SLT PUSH2 0x612 JUMPI PUSH1 0x8 DUP1 SLOAD PUSH1 0x0 PUSH1 0x1 JUMPDEST DUP3 DUP2 GT ISZERO PUSH2 0x5AC JUMPI POP PUSH2 0x36D SWAP1 PUSH2 0x88FD JUMP JUMPDEST SWAP1 PUSH1 0x0 SWAP3 PUSH1 0x1 JUMPDEST DUP3 DUP2 GT ISZERO PUSH2 0x38E JUMPI PUSH1 0x40 MLOAD DUP1 PUSH2 0x38A DUP7 DUP3 PUSH2 0x6F99 JUMP JUMPDEST SUB SWAP1 RETURN JUMPDEST PUSH1 0x0 DUP2 DUP2 MSTORE PUSH1 0x10 PUSH1 0x20 DUP2 DUP2 MSTORE PUSH1 0x40 SWAP1 SWAP3 KECCAK256 PUSH1 0x1 DUP2 ADD SLOAD PUSH1 0x1 PUSH1 0x1 PUSH1 0xA0 SHL SUB AND SWAP3 SWAP2 CALLER DUP5 EQ DUP1 PUSH2 0x59B JUMPI JUMPDEST PUSH2 0x3CF JUMPI JUMPDEST POP POP POP POP PUSH2 0x3CA SWAP1 PUSH2 0x88EE JUMP JUMPDEST PUSH2 0x374 JUMP JUMPDEST PUSH1 0x40 SWAP9 SWAP5 SWAP9 MLOAD SWAP4 PUSH2 0x3DF DUP6 PUSH2 0x7027 JUMP JUMPDEST DUP3 SLOAD DUP6 MSTORE DUP4 DUP6 ADD MSTORE PUSH1 0x40 MLOAD PUSH2 0x402 DUP2 PUSH2 0x3FB DUP2 PUSH1 0x2 DUP8 ADD PUSH2 0x7224 JUMP JUMPDEST SUB DUP3 PUSH2 0x70E6 JUMP JUMPDEST PUSH1 0x40 DUP6 ADD MSTORE PUSH1 0x40 MLOAD PUSH2 0x41B DUP2 PUSH2 0x3FB DUP2 PUSH1 0x3 DUP8 ADD PUSH2 0x7224 JUMP JUMPDEST PUSH1 0x60 DUP6 ADD MSTORE PUSH1 0x4 DUP3 ADD SLOAD PUSH1 0x80 DUP6 ADD MSTORE PUSH1 0x5 DUP3 ADD SLOAD PUSH1 0xA0 DUP6 ADD MSTORE PUSH1 0x6 SWAP2 PUSH2 0x442 DUP4 DUP3 ADD PUSH2 0x8828 JUMP JUMPDEST PUSH1 0xC0 DUP7 ADD MSTORE PUSH2 0x453 PUSH1 0x7 DUP3 ADD PUSH2 0x8828 JUMP JUMPDEST PUSH1 0xE0 DUP7 ADD MSTORE PUSH2 0x463 DUP8 DUP3 ADD PUSH2 0x8828 JUMP JUMPDEST PUSH2 0x100 DUP7 ADD MSTORE PUSH1 0x40 MLOAD PUSH2 0x47D DUP2 PUSH2 0x3FB DUP2 PUSH1 0x9 DUP7 ADD PUSH2 0x7224 JUMP JUMPDEST PUSH2 0x120 DUP7 ADD MSTORE PUSH1 0x40 MLOAD PUSH2 0x497 DUP2 PUSH2 0x3FB DUP2 PUSH1 0xA DUP7 ADD PUSH2 0x7224 JUMP JUMPDEST PUSH2 0x140 DUP7 ADD MSTORE PUSH1 0xB DUP2 ADD SLOAD PUSH2 0x160 DUP7 ADD MSTORE PUSH1 0x40 MLOAD PUSH2 0x4BC DUP2 PUSH2 0x3FB DUP2 PUSH1 0xC DUP7 ADD PUSH2 0x7224 JUMP JUMPDEST PUSH2 0x180 DUP7 ADD MSTORE PUSH1 0x40 MLOAD PUSH2 0x4D6 DUP2 PUSH2 0x3FB DUP2 PUSH1 0xD DUP7 ADD PUSH2 0x7224 JUMP JUMPDEST PUSH2 0x1A0 DUP7 ADD MSTORE PUSH1 0xE DUP2 ADD SLOAD PUSH2 0x1C0 DUP7 ADD MSTORE PUSH1 0xF DUP2 ADD SLOAD PUSH1 0xFF SWAP1 DUP2 DUP2 AND ISZERO ISZERO PUSH2 0x1E0 DUP9 ADD MSTORE DUP2 DUP2 DUP11 SHR AND ISZERO ISZERO PUSH2 0x200 DUP9 ADD MSTORE DUP4 SHR AND ISZERO ISZERO PUSH2 0x220 DUP7 ADD MSTORE ADD SWAP1 DUP2 SLOAD SWAP2 PUSH2 0x520 DUP4 PUSH2 0x819A JUMP JUMPDEST SWAP4 PUSH2 0x52E PUSH1 0x40 MLOAD SWAP6 DUP7 PUSH2 0x70E6 JUMP JUMPDEST DUP4 DUP6 MSTORE PUSH1 0x0 SWAP2 DUP3 MSTORE DUP1 DUP3 KECCAK256 SWAP2 DUP2 DUP7 ADD JUMPDEST DUP6 DUP3 LT PUSH2 0x57F JUMPI POP POP POP POP POP POP SWAP2 DUP2 PUSH2 0x3CA SWAP4 PUSH2 0x240 PUSH2 0x575 SWAP5 ADD MSTORE PUSH2 0x564 DUP3 DUP9 PUSH2 0x894D JUMP JUMPDEST MSTORE PUSH2 0x56F DUP2 DUP8 PUSH2 0x894D JUMP JUMPDEST POP PUSH2 0x88EE JUMP JUMPDEST SWAP5 SWAP1 CODESIZE DUP1 DUP1 PUSH2 0x3BD JUMP JUMPDEST DUP5 DUP4 PUSH1 0x1 SWAP3 PUSH2 0x58D DUP8 PUSH2 0x888D JUMP JUMPDEST DUP2 MSTORE ADD SWAP5 ADD SWAP2 ADD SWAP1 SWAP3 PUSH2 0x53E JUMP JUMPDEST POP PUSH1 0xFF PUSH1 0xF DUP4 ADD SLOAD DUP3 SHR AND ISZERO PUSH2 0x3B8 JUMP JUMPDEST PUSH1 0x0 DUP2 DUP2 MSTORE PUSH1 0x10 PUSH1 0x20 DUP2 SWAP1 MSTORE PUSH1 0x40 SWAP1 SWAP2 KECCAK256 PUSH1 0x1 DUP2 ADD SLOAD PUSH1 0x1 PUSH1 0x1 PUSH1 0xA0 SHL SUB AND CALLER EQ SWAP2 SWAP1 DUP3 PUSH2 0x5FF JUMPI JUMPDEST POP POP PUSH2 0x5EA JUMPI JUMPDEST PUSH2 0x5E5 SWAP1 PUSH2 0x88EE JUMP JUMPDEST PUSH2 0x35B JUMP JUMPDEST SWAP1 PUSH2 0x5F7 PUSH2 0x5E5 SWAP2 PUSH2 0x88EE JUMP JUMPDEST SWAP2 SWAP1 POP PUSH2 0x5DC JUMP JUMPDEST PUSH1 0xFF SWAP3 POP PUSH1 0xF ADD SLOAD SWAP1 SHR AND ISZERO CODESIZE DUP1 PUSH2 0x5D5 JUMP JUMPDEST PUSH1 0x0 DUP1 REVERT JUMPDEST CALLVALUE PUSH2 0x612 JUMPI PUSH1 0x20 CALLDATASIZE PUSH1 0x3 NOT ADD SLT PUSH2 0x612 JUMPI PUSH2 0x630 PUSH2 0x6FFB JUMP JUMPDEST PUSH2 0x638 PUSH2 0x76A0 JUMP JUMPDEST PUSH1 0x1 PUSH1 0x1 PUSH1 0xA0 SHL SUB AND PUSH1 0x0 DUP2 DUP2 MSTORE PUSH1 0x13 PUSH1 0x20 MSTORE PUSH1 0x40 SWAP1 KECCAK256 SLOAD PUSH1 0xFF AND PUSH1 0x4 DUP2 LT ISZERO PUSH2 0x6E2 JUMPI PUSH1 0x2 SUB PUSH2 0x6A3 JUMPI DUP1 PUSH1 0x0 MSTORE PUSH1 0x1D PUSH1 0x20 MSTORE PUSH1 0x40 PUSH1 0x0 KECCAK256 PUSH1 0x1 PUSH1 0xFF NOT DUP3 SLOAD AND OR SWAP1 SSTORE PUSH32 0xD6D6313FFAF8812D569798F401675AFAF93C3B25AB54BCCA87E1E612EF25C23B PUSH1 0x0 DUP1 LOG2 STOP JUMPDEST PUSH1 0x40 MLOAD PUSH3 0x461BCD PUSH1 0xE5 SHL DUP2 MSTORE PUSH1 0x20 PUSH1 0x4 DUP3 ADD MSTORE PUSH1 0x17 PUSH1 0x24 DUP3 ADD MSTORE PUSH23 0x14D95B1B195C881B5D5CDD081899481D995C9A599A5959 PUSH1 0x4A SHL PUSH1 0x44 DUP3 ADD MSTORE PUSH1 0x64 SWAP1 REVERT JUMPDEST PUSH4 0x4E487B71 PUSH1 0xE0 SHL PUSH1 0x0 MSTORE PUSH1 0x21 PUSH1 0x4 MSTORE PUSH1 0x24 PUSH1 0x0 REVERT JUMPDEST CALLVALUE PUSH2 0x612 JUMPI PUSH1 0x20 CALLDATASIZE PUSH1 0x3 NOT ADD SLT PUSH2 0x612 JUMPI PUSH1 0x4 CALLDATALOAD PUSH1 0x0 MSTORE PUSH1 0xE PUSH1 0x20 MSTORE PUSH1 0x40 PUSH1 0x0 KECCAK256 PUSH1 0x40 MLOAD PUSH2 0x725 DUP2 PUSH2 0x707A JUMP JUMPDEST DUP2 SLOAD DUP2 MSTORE PUSH2 0x38A PUSH1 0x40 MLOAD SWAP2 PUSH2 0x748 DUP4 PUSH2 0x741 DUP2 PUSH1 0x1 DUP9 ADD PUSH2 0x7224 JUMP JUMPDEST SUB DUP5 PUSH2 0x70E6 JUMP JUMPDEST PUSH1 0x20 DUP2 ADD SWAP3 DUP4 MSTORE PUSH2 0x76C PUSH1 0x3 PUSH1 0xFF PUSH1 0x2 DUP8 ADD SLOAD AND SWAP6 PUSH1 0x40 DUP5 ADD SWAP7 ISZERO ISZERO DUP8 MSTORE ADD PUSH2 0x8AC2 JUMP JUMPDEST SWAP1 PUSH1 0x60 DUP2 ADD SWAP2 DUP3 MSTORE PUSH2 0x780 DUP2 MLOAD ISZERO ISZERO PUSH2 0x8A13 JUMP JUMPDEST MLOAD SWAP3 MLOAD SWAP4 MLOAD ISZERO ISZERO SWAP1 MLOAD PUSH2 0x7A5 PUSH1 0x40 MLOAD SWAP6 DUP7 SWAP6 DUP7 MSTORE PUSH1 0x80 PUSH1 0x20 DUP8 ADD MSTORE PUSH1 0x80 DUP7 ADD SWAP1 PUSH2 0x6D0C JUMP JUMPDEST SWAP2 PUSH1 0x40 DUP6 ADD MSTORE DUP4 DUP3 SUB PUSH1 0x60 DUP6 ADD MSTORE PUSH2 0x766C JUMP JUMPDEST CALLVALUE PUSH2 0x612 JUMPI PUSH1 0x20 CALLDATASIZE PUSH1 0x3 NOT ADD SLT PUSH2 0x612 JUMPI PUSH2 0x7D1 PUSH2 0x6FFB JUMP JUMPDEST PUSH2 0x7D9 PUSH2 0x76A0 JUMP JUMPDEST PUSH1 0x1 PUSH1 0x1 PUSH1 0xA0 SHL SUB SWAP1 DUP2 AND SWAP1 DUP2 ISZERO PUSH2 0x813 JUMPI PUSH1 0x0 SLOAD DUP3 PUSH1 0x1 DUP1 PUSH1 0xA0 SHL SUB NOT DUP3 AND OR PUSH1 0x0 SSTORE AND PUSH1 0x0 DUP1 MLOAD PUSH1 0x20 PUSH2 0x98D6 DUP4 CODECOPY DUP2 MLOAD SWAP2 MSTORE PUSH1 0x0 DUP1 LOG3 STOP JUMPDEST PUSH1 0x40 MLOAD PUSH3 0x461BCD PUSH1 0xE5 SHL DUP2 MSTORE PUSH1 0x20 PUSH1 0x4 DUP3 ADD MSTORE PUSH1 0x26 PUSH1 0x24 DUP3 ADD MSTORE PUSH32 0x4F776E61626C653A206E6577206F776E657220697320746865207A65726F2061 PUSH1 0x44 DUP3 ADD MSTORE PUSH6 0x646472657373 PUSH1 0xD0 SHL PUSH1 0x64 DUP3 ADD MSTORE PUSH1 0x84 SWAP1 REVERT JUMPDEST CALLVALUE PUSH2 0x612 JUMPI PUSH1 0x20 CALLDATASIZE PUSH1 0x3 NOT ADD SLT PUSH2 0x612 JUMPI PUSH1 0x1 PUSH1 0x1 PUSH1 0xA0 SHL SUB PUSH2 0x888 PUSH2 0x6FFB JUMP JUMPDEST AND PUSH1 0x0 MSTORE PUSH1 0x1D PUSH1 0x20 MSTORE PUSH1 0x20 PUSH1 0xFF PUSH1 0x40 PUSH1 0x0 KECCAK256 SLOAD AND PUSH1 0x40 MLOAD SWAP1 ISZERO ISZERO DUP2 MSTORE RETURN JUMPDEST CALLVALUE PUSH2 0x612 JUMPI PUSH1 0x20 CALLDATASIZE PUSH1 0x3 NOT ADD SLT PUSH2 0x612 JUMPI PUSH2 0x8C2 PUSH1 0x4 CALLDATALOAD PUSH2 0x861E JUMP JUMPDEST STOP JUMPDEST CALLVALUE PUSH2 0x612 JUMPI PUSH1 0x20 CALLDATASIZE PUSH1 0x3 NOT ADD SLT PUSH2 0x612 JUMPI PUSH1 0x20 PUSH2 0x8E7 PUSH2 0x8E2 PUSH2 0x6FFB JUMP JUMPDEST PUSH2 0x7DA9 JUMP JUMPDEST PUSH2 0x8F4 PUSH1 0x40 MLOAD DUP1 SWAP3 PUSH2 0x74A0 JUMP JUMPDEST RETURN JUMPDEST CALLVALUE PUSH2 0x612 JUMPI PUSH1 0x40 CALLDATASIZE PUSH1 0x3 NOT ADD SLT PUSH2 0x612 JUMPI PUSH2 0x90F PUSH2 0x6FFB JUMP JUMPDEST PUSH2 0x917 PUSH2 0x7011 JUMP JUMPDEST SWAP1 PUSH1 0x1 DUP1 PUSH1 0xA0 SHL SUB DUP1 SWAP2 AND PUSH1 0x0 MSTORE PUSH1 0x7 PUSH1 0x20 MSTORE PUSH1 0x40 PUSH1 0x0 KECCAK256 SWAP2 AND PUSH1 0x0 MSTORE PUSH1 0x20 MSTORE PUSH1 0x20 PUSH1 0xFF PUSH1 0x40 PUSH1 0x0 KECCAK256 SLOAD AND PUSH1 0x40 MLOAD SWAP1 ISZERO ISZERO DUP2 MSTORE RETURN JUMPDEST CALLVALUE PUSH2 0x612 JUMPI PUSH1 0x20 CALLDATASIZE PUSH1 0x3 NOT ADD SLT PUSH2 0x612 JUMPI PUSH2 0x965 PUSH2 0x6FFB JUMP JUMPDEST PUSH1 0x8 SLOAD PUSH1 0x0 PUSH1 0x1 JUMPDEST DUP3 DUP2 GT ISZERO PUSH2 0xBA4 JUMPI POP PUSH2 0x97F SWAP1 PUSH2 0x88FD JUMP JUMPDEST SWAP1 PUSH1 0x1 PUSH1 0x0 JUMPDEST DUP3 DUP3 GT ISZERO PUSH2 0x99B JUMPI PUSH1 0x40 MLOAD DUP1 PUSH2 0x38A DUP7 DUP3 PUSH2 0x6F99 JUMP JUMPDEST PUSH1 0x0 DUP3 DUP2 MSTORE PUSH1 0x10 PUSH1 0x20 DUP2 SWAP1 MSTORE PUSH1 0x40 SWAP1 SWAP2 KECCAK256 PUSH1 0x1 DUP2 ADD SLOAD PUSH1 0x1 PUSH1 0x1 PUSH1 0xA0 SHL SUB SWAP1 DUP2 AND SWAP3 SWAP2 SWAP1 DUP9 AND DUP4 EQ DUP1 PUSH2 0xB93 JUMPI JUMPDEST PUSH2 0x9E1 JUMPI JUMPDEST POP POP POP SWAP1 PUSH2 0x9DB SWAP1 PUSH2 0x88EE JUMP JUMPDEST SWAP1 PUSH2 0x985 JUMP JUMPDEST PUSH1 0x40 MLOAD SWAP3 PUSH2 0x9EE DUP5 PUSH2 0x7027 JUMP JUMPDEST DUP2 SLOAD DUP5 MSTORE PUSH1 0x20 DUP5 ADD MSTORE PUSH1 0x40 MLOAD PUSH2 0xA0B DUP2 PUSH2 0x3FB DUP2 PUSH1 0x2 DUP7 ADD PUSH2 0x7224 JUMP JUMPDEST PUSH1 0x40 DUP5 ADD MSTORE PUSH1 0x40 MLOAD PUSH2 0xA24 DUP2 PUSH2 0x3FB DUP2 PUSH1 0x3 DUP7 ADD PUSH2 0x7224 JUMP JUMPDEST PUSH1 0x60 DUP5 ADD MSTORE PUSH1 0x4 DUP2 ADD SLOAD PUSH1 0x80 DUP5 ADD MSTORE PUSH1 0x5 DUP2 ADD SLOAD PUSH1 0xA0 DUP5 ADD MSTORE PUSH2 0xA49 PUSH1 0x6 DUP3 ADD PUSH2 0x8828 JUMP JUMPDEST PUSH1 0xC0 DUP5 ADD MSTORE PUSH2 0xA5A PUSH1 0x7 DUP3 ADD PUSH2 0x8828 JUMP JUMPDEST PUSH1 0xE0 DUP5 ADD MSTORE PUSH2 0xA6B PUSH1 0x8 DUP3 ADD PUSH2 0x8828 JUMP JUMPDEST PUSH2 0x100 DUP5 ADD MSTORE PUSH1 0x40 MLOAD PUSH2 0xA85 DUP2 PUSH2 0x3FB DUP2 PUSH1 0x9 DUP7 ADD PUSH2 0x7224 JUMP JUMPDEST PUSH2 0x120 DUP5 ADD MSTORE PUSH1 0x40 MLOAD PUSH2 0xA9F DUP2 PUSH2 0x3FB DUP2 PUSH1 0xA DUP7 ADD PUSH2 0x7224 JUMP JUMPDEST PUSH2 0x140 DUP5 ADD MSTORE PUSH1 0xB DUP2 ADD SLOAD PUSH2 0x160 DUP5 ADD MSTORE PUSH1 0x40 MLOAD PUSH2 0xAC4 DUP2 PUSH2 0x3FB DUP2 PUSH1 0xC DUP7 ADD PUSH2 0x7224 JUMP JUMPDEST PUSH2 0x180 DUP5 ADD MSTORE PUSH1 0x40 MLOAD PUSH2 0xADE DUP2 PUSH2 0x3FB DUP2 PUSH1 0xD DUP7 ADD PUSH2 0x7224 JUMP JUMPDEST PUSH2 0x1A0 DUP5 ADD MSTORE PUSH1 0xE DUP2 ADD SLOAD PUSH2 0x1C0 DUP5 ADD MSTORE PUSH1 0xF DUP2 ADD SLOAD PUSH1 0xFF SWAP1 DUP2 DUP2 AND ISZERO ISZERO PUSH2 0x1E0 DUP7 ADD MSTORE DUP2 DUP2 PUSH1 0x8 SHR AND ISZERO ISZERO PUSH2 0x200 DUP7 ADD MSTORE DUP4 SHR AND ISZERO ISZERO PUSH2 0x220 DUP5 ADD MSTORE ADD DUP1 SLOAD SWAP1 PUSH2 0xB28 DUP3 PUSH2 0x819A JUMP JUMPDEST SWAP2 PUSH2 0xB36 PUSH1 0x40 MLOAD SWAP4 DUP5 PUSH2 0x70E6 JUMP JUMPDEST DUP1 DUP4 MSTORE PUSH1 0x20 DUP4 ADD SWAP2 PUSH1 0x0 MSTORE PUSH1 0x20 PUSH1 0x0 KECCAK256 PUSH1 0x0 SWAP3 JUMPDEST DUP3 DUP5 LT PUSH2 0xB75 JUMPI POP POP POP POP PUSH2 0x240 DUP3 ADD MSTORE PUSH2 0x9DB SWAP2 PUSH2 0xB6D SWAP2 PUSH2 0x564 DUP3 DUP9 PUSH2 0x894D JUMP JUMPDEST SWAP1 DUP7 DUP1 PUSH2 0x9CE JUMP JUMPDEST PUSH1 0x6 PUSH1 0x20 PUSH1 0x1 SWAP3 PUSH2 0xB85 DUP6 PUSH2 0x888D JUMP JUMPDEST DUP2 MSTORE ADD SWAP3 ADD SWAP4 ADD SWAP3 SWAP1 PUSH2 0xB4A JUMP JUMPDEST POP PUSH1 0xFF PUSH1 0xF DUP3 ADD SLOAD DUP4 SHR AND ISZERO PUSH2 0x9C9 JUMP JUMPDEST PUSH1 0x0 DUP2 DUP2 MSTORE PUSH1 0x10 PUSH1 0x20 DUP2 SWAP1 MSTORE PUSH1 0x40 SWAP1 SWAP2 KECCAK256 PUSH1 0x1 DUP2 ADD SLOAD PUSH1 0x1 PUSH1 0x1 PUSH1 0xA0 SHL SUB DUP8 DUP2 AND SWAP2 AND EQ SWAP2 SWAP1 DUP3 PUSH2 0xBFA JUMPI JUMPDEST POP POP PUSH2 0xBE5 JUMPI JUMPDEST PUSH2 0xBE0 SWAP1 PUSH2 0x88EE JUMP JUMPDEST PUSH2 0x96D JUMP JUMPDEST SWAP1 PUSH2 0xBF2 PUSH2 0xBE0 SWAP2 PUSH2 0x88EE JUMP JUMPDEST SWAP2 SWAP1 POP PUSH2 0xBD7 JUMP JUMPDEST PUSH1 0xFF SWAP3 POP PUSH1 0xF ADD SLOAD SWAP1 SHR AND ISZERO DUP6 DUP1 PUSH2 0xBD0 JUMP JUMPDEST CALLVALUE PUSH2 0x612 JUMPI PUSH1 0x40 CALLDATASIZE PUSH1 0x3 NOT ADD SLT PUSH2 0x612 JUMPI PUSH2 0xC26 PUSH2 0x6FFB JUMP JUMPDEST PUSH1 0x1 PUSH1 0x1 PUSH1 0xA0 SHL SUB SWAP1 DUP2 AND PUSH1 0x0 SWAP1 DUP2 MSTORE PUSH1 0x15 PUSH1 0x20 MSTORE PUSH1 0x40 SWAP1 KECCAK256 DUP1 SLOAD PUSH1 0x24 CALLDATALOAD SWAP1 DUP2 LT ISZERO PUSH2 0x612 JUMPI PUSH2 0xC55 SWAP2 PUSH2 0x753A JUMP JUMPDEST POP SWAP1 PUSH2 0x38A DUP3 SLOAD PUSH1 0x1 DUP5 ADD SLOAD SWAP4 PUSH1 0x2 DUP2 ADD SLOAD SWAP2 PUSH1 0x3 DUP3 ADD SLOAD DUP6 PUSH1 0x4 DUP5 ADD SLOAD AND SWAP1 PUSH2 0xC86 PUSH1 0x6 PUSH1 0x5 DUP7 ADD SLOAD SWAP6 ADD PUSH2 0x7556 JUMP JUMPDEST SWAP5 PUSH1 0x40 MLOAD SWAP9 DUP10 SWAP9 PUSH1 0xFF DUP8 PUSH1 0xA0 SHR AND SWAP7 AND SWAP5 DUP10 PUSH2 0x7622 JUMP JUMPDEST CALLVALUE PUSH2 0x612 JUMPI PUSH1 0x3 NOT PUSH1 0x20 CALLDATASIZE DUP3 ADD SLT PUSH2 0x612 JUMPI PUSH1 0x1 PUSH1 0x1 PUSH1 0x40 SHL SUB PUSH1 0x4 CALLDATALOAD GT PUSH2 0x612 JUMPI PUSH2 0x1A0 SWAP1 PUSH1 0x4 CALLDATALOAD CALLDATASIZE SUB ADD SLT PUSH2 0x612 JUMPI PUSH1 0x0 SLOAD PUSH1 0x1 PUSH1 0x1 PUSH1 0xA0 SHL SUB AND CALLER EQ DUP1 ISZERO PUSH2 0x1AE6 JUMPI JUMPDEST PUSH2 0xCEC SWAP1 PUSH2 0x7DE4 JUMP JUMPDEST PUSH2 0xD06 PUSH2 0xCFD PUSH1 0x4 DUP1 CALLDATALOAD ADD DUP1 PUSH2 0x7E21 JUMP JUMPDEST SWAP1 POP ISZERO ISZERO PUSH2 0x7E53 JUMP JUMPDEST PUSH2 0xD17 PUSH1 0x44 PUSH1 0x4 CALLDATALOAD ADD CALLDATALOAD ISZERO ISZERO PUSH2 0x7E96 JUMP JUMPDEST PUSH2 0xD28 PUSH1 0x64 PUSH1 0x4 CALLDATALOAD ADD CALLDATALOAD ISZERO ISZERO PUSH2 0x7EE1 JUMP JUMPDEST PUSH1 0xE4 PUSH1 0x4 CALLDATALOAD ADD CALLDATALOAD ISZERO PUSH2 0x1A96 JUMPI PUSH2 0x104 PUSH1 0x4 CALLDATALOAD ADD CALLDATALOAD ISZERO PUSH2 0x1A43 JUMPI PUSH2 0xD53 PUSH2 0x124 PUSH1 0x4 CALLDATALOAD ADD CALLDATALOAD ISZERO ISZERO PUSH2 0x7F2C JUMP JUMPDEST PUSH2 0xD74 PUSH2 0xD6B PUSH2 0x144 PUSH1 0x4 CALLDATALOAD ADD PUSH1 0x4 CALLDATALOAD PUSH1 0x4 ADD PUSH2 0x7E21 JUMP JUMPDEST SWAP1 POP ISZERO ISZERO PUSH2 0x7F78 JUMP JUMPDEST PUSH2 0xD95 PUSH2 0xD8C PUSH2 0x164 PUSH1 0x4 CALLDATALOAD ADD PUSH1 0x4 CALLDATALOAD PUSH1 0x4 ADD PUSH2 0x7E21 JUMP JUMPDEST SWAP1 POP ISZERO ISZERO PUSH2 0x7FBC JUMP JUMPDEST PUSH2 0xDA7 PUSH2 0x184 PUSH1 0x4 CALLDATALOAD ADD CALLDATALOAD ISZERO ISZERO PUSH2 0x8000 JUMP JUMPDEST PUSH2 0xDC7 PUSH2 0xDBE PUSH1 0xC4 PUSH1 0x4 CALLDATALOAD ADD PUSH1 0x4 CALLDATALOAD PUSH1 0x4 ADD PUSH2 0x8049 JUMP JUMPDEST SWAP1 POP ISZERO ISZERO PUSH2 0x807E JUMP JUMPDEST PUSH2 0xDE9 PUSH1 0x5 PUSH2 0xDE0 PUSH1 0xC4 PUSH1 0x4 CALLDATALOAD ADD PUSH1 0x4 CALLDATALOAD PUSH1 0x4 ADD PUSH2 0x8049 JUMP JUMPDEST SWAP1 POP GT ISZERO PUSH2 0x80C3 JUMP JUMPDEST PUSH1 0x1 PUSH1 0x8 SLOAD ADD DUP1 PUSH1 0x8 SSTORE PUSH2 0xDFB PUSH2 0x810E JUMP JUMPDEST DUP2 DUP2 MSTORE CALLER PUSH1 0x20 DUP3 ADD MSTORE SWAP1 PUSH2 0xE1D PUSH2 0xE16 PUSH1 0x4 DUP1 CALLDATALOAD ADD DUP1 PUSH2 0x7E21 JUMP JUMPDEST CALLDATASIZE SWAP2 PUSH2 0x7124 JUMP JUMPDEST PUSH1 0x40 DUP4 ADD MSTORE PUSH2 0xE39 PUSH2 0xE16 PUSH1 0x24 PUSH1 0x4 CALLDATALOAD ADD PUSH1 0x4 CALLDATALOAD PUSH1 0x4 ADD PUSH2 0x7E21 JUMP JUMPDEST PUSH1 0x60 DUP4 ADD MSTORE PUSH1 0x44 PUSH1 0x4 CALLDATALOAD ADD CALLDATALOAD PUSH1 0x80 DUP4 ADD MSTORE PUSH1 0x64 PUSH1 0x4 CALLDATALOAD ADD CALLDATALOAD PUSH1 0xA0 DUP4 ADD MSTORE PUSH2 0xE74 PUSH2 0xE6D PUSH1 0x84 PUSH1 0x4 CALLDATALOAD ADD PUSH1 0x4 CALLDATALOAD PUSH1 0x4 ADD PUSH2 0x8049 JUMP JUMPDEST CALLDATASIZE SWAP2 PUSH2 0x81B1 JUMP JUMPDEST PUSH1 0xC0 DUP4 ADD MSTORE PUSH2 0xE90 PUSH2 0xE6D PUSH1 0xA4 PUSH1 0x4 CALLDATALOAD ADD PUSH1 0x4 CALLDATALOAD PUSH1 0x4 ADD PUSH2 0x8049 JUMP JUMPDEST PUSH1 0xE0 DUP4 ADD MSTORE PUSH2 0xEAC PUSH2 0xE6D PUSH1 0xC4 PUSH1 0x4 CALLDATALOAD ADD PUSH1 0x4 CALLDATALOAD PUSH1 0x4 ADD PUSH2 0x8049 JUMP JUMPDEST PUSH2 0x100 DUP4 ADD MSTORE PUSH1 0xE4 PUSH1 0x4 CALLDATALOAD ADD CALLDATALOAD PUSH1 0x0 MSTORE PUSH1 0xE PUSH1 0x20 MSTORE PUSH2 0x3FB PUSH2 0xEDB PUSH1 0x1 PUSH1 0x40 PUSH1 0x0 KECCAK256 ADD PUSH1 0x40 MLOAD SWAP3 DUP4 DUP1 SWAP3 PUSH2 0x7224 JUMP JUMPDEST PUSH2 0x120 DUP4 ADD MSTORE PUSH2 0x104 PUSH1 0x4 CALLDATALOAD ADD CALLDATALOAD PUSH1 0x0 MSTORE PUSH1 0xF PUSH1 0x20 MSTORE PUSH2 0x3FB PUSH2 0xF0B PUSH1 0x1 PUSH1 0x40 PUSH1 0x0 KECCAK256 ADD PUSH1 0x40 MLOAD SWAP3 DUP4 DUP1 SWAP3 PUSH2 0x7224 JUMP JUMPDEST PUSH2 0x140 DUP4 ADD MSTORE PUSH2 0xF29 PUSH2 0xE16 PUSH2 0x144 PUSH1 0x4 CALLDATALOAD ADD PUSH1 0x4 CALLDATALOAD PUSH1 0x4 ADD PUSH2 0x7E21 JUMP JUMPDEST PUSH2 0x180 DUP4 ADD MSTORE PUSH2 0xF47 PUSH2 0xE16 PUSH2 0x164 PUSH1 0x4 CALLDATALOAD ADD PUSH1 0x4 CALLDATALOAD PUSH1 0x4 ADD PUSH2 0x7E21 JUMP JUMPDEST PUSH2 0x1A0 DUP4 ADD MSTORE PUSH1 0x4 CALLDATALOAD PUSH2 0x124 DUP2 ADD CALLDATALOAD PUSH2 0x160 DUP5 ADD MSTORE PUSH2 0x184 ADD CALLDATALOAD PUSH2 0x1C0 DUP4 ADD MSTORE CALLER ISZERO PUSH2 0x19FF JUMPI PUSH2 0xF7F PUSH2 0xF79 DUP3 PUSH2 0x7A5B JUMP JUMPDEST ISZERO PUSH2 0x841B JUMP JUMPDEST PUSH2 0xF8B PUSH2 0xF79 DUP3 PUSH2 0x7A5B JUMP JUMPDEST CALLER PUSH1 0x0 MSTORE PUSH1 0x5 PUSH1 0x20 MSTORE PUSH1 0x40 PUSH1 0x0 KECCAK256 PUSH1 0x1 DUP2 SLOAD ADD SWAP1 SSTORE DUP1 PUSH1 0x0 MSTORE PUSH1 0x4 PUSH1 0x20 MSTORE PUSH1 0x40 PUSH1 0x0 KECCAK256 CALLER PUSH1 0x1 DUP1 PUSH1 0xA0 SHL SUB NOT DUP3 SLOAD AND OR SWAP1 SSTORE DUP1 CALLER PUSH1 0x0 PUSH1 0x0 DUP1 MLOAD PUSH1 0x20 PUSH2 0x98F6 DUP4 CODECOPY DUP2 MLOAD SWAP2 MSTORE DUP2 DUP1 LOG4 PUSH1 0x10 PUSH1 0x20 MSTORE PUSH1 0x40 PUSH1 0x0 KECCAK256 SWAP1 DUP3 MLOAD DUP3 SSTORE PUSH1 0x1 DUP3 ADD PUSH1 0x1 DUP1 PUSH1 0xA0 SHL SUB PUSH1 0x20 DUP6 ADD MLOAD AND PUSH1 0x1 DUP1 PUSH1 0xA0 SHL SUB NOT DUP3 SLOAD AND OR SWAP1 SSTORE PUSH1 0x40 DUP4 ADD MLOAD SWAP3 DUP4 MLOAD PUSH1 0x1 DUP1 PUSH1 0x40 SHL SUB DUP2 GT PUSH2 0x1469 JUMPI PUSH2 0x1030 DUP2 PUSH2 0x1027 PUSH1 0x2 DUP8 ADD SLOAD PUSH2 0x71EA JUMP JUMPDEST PUSH1 0x2 DUP8 ADD PUSH2 0x7C38 JUMP JUMPDEST PUSH1 0x20 PUSH1 0x1F DUP3 GT PUSH1 0x1 EQ PUSH2 0x1990 JUMPI DUP2 SWAP3 SWAP4 SWAP5 SWAP6 PUSH1 0x0 SWAP3 PUSH2 0x1985 JUMPI JUMPDEST POP POP DUP2 PUSH1 0x1 SHL SWAP2 PUSH1 0x0 NOT SWAP1 PUSH1 0x3 SHL SHR NOT AND OR PUSH1 0x2 DUP5 ADD SSTORE JUMPDEST PUSH1 0x60 DUP2 ADD MLOAD DUP1 MLOAD SWAP1 SWAP4 SWAP1 PUSH1 0x1 PUSH1 0x1 PUSH1 0x40 SHL SUB DUP2 GT PUSH2 0x1469 JUMPI PUSH2 0x1094 DUP2 PUSH2 0x108B PUSH1 0x3 DUP6 ADD SLOAD PUSH2 0x71EA JUMP JUMPDEST PUSH1 0x3 DUP6 ADD PUSH2 0x7C38 JUMP JUMPDEST PUSH1 0x20 PUSH1 0x1F DUP3 GT PUSH1 0x1 EQ PUSH2 0x1916 JUMPI DUP2 SWAP3 SWAP4 SWAP5 SWAP6 PUSH1 0x0 SWAP3 PUSH2 0x190B JUMPI JUMPDEST POP POP DUP2 PUSH1 0x1 SHL SWAP2 PUSH1 0x0 NOT SWAP1 PUSH1 0x3 SHL SHR NOT AND OR PUSH1 0x3 DUP3 ADD SSTORE JUMPDEST PUSH1 0x80 DUP3 ADD MLOAD PUSH1 0x4 DUP3 ADD SSTORE PUSH1 0xA0 DUP3 ADD MLOAD PUSH1 0x5 DUP3 ADD SSTORE PUSH1 0x6 DUP2 ADD PUSH1 0xC0 DUP4 ADD MLOAD PUSH1 0x20 DUP2 MLOAD SWAP2 PUSH2 0x10F2 DUP4 DUP6 PUSH2 0x8269 JUMP JUMPDEST ADD SWAP2 PUSH1 0x0 MSTORE PUSH1 0x20 PUSH1 0x0 KECCAK256 SWAP2 PUSH1 0x0 SWAP1 JUMPDEST DUP3 DUP3 LT PUSH2 0x182E JUMPI POP POP POP POP PUSH1 0x7 DUP2 ADD PUSH1 0xE0 DUP4 ADD MLOAD PUSH1 0x20 DUP2 MLOAD SWAP2 PUSH2 0x1124 DUP4 DUP6 PUSH2 0x8269 JUMP JUMPDEST ADD SWAP2 PUSH1 0x0 MSTORE PUSH1 0x20 PUSH1 0x0 KECCAK256 SWAP2 PUSH1 0x0 SWAP1 JUMPDEST DUP3 DUP3 LT PUSH2 0x1751 JUMPI POP POP POP POP PUSH1 0x8 DUP2 ADD PUSH2 0x100 DUP4 ADD MLOAD PUSH1 0x20 DUP2 MLOAD SWAP2 PUSH2 0x1157 DUP4 DUP6 PUSH2 0x8269 JUMP JUMPDEST ADD SWAP2 PUSH1 0x0 MSTORE PUSH1 0x20 PUSH1 0x0 KECCAK256 SWAP2 PUSH1 0x0 SWAP1 JUMPDEST DUP3 DUP3 LT PUSH2 0x166E JUMPI POP POP POP POP PUSH2 0x120 DUP3 ADD MLOAD DUP1 MLOAD SWAP1 SWAP4 SWAP1 PUSH1 0x1 PUSH1 0x1 PUSH1 0x40 SHL SUB DUP2 GT PUSH2 0x1469 JUMPI PUSH2 0x11A4 DUP2 PUSH2 0x119B PUSH1 0x9 DUP7 ADD SLOAD PUSH2 0x71EA JUMP JUMPDEST PUSH1 0x9 DUP7 ADD PUSH2 0x7C38 JUMP JUMPDEST PUSH1 0x20 PUSH1 0x1F DUP3 GT PUSH1 0x1 EQ PUSH2 0x15FF JUMPI DUP2 SWAP3 SWAP4 SWAP5 SWAP6 PUSH1 0x0 SWAP3 PUSH2 0x15F4 JUMPI JUMPDEST POP POP DUP2 PUSH1 0x1 SHL SWAP2 PUSH1 0x0 NOT SWAP1 PUSH1 0x3 SHL SHR NOT AND OR PUSH1 0x9 DUP4 ADD SSTORE JUMPDEST PUSH2 0x140 DUP4 ADD MLOAD DUP1 MLOAD SWAP1 SWAP4 SWAP1 PUSH1 0x1 PUSH1 0x1 PUSH1 0x40 SHL SUB DUP2 GT PUSH2 0x1469 JUMPI PUSH2 0x1209 DUP2 PUSH2 0x1200 PUSH1 0xA DUP8 ADD SLOAD PUSH2 0x71EA JUMP JUMPDEST PUSH1 0xA DUP8 ADD PUSH2 0x7C38 JUMP JUMPDEST PUSH1 0x20 PUSH1 0x1F DUP3 GT PUSH1 0x1 EQ PUSH2 0x1585 JUMPI DUP2 SWAP3 SWAP4 SWAP5 SWAP6 PUSH1 0x0 SWAP3 PUSH2 0x157A JUMPI JUMPDEST POP POP DUP2 PUSH1 0x1 SHL SWAP2 PUSH1 0x0 NOT SWAP1 PUSH1 0x3 SHL SHR NOT AND OR PUSH1 0xA DUP5 ADD SSTORE JUMPDEST PUSH2 0x160 DUP2 ADD MLOAD PUSH1 0xB DUP5 ADD SSTORE PUSH2 0x180 DUP2 ADD MLOAD DUP1 MLOAD SWAP1 SWAP4 SWAP1 PUSH1 0x1 PUSH1 0x1 PUSH1 0x40 SHL SUB DUP2 GT PUSH2 0x1469 JUMPI PUSH2 0x1279 DUP2 PUSH2 0x1270 PUSH1 0xC DUP6 ADD SLOAD PUSH2 0x71EA JUMP JUMPDEST PUSH1 0xC DUP6 ADD PUSH2 0x7C38 JUMP JUMPDEST PUSH1 0x20 PUSH1 0x1F DUP3 GT PUSH1 0x1 EQ PUSH2 0x150B JUMPI DUP2 SWAP3 SWAP4 SWAP5 SWAP6 PUSH1 0x0 SWAP3 PUSH2 0x1500 JUMPI JUMPDEST POP POP DUP2 PUSH1 0x1 SHL SWAP2 PUSH1 0x0 NOT SWAP1 PUSH1 0x3 SHL SHR NOT AND OR PUSH1 0xC DUP3 ADD SSTORE JUMPDEST PUSH2 0x1A0 DUP3 ADD MLOAD DUP1 MLOAD SWAP1 PUSH1 0x1 PUSH1 0x1 PUSH1 0x40 SHL SUB DUP3 GT PUSH2 0x1469 JUMPI PUSH2 0x12DC DUP3 PUSH2 0x12D3 PUSH1 0xD DUP7 ADD SLOAD PUSH2 0x71EA JUMP JUMPDEST PUSH1 0xD DUP7 ADD PUSH2 0x7C38 JUMP JUMPDEST PUSH1 0x20 SWAP1 PUSH1 0x1F DUP4 GT PUSH1 0x1 EQ PUSH2 0x148A JUMPI SWAP2 DUP1 PUSH2 0x240 SWAP5 SWAP3 PUSH1 0x10 SWAP5 PUSH1 0x0 SWAP3 PUSH2 0x147F JUMPI JUMPDEST POP POP DUP2 PUSH1 0x1 SHL SWAP2 PUSH1 0x0 NOT SWAP1 PUSH1 0x3 SHL SHR NOT AND OR PUSH1 0xD DUP3 ADD SSTORE JUMPDEST PUSH2 0x1C0 DUP5 ADD MLOAD PUSH1 0xE DUP3 ADD SSTORE PUSH1 0xF DUP2 ADD PUSH2 0x1334 PUSH2 0x1E0 DUP7 ADD MLOAD ISZERO ISZERO DUP3 PUSH2 0x7A4A JUMP JUMPDEST PUSH2 0x200 DUP6 ADD MLOAD ISZERO ISZERO DUP2 SLOAD PUSH2 0xFF00 PUSH3 0xFF0000 PUSH2 0x220 DUP10 ADD MLOAD ISZERO ISZERO DUP8 SHL AND SWAP3 PUSH1 0x8 SHL AND SWAP1 PUSH3 0xFFFF00 NOT AND OR OR SWAP1 SSTORE ADD SWAP2 ADD MLOAD SWAP1 DUP2 MLOAD SWAP2 PUSH1 0x1 PUSH1 0x40 SHL DUP4 GT PUSH2 0x1469 JUMPI DUP2 SLOAD DUP4 DUP4 SSTORE DUP1 DUP5 LT PUSH2 0x13E6 JUMPI JUMPDEST POP PUSH1 0x20 ADD SWAP1 PUSH1 0x0 MSTORE PUSH1 0x20 PUSH1 0x0 KECCAK256 PUSH1 0x0 SWAP2 JUMPDEST DUP4 DUP4 LT PUSH2 0x13C8 JUMPI PUSH2 0x8C2 DUP6 DUP1 PUSH1 0x0 MSTORE PUSH1 0x17 PUSH1 0x20 MSTORE PUSH1 0x40 PUSH1 0x0 KECCAK256 PUSH1 0x1 PUSH1 0xFF NOT DUP3 SLOAD AND OR SWAP1 SSTORE CALLER PUSH1 0x0 MSTORE PUSH1 0x11 PUSH1 0x20 MSTORE PUSH1 0x40 PUSH1 0x0 KECCAK256 PUSH2 0x83E6 JUMP JUMPDEST PUSH1 0x6 PUSH1 0x20 DUP3 PUSH2 0x13DA PUSH1 0x1 SWAP5 MLOAD DUP7 PUSH2 0x82B2 JUMP JUMPDEST ADD SWAP3 ADD SWAP3 ADD SWAP2 SWAP1 PUSH2 0x1391 JUMP JUMPDEST DUP1 PUSH1 0x6 MUL SWAP1 PUSH1 0x6 DUP3 DIV SUB PUSH2 0x1453 JUMPI DUP4 PUSH1 0x6 MUL PUSH1 0x6 DUP2 DIV DUP6 SUB PUSH2 0x1453 JUMPI DUP4 PUSH1 0x0 MSTORE PUSH1 0x20 PUSH1 0x0 KECCAK256 SWAP2 DUP3 ADD SWAP2 ADD JUMPDEST DUP2 DUP2 LT PUSH2 0x141E JUMPI POP PUSH2 0x1380 JUMP JUMPDEST DUP1 PUSH1 0x0 PUSH1 0x6 SWAP3 SSTORE PUSH1 0x0 PUSH1 0x1 DUP3 ADD SSTORE PUSH1 0x0 PUSH1 0x2 DUP3 ADD SSTORE PUSH2 0x143F PUSH1 0x3 DUP3 ADD PUSH2 0x8220 JUMP JUMPDEST PUSH1 0x0 PUSH1 0x4 DUP3 ADD SSTORE PUSH1 0x0 PUSH1 0x5 DUP3 ADD SSTORE ADD PUSH2 0x1411 JUMP JUMPDEST PUSH4 0x4E487B71 PUSH1 0xE0 SHL PUSH1 0x0 MSTORE PUSH1 0x11 PUSH1 0x4 MSTORE PUSH1 0x24 PUSH1 0x0 REVERT JUMPDEST PUSH4 0x4E487B71 PUSH1 0xE0 SHL PUSH1 0x0 MSTORE PUSH1 0x41 PUSH1 0x4 MSTORE PUSH1 0x24 PUSH1 0x0 REVERT JUMPDEST ADD MLOAD SWAP1 POP DUP8 DUP1 PUSH2 0x12FC JUMP JUMPDEST SWAP1 PUSH1 0xD DUP5 ADD PUSH1 0x0 MSTORE PUSH1 0x20 PUSH1 0x0 KECCAK256 SWAP2 PUSH1 0x0 JUMPDEST PUSH1 0x1F NOT DUP6 AND DUP2 LT PUSH2 0x14E8 JUMPI POP SWAP3 PUSH2 0x240 SWAP5 SWAP3 PUSH1 0x1 SWAP3 PUSH1 0x10 SWAP6 DUP4 PUSH1 0x1F NOT DUP2 AND LT PUSH2 0x14CF JUMPI JUMPDEST POP POP POP DUP2 SHL ADD PUSH1 0xD DUP3 ADD SSTORE PUSH2 0x1314 JUMP JUMPDEST ADD MLOAD PUSH1 0x0 NOT PUSH1 0xF8 DUP5 PUSH1 0x3 SHL AND SHR NOT AND SWAP1 SSTORE DUP8 DUP1 DUP1 PUSH2 0x14BF JUMP JUMPDEST SWAP2 SWAP3 PUSH1 0x20 PUSH1 0x1 DUP2 SWAP3 DUP7 DUP6 ADD MLOAD DUP2 SSTORE ADD SWAP5 ADD SWAP3 ADD PUSH2 0x149B JUMP JUMPDEST ADD MLOAD SWAP1 POP DUP6 DUP1 PUSH2 0x1293 JUMP JUMPDEST PUSH1 0xC DUP4 ADD PUSH1 0x0 MSTORE PUSH1 0x20 PUSH1 0x0 KECCAK256 SWAP1 PUSH1 0x0 JUMPDEST PUSH1 0x1F NOT DUP5 AND DUP2 LT PUSH2 0x1562 JUMPI POP PUSH1 0x1 SWAP4 SWAP5 SWAP6 SWAP7 DUP4 PUSH1 0x1F NOT DUP2 AND LT PUSH2 0x1549 JUMPI JUMPDEST POP POP POP DUP2 SHL ADD PUSH1 0xC DUP3 ADD SSTORE PUSH2 0x12AB JUMP JUMPDEST ADD MLOAD PUSH1 0x0 NOT PUSH1 0xF8 DUP5 PUSH1 0x3 SHL AND SHR NOT AND SWAP1 SSTORE DUP6 DUP1 DUP1 PUSH2 0x1539 JUMP JUMPDEST SWAP1 SWAP2 PUSH1 0x20 PUSH1 0x1 DUP2 SWAP3 DUP6 DUP12 ADD MLOAD DUP2 SSTORE ADD SWAP4 ADD SWAP2 ADD PUSH2 0x151B JUMP JUMPDEST ADD MLOAD SWAP1 POP DUP6 DUP1 PUSH2 0x1223 JUMP JUMPDEST PUSH1 0xA DUP6 ADD PUSH1 0x0 MSTORE PUSH1 0x20 PUSH1 0x0 KECCAK256 SWAP1 PUSH1 0x0 JUMPDEST PUSH1 0x1F NOT DUP5 AND DUP2 LT PUSH2 0x15DC JUMPI POP PUSH1 0x1 SWAP4 SWAP5 SWAP6 SWAP7 DUP4 PUSH1 0x1F NOT DUP2 AND LT PUSH2 0x15C3 JUMPI JUMPDEST POP POP POP DUP2 SHL ADD PUSH1 0xA DUP5 ADD SSTORE PUSH2 0x123B JUMP JUMPDEST ADD MLOAD PUSH1 0x0 NOT PUSH1 0xF8 DUP5 PUSH1 0x3 SHL AND SHR NOT AND SWAP1 SSTORE DUP6 DUP1 DUP1 PUSH2 0x15B3 JUMP JUMPDEST SWAP1 SWAP2 PUSH1 0x20 PUSH1 0x1 DUP2 SWAP3 DUP6 DUP12 ADD MLOAD DUP2 SSTORE ADD SWAP4 ADD SWAP2 ADD PUSH2 0x1595 JUMP JUMPDEST ADD MLOAD SWAP1 POP DUP6 DUP1 PUSH2 0x11BE JUMP JUMPDEST PUSH1 0x9 DUP5 ADD PUSH1 0x0 MSTORE PUSH1 0x20 PUSH1 0x0 KECCAK256 SWAP1 PUSH1 0x0 JUMPDEST PUSH1 0x1F NOT DUP5 AND DUP2 LT PUSH2 0x1656 JUMPI POP PUSH1 0x1 SWAP4 SWAP5 SWAP6 SWAP7 DUP4 PUSH1 0x1F NOT DUP2 AND LT PUSH2 0x163D JUMPI JUMPDEST POP POP POP DUP2 SHL ADD PUSH1 0x9 DUP4 ADD SSTORE PUSH2 0x11D6 JUMP JUMPDEST ADD MLOAD PUSH1 0x0 NOT PUSH1 0xF8 DUP5 PUSH1 0x3 SHL AND SHR NOT AND SWAP1 SSTORE DUP6 DUP1 DUP1 PUSH2 0x162D JUMP JUMPDEST SWAP1 SWAP2 PUSH1 0x20 PUSH1 0x1 DUP2 SWAP3 DUP6 DUP12 ADD MLOAD DUP2 SSTORE ADD SWAP4 ADD SWAP2 ADD PUSH2 0x160F JUMP JUMPDEST DUP1 MLOAD DUP1 MLOAD SWAP1 PUSH1 0x1 PUSH1 0x1 PUSH1 0x40 SHL SUB DUP3 GT PUSH2 0x1469 JUMPI PUSH2 0x1695 DUP3 PUSH2 0x168F DUP9 SLOAD PUSH2 0x71EA JUMP JUMPDEST DUP9 PUSH2 0x7C38 JUMP JUMPDEST PUSH1 0x20 SWAP1 PUSH1 0x1F DUP4 GT PUSH1 0x1 EQ PUSH2 0x16E1 JUMPI SWAP3 DUP3 PUSH1 0x1 SWAP5 SWAP4 PUSH1 0x20 SWAP4 DUP7 SWAP6 PUSH1 0x0 SWAP3 PUSH2 0x16D6 JUMPI JUMPDEST POP POP PUSH1 0x0 NOT PUSH1 0x3 DUP4 SWAP1 SHL SHR NOT AND SWAP1 DUP5 SHL OR DUP8 SSTORE JUMPDEST ADD SWAP5 ADD SWAP2 ADD SWAP1 SWAP3 PUSH2 0x1166 JUMP JUMPDEST ADD MLOAD SWAP1 POP DUP13 DUP1 PUSH2 0x16B6 JUMP JUMPDEST SWAP1 DUP7 PUSH1 0x0 MSTORE PUSH1 0x20 PUSH1 0x0 KECCAK256 SWAP2 PUSH1 0x0 JUMPDEST PUSH1 0x1F NOT DUP6 AND DUP2 LT PUSH2 0x1739 JUMPI POP DUP4 PUSH1 0x20 SWAP4 PUSH1 0x1 SWAP7 SWAP4 DUP8 SWAP7 SWAP4 DUP8 SWAP5 PUSH1 0x1F NOT DUP2 AND LT PUSH2 0x1720 JUMPI JUMPDEST POP POP POP DUP2 SHL ADD DUP8 SSTORE PUSH2 0x16CA JUMP JUMPDEST ADD MLOAD PUSH1 0x0 NOT PUSH1 0xF8 DUP5 PUSH1 0x3 SHL AND SHR NOT AND SWAP1 SSTORE DUP13 DUP1 DUP1 PUSH2 0x1713 JUMP JUMPDEST SWAP2 SWAP3 PUSH1 0x20 PUSH1 0x1 DUP2 SWAP3 DUP7 DUP6 ADD MLOAD DUP2 SSTORE ADD SWAP5 ADD SWAP3 ADD PUSH2 0x16EF JUMP JUMPDEST DUP1 MLOAD DUP1 MLOAD SWAP1 PUSH1 0x1 PUSH1 0x1 PUSH1 0x40 SHL SUB DUP3 GT PUSH2 0x1469 JUMPI PUSH2 0x1772 DUP3 PUSH2 0x168F DUP9 SLOAD PUSH2 0x71EA JUMP JUMPDEST PUSH1 0x20 SWAP1 PUSH1 0x1F DUP4 GT PUSH1 0x1 EQ PUSH2 0x17BE JUMPI SWAP3 DUP3 PUSH1 0x1 SWAP5 SWAP4 PUSH1 0x20 SWAP4 DUP7 SWAP6 PUSH1 0x0 SWAP3 PUSH2 0x17B3 JUMPI JUMPDEST POP POP PUSH1 0x0 NOT PUSH1 0x3 DUP4 SWAP1 SHL SHR NOT AND SWAP1 DUP5 SHL OR DUP8 SSTORE JUMPDEST ADD SWAP5 ADD SWAP2 ADD SWAP1 SWAP3 PUSH2 0x1133 JUMP JUMPDEST ADD MLOAD SWAP1 POP DUP13 DUP1 PUSH2 0x1793 JUMP JUMPDEST SWAP1 DUP7 PUSH1 0x0 MSTORE PUSH1 0x20 PUSH1 0x0 KECCAK256 SWAP2 PUSH1 0x0 JUMPDEST PUSH1 0x1F NOT DUP6 AND DUP2 LT PUSH2 0x1816 JUMPI POP DUP4 PUSH1 0x20 SWAP4 PUSH1 0x1 SWAP7 SWAP4 DUP8 SWAP7 SWAP4 DUP8 SWAP5 PUSH1 0x1F NOT DUP2 AND LT PUSH2 0x17FD JUMPI JUMPDEST POP POP POP DUP2 SHL ADD DUP8 SSTORE PUSH2 0x17A7 JUMP JUMPDEST ADD MLOAD PUSH1 0x0 NOT PUSH1 0xF8 DUP5 PUSH1 0x3 SHL AND SHR NOT AND SWAP1 SSTORE DUP13 DUP1 DUP1 PUSH2 0x17F0 JUMP JUMPDEST SWAP2 SWAP3 PUSH1 0x20 PUSH1 0x1 DUP2 SWAP3 DUP7 DUP6 ADD MLOAD DUP2 SSTORE ADD SWAP5 ADD SWAP3 ADD PUSH2 0x17CC JUMP JUMPDEST DUP1 MLOAD DUP1 MLOAD SWAP1 PUSH1 0x1 PUSH1 0x1 PUSH1 0x40 SHL SUB DUP3 GT PUSH2 0x1469 JUMPI PUSH2 0x184F DUP3 PUSH2 0x168F DUP9 SLOAD PUSH2 0x71EA JUMP JUMPDEST PUSH1 0x20 SWAP1 PUSH1 0x1F DUP4 GT PUSH1 0x1 EQ PUSH2 0x189B JUMPI SWAP3 DUP3 PUSH1 0x1 SWAP5 SWAP4 PUSH1 0x20 SWAP4 DUP7 SWAP6 PUSH1 0x0 SWAP3 PUSH2 0x1890 JUMPI JUMPDEST POP POP PUSH1 0x0 NOT PUSH1 0x3 DUP4 SWAP1 SHL SHR NOT AND SWAP1 DUP5 SHL OR DUP8 SSTORE JUMPDEST ADD SWAP5 ADD SWAP2 ADD SWAP1 SWAP3 PUSH2 0x1101 JUMP JUMPDEST ADD MLOAD SWAP1 POP DUP13 DUP1 PUSH2 0x1870 JUMP JUMPDEST SWAP1 DUP7 PUSH1 0x0 MSTORE PUSH1 0x20 PUSH1 0x0 KECCAK256 SWAP2 PUSH1 0x0 JUMPDEST PUSH1 0x1F NOT DUP6 AND DUP2 LT PUSH2 0x18F3 JUMPI POP DUP4 PUSH1 0x20 SWAP4 PUSH1 0x1 SWAP7 SWAP4 DUP8 SWAP7 SWAP4 DUP8 SWAP5 PUSH1 0x1F NOT DUP2 AND LT PUSH2 0x18DA JUMPI JUMPDEST POP POP POP DUP2 SHL ADD DUP8 SSTORE PUSH2 0x1884 JUMP JUMPDEST ADD MLOAD PUSH1 0x0 NOT PUSH1 0xF8 DUP5 PUSH1 0x3 SHL AND SHR NOT AND SWAP1 SSTORE DUP13 DUP1 DUP1 PUSH2 0x18CD JUMP JUMPDEST SWAP2 SWAP3 PUSH1 0x20 PUSH1 0x1 DUP2 SWAP3 DUP7 DUP6 ADD MLOAD DUP2 SSTORE ADD SWAP5 ADD SWAP3 ADD PUSH2 0x18A9 JUMP JUMPDEST ADD MLOAD SWAP1 POP DUP6 DUP1 PUSH2 0x10AE JUMP JUMPDEST PUSH1 0x3 DUP4 ADD PUSH1 0x0 MSTORE PUSH1 0x20 PUSH1 0x0 KECCAK256 SWAP1 PUSH1 0x0 JUMPDEST PUSH1 0x1F NOT DUP5 AND DUP2 LT PUSH2 0x196D JUMPI POP PUSH1 0x1 SWAP4 SWAP5 SWAP6 SWAP7 DUP4 PUSH1 0x1F NOT DUP2 AND LT PUSH2 0x1954 JUMPI JUMPDEST POP POP POP DUP2 SHL ADD PUSH1 0x3 DUP3 ADD SSTORE PUSH2 0x10C6 JUMP JUMPDEST ADD MLOAD PUSH1 0x0 NOT PUSH1 0xF8 DUP5 PUSH1 0x3 SHL AND SHR NOT AND SWAP1 SSTORE DUP6 DUP1 DUP1 PUSH2 0x1944 JUMP JUMPDEST SWAP1 SWAP2 PUSH1 0x20 PUSH1 0x1 DUP2 SWAP3 DUP6 DUP12 ADD MLOAD DUP2 SSTORE ADD SWAP4 ADD SWAP2 ADD PUSH2 0x1926 JUMP JUMPDEST ADD MLOAD SWAP1 POP DUP6 DUP1 PUSH2 0x104A JUMP JUMPDEST PUSH1 0x2 DUP6 ADD PUSH1 0x0 MSTORE PUSH1 0x20 PUSH1 0x0 KECCAK256 SWAP1 PUSH1 0x0 JUMPDEST PUSH1 0x1F NOT DUP5 AND DUP2 LT PUSH2 0x19E7 JUMPI POP PUSH1 0x1 SWAP4 SWAP5 SWAP6 SWAP7 DUP4 PUSH1 0x1F NOT DUP2 AND LT PUSH2 0x19CE JUMPI JUMPDEST POP POP POP DUP2 SHL ADD PUSH1 0x2 DUP5 ADD SSTORE PUSH2 0x1062 JUMP JUMPDEST ADD MLOAD PUSH1 0x0 NOT PUSH1 0xF8 DUP5 PUSH1 0x3 SHL AND SHR NOT AND SWAP1 SSTORE DUP6 DUP1 DUP1 PUSH2 0x19BE JUMP JUMPDEST SWAP1 SWAP2 PUSH1 0x20 PUSH1 0x1 DUP2 SWAP3 DUP6 DUP12 ADD MLOAD DUP2 SSTORE ADD SWAP4 ADD SWAP2 ADD PUSH2 0x19A0 JUMP JUMPDEST PUSH1 0x64 PUSH1 0x40 MLOAD PUSH3 0x461BCD PUSH1 0xE5 SHL DUP2 MSTORE PUSH1 0x20 PUSH1 0x4 DUP3 ADD MSTORE PUSH1 0x20 PUSH1 0x24 DUP3 ADD MSTORE PUSH32 0x4552433732313A206D696E7420746F20746865207A65726F2061646472657373 PUSH1 0x44 DUP3 ADD MSTORE REVERT JUMPDEST PUSH1 0x40 MLOAD PUSH3 0x461BCD PUSH1 0xE5 SHL DUP2 MSTORE PUSH1 0x20 PUSH1 0x4 DUP3 ADD MSTORE PUSH1 0x25 PUSH1 0x24 DUP3 ADD MSTORE PUSH32 0x53756243617465676F7279204944206D75737420626520677265617465722074 PUSH1 0x44 DUP3 ADD MSTORE PUSH5 0x68616E203 PUSH1 0xDC SHL PUSH1 0x64 DUP3 ADD MSTORE PUSH1 0x84 SWAP1 REVERT JUMPDEST PUSH1 0x40 MLOAD PUSH3 0x461BCD PUSH1 0xE5 SHL DUP2 MSTORE PUSH1 0x20 PUSH1 0x4 DUP3 ADD MSTORE PUSH1 0x22 PUSH1 0x24 DUP3 ADD MSTORE PUSH32 0x43617465676F7279204944206D7573742062652067726561746572207468616E PUSH1 0x44 DUP3 ADD MSTORE PUSH2 0x203 PUSH1 0xF4 SHL PUSH1 0x64 DUP3 ADD MSTORE PUSH1 0x84 SWAP1 REVERT JUMPDEST POP CALLER PUSH1 0x0 MSTORE PUSH1 0x16 PUSH1 0x20 MSTORE PUSH1 0xFF PUSH1 0x40 PUSH1 0x0 KECCAK256 SLOAD AND DUP1 ISZERO PUSH2 0xCE3 JUMPI POP PUSH1 0x13 PUSH1 0x20 MSTORE PUSH1 0xFF PUSH1 0x40 PUSH1 0x0 KECCAK256 SLOAD AND PUSH1 0x4 DUP2 LT ISZERO PUSH2 0x6E2 JUMPI PUSH1 0x2 EQ PUSH2 0xCE3 JUMP JUMPDEST CALLVALUE PUSH2 0x612 JUMPI PUSH1 0x0 CALLDATASIZE PUSH1 0x3 NOT ADD SLT PUSH2 0x612 JUMPI PUSH1 0x20 PUSH1 0xB SLOAD PUSH1 0x40 MLOAD SWAP1 DUP2 MSTORE RETURN JUMPDEST CALLVALUE PUSH2 0x612 JUMPI PUSH1 0x20 DUP1 PUSH1 0x3 NOT CALLDATASIZE ADD SLT PUSH2 0x612 JUMPI PUSH1 0x1 PUSH1 0x1 PUSH1 0x40 SHL SUB PUSH1 0x4 CALLDATALOAD DUP2 DUP2 GT PUSH2 0x612 JUMPI PUSH2 0x1B6F SWAP1 CALLDATASIZE SWAP1 PUSH1 0x4 ADD PUSH2 0x715B JUMP JUMPDEST SWAP1 PUSH2 0x1B78 PUSH2 0x76A0 JUMP JUMPDEST PUSH2 0x1B84 DUP3 MLOAD ISZERO ISZERO PUSH2 0x8961 JUMP JUMPDEST PUSH2 0x1B8F PUSH1 0x1E SLOAD PUSH2 0x88EE JUMP JUMPDEST SWAP1 DUP2 PUSH1 0x1E SSTORE PUSH1 0x40 MLOAD PUSH2 0x1BA0 DUP2 PUSH2 0x70CB JUMP JUMPDEST PUSH1 0x0 DUP2 MSTORE PUSH1 0x40 MLOAD PUSH2 0x1BB0 DUP2 PUSH2 0x707A JUMP JUMPDEST DUP4 DUP2 MSTORE DUP6 DUP2 ADD DUP6 DUP2 MSTORE PUSH1 0x40 DUP3 ADD SWAP1 PUSH1 0x1 SWAP6 DUP7 DUP4 MSTORE PUSH1 0x60 DUP5 ADD SWAP5 DUP6 MSTORE PUSH1 0x0 MSTORE PUSH1 0xE DUP9 MSTORE PUSH1 0x40 PUSH1 0x0 KECCAK256 SWAP3 MLOAD DUP4 SSTORE DUP6 DUP4 ADD SWAP1 MLOAD DUP1 MLOAD SWAP1 DUP7 DUP3 GT PUSH2 0x1469 JUMPI PUSH2 0x1BFE DUP3 PUSH2 0x1BF8 DUP6 SLOAD PUSH2 0x71EA JUMP JUMPDEST DUP6 PUSH2 0x7C38 JUMP JUMPDEST DUP10 SWAP1 PUSH1 0x1F DUP4 GT PUSH1 0x1 EQ PUSH2 0x1CED JUMPI SWAP2 DUP1 PUSH2 0x1C3D SWAP5 SWAP3 PUSH1 0x3 SWAP8 SWAP7 SWAP5 PUSH1 0x0 SWAP3 PUSH2 0x1CE2 JUMPI JUMPDEST POP POP PUSH1 0x0 NOT DUP3 DUP9 SHL SHR NOT AND SWAP1 DUP10 SHL OR SWAP1 SSTORE JUMPDEST MLOAD ISZERO ISZERO PUSH1 0x2 DUP4 ADD PUSH2 0x7A4A JUMP JUMPDEST ADD SWAP1 MLOAD DUP1 MLOAD SWAP3 DUP4 GT PUSH2 0x1469 JUMPI PUSH1 0x1 PUSH1 0x40 SHL DUP4 GT PUSH2 0x1469 JUMPI DUP6 SWAP1 DUP3 SLOAD DUP5 DUP5 SSTORE DUP1 DUP6 LT PUSH2 0x1CC5 JUMPI JUMPDEST POP ADD SWAP1 PUSH1 0x0 MSTORE DUP5 PUSH1 0x0 KECCAK256 PUSH1 0x0 JUMPDEST DUP4 DUP2 LT PUSH2 0x1CB4 JUMPI PUSH1 0x1E SLOAD PUSH1 0x40 MLOAD DUP9 DUP2 MSTORE PUSH32 0x11C167CC9B439F0AD8BEC5588159F1B06B813BC38D50C867A41B23B077BE2C1A SWAP1 DUP1 PUSH2 0x1CAF DUP2 DUP13 ADD DUP12 PUSH2 0x6D0C JUMP JUMPDEST SUB SWAP1 LOG2 STOP JUMPDEST DUP3 MLOAD DUP3 DUP3 ADD SSTORE SWAP2 DUP7 ADD SWAP2 DUP5 ADD PUSH2 0x1C70 JUMP JUMPDEST PUSH2 0x1CDC SWAP1 DUP5 PUSH1 0x0 MSTORE DUP6 DUP5 PUSH1 0x0 KECCAK256 SWAP2 DUP3 ADD SWAP2 ADD PUSH2 0x7C21 JUMP JUMPDEST DUP8 PUSH2 0x1C63 JUMP JUMPDEST ADD MLOAD SWAP1 POP DUP13 DUP1 PUSH2 0x1C1F JUMP JUMPDEST DUP9 SWAP3 SWAP2 PUSH1 0x1F NOT DUP4 AND SWAP2 DUP6 PUSH1 0x0 MSTORE DUP13 PUSH1 0x0 KECCAK256 SWAP3 DUP14 PUSH1 0x0 SWAP1 JUMPDEST DUP3 DUP3 LT PUSH2 0x1D47 JUMPI POP POP SWAP2 PUSH1 0x3 SWAP9 SWAP8 SWAP6 SWAP4 SWAP2 DUP6 PUSH2 0x1C3D SWAP9 SWAP7 SWAP5 LT PUSH2 0x1D2F JUMPI JUMPDEST POP POP POP DUP2 SHL ADD SWAP1 SSTORE PUSH2 0x1C31 JUMP JUMPDEST ADD MLOAD PUSH1 0x0 NOT DUP4 DUP11 SHL PUSH1 0xF8 AND SHR NOT AND SWAP1 SSTORE DUP13 DUP1 DUP1 PUSH2 0x1D22 JUMP JUMPDEST DUP4 DUP6 ADD MLOAD DUP7 SSTORE DUP14 SWAP8 SWAP1 SWAP6 ADD SWAP5 SWAP4 DUP5 ADD SWAP4 ADD DUP15 PUSH2 0x1D04 JUMP JUMPDEST CALLVALUE PUSH2 0x612 JUMPI PUSH1 0x0 CALLDATASIZE PUSH1 0x3 NOT ADD SLT PUSH2 0x612 JUMPI PUSH1 0x1E SLOAD PUSH2 0x1D7B DUP2 PUSH2 0x819A JUMP JUMPDEST PUSH2 0x1D88 PUSH1 0x40 MLOAD SWAP2 DUP3 PUSH2 0x70E6 JUMP JUMPDEST DUP2 DUP2 MSTORE PUSH1 0x1F NOT PUSH2 0x1D97 DUP4 PUSH2 0x819A JUMP JUMPDEST ADD CALLDATASIZE PUSH1 0x20 DUP4 ADD CALLDATACOPY PUSH2 0x1DA7 DUP3 PUSH2 0x819A JUMP JUMPDEST SWAP2 PUSH2 0x1DB5 PUSH1 0x40 MLOAD SWAP4 DUP5 PUSH2 0x70E6 JUMP JUMPDEST DUP1 DUP4 MSTORE PUSH2 0x1DD1 PUSH1 0x1F NOT PUSH2 0x1DC7 DUP4 PUSH2 0x819A JUMP JUMPDEST ADD PUSH1 0x20 DUP6 ADD PUSH2 0x8B11 JUMP JUMPDEST PUSH2 0x1DDA DUP2 PUSH2 0x819A JUMP JUMPDEST SWAP3 PUSH2 0x1DE8 PUSH1 0x40 MLOAD SWAP5 DUP6 PUSH2 0x70E6 JUMP JUMPDEST DUP2 DUP5 MSTORE PUSH1 0x1F NOT PUSH2 0x1DF7 DUP4 PUSH2 0x819A JUMP JUMPDEST ADD CALLDATASIZE PUSH1 0x20 DUP7 ADD CALLDATACOPY PUSH2 0x1E07 DUP3 PUSH2 0x819A JUMP JUMPDEST SWAP1 PUSH2 0x1E15 PUSH1 0x40 MLOAD SWAP3 DUP4 PUSH2 0x70E6 JUMP JUMPDEST DUP3 DUP3 MSTORE PUSH2 0x1E21 DUP4 PUSH2 0x819A JUMP JUMPDEST SWAP3 PUSH2 0x1E34 PUSH1 0x20 DUP5 ADD SWAP5 PUSH1 0x1F NOT ADD DUP6 PUSH2 0x8B11 JUMP JUMPDEST PUSH1 0x1 JUMPDEST DUP2 DUP2 GT ISZERO PUSH2 0x1F70 JUMPI POP POP PUSH2 0x1E56 PUSH1 0x40 MLOAD SWAP5 PUSH1 0x80 DUP7 MSTORE PUSH1 0x80 DUP7 ADD SWAP1 PUSH2 0x766C JUMP JUMPDEST DUP5 DUP2 SUB PUSH1 0x20 DUP7 ADD MSTORE DUP2 MLOAD DUP1 DUP3 MSTORE PUSH1 0x20 DUP3 ADD SWAP2 PUSH1 0x20 DUP1 DUP4 PUSH1 0x5 SHL DUP4 ADD ADD SWAP5 ADD SWAP3 PUSH1 0x0 SWAP2 JUMPDEST DUP4 DUP4 LT PUSH2 0x1F43 JUMPI POP POP POP POP POP DUP4 DUP2 SUB PUSH1 0x40 DUP6 ADD MSTORE PUSH1 0x20 DUP1 DUP7 MLOAD SWAP3 DUP4 DUP2 MSTORE ADD SWAP6 ADD SWAP1 PUSH1 0x0 JUMPDEST DUP2 DUP2 LT PUSH2 0x1F2B JUMPI POP POP POP DUP3 DUP5 SUB PUSH1 0x60 DUP5 ADD MSTORE MLOAD DUP1 DUP5 MSTORE PUSH1 0x20 DUP5 ADD SWAP1 PUSH1 0x20 DUP2 PUSH1 0x5 SHL DUP7 ADD ADD SWAP3 SWAP2 PUSH1 0x0 SWAP1 JUMPDEST DUP3 DUP3 LT PUSH2 0x1ED4 JUMPI DUP6 DUP6 SUB DUP7 RETURN JUMPDEST SWAP1 SWAP2 SWAP3 SWAP4 PUSH1 0x1F NOT DUP8 DUP3 SUB ADD DUP3 MSTORE DUP5 MLOAD SWAP1 PUSH1 0x20 DUP1 DUP4 MLOAD SWAP3 DUP4 DUP2 MSTORE ADD SWAP3 ADD SWAP1 PUSH1 0x0 SWAP1 JUMPDEST DUP1 DUP3 LT PUSH2 0x1F13 JUMPI POP POP POP PUSH1 0x20 DUP1 PUSH1 0x1 SWAP3 SWAP7 ADD SWAP3 ADD SWAP3 ADD SWAP1 SWAP3 SWAP2 PUSH2 0x1EC7 JUMP JUMPDEST SWAP1 SWAP2 SWAP3 PUSH1 0x20 DUP1 PUSH1 0x1 SWAP3 DUP7 MLOAD DUP2 MSTORE ADD SWAP5 ADD SWAP3 ADD SWAP1 PUSH2 0x1EF5 JUMP JUMPDEST DUP3 MLOAD ISZERO ISZERO DUP8 MSTORE PUSH1 0x20 SWAP7 DUP8 ADD SWAP7 SWAP1 SWAP3 ADD SWAP2 PUSH1 0x1 ADD PUSH2 0x1E9D JUMP JUMPDEST SWAP1 SWAP2 SWAP3 SWAP4 SWAP5 PUSH1 0x20 DUP1 PUSH2 0x1F61 PUSH1 0x1 SWAP4 PUSH1 0x1F NOT DUP7 DUP3 SUB ADD DUP8 MSTORE DUP10 MLOAD PUSH2 0x6D0C JUMP JUMPDEST SWAP8 ADD SWAP4 ADD SWAP4 ADD SWAP2 SWAP4 SWAP3 SWAP1 PUSH2 0x1E79 JUMP JUMPDEST DUP1 PUSH1 0x0 MSTORE PUSH1 0xE PUSH1 0x20 MSTORE PUSH1 0x40 PUSH1 0x0 KECCAK256 SWAP1 PUSH2 0x1FC3 PUSH1 0x3 PUSH1 0x40 MLOAD SWAP4 PUSH2 0x1F91 DUP6 PUSH2 0x707A JUMP JUMPDEST DUP1 SLOAD DUP6 MSTORE PUSH1 0x40 MLOAD PUSH2 0x1FA9 DUP2 PUSH2 0x3FB DUP2 PUSH1 0x1 DUP7 ADD PUSH2 0x7224 JUMP JUMPDEST PUSH1 0x20 DUP7 ADD MSTORE PUSH1 0xFF PUSH1 0x2 DUP3 ADD SLOAD AND ISZERO ISZERO PUSH1 0x40 DUP7 ADD MSTORE ADD PUSH2 0x8AC2 JUMP JUMPDEST PUSH1 0x60 DUP4 ADD MSTORE DUP2 MLOAD PUSH2 0x1FDE JUMPI JUMPDEST PUSH2 0x1FD9 SWAP2 POP PUSH2 0x88EE JUMP JUMPDEST PUSH2 0x1E37 JUMP JUMPDEST DUP1 PUSH1 0x0 NOT DUP2 ADD GT PUSH2 0x1453 JUMPI PUSH1 0x60 DUP3 PUSH2 0x1FD9 SWAP4 MLOAD PUSH2 0x1FFF PUSH1 0x0 NOT DUP6 ADD DUP12 PUSH2 0x894D JUMP JUMPDEST MSTORE PUSH1 0x20 DUP2 ADD MLOAD PUSH2 0x2013 PUSH1 0x0 NOT DUP6 ADD DUP9 PUSH2 0x894D JUMP JUMPDEST MSTORE PUSH2 0x2022 PUSH1 0x0 NOT DUP5 ADD DUP8 PUSH2 0x894D JUMP JUMPDEST POP PUSH1 0x40 DUP2 ADD MLOAD ISZERO ISZERO PUSH2 0x2038 PUSH1 0x0 NOT DUP6 ADD DUP13 PUSH2 0x894D JUMP JUMPDEST MSTORE ADD MLOAD PUSH2 0x2049 PUSH1 0x0 NOT DUP4 ADD DUP8 PUSH2 0x894D JUMP JUMPDEST MSTORE PUSH2 0x2058 PUSH1 0x0 NOT DUP3 ADD DUP7 PUSH2 0x894D JUMP JUMPDEST POP PUSH2 0x1FCF JUMP JUMPDEST CALLVALUE PUSH2 0x612 JUMPI PUSH1 0x60 CALLDATASIZE PUSH1 0x3 NOT ADD SLT PUSH2 0x612 JUMPI PUSH1 0x4 CALLDATALOAD PUSH1 0x1 PUSH1 0x1 PUSH1 0x40 SHL SUB DUP2 GT PUSH2 0x612 JUMPI PUSH2 0x208E SWAP1 CALLDATASIZE SWAP1 PUSH1 0x4 ADD PUSH2 0x715B JUMP JUMPDEST PUSH1 0x24 CALLDATALOAD PUSH1 0x1 PUSH1 0x1 PUSH1 0x40 SHL SUB DUP2 GT PUSH2 0x612 JUMPI PUSH2 0x20AD SWAP1 CALLDATASIZE SWAP1 PUSH1 0x4 ADD PUSH2 0x715B JUMP JUMPDEST PUSH1 0x44 CALLDATALOAD PUSH1 0x1 PUSH1 0x1 PUSH1 0x40 SHL SUB DUP2 GT PUSH2 0x612 JUMPI PUSH2 0x20CC SWAP1 CALLDATASIZE SWAP1 PUSH1 0x4 ADD PUSH2 0x715B JUMP JUMPDEST CALLER PUSH1 0x0 MSTORE PUSH1 0x1A PUSH1 0x20 MSTORE PUSH1 0xFF PUSH1 0x40 PUSH1 0x0 KECCAK256 SLOAD AND PUSH2 0x248C JUMPI PUSH2 0x20EE DUP4 MLOAD ISZERO ISZERO PUSH2 0x7E53 JUMP JUMPDEST DUP2 MLOAD ISZERO PUSH2 0x244F JUMPI PUSH1 0x40 MLOAD SWAP2 PUSH2 0x2102 DUP4 PUSH2 0x7095 JUMP JUMPDEST DUP4 DUP4 MSTORE PUSH1 0x20 DUP4 ADD MSTORE PUSH1 0x40 DUP3 ADD MSTORE TIMESTAMP PUSH1 0x60 DUP3 ADD MSTORE PUSH1 0x1 PUSH1 0x80 DUP3 ADD MSTORE CALLER PUSH1 0x0 MSTORE PUSH1 0x1B PUSH1 0x20 MSTORE PUSH1 0x40 PUSH1 0x0 KECCAK256 SWAP2 DUP2 MLOAD SWAP3 DUP4 MLOAD PUSH1 0x1 DUP1 PUSH1 0x40 SHL SUB DUP2 GT PUSH2 0x1469 JUMPI PUSH2 0x2151 DUP2 PUSH2 0x214B DUP5 SLOAD PUSH2 0x71EA JUMP JUMPDEST DUP5 PUSH2 0x7C38 JUMP JUMPDEST PUSH1 0x20 PUSH1 0x1F DUP3 GT PUSH1 0x1 EQ PUSH2 0x23E6 JUMPI DUP2 SWAP3 SWAP4 SWAP5 SWAP6 PUSH1 0x0 SWAP3 PUSH2 0x23DB JUMPI JUMPDEST POP POP DUP2 PUSH1 0x1 SHL SWAP2 PUSH1 0x0 NOT SWAP1 PUSH1 0x3 SHL SHR NOT AND OR DUP2 SSTORE JUMPDEST PUSH1 0x20 DUP4 ADD MLOAD DUP1 MLOAD SWAP1 SWAP4 SWAP1 PUSH1 0x1 PUSH1 0x1 PUSH1 0x40 SHL SUB DUP2 GT PUSH2 0x1469 JUMPI PUSH2 0x21B2 DUP2 PUSH2 0x21A9 PUSH1 0x1 DUP7 ADD SLOAD PUSH2 0x71EA JUMP JUMPDEST PUSH1 0x1 DUP7 ADD PUSH2 0x7C38 JUMP JUMPDEST PUSH1 0x20 PUSH1 0x1F DUP3 GT PUSH1 0x1 EQ PUSH2 0x236C JUMPI DUP2 SWAP3 SWAP4 SWAP5 SWAP6 PUSH1 0x0 SWAP3 PUSH2 0x2361 JUMPI JUMPDEST POP POP DUP2 PUSH1 0x1 SHL SWAP2 PUSH1 0x0 NOT SWAP1 PUSH1 0x3 SHL SHR NOT AND OR PUSH1 0x1 DUP4 ADD SSTORE JUMPDEST PUSH1 0x40 DUP2 ADD MLOAD DUP1 MLOAD PUSH1 0x2 DUP5 ADD SWAP2 PUSH1 0x1 PUSH1 0x1 PUSH1 0x40 SHL SUB DUP3 GT PUSH2 0x1469 JUMPI PUSH2 0x220C DUP3 PUSH2 0x1BF8 DUP6 SLOAD PUSH2 0x71EA JUMP JUMPDEST PUSH1 0x20 SWAP1 PUSH1 0x1F DUP4 GT PUSH1 0x1 EQ PUSH2 0x22EF JUMPI SWAP3 DUP3 PUSH1 0x80 SWAP4 PUSH2 0x225A SWAP8 SWAP7 SWAP4 PUSH1 0x4 SWAP7 PUSH1 0x0 SWAP3 PUSH2 0x22E4 JUMPI JUMPDEST POP POP DUP2 PUSH1 0x1 SHL SWAP2 PUSH1 0x0 NOT SWAP1 PUSH1 0x3 SHL SHR NOT AND OR SWAP1 SSTORE JUMPDEST PUSH1 0x60 DUP2 ADD MLOAD PUSH1 0x3 DUP6 ADD SSTORE ADD MLOAD ISZERO ISZERO SWAP2 ADD PUSH2 0x7A4A JUMP JUMPDEST CALLER PUSH1 0x0 SWAP1 DUP2 MSTORE PUSH1 0x1A PUSH1 0x20 MSTORE PUSH1 0x40 SWAP1 KECCAK256 DUP1 SLOAD PUSH1 0xFF NOT AND PUSH1 0x1 OR SWAP1 SSTORE PUSH1 0x1C SLOAD PUSH1 0x1 PUSH1 0x40 SHL DUP2 LT ISZERO PUSH2 0x1469 JUMPI DUP1 PUSH1 0x1 PUSH2 0x2293 SWAP3 ADD PUSH1 0x1C SSTORE PUSH2 0x74AD JUMP JUMPDEST DUP2 SLOAD SWAP1 PUSH1 0x3 SHL SWAP1 CALLER DUP3 SHL SWAP2 PUSH1 0x1 DUP1 PUSH1 0xA0 SHL SUB SWAP1 SHL NOT AND OR SWAP1 SSTORE PUSH32 0x48CAC28AD4DC618E15F4C2DD5E97751182F166DE97B25618318B2112AA951A2F PUSH1 0x40 MLOAD PUSH1 0x20 DUP2 MSTORE DUP1 PUSH2 0x1CAF CALLER SWAP5 PUSH1 0x20 DUP4 ADD SWAP1 PUSH2 0x6D0C JUMP JUMPDEST ADD MLOAD SWAP1 POP DUP10 DUP1 PUSH2 0x2230 JUMP JUMPDEST SWAP1 PUSH1 0x1F NOT DUP4 AND SWAP2 DUP5 PUSH1 0x0 MSTORE PUSH1 0x20 PUSH1 0x0 KECCAK256 SWAP3 PUSH1 0x0 JUMPDEST DUP2 DUP2 LT PUSH2 0x2349 JUMPI POP SWAP4 PUSH2 0x225A SWAP8 SWAP7 SWAP4 PUSH1 0x4 SWAP7 SWAP4 PUSH1 0x1 SWAP4 DUP4 PUSH1 0x80 SWAP9 LT PUSH2 0x2330 JUMPI JUMPDEST POP POP POP DUP2 SHL ADD SWAP1 SSTORE PUSH2 0x2245 JUMP JUMPDEST ADD MLOAD PUSH1 0x0 NOT PUSH1 0xF8 DUP5 PUSH1 0x3 SHL AND SHR NOT AND SWAP1 SSTORE DUP10 DUP1 DUP1 PUSH2 0x2323 JUMP JUMPDEST SWAP3 SWAP4 PUSH1 0x20 PUSH1 0x1 DUP2 SWAP3 DUP8 DUP7 ADD MLOAD DUP2 SSTORE ADD SWAP6 ADD SWAP4 ADD PUSH2 0x2303 JUMP JUMPDEST ADD MLOAD SWAP1 POP DUP6 DUP1 PUSH2 0x21CC JUMP JUMPDEST PUSH1 0x1 DUP5 ADD PUSH1 0x0 MSTORE PUSH1 0x20 PUSH1 0x0 KECCAK256 SWAP1 PUSH1 0x0 JUMPDEST PUSH1 0x1F NOT DUP5 AND DUP2 LT PUSH2 0x23C3 JUMPI POP PUSH1 0x1 SWAP4 SWAP5 SWAP6 SWAP7 DUP4 PUSH1 0x1F NOT DUP2 AND LT PUSH2 0x23AA JUMPI JUMPDEST POP POP POP DUP2 SHL ADD PUSH1 0x1 DUP4 ADD SSTORE PUSH2 0x21E4 JUMP JUMPDEST ADD MLOAD PUSH1 0x0 NOT PUSH1 0xF8 DUP5 PUSH1 0x3 SHL AND SHR NOT AND SWAP1 SSTORE DUP6 DUP1 DUP1 PUSH2 0x239A JUMP JUMPDEST SWAP1 SWAP2 PUSH1 0x20 PUSH1 0x1 DUP2 SWAP3 DUP6 DUP12 ADD MLOAD DUP2 SSTORE ADD SWAP4 ADD SWAP2 ADD PUSH2 0x237C JUMP JUMPDEST ADD MLOAD SWAP1 POP DUP6 DUP1 PUSH2 0x216B JUMP JUMPDEST DUP3 PUSH1 0x0 MSTORE PUSH1 0x20 PUSH1 0x0 KECCAK256 SWAP1 PUSH1 0x0 JUMPDEST PUSH1 0x1F NOT DUP5 AND DUP2 LT PUSH2 0x2437 JUMPI POP PUSH1 0x1 SWAP4 SWAP5 SWAP6 SWAP7 DUP4 PUSH1 0x1F NOT DUP2 AND LT PUSH2 0x241E JUMPI JUMPDEST POP POP POP DUP2 SHL ADD DUP2 SSTORE PUSH2 0x2180 JUMP JUMPDEST ADD MLOAD PUSH1 0x0 NOT PUSH1 0xF8 DUP5 PUSH1 0x3 SHL AND SHR NOT AND SWAP1 SSTORE DUP6 DUP1 DUP1 PUSH2 0x2411 JUMP JUMPDEST SWAP1 SWAP2 PUSH1 0x20 PUSH1 0x1 DUP2 SWAP3 DUP6 DUP12 ADD MLOAD DUP2 SSTORE ADD SWAP4 ADD SWAP2 ADD PUSH2 0x23F3 JUMP JUMPDEST PUSH1 0x40 MLOAD PUSH3 0x461BCD PUSH1 0xE5 SHL DUP2 MSTORE PUSH1 0x20 PUSH1 0x4 DUP3 ADD MSTORE PUSH1 0x15 PUSH1 0x24 DUP3 ADD MSTORE PUSH21 0x456D61696C2063616E6E6F7420626520656D707479 PUSH1 0x58 SHL PUSH1 0x44 DUP3 ADD MSTORE PUSH1 0x64 SWAP1 REVERT JUMPDEST PUSH1 0x40 MLOAD PUSH3 0x461BCD PUSH1 0xE5 SHL DUP2 MSTORE PUSH1 0x20 PUSH1 0x4 DUP3 ADD MSTORE PUSH1 0x17 PUSH1 0x24 DUP3 ADD MSTORE PUSH23 0x155CD95C88185B1C9958591E481C9959DA5CDD195C9959 PUSH1 0x4A SHL PUSH1 0x44 DUP3 ADD MSTORE PUSH1 0x64 SWAP1 REVERT JUMPDEST CALLVALUE PUSH2 0x612 JUMPI PUSH1 0x40 CALLDATASIZE PUSH1 0x3 NOT ADD SLT PUSH2 0x612 JUMPI PUSH1 0x24 CALLDATALOAD PUSH1 0x1 PUSH1 0x1 PUSH1 0x40 SHL SUB DUP2 GT PUSH2 0x612 JUMPI CALLDATASIZE PUSH1 0x23 DUP3 ADD SLT ISZERO PUSH2 0x612 JUMPI PUSH1 0x1 PUSH1 0x1 PUSH1 0x40 SHL SUB PUSH1 0x4 DUP3 ADD CALLDATALOAD GT PUSH2 0x612 JUMPI CALLDATASIZE PUSH1 0x24 DUP3 PUSH1 0x4 ADD CALLDATALOAD PUSH1 0x5 SHL DUP4 ADD ADD GT PUSH2 0x612 JUMPI PUSH1 0x4 CALLDATALOAD PUSH1 0x0 MSTORE PUSH1 0xE PUSH1 0x20 MSTORE PUSH1 0xFF PUSH1 0x2 PUSH1 0x40 PUSH1 0x0 KECCAK256 ADD SLOAD AND ISZERO PUSH2 0x2736 JUMPI PUSH1 0x0 JUMPDEST DUP2 PUSH1 0x4 ADD CALLDATALOAD DUP2 LT PUSH2 0x2549 JUMPI STOP JUMPDEST PUSH2 0x2554 PUSH1 0x1F SLOAD PUSH2 0x88EE JUMP JUMPDEST DUP1 PUSH1 0x1F SSTORE PUSH2 0x2586 PUSH2 0x256D DUP4 DUP6 PUSH1 0x4 ADD CALLDATALOAD PUSH1 0x24 DUP8 ADD PUSH2 0x89F8 JUMP JUMPDEST SWAP2 SWAP1 PUSH1 0x40 MLOAD SWAP3 PUSH2 0x257C DUP5 PUSH2 0x707A JUMP JUMPDEST DUP5 DUP5 MSTORE CALLDATASIZE SWAP2 PUSH2 0x7124 JUMP JUMPDEST SWAP2 PUSH1 0x20 DUP3 ADD SWAP3 DUP4 MSTORE PUSH1 0x4 CALLDATALOAD PUSH1 0x40 DUP4 ADD MSTORE PUSH1 0x1 PUSH1 0x60 DUP4 ADD MSTORE PUSH1 0x0 MSTORE PUSH1 0xF PUSH1 0x20 MSTORE PUSH1 0x40 PUSH1 0x0 KECCAK256 SWAP2 DUP2 MLOAD DUP4 SSTORE MLOAD DUP1 MLOAD SWAP1 PUSH1 0x1 DUP1 PUSH1 0x40 SHL SUB DUP3 GT PUSH2 0x1469 JUMPI PUSH2 0x25DA DUP3 PUSH2 0x25D1 PUSH1 0x1 DUP8 ADD SLOAD PUSH2 0x71EA JUMP JUMPDEST PUSH1 0x1 DUP8 ADD PUSH2 0x7C38 JUMP JUMPDEST PUSH1 0x20 SWAP1 PUSH1 0x1F DUP4 GT PUSH1 0x1 EQ PUSH2 0x26B8 JUMPI PUSH2 0x264C SWAP4 DUP4 PUSH2 0x26A8 SWAP8 SWAP7 SWAP5 PUSH2 0x2632 SWAP5 PUSH1 0x60 SWAP5 PUSH1 0x0 SWAP3 PUSH2 0x26AD JUMPI JUMPDEST POP POP DUP2 PUSH1 0x1 SHL SWAP2 PUSH1 0x0 NOT SWAP1 PUSH1 0x3 SHL SHR NOT AND OR PUSH1 0x1 DUP6 ADD SSTORE JUMPDEST PUSH1 0x40 DUP2 ADD MLOAD PUSH1 0x2 DUP6 ADD SSTORE ADD MLOAD ISZERO ISZERO PUSH1 0x3 DUP1 SWAP4 ADD PUSH2 0x7A4A JUMP JUMPDEST PUSH1 0x4 CALLDATALOAD PUSH1 0x0 MSTORE PUSH1 0xE PUSH1 0x20 MSTORE PUSH1 0x40 PUSH1 0x0 KECCAK256 ADD PUSH1 0x1F SLOAD SWAP1 PUSH2 0x83E6 JUMP JUMPDEST PUSH1 0x0 DUP1 MLOAD PUSH1 0x20 PUSH2 0x9916 DUP4 CODECOPY DUP2 MLOAD SWAP2 MSTORE PUSH1 0x1F SLOAD PUSH2 0x2670 DUP4 DUP7 PUSH1 0x4 ADD CALLDATALOAD PUSH1 0x24 DUP9 ADD PUSH2 0x89F8 JUMP JUMPDEST SWAP3 SWAP1 DUP4 PUSH1 0x40 MLOAD SWAP2 PUSH1 0x20 DUP4 MSTORE DUP2 PUSH1 0x20 DUP5 ADD MSTORE PUSH1 0x40 DUP4 ADD CALLDATACOPY PUSH1 0x0 PUSH1 0x40 DUP6 DUP4 ADD ADD MSTORE PUSH1 0x40 DUP2 PUSH1 0x4 CALLDATALOAD SWAP6 PUSH1 0x1F DUP1 NOT SWAP2 ADD AND DUP2 ADD SUB ADD SWAP1 LOG3 PUSH2 0x88EE JUMP JUMPDEST PUSH2 0x253C JUMP JUMPDEST ADD MLOAD SWAP1 POP DUP11 DUP1 PUSH2 0x2602 JUMP JUMPDEST SWAP1 PUSH1 0x1 DUP6 ADD PUSH1 0x0 MSTORE PUSH1 0x20 PUSH1 0x0 KECCAK256 SWAP2 PUSH1 0x0 JUMPDEST PUSH1 0x1F NOT DUP6 AND DUP2 LT PUSH2 0x271E JUMPI POP SWAP4 PUSH1 0x1 DUP5 PUSH2 0x2632 SWAP5 PUSH1 0x60 SWAP5 PUSH2 0x264C SWAP9 PUSH2 0x26A8 SWAP12 SWAP11 SWAP9 PUSH1 0x1F NOT DUP2 AND LT PUSH2 0x2705 JUMPI JUMPDEST POP POP POP DUP2 SHL ADD PUSH1 0x1 DUP6 ADD SSTORE PUSH2 0x261A JUMP JUMPDEST ADD MLOAD PUSH1 0x0 NOT PUSH1 0xF8 DUP5 PUSH1 0x3 SHL AND SHR NOT AND SWAP1 SSTORE DUP11 DUP1 DUP1 PUSH2 0x26F5 JUMP JUMPDEST SWAP2 SWAP3 PUSH1 0x20 PUSH1 0x1 DUP2 SWAP3 DUP7 DUP6 ADD MLOAD DUP2 SSTORE ADD SWAP5 ADD SWAP3 ADD PUSH2 0x26C9 JUMP JUMPDEST PUSH1 0x40 MLOAD PUSH3 0x461BCD PUSH1 0xE5 SHL DUP2 MSTORE PUSH1 0x20 PUSH1 0x4 DUP3 ADD MSTORE PUSH1 0x1A PUSH1 0x24 DUP3 ADD MSTORE PUSH26 0x506172656E742063617465676F7279206E6F7420616374697665 PUSH1 0x30 SHL PUSH1 0x44 DUP3 ADD MSTORE PUSH1 0x64 SWAP1 REVERT JUMPDEST CALLVALUE PUSH2 0x612 JUMPI PUSH1 0x20 CALLDATASIZE PUSH1 0x3 NOT ADD SLT PUSH2 0x612 JUMPI PUSH1 0x4 CALLDATALOAD PUSH2 0x2794 PUSH2 0x76A0 JUMP JUMPDEST DUP1 PUSH1 0x0 MSTORE PUSH1 0xE PUSH1 0x20 MSTORE PUSH2 0x27AD PUSH1 0x40 PUSH1 0x0 KECCAK256 SLOAD ISZERO ISZERO PUSH2 0x8A13 JUMP JUMPDEST DUP1 PUSH1 0x0 MSTORE PUSH1 0xE PUSH1 0x20 MSTORE PUSH1 0x0 DUP1 MLOAD PUSH1 0x20 PUSH2 0x98B6 DUP4 CODECOPY DUP2 MLOAD SWAP2 MSTORE PUSH2 0x27F0 PUSH1 0x40 PUSH1 0x0 KECCAK256 PUSH1 0x2 DUP2 ADD PUSH1 0xFF NOT DUP2 SLOAD AND SWAP1 SSTORE PUSH1 0x40 MLOAD SWAP2 DUP3 SWAP2 PUSH1 0x40 DUP4 MSTORE PUSH1 0x1 PUSH1 0x40 DUP5 ADD SWAP2 ADD PUSH2 0x7224 JUMP JUMPDEST PUSH1 0x0 PUSH1 0x20 DUP4 ADD MSTORE SUB SWAP1 LOG2 STOP JUMPDEST CALLVALUE PUSH2 0x612 JUMPI PUSH1 0x20 CALLDATASIZE PUSH1 0x3 NOT ADD SLT PUSH2 0x612 JUMPI PUSH2 0x2820 PUSH2 0x281B PUSH1 0x4 CALLDATALOAD PUSH2 0x7A5B JUMP JUMPDEST PUSH2 0x76F8 JUMP JUMPDEST PUSH1 0x0 PUSH1 0x40 MLOAD PUSH2 0x282E DUP2 PUSH2 0x70CB JUMP JUMPDEST MSTORE PUSH2 0x38A PUSH1 0x40 MLOAD PUSH2 0x283E DUP2 PUSH2 0x70CB JUMP JUMPDEST PUSH1 0x0 DUP2 MSTORE PUSH1 0x40 MLOAD SWAP2 DUP3 SWAP2 PUSH1 0x20 DUP4 MSTORE PUSH1 0x20 DUP4 ADD SWAP1 PUSH2 0x6D0C JUMP JUMPDEST CALLVALUE PUSH2 0x612 JUMPI PUSH1 0x20 CALLDATASIZE PUSH1 0x3 NOT ADD SLT PUSH2 0x612 JUMPI PUSH1 0x1 PUSH1 0x1 PUSH1 0xA0 SHL SUB PUSH2 0x2877 PUSH2 0x6FFB JUMP JUMPDEST AND PUSH1 0x0 MSTORE PUSH1 0x16 PUSH1 0x20 MSTORE PUSH1 0x20 PUSH1 0xFF PUSH1 0x40 PUSH1 0x0 KECCAK256 SLOAD AND PUSH1 0x40 MLOAD SWAP1 ISZERO ISZERO DUP2 MSTORE RETURN JUMPDEST CALLVALUE PUSH2 0x612 JUMPI PUSH1 0x40 CALLDATASIZE PUSH1 0x3 NOT ADD SLT PUSH2 0x612 JUMPI PUSH2 0x28AE PUSH2 0x6FFB JUMP JUMPDEST PUSH1 0x1 PUSH1 0x1 PUSH1 0xA0 SHL SUB AND PUSH1 0x0 SWAP1 DUP2 MSTORE PUSH1 0x11 PUSH1 0x20 MSTORE PUSH1 0x40 SWAP1 KECCAK256 DUP1 SLOAD PUSH1 0x24 CALLDATALOAD SWAP2 SWAP1 DUP3 LT ISZERO PUSH2 0x612 JUMPI PUSH1 0x20 SWAP2 PUSH2 0x28DF SWAP2 PUSH2 0x74DE JUMP JUMPDEST SWAP1 SLOAD PUSH1 0x40 MLOAD SWAP2 PUSH1 0x3 SHL SHR DUP2 MSTORE RETURN JUMPDEST CALLVALUE PUSH2 0x612 JUMPI PUSH1 0x20 DUP1 PUSH1 0x3 NOT CALLDATASIZE ADD SLT PUSH2 0x612 JUMPI PUSH1 0x4 CALLDATALOAD PUSH2 0x290A PUSH2 0x810E JUMP JUMPDEST POP DUP1 PUSH1 0x0 MSTORE PUSH1 0x10 DUP3 MSTORE PUSH2 0x292B PUSH1 0xFF PUSH1 0xF PUSH1 0x40 PUSH1 0x0 KECCAK256 ADD SLOAD PUSH1 0x10 SHR AND ISZERO PUSH2 0x84AB JUMP JUMPDEST DUP1 PUSH1 0x0 MSTORE PUSH1 0x17 DUP3 MSTORE PUSH2 0x2944 PUSH1 0xFF PUSH1 0x40 PUSH1 0x0 KECCAK256 SLOAD AND PUSH2 0x8466 JUMP JUMPDEST PUSH1 0x0 MSTORE PUSH1 0x10 DUP2 MSTORE PUSH1 0x40 PUSH1 0x0 KECCAK256 SWAP1 PUSH1 0x40 MLOAD SWAP2 PUSH2 0x295E DUP4 PUSH2 0x7027 JUMP JUMPDEST DUP1 SLOAD DUP4 MSTORE PUSH1 0x1 DUP1 DUP3 ADD SLOAD PUSH1 0x1 PUSH1 0x1 PUSH1 0xA0 SHL SUB AND DUP4 DUP6 ADD MSTORE PUSH1 0x40 MLOAD PUSH2 0x2989 DUP2 PUSH2 0x3FB DUP2 PUSH1 0x2 DUP8 ADD PUSH2 0x7224 JUMP JUMPDEST PUSH1 0x40 DUP6 ADD MSTORE PUSH1 0x40 MLOAD PUSH2 0x29A2 DUP2 PUSH2 0x3FB DUP2 PUSH1 0x3 DUP8 ADD PUSH2 0x7224 JUMP JUMPDEST PUSH1 0x60 DUP6 ADD MSTORE PUSH1 0x4 DUP3 ADD SLOAD PUSH1 0x80 DUP6 ADD MSTORE PUSH1 0x5 DUP3 ADD SLOAD PUSH1 0xA0 DUP6 ADD MSTORE PUSH1 0x10 PUSH1 0x6 SWAP3 PUSH2 0x29CB DUP5 DUP3 ADD PUSH2 0x8828 JUMP JUMPDEST PUSH1 0xC0 DUP8 ADD MSTORE PUSH2 0x29DC PUSH1 0x7 DUP3 ADD PUSH2 0x8828 JUMP JUMPDEST PUSH1 0xE0 DUP8 ADD MSTORE PUSH2 0x29ED PUSH1 0x8 DUP3 ADD PUSH2 0x8828 JUMP JUMPDEST PUSH2 0x100 DUP8 ADD MSTORE PUSH1 0x40 MLOAD PUSH2 0x2A07 DUP2 PUSH2 0x3FB DUP2 PUSH1 0x9 DUP7 ADD PUSH2 0x7224 JUMP JUMPDEST PUSH2 0x120 DUP8 ADD MSTORE PUSH1 0x40 MLOAD PUSH2 0x2A21 DUP2 PUSH2 0x3FB DUP2 PUSH1 0xA DUP7 ADD PUSH2 0x7224 JUMP JUMPDEST PUSH2 0x140 DUP8 ADD MSTORE PUSH1 0xB DUP2 ADD SLOAD PUSH2 0x160 DUP8 ADD MSTORE PUSH1 0x40 MLOAD PUSH2 0x2A46 DUP2 PUSH2 0x3FB DUP2 PUSH1 0xC DUP7 ADD PUSH2 0x7224 JUMP JUMPDEST PUSH2 0x180 DUP8 ADD MSTORE PUSH1 0x40 MLOAD PUSH2 0x2A60 DUP2 PUSH2 0x3FB DUP2 PUSH1 0xD DUP7 ADD PUSH2 0x7224 JUMP JUMPDEST PUSH2 0x1A0 DUP8 ADD MSTORE PUSH1 0xE DUP2 ADD SLOAD PUSH2 0x1C0 DUP8 ADD MSTORE PUSH1 0xFF PUSH1 0xF DUP3 ADD SLOAD DUP2 DUP2 AND ISZERO ISZERO PUSH2 0x1E0 DUP10 ADD MSTORE DUP2 DUP2 PUSH1 0x8 SHR AND ISZERO ISZERO PUSH2 0x200 DUP10 ADD MSTORE DUP4 SHR AND ISZERO ISZERO PUSH2 0x220 DUP8 ADD MSTORE ADD SWAP2 DUP3 SLOAD SWAP1 PUSH2 0x2AAA DUP3 PUSH2 0x819A JUMP JUMPDEST SWAP4 PUSH2 0x2AB8 PUSH1 0x40 MLOAD SWAP6 DUP7 PUSH2 0x70E6 JUMP JUMPDEST DUP3 DUP6 MSTORE PUSH1 0x0 SWAP1 DUP2 MSTORE DUP6 DUP2 KECCAK256 DUP7 DUP1 DUP8 ADD JUMPDEST DUP6 DUP5 LT PUSH2 0x2AEA JUMPI PUSH2 0x240 DUP11 ADD DUP9 SWAP1 MSTORE PUSH1 0x40 MLOAD DUP3 DUP2 MSTORE DUP1 PUSH2 0x38A DUP2 DUP6 ADD DUP14 PUSH2 0x6E49 JUMP JUMPDEST DUP7 SWAP2 DUP6 SWAP2 PUSH2 0x2AF7 DUP6 PUSH2 0x888D JUMP JUMPDEST DUP2 MSTORE ADD SWAP3 ADD SWAP3 ADD SWAP2 SWAP1 DUP8 SWAP1 PUSH2 0x2AC8 JUMP JUMPDEST CALLVALUE PUSH2 0x612 JUMPI PUSH1 0x20 CALLDATASIZE PUSH1 0x3 NOT ADD SLT PUSH2 0x612 JUMPI PUSH1 0x20 PUSH1 0x1 PUSH1 0x1 PUSH1 0xA0 SHL SUB DUP1 PUSH2 0x2B2B PUSH2 0x6FFB JUMP JUMPDEST AND PUSH1 0x0 MSTORE PUSH1 0x19 DUP3 MSTORE PUSH1 0x40 PUSH1 0x0 KECCAK256 SLOAD AND PUSH1 0x40 MLOAD SWAP1 DUP2 MSTORE RETURN JUMPDEST CALLVALUE PUSH2 0x612 JUMPI PUSH1 0x80 CALLDATASIZE PUSH1 0x3 NOT ADD SLT PUSH2 0x612 JUMPI PUSH2 0x2B5B PUSH2 0x6FFB JUMP JUMPDEST PUSH2 0x2B63 PUSH2 0x7011 JUMP JUMPDEST PUSH1 0x64 CALLDATALOAD SWAP2 PUSH1 0x1 PUSH1 0x1 PUSH1 0x40 SHL SUB DUP4 GT PUSH2 0x612 JUMPI CALLDATASIZE PUSH1 0x23 DUP5 ADD SLT ISZERO PUSH2 0x612 JUMPI PUSH2 0x2B97 PUSH2 0x8C2 SWAP4 CALLDATASIZE SWAP1 PUSH1 0x24 DUP2 PUSH1 0x4 ADD CALLDATALOAD SWAP2 ADD PUSH2 0x7124 JUMP JUMPDEST SWAP2 PUSH1 0x44 CALLDATALOAD SWAP2 PUSH2 0x77EB JUMP JUMPDEST CALLVALUE PUSH2 0x612 JUMPI PUSH1 0x20 DUP1 PUSH1 0x3 NOT CALLDATASIZE ADD SLT PUSH2 0x612 JUMPI PUSH1 0x1 PUSH1 0x1 PUSH1 0xA0 SHL SUB SWAP1 DUP2 PUSH2 0x2BC5 PUSH2 0x6FFB JUMP JUMPDEST AND PUSH1 0x0 MSTORE PUSH1 0x14 DUP2 MSTORE PUSH1 0x40 PUSH1 0x0 KECCAK256 DUP1 SLOAD SWAP1 PUSH2 0x2BDE DUP3 PUSH2 0x819A JUMP JUMPDEST SWAP3 PUSH2 0x2BEC PUSH1 0x40 MLOAD SWAP5 DUP6 PUSH2 0x70E6 JUMP JUMPDEST DUP3 DUP5 MSTORE PUSH1 0x0 SWAP2 DUP3 MSTORE DUP1 DUP3 KECCAK256 DUP2 DUP6 ADD JUMPDEST DUP5 DUP5 LT PUSH2 0x2C10 JUMPI PUSH1 0x40 MLOAD DUP1 PUSH2 0x38A DUP9 DUP3 PUSH2 0x7362 JUMP JUMPDEST PUSH1 0xE DUP4 PUSH1 0x1 SWAP3 PUSH1 0x40 MLOAD PUSH2 0x2C22 DUP2 PUSH2 0x7043 JUMP JUMPDEST DUP6 SLOAD DUP2 MSTORE DUP5 DUP7 ADD SLOAD DUP4 DUP3 ADD MSTORE PUSH1 0x2 DUP7 ADD SLOAD PUSH1 0x40 DUP3 ADD MSTORE PUSH1 0x3 DUP7 ADD SLOAD PUSH1 0x60 DUP3 ADD MSTORE DUP11 PUSH1 0x4 DUP8 ADD SLOAD AND PUSH1 0x80 DUP3 ADD MSTORE PUSH1 0xFF PUSH1 0x5 DUP8 ADD SLOAD PUSH1 0xA0 DUP14 DUP3 AND DUP2 DUP6 ADD MSTORE SHR AND ISZERO ISZERO PUSH1 0xC0 DUP3 ADD MSTORE PUSH2 0x2C73 PUSH1 0x6 DUP8 ADD PUSH2 0x7556 JUMP JUMPDEST PUSH1 0xE0 DUP3 ADD MSTORE DUP2 MSTORE ADD SWAP3 ADD SWAP4 ADD SWAP3 SWAP1 PUSH2 0x2BFB JUMP JUMPDEST CALLVALUE PUSH2 0x612 JUMPI PUSH1 0x20 CALLDATASIZE PUSH1 0x3 NOT ADD SLT PUSH2 0x612 JUMPI PUSH1 0x4 CALLDATALOAD PUSH1 0x0 MSTORE PUSH1 0x17 PUSH1 0x20 MSTORE PUSH1 0x20 PUSH1 0xFF PUSH1 0x40 PUSH1 0x0 KECCAK256 SLOAD AND PUSH1 0x40 MLOAD SWAP1 ISZERO ISZERO DUP2 MSTORE RETURN JUMPDEST CALLVALUE PUSH2 0x612 JUMPI PUSH1 0x20 DUP1 PUSH1 0x3 NOT CALLDATASIZE ADD SLT PUSH2 0x612 JUMPI PUSH2 0x2DEF SWAP1 PUSH2 0x38A PUSH2 0x2CD8 PUSH2 0x6FFB JUMP JUMPDEST PUSH2 0x2CE0 PUSH2 0x7D72 JUMP JUMPDEST POP PUSH1 0x1 DUP1 PUSH1 0xA0 SHL SUB AND SWAP2 DUP3 PUSH1 0x0 MSTORE PUSH1 0x16 DUP2 MSTORE PUSH2 0x2D03 PUSH1 0xFF PUSH1 0x40 PUSH1 0x0 KECCAK256 SLOAD AND PUSH2 0x7D2E JUMP JUMPDEST DUP3 PUSH1 0x0 MSTORE PUSH1 0xD DUP2 MSTORE PUSH1 0x40 PUSH1 0x0 KECCAK256 SWAP3 PUSH1 0xFF PUSH1 0x6 PUSH1 0x40 MLOAD SWAP6 PUSH2 0x2D22 DUP8 PUSH2 0x705F JUMP JUMPDEST PUSH1 0x40 MLOAD PUSH2 0x2D33 DUP2 PUSH2 0x3FB DUP2 DUP6 PUSH2 0x7224 JUMP JUMPDEST DUP8 MSTORE PUSH1 0x40 MLOAD PUSH2 0x2D49 DUP2 PUSH2 0x3FB DUP2 PUSH1 0x1 DUP7 ADD PUSH2 0x7224 JUMP JUMPDEST DUP6 DUP9 ADD MSTORE PUSH1 0x40 MLOAD PUSH2 0x2D61 DUP2 PUSH2 0x3FB DUP2 PUSH1 0x2 DUP7 ADD PUSH2 0x7224 JUMP JUMPDEST PUSH1 0x40 DUP9 ADD MSTORE PUSH1 0x40 MLOAD PUSH2 0x2D7A DUP2 PUSH2 0x3FB DUP2 PUSH1 0x3 DUP7 ADD PUSH2 0x7224 JUMP JUMPDEST PUSH1 0x60 DUP9 ADD MSTORE PUSH1 0x40 MLOAD PUSH2 0x2D93 DUP2 PUSH2 0x3FB DUP2 PUSH1 0x4 DUP7 ADD PUSH2 0x7224 JUMP JUMPDEST PUSH1 0x80 DUP9 ADD MSTORE PUSH1 0x5 DUP2 ADD SLOAD PUSH1 0xA0 DUP9 ADD MSTORE ADD SLOAD AND ISZERO ISZERO PUSH1 0xC0 DUP6 ADD MSTORE PUSH1 0x0 MSTORE PUSH1 0x13 DUP2 MSTORE PUSH1 0xFF PUSH1 0x40 PUSH1 0x0 KECCAK256 SLOAD AND PUSH1 0x12 DUP3 MSTORE PUSH1 0x40 PUSH1 0x0 KECCAK256 SLOAD PUSH1 0x11 DUP4 MSTORE PUSH2 0x2DF8 PUSH2 0x2DDA PUSH1 0x40 PUSH1 0x0 KECCAK256 PUSH2 0x8AC2 JUMP JUMPDEST SWAP3 PUSH1 0x40 MLOAD SWAP8 DUP9 SWAP8 PUSH1 0x80 DUP10 MSTORE PUSH1 0x80 DUP10 ADD SWAP1 PUSH2 0x7420 JUMP JUMPDEST SWAP5 DUP8 ADD SWAP1 PUSH2 0x74A0 JUMP JUMPDEST PUSH1 0x40 DUP6 ADD MSTORE DUP4 DUP3 SUB PUSH1 0x60 DUP6 ADD MSTORE PUSH2 0x766C JUMP JUMPDEST CALLVALUE PUSH2 0x612 JUMPI PUSH1 0x20 CALLDATASIZE PUSH1 0x3 NOT ADD SLT PUSH2 0x612 JUMPI PUSH2 0x2E23 PUSH2 0x6FFB JUMP JUMPDEST PUSH2 0x2E2B PUSH2 0x76A0 JUMP JUMPDEST PUSH1 0x1 PUSH1 0x1 PUSH1 0xA0 SHL SUB AND DUP1 ISZERO PUSH2 0x2E76 JUMPI PUSH1 0x40 PUSH1 0x0 DUP1 MLOAD PUSH1 0x20 PUSH2 0x9876 DUP4 CODECOPY DUP2 MLOAD SWAP2 MSTORE SWAP2 CALLER PUSH1 0x0 MSTORE PUSH1 0x19 PUSH1 0x20 MSTORE DUP2 PUSH1 0x0 KECCAK256 DUP2 PUSH1 0x1 DUP1 PUSH1 0xA0 SHL SUB NOT DUP3 SLOAD AND OR SWAP1 SSTORE DUP2 MLOAD SWAP1 CALLER DUP3 MSTORE PUSH1 0x20 DUP3 ADD MSTORE LOG1 STOP JUMPDEST PUSH1 0x40 MLOAD PUSH3 0x461BCD PUSH1 0xE5 SHL DUP2 MSTORE PUSH1 0x20 PUSH1 0x4 DUP3 ADD MSTORE PUSH1 0x17 PUSH1 0x24 DUP3 ADD MSTORE PUSH23 0x496E76616C6964206163636F756E742061646472657373 PUSH1 0x48 SHL PUSH1 0x44 DUP3 ADD MSTORE PUSH1 0x64 SWAP1 REVERT JUMPDEST CALLVALUE PUSH2 0x612 JUMPI PUSH1 0x40 CALLDATASIZE PUSH1 0x3 NOT ADD SLT PUSH2 0x612 JUMPI PUSH2 0x2ECE PUSH2 0x6FFB JUMP JUMPDEST PUSH1 0x24 CALLDATALOAD SWAP1 DUP2 ISZERO ISZERO SWAP1 DUP2 DUP4 SUB PUSH2 0x612 JUMPI PUSH1 0x1 PUSH1 0x1 PUSH1 0xA0 SHL SUB AND SWAP2 CALLER DUP4 EQ PUSH2 0x2F3F JUMPI PUSH2 0x2F11 SWAP1 CALLER PUSH1 0x0 MSTORE PUSH1 0x7 PUSH1 0x20 MSTORE PUSH1 0x40 PUSH1 0x0 KECCAK256 DUP5 PUSH1 0x0 MSTORE PUSH1 0x20 MSTORE PUSH1 0x40 PUSH1 0x0 KECCAK256 PUSH2 0x7A4A JUMP JUMPDEST PUSH1 0x40 MLOAD SWAP1 DUP2 MSTORE PUSH32 0x17307EAB39AB6107E8899845AD3D59BD9653F200F220920489CA2B5937696C31 PUSH1 0x20 CALLER SWAP3 LOG3 STOP JUMPDEST PUSH1 0x40 MLOAD PUSH3 0x461BCD PUSH1 0xE5 SHL DUP2 MSTORE PUSH1 0x20 PUSH1 0x4 DUP3 ADD MSTORE PUSH1 0x19 PUSH1 0x24 DUP3 ADD MSTORE PUSH25 0x22A9219B99189D1030B8383937BB32903A379031B0B63632B9 PUSH1 0x39 SHL PUSH1 0x44 DUP3 ADD MSTORE PUSH1 0x64 SWAP1 REVERT JUMPDEST CALLVALUE PUSH2 0x612 JUMPI PUSH1 0x40 CALLDATASIZE PUSH1 0x3 NOT ADD SLT PUSH2 0x612 JUMPI PUSH2 0x2F99 PUSH2 0x6FFB JUMP JUMPDEST PUSH1 0x1 PUSH1 0x1 PUSH1 0xA0 SHL SUB SWAP1 DUP2 AND PUSH1 0x0 SWAP1 DUP2 MSTORE PUSH1 0x14 PUSH1 0x20 MSTORE PUSH1 0x40 SWAP1 KECCAK256 DUP1 SLOAD PUSH1 0x24 CALLDATALOAD SWAP1 DUP2 LT ISZERO PUSH2 0x612 JUMPI PUSH2 0xC55 SWAP2 PUSH2 0x753A JUMP JUMPDEST CALLVALUE PUSH2 0x612 JUMPI PUSH1 0x20 DUP1 PUSH1 0x3 NOT CALLDATASIZE ADD SLT PUSH2 0x612 JUMPI PUSH1 0x4 CALLDATALOAD DUP1 PUSH1 0x0 MSTORE PUSH1 0x10 SWAP2 DUP3 DUP2 MSTORE PUSH1 0xFF PUSH2 0x2FFF DUP2 PUSH1 0xF PUSH1 0x40 PUSH1 0x0 KECCAK256 ADD SLOAD DUP7 SHR AND ISZERO PUSH2 0x84AB JUMP JUMPDEST DUP3 PUSH1 0x0 MSTORE PUSH1 0x17 DUP3 MSTORE PUSH2 0x3017 DUP2 PUSH1 0x40 PUSH1 0x0 KECCAK256 SLOAD AND PUSH2 0x8466 JUMP JUMPDEST PUSH1 0x0 SWAP2 PUSH1 0x0 JUMPDEST DUP5 PUSH1 0x0 MSTORE DUP6 DUP3 MSTORE DUP6 PUSH1 0x40 PUSH1 0x0 KECCAK256 ADD DUP1 SLOAD DUP3 LT ISZERO PUSH2 0x306E JUMPI PUSH1 0x4 PUSH2 0x3041 DUP4 DUP7 SWAP4 PUSH2 0x8B6C JUMP JUMPDEST POP ADD SLOAD AND ISZERO PUSH2 0x3059 JUMPI JUMPDEST PUSH2 0x3054 SWAP1 PUSH2 0x88EE JUMP JUMPDEST PUSH2 0x301D JUMP JUMPDEST SWAP3 PUSH2 0x3066 PUSH2 0x3054 SWAP2 PUSH2 0x88EE JUMP JUMPDEST SWAP4 SWAP1 POP PUSH2 0x304B JUMP JUMPDEST POP POP DUP4 DUP6 PUSH2 0x307B DUP6 PUSH2 0x819A JUMP JUMPDEST SWAP5 PUSH2 0x3089 PUSH1 0x40 MLOAD SWAP7 DUP8 PUSH2 0x70E6 JUMP JUMPDEST DUP1 DUP7 MSTORE PUSH2 0x3098 PUSH1 0x1F NOT SWAP2 PUSH2 0x819A JUMP JUMPDEST ADD DUP4 PUSH1 0x0 JUMPDEST DUP3 DUP2 LT PUSH2 0x3141 JUMPI POP POP POP PUSH1 0x0 SWAP2 PUSH1 0x0 JUMPDEST DUP2 PUSH1 0x0 MSTORE DUP3 DUP6 MSTORE DUP3 PUSH1 0x40 PUSH1 0x0 KECCAK256 ADD DUP1 SLOAD DUP3 LT ISZERO PUSH2 0x312E JUMPI PUSH1 0x4 PUSH2 0x30D1 DUP4 DUP10 SWAP4 PUSH2 0x8B6C JUMP JUMPDEST POP ADD SLOAD AND ISZERO PUSH2 0x30E9 JUMPI JUMPDEST PUSH2 0x30E4 SWAP1 PUSH2 0x88EE JUMP JUMPDEST PUSH2 0x30AD JUMP JUMPDEST SWAP3 PUSH2 0x3126 PUSH2 0x30E4 SWAP2 DUP4 PUSH1 0x0 MSTORE DUP5 DUP8 MSTORE PUSH2 0x3111 PUSH2 0x310B DUP8 DUP8 PUSH1 0x40 PUSH1 0x0 KECCAK256 ADD PUSH2 0x8B6C JUMP JUMPDEST POP PUSH2 0x888D JUMP JUMPDEST PUSH2 0x311B DUP3 DUP12 PUSH2 0x894D JUMP JUMPDEST MSTORE PUSH2 0x56F DUP2 DUP11 PUSH2 0x894D JUMP JUMPDEST SWAP4 SWAP1 POP PUSH2 0x30DB JUMP JUMPDEST PUSH1 0x40 MLOAD DUP7 DUP2 MSTORE DUP1 PUSH2 0x38A DUP2 DUP10 ADD DUP12 PUSH2 0x6DA8 JUMP JUMPDEST PUSH2 0x3149 PUSH2 0x8B3B JUMP JUMPDEST DUP3 DUP3 DUP11 ADD ADD MSTORE ADD DUP5 SWAP1 PUSH2 0x309D JUMP JUMPDEST CALLVALUE PUSH2 0x612 JUMPI PUSH1 0x40 CALLDATASIZE PUSH1 0x3 NOT ADD SLT PUSH2 0x612 JUMPI PUSH2 0x3170 PUSH2 0x6FFB JUMP JUMPDEST PUSH1 0x24 CALLDATALOAD SWAP1 PUSH1 0x4 DUP3 LT ISZERO PUSH2 0x612 JUMPI PUSH2 0x3185 PUSH2 0x76A0 JUMP JUMPDEST PUSH1 0x1 PUSH1 0x1 PUSH1 0xA0 SHL SUB AND SWAP1 PUSH2 0x319A DUP3 ISZERO ISZERO PUSH2 0x7CE9 JUMP JUMPDEST DUP2 PUSH1 0x0 MSTORE PUSH1 0x20 SWAP1 PUSH1 0x16 DUP3 MSTORE PUSH2 0x31B6 PUSH1 0xFF PUSH1 0x40 PUSH1 0x0 KECCAK256 SLOAD AND PUSH2 0x7D2E JUMP JUMPDEST DUP3 PUSH1 0x0 MSTORE PUSH1 0x13 DUP3 MSTORE PUSH1 0xFF PUSH1 0x40 PUSH1 0x0 KECCAK256 SLOAD AND PUSH1 0x4 DUP2 LT ISZERO PUSH2 0x6E2 JUMPI DUP2 EQ PUSH2 0x328E JUMPI PUSH1 0x2 DUP2 EQ PUSH2 0x3228 JUMPI JUMPDEST SWAP1 PUSH32 0xD8F7BCB2C5CFFC294A0AAEF719685993D7BE95273FB8254803A1563510CCEFED SWAP2 DUP4 PUSH1 0x0 MSTORE PUSH1 0x13 DUP3 MSTORE PUSH2 0x3218 DUP2 PUSH1 0x40 PUSH1 0x0 KECCAK256 PUSH2 0x7C7F JUMP JUMPDEST PUSH2 0x3225 PUSH1 0x40 MLOAD DUP1 SWAP3 PUSH2 0x74A0 JUMP JUMPDEST LOG2 STOP JUMPDEST DUP3 PUSH1 0x0 MSTORE PUSH1 0x13 DUP3 MSTORE PUSH1 0xFF PUSH1 0x40 PUSH1 0x0 KECCAK256 SLOAD AND PUSH1 0x4 DUP2 LT ISZERO PUSH2 0x6E2 JUMPI PUSH1 0x1 EQ PUSH2 0x31DF JUMPI PUSH1 0x40 MLOAD PUSH3 0x461BCD PUSH1 0xE5 SHL DUP2 MSTORE PUSH1 0x4 DUP2 ADD DUP4 SWAP1 MSTORE PUSH1 0x1F PUSH1 0x24 DUP3 ADD MSTORE PUSH32 0x43616E206F6E6C79207665726966792070656E64696E672073656C6C65727300 PUSH1 0x44 DUP3 ADD MSTORE PUSH1 0x64 SWAP1 REVERT JUMPDEST PUSH1 0x40 MLOAD PUSH3 0x461BCD PUSH1 0xE5 SHL DUP2 MSTORE PUSH1 0x4 DUP2 ADD DUP4 SWAP1 MSTORE PUSH1 0x12 PUSH1 0x24 DUP3 ADD MSTORE PUSH18 0x14DD185D1D5CC8185B1C9958591E481CD95D PUSH1 0x72 SHL PUSH1 0x44 DUP3 ADD MSTORE PUSH1 0x64 SWAP1 REVERT JUMPDEST CALLVALUE PUSH2 0x612 JUMPI PUSH1 0x0 CALLDATASIZE PUSH1 0x3 NOT ADD SLT PUSH2 0x612 JUMPI PUSH1 0x40 MLOAD PUSH1 0x0 SWAP1 PUSH1 0x3 SLOAD PUSH2 0x32EB DUP2 PUSH2 0x71EA JUMP JUMPDEST DUP1 DUP4 MSTORE PUSH1 0x1 SWAP2 DUP1 DUP4 AND SWAP1 DUP2 ISZERO PUSH2 0x3382 JUMPI POP PUSH1 0x1 EQ PUSH2 0x3328 JUMPI JUMPDEST PUSH2 0x38A DUP4 PUSH2 0x3314 DUP2 DUP8 SUB DUP3 PUSH2 0x70E6 JUMP JUMPDEST PUSH1 0x40 MLOAD SWAP2 DUP3 SWAP2 PUSH1 0x20 DUP4 MSTORE PUSH1 0x20 DUP4 ADD SWAP1 PUSH2 0x6D0C JUMP JUMPDEST PUSH1 0x3 PUSH1 0x0 SWAP1 DUP2 MSTORE PUSH1 0x20 SWAP5 POP SWAP2 PUSH32 0xC2575A0E9E593C00F959F8C92F12DB2869C3395A3B0502D05E2516446F71F85B JUMPDEST DUP3 DUP5 LT PUSH2 0x336F JUMPI POP POP POP DUP2 ADD SWAP1 SWAP2 ADD SWAP1 PUSH2 0x3314 DUP2 PUSH2 0x3304 JUMP JUMPDEST DUP1 SLOAD DUP6 DUP6 ADD DUP8 ADD MSTORE SWAP3 DUP6 ADD SWAP3 DUP2 ADD PUSH2 0x3356 JUMP JUMPDEST PUSH2 0x38A SWAP6 POP PUSH2 0x3314 SWAP4 POP PUSH1 0x20 SWAP2 POP SWAP2 DUP5 SWAP3 PUSH1 0xFF NOT AND DUP3 DUP5 ADD MSTORE ISZERO ISZERO PUSH1 0x5 SHL DUP3 ADD ADD SWAP4 POP PUSH2 0x3304 JUMP JUMPDEST CALLVALUE PUSH2 0x612 JUMPI PUSH1 0x20 CALLDATASIZE PUSH1 0x3 NOT ADD SLT PUSH2 0x612 JUMPI PUSH1 0x1 PUSH1 0x1 PUSH1 0xA0 SHL SUB PUSH2 0x33CB PUSH2 0x6FFB JUMP JUMPDEST AND PUSH1 0x0 MSTORE PUSH1 0xD PUSH1 0x20 MSTORE PUSH2 0x347B PUSH1 0x40 PUSH1 0x0 KECCAK256 PUSH1 0x40 MLOAD SWAP1 PUSH2 0x33F5 DUP3 PUSH2 0x33EE DUP2 DUP5 PUSH2 0x7224 JUMP JUMPDEST SUB DUP4 PUSH2 0x70E6 JUMP JUMPDEST PUSH1 0x40 MLOAD PUSH2 0x3409 DUP2 PUSH2 0x3FB DUP2 PUSH1 0x1 DUP7 ADD PUSH2 0x7224 JUMP JUMPDEST PUSH2 0x34B3 PUSH1 0x40 MLOAD PUSH2 0x3420 DUP2 PUSH2 0x3FB DUP2 PUSH1 0x2 DUP9 ADD PUSH2 0x7224 JUMP JUMPDEST PUSH2 0x34A5 PUSH1 0x40 MLOAD PUSH2 0x3437 DUP2 PUSH2 0x3FB DUP2 PUSH1 0x3 DUP11 ADD PUSH2 0x7224 JUMP JUMPDEST PUSH2 0x3497 PUSH1 0x40 MLOAD SWAP4 PUSH2 0x3456 DUP6 PUSH2 0x344F DUP2 PUSH1 0x4 DUP13 ADD PUSH2 0x7224 JUMP JUMPDEST SUB DUP7 PUSH2 0x70E6 JUMP JUMPDEST PUSH2 0x3489 PUSH1 0xFF PUSH1 0x6 PUSH1 0x5 DUP12 ADD SLOAD SWAP11 ADD SLOAD AND SWAP8 PUSH1 0x40 MLOAD SWAP12 DUP13 SWAP12 PUSH1 0xE0 DUP14 MSTORE PUSH1 0xE0 DUP14 ADD SWAP1 PUSH2 0x6D0C JUMP JUMPDEST SWAP1 DUP12 DUP3 SUB PUSH1 0x20 DUP14 ADD MSTORE PUSH2 0x6D0C JUMP JUMPDEST SWAP1 DUP10 DUP3 SUB PUSH1 0x40 DUP12 ADD MSTORE PUSH2 0x6D0C JUMP JUMPDEST SWAP1 DUP8 DUP3 SUB PUSH1 0x60 DUP10 ADD MSTORE PUSH2 0x6D0C JUMP JUMPDEST SWAP1 DUP6 DUP3 SUB PUSH1 0x80 DUP8 ADD MSTORE PUSH2 0x6D0C JUMP JUMPDEST SWAP2 PUSH1 0xA0 DUP5 ADD MSTORE ISZERO ISZERO PUSH1 0xC0 DUP4 ADD MSTORE SUB SWAP1 RETURN JUMPDEST CALLVALUE PUSH2 0x612 JUMPI PUSH1 0x20 CALLDATASIZE PUSH1 0x3 NOT ADD SLT PUSH2 0x612 JUMPI PUSH1 0x4 CALLDATALOAD PUSH1 0x1 PUSH1 0x1 PUSH1 0x40 SHL SUB DUP2 GT PUSH2 0x612 JUMPI PUSH2 0x34F4 SWAP1 CALLDATASIZE SWAP1 PUSH1 0x4 ADD PUSH2 0x715B JUMP JUMPDEST PUSH1 0x8 SLOAD PUSH1 0x0 PUSH1 0x1 JUMPDEST DUP3 DUP2 GT ISZERO PUSH2 0x3765 JUMPI POP PUSH2 0x350E SWAP1 PUSH2 0x88FD JUMP JUMPDEST SWAP1 PUSH1 0x1 PUSH1 0x0 JUMPDEST DUP3 DUP3 GT ISZERO PUSH2 0x352A JUMPI PUSH1 0x40 MLOAD DUP1 PUSH2 0x38A DUP7 DUP3 PUSH2 0x6F99 JUMP JUMPDEST DUP2 PUSH1 0x0 MSTORE PUSH1 0x10 DUP1 PUSH1 0x20 MSTORE PUSH1 0x9 SWAP1 PUSH2 0x3FB PUSH2 0x3550 DUP4 PUSH1 0x40 PUSH1 0x0 KECCAK256 ADD PUSH1 0x40 MLOAD SWAP3 DUP4 DUP1 SWAP3 PUSH2 0x7224 JUMP JUMPDEST PUSH1 0x20 DUP2 MLOAD SWAP2 ADD KECCAK256 DUP8 MLOAD PUSH1 0x20 DUP10 ADD KECCAK256 EQ DUP1 PUSH2 0x3748 JUMPI JUMPDEST PUSH2 0x357C JUMPI JUMPDEST POP POP SWAP1 PUSH2 0x3576 SWAP1 PUSH2 0x88EE JUMP JUMPDEST SWAP1 PUSH2 0x3514 JUMP JUMPDEST DUP4 PUSH1 0x0 MSTORE DUP1 PUSH1 0x20 MSTORE PUSH1 0x40 PUSH1 0x0 KECCAK256 PUSH2 0x3FB PUSH2 0x363B PUSH1 0x40 MLOAD SWAP5 PUSH2 0x359C DUP7 PUSH2 0x7027 JUMP JUMPDEST DUP4 SLOAD DUP7 MSTORE PUSH1 0x1 DUP5 ADD SLOAD PUSH1 0x1 PUSH1 0x1 PUSH1 0xA0 SHL SUB AND PUSH1 0x20 DUP8 ADD MSTORE PUSH1 0x40 MLOAD PUSH2 0x35C7 DUP2 PUSH2 0x3FB DUP2 PUSH1 0x2 DUP10 ADD PUSH2 0x7224 JUMP JUMPDEST PUSH1 0x40 DUP8 ADD MSTORE PUSH1 0x40 MLOAD PUSH2 0x35E0 DUP2 PUSH2 0x3FB DUP2 PUSH1 0x3 DUP10 ADD PUSH2 0x7224 JUMP JUMPDEST PUSH1 0x60 DUP8 ADD MSTORE PUSH1 0x4 DUP5 ADD SLOAD PUSH1 0x80 DUP8 ADD MSTORE PUSH1 0x5 DUP5 ADD SLOAD PUSH1 0xA0 DUP8 ADD MSTORE PUSH2 0x3605 PUSH1 0x6 DUP6 ADD PUSH2 0x8828 JUMP JUMPDEST PUSH1 0xC0 DUP8 ADD MSTORE PUSH2 0x3616 PUSH1 0x7 DUP6 ADD PUSH2 0x8828 JUMP JUMPDEST PUSH1 0xE0 DUP8 ADD MSTORE PUSH2 0x3627 PUSH1 0x8 DUP6 ADD PUSH2 0x8828 JUMP JUMPDEST PUSH2 0x100 DUP8 ADD MSTORE PUSH1 0x40 MLOAD SWAP3 DUP4 DUP1 SWAP3 DUP7 ADD PUSH2 0x7224 JUMP JUMPDEST PUSH2 0x120 DUP5 ADD MSTORE PUSH1 0x40 MLOAD PUSH2 0x3655 DUP2 PUSH2 0x3FB DUP2 PUSH1 0xA DUP7 ADD PUSH2 0x7224 JUMP JUMPDEST PUSH2 0x140 DUP5 ADD MSTORE PUSH1 0xB DUP2 ADD SLOAD PUSH2 0x160 DUP5 ADD MSTORE PUSH1 0x40 MLOAD PUSH2 0x367A DUP2 PUSH2 0x3FB DUP2 PUSH1 0xC DUP7 ADD PUSH2 0x7224 JUMP JUMPDEST PUSH2 0x180 DUP5 ADD MSTORE PUSH1 0x40 MLOAD PUSH2 0x3694 DUP2 PUSH2 0x3FB DUP2 PUSH1 0xD DUP7 ADD PUSH2 0x7224 JUMP JUMPDEST PUSH2 0x1A0 DUP5 ADD MSTORE PUSH1 0xE DUP2 ADD SLOAD PUSH2 0x1C0 DUP5 ADD MSTORE PUSH1 0xF DUP2 ADD SLOAD PUSH1 0xFF SWAP1 DUP2 DUP2 AND ISZERO ISZERO PUSH2 0x1E0 DUP7 ADD MSTORE DUP2 DUP2 PUSH1 0x8 SHR AND ISZERO ISZERO PUSH2 0x200 DUP7 ADD MSTORE DUP4 SHR AND ISZERO ISZERO PUSH2 0x220 DUP5 ADD MSTORE ADD DUP1 SLOAD SWAP1 PUSH2 0x36DE DUP3 PUSH2 0x819A JUMP JUMPDEST SWAP2 PUSH2 0x36EC PUSH1 0x40 MLOAD SWAP4 DUP5 PUSH2 0x70E6 JUMP JUMPDEST DUP1 DUP4 MSTORE PUSH1 0x20 DUP4 ADD SWAP2 PUSH1 0x0 MSTORE PUSH1 0x20 PUSH1 0x0 KECCAK256 PUSH1 0x0 SWAP3 JUMPDEST DUP3 DUP5 LT PUSH2 0x372A JUMPI POP POP POP POP PUSH2 0x240 DUP3 ADD MSTORE PUSH2 0x3576 SWAP2 PUSH2 0x3723 SWAP2 PUSH2 0x564 DUP3 DUP9 PUSH2 0x894D JUMP JUMPDEST SWAP1 DUP7 PUSH2 0x356A JUMP JUMPDEST PUSH1 0x6 PUSH1 0x20 PUSH1 0x1 SWAP3 PUSH2 0x373A DUP6 PUSH2 0x888D JUMP JUMPDEST DUP2 MSTORE ADD SWAP3 ADD SWAP4 ADD SWAP3 SWAP1 PUSH2 0x3700 JUMP JUMPDEST POP DUP4 PUSH1 0x0 MSTORE DUP1 PUSH1 0x20 MSTORE PUSH1 0xFF PUSH1 0xF PUSH1 0x40 PUSH1 0x0 KECCAK256 ADD SLOAD DUP3 SHR AND ISZERO PUSH2 0x3565 JUMP JUMPDEST DUP1 PUSH1 0x0 MSTORE PUSH1 0x10 DUP1 PUSH1 0x20 MSTORE PUSH2 0x3FB PUSH2 0x3789 PUSH1 0x9 PUSH1 0x40 PUSH1 0x0 KECCAK256 ADD PUSH1 0x40 MLOAD SWAP3 DUP4 DUP1 SWAP3 PUSH2 0x7224 JUMP JUMPDEST PUSH1 0x20 DUP2 MLOAD SWAP2 ADD KECCAK256 DUP6 MLOAD PUSH1 0x20 DUP8 ADD KECCAK256 EQ SWAP1 DUP2 PUSH2 0x37C8 JUMPI JUMPDEST POP PUSH2 0x37B3 JUMPI JUMPDEST PUSH2 0x37AE SWAP1 PUSH2 0x88EE JUMP JUMPDEST PUSH2 0x34FC JUMP JUMPDEST SWAP1 PUSH2 0x37C0 PUSH2 0x37AE SWAP2 PUSH2 0x88EE JUMP JUMPDEST SWAP2 SWAP1 POP PUSH2 0x37A5 JUMP JUMPDEST PUSH1 0xFF SWAP2 POP DUP3 PUSH1 0x0 MSTORE DUP1 PUSH1 0x20 MSTORE PUSH1 0xF PUSH1 0x40 PUSH1 0x0 KECCAK256 ADD SLOAD SWAP1 SHR AND ISZERO DUP6 PUSH2 0x379F JUMP JUMPDEST CALLVALUE PUSH2 0x612 JUMPI PUSH1 0x0 CALLDATASIZE PUSH1 0x3 NOT ADD SLT PUSH2 0x612 JUMPI PUSH1 0x0 SLOAD PUSH1 0x40 MLOAD PUSH1 0x1 PUSH1 0x1 PUSH1 0xA0 SHL SUB SWAP1 SWAP2 AND DUP2 MSTORE PUSH1 0x20 SWAP1 RETURN JUMPDEST CALLVALUE PUSH2 0x612 JUMPI PUSH1 0x3 NOT PUSH1 0x40 CALLDATASIZE DUP3 ADD SLT PUSH2 0x612 JUMPI PUSH1 0x1 PUSH1 0x1 PUSH1 0x40 SHL SUB PUSH1 0x24 CALLDATALOAD GT PUSH2 0x612 JUMPI PUSH2 0x1A0 SWAP1 PUSH1 0x24 CALLDATALOAD CALLDATASIZE SUB ADD SLT PUSH2 0x612 JUMPI PUSH1 0x0 SLOAD PUSH1 0x1 PUSH1 0x1 PUSH1 0xA0 SHL SUB SWAP1 DUP2 AND CALLER EQ DUP1 ISZERO PUSH2 0x4338 JUMPI JUMPDEST PUSH2 0x3861 SWAP1 PUSH2 0x7DE4 JUMP JUMPDEST PUSH1 0x4 CALLDATALOAD PUSH1 0x0 MSTORE PUSH1 0x10 PUSH1 0x20 MSTORE CALLER SWAP1 PUSH1 0x1 PUSH1 0x40 PUSH1 0x0 KECCAK256 ADD SLOAD AND SUB PUSH2 0x42E2 JUMPI PUSH1 0x4 CALLDATALOAD PUSH1 0x0 MSTORE PUSH1 0x17 PUSH1 0x20 MSTORE PUSH2 0x3899 PUSH1 0xFF PUSH1 0x40 PUSH1 0x0 KECCAK256 SLOAD AND PUSH2 0x8466 JUMP JUMPDEST PUSH1 0x4 CALLDATALOAD PUSH1 0x0 MSTORE PUSH1 0x10 PUSH1 0x20 MSTORE PUSH2 0x38BC PUSH1 0xFF PUSH1 0xF PUSH1 0x40 PUSH1 0x0 KECCAK256 ADD SLOAD PUSH1 0x10 SHR AND ISZERO PUSH2 0x84AB JUMP JUMPDEST PUSH2 0x38CE PUSH2 0xCFD PUSH1 0x4 PUSH1 0x24 CALLDATALOAD ADD DUP1 PUSH2 0x7E21 JUMP JUMPDEST PUSH2 0x38E1 PUSH1 0x24 DUP1 CALLDATALOAD ADD PUSH1 0x24 CALLDATALOAD PUSH1 0x4 ADD PUSH2 0x7E21 JUMP JUMPDEST SWAP1 POP ISZERO PUSH2 0x429F JUMPI PUSH2 0x38F9 PUSH1 0x44 PUSH1 0x24 CALLDATALOAD ADD CALLDATALOAD ISZERO ISZERO PUSH2 0x7E96 JUMP JUMPDEST PUSH2 0x390A PUSH1 0x64 PUSH1 0x24 CALLDATALOAD ADD CALLDATALOAD ISZERO ISZERO PUSH2 0x7EE1 JUMP JUMPDEST PUSH2 0x391E PUSH1 0x84 PUSH1 0x24 CALLDATALOAD ADD PUSH1 0x24 CALLDATALOAD PUSH1 0x4 ADD PUSH2 0x8049 JUMP JUMPDEST SWAP1 POP ISZERO PUSH2 0x4261 JUMPI PUSH2 0x3939 PUSH1 0xA4 PUSH1 0x24 CALLDATALOAD ADD PUSH1 0x24 CALLDATALOAD PUSH1 0x4 ADD PUSH2 0x8049 JUMP JUMPDEST SWAP1 POP ISZERO PUSH2 0x4224 JUMPI PUSH2 0x3957 PUSH2 0xDBE PUSH1 0xC4 PUSH1 0x24 CALLDATALOAD ADD PUSH1 0x24 CALLDATALOAD PUSH1 0x4 ADD PUSH2 0x8049 JUMP JUMPDEST PUSH2 0x3970 PUSH1 0x5 PUSH2 0xDE0 PUSH1 0xC4 PUSH1 0x24 CALLDATALOAD ADD PUSH1 0x24 CALLDATALOAD PUSH1 0x4 ADD PUSH2 0x8049 JUMP JUMPDEST PUSH1 0xE4 PUSH1 0x24 CALLDATALOAD ADD CALLDATALOAD ISZERO PUSH2 0x41E4 JUMPI PUSH2 0x104 PUSH1 0x24 CALLDATALOAD ADD CALLDATALOAD ISZERO PUSH2 0x41A0 JUMPI PUSH2 0x39A1 PUSH2 0xD6B PUSH2 0x144 PUSH1 0x24 CALLDATALOAD ADD PUSH1 0x24 CALLDATALOAD PUSH1 0x4 ADD PUSH2 0x7E21 JUMP JUMPDEST PUSH2 0x39B9 PUSH2 0xD8C PUSH2 0x164 PUSH1 0x24 CALLDATALOAD ADD PUSH1 0x24 CALLDATALOAD PUSH1 0x4 ADD PUSH2 0x7E21 JUMP JUMPDEST PUSH2 0x39CB PUSH2 0x124 PUSH1 0x24 CALLDATALOAD ADD CALLDATALOAD ISZERO ISZERO PUSH2 0x7F2C JUMP JUMPDEST PUSH2 0x39DD PUSH2 0x184 PUSH1 0x24 CALLDATALOAD ADD CALLDATALOAD ISZERO ISZERO PUSH2 0x8000 JUMP JUMPDEST PUSH2 0x39EC PUSH1 0x4 PUSH1 0x24 CALLDATALOAD ADD DUP1 PUSH2 0x7E21 JUMP JUMPDEST PUSH1 0x4 CALLDATALOAD PUSH1 0x0 SWAP1 DUP2 MSTORE PUSH1 0x10 PUSH1 0x20 MSTORE PUSH1 0x40 SWAP1 KECCAK256 PUSH1 0x2 ADD SWAP1 PUSH1 0x1 PUSH1 0x1 PUSH1 0x40 SHL SUB DUP2 GT PUSH2 0x1469 JUMPI PUSH2 0x3A1D DUP2 PUSH2 0x214B DUP5 SLOAD PUSH2 0x71EA JUMP JUMPDEST PUSH1 0x0 SWAP3 PUSH1 0x1F DUP3 GT PUSH1 0x1 EQ PUSH2 0x4137 JUMPI SWAP3 DUP2 SWAP3 SWAP4 PUSH1 0x0 SWAP3 PUSH2 0x412C JUMPI JUMPDEST POP POP DUP2 PUSH1 0x1 SHL SWAP2 PUSH1 0x0 NOT SWAP1 PUSH1 0x3 SHL SHR NOT AND OR SWAP1 SSTORE JUMPDEST PUSH2 0x3A5F PUSH1 0x24 DUP1 CALLDATALOAD ADD PUSH1 0x24 CALLDATALOAD PUSH1 0x4 ADD PUSH2 0x7E21 JUMP JUMPDEST PUSH1 0x4 CALLDATALOAD PUSH1 0x0 SWAP1 DUP2 MSTORE PUSH1 0x10 PUSH1 0x20 MSTORE PUSH1 0x40 SWAP1 KECCAK256 PUSH1 0x3 ADD SWAP1 PUSH1 0x1 PUSH1 0x1 PUSH1 0x40 SHL SUB DUP2 GT PUSH2 0x1469 JUMPI PUSH2 0x3A90 DUP2 PUSH2 0x214B DUP5 SLOAD PUSH2 0x71EA JUMP JUMPDEST PUSH1 0x0 SWAP3 PUSH1 0x1F DUP3 GT PUSH1 0x1 EQ PUSH2 0x40C3 JUMPI SWAP3 DUP2 SWAP3 SWAP4 PUSH1 0x0 SWAP3 PUSH2 0x40B8 JUMPI JUMPDEST POP POP DUP2 PUSH1 0x1 SHL SWAP2 PUSH1 0x0 NOT SWAP1 PUSH1 0x3 SHL SHR NOT AND OR SWAP1 SSTORE JUMPDEST PUSH1 0x4 CALLDATALOAD PUSH1 0x0 MSTORE PUSH1 0x10 PUSH1 0x20 MSTORE PUSH1 0x40 PUSH1 0x0 KECCAK256 PUSH1 0x44 PUSH1 0x24 CALLDATALOAD ADD CALLDATALOAD PUSH1 0x4 DUP3 ADD SSTORE PUSH1 0x64 PUSH1 0x24 CALLDATALOAD ADD CALLDATALOAD PUSH1 0x5 DUP3 ADD SSTORE PUSH1 0x6 PUSH2 0x3AFD PUSH1 0x84 PUSH1 0x24 CALLDATALOAD ADD PUSH1 0x24 CALLDATALOAD PUSH1 0x4 ADD PUSH2 0x8049 JUMP JUMPDEST SWAP2 SWAP1 SWAP3 ADD SWAP2 PUSH2 0x3B0C DUP3 DUP5 PUSH2 0x8269 JUMP JUMPDEST PUSH1 0x0 SWAP3 DUP4 MSTORE PUSH1 0x20 DUP4 KECCAK256 SWAP1 DUP1 JUMPDEST DUP4 DUP6 LT PUSH2 0x3FD5 JUMPI PUSH2 0x3B33 PUSH1 0xA4 PUSH1 0x24 CALLDATALOAD ADD PUSH1 0x24 CALLDATALOAD PUSH1 0x4 ADD PUSH2 0x8049 JUMP JUMPDEST PUSH1 0x4 CALLDATALOAD PUSH1 0x0 MSTORE PUSH1 0x10 PUSH1 0x20 MSTORE PUSH1 0x7 PUSH1 0x40 PUSH1 0x0 KECCAK256 ADD SWAP2 PUSH2 0x3B51 DUP3 DUP5 PUSH2 0x8269 JUMP JUMPDEST PUSH1 0x0 SWAP3 DUP4 MSTORE PUSH1 0x20 DUP4 KECCAK256 SWAP1 DUP1 JUMPDEST DUP4 DUP6 LT PUSH2 0x3EF2 JUMPI PUSH2 0x3B78 PUSH1 0xC4 PUSH1 0x24 CALLDATALOAD ADD PUSH1 0x24 CALLDATALOAD PUSH1 0x4 ADD PUSH2 0x8049 JUMP JUMPDEST PUSH1 0x4 CALLDATALOAD PUSH1 0x0 MSTORE PUSH1 0x10 PUSH1 0x20 MSTORE PUSH1 0x8 PUSH1 0x40 PUSH1 0x0 KECCAK256 ADD SWAP2 PUSH2 0x3B96 DUP3 DUP5 PUSH2 0x8269 JUMP JUMPDEST PUSH1 0x0 SWAP3 DUP4 MSTORE PUSH1 0x20 DUP4 KECCAK256 SWAP1 DUP1 JUMPDEST DUP4 DUP6 LT PUSH2 0x3E09 JUMPI PUSH1 0xE4 PUSH1 0x24 CALLDATALOAD ADD CALLDATALOAD PUSH1 0x0 MSTORE PUSH1 0xE PUSH1 0x20 MSTORE PUSH2 0x3BDB PUSH1 0x1 PUSH1 0x40 PUSH1 0x0 KECCAK256 ADD PUSH1 0x4 CALLDATALOAD PUSH1 0x0 MSTORE PUSH1 0x10 PUSH1 0x20 MSTORE PUSH1 0x9 PUSH1 0x40 PUSH1 0x0 KECCAK256 ADD PUSH2 0x84EC JUMP JUMPDEST PUSH2 0x104 PUSH1 0x24 CALLDATALOAD ADD CALLDATALOAD PUSH1 0x0 MSTORE PUSH1 0xF PUSH1 0x20 MSTORE PUSH2 0x3C0E PUSH1 0x1 PUSH1 0x40 PUSH1 0x0 KECCAK256 ADD PUSH1 0x4 CALLDATALOAD PUSH1 0x0 MSTORE PUSH1 0x10 PUSH1 0x20 MSTORE PUSH1 0xA PUSH1 0x40 PUSH1 0x0 KECCAK256 ADD PUSH2 0x84EC JUMP JUMPDEST PUSH2 0x3C23 PUSH2 0x144 PUSH1 0x24 CALLDATALOAD ADD PUSH1 0x24 CALLDATALOAD PUSH1 0x4 ADD PUSH2 0x7E21 JUMP JUMPDEST PUSH1 0x4 CALLDATALOAD PUSH1 0x0 SWAP1 DUP2 MSTORE PUSH1 0x10 PUSH1 0x20 MSTORE PUSH1 0x40 SWAP1 KECCAK256 PUSH1 0xC ADD SWAP1 PUSH1 0x1 PUSH1 0x1 PUSH1 0x40 SHL SUB DUP2 GT PUSH2 0x1469 JUMPI PUSH2 0x3C54 DUP2 PUSH2 0x214B DUP5 SLOAD PUSH2 0x71EA JUMP JUMPDEST PUSH1 0x0 SWAP3 PUSH1 0x1F DUP3 GT PUSH1 0x1 EQ PUSH2 0x3DA0 JUMPI SWAP3 DUP2 SWAP3 SWAP4 PUSH1 0x0 SWAP3 PUSH2 0x3D95 JUMPI JUMPDEST POP POP DUP2 PUSH1 0x1 SHL SWAP2 PUSH1 0x0 NOT SWAP1 PUSH1 0x3 SHL SHR NOT AND OR SWAP1 SSTORE JUMPDEST PUSH2 0x3C98 PUSH2 0x164 PUSH1 0x24 CALLDATALOAD ADD PUSH1 0x24 CALLDATALOAD PUSH1 0x4 ADD PUSH2 0x7E21 JUMP JUMPDEST PUSH1 0x4 CALLDATALOAD PUSH1 0x0 SWAP1 DUP2 MSTORE PUSH1 0x10 PUSH1 0x20 MSTORE PUSH1 0x40 SWAP1 KECCAK256 PUSH1 0xD ADD SWAP1 PUSH1 0x1 PUSH1 0x1 PUSH1 0x40 SHL SUB DUP2 GT PUSH2 0x1469 JUMPI PUSH2 0x3CC9 DUP2 PUSH2 0x214B DUP5 SLOAD PUSH2 0x71EA JUMP JUMPDEST PUSH1 0x0 PUSH1 0x1F DUP3 GT PUSH1 0x1 EQ PUSH2 0x3D30 JUMPI DUP2 SWAP3 SWAP4 PUSH1 0x0 SWAP3 PUSH2 0x3D25 JUMPI JUMPDEST POP POP DUP2 PUSH1 0x1 SHL SWAP2 PUSH1 0x0 NOT SWAP1 PUSH1 0x3 SHL SHR NOT AND OR SWAP1 SSTORE JUMPDEST PUSH1 0x4 CALLDATALOAD PUSH1 0x0 MSTORE PUSH1 0x10 PUSH1 0x20 MSTORE PUSH1 0x40 PUSH1 0x0 KECCAK256 PUSH2 0x124 PUSH1 0x24 CALLDATALOAD ADD CALLDATALOAD PUSH1 0xB DUP3 ADD SSTORE PUSH1 0xE PUSH2 0x184 PUSH1 0x24 CALLDATALOAD ADD CALLDATALOAD SWAP2 ADD SSTORE PUSH1 0x0 DUP1 RETURN JUMPDEST ADD CALLDATALOAD SWAP1 POP DUP4 DUP1 PUSH2 0x3CE1 JUMP JUMPDEST PUSH1 0x1F NOT DUP3 AND SWAP4 DUP4 PUSH1 0x0 MSTORE PUSH1 0x20 PUSH1 0x0 KECCAK256 SWAP2 PUSH1 0x0 JUMPDEST DUP7 DUP2 LT PUSH2 0x3D7D JUMPI POP DUP4 PUSH1 0x1 SWAP6 SWAP7 LT PUSH2 0x3D63 JUMPI JUMPDEST POP POP POP DUP2 SHL ADD SWAP1 SSTORE PUSH2 0x3CF6 JUMP JUMPDEST ADD CALLDATALOAD PUSH1 0x0 NOT PUSH1 0x3 DUP5 SWAP1 SHL PUSH1 0xF8 AND SHR NOT AND SWAP1 SSTORE DUP4 DUP1 DUP1 PUSH2 0x3D56 JUMP JUMPDEST SWAP1 SWAP3 PUSH1 0x20 PUSH1 0x1 DUP2 SWAP3 DUP7 DUP7 ADD CALLDATALOAD DUP2 SSTORE ADD SWAP5 ADD SWAP2 ADD PUSH2 0x3D43 JUMP JUMPDEST ADD CALLDATALOAD SWAP1 POP DUP4 DUP1 PUSH2 0x3C6E JUMP JUMPDEST DUP3 PUSH1 0x0 MSTORE PUSH1 0x20 PUSH1 0x0 KECCAK256 SWAP1 PUSH1 0x0 SWAP5 JUMPDEST PUSH1 0x1F NOT DUP5 AND DUP7 LT PUSH2 0x3DF1 JUMPI PUSH1 0x1 SWAP5 SWAP6 POP DUP4 PUSH1 0x1F NOT DUP2 AND LT PUSH2 0x3DD7 JUMPI JUMPDEST POP POP POP DUP2 SHL ADD SWAP1 SSTORE PUSH2 0x3C83 JUMP JUMPDEST ADD CALLDATALOAD PUSH1 0x0 NOT PUSH1 0x3 DUP5 SWAP1 SHL PUSH1 0xF8 AND SHR NOT AND SWAP1 SSTORE DUP4 DUP1 DUP1 PUSH2 0x3DCA JUMP JUMPDEST SWAP2 PUSH1 0x20 PUSH1 0x1 DUP2 SWAP3 DUP6 DUP6 ADD CALLDATALOAD DUP2 SSTORE ADD SWAP4 ADD SWAP6 ADD SWAP5 PUSH2 0x3DAE JUMP JUMPDEST PUSH2 0x3E13 DUP2 DUP4 PUSH2 0x7E21 JUMP JUMPDEST SWAP1 PUSH1 0x1 PUSH1 0x1 PUSH1 0x40 SHL SUB DUP3 GT PUSH2 0x1469 JUMPI PUSH2 0x3E36 DUP3 PUSH2 0x3E30 DUP8 SLOAD PUSH2 0x71EA JUMP JUMPDEST DUP8 PUSH2 0x7C38 JUMP JUMPDEST PUSH1 0x0 SWAP1 PUSH1 0x1F DUP4 GT PUSH1 0x1 EQ PUSH2 0x3E82 JUMPI SWAP3 DUP3 PUSH1 0x1 SWAP5 SWAP4 PUSH1 0x20 SWAP4 DUP7 SWAP6 PUSH1 0x0 SWAP3 PUSH2 0x3E77 JUMPI JUMPDEST POP POP PUSH1 0x0 NOT PUSH1 0x3 DUP4 SWAP1 SHL SHR NOT AND SWAP1 DUP5 SHL OR DUP7 SSTORE JUMPDEST ADD SWAP4 ADD SWAP5 ADD SWAP4 SWAP2 PUSH2 0x3BA2 JUMP JUMPDEST ADD CALLDATALOAD SWAP1 POP DUP11 DUP1 PUSH2 0x3E57 JUMP JUMPDEST DUP6 PUSH1 0x0 MSTORE PUSH1 0x20 PUSH1 0x0 KECCAK256 SWAP2 PUSH1 0x0 JUMPDEST PUSH1 0x1F NOT DUP6 AND DUP2 LT PUSH2 0x3EDA JUMPI POP DUP4 PUSH1 0x20 SWAP4 PUSH1 0x1 SWAP7 SWAP4 DUP8 SWAP7 SWAP4 DUP8 SWAP5 PUSH1 0x1F NOT DUP2 AND LT PUSH2 0x3EC0 JUMPI JUMPDEST POP POP POP DUP2 SHL ADD DUP7 SSTORE PUSH2 0x3E6B JUMP JUMPDEST ADD CALLDATALOAD PUSH1 0x0 NOT PUSH1 0x3 DUP5 SWAP1 SHL PUSH1 0xF8 AND SHR NOT AND SWAP1 SSTORE DUP11 DUP1 DUP1 PUSH2 0x3EB3 JUMP JUMPDEST SWAP1 SWAP3 PUSH1 0x20 PUSH1 0x1 DUP2 SWAP3 DUP7 DUP7 ADD CALLDATALOAD DUP2 SSTORE ADD SWAP5 ADD SWAP2 ADD PUSH2 0x3E8F JUMP JUMPDEST PUSH2 0x3EFC DUP2 DUP4 PUSH2 0x7E21 JUMP JUMPDEST SWAP1 PUSH1 0x1 PUSH1 0x1 PUSH1 0x40 SHL SUB DUP3 GT PUSH2 0x1469 JUMPI PUSH2 0x3F19 DUP3 PUSH2 0x3E30 DUP8 SLOAD PUSH2 0x71EA JUMP JUMPDEST PUSH1 0x0 SWAP1 PUSH1 0x1F DUP4 GT PUSH1 0x1 EQ PUSH2 0x3F65 JUMPI SWAP3 DUP3 PUSH1 0x1 SWAP5 SWAP4 PUSH1 0x20 SWAP4 DUP7 SWAP6 PUSH1 0x0 SWAP3 PUSH2 0x3F5A JUMPI JUMPDEST POP POP PUSH1 0x0 NOT PUSH1 0x3 DUP4 SWAP1 SHL SHR NOT AND SWAP1 DUP5 SHL OR DUP7 SSTORE JUMPDEST ADD SWAP4 ADD SWAP5 ADD SWAP4 SWAP2 PUSH2 0x3B5D JUMP JUMPDEST ADD CALLDATALOAD SWAP1 POP DUP11 DUP1 PUSH2 0x3F3A JUMP JUMPDEST DUP6 PUSH1 0x0 MSTORE PUSH1 0x20 PUSH1 0x0 KECCAK256 SWAP2 PUSH1 0x0 JUMPDEST PUSH1 0x1F NOT DUP6 AND DUP2 LT PUSH2 0x3FBD JUMPI POP DUP4 PUSH1 0x20 SWAP4 PUSH1 0x1 SWAP7 SWAP4 DUP8 SWAP7 SWAP4 DUP8 SWAP5 PUSH1 0x1F NOT DUP2 AND LT PUSH2 0x3FA3 JUMPI JUMPDEST POP POP POP DUP2 SHL ADD DUP7 SSTORE PUSH2 0x3F4E JUMP JUMPDEST ADD CALLDATALOAD PUSH1 0x0 NOT PUSH1 0x3 DUP5 SWAP1 SHL PUSH1 0xF8 AND SHR NOT AND SWAP1 SSTORE DUP11 DUP1 DUP1 PUSH2 0x3F96 JUMP JUMPDEST SWAP1 SWAP3 PUSH1 0x20 PUSH1 0x1 DUP2 SWAP3 DUP7 DUP7 ADD CALLDATALOAD DUP2 SSTORE ADD SWAP5 ADD SWAP2 ADD PUSH2 0x3F72 JUMP JUMPDEST PUSH2 0x3FDF DUP2 DUP4 PUSH2 0x7E21 JUMP JUMPDEST SWAP1 PUSH1 0x1 PUSH1 0x1 PUSH1 0x40 SHL SUB DUP3 GT PUSH2 0x1469 JUMPI PUSH2 0x3FFC DUP3 PUSH2 0x3E30 DUP8 SLOAD PUSH2 0x71EA JUMP JUMPDEST PUSH1 0x0 SWAP1 PUSH1 0x1F DUP4 GT PUSH1 0x1 EQ PUSH2 0x4048 JUMPI SWAP3 DUP3 PUSH1 0x1 SWAP5 SWAP4 PUSH1 0x20 SWAP4 DUP7 SWAP6 PUSH1 0x0 SWAP3 PUSH2 0x403D JUMPI JUMPDEST POP POP PUSH1 0x0 NOT PUSH1 0x3 DUP4 SWAP1 SHL SHR NOT AND SWAP1 DUP5 SHL OR DUP7 SSTORE JUMPDEST ADD SWAP4 ADD SWAP5 ADD SWAP4 SWAP2 PUSH2 0x3B18 JUMP JUMPDEST ADD CALLDATALOAD SWAP1 POP DUP11 DUP1 PUSH2 0x401D JUMP JUMPDEST DUP6 PUSH1 0x0 MSTORE PUSH1 0x20 PUSH1 0x0 KECCAK256 SWAP2 PUSH1 0x0 JUMPDEST PUSH1 0x1F NOT DUP6 AND DUP2 LT PUSH2 0x40A0 JUMPI POP DUP4 PUSH1 0x20 SWAP4 PUSH1 0x1 SWAP7 SWAP4 DUP8 SWAP7 SWAP4 DUP8 SWAP5 PUSH1 0x1F NOT DUP2 AND LT PUSH2 0x4086 JUMPI JUMPDEST POP POP POP DUP2 SHL ADD DUP7 SSTORE PUSH2 0x4031 JUMP JUMPDEST ADD CALLDATALOAD PUSH1 0x0 NOT PUSH1 0x3 DUP5 SWAP1 SHL PUSH1 0xF8 AND SHR NOT AND SWAP1 SSTORE DUP11 DUP1 DUP1 PUSH2 0x4079 JUMP JUMPDEST SWAP1 SWAP3 PUSH1 0x20 PUSH1 0x1 DUP2 SWAP3 DUP7 DUP7 ADD CALLDATALOAD DUP2 SSTORE ADD SWAP5 ADD SWAP2 ADD PUSH2 0x4055 JUMP JUMPDEST ADD CALLDATALOAD SWAP1 POP DUP4 DUP1 PUSH2 0x3AAA JUMP JUMPDEST DUP3 PUSH1 0x0 MSTORE PUSH1 0x20 PUSH1 0x0 KECCAK256 SWAP1 PUSH1 0x0 SWAP5 JUMPDEST PUSH1 0x1F NOT DUP5 AND DUP7 LT PUSH2 0x4114 JUMPI PUSH1 0x1 SWAP5 SWAP6 POP DUP4 PUSH1 0x1F NOT DUP2 AND LT PUSH2 0x40FA JUMPI JUMPDEST POP POP POP DUP2 SHL ADD SWAP1 SSTORE PUSH2 0x3ABF JUMP JUMPDEST ADD CALLDATALOAD PUSH1 0x0 NOT PUSH1 0x3 DUP5 SWAP1 SHL PUSH1 0xF8 AND SHR NOT AND SWAP1 SSTORE DUP4 DUP1 DUP1 PUSH2 0x40ED JUMP JUMPDEST SWAP2 PUSH1 0x20 PUSH1 0x1 DUP2 SWAP3 DUP6 DUP6 ADD CALLDATALOAD DUP2 SSTORE ADD SWAP4 ADD SWAP6 ADD SWAP5 PUSH2 0x40D1 JUMP JUMPDEST ADD CALLDATALOAD SWAP1 POP DUP4 DUP1 PUSH2 0x3A37 JUMP JUMPDEST DUP3 PUSH1 0x0 MSTORE PUSH1 0x20 PUSH1 0x0 KECCAK256 SWAP1 PUSH1 0x0 SWAP5 JUMPDEST PUSH1 0x1F NOT DUP5 AND DUP7 LT PUSH2 0x4188 JUMPI PUSH1 0x1 SWAP5 SWAP6 POP DUP4 PUSH1 0x1F NOT DUP2 AND LT PUSH2 0x416E JUMPI JUMPDEST POP POP POP DUP2 SHL ADD SWAP1 SSTORE PUSH2 0x3A4C JUMP JUMPDEST ADD CALLDATALOAD PUSH1 0x0 NOT PUSH1 0x3 DUP5 SWAP1 SHL PUSH1 0xF8 AND SHR NOT AND SWAP1 SSTORE DUP4 DUP1 DUP1 PUSH2 0x4161 JUMP JUMPDEST SWAP2 PUSH1 0x20 PUSH1 0x1 DUP2 SWAP3 DUP6 DUP6 ADD CALLDATALOAD DUP2 SSTORE ADD SWAP4 ADD SWAP6 ADD SWAP5 PUSH2 0x4145 JUMP JUMPDEST PUSH1 0x40 MLOAD PUSH3 0x461BCD PUSH1 0xE5 SHL DUP2 MSTORE PUSH1 0x20 PUSH1 0x4 DUP3 ADD MSTORE PUSH1 0x1C PUSH1 0x24 DUP3 ADD MSTORE PUSH28 0x5375622D63617465676F72792063616E6E6F7420626520656D707479 PUSH1 0x20 SHL PUSH1 0x44 DUP3 ADD MSTORE PUSH1 0x64 SWAP1 REVERT JUMPDEST PUSH1 0x40 MLOAD PUSH3 0x461BCD PUSH1 0xE5 SHL DUP2 MSTORE PUSH1 0x20 PUSH1 0x4 DUP3 ADD MSTORE PUSH1 0x18 PUSH1 0x24 DUP3 ADD MSTORE PUSH24 0x43617465676F72792063616E6E6F7420626520656D707479 PUSH1 0x40 SHL PUSH1 0x44 DUP3 ADD MSTORE PUSH1 0x64 SWAP1 REVERT JUMPDEST PUSH1 0x40 MLOAD PUSH3 0x461BCD PUSH1 0xE5 SHL DUP2 MSTORE PUSH1 0x20 PUSH1 0x4 DUP3 ADD MSTORE PUSH1 0x15 PUSH1 0x24 DUP3 ADD MSTORE PUSH21 0x53697A65732063616E6E6F7420626520656D707479 PUSH1 0x58 SHL PUSH1 0x44 DUP3 ADD MSTORE PUSH1 0x64 SWAP1 REVERT JUMPDEST PUSH1 0x40 MLOAD PUSH3 0x461BCD PUSH1 0xE5 SHL DUP2 MSTORE PUSH1 0x20 PUSH1 0x4 DUP3 ADD MSTORE PUSH1 0x16 PUSH1 0x24 DUP3 ADD MSTORE PUSH22 0x436F6C6F72732063616E6E6F7420626520656D707479 PUSH1 0x50 SHL PUSH1 0x44 DUP3 ADD MSTORE PUSH1 0x64 SWAP1 REVERT JUMPDEST PUSH1 0x40 MLOAD PUSH3 0x461BCD PUSH1 0xE5 SHL DUP2 MSTORE PUSH1 0x20 PUSH1 0x4 DUP3 ADD MSTORE PUSH1 0x1B PUSH1 0x24 DUP3 ADD MSTORE PUSH27 0x4465736372697074696F6E2063616E6E6F7420626520656D707479 PUSH1 0x28 SHL PUSH1 0x44 DUP3 ADD MSTORE PUSH1 0x64 SWAP1 REVERT JUMPDEST PUSH1 0x40 MLOAD PUSH3 0x461BCD PUSH1 0xE5 SHL DUP2 MSTORE PUSH1 0x20 PUSH1 0x4 DUP3 ADD MSTORE PUSH1 0x28 PUSH1 0x24 DUP3 ADD MSTORE PUSH32 0x4F6E6C79207468652073656C6C65722063616E20757064617465207468656972 PUSH1 0x44 DUP3 ADD MSTORE PUSH8 0x81C1C9BD91D58DD PUSH1 0xC2 SHL PUSH1 0x64 DUP3 ADD MSTORE PUSH1 0x84 SWAP1 REVERT JUMPDEST POP CALLER PUSH1 0x0 MSTORE PUSH1 0x16 PUSH1 0x20 MSTORE PUSH1 0xFF PUSH1 0x40 PUSH1 0x0 KECCAK256 SLOAD AND DUP1 ISZERO PUSH2 0x3858 JUMPI POP PUSH1 0x13 PUSH1 0x20 MSTORE PUSH1 0xFF PUSH1 0x40 PUSH1 0x0 KECCAK256 SLOAD AND PUSH1 0x4 DUP2 LT ISZERO PUSH2 0x6E2 JUMPI PUSH1 0x2 EQ PUSH2 0x3858 JUMP JUMPDEST CALLVALUE PUSH2 0x612 JUMPI PUSH1 0xA0 CALLDATASIZE PUSH1 0x3 NOT ADD SLT PUSH2 0x612 JUMPI PUSH1 0x4 CALLDATALOAD PUSH1 0x1 PUSH1 0x1 PUSH1 0x40 SHL SUB DUP2 GT PUSH2 0x612 JUMPI PUSH2 0x43A1 SWAP1 CALLDATASIZE SWAP1 PUSH1 0x4 ADD PUSH2 0x715B JUMP JUMPDEST PUSH1 0x24 CALLDATALOAD PUSH1 0x1 PUSH1 0x1 PUSH1 0x40 SHL SUB DUP2 GT PUSH2 0x612 JUMPI PUSH2 0x43C0 SWAP1 CALLDATASIZE SWAP1 PUSH1 0x4 ADD PUSH2 0x715B JUMP JUMPDEST PUSH1 0x44 CALLDATALOAD PUSH1 0x1 PUSH1 0x1 PUSH1 0x40 SHL SUB DUP2 GT PUSH2 0x612 JUMPI PUSH2 0x43DF SWAP1 CALLDATASIZE SWAP1 PUSH1 0x4 ADD PUSH2 0x715B JUMP JUMPDEST PUSH1 0x64 CALLDATALOAD PUSH1 0x1 PUSH1 0x1 PUSH1 0x40 SHL SUB DUP2 GT PUSH2 0x612 JUMPI PUSH2 0x43FE SWAP1 CALLDATASIZE SWAP1 PUSH1 0x4 ADD PUSH2 0x715B JUMP JUMPDEST SWAP1 PUSH1 0x84 CALLDATALOAD PUSH1 0x1 PUSH1 0x1 PUSH1 0x40 SHL SUB DUP2 GT PUSH2 0x612 JUMPI PUSH2 0x441E SWAP1 CALLDATASIZE SWAP1 PUSH1 0x4 ADD PUSH2 0x715B JUMP JUMPDEST PUSH1 0x0 SLOAD SWAP1 SWAP4 SWAP1 PUSH1 0x1 PUSH1 0x1 PUSH1 0xA0 SHL SUB AND CALLER SUB PUSH2 0x49A0 JUMPI JUMPDEST DUP5 MLOAD ISZERO PUSH2 0x4962 JUMPI PUSH2 0x4447 DUP3 MLOAD ISZERO ISZERO PUSH2 0x7BA7 JUMP JUMPDEST PUSH2 0x4453 DUP4 MLOAD ISZERO ISZERO PUSH2 0x7BE4 JUMP JUMPDEST PUSH1 0x40 MLOAD SWAP5 PUSH2 0x4460 DUP7 PUSH2 0x705F JUMP JUMPDEST DUP6 MSTORE PUSH1 0x20 DUP6 ADD MSTORE PUSH1 0x40 DUP5 ADD MSTORE PUSH1 0x60 DUP4 ADD MSTORE PUSH1 0x80 DUP3 ADD MSTORE TIMESTAMP PUSH1 0xA0 DUP3 ADD MSTORE PUSH1 0x1 PUSH1 0xC0 DUP3 ADD MSTORE CALLER PUSH1 0x0 MSTORE PUSH1 0xD PUSH1 0x20 MSTORE PUSH1 0x40 PUSH1 0x0 KECCAK256 DUP2 MLOAD SWAP2 DUP3 MLOAD PUSH1 0x1 DUP1 PUSH1 0x40 SHL SUB DUP2 GT PUSH2 0x1469 JUMPI PUSH2 0x44B1 DUP2 PUSH2 0x1BF8 DUP6 SLOAD PUSH2 0x71EA JUMP JUMPDEST PUSH1 0x20 PUSH1 0x1F DUP3 GT PUSH1 0x1 EQ PUSH2 0x48FA JUMPI DUP2 SWAP3 SWAP4 SWAP5 PUSH1 0x0 SWAP3 PUSH2 0x48EF JUMPI JUMPDEST POP POP DUP2 PUSH1 0x1 SHL SWAP2 PUSH1 0x0 NOT SWAP1 PUSH1 0x3 SHL SHR NOT AND OR DUP3 SSTORE JUMPDEST PUSH1 0x20 DUP2 ADD MLOAD DUP1 MLOAD SWAP1 SWAP3 SWAP1 PUSH1 0x1 PUSH1 0x1 PUSH1 0x40 SHL SUB DUP2 GT PUSH2 0x1469 JUMPI PUSH2 0x4511 DUP2 PUSH2 0x4508 PUSH1 0x1 DUP6 ADD SLOAD PUSH2 0x71EA JUMP JUMPDEST PUSH1 0x1 DUP6 ADD PUSH2 0x7C38 JUMP JUMPDEST PUSH1 0x20 PUSH1 0x1F DUP3 GT PUSH1 0x1 EQ PUSH2 0x4881 JUMPI DUP2 SWAP3 SWAP4 SWAP5 PUSH1 0x0 SWAP3 PUSH2 0x4876 JUMPI JUMPDEST POP POP DUP2 PUSH1 0x1 SHL SWAP2 PUSH1 0x0 NOT SWAP1 PUSH1 0x3 SHL SHR NOT AND OR PUSH1 0x1 DUP3 ADD SSTORE JUMPDEST PUSH1 0x40 DUP3 ADD MLOAD DUP1 MLOAD SWAP1 SWAP3 SWAP1 PUSH1 0x1 PUSH1 0x1 PUSH1 0x40 SHL SUB DUP2 GT PUSH2 0x1469 JUMPI PUSH2 0x4574 DUP2 PUSH2 0x456B PUSH1 0x2 DUP7 ADD SLOAD PUSH2 0x71EA JUMP JUMPDEST PUSH1 0x2 DUP7 ADD PUSH2 0x7C38 JUMP JUMPDEST PUSH1 0x20 PUSH1 0x1F DUP3 GT PUSH1 0x1 EQ PUSH2 0x4808 JUMPI DUP2 SWAP3 SWAP4 SWAP5 PUSH1 0x0 SWAP3 PUSH2 0x47FD JUMPI JUMPDEST POP POP DUP2 PUSH1 0x1 SHL SWAP2 PUSH1 0x0 NOT SWAP1 PUSH1 0x3 SHL SHR NOT AND OR PUSH1 0x2 DUP4 ADD SSTORE JUMPDEST PUSH1 0x60 DUP2 ADD MLOAD DUP1 MLOAD SWAP1 SWAP3 SWAP1 PUSH1 0x1 PUSH1 0x1 PUSH1 0x40 SHL SUB DUP2 GT PUSH2 0x1469 JUMPI PUSH2 0x45CE DUP2 PUSH2 0x108B PUSH1 0x3 DUP6 ADD SLOAD PUSH2 0x71EA JUMP JUMPDEST PUSH1 0x20 PUSH1 0x1F DUP3 GT PUSH1 0x1 EQ PUSH2 0x478F JUMPI DUP2 SWAP3 SWAP4 SWAP5 PUSH1 0x0 SWAP3 PUSH2 0x4784 JUMPI JUMPDEST POP POP DUP2 PUSH1 0x1 SHL SWAP2 PUSH1 0x0 NOT SWAP1 PUSH1 0x3 SHL SHR NOT AND OR PUSH1 0x3 DUP3 ADD SSTORE JUMPDEST PUSH1 0x80 DUP3 ADD MLOAD DUP1 MLOAD SWAP1 SWAP3 SWAP1 PUSH1 0x4 DUP4 ADD SWAP1 PUSH1 0x1 PUSH1 0x1 PUSH1 0x40 SHL SUB DUP2 GT PUSH2 0x1469 JUMPI PUSH2 0x462A DUP2 PUSH2 0x214B DUP5 SLOAD PUSH2 0x71EA JUMP JUMPDEST PUSH1 0x20 PUSH1 0x1F DUP3 GT PUSH1 0x1 EQ PUSH2 0x4714 JUMPI SWAP2 DUP2 PUSH1 0x6 SWAP5 SWAP3 PUSH1 0xC0 SWAP5 PUSH2 0x4676 SWAP9 PUSH1 0x0 SWAP3 PUSH2 0x4709 JUMPI JUMPDEST POP POP DUP2 PUSH1 0x1 SHL SWAP2 PUSH1 0x0 NOT SWAP1 PUSH1 0x3 SHL SHR NOT AND OR SWAP1 SSTORE JUMPDEST PUSH1 0xA0 DUP2 ADD MLOAD PUSH1 0x5 DUP6 ADD SSTORE ADD MLOAD ISZERO ISZERO SWAP2 ADD PUSH2 0x7A4A JUMP JUMPDEST CALLER PUSH1 0x0 DUP2 DUP2 MSTORE PUSH1 0x16 PUSH1 0x20 MSTORE PUSH1 0x40 DUP2 KECCAK256 DUP1 SLOAD PUSH1 0xFF NOT AND PUSH1 0x1 OR SWAP1 SSTORE SLOAD PUSH1 0x1 PUSH1 0x1 PUSH1 0xA0 SHL SUB AND SUB PUSH2 0x46FF JUMPI PUSH2 0x46B4 PUSH1 0x2 JUMPDEST PUSH1 0x13 PUSH1 0x20 MSTORE PUSH1 0x40 PUSH1 0x0 KECCAK256 PUSH2 0x7C7F JUMP JUMPDEST PUSH2 0x46BD CALLER PUSH2 0x9807 JUMP JUMPDEST ISZERO PUSH2 0x46F1 JUMPI JUMPDEST PUSH1 0x40 MLOAD TIMESTAMP DUP2 MSTORE PUSH32 0xA1A1A78FF3033D5EE8393372052AEB2A16BBB347A29F3780370E9506C109E372 PUSH1 0x20 CALLER SWAP3 LOG2 STOP JUMPDEST PUSH2 0x46FA CALLER PUSH2 0x7C97 JUMP JUMPDEST PUSH2 0x46C3 JUMP JUMPDEST PUSH2 0x46B4 PUSH1 0x1 PUSH2 0x46A5 JUMP JUMPDEST ADD MLOAD SWAP1 POP DUP9 DUP1 PUSH2 0x464C JUMP JUMPDEST PUSH1 0x1F NOT DUP3 AND SWAP6 DUP4 PUSH1 0x0 MSTORE PUSH1 0x20 PUSH1 0x0 KECCAK256 SWAP7 PUSH1 0x0 JUMPDEST DUP2 DUP2 LT PUSH2 0x476C JUMPI POP SWAP3 PUSH2 0x4676 SWAP8 PUSH1 0xC0 SWAP6 SWAP4 PUSH1 0x1 SWAP4 DUP4 PUSH1 0x6 SWAP10 SWAP8 LT PUSH2 0x4753 JUMPI JUMPDEST POP POP POP DUP2 SHL ADD SWAP1 SSTORE PUSH2 0x4661 JUMP JUMPDEST ADD MLOAD PUSH1 0x0 NOT PUSH1 0xF8 DUP5 PUSH1 0x3 SHL AND SHR NOT AND SWAP1 SSTORE DUP9 DUP1 DUP1 PUSH2 0x4746 JUMP JUMPDEST DUP4 DUP4 ADD MLOAD DUP10 SSTORE PUSH1 0x1 SWAP1 SWAP9 ADD SWAP8 PUSH1 0x20 SWAP4 DUP5 ADD SWAP4 ADD PUSH2 0x4727 JUMP JUMPDEST ADD MLOAD SWAP1 POP DUP5 DUP1 PUSH2 0x45E7 JUMP JUMPDEST PUSH1 0x3 DUP4 ADD PUSH1 0x0 MSTORE PUSH1 0x20 PUSH1 0x0 KECCAK256 SWAP1 PUSH1 0x0 JUMPDEST PUSH1 0x1F NOT DUP5 AND DUP2 LT PUSH2 0x47E5 JUMPI POP PUSH1 0x1 SWAP4 SWAP5 SWAP6 DUP4 PUSH1 0x1F NOT DUP2 AND LT PUSH2 0x47CC JUMPI JUMPDEST POP POP POP DUP2 SHL ADD PUSH1 0x3 DUP3 ADD SSTORE PUSH2 0x45FF JUMP JUMPDEST ADD MLOAD PUSH1 0x0 NOT PUSH1 0xF8 DUP5 PUSH1 0x3 SHL AND SHR NOT AND SWAP1 SSTORE DUP5 DUP1 DUP1 PUSH2 0x47BC JUMP JUMPDEST SWAP1 SWAP2 PUSH1 0x20 PUSH1 0x1 DUP2 SWAP3 DUP6 DUP11 ADD MLOAD DUP2 SSTORE ADD SWAP4 ADD SWAP2 ADD PUSH2 0x479F JUMP JUMPDEST ADD MLOAD SWAP1 POP DUP5 DUP1 PUSH2 0x458D JUMP JUMPDEST PUSH1 0x2 DUP5 ADD PUSH1 0x0 MSTORE PUSH1 0x20 PUSH1 0x0 KECCAK256 SWAP1 PUSH1 0x0 JUMPDEST PUSH1 0x1F NOT DUP5 AND DUP2 LT PUSH2 0x485E JUMPI POP PUSH1 0x1 SWAP4 SWAP5 SWAP6 DUP4 PUSH1 0x1F NOT DUP2 AND LT PUSH2 0x4845 JUMPI JUMPDEST POP POP POP DUP2 SHL ADD PUSH1 0x2 DUP4 ADD SSTORE PUSH2 0x45A5 JUMP JUMPDEST ADD MLOAD PUSH1 0x0 NOT PUSH1 0xF8 DUP5 PUSH1 0x3 SHL AND SHR NOT AND SWAP1 SSTORE DUP5 DUP1 DUP1 PUSH2 0x4835 JUMP JUMPDEST SWAP1 SWAP2 PUSH1 0x20 PUSH1 0x1 DUP2 SWAP3 DUP6 DUP11 ADD MLOAD DUP2 SSTORE ADD SWAP4 ADD SWAP2 ADD PUSH2 0x4818 JUMP JUMPDEST ADD MLOAD SWAP1 POP DUP5 DUP1 PUSH2 0x452A JUMP JUMPDEST PUSH1 0x1 DUP4 ADD PUSH1 0x0 MSTORE PUSH1 0x20 PUSH1 0x0 KECCAK256 SWAP1 PUSH1 0x0 JUMPDEST PUSH1 0x1F NOT DUP5 AND DUP2 LT PUSH2 0x48D7 JUMPI POP PUSH1 0x1 SWAP4 SWAP5 SWAP6 DUP4 PUSH1 0x1F NOT DUP2 AND LT PUSH2 0x48BE JUMPI JUMPDEST POP POP POP DUP2 SHL ADD PUSH1 0x1 DUP3 ADD SSTORE PUSH2 0x4542 JUMP JUMPDEST ADD MLOAD PUSH1 0x0 NOT PUSH1 0xF8 DUP5 PUSH1 0x3 SHL AND SHR NOT AND SWAP1 SSTORE DUP5 DUP1 DUP1 PUSH2 0x48AE JUMP JUMPDEST SWAP1 SWAP2 PUSH1 0x20 PUSH1 0x1 DUP2 SWAP3 DUP6 DUP11 ADD MLOAD DUP2 SSTORE ADD SWAP4 ADD SWAP2 ADD PUSH2 0x4891 JUMP JUMPDEST ADD MLOAD SWAP1 POP DUP5 DUP1 PUSH2 0x44CA JUMP JUMPDEST DUP4 PUSH1 0x0 MSTORE PUSH1 0x20 PUSH1 0x0 KECCAK256 SWAP1 PUSH1 0x0 JUMPDEST PUSH1 0x1F NOT DUP5 AND DUP2 LT PUSH2 0x494A JUMPI POP PUSH1 0x1 SWAP4 SWAP5 SWAP6 DUP4 PUSH1 0x1F NOT DUP2 AND LT PUSH2 0x4931 JUMPI JUMPDEST POP POP POP DUP2 SHL ADD DUP3 SSTORE PUSH2 0x44DF JUMP JUMPDEST ADD MLOAD PUSH1 0x0 NOT PUSH1 0xF8 DUP5 PUSH1 0x3 SHL AND SHR NOT AND SWAP1 SSTORE DUP5 DUP1 DUP1 PUSH2 0x4924 JUMP JUMPDEST SWAP1 SWAP2 PUSH1 0x20 PUSH1 0x1 DUP2 SWAP3 DUP6 DUP11 ADD MLOAD DUP2 SSTORE ADD SWAP4 ADD SWAP2 ADD PUSH2 0x4907 JUMP JUMPDEST PUSH1 0x40 MLOAD PUSH3 0x461BCD PUSH1 0xE5 SHL DUP2 MSTORE PUSH1 0x20 PUSH1 0x4 DUP3 ADD MSTORE PUSH1 0x16 PUSH1 0x24 DUP3 ADD MSTORE PUSH22 0x109D5CDA5B995CDCC81B985B59481C995C5D5A5C9959 PUSH1 0x52 SHL PUSH1 0x44 DUP3 ADD MSTORE PUSH1 0x64 SWAP1 REVERT JUMPDEST CALLER PUSH1 0x0 MSTORE PUSH1 0x16 PUSH1 0x20 MSTORE PUSH1 0xFF PUSH1 0x40 PUSH1 0x0 KECCAK256 SLOAD AND ISZERO PUSH2 0x4434 JUMPI PUSH1 0x40 MLOAD PUSH3 0x461BCD PUSH1 0xE5 SHL DUP2 MSTORE PUSH1 0x20 PUSH1 0x4 DUP3 ADD MSTORE PUSH1 0x12 PUSH1 0x24 DUP3 ADD MSTORE PUSH18 0x105B1C9958591E481C9959DA5CDD195C9959 PUSH1 0x72 SHL PUSH1 0x44 DUP3 ADD MSTORE PUSH1 0x64 SWAP1 REVERT JUMPDEST CALLVALUE PUSH2 0x612 JUMPI PUSH1 0x40 CALLDATASIZE PUSH1 0x3 NOT ADD SLT PUSH2 0x612 JUMPI PUSH1 0x1 PUSH1 0x1 PUSH1 0x40 SHL SUB PUSH1 0x4 CALLDATALOAD PUSH1 0x24 CALLDATALOAD DUP3 DUP2 GT PUSH2 0x612 JUMPI PUSH2 0x4A25 SWAP1 CALLDATASIZE SWAP1 PUSH1 0x4 ADD PUSH2 0x715B JUMP JUMPDEST PUSH2 0x4A2D PUSH2 0x76A0 JUMP JUMPDEST DUP2 PUSH1 0x0 MSTORE PUSH1 0x20 SWAP1 PUSH1 0xE DUP3 MSTORE PUSH1 0x40 PUSH1 0x0 KECCAK256 SLOAD ISZERO PUSH2 0x4BCA JUMPI PUSH2 0x4A4F DUP2 MLOAD ISZERO ISZERO PUSH2 0x89AD JUMP JUMPDEST PUSH2 0x4A5A PUSH1 0x1F SLOAD PUSH2 0x88EE JUMP JUMPDEST DUP1 PUSH1 0x1F SSTORE PUSH1 0x40 MLOAD SWAP1 PUSH2 0x4A6B DUP3 PUSH2 0x707A JUMP JUMPDEST DUP1 DUP3 MSTORE DUP4 DUP3 ADD DUP4 DUP2 MSTORE PUSH1 0x40 DUP4 ADD SWAP1 DUP7 DUP3 MSTORE PUSH1 0x60 DUP5 ADD SWAP3 PUSH1 0x1 SWAP1 DUP2 DUP6 MSTORE PUSH1 0x0 MSTORE PUSH1 0xF DUP8 MSTORE PUSH1 0x40 PUSH1 0x0 KECCAK256 SWAP5 MLOAD DUP6 SSTORE DUP1 DUP6 ADD SWAP2 MLOAD DUP1 MLOAD SWAP10 DUP11 GT PUSH2 0x1469 JUMPI PUSH2 0x4AB3 DUP11 PUSH2 0x1BF8 DUP6 SLOAD PUSH2 0x71EA JUMP JUMPDEST DUP8 SWAP1 PUSH1 0x1F DUP12 GT PUSH1 0x1 EQ PUSH2 0x4B4D JUMPI SWAP10 DUP1 DUP1 PUSH1 0x3 SWAP7 SWAP5 PUSH2 0x4B09 SWAP10 SWAP9 SWAP7 SWAP5 PUSH1 0x0 DUP1 MLOAD PUSH1 0x20 PUSH2 0x9916 DUP4 CODECOPY DUP2 MLOAD SWAP2 MSTORE SWAP13 SWAP14 SWAP15 PUSH1 0x0 SWAP5 PUSH2 0x4B42 JUMPI JUMPDEST POP POP SHL SWAP2 PUSH1 0x0 NOT SWAP1 DUP8 SHL SHR NOT AND OR SWAP1 SSTORE JUMPDEST MLOAD PUSH1 0x2 DUP5 ADD SSTORE MLOAD ISZERO ISZERO SWAP2 ADD PUSH2 0x7A4A JUMP JUMPDEST DUP4 PUSH1 0x0 MSTORE PUSH1 0xE DUP4 MSTORE PUSH2 0x4B25 PUSH1 0x3 PUSH1 0x40 PUSH1 0x0 KECCAK256 ADD PUSH1 0x1F SLOAD SWAP1 PUSH2 0x83E6 JUMP JUMPDEST PUSH1 0x1F SLOAD SWAP3 PUSH2 0x4B3D PUSH1 0x40 MLOAD SWAP3 DUP3 DUP5 SWAP4 DUP5 MSTORE DUP4 ADD SWAP1 PUSH2 0x6D0C JUMP JUMPDEST SUB SWAP1 LOG3 STOP JUMPDEST ADD MLOAD SWAP3 POP DUP15 DUP1 PUSH2 0x4AE8 JUMP JUMPDEST SWAP10 SWAP1 PUSH1 0x1F NOT DUP3 AND SWAP11 DUP5 PUSH1 0x0 MSTORE DUP10 PUSH1 0x0 KECCAK256 SWAP12 PUSH1 0x0 JUMPDEST DUP2 DUP2 LT PUSH2 0x4BB5 JUMPI POP SWAP12 PUSH1 0x3 SWAP7 SWAP5 SWAP3 DUP5 SWAP3 PUSH2 0x4B09 SWAP11 SWAP10 SWAP8 SWAP6 PUSH1 0x0 DUP1 MLOAD PUSH1 0x20 PUSH2 0x9916 DUP4 CODECOPY DUP2 MLOAD SWAP2 MSTORE SWAP14 SWAP15 SWAP16 LT PUSH2 0x4B9D JUMPI JUMPDEST POP POP POP DUP2 SHL ADD SWAP1 SSTORE PUSH2 0x4AF9 JUMP JUMPDEST ADD MLOAD PUSH1 0x0 NOT DUP4 DUP10 SHL PUSH1 0xF8 AND SHR NOT AND SWAP1 SSTORE DUP13 DUP1 DUP1 PUSH2 0x4B90 JUMP JUMPDEST DUP4 DUP4 ADD MLOAD DUP15 SSTORE SWAP13 DUP6 ADD SWAP13 SWAP3 DUP12 ADD SWAP3 DUP12 ADD PUSH2 0x4B61 JUMP JUMPDEST PUSH1 0x40 MLOAD PUSH3 0x461BCD PUSH1 0xE5 SHL DUP2 MSTORE PUSH1 0x4 DUP2 ADD DUP4 SWAP1 MSTORE PUSH1 0x1E PUSH1 0x24 DUP3 ADD MSTORE PUSH32 0x506172656E742063617465676F727920646F6573206E6F742065786973740000 PUSH1 0x44 DUP3 ADD MSTORE PUSH1 0x64 SWAP1 REVERT JUMPDEST CALLVALUE PUSH2 0x612 JUMPI PUSH1 0x20 CALLDATASIZE PUSH1 0x3 NOT ADD SLT PUSH2 0x612 JUMPI PUSH1 0x4 CALLDATALOAD PUSH1 0x0 MSTORE PUSH1 0x10 PUSH1 0x20 MSTORE PUSH1 0x40 PUSH1 0x0 KECCAK256 DUP1 SLOAD PUSH1 0x1 PUSH1 0xA0 SHL PUSH1 0x1 SWAP1 SUB PUSH1 0x1 DUP4 ADD SLOAD AND SWAP2 PUSH1 0x40 MLOAD DUP1 DUP1 PUSH1 0x2 DUP5 ADD SWAP1 PUSH2 0x4C55 SWAP2 PUSH2 0x7224 JUMP JUMPDEST SUB PUSH2 0x4C60 SWAP1 DUP3 PUSH2 0x70E6 JUMP JUMPDEST PUSH1 0x40 MLOAD DUP1 PUSH2 0x4C71 DUP2 PUSH1 0x3 DUP7 ADD PUSH2 0x7224 JUMP JUMPDEST SUB PUSH2 0x4C7C SWAP1 DUP3 PUSH2 0x70E6 JUMP JUMPDEST PUSH1 0x4 DUP4 ADD SLOAD PUSH1 0x5 DUP5 ADD SLOAD SWAP1 PUSH1 0x40 MLOAD DUP1 DUP1 PUSH1 0x9 DUP9 ADD SWAP1 PUSH2 0x4C9A SWAP2 PUSH2 0x7224 JUMP JUMPDEST SUB PUSH2 0x4CA5 SWAP1 DUP3 PUSH2 0x70E6 JUMP JUMPDEST PUSH1 0x40 MLOAD SWAP1 DUP2 PUSH2 0x4CB7 DUP2 PUSH1 0xA DUP11 ADD PUSH2 0x7224 JUMP JUMPDEST SUB PUSH2 0x4CC2 SWAP1 DUP4 PUSH2 0x70E6 JUMP JUMPDEST PUSH1 0xB DUP8 ADD SLOAD SWAP3 PUSH1 0x40 MLOAD SWAP5 DUP6 DUP1 PUSH1 0xC DUP12 ADD SWAP1 PUSH2 0x4CDC SWAP2 PUSH2 0x7224 JUMP JUMPDEST SUB PUSH2 0x4CE7 SWAP1 DUP8 PUSH2 0x70E6 JUMP JUMPDEST PUSH1 0x40 MLOAD SWAP7 DUP8 PUSH2 0x4CF9 DUP2 PUSH1 0xD DUP14 ADD PUSH2 0x7224 JUMP JUMPDEST SUB PUSH2 0x4D04 SWAP1 DUP10 PUSH2 0x70E6 JUMP JUMPDEST PUSH1 0xE DUP11 ADD SLOAD SWAP10 PUSH1 0xF ADD SLOAD SWAP9 PUSH1 0x40 MLOAD SWAP13 DUP14 SWAP13 DUP14 MSTORE PUSH1 0x20 DUP14 ADD MSTORE DUP12 PUSH2 0x1E0 PUSH1 0x40 DUP2 SWAP3 ADD MSTORE DUP13 ADD PUSH2 0x4D31 SWAP2 PUSH2 0x6D0C JUMP JUMPDEST DUP12 DUP2 SUB PUSH1 0x60 DUP14 ADD MSTORE PUSH2 0x4D42 SWAP2 PUSH2 0x6D0C JUMP JUMPDEST SWAP2 PUSH1 0x80 DUP12 ADD MSTORE PUSH1 0xA0 DUP11 ADD MSTORE DUP9 DUP2 SUB PUSH1 0xC0 DUP11 ADD MSTORE PUSH2 0x4D5E SWAP2 PUSH2 0x6D0C JUMP JUMPDEST DUP8 DUP2 SUB PUSH1 0xE0 DUP10 ADD MSTORE PUSH2 0x4D6F SWAP2 PUSH2 0x6D0C JUMP JUMPDEST SWAP1 PUSH2 0x100 DUP8 ADD MSTORE DUP6 DUP2 SUB PUSH2 0x120 DUP8 ADD MSTORE PUSH2 0x4D88 SWAP2 PUSH2 0x6D0C JUMP JUMPDEST DUP5 DUP2 SUB PUSH2 0x140 DUP7 ADD MSTORE PUSH2 0x4D9A SWAP2 PUSH2 0x6D0C JUMP JUMPDEST SWAP2 PUSH2 0x160 DUP5 ADD MSTORE PUSH1 0xFF DUP2 AND ISZERO ISZERO PUSH2 0x180 DUP5 ADD MSTORE DUP1 PUSH1 0x8 SHR PUSH1 0xFF AND ISZERO ISZERO PUSH2 0x1A0 DUP5 ADD MSTORE PUSH1 0x10 SHR PUSH1 0xFF AND ISZERO ISZERO PUSH2 0x1C0 DUP4 ADD MSTORE SUB SWAP1 RETURN JUMPDEST CALLVALUE PUSH2 0x612 JUMPI PUSH1 0x0 CALLDATASIZE PUSH1 0x3 NOT ADD SLT PUSH2 0x612 JUMPI PUSH2 0x4DE7 PUSH2 0x76A0 JUMP JUMPDEST PUSH1 0x0 DUP1 SLOAD PUSH1 0x1 PUSH1 0x1 PUSH1 0xA0 SHL SUB NOT DUP2 AND DUP3 SSTORE PUSH1 0x1 PUSH1 0x1 PUSH1 0xA0 SHL SUB AND PUSH1 0x0 DUP1 MLOAD PUSH1 0x20 PUSH2 0x98D6 DUP4 CODECOPY DUP2 MLOAD SWAP2 MSTORE DUP3 DUP1 LOG3 STOP JUMPDEST CALLVALUE PUSH2 0x612 JUMPI PUSH1 0x20 CALLDATASIZE PUSH1 0x3 NOT ADD SLT PUSH2 0x612 JUMPI PUSH1 0x1 PUSH1 0x1 PUSH1 0xA0 SHL SUB PUSH2 0x4E36 PUSH2 0x6FFB JUMP JUMPDEST AND DUP1 ISZERO PUSH2 0x4E55 JUMPI PUSH1 0x0 MSTORE PUSH1 0x5 PUSH1 0x20 MSTORE PUSH1 0x20 PUSH1 0x40 PUSH1 0x0 KECCAK256 SLOAD PUSH1 0x40 MLOAD SWAP1 DUP2 MSTORE RETURN JUMPDEST PUSH1 0x40 MLOAD PUSH3 0x461BCD PUSH1 0xE5 SHL DUP2 MSTORE PUSH1 0x20 PUSH1 0x4 DUP3 ADD MSTORE PUSH1 0x29 PUSH1 0x24 DUP3 ADD MSTORE PUSH32 0x4552433732313A2061646472657373207A65726F206973206E6F742061207661 PUSH1 0x44 DUP3 ADD MSTORE PUSH9 0x3634B21037BBB732B9 PUSH1 0xB9 SHL PUSH1 0x64 DUP3 ADD MSTORE PUSH1 0x84 SWAP1 REVERT JUMPDEST CALLVALUE PUSH2 0x612 JUMPI PUSH1 0x20 DUP1 PUSH1 0x3 NOT CALLDATASIZE ADD SLT PUSH2 0x612 JUMPI PUSH2 0x4EC6 PUSH2 0x6FFB JUMP JUMPDEST PUSH1 0x40 MLOAD PUSH2 0x4ED2 DUP2 PUSH2 0x7095 JUMP JUMPDEST PUSH2 0x38A PUSH1 0x60 SWAP3 DUP4 DUP4 MSTORE DUP4 DUP6 DUP5 ADD MSTORE DUP4 PUSH1 0x40 DUP5 ADD MSTORE PUSH1 0x0 DUP5 DUP5 ADD MSTORE PUSH1 0x0 PUSH1 0x80 DUP1 SWAP5 ADD MSTORE PUSH1 0x1 DUP1 PUSH1 0xA0 SHL SUB AND SWAP2 DUP3 PUSH1 0x0 MSTORE PUSH1 0x1A DUP6 MSTORE PUSH1 0xFF PUSH1 0x40 PUSH1 0x0 KECCAK256 SLOAD AND SWAP4 DUP5 PUSH1 0x0 EQ PUSH2 0x5037 JUMPI DUP4 PUSH1 0x0 MSTORE PUSH1 0x1B DUP7 MSTORE PUSH1 0x40 PUSH1 0x0 KECCAK256 PUSH1 0xFF PUSH1 0x4 PUSH1 0x40 MLOAD SWAP3 PUSH2 0x4F35 DUP5 PUSH2 0x7095 JUMP JUMPDEST PUSH1 0x40 MLOAD PUSH2 0x4F46 DUP2 PUSH2 0x3FB DUP2 DUP6 PUSH2 0x7224 JUMP JUMPDEST DUP5 MSTORE PUSH1 0x40 MLOAD PUSH2 0x4F5C DUP2 PUSH2 0x3FB DUP2 PUSH1 0x1 DUP7 ADD PUSH2 0x7224 JUMP JUMPDEST DUP11 DUP6 ADD MSTORE PUSH1 0x40 MLOAD PUSH2 0x4F74 DUP2 PUSH2 0x3FB DUP2 PUSH1 0x2 DUP7 ADD PUSH2 0x7224 JUMP JUMPDEST PUSH1 0x40 DUP6 ADD MSTORE PUSH1 0x3 DUP2 ADD SLOAD DUP6 DUP6 ADD MSTORE ADD SLOAD AND ISZERO ISZERO DUP4 DUP3 ADD MSTORE SWAP4 JUMPDEST PUSH1 0x0 MSTORE PUSH1 0x16 DUP7 MSTORE PUSH1 0xFF PUSH1 0x40 PUSH1 0x0 KECCAK256 SLOAD AND DUP1 PUSH1 0x0 EQ PUSH2 0x502F JUMPI PUSH1 0x13 DUP8 MSTORE PUSH1 0xFF PUSH1 0x40 PUSH1 0x0 KECCAK256 SLOAD AND SWAP3 JUMPDEST PUSH2 0x500C PUSH1 0x40 MLOAD SWAP9 DUP10 SWAP9 ISZERO ISZERO DUP10 MSTORE DUP3 DUP2 DUP11 ADD MSTORE PUSH2 0x4FF7 PUSH2 0x4FDF DUP10 MLOAD PUSH1 0xA0 DUP7 DUP14 ADD MSTORE PUSH2 0x120 DUP13 ADD SWAP1 PUSH2 0x6D0C JUMP JUMPDEST SWAP2 DUP10 ADD MLOAD SWAP2 PUSH1 0x7F NOT SWAP3 DUP4 DUP13 DUP4 SUB ADD PUSH1 0xA0 DUP14 ADD MSTORE PUSH2 0x6D0C JUMP JUMPDEST SWAP1 PUSH1 0x40 DUP10 ADD MLOAD SWAP1 DUP11 DUP4 SUB ADD PUSH1 0xC0 DUP12 ADD MSTORE PUSH2 0x6D0C JUMP JUMPDEST SWAP6 DUP4 DUP2 ADD MLOAD PUSH1 0xE0 DUP10 ADD MSTORE ADD MLOAD ISZERO ISZERO PUSH2 0x100 DUP8 ADD MSTORE ISZERO ISZERO PUSH1 0x40 DUP7 ADD MSTORE DUP5 ADD SWAP1 PUSH2 0x74A0 JUMP JUMPDEST PUSH1 0x0 SWAP3 PUSH2 0x4FB4 JUMP JUMPDEST PUSH1 0x40 MLOAD PUSH2 0x5043 DUP2 PUSH2 0x7095 JUMP JUMPDEST PUSH1 0x40 MLOAD PUSH2 0x504F DUP2 PUSH2 0x70CB JUMP JUMPDEST PUSH1 0x0 DUP2 MSTORE DUP2 MSTORE PUSH1 0x40 MLOAD PUSH2 0x5061 DUP2 PUSH2 0x70CB JUMP JUMPDEST PUSH1 0x0 DUP2 MSTORE DUP8 DUP3 ADD MSTORE PUSH1 0x40 MLOAD PUSH2 0x5075 DUP2 PUSH2 0x70CB JUMP JUMPDEST PUSH1 0x0 DUP2 MSTORE PUSH1 0x40 DUP3 ADD MSTORE PUSH1 0x0 DUP3 DUP3 ADD MSTORE PUSH1 0x0 DUP4 DUP3 ADD MSTORE SWAP4 PUSH2 0x4F8D JUMP JUMPDEST CALLVALUE PUSH2 0x612 JUMPI PUSH1 0x0 CALLDATASIZE PUSH1 0x3 NOT ADD SLT PUSH2 0x612 JUMPI PUSH1 0x0 DUP1 PUSH1 0x1C SLOAD SWAP1 JUMPDEST DUP2 DUP2 LT PUSH2 0x5175 JUMPI POP PUSH2 0x50BA DUP3 PUSH2 0x819A JUMP JUMPDEST SWAP2 PUSH2 0x50C8 PUSH1 0x40 MLOAD SWAP4 DUP5 PUSH2 0x70E6 JUMP JUMPDEST DUP1 DUP4 MSTORE PUSH2 0x50D7 PUSH1 0x1F NOT SWAP2 PUSH2 0x819A JUMP JUMPDEST ADD PUSH1 0x20 SWAP1 CALLDATASIZE DUP3 DUP6 ADD CALLDATACOPY PUSH1 0x0 SWAP1 PUSH1 0x0 JUMPDEST DUP4 DUP2 LT PUSH2 0x50FB JUMPI PUSH1 0x40 MLOAD DUP1 PUSH2 0x38A DUP8 DUP3 PUSH2 0x74F6 JUMP JUMPDEST PUSH2 0x5104 DUP2 PUSH2 0x74AD JUMP JUMPDEST PUSH1 0x1 DUP1 PUSH1 0xA0 SHL SUB SWAP2 SLOAD SWAP1 PUSH1 0x3 SHL SHR AND DUP1 PUSH1 0x0 MSTORE PUSH1 0x1A DUP4 MSTORE PUSH1 0xFF DUP1 PUSH1 0x40 PUSH1 0x0 KECCAK256 SLOAD AND SWAP1 DUP2 PUSH2 0x5161 JUMPI JUMPDEST POP PUSH2 0x5141 JUMPI JUMPDEST POP PUSH2 0x513C SWAP1 PUSH2 0x88EE JUMP JUMPDEST PUSH2 0x50E6 JUMP JUMPDEST DUP4 PUSH2 0x515A SWAP2 PUSH2 0x5154 PUSH2 0x513C SWAP5 SWAP7 DUP10 PUSH2 0x894D JUMP JUMPDEST MSTORE PUSH2 0x88EE JUMP JUMPDEST SWAP3 SWAP1 PUSH2 0x5132 JUMP JUMPDEST SWAP1 POP PUSH1 0x16 DUP5 MSTORE PUSH1 0x40 PUSH1 0x0 KECCAK256 SLOAD AND ISZERO DUP8 PUSH2 0x512C JUMP JUMPDEST PUSH2 0x517E DUP2 PUSH2 0x74AD JUMP JUMPDEST PUSH1 0x1 DUP1 PUSH1 0xA0 SHL SUB SWAP2 SLOAD SWAP1 PUSH1 0x3 SHL SHR AND PUSH1 0x0 MSTORE PUSH1 0x20 PUSH1 0x1A DUP2 MSTORE PUSH1 0xFF DUP1 PUSH1 0x40 PUSH1 0x0 KECCAK256 SLOAD AND SWAP2 DUP3 PUSH2 0x51D1 JUMPI JUMPDEST POP POP PUSH2 0x51BC JUMPI JUMPDEST PUSH2 0x51B7 SWAP1 PUSH2 0x88EE JUMP JUMPDEST PUSH2 0x50A9 JUMP JUMPDEST SWAP2 PUSH2 0x51C9 PUSH2 0x51B7 SWAP2 PUSH2 0x88EE JUMP JUMPDEST SWAP3 SWAP1 POP PUSH2 0x51AE JUMP JUMPDEST PUSH1 0x16 SWAP2 SWAP3 POP MSTORE PUSH1 0x40 PUSH1 0x0 KECCAK256 SLOAD AND ISZERO DUP5 DUP1 PUSH2 0x51A7 JUMP JUMPDEST CALLVALUE PUSH2 0x612 JUMPI PUSH1 0x20 CALLDATASIZE PUSH1 0x3 NOT ADD SLT PUSH2 0x612 JUMPI PUSH1 0x4 CALLDATALOAD PUSH1 0x0 MSTORE PUSH1 0xF PUSH1 0x20 MSTORE PUSH1 0x40 PUSH1 0x0 KECCAK256 PUSH1 0x40 MLOAD PUSH2 0x5213 DUP2 PUSH2 0x707A JUMP JUMPDEST DUP2 SLOAD DUP2 MSTORE PUSH1 0x40 MLOAD SWAP1 PUSH2 0x522C DUP3 PUSH2 0x33EE DUP2 PUSH1 0x1 DUP8 ADD PUSH2 0x7224 JUMP JUMPDEST PUSH1 0x20 DUP2 ADD SWAP2 DUP3 MSTORE PUSH1 0xFF PUSH1 0x3 PUSH1 0x2 DUP6 ADD SLOAD SWAP5 PUSH1 0x40 DUP5 ADD SWAP6 DUP7 MSTORE ADD SLOAD AND SWAP1 PUSH1 0x60 DUP2 ADD SWAP2 ISZERO ISZERO DUP3 MSTORE PUSH2 0x525D DUP2 MLOAD ISZERO ISZERO PUSH2 0x8A79 JUMP JUMPDEST MLOAD SWAP2 MLOAD SWAP3 MLOAD SWAP1 MLOAD ISZERO ISZERO PUSH2 0x5282 PUSH1 0x40 MLOAD SWAP5 DUP6 SWAP5 DUP6 MSTORE PUSH1 0x80 PUSH1 0x20 DUP7 ADD MSTORE PUSH1 0x80 DUP6 ADD SWAP1 PUSH2 0x6D0C JUMP JUMPDEST SWAP2 PUSH1 0x40 DUP5 ADD MSTORE PUSH1 0x60 DUP4 ADD MSTORE SUB SWAP1 RETURN JUMPDEST CALLVALUE PUSH2 0x612 JUMPI PUSH2 0x529F CALLDATASIZE PUSH2 0x71AB JUMP JUMPDEST PUSH2 0x52AA SWAP3 SWAP2 SWAP3 PUSH2 0x76A0 JUMP JUMPDEST DUP2 PUSH1 0x0 MSTORE PUSH1 0x20 SWAP3 PUSH1 0xE DUP5 MSTORE PUSH2 0x52C5 PUSH1 0x40 PUSH1 0x0 KECCAK256 SLOAD ISZERO ISZERO PUSH2 0x8A13 JUMP JUMPDEST PUSH2 0x52D1 DUP2 MLOAD ISZERO ISZERO PUSH2 0x8961 JUMP JUMPDEST PUSH1 0x0 DUP4 DUP2 MSTORE PUSH1 0xE DUP6 MSTORE PUSH1 0x40 SWAP1 KECCAK256 DUP2 MLOAD SWAP5 SWAP1 PUSH1 0x1 SWAP1 DUP2 ADD SWAP1 PUSH1 0x1 PUSH1 0x1 PUSH1 0x40 SHL SUB DUP8 GT PUSH2 0x1469 JUMPI PUSH2 0x5304 DUP8 PUSH2 0x214B DUP5 SLOAD PUSH2 0x71EA JUMP JUMPDEST DUP3 PUSH1 0x1F DUP9 GT PUSH1 0x1 EQ PUSH2 0x5372 JUMPI SWAP7 DUP1 DUP1 PUSH1 0xE SWAP6 SWAP5 SWAP4 PUSH1 0x0 DUP1 MLOAD PUSH1 0x20 PUSH2 0x98B6 DUP4 CODECOPY DUP2 MLOAD SWAP2 MSTORE SWAP10 SWAP11 PUSH1 0x0 SWAP4 PUSH2 0x5367 JUMPI JUMPDEST POP SHL SWAP2 PUSH1 0x0 NOT SWAP1 PUSH1 0x3 SHL SHR NOT AND OR SWAP1 SSTORE JUMPDEST DUP6 PUSH1 0x0 MSTORE MSTORE PUSH2 0x5358 DUP3 PUSH1 0x2 PUSH1 0x40 PUSH1 0x0 KECCAK256 ADD PUSH2 0x7A4A JUMP JUMPDEST PUSH2 0x1CAF PUSH1 0x40 MLOAD SWAP3 DUP4 SWAP3 DUP4 PUSH2 0x8A59 JUMP JUMPDEST DUP9 ADD MLOAD SWAP3 POP DUP12 PUSH2 0x5331 JUMP JUMPDEST SWAP7 PUSH1 0x1F NOT DUP2 AND SWAP8 DUP4 PUSH1 0x0 MSTORE DUP5 PUSH1 0x0 KECCAK256 SWAP9 PUSH1 0x0 JUMPDEST DUP2 DUP2 LT PUSH2 0x53D2 JUMPI POP SWAP9 DUP3 SWAP2 PUSH1 0xE SWAP7 SWAP6 SWAP5 SWAP4 PUSH1 0x0 DUP1 MLOAD PUSH1 0x20 PUSH2 0x98B6 DUP4 CODECOPY DUP2 MLOAD SWAP2 MSTORE SWAP11 SWAP12 LT PUSH2 0x53B9 JUMPI JUMPDEST POP POP DUP2 SHL ADD SWAP1 SSTORE PUSH2 0x5342 JUMP JUMPDEST DUP8 ADD MLOAD PUSH1 0x0 NOT PUSH1 0xF8 DUP5 PUSH1 0x3 SHL AND SHR NOT AND SWAP1 SSTORE DUP10 DUP1 PUSH2 0x53AD JUMP JUMPDEST DUP8 DUP4 ADD MLOAD DUP12 SSTORE SWAP10 DUP5 ADD SWAP10 SWAP2 DUP7 ADD SWAP2 DUP7 ADD PUSH2 0x5385 JUMP JUMPDEST PUSH1 0x3 NOT PUSH1 0x40 CALLDATASIZE DUP3 ADD SLT PUSH2 0x612 JUMPI PUSH1 0x24 SWAP1 PUSH1 0x1 PUSH1 0x1 PUSH1 0x40 SHL SUB DUP3 CALLDATALOAD GT PUSH2 0x612 JUMPI PUSH2 0x100 SWAP1 DUP3 CALLDATALOAD CALLDATASIZE SUB ADD SLT PUSH2 0x612 JUMPI PUSH1 0x2 PUSH1 0x1 SLOAD EQ PUSH2 0x5BA5 JUMPI PUSH1 0x2 PUSH1 0x1 SSTORE PUSH1 0x4 CALLDATALOAD PUSH1 0x0 MSTORE PUSH1 0x17 PUSH1 0x20 MSTORE PUSH2 0x543F PUSH1 0xFF PUSH1 0x40 PUSH1 0x0 KECCAK256 SLOAD AND PUSH2 0x8466 JUMP JUMPDEST PUSH1 0x4 CALLDATALOAD PUSH1 0x0 MSTORE PUSH1 0x10 PUSH1 0x20 MSTORE PUSH2 0x5462 PUSH1 0xFF PUSH1 0xF PUSH1 0x40 PUSH1 0x0 KECCAK256 ADD SLOAD PUSH1 0x10 SHR AND ISZERO PUSH2 0x84AB JUMP JUMPDEST PUSH1 0x4 CALLDATALOAD PUSH1 0x0 MSTORE PUSH1 0x10 PUSH1 0x20 MSTORE PUSH1 0x1 DUP1 PUSH1 0xA0 SHL SUB PUSH1 0x1 PUSH1 0x40 PUSH1 0x0 KECCAK256 ADD SLOAD AND PUSH1 0x0 MSTORE PUSH1 0x13 PUSH1 0x20 MSTORE PUSH1 0xFF PUSH1 0x40 PUSH1 0x0 KECCAK256 SLOAD AND PUSH1 0x4 DUP2 LT ISZERO PUSH2 0x5B90 JUMPI PUSH1 0x2 SUB PUSH2 0x5B53 JUMPI PUSH1 0x4 CALLDATALOAD PUSH1 0x0 MSTORE PUSH1 0x10 PUSH1 0x20 MSTORE PUSH1 0x5 PUSH1 0x40 PUSH1 0x0 KECCAK256 ADD SLOAD ISZERO PUSH2 0x5B15 JUMPI PUSH1 0x4 CALLDATALOAD PUSH1 0x0 MSTORE PUSH1 0x10 PUSH1 0x20 MSTORE PUSH1 0xFF PUSH1 0xF PUSH1 0x40 PUSH1 0x0 KECCAK256 ADD SLOAD AND PUSH2 0x5AD4 JUMPI PUSH1 0x4 CALLDATALOAD PUSH1 0x0 MSTORE PUSH1 0x10 PUSH1 0x20 MSTORE PUSH1 0x1 DUP1 PUSH1 0xA0 SHL SUB PUSH1 0x1 PUSH1 0x40 PUSH1 0x0 KECCAK256 ADD SLOAD AND CALLER EQ PUSH2 0x5A92 JUMPI PUSH2 0x5503 PUSH1 0x4 DUP3 CALLDATALOAD ADD DUP1 PUSH2 0x7E21 JUMP JUMPDEST SWAP1 POP ISZERO PUSH2 0x5A59 JUMPI PUSH2 0x551B DUP2 DUP1 CALLDATALOAD ADD DUP3 CALLDATALOAD PUSH1 0x4 ADD PUSH2 0x7E21 JUMP JUMPDEST SWAP1 POP ISZERO PUSH2 0x5A1B JUMPI PUSH2 0x5534 PUSH1 0x44 DUP3 CALLDATALOAD ADD DUP3 CALLDATALOAD PUSH1 0x4 ADD PUSH2 0x7E21 JUMP JUMPDEST SWAP1 POP ISZERO PUSH2 0x59E7 JUMPI PUSH2 0x554D PUSH1 0x64 DUP3 CALLDATALOAD ADD DUP3 CALLDATALOAD PUSH1 0x4 ADD PUSH2 0x7E21 JUMP JUMPDEST SWAP1 POP ISZERO PUSH2 0x59B2 JUMPI PUSH2 0x5566 PUSH1 0x84 DUP3 CALLDATALOAD ADD DUP3 CALLDATALOAD PUSH1 0x4 ADD PUSH2 0x7E21 JUMP JUMPDEST SWAP1 POP ISZERO PUSH2 0x597B JUMPI PUSH2 0x557F PUSH1 0xA4 DUP3 CALLDATALOAD ADD DUP3 CALLDATALOAD PUSH1 0x4 ADD PUSH2 0x7E21 JUMP JUMPDEST SWAP1 POP ISZERO PUSH2 0x5940 JUMPI PUSH2 0x55A4 PUSH2 0x559B PUSH1 0xC4 DUP4 CALLDATALOAD ADD DUP4 CALLDATALOAD PUSH1 0x4 ADD PUSH2 0x7E21 JUMP JUMPDEST SWAP1 POP ISZERO ISZERO PUSH2 0x7BE4 JUMP JUMPDEST PUSH2 0x55C2 PUSH2 0x55B9 PUSH1 0xE4 DUP4 CALLDATALOAD ADD DUP4 CALLDATALOAD PUSH1 0x4 ADD PUSH2 0x7E21 JUMP JUMPDEST SWAP1 POP ISZERO ISZERO PUSH2 0x7BA7 JUMP JUMPDEST PUSH1 0x4 CALLDATALOAD PUSH1 0x0 MSTORE PUSH1 0x10 PUSH1 0x20 MSTORE PUSH1 0x4 PUSH1 0x40 PUSH1 0x0 KECCAK256 ADD SLOAD SWAP1 DUP2 CALLVALUE LT PUSH2 0x5907 JUMPI PUSH1 0x4 CALLDATALOAD PUSH1 0x0 MSTORE PUSH1 0x10 PUSH1 0x20 MSTORE PUSH1 0x5 PUSH1 0x40 PUSH1 0x0 KECCAK256 ADD DUP1 SLOAD DUP1 ISZERO PUSH2 0x58F2 JUMPI PUSH1 0x0 NOT ADD SWAP1 SSTORE PUSH1 0x4 CALLDATALOAD PUSH1 0x0 MSTORE PUSH1 0x10 PUSH1 0x20 MSTORE PUSH1 0x40 PUSH1 0x0 KECCAK256 PUSH1 0x5 DUP2 ADD SLOAD ISZERO PUSH2 0x58DE JUMPI JUMPDEST PUSH1 0x1 ADD SLOAD PUSH1 0x40 MLOAD PUSH1 0x1 PUSH1 0x1 PUSH1 0xA0 SHL SUB SWAP1 SWAP2 AND SWAP2 SWAP1 PUSH2 0x5637 DUP2 PUSH2 0x7043 JUMP JUMPDEST PUSH1 0x4 DUP3 CALLDATALOAD ADD CALLDATALOAD PUSH1 0x1 PUSH1 0x1 PUSH1 0x40 SHL SUB DUP2 GT PUSH2 0x612 JUMPI PUSH2 0x565C SWAP1 PUSH1 0x4 CALLDATASIZE SWAP2 DUP6 CALLDATALOAD ADD ADD PUSH2 0x715B JUMP JUMPDEST DUP2 MSTORE PUSH1 0x1 PUSH1 0x1 PUSH1 0x40 SHL SUB DUP3 CALLDATALOAD DUP4 ADD CALLDATALOAD GT PUSH2 0x612 JUMPI PUSH2 0x5683 CALLDATASIZE DUP4 CALLDATALOAD DUP1 DUP6 ADD CALLDATALOAD ADD PUSH1 0x4 ADD PUSH2 0x715B JUMP JUMPDEST PUSH1 0x20 DUP3 ADD MSTORE DUP2 CALLDATALOAD PUSH1 0x44 ADD CALLDATALOAD PUSH1 0x1 PUSH1 0x1 PUSH1 0x40 SHL SUB DUP2 GT PUSH2 0x612 JUMPI PUSH2 0x56AD SWAP1 PUSH1 0x4 CALLDATASIZE SWAP2 DUP6 CALLDATALOAD ADD ADD PUSH2 0x715B JUMP JUMPDEST PUSH1 0x40 DUP3 ADD MSTORE DUP2 CALLDATALOAD PUSH1 0x64 ADD CALLDATALOAD PUSH1 0x1 PUSH1 0x1 PUSH1 0x40 SHL SUB DUP2 GT PUSH2 0x612 JUMPI PUSH2 0x56D7 SWAP1 PUSH1 0x4 CALLDATASIZE SWAP2 DUP6 CALLDATALOAD ADD ADD PUSH2 0x715B JUMP JUMPDEST PUSH1 0x60 DUP3 ADD MSTORE DUP2 CALLDATALOAD PUSH1 0x84 ADD CALLDATALOAD PUSH1 0x1 PUSH1 0x1 PUSH1 0x40 SHL SUB DUP2 GT PUSH2 0x612 JUMPI PUSH2 0x5701 SWAP1 PUSH1 0x4 CALLDATASIZE SWAP2 DUP6 CALLDATALOAD ADD ADD PUSH2 0x715B JUMP JUMPDEST PUSH1 0x80 DUP3 ADD MSTORE DUP2 CALLDATALOAD PUSH1 0xA4 ADD CALLDATALOAD PUSH1 0x1 PUSH1 0x1 PUSH1 0x40 SHL SUB DUP2 GT PUSH2 0x612 JUMPI PUSH2 0x572B SWAP1 PUSH1 0x4 CALLDATASIZE SWAP2 DUP6 CALLDATALOAD ADD ADD PUSH2 0x715B JUMP JUMPDEST PUSH1 0xA0 DUP3 ADD MSTORE DUP2 CALLDATALOAD PUSH1 0xC4 ADD CALLDATALOAD PUSH1 0x1 PUSH1 0x1 PUSH1 0x40 SHL SUB DUP2 GT PUSH2 0x612 JUMPI PUSH2 0x5755 SWAP1 PUSH1 0x4 CALLDATASIZE SWAP2 DUP6 CALLDATALOAD ADD ADD PUSH2 0x715B JUMP JUMPDEST PUSH1 0xC0 DUP3 ADD MSTORE DUP2 CALLDATALOAD PUSH1 0xE4 ADD CALLDATALOAD SWAP1 PUSH1 0x1 PUSH1 0x1 PUSH1 0x40 SHL SUB DUP3 GT PUSH2 0x612 JUMPI PUSH2 0x5783 PUSH2 0x57EE SWAP3 PUSH1 0x4 CALLDATASIZE SWAP2 DUP7 CALLDATALOAD ADD ADD PUSH2 0x715B JUMP JUMPDEST PUSH1 0xE0 DUP3 ADD MSTORE PUSH1 0x40 MLOAD SWAP1 PUSH2 0x5795 DUP3 PUSH2 0x7043 JUMP JUMPDEST PUSH1 0x4 CALLDATALOAD DUP3 MSTORE DUP6 PUSH1 0x20 DUP4 ADD MSTORE DUP6 PUSH1 0x40 DUP4 ADD MSTORE TIMESTAMP PUSH1 0x60 DUP4 ADD MSTORE CALLER PUSH1 0x80 DUP4 ADD MSTORE DUP5 PUSH1 0xA0 DUP4 ADD MSTORE PUSH1 0x0 PUSH1 0xC0 DUP4 ADD MSTORE PUSH1 0xE0 DUP3 ADD MSTORE CALLER PUSH1 0x0 MSTORE PUSH1 0x14 PUSH1 0x20 MSTORE PUSH2 0x57DB DUP2 PUSH1 0x40 PUSH1 0x0 KECCAK256 PUSH2 0x8B88 JUMP JUMPDEST DUP4 PUSH1 0x0 MSTORE PUSH1 0x15 PUSH1 0x20 MSTORE PUSH1 0x40 PUSH1 0x0 KECCAK256 PUSH2 0x8B88 JUMP JUMPDEST DUP2 PUSH1 0x0 MSTORE PUSH1 0x12 PUSH1 0x20 MSTORE PUSH1 0x40 PUSH1 0x0 KECCAK256 DUP1 SLOAD SWAP2 DUP5 DUP4 ADD DUP1 SWAP4 GT PUSH2 0x58CA JUMPI POP SSTORE PUSH1 0x40 MLOAD DUP3 DUP2 MSTORE DUP3 PUSH1 0x20 DUP3 ADD MSTORE TIMESTAMP PUSH1 0x40 DUP3 ADD MSTORE CALLER SWAP1 PUSH32 0x45280C7AC9CEC77EDD454E39E1641A3E22619146CF074A4239BEEE86A7C07EDC PUSH1 0x60 PUSH1 0x4 CALLDATALOAD SWAP3 LOG4 PUSH1 0x1 PUSH1 0x9 SLOAD ADD PUSH1 0x9 SSTORE PUSH2 0x585A DUP2 CALLVALUE PUSH2 0x8B2E JUMP JUMPDEST DUP1 PUSH2 0x58BA JUMPI JUMPDEST POP PUSH1 0x4 CALLDATALOAD PUSH1 0x0 MSTORE PUSH1 0x10 PUSH1 0x20 MSTORE PUSH1 0x1 DUP1 PUSH1 0xA0 SHL SUB PUSH1 0x1 PUSH1 0x40 PUSH1 0x0 KECCAK256 ADD SLOAD AND SWAP1 PUSH1 0x40 MLOAD SWAP1 DUP2 MSTORE TIMESTAMP PUSH1 0x20 DUP3 ADD MSTORE CALLER SWAP1 PUSH32 0xBE6177108F4DF43C5D7BE79CB219C969FC97915BBDB4B56D14D391DCDCC16060 PUSH1 0x40 PUSH1 0x4 CALLDATALOAD SWAP3 LOG4 PUSH1 0x1 DUP1 SSTORE STOP JUMPDEST PUSH2 0x58C4 SWAP1 CALLER PUSH2 0x9771 JUMP JUMPDEST DUP2 PUSH2 0x5860 JUMP JUMPDEST PUSH4 0x4E487B71 PUSH1 0xE0 SHL PUSH1 0x0 SWAP1 DUP2 MSTORE PUSH1 0x11 PUSH1 0x4 MSTORE REVERT JUMPDEST PUSH1 0xF DUP2 ADD DUP1 SLOAD PUSH1 0xFF NOT AND PUSH1 0x1 OR SWAP1 SSTORE PUSH2 0x561A JUMP JUMPDEST DUP3 PUSH4 0x4E487B71 PUSH1 0xE0 SHL PUSH1 0x0 MSTORE PUSH1 0x11 PUSH1 0x4 MSTORE PUSH1 0x0 REVERT JUMPDEST PUSH1 0x64 SWAP1 PUSH1 0x12 PUSH1 0x40 MLOAD SWAP2 PUSH3 0x461BCD PUSH1 0xE5 SHL DUP4 MSTORE PUSH1 0x20 PUSH1 0x4 DUP5 ADD MSTORE DUP3 ADD MSTORE PUSH18 0x496E73756666696369656E742066756E6473 PUSH1 0x70 SHL PUSH1 0x44 DUP3 ADD MSTORE REVERT JUMPDEST PUSH1 0x64 SWAP1 PUSH1 0x14 PUSH1 0x40 MLOAD SWAP2 PUSH3 0x461BCD PUSH1 0xE5 SHL DUP4 MSTORE PUSH1 0x20 PUSH1 0x4 DUP5 ADD MSTORE DUP3 ADD MSTORE PUSH20 0x141BDCDD185B0818DBD919481C995C5D5A5C9959 PUSH1 0x62 SHL PUSH1 0x44 DUP3 ADD MSTORE REVERT JUMPDEST PUSH1 0x64 SWAP1 PUSH1 0x10 PUSH1 0x40 MLOAD SWAP2 PUSH3 0x461BCD PUSH1 0xE5 SHL DUP4 MSTORE PUSH1 0x20 PUSH1 0x4 DUP5 ADD MSTORE DUP3 ADD MSTORE PUSH16 0x10DBDD5B9D1C9E481C995C5D5A5C9959 PUSH1 0x82 SHL PUSH1 0x44 DUP3 ADD MSTORE REVERT JUMPDEST PUSH1 0x64 SWAP1 PUSH1 0xE PUSH1 0x40 MLOAD SWAP2 PUSH3 0x461BCD PUSH1 0xE5 SHL DUP4 MSTORE PUSH1 0x20 PUSH1 0x4 DUP5 ADD MSTORE DUP3 ADD MSTORE PUSH14 0x14DD185D19481C995C5D5A5C9959 PUSH1 0x92 SHL PUSH1 0x44 DUP3 ADD MSTORE REVERT JUMPDEST PUSH1 0x64 SWAP1 PUSH1 0xD PUSH1 0x40 MLOAD SWAP2 PUSH3 0x461BCD PUSH1 0xE5 SHL DUP4 MSTORE PUSH1 0x20 PUSH1 0x4 DUP5 ADD MSTORE DUP3 ADD MSTORE PUSH13 0x10DA5D1E481C995C5D5A5C9959 PUSH1 0x9A SHL PUSH1 0x44 DUP3 ADD MSTORE REVERT JUMPDEST PUSH1 0x64 SWAP1 PUSH1 0x17 PUSH1 0x40 MLOAD SWAP2 PUSH3 0x461BCD PUSH1 0xE5 SHL DUP4 MSTORE PUSH1 0x20 PUSH1 0x4 DUP5 ADD MSTORE DUP3 ADD MSTORE PUSH23 0x14DD1C99595D081859191C995CDCC81C995C5D5A5C9959 PUSH1 0x4A SHL PUSH1 0x44 DUP3 ADD MSTORE REVERT JUMPDEST PUSH1 0x64 SWAP1 PUSH1 0x12 PUSH1 0x40 MLOAD SWAP2 PUSH3 0x461BCD PUSH1 0xE5 SHL DUP4 MSTORE PUSH1 0x20 PUSH1 0x4 DUP5 ADD MSTORE DUP3 ADD MSTORE PUSH18 0x119D5B1B081B985B59481C995C5D5A5C9959 PUSH1 0x72 SHL PUSH1 0x44 DUP3 ADD MSTORE REVERT JUMPDEST PUSH1 0x64 SWAP1 PUSH1 0x1B PUSH1 0x40 MLOAD SWAP2 PUSH3 0x461BCD PUSH1 0xE5 SHL DUP4 MSTORE PUSH1 0x20 PUSH1 0x4 DUP5 ADD MSTORE DUP3 ADD MSTORE PUSH27 0x10D85B9B9BDD08189D5E481E5BDD5C881BDDDB881C1C9BD91D58DD PUSH1 0x2A SHL PUSH1 0x44 DUP3 ADD MSTORE REVERT JUMPDEST PUSH1 0x64 SWAP1 PUSH1 0x1A PUSH1 0x40 MLOAD SWAP2 PUSH3 0x461BCD PUSH1 0xE5 SHL DUP4 MSTORE PUSH1 0x20 PUSH1 0x4 DUP5 ADD MSTORE DUP3 ADD MSTORE PUSH26 0x141C9BD91D58DD081A5CC8185B1C9958591E481CDBDB191BDD5D PUSH1 0x32 SHL PUSH1 0x44 DUP3 ADD MSTORE REVERT JUMPDEST PUSH1 0x64 SWAP1 PUSH1 0x17 PUSH1 0x40 MLOAD SWAP2 PUSH3 0x461BCD PUSH1 0xE5 SHL DUP4 MSTORE PUSH1 0x20 PUSH1 0x4 DUP5 ADD MSTORE DUP3 ADD MSTORE PUSH23 0x50726F64756374206973206F7574206F662073746F636B PUSH1 0x48 SHL PUSH1 0x44 DUP3 ADD MSTORE REVERT JUMPDEST PUSH1 0x64 SWAP1 PUSH1 0x16 PUSH1 0x40 MLOAD SWAP2 PUSH3 0x461BCD PUSH1 0xE5 SHL DUP4 MSTORE PUSH1 0x20 PUSH1 0x4 DUP5 ADD MSTORE DUP3 ADD MSTORE PUSH22 0x14D95B1B195C881A5CC81B9BDD081D995C9A599A5959 PUSH1 0x52 SHL PUSH1 0x44 DUP3 ADD MSTORE REVERT JUMPDEST POP PUSH4 0x4E487B71 PUSH1 0xE0 SHL PUSH1 0x0 SWAP1 DUP2 MSTORE PUSH1 0x21 PUSH1 0x4 MSTORE REVERT JUMPDEST PUSH1 0x64 SWAP1 PUSH1 0x1F PUSH1 0x40 MLOAD SWAP2 PUSH3 0x461BCD PUSH1 0xE5 SHL DUP4 MSTORE PUSH1 0x20 PUSH1 0x4 DUP5 ADD MSTORE DUP3 ADD MSTORE PUSH32 0x5265656E7472616E637947756172643A207265656E7472616E742063616C6C00 PUSH1 0x44 DUP3 ADD MSTORE REVERT JUMPDEST CALLVALUE PUSH2 0x612 JUMPI PUSH1 0x20 CALLDATASIZE PUSH1 0x3 NOT ADD SLT PUSH2 0x612 JUMPI PUSH1 0x20 PUSH2 0x5C07 PUSH1 0x4 CALLDATALOAD PUSH2 0x773F JUMP JUMPDEST PUSH1 0x40 MLOAD PUSH1 0x1 PUSH1 0x1 PUSH1 0xA0 SHL SUB SWAP1 SWAP2 AND DUP2 MSTORE RETURN JUMPDEST CALLVALUE PUSH2 0x612 JUMPI PUSH1 0x20 CALLDATASIZE PUSH1 0x3 NOT ADD SLT PUSH2 0x612 JUMPI PUSH1 0x1 PUSH1 0x1 PUSH1 0xA0 SHL SUB PUSH2 0x5C3A PUSH2 0x6FFB JUMP JUMPDEST AND PUSH1 0x0 MSTORE PUSH1 0x12 PUSH1 0x20 MSTORE PUSH1 0x20 PUSH1 0x40 PUSH1 0x0 KECCAK256 SLOAD PUSH1 0x40 MLOAD SWAP1 DUP2 MSTORE RETURN JUMPDEST CALLVALUE PUSH2 0x612 JUMPI PUSH1 0x20 CALLDATASIZE PUSH1 0x3 NOT ADD SLT PUSH2 0x612 JUMPI PUSH1 0x4 CALLDATALOAD PUSH2 0x5C6F PUSH2 0x76A0 JUMP JUMPDEST PUSH1 0x64 DUP2 GT PUSH2 0x5C7C JUMPI PUSH1 0xB SSTORE STOP JUMPDEST PUSH1 0x40 MLOAD PUSH3 0x461BCD PUSH1 0xE5 SHL DUP2 MSTORE PUSH1 0x20 PUSH1 0x4 DUP3 ADD MSTORE PUSH1 0x12 PUSH1 0x24 DUP3 ADD MSTORE PUSH18 0x496E76616C69642070657263656E74616765 PUSH1 0x70 SHL PUSH1 0x44 DUP3 ADD MSTORE PUSH1 0x64 SWAP1 REVERT JUMPDEST CALLVALUE PUSH2 0x612 JUMPI PUSH1 0x0 CALLDATASIZE PUSH1 0x3 NOT ADD SLT PUSH2 0x612 JUMPI PUSH1 0x40 MLOAD PUSH1 0xC DUP1 SLOAD DUP1 DUP4 MSTORE PUSH1 0x0 SWAP2 DUP3 MSTORE PUSH1 0x20 DUP1 DUP5 ADD SWAP4 SWAP3 PUSH1 0x0 DUP1 MLOAD PUSH1 0x20 PUSH2 0x9856 DUP4 CODECOPY DUP2 MLOAD SWAP2 MSTORE SWAP3 SWAP2 JUMPDEST DUP3 DUP3 LT PUSH2 0x5D12 JUMPI PUSH2 0x38A DUP6 PUSH2 0x5D06 DUP2 DUP10 SUB DUP3 PUSH2 0x70E6 JUMP JUMPDEST PUSH1 0x40 MLOAD SWAP2 DUP3 SWAP2 DUP3 PUSH2 0x74F6 JUMP JUMPDEST DUP4 SLOAD PUSH1 0x1 PUSH1 0x1 PUSH1 0xA0 SHL SUB AND DUP7 MSTORE SWAP5 DUP6 ADD SWAP5 PUSH1 0x1 SWAP4 DUP5 ADD SWAP4 SWAP1 SWAP2 ADD SWAP1 PUSH2 0x5CEF JUMP JUMPDEST CALLVALUE PUSH2 0x612 JUMPI PUSH1 0x20 CALLDATASIZE PUSH1 0x3 NOT ADD SLT PUSH2 0x612 JUMPI PUSH1 0x4 CALLDATALOAD PUSH1 0x1C SLOAD DUP2 LT ISZERO PUSH2 0x612 JUMPI PUSH2 0x5D5B PUSH1 0x20 SWAP2 PUSH2 0x74AD JUMP JUMPDEST SWAP1 SLOAD PUSH1 0x40 MLOAD PUSH1 0x3 SWAP3 SWAP1 SWAP3 SHL SHR PUSH1 0x1 PUSH1 0x1 PUSH1 0xA0 SHL SUB AND DUP2 MSTORE RETURN JUMPDEST CALLVALUE PUSH2 0x612 JUMPI PUSH1 0x0 CALLDATASIZE PUSH1 0x3 NOT ADD SLT PUSH2 0x612 JUMPI PUSH2 0x5D8D PUSH2 0x76A0 JUMP JUMPDEST PUSH1 0x1 DUP1 PUSH1 0xA0 SHL SUB PUSH1 0x0 SLOAD AND DUP1 PUSH1 0x0 MSTORE PUSH1 0x16 PUSH1 0x20 MSTORE PUSH1 0x40 PUSH1 0x0 KECCAK256 SWAP1 DUP2 SLOAD PUSH1 0xFF DUP2 AND ISZERO PUSH2 0x5DB4 JUMPI STOP JUMPDEST PUSH2 0x8C2 SWAP3 PUSH1 0x1 PUSH1 0xFF NOT DUP1 SWAP4 AND OR SWAP1 SSTORE PUSH1 0x13 PUSH1 0x20 MSTORE PUSH1 0x2 PUSH1 0x40 PUSH1 0x0 KECCAK256 SWAP2 DUP3 SLOAD AND OR SWAP1 SSTORE PUSH2 0x7C97 JUMP JUMPDEST CALLVALUE PUSH2 0x612 JUMPI PUSH1 0x20 CALLDATASIZE PUSH1 0x3 NOT ADD SLT PUSH2 0x612 JUMPI PUSH1 0x1 PUSH1 0x1 PUSH1 0xA0 SHL SUB PUSH2 0x5DFC PUSH2 0x6FFB JUMP JUMPDEST AND PUSH1 0x0 MSTORE PUSH1 0x13 PUSH1 0x20 MSTORE PUSH1 0x20 PUSH1 0xFF PUSH1 0x40 PUSH1 0x0 KECCAK256 SLOAD AND PUSH2 0x8F4 PUSH1 0x40 MLOAD DUP1 SWAP3 PUSH2 0x74A0 JUMP JUMPDEST CALLVALUE PUSH2 0x612 JUMPI PUSH1 0x20 DUP1 PUSH1 0x3 NOT CALLDATASIZE ADD SLT PUSH2 0x612 JUMPI PUSH2 0x5E37 PUSH2 0x6FFB JUMP JUMPDEST PUSH2 0x5E3F PUSH2 0x7D72 JUMP JUMPDEST POP PUSH1 0x1 PUSH1 0x1 PUSH1 0xA0 SHL SUB AND PUSH1 0x0 DUP2 DUP2 MSTORE PUSH1 0x16 DUP4 MSTORE PUSH1 0x40 SWAP1 KECCAK256 SLOAD PUSH2 0x5E63 SWAP1 PUSH1 0xFF AND PUSH2 0x7D2E JUMP JUMPDEST PUSH1 0x0 MSTORE PUSH1 0xD DUP2 MSTORE PUSH1 0x40 PUSH1 0x0 KECCAK256 SWAP1 PUSH1 0xFF PUSH1 0x6 PUSH1 0x40 MLOAD SWAP4 PUSH2 0x5E81 DUP6 PUSH2 0x705F JUMP JUMPDEST PUSH1 0x40 MLOAD PUSH2 0x5E92 DUP2 PUSH2 0x3FB DUP2 DUP6 PUSH2 0x7224 JUMP JUMPDEST DUP6 MSTORE PUSH1 0x40 MLOAD PUSH2 0x5EA8 DUP2 PUSH2 0x3FB DUP2 PUSH1 0x1 DUP7 ADD PUSH2 0x7224 JUMP JUMPDEST DUP5 DUP7 ADD MSTORE PUSH1 0x40 MLOAD PUSH2 0x5EC0 DUP2 PUSH2 0x3FB DUP2 PUSH1 0x2 DUP7 ADD PUSH2 0x7224 JUMP JUMPDEST PUSH1 0x40 DUP7 ADD MSTORE PUSH1 0x40 MLOAD PUSH2 0x5ED9 DUP2 PUSH2 0x3FB DUP2 PUSH1 0x3 DUP7 ADD PUSH2 0x7224 JUMP JUMPDEST PUSH1 0x60 DUP7 ADD MSTORE PUSH1 0x40 MLOAD PUSH2 0x5EF2 DUP2 PUSH2 0x3FB DUP2 PUSH1 0x4 DUP7 ADD PUSH2 0x7224 JUMP JUMPDEST PUSH1 0x80 DUP7 ADD MSTORE PUSH1 0x5 DUP2 ADD SLOAD PUSH1 0xA0 DUP7 ADD MSTORE ADD SLOAD AND ISZERO ISZERO PUSH1 0xC0 DUP4 ADD MSTORE PUSH2 0x38A PUSH1 0x40 MLOAD SWAP3 DUP3 DUP5 SWAP4 DUP5 MSTORE DUP4 ADD SWAP1 PUSH2 0x7420 JUMP JUMPDEST CALLVALUE PUSH2 0x612 JUMPI PUSH2 0x8C2 PUSH2 0x5F30 CALLDATASIZE PUSH2 0x7176 JUMP JUMPDEST SWAP1 PUSH1 0x40 MLOAD SWAP3 PUSH2 0x5F3E DUP5 PUSH2 0x70CB JUMP JUMPDEST PUSH1 0x0 DUP5 MSTORE PUSH2 0x77EB JUMP JUMPDEST CALLVALUE PUSH2 0x612 JUMPI PUSH1 0x0 CALLDATASIZE PUSH1 0x3 NOT ADD SLT PUSH2 0x612 JUMPI PUSH2 0x8C2 PUSH2 0x9264 JUMP JUMPDEST CALLVALUE PUSH2 0x612 JUMPI PUSH1 0x20 DUP1 PUSH1 0x3 NOT CALLDATASIZE ADD SLT PUSH2 0x612 JUMPI PUSH1 0x1 PUSH1 0x1 PUSH1 0xA0 SHL SUB SWAP1 DUP2 PUSH2 0x5F84 PUSH2 0x6FFB JUMP JUMPDEST AND PUSH1 0x0 MSTORE PUSH1 0x15 DUP2 MSTORE PUSH1 0x40 PUSH1 0x0 KECCAK256 DUP1 SLOAD SWAP1 PUSH2 0x5F9D DUP3 PUSH2 0x819A JUMP JUMPDEST SWAP3 PUSH2 0x5FAB PUSH1 0x40 MLOAD SWAP5 DUP6 PUSH2 0x70E6 JUMP JUMPDEST DUP3 DUP5 MSTORE PUSH1 0x0 SWAP2 DUP3 MSTORE DUP1 DUP3 KECCAK256 DUP2 DUP6 ADD JUMPDEST DUP5 DUP5 LT PUSH2 0x5FCF JUMPI PUSH1 0x40 MLOAD DUP1 PUSH2 0x38A DUP9 DUP3 PUSH2 0x7362 JUMP JUMPDEST PUSH1 0xE DUP4 PUSH1 0x1 SWAP3 PUSH1 0x40 MLOAD PUSH2 0x5FE1 DUP2 PUSH2 0x7043 JUMP JUMPDEST DUP6 SLOAD DUP2 MSTORE DUP5 DUP7 ADD SLOAD DUP4 DUP3 ADD MSTORE PUSH1 0x2 DUP7 ADD SLOAD PUSH1 0x40 DUP3 ADD MSTORE PUSH1 0x3 DUP7 ADD SLOAD PUSH1 0x60 DUP3 ADD MSTORE DUP11 PUSH1 0x4 DUP8 ADD SLOAD AND PUSH1 0x80 DUP3 ADD MSTORE PUSH1 0xFF PUSH1 0x5 DUP8 ADD SLOAD PUSH1 0xA0 DUP14 DUP3 AND DUP2 DUP6 ADD MSTORE SHR AND ISZERO ISZERO PUSH1 0xC0 DUP3 ADD MSTORE PUSH2 0x6032 PUSH1 0x6 DUP8 ADD PUSH2 0x7556 JUMP JUMPDEST PUSH1 0xE0 DUP3 ADD MSTORE DUP2 MSTORE ADD SWAP3 ADD SWAP4 ADD SWAP3 SWAP1 PUSH2 0x5FBA JUMP JUMPDEST CALLVALUE PUSH2 0x612 JUMPI PUSH1 0x20 CALLDATASIZE PUSH1 0x3 NOT ADD SLT PUSH2 0x612 JUMPI PUSH1 0x1 PUSH1 0x1 PUSH1 0xA0 SHL SUB PUSH2 0x6066 PUSH2 0x6FFB JUMP JUMPDEST AND PUSH1 0x0 MSTORE PUSH1 0x1B PUSH1 0x20 MSTORE PUSH2 0x60D9 PUSH1 0x40 PUSH1 0x0 KECCAK256 PUSH1 0x40 MLOAD SWAP1 PUSH2 0x6089 DUP3 PUSH2 0x33EE DUP2 DUP5 PUSH2 0x7224 JUMP JUMPDEST PUSH1 0x40 MLOAD PUSH2 0x609D DUP2 PUSH2 0x3FB DUP2 PUSH1 0x1 DUP7 ADD PUSH2 0x7224 JUMP JUMPDEST PUSH2 0x60F5 PUSH1 0x40 MLOAD PUSH2 0x60B4 DUP2 PUSH2 0x3FB DUP2 PUSH1 0x2 DUP9 ADD PUSH2 0x7224 JUMP JUMPDEST PUSH2 0x60E7 PUSH1 0xFF PUSH1 0x4 PUSH1 0x3 DUP8 ADD SLOAD SWAP7 ADD SLOAD AND SWAP4 PUSH1 0x40 MLOAD SWAP8 DUP9 SWAP8 PUSH1 0xA0 DUP10 MSTORE PUSH1 0xA0 DUP10 ADD SWAP1 PUSH2 0x6D0C JUMP JUMPDEST SWAP1 DUP8 DUP3 SUB PUSH1 0x20 DUP10 ADD MSTORE PUSH2 0x6D0C JUMP JUMPDEST SWAP1 DUP6 DUP3 SUB PUSH1 0x40 DUP8 ADD MSTORE PUSH2 0x6D0C JUMP JUMPDEST SWAP2 PUSH1 0x60 DUP5 ADD MSTORE ISZERO ISZERO PUSH1 0x80 DUP4 ADD MSTORE SUB SWAP1 RETURN JUMPDEST CALLVALUE PUSH2 0x612 JUMPI PUSH2 0x6114 CALLDATASIZE PUSH2 0x71AB JUMP JUMPDEST PUSH2 0x611F SWAP3 SWAP2 SWAP3 PUSH2 0x76A0 JUMP JUMPDEST DUP2 PUSH1 0x0 MSTORE PUSH1 0x20 SWAP3 PUSH1 0xF DUP5 MSTORE PUSH2 0x613A PUSH1 0x40 PUSH1 0x0 KECCAK256 SLOAD ISZERO ISZERO PUSH2 0x8A79 JUMP JUMPDEST PUSH2 0x6146 DUP2 MLOAD ISZERO ISZERO PUSH2 0x89AD JUMP JUMPDEST PUSH1 0x0 DUP4 DUP2 MSTORE PUSH1 0xF DUP6 MSTORE PUSH1 0x40 SWAP1 KECCAK256 DUP2 MLOAD SWAP5 SWAP1 PUSH1 0x1 SWAP1 DUP2 ADD SWAP1 PUSH1 0x1 PUSH1 0x1 PUSH1 0x40 SHL SUB DUP8 GT PUSH2 0x1469 JUMPI PUSH2 0x6179 DUP8 PUSH2 0x214B DUP5 SLOAD PUSH2 0x71EA JUMP JUMPDEST DUP3 PUSH1 0x1F DUP9 GT PUSH1 0x1 EQ PUSH2 0x61D8 JUMPI SWAP7 DUP1 DUP1 PUSH1 0xF SWAP6 SWAP5 SWAP4 PUSH1 0x0 DUP1 MLOAD PUSH1 0x20 PUSH2 0x9936 DUP4 CODECOPY DUP2 MLOAD SWAP2 MSTORE SWAP10 SWAP11 PUSH1 0x0 SWAP4 PUSH2 0x61CD JUMPI JUMPDEST POP SHL SWAP2 PUSH1 0x0 NOT SWAP1 PUSH1 0x3 SHL SHR NOT AND OR SWAP1 SSTORE JUMPDEST DUP6 PUSH1 0x0 MSTORE MSTORE PUSH2 0x5358 DUP3 PUSH1 0x3 PUSH1 0x40 PUSH1 0x0 KECCAK256 ADD PUSH2 0x7A4A JUMP JUMPDEST DUP9 ADD MLOAD SWAP3 POP DUP12 PUSH2 0x61A6 JUMP JUMPDEST SWAP7 PUSH1 0x1F NOT DUP2 AND SWAP8 DUP4 PUSH1 0x0 MSTORE DUP5 PUSH1 0x0 KECCAK256 SWAP9 PUSH1 0x0 JUMPDEST DUP2 DUP2 LT PUSH2 0x6238 JUMPI POP SWAP9 DUP3 SWAP2 PUSH1 0xF SWAP7 SWAP6 SWAP5 SWAP4 PUSH1 0x0 DUP1 MLOAD PUSH1 0x20 PUSH2 0x9936 DUP4 CODECOPY DUP2 MLOAD SWAP2 MSTORE SWAP11 SWAP12 LT PUSH2 0x621F JUMPI JUMPDEST POP POP DUP2 SHL ADD SWAP1 SSTORE PUSH2 0x61B7 JUMP JUMPDEST DUP8 ADD MLOAD PUSH1 0x0 NOT PUSH1 0xF8 DUP5 PUSH1 0x3 SHL AND SHR NOT AND SWAP1 SSTORE DUP10 DUP1 PUSH2 0x6213 JUMP JUMPDEST DUP8 DUP4 ADD MLOAD DUP12 SSTORE SWAP10 DUP5 ADD SWAP10 SWAP2 DUP7 ADD SWAP2 DUP7 ADD PUSH2 0x61EB JUMP JUMPDEST CALLVALUE PUSH2 0x612 JUMPI PUSH1 0x40 CALLDATASIZE PUSH1 0x3 NOT ADD SLT PUSH2 0x612 JUMPI PUSH1 0x24 PUSH1 0x0 PUSH1 0x4 CALLDATALOAD DUP3 CALLDATALOAD DUP3 JUMPDEST DUP3 PUSH1 0x0 MSTORE PUSH1 0x10 PUSH1 0x20 DUP2 DUP2 MSTORE DUP2 PUSH1 0x40 PUSH1 0x0 KECCAK256 ADD DUP1 SLOAD DUP5 LT ISZERO PUSH2 0x645F JUMPI PUSH2 0x628F DUP5 DUP7 SWAP3 PUSH2 0x8B6C JUMP JUMPDEST POP SLOAD EQ PUSH2 0x62A6 JUMPI POP POP PUSH2 0x62A1 SWAP1 PUSH2 0x88EE JUMP JUMPDEST PUSH2 0x6269 JUMP JUMPDEST SWAP2 SWAP4 SWAP5 POP SWAP2 PUSH1 0x0 MSTORE PUSH1 0x18 DUP2 MSTORE PUSH1 0xFF SWAP4 DUP5 PUSH1 0x40 PUSH1 0x0 KECCAK256 SLOAD AND ISZERO PUSH2 0x6423 JUMPI DUP1 PUSH1 0x0 MSTORE DUP3 DUP3 MSTORE PUSH2 0x62D9 DUP5 DUP5 PUSH1 0x40 PUSH1 0x0 KECCAK256 ADD PUSH2 0x8B6C JUMP JUMPDEST POP PUSH1 0x1 SWAP1 DUP2 ADD SLOAD SWAP1 SWAP6 SWAP1 CALLER PUSH1 0x1 PUSH1 0x1 PUSH1 0xA0 SHL SUB SWAP2 DUP3 AND EQ SWAP1 DUP2 ISZERO PUSH2 0x6415 JUMPI JUMPDEST POP ISZERO PUSH2 0x63C0 JUMPI DUP2 PUSH1 0x0 MSTORE DUP4 DUP4 MSTORE PUSH1 0x4 PUSH2 0x6317 DUP7 DUP7 PUSH1 0x40 PUSH1 0x0 KECCAK256 ADD PUSH2 0x8B6C JUMP JUMPDEST POP ADD SLOAD AND PUSH2 0x6383 JUMPI SWAP2 DUP1 PUSH1 0x4 SWAP5 SWAP3 PUSH2 0x6338 SWAP5 PUSH1 0x0 MSTORE MSTORE PUSH1 0x40 PUSH1 0x0 KECCAK256 ADD PUSH2 0x8B6C JUMP JUMPDEST POP ADD DUP1 SLOAD PUSH1 0xFF NOT AND DUP3 OR SWAP1 SSTORE JUMPDEST ISZERO PUSH2 0x634C JUMPI STOP JUMPDEST PUSH1 0x64 SWAP1 PUSH1 0x10 PUSH1 0x40 MLOAD SWAP2 PUSH3 0x461BCD PUSH1 0xE5 SHL DUP4 MSTORE PUSH1 0x20 PUSH1 0x4 DUP5 ADD MSTORE DUP3 ADD MSTORE PUSH16 0x14995D9A595DC81B9BDD08199BDD5B99 PUSH1 0x82 SHL PUSH1 0x44 DUP3 ADD MSTORE REVERT JUMPDEST PUSH1 0x40 MLOAD PUSH3 0x461BCD PUSH1 0xE5 SHL DUP2 MSTORE PUSH1 0x4 DUP2 ADD DUP4 SWAP1 MSTORE PUSH1 0x16 DUP2 DUP9 ADD MSTORE PUSH22 0x14995D9A595DC8185B1C9958591E4819195B195D1959 PUSH1 0x52 SHL PUSH1 0x44 DUP3 ADD MSTORE PUSH1 0x64 SWAP1 REVERT JUMPDEST PUSH1 0x40 MLOAD PUSH3 0x461BCD PUSH1 0xE5 SHL DUP2 MSTORE PUSH1 0x4 DUP2 ADD DUP5 SWAP1 MSTORE PUSH1 0x28 DUP2 DUP10 ADD MSTORE PUSH32 0x4F6E6C79207265766965776572206F72206F776E65722063616E2064656C6574 PUSH1 0x44 DUP3 ADD MSTORE PUSH8 0x6520726576696577 PUSH1 0xC0 SHL PUSH1 0x64 DUP3 ADD MSTORE PUSH1 0x84 SWAP1 REVERT JUMPDEST PUSH1 0x0 SLOAD AND CALLER EQ SWAP1 POP DUP9 PUSH2 0x62F8 JUMP JUMPDEST PUSH1 0x40 MLOAD PUSH3 0x461BCD PUSH1 0xE5 SHL DUP2 MSTORE PUSH1 0x4 DUP2 ADD DUP4 SWAP1 MSTORE PUSH1 0x15 DUP2 DUP9 ADD MSTORE PUSH21 0x14995D9A595DC8191BD95CC81B9BDD08195E1A5CDD PUSH1 0x5A SHL PUSH1 0x44 DUP3 ADD MSTORE PUSH1 0x64 SWAP1 REVERT JUMPDEST POP POP POP POP POP POP PUSH2 0x6345 JUMP JUMPDEST CALLVALUE PUSH2 0x612 JUMPI PUSH2 0x8C2 PUSH2 0x647B CALLDATASIZE PUSH2 0x7176 JUMP JUMPDEST SWAP2 PUSH2 0x648E PUSH2 0x6489 DUP5 CALLER PUSH2 0x7886 JUMP JUMPDEST PUSH2 0x7789 JUMP JUMPDEST PUSH2 0x794E JUMP JUMPDEST CALLVALUE PUSH2 0x612 JUMPI PUSH1 0x20 CALLDATASIZE PUSH1 0x3 NOT ADD SLT PUSH2 0x612 JUMPI PUSH1 0x4 CALLDATALOAD PUSH2 0x64AF PUSH2 0x76A0 JUMP JUMPDEST DUP1 PUSH1 0x0 MSTORE PUSH1 0xF PUSH1 0x20 MSTORE PUSH2 0x64C8 PUSH1 0x40 PUSH1 0x0 KECCAK256 SLOAD ISZERO ISZERO PUSH2 0x8A79 JUMP JUMPDEST DUP1 PUSH1 0x0 MSTORE PUSH1 0xF PUSH1 0x20 MSTORE PUSH1 0x0 DUP1 MLOAD PUSH1 0x20 PUSH2 0x9936 DUP4 CODECOPY DUP2 MLOAD SWAP2 MSTORE PUSH2 0x27F0 PUSH1 0x40 PUSH1 0x0 KECCAK256 PUSH1 0x3 DUP2 ADD PUSH1 0xFF NOT DUP2 SLOAD AND SWAP1 SSTORE PUSH1 0x40 MLOAD SWAP2 DUP3 SWAP2 PUSH1 0x40 DUP4 MSTORE PUSH1 0x1 PUSH1 0x40 DUP5 ADD SWAP2 ADD PUSH2 0x7224 JUMP JUMPDEST CALLVALUE PUSH2 0x612 JUMPI PUSH1 0x60 CALLDATASIZE PUSH1 0x3 NOT ADD SLT PUSH2 0x612 JUMPI PUSH1 0x24 DUP1 CALLDATALOAD PUSH1 0x4 CALLDATALOAD PUSH1 0x44 CALLDATALOAD PUSH1 0x1 PUSH1 0x1 PUSH1 0x40 SHL SUB DUP2 GT PUSH2 0x612 JUMPI PUSH2 0x6542 SWAP1 CALLDATASIZE SWAP1 PUSH1 0x4 ADD PUSH2 0x715B JUMP JUMPDEST SWAP1 DUP1 PUSH1 0x0 MSTORE PUSH1 0x20 SWAP2 PUSH1 0x10 DUP4 MSTORE PUSH1 0x1 DUP1 PUSH1 0xA0 SHL SUB PUSH1 0x1 PUSH1 0x40 PUSH1 0x0 KECCAK256 ADD SLOAD AND CALLER EQ PUSH2 0x66B0 JUMPI DUP4 ISZERO ISZERO DUP1 PUSH2 0x66A5 JUMPI JUMPDEST ISZERO PUSH2 0x6661 JUMPI DUP1 MLOAD ISZERO PUSH2 0x6623 JUMPI SWAP1 PUSH1 0x10 SWAP3 SWAP2 PUSH1 0x1 PUSH1 0xA SLOAD ADD SWAP1 DUP2 PUSH1 0xA SSTORE PUSH2 0x6592 PUSH2 0x8B3B JUMP JUMPDEST SWAP6 DUP3 DUP8 MSTORE CALLER DUP6 DUP9 ADD MSTORE PUSH1 0x40 DUP8 ADD MSTORE PUSH1 0x60 DUP7 ADD MSTORE TIMESTAMP PUSH1 0xA0 DUP7 ADD MSTORE PUSH1 0x0 MSTORE PUSH1 0x18 DUP3 MSTORE PUSH1 0x40 PUSH1 0x0 KECCAK256 PUSH1 0x1 PUSH1 0xFF NOT DUP3 SLOAD AND OR SWAP1 SSTORE PUSH1 0x0 MSTORE MSTORE PUSH1 0x10 PUSH1 0x40 PUSH1 0x0 KECCAK256 ADD DUP1 SLOAD PUSH1 0x1 PUSH1 0x40 SHL DUP2 LT ISZERO PUSH2 0x660E JUMPI PUSH2 0x65EB SWAP2 PUSH1 0x1 DUP3 ADD DUP2 SSTORE PUSH2 0x8B6C JUMP JUMPDEST PUSH2 0x65F9 JUMPI PUSH2 0x8C2 SWAP3 POP PUSH2 0x82B2 JUMP JUMPDEST DUP3 PUSH4 0x4E487B71 PUSH1 0xE0 SHL PUSH1 0x0 MSTORE PUSH1 0x0 PUSH1 0x4 MSTORE PUSH1 0x0 REVERT JUMPDEST DUP4 PUSH4 0x4E487B71 PUSH1 0xE0 SHL PUSH1 0x0 MSTORE PUSH1 0x41 PUSH1 0x4 MSTORE PUSH1 0x0 REVERT JUMPDEST PUSH1 0x40 MLOAD PUSH3 0x461BCD PUSH1 0xE5 SHL DUP2 MSTORE PUSH1 0x4 DUP2 ADD DUP5 SWAP1 MSTORE PUSH1 0x17 DUP2 DUP8 ADD MSTORE PUSH23 0x436F6D6D656E742063616E6E6F7420626520656D707479 PUSH1 0x48 SHL PUSH1 0x44 DUP3 ADD MSTORE PUSH1 0x64 SWAP1 REVERT JUMPDEST PUSH1 0x40 MLOAD PUSH3 0x461BCD PUSH1 0xE5 SHL DUP2 MSTORE PUSH1 0x4 DUP2 ADD DUP5 SWAP1 MSTORE PUSH1 0x1E DUP2 DUP8 ADD MSTORE PUSH32 0x526174696E67206D757374206265206265747765656E203120616E6420350000 PUSH1 0x44 DUP3 ADD MSTORE PUSH1 0x64 SWAP1 REVERT JUMPDEST POP PUSH1 0x5 DUP5 GT ISZERO PUSH2 0x656E JUMP JUMPDEST PUSH1 0x40 MLOAD PUSH3 0x461BCD PUSH1 0xE5 SHL DUP2 MSTORE PUSH1 0x4 DUP2 ADD DUP5 SWAP1 MSTORE PUSH1 0x26 DUP2 DUP8 ADD MSTORE PUSH32 0x53656C6C65722063616E6E6F7420726576696577207468656972206F776E2070 PUSH1 0x44 DUP3 ADD MSTORE PUSH6 0x1C9BD91D58DD PUSH1 0xD2 SHL PUSH1 0x64 DUP3 ADD MSTORE PUSH1 0x84 SWAP1 REVERT JUMPDEST CALLVALUE PUSH2 0x612 JUMPI PUSH1 0x0 CALLDATASIZE PUSH1 0x3 NOT ADD SLT PUSH2 0x612 JUMPI PUSH2 0x671C PUSH2 0x76A0 JUMP JUMPDEST CALLER PUSH1 0x0 MSTORE PUSH1 0x19 PUSH1 0x20 MSTORE PUSH1 0x40 PUSH1 0x0 KECCAK256 PUSH1 0x1 DUP1 PUSH1 0xA0 SHL SUB NOT DUP2 SLOAD AND SWAP1 SSTORE PUSH1 0x0 DUP1 MLOAD PUSH1 0x20 PUSH2 0x9876 DUP4 CODECOPY DUP2 MLOAD SWAP2 MSTORE PUSH1 0x40 DUP1 MLOAD CALLER DUP2 MSTORE PUSH1 0x0 PUSH1 0x20 DUP3 ADD MSTORE LOG1 STOP JUMPDEST CALLVALUE PUSH2 0x612 JUMPI PUSH1 0x40 CALLDATASIZE PUSH1 0x3 NOT ADD SLT PUSH2 0x612 JUMPI PUSH2 0x8C2 PUSH2 0x6773 PUSH2 0x7011 JUMP JUMPDEST PUSH1 0x4 CALLDATALOAD PUSH2 0x93FA JUMP JUMPDEST CALLVALUE PUSH2 0x612 JUMPI PUSH1 0x20 CALLDATASIZE PUSH1 0x3 NOT ADD SLT PUSH2 0x612 JUMPI PUSH1 0x1 PUSH1 0x1 PUSH1 0xA0 SHL SUB PUSH2 0x679C PUSH2 0x6FFB JUMP JUMPDEST AND PUSH1 0x0 MSTORE PUSH1 0x1A PUSH1 0x20 MSTORE PUSH1 0x20 PUSH1 0xFF PUSH1 0x40 PUSH1 0x0 KECCAK256 SLOAD AND PUSH1 0x40 MLOAD SWAP1 ISZERO ISZERO DUP2 MSTORE RETURN JUMPDEST CALLVALUE PUSH2 0x612 JUMPI PUSH1 0x40 CALLDATASIZE PUSH1 0x3 NOT ADD SLT PUSH2 0x612 JUMPI PUSH2 0x67D3 PUSH2 0x6FFB JUMP JUMPDEST PUSH1 0x24 CALLDATALOAD SWAP1 PUSH1 0x1 PUSH1 0x1 PUSH1 0xA0 SHL SUB DUP1 DUP1 PUSH2 0x67EA DUP6 PUSH2 0x773F JUMP JUMPDEST AND SWAP3 AND SWAP2 DUP1 DUP4 EQ PUSH2 0x68E5 JUMPI DUP1 CALLER EQ SWAP1 DUP2 ISZERO PUSH2 0x68C0 JUMPI JUMPDEST POP ISZERO PUSH2 0x6855 JUMPI PUSH1 0x0 DUP4 DUP2 MSTORE PUSH1 0x6 PUSH1 0x20 MSTORE PUSH1 0x40 SWAP1 KECCAK256 DUP1 SLOAD PUSH1 0x1 PUSH1 0x1 PUSH1 0xA0 SHL SUB NOT AND DUP4 OR SWAP1 SSTORE PUSH2 0x682D DUP4 PUSH2 0x773F JUMP JUMPDEST AND PUSH32 0x8C5BE1E5EBEC7D5BD14F71427D1E84F3DD0314C0F7B2291E5B200AC8C7C3B925 PUSH1 0x0 DUP1 LOG4 STOP JUMPDEST PUSH1 0x40 MLOAD PUSH3 0x461BCD PUSH1 0xE5 SHL DUP2 MSTORE PUSH1 0x20 PUSH1 0x4 DUP3 ADD MSTORE PUSH1 0x3D PUSH1 0x24 DUP3 ADD MSTORE PUSH32 0x4552433732313A20617070726F76652063616C6C6572206973206E6F7420746F PUSH1 0x44 DUP3 ADD MSTORE PUSH32 0x6B656E206F776E6572206F7220617070726F76656420666F7220616C6C000000 PUSH1 0x64 DUP3 ADD MSTORE PUSH1 0x84 SWAP1 REVERT JUMPDEST SWAP1 POP PUSH1 0x0 MSTORE PUSH1 0x7 PUSH1 0x20 MSTORE PUSH1 0x40 PUSH1 0x0 KECCAK256 CALLER PUSH1 0x0 MSTORE PUSH1 0x20 MSTORE PUSH1 0xFF PUSH1 0x40 PUSH1 0x0 KECCAK256 SLOAD AND DUP5 PUSH2 0x6800 JUMP JUMPDEST PUSH1 0x40 MLOAD PUSH3 0x461BCD PUSH1 0xE5 SHL DUP2 MSTORE PUSH1 0x20 PUSH1 0x4 DUP3 ADD MSTORE PUSH1 0x21 PUSH1 0x24 DUP3 ADD MSTORE PUSH32 0x4552433732313A20617070726F76616C20746F2063757272656E74206F776E65 PUSH1 0x44 DUP3 ADD MSTORE PUSH1 0x39 PUSH1 0xF9 SHL PUSH1 0x64 DUP3 ADD MSTORE PUSH1 0x84 SWAP1 REVERT JUMPDEST CALLVALUE PUSH2 0x612 JUMPI PUSH1 0x20 CALLDATASIZE PUSH1 0x3 NOT ADD SLT PUSH2 0x612 JUMPI PUSH1 0x20 PUSH2 0x5C07 PUSH1 0x4 CALLDATALOAD PUSH2 0x7762 JUMP JUMPDEST CALLVALUE PUSH2 0x612 JUMPI PUSH1 0x0 CALLDATASIZE PUSH1 0x3 NOT ADD SLT PUSH2 0x612 JUMPI PUSH1 0x40 MLOAD PUSH1 0x0 SWAP1 PUSH1 0x2 SLOAD PUSH2 0x6975 DUP2 PUSH2 0x71EA JUMP JUMPDEST DUP1 DUP4 MSTORE PUSH1 0x1 SWAP2 DUP1 DUP4 AND SWAP1 DUP2 ISZERO PUSH2 0x3382 JUMPI POP PUSH1 0x1 EQ PUSH2 0x699D JUMPI PUSH2 0x38A DUP4 PUSH2 0x3314 DUP2 DUP8 SUB DUP3 PUSH2 0x70E6 JUMP JUMPDEST PUSH1 0x2 PUSH1 0x0 SWAP1 DUP2 MSTORE PUSH1 0x20 SWAP5 POP SWAP2 PUSH32 0x405787FA12A823E0F2B7631CC41B3BA8828B3321CA811111FA75CD3AA3BB5ACE JUMPDEST DUP3 DUP5 LT PUSH2 0x69E4 JUMPI POP POP POP DUP2 ADD SWAP1 SWAP2 ADD SWAP1 PUSH2 0x3314 DUP2 PUSH2 0x3304 JUMP JUMPDEST DUP1 SLOAD DUP6 DUP6 ADD DUP8 ADD MSTORE SWAP3 DUP6 ADD SWAP3 DUP2 ADD PUSH2 0x69CB JUMP JUMPDEST CALLVALUE PUSH2 0x612 JUMPI PUSH1 0x0 CALLDATASIZE PUSH1 0x3 NOT ADD SLT PUSH2 0x612 JUMPI PUSH1 0x8 DUP1 SLOAD PUSH1 0x0 PUSH1 0x1 JUMPDEST DUP3 DUP2 GT ISZERO PUSH2 0x6C30 JUMPI POP PUSH2 0x6A23 SWAP1 PUSH2 0x88FD JUMP JUMPDEST SWAP1 PUSH1 0x0 SWAP3 PUSH1 0x1 JUMPDEST DUP3 DUP2 GT ISZERO PUSH2 0x6A40 JUMPI PUSH1 0x40 MLOAD DUP1 PUSH2 0x38A DUP7 DUP3 PUSH2 0x6F99 JUMP JUMPDEST DUP1 PUSH1 0x0 MSTORE PUSH1 0x10 PUSH1 0x20 DUP2 DUP2 MSTORE PUSH1 0x40 PUSH1 0x0 KECCAK256 SWAP2 PUSH1 0xF DUP4 ADD SLOAD SWAP1 PUSH1 0xFF SWAP4 DUP5 DUP4 DUP4 SHR AND ISZERO DUP1 PUSH2 0x6A7A JUMPI JUMPDEST POP POP POP POP POP POP PUSH2 0x6A75 SWAP1 PUSH2 0x88EE JUMP JUMPDEST PUSH2 0x6A2A JUMP JUMPDEST PUSH1 0x40 SWAP11 SWAP7 SWAP11 MLOAD SWAP6 PUSH2 0x6A8A DUP8 PUSH2 0x7027 JUMP JUMPDEST DUP3 SLOAD DUP8 MSTORE PUSH1 0x1 DUP4 ADD SLOAD PUSH1 0x1 PUSH1 0x1 PUSH1 0xA0 SHL SUB AND DUP7 DUP9 ADD MSTORE PUSH1 0x40 MLOAD PUSH2 0x6AB4 DUP2 PUSH2 0x3FB DUP2 PUSH1 0x2 DUP9 ADD PUSH2 0x7224 JUMP JUMPDEST PUSH1 0x40 DUP9 ADD MSTORE PUSH1 0x40 MLOAD PUSH2 0x6ACD DUP2 PUSH2 0x3FB DUP2 PUSH1 0x3 DUP9 ADD PUSH2 0x7224 JUMP JUMPDEST PUSH1 0x60 DUP9 ADD MSTORE PUSH1 0x4 DUP4 ADD SLOAD PUSH1 0x80 DUP9 ADD MSTORE PUSH1 0x5 DUP4 ADD SLOAD PUSH1 0xA0 DUP9 ADD MSTORE PUSH1 0x6 SWAP5 PUSH2 0x6AF4 DUP7 DUP6 ADD PUSH2 0x8828 JUMP JUMPDEST PUSH1 0xC0 DUP10 ADD MSTORE PUSH2 0x6B05 PUSH1 0x7 DUP6 ADD PUSH2 0x8828 JUMP JUMPDEST PUSH1 0xE0 DUP10 ADD MSTORE PUSH2 0x6B15 DUP11 DUP6 ADD PUSH2 0x8828 JUMP JUMPDEST PUSH2 0x100 DUP10 ADD MSTORE PUSH1 0x40 MLOAD PUSH2 0x6B2F DUP2 PUSH2 0x3FB DUP2 PUSH1 0x9 DUP10 ADD PUSH2 0x7224 JUMP JUMPDEST PUSH2 0x120 DUP10 ADD MSTORE PUSH1 0x40 MLOAD PUSH2 0x6B49 DUP2 PUSH2 0x3FB DUP2 PUSH1 0xA DUP10 ADD PUSH2 0x7224 JUMP JUMPDEST PUSH2 0x140 DUP10 ADD MSTORE PUSH1 0xB DUP5 ADD SLOAD PUSH2 0x160 DUP10 ADD MSTORE PUSH1 0x40 MLOAD PUSH2 0x6B6E DUP2 PUSH2 0x3FB DUP2 PUSH1 0xC DUP10 ADD PUSH2 0x7224 JUMP JUMPDEST PUSH2 0x180 DUP10 ADD MSTORE PUSH1 0x40 MLOAD PUSH2 0x6B88 DUP2 PUSH2 0x3FB DUP2 PUSH1 0xD DUP10 ADD PUSH2 0x7224 JUMP JUMPDEST PUSH2 0x1A0 DUP10 ADD MSTORE PUSH1 0xE DUP5 ADD SLOAD PUSH2 0x1C0 DUP10 ADD MSTORE DUP2 DUP2 AND ISZERO ISZERO PUSH2 0x1E0 DUP10 ADD MSTORE DUP10 SHR AND ISZERO ISZERO PUSH2 0x200 DUP8 ADD MSTORE ISZERO PUSH2 0x220 DUP7 ADD MSTORE ADD SWAP1 DUP2 SLOAD SWAP2 PUSH2 0x6BC4 DUP4 PUSH2 0x819A JUMP JUMPDEST SWAP4 PUSH2 0x6BD2 PUSH1 0x40 MLOAD SWAP6 DUP7 PUSH2 0x70E6 JUMP JUMPDEST DUP4 DUP6 MSTORE PUSH1 0x0 SWAP2 DUP3 MSTORE DUP1 DUP3 KECCAK256 SWAP2 DUP2 DUP7 ADD JUMPDEST DUP6 DUP3 LT PUSH2 0x6C14 JUMPI POP POP POP POP POP POP SWAP2 DUP2 PUSH2 0x6A75 SWAP4 PUSH2 0x240 PUSH2 0x6C08 SWAP5 ADD MSTORE PUSH2 0x564 DUP3 DUP9 PUSH2 0x894D JUMP JUMPDEST SWAP5 SWAP1 DUP7 DUP1 DUP1 DUP1 DUP1 PUSH2 0x6A66 JUMP JUMPDEST DUP5 DUP4 PUSH1 0x1 SWAP3 PUSH2 0x6C22 DUP8 PUSH2 0x888D JUMP JUMPDEST DUP2 MSTORE ADD SWAP5 ADD SWAP2 ADD SWAP1 SWAP3 PUSH2 0x6BE2 JUMP JUMPDEST DUP1 PUSH1 0x0 MSTORE PUSH1 0xFF PUSH1 0x10 DUP1 PUSH1 0x20 MSTORE PUSH1 0xF PUSH1 0x40 PUSH1 0x0 KECCAK256 ADD SLOAD SWAP1 SHR AND ISZERO PUSH2 0x6C5C JUMPI JUMPDEST PUSH2 0x6C57 SWAP1 PUSH2 0x88EE JUMP JUMPDEST PUSH2 0x6A11 JUMP JUMPDEST SWAP1 PUSH2 0x6C69 PUSH2 0x6C57 SWAP2 PUSH2 0x88EE JUMP JUMPDEST SWAP2 SWAP1 POP PUSH2 0x6C4E JUMP JUMPDEST CALLVALUE PUSH2 0x612 JUMPI PUSH1 0x20 CALLDATASIZE PUSH1 0x3 NOT ADD SLT PUSH2 0x612 JUMPI PUSH1 0x4 CALLDATALOAD PUSH4 0xFFFFFFFF PUSH1 0xE0 SHL DUP2 AND DUP1 SWAP2 SUB PUSH2 0x612 JUMPI PUSH1 0x20 SWAP1 PUSH4 0x80AC58CD PUSH1 0xE0 SHL DUP2 EQ SWAP1 DUP2 ISZERO PUSH2 0x6CCE JUMPI JUMPDEST DUP2 ISZERO PUSH2 0x6CBD JUMPI JUMPDEST POP PUSH1 0x40 MLOAD SWAP1 ISZERO ISZERO DUP2 MSTORE RETURN JUMPDEST PUSH4 0x1FFC9A7 PUSH1 0xE0 SHL EQ SWAP1 POP DUP3 PUSH2 0x6CB2 JUMP JUMPDEST PUSH4 0x5B5E139F PUSH1 0xE0 SHL DUP2 EQ SWAP2 POP PUSH2 0x6CAB JUMP JUMPDEST CALLVALUE PUSH2 0x612 JUMPI PUSH1 0x20 CALLDATASIZE PUSH1 0x3 NOT ADD SLT PUSH2 0x612 JUMPI PUSH1 0x20 SWAP1 PUSH1 0x4 CALLDATALOAD PUSH1 0x0 MSTORE PUSH1 0x18 DUP3 MSTORE PUSH1 0xFF PUSH1 0x40 PUSH1 0x0 KECCAK256 SLOAD AND ISZERO ISZERO DUP2 MSTORE RETURN JUMPDEST SWAP2 SWAP1 DUP3 MLOAD SWAP3 DUP4 DUP3 MSTORE PUSH1 0x0 JUMPDEST DUP5 DUP2 LT PUSH2 0x6D38 JUMPI POP POP DUP3 PUSH1 0x0 PUSH1 0x20 DUP1 SWAP5 SWAP6 DUP5 ADD ADD MSTORE PUSH1 0x1F DUP1 NOT SWAP2 ADD AND ADD ADD SWAP1 JUMP JUMPDEST PUSH1 0x20 DUP2 DUP4 ADD DUP2 ADD MLOAD DUP5 DUP4 ADD DUP3 ADD MSTORE ADD PUSH2 0x6D17 JUMP JUMPDEST SWAP1 DUP1 DUP3 MLOAD SWAP1 DUP2 DUP2 MSTORE PUSH1 0x20 DUP1 SWAP2 ADD SWAP3 DUP2 DUP1 DUP5 PUSH1 0x5 SHL DUP4 ADD ADD SWAP6 ADD SWAP4 PUSH1 0x0 SWAP2 JUMPDEST DUP5 DUP4 LT PUSH2 0x6D7A JUMPI POP POP POP POP POP POP SWAP1 JUMP JUMPDEST SWAP1 SWAP2 SWAP3 SWAP4 SWAP5 SWAP6 DUP5 DUP1 PUSH2 0x6D98 PUSH1 0x1 SWAP4 PUSH1 0x1F NOT DUP7 DUP3 SUB ADD DUP8 MSTORE DUP11 MLOAD PUSH2 0x6D0C JUMP JUMPDEST SWAP9 ADD SWAP4 ADD SWAP4 ADD SWAP2 SWAP5 SWAP4 SWAP3 SWAP1 PUSH2 0x6D6A JUMP JUMPDEST SWAP1 DUP1 DUP3 MLOAD SWAP1 DUP2 DUP2 MSTORE PUSH1 0x20 DUP1 SWAP2 ADD SWAP3 DUP2 DUP1 DUP5 PUSH1 0x5 SHL DUP4 ADD ADD SWAP6 ADD SWAP4 PUSH1 0x0 SWAP2 JUMPDEST DUP5 DUP4 LT PUSH2 0x6DD6 JUMPI POP POP POP POP POP POP SWAP1 JUMP JUMPDEST SWAP1 SWAP2 SWAP3 SWAP4 SWAP5 SWAP6 DUP5 DUP1 PUSH1 0x1 SWAP3 PUSH1 0x1F NOT DUP6 DUP3 SUB ADD DUP7 MSTORE DUP10 MLOAD SWAP1 DUP2 MLOAD DUP2 MSTORE DUP5 DUP1 PUSH1 0xA0 SHL SUB DUP4 DUP4 ADD MLOAD AND DUP4 DUP3 ADD MSTORE PUSH1 0x40 DUP1 DUP4 ADD MLOAD SWAP1 DUP3 ADD MSTORE PUSH2 0x6E23 PUSH1 0x60 DUP1 DUP5 ADD MLOAD SWAP1 PUSH1 0xC0 DUP1 SWAP2 DUP6 ADD MSTORE DUP4 ADD SWAP1 PUSH2 0x6D0C JUMP JUMPDEST SWAP2 PUSH1 0x80 DUP1 DUP3 ADD MLOAD ISZERO ISZERO SWAP1 DUP4 ADD MSTORE PUSH1 0xA0 DUP1 SWAP2 ADD MLOAD SWAP2 ADD MSTORE SWAP9 ADD SWAP4 ADD SWAP4 ADD SWAP2 SWAP5 SWAP4 SWAP3 SWAP1 PUSH2 0x6DC6 JUMP JUMPDEST SWAP1 PUSH2 0x6F96 SWAP2 DUP1 MLOAD DUP3 MSTORE PUSH1 0x1 DUP1 PUSH1 0xA0 SHL SUB PUSH1 0x20 DUP3 ADD MLOAD AND PUSH1 0x20 DUP4 ADD MSTORE PUSH2 0x6F50 PUSH2 0x6F3C PUSH2 0x6F1D PUSH2 0x6F09 PUSH2 0x6EF5 PUSH2 0x6EE1 PUSH2 0x6ECF PUSH2 0x6EA9 PUSH2 0x6E97 PUSH1 0x40 DUP11 ADD MLOAD PUSH1 0x40 DUP13 PUSH2 0x260 SWAP2 DUP3 SWAP2 ADD MSTORE DUP13 ADD SWAP1 PUSH2 0x6D0C JUMP JUMPDEST PUSH1 0x60 DUP11 ADD MLOAD DUP12 DUP3 SUB PUSH1 0x60 DUP14 ADD MSTORE PUSH2 0x6D0C JUMP JUMPDEST PUSH1 0x80 DUP10 ADD MLOAD PUSH1 0x80 DUP12 ADD MSTORE PUSH1 0xA0 DUP10 ADD MLOAD PUSH1 0xA0 DUP12 ADD MSTORE PUSH1 0xC0 DUP10 ADD MLOAD DUP11 DUP3 SUB PUSH1 0xC0 DUP13 ADD MSTORE PUSH2 0x6D4C JUMP JUMPDEST PUSH1 0xE0 DUP9 ADD MLOAD DUP10 DUP3 SUB PUSH1 0xE0 DUP12 ADD MSTORE PUSH2 0x6D4C JUMP JUMPDEST PUSH2 0x100 DUP1 DUP9 ADD MLOAD SWAP1 DUP10 DUP4 SUB SWAP1 DUP11 ADD MSTORE PUSH2 0x6D4C JUMP JUMPDEST PUSH2 0x120 DUP1 DUP8 ADD MLOAD SWAP1 DUP9 DUP4 SUB SWAP1 DUP10 ADD MSTORE PUSH2 0x6D0C JUMP JUMPDEST PUSH2 0x140 DUP1 DUP7 ADD MLOAD SWAP1 DUP8 DUP4 SUB SWAP1 DUP9 ADD MSTORE PUSH2 0x6D0C JUMP JUMPDEST PUSH2 0x160 DUP1 DUP6 ADD MLOAD SWAP1 DUP7 ADD MSTORE PUSH2 0x180 DUP1 DUP6 ADD MLOAD SWAP1 DUP7 DUP4 SUB SWAP1 DUP8 ADD MSTORE PUSH2 0x6D0C JUMP JUMPDEST PUSH2 0x1A0 DUP1 DUP5 ADD MLOAD SWAP1 DUP6 DUP4 SUB SWAP1 DUP7 ADD MSTORE PUSH2 0x6D0C JUMP JUMPDEST SWAP2 PUSH2 0x1C0 DUP1 DUP4 ADD MLOAD SWAP1 DUP3 ADD MSTORE PUSH2 0x1E0 DUP1 DUP4 ADD MLOAD ISZERO ISZERO SWAP1 DUP3 ADD MSTORE PUSH2 0x200 DUP1 DUP4 ADD MLOAD ISZERO ISZERO SWAP1 DUP3 ADD MSTORE PUSH2 0x220 DUP1 DUP4 ADD MLOAD ISZERO ISZERO SWAP1 DUP3 ADD MSTORE PUSH2 0x240 DUP1 SWAP3 ADD MLOAD SWAP2 DUP2 DUP5 SUB SWAP2 ADD MSTORE PUSH2 0x6DA8 JUMP JUMPDEST SWAP1 JUMP JUMPDEST PUSH1 0x20 DUP1 DUP3 ADD SWAP1 DUP1 DUP4 MSTORE DUP4 MLOAD DUP1 SWAP3 MSTORE PUSH1 0x40 DUP4 ADD SWAP3 DUP2 PUSH1 0x40 DUP5 PUSH1 0x5 SHL DUP4 ADD ADD SWAP6 ADD SWAP4 PUSH1 0x0 SWAP2 JUMPDEST DUP5 DUP4 LT PUSH2 0x6FCD JUMPI POP POP POP POP POP POP SWAP1 JUMP JUMPDEST SWAP1 SWAP2 SWAP3 SWAP4 SWAP5 SWAP6 DUP5 DUP1 PUSH2 0x6FEB PUSH1 0x1 SWAP4 PUSH1 0x3F NOT DUP7 DUP3 SUB ADD DUP8 MSTORE DUP11 MLOAD PUSH2 0x6E49 JUMP JUMPDEST SWAP9 ADD SWAP4 ADD SWAP4 ADD SWAP2 SWAP5 SWAP4 SWAP3 SWAP1 PUSH2 0x6FBD JUMP JUMPDEST PUSH1 0x4 CALLDATALOAD SWAP1 PUSH1 0x1 PUSH1 0x1 PUSH1 0xA0 SHL SUB DUP3 AND DUP3 SUB PUSH2 0x612 JUMPI JUMP JUMPDEST PUSH1 0x24 CALLDATALOAD SWAP1 PUSH1 0x1 PUSH1 0x1 PUSH1 0xA0 SHL SUB DUP3 AND DUP3 SUB PUSH2 0x612 JUMPI JUMP JUMPDEST PUSH2 0x260 DUP2 ADD SWAP1 DUP2 LT PUSH1 0x1 PUSH1 0x1 PUSH1 0x40 SHL SUB DUP3 GT OR PUSH2 0x1469 JUMPI PUSH1 0x40 MSTORE JUMP JUMPDEST PUSH2 0x100 DUP2 ADD SWAP1 DUP2 LT PUSH1 0x1 PUSH1 0x1 PUSH1 0x40 SHL SUB DUP3 GT OR PUSH2 0x1469 JUMPI PUSH1 0x40 MSTORE JUMP JUMPDEST PUSH1 0xE0 DUP2 ADD SWAP1 DUP2 LT PUSH1 0x1 PUSH1 0x1 PUSH1 0x40 SHL SUB DUP3 GT OR PUSH2 0x1469 JUMPI PUSH1 0x40 MSTORE JUMP JUMPDEST PUSH1 0x80 DUP2 ADD SWAP1 DUP2 LT PUSH1 0x1 PUSH1 0x1 PUSH1 0x40 SHL SUB DUP3 GT OR PUSH2 0x1469 JUMPI PUSH1 0x40 MSTORE JUMP JUMPDEST PUSH1 0xA0 DUP2 ADD SWAP1 DUP2 LT PUSH1 0x1 PUSH1 0x1 PUSH1 0x40 SHL SUB DUP3 GT OR PUSH2 0x1469 JUMPI PUSH1 0x40 MSTORE JUMP JUMPDEST PUSH1 0xC0 DUP2 ADD SWAP1 DUP2 LT PUSH1 0x1 PUSH1 0x1 PUSH1 0x40 SHL SUB DUP3 GT OR PUSH2 0x1469 JUMPI PUSH1 0x40 MSTORE JUMP JUMPDEST PUSH1 0x20 DUP2 ADD SWAP1 DUP2 LT PUSH1 0x1 PUSH1 0x1 PUSH1 0x40 SHL SUB DUP3 GT OR PUSH2 0x1469 JUMPI PUSH1 0x40 MSTORE JUMP JUMPDEST PUSH1 0x1F SWAP1 SWAP2 ADD PUSH1 0x1F NOT AND DUP2 ADD SWAP1 PUSH1 0x1 PUSH1 0x1 PUSH1 0x40 SHL SUB DUP3 GT SWAP1 DUP3 LT OR PUSH2 0x1469 JUMPI PUSH1 0x40 MSTORE JUMP JUMPDEST PUSH1 0x1 PUSH1 0x1 PUSH1 0x40 SHL SUB DUP2 GT PUSH2 0x1469 JUMPI PUSH1 0x1F ADD PUSH1 0x1F NOT AND PUSH1 0x20 ADD SWAP1 JUMP JUMPDEST SWAP3 SWAP2 SWAP3 PUSH2 0x7130 DUP3 PUSH2 0x7109 JUMP JUMPDEST SWAP2 PUSH2 0x713E PUSH1 0x40 MLOAD SWAP4 DUP5 PUSH2 0x70E6 JUMP JUMPDEST DUP3 SWAP5 DUP2 DUP5 MSTORE DUP2 DUP4 ADD GT PUSH2 0x612 JUMPI DUP3 DUP2 PUSH1 0x20 SWAP4 DUP5 PUSH1 0x0 SWAP7 ADD CALLDATACOPY ADD ADD MSTORE JUMP JUMPDEST SWAP1 DUP1 PUSH1 0x1F DUP4 ADD SLT ISZERO PUSH2 0x612 JUMPI DUP2 PUSH1 0x20 PUSH2 0x6F96 SWAP4 CALLDATALOAD SWAP2 ADD PUSH2 0x7124 JUMP JUMPDEST PUSH1 0x60 SWAP1 PUSH1 0x3 NOT ADD SLT PUSH2 0x612 JUMPI PUSH1 0x1 PUSH1 0x1 PUSH1 0xA0 SHL SUB SWAP1 PUSH1 0x4 CALLDATALOAD DUP3 DUP2 AND DUP2 SUB PUSH2 0x612 JUMPI SWAP2 PUSH1 0x24 CALLDATALOAD SWAP1 DUP2 AND DUP2 SUB PUSH2 0x612 JUMPI SWAP1 PUSH1 0x44 CALLDATALOAD SWAP1 JUMP JUMPDEST SWAP1 PUSH1 0x60 PUSH1 0x3 NOT DUP4 ADD SLT PUSH2 0x612 JUMPI PUSH1 0x4 CALLDATALOAD SWAP2 PUSH1 0x24 CALLDATALOAD SWAP1 PUSH1 0x1 PUSH1 0x1 PUSH1 0x40 SHL SUB DUP3 GT PUSH2 0x612 JUMPI PUSH2 0x71DA SWAP2 PUSH1 0x4 ADD PUSH2 0x715B JUMP JUMPDEST SWAP1 PUSH1 0x44 CALLDATALOAD DUP1 ISZERO ISZERO DUP2 SUB PUSH2 0x612 JUMPI SWAP1 JUMP JUMPDEST SWAP1 PUSH1 0x1 DUP3 DUP2 SHR SWAP3 AND DUP1 ISZERO PUSH2 0x721A JUMPI JUMPDEST PUSH1 0x20 DUP4 LT EQ PUSH2 0x7204 JUMPI JUMP JUMPDEST PUSH4 0x4E487B71 PUSH1 0xE0 SHL PUSH1 0x0 MSTORE PUSH1 0x22 PUSH1 0x4 MSTORE PUSH1 0x24 PUSH1 0x0 REVERT JUMPDEST SWAP2 PUSH1 0x7F AND SWAP2 PUSH2 0x71F9 JUMP JUMPDEST SWAP1 PUSH1 0x0 SWAP3 SWAP2 DUP1 SLOAD SWAP2 PUSH2 0x7235 DUP4 PUSH2 0x71EA JUMP JUMPDEST SWAP2 DUP3 DUP3 MSTORE PUSH1 0x1 SWAP4 DUP5 DUP2 AND SWAP1 DUP2 PUSH1 0x0 EQ PUSH2 0x7297 JUMPI POP PUSH1 0x1 EQ PUSH2 0x7257 JUMPI JUMPDEST POP POP POP POP JUMP JUMPDEST SWAP1 SWAP2 SWAP4 SWAP5 POP PUSH1 0x0 MSTORE PUSH1 0x20 SWAP3 DUP4 PUSH1 0x0 KECCAK256 SWAP3 DUP5 PUSH1 0x0 SWAP5 JUMPDEST DUP4 DUP7 LT PUSH2 0x7283 JUMPI POP POP POP POP ADD ADD SWAP1 CODESIZE DUP1 DUP1 DUP1 PUSH2 0x7251 JUMP JUMPDEST DUP1 SLOAD DUP6 DUP8 ADD DUP4 ADD MSTORE SWAP5 ADD SWAP4 DUP6 SWAP1 DUP3 ADD PUSH2 0x726C JUMP JUMPDEST SWAP3 SWAP5 POP POP POP PUSH1 0x20 SWAP4 SWAP5 POP PUSH1 0xFF NOT AND DUP4 DUP4 ADD MSTORE ISZERO ISZERO PUSH1 0x5 SHL ADD ADD SWAP1 CODESIZE DUP1 DUP1 DUP1 PUSH2 0x7251 JUMP JUMPDEST PUSH2 0x6F96 SWAP2 PUSH1 0xE0 PUSH2 0x7351 PUSH2 0x733F PUSH2 0x732D PUSH2 0x731B PUSH2 0x7309 PUSH2 0x72F7 PUSH2 0x72E5 DUP10 MLOAD PUSH2 0x100 DUP1 DUP12 MSTORE DUP11 ADD SWAP1 PUSH2 0x6D0C JUMP JUMPDEST PUSH1 0x20 DUP11 ADD MLOAD DUP10 DUP3 SUB PUSH1 0x20 DUP12 ADD MSTORE PUSH2 0x6D0C JUMP JUMPDEST PUSH1 0x40 DUP10 ADD MLOAD DUP9 DUP3 SUB PUSH1 0x40 DUP11 ADD MSTORE PUSH2 0x6D0C JUMP JUMPDEST PUSH1 0x60 DUP9 ADD MLOAD DUP8 DUP3 SUB PUSH1 0x60 DUP10 ADD MSTORE PUSH2 0x6D0C JUMP JUMPDEST PUSH1 0x80 DUP8 ADD MLOAD DUP7 DUP3 SUB PUSH1 0x80 DUP9 ADD MSTORE PUSH2 0x6D0C JUMP JUMPDEST PUSH1 0xA0 DUP7 ADD MLOAD DUP6 DUP3 SUB PUSH1 0xA0 DUP8 ADD MSTORE PUSH2 0x6D0C JUMP JUMPDEST PUSH1 0xC0 DUP6 ADD MLOAD DUP5 DUP3 SUB PUSH1 0xC0 DUP7 ADD MSTORE PUSH2 0x6D0C JUMP JUMPDEST SWAP3 ADD MLOAD SWAP1 PUSH1 0xE0 DUP2 DUP5 SUB SWAP2 ADD MSTORE PUSH2 0x6D0C JUMP JUMPDEST PUSH1 0x20 DUP1 DUP3 ADD SWAP1 DUP1 DUP4 MSTORE DUP4 MLOAD DUP1 SWAP3 MSTORE PUSH1 0x40 SWAP3 DUP4 DUP2 ADD DUP3 DUP6 DUP6 PUSH1 0x5 SHL DUP5 ADD ADD SWAP7 ADD SWAP5 PUSH1 0x0 SWAP3 JUMPDEST DUP6 DUP5 LT PUSH2 0x7397 JUMPI POP POP POP POP POP POP POP SWAP1 JUMP JUMPDEST SWAP1 SWAP2 SWAP3 SWAP4 SWAP5 SWAP6 SWAP7 DUP6 DUP1 PUSH2 0x740F PUSH1 0x1 SWAP4 PUSH1 0x3F NOT DUP7 DUP3 SUB ADD DUP9 MSTORE DUP12 MLOAD DUP1 MLOAD DUP3 MSTORE DUP4 DUP2 ADD MLOAD DUP5 DUP4 ADD MSTORE DUP8 DUP2 ADD MLOAD DUP9 DUP4 ADD MSTORE PUSH1 0x60 DUP1 DUP3 ADD MLOAD SWAP1 DUP4 ADD MSTORE DUP6 DUP1 PUSH1 0xA0 SHL SUB PUSH1 0x80 DUP2 DUP2 DUP5 ADD MLOAD AND SWAP1 DUP5 ADD MSTORE PUSH1 0xA0 SWAP1 DUP2 DUP4 ADD MLOAD AND SWAP1 DUP4 ADD MSTORE PUSH1 0xC0 DUP1 DUP3 ADD MLOAD ISZERO ISZERO SWAP1 DUP4 ADD MSTORE PUSH1 0xE0 DUP1 SWAP2 ADD MLOAD SWAP2 PUSH2 0x100 DUP1 SWAP3 DUP3 ADD MSTORE ADD SWAP1 PUSH2 0x72BA JUMP JUMPDEST SWAP10 ADD SWAP5 ADD SWAP5 ADD SWAP3 SWAP6 SWAP5 SWAP4 SWAP2 SWAP1 PUSH2 0x7386 JUMP JUMPDEST SWAP1 PUSH1 0xC0 DUP1 PUSH2 0x748B PUSH2 0x7479 PUSH2 0x7467 PUSH2 0x7455 PUSH2 0x7443 DUP9 MLOAD PUSH1 0xE0 DUP10 MSTORE PUSH1 0xE0 DUP10 ADD SWAP1 PUSH2 0x6D0C JUMP JUMPDEST PUSH1 0x20 DUP10 ADD MLOAD DUP9 DUP3 SUB PUSH1 0x20 DUP11 ADD MSTORE PUSH2 0x6D0C JUMP JUMPDEST PUSH1 0x40 DUP9 ADD MLOAD DUP8 DUP3 SUB PUSH1 0x40 DUP10 ADD MSTORE PUSH2 0x6D0C JUMP JUMPDEST PUSH1 0x60 DUP8 ADD MLOAD DUP7 DUP3 SUB PUSH1 0x60 DUP9 ADD MSTORE PUSH2 0x6D0C JUMP JUMPDEST PUSH1 0x80 DUP7 ADD MLOAD DUP6 DUP3 SUB PUSH1 0x80 DUP8 ADD MSTORE PUSH2 0x6D0C JUMP JUMPDEST SWAP4 PUSH1 0xA0 DUP2 ADD MLOAD PUSH1 0xA0 DUP6 ADD MSTORE ADD MLOAD ISZERO ISZERO SWAP2 ADD MSTORE SWAP1 JUMP JUMPDEST SWAP1 PUSH1 0x4 DUP3 LT ISZERO PUSH2 0x6E2 JUMPI MSTORE JUMP JUMPDEST PUSH1 0x1C SLOAD DUP2 LT ISZERO PUSH2 0x74C8 JUMPI PUSH1 0x1C PUSH1 0x0 MSTORE PUSH1 0x20 PUSH1 0x0 KECCAK256 ADD SWAP1 PUSH1 0x0 SWAP1 JUMP JUMPDEST PUSH4 0x4E487B71 PUSH1 0xE0 SHL PUSH1 0x0 MSTORE PUSH1 0x32 PUSH1 0x4 MSTORE PUSH1 0x24 PUSH1 0x0 REVERT JUMPDEST DUP1 SLOAD DUP3 LT ISZERO PUSH2 0x74C8 JUMPI PUSH1 0x0 MSTORE PUSH1 0x20 PUSH1 0x0 KECCAK256 ADD SWAP1 PUSH1 0x0 SWAP1 JUMP JUMPDEST PUSH1 0x20 SWAP1 DUP2 PUSH1 0x40 DUP2 DUP4 ADD SWAP3 DUP3 DUP2 MSTORE DUP6 MLOAD DUP1 SWAP5 MSTORE ADD SWAP4 ADD SWAP2 PUSH1 0x0 JUMPDEST DUP3 DUP2 LT PUSH2 0x751D JUMPI POP POP POP POP SWAP1 JUMP JUMPDEST DUP4 MLOAD PUSH1 0x1 PUSH1 0x1 PUSH1 0xA0 SHL SUB AND DUP6 MSTORE SWAP4 DUP2 ADD SWAP4 SWAP3 DUP2 ADD SWAP3 PUSH1 0x1 ADD PUSH2 0x750F JUMP JUMPDEST DUP1 SLOAD DUP3 LT ISZERO PUSH2 0x74C8 JUMPI PUSH1 0x0 MSTORE PUSH1 0xE PUSH1 0x20 PUSH1 0x0 KECCAK256 SWAP2 MUL ADD SWAP1 PUSH1 0x0 SWAP1 JUMP JUMPDEST SWAP1 PUSH1 0x7 PUSH1 0xE0 PUSH1 0x40 SWAP4 PUSH2 0x761E DUP6 MLOAD SWAP2 PUSH2 0x756D DUP4 PUSH2 0x7043 JUMP JUMPDEST PUSH2 0x741 DUP4 SWAP8 DUP1 MLOAD PUSH2 0x7582 DUP2 PUSH2 0x3FB DUP2 DUP8 PUSH2 0x7224 JUMP JUMPDEST DUP6 MSTORE DUP1 MLOAD PUSH2 0x7597 DUP2 PUSH2 0x3FB DUP2 PUSH1 0x1 DUP9 ADD PUSH2 0x7224 JUMP JUMPDEST PUSH1 0x20 DUP7 ADD MSTORE DUP1 MLOAD PUSH2 0x75AF DUP2 PUSH2 0x3FB DUP2 PUSH1 0x2 DUP9 ADD PUSH2 0x7224 JUMP JUMPDEST DUP2 DUP7 ADD MSTORE DUP1 MLOAD PUSH2 0x75C6 DUP2 PUSH2 0x3FB DUP2 PUSH1 0x3 DUP9 ADD PUSH2 0x7224 JUMP JUMPDEST PUSH1 0x60 DUP7 ADD MSTORE DUP1 MLOAD PUSH2 0x75DE DUP2 PUSH2 0x3FB DUP2 PUSH1 0x4 DUP9 ADD PUSH2 0x7224 JUMP JUMPDEST PUSH1 0x80 DUP7 ADD MSTORE DUP1 MLOAD PUSH2 0x75F6 DUP2 PUSH2 0x3FB DUP2 PUSH1 0x5 DUP9 ADD PUSH2 0x7224 JUMP JUMPDEST PUSH1 0xA0 DUP7 ADD MSTORE DUP1 MLOAD PUSH2 0x760E DUP2 PUSH2 0x3FB DUP2 PUSH1 0x6 DUP9 ADD PUSH2 0x7224 JUMP JUMPDEST PUSH1 0xC0 DUP7 ADD MSTORE MLOAD DUP1 SWAP7 DUP2 SWAP4 ADD PUSH2 0x7224 JUMP JUMPDEST ADD MSTORE JUMP JUMPDEST SWAP6 SWAP3 SWAP1 SWAP2 PUSH2 0x6F96 SWAP9 SWAP8 SWAP6 SWAP5 SWAP3 DUP8 MSTORE PUSH1 0x20 DUP8 ADD MSTORE PUSH1 0x40 DUP7 ADD MSTORE PUSH1 0x60 DUP6 ADD MSTORE PUSH1 0x1 DUP1 PUSH1 0xA0 SHL SUB DUP1 SWAP3 AND PUSH1 0x80 DUP6 ADD MSTORE AND PUSH1 0xA0 DUP4 ADD MSTORE ISZERO ISZERO PUSH1 0xC0 DUP3 ADD MSTORE PUSH2 0x100 SWAP1 DUP2 PUSH1 0xE0 DUP3 ADD MSTORE ADD SWAP1 PUSH2 0x72BA JUMP JUMPDEST SWAP1 DUP2 MLOAD DUP1 DUP3 MSTORE PUSH1 0x20 DUP1 DUP1 SWAP4 ADD SWAP4 ADD SWAP2 PUSH1 0x0 JUMPDEST DUP3 DUP2 LT PUSH2 0x768C JUMPI POP POP POP POP SWAP1 JUMP JUMPDEST DUP4 MLOAD DUP6 MSTORE SWAP4 DUP2 ADD SWAP4 SWAP3 DUP2 ADD SWAP3 PUSH1 0x1 ADD PUSH2 0x767E JUMP JUMPDEST PUSH1 0x0 SLOAD PUSH1 0x1 PUSH1 0x1 PUSH1 0xA0 SHL SUB AND CALLER SUB PUSH2 0x76B4 JUMPI JUMP JUMPDEST PUSH1 0x64 PUSH1 0x40 MLOAD PUSH3 0x461BCD PUSH1 0xE5 SHL DUP2 MSTORE PUSH1 0x20 PUSH1 0x4 DUP3 ADD MSTORE PUSH1 0x20 PUSH1 0x24 DUP3 ADD MSTORE PUSH32 0x4F776E61626C653A2063616C6C6572206973206E6F7420746865206F776E6572 PUSH1 0x44 DUP3 ADD MSTORE REVERT JUMPDEST ISZERO PUSH2 0x76FF JUMPI JUMP JUMPDEST PUSH1 0x40 MLOAD PUSH3 0x461BCD PUSH1 0xE5 SHL DUP2 MSTORE PUSH1 0x20 PUSH1 0x4 DUP3 ADD MSTORE PUSH1 0x18 PUSH1 0x24 DUP3 ADD MSTORE PUSH24 0x115490CDCC8C4E881A5B9D985B1A59081D1BDAD95B881251 PUSH1 0x42 SHL PUSH1 0x44 DUP3 ADD MSTORE PUSH1 0x64 SWAP1 REVERT JUMPDEST PUSH1 0x0 SWAP1 DUP2 MSTORE PUSH1 0x4 PUSH1 0x20 MSTORE PUSH1 0x40 SWAP1 KECCAK256 SLOAD PUSH1 0x1 PUSH1 0x1 PUSH1 0xA0 SHL SUB AND PUSH2 0x6F96 DUP2 ISZERO ISZERO PUSH2 0x76F8 JUMP JUMPDEST PUSH2 0x776E PUSH2 0x281B DUP3 PUSH2 0x7A5B JUMP JUMPDEST PUSH1 0x0 SWAP1 DUP2 MSTORE PUSH1 0x6 PUSH1 0x20 MSTORE PUSH1 0x40 SWAP1 KECCAK256 SLOAD PUSH1 0x1 PUSH1 0x1 PUSH1 0xA0 SHL SUB AND SWAP1 JUMP JUMPDEST ISZERO PUSH2 0x7790 JUMPI JUMP JUMPDEST PUSH1 0x40 MLOAD PUSH3 0x461BCD PUSH1 0xE5 SHL DUP2 MSTORE PUSH1 0x20 PUSH1 0x4 DUP3 ADD MSTORE PUSH1 0x2D PUSH1 0x24 DUP3 ADD MSTORE PUSH32 0x4552433732313A2063616C6C6572206973206E6F7420746F6B656E206F776E65 PUSH1 0x44 DUP3 ADD MSTORE PUSH13 0x1C881BDC88185C1C1C9BDD9959 PUSH1 0x9A SHL PUSH1 0x64 DUP3 ADD MSTORE PUSH1 0x84 SWAP1 REVERT JUMPDEST SWAP1 PUSH2 0x780F SWAP4 SWAP3 SWAP2 PUSH2 0x77FF PUSH2 0x6489 DUP5 CALLER PUSH2 0x7886 JUMP JUMPDEST PUSH2 0x780A DUP4 DUP4 DUP4 PUSH2 0x794E JUMP JUMPDEST PUSH2 0x7AA8 JUMP JUMPDEST ISZERO PUSH2 0x7816 JUMPI JUMP JUMPDEST PUSH1 0x40 MLOAD PUSH3 0x461BCD PUSH1 0xE5 SHL DUP2 MSTORE DUP1 PUSH2 0x782F PUSH1 0x4 DUP3 ADD PUSH2 0x7833 JUMP JUMPDEST SUB SWAP1 REVERT JUMPDEST PUSH1 0x80 SWAP1 PUSH1 0x20 DUP2 MSTORE PUSH1 0x32 PUSH1 0x20 DUP3 ADD MSTORE PUSH32 0x4552433732313A207472616E7366657220746F206E6F6E204552433732315265 PUSH1 0x40 DUP3 ADD MSTORE PUSH18 0x31B2B4BB32B91034B6B83632B6B2B73A32B9 PUSH1 0x71 SHL PUSH1 0x60 DUP3 ADD MSTORE ADD SWAP1 JUMP JUMPDEST SWAP1 PUSH1 0x1 PUSH1 0x1 PUSH1 0xA0 SHL SUB DUP1 DUP1 PUSH2 0x789A DUP5 PUSH2 0x773F JUMP JUMPDEST AND SWAP4 AND SWAP2 DUP4 DUP4 EQ SWAP4 DUP5 ISZERO PUSH2 0x78CD JUMPI JUMPDEST POP DUP4 ISZERO PUSH2 0x78B7 JUMPI JUMPDEST POP POP POP SWAP1 JUMP JUMPDEST PUSH2 0x78C3 SWAP2 SWAP3 SWAP4 POP PUSH2 0x7762 JUMP JUMPDEST AND EQ CODESIZE DUP1 DUP1 PUSH2 0x78B1 JUMP JUMPDEST SWAP1 SWAP4 POP PUSH1 0x0 MSTORE PUSH1 0x7 PUSH1 0x20 MSTORE PUSH1 0x40 PUSH1 0x0 KECCAK256 DUP3 PUSH1 0x0 MSTORE PUSH1 0x20 MSTORE PUSH1 0xFF PUSH1 0x40 PUSH1 0x0 KECCAK256 SLOAD AND SWAP3 CODESIZE PUSH2 0x78A9 JUMP JUMPDEST ISZERO PUSH2 0x78FB JUMPI JUMP JUMPDEST PUSH1 0x40 MLOAD PUSH3 0x461BCD PUSH1 0xE5 SHL DUP2 MSTORE PUSH1 0x20 PUSH1 0x4 DUP3 ADD MSTORE PUSH1 0x25 PUSH1 0x24 DUP3 ADD MSTORE PUSH32 0x4552433732313A207472616E736665722066726F6D20696E636F727265637420 PUSH1 0x44 DUP3 ADD MSTORE PUSH5 0x37BBB732B9 PUSH1 0xD9 SHL PUSH1 0x64 DUP3 ADD MSTORE PUSH1 0x84 SWAP1 REVERT JUMPDEST SWAP1 PUSH2 0x7976 SWAP2 PUSH2 0x795C DUP5 PUSH2 0x773F JUMP JUMPDEST PUSH1 0x1 PUSH1 0x1 PUSH1 0xA0 SHL SUB SWAP4 SWAP2 DUP5 AND SWAP3 DUP5 SWAP3 SWAP1 SWAP2 DUP4 AND DUP5 EQ PUSH2 0x78F4 JUMP JUMPDEST AND SWAP2 DUP3 ISZERO PUSH2 0x79F9 JUMPI DUP2 PUSH2 0x7993 SWAP2 PUSH2 0x798C DUP7 PUSH2 0x773F JUMP JUMPDEST AND EQ PUSH2 0x78F4 JUMP JUMPDEST PUSH1 0x0 DUP1 MLOAD PUSH1 0x20 PUSH2 0x98F6 DUP4 CODECOPY DUP2 MLOAD SWAP2 MSTORE PUSH1 0x0 DUP5 DUP2 MSTORE PUSH1 0x6 PUSH1 0x20 MSTORE PUSH1 0x40 DUP2 KECCAK256 PUSH1 0x1 DUP1 PUSH1 0xA0 SHL SUB NOT SWAP1 DUP2 DUP2 SLOAD AND SWAP1 SSTORE DUP4 DUP3 MSTORE PUSH1 0x5 PUSH1 0x20 MSTORE PUSH1 0x40 DUP3 KECCAK256 PUSH1 0x0 NOT DUP2 SLOAD ADD SWAP1 SSTORE DUP5 DUP3 MSTORE PUSH1 0x40 DUP3 KECCAK256 PUSH1 0x1 DUP2 SLOAD ADD SWAP1 SSTORE DUP6 DUP3 MSTORE PUSH1 0x4 PUSH1 0x20 MSTORE DUP5 PUSH1 0x40 DUP4 KECCAK256 SWAP2 DUP3 SLOAD AND OR SWAP1 SSTORE DUP1 LOG4 JUMP JUMPDEST PUSH1 0x40 MLOAD PUSH3 0x461BCD PUSH1 0xE5 SHL DUP2 MSTORE PUSH1 0x20 PUSH1 0x4 DUP3 ADD MSTORE PUSH1 0x24 DUP1 DUP3 ADD MSTORE PUSH32 0x4552433732313A207472616E7366657220746F20746865207A65726F20616464 PUSH1 0x44 DUP3 ADD MSTORE PUSH4 0x72657373 PUSH1 0xE0 SHL PUSH1 0x64 DUP3 ADD MSTORE PUSH1 0x84 SWAP1 REVERT JUMPDEST SWAP1 PUSH1 0xFF DUP1 NOT DUP4 SLOAD AND SWAP2 ISZERO ISZERO AND OR SWAP1 SSTORE JUMP JUMPDEST PUSH1 0x0 SWAP1 DUP2 MSTORE PUSH1 0x4 PUSH1 0x20 MSTORE PUSH1 0x40 SWAP1 KECCAK256 SLOAD PUSH1 0x1 PUSH1 0x1 PUSH1 0xA0 SHL SUB AND ISZERO ISZERO SWAP1 JUMP JUMPDEST RETURNDATASIZE ISZERO PUSH2 0x7AA3 JUMPI RETURNDATASIZE SWAP1 PUSH2 0x7A89 DUP3 PUSH2 0x7109 JUMP JUMPDEST SWAP2 PUSH2 0x7A97 PUSH1 0x40 MLOAD SWAP4 DUP5 PUSH2 0x70E6 JUMP JUMPDEST DUP3 MSTORE RETURNDATASIZE PUSH1 0x0 PUSH1 0x20 DUP5 ADD RETURNDATACOPY JUMP JUMPDEST PUSH1 0x60 SWAP1 JUMP JUMPDEST SWAP2 SWAP3 PUSH1 0x0 SWAP3 SWAP2 SWAP1 DUP2 EXTCODESIZE ISZERO PUSH2 0x7B9D JUMPI PUSH1 0x20 SWAP2 PUSH2 0x7AFE SWAP2 DUP6 PUSH1 0x40 MLOAD SWAP6 DUP7 DUP1 SWAP6 DUP2 SWAP5 PUSH4 0xA85BD01 PUSH1 0xE1 SHL SWAP12 DUP13 DUP5 MSTORE CALLER PUSH1 0x4 DUP6 ADD MSTORE PUSH1 0x1 DUP1 PUSH1 0xA0 SHL SUB DUP1 SWAP6 AND PUSH1 0x24 DUP6 ADD MSTORE PUSH1 0x44 DUP5 ADD MSTORE PUSH1 0x80 PUSH1 0x64 DUP5 ADD MSTORE PUSH1 0x84 DUP4 ADD SWAP1 PUSH2 0x6D0C JUMP JUMPDEST SUB SWAP4 AND GAS CALL SWAP1 DUP3 SWAP1 DUP3 PUSH2 0x7B4E JUMPI JUMPDEST POP POP PUSH2 0x7B40 JUMPI PUSH2 0x7B1A PUSH2 0x7A78 JUMP JUMPDEST DUP1 MLOAD SWAP1 DUP2 PUSH2 0x7B3B JUMPI PUSH1 0x40 MLOAD PUSH3 0x461BCD PUSH1 0xE5 SHL DUP2 MSTORE DUP1 PUSH2 0x782F PUSH1 0x4 DUP3 ADD PUSH2 0x7833 JUMP JUMPDEST PUSH1 0x20 ADD REVERT JUMPDEST PUSH1 0x1 PUSH1 0x1 PUSH1 0xE0 SHL SUB NOT AND EQ SWAP1 JUMP JUMPDEST SWAP1 SWAP2 SWAP3 POP PUSH1 0x20 DUP2 RETURNDATASIZE DUP3 GT PUSH2 0x7B95 JUMPI JUMPDEST DUP2 PUSH2 0x7B6A PUSH1 0x20 SWAP4 DUP4 PUSH2 0x70E6 JUMP JUMPDEST DUP2 ADD SUB SLT PUSH2 0x7B91 JUMPI MLOAD SWAP1 PUSH1 0x1 PUSH1 0x1 PUSH1 0xE0 SHL SUB NOT DUP3 AND DUP3 SUB PUSH2 0x7B8E JUMPI POP SWAP1 CODESIZE DUP1 PUSH2 0x7B0C JUMP JUMPDEST DUP1 REVERT JUMPDEST POP DUP1 REVERT JUMPDEST RETURNDATASIZE SWAP2 POP PUSH2 0x7B5D JUMP JUMPDEST POP POP POP POP POP PUSH1 0x1 SWAP1 JUMP JUMPDEST ISZERO PUSH2 0x7BAE JUMPI JUMP JUMPDEST PUSH1 0x40 MLOAD PUSH3 0x461BCD PUSH1 0xE5 SHL DUP2 MSTORE PUSH1 0x20 PUSH1 0x4 DUP3 ADD MSTORE PUSH1 0xE PUSH1 0x24 DUP3 ADD MSTORE PUSH14 0x115B585A5B081C995C5D5A5C9959 PUSH1 0x92 SHL PUSH1 0x44 DUP3 ADD MSTORE PUSH1 0x64 SWAP1 REVERT JUMPDEST ISZERO PUSH2 0x7BEB JUMPI JUMP JUMPDEST PUSH1 0x40 MLOAD PUSH3 0x461BCD PUSH1 0xE5 SHL DUP2 MSTORE PUSH1 0x20 PUSH1 0x4 DUP3 ADD MSTORE PUSH1 0xE PUSH1 0x24 DUP3 ADD MSTORE PUSH14 0x141A1BDB99481C995C5D5A5C9959 PUSH1 0x92 SHL PUSH1 0x44 DUP3 ADD MSTORE PUSH1 0x64 SWAP1 REVERT JUMPDEST DUP2 DUP2 LT PUSH2 0x7C2C JUMPI POP POP JUMP JUMPDEST PUSH1 0x0 DUP2 SSTORE PUSH1 0x1 ADD PUSH2 0x7C21 JUMP JUMPDEST SWAP2 SWAP1 PUSH1 0x1F DUP2 GT PUSH2 0x7C47 JUMPI POP POP POP JUMP JUMPDEST PUSH2 0x7C73 SWAP3 PUSH1 0x0 MSTORE PUSH1 0x20 PUSH1 0x0 KECCAK256 SWAP1 PUSH1 0x20 PUSH1 0x1F DUP5 ADD PUSH1 0x5 SHR DUP4 ADD SWAP4 LT PUSH2 0x7C75 JUMPI JUMPDEST PUSH1 0x1F ADD PUSH1 0x5 SHR ADD SWAP1 PUSH2 0x7C21 JUMP JUMPDEST JUMP JUMPDEST SWAP1 SWAP2 POP DUP2 SWAP1 PUSH2 0x7C66 JUMP JUMPDEST SWAP1 PUSH1 0x4 DUP2 LT ISZERO PUSH2 0x6E2 JUMPI PUSH1 0xFF DUP1 NOT DUP4 SLOAD AND SWAP2 AND OR SWAP1 SSTORE JUMP JUMPDEST PUSH1 0xC SLOAD PUSH1 0x1 PUSH1 0x40 SHL DUP2 LT ISZERO PUSH2 0x1469 JUMPI PUSH1 0x1 DUP2 ADD DUP1 PUSH1 0xC SSTORE DUP2 LT ISZERO PUSH2 0x74C8 JUMPI PUSH1 0xC PUSH1 0x0 MSTORE PUSH1 0x0 DUP1 MLOAD PUSH1 0x20 PUSH2 0x9856 DUP4 CODECOPY DUP2 MLOAD SWAP2 MSTORE ADD DUP1 SLOAD PUSH1 0x1 PUSH1 0x1 PUSH1 0xA0 SHL SUB NOT AND PUSH1 0x1 PUSH1 0x1 PUSH1 0xA0 SHL SUB SWAP1 SWAP3 AND SWAP2 SWAP1 SWAP2 OR SWAP1 SSTORE JUMP JUMPDEST ISZERO PUSH2 0x7CF0 JUMPI JUMP JUMPDEST PUSH1 0x40 MLOAD PUSH3 0x461BCD PUSH1 0xE5 SHL DUP2 MSTORE PUSH1 0x20 PUSH1 0x4 DUP3 ADD MSTORE PUSH1 0x16 PUSH1 0x24 DUP3 ADD MSTORE PUSH22 0x496E76616C69642073656C6C65722061646472657373 PUSH1 0x50 SHL PUSH1 0x44 DUP3 ADD MSTORE PUSH1 0x64 SWAP1 REVERT JUMPDEST ISZERO PUSH2 0x7D35 JUMPI JUMP JUMPDEST PUSH1 0x40 MLOAD PUSH3 0x461BCD PUSH1 0xE5 SHL DUP2 MSTORE PUSH1 0x20 PUSH1 0x4 DUP3 ADD MSTORE PUSH1 0x15 PUSH1 0x24 DUP3 ADD MSTORE PUSH21 0x14D95B1B195C881B9BDD081C9959DA5CDD195C9959 PUSH1 0x5A SHL PUSH1 0x44 DUP3 ADD MSTORE PUSH1 0x64 SWAP1 REVERT JUMPDEST PUSH1 0x40 MLOAD SWAP1 PUSH2 0x7D7F DUP3 PUSH2 0x705F JUMP JUMPDEST PUSH1 0x0 PUSH1 0xC0 DUP4 PUSH1 0x60 DUP1 DUP3 MSTORE DUP1 PUSH1 0x20 DUP4 ADD MSTORE DUP1 PUSH1 0x40 DUP4 ADD MSTORE DUP1 DUP1 DUP4 ADD MSTORE PUSH1 0x80 DUP3 ADD MSTORE DUP3 PUSH1 0xA0 DUP3 ADD MSTORE ADD MSTORE JUMP JUMPDEST PUSH1 0x1 PUSH1 0x1 PUSH1 0xA0 SHL SUB SWAP1 DUP2 AND SWAP1 PUSH2 0x7DC0 DUP3 ISZERO ISZERO PUSH2 0x7CE9 JUMP JUMPDEST PUSH1 0x0 SLOAD AND DUP2 EQ PUSH2 0x7DDE JUMPI PUSH1 0x0 MSTORE PUSH1 0x13 PUSH1 0x20 MSTORE PUSH1 0xFF PUSH1 0x40 PUSH1 0x0 KECCAK256 SLOAD AND SWAP1 JUMP JUMPDEST POP PUSH1 0x2 SWAP1 JUMP JUMPDEST ISZERO PUSH2 0x7DEB JUMPI JUMP JUMPDEST PUSH1 0x40 MLOAD PUSH3 0x461BCD PUSH1 0xE5 SHL DUP2 MSTORE PUSH1 0x20 PUSH1 0x4 DUP3 ADD MSTORE PUSH1 0xE PUSH1 0x24 DUP3 ADD MSTORE PUSH14 0x139BDD08185D5D1A1BDC9A5E9959 PUSH1 0x92 SHL PUSH1 0x44 DUP3 ADD MSTORE PUSH1 0x64 SWAP1 REVERT JUMPDEST SWAP1 CALLDATALOAD SWAP1 PUSH1 0x1E NOT DUP2 CALLDATASIZE SUB ADD DUP3 SLT ISZERO PUSH2 0x612 JUMPI ADD DUP1 CALLDATALOAD SWAP1 PUSH1 0x1 PUSH1 0x1 PUSH1 0x40 SHL SUB DUP3 GT PUSH2 0x612 JUMPI PUSH1 0x20 ADD SWAP2 DUP2 CALLDATASIZE SUB DUP4 SGT PUSH2 0x612 JUMPI JUMP JUMPDEST ISZERO PUSH2 0x7E5A JUMPI JUMP JUMPDEST PUSH1 0x40 MLOAD PUSH3 0x461BCD PUSH1 0xE5 SHL DUP2 MSTORE PUSH1 0x20 PUSH1 0x4 DUP3 ADD MSTORE PUSH1 0x14 PUSH1 0x24 DUP3 ADD MSTORE PUSH20 0x4E616D652063616E6E6F7420626520656D707479 PUSH1 0x60 SHL PUSH1 0x44 DUP3 ADD MSTORE PUSH1 0x64 SWAP1 REVERT JUMPDEST ISZERO PUSH2 0x7E9D JUMPI JUMP JUMPDEST PUSH1 0x40 MLOAD PUSH3 0x461BCD PUSH1 0xE5 SHL DUP2 MSTORE PUSH1 0x20 PUSH1 0x4 DUP3 ADD MSTORE PUSH1 0x1C PUSH1 0x24 DUP3 ADD MSTORE PUSH28 0x5072696365206D7573742062652067726561746572207468616E203 PUSH1 0x24 SHL PUSH1 0x44 DUP3 ADD MSTORE PUSH1 0x64 SWAP1 REVERT JUMPDEST ISZERO PUSH2 0x7EE8 JUMPI JUMP JUMPDEST PUSH1 0x40 MLOAD PUSH3 0x461BCD PUSH1 0xE5 SHL DUP2 MSTORE PUSH1 0x20 PUSH1 0x4 DUP3 ADD MSTORE PUSH1 0x1C PUSH1 0x24 DUP3 ADD MSTORE PUSH28 0x53746F636B206D7573742062652067726561746572207468616E203 PUSH1 0x24 SHL PUSH1 0x44 DUP3 ADD MSTORE PUSH1 0x64 SWAP1 REVERT JUMPDEST ISZERO PUSH2 0x7F33 JUMPI JUMP JUMPDEST PUSH1 0x40 MLOAD PUSH3 0x461BCD PUSH1 0xE5 SHL DUP2 MSTORE PUSH1 0x20 PUSH1 0x4 DUP3 ADD MSTORE PUSH1 0x1D PUSH1 0x24 DUP3 ADD MSTORE PUSH32 0x576569676874206D7573742062652067726561746572207468616E2030000000 PUSH1 0x44 DUP3 ADD MSTORE PUSH1 0x64 SWAP1 REVERT JUMPDEST ISZERO PUSH2 0x7F7F JUMPI JUMP JUMPDEST PUSH1 0x40 MLOAD PUSH3 0x461BCD PUSH1 0xE5 SHL DUP2 MSTORE PUSH1 0x20 PUSH1 0x4 DUP3 ADD MSTORE PUSH1 0x15 PUSH1 0x24 DUP3 ADD MSTORE PUSH21 0x4D6F64656C2063616E6E6F7420626520656D707479 PUSH1 0x58 SHL PUSH1 0x44 DUP3 ADD MSTORE PUSH1 0x64 SWAP1 REVERT JUMPDEST ISZERO PUSH2 0x7FC3 JUMPI JUMP JUMPDEST PUSH1 0x40 MLOAD PUSH3 0x461BCD PUSH1 0xE5 SHL DUP2 MSTORE PUSH1 0x20 PUSH1 0x4 DUP3 ADD MSTORE PUSH1 0x15 PUSH1 0x24 DUP3 ADD MSTORE PUSH21 0x4272616E642063616E6E6F7420626520656D707479 PUSH1 0x58 SHL PUSH1 0x44 DUP3 ADD MSTORE PUSH1 0x64 SWAP1 REVERT JUMPDEST ISZERO PUSH2 0x8007 JUMPI JUMP JUMPDEST PUSH1 0x40 MLOAD PUSH3 0x461BCD PUSH1 0xE5 SHL DUP2 MSTORE PUSH1 0x20 PUSH1 0x4 DUP3 ADD MSTORE PUSH1 0x1A PUSH1 0x24 DUP3 ADD MSTORE PUSH26 0x534B55206D7573742062652067726561746572207468616E203 PUSH1 0x34 SHL PUSH1 0x44 DUP3 ADD MSTORE PUSH1 0x64 SWAP1 REVERT JUMPDEST SWAP1 CALLDATALOAD SWAP1 PUSH1 0x1E NOT DUP2 CALLDATASIZE SUB ADD DUP3 SLT ISZERO PUSH2 0x612 JUMPI ADD DUP1 CALLDATALOAD SWAP1 PUSH1 0x1 PUSH1 0x1 PUSH1 0x40 SHL SUB DUP3 GT PUSH2 0x612 JUMPI PUSH1 0x20 ADD SWAP2 DUP2 PUSH1 0x5 SHL CALLDATASIZE SUB DUP4 SGT PUSH2 0x612 JUMPI JUMP JUMPDEST ISZERO PUSH2 0x8085 JUMPI JUMP JUMPDEST PUSH1 0x40 MLOAD PUSH3 0x461BCD PUSH1 0xE5 SHL DUP2 MSTORE PUSH1 0x20 PUSH1 0x4 DUP3 ADD MSTORE PUSH1 0x16 PUSH1 0x24 DUP3 ADD MSTORE PUSH22 0x496D616765732063616E6E6F7420626520656D707479 PUSH1 0x50 SHL PUSH1 0x44 DUP3 ADD MSTORE PUSH1 0x64 SWAP1 REVERT JUMPDEST ISZERO PUSH2 0x80CA JUMPI JUMP JUMPDEST PUSH1 0x40 MLOAD PUSH3 0x461BCD PUSH1 0xE5 SHL DUP2 MSTORE PUSH1 0x20 PUSH1 0x4 DUP3 ADD MSTORE PUSH1 0x1C PUSH1 0x24 DUP3 ADD MSTORE PUSH28 0x496D616765732063616E6E6F74206265206D6F7265207468616E2035 PUSH1 0x20 SHL PUSH1 0x44 DUP3 ADD MSTORE PUSH1 0x64 SWAP1 REVERT JUMPDEST PUSH1 0x40 MLOAD SWAP1 PUSH2 0x811B DUP3 PUSH2 0x7027 JUMP JUMPDEST DUP2 PUSH2 0x240 PUSH1 0x0 SWAP2 DUP3 DUP2 MSTORE DUP3 PUSH1 0x20 DUP3 ADD MSTORE PUSH1 0x60 SWAP3 DUP4 PUSH1 0x40 DUP4 ADD MSTORE DUP4 DUP1 DUP4 ADD MSTORE DUP1 PUSH1 0x80 DUP4 ADD MSTORE DUP1 PUSH1 0xA0 DUP4 ADD MSTORE DUP4 PUSH1 0xC0 DUP4 ADD MSTORE DUP4 PUSH1 0xE0 DUP4 ADD MSTORE DUP4 PUSH2 0x100 DUP4 ADD MSTORE DUP4 PUSH2 0x120 DUP4 ADD MSTORE DUP4 PUSH2 0x140 DUP4 ADD MSTORE DUP1 PUSH2 0x160 DUP4 ADD MSTORE DUP4 PUSH2 0x180 DUP4 ADD MSTORE DUP4 PUSH2 0x1A0 DUP4 ADD MSTORE DUP1 PUSH2 0x1C0 DUP4 ADD MSTORE DUP1 PUSH2 0x1E0 DUP4 ADD MSTORE DUP1 PUSH2 0x200 DUP4 ADD MSTORE PUSH2 0x220 DUP3 ADD MSTORE ADD MSTORE JUMP JUMPDEST PUSH1 0x1 PUSH1 0x1 PUSH1 0x40 SHL SUB DUP2 GT PUSH2 0x1469 JUMPI PUSH1 0x5 SHL PUSH1 0x20 ADD SWAP1 JUMP JUMPDEST SWAP3 SWAP2 SWAP1 SWAP3 PUSH2 0x81BE DUP5 PUSH2 0x819A JUMP JUMPDEST SWAP2 PUSH2 0x81CC PUSH1 0x40 MLOAD SWAP4 DUP5 PUSH2 0x70E6 JUMP JUMPDEST DUP3 SWAP5 DUP1 DUP5 MSTORE PUSH1 0x20 DUP1 SWAP5 ADD SWAP1 PUSH1 0x5 SHL DUP4 ADD SWAP3 DUP3 DUP5 GT PUSH2 0x612 JUMPI DUP1 SWAP2 JUMPDEST DUP5 DUP4 LT PUSH2 0x81F6 JUMPI POP POP POP POP POP POP JUMP JUMPDEST DUP3 CALLDATALOAD PUSH1 0x1 PUSH1 0x1 PUSH1 0x40 SHL SUB DUP2 GT PUSH2 0x612 JUMPI DUP7 SWAP2 PUSH2 0x8215 DUP7 DUP5 SWAP4 DUP7 ADD PUSH2 0x715B JUMP JUMPDEST DUP2 MSTORE ADD SWAP3 ADD SWAP2 PUSH2 0x81E7 JUMP JUMPDEST PUSH2 0x822A DUP2 SLOAD PUSH2 0x71EA JUMP JUMPDEST SWAP1 DUP2 PUSH2 0x8234 JUMPI POP POP JUMP JUMPDEST DUP2 PUSH1 0x1F PUSH1 0x0 SWAP4 GT PUSH1 0x1 EQ PUSH2 0x8246 JUMPI POP SSTORE JUMP JUMPDEST SWAP1 DUP1 DUP4 SWAP2 DUP3 MSTORE PUSH2 0x8265 PUSH1 0x1F PUSH1 0x20 DUP5 KECCAK256 SWAP5 ADD PUSH1 0x5 SHR DUP5 ADD PUSH1 0x1 DUP6 ADD PUSH2 0x7C21 JUMP JUMPDEST SSTORE SSTORE JUMP JUMPDEST SWAP1 PUSH1 0x1 PUSH1 0x40 SHL DUP2 GT PUSH2 0x1469 JUMPI DUP2 SLOAD SWAP2 DUP2 DUP2 SSTORE DUP3 DUP3 LT PUSH2 0x8287 JUMPI POP POP POP JUMP JUMPDEST PUSH1 0x0 MSTORE PUSH1 0x20 PUSH1 0x0 KECCAK256 SWAP2 DUP3 ADD SWAP2 ADD JUMPDEST DUP2 DUP2 LT PUSH2 0x82A0 JUMPI POP POP JUMP JUMPDEST DUP1 PUSH2 0x82AC PUSH1 0x1 SWAP3 PUSH2 0x8220 JUMP JUMPDEST ADD PUSH2 0x8295 JUMP JUMPDEST DUP2 MLOAD DUP2 SSTORE PUSH1 0x20 DUP1 DUP4 ADD MLOAD PUSH1 0x1 DUP1 DUP5 ADD DUP1 SLOAD PUSH1 0x1 PUSH1 0x1 PUSH1 0xA0 SHL SUB NOT AND PUSH1 0x1 PUSH1 0x1 PUSH1 0xA0 SHL SUB SWAP4 SWAP1 SWAP4 AND SWAP3 SWAP1 SWAP3 OR SWAP1 SWAP2 SSTORE PUSH1 0x40 DUP5 ADD MLOAD PUSH1 0x2 DUP5 ADD SSTORE PUSH1 0x60 DUP5 ADD MLOAD DUP1 MLOAD SWAP4 SWAP5 SWAP1 SWAP4 SWAP1 SWAP3 PUSH1 0x3 DUP7 ADD SWAP3 SWAP1 PUSH1 0x1 PUSH1 0x1 PUSH1 0x40 SHL SUB DUP4 GT PUSH2 0x1469 JUMPI PUSH2 0x831F DUP4 PUSH2 0x8319 DUP7 SLOAD PUSH2 0x71EA JUMP JUMPDEST DUP7 PUSH2 0x7C38 JUMP JUMPDEST DUP1 PUSH1 0x1F DUP5 GT PUSH1 0x1 EQ PUSH2 0x8377 JUMPI POP SWAP2 DUP1 DUP1 SWAP3 PUSH1 0xA0 SWAP7 SWAP6 SWAP5 PUSH1 0x5 SWAP9 PUSH1 0x0 SWAP5 PUSH2 0x836C JUMPI JUMPDEST POP POP SHL SWAP2 PUSH1 0x0 NOT SWAP1 PUSH1 0x3 SHL SHR NOT AND OR SWAP1 SSTORE JUMPDEST PUSH2 0x8365 PUSH1 0x80 DUP3 ADD MLOAD ISZERO ISZERO PUSH1 0x4 DUP7 ADD PUSH2 0x7A4A JUMP JUMPDEST ADD MLOAD SWAP2 ADD SSTORE JUMP JUMPDEST ADD MLOAD SWAP3 POP CODESIZE DUP1 PUSH2 0x8340 JUMP JUMPDEST SWAP2 SWAP4 SWAP5 SWAP6 PUSH1 0x1F NOT DUP5 AND DUP7 PUSH1 0x0 MSTORE DUP4 PUSH1 0x0 KECCAK256 SWAP4 PUSH1 0x0 SWAP1 JUMPDEST DUP3 DUP3 LT PUSH2 0x83CF JUMPI POP POP SWAP2 PUSH1 0x5 SWAP8 SWAP6 SWAP4 SWAP2 DUP6 PUSH1 0xA0 SWAP9 SWAP7 SWAP5 LT PUSH2 0x83B6 JUMPI JUMPDEST POP POP POP DUP2 SHL ADD SWAP1 SSTORE PUSH2 0x8352 JUMP JUMPDEST ADD MLOAD PUSH1 0x0 NOT PUSH1 0xF8 DUP5 PUSH1 0x3 SHL AND SHR NOT AND SWAP1 SSTORE CODESIZE DUP1 DUP1 PUSH2 0x83A9 JUMP JUMPDEST DUP1 DUP9 DUP7 SWAP8 DUP3 SWAP5 SWAP8 DUP8 ADD MLOAD DUP2 SSTORE ADD SWAP7 ADD SWAP5 ADD SWAP1 PUSH2 0x838D JUMP JUMPDEST DUP1 SLOAD PUSH1 0x1 PUSH1 0x40 SHL DUP2 LT ISZERO PUSH2 0x1469 JUMPI PUSH2 0x8403 SWAP2 PUSH1 0x1 DUP3 ADD DUP2 SSTORE PUSH2 0x74DE JUMP JUMPDEST DUP2 SWAP3 SWAP2 SLOAD SWAP1 PUSH1 0x3 SHL SWAP2 DUP3 SHL SWAP2 PUSH1 0x0 NOT SWAP1 SHL NOT AND OR SWAP1 SSTORE JUMP JUMPDEST ISZERO PUSH2 0x8422 JUMPI JUMP JUMPDEST PUSH1 0x40 MLOAD PUSH3 0x461BCD PUSH1 0xE5 SHL DUP2 MSTORE PUSH1 0x20 PUSH1 0x4 DUP3 ADD MSTORE PUSH1 0x1C PUSH1 0x24 DUP3 ADD MSTORE PUSH28 0x115490CDCC8C4E881D1BDAD95B88185B1C9958591E481B5A5B9D1959 PUSH1 0x22 SHL PUSH1 0x44 DUP3 ADD MSTORE PUSH1 0x64 SWAP1 REVERT JUMPDEST ISZERO PUSH2 0x846D JUMPI JUMP JUMPDEST PUSH1 0x40 MLOAD PUSH3 0x461BCD PUSH1 0xE5 SHL DUP2 MSTORE PUSH1 0x20 PUSH1 0x4 DUP3 ADD MSTORE PUSH1 0x16 PUSH1 0x24 DUP3 ADD MSTORE PUSH22 0x141C9BD91D58DD08191BD95CC81B9BDD08195E1A5CDD PUSH1 0x52 SHL PUSH1 0x44 DUP3 ADD MSTORE PUSH1 0x64 SWAP1 REVERT JUMPDEST ISZERO PUSH2 0x84B2 JUMPI JUMP JUMPDEST PUSH1 0x40 MLOAD PUSH3 0x461BCD PUSH1 0xE5 SHL DUP2 MSTORE PUSH1 0x20 PUSH1 0x4 DUP3 ADD MSTORE PUSH1 0x12 PUSH1 0x24 DUP3 ADD MSTORE PUSH18 0x141C9BD91D58DD081A5CC819195B195D1959 PUSH1 0x72 SHL PUSH1 0x44 DUP3 ADD MSTORE PUSH1 0x64 SWAP1 REVERT JUMPDEST SWAP1 DUP1 DUP3 EQ PUSH2 0x85C0 JUMPI PUSH2 0x84FE DUP2 SLOAD PUSH2 0x71EA JUMP JUMPDEST SWAP1 PUSH1 0x1 PUSH1 0x1 PUSH1 0x40 SHL SUB DUP3 GT PUSH2 0x1469 JUMPI DUP2 SWAP1 PUSH2 0x851D DUP3 PUSH2 0x8319 DUP7 SLOAD PUSH2 0x71EA JUMP JUMPDEST PUSH1 0x0 SWAP1 PUSH1 0x1F DUP4 GT PUSH1 0x1 EQ PUSH2 0x8554 JUMPI PUSH1 0x0 SWAP3 PUSH2 0x8549 JUMPI JUMPDEST POP POP DUP2 PUSH1 0x1 SHL SWAP2 PUSH1 0x0 NOT SWAP1 PUSH1 0x3 SHL SHR NOT AND OR SWAP1 SSTORE JUMP JUMPDEST ADD SLOAD SWAP1 POP CODESIZE DUP1 PUSH2 0x8533 JUMP JUMPDEST DUP2 MSTORE PUSH1 0x20 DUP1 DUP3 KECCAK256 DUP6 DUP4 MSTORE DUP2 DUP4 KECCAK256 SWAP4 POP SWAP1 PUSH1 0x1F NOT DUP6 AND SWAP1 DUP4 SWAP1 JUMPDEST DUP3 DUP3 LT PUSH2 0x85A7 JUMPI POP POP SWAP1 DUP5 PUSH1 0x1 SWAP6 SWAP5 SWAP4 SWAP3 LT PUSH2 0x858E JUMPI JUMPDEST POP POP POP DUP2 SHL ADD SWAP1 SSTORE JUMP JUMPDEST ADD SLOAD PUSH1 0x0 NOT PUSH1 0xF8 DUP5 PUSH1 0x3 SHL AND SHR NOT AND SWAP1 SSTORE CODESIZE DUP1 DUP1 PUSH2 0x8584 JUMP JUMPDEST DUP5 SWAP6 DUP2 SWAP3 SWAP6 DUP6 ADD SLOAD DUP2 SSTORE PUSH1 0x1 DUP1 SWAP2 ADD SWAP7 ADD SWAP5 ADD SWAP1 PUSH2 0x856D JUMP JUMPDEST POP POP JUMP JUMPDEST ISZERO PUSH2 0x85CB JUMPI JUMP JUMPDEST PUSH1 0x40 MLOAD PUSH3 0x461BCD PUSH1 0xE5 SHL DUP2 MSTORE PUSH1 0x20 PUSH1 0x4 DUP3 ADD MSTORE PUSH1 0x25 PUSH1 0x24 DUP3 ADD MSTORE PUSH32 0x4F6E6C792076657269666965642073656C6C6572206F72206F776E657220616C PUSH1 0x44 DUP3 ADD MSTORE PUSH5 0x1B1BDDD959 PUSH1 0xDA SHL PUSH1 0x64 DUP3 ADD MSTORE PUSH1 0x84 SWAP1 REVERT JUMPDEST PUSH1 0x0 DUP1 SLOAD SWAP1 SWAP3 SWAP2 SWAP1 PUSH1 0x1 PUSH1 0x1 PUSH1 0xA0 SHL SUB SWAP1 DUP2 AND CALLER EQ PUSH2 0x8700 JUMPI CALLER DUP5 MSTORE PUSH1 0x19 PUSH1 0x20 MSTORE PUSH1 0x40 DUP5 KECCAK256 SLOAD DUP2 AND SWAP1 DUP2 ISZERO PUSH2 0x86AA JUMPI DUP2 DUP6 MSTORE PUSH1 0x13 PUSH1 0x20 MSTORE PUSH1 0xFF PUSH1 0x40 DUP7 KECCAK256 SLOAD AND PUSH1 0x4 DUP2 LT ISZERO PUSH2 0x8696 JUMPI SWAP2 PUSH2 0x7C73 SWAP5 SWAP6 SWAP2 PUSH1 0x2 PUSH2 0x8684 SWAP5 EQ SWAP3 DUP4 ISZERO PUSH2 0x8689 JUMPI JUMPDEST POP POP POP PUSH2 0x85C4 JUMP JUMPDEST PUSH2 0x8708 JUMP JUMPDEST SLOAD AND EQ SWAP1 POP CODESIZE DUP1 DUP1 PUSH2 0x867C JUMP JUMPDEST PUSH4 0x4E487B71 PUSH1 0xE0 SHL DUP7 MSTORE PUSH1 0x21 PUSH1 0x4 MSTORE PUSH1 0x24 DUP7 REVERT JUMPDEST SWAP1 POP PUSH1 0x13 PUSH1 0x20 MSTORE PUSH1 0xFF PUSH1 0x40 DUP6 KECCAK256 SLOAD AND PUSH1 0x4 DUP2 LT ISZERO PUSH2 0x86EC JUMPI SWAP4 PUSH2 0x8684 SWAP2 PUSH1 0x2 PUSH2 0x7C73 SWAP6 SWAP7 EQ SWAP2 DUP3 ISZERO PUSH2 0x86DE JUMPI JUMPDEST POP POP PUSH2 0x85C4 JUMP JUMPDEST SWAP1 SWAP2 POP SLOAD AND CALLER EQ CODESIZE DUP1 PUSH2 0x86D7 JUMP JUMPDEST PUSH4 0x4E487B71 PUSH1 0xE0 SHL DUP6 MSTORE PUSH1 0x21 PUSH1 0x4 MSTORE PUSH1 0x24 DUP6 REVERT JUMPDEST POP PUSH2 0x7C73 SWAP2 SWAP3 POP JUMPDEST SWAP1 PUSH1 0x0 SWAP2 DUP1 DUP4 MSTORE PUSH1 0x20 SWAP3 PUSH1 0x17 DUP5 MSTORE PUSH1 0x40 SWAP2 PUSH2 0x8728 PUSH1 0xFF DUP5 DUP5 KECCAK256 SLOAD AND PUSH2 0x8466 JUMP JUMPDEST DUP1 DUP3 MSTORE PUSH1 0x10 DUP6 MSTORE DUP3 DUP3 KECCAK256 PUSH1 0x1 ADD SLOAD CALLER PUSH1 0x1 PUSH1 0x1 PUSH1 0xA0 SHL SUB SWAP2 DUP3 AND EQ SWAP1 DUP2 ISZERO PUSH2 0x881B JUMPI JUMPDEST POP ISZERO PUSH2 0x87C7 JUMPI DUP1 DUP3 MSTORE PUSH1 0x10 DUP6 MSTORE PUSH1 0xFF PUSH1 0xF DUP5 DUP5 KECCAK256 ADD SLOAD PUSH1 0x10 SHR AND PUSH2 0x8786 JUMPI PUSH1 0xF SWAP4 SWAP5 PUSH1 0x10 SWAP2 DUP4 MSTORE MSTORE KECCAK256 ADD PUSH3 0x10000 PUSH3 0xFF0000 NOT DUP3 SLOAD AND OR SWAP1 SSTORE JUMP JUMPDEST DUP3 MLOAD PUSH3 0x461BCD PUSH1 0xE5 SHL DUP2 MSTORE PUSH1 0x4 DUP2 ADD DUP7 SWAP1 MSTORE PUSH1 0x1A PUSH1 0x24 DUP3 ADD MSTORE PUSH26 0x141C9BD91D58DD081A5CC8185B1C9958591E4819195B195D1959 PUSH1 0x32 SHL PUSH1 0x44 DUP3 ADD MSTORE PUSH1 0x64 SWAP1 REVERT JUMPDEST DUP3 MLOAD PUSH3 0x461BCD PUSH1 0xE5 SHL DUP2 MSTORE PUSH1 0x4 DUP2 ADD DUP7 SWAP1 MSTORE PUSH1 0x27 PUSH1 0x24 DUP3 ADD MSTORE PUSH32 0x4F6E6C792070726F647563742073656C6C6572206F72206F776E65722063616E PUSH1 0x44 DUP3 ADD MSTORE PUSH7 0x2064656C657465 PUSH1 0xC8 SHL PUSH1 0x64 DUP3 ADD MSTORE PUSH1 0x84 SWAP1 REVERT JUMPDEST DUP4 SLOAD AND CALLER EQ SWAP1 POP CODESIZE PUSH2 0x874B JUMP JUMPDEST SWAP1 DUP2 SLOAD PUSH2 0x8834 DUP2 PUSH2 0x819A JUMP JUMPDEST SWAP3 PUSH1 0x40 SWAP4 PUSH2 0x8844 DUP6 MLOAD SWAP2 DUP3 PUSH2 0x70E6 JUMP JUMPDEST DUP3 DUP2 MSTORE DUP1 SWAP5 PUSH1 0x20 DUP1 SWAP3 ADD SWAP3 PUSH1 0x0 MSTORE DUP2 PUSH1 0x0 KECCAK256 SWAP1 PUSH1 0x0 SWAP4 JUMPDEST DUP6 DUP6 LT PUSH2 0x886A JUMPI POP POP POP POP POP POP JUMP JUMPDEST PUSH1 0x1 DUP5 DUP2 SWAP3 DUP5 MLOAD PUSH2 0x887F DUP2 PUSH2 0x3FB DUP2 DUP11 PUSH2 0x7224 JUMP JUMPDEST DUP2 MSTORE ADD SWAP4 ADD SWAP5 ADD SWAP4 SWAP2 PUSH2 0x885B JUMP JUMPDEST SWAP1 PUSH1 0x40 MLOAD PUSH2 0x889A DUP2 PUSH2 0x70B0 JUMP JUMPDEST PUSH1 0xA0 PUSH1 0x5 DUP3 SWAP5 DUP1 SLOAD DUP5 MSTORE PUSH1 0x1 DUP1 DUP5 SHL SUB PUSH1 0x1 DUP3 ADD SLOAD AND PUSH1 0x20 DUP6 ADD MSTORE PUSH1 0x2 DUP2 ADD SLOAD PUSH1 0x40 DUP6 ADD MSTORE PUSH1 0x40 MLOAD PUSH2 0x88D3 DUP2 PUSH2 0x3FB DUP2 PUSH1 0x3 DUP7 ADD PUSH2 0x7224 JUMP JUMPDEST PUSH1 0x60 DUP6 ADD MSTORE PUSH1 0xFF PUSH1 0x4 DUP3 ADD SLOAD AND ISZERO ISZERO PUSH1 0x80 DUP6 ADD MSTORE ADD SLOAD SWAP2 ADD MSTORE JUMP JUMPDEST PUSH1 0x0 NOT DUP2 EQ PUSH2 0x1453 JUMPI PUSH1 0x1 ADD SWAP1 JUMP JUMPDEST SWAP1 PUSH2 0x8907 DUP3 PUSH2 0x819A JUMP JUMPDEST PUSH2 0x8914 PUSH1 0x40 MLOAD SWAP2 DUP3 PUSH2 0x70E6 JUMP JUMPDEST DUP3 DUP2 MSTORE DUP1 SWAP3 PUSH2 0x8925 PUSH1 0x1F NOT SWAP2 PUSH2 0x819A JUMP JUMPDEST ADD SWAP1 PUSH1 0x0 JUMPDEST DUP3 DUP2 LT PUSH2 0x8936 JUMPI POP POP POP JUMP JUMPDEST PUSH1 0x20 SWAP1 PUSH2 0x8941 PUSH2 0x810E JUMP JUMPDEST DUP3 DUP3 DUP6 ADD ADD MSTORE ADD PUSH2 0x892A JUMP JUMPDEST DUP1 MLOAD DUP3 LT ISZERO PUSH2 0x74C8 JUMPI PUSH1 0x20 SWAP2 PUSH1 0x5 SHL ADD ADD SWAP1 JUMP JUMPDEST ISZERO PUSH2 0x8968 JUMPI JUMP JUMPDEST PUSH1 0x40 MLOAD PUSH3 0x461BCD PUSH1 0xE5 SHL DUP2 MSTORE PUSH1 0x20 PUSH1 0x4 DUP3 ADD MSTORE PUSH1 0x1D PUSH1 0x24 DUP3 ADD MSTORE PUSH32 0x43617465676F7279206E616D652063616E6E6F7420626520656D707479000000 PUSH1 0x44 DUP3 ADD MSTORE PUSH1 0x64 SWAP1 REVERT JUMPDEST ISZERO PUSH2 0x89B4 JUMPI JUMP JUMPDEST PUSH1 0x64 PUSH1 0x40 MLOAD PUSH3 0x461BCD PUSH1 0xE5 SHL DUP2 MSTORE PUSH1 0x20 PUSH1 0x4 DUP3 ADD MSTORE PUSH1 0x20 PUSH1 0x24 DUP3 ADD MSTORE PUSH32 0x53756263617465676F7279206E616D652063616E6E6F7420626520656D707479 PUSH1 0x44 DUP3 ADD MSTORE REVERT JUMPDEST SWAP1 DUP3 LT ISZERO PUSH2 0x74C8 JUMPI PUSH2 0x8A0F SWAP2 PUSH1 0x5 SHL DUP2 ADD SWAP1 PUSH2 0x7E21 JUMP JUMPDEST SWAP1 SWAP2 JUMP JUMPDEST ISZERO PUSH2 0x8A1A JUMPI JUMP JUMPDEST PUSH1 0x40 MLOAD PUSH3 0x461BCD PUSH1 0xE5 SHL DUP2 MSTORE PUSH1 0x20 PUSH1 0x4 DUP3 ADD MSTORE PUSH1 0x17 PUSH1 0x24 DUP3 ADD MSTORE PUSH23 0x10D85D1959DBDC9E48191BD95CC81B9BDD08195E1A5CDD PUSH1 0x4A SHL PUSH1 0x44 DUP3 ADD MSTORE PUSH1 0x64 SWAP1 REVERT JUMPDEST SWAP1 PUSH2 0x8A71 PUSH1 0x20 SWAP2 SWAP5 SWAP4 SWAP5 PUSH1 0x40 DUP5 MSTORE PUSH1 0x40 DUP5 ADD SWAP1 PUSH2 0x6D0C JUMP JUMPDEST SWAP4 ISZERO ISZERO SWAP2 ADD MSTORE JUMP JUMPDEST ISZERO PUSH2 0x8A80 JUMPI JUMP JUMPDEST PUSH1 0x40 MLOAD PUSH3 0x461BCD PUSH1 0xE5 SHL DUP2 MSTORE PUSH1 0x20 PUSH1 0x4 DUP3 ADD MSTORE PUSH1 0x1A PUSH1 0x24 DUP3 ADD MSTORE PUSH26 0x14DD5898D85D1959DBDC9E48191BD95CC81B9BDD08195E1A5CDD PUSH1 0x32 SHL PUSH1 0x44 DUP3 ADD MSTORE PUSH1 0x64 SWAP1 REVERT JUMPDEST SWAP1 PUSH1 0x40 MLOAD SWAP2 DUP3 DUP2 SLOAD SWAP2 DUP3 DUP3 MSTORE PUSH1 0x20 SWAP3 DUP4 DUP4 ADD SWAP2 PUSH1 0x0 MSTORE DUP4 PUSH1 0x0 KECCAK256 SWAP4 PUSH1 0x0 SWAP1 JUMPDEST DUP3 DUP3 LT PUSH2 0x8AF7 JUMPI POP POP POP PUSH2 0x7C73 SWAP3 POP SUB DUP4 PUSH2 0x70E6 JUMP JUMPDEST DUP6 SLOAD DUP5 MSTORE PUSH1 0x1 SWAP6 DUP7 ADD SWAP6 DUP9 SWAP6 POP SWAP4 DUP2 ADD SWAP4 SWAP1 SWAP2 ADD SWAP1 PUSH2 0x8AE1 JUMP JUMPDEST PUSH1 0x0 JUMPDEST DUP3 DUP2 LT PUSH2 0x8B20 JUMPI POP POP POP JUMP JUMPDEST PUSH1 0x60 DUP3 DUP3 ADD MSTORE PUSH1 0x20 ADD PUSH2 0x8B14 JUMP JUMPDEST SWAP2 SWAP1 DUP3 SUB SWAP2 DUP3 GT PUSH2 0x1453 JUMPI JUMP JUMPDEST PUSH1 0x40 MLOAD SWAP1 PUSH2 0x8B48 DUP3 PUSH2 0x70B0 JUMP JUMPDEST PUSH1 0x0 PUSH1 0xA0 DUP4 DUP3 DUP2 MSTORE DUP3 PUSH1 0x20 DUP3 ADD MSTORE DUP3 PUSH1 0x40 DUP3 ADD MSTORE PUSH1 0x60 DUP1 DUP3 ADD MSTORE DUP3 PUSH1 0x80 DUP3 ADD MSTORE ADD MSTORE JUMP JUMPDEST DUP1 SLOAD DUP3 LT ISZERO PUSH2 0x74C8 JUMPI PUSH1 0x0 MSTORE PUSH1 0x6 PUSH1 0x20 PUSH1 0x0 KECCAK256 SWAP2 MUL ADD SWAP1 PUSH1 0x0 SWAP1 JUMP JUMPDEST DUP1 SLOAD PUSH1 0x1 PUSH1 0x40 SHL DUP2 LT ISZERO PUSH2 0x1469 JUMPI PUSH2 0x8BA7 SWAP1 PUSH1 0x1 SWAP3 DUP4 DUP3 ADD DUP2 SSTORE PUSH2 0x753A JUMP JUMPDEST SWAP3 SWAP1 SWAP3 PUSH2 0x924E JUMPI DUP1 MLOAD DUP4 SSTORE PUSH1 0x20 DUP1 DUP3 ADD MLOAD DUP4 DUP6 ADD SSTORE PUSH1 0x40 DUP3 ADD MLOAD PUSH1 0x2 DUP6 ADD SSTORE PUSH1 0x60 DUP3 ADD MLOAD PUSH1 0x3 DUP1 DUP7 ADD SWAP2 SWAP1 SWAP2 SSTORE PUSH1 0x80 DUP4 ADD MLOAD PUSH1 0x4 DUP1 DUP8 ADD DUP1 SLOAD PUSH1 0x1 PUSH1 0x1 PUSH1 0xA0 SHL SUB NOT AND PUSH1 0x1 PUSH1 0x1 PUSH1 0xA0 SHL SUB SWAP4 DUP5 AND OR SWAP1 SSTORE PUSH1 0xA0 DUP1 DUP7 ADD MLOAD PUSH1 0x5 DUP10 ADD DUP1 SLOAD PUSH1 0xC0 DUP10 ADD MLOAD PUSH1 0x1 PUSH1 0x1 PUSH1 0xA8 SHL SUB NOT SWAP1 SWAP2 AND SWAP3 SWAP1 SWAP6 AND SWAP2 SWAP1 SWAP2 OR SWAP4 ISZERO ISZERO SWAP1 SWAP2 SHL PUSH1 0xFF PUSH1 0xA0 SHL AND SWAP3 SWAP1 SWAP3 OR SWAP1 SWAP2 SSTORE PUSH1 0xE0 SWAP1 SWAP4 ADD MLOAD DUP1 MLOAD DUP1 MLOAD SWAP2 SWAP7 PUSH1 0x1 PUSH1 0x1 PUSH1 0x40 SHL SUB SWAP6 SWAP4 SWAP5 SWAP2 SWAP4 SWAP3 PUSH1 0x6 DUP3 ADD SWAP1 DUP8 DUP2 GT PUSH2 0x9239 JUMPI PUSH2 0x8C64 DUP2 PUSH2 0x214B DUP5 SLOAD PUSH2 0x71EA JUMP JUMPDEST DUP1 DUP5 PUSH1 0x1F SWAP8 DUP9 DUP4 GT PUSH1 0x1 EQ PUSH2 0x91D7 JUMPI PUSH1 0x0 SWAP3 PUSH2 0x91CC JUMPI JUMPDEST POP POP PUSH1 0x0 NOT DUP3 DUP10 SHL SHR NOT AND SWAP1 DUP10 SHL OR SWAP1 SSTORE JUMPDEST PUSH1 0x7 DUP2 ADD DUP3 DUP10 ADD MLOAD DUP1 MLOAD SWAP1 DUP9 DUP3 GT PUSH2 0x8F96 JUMPI DUP2 SWAP1 PUSH2 0x8CAF DUP3 PUSH2 0x8319 DUP7 SLOAD PUSH2 0x71EA JUMP JUMPDEST DUP6 SWAP1 DUP9 DUP4 GT PUSH1 0x1 EQ PUSH2 0x916A JUMPI PUSH1 0x0 SWAP3 PUSH2 0x915F JUMPI JUMPDEST POP POP PUSH1 0x0 NOT DUP3 DUP10 SHL SHR NOT AND SWAP1 DUP10 SHL OR SWAP1 SSTORE JUMPDEST PUSH1 0x8 DUP2 ADD PUSH1 0x40 DUP10 ADD MLOAD DUP1 MLOAD SWAP1 DUP9 DUP3 GT PUSH2 0x8F96 JUMPI DUP2 SWAP1 PUSH2 0x8CF8 DUP3 PUSH2 0x8319 DUP7 SLOAD PUSH2 0x71EA JUMP JUMPDEST DUP6 SWAP1 DUP9 DUP4 GT PUSH1 0x1 EQ PUSH2 0x90FD JUMPI PUSH1 0x0 SWAP3 PUSH2 0x90F2 JUMPI JUMPDEST POP POP PUSH1 0x0 NOT DUP3 DUP10 SHL SHR NOT AND SWAP1 DUP10 SHL OR SWAP1 SSTORE JUMPDEST PUSH1 0x9 DUP2 ADD PUSH1 0x60 DUP10 ADD MLOAD DUP1 MLOAD SWAP1 DUP9 DUP3 GT PUSH2 0x8F96 JUMPI DUP2 SWAP1 PUSH2 0x8D41 DUP3 PUSH2 0x8319 DUP7 SLOAD PUSH2 0x71EA JUMP JUMPDEST DUP6 SWAP1 DUP9 DUP4 GT PUSH1 0x1 EQ PUSH2 0x9090 JUMPI PUSH1 0x0 SWAP3 PUSH2 0x9085 JUMPI JUMPDEST POP POP PUSH1 0x0 NOT DUP3 DUP10 SHL SHR NOT AND SWAP1 DUP10 SHL OR SWAP1 SSTORE JUMPDEST PUSH1 0xA DUP2 ADD PUSH1 0x80 DUP10 ADD MLOAD DUP1 MLOAD SWAP1 DUP9 DUP3 GT PUSH2 0x8F96 JUMPI DUP2 SWAP1 PUSH2 0x8D8A DUP3 PUSH2 0x8319 DUP7 SLOAD PUSH2 0x71EA JUMP JUMPDEST DUP6 SWAP1 DUP9 DUP4 GT PUSH1 0x1 EQ PUSH2 0x9023 JUMPI PUSH1 0x0 SWAP3 PUSH2 0x9018 JUMPI JUMPDEST POP POP PUSH1 0x0 NOT DUP3 DUP10 SHL SHR NOT AND SWAP1 DUP10 SHL OR SWAP1 SSTORE JUMPDEST PUSH1 0xB DUP2 ADD PUSH1 0xA0 DUP10 ADD MLOAD DUP1 MLOAD SWAP1 DUP9 DUP3 GT PUSH2 0x8F96 JUMPI DUP2 SWAP1 PUSH2 0x8DD3 DUP3 PUSH2 0x8319 DUP7 SLOAD PUSH2 0x71EA JUMP JUMPDEST DUP6 SWAP1 DUP9 DUP4 GT PUSH1 0x1 EQ PUSH2 0x8FB6 JUMPI PUSH1 0x0 SWAP3 PUSH2 0x8FAB JUMPI JUMPDEST POP POP PUSH1 0x0 NOT DUP3 DUP10 SHL SHR NOT AND SWAP1 DUP10 SHL OR SWAP1 SSTORE JUMPDEST PUSH1 0xC DUP2 ADD PUSH1 0xC0 DUP10 ADD MLOAD DUP1 MLOAD SWAP1 DUP9 DUP3 GT PUSH2 0x8F96 JUMPI PUSH2 0x8E1A DUP3 PUSH2 0x1BF8 DUP6 SLOAD PUSH2 0x71EA JUMP JUMPDEST DUP5 SWAP1 DUP8 DUP4 GT PUSH1 0x1 EQ PUSH2 0x8F29 JUMPI SWAP2 DUP1 PUSH1 0xD SWAP5 SWAP3 PUSH1 0xE0 SWAP7 SWAP5 PUSH1 0x0 SWAP3 PUSH2 0x8F1E JUMPI JUMPDEST POP POP PUSH1 0x0 NOT DUP3 DUP12 SHL SHR NOT AND SWAP1 DUP12 SHL OR SWAP1 SSTORE JUMPDEST ADD SWAP8 ADD MLOAD SWAP2 DUP3 MLOAD SWAP6 DUP7 GT PUSH2 0x8F09 JUMPI POP PUSH2 0x8E6D DUP6 PUSH2 0x8E67 DUP10 SLOAD PUSH2 0x71EA JUMP JUMPDEST DUP10 PUSH2 0x7C38 JUMP JUMPDEST DUP1 SWAP3 DUP6 GT PUSH1 0x1 EQ PUSH2 0x8EA3 JUMPI POP SWAP4 DUP4 SWAP5 SWAP2 DUP5 SWAP3 PUSH1 0x0 SWAP6 PUSH2 0x8E98 JUMPI JUMPDEST POP POP SHL SWAP3 PUSH1 0x0 NOT SWAP2 SHL SHR NOT AND OR SWAP1 SSTORE JUMP JUMPDEST ADD MLOAD SWAP4 POP CODESIZE DUP1 PUSH2 0x8E87 JUMP JUMPDEST SWAP3 SWAP2 SWAP1 DUP5 PUSH1 0x1F NOT DUP2 AND DUP9 PUSH1 0x0 MSTORE DUP6 PUSH1 0x0 KECCAK256 SWAP6 PUSH1 0x0 SWAP1 JUMPDEST DUP10 DUP4 DUP4 LT PUSH2 0x8EEF JUMPI POP POP POP LT PUSH2 0x8ED5 JUMPI JUMPDEST POP POP POP POP DUP2 SHL ADD SWAP1 SSTORE JUMP JUMPDEST ADD MLOAD SWAP1 PUSH1 0xF8 DUP5 PUSH1 0x0 NOT SWAP3 SHL AND SHR NOT AND SWAP1 SSTORE CODESIZE DUP1 DUP1 DUP1 PUSH2 0x8ECA JUMP JUMPDEST DUP6 DUP8 ADD MLOAD DUP10 SSTORE SWAP1 SWAP8 ADD SWAP7 SWAP5 DUP6 ADD SWAP5 DUP9 SWAP4 POP SWAP1 DUP2 ADD SWAP1 PUSH2 0x8EB9 JUMP JUMPDEST PUSH1 0x41 SWAP1 PUSH4 0x4E487B71 PUSH1 0xE0 SHL PUSH1 0x0 MSTORE MSTORE PUSH1 0x24 PUSH1 0x0 REVERT JUMPDEST ADD MLOAD SWAP1 POP CODESIZE DUP1 PUSH2 0x8E38 JUMP JUMPDEST DUP11 SWAP3 SWAP2 PUSH1 0x1F NOT DUP4 AND SWAP2 DUP6 PUSH1 0x0 MSTORE DUP8 PUSH1 0x0 KECCAK256 SWAP3 PUSH1 0x0 JUMPDEST DUP10 DUP3 DUP3 LT PUSH2 0x8F80 JUMPI POP POP SWAP2 PUSH1 0xE0 SWAP8 SWAP6 SWAP4 SWAP2 DUP6 PUSH1 0xD SWAP9 SWAP7 SWAP5 LT PUSH2 0x8F68 JUMPI JUMPDEST POP POP POP DUP2 SHL ADD SWAP1 SSTORE PUSH2 0x8E4A JUMP JUMPDEST ADD MLOAD PUSH1 0x0 NOT DUP4 DUP14 SHL PUSH1 0xF8 AND SHR NOT AND SWAP1 SSTORE CODESIZE DUP1 DUP1 PUSH2 0x8F5B JUMP JUMPDEST DUP4 DUP6 ADD MLOAD DUP7 SSTORE DUP16 SWAP8 SWAP1 SWAP6 ADD SWAP5 SWAP4 DUP5 ADD SWAP4 ADD PUSH2 0x8F3E JUMP JUMPDEST PUSH1 0x41 DUP7 PUSH4 0x4E487B71 PUSH1 0xE0 SHL PUSH1 0x0 MSTORE MSTORE PUSH1 0x24 PUSH1 0x0 REVERT JUMPDEST ADD MLOAD SWAP1 POP CODESIZE DUP1 PUSH2 0x8DE7 JUMP JUMPDEST SWAP1 DUP12 SWAP4 POP PUSH1 0x1F NOT DUP4 AND SWAP2 DUP6 PUSH1 0x0 MSTORE DUP8 PUSH1 0x0 KECCAK256 SWAP3 PUSH1 0x0 JUMPDEST DUP10 DUP3 DUP3 LT PUSH2 0x9002 JUMPI POP POP DUP5 GT PUSH2 0x8FEA JUMPI JUMPDEST POP POP POP DUP2 SHL ADD SWAP1 SSTORE PUSH2 0x8DF9 JUMP JUMPDEST ADD MLOAD PUSH1 0x0 NOT DUP4 DUP12 SHL PUSH1 0xF8 AND SHR NOT AND SWAP1 SSTORE CODESIZE DUP1 DUP1 PUSH2 0x8FDD JUMP JUMPDEST DUP4 DUP6 ADD MLOAD DUP7 SSTORE DUP16 SWAP8 SWAP1 SWAP6 ADD SWAP5 SWAP4 DUP5 ADD SWAP4 ADD PUSH2 0x8FCC JUMP JUMPDEST ADD MLOAD SWAP1 POP CODESIZE DUP1 PUSH2 0x8D9E JUMP JUMPDEST SWAP1 DUP12 SWAP4 POP PUSH1 0x1F NOT DUP4 AND SWAP2 DUP6 PUSH1 0x0 MSTORE DUP8 PUSH1 0x0 KECCAK256 SWAP3 PUSH1 0x0 JUMPDEST DUP10 DUP3 DUP3 LT PUSH2 0x906F JUMPI POP POP DUP5 GT PUSH2 0x9057 JUMPI JUMPDEST POP POP POP DUP2 SHL ADD SWAP1 SSTORE PUSH2 0x8DB0 JUMP JUMPDEST ADD MLOAD PUSH1 0x0 NOT DUP4 DUP12 SHL PUSH1 0xF8 AND SHR NOT AND SWAP1 SSTORE CODESIZE DUP1 DUP1 PUSH2 0x904A JUMP JUMPDEST DUP4 DUP6 ADD MLOAD DUP7 SSTORE DUP16 SWAP8 SWAP1 SWAP6 ADD SWAP5 SWAP4 DUP5 ADD SWAP4 ADD PUSH2 0x9039 JUMP JUMPDEST ADD MLOAD SWAP1 POP CODESIZE DUP1 PUSH2 0x8D55 JUMP JUMPDEST SWAP1 DUP12 SWAP4 POP PUSH1 0x1F NOT DUP4 AND SWAP2 DUP6 PUSH1 0x0 MSTORE DUP8 PUSH1 0x0 KECCAK256 SWAP3 PUSH1 0x0 JUMPDEST DUP10 DUP3 DUP3 LT PUSH2 0x90DC JUMPI POP POP DUP5 GT PUSH2 0x90C4 JUMPI JUMPDEST POP POP POP DUP2 SHL ADD SWAP1 SSTORE PUSH2 0x8D67 JUMP JUMPDEST ADD MLOAD PUSH1 0x0 NOT DUP4 DUP12 SHL PUSH1 0xF8 AND SHR NOT AND SWAP1 SSTORE CODESIZE DUP1 DUP1 PUSH2 0x90B7 JUMP JUMPDEST DUP4 DUP6 ADD MLOAD DUP7 SSTORE DUP16 SWAP8 SWAP1 SWAP6 ADD SWAP5 SWAP4 DUP5 ADD SWAP4 ADD PUSH2 0x90A6 JUMP JUMPDEST ADD MLOAD SWAP1 POP CODESIZE DUP1 PUSH2 0x8D0C JUMP JUMPDEST SWAP1 DUP12 SWAP4 POP PUSH1 0x1F NOT DUP4 AND SWAP2 DUP6 PUSH1 0x0 MSTORE DUP8 PUSH1 0x0 KECCAK256 SWAP3 PUSH1 0x0 JUMPDEST DUP10 DUP3 DUP3 LT PUSH2 0x9149 JUMPI POP POP DUP5 GT PUSH2 0x9131 JUMPI JUMPDEST POP POP POP DUP2 SHL ADD SWAP1 SSTORE PUSH2 0x8D1E JUMP JUMPDEST ADD MLOAD PUSH1 0x0 NOT DUP4 DUP12 SHL PUSH1 0xF8 AND SHR NOT AND SWAP1 SSTORE CODESIZE DUP1 DUP1 PUSH2 0x9124 JUMP JUMPDEST DUP4 DUP6 ADD MLOAD DUP7 SSTORE DUP16 SWAP8 SWAP1 SWAP6 ADD SWAP5 SWAP4 DUP5 ADD SWAP4 ADD PUSH2 0x9113 JUMP JUMPDEST ADD MLOAD SWAP1 POP CODESIZE DUP1 PUSH2 0x8CC3 JUMP JUMPDEST SWAP1 DUP12 SWAP4 POP PUSH1 0x1F NOT DUP4 AND SWAP2 DUP6 PUSH1 0x0 MSTORE DUP8 PUSH1 0x0 KECCAK256 SWAP3 PUSH1 0x0 JUMPDEST DUP10 DUP3 DUP3 LT PUSH2 0x91B6 JUMPI POP POP DUP5 GT PUSH2 0x919E JUMPI JUMPDEST POP POP POP DUP2 SHL ADD SWAP1 SSTORE PUSH2 0x8CD5 JUMP JUMPDEST ADD MLOAD PUSH1 0x0 NOT DUP4 DUP12 SHL PUSH1 0xF8 AND SHR NOT AND SWAP1 SSTORE CODESIZE DUP1 DUP1 PUSH2 0x9191 JUMP JUMPDEST DUP4 DUP6 ADD MLOAD DUP7 SSTORE DUP16 SWAP8 SWAP1 SWAP6 ADD SWAP5 SWAP4 DUP5 ADD SWAP4 ADD PUSH2 0x9180 JUMP JUMPDEST ADD MLOAD SWAP1 POP CODESIZE DUP1 PUSH2 0x8C7B JUMP JUMPDEST SWAP1 DUP12 SWAP4 POP PUSH1 0x1F NOT DUP4 AND SWAP2 DUP6 PUSH1 0x0 MSTORE DUP8 PUSH1 0x0 KECCAK256 SWAP3 PUSH1 0x0 JUMPDEST DUP10 DUP3 DUP3 LT PUSH2 0x9223 JUMPI POP POP DUP5 GT PUSH2 0x920B JUMPI JUMPDEST POP POP POP DUP2 SHL ADD SWAP1 SSTORE PUSH2 0x8C8D JUMP JUMPDEST ADD MLOAD PUSH1 0x0 NOT DUP4 DUP12 SHL PUSH1 0xF8 AND SHR NOT AND SWAP1 SSTORE CODESIZE DUP1 DUP1 PUSH2 0x91FE JUMP JUMPDEST DUP4 DUP6 ADD MLOAD DUP7 SSTORE DUP16 SWAP8 SWAP1 SWAP6 ADD SWAP5 SWAP4 DUP5 ADD SWAP4 ADD PUSH2 0x91ED JUMP JUMPDEST PUSH1 0x41 DUP6 PUSH4 0x4E487B71 PUSH1 0xE0 SHL PUSH1 0x0 MSTORE MSTORE PUSH1 0x24 PUSH1 0x0 REVERT JUMPDEST PUSH4 0x4E487B71 PUSH1 0xE0 SHL PUSH1 0x0 MSTORE PUSH1 0x0 PUSH1 0x4 MSTORE PUSH1 0x24 PUSH1 0x0 REVERT JUMPDEST PUSH1 0x0 DUP1 SLOAD PUSH1 0x1 PUSH1 0x1 PUSH1 0xA0 SHL SUB SWAP3 SWAP2 SWAP1 DUP4 AND CALLER EQ PUSH2 0x9312 JUMPI CALLER DUP2 MSTORE PUSH1 0x19 PUSH1 0x20 MSTORE PUSH1 0x40 DUP2 KECCAK256 SLOAD DUP4 AND DUP1 ISZERO PUSH2 0x92DD JUMPI DUP1 DUP3 MSTORE PUSH1 0x13 PUSH1 0x20 MSTORE PUSH1 0xFF PUSH1 0x40 DUP4 KECCAK256 SLOAD AND SWAP4 PUSH1 0x4 DUP6 LT ISZERO PUSH2 0x92C9 JUMPI PUSH1 0x2 PUSH2 0x92C1 SWAP5 SWAP6 EQ SWAP3 DUP4 ISZERO PUSH2 0x8689 JUMPI POP POP POP PUSH2 0x85C4 JUMP JUMPDEST PUSH2 0x7C73 PUSH2 0x9319 JUMP JUMPDEST PUSH4 0x4E487B71 PUSH1 0xE0 SHL DUP4 MSTORE PUSH1 0x21 PUSH1 0x4 MSTORE PUSH1 0x24 DUP4 REVERT JUMPDEST POP SWAP1 SWAP2 PUSH1 0x13 PUSH1 0x20 MSTORE PUSH1 0xFF PUSH1 0x40 DUP4 KECCAK256 SLOAD AND PUSH1 0x4 DUP2 LT ISZERO PUSH2 0x92C9 JUMPI SWAP1 PUSH1 0x2 PUSH2 0x930D SWAP4 SWAP3 EQ SWAP2 DUP3 ISZERO PUSH2 0x86DE JUMPI POP POP PUSH2 0x85C4 JUMP JUMPDEST PUSH2 0x92C1 JUMP JUMPDEST POP SWAP1 POP PUSH2 0x7C73 JUMPDEST PUSH1 0x0 CALLER DUP2 MSTORE PUSH1 0x12 PUSH1 0x20 MSTORE PUSH1 0x40 DUP2 KECCAK256 SLOAD DUP1 ISZERO PUSH2 0x93BC JUMPI PUSH1 0xB SLOAD DUP1 DUP3 MUL SWAP1 DUP3 DUP3 DIV SUB PUSH2 0x93A8 JUMPI SWAP1 PUSH2 0x9374 PUSH2 0x9352 PUSH1 0x64 PUSH2 0x937A SWAP5 DIV DUP1 SWAP4 PUSH2 0x8B2E JUMP JUMPDEST CALLER DUP6 MSTORE PUSH1 0x12 PUSH1 0x20 MSTORE PUSH1 0x40 DUP6 KECCAK256 DUP6 SWAP1 SSTORE DUP5 SLOAD SWAP1 SWAP3 SWAP1 PUSH1 0x1 PUSH1 0x1 PUSH1 0xA0 SHL SUB AND PUSH2 0x9771 JUMP JUMPDEST CALLER PUSH2 0x9771 JUMP JUMPDEST PUSH1 0x40 MLOAD SWAP1 DUP2 MSTORE PUSH32 0x8AD64A0AC7700DD8425AB0499F107CB6E2CD1581D803C5B8C1C79DCB8190B1AF PUSH1 0x20 CALLER SWAP3 LOG2 JUMP JUMPDEST PUSH4 0x4E487B71 PUSH1 0xE0 SHL DUP4 MSTORE PUSH1 0x11 PUSH1 0x4 MSTORE PUSH1 0x24 DUP4 REVERT JUMPDEST PUSH1 0x40 MLOAD PUSH3 0x461BCD PUSH1 0xE5 SHL DUP2 MSTORE PUSH1 0x20 PUSH1 0x4 DUP3 ADD MSTORE PUSH1 0x16 PUSH1 0x24 DUP3 ADD MSTORE PUSH22 0x4E6F2062616C616E636520746F207769746864726177 PUSH1 0x50 SHL PUSH1 0x44 DUP3 ADD MSTORE PUSH1 0x64 SWAP1 REVERT JUMPDEST PUSH1 0x0 DUP1 SLOAD SWAP1 SWAP4 SWAP3 SWAP2 SWAP1 PUSH1 0x1 PUSH1 0x1 PUSH1 0xA0 SHL SUB SWAP1 DUP2 AND CALLER EQ PUSH2 0x94AC JUMPI CALLER DUP6 MSTORE PUSH1 0x19 PUSH1 0x20 MSTORE PUSH1 0x40 DUP6 KECCAK256 SLOAD DUP2 AND SWAP1 DUP2 ISZERO PUSH2 0x9479 JUMPI DUP2 DUP7 MSTORE PUSH1 0x13 PUSH1 0x20 MSTORE PUSH1 0xFF PUSH1 0x40 DUP8 KECCAK256 SLOAD AND PUSH1 0x4 DUP2 LT ISZERO PUSH2 0x9465 JUMPI SWAP2 PUSH2 0x7C73 SWAP6 SWAP7 SWAP2 PUSH1 0x2 PUSH2 0x9460 SWAP5 EQ SWAP3 DUP4 ISZERO PUSH2 0x8689 JUMPI POP POP POP PUSH2 0x85C4 JUMP JUMPDEST PUSH2 0x94B4 JUMP JUMPDEST PUSH4 0x4E487B71 PUSH1 0xE0 SHL DUP8 MSTORE PUSH1 0x21 PUSH1 0x4 MSTORE PUSH1 0x24 DUP8 REVERT JUMPDEST SWAP1 POP PUSH1 0x13 PUSH1 0x20 MSTORE PUSH1 0xFF PUSH1 0x40 DUP7 KECCAK256 SLOAD AND PUSH1 0x4 DUP2 LT ISZERO PUSH2 0x8696 JUMPI SWAP5 PUSH2 0x9460 SWAP2 PUSH1 0x2 PUSH2 0x7C73 SWAP7 SWAP8 EQ SWAP2 DUP3 ISZERO PUSH2 0x86DE JUMPI POP POP PUSH2 0x85C4 JUMP JUMPDEST POP PUSH2 0x7C73 SWAP3 SWAP4 POP JUMPDEST PUSH1 0x0 SWAP2 DUP3 JUMPDEST PUSH1 0x1 DUP1 PUSH1 0xA0 SHL SUB DUP1 DUP4 AND DUP1 PUSH1 0x0 MSTORE PUSH1 0x14 PUSH1 0x20 DUP2 DUP2 MSTORE PUSH1 0x40 SWAP3 DUP4 PUSH1 0x0 KECCAK256 DUP1 SLOAD DUP8 LT ISZERO PUSH2 0x9763 JUMPI PUSH2 0x94E9 DUP8 DUP11 SWAP3 PUSH2 0x753A JUMP JUMPDEST POP SLOAD EQ PUSH2 0x9503 JUMPI POP POP POP POP POP PUSH2 0x94FE SWAP1 PUSH2 0x88EE JUMP JUMPDEST PUSH2 0x94B9 JUMP JUMPDEST DUP1 SWAP2 SWAP3 SWAP4 SWAP5 SWAP7 SWAP8 SWAP9 POP PUSH1 0x0 MSTORE DUP3 DUP3 MSTORE PUSH2 0x951F DUP6 DUP6 PUSH1 0x0 KECCAK256 PUSH2 0x753A JUMP JUMPDEST POP SWAP6 PUSH1 0xFF PUSH1 0x5 DUP1 SWAP9 ADD SLOAD PUSH1 0xA0 SHR AND PUSH2 0x9721 JUMPI DUP2 PUSH1 0x0 MSTORE DUP4 DUP4 MSTORE DUP1 DUP8 PUSH2 0x9547 DUP9 DUP9 PUSH1 0x0 KECCAK256 PUSH2 0x753A JUMP JUMPDEST POP ADD SLOAD AND CALLER EQ SWAP1 DUP2 ISZERO PUSH2 0x9713 JUMPI JUMPDEST POP ISZERO PUSH2 0x96BC JUMPI SWAP1 PUSH2 0x956F SWAP5 SWAP4 SWAP3 SWAP2 PUSH1 0x0 MSTORE MSTORE PUSH1 0x0 KECCAK256 PUSH2 0x753A JUMP JUMPDEST POP ADD DUP1 SLOAD PUSH1 0xFF PUSH1 0xA0 SHL NOT AND PUSH1 0x1 PUSH1 0xA0 SHL OR SWAP1 SSTORE PUSH1 0x1 JUMPDEST ISZERO PUSH2 0x9682 JUMPI DUP2 PUSH1 0x0 MSTORE PUSH1 0x20 SWAP2 PUSH1 0x10 DUP4 MSTORE PUSH1 0x1 DUP1 PUSH1 0xA0 SHL SUB SWAP3 PUSH1 0x1 SWAP4 DUP5 SWAP4 PUSH1 0x40 DUP3 DUP7 DUP3 PUSH1 0x0 KECCAK256 ADD SLOAD AND DUP7 PUSH1 0x0 SWAP1 JUMPDEST PUSH2 0x95D4 JUMPI JUMPDEST POP POP PUSH1 0x0 DUP1 MLOAD PUSH1 0x20 PUSH2 0x9896 DUP4 CODECOPY DUP2 MLOAD SWAP2 MSTORE SWAP5 SWAP6 POP MLOAD SWAP6 DUP7 MSTORE AND SWAP4 LOG3 JUMP JUMPDEST DUP2 PUSH1 0x0 MSTORE PUSH1 0x15 DUP1 DUP8 MSTORE DUP4 PUSH1 0x0 KECCAK256 DUP1 SLOAD DUP4 LT ISZERO PUSH2 0x967B JUMPI PUSH2 0x95F5 DUP4 DUP11 SWAP3 PUSH2 0x753A JUMP JUMPDEST POP SLOAD EQ DUP1 PUSH2 0x9656 JUMPI JUMPDEST PUSH2 0x9612 JUMPI POP PUSH2 0x960C SWAP1 PUSH2 0x88EE JUMP JUMPDEST DUP8 PUSH2 0x95B2 JUMP JUMPDEST PUSH1 0x0 DUP1 MLOAD PUSH1 0x20 PUSH2 0x9896 DUP4 CODECOPY DUP2 MLOAD SWAP2 MSTORE SWAP8 SWAP9 POP SWAP1 PUSH2 0x963A SWAP2 PUSH1 0x5 SWAP4 PUSH1 0x0 MSTORE DUP8 MSTORE DUP4 PUSH1 0x0 KECCAK256 PUSH2 0x753A JUMP JUMPDEST POP ADD DUP1 SLOAD PUSH1 0xFF PUSH1 0xA0 SHL NOT AND PUSH1 0x1 PUSH1 0xA0 SHL OR SWAP1 SSTORE DUP7 SWAP6 SWAP5 CODESIZE PUSH2 0x95B7 JUMP JUMPDEST POP DUP3 PUSH1 0x0 MSTORE DUP1 DUP8 MSTORE DUP6 PUSH1 0x4 PUSH2 0x966E DUP5 DUP8 PUSH1 0x0 KECCAK256 PUSH2 0x753A JUMP JUMPDEST POP ADD SLOAD AND DUP7 DUP7 AND EQ PUSH2 0x95FE JUMP JUMPDEST POP POP PUSH2 0x95B7 JUMP JUMPDEST PUSH1 0x40 MLOAD PUSH3 0x461BCD PUSH1 0xE5 SHL DUP2 MSTORE PUSH1 0x20 PUSH1 0x4 DUP3 ADD MSTORE PUSH1 0x12 PUSH1 0x24 DUP3 ADD MSTORE PUSH18 0x141D5C98DA185CD9481B9BDD08199BDD5B99 PUSH1 0x72 SHL PUSH1 0x44 DUP3 ADD MSTORE PUSH1 0x64 SWAP1 REVERT JUMPDEST DUP4 MLOAD PUSH3 0x461BCD PUSH1 0xE5 SHL DUP2 MSTORE PUSH1 0x4 DUP2 ADD DUP4 SWAP1 MSTORE PUSH1 0x2A PUSH1 0x24 DUP3 ADD MSTORE PUSH32 0x4F6E6C792073656C6C6572206F72206F776E65722063616E206D61726B206173 PUSH1 0x44 DUP3 ADD MSTORE PUSH10 0x819195B1A5D995C9959 PUSH1 0xB2 SHL PUSH1 0x64 DUP3 ADD MSTORE PUSH1 0x84 SWAP1 REVERT JUMPDEST PUSH1 0x0 SLOAD AND CALLER EQ SWAP1 POP CODESIZE PUSH2 0x9555 JUMP JUMPDEST DUP5 MLOAD PUSH3 0x461BCD PUSH1 0xE5 SHL DUP2 MSTORE PUSH1 0x4 DUP2 ADD DUP5 SWAP1 MSTORE PUSH1 0x1B PUSH1 0x24 DUP3 ADD MSTORE PUSH27 0x105B1C9958591E481B585C9AD95908185CC819195B1A5D995C9959 PUSH1 0x2A SHL PUSH1 0x44 DUP3 ADD MSTORE PUSH1 0x64 SWAP1 REVERT JUMPDEST POP POP POP POP POP POP POP SWAP1 SWAP2 PUSH2 0x9585 JUMP JUMPDEST PUSH1 0x1 PUSH1 0x1 PUSH1 0xA0 SHL SUB AND DUP1 ISZERO PUSH2 0x97D0 JUMPI PUSH1 0x0 DUP1 DUP1 SWAP4 DUP2 SWAP4 GAS CALL PUSH2 0x9791 PUSH2 0x7A78 JUMP JUMPDEST POP ISZERO PUSH2 0x9799 JUMPI JUMP JUMPDEST PUSH1 0x40 MLOAD PUSH3 0x461BCD PUSH1 0xE5 SHL DUP2 MSTORE PUSH1 0x20 PUSH1 0x4 DUP3 ADD MSTORE PUSH1 0xF PUSH1 0x24 DUP3 ADD MSTORE PUSH15 0x151C985B9CD9995C8819985A5B1959 PUSH1 0x8A SHL PUSH1 0x44 DUP3 ADD MSTORE PUSH1 0x64 SWAP1 REVERT JUMPDEST PUSH1 0x40 MLOAD PUSH3 0x461BCD PUSH1 0xE5 SHL DUP2 MSTORE PUSH1 0x20 PUSH1 0x4 DUP3 ADD MSTORE PUSH1 0xF PUSH1 0x24 DUP3 ADD MSTORE PUSH15 0x496E76616C69642061646472657373 PUSH1 0x88 SHL PUSH1 0x44 DUP3 ADD MSTORE PUSH1 0x64 SWAP1 REVERT JUMPDEST PUSH1 0x0 SWAP1 PUSH1 0xC DUP1 SLOAD SWAP3 JUMPDEST DUP4 DUP2 LT PUSH2 0x9820 JUMPI POP POP POP POP PUSH1 0x0 SWAP1 JUMP JUMPDEST PUSH1 0x0 DUP3 DUP2 MSTORE PUSH1 0x20 SWAP1 KECCAK256 DUP2 ADD SLOAD PUSH1 0x1 PUSH1 0x1 PUSH1 0xA0 SHL SUB DUP5 DUP2 AND SWAP2 AND EQ PUSH2 0x984C JUMPI PUSH2 0x9847 SWAP1 PUSH2 0x88EE JUMP JUMPDEST PUSH2 0x9810 JUMP JUMPDEST POP POP POP POP PUSH1 0x1 SWAP1 JUMP INVALID 0xDF PUSH10 0x66C971051C3D54EC5916 0x26 MOD MSTORE8 EQ SWAP4 0xA5 EQ DIV LOG0 MUL DUP5 0x2F JUMP STOP SWAP14 PUSH31 0x5CF4A8C732B449308C94E824CCEDD9877932CD82F89A481C06C4643A0CB291 DIFFICULTY SLOAD 0xA8 0xC5 DUP3 0xF9 0xDC DUP6 NUMBER 0xB5 DUP4 0xE0 0x1F MSIZE 0x26 PUSH25 0x422369B2777E3649761F5808AE432CB1C24CA9438C79D3150B OR PUSH1 0xCD CODECOPY 0x1F POP MOD 0xC9 SLOAD GASPRICE 0xEA ADDMOD DUP15 0x4C SWAP1 PUSH1 0xF3 0xE5 DUP3 0xEA EXP SWAP5 DUP14 0xC6 PUSH5 0x9B25DA8BE0 SMOD SWAP13 MSTORE8 AND MSIZE EQ SGT DIFFICULTY 0xCD 0x1F 0xD0 LOG4 CALLCODE DUP5 NOT 0x49 PUSH32 0x9722A3DAAFE3B4186F6B6457E0DDF252AD1BE2C89B69C2B068FC378DAA952BA7 CALL PUSH4 0xC4A11628 CREATE2 GAS 0x4D CREATE2 0x23 0xB3 0xEF GAS DUP11 SWAP9 SWAP15 SLT RETURN 0xCE PUSH29 0xF805B73156A361DA5D8369F0C37173209308910B322117AC4CFCA63969 0x23 0xC3 0xEE 0xE6 DUP12 0xE5 DUP11 LOG3 0x5F 0xD6 PUSH3 0x3AE5D6 PUSH28 0xB552DA5E1DE2E0D5854166DCA164736F6C6343000813000A00000000 "},"methodIdentifiers":{"adminImpersonating(address)":"b95a0628","approve(address,uint256)":"095ea7b3","balanceOf(address)":"70a08231","buyProduct(uint256,(string,string,string,string,string,string,string,string))":"661e1712","buyerPurchaseHistory(address,uint256)":"9fa44dbf","changeServicePct(uint256)":"5be20959","createCategory(string)":"dc298682","createProduct((string,string,uint256,uint256,string[],string[],string[],uint256,uint256,uint256,string,string,uint256))":"e40971e5","createReview(uint256,uint256,string)":"16d81b38","createSubCategoriesBulk(uint256,string[])":"d2bc9d78","createSubCategory(uint256,string)":"7d3978db","deleteCategory(uint256)":"ceca737f","deleteProduct(uint256)":"ed90c7b7","deleteReview(uint256,uint256)":"24d41a03","deleteSubCategory(uint256)":"17e98548","getAllCategories()":"dadd0a57","getAllProducts()":"02ee3a52","getAllRegisteredSellers()":"5ad6a580","getApproved(uint256)":"081812fc","getBuyerPurchaseHistory(address)":"b27e1697","getCategory(uint256)":"f3052d26","getMyProducts()":"fdca4ca3","getPendingVerificationUsers()":"6f68ef3a","getProduct(uint256)":"b9db15b4","getProductsByCategory(string)":"8f38cc7b","getReviews(uint256)":"9d4a2255","getSeller(address)":"a323d29e","getSellerBalance(address)":"2148893f","getSellerProducts(address)":"e6a93e16","getSellerProfile(address)":"4293e5ce","getSellerPurchaseHistory(address)":"3c2575d5","getSellerStatus(address)":"eb11c434","getSubCategory(uint256)":"6f2c8599","getUser(address)":"6f77926b","grantOwnerSellerAccess()":"4e213d20","grantSellerAccess(address)":"f6b22fa7","impersonateAccount(address)":"a22fb387","isApprovedForAll(address,address)":"e985e9c5","isSeller(address)":"ee95feaf","markPurchaseDelivered(uint256,address)":"11aa5b34","name()":"06fdde03","owner()":"8da5cb5b","ownerOf(uint256)":"6352211e","productExists(uint256)":"af55ed64","products(uint256)":"7acc0b20","registerSeller(string,string,string,string,string)":"7e8555ed","registerUser(string,string,string)":"d637dcfa","registeredSellers(address)":"c64b8a8f","registeredUsers(address)":"0e50cee5","renounceOwnership()":"715018a6","reviewExists(uint256)":"00d64e76","safeTransferFrom(address,address,uint256)":"42842e0e","safeTransferFrom(address,address,uint256,bytes)":"b88d4fde","sellerBalances(address)":"607eb4e4","sellerProducts(address,uint256)":"c1302b34","sellerProfiles(address)":"9196dfcb","sellerPurchaseHistory(address,uint256)":"e585cb2c","sellerStatus(address)":"45de84db","servicePct()":"e01ef6e6","setApprovalForAll(address,bool)":"a22cb465","stopImpersonating()":"1385fd92","supportsInterface(bytes4)":"01ffc9a7","symbol()":"95d89b41","tokenURI(uint256)":"c87b56dd","transferFrom(address,address,uint256)":"23b872dd","transferOwnership(address)":"f2fde38b","updateCategory(uint256,string,bool)":"66224d8e","updateProduct(uint256,(string,string,uint256,uint256,string[],string[],string[],uint256,uint256,uint256,string,string,uint256))":"868a5461","updateSellerStatus(address,uint8)":"97b6f393","updateSubCategory(uint256,string,bool)":"317a0827","userProfiles(address)":"332d56d7","usersList(uint256)":"502aa3b5","withdraw()":"3ccfd60b"}}}}}