{"contracts/HemShop.sol":{"HemShop":{"abi":[{"inputs":[{"internalType":"uint256","name":"_pct","type":"uint256"}],"stateMutability":"nonpayable","type":"constructor"},{"anonymous":false,"inputs":[{"indexed":true,"internalType":"address","name":"owner","type":"address"},{"indexed":true,"internalType":"address","name":"approved","type":"address"},{"indexed":true,"internalType":"uint256","name":"tokenId","type":"uint256"}],"name":"Approval","type":"event"},{"anonymous":false,"inputs":[{"indexed":true,"internalType":"address","name":"owner","type":"address"},{"indexed":true,"internalType":"address","name":"operator","type":"address"},{"indexed":false,"internalType":"bool","name":"approved","type":"bool"}],"name":"ApprovalForAll","type":"event"},{"anonymous":false,"inputs":[{"indexed":true,"internalType":"address","name":"previousOwner","type":"address"},{"indexed":true,"internalType":"address","name":"newOwner","type":"address"}],"name":"OwnershipTransferred","type":"event"},{"anonymous":false,"inputs":[{"indexed":true,"internalType":"address","name":"from","type":"address"},{"indexed":true,"internalType":"address","name":"to","type":"address"},{"indexed":true,"internalType":"uint256","name":"tokenId","type":"uint256"}],"name":"Transfer","type":"event"},{"inputs":[{"internalType":"address","name":"","type":"address"}],"name":"adminImpersonating","outputs":[{"internalType":"address","name":"","type":"address"}],"stateMutability":"view","type":"function"},{"inputs":[{"internalType":"address","name":"to","type":"address"},{"internalType":"uint256","name":"tokenId","type":"uint256"}],"name":"approve","outputs":[],"stateMutability":"nonpayable","type":"function"},{"inputs":[{"internalType":"address","name":"owner","type":"address"}],"name":"balanceOf","outputs":[{"internalType":"uint256","name":"","type":"uint256"}],"stateMutability":"view","type":"function"},{"inputs":[{"internalType":"uint256","name":"productId","type":"uint256"},{"components":[{"internalType":"string","name":"fullName","type":"string"},{"internalType":"string","name":"streetAddress","type":"string"},{"internalType":"string","name":"city","type":"string"},{"internalType":"string","name":"state","type":"string"},{"internalType":"string","name":"country","type":"string"},{"internalType":"string","name":"postalCode","type":"string"},{"internalType":"string","name":"phone","type":"string"},{"internalType":"string","name":"email","type":"string"}],"internalType":"struct HemShop.ShippingDetails","name":"shippingDetails","type":"tuple"},{"internalType":"string","name":"selectedColor","type":"string"},{"internalType":"string","name":"selectedSize","type":"string"},{"internalType":"uint256","name":"quantity","type":"uint256"}],"name":"buyProduct","outputs":[],"stateMutability":"payable","type":"function"},{"inputs":[{"internalType":"address","name":"","type":"address"},{"internalType":"uint256","name":"","type":"uint256"}],"name":"buyerPurchaseHistory","outputs":[{"internalType":"uint256","name":"productId","type":"uint256"},{"internalType":"uint256","name":"totalAmount","type":"uint256"},{"internalType":"uint256","name":"basePrice","type":"uint256"},{"internalType":"uint256","name":"timestamp","type":"uint256"},{"internalType":"uint256","name":"lastUpdated","type":"uint256"},{"internalType":"address","name":"buyer","type":"address"},{"internalType":"address","name":"seller","type":"address"},{"internalType":"bool","name":"isDelivered","type":"bool"},{"components":[{"internalType":"string","name":"fullName","type":"string"},{"internalType":"string","name":"streetAddress","type":"string"},{"internalType":"string","name":"city","type":"string"},{"internalType":"string","name":"state","type":"string"},{"internalType":"string","name":"country","type":"string"},{"internalType":"string","name":"postalCode","type":"string"},{"internalType":"string","name":"phone","type":"string"},{"internalType":"string","name":"email","type":"string"}],"internalType":"struct HemShop.ShippingDetails","name":"shippingDetails","type":"tuple"},{"components":[{"internalType":"string","name":"name","type":"string"},{"internalType":"string[]","name":"images","type":"string[]"},{"internalType":"string","name":"selectedColor","type":"string"},{"internalType":"string","name":"selectedSize","type":"string"},{"internalType":"uint256","name":"quantity","type":"uint256"},{"internalType":"string","name":"category","type":"string"},{"internalType":"string","name":"description","type":"string"}],"internalType":"struct HemShop.OrderDetails","name":"orderDetails","type":"tuple"}],"stateMutability":"view","type":"function"},{"inputs":[{"internalType":"uint256","name":"newPct","type":"uint256"}],"name":"changeServicePct","outputs":[],"stateMutability":"nonpayable","type":"function"},{"inputs":[{"internalType":"string","name":"_name","type":"string"}],"name":"createCategory","outputs":[],"stateMutability":"nonpayable","type":"function"},{"inputs":[{"components":[{"internalType":"string","name":"name","type":"string"},{"internalType":"string","name":"description","type":"string"},{"internalType":"uint256","name":"price","type":"uint256"},{"internalType":"uint256","name":"stock","type":"uint256"},{"internalType":"string[]","name":"colors","type":"string[]"},{"internalType":"string[]","name":"sizes","type":"string[]"},{"internalType":"string[]","name":"images","type":"string[]"},{"internalType":"uint256","name":"categoryId","type":"uint256"},{"internalType":"uint256","name":"subCategoryId","type":"uint256"},{"internalType":"uint256","name":"weight","type":"uint256"},{"internalType":"string","name":"model","type":"string"},{"internalType":"string","name":"brand","type":"string"},{"internalType":"uint256","name":"sku","type":"uint256"}],"internalType":"struct HemShop.ProductInput","name":"input","type":"tuple"}],"name":"createProduct","outputs":[],"stateMutability":"nonpayable","type":"function"},{"inputs":[{"internalType":"uint256","name":"productId","type":"uint256"},{"internalType":"uint256","name":"rating","type":"uint256"},{"internalType":"string","name":"comment","type":"string"}],"name":"createReview","outputs":[],"stateMutability":"nonpayable","type":"function"},{"inputs":[{"internalType":"uint256","name":"parentId","type":"uint256"},{"internalType":"string[]","name":"names","type":"string[]"}],"name":"createSubCategoriesBulk","outputs":[],"stateMutability":"nonpayable","type":"function"},{"inputs":[{"internalType":"uint256","name":"_parentId","type":"uint256"},{"internalType":"string","name":"_name","type":"string"}],"name":"createSubCategory","outputs":[],"stateMutability":"nonpayable","type":"function"},{"inputs":[],"name":"getAllCategories","outputs":[{"internalType":"uint256[]","name":"ids","type":"uint256[]"},{"internalType":"string[]","name":"names","type":"string[]"},{"internalType":"bool[]","name":"activeStates","type":"bool[]"},{"internalType":"uint256[][]","name":"subCategoryIdArrays","type":"uint256[][]"}],"stateMutability":"view","type":"function"},{"inputs":[],"name":"getAllProducts","outputs":[{"components":[{"internalType":"uint256","name":"id","type":"uint256"},{"internalType":"address","name":"seller","type":"address"},{"internalType":"string","name":"name","type":"string"},{"internalType":"string","name":"description","type":"string"},{"internalType":"uint256","name":"price","type":"uint256"},{"internalType":"uint256","name":"stock","type":"uint256"},{"internalType":"string[]","name":"colors","type":"string[]"},{"internalType":"string[]","name":"sizes","type":"string[]"},{"internalType":"string[]","name":"images","type":"string[]"},{"internalType":"string","name":"category","type":"string"},{"internalType":"string","name":"subCategory","type":"string"},{"internalType":"uint256","name":"weight","type":"uint256"},{"internalType":"string","name":"model","type":"string"},{"internalType":"string","name":"brand","type":"string"},{"internalType":"uint256","name":"sku","type":"uint256"},{"internalType":"bool","name":"soldout","type":"bool"},{"internalType":"bool","name":"wishlist","type":"bool"},{"internalType":"bool","name":"deleted","type":"bool"},{"components":[{"internalType":"uint256","name":"reviewId","type":"uint256"},{"internalType":"address","name":"reviewer","type":"address"},{"internalType":"uint256","name":"rating","type":"uint256"},{"internalType":"string","name":"comment","type":"string"},{"internalType":"bool","name":"deleted","type":"bool"},{"internalType":"uint256","name":"timestamp","type":"uint256"}],"internalType":"struct HemShop.ReviewStruct[]","name":"reviews","type":"tuple[]"}],"internalType":"struct HemShop.ProductStruct[]","name":"","type":"tuple[]"}],"stateMutability":"view","type":"function"},{"inputs":[],"name":"getAllRegisteredSellers","outputs":[{"internalType":"address[]","name":"","type":"address[]"}],"stateMutability":"view","type":"function"},{"inputs":[{"internalType":"uint256","name":"tokenId","type":"uint256"}],"name":"getApproved","outputs":[{"internalType":"address","name":"","type":"address"}],"stateMutability":"view","type":"function"},{"inputs":[{"internalType":"address","name":"buyer","type":"address"}],"name":"getBuyerPurchaseHistory","outputs":[{"components":[{"internalType":"uint256","name":"productId","type":"uint256"},{"internalType":"uint256","name":"totalAmount","type":"uint256"},{"internalType":"uint256","name":"basePrice","type":"uint256"},{"internalType":"uint256","name":"timestamp","type":"uint256"},{"internalType":"uint256","name":"lastUpdated","type":"uint256"},{"internalType":"address","name":"buyer","type":"address"},{"internalType":"address","name":"seller","type":"address"},{"internalType":"bool","name":"isDelivered","type":"bool"},{"components":[{"internalType":"string","name":"fullName","type":"string"},{"internalType":"string","name":"streetAddress","type":"string"},{"internalType":"string","name":"city","type":"string"},{"internalType":"string","name":"state","type":"string"},{"internalType":"string","name":"country","type":"string"},{"internalType":"string","name":"postalCode","type":"string"},{"internalType":"string","name":"phone","type":"string"},{"internalType":"string","name":"email","type":"string"}],"internalType":"struct HemShop.ShippingDetails","name":"shippingDetails","type":"tuple"},{"components":[{"internalType":"string","name":"name","type":"string"},{"internalType":"string[]","name":"images","type":"string[]"},{"internalType":"string","name":"selectedColor","type":"string"},{"internalType":"string","name":"selectedSize","type":"string"},{"internalType":"uint256","name":"quantity","type":"uint256"},{"internalType":"string","name":"category","type":"string"},{"internalType":"string","name":"description","type":"string"}],"internalType":"struct HemShop.OrderDetails","name":"orderDetails","type":"tuple"}],"internalType":"struct HemShop.PurchaseHistoryStruct[]","name":"","type":"tuple[]"}],"stateMutability":"view","type":"function"},{"inputs":[{"internalType":"uint256","name":"_id","type":"uint256"}],"name":"getCategory","outputs":[{"internalType":"uint256","name":"id","type":"uint256"},{"internalType":"string","name":"name","type":"string"},{"internalType":"bool","name":"isActive","type":"bool"},{"internalType":"uint256[]","name":"subCategoryIds","type":"uint256[]"}],"stateMutability":"view","type":"function"},{"inputs":[],"name":"getMyProducts","outputs":[{"components":[{"internalType":"uint256","name":"id","type":"uint256"},{"internalType":"address","name":"seller","type":"address"},{"internalType":"string","name":"name","type":"string"},{"internalType":"string","name":"description","type":"string"},{"internalType":"uint256","name":"price","type":"uint256"},{"internalType":"uint256","name":"stock","type":"uint256"},{"internalType":"string[]","name":"colors","type":"string[]"},{"internalType":"string[]","name":"sizes","type":"string[]"},{"internalType":"string[]","name":"images","type":"string[]"},{"internalType":"string","name":"category","type":"string"},{"internalType":"string","name":"subCategory","type":"string"},{"internalType":"uint256","name":"weight","type":"uint256"},{"internalType":"string","name":"model","type":"string"},{"internalType":"string","name":"brand","type":"string"},{"internalType":"uint256","name":"sku","type":"uint256"},{"internalType":"bool","name":"soldout","type":"bool"},{"internalType":"bool","name":"wishlist","type":"bool"},{"internalType":"bool","name":"deleted","type":"bool"},{"components":[{"internalType":"uint256","name":"reviewId","type":"uint256"},{"internalType":"address","name":"reviewer","type":"address"},{"internalType":"uint256","name":"rating","type":"uint256"},{"internalType":"string","name":"comment","type":"string"},{"internalType":"bool","name":"deleted","type":"bool"},{"internalType":"uint256","name":"timestamp","type":"uint256"}],"internalType":"struct HemShop.ReviewStruct[]","name":"reviews","type":"tuple[]"}],"internalType":"struct HemShop.ProductStruct[]","name":"","type":"tuple[]"}],"stateMutability":"view","type":"function"},{"inputs":[{"internalType":"uint256","name":"productId","type":"uint256"}],"name":"getProduct","outputs":[{"components":[{"internalType":"uint256","name":"id","type":"uint256"},{"internalType":"address","name":"seller","type":"address"},{"internalType":"string","name":"name","type":"string"},{"internalType":"string","name":"description","type":"string"},{"internalType":"uint256","name":"price","type":"uint256"},{"internalType":"uint256","name":"stock","type":"uint256"},{"internalType":"string[]","name":"colors","type":"string[]"},{"internalType":"string[]","name":"sizes","type":"string[]"},{"internalType":"string[]","name":"images","type":"string[]"},{"internalType":"string","name":"category","type":"string"},{"internalType":"string","name":"subCategory","type":"string"},{"internalType":"uint256","name":"weight","type":"uint256"},{"internalType":"string","name":"model","type":"string"},{"internalType":"string","name":"brand","type":"string"},{"internalType":"uint256","name":"sku","type":"uint256"},{"internalType":"bool","name":"soldout","type":"bool"},{"internalType":"bool","name":"wishlist","type":"bool"},{"internalType":"bool","name":"deleted","type":"bool"},{"components":[{"internalType":"uint256","name":"reviewId","type":"uint256"},{"internalType":"address","name":"reviewer","type":"address"},{"internalType":"uint256","name":"rating","type":"uint256"},{"internalType":"string","name":"comment","type":"string"},{"internalType":"bool","name":"deleted","type":"bool"},{"internalType":"uint256","name":"timestamp","type":"uint256"}],"internalType":"struct HemShop.ReviewStruct[]","name":"reviews","type":"tuple[]"}],"internalType":"struct HemShop.ProductStruct","name":"","type":"tuple"}],"stateMutability":"view","type":"function"},{"inputs":[{"internalType":"string","name":"categoryName","type":"string"}],"name":"getProductsByCategory","outputs":[{"components":[{"internalType":"uint256","name":"id","type":"uint256"},{"internalType":"address","name":"seller","type":"address"},{"internalType":"string","name":"name","type":"string"},{"internalType":"string","name":"description","type":"string"},{"internalType":"uint256","name":"price","type":"uint256"},{"internalType":"uint256","name":"stock","type":"uint256"},{"internalType":"string[]","name":"colors","type":"string[]"},{"internalType":"string[]","name":"sizes","type":"string[]"},{"internalType":"string[]","name":"images","type":"string[]"},{"internalType":"string","name":"category","type":"string"},{"internalType":"string","name":"subCategory","type":"string"},{"internalType":"uint256","name":"weight","type":"uint256"},{"internalType":"string","name":"model","type":"string"},{"internalType":"string","name":"brand","type":"string"},{"internalType":"uint256","name":"sku","type":"uint256"},{"internalType":"bool","name":"soldout","type":"bool"},{"internalType":"bool","name":"wishlist","type":"bool"},{"internalType":"bool","name":"deleted","type":"bool"},{"components":[{"internalType":"uint256","name":"reviewId","type":"uint256"},{"internalType":"address","name":"reviewer","type":"address"},{"internalType":"uint256","name":"rating","type":"uint256"},{"internalType":"string","name":"comment","type":"string"},{"internalType":"bool","name":"deleted","type":"bool"},{"internalType":"uint256","name":"timestamp","type":"uint256"}],"internalType":"struct HemShop.ReviewStruct[]","name":"reviews","type":"tuple[]"}],"internalType":"struct HemShop.ProductStruct[]","name":"","type":"tuple[]"}],"stateMutability":"view","type":"function"},{"inputs":[{"internalType":"uint256","name":"productId","type":"uint256"}],"name":"getReviews","outputs":[{"components":[{"internalType":"uint256","name":"reviewId","type":"uint256"},{"internalType":"address","name":"reviewer","type":"address"},{"internalType":"uint256","name":"rating","type":"uint256"},{"internalType":"string","name":"comment","type":"string"},{"internalType":"bool","name":"deleted","type":"bool"},{"internalType":"uint256","name":"timestamp","type":"uint256"}],"internalType":"struct HemShop.ReviewStruct[]","name":"","type":"tuple[]"}],"stateMutability":"view","type":"function"},{"inputs":[{"internalType":"address","name":"seller","type":"address"}],"name":"getSeller","outputs":[{"components":[{"internalType":"string","name":"businessName","type":"string"},{"internalType":"string","name":"description","type":"string"},{"internalType":"string","name":"email","type":"string"},{"internalType":"string","name":"phone","type":"string"},{"internalType":"string","name":"logo","type":"string"},{"internalType":"uint256","name":"registeredAt","type":"uint256"},{"internalType":"bool","name":"termsAccepted","type":"bool"}],"internalType":"struct HemShop.SellerProfile","name":"profile","type":"tuple"},{"internalType":"enum HemShop.SellerStatus","name":"status","type":"uint8"},{"internalType":"uint256","name":"balance","type":"uint256"},{"internalType":"uint256[]","name":"productIds","type":"uint256[]"}],"stateMutability":"view","type":"function"},{"inputs":[{"internalType":"address","name":"seller","type":"address"}],"name":"getSellerBalance","outputs":[{"internalType":"uint256","name":"","type":"uint256"}],"stateMutability":"view","type":"function"},{"inputs":[{"internalType":"address","name":"seller","type":"address"}],"name":"getSellerProducts","outputs":[{"components":[{"internalType":"uint256","name":"id","type":"uint256"},{"internalType":"address","name":"seller","type":"address"},{"internalType":"string","name":"name","type":"string"},{"internalType":"string","name":"description","type":"string"},{"internalType":"uint256","name":"price","type":"uint256"},{"internalType":"uint256","name":"stock","type":"uint256"},{"internalType":"string[]","name":"colors","type":"string[]"},{"internalType":"string[]","name":"sizes","type":"string[]"},{"internalType":"string[]","name":"images","type":"string[]"},{"internalType":"string","name":"category","type":"string"},{"internalType":"string","name":"subCategory","type":"string"},{"internalType":"uint256","name":"weight","type":"uint256"},{"internalType":"string","name":"model","type":"string"},{"internalType":"string","name":"brand","type":"string"},{"internalType":"uint256","name":"sku","type":"uint256"},{"internalType":"bool","name":"soldout","type":"bool"},{"internalType":"bool","name":"wishlist","type":"bool"},{"internalType":"bool","name":"deleted","type":"bool"},{"components":[{"internalType":"uint256","name":"reviewId","type":"uint256"},{"internalType":"address","name":"reviewer","type":"address"},{"internalType":"uint256","name":"rating","type":"uint256"},{"internalType":"string","name":"comment","type":"string"},{"internalType":"bool","name":"deleted","type":"bool"},{"internalType":"uint256","name":"timestamp","type":"uint256"}],"internalType":"struct HemShop.ReviewStruct[]","name":"reviews","type":"tuple[]"}],"internalType":"struct HemShop.ProductStruct[]","name":"","type":"tuple[]"}],"stateMutability":"view","type":"function"},{"inputs":[{"internalType":"address","name":"seller","type":"address"}],"name":"getSellerProfile","outputs":[{"components":[{"internalType":"string","name":"businessName","type":"string"},{"internalType":"string","name":"description","type":"string"},{"internalType":"string","name":"email","type":"string"},{"internalType":"string","name":"phone","type":"string"},{"internalType":"string","name":"logo","type":"string"},{"internalType":"uint256","name":"registeredAt","type":"uint256"},{"internalType":"bool","name":"termsAccepted","type":"bool"}],"internalType":"struct HemShop.SellerProfile","name":"","type":"tuple"}],"stateMutability":"view","type":"function"},{"inputs":[{"internalType":"address","name":"seller","type":"address"}],"name":"getSellerPurchaseHistory","outputs":[{"components":[{"internalType":"uint256","name":"productId","type":"uint256"},{"internalType":"uint256","name":"totalAmount","type":"uint256"},{"internalType":"uint256","name":"basePrice","type":"uint256"},{"internalType":"uint256","name":"timestamp","type":"uint256"},{"internalType":"uint256","name":"lastUpdated","type":"uint256"},{"internalType":"address","name":"buyer","type":"address"},{"internalType":"address","name":"seller","type":"address"},{"internalType":"bool","name":"isDelivered","type":"bool"},{"components":[{"internalType":"string","name":"fullName","type":"string"},{"internalType":"string","name":"streetAddress","type":"string"},{"internalType":"string","name":"city","type":"string"},{"internalType":"string","name":"state","type":"string"},{"internalType":"string","name":"country","type":"string"},{"internalType":"string","name":"postalCode","type":"string"},{"internalType":"string","name":"phone","type":"string"},{"internalType":"string","name":"email","type":"string"}],"internalType":"struct HemShop.ShippingDetails","name":"shippingDetails","type":"tuple"},{"components":[{"internalType":"string","name":"name","type":"string"},{"internalType":"string[]","name":"images","type":"string[]"},{"internalType":"string","name":"selectedColor","type":"string"},{"internalType":"string","name":"selectedSize","type":"string"},{"internalType":"uint256","name":"quantity","type":"uint256"},{"internalType":"string","name":"category","type":"string"},{"internalType":"string","name":"description","type":"string"}],"internalType":"struct HemShop.OrderDetails","name":"orderDetails","type":"tuple"}],"internalType":"struct HemShop.PurchaseHistoryStruct[]","name":"","type":"tuple[]"}],"stateMutability":"view","type":"function"},{"inputs":[{"internalType":"address","name":"seller","type":"address"}],"name":"getSellerStatus","outputs":[{"internalType":"enum HemShop.SellerStatus","name":"","type":"uint8"}],"stateMutability":"view","type":"function"},{"inputs":[{"internalType":"uint256","name":"_id","type":"uint256"}],"name":"getSubCategory","outputs":[{"internalType":"uint256","name":"id","type":"uint256"},{"internalType":"string","name":"name","type":"string"},{"internalType":"uint256","name":"parentCategoryId","type":"uint256"},{"internalType":"bool","name":"isActive","type":"bool"}],"stateMutability":"view","type":"function"},{"inputs":[{"internalType":"address","name":"user","type":"address"}],"name":"getUser","outputs":[{"internalType":"bool","name":"isRegistered","type":"bool"},{"components":[{"internalType":"string","name":"name","type":"string"},{"internalType":"string","name":"email","type":"string"},{"internalType":"string","name":"avatar","type":"string"},{"internalType":"uint256","name":"registeredAt","type":"uint256"},{"internalType":"bool","name":"isActive","type":"bool"}],"internalType":"struct HemShop.UserProfile","name":"profile","type":"tuple"},{"internalType":"bool","name":"isUserSeller","type":"bool"},{"internalType":"enum HemShop.SellerStatus","name":"sellerState","type":"uint8"}],"stateMutability":"view","type":"function"},{"inputs":[{"internalType":"address","name":"account","type":"address"}],"name":"impersonateAccount","outputs":[],"stateMutability":"nonpayable","type":"function"},{"inputs":[{"internalType":"address","name":"owner","type":"address"},{"internalType":"address","name":"operator","type":"address"}],"name":"isApprovedForAll","outputs":[{"internalType":"bool","name":"","type":"bool"}],"stateMutability":"view","type":"function"},{"inputs":[{"internalType":"uint256","name":"productId","type":"uint256"},{"internalType":"address","name":"buyer","type":"address"}],"name":"markPurchaseDelivered","outputs":[],"stateMutability":"nonpayable","type":"function"},{"inputs":[],"name":"name","outputs":[{"internalType":"string","name":"","type":"string"}],"stateMutability":"view","type":"function"},{"inputs":[],"name":"owner","outputs":[{"internalType":"address","name":"","type":"address"}],"stateMutability":"view","type":"function"},{"inputs":[{"internalType":"uint256","name":"tokenId","type":"uint256"}],"name":"ownerOf","outputs":[{"internalType":"address","name":"","type":"address"}],"stateMutability":"view","type":"function"},{"inputs":[{"internalType":"uint256","name":"","type":"uint256"}],"name":"productExists","outputs":[{"internalType":"bool","name":"","type":"bool"}],"stateMutability":"view","type":"function"},{"inputs":[{"internalType":"uint256","name":"","type":"uint256"}],"name":"products","outputs":[{"internalType":"uint256","name":"id","type":"uint256"},{"internalType":"address","name":"seller","type":"address"},{"internalType":"string","name":"name","type":"string"},{"internalType":"string","name":"description","type":"string"},{"internalType":"uint256","name":"price","type":"uint256"},{"internalType":"uint256","name":"stock","type":"uint256"},{"internalType":"string","name":"category","type":"string"},{"internalType":"string","name":"subCategory","type":"string"},{"internalType":"uint256","name":"weight","type":"uint256"},{"internalType":"string","name":"model","type":"string"},{"internalType":"string","name":"brand","type":"string"},{"internalType":"uint256","name":"sku","type":"uint256"},{"internalType":"bool","name":"soldout","type":"bool"},{"internalType":"bool","name":"wishlist","type":"bool"},{"internalType":"bool","name":"deleted","type":"bool"}],"stateMutability":"view","type":"function"},{"inputs":[{"internalType":"string","name":"businessName","type":"string"},{"internalType":"string","name":"description","type":"string"},{"internalType":"string","name":"email","type":"string"},{"internalType":"string","name":"phone","type":"string"},{"internalType":"string","name":"logo","type":"string"}],"name":"registerSeller","outputs":[],"stateMutability":"nonpayable","type":"function"},{"inputs":[{"internalType":"string","name":"name","type":"string"},{"internalType":"string","name":"email","type":"string"},{"internalType":"string","name":"avatar","type":"string"}],"name":"registerUser","outputs":[],"stateMutability":"nonpayable","type":"function"},{"inputs":[{"internalType":"address","name":"","type":"address"}],"name":"registeredSellers","outputs":[{"internalType":"bool","name":"","type":"bool"}],"stateMutability":"view","type":"function"},{"inputs":[{"internalType":"address","name":"","type":"address"}],"name":"registeredUsers","outputs":[{"internalType":"bool","name":"","type":"bool"}],"stateMutability":"view","type":"function"},{"inputs":[],"name":"renounceOwnership","outputs":[],"stateMutability":"nonpayable","type":"function"},{"inputs":[{"internalType":"uint256","name":"","type":"uint256"}],"name":"reviewExists","outputs":[{"internalType":"bool","name":"","type":"bool"}],"stateMutability":"view","type":"function"},{"inputs":[{"internalType":"address","name":"from","type":"address"},{"internalType":"address","name":"to","type":"address"},{"internalType":"uint256","name":"tokenId","type":"uint256"}],"name":"safeTransferFrom","outputs":[],"stateMutability":"nonpayable","type":"function"},{"inputs":[{"internalType":"address","name":"from","type":"address"},{"internalType":"address","name":"to","type":"address"},{"internalType":"uint256","name":"tokenId","type":"uint256"},{"internalType":"bytes","name":"data","type":"bytes"}],"name":"safeTransferFrom","outputs":[],"stateMutability":"nonpayable","type":"function"},{"inputs":[{"internalType":"address","name":"","type":"address"}],"name":"sellerBalances","outputs":[{"internalType":"uint256","name":"","type":"uint256"}],"stateMutability":"view","type":"function"},{"inputs":[{"internalType":"address","name":"","type":"address"},{"internalType":"uint256","name":"","type":"uint256"}],"name":"sellerProducts","outputs":[{"internalType":"uint256","name":"","type":"uint256"}],"stateMutability":"view","type":"function"},{"inputs":[{"internalType":"address","name":"","type":"address"}],"name":"sellerProfiles","outputs":[{"internalType":"string","name":"businessName","type":"string"},{"internalType":"string","name":"description","type":"string"},{"internalType":"string","name":"email","type":"string"},{"internalType":"string","name":"phone","type":"string"},{"internalType":"string","name":"logo","type":"string"},{"internalType":"uint256","name":"registeredAt","type":"uint256"},{"internalType":"bool","name":"termsAccepted","type":"bool"}],"stateMutability":"view","type":"function"},{"inputs":[{"internalType":"address","name":"","type":"address"},{"internalType":"uint256","name":"","type":"uint256"}],"name":"sellerPurchaseHistory","outputs":[{"internalType":"uint256","name":"productId","type":"uint256"},{"internalType":"uint256","name":"totalAmount","type":"uint256"},{"internalType":"uint256","name":"basePrice","type":"uint256"},{"internalType":"uint256","name":"timestamp","type":"uint256"},{"internalType":"uint256","name":"lastUpdated","type":"uint256"},{"internalType":"address","name":"buyer","type":"address"},{"internalType":"address","name":"seller","type":"address"},{"internalType":"bool","name":"isDelivered","type":"bool"},{"components":[{"internalType":"string","name":"fullName","type":"string"},{"internalType":"string","name":"streetAddress","type":"string"},{"internalType":"string","name":"city","type":"string"},{"internalType":"string","name":"state","type":"string"},{"internalType":"string","name":"country","type":"string"},{"internalType":"string","name":"postalCode","type":"string"},{"internalType":"string","name":"phone","type":"string"},{"internalType":"string","name":"email","type":"string"}],"internalType":"struct HemShop.ShippingDetails","name":"shippingDetails","type":"tuple"},{"components":[{"internalType":"string","name":"name","type":"string"},{"internalType":"string[]","name":"images","type":"string[]"},{"internalType":"string","name":"selectedColor","type":"string"},{"internalType":"string","name":"selectedSize","type":"string"},{"internalType":"uint256","name":"quantity","type":"uint256"},{"internalType":"string","name":"category","type":"string"},{"internalType":"string","name":"description","type":"string"}],"internalType":"struct HemShop.OrderDetails","name":"orderDetails","type":"tuple"}],"stateMutability":"view","type":"function"},{"inputs":[{"internalType":"address","name":"","type":"address"}],"name":"sellerStatus","outputs":[{"internalType":"enum HemShop.SellerStatus","name":"","type":"uint8"}],"stateMutability":"view","type":"function"},{"inputs":[],"name":"servicePct","outputs":[{"internalType":"uint256","name":"","type":"uint256"}],"stateMutability":"view","type":"function"},{"inputs":[{"internalType":"address","name":"operator","type":"address"},{"internalType":"bool","name":"approved","type":"bool"}],"name":"setApprovalForAll","outputs":[],"stateMutability":"nonpayable","type":"function"},{"inputs":[],"name":"stopImpersonating","outputs":[],"stateMutability":"nonpayable","type":"function"},{"inputs":[{"internalType":"bytes4","name":"interfaceId","type":"bytes4"}],"name":"supportsInterface","outputs":[{"internalType":"bool","name":"","type":"bool"}],"stateMutability":"view","type":"function"},{"inputs":[],"name":"symbol","outputs":[{"internalType":"string","name":"","type":"string"}],"stateMutability":"view","type":"function"},{"inputs":[{"internalType":"uint256","name":"tokenId","type":"uint256"}],"name":"tokenURI","outputs":[{"internalType":"string","name":"","type":"string"}],"stateMutability":"view","type":"function"},{"inputs":[{"internalType":"address","name":"from","type":"address"},{"internalType":"address","name":"to","type":"address"},{"internalType":"uint256","name":"tokenId","type":"uint256"}],"name":"transferFrom","outputs":[],"stateMutability":"nonpayable","type":"function"},{"inputs":[{"internalType":"address","name":"newOwner","type":"address"}],"name":"transferOwnership","outputs":[],"stateMutability":"nonpayable","type":"function"},{"inputs":[{"internalType":"address","name":"seller","type":"address"},{"internalType":"enum HemShop.SellerStatus","name":"newStatus","type":"uint8"}],"name":"updateSellerStatus","outputs":[],"stateMutability":"nonpayable","type":"function"},{"inputs":[{"internalType":"address","name":"","type":"address"}],"name":"userProfiles","outputs":[{"internalType":"string","name":"name","type":"string"},{"internalType":"string","name":"email","type":"string"},{"internalType":"string","name":"avatar","type":"string"},{"internalType":"uint256","name":"registeredAt","type":"uint256"},{"internalType":"bool","name":"isActive","type":"bool"}],"stateMutability":"view","type":"function"},{"inputs":[{"internalType":"uint256","name":"","type":"uint256"}],"name":"usersList","outputs":[{"internalType":"address","name":"","type":"address"}],"stateMutability":"view","type":"function"},{"inputs":[],"name":"withdraw","outputs":[],"stateMutability":"nonpayable","type":"function"}],"evm":{"bytecode":{"linkReferences":{},"object":"6080346200037757601f90601f196001600160401b0362008d7b3881900385810184168501838111868210176200037c57859282916040528339602094859181010312620003775751936200005362000392565b926007845266048656d53686f760cc1b858501526200007162000392565b60038082526204873760ec1b8783015260008054336001600160a01b031982168117835592989394919392906001600160a01b03167f8be0079c531659141344cd1fd0a4f28419497f9722a3daafe3b4186f6b6457e08580a360019687805580519087821162000363576002548981811c9116801562000358575b858210146200034457908188849311620002f0575b5084908883116001146200028e57869262000282575b5050600019828b1b1c191690881b176002555b83519586116200026e5787548781811c9116801562000263575b838210146200024f5785811162000207575b5081948611600114620001a25750509183949184939462000196575b50501b9160001990841b1c19161790555b600d556040516189c89081620003b38239f35b01519250388062000172565b8783528183209493928692918316915b88838310620001ec5750505010620001d3575b505050811b01905562000183565b015160001983861b60f8161c19169055388080620001c5565b858701518855909601959485019487935090810190620001b2565b8884528284208680890160051c820192858a1062000245575b0160051c019088905b8281106200023957505062000156565b85815501889062000229565b9250819262000220565b634e487b7160e01b84526022600452602484fd5b90607f169062000144565b634e487b7160e01b83526041600452602483fd5b01519050388062000117565b90848b9416916002885286882092885b88828210620002d95750508411620002c0575b505050811b016002556200012a565b0151600019838d1b60f8161c19169055388080620002b1565b8385015186558e979095019493840193016200029e565b909150600286528486208880850160051c8201928786106200033a575b918c91869594930160051c01915b8281106200032b57505062000101565b8881558594508c91016200031b565b925081926200030d565b634e487b7160e01b86526022600452602486fd5b90607f1690620000ec565b634e487b7160e01b85526041600452602485fd5b600080fd5b634e487b7160e01b600052604160045260246000fd5b60408051919082016001600160401b038111838210176200037c5760405256fe608080604052600436101561001357600080fd5b60003560e01c908162d64e7614615d475750806301ffc9a714615cd957806302ee3a5214615a5e57806306fdde03146159b9578063081812fc1461599b578063095ea7b3146158215780630e50cee5146157e257806311aa5b34146157be5780631385fd921461578657806316d81b381461558e5780632053fba6146150d35780632148893f14614ad557806323b872dd146150aa578063332d56d714614fe95780633c2575d514614ee55780633ccfd60b14614dd257806342842e0e14614daa5780634293e5ce14614ca857806345de84db14614c66578063502aa3b514614c1d5780635ad6a58014614b725780635be2095914614b0f578063607eb4e414614ad55780636352211e14614aa55780636f2c8599146149bd5780636f77926b1461483357806370a082311461479c578063715018a6146147555780637acc0b20146145965780637d3978db1461433f5780637e8555ed14613b4d5780638da5cb5b14613b245780638f38cc7b146137fe5780639196dfcb146136eb57806395d89b411461360957806397b6f393146134e75780639d4a2255146133545780639fa44dbf1461330c578063a22cb46514613241578063a22fb387146131b0578063a323d29e1461305d578063af55ed641461302c578063b27e169714612f28578063b88d4fde14612ec9578063b95a062814612e8e578063b9db15b414612c74578063c1302b3414612c1c578063c64b8a8f14612bdd578063c87b56dd14612b83578063d2bc9d78146128f2578063d637dcfa146123f9578063dadd0a57146120f9578063dc29868214611ea4578063e01ef6e614611e86578063e40971e514610b28578063e585cb2c14610a85578063e6a93e16146107cb578063e985e9c514610775578063eb11c43414610743578063f2fde38b14610694578063f3052d261461059a5763fdca4ca3146102c857600080fd5b346105955760003660031901126105955760088054600060015b8281111561053457506102f4906173a0565b9060009260015b8281111561031557604051806103118682616001565b0390f35b600081815260156020908152604090912060018101546001600160a01b0316919033831480610522575b610355575b50505061035090617391565b6102fb565b604097939751926103658461608f565b8154845282840152604051610388816103818160028601616296565b038261616a565b60408401526040516103a1816103818160038601616296565b606084015260048101546080840152600581015460a08401526006906103c88282016166e1565b60c08501526103d9600782016166e1565b60e08501526103e98682016166e1565b610100850152604051610403816103818160098601616296565b61012085015260405161041d8161038181600a8601616296565b610140850152600b8101546101608501526040516104428161038181600c8601616296565b61018085015260405161045c8161038181600d8601616296565b6101a0850152600e8101546101c0850152600f81015460ff80821615156101e087015281881c81161515610200870152601091821c16151561022086015201805491906104a8836166ca565b936104b6604051958661616a565b8385526000918252808220918186015b858210610506575050505050509181610350936102406104fd9401526104ec82886173f0565b526104f781876173f0565b50617391565b94903880610344565b848360019261051487617330565b8152019401910190926104c6565b5060ff600f82015460101c161561033f565b600081815260156020526040902060018101546001600160a01b031633149081610582575b5061056d575b61056890617391565b6102e2565b9061057a61056891617391565b91905061055f565b60ff9150600f015460101c161538610559565b600080fd5b3461059557602036600319011261059557600435600052601860205260406000206040516105c7816160fe565b81548152604051906105e7826105e08160018701616296565b038361616a565b6020810191825261060b600360ff6002860154169460408401951515865201617404565b6060820190815281511561065557610311915192519351151590516106426040519586958652608060208701526080860190615d74565b9160408501528382036060850152616845565b60405162461bcd60e51b815260206004820152601760248201527610d85d1959dbdc9e48191bd95cc81b9bdd08195e1a5cdd604a1b6044820152606490fd5b34610595576020366003190112610595576106ad616063565b6106b5616879565b6001600160a01b039081169081156106ef576000548260018060a01b03198216176000551660008051602061895c833981519152600080a3005b60405162461bcd60e51b815260206004820152602660248201527f4f776e61626c653a206e6577206f776e657220697320746865207a65726f206160448201526564647265737360d01b6064820152608490fd5b34610595576020366003190112610595576020610766610761616063565b616e93565b61077360405180926165bd565bf35b346105955760403660031901126105955761078e616063565b610796616079565b9060018060a01b03809116600052600760205260406000209116600052602052602060ff604060002054166040519015158152f35b34610595576020366003190112610595576107e4616063565b600854600060015b82811115610a2157506107fe906173a0565b90600160005b8282111561081a57604051806103118682616001565b600082815260156020526040902060018101546001600160a01b0390811691908716821480610a0f575b61085b575b50509061085590617391565b90610804565b604051916108688361608f565b815483526020830152604051610885816103818160028601616296565b604083015260405161089e816103818160038601616296565b606083015260048101546080830152600581015460a08301526108c3600682016166e1565b60c08301526108d4600782016166e1565b60e08301526108e5600882016166e1565b6101008301526040516108ff816103818160098601616296565b6101208301526040516109198161038181600a8601616296565b610140830152600b81015461016083015260405161093e8161038181600c8601616296565b6101808301526040516109588161038181600d8601616296565b6101a0830152600e8101546101c0830152600f8101549060ff80831615156101e0850152808360081c161515610200850152601092831c161515610220840152018054906109a5826166ca565b916109b3604051938461616a565b808352602083019160005260206000206000925b8284106109f15750505050610240820152610855916109ea916104ec82886173f0565b9086610849565b60066020600192610a0185617330565b8152019201930192906109c7565b5060ff600f82015460101c1615610844565b600081815260156020526040902060018101546001600160a01b038681169116149081610a72575b50610a5d575b610a5890617391565b6107ec565b90610a6a610a5891617391565b919050610a4f565b60ff9150600f015460101c161585610a49565b3461059557604036600319011261059557610a9e616063565b6001600160a01b039081166000908152601c6020526040902080546024359081101561059557610acd916165e2565b5090610311825460018401549360028101549160038201549060048301548660058501541690600685015493610b11600f610b0a600789016165fe565b9701616746565b966040519a8b9a60ff8860a01c169716958b6167e1565b3461059557600319602036820112610595576001600160401b0360043511610595576101a090600435360301126105955733600052601260205260ff604060002054166004811015611e70576002148015611e5c575b15611e1857610b9d610b94600480350180616f07565b90501515616dbe565b610bb1602460043501600435600401616f07565b905015611dd5576044600435013515611d91576064600435013515611d4d57610be4608460043501600435600401616f39565b905015611d0f5760e4600435013515611cbf57610104600435013515611c6c57610124600435013515611c2757610184600435013515611be557610c3260c460043501600435600401616f39565b905015611ba7576005610c4f60c460043501600435600401616f39565b905011611b635760016008540180600855610c68616f6e565b81815233602082015290610c8a610c83600480350180616f07565b36916161a8565b6040830152610ca6610c83602460043501600435600401616f07565b60608301526044600435013560808301526064600435013560a0830152610ce1610cda608460043501600435600401616f39565b3691616ffa565b60c0830152610cfd610cda60a460043501600435600401616f39565b60e0830152610d19610cda60c460043501600435600401616f39565b61010083015260e460043501356000526018602052610381610d48600160406000200160405192838092616296565b61012083015261010460043501356000526019602052610381610d78600160406000200160405192838092616296565b610140830152610d96610c8361014460043501600435600401616f07565b610180830152610db4610c8361016460043501600435600401616f07565b6101a083015260043561012481013561016084015261018401356101c08301523315611b1f57610dec610de682616c34565b1561725f565b610df8610de682616c34565b33600052600560205260406000206001815401905580600052600460205260406000203360018060a01b03198254161790558033600060008051602061897c8339815191528180a46015602052604060002090825182556001820160018060a01b0360208501511660018060a01b0319825416179055604083015192835160018060401b03811161130557610e90600285015461625c565b601f8111611aea575b506020601f8211600114611a7b578192939495600092611a70575b50508160011b916000199060031b1c19161760028401555b606081015180519093906001600160401b03811161130557610ef1600383015461625c565b601f8111611a3b575b506020601f82116001146119cc5781929394956000926119c1575b50508160011b916000199060031b1c19161760038201555b6080820151600482015560a0820151600582015560c0820151805190600160401b821161130557600683015482600685015580831061198e575b5060200190600683016000526020600020916000905b828210611879575050505060e0820151805190600160401b8211611305576007830154826007850155808310611846575b5060200190600783016000526020600020916000905b8282106117315750505050610100820151805190600160401b82116113055760088301548260088501558083106116fe575b5060200190600883016000526020600020916000905b8282106115e9575050505061012082015180519093906001600160401b0381116113055761103d600984015461625c565b601f81116115b4575b506020601f821160011461154557819293949560009261153a575b50508160011b916000199060031b1c19161760098301555b61014083015180519093906001600160401b0381116113055761109f600a85015461625c565b601f8111611505575b506020601f821160011461149657819293949560009261148b575b50508160011b916000199060031b1c191617600a8401555b610160810151600b84015561018081015180519093906001600160401b0381116113055761110c600c83015461625c565b601f8111611456575b506020601f82116001146113e75781929394956000926113dc575b50508160011b916000199060031b1c191617600c8201555b6101a08201518051906001600160401b0382116113055761116c600d84015461625c565b601f811161139c575b50602090601f8311600114611326579180610240949260109460009261131b575b50508160011b916000199060031b1c191617600d8201555b6101c0840151600e820155600f81016111ce6101e0860151151582616c23565b6102008501511515815461ff0062ff00006102208901511515871b169260081b169062ffff001916171790550191015190815191600160401b8311611305578154838355808410611282575b506020019060005260206000206000915b83831061126457611262858060005260176020526040600020600160ff19825416179055336000526016602052604060002061722a565b005b600660208261127660019451866170c6565b0192019201919061122b565b806006029060068204036112ef57836006026006810485036112ef5783600052602060002091820191015b8181106112ba575061121a565b8060006006925560006001820155600060028201556112db6003820161707c565b6000600482015560006005820155016112ad565b634e487b7160e01b600052601160045260246000fd5b634e487b7160e01b600052604160045260246000fd5b015190508780611196565b90600d840160005260206000209160005b601f1985168110611384575092610240949260019260109583601f1981161061136b575b505050811b01600d8201556111ae565b015160001960f88460031b161c1916905587808061135b565b91926020600181928685015181550194019201611337565b6113cc90600d85016000526020600020601f850160051c810191602086106113d2575b601f0160051c0190616e01565b85611175565b90915081906113bf565b015190508580611130565b600c830160005260206000209060005b601f198416811061143e575060019394959683601f19811610611425575b505050811b01600c820155611148565b015160001960f88460031b161c19169055858080611415565b9091602060018192858b0151815501930191016113f7565b61148590600c84016000526020600020601f840160051c810191602085106113d257601f0160051c0190616e01565b85611115565b0151905085806110c3565b600a850160005260206000209060005b601f19841681106114ed575060019394959683601f198116106114d4575b505050811b01600a8401556110db565b015160001960f88460031b161c191690558580806114c4565b9091602060018192858b0151815501930191016114a6565b61153490600a86016000526020600020601f840160051c810191602085106113d257601f0160051c0190616e01565b856110a8565b015190508580611061565b6009840160005260206000209060005b601f198416811061159c575060019394959683601f19811610611583575b505050811b016009830155611079565b015160001960f88460031b161c19169055858080611573565b9091602060018192858b015181550193019101611555565b6115e390600985016000526020600020601f840160051c810191602085106113d257601f0160051c0190616e01565b85611046565b80518051906001600160401b03821161130557611606865461625c565b601f81116116cc575b50602090601f831160011461165c579282600194936020938695600092611651575b5050600019600383901b1c191690841b1787555b0194019101909261100c565b015190508c80611631565b908660005260206000209160005b601f19851681106116b4575083602093600196938796938794601f1981161061169b575b505050811b018755611645565b015160001960f88460031b161c191690558c808061168e565b9192602060018192868501518155019401920161166a565b6116f890876000526020600020601f850160051c810191602086106113d257601f0160051c0190616e01565b8961160f565b600884016000526020600020908382015b818301811061171f575050610ff6565b8061172b60019261707c565b0161170f565b80518051906001600160401b0382116113055761174e865461625c565b601f8111611814575b50602090601f83116001146117a4579282600194936020938695600092611799575b5050600019600383901b1c191690841b1787555b01940191019092610fc4565b015190508c80611779565b908660005260206000209160005b601f19851681106117fc575083602093600196938796938794601f198116106117e3575b505050811b01875561178d565b015160001960f88460031b161c191690558c80806117d6565b919260206001819286850151815501940192016117b2565b61184090876000526020600020601f850160051c810191602086106113d257601f0160051c0190616e01565b89611757565b600784016000526020600020908382015b8183018110611867575050610fae565b8061187360019261707c565b01611857565b80518051906001600160401b03821161130557611896865461625c565b601f811161195c575b50602090601f83116001146118ec5792826001949360209386956000926118e1575b5050600019600383901b1c191690841b1787555b01940191019092610f7d565b015190508c806118c1565b908660005260206000209160005b601f1985168110611944575083602093600196938796938794601f1981161061192b575b505050811b0187556118d5565b015160001960f88460031b161c191690558c808061191e565b919260206001819286850151815501940192016118fa565b61198890876000526020600020601f850160051c810191602086106113d257601f0160051c0190616e01565b8961189f565b600684016000526020600020908382015b81830181106119af575050610f67565b806119bb60019261707c565b0161199f565b015190508580610f15565b6003830160005260206000209060005b601f1984168110611a23575060019394959683601f19811610611a0a575b505050811b016003820155610f2d565b015160001960f88460031b161c191690558580806119fa565b9091602060018192858b0151815501930191016119dc565b611a6a90600384016000526020600020601f840160051c810191602085106113d257601f0160051c0190616e01565b85610efa565b015190508580610eb4565b6002850160005260206000209060005b601f1984168110611ad2575060019394959683601f19811610611ab9575b505050811b016002840155610ecc565b015160001960f88460031b161c19169055858080611aa9565b9091602060018192858b015181550193019101611a8b565b611b1990600286016000526020600020601f840160051c810191602085106113d257601f0160051c0190616e01565b85610e99565b606460405162461bcd60e51b815260206004820152602060248201527f4552433732313a206d696e7420746f20746865207a65726f20616464726573736044820152fd5b60405162461bcd60e51b815260206004820152601c60248201527b496d616765732063616e6e6f74206265206d6f7265207468616e203560201b6044820152606490fd5b60405162461bcd60e51b8152602060048201526016602482015275496d616765732063616e6e6f7420626520656d70747960501b6044820152606490fd5b60405162461bcd60e51b815260206004820152601a6024820152790534b55206d7573742062652067726561746572207468616e20360341b6044820152606490fd5b60405162461bcd60e51b815260206004820152601d60248201527f576569676874206d7573742062652067726561746572207468616e20300000006044820152606490fd5b60405162461bcd60e51b815260206004820152602560248201527f53756243617465676f7279204944206d75737420626520677265617465722074604482015264068616e20360dc1b6064820152608490fd5b60405162461bcd60e51b815260206004820152602260248201527f43617465676f7279204944206d7573742062652067726561746572207468616e604482015261020360f41b6064820152608490fd5b60405162461bcd60e51b8152602060048201526016602482015275436f6c6f72732063616e6e6f7420626520656d70747960501b6044820152606490fd5b60405162461bcd60e51b815260206004820152601c60248201527b053746f636b206d7573742062652067726561746572207468616e20360241b6044820152606490fd5b60405162461bcd60e51b815260206004820152601c60248201527b05072696365206d7573742062652067726561746572207468616e20360241b6044820152606490fd5b60405162461bcd60e51b815260206004820152601b60248201527a4465736372697074696f6e2063616e6e6f7420626520656d70747960281b6044820152606490fd5b606460405162461bcd60e51b815260206004820152602060248201527f4d7573742062652076657269666965642073656c6c6572206f72206f776e65726044820152fd5b506000546001600160a01b03163314610b7e565b634e487b7160e01b600052602160045260246000fd5b34610595576000366003190112610595576020600d54604051908152f35b3461059557602080600319360112610595576001600160401b0360043581811161059557611ed69036906004016161df565b611ede616879565b8051156120b457611ef0600b54617391565b9283600b5560405191611f028361614f565b6000835260405190611f13826160fe565b85825282820190815260408201906001968783526060840195865260005260188452604060002092518355868301905180519087821161130557611f57835461625c565b601f8111612084575b508590601f8311600114612015579180611fa09492600397969460009261200a575b505060001982881b1c1916908a1b1790555b51151560028301616c23565b019151805193841161130557600160401b84116113055781908354858555808610611fed575b5001916000528060002060005b848110611fdc57005b835182820155928201928501611fd3565b612004908560005286846000209182019101616e01565b86611fc6565b015190508b80611f82565b899291601f1983169185600052886000209260005b8a82821061206e575050916003989795939185611fa098969410612056575b505050811b019055611f94565b0151600019838a1b60f8161c191690558b8080612049565b8385015186558e9790950194938401930161202a565b6120ae908460005287600020601f850160051c8101918986106113d257601f0160051c0190616e01565b89611f60565b60405162461bcd60e51b815260048101849052601d60248201527f43617465676f7279206e616d652063616e6e6f7420626520656d7074790000006044820152606490fd5b3461059557600036600319011261059557600b54612116816166ca565b612123604051918261616a565b818152601f19612132836166ca565b01366020830137612142826166ca565b91612150604051938461616a565b80835261216c601f19612162836166ca565b0160208501617453565b612175816166ca565b92612183604051948561616a565b818452601f19612192836166ca565b013660208601376121a2826166ca565b906121b0604051928361616a565b8282526121bc836166ca565b926121cf6020840194601f190185617453565b60015b8181111561230b5750506121f160405194608086526080860190616845565b8481036020860152815180825260208201916020808360051b8301019401926000915b8383106122de57505050505083810360408501526020808651928381520195019060005b8181106122c657505050828403606084015251808452602084019060208160051b86010192916000905b82821061226f5785850386f35b90919293601f19878203018252845190602080835192838152019201906000905b8082106122ae57505050602080600192960192019201909291612262565b90919260208060019286518152019401920190612290565b82511515875260209687019690920191600101612238565b90919293946020806122fc600193601f198682030187528951615d74565b97019301930191939290612214565b80600052601860205260406000209061235e60036040519361232c856160fe565b80548552604051612344816103818160018601616296565b602086015260ff6002820154161515604086015201617404565b60608301528151612379575b6123749150617391565b6121d2565b806000198101116112ef57606082612374935161239a60001985018b6173f0565b5260208101516123ae6000198501886173f0565b526123bd6000198401876173f0565b50604081015115156123d360001985018c6173f0565b5201516123e46000198301876173f0565b526123f36000198201866173f0565b5061236a565b34610595576060366003190112610595576004356001600160401b038111610595576124299036906004016161df565b6024356001600160401b038111610595576124489036906004016161df565b6044356001600160401b038111610595576124679036906004016161df565b90612473331515616d80565b33600052601460205260ff604060002054166128b35761249583511515616dbe565b80511561287657604051926124a984616119565b835260208301526040820152426060820152600160808201523360005260106020526040600020815191825160018060401b038111611305576124ec835461625c565b601f8111612844575b506020601f82116001146127dc57819293946000926127d1575b50508160011b916000199060031b1c19161782555b602081015180519092906001600160401b03811161130557612549600183015461625c565b601f811161279c575b506020601f821160011461272e5781929394600092612723575b50508160011b916000199060031b1c19161760018201555b6040820151805190929060028301906001600160401b038111611305576125ab825461625c565b601f81116126f1575b506020601f82116001146126815791816004949260809461260198600092612676575b50508160011b916000199060031b1c19161790555b60608101516003850155015115159101616c23565b336000908152601460205260409020805460ff19166001179055600f54600160401b811015611305576001810180600f5581101561266057600f60005260008051602061899c8339815191520180546001600160a01b03191633179055005b634e487b7160e01b600052603260045260246000fd5b0151905088806125d7565b601f198216958360005260206000209660005b8181106126d957509261260197608095936001938360049997106126c0575b505050811b0190556125ec565b015160001960f88460031b161c191690558880806126b3565b83830151895560019098019760209384019301612694565b61271d90836000526020600020601f840160051c810191602085106113d257601f0160051c0190616e01565b856125b4565b01519050848061256c565b6001830160005260206000209060005b601f19841681106127845750600193949583601f1981161061276b575b505050811b016001820155612584565b015160001960f88460031b161c1916905584808061275b565b9091602060018192858a01518155019301910161273e565b6127cb90600184016000526020600020601f840160051c810191602085106113d257601f0160051c0190616e01565b84612552565b01519050848061250f565b8360005260206000209060005b601f198416811061282c5750600193949583601f19811610612813575b505050811b018255612524565b015160001960f88460031b161c19169055848080612806565b9091602060018192858a0151815501930191016127e9565b61287090846000526020600020601f840160051c810191602085106113d257601f0160051c0190616e01565b846124f5565b60405162461bcd60e51b8152602060048201526015602482015274456d61696c2063616e6e6f7420626520656d70747960581b6044820152606490fd5b60405162461bcd60e51b8152602060048201526017602482015276155cd95c88185b1c9958591e481c9959da5cdd195c9959604a1b6044820152606490fd5b34610595576040366003190112610595576001600160401b036024351161059557366023602435011215610595576001600160401b0360046024350135116105955736602480356004013560051b813501011161059557600435600052601860205260ff6002604060002001541615612b415760005b60243560040135811061297757005b6129ba90612986600c54617391565b80600c556129a160248360051b813501016024803501616f07565b9390604051946129b0866160fe565b83865236916161a8565b90602084019182526004356040850152600160608501526000526019602052604060002090835182555192835160018060401b03811161130557612a01600184015461625c565b601f8111612b0c575b506020601f8211600114612a9057612a7b939282612a6193606093612a8099600092612a85575b50508160011b916000199060031b1c19161760018501555b60408101516002850155015115156003809301616c23565b6004356000526018602052604060002001600c549061722a565b617391565b612968565b015190508980612a31565b6001840160005260206000209560005b601f1984168110612af4575092600183612a8098606094612a7b9897612a6197601f19811610612adb575b505050811b016001850155612a49565b015160001960f88460031b161c19169055898080612acb565b82820151885560019097019660209283019201612aa0565b612b3b90600185016000526020600020601f840160051c810191602085106113d257601f0160051c0190616e01565b85612a0a565b60405162461bcd60e51b815260206004820152601a602482015279506172656e742063617465676f7279206e6f742061637469766560301b6044820152606490fd5b3461059557602036600319011261059557612ba7612ba2600435616c34565b6168d1565b6000604051612bb58161614f565b52610311604051612bc58161614f565b60008152604051918291602083526020830190615d74565b34610595576020366003190112610595576001600160a01b03612bfe616063565b166000526013602052602060ff604060002054166040519015158152f35b3461059557604036600319011261059557612c35616063565b6001600160a01b031660009081526016602052604090208054602435919082101561059557602091612c66916165ca565b90546040519160031b1c8152f35b346105955760208060031936011261059557600435612c91616f6e565b508060005260158252612cb260ff600f6040600020015460101c16156172aa565b8060005260178252612ccb60ff604060002054166172eb565b6000526015815260406000209060405191612ce58361608f565b805483526001808201546001600160a01b031683850152604051612d10816103818160028701616296565b6040850152604051612d29816103818160038701616296565b606085015260048201546080850152600582015460a08501526010600692612d528482016166e1565b60c0870152612d63600782016166e1565b60e0870152612d74600882016166e1565b610100870152604051612d8e816103818160098601616296565b610120870152604051612da88161038181600a8601616296565b610140870152600b810154610160870152604051612dcd8161038181600c8601616296565b610180870152604051612de78161038181600d8601616296565b6101a0870152600e8101546101c087015260ff600f82015481811615156101e0890152818160081c161515610200890152831c1615156102208701520191825490612e31826166ca565b93612e3f604051958661616a565b8285526000908152858120868087015b858410612e71576102408a01889052604051828152806103118185018d615eb1565b86918591612e7e85617330565b8152019201920191908790612e4f565b346105955760203660031901126105955760206001600160a01b0380612eb2616063565b16600052601e825260406000205416604051908152f35b3461059557608036600319011261059557612ee2616063565b612eea616079565b606435916001600160401b038311610595573660238401121561059557612f1e6112629336906024816004013591016161a8565b91604435916169c4565b3461059557602080600319360112610595576001600160a01b039081612f4c616063565b16600052601b81526040600020805490612f65826166ca565b92612f73604051948561616a565b82845260009182528082208185015b848410612f975760405180610311888261645c565b601683600192604051612fa9816160e2565b85548152848601548382015260028601546040820152600386015460608201526004860154608082015260ff8b60058801541660a090818401526006880154908d821660c08501521c16151560e0820152613006600787016165fe565b610100820152613018600f8701616746565b610120820152815201920193019290612f82565b34610595576020366003190112610595576004356000526017602052602060ff604060002054166040519015158152f35b3461059557602080600319360112610595576131959061031161307e616063565b613086616e18565b5060018060a01b03169182600052601381526130a960ff60406000205416616e4f565b826000526011815260406000209260ff6006604051956130c8876160c7565b6040516130d9816103818185616296565b87526040516130ef816103818160018601616296565b85880152604051613107816103818160028601616296565b6040880152604051613120816103818160038601616296565b6060880152604051613139816103818160048601616296565b6080880152600581015460a0880152015416151560c08501526000526012815260ff60406000205416601a82526040600020546016835261319e6131806040600020617404565b9260405197889760808952608089019061653d565b948701906165bd565b60408501528382036060850152616845565b34610595576020366003190112610595576131c9616063565b6131d1616879565b6001600160a01b0316801561320257336000908152601e6020526040902080546001600160a01b0319169091179055005b60405162461bcd60e51b8152602060048201526017602482015276496e76616c6964206163636f756e74206164647265737360481b6044820152606490fd5b346105955760403660031901126105955761325a616063565b6024359081151590818303610595576001600160a01b0316913383146132cb5761329d903360005260076020526040600020846000526020526040600020616c23565b6040519081527f17307eab39ab6107e8899845ad3d59bd9653f200f220920489ca2b5937696c3160203392a3005b60405162461bcd60e51b815260206004820152601960248201527822a9219b99189d1030b8383937bb32903a379031b0b63632b960391b6044820152606490fd5b3461059557604036600319011261059557613325616063565b6001600160a01b039081166000908152601b6020526040902080546024359081101561059557610acd916165e2565b3461059557602080600319360112610595576004358060005260159081835260ff600f604060002001549161338f82601094851c16156172aa565b80600052601785526133a782604060002054166172eb565b60009260005b826000528587528160406000200180548210156133fe5760046133d18387936174ae565b50015416156133e9575b6133e490617391565b6133ad565b936133f66133e491617391565b9490506133db565b5050848661340b866166ca565b95613419604051978861616a565b808752613428601f19916166ca565b018160005b8281106134d15750505060009360005b816000528383528460406000200180548210156134be576004613461838a936174ae565b5001541615613479575b61347490617391565b61343d565b946134b661347491836000528585526134a161349b89896040600020016174ae565b50617330565b6134ab828c6173f0565b526104f7818b6173f0565b95905061346b565b604051848152806103118187018c615e10565b6134d961747d565b82828b01015201829061342d565b3461059557604036600319011261059557613500616063565b60243590600482101561059557613515616879565b6001600160a01b03166000818152601360205260409020546135399060ff16616e4f565b81156135c45780600052601260205260ff604060002054166004811015611e7057821461357f57600052601260205260406000209060ff80198354169116179055600080f35b60405162461bcd60e51b815260206004820152601e60248201527f53656c6c657220616c72656164792068617320746869732073746174757300006044820152606490fd5b60405162461bcd60e51b815260206004820152601f60248201527f43616e6e6f74207365742073746174757320746f20556e7665726966696564006044820152606490fd5b346105955760003660031901126105955760405160009060035461362c8161625c565b8083526001918083169081156136c35750600114613669575b610311836136558187038261616a565b604051918291602083526020830190615d74565b6003600090815260209450917fc2575a0e9e593c00f959f8c92f12db2869c3395a3b0502d05e2516446f71f85b5b8284106136b05750505081019091019061365581613645565b8054858501870152928501928101613697565b610311955061365593506020915091849260ff191682840152151560051b8201019350613645565b34610595576020366003190112610595576001600160a01b0361370c616063565b1660005260116020526137b560406000206040519061372f826105e08184616296565b604051613743816103818160018601616296565b6137ed60405161375a816103818160028801616296565b6137df604051613771816103818160038a01616296565b6137d160405193613790856137898160048c01616296565b038661616a565b6137c360ff600660058b01549a015416976040519b8c9b60e08d5260e08d0190615d74565b908b820360208d0152615d74565b9089820360408b0152615d74565b908782036060890152615d74565b908582036080870152615d74565b9160a0840152151560c08301520390f35b34610595576020366003190112610595576004356001600160401b0381116105955761382e9036906004016161df565b600854600060015b82811115613aa25750613848906173a0565b90600160005b8282111561386457604051806103118682616001565b8160005260158060205260099061038161388a8360406000200160405192838092616296565b60208151910120875160208901201480613a84575b6138b6575b5050906138b090617391565b9061384e565b836000526020526040600020610381613974604051936138d58561608f565b8354855260018401546001600160a01b03166020860152604051613900816103818160028901616296565b6040860152604051613919816103818160038901616296565b606086015260048401546080860152600584015460a086015261393e600685016166e1565b60c086015261394f600785016166e1565b60e0860152613960600885016166e1565b610100860152604051928380928601616296565b61012083015260405161398e8161038181600a8601616296565b610140830152600b8101546101608301526040516139b38161038181600c8601616296565b6101808301526040516139cd8161038181600d8601616296565b6101a0830152600e8101546101c0830152600f8101549060ff80831615156101e0850152808360081c161515610200850152601092831c16151561022084015201805490613a1a826166ca565b91613a28604051938461616a565b808352602083019160005260206000206000925b828410613a6657505050506102408201526138b091613a5f916104ec82886173f0565b90866138a4565b60066020600192613a7685617330565b815201920193019290613a3c565b50836000528060205260ff600f6040600020015460101c161561389f565b80600052601580602052610381613ac6600960406000200160405192838092616296565b6020815191012085516020870120149081613b05575b50613af0575b613aeb90617391565b613836565b90613afd613aeb91617391565b919050613ae2565b90508160005260205260ff600f6040600020015460101c161585613adc565b34610595576000366003190112610595576000546040516001600160a01b039091168152602090f35b346105955760a0366003190112610595576004356001600160401b03811161059557613b7d9036906004016161df565b6024356001600160401b03811161059557613b9c9036906004016161df565b6044356001600160401b03811161059557613bbb9036906004016161df565b6064356001600160401b03811161059557613bda9036906004016161df565b906084356001600160401b03811161059557613bfa9036906004016161df565b92613c06331515616d80565b33600052601360205260ff604060002054166142fb578451156142bd57815115614287578251156142515760405194613c3e866160c7565b855260208501526040840152606083015260808201524260a0820152600160c08201523360005260116020526040600020815191825160018060401b03811161130557613c8b835461625c565b601f811161421f575b506020601f82116001146141b757819293946000926141ac575b50508160011b916000199060031b1c19161782555b602081015180519092906001600160401b03811161130557613ce8600183015461625c565b601f8111614177575b506020601f821160011461410957819293946000926140fe575b50508160011b916000199060031b1c19161760018201555b604082015180519092906001600160401b03811161130557613d48600284015461625c565b601f81116140c9575b506020601f821160011461405b5781929394600092614050575b50508160011b916000199060031b1c19161760028301555b606081015180519092906001600160401b03811161130557613da8600383015461625c565b601f811161401b575b506020601f8211600114613fad5781929394600092613fa2575b50508160011b916000199060031b1c19161760038201555b6080820151805190929060048301906001600160401b03811161130557613e0a825461625c565b601f8111613f70575b506020601f8211600114613f005791816006949260c094613e6098600092613ef5575b50508160011b916000199060031b1c19161790555b60a08101516005850155015115159101616c23565b336000526013602052604060002060ff199060018282541617905560126020526001604060002091825416179055613e973361890d565b15613e9e57005b600e54600160401b811015611305576001810180600e5581101561266057600e6000527fbb7b4a454dc3493923482f07822329ed19e8244eff582cc204f8554c3620c3fd0180546001600160a01b03191633179055005b015190508880613e36565b601f198216958360005260206000209660005b818110613f58575092613e609760c09593600193836006999710613f3f575b505050811b019055613e4b565b015160001960f88460031b161c19169055888080613f32565b83830151895560019098019760209384019301613f13565b613f9c90836000526020600020601f840160051c810191602085106113d257601f0160051c0190616e01565b85613e13565b015190508480613dcb565b6003830160005260206000209060005b601f19841681106140035750600193949583601f19811610613fea575b505050811b016003820155613de3565b015160001960f88460031b161c19169055848080613fda565b9091602060018192858a015181550193019101613fbd565b61404a90600384016000526020600020601f840160051c810191602085106113d257601f0160051c0190616e01565b84613db1565b015190508480613d6b565b6002840160005260206000209060005b601f19841681106140b15750600193949583601f19811610614098575b505050811b016002830155613d83565b015160001960f88460031b161c19169055848080614088565b9091602060018192858a01518155019301910161406b565b6140f890600285016000526020600020601f840160051c810191602085106113d257601f0160051c0190616e01565b84613d51565b015190508480613d0b565b6001830160005260206000209060005b601f198416811061415f5750600193949583601f19811610614146575b505050811b016001820155613d23565b015160001960f88460031b161c19169055848080614136565b9091602060018192858a015181550193019101614119565b6141a690600184016000526020600020601f840160051c810191602085106113d257601f0160051c0190616e01565b84613cf1565b015190508480613cae565b8360005260206000209060005b601f19841681106142075750600193949583601f198116106141ee575b505050811b018255613cc3565b015160001960f88460031b161c191690558480806141e1565b9091602060018192858a0151815501930191016141c4565b61424b90846000526020600020601f840160051c810191602085106113d257601f0160051c0190616e01565b84613c94565b60405162461bcd60e51b815260206004820152600e60248201526d141a1bdb99481c995c5d5a5c995960921b6044820152606490fd5b60405162461bcd60e51b815260206004820152600e60248201526d115b585a5b081c995c5d5a5c995960921b6044820152606490fd5b60405162461bcd60e51b8152602060048201526016602482015275109d5cda5b995cdcc81b985b59481c995c5d5a5c995960521b6044820152606490fd5b60405162461bcd60e51b815260206004820152601c60248201527b20b63932b0b23c903932b3b4b9ba32b932b21030b99039b2b63632b960211b6044820152606490fd5b34610595576040366003190112610595576004356001600160401b03602435818111610595576143739036906004016161df565b9161437c616879565b8060005260209160188352604060002054156145515783511561450e576143a4600c54617391565b9081600c55604051946143b6866160fe565b828652848601908152604086019184835260608701936001908186526000526019875260406000209751885580880192518051928311611305576143fa845461625c565b601f81116144de575b508790601f841160011461446e5792808060189b97946003979461444b9a97600094614463575b50501b9160001990871b1c19161790555b5160028401555115159101616c23565b600052526112626003604060002001600c549061722a565b015192508d8061442a565b90601f9392931983169185600052896000209260005b8181106144c957509261444b989592859260189d999660039996106144b1575b505050811b01905561443b565b015160001983891b60f8161c191690558b80806144a4565b82840151855593860193928b01928b01614484565b614508908560005289600020601f860160051c8101918b87106113d257601f0160051c0190616e01565b89614403565b6064836040519062461bcd60e51b825280600483015260248201527f53756263617465676f7279206e616d652063616e6e6f7420626520656d7074796044820152fd5b60405162461bcd60e51b815260048101849052601e60248201527f506172656e742063617465676f727920646f6573206e6f7420657869737400006044820152606490fd5b3461059557602036600319011261059557600435600052601560205260406000208054600160a01b6001900360018301541691604051808060028401906145dc91616296565b036145e7908261616a565b604051806145f88160038601616296565b03614603908261616a565b60048301546005840154906040518080600988019061462191616296565b0361462c908261616a565b604051908161463e81600a8a01616296565b03614649908361616a565b600b87015492604051948580600c8b019061466391616296565b0361466e908761616a565b604051968761468081600d8d01616296565b0361468b908961616a565b600e8a015499600f0154986040519c8d9c8d5260208d01528b6101e06040819201528c016146b891615d74565b8b810360608d01526146c991615d74565b9160808b015260a08a015288810360c08a01526146e591615d74565b87810360e08901526146f691615d74565b9061010087015285810361012087015261470f91615d74565b84810361014086015261472191615d74565b9161016084015260ff811615156101808401528060081c60ff1615156101a084015260101c60ff1615156101c08301520390f35b346105955760003660031901126105955761476e616879565b600080546001600160a01b0319811682556001600160a01b031660008051602061895c8339815191528280a3005b34610595576020366003190112610595576001600160a01b036147bd616063565b1680156147dc5760005260056020526020604060002054604051908152f35b60405162461bcd60e51b815260206004820152602960248201527f4552433732313a2061646472657373207a65726f206973206e6f7420612076616044820152683634b21037bbb732b960b91b6064820152608490fd5b34610595576020806003193601126105955761484d616063565b6040519061485a82616119565b6000608060609384815284868201528460408201528285820152015260018060a01b031690816000526014835260ff604060002054169160108452604060002091604051916148a883616119565b6040516148b9816103818188616296565b8352604051906148d0826105e08160018901616296565b868401918252604051916148f2836148eb8160028a01616296565b038461616a565b6040850192835260ff6004600388015497868801988952015416916080860192151583526000526013885260ff6040600020541692836000146149b5576012895260ff60406000205416955b604051998a9915158a52890160809052516080890160a09052610120890161496591615d74565b9151607f1992838a82030160a08b015261497e91615d74565b9051918882030160c089015261499391615d74565b945160e0870152511515610100860152151560408501528301610311916165bd565b60009561493e565b3461059557602036600319011261059557600435600052601960205260406000206040516149ea816160fe565b8154815260405190614a03826105e08160018701616296565b6020810191825260ff60036002850154946040840195865201541690606081019115158252805115614a6357519151925190511515614a546040519485948552608060208601526080850190615d74565b91604084015260608301520390f35b60405162461bcd60e51b815260206004820152601a60248201527914dd5898d85d1959dbdc9e48191bd95cc81b9bdd08195e1a5cdd60321b6044820152606490fd5b34610595576020366003190112610595576020614ac3600435616918565b6040516001600160a01b039091168152f35b34610595576020366003190112610595576001600160a01b03614af6616063565b16600052601a6020526020604060002054604051908152f35b3461059557602036600319011261059557600435614b2b616879565b60648111614b3857600d55005b60405162461bcd60e51b8152602060048201526012602482015271496e76616c69642070657263656e7461676560701b6044820152606490fd5b346105955760003660031901126105955760405180600e5480835260208093018091600e600052846000209060005b86828210614c00578686614bb78288038361616a565b604051928392818401908285525180915260408401929160005b828110614be057505050500390f35b83516001600160a01b031685528695509381019392810192600101614bd1565b83546001600160a01b031685529093019260019283019201614ba1565b3461059557602036600319011261059557600435600f5481101561059557600f60005260008051602061899c83398151915201546040516001600160a01b039091168152602090f35b34610595576020366003190112610595576001600160a01b03614c87616063565b166000526012602052602060ff6040600020541661077360405180926165bd565b346105955760208060031936011261059557614cc2616063565b614cca616e18565b506001600160a01b03166000818152601383526040902054614cee9060ff16616e4f565b6000526011815260406000209060ff600660405193614d0c856160c7565b604051614d1d816103818185616296565b8552604051614d33816103818160018601616296565b84860152604051614d4b816103818160028601616296565b6040860152604051614d64816103818160038601616296565b6060860152604051614d7d816103818160048601616296565b6080860152600581015460a0860152015416151560c083015261031160405192828493845283019061653d565b3461059557611262614dbb36616227565b9060405192614dc98461614f565b600084526169c4565b3461059557600036600319011261059557614deb6174ca565b33600052601360205260ff6040600020541615614ea25733600052601a6020526040600020548015614e6457614e5e90614e58614e376064614e2f600d5485617069565b048093617470565b9133600052601a6020526000604081205560018060a01b03600054166188a7565b336188a7565b60018055005b60405162461bcd60e51b81526020600482015260166024820152754e6f2062616c616e636520746f20776974686472617760501b6044820152606490fd5b60405162461bcd60e51b815260206004820152601b60248201527a26bab9ba1031329030903932b3b4b9ba32b932b21039b2b63632b960291b6044820152606490fd5b3461059557602080600319360112610595576001600160a01b039081614f09616063565b16600052601c81526040600020805490614f22826166ca565b92614f30604051948561616a565b82845260009182528082208185015b848410614f545760405180610311888261645c565b601683600192604051614f66816160e2565b85548152848601548382015260028601546040820152600386015460608201526004860154608082015260ff8b60058801541660a090818401526006880154908d821660c08501521c16151560e0820152614fc3600787016165fe565b610100820152614fd5600f8701616746565b610120820152815201920193019290614f3f565b34610595576020366003190112610595576001600160a01b0361500a616063565b16600052601060205261507d60406000206040519061502d826105e08184616296565b604051615041816103818160018601616296565b615099604051615058816103818160028801616296565b61508b60ff60046003870154960154169360405197889760a0895260a0890190615d74565b908782036020890152615d74565b908582036040870152615d74565b916060840152151560808301520390f35b34610595576112626150bb36616227565b916150ce6150c98433616a5f565b616962565b616b27565b60031960a036820112610595576001600160401b0360243511610595576101009060243536030112610595576044356001600160401b0381116105955761511e9036906004016161fa565b906064356001600160401b0381116105955761513e9036906004016161fa565b6151466174ca565b600435600052601760205260ff6040600020541615615555576004356000526015602052604060002093600f8501549460ff8660101c166155155760058101549060843582106154db576004810154966151a260843589617069565b341061549f576151b86151dc9360843590617470565b8060058401551561548d575b50600101546001600160a01b03169560843590617069565b92604051916151ea836160ab565b600460243501356001600160401b03811161059557615211906004369160243501016161df565b83526001600160401b03602480350135116105955761523c36600460248035013560243501016161df565b60208401526001600160401b0360243560440135116105955761526a366024356044810135016004016161df565b60408401526001600160401b03602435606401351161059557615298366024356064810135016004016161df565b60608401526001600160401b036024356084013511610595576152c6366024356084810135016004016161df565b60808401526001600160401b0360243560a4013511610595576152f43660243560a4810135016004016161df565b60a084015260243560c401356001600160401b03811161059557615320906004369160243501016161df565b60c08401526001600160401b0360243560e40135116105955761537560039261536d61546c986153f59461536136600460e4602435013560243501016161df565b60e089015236916161a8565b9536916161a8565b600435600052601560205260406000209060405195615393876160c7565b6040516153a7816103818160028801616296565b87526153b5600884016166e1565b60208801526040870152606086015260843560808601526040516153e0816103818160098601616296565b60a08601526103816040518094819301616296565b60c083015260405192615407846160e2565b600435845234602085015260408401524260608401524260808401523360a08401528460c0840152600060e084015261010083015261012082015233600052601b602052615459816040600020617520565b82600052601c6020526040600020617520565b600052601a60205260406000208054903482018092116112ef575560018055005b60ff1916600117600f820155876151c4565b60405162461bcd60e51b8152602060048201526014602482015273125b9cdd59999a58da595b9d081c185e5b595b9d60621b6044820152606490fd5b60405162461bcd60e51b8152602060048201526012602482015271496e73756666696369656e742073746f636b60701b6044820152606490fd5b60405162461bcd60e51b8152602060048201526018602482015277141c9bd91d58dd081a185cc81899595b8819195b195d195960421b6044820152606490fd5b60405162461bcd60e51b8152602060048201526011602482015270141c9bd91d58dd081b9bdd08199bdd5b99607a1b6044820152606490fd5b3461059557606036600319011261059557602480356004356044356001600160401b038111610595576155c59036906004016161df565b90806000526020916015835260018060a01b036001604060002001541633146157335783151580615728575b156156e4578051156156a65790601592916001600a54019081600a5561561561747d565b958287523385880152604087015260608601524260a0860152600052601d82526040600020600160ff198254161790556000525260106040600020018054600160401b8110156156915761566e916001820181556174ae565b61567c5761126292506170c6565b82634e487b7160e01b60005260006004526000fd5b83634e487b7160e01b60005260416004526000fd5b60405162461bcd60e51b81526004810184905260178187015276436f6d6d656e742063616e6e6f7420626520656d70747960481b6044820152606490fd5b60405162461bcd60e51b815260048101849052601e818701527f526174696e67206d757374206265206265747765656e203120616e64203500006044820152606490fd5b5060058411156155f1565b60405162461bcd60e51b8152600481018490526026818701527f53656c6c65722063616e6e6f7420726576696577207468656972206f776e20706044820152651c9bd91d58dd60d21b6064820152608490fd5b346105955760003660031901126105955761579f616879565b336000908152601e6020526040902080546001600160a01b0319169055005b34610595576040366003190112610595576112626157da616079565b60043561851b565b34610595576020366003190112610595576001600160a01b03615803616063565b166000526014602052602060ff604060002054166040519015158152f35b346105955760403660031901126105955761583a616063565b602435906001600160a01b03808061585185616918565b1692169180831461594c57803314908115615927575b50156158bc57600083815260066020526040902080546001600160a01b0319168317905561589483616918565b167f8c5be1e5ebec7d5bd14f71427d1e84f3dd0314c0f7b2291e5b200ac8c7c3b925600080a4005b60405162461bcd60e51b815260206004820152603d60248201527f4552433732313a20617070726f76652063616c6c6572206973206e6f7420746f60448201527f6b656e206f776e6572206f7220617070726f76656420666f7220616c6c0000006064820152608490fd5b9050600052600760205260406000203360005260205260ff6040600020541684615867565b60405162461bcd60e51b815260206004820152602160248201527f4552433732313a20617070726f76616c20746f2063757272656e74206f776e656044820152603960f91b6064820152608490fd5b34610595576020366003190112610595576020614ac360043561693b565b34610595576000366003190112610595576040516000906002546159dc8161625c565b8083526001918083169081156136c35750600114615a0457610311836136558187038261616a565b6002600090815260209450917f405787fa12a823e0f2b7631cc41b3ba8828b3321ca811111fa75cd3aa3bb5ace5b828410615a4b5750505081019091019061365581613645565b8054858501870152928501928101615a32565b346105955760003660031901126105955760088054600060015b82811115615c985750615a8a906173a0565b9060009260015b82811115615aa757604051806103118682616001565b80600052602060158152604060002090600f82015460ff926010908483831c161580615ae2575b505050505050615add90617391565b615a91565b60409a969a5195615af28761608f565b8254875260018301546001600160a01b031686880152604051615b1c816103818160028801616296565b6040880152604051615b35816103818160038801616296565b606088015260048301546080880152600583015460a0880152600694615b5c8685016166e1565b60c0890152615b6d600785016166e1565b60e0890152615b7d8a85016166e1565b610100890152604051615b97816103818160098901616296565b610120890152604051615bb18161038181600a8901616296565b610140890152600b840154610160890152604051615bd68161038181600c8901616296565b610180890152604051615bf08161038181600d8901616296565b6101a0890152600e8401546101c089015281811615156101e0890152891c161515610200870152156102208601520190815491615c2c836166ca565b93615c3a604051958661616a565b8385526000918252808220918186015b858210615c7c575050505050509181615add93610240615c709401526104ec82886173f0565b94908680808080615ace565b8483600192615c8a87617330565b815201940191019092615c4a565b80600052601560205260ff600f6040600020015460101c1615615cc4575b615cbf90617391565b615a78565b90615cd1615cbf91617391565b919050615cb6565b346105955760203660031901126105955760043563ffffffff60e01b8116809103610595576020906380ac58cd60e01b8114908115615d36575b8115615d25575b506040519015158152f35b6301ffc9a760e01b14905082615d1a565b635b5e139f60e01b81149150615d13565b3461059557602036600319011261059557602090600435600052601d825260ff6040600020541615158152f35b919082519283825260005b848110615da0575050826000602080949584010152601f8019910116010190565b602081830181015184830182015201615d7f565b908082519081815260208091019281808460051b8301019501936000915b848310615de25750505050505090565b9091929394958480615e00600193601f198682030187528a51615d74565b9801930193019194939290615dd2565b908082519081815260208091019281808460051b8301019501936000915b848310615e3e5750505050505090565b9091929394958480600192601f1985820301865289519081518152848060a01b0383830151168382015260408083015190820152615e8b6060808401519060c08091850152830190615d74565b9160808082015115159083015260a0809101519101529801930193019194939290615e2e565b90615ffe918051825260018060a01b036020820151166020830152615fb8615fa4615f85615f71615f5d615f49615f37615f11615eff60408a015160408c61026091829101528c0190615d74565b60608a01518b820360608d0152615d74565b608089015160808b015260a089015160a08b015260c08901518a820360c08c0152615db4565b60e088015189820360e08b0152615db4565b6101008088015190898303908a0152615db4565b610120808701519088830390890152615d74565b610140808601519087830390880152615d74565b6101608085015190860152610180808501519086830390870152615d74565b6101a0808401519085830390860152615d74565b916101c080830151908201526101e08083015115159082015261020080830151151590820152610220808301511515908201526102408092015191818403910152615e10565b90565b602080820190808352835180925260408301928160408460051b8301019501936000915b8483106160355750505050505090565b9091929394958480616053600193603f198682030187528a51615eb1565b9801930193019194939290616025565b600435906001600160a01b038216820361059557565b602435906001600160a01b038216820361059557565b61026081019081106001600160401b0382111761130557604052565b61010081019081106001600160401b0382111761130557604052565b60e081019081106001600160401b0382111761130557604052565b61014081019081106001600160401b0382111761130557604052565b608081019081106001600160401b0382111761130557604052565b60a081019081106001600160401b0382111761130557604052565b60c081019081106001600160401b0382111761130557604052565b602081019081106001600160401b0382111761130557604052565b601f909101601f19168101906001600160401b0382119082101761130557604052565b6001600160401b03811161130557601f01601f191660200190565b9291926161b48261618d565b916161c2604051938461616a565b829481845281830111610595578281602093846000960137010152565b9080601f8301121561059557816020615ffe933591016161a8565b9181601f84011215610595578235916001600160401b038311610595576020838186019501011161059557565b6060906003190112610595576001600160a01b0390600435828116810361059557916024359081168103610595579060443590565b90600182811c9216801561628c575b602083101461627657565b634e487b7160e01b600052602260045260246000fd5b91607f169161626b565b90600092918054916162a78361625c565b91828252600193848116908160001461630957506001146162c9575b50505050565b90919394506000526020928360002092846000945b8386106162f55750505050010190388080806162c3565b8054858701830152940193859082016162de565b9294505050602093945060ff191683830152151560051b010190388080806162c3565b615ffe9160e06163c36163b161639f61638d61637b6163696163578951610100808b528a0190615d74565b60208a015189820360208b0152615d74565b604089015188820360408a0152615d74565b60608801518782036060890152615d74565b60808701518682036080880152615d74565b60a086015185820360a0870152615d74565b60c085015184820360c0860152615d74565b9201519060e0818403910152615d74565b615ffe9160c061644b61642f61641d61640b6163f9875160e0885260e0880190615d74565b60208801518782036020890152615db4565b60408701518682036040880152615d74565b60608601518582036060870152615d74565b6080850151608085015260a085015184820360a0860152615d74565b9201519060c0818403910152615d74565b602080820190808352835180925260409283810182858560051b8401019601946000925b858410616491575050505050505090565b90919293949596858061652c600193603f198682030188528b5180518252838101518483015287810151888301526060808201519083015260808082015190830152858060a01b0360a08181840151169084015260c09081830151169083015260e0808201511515908301526165186101008083015190610140809186015284019061632c565b9161012080920151918184039101526163d4565b990194019401929594939190616480565b9060c0806165a8616596616584616572616560885160e0895260e0890190615d74565b602089015188820360208a0152615d74565b60408801518782036040890152615d74565b60608701518682036060880152615d74565b60808601518582036080870152615d74565b9360a081015160a08501520151151591015290565b906004821015611e705752565b80548210156126605760005260206000200190600090565b8054821015612660576000526016602060002091020190600090565b90600760e06040936166c6855191616615836160ab565b6148eb8397805161662a816103818187616296565b8552805161663f816103818160018801616296565b60208601528051616657816103818160028801616296565b81860152805161666e816103818160038801616296565b60608601528051616686816103818160048801616296565b6080860152805161669e816103818160058801616296565b60a086015280516166b6816103818160068801616296565b60c0860152518096819301616296565b0152565b6001600160401b0381116113055760051b60200190565b9081546166ed816166ca565b926040936166fd8551918261616a565b828152809460208092019260005281600020906000935b85851061672357505050505050565b6001848192845161673881610381818a616296565b815201930194019391616714565b90600660c06040936166c685519161675d836160c7565b6148eb83978051616772816103818187616296565b8552616780600184016166e1565b60208601528051616798816103818160028801616296565b8186015280516167af816103818160038801616296565b60608601526004830154608086015280516167d1816103818160058801616296565b60a0860152518096819301616296565b9895939092615ffe9a98959261683698948b5260208b015260408a01526060890152608088015260018060a01b0380921660a08801521660c0860152151560e08501526101408061010086015284019061632c565b916101208184039101526163d4565b90815180825260208080930193019160005b828110616865575050505090565b835185529381019392810192600101616857565b6000546001600160a01b0316330361688d57565b606460405162461bcd60e51b815260206004820152602060248201527f4f776e61626c653a2063616c6c6572206973206e6f7420746865206f776e65726044820152fd5b156168d857565b60405162461bcd60e51b8152602060048201526018602482015277115490cdcc8c4e881a5b9d985b1a59081d1bdad95b88125160421b6044820152606490fd5b6000908152600460205260409020546001600160a01b0316615ffe8115156168d1565b616947612ba282616c34565b6000908152600660205260409020546001600160a01b031690565b1561696957565b60405162461bcd60e51b815260206004820152602d60248201527f4552433732313a2063616c6c6572206973206e6f7420746f6b656e206f776e6560448201526c1c881bdc88185c1c1c9bdd9959609a1b6064820152608490fd5b906169e89392916169d86150c98433616a5f565b6169e3838383616b27565b616c81565b156169ef57565b60405162461bcd60e51b815280616a0860048201616a0c565b0390fd5b60809060208152603260208201527f4552433732313a207472616e7366657220746f206e6f6e20455243373231526560408201527131b2b4bb32b91034b6b83632b6b2b73a32b960711b60608201520190565b906001600160a01b038080616a7384616918565b16931691838314938415616aa6575b508315616a90575b50505090565b616a9c9192935061693b565b1614388080616a8a565b909350600052600760205260406000208260005260205260ff604060002054169238616a82565b15616ad457565b60405162461bcd60e51b815260206004820152602560248201527f4552433732313a207472616e736665722066726f6d20696e636f72726563742060448201526437bbb732b960d91b6064820152608490fd5b90616b4f91616b3584616918565b6001600160a01b0393918416928492909183168414616acd565b16918215616bd25781616b6c91616b6586616918565b1614616acd565b60008051602061897c833981519152600084815260066020526040812060018060a01b03199081815416905583825260056020526040822060001981540190558482526040822060018154019055858252600460205284604083209182541617905580a4565b60405162461bcd60e51b8152602060048201526024808201527f4552433732313a207472616e7366657220746f20746865207a65726f206164646044820152637265737360e01b6064820152608490fd5b9060ff801983541691151516179055565b6000908152600460205260409020546001600160a01b0316151590565b3d15616c7c573d90616c628261618d565b91616c70604051938461616a565b82523d6000602084013e565b606090565b91926000929190813b15616d7657602091616cd79185604051958680958194630a85bd0160e11b9b8c845233600485015260018060a01b0380951660248501526044840152608060648401526084830190615d74565b0393165af190829082616d27575b5050616d1957616cf3616c51565b80519081616d145760405162461bcd60e51b815280616a0860048201616a0c565b602001fd5b6001600160e01b0319161490565b909192506020813d8211616d6e575b81616d436020938361616a565b81010312616d6a5751906001600160e01b031982168203616d675750903880616ce5565b80fd5b5080fd5b3d9150616d36565b5050505050600190565b15616d8757565b60405162461bcd60e51b815260206004820152600f60248201526e496e76616c6964206164647265737360881b6044820152606490fd5b15616dc557565b60405162461bcd60e51b81526020600482015260146024820152734e616d652063616e6e6f7420626520656d70747960601b6044820152606490fd5b818110616e0c575050565b60008155600101616e01565b60405190616e25826160c7565b600060c0836060808252806020830152806040830152808083015260808201528260a08201520152565b15616e5657565b60405162461bcd60e51b815260206004820152601560248201527414d95b1b195c881b9bdd081c9959da5cdd195c9959605a1b6044820152606490fd5b6001600160a01b03908116908115616ec957600054168114616ec357600052601260205260ff6040600020541690565b50600290565b60405162461bcd60e51b8152602060048201526016602482015275496e76616c69642073656c6c6572206164647265737360501b6044820152606490fd5b903590601e198136030182121561059557018035906001600160401b0382116105955760200191813603831361059557565b903590601e198136030182121561059557018035906001600160401b03821161059557602001918160051b3603831361059557565b60405190616f7b8261608f565b8161024060009182815282602082015260609283604083015283808301528060808301528060a08301528360c08301528360e08301528361010083015283610120830152836101408301528061016083015283610180830152836101a0830152806101c0830152806101e0830152806102008301526102208201520152565b92919092617007846166ca565b91617015604051938461616a565b829480845260208094019060051b8301928284116105955780915b84831061703f57505050505050565b82356001600160401b03811161059557869161705e86849386016161df565b815201920191617030565b818102929181159184041417156112ef57565b617086815461625c565b9081617090575050565b81601f600093116001146170a35750555b565b9080839182526170c2601f60208420940160051c840160018501616e01565b5555565b81518155602080830151600180840180546001600160a01b0319166001600160a01b03939093169290921790915560408401516002840155606084015180519394909390926003860192906001600160401b03831161130557617129845461625c565b601f81116171fa575b5080601f841160011461718b57509180809260a0969594600598600094617180575b50501b916000199060031b1c19161790555b6171796080820151151560048601616c23565b0151910155565b015192503880617154565b91939495601f1984168660005283600020936000905b8282106171e3575050916005979593918560a0989694106171ca575b505050811b019055617166565b015160001960f88460031b161c191690553880806171bd565b8088869782949787015181550196019401906171a1565b617224908560005282600020601f860160051c8101918487106113d257601f0160051c0190616e01565b38617132565b8054600160401b81101561130557617247916001820181556165ca565b819291549060031b91821b91600019901b1916179055565b1561726657565b60405162461bcd60e51b815260206004820152601c60248201527b115490cdcc8c4e881d1bdad95b88185b1c9958591e481b5a5b9d195960221b6044820152606490fd5b156172b157565b60405162461bcd60e51b8152602060048201526012602482015271141c9bd91d58dd081a5cc819195b195d195960721b6044820152606490fd5b156172f257565b60405162461bcd60e51b8152602060048201526016602482015275141c9bd91d58dd08191bd95cc81b9bdd08195e1a5cdd60521b6044820152606490fd5b9060405161733d81616134565b60a06005829480548452600180841b03600182015416602085015260028101546040850152604051617376816103818160038601616296565b606085015260ff600482015416151560808501520154910152565b60001981146112ef5760010190565b906173aa826166ca565b6173b7604051918261616a565b82815280926173c8601f19916166ca565b019060005b8281106173d957505050565b6020906173e4616f6e565b828285010152016173cd565b80518210156126605760209160051b010190565b9060405191828154918282526020928383019160005283600020936000905b828210617439575050506170a19250038361616a565b855484526001958601958895509381019390910190617423565b60005b82811061746257505050565b606082820152602001617456565b919082039182116112ef57565b6040519061748a82616134565b600060a0838281528260208201528260408201526060808201528260808201520152565b8054821015612660576000526006602060002091020190600090565b6002600154146174db576002600155565b60405162461bcd60e51b815260206004820152601f60248201527f5265656e7472616e637947756172643a207265656e7472616e742063616c6c006044820152606490fd5b8054919291600160401b81101561130557617540916001820181556165e2565b6184ab57825181556020830151600182015560408301516002820155606083015160038201556080830151600482015560a0808401516005830180546001600160a01b0319166001600160a01b0392831617905560c085015160068401805460e08801516001600160a81b0319909116929093169190911791151590921b60ff60a01b161790556101008301518051805160078401916001600160401b0382116113055781906175f0845461625c565b601f8111618479575b50602090601f831160011461841357600092618408575b50508160011b916000199060031b1c19161790555b60208101518051906001600160401b03821161130557819061764a600886015461625c565b601f81116183d3575b50602090601f83116001146183665760009261835b575b50508160011b916000199060031b1c19161760088301555b60408101518051906001600160401b0382116113055781906176a7600986015461625c565b601f8111618326575b50602090601f83116001146182b4576000926182a9575b50508160011b916000199060031b1c19161760098301555b60608101518051906001600160401b038211611305578190617704600a86015461625c565b601f8111618274575b50602090601f8311600114618202576000926181f7575b50508160011b916000199060031b1c191617600a8301555b60808101518051906001600160401b038211611305578190617761600b86015461625c565b601f81116181c2575b50602090601f831160011461815057600092618145575b50508160011b916000199060031b1c191617600b8301555b60a08101518051906001600160401b0382116113055781906177be600c86015461625c565b601f8111618110575b50602090601f831160011461809e57600092618093575b50508160011b916000199060031b1c191617600c8301555b60c08101518051906001600160401b03821161130557819061781b600d86015461625c565b601f811161805e575b50602090601f8311600114617fec57600092617fe1575b50508160011b916000199060031b1c191617600d8301555b60e001518051600e8301916001600160401b038211611305578190617878845461625c565b601f8111617faf575b50602090601f8311600114617f4957600092617f3e575b50508160011b916000199060031b1c19161790555b610120600f820193015192835180519060018060401b0382116113055781906178d6845461625c565b601f8111617f0c575b50602090601f8311600114617ea657600092617e9b575b50508160011b916000199060031b1c19161790555b602083015180516010830191600160401b8211611305578254828455808310617e6c575b50602001916000526020600020916000905b828210617d5757505050506040830151805160118301916001600160401b038211611305578190617972845461625c565b601f8111617d25575b50602090601f8311600114617cbf57600092617cb4575b50508160011b916000199060031b1c19161790555b6060830151805160128301916001600160401b0382116113055781906179cd845461625c565b601f8111617c82575b50602090601f8311600114617c1c57600092617c11575b50508160011b916000199060031b1c19161790555b6080830151601382015560a0830151805160148301916001600160401b03821161130557617a30835461625c565b601f8111617bdf575b50602090601f8311600114617b715791806015949260c09694600092617b66575b50508160011b916000199060031b1c19161790555b0192015191825160018060401b03811161130557617a8d825461625c565b601f8111617b34575b506020601f8211600114617ad15781929394600092617ac6575b50508160011b916000199060031b1c1916179055565b015190503880617ab0565b601f198216908360005260206000209160005b818110617b1c57509583600195969710617b03575b505050811b019055565b015160001960f88460031b161c19169055388080617af9565b9192602060018192868b015181550194019201617ae4565b617b6090836000526020600020601f840160051c810191602085106113d257601f0160051c0190616e01565b38617a96565b015190503880617a5a565b90601f198316918460005260206000209260005b818110617bc7575092600192859260c098966015989610617bae575b505050811b019055617a6f565b015160001960f88460031b161c19169055388080617ba1565b92936020600181928786015181550195019301617b85565b617c0b90846000526020600020601f850160051c810191602086106113d257601f0160051c0190616e01565b38617a39565b0151905038806179ed565b6000858152602081209350601f198516905b818110617c6a5750908460019594939210617c51575b505050811b019055617a02565b015160001960f88460031b161c19169055388080617c44565b92936020600181928786015181550195019301617c2e565b617cae90856000526020600020601f850160051c810191602086106113d257601f0160051c0190616e01565b386179d6565b015190503880617992565b6000858152602081209350601f198516905b818110617d0d5750908460019594939210617cf4575b505050811b0190556179a7565b015160001960f88460031b161c19169055388080617ce7565b92936020600181928786015181550195019301617cd1565b617d5190856000526020600020601f850160051c810191602086106113d257601f0160051c0190616e01565b3861797b565b80518051906001600160401b03821161130557617d74865461625c565b601f8111617e3a575b50602090601f8311600114617dca579282600194936020938695600092617dbf575b5050600019600383901b1c191690841b1787555b01940191019092617941565b015190503880617d9f565b908660005260206000209160005b601f1985168110617e22575083602093600196938796938794601f19811610617e09575b505050811b018755617db3565b015160001960f88460031b161c19169055388080617dfc565b91926020600181928685015181550194019201617dd8565b617e6690876000526020600020601f850160051c810191602086106113d257601f0160051c0190616e01565b38617d7d565b8360005282602060002091820191015b818110617e89575061792f565b80617e9560019261707c565b01617e7c565b0151905038806178f6565b6000858152602081209350601f198516905b818110617ef45750908460019594939210617edb575b505050811b01905561790b565b015160001960f88460031b161c19169055388080617ece565b92936020600181928786015181550195019301617eb8565b617f3890856000526020600020601f850160051c810191602086106113d257601f0160051c0190616e01565b386178df565b015190503880617898565b6000858152602081209350601f198516905b818110617f975750908460019594939210617f7e575b505050811b0190556178ad565b015160001960f88460031b161c19169055388080617f71565b92936020600181928786015181550195019301617f5b565b617fdb90856000526020600020601f850160051c810191602086106113d257601f0160051c0190616e01565b38617881565b01519050388061783b565b9250600d85016000526020600020906000935b601f1984168510618043576001945083601f1981161061802a575b505050811b01600d830155617853565b015160001960f88460031b161c1916905538808061801a565b81810151835560209485019460019093019290910190617fff565b61808d90600d87016000526020600020601f850160051c810191602086106113d257601f0160051c0190616e01565b38617824565b0151905038806177de565b9250600c85016000526020600020906000935b601f19841685106180f5576001945083601f198116106180dc575b505050811b01600c8301556177f6565b015160001960f88460031b161c191690553880806180cc565b818101518355602094850194600190930192909101906180b1565b61813f90600c87016000526020600020601f850160051c810191602086106113d257601f0160051c0190616e01565b386177c7565b015190503880617781565b9250600b85016000526020600020906000935b601f19841685106181a7576001945083601f1981161061818e575b505050811b01600b830155617799565b015160001960f88460031b161c1916905538808061817e565b81810151835560209485019460019093019290910190618163565b6181f190600b87016000526020600020601f850160051c810191602086106113d257601f0160051c0190616e01565b3861776a565b015190503880617724565b9250600a85016000526020600020906000935b601f1984168510618259576001945083601f19811610618240575b505050811b01600a83015561773c565b015160001960f88460031b161c19169055388080618230565b81810151835560209485019460019093019290910190618215565b6182a390600a87016000526020600020601f850160051c810191602086106113d257601f0160051c0190616e01565b3861770d565b0151905038806176c7565b9250600985016000526020600020906000935b601f198416851061830b576001945083601f198116106182f2575b505050811b0160098301556176df565b015160001960f88460031b161c191690553880806182e2565b818101518355602094850194600190930192909101906182c7565b61835590600987016000526020600020601f850160051c810191602086106113d257601f0160051c0190616e01565b386176b0565b01519050388061766a565b600886016000908152602081209350601f198516905b8181106183bb57509084600195949392106183a2575b505050811b016008830155617682565b015160001960f88460031b161c19169055388080618392565b9293602060018192878601518155019501930161837c565b61840290600887016000526020600020601f850160051c810191602086106113d257601f0160051c0190616e01565b38617653565b015190503880617610565b6000858152602081209350601f198516905b8181106184615750908460019594939210618448575b505050811b019055617625565b015160001960f88460031b161c1916905538808061843b565b92936020600181928786015181550195019301618425565b6184a590856000526020600020601f850160051c810191602086106113d257601f0160051c0190616e01565b386175f9565b634e487b7160e01b600052600060045260246000fd5b156184c857565b60405162461bcd60e51b815260206004820152602560248201527f4f6e6c792076657269666965642073656c6c6572206f72206f776e657220616c6044820152641b1bddd95960da1b6064820152608490fd5b6000805490939291906001600160a01b0390811633146185fe57338552601e602052604085205481169081156185a857818652601260205260ff604087205416600481101561859457916170a195969160026185829414928315618587575b5050506184c1565b618606565b541614905038808061857a565b634e487b7160e01b87526021600452602487fd5b9050601260205260ff60408620541660048110156185ea57946185829160026170a19697149182156185dc575b50506184c1565b9091505416331438806185d5565b634e487b7160e01b86526021600452602486fd5b506170a19293505b90600091825b60018060a01b0380841680600052601b60208181526040928360002080548710156188995761863c8789926165e2565b50541461865657505050505061865190617391565b61860c565b80919293949697985060005282825261867285856000206165e2565b509560ff60068098015460a01c166188595781600052838352808761869a88886000206165e2565b50015416331490811561884b575b50156187f457906186c294939291600052526000206165e2565b5001805460ff60a01b1916600160a01b17905560015b156187ba57806000526020906015825260018060a01b039160019360409380868660002001541691866000905b618714575b5050505050505050565b83600052601c8086528760002080548310156187b3576187358389926165e2565b5054148061878e575b618752575061874c90617391565b87618705565b93915094506006965061876e95939150600052526000206165e2565b5001805460ff60a01b1916600160a01b179055388080808080808061870a565b50846000528086528360056187a6848b6000206165e2565b500154168484161461873e565b505061870a565b60405162461bcd60e51b8152602060048201526012602482015271141d5c98da185cd9481b9bdd08199bdd5b9960721b6044820152606490fd5b835162461bcd60e51b815260048101839052602a60248201527f4f6e6c792073656c6c6572206f72206f776e65722063616e206d61726b2061736044820152690819195b1a5d995c995960b21b6064820152608490fd5b6000541633149050386186a8565b6064838587519162461bcd60e51b8352600483015260248201527a105b1c9958591e481b585c9ad95908185cc819195b1a5d995c9959602a1b6044820152fd5b5050505050505090916186d8565b6000918291829182916001600160a01b03166188c4811515616d80565b5af16188ce616c51565b50156188d657565b60405162461bcd60e51b815260206004820152600f60248201526e151c985b9cd9995c8819985a5b1959608a1b6044820152606490fd5b600090600e8054925b8381106189265750505050600090565b6000828152602090208101546001600160a01b038481169116146189525761894d90617391565b618916565b5050505060019056fe8be0079c531659141344cd1fd0a4f28419497f9722a3daafe3b4186f6b6457e0ddf252ad1be2c89b69c2b068fc378daa952ba7f163c4a11628f55a4df523b3ef8d1108e10bcb7c27dddfc02ed9d693a074039d026cf4ea4240b40f7d581ac802a164736f6c6343000813000a","opcodes":"PUSH1 0x80 CALLVALUE PUSH3 0x377 JUMPI PUSH1 0x1F SWAP1 PUSH1 0x1F NOT PUSH1 0x1 PUSH1 0x1 PUSH1 0x40 SHL SUB PUSH3 0x8D7B CODESIZE DUP2 SWAP1 SUB DUP6 DUP2 ADD DUP5 AND DUP6 ADD DUP4 DUP2 GT DUP7 DUP3 LT OR PUSH3 0x37C JUMPI DUP6 SWAP3 DUP3 SWAP2 PUSH1 0x40 MSTORE DUP4 CODECOPY PUSH1 0x20 SWAP5 DUP6 SWAP2 DUP2 ADD SUB SLT PUSH3 0x377 JUMPI MLOAD SWAP4 PUSH3 0x53 PUSH3 0x392 JUMP JUMPDEST SWAP3 PUSH1 0x7 DUP5 MSTORE PUSH7 0x48656D53686F7 PUSH1 0xCC SHL DUP6 DUP6 ADD MSTORE PUSH3 0x71 PUSH3 0x392 JUMP JUMPDEST PUSH1 0x3 DUP1 DUP3 MSTORE PUSH3 0x48737 PUSH1 0xEC SHL DUP8 DUP4 ADD MSTORE PUSH1 0x0 DUP1 SLOAD CALLER PUSH1 0x1 PUSH1 0x1 PUSH1 0xA0 SHL SUB NOT DUP3 AND DUP2 OR DUP4 SSTORE SWAP3 SWAP9 SWAP4 SWAP5 SWAP2 SWAP4 SWAP3 SWAP1 PUSH1 0x1 PUSH1 0x1 PUSH1 0xA0 SHL SUB AND PUSH32 0x8BE0079C531659141344CD1FD0A4F28419497F9722A3DAAFE3B4186F6B6457E0 DUP6 DUP1 LOG3 PUSH1 0x1 SWAP7 DUP8 DUP1 SSTORE DUP1 MLOAD SWAP1 DUP8 DUP3 GT PUSH3 0x363 JUMPI PUSH1 0x2 SLOAD DUP10 DUP2 DUP2 SHR SWAP2 AND DUP1 ISZERO PUSH3 0x358 JUMPI JUMPDEST DUP6 DUP3 LT EQ PUSH3 0x344 JUMPI SWAP1 DUP2 DUP9 DUP5 SWAP4 GT PUSH3 0x2F0 JUMPI JUMPDEST POP DUP5 SWAP1 DUP9 DUP4 GT PUSH1 0x1 EQ PUSH3 0x28E JUMPI DUP7 SWAP3 PUSH3 0x282 JUMPI JUMPDEST POP POP PUSH1 0x0 NOT DUP3 DUP12 SHL SHR NOT AND SWAP1 DUP9 SHL OR PUSH1 0x2 SSTORE JUMPDEST DUP4 MLOAD SWAP6 DUP7 GT PUSH3 0x26E JUMPI DUP8 SLOAD DUP8 DUP2 DUP2 SHR SWAP2 AND DUP1 ISZERO PUSH3 0x263 JUMPI JUMPDEST DUP4 DUP3 LT EQ PUSH3 0x24F JUMPI DUP6 DUP2 GT PUSH3 0x207 JUMPI JUMPDEST POP DUP2 SWAP5 DUP7 GT PUSH1 0x1 EQ PUSH3 0x1A2 JUMPI POP POP SWAP2 DUP4 SWAP5 SWAP2 DUP5 SWAP4 SWAP5 PUSH3 0x196 JUMPI JUMPDEST POP POP SHL SWAP2 PUSH1 0x0 NOT SWAP1 DUP5 SHL SHR NOT AND OR SWAP1 SSTORE JUMPDEST PUSH1 0xD SSTORE PUSH1 0x40 MLOAD PUSH2 0x89C8 SWAP1 DUP2 PUSH3 0x3B3 DUP3 CODECOPY RETURN JUMPDEST ADD MLOAD SWAP3 POP CODESIZE DUP1 PUSH3 0x172 JUMP JUMPDEST DUP8 DUP4 MSTORE DUP2 DUP4 KECCAK256 SWAP5 SWAP4 SWAP3 DUP7 SWAP3 SWAP2 DUP4 AND SWAP2 JUMPDEST DUP9 DUP4 DUP4 LT PUSH3 0x1EC JUMPI POP POP POP LT PUSH3 0x1D3 JUMPI JUMPDEST POP POP POP DUP2 SHL ADD SWAP1 SSTORE PUSH3 0x183 JUMP JUMPDEST ADD MLOAD PUSH1 0x0 NOT DUP4 DUP7 SHL PUSH1 0xF8 AND SHR NOT AND SWAP1 SSTORE CODESIZE DUP1 DUP1 PUSH3 0x1C5 JUMP JUMPDEST DUP6 DUP8 ADD MLOAD DUP9 SSTORE SWAP1 SWAP7 ADD SWAP6 SWAP5 DUP6 ADD SWAP5 DUP8 SWAP4 POP SWAP1 DUP2 ADD SWAP1 PUSH3 0x1B2 JUMP JUMPDEST DUP9 DUP5 MSTORE DUP3 DUP5 KECCAK256 DUP7 DUP1 DUP10 ADD PUSH1 0x5 SHR DUP3 ADD SWAP3 DUP6 DUP11 LT PUSH3 0x245 JUMPI JUMPDEST ADD PUSH1 0x5 SHR ADD SWAP1 DUP9 SWAP1 JUMPDEST DUP3 DUP2 LT PUSH3 0x239 JUMPI POP POP PUSH3 0x156 JUMP JUMPDEST DUP6 DUP2 SSTORE ADD DUP9 SWAP1 PUSH3 0x229 JUMP JUMPDEST SWAP3 POP DUP2 SWAP3 PUSH3 0x220 JUMP JUMPDEST PUSH4 0x4E487B71 PUSH1 0xE0 SHL DUP5 MSTORE PUSH1 0x22 PUSH1 0x4 MSTORE PUSH1 0x24 DUP5 REVERT JUMPDEST SWAP1 PUSH1 0x7F AND SWAP1 PUSH3 0x144 JUMP JUMPDEST PUSH4 0x4E487B71 PUSH1 0xE0 SHL DUP4 MSTORE PUSH1 0x41 PUSH1 0x4 MSTORE PUSH1 0x24 DUP4 REVERT JUMPDEST ADD MLOAD SWAP1 POP CODESIZE DUP1 PUSH3 0x117 JUMP JUMPDEST SWAP1 DUP5 DUP12 SWAP5 AND SWAP2 PUSH1 0x2 DUP9 MSTORE DUP7 DUP9 KECCAK256 SWAP3 DUP9 JUMPDEST DUP9 DUP3 DUP3 LT PUSH3 0x2D9 JUMPI POP POP DUP5 GT PUSH3 0x2C0 JUMPI JUMPDEST POP POP POP DUP2 SHL ADD PUSH1 0x2 SSTORE PUSH3 0x12A JUMP JUMPDEST ADD MLOAD PUSH1 0x0 NOT DUP4 DUP14 SHL PUSH1 0xF8 AND SHR NOT AND SWAP1 SSTORE CODESIZE DUP1 DUP1 PUSH3 0x2B1 JUMP JUMPDEST DUP4 DUP6 ADD MLOAD DUP7 SSTORE DUP15 SWAP8 SWAP1 SWAP6 ADD SWAP5 SWAP4 DUP5 ADD SWAP4 ADD PUSH3 0x29E JUMP JUMPDEST SWAP1 SWAP2 POP PUSH1 0x2 DUP7 MSTORE DUP5 DUP7 KECCAK256 DUP9 DUP1 DUP6 ADD PUSH1 0x5 SHR DUP3 ADD SWAP3 DUP8 DUP7 LT PUSH3 0x33A JUMPI JUMPDEST SWAP2 DUP13 SWAP2 DUP7 SWAP6 SWAP5 SWAP4 ADD PUSH1 0x5 SHR ADD SWAP2 JUMPDEST DUP3 DUP2 LT PUSH3 0x32B JUMPI POP POP PUSH3 0x101 JUMP JUMPDEST DUP9 DUP2 SSTORE DUP6 SWAP5 POP DUP13 SWAP2 ADD PUSH3 0x31B JUMP JUMPDEST SWAP3 POP DUP2 SWAP3 PUSH3 0x30D JUMP JUMPDEST PUSH4 0x4E487B71 PUSH1 0xE0 SHL DUP7 MSTORE PUSH1 0x22 PUSH1 0x4 MSTORE PUSH1 0x24 DUP7 REVERT JUMPDEST SWAP1 PUSH1 0x7F AND SWAP1 PUSH3 0xEC JUMP JUMPDEST PUSH4 0x4E487B71 PUSH1 0xE0 SHL DUP6 MSTORE PUSH1 0x41 PUSH1 0x4 MSTORE PUSH1 0x24 DUP6 REVERT JUMPDEST PUSH1 0x0 DUP1 REVERT JUMPDEST PUSH4 0x4E487B71 PUSH1 0xE0 SHL PUSH1 0x0 MSTORE PUSH1 0x41 PUSH1 0x4 MSTORE PUSH1 0x24 PUSH1 0x0 REVERT JUMPDEST PUSH1 0x40 DUP1 MLOAD SWAP2 SWAP1 DUP3 ADD PUSH1 0x1 PUSH1 0x1 PUSH1 0x40 SHL SUB DUP2 GT DUP4 DUP3 LT OR PUSH3 0x37C JUMPI PUSH1 0x40 MSTORE JUMP INVALID PUSH1 0x80 DUP1 PUSH1 0x40 MSTORE PUSH1 0x4 CALLDATASIZE LT ISZERO PUSH2 0x13 JUMPI PUSH1 0x0 DUP1 REVERT JUMPDEST PUSH1 0x0 CALLDATALOAD PUSH1 0xE0 SHR SWAP1 DUP2 PUSH3 0xD64E76 EQ PUSH2 0x5D47 JUMPI POP DUP1 PUSH4 0x1FFC9A7 EQ PUSH2 0x5CD9 JUMPI DUP1 PUSH4 0x2EE3A52 EQ PUSH2 0x5A5E JUMPI DUP1 PUSH4 0x6FDDE03 EQ PUSH2 0x59B9 JUMPI DUP1 PUSH4 0x81812FC EQ PUSH2 0x599B JUMPI DUP1 PUSH4 0x95EA7B3 EQ PUSH2 0x5821 JUMPI DUP1 PUSH4 0xE50CEE5 EQ PUSH2 0x57E2 JUMPI DUP1 PUSH4 0x11AA5B34 EQ PUSH2 0x57BE JUMPI DUP1 PUSH4 0x1385FD92 EQ PUSH2 0x5786 JUMPI DUP1 PUSH4 0x16D81B38 EQ PUSH2 0x558E JUMPI DUP1 PUSH4 0x2053FBA6 EQ PUSH2 0x50D3 JUMPI DUP1 PUSH4 0x2148893F EQ PUSH2 0x4AD5 JUMPI DUP1 PUSH4 0x23B872DD EQ PUSH2 0x50AA JUMPI DUP1 PUSH4 0x332D56D7 EQ PUSH2 0x4FE9 JUMPI DUP1 PUSH4 0x3C2575D5 EQ PUSH2 0x4EE5 JUMPI DUP1 PUSH4 0x3CCFD60B EQ PUSH2 0x4DD2 JUMPI DUP1 PUSH4 0x42842E0E EQ PUSH2 0x4DAA JUMPI DUP1 PUSH4 0x4293E5CE EQ PUSH2 0x4CA8 JUMPI DUP1 PUSH4 0x45DE84DB EQ PUSH2 0x4C66 JUMPI DUP1 PUSH4 0x502AA3B5 EQ PUSH2 0x4C1D JUMPI DUP1 PUSH4 0x5AD6A580 EQ PUSH2 0x4B72 JUMPI DUP1 PUSH4 0x5BE20959 EQ PUSH2 0x4B0F JUMPI DUP1 PUSH4 0x607EB4E4 EQ PUSH2 0x4AD5 JUMPI DUP1 PUSH4 0x6352211E EQ PUSH2 0x4AA5 JUMPI DUP1 PUSH4 0x6F2C8599 EQ PUSH2 0x49BD JUMPI DUP1 PUSH4 0x6F77926B EQ PUSH2 0x4833 JUMPI DUP1 PUSH4 0x70A08231 EQ PUSH2 0x479C JUMPI DUP1 PUSH4 0x715018A6 EQ PUSH2 0x4755 JUMPI DUP1 PUSH4 0x7ACC0B20 EQ PUSH2 0x4596 JUMPI DUP1 PUSH4 0x7D3978DB EQ PUSH2 0x433F JUMPI DUP1 PUSH4 0x7E8555ED EQ PUSH2 0x3B4D JUMPI DUP1 PUSH4 0x8DA5CB5B EQ PUSH2 0x3B24 JUMPI DUP1 PUSH4 0x8F38CC7B EQ PUSH2 0x37FE JUMPI DUP1 PUSH4 0x9196DFCB EQ PUSH2 0x36EB JUMPI DUP1 PUSH4 0x95D89B41 EQ PUSH2 0x3609 JUMPI DUP1 PUSH4 0x97B6F393 EQ PUSH2 0x34E7 JUMPI DUP1 PUSH4 0x9D4A2255 EQ PUSH2 0x3354 JUMPI DUP1 PUSH4 0x9FA44DBF EQ PUSH2 0x330C JUMPI DUP1 PUSH4 0xA22CB465 EQ PUSH2 0x3241 JUMPI DUP1 PUSH4 0xA22FB387 EQ PUSH2 0x31B0 JUMPI DUP1 PUSH4 0xA323D29E EQ PUSH2 0x305D JUMPI DUP1 PUSH4 0xAF55ED64 EQ PUSH2 0x302C JUMPI DUP1 PUSH4 0xB27E1697 EQ PUSH2 0x2F28 JUMPI DUP1 PUSH4 0xB88D4FDE EQ PUSH2 0x2EC9 JUMPI DUP1 PUSH4 0xB95A0628 EQ PUSH2 0x2E8E JUMPI DUP1 PUSH4 0xB9DB15B4 EQ PUSH2 0x2C74 JUMPI DUP1 PUSH4 0xC1302B34 EQ PUSH2 0x2C1C JUMPI DUP1 PUSH4 0xC64B8A8F EQ PUSH2 0x2BDD JUMPI DUP1 PUSH4 0xC87B56DD EQ PUSH2 0x2B83 JUMPI DUP1 PUSH4 0xD2BC9D78 EQ PUSH2 0x28F2 JUMPI DUP1 PUSH4 0xD637DCFA EQ PUSH2 0x23F9 JUMPI DUP1 PUSH4 0xDADD0A57 EQ PUSH2 0x20F9 JUMPI DUP1 PUSH4 0xDC298682 EQ PUSH2 0x1EA4 JUMPI DUP1 PUSH4 0xE01EF6E6 EQ PUSH2 0x1E86 JUMPI DUP1 PUSH4 0xE40971E5 EQ PUSH2 0xB28 JUMPI DUP1 PUSH4 0xE585CB2C EQ PUSH2 0xA85 JUMPI DUP1 PUSH4 0xE6A93E16 EQ PUSH2 0x7CB JUMPI DUP1 PUSH4 0xE985E9C5 EQ PUSH2 0x775 JUMPI DUP1 PUSH4 0xEB11C434 EQ PUSH2 0x743 JUMPI DUP1 PUSH4 0xF2FDE38B EQ PUSH2 0x694 JUMPI DUP1 PUSH4 0xF3052D26 EQ PUSH2 0x59A JUMPI PUSH4 0xFDCA4CA3 EQ PUSH2 0x2C8 JUMPI PUSH1 0x0 DUP1 REVERT JUMPDEST CALLVALUE PUSH2 0x595 JUMPI PUSH1 0x0 CALLDATASIZE PUSH1 0x3 NOT ADD SLT PUSH2 0x595 JUMPI PUSH1 0x8 DUP1 SLOAD PUSH1 0x0 PUSH1 0x1 JUMPDEST DUP3 DUP2 GT ISZERO PUSH2 0x534 JUMPI POP PUSH2 0x2F4 SWAP1 PUSH2 0x73A0 JUMP JUMPDEST SWAP1 PUSH1 0x0 SWAP3 PUSH1 0x1 JUMPDEST DUP3 DUP2 GT ISZERO PUSH2 0x315 JUMPI PUSH1 0x40 MLOAD DUP1 PUSH2 0x311 DUP7 DUP3 PUSH2 0x6001 JUMP JUMPDEST SUB SWAP1 RETURN JUMPDEST PUSH1 0x0 DUP2 DUP2 MSTORE PUSH1 0x15 PUSH1 0x20 SWAP1 DUP2 MSTORE PUSH1 0x40 SWAP1 SWAP2 KECCAK256 PUSH1 0x1 DUP2 ADD SLOAD PUSH1 0x1 PUSH1 0x1 PUSH1 0xA0 SHL SUB AND SWAP2 SWAP1 CALLER DUP4 EQ DUP1 PUSH2 0x522 JUMPI JUMPDEST PUSH2 0x355 JUMPI JUMPDEST POP POP POP PUSH2 0x350 SWAP1 PUSH2 0x7391 JUMP JUMPDEST PUSH2 0x2FB JUMP JUMPDEST PUSH1 0x40 SWAP8 SWAP4 SWAP8 MLOAD SWAP3 PUSH2 0x365 DUP5 PUSH2 0x608F JUMP JUMPDEST DUP2 SLOAD DUP5 MSTORE DUP3 DUP5 ADD MSTORE PUSH1 0x40 MLOAD PUSH2 0x388 DUP2 PUSH2 0x381 DUP2 PUSH1 0x2 DUP7 ADD PUSH2 0x6296 JUMP JUMPDEST SUB DUP3 PUSH2 0x616A JUMP JUMPDEST PUSH1 0x40 DUP5 ADD MSTORE PUSH1 0x40 MLOAD PUSH2 0x3A1 DUP2 PUSH2 0x381 DUP2 PUSH1 0x3 DUP7 ADD PUSH2 0x6296 JUMP JUMPDEST PUSH1 0x60 DUP5 ADD MSTORE PUSH1 0x4 DUP2 ADD SLOAD PUSH1 0x80 DUP5 ADD MSTORE PUSH1 0x5 DUP2 ADD SLOAD PUSH1 0xA0 DUP5 ADD MSTORE PUSH1 0x6 SWAP1 PUSH2 0x3C8 DUP3 DUP3 ADD PUSH2 0x66E1 JUMP JUMPDEST PUSH1 0xC0 DUP6 ADD MSTORE PUSH2 0x3D9 PUSH1 0x7 DUP3 ADD PUSH2 0x66E1 JUMP JUMPDEST PUSH1 0xE0 DUP6 ADD MSTORE PUSH2 0x3E9 DUP7 DUP3 ADD PUSH2 0x66E1 JUMP JUMPDEST PUSH2 0x100 DUP6 ADD MSTORE PUSH1 0x40 MLOAD PUSH2 0x403 DUP2 PUSH2 0x381 DUP2 PUSH1 0x9 DUP7 ADD PUSH2 0x6296 JUMP JUMPDEST PUSH2 0x120 DUP6 ADD MSTORE PUSH1 0x40 MLOAD PUSH2 0x41D DUP2 PUSH2 0x381 DUP2 PUSH1 0xA DUP7 ADD PUSH2 0x6296 JUMP JUMPDEST PUSH2 0x140 DUP6 ADD MSTORE PUSH1 0xB DUP2 ADD SLOAD PUSH2 0x160 DUP6 ADD MSTORE PUSH1 0x40 MLOAD PUSH2 0x442 DUP2 PUSH2 0x381 DUP2 PUSH1 0xC DUP7 ADD PUSH2 0x6296 JUMP JUMPDEST PUSH2 0x180 DUP6 ADD MSTORE PUSH1 0x40 MLOAD PUSH2 0x45C DUP2 PUSH2 0x381 DUP2 PUSH1 0xD DUP7 ADD PUSH2 0x6296 JUMP JUMPDEST PUSH2 0x1A0 DUP6 ADD MSTORE PUSH1 0xE DUP2 ADD SLOAD PUSH2 0x1C0 DUP6 ADD MSTORE PUSH1 0xF DUP2 ADD SLOAD PUSH1 0xFF DUP1 DUP3 AND ISZERO ISZERO PUSH2 0x1E0 DUP8 ADD MSTORE DUP2 DUP9 SHR DUP2 AND ISZERO ISZERO PUSH2 0x200 DUP8 ADD MSTORE PUSH1 0x10 SWAP2 DUP3 SHR AND ISZERO ISZERO PUSH2 0x220 DUP7 ADD MSTORE ADD DUP1 SLOAD SWAP2 SWAP1 PUSH2 0x4A8 DUP4 PUSH2 0x66CA JUMP JUMPDEST SWAP4 PUSH2 0x4B6 PUSH1 0x40 MLOAD SWAP6 DUP7 PUSH2 0x616A JUMP JUMPDEST DUP4 DUP6 MSTORE PUSH1 0x0 SWAP2 DUP3 MSTORE DUP1 DUP3 KECCAK256 SWAP2 DUP2 DUP7 ADD JUMPDEST DUP6 DUP3 LT PUSH2 0x506 JUMPI POP POP POP POP POP POP SWAP2 DUP2 PUSH2 0x350 SWAP4 PUSH2 0x240 PUSH2 0x4FD SWAP5 ADD MSTORE PUSH2 0x4EC DUP3 DUP9 PUSH2 0x73F0 JUMP JUMPDEST MSTORE PUSH2 0x4F7 DUP2 DUP8 PUSH2 0x73F0 JUMP JUMPDEST POP PUSH2 0x7391 JUMP JUMPDEST SWAP5 SWAP1 CODESIZE DUP1 PUSH2 0x344 JUMP JUMPDEST DUP5 DUP4 PUSH1 0x1 SWAP3 PUSH2 0x514 DUP8 PUSH2 0x7330 JUMP JUMPDEST DUP2 MSTORE ADD SWAP5 ADD SWAP2 ADD SWAP1 SWAP3 PUSH2 0x4C6 JUMP JUMPDEST POP PUSH1 0xFF PUSH1 0xF DUP3 ADD SLOAD PUSH1 0x10 SHR AND ISZERO PUSH2 0x33F JUMP JUMPDEST PUSH1 0x0 DUP2 DUP2 MSTORE PUSH1 0x15 PUSH1 0x20 MSTORE PUSH1 0x40 SWAP1 KECCAK256 PUSH1 0x1 DUP2 ADD SLOAD PUSH1 0x1 PUSH1 0x1 PUSH1 0xA0 SHL SUB AND CALLER EQ SWAP1 DUP2 PUSH2 0x582 JUMPI JUMPDEST POP PUSH2 0x56D JUMPI JUMPDEST PUSH2 0x568 SWAP1 PUSH2 0x7391 JUMP JUMPDEST PUSH2 0x2E2 JUMP JUMPDEST SWAP1 PUSH2 0x57A PUSH2 0x568 SWAP2 PUSH2 0x7391 JUMP JUMPDEST SWAP2 SWAP1 POP PUSH2 0x55F JUMP JUMPDEST PUSH1 0xFF SWAP2 POP PUSH1 0xF ADD SLOAD PUSH1 0x10 SHR AND ISZERO CODESIZE PUSH2 0x559 JUMP JUMPDEST PUSH1 0x0 DUP1 REVERT JUMPDEST CALLVALUE PUSH2 0x595 JUMPI PUSH1 0x20 CALLDATASIZE PUSH1 0x3 NOT ADD SLT PUSH2 0x595 JUMPI PUSH1 0x4 CALLDATALOAD PUSH1 0x0 MSTORE PUSH1 0x18 PUSH1 0x20 MSTORE PUSH1 0x40 PUSH1 0x0 KECCAK256 PUSH1 0x40 MLOAD PUSH2 0x5C7 DUP2 PUSH2 0x60FE JUMP JUMPDEST DUP2 SLOAD DUP2 MSTORE PUSH1 0x40 MLOAD SWAP1 PUSH2 0x5E7 DUP3 PUSH2 0x5E0 DUP2 PUSH1 0x1 DUP8 ADD PUSH2 0x6296 JUMP JUMPDEST SUB DUP4 PUSH2 0x616A JUMP JUMPDEST PUSH1 0x20 DUP2 ADD SWAP2 DUP3 MSTORE PUSH2 0x60B PUSH1 0x3 PUSH1 0xFF PUSH1 0x2 DUP7 ADD SLOAD AND SWAP5 PUSH1 0x40 DUP5 ADD SWAP6 ISZERO ISZERO DUP7 MSTORE ADD PUSH2 0x7404 JUMP JUMPDEST PUSH1 0x60 DUP3 ADD SWAP1 DUP2 MSTORE DUP2 MLOAD ISZERO PUSH2 0x655 JUMPI PUSH2 0x311 SWAP2 MLOAD SWAP3 MLOAD SWAP4 MLOAD ISZERO ISZERO SWAP1 MLOAD PUSH2 0x642 PUSH1 0x40 MLOAD SWAP6 DUP7 SWAP6 DUP7 MSTORE PUSH1 0x80 PUSH1 0x20 DUP8 ADD MSTORE PUSH1 0x80 DUP7 ADD SWAP1 PUSH2 0x5D74 JUMP JUMPDEST SWAP2 PUSH1 0x40 DUP6 ADD MSTORE DUP4 DUP3 SUB PUSH1 0x60 DUP6 ADD MSTORE PUSH2 0x6845 JUMP JUMPDEST PUSH1 0x40 MLOAD PUSH3 0x461BCD PUSH1 0xE5 SHL DUP2 MSTORE PUSH1 0x20 PUSH1 0x4 DUP3 ADD MSTORE PUSH1 0x17 PUSH1 0x24 DUP3 ADD MSTORE PUSH23 0x10D85D1959DBDC9E48191BD95CC81B9BDD08195E1A5CDD PUSH1 0x4A SHL PUSH1 0x44 DUP3 ADD MSTORE PUSH1 0x64 SWAP1 REVERT JUMPDEST CALLVALUE PUSH2 0x595 JUMPI PUSH1 0x20 CALLDATASIZE PUSH1 0x3 NOT ADD SLT PUSH2 0x595 JUMPI PUSH2 0x6AD PUSH2 0x6063 JUMP JUMPDEST PUSH2 0x6B5 PUSH2 0x6879 JUMP JUMPDEST PUSH1 0x1 PUSH1 0x1 PUSH1 0xA0 SHL SUB SWAP1 DUP2 AND SWAP1 DUP2 ISZERO PUSH2 0x6EF JUMPI PUSH1 0x0 SLOAD DUP3 PUSH1 0x1 DUP1 PUSH1 0xA0 SHL SUB NOT DUP3 AND OR PUSH1 0x0 SSTORE AND PUSH1 0x0 DUP1 MLOAD PUSH1 0x20 PUSH2 0x895C DUP4 CODECOPY DUP2 MLOAD SWAP2 MSTORE PUSH1 0x0 DUP1 LOG3 STOP JUMPDEST PUSH1 0x40 MLOAD PUSH3 0x461BCD PUSH1 0xE5 SHL DUP2 MSTORE PUSH1 0x20 PUSH1 0x4 DUP3 ADD MSTORE PUSH1 0x26 PUSH1 0x24 DUP3 ADD MSTORE PUSH32 0x4F776E61626C653A206E6577206F776E657220697320746865207A65726F2061 PUSH1 0x44 DUP3 ADD MSTORE PUSH6 0x646472657373 PUSH1 0xD0 SHL PUSH1 0x64 DUP3 ADD MSTORE PUSH1 0x84 SWAP1 REVERT JUMPDEST CALLVALUE PUSH2 0x595 JUMPI PUSH1 0x20 CALLDATASIZE PUSH1 0x3 NOT ADD SLT PUSH2 0x595 JUMPI PUSH1 0x20 PUSH2 0x766 PUSH2 0x761 PUSH2 0x6063 JUMP JUMPDEST PUSH2 0x6E93 JUMP JUMPDEST PUSH2 0x773 PUSH1 0x40 MLOAD DUP1 SWAP3 PUSH2 0x65BD JUMP JUMPDEST RETURN JUMPDEST CALLVALUE PUSH2 0x595 JUMPI PUSH1 0x40 CALLDATASIZE PUSH1 0x3 NOT ADD SLT PUSH2 0x595 JUMPI PUSH2 0x78E PUSH2 0x6063 JUMP JUMPDEST PUSH2 0x796 PUSH2 0x6079 JUMP JUMPDEST SWAP1 PUSH1 0x1 DUP1 PUSH1 0xA0 SHL SUB DUP1 SWAP2 AND PUSH1 0x0 MSTORE PUSH1 0x7 PUSH1 0x20 MSTORE PUSH1 0x40 PUSH1 0x0 KECCAK256 SWAP2 AND PUSH1 0x0 MSTORE PUSH1 0x20 MSTORE PUSH1 0x20 PUSH1 0xFF PUSH1 0x40 PUSH1 0x0 KECCAK256 SLOAD AND PUSH1 0x40 MLOAD SWAP1 ISZERO ISZERO DUP2 MSTORE RETURN JUMPDEST CALLVALUE PUSH2 0x595 JUMPI PUSH1 0x20 CALLDATASIZE PUSH1 0x3 NOT ADD SLT PUSH2 0x595 JUMPI PUSH2 0x7E4 PUSH2 0x6063 JUMP JUMPDEST PUSH1 0x8 SLOAD PUSH1 0x0 PUSH1 0x1 JUMPDEST DUP3 DUP2 GT ISZERO PUSH2 0xA21 JUMPI POP PUSH2 0x7FE SWAP1 PUSH2 0x73A0 JUMP JUMPDEST SWAP1 PUSH1 0x1 PUSH1 0x0 JUMPDEST DUP3 DUP3 GT ISZERO PUSH2 0x81A JUMPI PUSH1 0x40 MLOAD DUP1 PUSH2 0x311 DUP7 DUP3 PUSH2 0x6001 JUMP JUMPDEST PUSH1 0x0 DUP3 DUP2 MSTORE PUSH1 0x15 PUSH1 0x20 MSTORE PUSH1 0x40 SWAP1 KECCAK256 PUSH1 0x1 DUP2 ADD SLOAD PUSH1 0x1 PUSH1 0x1 PUSH1 0xA0 SHL SUB SWAP1 DUP2 AND SWAP2 SWAP1 DUP8 AND DUP3 EQ DUP1 PUSH2 0xA0F JUMPI JUMPDEST PUSH2 0x85B JUMPI JUMPDEST POP POP SWAP1 PUSH2 0x855 SWAP1 PUSH2 0x7391 JUMP JUMPDEST SWAP1 PUSH2 0x804 JUMP JUMPDEST PUSH1 0x40 MLOAD SWAP2 PUSH2 0x868 DUP4 PUSH2 0x608F JUMP JUMPDEST DUP2 SLOAD DUP4 MSTORE PUSH1 0x20 DUP4 ADD MSTORE PUSH1 0x40 MLOAD PUSH2 0x885 DUP2 PUSH2 0x381 DUP2 PUSH1 0x2 DUP7 ADD PUSH2 0x6296 JUMP JUMPDEST PUSH1 0x40 DUP4 ADD MSTORE PUSH1 0x40 MLOAD PUSH2 0x89E DUP2 PUSH2 0x381 DUP2 PUSH1 0x3 DUP7 ADD PUSH2 0x6296 JUMP JUMPDEST PUSH1 0x60 DUP4 ADD MSTORE PUSH1 0x4 DUP2 ADD SLOAD PUSH1 0x80 DUP4 ADD MSTORE PUSH1 0x5 DUP2 ADD SLOAD PUSH1 0xA0 DUP4 ADD MSTORE PUSH2 0x8C3 PUSH1 0x6 DUP3 ADD PUSH2 0x66E1 JUMP JUMPDEST PUSH1 0xC0 DUP4 ADD MSTORE PUSH2 0x8D4 PUSH1 0x7 DUP3 ADD PUSH2 0x66E1 JUMP JUMPDEST PUSH1 0xE0 DUP4 ADD MSTORE PUSH2 0x8E5 PUSH1 0x8 DUP3 ADD PUSH2 0x66E1 JUMP JUMPDEST PUSH2 0x100 DUP4 ADD MSTORE PUSH1 0x40 MLOAD PUSH2 0x8FF DUP2 PUSH2 0x381 DUP2 PUSH1 0x9 DUP7 ADD PUSH2 0x6296 JUMP JUMPDEST PUSH2 0x120 DUP4 ADD MSTORE PUSH1 0x40 MLOAD PUSH2 0x919 DUP2 PUSH2 0x381 DUP2 PUSH1 0xA DUP7 ADD PUSH2 0x6296 JUMP JUMPDEST PUSH2 0x140 DUP4 ADD MSTORE PUSH1 0xB DUP2 ADD SLOAD PUSH2 0x160 DUP4 ADD MSTORE PUSH1 0x40 MLOAD PUSH2 0x93E DUP2 PUSH2 0x381 DUP2 PUSH1 0xC DUP7 ADD PUSH2 0x6296 JUMP JUMPDEST PUSH2 0x180 DUP4 ADD MSTORE PUSH1 0x40 MLOAD PUSH2 0x958 DUP2 PUSH2 0x381 DUP2 PUSH1 0xD DUP7 ADD PUSH2 0x6296 JUMP JUMPDEST PUSH2 0x1A0 DUP4 ADD MSTORE PUSH1 0xE DUP2 ADD SLOAD PUSH2 0x1C0 DUP4 ADD MSTORE PUSH1 0xF DUP2 ADD SLOAD SWAP1 PUSH1 0xFF DUP1 DUP4 AND ISZERO ISZERO PUSH2 0x1E0 DUP6 ADD MSTORE DUP1 DUP4 PUSH1 0x8 SHR AND ISZERO ISZERO PUSH2 0x200 DUP6 ADD MSTORE PUSH1 0x10 SWAP3 DUP4 SHR AND ISZERO ISZERO PUSH2 0x220 DUP5 ADD MSTORE ADD DUP1 SLOAD SWAP1 PUSH2 0x9A5 DUP3 PUSH2 0x66CA JUMP JUMPDEST SWAP2 PUSH2 0x9B3 PUSH1 0x40 MLOAD SWAP4 DUP5 PUSH2 0x616A JUMP JUMPDEST DUP1 DUP4 MSTORE PUSH1 0x20 DUP4 ADD SWAP2 PUSH1 0x0 MSTORE PUSH1 0x20 PUSH1 0x0 KECCAK256 PUSH1 0x0 SWAP3 JUMPDEST DUP3 DUP5 LT PUSH2 0x9F1 JUMPI POP POP POP POP PUSH2 0x240 DUP3 ADD MSTORE PUSH2 0x855 SWAP2 PUSH2 0x9EA SWAP2 PUSH2 0x4EC DUP3 DUP9 PUSH2 0x73F0 JUMP JUMPDEST SWAP1 DUP7 PUSH2 0x849 JUMP JUMPDEST PUSH1 0x6 PUSH1 0x20 PUSH1 0x1 SWAP3 PUSH2 0xA01 DUP6 PUSH2 0x7330 JUMP JUMPDEST DUP2 MSTORE ADD SWAP3 ADD SWAP4 ADD SWAP3 SWAP1 PUSH2 0x9C7 JUMP JUMPDEST POP PUSH1 0xFF PUSH1 0xF DUP3 ADD SLOAD PUSH1 0x10 SHR AND ISZERO PUSH2 0x844 JUMP JUMPDEST PUSH1 0x0 DUP2 DUP2 MSTORE PUSH1 0x15 PUSH1 0x20 MSTORE PUSH1 0x40 SWAP1 KECCAK256 PUSH1 0x1 DUP2 ADD SLOAD PUSH1 0x1 PUSH1 0x1 PUSH1 0xA0 SHL SUB DUP7 DUP2 AND SWAP2 AND EQ SWAP1 DUP2 PUSH2 0xA72 JUMPI JUMPDEST POP PUSH2 0xA5D JUMPI JUMPDEST PUSH2 0xA58 SWAP1 PUSH2 0x7391 JUMP JUMPDEST PUSH2 0x7EC JUMP JUMPDEST SWAP1 PUSH2 0xA6A PUSH2 0xA58 SWAP2 PUSH2 0x7391 JUMP JUMPDEST SWAP2 SWAP1 POP PUSH2 0xA4F JUMP JUMPDEST PUSH1 0xFF SWAP2 POP PUSH1 0xF ADD SLOAD PUSH1 0x10 SHR AND ISZERO DUP6 PUSH2 0xA49 JUMP JUMPDEST CALLVALUE PUSH2 0x595 JUMPI PUSH1 0x40 CALLDATASIZE PUSH1 0x3 NOT ADD SLT PUSH2 0x595 JUMPI PUSH2 0xA9E PUSH2 0x6063 JUMP JUMPDEST PUSH1 0x1 PUSH1 0x1 PUSH1 0xA0 SHL SUB SWAP1 DUP2 AND PUSH1 0x0 SWAP1 DUP2 MSTORE PUSH1 0x1C PUSH1 0x20 MSTORE PUSH1 0x40 SWAP1 KECCAK256 DUP1 SLOAD PUSH1 0x24 CALLDATALOAD SWAP1 DUP2 LT ISZERO PUSH2 0x595 JUMPI PUSH2 0xACD SWAP2 PUSH2 0x65E2 JUMP JUMPDEST POP SWAP1 PUSH2 0x311 DUP3 SLOAD PUSH1 0x1 DUP5 ADD SLOAD SWAP4 PUSH1 0x2 DUP2 ADD SLOAD SWAP2 PUSH1 0x3 DUP3 ADD SLOAD SWAP1 PUSH1 0x4 DUP4 ADD SLOAD DUP7 PUSH1 0x5 DUP6 ADD SLOAD AND SWAP1 PUSH1 0x6 DUP6 ADD SLOAD SWAP4 PUSH2 0xB11 PUSH1 0xF PUSH2 0xB0A PUSH1 0x7 DUP10 ADD PUSH2 0x65FE JUMP JUMPDEST SWAP8 ADD PUSH2 0x6746 JUMP JUMPDEST SWAP7 PUSH1 0x40 MLOAD SWAP11 DUP12 SWAP11 PUSH1 0xFF DUP9 PUSH1 0xA0 SHR AND SWAP8 AND SWAP6 DUP12 PUSH2 0x67E1 JUMP JUMPDEST CALLVALUE PUSH2 0x595 JUMPI PUSH1 0x3 NOT PUSH1 0x20 CALLDATASIZE DUP3 ADD SLT PUSH2 0x595 JUMPI PUSH1 0x1 PUSH1 0x1 PUSH1 0x40 SHL SUB PUSH1 0x4 CALLDATALOAD GT PUSH2 0x595 JUMPI PUSH2 0x1A0 SWAP1 PUSH1 0x4 CALLDATALOAD CALLDATASIZE SUB ADD SLT PUSH2 0x595 JUMPI CALLER PUSH1 0x0 MSTORE PUSH1 0x12 PUSH1 0x20 MSTORE PUSH1 0xFF PUSH1 0x40 PUSH1 0x0 KECCAK256 SLOAD AND PUSH1 0x4 DUP2 LT ISZERO PUSH2 0x1E70 JUMPI PUSH1 0x2 EQ DUP1 ISZERO PUSH2 0x1E5C JUMPI JUMPDEST ISZERO PUSH2 0x1E18 JUMPI PUSH2 0xB9D PUSH2 0xB94 PUSH1 0x4 DUP1 CALLDATALOAD ADD DUP1 PUSH2 0x6F07 JUMP JUMPDEST SWAP1 POP ISZERO ISZERO PUSH2 0x6DBE JUMP JUMPDEST PUSH2 0xBB1 PUSH1 0x24 PUSH1 0x4 CALLDATALOAD ADD PUSH1 0x4 CALLDATALOAD PUSH1 0x4 ADD PUSH2 0x6F07 JUMP JUMPDEST SWAP1 POP ISZERO PUSH2 0x1DD5 JUMPI PUSH1 0x44 PUSH1 0x4 CALLDATALOAD ADD CALLDATALOAD ISZERO PUSH2 0x1D91 JUMPI PUSH1 0x64 PUSH1 0x4 CALLDATALOAD ADD CALLDATALOAD ISZERO PUSH2 0x1D4D JUMPI PUSH2 0xBE4 PUSH1 0x84 PUSH1 0x4 CALLDATALOAD ADD PUSH1 0x4 CALLDATALOAD PUSH1 0x4 ADD PUSH2 0x6F39 JUMP JUMPDEST SWAP1 POP ISZERO PUSH2 0x1D0F JUMPI PUSH1 0xE4 PUSH1 0x4 CALLDATALOAD ADD CALLDATALOAD ISZERO PUSH2 0x1CBF JUMPI PUSH2 0x104 PUSH1 0x4 CALLDATALOAD ADD CALLDATALOAD ISZERO PUSH2 0x1C6C JUMPI PUSH2 0x124 PUSH1 0x4 CALLDATALOAD ADD CALLDATALOAD ISZERO PUSH2 0x1C27 JUMPI PUSH2 0x184 PUSH1 0x4 CALLDATALOAD ADD CALLDATALOAD ISZERO PUSH2 0x1BE5 JUMPI PUSH2 0xC32 PUSH1 0xC4 PUSH1 0x4 CALLDATALOAD ADD PUSH1 0x4 CALLDATALOAD PUSH1 0x4 ADD PUSH2 0x6F39 JUMP JUMPDEST SWAP1 POP ISZERO PUSH2 0x1BA7 JUMPI PUSH1 0x5 PUSH2 0xC4F PUSH1 0xC4 PUSH1 0x4 CALLDATALOAD ADD PUSH1 0x4 CALLDATALOAD PUSH1 0x4 ADD PUSH2 0x6F39 JUMP JUMPDEST SWAP1 POP GT PUSH2 0x1B63 JUMPI PUSH1 0x1 PUSH1 0x8 SLOAD ADD DUP1 PUSH1 0x8 SSTORE PUSH2 0xC68 PUSH2 0x6F6E JUMP JUMPDEST DUP2 DUP2 MSTORE CALLER PUSH1 0x20 DUP3 ADD MSTORE SWAP1 PUSH2 0xC8A PUSH2 0xC83 PUSH1 0x4 DUP1 CALLDATALOAD ADD DUP1 PUSH2 0x6F07 JUMP JUMPDEST CALLDATASIZE SWAP2 PUSH2 0x61A8 JUMP JUMPDEST PUSH1 0x40 DUP4 ADD MSTORE PUSH2 0xCA6 PUSH2 0xC83 PUSH1 0x24 PUSH1 0x4 CALLDATALOAD ADD PUSH1 0x4 CALLDATALOAD PUSH1 0x4 ADD PUSH2 0x6F07 JUMP JUMPDEST PUSH1 0x60 DUP4 ADD MSTORE PUSH1 0x44 PUSH1 0x4 CALLDATALOAD ADD CALLDATALOAD PUSH1 0x80 DUP4 ADD MSTORE PUSH1 0x64 PUSH1 0x4 CALLDATALOAD ADD CALLDATALOAD PUSH1 0xA0 DUP4 ADD MSTORE PUSH2 0xCE1 PUSH2 0xCDA PUSH1 0x84 PUSH1 0x4 CALLDATALOAD ADD PUSH1 0x4 CALLDATALOAD PUSH1 0x4 ADD PUSH2 0x6F39 JUMP JUMPDEST CALLDATASIZE SWAP2 PUSH2 0x6FFA JUMP JUMPDEST PUSH1 0xC0 DUP4 ADD MSTORE PUSH2 0xCFD PUSH2 0xCDA PUSH1 0xA4 PUSH1 0x4 CALLDATALOAD ADD PUSH1 0x4 CALLDATALOAD PUSH1 0x4 ADD PUSH2 0x6F39 JUMP JUMPDEST PUSH1 0xE0 DUP4 ADD MSTORE PUSH2 0xD19 PUSH2 0xCDA PUSH1 0xC4 PUSH1 0x4 CALLDATALOAD ADD PUSH1 0x4 CALLDATALOAD PUSH1 0x4 ADD PUSH2 0x6F39 JUMP JUMPDEST PUSH2 0x100 DUP4 ADD MSTORE PUSH1 0xE4 PUSH1 0x4 CALLDATALOAD ADD CALLDATALOAD PUSH1 0x0 MSTORE PUSH1 0x18 PUSH1 0x20 MSTORE PUSH2 0x381 PUSH2 0xD48 PUSH1 0x1 PUSH1 0x40 PUSH1 0x0 KECCAK256 ADD PUSH1 0x40 MLOAD SWAP3 DUP4 DUP1 SWAP3 PUSH2 0x6296 JUMP JUMPDEST PUSH2 0x120 DUP4 ADD MSTORE PUSH2 0x104 PUSH1 0x4 CALLDATALOAD ADD CALLDATALOAD PUSH1 0x0 MSTORE PUSH1 0x19 PUSH1 0x20 MSTORE PUSH2 0x381 PUSH2 0xD78 PUSH1 0x1 PUSH1 0x40 PUSH1 0x0 KECCAK256 ADD PUSH1 0x40 MLOAD SWAP3 DUP4 DUP1 SWAP3 PUSH2 0x6296 JUMP JUMPDEST PUSH2 0x140 DUP4 ADD MSTORE PUSH2 0xD96 PUSH2 0xC83 PUSH2 0x144 PUSH1 0x4 CALLDATALOAD ADD PUSH1 0x4 CALLDATALOAD PUSH1 0x4 ADD PUSH2 0x6F07 JUMP JUMPDEST PUSH2 0x180 DUP4 ADD MSTORE PUSH2 0xDB4 PUSH2 0xC83 PUSH2 0x164 PUSH1 0x4 CALLDATALOAD ADD PUSH1 0x4 CALLDATALOAD PUSH1 0x4 ADD PUSH2 0x6F07 JUMP JUMPDEST PUSH2 0x1A0 DUP4 ADD MSTORE PUSH1 0x4 CALLDATALOAD PUSH2 0x124 DUP2 ADD CALLDATALOAD PUSH2 0x160 DUP5 ADD MSTORE PUSH2 0x184 ADD CALLDATALOAD PUSH2 0x1C0 DUP4 ADD MSTORE CALLER ISZERO PUSH2 0x1B1F JUMPI PUSH2 0xDEC PUSH2 0xDE6 DUP3 PUSH2 0x6C34 JUMP JUMPDEST ISZERO PUSH2 0x725F JUMP JUMPDEST PUSH2 0xDF8 PUSH2 0xDE6 DUP3 PUSH2 0x6C34 JUMP JUMPDEST CALLER PUSH1 0x0 MSTORE PUSH1 0x5 PUSH1 0x20 MSTORE PUSH1 0x40 PUSH1 0x0 KECCAK256 PUSH1 0x1 DUP2 SLOAD ADD SWAP1 SSTORE DUP1 PUSH1 0x0 MSTORE PUSH1 0x4 PUSH1 0x20 MSTORE PUSH1 0x40 PUSH1 0x0 KECCAK256 CALLER PUSH1 0x1 DUP1 PUSH1 0xA0 SHL SUB NOT DUP3 SLOAD AND OR SWAP1 SSTORE DUP1 CALLER PUSH1 0x0 PUSH1 0x0 DUP1 MLOAD PUSH1 0x20 PUSH2 0x897C DUP4 CODECOPY DUP2 MLOAD SWAP2 MSTORE DUP2 DUP1 LOG4 PUSH1 0x15 PUSH1 0x20 MSTORE PUSH1 0x40 PUSH1 0x0 KECCAK256 SWAP1 DUP3 MLOAD DUP3 SSTORE PUSH1 0x1 DUP3 ADD PUSH1 0x1 DUP1 PUSH1 0xA0 SHL SUB PUSH1 0x20 DUP6 ADD MLOAD AND PUSH1 0x1 DUP1 PUSH1 0xA0 SHL SUB NOT DUP3 SLOAD AND OR SWAP1 SSTORE PUSH1 0x40 DUP4 ADD MLOAD SWAP3 DUP4 MLOAD PUSH1 0x1 DUP1 PUSH1 0x40 SHL SUB DUP2 GT PUSH2 0x1305 JUMPI PUSH2 0xE90 PUSH1 0x2 DUP6 ADD SLOAD PUSH2 0x625C JUMP JUMPDEST PUSH1 0x1F DUP2 GT PUSH2 0x1AEA JUMPI JUMPDEST POP PUSH1 0x20 PUSH1 0x1F DUP3 GT PUSH1 0x1 EQ PUSH2 0x1A7B JUMPI DUP2 SWAP3 SWAP4 SWAP5 SWAP6 PUSH1 0x0 SWAP3 PUSH2 0x1A70 JUMPI JUMPDEST POP POP DUP2 PUSH1 0x1 SHL SWAP2 PUSH1 0x0 NOT SWAP1 PUSH1 0x3 SHL SHR NOT AND OR PUSH1 0x2 DUP5 ADD SSTORE JUMPDEST PUSH1 0x60 DUP2 ADD MLOAD DUP1 MLOAD SWAP1 SWAP4 SWAP1 PUSH1 0x1 PUSH1 0x1 PUSH1 0x40 SHL SUB DUP2 GT PUSH2 0x1305 JUMPI PUSH2 0xEF1 PUSH1 0x3 DUP4 ADD SLOAD PUSH2 0x625C JUMP JUMPDEST PUSH1 0x1F DUP2 GT PUSH2 0x1A3B JUMPI JUMPDEST POP PUSH1 0x20 PUSH1 0x1F DUP3 GT PUSH1 0x1 EQ PUSH2 0x19CC JUMPI DUP2 SWAP3 SWAP4 SWAP5 SWAP6 PUSH1 0x0 SWAP3 PUSH2 0x19C1 JUMPI JUMPDEST POP POP DUP2 PUSH1 0x1 SHL SWAP2 PUSH1 0x0 NOT SWAP1 PUSH1 0x3 SHL SHR NOT AND OR PUSH1 0x3 DUP3 ADD SSTORE JUMPDEST PUSH1 0x80 DUP3 ADD MLOAD PUSH1 0x4 DUP3 ADD SSTORE PUSH1 0xA0 DUP3 ADD MLOAD PUSH1 0x5 DUP3 ADD SSTORE PUSH1 0xC0 DUP3 ADD MLOAD DUP1 MLOAD SWAP1 PUSH1 0x1 PUSH1 0x40 SHL DUP3 GT PUSH2 0x1305 JUMPI PUSH1 0x6 DUP4 ADD SLOAD DUP3 PUSH1 0x6 DUP6 ADD SSTORE DUP1 DUP4 LT PUSH2 0x198E JUMPI JUMPDEST POP PUSH1 0x20 ADD SWAP1 PUSH1 0x6 DUP4 ADD PUSH1 0x0 MSTORE PUSH1 0x20 PUSH1 0x0 KECCAK256 SWAP2 PUSH1 0x0 SWAP1 JUMPDEST DUP3 DUP3 LT PUSH2 0x1879 JUMPI POP POP POP POP PUSH1 0xE0 DUP3 ADD MLOAD DUP1 MLOAD SWAP1 PUSH1 0x1 PUSH1 0x40 SHL DUP3 GT PUSH2 0x1305 JUMPI PUSH1 0x7 DUP4 ADD SLOAD DUP3 PUSH1 0x7 DUP6 ADD SSTORE DUP1 DUP4 LT PUSH2 0x1846 JUMPI JUMPDEST POP PUSH1 0x20 ADD SWAP1 PUSH1 0x7 DUP4 ADD PUSH1 0x0 MSTORE PUSH1 0x20 PUSH1 0x0 KECCAK256 SWAP2 PUSH1 0x0 SWAP1 JUMPDEST DUP3 DUP3 LT PUSH2 0x1731 JUMPI POP POP POP POP PUSH2 0x100 DUP3 ADD MLOAD DUP1 MLOAD SWAP1 PUSH1 0x1 PUSH1 0x40 SHL DUP3 GT PUSH2 0x1305 JUMPI PUSH1 0x8 DUP4 ADD SLOAD DUP3 PUSH1 0x8 DUP6 ADD SSTORE DUP1 DUP4 LT PUSH2 0x16FE JUMPI JUMPDEST POP PUSH1 0x20 ADD SWAP1 PUSH1 0x8 DUP4 ADD PUSH1 0x0 MSTORE PUSH1 0x20 PUSH1 0x0 KECCAK256 SWAP2 PUSH1 0x0 SWAP1 JUMPDEST DUP3 DUP3 LT PUSH2 0x15E9 JUMPI POP POP POP POP PUSH2 0x120 DUP3 ADD MLOAD DUP1 MLOAD SWAP1 SWAP4 SWAP1 PUSH1 0x1 PUSH1 0x1 PUSH1 0x40 SHL SUB DUP2 GT PUSH2 0x1305 JUMPI PUSH2 0x103D PUSH1 0x9 DUP5 ADD SLOAD PUSH2 0x625C JUMP JUMPDEST PUSH1 0x1F DUP2 GT PUSH2 0x15B4 JUMPI JUMPDEST POP PUSH1 0x20 PUSH1 0x1F DUP3 GT PUSH1 0x1 EQ PUSH2 0x1545 JUMPI DUP2 SWAP3 SWAP4 SWAP5 SWAP6 PUSH1 0x0 SWAP3 PUSH2 0x153A JUMPI JUMPDEST POP POP DUP2 PUSH1 0x1 SHL SWAP2 PUSH1 0x0 NOT SWAP1 PUSH1 0x3 SHL SHR NOT AND OR PUSH1 0x9 DUP4 ADD SSTORE JUMPDEST PUSH2 0x140 DUP4 ADD MLOAD DUP1 MLOAD SWAP1 SWAP4 SWAP1 PUSH1 0x1 PUSH1 0x1 PUSH1 0x40 SHL SUB DUP2 GT PUSH2 0x1305 JUMPI PUSH2 0x109F PUSH1 0xA DUP6 ADD SLOAD PUSH2 0x625C JUMP JUMPDEST PUSH1 0x1F DUP2 GT PUSH2 0x1505 JUMPI JUMPDEST POP PUSH1 0x20 PUSH1 0x1F DUP3 GT PUSH1 0x1 EQ PUSH2 0x1496 JUMPI DUP2 SWAP3 SWAP4 SWAP5 SWAP6 PUSH1 0x0 SWAP3 PUSH2 0x148B JUMPI JUMPDEST POP POP DUP2 PUSH1 0x1 SHL SWAP2 PUSH1 0x0 NOT SWAP1 PUSH1 0x3 SHL SHR NOT AND OR PUSH1 0xA DUP5 ADD SSTORE JUMPDEST PUSH2 0x160 DUP2 ADD MLOAD PUSH1 0xB DUP5 ADD SSTORE PUSH2 0x180 DUP2 ADD MLOAD DUP1 MLOAD SWAP1 SWAP4 SWAP1 PUSH1 0x1 PUSH1 0x1 PUSH1 0x40 SHL SUB DUP2 GT PUSH2 0x1305 JUMPI PUSH2 0x110C PUSH1 0xC DUP4 ADD SLOAD PUSH2 0x625C JUMP JUMPDEST PUSH1 0x1F DUP2 GT PUSH2 0x1456 JUMPI JUMPDEST POP PUSH1 0x20 PUSH1 0x1F DUP3 GT PUSH1 0x1 EQ PUSH2 0x13E7 JUMPI DUP2 SWAP3 SWAP4 SWAP5 SWAP6 PUSH1 0x0 SWAP3 PUSH2 0x13DC JUMPI JUMPDEST POP POP DUP2 PUSH1 0x1 SHL SWAP2 PUSH1 0x0 NOT SWAP1 PUSH1 0x3 SHL SHR NOT AND OR PUSH1 0xC DUP3 ADD SSTORE JUMPDEST PUSH2 0x1A0 DUP3 ADD MLOAD DUP1 MLOAD SWAP1 PUSH1 0x1 PUSH1 0x1 PUSH1 0x40 SHL SUB DUP3 GT PUSH2 0x1305 JUMPI PUSH2 0x116C PUSH1 0xD DUP5 ADD SLOAD PUSH2 0x625C JUMP JUMPDEST PUSH1 0x1F DUP2 GT PUSH2 0x139C JUMPI JUMPDEST POP PUSH1 0x20 SWAP1 PUSH1 0x1F DUP4 GT PUSH1 0x1 EQ PUSH2 0x1326 JUMPI SWAP2 DUP1 PUSH2 0x240 SWAP5 SWAP3 PUSH1 0x10 SWAP5 PUSH1 0x0 SWAP3 PUSH2 0x131B JUMPI JUMPDEST POP POP DUP2 PUSH1 0x1 SHL SWAP2 PUSH1 0x0 NOT SWAP1 PUSH1 0x3 SHL SHR NOT AND OR PUSH1 0xD DUP3 ADD SSTORE JUMPDEST PUSH2 0x1C0 DUP5 ADD MLOAD PUSH1 0xE DUP3 ADD SSTORE PUSH1 0xF DUP2 ADD PUSH2 0x11CE PUSH2 0x1E0 DUP7 ADD MLOAD ISZERO ISZERO DUP3 PUSH2 0x6C23 JUMP JUMPDEST PUSH2 0x200 DUP6 ADD MLOAD ISZERO ISZERO DUP2 SLOAD PUSH2 0xFF00 PUSH3 0xFF0000 PUSH2 0x220 DUP10 ADD MLOAD ISZERO ISZERO DUP8 SHL AND SWAP3 PUSH1 0x8 SHL AND SWAP1 PUSH3 0xFFFF00 NOT AND OR OR SWAP1 SSTORE ADD SWAP2 ADD MLOAD SWAP1 DUP2 MLOAD SWAP2 PUSH1 0x1 PUSH1 0x40 SHL DUP4 GT PUSH2 0x1305 JUMPI DUP2 SLOAD DUP4 DUP4 SSTORE DUP1 DUP5 LT PUSH2 0x1282 JUMPI JUMPDEST POP PUSH1 0x20 ADD SWAP1 PUSH1 0x0 MSTORE PUSH1 0x20 PUSH1 0x0 KECCAK256 PUSH1 0x0 SWAP2 JUMPDEST DUP4 DUP4 LT PUSH2 0x1264 JUMPI PUSH2 0x1262 DUP6 DUP1 PUSH1 0x0 MSTORE PUSH1 0x17 PUSH1 0x20 MSTORE PUSH1 0x40 PUSH1 0x0 KECCAK256 PUSH1 0x1 PUSH1 0xFF NOT DUP3 SLOAD AND OR SWAP1 SSTORE CALLER PUSH1 0x0 MSTORE PUSH1 0x16 PUSH1 0x20 MSTORE PUSH1 0x40 PUSH1 0x0 KECCAK256 PUSH2 0x722A JUMP JUMPDEST STOP JUMPDEST PUSH1 0x6 PUSH1 0x20 DUP3 PUSH2 0x1276 PUSH1 0x1 SWAP5 MLOAD DUP7 PUSH2 0x70C6 JUMP JUMPDEST ADD SWAP3 ADD SWAP3 ADD SWAP2 SWAP1 PUSH2 0x122B JUMP JUMPDEST DUP1 PUSH1 0x6 MUL SWAP1 PUSH1 0x6 DUP3 DIV SUB PUSH2 0x12EF JUMPI DUP4 PUSH1 0x6 MUL PUSH1 0x6 DUP2 DIV DUP6 SUB PUSH2 0x12EF JUMPI DUP4 PUSH1 0x0 MSTORE PUSH1 0x20 PUSH1 0x0 KECCAK256 SWAP2 DUP3 ADD SWAP2 ADD JUMPDEST DUP2 DUP2 LT PUSH2 0x12BA JUMPI POP PUSH2 0x121A JUMP JUMPDEST DUP1 PUSH1 0x0 PUSH1 0x6 SWAP3 SSTORE PUSH1 0x0 PUSH1 0x1 DUP3 ADD SSTORE PUSH1 0x0 PUSH1 0x2 DUP3 ADD SSTORE PUSH2 0x12DB PUSH1 0x3 DUP3 ADD PUSH2 0x707C JUMP JUMPDEST PUSH1 0x0 PUSH1 0x4 DUP3 ADD SSTORE PUSH1 0x0 PUSH1 0x5 DUP3 ADD SSTORE ADD PUSH2 0x12AD JUMP JUMPDEST PUSH4 0x4E487B71 PUSH1 0xE0 SHL PUSH1 0x0 MSTORE PUSH1 0x11 PUSH1 0x4 MSTORE PUSH1 0x24 PUSH1 0x0 REVERT JUMPDEST PUSH4 0x4E487B71 PUSH1 0xE0 SHL PUSH1 0x0 MSTORE PUSH1 0x41 PUSH1 0x4 MSTORE PUSH1 0x24 PUSH1 0x0 REVERT JUMPDEST ADD MLOAD SWAP1 POP DUP8 DUP1 PUSH2 0x1196 JUMP JUMPDEST SWAP1 PUSH1 0xD DUP5 ADD PUSH1 0x0 MSTORE PUSH1 0x20 PUSH1 0x0 KECCAK256 SWAP2 PUSH1 0x0 JUMPDEST PUSH1 0x1F NOT DUP6 AND DUP2 LT PUSH2 0x1384 JUMPI POP SWAP3 PUSH2 0x240 SWAP5 SWAP3 PUSH1 0x1 SWAP3 PUSH1 0x10 SWAP6 DUP4 PUSH1 0x1F NOT DUP2 AND LT PUSH2 0x136B JUMPI JUMPDEST POP POP POP DUP2 SHL ADD PUSH1 0xD DUP3 ADD SSTORE PUSH2 0x11AE JUMP JUMPDEST ADD MLOAD PUSH1 0x0 NOT PUSH1 0xF8 DUP5 PUSH1 0x3 SHL AND SHR NOT AND SWAP1 SSTORE DUP8 DUP1 DUP1 PUSH2 0x135B JUMP JUMPDEST SWAP2 SWAP3 PUSH1 0x20 PUSH1 0x1 DUP2 SWAP3 DUP7 DUP6 ADD MLOAD DUP2 SSTORE ADD SWAP5 ADD SWAP3 ADD PUSH2 0x1337 JUMP JUMPDEST PUSH2 0x13CC SWAP1 PUSH1 0xD DUP6 ADD PUSH1 0x0 MSTORE PUSH1 0x20 PUSH1 0x0 KECCAK256 PUSH1 0x1F DUP6 ADD PUSH1 0x5 SHR DUP2 ADD SWAP2 PUSH1 0x20 DUP7 LT PUSH2 0x13D2 JUMPI JUMPDEST PUSH1 0x1F ADD PUSH1 0x5 SHR ADD SWAP1 PUSH2 0x6E01 JUMP JUMPDEST DUP6 PUSH2 0x1175 JUMP JUMPDEST SWAP1 SWAP2 POP DUP2 SWAP1 PUSH2 0x13BF JUMP JUMPDEST ADD MLOAD SWAP1 POP DUP6 DUP1 PUSH2 0x1130 JUMP JUMPDEST PUSH1 0xC DUP4 ADD PUSH1 0x0 MSTORE PUSH1 0x20 PUSH1 0x0 KECCAK256 SWAP1 PUSH1 0x0 JUMPDEST PUSH1 0x1F NOT DUP5 AND DUP2 LT PUSH2 0x143E JUMPI POP PUSH1 0x1 SWAP4 SWAP5 SWAP6 SWAP7 DUP4 PUSH1 0x1F NOT DUP2 AND LT PUSH2 0x1425 JUMPI JUMPDEST POP POP POP DUP2 SHL ADD PUSH1 0xC DUP3 ADD SSTORE PUSH2 0x1148 JUMP JUMPDEST ADD MLOAD PUSH1 0x0 NOT PUSH1 0xF8 DUP5 PUSH1 0x3 SHL AND SHR NOT AND SWAP1 SSTORE DUP6 DUP1 DUP1 PUSH2 0x1415 JUMP JUMPDEST SWAP1 SWAP2 PUSH1 0x20 PUSH1 0x1 DUP2 SWAP3 DUP6 DUP12 ADD MLOAD DUP2 SSTORE ADD SWAP4 ADD SWAP2 ADD PUSH2 0x13F7 JUMP JUMPDEST PUSH2 0x1485 SWAP1 PUSH1 0xC DUP5 ADD PUSH1 0x0 MSTORE PUSH1 0x20 PUSH1 0x0 KECCAK256 PUSH1 0x1F DUP5 ADD PUSH1 0x5 SHR DUP2 ADD SWAP2 PUSH1 0x20 DUP6 LT PUSH2 0x13D2 JUMPI PUSH1 0x1F ADD PUSH1 0x5 SHR ADD SWAP1 PUSH2 0x6E01 JUMP JUMPDEST DUP6 PUSH2 0x1115 JUMP JUMPDEST ADD MLOAD SWAP1 POP DUP6 DUP1 PUSH2 0x10C3 JUMP JUMPDEST PUSH1 0xA DUP6 ADD PUSH1 0x0 MSTORE PUSH1 0x20 PUSH1 0x0 KECCAK256 SWAP1 PUSH1 0x0 JUMPDEST PUSH1 0x1F NOT DUP5 AND DUP2 LT PUSH2 0x14ED JUMPI POP PUSH1 0x1 SWAP4 SWAP5 SWAP6 SWAP7 DUP4 PUSH1 0x1F NOT DUP2 AND LT PUSH2 0x14D4 JUMPI JUMPDEST POP POP POP DUP2 SHL ADD PUSH1 0xA DUP5 ADD SSTORE PUSH2 0x10DB JUMP JUMPDEST ADD MLOAD PUSH1 0x0 NOT PUSH1 0xF8 DUP5 PUSH1 0x3 SHL AND SHR NOT AND SWAP1 SSTORE DUP6 DUP1 DUP1 PUSH2 0x14C4 JUMP JUMPDEST SWAP1 SWAP2 PUSH1 0x20 PUSH1 0x1 DUP2 SWAP3 DUP6 DUP12 ADD MLOAD DUP2 SSTORE ADD SWAP4 ADD SWAP2 ADD PUSH2 0x14A6 JUMP JUMPDEST PUSH2 0x1534 SWAP1 PUSH1 0xA DUP7 ADD PUSH1 0x0 MSTORE PUSH1 0x20 PUSH1 0x0 KECCAK256 PUSH1 0x1F DUP5 ADD PUSH1 0x5 SHR DUP2 ADD SWAP2 PUSH1 0x20 DUP6 LT PUSH2 0x13D2 JUMPI PUSH1 0x1F ADD PUSH1 0x5 SHR ADD SWAP1 PUSH2 0x6E01 JUMP JUMPDEST DUP6 PUSH2 0x10A8 JUMP JUMPDEST ADD MLOAD SWAP1 POP DUP6 DUP1 PUSH2 0x1061 JUMP JUMPDEST PUSH1 0x9 DUP5 ADD PUSH1 0x0 MSTORE PUSH1 0x20 PUSH1 0x0 KECCAK256 SWAP1 PUSH1 0x0 JUMPDEST PUSH1 0x1F NOT DUP5 AND DUP2 LT PUSH2 0x159C JUMPI POP PUSH1 0x1 SWAP4 SWAP5 SWAP6 SWAP7 DUP4 PUSH1 0x1F NOT DUP2 AND LT PUSH2 0x1583 JUMPI JUMPDEST POP POP POP DUP2 SHL ADD PUSH1 0x9 DUP4 ADD SSTORE PUSH2 0x1079 JUMP JUMPDEST ADD MLOAD PUSH1 0x0 NOT PUSH1 0xF8 DUP5 PUSH1 0x3 SHL AND SHR NOT AND SWAP1 SSTORE DUP6 DUP1 DUP1 PUSH2 0x1573 JUMP JUMPDEST SWAP1 SWAP2 PUSH1 0x20 PUSH1 0x1 DUP2 SWAP3 DUP6 DUP12 ADD MLOAD DUP2 SSTORE ADD SWAP4 ADD SWAP2 ADD PUSH2 0x1555 JUMP JUMPDEST PUSH2 0x15E3 SWAP1 PUSH1 0x9 DUP6 ADD PUSH1 0x0 MSTORE PUSH1 0x20 PUSH1 0x0 KECCAK256 PUSH1 0x1F DUP5 ADD PUSH1 0x5 SHR DUP2 ADD SWAP2 PUSH1 0x20 DUP6 LT PUSH2 0x13D2 JUMPI PUSH1 0x1F ADD PUSH1 0x5 SHR ADD SWAP1 PUSH2 0x6E01 JUMP JUMPDEST DUP6 PUSH2 0x1046 JUMP JUMPDEST DUP1 MLOAD DUP1 MLOAD SWAP1 PUSH1 0x1 PUSH1 0x1 PUSH1 0x40 SHL SUB DUP3 GT PUSH2 0x1305 JUMPI PUSH2 0x1606 DUP7 SLOAD PUSH2 0x625C JUMP JUMPDEST PUSH1 0x1F DUP2 GT PUSH2 0x16CC JUMPI JUMPDEST POP PUSH1 0x20 SWAP1 PUSH1 0x1F DUP4 GT PUSH1 0x1 EQ PUSH2 0x165C JUMPI SWAP3 DUP3 PUSH1 0x1 SWAP5 SWAP4 PUSH1 0x20 SWAP4 DUP7 SWAP6 PUSH1 0x0 SWAP3 PUSH2 0x1651 JUMPI JUMPDEST POP POP PUSH1 0x0 NOT PUSH1 0x3 DUP4 SWAP1 SHL SHR NOT AND SWAP1 DUP5 SHL OR DUP8 SSTORE JUMPDEST ADD SWAP5 ADD SWAP2 ADD SWAP1 SWAP3 PUSH2 0x100C JUMP JUMPDEST ADD MLOAD SWAP1 POP DUP13 DUP1 PUSH2 0x1631 JUMP JUMPDEST SWAP1 DUP7 PUSH1 0x0 MSTORE PUSH1 0x20 PUSH1 0x0 KECCAK256 SWAP2 PUSH1 0x0 JUMPDEST PUSH1 0x1F NOT DUP6 AND DUP2 LT PUSH2 0x16B4 JUMPI POP DUP4 PUSH1 0x20 SWAP4 PUSH1 0x1 SWAP7 SWAP4 DUP8 SWAP7 SWAP4 DUP8 SWAP5 PUSH1 0x1F NOT DUP2 AND LT PUSH2 0x169B JUMPI JUMPDEST POP POP POP DUP2 SHL ADD DUP8 SSTORE PUSH2 0x1645 JUMP JUMPDEST ADD MLOAD PUSH1 0x0 NOT PUSH1 0xF8 DUP5 PUSH1 0x3 SHL AND SHR NOT AND SWAP1 SSTORE DUP13 DUP1 DUP1 PUSH2 0x168E JUMP JUMPDEST SWAP2 SWAP3 PUSH1 0x20 PUSH1 0x1 DUP2 SWAP3 DUP7 DUP6 ADD MLOAD DUP2 SSTORE ADD SWAP5 ADD SWAP3 ADD PUSH2 0x166A JUMP JUMPDEST PUSH2 0x16F8 SWAP1 DUP8 PUSH1 0x0 MSTORE PUSH1 0x20 PUSH1 0x0 KECCAK256 PUSH1 0x1F DUP6 ADD PUSH1 0x5 SHR DUP2 ADD SWAP2 PUSH1 0x20 DUP7 LT PUSH2 0x13D2 JUMPI PUSH1 0x1F ADD PUSH1 0x5 SHR ADD SWAP1 PUSH2 0x6E01 JUMP JUMPDEST DUP10 PUSH2 0x160F JUMP JUMPDEST PUSH1 0x8 DUP5 ADD PUSH1 0x0 MSTORE PUSH1 0x20 PUSH1 0x0 KECCAK256 SWAP1 DUP4 DUP3 ADD JUMPDEST DUP2 DUP4 ADD DUP2 LT PUSH2 0x171F JUMPI POP POP PUSH2 0xFF6 JUMP JUMPDEST DUP1 PUSH2 0x172B PUSH1 0x1 SWAP3 PUSH2 0x707C JUMP JUMPDEST ADD PUSH2 0x170F JUMP JUMPDEST DUP1 MLOAD DUP1 MLOAD SWAP1 PUSH1 0x1 PUSH1 0x1 PUSH1 0x40 SHL SUB DUP3 GT PUSH2 0x1305 JUMPI PUSH2 0x174E DUP7 SLOAD PUSH2 0x625C JUMP JUMPDEST PUSH1 0x1F DUP2 GT PUSH2 0x1814 JUMPI JUMPDEST POP PUSH1 0x20 SWAP1 PUSH1 0x1F DUP4 GT PUSH1 0x1 EQ PUSH2 0x17A4 JUMPI SWAP3 DUP3 PUSH1 0x1 SWAP5 SWAP4 PUSH1 0x20 SWAP4 DUP7 SWAP6 PUSH1 0x0 SWAP3 PUSH2 0x1799 JUMPI JUMPDEST POP POP PUSH1 0x0 NOT PUSH1 0x3 DUP4 SWAP1 SHL SHR NOT AND SWAP1 DUP5 SHL OR DUP8 SSTORE JUMPDEST ADD SWAP5 ADD SWAP2 ADD SWAP1 SWAP3 PUSH2 0xFC4 JUMP JUMPDEST ADD MLOAD SWAP1 POP DUP13 DUP1 PUSH2 0x1779 JUMP JUMPDEST SWAP1 DUP7 PUSH1 0x0 MSTORE PUSH1 0x20 PUSH1 0x0 KECCAK256 SWAP2 PUSH1 0x0 JUMPDEST PUSH1 0x1F NOT DUP6 AND DUP2 LT PUSH2 0x17FC JUMPI POP DUP4 PUSH1 0x20 SWAP4 PUSH1 0x1 SWAP7 SWAP4 DUP8 SWAP7 SWAP4 DUP8 SWAP5 PUSH1 0x1F NOT DUP2 AND LT PUSH2 0x17E3 JUMPI JUMPDEST POP POP POP DUP2 SHL ADD DUP8 SSTORE PUSH2 0x178D JUMP JUMPDEST ADD MLOAD PUSH1 0x0 NOT PUSH1 0xF8 DUP5 PUSH1 0x3 SHL AND SHR NOT AND SWAP1 SSTORE DUP13 DUP1 DUP1 PUSH2 0x17D6 JUMP JUMPDEST SWAP2 SWAP3 PUSH1 0x20 PUSH1 0x1 DUP2 SWAP3 DUP7 DUP6 ADD MLOAD DUP2 SSTORE ADD SWAP5 ADD SWAP3 ADD PUSH2 0x17B2 JUMP JUMPDEST PUSH2 0x1840 SWAP1 DUP8 PUSH1 0x0 MSTORE PUSH1 0x20 PUSH1 0x0 KECCAK256 PUSH1 0x1F DUP6 ADD PUSH1 0x5 SHR DUP2 ADD SWAP2 PUSH1 0x20 DUP7 LT PUSH2 0x13D2 JUMPI PUSH1 0x1F ADD PUSH1 0x5 SHR ADD SWAP1 PUSH2 0x6E01 JUMP JUMPDEST DUP10 PUSH2 0x1757 JUMP JUMPDEST PUSH1 0x7 DUP5 ADD PUSH1 0x0 MSTORE PUSH1 0x20 PUSH1 0x0 KECCAK256 SWAP1 DUP4 DUP3 ADD JUMPDEST DUP2 DUP4 ADD DUP2 LT PUSH2 0x1867 JUMPI POP POP PUSH2 0xFAE JUMP JUMPDEST DUP1 PUSH2 0x1873 PUSH1 0x1 SWAP3 PUSH2 0x707C JUMP JUMPDEST ADD PUSH2 0x1857 JUMP JUMPDEST DUP1 MLOAD DUP1 MLOAD SWAP1 PUSH1 0x1 PUSH1 0x1 PUSH1 0x40 SHL SUB DUP3 GT PUSH2 0x1305 JUMPI PUSH2 0x1896 DUP7 SLOAD PUSH2 0x625C JUMP JUMPDEST PUSH1 0x1F DUP2 GT PUSH2 0x195C JUMPI JUMPDEST POP PUSH1 0x20 SWAP1 PUSH1 0x1F DUP4 GT PUSH1 0x1 EQ PUSH2 0x18EC JUMPI SWAP3 DUP3 PUSH1 0x1 SWAP5 SWAP4 PUSH1 0x20 SWAP4 DUP7 SWAP6 PUSH1 0x0 SWAP3 PUSH2 0x18E1 JUMPI JUMPDEST POP POP PUSH1 0x0 NOT PUSH1 0x3 DUP4 SWAP1 SHL SHR NOT AND SWAP1 DUP5 SHL OR DUP8 SSTORE JUMPDEST ADD SWAP5 ADD SWAP2 ADD SWAP1 SWAP3 PUSH2 0xF7D JUMP JUMPDEST ADD MLOAD SWAP1 POP DUP13 DUP1 PUSH2 0x18C1 JUMP JUMPDEST SWAP1 DUP7 PUSH1 0x0 MSTORE PUSH1 0x20 PUSH1 0x0 KECCAK256 SWAP2 PUSH1 0x0 JUMPDEST PUSH1 0x1F NOT DUP6 AND DUP2 LT PUSH2 0x1944 JUMPI POP DUP4 PUSH1 0x20 SWAP4 PUSH1 0x1 SWAP7 SWAP4 DUP8 SWAP7 SWAP4 DUP8 SWAP5 PUSH1 0x1F NOT DUP2 AND LT PUSH2 0x192B JUMPI JUMPDEST POP POP POP DUP2 SHL ADD DUP8 SSTORE PUSH2 0x18D5 JUMP JUMPDEST ADD MLOAD PUSH1 0x0 NOT PUSH1 0xF8 DUP5 PUSH1 0x3 SHL AND SHR NOT AND SWAP1 SSTORE DUP13 DUP1 DUP1 PUSH2 0x191E JUMP JUMPDEST SWAP2 SWAP3 PUSH1 0x20 PUSH1 0x1 DUP2 SWAP3 DUP7 DUP6 ADD MLOAD DUP2 SSTORE ADD SWAP5 ADD SWAP3 ADD PUSH2 0x18FA JUMP JUMPDEST PUSH2 0x1988 SWAP1 DUP8 PUSH1 0x0 MSTORE PUSH1 0x20 PUSH1 0x0 KECCAK256 PUSH1 0x1F DUP6 ADD PUSH1 0x5 SHR DUP2 ADD SWAP2 PUSH1 0x20 DUP7 LT PUSH2 0x13D2 JUMPI PUSH1 0x1F ADD PUSH1 0x5 SHR ADD SWAP1 PUSH2 0x6E01 JUMP JUMPDEST DUP10 PUSH2 0x189F JUMP JUMPDEST PUSH1 0x6 DUP5 ADD PUSH1 0x0 MSTORE PUSH1 0x20 PUSH1 0x0 KECCAK256 SWAP1 DUP4 DUP3 ADD JUMPDEST DUP2 DUP4 ADD DUP2 LT PUSH2 0x19AF JUMPI POP POP PUSH2 0xF67 JUMP JUMPDEST DUP1 PUSH2 0x19BB PUSH1 0x1 SWAP3 PUSH2 0x707C JUMP JUMPDEST ADD PUSH2 0x199F JUMP JUMPDEST ADD MLOAD SWAP1 POP DUP6 DUP1 PUSH2 0xF15 JUMP JUMPDEST PUSH1 0x3 DUP4 ADD PUSH1 0x0 MSTORE PUSH1 0x20 PUSH1 0x0 KECCAK256 SWAP1 PUSH1 0x0 JUMPDEST PUSH1 0x1F NOT DUP5 AND DUP2 LT PUSH2 0x1A23 JUMPI POP PUSH1 0x1 SWAP4 SWAP5 SWAP6 SWAP7 DUP4 PUSH1 0x1F NOT DUP2 AND LT PUSH2 0x1A0A JUMPI JUMPDEST POP POP POP DUP2 SHL ADD PUSH1 0x3 DUP3 ADD SSTORE PUSH2 0xF2D JUMP JUMPDEST ADD MLOAD PUSH1 0x0 NOT PUSH1 0xF8 DUP5 PUSH1 0x3 SHL AND SHR NOT AND SWAP1 SSTORE DUP6 DUP1 DUP1 PUSH2 0x19FA JUMP JUMPDEST SWAP1 SWAP2 PUSH1 0x20 PUSH1 0x1 DUP2 SWAP3 DUP6 DUP12 ADD MLOAD DUP2 SSTORE ADD SWAP4 ADD SWAP2 ADD PUSH2 0x19DC JUMP JUMPDEST PUSH2 0x1A6A SWAP1 PUSH1 0x3 DUP5 ADD PUSH1 0x0 MSTORE PUSH1 0x20 PUSH1 0x0 KECCAK256 PUSH1 0x1F DUP5 ADD PUSH1 0x5 SHR DUP2 ADD SWAP2 PUSH1 0x20 DUP6 LT PUSH2 0x13D2 JUMPI PUSH1 0x1F ADD PUSH1 0x5 SHR ADD SWAP1 PUSH2 0x6E01 JUMP JUMPDEST DUP6 PUSH2 0xEFA JUMP JUMPDEST ADD MLOAD SWAP1 POP DUP6 DUP1 PUSH2 0xEB4 JUMP JUMPDEST PUSH1 0x2 DUP6 ADD PUSH1 0x0 MSTORE PUSH1 0x20 PUSH1 0x0 KECCAK256 SWAP1 PUSH1 0x0 JUMPDEST PUSH1 0x1F NOT DUP5 AND DUP2 LT PUSH2 0x1AD2 JUMPI POP PUSH1 0x1 SWAP4 SWAP5 SWAP6 SWAP7 DUP4 PUSH1 0x1F NOT DUP2 AND LT PUSH2 0x1AB9 JUMPI JUMPDEST POP POP POP DUP2 SHL ADD PUSH1 0x2 DUP5 ADD SSTORE PUSH2 0xECC JUMP JUMPDEST ADD MLOAD PUSH1 0x0 NOT PUSH1 0xF8 DUP5 PUSH1 0x3 SHL AND SHR NOT AND SWAP1 SSTORE DUP6 DUP1 DUP1 PUSH2 0x1AA9 JUMP JUMPDEST SWAP1 SWAP2 PUSH1 0x20 PUSH1 0x1 DUP2 SWAP3 DUP6 DUP12 ADD MLOAD DUP2 SSTORE ADD SWAP4 ADD SWAP2 ADD PUSH2 0x1A8B JUMP JUMPDEST PUSH2 0x1B19 SWAP1 PUSH1 0x2 DUP7 ADD PUSH1 0x0 MSTORE PUSH1 0x20 PUSH1 0x0 KECCAK256 PUSH1 0x1F DUP5 ADD PUSH1 0x5 SHR DUP2 ADD SWAP2 PUSH1 0x20 DUP6 LT PUSH2 0x13D2 JUMPI PUSH1 0x1F ADD PUSH1 0x5 SHR ADD SWAP1 PUSH2 0x6E01 JUMP JUMPDEST DUP6 PUSH2 0xE99 JUMP JUMPDEST PUSH1 0x64 PUSH1 0x40 MLOAD PUSH3 0x461BCD PUSH1 0xE5 SHL DUP2 MSTORE PUSH1 0x20 PUSH1 0x4 DUP3 ADD MSTORE PUSH1 0x20 PUSH1 0x24 DUP3 ADD MSTORE PUSH32 0x4552433732313A206D696E7420746F20746865207A65726F2061646472657373 PUSH1 0x44 DUP3 ADD MSTORE REVERT JUMPDEST PUSH1 0x40 MLOAD PUSH3 0x461BCD PUSH1 0xE5 SHL DUP2 MSTORE PUSH1 0x20 PUSH1 0x4 DUP3 ADD MSTORE PUSH1 0x1C PUSH1 0x24 DUP3 ADD MSTORE PUSH28 0x496D616765732063616E6E6F74206265206D6F7265207468616E2035 PUSH1 0x20 SHL PUSH1 0x44 DUP3 ADD MSTORE PUSH1 0x64 SWAP1 REVERT JUMPDEST PUSH1 0x40 MLOAD PUSH3 0x461BCD PUSH1 0xE5 SHL DUP2 MSTORE PUSH1 0x20 PUSH1 0x4 DUP3 ADD MSTORE PUSH1 0x16 PUSH1 0x24 DUP3 ADD MSTORE PUSH22 0x496D616765732063616E6E6F7420626520656D707479 PUSH1 0x50 SHL PUSH1 0x44 DUP3 ADD MSTORE PUSH1 0x64 SWAP1 REVERT JUMPDEST PUSH1 0x40 MLOAD PUSH3 0x461BCD PUSH1 0xE5 SHL DUP2 MSTORE PUSH1 0x20 PUSH1 0x4 DUP3 ADD MSTORE PUSH1 0x1A PUSH1 0x24 DUP3 ADD MSTORE PUSH26 0x534B55206D7573742062652067726561746572207468616E203 PUSH1 0x34 SHL PUSH1 0x44 DUP3 ADD MSTORE PUSH1 0x64 SWAP1 REVERT JUMPDEST PUSH1 0x40 MLOAD PUSH3 0x461BCD PUSH1 0xE5 SHL DUP2 MSTORE PUSH1 0x20 PUSH1 0x4 DUP3 ADD MSTORE PUSH1 0x1D PUSH1 0x24 DUP3 ADD MSTORE PUSH32 0x576569676874206D7573742062652067726561746572207468616E2030000000 PUSH1 0x44 DUP3 ADD MSTORE PUSH1 0x64 SWAP1 REVERT JUMPDEST PUSH1 0x40 MLOAD PUSH3 0x461BCD PUSH1 0xE5 SHL DUP2 MSTORE PUSH1 0x20 PUSH1 0x4 DUP3 ADD MSTORE PUSH1 0x25 PUSH1 0x24 DUP3 ADD MSTORE PUSH32 0x53756243617465676F7279204944206D75737420626520677265617465722074 PUSH1 0x44 DUP3 ADD MSTORE PUSH5 0x68616E203 PUSH1 0xDC SHL PUSH1 0x64 DUP3 ADD MSTORE PUSH1 0x84 SWAP1 REVERT JUMPDEST PUSH1 0x40 MLOAD PUSH3 0x461BCD PUSH1 0xE5 SHL DUP2 MSTORE PUSH1 0x20 PUSH1 0x4 DUP3 ADD MSTORE PUSH1 0x22 PUSH1 0x24 DUP3 ADD MSTORE PUSH32 0x43617465676F7279204944206D7573742062652067726561746572207468616E PUSH1 0x44 DUP3 ADD MSTORE PUSH2 0x203 PUSH1 0xF4 SHL PUSH1 0x64 DUP3 ADD MSTORE PUSH1 0x84 SWAP1 REVERT JUMPDEST PUSH1 0x40 MLOAD PUSH3 0x461BCD PUSH1 0xE5 SHL DUP2 MSTORE PUSH1 0x20 PUSH1 0x4 DUP3 ADD MSTORE PUSH1 0x16 PUSH1 0x24 DUP3 ADD MSTORE PUSH22 0x436F6C6F72732063616E6E6F7420626520656D707479 PUSH1 0x50 SHL PUSH1 0x44 DUP3 ADD MSTORE PUSH1 0x64 SWAP1 REVERT JUMPDEST PUSH1 0x40 MLOAD PUSH3 0x461BCD PUSH1 0xE5 SHL DUP2 MSTORE PUSH1 0x20 PUSH1 0x4 DUP3 ADD MSTORE PUSH1 0x1C PUSH1 0x24 DUP3 ADD MSTORE PUSH28 0x53746F636B206D7573742062652067726561746572207468616E203 PUSH1 0x24 SHL PUSH1 0x44 DUP3 ADD MSTORE PUSH1 0x64 SWAP1 REVERT JUMPDEST PUSH1 0x40 MLOAD PUSH3 0x461BCD PUSH1 0xE5 SHL DUP2 MSTORE PUSH1 0x20 PUSH1 0x4 DUP3 ADD MSTORE PUSH1 0x1C PUSH1 0x24 DUP3 ADD MSTORE PUSH28 0x5072696365206D7573742062652067726561746572207468616E203 PUSH1 0x24 SHL PUSH1 0x44 DUP3 ADD MSTORE PUSH1 0x64 SWAP1 REVERT JUMPDEST PUSH1 0x40 MLOAD PUSH3 0x461BCD PUSH1 0xE5 SHL DUP2 MSTORE PUSH1 0x20 PUSH1 0x4 DUP3 ADD MSTORE PUSH1 0x1B PUSH1 0x24 DUP3 ADD MSTORE PUSH27 0x4465736372697074696F6E2063616E6E6F7420626520656D707479 PUSH1 0x28 SHL PUSH1 0x44 DUP3 ADD MSTORE PUSH1 0x64 SWAP1 REVERT JUMPDEST PUSH1 0x64 PUSH1 0x40 MLOAD PUSH3 0x461BCD PUSH1 0xE5 SHL DUP2 MSTORE PUSH1 0x20 PUSH1 0x4 DUP3 ADD MSTORE PUSH1 0x20 PUSH1 0x24 DUP3 ADD MSTORE PUSH32 0x4D7573742062652076657269666965642073656C6C6572206F72206F776E6572 PUSH1 0x44 DUP3 ADD MSTORE REVERT JUMPDEST POP PUSH1 0x0 SLOAD PUSH1 0x1 PUSH1 0x1 PUSH1 0xA0 SHL SUB AND CALLER EQ PUSH2 0xB7E JUMP JUMPDEST PUSH4 0x4E487B71 PUSH1 0xE0 SHL PUSH1 0x0 MSTORE PUSH1 0x21 PUSH1 0x4 MSTORE PUSH1 0x24 PUSH1 0x0 REVERT JUMPDEST CALLVALUE PUSH2 0x595 JUMPI PUSH1 0x0 CALLDATASIZE PUSH1 0x3 NOT ADD SLT PUSH2 0x595 JUMPI PUSH1 0x20 PUSH1 0xD SLOAD PUSH1 0x40 MLOAD SWAP1 DUP2 MSTORE RETURN JUMPDEST CALLVALUE PUSH2 0x595 JUMPI PUSH1 0x20 DUP1 PUSH1 0x3 NOT CALLDATASIZE ADD SLT PUSH2 0x595 JUMPI PUSH1 0x1 PUSH1 0x1 PUSH1 0x40 SHL SUB PUSH1 0x4 CALLDATALOAD DUP2 DUP2 GT PUSH2 0x595 JUMPI PUSH2 0x1ED6 SWAP1 CALLDATASIZE SWAP1 PUSH1 0x4 ADD PUSH2 0x61DF JUMP JUMPDEST PUSH2 0x1EDE PUSH2 0x6879 JUMP JUMPDEST DUP1 MLOAD ISZERO PUSH2 0x20B4 JUMPI PUSH2 0x1EF0 PUSH1 0xB SLOAD PUSH2 0x7391 JUMP JUMPDEST SWAP3 DUP4 PUSH1 0xB SSTORE PUSH1 0x40 MLOAD SWAP2 PUSH2 0x1F02 DUP4 PUSH2 0x614F JUMP JUMPDEST PUSH1 0x0 DUP4 MSTORE PUSH1 0x40 MLOAD SWAP1 PUSH2 0x1F13 DUP3 PUSH2 0x60FE JUMP JUMPDEST DUP6 DUP3 MSTORE DUP3 DUP3 ADD SWAP1 DUP2 MSTORE PUSH1 0x40 DUP3 ADD SWAP1 PUSH1 0x1 SWAP7 DUP8 DUP4 MSTORE PUSH1 0x60 DUP5 ADD SWAP6 DUP7 MSTORE PUSH1 0x0 MSTORE PUSH1 0x18 DUP5 MSTORE PUSH1 0x40 PUSH1 0x0 KECCAK256 SWAP3 MLOAD DUP4 SSTORE DUP7 DUP4 ADD SWAP1 MLOAD DUP1 MLOAD SWAP1 DUP8 DUP3 GT PUSH2 0x1305 JUMPI PUSH2 0x1F57 DUP4 SLOAD PUSH2 0x625C JUMP JUMPDEST PUSH1 0x1F DUP2 GT PUSH2 0x2084 JUMPI JUMPDEST POP DUP6 SWAP1 PUSH1 0x1F DUP4 GT PUSH1 0x1 EQ PUSH2 0x2015 JUMPI SWAP2 DUP1 PUSH2 0x1FA0 SWAP5 SWAP3 PUSH1 0x3 SWAP8 SWAP7 SWAP5 PUSH1 0x0 SWAP3 PUSH2 0x200A JUMPI JUMPDEST POP POP PUSH1 0x0 NOT DUP3 DUP9 SHL SHR NOT AND SWAP1 DUP11 SHL OR SWAP1 SSTORE JUMPDEST MLOAD ISZERO ISZERO PUSH1 0x2 DUP4 ADD PUSH2 0x6C23 JUMP JUMPDEST ADD SWAP2 MLOAD DUP1 MLOAD SWAP4 DUP5 GT PUSH2 0x1305 JUMPI PUSH1 0x1 PUSH1 0x40 SHL DUP5 GT PUSH2 0x1305 JUMPI DUP2 SWAP1 DUP4 SLOAD DUP6 DUP6 SSTORE DUP1 DUP7 LT PUSH2 0x1FED JUMPI JUMPDEST POP ADD SWAP2 PUSH1 0x0 MSTORE DUP1 PUSH1 0x0 KECCAK256 PUSH1 0x0 JUMPDEST DUP5 DUP2 LT PUSH2 0x1FDC JUMPI STOP JUMPDEST DUP4 MLOAD DUP3 DUP3 ADD SSTORE SWAP3 DUP3 ADD SWAP3 DUP6 ADD PUSH2 0x1FD3 JUMP JUMPDEST PUSH2 0x2004 SWAP1 DUP6 PUSH1 0x0 MSTORE DUP7 DUP5 PUSH1 0x0 KECCAK256 SWAP2 DUP3 ADD SWAP2 ADD PUSH2 0x6E01 JUMP JUMPDEST DUP7 PUSH2 0x1FC6 JUMP JUMPDEST ADD MLOAD SWAP1 POP DUP12 DUP1 PUSH2 0x1F82 JUMP JUMPDEST DUP10 SWAP3 SWAP2 PUSH1 0x1F NOT DUP4 AND SWAP2 DUP6 PUSH1 0x0 MSTORE DUP9 PUSH1 0x0 KECCAK256 SWAP3 PUSH1 0x0 JUMPDEST DUP11 DUP3 DUP3 LT PUSH2 0x206E JUMPI POP POP SWAP2 PUSH1 0x3 SWAP9 SWAP8 SWAP6 SWAP4 SWAP2 DUP6 PUSH2 0x1FA0 SWAP9 SWAP7 SWAP5 LT PUSH2 0x2056 JUMPI JUMPDEST POP POP POP DUP2 SHL ADD SWAP1 SSTORE PUSH2 0x1F94 JUMP JUMPDEST ADD MLOAD PUSH1 0x0 NOT DUP4 DUP11 SHL PUSH1 0xF8 AND SHR NOT AND SWAP1 SSTORE DUP12 DUP1 DUP1 PUSH2 0x2049 JUMP JUMPDEST DUP4 DUP6 ADD MLOAD DUP7 SSTORE DUP15 SWAP8 SWAP1 SWAP6 ADD SWAP5 SWAP4 DUP5 ADD SWAP4 ADD PUSH2 0x202A JUMP JUMPDEST PUSH2 0x20AE SWAP1 DUP5 PUSH1 0x0 MSTORE DUP8 PUSH1 0x0 KECCAK256 PUSH1 0x1F DUP6 ADD PUSH1 0x5 SHR DUP2 ADD SWAP2 DUP10 DUP7 LT PUSH2 0x13D2 JUMPI PUSH1 0x1F ADD PUSH1 0x5 SHR ADD SWAP1 PUSH2 0x6E01 JUMP JUMPDEST DUP10 PUSH2 0x1F60 JUMP JUMPDEST PUSH1 0x40 MLOAD PUSH3 0x461BCD PUSH1 0xE5 SHL DUP2 MSTORE PUSH1 0x4 DUP2 ADD DUP5 SWAP1 MSTORE PUSH1 0x1D PUSH1 0x24 DUP3 ADD MSTORE PUSH32 0x43617465676F7279206E616D652063616E6E6F7420626520656D707479000000 PUSH1 0x44 DUP3 ADD MSTORE PUSH1 0x64 SWAP1 REVERT JUMPDEST CALLVALUE PUSH2 0x595 JUMPI PUSH1 0x0 CALLDATASIZE PUSH1 0x3 NOT ADD SLT PUSH2 0x595 JUMPI PUSH1 0xB SLOAD PUSH2 0x2116 DUP2 PUSH2 0x66CA JUMP JUMPDEST PUSH2 0x2123 PUSH1 0x40 MLOAD SWAP2 DUP3 PUSH2 0x616A JUMP JUMPDEST DUP2 DUP2 MSTORE PUSH1 0x1F NOT PUSH2 0x2132 DUP4 PUSH2 0x66CA JUMP JUMPDEST ADD CALLDATASIZE PUSH1 0x20 DUP4 ADD CALLDATACOPY PUSH2 0x2142 DUP3 PUSH2 0x66CA JUMP JUMPDEST SWAP2 PUSH2 0x2150 PUSH1 0x40 MLOAD SWAP4 DUP5 PUSH2 0x616A JUMP JUMPDEST DUP1 DUP4 MSTORE PUSH2 0x216C PUSH1 0x1F NOT PUSH2 0x2162 DUP4 PUSH2 0x66CA JUMP JUMPDEST ADD PUSH1 0x20 DUP6 ADD PUSH2 0x7453 JUMP JUMPDEST PUSH2 0x2175 DUP2 PUSH2 0x66CA JUMP JUMPDEST SWAP3 PUSH2 0x2183 PUSH1 0x40 MLOAD SWAP5 DUP6 PUSH2 0x616A JUMP JUMPDEST DUP2 DUP5 MSTORE PUSH1 0x1F NOT PUSH2 0x2192 DUP4 PUSH2 0x66CA JUMP JUMPDEST ADD CALLDATASIZE PUSH1 0x20 DUP7 ADD CALLDATACOPY PUSH2 0x21A2 DUP3 PUSH2 0x66CA JUMP JUMPDEST SWAP1 PUSH2 0x21B0 PUSH1 0x40 MLOAD SWAP3 DUP4 PUSH2 0x616A JUMP JUMPDEST DUP3 DUP3 MSTORE PUSH2 0x21BC DUP4 PUSH2 0x66CA JUMP JUMPDEST SWAP3 PUSH2 0x21CF PUSH1 0x20 DUP5 ADD SWAP5 PUSH1 0x1F NOT ADD DUP6 PUSH2 0x7453 JUMP JUMPDEST PUSH1 0x1 JUMPDEST DUP2 DUP2 GT ISZERO PUSH2 0x230B JUMPI POP POP PUSH2 0x21F1 PUSH1 0x40 MLOAD SWAP5 PUSH1 0x80 DUP7 MSTORE PUSH1 0x80 DUP7 ADD SWAP1 PUSH2 0x6845 JUMP JUMPDEST DUP5 DUP2 SUB PUSH1 0x20 DUP7 ADD MSTORE DUP2 MLOAD DUP1 DUP3 MSTORE PUSH1 0x20 DUP3 ADD SWAP2 PUSH1 0x20 DUP1 DUP4 PUSH1 0x5 SHL DUP4 ADD ADD SWAP5 ADD SWAP3 PUSH1 0x0 SWAP2 JUMPDEST DUP4 DUP4 LT PUSH2 0x22DE JUMPI POP POP POP POP POP DUP4 DUP2 SUB PUSH1 0x40 DUP6 ADD MSTORE PUSH1 0x20 DUP1 DUP7 MLOAD SWAP3 DUP4 DUP2 MSTORE ADD SWAP6 ADD SWAP1 PUSH1 0x0 JUMPDEST DUP2 DUP2 LT PUSH2 0x22C6 JUMPI POP POP POP DUP3 DUP5 SUB PUSH1 0x60 DUP5 ADD MSTORE MLOAD DUP1 DUP5 MSTORE PUSH1 0x20 DUP5 ADD SWAP1 PUSH1 0x20 DUP2 PUSH1 0x5 SHL DUP7 ADD ADD SWAP3 SWAP2 PUSH1 0x0 SWAP1 JUMPDEST DUP3 DUP3 LT PUSH2 0x226F JUMPI DUP6 DUP6 SUB DUP7 RETURN JUMPDEST SWAP1 SWAP2 SWAP3 SWAP4 PUSH1 0x1F NOT DUP8 DUP3 SUB ADD DUP3 MSTORE DUP5 MLOAD SWAP1 PUSH1 0x20 DUP1 DUP4 MLOAD SWAP3 DUP4 DUP2 MSTORE ADD SWAP3 ADD SWAP1 PUSH1 0x0 SWAP1 JUMPDEST DUP1 DUP3 LT PUSH2 0x22AE JUMPI POP POP POP PUSH1 0x20 DUP1 PUSH1 0x1 SWAP3 SWAP7 ADD SWAP3 ADD SWAP3 ADD SWAP1 SWAP3 SWAP2 PUSH2 0x2262 JUMP JUMPDEST SWAP1 SWAP2 SWAP3 PUSH1 0x20 DUP1 PUSH1 0x1 SWAP3 DUP7 MLOAD DUP2 MSTORE ADD SWAP5 ADD SWAP3 ADD SWAP1 PUSH2 0x2290 JUMP JUMPDEST DUP3 MLOAD ISZERO ISZERO DUP8 MSTORE PUSH1 0x20 SWAP7 DUP8 ADD SWAP7 SWAP1 SWAP3 ADD SWAP2 PUSH1 0x1 ADD PUSH2 0x2238 JUMP JUMPDEST SWAP1 SWAP2 SWAP3 SWAP4 SWAP5 PUSH1 0x20 DUP1 PUSH2 0x22FC PUSH1 0x1 SWAP4 PUSH1 0x1F NOT DUP7 DUP3 SUB ADD DUP8 MSTORE DUP10 MLOAD PUSH2 0x5D74 JUMP JUMPDEST SWAP8 ADD SWAP4 ADD SWAP4 ADD SWAP2 SWAP4 SWAP3 SWAP1 PUSH2 0x2214 JUMP JUMPDEST DUP1 PUSH1 0x0 MSTORE PUSH1 0x18 PUSH1 0x20 MSTORE PUSH1 0x40 PUSH1 0x0 KECCAK256 SWAP1 PUSH2 0x235E PUSH1 0x3 PUSH1 0x40 MLOAD SWAP4 PUSH2 0x232C DUP6 PUSH2 0x60FE JUMP JUMPDEST DUP1 SLOAD DUP6 MSTORE PUSH1 0x40 MLOAD PUSH2 0x2344 DUP2 PUSH2 0x381 DUP2 PUSH1 0x1 DUP7 ADD PUSH2 0x6296 JUMP JUMPDEST PUSH1 0x20 DUP7 ADD MSTORE PUSH1 0xFF PUSH1 0x2 DUP3 ADD SLOAD AND ISZERO ISZERO PUSH1 0x40 DUP7 ADD MSTORE ADD PUSH2 0x7404 JUMP JUMPDEST PUSH1 0x60 DUP4 ADD MSTORE DUP2 MLOAD PUSH2 0x2379 JUMPI JUMPDEST PUSH2 0x2374 SWAP2 POP PUSH2 0x7391 JUMP JUMPDEST PUSH2 0x21D2 JUMP JUMPDEST DUP1 PUSH1 0x0 NOT DUP2 ADD GT PUSH2 0x12EF JUMPI PUSH1 0x60 DUP3 PUSH2 0x2374 SWAP4 MLOAD PUSH2 0x239A PUSH1 0x0 NOT DUP6 ADD DUP12 PUSH2 0x73F0 JUMP JUMPDEST MSTORE PUSH1 0x20 DUP2 ADD MLOAD PUSH2 0x23AE PUSH1 0x0 NOT DUP6 ADD DUP9 PUSH2 0x73F0 JUMP JUMPDEST MSTORE PUSH2 0x23BD PUSH1 0x0 NOT DUP5 ADD DUP8 PUSH2 0x73F0 JUMP JUMPDEST POP PUSH1 0x40 DUP2 ADD MLOAD ISZERO ISZERO PUSH2 0x23D3 PUSH1 0x0 NOT DUP6 ADD DUP13 PUSH2 0x73F0 JUMP JUMPDEST MSTORE ADD MLOAD PUSH2 0x23E4 PUSH1 0x0 NOT DUP4 ADD DUP8 PUSH2 0x73F0 JUMP JUMPDEST MSTORE PUSH2 0x23F3 PUSH1 0x0 NOT DUP3 ADD DUP7 PUSH2 0x73F0 JUMP JUMPDEST POP PUSH2 0x236A JUMP JUMPDEST CALLVALUE PUSH2 0x595 JUMPI PUSH1 0x60 CALLDATASIZE PUSH1 0x3 NOT ADD SLT PUSH2 0x595 JUMPI PUSH1 0x4 CALLDATALOAD PUSH1 0x1 PUSH1 0x1 PUSH1 0x40 SHL SUB DUP2 GT PUSH2 0x595 JUMPI PUSH2 0x2429 SWAP1 CALLDATASIZE SWAP1 PUSH1 0x4 ADD PUSH2 0x61DF JUMP JUMPDEST PUSH1 0x24 CALLDATALOAD PUSH1 0x1 PUSH1 0x1 PUSH1 0x40 SHL SUB DUP2 GT PUSH2 0x595 JUMPI PUSH2 0x2448 SWAP1 CALLDATASIZE SWAP1 PUSH1 0x4 ADD PUSH2 0x61DF JUMP JUMPDEST PUSH1 0x44 CALLDATALOAD PUSH1 0x1 PUSH1 0x1 PUSH1 0x40 SHL SUB DUP2 GT PUSH2 0x595 JUMPI PUSH2 0x2467 SWAP1 CALLDATASIZE SWAP1 PUSH1 0x4 ADD PUSH2 0x61DF JUMP JUMPDEST SWAP1 PUSH2 0x2473 CALLER ISZERO ISZERO PUSH2 0x6D80 JUMP JUMPDEST CALLER PUSH1 0x0 MSTORE PUSH1 0x14 PUSH1 0x20 MSTORE PUSH1 0xFF PUSH1 0x40 PUSH1 0x0 KECCAK256 SLOAD AND PUSH2 0x28B3 JUMPI PUSH2 0x2495 DUP4 MLOAD ISZERO ISZERO PUSH2 0x6DBE JUMP JUMPDEST DUP1 MLOAD ISZERO PUSH2 0x2876 JUMPI PUSH1 0x40 MLOAD SWAP3 PUSH2 0x24A9 DUP5 PUSH2 0x6119 JUMP JUMPDEST DUP4 MSTORE PUSH1 0x20 DUP4 ADD MSTORE PUSH1 0x40 DUP3 ADD MSTORE TIMESTAMP PUSH1 0x60 DUP3 ADD MSTORE PUSH1 0x1 PUSH1 0x80 DUP3 ADD MSTORE CALLER PUSH1 0x0 MSTORE PUSH1 0x10 PUSH1 0x20 MSTORE PUSH1 0x40 PUSH1 0x0 KECCAK256 DUP2 MLOAD SWAP2 DUP3 MLOAD PUSH1 0x1 DUP1 PUSH1 0x40 SHL SUB DUP2 GT PUSH2 0x1305 JUMPI PUSH2 0x24EC DUP4 SLOAD PUSH2 0x625C JUMP JUMPDEST PUSH1 0x1F DUP2 GT PUSH2 0x2844 JUMPI JUMPDEST POP PUSH1 0x20 PUSH1 0x1F DUP3 GT PUSH1 0x1 EQ PUSH2 0x27DC JUMPI DUP2 SWAP3 SWAP4 SWAP5 PUSH1 0x0 SWAP3 PUSH2 0x27D1 JUMPI JUMPDEST POP POP DUP2 PUSH1 0x1 SHL SWAP2 PUSH1 0x0 NOT SWAP1 PUSH1 0x3 SHL SHR NOT AND OR DUP3 SSTORE JUMPDEST PUSH1 0x20 DUP2 ADD MLOAD DUP1 MLOAD SWAP1 SWAP3 SWAP1 PUSH1 0x1 PUSH1 0x1 PUSH1 0x40 SHL SUB DUP2 GT PUSH2 0x1305 JUMPI PUSH2 0x2549 PUSH1 0x1 DUP4 ADD SLOAD PUSH2 0x625C JUMP JUMPDEST PUSH1 0x1F DUP2 GT PUSH2 0x279C JUMPI JUMPDEST POP PUSH1 0x20 PUSH1 0x1F DUP3 GT PUSH1 0x1 EQ PUSH2 0x272E JUMPI DUP2 SWAP3 SWAP4 SWAP5 PUSH1 0x0 SWAP3 PUSH2 0x2723 JUMPI JUMPDEST POP POP DUP2 PUSH1 0x1 SHL SWAP2 PUSH1 0x0 NOT SWAP1 PUSH1 0x3 SHL SHR NOT AND OR PUSH1 0x1 DUP3 ADD SSTORE JUMPDEST PUSH1 0x40 DUP3 ADD MLOAD DUP1 MLOAD SWAP1 SWAP3 SWAP1 PUSH1 0x2 DUP4 ADD SWAP1 PUSH1 0x1 PUSH1 0x1 PUSH1 0x40 SHL SUB DUP2 GT PUSH2 0x1305 JUMPI PUSH2 0x25AB DUP3 SLOAD PUSH2 0x625C JUMP JUMPDEST PUSH1 0x1F DUP2 GT PUSH2 0x26F1 JUMPI JUMPDEST POP PUSH1 0x20 PUSH1 0x1F DUP3 GT PUSH1 0x1 EQ PUSH2 0x2681 JUMPI SWAP2 DUP2 PUSH1 0x4 SWAP5 SWAP3 PUSH1 0x80 SWAP5 PUSH2 0x2601 SWAP9 PUSH1 0x0 SWAP3 PUSH2 0x2676 JUMPI JUMPDEST POP POP DUP2 PUSH1 0x1 SHL SWAP2 PUSH1 0x0 NOT SWAP1 PUSH1 0x3 SHL SHR NOT AND OR SWAP1 SSTORE JUMPDEST PUSH1 0x60 DUP2 ADD MLOAD PUSH1 0x3 DUP6 ADD SSTORE ADD MLOAD ISZERO ISZERO SWAP2 ADD PUSH2 0x6C23 JUMP JUMPDEST CALLER PUSH1 0x0 SWAP1 DUP2 MSTORE PUSH1 0x14 PUSH1 0x20 MSTORE PUSH1 0x40 SWAP1 KECCAK256 DUP1 SLOAD PUSH1 0xFF NOT AND PUSH1 0x1 OR SWAP1 SSTORE PUSH1 0xF SLOAD PUSH1 0x1 PUSH1 0x40 SHL DUP2 LT ISZERO PUSH2 0x1305 JUMPI PUSH1 0x1 DUP2 ADD DUP1 PUSH1 0xF SSTORE DUP2 LT ISZERO PUSH2 0x2660 JUMPI PUSH1 0xF PUSH1 0x0 MSTORE PUSH1 0x0 DUP1 MLOAD PUSH1 0x20 PUSH2 0x899C DUP4 CODECOPY DUP2 MLOAD SWAP2 MSTORE ADD DUP1 SLOAD PUSH1 0x1 PUSH1 0x1 PUSH1 0xA0 SHL SUB NOT AND CALLER OR SWAP1 SSTORE STOP JUMPDEST PUSH4 0x4E487B71 PUSH1 0xE0 SHL PUSH1 0x0 MSTORE PUSH1 0x32 PUSH1 0x4 MSTORE PUSH1 0x24 PUSH1 0x0 REVERT JUMPDEST ADD MLOAD SWAP1 POP DUP9 DUP1 PUSH2 0x25D7 JUMP JUMPDEST PUSH1 0x1F NOT DUP3 AND SWAP6 DUP4 PUSH1 0x0 MSTORE PUSH1 0x20 PUSH1 0x0 KECCAK256 SWAP7 PUSH1 0x0 JUMPDEST DUP2 DUP2 LT PUSH2 0x26D9 JUMPI POP SWAP3 PUSH2 0x2601 SWAP8 PUSH1 0x80 SWAP6 SWAP4 PUSH1 0x1 SWAP4 DUP4 PUSH1 0x4 SWAP10 SWAP8 LT PUSH2 0x26C0 JUMPI JUMPDEST POP POP POP DUP2 SHL ADD SWAP1 SSTORE PUSH2 0x25EC JUMP JUMPDEST ADD MLOAD PUSH1 0x0 NOT PUSH1 0xF8 DUP5 PUSH1 0x3 SHL AND SHR NOT AND SWAP1 SSTORE DUP9 DUP1 DUP1 PUSH2 0x26B3 JUMP JUMPDEST DUP4 DUP4 ADD MLOAD DUP10 SSTORE PUSH1 0x1 SWAP1 SWAP9 ADD SWAP8 PUSH1 0x20 SWAP4 DUP5 ADD SWAP4 ADD PUSH2 0x2694 JUMP JUMPDEST PUSH2 0x271D SWAP1 DUP4 PUSH1 0x0 MSTORE PUSH1 0x20 PUSH1 0x0 KECCAK256 PUSH1 0x1F DUP5 ADD PUSH1 0x5 SHR DUP2 ADD SWAP2 PUSH1 0x20 DUP6 LT PUSH2 0x13D2 JUMPI PUSH1 0x1F ADD PUSH1 0x5 SHR ADD SWAP1 PUSH2 0x6E01 JUMP JUMPDEST DUP6 PUSH2 0x25B4 JUMP JUMPDEST ADD MLOAD SWAP1 POP DUP5 DUP1 PUSH2 0x256C JUMP JUMPDEST PUSH1 0x1 DUP4 ADD PUSH1 0x0 MSTORE PUSH1 0x20 PUSH1 0x0 KECCAK256 SWAP1 PUSH1 0x0 JUMPDEST PUSH1 0x1F NOT DUP5 AND DUP2 LT PUSH2 0x2784 JUMPI POP PUSH1 0x1 SWAP4 SWAP5 SWAP6 DUP4 PUSH1 0x1F NOT DUP2 AND LT PUSH2 0x276B JUMPI JUMPDEST POP POP POP DUP2 SHL ADD PUSH1 0x1 DUP3 ADD SSTORE PUSH2 0x2584 JUMP JUMPDEST ADD MLOAD PUSH1 0x0 NOT PUSH1 0xF8 DUP5 PUSH1 0x3 SHL AND SHR NOT AND SWAP1 SSTORE DUP5 DUP1 DUP1 PUSH2 0x275B JUMP JUMPDEST SWAP1 SWAP2 PUSH1 0x20 PUSH1 0x1 DUP2 SWAP3 DUP6 DUP11 ADD MLOAD DUP2 SSTORE ADD SWAP4 ADD SWAP2 ADD PUSH2 0x273E JUMP JUMPDEST PUSH2 0x27CB SWAP1 PUSH1 0x1 DUP5 ADD PUSH1 0x0 MSTORE PUSH1 0x20 PUSH1 0x0 KECCAK256 PUSH1 0x1F DUP5 ADD PUSH1 0x5 SHR DUP2 ADD SWAP2 PUSH1 0x20 DUP6 LT PUSH2 0x13D2 JUMPI PUSH1 0x1F ADD PUSH1 0x5 SHR ADD SWAP1 PUSH2 0x6E01 JUMP JUMPDEST DUP5 PUSH2 0x2552 JUMP JUMPDEST ADD MLOAD SWAP1 POP DUP5 DUP1 PUSH2 0x250F JUMP JUMPDEST DUP4 PUSH1 0x0 MSTORE PUSH1 0x20 PUSH1 0x0 KECCAK256 SWAP1 PUSH1 0x0 JUMPDEST PUSH1 0x1F NOT DUP5 AND DUP2 LT PUSH2 0x282C JUMPI POP PUSH1 0x1 SWAP4 SWAP5 SWAP6 DUP4 PUSH1 0x1F NOT DUP2 AND LT PUSH2 0x2813 JUMPI JUMPDEST POP POP POP DUP2 SHL ADD DUP3 SSTORE PUSH2 0x2524 JUMP JUMPDEST ADD MLOAD PUSH1 0x0 NOT PUSH1 0xF8 DUP5 PUSH1 0x3 SHL AND SHR NOT AND SWAP1 SSTORE DUP5 DUP1 DUP1 PUSH2 0x2806 JUMP JUMPDEST SWAP1 SWAP2 PUSH1 0x20 PUSH1 0x1 DUP2 SWAP3 DUP6 DUP11 ADD MLOAD DUP2 SSTORE ADD SWAP4 ADD SWAP2 ADD PUSH2 0x27E9 JUMP JUMPDEST PUSH2 0x2870 SWAP1 DUP5 PUSH1 0x0 MSTORE PUSH1 0x20 PUSH1 0x0 KECCAK256 PUSH1 0x1F DUP5 ADD PUSH1 0x5 SHR DUP2 ADD SWAP2 PUSH1 0x20 DUP6 LT PUSH2 0x13D2 JUMPI PUSH1 0x1F ADD PUSH1 0x5 SHR ADD SWAP1 PUSH2 0x6E01 JUMP JUMPDEST DUP5 PUSH2 0x24F5 JUMP JUMPDEST PUSH1 0x40 MLOAD PUSH3 0x461BCD PUSH1 0xE5 SHL DUP2 MSTORE PUSH1 0x20 PUSH1 0x4 DUP3 ADD MSTORE PUSH1 0x15 PUSH1 0x24 DUP3 ADD MSTORE PUSH21 0x456D61696C2063616E6E6F7420626520656D707479 PUSH1 0x58 SHL PUSH1 0x44 DUP3 ADD MSTORE PUSH1 0x64 SWAP1 REVERT JUMPDEST PUSH1 0x40 MLOAD PUSH3 0x461BCD PUSH1 0xE5 SHL DUP2 MSTORE PUSH1 0x20 PUSH1 0x4 DUP3 ADD MSTORE PUSH1 0x17 PUSH1 0x24 DUP3 ADD MSTORE PUSH23 0x155CD95C88185B1C9958591E481C9959DA5CDD195C9959 PUSH1 0x4A SHL PUSH1 0x44 DUP3 ADD MSTORE PUSH1 0x64 SWAP1 REVERT JUMPDEST CALLVALUE PUSH2 0x595 JUMPI PUSH1 0x40 CALLDATASIZE PUSH1 0x3 NOT ADD SLT PUSH2 0x595 JUMPI PUSH1 0x1 PUSH1 0x1 PUSH1 0x40 SHL SUB PUSH1 0x24 CALLDATALOAD GT PUSH2 0x595 JUMPI CALLDATASIZE PUSH1 0x23 PUSH1 0x24 CALLDATALOAD ADD SLT ISZERO PUSH2 0x595 JUMPI PUSH1 0x1 PUSH1 0x1 PUSH1 0x40 SHL SUB PUSH1 0x4 PUSH1 0x24 CALLDATALOAD ADD CALLDATALOAD GT PUSH2 0x595 JUMPI CALLDATASIZE PUSH1 0x24 DUP1 CALLDATALOAD PUSH1 0x4 ADD CALLDATALOAD PUSH1 0x5 SHL DUP2 CALLDATALOAD ADD ADD GT PUSH2 0x595 JUMPI PUSH1 0x4 CALLDATALOAD PUSH1 0x0 MSTORE PUSH1 0x18 PUSH1 0x20 MSTORE PUSH1 0xFF PUSH1 0x2 PUSH1 0x40 PUSH1 0x0 KECCAK256 ADD SLOAD AND ISZERO PUSH2 0x2B41 JUMPI PUSH1 0x0 JUMPDEST PUSH1 0x24 CALLDATALOAD PUSH1 0x4 ADD CALLDATALOAD DUP2 LT PUSH2 0x2977 JUMPI STOP JUMPDEST PUSH2 0x29BA SWAP1 PUSH2 0x2986 PUSH1 0xC SLOAD PUSH2 0x7391 JUMP JUMPDEST DUP1 PUSH1 0xC SSTORE PUSH2 0x29A1 PUSH1 0x24 DUP4 PUSH1 0x5 SHL DUP2 CALLDATALOAD ADD ADD PUSH1 0x24 DUP1 CALLDATALOAD ADD PUSH2 0x6F07 JUMP JUMPDEST SWAP4 SWAP1 PUSH1 0x40 MLOAD SWAP5 PUSH2 0x29B0 DUP7 PUSH2 0x60FE JUMP JUMPDEST DUP4 DUP7 MSTORE CALLDATASIZE SWAP2 PUSH2 0x61A8 JUMP JUMPDEST SWAP1 PUSH1 0x20 DUP5 ADD SWAP2 DUP3 MSTORE PUSH1 0x4 CALLDATALOAD PUSH1 0x40 DUP6 ADD MSTORE PUSH1 0x1 PUSH1 0x60 DUP6 ADD MSTORE PUSH1 0x0 MSTORE PUSH1 0x19 PUSH1 0x20 MSTORE PUSH1 0x40 PUSH1 0x0 KECCAK256 SWAP1 DUP4 MLOAD DUP3 SSTORE MLOAD SWAP3 DUP4 MLOAD PUSH1 0x1 DUP1 PUSH1 0x40 SHL SUB DUP2 GT PUSH2 0x1305 JUMPI PUSH2 0x2A01 PUSH1 0x1 DUP5 ADD SLOAD PUSH2 0x625C JUMP JUMPDEST PUSH1 0x1F DUP2 GT PUSH2 0x2B0C JUMPI JUMPDEST POP PUSH1 0x20 PUSH1 0x1F DUP3 GT PUSH1 0x1 EQ PUSH2 0x2A90 JUMPI PUSH2 0x2A7B SWAP4 SWAP3 DUP3 PUSH2 0x2A61 SWAP4 PUSH1 0x60 SWAP4 PUSH2 0x2A80 SWAP10 PUSH1 0x0 SWAP3 PUSH2 0x2A85 JUMPI JUMPDEST POP POP DUP2 PUSH1 0x1 SHL SWAP2 PUSH1 0x0 NOT SWAP1 PUSH1 0x3 SHL SHR NOT AND OR PUSH1 0x1 DUP6 ADD SSTORE JUMPDEST PUSH1 0x40 DUP2 ADD MLOAD PUSH1 0x2 DUP6 ADD SSTORE ADD MLOAD ISZERO ISZERO PUSH1 0x3 DUP1 SWAP4 ADD PUSH2 0x6C23 JUMP JUMPDEST PUSH1 0x4 CALLDATALOAD PUSH1 0x0 MSTORE PUSH1 0x18 PUSH1 0x20 MSTORE PUSH1 0x40 PUSH1 0x0 KECCAK256 ADD PUSH1 0xC SLOAD SWAP1 PUSH2 0x722A JUMP JUMPDEST PUSH2 0x7391 JUMP JUMPDEST PUSH2 0x2968 JUMP JUMPDEST ADD MLOAD SWAP1 POP DUP10 DUP1 PUSH2 0x2A31 JUMP JUMPDEST PUSH1 0x1 DUP5 ADD PUSH1 0x0 MSTORE PUSH1 0x20 PUSH1 0x0 KECCAK256 SWAP6 PUSH1 0x0 JUMPDEST PUSH1 0x1F NOT DUP5 AND DUP2 LT PUSH2 0x2AF4 JUMPI POP SWAP3 PUSH1 0x1 DUP4 PUSH2 0x2A80 SWAP9 PUSH1 0x60 SWAP5 PUSH2 0x2A7B SWAP9 SWAP8 PUSH2 0x2A61 SWAP8 PUSH1 0x1F NOT DUP2 AND LT PUSH2 0x2ADB JUMPI JUMPDEST POP POP POP DUP2 SHL ADD PUSH1 0x1 DUP6 ADD SSTORE PUSH2 0x2A49 JUMP JUMPDEST ADD MLOAD PUSH1 0x0 NOT PUSH1 0xF8 DUP5 PUSH1 0x3 SHL AND SHR NOT AND SWAP1 SSTORE DUP10 DUP1 DUP1 PUSH2 0x2ACB JUMP JUMPDEST DUP3 DUP3 ADD MLOAD DUP9 SSTORE PUSH1 0x1 SWAP1 SWAP8 ADD SWAP7 PUSH1 0x20 SWAP3 DUP4 ADD SWAP3 ADD PUSH2 0x2AA0 JUMP JUMPDEST PUSH2 0x2B3B SWAP1 PUSH1 0x1 DUP6 ADD PUSH1 0x0 MSTORE PUSH1 0x20 PUSH1 0x0 KECCAK256 PUSH1 0x1F DUP5 ADD PUSH1 0x5 SHR DUP2 ADD SWAP2 PUSH1 0x20 DUP6 LT PUSH2 0x13D2 JUMPI PUSH1 0x1F ADD PUSH1 0x5 SHR ADD SWAP1 PUSH2 0x6E01 JUMP JUMPDEST DUP6 PUSH2 0x2A0A JUMP JUMPDEST PUSH1 0x40 MLOAD PUSH3 0x461BCD PUSH1 0xE5 SHL DUP2 MSTORE PUSH1 0x20 PUSH1 0x4 DUP3 ADD MSTORE PUSH1 0x1A PUSH1 0x24 DUP3 ADD MSTORE PUSH26 0x506172656E742063617465676F7279206E6F7420616374697665 PUSH1 0x30 SHL PUSH1 0x44 DUP3 ADD MSTORE PUSH1 0x64 SWAP1 REVERT JUMPDEST CALLVALUE PUSH2 0x595 JUMPI PUSH1 0x20 CALLDATASIZE PUSH1 0x3 NOT ADD SLT PUSH2 0x595 JUMPI PUSH2 0x2BA7 PUSH2 0x2BA2 PUSH1 0x4 CALLDATALOAD PUSH2 0x6C34 JUMP JUMPDEST PUSH2 0x68D1 JUMP JUMPDEST PUSH1 0x0 PUSH1 0x40 MLOAD PUSH2 0x2BB5 DUP2 PUSH2 0x614F JUMP JUMPDEST MSTORE PUSH2 0x311 PUSH1 0x40 MLOAD PUSH2 0x2BC5 DUP2 PUSH2 0x614F JUMP JUMPDEST PUSH1 0x0 DUP2 MSTORE PUSH1 0x40 MLOAD SWAP2 DUP3 SWAP2 PUSH1 0x20 DUP4 MSTORE PUSH1 0x20 DUP4 ADD SWAP1 PUSH2 0x5D74 JUMP JUMPDEST CALLVALUE PUSH2 0x595 JUMPI PUSH1 0x20 CALLDATASIZE PUSH1 0x3 NOT ADD SLT PUSH2 0x595 JUMPI PUSH1 0x1 PUSH1 0x1 PUSH1 0xA0 SHL SUB PUSH2 0x2BFE PUSH2 0x6063 JUMP JUMPDEST AND PUSH1 0x0 MSTORE PUSH1 0x13 PUSH1 0x20 MSTORE PUSH1 0x20 PUSH1 0xFF PUSH1 0x40 PUSH1 0x0 KECCAK256 SLOAD AND PUSH1 0x40 MLOAD SWAP1 ISZERO ISZERO DUP2 MSTORE RETURN JUMPDEST CALLVALUE PUSH2 0x595 JUMPI PUSH1 0x40 CALLDATASIZE PUSH1 0x3 NOT ADD SLT PUSH2 0x595 JUMPI PUSH2 0x2C35 PUSH2 0x6063 JUMP JUMPDEST PUSH1 0x1 PUSH1 0x1 PUSH1 0xA0 SHL SUB AND PUSH1 0x0 SWAP1 DUP2 MSTORE PUSH1 0x16 PUSH1 0x20 MSTORE PUSH1 0x40 SWAP1 KECCAK256 DUP1 SLOAD PUSH1 0x24 CALLDATALOAD SWAP2 SWAP1 DUP3 LT ISZERO PUSH2 0x595 JUMPI PUSH1 0x20 SWAP2 PUSH2 0x2C66 SWAP2 PUSH2 0x65CA JUMP JUMPDEST SWAP1 SLOAD PUSH1 0x40 MLOAD SWAP2 PUSH1 0x3 SHL SHR DUP2 MSTORE RETURN JUMPDEST CALLVALUE PUSH2 0x595 JUMPI PUSH1 0x20 DUP1 PUSH1 0x3 NOT CALLDATASIZE ADD SLT PUSH2 0x595 JUMPI PUSH1 0x4 CALLDATALOAD PUSH2 0x2C91 PUSH2 0x6F6E JUMP JUMPDEST POP DUP1 PUSH1 0x0 MSTORE PUSH1 0x15 DUP3 MSTORE PUSH2 0x2CB2 PUSH1 0xFF PUSH1 0xF PUSH1 0x40 PUSH1 0x0 KECCAK256 ADD SLOAD PUSH1 0x10 SHR AND ISZERO PUSH2 0x72AA JUMP JUMPDEST DUP1 PUSH1 0x0 MSTORE PUSH1 0x17 DUP3 MSTORE PUSH2 0x2CCB PUSH1 0xFF PUSH1 0x40 PUSH1 0x0 KECCAK256 SLOAD AND PUSH2 0x72EB JUMP JUMPDEST PUSH1 0x0 MSTORE PUSH1 0x15 DUP2 MSTORE PUSH1 0x40 PUSH1 0x0 KECCAK256 SWAP1 PUSH1 0x40 MLOAD SWAP2 PUSH2 0x2CE5 DUP4 PUSH2 0x608F JUMP JUMPDEST DUP1 SLOAD DUP4 MSTORE PUSH1 0x1 DUP1 DUP3 ADD SLOAD PUSH1 0x1 PUSH1 0x1 PUSH1 0xA0 SHL SUB AND DUP4 DUP6 ADD MSTORE PUSH1 0x40 MLOAD PUSH2 0x2D10 DUP2 PUSH2 0x381 DUP2 PUSH1 0x2 DUP8 ADD PUSH2 0x6296 JUMP JUMPDEST PUSH1 0x40 DUP6 ADD MSTORE PUSH1 0x40 MLOAD PUSH2 0x2D29 DUP2 PUSH2 0x381 DUP2 PUSH1 0x3 DUP8 ADD PUSH2 0x6296 JUMP JUMPDEST PUSH1 0x60 DUP6 ADD MSTORE PUSH1 0x4 DUP3 ADD SLOAD PUSH1 0x80 DUP6 ADD MSTORE PUSH1 0x5 DUP3 ADD SLOAD PUSH1 0xA0 DUP6 ADD MSTORE PUSH1 0x10 PUSH1 0x6 SWAP3 PUSH2 0x2D52 DUP5 DUP3 ADD PUSH2 0x66E1 JUMP JUMPDEST PUSH1 0xC0 DUP8 ADD MSTORE PUSH2 0x2D63 PUSH1 0x7 DUP3 ADD PUSH2 0x66E1 JUMP JUMPDEST PUSH1 0xE0 DUP8 ADD MSTORE PUSH2 0x2D74 PUSH1 0x8 DUP3 ADD PUSH2 0x66E1 JUMP JUMPDEST PUSH2 0x100 DUP8 ADD MSTORE PUSH1 0x40 MLOAD PUSH2 0x2D8E DUP2 PUSH2 0x381 DUP2 PUSH1 0x9 DUP7 ADD PUSH2 0x6296 JUMP JUMPDEST PUSH2 0x120 DUP8 ADD MSTORE PUSH1 0x40 MLOAD PUSH2 0x2DA8 DUP2 PUSH2 0x381 DUP2 PUSH1 0xA DUP7 ADD PUSH2 0x6296 JUMP JUMPDEST PUSH2 0x140 DUP8 ADD MSTORE PUSH1 0xB DUP2 ADD SLOAD PUSH2 0x160 DUP8 ADD MSTORE PUSH1 0x40 MLOAD PUSH2 0x2DCD DUP2 PUSH2 0x381 DUP2 PUSH1 0xC DUP7 ADD PUSH2 0x6296 JUMP JUMPDEST PUSH2 0x180 DUP8 ADD MSTORE PUSH1 0x40 MLOAD PUSH2 0x2DE7 DUP2 PUSH2 0x381 DUP2 PUSH1 0xD DUP7 ADD PUSH2 0x6296 JUMP JUMPDEST PUSH2 0x1A0 DUP8 ADD MSTORE PUSH1 0xE DUP2 ADD SLOAD PUSH2 0x1C0 DUP8 ADD MSTORE PUSH1 0xFF PUSH1 0xF DUP3 ADD SLOAD DUP2 DUP2 AND ISZERO ISZERO PUSH2 0x1E0 DUP10 ADD MSTORE DUP2 DUP2 PUSH1 0x8 SHR AND ISZERO ISZERO PUSH2 0x200 DUP10 ADD MSTORE DUP4 SHR AND ISZERO ISZERO PUSH2 0x220 DUP8 ADD MSTORE ADD SWAP2 DUP3 SLOAD SWAP1 PUSH2 0x2E31 DUP3 PUSH2 0x66CA JUMP JUMPDEST SWAP4 PUSH2 0x2E3F PUSH1 0x40 MLOAD SWAP6 DUP7 PUSH2 0x616A JUMP JUMPDEST DUP3 DUP6 MSTORE PUSH1 0x0 SWAP1 DUP2 MSTORE DUP6 DUP2 KECCAK256 DUP7 DUP1 DUP8 ADD JUMPDEST DUP6 DUP5 LT PUSH2 0x2E71 JUMPI PUSH2 0x240 DUP11 ADD DUP9 SWAP1 MSTORE PUSH1 0x40 MLOAD DUP3 DUP2 MSTORE DUP1 PUSH2 0x311 DUP2 DUP6 ADD DUP14 PUSH2 0x5EB1 JUMP JUMPDEST DUP7 SWAP2 DUP6 SWAP2 PUSH2 0x2E7E DUP6 PUSH2 0x7330 JUMP JUMPDEST DUP2 MSTORE ADD SWAP3 ADD SWAP3 ADD SWAP2 SWAP1 DUP8 SWAP1 PUSH2 0x2E4F JUMP JUMPDEST CALLVALUE PUSH2 0x595 JUMPI PUSH1 0x20 CALLDATASIZE PUSH1 0x3 NOT ADD SLT PUSH2 0x595 JUMPI PUSH1 0x20 PUSH1 0x1 PUSH1 0x1 PUSH1 0xA0 SHL SUB DUP1 PUSH2 0x2EB2 PUSH2 0x6063 JUMP JUMPDEST AND PUSH1 0x0 MSTORE PUSH1 0x1E DUP3 MSTORE PUSH1 0x40 PUSH1 0x0 KECCAK256 SLOAD AND PUSH1 0x40 MLOAD SWAP1 DUP2 MSTORE RETURN JUMPDEST CALLVALUE PUSH2 0x595 JUMPI PUSH1 0x80 CALLDATASIZE PUSH1 0x3 NOT ADD SLT PUSH2 0x595 JUMPI PUSH2 0x2EE2 PUSH2 0x6063 JUMP JUMPDEST PUSH2 0x2EEA PUSH2 0x6079 JUMP JUMPDEST PUSH1 0x64 CALLDATALOAD SWAP2 PUSH1 0x1 PUSH1 0x1 PUSH1 0x40 SHL SUB DUP4 GT PUSH2 0x595 JUMPI CALLDATASIZE PUSH1 0x23 DUP5 ADD SLT ISZERO PUSH2 0x595 JUMPI PUSH2 0x2F1E PUSH2 0x1262 SWAP4 CALLDATASIZE SWAP1 PUSH1 0x24 DUP2 PUSH1 0x4 ADD CALLDATALOAD SWAP2 ADD PUSH2 0x61A8 JUMP JUMPDEST SWAP2 PUSH1 0x44 CALLDATALOAD SWAP2 PUSH2 0x69C4 JUMP JUMPDEST CALLVALUE PUSH2 0x595 JUMPI PUSH1 0x20 DUP1 PUSH1 0x3 NOT CALLDATASIZE ADD SLT PUSH2 0x595 JUMPI PUSH1 0x1 PUSH1 0x1 PUSH1 0xA0 SHL SUB SWAP1 DUP2 PUSH2 0x2F4C PUSH2 0x6063 JUMP JUMPDEST AND PUSH1 0x0 MSTORE PUSH1 0x1B DUP2 MSTORE PUSH1 0x40 PUSH1 0x0 KECCAK256 DUP1 SLOAD SWAP1 PUSH2 0x2F65 DUP3 PUSH2 0x66CA JUMP JUMPDEST SWAP3 PUSH2 0x2F73 PUSH1 0x40 MLOAD SWAP5 DUP6 PUSH2 0x616A JUMP JUMPDEST DUP3 DUP5 MSTORE PUSH1 0x0 SWAP2 DUP3 MSTORE DUP1 DUP3 KECCAK256 DUP2 DUP6 ADD JUMPDEST DUP5 DUP5 LT PUSH2 0x2F97 JUMPI PUSH1 0x40 MLOAD DUP1 PUSH2 0x311 DUP9 DUP3 PUSH2 0x645C JUMP JUMPDEST PUSH1 0x16 DUP4 PUSH1 0x1 SWAP3 PUSH1 0x40 MLOAD PUSH2 0x2FA9 DUP2 PUSH2 0x60E2 JUMP JUMPDEST DUP6 SLOAD DUP2 MSTORE DUP5 DUP7 ADD SLOAD DUP4 DUP3 ADD MSTORE PUSH1 0x2 DUP7 ADD SLOAD PUSH1 0x40 DUP3 ADD MSTORE PUSH1 0x3 DUP7 ADD SLOAD PUSH1 0x60 DUP3 ADD MSTORE PUSH1 0x4 DUP7 ADD SLOAD PUSH1 0x80 DUP3 ADD MSTORE PUSH1 0xFF DUP12 PUSH1 0x5 DUP9 ADD SLOAD AND PUSH1 0xA0 SWAP1 DUP2 DUP5 ADD MSTORE PUSH1 0x6 DUP9 ADD SLOAD SWAP1 DUP14 DUP3 AND PUSH1 0xC0 DUP6 ADD MSTORE SHR AND ISZERO ISZERO PUSH1 0xE0 DUP3 ADD MSTORE PUSH2 0x3006 PUSH1 0x7 DUP8 ADD PUSH2 0x65FE JUMP JUMPDEST PUSH2 0x100 DUP3 ADD MSTORE PUSH2 0x3018 PUSH1 0xF DUP8 ADD PUSH2 0x6746 JUMP JUMPDEST PUSH2 0x120 DUP3 ADD MSTORE DUP2 MSTORE ADD SWAP3 ADD SWAP4 ADD SWAP3 SWAP1 PUSH2 0x2F82 JUMP JUMPDEST CALLVALUE PUSH2 0x595 JUMPI PUSH1 0x20 CALLDATASIZE PUSH1 0x3 NOT ADD SLT PUSH2 0x595 JUMPI PUSH1 0x4 CALLDATALOAD PUSH1 0x0 MSTORE PUSH1 0x17 PUSH1 0x20 MSTORE PUSH1 0x20 PUSH1 0xFF PUSH1 0x40 PUSH1 0x0 KECCAK256 SLOAD AND PUSH1 0x40 MLOAD SWAP1 ISZERO ISZERO DUP2 MSTORE RETURN JUMPDEST CALLVALUE PUSH2 0x595 JUMPI PUSH1 0x20 DUP1 PUSH1 0x3 NOT CALLDATASIZE ADD SLT PUSH2 0x595 JUMPI PUSH2 0x3195 SWAP1 PUSH2 0x311 PUSH2 0x307E PUSH2 0x6063 JUMP JUMPDEST PUSH2 0x3086 PUSH2 0x6E18 JUMP JUMPDEST POP PUSH1 0x1 DUP1 PUSH1 0xA0 SHL SUB AND SWAP2 DUP3 PUSH1 0x0 MSTORE PUSH1 0x13 DUP2 MSTORE PUSH2 0x30A9 PUSH1 0xFF PUSH1 0x40 PUSH1 0x0 KECCAK256 SLOAD AND PUSH2 0x6E4F JUMP JUMPDEST DUP3 PUSH1 0x0 MSTORE PUSH1 0x11 DUP2 MSTORE PUSH1 0x40 PUSH1 0x0 KECCAK256 SWAP3 PUSH1 0xFF PUSH1 0x6 PUSH1 0x40 MLOAD SWAP6 PUSH2 0x30C8 DUP8 PUSH2 0x60C7 JUMP JUMPDEST PUSH1 0x40 MLOAD PUSH2 0x30D9 DUP2 PUSH2 0x381 DUP2 DUP6 PUSH2 0x6296 JUMP JUMPDEST DUP8 MSTORE PUSH1 0x40 MLOAD PUSH2 0x30EF DUP2 PUSH2 0x381 DUP2 PUSH1 0x1 DUP7 ADD PUSH2 0x6296 JUMP JUMPDEST DUP6 DUP9 ADD MSTORE PUSH1 0x40 MLOAD PUSH2 0x3107 DUP2 PUSH2 0x381 DUP2 PUSH1 0x2 DUP7 ADD PUSH2 0x6296 JUMP JUMPDEST PUSH1 0x40 DUP9 ADD MSTORE PUSH1 0x40 MLOAD PUSH2 0x3120 DUP2 PUSH2 0x381 DUP2 PUSH1 0x3 DUP7 ADD PUSH2 0x6296 JUMP JUMPDEST PUSH1 0x60 DUP9 ADD MSTORE PUSH1 0x40 MLOAD PUSH2 0x3139 DUP2 PUSH2 0x381 DUP2 PUSH1 0x4 DUP7 ADD PUSH2 0x6296 JUMP JUMPDEST PUSH1 0x80 DUP9 ADD MSTORE PUSH1 0x5 DUP2 ADD SLOAD PUSH1 0xA0 DUP9 ADD MSTORE ADD SLOAD AND ISZERO ISZERO PUSH1 0xC0 DUP6 ADD MSTORE PUSH1 0x0 MSTORE PUSH1 0x12 DUP2 MSTORE PUSH1 0xFF PUSH1 0x40 PUSH1 0x0 KECCAK256 SLOAD AND PUSH1 0x1A DUP3 MSTORE PUSH1 0x40 PUSH1 0x0 KECCAK256 SLOAD PUSH1 0x16 DUP4 MSTORE PUSH2 0x319E PUSH2 0x3180 PUSH1 0x40 PUSH1 0x0 KECCAK256 PUSH2 0x7404 JUMP JUMPDEST SWAP3 PUSH1 0x40 MLOAD SWAP8 DUP9 SWAP8 PUSH1 0x80 DUP10 MSTORE PUSH1 0x80 DUP10 ADD SWAP1 PUSH2 0x653D JUMP JUMPDEST SWAP5 DUP8 ADD SWAP1 PUSH2 0x65BD JUMP JUMPDEST PUSH1 0x40 DUP6 ADD MSTORE DUP4 DUP3 SUB PUSH1 0x60 DUP6 ADD MSTORE PUSH2 0x6845 JUMP JUMPDEST CALLVALUE PUSH2 0x595 JUMPI PUSH1 0x20 CALLDATASIZE PUSH1 0x3 NOT ADD SLT PUSH2 0x595 JUMPI PUSH2 0x31C9 PUSH2 0x6063 JUMP JUMPDEST PUSH2 0x31D1 PUSH2 0x6879 JUMP JUMPDEST PUSH1 0x1 PUSH1 0x1 PUSH1 0xA0 SHL SUB AND DUP1 ISZERO PUSH2 0x3202 JUMPI CALLER PUSH1 0x0 SWAP1 DUP2 MSTORE PUSH1 0x1E PUSH1 0x20 MSTORE PUSH1 0x40 SWAP1 KECCAK256 DUP1 SLOAD PUSH1 0x1 PUSH1 0x1 PUSH1 0xA0 SHL SUB NOT AND SWAP1 SWAP2 OR SWAP1 SSTORE STOP JUMPDEST PUSH1 0x40 MLOAD PUSH3 0x461BCD PUSH1 0xE5 SHL DUP2 MSTORE PUSH1 0x20 PUSH1 0x4 DUP3 ADD MSTORE PUSH1 0x17 PUSH1 0x24 DUP3 ADD MSTORE PUSH23 0x496E76616C6964206163636F756E742061646472657373 PUSH1 0x48 SHL PUSH1 0x44 DUP3 ADD MSTORE PUSH1 0x64 SWAP1 REVERT JUMPDEST CALLVALUE PUSH2 0x595 JUMPI PUSH1 0x40 CALLDATASIZE PUSH1 0x3 NOT ADD SLT PUSH2 0x595 JUMPI PUSH2 0x325A PUSH2 0x6063 JUMP JUMPDEST PUSH1 0x24 CALLDATALOAD SWAP1 DUP2 ISZERO ISZERO SWAP1 DUP2 DUP4 SUB PUSH2 0x595 JUMPI PUSH1 0x1 PUSH1 0x1 PUSH1 0xA0 SHL SUB AND SWAP2 CALLER DUP4 EQ PUSH2 0x32CB JUMPI PUSH2 0x329D SWAP1 CALLER PUSH1 0x0 MSTORE PUSH1 0x7 PUSH1 0x20 MSTORE PUSH1 0x40 PUSH1 0x0 KECCAK256 DUP5 PUSH1 0x0 MSTORE PUSH1 0x20 MSTORE PUSH1 0x40 PUSH1 0x0 KECCAK256 PUSH2 0x6C23 JUMP JUMPDEST PUSH1 0x40 MLOAD SWAP1 DUP2 MSTORE PUSH32 0x17307EAB39AB6107E8899845AD3D59BD9653F200F220920489CA2B5937696C31 PUSH1 0x20 CALLER SWAP3 LOG3 STOP JUMPDEST PUSH1 0x40 MLOAD PUSH3 0x461BCD PUSH1 0xE5 SHL DUP2 MSTORE PUSH1 0x20 PUSH1 0x4 DUP3 ADD MSTORE PUSH1 0x19 PUSH1 0x24 DUP3 ADD MSTORE PUSH25 0x22A9219B99189D1030B8383937BB32903A379031B0B63632B9 PUSH1 0x39 SHL PUSH1 0x44 DUP3 ADD MSTORE PUSH1 0x64 SWAP1 REVERT JUMPDEST CALLVALUE PUSH2 0x595 JUMPI PUSH1 0x40 CALLDATASIZE PUSH1 0x3 NOT ADD SLT PUSH2 0x595 JUMPI PUSH2 0x3325 PUSH2 0x6063 JUMP JUMPDEST PUSH1 0x1 PUSH1 0x1 PUSH1 0xA0 SHL SUB SWAP1 DUP2 AND PUSH1 0x0 SWAP1 DUP2 MSTORE PUSH1 0x1B PUSH1 0x20 MSTORE PUSH1 0x40 SWAP1 KECCAK256 DUP1 SLOAD PUSH1 0x24 CALLDATALOAD SWAP1 DUP2 LT ISZERO PUSH2 0x595 JUMPI PUSH2 0xACD SWAP2 PUSH2 0x65E2 JUMP JUMPDEST CALLVALUE PUSH2 0x595 JUMPI PUSH1 0x20 DUP1 PUSH1 0x3 NOT CALLDATASIZE ADD SLT PUSH2 0x595 JUMPI PUSH1 0x4 CALLDATALOAD DUP1 PUSH1 0x0 MSTORE PUSH1 0x15 SWAP1 DUP2 DUP4 MSTORE PUSH1 0xFF PUSH1 0xF PUSH1 0x40 PUSH1 0x0 KECCAK256 ADD SLOAD SWAP2 PUSH2 0x338F DUP3 PUSH1 0x10 SWAP5 DUP6 SHR AND ISZERO PUSH2 0x72AA JUMP JUMPDEST DUP1 PUSH1 0x0 MSTORE PUSH1 0x17 DUP6 MSTORE PUSH2 0x33A7 DUP3 PUSH1 0x40 PUSH1 0x0 KECCAK256 SLOAD AND PUSH2 0x72EB JUMP JUMPDEST PUSH1 0x0 SWAP3 PUSH1 0x0 JUMPDEST DUP3 PUSH1 0x0 MSTORE DUP6 DUP8 MSTORE DUP2 PUSH1 0x40 PUSH1 0x0 KECCAK256 ADD DUP1 SLOAD DUP3 LT ISZERO PUSH2 0x33FE JUMPI PUSH1 0x4 PUSH2 0x33D1 DUP4 DUP8 SWAP4 PUSH2 0x74AE JUMP JUMPDEST POP ADD SLOAD AND ISZERO PUSH2 0x33E9 JUMPI JUMPDEST PUSH2 0x33E4 SWAP1 PUSH2 0x7391 JUMP JUMPDEST PUSH2 0x33AD JUMP JUMPDEST SWAP4 PUSH2 0x33F6 PUSH2 0x33E4 SWAP2 PUSH2 0x7391 JUMP JUMPDEST SWAP5 SWAP1 POP PUSH2 0x33DB JUMP JUMPDEST POP POP DUP5 DUP7 PUSH2 0x340B DUP7 PUSH2 0x66CA JUMP JUMPDEST SWAP6 PUSH2 0x3419 PUSH1 0x40 MLOAD SWAP8 DUP9 PUSH2 0x616A JUMP JUMPDEST DUP1 DUP8 MSTORE PUSH2 0x3428 PUSH1 0x1F NOT SWAP2 PUSH2 0x66CA JUMP JUMPDEST ADD DUP2 PUSH1 0x0 JUMPDEST DUP3 DUP2 LT PUSH2 0x34D1 JUMPI POP POP POP PUSH1 0x0 SWAP4 PUSH1 0x0 JUMPDEST DUP2 PUSH1 0x0 MSTORE DUP4 DUP4 MSTORE DUP5 PUSH1 0x40 PUSH1 0x0 KECCAK256 ADD DUP1 SLOAD DUP3 LT ISZERO PUSH2 0x34BE JUMPI PUSH1 0x4 PUSH2 0x3461 DUP4 DUP11 SWAP4 PUSH2 0x74AE JUMP JUMPDEST POP ADD SLOAD AND ISZERO PUSH2 0x3479 JUMPI JUMPDEST PUSH2 0x3474 SWAP1 PUSH2 0x7391 JUMP JUMPDEST PUSH2 0x343D JUMP JUMPDEST SWAP5 PUSH2 0x34B6 PUSH2 0x3474 SWAP2 DUP4 PUSH1 0x0 MSTORE DUP6 DUP6 MSTORE PUSH2 0x34A1 PUSH2 0x349B DUP10 DUP10 PUSH1 0x40 PUSH1 0x0 KECCAK256 ADD PUSH2 0x74AE JUMP JUMPDEST POP PUSH2 0x7330 JUMP JUMPDEST PUSH2 0x34AB DUP3 DUP13 PUSH2 0x73F0 JUMP JUMPDEST MSTORE PUSH2 0x4F7 DUP2 DUP12 PUSH2 0x73F0 JUMP JUMPDEST SWAP6 SWAP1 POP PUSH2 0x346B JUMP JUMPDEST PUSH1 0x40 MLOAD DUP5 DUP2 MSTORE DUP1 PUSH2 0x311 DUP2 DUP8 ADD DUP13 PUSH2 0x5E10 JUMP JUMPDEST PUSH2 0x34D9 PUSH2 0x747D JUMP JUMPDEST DUP3 DUP3 DUP12 ADD ADD MSTORE ADD DUP3 SWAP1 PUSH2 0x342D JUMP JUMPDEST CALLVALUE PUSH2 0x595 JUMPI PUSH1 0x40 CALLDATASIZE PUSH1 0x3 NOT ADD SLT PUSH2 0x595 JUMPI PUSH2 0x3500 PUSH2 0x6063 JUMP JUMPDEST PUSH1 0x24 CALLDATALOAD SWAP1 PUSH1 0x4 DUP3 LT ISZERO PUSH2 0x595 JUMPI PUSH2 0x3515 PUSH2 0x6879 JUMP JUMPDEST PUSH1 0x1 PUSH1 0x1 PUSH1 0xA0 SHL SUB AND PUSH1 0x0 DUP2 DUP2 MSTORE PUSH1 0x13 PUSH1 0x20 MSTORE PUSH1 0x40 SWAP1 KECCAK256 SLOAD PUSH2 0x3539 SWAP1 PUSH1 0xFF AND PUSH2 0x6E4F JUMP JUMPDEST DUP2 ISZERO PUSH2 0x35C4 JUMPI DUP1 PUSH1 0x0 MSTORE PUSH1 0x12 PUSH1 0x20 MSTORE PUSH1 0xFF PUSH1 0x40 PUSH1 0x0 KECCAK256 SLOAD AND PUSH1 0x4 DUP2 LT ISZERO PUSH2 0x1E70 JUMPI DUP3 EQ PUSH2 0x357F JUMPI PUSH1 0x0 MSTORE PUSH1 0x12 PUSH1 0x20 MSTORE PUSH1 0x40 PUSH1 0x0 KECCAK256 SWAP1 PUSH1 0xFF DUP1 NOT DUP4 SLOAD AND SWAP2 AND OR SWAP1 SSTORE PUSH1 0x0 DUP1 RETURN JUMPDEST PUSH1 0x40 MLOAD PUSH3 0x461BCD PUSH1 0xE5 SHL DUP2 MSTORE PUSH1 0x20 PUSH1 0x4 DUP3 ADD MSTORE PUSH1 0x1E PUSH1 0x24 DUP3 ADD MSTORE PUSH32 0x53656C6C657220616C7265616479206861732074686973207374617475730000 PUSH1 0x44 DUP3 ADD MSTORE PUSH1 0x64 SWAP1 REVERT JUMPDEST PUSH1 0x40 MLOAD PUSH3 0x461BCD PUSH1 0xE5 SHL DUP2 MSTORE PUSH1 0x20 PUSH1 0x4 DUP3 ADD MSTORE PUSH1 0x1F PUSH1 0x24 DUP3 ADD MSTORE PUSH32 0x43616E6E6F74207365742073746174757320746F20556E766572696669656400 PUSH1 0x44 DUP3 ADD MSTORE PUSH1 0x64 SWAP1 REVERT JUMPDEST CALLVALUE PUSH2 0x595 JUMPI PUSH1 0x0 CALLDATASIZE PUSH1 0x3 NOT ADD SLT PUSH2 0x595 JUMPI PUSH1 0x40 MLOAD PUSH1 0x0 SWAP1 PUSH1 0x3 SLOAD PUSH2 0x362C DUP2 PUSH2 0x625C JUMP JUMPDEST DUP1 DUP4 MSTORE PUSH1 0x1 SWAP2 DUP1 DUP4 AND SWAP1 DUP2 ISZERO PUSH2 0x36C3 JUMPI POP PUSH1 0x1 EQ PUSH2 0x3669 JUMPI JUMPDEST PUSH2 0x311 DUP4 PUSH2 0x3655 DUP2 DUP8 SUB DUP3 PUSH2 0x616A JUMP JUMPDEST PUSH1 0x40 MLOAD SWAP2 DUP3 SWAP2 PUSH1 0x20 DUP4 MSTORE PUSH1 0x20 DUP4 ADD SWAP1 PUSH2 0x5D74 JUMP JUMPDEST PUSH1 0x3 PUSH1 0x0 SWAP1 DUP2 MSTORE PUSH1 0x20 SWAP5 POP SWAP2 PUSH32 0xC2575A0E9E593C00F959F8C92F12DB2869C3395A3B0502D05E2516446F71F85B JUMPDEST DUP3 DUP5 LT PUSH2 0x36B0 JUMPI POP POP POP DUP2 ADD SWAP1 SWAP2 ADD SWAP1 PUSH2 0x3655 DUP2 PUSH2 0x3645 JUMP JUMPDEST DUP1 SLOAD DUP6 DUP6 ADD DUP8 ADD MSTORE SWAP3 DUP6 ADD SWAP3 DUP2 ADD PUSH2 0x3697 JUMP JUMPDEST PUSH2 0x311 SWAP6 POP PUSH2 0x3655 SWAP4 POP PUSH1 0x20 SWAP2 POP SWAP2 DUP5 SWAP3 PUSH1 0xFF NOT AND DUP3 DUP5 ADD MSTORE ISZERO ISZERO PUSH1 0x5 SHL DUP3 ADD ADD SWAP4 POP PUSH2 0x3645 JUMP JUMPDEST CALLVALUE PUSH2 0x595 JUMPI PUSH1 0x20 CALLDATASIZE PUSH1 0x3 NOT ADD SLT PUSH2 0x595 JUMPI PUSH1 0x1 PUSH1 0x1 PUSH1 0xA0 SHL SUB PUSH2 0x370C PUSH2 0x6063 JUMP JUMPDEST AND PUSH1 0x0 MSTORE PUSH1 0x11 PUSH1 0x20 MSTORE PUSH2 0x37B5 PUSH1 0x40 PUSH1 0x0 KECCAK256 PUSH1 0x40 MLOAD SWAP1 PUSH2 0x372F DUP3 PUSH2 0x5E0 DUP2 DUP5 PUSH2 0x6296 JUMP JUMPDEST PUSH1 0x40 MLOAD PUSH2 0x3743 DUP2 PUSH2 0x381 DUP2 PUSH1 0x1 DUP7 ADD PUSH2 0x6296 JUMP JUMPDEST PUSH2 0x37ED PUSH1 0x40 MLOAD PUSH2 0x375A DUP2 PUSH2 0x381 DUP2 PUSH1 0x2 DUP9 ADD PUSH2 0x6296 JUMP JUMPDEST PUSH2 0x37DF PUSH1 0x40 MLOAD PUSH2 0x3771 DUP2 PUSH2 0x381 DUP2 PUSH1 0x3 DUP11 ADD PUSH2 0x6296 JUMP JUMPDEST PUSH2 0x37D1 PUSH1 0x40 MLOAD SWAP4 PUSH2 0x3790 DUP6 PUSH2 0x3789 DUP2 PUSH1 0x4 DUP13 ADD PUSH2 0x6296 JUMP JUMPDEST SUB DUP7 PUSH2 0x616A JUMP JUMPDEST PUSH2 0x37C3 PUSH1 0xFF PUSH1 0x6 PUSH1 0x5 DUP12 ADD SLOAD SWAP11 ADD SLOAD AND SWAP8 PUSH1 0x40 MLOAD SWAP12 DUP13 SWAP12 PUSH1 0xE0 DUP14 MSTORE PUSH1 0xE0 DUP14 ADD SWAP1 PUSH2 0x5D74 JUMP JUMPDEST SWAP1 DUP12 DUP3 SUB PUSH1 0x20 DUP14 ADD MSTORE PUSH2 0x5D74 JUMP JUMPDEST SWAP1 DUP10 DUP3 SUB PUSH1 0x40 DUP12 ADD MSTORE PUSH2 0x5D74 JUMP JUMPDEST SWAP1 DUP8 DUP3 SUB PUSH1 0x60 DUP10 ADD MSTORE PUSH2 0x5D74 JUMP JUMPDEST SWAP1 DUP6 DUP3 SUB PUSH1 0x80 DUP8 ADD MSTORE PUSH2 0x5D74 JUMP JUMPDEST SWAP2 PUSH1 0xA0 DUP5 ADD MSTORE ISZERO ISZERO PUSH1 0xC0 DUP4 ADD MSTORE SUB SWAP1 RETURN JUMPDEST CALLVALUE PUSH2 0x595 JUMPI PUSH1 0x20 CALLDATASIZE PUSH1 0x3 NOT ADD SLT PUSH2 0x595 JUMPI PUSH1 0x4 CALLDATALOAD PUSH1 0x1 PUSH1 0x1 PUSH1 0x40 SHL SUB DUP2 GT PUSH2 0x595 JUMPI PUSH2 0x382E SWAP1 CALLDATASIZE SWAP1 PUSH1 0x4 ADD PUSH2 0x61DF JUMP JUMPDEST PUSH1 0x8 SLOAD PUSH1 0x0 PUSH1 0x1 JUMPDEST DUP3 DUP2 GT ISZERO PUSH2 0x3AA2 JUMPI POP PUSH2 0x3848 SWAP1 PUSH2 0x73A0 JUMP JUMPDEST SWAP1 PUSH1 0x1 PUSH1 0x0 JUMPDEST DUP3 DUP3 GT ISZERO PUSH2 0x3864 JUMPI PUSH1 0x40 MLOAD DUP1 PUSH2 0x311 DUP7 DUP3 PUSH2 0x6001 JUMP JUMPDEST DUP2 PUSH1 0x0 MSTORE PUSH1 0x15 DUP1 PUSH1 0x20 MSTORE PUSH1 0x9 SWAP1 PUSH2 0x381 PUSH2 0x388A DUP4 PUSH1 0x40 PUSH1 0x0 KECCAK256 ADD PUSH1 0x40 MLOAD SWAP3 DUP4 DUP1 SWAP3 PUSH2 0x6296 JUMP JUMPDEST PUSH1 0x20 DUP2 MLOAD SWAP2 ADD KECCAK256 DUP8 MLOAD PUSH1 0x20 DUP10 ADD KECCAK256 EQ DUP1 PUSH2 0x3A84 JUMPI JUMPDEST PUSH2 0x38B6 JUMPI JUMPDEST POP POP SWAP1 PUSH2 0x38B0 SWAP1 PUSH2 0x7391 JUMP JUMPDEST SWAP1 PUSH2 0x384E JUMP JUMPDEST DUP4 PUSH1 0x0 MSTORE PUSH1 0x20 MSTORE PUSH1 0x40 PUSH1 0x0 KECCAK256 PUSH2 0x381 PUSH2 0x3974 PUSH1 0x40 MLOAD SWAP4 PUSH2 0x38D5 DUP6 PUSH2 0x608F JUMP JUMPDEST DUP4 SLOAD DUP6 MSTORE PUSH1 0x1 DUP5 ADD SLOAD PUSH1 0x1 PUSH1 0x1 PUSH1 0xA0 SHL SUB AND PUSH1 0x20 DUP7 ADD MSTORE PUSH1 0x40 MLOAD PUSH2 0x3900 DUP2 PUSH2 0x381 DUP2 PUSH1 0x2 DUP10 ADD PUSH2 0x6296 JUMP JUMPDEST PUSH1 0x40 DUP7 ADD MSTORE PUSH1 0x40 MLOAD PUSH2 0x3919 DUP2 PUSH2 0x381 DUP2 PUSH1 0x3 DUP10 ADD PUSH2 0x6296 JUMP JUMPDEST PUSH1 0x60 DUP7 ADD MSTORE PUSH1 0x4 DUP5 ADD SLOAD PUSH1 0x80 DUP7 ADD MSTORE PUSH1 0x5 DUP5 ADD SLOAD PUSH1 0xA0 DUP7 ADD MSTORE PUSH2 0x393E PUSH1 0x6 DUP6 ADD PUSH2 0x66E1 JUMP JUMPDEST PUSH1 0xC0 DUP7 ADD MSTORE PUSH2 0x394F PUSH1 0x7 DUP6 ADD PUSH2 0x66E1 JUMP JUMPDEST PUSH1 0xE0 DUP7 ADD MSTORE PUSH2 0x3960 PUSH1 0x8 DUP6 ADD PUSH2 0x66E1 JUMP JUMPDEST PUSH2 0x100 DUP7 ADD MSTORE PUSH1 0x40 MLOAD SWAP3 DUP4 DUP1 SWAP3 DUP7 ADD PUSH2 0x6296 JUMP JUMPDEST PUSH2 0x120 DUP4 ADD MSTORE PUSH1 0x40 MLOAD PUSH2 0x398E DUP2 PUSH2 0x381 DUP2 PUSH1 0xA DUP7 ADD PUSH2 0x6296 JUMP JUMPDEST PUSH2 0x140 DUP4 ADD MSTORE PUSH1 0xB DUP2 ADD SLOAD PUSH2 0x160 DUP4 ADD MSTORE PUSH1 0x40 MLOAD PUSH2 0x39B3 DUP2 PUSH2 0x381 DUP2 PUSH1 0xC DUP7 ADD PUSH2 0x6296 JUMP JUMPDEST PUSH2 0x180 DUP4 ADD MSTORE PUSH1 0x40 MLOAD PUSH2 0x39CD DUP2 PUSH2 0x381 DUP2 PUSH1 0xD DUP7 ADD PUSH2 0x6296 JUMP JUMPDEST PUSH2 0x1A0 DUP4 ADD MSTORE PUSH1 0xE DUP2 ADD SLOAD PUSH2 0x1C0 DUP4 ADD MSTORE PUSH1 0xF DUP2 ADD SLOAD SWAP1 PUSH1 0xFF DUP1 DUP4 AND ISZERO ISZERO PUSH2 0x1E0 DUP6 ADD MSTORE DUP1 DUP4 PUSH1 0x8 SHR AND ISZERO ISZERO PUSH2 0x200 DUP6 ADD MSTORE PUSH1 0x10 SWAP3 DUP4 SHR AND ISZERO ISZERO PUSH2 0x220 DUP5 ADD MSTORE ADD DUP1 SLOAD SWAP1 PUSH2 0x3A1A DUP3 PUSH2 0x66CA JUMP JUMPDEST SWAP2 PUSH2 0x3A28 PUSH1 0x40 MLOAD SWAP4 DUP5 PUSH2 0x616A JUMP JUMPDEST DUP1 DUP4 MSTORE PUSH1 0x20 DUP4 ADD SWAP2 PUSH1 0x0 MSTORE PUSH1 0x20 PUSH1 0x0 KECCAK256 PUSH1 0x0 SWAP3 JUMPDEST DUP3 DUP5 LT PUSH2 0x3A66 JUMPI POP POP POP POP PUSH2 0x240 DUP3 ADD MSTORE PUSH2 0x38B0 SWAP2 PUSH2 0x3A5F SWAP2 PUSH2 0x4EC DUP3 DUP9 PUSH2 0x73F0 JUMP JUMPDEST SWAP1 DUP7 PUSH2 0x38A4 JUMP JUMPDEST PUSH1 0x6 PUSH1 0x20 PUSH1 0x1 SWAP3 PUSH2 0x3A76 DUP6 PUSH2 0x7330 JUMP JUMPDEST DUP2 MSTORE ADD SWAP3 ADD SWAP4 ADD SWAP3 SWAP1 PUSH2 0x3A3C JUMP JUMPDEST POP DUP4 PUSH1 0x0 MSTORE DUP1 PUSH1 0x20 MSTORE PUSH1 0xFF PUSH1 0xF PUSH1 0x40 PUSH1 0x0 KECCAK256 ADD SLOAD PUSH1 0x10 SHR AND ISZERO PUSH2 0x389F JUMP JUMPDEST DUP1 PUSH1 0x0 MSTORE PUSH1 0x15 DUP1 PUSH1 0x20 MSTORE PUSH2 0x381 PUSH2 0x3AC6 PUSH1 0x9 PUSH1 0x40 PUSH1 0x0 KECCAK256 ADD PUSH1 0x40 MLOAD SWAP3 DUP4 DUP1 SWAP3 PUSH2 0x6296 JUMP JUMPDEST PUSH1 0x20 DUP2 MLOAD SWAP2 ADD KECCAK256 DUP6 MLOAD PUSH1 0x20 DUP8 ADD KECCAK256 EQ SWAP1 DUP2 PUSH2 0x3B05 JUMPI JUMPDEST POP PUSH2 0x3AF0 JUMPI JUMPDEST PUSH2 0x3AEB SWAP1 PUSH2 0x7391 JUMP JUMPDEST PUSH2 0x3836 JUMP JUMPDEST SWAP1 PUSH2 0x3AFD PUSH2 0x3AEB SWAP2 PUSH2 0x7391 JUMP JUMPDEST SWAP2 SWAP1 POP PUSH2 0x3AE2 JUMP JUMPDEST SWAP1 POP DUP2 PUSH1 0x0 MSTORE PUSH1 0x20 MSTORE PUSH1 0xFF PUSH1 0xF PUSH1 0x40 PUSH1 0x0 KECCAK256 ADD SLOAD PUSH1 0x10 SHR AND ISZERO DUP6 PUSH2 0x3ADC JUMP JUMPDEST CALLVALUE PUSH2 0x595 JUMPI PUSH1 0x0 CALLDATASIZE PUSH1 0x3 NOT ADD SLT PUSH2 0x595 JUMPI PUSH1 0x0 SLOAD PUSH1 0x40 MLOAD PUSH1 0x1 PUSH1 0x1 PUSH1 0xA0 SHL SUB SWAP1 SWAP2 AND DUP2 MSTORE PUSH1 0x20 SWAP1 RETURN JUMPDEST CALLVALUE PUSH2 0x595 JUMPI PUSH1 0xA0 CALLDATASIZE PUSH1 0x3 NOT ADD SLT PUSH2 0x595 JUMPI PUSH1 0x4 CALLDATALOAD PUSH1 0x1 PUSH1 0x1 PUSH1 0x40 SHL SUB DUP2 GT PUSH2 0x595 JUMPI PUSH2 0x3B7D SWAP1 CALLDATASIZE SWAP1 PUSH1 0x4 ADD PUSH2 0x61DF JUMP JUMPDEST PUSH1 0x24 CALLDATALOAD PUSH1 0x1 PUSH1 0x1 PUSH1 0x40 SHL SUB DUP2 GT PUSH2 0x595 JUMPI PUSH2 0x3B9C SWAP1 CALLDATASIZE SWAP1 PUSH1 0x4 ADD PUSH2 0x61DF JUMP JUMPDEST PUSH1 0x44 CALLDATALOAD PUSH1 0x1 PUSH1 0x1 PUSH1 0x40 SHL SUB DUP2 GT PUSH2 0x595 JUMPI PUSH2 0x3BBB SWAP1 CALLDATASIZE SWAP1 PUSH1 0x4 ADD PUSH2 0x61DF JUMP JUMPDEST PUSH1 0x64 CALLDATALOAD PUSH1 0x1 PUSH1 0x1 PUSH1 0x40 SHL SUB DUP2 GT PUSH2 0x595 JUMPI PUSH2 0x3BDA SWAP1 CALLDATASIZE SWAP1 PUSH1 0x4 ADD PUSH2 0x61DF JUMP JUMPDEST SWAP1 PUSH1 0x84 CALLDATALOAD PUSH1 0x1 PUSH1 0x1 PUSH1 0x40 SHL SUB DUP2 GT PUSH2 0x595 JUMPI PUSH2 0x3BFA SWAP1 CALLDATASIZE SWAP1 PUSH1 0x4 ADD PUSH2 0x61DF JUMP JUMPDEST SWAP3 PUSH2 0x3C06 CALLER ISZERO ISZERO PUSH2 0x6D80 JUMP JUMPDEST CALLER PUSH1 0x0 MSTORE PUSH1 0x13 PUSH1 0x20 MSTORE PUSH1 0xFF PUSH1 0x40 PUSH1 0x0 KECCAK256 SLOAD AND PUSH2 0x42FB JUMPI DUP5 MLOAD ISZERO PUSH2 0x42BD JUMPI DUP2 MLOAD ISZERO PUSH2 0x4287 JUMPI DUP3 MLOAD ISZERO PUSH2 0x4251 JUMPI PUSH1 0x40 MLOAD SWAP5 PUSH2 0x3C3E DUP7 PUSH2 0x60C7 JUMP JUMPDEST DUP6 MSTORE PUSH1 0x20 DUP6 ADD MSTORE PUSH1 0x40 DUP5 ADD MSTORE PUSH1 0x60 DUP4 ADD MSTORE PUSH1 0x80 DUP3 ADD MSTORE TIMESTAMP PUSH1 0xA0 DUP3 ADD MSTORE PUSH1 0x1 PUSH1 0xC0 DUP3 ADD MSTORE CALLER PUSH1 0x0 MSTORE PUSH1 0x11 PUSH1 0x20 MSTORE PUSH1 0x40 PUSH1 0x0 KECCAK256 DUP2 MLOAD SWAP2 DUP3 MLOAD PUSH1 0x1 DUP1 PUSH1 0x40 SHL SUB DUP2 GT PUSH2 0x1305 JUMPI PUSH2 0x3C8B DUP4 SLOAD PUSH2 0x625C JUMP JUMPDEST PUSH1 0x1F DUP2 GT PUSH2 0x421F JUMPI JUMPDEST POP PUSH1 0x20 PUSH1 0x1F DUP3 GT PUSH1 0x1 EQ PUSH2 0x41B7 JUMPI DUP2 SWAP3 SWAP4 SWAP5 PUSH1 0x0 SWAP3 PUSH2 0x41AC JUMPI JUMPDEST POP POP DUP2 PUSH1 0x1 SHL SWAP2 PUSH1 0x0 NOT SWAP1 PUSH1 0x3 SHL SHR NOT AND OR DUP3 SSTORE JUMPDEST PUSH1 0x20 DUP2 ADD MLOAD DUP1 MLOAD SWAP1 SWAP3 SWAP1 PUSH1 0x1 PUSH1 0x1 PUSH1 0x40 SHL SUB DUP2 GT PUSH2 0x1305 JUMPI PUSH2 0x3CE8 PUSH1 0x1 DUP4 ADD SLOAD PUSH2 0x625C JUMP JUMPDEST PUSH1 0x1F DUP2 GT PUSH2 0x4177 JUMPI JUMPDEST POP PUSH1 0x20 PUSH1 0x1F DUP3 GT PUSH1 0x1 EQ PUSH2 0x4109 JUMPI DUP2 SWAP3 SWAP4 SWAP5 PUSH1 0x0 SWAP3 PUSH2 0x40FE JUMPI JUMPDEST POP POP DUP2 PUSH1 0x1 SHL SWAP2 PUSH1 0x0 NOT SWAP1 PUSH1 0x3 SHL SHR NOT AND OR PUSH1 0x1 DUP3 ADD SSTORE JUMPDEST PUSH1 0x40 DUP3 ADD MLOAD DUP1 MLOAD SWAP1 SWAP3 SWAP1 PUSH1 0x1 PUSH1 0x1 PUSH1 0x40 SHL SUB DUP2 GT PUSH2 0x1305 JUMPI PUSH2 0x3D48 PUSH1 0x2 DUP5 ADD SLOAD PUSH2 0x625C JUMP JUMPDEST PUSH1 0x1F DUP2 GT PUSH2 0x40C9 JUMPI JUMPDEST POP PUSH1 0x20 PUSH1 0x1F DUP3 GT PUSH1 0x1 EQ PUSH2 0x405B JUMPI DUP2 SWAP3 SWAP4 SWAP5 PUSH1 0x0 SWAP3 PUSH2 0x4050 JUMPI JUMPDEST POP POP DUP2 PUSH1 0x1 SHL SWAP2 PUSH1 0x0 NOT SWAP1 PUSH1 0x3 SHL SHR NOT AND OR PUSH1 0x2 DUP4 ADD SSTORE JUMPDEST PUSH1 0x60 DUP2 ADD MLOAD DUP1 MLOAD SWAP1 SWAP3 SWAP1 PUSH1 0x1 PUSH1 0x1 PUSH1 0x40 SHL SUB DUP2 GT PUSH2 0x1305 JUMPI PUSH2 0x3DA8 PUSH1 0x3 DUP4 ADD SLOAD PUSH2 0x625C JUMP JUMPDEST PUSH1 0x1F DUP2 GT PUSH2 0x401B JUMPI JUMPDEST POP PUSH1 0x20 PUSH1 0x1F DUP3 GT PUSH1 0x1 EQ PUSH2 0x3FAD JUMPI DUP2 SWAP3 SWAP4 SWAP5 PUSH1 0x0 SWAP3 PUSH2 0x3FA2 JUMPI JUMPDEST POP POP DUP2 PUSH1 0x1 SHL SWAP2 PUSH1 0x0 NOT SWAP1 PUSH1 0x3 SHL SHR NOT AND OR PUSH1 0x3 DUP3 ADD SSTORE JUMPDEST PUSH1 0x80 DUP3 ADD MLOAD DUP1 MLOAD SWAP1 SWAP3 SWAP1 PUSH1 0x4 DUP4 ADD SWAP1 PUSH1 0x1 PUSH1 0x1 PUSH1 0x40 SHL SUB DUP2 GT PUSH2 0x1305 JUMPI PUSH2 0x3E0A DUP3 SLOAD PUSH2 0x625C JUMP JUMPDEST PUSH1 0x1F DUP2 GT PUSH2 0x3F70 JUMPI JUMPDEST POP PUSH1 0x20 PUSH1 0x1F DUP3 GT PUSH1 0x1 EQ PUSH2 0x3F00 JUMPI SWAP2 DUP2 PUSH1 0x6 SWAP5 SWAP3 PUSH1 0xC0 SWAP5 PUSH2 0x3E60 SWAP9 PUSH1 0x0 SWAP3 PUSH2 0x3EF5 JUMPI JUMPDEST POP POP DUP2 PUSH1 0x1 SHL SWAP2 PUSH1 0x0 NOT SWAP1 PUSH1 0x3 SHL SHR NOT AND OR SWAP1 SSTORE JUMPDEST PUSH1 0xA0 DUP2 ADD MLOAD PUSH1 0x5 DUP6 ADD SSTORE ADD MLOAD ISZERO ISZERO SWAP2 ADD PUSH2 0x6C23 JUMP JUMPDEST CALLER PUSH1 0x0 MSTORE PUSH1 0x13 PUSH1 0x20 MSTORE PUSH1 0x40 PUSH1 0x0 KECCAK256 PUSH1 0xFF NOT SWAP1 PUSH1 0x1 DUP3 DUP3 SLOAD AND OR SWAP1 SSTORE PUSH1 0x12 PUSH1 0x20 MSTORE PUSH1 0x1 PUSH1 0x40 PUSH1 0x0 KECCAK256 SWAP2 DUP3 SLOAD AND OR SWAP1 SSTORE PUSH2 0x3E97 CALLER PUSH2 0x890D JUMP JUMPDEST ISZERO PUSH2 0x3E9E JUMPI STOP JUMPDEST PUSH1 0xE SLOAD PUSH1 0x1 PUSH1 0x40 SHL DUP2 LT ISZERO PUSH2 0x1305 JUMPI PUSH1 0x1 DUP2 ADD DUP1 PUSH1 0xE SSTORE DUP2 LT ISZERO PUSH2 0x2660 JUMPI PUSH1 0xE PUSH1 0x0 MSTORE PUSH32 0xBB7B4A454DC3493923482F07822329ED19E8244EFF582CC204F8554C3620C3FD ADD DUP1 SLOAD PUSH1 0x1 PUSH1 0x1 PUSH1 0xA0 SHL SUB NOT AND CALLER OR SWAP1 SSTORE STOP JUMPDEST ADD MLOAD SWAP1 POP DUP9 DUP1 PUSH2 0x3E36 JUMP JUMPDEST PUSH1 0x1F NOT DUP3 AND SWAP6 DUP4 PUSH1 0x0 MSTORE PUSH1 0x20 PUSH1 0x0 KECCAK256 SWAP7 PUSH1 0x0 JUMPDEST DUP2 DUP2 LT PUSH2 0x3F58 JUMPI POP SWAP3 PUSH2 0x3E60 SWAP8 PUSH1 0xC0 SWAP6 SWAP4 PUSH1 0x1 SWAP4 DUP4 PUSH1 0x6 SWAP10 SWAP8 LT PUSH2 0x3F3F JUMPI JUMPDEST POP POP POP DUP2 SHL ADD SWAP1 SSTORE PUSH2 0x3E4B JUMP JUMPDEST ADD MLOAD PUSH1 0x0 NOT PUSH1 0xF8 DUP5 PUSH1 0x3 SHL AND SHR NOT AND SWAP1 SSTORE DUP9 DUP1 DUP1 PUSH2 0x3F32 JUMP JUMPDEST DUP4 DUP4 ADD MLOAD DUP10 SSTORE PUSH1 0x1 SWAP1 SWAP9 ADD SWAP8 PUSH1 0x20 SWAP4 DUP5 ADD SWAP4 ADD PUSH2 0x3F13 JUMP JUMPDEST PUSH2 0x3F9C SWAP1 DUP4 PUSH1 0x0 MSTORE PUSH1 0x20 PUSH1 0x0 KECCAK256 PUSH1 0x1F DUP5 ADD PUSH1 0x5 SHR DUP2 ADD SWAP2 PUSH1 0x20 DUP6 LT PUSH2 0x13D2 JUMPI PUSH1 0x1F ADD PUSH1 0x5 SHR ADD SWAP1 PUSH2 0x6E01 JUMP JUMPDEST DUP6 PUSH2 0x3E13 JUMP JUMPDEST ADD MLOAD SWAP1 POP DUP5 DUP1 PUSH2 0x3DCB JUMP JUMPDEST PUSH1 0x3 DUP4 ADD PUSH1 0x0 MSTORE PUSH1 0x20 PUSH1 0x0 KECCAK256 SWAP1 PUSH1 0x0 JUMPDEST PUSH1 0x1F NOT DUP5 AND DUP2 LT PUSH2 0x4003 JUMPI POP PUSH1 0x1 SWAP4 SWAP5 SWAP6 DUP4 PUSH1 0x1F NOT DUP2 AND LT PUSH2 0x3FEA JUMPI JUMPDEST POP POP POP DUP2 SHL ADD PUSH1 0x3 DUP3 ADD SSTORE PUSH2 0x3DE3 JUMP JUMPDEST ADD MLOAD PUSH1 0x0 NOT PUSH1 0xF8 DUP5 PUSH1 0x3 SHL AND SHR NOT AND SWAP1 SSTORE DUP5 DUP1 DUP1 PUSH2 0x3FDA JUMP JUMPDEST SWAP1 SWAP2 PUSH1 0x20 PUSH1 0x1 DUP2 SWAP3 DUP6 DUP11 ADD MLOAD DUP2 SSTORE ADD SWAP4 ADD SWAP2 ADD PUSH2 0x3FBD JUMP JUMPDEST PUSH2 0x404A SWAP1 PUSH1 0x3 DUP5 ADD PUSH1 0x0 MSTORE PUSH1 0x20 PUSH1 0x0 KECCAK256 PUSH1 0x1F DUP5 ADD PUSH1 0x5 SHR DUP2 ADD SWAP2 PUSH1 0x20 DUP6 LT PUSH2 0x13D2 JUMPI PUSH1 0x1F ADD PUSH1 0x5 SHR ADD SWAP1 PUSH2 0x6E01 JUMP JUMPDEST DUP5 PUSH2 0x3DB1 JUMP JUMPDEST ADD MLOAD SWAP1 POP DUP5 DUP1 PUSH2 0x3D6B JUMP JUMPDEST PUSH1 0x2 DUP5 ADD PUSH1 0x0 MSTORE PUSH1 0x20 PUSH1 0x0 KECCAK256 SWAP1 PUSH1 0x0 JUMPDEST PUSH1 0x1F NOT DUP5 AND DUP2 LT PUSH2 0x40B1 JUMPI POP PUSH1 0x1 SWAP4 SWAP5 SWAP6 DUP4 PUSH1 0x1F NOT DUP2 AND LT PUSH2 0x4098 JUMPI JUMPDEST POP POP POP DUP2 SHL ADD PUSH1 0x2 DUP4 ADD SSTORE PUSH2 0x3D83 JUMP JUMPDEST ADD MLOAD PUSH1 0x0 NOT PUSH1 0xF8 DUP5 PUSH1 0x3 SHL AND SHR NOT AND SWAP1 SSTORE DUP5 DUP1 DUP1 PUSH2 0x4088 JUMP JUMPDEST SWAP1 SWAP2 PUSH1 0x20 PUSH1 0x1 DUP2 SWAP3 DUP6 DUP11 ADD MLOAD DUP2 SSTORE ADD SWAP4 ADD SWAP2 ADD PUSH2 0x406B JUMP JUMPDEST PUSH2 0x40F8 SWAP1 PUSH1 0x2 DUP6 ADD PUSH1 0x0 MSTORE PUSH1 0x20 PUSH1 0x0 KECCAK256 PUSH1 0x1F DUP5 ADD PUSH1 0x5 SHR DUP2 ADD SWAP2 PUSH1 0x20 DUP6 LT PUSH2 0x13D2 JUMPI PUSH1 0x1F ADD PUSH1 0x5 SHR ADD SWAP1 PUSH2 0x6E01 JUMP JUMPDEST DUP5 PUSH2 0x3D51 JUMP JUMPDEST ADD MLOAD SWAP1 POP DUP5 DUP1 PUSH2 0x3D0B JUMP JUMPDEST PUSH1 0x1 DUP4 ADD PUSH1 0x0 MSTORE PUSH1 0x20 PUSH1 0x0 KECCAK256 SWAP1 PUSH1 0x0 JUMPDEST PUSH1 0x1F NOT DUP5 AND DUP2 LT PUSH2 0x415F JUMPI POP PUSH1 0x1 SWAP4 SWAP5 SWAP6 DUP4 PUSH1 0x1F NOT DUP2 AND LT PUSH2 0x4146 JUMPI JUMPDEST POP POP POP DUP2 SHL ADD PUSH1 0x1 DUP3 ADD SSTORE PUSH2 0x3D23 JUMP JUMPDEST ADD MLOAD PUSH1 0x0 NOT PUSH1 0xF8 DUP5 PUSH1 0x3 SHL AND SHR NOT AND SWAP1 SSTORE DUP5 DUP1 DUP1 PUSH2 0x4136 JUMP JUMPDEST SWAP1 SWAP2 PUSH1 0x20 PUSH1 0x1 DUP2 SWAP3 DUP6 DUP11 ADD MLOAD DUP2 SSTORE ADD SWAP4 ADD SWAP2 ADD PUSH2 0x4119 JUMP JUMPDEST PUSH2 0x41A6 SWAP1 PUSH1 0x1 DUP5 ADD PUSH1 0x0 MSTORE PUSH1 0x20 PUSH1 0x0 KECCAK256 PUSH1 0x1F DUP5 ADD PUSH1 0x5 SHR DUP2 ADD SWAP2 PUSH1 0x20 DUP6 LT PUSH2 0x13D2 JUMPI PUSH1 0x1F ADD PUSH1 0x5 SHR ADD SWAP1 PUSH2 0x6E01 JUMP JUMPDEST DUP5 PUSH2 0x3CF1 JUMP JUMPDEST ADD MLOAD SWAP1 POP DUP5 DUP1 PUSH2 0x3CAE JUMP JUMPDEST DUP4 PUSH1 0x0 MSTORE PUSH1 0x20 PUSH1 0x0 KECCAK256 SWAP1 PUSH1 0x0 JUMPDEST PUSH1 0x1F NOT DUP5 AND DUP2 LT PUSH2 0x4207 JUMPI POP PUSH1 0x1 SWAP4 SWAP5 SWAP6 DUP4 PUSH1 0x1F NOT DUP2 AND LT PUSH2 0x41EE JUMPI JUMPDEST POP POP POP DUP2 SHL ADD DUP3 SSTORE PUSH2 0x3CC3 JUMP JUMPDEST ADD MLOAD PUSH1 0x0 NOT PUSH1 0xF8 DUP5 PUSH1 0x3 SHL AND SHR NOT AND SWAP1 SSTORE DUP5 DUP1 DUP1 PUSH2 0x41E1 JUMP JUMPDEST SWAP1 SWAP2 PUSH1 0x20 PUSH1 0x1 DUP2 SWAP3 DUP6 DUP11 ADD MLOAD DUP2 SSTORE ADD SWAP4 ADD SWAP2 ADD PUSH2 0x41C4 JUMP JUMPDEST PUSH2 0x424B SWAP1 DUP5 PUSH1 0x0 MSTORE PUSH1 0x20 PUSH1 0x0 KECCAK256 PUSH1 0x1F DUP5 ADD PUSH1 0x5 SHR DUP2 ADD SWAP2 PUSH1 0x20 DUP6 LT PUSH2 0x13D2 JUMPI PUSH1 0x1F ADD PUSH1 0x5 SHR ADD SWAP1 PUSH2 0x6E01 JUMP JUMPDEST DUP5 PUSH2 0x3C94 JUMP JUMPDEST PUSH1 0x40 MLOAD PUSH3 0x461BCD PUSH1 0xE5 SHL DUP2 MSTORE PUSH1 0x20 PUSH1 0x4 DUP3 ADD MSTORE PUSH1 0xE PUSH1 0x24 DUP3 ADD MSTORE PUSH14 0x141A1BDB99481C995C5D5A5C9959 PUSH1 0x92 SHL PUSH1 0x44 DUP3 ADD MSTORE PUSH1 0x64 SWAP1 REVERT JUMPDEST PUSH1 0x40 MLOAD PUSH3 0x461BCD PUSH1 0xE5 SHL DUP2 MSTORE PUSH1 0x20 PUSH1 0x4 DUP3 ADD MSTORE PUSH1 0xE PUSH1 0x24 DUP3 ADD MSTORE PUSH14 0x115B585A5B081C995C5D5A5C9959 PUSH1 0x92 SHL PUSH1 0x44 DUP3 ADD MSTORE PUSH1 0x64 SWAP1 REVERT JUMPDEST PUSH1 0x40 MLOAD PUSH3 0x461BCD PUSH1 0xE5 SHL DUP2 MSTORE PUSH1 0x20 PUSH1 0x4 DUP3 ADD MSTORE PUSH1 0x16 PUSH1 0x24 DUP3 ADD MSTORE PUSH22 0x109D5CDA5B995CDCC81B985B59481C995C5D5A5C9959 PUSH1 0x52 SHL PUSH1 0x44 DUP3 ADD MSTORE PUSH1 0x64 SWAP1 REVERT JUMPDEST PUSH1 0x40 MLOAD PUSH3 0x461BCD PUSH1 0xE5 SHL DUP2 MSTORE PUSH1 0x20 PUSH1 0x4 DUP3 ADD MSTORE PUSH1 0x1C PUSH1 0x24 DUP3 ADD MSTORE PUSH28 0x20B63932B0B23C903932B3B4B9BA32B932B21030B99039B2B63632B9 PUSH1 0x21 SHL PUSH1 0x44 DUP3 ADD MSTORE PUSH1 0x64 SWAP1 REVERT JUMPDEST CALLVALUE PUSH2 0x595 JUMPI PUSH1 0x40 CALLDATASIZE PUSH1 0x3 NOT ADD SLT PUSH2 0x595 JUMPI PUSH1 0x4 CALLDATALOAD PUSH1 0x1 PUSH1 0x1 PUSH1 0x40 SHL SUB PUSH1 0x24 CALLDATALOAD DUP2 DUP2 GT PUSH2 0x595 JUMPI PUSH2 0x4373 SWAP1 CALLDATASIZE SWAP1 PUSH1 0x4 ADD PUSH2 0x61DF JUMP JUMPDEST SWAP2 PUSH2 0x437C PUSH2 0x6879 JUMP JUMPDEST DUP1 PUSH1 0x0 MSTORE PUSH1 0x20 SWAP2 PUSH1 0x18 DUP4 MSTORE PUSH1 0x40 PUSH1 0x0 KECCAK256 SLOAD ISZERO PUSH2 0x4551 JUMPI DUP4 MLOAD ISZERO PUSH2 0x450E JUMPI PUSH2 0x43A4 PUSH1 0xC SLOAD PUSH2 0x7391 JUMP JUMPDEST SWAP1 DUP2 PUSH1 0xC SSTORE PUSH1 0x40 MLOAD SWAP5 PUSH2 0x43B6 DUP7 PUSH2 0x60FE JUMP JUMPDEST DUP3 DUP7 MSTORE DUP5 DUP7 ADD SWAP1 DUP2 MSTORE PUSH1 0x40 DUP7 ADD SWAP2 DUP5 DUP4 MSTORE PUSH1 0x60 DUP8 ADD SWAP4 PUSH1 0x1 SWAP1 DUP2 DUP7 MSTORE PUSH1 0x0 MSTORE PUSH1 0x19 DUP8 MSTORE PUSH1 0x40 PUSH1 0x0 KECCAK256 SWAP8 MLOAD DUP9 SSTORE DUP1 DUP9 ADD SWAP3 MLOAD DUP1 MLOAD SWAP3 DUP4 GT PUSH2 0x1305 JUMPI PUSH2 0x43FA DUP5 SLOAD PUSH2 0x625C JUMP JUMPDEST PUSH1 0x1F DUP2 GT PUSH2 0x44DE JUMPI JUMPDEST POP DUP8 SWAP1 PUSH1 0x1F DUP5 GT PUSH1 0x1 EQ PUSH2 0x446E JUMPI SWAP3 DUP1 DUP1 PUSH1 0x18 SWAP12 SWAP8 SWAP5 PUSH1 0x3 SWAP8 SWAP5 PUSH2 0x444B SWAP11 SWAP8 PUSH1 0x0 SWAP5 PUSH2 0x4463 JUMPI JUMPDEST POP POP SHL SWAP2 PUSH1 0x0 NOT SWAP1 DUP8 SHL SHR NOT AND OR SWAP1 SSTORE JUMPDEST MLOAD PUSH1 0x2 DUP5 ADD SSTORE MLOAD ISZERO ISZERO SWAP2 ADD PUSH2 0x6C23 JUMP JUMPDEST PUSH1 0x0 MSTORE MSTORE PUSH2 0x1262 PUSH1 0x3 PUSH1 0x40 PUSH1 0x0 KECCAK256 ADD PUSH1 0xC SLOAD SWAP1 PUSH2 0x722A JUMP JUMPDEST ADD MLOAD SWAP3 POP DUP14 DUP1 PUSH2 0x442A JUMP JUMPDEST SWAP1 PUSH1 0x1F SWAP4 SWAP3 SWAP4 NOT DUP4 AND SWAP2 DUP6 PUSH1 0x0 MSTORE DUP10 PUSH1 0x0 KECCAK256 SWAP3 PUSH1 0x0 JUMPDEST DUP2 DUP2 LT PUSH2 0x44C9 JUMPI POP SWAP3 PUSH2 0x444B SWAP9 SWAP6 SWAP3 DUP6 SWAP3 PUSH1 0x18 SWAP14 SWAP10 SWAP7 PUSH1 0x3 SWAP10 SWAP7 LT PUSH2 0x44B1 JUMPI JUMPDEST POP POP POP DUP2 SHL ADD SWAP1 SSTORE PUSH2 0x443B JUMP JUMPDEST ADD MLOAD PUSH1 0x0 NOT DUP4 DUP10 SHL PUSH1 0xF8 AND SHR NOT AND SWAP1 SSTORE DUP12 DUP1 DUP1 PUSH2 0x44A4 JUMP JUMPDEST DUP3 DUP5 ADD MLOAD DUP6 SSTORE SWAP4 DUP7 ADD SWAP4 SWAP3 DUP12 ADD SWAP3 DUP12 ADD PUSH2 0x4484 JUMP JUMPDEST PUSH2 0x4508 SWAP1 DUP6 PUSH1 0x0 MSTORE DUP10 PUSH1 0x0 KECCAK256 PUSH1 0x1F DUP7 ADD PUSH1 0x5 SHR DUP2 ADD SWAP2 DUP12 DUP8 LT PUSH2 0x13D2 JUMPI PUSH1 0x1F ADD PUSH1 0x5 SHR ADD SWAP1 PUSH2 0x6E01 JUMP JUMPDEST DUP10 PUSH2 0x4403 JUMP JUMPDEST PUSH1 0x64 DUP4 PUSH1 0x40 MLOAD SWAP1 PUSH3 0x461BCD PUSH1 0xE5 SHL DUP3 MSTORE DUP1 PUSH1 0x4 DUP4 ADD MSTORE PUSH1 0x24 DUP3 ADD MSTORE PUSH32 0x53756263617465676F7279206E616D652063616E6E6F7420626520656D707479 PUSH1 0x44 DUP3 ADD MSTORE REVERT JUMPDEST PUSH1 0x40 MLOAD PUSH3 0x461BCD PUSH1 0xE5 SHL DUP2 MSTORE PUSH1 0x4 DUP2 ADD DUP5 SWAP1 MSTORE PUSH1 0x1E PUSH1 0x24 DUP3 ADD MSTORE PUSH32 0x506172656E742063617465676F727920646F6573206E6F742065786973740000 PUSH1 0x44 DUP3 ADD MSTORE PUSH1 0x64 SWAP1 REVERT JUMPDEST CALLVALUE PUSH2 0x595 JUMPI PUSH1 0x20 CALLDATASIZE PUSH1 0x3 NOT ADD SLT PUSH2 0x595 JUMPI PUSH1 0x4 CALLDATALOAD PUSH1 0x0 MSTORE PUSH1 0x15 PUSH1 0x20 MSTORE PUSH1 0x40 PUSH1 0x0 KECCAK256 DUP1 SLOAD PUSH1 0x1 PUSH1 0xA0 SHL PUSH1 0x1 SWAP1 SUB PUSH1 0x1 DUP4 ADD SLOAD AND SWAP2 PUSH1 0x40 MLOAD DUP1 DUP1 PUSH1 0x2 DUP5 ADD SWAP1 PUSH2 0x45DC SWAP2 PUSH2 0x6296 JUMP JUMPDEST SUB PUSH2 0x45E7 SWAP1 DUP3 PUSH2 0x616A JUMP JUMPDEST PUSH1 0x40 MLOAD DUP1 PUSH2 0x45F8 DUP2 PUSH1 0x3 DUP7 ADD PUSH2 0x6296 JUMP JUMPDEST SUB PUSH2 0x4603 SWAP1 DUP3 PUSH2 0x616A JUMP JUMPDEST PUSH1 0x4 DUP4 ADD SLOAD PUSH1 0x5 DUP5 ADD SLOAD SWAP1 PUSH1 0x40 MLOAD DUP1 DUP1 PUSH1 0x9 DUP9 ADD SWAP1 PUSH2 0x4621 SWAP2 PUSH2 0x6296 JUMP JUMPDEST SUB PUSH2 0x462C SWAP1 DUP3 PUSH2 0x616A JUMP JUMPDEST PUSH1 0x40 MLOAD SWAP1 DUP2 PUSH2 0x463E DUP2 PUSH1 0xA DUP11 ADD PUSH2 0x6296 JUMP JUMPDEST SUB PUSH2 0x4649 SWAP1 DUP4 PUSH2 0x616A JUMP JUMPDEST PUSH1 0xB DUP8 ADD SLOAD SWAP3 PUSH1 0x40 MLOAD SWAP5 DUP6 DUP1 PUSH1 0xC DUP12 ADD SWAP1 PUSH2 0x4663 SWAP2 PUSH2 0x6296 JUMP JUMPDEST SUB PUSH2 0x466E SWAP1 DUP8 PUSH2 0x616A JUMP JUMPDEST PUSH1 0x40 MLOAD SWAP7 DUP8 PUSH2 0x4680 DUP2 PUSH1 0xD DUP14 ADD PUSH2 0x6296 JUMP JUMPDEST SUB PUSH2 0x468B SWAP1 DUP10 PUSH2 0x616A JUMP JUMPDEST PUSH1 0xE DUP11 ADD SLOAD SWAP10 PUSH1 0xF ADD SLOAD SWAP9 PUSH1 0x40 MLOAD SWAP13 DUP14 SWAP13 DUP14 MSTORE PUSH1 0x20 DUP14 ADD MSTORE DUP12 PUSH2 0x1E0 PUSH1 0x40 DUP2 SWAP3 ADD MSTORE DUP13 ADD PUSH2 0x46B8 SWAP2 PUSH2 0x5D74 JUMP JUMPDEST DUP12 DUP2 SUB PUSH1 0x60 DUP14 ADD MSTORE PUSH2 0x46C9 SWAP2 PUSH2 0x5D74 JUMP JUMPDEST SWAP2 PUSH1 0x80 DUP12 ADD MSTORE PUSH1 0xA0 DUP11 ADD MSTORE DUP9 DUP2 SUB PUSH1 0xC0 DUP11 ADD MSTORE PUSH2 0x46E5 SWAP2 PUSH2 0x5D74 JUMP JUMPDEST DUP8 DUP2 SUB PUSH1 0xE0 DUP10 ADD MSTORE PUSH2 0x46F6 SWAP2 PUSH2 0x5D74 JUMP JUMPDEST SWAP1 PUSH2 0x100 DUP8 ADD MSTORE DUP6 DUP2 SUB PUSH2 0x120 DUP8 ADD MSTORE PUSH2 0x470F SWAP2 PUSH2 0x5D74 JUMP JUMPDEST DUP5 DUP2 SUB PUSH2 0x140 DUP7 ADD MSTORE PUSH2 0x4721 SWAP2 PUSH2 0x5D74 JUMP JUMPDEST SWAP2 PUSH2 0x160 DUP5 ADD MSTORE PUSH1 0xFF DUP2 AND ISZERO ISZERO PUSH2 0x180 DUP5 ADD MSTORE DUP1 PUSH1 0x8 SHR PUSH1 0xFF AND ISZERO ISZERO PUSH2 0x1A0 DUP5 ADD MSTORE PUSH1 0x10 SHR PUSH1 0xFF AND ISZERO ISZERO PUSH2 0x1C0 DUP4 ADD MSTORE SUB SWAP1 RETURN JUMPDEST CALLVALUE PUSH2 0x595 JUMPI PUSH1 0x0 CALLDATASIZE PUSH1 0x3 NOT ADD SLT PUSH2 0x595 JUMPI PUSH2 0x476E PUSH2 0x6879 JUMP JUMPDEST PUSH1 0x0 DUP1 SLOAD PUSH1 0x1 PUSH1 0x1 PUSH1 0xA0 SHL SUB NOT DUP2 AND DUP3 SSTORE PUSH1 0x1 PUSH1 0x1 PUSH1 0xA0 SHL SUB AND PUSH1 0x0 DUP1 MLOAD PUSH1 0x20 PUSH2 0x895C DUP4 CODECOPY DUP2 MLOAD SWAP2 MSTORE DUP3 DUP1 LOG3 STOP JUMPDEST CALLVALUE PUSH2 0x595 JUMPI PUSH1 0x20 CALLDATASIZE PUSH1 0x3 NOT ADD SLT PUSH2 0x595 JUMPI PUSH1 0x1 PUSH1 0x1 PUSH1 0xA0 SHL SUB PUSH2 0x47BD PUSH2 0x6063 JUMP JUMPDEST AND DUP1 ISZERO PUSH2 0x47DC JUMPI PUSH1 0x0 MSTORE PUSH1 0x5 PUSH1 0x20 MSTORE PUSH1 0x20 PUSH1 0x40 PUSH1 0x0 KECCAK256 SLOAD PUSH1 0x40 MLOAD SWAP1 DUP2 MSTORE RETURN JUMPDEST PUSH1 0x40 MLOAD PUSH3 0x461BCD PUSH1 0xE5 SHL DUP2 MSTORE PUSH1 0x20 PUSH1 0x4 DUP3 ADD MSTORE PUSH1 0x29 PUSH1 0x24 DUP3 ADD MSTORE PUSH32 0x4552433732313A2061646472657373207A65726F206973206E6F742061207661 PUSH1 0x44 DUP3 ADD MSTORE PUSH9 0x3634B21037BBB732B9 PUSH1 0xB9 SHL PUSH1 0x64 DUP3 ADD MSTORE PUSH1 0x84 SWAP1 REVERT JUMPDEST CALLVALUE PUSH2 0x595 JUMPI PUSH1 0x20 DUP1 PUSH1 0x3 NOT CALLDATASIZE ADD SLT PUSH2 0x595 JUMPI PUSH2 0x484D PUSH2 0x6063 JUMP JUMPDEST PUSH1 0x40 MLOAD SWAP1 PUSH2 0x485A DUP3 PUSH2 0x6119 JUMP JUMPDEST PUSH1 0x0 PUSH1 0x80 PUSH1 0x60 SWAP4 DUP5 DUP2 MSTORE DUP5 DUP7 DUP3 ADD MSTORE DUP5 PUSH1 0x40 DUP3 ADD MSTORE DUP3 DUP6 DUP3 ADD MSTORE ADD MSTORE PUSH1 0x1 DUP1 PUSH1 0xA0 SHL SUB AND SWAP1 DUP2 PUSH1 0x0 MSTORE PUSH1 0x14 DUP4 MSTORE PUSH1 0xFF PUSH1 0x40 PUSH1 0x0 KECCAK256 SLOAD AND SWAP2 PUSH1 0x10 DUP5 MSTORE PUSH1 0x40 PUSH1 0x0 KECCAK256 SWAP2 PUSH1 0x40 MLOAD SWAP2 PUSH2 0x48A8 DUP4 PUSH2 0x6119 JUMP JUMPDEST PUSH1 0x40 MLOAD PUSH2 0x48B9 DUP2 PUSH2 0x381 DUP2 DUP9 PUSH2 0x6296 JUMP JUMPDEST DUP4 MSTORE PUSH1 0x40 MLOAD SWAP1 PUSH2 0x48D0 DUP3 PUSH2 0x5E0 DUP2 PUSH1 0x1 DUP10 ADD PUSH2 0x6296 JUMP JUMPDEST DUP7 DUP5 ADD SWAP2 DUP3 MSTORE PUSH1 0x40 MLOAD SWAP2 PUSH2 0x48F2 DUP4 PUSH2 0x48EB DUP2 PUSH1 0x2 DUP11 ADD PUSH2 0x6296 JUMP JUMPDEST SUB DUP5 PUSH2 0x616A JUMP JUMPDEST PUSH1 0x40 DUP6 ADD SWAP3 DUP4 MSTORE PUSH1 0xFF PUSH1 0x4 PUSH1 0x3 DUP9 ADD SLOAD SWAP8 DUP7 DUP9 ADD SWAP9 DUP10 MSTORE ADD SLOAD AND SWAP2 PUSH1 0x80 DUP7 ADD SWAP3 ISZERO ISZERO DUP4 MSTORE PUSH1 0x0 MSTORE PUSH1 0x13 DUP9 MSTORE PUSH1 0xFF PUSH1 0x40 PUSH1 0x0 KECCAK256 SLOAD AND SWAP3 DUP4 PUSH1 0x0 EQ PUSH2 0x49B5 JUMPI PUSH1 0x12 DUP10 MSTORE PUSH1 0xFF PUSH1 0x40 PUSH1 0x0 KECCAK256 SLOAD AND SWAP6 JUMPDEST PUSH1 0x40 MLOAD SWAP10 DUP11 SWAP10 ISZERO ISZERO DUP11 MSTORE DUP10 ADD PUSH1 0x80 SWAP1 MSTORE MLOAD PUSH1 0x80 DUP10 ADD PUSH1 0xA0 SWAP1 MSTORE PUSH2 0x120 DUP10 ADD PUSH2 0x4965 SWAP2 PUSH2 0x5D74 JUMP JUMPDEST SWAP2 MLOAD PUSH1 0x7F NOT SWAP3 DUP4 DUP11 DUP3 SUB ADD PUSH1 0xA0 DUP12 ADD MSTORE PUSH2 0x497E SWAP2 PUSH2 0x5D74 JUMP JUMPDEST SWAP1 MLOAD SWAP2 DUP9 DUP3 SUB ADD PUSH1 0xC0 DUP10 ADD MSTORE PUSH2 0x4993 SWAP2 PUSH2 0x5D74 JUMP JUMPDEST SWAP5 MLOAD PUSH1 0xE0 DUP8 ADD MSTORE MLOAD ISZERO ISZERO PUSH2 0x100 DUP7 ADD MSTORE ISZERO ISZERO PUSH1 0x40 DUP6 ADD MSTORE DUP4 ADD PUSH2 0x311 SWAP2 PUSH2 0x65BD JUMP JUMPDEST PUSH1 0x0 SWAP6 PUSH2 0x493E JUMP JUMPDEST CALLVALUE PUSH2 0x595 JUMPI PUSH1 0x20 CALLDATASIZE PUSH1 0x3 NOT ADD SLT PUSH2 0x595 JUMPI PUSH1 0x4 CALLDATALOAD PUSH1 0x0 MSTORE PUSH1 0x19 PUSH1 0x20 MSTORE PUSH1 0x40 PUSH1 0x0 KECCAK256 PUSH1 0x40 MLOAD PUSH2 0x49EA DUP2 PUSH2 0x60FE JUMP JUMPDEST DUP2 SLOAD DUP2 MSTORE PUSH1 0x40 MLOAD SWAP1 PUSH2 0x4A03 DUP3 PUSH2 0x5E0 DUP2 PUSH1 0x1 DUP8 ADD PUSH2 0x6296 JUMP JUMPDEST PUSH1 0x20 DUP2 ADD SWAP2 DUP3 MSTORE PUSH1 0xFF PUSH1 0x3 PUSH1 0x2 DUP6 ADD SLOAD SWAP5 PUSH1 0x40 DUP5 ADD SWAP6 DUP7 MSTORE ADD SLOAD AND SWAP1 PUSH1 0x60 DUP2 ADD SWAP2 ISZERO ISZERO DUP3 MSTORE DUP1 MLOAD ISZERO PUSH2 0x4A63 JUMPI MLOAD SWAP2 MLOAD SWAP3 MLOAD SWAP1 MLOAD ISZERO ISZERO PUSH2 0x4A54 PUSH1 0x40 MLOAD SWAP5 DUP6 SWAP5 DUP6 MSTORE PUSH1 0x80 PUSH1 0x20 DUP7 ADD MSTORE PUSH1 0x80 DUP6 ADD SWAP1 PUSH2 0x5D74 JUMP JUMPDEST SWAP2 PUSH1 0x40 DUP5 ADD MSTORE PUSH1 0x60 DUP4 ADD MSTORE SUB SWAP1 RETURN JUMPDEST PUSH1 0x40 MLOAD PUSH3 0x461BCD PUSH1 0xE5 SHL DUP2 MSTORE PUSH1 0x20 PUSH1 0x4 DUP3 ADD MSTORE PUSH1 0x1A PUSH1 0x24 DUP3 ADD MSTORE PUSH26 0x14DD5898D85D1959DBDC9E48191BD95CC81B9BDD08195E1A5CDD PUSH1 0x32 SHL PUSH1 0x44 DUP3 ADD MSTORE PUSH1 0x64 SWAP1 REVERT JUMPDEST CALLVALUE PUSH2 0x595 JUMPI PUSH1 0x20 CALLDATASIZE PUSH1 0x3 NOT ADD SLT PUSH2 0x595 JUMPI PUSH1 0x20 PUSH2 0x4AC3 PUSH1 0x4 CALLDATALOAD PUSH2 0x6918 JUMP JUMPDEST PUSH1 0x40 MLOAD PUSH1 0x1 PUSH1 0x1 PUSH1 0xA0 SHL SUB SWAP1 SWAP2 AND DUP2 MSTORE RETURN JUMPDEST CALLVALUE PUSH2 0x595 JUMPI PUSH1 0x20 CALLDATASIZE PUSH1 0x3 NOT ADD SLT PUSH2 0x595 JUMPI PUSH1 0x1 PUSH1 0x1 PUSH1 0xA0 SHL SUB PUSH2 0x4AF6 PUSH2 0x6063 JUMP JUMPDEST AND PUSH1 0x0 MSTORE PUSH1 0x1A PUSH1 0x20 MSTORE PUSH1 0x20 PUSH1 0x40 PUSH1 0x0 KECCAK256 SLOAD PUSH1 0x40 MLOAD SWAP1 DUP2 MSTORE RETURN JUMPDEST CALLVALUE PUSH2 0x595 JUMPI PUSH1 0x20 CALLDATASIZE PUSH1 0x3 NOT ADD SLT PUSH2 0x595 JUMPI PUSH1 0x4 CALLDATALOAD PUSH2 0x4B2B PUSH2 0x6879 JUMP JUMPDEST PUSH1 0x64 DUP2 GT PUSH2 0x4B38 JUMPI PUSH1 0xD SSTORE STOP JUMPDEST PUSH1 0x40 MLOAD PUSH3 0x461BCD PUSH1 0xE5 SHL DUP2 MSTORE PUSH1 0x20 PUSH1 0x4 DUP3 ADD MSTORE PUSH1 0x12 PUSH1 0x24 DUP3 ADD MSTORE PUSH18 0x496E76616C69642070657263656E74616765 PUSH1 0x70 SHL PUSH1 0x44 DUP3 ADD MSTORE PUSH1 0x64 SWAP1 REVERT JUMPDEST CALLVALUE PUSH2 0x595 JUMPI PUSH1 0x0 CALLDATASIZE PUSH1 0x3 NOT ADD SLT PUSH2 0x595 JUMPI PUSH1 0x40 MLOAD DUP1 PUSH1 0xE SLOAD DUP1 DUP4 MSTORE PUSH1 0x20 DUP1 SWAP4 ADD DUP1 SWAP2 PUSH1 0xE PUSH1 0x0 MSTORE DUP5 PUSH1 0x0 KECCAK256 SWAP1 PUSH1 0x0 JUMPDEST DUP7 DUP3 DUP3 LT PUSH2 0x4C00 JUMPI DUP7 DUP7 PUSH2 0x4BB7 DUP3 DUP9 SUB DUP4 PUSH2 0x616A JUMP JUMPDEST PUSH1 0x40 MLOAD SWAP3 DUP4 SWAP3 DUP2 DUP5 ADD SWAP1 DUP3 DUP6 MSTORE MLOAD DUP1 SWAP2 MSTORE PUSH1 0x40 DUP5 ADD SWAP3 SWAP2 PUSH1 0x0 JUMPDEST DUP3 DUP2 LT PUSH2 0x4BE0 JUMPI POP POP POP POP SUB SWAP1 RETURN JUMPDEST DUP4 MLOAD PUSH1 0x1 PUSH1 0x1 PUSH1 0xA0 SHL SUB AND DUP6 MSTORE DUP7 SWAP6 POP SWAP4 DUP2 ADD SWAP4 SWAP3 DUP2 ADD SWAP3 PUSH1 0x1 ADD PUSH2 0x4BD1 JUMP JUMPDEST DUP4 SLOAD PUSH1 0x1 PUSH1 0x1 PUSH1 0xA0 SHL SUB AND DUP6 MSTORE SWAP1 SWAP4 ADD SWAP3 PUSH1 0x1 SWAP3 DUP4 ADD SWAP3 ADD PUSH2 0x4BA1 JUMP JUMPDEST CALLVALUE PUSH2 0x595 JUMPI PUSH1 0x20 CALLDATASIZE PUSH1 0x3 NOT ADD SLT PUSH2 0x595 JUMPI PUSH1 0x4 CALLDATALOAD PUSH1 0xF SLOAD DUP2 LT ISZERO PUSH2 0x595 JUMPI PUSH1 0xF PUSH1 0x0 MSTORE PUSH1 0x0 DUP1 MLOAD PUSH1 0x20 PUSH2 0x899C DUP4 CODECOPY DUP2 MLOAD SWAP2 MSTORE ADD SLOAD PUSH1 0x40 MLOAD PUSH1 0x1 PUSH1 0x1 PUSH1 0xA0 SHL SUB SWAP1 SWAP2 AND DUP2 MSTORE PUSH1 0x20 SWAP1 RETURN JUMPDEST CALLVALUE PUSH2 0x595 JUMPI PUSH1 0x20 CALLDATASIZE PUSH1 0x3 NOT ADD SLT PUSH2 0x595 JUMPI PUSH1 0x1 PUSH1 0x1 PUSH1 0xA0 SHL SUB PUSH2 0x4C87 PUSH2 0x6063 JUMP JUMPDEST AND PUSH1 0x0 MSTORE PUSH1 0x12 PUSH1 0x20 MSTORE PUSH1 0x20 PUSH1 0xFF PUSH1 0x40 PUSH1 0x0 KECCAK256 SLOAD AND PUSH2 0x773 PUSH1 0x40 MLOAD DUP1 SWAP3 PUSH2 0x65BD JUMP JUMPDEST CALLVALUE PUSH2 0x595 JUMPI PUSH1 0x20 DUP1 PUSH1 0x3 NOT CALLDATASIZE ADD SLT PUSH2 0x595 JUMPI PUSH2 0x4CC2 PUSH2 0x6063 JUMP JUMPDEST PUSH2 0x4CCA PUSH2 0x6E18 JUMP JUMPDEST POP PUSH1 0x1 PUSH1 0x1 PUSH1 0xA0 SHL SUB AND PUSH1 0x0 DUP2 DUP2 MSTORE PUSH1 0x13 DUP4 MSTORE PUSH1 0x40 SWAP1 KECCAK256 SLOAD PUSH2 0x4CEE SWAP1 PUSH1 0xFF AND PUSH2 0x6E4F JUMP JUMPDEST PUSH1 0x0 MSTORE PUSH1 0x11 DUP2 MSTORE PUSH1 0x40 PUSH1 0x0 KECCAK256 SWAP1 PUSH1 0xFF PUSH1 0x6 PUSH1 0x40 MLOAD SWAP4 PUSH2 0x4D0C DUP6 PUSH2 0x60C7 JUMP JUMPDEST PUSH1 0x40 MLOAD PUSH2 0x4D1D DUP2 PUSH2 0x381 DUP2 DUP6 PUSH2 0x6296 JUMP JUMPDEST DUP6 MSTORE PUSH1 0x40 MLOAD PUSH2 0x4D33 DUP2 PUSH2 0x381 DUP2 PUSH1 0x1 DUP7 ADD PUSH2 0x6296 JUMP JUMPDEST DUP5 DUP7 ADD MSTORE PUSH1 0x40 MLOAD PUSH2 0x4D4B DUP2 PUSH2 0x381 DUP2 PUSH1 0x2 DUP7 ADD PUSH2 0x6296 JUMP JUMPDEST PUSH1 0x40 DUP7 ADD MSTORE PUSH1 0x40 MLOAD PUSH2 0x4D64 DUP2 PUSH2 0x381 DUP2 PUSH1 0x3 DUP7 ADD PUSH2 0x6296 JUMP JUMPDEST PUSH1 0x60 DUP7 ADD MSTORE PUSH1 0x40 MLOAD PUSH2 0x4D7D DUP2 PUSH2 0x381 DUP2 PUSH1 0x4 DUP7 ADD PUSH2 0x6296 JUMP JUMPDEST PUSH1 0x80 DUP7 ADD MSTORE PUSH1 0x5 DUP2 ADD SLOAD PUSH1 0xA0 DUP7 ADD MSTORE ADD SLOAD AND ISZERO ISZERO PUSH1 0xC0 DUP4 ADD MSTORE PUSH2 0x311 PUSH1 0x40 MLOAD SWAP3 DUP3 DUP5 SWAP4 DUP5 MSTORE DUP4 ADD SWAP1 PUSH2 0x653D JUMP JUMPDEST CALLVALUE PUSH2 0x595 JUMPI PUSH2 0x1262 PUSH2 0x4DBB CALLDATASIZE PUSH2 0x6227 JUMP JUMPDEST SWAP1 PUSH1 0x40 MLOAD SWAP3 PUSH2 0x4DC9 DUP5 PUSH2 0x614F JUMP JUMPDEST PUSH1 0x0 DUP5 MSTORE PUSH2 0x69C4 JUMP JUMPDEST CALLVALUE PUSH2 0x595 JUMPI PUSH1 0x0 CALLDATASIZE PUSH1 0x3 NOT ADD SLT PUSH2 0x595 JUMPI PUSH2 0x4DEB PUSH2 0x74CA JUMP JUMPDEST CALLER PUSH1 0x0 MSTORE PUSH1 0x13 PUSH1 0x20 MSTORE PUSH1 0xFF PUSH1 0x40 PUSH1 0x0 KECCAK256 SLOAD AND ISZERO PUSH2 0x4EA2 JUMPI CALLER PUSH1 0x0 MSTORE PUSH1 0x1A PUSH1 0x20 MSTORE PUSH1 0x40 PUSH1 0x0 KECCAK256 SLOAD DUP1 ISZERO PUSH2 0x4E64 JUMPI PUSH2 0x4E5E SWAP1 PUSH2 0x4E58 PUSH2 0x4E37 PUSH1 0x64 PUSH2 0x4E2F PUSH1 0xD SLOAD DUP6 PUSH2 0x7069 JUMP JUMPDEST DIV DUP1 SWAP4 PUSH2 0x7470 JUMP JUMPDEST SWAP2 CALLER PUSH1 0x0 MSTORE PUSH1 0x1A PUSH1 0x20 MSTORE PUSH1 0x0 PUSH1 0x40 DUP2 KECCAK256 SSTORE PUSH1 0x1 DUP1 PUSH1 0xA0 SHL SUB PUSH1 0x0 SLOAD AND PUSH2 0x88A7 JUMP JUMPDEST CALLER PUSH2 0x88A7 JUMP JUMPDEST PUSH1 0x1 DUP1 SSTORE STOP JUMPDEST PUSH1 0x40 MLOAD PUSH3 0x461BCD PUSH1 0xE5 SHL DUP2 MSTORE PUSH1 0x20 PUSH1 0x4 DUP3 ADD MSTORE PUSH1 0x16 PUSH1 0x24 DUP3 ADD MSTORE PUSH22 0x4E6F2062616C616E636520746F207769746864726177 PUSH1 0x50 SHL PUSH1 0x44 DUP3 ADD MSTORE PUSH1 0x64 SWAP1 REVERT JUMPDEST PUSH1 0x40 MLOAD PUSH3 0x461BCD PUSH1 0xE5 SHL DUP2 MSTORE PUSH1 0x20 PUSH1 0x4 DUP3 ADD MSTORE PUSH1 0x1B PUSH1 0x24 DUP3 ADD MSTORE PUSH27 0x26BAB9BA1031329030903932B3B4B9BA32B932B21039B2B63632B9 PUSH1 0x29 SHL PUSH1 0x44 DUP3 ADD MSTORE PUSH1 0x64 SWAP1 REVERT JUMPDEST CALLVALUE PUSH2 0x595 JUMPI PUSH1 0x20 DUP1 PUSH1 0x3 NOT CALLDATASIZE ADD SLT PUSH2 0x595 JUMPI PUSH1 0x1 PUSH1 0x1 PUSH1 0xA0 SHL SUB SWAP1 DUP2 PUSH2 0x4F09 PUSH2 0x6063 JUMP JUMPDEST AND PUSH1 0x0 MSTORE PUSH1 0x1C DUP2 MSTORE PUSH1 0x40 PUSH1 0x0 KECCAK256 DUP1 SLOAD SWAP1 PUSH2 0x4F22 DUP3 PUSH2 0x66CA JUMP JUMPDEST SWAP3 PUSH2 0x4F30 PUSH1 0x40 MLOAD SWAP5 DUP6 PUSH2 0x616A JUMP JUMPDEST DUP3 DUP5 MSTORE PUSH1 0x0 SWAP2 DUP3 MSTORE DUP1 DUP3 KECCAK256 DUP2 DUP6 ADD JUMPDEST DUP5 DUP5 LT PUSH2 0x4F54 JUMPI PUSH1 0x40 MLOAD DUP1 PUSH2 0x311 DUP9 DUP3 PUSH2 0x645C JUMP JUMPDEST PUSH1 0x16 DUP4 PUSH1 0x1 SWAP3 PUSH1 0x40 MLOAD PUSH2 0x4F66 DUP2 PUSH2 0x60E2 JUMP JUMPDEST DUP6 SLOAD DUP2 MSTORE DUP5 DUP7 ADD SLOAD DUP4 DUP3 ADD MSTORE PUSH1 0x2 DUP7 ADD SLOAD PUSH1 0x40 DUP3 ADD MSTORE PUSH1 0x3 DUP7 ADD SLOAD PUSH1 0x60 DUP3 ADD MSTORE PUSH1 0x4 DUP7 ADD SLOAD PUSH1 0x80 DUP3 ADD MSTORE PUSH1 0xFF DUP12 PUSH1 0x5 DUP9 ADD SLOAD AND PUSH1 0xA0 SWAP1 DUP2 DUP5 ADD MSTORE PUSH1 0x6 DUP9 ADD SLOAD SWAP1 DUP14 DUP3 AND PUSH1 0xC0 DUP6 ADD MSTORE SHR AND ISZERO ISZERO PUSH1 0xE0 DUP3 ADD MSTORE PUSH2 0x4FC3 PUSH1 0x7 DUP8 ADD PUSH2 0x65FE JUMP JUMPDEST PUSH2 0x100 DUP3 ADD MSTORE PUSH2 0x4FD5 PUSH1 0xF DUP8 ADD PUSH2 0x6746 JUMP JUMPDEST PUSH2 0x120 DUP3 ADD MSTORE DUP2 MSTORE ADD SWAP3 ADD SWAP4 ADD SWAP3 SWAP1 PUSH2 0x4F3F JUMP JUMPDEST CALLVALUE PUSH2 0x595 JUMPI PUSH1 0x20 CALLDATASIZE PUSH1 0x3 NOT ADD SLT PUSH2 0x595 JUMPI PUSH1 0x1 PUSH1 0x1 PUSH1 0xA0 SHL SUB PUSH2 0x500A PUSH2 0x6063 JUMP JUMPDEST AND PUSH1 0x0 MSTORE PUSH1 0x10 PUSH1 0x20 MSTORE PUSH2 0x507D PUSH1 0x40 PUSH1 0x0 KECCAK256 PUSH1 0x40 MLOAD SWAP1 PUSH2 0x502D DUP3 PUSH2 0x5E0 DUP2 DUP5 PUSH2 0x6296 JUMP JUMPDEST PUSH1 0x40 MLOAD PUSH2 0x5041 DUP2 PUSH2 0x381 DUP2 PUSH1 0x1 DUP7 ADD PUSH2 0x6296 JUMP JUMPDEST PUSH2 0x5099 PUSH1 0x40 MLOAD PUSH2 0x5058 DUP2 PUSH2 0x381 DUP2 PUSH1 0x2 DUP9 ADD PUSH2 0x6296 JUMP JUMPDEST PUSH2 0x508B PUSH1 0xFF PUSH1 0x4 PUSH1 0x3 DUP8 ADD SLOAD SWAP7 ADD SLOAD AND SWAP4 PUSH1 0x40 MLOAD SWAP8 DUP9 SWAP8 PUSH1 0xA0 DUP10 MSTORE PUSH1 0xA0 DUP10 ADD SWAP1 PUSH2 0x5D74 JUMP JUMPDEST SWAP1 DUP8 DUP3 SUB PUSH1 0x20 DUP10 ADD MSTORE PUSH2 0x5D74 JUMP JUMPDEST SWAP1 DUP6 DUP3 SUB PUSH1 0x40 DUP8 ADD MSTORE PUSH2 0x5D74 JUMP JUMPDEST SWAP2 PUSH1 0x60 DUP5 ADD MSTORE ISZERO ISZERO PUSH1 0x80 DUP4 ADD MSTORE SUB SWAP1 RETURN JUMPDEST CALLVALUE PUSH2 0x595 JUMPI PUSH2 0x1262 PUSH2 0x50BB CALLDATASIZE PUSH2 0x6227 JUMP JUMPDEST SWAP2 PUSH2 0x50CE PUSH2 0x50C9 DUP5 CALLER PUSH2 0x6A5F JUMP JUMPDEST PUSH2 0x6962 JUMP JUMPDEST PUSH2 0x6B27 JUMP JUMPDEST PUSH1 0x3 NOT PUSH1 0xA0 CALLDATASIZE DUP3 ADD SLT PUSH2 0x595 JUMPI PUSH1 0x1 PUSH1 0x1 PUSH1 0x40 SHL SUB PUSH1 0x24 CALLDATALOAD GT PUSH2 0x595 JUMPI PUSH2 0x100 SWAP1 PUSH1 0x24 CALLDATALOAD CALLDATASIZE SUB ADD SLT PUSH2 0x595 JUMPI PUSH1 0x44 CALLDATALOAD PUSH1 0x1 PUSH1 0x1 PUSH1 0x40 SHL SUB DUP2 GT PUSH2 0x595 JUMPI PUSH2 0x511E SWAP1 CALLDATASIZE SWAP1 PUSH1 0x4 ADD PUSH2 0x61FA JUMP JUMPDEST SWAP1 PUSH1 0x64 CALLDATALOAD PUSH1 0x1 PUSH1 0x1 PUSH1 0x40 SHL SUB DUP2 GT PUSH2 0x595 JUMPI PUSH2 0x513E SWAP1 CALLDATASIZE SWAP1 PUSH1 0x4 ADD PUSH2 0x61FA JUMP JUMPDEST PUSH2 0x5146 PUSH2 0x74CA JUMP JUMPDEST PUSH1 0x4 CALLDATALOAD PUSH1 0x0 MSTORE PUSH1 0x17 PUSH1 0x20 MSTORE PUSH1 0xFF PUSH1 0x40 PUSH1 0x0 KECCAK256 SLOAD AND ISZERO PUSH2 0x5555 JUMPI PUSH1 0x4 CALLDATALOAD PUSH1 0x0 MSTORE PUSH1 0x15 PUSH1 0x20 MSTORE PUSH1 0x40 PUSH1 0x0 KECCAK256 SWAP4 PUSH1 0xF DUP6 ADD SLOAD SWAP5 PUSH1 0xFF DUP7 PUSH1 0x10 SHR AND PUSH2 0x5515 JUMPI PUSH1 0x5 DUP2 ADD SLOAD SWAP1 PUSH1 0x84 CALLDATALOAD DUP3 LT PUSH2 0x54DB JUMPI PUSH1 0x4 DUP2 ADD SLOAD SWAP7 PUSH2 0x51A2 PUSH1 0x84 CALLDATALOAD DUP10 PUSH2 0x7069 JUMP JUMPDEST CALLVALUE LT PUSH2 0x549F JUMPI PUSH2 0x51B8 PUSH2 0x51DC SWAP4 PUSH1 0x84 CALLDATALOAD SWAP1 PUSH2 0x7470 JUMP JUMPDEST DUP1 PUSH1 0x5 DUP5 ADD SSTORE ISZERO PUSH2 0x548D JUMPI JUMPDEST POP PUSH1 0x1 ADD SLOAD PUSH1 0x1 PUSH1 0x1 PUSH1 0xA0 SHL SUB AND SWAP6 PUSH1 0x84 CALLDATALOAD SWAP1 PUSH2 0x7069 JUMP JUMPDEST SWAP3 PUSH1 0x40 MLOAD SWAP2 PUSH2 0x51EA DUP4 PUSH2 0x60AB JUMP JUMPDEST PUSH1 0x4 PUSH1 0x24 CALLDATALOAD ADD CALLDATALOAD PUSH1 0x1 PUSH1 0x1 PUSH1 0x40 SHL SUB DUP2 GT PUSH2 0x595 JUMPI PUSH2 0x5211 SWAP1 PUSH1 0x4 CALLDATASIZE SWAP2 PUSH1 0x24 CALLDATALOAD ADD ADD PUSH2 0x61DF JUMP JUMPDEST DUP4 MSTORE PUSH1 0x1 PUSH1 0x1 PUSH1 0x40 SHL SUB PUSH1 0x24 DUP1 CALLDATALOAD ADD CALLDATALOAD GT PUSH2 0x595 JUMPI PUSH2 0x523C CALLDATASIZE PUSH1 0x4 PUSH1 0x24 DUP1 CALLDATALOAD ADD CALLDATALOAD PUSH1 0x24 CALLDATALOAD ADD ADD PUSH2 0x61DF JUMP JUMPDEST PUSH1 0x20 DUP5 ADD MSTORE PUSH1 0x1 PUSH1 0x1 PUSH1 0x40 SHL SUB PUSH1 0x24 CALLDATALOAD PUSH1 0x44 ADD CALLDATALOAD GT PUSH2 0x595 JUMPI PUSH2 0x526A CALLDATASIZE PUSH1 0x24 CALLDATALOAD PUSH1 0x44 DUP2 ADD CALLDATALOAD ADD PUSH1 0x4 ADD PUSH2 0x61DF JUMP JUMPDEST PUSH1 0x40 DUP5 ADD MSTORE PUSH1 0x1 PUSH1 0x1 PUSH1 0x40 SHL SUB PUSH1 0x24 CALLDATALOAD PUSH1 0x64 ADD CALLDATALOAD GT PUSH2 0x595 JUMPI PUSH2 0x5298 CALLDATASIZE PUSH1 0x24 CALLDATALOAD PUSH1 0x64 DUP2 ADD CALLDATALOAD ADD PUSH1 0x4 ADD PUSH2 0x61DF JUMP JUMPDEST PUSH1 0x60 DUP5 ADD MSTORE PUSH1 0x1 PUSH1 0x1 PUSH1 0x40 SHL SUB PUSH1 0x24 CALLDATALOAD PUSH1 0x84 ADD CALLDATALOAD GT PUSH2 0x595 JUMPI PUSH2 0x52C6 CALLDATASIZE PUSH1 0x24 CALLDATALOAD PUSH1 0x84 DUP2 ADD CALLDATALOAD ADD PUSH1 0x4 ADD PUSH2 0x61DF JUMP JUMPDEST PUSH1 0x80 DUP5 ADD MSTORE PUSH1 0x1 PUSH1 0x1 PUSH1 0x40 SHL SUB PUSH1 0x24 CALLDATALOAD PUSH1 0xA4 ADD CALLDATALOAD GT PUSH2 0x595 JUMPI PUSH2 0x52F4 CALLDATASIZE PUSH1 0x24 CALLDATALOAD PUSH1 0xA4 DUP2 ADD CALLDATALOAD ADD PUSH1 0x4 ADD PUSH2 0x61DF JUMP JUMPDEST PUSH1 0xA0 DUP5 ADD MSTORE PUSH1 0x24 CALLDATALOAD PUSH1 0xC4 ADD CALLDATALOAD PUSH1 0x1 PUSH1 0x1 PUSH1 0x40 SHL SUB DUP2 GT PUSH2 0x595 JUMPI PUSH2 0x5320 SWAP1 PUSH1 0x4 CALLDATASIZE SWAP2 PUSH1 0x24 CALLDATALOAD ADD ADD PUSH2 0x61DF JUMP JUMPDEST PUSH1 0xC0 DUP5 ADD MSTORE PUSH1 0x1 PUSH1 0x1 PUSH1 0x40 SHL SUB PUSH1 0x24 CALLDATALOAD PUSH1 0xE4 ADD CALLDATALOAD GT PUSH2 0x595 JUMPI PUSH2 0x5375 PUSH1 0x3 SWAP3 PUSH2 0x536D PUSH2 0x546C SWAP9 PUSH2 0x53F5 SWAP5 PUSH2 0x5361 CALLDATASIZE PUSH1 0x4 PUSH1 0xE4 PUSH1 0x24 CALLDATALOAD ADD CALLDATALOAD PUSH1 0x24 CALLDATALOAD ADD ADD PUSH2 0x61DF JUMP JUMPDEST PUSH1 0xE0 DUP10 ADD MSTORE CALLDATASIZE SWAP2 PUSH2 0x61A8 JUMP JUMPDEST SWAP6 CALLDATASIZE SWAP2 PUSH2 0x61A8 JUMP JUMPDEST PUSH1 0x4 CALLDATALOAD PUSH1 0x0 MSTORE PUSH1 0x15 PUSH1 0x20 MSTORE PUSH1 0x40 PUSH1 0x0 KECCAK256 SWAP1 PUSH1 0x40 MLOAD SWAP6 PUSH2 0x5393 DUP8 PUSH2 0x60C7 JUMP JUMPDEST PUSH1 0x40 MLOAD PUSH2 0x53A7 DUP2 PUSH2 0x381 DUP2 PUSH1 0x2 DUP9 ADD PUSH2 0x6296 JUMP JUMPDEST DUP8 MSTORE PUSH2 0x53B5 PUSH1 0x8 DUP5 ADD PUSH2 0x66E1 JUMP JUMPDEST PUSH1 0x20 DUP9 ADD MSTORE PUSH1 0x40 DUP8 ADD MSTORE PUSH1 0x60 DUP7 ADD MSTORE PUSH1 0x84 CALLDATALOAD PUSH1 0x80 DUP7 ADD MSTORE PUSH1 0x40 MLOAD PUSH2 0x53E0 DUP2 PUSH2 0x381 DUP2 PUSH1 0x9 DUP7 ADD PUSH2 0x6296 JUMP JUMPDEST PUSH1 0xA0 DUP7 ADD MSTORE PUSH2 0x381 PUSH1 0x40 MLOAD DUP1 SWAP5 DUP2 SWAP4 ADD PUSH2 0x6296 JUMP JUMPDEST PUSH1 0xC0 DUP4 ADD MSTORE PUSH1 0x40 MLOAD SWAP3 PUSH2 0x5407 DUP5 PUSH2 0x60E2 JUMP JUMPDEST PUSH1 0x4 CALLDATALOAD DUP5 MSTORE CALLVALUE PUSH1 0x20 DUP6 ADD MSTORE PUSH1 0x40 DUP5 ADD MSTORE TIMESTAMP PUSH1 0x60 DUP5 ADD MSTORE TIMESTAMP PUSH1 0x80 DUP5 ADD MSTORE CALLER PUSH1 0xA0 DUP5 ADD MSTORE DUP5 PUSH1 0xC0 DUP5 ADD MSTORE PUSH1 0x0 PUSH1 0xE0 DUP5 ADD MSTORE PUSH2 0x100 DUP4 ADD MSTORE PUSH2 0x120 DUP3 ADD MSTORE CALLER PUSH1 0x0 MSTORE PUSH1 0x1B PUSH1 0x20 MSTORE PUSH2 0x5459 DUP2 PUSH1 0x40 PUSH1 0x0 KECCAK256 PUSH2 0x7520 JUMP JUMPDEST DUP3 PUSH1 0x0 MSTORE PUSH1 0x1C PUSH1 0x20 MSTORE PUSH1 0x40 PUSH1 0x0 KECCAK256 PUSH2 0x7520 JUMP JUMPDEST PUSH1 0x0 MSTORE PUSH1 0x1A PUSH1 0x20 MSTORE PUSH1 0x40 PUSH1 0x0 KECCAK256 DUP1 SLOAD SWAP1 CALLVALUE DUP3 ADD DUP1 SWAP3 GT PUSH2 0x12EF JUMPI SSTORE PUSH1 0x1 DUP1 SSTORE STOP JUMPDEST PUSH1 0xFF NOT AND PUSH1 0x1 OR PUSH1 0xF DUP3 ADD SSTORE DUP8 PUSH2 0x51C4 JUMP JUMPDEST PUSH1 0x40 MLOAD PUSH3 0x461BCD PUSH1 0xE5 SHL DUP2 MSTORE PUSH1 0x20 PUSH1 0x4 DUP3 ADD MSTORE PUSH1 0x14 PUSH1 0x24 DUP3 ADD MSTORE PUSH20 0x125B9CDD59999A58DA595B9D081C185E5B595B9D PUSH1 0x62 SHL PUSH1 0x44 DUP3 ADD MSTORE PUSH1 0x64 SWAP1 REVERT JUMPDEST PUSH1 0x40 MLOAD PUSH3 0x461BCD PUSH1 0xE5 SHL DUP2 MSTORE PUSH1 0x20 PUSH1 0x4 DUP3 ADD MSTORE PUSH1 0x12 PUSH1 0x24 DUP3 ADD MSTORE PUSH18 0x496E73756666696369656E742073746F636B PUSH1 0x70 SHL PUSH1 0x44 DUP3 ADD MSTORE PUSH1 0x64 SWAP1 REVERT JUMPDEST PUSH1 0x40 MLOAD PUSH3 0x461BCD PUSH1 0xE5 SHL DUP2 MSTORE PUSH1 0x20 PUSH1 0x4 DUP3 ADD MSTORE PUSH1 0x18 PUSH1 0x24 DUP3 ADD MSTORE PUSH24 0x141C9BD91D58DD081A185CC81899595B8819195B195D1959 PUSH1 0x42 SHL PUSH1 0x44 DUP3 ADD MSTORE PUSH1 0x64 SWAP1 REVERT JUMPDEST PUSH1 0x40 MLOAD PUSH3 0x461BCD PUSH1 0xE5 SHL DUP2 MSTORE PUSH1 0x20 PUSH1 0x4 DUP3 ADD MSTORE PUSH1 0x11 PUSH1 0x24 DUP3 ADD MSTORE PUSH17 0x141C9BD91D58DD081B9BDD08199BDD5B99 PUSH1 0x7A SHL PUSH1 0x44 DUP3 ADD MSTORE PUSH1 0x64 SWAP1 REVERT JUMPDEST CALLVALUE PUSH2 0x595 JUMPI PUSH1 0x60 CALLDATASIZE PUSH1 0x3 NOT ADD SLT PUSH2 0x595 JUMPI PUSH1 0x24 DUP1 CALLDATALOAD PUSH1 0x4 CALLDATALOAD PUSH1 0x44 CALLDATALOAD PUSH1 0x1 PUSH1 0x1 PUSH1 0x40 SHL SUB DUP2 GT PUSH2 0x595 JUMPI PUSH2 0x55C5 SWAP1 CALLDATASIZE SWAP1 PUSH1 0x4 ADD PUSH2 0x61DF JUMP JUMPDEST SWAP1 DUP1 PUSH1 0x0 MSTORE PUSH1 0x20 SWAP2 PUSH1 0x15 DUP4 MSTORE PUSH1 0x1 DUP1 PUSH1 0xA0 SHL SUB PUSH1 0x1 PUSH1 0x40 PUSH1 0x0 KECCAK256 ADD SLOAD AND CALLER EQ PUSH2 0x5733 JUMPI DUP4 ISZERO ISZERO DUP1 PUSH2 0x5728 JUMPI JUMPDEST ISZERO PUSH2 0x56E4 JUMPI DUP1 MLOAD ISZERO PUSH2 0x56A6 JUMPI SWAP1 PUSH1 0x15 SWAP3 SWAP2 PUSH1 0x1 PUSH1 0xA SLOAD ADD SWAP1 DUP2 PUSH1 0xA SSTORE PUSH2 0x5615 PUSH2 0x747D JUMP JUMPDEST SWAP6 DUP3 DUP8 MSTORE CALLER DUP6 DUP9 ADD MSTORE PUSH1 0x40 DUP8 ADD MSTORE PUSH1 0x60 DUP7 ADD MSTORE TIMESTAMP PUSH1 0xA0 DUP7 ADD MSTORE PUSH1 0x0 MSTORE PUSH1 0x1D DUP3 MSTORE PUSH1 0x40 PUSH1 0x0 KECCAK256 PUSH1 0x1 PUSH1 0xFF NOT DUP3 SLOAD AND OR SWAP1 SSTORE PUSH1 0x0 MSTORE MSTORE PUSH1 0x10 PUSH1 0x40 PUSH1 0x0 KECCAK256 ADD DUP1 SLOAD PUSH1 0x1 PUSH1 0x40 SHL DUP2 LT ISZERO PUSH2 0x5691 JUMPI PUSH2 0x566E SWAP2 PUSH1 0x1 DUP3 ADD DUP2 SSTORE PUSH2 0x74AE JUMP JUMPDEST PUSH2 0x567C JUMPI PUSH2 0x1262 SWAP3 POP PUSH2 0x70C6 JUMP JUMPDEST DUP3 PUSH4 0x4E487B71 PUSH1 0xE0 SHL PUSH1 0x0 MSTORE PUSH1 0x0 PUSH1 0x4 MSTORE PUSH1 0x0 REVERT JUMPDEST DUP4 PUSH4 0x4E487B71 PUSH1 0xE0 SHL PUSH1 0x0 MSTORE PUSH1 0x41 PUSH1 0x4 MSTORE PUSH1 0x0 REVERT JUMPDEST PUSH1 0x40 MLOAD PUSH3 0x461BCD PUSH1 0xE5 SHL DUP2 MSTORE PUSH1 0x4 DUP2 ADD DUP5 SWAP1 MSTORE PUSH1 0x17 DUP2 DUP8 ADD MSTORE PUSH23 0x436F6D6D656E742063616E6E6F7420626520656D707479 PUSH1 0x48 SHL PUSH1 0x44 DUP3 ADD MSTORE PUSH1 0x64 SWAP1 REVERT JUMPDEST PUSH1 0x40 MLOAD PUSH3 0x461BCD PUSH1 0xE5 SHL DUP2 MSTORE PUSH1 0x4 DUP2 ADD DUP5 SWAP1 MSTORE PUSH1 0x1E DUP2 DUP8 ADD MSTORE PUSH32 0x526174696E67206D757374206265206265747765656E203120616E6420350000 PUSH1 0x44 DUP3 ADD MSTORE PUSH1 0x64 SWAP1 REVERT JUMPDEST POP PUSH1 0x5 DUP5 GT ISZERO PUSH2 0x55F1 JUMP JUMPDEST PUSH1 0x40 MLOAD PUSH3 0x461BCD PUSH1 0xE5 SHL DUP2 MSTORE PUSH1 0x4 DUP2 ADD DUP5 SWAP1 MSTORE PUSH1 0x26 DUP2 DUP8 ADD MSTORE PUSH32 0x53656C6C65722063616E6E6F7420726576696577207468656972206F776E2070 PUSH1 0x44 DUP3 ADD MSTORE PUSH6 0x1C9BD91D58DD PUSH1 0xD2 SHL PUSH1 0x64 DUP3 ADD MSTORE PUSH1 0x84 SWAP1 REVERT JUMPDEST CALLVALUE PUSH2 0x595 JUMPI PUSH1 0x0 CALLDATASIZE PUSH1 0x3 NOT ADD SLT PUSH2 0x595 JUMPI PUSH2 0x579F PUSH2 0x6879 JUMP JUMPDEST CALLER PUSH1 0x0 SWAP1 DUP2 MSTORE PUSH1 0x1E PUSH1 0x20 MSTORE PUSH1 0x40 SWAP1 KECCAK256 DUP1 SLOAD PUSH1 0x1 PUSH1 0x1 PUSH1 0xA0 SHL SUB NOT AND SWAP1 SSTORE STOP JUMPDEST CALLVALUE PUSH2 0x595 JUMPI PUSH1 0x40 CALLDATASIZE PUSH1 0x3 NOT ADD SLT PUSH2 0x595 JUMPI PUSH2 0x1262 PUSH2 0x57DA PUSH2 0x6079 JUMP JUMPDEST PUSH1 0x4 CALLDATALOAD PUSH2 0x851B JUMP JUMPDEST CALLVALUE PUSH2 0x595 JUMPI PUSH1 0x20 CALLDATASIZE PUSH1 0x3 NOT ADD SLT PUSH2 0x595 JUMPI PUSH1 0x1 PUSH1 0x1 PUSH1 0xA0 SHL SUB PUSH2 0x5803 PUSH2 0x6063 JUMP JUMPDEST AND PUSH1 0x0 MSTORE PUSH1 0x14 PUSH1 0x20 MSTORE PUSH1 0x20 PUSH1 0xFF PUSH1 0x40 PUSH1 0x0 KECCAK256 SLOAD AND PUSH1 0x40 MLOAD SWAP1 ISZERO ISZERO DUP2 MSTORE RETURN JUMPDEST CALLVALUE PUSH2 0x595 JUMPI PUSH1 0x40 CALLDATASIZE PUSH1 0x3 NOT ADD SLT PUSH2 0x595 JUMPI PUSH2 0x583A PUSH2 0x6063 JUMP JUMPDEST PUSH1 0x24 CALLDATALOAD SWAP1 PUSH1 0x1 PUSH1 0x1 PUSH1 0xA0 SHL SUB DUP1 DUP1 PUSH2 0x5851 DUP6 PUSH2 0x6918 JUMP JUMPDEST AND SWAP3 AND SWAP2 DUP1 DUP4 EQ PUSH2 0x594C JUMPI DUP1 CALLER EQ SWAP1 DUP2 ISZERO PUSH2 0x5927 JUMPI JUMPDEST POP ISZERO PUSH2 0x58BC JUMPI PUSH1 0x0 DUP4 DUP2 MSTORE PUSH1 0x6 PUSH1 0x20 MSTORE PUSH1 0x40 SWAP1 KECCAK256 DUP1 SLOAD PUSH1 0x1 PUSH1 0x1 PUSH1 0xA0 SHL SUB NOT AND DUP4 OR SWAP1 SSTORE PUSH2 0x5894 DUP4 PUSH2 0x6918 JUMP JUMPDEST AND PUSH32 0x8C5BE1E5EBEC7D5BD14F71427D1E84F3DD0314C0F7B2291E5B200AC8C7C3B925 PUSH1 0x0 DUP1 LOG4 STOP JUMPDEST PUSH1 0x40 MLOAD PUSH3 0x461BCD PUSH1 0xE5 SHL DUP2 MSTORE PUSH1 0x20 PUSH1 0x4 DUP3 ADD MSTORE PUSH1 0x3D PUSH1 0x24 DUP3 ADD MSTORE PUSH32 0x4552433732313A20617070726F76652063616C6C6572206973206E6F7420746F PUSH1 0x44 DUP3 ADD MSTORE PUSH32 0x6B656E206F776E6572206F7220617070726F76656420666F7220616C6C000000 PUSH1 0x64 DUP3 ADD MSTORE PUSH1 0x84 SWAP1 REVERT JUMPDEST SWAP1 POP PUSH1 0x0 MSTORE PUSH1 0x7 PUSH1 0x20 MSTORE PUSH1 0x40 PUSH1 0x0 KECCAK256 CALLER PUSH1 0x0 MSTORE PUSH1 0x20 MSTORE PUSH1 0xFF PUSH1 0x40 PUSH1 0x0 KECCAK256 SLOAD AND DUP5 PUSH2 0x5867 JUMP JUMPDEST PUSH1 0x40 MLOAD PUSH3 0x461BCD PUSH1 0xE5 SHL DUP2 MSTORE PUSH1 0x20 PUSH1 0x4 DUP3 ADD MSTORE PUSH1 0x21 PUSH1 0x24 DUP3 ADD MSTORE PUSH32 0x4552433732313A20617070726F76616C20746F2063757272656E74206F776E65 PUSH1 0x44 DUP3 ADD MSTORE PUSH1 0x39 PUSH1 0xF9 SHL PUSH1 0x64 DUP3 ADD MSTORE PUSH1 0x84 SWAP1 REVERT JUMPDEST CALLVALUE PUSH2 0x595 JUMPI PUSH1 0x20 CALLDATASIZE PUSH1 0x3 NOT ADD SLT PUSH2 0x595 JUMPI PUSH1 0x20 PUSH2 0x4AC3 PUSH1 0x4 CALLDATALOAD PUSH2 0x693B JUMP JUMPDEST CALLVALUE PUSH2 0x595 JUMPI PUSH1 0x0 CALLDATASIZE PUSH1 0x3 NOT ADD SLT PUSH2 0x595 JUMPI PUSH1 0x40 MLOAD PUSH1 0x0 SWAP1 PUSH1 0x2 SLOAD PUSH2 0x59DC DUP2 PUSH2 0x625C JUMP JUMPDEST DUP1 DUP4 MSTORE PUSH1 0x1 SWAP2 DUP1 DUP4 AND SWAP1 DUP2 ISZERO PUSH2 0x36C3 JUMPI POP PUSH1 0x1 EQ PUSH2 0x5A04 JUMPI PUSH2 0x311 DUP4 PUSH2 0x3655 DUP2 DUP8 SUB DUP3 PUSH2 0x616A JUMP JUMPDEST PUSH1 0x2 PUSH1 0x0 SWAP1 DUP2 MSTORE PUSH1 0x20 SWAP5 POP SWAP2 PUSH32 0x405787FA12A823E0F2B7631CC41B3BA8828B3321CA811111FA75CD3AA3BB5ACE JUMPDEST DUP3 DUP5 LT PUSH2 0x5A4B JUMPI POP POP POP DUP2 ADD SWAP1 SWAP2 ADD SWAP1 PUSH2 0x3655 DUP2 PUSH2 0x3645 JUMP JUMPDEST DUP1 SLOAD DUP6 DUP6 ADD DUP8 ADD MSTORE SWAP3 DUP6 ADD SWAP3 DUP2 ADD PUSH2 0x5A32 JUMP JUMPDEST CALLVALUE PUSH2 0x595 JUMPI PUSH1 0x0 CALLDATASIZE PUSH1 0x3 NOT ADD SLT PUSH2 0x595 JUMPI PUSH1 0x8 DUP1 SLOAD PUSH1 0x0 PUSH1 0x1 JUMPDEST DUP3 DUP2 GT ISZERO PUSH2 0x5C98 JUMPI POP PUSH2 0x5A8A SWAP1 PUSH2 0x73A0 JUMP JUMPDEST SWAP1 PUSH1 0x0 SWAP3 PUSH1 0x1 JUMPDEST DUP3 DUP2 GT ISZERO PUSH2 0x5AA7 JUMPI PUSH1 0x40 MLOAD DUP1 PUSH2 0x311 DUP7 DUP3 PUSH2 0x6001 JUMP JUMPDEST DUP1 PUSH1 0x0 MSTORE PUSH1 0x20 PUSH1 0x15 DUP2 MSTORE PUSH1 0x40 PUSH1 0x0 KECCAK256 SWAP1 PUSH1 0xF DUP3 ADD SLOAD PUSH1 0xFF SWAP3 PUSH1 0x10 SWAP1 DUP5 DUP4 DUP4 SHR AND ISZERO DUP1 PUSH2 0x5AE2 JUMPI JUMPDEST POP POP POP POP POP POP PUSH2 0x5ADD SWAP1 PUSH2 0x7391 JUMP JUMPDEST PUSH2 0x5A91 JUMP JUMPDEST PUSH1 0x40 SWAP11 SWAP7 SWAP11 MLOAD SWAP6 PUSH2 0x5AF2 DUP8 PUSH2 0x608F JUMP JUMPDEST DUP3 SLOAD DUP8 MSTORE PUSH1 0x1 DUP4 ADD SLOAD PUSH1 0x1 PUSH1 0x1 PUSH1 0xA0 SHL SUB AND DUP7 DUP9 ADD MSTORE PUSH1 0x40 MLOAD PUSH2 0x5B1C DUP2 PUSH2 0x381 DUP2 PUSH1 0x2 DUP9 ADD PUSH2 0x6296 JUMP JUMPDEST PUSH1 0x40 DUP9 ADD MSTORE PUSH1 0x40 MLOAD PUSH2 0x5B35 DUP2 PUSH2 0x381 DUP2 PUSH1 0x3 DUP9 ADD PUSH2 0x6296 JUMP JUMPDEST PUSH1 0x60 DUP9 ADD MSTORE PUSH1 0x4 DUP4 ADD SLOAD PUSH1 0x80 DUP9 ADD MSTORE PUSH1 0x5 DUP4 ADD SLOAD PUSH1 0xA0 DUP9 ADD MSTORE PUSH1 0x6 SWAP5 PUSH2 0x5B5C DUP7 DUP6 ADD PUSH2 0x66E1 JUMP JUMPDEST PUSH1 0xC0 DUP10 ADD MSTORE PUSH2 0x5B6D PUSH1 0x7 DUP6 ADD PUSH2 0x66E1 JUMP JUMPDEST PUSH1 0xE0 DUP10 ADD MSTORE PUSH2 0x5B7D DUP11 DUP6 ADD PUSH2 0x66E1 JUMP JUMPDEST PUSH2 0x100 DUP10 ADD MSTORE PUSH1 0x40 MLOAD PUSH2 0x5B97 DUP2 PUSH2 0x381 DUP2 PUSH1 0x9 DUP10 ADD PUSH2 0x6296 JUMP JUMPDEST PUSH2 0x120 DUP10 ADD MSTORE PUSH1 0x40 MLOAD PUSH2 0x5BB1 DUP2 PUSH2 0x381 DUP2 PUSH1 0xA DUP10 ADD PUSH2 0x6296 JUMP JUMPDEST PUSH2 0x140 DUP10 ADD MSTORE PUSH1 0xB DUP5 ADD SLOAD PUSH2 0x160 DUP10 ADD MSTORE PUSH1 0x40 MLOAD PUSH2 0x5BD6 DUP2 PUSH2 0x381 DUP2 PUSH1 0xC DUP10 ADD PUSH2 0x6296 JUMP JUMPDEST PUSH2 0x180 DUP10 ADD MSTORE PUSH1 0x40 MLOAD PUSH2 0x5BF0 DUP2 PUSH2 0x381 DUP2 PUSH1 0xD DUP10 ADD PUSH2 0x6296 JUMP JUMPDEST PUSH2 0x1A0 DUP10 ADD MSTORE PUSH1 0xE DUP5 ADD SLOAD PUSH2 0x1C0 DUP10 ADD MSTORE DUP2 DUP2 AND ISZERO ISZERO PUSH2 0x1E0 DUP10 ADD MSTORE DUP10 SHR AND ISZERO ISZERO PUSH2 0x200 DUP8 ADD MSTORE ISZERO PUSH2 0x220 DUP7 ADD MSTORE ADD SWAP1 DUP2 SLOAD SWAP2 PUSH2 0x5C2C DUP4 PUSH2 0x66CA JUMP JUMPDEST SWAP4 PUSH2 0x5C3A PUSH1 0x40 MLOAD SWAP6 DUP7 PUSH2 0x616A JUMP JUMPDEST DUP4 DUP6 MSTORE PUSH1 0x0 SWAP2 DUP3 MSTORE DUP1 DUP3 KECCAK256 SWAP2 DUP2 DUP7 ADD JUMPDEST DUP6 DUP3 LT PUSH2 0x5C7C JUMPI POP POP POP POP POP POP SWAP2 DUP2 PUSH2 0x5ADD SWAP4 PUSH2 0x240 PUSH2 0x5C70 SWAP5 ADD MSTORE PUSH2 0x4EC DUP3 DUP9 PUSH2 0x73F0 JUMP JUMPDEST SWAP5 SWAP1 DUP7 DUP1 DUP1 DUP1 DUP1 PUSH2 0x5ACE JUMP JUMPDEST DUP5 DUP4 PUSH1 0x1 SWAP3 PUSH2 0x5C8A DUP8 PUSH2 0x7330 JUMP JUMPDEST DUP2 MSTORE ADD SWAP5 ADD SWAP2 ADD SWAP1 SWAP3 PUSH2 0x5C4A JUMP JUMPDEST DUP1 PUSH1 0x0 MSTORE PUSH1 0x15 PUSH1 0x20 MSTORE PUSH1 0xFF PUSH1 0xF PUSH1 0x40 PUSH1 0x0 KECCAK256 ADD SLOAD PUSH1 0x10 SHR AND ISZERO PUSH2 0x5CC4 JUMPI JUMPDEST PUSH2 0x5CBF SWAP1 PUSH2 0x7391 JUMP JUMPDEST PUSH2 0x5A78 JUMP JUMPDEST SWAP1 PUSH2 0x5CD1 PUSH2 0x5CBF SWAP2 PUSH2 0x7391 JUMP JUMPDEST SWAP2 SWAP1 POP PUSH2 0x5CB6 JUMP JUMPDEST CALLVALUE PUSH2 0x595 JUMPI PUSH1 0x20 CALLDATASIZE PUSH1 0x3 NOT ADD SLT PUSH2 0x595 JUMPI PUSH1 0x4 CALLDATALOAD PUSH4 0xFFFFFFFF PUSH1 0xE0 SHL DUP2 AND DUP1 SWAP2 SUB PUSH2 0x595 JUMPI PUSH1 0x20 SWAP1 PUSH4 0x80AC58CD PUSH1 0xE0 SHL DUP2 EQ SWAP1 DUP2 ISZERO PUSH2 0x5D36 JUMPI JUMPDEST DUP2 ISZERO PUSH2 0x5D25 JUMPI JUMPDEST POP PUSH1 0x40 MLOAD SWAP1 ISZERO ISZERO DUP2 MSTORE RETURN JUMPDEST PUSH4 0x1FFC9A7 PUSH1 0xE0 SHL EQ SWAP1 POP DUP3 PUSH2 0x5D1A JUMP JUMPDEST PUSH4 0x5B5E139F PUSH1 0xE0 SHL DUP2 EQ SWAP2 POP PUSH2 0x5D13 JUMP JUMPDEST CALLVALUE PUSH2 0x595 JUMPI PUSH1 0x20 CALLDATASIZE PUSH1 0x3 NOT ADD SLT PUSH2 0x595 JUMPI PUSH1 0x20 SWAP1 PUSH1 0x4 CALLDATALOAD PUSH1 0x0 MSTORE PUSH1 0x1D DUP3 MSTORE PUSH1 0xFF PUSH1 0x40 PUSH1 0x0 KECCAK256 SLOAD AND ISZERO ISZERO DUP2 MSTORE RETURN JUMPDEST SWAP2 SWAP1 DUP3 MLOAD SWAP3 DUP4 DUP3 MSTORE PUSH1 0x0 JUMPDEST DUP5 DUP2 LT PUSH2 0x5DA0 JUMPI POP POP DUP3 PUSH1 0x0 PUSH1 0x20 DUP1 SWAP5 SWAP6 DUP5 ADD ADD MSTORE PUSH1 0x1F DUP1 NOT SWAP2 ADD AND ADD ADD SWAP1 JUMP JUMPDEST PUSH1 0x20 DUP2 DUP4 ADD DUP2 ADD MLOAD DUP5 DUP4 ADD DUP3 ADD MSTORE ADD PUSH2 0x5D7F JUMP JUMPDEST SWAP1 DUP1 DUP3 MLOAD SWAP1 DUP2 DUP2 MSTORE PUSH1 0x20 DUP1 SWAP2 ADD SWAP3 DUP2 DUP1 DUP5 PUSH1 0x5 SHL DUP4 ADD ADD SWAP6 ADD SWAP4 PUSH1 0x0 SWAP2 JUMPDEST DUP5 DUP4 LT PUSH2 0x5DE2 JUMPI POP POP POP POP POP POP SWAP1 JUMP JUMPDEST SWAP1 SWAP2 SWAP3 SWAP4 SWAP5 SWAP6 DUP5 DUP1 PUSH2 0x5E00 PUSH1 0x1 SWAP4 PUSH1 0x1F NOT DUP7 DUP3 SUB ADD DUP8 MSTORE DUP11 MLOAD PUSH2 0x5D74 JUMP JUMPDEST SWAP9 ADD SWAP4 ADD SWAP4 ADD SWAP2 SWAP5 SWAP4 SWAP3 SWAP1 PUSH2 0x5DD2 JUMP JUMPDEST SWAP1 DUP1 DUP3 MLOAD SWAP1 DUP2 DUP2 MSTORE PUSH1 0x20 DUP1 SWAP2 ADD SWAP3 DUP2 DUP1 DUP5 PUSH1 0x5 SHL DUP4 ADD ADD SWAP6 ADD SWAP4 PUSH1 0x0 SWAP2 JUMPDEST DUP5 DUP4 LT PUSH2 0x5E3E JUMPI POP POP POP POP POP POP SWAP1 JUMP JUMPDEST SWAP1 SWAP2 SWAP3 SWAP4 SWAP5 SWAP6 DUP5 DUP1 PUSH1 0x1 SWAP3 PUSH1 0x1F NOT DUP6 DUP3 SUB ADD DUP7 MSTORE DUP10 MLOAD SWAP1 DUP2 MLOAD DUP2 MSTORE DUP5 DUP1 PUSH1 0xA0 SHL SUB DUP4 DUP4 ADD MLOAD AND DUP4 DUP3 ADD MSTORE PUSH1 0x40 DUP1 DUP4 ADD MLOAD SWAP1 DUP3 ADD MSTORE PUSH2 0x5E8B PUSH1 0x60 DUP1 DUP5 ADD MLOAD SWAP1 PUSH1 0xC0 DUP1 SWAP2 DUP6 ADD MSTORE DUP4 ADD SWAP1 PUSH2 0x5D74 JUMP JUMPDEST SWAP2 PUSH1 0x80 DUP1 DUP3 ADD MLOAD ISZERO ISZERO SWAP1 DUP4 ADD MSTORE PUSH1 0xA0 DUP1 SWAP2 ADD MLOAD SWAP2 ADD MSTORE SWAP9 ADD SWAP4 ADD SWAP4 ADD SWAP2 SWAP5 SWAP4 SWAP3 SWAP1 PUSH2 0x5E2E JUMP JUMPDEST SWAP1 PUSH2 0x5FFE SWAP2 DUP1 MLOAD DUP3 MSTORE PUSH1 0x1 DUP1 PUSH1 0xA0 SHL SUB PUSH1 0x20 DUP3 ADD MLOAD AND PUSH1 0x20 DUP4 ADD MSTORE PUSH2 0x5FB8 PUSH2 0x5FA4 PUSH2 0x5F85 PUSH2 0x5F71 PUSH2 0x5F5D PUSH2 0x5F49 PUSH2 0x5F37 PUSH2 0x5F11 PUSH2 0x5EFF PUSH1 0x40 DUP11 ADD MLOAD PUSH1 0x40 DUP13 PUSH2 0x260 SWAP2 DUP3 SWAP2 ADD MSTORE DUP13 ADD SWAP1 PUSH2 0x5D74 JUMP JUMPDEST PUSH1 0x60 DUP11 ADD MLOAD DUP12 DUP3 SUB PUSH1 0x60 DUP14 ADD MSTORE PUSH2 0x5D74 JUMP JUMPDEST PUSH1 0x80 DUP10 ADD MLOAD PUSH1 0x80 DUP12 ADD MSTORE PUSH1 0xA0 DUP10 ADD MLOAD PUSH1 0xA0 DUP12 ADD MSTORE PUSH1 0xC0 DUP10 ADD MLOAD DUP11 DUP3 SUB PUSH1 0xC0 DUP13 ADD MSTORE PUSH2 0x5DB4 JUMP JUMPDEST PUSH1 0xE0 DUP9 ADD MLOAD DUP10 DUP3 SUB PUSH1 0xE0 DUP12 ADD MSTORE PUSH2 0x5DB4 JUMP JUMPDEST PUSH2 0x100 DUP1 DUP9 ADD MLOAD SWAP1 DUP10 DUP4 SUB SWAP1 DUP11 ADD MSTORE PUSH2 0x5DB4 JUMP JUMPDEST PUSH2 0x120 DUP1 DUP8 ADD MLOAD SWAP1 DUP9 DUP4 SUB SWAP1 DUP10 ADD MSTORE PUSH2 0x5D74 JUMP JUMPDEST PUSH2 0x140 DUP1 DUP7 ADD MLOAD SWAP1 DUP8 DUP4 SUB SWAP1 DUP9 ADD MSTORE PUSH2 0x5D74 JUMP JUMPDEST PUSH2 0x160 DUP1 DUP6 ADD MLOAD SWAP1 DUP7 ADD MSTORE PUSH2 0x180 DUP1 DUP6 ADD MLOAD SWAP1 DUP7 DUP4 SUB SWAP1 DUP8 ADD MSTORE PUSH2 0x5D74 JUMP JUMPDEST PUSH2 0x1A0 DUP1 DUP5 ADD MLOAD SWAP1 DUP6 DUP4 SUB SWAP1 DUP7 ADD MSTORE PUSH2 0x5D74 JUMP JUMPDEST SWAP2 PUSH2 0x1C0 DUP1 DUP4 ADD MLOAD SWAP1 DUP3 ADD MSTORE PUSH2 0x1E0 DUP1 DUP4 ADD MLOAD ISZERO ISZERO SWAP1 DUP3 ADD MSTORE PUSH2 0x200 DUP1 DUP4 ADD MLOAD ISZERO ISZERO SWAP1 DUP3 ADD MSTORE PUSH2 0x220 DUP1 DUP4 ADD MLOAD ISZERO ISZERO SWAP1 DUP3 ADD MSTORE PUSH2 0x240 DUP1 SWAP3 ADD MLOAD SWAP2 DUP2 DUP5 SUB SWAP2 ADD MSTORE PUSH2 0x5E10 JUMP JUMPDEST SWAP1 JUMP JUMPDEST PUSH1 0x20 DUP1 DUP3 ADD SWAP1 DUP1 DUP4 MSTORE DUP4 MLOAD DUP1 SWAP3 MSTORE PUSH1 0x40 DUP4 ADD SWAP3 DUP2 PUSH1 0x40 DUP5 PUSH1 0x5 SHL DUP4 ADD ADD SWAP6 ADD SWAP4 PUSH1 0x0 SWAP2 JUMPDEST DUP5 DUP4 LT PUSH2 0x6035 JUMPI POP POP POP POP POP POP SWAP1 JUMP JUMPDEST SWAP1 SWAP2 SWAP3 SWAP4 SWAP5 SWAP6 DUP5 DUP1 PUSH2 0x6053 PUSH1 0x1 SWAP4 PUSH1 0x3F NOT DUP7 DUP3 SUB ADD DUP8 MSTORE DUP11 MLOAD PUSH2 0x5EB1 JUMP JUMPDEST SWAP9 ADD SWAP4 ADD SWAP4 ADD SWAP2 SWAP5 SWAP4 SWAP3 SWAP1 PUSH2 0x6025 JUMP JUMPDEST PUSH1 0x4 CALLDATALOAD SWAP1 PUSH1 0x1 PUSH1 0x1 PUSH1 0xA0 SHL SUB DUP3 AND DUP3 SUB PUSH2 0x595 JUMPI JUMP JUMPDEST PUSH1 0x24 CALLDATALOAD SWAP1 PUSH1 0x1 PUSH1 0x1 PUSH1 0xA0 SHL SUB DUP3 AND DUP3 SUB PUSH2 0x595 JUMPI JUMP JUMPDEST PUSH2 0x260 DUP2 ADD SWAP1 DUP2 LT PUSH1 0x1 PUSH1 0x1 PUSH1 0x40 SHL SUB DUP3 GT OR PUSH2 0x1305 JUMPI PUSH1 0x40 MSTORE JUMP JUMPDEST PUSH2 0x100 DUP2 ADD SWAP1 DUP2 LT PUSH1 0x1 PUSH1 0x1 PUSH1 0x40 SHL SUB DUP3 GT OR PUSH2 0x1305 JUMPI PUSH1 0x40 MSTORE JUMP JUMPDEST PUSH1 0xE0 DUP2 ADD SWAP1 DUP2 LT PUSH1 0x1 PUSH1 0x1 PUSH1 0x40 SHL SUB DUP3 GT OR PUSH2 0x1305 JUMPI PUSH1 0x40 MSTORE JUMP JUMPDEST PUSH2 0x140 DUP2 ADD SWAP1 DUP2 LT PUSH1 0x1 PUSH1 0x1 PUSH1 0x40 SHL SUB DUP3 GT OR PUSH2 0x1305 JUMPI PUSH1 0x40 MSTORE JUMP JUMPDEST PUSH1 0x80 DUP2 ADD SWAP1 DUP2 LT PUSH1 0x1 PUSH1 0x1 PUSH1 0x40 SHL SUB DUP3 GT OR PUSH2 0x1305 JUMPI PUSH1 0x40 MSTORE JUMP JUMPDEST PUSH1 0xA0 DUP2 ADD SWAP1 DUP2 LT PUSH1 0x1 PUSH1 0x1 PUSH1 0x40 SHL SUB DUP3 GT OR PUSH2 0x1305 JUMPI PUSH1 0x40 MSTORE JUMP JUMPDEST PUSH1 0xC0 DUP2 ADD SWAP1 DUP2 LT PUSH1 0x1 PUSH1 0x1 PUSH1 0x40 SHL SUB DUP3 GT OR PUSH2 0x1305 JUMPI PUSH1 0x40 MSTORE JUMP JUMPDEST PUSH1 0x20 DUP2 ADD SWAP1 DUP2 LT PUSH1 0x1 PUSH1 0x1 PUSH1 0x40 SHL SUB DUP3 GT OR PUSH2 0x1305 JUMPI PUSH1 0x40 MSTORE JUMP JUMPDEST PUSH1 0x1F SWAP1 SWAP2 ADD PUSH1 0x1F NOT AND DUP2 ADD SWAP1 PUSH1 0x1 PUSH1 0x1 PUSH1 0x40 SHL SUB DUP3 GT SWAP1 DUP3 LT OR PUSH2 0x1305 JUMPI PUSH1 0x40 MSTORE JUMP JUMPDEST PUSH1 0x1 PUSH1 0x1 PUSH1 0x40 SHL SUB DUP2 GT PUSH2 0x1305 JUMPI PUSH1 0x1F ADD PUSH1 0x1F NOT AND PUSH1 0x20 ADD SWAP1 JUMP JUMPDEST SWAP3 SWAP2 SWAP3 PUSH2 0x61B4 DUP3 PUSH2 0x618D JUMP JUMPDEST SWAP2 PUSH2 0x61C2 PUSH1 0x40 MLOAD SWAP4 DUP5 PUSH2 0x616A JUMP JUMPDEST DUP3 SWAP5 DUP2 DUP5 MSTORE DUP2 DUP4 ADD GT PUSH2 0x595 JUMPI DUP3 DUP2 PUSH1 0x20 SWAP4 DUP5 PUSH1 0x0 SWAP7 ADD CALLDATACOPY ADD ADD MSTORE JUMP JUMPDEST SWAP1 DUP1 PUSH1 0x1F DUP4 ADD SLT ISZERO PUSH2 0x595 JUMPI DUP2 PUSH1 0x20 PUSH2 0x5FFE SWAP4 CALLDATALOAD SWAP2 ADD PUSH2 0x61A8 JUMP JUMPDEST SWAP2 DUP2 PUSH1 0x1F DUP5 ADD SLT ISZERO PUSH2 0x595 JUMPI DUP3 CALLDATALOAD SWAP2 PUSH1 0x1 PUSH1 0x1 PUSH1 0x40 SHL SUB DUP4 GT PUSH2 0x595 JUMPI PUSH1 0x20 DUP4 DUP2 DUP7 ADD SWAP6 ADD ADD GT PUSH2 0x595 JUMPI JUMP JUMPDEST PUSH1 0x60 SWAP1 PUSH1 0x3 NOT ADD SLT PUSH2 0x595 JUMPI PUSH1 0x1 PUSH1 0x1 PUSH1 0xA0 SHL SUB SWAP1 PUSH1 0x4 CALLDATALOAD DUP3 DUP2 AND DUP2 SUB PUSH2 0x595 JUMPI SWAP2 PUSH1 0x24 CALLDATALOAD SWAP1 DUP2 AND DUP2 SUB PUSH2 0x595 JUMPI SWAP1 PUSH1 0x44 CALLDATALOAD SWAP1 JUMP JUMPDEST SWAP1 PUSH1 0x1 DUP3 DUP2 SHR SWAP3 AND DUP1 ISZERO PUSH2 0x628C JUMPI JUMPDEST PUSH1 0x20 DUP4 LT EQ PUSH2 0x6276 JUMPI JUMP JUMPDEST PUSH4 0x4E487B71 PUSH1 0xE0 SHL PUSH1 0x0 MSTORE PUSH1 0x22 PUSH1 0x4 MSTORE PUSH1 0x24 PUSH1 0x0 REVERT JUMPDEST SWAP2 PUSH1 0x7F AND SWAP2 PUSH2 0x626B JUMP JUMPDEST SWAP1 PUSH1 0x0 SWAP3 SWAP2 DUP1 SLOAD SWAP2 PUSH2 0x62A7 DUP4 PUSH2 0x625C JUMP JUMPDEST SWAP2 DUP3 DUP3 MSTORE PUSH1 0x1 SWAP4 DUP5 DUP2 AND SWAP1 DUP2 PUSH1 0x0 EQ PUSH2 0x6309 JUMPI POP PUSH1 0x1 EQ PUSH2 0x62C9 JUMPI JUMPDEST POP POP POP POP JUMP JUMPDEST SWAP1 SWAP2 SWAP4 SWAP5 POP PUSH1 0x0 MSTORE PUSH1 0x20 SWAP3 DUP4 PUSH1 0x0 KECCAK256 SWAP3 DUP5 PUSH1 0x0 SWAP5 JUMPDEST DUP4 DUP7 LT PUSH2 0x62F5 JUMPI POP POP POP POP ADD ADD SWAP1 CODESIZE DUP1 DUP1 DUP1 PUSH2 0x62C3 JUMP JUMPDEST DUP1 SLOAD DUP6 DUP8 ADD DUP4 ADD MSTORE SWAP5 ADD SWAP4 DUP6 SWAP1 DUP3 ADD PUSH2 0x62DE JUMP JUMPDEST SWAP3 SWAP5 POP POP POP PUSH1 0x20 SWAP4 SWAP5 POP PUSH1 0xFF NOT AND DUP4 DUP4 ADD MSTORE ISZERO ISZERO PUSH1 0x5 SHL ADD ADD SWAP1 CODESIZE DUP1 DUP1 DUP1 PUSH2 0x62C3 JUMP JUMPDEST PUSH2 0x5FFE SWAP2 PUSH1 0xE0 PUSH2 0x63C3 PUSH2 0x63B1 PUSH2 0x639F PUSH2 0x638D PUSH2 0x637B PUSH2 0x6369 PUSH2 0x6357 DUP10 MLOAD PUSH2 0x100 DUP1 DUP12 MSTORE DUP11 ADD SWAP1 PUSH2 0x5D74 JUMP JUMPDEST PUSH1 0x20 DUP11 ADD MLOAD DUP10 DUP3 SUB PUSH1 0x20 DUP12 ADD MSTORE PUSH2 0x5D74 JUMP JUMPDEST PUSH1 0x40 DUP10 ADD MLOAD DUP9 DUP3 SUB PUSH1 0x40 DUP11 ADD MSTORE PUSH2 0x5D74 JUMP JUMPDEST PUSH1 0x60 DUP9 ADD MLOAD DUP8 DUP3 SUB PUSH1 0x60 DUP10 ADD MSTORE PUSH2 0x5D74 JUMP JUMPDEST PUSH1 0x80 DUP8 ADD MLOAD DUP7 DUP3 SUB PUSH1 0x80 DUP9 ADD MSTORE PUSH2 0x5D74 JUMP JUMPDEST PUSH1 0xA0 DUP7 ADD MLOAD DUP6 DUP3 SUB PUSH1 0xA0 DUP8 ADD MSTORE PUSH2 0x5D74 JUMP JUMPDEST PUSH1 0xC0 DUP6 ADD MLOAD DUP5 DUP3 SUB PUSH1 0xC0 DUP7 ADD MSTORE PUSH2 0x5D74 JUMP JUMPDEST SWAP3 ADD MLOAD SWAP1 PUSH1 0xE0 DUP2 DUP5 SUB SWAP2 ADD MSTORE PUSH2 0x5D74 JUMP JUMPDEST PUSH2 0x5FFE SWAP2 PUSH1 0xC0 PUSH2 0x644B PUSH2 0x642F PUSH2 0x641D PUSH2 0x640B PUSH2 0x63F9 DUP8 MLOAD PUSH1 0xE0 DUP9 MSTORE PUSH1 0xE0 DUP9 ADD SWAP1 PUSH2 0x5D74 JUMP JUMPDEST PUSH1 0x20 DUP9 ADD MLOAD DUP8 DUP3 SUB PUSH1 0x20 DUP10 ADD MSTORE PUSH2 0x5DB4 JUMP JUMPDEST PUSH1 0x40 DUP8 ADD MLOAD DUP7 DUP3 SUB PUSH1 0x40 DUP9 ADD MSTORE PUSH2 0x5D74 JUMP JUMPDEST PUSH1 0x60 DUP7 ADD MLOAD DUP6 DUP3 SUB PUSH1 0x60 DUP8 ADD MSTORE PUSH2 0x5D74 JUMP JUMPDEST PUSH1 0x80 DUP6 ADD MLOAD PUSH1 0x80 DUP6 ADD MSTORE PUSH1 0xA0 DUP6 ADD MLOAD DUP5 DUP3 SUB PUSH1 0xA0 DUP7 ADD MSTORE PUSH2 0x5D74 JUMP JUMPDEST SWAP3 ADD MLOAD SWAP1 PUSH1 0xC0 DUP2 DUP5 SUB SWAP2 ADD MSTORE PUSH2 0x5D74 JUMP JUMPDEST PUSH1 0x20 DUP1 DUP3 ADD SWAP1 DUP1 DUP4 MSTORE DUP4 MLOAD DUP1 SWAP3 MSTORE PUSH1 0x40 SWAP3 DUP4 DUP2 ADD DUP3 DUP6 DUP6 PUSH1 0x5 SHL DUP5 ADD ADD SWAP7 ADD SWAP5 PUSH1 0x0 SWAP3 JUMPDEST DUP6 DUP5 LT PUSH2 0x6491 JUMPI POP POP POP POP POP POP POP SWAP1 JUMP JUMPDEST SWAP1 SWAP2 SWAP3 SWAP4 SWAP5 SWAP6 SWAP7 DUP6 DUP1 PUSH2 0x652C PUSH1 0x1 SWAP4 PUSH1 0x3F NOT DUP7 DUP3 SUB ADD DUP9 MSTORE DUP12 MLOAD DUP1 MLOAD DUP3 MSTORE DUP4 DUP2 ADD MLOAD DUP5 DUP4 ADD MSTORE DUP8 DUP2 ADD MLOAD DUP9 DUP4 ADD MSTORE PUSH1 0x60 DUP1 DUP3 ADD MLOAD SWAP1 DUP4 ADD MSTORE PUSH1 0x80 DUP1 DUP3 ADD MLOAD SWAP1 DUP4 ADD MSTORE DUP6 DUP1 PUSH1 0xA0 SHL SUB PUSH1 0xA0 DUP2 DUP2 DUP5 ADD MLOAD AND SWAP1 DUP5 ADD MSTORE PUSH1 0xC0 SWAP1 DUP2 DUP4 ADD MLOAD AND SWAP1 DUP4 ADD MSTORE PUSH1 0xE0 DUP1 DUP3 ADD MLOAD ISZERO ISZERO SWAP1 DUP4 ADD MSTORE PUSH2 0x6518 PUSH2 0x100 DUP1 DUP4 ADD MLOAD SWAP1 PUSH2 0x140 DUP1 SWAP2 DUP7 ADD MSTORE DUP5 ADD SWAP1 PUSH2 0x632C JUMP JUMPDEST SWAP2 PUSH2 0x120 DUP1 SWAP3 ADD MLOAD SWAP2 DUP2 DUP5 SUB SWAP2 ADD MSTORE PUSH2 0x63D4 JUMP JUMPDEST SWAP10 ADD SWAP5 ADD SWAP5 ADD SWAP3 SWAP6 SWAP5 SWAP4 SWAP2 SWAP1 PUSH2 0x6480 JUMP JUMPDEST SWAP1 PUSH1 0xC0 DUP1 PUSH2 0x65A8 PUSH2 0x6596 PUSH2 0x6584 PUSH2 0x6572 PUSH2 0x6560 DUP9 MLOAD PUSH1 0xE0 DUP10 MSTORE PUSH1 0xE0 DUP10 ADD SWAP1 PUSH2 0x5D74 JUMP JUMPDEST PUSH1 0x20 DUP10 ADD MLOAD DUP9 DUP3 SUB PUSH1 0x20 DUP11 ADD MSTORE PUSH2 0x5D74 JUMP JUMPDEST PUSH1 0x40 DUP9 ADD MLOAD DUP8 DUP3 SUB PUSH1 0x40 DUP10 ADD MSTORE PUSH2 0x5D74 JUMP JUMPDEST PUSH1 0x60 DUP8 ADD MLOAD DUP7 DUP3 SUB PUSH1 0x60 DUP9 ADD MSTORE PUSH2 0x5D74 JUMP JUMPDEST PUSH1 0x80 DUP7 ADD MLOAD DUP6 DUP3 SUB PUSH1 0x80 DUP8 ADD MSTORE PUSH2 0x5D74 JUMP JUMPDEST SWAP4 PUSH1 0xA0 DUP2 ADD MLOAD PUSH1 0xA0 DUP6 ADD MSTORE ADD MLOAD ISZERO ISZERO SWAP2 ADD MSTORE SWAP1 JUMP JUMPDEST SWAP1 PUSH1 0x4 DUP3 LT ISZERO PUSH2 0x1E70 JUMPI MSTORE JUMP JUMPDEST DUP1 SLOAD DUP3 LT ISZERO PUSH2 0x2660 JUMPI PUSH1 0x0 MSTORE PUSH1 0x20 PUSH1 0x0 KECCAK256 ADD SWAP1 PUSH1 0x0 SWAP1 JUMP JUMPDEST DUP1 SLOAD DUP3 LT ISZERO PUSH2 0x2660 JUMPI PUSH1 0x0 MSTORE PUSH1 0x16 PUSH1 0x20 PUSH1 0x0 KECCAK256 SWAP2 MUL ADD SWAP1 PUSH1 0x0 SWAP1 JUMP JUMPDEST SWAP1 PUSH1 0x7 PUSH1 0xE0 PUSH1 0x40 SWAP4 PUSH2 0x66C6 DUP6 MLOAD SWAP2 PUSH2 0x6615 DUP4 PUSH2 0x60AB JUMP JUMPDEST PUSH2 0x48EB DUP4 SWAP8 DUP1 MLOAD PUSH2 0x662A DUP2 PUSH2 0x381 DUP2 DUP8 PUSH2 0x6296 JUMP JUMPDEST DUP6 MSTORE DUP1 MLOAD PUSH2 0x663F DUP2 PUSH2 0x381 DUP2 PUSH1 0x1 DUP9 ADD PUSH2 0x6296 JUMP JUMPDEST PUSH1 0x20 DUP7 ADD MSTORE DUP1 MLOAD PUSH2 0x6657 DUP2 PUSH2 0x381 DUP2 PUSH1 0x2 DUP9 ADD PUSH2 0x6296 JUMP JUMPDEST DUP2 DUP7 ADD MSTORE DUP1 MLOAD PUSH2 0x666E DUP2 PUSH2 0x381 DUP2 PUSH1 0x3 DUP9 ADD PUSH2 0x6296 JUMP JUMPDEST PUSH1 0x60 DUP7 ADD MSTORE DUP1 MLOAD PUSH2 0x6686 DUP2 PUSH2 0x381 DUP2 PUSH1 0x4 DUP9 ADD PUSH2 0x6296 JUMP JUMPDEST PUSH1 0x80 DUP7 ADD MSTORE DUP1 MLOAD PUSH2 0x669E DUP2 PUSH2 0x381 DUP2 PUSH1 0x5 DUP9 ADD PUSH2 0x6296 JUMP JUMPDEST PUSH1 0xA0 DUP7 ADD MSTORE DUP1 MLOAD PUSH2 0x66B6 DUP2 PUSH2 0x381 DUP2 PUSH1 0x6 DUP9 ADD PUSH2 0x6296 JUMP JUMPDEST PUSH1 0xC0 DUP7 ADD MSTORE MLOAD DUP1 SWAP7 DUP2 SWAP4 ADD PUSH2 0x6296 JUMP JUMPDEST ADD MSTORE JUMP JUMPDEST PUSH1 0x1 PUSH1 0x1 PUSH1 0x40 SHL SUB DUP2 GT PUSH2 0x1305 JUMPI PUSH1 0x5 SHL PUSH1 0x20 ADD SWAP1 JUMP JUMPDEST SWAP1 DUP2 SLOAD PUSH2 0x66ED DUP2 PUSH2 0x66CA JUMP JUMPDEST SWAP3 PUSH1 0x40 SWAP4 PUSH2 0x66FD DUP6 MLOAD SWAP2 DUP3 PUSH2 0x616A JUMP JUMPDEST DUP3 DUP2 MSTORE DUP1 SWAP5 PUSH1 0x20 DUP1 SWAP3 ADD SWAP3 PUSH1 0x0 MSTORE DUP2 PUSH1 0x0 KECCAK256 SWAP1 PUSH1 0x0 SWAP4 JUMPDEST DUP6 DUP6 LT PUSH2 0x6723 JUMPI POP POP POP POP POP POP JUMP JUMPDEST PUSH1 0x1 DUP5 DUP2 SWAP3 DUP5 MLOAD PUSH2 0x6738 DUP2 PUSH2 0x381 DUP2 DUP11 PUSH2 0x6296 JUMP JUMPDEST DUP2 MSTORE ADD SWAP4 ADD SWAP5 ADD SWAP4 SWAP2 PUSH2 0x6714 JUMP JUMPDEST SWAP1 PUSH1 0x6 PUSH1 0xC0 PUSH1 0x40 SWAP4 PUSH2 0x66C6 DUP6 MLOAD SWAP2 PUSH2 0x675D DUP4 PUSH2 0x60C7 JUMP JUMPDEST PUSH2 0x48EB DUP4 SWAP8 DUP1 MLOAD PUSH2 0x6772 DUP2 PUSH2 0x381 DUP2 DUP8 PUSH2 0x6296 JUMP JUMPDEST DUP6 MSTORE PUSH2 0x6780 PUSH1 0x1 DUP5 ADD PUSH2 0x66E1 JUMP JUMPDEST PUSH1 0x20 DUP7 ADD MSTORE DUP1 MLOAD PUSH2 0x6798 DUP2 PUSH2 0x381 DUP2 PUSH1 0x2 DUP9 ADD PUSH2 0x6296 JUMP JUMPDEST DUP2 DUP7 ADD MSTORE DUP1 MLOAD PUSH2 0x67AF DUP2 PUSH2 0x381 DUP2 PUSH1 0x3 DUP9 ADD PUSH2 0x6296 JUMP JUMPDEST PUSH1 0x60 DUP7 ADD MSTORE PUSH1 0x4 DUP4 ADD SLOAD PUSH1 0x80 DUP7 ADD MSTORE DUP1 MLOAD PUSH2 0x67D1 DUP2 PUSH2 0x381 DUP2 PUSH1 0x5 DUP9 ADD PUSH2 0x6296 JUMP JUMPDEST PUSH1 0xA0 DUP7 ADD MSTORE MLOAD DUP1 SWAP7 DUP2 SWAP4 ADD PUSH2 0x6296 JUMP JUMPDEST SWAP9 SWAP6 SWAP4 SWAP1 SWAP3 PUSH2 0x5FFE SWAP11 SWAP9 SWAP6 SWAP3 PUSH2 0x6836 SWAP9 SWAP5 DUP12 MSTORE PUSH1 0x20 DUP12 ADD MSTORE PUSH1 0x40 DUP11 ADD MSTORE PUSH1 0x60 DUP10 ADD MSTORE PUSH1 0x80 DUP9 ADD MSTORE PUSH1 0x1 DUP1 PUSH1 0xA0 SHL SUB DUP1 SWAP3 AND PUSH1 0xA0 DUP9 ADD MSTORE AND PUSH1 0xC0 DUP7 ADD MSTORE ISZERO ISZERO PUSH1 0xE0 DUP6 ADD MSTORE PUSH2 0x140 DUP1 PUSH2 0x100 DUP7 ADD MSTORE DUP5 ADD SWAP1 PUSH2 0x632C JUMP JUMPDEST SWAP2 PUSH2 0x120 DUP2 DUP5 SUB SWAP2 ADD MSTORE PUSH2 0x63D4 JUMP JUMPDEST SWAP1 DUP2 MLOAD DUP1 DUP3 MSTORE PUSH1 0x20 DUP1 DUP1 SWAP4 ADD SWAP4 ADD SWAP2 PUSH1 0x0 JUMPDEST DUP3 DUP2 LT PUSH2 0x6865 JUMPI POP POP POP POP SWAP1 JUMP JUMPDEST DUP4 MLOAD DUP6 MSTORE SWAP4 DUP2 ADD SWAP4 SWAP3 DUP2 ADD SWAP3 PUSH1 0x1 ADD PUSH2 0x6857 JUMP JUMPDEST PUSH1 0x0 SLOAD PUSH1 0x1 PUSH1 0x1 PUSH1 0xA0 SHL SUB AND CALLER SUB PUSH2 0x688D JUMPI JUMP JUMPDEST PUSH1 0x64 PUSH1 0x40 MLOAD PUSH3 0x461BCD PUSH1 0xE5 SHL DUP2 MSTORE PUSH1 0x20 PUSH1 0x4 DUP3 ADD MSTORE PUSH1 0x20 PUSH1 0x24 DUP3 ADD MSTORE PUSH32 0x4F776E61626C653A2063616C6C6572206973206E6F7420746865206F776E6572 PUSH1 0x44 DUP3 ADD MSTORE REVERT JUMPDEST ISZERO PUSH2 0x68D8 JUMPI JUMP JUMPDEST PUSH1 0x40 MLOAD PUSH3 0x461BCD PUSH1 0xE5 SHL DUP2 MSTORE PUSH1 0x20 PUSH1 0x4 DUP3 ADD MSTORE PUSH1 0x18 PUSH1 0x24 DUP3 ADD MSTORE PUSH24 0x115490CDCC8C4E881A5B9D985B1A59081D1BDAD95B881251 PUSH1 0x42 SHL PUSH1 0x44 DUP3 ADD MSTORE PUSH1 0x64 SWAP1 REVERT JUMPDEST PUSH1 0x0 SWAP1 DUP2 MSTORE PUSH1 0x4 PUSH1 0x20 MSTORE PUSH1 0x40 SWAP1 KECCAK256 SLOAD PUSH1 0x1 PUSH1 0x1 PUSH1 0xA0 SHL SUB AND PUSH2 0x5FFE DUP2 ISZERO ISZERO PUSH2 0x68D1 JUMP JUMPDEST PUSH2 0x6947 PUSH2 0x2BA2 DUP3 PUSH2 0x6C34 JUMP JUMPDEST PUSH1 0x0 SWAP1 DUP2 MSTORE PUSH1 0x6 PUSH1 0x20 MSTORE PUSH1 0x40 SWAP1 KECCAK256 SLOAD PUSH1 0x1 PUSH1 0x1 PUSH1 0xA0 SHL SUB AND SWAP1 JUMP JUMPDEST ISZERO PUSH2 0x6969 JUMPI JUMP JUMPDEST PUSH1 0x40 MLOAD PUSH3 0x461BCD PUSH1 0xE5 SHL DUP2 MSTORE PUSH1 0x20 PUSH1 0x4 DUP3 ADD MSTORE PUSH1 0x2D PUSH1 0x24 DUP3 ADD MSTORE PUSH32 0x4552433732313A2063616C6C6572206973206E6F7420746F6B656E206F776E65 PUSH1 0x44 DUP3 ADD MSTORE PUSH13 0x1C881BDC88185C1C1C9BDD9959 PUSH1 0x9A SHL PUSH1 0x64 DUP3 ADD MSTORE PUSH1 0x84 SWAP1 REVERT JUMPDEST SWAP1 PUSH2 0x69E8 SWAP4 SWAP3 SWAP2 PUSH2 0x69D8 PUSH2 0x50C9 DUP5 CALLER PUSH2 0x6A5F JUMP JUMPDEST PUSH2 0x69E3 DUP4 DUP4 DUP4 PUSH2 0x6B27 JUMP JUMPDEST PUSH2 0x6C81 JUMP JUMPDEST ISZERO PUSH2 0x69EF JUMPI JUMP JUMPDEST PUSH1 0x40 MLOAD PUSH3 0x461BCD PUSH1 0xE5 SHL DUP2 MSTORE DUP1 PUSH2 0x6A08 PUSH1 0x4 DUP3 ADD PUSH2 0x6A0C JUMP JUMPDEST SUB SWAP1 REVERT JUMPDEST PUSH1 0x80 SWAP1 PUSH1 0x20 DUP2 MSTORE PUSH1 0x32 PUSH1 0x20 DUP3 ADD MSTORE PUSH32 0x4552433732313A207472616E7366657220746F206E6F6E204552433732315265 PUSH1 0x40 DUP3 ADD MSTORE PUSH18 0x31B2B4BB32B91034B6B83632B6B2B73A32B9 PUSH1 0x71 SHL PUSH1 0x60 DUP3 ADD MSTORE ADD SWAP1 JUMP JUMPDEST SWAP1 PUSH1 0x1 PUSH1 0x1 PUSH1 0xA0 SHL SUB DUP1 DUP1 PUSH2 0x6A73 DUP5 PUSH2 0x6918 JUMP JUMPDEST AND SWAP4 AND SWAP2 DUP4 DUP4 EQ SWAP4 DUP5 ISZERO PUSH2 0x6AA6 JUMPI JUMPDEST POP DUP4 ISZERO PUSH2 0x6A90 JUMPI JUMPDEST POP POP POP SWAP1 JUMP JUMPDEST PUSH2 0x6A9C SWAP2 SWAP3 SWAP4 POP PUSH2 0x693B JUMP JUMPDEST AND EQ CODESIZE DUP1 DUP1 PUSH2 0x6A8A JUMP JUMPDEST SWAP1 SWAP4 POP PUSH1 0x0 MSTORE PUSH1 0x7 PUSH1 0x20 MSTORE PUSH1 0x40 PUSH1 0x0 KECCAK256 DUP3 PUSH1 0x0 MSTORE PUSH1 0x20 MSTORE PUSH1 0xFF PUSH1 0x40 PUSH1 0x0 KECCAK256 SLOAD AND SWAP3 CODESIZE PUSH2 0x6A82 JUMP JUMPDEST ISZERO PUSH2 0x6AD4 JUMPI JUMP JUMPDEST PUSH1 0x40 MLOAD PUSH3 0x461BCD PUSH1 0xE5 SHL DUP2 MSTORE PUSH1 0x20 PUSH1 0x4 DUP3 ADD MSTORE PUSH1 0x25 PUSH1 0x24 DUP3 ADD MSTORE PUSH32 0x4552433732313A207472616E736665722066726F6D20696E636F727265637420 PUSH1 0x44 DUP3 ADD MSTORE PUSH5 0x37BBB732B9 PUSH1 0xD9 SHL PUSH1 0x64 DUP3 ADD MSTORE PUSH1 0x84 SWAP1 REVERT JUMPDEST SWAP1 PUSH2 0x6B4F SWAP2 PUSH2 0x6B35 DUP5 PUSH2 0x6918 JUMP JUMPDEST PUSH1 0x1 PUSH1 0x1 PUSH1 0xA0 SHL SUB SWAP4 SWAP2 DUP5 AND SWAP3 DUP5 SWAP3 SWAP1 SWAP2 DUP4 AND DUP5 EQ PUSH2 0x6ACD JUMP JUMPDEST AND SWAP2 DUP3 ISZERO PUSH2 0x6BD2 JUMPI DUP2 PUSH2 0x6B6C SWAP2 PUSH2 0x6B65 DUP7 PUSH2 0x6918 JUMP JUMPDEST AND EQ PUSH2 0x6ACD JUMP JUMPDEST PUSH1 0x0 DUP1 MLOAD PUSH1 0x20 PUSH2 0x897C DUP4 CODECOPY DUP2 MLOAD SWAP2 MSTORE PUSH1 0x0 DUP5 DUP2 MSTORE PUSH1 0x6 PUSH1 0x20 MSTORE PUSH1 0x40 DUP2 KECCAK256 PUSH1 0x1 DUP1 PUSH1 0xA0 SHL SUB NOT SWAP1 DUP2 DUP2 SLOAD AND SWAP1 SSTORE DUP4 DUP3 MSTORE PUSH1 0x5 PUSH1 0x20 MSTORE PUSH1 0x40 DUP3 KECCAK256 PUSH1 0x0 NOT DUP2 SLOAD ADD SWAP1 SSTORE DUP5 DUP3 MSTORE PUSH1 0x40 DUP3 KECCAK256 PUSH1 0x1 DUP2 SLOAD ADD SWAP1 SSTORE DUP6 DUP3 MSTORE PUSH1 0x4 PUSH1 0x20 MSTORE DUP5 PUSH1 0x40 DUP4 KECCAK256 SWAP2 DUP3 SLOAD AND OR SWAP1 SSTORE DUP1 LOG4 JUMP JUMPDEST PUSH1 0x40 MLOAD PUSH3 0x461BCD PUSH1 0xE5 SHL DUP2 MSTORE PUSH1 0x20 PUSH1 0x4 DUP3 ADD MSTORE PUSH1 0x24 DUP1 DUP3 ADD MSTORE PUSH32 0x4552433732313A207472616E7366657220746F20746865207A65726F20616464 PUSH1 0x44 DUP3 ADD MSTORE PUSH4 0x72657373 PUSH1 0xE0 SHL PUSH1 0x64 DUP3 ADD MSTORE PUSH1 0x84 SWAP1 REVERT JUMPDEST SWAP1 PUSH1 0xFF DUP1 NOT DUP4 SLOAD AND SWAP2 ISZERO ISZERO AND OR SWAP1 SSTORE JUMP JUMPDEST PUSH1 0x0 SWAP1 DUP2 MSTORE PUSH1 0x4 PUSH1 0x20 MSTORE PUSH1 0x40 SWAP1 KECCAK256 SLOAD PUSH1 0x1 PUSH1 0x1 PUSH1 0xA0 SHL SUB AND ISZERO ISZERO SWAP1 JUMP JUMPDEST RETURNDATASIZE ISZERO PUSH2 0x6C7C JUMPI RETURNDATASIZE SWAP1 PUSH2 0x6C62 DUP3 PUSH2 0x618D JUMP JUMPDEST SWAP2 PUSH2 0x6C70 PUSH1 0x40 MLOAD SWAP4 DUP5 PUSH2 0x616A JUMP JUMPDEST DUP3 MSTORE RETURNDATASIZE PUSH1 0x0 PUSH1 0x20 DUP5 ADD RETURNDATACOPY JUMP JUMPDEST PUSH1 0x60 SWAP1 JUMP JUMPDEST SWAP2 SWAP3 PUSH1 0x0 SWAP3 SWAP2 SWAP1 DUP2 EXTCODESIZE ISZERO PUSH2 0x6D76 JUMPI PUSH1 0x20 SWAP2 PUSH2 0x6CD7 SWAP2 DUP6 PUSH1 0x40 MLOAD SWAP6 DUP7 DUP1 SWAP6 DUP2 SWAP5 PUSH4 0xA85BD01 PUSH1 0xE1 SHL SWAP12 DUP13 DUP5 MSTORE CALLER PUSH1 0x4 DUP6 ADD MSTORE PUSH1 0x1 DUP1 PUSH1 0xA0 SHL SUB DUP1 SWAP6 AND PUSH1 0x24 DUP6 ADD MSTORE PUSH1 0x44 DUP5 ADD MSTORE PUSH1 0x80 PUSH1 0x64 DUP5 ADD MSTORE PUSH1 0x84 DUP4 ADD SWAP1 PUSH2 0x5D74 JUMP JUMPDEST SUB SWAP4 AND GAS CALL SWAP1 DUP3 SWAP1 DUP3 PUSH2 0x6D27 JUMPI JUMPDEST POP POP PUSH2 0x6D19 JUMPI PUSH2 0x6CF3 PUSH2 0x6C51 JUMP JUMPDEST DUP1 MLOAD SWAP1 DUP2 PUSH2 0x6D14 JUMPI PUSH1 0x40 MLOAD PUSH3 0x461BCD PUSH1 0xE5 SHL DUP2 MSTORE DUP1 PUSH2 0x6A08 PUSH1 0x4 DUP3 ADD PUSH2 0x6A0C JUMP JUMPDEST PUSH1 0x20 ADD REVERT JUMPDEST PUSH1 0x1 PUSH1 0x1 PUSH1 0xE0 SHL SUB NOT AND EQ SWAP1 JUMP JUMPDEST SWAP1 SWAP2 SWAP3 POP PUSH1 0x20 DUP2 RETURNDATASIZE DUP3 GT PUSH2 0x6D6E JUMPI JUMPDEST DUP2 PUSH2 0x6D43 PUSH1 0x20 SWAP4 DUP4 PUSH2 0x616A JUMP JUMPDEST DUP2 ADD SUB SLT PUSH2 0x6D6A JUMPI MLOAD SWAP1 PUSH1 0x1 PUSH1 0x1 PUSH1 0xE0 SHL SUB NOT DUP3 AND DUP3 SUB PUSH2 0x6D67 JUMPI POP SWAP1 CODESIZE DUP1 PUSH2 0x6CE5 JUMP JUMPDEST DUP1 REVERT JUMPDEST POP DUP1 REVERT JUMPDEST RETURNDATASIZE SWAP2 POP PUSH2 0x6D36 JUMP JUMPDEST POP POP POP POP POP PUSH1 0x1 SWAP1 JUMP JUMPDEST ISZERO PUSH2 0x6D87 JUMPI JUMP JUMPDEST PUSH1 0x40 MLOAD PUSH3 0x461BCD PUSH1 0xE5 SHL DUP2 MSTORE PUSH1 0x20 PUSH1 0x4 DUP3 ADD MSTORE PUSH1 0xF PUSH1 0x24 DUP3 ADD MSTORE PUSH15 0x496E76616C69642061646472657373 PUSH1 0x88 SHL PUSH1 0x44 DUP3 ADD MSTORE PUSH1 0x64 SWAP1 REVERT JUMPDEST ISZERO PUSH2 0x6DC5 JUMPI JUMP JUMPDEST PUSH1 0x40 MLOAD PUSH3 0x461BCD PUSH1 0xE5 SHL DUP2 MSTORE PUSH1 0x20 PUSH1 0x4 DUP3 ADD MSTORE PUSH1 0x14 PUSH1 0x24 DUP3 ADD MSTORE PUSH20 0x4E616D652063616E6E6F7420626520656D707479 PUSH1 0x60 SHL PUSH1 0x44 DUP3 ADD MSTORE PUSH1 0x64 SWAP1 REVERT JUMPDEST DUP2 DUP2 LT PUSH2 0x6E0C JUMPI POP POP JUMP JUMPDEST PUSH1 0x0 DUP2 SSTORE PUSH1 0x1 ADD PUSH2 0x6E01 JUMP JUMPDEST PUSH1 0x40 MLOAD SWAP1 PUSH2 0x6E25 DUP3 PUSH2 0x60C7 JUMP JUMPDEST PUSH1 0x0 PUSH1 0xC0 DUP4 PUSH1 0x60 DUP1 DUP3 MSTORE DUP1 PUSH1 0x20 DUP4 ADD MSTORE DUP1 PUSH1 0x40 DUP4 ADD MSTORE DUP1 DUP1 DUP4 ADD MSTORE PUSH1 0x80 DUP3 ADD MSTORE DUP3 PUSH1 0xA0 DUP3 ADD MSTORE ADD MSTORE JUMP JUMPDEST ISZERO PUSH2 0x6E56 JUMPI JUMP JUMPDEST PUSH1 0x40 MLOAD PUSH3 0x461BCD PUSH1 0xE5 SHL DUP2 MSTORE PUSH1 0x20 PUSH1 0x4 DUP3 ADD MSTORE PUSH1 0x15 PUSH1 0x24 DUP3 ADD MSTORE PUSH21 0x14D95B1B195C881B9BDD081C9959DA5CDD195C9959 PUSH1 0x5A SHL PUSH1 0x44 DUP3 ADD MSTORE PUSH1 0x64 SWAP1 REVERT JUMPDEST PUSH1 0x1 PUSH1 0x1 PUSH1 0xA0 SHL SUB SWAP1 DUP2 AND SWAP1 DUP2 ISZERO PUSH2 0x6EC9 JUMPI PUSH1 0x0 SLOAD AND DUP2 EQ PUSH2 0x6EC3 JUMPI PUSH1 0x0 MSTORE PUSH1 0x12 PUSH1 0x20 MSTORE PUSH1 0xFF PUSH1 0x40 PUSH1 0x0 KECCAK256 SLOAD AND SWAP1 JUMP JUMPDEST POP PUSH1 0x2 SWAP1 JUMP JUMPDEST PUSH1 0x40 MLOAD PUSH3 0x461BCD PUSH1 0xE5 SHL DUP2 MSTORE PUSH1 0x20 PUSH1 0x4 DUP3 ADD MSTORE PUSH1 0x16 PUSH1 0x24 DUP3 ADD MSTORE PUSH22 0x496E76616C69642073656C6C65722061646472657373 PUSH1 0x50 SHL PUSH1 0x44 DUP3 ADD MSTORE PUSH1 0x64 SWAP1 REVERT JUMPDEST SWAP1 CALLDATALOAD SWAP1 PUSH1 0x1E NOT DUP2 CALLDATASIZE SUB ADD DUP3 SLT ISZERO PUSH2 0x595 JUMPI ADD DUP1 CALLDATALOAD SWAP1 PUSH1 0x1 PUSH1 0x1 PUSH1 0x40 SHL SUB DUP3 GT PUSH2 0x595 JUMPI PUSH1 0x20 ADD SWAP2 DUP2 CALLDATASIZE SUB DUP4 SGT PUSH2 0x595 JUMPI JUMP JUMPDEST SWAP1 CALLDATALOAD SWAP1 PUSH1 0x1E NOT DUP2 CALLDATASIZE SUB ADD DUP3 SLT ISZERO PUSH2 0x595 JUMPI ADD DUP1 CALLDATALOAD SWAP1 PUSH1 0x1 PUSH1 0x1 PUSH1 0x40 SHL SUB DUP3 GT PUSH2 0x595 JUMPI PUSH1 0x20 ADD SWAP2 DUP2 PUSH1 0x5 SHL CALLDATASIZE SUB DUP4 SGT PUSH2 0x595 JUMPI JUMP JUMPDEST PUSH1 0x40 MLOAD SWAP1 PUSH2 0x6F7B DUP3 PUSH2 0x608F JUMP JUMPDEST DUP2 PUSH2 0x240 PUSH1 0x0 SWAP2 DUP3 DUP2 MSTORE DUP3 PUSH1 0x20 DUP3 ADD MSTORE PUSH1 0x60 SWAP3 DUP4 PUSH1 0x40 DUP4 ADD MSTORE DUP4 DUP1 DUP4 ADD MSTORE DUP1 PUSH1 0x80 DUP4 ADD MSTORE DUP1 PUSH1 0xA0 DUP4 ADD MSTORE DUP4 PUSH1 0xC0 DUP4 ADD MSTORE DUP4 PUSH1 0xE0 DUP4 ADD MSTORE DUP4 PUSH2 0x100 DUP4 ADD MSTORE DUP4 PUSH2 0x120 DUP4 ADD MSTORE DUP4 PUSH2 0x140 DUP4 ADD MSTORE DUP1 PUSH2 0x160 DUP4 ADD MSTORE DUP4 PUSH2 0x180 DUP4 ADD MSTORE DUP4 PUSH2 0x1A0 DUP4 ADD MSTORE DUP1 PUSH2 0x1C0 DUP4 ADD MSTORE DUP1 PUSH2 0x1E0 DUP4 ADD MSTORE DUP1 PUSH2 0x200 DUP4 ADD MSTORE PUSH2 0x220 DUP3 ADD MSTORE ADD MSTORE JUMP JUMPDEST SWAP3 SWAP2 SWAP1 SWAP3 PUSH2 0x7007 DUP5 PUSH2 0x66CA JUMP JUMPDEST SWAP2 PUSH2 0x7015 PUSH1 0x40 MLOAD SWAP4 DUP5 PUSH2 0x616A JUMP JUMPDEST DUP3 SWAP5 DUP1 DUP5 MSTORE PUSH1 0x20 DUP1 SWAP5 ADD SWAP1 PUSH1 0x5 SHL DUP4 ADD SWAP3 DUP3 DUP5 GT PUSH2 0x595 JUMPI DUP1 SWAP2 JUMPDEST DUP5 DUP4 LT PUSH2 0x703F JUMPI POP POP POP POP POP POP JUMP JUMPDEST DUP3 CALLDATALOAD PUSH1 0x1 PUSH1 0x1 PUSH1 0x40 SHL SUB DUP2 GT PUSH2 0x595 JUMPI DUP7 SWAP2 PUSH2 0x705E DUP7 DUP5 SWAP4 DUP7 ADD PUSH2 0x61DF JUMP JUMPDEST DUP2 MSTORE ADD SWAP3 ADD SWAP2 PUSH2 0x7030 JUMP JUMPDEST DUP2 DUP2 MUL SWAP3 SWAP2 DUP2 ISZERO SWAP2 DUP5 DIV EQ OR ISZERO PUSH2 0x12EF JUMPI JUMP JUMPDEST PUSH2 0x7086 DUP2 SLOAD PUSH2 0x625C JUMP JUMPDEST SWAP1 DUP2 PUSH2 0x7090 JUMPI POP POP JUMP JUMPDEST DUP2 PUSH1 0x1F PUSH1 0x0 SWAP4 GT PUSH1 0x1 EQ PUSH2 0x70A3 JUMPI POP SSTORE JUMPDEST JUMP JUMPDEST SWAP1 DUP1 DUP4 SWAP2 DUP3 MSTORE PUSH2 0x70C2 PUSH1 0x1F PUSH1 0x20 DUP5 KECCAK256 SWAP5 ADD PUSH1 0x5 SHR DUP5 ADD PUSH1 0x1 DUP6 ADD PUSH2 0x6E01 JUMP JUMPDEST SSTORE SSTORE JUMP JUMPDEST DUP2 MLOAD DUP2 SSTORE PUSH1 0x20 DUP1 DUP4 ADD MLOAD PUSH1 0x1 DUP1 DUP5 ADD DUP1 SLOAD PUSH1 0x1 PUSH1 0x1 PUSH1 0xA0 SHL SUB NOT AND PUSH1 0x1 PUSH1 0x1 PUSH1 0xA0 SHL SUB SWAP4 SWAP1 SWAP4 AND SWAP3 SWAP1 SWAP3 OR SWAP1 SWAP2 SSTORE PUSH1 0x40 DUP5 ADD MLOAD PUSH1 0x2 DUP5 ADD SSTORE PUSH1 0x60 DUP5 ADD MLOAD DUP1 MLOAD SWAP4 SWAP5 SWAP1 SWAP4 SWAP1 SWAP3 PUSH1 0x3 DUP7 ADD SWAP3 SWAP1 PUSH1 0x1 PUSH1 0x1 PUSH1 0x40 SHL SUB DUP4 GT PUSH2 0x1305 JUMPI PUSH2 0x7129 DUP5 SLOAD PUSH2 0x625C JUMP JUMPDEST PUSH1 0x1F DUP2 GT PUSH2 0x71FA JUMPI JUMPDEST POP DUP1 PUSH1 0x1F DUP5 GT PUSH1 0x1 EQ PUSH2 0x718B JUMPI POP SWAP2 DUP1 DUP1 SWAP3 PUSH1 0xA0 SWAP7 SWAP6 SWAP5 PUSH1 0x5 SWAP9 PUSH1 0x0 SWAP5 PUSH2 0x7180 JUMPI JUMPDEST POP POP SHL SWAP2 PUSH1 0x0 NOT SWAP1 PUSH1 0x3 SHL SHR NOT AND OR SWAP1 SSTORE JUMPDEST PUSH2 0x7179 PUSH1 0x80 DUP3 ADD MLOAD ISZERO ISZERO PUSH1 0x4 DUP7 ADD PUSH2 0x6C23 JUMP JUMPDEST ADD MLOAD SWAP2 ADD SSTORE JUMP JUMPDEST ADD MLOAD SWAP3 POP CODESIZE DUP1 PUSH2 0x7154 JUMP JUMPDEST SWAP2 SWAP4 SWAP5 SWAP6 PUSH1 0x1F NOT DUP5 AND DUP7 PUSH1 0x0 MSTORE DUP4 PUSH1 0x0 KECCAK256 SWAP4 PUSH1 0x0 SWAP1 JUMPDEST DUP3 DUP3 LT PUSH2 0x71E3 JUMPI POP POP SWAP2 PUSH1 0x5 SWAP8 SWAP6 SWAP4 SWAP2 DUP6 PUSH1 0xA0 SWAP9 SWAP7 SWAP5 LT PUSH2 0x71CA JUMPI JUMPDEST POP POP POP DUP2 SHL ADD SWAP1 SSTORE PUSH2 0x7166 JUMP JUMPDEST ADD MLOAD PUSH1 0x0 NOT PUSH1 0xF8 DUP5 PUSH1 0x3 SHL AND SHR NOT AND SWAP1 SSTORE CODESIZE DUP1 DUP1 PUSH2 0x71BD JUMP JUMPDEST DUP1 DUP9 DUP7 SWAP8 DUP3 SWAP5 SWAP8 DUP8 ADD MLOAD DUP2 SSTORE ADD SWAP7 ADD SWAP5 ADD SWAP1 PUSH2 0x71A1 JUMP JUMPDEST PUSH2 0x7224 SWAP1 DUP6 PUSH1 0x0 MSTORE DUP3 PUSH1 0x0 KECCAK256 PUSH1 0x1F DUP7 ADD PUSH1 0x5 SHR DUP2 ADD SWAP2 DUP5 DUP8 LT PUSH2 0x13D2 JUMPI PUSH1 0x1F ADD PUSH1 0x5 SHR ADD SWAP1 PUSH2 0x6E01 JUMP JUMPDEST CODESIZE PUSH2 0x7132 JUMP JUMPDEST DUP1 SLOAD PUSH1 0x1 PUSH1 0x40 SHL DUP2 LT ISZERO PUSH2 0x1305 JUMPI PUSH2 0x7247 SWAP2 PUSH1 0x1 DUP3 ADD DUP2 SSTORE PUSH2 0x65CA JUMP JUMPDEST DUP2 SWAP3 SWAP2 SLOAD SWAP1 PUSH1 0x3 SHL SWAP2 DUP3 SHL SWAP2 PUSH1 0x0 NOT SWAP1 SHL NOT AND OR SWAP1 SSTORE JUMP JUMPDEST ISZERO PUSH2 0x7266 JUMPI JUMP JUMPDEST PUSH1 0x40 MLOAD PUSH3 0x461BCD PUSH1 0xE5 SHL DUP2 MSTORE PUSH1 0x20 PUSH1 0x4 DUP3 ADD MSTORE PUSH1 0x1C PUSH1 0x24 DUP3 ADD MSTORE PUSH28 0x115490CDCC8C4E881D1BDAD95B88185B1C9958591E481B5A5B9D1959 PUSH1 0x22 SHL PUSH1 0x44 DUP3 ADD MSTORE PUSH1 0x64 SWAP1 REVERT JUMPDEST ISZERO PUSH2 0x72B1 JUMPI JUMP JUMPDEST PUSH1 0x40 MLOAD PUSH3 0x461BCD PUSH1 0xE5 SHL DUP2 MSTORE PUSH1 0x20 PUSH1 0x4 DUP3 ADD MSTORE PUSH1 0x12 PUSH1 0x24 DUP3 ADD MSTORE PUSH18 0x141C9BD91D58DD081A5CC819195B195D1959 PUSH1 0x72 SHL PUSH1 0x44 DUP3 ADD MSTORE PUSH1 0x64 SWAP1 REVERT JUMPDEST ISZERO PUSH2 0x72F2 JUMPI JUMP JUMPDEST PUSH1 0x40 MLOAD PUSH3 0x461BCD PUSH1 0xE5 SHL DUP2 MSTORE PUSH1 0x20 PUSH1 0x4 DUP3 ADD MSTORE PUSH1 0x16 PUSH1 0x24 DUP3 ADD MSTORE PUSH22 0x141C9BD91D58DD08191BD95CC81B9BDD08195E1A5CDD PUSH1 0x52 SHL PUSH1 0x44 DUP3 ADD MSTORE PUSH1 0x64 SWAP1 REVERT JUMPDEST SWAP1 PUSH1 0x40 MLOAD PUSH2 0x733D DUP2 PUSH2 0x6134 JUMP JUMPDEST PUSH1 0xA0 PUSH1 0x5 DUP3 SWAP5 DUP1 SLOAD DUP5 MSTORE PUSH1 0x1 DUP1 DUP5 SHL SUB PUSH1 0x1 DUP3 ADD SLOAD AND PUSH1 0x20 DUP6 ADD MSTORE PUSH1 0x2 DUP2 ADD SLOAD PUSH1 0x40 DUP6 ADD MSTORE PUSH1 0x40 MLOAD PUSH2 0x7376 DUP2 PUSH2 0x381 DUP2 PUSH1 0x3 DUP7 ADD PUSH2 0x6296 JUMP JUMPDEST PUSH1 0x60 DUP6 ADD MSTORE PUSH1 0xFF PUSH1 0x4 DUP3 ADD SLOAD AND ISZERO ISZERO PUSH1 0x80 DUP6 ADD MSTORE ADD SLOAD SWAP2 ADD MSTORE JUMP JUMPDEST PUSH1 0x0 NOT DUP2 EQ PUSH2 0x12EF JUMPI PUSH1 0x1 ADD SWAP1 JUMP JUMPDEST SWAP1 PUSH2 0x73AA DUP3 PUSH2 0x66CA JUMP JUMPDEST PUSH2 0x73B7 PUSH1 0x40 MLOAD SWAP2 DUP3 PUSH2 0x616A JUMP JUMPDEST DUP3 DUP2 MSTORE DUP1 SWAP3 PUSH2 0x73C8 PUSH1 0x1F NOT SWAP2 PUSH2 0x66CA JUMP JUMPDEST ADD SWAP1 PUSH1 0x0 JUMPDEST DUP3 DUP2 LT PUSH2 0x73D9 JUMPI POP POP POP JUMP JUMPDEST PUSH1 0x20 SWAP1 PUSH2 0x73E4 PUSH2 0x6F6E JUMP JUMPDEST DUP3 DUP3 DUP6 ADD ADD MSTORE ADD PUSH2 0x73CD JUMP JUMPDEST DUP1 MLOAD DUP3 LT ISZERO PUSH2 0x2660 JUMPI PUSH1 0x20 SWAP2 PUSH1 0x5 SHL ADD ADD SWAP1 JUMP JUMPDEST SWAP1 PUSH1 0x40 MLOAD SWAP2 DUP3 DUP2 SLOAD SWAP2 DUP3 DUP3 MSTORE PUSH1 0x20 SWAP3 DUP4 DUP4 ADD SWAP2 PUSH1 0x0 MSTORE DUP4 PUSH1 0x0 KECCAK256 SWAP4 PUSH1 0x0 SWAP1 JUMPDEST DUP3 DUP3 LT PUSH2 0x7439 JUMPI POP POP POP PUSH2 0x70A1 SWAP3 POP SUB DUP4 PUSH2 0x616A JUMP JUMPDEST DUP6 SLOAD DUP5 MSTORE PUSH1 0x1 SWAP6 DUP7 ADD SWAP6 DUP9 SWAP6 POP SWAP4 DUP2 ADD SWAP4 SWAP1 SWAP2 ADD SWAP1 PUSH2 0x7423 JUMP JUMPDEST PUSH1 0x0 JUMPDEST DUP3 DUP2 LT PUSH2 0x7462 JUMPI POP POP POP JUMP JUMPDEST PUSH1 0x60 DUP3 DUP3 ADD MSTORE PUSH1 0x20 ADD PUSH2 0x7456 JUMP JUMPDEST SWAP2 SWAP1 DUP3 SUB SWAP2 DUP3 GT PUSH2 0x12EF JUMPI JUMP JUMPDEST PUSH1 0x40 MLOAD SWAP1 PUSH2 0x748A DUP3 PUSH2 0x6134 JUMP JUMPDEST PUSH1 0x0 PUSH1 0xA0 DUP4 DUP3 DUP2 MSTORE DUP3 PUSH1 0x20 DUP3 ADD MSTORE DUP3 PUSH1 0x40 DUP3 ADD MSTORE PUSH1 0x60 DUP1 DUP3 ADD MSTORE DUP3 PUSH1 0x80 DUP3 ADD MSTORE ADD MSTORE JUMP JUMPDEST DUP1 SLOAD DUP3 LT ISZERO PUSH2 0x2660 JUMPI PUSH1 0x0 MSTORE PUSH1 0x6 PUSH1 0x20 PUSH1 0x0 KECCAK256 SWAP2 MUL ADD SWAP1 PUSH1 0x0 SWAP1 JUMP JUMPDEST PUSH1 0x2 PUSH1 0x1 SLOAD EQ PUSH2 0x74DB JUMPI PUSH1 0x2 PUSH1 0x1 SSTORE JUMP JUMPDEST PUSH1 0x40 MLOAD PUSH3 0x461BCD PUSH1 0xE5 SHL DUP2 MSTORE PUSH1 0x20 PUSH1 0x4 DUP3 ADD MSTORE PUSH1 0x1F PUSH1 0x24 DUP3 ADD MSTORE PUSH32 0x5265656E7472616E637947756172643A207265656E7472616E742063616C6C00 PUSH1 0x44 DUP3 ADD MSTORE PUSH1 0x64 SWAP1 REVERT JUMPDEST DUP1 SLOAD SWAP2 SWAP3 SWAP2 PUSH1 0x1 PUSH1 0x40 SHL DUP2 LT ISZERO PUSH2 0x1305 JUMPI PUSH2 0x7540 SWAP2 PUSH1 0x1 DUP3 ADD DUP2 SSTORE PUSH2 0x65E2 JUMP JUMPDEST PUSH2 0x84AB JUMPI DUP3 MLOAD DUP2 SSTORE PUSH1 0x20 DUP4 ADD MLOAD PUSH1 0x1 DUP3 ADD SSTORE PUSH1 0x40 DUP4 ADD MLOAD PUSH1 0x2 DUP3 ADD SSTORE PUSH1 0x60 DUP4 ADD MLOAD PUSH1 0x3 DUP3 ADD SSTORE PUSH1 0x80 DUP4 ADD MLOAD PUSH1 0x4 DUP3 ADD SSTORE PUSH1 0xA0 DUP1 DUP5 ADD MLOAD PUSH1 0x5 DUP4 ADD DUP1 SLOAD PUSH1 0x1 PUSH1 0x1 PUSH1 0xA0 SHL SUB NOT AND PUSH1 0x1 PUSH1 0x1 PUSH1 0xA0 SHL SUB SWAP3 DUP4 AND OR SWAP1 SSTORE PUSH1 0xC0 DUP6 ADD MLOAD PUSH1 0x6 DUP5 ADD DUP1 SLOAD PUSH1 0xE0 DUP9 ADD MLOAD PUSH1 0x1 PUSH1 0x1 PUSH1 0xA8 SHL SUB NOT SWAP1 SWAP2 AND SWAP3 SWAP1 SWAP4 AND SWAP2 SWAP1 SWAP2 OR SWAP2 ISZERO ISZERO SWAP1 SWAP3 SHL PUSH1 0xFF PUSH1 0xA0 SHL AND OR SWAP1 SSTORE PUSH2 0x100 DUP4 ADD MLOAD DUP1 MLOAD DUP1 MLOAD PUSH1 0x7 DUP5 ADD SWAP2 PUSH1 0x1 PUSH1 0x1 PUSH1 0x40 SHL SUB DUP3 GT PUSH2 0x1305 JUMPI DUP2 SWAP1 PUSH2 0x75F0 DUP5 SLOAD PUSH2 0x625C JUMP JUMPDEST PUSH1 0x1F DUP2 GT PUSH2 0x8479 JUMPI JUMPDEST POP PUSH1 0x20 SWAP1 PUSH1 0x1F DUP4 GT PUSH1 0x1 EQ PUSH2 0x8413 JUMPI PUSH1 0x0 SWAP3 PUSH2 0x8408 JUMPI JUMPDEST POP POP DUP2 PUSH1 0x1 SHL SWAP2 PUSH1 0x0 NOT SWAP1 PUSH1 0x3 SHL SHR NOT AND OR SWAP1 SSTORE JUMPDEST PUSH1 0x20 DUP2 ADD MLOAD DUP1 MLOAD SWAP1 PUSH1 0x1 PUSH1 0x1 PUSH1 0x40 SHL SUB DUP3 GT PUSH2 0x1305 JUMPI DUP2 SWAP1 PUSH2 0x764A PUSH1 0x8 DUP7 ADD SLOAD PUSH2 0x625C JUMP JUMPDEST PUSH1 0x1F DUP2 GT PUSH2 0x83D3 JUMPI JUMPDEST POP PUSH1 0x20 SWAP1 PUSH1 0x1F DUP4 GT PUSH1 0x1 EQ PUSH2 0x8366 JUMPI PUSH1 0x0 SWAP3 PUSH2 0x835B JUMPI JUMPDEST POP POP DUP2 PUSH1 0x1 SHL SWAP2 PUSH1 0x0 NOT SWAP1 PUSH1 0x3 SHL SHR NOT AND OR PUSH1 0x8 DUP4 ADD SSTORE JUMPDEST PUSH1 0x40 DUP2 ADD MLOAD DUP1 MLOAD SWAP1 PUSH1 0x1 PUSH1 0x1 PUSH1 0x40 SHL SUB DUP3 GT PUSH2 0x1305 JUMPI DUP2 SWAP1 PUSH2 0x76A7 PUSH1 0x9 DUP7 ADD SLOAD PUSH2 0x625C JUMP JUMPDEST PUSH1 0x1F DUP2 GT PUSH2 0x8326 JUMPI JUMPDEST POP PUSH1 0x20 SWAP1 PUSH1 0x1F DUP4 GT PUSH1 0x1 EQ PUSH2 0x82B4 JUMPI PUSH1 0x0 SWAP3 PUSH2 0x82A9 JUMPI JUMPDEST POP POP DUP2 PUSH1 0x1 SHL SWAP2 PUSH1 0x0 NOT SWAP1 PUSH1 0x3 SHL SHR NOT AND OR PUSH1 0x9 DUP4 ADD SSTORE JUMPDEST PUSH1 0x60 DUP2 ADD MLOAD DUP1 MLOAD SWAP1 PUSH1 0x1 PUSH1 0x1 PUSH1 0x40 SHL SUB DUP3 GT PUSH2 0x1305 JUMPI DUP2 SWAP1 PUSH2 0x7704 PUSH1 0xA DUP7 ADD SLOAD PUSH2 0x625C JUMP JUMPDEST PUSH1 0x1F DUP2 GT PUSH2 0x8274 JUMPI JUMPDEST POP PUSH1 0x20 SWAP1 PUSH1 0x1F DUP4 GT PUSH1 0x1 EQ PUSH2 0x8202 JUMPI PUSH1 0x0 SWAP3 PUSH2 0x81F7 JUMPI JUMPDEST POP POP DUP2 PUSH1 0x1 SHL SWAP2 PUSH1 0x0 NOT SWAP1 PUSH1 0x3 SHL SHR NOT AND OR PUSH1 0xA DUP4 ADD SSTORE JUMPDEST PUSH1 0x80 DUP2 ADD MLOAD DUP1 MLOAD SWAP1 PUSH1 0x1 PUSH1 0x1 PUSH1 0x40 SHL SUB DUP3 GT PUSH2 0x1305 JUMPI DUP2 SWAP1 PUSH2 0x7761 PUSH1 0xB DUP7 ADD SLOAD PUSH2 0x625C JUMP JUMPDEST PUSH1 0x1F DUP2 GT PUSH2 0x81C2 JUMPI JUMPDEST POP PUSH1 0x20 SWAP1 PUSH1 0x1F DUP4 GT PUSH1 0x1 EQ PUSH2 0x8150 JUMPI PUSH1 0x0 SWAP3 PUSH2 0x8145 JUMPI JUMPDEST POP POP DUP2 PUSH1 0x1 SHL SWAP2 PUSH1 0x0 NOT SWAP1 PUSH1 0x3 SHL SHR NOT AND OR PUSH1 0xB DUP4 ADD SSTORE JUMPDEST PUSH1 0xA0 DUP2 ADD MLOAD DUP1 MLOAD SWAP1 PUSH1 0x1 PUSH1 0x1 PUSH1 0x40 SHL SUB DUP3 GT PUSH2 0x1305 JUMPI DUP2 SWAP1 PUSH2 0x77BE PUSH1 0xC DUP7 ADD SLOAD PUSH2 0x625C JUMP JUMPDEST PUSH1 0x1F DUP2 GT PUSH2 0x8110 JUMPI JUMPDEST POP PUSH1 0x20 SWAP1 PUSH1 0x1F DUP4 GT PUSH1 0x1 EQ PUSH2 0x809E JUMPI PUSH1 0x0 SWAP3 PUSH2 0x8093 JUMPI JUMPDEST POP POP DUP2 PUSH1 0x1 SHL SWAP2 PUSH1 0x0 NOT SWAP1 PUSH1 0x3 SHL SHR NOT AND OR PUSH1 0xC DUP4 ADD SSTORE JUMPDEST PUSH1 0xC0 DUP2 ADD MLOAD DUP1 MLOAD SWAP1 PUSH1 0x1 PUSH1 0x1 PUSH1 0x40 SHL SUB DUP3 GT PUSH2 0x1305 JUMPI DUP2 SWAP1 PUSH2 0x781B PUSH1 0xD DUP7 ADD SLOAD PUSH2 0x625C JUMP JUMPDEST PUSH1 0x1F DUP2 GT PUSH2 0x805E JUMPI JUMPDEST POP PUSH1 0x20 SWAP1 PUSH1 0x1F DUP4 GT PUSH1 0x1 EQ PUSH2 0x7FEC JUMPI PUSH1 0x0 SWAP3 PUSH2 0x7FE1 JUMPI JUMPDEST POP POP DUP2 PUSH1 0x1 SHL SWAP2 PUSH1 0x0 NOT SWAP1 PUSH1 0x3 SHL SHR NOT AND OR PUSH1 0xD DUP4 ADD SSTORE JUMPDEST PUSH1 0xE0 ADD MLOAD DUP1 MLOAD PUSH1 0xE DUP4 ADD SWAP2 PUSH1 0x1 PUSH1 0x1 PUSH1 0x40 SHL SUB DUP3 GT PUSH2 0x1305 JUMPI DUP2 SWAP1 PUSH2 0x7878 DUP5 SLOAD PUSH2 0x625C JUMP JUMPDEST PUSH1 0x1F DUP2 GT PUSH2 0x7FAF JUMPI JUMPDEST POP PUSH1 0x20 SWAP1 PUSH1 0x1F DUP4 GT PUSH1 0x1 EQ PUSH2 0x7F49 JUMPI PUSH1 0x0 SWAP3 PUSH2 0x7F3E JUMPI JUMPDEST POP POP DUP2 PUSH1 0x1 SHL SWAP2 PUSH1 0x0 NOT SWAP1 PUSH1 0x3 SHL SHR NOT AND OR SWAP1 SSTORE JUMPDEST PUSH2 0x120 PUSH1 0xF DUP3 ADD SWAP4 ADD MLOAD SWAP3 DUP4 MLOAD DUP1 MLOAD SWAP1 PUSH1 0x1 DUP1 PUSH1 0x40 SHL SUB DUP3 GT PUSH2 0x1305 JUMPI DUP2 SWAP1 PUSH2 0x78D6 DUP5 SLOAD PUSH2 0x625C JUMP JUMPDEST PUSH1 0x1F DUP2 GT PUSH2 0x7F0C JUMPI JUMPDEST POP PUSH1 0x20 SWAP1 PUSH1 0x1F DUP4 GT PUSH1 0x1 EQ PUSH2 0x7EA6 JUMPI PUSH1 0x0 SWAP3 PUSH2 0x7E9B JUMPI JUMPDEST POP POP DUP2 PUSH1 0x1 SHL SWAP2 PUSH1 0x0 NOT SWAP1 PUSH1 0x3 SHL SHR NOT AND OR SWAP1 SSTORE JUMPDEST PUSH1 0x20 DUP4 ADD MLOAD DUP1 MLOAD PUSH1 0x10 DUP4 ADD SWAP2 PUSH1 0x1 PUSH1 0x40 SHL DUP3 GT PUSH2 0x1305 JUMPI DUP3 SLOAD DUP3 DUP5 SSTORE DUP1 DUP4 LT PUSH2 0x7E6C JUMPI JUMPDEST POP PUSH1 0x20 ADD SWAP2 PUSH1 0x0 MSTORE PUSH1 0x20 PUSH1 0x0 KECCAK256 SWAP2 PUSH1 0x0 SWAP1 JUMPDEST DUP3 DUP3 LT PUSH2 0x7D57 JUMPI POP POP POP POP PUSH1 0x40 DUP4 ADD MLOAD DUP1 MLOAD PUSH1 0x11 DUP4 ADD SWAP2 PUSH1 0x1 PUSH1 0x1 PUSH1 0x40 SHL SUB DUP3 GT PUSH2 0x1305 JUMPI DUP2 SWAP1 PUSH2 0x7972 DUP5 SLOAD PUSH2 0x625C JUMP JUMPDEST PUSH1 0x1F DUP2 GT PUSH2 0x7D25 JUMPI JUMPDEST POP PUSH1 0x20 SWAP1 PUSH1 0x1F DUP4 GT PUSH1 0x1 EQ PUSH2 0x7CBF JUMPI PUSH1 0x0 SWAP3 PUSH2 0x7CB4 JUMPI JUMPDEST POP POP DUP2 PUSH1 0x1 SHL SWAP2 PUSH1 0x0 NOT SWAP1 PUSH1 0x3 SHL SHR NOT AND OR SWAP1 SSTORE JUMPDEST PUSH1 0x60 DUP4 ADD MLOAD DUP1 MLOAD PUSH1 0x12 DUP4 ADD SWAP2 PUSH1 0x1 PUSH1 0x1 PUSH1 0x40 SHL SUB DUP3 GT PUSH2 0x1305 JUMPI DUP2 SWAP1 PUSH2 0x79CD DUP5 SLOAD PUSH2 0x625C JUMP JUMPDEST PUSH1 0x1F DUP2 GT PUSH2 0x7C82 JUMPI JUMPDEST POP PUSH1 0x20 SWAP1 PUSH1 0x1F DUP4 GT PUSH1 0x1 EQ PUSH2 0x7C1C JUMPI PUSH1 0x0 SWAP3 PUSH2 0x7C11 JUMPI JUMPDEST POP POP DUP2 PUSH1 0x1 SHL SWAP2 PUSH1 0x0 NOT SWAP1 PUSH1 0x3 SHL SHR NOT AND OR SWAP1 SSTORE JUMPDEST PUSH1 0x80 DUP4 ADD MLOAD PUSH1 0x13 DUP3 ADD SSTORE PUSH1 0xA0 DUP4 ADD MLOAD DUP1 MLOAD PUSH1 0x14 DUP4 ADD SWAP2 PUSH1 0x1 PUSH1 0x1 PUSH1 0x40 SHL SUB DUP3 GT PUSH2 0x1305 JUMPI PUSH2 0x7A30 DUP4 SLOAD PUSH2 0x625C JUMP JUMPDEST PUSH1 0x1F DUP2 GT PUSH2 0x7BDF JUMPI JUMPDEST POP PUSH1 0x20 SWAP1 PUSH1 0x1F DUP4 GT PUSH1 0x1 EQ PUSH2 0x7B71 JUMPI SWAP2 DUP1 PUSH1 0x15 SWAP5 SWAP3 PUSH1 0xC0 SWAP7 SWAP5 PUSH1 0x0 SWAP3 PUSH2 0x7B66 JUMPI JUMPDEST POP POP DUP2 PUSH1 0x1 SHL SWAP2 PUSH1 0x0 NOT SWAP1 PUSH1 0x3 SHL SHR NOT AND OR SWAP1 SSTORE JUMPDEST ADD SWAP3 ADD MLOAD SWAP2 DUP3 MLOAD PUSH1 0x1 DUP1 PUSH1 0x40 SHL SUB DUP2 GT PUSH2 0x1305 JUMPI PUSH2 0x7A8D DUP3 SLOAD PUSH2 0x625C JUMP JUMPDEST PUSH1 0x1F DUP2 GT PUSH2 0x7B34 JUMPI JUMPDEST POP PUSH1 0x20 PUSH1 0x1F DUP3 GT PUSH1 0x1 EQ PUSH2 0x7AD1 JUMPI DUP2 SWAP3 SWAP4 SWAP5 PUSH1 0x0 SWAP3 PUSH2 0x7AC6 JUMPI JUMPDEST POP POP DUP2 PUSH1 0x1 SHL SWAP2 PUSH1 0x0 NOT SWAP1 PUSH1 0x3 SHL SHR NOT AND OR SWAP1 SSTORE JUMP JUMPDEST ADD MLOAD SWAP1 POP CODESIZE DUP1 PUSH2 0x7AB0 JUMP JUMPDEST PUSH1 0x1F NOT DUP3 AND SWAP1 DUP4 PUSH1 0x0 MSTORE PUSH1 0x20 PUSH1 0x0 KECCAK256 SWAP2 PUSH1 0x0 JUMPDEST DUP2 DUP2 LT PUSH2 0x7B1C JUMPI POP SWAP6 DUP4 PUSH1 0x1 SWAP6 SWAP7 SWAP8 LT PUSH2 0x7B03 JUMPI JUMPDEST POP POP POP DUP2 SHL ADD SWAP1 SSTORE JUMP JUMPDEST ADD MLOAD PUSH1 0x0 NOT PUSH1 0xF8 DUP5 PUSH1 0x3 SHL AND SHR NOT AND SWAP1 SSTORE CODESIZE DUP1 DUP1 PUSH2 0x7AF9 JUMP JUMPDEST SWAP2 SWAP3 PUSH1 0x20 PUSH1 0x1 DUP2 SWAP3 DUP7 DUP12 ADD MLOAD DUP2 SSTORE ADD SWAP5 ADD SWAP3 ADD PUSH2 0x7AE4 JUMP JUMPDEST PUSH2 0x7B60 SWAP1 DUP4 PUSH1 0x0 MSTORE PUSH1 0x20 PUSH1 0x0 KECCAK256 PUSH1 0x1F DUP5 ADD PUSH1 0x5 SHR DUP2 ADD SWAP2 PUSH1 0x20 DUP6 LT PUSH2 0x13D2 JUMPI PUSH1 0x1F ADD PUSH1 0x5 SHR ADD SWAP1 PUSH2 0x6E01 JUMP JUMPDEST CODESIZE PUSH2 0x7A96 JUMP JUMPDEST ADD MLOAD SWAP1 POP CODESIZE DUP1 PUSH2 0x7A5A JUMP JUMPDEST SWAP1 PUSH1 0x1F NOT DUP4 AND SWAP2 DUP5 PUSH1 0x0 MSTORE PUSH1 0x20 PUSH1 0x0 KECCAK256 SWAP3 PUSH1 0x0 JUMPDEST DUP2 DUP2 LT PUSH2 0x7BC7 JUMPI POP SWAP3 PUSH1 0x1 SWAP3 DUP6 SWAP3 PUSH1 0xC0 SWAP9 SWAP7 PUSH1 0x15 SWAP9 SWAP7 LT PUSH2 0x7BAE JUMPI JUMPDEST POP POP POP DUP2 SHL ADD SWAP1 SSTORE PUSH2 0x7A6F JUMP JUMPDEST ADD MLOAD PUSH1 0x0 NOT PUSH1 0xF8 DUP5 PUSH1 0x3 SHL AND SHR NOT AND SWAP1 SSTORE CODESIZE DUP1 DUP1 PUSH2 0x7BA1 JUMP JUMPDEST SWAP3 SWAP4 PUSH1 0x20 PUSH1 0x1 DUP2 SWAP3 DUP8 DUP7 ADD MLOAD DUP2 SSTORE ADD SWAP6 ADD SWAP4 ADD PUSH2 0x7B85 JUMP JUMPDEST PUSH2 0x7C0B SWAP1 DUP5 PUSH1 0x0 MSTORE PUSH1 0x20 PUSH1 0x0 KECCAK256 PUSH1 0x1F DUP6 ADD PUSH1 0x5 SHR DUP2 ADD SWAP2 PUSH1 0x20 DUP7 LT PUSH2 0x13D2 JUMPI PUSH1 0x1F ADD PUSH1 0x5 SHR ADD SWAP1 PUSH2 0x6E01 JUMP JUMPDEST CODESIZE PUSH2 0x7A39 JUMP JUMPDEST ADD MLOAD SWAP1 POP CODESIZE DUP1 PUSH2 0x79ED JUMP JUMPDEST PUSH1 0x0 DUP6 DUP2 MSTORE PUSH1 0x20 DUP2 KECCAK256 SWAP4 POP PUSH1 0x1F NOT DUP6 AND SWAP1 JUMPDEST DUP2 DUP2 LT PUSH2 0x7C6A JUMPI POP SWAP1 DUP5 PUSH1 0x1 SWAP6 SWAP5 SWAP4 SWAP3 LT PUSH2 0x7C51 JUMPI JUMPDEST POP POP POP DUP2 SHL ADD SWAP1 SSTORE PUSH2 0x7A02 JUMP JUMPDEST ADD MLOAD PUSH1 0x0 NOT PUSH1 0xF8 DUP5 PUSH1 0x3 SHL AND SHR NOT AND SWAP1 SSTORE CODESIZE DUP1 DUP1 PUSH2 0x7C44 JUMP JUMPDEST SWAP3 SWAP4 PUSH1 0x20 PUSH1 0x1 DUP2 SWAP3 DUP8 DUP7 ADD MLOAD DUP2 SSTORE ADD SWAP6 ADD SWAP4 ADD PUSH2 0x7C2E JUMP JUMPDEST PUSH2 0x7CAE SWAP1 DUP6 PUSH1 0x0 MSTORE PUSH1 0x20 PUSH1 0x0 KECCAK256 PUSH1 0x1F DUP6 ADD PUSH1 0x5 SHR DUP2 ADD SWAP2 PUSH1 0x20 DUP7 LT PUSH2 0x13D2 JUMPI PUSH1 0x1F ADD PUSH1 0x5 SHR ADD SWAP1 PUSH2 0x6E01 JUMP JUMPDEST CODESIZE PUSH2 0x79D6 JUMP JUMPDEST ADD MLOAD SWAP1 POP CODESIZE DUP1 PUSH2 0x7992 JUMP JUMPDEST PUSH1 0x0 DUP6 DUP2 MSTORE PUSH1 0x20 DUP2 KECCAK256 SWAP4 POP PUSH1 0x1F NOT DUP6 AND SWAP1 JUMPDEST DUP2 DUP2 LT PUSH2 0x7D0D JUMPI POP SWAP1 DUP5 PUSH1 0x1 SWAP6 SWAP5 SWAP4 SWAP3 LT PUSH2 0x7CF4 JUMPI JUMPDEST POP POP POP DUP2 SHL ADD SWAP1 SSTORE PUSH2 0x79A7 JUMP JUMPDEST ADD MLOAD PUSH1 0x0 NOT PUSH1 0xF8 DUP5 PUSH1 0x3 SHL AND SHR NOT AND SWAP1 SSTORE CODESIZE DUP1 DUP1 PUSH2 0x7CE7 JUMP JUMPDEST SWAP3 SWAP4 PUSH1 0x20 PUSH1 0x1 DUP2 SWAP3 DUP8 DUP7 ADD MLOAD DUP2 SSTORE ADD SWAP6 ADD SWAP4 ADD PUSH2 0x7CD1 JUMP JUMPDEST PUSH2 0x7D51 SWAP1 DUP6 PUSH1 0x0 MSTORE PUSH1 0x20 PUSH1 0x0 KECCAK256 PUSH1 0x1F DUP6 ADD PUSH1 0x5 SHR DUP2 ADD SWAP2 PUSH1 0x20 DUP7 LT PUSH2 0x13D2 JUMPI PUSH1 0x1F ADD PUSH1 0x5 SHR ADD SWAP1 PUSH2 0x6E01 JUMP JUMPDEST CODESIZE PUSH2 0x797B JUMP JUMPDEST DUP1 MLOAD DUP1 MLOAD SWAP1 PUSH1 0x1 PUSH1 0x1 PUSH1 0x40 SHL SUB DUP3 GT PUSH2 0x1305 JUMPI PUSH2 0x7D74 DUP7 SLOAD PUSH2 0x625C JUMP JUMPDEST PUSH1 0x1F DUP2 GT PUSH2 0x7E3A JUMPI JUMPDEST POP PUSH1 0x20 SWAP1 PUSH1 0x1F DUP4 GT PUSH1 0x1 EQ PUSH2 0x7DCA JUMPI SWAP3 DUP3 PUSH1 0x1 SWAP5 SWAP4 PUSH1 0x20 SWAP4 DUP7 SWAP6 PUSH1 0x0 SWAP3 PUSH2 0x7DBF JUMPI JUMPDEST POP POP PUSH1 0x0 NOT PUSH1 0x3 DUP4 SWAP1 SHL SHR NOT AND SWAP1 DUP5 SHL OR DUP8 SSTORE JUMPDEST ADD SWAP5 ADD SWAP2 ADD SWAP1 SWAP3 PUSH2 0x7941 JUMP JUMPDEST ADD MLOAD SWAP1 POP CODESIZE DUP1 PUSH2 0x7D9F JUMP JUMPDEST SWAP1 DUP7 PUSH1 0x0 MSTORE PUSH1 0x20 PUSH1 0x0 KECCAK256 SWAP2 PUSH1 0x0 JUMPDEST PUSH1 0x1F NOT DUP6 AND DUP2 LT PUSH2 0x7E22 JUMPI POP DUP4 PUSH1 0x20 SWAP4 PUSH1 0x1 SWAP7 SWAP4 DUP8 SWAP7 SWAP4 DUP8 SWAP5 PUSH1 0x1F NOT DUP2 AND LT PUSH2 0x7E09 JUMPI JUMPDEST POP POP POP DUP2 SHL ADD DUP8 SSTORE PUSH2 0x7DB3 JUMP JUMPDEST ADD MLOAD PUSH1 0x0 NOT PUSH1 0xF8 DUP5 PUSH1 0x3 SHL AND SHR NOT AND SWAP1 SSTORE CODESIZE DUP1 DUP1 PUSH2 0x7DFC JUMP JUMPDEST SWAP2 SWAP3 PUSH1 0x20 PUSH1 0x1 DUP2 SWAP3 DUP7 DUP6 ADD MLOAD DUP2 SSTORE ADD SWAP5 ADD SWAP3 ADD PUSH2 0x7DD8 JUMP JUMPDEST PUSH2 0x7E66 SWAP1 DUP8 PUSH1 0x0 MSTORE PUSH1 0x20 PUSH1 0x0 KECCAK256 PUSH1 0x1F DUP6 ADD PUSH1 0x5 SHR DUP2 ADD SWAP2 PUSH1 0x20 DUP7 LT PUSH2 0x13D2 JUMPI PUSH1 0x1F ADD PUSH1 0x5 SHR ADD SWAP1 PUSH2 0x6E01 JUMP JUMPDEST CODESIZE PUSH2 0x7D7D JUMP JUMPDEST DUP4 PUSH1 0x0 MSTORE DUP3 PUSH1 0x20 PUSH1 0x0 KECCAK256 SWAP2 DUP3 ADD SWAP2 ADD JUMPDEST DUP2 DUP2 LT PUSH2 0x7E89 JUMPI POP PUSH2 0x792F JUMP JUMPDEST DUP1 PUSH2 0x7E95 PUSH1 0x1 SWAP3 PUSH2 0x707C JUMP JUMPDEST ADD PUSH2 0x7E7C JUMP JUMPDEST ADD MLOAD SWAP1 POP CODESIZE DUP1 PUSH2 0x78F6 JUMP JUMPDEST PUSH1 0x0 DUP6 DUP2 MSTORE PUSH1 0x20 DUP2 KECCAK256 SWAP4 POP PUSH1 0x1F NOT DUP6 AND SWAP1 JUMPDEST DUP2 DUP2 LT PUSH2 0x7EF4 JUMPI POP SWAP1 DUP5 PUSH1 0x1 SWAP6 SWAP5 SWAP4 SWAP3 LT PUSH2 0x7EDB JUMPI JUMPDEST POP POP POP DUP2 SHL ADD SWAP1 SSTORE PUSH2 0x790B JUMP JUMPDEST ADD MLOAD PUSH1 0x0 NOT PUSH1 0xF8 DUP5 PUSH1 0x3 SHL AND SHR NOT AND SWAP1 SSTORE CODESIZE DUP1 DUP1 PUSH2 0x7ECE JUMP JUMPDEST SWAP3 SWAP4 PUSH1 0x20 PUSH1 0x1 DUP2 SWAP3 DUP8 DUP7 ADD MLOAD DUP2 SSTORE ADD SWAP6 ADD SWAP4 ADD PUSH2 0x7EB8 JUMP JUMPDEST PUSH2 0x7F38 SWAP1 DUP6 PUSH1 0x0 MSTORE PUSH1 0x20 PUSH1 0x0 KECCAK256 PUSH1 0x1F DUP6 ADD PUSH1 0x5 SHR DUP2 ADD SWAP2 PUSH1 0x20 DUP7 LT PUSH2 0x13D2 JUMPI PUSH1 0x1F ADD PUSH1 0x5 SHR ADD SWAP1 PUSH2 0x6E01 JUMP JUMPDEST CODESIZE PUSH2 0x78DF JUMP JUMPDEST ADD MLOAD SWAP1 POP CODESIZE DUP1 PUSH2 0x7898 JUMP JUMPDEST PUSH1 0x0 DUP6 DUP2 MSTORE PUSH1 0x20 DUP2 KECCAK256 SWAP4 POP PUSH1 0x1F NOT DUP6 AND SWAP1 JUMPDEST DUP2 DUP2 LT PUSH2 0x7F97 JUMPI POP SWAP1 DUP5 PUSH1 0x1 SWAP6 SWAP5 SWAP4 SWAP3 LT PUSH2 0x7F7E JUMPI JUMPDEST POP POP POP DUP2 SHL ADD SWAP1 SSTORE PUSH2 0x78AD JUMP JUMPDEST ADD MLOAD PUSH1 0x0 NOT PUSH1 0xF8 DUP5 PUSH1 0x3 SHL AND SHR NOT AND SWAP1 SSTORE CODESIZE DUP1 DUP1 PUSH2 0x7F71 JUMP JUMPDEST SWAP3 SWAP4 PUSH1 0x20 PUSH1 0x1 DUP2 SWAP3 DUP8 DUP7 ADD MLOAD DUP2 SSTORE ADD SWAP6 ADD SWAP4 ADD PUSH2 0x7F5B JUMP JUMPDEST PUSH2 0x7FDB SWAP1 DUP6 PUSH1 0x0 MSTORE PUSH1 0x20 PUSH1 0x0 KECCAK256 PUSH1 0x1F DUP6 ADD PUSH1 0x5 SHR DUP2 ADD SWAP2 PUSH1 0x20 DUP7 LT PUSH2 0x13D2 JUMPI PUSH1 0x1F ADD PUSH1 0x5 SHR ADD SWAP1 PUSH2 0x6E01 JUMP JUMPDEST CODESIZE PUSH2 0x7881 JUMP JUMPDEST ADD MLOAD SWAP1 POP CODESIZE DUP1 PUSH2 0x783B JUMP JUMPDEST SWAP3 POP PUSH1 0xD DUP6 ADD PUSH1 0x0 MSTORE PUSH1 0x20 PUSH1 0x0 KECCAK256 SWAP1 PUSH1 0x0 SWAP4 JUMPDEST PUSH1 0x1F NOT DUP5 AND DUP6 LT PUSH2 0x8043 JUMPI PUSH1 0x1 SWAP5 POP DUP4 PUSH1 0x1F NOT DUP2 AND LT PUSH2 0x802A JUMPI JUMPDEST POP POP POP DUP2 SHL ADD PUSH1 0xD DUP4 ADD SSTORE PUSH2 0x7853 JUMP JUMPDEST ADD MLOAD PUSH1 0x0 NOT PUSH1 0xF8 DUP5 PUSH1 0x3 SHL AND SHR NOT AND SWAP1 SSTORE CODESIZE DUP1 DUP1 PUSH2 0x801A JUMP JUMPDEST DUP2 DUP2 ADD MLOAD DUP4 SSTORE PUSH1 0x20 SWAP5 DUP6 ADD SWAP5 PUSH1 0x1 SWAP1 SWAP4 ADD SWAP3 SWAP1 SWAP2 ADD SWAP1 PUSH2 0x7FFF JUMP JUMPDEST PUSH2 0x808D SWAP1 PUSH1 0xD DUP8 ADD PUSH1 0x0 MSTORE PUSH1 0x20 PUSH1 0x0 KECCAK256 PUSH1 0x1F DUP6 ADD PUSH1 0x5 SHR DUP2 ADD SWAP2 PUSH1 0x20 DUP7 LT PUSH2 0x13D2 JUMPI PUSH1 0x1F ADD PUSH1 0x5 SHR ADD SWAP1 PUSH2 0x6E01 JUMP JUMPDEST CODESIZE PUSH2 0x7824 JUMP JUMPDEST ADD MLOAD SWAP1 POP CODESIZE DUP1 PUSH2 0x77DE JUMP JUMPDEST SWAP3 POP PUSH1 0xC DUP6 ADD PUSH1 0x0 MSTORE PUSH1 0x20 PUSH1 0x0 KECCAK256 SWAP1 PUSH1 0x0 SWAP4 JUMPDEST PUSH1 0x1F NOT DUP5 AND DUP6 LT PUSH2 0x80F5 JUMPI PUSH1 0x1 SWAP5 POP DUP4 PUSH1 0x1F NOT DUP2 AND LT PUSH2 0x80DC JUMPI JUMPDEST POP POP POP DUP2 SHL ADD PUSH1 0xC DUP4 ADD SSTORE PUSH2 0x77F6 JUMP JUMPDEST ADD MLOAD PUSH1 0x0 NOT PUSH1 0xF8 DUP5 PUSH1 0x3 SHL AND SHR NOT AND SWAP1 SSTORE CODESIZE DUP1 DUP1 PUSH2 0x80CC JUMP JUMPDEST DUP2 DUP2 ADD MLOAD DUP4 SSTORE PUSH1 0x20 SWAP5 DUP6 ADD SWAP5 PUSH1 0x1 SWAP1 SWAP4 ADD SWAP3 SWAP1 SWAP2 ADD SWAP1 PUSH2 0x80B1 JUMP JUMPDEST PUSH2 0x813F SWAP1 PUSH1 0xC DUP8 ADD PUSH1 0x0 MSTORE PUSH1 0x20 PUSH1 0x0 KECCAK256 PUSH1 0x1F DUP6 ADD PUSH1 0x5 SHR DUP2 ADD SWAP2 PUSH1 0x20 DUP7 LT PUSH2 0x13D2 JUMPI PUSH1 0x1F ADD PUSH1 0x5 SHR ADD SWAP1 PUSH2 0x6E01 JUMP JUMPDEST CODESIZE PUSH2 0x77C7 JUMP JUMPDEST ADD MLOAD SWAP1 POP CODESIZE DUP1 PUSH2 0x7781 JUMP JUMPDEST SWAP3 POP PUSH1 0xB DUP6 ADD PUSH1 0x0 MSTORE PUSH1 0x20 PUSH1 0x0 KECCAK256 SWAP1 PUSH1 0x0 SWAP4 JUMPDEST PUSH1 0x1F NOT DUP5 AND DUP6 LT PUSH2 0x81A7 JUMPI PUSH1 0x1 SWAP5 POP DUP4 PUSH1 0x1F NOT DUP2 AND LT PUSH2 0x818E JUMPI JUMPDEST POP POP POP DUP2 SHL ADD PUSH1 0xB DUP4 ADD SSTORE PUSH2 0x7799 JUMP JUMPDEST ADD MLOAD PUSH1 0x0 NOT PUSH1 0xF8 DUP5 PUSH1 0x3 SHL AND SHR NOT AND SWAP1 SSTORE CODESIZE DUP1 DUP1 PUSH2 0x817E JUMP JUMPDEST DUP2 DUP2 ADD MLOAD DUP4 SSTORE PUSH1 0x20 SWAP5 DUP6 ADD SWAP5 PUSH1 0x1 SWAP1 SWAP4 ADD SWAP3 SWAP1 SWAP2 ADD SWAP1 PUSH2 0x8163 JUMP JUMPDEST PUSH2 0x81F1 SWAP1 PUSH1 0xB DUP8 ADD PUSH1 0x0 MSTORE PUSH1 0x20 PUSH1 0x0 KECCAK256 PUSH1 0x1F DUP6 ADD PUSH1 0x5 SHR DUP2 ADD SWAP2 PUSH1 0x20 DUP7 LT PUSH2 0x13D2 JUMPI PUSH1 0x1F ADD PUSH1 0x5 SHR ADD SWAP1 PUSH2 0x6E01 JUMP JUMPDEST CODESIZE PUSH2 0x776A JUMP JUMPDEST ADD MLOAD SWAP1 POP CODESIZE DUP1 PUSH2 0x7724 JUMP JUMPDEST SWAP3 POP PUSH1 0xA DUP6 ADD PUSH1 0x0 MSTORE PUSH1 0x20 PUSH1 0x0 KECCAK256 SWAP1 PUSH1 0x0 SWAP4 JUMPDEST PUSH1 0x1F NOT DUP5 AND DUP6 LT PUSH2 0x8259 JUMPI PUSH1 0x1 SWAP5 POP DUP4 PUSH1 0x1F NOT DUP2 AND LT PUSH2 0x8240 JUMPI JUMPDEST POP POP POP DUP2 SHL ADD PUSH1 0xA DUP4 ADD SSTORE PUSH2 0x773C JUMP JUMPDEST ADD MLOAD PUSH1 0x0 NOT PUSH1 0xF8 DUP5 PUSH1 0x3 SHL AND SHR NOT AND SWAP1 SSTORE CODESIZE DUP1 DUP1 PUSH2 0x8230 JUMP JUMPDEST DUP2 DUP2 ADD MLOAD DUP4 SSTORE PUSH1 0x20 SWAP5 DUP6 ADD SWAP5 PUSH1 0x1 SWAP1 SWAP4 ADD SWAP3 SWAP1 SWAP2 ADD SWAP1 PUSH2 0x8215 JUMP JUMPDEST PUSH2 0x82A3 SWAP1 PUSH1 0xA DUP8 ADD PUSH1 0x0 MSTORE PUSH1 0x20 PUSH1 0x0 KECCAK256 PUSH1 0x1F DUP6 ADD PUSH1 0x5 SHR DUP2 ADD SWAP2 PUSH1 0x20 DUP7 LT PUSH2 0x13D2 JUMPI PUSH1 0x1F ADD PUSH1 0x5 SHR ADD SWAP1 PUSH2 0x6E01 JUMP JUMPDEST CODESIZE PUSH2 0x770D JUMP JUMPDEST ADD MLOAD SWAP1 POP CODESIZE DUP1 PUSH2 0x76C7 JUMP JUMPDEST SWAP3 POP PUSH1 0x9 DUP6 ADD PUSH1 0x0 MSTORE PUSH1 0x20 PUSH1 0x0 KECCAK256 SWAP1 PUSH1 0x0 SWAP4 JUMPDEST PUSH1 0x1F NOT DUP5 AND DUP6 LT PUSH2 0x830B JUMPI PUSH1 0x1 SWAP5 POP DUP4 PUSH1 0x1F NOT DUP2 AND LT PUSH2 0x82F2 JUMPI JUMPDEST POP POP POP DUP2 SHL ADD PUSH1 0x9 DUP4 ADD SSTORE PUSH2 0x76DF JUMP JUMPDEST ADD MLOAD PUSH1 0x0 NOT PUSH1 0xF8 DUP5 PUSH1 0x3 SHL AND SHR NOT AND SWAP1 SSTORE CODESIZE DUP1 DUP1 PUSH2 0x82E2 JUMP JUMPDEST DUP2 DUP2 ADD MLOAD DUP4 SSTORE PUSH1 0x20 SWAP5 DUP6 ADD SWAP5 PUSH1 0x1 SWAP1 SWAP4 ADD SWAP3 SWAP1 SWAP2 ADD SWAP1 PUSH2 0x82C7 JUMP JUMPDEST PUSH2 0x8355 SWAP1 PUSH1 0x9 DUP8 ADD PUSH1 0x0 MSTORE PUSH1 0x20 PUSH1 0x0 KECCAK256 PUSH1 0x1F DUP6 ADD PUSH1 0x5 SHR DUP2 ADD SWAP2 PUSH1 0x20 DUP7 LT PUSH2 0x13D2 JUMPI PUSH1 0x1F ADD PUSH1 0x5 SHR ADD SWAP1 PUSH2 0x6E01 JUMP JUMPDEST CODESIZE PUSH2 0x76B0 JUMP JUMPDEST ADD MLOAD SWAP1 POP CODESIZE DUP1 PUSH2 0x766A JUMP JUMPDEST PUSH1 0x8 DUP7 ADD PUSH1 0x0 SWAP1 DUP2 MSTORE PUSH1 0x20 DUP2 KECCAK256 SWAP4 POP PUSH1 0x1F NOT DUP6 AND SWAP1 JUMPDEST DUP2 DUP2 LT PUSH2 0x83BB JUMPI POP SWAP1 DUP5 PUSH1 0x1 SWAP6 SWAP5 SWAP4 SWAP3 LT PUSH2 0x83A2 JUMPI JUMPDEST POP POP POP DUP2 SHL ADD PUSH1 0x8 DUP4 ADD SSTORE PUSH2 0x7682 JUMP JUMPDEST ADD MLOAD PUSH1 0x0 NOT PUSH1 0xF8 DUP5 PUSH1 0x3 SHL AND SHR NOT AND SWAP1 SSTORE CODESIZE DUP1 DUP1 PUSH2 0x8392 JUMP JUMPDEST SWAP3 SWAP4 PUSH1 0x20 PUSH1 0x1 DUP2 SWAP3 DUP8 DUP7 ADD MLOAD DUP2 SSTORE ADD SWAP6 ADD SWAP4 ADD PUSH2 0x837C JUMP JUMPDEST PUSH2 0x8402 SWAP1 PUSH1 0x8 DUP8 ADD PUSH1 0x0 MSTORE PUSH1 0x20 PUSH1 0x0 KECCAK256 PUSH1 0x1F DUP6 ADD PUSH1 0x5 SHR DUP2 ADD SWAP2 PUSH1 0x20 DUP7 LT PUSH2 0x13D2 JUMPI PUSH1 0x1F ADD PUSH1 0x5 SHR ADD SWAP1 PUSH2 0x6E01 JUMP JUMPDEST CODESIZE PUSH2 0x7653 JUMP JUMPDEST ADD MLOAD SWAP1 POP CODESIZE DUP1 PUSH2 0x7610 JUMP JUMPDEST PUSH1 0x0 DUP6 DUP2 MSTORE PUSH1 0x20 DUP2 KECCAK256 SWAP4 POP PUSH1 0x1F NOT DUP6 AND SWAP1 JUMPDEST DUP2 DUP2 LT PUSH2 0x8461 JUMPI POP SWAP1 DUP5 PUSH1 0x1 SWAP6 SWAP5 SWAP4 SWAP3 LT PUSH2 0x8448 JUMPI JUMPDEST POP POP POP DUP2 SHL ADD SWAP1 SSTORE PUSH2 0x7625 JUMP JUMPDEST ADD MLOAD PUSH1 0x0 NOT PUSH1 0xF8 DUP5 PUSH1 0x3 SHL AND SHR NOT AND SWAP1 SSTORE CODESIZE DUP1 DUP1 PUSH2 0x843B JUMP JUMPDEST SWAP3 SWAP4 PUSH1 0x20 PUSH1 0x1 DUP2 SWAP3 DUP8 DUP7 ADD MLOAD DUP2 SSTORE ADD SWAP6 ADD SWAP4 ADD PUSH2 0x8425 JUMP JUMPDEST PUSH2 0x84A5 SWAP1 DUP6 PUSH1 0x0 MSTORE PUSH1 0x20 PUSH1 0x0 KECCAK256 PUSH1 0x1F DUP6 ADD PUSH1 0x5 SHR DUP2 ADD SWAP2 PUSH1 0x20 DUP7 LT PUSH2 0x13D2 JUMPI PUSH1 0x1F ADD PUSH1 0x5 SHR ADD SWAP1 PUSH2 0x6E01 JUMP JUMPDEST CODESIZE PUSH2 0x75F9 JUMP JUMPDEST PUSH4 0x4E487B71 PUSH1 0xE0 SHL PUSH1 0x0 MSTORE PUSH1 0x0 PUSH1 0x4 MSTORE PUSH1 0x24 PUSH1 0x0 REVERT JUMPDEST ISZERO PUSH2 0x84C8 JUMPI JUMP JUMPDEST PUSH1 0x40 MLOAD PUSH3 0x461BCD PUSH1 0xE5 SHL DUP2 MSTORE PUSH1 0x20 PUSH1 0x4 DUP3 ADD MSTORE PUSH1 0x25 PUSH1 0x24 DUP3 ADD MSTORE PUSH32 0x4F6E6C792076657269666965642073656C6C6572206F72206F776E657220616C PUSH1 0x44 DUP3 ADD MSTORE PUSH5 0x1B1BDDD959 PUSH1 0xDA SHL PUSH1 0x64 DUP3 ADD MSTORE PUSH1 0x84 SWAP1 REVERT JUMPDEST PUSH1 0x0 DUP1 SLOAD SWAP1 SWAP4 SWAP3 SWAP2 SWAP1 PUSH1 0x1 PUSH1 0x1 PUSH1 0xA0 SHL SUB SWAP1 DUP2 AND CALLER EQ PUSH2 0x85FE JUMPI CALLER DUP6 MSTORE PUSH1 0x1E PUSH1 0x20 MSTORE PUSH1 0x40 DUP6 KECCAK256 SLOAD DUP2 AND SWAP1 DUP2 ISZERO PUSH2 0x85A8 JUMPI DUP2 DUP7 MSTORE PUSH1 0x12 PUSH1 0x20 MSTORE PUSH1 0xFF PUSH1 0x40 DUP8 KECCAK256 SLOAD AND PUSH1 0x4 DUP2 LT ISZERO PUSH2 0x8594 JUMPI SWAP2 PUSH2 0x70A1 SWAP6 SWAP7 SWAP2 PUSH1 0x2 PUSH2 0x8582 SWAP5 EQ SWAP3 DUP4 ISZERO PUSH2 0x8587 JUMPI JUMPDEST POP POP POP PUSH2 0x84C1 JUMP JUMPDEST PUSH2 0x8606 JUMP JUMPDEST SLOAD AND EQ SWAP1 POP CODESIZE DUP1 DUP1 PUSH2 0x857A JUMP JUMPDEST PUSH4 0x4E487B71 PUSH1 0xE0 SHL DUP8 MSTORE PUSH1 0x21 PUSH1 0x4 MSTORE PUSH1 0x24 DUP8 REVERT JUMPDEST SWAP1 POP PUSH1 0x12 PUSH1 0x20 MSTORE PUSH1 0xFF PUSH1 0x40 DUP7 KECCAK256 SLOAD AND PUSH1 0x4 DUP2 LT ISZERO PUSH2 0x85EA JUMPI SWAP5 PUSH2 0x8582 SWAP2 PUSH1 0x2 PUSH2 0x70A1 SWAP7 SWAP8 EQ SWAP2 DUP3 ISZERO PUSH2 0x85DC JUMPI JUMPDEST POP POP PUSH2 0x84C1 JUMP JUMPDEST SWAP1 SWAP2 POP SLOAD AND CALLER EQ CODESIZE DUP1 PUSH2 0x85D5 JUMP JUMPDEST PUSH4 0x4E487B71 PUSH1 0xE0 SHL DUP7 MSTORE PUSH1 0x21 PUSH1 0x4 MSTORE PUSH1 0x24 DUP7 REVERT JUMPDEST POP PUSH2 0x70A1 SWAP3 SWAP4 POP JUMPDEST SWAP1 PUSH1 0x0 SWAP2 DUP3 JUMPDEST PUSH1 0x1 DUP1 PUSH1 0xA0 SHL SUB DUP1 DUP5 AND DUP1 PUSH1 0x0 MSTORE PUSH1 0x1B PUSH1 0x20 DUP2 DUP2 MSTORE PUSH1 0x40 SWAP3 DUP4 PUSH1 0x0 KECCAK256 DUP1 SLOAD DUP8 LT ISZERO PUSH2 0x8899 JUMPI PUSH2 0x863C DUP8 DUP10 SWAP3 PUSH2 0x65E2 JUMP JUMPDEST POP SLOAD EQ PUSH2 0x8656 JUMPI POP POP POP POP POP PUSH2 0x8651 SWAP1 PUSH2 0x7391 JUMP JUMPDEST PUSH2 0x860C JUMP JUMPDEST DUP1 SWAP2 SWAP3 SWAP4 SWAP5 SWAP7 SWAP8 SWAP9 POP PUSH1 0x0 MSTORE DUP3 DUP3 MSTORE PUSH2 0x8672 DUP6 DUP6 PUSH1 0x0 KECCAK256 PUSH2 0x65E2 JUMP JUMPDEST POP SWAP6 PUSH1 0xFF PUSH1 0x6 DUP1 SWAP9 ADD SLOAD PUSH1 0xA0 SHR AND PUSH2 0x8859 JUMPI DUP2 PUSH1 0x0 MSTORE DUP4 DUP4 MSTORE DUP1 DUP8 PUSH2 0x869A DUP9 DUP9 PUSH1 0x0 KECCAK256 PUSH2 0x65E2 JUMP JUMPDEST POP ADD SLOAD AND CALLER EQ SWAP1 DUP2 ISZERO PUSH2 0x884B JUMPI JUMPDEST POP ISZERO PUSH2 0x87F4 JUMPI SWAP1 PUSH2 0x86C2 SWAP5 SWAP4 SWAP3 SWAP2 PUSH1 0x0 MSTORE MSTORE PUSH1 0x0 KECCAK256 PUSH2 0x65E2 JUMP JUMPDEST POP ADD DUP1 SLOAD PUSH1 0xFF PUSH1 0xA0 SHL NOT AND PUSH1 0x1 PUSH1 0xA0 SHL OR SWAP1 SSTORE PUSH1 0x1 JUMPDEST ISZERO PUSH2 0x87BA JUMPI DUP1 PUSH1 0x0 MSTORE PUSH1 0x20 SWAP1 PUSH1 0x15 DUP3 MSTORE PUSH1 0x1 DUP1 PUSH1 0xA0 SHL SUB SWAP2 PUSH1 0x1 SWAP4 PUSH1 0x40 SWAP4 DUP1 DUP7 DUP7 PUSH1 0x0 KECCAK256 ADD SLOAD AND SWAP2 DUP7 PUSH1 0x0 SWAP1 JUMPDEST PUSH2 0x8714 JUMPI JUMPDEST POP POP POP POP POP POP POP POP JUMP JUMPDEST DUP4 PUSH1 0x0 MSTORE PUSH1 0x1C DUP1 DUP7 MSTORE DUP8 PUSH1 0x0 KECCAK256 DUP1 SLOAD DUP4 LT ISZERO PUSH2 0x87B3 JUMPI PUSH2 0x8735 DUP4 DUP10 SWAP3 PUSH2 0x65E2 JUMP JUMPDEST POP SLOAD EQ DUP1 PUSH2 0x878E JUMPI JUMPDEST PUSH2 0x8752 JUMPI POP PUSH2 0x874C SWAP1 PUSH2 0x7391 JUMP JUMPDEST DUP8 PUSH2 0x8705 JUMP JUMPDEST SWAP4 SWAP2 POP SWAP5 POP PUSH1 0x6 SWAP7 POP PUSH2 0x876E SWAP6 SWAP4 SWAP2 POP PUSH1 0x0 MSTORE MSTORE PUSH1 0x0 KECCAK256 PUSH2 0x65E2 JUMP JUMPDEST POP ADD DUP1 SLOAD PUSH1 0xFF PUSH1 0xA0 SHL NOT AND PUSH1 0x1 PUSH1 0xA0 SHL OR SWAP1 SSTORE CODESIZE DUP1 DUP1 DUP1 DUP1 DUP1 DUP1 DUP1 PUSH2 0x870A JUMP JUMPDEST POP DUP5 PUSH1 0x0 MSTORE DUP1 DUP7 MSTORE DUP4 PUSH1 0x5 PUSH2 0x87A6 DUP5 DUP12 PUSH1 0x0 KECCAK256 PUSH2 0x65E2 JUMP JUMPDEST POP ADD SLOAD AND DUP5 DUP5 AND EQ PUSH2 0x873E JUMP JUMPDEST POP POP PUSH2 0x870A JUMP JUMPDEST PUSH1 0x40 MLOAD PUSH3 0x461BCD PUSH1 0xE5 SHL DUP2 MSTORE PUSH1 0x20 PUSH1 0x4 DUP3 ADD MSTORE PUSH1 0x12 PUSH1 0x24 DUP3 ADD MSTORE PUSH18 0x141D5C98DA185CD9481B9BDD08199BDD5B99 PUSH1 0x72 SHL PUSH1 0x44 DUP3 ADD MSTORE PUSH1 0x64 SWAP1 REVERT JUMPDEST DUP4 MLOAD PUSH3 0x461BCD PUSH1 0xE5 SHL DUP2 MSTORE PUSH1 0x4 DUP2 ADD DUP4 SWAP1 MSTORE PUSH1 0x2A PUSH1 0x24 DUP3 ADD MSTORE PUSH32 0x4F6E6C792073656C6C6572206F72206F776E65722063616E206D61726B206173 PUSH1 0x44 DUP3 ADD MSTORE PUSH10 0x819195B1A5D995C9959 PUSH1 0xB2 SHL PUSH1 0x64 DUP3 ADD MSTORE PUSH1 0x84 SWAP1 REVERT JUMPDEST PUSH1 0x0 SLOAD AND CALLER EQ SWAP1 POP CODESIZE PUSH2 0x86A8 JUMP JUMPDEST PUSH1 0x64 DUP4 DUP6 DUP8 MLOAD SWAP2 PUSH3 0x461BCD PUSH1 0xE5 SHL DUP4 MSTORE PUSH1 0x4 DUP4 ADD MSTORE PUSH1 0x24 DUP3 ADD MSTORE PUSH27 0x105B1C9958591E481B585C9AD95908185CC819195B1A5D995C9959 PUSH1 0x2A SHL PUSH1 0x44 DUP3 ADD MSTORE REVERT JUMPDEST POP POP POP POP POP POP POP SWAP1 SWAP2 PUSH2 0x86D8 JUMP JUMPDEST PUSH1 0x0 SWAP2 DUP3 SWAP2 DUP3 SWAP2 DUP3 SWAP2 PUSH1 0x1 PUSH1 0x1 PUSH1 0xA0 SHL SUB AND PUSH2 0x88C4 DUP2 ISZERO ISZERO PUSH2 0x6D80 JUMP JUMPDEST GAS CALL PUSH2 0x88CE PUSH2 0x6C51 JUMP JUMPDEST POP ISZERO PUSH2 0x88D6 JUMPI JUMP JUMPDEST PUSH1 0x40 MLOAD PUSH3 0x461BCD PUSH1 0xE5 SHL DUP2 MSTORE PUSH1 0x20 PUSH1 0x4 DUP3 ADD MSTORE PUSH1 0xF PUSH1 0x24 DUP3 ADD MSTORE PUSH15 0x151C985B9CD9995C8819985A5B1959 PUSH1 0x8A SHL PUSH1 0x44 DUP3 ADD MSTORE PUSH1 0x64 SWAP1 REVERT JUMPDEST PUSH1 0x0 SWAP1 PUSH1 0xE DUP1 SLOAD SWAP3 JUMPDEST DUP4 DUP2 LT PUSH2 0x8926 JUMPI POP POP POP POP PUSH1 0x0 SWAP1 JUMP JUMPDEST PUSH1 0x0 DUP3 DUP2 MSTORE PUSH1 0x20 SWAP1 KECCAK256 DUP2 ADD SLOAD PUSH1 0x1 PUSH1 0x1 PUSH1 0xA0 SHL SUB DUP5 DUP2 AND SWAP2 AND EQ PUSH2 0x8952 JUMPI PUSH2 0x894D SWAP1 PUSH2 0x7391 JUMP JUMPDEST PUSH2 0x8916 JUMP JUMPDEST POP POP POP POP PUSH1 0x1 SWAP1 JUMP INVALID DUP12 0xE0 SMOD SWAP13 MSTORE8 AND MSIZE EQ SGT DIFFICULTY 0xCD 0x1F 0xD0 LOG4 CALLCODE DUP5 NOT 0x49 PUSH32 0x9722A3DAAFE3B4186F6B6457E0DDF252AD1BE2C89B69C2B068FC378DAA952BA7 CALL PUSH4 0xC4A11628 CREATE2 GAS 0x4D CREATE2 0x23 0xB3 0xEF DUP14 GT ADDMOD 0xE1 SIGNEXTEND 0xCB PUSH29 0x27DDDFC02ED9D693A074039D026CF4EA4240B40F7D581AC802A164736F PUSH13 0x6343000813000A000000000000 "},"methodIdentifiers":{"adminImpersonating(address)":"b95a0628","approve(address,uint256)":"095ea7b3","balanceOf(address)":"70a08231","buyProduct(uint256,(string,string,string,string,string,string,string,string),string,string,uint256)":"2053fba6","buyerPurchaseHistory(address,uint256)":"9fa44dbf","changeServicePct(uint256)":"5be20959","createCategory(string)":"dc298682","createProduct((string,string,uint256,uint256,string[],string[],string[],uint256,uint256,uint256,string,string,uint256))":"e40971e5","createReview(uint256,uint256,string)":"16d81b38","createSubCategoriesBulk(uint256,string[])":"d2bc9d78","createSubCategory(uint256,string)":"7d3978db","getAllCategories()":"dadd0a57","getAllProducts()":"02ee3a52","getAllRegisteredSellers()":"5ad6a580","getApproved(uint256)":"081812fc","getBuyerPurchaseHistory(address)":"b27e1697","getCategory(uint256)":"f3052d26","getMyProducts()":"fdca4ca3","getProduct(uint256)":"b9db15b4","getProductsByCategory(string)":"8f38cc7b","getReviews(uint256)":"9d4a2255","getSeller(address)":"a323d29e","getSellerBalance(address)":"2148893f","getSellerProducts(address)":"e6a93e16","getSellerProfile(address)":"4293e5ce","getSellerPurchaseHistory(address)":"3c2575d5","getSellerStatus(address)":"eb11c434","getSubCategory(uint256)":"6f2c8599","getUser(address)":"6f77926b","impersonateAccount(address)":"a22fb387","isApprovedForAll(address,address)":"e985e9c5","markPurchaseDelivered(uint256,address)":"11aa5b34","name()":"06fdde03","owner()":"8da5cb5b","ownerOf(uint256)":"6352211e","productExists(uint256)":"af55ed64","products(uint256)":"7acc0b20","registerSeller(string,string,string,string,string)":"7e8555ed","registerUser(string,string,string)":"d637dcfa","registeredSellers(address)":"c64b8a8f","registeredUsers(address)":"0e50cee5","renounceOwnership()":"715018a6","reviewExists(uint256)":"00d64e76","safeTransferFrom(address,address,uint256)":"42842e0e","safeTransferFrom(address,address,uint256,bytes)":"b88d4fde","sellerBalances(address)":"607eb4e4","sellerProducts(address,uint256)":"c1302b34","sellerProfiles(address)":"9196dfcb","sellerPurchaseHistory(address,uint256)":"e585cb2c","sellerStatus(address)":"45de84db","servicePct()":"e01ef6e6","setApprovalForAll(address,bool)":"a22cb465","stopImpersonating()":"1385fd92","supportsInterface(bytes4)":"01ffc9a7","symbol()":"95d89b41","tokenURI(uint256)":"c87b56dd","transferFrom(address,address,uint256)":"23b872dd","transferOwnership(address)":"f2fde38b","updateSellerStatus(address,uint8)":"97b6f393","userProfiles(address)":"332d56d7","usersList(uint256)":"502aa3b5","withdraw()":"3ccfd60b"}}}}}