{"contracts/HemShop.sol":{"HemShop":{"abi":[{"inputs":[{"internalType":"uint256","name":"_pct","type":"uint256"}],"stateMutability":"nonpayable","type":"constructor"},{"anonymous":false,"inputs":[{"indexed":false,"internalType":"address","name":"admin","type":"address"},{"indexed":false,"internalType":"address","name":"impersonatedAccount","type":"address"}],"name":"AdminImpersonationChanged","type":"event"},{"anonymous":false,"inputs":[{"indexed":true,"internalType":"address","name":"owner","type":"address"},{"indexed":true,"internalType":"address","name":"approved","type":"address"},{"indexed":true,"internalType":"uint256","name":"tokenId","type":"uint256"}],"name":"Approval","type":"event"},{"anonymous":false,"inputs":[{"indexed":true,"internalType":"address","name":"owner","type":"address"},{"indexed":true,"internalType":"address","name":"operator","type":"address"},{"indexed":false,"internalType":"bool","name":"approved","type":"bool"}],"name":"ApprovalForAll","type":"event"},{"anonymous":false,"inputs":[{"indexed":true,"internalType":"address","name":"seller","type":"address"},{"indexed":false,"internalType":"uint256","name":"newBalance","type":"uint256"}],"name":"BalanceUpdated","type":"event"},{"anonymous":false,"inputs":[{"indexed":true,"internalType":"uint256","name":"productId","type":"uint256"},{"indexed":true,"internalType":"address","name":"buyer","type":"address"},{"indexed":false,"internalType":"bool","name":"isDelivered","type":"bool"}],"name":"DeliveryStatusUpdated","type":"event"},{"anonymous":false,"inputs":[{"indexed":true,"internalType":"address","name":"previousOwner","type":"address"},{"indexed":true,"internalType":"address","name":"newOwner","type":"address"}],"name":"OwnershipTransferred","type":"event"},{"anonymous":false,"inputs":[{"indexed":true,"internalType":"uint256","name":"productId","type":"uint256"},{"indexed":true,"internalType":"address","name":"buyer","type":"address"},{"indexed":true,"internalType":"address","name":"seller","type":"address"},{"indexed":false,"internalType":"uint256","name":"price","type":"uint256"},{"indexed":false,"internalType":"uint256","name":"timestamp","type":"uint256"}],"name":"ProductPurchased","type":"event"},{"anonymous":false,"inputs":[{"indexed":true,"internalType":"uint256","name":"productId","type":"uint256"},{"indexed":true,"internalType":"address","name":"buyer","type":"address"},{"indexed":true,"internalType":"address","name":"seller","type":"address"},{"indexed":false,"internalType":"uint256","name":"totalAmount","type":"uint256"},{"indexed":false,"internalType":"uint256","name":"basePrice","type":"uint256"},{"indexed":false,"internalType":"uint256","name":"timestamp","type":"uint256"}],"name":"PurchaseRecorded","type":"event"},{"anonymous":false,"inputs":[{"indexed":true,"internalType":"address","name":"seller","type":"address"},{"indexed":false,"internalType":"uint256","name":"timestamp","type":"uint256"}],"name":"SellerRegistered","type":"event"},{"anonymous":false,"inputs":[{"indexed":true,"internalType":"address","name":"seller","type":"address"},{"indexed":false,"internalType":"enum HemShopBase.SellerStatus","name":"status","type":"uint8"}],"name":"SellerStatusUpdated","type":"event"},{"anonymous":false,"inputs":[{"indexed":true,"internalType":"address","name":"from","type":"address"},{"indexed":true,"internalType":"address","name":"to","type":"address"},{"indexed":true,"internalType":"uint256","name":"tokenId","type":"uint256"}],"name":"Transfer","type":"event"},{"inputs":[{"internalType":"address","name":"","type":"address"}],"name":"adminImpersonating","outputs":[{"internalType":"address","name":"","type":"address"}],"stateMutability":"view","type":"function"},{"inputs":[{"internalType":"address","name":"to","type":"address"},{"internalType":"uint256","name":"tokenId","type":"uint256"}],"name":"approve","outputs":[],"stateMutability":"nonpayable","type":"function"},{"inputs":[{"internalType":"address","name":"owner","type":"address"}],"name":"balanceOf","outputs":[{"internalType":"uint256","name":"","type":"uint256"}],"stateMutability":"view","type":"function"},{"inputs":[{"internalType":"uint256","name":"productId","type":"uint256"},{"components":[{"internalType":"string","name":"fullName","type":"string"},{"internalType":"string","name":"streetAddress","type":"string"},{"internalType":"string","name":"city","type":"string"},{"internalType":"string","name":"state","type":"string"},{"internalType":"string","name":"country","type":"string"},{"internalType":"string","name":"postalCode","type":"string"},{"internalType":"string","name":"phone","type":"string"},{"internalType":"string","name":"email","type":"string"}],"internalType":"struct HemShop.ShippingDetails","name":"shippingDetails","type":"tuple"}],"name":"buyProduct","outputs":[],"stateMutability":"payable","type":"function"},{"inputs":[{"internalType":"address","name":"","type":"address"},{"internalType":"uint256","name":"","type":"uint256"}],"name":"buyerPurchaseHistory","outputs":[{"internalType":"uint256","name":"productId","type":"uint256"},{"internalType":"uint256","name":"totalAmount","type":"uint256"},{"internalType":"uint256","name":"basePrice","type":"uint256"},{"internalType":"uint256","name":"timestamp","type":"uint256"},{"internalType":"address","name":"buyer","type":"address"},{"internalType":"address","name":"seller","type":"address"},{"internalType":"bool","name":"isDelivered","type":"bool"},{"components":[{"internalType":"string","name":"fullName","type":"string"},{"internalType":"string","name":"streetAddress","type":"string"},{"internalType":"string","name":"city","type":"string"},{"internalType":"string","name":"state","type":"string"},{"internalType":"string","name":"country","type":"string"},{"internalType":"string","name":"postalCode","type":"string"},{"internalType":"string","name":"phone","type":"string"},{"internalType":"string","name":"email","type":"string"}],"internalType":"struct HemShop.ShippingDetails","name":"shippingDetails","type":"tuple"}],"stateMutability":"view","type":"function"},{"inputs":[{"components":[{"internalType":"string","name":"name","type":"string"},{"internalType":"string","name":"description","type":"string"},{"internalType":"uint256","name":"price","type":"uint256"},{"internalType":"uint256","name":"stock","type":"uint256"},{"internalType":"string","name":"color","type":"string"},{"internalType":"string","name":"size","type":"string"},{"internalType":"string[]","name":"images","type":"string[]"},{"internalType":"string","name":"category","type":"string"},{"internalType":"string","name":"subCategory","type":"string"},{"internalType":"string","name":"model","type":"string"},{"internalType":"string","name":"brand","type":"string"},{"internalType":"uint256","name":"weight","type":"uint256"},{"internalType":"uint256","name":"sku","type":"uint256"}],"internalType":"struct HemShopProduct.ProductInput","name":"input","type":"tuple"}],"name":"createProduct","outputs":[],"stateMutability":"nonpayable","type":"function"},{"inputs":[{"internalType":"uint256","name":"productId","type":"uint256"},{"internalType":"uint256","name":"rating","type":"uint256"},{"internalType":"string","name":"comment","type":"string"}],"name":"createReview","outputs":[],"stateMutability":"nonpayable","type":"function"},{"inputs":[{"internalType":"uint256","name":"productId","type":"uint256"}],"name":"deleteProduct","outputs":[],"stateMutability":"nonpayable","type":"function"},{"inputs":[{"internalType":"uint256","name":"productId","type":"uint256"},{"internalType":"uint256","name":"reviewId","type":"uint256"}],"name":"deleteReview","outputs":[],"stateMutability":"nonpayable","type":"function"},{"inputs":[],"name":"getAllProducts","outputs":[{"components":[{"internalType":"uint256","name":"id","type":"uint256"},{"internalType":"address","name":"seller","type":"address"},{"internalType":"string","name":"name","type":"string"},{"internalType":"string","name":"description","type":"string"},{"internalType":"uint256","name":"price","type":"uint256"},{"internalType":"uint256","name":"stock","type":"uint256"},{"internalType":"string","name":"color","type":"string"},{"internalType":"string","name":"size","type":"string"},{"internalType":"string[]","name":"images","type":"string[]"},{"internalType":"string","name":"category","type":"string"},{"internalType":"string","name":"subCategory","type":"string"},{"internalType":"uint256","name":"weight","type":"uint256"},{"internalType":"string","name":"model","type":"string"},{"internalType":"string","name":"brand","type":"string"},{"internalType":"uint256","name":"sku","type":"uint256"},{"internalType":"bool","name":"soldout","type":"bool"},{"internalType":"bool","name":"wishlist","type":"bool"},{"internalType":"bool","name":"deleted","type":"bool"},{"components":[{"internalType":"uint256","name":"reviewId","type":"uint256"},{"internalType":"address","name":"reviewer","type":"address"},{"internalType":"uint256","name":"rating","type":"uint256"},{"internalType":"string","name":"comment","type":"string"},{"internalType":"bool","name":"deleted","type":"bool"}],"internalType":"struct HemShopBase.ReviewStruct[]","name":"reviews","type":"tuple[]"}],"internalType":"struct HemShopProduct.ProductStruct[]","name":"","type":"tuple[]"}],"stateMutability":"view","type":"function"},{"inputs":[{"internalType":"uint256","name":"tokenId","type":"uint256"}],"name":"getApproved","outputs":[{"internalType":"address","name":"","type":"address"}],"stateMutability":"view","type":"function"},{"inputs":[{"internalType":"address","name":"buyer","type":"address"}],"name":"getBuyerPurchaseHistory","outputs":[{"components":[{"internalType":"uint256","name":"productId","type":"uint256"},{"internalType":"uint256","name":"totalAmount","type":"uint256"},{"internalType":"uint256","name":"basePrice","type":"uint256"},{"internalType":"uint256","name":"timestamp","type":"uint256"},{"internalType":"address","name":"buyer","type":"address"},{"internalType":"address","name":"seller","type":"address"},{"internalType":"bool","name":"isDelivered","type":"bool"},{"components":[{"internalType":"string","name":"fullName","type":"string"},{"internalType":"string","name":"streetAddress","type":"string"},{"internalType":"string","name":"city","type":"string"},{"internalType":"string","name":"state","type":"string"},{"internalType":"string","name":"country","type":"string"},{"internalType":"string","name":"postalCode","type":"string"},{"internalType":"string","name":"phone","type":"string"},{"internalType":"string","name":"email","type":"string"}],"internalType":"struct HemShop.ShippingDetails","name":"shippingDetails","type":"tuple"}],"internalType":"struct HemShop.PurchaseHistoryStruct[]","name":"","type":"tuple[]"}],"stateMutability":"view","type":"function"},{"inputs":[],"name":"getMyProducts","outputs":[{"components":[{"internalType":"uint256","name":"id","type":"uint256"},{"internalType":"address","name":"seller","type":"address"},{"internalType":"string","name":"name","type":"string"},{"internalType":"string","name":"description","type":"string"},{"internalType":"uint256","name":"price","type":"uint256"},{"internalType":"uint256","name":"stock","type":"uint256"},{"internalType":"string","name":"color","type":"string"},{"internalType":"string","name":"size","type":"string"},{"internalType":"string[]","name":"images","type":"string[]"},{"internalType":"string","name":"category","type":"string"},{"internalType":"string","name":"subCategory","type":"string"},{"internalType":"uint256","name":"weight","type":"uint256"},{"internalType":"string","name":"model","type":"string"},{"internalType":"string","name":"brand","type":"string"},{"internalType":"uint256","name":"sku","type":"uint256"},{"internalType":"bool","name":"soldout","type":"bool"},{"internalType":"bool","name":"wishlist","type":"bool"},{"internalType":"bool","name":"deleted","type":"bool"},{"components":[{"internalType":"uint256","name":"reviewId","type":"uint256"},{"internalType":"address","name":"reviewer","type":"address"},{"internalType":"uint256","name":"rating","type":"uint256"},{"internalType":"string","name":"comment","type":"string"},{"internalType":"bool","name":"deleted","type":"bool"}],"internalType":"struct HemShopBase.ReviewStruct[]","name":"reviews","type":"tuple[]"}],"internalType":"struct HemShopProduct.ProductStruct[]","name":"","type":"tuple[]"}],"stateMutability":"view","type":"function"},{"inputs":[{"internalType":"uint256","name":"productId","type":"uint256"}],"name":"getProduct","outputs":[{"components":[{"internalType":"uint256","name":"id","type":"uint256"},{"internalType":"address","name":"seller","type":"address"},{"internalType":"string","name":"name","type":"string"},{"internalType":"string","name":"description","type":"string"},{"internalType":"uint256","name":"price","type":"uint256"},{"internalType":"uint256","name":"stock","type":"uint256"},{"internalType":"string","name":"color","type":"string"},{"internalType":"string","name":"size","type":"string"},{"internalType":"string[]","name":"images","type":"string[]"},{"internalType":"string","name":"category","type":"string"},{"internalType":"string","name":"subCategory","type":"string"},{"internalType":"uint256","name":"weight","type":"uint256"},{"internalType":"string","name":"model","type":"string"},{"internalType":"string","name":"brand","type":"string"},{"internalType":"uint256","name":"sku","type":"uint256"},{"internalType":"bool","name":"soldout","type":"bool"},{"internalType":"bool","name":"wishlist","type":"bool"},{"internalType":"bool","name":"deleted","type":"bool"},{"components":[{"internalType":"uint256","name":"reviewId","type":"uint256"},{"internalType":"address","name":"reviewer","type":"address"},{"internalType":"uint256","name":"rating","type":"uint256"},{"internalType":"string","name":"comment","type":"string"},{"internalType":"bool","name":"deleted","type":"bool"}],"internalType":"struct HemShopBase.ReviewStruct[]","name":"reviews","type":"tuple[]"}],"internalType":"struct HemShopProduct.ProductStruct","name":"","type":"tuple"}],"stateMutability":"view","type":"function"},{"inputs":[{"internalType":"uint256","name":"productId","type":"uint256"}],"name":"getReviews","outputs":[{"components":[{"internalType":"uint256","name":"reviewId","type":"uint256"},{"internalType":"address","name":"reviewer","type":"address"},{"internalType":"uint256","name":"rating","type":"uint256"},{"internalType":"string","name":"comment","type":"string"},{"internalType":"bool","name":"deleted","type":"bool"}],"internalType":"struct HemShopBase.ReviewStruct[]","name":"","type":"tuple[]"}],"stateMutability":"view","type":"function"},{"inputs":[{"internalType":"address","name":"seller","type":"address"}],"name":"getSellerBalance","outputs":[{"internalType":"uint256","name":"","type":"uint256"}],"stateMutability":"view","type":"function"},{"inputs":[{"internalType":"address","name":"seller","type":"address"}],"name":"getSellerPurchaseHistory","outputs":[{"components":[{"internalType":"uint256","name":"productId","type":"uint256"},{"internalType":"uint256","name":"totalAmount","type":"uint256"},{"internalType":"uint256","name":"basePrice","type":"uint256"},{"internalType":"uint256","name":"timestamp","type":"uint256"},{"internalType":"address","name":"buyer","type":"address"},{"internalType":"address","name":"seller","type":"address"},{"internalType":"bool","name":"isDelivered","type":"bool"},{"components":[{"internalType":"string","name":"fullName","type":"string"},{"internalType":"string","name":"streetAddress","type":"string"},{"internalType":"string","name":"city","type":"string"},{"internalType":"string","name":"state","type":"string"},{"internalType":"string","name":"country","type":"string"},{"internalType":"string","name":"postalCode","type":"string"},{"internalType":"string","name":"phone","type":"string"},{"internalType":"string","name":"email","type":"string"}],"internalType":"struct HemShop.ShippingDetails","name":"shippingDetails","type":"tuple"}],"internalType":"struct HemShop.PurchaseHistoryStruct[]","name":"","type":"tuple[]"}],"stateMutability":"view","type":"function"},{"inputs":[{"internalType":"address","name":"account","type":"address"}],"name":"impersonateAccount","outputs":[],"stateMutability":"nonpayable","type":"function"},{"inputs":[{"internalType":"address","name":"owner","type":"address"},{"internalType":"address","name":"operator","type":"address"}],"name":"isApprovedForAll","outputs":[{"internalType":"bool","name":"","type":"bool"}],"stateMutability":"view","type":"function"},{"inputs":[{"internalType":"uint256","name":"productId","type":"uint256"},{"internalType":"address","name":"buyer","type":"address"}],"name":"markPurchaseDelivered","outputs":[],"stateMutability":"nonpayable","type":"function"},{"inputs":[],"name":"name","outputs":[{"internalType":"string","name":"","type":"string"}],"stateMutability":"view","type":"function"},{"inputs":[],"name":"owner","outputs":[{"internalType":"address","name":"","type":"address"}],"stateMutability":"view","type":"function"},{"inputs":[{"internalType":"uint256","name":"tokenId","type":"uint256"}],"name":"ownerOf","outputs":[{"internalType":"address","name":"","type":"address"}],"stateMutability":"view","type":"function"},{"inputs":[{"internalType":"uint256","name":"","type":"uint256"}],"name":"productExists","outputs":[{"internalType":"bool","name":"","type":"bool"}],"stateMutability":"view","type":"function"},{"inputs":[{"internalType":"uint256","name":"","type":"uint256"}],"name":"products","outputs":[{"internalType":"uint256","name":"id","type":"uint256"},{"internalType":"address","name":"seller","type":"address"},{"internalType":"string","name":"name","type":"string"},{"internalType":"string","name":"description","type":"string"},{"internalType":"uint256","name":"price","type":"uint256"},{"internalType":"uint256","name":"stock","type":"uint256"},{"internalType":"string","name":"color","type":"string"},{"internalType":"string","name":"size","type":"string"},{"internalType":"string","name":"category","type":"string"},{"internalType":"string","name":"subCategory","type":"string"},{"internalType":"uint256","name":"weight","type":"uint256"},{"internalType":"string","name":"model","type":"string"},{"internalType":"string","name":"brand","type":"string"},{"internalType":"uint256","name":"sku","type":"uint256"},{"internalType":"bool","name":"soldout","type":"bool"},{"internalType":"bool","name":"wishlist","type":"bool"},{"internalType":"bool","name":"deleted","type":"bool"}],"stateMutability":"view","type":"function"},{"inputs":[],"name":"registerSeller","outputs":[],"stateMutability":"nonpayable","type":"function"},{"inputs":[{"internalType":"address","name":"","type":"address"}],"name":"registeredSellers","outputs":[{"internalType":"bool","name":"","type":"bool"}],"stateMutability":"view","type":"function"},{"inputs":[],"name":"renounceOwnership","outputs":[],"stateMutability":"nonpayable","type":"function"},{"inputs":[{"internalType":"uint256","name":"","type":"uint256"}],"name":"reviewExists","outputs":[{"internalType":"bool","name":"","type":"bool"}],"stateMutability":"view","type":"function"},{"inputs":[{"internalType":"address","name":"from","type":"address"},{"internalType":"address","name":"to","type":"address"},{"internalType":"uint256","name":"tokenId","type":"uint256"}],"name":"safeTransferFrom","outputs":[],"stateMutability":"nonpayable","type":"function"},{"inputs":[{"internalType":"address","name":"from","type":"address"},{"internalType":"address","name":"to","type":"address"},{"internalType":"uint256","name":"tokenId","type":"uint256"},{"internalType":"bytes","name":"data","type":"bytes"}],"name":"safeTransferFrom","outputs":[],"stateMutability":"nonpayable","type":"function"},{"inputs":[{"internalType":"address","name":"","type":"address"}],"name":"sellerBalances","outputs":[{"internalType":"uint256","name":"","type":"uint256"}],"stateMutability":"view","type":"function"},{"inputs":[{"internalType":"address","name":"","type":"address"},{"internalType":"uint256","name":"","type":"uint256"}],"name":"sellerProducts","outputs":[{"internalType":"uint256","name":"","type":"uint256"}],"stateMutability":"view","type":"function"},{"inputs":[{"internalType":"address","name":"","type":"address"},{"internalType":"uint256","name":"","type":"uint256"}],"name":"sellerPurchaseHistory","outputs":[{"internalType":"uint256","name":"productId","type":"uint256"},{"internalType":"uint256","name":"totalAmount","type":"uint256"},{"internalType":"uint256","name":"basePrice","type":"uint256"},{"internalType":"uint256","name":"timestamp","type":"uint256"},{"internalType":"address","name":"buyer","type":"address"},{"internalType":"address","name":"seller","type":"address"},{"internalType":"bool","name":"isDelivered","type":"bool"},{"components":[{"internalType":"string","name":"fullName","type":"string"},{"internalType":"string","name":"streetAddress","type":"string"},{"internalType":"string","name":"city","type":"string"},{"internalType":"string","name":"state","type":"string"},{"internalType":"string","name":"country","type":"string"},{"internalType":"string","name":"postalCode","type":"string"},{"internalType":"string","name":"phone","type":"string"},{"internalType":"string","name":"email","type":"string"}],"internalType":"struct HemShop.ShippingDetails","name":"shippingDetails","type":"tuple"}],"stateMutability":"view","type":"function"},{"inputs":[{"internalType":"address","name":"","type":"address"}],"name":"sellerStatus","outputs":[{"internalType":"enum HemShopBase.SellerStatus","name":"","type":"uint8"}],"stateMutability":"view","type":"function"},{"inputs":[],"name":"servicePct","outputs":[{"internalType":"uint256","name":"","type":"uint256"}],"stateMutability":"view","type":"function"},{"inputs":[{"internalType":"address","name":"operator","type":"address"},{"internalType":"bool","name":"approved","type":"bool"}],"name":"setApprovalForAll","outputs":[],"stateMutability":"nonpayable","type":"function"},{"inputs":[],"name":"stopImpersonating","outputs":[],"stateMutability":"nonpayable","type":"function"},{"inputs":[{"internalType":"bytes4","name":"interfaceId","type":"bytes4"}],"name":"supportsInterface","outputs":[{"internalType":"bool","name":"","type":"bool"}],"stateMutability":"view","type":"function"},{"inputs":[],"name":"symbol","outputs":[{"internalType":"string","name":"","type":"string"}],"stateMutability":"view","type":"function"},{"inputs":[{"internalType":"uint256","name":"tokenId","type":"uint256"}],"name":"tokenURI","outputs":[{"internalType":"string","name":"","type":"string"}],"stateMutability":"view","type":"function"},{"inputs":[{"internalType":"address","name":"from","type":"address"},{"internalType":"address","name":"to","type":"address"},{"internalType":"uint256","name":"tokenId","type":"uint256"}],"name":"transferFrom","outputs":[],"stateMutability":"nonpayable","type":"function"},{"inputs":[{"internalType":"address","name":"newOwner","type":"address"}],"name":"transferOwnership","outputs":[],"stateMutability":"nonpayable","type":"function"},{"inputs":[{"internalType":"uint256","name":"productId","type":"uint256"},{"components":[{"internalType":"string","name":"name","type":"string"},{"internalType":"string","name":"description","type":"string"},{"internalType":"uint256","name":"price","type":"uint256"},{"internalType":"uint256","name":"stock","type":"uint256"},{"internalType":"string","name":"color","type":"string"},{"internalType":"string","name":"size","type":"string"},{"internalType":"string[]","name":"images","type":"string[]"},{"internalType":"string","name":"category","type":"string"},{"internalType":"string","name":"subCategory","type":"string"},{"internalType":"string","name":"model","type":"string"},{"internalType":"string","name":"brand","type":"string"},{"internalType":"uint256","name":"weight","type":"uint256"},{"internalType":"uint256","name":"sku","type":"uint256"}],"internalType":"struct HemShopProduct.ProductInput","name":"input","type":"tuple"}],"name":"updateProduct","outputs":[],"stateMutability":"nonpayable","type":"function"},{"inputs":[{"internalType":"address","name":"seller","type":"address"},{"internalType":"enum HemShopBase.SellerStatus","name":"status","type":"uint8"}],"name":"updateSellerStatus","outputs":[],"stateMutability":"nonpayable","type":"function"},{"inputs":[],"name":"withdraw","outputs":[],"stateMutability":"nonpayable","type":"function"}],"evm":{"bytecode":{"linkReferences":{},"object":"6080346200037757601f90601f196001600160401b0362006cc73881900385810184168501838111868210176200037c57859282916040528339602094859181010312620003775751936200005362000392565b926007845266048656d53686f760cc1b858501526200007162000392565b60038082526204873760ec1b8783015260008054336001600160a01b031982168117835592989394919392906001600160a01b03167f8be0079c531659141344cd1fd0a4f28419497f9722a3daafe3b4186f6b6457e08580a360019687805580519087821162000363576002548981811c9116801562000358575b858210146200034457908188849311620002f0575b5084908883116001146200028e57869262000282575b5050600019828b1b1c191690881b176002555b83519586116200026e5787548781811c9116801562000263575b838210146200024f5785811162000207575b5081948611600114620001a25750509183949184939462000196575b50501b9160001990841b1c19161790555b600b556040516169149081620003b38239f35b01519250388062000172565b8783528183209493928692918316915b88838310620001ec5750505010620001d3575b505050811b01905562000183565b015160001983861b60f8161c19169055388080620001c5565b858701518855909601959485019487935090810190620001b2565b8884528284208680890160051c820192858a1062000245575b0160051c019088905b8281106200023957505062000156565b85815501889062000229565b9250819262000220565b634e487b7160e01b84526022600452602484fd5b90607f169062000144565b634e487b7160e01b83526041600452602483fd5b01519050388062000117565b90848b9416916002885286882092885b88828210620002d95750508411620002c0575b505050811b016002556200012a565b0151600019838d1b60f8161c19169055388080620002b1565b8385015186558e979095019493840193016200029e565b909150600286528486208880850160051c8201928786106200033a575b918c91869594930160051c01915b8281106200032b57505062000101565b8881558594508c91016200031b565b925081926200030d565b634e487b7160e01b86526022600452602486fd5b90607f1690620000ec565b634e487b7160e01b85526041600452602485fd5b600080fd5b634e487b7160e01b600052604160045260246000fd5b60408051919082016001600160401b038111838210176200037c5760405256fe608080604052600436101561001357600080fd5b60003560e01c908162d64e7614614b285750806301ffc9a714614aba57806302ee3a521461482357806306fdde031461477d578063081812fc1461475f578063095ea7b3146145e557806311aa5b34146142595780631385fd92146141f057806316d81b381461400d5780632148893f146139f157806323b872dd14613fe457806324d41a0314613dbf5780633c2575d514613cda5780633ccfd60b14613b5257806342842e0e14613b2a57806345de84db14613ae857806352c9224c14613a2b578063607eb4e4146139f15780636352211e146139c1578063661e17121461316357806370a08231146130cc578063715018a6146130735780637acc0b2014612edb5780638da5cb5b14612eb257806395d89b4114612dd057806397b6f39314612bd45780639d4a225514612a415780639fa44dbf146129f9578063a22cb4651461291e578063a22fb38714612858578063af55ed6414612827578063b119105214611cac578063b235b4a914610d6b578063b27e169714610c86578063b88d4fde14610c25578063b95a062814610bea578063b9db15b4146109b4578063c1302b341461095c578063c64b8a8f1461091d578063c87b56dd146108ad578063e01ef6e61461088f578063e585cb2c146107ff578063e985e9c5146107a9578063ed90c7b7146105c4578063f2fde38b146105005763fdca4ca31461021857600080fd5b346104fb5760003660031901126104fb5760088054600060015b8281111561049a575061024490616833565b9060009260015b8281111561026557604051806102618682614dcc565b0390f35b6000818152600e6020818152604090922060018101546001600160a01b031692919033841480610488575b6102a7575b505050506102a29061607e565b61024b565b604098949851936102b785614e5a565b81548552838501526102cb6002820161513e565b60408501526102dc6003820161513e565b6060850152600481015460808501526005918282015460a08601526103036006830161513e565b60c08601526103146007830161513e565b60e086015286820180546103278161600d565b916103356040519384614ec8565b818352600090815286812090878085015b84831061046a5750505050506101008601526103646009830161513e565b610120860152610376600a830161513e565b610140860152600b820154610160860152610393600c830161513e565b6101808601526103a5600d830161513e565b6101a08601528101546101c0850152600f81015460ff80821615156101e087015281881c81161515610200870152601091821c16151561022086015201805491906103ef8361600d565b936103fd6040519586614ec8565b8385526000918252808220918186015b85821061044e5750505050505091816102a2936102406104449401526104338288616883565b5261043e8187616883565b5061607e565b9490388080610295565b848360019261045c876167e3565b81520194019101909261040d565b60019182916104788661513e565b8152019301910190918890610346565b5060ff600f82015460101c1615610290565b6000818152600e6020526040902060018101546001600160a01b0316331490816104e8575b506104d3575b6104ce9061607e565b610232565b906104e06104ce9161607e565b9190506104c5565b60ff9150600f015460101c1615386104bf565b600080fd5b346104fb5760203660031901126104fb57610519614e2e565b61052161530a565b6001600160a01b0390811690811561057057600054826001600160601b0360a01b821617600055167f8be0079c531659141344cd1fd0a4f28419497f9722a3daafe3b4186f6b6457e0600080a3005b60405162461bcd60e51b815260206004820152602660248201527f4f776e61626c653a206e6577206f776e657220697320746865207a65726f206160448201526564647265737360d01b6064820152608490fd5b346104fb576020806003193601126104fb57336000908152600d8252604090205460043591906001600160a01b03908116801561076d5780600052600c835260ff6040600020541690600482101561075757600261062b9214908115610749575b50616024565b82600052600f825261064460ff60406000205416615814565b82600052600e82523381600160406000200154161490811561073b575b50156106e75781600052600e815260ff600f6040600020015460101c166106a3576000918252600e905260409020600f01805462ff0000191662010000179055005b6064906040519062461bcd60e51b82526004820152601a60248201527f50726f6475637420697320616c72656164792064656c657465640000000000006044820152fd5b6084906040519062461bcd60e51b82526004820152602760248201527f4f6e6c792070726f647563742073656c6c6572206f72206f776e65722063616e6044820152662064656c65746560c81b6064820152fd5b600054163314905083610661565b905082600054161485610625565b634e487b7160e01b600052602160045260246000fd5b50600c825260ff60406000205416600481101561075757600214801561079c575b61079790616024565b61062b565b506000548116331461078e565b346104fb5760403660031901126104fb576107c2614e2e565b6107ca614e44565b9060018060a01b03809116600052600760205260406000209116600052602052602060ff604060002054166040519015158152f35b346104fb5760403660031901126104fb57610818614e2e565b6001600160a01b0390811660009081526015602052604090208054602435908110156104fb57610847916151e4565b5090610261825460018401549360028101549160038201548560048401541690610878600660058601549501615216565b9460405198899860ff8760a01c16961694896152a8565b346104fb5760003660031901126104fb576020600b54604051908152f35b346104fb5760203660031901126104fb576108e76108e2600435600052600460205260018060a01b0360406000205416151590565b615362565b60006040516108f581614ead565b5261026160405161090581614ead565b60008152604051918291602083526020830190614b55565b346104fb5760203660031901126104fb576001600160a01b0361093e614e2e565b166000526012602052602060ff604060002054166040519015158152f35b346104fb5760403660031901126104fb57610975614e2e565b6001600160a01b03166000908152601060205260409020805460243591908210156104fb576020916109a6916152f2565b90546040519160031b1c8152f35b346104fb576020806003193601126104fb576004356109d161654f565b5080600052600e82526109f260ff600f6040600020015460101c1615615859565b80600052600f8252610a0b60ff60406000205416615814565b600052600e815260406000209060405191610a2583614e5a565b805483526001808201546001600160a01b031683850152610a486002830161513e565b6040850152610a596003830161513e565b6060850152600482015460808501526005918281015460a0860152610a806006820161513e565b60c0860152610a916007820161513e565b60e0860152600881018054610aa58161600d565b91610ab36040519384614ec8565b818352600090815286812085888086015b858510610bcd5750888b9260108989610100870152610ae56009820161513e565b610120870152610af7600a820161513e565b610140870152600b810154610160870152610b14600c820161513e565b610180870152610b26600d820161513e565b6101a0870152600e8101546101c087015260ff600f82015481811615156101e0890152818160081c161515610200890152831c1615156102208701520191825490610b708261600d565b93610b7e6040519586614ec8565b8285526000908152858120868087015b858410610bb0576102408a01889052604051828152806102618185018d614c2c565b86918591610bbd856167e3565b8152019201920191908790610b8e565b908291610bd98561513e565b815201920192019190888791610ac4565b346104fb5760203660031901126104fb5760206001600160a01b0380610c0e614e2e565b16600052600d825260406000205416604051908152f35b346104fb5760803660031901126104fb57610c3e614e2e565b610c46614e44565b606435916001600160401b0383116104fb57366023840112156104fb57610c7a610c84933690602481600401359101614f04565b9160443591615471565b005b346104fb576020806003193601126104fb576001600160a01b039081610caa614e2e565b16600052601481526040600020805490610cc38261600d565b92610cd16040519485614ec8565b82845260009182528082208185015b848410610cf557604051806102618882615033565b600e83600192604051610d0781614e76565b85548152848601548382015260028601546040820152600386015460608201528a600487015416608082015260ff600587015460a08d8216818501521c16151560c0820152610d5860068701615216565b60e0820152815201920193019290610ce0565b346104fb576003196020368201126104fb576001600160401b03600435116104fb576101a090600435360301126104fb57336000908152600d60205260409020546001600160a01b03168015611c685780600052600c60205260ff60406000205416906004821015610757576002610deb9214908115611c535750616024565b610e05610dfc60048035018061589a565b90501515616123565b6024610e26610e1d826004350160043560040161589a565b90501515616166565b610e376044600435013515156161b2565b610e486064600435013515156161fe565b610e68610e5f60846004350160043560040161589a565b9050151561624a565b610e88610e7f60c46004350160043560040161628e565b905015156162c3565b610ea96005610ea160c46004350160043560040161628e565b905010616308565b610ec9610ec060a46004350160043560040161589a565b90501515616354565b610ee9610ee060e46004350160043560040161589a565b90501515616397565b610f0a610f016101046004350160043560040161589a565b905015156163e3565b610f2b610f226101246004350160043560040161589a565b9050151561642f565b610f4c610f436101446004350160043560040161589a565b90501515616473565b610f5e610164600435013515156164b7565b610f7061018460043501351515616503565b60016008540180600855610f8261654f565b818152336020820152610fa3610f9c60048035018061589a565b3691614f04565b6040820152610fbe610f9c846004350160043560040161589a565b60608201526044600435013560808201526064600435013560a0820152610ff2610f9c60846004350160043560040161589a565b60c082015261100e610f9c60a46004350160043560040161589a565b60e082015261102760c46004350160043560040161628e565b906110318261600d565b9161103f6040519384614ec8565b8083526020830191368260051b8201116104fb5780925b8260051b82018410611c285750505050610100820152611083610f9c60e46004350160043560040161589a565b6101208201526110a1610f9c6101046004350160043560040161589a565b6101408201526110bf610f9c6101246004350160043560040161589a565b6101808201526110dd610f9c6101446004350160043560040161589a565b6101a082015260043561016481013561016083015261018401356101c08201523315611be457600082815260046020526040902054611128906001600160a01b031615155b15616797565b60008281526004602052604090205461114b906001600160a01b03161515611122565b3360005260056020526040600020600181540190558160005260046020526040600020336001600160601b0360a01b825416179055813360007fddf252ad1be2c89b69c2b068fc378daa952ba7f163c4a11628f55a4df523b3ef8180a4600e6020526040600020815181556001810160018060a01b036020840151166001600160601b0360a01b82541617905560408201518051906001600160401b0382116116eb57819061120a826112016002870154615104565b600287016158f0565b602090601f8311600114611b7257600092611b67575b50508160011b916000199060031b1c19161760028201555b60608201518051906001600160401b0382116116eb57819061126a826112616003870154615104565b600387016158f0565b602090601f8311600114611af557600092611aea575b50508160011b916000199060031b1c19161760038201555b6080820151600482015560a0820151600582015560c08201518051906001600160401b0382116116eb5781906112de826112d56006870154615104565b600687016158f0565b602090601f8311600114611a7857600092611a6d575b50508160011b916000199060031b1c19161760068201555b60e08201518051906001600160401b0382116116eb57819061133e826113356007870154615104565b600787016158f0565b602090601f83116001146119fb576000926119f0575b50508160011b916000199060031b1c19161760078201555b600881016101008301519060208251926113868484616624565b019060005260206000206000915b8383106118f857505050506101208201518051906001600160401b0382116116eb5781906113d2826113c96009870154615104565b600987016158f0565b602090601f83116001146118865760009261187b575b50508160011b916000199060031b1c19161760098201555b6101408201518051906001600160401b0382116116eb5781906114338261142a600a870154615104565b600a87016158f0565b602090601f8311600114611809576000926117fe575b50508160011b916000199060031b1c191617600a8201555b610160820151600b8201556101808201518051906001600160401b0382116116eb57819061149f82611496600c870154615104565b600c87016158f0565b602090601f831160011461178c57600092611781575b50508160011b916000199060031b1c191617600c8201555b6101a08201518051906001600160401b0382116116eb576114fe826114f5600d860154615104565b600d86016158f0565b602090601f831160011461170b5791806102409492601094600092611700575b50508160011b916000199060031b1c191617600d8201555b6101c0840151600e820155600f81016115626101e08601511515829060ff801983541691151516179055565b6102008501511515815461ff0062ff00006102208901511515871b169260081b169062ffff001916171790550191015190815190600160401b928383116116eb57815483835580841061165b575b506020019060005260206000206000915b83831061163d575050505081600052600f6020526040600020600160ff198254161790553360005260106020526040600020805491821015611628579061160d916001820181556152f2565b819291549060031b91821b91600019901b1916179055600080f35b83634e487b7160e01b60005260416004526000fd5b600560208261164f600194518661666d565b019201920191906115c1565b806005029060058204036116d657836005026005810485036116c15783600052602060002091820191015b81811061169357506115b0565b8060006005925560006001820155600060028201556116b4600382016165db565b6000600482015501611686565b87634e487b7160e01b60005260116004526000fd5b86634e487b7160e01b60005260116004526000fd5b85634e487b7160e01b60005260416004526000fd5b01519050888061151e565b90600d840160005260206000209160005b601f1985168110611769575092610240949260019260109583601f19811610611750575b505050811b01600d820155611536565b015160001960f88460031b161c19169055888080611740565b9192602060018192868501518155019401920161171c565b0151905086806114b5565b9250600c84016000526020600020906000935b601f19841685106117e3576001945083601f198116106117ca575b505050811b01600c8201556114cd565b015160001960f88460031b161c191690558680806117ba565b8181015183556020948501946001909301929091019061179f565b015190508680611449565b9250600a84016000526020600020906000935b601f1984168510611860576001945083601f19811610611847575b505050811b01600a820155611461565b015160001960f88460031b161c19169055868080611837565b8181015183556020948501946001909301929091019061181c565b0151905086806113e8565b9250600984016000526020600020906000935b601f19841685106118dd576001945083601f198116106118c4575b505050811b016009820155611400565b015160001960f88460031b161c191690558680806118b4565b81810151835560209485019460019093019290910190611899565b80518051906001600160401b0382116119db5761191f826119198654615104565b866158f0565b602090601f831160011461196b579282600194936020938695600092611960575b5050600019600383901b1c191690841b1785555b01920192019190611394565b015190508d80611940565b908460005260206000209160005b601f19851681106119c3575083602093600196938796938794601f198116106119aa575b505050811b018555611954565b015160001960f88460031b161c191690558d808061199d565b91926020600181928685015181550194019201611979565b89634e487b7160e01b60005260416004526000fd5b015190508680611354565b9250600784016000526020600020906000935b601f1984168510611a52576001945083601f19811610611a39575b505050811b01600782015561136c565b015160001960f88460031b161c19169055868080611a29565b81810151835560209485019460019093019290910190611a0e565b0151905086806112f4565b9250600684016000526020600020906000935b601f1984168510611acf576001945083601f19811610611ab6575b505050811b01600682015561130c565b015160001960f88460031b161c19169055868080611aa6565b81810151835560209485019460019093019290910190611a8b565b015190508680611280565b9250600384016000526020600020906000935b601f1984168510611b4c576001945083601f19811610611b33575b505050811b016003820155611298565b015160001960f88460031b161c19169055868080611b23565b81810151835560209485019460019093019290910190611b08565b015190508680611220565b9250600284016000526020600020906000935b601f1984168510611bc9576001945083601f19811610611bb0575b505050811b016002820155611238565b015160001960f88460031b161c19169055868080611ba0565b81810151835560209485019460019093019290910190611b85565b60405162461bcd60e51b8152602060048201819052818501527f4552433732313a206d696e7420746f20746865207a65726f20616464726573736044820152606490fd5b6001600160401b038435116104fb5760208091611c483687358601614f3b565b815201930192611056565b6000546001600160a01b031614905082610625565b50600c60205260ff604060002054166004811015610757576002148015611c98575b611c9390616024565b610deb565b506000546001600160a01b03163314611c8a565b346104fb576003196040368201126104fb576001600160401b03602435116104fb576101a090602435360301126104fb57336000908152600d60205260409020546001600160a01b0390811680156127ea5780600052600c60205260ff60406000205416906004821015610757576002611d2e92149081156127dc5750616024565b600435600052600e6020523390600160406000200154160361278657600435600052600f602052611d6660ff60406000205416615814565b600435600052600e602052611d8960ff600f6040600020015460101c1615615859565b611d9b610dfc6004602435018061589a565b611db1610e1d602480350160243560040161589a565b611dc26044602435013515156161b2565b611dd9610e7f60c46024350160243560040161628e565b611df26005610ea160c46024350160243560040161628e565b611e036064602435013515156161fe565b611e1a610e5f60846024350160243560040161589a565b611e31610ec060a46024350160243560040161589a565b611e48610ee060e46024350160243560040161589a565b611e60610f016101046024350160243560040161589a565b611e78610f226101246024350160243560040161589a565b611e90610f436101446024350160243560040161589a565b611ea2610164602435013515156164b7565b611eb461018460243501351515616503565b611ec36004602435018061589a565b600435600052600e6020526002604060002001906001600160401b03811161235457611ef981611ef38454615104565b846158f0565b600092601f821160011461271d5792819293600092612712575b50508160011b916000199060031b1c19161790555b611f3b602480350160243560040161589a565b600435600052600e6020526003604060002001906001600160401b03811161235457611f6b81611ef38454615104565b600092601f82116001146126a9579281929360009261269e575b50508160011b916000199060031b1c19161790555b600435600052600e6020526040600020604460243501356004820155606460243501356005820155611fd660846024350160243560040161589a565b906001600160401b03821161235457611fff82611ff66006860154615104565b600686016158f0565b600090601f831160011461262e576006929160009183612623575b50508160011b916000199060031b1c1916179101555b61204460a46024350160243560040161589a565b600435600052600e6020526007604060002001906001600160401b0381116123545761207481611ef38454615104565b600092601f82116001146125ba57928192936000926125af575b50508160011b916000199060031b1c19161790555b6120b760c46024350160243560040161628e565b600435600052600e6020526008604060002001916120d58284616624565b60009283526020832090805b8385106124c6576120fc60e46024350160243560040161589a565b600435600052600e6020526009604060002001906001600160401b0381116123545761212c81611ef38454615104565b600092601f821160011461245d5792819293600092612452575b50508160011b916000199060031b1c19161790555b6121706101046024350160243560040161589a565b600435600052600e602052600a604060002001906001600160401b038111612354576121a081611ef38454615104565b600092601f82116001146123e957928192936000926123de575b50508160011b916000199060031b1c19161790555b6121e46101246024350160243560040161589a565b600435600052600e602052600c604060002001906001600160401b0381116123545761221481611ef38454615104565b600092601f8211600114612375579281929360009261236a575b50508160011b916000199060031b1c19161790555b6122586101446024350160243560040161589a565b600435600052600e602052600d604060002001906001600160401b0381116123545761228881611ef38454615104565b6000601f82116001146122ef578192936000926122e4575b50508160011b916000199060031b1c19161790555b600435600052600e60205260406000206101646024350135600b820155600e6101846024350135910155600080f35b0135905083806122a0565b601f198216938360005260206000209160005b86811061233c5750836001959610612322575b505050811b0190556122b5565b0135600019600384901b60f8161c19169055838080612315565b90926020600181928686013581550194019101612302565b634e487b7160e01b600052604160045260246000fd5b01359050838061222e565b826000526020600020906000945b601f19841686106123c657600194955083601f198116106123ac575b505050811b019055612243565b0135600019600384901b60f8161c1916905583808061239f565b91602060018192858501358155019301950194612383565b0135905083806121ba565b826000526020600020906000945b601f198416861061243a57600194955083601f19811610612420575b505050811b0190556121cf565b0135600019600384901b60f8161c19169055838080612413565b916020600181928585013581550193019501946123f7565b013590508380612146565b826000526020600020906000945b601f19841686106124ae57600194955083601f19811610612494575b505050811b01905561215b565b0135600019600384901b60f8161c19169055838080612487565b9160206001819285850135815501930195019461246b565b6124d0818361589a565b906001600160401b038211612354576124f3826124ed8754615104565b876158f0565b600090601f831160011461253f579282600194936020938695600092612534575b5050600019600383901b1c191690841b1786555b019301940193916120e1565b013590508a80612514565b8560005260206000209160005b601f1985168110612597575083602093600196938796938794601f1981161061257d575b505050811b018655612528565b0135600019600384901b60f8161c191690558a8080612570565b9092602060018192868601358155019401910161254c565b01359050838061208e565b826000526020600020906000945b601f198416861061260b57600194955083601f198116106125f1575b505050811b0190556120a3565b0135600019600384901b60f8161c191690558380806125e4565b916020600181928585013581550193019501946125c8565b01359050848061201a565b6006840160005260206000209160005b601f19851681106126865750918391600193600695601f1981161061266c575b505050811b01910155612030565b0135600019600384901b60f8161c1916905584808061265e565b9092602060018192868601358155019401910161263e565b013590508380611f85565b826000526020600020906000945b601f19841686106126fa57600194955083601f198116106126e0575b505050811b019055611f9a565b0135600019600384901b60f8161c191690558380806126d3565b916020600181928585013581550193019501946126b7565b013590508380611f13565b826000526020600020906000945b601f198416861061276e57600194955083601f19811610612754575b505050811b019055611f28565b0135600019600384901b60f8161c19169055838080612747565b9160206001819285850135815501930195019461272b565b60405162461bcd60e51b815260206004820152602860248201527f4f6e6c79207468652073656c6c65722063616e20757064617465207468656972604482015267081c1c9bd91d58dd60c21b6064820152608490fd5b905082600054161483610625565b50600c60205260ff60406000205416600481101561075757600214801561281a575b61281590616024565b611d2e565b506000548116331461280c565b346104fb5760203660031901126104fb57600435600052600f602052602060ff604060002054166040519015158152f35b346104fb5760203660031901126104fb57612871614e2e565b61287961530a565b6001600160a01b031680156128d95760407f32b449308c94e824ccedd9877932cd82f89a481c06c4643a0cb2914454a8c5829133600052600d60205281600020816001600160601b0360a01b8254161790558151903382526020820152a1005b60405162461bcd60e51b815260206004820152601760248201527f496e76616c6964206163636f756e7420616464726573730000000000000000006044820152606490fd5b346104fb5760403660031901126104fb57612937614e2e565b60243590811515908183036104fb576001600160a01b0316913383146129b4576129869033600052600760205260406000208460005260205260406000209060ff801983541691151516179055565b6040519081527f17307eab39ab6107e8899845ad3d59bd9653f200f220920489ca2b5937696c3160203392a3005b60405162461bcd60e51b815260206004820152601960248201527f4552433732313a20617070726f766520746f2063616c6c6572000000000000006044820152606490fd5b346104fb5760403660031901126104fb57612a12614e2e565b6001600160a01b0390811660009081526014602052604090208054602435908110156104fb57610847916151e4565b346104fb576020806003193601126104fb5760043580600052600e9081835260ff600f6040600020015491612a7c82601094851c1615615859565b80600052600f8552612a948260406000205416615814565b60009260005b82600052858752816040600020018054821015612aeb576004612abe8387936168c2565b5001541615612ad6575b612ad19061607e565b612a9a565b93612ae3612ad19161607e565b949050612ac8565b50508486612af88661600d565b95612b066040519788614ec8565b808752612b15601f199161600d565b018160005b828110612bbe5750505060009360005b81600052838352846040600020018054821015612bab576004612b4e838a936168c2565b5001541615612b66575b612b619061607e565b612b2a565b94612ba3612b619183600052858552612b8e612b8889896040600020016168c2565b506167e3565b612b98828c616883565b5261043e818b616883565b959050612b58565b604051848152806102618187018c614b95565b612bc6616897565b82828b010152018290612b1a565b346104fb5760403660031901126104fb57612bed614e2e565b60249081359060048210156104fb57612c0461530a565b6001600160a01b0316918215612d9357826000526020906012825260ff6040600020541615612d585783600052600c825260ff604060002054166004811015612d0b578314612d205760028314612ca7575b507fd8f7bcb2c5cffc294a0aaef719685993d7be95273fb8254803a1563510ccefed91600c612ca2928560005252604060002060ff1981541660ff8316179055604051918291826150f1565b0390a2005b83600052600c825260ff604060002054166004811015612d0b57600114612c565790601f6064926040519262461bcd60e51b845260048401528201527f43616e206f6e6c79207665726966792070656e64696e672073656c6c657273006044820152fd5b50634e487b7160e01b60009081526021600452fd5b9060126064926040519262461bcd60e51b845260048401528201527114dd185d1d5cc8185b1c9958591e481cd95d60721b6044820152fd5b9060156064926040519262461bcd60e51b845260048401528201527414d95b1b195c881b9bdd081c9959da5cdd195c9959605a1b6044820152fd5b60649060166040519162461bcd60e51b83526020600484015282015275496e76616c69642073656c6c6572206164647265737360501b6044820152fd5b346104fb5760003660031901126104fb576040516000600354612df281615104565b80845290600190818116908115612e8b5750600114612e30575b61026184612e1c81860382614ec8565b604051918291602083526020830190614b55565b6003600090815292507fc2575a0e9e593c00f959f8c92f12db2869c3395a3b0502d05e2516446f71f85b5b828410612e73575050508101602001612e1c82612e0c565b80546020858701810191909152909301928101612e5b565b60ff191660208087019190915292151560051b85019092019250612e1c9150839050612e0c565b346104fb5760003660031901126104fb576000546040516001600160a01b039091168152602090f35b346104fb5760203660031901126104fb576004356000908152600e60205260409020805460018201546001600160a01b031691612f1a6002820161513e565b612f266003830161513e565b6004830154600584015490612f3d6006860161513e565b612f496007870161513e565b612f556009880161513e565b90612f62600a890161513e565b92600b89015494600c8a01612f769061513e565b96612f83600d8c0161513e565b98600e8c01549b600f01549a6040519e8f9e8f908152602001528d6102209081604082015201612fb291614b55565b8d810360608f0152612fc391614b55565b9160808d015260a08c01528a810360c08c0152612fdf91614b55565b89810360e08b0152612ff091614b55565b8881036101008a015261300291614b55565b87810361012089015261301491614b55565b9061014087015285810361016087015261302d91614b55565b84810361018086015261303f91614b55565b916101a084015260ff811615156101c08401528060081c60ff1615156101e084015260101c60ff1615156102008301520390f35b346104fb5760003660031901126104fb5761308c61530a565b600080546001600160a01b0319811682556001600160a01b03167f8be0079c531659141344cd1fd0a4f28419497f9722a3daafe3b4186f6b6457e08280a3005b346104fb5760203660031901126104fb576001600160a01b036130ed614e2e565b16801561310c5760005260056020526020604060002054604051908152f35b60405162461bcd60e51b815260206004820152602960248201527f4552433732313a2061646472657373207a65726f206973206e6f7420612076616044820152683634b21037bbb732b960b91b6064820152608490fd5b6003196040368201126104fb576024906001600160401b038235116104fb57610100908235360301126104fb5760026001541461397d576002600155600435600052600f6020526131bb60ff60406000205416615814565b600435600052600e6020526131de60ff600f6040600020015460101c1615615859565b600435600052600e60205260018060a01b0360016040600020015416600052600c60205260ff604060002054166004811015612d0b5760020361394057600435600052600e602052600560406000200154156138fc57600435600052600e60205260ff600f60406000200154166138b857600435600052600e60205260018060a01b036001604060002001541633146138745761327f60048235018061589a565b90501561383b5761329781803501823560040161589a565b9050156137f7576132b06044823501823560040161589a565b9050156137c3576132c96064823501823560040161589a565b90501561378e576132e26084823501823560040161589a565b905015613757576132fb60a4823501823560040161589a565b90501561371c5761331460c4823501823560040161589a565b9050156136e75761332d60e4823501823560040161589a565b9050156136b257600435600052600e6020526004604060002001549081341061367957600435600052600e60205260056040600020018054801561366457600019019055600435600052600e6020526040600020600581015415613650575b600101546040516001600160a01b0390911691906133a981614e76565b8135600401356001600160401b0381116104fb576133ce906004369185350101614f3b565b81526001600160401b038280350135116104fb576133f53683358085013501600401614f3b565b60208201526044823501356001600160401b0381116104fb5761341f906004369185350101614f3b565b60408201526064823501356001600160401b0381116104fb57613449906004369185350101614f3b565b60608201526084823501356001600160401b0381116104fb57613473906004369185350101614f3b565b608082015260a4823501356001600160401b0381116104fb5761349d906004369185350101614f3b565b60a082015260c4823501356001600160401b0381116104fb576134c7906004369185350101614f3b565b60c082015260e482350135906001600160401b0382116104fb576134f5613560926004369186350101614f3b565b60e08201526040519061350782614e76565b60043582528560208301528560408301524260608301523360808301528460a0830152600060c083015260e082015233600052601460205261354d816040600020615935565b8360005260156020526040600020615935565b816000526013602052604060002080549184830180931161363c57505560405182815282602082015242604082015233907f45280c7ac9cec77edd454e39e1641a3e22619146cf074a4239beee86a7c07edc606060043592a46001600954016009556135cc81346158cc565b8061362c575b50600435600052600e60205260018060a01b03600160406000200154169060405190815242602082015233907fbe6177108f4df43c5d7be79cb219c969fc97915bbdb4b56d14d391dcdcc16060604060043592a460018055005b613636903361608d565b816135d2565b634e487b7160e01b60009081526011600452fd5b600f8101805460ff1916600117905561338c565b82634e487b7160e01b60005260116004526000fd5b60649060126040519162461bcd60e51b83526020600484015282015271496e73756666696369656e742066756e647360701b6044820152fd5b606490600e6040519162461bcd60e51b8352602060048401528201526d115b585a5b081c995c5d5a5c995960921b6044820152fd5b606490600e6040519162461bcd60e51b8352602060048401528201526d141a1bdb99481c995c5d5a5c995960921b6044820152fd5b60649060146040519162461bcd60e51b83526020600484015282015273141bdcdd185b0818dbd919481c995c5d5a5c995960621b6044820152fd5b60649060106040519162461bcd60e51b8352602060048401528201526f10dbdd5b9d1c9e481c995c5d5a5c995960821b6044820152fd5b606490600e6040519162461bcd60e51b8352602060048401528201526d14dd185d19481c995c5d5a5c995960921b6044820152fd5b606490600d6040519162461bcd60e51b8352602060048401528201526c10da5d1e481c995c5d5a5c9959609a1b6044820152fd5b60649060176040519162461bcd60e51b8352602060048401528201527f53747265657420616464726573732072657175697265640000000000000000006044820152fd5b60649060126040519162461bcd60e51b83526020600484015282015271119d5b1b081b985b59481c995c5d5a5c995960721b6044820152fd5b606490601b6040519162461bcd60e51b8352602060048401528201527f43616e6e6f742062757920796f7572206f776e2070726f6475637400000000006044820152fd5b606490601a6040519162461bcd60e51b8352602060048401528201527f50726f6475637420697320616c726561647920736f6c646f75740000000000006044820152fd5b60649060176040519162461bcd60e51b8352602060048401528201527f50726f64756374206973206f7574206f662073746f636b0000000000000000006044820152fd5b60649060166040519162461bcd60e51b8352602060048401528201527514d95b1b195c881a5cc81b9bdd081d995c9a599a595960521b6044820152fd5b606490601f6040519162461bcd60e51b8352602060048401528201527f5265656e7472616e637947756172643a207265656e7472616e742063616c6c006044820152fd5b346104fb5760203660031901126104fb5760206139df6004356153ae565b6040516001600160a01b039091168152f35b346104fb5760203660031901126104fb576001600160a01b03613a12614e2e565b1660005260136020526020604060002054604051908152f35b346104fb5760003660031901126104fb5733600052601260205260ff60406000205416613aae57336000526012602052604060002060ff1990600182825416179055600c60205260016040600020918254161790556040514281527fa1a1a78ff3033d5ee8393372052aeb2a16bbb347a29f3780370e9506c109e37260203392a2005b60405162461bcd60e51b8152602060048201526012602482015271105b1c9958591e481c9959da5cdd195c995960721b6044820152606490fd5b346104fb5760203660031901126104fb576001600160a01b03613b09614e2e565b16600052600c60205261026160ff60406000205416604051918291826150f1565b346104fb57610c84613b3b36614f56565b9060405192613b4984614ead565b60008452615471565b346104fb5760003660031901126104fb57336000908152600d60209081526040909120546001600160a01b039081168015613c9e5780600052600c835260ff60406000205416906004821015610757576002613bb69214908115613c905750616024565b3360005260138252604060002054908115613c5257600b548083029083820403613c3c57613c0e92613bef6064613c08930480926158cc565b923360005260138652600060408120556000541661608d565b3361608d565b7f8ad64a0ac7700dd8425ab0499f107cb6e2cd1581d803c5b8c1c79dcb8190b1af60405191600083523392a2005b634e487b7160e01b600052601160045260246000fd5b60405162461bcd60e51b81526004810184905260166024820152754e6f2062616c616e636520746f20776974686472617760501b6044820152606490fd5b905082600054161484610625565b50600c825260ff604060002054166004811015610757576002148015613ccd575b613cc890616024565b613bb6565b5060005481163314613cbf565b346104fb576020806003193601126104fb576001600160a01b039081613cfe614e2e565b16600052601581526040600020805490613d178261600d565b92613d256040519485614ec8565b82845260009182528082208185015b848410613d4957604051806102618882615033565b600e83600192604051613d5b81614e76565b85548152848601548382015260028601546040820152600386015460608201528a600487015416608082015260ff600587015460a08d8216818501521c16151560c0820152613dac60068701615216565b60e0820152815201920193019290613d34565b346104fb5760403660031901126104fb57602480356004356000805b82600052600e602090808252601091826040600020018054851015613fd757613e058589926168c2565b505414613e1d57505050613e189061607e565b613ddb565b9193509193946000526011815260ff94856040600020541615613f9b5780600052828252613e5185856040600020016168c2565b50600190810154909690336001600160a01b0391821614908115613f8d575b5015613f3857816000528383526004613e8f87876040600020016168c2565b50015416613efb5791613eb0939160049593600052526040600020016168c2565b5001805460ff1916821790555b15613ec457005b60649060106040519162461bcd60e51b8352602060048401528201526f14995d9a595dc81b9bdd08199bdd5b9960821b6044820152fd5b60405162461bcd60e51b8152600481018390526016818901527514995d9a595dc8185b1c9958591e4819195b195d195960521b6044820152606490fd5b60405162461bcd60e51b8152600481018490526028818a01527f4f6e6c79207265766965776572206f72206f776e65722063616e2064656c6574604482015267652072657669657760c01b6064820152608490fd5b600054163314905089613e70565b60405162461bcd60e51b8152600481018390526015818901527414995d9a595dc8191bd95cc81b9bdd08195e1a5cdd605a1b6044820152606490fd5b5050505050915050613ebd565b346104fb57610c84613ff536614f56565b91614008614003843361550c565b61540f565b6155d4565b346104fb5760603660031901126104fb57602480356004356044356001600160401b0381116104fb57614044903690600401614f3b565b9080600052602091600e835260018060a01b0360016040600020015416331461419d5783151580614192575b1561414e5780511561410a5790600e92916001600a54019081600a55614094616897565b95828752338588015260408701526060860152600052601182526040600020600160ff198254161790556000525260106040600020018054600160401b811015611628576140e7916001820181556168c2565b6140f557610c84925061666d565b82634e487b7160e01b60005260006004526000fd5b60405162461bcd60e51b8152600481018490526017818701527f436f6d6d656e742063616e6e6f7420626520656d7074790000000000000000006044820152606490fd5b60405162461bcd60e51b815260048101849052601e818701527f526174696e67206d757374206265206265747765656e203120616e64203500006044820152606490fd5b506005841115614070565b60405162461bcd60e51b8152600481018490526026818701527f53656c6c65722063616e6e6f7420726576696577207468656972206f776e20706044820152651c9bd91d58dd60d21b6064820152608490fd5b346104fb5760003660031901126104fb5761420961530a565b33600052600d60205260406000206001600160601b0360a01b81541690557f32b449308c94e824ccedd9877932cd82f89a481c06c4643a0cb2914454a8c5826040805133815260006020820152a1005b346104fb5760403660031901126104fb57600435614275614e44565b336000908152600d602090815260409091205490926001600160a01b0391821680156145a65780600052600c855260ff604060002054169060048210156107575760026142ca92149081156145985750616024565b9291925b6000928260009516945b8560005260148083526040600020805483101561458d576142fa8386926151e4565b505414614310575061430b9061607e565b6142d8565b91929394508560005281835261432a8160406000206151e4565b509160ff60058094015460a01c1661454857866000528084526143518260406000206151e4565b5083015486163314801561453b575b156144e3579061437a9187600052845260406000206151e4565b5001805460ff60a01b1916600160a01b17905560015b156144aa5781600052600e815260019280846040600020015416846000905b6143e3575b5050507ff9dc8543b583e01f592678422369b2777e3649761f5808ae432cb1c24ca9438c9192604051908152a3005b816000526015808552604060002080548310156144a3576144058388926151e4565b5054148061447f575b61442757509061441f86939261607e565b9091926143af565b7ff9dc8543b583e01f592678422369b2777e3649761f5808ae432cb1c24ca9438c959693509061446391600593600052855260406000206151e4565b5001805460ff60a01b1916600160a01b179055929185806143b4565b5082600052808552878460046144998560406000206151e4565b500154161461440e565b50506143b4565b6064906040519062461bcd60e51b825260048201526012602482015271141d5c98da185cd9481b9bdd08199bdd5b9960721b6044820152fd5b60405162461bcd60e51b815260048101859052602a60248201527f4f6e6c792073656c6c6572206f72206f776e65722063616e206d61726b2061736044820152690819195b1a5d995c995960b21b6064820152608490fd5b5033866000541614614360565b60405162461bcd60e51b815260048101859052601b60248201527f416c7265616479206d61726b65642061732064656c69766572656400000000006044820152606490fd5b505050909192614390565b905083600054161486610625565b50600c845260ff6040600020541660048110156107575760021480156145d8575b6145d090616024565b9291926142ce565b50600054821633146145c7565b346104fb5760403660031901126104fb576145fe614e2e565b602435906001600160a01b038080614615856153ae565b16921691808314614710578033149081156146eb575b501561468057600083815260066020526040902080546001600160a01b03191683179055614658836153ae565b167f8c5be1e5ebec7d5bd14f71427d1e84f3dd0314c0f7b2291e5b200ac8c7c3b925600080a4005b60405162461bcd60e51b815260206004820152603d60248201527f4552433732313a20617070726f76652063616c6c6572206973206e6f7420746f60448201527f6b656e206f776e6572206f7220617070726f76656420666f7220616c6c0000006064820152608490fd5b9050600052600760205260406000203360005260205260ff604060002054168461462b565b60405162461bcd60e51b815260206004820152602160248201527f4552433732313a20617070726f76616c20746f2063757272656e74206f776e656044820152603960f91b6064820152608490fd5b346104fb5760203660031901126104fb5760206139df6004356153d1565b346104fb5760003660031901126104fb57604051600060025461479f81615104565b80845290600190818116908115612e8b57506001146147c85761026184612e1c81860382614ec8565b6002600090815292507f405787fa12a823e0f2b7631cc41b3ba8828b3321ca811111fa75cd3aa3bb5ace5b82841061480b575050508101602001612e1c82612e0c565b805460208587018101919091529093019281016147f3565b346104fb5760003660031901126104fb57600854600060015b82811115614a79575061484e90616833565b90600160005b8282111561486a57604051806102618682614dcc565b81600052600e6020526040600020600f8101549060ff8260101c161561489d575b5050906148979061607e565b90614854565b604051916148aa83614e5a565b8154835260018201546001600160a01b031660208401526148cd6002830161513e565b60408401526148de6003830161513e565b606084015260048201546080840152600582015460a08401526149036006830161513e565b60c08401526149146007830161513e565b60e08401526008820180546149288161600d565b916149366040519384614ec8565b81835260208301906000526020600020906000905b838210614a5c57505050506010929160ff9161010086015261496f6009840161513e565b610120860152614981600a840161513e565b610140860152600b83015461016086015261499e600c840161513e565b6101808601526149b0600d840161513e565b6101a0860152600e8301546101c086015281811615156101e0860152818160081c161515610200860152831c161515610220840152018054906149f28261600d565b91614a006040519384614ec8565b808352602083019160005260206000206000925b828410614a3e575050505061024082015261489791614a37916104338288616883565b908561488b565b60056020600192614a4e856167e3565b815201920193019290614a14565b600160208192614a6b8661513e565b81520193019101909161494b565b80600052600e60205260ff600f6040600020015460101c1615614aa5575b614aa09061607e565b61483c565b90614ab2614aa09161607e565b919050614a97565b346104fb5760203660031901126104fb5760043563ffffffff60e01b81168091036104fb576020906380ac58cd60e01b8114908115614b17575b8115614b06575b506040519015158152f35b6301ffc9a760e01b14905082614afb565b635b5e139f60e01b81149150614af4565b346104fb5760203660031901126104fb576020906004356000526011825260ff6040600020541615158152f35b919082519283825260005b848110614b81575050826000602080949584010152601f8019910116010190565b602081830181015184830182015201614b60565b908082519081815260208091019281808460051b8301019501936000915b848310614bc35750505050505090565b9091929394958480600192601f1985820301865289519081518152848060a01b0383830151168382015260408083015190820152614c106060808401519060a08091850152830190614b55565b9160808091015115159101529801930193019194939290614bb3565b91908251815260209260018060a01b03848201511684830152614cb1614c9f614c79614c676040850151610260806040890152870190614b55565b60608501518682036060880152614b55565b6080840151608086015260a084015160a086015260c084015185820360c0870152614b55565b60e083015184820360e0860152614b55565b6101009485830151958483039085015285518083528183019180808360051b8601019801926000905b838210614d9c57505050505050614d53614d3f614d20614d0c614d999697610120808701519088830390890152614b55565b610140808601519087830390880152614b55565b6101608085015190860152610180808501519086830390870152614b55565b6101a0808401519085830390860152614b55565b916101c080830151908201526101e08083015115159082015261020080830151151590820152610220808301511515908201526102408092015191818403910152614b95565b90565b9091929394988380614dbb6001938d601f199082030186528951614b55565b9b9701959493919091019101614cda565b602080820190808352835180925260408301928160408460051b8301019501936000915b848310614e005750505050505090565b9091929394958480614e1e600193603f198682030187528a51614c2c565b9801930193019194939290614df0565b600435906001600160a01b03821682036104fb57565b602435906001600160a01b03821682036104fb57565b61026081019081106001600160401b0382111761235457604052565b61010081019081106001600160401b0382111761235457604052565b60a081019081106001600160401b0382111761235457604052565b602081019081106001600160401b0382111761235457604052565b90601f801991011681019081106001600160401b0382111761235457604052565b6001600160401b03811161235457601f01601f191660200190565b929192614f1082614ee9565b91614f1e6040519384614ec8565b8294818452818301116104fb578281602093846000960137010152565b9080601f830112156104fb57816020614d9993359101614f04565b60609060031901126104fb576001600160a01b039060043582811681036104fb579160243590811681036104fb579060443590565b614d999160e0615022615010614ffe614fec614fda614fc8614fb68951610100808b528a0190614b55565b60208a015189820360208b0152614b55565b604089015188820360408a0152614b55565b60608801518782036060890152614b55565b60808701518682036080880152614b55565b60a086015185820360a0870152614b55565b60c085015184820360c0860152614b55565b9201519060e0818403910152614b55565b602080820190808352835180925260409283810182858560051b8401019601946000925b858410615068575050505050505090565b9091929394959685806150e0600193603f198682030188528b51805182528381015184830152878101518883015260608082015190830152858060a01b0360808181840151169084015260a09081830151169083015260c08082015115159083015260e0809101519161010080928201520190614f8b565b990194019401929594939190615057565b9190602083019260048210156107575752565b90600182811c92168015615134575b602083101461511e57565b634e487b7160e01b600052602260045260246000fd5b91607f1691615113565b906040519182600082549261515284615104565b9081845260019485811690816000146151c1575060011461517e575b505061517c92500383614ec8565b565b9093915060005260209081600020936000915b8183106151a957505061517c9350820101388061516e565b85548884018501529485019487945091830191615191565b91505061517c94506020925060ff191682840152151560051b820101388061516e565b805482101561520057600052600e602060002091020190600090565b634e487b7160e01b600052603260045260246000fd5b9060405161522381614e76565b60e06152a3600783956152358161513e565b85526152436001820161513e565b60208601526152546002820161513e565b60408601526152656003820161513e565b60608601526152766004820161513e565b60808601526152876005820161513e565b60a08601526152986006820161513e565b60c08601520161513e565b910152565b95929091614d999897959492875260208701526040860152606085015260018060a01b0380921660808501521660a0830152151560c0820152610100908160e08201520190614f8b565b80548210156152005760005260206000200190600090565b6000546001600160a01b0316330361531e57565b606460405162461bcd60e51b815260206004820152602060248201527f4f776e61626c653a2063616c6c6572206973206e6f7420746865206f776e65726044820152fd5b1561536957565b60405162461bcd60e51b815260206004820152601860248201527f4552433732313a20696e76616c696420746f6b656e20494400000000000000006044820152606490fd5b6000908152600460205260409020546001600160a01b0316614d99811515615362565b6000818152600460205260409020546153f4906001600160a01b03161515615362565b6000908152600660205260409020546001600160a01b031690565b1561541657565b60405162461bcd60e51b815260206004820152602d60248201527f4552433732313a2063616c6c6572206973206e6f7420746f6b656e206f776e6560448201526c1c881bdc88185c1c1c9bdd9959609a1b6064820152608490fd5b90615495939291615485614003843361550c565b6154908383836155d4565b615715565b1561549c57565b60405162461bcd60e51b8152806154b5600482016154b9565b0390fd5b60809060208152603260208201527f4552433732313a207472616e7366657220746f206e6f6e20455243373231526560408201527131b2b4bb32b91034b6b83632b6b2b73a32b960711b60608201520190565b906001600160a01b038080615520846153ae565b16931691838314938415615553575b50831561553d575b50505090565b615549919293506153d1565b1614388080615537565b909350600052600760205260406000208260005260205260ff60406000205416923861552f565b1561558157565b60405162461bcd60e51b815260206004820152602560248201527f4552433732313a207472616e736665722066726f6d20696e636f72726563742060448201526437bbb732b960d91b6064820152608490fd5b906155fc916155e2846153ae565b6001600160a01b039391841692849290918316841461557a565b16918215615694578161561991615612866153ae565b161461557a565b7fddf252ad1be2c89b69c2b068fc378daa952ba7f163c4a11628f55a4df523b3ef60008481526006602052604081206001600160601b0360a01b9081815416905583825260056020526040822060001981540190558482526040822060018154019055858252600460205284604083209182541617905580a4565b60405162461bcd60e51b8152602060048201526024808201527f4552433732313a207472616e7366657220746f20746865207a65726f206164646044820152637265737360e01b6064820152608490fd5b3d15615710573d906156f682614ee9565b916157046040519384614ec8565b82523d6000602084013e565b606090565b91926000929190813b1561580a5760209161576b9185604051958680958194630a85bd0160e11b9b8c845233600485015260018060a01b0380951660248501526044840152608060648401526084830190614b55565b0393165af1908290826157bb575b50506157ad576157876156e5565b805190816157a85760405162461bcd60e51b8152806154b5600482016154b9565b602001fd5b6001600160e01b0319161490565b909192506020813d8211615802575b816157d760209383614ec8565b810103126157fe5751906001600160e01b0319821682036157fb5750903880615779565b80fd5b5080fd5b3d91506157ca565b5050505050600190565b1561581b57565b60405162461bcd60e51b8152602060048201526016602482015275141c9bd91d58dd08191bd95cc81b9bdd08195e1a5cdd60521b6044820152606490fd5b1561586057565b60405162461bcd60e51b8152602060048201526012602482015271141c9bd91d58dd081a5cc819195b195d195960721b6044820152606490fd5b903590601e19813603018212156104fb57018035906001600160401b0382116104fb576020019181360383136104fb57565b91908203918211613c3c57565b8181106158e4575050565b600081556001016158d9565b9190601f81116158ff57505050565b61517c926000526020600020906020601f840160051c8301931061592b575b601f0160051c01906158d9565b909150819061591e565b8054600160401b811015612354576159549060019283820181556151e4565b929092615ff7578051835560209283820151838201556040820151600282015560608201519060039182820155600480820160018060a01b0390816080870151166001600160601b0360a01b825416179055600583019060a08601511681549060ff60a01b60c0880151151560a01b16916affffffffffffffffffffff60a81b161717905560e060068301940151958651928351956001600160401b0396878111615fe257615a0781611ef38454615104565b8084601f97888311600114615f8057600092615f75575b505060001982891b1c191690891b1790555b6007810182890151805190888211615d3f578190615a52826119198654615104565b8590888311600114615f1357600092615f08575b505060001982891b1c191690891b1790555b600881016040890151805190888211615d3f578190615a9b826119198654615104565b8590888311600114615ea657600092615e9b575b505060001982891b1c191690891b1790555b600981016060890151805190888211615d3f578190615ae4826119198654615104565b8590888311600114615e3957600092615e2e575b505060001982891b1c191690891b1790555b600a81016080890151805190888211615d3f578190615b2d826119198654615104565b8590888311600114615dcc57600092615dc1575b505060001982891b1c191690891b1790555b600b810160a0890151805190888211615d3f578190615b76826119198654615104565b8590888311600114615d5f57600092615d54575b505060001982891b1c191690891b1790555b600c810160c0890151805190888211615d3f57615bc382615bbd8554615104565b856158f0565b8490878311600114615cd2579180600d949260e09694600092615cc7575b5050600019828b1b1c1916908b1b1790555b01970151918251958611615cb25750615c1685615c108954615104565b896158f0565b80928511600114615c4c5750938394918492600095615c41575b50501b92600019911b1c1916179055565b015193503880615c30565b92919084601f1981168860005285600020956000905b89838310615c985750505010615c7e575b50505050811b019055565b01519060f884600019921b161c1916905538808080615c73565b858701518955909701969485019488935090810190615c62565b604190634e487b7160e01b6000525260246000fd5b015190503880615be1565b8a9291601f1983169185600052876000209260005b89828210615d295750509160e09795939185600d98969410615d11575b505050811b019055615bf3565b0151600019838d1b60f8161c19169055388080615d04565b8385015186558f97909501949384019301615ce7565b604186634e487b7160e01b6000525260246000fd5b015190503880615b8a565b908b9350601f1983169185600052876000209260005b89828210615dab5750508411615d93575b505050811b019055615b9c565b0151600019838b1b60f8161c19169055388080615d86565b8385015186558f97909501949384019301615d75565b015190503880615b41565b908b9350601f1983169185600052876000209260005b89828210615e185750508411615e00575b505050811b019055615b53565b0151600019838b1b60f8161c19169055388080615df3565b8385015186558f97909501949384019301615de2565b015190503880615af8565b908b9350601f1983169185600052876000209260005b89828210615e855750508411615e6d575b505050811b019055615b0a565b0151600019838b1b60f8161c19169055388080615e60565b8385015186558f97909501949384019301615e4f565b015190503880615aaf565b908b9350601f1983169185600052876000209260005b89828210615ef25750508411615eda575b505050811b019055615ac1565b0151600019838b1b60f8161c19169055388080615ecd565b8385015186558f97909501949384019301615ebc565b015190503880615a66565b908b9350601f1983169185600052876000209260005b89828210615f5f5750508411615f47575b505050811b019055615a78565b0151600019838b1b60f8161c19169055388080615f3a565b8385015186558f97909501949384019301615f29565b015190503880615a1e565b908b9350601f1983169185600052876000209260005b89828210615fcc5750508411615fb4575b505050811b019055615a30565b0151600019838b1b60f8161c19169055388080615fa7565b8385015186558f97909501949384019301615f96565b604185634e487b7160e01b6000525260246000fd5b634e487b7160e01b600052600060045260246000fd5b6001600160401b0381116123545760051b60200190565b1561602b57565b60405162461bcd60e51b815260206004820152602560248201527f4f6e6c792076657269666965642073656c6c6572206f72206f776e657220616c6044820152641b1bddd95960da1b6064820152608490fd5b6000198114613c3c5760010190565b6001600160a01b031680156160ec57600080809381935af16160ad6156e5565b50156160b557565b60405162461bcd60e51b815260206004820152600f60248201526e151c985b9cd9995c8819985a5b1959608a1b6044820152606490fd5b60405162461bcd60e51b815260206004820152600f60248201526e496e76616c6964206164647265737360881b6044820152606490fd5b1561612a57565b60405162461bcd60e51b81526020600482015260146024820152734e616d652063616e6e6f7420626520656d70747960601b6044820152606490fd5b1561616d57565b60405162461bcd60e51b815260206004820152601b60248201527f4465736372697074696f6e2063616e6e6f7420626520656d70747900000000006044820152606490fd5b156161b957565b60405162461bcd60e51b815260206004820152601c60248201527f5072696365206d7573742062652067726561746572207468616e2030000000006044820152606490fd5b1561620557565b60405162461bcd60e51b815260206004820152601c60248201527f53746f636b206d7573742062652067726561746572207468616e2030000000006044820152606490fd5b1561625157565b60405162461bcd60e51b8152602060048201526015602482015274436f6c6f722063616e6e6f7420626520656d70747960581b6044820152606490fd5b903590601e19813603018212156104fb57018035906001600160401b0382116104fb57602001918160051b360383136104fb57565b156162ca57565b60405162461bcd60e51b8152602060048201526016602482015275496d616765732063616e6e6f7420626520656d70747960501b6044820152606490fd5b1561630f57565b60405162461bcd60e51b815260206004820152601c60248201527f496d616765732063616e6e6f74206265206d6f7265207468616e2035000000006044820152606490fd5b1561635b57565b60405162461bcd60e51b815260206004820152601460248201527353697a652063616e6e6f7420626520656d70747960601b6044820152606490fd5b1561639e57565b60405162461bcd60e51b815260206004820152601860248201527f43617465676f72792063616e6e6f7420626520656d70747900000000000000006044820152606490fd5b156163ea57565b60405162461bcd60e51b815260206004820152601c60248201527f5375622d63617465676f72792063616e6e6f7420626520656d707479000000006044820152606490fd5b1561643657565b60405162461bcd60e51b81526020600482015260156024820152744d6f64656c2063616e6e6f7420626520656d70747960581b6044820152606490fd5b1561647a57565b60405162461bcd60e51b81526020600482015260156024820152744272616e642063616e6e6f7420626520656d70747960581b6044820152606490fd5b156164be57565b60405162461bcd60e51b815260206004820152601d60248201527f576569676874206d7573742062652067726561746572207468616e20300000006044820152606490fd5b1561650a57565b60405162461bcd60e51b815260206004820152601a60248201527f534b55206d7573742062652067726561746572207468616e20300000000000006044820152606490fd5b6040519061655c82614e5a565b8161024060009182815282602082015260609283604083015283808301528060808301528060a08301528360c08301528360e08301528361010083015283610120830152836101408301528061016083015283610180830152836101a0830152806101c0830152806101e0830152806102008301526102208201520152565b6165e58154615104565b90816165ef575050565b81601f60009311600114616601575055565b908083918252616620601f60208420940160051c8401600185016158d9565b5555565b90600160401b81116123545781549181815582821061664257505050565b600052602060002091820191015b81811061665b575050565b806166676001926165db565b01616650565b8151815560019182820160209060018060a01b0382840151166001600160601b0360a01b8254161790556040820151600284015560038301906060830151948551916001600160401b038311612354576166cb836119198654615104565b80601f84116001146167235750918080608095936004979561517c9a600094616718575b50501b916000199060031b1c19161790555b0151151591019060ff801983541691151516179055565b0151925038806166ef565b9193949596601f1984168660005283600020936000905b8282106167805750509260809592859261517c9a99966004999610616767575b505050811b019055616701565b015160001960f88460031b161c1916905538808061675a565b80888697829497870151815501960194019061673a565b1561679e57565b60405162461bcd60e51b815260206004820152601c60248201527f4552433732313a20746f6b656e20616c7265616479206d696e746564000000006044820152606490fd5b906040516167f081614e92565b608060ff600483958054855260018060a01b036001820154166020860152600281015460408601526168246003820161513e565b60608601520154161515910152565b9061683d8261600d565b61684a6040519182614ec8565b828152809261685b601f199161600d565b019060005b82811061686c57505050565b60209061687761654f565b82828501015201616860565b80518210156152005760209160051b010190565b604051906168a482614e92565b60006080838281528260208201528260408201526060808201520152565b805482101561520057600052600560206000209102019060009056fea2646970667358221220f3dd6e5d0c2bf02215b1c964612447549c9bb5078f3fb6f109df4edcc5d3b39d64736f6c63430008130033","opcodes":"PUSH1 0x80 CALLVALUE PUSH3 0x377 JUMPI PUSH1 0x1F SWAP1 PUSH1 0x1F NOT PUSH1 0x1 PUSH1 0x1 PUSH1 0x40 SHL SUB PUSH3 0x6CC7 CODESIZE DUP2 SWAP1 SUB DUP6 DUP2 ADD DUP5 AND DUP6 ADD DUP4 DUP2 GT DUP7 DUP3 LT OR PUSH3 0x37C JUMPI DUP6 SWAP3 DUP3 SWAP2 PUSH1 0x40 MSTORE DUP4 CODECOPY PUSH1 0x20 SWAP5 DUP6 SWAP2 DUP2 ADD SUB SLT PUSH3 0x377 JUMPI MLOAD SWAP4 PUSH3 0x53 PUSH3 0x392 JUMP JUMPDEST SWAP3 PUSH1 0x7 DUP5 MSTORE PUSH7 0x48656D53686F7 PUSH1 0xCC SHL DUP6 DUP6 ADD MSTORE PUSH3 0x71 PUSH3 0x392 JUMP JUMPDEST PUSH1 0x3 DUP1 DUP3 MSTORE PUSH3 0x48737 PUSH1 0xEC SHL DUP8 DUP4 ADD MSTORE PUSH1 0x0 DUP1 SLOAD CALLER PUSH1 0x1 PUSH1 0x1 PUSH1 0xA0 SHL SUB NOT DUP3 AND DUP2 OR DUP4 SSTORE SWAP3 SWAP9 SWAP4 SWAP5 SWAP2 SWAP4 SWAP3 SWAP1 PUSH1 0x1 PUSH1 0x1 PUSH1 0xA0 SHL SUB AND PUSH32 0x8BE0079C531659141344CD1FD0A4F28419497F9722A3DAAFE3B4186F6B6457E0 DUP6 DUP1 LOG3 PUSH1 0x1 SWAP7 DUP8 DUP1 SSTORE DUP1 MLOAD SWAP1 DUP8 DUP3 GT PUSH3 0x363 JUMPI PUSH1 0x2 SLOAD DUP10 DUP2 DUP2 SHR SWAP2 AND DUP1 ISZERO PUSH3 0x358 JUMPI JUMPDEST DUP6 DUP3 LT EQ PUSH3 0x344 JUMPI SWAP1 DUP2 DUP9 DUP5 SWAP4 GT PUSH3 0x2F0 JUMPI JUMPDEST POP DUP5 SWAP1 DUP9 DUP4 GT PUSH1 0x1 EQ PUSH3 0x28E JUMPI DUP7 SWAP3 PUSH3 0x282 JUMPI JUMPDEST POP POP PUSH1 0x0 NOT DUP3 DUP12 SHL SHR NOT AND SWAP1 DUP9 SHL OR PUSH1 0x2 SSTORE JUMPDEST DUP4 MLOAD SWAP6 DUP7 GT PUSH3 0x26E JUMPI DUP8 SLOAD DUP8 DUP2 DUP2 SHR SWAP2 AND DUP1 ISZERO PUSH3 0x263 JUMPI JUMPDEST DUP4 DUP3 LT EQ PUSH3 0x24F JUMPI DUP6 DUP2 GT PUSH3 0x207 JUMPI JUMPDEST POP DUP2 SWAP5 DUP7 GT PUSH1 0x1 EQ PUSH3 0x1A2 JUMPI POP POP SWAP2 DUP4 SWAP5 SWAP2 DUP5 SWAP4 SWAP5 PUSH3 0x196 JUMPI JUMPDEST POP POP SHL SWAP2 PUSH1 0x0 NOT SWAP1 DUP5 SHL SHR NOT AND OR SWAP1 SSTORE JUMPDEST PUSH1 0xB SSTORE PUSH1 0x40 MLOAD PUSH2 0x6914 SWAP1 DUP2 PUSH3 0x3B3 DUP3 CODECOPY RETURN JUMPDEST ADD MLOAD SWAP3 POP CODESIZE DUP1 PUSH3 0x172 JUMP JUMPDEST DUP8 DUP4 MSTORE DUP2 DUP4 KECCAK256 SWAP5 SWAP4 SWAP3 DUP7 SWAP3 SWAP2 DUP4 AND SWAP2 JUMPDEST DUP9 DUP4 DUP4 LT PUSH3 0x1EC JUMPI POP POP POP LT PUSH3 0x1D3 JUMPI JUMPDEST POP POP POP DUP2 SHL ADD SWAP1 SSTORE PUSH3 0x183 JUMP JUMPDEST ADD MLOAD PUSH1 0x0 NOT DUP4 DUP7 SHL PUSH1 0xF8 AND SHR NOT AND SWAP1 SSTORE CODESIZE DUP1 DUP1 PUSH3 0x1C5 JUMP JUMPDEST DUP6 DUP8 ADD MLOAD DUP9 SSTORE SWAP1 SWAP7 ADD SWAP6 SWAP5 DUP6 ADD SWAP5 DUP8 SWAP4 POP SWAP1 DUP2 ADD SWAP1 PUSH3 0x1B2 JUMP JUMPDEST DUP9 DUP5 MSTORE DUP3 DUP5 KECCAK256 DUP7 DUP1 DUP10 ADD PUSH1 0x5 SHR DUP3 ADD SWAP3 DUP6 DUP11 LT PUSH3 0x245 JUMPI JUMPDEST ADD PUSH1 0x5 SHR ADD SWAP1 DUP9 SWAP1 JUMPDEST DUP3 DUP2 LT PUSH3 0x239 JUMPI POP POP PUSH3 0x156 JUMP JUMPDEST DUP6 DUP2 SSTORE ADD DUP9 SWAP1 PUSH3 0x229 JUMP JUMPDEST SWAP3 POP DUP2 SWAP3 PUSH3 0x220 JUMP JUMPDEST PUSH4 0x4E487B71 PUSH1 0xE0 SHL DUP5 MSTORE PUSH1 0x22 PUSH1 0x4 MSTORE PUSH1 0x24 DUP5 REVERT JUMPDEST SWAP1 PUSH1 0x7F AND SWAP1 PUSH3 0x144 JUMP JUMPDEST PUSH4 0x4E487B71 PUSH1 0xE0 SHL DUP4 MSTORE PUSH1 0x41 PUSH1 0x4 MSTORE PUSH1 0x24 DUP4 REVERT JUMPDEST ADD MLOAD SWAP1 POP CODESIZE DUP1 PUSH3 0x117 JUMP JUMPDEST SWAP1 DUP5 DUP12 SWAP5 AND SWAP2 PUSH1 0x2 DUP9 MSTORE DUP7 DUP9 KECCAK256 SWAP3 DUP9 JUMPDEST DUP9 DUP3 DUP3 LT PUSH3 0x2D9 JUMPI POP POP DUP5 GT PUSH3 0x2C0 JUMPI JUMPDEST POP POP POP DUP2 SHL ADD PUSH1 0x2 SSTORE PUSH3 0x12A JUMP JUMPDEST ADD MLOAD PUSH1 0x0 NOT DUP4 DUP14 SHL PUSH1 0xF8 AND SHR NOT AND SWAP1 SSTORE CODESIZE DUP1 DUP1 PUSH3 0x2B1 JUMP JUMPDEST DUP4 DUP6 ADD MLOAD DUP7 SSTORE DUP15 SWAP8 SWAP1 SWAP6 ADD SWAP5 SWAP4 DUP5 ADD SWAP4 ADD PUSH3 0x29E JUMP JUMPDEST SWAP1 SWAP2 POP PUSH1 0x2 DUP7 MSTORE DUP5 DUP7 KECCAK256 DUP9 DUP1 DUP6 ADD PUSH1 0x5 SHR DUP3 ADD SWAP3 DUP8 DUP7 LT PUSH3 0x33A JUMPI JUMPDEST SWAP2 DUP13 SWAP2 DUP7 SWAP6 SWAP5 SWAP4 ADD PUSH1 0x5 SHR ADD SWAP2 JUMPDEST DUP3 DUP2 LT PUSH3 0x32B JUMPI POP POP PUSH3 0x101 JUMP JUMPDEST DUP9 DUP2 SSTORE DUP6 SWAP5 POP DUP13 SWAP2 ADD PUSH3 0x31B JUMP JUMPDEST SWAP3 POP DUP2 SWAP3 PUSH3 0x30D JUMP JUMPDEST PUSH4 0x4E487B71 PUSH1 0xE0 SHL DUP7 MSTORE PUSH1 0x22 PUSH1 0x4 MSTORE PUSH1 0x24 DUP7 REVERT JUMPDEST SWAP1 PUSH1 0x7F AND SWAP1 PUSH3 0xEC JUMP JUMPDEST PUSH4 0x4E487B71 PUSH1 0xE0 SHL DUP6 MSTORE PUSH1 0x41 PUSH1 0x4 MSTORE PUSH1 0x24 DUP6 REVERT JUMPDEST PUSH1 0x0 DUP1 REVERT JUMPDEST PUSH4 0x4E487B71 PUSH1 0xE0 SHL PUSH1 0x0 MSTORE PUSH1 0x41 PUSH1 0x4 MSTORE PUSH1 0x24 PUSH1 0x0 REVERT JUMPDEST PUSH1 0x40 DUP1 MLOAD SWAP2 SWAP1 DUP3 ADD PUSH1 0x1 PUSH1 0x1 PUSH1 0x40 SHL SUB DUP2 GT DUP4 DUP3 LT OR PUSH3 0x37C JUMPI PUSH1 0x40 MSTORE JUMP INVALID PUSH1 0x80 DUP1 PUSH1 0x40 MSTORE PUSH1 0x4 CALLDATASIZE LT ISZERO PUSH2 0x13 JUMPI PUSH1 0x0 DUP1 REVERT JUMPDEST PUSH1 0x0 CALLDATALOAD PUSH1 0xE0 SHR SWAP1 DUP2 PUSH3 0xD64E76 EQ PUSH2 0x4B28 JUMPI POP DUP1 PUSH4 0x1FFC9A7 EQ PUSH2 0x4ABA JUMPI DUP1 PUSH4 0x2EE3A52 EQ PUSH2 0x4823 JUMPI DUP1 PUSH4 0x6FDDE03 EQ PUSH2 0x477D JUMPI DUP1 PUSH4 0x81812FC EQ PUSH2 0x475F JUMPI DUP1 PUSH4 0x95EA7B3 EQ PUSH2 0x45E5 JUMPI DUP1 PUSH4 0x11AA5B34 EQ PUSH2 0x4259 JUMPI DUP1 PUSH4 0x1385FD92 EQ PUSH2 0x41F0 JUMPI DUP1 PUSH4 0x16D81B38 EQ PUSH2 0x400D JUMPI DUP1 PUSH4 0x2148893F EQ PUSH2 0x39F1 JUMPI DUP1 PUSH4 0x23B872DD EQ PUSH2 0x3FE4 JUMPI DUP1 PUSH4 0x24D41A03 EQ PUSH2 0x3DBF JUMPI DUP1 PUSH4 0x3C2575D5 EQ PUSH2 0x3CDA JUMPI DUP1 PUSH4 0x3CCFD60B EQ PUSH2 0x3B52 JUMPI DUP1 PUSH4 0x42842E0E EQ PUSH2 0x3B2A JUMPI DUP1 PUSH4 0x45DE84DB EQ PUSH2 0x3AE8 JUMPI DUP1 PUSH4 0x52C9224C EQ PUSH2 0x3A2B JUMPI DUP1 PUSH4 0x607EB4E4 EQ PUSH2 0x39F1 JUMPI DUP1 PUSH4 0x6352211E EQ PUSH2 0x39C1 JUMPI DUP1 PUSH4 0x661E1712 EQ PUSH2 0x3163 JUMPI DUP1 PUSH4 0x70A08231 EQ PUSH2 0x30CC JUMPI DUP1 PUSH4 0x715018A6 EQ PUSH2 0x3073 JUMPI DUP1 PUSH4 0x7ACC0B20 EQ PUSH2 0x2EDB JUMPI DUP1 PUSH4 0x8DA5CB5B EQ PUSH2 0x2EB2 JUMPI DUP1 PUSH4 0x95D89B41 EQ PUSH2 0x2DD0 JUMPI DUP1 PUSH4 0x97B6F393 EQ PUSH2 0x2BD4 JUMPI DUP1 PUSH4 0x9D4A2255 EQ PUSH2 0x2A41 JUMPI DUP1 PUSH4 0x9FA44DBF EQ PUSH2 0x29F9 JUMPI DUP1 PUSH4 0xA22CB465 EQ PUSH2 0x291E JUMPI DUP1 PUSH4 0xA22FB387 EQ PUSH2 0x2858 JUMPI DUP1 PUSH4 0xAF55ED64 EQ PUSH2 0x2827 JUMPI DUP1 PUSH4 0xB1191052 EQ PUSH2 0x1CAC JUMPI DUP1 PUSH4 0xB235B4A9 EQ PUSH2 0xD6B JUMPI DUP1 PUSH4 0xB27E1697 EQ PUSH2 0xC86 JUMPI DUP1 PUSH4 0xB88D4FDE EQ PUSH2 0xC25 JUMPI DUP1 PUSH4 0xB95A0628 EQ PUSH2 0xBEA JUMPI DUP1 PUSH4 0xB9DB15B4 EQ PUSH2 0x9B4 JUMPI DUP1 PUSH4 0xC1302B34 EQ PUSH2 0x95C JUMPI DUP1 PUSH4 0xC64B8A8F EQ PUSH2 0x91D JUMPI DUP1 PUSH4 0xC87B56DD EQ PUSH2 0x8AD JUMPI DUP1 PUSH4 0xE01EF6E6 EQ PUSH2 0x88F JUMPI DUP1 PUSH4 0xE585CB2C EQ PUSH2 0x7FF JUMPI DUP1 PUSH4 0xE985E9C5 EQ PUSH2 0x7A9 JUMPI DUP1 PUSH4 0xED90C7B7 EQ PUSH2 0x5C4 JUMPI DUP1 PUSH4 0xF2FDE38B EQ PUSH2 0x500 JUMPI PUSH4 0xFDCA4CA3 EQ PUSH2 0x218 JUMPI PUSH1 0x0 DUP1 REVERT JUMPDEST CALLVALUE PUSH2 0x4FB JUMPI PUSH1 0x0 CALLDATASIZE PUSH1 0x3 NOT ADD SLT PUSH2 0x4FB JUMPI PUSH1 0x8 DUP1 SLOAD PUSH1 0x0 PUSH1 0x1 JUMPDEST DUP3 DUP2 GT ISZERO PUSH2 0x49A JUMPI POP PUSH2 0x244 SWAP1 PUSH2 0x6833 JUMP JUMPDEST SWAP1 PUSH1 0x0 SWAP3 PUSH1 0x1 JUMPDEST DUP3 DUP2 GT ISZERO PUSH2 0x265 JUMPI PUSH1 0x40 MLOAD DUP1 PUSH2 0x261 DUP7 DUP3 PUSH2 0x4DCC JUMP JUMPDEST SUB SWAP1 RETURN JUMPDEST PUSH1 0x0 DUP2 DUP2 MSTORE PUSH1 0xE PUSH1 0x20 DUP2 DUP2 MSTORE PUSH1 0x40 SWAP1 SWAP3 KECCAK256 PUSH1 0x1 DUP2 ADD SLOAD PUSH1 0x1 PUSH1 0x1 PUSH1 0xA0 SHL SUB AND SWAP3 SWAP2 SWAP1 CALLER DUP5 EQ DUP1 PUSH2 0x488 JUMPI JUMPDEST PUSH2 0x2A7 JUMPI JUMPDEST POP POP POP POP PUSH2 0x2A2 SWAP1 PUSH2 0x607E JUMP JUMPDEST PUSH2 0x24B JUMP JUMPDEST PUSH1 0x40 SWAP9 SWAP5 SWAP9 MLOAD SWAP4 PUSH2 0x2B7 DUP6 PUSH2 0x4E5A JUMP JUMPDEST DUP2 SLOAD DUP6 MSTORE DUP4 DUP6 ADD MSTORE PUSH2 0x2CB PUSH1 0x2 DUP3 ADD PUSH2 0x513E JUMP JUMPDEST PUSH1 0x40 DUP6 ADD MSTORE PUSH2 0x2DC PUSH1 0x3 DUP3 ADD PUSH2 0x513E JUMP JUMPDEST PUSH1 0x60 DUP6 ADD MSTORE PUSH1 0x4 DUP2 ADD SLOAD PUSH1 0x80 DUP6 ADD MSTORE PUSH1 0x5 SWAP2 DUP3 DUP3 ADD SLOAD PUSH1 0xA0 DUP7 ADD MSTORE PUSH2 0x303 PUSH1 0x6 DUP4 ADD PUSH2 0x513E JUMP JUMPDEST PUSH1 0xC0 DUP7 ADD MSTORE PUSH2 0x314 PUSH1 0x7 DUP4 ADD PUSH2 0x513E JUMP JUMPDEST PUSH1 0xE0 DUP7 ADD MSTORE DUP7 DUP3 ADD DUP1 SLOAD PUSH2 0x327 DUP2 PUSH2 0x600D JUMP JUMPDEST SWAP2 PUSH2 0x335 PUSH1 0x40 MLOAD SWAP4 DUP5 PUSH2 0x4EC8 JUMP JUMPDEST DUP2 DUP4 MSTORE PUSH1 0x0 SWAP1 DUP2 MSTORE DUP7 DUP2 KECCAK256 SWAP1 DUP8 DUP1 DUP6 ADD JUMPDEST DUP5 DUP4 LT PUSH2 0x46A JUMPI POP POP POP POP POP PUSH2 0x100 DUP7 ADD MSTORE PUSH2 0x364 PUSH1 0x9 DUP4 ADD PUSH2 0x513E JUMP JUMPDEST PUSH2 0x120 DUP7 ADD MSTORE PUSH2 0x376 PUSH1 0xA DUP4 ADD PUSH2 0x513E JUMP JUMPDEST PUSH2 0x140 DUP7 ADD MSTORE PUSH1 0xB DUP3 ADD SLOAD PUSH2 0x160 DUP7 ADD MSTORE PUSH2 0x393 PUSH1 0xC DUP4 ADD PUSH2 0x513E JUMP JUMPDEST PUSH2 0x180 DUP7 ADD MSTORE PUSH2 0x3A5 PUSH1 0xD DUP4 ADD PUSH2 0x513E JUMP JUMPDEST PUSH2 0x1A0 DUP7 ADD MSTORE DUP2 ADD SLOAD PUSH2 0x1C0 DUP6 ADD MSTORE PUSH1 0xF DUP2 ADD SLOAD PUSH1 0xFF DUP1 DUP3 AND ISZERO ISZERO PUSH2 0x1E0 DUP8 ADD MSTORE DUP2 DUP9 SHR DUP2 AND ISZERO ISZERO PUSH2 0x200 DUP8 ADD MSTORE PUSH1 0x10 SWAP2 DUP3 SHR AND ISZERO ISZERO PUSH2 0x220 DUP7 ADD MSTORE ADD DUP1 SLOAD SWAP2 SWAP1 PUSH2 0x3EF DUP4 PUSH2 0x600D JUMP JUMPDEST SWAP4 PUSH2 0x3FD PUSH1 0x40 MLOAD SWAP6 DUP7 PUSH2 0x4EC8 JUMP JUMPDEST DUP4 DUP6 MSTORE PUSH1 0x0 SWAP2 DUP3 MSTORE DUP1 DUP3 KECCAK256 SWAP2 DUP2 DUP7 ADD JUMPDEST DUP6 DUP3 LT PUSH2 0x44E JUMPI POP POP POP POP POP POP SWAP2 DUP2 PUSH2 0x2A2 SWAP4 PUSH2 0x240 PUSH2 0x444 SWAP5 ADD MSTORE PUSH2 0x433 DUP3 DUP9 PUSH2 0x6883 JUMP JUMPDEST MSTORE PUSH2 0x43E DUP2 DUP8 PUSH2 0x6883 JUMP JUMPDEST POP PUSH2 0x607E JUMP JUMPDEST SWAP5 SWAP1 CODESIZE DUP1 DUP1 PUSH2 0x295 JUMP JUMPDEST DUP5 DUP4 PUSH1 0x1 SWAP3 PUSH2 0x45C DUP8 PUSH2 0x67E3 JUMP JUMPDEST DUP2 MSTORE ADD SWAP5 ADD SWAP2 ADD SWAP1 SWAP3 PUSH2 0x40D JUMP JUMPDEST PUSH1 0x1 SWAP2 DUP3 SWAP2 PUSH2 0x478 DUP7 PUSH2 0x513E JUMP JUMPDEST DUP2 MSTORE ADD SWAP4 ADD SWAP2 ADD SWAP1 SWAP2 DUP9 SWAP1 PUSH2 0x346 JUMP JUMPDEST POP PUSH1 0xFF PUSH1 0xF DUP3 ADD SLOAD PUSH1 0x10 SHR AND ISZERO PUSH2 0x290 JUMP JUMPDEST PUSH1 0x0 DUP2 DUP2 MSTORE PUSH1 0xE PUSH1 0x20 MSTORE PUSH1 0x40 SWAP1 KECCAK256 PUSH1 0x1 DUP2 ADD SLOAD PUSH1 0x1 PUSH1 0x1 PUSH1 0xA0 SHL SUB AND CALLER EQ SWAP1 DUP2 PUSH2 0x4E8 JUMPI JUMPDEST POP PUSH2 0x4D3 JUMPI JUMPDEST PUSH2 0x4CE SWAP1 PUSH2 0x607E JUMP JUMPDEST PUSH2 0x232 JUMP JUMPDEST SWAP1 PUSH2 0x4E0 PUSH2 0x4CE SWAP2 PUSH2 0x607E JUMP JUMPDEST SWAP2 SWAP1 POP PUSH2 0x4C5 JUMP JUMPDEST PUSH1 0xFF SWAP2 POP PUSH1 0xF ADD SLOAD PUSH1 0x10 SHR AND ISZERO CODESIZE PUSH2 0x4BF JUMP JUMPDEST PUSH1 0x0 DUP1 REVERT JUMPDEST CALLVALUE PUSH2 0x4FB JUMPI PUSH1 0x20 CALLDATASIZE PUSH1 0x3 NOT ADD SLT PUSH2 0x4FB JUMPI PUSH2 0x519 PUSH2 0x4E2E JUMP JUMPDEST PUSH2 0x521 PUSH2 0x530A JUMP JUMPDEST PUSH1 0x1 PUSH1 0x1 PUSH1 0xA0 SHL SUB SWAP1 DUP2 AND SWAP1 DUP2 ISZERO PUSH2 0x570 JUMPI PUSH1 0x0 SLOAD DUP3 PUSH1 0x1 PUSH1 0x1 PUSH1 0x60 SHL SUB PUSH1 0xA0 SHL DUP3 AND OR PUSH1 0x0 SSTORE AND PUSH32 0x8BE0079C531659141344CD1FD0A4F28419497F9722A3DAAFE3B4186F6B6457E0 PUSH1 0x0 DUP1 LOG3 STOP JUMPDEST PUSH1 0x40 MLOAD PUSH3 0x461BCD PUSH1 0xE5 SHL DUP2 MSTORE PUSH1 0x20 PUSH1 0x4 DUP3 ADD MSTORE PUSH1 0x26 PUSH1 0x24 DUP3 ADD MSTORE PUSH32 0x4F776E61626C653A206E6577206F776E657220697320746865207A65726F2061 PUSH1 0x44 DUP3 ADD MSTORE PUSH6 0x646472657373 PUSH1 0xD0 SHL PUSH1 0x64 DUP3 ADD MSTORE PUSH1 0x84 SWAP1 REVERT JUMPDEST CALLVALUE PUSH2 0x4FB JUMPI PUSH1 0x20 DUP1 PUSH1 0x3 NOT CALLDATASIZE ADD SLT PUSH2 0x4FB JUMPI CALLER PUSH1 0x0 SWAP1 DUP2 MSTORE PUSH1 0xD DUP3 MSTORE PUSH1 0x40 SWAP1 KECCAK256 SLOAD PUSH1 0x4 CALLDATALOAD SWAP2 SWAP1 PUSH1 0x1 PUSH1 0x1 PUSH1 0xA0 SHL SUB SWAP1 DUP2 AND DUP1 ISZERO PUSH2 0x76D JUMPI DUP1 PUSH1 0x0 MSTORE PUSH1 0xC DUP4 MSTORE PUSH1 0xFF PUSH1 0x40 PUSH1 0x0 KECCAK256 SLOAD AND SWAP1 PUSH1 0x4 DUP3 LT ISZERO PUSH2 0x757 JUMPI PUSH1 0x2 PUSH2 0x62B SWAP3 EQ SWAP1 DUP2 ISZERO PUSH2 0x749 JUMPI JUMPDEST POP PUSH2 0x6024 JUMP JUMPDEST DUP3 PUSH1 0x0 MSTORE PUSH1 0xF DUP3 MSTORE PUSH2 0x644 PUSH1 0xFF PUSH1 0x40 PUSH1 0x0 KECCAK256 SLOAD AND PUSH2 0x5814 JUMP JUMPDEST DUP3 PUSH1 0x0 MSTORE PUSH1 0xE DUP3 MSTORE CALLER DUP2 PUSH1 0x1 PUSH1 0x40 PUSH1 0x0 KECCAK256 ADD SLOAD AND EQ SWAP1 DUP2 ISZERO PUSH2 0x73B JUMPI JUMPDEST POP ISZERO PUSH2 0x6E7 JUMPI DUP2 PUSH1 0x0 MSTORE PUSH1 0xE DUP2 MSTORE PUSH1 0xFF PUSH1 0xF PUSH1 0x40 PUSH1 0x0 KECCAK256 ADD SLOAD PUSH1 0x10 SHR AND PUSH2 0x6A3 JUMPI PUSH1 0x0 SWAP2 DUP3 MSTORE PUSH1 0xE SWAP1 MSTORE PUSH1 0x40 SWAP1 KECCAK256 PUSH1 0xF ADD DUP1 SLOAD PUSH3 0xFF0000 NOT AND PUSH3 0x10000 OR SWAP1 SSTORE STOP JUMPDEST PUSH1 0x64 SWAP1 PUSH1 0x40 MLOAD SWAP1 PUSH3 0x461BCD PUSH1 0xE5 SHL DUP3 MSTORE PUSH1 0x4 DUP3 ADD MSTORE PUSH1 0x1A PUSH1 0x24 DUP3 ADD MSTORE PUSH32 0x50726F6475637420697320616C72656164792064656C65746564000000000000 PUSH1 0x44 DUP3 ADD MSTORE REVERT JUMPDEST PUSH1 0x84 SWAP1 PUSH1 0x40 MLOAD SWAP1 PUSH3 0x461BCD PUSH1 0xE5 SHL DUP3 MSTORE PUSH1 0x4 DUP3 ADD MSTORE PUSH1 0x27 PUSH1 0x24 DUP3 ADD MSTORE PUSH32 0x4F6E6C792070726F647563742073656C6C6572206F72206F776E65722063616E PUSH1 0x44 DUP3 ADD MSTORE PUSH7 0x2064656C657465 PUSH1 0xC8 SHL PUSH1 0x64 DUP3 ADD MSTORE REVERT JUMPDEST PUSH1 0x0 SLOAD AND CALLER EQ SWAP1 POP DUP4 PUSH2 0x661 JUMP JUMPDEST SWAP1 POP DUP3 PUSH1 0x0 SLOAD AND EQ DUP6 PUSH2 0x625 JUMP JUMPDEST PUSH4 0x4E487B71 PUSH1 0xE0 SHL PUSH1 0x0 MSTORE PUSH1 0x21 PUSH1 0x4 MSTORE PUSH1 0x24 PUSH1 0x0 REVERT JUMPDEST POP PUSH1 0xC DUP3 MSTORE PUSH1 0xFF PUSH1 0x40 PUSH1 0x0 KECCAK256 SLOAD AND PUSH1 0x4 DUP2 LT ISZERO PUSH2 0x757 JUMPI PUSH1 0x2 EQ DUP1 ISZERO PUSH2 0x79C JUMPI JUMPDEST PUSH2 0x797 SWAP1 PUSH2 0x6024 JUMP JUMPDEST PUSH2 0x62B JUMP JUMPDEST POP PUSH1 0x0 SLOAD DUP2 AND CALLER EQ PUSH2 0x78E JUMP JUMPDEST CALLVALUE PUSH2 0x4FB JUMPI PUSH1 0x40 CALLDATASIZE PUSH1 0x3 NOT ADD SLT PUSH2 0x4FB JUMPI PUSH2 0x7C2 PUSH2 0x4E2E JUMP JUMPDEST PUSH2 0x7CA PUSH2 0x4E44 JUMP JUMPDEST SWAP1 PUSH1 0x1 DUP1 PUSH1 0xA0 SHL SUB DUP1 SWAP2 AND PUSH1 0x0 MSTORE PUSH1 0x7 PUSH1 0x20 MSTORE PUSH1 0x40 PUSH1 0x0 KECCAK256 SWAP2 AND PUSH1 0x0 MSTORE PUSH1 0x20 MSTORE PUSH1 0x20 PUSH1 0xFF PUSH1 0x40 PUSH1 0x0 KECCAK256 SLOAD AND PUSH1 0x40 MLOAD SWAP1 ISZERO ISZERO DUP2 MSTORE RETURN JUMPDEST CALLVALUE PUSH2 0x4FB JUMPI PUSH1 0x40 CALLDATASIZE PUSH1 0x3 NOT ADD SLT PUSH2 0x4FB JUMPI PUSH2 0x818 PUSH2 0x4E2E JUMP JUMPDEST PUSH1 0x1 PUSH1 0x1 PUSH1 0xA0 SHL SUB SWAP1 DUP2 AND PUSH1 0x0 SWAP1 DUP2 MSTORE PUSH1 0x15 PUSH1 0x20 MSTORE PUSH1 0x40 SWAP1 KECCAK256 DUP1 SLOAD PUSH1 0x24 CALLDATALOAD SWAP1 DUP2 LT ISZERO PUSH2 0x4FB JUMPI PUSH2 0x847 SWAP2 PUSH2 0x51E4 JUMP JUMPDEST POP SWAP1 PUSH2 0x261 DUP3 SLOAD PUSH1 0x1 DUP5 ADD SLOAD SWAP4 PUSH1 0x2 DUP2 ADD SLOAD SWAP2 PUSH1 0x3 DUP3 ADD SLOAD DUP6 PUSH1 0x4 DUP5 ADD SLOAD AND SWAP1 PUSH2 0x878 PUSH1 0x6 PUSH1 0x5 DUP7 ADD SLOAD SWAP6 ADD PUSH2 0x5216 JUMP JUMPDEST SWAP5 PUSH1 0x40 MLOAD SWAP9 DUP10 SWAP9 PUSH1 0xFF DUP8 PUSH1 0xA0 SHR AND SWAP7 AND SWAP5 DUP10 PUSH2 0x52A8 JUMP JUMPDEST CALLVALUE PUSH2 0x4FB JUMPI PUSH1 0x0 CALLDATASIZE PUSH1 0x3 NOT ADD SLT PUSH2 0x4FB JUMPI PUSH1 0x20 PUSH1 0xB SLOAD PUSH1 0x40 MLOAD SWAP1 DUP2 MSTORE RETURN JUMPDEST CALLVALUE PUSH2 0x4FB JUMPI PUSH1 0x20 CALLDATASIZE PUSH1 0x3 NOT ADD SLT PUSH2 0x4FB JUMPI PUSH2 0x8E7 PUSH2 0x8E2 PUSH1 0x4 CALLDATALOAD PUSH1 0x0 MSTORE PUSH1 0x4 PUSH1 0x20 MSTORE PUSH1 0x1 DUP1 PUSH1 0xA0 SHL SUB PUSH1 0x40 PUSH1 0x0 KECCAK256 SLOAD AND ISZERO ISZERO SWAP1 JUMP JUMPDEST PUSH2 0x5362 JUMP JUMPDEST PUSH1 0x0 PUSH1 0x40 MLOAD PUSH2 0x8F5 DUP2 PUSH2 0x4EAD JUMP JUMPDEST MSTORE PUSH2 0x261 PUSH1 0x40 MLOAD PUSH2 0x905 DUP2 PUSH2 0x4EAD JUMP JUMPDEST PUSH1 0x0 DUP2 MSTORE PUSH1 0x40 MLOAD SWAP2 DUP3 SWAP2 PUSH1 0x20 DUP4 MSTORE PUSH1 0x20 DUP4 ADD SWAP1 PUSH2 0x4B55 JUMP JUMPDEST CALLVALUE PUSH2 0x4FB JUMPI PUSH1 0x20 CALLDATASIZE PUSH1 0x3 NOT ADD SLT PUSH2 0x4FB JUMPI PUSH1 0x1 PUSH1 0x1 PUSH1 0xA0 SHL SUB PUSH2 0x93E PUSH2 0x4E2E JUMP JUMPDEST AND PUSH1 0x0 MSTORE PUSH1 0x12 PUSH1 0x20 MSTORE PUSH1 0x20 PUSH1 0xFF PUSH1 0x40 PUSH1 0x0 KECCAK256 SLOAD AND PUSH1 0x40 MLOAD SWAP1 ISZERO ISZERO DUP2 MSTORE RETURN JUMPDEST CALLVALUE PUSH2 0x4FB JUMPI PUSH1 0x40 CALLDATASIZE PUSH1 0x3 NOT ADD SLT PUSH2 0x4FB JUMPI PUSH2 0x975 PUSH2 0x4E2E JUMP JUMPDEST PUSH1 0x1 PUSH1 0x1 PUSH1 0xA0 SHL SUB AND PUSH1 0x0 SWAP1 DUP2 MSTORE PUSH1 0x10 PUSH1 0x20 MSTORE PUSH1 0x40 SWAP1 KECCAK256 DUP1 SLOAD PUSH1 0x24 CALLDATALOAD SWAP2 SWAP1 DUP3 LT ISZERO PUSH2 0x4FB JUMPI PUSH1 0x20 SWAP2 PUSH2 0x9A6 SWAP2 PUSH2 0x52F2 JUMP JUMPDEST SWAP1 SLOAD PUSH1 0x40 MLOAD SWAP2 PUSH1 0x3 SHL SHR DUP2 MSTORE RETURN JUMPDEST CALLVALUE PUSH2 0x4FB JUMPI PUSH1 0x20 DUP1 PUSH1 0x3 NOT CALLDATASIZE ADD SLT PUSH2 0x4FB JUMPI PUSH1 0x4 CALLDATALOAD PUSH2 0x9D1 PUSH2 0x654F JUMP JUMPDEST POP DUP1 PUSH1 0x0 MSTORE PUSH1 0xE DUP3 MSTORE PUSH2 0x9F2 PUSH1 0xFF PUSH1 0xF PUSH1 0x40 PUSH1 0x0 KECCAK256 ADD SLOAD PUSH1 0x10 SHR AND ISZERO PUSH2 0x5859 JUMP JUMPDEST DUP1 PUSH1 0x0 MSTORE PUSH1 0xF DUP3 MSTORE PUSH2 0xA0B PUSH1 0xFF PUSH1 0x40 PUSH1 0x0 KECCAK256 SLOAD AND PUSH2 0x5814 JUMP JUMPDEST PUSH1 0x0 MSTORE PUSH1 0xE DUP2 MSTORE PUSH1 0x40 PUSH1 0x0 KECCAK256 SWAP1 PUSH1 0x40 MLOAD SWAP2 PUSH2 0xA25 DUP4 PUSH2 0x4E5A JUMP JUMPDEST DUP1 SLOAD DUP4 MSTORE PUSH1 0x1 DUP1 DUP3 ADD SLOAD PUSH1 0x1 PUSH1 0x1 PUSH1 0xA0 SHL SUB AND DUP4 DUP6 ADD MSTORE PUSH2 0xA48 PUSH1 0x2 DUP4 ADD PUSH2 0x513E JUMP JUMPDEST PUSH1 0x40 DUP6 ADD MSTORE PUSH2 0xA59 PUSH1 0x3 DUP4 ADD PUSH2 0x513E JUMP JUMPDEST PUSH1 0x60 DUP6 ADD MSTORE PUSH1 0x4 DUP3 ADD SLOAD PUSH1 0x80 DUP6 ADD MSTORE PUSH1 0x5 SWAP2 DUP3 DUP2 ADD SLOAD PUSH1 0xA0 DUP7 ADD MSTORE PUSH2 0xA80 PUSH1 0x6 DUP3 ADD PUSH2 0x513E JUMP JUMPDEST PUSH1 0xC0 DUP7 ADD MSTORE PUSH2 0xA91 PUSH1 0x7 DUP3 ADD PUSH2 0x513E JUMP JUMPDEST PUSH1 0xE0 DUP7 ADD MSTORE PUSH1 0x8 DUP2 ADD DUP1 SLOAD PUSH2 0xAA5 DUP2 PUSH2 0x600D JUMP JUMPDEST SWAP2 PUSH2 0xAB3 PUSH1 0x40 MLOAD SWAP4 DUP5 PUSH2 0x4EC8 JUMP JUMPDEST DUP2 DUP4 MSTORE PUSH1 0x0 SWAP1 DUP2 MSTORE DUP7 DUP2 KECCAK256 DUP6 DUP9 DUP1 DUP7 ADD JUMPDEST DUP6 DUP6 LT PUSH2 0xBCD JUMPI POP DUP9 DUP12 SWAP3 PUSH1 0x10 DUP10 DUP10 PUSH2 0x100 DUP8 ADD MSTORE PUSH2 0xAE5 PUSH1 0x9 DUP3 ADD PUSH2 0x513E JUMP JUMPDEST PUSH2 0x120 DUP8 ADD MSTORE PUSH2 0xAF7 PUSH1 0xA DUP3 ADD PUSH2 0x513E JUMP JUMPDEST PUSH2 0x140 DUP8 ADD MSTORE PUSH1 0xB DUP2 ADD SLOAD PUSH2 0x160 DUP8 ADD MSTORE PUSH2 0xB14 PUSH1 0xC DUP3 ADD PUSH2 0x513E JUMP JUMPDEST PUSH2 0x180 DUP8 ADD MSTORE PUSH2 0xB26 PUSH1 0xD DUP3 ADD PUSH2 0x513E JUMP JUMPDEST PUSH2 0x1A0 DUP8 ADD MSTORE PUSH1 0xE DUP2 ADD SLOAD PUSH2 0x1C0 DUP8 ADD MSTORE PUSH1 0xFF PUSH1 0xF DUP3 ADD SLOAD DUP2 DUP2 AND ISZERO ISZERO PUSH2 0x1E0 DUP10 ADD MSTORE DUP2 DUP2 PUSH1 0x8 SHR AND ISZERO ISZERO PUSH2 0x200 DUP10 ADD MSTORE DUP4 SHR AND ISZERO ISZERO PUSH2 0x220 DUP8 ADD MSTORE ADD SWAP2 DUP3 SLOAD SWAP1 PUSH2 0xB70 DUP3 PUSH2 0x600D JUMP JUMPDEST SWAP4 PUSH2 0xB7E PUSH1 0x40 MLOAD SWAP6 DUP7 PUSH2 0x4EC8 JUMP JUMPDEST DUP3 DUP6 MSTORE PUSH1 0x0 SWAP1 DUP2 MSTORE DUP6 DUP2 KECCAK256 DUP7 DUP1 DUP8 ADD JUMPDEST DUP6 DUP5 LT PUSH2 0xBB0 JUMPI PUSH2 0x240 DUP11 ADD DUP9 SWAP1 MSTORE PUSH1 0x40 MLOAD DUP3 DUP2 MSTORE DUP1 PUSH2 0x261 DUP2 DUP6 ADD DUP14 PUSH2 0x4C2C JUMP JUMPDEST DUP7 SWAP2 DUP6 SWAP2 PUSH2 0xBBD DUP6 PUSH2 0x67E3 JUMP JUMPDEST DUP2 MSTORE ADD SWAP3 ADD SWAP3 ADD SWAP2 SWAP1 DUP8 SWAP1 PUSH2 0xB8E JUMP JUMPDEST SWAP1 DUP3 SWAP2 PUSH2 0xBD9 DUP6 PUSH2 0x513E JUMP JUMPDEST DUP2 MSTORE ADD SWAP3 ADD SWAP3 ADD SWAP2 SWAP1 DUP9 DUP8 SWAP2 PUSH2 0xAC4 JUMP JUMPDEST CALLVALUE PUSH2 0x4FB JUMPI PUSH1 0x20 CALLDATASIZE PUSH1 0x3 NOT ADD SLT PUSH2 0x4FB JUMPI PUSH1 0x20 PUSH1 0x1 PUSH1 0x1 PUSH1 0xA0 SHL SUB DUP1 PUSH2 0xC0E PUSH2 0x4E2E JUMP JUMPDEST AND PUSH1 0x0 MSTORE PUSH1 0xD DUP3 MSTORE PUSH1 0x40 PUSH1 0x0 KECCAK256 SLOAD AND PUSH1 0x40 MLOAD SWAP1 DUP2 MSTORE RETURN JUMPDEST CALLVALUE PUSH2 0x4FB JUMPI PUSH1 0x80 CALLDATASIZE PUSH1 0x3 NOT ADD SLT PUSH2 0x4FB JUMPI PUSH2 0xC3E PUSH2 0x4E2E JUMP JUMPDEST PUSH2 0xC46 PUSH2 0x4E44 JUMP JUMPDEST PUSH1 0x64 CALLDATALOAD SWAP2 PUSH1 0x1 PUSH1 0x1 PUSH1 0x40 SHL SUB DUP4 GT PUSH2 0x4FB JUMPI CALLDATASIZE PUSH1 0x23 DUP5 ADD SLT ISZERO PUSH2 0x4FB JUMPI PUSH2 0xC7A PUSH2 0xC84 SWAP4 CALLDATASIZE SWAP1 PUSH1 0x24 DUP2 PUSH1 0x4 ADD CALLDATALOAD SWAP2 ADD PUSH2 0x4F04 JUMP JUMPDEST SWAP2 PUSH1 0x44 CALLDATALOAD SWAP2 PUSH2 0x5471 JUMP JUMPDEST STOP JUMPDEST CALLVALUE PUSH2 0x4FB JUMPI PUSH1 0x20 DUP1 PUSH1 0x3 NOT CALLDATASIZE ADD SLT PUSH2 0x4FB JUMPI PUSH1 0x1 PUSH1 0x1 PUSH1 0xA0 SHL SUB SWAP1 DUP2 PUSH2 0xCAA PUSH2 0x4E2E JUMP JUMPDEST AND PUSH1 0x0 MSTORE PUSH1 0x14 DUP2 MSTORE PUSH1 0x40 PUSH1 0x0 KECCAK256 DUP1 SLOAD SWAP1 PUSH2 0xCC3 DUP3 PUSH2 0x600D JUMP JUMPDEST SWAP3 PUSH2 0xCD1 PUSH1 0x40 MLOAD SWAP5 DUP6 PUSH2 0x4EC8 JUMP JUMPDEST DUP3 DUP5 MSTORE PUSH1 0x0 SWAP2 DUP3 MSTORE DUP1 DUP3 KECCAK256 DUP2 DUP6 ADD JUMPDEST DUP5 DUP5 LT PUSH2 0xCF5 JUMPI PUSH1 0x40 MLOAD DUP1 PUSH2 0x261 DUP9 DUP3 PUSH2 0x5033 JUMP JUMPDEST PUSH1 0xE DUP4 PUSH1 0x1 SWAP3 PUSH1 0x40 MLOAD PUSH2 0xD07 DUP2 PUSH2 0x4E76 JUMP JUMPDEST DUP6 SLOAD DUP2 MSTORE DUP5 DUP7 ADD SLOAD DUP4 DUP3 ADD MSTORE PUSH1 0x2 DUP7 ADD SLOAD PUSH1 0x40 DUP3 ADD MSTORE PUSH1 0x3 DUP7 ADD SLOAD PUSH1 0x60 DUP3 ADD MSTORE DUP11 PUSH1 0x4 DUP8 ADD SLOAD AND PUSH1 0x80 DUP3 ADD MSTORE PUSH1 0xFF PUSH1 0x5 DUP8 ADD SLOAD PUSH1 0xA0 DUP14 DUP3 AND DUP2 DUP6 ADD MSTORE SHR AND ISZERO ISZERO PUSH1 0xC0 DUP3 ADD MSTORE PUSH2 0xD58 PUSH1 0x6 DUP8 ADD PUSH2 0x5216 JUMP JUMPDEST PUSH1 0xE0 DUP3 ADD MSTORE DUP2 MSTORE ADD SWAP3 ADD SWAP4 ADD SWAP3 SWAP1 PUSH2 0xCE0 JUMP JUMPDEST CALLVALUE PUSH2 0x4FB JUMPI PUSH1 0x3 NOT PUSH1 0x20 CALLDATASIZE DUP3 ADD SLT PUSH2 0x4FB JUMPI PUSH1 0x1 PUSH1 0x1 PUSH1 0x40 SHL SUB PUSH1 0x4 CALLDATALOAD GT PUSH2 0x4FB JUMPI PUSH2 0x1A0 SWAP1 PUSH1 0x4 CALLDATALOAD CALLDATASIZE SUB ADD SLT PUSH2 0x4FB JUMPI CALLER PUSH1 0x0 SWAP1 DUP2 MSTORE PUSH1 0xD PUSH1 0x20 MSTORE PUSH1 0x40 SWAP1 KECCAK256 SLOAD PUSH1 0x1 PUSH1 0x1 PUSH1 0xA0 SHL SUB AND DUP1 ISZERO PUSH2 0x1C68 JUMPI DUP1 PUSH1 0x0 MSTORE PUSH1 0xC PUSH1 0x20 MSTORE PUSH1 0xFF PUSH1 0x40 PUSH1 0x0 KECCAK256 SLOAD AND SWAP1 PUSH1 0x4 DUP3 LT ISZERO PUSH2 0x757 JUMPI PUSH1 0x2 PUSH2 0xDEB SWAP3 EQ SWAP1 DUP2 ISZERO PUSH2 0x1C53 JUMPI POP PUSH2 0x6024 JUMP JUMPDEST PUSH2 0xE05 PUSH2 0xDFC PUSH1 0x4 DUP1 CALLDATALOAD ADD DUP1 PUSH2 0x589A JUMP JUMPDEST SWAP1 POP ISZERO ISZERO PUSH2 0x6123 JUMP JUMPDEST PUSH1 0x24 PUSH2 0xE26 PUSH2 0xE1D DUP3 PUSH1 0x4 CALLDATALOAD ADD PUSH1 0x4 CALLDATALOAD PUSH1 0x4 ADD PUSH2 0x589A JUMP JUMPDEST SWAP1 POP ISZERO ISZERO PUSH2 0x6166 JUMP JUMPDEST PUSH2 0xE37 PUSH1 0x44 PUSH1 0x4 CALLDATALOAD ADD CALLDATALOAD ISZERO ISZERO PUSH2 0x61B2 JUMP JUMPDEST PUSH2 0xE48 PUSH1 0x64 PUSH1 0x4 CALLDATALOAD ADD CALLDATALOAD ISZERO ISZERO PUSH2 0x61FE JUMP JUMPDEST PUSH2 0xE68 PUSH2 0xE5F PUSH1 0x84 PUSH1 0x4 CALLDATALOAD ADD PUSH1 0x4 CALLDATALOAD PUSH1 0x4 ADD PUSH2 0x589A JUMP JUMPDEST SWAP1 POP ISZERO ISZERO PUSH2 0x624A JUMP JUMPDEST PUSH2 0xE88 PUSH2 0xE7F PUSH1 0xC4 PUSH1 0x4 CALLDATALOAD ADD PUSH1 0x4 CALLDATALOAD PUSH1 0x4 ADD PUSH2 0x628E JUMP JUMPDEST SWAP1 POP ISZERO ISZERO PUSH2 0x62C3 JUMP JUMPDEST PUSH2 0xEA9 PUSH1 0x5 PUSH2 0xEA1 PUSH1 0xC4 PUSH1 0x4 CALLDATALOAD ADD PUSH1 0x4 CALLDATALOAD PUSH1 0x4 ADD PUSH2 0x628E JUMP JUMPDEST SWAP1 POP LT PUSH2 0x6308 JUMP JUMPDEST PUSH2 0xEC9 PUSH2 0xEC0 PUSH1 0xA4 PUSH1 0x4 CALLDATALOAD ADD PUSH1 0x4 CALLDATALOAD PUSH1 0x4 ADD PUSH2 0x589A JUMP JUMPDEST SWAP1 POP ISZERO ISZERO PUSH2 0x6354 JUMP JUMPDEST PUSH2 0xEE9 PUSH2 0xEE0 PUSH1 0xE4 PUSH1 0x4 CALLDATALOAD ADD PUSH1 0x4 CALLDATALOAD PUSH1 0x4 ADD PUSH2 0x589A JUMP JUMPDEST SWAP1 POP ISZERO ISZERO PUSH2 0x6397 JUMP JUMPDEST PUSH2 0xF0A PUSH2 0xF01 PUSH2 0x104 PUSH1 0x4 CALLDATALOAD ADD PUSH1 0x4 CALLDATALOAD PUSH1 0x4 ADD PUSH2 0x589A JUMP JUMPDEST SWAP1 POP ISZERO ISZERO PUSH2 0x63E3 JUMP JUMPDEST PUSH2 0xF2B PUSH2 0xF22 PUSH2 0x124 PUSH1 0x4 CALLDATALOAD ADD PUSH1 0x4 CALLDATALOAD PUSH1 0x4 ADD PUSH2 0x589A JUMP JUMPDEST SWAP1 POP ISZERO ISZERO PUSH2 0x642F JUMP JUMPDEST PUSH2 0xF4C PUSH2 0xF43 PUSH2 0x144 PUSH1 0x4 CALLDATALOAD ADD PUSH1 0x4 CALLDATALOAD PUSH1 0x4 ADD PUSH2 0x589A JUMP JUMPDEST SWAP1 POP ISZERO ISZERO PUSH2 0x6473 JUMP JUMPDEST PUSH2 0xF5E PUSH2 0x164 PUSH1 0x4 CALLDATALOAD ADD CALLDATALOAD ISZERO ISZERO PUSH2 0x64B7 JUMP JUMPDEST PUSH2 0xF70 PUSH2 0x184 PUSH1 0x4 CALLDATALOAD ADD CALLDATALOAD ISZERO ISZERO PUSH2 0x6503 JUMP JUMPDEST PUSH1 0x1 PUSH1 0x8 SLOAD ADD DUP1 PUSH1 0x8 SSTORE PUSH2 0xF82 PUSH2 0x654F JUMP JUMPDEST DUP2 DUP2 MSTORE CALLER PUSH1 0x20 DUP3 ADD MSTORE PUSH2 0xFA3 PUSH2 0xF9C PUSH1 0x4 DUP1 CALLDATALOAD ADD DUP1 PUSH2 0x589A JUMP JUMPDEST CALLDATASIZE SWAP2 PUSH2 0x4F04 JUMP JUMPDEST PUSH1 0x40 DUP3 ADD MSTORE PUSH2 0xFBE PUSH2 0xF9C DUP5 PUSH1 0x4 CALLDATALOAD ADD PUSH1 0x4 CALLDATALOAD PUSH1 0x4 ADD PUSH2 0x589A JUMP JUMPDEST PUSH1 0x60 DUP3 ADD MSTORE PUSH1 0x44 PUSH1 0x4 CALLDATALOAD ADD CALLDATALOAD PUSH1 0x80 DUP3 ADD MSTORE PUSH1 0x64 PUSH1 0x4 CALLDATALOAD ADD CALLDATALOAD PUSH1 0xA0 DUP3 ADD MSTORE PUSH2 0xFF2 PUSH2 0xF9C PUSH1 0x84 PUSH1 0x4 CALLDATALOAD ADD PUSH1 0x4 CALLDATALOAD PUSH1 0x4 ADD PUSH2 0x589A JUMP JUMPDEST PUSH1 0xC0 DUP3 ADD MSTORE PUSH2 0x100E PUSH2 0xF9C PUSH1 0xA4 PUSH1 0x4 CALLDATALOAD ADD PUSH1 0x4 CALLDATALOAD PUSH1 0x4 ADD PUSH2 0x589A JUMP JUMPDEST PUSH1 0xE0 DUP3 ADD MSTORE PUSH2 0x1027 PUSH1 0xC4 PUSH1 0x4 CALLDATALOAD ADD PUSH1 0x4 CALLDATALOAD PUSH1 0x4 ADD PUSH2 0x628E JUMP JUMPDEST SWAP1 PUSH2 0x1031 DUP3 PUSH2 0x600D JUMP JUMPDEST SWAP2 PUSH2 0x103F PUSH1 0x40 MLOAD SWAP4 DUP5 PUSH2 0x4EC8 JUMP JUMPDEST DUP1 DUP4 MSTORE PUSH1 0x20 DUP4 ADD SWAP2 CALLDATASIZE DUP3 PUSH1 0x5 SHL DUP3 ADD GT PUSH2 0x4FB JUMPI DUP1 SWAP3 JUMPDEST DUP3 PUSH1 0x5 SHL DUP3 ADD DUP5 LT PUSH2 0x1C28 JUMPI POP POP POP POP PUSH2 0x100 DUP3 ADD MSTORE PUSH2 0x1083 PUSH2 0xF9C PUSH1 0xE4 PUSH1 0x4 CALLDATALOAD ADD PUSH1 0x4 CALLDATALOAD PUSH1 0x4 ADD PUSH2 0x589A JUMP JUMPDEST PUSH2 0x120 DUP3 ADD MSTORE PUSH2 0x10A1 PUSH2 0xF9C PUSH2 0x104 PUSH1 0x4 CALLDATALOAD ADD PUSH1 0x4 CALLDATALOAD PUSH1 0x4 ADD PUSH2 0x589A JUMP JUMPDEST PUSH2 0x140 DUP3 ADD MSTORE PUSH2 0x10BF PUSH2 0xF9C PUSH2 0x124 PUSH1 0x4 CALLDATALOAD ADD PUSH1 0x4 CALLDATALOAD PUSH1 0x4 ADD PUSH2 0x589A JUMP JUMPDEST PUSH2 0x180 DUP3 ADD MSTORE PUSH2 0x10DD PUSH2 0xF9C PUSH2 0x144 PUSH1 0x4 CALLDATALOAD ADD PUSH1 0x4 CALLDATALOAD PUSH1 0x4 ADD PUSH2 0x589A JUMP JUMPDEST PUSH2 0x1A0 DUP3 ADD MSTORE PUSH1 0x4 CALLDATALOAD PUSH2 0x164 DUP2 ADD CALLDATALOAD PUSH2 0x160 DUP4 ADD MSTORE PUSH2 0x184 ADD CALLDATALOAD PUSH2 0x1C0 DUP3 ADD MSTORE CALLER ISZERO PUSH2 0x1BE4 JUMPI PUSH1 0x0 DUP3 DUP2 MSTORE PUSH1 0x4 PUSH1 0x20 MSTORE PUSH1 0x40 SWAP1 KECCAK256 SLOAD PUSH2 0x1128 SWAP1 PUSH1 0x1 PUSH1 0x1 PUSH1 0xA0 SHL SUB AND ISZERO ISZERO JUMPDEST ISZERO PUSH2 0x6797 JUMP JUMPDEST PUSH1 0x0 DUP3 DUP2 MSTORE PUSH1 0x4 PUSH1 0x20 MSTORE PUSH1 0x40 SWAP1 KECCAK256 SLOAD PUSH2 0x114B SWAP1 PUSH1 0x1 PUSH1 0x1 PUSH1 0xA0 SHL SUB AND ISZERO ISZERO PUSH2 0x1122 JUMP JUMPDEST CALLER PUSH1 0x0 MSTORE PUSH1 0x5 PUSH1 0x20 MSTORE PUSH1 0x40 PUSH1 0x0 KECCAK256 PUSH1 0x1 DUP2 SLOAD ADD SWAP1 SSTORE DUP2 PUSH1 0x0 MSTORE PUSH1 0x4 PUSH1 0x20 MSTORE PUSH1 0x40 PUSH1 0x0 KECCAK256 CALLER PUSH1 0x1 PUSH1 0x1 PUSH1 0x60 SHL SUB PUSH1 0xA0 SHL DUP3 SLOAD AND OR SWAP1 SSTORE DUP2 CALLER PUSH1 0x0 PUSH32 0xDDF252AD1BE2C89B69C2B068FC378DAA952BA7F163C4A11628F55A4DF523B3EF DUP2 DUP1 LOG4 PUSH1 0xE PUSH1 0x20 MSTORE PUSH1 0x40 PUSH1 0x0 KECCAK256 DUP2 MLOAD DUP2 SSTORE PUSH1 0x1 DUP2 ADD PUSH1 0x1 DUP1 PUSH1 0xA0 SHL SUB PUSH1 0x20 DUP5 ADD MLOAD AND PUSH1 0x1 PUSH1 0x1 PUSH1 0x60 SHL SUB PUSH1 0xA0 SHL DUP3 SLOAD AND OR SWAP1 SSTORE PUSH1 0x40 DUP3 ADD MLOAD DUP1 MLOAD SWAP1 PUSH1 0x1 PUSH1 0x1 PUSH1 0x40 SHL SUB DUP3 GT PUSH2 0x16EB JUMPI DUP2 SWAP1 PUSH2 0x120A DUP3 PUSH2 0x1201 PUSH1 0x2 DUP8 ADD SLOAD PUSH2 0x5104 JUMP JUMPDEST PUSH1 0x2 DUP8 ADD PUSH2 0x58F0 JUMP JUMPDEST PUSH1 0x20 SWAP1 PUSH1 0x1F DUP4 GT PUSH1 0x1 EQ PUSH2 0x1B72 JUMPI PUSH1 0x0 SWAP3 PUSH2 0x1B67 JUMPI JUMPDEST POP POP DUP2 PUSH1 0x1 SHL SWAP2 PUSH1 0x0 NOT SWAP1 PUSH1 0x3 SHL SHR NOT AND OR PUSH1 0x2 DUP3 ADD SSTORE JUMPDEST PUSH1 0x60 DUP3 ADD MLOAD DUP1 MLOAD SWAP1 PUSH1 0x1 PUSH1 0x1 PUSH1 0x40 SHL SUB DUP3 GT PUSH2 0x16EB JUMPI DUP2 SWAP1 PUSH2 0x126A DUP3 PUSH2 0x1261 PUSH1 0x3 DUP8 ADD SLOAD PUSH2 0x5104 JUMP JUMPDEST PUSH1 0x3 DUP8 ADD PUSH2 0x58F0 JUMP JUMPDEST PUSH1 0x20 SWAP1 PUSH1 0x1F DUP4 GT PUSH1 0x1 EQ PUSH2 0x1AF5 JUMPI PUSH1 0x0 SWAP3 PUSH2 0x1AEA JUMPI JUMPDEST POP POP DUP2 PUSH1 0x1 SHL SWAP2 PUSH1 0x0 NOT SWAP1 PUSH1 0x3 SHL SHR NOT AND OR PUSH1 0x3 DUP3 ADD SSTORE JUMPDEST PUSH1 0x80 DUP3 ADD MLOAD PUSH1 0x4 DUP3 ADD SSTORE PUSH1 0xA0 DUP3 ADD MLOAD PUSH1 0x5 DUP3 ADD SSTORE PUSH1 0xC0 DUP3 ADD MLOAD DUP1 MLOAD SWAP1 PUSH1 0x1 PUSH1 0x1 PUSH1 0x40 SHL SUB DUP3 GT PUSH2 0x16EB JUMPI DUP2 SWAP1 PUSH2 0x12DE DUP3 PUSH2 0x12D5 PUSH1 0x6 DUP8 ADD SLOAD PUSH2 0x5104 JUMP JUMPDEST PUSH1 0x6 DUP8 ADD PUSH2 0x58F0 JUMP JUMPDEST PUSH1 0x20 SWAP1 PUSH1 0x1F DUP4 GT PUSH1 0x1 EQ PUSH2 0x1A78 JUMPI PUSH1 0x0 SWAP3 PUSH2 0x1A6D JUMPI JUMPDEST POP POP DUP2 PUSH1 0x1 SHL SWAP2 PUSH1 0x0 NOT SWAP1 PUSH1 0x3 SHL SHR NOT AND OR PUSH1 0x6 DUP3 ADD SSTORE JUMPDEST PUSH1 0xE0 DUP3 ADD MLOAD DUP1 MLOAD SWAP1 PUSH1 0x1 PUSH1 0x1 PUSH1 0x40 SHL SUB DUP3 GT PUSH2 0x16EB JUMPI DUP2 SWAP1 PUSH2 0x133E DUP3 PUSH2 0x1335 PUSH1 0x7 DUP8 ADD SLOAD PUSH2 0x5104 JUMP JUMPDEST PUSH1 0x7 DUP8 ADD PUSH2 0x58F0 JUMP JUMPDEST PUSH1 0x20 SWAP1 PUSH1 0x1F DUP4 GT PUSH1 0x1 EQ PUSH2 0x19FB JUMPI PUSH1 0x0 SWAP3 PUSH2 0x19F0 JUMPI JUMPDEST POP POP DUP2 PUSH1 0x1 SHL SWAP2 PUSH1 0x0 NOT SWAP1 PUSH1 0x3 SHL SHR NOT AND OR PUSH1 0x7 DUP3 ADD SSTORE JUMPDEST PUSH1 0x8 DUP2 ADD PUSH2 0x100 DUP4 ADD MLOAD SWAP1 PUSH1 0x20 DUP3 MLOAD SWAP3 PUSH2 0x1386 DUP5 DUP5 PUSH2 0x6624 JUMP JUMPDEST ADD SWAP1 PUSH1 0x0 MSTORE PUSH1 0x20 PUSH1 0x0 KECCAK256 PUSH1 0x0 SWAP2 JUMPDEST DUP4 DUP4 LT PUSH2 0x18F8 JUMPI POP POP POP POP PUSH2 0x120 DUP3 ADD MLOAD DUP1 MLOAD SWAP1 PUSH1 0x1 PUSH1 0x1 PUSH1 0x40 SHL SUB DUP3 GT PUSH2 0x16EB JUMPI DUP2 SWAP1 PUSH2 0x13D2 DUP3 PUSH2 0x13C9 PUSH1 0x9 DUP8 ADD SLOAD PUSH2 0x5104 JUMP JUMPDEST PUSH1 0x9 DUP8 ADD PUSH2 0x58F0 JUMP JUMPDEST PUSH1 0x20 SWAP1 PUSH1 0x1F DUP4 GT PUSH1 0x1 EQ PUSH2 0x1886 JUMPI PUSH1 0x0 SWAP3 PUSH2 0x187B JUMPI JUMPDEST POP POP DUP2 PUSH1 0x1 SHL SWAP2 PUSH1 0x0 NOT SWAP1 PUSH1 0x3 SHL SHR NOT AND OR PUSH1 0x9 DUP3 ADD SSTORE JUMPDEST PUSH2 0x140 DUP3 ADD MLOAD DUP1 MLOAD SWAP1 PUSH1 0x1 PUSH1 0x1 PUSH1 0x40 SHL SUB DUP3 GT PUSH2 0x16EB JUMPI DUP2 SWAP1 PUSH2 0x1433 DUP3 PUSH2 0x142A PUSH1 0xA DUP8 ADD SLOAD PUSH2 0x5104 JUMP JUMPDEST PUSH1 0xA DUP8 ADD PUSH2 0x58F0 JUMP JUMPDEST PUSH1 0x20 SWAP1 PUSH1 0x1F DUP4 GT PUSH1 0x1 EQ PUSH2 0x1809 JUMPI PUSH1 0x0 SWAP3 PUSH2 0x17FE JUMPI JUMPDEST POP POP DUP2 PUSH1 0x1 SHL SWAP2 PUSH1 0x0 NOT SWAP1 PUSH1 0x3 SHL SHR NOT AND OR PUSH1 0xA DUP3 ADD SSTORE JUMPDEST PUSH2 0x160 DUP3 ADD MLOAD PUSH1 0xB DUP3 ADD SSTORE PUSH2 0x180 DUP3 ADD MLOAD DUP1 MLOAD SWAP1 PUSH1 0x1 PUSH1 0x1 PUSH1 0x40 SHL SUB DUP3 GT PUSH2 0x16EB JUMPI DUP2 SWAP1 PUSH2 0x149F DUP3 PUSH2 0x1496 PUSH1 0xC DUP8 ADD SLOAD PUSH2 0x5104 JUMP JUMPDEST PUSH1 0xC DUP8 ADD PUSH2 0x58F0 JUMP JUMPDEST PUSH1 0x20 SWAP1 PUSH1 0x1F DUP4 GT PUSH1 0x1 EQ PUSH2 0x178C JUMPI PUSH1 0x0 SWAP3 PUSH2 0x1781 JUMPI JUMPDEST POP POP DUP2 PUSH1 0x1 SHL SWAP2 PUSH1 0x0 NOT SWAP1 PUSH1 0x3 SHL SHR NOT AND OR PUSH1 0xC DUP3 ADD SSTORE JUMPDEST PUSH2 0x1A0 DUP3 ADD MLOAD DUP1 MLOAD SWAP1 PUSH1 0x1 PUSH1 0x1 PUSH1 0x40 SHL SUB DUP3 GT PUSH2 0x16EB JUMPI PUSH2 0x14FE DUP3 PUSH2 0x14F5 PUSH1 0xD DUP7 ADD SLOAD PUSH2 0x5104 JUMP JUMPDEST PUSH1 0xD DUP7 ADD PUSH2 0x58F0 JUMP JUMPDEST PUSH1 0x20 SWAP1 PUSH1 0x1F DUP4 GT PUSH1 0x1 EQ PUSH2 0x170B JUMPI SWAP2 DUP1 PUSH2 0x240 SWAP5 SWAP3 PUSH1 0x10 SWAP5 PUSH1 0x0 SWAP3 PUSH2 0x1700 JUMPI JUMPDEST POP POP DUP2 PUSH1 0x1 SHL SWAP2 PUSH1 0x0 NOT SWAP1 PUSH1 0x3 SHL SHR NOT AND OR PUSH1 0xD DUP3 ADD SSTORE JUMPDEST PUSH2 0x1C0 DUP5 ADD MLOAD PUSH1 0xE DUP3 ADD SSTORE PUSH1 0xF DUP2 ADD PUSH2 0x1562 PUSH2 0x1E0 DUP7 ADD MLOAD ISZERO ISZERO DUP3 SWAP1 PUSH1 0xFF DUP1 NOT DUP4 SLOAD AND SWAP2 ISZERO ISZERO AND OR SWAP1 SSTORE JUMP JUMPDEST PUSH2 0x200 DUP6 ADD MLOAD ISZERO ISZERO DUP2 SLOAD PUSH2 0xFF00 PUSH3 0xFF0000 PUSH2 0x220 DUP10 ADD MLOAD ISZERO ISZERO DUP8 SHL AND SWAP3 PUSH1 0x8 SHL AND SWAP1 PUSH3 0xFFFF00 NOT AND OR OR SWAP1 SSTORE ADD SWAP2 ADD MLOAD SWAP1 DUP2 MLOAD SWAP1 PUSH1 0x1 PUSH1 0x40 SHL SWAP3 DUP4 DUP4 GT PUSH2 0x16EB JUMPI DUP2 SLOAD DUP4 DUP4 SSTORE DUP1 DUP5 LT PUSH2 0x165B JUMPI JUMPDEST POP PUSH1 0x20 ADD SWAP1 PUSH1 0x0 MSTORE PUSH1 0x20 PUSH1 0x0 KECCAK256 PUSH1 0x0 SWAP2 JUMPDEST DUP4 DUP4 LT PUSH2 0x163D JUMPI POP POP POP POP DUP2 PUSH1 0x0 MSTORE PUSH1 0xF PUSH1 0x20 MSTORE PUSH1 0x40 PUSH1 0x0 KECCAK256 PUSH1 0x1 PUSH1 0xFF NOT DUP3 SLOAD AND OR SWAP1 SSTORE CALLER PUSH1 0x0 MSTORE PUSH1 0x10 PUSH1 0x20 MSTORE PUSH1 0x40 PUSH1 0x0 KECCAK256 DUP1 SLOAD SWAP2 DUP3 LT ISZERO PUSH2 0x1628 JUMPI SWAP1 PUSH2 0x160D SWAP2 PUSH1 0x1 DUP3 ADD DUP2 SSTORE PUSH2 0x52F2 JUMP JUMPDEST DUP2 SWAP3 SWAP2 SLOAD SWAP1 PUSH1 0x3 SHL SWAP2 DUP3 SHL SWAP2 PUSH1 0x0 NOT SWAP1 SHL NOT AND OR SWAP1 SSTORE PUSH1 0x0 DUP1 RETURN JUMPDEST DUP4 PUSH4 0x4E487B71 PUSH1 0xE0 SHL PUSH1 0x0 MSTORE PUSH1 0x41 PUSH1 0x4 MSTORE PUSH1 0x0 REVERT JUMPDEST PUSH1 0x5 PUSH1 0x20 DUP3 PUSH2 0x164F PUSH1 0x1 SWAP5 MLOAD DUP7 PUSH2 0x666D JUMP JUMPDEST ADD SWAP3 ADD SWAP3 ADD SWAP2 SWAP1 PUSH2 0x15C1 JUMP JUMPDEST DUP1 PUSH1 0x5 MUL SWAP1 PUSH1 0x5 DUP3 DIV SUB PUSH2 0x16D6 JUMPI DUP4 PUSH1 0x5 MUL PUSH1 0x5 DUP2 DIV DUP6 SUB PUSH2 0x16C1 JUMPI DUP4 PUSH1 0x0 MSTORE PUSH1 0x20 PUSH1 0x0 KECCAK256 SWAP2 DUP3 ADD SWAP2 ADD JUMPDEST DUP2 DUP2 LT PUSH2 0x1693 JUMPI POP PUSH2 0x15B0 JUMP JUMPDEST DUP1 PUSH1 0x0 PUSH1 0x5 SWAP3 SSTORE PUSH1 0x0 PUSH1 0x1 DUP3 ADD SSTORE PUSH1 0x0 PUSH1 0x2 DUP3 ADD SSTORE PUSH2 0x16B4 PUSH1 0x3 DUP3 ADD PUSH2 0x65DB JUMP JUMPDEST PUSH1 0x0 PUSH1 0x4 DUP3 ADD SSTORE ADD PUSH2 0x1686 JUMP JUMPDEST DUP8 PUSH4 0x4E487B71 PUSH1 0xE0 SHL PUSH1 0x0 MSTORE PUSH1 0x11 PUSH1 0x4 MSTORE PUSH1 0x0 REVERT JUMPDEST DUP7 PUSH4 0x4E487B71 PUSH1 0xE0 SHL PUSH1 0x0 MSTORE PUSH1 0x11 PUSH1 0x4 MSTORE PUSH1 0x0 REVERT JUMPDEST DUP6 PUSH4 0x4E487B71 PUSH1 0xE0 SHL PUSH1 0x0 MSTORE PUSH1 0x41 PUSH1 0x4 MSTORE PUSH1 0x0 REVERT JUMPDEST ADD MLOAD SWAP1 POP DUP9 DUP1 PUSH2 0x151E JUMP JUMPDEST SWAP1 PUSH1 0xD DUP5 ADD PUSH1 0x0 MSTORE PUSH1 0x20 PUSH1 0x0 KECCAK256 SWAP2 PUSH1 0x0 JUMPDEST PUSH1 0x1F NOT DUP6 AND DUP2 LT PUSH2 0x1769 JUMPI POP SWAP3 PUSH2 0x240 SWAP5 SWAP3 PUSH1 0x1 SWAP3 PUSH1 0x10 SWAP6 DUP4 PUSH1 0x1F NOT DUP2 AND LT PUSH2 0x1750 JUMPI JUMPDEST POP POP POP DUP2 SHL ADD PUSH1 0xD DUP3 ADD SSTORE PUSH2 0x1536 JUMP JUMPDEST ADD MLOAD PUSH1 0x0 NOT PUSH1 0xF8 DUP5 PUSH1 0x3 SHL AND SHR NOT AND SWAP1 SSTORE DUP9 DUP1 DUP1 PUSH2 0x1740 JUMP JUMPDEST SWAP2 SWAP3 PUSH1 0x20 PUSH1 0x1 DUP2 SWAP3 DUP7 DUP6 ADD MLOAD DUP2 SSTORE ADD SWAP5 ADD SWAP3 ADD PUSH2 0x171C JUMP JUMPDEST ADD MLOAD SWAP1 POP DUP7 DUP1 PUSH2 0x14B5 JUMP JUMPDEST SWAP3 POP PUSH1 0xC DUP5 ADD PUSH1 0x0 MSTORE PUSH1 0x20 PUSH1 0x0 KECCAK256 SWAP1 PUSH1 0x0 SWAP4 JUMPDEST PUSH1 0x1F NOT DUP5 AND DUP6 LT PUSH2 0x17E3 JUMPI PUSH1 0x1 SWAP5 POP DUP4 PUSH1 0x1F NOT DUP2 AND LT PUSH2 0x17CA JUMPI JUMPDEST POP POP POP DUP2 SHL ADD PUSH1 0xC DUP3 ADD SSTORE PUSH2 0x14CD JUMP JUMPDEST ADD MLOAD PUSH1 0x0 NOT PUSH1 0xF8 DUP5 PUSH1 0x3 SHL AND SHR NOT AND SWAP1 SSTORE DUP7 DUP1 DUP1 PUSH2 0x17BA JUMP JUMPDEST DUP2 DUP2 ADD MLOAD DUP4 SSTORE PUSH1 0x20 SWAP5 DUP6 ADD SWAP5 PUSH1 0x1 SWAP1 SWAP4 ADD SWAP3 SWAP1 SWAP2 ADD SWAP1 PUSH2 0x179F JUMP JUMPDEST ADD MLOAD SWAP1 POP DUP7 DUP1 PUSH2 0x1449 JUMP JUMPDEST SWAP3 POP PUSH1 0xA DUP5 ADD PUSH1 0x0 MSTORE PUSH1 0x20 PUSH1 0x0 KECCAK256 SWAP1 PUSH1 0x0 SWAP4 JUMPDEST PUSH1 0x1F NOT DUP5 AND DUP6 LT PUSH2 0x1860 JUMPI PUSH1 0x1 SWAP5 POP DUP4 PUSH1 0x1F NOT DUP2 AND LT PUSH2 0x1847 JUMPI JUMPDEST POP POP POP DUP2 SHL ADD PUSH1 0xA DUP3 ADD SSTORE PUSH2 0x1461 JUMP JUMPDEST ADD MLOAD PUSH1 0x0 NOT PUSH1 0xF8 DUP5 PUSH1 0x3 SHL AND SHR NOT AND SWAP1 SSTORE DUP7 DUP1 DUP1 PUSH2 0x1837 JUMP JUMPDEST DUP2 DUP2 ADD MLOAD DUP4 SSTORE PUSH1 0x20 SWAP5 DUP6 ADD SWAP5 PUSH1 0x1 SWAP1 SWAP4 ADD SWAP3 SWAP1 SWAP2 ADD SWAP1 PUSH2 0x181C JUMP JUMPDEST ADD MLOAD SWAP1 POP DUP7 DUP1 PUSH2 0x13E8 JUMP JUMPDEST SWAP3 POP PUSH1 0x9 DUP5 ADD PUSH1 0x0 MSTORE PUSH1 0x20 PUSH1 0x0 KECCAK256 SWAP1 PUSH1 0x0 SWAP4 JUMPDEST PUSH1 0x1F NOT DUP5 AND DUP6 LT PUSH2 0x18DD JUMPI PUSH1 0x1 SWAP5 POP DUP4 PUSH1 0x1F NOT DUP2 AND LT PUSH2 0x18C4 JUMPI JUMPDEST POP POP POP DUP2 SHL ADD PUSH1 0x9 DUP3 ADD SSTORE PUSH2 0x1400 JUMP JUMPDEST ADD MLOAD PUSH1 0x0 NOT PUSH1 0xF8 DUP5 PUSH1 0x3 SHL AND SHR NOT AND SWAP1 SSTORE DUP7 DUP1 DUP1 PUSH2 0x18B4 JUMP JUMPDEST DUP2 DUP2 ADD MLOAD DUP4 SSTORE PUSH1 0x20 SWAP5 DUP6 ADD SWAP5 PUSH1 0x1 SWAP1 SWAP4 ADD SWAP3 SWAP1 SWAP2 ADD SWAP1 PUSH2 0x1899 JUMP JUMPDEST DUP1 MLOAD DUP1 MLOAD SWAP1 PUSH1 0x1 PUSH1 0x1 PUSH1 0x40 SHL SUB DUP3 GT PUSH2 0x19DB JUMPI PUSH2 0x191F DUP3 PUSH2 0x1919 DUP7 SLOAD PUSH2 0x5104 JUMP JUMPDEST DUP7 PUSH2 0x58F0 JUMP JUMPDEST PUSH1 0x20 SWAP1 PUSH1 0x1F DUP4 GT PUSH1 0x1 EQ PUSH2 0x196B JUMPI SWAP3 DUP3 PUSH1 0x1 SWAP5 SWAP4 PUSH1 0x20 SWAP4 DUP7 SWAP6 PUSH1 0x0 SWAP3 PUSH2 0x1960 JUMPI JUMPDEST POP POP PUSH1 0x0 NOT PUSH1 0x3 DUP4 SWAP1 SHL SHR NOT AND SWAP1 DUP5 SHL OR DUP6 SSTORE JUMPDEST ADD SWAP3 ADD SWAP3 ADD SWAP2 SWAP1 PUSH2 0x1394 JUMP JUMPDEST ADD MLOAD SWAP1 POP DUP14 DUP1 PUSH2 0x1940 JUMP JUMPDEST SWAP1 DUP5 PUSH1 0x0 MSTORE PUSH1 0x20 PUSH1 0x0 KECCAK256 SWAP2 PUSH1 0x0 JUMPDEST PUSH1 0x1F NOT DUP6 AND DUP2 LT PUSH2 0x19C3 JUMPI POP DUP4 PUSH1 0x20 SWAP4 PUSH1 0x1 SWAP7 SWAP4 DUP8 SWAP7 SWAP4 DUP8 SWAP5 PUSH1 0x1F NOT DUP2 AND LT PUSH2 0x19AA JUMPI JUMPDEST POP POP POP DUP2 SHL ADD DUP6 SSTORE PUSH2 0x1954 JUMP JUMPDEST ADD MLOAD PUSH1 0x0 NOT PUSH1 0xF8 DUP5 PUSH1 0x3 SHL AND SHR NOT AND SWAP1 SSTORE DUP14 DUP1 DUP1 PUSH2 0x199D JUMP JUMPDEST SWAP2 SWAP3 PUSH1 0x20 PUSH1 0x1 DUP2 SWAP3 DUP7 DUP6 ADD MLOAD DUP2 SSTORE ADD SWAP5 ADD SWAP3 ADD PUSH2 0x1979 JUMP JUMPDEST DUP10 PUSH4 0x4E487B71 PUSH1 0xE0 SHL PUSH1 0x0 MSTORE PUSH1 0x41 PUSH1 0x4 MSTORE PUSH1 0x0 REVERT JUMPDEST ADD MLOAD SWAP1 POP DUP7 DUP1 PUSH2 0x1354 JUMP JUMPDEST SWAP3 POP PUSH1 0x7 DUP5 ADD PUSH1 0x0 MSTORE PUSH1 0x20 PUSH1 0x0 KECCAK256 SWAP1 PUSH1 0x0 SWAP4 JUMPDEST PUSH1 0x1F NOT DUP5 AND DUP6 LT PUSH2 0x1A52 JUMPI PUSH1 0x1 SWAP5 POP DUP4 PUSH1 0x1F NOT DUP2 AND LT PUSH2 0x1A39 JUMPI JUMPDEST POP POP POP DUP2 SHL ADD PUSH1 0x7 DUP3 ADD SSTORE PUSH2 0x136C JUMP JUMPDEST ADD MLOAD PUSH1 0x0 NOT PUSH1 0xF8 DUP5 PUSH1 0x3 SHL AND SHR NOT AND SWAP1 SSTORE DUP7 DUP1 DUP1 PUSH2 0x1A29 JUMP JUMPDEST DUP2 DUP2 ADD MLOAD DUP4 SSTORE PUSH1 0x20 SWAP5 DUP6 ADD SWAP5 PUSH1 0x1 SWAP1 SWAP4 ADD SWAP3 SWAP1 SWAP2 ADD SWAP1 PUSH2 0x1A0E JUMP JUMPDEST ADD MLOAD SWAP1 POP DUP7 DUP1 PUSH2 0x12F4 JUMP JUMPDEST SWAP3 POP PUSH1 0x6 DUP5 ADD PUSH1 0x0 MSTORE PUSH1 0x20 PUSH1 0x0 KECCAK256 SWAP1 PUSH1 0x0 SWAP4 JUMPDEST PUSH1 0x1F NOT DUP5 AND DUP6 LT PUSH2 0x1ACF JUMPI PUSH1 0x1 SWAP5 POP DUP4 PUSH1 0x1F NOT DUP2 AND LT PUSH2 0x1AB6 JUMPI JUMPDEST POP POP POP DUP2 SHL ADD PUSH1 0x6 DUP3 ADD SSTORE PUSH2 0x130C JUMP JUMPDEST ADD MLOAD PUSH1 0x0 NOT PUSH1 0xF8 DUP5 PUSH1 0x3 SHL AND SHR NOT AND SWAP1 SSTORE DUP7 DUP1 DUP1 PUSH2 0x1AA6 JUMP JUMPDEST DUP2 DUP2 ADD MLOAD DUP4 SSTORE PUSH1 0x20 SWAP5 DUP6 ADD SWAP5 PUSH1 0x1 SWAP1 SWAP4 ADD SWAP3 SWAP1 SWAP2 ADD SWAP1 PUSH2 0x1A8B JUMP JUMPDEST ADD MLOAD SWAP1 POP DUP7 DUP1 PUSH2 0x1280 JUMP JUMPDEST SWAP3 POP PUSH1 0x3 DUP5 ADD PUSH1 0x0 MSTORE PUSH1 0x20 PUSH1 0x0 KECCAK256 SWAP1 PUSH1 0x0 SWAP4 JUMPDEST PUSH1 0x1F NOT DUP5 AND DUP6 LT PUSH2 0x1B4C JUMPI PUSH1 0x1 SWAP5 POP DUP4 PUSH1 0x1F NOT DUP2 AND LT PUSH2 0x1B33 JUMPI JUMPDEST POP POP POP DUP2 SHL ADD PUSH1 0x3 DUP3 ADD SSTORE PUSH2 0x1298 JUMP JUMPDEST ADD MLOAD PUSH1 0x0 NOT PUSH1 0xF8 DUP5 PUSH1 0x3 SHL AND SHR NOT AND SWAP1 SSTORE DUP7 DUP1 DUP1 PUSH2 0x1B23 JUMP JUMPDEST DUP2 DUP2 ADD MLOAD DUP4 SSTORE PUSH1 0x20 SWAP5 DUP6 ADD SWAP5 PUSH1 0x1 SWAP1 SWAP4 ADD SWAP3 SWAP1 SWAP2 ADD SWAP1 PUSH2 0x1B08 JUMP JUMPDEST ADD MLOAD SWAP1 POP DUP7 DUP1 PUSH2 0x1220 JUMP JUMPDEST SWAP3 POP PUSH1 0x2 DUP5 ADD PUSH1 0x0 MSTORE PUSH1 0x20 PUSH1 0x0 KECCAK256 SWAP1 PUSH1 0x0 SWAP4 JUMPDEST PUSH1 0x1F NOT DUP5 AND DUP6 LT PUSH2 0x1BC9 JUMPI PUSH1 0x1 SWAP5 POP DUP4 PUSH1 0x1F NOT DUP2 AND LT PUSH2 0x1BB0 JUMPI JUMPDEST POP POP POP DUP2 SHL ADD PUSH1 0x2 DUP3 ADD SSTORE PUSH2 0x1238 JUMP JUMPDEST ADD MLOAD PUSH1 0x0 NOT PUSH1 0xF8 DUP5 PUSH1 0x3 SHL AND SHR NOT AND SWAP1 SSTORE DUP7 DUP1 DUP1 PUSH2 0x1BA0 JUMP JUMPDEST DUP2 DUP2 ADD MLOAD DUP4 SSTORE PUSH1 0x20 SWAP5 DUP6 ADD SWAP5 PUSH1 0x1 SWAP1 SWAP4 ADD SWAP3 SWAP1 SWAP2 ADD SWAP1 PUSH2 0x1B85 JUMP JUMPDEST PUSH1 0x40 MLOAD PUSH3 0x461BCD PUSH1 0xE5 SHL DUP2 MSTORE PUSH1 0x20 PUSH1 0x4 DUP3 ADD DUP2 SWAP1 MSTORE DUP2 DUP6 ADD MSTORE PUSH32 0x4552433732313A206D696E7420746F20746865207A65726F2061646472657373 PUSH1 0x44 DUP3 ADD MSTORE PUSH1 0x64 SWAP1 REVERT JUMPDEST PUSH1 0x1 PUSH1 0x1 PUSH1 0x40 SHL SUB DUP5 CALLDATALOAD GT PUSH2 0x4FB JUMPI PUSH1 0x20 DUP1 SWAP2 PUSH2 0x1C48 CALLDATASIZE DUP8 CALLDATALOAD DUP7 ADD PUSH2 0x4F3B JUMP JUMPDEST DUP2 MSTORE ADD SWAP4 ADD SWAP3 PUSH2 0x1056 JUMP JUMPDEST PUSH1 0x0 SLOAD PUSH1 0x1 PUSH1 0x1 PUSH1 0xA0 SHL SUB AND EQ SWAP1 POP DUP3 PUSH2 0x625 JUMP JUMPDEST POP PUSH1 0xC PUSH1 0x20 MSTORE PUSH1 0xFF PUSH1 0x40 PUSH1 0x0 KECCAK256 SLOAD AND PUSH1 0x4 DUP2 LT ISZERO PUSH2 0x757 JUMPI PUSH1 0x2 EQ DUP1 ISZERO PUSH2 0x1C98 JUMPI JUMPDEST PUSH2 0x1C93 SWAP1 PUSH2 0x6024 JUMP JUMPDEST PUSH2 0xDEB JUMP JUMPDEST POP PUSH1 0x0 SLOAD PUSH1 0x1 PUSH1 0x1 PUSH1 0xA0 SHL SUB AND CALLER EQ PUSH2 0x1C8A JUMP JUMPDEST CALLVALUE PUSH2 0x4FB JUMPI PUSH1 0x3 NOT PUSH1 0x40 CALLDATASIZE DUP3 ADD SLT PUSH2 0x4FB JUMPI PUSH1 0x1 PUSH1 0x1 PUSH1 0x40 SHL SUB PUSH1 0x24 CALLDATALOAD GT PUSH2 0x4FB JUMPI PUSH2 0x1A0 SWAP1 PUSH1 0x24 CALLDATALOAD CALLDATASIZE SUB ADD SLT PUSH2 0x4FB JUMPI CALLER PUSH1 0x0 SWAP1 DUP2 MSTORE PUSH1 0xD PUSH1 0x20 MSTORE PUSH1 0x40 SWAP1 KECCAK256 SLOAD PUSH1 0x1 PUSH1 0x1 PUSH1 0xA0 SHL SUB SWAP1 DUP2 AND DUP1 ISZERO PUSH2 0x27EA JUMPI DUP1 PUSH1 0x0 MSTORE PUSH1 0xC PUSH1 0x20 MSTORE PUSH1 0xFF PUSH1 0x40 PUSH1 0x0 KECCAK256 SLOAD AND SWAP1 PUSH1 0x4 DUP3 LT ISZERO PUSH2 0x757 JUMPI PUSH1 0x2 PUSH2 0x1D2E SWAP3 EQ SWAP1 DUP2 ISZERO PUSH2 0x27DC JUMPI POP PUSH2 0x6024 JUMP JUMPDEST PUSH1 0x4 CALLDATALOAD PUSH1 0x0 MSTORE PUSH1 0xE PUSH1 0x20 MSTORE CALLER SWAP1 PUSH1 0x1 PUSH1 0x40 PUSH1 0x0 KECCAK256 ADD SLOAD AND SUB PUSH2 0x2786 JUMPI PUSH1 0x4 CALLDATALOAD PUSH1 0x0 MSTORE PUSH1 0xF PUSH1 0x20 MSTORE PUSH2 0x1D66 PUSH1 0xFF PUSH1 0x40 PUSH1 0x0 KECCAK256 SLOAD AND PUSH2 0x5814 JUMP JUMPDEST PUSH1 0x4 CALLDATALOAD PUSH1 0x0 MSTORE PUSH1 0xE PUSH1 0x20 MSTORE PUSH2 0x1D89 PUSH1 0xFF PUSH1 0xF PUSH1 0x40 PUSH1 0x0 KECCAK256 ADD SLOAD PUSH1 0x10 SHR AND ISZERO PUSH2 0x5859 JUMP JUMPDEST PUSH2 0x1D9B PUSH2 0xDFC PUSH1 0x4 PUSH1 0x24 CALLDATALOAD ADD DUP1 PUSH2 0x589A JUMP JUMPDEST PUSH2 0x1DB1 PUSH2 0xE1D PUSH1 0x24 DUP1 CALLDATALOAD ADD PUSH1 0x24 CALLDATALOAD PUSH1 0x4 ADD PUSH2 0x589A JUMP JUMPDEST PUSH2 0x1DC2 PUSH1 0x44 PUSH1 0x24 CALLDATALOAD ADD CALLDATALOAD ISZERO ISZERO PUSH2 0x61B2 JUMP JUMPDEST PUSH2 0x1DD9 PUSH2 0xE7F PUSH1 0xC4 PUSH1 0x24 CALLDATALOAD ADD PUSH1 0x24 CALLDATALOAD PUSH1 0x4 ADD PUSH2 0x628E JUMP JUMPDEST PUSH2 0x1DF2 PUSH1 0x5 PUSH2 0xEA1 PUSH1 0xC4 PUSH1 0x24 CALLDATALOAD ADD PUSH1 0x24 CALLDATALOAD PUSH1 0x4 ADD PUSH2 0x628E JUMP JUMPDEST PUSH2 0x1E03 PUSH1 0x64 PUSH1 0x24 CALLDATALOAD ADD CALLDATALOAD ISZERO ISZERO PUSH2 0x61FE JUMP JUMPDEST PUSH2 0x1E1A PUSH2 0xE5F PUSH1 0x84 PUSH1 0x24 CALLDATALOAD ADD PUSH1 0x24 CALLDATALOAD PUSH1 0x4 ADD PUSH2 0x589A JUMP JUMPDEST PUSH2 0x1E31 PUSH2 0xEC0 PUSH1 0xA4 PUSH1 0x24 CALLDATALOAD ADD PUSH1 0x24 CALLDATALOAD PUSH1 0x4 ADD PUSH2 0x589A JUMP JUMPDEST PUSH2 0x1E48 PUSH2 0xEE0 PUSH1 0xE4 PUSH1 0x24 CALLDATALOAD ADD PUSH1 0x24 CALLDATALOAD PUSH1 0x4 ADD PUSH2 0x589A JUMP JUMPDEST PUSH2 0x1E60 PUSH2 0xF01 PUSH2 0x104 PUSH1 0x24 CALLDATALOAD ADD PUSH1 0x24 CALLDATALOAD PUSH1 0x4 ADD PUSH2 0x589A JUMP JUMPDEST PUSH2 0x1E78 PUSH2 0xF22 PUSH2 0x124 PUSH1 0x24 CALLDATALOAD ADD PUSH1 0x24 CALLDATALOAD PUSH1 0x4 ADD PUSH2 0x589A JUMP JUMPDEST PUSH2 0x1E90 PUSH2 0xF43 PUSH2 0x144 PUSH1 0x24 CALLDATALOAD ADD PUSH1 0x24 CALLDATALOAD PUSH1 0x4 ADD PUSH2 0x589A JUMP JUMPDEST PUSH2 0x1EA2 PUSH2 0x164 PUSH1 0x24 CALLDATALOAD ADD CALLDATALOAD ISZERO ISZERO PUSH2 0x64B7 JUMP JUMPDEST PUSH2 0x1EB4 PUSH2 0x184 PUSH1 0x24 CALLDATALOAD ADD CALLDATALOAD ISZERO ISZERO PUSH2 0x6503 JUMP JUMPDEST PUSH2 0x1EC3 PUSH1 0x4 PUSH1 0x24 CALLDATALOAD ADD DUP1 PUSH2 0x589A JUMP JUMPDEST PUSH1 0x4 CALLDATALOAD PUSH1 0x0 MSTORE PUSH1 0xE PUSH1 0x20 MSTORE PUSH1 0x2 PUSH1 0x40 PUSH1 0x0 KECCAK256 ADD SWAP1 PUSH1 0x1 PUSH1 0x1 PUSH1 0x40 SHL SUB DUP2 GT PUSH2 0x2354 JUMPI PUSH2 0x1EF9 DUP2 PUSH2 0x1EF3 DUP5 SLOAD PUSH2 0x5104 JUMP JUMPDEST DUP5 PUSH2 0x58F0 JUMP JUMPDEST PUSH1 0x0 SWAP3 PUSH1 0x1F DUP3 GT PUSH1 0x1 EQ PUSH2 0x271D JUMPI SWAP3 DUP2 SWAP3 SWAP4 PUSH1 0x0 SWAP3 PUSH2 0x2712 JUMPI JUMPDEST POP POP DUP2 PUSH1 0x1 SHL SWAP2 PUSH1 0x0 NOT SWAP1 PUSH1 0x3 SHL SHR NOT AND OR SWAP1 SSTORE JUMPDEST PUSH2 0x1F3B PUSH1 0x24 DUP1 CALLDATALOAD ADD PUSH1 0x24 CALLDATALOAD PUSH1 0x4 ADD PUSH2 0x589A JUMP JUMPDEST PUSH1 0x4 CALLDATALOAD PUSH1 0x0 MSTORE PUSH1 0xE PUSH1 0x20 MSTORE PUSH1 0x3 PUSH1 0x40 PUSH1 0x0 KECCAK256 ADD SWAP1 PUSH1 0x1 PUSH1 0x1 PUSH1 0x40 SHL SUB DUP2 GT PUSH2 0x2354 JUMPI PUSH2 0x1F6B DUP2 PUSH2 0x1EF3 DUP5 SLOAD PUSH2 0x5104 JUMP JUMPDEST PUSH1 0x0 SWAP3 PUSH1 0x1F DUP3 GT PUSH1 0x1 EQ PUSH2 0x26A9 JUMPI SWAP3 DUP2 SWAP3 SWAP4 PUSH1 0x0 SWAP3 PUSH2 0x269E JUMPI JUMPDEST POP POP DUP2 PUSH1 0x1 SHL SWAP2 PUSH1 0x0 NOT SWAP1 PUSH1 0x3 SHL SHR NOT AND OR SWAP1 SSTORE JUMPDEST PUSH1 0x4 CALLDATALOAD PUSH1 0x0 MSTORE PUSH1 0xE PUSH1 0x20 MSTORE PUSH1 0x40 PUSH1 0x0 KECCAK256 PUSH1 0x44 PUSH1 0x24 CALLDATALOAD ADD CALLDATALOAD PUSH1 0x4 DUP3 ADD SSTORE PUSH1 0x64 PUSH1 0x24 CALLDATALOAD ADD CALLDATALOAD PUSH1 0x5 DUP3 ADD SSTORE PUSH2 0x1FD6 PUSH1 0x84 PUSH1 0x24 CALLDATALOAD ADD PUSH1 0x24 CALLDATALOAD PUSH1 0x4 ADD PUSH2 0x589A JUMP JUMPDEST SWAP1 PUSH1 0x1 PUSH1 0x1 PUSH1 0x40 SHL SUB DUP3 GT PUSH2 0x2354 JUMPI PUSH2 0x1FFF DUP3 PUSH2 0x1FF6 PUSH1 0x6 DUP7 ADD SLOAD PUSH2 0x5104 JUMP JUMPDEST PUSH1 0x6 DUP7 ADD PUSH2 0x58F0 JUMP JUMPDEST PUSH1 0x0 SWAP1 PUSH1 0x1F DUP4 GT PUSH1 0x1 EQ PUSH2 0x262E JUMPI PUSH1 0x6 SWAP3 SWAP2 PUSH1 0x0 SWAP2 DUP4 PUSH2 0x2623 JUMPI JUMPDEST POP POP DUP2 PUSH1 0x1 SHL SWAP2 PUSH1 0x0 NOT SWAP1 PUSH1 0x3 SHL SHR NOT AND OR SWAP2 ADD SSTORE JUMPDEST PUSH2 0x2044 PUSH1 0xA4 PUSH1 0x24 CALLDATALOAD ADD PUSH1 0x24 CALLDATALOAD PUSH1 0x4 ADD PUSH2 0x589A JUMP JUMPDEST PUSH1 0x4 CALLDATALOAD PUSH1 0x0 MSTORE PUSH1 0xE PUSH1 0x20 MSTORE PUSH1 0x7 PUSH1 0x40 PUSH1 0x0 KECCAK256 ADD SWAP1 PUSH1 0x1 PUSH1 0x1 PUSH1 0x40 SHL SUB DUP2 GT PUSH2 0x2354 JUMPI PUSH2 0x2074 DUP2 PUSH2 0x1EF3 DUP5 SLOAD PUSH2 0x5104 JUMP JUMPDEST PUSH1 0x0 SWAP3 PUSH1 0x1F DUP3 GT PUSH1 0x1 EQ PUSH2 0x25BA JUMPI SWAP3 DUP2 SWAP3 SWAP4 PUSH1 0x0 SWAP3 PUSH2 0x25AF JUMPI JUMPDEST POP POP DUP2 PUSH1 0x1 SHL SWAP2 PUSH1 0x0 NOT SWAP1 PUSH1 0x3 SHL SHR NOT AND OR SWAP1 SSTORE JUMPDEST PUSH2 0x20B7 PUSH1 0xC4 PUSH1 0x24 CALLDATALOAD ADD PUSH1 0x24 CALLDATALOAD PUSH1 0x4 ADD PUSH2 0x628E JUMP JUMPDEST PUSH1 0x4 CALLDATALOAD PUSH1 0x0 MSTORE PUSH1 0xE PUSH1 0x20 MSTORE PUSH1 0x8 PUSH1 0x40 PUSH1 0x0 KECCAK256 ADD SWAP2 PUSH2 0x20D5 DUP3 DUP5 PUSH2 0x6624 JUMP JUMPDEST PUSH1 0x0 SWAP3 DUP4 MSTORE PUSH1 0x20 DUP4 KECCAK256 SWAP1 DUP1 JUMPDEST DUP4 DUP6 LT PUSH2 0x24C6 JUMPI PUSH2 0x20FC PUSH1 0xE4 PUSH1 0x24 CALLDATALOAD ADD PUSH1 0x24 CALLDATALOAD PUSH1 0x4 ADD PUSH2 0x589A JUMP JUMPDEST PUSH1 0x4 CALLDATALOAD PUSH1 0x0 MSTORE PUSH1 0xE PUSH1 0x20 MSTORE PUSH1 0x9 PUSH1 0x40 PUSH1 0x0 KECCAK256 ADD SWAP1 PUSH1 0x1 PUSH1 0x1 PUSH1 0x40 SHL SUB DUP2 GT PUSH2 0x2354 JUMPI PUSH2 0x212C DUP2 PUSH2 0x1EF3 DUP5 SLOAD PUSH2 0x5104 JUMP JUMPDEST PUSH1 0x0 SWAP3 PUSH1 0x1F DUP3 GT PUSH1 0x1 EQ PUSH2 0x245D JUMPI SWAP3 DUP2 SWAP3 SWAP4 PUSH1 0x0 SWAP3 PUSH2 0x2452 JUMPI JUMPDEST POP POP DUP2 PUSH1 0x1 SHL SWAP2 PUSH1 0x0 NOT SWAP1 PUSH1 0x3 SHL SHR NOT AND OR SWAP1 SSTORE JUMPDEST PUSH2 0x2170 PUSH2 0x104 PUSH1 0x24 CALLDATALOAD ADD PUSH1 0x24 CALLDATALOAD PUSH1 0x4 ADD PUSH2 0x589A JUMP JUMPDEST PUSH1 0x4 CALLDATALOAD PUSH1 0x0 MSTORE PUSH1 0xE PUSH1 0x20 MSTORE PUSH1 0xA PUSH1 0x40 PUSH1 0x0 KECCAK256 ADD SWAP1 PUSH1 0x1 PUSH1 0x1 PUSH1 0x40 SHL SUB DUP2 GT PUSH2 0x2354 JUMPI PUSH2 0x21A0 DUP2 PUSH2 0x1EF3 DUP5 SLOAD PUSH2 0x5104 JUMP JUMPDEST PUSH1 0x0 SWAP3 PUSH1 0x1F DUP3 GT PUSH1 0x1 EQ PUSH2 0x23E9 JUMPI SWAP3 DUP2 SWAP3 SWAP4 PUSH1 0x0 SWAP3 PUSH2 0x23DE JUMPI JUMPDEST POP POP DUP2 PUSH1 0x1 SHL SWAP2 PUSH1 0x0 NOT SWAP1 PUSH1 0x3 SHL SHR NOT AND OR SWAP1 SSTORE JUMPDEST PUSH2 0x21E4 PUSH2 0x124 PUSH1 0x24 CALLDATALOAD ADD PUSH1 0x24 CALLDATALOAD PUSH1 0x4 ADD PUSH2 0x589A JUMP JUMPDEST PUSH1 0x4 CALLDATALOAD PUSH1 0x0 MSTORE PUSH1 0xE PUSH1 0x20 MSTORE PUSH1 0xC PUSH1 0x40 PUSH1 0x0 KECCAK256 ADD SWAP1 PUSH1 0x1 PUSH1 0x1 PUSH1 0x40 SHL SUB DUP2 GT PUSH2 0x2354 JUMPI PUSH2 0x2214 DUP2 PUSH2 0x1EF3 DUP5 SLOAD PUSH2 0x5104 JUMP JUMPDEST PUSH1 0x0 SWAP3 PUSH1 0x1F DUP3 GT PUSH1 0x1 EQ PUSH2 0x2375 JUMPI SWAP3 DUP2 SWAP3 SWAP4 PUSH1 0x0 SWAP3 PUSH2 0x236A JUMPI JUMPDEST POP POP DUP2 PUSH1 0x1 SHL SWAP2 PUSH1 0x0 NOT SWAP1 PUSH1 0x3 SHL SHR NOT AND OR SWAP1 SSTORE JUMPDEST PUSH2 0x2258 PUSH2 0x144 PUSH1 0x24 CALLDATALOAD ADD PUSH1 0x24 CALLDATALOAD PUSH1 0x4 ADD PUSH2 0x589A JUMP JUMPDEST PUSH1 0x4 CALLDATALOAD PUSH1 0x0 MSTORE PUSH1 0xE PUSH1 0x20 MSTORE PUSH1 0xD PUSH1 0x40 PUSH1 0x0 KECCAK256 ADD SWAP1 PUSH1 0x1 PUSH1 0x1 PUSH1 0x40 SHL SUB DUP2 GT PUSH2 0x2354 JUMPI PUSH2 0x2288 DUP2 PUSH2 0x1EF3 DUP5 SLOAD PUSH2 0x5104 JUMP JUMPDEST PUSH1 0x0 PUSH1 0x1F DUP3 GT PUSH1 0x1 EQ PUSH2 0x22EF JUMPI DUP2 SWAP3 SWAP4 PUSH1 0x0 SWAP3 PUSH2 0x22E4 JUMPI JUMPDEST POP POP DUP2 PUSH1 0x1 SHL SWAP2 PUSH1 0x0 NOT SWAP1 PUSH1 0x3 SHL SHR NOT AND OR SWAP1 SSTORE JUMPDEST PUSH1 0x4 CALLDATALOAD PUSH1 0x0 MSTORE PUSH1 0xE PUSH1 0x20 MSTORE PUSH1 0x40 PUSH1 0x0 KECCAK256 PUSH2 0x164 PUSH1 0x24 CALLDATALOAD ADD CALLDATALOAD PUSH1 0xB DUP3 ADD SSTORE PUSH1 0xE PUSH2 0x184 PUSH1 0x24 CALLDATALOAD ADD CALLDATALOAD SWAP2 ADD SSTORE PUSH1 0x0 DUP1 RETURN JUMPDEST ADD CALLDATALOAD SWAP1 POP DUP4 DUP1 PUSH2 0x22A0 JUMP JUMPDEST PUSH1 0x1F NOT DUP3 AND SWAP4 DUP4 PUSH1 0x0 MSTORE PUSH1 0x20 PUSH1 0x0 KECCAK256 SWAP2 PUSH1 0x0 JUMPDEST DUP7 DUP2 LT PUSH2 0x233C JUMPI POP DUP4 PUSH1 0x1 SWAP6 SWAP7 LT PUSH2 0x2322 JUMPI JUMPDEST POP POP POP DUP2 SHL ADD SWAP1 SSTORE PUSH2 0x22B5 JUMP JUMPDEST ADD CALLDATALOAD PUSH1 0x0 NOT PUSH1 0x3 DUP5 SWAP1 SHL PUSH1 0xF8 AND SHR NOT AND SWAP1 SSTORE DUP4 DUP1 DUP1 PUSH2 0x2315 JUMP JUMPDEST SWAP1 SWAP3 PUSH1 0x20 PUSH1 0x1 DUP2 SWAP3 DUP7 DUP7 ADD CALLDATALOAD DUP2 SSTORE ADD SWAP5 ADD SWAP2 ADD PUSH2 0x2302 JUMP JUMPDEST PUSH4 0x4E487B71 PUSH1 0xE0 SHL PUSH1 0x0 MSTORE PUSH1 0x41 PUSH1 0x4 MSTORE PUSH1 0x24 PUSH1 0x0 REVERT JUMPDEST ADD CALLDATALOAD SWAP1 POP DUP4 DUP1 PUSH2 0x222E JUMP JUMPDEST DUP3 PUSH1 0x0 MSTORE PUSH1 0x20 PUSH1 0x0 KECCAK256 SWAP1 PUSH1 0x0 SWAP5 JUMPDEST PUSH1 0x1F NOT DUP5 AND DUP7 LT PUSH2 0x23C6 JUMPI PUSH1 0x1 SWAP5 SWAP6 POP DUP4 PUSH1 0x1F NOT DUP2 AND LT PUSH2 0x23AC JUMPI JUMPDEST POP POP POP DUP2 SHL ADD SWAP1 SSTORE PUSH2 0x2243 JUMP JUMPDEST ADD CALLDATALOAD PUSH1 0x0 NOT PUSH1 0x3 DUP5 SWAP1 SHL PUSH1 0xF8 AND SHR NOT AND SWAP1 SSTORE DUP4 DUP1 DUP1 PUSH2 0x239F JUMP JUMPDEST SWAP2 PUSH1 0x20 PUSH1 0x1 DUP2 SWAP3 DUP6 DUP6 ADD CALLDATALOAD DUP2 SSTORE ADD SWAP4 ADD SWAP6 ADD SWAP5 PUSH2 0x2383 JUMP JUMPDEST ADD CALLDATALOAD SWAP1 POP DUP4 DUP1 PUSH2 0x21BA JUMP JUMPDEST DUP3 PUSH1 0x0 MSTORE PUSH1 0x20 PUSH1 0x0 KECCAK256 SWAP1 PUSH1 0x0 SWAP5 JUMPDEST PUSH1 0x1F NOT DUP5 AND DUP7 LT PUSH2 0x243A JUMPI PUSH1 0x1 SWAP5 SWAP6 POP DUP4 PUSH1 0x1F NOT DUP2 AND LT PUSH2 0x2420 JUMPI JUMPDEST POP POP POP DUP2 SHL ADD SWAP1 SSTORE PUSH2 0x21CF JUMP JUMPDEST ADD CALLDATALOAD PUSH1 0x0 NOT PUSH1 0x3 DUP5 SWAP1 SHL PUSH1 0xF8 AND SHR NOT AND SWAP1 SSTORE DUP4 DUP1 DUP1 PUSH2 0x2413 JUMP JUMPDEST SWAP2 PUSH1 0x20 PUSH1 0x1 DUP2 SWAP3 DUP6 DUP6 ADD CALLDATALOAD DUP2 SSTORE ADD SWAP4 ADD SWAP6 ADD SWAP5 PUSH2 0x23F7 JUMP JUMPDEST ADD CALLDATALOAD SWAP1 POP DUP4 DUP1 PUSH2 0x2146 JUMP JUMPDEST DUP3 PUSH1 0x0 MSTORE PUSH1 0x20 PUSH1 0x0 KECCAK256 SWAP1 PUSH1 0x0 SWAP5 JUMPDEST PUSH1 0x1F NOT DUP5 AND DUP7 LT PUSH2 0x24AE JUMPI PUSH1 0x1 SWAP5 SWAP6 POP DUP4 PUSH1 0x1F NOT DUP2 AND LT PUSH2 0x2494 JUMPI JUMPDEST POP POP POP DUP2 SHL ADD SWAP1 SSTORE PUSH2 0x215B JUMP JUMPDEST ADD CALLDATALOAD PUSH1 0x0 NOT PUSH1 0x3 DUP5 SWAP1 SHL PUSH1 0xF8 AND SHR NOT AND SWAP1 SSTORE DUP4 DUP1 DUP1 PUSH2 0x2487 JUMP JUMPDEST SWAP2 PUSH1 0x20 PUSH1 0x1 DUP2 SWAP3 DUP6 DUP6 ADD CALLDATALOAD DUP2 SSTORE ADD SWAP4 ADD SWAP6 ADD SWAP5 PUSH2 0x246B JUMP JUMPDEST PUSH2 0x24D0 DUP2 DUP4 PUSH2 0x589A JUMP JUMPDEST SWAP1 PUSH1 0x1 PUSH1 0x1 PUSH1 0x40 SHL SUB DUP3 GT PUSH2 0x2354 JUMPI PUSH2 0x24F3 DUP3 PUSH2 0x24ED DUP8 SLOAD PUSH2 0x5104 JUMP JUMPDEST DUP8 PUSH2 0x58F0 JUMP JUMPDEST PUSH1 0x0 SWAP1 PUSH1 0x1F DUP4 GT PUSH1 0x1 EQ PUSH2 0x253F JUMPI SWAP3 DUP3 PUSH1 0x1 SWAP5 SWAP4 PUSH1 0x20 SWAP4 DUP7 SWAP6 PUSH1 0x0 SWAP3 PUSH2 0x2534 JUMPI JUMPDEST POP POP PUSH1 0x0 NOT PUSH1 0x3 DUP4 SWAP1 SHL SHR NOT AND SWAP1 DUP5 SHL OR DUP7 SSTORE JUMPDEST ADD SWAP4 ADD SWAP5 ADD SWAP4 SWAP2 PUSH2 0x20E1 JUMP JUMPDEST ADD CALLDATALOAD SWAP1 POP DUP11 DUP1 PUSH2 0x2514 JUMP JUMPDEST DUP6 PUSH1 0x0 MSTORE PUSH1 0x20 PUSH1 0x0 KECCAK256 SWAP2 PUSH1 0x0 JUMPDEST PUSH1 0x1F NOT DUP6 AND DUP2 LT PUSH2 0x2597 JUMPI POP DUP4 PUSH1 0x20 SWAP4 PUSH1 0x1 SWAP7 SWAP4 DUP8 SWAP7 SWAP4 DUP8 SWAP5 PUSH1 0x1F NOT DUP2 AND LT PUSH2 0x257D JUMPI JUMPDEST POP POP POP DUP2 SHL ADD DUP7 SSTORE PUSH2 0x2528 JUMP JUMPDEST ADD CALLDATALOAD PUSH1 0x0 NOT PUSH1 0x3 DUP5 SWAP1 SHL PUSH1 0xF8 AND SHR NOT AND SWAP1 SSTORE DUP11 DUP1 DUP1 PUSH2 0x2570 JUMP JUMPDEST SWAP1 SWAP3 PUSH1 0x20 PUSH1 0x1 DUP2 SWAP3 DUP7 DUP7 ADD CALLDATALOAD DUP2 SSTORE ADD SWAP5 ADD SWAP2 ADD PUSH2 0x254C JUMP JUMPDEST ADD CALLDATALOAD SWAP1 POP DUP4 DUP1 PUSH2 0x208E JUMP JUMPDEST DUP3 PUSH1 0x0 MSTORE PUSH1 0x20 PUSH1 0x0 KECCAK256 SWAP1 PUSH1 0x0 SWAP5 JUMPDEST PUSH1 0x1F NOT DUP5 AND DUP7 LT PUSH2 0x260B JUMPI PUSH1 0x1 SWAP5 SWAP6 POP DUP4 PUSH1 0x1F NOT DUP2 AND LT PUSH2 0x25F1 JUMPI JUMPDEST POP POP POP DUP2 SHL ADD SWAP1 SSTORE PUSH2 0x20A3 JUMP JUMPDEST ADD CALLDATALOAD PUSH1 0x0 NOT PUSH1 0x3 DUP5 SWAP1 SHL PUSH1 0xF8 AND SHR NOT AND SWAP1 SSTORE DUP4 DUP1 DUP1 PUSH2 0x25E4 JUMP JUMPDEST SWAP2 PUSH1 0x20 PUSH1 0x1 DUP2 SWAP3 DUP6 DUP6 ADD CALLDATALOAD DUP2 SSTORE ADD SWAP4 ADD SWAP6 ADD SWAP5 PUSH2 0x25C8 JUMP JUMPDEST ADD CALLDATALOAD SWAP1 POP DUP5 DUP1 PUSH2 0x201A JUMP JUMPDEST PUSH1 0x6 DUP5 ADD PUSH1 0x0 MSTORE PUSH1 0x20 PUSH1 0x0 KECCAK256 SWAP2 PUSH1 0x0 JUMPDEST PUSH1 0x1F NOT DUP6 AND DUP2 LT PUSH2 0x2686 JUMPI POP SWAP2 DUP4 SWAP2 PUSH1 0x1 SWAP4 PUSH1 0x6 SWAP6 PUSH1 0x1F NOT DUP2 AND LT PUSH2 0x266C JUMPI JUMPDEST POP POP POP DUP2 SHL ADD SWAP2 ADD SSTORE PUSH2 0x2030 JUMP JUMPDEST ADD CALLDATALOAD PUSH1 0x0 NOT PUSH1 0x3 DUP5 SWAP1 SHL PUSH1 0xF8 AND SHR NOT AND SWAP1 SSTORE DUP5 DUP1 DUP1 PUSH2 0x265E JUMP JUMPDEST SWAP1 SWAP3 PUSH1 0x20 PUSH1 0x1 DUP2 SWAP3 DUP7 DUP7 ADD CALLDATALOAD DUP2 SSTORE ADD SWAP5 ADD SWAP2 ADD PUSH2 0x263E JUMP JUMPDEST ADD CALLDATALOAD SWAP1 POP DUP4 DUP1 PUSH2 0x1F85 JUMP JUMPDEST DUP3 PUSH1 0x0 MSTORE PUSH1 0x20 PUSH1 0x0 KECCAK256 SWAP1 PUSH1 0x0 SWAP5 JUMPDEST PUSH1 0x1F NOT DUP5 AND DUP7 LT PUSH2 0x26FA JUMPI PUSH1 0x1 SWAP5 SWAP6 POP DUP4 PUSH1 0x1F NOT DUP2 AND LT PUSH2 0x26E0 JUMPI JUMPDEST POP POP POP DUP2 SHL ADD SWAP1 SSTORE PUSH2 0x1F9A JUMP JUMPDEST ADD CALLDATALOAD PUSH1 0x0 NOT PUSH1 0x3 DUP5 SWAP1 SHL PUSH1 0xF8 AND SHR NOT AND SWAP1 SSTORE DUP4 DUP1 DUP1 PUSH2 0x26D3 JUMP JUMPDEST SWAP2 PUSH1 0x20 PUSH1 0x1 DUP2 SWAP3 DUP6 DUP6 ADD CALLDATALOAD DUP2 SSTORE ADD SWAP4 ADD SWAP6 ADD SWAP5 PUSH2 0x26B7 JUMP JUMPDEST ADD CALLDATALOAD SWAP1 POP DUP4 DUP1 PUSH2 0x1F13 JUMP JUMPDEST DUP3 PUSH1 0x0 MSTORE PUSH1 0x20 PUSH1 0x0 KECCAK256 SWAP1 PUSH1 0x0 SWAP5 JUMPDEST PUSH1 0x1F NOT DUP5 AND DUP7 LT PUSH2 0x276E JUMPI PUSH1 0x1 SWAP5 SWAP6 POP DUP4 PUSH1 0x1F NOT DUP2 AND LT PUSH2 0x2754 JUMPI JUMPDEST POP POP POP DUP2 SHL ADD SWAP1 SSTORE PUSH2 0x1F28 JUMP JUMPDEST ADD CALLDATALOAD PUSH1 0x0 NOT PUSH1 0x3 DUP5 SWAP1 SHL PUSH1 0xF8 AND SHR NOT AND SWAP1 SSTORE DUP4 DUP1 DUP1 PUSH2 0x2747 JUMP JUMPDEST SWAP2 PUSH1 0x20 PUSH1 0x1 DUP2 SWAP3 DUP6 DUP6 ADD CALLDATALOAD DUP2 SSTORE ADD SWAP4 ADD SWAP6 ADD SWAP5 PUSH2 0x272B JUMP JUMPDEST PUSH1 0x40 MLOAD PUSH3 0x461BCD PUSH1 0xE5 SHL DUP2 MSTORE PUSH1 0x20 PUSH1 0x4 DUP3 ADD MSTORE PUSH1 0x28 PUSH1 0x24 DUP3 ADD MSTORE PUSH32 0x4F6E6C79207468652073656C6C65722063616E20757064617465207468656972 PUSH1 0x44 DUP3 ADD MSTORE PUSH8 0x81C1C9BD91D58DD PUSH1 0xC2 SHL PUSH1 0x64 DUP3 ADD MSTORE PUSH1 0x84 SWAP1 REVERT JUMPDEST SWAP1 POP DUP3 PUSH1 0x0 SLOAD AND EQ DUP4 PUSH2 0x625 JUMP JUMPDEST POP PUSH1 0xC PUSH1 0x20 MSTORE PUSH1 0xFF PUSH1 0x40 PUSH1 0x0 KECCAK256 SLOAD AND PUSH1 0x4 DUP2 LT ISZERO PUSH2 0x757 JUMPI PUSH1 0x2 EQ DUP1 ISZERO PUSH2 0x281A JUMPI JUMPDEST PUSH2 0x2815 SWAP1 PUSH2 0x6024 JUMP JUMPDEST PUSH2 0x1D2E JUMP JUMPDEST POP PUSH1 0x0 SLOAD DUP2 AND CALLER EQ PUSH2 0x280C JUMP JUMPDEST CALLVALUE PUSH2 0x4FB JUMPI PUSH1 0x20 CALLDATASIZE PUSH1 0x3 NOT ADD SLT PUSH2 0x4FB JUMPI PUSH1 0x4 CALLDATALOAD PUSH1 0x0 MSTORE PUSH1 0xF PUSH1 0x20 MSTORE PUSH1 0x20 PUSH1 0xFF PUSH1 0x40 PUSH1 0x0 KECCAK256 SLOAD AND PUSH1 0x40 MLOAD SWAP1 ISZERO ISZERO DUP2 MSTORE RETURN JUMPDEST CALLVALUE PUSH2 0x4FB JUMPI PUSH1 0x20 CALLDATASIZE PUSH1 0x3 NOT ADD SLT PUSH2 0x4FB JUMPI PUSH2 0x2871 PUSH2 0x4E2E JUMP JUMPDEST PUSH2 0x2879 PUSH2 0x530A JUMP JUMPDEST PUSH1 0x1 PUSH1 0x1 PUSH1 0xA0 SHL SUB AND DUP1 ISZERO PUSH2 0x28D9 JUMPI PUSH1 0x40 PUSH32 0x32B449308C94E824CCEDD9877932CD82F89A481C06C4643A0CB2914454A8C582 SWAP2 CALLER PUSH1 0x0 MSTORE PUSH1 0xD PUSH1 0x20 MSTORE DUP2 PUSH1 0x0 KECCAK256 DUP2 PUSH1 0x1 PUSH1 0x1 PUSH1 0x60 SHL SUB PUSH1 0xA0 SHL DUP3 SLOAD AND OR SWAP1 SSTORE DUP2 MLOAD SWAP1 CALLER DUP3 MSTORE PUSH1 0x20 DUP3 ADD MSTORE LOG1 STOP JUMPDEST PUSH1 0x40 MLOAD PUSH3 0x461BCD PUSH1 0xE5 SHL DUP2 MSTORE PUSH1 0x20 PUSH1 0x4 DUP3 ADD MSTORE PUSH1 0x17 PUSH1 0x24 DUP3 ADD MSTORE PUSH32 0x496E76616C6964206163636F756E742061646472657373000000000000000000 PUSH1 0x44 DUP3 ADD MSTORE PUSH1 0x64 SWAP1 REVERT JUMPDEST CALLVALUE PUSH2 0x4FB JUMPI PUSH1 0x40 CALLDATASIZE PUSH1 0x3 NOT ADD SLT PUSH2 0x4FB JUMPI PUSH2 0x2937 PUSH2 0x4E2E JUMP JUMPDEST PUSH1 0x24 CALLDATALOAD SWAP1 DUP2 ISZERO ISZERO SWAP1 DUP2 DUP4 SUB PUSH2 0x4FB JUMPI PUSH1 0x1 PUSH1 0x1 PUSH1 0xA0 SHL SUB AND SWAP2 CALLER DUP4 EQ PUSH2 0x29B4 JUMPI PUSH2 0x2986 SWAP1 CALLER PUSH1 0x0 MSTORE PUSH1 0x7 PUSH1 0x20 MSTORE PUSH1 0x40 PUSH1 0x0 KECCAK256 DUP5 PUSH1 0x0 MSTORE PUSH1 0x20 MSTORE PUSH1 0x40 PUSH1 0x0 KECCAK256 SWAP1 PUSH1 0xFF DUP1 NOT DUP4 SLOAD AND SWAP2 ISZERO ISZERO AND OR SWAP1 SSTORE JUMP JUMPDEST PUSH1 0x40 MLOAD SWAP1 DUP2 MSTORE PUSH32 0x17307EAB39AB6107E8899845AD3D59BD9653F200F220920489CA2B5937696C31 PUSH1 0x20 CALLER SWAP3 LOG3 STOP JUMPDEST PUSH1 0x40 MLOAD PUSH3 0x461BCD PUSH1 0xE5 SHL DUP2 MSTORE PUSH1 0x20 PUSH1 0x4 DUP3 ADD MSTORE PUSH1 0x19 PUSH1 0x24 DUP3 ADD MSTORE PUSH32 0x4552433732313A20617070726F766520746F2063616C6C657200000000000000 PUSH1 0x44 DUP3 ADD MSTORE PUSH1 0x64 SWAP1 REVERT JUMPDEST CALLVALUE PUSH2 0x4FB JUMPI PUSH1 0x40 CALLDATASIZE PUSH1 0x3 NOT ADD SLT PUSH2 0x4FB JUMPI PUSH2 0x2A12 PUSH2 0x4E2E JUMP JUMPDEST PUSH1 0x1 PUSH1 0x1 PUSH1 0xA0 SHL SUB SWAP1 DUP2 AND PUSH1 0x0 SWAP1 DUP2 MSTORE PUSH1 0x14 PUSH1 0x20 MSTORE PUSH1 0x40 SWAP1 KECCAK256 DUP1 SLOAD PUSH1 0x24 CALLDATALOAD SWAP1 DUP2 LT ISZERO PUSH2 0x4FB JUMPI PUSH2 0x847 SWAP2 PUSH2 0x51E4 JUMP JUMPDEST CALLVALUE PUSH2 0x4FB JUMPI PUSH1 0x20 DUP1 PUSH1 0x3 NOT CALLDATASIZE ADD SLT PUSH2 0x4FB JUMPI PUSH1 0x4 CALLDATALOAD DUP1 PUSH1 0x0 MSTORE PUSH1 0xE SWAP1 DUP2 DUP4 MSTORE PUSH1 0xFF PUSH1 0xF PUSH1 0x40 PUSH1 0x0 KECCAK256 ADD SLOAD SWAP2 PUSH2 0x2A7C DUP3 PUSH1 0x10 SWAP5 DUP6 SHR AND ISZERO PUSH2 0x5859 JUMP JUMPDEST DUP1 PUSH1 0x0 MSTORE PUSH1 0xF DUP6 MSTORE PUSH2 0x2A94 DUP3 PUSH1 0x40 PUSH1 0x0 KECCAK256 SLOAD AND PUSH2 0x5814 JUMP JUMPDEST PUSH1 0x0 SWAP3 PUSH1 0x0 JUMPDEST DUP3 PUSH1 0x0 MSTORE DUP6 DUP8 MSTORE DUP2 PUSH1 0x40 PUSH1 0x0 KECCAK256 ADD DUP1 SLOAD DUP3 LT ISZERO PUSH2 0x2AEB JUMPI PUSH1 0x4 PUSH2 0x2ABE DUP4 DUP8 SWAP4 PUSH2 0x68C2 JUMP JUMPDEST POP ADD SLOAD AND ISZERO PUSH2 0x2AD6 JUMPI JUMPDEST PUSH2 0x2AD1 SWAP1 PUSH2 0x607E JUMP JUMPDEST PUSH2 0x2A9A JUMP JUMPDEST SWAP4 PUSH2 0x2AE3 PUSH2 0x2AD1 SWAP2 PUSH2 0x607E JUMP JUMPDEST SWAP5 SWAP1 POP PUSH2 0x2AC8 JUMP JUMPDEST POP POP DUP5 DUP7 PUSH2 0x2AF8 DUP7 PUSH2 0x600D JUMP JUMPDEST SWAP6 PUSH2 0x2B06 PUSH1 0x40 MLOAD SWAP8 DUP9 PUSH2 0x4EC8 JUMP JUMPDEST DUP1 DUP8 MSTORE PUSH2 0x2B15 PUSH1 0x1F NOT SWAP2 PUSH2 0x600D JUMP JUMPDEST ADD DUP2 PUSH1 0x0 JUMPDEST DUP3 DUP2 LT PUSH2 0x2BBE JUMPI POP POP POP PUSH1 0x0 SWAP4 PUSH1 0x0 JUMPDEST DUP2 PUSH1 0x0 MSTORE DUP4 DUP4 MSTORE DUP5 PUSH1 0x40 PUSH1 0x0 KECCAK256 ADD DUP1 SLOAD DUP3 LT ISZERO PUSH2 0x2BAB JUMPI PUSH1 0x4 PUSH2 0x2B4E DUP4 DUP11 SWAP4 PUSH2 0x68C2 JUMP JUMPDEST POP ADD SLOAD AND ISZERO PUSH2 0x2B66 JUMPI JUMPDEST PUSH2 0x2B61 SWAP1 PUSH2 0x607E JUMP JUMPDEST PUSH2 0x2B2A JUMP JUMPDEST SWAP5 PUSH2 0x2BA3 PUSH2 0x2B61 SWAP2 DUP4 PUSH1 0x0 MSTORE DUP6 DUP6 MSTORE PUSH2 0x2B8E PUSH2 0x2B88 DUP10 DUP10 PUSH1 0x40 PUSH1 0x0 KECCAK256 ADD PUSH2 0x68C2 JUMP JUMPDEST POP PUSH2 0x67E3 JUMP JUMPDEST PUSH2 0x2B98 DUP3 DUP13 PUSH2 0x6883 JUMP JUMPDEST MSTORE PUSH2 0x43E DUP2 DUP12 PUSH2 0x6883 JUMP JUMPDEST SWAP6 SWAP1 POP PUSH2 0x2B58 JUMP JUMPDEST PUSH1 0x40 MLOAD DUP5 DUP2 MSTORE DUP1 PUSH2 0x261 DUP2 DUP8 ADD DUP13 PUSH2 0x4B95 JUMP JUMPDEST PUSH2 0x2BC6 PUSH2 0x6897 JUMP JUMPDEST DUP3 DUP3 DUP12 ADD ADD MSTORE ADD DUP3 SWAP1 PUSH2 0x2B1A JUMP JUMPDEST CALLVALUE PUSH2 0x4FB JUMPI PUSH1 0x40 CALLDATASIZE PUSH1 0x3 NOT ADD SLT PUSH2 0x4FB JUMPI PUSH2 0x2BED PUSH2 0x4E2E JUMP JUMPDEST PUSH1 0x24 SWAP1 DUP2 CALLDATALOAD SWAP1 PUSH1 0x4 DUP3 LT ISZERO PUSH2 0x4FB JUMPI PUSH2 0x2C04 PUSH2 0x530A JUMP JUMPDEST PUSH1 0x1 PUSH1 0x1 PUSH1 0xA0 SHL SUB AND SWAP2 DUP3 ISZERO PUSH2 0x2D93 JUMPI DUP3 PUSH1 0x0 MSTORE PUSH1 0x20 SWAP1 PUSH1 0x12 DUP3 MSTORE PUSH1 0xFF PUSH1 0x40 PUSH1 0x0 KECCAK256 SLOAD AND ISZERO PUSH2 0x2D58 JUMPI DUP4 PUSH1 0x0 MSTORE PUSH1 0xC DUP3 MSTORE PUSH1 0xFF PUSH1 0x40 PUSH1 0x0 KECCAK256 SLOAD AND PUSH1 0x4 DUP2 LT ISZERO PUSH2 0x2D0B JUMPI DUP4 EQ PUSH2 0x2D20 JUMPI PUSH1 0x2 DUP4 EQ PUSH2 0x2CA7 JUMPI JUMPDEST POP PUSH32 0xD8F7BCB2C5CFFC294A0AAEF719685993D7BE95273FB8254803A1563510CCEFED SWAP2 PUSH1 0xC PUSH2 0x2CA2 SWAP3 DUP6 PUSH1 0x0 MSTORE MSTORE PUSH1 0x40 PUSH1 0x0 KECCAK256 PUSH1 0xFF NOT DUP2 SLOAD AND PUSH1 0xFF DUP4 AND OR SWAP1 SSTORE PUSH1 0x40 MLOAD SWAP2 DUP3 SWAP2 DUP3 PUSH2 0x50F1 JUMP JUMPDEST SUB SWAP1 LOG2 STOP JUMPDEST DUP4 PUSH1 0x0 MSTORE PUSH1 0xC DUP3 MSTORE PUSH1 0xFF PUSH1 0x40 PUSH1 0x0 KECCAK256 SLOAD AND PUSH1 0x4 DUP2 LT ISZERO PUSH2 0x2D0B JUMPI PUSH1 0x1 EQ PUSH2 0x2C56 JUMPI SWAP1 PUSH1 0x1F PUSH1 0x64 SWAP3 PUSH1 0x40 MLOAD SWAP3 PUSH3 0x461BCD PUSH1 0xE5 SHL DUP5 MSTORE PUSH1 0x4 DUP5 ADD MSTORE DUP3 ADD MSTORE PUSH32 0x43616E206F6E6C79207665726966792070656E64696E672073656C6C65727300 PUSH1 0x44 DUP3 ADD MSTORE REVERT JUMPDEST POP PUSH4 0x4E487B71 PUSH1 0xE0 SHL PUSH1 0x0 SWAP1 DUP2 MSTORE PUSH1 0x21 PUSH1 0x4 MSTORE REVERT JUMPDEST SWAP1 PUSH1 0x12 PUSH1 0x64 SWAP3 PUSH1 0x40 MLOAD SWAP3 PUSH3 0x461BCD PUSH1 0xE5 SHL DUP5 MSTORE PUSH1 0x4 DUP5 ADD MSTORE DUP3 ADD MSTORE PUSH18 0x14DD185D1D5CC8185B1C9958591E481CD95D PUSH1 0x72 SHL PUSH1 0x44 DUP3 ADD MSTORE REVERT JUMPDEST SWAP1 PUSH1 0x15 PUSH1 0x64 SWAP3 PUSH1 0x40 MLOAD SWAP3 PUSH3 0x461BCD PUSH1 0xE5 SHL DUP5 MSTORE PUSH1 0x4 DUP5 ADD MSTORE DUP3 ADD MSTORE PUSH21 0x14D95B1B195C881B9BDD081C9959DA5CDD195C9959 PUSH1 0x5A SHL PUSH1 0x44 DUP3 ADD MSTORE REVERT JUMPDEST PUSH1 0x64 SWAP1 PUSH1 0x16 PUSH1 0x40 MLOAD SWAP2 PUSH3 0x461BCD PUSH1 0xE5 SHL DUP4 MSTORE PUSH1 0x20 PUSH1 0x4 DUP5 ADD MSTORE DUP3 ADD MSTORE PUSH22 0x496E76616C69642073656C6C65722061646472657373 PUSH1 0x50 SHL PUSH1 0x44 DUP3 ADD MSTORE REVERT JUMPDEST CALLVALUE PUSH2 0x4FB JUMPI PUSH1 0x0 CALLDATASIZE PUSH1 0x3 NOT ADD SLT PUSH2 0x4FB JUMPI PUSH1 0x40 MLOAD PUSH1 0x0 PUSH1 0x3 SLOAD PUSH2 0x2DF2 DUP2 PUSH2 0x5104 JUMP JUMPDEST DUP1 DUP5 MSTORE SWAP1 PUSH1 0x1 SWAP1 DUP2 DUP2 AND SWAP1 DUP2 ISZERO PUSH2 0x2E8B JUMPI POP PUSH1 0x1 EQ PUSH2 0x2E30 JUMPI JUMPDEST PUSH2 0x261 DUP5 PUSH2 0x2E1C DUP2 DUP7 SUB DUP3 PUSH2 0x4EC8 JUMP JUMPDEST PUSH1 0x40 MLOAD SWAP2 DUP3 SWAP2 PUSH1 0x20 DUP4 MSTORE PUSH1 0x20 DUP4 ADD SWAP1 PUSH2 0x4B55 JUMP JUMPDEST PUSH1 0x3 PUSH1 0x0 SWAP1 DUP2 MSTORE SWAP3 POP PUSH32 0xC2575A0E9E593C00F959F8C92F12DB2869C3395A3B0502D05E2516446F71F85B JUMPDEST DUP3 DUP5 LT PUSH2 0x2E73 JUMPI POP POP POP DUP2 ADD PUSH1 0x20 ADD PUSH2 0x2E1C DUP3 PUSH2 0x2E0C JUMP JUMPDEST DUP1 SLOAD PUSH1 0x20 DUP6 DUP8 ADD DUP2 ADD SWAP2 SWAP1 SWAP2 MSTORE SWAP1 SWAP4 ADD SWAP3 DUP2 ADD PUSH2 0x2E5B JUMP JUMPDEST PUSH1 0xFF NOT AND PUSH1 0x20 DUP1 DUP8 ADD SWAP2 SWAP1 SWAP2 MSTORE SWAP3 ISZERO ISZERO PUSH1 0x5 SHL DUP6 ADD SWAP1 SWAP3 ADD SWAP3 POP PUSH2 0x2E1C SWAP2 POP DUP4 SWAP1 POP PUSH2 0x2E0C JUMP JUMPDEST CALLVALUE PUSH2 0x4FB JUMPI PUSH1 0x0 CALLDATASIZE PUSH1 0x3 NOT ADD SLT PUSH2 0x4FB JUMPI PUSH1 0x0 SLOAD PUSH1 0x40 MLOAD PUSH1 0x1 PUSH1 0x1 PUSH1 0xA0 SHL SUB SWAP1 SWAP2 AND DUP2 MSTORE PUSH1 0x20 SWAP1 RETURN JUMPDEST CALLVALUE PUSH2 0x4FB JUMPI PUSH1 0x20 CALLDATASIZE PUSH1 0x3 NOT ADD SLT PUSH2 0x4FB JUMPI PUSH1 0x4 CALLDATALOAD PUSH1 0x0 SWAP1 DUP2 MSTORE PUSH1 0xE PUSH1 0x20 MSTORE PUSH1 0x40 SWAP1 KECCAK256 DUP1 SLOAD PUSH1 0x1 DUP3 ADD SLOAD PUSH1 0x1 PUSH1 0x1 PUSH1 0xA0 SHL SUB AND SWAP2 PUSH2 0x2F1A PUSH1 0x2 DUP3 ADD PUSH2 0x513E JUMP JUMPDEST PUSH2 0x2F26 PUSH1 0x3 DUP4 ADD PUSH2 0x513E JUMP JUMPDEST PUSH1 0x4 DUP4 ADD SLOAD PUSH1 0x5 DUP5 ADD SLOAD SWAP1 PUSH2 0x2F3D PUSH1 0x6 DUP7 ADD PUSH2 0x513E JUMP JUMPDEST PUSH2 0x2F49 PUSH1 0x7 DUP8 ADD PUSH2 0x513E JUMP JUMPDEST PUSH2 0x2F55 PUSH1 0x9 DUP9 ADD PUSH2 0x513E JUMP JUMPDEST SWAP1 PUSH2 0x2F62 PUSH1 0xA DUP10 ADD PUSH2 0x513E JUMP JUMPDEST SWAP3 PUSH1 0xB DUP10 ADD SLOAD SWAP5 PUSH1 0xC DUP11 ADD PUSH2 0x2F76 SWAP1 PUSH2 0x513E JUMP JUMPDEST SWAP7 PUSH2 0x2F83 PUSH1 0xD DUP13 ADD PUSH2 0x513E JUMP JUMPDEST SWAP9 PUSH1 0xE DUP13 ADD SLOAD SWAP12 PUSH1 0xF ADD SLOAD SWAP11 PUSH1 0x40 MLOAD SWAP15 DUP16 SWAP15 DUP16 SWAP1 DUP2 MSTORE PUSH1 0x20 ADD MSTORE DUP14 PUSH2 0x220 SWAP1 DUP2 PUSH1 0x40 DUP3 ADD MSTORE ADD PUSH2 0x2FB2 SWAP2 PUSH2 0x4B55 JUMP JUMPDEST DUP14 DUP2 SUB PUSH1 0x60 DUP16 ADD MSTORE PUSH2 0x2FC3 SWAP2 PUSH2 0x4B55 JUMP JUMPDEST SWAP2 PUSH1 0x80 DUP14 ADD MSTORE PUSH1 0xA0 DUP13 ADD MSTORE DUP11 DUP2 SUB PUSH1 0xC0 DUP13 ADD MSTORE PUSH2 0x2FDF SWAP2 PUSH2 0x4B55 JUMP JUMPDEST DUP10 DUP2 SUB PUSH1 0xE0 DUP12 ADD MSTORE PUSH2 0x2FF0 SWAP2 PUSH2 0x4B55 JUMP JUMPDEST DUP9 DUP2 SUB PUSH2 0x100 DUP11 ADD MSTORE PUSH2 0x3002 SWAP2 PUSH2 0x4B55 JUMP JUMPDEST DUP8 DUP2 SUB PUSH2 0x120 DUP10 ADD MSTORE PUSH2 0x3014 SWAP2 PUSH2 0x4B55 JUMP JUMPDEST SWAP1 PUSH2 0x140 DUP8 ADD MSTORE DUP6 DUP2 SUB PUSH2 0x160 DUP8 ADD MSTORE PUSH2 0x302D SWAP2 PUSH2 0x4B55 JUMP JUMPDEST DUP5 DUP2 SUB PUSH2 0x180 DUP7 ADD MSTORE PUSH2 0x303F SWAP2 PUSH2 0x4B55 JUMP JUMPDEST SWAP2 PUSH2 0x1A0 DUP5 ADD MSTORE PUSH1 0xFF DUP2 AND ISZERO ISZERO PUSH2 0x1C0 DUP5 ADD MSTORE DUP1 PUSH1 0x8 SHR PUSH1 0xFF AND ISZERO ISZERO PUSH2 0x1E0 DUP5 ADD MSTORE PUSH1 0x10 SHR PUSH1 0xFF AND ISZERO ISZERO PUSH2 0x200 DUP4 ADD MSTORE SUB SWAP1 RETURN JUMPDEST CALLVALUE PUSH2 0x4FB JUMPI PUSH1 0x0 CALLDATASIZE PUSH1 0x3 NOT ADD SLT PUSH2 0x4FB JUMPI PUSH2 0x308C PUSH2 0x530A JUMP JUMPDEST PUSH1 0x0 DUP1 SLOAD PUSH1 0x1 PUSH1 0x1 PUSH1 0xA0 SHL SUB NOT DUP2 AND DUP3 SSTORE PUSH1 0x1 PUSH1 0x1 PUSH1 0xA0 SHL SUB AND PUSH32 0x8BE0079C531659141344CD1FD0A4F28419497F9722A3DAAFE3B4186F6B6457E0 DUP3 DUP1 LOG3 STOP JUMPDEST CALLVALUE PUSH2 0x4FB JUMPI PUSH1 0x20 CALLDATASIZE PUSH1 0x3 NOT ADD SLT PUSH2 0x4FB JUMPI PUSH1 0x1 PUSH1 0x1 PUSH1 0xA0 SHL SUB PUSH2 0x30ED PUSH2 0x4E2E JUMP JUMPDEST AND DUP1 ISZERO PUSH2 0x310C JUMPI PUSH1 0x0 MSTORE PUSH1 0x5 PUSH1 0x20 MSTORE PUSH1 0x20 PUSH1 0x40 PUSH1 0x0 KECCAK256 SLOAD PUSH1 0x40 MLOAD SWAP1 DUP2 MSTORE RETURN JUMPDEST PUSH1 0x40 MLOAD PUSH3 0x461BCD PUSH1 0xE5 SHL DUP2 MSTORE PUSH1 0x20 PUSH1 0x4 DUP3 ADD MSTORE PUSH1 0x29 PUSH1 0x24 DUP3 ADD MSTORE PUSH32 0x4552433732313A2061646472657373207A65726F206973206E6F742061207661 PUSH1 0x44 DUP3 ADD MSTORE PUSH9 0x3634B21037BBB732B9 PUSH1 0xB9 SHL PUSH1 0x64 DUP3 ADD MSTORE PUSH1 0x84 SWAP1 REVERT JUMPDEST PUSH1 0x3 NOT PUSH1 0x40 CALLDATASIZE DUP3 ADD SLT PUSH2 0x4FB JUMPI PUSH1 0x24 SWAP1 PUSH1 0x1 PUSH1 0x1 PUSH1 0x40 SHL SUB DUP3 CALLDATALOAD GT PUSH2 0x4FB JUMPI PUSH2 0x100 SWAP1 DUP3 CALLDATALOAD CALLDATASIZE SUB ADD SLT PUSH2 0x4FB JUMPI PUSH1 0x2 PUSH1 0x1 SLOAD EQ PUSH2 0x397D JUMPI PUSH1 0x2 PUSH1 0x1 SSTORE PUSH1 0x4 CALLDATALOAD PUSH1 0x0 MSTORE PUSH1 0xF PUSH1 0x20 MSTORE PUSH2 0x31BB PUSH1 0xFF PUSH1 0x40 PUSH1 0x0 KECCAK256 SLOAD AND PUSH2 0x5814 JUMP JUMPDEST PUSH1 0x4 CALLDATALOAD PUSH1 0x0 MSTORE PUSH1 0xE PUSH1 0x20 MSTORE PUSH2 0x31DE PUSH1 0xFF PUSH1 0xF PUSH1 0x40 PUSH1 0x0 KECCAK256 ADD SLOAD PUSH1 0x10 SHR AND ISZERO PUSH2 0x5859 JUMP JUMPDEST PUSH1 0x4 CALLDATALOAD PUSH1 0x0 MSTORE PUSH1 0xE PUSH1 0x20 MSTORE PUSH1 0x1 DUP1 PUSH1 0xA0 SHL SUB PUSH1 0x1 PUSH1 0x40 PUSH1 0x0 KECCAK256 ADD SLOAD AND PUSH1 0x0 MSTORE PUSH1 0xC PUSH1 0x20 MSTORE PUSH1 0xFF PUSH1 0x40 PUSH1 0x0 KECCAK256 SLOAD AND PUSH1 0x4 DUP2 LT ISZERO PUSH2 0x2D0B JUMPI PUSH1 0x2 SUB PUSH2 0x3940 JUMPI PUSH1 0x4 CALLDATALOAD PUSH1 0x0 MSTORE PUSH1 0xE PUSH1 0x20 MSTORE PUSH1 0x5 PUSH1 0x40 PUSH1 0x0 KECCAK256 ADD SLOAD ISZERO PUSH2 0x38FC JUMPI PUSH1 0x4 CALLDATALOAD PUSH1 0x0 MSTORE PUSH1 0xE PUSH1 0x20 MSTORE PUSH1 0xFF PUSH1 0xF PUSH1 0x40 PUSH1 0x0 KECCAK256 ADD SLOAD AND PUSH2 0x38B8 JUMPI PUSH1 0x4 CALLDATALOAD PUSH1 0x0 MSTORE PUSH1 0xE PUSH1 0x20 MSTORE PUSH1 0x1 DUP1 PUSH1 0xA0 SHL SUB PUSH1 0x1 PUSH1 0x40 PUSH1 0x0 KECCAK256 ADD SLOAD AND CALLER EQ PUSH2 0x3874 JUMPI PUSH2 0x327F PUSH1 0x4 DUP3 CALLDATALOAD ADD DUP1 PUSH2 0x589A JUMP JUMPDEST SWAP1 POP ISZERO PUSH2 0x383B JUMPI PUSH2 0x3297 DUP2 DUP1 CALLDATALOAD ADD DUP3 CALLDATALOAD PUSH1 0x4 ADD PUSH2 0x589A JUMP JUMPDEST SWAP1 POP ISZERO PUSH2 0x37F7 JUMPI PUSH2 0x32B0 PUSH1 0x44 DUP3 CALLDATALOAD ADD DUP3 CALLDATALOAD PUSH1 0x4 ADD PUSH2 0x589A JUMP JUMPDEST SWAP1 POP ISZERO PUSH2 0x37C3 JUMPI PUSH2 0x32C9 PUSH1 0x64 DUP3 CALLDATALOAD ADD DUP3 CALLDATALOAD PUSH1 0x4 ADD PUSH2 0x589A JUMP JUMPDEST SWAP1 POP ISZERO PUSH2 0x378E JUMPI PUSH2 0x32E2 PUSH1 0x84 DUP3 CALLDATALOAD ADD DUP3 CALLDATALOAD PUSH1 0x4 ADD PUSH2 0x589A JUMP JUMPDEST SWAP1 POP ISZERO PUSH2 0x3757 JUMPI PUSH2 0x32FB PUSH1 0xA4 DUP3 CALLDATALOAD ADD DUP3 CALLDATALOAD PUSH1 0x4 ADD PUSH2 0x589A JUMP JUMPDEST SWAP1 POP ISZERO PUSH2 0x371C JUMPI PUSH2 0x3314 PUSH1 0xC4 DUP3 CALLDATALOAD ADD DUP3 CALLDATALOAD PUSH1 0x4 ADD PUSH2 0x589A JUMP JUMPDEST SWAP1 POP ISZERO PUSH2 0x36E7 JUMPI PUSH2 0x332D PUSH1 0xE4 DUP3 CALLDATALOAD ADD DUP3 CALLDATALOAD PUSH1 0x4 ADD PUSH2 0x589A JUMP JUMPDEST SWAP1 POP ISZERO PUSH2 0x36B2 JUMPI PUSH1 0x4 CALLDATALOAD PUSH1 0x0 MSTORE PUSH1 0xE PUSH1 0x20 MSTORE PUSH1 0x4 PUSH1 0x40 PUSH1 0x0 KECCAK256 ADD SLOAD SWAP1 DUP2 CALLVALUE LT PUSH2 0x3679 JUMPI PUSH1 0x4 CALLDATALOAD PUSH1 0x0 MSTORE PUSH1 0xE PUSH1 0x20 MSTORE PUSH1 0x5 PUSH1 0x40 PUSH1 0x0 KECCAK256 ADD DUP1 SLOAD DUP1 ISZERO PUSH2 0x3664 JUMPI PUSH1 0x0 NOT ADD SWAP1 SSTORE PUSH1 0x4 CALLDATALOAD PUSH1 0x0 MSTORE PUSH1 0xE PUSH1 0x20 MSTORE PUSH1 0x40 PUSH1 0x0 KECCAK256 PUSH1 0x5 DUP2 ADD SLOAD ISZERO PUSH2 0x3650 JUMPI JUMPDEST PUSH1 0x1 ADD SLOAD PUSH1 0x40 MLOAD PUSH1 0x1 PUSH1 0x1 PUSH1 0xA0 SHL SUB SWAP1 SWAP2 AND SWAP2 SWAP1 PUSH2 0x33A9 DUP2 PUSH2 0x4E76 JUMP JUMPDEST DUP2 CALLDATALOAD PUSH1 0x4 ADD CALLDATALOAD PUSH1 0x1 PUSH1 0x1 PUSH1 0x40 SHL SUB DUP2 GT PUSH2 0x4FB JUMPI PUSH2 0x33CE SWAP1 PUSH1 0x4 CALLDATASIZE SWAP2 DUP6 CALLDATALOAD ADD ADD PUSH2 0x4F3B JUMP JUMPDEST DUP2 MSTORE PUSH1 0x1 PUSH1 0x1 PUSH1 0x40 SHL SUB DUP3 DUP1 CALLDATALOAD ADD CALLDATALOAD GT PUSH2 0x4FB JUMPI PUSH2 0x33F5 CALLDATASIZE DUP4 CALLDATALOAD DUP1 DUP6 ADD CALLDATALOAD ADD PUSH1 0x4 ADD PUSH2 0x4F3B JUMP JUMPDEST PUSH1 0x20 DUP3 ADD MSTORE PUSH1 0x44 DUP3 CALLDATALOAD ADD CALLDATALOAD PUSH1 0x1 PUSH1 0x1 PUSH1 0x40 SHL SUB DUP2 GT PUSH2 0x4FB JUMPI PUSH2 0x341F SWAP1 PUSH1 0x4 CALLDATASIZE SWAP2 DUP6 CALLDATALOAD ADD ADD PUSH2 0x4F3B JUMP JUMPDEST PUSH1 0x40 DUP3 ADD MSTORE PUSH1 0x64 DUP3 CALLDATALOAD ADD CALLDATALOAD PUSH1 0x1 PUSH1 0x1 PUSH1 0x40 SHL SUB DUP2 GT PUSH2 0x4FB JUMPI PUSH2 0x3449 SWAP1 PUSH1 0x4 CALLDATASIZE SWAP2 DUP6 CALLDATALOAD ADD ADD PUSH2 0x4F3B JUMP JUMPDEST PUSH1 0x60 DUP3 ADD MSTORE PUSH1 0x84 DUP3 CALLDATALOAD ADD CALLDATALOAD PUSH1 0x1 PUSH1 0x1 PUSH1 0x40 SHL SUB DUP2 GT PUSH2 0x4FB JUMPI PUSH2 0x3473 SWAP1 PUSH1 0x4 CALLDATASIZE SWAP2 DUP6 CALLDATALOAD ADD ADD PUSH2 0x4F3B JUMP JUMPDEST PUSH1 0x80 DUP3 ADD MSTORE PUSH1 0xA4 DUP3 CALLDATALOAD ADD CALLDATALOAD PUSH1 0x1 PUSH1 0x1 PUSH1 0x40 SHL SUB DUP2 GT PUSH2 0x4FB JUMPI PUSH2 0x349D SWAP1 PUSH1 0x4 CALLDATASIZE SWAP2 DUP6 CALLDATALOAD ADD ADD PUSH2 0x4F3B JUMP JUMPDEST PUSH1 0xA0 DUP3 ADD MSTORE PUSH1 0xC4 DUP3 CALLDATALOAD ADD CALLDATALOAD PUSH1 0x1 PUSH1 0x1 PUSH1 0x40 SHL SUB DUP2 GT PUSH2 0x4FB JUMPI PUSH2 0x34C7 SWAP1 PUSH1 0x4 CALLDATASIZE SWAP2 DUP6 CALLDATALOAD ADD ADD PUSH2 0x4F3B JUMP JUMPDEST PUSH1 0xC0 DUP3 ADD MSTORE PUSH1 0xE4 DUP3 CALLDATALOAD ADD CALLDATALOAD SWAP1 PUSH1 0x1 PUSH1 0x1 PUSH1 0x40 SHL SUB DUP3 GT PUSH2 0x4FB JUMPI PUSH2 0x34F5 PUSH2 0x3560 SWAP3 PUSH1 0x4 CALLDATASIZE SWAP2 DUP7 CALLDATALOAD ADD ADD PUSH2 0x4F3B JUMP JUMPDEST PUSH1 0xE0 DUP3 ADD MSTORE PUSH1 0x40 MLOAD SWAP1 PUSH2 0x3507 DUP3 PUSH2 0x4E76 JUMP JUMPDEST PUSH1 0x4 CALLDATALOAD DUP3 MSTORE DUP6 PUSH1 0x20 DUP4 ADD MSTORE DUP6 PUSH1 0x40 DUP4 ADD MSTORE TIMESTAMP PUSH1 0x60 DUP4 ADD MSTORE CALLER PUSH1 0x80 DUP4 ADD MSTORE DUP5 PUSH1 0xA0 DUP4 ADD MSTORE PUSH1 0x0 PUSH1 0xC0 DUP4 ADD MSTORE PUSH1 0xE0 DUP3 ADD MSTORE CALLER PUSH1 0x0 MSTORE PUSH1 0x14 PUSH1 0x20 MSTORE PUSH2 0x354D DUP2 PUSH1 0x40 PUSH1 0x0 KECCAK256 PUSH2 0x5935 JUMP JUMPDEST DUP4 PUSH1 0x0 MSTORE PUSH1 0x15 PUSH1 0x20 MSTORE PUSH1 0x40 PUSH1 0x0 KECCAK256 PUSH2 0x5935 JUMP JUMPDEST DUP2 PUSH1 0x0 MSTORE PUSH1 0x13 PUSH1 0x20 MSTORE PUSH1 0x40 PUSH1 0x0 KECCAK256 DUP1 SLOAD SWAP2 DUP5 DUP4 ADD DUP1 SWAP4 GT PUSH2 0x363C JUMPI POP SSTORE PUSH1 0x40 MLOAD DUP3 DUP2 MSTORE DUP3 PUSH1 0x20 DUP3 ADD MSTORE TIMESTAMP PUSH1 0x40 DUP3 ADD MSTORE CALLER SWAP1 PUSH32 0x45280C7AC9CEC77EDD454E39E1641A3E22619146CF074A4239BEEE86A7C07EDC PUSH1 0x60 PUSH1 0x4 CALLDATALOAD SWAP3 LOG4 PUSH1 0x1 PUSH1 0x9 SLOAD ADD PUSH1 0x9 SSTORE PUSH2 0x35CC DUP2 CALLVALUE PUSH2 0x58CC JUMP JUMPDEST DUP1 PUSH2 0x362C JUMPI JUMPDEST POP PUSH1 0x4 CALLDATALOAD PUSH1 0x0 MSTORE PUSH1 0xE PUSH1 0x20 MSTORE PUSH1 0x1 DUP1 PUSH1 0xA0 SHL SUB PUSH1 0x1 PUSH1 0x40 PUSH1 0x0 KECCAK256 ADD SLOAD AND SWAP1 PUSH1 0x40 MLOAD SWAP1 DUP2 MSTORE TIMESTAMP PUSH1 0x20 DUP3 ADD MSTORE CALLER SWAP1 PUSH32 0xBE6177108F4DF43C5D7BE79CB219C969FC97915BBDB4B56D14D391DCDCC16060 PUSH1 0x40 PUSH1 0x4 CALLDATALOAD SWAP3 LOG4 PUSH1 0x1 DUP1 SSTORE STOP JUMPDEST PUSH2 0x3636 SWAP1 CALLER PUSH2 0x608D JUMP JUMPDEST DUP2 PUSH2 0x35D2 JUMP JUMPDEST PUSH4 0x4E487B71 PUSH1 0xE0 SHL PUSH1 0x0 SWAP1 DUP2 MSTORE PUSH1 0x11 PUSH1 0x4 MSTORE REVERT JUMPDEST PUSH1 0xF DUP2 ADD DUP1 SLOAD PUSH1 0xFF NOT AND PUSH1 0x1 OR SWAP1 SSTORE PUSH2 0x338C JUMP JUMPDEST DUP3 PUSH4 0x4E487B71 PUSH1 0xE0 SHL PUSH1 0x0 MSTORE PUSH1 0x11 PUSH1 0x4 MSTORE PUSH1 0x0 REVERT JUMPDEST PUSH1 0x64 SWAP1 PUSH1 0x12 PUSH1 0x40 MLOAD SWAP2 PUSH3 0x461BCD PUSH1 0xE5 SHL DUP4 MSTORE PUSH1 0x20 PUSH1 0x4 DUP5 ADD MSTORE DUP3 ADD MSTORE PUSH18 0x496E73756666696369656E742066756E6473 PUSH1 0x70 SHL PUSH1 0x44 DUP3 ADD MSTORE REVERT JUMPDEST PUSH1 0x64 SWAP1 PUSH1 0xE PUSH1 0x40 MLOAD SWAP2 PUSH3 0x461BCD PUSH1 0xE5 SHL DUP4 MSTORE PUSH1 0x20 PUSH1 0x4 DUP5 ADD MSTORE DUP3 ADD MSTORE PUSH14 0x115B585A5B081C995C5D5A5C9959 PUSH1 0x92 SHL PUSH1 0x44 DUP3 ADD MSTORE REVERT JUMPDEST PUSH1 0x64 SWAP1 PUSH1 0xE PUSH1 0x40 MLOAD SWAP2 PUSH3 0x461BCD PUSH1 0xE5 SHL DUP4 MSTORE PUSH1 0x20 PUSH1 0x4 DUP5 ADD MSTORE DUP3 ADD MSTORE PUSH14 0x141A1BDB99481C995C5D5A5C9959 PUSH1 0x92 SHL PUSH1 0x44 DUP3 ADD MSTORE REVERT JUMPDEST PUSH1 0x64 SWAP1 PUSH1 0x14 PUSH1 0x40 MLOAD SWAP2 PUSH3 0x461BCD PUSH1 0xE5 SHL DUP4 MSTORE PUSH1 0x20 PUSH1 0x4 DUP5 ADD MSTORE DUP3 ADD MSTORE PUSH20 0x141BDCDD185B0818DBD919481C995C5D5A5C9959 PUSH1 0x62 SHL PUSH1 0x44 DUP3 ADD MSTORE REVERT JUMPDEST PUSH1 0x64 SWAP1 PUSH1 0x10 PUSH1 0x40 MLOAD SWAP2 PUSH3 0x461BCD PUSH1 0xE5 SHL DUP4 MSTORE PUSH1 0x20 PUSH1 0x4 DUP5 ADD MSTORE DUP3 ADD MSTORE PUSH16 0x10DBDD5B9D1C9E481C995C5D5A5C9959 PUSH1 0x82 SHL PUSH1 0x44 DUP3 ADD MSTORE REVERT JUMPDEST PUSH1 0x64 SWAP1 PUSH1 0xE PUSH1 0x40 MLOAD SWAP2 PUSH3 0x461BCD PUSH1 0xE5 SHL DUP4 MSTORE PUSH1 0x20 PUSH1 0x4 DUP5 ADD MSTORE DUP3 ADD MSTORE PUSH14 0x14DD185D19481C995C5D5A5C9959 PUSH1 0x92 SHL PUSH1 0x44 DUP3 ADD MSTORE REVERT JUMPDEST PUSH1 0x64 SWAP1 PUSH1 0xD PUSH1 0x40 MLOAD SWAP2 PUSH3 0x461BCD PUSH1 0xE5 SHL DUP4 MSTORE PUSH1 0x20 PUSH1 0x4 DUP5 ADD MSTORE DUP3 ADD MSTORE PUSH13 0x10DA5D1E481C995C5D5A5C9959 PUSH1 0x9A SHL PUSH1 0x44 DUP3 ADD MSTORE REVERT JUMPDEST PUSH1 0x64 SWAP1 PUSH1 0x17 PUSH1 0x40 MLOAD SWAP2 PUSH3 0x461BCD PUSH1 0xE5 SHL DUP4 MSTORE PUSH1 0x20 PUSH1 0x4 DUP5 ADD MSTORE DUP3 ADD MSTORE PUSH32 0x5374726565742061646472657373207265717569726564000000000000000000 PUSH1 0x44 DUP3 ADD MSTORE REVERT JUMPDEST PUSH1 0x64 SWAP1 PUSH1 0x12 PUSH1 0x40 MLOAD SWAP2 PUSH3 0x461BCD PUSH1 0xE5 SHL DUP4 MSTORE PUSH1 0x20 PUSH1 0x4 DUP5 ADD MSTORE DUP3 ADD MSTORE PUSH18 0x119D5B1B081B985B59481C995C5D5A5C9959 PUSH1 0x72 SHL PUSH1 0x44 DUP3 ADD MSTORE REVERT JUMPDEST PUSH1 0x64 SWAP1 PUSH1 0x1B PUSH1 0x40 MLOAD SWAP2 PUSH3 0x461BCD PUSH1 0xE5 SHL DUP4 MSTORE PUSH1 0x20 PUSH1 0x4 DUP5 ADD MSTORE DUP3 ADD MSTORE PUSH32 0x43616E6E6F742062757920796F7572206F776E2070726F647563740000000000 PUSH1 0x44 DUP3 ADD MSTORE REVERT JUMPDEST PUSH1 0x64 SWAP1 PUSH1 0x1A PUSH1 0x40 MLOAD SWAP2 PUSH3 0x461BCD PUSH1 0xE5 SHL DUP4 MSTORE PUSH1 0x20 PUSH1 0x4 DUP5 ADD MSTORE DUP3 ADD MSTORE PUSH32 0x50726F6475637420697320616C726561647920736F6C646F7574000000000000 PUSH1 0x44 DUP3 ADD MSTORE REVERT JUMPDEST PUSH1 0x64 SWAP1 PUSH1 0x17 PUSH1 0x40 MLOAD SWAP2 PUSH3 0x461BCD PUSH1 0xE5 SHL DUP4 MSTORE PUSH1 0x20 PUSH1 0x4 DUP5 ADD MSTORE DUP3 ADD MSTORE PUSH32 0x50726F64756374206973206F7574206F662073746F636B000000000000000000 PUSH1 0x44 DUP3 ADD MSTORE REVERT JUMPDEST PUSH1 0x64 SWAP1 PUSH1 0x16 PUSH1 0x40 MLOAD SWAP2 PUSH3 0x461BCD PUSH1 0xE5 SHL DUP4 MSTORE PUSH1 0x20 PUSH1 0x4 DUP5 ADD MSTORE DUP3 ADD MSTORE PUSH22 0x14D95B1B195C881A5CC81B9BDD081D995C9A599A5959 PUSH1 0x52 SHL PUSH1 0x44 DUP3 ADD MSTORE REVERT JUMPDEST PUSH1 0x64 SWAP1 PUSH1 0x1F PUSH1 0x40 MLOAD SWAP2 PUSH3 0x461BCD PUSH1 0xE5 SHL DUP4 MSTORE PUSH1 0x20 PUSH1 0x4 DUP5 ADD MSTORE DUP3 ADD MSTORE PUSH32 0x5265656E7472616E637947756172643A207265656E7472616E742063616C6C00 PUSH1 0x44 DUP3 ADD MSTORE REVERT JUMPDEST CALLVALUE PUSH2 0x4FB JUMPI PUSH1 0x20 CALLDATASIZE PUSH1 0x3 NOT ADD SLT PUSH2 0x4FB JUMPI PUSH1 0x20 PUSH2 0x39DF PUSH1 0x4 CALLDATALOAD PUSH2 0x53AE JUMP JUMPDEST PUSH1 0x40 MLOAD PUSH1 0x1 PUSH1 0x1 PUSH1 0xA0 SHL SUB SWAP1 SWAP2 AND DUP2 MSTORE RETURN JUMPDEST CALLVALUE PUSH2 0x4FB JUMPI PUSH1 0x20 CALLDATASIZE PUSH1 0x3 NOT ADD SLT PUSH2 0x4FB JUMPI PUSH1 0x1 PUSH1 0x1 PUSH1 0xA0 SHL SUB PUSH2 0x3A12 PUSH2 0x4E2E JUMP JUMPDEST AND PUSH1 0x0 MSTORE PUSH1 0x13 PUSH1 0x20 MSTORE PUSH1 0x20 PUSH1 0x40 PUSH1 0x0 KECCAK256 SLOAD PUSH1 0x40 MLOAD SWAP1 DUP2 MSTORE RETURN JUMPDEST CALLVALUE PUSH2 0x4FB JUMPI PUSH1 0x0 CALLDATASIZE PUSH1 0x3 NOT ADD SLT PUSH2 0x4FB JUMPI CALLER PUSH1 0x0 MSTORE PUSH1 0x12 PUSH1 0x20 MSTORE PUSH1 0xFF PUSH1 0x40 PUSH1 0x0 KECCAK256 SLOAD AND PUSH2 0x3AAE JUMPI CALLER PUSH1 0x0 MSTORE PUSH1 0x12 PUSH1 0x20 MSTORE PUSH1 0x40 PUSH1 0x0 KECCAK256 PUSH1 0xFF NOT SWAP1 PUSH1 0x1 DUP3 DUP3 SLOAD AND OR SWAP1 SSTORE PUSH1 0xC PUSH1 0x20 MSTORE PUSH1 0x1 PUSH1 0x40 PUSH1 0x0 KECCAK256 SWAP2 DUP3 SLOAD AND OR SWAP1 SSTORE PUSH1 0x40 MLOAD TIMESTAMP DUP2 MSTORE PUSH32 0xA1A1A78FF3033D5EE8393372052AEB2A16BBB347A29F3780370E9506C109E372 PUSH1 0x20 CALLER SWAP3 LOG2 STOP JUMPDEST PUSH1 0x40 MLOAD PUSH3 0x461BCD PUSH1 0xE5 SHL DUP2 MSTORE PUSH1 0x20 PUSH1 0x4 DUP3 ADD MSTORE PUSH1 0x12 PUSH1 0x24 DUP3 ADD MSTORE PUSH18 0x105B1C9958591E481C9959DA5CDD195C9959 PUSH1 0x72 SHL PUSH1 0x44 DUP3 ADD MSTORE PUSH1 0x64 SWAP1 REVERT JUMPDEST CALLVALUE PUSH2 0x4FB JUMPI PUSH1 0x20 CALLDATASIZE PUSH1 0x3 NOT ADD SLT PUSH2 0x4FB JUMPI PUSH1 0x1 PUSH1 0x1 PUSH1 0xA0 SHL SUB PUSH2 0x3B09 PUSH2 0x4E2E JUMP JUMPDEST AND PUSH1 0x0 MSTORE PUSH1 0xC PUSH1 0x20 MSTORE PUSH2 0x261 PUSH1 0xFF PUSH1 0x40 PUSH1 0x0 KECCAK256 SLOAD AND PUSH1 0x40 MLOAD SWAP2 DUP3 SWAP2 DUP3 PUSH2 0x50F1 JUMP JUMPDEST CALLVALUE PUSH2 0x4FB JUMPI PUSH2 0xC84 PUSH2 0x3B3B CALLDATASIZE PUSH2 0x4F56 JUMP JUMPDEST SWAP1 PUSH1 0x40 MLOAD SWAP3 PUSH2 0x3B49 DUP5 PUSH2 0x4EAD JUMP JUMPDEST PUSH1 0x0 DUP5 MSTORE PUSH2 0x5471 JUMP JUMPDEST CALLVALUE PUSH2 0x4FB JUMPI PUSH1 0x0 CALLDATASIZE PUSH1 0x3 NOT ADD SLT PUSH2 0x4FB JUMPI CALLER PUSH1 0x0 SWAP1 DUP2 MSTORE PUSH1 0xD PUSH1 0x20 SWAP1 DUP2 MSTORE PUSH1 0x40 SWAP1 SWAP2 KECCAK256 SLOAD PUSH1 0x1 PUSH1 0x1 PUSH1 0xA0 SHL SUB SWAP1 DUP2 AND DUP1 ISZERO PUSH2 0x3C9E JUMPI DUP1 PUSH1 0x0 MSTORE PUSH1 0xC DUP4 MSTORE PUSH1 0xFF PUSH1 0x40 PUSH1 0x0 KECCAK256 SLOAD AND SWAP1 PUSH1 0x4 DUP3 LT ISZERO PUSH2 0x757 JUMPI PUSH1 0x2 PUSH2 0x3BB6 SWAP3 EQ SWAP1 DUP2 ISZERO PUSH2 0x3C90 JUMPI POP PUSH2 0x6024 JUMP JUMPDEST CALLER PUSH1 0x0 MSTORE PUSH1 0x13 DUP3 MSTORE PUSH1 0x40 PUSH1 0x0 KECCAK256 SLOAD SWAP1 DUP2 ISZERO PUSH2 0x3C52 JUMPI PUSH1 0xB SLOAD DUP1 DUP4 MUL SWAP1 DUP4 DUP3 DIV SUB PUSH2 0x3C3C JUMPI PUSH2 0x3C0E SWAP3 PUSH2 0x3BEF PUSH1 0x64 PUSH2 0x3C08 SWAP4 DIV DUP1 SWAP3 PUSH2 0x58CC JUMP JUMPDEST SWAP3 CALLER PUSH1 0x0 MSTORE PUSH1 0x13 DUP7 MSTORE PUSH1 0x0 PUSH1 0x40 DUP2 KECCAK256 SSTORE PUSH1 0x0 SLOAD AND PUSH2 0x608D JUMP JUMPDEST CALLER PUSH2 0x608D JUMP JUMPDEST PUSH32 0x8AD64A0AC7700DD8425AB0499F107CB6E2CD1581D803C5B8C1C79DCB8190B1AF PUSH1 0x40 MLOAD SWAP2 PUSH1 0x0 DUP4 MSTORE CALLER SWAP3 LOG2 STOP JUMPDEST PUSH4 0x4E487B71 PUSH1 0xE0 SHL PUSH1 0x0 MSTORE PUSH1 0x11 PUSH1 0x4 MSTORE PUSH1 0x24 PUSH1 0x0 REVERT JUMPDEST PUSH1 0x40 MLOAD PUSH3 0x461BCD PUSH1 0xE5 SHL DUP2 MSTORE PUSH1 0x4 DUP2 ADD DUP5 SWAP1 MSTORE PUSH1 0x16 PUSH1 0x24 DUP3 ADD MSTORE PUSH22 0x4E6F2062616C616E636520746F207769746864726177 PUSH1 0x50 SHL PUSH1 0x44 DUP3 ADD MSTORE PUSH1 0x64 SWAP1 REVERT JUMPDEST SWAP1 POP DUP3 PUSH1 0x0 SLOAD AND EQ DUP5 PUSH2 0x625 JUMP JUMPDEST POP PUSH1 0xC DUP3 MSTORE PUSH1 0xFF PUSH1 0x40 PUSH1 0x0 KECCAK256 SLOAD AND PUSH1 0x4 DUP2 LT ISZERO PUSH2 0x757 JUMPI PUSH1 0x2 EQ DUP1 ISZERO PUSH2 0x3CCD JUMPI JUMPDEST PUSH2 0x3CC8 SWAP1 PUSH2 0x6024 JUMP JUMPDEST PUSH2 0x3BB6 JUMP JUMPDEST POP PUSH1 0x0 SLOAD DUP2 AND CALLER EQ PUSH2 0x3CBF JUMP JUMPDEST CALLVALUE PUSH2 0x4FB JUMPI PUSH1 0x20 DUP1 PUSH1 0x3 NOT CALLDATASIZE ADD SLT PUSH2 0x4FB JUMPI PUSH1 0x1 PUSH1 0x1 PUSH1 0xA0 SHL SUB SWAP1 DUP2 PUSH2 0x3CFE PUSH2 0x4E2E JUMP JUMPDEST AND PUSH1 0x0 MSTORE PUSH1 0x15 DUP2 MSTORE PUSH1 0x40 PUSH1 0x0 KECCAK256 DUP1 SLOAD SWAP1 PUSH2 0x3D17 DUP3 PUSH2 0x600D JUMP JUMPDEST SWAP3 PUSH2 0x3D25 PUSH1 0x40 MLOAD SWAP5 DUP6 PUSH2 0x4EC8 JUMP JUMPDEST DUP3 DUP5 MSTORE PUSH1 0x0 SWAP2 DUP3 MSTORE DUP1 DUP3 KECCAK256 DUP2 DUP6 ADD JUMPDEST DUP5 DUP5 LT PUSH2 0x3D49 JUMPI PUSH1 0x40 MLOAD DUP1 PUSH2 0x261 DUP9 DUP3 PUSH2 0x5033 JUMP JUMPDEST PUSH1 0xE DUP4 PUSH1 0x1 SWAP3 PUSH1 0x40 MLOAD PUSH2 0x3D5B DUP2 PUSH2 0x4E76 JUMP JUMPDEST DUP6 SLOAD DUP2 MSTORE DUP5 DUP7 ADD SLOAD DUP4 DUP3 ADD MSTORE PUSH1 0x2 DUP7 ADD SLOAD PUSH1 0x40 DUP3 ADD MSTORE PUSH1 0x3 DUP7 ADD SLOAD PUSH1 0x60 DUP3 ADD MSTORE DUP11 PUSH1 0x4 DUP8 ADD SLOAD AND PUSH1 0x80 DUP3 ADD MSTORE PUSH1 0xFF PUSH1 0x5 DUP8 ADD SLOAD PUSH1 0xA0 DUP14 DUP3 AND DUP2 DUP6 ADD MSTORE SHR AND ISZERO ISZERO PUSH1 0xC0 DUP3 ADD MSTORE PUSH2 0x3DAC PUSH1 0x6 DUP8 ADD PUSH2 0x5216 JUMP JUMPDEST PUSH1 0xE0 DUP3 ADD MSTORE DUP2 MSTORE ADD SWAP3 ADD SWAP4 ADD SWAP3 SWAP1 PUSH2 0x3D34 JUMP JUMPDEST CALLVALUE PUSH2 0x4FB JUMPI PUSH1 0x40 CALLDATASIZE PUSH1 0x3 NOT ADD SLT PUSH2 0x4FB JUMPI PUSH1 0x24 DUP1 CALLDATALOAD PUSH1 0x4 CALLDATALOAD PUSH1 0x0 DUP1 JUMPDEST DUP3 PUSH1 0x0 MSTORE PUSH1 0xE PUSH1 0x20 SWAP1 DUP1 DUP3 MSTORE PUSH1 0x10 SWAP2 DUP3 PUSH1 0x40 PUSH1 0x0 KECCAK256 ADD DUP1 SLOAD DUP6 LT ISZERO PUSH2 0x3FD7 JUMPI PUSH2 0x3E05 DUP6 DUP10 SWAP3 PUSH2 0x68C2 JUMP JUMPDEST POP SLOAD EQ PUSH2 0x3E1D JUMPI POP POP POP PUSH2 0x3E18 SWAP1 PUSH2 0x607E JUMP JUMPDEST PUSH2 0x3DDB JUMP JUMPDEST SWAP2 SWAP4 POP SWAP2 SWAP4 SWAP5 PUSH1 0x0 MSTORE PUSH1 0x11 DUP2 MSTORE PUSH1 0xFF SWAP5 DUP6 PUSH1 0x40 PUSH1 0x0 KECCAK256 SLOAD AND ISZERO PUSH2 0x3F9B JUMPI DUP1 PUSH1 0x0 MSTORE DUP3 DUP3 MSTORE PUSH2 0x3E51 DUP6 DUP6 PUSH1 0x40 PUSH1 0x0 KECCAK256 ADD PUSH2 0x68C2 JUMP JUMPDEST POP PUSH1 0x1 SWAP1 DUP2 ADD SLOAD SWAP1 SWAP7 SWAP1 CALLER PUSH1 0x1 PUSH1 0x1 PUSH1 0xA0 SHL SUB SWAP2 DUP3 AND EQ SWAP1 DUP2 ISZERO PUSH2 0x3F8D JUMPI JUMPDEST POP ISZERO PUSH2 0x3F38 JUMPI DUP2 PUSH1 0x0 MSTORE DUP4 DUP4 MSTORE PUSH1 0x4 PUSH2 0x3E8F DUP8 DUP8 PUSH1 0x40 PUSH1 0x0 KECCAK256 ADD PUSH2 0x68C2 JUMP JUMPDEST POP ADD SLOAD AND PUSH2 0x3EFB JUMPI SWAP2 PUSH2 0x3EB0 SWAP4 SWAP2 PUSH1 0x4 SWAP6 SWAP4 PUSH1 0x0 MSTORE MSTORE PUSH1 0x40 PUSH1 0x0 KECCAK256 ADD PUSH2 0x68C2 JUMP JUMPDEST POP ADD DUP1 SLOAD PUSH1 0xFF NOT AND DUP3 OR SWAP1 SSTORE JUMPDEST ISZERO PUSH2 0x3EC4 JUMPI STOP JUMPDEST PUSH1 0x64 SWAP1 PUSH1 0x10 PUSH1 0x40 MLOAD SWAP2 PUSH3 0x461BCD PUSH1 0xE5 SHL DUP4 MSTORE PUSH1 0x20 PUSH1 0x4 DUP5 ADD MSTORE DUP3 ADD MSTORE PUSH16 0x14995D9A595DC81B9BDD08199BDD5B99 PUSH1 0x82 SHL PUSH1 0x44 DUP3 ADD MSTORE REVERT JUMPDEST PUSH1 0x40 MLOAD PUSH3 0x461BCD PUSH1 0xE5 SHL DUP2 MSTORE PUSH1 0x4 DUP2 ADD DUP4 SWAP1 MSTORE PUSH1 0x16 DUP2 DUP10 ADD MSTORE PUSH22 0x14995D9A595DC8185B1C9958591E4819195B195D1959 PUSH1 0x52 SHL PUSH1 0x44 DUP3 ADD MSTORE PUSH1 0x64 SWAP1 REVERT JUMPDEST PUSH1 0x40 MLOAD PUSH3 0x461BCD PUSH1 0xE5 SHL DUP2 MSTORE PUSH1 0x4 DUP2 ADD DUP5 SWAP1 MSTORE PUSH1 0x28 DUP2 DUP11 ADD MSTORE PUSH32 0x4F6E6C79207265766965776572206F72206F776E65722063616E2064656C6574 PUSH1 0x44 DUP3 ADD MSTORE PUSH8 0x6520726576696577 PUSH1 0xC0 SHL PUSH1 0x64 DUP3 ADD MSTORE PUSH1 0x84 SWAP1 REVERT JUMPDEST PUSH1 0x0 SLOAD AND CALLER EQ SWAP1 POP DUP10 PUSH2 0x3E70 JUMP JUMPDEST PUSH1 0x40 MLOAD PUSH3 0x461BCD PUSH1 0xE5 SHL DUP2 MSTORE PUSH1 0x4 DUP2 ADD DUP4 SWAP1 MSTORE PUSH1 0x15 DUP2 DUP10 ADD MSTORE PUSH21 0x14995D9A595DC8191BD95CC81B9BDD08195E1A5CDD PUSH1 0x5A SHL PUSH1 0x44 DUP3 ADD MSTORE PUSH1 0x64 SWAP1 REVERT JUMPDEST POP POP POP POP POP SWAP2 POP POP PUSH2 0x3EBD JUMP JUMPDEST CALLVALUE PUSH2 0x4FB JUMPI PUSH2 0xC84 PUSH2 0x3FF5 CALLDATASIZE PUSH2 0x4F56 JUMP JUMPDEST SWAP2 PUSH2 0x4008 PUSH2 0x4003 DUP5 CALLER PUSH2 0x550C JUMP JUMPDEST PUSH2 0x540F JUMP JUMPDEST PUSH2 0x55D4 JUMP JUMPDEST CALLVALUE PUSH2 0x4FB JUMPI PUSH1 0x60 CALLDATASIZE PUSH1 0x3 NOT ADD SLT PUSH2 0x4FB JUMPI PUSH1 0x24 DUP1 CALLDATALOAD PUSH1 0x4 CALLDATALOAD PUSH1 0x44 CALLDATALOAD PUSH1 0x1 PUSH1 0x1 PUSH1 0x40 SHL SUB DUP2 GT PUSH2 0x4FB JUMPI PUSH2 0x4044 SWAP1 CALLDATASIZE SWAP1 PUSH1 0x4 ADD PUSH2 0x4F3B JUMP JUMPDEST SWAP1 DUP1 PUSH1 0x0 MSTORE PUSH1 0x20 SWAP2 PUSH1 0xE DUP4 MSTORE PUSH1 0x1 DUP1 PUSH1 0xA0 SHL SUB PUSH1 0x1 PUSH1 0x40 PUSH1 0x0 KECCAK256 ADD SLOAD AND CALLER EQ PUSH2 0x419D JUMPI DUP4 ISZERO ISZERO DUP1 PUSH2 0x4192 JUMPI JUMPDEST ISZERO PUSH2 0x414E JUMPI DUP1 MLOAD ISZERO PUSH2 0x410A JUMPI SWAP1 PUSH1 0xE SWAP3 SWAP2 PUSH1 0x1 PUSH1 0xA SLOAD ADD SWAP1 DUP2 PUSH1 0xA SSTORE PUSH2 0x4094 PUSH2 0x6897 JUMP JUMPDEST SWAP6 DUP3 DUP8 MSTORE CALLER DUP6 DUP9 ADD MSTORE PUSH1 0x40 DUP8 ADD MSTORE PUSH1 0x60 DUP7 ADD MSTORE PUSH1 0x0 MSTORE PUSH1 0x11 DUP3 MSTORE PUSH1 0x40 PUSH1 0x0 KECCAK256 PUSH1 0x1 PUSH1 0xFF NOT DUP3 SLOAD AND OR SWAP1 SSTORE PUSH1 0x0 MSTORE MSTORE PUSH1 0x10 PUSH1 0x40 PUSH1 0x0 KECCAK256 ADD DUP1 SLOAD PUSH1 0x1 PUSH1 0x40 SHL DUP2 LT ISZERO PUSH2 0x1628 JUMPI PUSH2 0x40E7 SWAP2 PUSH1 0x1 DUP3 ADD DUP2 SSTORE PUSH2 0x68C2 JUMP JUMPDEST PUSH2 0x40F5 JUMPI PUSH2 0xC84 SWAP3 POP PUSH2 0x666D JUMP JUMPDEST DUP3 PUSH4 0x4E487B71 PUSH1 0xE0 SHL PUSH1 0x0 MSTORE PUSH1 0x0 PUSH1 0x4 MSTORE PUSH1 0x0 REVERT JUMPDEST PUSH1 0x40 MLOAD PUSH3 0x461BCD PUSH1 0xE5 SHL DUP2 MSTORE PUSH1 0x4 DUP2 ADD DUP5 SWAP1 MSTORE PUSH1 0x17 DUP2 DUP8 ADD MSTORE PUSH32 0x436F6D6D656E742063616E6E6F7420626520656D707479000000000000000000 PUSH1 0x44 DUP3 ADD MSTORE PUSH1 0x64 SWAP1 REVERT JUMPDEST PUSH1 0x40 MLOAD PUSH3 0x461BCD PUSH1 0xE5 SHL DUP2 MSTORE PUSH1 0x4 DUP2 ADD DUP5 SWAP1 MSTORE PUSH1 0x1E DUP2 DUP8 ADD MSTORE PUSH32 0x526174696E67206D757374206265206265747765656E203120616E6420350000 PUSH1 0x44 DUP3 ADD MSTORE PUSH1 0x64 SWAP1 REVERT JUMPDEST POP PUSH1 0x5 DUP5 GT ISZERO PUSH2 0x4070 JUMP JUMPDEST PUSH1 0x40 MLOAD PUSH3 0x461BCD PUSH1 0xE5 SHL DUP2 MSTORE PUSH1 0x4 DUP2 ADD DUP5 SWAP1 MSTORE PUSH1 0x26 DUP2 DUP8 ADD MSTORE PUSH32 0x53656C6C65722063616E6E6F7420726576696577207468656972206F776E2070 PUSH1 0x44 DUP3 ADD MSTORE PUSH6 0x1C9BD91D58DD PUSH1 0xD2 SHL PUSH1 0x64 DUP3 ADD MSTORE PUSH1 0x84 SWAP1 REVERT JUMPDEST CALLVALUE PUSH2 0x4FB JUMPI PUSH1 0x0 CALLDATASIZE PUSH1 0x3 NOT ADD SLT PUSH2 0x4FB JUMPI PUSH2 0x4209 PUSH2 0x530A JUMP JUMPDEST CALLER PUSH1 0x0 MSTORE PUSH1 0xD PUSH1 0x20 MSTORE PUSH1 0x40 PUSH1 0x0 KECCAK256 PUSH1 0x1 PUSH1 0x1 PUSH1 0x60 SHL SUB PUSH1 0xA0 SHL DUP2 SLOAD AND SWAP1 SSTORE PUSH32 0x32B449308C94E824CCEDD9877932CD82F89A481C06C4643A0CB2914454A8C582 PUSH1 0x40 DUP1 MLOAD CALLER DUP2 MSTORE PUSH1 0x0 PUSH1 0x20 DUP3 ADD MSTORE LOG1 STOP JUMPDEST CALLVALUE PUSH2 0x4FB JUMPI PUSH1 0x40 CALLDATASIZE PUSH1 0x3 NOT ADD SLT PUSH2 0x4FB JUMPI PUSH1 0x4 CALLDATALOAD PUSH2 0x4275 PUSH2 0x4E44 JUMP JUMPDEST CALLER PUSH1 0x0 SWAP1 DUP2 MSTORE PUSH1 0xD PUSH1 0x20 SWAP1 DUP2 MSTORE PUSH1 0x40 SWAP1 SWAP2 KECCAK256 SLOAD SWAP1 SWAP3 PUSH1 0x1 PUSH1 0x1 PUSH1 0xA0 SHL SUB SWAP2 DUP3 AND DUP1 ISZERO PUSH2 0x45A6 JUMPI DUP1 PUSH1 0x0 MSTORE PUSH1 0xC DUP6 MSTORE PUSH1 0xFF PUSH1 0x40 PUSH1 0x0 KECCAK256 SLOAD AND SWAP1 PUSH1 0x4 DUP3 LT ISZERO PUSH2 0x757 JUMPI PUSH1 0x2 PUSH2 0x42CA SWAP3 EQ SWAP1 DUP2 ISZERO PUSH2 0x4598 JUMPI POP PUSH2 0x6024 JUMP JUMPDEST SWAP3 SWAP2 SWAP3 JUMPDEST PUSH1 0x0 SWAP3 DUP3 PUSH1 0x0 SWAP6 AND SWAP5 JUMPDEST DUP6 PUSH1 0x0 MSTORE PUSH1 0x14 DUP1 DUP4 MSTORE PUSH1 0x40 PUSH1 0x0 KECCAK256 DUP1 SLOAD DUP4 LT ISZERO PUSH2 0x458D JUMPI PUSH2 0x42FA DUP4 DUP7 SWAP3 PUSH2 0x51E4 JUMP JUMPDEST POP SLOAD EQ PUSH2 0x4310 JUMPI POP PUSH2 0x430B SWAP1 PUSH2 0x607E JUMP JUMPDEST PUSH2 0x42D8 JUMP JUMPDEST SWAP2 SWAP3 SWAP4 SWAP5 POP DUP6 PUSH1 0x0 MSTORE DUP2 DUP4 MSTORE PUSH2 0x432A DUP2 PUSH1 0x40 PUSH1 0x0 KECCAK256 PUSH2 0x51E4 JUMP JUMPDEST POP SWAP2 PUSH1 0xFF PUSH1 0x5 DUP1 SWAP5 ADD SLOAD PUSH1 0xA0 SHR AND PUSH2 0x4548 JUMPI DUP7 PUSH1 0x0 MSTORE DUP1 DUP5 MSTORE PUSH2 0x4351 DUP3 PUSH1 0x40 PUSH1 0x0 KECCAK256 PUSH2 0x51E4 JUMP JUMPDEST POP DUP4 ADD SLOAD DUP7 AND CALLER EQ DUP1 ISZERO PUSH2 0x453B JUMPI JUMPDEST ISZERO PUSH2 0x44E3 JUMPI SWAP1 PUSH2 0x437A SWAP2 DUP8 PUSH1 0x0 MSTORE DUP5 MSTORE PUSH1 0x40 PUSH1 0x0 KECCAK256 PUSH2 0x51E4 JUMP JUMPDEST POP ADD DUP1 SLOAD PUSH1 0xFF PUSH1 0xA0 SHL NOT AND PUSH1 0x1 PUSH1 0xA0 SHL OR SWAP1 SSTORE PUSH1 0x1 JUMPDEST ISZERO PUSH2 0x44AA JUMPI DUP2 PUSH1 0x0 MSTORE PUSH1 0xE DUP2 MSTORE PUSH1 0x1 SWAP3 DUP1 DUP5 PUSH1 0x40 PUSH1 0x0 KECCAK256 ADD SLOAD AND DUP5 PUSH1 0x0 SWAP1 JUMPDEST PUSH2 0x43E3 JUMPI JUMPDEST POP POP POP PUSH32 0xF9DC8543B583E01F592678422369B2777E3649761F5808AE432CB1C24CA9438C SWAP2 SWAP3 PUSH1 0x40 MLOAD SWAP1 DUP2 MSTORE LOG3 STOP JUMPDEST DUP2 PUSH1 0x0 MSTORE PUSH1 0x15 DUP1 DUP6 MSTORE PUSH1 0x40 PUSH1 0x0 KECCAK256 DUP1 SLOAD DUP4 LT ISZERO PUSH2 0x44A3 JUMPI PUSH2 0x4405 DUP4 DUP9 SWAP3 PUSH2 0x51E4 JUMP JUMPDEST POP SLOAD EQ DUP1 PUSH2 0x447F JUMPI JUMPDEST PUSH2 0x4427 JUMPI POP SWAP1 PUSH2 0x441F DUP7 SWAP4 SWAP3 PUSH2 0x607E JUMP JUMPDEST SWAP1 SWAP2 SWAP3 PUSH2 0x43AF JUMP JUMPDEST PUSH32 0xF9DC8543B583E01F592678422369B2777E3649761F5808AE432CB1C24CA9438C SWAP6 SWAP7 SWAP4 POP SWAP1 PUSH2 0x4463 SWAP2 PUSH1 0x5 SWAP4 PUSH1 0x0 MSTORE DUP6 MSTORE PUSH1 0x40 PUSH1 0x0 KECCAK256 PUSH2 0x51E4 JUMP JUMPDEST POP ADD DUP1 SLOAD PUSH1 0xFF PUSH1 0xA0 SHL NOT AND PUSH1 0x1 PUSH1 0xA0 SHL OR SWAP1 SSTORE SWAP3 SWAP2 DUP6 DUP1 PUSH2 0x43B4 JUMP JUMPDEST POP DUP3 PUSH1 0x0 MSTORE DUP1 DUP6 MSTORE DUP8 DUP5 PUSH1 0x4 PUSH2 0x4499 DUP6 PUSH1 0x40 PUSH1 0x0 KECCAK256 PUSH2 0x51E4 JUMP JUMPDEST POP ADD SLOAD AND EQ PUSH2 0x440E JUMP JUMPDEST POP POP PUSH2 0x43B4 JUMP JUMPDEST PUSH1 0x64 SWAP1 PUSH1 0x40 MLOAD SWAP1 PUSH3 0x461BCD PUSH1 0xE5 SHL DUP3 MSTORE PUSH1 0x4 DUP3 ADD MSTORE PUSH1 0x12 PUSH1 0x24 DUP3 ADD MSTORE PUSH18 0x141D5C98DA185CD9481B9BDD08199BDD5B99 PUSH1 0x72 SHL PUSH1 0x44 DUP3 ADD MSTORE REVERT JUMPDEST PUSH1 0x40 MLOAD PUSH3 0x461BCD PUSH1 0xE5 SHL DUP2 MSTORE PUSH1 0x4 DUP2 ADD DUP6 SWAP1 MSTORE PUSH1 0x2A PUSH1 0x24 DUP3 ADD MSTORE PUSH32 0x4F6E6C792073656C6C6572206F72206F776E65722063616E206D61726B206173 PUSH1 0x44 DUP3 ADD MSTORE PUSH10 0x819195B1A5D995C9959 PUSH1 0xB2 SHL PUSH1 0x64 DUP3 ADD MSTORE PUSH1 0x84 SWAP1 REVERT JUMPDEST POP CALLER DUP7 PUSH1 0x0 SLOAD AND EQ PUSH2 0x4360 JUMP JUMPDEST PUSH1 0x40 MLOAD PUSH3 0x461BCD PUSH1 0xE5 SHL DUP2 MSTORE PUSH1 0x4 DUP2 ADD DUP6 SWAP1 MSTORE PUSH1 0x1B PUSH1 0x24 DUP3 ADD MSTORE PUSH32 0x416C7265616479206D61726B65642061732064656C6976657265640000000000 PUSH1 0x44 DUP3 ADD MSTORE PUSH1 0x64 SWAP1 REVERT JUMPDEST POP POP POP SWAP1 SWAP2 SWAP3 PUSH2 0x4390 JUMP JUMPDEST SWAP1 POP DUP4 PUSH1 0x0 SLOAD AND EQ DUP7 PUSH2 0x625 JUMP JUMPDEST POP PUSH1 0xC DUP5 MSTORE PUSH1 0xFF PUSH1 0x40 PUSH1 0x0 KECCAK256 SLOAD AND PUSH1 0x4 DUP2 LT ISZERO PUSH2 0x757 JUMPI PUSH1 0x2 EQ DUP1 ISZERO PUSH2 0x45D8 JUMPI JUMPDEST PUSH2 0x45D0 SWAP1 PUSH2 0x6024 JUMP JUMPDEST SWAP3 SWAP2 SWAP3 PUSH2 0x42CE JUMP JUMPDEST POP PUSH1 0x0 SLOAD DUP3 AND CALLER EQ PUSH2 0x45C7 JUMP JUMPDEST CALLVALUE PUSH2 0x4FB JUMPI PUSH1 0x40 CALLDATASIZE PUSH1 0x3 NOT ADD SLT PUSH2 0x4FB JUMPI PUSH2 0x45FE PUSH2 0x4E2E JUMP JUMPDEST PUSH1 0x24 CALLDATALOAD SWAP1 PUSH1 0x1 PUSH1 0x1 PUSH1 0xA0 SHL SUB DUP1 DUP1 PUSH2 0x4615 DUP6 PUSH2 0x53AE JUMP JUMPDEST AND SWAP3 AND SWAP2 DUP1 DUP4 EQ PUSH2 0x4710 JUMPI DUP1 CALLER EQ SWAP1 DUP2 ISZERO PUSH2 0x46EB JUMPI JUMPDEST POP ISZERO PUSH2 0x4680 JUMPI PUSH1 0x0 DUP4 DUP2 MSTORE PUSH1 0x6 PUSH1 0x20 MSTORE PUSH1 0x40 SWAP1 KECCAK256 DUP1 SLOAD PUSH1 0x1 PUSH1 0x1 PUSH1 0xA0 SHL SUB NOT AND DUP4 OR SWAP1 SSTORE PUSH2 0x4658 DUP4 PUSH2 0x53AE JUMP JUMPDEST AND PUSH32 0x8C5BE1E5EBEC7D5BD14F71427D1E84F3DD0314C0F7B2291E5B200AC8C7C3B925 PUSH1 0x0 DUP1 LOG4 STOP JUMPDEST PUSH1 0x40 MLOAD PUSH3 0x461BCD PUSH1 0xE5 SHL DUP2 MSTORE PUSH1 0x20 PUSH1 0x4 DUP3 ADD MSTORE PUSH1 0x3D PUSH1 0x24 DUP3 ADD MSTORE PUSH32 0x4552433732313A20617070726F76652063616C6C6572206973206E6F7420746F PUSH1 0x44 DUP3 ADD MSTORE PUSH32 0x6B656E206F776E6572206F7220617070726F76656420666F7220616C6C000000 PUSH1 0x64 DUP3 ADD MSTORE PUSH1 0x84 SWAP1 REVERT JUMPDEST SWAP1 POP PUSH1 0x0 MSTORE PUSH1 0x7 PUSH1 0x20 MSTORE PUSH1 0x40 PUSH1 0x0 KECCAK256 CALLER PUSH1 0x0 MSTORE PUSH1 0x20 MSTORE PUSH1 0xFF PUSH1 0x40 PUSH1 0x0 KECCAK256 SLOAD AND DUP5 PUSH2 0x462B JUMP JUMPDEST PUSH1 0x40 MLOAD PUSH3 0x461BCD PUSH1 0xE5 SHL DUP2 MSTORE PUSH1 0x20 PUSH1 0x4 DUP3 ADD MSTORE PUSH1 0x21 PUSH1 0x24 DUP3 ADD MSTORE PUSH32 0x4552433732313A20617070726F76616C20746F2063757272656E74206F776E65 PUSH1 0x44 DUP3 ADD MSTORE PUSH1 0x39 PUSH1 0xF9 SHL PUSH1 0x64 DUP3 ADD MSTORE PUSH1 0x84 SWAP1 REVERT JUMPDEST CALLVALUE PUSH2 0x4FB JUMPI PUSH1 0x20 CALLDATASIZE PUSH1 0x3 NOT ADD SLT PUSH2 0x4FB JUMPI PUSH1 0x20 PUSH2 0x39DF PUSH1 0x4 CALLDATALOAD PUSH2 0x53D1 JUMP JUMPDEST CALLVALUE PUSH2 0x4FB JUMPI PUSH1 0x0 CALLDATASIZE PUSH1 0x3 NOT ADD SLT PUSH2 0x4FB JUMPI PUSH1 0x40 MLOAD PUSH1 0x0 PUSH1 0x2 SLOAD PUSH2 0x479F DUP2 PUSH2 0x5104 JUMP JUMPDEST DUP1 DUP5 MSTORE SWAP1 PUSH1 0x1 SWAP1 DUP2 DUP2 AND SWAP1 DUP2 ISZERO PUSH2 0x2E8B JUMPI POP PUSH1 0x1 EQ PUSH2 0x47C8 JUMPI PUSH2 0x261 DUP5 PUSH2 0x2E1C DUP2 DUP7 SUB DUP3 PUSH2 0x4EC8 JUMP JUMPDEST PUSH1 0x2 PUSH1 0x0 SWAP1 DUP2 MSTORE SWAP3 POP PUSH32 0x405787FA12A823E0F2B7631CC41B3BA8828B3321CA811111FA75CD3AA3BB5ACE JUMPDEST DUP3 DUP5 LT PUSH2 0x480B JUMPI POP POP POP DUP2 ADD PUSH1 0x20 ADD PUSH2 0x2E1C DUP3 PUSH2 0x2E0C JUMP JUMPDEST DUP1 SLOAD PUSH1 0x20 DUP6 DUP8 ADD DUP2 ADD SWAP2 SWAP1 SWAP2 MSTORE SWAP1 SWAP4 ADD SWAP3 DUP2 ADD PUSH2 0x47F3 JUMP JUMPDEST CALLVALUE PUSH2 0x4FB JUMPI PUSH1 0x0 CALLDATASIZE PUSH1 0x3 NOT ADD SLT PUSH2 0x4FB JUMPI PUSH1 0x8 SLOAD PUSH1 0x0 PUSH1 0x1 JUMPDEST DUP3 DUP2 GT ISZERO PUSH2 0x4A79 JUMPI POP PUSH2 0x484E SWAP1 PUSH2 0x6833 JUMP JUMPDEST SWAP1 PUSH1 0x1 PUSH1 0x0 JUMPDEST DUP3 DUP3 GT ISZERO PUSH2 0x486A JUMPI PUSH1 0x40 MLOAD DUP1 PUSH2 0x261 DUP7 DUP3 PUSH2 0x4DCC JUMP JUMPDEST DUP2 PUSH1 0x0 MSTORE PUSH1 0xE PUSH1 0x20 MSTORE PUSH1 0x40 PUSH1 0x0 KECCAK256 PUSH1 0xF DUP2 ADD SLOAD SWAP1 PUSH1 0xFF DUP3 PUSH1 0x10 SHR AND ISZERO PUSH2 0x489D JUMPI JUMPDEST POP POP SWAP1 PUSH2 0x4897 SWAP1 PUSH2 0x607E JUMP JUMPDEST SWAP1 PUSH2 0x4854 JUMP JUMPDEST PUSH1 0x40 MLOAD SWAP2 PUSH2 0x48AA DUP4 PUSH2 0x4E5A JUMP JUMPDEST DUP2 SLOAD DUP4 MSTORE PUSH1 0x1 DUP3 ADD SLOAD PUSH1 0x1 PUSH1 0x1 PUSH1 0xA0 SHL SUB AND PUSH1 0x20 DUP5 ADD MSTORE PUSH2 0x48CD PUSH1 0x2 DUP4 ADD PUSH2 0x513E JUMP JUMPDEST PUSH1 0x40 DUP5 ADD MSTORE PUSH2 0x48DE PUSH1 0x3 DUP4 ADD PUSH2 0x513E JUMP JUMPDEST PUSH1 0x60 DUP5 ADD MSTORE PUSH1 0x4 DUP3 ADD SLOAD PUSH1 0x80 DUP5 ADD MSTORE PUSH1 0x5 DUP3 ADD SLOAD PUSH1 0xA0 DUP5 ADD MSTORE PUSH2 0x4903 PUSH1 0x6 DUP4 ADD PUSH2 0x513E JUMP JUMPDEST PUSH1 0xC0 DUP5 ADD MSTORE PUSH2 0x4914 PUSH1 0x7 DUP4 ADD PUSH2 0x513E JUMP JUMPDEST PUSH1 0xE0 DUP5 ADD MSTORE PUSH1 0x8 DUP3 ADD DUP1 SLOAD PUSH2 0x4928 DUP2 PUSH2 0x600D JUMP JUMPDEST SWAP2 PUSH2 0x4936 PUSH1 0x40 MLOAD SWAP4 DUP5 PUSH2 0x4EC8 JUMP JUMPDEST DUP2 DUP4 MSTORE PUSH1 0x20 DUP4 ADD SWAP1 PUSH1 0x0 MSTORE PUSH1 0x20 PUSH1 0x0 KECCAK256 SWAP1 PUSH1 0x0 SWAP1 JUMPDEST DUP4 DUP3 LT PUSH2 0x4A5C JUMPI POP POP POP POP PUSH1 0x10 SWAP3 SWAP2 PUSH1 0xFF SWAP2 PUSH2 0x100 DUP7 ADD MSTORE PUSH2 0x496F PUSH1 0x9 DUP5 ADD PUSH2 0x513E JUMP JUMPDEST PUSH2 0x120 DUP7 ADD MSTORE PUSH2 0x4981 PUSH1 0xA DUP5 ADD PUSH2 0x513E JUMP JUMPDEST PUSH2 0x140 DUP7 ADD MSTORE PUSH1 0xB DUP4 ADD SLOAD PUSH2 0x160 DUP7 ADD MSTORE PUSH2 0x499E PUSH1 0xC DUP5 ADD PUSH2 0x513E JUMP JUMPDEST PUSH2 0x180 DUP7 ADD MSTORE PUSH2 0x49B0 PUSH1 0xD DUP5 ADD PUSH2 0x513E JUMP JUMPDEST PUSH2 0x1A0 DUP7 ADD MSTORE PUSH1 0xE DUP4 ADD SLOAD PUSH2 0x1C0 DUP7 ADD MSTORE DUP2 DUP2 AND ISZERO ISZERO PUSH2 0x1E0 DUP7 ADD MSTORE DUP2 DUP2 PUSH1 0x8 SHR AND ISZERO ISZERO PUSH2 0x200 DUP7 ADD MSTORE DUP4 SHR AND ISZERO ISZERO PUSH2 0x220 DUP5 ADD MSTORE ADD DUP1 SLOAD SWAP1 PUSH2 0x49F2 DUP3 PUSH2 0x600D JUMP JUMPDEST SWAP2 PUSH2 0x4A00 PUSH1 0x40 MLOAD SWAP4 DUP5 PUSH2 0x4EC8 JUMP JUMPDEST DUP1 DUP4 MSTORE PUSH1 0x20 DUP4 ADD SWAP2 PUSH1 0x0 MSTORE PUSH1 0x20 PUSH1 0x0 KECCAK256 PUSH1 0x0 SWAP3 JUMPDEST DUP3 DUP5 LT PUSH2 0x4A3E JUMPI POP POP POP POP PUSH2 0x240 DUP3 ADD MSTORE PUSH2 0x4897 SWAP2 PUSH2 0x4A37 SWAP2 PUSH2 0x433 DUP3 DUP9 PUSH2 0x6883 JUMP JUMPDEST SWAP1 DUP6 PUSH2 0x488B JUMP JUMPDEST PUSH1 0x5 PUSH1 0x20 PUSH1 0x1 SWAP3 PUSH2 0x4A4E DUP6 PUSH2 0x67E3 JUMP JUMPDEST DUP2 MSTORE ADD SWAP3 ADD SWAP4 ADD SWAP3 SWAP1 PUSH2 0x4A14 JUMP JUMPDEST PUSH1 0x1 PUSH1 0x20 DUP2 SWAP3 PUSH2 0x4A6B DUP7 PUSH2 0x513E JUMP JUMPDEST DUP2 MSTORE ADD SWAP4 ADD SWAP2 ADD SWAP1 SWAP2 PUSH2 0x494B JUMP JUMPDEST DUP1 PUSH1 0x0 MSTORE PUSH1 0xE PUSH1 0x20 MSTORE PUSH1 0xFF PUSH1 0xF PUSH1 0x40 PUSH1 0x0 KECCAK256 ADD SLOAD PUSH1 0x10 SHR AND ISZERO PUSH2 0x4AA5 JUMPI JUMPDEST PUSH2 0x4AA0 SWAP1 PUSH2 0x607E JUMP JUMPDEST PUSH2 0x483C JUMP JUMPDEST SWAP1 PUSH2 0x4AB2 PUSH2 0x4AA0 SWAP2 PUSH2 0x607E JUMP JUMPDEST SWAP2 SWAP1 POP PUSH2 0x4A97 JUMP JUMPDEST CALLVALUE PUSH2 0x4FB JUMPI PUSH1 0x20 CALLDATASIZE PUSH1 0x3 NOT ADD SLT PUSH2 0x4FB JUMPI PUSH1 0x4 CALLDATALOAD PUSH4 0xFFFFFFFF PUSH1 0xE0 SHL DUP2 AND DUP1 SWAP2 SUB PUSH2 0x4FB JUMPI PUSH1 0x20 SWAP1 PUSH4 0x80AC58CD PUSH1 0xE0 SHL DUP2 EQ SWAP1 DUP2 ISZERO PUSH2 0x4B17 JUMPI JUMPDEST DUP2 ISZERO PUSH2 0x4B06 JUMPI JUMPDEST POP PUSH1 0x40 MLOAD SWAP1 ISZERO ISZERO DUP2 MSTORE RETURN JUMPDEST PUSH4 0x1FFC9A7 PUSH1 0xE0 SHL EQ SWAP1 POP DUP3 PUSH2 0x4AFB JUMP JUMPDEST PUSH4 0x5B5E139F PUSH1 0xE0 SHL DUP2 EQ SWAP2 POP PUSH2 0x4AF4 JUMP JUMPDEST CALLVALUE PUSH2 0x4FB JUMPI PUSH1 0x20 CALLDATASIZE PUSH1 0x3 NOT ADD SLT PUSH2 0x4FB JUMPI PUSH1 0x20 SWAP1 PUSH1 0x4 CALLDATALOAD PUSH1 0x0 MSTORE PUSH1 0x11 DUP3 MSTORE PUSH1 0xFF PUSH1 0x40 PUSH1 0x0 KECCAK256 SLOAD AND ISZERO ISZERO DUP2 MSTORE RETURN JUMPDEST SWAP2 SWAP1 DUP3 MLOAD SWAP3 DUP4 DUP3 MSTORE PUSH1 0x0 JUMPDEST DUP5 DUP2 LT PUSH2 0x4B81 JUMPI POP POP DUP3 PUSH1 0x0 PUSH1 0x20 DUP1 SWAP5 SWAP6 DUP5 ADD ADD MSTORE PUSH1 0x1F DUP1 NOT SWAP2 ADD AND ADD ADD SWAP1 JUMP JUMPDEST PUSH1 0x20 DUP2 DUP4 ADD DUP2 ADD MLOAD DUP5 DUP4 ADD DUP3 ADD MSTORE ADD PUSH2 0x4B60 JUMP JUMPDEST SWAP1 DUP1 DUP3 MLOAD SWAP1 DUP2 DUP2 MSTORE PUSH1 0x20 DUP1 SWAP2 ADD SWAP3 DUP2 DUP1 DUP5 PUSH1 0x5 SHL DUP4 ADD ADD SWAP6 ADD SWAP4 PUSH1 0x0 SWAP2 JUMPDEST DUP5 DUP4 LT PUSH2 0x4BC3 JUMPI POP POP POP POP POP POP SWAP1 JUMP JUMPDEST SWAP1 SWAP2 SWAP3 SWAP4 SWAP5 SWAP6 DUP5 DUP1 PUSH1 0x1 SWAP3 PUSH1 0x1F NOT DUP6 DUP3 SUB ADD DUP7 MSTORE DUP10 MLOAD SWAP1 DUP2 MLOAD DUP2 MSTORE DUP5 DUP1 PUSH1 0xA0 SHL SUB DUP4 DUP4 ADD MLOAD AND DUP4 DUP3 ADD MSTORE PUSH1 0x40 DUP1 DUP4 ADD MLOAD SWAP1 DUP3 ADD MSTORE PUSH2 0x4C10 PUSH1 0x60 DUP1 DUP5 ADD MLOAD SWAP1 PUSH1 0xA0 DUP1 SWAP2 DUP6 ADD MSTORE DUP4 ADD SWAP1 PUSH2 0x4B55 JUMP JUMPDEST SWAP2 PUSH1 0x80 DUP1 SWAP2 ADD MLOAD ISZERO ISZERO SWAP2 ADD MSTORE SWAP9 ADD SWAP4 ADD SWAP4 ADD SWAP2 SWAP5 SWAP4 SWAP3 SWAP1 PUSH2 0x4BB3 JUMP JUMPDEST SWAP2 SWAP1 DUP3 MLOAD DUP2 MSTORE PUSH1 0x20 SWAP3 PUSH1 0x1 DUP1 PUSH1 0xA0 SHL SUB DUP5 DUP3 ADD MLOAD AND DUP5 DUP4 ADD MSTORE PUSH2 0x4CB1 PUSH2 0x4C9F PUSH2 0x4C79 PUSH2 0x4C67 PUSH1 0x40 DUP6 ADD MLOAD PUSH2 0x260 DUP1 PUSH1 0x40 DUP10 ADD MSTORE DUP8 ADD SWAP1 PUSH2 0x4B55 JUMP JUMPDEST PUSH1 0x60 DUP6 ADD MLOAD DUP7 DUP3 SUB PUSH1 0x60 DUP9 ADD MSTORE PUSH2 0x4B55 JUMP JUMPDEST PUSH1 0x80 DUP5 ADD MLOAD PUSH1 0x80 DUP7 ADD MSTORE PUSH1 0xA0 DUP5 ADD MLOAD PUSH1 0xA0 DUP7 ADD MSTORE PUSH1 0xC0 DUP5 ADD MLOAD DUP6 DUP3 SUB PUSH1 0xC0 DUP8 ADD MSTORE PUSH2 0x4B55 JUMP JUMPDEST PUSH1 0xE0 DUP4 ADD MLOAD DUP5 DUP3 SUB PUSH1 0xE0 DUP7 ADD MSTORE PUSH2 0x4B55 JUMP JUMPDEST PUSH2 0x100 SWAP5 DUP6 DUP4 ADD MLOAD SWAP6 DUP5 DUP4 SUB SWAP1 DUP6 ADD MSTORE DUP6 MLOAD DUP1 DUP4 MSTORE DUP2 DUP4 ADD SWAP2 DUP1 DUP1 DUP4 PUSH1 0x5 SHL DUP7 ADD ADD SWAP9 ADD SWAP3 PUSH1 0x0 SWAP1 JUMPDEST DUP4 DUP3 LT PUSH2 0x4D9C JUMPI POP POP POP POP POP POP PUSH2 0x4D53 PUSH2 0x4D3F PUSH2 0x4D20 PUSH2 0x4D0C PUSH2 0x4D99 SWAP7 SWAP8 PUSH2 0x120 DUP1 DUP8 ADD MLOAD SWAP1 DUP9 DUP4 SUB SWAP1 DUP10 ADD MSTORE PUSH2 0x4B55 JUMP JUMPDEST PUSH2 0x140 DUP1 DUP7 ADD MLOAD SWAP1 DUP8 DUP4 SUB SWAP1 DUP9 ADD MSTORE PUSH2 0x4B55 JUMP JUMPDEST PUSH2 0x160 DUP1 DUP6 ADD MLOAD SWAP1 DUP7 ADD MSTORE PUSH2 0x180 DUP1 DUP6 ADD MLOAD SWAP1 DUP7 DUP4 SUB SWAP1 DUP8 ADD MSTORE PUSH2 0x4B55 JUMP JUMPDEST PUSH2 0x1A0 DUP1 DUP5 ADD MLOAD SWAP1 DUP6 DUP4 SUB SWAP1 DUP7 ADD MSTORE PUSH2 0x4B55 JUMP JUMPDEST SWAP2 PUSH2 0x1C0 DUP1 DUP4 ADD MLOAD SWAP1 DUP3 ADD MSTORE PUSH2 0x1E0 DUP1 DUP4 ADD MLOAD ISZERO ISZERO SWAP1 DUP3 ADD MSTORE PUSH2 0x200 DUP1 DUP4 ADD MLOAD ISZERO ISZERO SWAP1 DUP3 ADD MSTORE PUSH2 0x220 DUP1 DUP4 ADD MLOAD ISZERO ISZERO SWAP1 DUP3 ADD MSTORE PUSH2 0x240 DUP1 SWAP3 ADD MLOAD SWAP2 DUP2 DUP5 SUB SWAP2 ADD MSTORE PUSH2 0x4B95 JUMP JUMPDEST SWAP1 JUMP JUMPDEST SWAP1 SWAP2 SWAP3 SWAP4 SWAP5 SWAP9 DUP4 DUP1 PUSH2 0x4DBB PUSH1 0x1 SWAP4 DUP14 PUSH1 0x1F NOT SWAP1 DUP3 SUB ADD DUP7 MSTORE DUP10 MLOAD PUSH2 0x4B55 JUMP JUMPDEST SWAP12 SWAP8 ADD SWAP6 SWAP5 SWAP4 SWAP2 SWAP1 SWAP2 ADD SWAP2 ADD PUSH2 0x4CDA JUMP JUMPDEST PUSH1 0x20 DUP1 DUP3 ADD SWAP1 DUP1 DUP4 MSTORE DUP4 MLOAD DUP1 SWAP3 MSTORE PUSH1 0x40 DUP4 ADD SWAP3 DUP2 PUSH1 0x40 DUP5 PUSH1 0x5 SHL DUP4 ADD ADD SWAP6 ADD SWAP4 PUSH1 0x0 SWAP2 JUMPDEST DUP5 DUP4 LT PUSH2 0x4E00 JUMPI POP POP POP POP POP POP SWAP1 JUMP JUMPDEST SWAP1 SWAP2 SWAP3 SWAP4 SWAP5 SWAP6 DUP5 DUP1 PUSH2 0x4E1E PUSH1 0x1 SWAP4 PUSH1 0x3F NOT DUP7 DUP3 SUB ADD DUP8 MSTORE DUP11 MLOAD PUSH2 0x4C2C JUMP JUMPDEST SWAP9 ADD SWAP4 ADD SWAP4 ADD SWAP2 SWAP5 SWAP4 SWAP3 SWAP1 PUSH2 0x4DF0 JUMP JUMPDEST PUSH1 0x4 CALLDATALOAD SWAP1 PUSH1 0x1 PUSH1 0x1 PUSH1 0xA0 SHL SUB DUP3 AND DUP3 SUB PUSH2 0x4FB JUMPI JUMP JUMPDEST PUSH1 0x24 CALLDATALOAD SWAP1 PUSH1 0x1 PUSH1 0x1 PUSH1 0xA0 SHL SUB DUP3 AND DUP3 SUB PUSH2 0x4FB JUMPI JUMP JUMPDEST PUSH2 0x260 DUP2 ADD SWAP1 DUP2 LT PUSH1 0x1 PUSH1 0x1 PUSH1 0x40 SHL SUB DUP3 GT OR PUSH2 0x2354 JUMPI PUSH1 0x40 MSTORE JUMP JUMPDEST PUSH2 0x100 DUP2 ADD SWAP1 DUP2 LT PUSH1 0x1 PUSH1 0x1 PUSH1 0x40 SHL SUB DUP3 GT OR PUSH2 0x2354 JUMPI PUSH1 0x40 MSTORE JUMP JUMPDEST PUSH1 0xA0 DUP2 ADD SWAP1 DUP2 LT PUSH1 0x1 PUSH1 0x1 PUSH1 0x40 SHL SUB DUP3 GT OR PUSH2 0x2354 JUMPI PUSH1 0x40 MSTORE JUMP JUMPDEST PUSH1 0x20 DUP2 ADD SWAP1 DUP2 LT PUSH1 0x1 PUSH1 0x1 PUSH1 0x40 SHL SUB DUP3 GT OR PUSH2 0x2354 JUMPI PUSH1 0x40 MSTORE JUMP JUMPDEST SWAP1 PUSH1 0x1F DUP1 NOT SWAP2 ADD AND DUP2 ADD SWAP1 DUP2 LT PUSH1 0x1 PUSH1 0x1 PUSH1 0x40 SHL SUB DUP3 GT OR PUSH2 0x2354 JUMPI PUSH1 0x40 MSTORE JUMP JUMPDEST PUSH1 0x1 PUSH1 0x1 PUSH1 0x40 SHL SUB DUP2 GT PUSH2 0x2354 JUMPI PUSH1 0x1F ADD PUSH1 0x1F NOT AND PUSH1 0x20 ADD SWAP1 JUMP JUMPDEST SWAP3 SWAP2 SWAP3 PUSH2 0x4F10 DUP3 PUSH2 0x4EE9 JUMP JUMPDEST SWAP2 PUSH2 0x4F1E PUSH1 0x40 MLOAD SWAP4 DUP5 PUSH2 0x4EC8 JUMP JUMPDEST DUP3 SWAP5 DUP2 DUP5 MSTORE DUP2 DUP4 ADD GT PUSH2 0x4FB JUMPI DUP3 DUP2 PUSH1 0x20 SWAP4 DUP5 PUSH1 0x0 SWAP7 ADD CALLDATACOPY ADD ADD MSTORE JUMP JUMPDEST SWAP1 DUP1 PUSH1 0x1F DUP4 ADD SLT ISZERO PUSH2 0x4FB JUMPI DUP2 PUSH1 0x20 PUSH2 0x4D99 SWAP4 CALLDATALOAD SWAP2 ADD PUSH2 0x4F04 JUMP JUMPDEST PUSH1 0x60 SWAP1 PUSH1 0x3 NOT ADD SLT PUSH2 0x4FB JUMPI PUSH1 0x1 PUSH1 0x1 PUSH1 0xA0 SHL SUB SWAP1 PUSH1 0x4 CALLDATALOAD DUP3 DUP2 AND DUP2 SUB PUSH2 0x4FB JUMPI SWAP2 PUSH1 0x24 CALLDATALOAD SWAP1 DUP2 AND DUP2 SUB PUSH2 0x4FB JUMPI SWAP1 PUSH1 0x44 CALLDATALOAD SWAP1 JUMP JUMPDEST PUSH2 0x4D99 SWAP2 PUSH1 0xE0 PUSH2 0x5022 PUSH2 0x5010 PUSH2 0x4FFE PUSH2 0x4FEC PUSH2 0x4FDA PUSH2 0x4FC8 PUSH2 0x4FB6 DUP10 MLOAD PUSH2 0x100 DUP1 DUP12 MSTORE DUP11 ADD SWAP1 PUSH2 0x4B55 JUMP JUMPDEST PUSH1 0x20 DUP11 ADD MLOAD DUP10 DUP3 SUB PUSH1 0x20 DUP12 ADD MSTORE PUSH2 0x4B55 JUMP JUMPDEST PUSH1 0x40 DUP10 ADD MLOAD DUP9 DUP3 SUB PUSH1 0x40 DUP11 ADD MSTORE PUSH2 0x4B55 JUMP JUMPDEST PUSH1 0x60 DUP9 ADD MLOAD DUP8 DUP3 SUB PUSH1 0x60 DUP10 ADD MSTORE PUSH2 0x4B55 JUMP JUMPDEST PUSH1 0x80 DUP8 ADD MLOAD DUP7 DUP3 SUB PUSH1 0x80 DUP9 ADD MSTORE PUSH2 0x4B55 JUMP JUMPDEST PUSH1 0xA0 DUP7 ADD MLOAD DUP6 DUP3 SUB PUSH1 0xA0 DUP8 ADD MSTORE PUSH2 0x4B55 JUMP JUMPDEST PUSH1 0xC0 DUP6 ADD MLOAD DUP5 DUP3 SUB PUSH1 0xC0 DUP7 ADD MSTORE PUSH2 0x4B55 JUMP JUMPDEST SWAP3 ADD MLOAD SWAP1 PUSH1 0xE0 DUP2 DUP5 SUB SWAP2 ADD MSTORE PUSH2 0x4B55 JUMP JUMPDEST PUSH1 0x20 DUP1 DUP3 ADD SWAP1 DUP1 DUP4 MSTORE DUP4 MLOAD DUP1 SWAP3 MSTORE PUSH1 0x40 SWAP3 DUP4 DUP2 ADD DUP3 DUP6 DUP6 PUSH1 0x5 SHL DUP5 ADD ADD SWAP7 ADD SWAP5 PUSH1 0x0 SWAP3 JUMPDEST DUP6 DUP5 LT PUSH2 0x5068 JUMPI POP POP POP POP POP POP POP SWAP1 JUMP JUMPDEST SWAP1 SWAP2 SWAP3 SWAP4 SWAP5 SWAP6 SWAP7 DUP6 DUP1 PUSH2 0x50E0 PUSH1 0x1 SWAP4 PUSH1 0x3F NOT DUP7 DUP3 SUB ADD DUP9 MSTORE DUP12 MLOAD DUP1 MLOAD DUP3 MSTORE DUP4 DUP2 ADD MLOAD DUP5 DUP4 ADD MSTORE DUP8 DUP2 ADD MLOAD DUP9 DUP4 ADD MSTORE PUSH1 0x60 DUP1 DUP3 ADD MLOAD SWAP1 DUP4 ADD MSTORE DUP6 DUP1 PUSH1 0xA0 SHL SUB PUSH1 0x80 DUP2 DUP2 DUP5 ADD MLOAD AND SWAP1 DUP5 ADD MSTORE PUSH1 0xA0 SWAP1 DUP2 DUP4 ADD MLOAD AND SWAP1 DUP4 ADD MSTORE PUSH1 0xC0 DUP1 DUP3 ADD MLOAD ISZERO ISZERO SWAP1 DUP4 ADD MSTORE PUSH1 0xE0 DUP1 SWAP2 ADD MLOAD SWAP2 PUSH2 0x100 DUP1 SWAP3 DUP3 ADD MSTORE ADD SWAP1 PUSH2 0x4F8B JUMP JUMPDEST SWAP10 ADD SWAP5 ADD SWAP5 ADD SWAP3 SWAP6 SWAP5 SWAP4 SWAP2 SWAP1 PUSH2 0x5057 JUMP JUMPDEST SWAP2 SWAP1 PUSH1 0x20 DUP4 ADD SWAP3 PUSH1 0x4 DUP3 LT ISZERO PUSH2 0x757 JUMPI MSTORE JUMP JUMPDEST SWAP1 PUSH1 0x1 DUP3 DUP2 SHR SWAP3 AND DUP1 ISZERO PUSH2 0x5134 JUMPI JUMPDEST PUSH1 0x20 DUP4 LT EQ PUSH2 0x511E JUMPI JUMP JUMPDEST PUSH4 0x4E487B71 PUSH1 0xE0 SHL PUSH1 0x0 MSTORE PUSH1 0x22 PUSH1 0x4 MSTORE PUSH1 0x24 PUSH1 0x0 REVERT JUMPDEST SWAP2 PUSH1 0x7F AND SWAP2 PUSH2 0x5113 JUMP JUMPDEST SWAP1 PUSH1 0x40 MLOAD SWAP2 DUP3 PUSH1 0x0 DUP3 SLOAD SWAP3 PUSH2 0x5152 DUP5 PUSH2 0x5104 JUMP JUMPDEST SWAP1 DUP2 DUP5 MSTORE PUSH1 0x1 SWAP5 DUP6 DUP2 AND SWAP1 DUP2 PUSH1 0x0 EQ PUSH2 0x51C1 JUMPI POP PUSH1 0x1 EQ PUSH2 0x517E JUMPI JUMPDEST POP POP PUSH2 0x517C SWAP3 POP SUB DUP4 PUSH2 0x4EC8 JUMP JUMPDEST JUMP JUMPDEST SWAP1 SWAP4 SWAP2 POP PUSH1 0x0 MSTORE PUSH1 0x20 SWAP1 DUP2 PUSH1 0x0 KECCAK256 SWAP4 PUSH1 0x0 SWAP2 JUMPDEST DUP2 DUP4 LT PUSH2 0x51A9 JUMPI POP POP PUSH2 0x517C SWAP4 POP DUP3 ADD ADD CODESIZE DUP1 PUSH2 0x516E JUMP JUMPDEST DUP6 SLOAD DUP9 DUP5 ADD DUP6 ADD MSTORE SWAP5 DUP6 ADD SWAP5 DUP8 SWAP5 POP SWAP2 DUP4 ADD SWAP2 PUSH2 0x5191 JUMP JUMPDEST SWAP2 POP POP PUSH2 0x517C SWAP5 POP PUSH1 0x20 SWAP3 POP PUSH1 0xFF NOT AND DUP3 DUP5 ADD MSTORE ISZERO ISZERO PUSH1 0x5 SHL DUP3 ADD ADD CODESIZE DUP1 PUSH2 0x516E JUMP JUMPDEST DUP1 SLOAD DUP3 LT ISZERO PUSH2 0x5200 JUMPI PUSH1 0x0 MSTORE PUSH1 0xE PUSH1 0x20 PUSH1 0x0 KECCAK256 SWAP2 MUL ADD SWAP1 PUSH1 0x0 SWAP1 JUMP JUMPDEST PUSH4 0x4E487B71 PUSH1 0xE0 SHL PUSH1 0x0 MSTORE PUSH1 0x32 PUSH1 0x4 MSTORE PUSH1 0x24 PUSH1 0x0 REVERT JUMPDEST SWAP1 PUSH1 0x40 MLOAD PUSH2 0x5223 DUP2 PUSH2 0x4E76 JUMP JUMPDEST PUSH1 0xE0 PUSH2 0x52A3 PUSH1 0x7 DUP4 SWAP6 PUSH2 0x5235 DUP2 PUSH2 0x513E JUMP JUMPDEST DUP6 MSTORE PUSH2 0x5243 PUSH1 0x1 DUP3 ADD PUSH2 0x513E JUMP JUMPDEST PUSH1 0x20 DUP7 ADD MSTORE PUSH2 0x5254 PUSH1 0x2 DUP3 ADD PUSH2 0x513E JUMP JUMPDEST PUSH1 0x40 DUP7 ADD MSTORE PUSH2 0x5265 PUSH1 0x3 DUP3 ADD PUSH2 0x513E JUMP JUMPDEST PUSH1 0x60 DUP7 ADD MSTORE PUSH2 0x5276 PUSH1 0x4 DUP3 ADD PUSH2 0x513E JUMP JUMPDEST PUSH1 0x80 DUP7 ADD MSTORE PUSH2 0x5287 PUSH1 0x5 DUP3 ADD PUSH2 0x513E JUMP JUMPDEST PUSH1 0xA0 DUP7 ADD MSTORE PUSH2 0x5298 PUSH1 0x6 DUP3 ADD PUSH2 0x513E JUMP JUMPDEST PUSH1 0xC0 DUP7 ADD MSTORE ADD PUSH2 0x513E JUMP JUMPDEST SWAP2 ADD MSTORE JUMP JUMPDEST SWAP6 SWAP3 SWAP1 SWAP2 PUSH2 0x4D99 SWAP9 SWAP8 SWAP6 SWAP5 SWAP3 DUP8 MSTORE PUSH1 0x20 DUP8 ADD MSTORE PUSH1 0x40 DUP7 ADD MSTORE PUSH1 0x60 DUP6 ADD MSTORE PUSH1 0x1 DUP1 PUSH1 0xA0 SHL SUB DUP1 SWAP3 AND PUSH1 0x80 DUP6 ADD MSTORE AND PUSH1 0xA0 DUP4 ADD MSTORE ISZERO ISZERO PUSH1 0xC0 DUP3 ADD MSTORE PUSH2 0x100 SWAP1 DUP2 PUSH1 0xE0 DUP3 ADD MSTORE ADD SWAP1 PUSH2 0x4F8B JUMP JUMPDEST DUP1 SLOAD DUP3 LT ISZERO PUSH2 0x5200 JUMPI PUSH1 0x0 MSTORE PUSH1 0x20 PUSH1 0x0 KECCAK256 ADD SWAP1 PUSH1 0x0 SWAP1 JUMP JUMPDEST PUSH1 0x0 SLOAD PUSH1 0x1 PUSH1 0x1 PUSH1 0xA0 SHL SUB AND CALLER SUB PUSH2 0x531E JUMPI JUMP JUMPDEST PUSH1 0x64 PUSH1 0x40 MLOAD PUSH3 0x461BCD PUSH1 0xE5 SHL DUP2 MSTORE PUSH1 0x20 PUSH1 0x4 DUP3 ADD MSTORE PUSH1 0x20 PUSH1 0x24 DUP3 ADD MSTORE PUSH32 0x4F776E61626C653A2063616C6C6572206973206E6F7420746865206F776E6572 PUSH1 0x44 DUP3 ADD MSTORE REVERT JUMPDEST ISZERO PUSH2 0x5369 JUMPI JUMP JUMPDEST PUSH1 0x40 MLOAD PUSH3 0x461BCD PUSH1 0xE5 SHL DUP2 MSTORE PUSH1 0x20 PUSH1 0x4 DUP3 ADD MSTORE PUSH1 0x18 PUSH1 0x24 DUP3 ADD MSTORE PUSH32 0x4552433732313A20696E76616C696420746F6B656E2049440000000000000000 PUSH1 0x44 DUP3 ADD MSTORE PUSH1 0x64 SWAP1 REVERT JUMPDEST PUSH1 0x0 SWAP1 DUP2 MSTORE PUSH1 0x4 PUSH1 0x20 MSTORE PUSH1 0x40 SWAP1 KECCAK256 SLOAD PUSH1 0x1 PUSH1 0x1 PUSH1 0xA0 SHL SUB AND PUSH2 0x4D99 DUP2 ISZERO ISZERO PUSH2 0x5362 JUMP JUMPDEST PUSH1 0x0 DUP2 DUP2 MSTORE PUSH1 0x4 PUSH1 0x20 MSTORE PUSH1 0x40 SWAP1 KECCAK256 SLOAD PUSH2 0x53F4 SWAP1 PUSH1 0x1 PUSH1 0x1 PUSH1 0xA0 SHL SUB AND ISZERO ISZERO PUSH2 0x5362 JUMP JUMPDEST PUSH1 0x0 SWAP1 DUP2 MSTORE PUSH1 0x6 PUSH1 0x20 MSTORE PUSH1 0x40 SWAP1 KECCAK256 SLOAD PUSH1 0x1 PUSH1 0x1 PUSH1 0xA0 SHL SUB AND SWAP1 JUMP JUMPDEST ISZERO PUSH2 0x5416 JUMPI JUMP JUMPDEST PUSH1 0x40 MLOAD PUSH3 0x461BCD PUSH1 0xE5 SHL DUP2 MSTORE PUSH1 0x20 PUSH1 0x4 DUP3 ADD MSTORE PUSH1 0x2D PUSH1 0x24 DUP3 ADD MSTORE PUSH32 0x4552433732313A2063616C6C6572206973206E6F7420746F6B656E206F776E65 PUSH1 0x44 DUP3 ADD MSTORE PUSH13 0x1C881BDC88185C1C1C9BDD9959 PUSH1 0x9A SHL PUSH1 0x64 DUP3 ADD MSTORE PUSH1 0x84 SWAP1 REVERT JUMPDEST SWAP1 PUSH2 0x5495 SWAP4 SWAP3 SWAP2 PUSH2 0x5485 PUSH2 0x4003 DUP5 CALLER PUSH2 0x550C JUMP JUMPDEST PUSH2 0x5490 DUP4 DUP4 DUP4 PUSH2 0x55D4 JUMP JUMPDEST PUSH2 0x5715 JUMP JUMPDEST ISZERO PUSH2 0x549C JUMPI JUMP JUMPDEST PUSH1 0x40 MLOAD PUSH3 0x461BCD PUSH1 0xE5 SHL DUP2 MSTORE DUP1 PUSH2 0x54B5 PUSH1 0x4 DUP3 ADD PUSH2 0x54B9 JUMP JUMPDEST SUB SWAP1 REVERT JUMPDEST PUSH1 0x80 SWAP1 PUSH1 0x20 DUP2 MSTORE PUSH1 0x32 PUSH1 0x20 DUP3 ADD MSTORE PUSH32 0x4552433732313A207472616E7366657220746F206E6F6E204552433732315265 PUSH1 0x40 DUP3 ADD MSTORE PUSH18 0x31B2B4BB32B91034B6B83632B6B2B73A32B9 PUSH1 0x71 SHL PUSH1 0x60 DUP3 ADD MSTORE ADD SWAP1 JUMP JUMPDEST SWAP1 PUSH1 0x1 PUSH1 0x1 PUSH1 0xA0 SHL SUB DUP1 DUP1 PUSH2 0x5520 DUP5 PUSH2 0x53AE JUMP JUMPDEST AND SWAP4 AND SWAP2 DUP4 DUP4 EQ SWAP4 DUP5 ISZERO PUSH2 0x5553 JUMPI JUMPDEST POP DUP4 ISZERO PUSH2 0x553D JUMPI JUMPDEST POP POP POP SWAP1 JUMP JUMPDEST PUSH2 0x5549 SWAP2 SWAP3 SWAP4 POP PUSH2 0x53D1 JUMP JUMPDEST AND EQ CODESIZE DUP1 DUP1 PUSH2 0x5537 JUMP JUMPDEST SWAP1 SWAP4 POP PUSH1 0x0 MSTORE PUSH1 0x7 PUSH1 0x20 MSTORE PUSH1 0x40 PUSH1 0x0 KECCAK256 DUP3 PUSH1 0x0 MSTORE PUSH1 0x20 MSTORE PUSH1 0xFF PUSH1 0x40 PUSH1 0x0 KECCAK256 SLOAD AND SWAP3 CODESIZE PUSH2 0x552F JUMP JUMPDEST ISZERO PUSH2 0x5581 JUMPI JUMP JUMPDEST PUSH1 0x40 MLOAD PUSH3 0x461BCD PUSH1 0xE5 SHL DUP2 MSTORE PUSH1 0x20 PUSH1 0x4 DUP3 ADD MSTORE PUSH1 0x25 PUSH1 0x24 DUP3 ADD MSTORE PUSH32 0x4552433732313A207472616E736665722066726F6D20696E636F727265637420 PUSH1 0x44 DUP3 ADD MSTORE PUSH5 0x37BBB732B9 PUSH1 0xD9 SHL PUSH1 0x64 DUP3 ADD MSTORE PUSH1 0x84 SWAP1 REVERT JUMPDEST SWAP1 PUSH2 0x55FC SWAP2 PUSH2 0x55E2 DUP5 PUSH2 0x53AE JUMP JUMPDEST PUSH1 0x1 PUSH1 0x1 PUSH1 0xA0 SHL SUB SWAP4 SWAP2 DUP5 AND SWAP3 DUP5 SWAP3 SWAP1 SWAP2 DUP4 AND DUP5 EQ PUSH2 0x557A JUMP JUMPDEST AND SWAP2 DUP3 ISZERO PUSH2 0x5694 JUMPI DUP2 PUSH2 0x5619 SWAP2 PUSH2 0x5612 DUP7 PUSH2 0x53AE JUMP JUMPDEST AND EQ PUSH2 0x557A JUMP JUMPDEST PUSH32 0xDDF252AD1BE2C89B69C2B068FC378DAA952BA7F163C4A11628F55A4DF523B3EF PUSH1 0x0 DUP5 DUP2 MSTORE PUSH1 0x6 PUSH1 0x20 MSTORE PUSH1 0x40 DUP2 KECCAK256 PUSH1 0x1 PUSH1 0x1 PUSH1 0x60 SHL SUB PUSH1 0xA0 SHL SWAP1 DUP2 DUP2 SLOAD AND SWAP1 SSTORE DUP4 DUP3 MSTORE PUSH1 0x5 PUSH1 0x20 MSTORE PUSH1 0x40 DUP3 KECCAK256 PUSH1 0x0 NOT DUP2 SLOAD ADD SWAP1 SSTORE DUP5 DUP3 MSTORE PUSH1 0x40 DUP3 KECCAK256 PUSH1 0x1 DUP2 SLOAD ADD SWAP1 SSTORE DUP6 DUP3 MSTORE PUSH1 0x4 PUSH1 0x20 MSTORE DUP5 PUSH1 0x40 DUP4 KECCAK256 SWAP2 DUP3 SLOAD AND OR SWAP1 SSTORE DUP1 LOG4 JUMP JUMPDEST PUSH1 0x40 MLOAD PUSH3 0x461BCD PUSH1 0xE5 SHL DUP2 MSTORE PUSH1 0x20 PUSH1 0x4 DUP3 ADD MSTORE PUSH1 0x24 DUP1 DUP3 ADD MSTORE PUSH32 0x4552433732313A207472616E7366657220746F20746865207A65726F20616464 PUSH1 0x44 DUP3 ADD MSTORE PUSH4 0x72657373 PUSH1 0xE0 SHL PUSH1 0x64 DUP3 ADD MSTORE PUSH1 0x84 SWAP1 REVERT JUMPDEST RETURNDATASIZE ISZERO PUSH2 0x5710 JUMPI RETURNDATASIZE SWAP1 PUSH2 0x56F6 DUP3 PUSH2 0x4EE9 JUMP JUMPDEST SWAP2 PUSH2 0x5704 PUSH1 0x40 MLOAD SWAP4 DUP5 PUSH2 0x4EC8 JUMP JUMPDEST DUP3 MSTORE RETURNDATASIZE PUSH1 0x0 PUSH1 0x20 DUP5 ADD RETURNDATACOPY JUMP JUMPDEST PUSH1 0x60 SWAP1 JUMP JUMPDEST SWAP2 SWAP3 PUSH1 0x0 SWAP3 SWAP2 SWAP1 DUP2 EXTCODESIZE ISZERO PUSH2 0x580A JUMPI PUSH1 0x20 SWAP2 PUSH2 0x576B SWAP2 DUP6 PUSH1 0x40 MLOAD SWAP6 DUP7 DUP1 SWAP6 DUP2 SWAP5 PUSH4 0xA85BD01 PUSH1 0xE1 SHL SWAP12 DUP13 DUP5 MSTORE CALLER PUSH1 0x4 DUP6 ADD MSTORE PUSH1 0x1 DUP1 PUSH1 0xA0 SHL SUB DUP1 SWAP6 AND PUSH1 0x24 DUP6 ADD MSTORE PUSH1 0x44 DUP5 ADD MSTORE PUSH1 0x80 PUSH1 0x64 DUP5 ADD MSTORE PUSH1 0x84 DUP4 ADD SWAP1 PUSH2 0x4B55 JUMP JUMPDEST SUB SWAP4 AND GAS CALL SWAP1 DUP3 SWAP1 DUP3 PUSH2 0x57BB JUMPI JUMPDEST POP POP PUSH2 0x57AD JUMPI PUSH2 0x5787 PUSH2 0x56E5 JUMP JUMPDEST DUP1 MLOAD SWAP1 DUP2 PUSH2 0x57A8 JUMPI PUSH1 0x40 MLOAD PUSH3 0x461BCD PUSH1 0xE5 SHL DUP2 MSTORE DUP1 PUSH2 0x54B5 PUSH1 0x4 DUP3 ADD PUSH2 0x54B9 JUMP JUMPDEST PUSH1 0x20 ADD REVERT JUMPDEST PUSH1 0x1 PUSH1 0x1 PUSH1 0xE0 SHL SUB NOT AND EQ SWAP1 JUMP JUMPDEST SWAP1 SWAP2 SWAP3 POP PUSH1 0x20 DUP2 RETURNDATASIZE DUP3 GT PUSH2 0x5802 JUMPI JUMPDEST DUP2 PUSH2 0x57D7 PUSH1 0x20 SWAP4 DUP4 PUSH2 0x4EC8 JUMP JUMPDEST DUP2 ADD SUB SLT PUSH2 0x57FE JUMPI MLOAD SWAP1 PUSH1 0x1 PUSH1 0x1 PUSH1 0xE0 SHL SUB NOT DUP3 AND DUP3 SUB PUSH2 0x57FB JUMPI POP SWAP1 CODESIZE DUP1 PUSH2 0x5779 JUMP JUMPDEST DUP1 REVERT JUMPDEST POP DUP1 REVERT JUMPDEST RETURNDATASIZE SWAP2 POP PUSH2 0x57CA JUMP JUMPDEST POP POP POP POP POP PUSH1 0x1 SWAP1 JUMP JUMPDEST ISZERO PUSH2 0x581B JUMPI JUMP JUMPDEST PUSH1 0x40 MLOAD PUSH3 0x461BCD PUSH1 0xE5 SHL DUP2 MSTORE PUSH1 0x20 PUSH1 0x4 DUP3 ADD MSTORE PUSH1 0x16 PUSH1 0x24 DUP3 ADD MSTORE PUSH22 0x141C9BD91D58DD08191BD95CC81B9BDD08195E1A5CDD PUSH1 0x52 SHL PUSH1 0x44 DUP3 ADD MSTORE PUSH1 0x64 SWAP1 REVERT JUMPDEST ISZERO PUSH2 0x5860 JUMPI JUMP JUMPDEST PUSH1 0x40 MLOAD PUSH3 0x461BCD PUSH1 0xE5 SHL DUP2 MSTORE PUSH1 0x20 PUSH1 0x4 DUP3 ADD MSTORE PUSH1 0x12 PUSH1 0x24 DUP3 ADD MSTORE PUSH18 0x141C9BD91D58DD081A5CC819195B195D1959 PUSH1 0x72 SHL PUSH1 0x44 DUP3 ADD MSTORE PUSH1 0x64 SWAP1 REVERT JUMPDEST SWAP1 CALLDATALOAD SWAP1 PUSH1 0x1E NOT DUP2 CALLDATASIZE SUB ADD DUP3 SLT ISZERO PUSH2 0x4FB JUMPI ADD DUP1 CALLDATALOAD SWAP1 PUSH1 0x1 PUSH1 0x1 PUSH1 0x40 SHL SUB DUP3 GT PUSH2 0x4FB JUMPI PUSH1 0x20 ADD SWAP2 DUP2 CALLDATASIZE SUB DUP4 SGT PUSH2 0x4FB JUMPI JUMP JUMPDEST SWAP2 SWAP1 DUP3 SUB SWAP2 DUP3 GT PUSH2 0x3C3C JUMPI JUMP JUMPDEST DUP2 DUP2 LT PUSH2 0x58E4 JUMPI POP POP JUMP JUMPDEST PUSH1 0x0 DUP2 SSTORE PUSH1 0x1 ADD PUSH2 0x58D9 JUMP JUMPDEST SWAP2 SWAP1 PUSH1 0x1F DUP2 GT PUSH2 0x58FF JUMPI POP POP POP JUMP JUMPDEST PUSH2 0x517C SWAP3 PUSH1 0x0 MSTORE PUSH1 0x20 PUSH1 0x0 KECCAK256 SWAP1 PUSH1 0x20 PUSH1 0x1F DUP5 ADD PUSH1 0x5 SHR DUP4 ADD SWAP4 LT PUSH2 0x592B JUMPI JUMPDEST PUSH1 0x1F ADD PUSH1 0x5 SHR ADD SWAP1 PUSH2 0x58D9 JUMP JUMPDEST SWAP1 SWAP2 POP DUP2 SWAP1 PUSH2 0x591E JUMP JUMPDEST DUP1 SLOAD PUSH1 0x1 PUSH1 0x40 SHL DUP2 LT ISZERO PUSH2 0x2354 JUMPI PUSH2 0x5954 SWAP1 PUSH1 0x1 SWAP3 DUP4 DUP3 ADD DUP2 SSTORE PUSH2 0x51E4 JUMP JUMPDEST SWAP3 SWAP1 SWAP3 PUSH2 0x5FF7 JUMPI DUP1 MLOAD DUP4 SSTORE PUSH1 0x20 SWAP3 DUP4 DUP3 ADD MLOAD DUP4 DUP3 ADD SSTORE PUSH1 0x40 DUP3 ADD MLOAD PUSH1 0x2 DUP3 ADD SSTORE PUSH1 0x60 DUP3 ADD MLOAD SWAP1 PUSH1 0x3 SWAP2 DUP3 DUP3 ADD SSTORE PUSH1 0x4 DUP1 DUP3 ADD PUSH1 0x1 DUP1 PUSH1 0xA0 SHL SUB SWAP1 DUP2 PUSH1 0x80 DUP8 ADD MLOAD AND PUSH1 0x1 PUSH1 0x1 PUSH1 0x60 SHL SUB PUSH1 0xA0 SHL DUP3 SLOAD AND OR SWAP1 SSTORE PUSH1 0x5 DUP4 ADD SWAP1 PUSH1 0xA0 DUP7 ADD MLOAD AND DUP2 SLOAD SWAP1 PUSH1 0xFF PUSH1 0xA0 SHL PUSH1 0xC0 DUP9 ADD MLOAD ISZERO ISZERO PUSH1 0xA0 SHL AND SWAP2 PUSH11 0xFFFFFFFFFFFFFFFFFFFFFF PUSH1 0xA8 SHL AND OR OR SWAP1 SSTORE PUSH1 0xE0 PUSH1 0x6 DUP4 ADD SWAP5 ADD MLOAD SWAP6 DUP7 MLOAD SWAP3 DUP4 MLOAD SWAP6 PUSH1 0x1 PUSH1 0x1 PUSH1 0x40 SHL SUB SWAP7 DUP8 DUP2 GT PUSH2 0x5FE2 JUMPI PUSH2 0x5A07 DUP2 PUSH2 0x1EF3 DUP5 SLOAD PUSH2 0x5104 JUMP JUMPDEST DUP1 DUP5 PUSH1 0x1F SWAP8 DUP9 DUP4 GT PUSH1 0x1 EQ PUSH2 0x5F80 JUMPI PUSH1 0x0 SWAP3 PUSH2 0x5F75 JUMPI JUMPDEST POP POP PUSH1 0x0 NOT DUP3 DUP10 SHL SHR NOT AND SWAP1 DUP10 SHL OR SWAP1 SSTORE JUMPDEST PUSH1 0x7 DUP2 ADD DUP3 DUP10 ADD MLOAD DUP1 MLOAD SWAP1 DUP9 DUP3 GT PUSH2 0x5D3F JUMPI DUP2 SWAP1 PUSH2 0x5A52 DUP3 PUSH2 0x1919 DUP7 SLOAD PUSH2 0x5104 JUMP JUMPDEST DUP6 SWAP1 DUP9 DUP4 GT PUSH1 0x1 EQ PUSH2 0x5F13 JUMPI PUSH1 0x0 SWAP3 PUSH2 0x5F08 JUMPI JUMPDEST POP POP PUSH1 0x0 NOT DUP3 DUP10 SHL SHR NOT AND SWAP1 DUP10 SHL OR SWAP1 SSTORE JUMPDEST PUSH1 0x8 DUP2 ADD PUSH1 0x40 DUP10 ADD MLOAD DUP1 MLOAD SWAP1 DUP9 DUP3 GT PUSH2 0x5D3F JUMPI DUP2 SWAP1 PUSH2 0x5A9B DUP3 PUSH2 0x1919 DUP7 SLOAD PUSH2 0x5104 JUMP JUMPDEST DUP6 SWAP1 DUP9 DUP4 GT PUSH1 0x1 EQ PUSH2 0x5EA6 JUMPI PUSH1 0x0 SWAP3 PUSH2 0x5E9B JUMPI JUMPDEST POP POP PUSH1 0x0 NOT DUP3 DUP10 SHL SHR NOT AND SWAP1 DUP10 SHL OR SWAP1 SSTORE JUMPDEST PUSH1 0x9 DUP2 ADD PUSH1 0x60 DUP10 ADD MLOAD DUP1 MLOAD SWAP1 DUP9 DUP3 GT PUSH2 0x5D3F JUMPI DUP2 SWAP1 PUSH2 0x5AE4 DUP3 PUSH2 0x1919 DUP7 SLOAD PUSH2 0x5104 JUMP JUMPDEST DUP6 SWAP1 DUP9 DUP4 GT PUSH1 0x1 EQ PUSH2 0x5E39 JUMPI PUSH1 0x0 SWAP3 PUSH2 0x5E2E JUMPI JUMPDEST POP POP PUSH1 0x0 NOT DUP3 DUP10 SHL SHR NOT AND SWAP1 DUP10 SHL OR SWAP1 SSTORE JUMPDEST PUSH1 0xA DUP2 ADD PUSH1 0x80 DUP10 ADD MLOAD DUP1 MLOAD SWAP1 DUP9 DUP3 GT PUSH2 0x5D3F JUMPI DUP2 SWAP1 PUSH2 0x5B2D DUP3 PUSH2 0x1919 DUP7 SLOAD PUSH2 0x5104 JUMP JUMPDEST DUP6 SWAP1 DUP9 DUP4 GT PUSH1 0x1 EQ PUSH2 0x5DCC JUMPI PUSH1 0x0 SWAP3 PUSH2 0x5DC1 JUMPI JUMPDEST POP POP PUSH1 0x0 NOT DUP3 DUP10 SHL SHR NOT AND SWAP1 DUP10 SHL OR SWAP1 SSTORE JUMPDEST PUSH1 0xB DUP2 ADD PUSH1 0xA0 DUP10 ADD MLOAD DUP1 MLOAD SWAP1 DUP9 DUP3 GT PUSH2 0x5D3F JUMPI DUP2 SWAP1 PUSH2 0x5B76 DUP3 PUSH2 0x1919 DUP7 SLOAD PUSH2 0x5104 JUMP JUMPDEST DUP6 SWAP1 DUP9 DUP4 GT PUSH1 0x1 EQ PUSH2 0x5D5F JUMPI PUSH1 0x0 SWAP3 PUSH2 0x5D54 JUMPI JUMPDEST POP POP PUSH1 0x0 NOT DUP3 DUP10 SHL SHR NOT AND SWAP1 DUP10 SHL OR SWAP1 SSTORE JUMPDEST PUSH1 0xC DUP2 ADD PUSH1 0xC0 DUP10 ADD MLOAD DUP1 MLOAD SWAP1 DUP9 DUP3 GT PUSH2 0x5D3F JUMPI PUSH2 0x5BC3 DUP3 PUSH2 0x5BBD DUP6 SLOAD PUSH2 0x5104 JUMP JUMPDEST DUP6 PUSH2 0x58F0 JUMP JUMPDEST DUP5 SWAP1 DUP8 DUP4 GT PUSH1 0x1 EQ PUSH2 0x5CD2 JUMPI SWAP2 DUP1 PUSH1 0xD SWAP5 SWAP3 PUSH1 0xE0 SWAP7 SWAP5 PUSH1 0x0 SWAP3 PUSH2 0x5CC7 JUMPI JUMPDEST POP POP PUSH1 0x0 NOT DUP3 DUP12 SHL SHR NOT AND SWAP1 DUP12 SHL OR SWAP1 SSTORE JUMPDEST ADD SWAP8 ADD MLOAD SWAP2 DUP3 MLOAD SWAP6 DUP7 GT PUSH2 0x5CB2 JUMPI POP PUSH2 0x5C16 DUP6 PUSH2 0x5C10 DUP10 SLOAD PUSH2 0x5104 JUMP JUMPDEST DUP10 PUSH2 0x58F0 JUMP JUMPDEST DUP1 SWAP3 DUP6 GT PUSH1 0x1 EQ PUSH2 0x5C4C JUMPI POP SWAP4 DUP4 SWAP5 SWAP2 DUP5 SWAP3 PUSH1 0x0 SWAP6 PUSH2 0x5C41 JUMPI JUMPDEST POP POP SHL SWAP3 PUSH1 0x0 NOT SWAP2 SHL SHR NOT AND OR SWAP1 SSTORE JUMP JUMPDEST ADD MLOAD SWAP4 POP CODESIZE DUP1 PUSH2 0x5C30 JUMP JUMPDEST SWAP3 SWAP2 SWAP1 DUP5 PUSH1 0x1F NOT DUP2 AND DUP9 PUSH1 0x0 MSTORE DUP6 PUSH1 0x0 KECCAK256 SWAP6 PUSH1 0x0 SWAP1 JUMPDEST DUP10 DUP4 DUP4 LT PUSH2 0x5C98 JUMPI POP POP POP LT PUSH2 0x5C7E JUMPI JUMPDEST POP POP POP POP DUP2 SHL ADD SWAP1 SSTORE JUMP JUMPDEST ADD MLOAD SWAP1 PUSH1 0xF8 DUP5 PUSH1 0x0 NOT SWAP3 SHL AND SHR NOT AND SWAP1 SSTORE CODESIZE DUP1 DUP1 DUP1 PUSH2 0x5C73 JUMP JUMPDEST DUP6 DUP8 ADD MLOAD DUP10 SSTORE SWAP1 SWAP8 ADD SWAP7 SWAP5 DUP6 ADD SWAP5 DUP9 SWAP4 POP SWAP1 DUP2 ADD SWAP1 PUSH2 0x5C62 JUMP JUMPDEST PUSH1 0x41 SWAP1 PUSH4 0x4E487B71 PUSH1 0xE0 SHL PUSH1 0x0 MSTORE MSTORE PUSH1 0x24 PUSH1 0x0 REVERT JUMPDEST ADD MLOAD SWAP1 POP CODESIZE DUP1 PUSH2 0x5BE1 JUMP JUMPDEST DUP11 SWAP3 SWAP2 PUSH1 0x1F NOT DUP4 AND SWAP2 DUP6 PUSH1 0x0 MSTORE DUP8 PUSH1 0x0 KECCAK256 SWAP3 PUSH1 0x0 JUMPDEST DUP10 DUP3 DUP3 LT PUSH2 0x5D29 JUMPI POP POP SWAP2 PUSH1 0xE0 SWAP8 SWAP6 SWAP4 SWAP2 DUP6 PUSH1 0xD SWAP9 SWAP7 SWAP5 LT PUSH2 0x5D11 JUMPI JUMPDEST POP POP POP DUP2 SHL ADD SWAP1 SSTORE PUSH2 0x5BF3 JUMP JUMPDEST ADD MLOAD PUSH1 0x0 NOT DUP4 DUP14 SHL PUSH1 0xF8 AND SHR NOT AND SWAP1 SSTORE CODESIZE DUP1 DUP1 PUSH2 0x5D04 JUMP JUMPDEST DUP4 DUP6 ADD MLOAD DUP7 SSTORE DUP16 SWAP8 SWAP1 SWAP6 ADD SWAP5 SWAP4 DUP5 ADD SWAP4 ADD PUSH2 0x5CE7 JUMP JUMPDEST PUSH1 0x41 DUP7 PUSH4 0x4E487B71 PUSH1 0xE0 SHL PUSH1 0x0 MSTORE MSTORE PUSH1 0x24 PUSH1 0x0 REVERT JUMPDEST ADD MLOAD SWAP1 POP CODESIZE DUP1 PUSH2 0x5B8A JUMP JUMPDEST SWAP1 DUP12 SWAP4 POP PUSH1 0x1F NOT DUP4 AND SWAP2 DUP6 PUSH1 0x0 MSTORE DUP8 PUSH1 0x0 KECCAK256 SWAP3 PUSH1 0x0 JUMPDEST DUP10 DUP3 DUP3 LT PUSH2 0x5DAB JUMPI POP POP DUP5 GT PUSH2 0x5D93 JUMPI JUMPDEST POP POP POP DUP2 SHL ADD SWAP1 SSTORE PUSH2 0x5B9C JUMP JUMPDEST ADD MLOAD PUSH1 0x0 NOT DUP4 DUP12 SHL PUSH1 0xF8 AND SHR NOT AND SWAP1 SSTORE CODESIZE DUP1 DUP1 PUSH2 0x5D86 JUMP JUMPDEST DUP4 DUP6 ADD MLOAD DUP7 SSTORE DUP16 SWAP8 SWAP1 SWAP6 ADD SWAP5 SWAP4 DUP5 ADD SWAP4 ADD PUSH2 0x5D75 JUMP JUMPDEST ADD MLOAD SWAP1 POP CODESIZE DUP1 PUSH2 0x5B41 JUMP JUMPDEST SWAP1 DUP12 SWAP4 POP PUSH1 0x1F NOT DUP4 AND SWAP2 DUP6 PUSH1 0x0 MSTORE DUP8 PUSH1 0x0 KECCAK256 SWAP3 PUSH1 0x0 JUMPDEST DUP10 DUP3 DUP3 LT PUSH2 0x5E18 JUMPI POP POP DUP5 GT PUSH2 0x5E00 JUMPI JUMPDEST POP POP POP DUP2 SHL ADD SWAP1 SSTORE PUSH2 0x5B53 JUMP JUMPDEST ADD MLOAD PUSH1 0x0 NOT DUP4 DUP12 SHL PUSH1 0xF8 AND SHR NOT AND SWAP1 SSTORE CODESIZE DUP1 DUP1 PUSH2 0x5DF3 JUMP JUMPDEST DUP4 DUP6 ADD MLOAD DUP7 SSTORE DUP16 SWAP8 SWAP1 SWAP6 ADD SWAP5 SWAP4 DUP5 ADD SWAP4 ADD PUSH2 0x5DE2 JUMP JUMPDEST ADD MLOAD SWAP1 POP CODESIZE DUP1 PUSH2 0x5AF8 JUMP JUMPDEST SWAP1 DUP12 SWAP4 POP PUSH1 0x1F NOT DUP4 AND SWAP2 DUP6 PUSH1 0x0 MSTORE DUP8 PUSH1 0x0 KECCAK256 SWAP3 PUSH1 0x0 JUMPDEST DUP10 DUP3 DUP3 LT PUSH2 0x5E85 JUMPI POP POP DUP5 GT PUSH2 0x5E6D JUMPI JUMPDEST POP POP POP DUP2 SHL ADD SWAP1 SSTORE PUSH2 0x5B0A JUMP JUMPDEST ADD MLOAD PUSH1 0x0 NOT DUP4 DUP12 SHL PUSH1 0xF8 AND SHR NOT AND SWAP1 SSTORE CODESIZE DUP1 DUP1 PUSH2 0x5E60 JUMP JUMPDEST DUP4 DUP6 ADD MLOAD DUP7 SSTORE DUP16 SWAP8 SWAP1 SWAP6 ADD SWAP5 SWAP4 DUP5 ADD SWAP4 ADD PUSH2 0x5E4F JUMP JUMPDEST ADD MLOAD SWAP1 POP CODESIZE DUP1 PUSH2 0x5AAF JUMP JUMPDEST SWAP1 DUP12 SWAP4 POP PUSH1 0x1F NOT DUP4 AND SWAP2 DUP6 PUSH1 0x0 MSTORE DUP8 PUSH1 0x0 KECCAK256 SWAP3 PUSH1 0x0 JUMPDEST DUP10 DUP3 DUP3 LT PUSH2 0x5EF2 JUMPI POP POP DUP5 GT PUSH2 0x5EDA JUMPI JUMPDEST POP POP POP DUP2 SHL ADD SWAP1 SSTORE PUSH2 0x5AC1 JUMP JUMPDEST ADD MLOAD PUSH1 0x0 NOT DUP4 DUP12 SHL PUSH1 0xF8 AND SHR NOT AND SWAP1 SSTORE CODESIZE DUP1 DUP1 PUSH2 0x5ECD JUMP JUMPDEST DUP4 DUP6 ADD MLOAD DUP7 SSTORE DUP16 SWAP8 SWAP1 SWAP6 ADD SWAP5 SWAP4 DUP5 ADD SWAP4 ADD PUSH2 0x5EBC JUMP JUMPDEST ADD MLOAD SWAP1 POP CODESIZE DUP1 PUSH2 0x5A66 JUMP JUMPDEST SWAP1 DUP12 SWAP4 POP PUSH1 0x1F NOT DUP4 AND SWAP2 DUP6 PUSH1 0x0 MSTORE DUP8 PUSH1 0x0 KECCAK256 SWAP3 PUSH1 0x0 JUMPDEST DUP10 DUP3 DUP3 LT PUSH2 0x5F5F JUMPI POP POP DUP5 GT PUSH2 0x5F47 JUMPI JUMPDEST POP POP POP DUP2 SHL ADD SWAP1 SSTORE PUSH2 0x5A78 JUMP JUMPDEST ADD MLOAD PUSH1 0x0 NOT DUP4 DUP12 SHL PUSH1 0xF8 AND SHR NOT AND SWAP1 SSTORE CODESIZE DUP1 DUP1 PUSH2 0x5F3A JUMP JUMPDEST DUP4 DUP6 ADD MLOAD DUP7 SSTORE DUP16 SWAP8 SWAP1 SWAP6 ADD SWAP5 SWAP4 DUP5 ADD SWAP4 ADD PUSH2 0x5F29 JUMP JUMPDEST ADD MLOAD SWAP1 POP CODESIZE DUP1 PUSH2 0x5A1E JUMP JUMPDEST SWAP1 DUP12 SWAP4 POP PUSH1 0x1F NOT DUP4 AND SWAP2 DUP6 PUSH1 0x0 MSTORE DUP8 PUSH1 0x0 KECCAK256 SWAP3 PUSH1 0x0 JUMPDEST DUP10 DUP3 DUP3 LT PUSH2 0x5FCC JUMPI POP POP DUP5 GT PUSH2 0x5FB4 JUMPI JUMPDEST POP POP POP DUP2 SHL ADD SWAP1 SSTORE PUSH2 0x5A30 JUMP JUMPDEST ADD MLOAD PUSH1 0x0 NOT DUP4 DUP12 SHL PUSH1 0xF8 AND SHR NOT AND SWAP1 SSTORE CODESIZE DUP1 DUP1 PUSH2 0x5FA7 JUMP JUMPDEST DUP4 DUP6 ADD MLOAD DUP7 SSTORE DUP16 SWAP8 SWAP1 SWAP6 ADD SWAP5 SWAP4 DUP5 ADD SWAP4 ADD PUSH2 0x5F96 JUMP JUMPDEST PUSH1 0x41 DUP6 PUSH4 0x4E487B71 PUSH1 0xE0 SHL PUSH1 0x0 MSTORE MSTORE PUSH1 0x24 PUSH1 0x0 REVERT JUMPDEST PUSH4 0x4E487B71 PUSH1 0xE0 SHL PUSH1 0x0 MSTORE PUSH1 0x0 PUSH1 0x4 MSTORE PUSH1 0x24 PUSH1 0x0 REVERT JUMPDEST PUSH1 0x1 PUSH1 0x1 PUSH1 0x40 SHL SUB DUP2 GT PUSH2 0x2354 JUMPI PUSH1 0x5 SHL PUSH1 0x20 ADD SWAP1 JUMP JUMPDEST ISZERO PUSH2 0x602B JUMPI JUMP JUMPDEST PUSH1 0x40 MLOAD PUSH3 0x461BCD PUSH1 0xE5 SHL DUP2 MSTORE PUSH1 0x20 PUSH1 0x4 DUP3 ADD MSTORE PUSH1 0x25 PUSH1 0x24 DUP3 ADD MSTORE PUSH32 0x4F6E6C792076657269666965642073656C6C6572206F72206F776E657220616C PUSH1 0x44 DUP3 ADD MSTORE PUSH5 0x1B1BDDD959 PUSH1 0xDA SHL PUSH1 0x64 DUP3 ADD MSTORE PUSH1 0x84 SWAP1 REVERT JUMPDEST PUSH1 0x0 NOT DUP2 EQ PUSH2 0x3C3C JUMPI PUSH1 0x1 ADD SWAP1 JUMP JUMPDEST PUSH1 0x1 PUSH1 0x1 PUSH1 0xA0 SHL SUB AND DUP1 ISZERO PUSH2 0x60EC JUMPI PUSH1 0x0 DUP1 DUP1 SWAP4 DUP2 SWAP4 GAS CALL PUSH2 0x60AD PUSH2 0x56E5 JUMP JUMPDEST POP ISZERO PUSH2 0x60B5 JUMPI JUMP JUMPDEST PUSH1 0x40 MLOAD PUSH3 0x461BCD PUSH1 0xE5 SHL DUP2 MSTORE PUSH1 0x20 PUSH1 0x4 DUP3 ADD MSTORE PUSH1 0xF PUSH1 0x24 DUP3 ADD MSTORE PUSH15 0x151C985B9CD9995C8819985A5B1959 PUSH1 0x8A SHL PUSH1 0x44 DUP3 ADD MSTORE PUSH1 0x64 SWAP1 REVERT JUMPDEST PUSH1 0x40 MLOAD PUSH3 0x461BCD PUSH1 0xE5 SHL DUP2 MSTORE PUSH1 0x20 PUSH1 0x4 DUP3 ADD MSTORE PUSH1 0xF PUSH1 0x24 DUP3 ADD MSTORE PUSH15 0x496E76616C69642061646472657373 PUSH1 0x88 SHL PUSH1 0x44 DUP3 ADD MSTORE PUSH1 0x64 SWAP1 REVERT JUMPDEST ISZERO PUSH2 0x612A JUMPI JUMP JUMPDEST PUSH1 0x40 MLOAD PUSH3 0x461BCD PUSH1 0xE5 SHL DUP2 MSTORE PUSH1 0x20 PUSH1 0x4 DUP3 ADD MSTORE PUSH1 0x14 PUSH1 0x24 DUP3 ADD MSTORE PUSH20 0x4E616D652063616E6E6F7420626520656D707479 PUSH1 0x60 SHL PUSH1 0x44 DUP3 ADD MSTORE PUSH1 0x64 SWAP1 REVERT JUMPDEST ISZERO PUSH2 0x616D JUMPI JUMP JUMPDEST PUSH1 0x40 MLOAD PUSH3 0x461BCD PUSH1 0xE5 SHL DUP2 MSTORE PUSH1 0x20 PUSH1 0x4 DUP3 ADD MSTORE PUSH1 0x1B PUSH1 0x24 DUP3 ADD MSTORE PUSH32 0x4465736372697074696F6E2063616E6E6F7420626520656D7074790000000000 PUSH1 0x44 DUP3 ADD MSTORE PUSH1 0x64 SWAP1 REVERT JUMPDEST ISZERO PUSH2 0x61B9 JUMPI JUMP JUMPDEST PUSH1 0x40 MLOAD PUSH3 0x461BCD PUSH1 0xE5 SHL DUP2 MSTORE PUSH1 0x20 PUSH1 0x4 DUP3 ADD MSTORE PUSH1 0x1C PUSH1 0x24 DUP3 ADD MSTORE PUSH32 0x5072696365206D7573742062652067726561746572207468616E203000000000 PUSH1 0x44 DUP3 ADD MSTORE PUSH1 0x64 SWAP1 REVERT JUMPDEST ISZERO PUSH2 0x6205 JUMPI JUMP JUMPDEST PUSH1 0x40 MLOAD PUSH3 0x461BCD PUSH1 0xE5 SHL DUP2 MSTORE PUSH1 0x20 PUSH1 0x4 DUP3 ADD MSTORE PUSH1 0x1C PUSH1 0x24 DUP3 ADD MSTORE PUSH32 0x53746F636B206D7573742062652067726561746572207468616E203000000000 PUSH1 0x44 DUP3 ADD MSTORE PUSH1 0x64 SWAP1 REVERT JUMPDEST ISZERO PUSH2 0x6251 JUMPI JUMP JUMPDEST PUSH1 0x40 MLOAD PUSH3 0x461BCD PUSH1 0xE5 SHL DUP2 MSTORE PUSH1 0x20 PUSH1 0x4 DUP3 ADD MSTORE PUSH1 0x15 PUSH1 0x24 DUP3 ADD MSTORE PUSH21 0x436F6C6F722063616E6E6F7420626520656D707479 PUSH1 0x58 SHL PUSH1 0x44 DUP3 ADD MSTORE PUSH1 0x64 SWAP1 REVERT JUMPDEST SWAP1 CALLDATALOAD SWAP1 PUSH1 0x1E NOT DUP2 CALLDATASIZE SUB ADD DUP3 SLT ISZERO PUSH2 0x4FB JUMPI ADD DUP1 CALLDATALOAD SWAP1 PUSH1 0x1 PUSH1 0x1 PUSH1 0x40 SHL SUB DUP3 GT PUSH2 0x4FB JUMPI PUSH1 0x20 ADD SWAP2 DUP2 PUSH1 0x5 SHL CALLDATASIZE SUB DUP4 SGT PUSH2 0x4FB JUMPI JUMP JUMPDEST ISZERO PUSH2 0x62CA JUMPI JUMP JUMPDEST PUSH1 0x40 MLOAD PUSH3 0x461BCD PUSH1 0xE5 SHL DUP2 MSTORE PUSH1 0x20 PUSH1 0x4 DUP3 ADD MSTORE PUSH1 0x16 PUSH1 0x24 DUP3 ADD MSTORE PUSH22 0x496D616765732063616E6E6F7420626520656D707479 PUSH1 0x50 SHL PUSH1 0x44 DUP3 ADD MSTORE PUSH1 0x64 SWAP1 REVERT JUMPDEST ISZERO PUSH2 0x630F JUMPI JUMP JUMPDEST PUSH1 0x40 MLOAD PUSH3 0x461BCD PUSH1 0xE5 SHL DUP2 MSTORE PUSH1 0x20 PUSH1 0x4 DUP3 ADD MSTORE PUSH1 0x1C PUSH1 0x24 DUP3 ADD MSTORE PUSH32 0x496D616765732063616E6E6F74206265206D6F7265207468616E203500000000 PUSH1 0x44 DUP3 ADD MSTORE PUSH1 0x64 SWAP1 REVERT JUMPDEST ISZERO PUSH2 0x635B JUMPI JUMP JUMPDEST PUSH1 0x40 MLOAD PUSH3 0x461BCD PUSH1 0xE5 SHL DUP2 MSTORE PUSH1 0x20 PUSH1 0x4 DUP3 ADD MSTORE PUSH1 0x14 PUSH1 0x24 DUP3 ADD MSTORE PUSH20 0x53697A652063616E6E6F7420626520656D707479 PUSH1 0x60 SHL PUSH1 0x44 DUP3 ADD MSTORE PUSH1 0x64 SWAP1 REVERT JUMPDEST ISZERO PUSH2 0x639E JUMPI JUMP JUMPDEST PUSH1 0x40 MLOAD PUSH3 0x461BCD PUSH1 0xE5 SHL DUP2 MSTORE PUSH1 0x20 PUSH1 0x4 DUP3 ADD MSTORE PUSH1 0x18 PUSH1 0x24 DUP3 ADD MSTORE PUSH32 0x43617465676F72792063616E6E6F7420626520656D7074790000000000000000 PUSH1 0x44 DUP3 ADD MSTORE PUSH1 0x64 SWAP1 REVERT JUMPDEST ISZERO PUSH2 0x63EA JUMPI JUMP JUMPDEST PUSH1 0x40 MLOAD PUSH3 0x461BCD PUSH1 0xE5 SHL DUP2 MSTORE PUSH1 0x20 PUSH1 0x4 DUP3 ADD MSTORE PUSH1 0x1C PUSH1 0x24 DUP3 ADD MSTORE PUSH32 0x5375622D63617465676F72792063616E6E6F7420626520656D70747900000000 PUSH1 0x44 DUP3 ADD MSTORE PUSH1 0x64 SWAP1 REVERT JUMPDEST ISZERO PUSH2 0x6436 JUMPI JUMP JUMPDEST PUSH1 0x40 MLOAD PUSH3 0x461BCD PUSH1 0xE5 SHL DUP2 MSTORE PUSH1 0x20 PUSH1 0x4 DUP3 ADD MSTORE PUSH1 0x15 PUSH1 0x24 DUP3 ADD MSTORE PUSH21 0x4D6F64656C2063616E6E6F7420626520656D707479 PUSH1 0x58 SHL PUSH1 0x44 DUP3 ADD MSTORE PUSH1 0x64 SWAP1 REVERT JUMPDEST ISZERO PUSH2 0x647A JUMPI JUMP JUMPDEST PUSH1 0x40 MLOAD PUSH3 0x461BCD PUSH1 0xE5 SHL DUP2 MSTORE PUSH1 0x20 PUSH1 0x4 DUP3 ADD MSTORE PUSH1 0x15 PUSH1 0x24 DUP3 ADD MSTORE PUSH21 0x4272616E642063616E6E6F7420626520656D707479 PUSH1 0x58 SHL PUSH1 0x44 DUP3 ADD MSTORE PUSH1 0x64 SWAP1 REVERT JUMPDEST ISZERO PUSH2 0x64BE JUMPI JUMP JUMPDEST PUSH1 0x40 MLOAD PUSH3 0x461BCD PUSH1 0xE5 SHL DUP2 MSTORE PUSH1 0x20 PUSH1 0x4 DUP3 ADD MSTORE PUSH1 0x1D PUSH1 0x24 DUP3 ADD MSTORE PUSH32 0x576569676874206D7573742062652067726561746572207468616E2030000000 PUSH1 0x44 DUP3 ADD MSTORE PUSH1 0x64 SWAP1 REVERT JUMPDEST ISZERO PUSH2 0x650A JUMPI JUMP JUMPDEST PUSH1 0x40 MLOAD PUSH3 0x461BCD PUSH1 0xE5 SHL DUP2 MSTORE PUSH1 0x20 PUSH1 0x4 DUP3 ADD MSTORE PUSH1 0x1A PUSH1 0x24 DUP3 ADD MSTORE PUSH32 0x534B55206D7573742062652067726561746572207468616E2030000000000000 PUSH1 0x44 DUP3 ADD MSTORE PUSH1 0x64 SWAP1 REVERT JUMPDEST PUSH1 0x40 MLOAD SWAP1 PUSH2 0x655C DUP3 PUSH2 0x4E5A JUMP JUMPDEST DUP2 PUSH2 0x240 PUSH1 0x0 SWAP2 DUP3 DUP2 MSTORE DUP3 PUSH1 0x20 DUP3 ADD MSTORE PUSH1 0x60 SWAP3 DUP4 PUSH1 0x40 DUP4 ADD MSTORE DUP4 DUP1 DUP4 ADD MSTORE DUP1 PUSH1 0x80 DUP4 ADD MSTORE DUP1 PUSH1 0xA0 DUP4 ADD MSTORE DUP4 PUSH1 0xC0 DUP4 ADD MSTORE DUP4 PUSH1 0xE0 DUP4 ADD MSTORE DUP4 PUSH2 0x100 DUP4 ADD MSTORE DUP4 PUSH2 0x120 DUP4 ADD MSTORE DUP4 PUSH2 0x140 DUP4 ADD MSTORE DUP1 PUSH2 0x160 DUP4 ADD MSTORE DUP4 PUSH2 0x180 DUP4 ADD MSTORE DUP4 PUSH2 0x1A0 DUP4 ADD MSTORE DUP1 PUSH2 0x1C0 DUP4 ADD MSTORE DUP1 PUSH2 0x1E0 DUP4 ADD MSTORE DUP1 PUSH2 0x200 DUP4 ADD MSTORE PUSH2 0x220 DUP3 ADD MSTORE ADD MSTORE JUMP JUMPDEST PUSH2 0x65E5 DUP2 SLOAD PUSH2 0x5104 JUMP JUMPDEST SWAP1 DUP2 PUSH2 0x65EF JUMPI POP POP JUMP JUMPDEST DUP2 PUSH1 0x1F PUSH1 0x0 SWAP4 GT PUSH1 0x1 EQ PUSH2 0x6601 JUMPI POP SSTORE JUMP JUMPDEST SWAP1 DUP1 DUP4 SWAP2 DUP3 MSTORE PUSH2 0x6620 PUSH1 0x1F PUSH1 0x20 DUP5 KECCAK256 SWAP5 ADD PUSH1 0x5 SHR DUP5 ADD PUSH1 0x1 DUP6 ADD PUSH2 0x58D9 JUMP JUMPDEST SSTORE SSTORE JUMP JUMPDEST SWAP1 PUSH1 0x1 PUSH1 0x40 SHL DUP2 GT PUSH2 0x2354 JUMPI DUP2 SLOAD SWAP2 DUP2 DUP2 SSTORE DUP3 DUP3 LT PUSH2 0x6642 JUMPI POP POP POP JUMP JUMPDEST PUSH1 0x0 MSTORE PUSH1 0x20 PUSH1 0x0 KECCAK256 SWAP2 DUP3 ADD SWAP2 ADD JUMPDEST DUP2 DUP2 LT PUSH2 0x665B JUMPI POP POP JUMP JUMPDEST DUP1 PUSH2 0x6667 PUSH1 0x1 SWAP3 PUSH2 0x65DB JUMP JUMPDEST ADD PUSH2 0x6650 JUMP JUMPDEST DUP2 MLOAD DUP2 SSTORE PUSH1 0x1 SWAP2 DUP3 DUP3 ADD PUSH1 0x20 SWAP1 PUSH1 0x1 DUP1 PUSH1 0xA0 SHL SUB DUP3 DUP5 ADD MLOAD AND PUSH1 0x1 PUSH1 0x1 PUSH1 0x60 SHL SUB PUSH1 0xA0 SHL DUP3 SLOAD AND OR SWAP1 SSTORE PUSH1 0x40 DUP3 ADD MLOAD PUSH1 0x2 DUP5 ADD SSTORE PUSH1 0x3 DUP4 ADD SWAP1 PUSH1 0x60 DUP4 ADD MLOAD SWAP5 DUP6 MLOAD SWAP2 PUSH1 0x1 PUSH1 0x1 PUSH1 0x40 SHL SUB DUP4 GT PUSH2 0x2354 JUMPI PUSH2 0x66CB DUP4 PUSH2 0x1919 DUP7 SLOAD PUSH2 0x5104 JUMP JUMPDEST DUP1 PUSH1 0x1F DUP5 GT PUSH1 0x1 EQ PUSH2 0x6723 JUMPI POP SWAP2 DUP1 DUP1 PUSH1 0x80 SWAP6 SWAP4 PUSH1 0x4 SWAP8 SWAP6 PUSH2 0x517C SWAP11 PUSH1 0x0 SWAP5 PUSH2 0x6718 JUMPI JUMPDEST POP POP SHL SWAP2 PUSH1 0x0 NOT SWAP1 PUSH1 0x3 SHL SHR NOT AND OR SWAP1 SSTORE JUMPDEST ADD MLOAD ISZERO ISZERO SWAP2 ADD SWAP1 PUSH1 0xFF DUP1 NOT DUP4 SLOAD AND SWAP2 ISZERO ISZERO AND OR SWAP1 SSTORE JUMP JUMPDEST ADD MLOAD SWAP3 POP CODESIZE DUP1 PUSH2 0x66EF JUMP JUMPDEST SWAP2 SWAP4 SWAP5 SWAP6 SWAP7 PUSH1 0x1F NOT DUP5 AND DUP7 PUSH1 0x0 MSTORE DUP4 PUSH1 0x0 KECCAK256 SWAP4 PUSH1 0x0 SWAP1 JUMPDEST DUP3 DUP3 LT PUSH2 0x6780 JUMPI POP POP SWAP3 PUSH1 0x80 SWAP6 SWAP3 DUP6 SWAP3 PUSH2 0x517C SWAP11 SWAP10 SWAP7 PUSH1 0x4 SWAP10 SWAP7 LT PUSH2 0x6767 JUMPI JUMPDEST POP POP POP DUP2 SHL ADD SWAP1 SSTORE PUSH2 0x6701 JUMP JUMPDEST ADD MLOAD PUSH1 0x0 NOT PUSH1 0xF8 DUP5 PUSH1 0x3 SHL AND SHR NOT AND SWAP1 SSTORE CODESIZE DUP1 DUP1 PUSH2 0x675A JUMP JUMPDEST DUP1 DUP9 DUP7 SWAP8 DUP3 SWAP5 SWAP8 DUP8 ADD MLOAD DUP2 SSTORE ADD SWAP7 ADD SWAP5 ADD SWAP1 PUSH2 0x673A JUMP JUMPDEST ISZERO PUSH2 0x679E JUMPI JUMP JUMPDEST PUSH1 0x40 MLOAD PUSH3 0x461BCD PUSH1 0xE5 SHL DUP2 MSTORE PUSH1 0x20 PUSH1 0x4 DUP3 ADD MSTORE PUSH1 0x1C PUSH1 0x24 DUP3 ADD MSTORE PUSH32 0x4552433732313A20746F6B656E20616C7265616479206D696E74656400000000 PUSH1 0x44 DUP3 ADD MSTORE PUSH1 0x64 SWAP1 REVERT JUMPDEST SWAP1 PUSH1 0x40 MLOAD PUSH2 0x67F0 DUP2 PUSH2 0x4E92 JUMP JUMPDEST PUSH1 0x80 PUSH1 0xFF PUSH1 0x4 DUP4 SWAP6 DUP1 SLOAD DUP6 MSTORE PUSH1 0x1 DUP1 PUSH1 0xA0 SHL SUB PUSH1 0x1 DUP3 ADD SLOAD AND PUSH1 0x20 DUP7 ADD MSTORE PUSH1 0x2 DUP2 ADD SLOAD PUSH1 0x40 DUP7 ADD MSTORE PUSH2 0x6824 PUSH1 0x3 DUP3 ADD PUSH2 0x513E JUMP JUMPDEST PUSH1 0x60 DUP7 ADD MSTORE ADD SLOAD AND ISZERO ISZERO SWAP2 ADD MSTORE JUMP JUMPDEST SWAP1 PUSH2 0x683D DUP3 PUSH2 0x600D JUMP JUMPDEST PUSH2 0x684A PUSH1 0x40 MLOAD SWAP2 DUP3 PUSH2 0x4EC8 JUMP JUMPDEST DUP3 DUP2 MSTORE DUP1 SWAP3 PUSH2 0x685B PUSH1 0x1F NOT SWAP2 PUSH2 0x600D JUMP JUMPDEST ADD SWAP1 PUSH1 0x0 JUMPDEST DUP3 DUP2 LT PUSH2 0x686C JUMPI POP POP POP JUMP JUMPDEST PUSH1 0x20 SWAP1 PUSH2 0x6877 PUSH2 0x654F JUMP JUMPDEST DUP3 DUP3 DUP6 ADD ADD MSTORE ADD PUSH2 0x6860 JUMP JUMPDEST DUP1 MLOAD DUP3 LT ISZERO PUSH2 0x5200 JUMPI PUSH1 0x20 SWAP2 PUSH1 0x5 SHL ADD ADD SWAP1 JUMP JUMPDEST PUSH1 0x40 MLOAD SWAP1 PUSH2 0x68A4 DUP3 PUSH2 0x4E92 JUMP JUMPDEST PUSH1 0x0 PUSH1 0x80 DUP4 DUP3 DUP2 MSTORE DUP3 PUSH1 0x20 DUP3 ADD MSTORE DUP3 PUSH1 0x40 DUP3 ADD MSTORE PUSH1 0x60 DUP1 DUP3 ADD MSTORE ADD MSTORE JUMP JUMPDEST DUP1 SLOAD DUP3 LT ISZERO PUSH2 0x5200 JUMPI PUSH1 0x0 MSTORE PUSH1 0x5 PUSH1 0x20 PUSH1 0x0 KECCAK256 SWAP2 MUL ADD SWAP1 PUSH1 0x0 SWAP1 JUMP INVALID LOG2 PUSH5 0x6970667358 0x22 SLT KECCAK256 RETURN 0xDD PUSH15 0x5D0C2BF02215B1C964612447549C9B 0xB5 SMOD DUP16 EXTCODEHASH 0xB6 CALL MULMOD 0xDF 0x4E 0xDC 0xC5 0xD3 0xB3 SWAP14 PUSH5 0x736F6C6343 STOP ADDMOD SGT STOP CALLER "},"methodIdentifiers":{"adminImpersonating(address)":"b95a0628","approve(address,uint256)":"095ea7b3","balanceOf(address)":"70a08231","buyProduct(uint256,(string,string,string,string,string,string,string,string))":"661e1712","buyerPurchaseHistory(address,uint256)":"9fa44dbf","createProduct((string,string,uint256,uint256,string,string,string[],string,string,string,string,uint256,uint256))":"b235b4a9","createReview(uint256,uint256,string)":"16d81b38","deleteProduct(uint256)":"ed90c7b7","deleteReview(uint256,uint256)":"24d41a03","getAllProducts()":"02ee3a52","getApproved(uint256)":"081812fc","getBuyerPurchaseHistory(address)":"b27e1697","getMyProducts()":"fdca4ca3","getProduct(uint256)":"b9db15b4","getReviews(uint256)":"9d4a2255","getSellerBalance(address)":"2148893f","getSellerPurchaseHistory(address)":"3c2575d5","impersonateAccount(address)":"a22fb387","isApprovedForAll(address,address)":"e985e9c5","markPurchaseDelivered(uint256,address)":"11aa5b34","name()":"06fdde03","owner()":"8da5cb5b","ownerOf(uint256)":"6352211e","productExists(uint256)":"af55ed64","products(uint256)":"7acc0b20","registerSeller()":"52c9224c","registeredSellers(address)":"c64b8a8f","renounceOwnership()":"715018a6","reviewExists(uint256)":"00d64e76","safeTransferFrom(address,address,uint256)":"42842e0e","safeTransferFrom(address,address,uint256,bytes)":"b88d4fde","sellerBalances(address)":"607eb4e4","sellerProducts(address,uint256)":"c1302b34","sellerPurchaseHistory(address,uint256)":"e585cb2c","sellerStatus(address)":"45de84db","servicePct()":"e01ef6e6","setApprovalForAll(address,bool)":"a22cb465","stopImpersonating()":"1385fd92","supportsInterface(bytes4)":"01ffc9a7","symbol()":"95d89b41","tokenURI(uint256)":"c87b56dd","transferFrom(address,address,uint256)":"23b872dd","transferOwnership(address)":"f2fde38b","updateProduct(uint256,(string,string,uint256,uint256,string,string,string[],string,string,string,string,uint256,uint256))":"b1191052","updateSellerStatus(address,uint8)":"97b6f393","withdraw()":"3ccfd60b"}}}}}