{"contracts/HemShopSeller.sol":{"HemShopSeller":{"abi":[{"inputs":[{"internalType":"uint256","name":"_pct","type":"uint256"}],"stateMutability":"nonpayable","type":"constructor"},{"anonymous":false,"inputs":[{"indexed":false,"internalType":"address","name":"admin","type":"address"},{"indexed":false,"internalType":"address","name":"impersonatedAccount","type":"address"}],"name":"AdminImpersonationChanged","type":"event"},{"anonymous":false,"inputs":[{"indexed":true,"internalType":"address","name":"owner","type":"address"},{"indexed":true,"internalType":"address","name":"approved","type":"address"},{"indexed":true,"internalType":"uint256","name":"tokenId","type":"uint256"}],"name":"Approval","type":"event"},{"anonymous":false,"inputs":[{"indexed":true,"internalType":"address","name":"owner","type":"address"},{"indexed":true,"internalType":"address","name":"operator","type":"address"},{"indexed":false,"internalType":"bool","name":"approved","type":"bool"}],"name":"ApprovalForAll","type":"event"},{"anonymous":false,"inputs":[{"indexed":true,"internalType":"address","name":"seller","type":"address"},{"indexed":false,"internalType":"uint256","name":"newBalance","type":"uint256"}],"name":"BalanceUpdated","type":"event"},{"anonymous":false,"inputs":[{"indexed":true,"internalType":"address","name":"previousOwner","type":"address"},{"indexed":true,"internalType":"address","name":"newOwner","type":"address"}],"name":"OwnershipTransferred","type":"event"},{"anonymous":false,"inputs":[{"indexed":true,"internalType":"address","name":"seller","type":"address"},{"indexed":false,"internalType":"uint256","name":"timestamp","type":"uint256"}],"name":"SellerRegistered","type":"event"},{"anonymous":false,"inputs":[{"indexed":true,"internalType":"address","name":"seller","type":"address"},{"indexed":false,"internalType":"enum HemShopBase.SellerStatus","name":"status","type":"uint8"}],"name":"SellerStatusUpdated","type":"event"},{"anonymous":false,"inputs":[{"indexed":true,"internalType":"address","name":"from","type":"address"},{"indexed":true,"internalType":"address","name":"to","type":"address"},{"indexed":true,"internalType":"uint256","name":"tokenId","type":"uint256"}],"name":"Transfer","type":"event"},{"inputs":[{"internalType":"address","name":"","type":"address"}],"name":"adminImpersonating","outputs":[{"internalType":"address","name":"","type":"address"}],"stateMutability":"view","type":"function"},{"inputs":[{"internalType":"address","name":"to","type":"address"},{"internalType":"uint256","name":"tokenId","type":"uint256"}],"name":"approve","outputs":[],"stateMutability":"nonpayable","type":"function"},{"inputs":[{"internalType":"address","name":"owner","type":"address"}],"name":"balanceOf","outputs":[{"internalType":"uint256","name":"","type":"uint256"}],"stateMutability":"view","type":"function"},{"inputs":[{"components":[{"internalType":"string","name":"name","type":"string"},{"internalType":"string","name":"description","type":"string"},{"internalType":"uint256","name":"price","type":"uint256"},{"internalType":"uint256","name":"stock","type":"uint256"},{"internalType":"string","name":"color","type":"string"},{"internalType":"string","name":"size","type":"string"},{"internalType":"string[]","name":"images","type":"string[]"},{"internalType":"string","name":"category","type":"string"},{"internalType":"string","name":"subCategory","type":"string"},{"internalType":"string","name":"model","type":"string"},{"internalType":"string","name":"brand","type":"string"},{"internalType":"uint256","name":"weight","type":"uint256"},{"internalType":"uint256","name":"sku","type":"uint256"}],"internalType":"struct HemShopProduct.ProductInput","name":"input","type":"tuple"}],"name":"createProduct","outputs":[],"stateMutability":"nonpayable","type":"function"},{"inputs":[{"internalType":"uint256","name":"productId","type":"uint256"},{"internalType":"uint256","name":"rating","type":"uint256"},{"internalType":"string","name":"comment","type":"string"}],"name":"createReview","outputs":[],"stateMutability":"nonpayable","type":"function"},{"inputs":[{"internalType":"uint256","name":"productId","type":"uint256"}],"name":"deleteProduct","outputs":[],"stateMutability":"nonpayable","type":"function"},{"inputs":[{"internalType":"uint256","name":"productId","type":"uint256"},{"internalType":"uint256","name":"reviewId","type":"uint256"}],"name":"deleteReview","outputs":[],"stateMutability":"nonpayable","type":"function"},{"inputs":[],"name":"getAllProducts","outputs":[{"components":[{"internalType":"uint256","name":"id","type":"uint256"},{"internalType":"address","name":"seller","type":"address"},{"internalType":"string","name":"name","type":"string"},{"internalType":"string","name":"description","type":"string"},{"internalType":"uint256","name":"price","type":"uint256"},{"internalType":"uint256","name":"stock","type":"uint256"},{"internalType":"string","name":"color","type":"string"},{"internalType":"string","name":"size","type":"string"},{"internalType":"string[]","name":"images","type":"string[]"},{"internalType":"string","name":"category","type":"string"},{"internalType":"string","name":"subCategory","type":"string"},{"internalType":"uint256","name":"weight","type":"uint256"},{"internalType":"string","name":"model","type":"string"},{"internalType":"string","name":"brand","type":"string"},{"internalType":"uint256","name":"sku","type":"uint256"},{"internalType":"bool","name":"soldout","type":"bool"},{"internalType":"bool","name":"wishlist","type":"bool"},{"internalType":"bool","name":"deleted","type":"bool"},{"components":[{"internalType":"uint256","name":"reviewId","type":"uint256"},{"internalType":"address","name":"reviewer","type":"address"},{"internalType":"uint256","name":"rating","type":"uint256"},{"internalType":"string","name":"comment","type":"string"},{"internalType":"bool","name":"deleted","type":"bool"}],"internalType":"struct HemShopBase.ReviewStruct[]","name":"reviews","type":"tuple[]"}],"internalType":"struct HemShopProduct.ProductStruct[]","name":"","type":"tuple[]"}],"stateMutability":"view","type":"function"},{"inputs":[{"internalType":"uint256","name":"tokenId","type":"uint256"}],"name":"getApproved","outputs":[{"internalType":"address","name":"","type":"address"}],"stateMutability":"view","type":"function"},{"inputs":[],"name":"getMyProducts","outputs":[{"components":[{"internalType":"uint256","name":"id","type":"uint256"},{"internalType":"address","name":"seller","type":"address"},{"internalType":"string","name":"name","type":"string"},{"internalType":"string","name":"description","type":"string"},{"internalType":"uint256","name":"price","type":"uint256"},{"internalType":"uint256","name":"stock","type":"uint256"},{"internalType":"string","name":"color","type":"string"},{"internalType":"string","name":"size","type":"string"},{"internalType":"string[]","name":"images","type":"string[]"},{"internalType":"string","name":"category","type":"string"},{"internalType":"string","name":"subCategory","type":"string"},{"internalType":"uint256","name":"weight","type":"uint256"},{"internalType":"string","name":"model","type":"string"},{"internalType":"string","name":"brand","type":"string"},{"internalType":"uint256","name":"sku","type":"uint256"},{"internalType":"bool","name":"soldout","type":"bool"},{"internalType":"bool","name":"wishlist","type":"bool"},{"internalType":"bool","name":"deleted","type":"bool"},{"components":[{"internalType":"uint256","name":"reviewId","type":"uint256"},{"internalType":"address","name":"reviewer","type":"address"},{"internalType":"uint256","name":"rating","type":"uint256"},{"internalType":"string","name":"comment","type":"string"},{"internalType":"bool","name":"deleted","type":"bool"}],"internalType":"struct HemShopBase.ReviewStruct[]","name":"reviews","type":"tuple[]"}],"internalType":"struct HemShopProduct.ProductStruct[]","name":"","type":"tuple[]"}],"stateMutability":"view","type":"function"},{"inputs":[{"internalType":"uint256","name":"productId","type":"uint256"}],"name":"getProduct","outputs":[{"components":[{"internalType":"uint256","name":"id","type":"uint256"},{"internalType":"address","name":"seller","type":"address"},{"internalType":"string","name":"name","type":"string"},{"internalType":"string","name":"description","type":"string"},{"internalType":"uint256","name":"price","type":"uint256"},{"internalType":"uint256","name":"stock","type":"uint256"},{"internalType":"string","name":"color","type":"string"},{"internalType":"string","name":"size","type":"string"},{"internalType":"string[]","name":"images","type":"string[]"},{"internalType":"string","name":"category","type":"string"},{"internalType":"string","name":"subCategory","type":"string"},{"internalType":"uint256","name":"weight","type":"uint256"},{"internalType":"string","name":"model","type":"string"},{"internalType":"string","name":"brand","type":"string"},{"internalType":"uint256","name":"sku","type":"uint256"},{"internalType":"bool","name":"soldout","type":"bool"},{"internalType":"bool","name":"wishlist","type":"bool"},{"internalType":"bool","name":"deleted","type":"bool"},{"components":[{"internalType":"uint256","name":"reviewId","type":"uint256"},{"internalType":"address","name":"reviewer","type":"address"},{"internalType":"uint256","name":"rating","type":"uint256"},{"internalType":"string","name":"comment","type":"string"},{"internalType":"bool","name":"deleted","type":"bool"}],"internalType":"struct HemShopBase.ReviewStruct[]","name":"reviews","type":"tuple[]"}],"internalType":"struct HemShopProduct.ProductStruct","name":"","type":"tuple"}],"stateMutability":"view","type":"function"},{"inputs":[{"internalType":"uint256","name":"productId","type":"uint256"}],"name":"getReviews","outputs":[{"components":[{"internalType":"uint256","name":"reviewId","type":"uint256"},{"internalType":"address","name":"reviewer","type":"address"},{"internalType":"uint256","name":"rating","type":"uint256"},{"internalType":"string","name":"comment","type":"string"},{"internalType":"bool","name":"deleted","type":"bool"}],"internalType":"struct HemShopBase.ReviewStruct[]","name":"","type":"tuple[]"}],"stateMutability":"view","type":"function"},{"inputs":[{"internalType":"address","name":"seller","type":"address"}],"name":"getSellerBalance","outputs":[{"internalType":"uint256","name":"","type":"uint256"}],"stateMutability":"view","type":"function"},{"inputs":[{"internalType":"address","name":"account","type":"address"}],"name":"impersonateAccount","outputs":[],"stateMutability":"nonpayable","type":"function"},{"inputs":[{"internalType":"address","name":"owner","type":"address"},{"internalType":"address","name":"operator","type":"address"}],"name":"isApprovedForAll","outputs":[{"internalType":"bool","name":"","type":"bool"}],"stateMutability":"view","type":"function"},{"inputs":[],"name":"name","outputs":[{"internalType":"string","name":"","type":"string"}],"stateMutability":"view","type":"function"},{"inputs":[],"name":"owner","outputs":[{"internalType":"address","name":"","type":"address"}],"stateMutability":"view","type":"function"},{"inputs":[{"internalType":"uint256","name":"tokenId","type":"uint256"}],"name":"ownerOf","outputs":[{"internalType":"address","name":"","type":"address"}],"stateMutability":"view","type":"function"},{"inputs":[{"internalType":"uint256","name":"","type":"uint256"}],"name":"productExists","outputs":[{"internalType":"bool","name":"","type":"bool"}],"stateMutability":"view","type":"function"},{"inputs":[{"internalType":"uint256","name":"","type":"uint256"}],"name":"products","outputs":[{"internalType":"uint256","name":"id","type":"uint256"},{"internalType":"address","name":"seller","type":"address"},{"internalType":"string","name":"name","type":"string"},{"internalType":"string","name":"description","type":"string"},{"internalType":"uint256","name":"price","type":"uint256"},{"internalType":"uint256","name":"stock","type":"uint256"},{"internalType":"string","name":"color","type":"string"},{"internalType":"string","name":"size","type":"string"},{"internalType":"string","name":"category","type":"string"},{"internalType":"string","name":"subCategory","type":"string"},{"internalType":"uint256","name":"weight","type":"uint256"},{"internalType":"string","name":"model","type":"string"},{"internalType":"string","name":"brand","type":"string"},{"internalType":"uint256","name":"sku","type":"uint256"},{"internalType":"bool","name":"soldout","type":"bool"},{"internalType":"bool","name":"wishlist","type":"bool"},{"internalType":"bool","name":"deleted","type":"bool"}],"stateMutability":"view","type":"function"},{"inputs":[],"name":"registerSeller","outputs":[],"stateMutability":"nonpayable","type":"function"},{"inputs":[{"internalType":"address","name":"","type":"address"}],"name":"registeredSellers","outputs":[{"internalType":"bool","name":"","type":"bool"}],"stateMutability":"view","type":"function"},{"inputs":[],"name":"renounceOwnership","outputs":[],"stateMutability":"nonpayable","type":"function"},{"inputs":[{"internalType":"uint256","name":"","type":"uint256"}],"name":"reviewExists","outputs":[{"internalType":"bool","name":"","type":"bool"}],"stateMutability":"view","type":"function"},{"inputs":[{"internalType":"address","name":"from","type":"address"},{"internalType":"address","name":"to","type":"address"},{"internalType":"uint256","name":"tokenId","type":"uint256"}],"name":"safeTransferFrom","outputs":[],"stateMutability":"nonpayable","type":"function"},{"inputs":[{"internalType":"address","name":"from","type":"address"},{"internalType":"address","name":"to","type":"address"},{"internalType":"uint256","name":"tokenId","type":"uint256"},{"internalType":"bytes","name":"data","type":"bytes"}],"name":"safeTransferFrom","outputs":[],"stateMutability":"nonpayable","type":"function"},{"inputs":[{"internalType":"address","name":"","type":"address"}],"name":"sellerBalances","outputs":[{"internalType":"uint256","name":"","type":"uint256"}],"stateMutability":"view","type":"function"},{"inputs":[{"internalType":"address","name":"","type":"address"},{"internalType":"uint256","name":"","type":"uint256"}],"name":"sellerProducts","outputs":[{"internalType":"uint256","name":"","type":"uint256"}],"stateMutability":"view","type":"function"},{"inputs":[{"internalType":"address","name":"","type":"address"}],"name":"sellerStatus","outputs":[{"internalType":"enum HemShopBase.SellerStatus","name":"","type":"uint8"}],"stateMutability":"view","type":"function"},{"inputs":[],"name":"servicePct","outputs":[{"internalType":"uint256","name":"","type":"uint256"}],"stateMutability":"view","type":"function"},{"inputs":[{"internalType":"address","name":"operator","type":"address"},{"internalType":"bool","name":"approved","type":"bool"}],"name":"setApprovalForAll","outputs":[],"stateMutability":"nonpayable","type":"function"},{"inputs":[],"name":"stopImpersonating","outputs":[],"stateMutability":"nonpayable","type":"function"},{"inputs":[{"internalType":"bytes4","name":"interfaceId","type":"bytes4"}],"name":"supportsInterface","outputs":[{"internalType":"bool","name":"","type":"bool"}],"stateMutability":"view","type":"function"},{"inputs":[],"name":"symbol","outputs":[{"internalType":"string","name":"","type":"string"}],"stateMutability":"view","type":"function"},{"inputs":[{"internalType":"uint256","name":"tokenId","type":"uint256"}],"name":"tokenURI","outputs":[{"internalType":"string","name":"","type":"string"}],"stateMutability":"view","type":"function"},{"inputs":[{"internalType":"address","name":"from","type":"address"},{"internalType":"address","name":"to","type":"address"},{"internalType":"uint256","name":"tokenId","type":"uint256"}],"name":"transferFrom","outputs":[],"stateMutability":"nonpayable","type":"function"},{"inputs":[{"internalType":"address","name":"newOwner","type":"address"}],"name":"transferOwnership","outputs":[],"stateMutability":"nonpayable","type":"function"},{"inputs":[{"internalType":"uint256","name":"productId","type":"uint256"},{"components":[{"internalType":"string","name":"name","type":"string"},{"internalType":"string","name":"description","type":"string"},{"internalType":"uint256","name":"price","type":"uint256"},{"internalType":"uint256","name":"stock","type":"uint256"},{"internalType":"string","name":"color","type":"string"},{"internalType":"string","name":"size","type":"string"},{"internalType":"string[]","name":"images","type":"string[]"},{"internalType":"string","name":"category","type":"string"},{"internalType":"string","name":"subCategory","type":"string"},{"internalType":"string","name":"model","type":"string"},{"internalType":"string","name":"brand","type":"string"},{"internalType":"uint256","name":"weight","type":"uint256"},{"internalType":"uint256","name":"sku","type":"uint256"}],"internalType":"struct HemShopProduct.ProductInput","name":"input","type":"tuple"}],"name":"updateProduct","outputs":[],"stateMutability":"nonpayable","type":"function"},{"inputs":[{"internalType":"address","name":"seller","type":"address"},{"internalType":"enum HemShopBase.SellerStatus","name":"status","type":"uint8"}],"name":"updateSellerStatus","outputs":[],"stateMutability":"nonpayable","type":"function"},{"inputs":[],"name":"withdraw","outputs":[],"stateMutability":"nonpayable","type":"function"}],"evm":{"bytecode":{"linkReferences":{},"object":"6080346200037757601f90601f196001600160401b036200549a3881900385810184168501838111868210176200037c57859282916040528339602094859181010312620003775751936200005362000392565b926007845266048656d53686f760cc1b858501526200007162000392565b60038082526204873760ec1b8783015260008054336001600160a01b031982168117835592989394919392906001600160a01b03167f8be0079c531659141344cd1fd0a4f28419497f9722a3daafe3b4186f6b6457e08580a360019687805580519087821162000363576002548981811c9116801562000358575b858210146200034457908188849311620002f0575b5084908883116001146200028e57869262000282575b5050600019828b1b1c191690881b176002555b83519586116200026e5787548781811c9116801562000263575b838210146200024f5785811162000207575b5081948611600114620001a25750509183949184939462000196575b50501b9160001990841b1c19161790555b600b556040516150e79081620003b38239f35b01519250388062000172565b8783528183209493928692918316915b88838310620001ec5750505010620001d3575b505050811b01905562000183565b015160001983861b60f8161c19169055388080620001c5565b858701518855909601959485019487935090810190620001b2565b8884528284208680890160051c820192858a1062000245575b0160051c019088905b8281106200023957505062000156565b85815501889062000229565b9250819262000220565b634e487b7160e01b84526022600452602484fd5b90607f169062000144565b634e487b7160e01b83526041600452602483fd5b01519050388062000117565b90848b9416916002885286882092885b88828210620002d95750508411620002c0575b505050811b016002556200012a565b0151600019838d1b60f8161c19169055388080620002b1565b8385015186558e979095019493840193016200029e565b909150600286528486208880850160051c8201928786106200033a575b918c91869594930160051c01915b8281106200032b57505062000101565b8881558594508c91016200031b565b925081926200030d565b634e487b7160e01b86526022600452602486fd5b90607f1690620000ec565b634e487b7160e01b85526041600452602485fd5b600080fd5b634e487b7160e01b600052604160045260246000fd5b60408051919082016001600160401b038111838210176200037c5760405256fe608080604052600436101561001357600080fd5b60003560e01c908162d64e7614613c5a5750806301ffc9a714613bec57806302ee3a521461395557806306fdde03146138af578063081812fc14613891578063095ea7b3146137175780631385fd92146136ae57806316d81b38146134cb5780632148893f14612f9457806323b872dd146134a257806324d41a031461327d5780633ccfd60b146130f557806342842e0e146130cd57806345de84db1461308b57806352c9224c14612fce578063607eb4e414612f945780636352211e14612f6457806370a0823114612ecd578063715018a614612e745780637acc0b2014612cdc5780638da5cb5b14612cb357806395d89b4114612bd157806397b6f393146129d55780639d4a225514612842578063a22cb46514612767578063a22fb387146126a1578063af55ed6414612670578063b119105214611af5578063b235b4a914610bb4578063b88d4fde14610b53578063b95a062814610b18578063b9db15b4146108e2578063c1302b341461088a578063c64b8a8f1461084b578063c87b56dd146107db578063e01ef6e6146107bd578063e985e9c514610767578063ed90c7b714610582578063f2fde38b146104be5763fdca4ca3146101d657600080fd5b346104b95760003660031901126104b95760088054600060015b82811115610458575061020290614f70565b9060009260015b82811115610223576040518061021f8682613efe565b0390f35b6000818152600e6020818152604090922060018101546001600160a01b031692919033841480610446575b610265575b5050505061026090614f61565b610209565b6040989498519361027585613f8c565b8154855283850152610289600282016140ee565b604085015261029a600382016140ee565b6060850152600481015460808501526005918282015460a08601526102c1600683016140ee565b60c08601526102d2600783016140ee565b60e086015286820180546102e581614c10565b916102f36040519384613fde565b818352600090815286812090878085015b848310610428575050505050610100860152610322600983016140ee565b610120860152610334600a83016140ee565b610140860152600b820154610160860152610351600c83016140ee565b610180860152610363600d83016140ee565b6101a08601528101546101c0850152600f81015460ff80821615156101e087015281881c81161515610200870152601091821c16151561022086015201805491906103ad83614c10565b936103bb6040519586613fde565b8385526000918252808220918186015b85821061040c575050505050509181610260936102406104029401526103f18288614fc0565b526103fc8187614fc0565b50614f61565b9490388080610253565b848360019261041a87614f11565b8152019401910190926103cb565b6001918291610436866140ee565b8152019301910190918890610304565b5060ff600f82015460101c161561024e565b6000818152600e6020526040902060018101546001600160a01b0316331490816104a6575b50610491575b61048c90614f61565b6101f0565b9061049e61048c91614f61565b919050610483565b60ff9150600f015460101c16153861047d565b600080fd5b346104b95760203660031901126104b9576104d7613f60565b6104df6141c2565b6001600160a01b0390811690811561052e57600054826001600160601b0360a01b821617600055167f8be0079c531659141344cd1fd0a4f28419497f9722a3daafe3b4186f6b6457e0600080a3005b60405162461bcd60e51b815260206004820152602660248201527f4f776e61626c653a206e6577206f776e657220697320746865207a65726f206160448201526564647265737360d01b6064820152608490fd5b346104b9576020806003193601126104b957336000908152600d8252604090205460043591906001600160a01b03908116801561072b5780600052600c835260ff604060002054169060048210156107155760026105e99214908115610707575b506146cc565b82600052600f825261060260ff60406000205416614e8b565b82600052600e8252338160016040600020015416149081156106f9575b50156106a55781600052600e815260ff600f6040600020015460101c16610661576000918252600e905260409020600f01805462ff0000191662010000179055005b6064906040519062461bcd60e51b82526004820152601a60248201527f50726f6475637420697320616c72656164792064656c657465640000000000006044820152fd5b6084906040519062461bcd60e51b82526004820152602760248201527f4f6e6c792070726f647563742073656c6c6572206f72206f776e65722063616e6044820152662064656c65746560c81b6064820152fd5b60005416331490508361061f565b9050826000541614856105e3565b634e487b7160e01b600052602160045260246000fd5b50600c825260ff60406000205416600481101561071557600214801561075a575b610755906146cc565b6105e9565b506000548116331461074c565b346104b95760403660031901126104b957610780613f60565b610788613f76565b9060018060a01b03809116600052600760205260406000209116600052602052602060ff604060002054166040519015158152f35b346104b95760003660031901126104b9576020600b54604051908152f35b346104b95760203660031901126104b957610815610810600435600052600460205260018060a01b0360406000205416151590565b61421a565b600060405161082381613fc3565b5261021f60405161083381613fc3565b60008152604051918291602083526020830190613c87565b346104b95760203660031901126104b9576001600160a01b0361086c613f60565b166000526012602052602060ff604060002054166040519015158152f35b346104b95760403660031901126104b9576108a3613f60565b6001600160a01b03166000908152601060205260409020805460243591908210156104b9576020916108d491614194565b90546040519160031b1c8152f35b346104b9576020806003193601126104b9576004356108ff614b84565b5080600052600e825261092060ff600f6040600020015460101c1615614ed0565b80600052600f825261093960ff60406000205416614e8b565b600052600e81526040600020906040519161095383613f8c565b805483526001808201546001600160a01b031683850152610976600283016140ee565b6040850152610987600383016140ee565b6060850152600482015460808501526005918281015460a08601526109ae600682016140ee565b60c08601526109bf600782016140ee565b60e08601526008810180546109d381614c10565b916109e16040519384613fde565b818352600090815286812085888086015b858510610afb5750888b9260108989610100870152610a13600982016140ee565b610120870152610a25600a82016140ee565b610140870152600b810154610160870152610a42600c82016140ee565b610180870152610a54600d82016140ee565b6101a0870152600e8101546101c087015260ff600f82015481811615156101e0890152818160081c161515610200890152831c1615156102208701520191825490610a9e82614c10565b93610aac6040519586613fde565b8285526000908152858120868087015b858410610ade576102408a018890526040518281528061021f8185018d613d5e565b86918591610aeb85614f11565b8152019201920191908790610abc565b908291610b07856140ee565b8152019201920191908887916109f2565b346104b95760203660031901126104b95760206001600160a01b0380610b3c613f60565b16600052600d825260406000205416604051908152f35b346104b95760803660031901126104b957610b6c613f60565b610b74613f76565b606435916001600160401b0383116104b957366023840112156104b957610ba8610bb293369060248160040135910161401a565b9160443591614329565b005b346104b9576003196020368201126104b9576001600160401b03600435116104b9576101a090600435360301126104b957336000908152600d60205260409020546001600160a01b03168015611ab15780600052600c60205260ff60406000205416906004821015610715576002610c349214908115611a9c57506146cc565b610c4e610c45600480350180614726565b90501515614758565b6024610c6f610c668260043501600435600401614726565b9050151561479b565b610c806044600435013515156147e7565b610c91606460043501351515614833565b610cb1610ca8608460043501600435600401614726565b9050151561487f565b610cd1610cc860c4600435016004356004016148c3565b905015156148f8565b610cf26005610cea60c4600435016004356004016148c3565b90501061493d565b610d12610d0960a460043501600435600401614726565b90501515614989565b610d32610d2960e460043501600435600401614726565b905015156149cc565b610d53610d4a61010460043501600435600401614726565b90501515614a18565b610d74610d6b61012460043501600435600401614726565b90501515614a64565b610d95610d8c61014460043501600435600401614726565b90501515614aa8565b610da761016460043501351515614aec565b610db961018460043501351515614b38565b60016008540180600855610dcb614b84565b818152336020820152610dec610de5600480350180614726565b369161401a565b6040820152610e07610de58460043501600435600401614726565b60608201526044600435013560808201526064600435013560a0820152610e3b610de5608460043501600435600401614726565b60c0820152610e57610de560a460043501600435600401614726565b60e0820152610e7060c4600435016004356004016148c3565b90610e7a82614c10565b91610e886040519384613fde565b8083526020830191368260051b8201116104b95780925b8260051b82018410611a715750505050610100820152610ecc610de560e460043501600435600401614726565b610120820152610eea610de561010460043501600435600401614726565b610140820152610f08610de561012460043501600435600401614726565b610180820152610f26610de561014460043501600435600401614726565b6101a082015260043561016481013561016083015261018401356101c08201523315611a2d57600082815260046020526040902054610f71906001600160a01b031615155b15614e3f565b600082815260046020526040902054610f94906001600160a01b03161515610f6b565b3360005260056020526040600020600181540190558160005260046020526040600020336001600160601b0360a01b825416179055813360007fddf252ad1be2c89b69c2b068fc378daa952ba7f163c4a11628f55a4df523b3ef8180a4600e6020526040600020815181556001810160018060a01b036020840151166001600160601b0360a01b82541617905560408201518051906001600160401b0382116115345781906110538261104a60028701546140b4565b60028701614c3e565b602090601f83116001146119bb576000926119b0575b50508160011b916000199060031b1c19161760028201555b60608201518051906001600160401b0382116115345781906110b3826110aa60038701546140b4565b60038701614c3e565b602090601f831160011461193e57600092611933575b50508160011b916000199060031b1c19161760038201555b6080820151600482015560a0820151600582015560c08201518051906001600160401b0382116115345781906111278261111e60068701546140b4565b60068701614c3e565b602090601f83116001146118c1576000926118b6575b50508160011b916000199060031b1c19161760068201555b60e08201518051906001600160401b0382116115345781906111878261117e60078701546140b4565b60078701614c3e565b602090601f831160011461184457600092611839575b50508160011b916000199060031b1c19161760078201555b600881016101008301519060208251926111cf8484614ccc565b019060005260206000206000915b83831061174157505050506101208201518051906001600160401b03821161153457819061121b8261121260098701546140b4565b60098701614c3e565b602090601f83116001146116cf576000926116c4575b50508160011b916000199060031b1c19161760098201555b6101408201518051906001600160401b03821161153457819061127c82611273600a8701546140b4565b600a8701614c3e565b602090601f831160011461165257600092611647575b50508160011b916000199060031b1c191617600a8201555b610160820151600b8201556101808201518051906001600160401b0382116115345781906112e8826112df600c8701546140b4565b600c8701614c3e565b602090601f83116001146115d5576000926115ca575b50508160011b916000199060031b1c191617600c8201555b6101a08201518051906001600160401b038211611534576113478261133e600d8601546140b4565b600d8601614c3e565b602090601f83116001146115545791806102409492601094600092611549575b50508160011b916000199060031b1c191617600d8201555b6101c0840151600e820155600f81016113ab6101e08601511515829060ff801983541691151516179055565b6102008501511515815461ff0062ff00006102208901511515871b169260081b169062ffff001916171790550191015190815190600160401b928383116115345781548383558084106114a4575b506020019060005260206000206000915b838310611486575050505081600052600f6020526040600020600160ff198254161790553360005260106020526040600020805491821015611471579061145691600182018155614194565b819291549060031b91821b91600019901b1916179055600080f35b83634e487b7160e01b60005260416004526000fd5b60056020826114986001945186614d15565b0192019201919061140a565b8060050290600582040361151f578360050260058104850361150a5783600052602060002091820191015b8181106114dc57506113f9565b8060006005925560006001820155600060028201556114fd60038201614c83565b60006004820155016114cf565b87634e487b7160e01b60005260116004526000fd5b86634e487b7160e01b60005260116004526000fd5b85634e487b7160e01b60005260416004526000fd5b015190508880611367565b90600d840160005260206000209160005b601f19851681106115b2575092610240949260019260109583601f19811610611599575b505050811b01600d82015561137f565b015160001960f88460031b161c19169055888080611589565b91926020600181928685015181550194019201611565565b0151905086806112fe565b9250600c84016000526020600020906000935b601f198416851061162c576001945083601f19811610611613575b505050811b01600c820155611316565b015160001960f88460031b161c19169055868080611603565b818101518355602094850194600190930192909101906115e8565b015190508680611292565b9250600a84016000526020600020906000935b601f19841685106116a9576001945083601f19811610611690575b505050811b01600a8201556112aa565b015160001960f88460031b161c19169055868080611680565b81810151835560209485019460019093019290910190611665565b015190508680611231565b9250600984016000526020600020906000935b601f1984168510611726576001945083601f1981161061170d575b505050811b016009820155611249565b015160001960f88460031b161c191690558680806116fd565b818101518355602094850194600190930192909101906116e2565b80518051906001600160401b038211611824576117688261176286546140b4565b86614c3e565b602090601f83116001146117b45792826001949360209386956000926117a9575b5050600019600383901b1c191690841b1785555b019201920191906111dd565b015190508d80611789565b908460005260206000209160005b601f198516811061180c575083602093600196938796938794601f198116106117f3575b505050811b01855561179d565b015160001960f88460031b161c191690558d80806117e6565b919260206001819286850151815501940192016117c2565b89634e487b7160e01b60005260416004526000fd5b01519050868061119d565b9250600784016000526020600020906000935b601f198416851061189b576001945083601f19811610611882575b505050811b0160078201556111b5565b015160001960f88460031b161c19169055868080611872565b81810151835560209485019460019093019290910190611857565b01519050868061113d565b9250600684016000526020600020906000935b601f1984168510611918576001945083601f198116106118ff575b505050811b016006820155611155565b015160001960f88460031b161c191690558680806118ef565b818101518355602094850194600190930192909101906118d4565b0151905086806110c9565b9250600384016000526020600020906000935b601f1984168510611995576001945083601f1981161061197c575b505050811b0160038201556110e1565b015160001960f88460031b161c1916905586808061196c565b81810151835560209485019460019093019290910190611951565b015190508680611069565b9250600284016000526020600020906000935b601f1984168510611a12576001945083601f198116106119f9575b505050811b016002820155611081565b015160001960f88460031b161c191690558680806119e9565b818101518355602094850194600190930192909101906119ce565b60405162461bcd60e51b8152602060048201819052818501527f4552433732313a206d696e7420746f20746865207a65726f20616464726573736044820152606490fd5b6001600160401b038435116104b95760208091611a913687358601614051565b815201930192610e9f565b6000546001600160a01b0316149050826105e3565b50600c60205260ff604060002054166004811015610715576002148015611ae1575b611adc906146cc565b610c34565b506000546001600160a01b03163314611ad3565b346104b9576003196040368201126104b9576001600160401b03602435116104b9576101a090602435360301126104b957336000908152600d60205260409020546001600160a01b0390811680156126335780600052600c60205260ff60406000205416906004821015610715576002611b77921490811561262557506146cc565b600435600052600e602052339060016040600020015416036125cf57600435600052600f602052611baf60ff60406000205416614e8b565b600435600052600e602052611bd260ff600f6040600020015460101c1615614ed0565b611be4610c4560046024350180614726565b611bfa610c666024803501602435600401614726565b611c0b6044602435013515156147e7565b611c22610cc860c4602435016024356004016148c3565b611c3b6005610cea60c4602435016024356004016148c3565b611c4c606460243501351515614833565b611c63610ca8608460243501602435600401614726565b611c7a610d0960a460243501602435600401614726565b611c91610d2960e460243501602435600401614726565b611ca9610d4a61010460243501602435600401614726565b611cc1610d6b61012460243501602435600401614726565b611cd9610d8c61014460243501602435600401614726565b611ceb61016460243501351515614aec565b611cfd61018460243501351515614b38565b611d0c60046024350180614726565b600435600052600e6020526002604060002001906001600160401b03811161219d57611d4281611d3c84546140b4565b84614c3e565b600092601f8211600114612566579281929360009261255b575b50508160011b916000199060031b1c19161790555b611d846024803501602435600401614726565b600435600052600e6020526003604060002001906001600160401b03811161219d57611db481611d3c84546140b4565b600092601f82116001146124f257928192936000926124e7575b50508160011b916000199060031b1c19161790555b600435600052600e6020526040600020604460243501356004820155606460243501356005820155611e1f608460243501602435600401614726565b906001600160401b03821161219d57611e4882611e3f60068601546140b4565b60068601614c3e565b600090601f831160011461247757600692916000918361246c575b50508160011b916000199060031b1c1916179101555b611e8d60a460243501602435600401614726565b600435600052600e6020526007604060002001906001600160401b03811161219d57611ebd81611d3c84546140b4565b600092601f821160011461240357928192936000926123f8575b50508160011b916000199060031b1c19161790555b611f0060c4602435016024356004016148c3565b600435600052600e602052600860406000200191611f1e8284614ccc565b60009283526020832090805b83851061230f57611f4560e460243501602435600401614726565b600435600052600e6020526009604060002001906001600160401b03811161219d57611f7581611d3c84546140b4565b600092601f82116001146122a6579281929360009261229b575b50508160011b916000199060031b1c19161790555b611fb961010460243501602435600401614726565b600435600052600e602052600a604060002001906001600160401b03811161219d57611fe981611d3c84546140b4565b600092601f82116001146122325792819293600092612227575b50508160011b916000199060031b1c19161790555b61202d61012460243501602435600401614726565b600435600052600e602052600c604060002001906001600160401b03811161219d5761205d81611d3c84546140b4565b600092601f82116001146121be57928192936000926121b3575b50508160011b916000199060031b1c19161790555b6120a161014460243501602435600401614726565b600435600052600e602052600d604060002001906001600160401b03811161219d576120d181611d3c84546140b4565b6000601f82116001146121385781929360009261212d575b50508160011b916000199060031b1c19161790555b600435600052600e60205260406000206101646024350135600b820155600e6101846024350135910155600080f35b0135905083806120e9565b601f198216938360005260206000209160005b868110612185575083600195961061216b575b505050811b0190556120fe565b0135600019600384901b60f8161c1916905583808061215e565b9092602060018192868601358155019401910161214b565b634e487b7160e01b600052604160045260246000fd5b013590508380612077565b826000526020600020906000945b601f198416861061220f57600194955083601f198116106121f5575b505050811b01905561208c565b0135600019600384901b60f8161c191690558380806121e8565b916020600181928585013581550193019501946121cc565b013590508380612003565b826000526020600020906000945b601f198416861061228357600194955083601f19811610612269575b505050811b019055612018565b0135600019600384901b60f8161c1916905583808061225c565b91602060018192858501358155019301950194612240565b013590508380611f8f565b826000526020600020906000945b601f19841686106122f757600194955083601f198116106122dd575b505050811b019055611fa4565b0135600019600384901b60f8161c191690558380806122d0565b916020600181928585013581550193019501946122b4565b6123198183614726565b906001600160401b03821161219d5761233c8261233687546140b4565b87614c3e565b600090601f831160011461238857928260019493602093869560009261237d575b5050600019600383901b1c191690841b1786555b01930194019391611f2a565b013590508a8061235d565b8560005260206000209160005b601f19851681106123e0575083602093600196938796938794601f198116106123c6575b505050811b018655612371565b0135600019600384901b60f8161c191690558a80806123b9565b90926020600181928686013581550194019101612395565b013590508380611ed7565b826000526020600020906000945b601f198416861061245457600194955083601f1981161061243a575b505050811b019055611eec565b0135600019600384901b60f8161c1916905583808061242d565b91602060018192858501358155019301950194612411565b013590508480611e63565b6006840160005260206000209160005b601f19851681106124cf5750918391600193600695601f198116106124b5575b505050811b01910155611e79565b0135600019600384901b60f8161c191690558480806124a7565b90926020600181928686013581550194019101612487565b013590508380611dce565b826000526020600020906000945b601f198416861061254357600194955083601f19811610612529575b505050811b019055611de3565b0135600019600384901b60f8161c1916905583808061251c565b91602060018192858501358155019301950194612500565b013590508380611d5c565b826000526020600020906000945b601f19841686106125b757600194955083601f1981161061259d575b505050811b019055611d71565b0135600019600384901b60f8161c19169055838080612590565b91602060018192858501358155019301950194612574565b60405162461bcd60e51b815260206004820152602860248201527f4f6e6c79207468652073656c6c65722063616e20757064617465207468656972604482015267081c1c9bd91d58dd60c21b6064820152608490fd5b9050826000541614836105e3565b50600c60205260ff604060002054166004811015610715576002148015612663575b61265e906146cc565b611b77565b5060005481163314612655565b346104b95760203660031901126104b957600435600052600f602052602060ff604060002054166040519015158152f35b346104b95760203660031901126104b9576126ba613f60565b6126c26141c2565b6001600160a01b031680156127225760407f32b449308c94e824ccedd9877932cd82f89a481c06c4643a0cb2914454a8c5829133600052600d60205281600020816001600160601b0360a01b8254161790558151903382526020820152a1005b60405162461bcd60e51b815260206004820152601760248201527f496e76616c6964206163636f756e7420616464726573730000000000000000006044820152606490fd5b346104b95760403660031901126104b957612780613f60565b60243590811515908183036104b9576001600160a01b0316913383146127fd576127cf9033600052600760205260406000208460005260205260406000209060ff801983541691151516179055565b6040519081527f17307eab39ab6107e8899845ad3d59bd9653f200f220920489ca2b5937696c3160203392a3005b60405162461bcd60e51b815260206004820152601960248201527f4552433732313a20617070726f766520746f2063616c6c6572000000000000006044820152606490fd5b346104b9576020806003193601126104b95760043580600052600e9081835260ff600f604060002001549161287d82601094851c1615614ed0565b80600052600f85526128958260406000205416614e8b565b60009260005b826000528587528160406000200180548210156128ec5760046128bf838793614fff565b50015416156128d7575b6128d290614f61565b61289b565b936128e46128d291614f61565b9490506128c9565b505084866128f986614c10565b956129076040519788613fde565b808752612916601f1991614c10565b018160005b8281106129bf5750505060009360005b816000528383528460406000200180548210156129ac57600461294f838a93614fff565b5001541615612967575b61296290614f61565b61292b565b946129a4612962918360005285855261298f6129898989604060002001614fff565b50614f11565b612999828c614fc0565b526103fc818b614fc0565b959050612959565b6040518481528061021f8187018c613cc7565b6129c7614fd4565b82828b01015201829061291b565b346104b95760403660031901126104b9576129ee613f60565b60249081359060048210156104b957612a056141c2565b6001600160a01b0316918215612b9457826000526020906012825260ff6040600020541615612b595783600052600c825260ff604060002054166004811015612b0c578314612b215760028314612aa8575b507fd8f7bcb2c5cffc294a0aaef719685993d7be95273fb8254803a1563510ccefed91600c612aa3928560005252604060002060ff1981541660ff8316179055604051918291826140a1565b0390a2005b83600052600c825260ff604060002054166004811015612b0c57600114612a575790601f6064926040519262461bcd60e51b845260048401528201527f43616e206f6e6c79207665726966792070656e64696e672073656c6c657273006044820152fd5b50634e487b7160e01b60009081526021600452fd5b9060126064926040519262461bcd60e51b845260048401528201527114dd185d1d5cc8185b1c9958591e481cd95d60721b6044820152fd5b9060156064926040519262461bcd60e51b845260048401528201527414d95b1b195c881b9bdd081c9959da5cdd195c9959605a1b6044820152fd5b60649060166040519162461bcd60e51b83526020600484015282015275496e76616c69642073656c6c6572206164647265737360501b6044820152fd5b346104b95760003660031901126104b9576040516000600354612bf3816140b4565b80845290600190818116908115612c8c5750600114612c31575b61021f84612c1d81860382613fde565b604051918291602083526020830190613c87565b6003600090815292507fc2575a0e9e593c00f959f8c92f12db2869c3395a3b0502d05e2516446f71f85b5b828410612c74575050508101602001612c1d82612c0d565b80546020858701810191909152909301928101612c5c565b60ff191660208087019190915292151560051b85019092019250612c1d9150839050612c0d565b346104b95760003660031901126104b9576000546040516001600160a01b039091168152602090f35b346104b95760203660031901126104b9576004356000908152600e60205260409020805460018201546001600160a01b031691612d1b600282016140ee565b612d27600383016140ee565b6004830154600584015490612d3e600686016140ee565b612d4a600787016140ee565b612d56600988016140ee565b90612d63600a89016140ee565b92600b89015494600c8a01612d77906140ee565b96612d84600d8c016140ee565b98600e8c01549b600f01549a6040519e8f9e8f908152602001528d6102209081604082015201612db391613c87565b8d810360608f0152612dc491613c87565b9160808d015260a08c01528a810360c08c0152612de091613c87565b89810360e08b0152612df191613c87565b8881036101008a0152612e0391613c87565b878103610120890152612e1591613c87565b90610140870152858103610160870152612e2e91613c87565b848103610180860152612e4091613c87565b916101a084015260ff811615156101c08401528060081c60ff1615156101e084015260101c60ff1615156102008301520390f35b346104b95760003660031901126104b957612e8d6141c2565b600080546001600160a01b0319811682556001600160a01b03167f8be0079c531659141344cd1fd0a4f28419497f9722a3daafe3b4186f6b6457e08280a3005b346104b95760203660031901126104b9576001600160a01b03612eee613f60565b168015612f0d5760005260056020526020604060002054604051908152f35b60405162461bcd60e51b815260206004820152602960248201527f4552433732313a2061646472657373207a65726f206973206e6f7420612076616044820152683634b21037bbb732b960b91b6064820152608490fd5b346104b95760203660031901126104b9576020612f82600435614266565b6040516001600160a01b039091168152f35b346104b95760203660031901126104b9576001600160a01b03612fb5613f60565b1660005260136020526020604060002054604051908152f35b346104b95760003660031901126104b95733600052601260205260ff6040600020541661305157336000526012602052604060002060ff1990600182825416179055600c60205260016040600020918254161790556040514281527fa1a1a78ff3033d5ee8393372052aeb2a16bbb347a29f3780370e9506c109e37260203392a2005b60405162461bcd60e51b8152602060048201526012602482015271105b1c9958591e481c9959da5cdd195c995960721b6044820152606490fd5b346104b95760203660031901126104b9576001600160a01b036130ac613f60565b16600052600c60205261021f60ff60406000205416604051918291826140a1565b346104b957610bb26130de3661406c565b90604051926130ec84613fc3565b60008452614329565b346104b95760003660031901126104b957336000908152600d60209081526040909120546001600160a01b0390811680156132415780600052600c835260ff60406000205416906004821015610715576002613159921490811561323357506146cc565b336000526013825260406000205480156131f557600b5480820290828204036131df5760649004918282039182116131df576131b1926131ab913360005260138652600060408120556000541661501b565b3361501b565b7f8ad64a0ac7700dd8425ab0499f107cb6e2cd1581d803c5b8c1c79dcb8190b1af60405191600083523392a2005b634e487b7160e01b600052601160045260246000fd5b60405162461bcd60e51b81526004810184905260166024820152754e6f2062616c616e636520746f20776974686472617760501b6044820152606490fd5b9050826000541614846105e3565b50600c825260ff604060002054166004811015610715576002148015613270575b61326b906146cc565b613159565b5060005481163314613262565b346104b95760403660031901126104b957602480356004356000805b82600052600e602090808252601091826040600020018054851015613495576132c3858992614fff565b5054146132db575050506132d690614f61565b613299565b9193509193946000526011815260ff94856040600020541615613459578060005282825261330f8585604060002001614fff565b50600190810154909690336001600160a01b039182161490811561344b575b50156133f65781600052838352600461334d8787604060002001614fff565b500154166133b9579161336e93916004959360005252604060002001614fff565b5001805460ff1916821790555b1561338257005b60649060106040519162461bcd60e51b8352602060048401528201526f14995d9a595dc81b9bdd08199bdd5b9960821b6044820152fd5b60405162461bcd60e51b8152600481018390526016818901527514995d9a595dc8185b1c9958591e4819195b195d195960521b6044820152606490fd5b60405162461bcd60e51b8152600481018490526028818a01527f4f6e6c79207265766965776572206f72206f776e65722063616e2064656c6574604482015267652072657669657760c01b6064820152608490fd5b60005416331490508961332e565b60405162461bcd60e51b8152600481018390526015818901527414995d9a595dc8191bd95cc81b9bdd08195e1a5cdd605a1b6044820152606490fd5b505050505091505061337b565b346104b957610bb26134b33661406c565b916134c66134c184336143c4565b6142c7565b61448c565b346104b95760603660031901126104b957602480356004356044356001600160401b0381116104b957613502903690600401614051565b9080600052602091600e835260018060a01b0360016040600020015416331461365b5783151580613650575b1561360c578051156135c85790600e92916001600a54019081600a55613552614fd4565b95828752338588015260408701526060860152600052601182526040600020600160ff198254161790556000525260106040600020018054600160401b811015611471576135a591600182018155614fff565b6135b357610bb29250614d15565b82634e487b7160e01b60005260006004526000fd5b60405162461bcd60e51b8152600481018490526017818701527f436f6d6d656e742063616e6e6f7420626520656d7074790000000000000000006044820152606490fd5b60405162461bcd60e51b815260048101849052601e818701527f526174696e67206d757374206265206265747765656e203120616e64203500006044820152606490fd5b50600584111561352e565b60405162461bcd60e51b8152600481018490526026818701527f53656c6c65722063616e6e6f7420726576696577207468656972206f776e20706044820152651c9bd91d58dd60d21b6064820152608490fd5b346104b95760003660031901126104b9576136c76141c2565b33600052600d60205260406000206001600160601b0360a01b81541690557f32b449308c94e824ccedd9877932cd82f89a481c06c4643a0cb2914454a8c5826040805133815260006020820152a1005b346104b95760403660031901126104b957613730613f60565b602435906001600160a01b03808061374785614266565b169216918083146138425780331490811561381d575b50156137b257600083815260066020526040902080546001600160a01b0319168317905561378a83614266565b167f8c5be1e5ebec7d5bd14f71427d1e84f3dd0314c0f7b2291e5b200ac8c7c3b925600080a4005b60405162461bcd60e51b815260206004820152603d60248201527f4552433732313a20617070726f76652063616c6c6572206973206e6f7420746f60448201527f6b656e206f776e6572206f7220617070726f76656420666f7220616c6c0000006064820152608490fd5b9050600052600760205260406000203360005260205260ff604060002054168461375d565b60405162461bcd60e51b815260206004820152602160248201527f4552433732313a20617070726f76616c20746f2063757272656e74206f776e656044820152603960f91b6064820152608490fd5b346104b95760203660031901126104b9576020612f82600435614289565b346104b95760003660031901126104b95760405160006002546138d1816140b4565b80845290600190818116908115612c8c57506001146138fa5761021f84612c1d81860382613fde565b6002600090815292507f405787fa12a823e0f2b7631cc41b3ba8828b3321ca811111fa75cd3aa3bb5ace5b82841061393d575050508101602001612c1d82612c0d565b80546020858701810191909152909301928101613925565b346104b95760003660031901126104b957600854600060015b82811115613bab575061398090614f70565b90600160005b8282111561399c576040518061021f8682613efe565b81600052600e6020526040600020600f8101549060ff8260101c16156139cf575b5050906139c990614f61565b90613986565b604051916139dc83613f8c565b8154835260018201546001600160a01b031660208401526139ff600283016140ee565b6040840152613a10600383016140ee565b606084015260048201546080840152600582015460a0840152613a35600683016140ee565b60c0840152613a46600783016140ee565b60e0840152600882018054613a5a81614c10565b91613a686040519384613fde565b81835260208301906000526020600020906000905b838210613b8e57505050506010929160ff91610100860152613aa1600984016140ee565b610120860152613ab3600a84016140ee565b610140860152600b830154610160860152613ad0600c84016140ee565b610180860152613ae2600d84016140ee565b6101a0860152600e8301546101c086015281811615156101e0860152818160081c161515610200860152831c16151561022084015201805490613b2482614c10565b91613b326040519384613fde565b808352602083019160005260206000206000925b828410613b7057505050506102408201526139c991613b69916103f18288614fc0565b90856139bd565b60056020600192613b8085614f11565b815201920193019290613b46565b600160208192613b9d866140ee565b815201930191019091613a7d565b80600052600e60205260ff600f6040600020015460101c1615613bd7575b613bd290614f61565b61396e565b90613be4613bd291614f61565b919050613bc9565b346104b95760203660031901126104b95760043563ffffffff60e01b81168091036104b9576020906380ac58cd60e01b8114908115613c49575b8115613c38575b506040519015158152f35b6301ffc9a760e01b14905082613c2d565b635b5e139f60e01b81149150613c26565b346104b95760203660031901126104b9576020906004356000526011825260ff6040600020541615158152f35b919082519283825260005b848110613cb3575050826000602080949584010152601f8019910116010190565b602081830181015184830182015201613c92565b908082519081815260208091019281808460051b8301019501936000915b848310613cf55750505050505090565b9091929394958480600192601f1985820301865289519081518152848060a01b0383830151168382015260408083015190820152613d426060808401519060a08091850152830190613c87565b9160808091015115159101529801930193019194939290613ce5565b91908251815260209260018060a01b03848201511684830152613de3613dd1613dab613d996040850151610260806040890152870190613c87565b60608501518682036060880152613c87565b6080840151608086015260a084015160a086015260c084015185820360c0870152613c87565b60e083015184820360e0860152613c87565b6101009485830151958483039085015285518083528183019180808360051b8601019801926000905b838210613ece57505050505050613e85613e71613e52613e3e613ecb9697610120808701519088830390890152613c87565b610140808601519087830390880152613c87565b6101608085015190860152610180808501519086830390870152613c87565b6101a0808401519085830390860152613c87565b916101c080830151908201526101e08083015115159082015261020080830151151590820152610220808301511515908201526102408092015191818403910152613cc7565b90565b9091929394988380613eed6001938d601f199082030186528951613c87565b9b9701959493919091019101613e0c565b602080820190808352835180925260408301928160408460051b8301019501936000915b848310613f325750505050505090565b9091929394958480613f50600193603f198682030187528a51613d5e565b9801930193019194939290613f22565b600435906001600160a01b03821682036104b957565b602435906001600160a01b03821682036104b957565b61026081019081106001600160401b0382111761219d57604052565b60a081019081106001600160401b0382111761219d57604052565b602081019081106001600160401b0382111761219d57604052565b90601f801991011681019081106001600160401b0382111761219d57604052565b6001600160401b03811161219d57601f01601f191660200190565b92919261402682613fff565b916140346040519384613fde565b8294818452818301116104b9578281602093846000960137010152565b9080601f830112156104b957816020613ecb9335910161401a565b60609060031901126104b9576001600160a01b039060043582811681036104b9579160243590811681036104b9579060443590565b9190602083019260048210156107155752565b90600182811c921680156140e4575b60208310146140ce57565b634e487b7160e01b600052602260045260246000fd5b91607f16916140c3565b9060405191826000825492614102846140b4565b908184526001948581169081600014614171575060011461412e575b505061412c92500383613fde565b565b9093915060005260209081600020936000915b81831061415957505061412c9350820101388061411e565b85548884018501529485019487945091830191614141565b91505061412c94506020925060ff191682840152151560051b820101388061411e565b80548210156141ac5760005260206000200190600090565b634e487b7160e01b600052603260045260246000fd5b6000546001600160a01b031633036141d657565b606460405162461bcd60e51b815260206004820152602060248201527f4f776e61626c653a2063616c6c6572206973206e6f7420746865206f776e65726044820152fd5b1561422157565b60405162461bcd60e51b815260206004820152601860248201527f4552433732313a20696e76616c696420746f6b656e20494400000000000000006044820152606490fd5b6000908152600460205260409020546001600160a01b0316613ecb81151561421a565b6000818152600460205260409020546142ac906001600160a01b0316151561421a565b6000908152600660205260409020546001600160a01b031690565b156142ce57565b60405162461bcd60e51b815260206004820152602d60248201527f4552433732313a2063616c6c6572206973206e6f7420746f6b656e206f776e6560448201526c1c881bdc88185c1c1c9bdd9959609a1b6064820152608490fd5b9061434d93929161433d6134c184336143c4565b61434883838361448c565b6145cd565b1561435457565b60405162461bcd60e51b81528061436d60048201614371565b0390fd5b60809060208152603260208201527f4552433732313a207472616e7366657220746f206e6f6e20455243373231526560408201527131b2b4bb32b91034b6b83632b6b2b73a32b960711b60608201520190565b906001600160a01b0380806143d884614266565b1693169183831493841561440b575b5083156143f5575b50505090565b61440191929350614289565b16143880806143ef565b909350600052600760205260406000208260005260205260ff6040600020541692386143e7565b1561443957565b60405162461bcd60e51b815260206004820152602560248201527f4552433732313a207472616e736665722066726f6d20696e636f72726563742060448201526437bbb732b960d91b6064820152608490fd5b906144b49161449a84614266565b6001600160a01b0393918416928492909183168414614432565b1691821561454c57816144d1916144ca86614266565b1614614432565b7fddf252ad1be2c89b69c2b068fc378daa952ba7f163c4a11628f55a4df523b3ef60008481526006602052604081206001600160601b0360a01b9081815416905583825260056020526040822060001981540190558482526040822060018154019055858252600460205284604083209182541617905580a4565b60405162461bcd60e51b8152602060048201526024808201527f4552433732313a207472616e7366657220746f20746865207a65726f206164646044820152637265737360e01b6064820152608490fd5b3d156145c8573d906145ae82613fff565b916145bc6040519384613fde565b82523d6000602084013e565b606090565b91926000929190813b156146c2576020916146239185604051958680958194630a85bd0160e11b9b8c845233600485015260018060a01b0380951660248501526044840152608060648401526084830190613c87565b0393165af190829082614673575b50506146655761463f61459d565b805190816146605760405162461bcd60e51b81528061436d60048201614371565b602001fd5b6001600160e01b0319161490565b909192506020813d82116146ba575b8161468f60209383613fde565b810103126146b65751906001600160e01b0319821682036146b35750903880614631565b80fd5b5080fd5b3d9150614682565b5050505050600190565b156146d357565b60405162461bcd60e51b815260206004820152602560248201527f4f6e6c792076657269666965642073656c6c6572206f72206f776e657220616c6044820152641b1bddd95960da1b6064820152608490fd5b903590601e19813603018212156104b957018035906001600160401b0382116104b9576020019181360383136104b957565b1561475f57565b60405162461bcd60e51b81526020600482015260146024820152734e616d652063616e6e6f7420626520656d70747960601b6044820152606490fd5b156147a257565b60405162461bcd60e51b815260206004820152601b60248201527f4465736372697074696f6e2063616e6e6f7420626520656d70747900000000006044820152606490fd5b156147ee57565b60405162461bcd60e51b815260206004820152601c60248201527f5072696365206d7573742062652067726561746572207468616e2030000000006044820152606490fd5b1561483a57565b60405162461bcd60e51b815260206004820152601c60248201527f53746f636b206d7573742062652067726561746572207468616e2030000000006044820152606490fd5b1561488657565b60405162461bcd60e51b8152602060048201526015602482015274436f6c6f722063616e6e6f7420626520656d70747960581b6044820152606490fd5b903590601e19813603018212156104b957018035906001600160401b0382116104b957602001918160051b360383136104b957565b156148ff57565b60405162461bcd60e51b8152602060048201526016602482015275496d616765732063616e6e6f7420626520656d70747960501b6044820152606490fd5b1561494457565b60405162461bcd60e51b815260206004820152601c60248201527f496d616765732063616e6e6f74206265206d6f7265207468616e2035000000006044820152606490fd5b1561499057565b60405162461bcd60e51b815260206004820152601460248201527353697a652063616e6e6f7420626520656d70747960601b6044820152606490fd5b156149d357565b60405162461bcd60e51b815260206004820152601860248201527f43617465676f72792063616e6e6f7420626520656d70747900000000000000006044820152606490fd5b15614a1f57565b60405162461bcd60e51b815260206004820152601c60248201527f5375622d63617465676f72792063616e6e6f7420626520656d707479000000006044820152606490fd5b15614a6b57565b60405162461bcd60e51b81526020600482015260156024820152744d6f64656c2063616e6e6f7420626520656d70747960581b6044820152606490fd5b15614aaf57565b60405162461bcd60e51b81526020600482015260156024820152744272616e642063616e6e6f7420626520656d70747960581b6044820152606490fd5b15614af357565b60405162461bcd60e51b815260206004820152601d60248201527f576569676874206d7573742062652067726561746572207468616e20300000006044820152606490fd5b15614b3f57565b60405162461bcd60e51b815260206004820152601a60248201527f534b55206d7573742062652067726561746572207468616e20300000000000006044820152606490fd5b60405190614b9182613f8c565b8161024060009182815282602082015260609283604083015283808301528060808301528060a08301528360c08301528360e08301528361010083015283610120830152836101408301528061016083015283610180830152836101a0830152806101c0830152806101e0830152806102008301526102208201520152565b6001600160401b03811161219d5760051b60200190565b818110614c32575050565b60008155600101614c27565b9190601f8111614c4d57505050565b61412c926000526020600020906020601f840160051c83019310614c79575b601f0160051c0190614c27565b9091508190614c6c565b614c8d81546140b4565b9081614c97575050565b81601f60009311600114614ca9575055565b908083918252614cc8601f60208420940160051c840160018501614c27565b5555565b90600160401b811161219d57815491818155828210614cea57505050565b600052602060002091820191015b818110614d03575050565b80614d0f600192614c83565b01614cf8565b8151815560019182820160209060018060a01b0382840151166001600160601b0360a01b8254161790556040820151600284015560038301906060830151948551916001600160401b03831161219d57614d738361176286546140b4565b80601f8411600114614dcb5750918080608095936004979561412c9a600094614dc0575b50501b916000199060031b1c19161790555b0151151591019060ff801983541691151516179055565b015192503880614d97565b9193949596601f1984168660005283600020936000905b828210614e285750509260809592859261412c9a99966004999610614e0f575b505050811b019055614da9565b015160001960f88460031b161c19169055388080614e02565b808886978294978701518155019601940190614de2565b15614e4657565b60405162461bcd60e51b815260206004820152601c60248201527f4552433732313a20746f6b656e20616c7265616479206d696e746564000000006044820152606490fd5b15614e9257565b60405162461bcd60e51b8152602060048201526016602482015275141c9bd91d58dd08191bd95cc81b9bdd08195e1a5cdd60521b6044820152606490fd5b15614ed757565b60405162461bcd60e51b8152602060048201526012602482015271141c9bd91d58dd081a5cc819195b195d195960721b6044820152606490fd5b90604051614f1e81613fa8565b608060ff600483958054855260018060a01b03600182015416602086015260028101546040860152614f52600382016140ee565b60608601520154161515910152565b60001981146131df5760010190565b90614f7a82614c10565b614f876040519182613fde565b8281528092614f98601f1991614c10565b019060005b828110614fa957505050565b602090614fb4614b84565b82828501015201614f9d565b80518210156141ac5760209160051b010190565b60405190614fe182613fa8565b60006080838281528260208201528260408201526060808201520152565b80548210156141ac576000526005602060002091020190600090565b6001600160a01b0316801561507a57600080809381935af161503b61459d565b501561504357565b60405162461bcd60e51b815260206004820152600f60248201526e151c985b9cd9995c8819985a5b1959608a1b6044820152606490fd5b60405162461bcd60e51b815260206004820152600f60248201526e496e76616c6964206164647265737360881b6044820152606490fdfea264697066735822122004a708e7b863fdfa916d79e9964d8f8fe2959514c5827c3f59b4d541309963a464736f6c63430008130033","opcodes":"PUSH1 0x80 CALLVALUE PUSH3 0x377 JUMPI PUSH1 0x1F SWAP1 PUSH1 0x1F NOT PUSH1 0x1 PUSH1 0x1 PUSH1 0x40 SHL SUB PUSH3 0x549A CODESIZE DUP2 SWAP1 SUB DUP6 DUP2 ADD DUP5 AND DUP6 ADD DUP4 DUP2 GT DUP7 DUP3 LT OR PUSH3 0x37C JUMPI DUP6 SWAP3 DUP3 SWAP2 PUSH1 0x40 MSTORE DUP4 CODECOPY PUSH1 0x20 SWAP5 DUP6 SWAP2 DUP2 ADD SUB SLT PUSH3 0x377 JUMPI MLOAD SWAP4 PUSH3 0x53 PUSH3 0x392 JUMP JUMPDEST SWAP3 PUSH1 0x7 DUP5 MSTORE PUSH7 0x48656D53686F7 PUSH1 0xCC SHL DUP6 DUP6 ADD MSTORE PUSH3 0x71 PUSH3 0x392 JUMP JUMPDEST PUSH1 0x3 DUP1 DUP3 MSTORE PUSH3 0x48737 PUSH1 0xEC SHL DUP8 DUP4 ADD MSTORE PUSH1 0x0 DUP1 SLOAD CALLER PUSH1 0x1 PUSH1 0x1 PUSH1 0xA0 SHL SUB NOT DUP3 AND DUP2 OR DUP4 SSTORE SWAP3 SWAP9 SWAP4 SWAP5 SWAP2 SWAP4 SWAP3 SWAP1 PUSH1 0x1 PUSH1 0x1 PUSH1 0xA0 SHL SUB AND PUSH32 0x8BE0079C531659141344CD1FD0A4F28419497F9722A3DAAFE3B4186F6B6457E0 DUP6 DUP1 LOG3 PUSH1 0x1 SWAP7 DUP8 DUP1 SSTORE DUP1 MLOAD SWAP1 DUP8 DUP3 GT PUSH3 0x363 JUMPI PUSH1 0x2 SLOAD DUP10 DUP2 DUP2 SHR SWAP2 AND DUP1 ISZERO PUSH3 0x358 JUMPI JUMPDEST DUP6 DUP3 LT EQ PUSH3 0x344 JUMPI SWAP1 DUP2 DUP9 DUP5 SWAP4 GT PUSH3 0x2F0 JUMPI JUMPDEST POP DUP5 SWAP1 DUP9 DUP4 GT PUSH1 0x1 EQ PUSH3 0x28E JUMPI DUP7 SWAP3 PUSH3 0x282 JUMPI JUMPDEST POP POP PUSH1 0x0 NOT DUP3 DUP12 SHL SHR NOT AND SWAP1 DUP9 SHL OR PUSH1 0x2 SSTORE JUMPDEST DUP4 MLOAD SWAP6 DUP7 GT PUSH3 0x26E JUMPI DUP8 SLOAD DUP8 DUP2 DUP2 SHR SWAP2 AND DUP1 ISZERO PUSH3 0x263 JUMPI JUMPDEST DUP4 DUP3 LT EQ PUSH3 0x24F JUMPI DUP6 DUP2 GT PUSH3 0x207 JUMPI JUMPDEST POP DUP2 SWAP5 DUP7 GT PUSH1 0x1 EQ PUSH3 0x1A2 JUMPI POP POP SWAP2 DUP4 SWAP5 SWAP2 DUP5 SWAP4 SWAP5 PUSH3 0x196 JUMPI JUMPDEST POP POP SHL SWAP2 PUSH1 0x0 NOT SWAP1 DUP5 SHL SHR NOT AND OR SWAP1 SSTORE JUMPDEST PUSH1 0xB SSTORE PUSH1 0x40 MLOAD PUSH2 0x50E7 SWAP1 DUP2 PUSH3 0x3B3 DUP3 CODECOPY RETURN JUMPDEST ADD MLOAD SWAP3 POP CODESIZE DUP1 PUSH3 0x172 JUMP JUMPDEST DUP8 DUP4 MSTORE DUP2 DUP4 KECCAK256 SWAP5 SWAP4 SWAP3 DUP7 SWAP3 SWAP2 DUP4 AND SWAP2 JUMPDEST DUP9 DUP4 DUP4 LT PUSH3 0x1EC JUMPI POP POP POP LT PUSH3 0x1D3 JUMPI JUMPDEST POP POP POP DUP2 SHL ADD SWAP1 SSTORE PUSH3 0x183 JUMP JUMPDEST ADD MLOAD PUSH1 0x0 NOT DUP4 DUP7 SHL PUSH1 0xF8 AND SHR NOT AND SWAP1 SSTORE CODESIZE DUP1 DUP1 PUSH3 0x1C5 JUMP JUMPDEST DUP6 DUP8 ADD MLOAD DUP9 SSTORE SWAP1 SWAP7 ADD SWAP6 SWAP5 DUP6 ADD SWAP5 DUP8 SWAP4 POP SWAP1 DUP2 ADD SWAP1 PUSH3 0x1B2 JUMP JUMPDEST DUP9 DUP5 MSTORE DUP3 DUP5 KECCAK256 DUP7 DUP1 DUP10 ADD PUSH1 0x5 SHR DUP3 ADD SWAP3 DUP6 DUP11 LT PUSH3 0x245 JUMPI JUMPDEST ADD PUSH1 0x5 SHR ADD SWAP1 DUP9 SWAP1 JUMPDEST DUP3 DUP2 LT PUSH3 0x239 JUMPI POP POP PUSH3 0x156 JUMP JUMPDEST DUP6 DUP2 SSTORE ADD DUP9 SWAP1 PUSH3 0x229 JUMP JUMPDEST SWAP3 POP DUP2 SWAP3 PUSH3 0x220 JUMP JUMPDEST PUSH4 0x4E487B71 PUSH1 0xE0 SHL DUP5 MSTORE PUSH1 0x22 PUSH1 0x4 MSTORE PUSH1 0x24 DUP5 REVERT JUMPDEST SWAP1 PUSH1 0x7F AND SWAP1 PUSH3 0x144 JUMP JUMPDEST PUSH4 0x4E487B71 PUSH1 0xE0 SHL DUP4 MSTORE PUSH1 0x41 PUSH1 0x4 MSTORE PUSH1 0x24 DUP4 REVERT JUMPDEST ADD MLOAD SWAP1 POP CODESIZE DUP1 PUSH3 0x117 JUMP JUMPDEST SWAP1 DUP5 DUP12 SWAP5 AND SWAP2 PUSH1 0x2 DUP9 MSTORE DUP7 DUP9 KECCAK256 SWAP3 DUP9 JUMPDEST DUP9 DUP3 DUP3 LT PUSH3 0x2D9 JUMPI POP POP DUP5 GT PUSH3 0x2C0 JUMPI JUMPDEST POP POP POP DUP2 SHL ADD PUSH1 0x2 SSTORE PUSH3 0x12A JUMP JUMPDEST ADD MLOAD PUSH1 0x0 NOT DUP4 DUP14 SHL PUSH1 0xF8 AND SHR NOT AND SWAP1 SSTORE CODESIZE DUP1 DUP1 PUSH3 0x2B1 JUMP JUMPDEST DUP4 DUP6 ADD MLOAD DUP7 SSTORE DUP15 SWAP8 SWAP1 SWAP6 ADD SWAP5 SWAP4 DUP5 ADD SWAP4 ADD PUSH3 0x29E JUMP JUMPDEST SWAP1 SWAP2 POP PUSH1 0x2 DUP7 MSTORE DUP5 DUP7 KECCAK256 DUP9 DUP1 DUP6 ADD PUSH1 0x5 SHR DUP3 ADD SWAP3 DUP8 DUP7 LT PUSH3 0x33A JUMPI JUMPDEST SWAP2 DUP13 SWAP2 DUP7 SWAP6 SWAP5 SWAP4 ADD PUSH1 0x5 SHR ADD SWAP2 JUMPDEST DUP3 DUP2 LT PUSH3 0x32B JUMPI POP POP PUSH3 0x101 JUMP JUMPDEST DUP9 DUP2 SSTORE DUP6 SWAP5 POP DUP13 SWAP2 ADD PUSH3 0x31B JUMP JUMPDEST SWAP3 POP DUP2 SWAP3 PUSH3 0x30D JUMP JUMPDEST PUSH4 0x4E487B71 PUSH1 0xE0 SHL DUP7 MSTORE PUSH1 0x22 PUSH1 0x4 MSTORE PUSH1 0x24 DUP7 REVERT JUMPDEST SWAP1 PUSH1 0x7F AND SWAP1 PUSH3 0xEC JUMP JUMPDEST PUSH4 0x4E487B71 PUSH1 0xE0 SHL DUP6 MSTORE PUSH1 0x41 PUSH1 0x4 MSTORE PUSH1 0x24 DUP6 REVERT JUMPDEST PUSH1 0x0 DUP1 REVERT JUMPDEST PUSH4 0x4E487B71 PUSH1 0xE0 SHL PUSH1 0x0 MSTORE PUSH1 0x41 PUSH1 0x4 MSTORE PUSH1 0x24 PUSH1 0x0 REVERT JUMPDEST PUSH1 0x40 DUP1 MLOAD SWAP2 SWAP1 DUP3 ADD PUSH1 0x1 PUSH1 0x1 PUSH1 0x40 SHL SUB DUP2 GT DUP4 DUP3 LT OR PUSH3 0x37C JUMPI PUSH1 0x40 MSTORE JUMP INVALID PUSH1 0x80 DUP1 PUSH1 0x40 MSTORE PUSH1 0x4 CALLDATASIZE LT ISZERO PUSH2 0x13 JUMPI PUSH1 0x0 DUP1 REVERT JUMPDEST PUSH1 0x0 CALLDATALOAD PUSH1 0xE0 SHR SWAP1 DUP2 PUSH3 0xD64E76 EQ PUSH2 0x3C5A JUMPI POP DUP1 PUSH4 0x1FFC9A7 EQ PUSH2 0x3BEC JUMPI DUP1 PUSH4 0x2EE3A52 EQ PUSH2 0x3955 JUMPI DUP1 PUSH4 0x6FDDE03 EQ PUSH2 0x38AF JUMPI DUP1 PUSH4 0x81812FC EQ PUSH2 0x3891 JUMPI DUP1 PUSH4 0x95EA7B3 EQ PUSH2 0x3717 JUMPI DUP1 PUSH4 0x1385FD92 EQ PUSH2 0x36AE JUMPI DUP1 PUSH4 0x16D81B38 EQ PUSH2 0x34CB JUMPI DUP1 PUSH4 0x2148893F EQ PUSH2 0x2F94 JUMPI DUP1 PUSH4 0x23B872DD EQ PUSH2 0x34A2 JUMPI DUP1 PUSH4 0x24D41A03 EQ PUSH2 0x327D JUMPI DUP1 PUSH4 0x3CCFD60B EQ PUSH2 0x30F5 JUMPI DUP1 PUSH4 0x42842E0E EQ PUSH2 0x30CD JUMPI DUP1 PUSH4 0x45DE84DB EQ PUSH2 0x308B JUMPI DUP1 PUSH4 0x52C9224C EQ PUSH2 0x2FCE JUMPI DUP1 PUSH4 0x607EB4E4 EQ PUSH2 0x2F94 JUMPI DUP1 PUSH4 0x6352211E EQ PUSH2 0x2F64 JUMPI DUP1 PUSH4 0x70A08231 EQ PUSH2 0x2ECD JUMPI DUP1 PUSH4 0x715018A6 EQ PUSH2 0x2E74 JUMPI DUP1 PUSH4 0x7ACC0B20 EQ PUSH2 0x2CDC JUMPI DUP1 PUSH4 0x8DA5CB5B EQ PUSH2 0x2CB3 JUMPI DUP1 PUSH4 0x95D89B41 EQ PUSH2 0x2BD1 JUMPI DUP1 PUSH4 0x97B6F393 EQ PUSH2 0x29D5 JUMPI DUP1 PUSH4 0x9D4A2255 EQ PUSH2 0x2842 JUMPI DUP1 PUSH4 0xA22CB465 EQ PUSH2 0x2767 JUMPI DUP1 PUSH4 0xA22FB387 EQ PUSH2 0x26A1 JUMPI DUP1 PUSH4 0xAF55ED64 EQ PUSH2 0x2670 JUMPI DUP1 PUSH4 0xB1191052 EQ PUSH2 0x1AF5 JUMPI DUP1 PUSH4 0xB235B4A9 EQ PUSH2 0xBB4 JUMPI DUP1 PUSH4 0xB88D4FDE EQ PUSH2 0xB53 JUMPI DUP1 PUSH4 0xB95A0628 EQ PUSH2 0xB18 JUMPI DUP1 PUSH4 0xB9DB15B4 EQ PUSH2 0x8E2 JUMPI DUP1 PUSH4 0xC1302B34 EQ PUSH2 0x88A JUMPI DUP1 PUSH4 0xC64B8A8F EQ PUSH2 0x84B JUMPI DUP1 PUSH4 0xC87B56DD EQ PUSH2 0x7DB JUMPI DUP1 PUSH4 0xE01EF6E6 EQ PUSH2 0x7BD JUMPI DUP1 PUSH4 0xE985E9C5 EQ PUSH2 0x767 JUMPI DUP1 PUSH4 0xED90C7B7 EQ PUSH2 0x582 JUMPI DUP1 PUSH4 0xF2FDE38B EQ PUSH2 0x4BE JUMPI PUSH4 0xFDCA4CA3 EQ PUSH2 0x1D6 JUMPI PUSH1 0x0 DUP1 REVERT JUMPDEST CALLVALUE PUSH2 0x4B9 JUMPI PUSH1 0x0 CALLDATASIZE PUSH1 0x3 NOT ADD SLT PUSH2 0x4B9 JUMPI PUSH1 0x8 DUP1 SLOAD PUSH1 0x0 PUSH1 0x1 JUMPDEST DUP3 DUP2 GT ISZERO PUSH2 0x458 JUMPI POP PUSH2 0x202 SWAP1 PUSH2 0x4F70 JUMP JUMPDEST SWAP1 PUSH1 0x0 SWAP3 PUSH1 0x1 JUMPDEST DUP3 DUP2 GT ISZERO PUSH2 0x223 JUMPI PUSH1 0x40 MLOAD DUP1 PUSH2 0x21F DUP7 DUP3 PUSH2 0x3EFE JUMP JUMPDEST SUB SWAP1 RETURN JUMPDEST PUSH1 0x0 DUP2 DUP2 MSTORE PUSH1 0xE PUSH1 0x20 DUP2 DUP2 MSTORE PUSH1 0x40 SWAP1 SWAP3 KECCAK256 PUSH1 0x1 DUP2 ADD SLOAD PUSH1 0x1 PUSH1 0x1 PUSH1 0xA0 SHL SUB AND SWAP3 SWAP2 SWAP1 CALLER DUP5 EQ DUP1 PUSH2 0x446 JUMPI JUMPDEST PUSH2 0x265 JUMPI JUMPDEST POP POP POP POP PUSH2 0x260 SWAP1 PUSH2 0x4F61 JUMP JUMPDEST PUSH2 0x209 JUMP JUMPDEST PUSH1 0x40 SWAP9 SWAP5 SWAP9 MLOAD SWAP4 PUSH2 0x275 DUP6 PUSH2 0x3F8C JUMP JUMPDEST DUP2 SLOAD DUP6 MSTORE DUP4 DUP6 ADD MSTORE PUSH2 0x289 PUSH1 0x2 DUP3 ADD PUSH2 0x40EE JUMP JUMPDEST PUSH1 0x40 DUP6 ADD MSTORE PUSH2 0x29A PUSH1 0x3 DUP3 ADD PUSH2 0x40EE JUMP JUMPDEST PUSH1 0x60 DUP6 ADD MSTORE PUSH1 0x4 DUP2 ADD SLOAD PUSH1 0x80 DUP6 ADD MSTORE PUSH1 0x5 SWAP2 DUP3 DUP3 ADD SLOAD PUSH1 0xA0 DUP7 ADD MSTORE PUSH2 0x2C1 PUSH1 0x6 DUP4 ADD PUSH2 0x40EE JUMP JUMPDEST PUSH1 0xC0 DUP7 ADD MSTORE PUSH2 0x2D2 PUSH1 0x7 DUP4 ADD PUSH2 0x40EE JUMP JUMPDEST PUSH1 0xE0 DUP7 ADD MSTORE DUP7 DUP3 ADD DUP1 SLOAD PUSH2 0x2E5 DUP2 PUSH2 0x4C10 JUMP JUMPDEST SWAP2 PUSH2 0x2F3 PUSH1 0x40 MLOAD SWAP4 DUP5 PUSH2 0x3FDE JUMP JUMPDEST DUP2 DUP4 MSTORE PUSH1 0x0 SWAP1 DUP2 MSTORE DUP7 DUP2 KECCAK256 SWAP1 DUP8 DUP1 DUP6 ADD JUMPDEST DUP5 DUP4 LT PUSH2 0x428 JUMPI POP POP POP POP POP PUSH2 0x100 DUP7 ADD MSTORE PUSH2 0x322 PUSH1 0x9 DUP4 ADD PUSH2 0x40EE JUMP JUMPDEST PUSH2 0x120 DUP7 ADD MSTORE PUSH2 0x334 PUSH1 0xA DUP4 ADD PUSH2 0x40EE JUMP JUMPDEST PUSH2 0x140 DUP7 ADD MSTORE PUSH1 0xB DUP3 ADD SLOAD PUSH2 0x160 DUP7 ADD MSTORE PUSH2 0x351 PUSH1 0xC DUP4 ADD PUSH2 0x40EE JUMP JUMPDEST PUSH2 0x180 DUP7 ADD MSTORE PUSH2 0x363 PUSH1 0xD DUP4 ADD PUSH2 0x40EE JUMP JUMPDEST PUSH2 0x1A0 DUP7 ADD MSTORE DUP2 ADD SLOAD PUSH2 0x1C0 DUP6 ADD MSTORE PUSH1 0xF DUP2 ADD SLOAD PUSH1 0xFF DUP1 DUP3 AND ISZERO ISZERO PUSH2 0x1E0 DUP8 ADD MSTORE DUP2 DUP9 SHR DUP2 AND ISZERO ISZERO PUSH2 0x200 DUP8 ADD MSTORE PUSH1 0x10 SWAP2 DUP3 SHR AND ISZERO ISZERO PUSH2 0x220 DUP7 ADD MSTORE ADD DUP1 SLOAD SWAP2 SWAP1 PUSH2 0x3AD DUP4 PUSH2 0x4C10 JUMP JUMPDEST SWAP4 PUSH2 0x3BB PUSH1 0x40 MLOAD SWAP6 DUP7 PUSH2 0x3FDE JUMP JUMPDEST DUP4 DUP6 MSTORE PUSH1 0x0 SWAP2 DUP3 MSTORE DUP1 DUP3 KECCAK256 SWAP2 DUP2 DUP7 ADD JUMPDEST DUP6 DUP3 LT PUSH2 0x40C JUMPI POP POP POP POP POP POP SWAP2 DUP2 PUSH2 0x260 SWAP4 PUSH2 0x240 PUSH2 0x402 SWAP5 ADD MSTORE PUSH2 0x3F1 DUP3 DUP9 PUSH2 0x4FC0 JUMP JUMPDEST MSTORE PUSH2 0x3FC DUP2 DUP8 PUSH2 0x4FC0 JUMP JUMPDEST POP PUSH2 0x4F61 JUMP JUMPDEST SWAP5 SWAP1 CODESIZE DUP1 DUP1 PUSH2 0x253 JUMP JUMPDEST DUP5 DUP4 PUSH1 0x1 SWAP3 PUSH2 0x41A DUP8 PUSH2 0x4F11 JUMP JUMPDEST DUP2 MSTORE ADD SWAP5 ADD SWAP2 ADD SWAP1 SWAP3 PUSH2 0x3CB JUMP JUMPDEST PUSH1 0x1 SWAP2 DUP3 SWAP2 PUSH2 0x436 DUP7 PUSH2 0x40EE JUMP JUMPDEST DUP2 MSTORE ADD SWAP4 ADD SWAP2 ADD SWAP1 SWAP2 DUP9 SWAP1 PUSH2 0x304 JUMP JUMPDEST POP PUSH1 0xFF PUSH1 0xF DUP3 ADD SLOAD PUSH1 0x10 SHR AND ISZERO PUSH2 0x24E JUMP JUMPDEST PUSH1 0x0 DUP2 DUP2 MSTORE PUSH1 0xE PUSH1 0x20 MSTORE PUSH1 0x40 SWAP1 KECCAK256 PUSH1 0x1 DUP2 ADD SLOAD PUSH1 0x1 PUSH1 0x1 PUSH1 0xA0 SHL SUB AND CALLER EQ SWAP1 DUP2 PUSH2 0x4A6 JUMPI JUMPDEST POP PUSH2 0x491 JUMPI JUMPDEST PUSH2 0x48C SWAP1 PUSH2 0x4F61 JUMP JUMPDEST PUSH2 0x1F0 JUMP JUMPDEST SWAP1 PUSH2 0x49E PUSH2 0x48C SWAP2 PUSH2 0x4F61 JUMP JUMPDEST SWAP2 SWAP1 POP PUSH2 0x483 JUMP JUMPDEST PUSH1 0xFF SWAP2 POP PUSH1 0xF ADD SLOAD PUSH1 0x10 SHR AND ISZERO CODESIZE PUSH2 0x47D JUMP JUMPDEST PUSH1 0x0 DUP1 REVERT JUMPDEST CALLVALUE PUSH2 0x4B9 JUMPI PUSH1 0x20 CALLDATASIZE PUSH1 0x3 NOT ADD SLT PUSH2 0x4B9 JUMPI PUSH2 0x4D7 PUSH2 0x3F60 JUMP JUMPDEST PUSH2 0x4DF PUSH2 0x41C2 JUMP JUMPDEST PUSH1 0x1 PUSH1 0x1 PUSH1 0xA0 SHL SUB SWAP1 DUP2 AND SWAP1 DUP2 ISZERO PUSH2 0x52E JUMPI PUSH1 0x0 SLOAD DUP3 PUSH1 0x1 PUSH1 0x1 PUSH1 0x60 SHL SUB PUSH1 0xA0 SHL DUP3 AND OR PUSH1 0x0 SSTORE AND PUSH32 0x8BE0079C531659141344CD1FD0A4F28419497F9722A3DAAFE3B4186F6B6457E0 PUSH1 0x0 DUP1 LOG3 STOP JUMPDEST PUSH1 0x40 MLOAD PUSH3 0x461BCD PUSH1 0xE5 SHL DUP2 MSTORE PUSH1 0x20 PUSH1 0x4 DUP3 ADD MSTORE PUSH1 0x26 PUSH1 0x24 DUP3 ADD MSTORE PUSH32 0x4F776E61626C653A206E6577206F776E657220697320746865207A65726F2061 PUSH1 0x44 DUP3 ADD MSTORE PUSH6 0x646472657373 PUSH1 0xD0 SHL PUSH1 0x64 DUP3 ADD MSTORE PUSH1 0x84 SWAP1 REVERT JUMPDEST CALLVALUE PUSH2 0x4B9 JUMPI PUSH1 0x20 DUP1 PUSH1 0x3 NOT CALLDATASIZE ADD SLT PUSH2 0x4B9 JUMPI CALLER PUSH1 0x0 SWAP1 DUP2 MSTORE PUSH1 0xD DUP3 MSTORE PUSH1 0x40 SWAP1 KECCAK256 SLOAD PUSH1 0x4 CALLDATALOAD SWAP2 SWAP1 PUSH1 0x1 PUSH1 0x1 PUSH1 0xA0 SHL SUB SWAP1 DUP2 AND DUP1 ISZERO PUSH2 0x72B JUMPI DUP1 PUSH1 0x0 MSTORE PUSH1 0xC DUP4 MSTORE PUSH1 0xFF PUSH1 0x40 PUSH1 0x0 KECCAK256 SLOAD AND SWAP1 PUSH1 0x4 DUP3 LT ISZERO PUSH2 0x715 JUMPI PUSH1 0x2 PUSH2 0x5E9 SWAP3 EQ SWAP1 DUP2 ISZERO PUSH2 0x707 JUMPI JUMPDEST POP PUSH2 0x46CC JUMP JUMPDEST DUP3 PUSH1 0x0 MSTORE PUSH1 0xF DUP3 MSTORE PUSH2 0x602 PUSH1 0xFF PUSH1 0x40 PUSH1 0x0 KECCAK256 SLOAD AND PUSH2 0x4E8B JUMP JUMPDEST DUP3 PUSH1 0x0 MSTORE PUSH1 0xE DUP3 MSTORE CALLER DUP2 PUSH1 0x1 PUSH1 0x40 PUSH1 0x0 KECCAK256 ADD SLOAD AND EQ SWAP1 DUP2 ISZERO PUSH2 0x6F9 JUMPI JUMPDEST POP ISZERO PUSH2 0x6A5 JUMPI DUP2 PUSH1 0x0 MSTORE PUSH1 0xE DUP2 MSTORE PUSH1 0xFF PUSH1 0xF PUSH1 0x40 PUSH1 0x0 KECCAK256 ADD SLOAD PUSH1 0x10 SHR AND PUSH2 0x661 JUMPI PUSH1 0x0 SWAP2 DUP3 MSTORE PUSH1 0xE SWAP1 MSTORE PUSH1 0x40 SWAP1 KECCAK256 PUSH1 0xF ADD DUP1 SLOAD PUSH3 0xFF0000 NOT AND PUSH3 0x10000 OR SWAP1 SSTORE STOP JUMPDEST PUSH1 0x64 SWAP1 PUSH1 0x40 MLOAD SWAP1 PUSH3 0x461BCD PUSH1 0xE5 SHL DUP3 MSTORE PUSH1 0x4 DUP3 ADD MSTORE PUSH1 0x1A PUSH1 0x24 DUP3 ADD MSTORE PUSH32 0x50726F6475637420697320616C72656164792064656C65746564000000000000 PUSH1 0x44 DUP3 ADD MSTORE REVERT JUMPDEST PUSH1 0x84 SWAP1 PUSH1 0x40 MLOAD SWAP1 PUSH3 0x461BCD PUSH1 0xE5 SHL DUP3 MSTORE PUSH1 0x4 DUP3 ADD MSTORE PUSH1 0x27 PUSH1 0x24 DUP3 ADD MSTORE PUSH32 0x4F6E6C792070726F647563742073656C6C6572206F72206F776E65722063616E PUSH1 0x44 DUP3 ADD MSTORE PUSH7 0x2064656C657465 PUSH1 0xC8 SHL PUSH1 0x64 DUP3 ADD MSTORE REVERT JUMPDEST PUSH1 0x0 SLOAD AND CALLER EQ SWAP1 POP DUP4 PUSH2 0x61F JUMP JUMPDEST SWAP1 POP DUP3 PUSH1 0x0 SLOAD AND EQ DUP6 PUSH2 0x5E3 JUMP JUMPDEST PUSH4 0x4E487B71 PUSH1 0xE0 SHL PUSH1 0x0 MSTORE PUSH1 0x21 PUSH1 0x4 MSTORE PUSH1 0x24 PUSH1 0x0 REVERT JUMPDEST POP PUSH1 0xC DUP3 MSTORE PUSH1 0xFF PUSH1 0x40 PUSH1 0x0 KECCAK256 SLOAD AND PUSH1 0x4 DUP2 LT ISZERO PUSH2 0x715 JUMPI PUSH1 0x2 EQ DUP1 ISZERO PUSH2 0x75A JUMPI JUMPDEST PUSH2 0x755 SWAP1 PUSH2 0x46CC JUMP JUMPDEST PUSH2 0x5E9 JUMP JUMPDEST POP PUSH1 0x0 SLOAD DUP2 AND CALLER EQ PUSH2 0x74C JUMP JUMPDEST CALLVALUE PUSH2 0x4B9 JUMPI PUSH1 0x40 CALLDATASIZE PUSH1 0x3 NOT ADD SLT PUSH2 0x4B9 JUMPI PUSH2 0x780 PUSH2 0x3F60 JUMP JUMPDEST PUSH2 0x788 PUSH2 0x3F76 JUMP JUMPDEST SWAP1 PUSH1 0x1 DUP1 PUSH1 0xA0 SHL SUB DUP1 SWAP2 AND PUSH1 0x0 MSTORE PUSH1 0x7 PUSH1 0x20 MSTORE PUSH1 0x40 PUSH1 0x0 KECCAK256 SWAP2 AND PUSH1 0x0 MSTORE PUSH1 0x20 MSTORE PUSH1 0x20 PUSH1 0xFF PUSH1 0x40 PUSH1 0x0 KECCAK256 SLOAD AND PUSH1 0x40 MLOAD SWAP1 ISZERO ISZERO DUP2 MSTORE RETURN JUMPDEST CALLVALUE PUSH2 0x4B9 JUMPI PUSH1 0x0 CALLDATASIZE PUSH1 0x3 NOT ADD SLT PUSH2 0x4B9 JUMPI PUSH1 0x20 PUSH1 0xB SLOAD PUSH1 0x40 MLOAD SWAP1 DUP2 MSTORE RETURN JUMPDEST CALLVALUE PUSH2 0x4B9 JUMPI PUSH1 0x20 CALLDATASIZE PUSH1 0x3 NOT ADD SLT PUSH2 0x4B9 JUMPI PUSH2 0x815 PUSH2 0x810 PUSH1 0x4 CALLDATALOAD PUSH1 0x0 MSTORE PUSH1 0x4 PUSH1 0x20 MSTORE PUSH1 0x1 DUP1 PUSH1 0xA0 SHL SUB PUSH1 0x40 PUSH1 0x0 KECCAK256 SLOAD AND ISZERO ISZERO SWAP1 JUMP JUMPDEST PUSH2 0x421A JUMP JUMPDEST PUSH1 0x0 PUSH1 0x40 MLOAD PUSH2 0x823 DUP2 PUSH2 0x3FC3 JUMP JUMPDEST MSTORE PUSH2 0x21F PUSH1 0x40 MLOAD PUSH2 0x833 DUP2 PUSH2 0x3FC3 JUMP JUMPDEST PUSH1 0x0 DUP2 MSTORE PUSH1 0x40 MLOAD SWAP2 DUP3 SWAP2 PUSH1 0x20 DUP4 MSTORE PUSH1 0x20 DUP4 ADD SWAP1 PUSH2 0x3C87 JUMP JUMPDEST CALLVALUE PUSH2 0x4B9 JUMPI PUSH1 0x20 CALLDATASIZE PUSH1 0x3 NOT ADD SLT PUSH2 0x4B9 JUMPI PUSH1 0x1 PUSH1 0x1 PUSH1 0xA0 SHL SUB PUSH2 0x86C PUSH2 0x3F60 JUMP JUMPDEST AND PUSH1 0x0 MSTORE PUSH1 0x12 PUSH1 0x20 MSTORE PUSH1 0x20 PUSH1 0xFF PUSH1 0x40 PUSH1 0x0 KECCAK256 SLOAD AND PUSH1 0x40 MLOAD SWAP1 ISZERO ISZERO DUP2 MSTORE RETURN JUMPDEST CALLVALUE PUSH2 0x4B9 JUMPI PUSH1 0x40 CALLDATASIZE PUSH1 0x3 NOT ADD SLT PUSH2 0x4B9 JUMPI PUSH2 0x8A3 PUSH2 0x3F60 JUMP JUMPDEST PUSH1 0x1 PUSH1 0x1 PUSH1 0xA0 SHL SUB AND PUSH1 0x0 SWAP1 DUP2 MSTORE PUSH1 0x10 PUSH1 0x20 MSTORE PUSH1 0x40 SWAP1 KECCAK256 DUP1 SLOAD PUSH1 0x24 CALLDATALOAD SWAP2 SWAP1 DUP3 LT ISZERO PUSH2 0x4B9 JUMPI PUSH1 0x20 SWAP2 PUSH2 0x8D4 SWAP2 PUSH2 0x4194 JUMP JUMPDEST SWAP1 SLOAD PUSH1 0x40 MLOAD SWAP2 PUSH1 0x3 SHL SHR DUP2 MSTORE RETURN JUMPDEST CALLVALUE PUSH2 0x4B9 JUMPI PUSH1 0x20 DUP1 PUSH1 0x3 NOT CALLDATASIZE ADD SLT PUSH2 0x4B9 JUMPI PUSH1 0x4 CALLDATALOAD PUSH2 0x8FF PUSH2 0x4B84 JUMP JUMPDEST POP DUP1 PUSH1 0x0 MSTORE PUSH1 0xE DUP3 MSTORE PUSH2 0x920 PUSH1 0xFF PUSH1 0xF PUSH1 0x40 PUSH1 0x0 KECCAK256 ADD SLOAD PUSH1 0x10 SHR AND ISZERO PUSH2 0x4ED0 JUMP JUMPDEST DUP1 PUSH1 0x0 MSTORE PUSH1 0xF DUP3 MSTORE PUSH2 0x939 PUSH1 0xFF PUSH1 0x40 PUSH1 0x0 KECCAK256 SLOAD AND PUSH2 0x4E8B JUMP JUMPDEST PUSH1 0x0 MSTORE PUSH1 0xE DUP2 MSTORE PUSH1 0x40 PUSH1 0x0 KECCAK256 SWAP1 PUSH1 0x40 MLOAD SWAP2 PUSH2 0x953 DUP4 PUSH2 0x3F8C JUMP JUMPDEST DUP1 SLOAD DUP4 MSTORE PUSH1 0x1 DUP1 DUP3 ADD SLOAD PUSH1 0x1 PUSH1 0x1 PUSH1 0xA0 SHL SUB AND DUP4 DUP6 ADD MSTORE PUSH2 0x976 PUSH1 0x2 DUP4 ADD PUSH2 0x40EE JUMP JUMPDEST PUSH1 0x40 DUP6 ADD MSTORE PUSH2 0x987 PUSH1 0x3 DUP4 ADD PUSH2 0x40EE JUMP JUMPDEST PUSH1 0x60 DUP6 ADD MSTORE PUSH1 0x4 DUP3 ADD SLOAD PUSH1 0x80 DUP6 ADD MSTORE PUSH1 0x5 SWAP2 DUP3 DUP2 ADD SLOAD PUSH1 0xA0 DUP7 ADD MSTORE PUSH2 0x9AE PUSH1 0x6 DUP3 ADD PUSH2 0x40EE JUMP JUMPDEST PUSH1 0xC0 DUP7 ADD MSTORE PUSH2 0x9BF PUSH1 0x7 DUP3 ADD PUSH2 0x40EE JUMP JUMPDEST PUSH1 0xE0 DUP7 ADD MSTORE PUSH1 0x8 DUP2 ADD DUP1 SLOAD PUSH2 0x9D3 DUP2 PUSH2 0x4C10 JUMP JUMPDEST SWAP2 PUSH2 0x9E1 PUSH1 0x40 MLOAD SWAP4 DUP5 PUSH2 0x3FDE JUMP JUMPDEST DUP2 DUP4 MSTORE PUSH1 0x0 SWAP1 DUP2 MSTORE DUP7 DUP2 KECCAK256 DUP6 DUP9 DUP1 DUP7 ADD JUMPDEST DUP6 DUP6 LT PUSH2 0xAFB JUMPI POP DUP9 DUP12 SWAP3 PUSH1 0x10 DUP10 DUP10 PUSH2 0x100 DUP8 ADD MSTORE PUSH2 0xA13 PUSH1 0x9 DUP3 ADD PUSH2 0x40EE JUMP JUMPDEST PUSH2 0x120 DUP8 ADD MSTORE PUSH2 0xA25 PUSH1 0xA DUP3 ADD PUSH2 0x40EE JUMP JUMPDEST PUSH2 0x140 DUP8 ADD MSTORE PUSH1 0xB DUP2 ADD SLOAD PUSH2 0x160 DUP8 ADD MSTORE PUSH2 0xA42 PUSH1 0xC DUP3 ADD PUSH2 0x40EE JUMP JUMPDEST PUSH2 0x180 DUP8 ADD MSTORE PUSH2 0xA54 PUSH1 0xD DUP3 ADD PUSH2 0x40EE JUMP JUMPDEST PUSH2 0x1A0 DUP8 ADD MSTORE PUSH1 0xE DUP2 ADD SLOAD PUSH2 0x1C0 DUP8 ADD MSTORE PUSH1 0xFF PUSH1 0xF DUP3 ADD SLOAD DUP2 DUP2 AND ISZERO ISZERO PUSH2 0x1E0 DUP10 ADD MSTORE DUP2 DUP2 PUSH1 0x8 SHR AND ISZERO ISZERO PUSH2 0x200 DUP10 ADD MSTORE DUP4 SHR AND ISZERO ISZERO PUSH2 0x220 DUP8 ADD MSTORE ADD SWAP2 DUP3 SLOAD SWAP1 PUSH2 0xA9E DUP3 PUSH2 0x4C10 JUMP JUMPDEST SWAP4 PUSH2 0xAAC PUSH1 0x40 MLOAD SWAP6 DUP7 PUSH2 0x3FDE JUMP JUMPDEST DUP3 DUP6 MSTORE PUSH1 0x0 SWAP1 DUP2 MSTORE DUP6 DUP2 KECCAK256 DUP7 DUP1 DUP8 ADD JUMPDEST DUP6 DUP5 LT PUSH2 0xADE JUMPI PUSH2 0x240 DUP11 ADD DUP9 SWAP1 MSTORE PUSH1 0x40 MLOAD DUP3 DUP2 MSTORE DUP1 PUSH2 0x21F DUP2 DUP6 ADD DUP14 PUSH2 0x3D5E JUMP JUMPDEST DUP7 SWAP2 DUP6 SWAP2 PUSH2 0xAEB DUP6 PUSH2 0x4F11 JUMP JUMPDEST DUP2 MSTORE ADD SWAP3 ADD SWAP3 ADD SWAP2 SWAP1 DUP8 SWAP1 PUSH2 0xABC JUMP JUMPDEST SWAP1 DUP3 SWAP2 PUSH2 0xB07 DUP6 PUSH2 0x40EE JUMP JUMPDEST DUP2 MSTORE ADD SWAP3 ADD SWAP3 ADD SWAP2 SWAP1 DUP9 DUP8 SWAP2 PUSH2 0x9F2 JUMP JUMPDEST CALLVALUE PUSH2 0x4B9 JUMPI PUSH1 0x20 CALLDATASIZE PUSH1 0x3 NOT ADD SLT PUSH2 0x4B9 JUMPI PUSH1 0x20 PUSH1 0x1 PUSH1 0x1 PUSH1 0xA0 SHL SUB DUP1 PUSH2 0xB3C PUSH2 0x3F60 JUMP JUMPDEST AND PUSH1 0x0 MSTORE PUSH1 0xD DUP3 MSTORE PUSH1 0x40 PUSH1 0x0 KECCAK256 SLOAD AND PUSH1 0x40 MLOAD SWAP1 DUP2 MSTORE RETURN JUMPDEST CALLVALUE PUSH2 0x4B9 JUMPI PUSH1 0x80 CALLDATASIZE PUSH1 0x3 NOT ADD SLT PUSH2 0x4B9 JUMPI PUSH2 0xB6C PUSH2 0x3F60 JUMP JUMPDEST PUSH2 0xB74 PUSH2 0x3F76 JUMP JUMPDEST PUSH1 0x64 CALLDATALOAD SWAP2 PUSH1 0x1 PUSH1 0x1 PUSH1 0x40 SHL SUB DUP4 GT PUSH2 0x4B9 JUMPI CALLDATASIZE PUSH1 0x23 DUP5 ADD SLT ISZERO PUSH2 0x4B9 JUMPI PUSH2 0xBA8 PUSH2 0xBB2 SWAP4 CALLDATASIZE SWAP1 PUSH1 0x24 DUP2 PUSH1 0x4 ADD CALLDATALOAD SWAP2 ADD PUSH2 0x401A JUMP JUMPDEST SWAP2 PUSH1 0x44 CALLDATALOAD SWAP2 PUSH2 0x4329 JUMP JUMPDEST STOP JUMPDEST CALLVALUE PUSH2 0x4B9 JUMPI PUSH1 0x3 NOT PUSH1 0x20 CALLDATASIZE DUP3 ADD SLT PUSH2 0x4B9 JUMPI PUSH1 0x1 PUSH1 0x1 PUSH1 0x40 SHL SUB PUSH1 0x4 CALLDATALOAD GT PUSH2 0x4B9 JUMPI PUSH2 0x1A0 SWAP1 PUSH1 0x4 CALLDATALOAD CALLDATASIZE SUB ADD SLT PUSH2 0x4B9 JUMPI CALLER PUSH1 0x0 SWAP1 DUP2 MSTORE PUSH1 0xD PUSH1 0x20 MSTORE PUSH1 0x40 SWAP1 KECCAK256 SLOAD PUSH1 0x1 PUSH1 0x1 PUSH1 0xA0 SHL SUB AND DUP1 ISZERO PUSH2 0x1AB1 JUMPI DUP1 PUSH1 0x0 MSTORE PUSH1 0xC PUSH1 0x20 MSTORE PUSH1 0xFF PUSH1 0x40 PUSH1 0x0 KECCAK256 SLOAD AND SWAP1 PUSH1 0x4 DUP3 LT ISZERO PUSH2 0x715 JUMPI PUSH1 0x2 PUSH2 0xC34 SWAP3 EQ SWAP1 DUP2 ISZERO PUSH2 0x1A9C JUMPI POP PUSH2 0x46CC JUMP JUMPDEST PUSH2 0xC4E PUSH2 0xC45 PUSH1 0x4 DUP1 CALLDATALOAD ADD DUP1 PUSH2 0x4726 JUMP JUMPDEST SWAP1 POP ISZERO ISZERO PUSH2 0x4758 JUMP JUMPDEST PUSH1 0x24 PUSH2 0xC6F PUSH2 0xC66 DUP3 PUSH1 0x4 CALLDATALOAD ADD PUSH1 0x4 CALLDATALOAD PUSH1 0x4 ADD PUSH2 0x4726 JUMP JUMPDEST SWAP1 POP ISZERO ISZERO PUSH2 0x479B JUMP JUMPDEST PUSH2 0xC80 PUSH1 0x44 PUSH1 0x4 CALLDATALOAD ADD CALLDATALOAD ISZERO ISZERO PUSH2 0x47E7 JUMP JUMPDEST PUSH2 0xC91 PUSH1 0x64 PUSH1 0x4 CALLDATALOAD ADD CALLDATALOAD ISZERO ISZERO PUSH2 0x4833 JUMP JUMPDEST PUSH2 0xCB1 PUSH2 0xCA8 PUSH1 0x84 PUSH1 0x4 CALLDATALOAD ADD PUSH1 0x4 CALLDATALOAD PUSH1 0x4 ADD PUSH2 0x4726 JUMP JUMPDEST SWAP1 POP ISZERO ISZERO PUSH2 0x487F JUMP JUMPDEST PUSH2 0xCD1 PUSH2 0xCC8 PUSH1 0xC4 PUSH1 0x4 CALLDATALOAD ADD PUSH1 0x4 CALLDATALOAD PUSH1 0x4 ADD PUSH2 0x48C3 JUMP JUMPDEST SWAP1 POP ISZERO ISZERO PUSH2 0x48F8 JUMP JUMPDEST PUSH2 0xCF2 PUSH1 0x5 PUSH2 0xCEA PUSH1 0xC4 PUSH1 0x4 CALLDATALOAD ADD PUSH1 0x4 CALLDATALOAD PUSH1 0x4 ADD PUSH2 0x48C3 JUMP JUMPDEST SWAP1 POP LT PUSH2 0x493D JUMP JUMPDEST PUSH2 0xD12 PUSH2 0xD09 PUSH1 0xA4 PUSH1 0x4 CALLDATALOAD ADD PUSH1 0x4 CALLDATALOAD PUSH1 0x4 ADD PUSH2 0x4726 JUMP JUMPDEST SWAP1 POP ISZERO ISZERO PUSH2 0x4989 JUMP JUMPDEST PUSH2 0xD32 PUSH2 0xD29 PUSH1 0xE4 PUSH1 0x4 CALLDATALOAD ADD PUSH1 0x4 CALLDATALOAD PUSH1 0x4 ADD PUSH2 0x4726 JUMP JUMPDEST SWAP1 POP ISZERO ISZERO PUSH2 0x49CC JUMP JUMPDEST PUSH2 0xD53 PUSH2 0xD4A PUSH2 0x104 PUSH1 0x4 CALLDATALOAD ADD PUSH1 0x4 CALLDATALOAD PUSH1 0x4 ADD PUSH2 0x4726 JUMP JUMPDEST SWAP1 POP ISZERO ISZERO PUSH2 0x4A18 JUMP JUMPDEST PUSH2 0xD74 PUSH2 0xD6B PUSH2 0x124 PUSH1 0x4 CALLDATALOAD ADD PUSH1 0x4 CALLDATALOAD PUSH1 0x4 ADD PUSH2 0x4726 JUMP JUMPDEST SWAP1 POP ISZERO ISZERO PUSH2 0x4A64 JUMP JUMPDEST PUSH2 0xD95 PUSH2 0xD8C PUSH2 0x144 PUSH1 0x4 CALLDATALOAD ADD PUSH1 0x4 CALLDATALOAD PUSH1 0x4 ADD PUSH2 0x4726 JUMP JUMPDEST SWAP1 POP ISZERO ISZERO PUSH2 0x4AA8 JUMP JUMPDEST PUSH2 0xDA7 PUSH2 0x164 PUSH1 0x4 CALLDATALOAD ADD CALLDATALOAD ISZERO ISZERO PUSH2 0x4AEC JUMP JUMPDEST PUSH2 0xDB9 PUSH2 0x184 PUSH1 0x4 CALLDATALOAD ADD CALLDATALOAD ISZERO ISZERO PUSH2 0x4B38 JUMP JUMPDEST PUSH1 0x1 PUSH1 0x8 SLOAD ADD DUP1 PUSH1 0x8 SSTORE PUSH2 0xDCB PUSH2 0x4B84 JUMP JUMPDEST DUP2 DUP2 MSTORE CALLER PUSH1 0x20 DUP3 ADD MSTORE PUSH2 0xDEC PUSH2 0xDE5 PUSH1 0x4 DUP1 CALLDATALOAD ADD DUP1 PUSH2 0x4726 JUMP JUMPDEST CALLDATASIZE SWAP2 PUSH2 0x401A JUMP JUMPDEST PUSH1 0x40 DUP3 ADD MSTORE PUSH2 0xE07 PUSH2 0xDE5 DUP5 PUSH1 0x4 CALLDATALOAD ADD PUSH1 0x4 CALLDATALOAD PUSH1 0x4 ADD PUSH2 0x4726 JUMP JUMPDEST PUSH1 0x60 DUP3 ADD MSTORE PUSH1 0x44 PUSH1 0x4 CALLDATALOAD ADD CALLDATALOAD PUSH1 0x80 DUP3 ADD MSTORE PUSH1 0x64 PUSH1 0x4 CALLDATALOAD ADD CALLDATALOAD PUSH1 0xA0 DUP3 ADD MSTORE PUSH2 0xE3B PUSH2 0xDE5 PUSH1 0x84 PUSH1 0x4 CALLDATALOAD ADD PUSH1 0x4 CALLDATALOAD PUSH1 0x4 ADD PUSH2 0x4726 JUMP JUMPDEST PUSH1 0xC0 DUP3 ADD MSTORE PUSH2 0xE57 PUSH2 0xDE5 PUSH1 0xA4 PUSH1 0x4 CALLDATALOAD ADD PUSH1 0x4 CALLDATALOAD PUSH1 0x4 ADD PUSH2 0x4726 JUMP JUMPDEST PUSH1 0xE0 DUP3 ADD MSTORE PUSH2 0xE70 PUSH1 0xC4 PUSH1 0x4 CALLDATALOAD ADD PUSH1 0x4 CALLDATALOAD PUSH1 0x4 ADD PUSH2 0x48C3 JUMP JUMPDEST SWAP1 PUSH2 0xE7A DUP3 PUSH2 0x4C10 JUMP JUMPDEST SWAP2 PUSH2 0xE88 PUSH1 0x40 MLOAD SWAP4 DUP5 PUSH2 0x3FDE JUMP JUMPDEST DUP1 DUP4 MSTORE PUSH1 0x20 DUP4 ADD SWAP2 CALLDATASIZE DUP3 PUSH1 0x5 SHL DUP3 ADD GT PUSH2 0x4B9 JUMPI DUP1 SWAP3 JUMPDEST DUP3 PUSH1 0x5 SHL DUP3 ADD DUP5 LT PUSH2 0x1A71 JUMPI POP POP POP POP PUSH2 0x100 DUP3 ADD MSTORE PUSH2 0xECC PUSH2 0xDE5 PUSH1 0xE4 PUSH1 0x4 CALLDATALOAD ADD PUSH1 0x4 CALLDATALOAD PUSH1 0x4 ADD PUSH2 0x4726 JUMP JUMPDEST PUSH2 0x120 DUP3 ADD MSTORE PUSH2 0xEEA PUSH2 0xDE5 PUSH2 0x104 PUSH1 0x4 CALLDATALOAD ADD PUSH1 0x4 CALLDATALOAD PUSH1 0x4 ADD PUSH2 0x4726 JUMP JUMPDEST PUSH2 0x140 DUP3 ADD MSTORE PUSH2 0xF08 PUSH2 0xDE5 PUSH2 0x124 PUSH1 0x4 CALLDATALOAD ADD PUSH1 0x4 CALLDATALOAD PUSH1 0x4 ADD PUSH2 0x4726 JUMP JUMPDEST PUSH2 0x180 DUP3 ADD MSTORE PUSH2 0xF26 PUSH2 0xDE5 PUSH2 0x144 PUSH1 0x4 CALLDATALOAD ADD PUSH1 0x4 CALLDATALOAD PUSH1 0x4 ADD PUSH2 0x4726 JUMP JUMPDEST PUSH2 0x1A0 DUP3 ADD MSTORE PUSH1 0x4 CALLDATALOAD PUSH2 0x164 DUP2 ADD CALLDATALOAD PUSH2 0x160 DUP4 ADD MSTORE PUSH2 0x184 ADD CALLDATALOAD PUSH2 0x1C0 DUP3 ADD MSTORE CALLER ISZERO PUSH2 0x1A2D JUMPI PUSH1 0x0 DUP3 DUP2 MSTORE PUSH1 0x4 PUSH1 0x20 MSTORE PUSH1 0x40 SWAP1 KECCAK256 SLOAD PUSH2 0xF71 SWAP1 PUSH1 0x1 PUSH1 0x1 PUSH1 0xA0 SHL SUB AND ISZERO ISZERO JUMPDEST ISZERO PUSH2 0x4E3F JUMP JUMPDEST PUSH1 0x0 DUP3 DUP2 MSTORE PUSH1 0x4 PUSH1 0x20 MSTORE PUSH1 0x40 SWAP1 KECCAK256 SLOAD PUSH2 0xF94 SWAP1 PUSH1 0x1 PUSH1 0x1 PUSH1 0xA0 SHL SUB AND ISZERO ISZERO PUSH2 0xF6B JUMP JUMPDEST CALLER PUSH1 0x0 MSTORE PUSH1 0x5 PUSH1 0x20 MSTORE PUSH1 0x40 PUSH1 0x0 KECCAK256 PUSH1 0x1 DUP2 SLOAD ADD SWAP1 SSTORE DUP2 PUSH1 0x0 MSTORE PUSH1 0x4 PUSH1 0x20 MSTORE PUSH1 0x40 PUSH1 0x0 KECCAK256 CALLER PUSH1 0x1 PUSH1 0x1 PUSH1 0x60 SHL SUB PUSH1 0xA0 SHL DUP3 SLOAD AND OR SWAP1 SSTORE DUP2 CALLER PUSH1 0x0 PUSH32 0xDDF252AD1BE2C89B69C2B068FC378DAA952BA7F163C4A11628F55A4DF523B3EF DUP2 DUP1 LOG4 PUSH1 0xE PUSH1 0x20 MSTORE PUSH1 0x40 PUSH1 0x0 KECCAK256 DUP2 MLOAD DUP2 SSTORE PUSH1 0x1 DUP2 ADD PUSH1 0x1 DUP1 PUSH1 0xA0 SHL SUB PUSH1 0x20 DUP5 ADD MLOAD AND PUSH1 0x1 PUSH1 0x1 PUSH1 0x60 SHL SUB PUSH1 0xA0 SHL DUP3 SLOAD AND OR SWAP1 SSTORE PUSH1 0x40 DUP3 ADD MLOAD DUP1 MLOAD SWAP1 PUSH1 0x1 PUSH1 0x1 PUSH1 0x40 SHL SUB DUP3 GT PUSH2 0x1534 JUMPI DUP2 SWAP1 PUSH2 0x1053 DUP3 PUSH2 0x104A PUSH1 0x2 DUP8 ADD SLOAD PUSH2 0x40B4 JUMP JUMPDEST PUSH1 0x2 DUP8 ADD PUSH2 0x4C3E JUMP JUMPDEST PUSH1 0x20 SWAP1 PUSH1 0x1F DUP4 GT PUSH1 0x1 EQ PUSH2 0x19BB JUMPI PUSH1 0x0 SWAP3 PUSH2 0x19B0 JUMPI JUMPDEST POP POP DUP2 PUSH1 0x1 SHL SWAP2 PUSH1 0x0 NOT SWAP1 PUSH1 0x3 SHL SHR NOT AND OR PUSH1 0x2 DUP3 ADD SSTORE JUMPDEST PUSH1 0x60 DUP3 ADD MLOAD DUP1 MLOAD SWAP1 PUSH1 0x1 PUSH1 0x1 PUSH1 0x40 SHL SUB DUP3 GT PUSH2 0x1534 JUMPI DUP2 SWAP1 PUSH2 0x10B3 DUP3 PUSH2 0x10AA PUSH1 0x3 DUP8 ADD SLOAD PUSH2 0x40B4 JUMP JUMPDEST PUSH1 0x3 DUP8 ADD PUSH2 0x4C3E JUMP JUMPDEST PUSH1 0x20 SWAP1 PUSH1 0x1F DUP4 GT PUSH1 0x1 EQ PUSH2 0x193E JUMPI PUSH1 0x0 SWAP3 PUSH2 0x1933 JUMPI JUMPDEST POP POP DUP2 PUSH1 0x1 SHL SWAP2 PUSH1 0x0 NOT SWAP1 PUSH1 0x3 SHL SHR NOT AND OR PUSH1 0x3 DUP3 ADD SSTORE JUMPDEST PUSH1 0x80 DUP3 ADD MLOAD PUSH1 0x4 DUP3 ADD SSTORE PUSH1 0xA0 DUP3 ADD MLOAD PUSH1 0x5 DUP3 ADD SSTORE PUSH1 0xC0 DUP3 ADD MLOAD DUP1 MLOAD SWAP1 PUSH1 0x1 PUSH1 0x1 PUSH1 0x40 SHL SUB DUP3 GT PUSH2 0x1534 JUMPI DUP2 SWAP1 PUSH2 0x1127 DUP3 PUSH2 0x111E PUSH1 0x6 DUP8 ADD SLOAD PUSH2 0x40B4 JUMP JUMPDEST PUSH1 0x6 DUP8 ADD PUSH2 0x4C3E JUMP JUMPDEST PUSH1 0x20 SWAP1 PUSH1 0x1F DUP4 GT PUSH1 0x1 EQ PUSH2 0x18C1 JUMPI PUSH1 0x0 SWAP3 PUSH2 0x18B6 JUMPI JUMPDEST POP POP DUP2 PUSH1 0x1 SHL SWAP2 PUSH1 0x0 NOT SWAP1 PUSH1 0x3 SHL SHR NOT AND OR PUSH1 0x6 DUP3 ADD SSTORE JUMPDEST PUSH1 0xE0 DUP3 ADD MLOAD DUP1 MLOAD SWAP1 PUSH1 0x1 PUSH1 0x1 PUSH1 0x40 SHL SUB DUP3 GT PUSH2 0x1534 JUMPI DUP2 SWAP1 PUSH2 0x1187 DUP3 PUSH2 0x117E PUSH1 0x7 DUP8 ADD SLOAD PUSH2 0x40B4 JUMP JUMPDEST PUSH1 0x7 DUP8 ADD PUSH2 0x4C3E JUMP JUMPDEST PUSH1 0x20 SWAP1 PUSH1 0x1F DUP4 GT PUSH1 0x1 EQ PUSH2 0x1844 JUMPI PUSH1 0x0 SWAP3 PUSH2 0x1839 JUMPI JUMPDEST POP POP DUP2 PUSH1 0x1 SHL SWAP2 PUSH1 0x0 NOT SWAP1 PUSH1 0x3 SHL SHR NOT AND OR PUSH1 0x7 DUP3 ADD SSTORE JUMPDEST PUSH1 0x8 DUP2 ADD PUSH2 0x100 DUP4 ADD MLOAD SWAP1 PUSH1 0x20 DUP3 MLOAD SWAP3 PUSH2 0x11CF DUP5 DUP5 PUSH2 0x4CCC JUMP JUMPDEST ADD SWAP1 PUSH1 0x0 MSTORE PUSH1 0x20 PUSH1 0x0 KECCAK256 PUSH1 0x0 SWAP2 JUMPDEST DUP4 DUP4 LT PUSH2 0x1741 JUMPI POP POP POP POP PUSH2 0x120 DUP3 ADD MLOAD DUP1 MLOAD SWAP1 PUSH1 0x1 PUSH1 0x1 PUSH1 0x40 SHL SUB DUP3 GT PUSH2 0x1534 JUMPI DUP2 SWAP1 PUSH2 0x121B DUP3 PUSH2 0x1212 PUSH1 0x9 DUP8 ADD SLOAD PUSH2 0x40B4 JUMP JUMPDEST PUSH1 0x9 DUP8 ADD PUSH2 0x4C3E JUMP JUMPDEST PUSH1 0x20 SWAP1 PUSH1 0x1F DUP4 GT PUSH1 0x1 EQ PUSH2 0x16CF JUMPI PUSH1 0x0 SWAP3 PUSH2 0x16C4 JUMPI JUMPDEST POP POP DUP2 PUSH1 0x1 SHL SWAP2 PUSH1 0x0 NOT SWAP1 PUSH1 0x3 SHL SHR NOT AND OR PUSH1 0x9 DUP3 ADD SSTORE JUMPDEST PUSH2 0x140 DUP3 ADD MLOAD DUP1 MLOAD SWAP1 PUSH1 0x1 PUSH1 0x1 PUSH1 0x40 SHL SUB DUP3 GT PUSH2 0x1534 JUMPI DUP2 SWAP1 PUSH2 0x127C DUP3 PUSH2 0x1273 PUSH1 0xA DUP8 ADD SLOAD PUSH2 0x40B4 JUMP JUMPDEST PUSH1 0xA DUP8 ADD PUSH2 0x4C3E JUMP JUMPDEST PUSH1 0x20 SWAP1 PUSH1 0x1F DUP4 GT PUSH1 0x1 EQ PUSH2 0x1652 JUMPI PUSH1 0x0 SWAP3 PUSH2 0x1647 JUMPI JUMPDEST POP POP DUP2 PUSH1 0x1 SHL SWAP2 PUSH1 0x0 NOT SWAP1 PUSH1 0x3 SHL SHR NOT AND OR PUSH1 0xA DUP3 ADD SSTORE JUMPDEST PUSH2 0x160 DUP3 ADD MLOAD PUSH1 0xB DUP3 ADD SSTORE PUSH2 0x180 DUP3 ADD MLOAD DUP1 MLOAD SWAP1 PUSH1 0x1 PUSH1 0x1 PUSH1 0x40 SHL SUB DUP3 GT PUSH2 0x1534 JUMPI DUP2 SWAP1 PUSH2 0x12E8 DUP3 PUSH2 0x12DF PUSH1 0xC DUP8 ADD SLOAD PUSH2 0x40B4 JUMP JUMPDEST PUSH1 0xC DUP8 ADD PUSH2 0x4C3E JUMP JUMPDEST PUSH1 0x20 SWAP1 PUSH1 0x1F DUP4 GT PUSH1 0x1 EQ PUSH2 0x15D5 JUMPI PUSH1 0x0 SWAP3 PUSH2 0x15CA JUMPI JUMPDEST POP POP DUP2 PUSH1 0x1 SHL SWAP2 PUSH1 0x0 NOT SWAP1 PUSH1 0x3 SHL SHR NOT AND OR PUSH1 0xC DUP3 ADD SSTORE JUMPDEST PUSH2 0x1A0 DUP3 ADD MLOAD DUP1 MLOAD SWAP1 PUSH1 0x1 PUSH1 0x1 PUSH1 0x40 SHL SUB DUP3 GT PUSH2 0x1534 JUMPI PUSH2 0x1347 DUP3 PUSH2 0x133E PUSH1 0xD DUP7 ADD SLOAD PUSH2 0x40B4 JUMP JUMPDEST PUSH1 0xD DUP7 ADD PUSH2 0x4C3E JUMP JUMPDEST PUSH1 0x20 SWAP1 PUSH1 0x1F DUP4 GT PUSH1 0x1 EQ PUSH2 0x1554 JUMPI SWAP2 DUP1 PUSH2 0x240 SWAP5 SWAP3 PUSH1 0x10 SWAP5 PUSH1 0x0 SWAP3 PUSH2 0x1549 JUMPI JUMPDEST POP POP DUP2 PUSH1 0x1 SHL SWAP2 PUSH1 0x0 NOT SWAP1 PUSH1 0x3 SHL SHR NOT AND OR PUSH1 0xD DUP3 ADD SSTORE JUMPDEST PUSH2 0x1C0 DUP5 ADD MLOAD PUSH1 0xE DUP3 ADD SSTORE PUSH1 0xF DUP2 ADD PUSH2 0x13AB PUSH2 0x1E0 DUP7 ADD MLOAD ISZERO ISZERO DUP3 SWAP1 PUSH1 0xFF DUP1 NOT DUP4 SLOAD AND SWAP2 ISZERO ISZERO AND OR SWAP1 SSTORE JUMP JUMPDEST PUSH2 0x200 DUP6 ADD MLOAD ISZERO ISZERO DUP2 SLOAD PUSH2 0xFF00 PUSH3 0xFF0000 PUSH2 0x220 DUP10 ADD MLOAD ISZERO ISZERO DUP8 SHL AND SWAP3 PUSH1 0x8 SHL AND SWAP1 PUSH3 0xFFFF00 NOT AND OR OR SWAP1 SSTORE ADD SWAP2 ADD MLOAD SWAP1 DUP2 MLOAD SWAP1 PUSH1 0x1 PUSH1 0x40 SHL SWAP3 DUP4 DUP4 GT PUSH2 0x1534 JUMPI DUP2 SLOAD DUP4 DUP4 SSTORE DUP1 DUP5 LT PUSH2 0x14A4 JUMPI JUMPDEST POP PUSH1 0x20 ADD SWAP1 PUSH1 0x0 MSTORE PUSH1 0x20 PUSH1 0x0 KECCAK256 PUSH1 0x0 SWAP2 JUMPDEST DUP4 DUP4 LT PUSH2 0x1486 JUMPI POP POP POP POP DUP2 PUSH1 0x0 MSTORE PUSH1 0xF PUSH1 0x20 MSTORE PUSH1 0x40 PUSH1 0x0 KECCAK256 PUSH1 0x1 PUSH1 0xFF NOT DUP3 SLOAD AND OR SWAP1 SSTORE CALLER PUSH1 0x0 MSTORE PUSH1 0x10 PUSH1 0x20 MSTORE PUSH1 0x40 PUSH1 0x0 KECCAK256 DUP1 SLOAD SWAP2 DUP3 LT ISZERO PUSH2 0x1471 JUMPI SWAP1 PUSH2 0x1456 SWAP2 PUSH1 0x1 DUP3 ADD DUP2 SSTORE PUSH2 0x4194 JUMP JUMPDEST DUP2 SWAP3 SWAP2 SLOAD SWAP1 PUSH1 0x3 SHL SWAP2 DUP3 SHL SWAP2 PUSH1 0x0 NOT SWAP1 SHL NOT AND OR SWAP1 SSTORE PUSH1 0x0 DUP1 RETURN JUMPDEST DUP4 PUSH4 0x4E487B71 PUSH1 0xE0 SHL PUSH1 0x0 MSTORE PUSH1 0x41 PUSH1 0x4 MSTORE PUSH1 0x0 REVERT JUMPDEST PUSH1 0x5 PUSH1 0x20 DUP3 PUSH2 0x1498 PUSH1 0x1 SWAP5 MLOAD DUP7 PUSH2 0x4D15 JUMP JUMPDEST ADD SWAP3 ADD SWAP3 ADD SWAP2 SWAP1 PUSH2 0x140A JUMP JUMPDEST DUP1 PUSH1 0x5 MUL SWAP1 PUSH1 0x5 DUP3 DIV SUB PUSH2 0x151F JUMPI DUP4 PUSH1 0x5 MUL PUSH1 0x5 DUP2 DIV DUP6 SUB PUSH2 0x150A JUMPI DUP4 PUSH1 0x0 MSTORE PUSH1 0x20 PUSH1 0x0 KECCAK256 SWAP2 DUP3 ADD SWAP2 ADD JUMPDEST DUP2 DUP2 LT PUSH2 0x14DC JUMPI POP PUSH2 0x13F9 JUMP JUMPDEST DUP1 PUSH1 0x0 PUSH1 0x5 SWAP3 SSTORE PUSH1 0x0 PUSH1 0x1 DUP3 ADD SSTORE PUSH1 0x0 PUSH1 0x2 DUP3 ADD SSTORE PUSH2 0x14FD PUSH1 0x3 DUP3 ADD PUSH2 0x4C83 JUMP JUMPDEST PUSH1 0x0 PUSH1 0x4 DUP3 ADD SSTORE ADD PUSH2 0x14CF JUMP JUMPDEST DUP8 PUSH4 0x4E487B71 PUSH1 0xE0 SHL PUSH1 0x0 MSTORE PUSH1 0x11 PUSH1 0x4 MSTORE PUSH1 0x0 REVERT JUMPDEST DUP7 PUSH4 0x4E487B71 PUSH1 0xE0 SHL PUSH1 0x0 MSTORE PUSH1 0x11 PUSH1 0x4 MSTORE PUSH1 0x0 REVERT JUMPDEST DUP6 PUSH4 0x4E487B71 PUSH1 0xE0 SHL PUSH1 0x0 MSTORE PUSH1 0x41 PUSH1 0x4 MSTORE PUSH1 0x0 REVERT JUMPDEST ADD MLOAD SWAP1 POP DUP9 DUP1 PUSH2 0x1367 JUMP JUMPDEST SWAP1 PUSH1 0xD DUP5 ADD PUSH1 0x0 MSTORE PUSH1 0x20 PUSH1 0x0 KECCAK256 SWAP2 PUSH1 0x0 JUMPDEST PUSH1 0x1F NOT DUP6 AND DUP2 LT PUSH2 0x15B2 JUMPI POP SWAP3 PUSH2 0x240 SWAP5 SWAP3 PUSH1 0x1 SWAP3 PUSH1 0x10 SWAP6 DUP4 PUSH1 0x1F NOT DUP2 AND LT PUSH2 0x1599 JUMPI JUMPDEST POP POP POP DUP2 SHL ADD PUSH1 0xD DUP3 ADD SSTORE PUSH2 0x137F JUMP JUMPDEST ADD MLOAD PUSH1 0x0 NOT PUSH1 0xF8 DUP5 PUSH1 0x3 SHL AND SHR NOT AND SWAP1 SSTORE DUP9 DUP1 DUP1 PUSH2 0x1589 JUMP JUMPDEST SWAP2 SWAP3 PUSH1 0x20 PUSH1 0x1 DUP2 SWAP3 DUP7 DUP6 ADD MLOAD DUP2 SSTORE ADD SWAP5 ADD SWAP3 ADD PUSH2 0x1565 JUMP JUMPDEST ADD MLOAD SWAP1 POP DUP7 DUP1 PUSH2 0x12FE JUMP JUMPDEST SWAP3 POP PUSH1 0xC DUP5 ADD PUSH1 0x0 MSTORE PUSH1 0x20 PUSH1 0x0 KECCAK256 SWAP1 PUSH1 0x0 SWAP4 JUMPDEST PUSH1 0x1F NOT DUP5 AND DUP6 LT PUSH2 0x162C JUMPI PUSH1 0x1 SWAP5 POP DUP4 PUSH1 0x1F NOT DUP2 AND LT PUSH2 0x1613 JUMPI JUMPDEST POP POP POP DUP2 SHL ADD PUSH1 0xC DUP3 ADD SSTORE PUSH2 0x1316 JUMP JUMPDEST ADD MLOAD PUSH1 0x0 NOT PUSH1 0xF8 DUP5 PUSH1 0x3 SHL AND SHR NOT AND SWAP1 SSTORE DUP7 DUP1 DUP1 PUSH2 0x1603 JUMP JUMPDEST DUP2 DUP2 ADD MLOAD DUP4 SSTORE PUSH1 0x20 SWAP5 DUP6 ADD SWAP5 PUSH1 0x1 SWAP1 SWAP4 ADD SWAP3 SWAP1 SWAP2 ADD SWAP1 PUSH2 0x15E8 JUMP JUMPDEST ADD MLOAD SWAP1 POP DUP7 DUP1 PUSH2 0x1292 JUMP JUMPDEST SWAP3 POP PUSH1 0xA DUP5 ADD PUSH1 0x0 MSTORE PUSH1 0x20 PUSH1 0x0 KECCAK256 SWAP1 PUSH1 0x0 SWAP4 JUMPDEST PUSH1 0x1F NOT DUP5 AND DUP6 LT PUSH2 0x16A9 JUMPI PUSH1 0x1 SWAP5 POP DUP4 PUSH1 0x1F NOT DUP2 AND LT PUSH2 0x1690 JUMPI JUMPDEST POP POP POP DUP2 SHL ADD PUSH1 0xA DUP3 ADD SSTORE PUSH2 0x12AA JUMP JUMPDEST ADD MLOAD PUSH1 0x0 NOT PUSH1 0xF8 DUP5 PUSH1 0x3 SHL AND SHR NOT AND SWAP1 SSTORE DUP7 DUP1 DUP1 PUSH2 0x1680 JUMP JUMPDEST DUP2 DUP2 ADD MLOAD DUP4 SSTORE PUSH1 0x20 SWAP5 DUP6 ADD SWAP5 PUSH1 0x1 SWAP1 SWAP4 ADD SWAP3 SWAP1 SWAP2 ADD SWAP1 PUSH2 0x1665 JUMP JUMPDEST ADD MLOAD SWAP1 POP DUP7 DUP1 PUSH2 0x1231 JUMP JUMPDEST SWAP3 POP PUSH1 0x9 DUP5 ADD PUSH1 0x0 MSTORE PUSH1 0x20 PUSH1 0x0 KECCAK256 SWAP1 PUSH1 0x0 SWAP4 JUMPDEST PUSH1 0x1F NOT DUP5 AND DUP6 LT PUSH2 0x1726 JUMPI PUSH1 0x1 SWAP5 POP DUP4 PUSH1 0x1F NOT DUP2 AND LT PUSH2 0x170D JUMPI JUMPDEST POP POP POP DUP2 SHL ADD PUSH1 0x9 DUP3 ADD SSTORE PUSH2 0x1249 JUMP JUMPDEST ADD MLOAD PUSH1 0x0 NOT PUSH1 0xF8 DUP5 PUSH1 0x3 SHL AND SHR NOT AND SWAP1 SSTORE DUP7 DUP1 DUP1 PUSH2 0x16FD JUMP JUMPDEST DUP2 DUP2 ADD MLOAD DUP4 SSTORE PUSH1 0x20 SWAP5 DUP6 ADD SWAP5 PUSH1 0x1 SWAP1 SWAP4 ADD SWAP3 SWAP1 SWAP2 ADD SWAP1 PUSH2 0x16E2 JUMP JUMPDEST DUP1 MLOAD DUP1 MLOAD SWAP1 PUSH1 0x1 PUSH1 0x1 PUSH1 0x40 SHL SUB DUP3 GT PUSH2 0x1824 JUMPI PUSH2 0x1768 DUP3 PUSH2 0x1762 DUP7 SLOAD PUSH2 0x40B4 JUMP JUMPDEST DUP7 PUSH2 0x4C3E JUMP JUMPDEST PUSH1 0x20 SWAP1 PUSH1 0x1F DUP4 GT PUSH1 0x1 EQ PUSH2 0x17B4 JUMPI SWAP3 DUP3 PUSH1 0x1 SWAP5 SWAP4 PUSH1 0x20 SWAP4 DUP7 SWAP6 PUSH1 0x0 SWAP3 PUSH2 0x17A9 JUMPI JUMPDEST POP POP PUSH1 0x0 NOT PUSH1 0x3 DUP4 SWAP1 SHL SHR NOT AND SWAP1 DUP5 SHL OR DUP6 SSTORE JUMPDEST ADD SWAP3 ADD SWAP3 ADD SWAP2 SWAP1 PUSH2 0x11DD JUMP JUMPDEST ADD MLOAD SWAP1 POP DUP14 DUP1 PUSH2 0x1789 JUMP JUMPDEST SWAP1 DUP5 PUSH1 0x0 MSTORE PUSH1 0x20 PUSH1 0x0 KECCAK256 SWAP2 PUSH1 0x0 JUMPDEST PUSH1 0x1F NOT DUP6 AND DUP2 LT PUSH2 0x180C JUMPI POP DUP4 PUSH1 0x20 SWAP4 PUSH1 0x1 SWAP7 SWAP4 DUP8 SWAP7 SWAP4 DUP8 SWAP5 PUSH1 0x1F NOT DUP2 AND LT PUSH2 0x17F3 JUMPI JUMPDEST POP POP POP DUP2 SHL ADD DUP6 SSTORE PUSH2 0x179D JUMP JUMPDEST ADD MLOAD PUSH1 0x0 NOT PUSH1 0xF8 DUP5 PUSH1 0x3 SHL AND SHR NOT AND SWAP1 SSTORE DUP14 DUP1 DUP1 PUSH2 0x17E6 JUMP JUMPDEST SWAP2 SWAP3 PUSH1 0x20 PUSH1 0x1 DUP2 SWAP3 DUP7 DUP6 ADD MLOAD DUP2 SSTORE ADD SWAP5 ADD SWAP3 ADD PUSH2 0x17C2 JUMP JUMPDEST DUP10 PUSH4 0x4E487B71 PUSH1 0xE0 SHL PUSH1 0x0 MSTORE PUSH1 0x41 PUSH1 0x4 MSTORE PUSH1 0x0 REVERT JUMPDEST ADD MLOAD SWAP1 POP DUP7 DUP1 PUSH2 0x119D JUMP JUMPDEST SWAP3 POP PUSH1 0x7 DUP5 ADD PUSH1 0x0 MSTORE PUSH1 0x20 PUSH1 0x0 KECCAK256 SWAP1 PUSH1 0x0 SWAP4 JUMPDEST PUSH1 0x1F NOT DUP5 AND DUP6 LT PUSH2 0x189B JUMPI PUSH1 0x1 SWAP5 POP DUP4 PUSH1 0x1F NOT DUP2 AND LT PUSH2 0x1882 JUMPI JUMPDEST POP POP POP DUP2 SHL ADD PUSH1 0x7 DUP3 ADD SSTORE PUSH2 0x11B5 JUMP JUMPDEST ADD MLOAD PUSH1 0x0 NOT PUSH1 0xF8 DUP5 PUSH1 0x3 SHL AND SHR NOT AND SWAP1 SSTORE DUP7 DUP1 DUP1 PUSH2 0x1872 JUMP JUMPDEST DUP2 DUP2 ADD MLOAD DUP4 SSTORE PUSH1 0x20 SWAP5 DUP6 ADD SWAP5 PUSH1 0x1 SWAP1 SWAP4 ADD SWAP3 SWAP1 SWAP2 ADD SWAP1 PUSH2 0x1857 JUMP JUMPDEST ADD MLOAD SWAP1 POP DUP7 DUP1 PUSH2 0x113D JUMP JUMPDEST SWAP3 POP PUSH1 0x6 DUP5 ADD PUSH1 0x0 MSTORE PUSH1 0x20 PUSH1 0x0 KECCAK256 SWAP1 PUSH1 0x0 SWAP4 JUMPDEST PUSH1 0x1F NOT DUP5 AND DUP6 LT PUSH2 0x1918 JUMPI PUSH1 0x1 SWAP5 POP DUP4 PUSH1 0x1F NOT DUP2 AND LT PUSH2 0x18FF JUMPI JUMPDEST POP POP POP DUP2 SHL ADD PUSH1 0x6 DUP3 ADD SSTORE PUSH2 0x1155 JUMP JUMPDEST ADD MLOAD PUSH1 0x0 NOT PUSH1 0xF8 DUP5 PUSH1 0x3 SHL AND SHR NOT AND SWAP1 SSTORE DUP7 DUP1 DUP1 PUSH2 0x18EF JUMP JUMPDEST DUP2 DUP2 ADD MLOAD DUP4 SSTORE PUSH1 0x20 SWAP5 DUP6 ADD SWAP5 PUSH1 0x1 SWAP1 SWAP4 ADD SWAP3 SWAP1 SWAP2 ADD SWAP1 PUSH2 0x18D4 JUMP JUMPDEST ADD MLOAD SWAP1 POP DUP7 DUP1 PUSH2 0x10C9 JUMP JUMPDEST SWAP3 POP PUSH1 0x3 DUP5 ADD PUSH1 0x0 MSTORE PUSH1 0x20 PUSH1 0x0 KECCAK256 SWAP1 PUSH1 0x0 SWAP4 JUMPDEST PUSH1 0x1F NOT DUP5 AND DUP6 LT PUSH2 0x1995 JUMPI PUSH1 0x1 SWAP5 POP DUP4 PUSH1 0x1F NOT DUP2 AND LT PUSH2 0x197C JUMPI JUMPDEST POP POP POP DUP2 SHL ADD PUSH1 0x3 DUP3 ADD SSTORE PUSH2 0x10E1 JUMP JUMPDEST ADD MLOAD PUSH1 0x0 NOT PUSH1 0xF8 DUP5 PUSH1 0x3 SHL AND SHR NOT AND SWAP1 SSTORE DUP7 DUP1 DUP1 PUSH2 0x196C JUMP JUMPDEST DUP2 DUP2 ADD MLOAD DUP4 SSTORE PUSH1 0x20 SWAP5 DUP6 ADD SWAP5 PUSH1 0x1 SWAP1 SWAP4 ADD SWAP3 SWAP1 SWAP2 ADD SWAP1 PUSH2 0x1951 JUMP JUMPDEST ADD MLOAD SWAP1 POP DUP7 DUP1 PUSH2 0x1069 JUMP JUMPDEST SWAP3 POP PUSH1 0x2 DUP5 ADD PUSH1 0x0 MSTORE PUSH1 0x20 PUSH1 0x0 KECCAK256 SWAP1 PUSH1 0x0 SWAP4 JUMPDEST PUSH1 0x1F NOT DUP5 AND DUP6 LT PUSH2 0x1A12 JUMPI PUSH1 0x1 SWAP5 POP DUP4 PUSH1 0x1F NOT DUP2 AND LT PUSH2 0x19F9 JUMPI JUMPDEST POP POP POP DUP2 SHL ADD PUSH1 0x2 DUP3 ADD SSTORE PUSH2 0x1081 JUMP JUMPDEST ADD MLOAD PUSH1 0x0 NOT PUSH1 0xF8 DUP5 PUSH1 0x3 SHL AND SHR NOT AND SWAP1 SSTORE DUP7 DUP1 DUP1 PUSH2 0x19E9 JUMP JUMPDEST DUP2 DUP2 ADD MLOAD DUP4 SSTORE PUSH1 0x20 SWAP5 DUP6 ADD SWAP5 PUSH1 0x1 SWAP1 SWAP4 ADD SWAP3 SWAP1 SWAP2 ADD SWAP1 PUSH2 0x19CE JUMP JUMPDEST PUSH1 0x40 MLOAD PUSH3 0x461BCD PUSH1 0xE5 SHL DUP2 MSTORE PUSH1 0x20 PUSH1 0x4 DUP3 ADD DUP2 SWAP1 MSTORE DUP2 DUP6 ADD MSTORE PUSH32 0x4552433732313A206D696E7420746F20746865207A65726F2061646472657373 PUSH1 0x44 DUP3 ADD MSTORE PUSH1 0x64 SWAP1 REVERT JUMPDEST PUSH1 0x1 PUSH1 0x1 PUSH1 0x40 SHL SUB DUP5 CALLDATALOAD GT PUSH2 0x4B9 JUMPI PUSH1 0x20 DUP1 SWAP2 PUSH2 0x1A91 CALLDATASIZE DUP8 CALLDATALOAD DUP7 ADD PUSH2 0x4051 JUMP JUMPDEST DUP2 MSTORE ADD SWAP4 ADD SWAP3 PUSH2 0xE9F JUMP JUMPDEST PUSH1 0x0 SLOAD PUSH1 0x1 PUSH1 0x1 PUSH1 0xA0 SHL SUB AND EQ SWAP1 POP DUP3 PUSH2 0x5E3 JUMP JUMPDEST POP PUSH1 0xC PUSH1 0x20 MSTORE PUSH1 0xFF PUSH1 0x40 PUSH1 0x0 KECCAK256 SLOAD AND PUSH1 0x4 DUP2 LT ISZERO PUSH2 0x715 JUMPI PUSH1 0x2 EQ DUP1 ISZERO PUSH2 0x1AE1 JUMPI JUMPDEST PUSH2 0x1ADC SWAP1 PUSH2 0x46CC JUMP JUMPDEST PUSH2 0xC34 JUMP JUMPDEST POP PUSH1 0x0 SLOAD PUSH1 0x1 PUSH1 0x1 PUSH1 0xA0 SHL SUB AND CALLER EQ PUSH2 0x1AD3 JUMP JUMPDEST CALLVALUE PUSH2 0x4B9 JUMPI PUSH1 0x3 NOT PUSH1 0x40 CALLDATASIZE DUP3 ADD SLT PUSH2 0x4B9 JUMPI PUSH1 0x1 PUSH1 0x1 PUSH1 0x40 SHL SUB PUSH1 0x24 CALLDATALOAD GT PUSH2 0x4B9 JUMPI PUSH2 0x1A0 SWAP1 PUSH1 0x24 CALLDATALOAD CALLDATASIZE SUB ADD SLT PUSH2 0x4B9 JUMPI CALLER PUSH1 0x0 SWAP1 DUP2 MSTORE PUSH1 0xD PUSH1 0x20 MSTORE PUSH1 0x40 SWAP1 KECCAK256 SLOAD PUSH1 0x1 PUSH1 0x1 PUSH1 0xA0 SHL SUB SWAP1 DUP2 AND DUP1 ISZERO PUSH2 0x2633 JUMPI DUP1 PUSH1 0x0 MSTORE PUSH1 0xC PUSH1 0x20 MSTORE PUSH1 0xFF PUSH1 0x40 PUSH1 0x0 KECCAK256 SLOAD AND SWAP1 PUSH1 0x4 DUP3 LT ISZERO PUSH2 0x715 JUMPI PUSH1 0x2 PUSH2 0x1B77 SWAP3 EQ SWAP1 DUP2 ISZERO PUSH2 0x2625 JUMPI POP PUSH2 0x46CC JUMP JUMPDEST PUSH1 0x4 CALLDATALOAD PUSH1 0x0 MSTORE PUSH1 0xE PUSH1 0x20 MSTORE CALLER SWAP1 PUSH1 0x1 PUSH1 0x40 PUSH1 0x0 KECCAK256 ADD SLOAD AND SUB PUSH2 0x25CF JUMPI PUSH1 0x4 CALLDATALOAD PUSH1 0x0 MSTORE PUSH1 0xF PUSH1 0x20 MSTORE PUSH2 0x1BAF PUSH1 0xFF PUSH1 0x40 PUSH1 0x0 KECCAK256 SLOAD AND PUSH2 0x4E8B JUMP JUMPDEST PUSH1 0x4 CALLDATALOAD PUSH1 0x0 MSTORE PUSH1 0xE PUSH1 0x20 MSTORE PUSH2 0x1BD2 PUSH1 0xFF PUSH1 0xF PUSH1 0x40 PUSH1 0x0 KECCAK256 ADD SLOAD PUSH1 0x10 SHR AND ISZERO PUSH2 0x4ED0 JUMP JUMPDEST PUSH2 0x1BE4 PUSH2 0xC45 PUSH1 0x4 PUSH1 0x24 CALLDATALOAD ADD DUP1 PUSH2 0x4726 JUMP JUMPDEST PUSH2 0x1BFA PUSH2 0xC66 PUSH1 0x24 DUP1 CALLDATALOAD ADD PUSH1 0x24 CALLDATALOAD PUSH1 0x4 ADD PUSH2 0x4726 JUMP JUMPDEST PUSH2 0x1C0B PUSH1 0x44 PUSH1 0x24 CALLDATALOAD ADD CALLDATALOAD ISZERO ISZERO PUSH2 0x47E7 JUMP JUMPDEST PUSH2 0x1C22 PUSH2 0xCC8 PUSH1 0xC4 PUSH1 0x24 CALLDATALOAD ADD PUSH1 0x24 CALLDATALOAD PUSH1 0x4 ADD PUSH2 0x48C3 JUMP JUMPDEST PUSH2 0x1C3B PUSH1 0x5 PUSH2 0xCEA PUSH1 0xC4 PUSH1 0x24 CALLDATALOAD ADD PUSH1 0x24 CALLDATALOAD PUSH1 0x4 ADD PUSH2 0x48C3 JUMP JUMPDEST PUSH2 0x1C4C PUSH1 0x64 PUSH1 0x24 CALLDATALOAD ADD CALLDATALOAD ISZERO ISZERO PUSH2 0x4833 JUMP JUMPDEST PUSH2 0x1C63 PUSH2 0xCA8 PUSH1 0x84 PUSH1 0x24 CALLDATALOAD ADD PUSH1 0x24 CALLDATALOAD PUSH1 0x4 ADD PUSH2 0x4726 JUMP JUMPDEST PUSH2 0x1C7A PUSH2 0xD09 PUSH1 0xA4 PUSH1 0x24 CALLDATALOAD ADD PUSH1 0x24 CALLDATALOAD PUSH1 0x4 ADD PUSH2 0x4726 JUMP JUMPDEST PUSH2 0x1C91 PUSH2 0xD29 PUSH1 0xE4 PUSH1 0x24 CALLDATALOAD ADD PUSH1 0x24 CALLDATALOAD PUSH1 0x4 ADD PUSH2 0x4726 JUMP JUMPDEST PUSH2 0x1CA9 PUSH2 0xD4A PUSH2 0x104 PUSH1 0x24 CALLDATALOAD ADD PUSH1 0x24 CALLDATALOAD PUSH1 0x4 ADD PUSH2 0x4726 JUMP JUMPDEST PUSH2 0x1CC1 PUSH2 0xD6B PUSH2 0x124 PUSH1 0x24 CALLDATALOAD ADD PUSH1 0x24 CALLDATALOAD PUSH1 0x4 ADD PUSH2 0x4726 JUMP JUMPDEST PUSH2 0x1CD9 PUSH2 0xD8C PUSH2 0x144 PUSH1 0x24 CALLDATALOAD ADD PUSH1 0x24 CALLDATALOAD PUSH1 0x4 ADD PUSH2 0x4726 JUMP JUMPDEST PUSH2 0x1CEB PUSH2 0x164 PUSH1 0x24 CALLDATALOAD ADD CALLDATALOAD ISZERO ISZERO PUSH2 0x4AEC JUMP JUMPDEST PUSH2 0x1CFD PUSH2 0x184 PUSH1 0x24 CALLDATALOAD ADD CALLDATALOAD ISZERO ISZERO PUSH2 0x4B38 JUMP JUMPDEST PUSH2 0x1D0C PUSH1 0x4 PUSH1 0x24 CALLDATALOAD ADD DUP1 PUSH2 0x4726 JUMP JUMPDEST PUSH1 0x4 CALLDATALOAD PUSH1 0x0 MSTORE PUSH1 0xE PUSH1 0x20 MSTORE PUSH1 0x2 PUSH1 0x40 PUSH1 0x0 KECCAK256 ADD SWAP1 PUSH1 0x1 PUSH1 0x1 PUSH1 0x40 SHL SUB DUP2 GT PUSH2 0x219D JUMPI PUSH2 0x1D42 DUP2 PUSH2 0x1D3C DUP5 SLOAD PUSH2 0x40B4 JUMP JUMPDEST DUP5 PUSH2 0x4C3E JUMP JUMPDEST PUSH1 0x0 SWAP3 PUSH1 0x1F DUP3 GT PUSH1 0x1 EQ PUSH2 0x2566 JUMPI SWAP3 DUP2 SWAP3 SWAP4 PUSH1 0x0 SWAP3 PUSH2 0x255B JUMPI JUMPDEST POP POP DUP2 PUSH1 0x1 SHL SWAP2 PUSH1 0x0 NOT SWAP1 PUSH1 0x3 SHL SHR NOT AND OR SWAP1 SSTORE JUMPDEST PUSH2 0x1D84 PUSH1 0x24 DUP1 CALLDATALOAD ADD PUSH1 0x24 CALLDATALOAD PUSH1 0x4 ADD PUSH2 0x4726 JUMP JUMPDEST PUSH1 0x4 CALLDATALOAD PUSH1 0x0 MSTORE PUSH1 0xE PUSH1 0x20 MSTORE PUSH1 0x3 PUSH1 0x40 PUSH1 0x0 KECCAK256 ADD SWAP1 PUSH1 0x1 PUSH1 0x1 PUSH1 0x40 SHL SUB DUP2 GT PUSH2 0x219D JUMPI PUSH2 0x1DB4 DUP2 PUSH2 0x1D3C DUP5 SLOAD PUSH2 0x40B4 JUMP JUMPDEST PUSH1 0x0 SWAP3 PUSH1 0x1F DUP3 GT PUSH1 0x1 EQ PUSH2 0x24F2 JUMPI SWAP3 DUP2 SWAP3 SWAP4 PUSH1 0x0 SWAP3 PUSH2 0x24E7 JUMPI JUMPDEST POP POP DUP2 PUSH1 0x1 SHL SWAP2 PUSH1 0x0 NOT SWAP1 PUSH1 0x3 SHL SHR NOT AND OR SWAP1 SSTORE JUMPDEST PUSH1 0x4 CALLDATALOAD PUSH1 0x0 MSTORE PUSH1 0xE PUSH1 0x20 MSTORE PUSH1 0x40 PUSH1 0x0 KECCAK256 PUSH1 0x44 PUSH1 0x24 CALLDATALOAD ADD CALLDATALOAD PUSH1 0x4 DUP3 ADD SSTORE PUSH1 0x64 PUSH1 0x24 CALLDATALOAD ADD CALLDATALOAD PUSH1 0x5 DUP3 ADD SSTORE PUSH2 0x1E1F PUSH1 0x84 PUSH1 0x24 CALLDATALOAD ADD PUSH1 0x24 CALLDATALOAD PUSH1 0x4 ADD PUSH2 0x4726 JUMP JUMPDEST SWAP1 PUSH1 0x1 PUSH1 0x1 PUSH1 0x40 SHL SUB DUP3 GT PUSH2 0x219D JUMPI PUSH2 0x1E48 DUP3 PUSH2 0x1E3F PUSH1 0x6 DUP7 ADD SLOAD PUSH2 0x40B4 JUMP JUMPDEST PUSH1 0x6 DUP7 ADD PUSH2 0x4C3E JUMP JUMPDEST PUSH1 0x0 SWAP1 PUSH1 0x1F DUP4 GT PUSH1 0x1 EQ PUSH2 0x2477 JUMPI PUSH1 0x6 SWAP3 SWAP2 PUSH1 0x0 SWAP2 DUP4 PUSH2 0x246C JUMPI JUMPDEST POP POP DUP2 PUSH1 0x1 SHL SWAP2 PUSH1 0x0 NOT SWAP1 PUSH1 0x3 SHL SHR NOT AND OR SWAP2 ADD SSTORE JUMPDEST PUSH2 0x1E8D PUSH1 0xA4 PUSH1 0x24 CALLDATALOAD ADD PUSH1 0x24 CALLDATALOAD PUSH1 0x4 ADD PUSH2 0x4726 JUMP JUMPDEST PUSH1 0x4 CALLDATALOAD PUSH1 0x0 MSTORE PUSH1 0xE PUSH1 0x20 MSTORE PUSH1 0x7 PUSH1 0x40 PUSH1 0x0 KECCAK256 ADD SWAP1 PUSH1 0x1 PUSH1 0x1 PUSH1 0x40 SHL SUB DUP2 GT PUSH2 0x219D JUMPI PUSH2 0x1EBD DUP2 PUSH2 0x1D3C DUP5 SLOAD PUSH2 0x40B4 JUMP JUMPDEST PUSH1 0x0 SWAP3 PUSH1 0x1F DUP3 GT PUSH1 0x1 EQ PUSH2 0x2403 JUMPI SWAP3 DUP2 SWAP3 SWAP4 PUSH1 0x0 SWAP3 PUSH2 0x23F8 JUMPI JUMPDEST POP POP DUP2 PUSH1 0x1 SHL SWAP2 PUSH1 0x0 NOT SWAP1 PUSH1 0x3 SHL SHR NOT AND OR SWAP1 SSTORE JUMPDEST PUSH2 0x1F00 PUSH1 0xC4 PUSH1 0x24 CALLDATALOAD ADD PUSH1 0x24 CALLDATALOAD PUSH1 0x4 ADD PUSH2 0x48C3 JUMP JUMPDEST PUSH1 0x4 CALLDATALOAD PUSH1 0x0 MSTORE PUSH1 0xE PUSH1 0x20 MSTORE PUSH1 0x8 PUSH1 0x40 PUSH1 0x0 KECCAK256 ADD SWAP2 PUSH2 0x1F1E DUP3 DUP5 PUSH2 0x4CCC JUMP JUMPDEST PUSH1 0x0 SWAP3 DUP4 MSTORE PUSH1 0x20 DUP4 KECCAK256 SWAP1 DUP1 JUMPDEST DUP4 DUP6 LT PUSH2 0x230F JUMPI PUSH2 0x1F45 PUSH1 0xE4 PUSH1 0x24 CALLDATALOAD ADD PUSH1 0x24 CALLDATALOAD PUSH1 0x4 ADD PUSH2 0x4726 JUMP JUMPDEST PUSH1 0x4 CALLDATALOAD PUSH1 0x0 MSTORE PUSH1 0xE PUSH1 0x20 MSTORE PUSH1 0x9 PUSH1 0x40 PUSH1 0x0 KECCAK256 ADD SWAP1 PUSH1 0x1 PUSH1 0x1 PUSH1 0x40 SHL SUB DUP2 GT PUSH2 0x219D JUMPI PUSH2 0x1F75 DUP2 PUSH2 0x1D3C DUP5 SLOAD PUSH2 0x40B4 JUMP JUMPDEST PUSH1 0x0 SWAP3 PUSH1 0x1F DUP3 GT PUSH1 0x1 EQ PUSH2 0x22A6 JUMPI SWAP3 DUP2 SWAP3 SWAP4 PUSH1 0x0 SWAP3 PUSH2 0x229B JUMPI JUMPDEST POP POP DUP2 PUSH1 0x1 SHL SWAP2 PUSH1 0x0 NOT SWAP1 PUSH1 0x3 SHL SHR NOT AND OR SWAP1 SSTORE JUMPDEST PUSH2 0x1FB9 PUSH2 0x104 PUSH1 0x24 CALLDATALOAD ADD PUSH1 0x24 CALLDATALOAD PUSH1 0x4 ADD PUSH2 0x4726 JUMP JUMPDEST PUSH1 0x4 CALLDATALOAD PUSH1 0x0 MSTORE PUSH1 0xE PUSH1 0x20 MSTORE PUSH1 0xA PUSH1 0x40 PUSH1 0x0 KECCAK256 ADD SWAP1 PUSH1 0x1 PUSH1 0x1 PUSH1 0x40 SHL SUB DUP2 GT PUSH2 0x219D JUMPI PUSH2 0x1FE9 DUP2 PUSH2 0x1D3C DUP5 SLOAD PUSH2 0x40B4 JUMP JUMPDEST PUSH1 0x0 SWAP3 PUSH1 0x1F DUP3 GT PUSH1 0x1 EQ PUSH2 0x2232 JUMPI SWAP3 DUP2 SWAP3 SWAP4 PUSH1 0x0 SWAP3 PUSH2 0x2227 JUMPI JUMPDEST POP POP DUP2 PUSH1 0x1 SHL SWAP2 PUSH1 0x0 NOT SWAP1 PUSH1 0x3 SHL SHR NOT AND OR SWAP1 SSTORE JUMPDEST PUSH2 0x202D PUSH2 0x124 PUSH1 0x24 CALLDATALOAD ADD PUSH1 0x24 CALLDATALOAD PUSH1 0x4 ADD PUSH2 0x4726 JUMP JUMPDEST PUSH1 0x4 CALLDATALOAD PUSH1 0x0 MSTORE PUSH1 0xE PUSH1 0x20 MSTORE PUSH1 0xC PUSH1 0x40 PUSH1 0x0 KECCAK256 ADD SWAP1 PUSH1 0x1 PUSH1 0x1 PUSH1 0x40 SHL SUB DUP2 GT PUSH2 0x219D JUMPI PUSH2 0x205D DUP2 PUSH2 0x1D3C DUP5 SLOAD PUSH2 0x40B4 JUMP JUMPDEST PUSH1 0x0 SWAP3 PUSH1 0x1F DUP3 GT PUSH1 0x1 EQ PUSH2 0x21BE JUMPI SWAP3 DUP2 SWAP3 SWAP4 PUSH1 0x0 SWAP3 PUSH2 0x21B3 JUMPI JUMPDEST POP POP DUP2 PUSH1 0x1 SHL SWAP2 PUSH1 0x0 NOT SWAP1 PUSH1 0x3 SHL SHR NOT AND OR SWAP1 SSTORE JUMPDEST PUSH2 0x20A1 PUSH2 0x144 PUSH1 0x24 CALLDATALOAD ADD PUSH1 0x24 CALLDATALOAD PUSH1 0x4 ADD PUSH2 0x4726 JUMP JUMPDEST PUSH1 0x4 CALLDATALOAD PUSH1 0x0 MSTORE PUSH1 0xE PUSH1 0x20 MSTORE PUSH1 0xD PUSH1 0x40 PUSH1 0x0 KECCAK256 ADD SWAP1 PUSH1 0x1 PUSH1 0x1 PUSH1 0x40 SHL SUB DUP2 GT PUSH2 0x219D JUMPI PUSH2 0x20D1 DUP2 PUSH2 0x1D3C DUP5 SLOAD PUSH2 0x40B4 JUMP JUMPDEST PUSH1 0x0 PUSH1 0x1F DUP3 GT PUSH1 0x1 EQ PUSH2 0x2138 JUMPI DUP2 SWAP3 SWAP4 PUSH1 0x0 SWAP3 PUSH2 0x212D JUMPI JUMPDEST POP POP DUP2 PUSH1 0x1 SHL SWAP2 PUSH1 0x0 NOT SWAP1 PUSH1 0x3 SHL SHR NOT AND OR SWAP1 SSTORE JUMPDEST PUSH1 0x4 CALLDATALOAD PUSH1 0x0 MSTORE PUSH1 0xE PUSH1 0x20 MSTORE PUSH1 0x40 PUSH1 0x0 KECCAK256 PUSH2 0x164 PUSH1 0x24 CALLDATALOAD ADD CALLDATALOAD PUSH1 0xB DUP3 ADD SSTORE PUSH1 0xE PUSH2 0x184 PUSH1 0x24 CALLDATALOAD ADD CALLDATALOAD SWAP2 ADD SSTORE PUSH1 0x0 DUP1 RETURN JUMPDEST ADD CALLDATALOAD SWAP1 POP DUP4 DUP1 PUSH2 0x20E9 JUMP JUMPDEST PUSH1 0x1F NOT DUP3 AND SWAP4 DUP4 PUSH1 0x0 MSTORE PUSH1 0x20 PUSH1 0x0 KECCAK256 SWAP2 PUSH1 0x0 JUMPDEST DUP7 DUP2 LT PUSH2 0x2185 JUMPI POP DUP4 PUSH1 0x1 SWAP6 SWAP7 LT PUSH2 0x216B JUMPI JUMPDEST POP POP POP DUP2 SHL ADD SWAP1 SSTORE PUSH2 0x20FE JUMP JUMPDEST ADD CALLDATALOAD PUSH1 0x0 NOT PUSH1 0x3 DUP5 SWAP1 SHL PUSH1 0xF8 AND SHR NOT AND SWAP1 SSTORE DUP4 DUP1 DUP1 PUSH2 0x215E JUMP JUMPDEST SWAP1 SWAP3 PUSH1 0x20 PUSH1 0x1 DUP2 SWAP3 DUP7 DUP7 ADD CALLDATALOAD DUP2 SSTORE ADD SWAP5 ADD SWAP2 ADD PUSH2 0x214B JUMP JUMPDEST PUSH4 0x4E487B71 PUSH1 0xE0 SHL PUSH1 0x0 MSTORE PUSH1 0x41 PUSH1 0x4 MSTORE PUSH1 0x24 PUSH1 0x0 REVERT JUMPDEST ADD CALLDATALOAD SWAP1 POP DUP4 DUP1 PUSH2 0x2077 JUMP JUMPDEST DUP3 PUSH1 0x0 MSTORE PUSH1 0x20 PUSH1 0x0 KECCAK256 SWAP1 PUSH1 0x0 SWAP5 JUMPDEST PUSH1 0x1F NOT DUP5 AND DUP7 LT PUSH2 0x220F JUMPI PUSH1 0x1 SWAP5 SWAP6 POP DUP4 PUSH1 0x1F NOT DUP2 AND LT PUSH2 0x21F5 JUMPI JUMPDEST POP POP POP DUP2 SHL ADD SWAP1 SSTORE PUSH2 0x208C JUMP JUMPDEST ADD CALLDATALOAD PUSH1 0x0 NOT PUSH1 0x3 DUP5 SWAP1 SHL PUSH1 0xF8 AND SHR NOT AND SWAP1 SSTORE DUP4 DUP1 DUP1 PUSH2 0x21E8 JUMP JUMPDEST SWAP2 PUSH1 0x20 PUSH1 0x1 DUP2 SWAP3 DUP6 DUP6 ADD CALLDATALOAD DUP2 SSTORE ADD SWAP4 ADD SWAP6 ADD SWAP5 PUSH2 0x21CC JUMP JUMPDEST ADD CALLDATALOAD SWAP1 POP DUP4 DUP1 PUSH2 0x2003 JUMP JUMPDEST DUP3 PUSH1 0x0 MSTORE PUSH1 0x20 PUSH1 0x0 KECCAK256 SWAP1 PUSH1 0x0 SWAP5 JUMPDEST PUSH1 0x1F NOT DUP5 AND DUP7 LT PUSH2 0x2283 JUMPI PUSH1 0x1 SWAP5 SWAP6 POP DUP4 PUSH1 0x1F NOT DUP2 AND LT PUSH2 0x2269 JUMPI JUMPDEST POP POP POP DUP2 SHL ADD SWAP1 SSTORE PUSH2 0x2018 JUMP JUMPDEST ADD CALLDATALOAD PUSH1 0x0 NOT PUSH1 0x3 DUP5 SWAP1 SHL PUSH1 0xF8 AND SHR NOT AND SWAP1 SSTORE DUP4 DUP1 DUP1 PUSH2 0x225C JUMP JUMPDEST SWAP2 PUSH1 0x20 PUSH1 0x1 DUP2 SWAP3 DUP6 DUP6 ADD CALLDATALOAD DUP2 SSTORE ADD SWAP4 ADD SWAP6 ADD SWAP5 PUSH2 0x2240 JUMP JUMPDEST ADD CALLDATALOAD SWAP1 POP DUP4 DUP1 PUSH2 0x1F8F JUMP JUMPDEST DUP3 PUSH1 0x0 MSTORE PUSH1 0x20 PUSH1 0x0 KECCAK256 SWAP1 PUSH1 0x0 SWAP5 JUMPDEST PUSH1 0x1F NOT DUP5 AND DUP7 LT PUSH2 0x22F7 JUMPI PUSH1 0x1 SWAP5 SWAP6 POP DUP4 PUSH1 0x1F NOT DUP2 AND LT PUSH2 0x22DD JUMPI JUMPDEST POP POP POP DUP2 SHL ADD SWAP1 SSTORE PUSH2 0x1FA4 JUMP JUMPDEST ADD CALLDATALOAD PUSH1 0x0 NOT PUSH1 0x3 DUP5 SWAP1 SHL PUSH1 0xF8 AND SHR NOT AND SWAP1 SSTORE DUP4 DUP1 DUP1 PUSH2 0x22D0 JUMP JUMPDEST SWAP2 PUSH1 0x20 PUSH1 0x1 DUP2 SWAP3 DUP6 DUP6 ADD CALLDATALOAD DUP2 SSTORE ADD SWAP4 ADD SWAP6 ADD SWAP5 PUSH2 0x22B4 JUMP JUMPDEST PUSH2 0x2319 DUP2 DUP4 PUSH2 0x4726 JUMP JUMPDEST SWAP1 PUSH1 0x1 PUSH1 0x1 PUSH1 0x40 SHL SUB DUP3 GT PUSH2 0x219D JUMPI PUSH2 0x233C DUP3 PUSH2 0x2336 DUP8 SLOAD PUSH2 0x40B4 JUMP JUMPDEST DUP8 PUSH2 0x4C3E JUMP JUMPDEST PUSH1 0x0 SWAP1 PUSH1 0x1F DUP4 GT PUSH1 0x1 EQ PUSH2 0x2388 JUMPI SWAP3 DUP3 PUSH1 0x1 SWAP5 SWAP4 PUSH1 0x20 SWAP4 DUP7 SWAP6 PUSH1 0x0 SWAP3 PUSH2 0x237D JUMPI JUMPDEST POP POP PUSH1 0x0 NOT PUSH1 0x3 DUP4 SWAP1 SHL SHR NOT AND SWAP1 DUP5 SHL OR DUP7 SSTORE JUMPDEST ADD SWAP4 ADD SWAP5 ADD SWAP4 SWAP2 PUSH2 0x1F2A JUMP JUMPDEST ADD CALLDATALOAD SWAP1 POP DUP11 DUP1 PUSH2 0x235D JUMP JUMPDEST DUP6 PUSH1 0x0 MSTORE PUSH1 0x20 PUSH1 0x0 KECCAK256 SWAP2 PUSH1 0x0 JUMPDEST PUSH1 0x1F NOT DUP6 AND DUP2 LT PUSH2 0x23E0 JUMPI POP DUP4 PUSH1 0x20 SWAP4 PUSH1 0x1 SWAP7 SWAP4 DUP8 SWAP7 SWAP4 DUP8 SWAP5 PUSH1 0x1F NOT DUP2 AND LT PUSH2 0x23C6 JUMPI JUMPDEST POP POP POP DUP2 SHL ADD DUP7 SSTORE PUSH2 0x2371 JUMP JUMPDEST ADD CALLDATALOAD PUSH1 0x0 NOT PUSH1 0x3 DUP5 SWAP1 SHL PUSH1 0xF8 AND SHR NOT AND SWAP1 SSTORE DUP11 DUP1 DUP1 PUSH2 0x23B9 JUMP JUMPDEST SWAP1 SWAP3 PUSH1 0x20 PUSH1 0x1 DUP2 SWAP3 DUP7 DUP7 ADD CALLDATALOAD DUP2 SSTORE ADD SWAP5 ADD SWAP2 ADD PUSH2 0x2395 JUMP JUMPDEST ADD CALLDATALOAD SWAP1 POP DUP4 DUP1 PUSH2 0x1ED7 JUMP JUMPDEST DUP3 PUSH1 0x0 MSTORE PUSH1 0x20 PUSH1 0x0 KECCAK256 SWAP1 PUSH1 0x0 SWAP5 JUMPDEST PUSH1 0x1F NOT DUP5 AND DUP7 LT PUSH2 0x2454 JUMPI PUSH1 0x1 SWAP5 SWAP6 POP DUP4 PUSH1 0x1F NOT DUP2 AND LT PUSH2 0x243A JUMPI JUMPDEST POP POP POP DUP2 SHL ADD SWAP1 SSTORE PUSH2 0x1EEC JUMP JUMPDEST ADD CALLDATALOAD PUSH1 0x0 NOT PUSH1 0x3 DUP5 SWAP1 SHL PUSH1 0xF8 AND SHR NOT AND SWAP1 SSTORE DUP4 DUP1 DUP1 PUSH2 0x242D JUMP JUMPDEST SWAP2 PUSH1 0x20 PUSH1 0x1 DUP2 SWAP3 DUP6 DUP6 ADD CALLDATALOAD DUP2 SSTORE ADD SWAP4 ADD SWAP6 ADD SWAP5 PUSH2 0x2411 JUMP JUMPDEST ADD CALLDATALOAD SWAP1 POP DUP5 DUP1 PUSH2 0x1E63 JUMP JUMPDEST PUSH1 0x6 DUP5 ADD PUSH1 0x0 MSTORE PUSH1 0x20 PUSH1 0x0 KECCAK256 SWAP2 PUSH1 0x0 JUMPDEST PUSH1 0x1F NOT DUP6 AND DUP2 LT PUSH2 0x24CF JUMPI POP SWAP2 DUP4 SWAP2 PUSH1 0x1 SWAP4 PUSH1 0x6 SWAP6 PUSH1 0x1F NOT DUP2 AND LT PUSH2 0x24B5 JUMPI JUMPDEST POP POP POP DUP2 SHL ADD SWAP2 ADD SSTORE PUSH2 0x1E79 JUMP JUMPDEST ADD CALLDATALOAD PUSH1 0x0 NOT PUSH1 0x3 DUP5 SWAP1 SHL PUSH1 0xF8 AND SHR NOT AND SWAP1 SSTORE DUP5 DUP1 DUP1 PUSH2 0x24A7 JUMP JUMPDEST SWAP1 SWAP3 PUSH1 0x20 PUSH1 0x1 DUP2 SWAP3 DUP7 DUP7 ADD CALLDATALOAD DUP2 SSTORE ADD SWAP5 ADD SWAP2 ADD PUSH2 0x2487 JUMP JUMPDEST ADD CALLDATALOAD SWAP1 POP DUP4 DUP1 PUSH2 0x1DCE JUMP JUMPDEST DUP3 PUSH1 0x0 MSTORE PUSH1 0x20 PUSH1 0x0 KECCAK256 SWAP1 PUSH1 0x0 SWAP5 JUMPDEST PUSH1 0x1F NOT DUP5 AND DUP7 LT PUSH2 0x2543 JUMPI PUSH1 0x1 SWAP5 SWAP6 POP DUP4 PUSH1 0x1F NOT DUP2 AND LT PUSH2 0x2529 JUMPI JUMPDEST POP POP POP DUP2 SHL ADD SWAP1 SSTORE PUSH2 0x1DE3 JUMP JUMPDEST ADD CALLDATALOAD PUSH1 0x0 NOT PUSH1 0x3 DUP5 SWAP1 SHL PUSH1 0xF8 AND SHR NOT AND SWAP1 SSTORE DUP4 DUP1 DUP1 PUSH2 0x251C JUMP JUMPDEST SWAP2 PUSH1 0x20 PUSH1 0x1 DUP2 SWAP3 DUP6 DUP6 ADD CALLDATALOAD DUP2 SSTORE ADD SWAP4 ADD SWAP6 ADD SWAP5 PUSH2 0x2500 JUMP JUMPDEST ADD CALLDATALOAD SWAP1 POP DUP4 DUP1 PUSH2 0x1D5C JUMP JUMPDEST DUP3 PUSH1 0x0 MSTORE PUSH1 0x20 PUSH1 0x0 KECCAK256 SWAP1 PUSH1 0x0 SWAP5 JUMPDEST PUSH1 0x1F NOT DUP5 AND DUP7 LT PUSH2 0x25B7 JUMPI PUSH1 0x1 SWAP5 SWAP6 POP DUP4 PUSH1 0x1F NOT DUP2 AND LT PUSH2 0x259D JUMPI JUMPDEST POP POP POP DUP2 SHL ADD SWAP1 SSTORE PUSH2 0x1D71 JUMP JUMPDEST ADD CALLDATALOAD PUSH1 0x0 NOT PUSH1 0x3 DUP5 SWAP1 SHL PUSH1 0xF8 AND SHR NOT AND SWAP1 SSTORE DUP4 DUP1 DUP1 PUSH2 0x2590 JUMP JUMPDEST SWAP2 PUSH1 0x20 PUSH1 0x1 DUP2 SWAP3 DUP6 DUP6 ADD CALLDATALOAD DUP2 SSTORE ADD SWAP4 ADD SWAP6 ADD SWAP5 PUSH2 0x2574 JUMP JUMPDEST PUSH1 0x40 MLOAD PUSH3 0x461BCD PUSH1 0xE5 SHL DUP2 MSTORE PUSH1 0x20 PUSH1 0x4 DUP3 ADD MSTORE PUSH1 0x28 PUSH1 0x24 DUP3 ADD MSTORE PUSH32 0x4F6E6C79207468652073656C6C65722063616E20757064617465207468656972 PUSH1 0x44 DUP3 ADD MSTORE PUSH8 0x81C1C9BD91D58DD PUSH1 0xC2 SHL PUSH1 0x64 DUP3 ADD MSTORE PUSH1 0x84 SWAP1 REVERT JUMPDEST SWAP1 POP DUP3 PUSH1 0x0 SLOAD AND EQ DUP4 PUSH2 0x5E3 JUMP JUMPDEST POP PUSH1 0xC PUSH1 0x20 MSTORE PUSH1 0xFF PUSH1 0x40 PUSH1 0x0 KECCAK256 SLOAD AND PUSH1 0x4 DUP2 LT ISZERO PUSH2 0x715 JUMPI PUSH1 0x2 EQ DUP1 ISZERO PUSH2 0x2663 JUMPI JUMPDEST PUSH2 0x265E SWAP1 PUSH2 0x46CC JUMP JUMPDEST PUSH2 0x1B77 JUMP JUMPDEST POP PUSH1 0x0 SLOAD DUP2 AND CALLER EQ PUSH2 0x2655 JUMP JUMPDEST CALLVALUE PUSH2 0x4B9 JUMPI PUSH1 0x20 CALLDATASIZE PUSH1 0x3 NOT ADD SLT PUSH2 0x4B9 JUMPI PUSH1 0x4 CALLDATALOAD PUSH1 0x0 MSTORE PUSH1 0xF PUSH1 0x20 MSTORE PUSH1 0x20 PUSH1 0xFF PUSH1 0x40 PUSH1 0x0 KECCAK256 SLOAD AND PUSH1 0x40 MLOAD SWAP1 ISZERO ISZERO DUP2 MSTORE RETURN JUMPDEST CALLVALUE PUSH2 0x4B9 JUMPI PUSH1 0x20 CALLDATASIZE PUSH1 0x3 NOT ADD SLT PUSH2 0x4B9 JUMPI PUSH2 0x26BA PUSH2 0x3F60 JUMP JUMPDEST PUSH2 0x26C2 PUSH2 0x41C2 JUMP JUMPDEST PUSH1 0x1 PUSH1 0x1 PUSH1 0xA0 SHL SUB AND DUP1 ISZERO PUSH2 0x2722 JUMPI PUSH1 0x40 PUSH32 0x32B449308C94E824CCEDD9877932CD82F89A481C06C4643A0CB2914454A8C582 SWAP2 CALLER PUSH1 0x0 MSTORE PUSH1 0xD PUSH1 0x20 MSTORE DUP2 PUSH1 0x0 KECCAK256 DUP2 PUSH1 0x1 PUSH1 0x1 PUSH1 0x60 SHL SUB PUSH1 0xA0 SHL DUP3 SLOAD AND OR SWAP1 SSTORE DUP2 MLOAD SWAP1 CALLER DUP3 MSTORE PUSH1 0x20 DUP3 ADD MSTORE LOG1 STOP JUMPDEST PUSH1 0x40 MLOAD PUSH3 0x461BCD PUSH1 0xE5 SHL DUP2 MSTORE PUSH1 0x20 PUSH1 0x4 DUP3 ADD MSTORE PUSH1 0x17 PUSH1 0x24 DUP3 ADD MSTORE PUSH32 0x496E76616C6964206163636F756E742061646472657373000000000000000000 PUSH1 0x44 DUP3 ADD MSTORE PUSH1 0x64 SWAP1 REVERT JUMPDEST CALLVALUE PUSH2 0x4B9 JUMPI PUSH1 0x40 CALLDATASIZE PUSH1 0x3 NOT ADD SLT PUSH2 0x4B9 JUMPI PUSH2 0x2780 PUSH2 0x3F60 JUMP JUMPDEST PUSH1 0x24 CALLDATALOAD SWAP1 DUP2 ISZERO ISZERO SWAP1 DUP2 DUP4 SUB PUSH2 0x4B9 JUMPI PUSH1 0x1 PUSH1 0x1 PUSH1 0xA0 SHL SUB AND SWAP2 CALLER DUP4 EQ PUSH2 0x27FD JUMPI PUSH2 0x27CF SWAP1 CALLER PUSH1 0x0 MSTORE PUSH1 0x7 PUSH1 0x20 MSTORE PUSH1 0x40 PUSH1 0x0 KECCAK256 DUP5 PUSH1 0x0 MSTORE PUSH1 0x20 MSTORE PUSH1 0x40 PUSH1 0x0 KECCAK256 SWAP1 PUSH1 0xFF DUP1 NOT DUP4 SLOAD AND SWAP2 ISZERO ISZERO AND OR SWAP1 SSTORE JUMP JUMPDEST PUSH1 0x40 MLOAD SWAP1 DUP2 MSTORE PUSH32 0x17307EAB39AB6107E8899845AD3D59BD9653F200F220920489CA2B5937696C31 PUSH1 0x20 CALLER SWAP3 LOG3 STOP JUMPDEST PUSH1 0x40 MLOAD PUSH3 0x461BCD PUSH1 0xE5 SHL DUP2 MSTORE PUSH1 0x20 PUSH1 0x4 DUP3 ADD MSTORE PUSH1 0x19 PUSH1 0x24 DUP3 ADD MSTORE PUSH32 0x4552433732313A20617070726F766520746F2063616C6C657200000000000000 PUSH1 0x44 DUP3 ADD MSTORE PUSH1 0x64 SWAP1 REVERT JUMPDEST CALLVALUE PUSH2 0x4B9 JUMPI PUSH1 0x20 DUP1 PUSH1 0x3 NOT CALLDATASIZE ADD SLT PUSH2 0x4B9 JUMPI PUSH1 0x4 CALLDATALOAD DUP1 PUSH1 0x0 MSTORE PUSH1 0xE SWAP1 DUP2 DUP4 MSTORE PUSH1 0xFF PUSH1 0xF PUSH1 0x40 PUSH1 0x0 KECCAK256 ADD SLOAD SWAP2 PUSH2 0x287D DUP3 PUSH1 0x10 SWAP5 DUP6 SHR AND ISZERO PUSH2 0x4ED0 JUMP JUMPDEST DUP1 PUSH1 0x0 MSTORE PUSH1 0xF DUP6 MSTORE PUSH2 0x2895 DUP3 PUSH1 0x40 PUSH1 0x0 KECCAK256 SLOAD AND PUSH2 0x4E8B JUMP JUMPDEST PUSH1 0x0 SWAP3 PUSH1 0x0 JUMPDEST DUP3 PUSH1 0x0 MSTORE DUP6 DUP8 MSTORE DUP2 PUSH1 0x40 PUSH1 0x0 KECCAK256 ADD DUP1 SLOAD DUP3 LT ISZERO PUSH2 0x28EC JUMPI PUSH1 0x4 PUSH2 0x28BF DUP4 DUP8 SWAP4 PUSH2 0x4FFF JUMP JUMPDEST POP ADD SLOAD AND ISZERO PUSH2 0x28D7 JUMPI JUMPDEST PUSH2 0x28D2 SWAP1 PUSH2 0x4F61 JUMP JUMPDEST PUSH2 0x289B JUMP JUMPDEST SWAP4 PUSH2 0x28E4 PUSH2 0x28D2 SWAP2 PUSH2 0x4F61 JUMP JUMPDEST SWAP5 SWAP1 POP PUSH2 0x28C9 JUMP JUMPDEST POP POP DUP5 DUP7 PUSH2 0x28F9 DUP7 PUSH2 0x4C10 JUMP JUMPDEST SWAP6 PUSH2 0x2907 PUSH1 0x40 MLOAD SWAP8 DUP9 PUSH2 0x3FDE JUMP JUMPDEST DUP1 DUP8 MSTORE PUSH2 0x2916 PUSH1 0x1F NOT SWAP2 PUSH2 0x4C10 JUMP JUMPDEST ADD DUP2 PUSH1 0x0 JUMPDEST DUP3 DUP2 LT PUSH2 0x29BF JUMPI POP POP POP PUSH1 0x0 SWAP4 PUSH1 0x0 JUMPDEST DUP2 PUSH1 0x0 MSTORE DUP4 DUP4 MSTORE DUP5 PUSH1 0x40 PUSH1 0x0 KECCAK256 ADD DUP1 SLOAD DUP3 LT ISZERO PUSH2 0x29AC JUMPI PUSH1 0x4 PUSH2 0x294F DUP4 DUP11 SWAP4 PUSH2 0x4FFF JUMP JUMPDEST POP ADD SLOAD AND ISZERO PUSH2 0x2967 JUMPI JUMPDEST PUSH2 0x2962 SWAP1 PUSH2 0x4F61 JUMP JUMPDEST PUSH2 0x292B JUMP JUMPDEST SWAP5 PUSH2 0x29A4 PUSH2 0x2962 SWAP2 DUP4 PUSH1 0x0 MSTORE DUP6 DUP6 MSTORE PUSH2 0x298F PUSH2 0x2989 DUP10 DUP10 PUSH1 0x40 PUSH1 0x0 KECCAK256 ADD PUSH2 0x4FFF JUMP JUMPDEST POP PUSH2 0x4F11 JUMP JUMPDEST PUSH2 0x2999 DUP3 DUP13 PUSH2 0x4FC0 JUMP JUMPDEST MSTORE PUSH2 0x3FC DUP2 DUP12 PUSH2 0x4FC0 JUMP JUMPDEST SWAP6 SWAP1 POP PUSH2 0x2959 JUMP JUMPDEST PUSH1 0x40 MLOAD DUP5 DUP2 MSTORE DUP1 PUSH2 0x21F DUP2 DUP8 ADD DUP13 PUSH2 0x3CC7 JUMP JUMPDEST PUSH2 0x29C7 PUSH2 0x4FD4 JUMP JUMPDEST DUP3 DUP3 DUP12 ADD ADD MSTORE ADD DUP3 SWAP1 PUSH2 0x291B JUMP JUMPDEST CALLVALUE PUSH2 0x4B9 JUMPI PUSH1 0x40 CALLDATASIZE PUSH1 0x3 NOT ADD SLT PUSH2 0x4B9 JUMPI PUSH2 0x29EE PUSH2 0x3F60 JUMP JUMPDEST PUSH1 0x24 SWAP1 DUP2 CALLDATALOAD SWAP1 PUSH1 0x4 DUP3 LT ISZERO PUSH2 0x4B9 JUMPI PUSH2 0x2A05 PUSH2 0x41C2 JUMP JUMPDEST PUSH1 0x1 PUSH1 0x1 PUSH1 0xA0 SHL SUB AND SWAP2 DUP3 ISZERO PUSH2 0x2B94 JUMPI DUP3 PUSH1 0x0 MSTORE PUSH1 0x20 SWAP1 PUSH1 0x12 DUP3 MSTORE PUSH1 0xFF PUSH1 0x40 PUSH1 0x0 KECCAK256 SLOAD AND ISZERO PUSH2 0x2B59 JUMPI DUP4 PUSH1 0x0 MSTORE PUSH1 0xC DUP3 MSTORE PUSH1 0xFF PUSH1 0x40 PUSH1 0x0 KECCAK256 SLOAD AND PUSH1 0x4 DUP2 LT ISZERO PUSH2 0x2B0C JUMPI DUP4 EQ PUSH2 0x2B21 JUMPI PUSH1 0x2 DUP4 EQ PUSH2 0x2AA8 JUMPI JUMPDEST POP PUSH32 0xD8F7BCB2C5CFFC294A0AAEF719685993D7BE95273FB8254803A1563510CCEFED SWAP2 PUSH1 0xC PUSH2 0x2AA3 SWAP3 DUP6 PUSH1 0x0 MSTORE MSTORE PUSH1 0x40 PUSH1 0x0 KECCAK256 PUSH1 0xFF NOT DUP2 SLOAD AND PUSH1 0xFF DUP4 AND OR SWAP1 SSTORE PUSH1 0x40 MLOAD SWAP2 DUP3 SWAP2 DUP3 PUSH2 0x40A1 JUMP JUMPDEST SUB SWAP1 LOG2 STOP JUMPDEST DUP4 PUSH1 0x0 MSTORE PUSH1 0xC DUP3 MSTORE PUSH1 0xFF PUSH1 0x40 PUSH1 0x0 KECCAK256 SLOAD AND PUSH1 0x4 DUP2 LT ISZERO PUSH2 0x2B0C JUMPI PUSH1 0x1 EQ PUSH2 0x2A57 JUMPI SWAP1 PUSH1 0x1F PUSH1 0x64 SWAP3 PUSH1 0x40 MLOAD SWAP3 PUSH3 0x461BCD PUSH1 0xE5 SHL DUP5 MSTORE PUSH1 0x4 DUP5 ADD MSTORE DUP3 ADD MSTORE PUSH32 0x43616E206F6E6C79207665726966792070656E64696E672073656C6C65727300 PUSH1 0x44 DUP3 ADD MSTORE REVERT JUMPDEST POP PUSH4 0x4E487B71 PUSH1 0xE0 SHL PUSH1 0x0 SWAP1 DUP2 MSTORE PUSH1 0x21 PUSH1 0x4 MSTORE REVERT JUMPDEST SWAP1 PUSH1 0x12 PUSH1 0x64 SWAP3 PUSH1 0x40 MLOAD SWAP3 PUSH3 0x461BCD PUSH1 0xE5 SHL DUP5 MSTORE PUSH1 0x4 DUP5 ADD MSTORE DUP3 ADD MSTORE PUSH18 0x14DD185D1D5CC8185B1C9958591E481CD95D PUSH1 0x72 SHL PUSH1 0x44 DUP3 ADD MSTORE REVERT JUMPDEST SWAP1 PUSH1 0x15 PUSH1 0x64 SWAP3 PUSH1 0x40 MLOAD SWAP3 PUSH3 0x461BCD PUSH1 0xE5 SHL DUP5 MSTORE PUSH1 0x4 DUP5 ADD MSTORE DUP3 ADD MSTORE PUSH21 0x14D95B1B195C881B9BDD081C9959DA5CDD195C9959 PUSH1 0x5A SHL PUSH1 0x44 DUP3 ADD MSTORE REVERT JUMPDEST PUSH1 0x64 SWAP1 PUSH1 0x16 PUSH1 0x40 MLOAD SWAP2 PUSH3 0x461BCD PUSH1 0xE5 SHL DUP4 MSTORE PUSH1 0x20 PUSH1 0x4 DUP5 ADD MSTORE DUP3 ADD MSTORE PUSH22 0x496E76616C69642073656C6C65722061646472657373 PUSH1 0x50 SHL PUSH1 0x44 DUP3 ADD MSTORE REVERT JUMPDEST CALLVALUE PUSH2 0x4B9 JUMPI PUSH1 0x0 CALLDATASIZE PUSH1 0x3 NOT ADD SLT PUSH2 0x4B9 JUMPI PUSH1 0x40 MLOAD PUSH1 0x0 PUSH1 0x3 SLOAD PUSH2 0x2BF3 DUP2 PUSH2 0x40B4 JUMP JUMPDEST DUP1 DUP5 MSTORE SWAP1 PUSH1 0x1 SWAP1 DUP2 DUP2 AND SWAP1 DUP2 ISZERO PUSH2 0x2C8C JUMPI POP PUSH1 0x1 EQ PUSH2 0x2C31 JUMPI JUMPDEST PUSH2 0x21F DUP5 PUSH2 0x2C1D DUP2 DUP7 SUB DUP3 PUSH2 0x3FDE JUMP JUMPDEST PUSH1 0x40 MLOAD SWAP2 DUP3 SWAP2 PUSH1 0x20 DUP4 MSTORE PUSH1 0x20 DUP4 ADD SWAP1 PUSH2 0x3C87 JUMP JUMPDEST PUSH1 0x3 PUSH1 0x0 SWAP1 DUP2 MSTORE SWAP3 POP PUSH32 0xC2575A0E9E593C00F959F8C92F12DB2869C3395A3B0502D05E2516446F71F85B JUMPDEST DUP3 DUP5 LT PUSH2 0x2C74 JUMPI POP POP POP DUP2 ADD PUSH1 0x20 ADD PUSH2 0x2C1D DUP3 PUSH2 0x2C0D JUMP JUMPDEST DUP1 SLOAD PUSH1 0x20 DUP6 DUP8 ADD DUP2 ADD SWAP2 SWAP1 SWAP2 MSTORE SWAP1 SWAP4 ADD SWAP3 DUP2 ADD PUSH2 0x2C5C JUMP JUMPDEST PUSH1 0xFF NOT AND PUSH1 0x20 DUP1 DUP8 ADD SWAP2 SWAP1 SWAP2 MSTORE SWAP3 ISZERO ISZERO PUSH1 0x5 SHL DUP6 ADD SWAP1 SWAP3 ADD SWAP3 POP PUSH2 0x2C1D SWAP2 POP DUP4 SWAP1 POP PUSH2 0x2C0D JUMP JUMPDEST CALLVALUE PUSH2 0x4B9 JUMPI PUSH1 0x0 CALLDATASIZE PUSH1 0x3 NOT ADD SLT PUSH2 0x4B9 JUMPI PUSH1 0x0 SLOAD PUSH1 0x40 MLOAD PUSH1 0x1 PUSH1 0x1 PUSH1 0xA0 SHL SUB SWAP1 SWAP2 AND DUP2 MSTORE PUSH1 0x20 SWAP1 RETURN JUMPDEST CALLVALUE PUSH2 0x4B9 JUMPI PUSH1 0x20 CALLDATASIZE PUSH1 0x3 NOT ADD SLT PUSH2 0x4B9 JUMPI PUSH1 0x4 CALLDATALOAD PUSH1 0x0 SWAP1 DUP2 MSTORE PUSH1 0xE PUSH1 0x20 MSTORE PUSH1 0x40 SWAP1 KECCAK256 DUP1 SLOAD PUSH1 0x1 DUP3 ADD SLOAD PUSH1 0x1 PUSH1 0x1 PUSH1 0xA0 SHL SUB AND SWAP2 PUSH2 0x2D1B PUSH1 0x2 DUP3 ADD PUSH2 0x40EE JUMP JUMPDEST PUSH2 0x2D27 PUSH1 0x3 DUP4 ADD PUSH2 0x40EE JUMP JUMPDEST PUSH1 0x4 DUP4 ADD SLOAD PUSH1 0x5 DUP5 ADD SLOAD SWAP1 PUSH2 0x2D3E PUSH1 0x6 DUP7 ADD PUSH2 0x40EE JUMP JUMPDEST PUSH2 0x2D4A PUSH1 0x7 DUP8 ADD PUSH2 0x40EE JUMP JUMPDEST PUSH2 0x2D56 PUSH1 0x9 DUP9 ADD PUSH2 0x40EE JUMP JUMPDEST SWAP1 PUSH2 0x2D63 PUSH1 0xA DUP10 ADD PUSH2 0x40EE JUMP JUMPDEST SWAP3 PUSH1 0xB DUP10 ADD SLOAD SWAP5 PUSH1 0xC DUP11 ADD PUSH2 0x2D77 SWAP1 PUSH2 0x40EE JUMP JUMPDEST SWAP7 PUSH2 0x2D84 PUSH1 0xD DUP13 ADD PUSH2 0x40EE JUMP JUMPDEST SWAP9 PUSH1 0xE DUP13 ADD SLOAD SWAP12 PUSH1 0xF ADD SLOAD SWAP11 PUSH1 0x40 MLOAD SWAP15 DUP16 SWAP15 DUP16 SWAP1 DUP2 MSTORE PUSH1 0x20 ADD MSTORE DUP14 PUSH2 0x220 SWAP1 DUP2 PUSH1 0x40 DUP3 ADD MSTORE ADD PUSH2 0x2DB3 SWAP2 PUSH2 0x3C87 JUMP JUMPDEST DUP14 DUP2 SUB PUSH1 0x60 DUP16 ADD MSTORE PUSH2 0x2DC4 SWAP2 PUSH2 0x3C87 JUMP JUMPDEST SWAP2 PUSH1 0x80 DUP14 ADD MSTORE PUSH1 0xA0 DUP13 ADD MSTORE DUP11 DUP2 SUB PUSH1 0xC0 DUP13 ADD MSTORE PUSH2 0x2DE0 SWAP2 PUSH2 0x3C87 JUMP JUMPDEST DUP10 DUP2 SUB PUSH1 0xE0 DUP12 ADD MSTORE PUSH2 0x2DF1 SWAP2 PUSH2 0x3C87 JUMP JUMPDEST DUP9 DUP2 SUB PUSH2 0x100 DUP11 ADD MSTORE PUSH2 0x2E03 SWAP2 PUSH2 0x3C87 JUMP JUMPDEST DUP8 DUP2 SUB PUSH2 0x120 DUP10 ADD MSTORE PUSH2 0x2E15 SWAP2 PUSH2 0x3C87 JUMP JUMPDEST SWAP1 PUSH2 0x140 DUP8 ADD MSTORE DUP6 DUP2 SUB PUSH2 0x160 DUP8 ADD MSTORE PUSH2 0x2E2E SWAP2 PUSH2 0x3C87 JUMP JUMPDEST DUP5 DUP2 SUB PUSH2 0x180 DUP7 ADD MSTORE PUSH2 0x2E40 SWAP2 PUSH2 0x3C87 JUMP JUMPDEST SWAP2 PUSH2 0x1A0 DUP5 ADD MSTORE PUSH1 0xFF DUP2 AND ISZERO ISZERO PUSH2 0x1C0 DUP5 ADD MSTORE DUP1 PUSH1 0x8 SHR PUSH1 0xFF AND ISZERO ISZERO PUSH2 0x1E0 DUP5 ADD MSTORE PUSH1 0x10 SHR PUSH1 0xFF AND ISZERO ISZERO PUSH2 0x200 DUP4 ADD MSTORE SUB SWAP1 RETURN JUMPDEST CALLVALUE PUSH2 0x4B9 JUMPI PUSH1 0x0 CALLDATASIZE PUSH1 0x3 NOT ADD SLT PUSH2 0x4B9 JUMPI PUSH2 0x2E8D PUSH2 0x41C2 JUMP JUMPDEST PUSH1 0x0 DUP1 SLOAD PUSH1 0x1 PUSH1 0x1 PUSH1 0xA0 SHL SUB NOT DUP2 AND DUP3 SSTORE PUSH1 0x1 PUSH1 0x1 PUSH1 0xA0 SHL SUB AND PUSH32 0x8BE0079C531659141344CD1FD0A4F28419497F9722A3DAAFE3B4186F6B6457E0 DUP3 DUP1 LOG3 STOP JUMPDEST CALLVALUE PUSH2 0x4B9 JUMPI PUSH1 0x20 CALLDATASIZE PUSH1 0x3 NOT ADD SLT PUSH2 0x4B9 JUMPI PUSH1 0x1 PUSH1 0x1 PUSH1 0xA0 SHL SUB PUSH2 0x2EEE PUSH2 0x3F60 JUMP JUMPDEST AND DUP1 ISZERO PUSH2 0x2F0D JUMPI PUSH1 0x0 MSTORE PUSH1 0x5 PUSH1 0x20 MSTORE PUSH1 0x20 PUSH1 0x40 PUSH1 0x0 KECCAK256 SLOAD PUSH1 0x40 MLOAD SWAP1 DUP2 MSTORE RETURN JUMPDEST PUSH1 0x40 MLOAD PUSH3 0x461BCD PUSH1 0xE5 SHL DUP2 MSTORE PUSH1 0x20 PUSH1 0x4 DUP3 ADD MSTORE PUSH1 0x29 PUSH1 0x24 DUP3 ADD MSTORE PUSH32 0x4552433732313A2061646472657373207A65726F206973206E6F742061207661 PUSH1 0x44 DUP3 ADD MSTORE PUSH9 0x3634B21037BBB732B9 PUSH1 0xB9 SHL PUSH1 0x64 DUP3 ADD MSTORE PUSH1 0x84 SWAP1 REVERT JUMPDEST CALLVALUE PUSH2 0x4B9 JUMPI PUSH1 0x20 CALLDATASIZE PUSH1 0x3 NOT ADD SLT PUSH2 0x4B9 JUMPI PUSH1 0x20 PUSH2 0x2F82 PUSH1 0x4 CALLDATALOAD PUSH2 0x4266 JUMP JUMPDEST PUSH1 0x40 MLOAD PUSH1 0x1 PUSH1 0x1 PUSH1 0xA0 SHL SUB SWAP1 SWAP2 AND DUP2 MSTORE RETURN JUMPDEST CALLVALUE PUSH2 0x4B9 JUMPI PUSH1 0x20 CALLDATASIZE PUSH1 0x3 NOT ADD SLT PUSH2 0x4B9 JUMPI PUSH1 0x1 PUSH1 0x1 PUSH1 0xA0 SHL SUB PUSH2 0x2FB5 PUSH2 0x3F60 JUMP JUMPDEST AND PUSH1 0x0 MSTORE PUSH1 0x13 PUSH1 0x20 MSTORE PUSH1 0x20 PUSH1 0x40 PUSH1 0x0 KECCAK256 SLOAD PUSH1 0x40 MLOAD SWAP1 DUP2 MSTORE RETURN JUMPDEST CALLVALUE PUSH2 0x4B9 JUMPI PUSH1 0x0 CALLDATASIZE PUSH1 0x3 NOT ADD SLT PUSH2 0x4B9 JUMPI CALLER PUSH1 0x0 MSTORE PUSH1 0x12 PUSH1 0x20 MSTORE PUSH1 0xFF PUSH1 0x40 PUSH1 0x0 KECCAK256 SLOAD AND PUSH2 0x3051 JUMPI CALLER PUSH1 0x0 MSTORE PUSH1 0x12 PUSH1 0x20 MSTORE PUSH1 0x40 PUSH1 0x0 KECCAK256 PUSH1 0xFF NOT SWAP1 PUSH1 0x1 DUP3 DUP3 SLOAD AND OR SWAP1 SSTORE PUSH1 0xC PUSH1 0x20 MSTORE PUSH1 0x1 PUSH1 0x40 PUSH1 0x0 KECCAK256 SWAP2 DUP3 SLOAD AND OR SWAP1 SSTORE PUSH1 0x40 MLOAD TIMESTAMP DUP2 MSTORE PUSH32 0xA1A1A78FF3033D5EE8393372052AEB2A16BBB347A29F3780370E9506C109E372 PUSH1 0x20 CALLER SWAP3 LOG2 STOP JUMPDEST PUSH1 0x40 MLOAD PUSH3 0x461BCD PUSH1 0xE5 SHL DUP2 MSTORE PUSH1 0x20 PUSH1 0x4 DUP3 ADD MSTORE PUSH1 0x12 PUSH1 0x24 DUP3 ADD MSTORE PUSH18 0x105B1C9958591E481C9959DA5CDD195C9959 PUSH1 0x72 SHL PUSH1 0x44 DUP3 ADD MSTORE PUSH1 0x64 SWAP1 REVERT JUMPDEST CALLVALUE PUSH2 0x4B9 JUMPI PUSH1 0x20 CALLDATASIZE PUSH1 0x3 NOT ADD SLT PUSH2 0x4B9 JUMPI PUSH1 0x1 PUSH1 0x1 PUSH1 0xA0 SHL SUB PUSH2 0x30AC PUSH2 0x3F60 JUMP JUMPDEST AND PUSH1 0x0 MSTORE PUSH1 0xC PUSH1 0x20 MSTORE PUSH2 0x21F PUSH1 0xFF PUSH1 0x40 PUSH1 0x0 KECCAK256 SLOAD AND PUSH1 0x40 MLOAD SWAP2 DUP3 SWAP2 DUP3 PUSH2 0x40A1 JUMP JUMPDEST CALLVALUE PUSH2 0x4B9 JUMPI PUSH2 0xBB2 PUSH2 0x30DE CALLDATASIZE PUSH2 0x406C JUMP JUMPDEST SWAP1 PUSH1 0x40 MLOAD SWAP3 PUSH2 0x30EC DUP5 PUSH2 0x3FC3 JUMP JUMPDEST PUSH1 0x0 DUP5 MSTORE PUSH2 0x4329 JUMP JUMPDEST CALLVALUE PUSH2 0x4B9 JUMPI PUSH1 0x0 CALLDATASIZE PUSH1 0x3 NOT ADD SLT PUSH2 0x4B9 JUMPI CALLER PUSH1 0x0 SWAP1 DUP2 MSTORE PUSH1 0xD PUSH1 0x20 SWAP1 DUP2 MSTORE PUSH1 0x40 SWAP1 SWAP2 KECCAK256 SLOAD PUSH1 0x1 PUSH1 0x1 PUSH1 0xA0 SHL SUB SWAP1 DUP2 AND DUP1 ISZERO PUSH2 0x3241 JUMPI DUP1 PUSH1 0x0 MSTORE PUSH1 0xC DUP4 MSTORE PUSH1 0xFF PUSH1 0x40 PUSH1 0x0 KECCAK256 SLOAD AND SWAP1 PUSH1 0x4 DUP3 LT ISZERO PUSH2 0x715 JUMPI PUSH1 0x2 PUSH2 0x3159 SWAP3 EQ SWAP1 DUP2 ISZERO PUSH2 0x3233 JUMPI POP PUSH2 0x46CC JUMP JUMPDEST CALLER PUSH1 0x0 MSTORE PUSH1 0x13 DUP3 MSTORE PUSH1 0x40 PUSH1 0x0 KECCAK256 SLOAD DUP1 ISZERO PUSH2 0x31F5 JUMPI PUSH1 0xB SLOAD DUP1 DUP3 MUL SWAP1 DUP3 DUP3 DIV SUB PUSH2 0x31DF JUMPI PUSH1 0x64 SWAP1 DIV SWAP2 DUP3 DUP3 SUB SWAP2 DUP3 GT PUSH2 0x31DF JUMPI PUSH2 0x31B1 SWAP3 PUSH2 0x31AB SWAP2 CALLER PUSH1 0x0 MSTORE PUSH1 0x13 DUP7 MSTORE PUSH1 0x0 PUSH1 0x40 DUP2 KECCAK256 SSTORE PUSH1 0x0 SLOAD AND PUSH2 0x501B JUMP JUMPDEST CALLER PUSH2 0x501B JUMP JUMPDEST PUSH32 0x8AD64A0AC7700DD8425AB0499F107CB6E2CD1581D803C5B8C1C79DCB8190B1AF PUSH1 0x40 MLOAD SWAP2 PUSH1 0x0 DUP4 MSTORE CALLER SWAP3 LOG2 STOP JUMPDEST PUSH4 0x4E487B71 PUSH1 0xE0 SHL PUSH1 0x0 MSTORE PUSH1 0x11 PUSH1 0x4 MSTORE PUSH1 0x24 PUSH1 0x0 REVERT JUMPDEST PUSH1 0x40 MLOAD PUSH3 0x461BCD PUSH1 0xE5 SHL DUP2 MSTORE PUSH1 0x4 DUP2 ADD DUP5 SWAP1 MSTORE PUSH1 0x16 PUSH1 0x24 DUP3 ADD MSTORE PUSH22 0x4E6F2062616C616E636520746F207769746864726177 PUSH1 0x50 SHL PUSH1 0x44 DUP3 ADD MSTORE PUSH1 0x64 SWAP1 REVERT JUMPDEST SWAP1 POP DUP3 PUSH1 0x0 SLOAD AND EQ DUP5 PUSH2 0x5E3 JUMP JUMPDEST POP PUSH1 0xC DUP3 MSTORE PUSH1 0xFF PUSH1 0x40 PUSH1 0x0 KECCAK256 SLOAD AND PUSH1 0x4 DUP2 LT ISZERO PUSH2 0x715 JUMPI PUSH1 0x2 EQ DUP1 ISZERO PUSH2 0x3270 JUMPI JUMPDEST PUSH2 0x326B SWAP1 PUSH2 0x46CC JUMP JUMPDEST PUSH2 0x3159 JUMP JUMPDEST POP PUSH1 0x0 SLOAD DUP2 AND CALLER EQ PUSH2 0x3262 JUMP JUMPDEST CALLVALUE PUSH2 0x4B9 JUMPI PUSH1 0x40 CALLDATASIZE PUSH1 0x3 NOT ADD SLT PUSH2 0x4B9 JUMPI PUSH1 0x24 DUP1 CALLDATALOAD PUSH1 0x4 CALLDATALOAD PUSH1 0x0 DUP1 JUMPDEST DUP3 PUSH1 0x0 MSTORE PUSH1 0xE PUSH1 0x20 SWAP1 DUP1 DUP3 MSTORE PUSH1 0x10 SWAP2 DUP3 PUSH1 0x40 PUSH1 0x0 KECCAK256 ADD DUP1 SLOAD DUP6 LT ISZERO PUSH2 0x3495 JUMPI PUSH2 0x32C3 DUP6 DUP10 SWAP3 PUSH2 0x4FFF JUMP JUMPDEST POP SLOAD EQ PUSH2 0x32DB JUMPI POP POP POP PUSH2 0x32D6 SWAP1 PUSH2 0x4F61 JUMP JUMPDEST PUSH2 0x3299 JUMP JUMPDEST SWAP2 SWAP4 POP SWAP2 SWAP4 SWAP5 PUSH1 0x0 MSTORE PUSH1 0x11 DUP2 MSTORE PUSH1 0xFF SWAP5 DUP6 PUSH1 0x40 PUSH1 0x0 KECCAK256 SLOAD AND ISZERO PUSH2 0x3459 JUMPI DUP1 PUSH1 0x0 MSTORE DUP3 DUP3 MSTORE PUSH2 0x330F DUP6 DUP6 PUSH1 0x40 PUSH1 0x0 KECCAK256 ADD PUSH2 0x4FFF JUMP JUMPDEST POP PUSH1 0x1 SWAP1 DUP2 ADD SLOAD SWAP1 SWAP7 SWAP1 CALLER PUSH1 0x1 PUSH1 0x1 PUSH1 0xA0 SHL SUB SWAP2 DUP3 AND EQ SWAP1 DUP2 ISZERO PUSH2 0x344B JUMPI JUMPDEST POP ISZERO PUSH2 0x33F6 JUMPI DUP2 PUSH1 0x0 MSTORE DUP4 DUP4 MSTORE PUSH1 0x4 PUSH2 0x334D DUP8 DUP8 PUSH1 0x40 PUSH1 0x0 KECCAK256 ADD PUSH2 0x4FFF JUMP JUMPDEST POP ADD SLOAD AND PUSH2 0x33B9 JUMPI SWAP2 PUSH2 0x336E SWAP4 SWAP2 PUSH1 0x4 SWAP6 SWAP4 PUSH1 0x0 MSTORE MSTORE PUSH1 0x40 PUSH1 0x0 KECCAK256 ADD PUSH2 0x4FFF JUMP JUMPDEST POP ADD DUP1 SLOAD PUSH1 0xFF NOT AND DUP3 OR SWAP1 SSTORE JUMPDEST ISZERO PUSH2 0x3382 JUMPI STOP JUMPDEST PUSH1 0x64 SWAP1 PUSH1 0x10 PUSH1 0x40 MLOAD SWAP2 PUSH3 0x461BCD PUSH1 0xE5 SHL DUP4 MSTORE PUSH1 0x20 PUSH1 0x4 DUP5 ADD MSTORE DUP3 ADD MSTORE PUSH16 0x14995D9A595DC81B9BDD08199BDD5B99 PUSH1 0x82 SHL PUSH1 0x44 DUP3 ADD MSTORE REVERT JUMPDEST PUSH1 0x40 MLOAD PUSH3 0x461BCD PUSH1 0xE5 SHL DUP2 MSTORE PUSH1 0x4 DUP2 ADD DUP4 SWAP1 MSTORE PUSH1 0x16 DUP2 DUP10 ADD MSTORE PUSH22 0x14995D9A595DC8185B1C9958591E4819195B195D1959 PUSH1 0x52 SHL PUSH1 0x44 DUP3 ADD MSTORE PUSH1 0x64 SWAP1 REVERT JUMPDEST PUSH1 0x40 MLOAD PUSH3 0x461BCD PUSH1 0xE5 SHL DUP2 MSTORE PUSH1 0x4 DUP2 ADD DUP5 SWAP1 MSTORE PUSH1 0x28 DUP2 DUP11 ADD MSTORE PUSH32 0x4F6E6C79207265766965776572206F72206F776E65722063616E2064656C6574 PUSH1 0x44 DUP3 ADD MSTORE PUSH8 0x6520726576696577 PUSH1 0xC0 SHL PUSH1 0x64 DUP3 ADD MSTORE PUSH1 0x84 SWAP1 REVERT JUMPDEST PUSH1 0x0 SLOAD AND CALLER EQ SWAP1 POP DUP10 PUSH2 0x332E JUMP JUMPDEST PUSH1 0x40 MLOAD PUSH3 0x461BCD PUSH1 0xE5 SHL DUP2 MSTORE PUSH1 0x4 DUP2 ADD DUP4 SWAP1 MSTORE PUSH1 0x15 DUP2 DUP10 ADD MSTORE PUSH21 0x14995D9A595DC8191BD95CC81B9BDD08195E1A5CDD PUSH1 0x5A SHL PUSH1 0x44 DUP3 ADD MSTORE PUSH1 0x64 SWAP1 REVERT JUMPDEST POP POP POP POP POP SWAP2 POP POP PUSH2 0x337B JUMP JUMPDEST CALLVALUE PUSH2 0x4B9 JUMPI PUSH2 0xBB2 PUSH2 0x34B3 CALLDATASIZE PUSH2 0x406C JUMP JUMPDEST SWAP2 PUSH2 0x34C6 PUSH2 0x34C1 DUP5 CALLER PUSH2 0x43C4 JUMP JUMPDEST PUSH2 0x42C7 JUMP JUMPDEST PUSH2 0x448C JUMP JUMPDEST CALLVALUE PUSH2 0x4B9 JUMPI PUSH1 0x60 CALLDATASIZE PUSH1 0x3 NOT ADD SLT PUSH2 0x4B9 JUMPI PUSH1 0x24 DUP1 CALLDATALOAD PUSH1 0x4 CALLDATALOAD PUSH1 0x44 CALLDATALOAD PUSH1 0x1 PUSH1 0x1 PUSH1 0x40 SHL SUB DUP2 GT PUSH2 0x4B9 JUMPI PUSH2 0x3502 SWAP1 CALLDATASIZE SWAP1 PUSH1 0x4 ADD PUSH2 0x4051 JUMP JUMPDEST SWAP1 DUP1 PUSH1 0x0 MSTORE PUSH1 0x20 SWAP2 PUSH1 0xE DUP4 MSTORE PUSH1 0x1 DUP1 PUSH1 0xA0 SHL SUB PUSH1 0x1 PUSH1 0x40 PUSH1 0x0 KECCAK256 ADD SLOAD AND CALLER EQ PUSH2 0x365B JUMPI DUP4 ISZERO ISZERO DUP1 PUSH2 0x3650 JUMPI JUMPDEST ISZERO PUSH2 0x360C JUMPI DUP1 MLOAD ISZERO PUSH2 0x35C8 JUMPI SWAP1 PUSH1 0xE SWAP3 SWAP2 PUSH1 0x1 PUSH1 0xA SLOAD ADD SWAP1 DUP2 PUSH1 0xA SSTORE PUSH2 0x3552 PUSH2 0x4FD4 JUMP JUMPDEST SWAP6 DUP3 DUP8 MSTORE CALLER DUP6 DUP9 ADD MSTORE PUSH1 0x40 DUP8 ADD MSTORE PUSH1 0x60 DUP7 ADD MSTORE PUSH1 0x0 MSTORE PUSH1 0x11 DUP3 MSTORE PUSH1 0x40 PUSH1 0x0 KECCAK256 PUSH1 0x1 PUSH1 0xFF NOT DUP3 SLOAD AND OR SWAP1 SSTORE PUSH1 0x0 MSTORE MSTORE PUSH1 0x10 PUSH1 0x40 PUSH1 0x0 KECCAK256 ADD DUP1 SLOAD PUSH1 0x1 PUSH1 0x40 SHL DUP2 LT ISZERO PUSH2 0x1471 JUMPI PUSH2 0x35A5 SWAP2 PUSH1 0x1 DUP3 ADD DUP2 SSTORE PUSH2 0x4FFF JUMP JUMPDEST PUSH2 0x35B3 JUMPI PUSH2 0xBB2 SWAP3 POP PUSH2 0x4D15 JUMP JUMPDEST DUP3 PUSH4 0x4E487B71 PUSH1 0xE0 SHL PUSH1 0x0 MSTORE PUSH1 0x0 PUSH1 0x4 MSTORE PUSH1 0x0 REVERT JUMPDEST PUSH1 0x40 MLOAD PUSH3 0x461BCD PUSH1 0xE5 SHL DUP2 MSTORE PUSH1 0x4 DUP2 ADD DUP5 SWAP1 MSTORE PUSH1 0x17 DUP2 DUP8 ADD MSTORE PUSH32 0x436F6D6D656E742063616E6E6F7420626520656D707479000000000000000000 PUSH1 0x44 DUP3 ADD MSTORE PUSH1 0x64 SWAP1 REVERT JUMPDEST PUSH1 0x40 MLOAD PUSH3 0x461BCD PUSH1 0xE5 SHL DUP2 MSTORE PUSH1 0x4 DUP2 ADD DUP5 SWAP1 MSTORE PUSH1 0x1E DUP2 DUP8 ADD MSTORE PUSH32 0x526174696E67206D757374206265206265747765656E203120616E6420350000 PUSH1 0x44 DUP3 ADD MSTORE PUSH1 0x64 SWAP1 REVERT JUMPDEST POP PUSH1 0x5 DUP5 GT ISZERO PUSH2 0x352E JUMP JUMPDEST PUSH1 0x40 MLOAD PUSH3 0x461BCD PUSH1 0xE5 SHL DUP2 MSTORE PUSH1 0x4 DUP2 ADD DUP5 SWAP1 MSTORE PUSH1 0x26 DUP2 DUP8 ADD MSTORE PUSH32 0x53656C6C65722063616E6E6F7420726576696577207468656972206F776E2070 PUSH1 0x44 DUP3 ADD MSTORE PUSH6 0x1C9BD91D58DD PUSH1 0xD2 SHL PUSH1 0x64 DUP3 ADD MSTORE PUSH1 0x84 SWAP1 REVERT JUMPDEST CALLVALUE PUSH2 0x4B9 JUMPI PUSH1 0x0 CALLDATASIZE PUSH1 0x3 NOT ADD SLT PUSH2 0x4B9 JUMPI PUSH2 0x36C7 PUSH2 0x41C2 JUMP JUMPDEST CALLER PUSH1 0x0 MSTORE PUSH1 0xD PUSH1 0x20 MSTORE PUSH1 0x40 PUSH1 0x0 KECCAK256 PUSH1 0x1 PUSH1 0x1 PUSH1 0x60 SHL SUB PUSH1 0xA0 SHL DUP2 SLOAD AND SWAP1 SSTORE PUSH32 0x32B449308C94E824CCEDD9877932CD82F89A481C06C4643A0CB2914454A8C582 PUSH1 0x40 DUP1 MLOAD CALLER DUP2 MSTORE PUSH1 0x0 PUSH1 0x20 DUP3 ADD MSTORE LOG1 STOP JUMPDEST CALLVALUE PUSH2 0x4B9 JUMPI PUSH1 0x40 CALLDATASIZE PUSH1 0x3 NOT ADD SLT PUSH2 0x4B9 JUMPI PUSH2 0x3730 PUSH2 0x3F60 JUMP JUMPDEST PUSH1 0x24 CALLDATALOAD SWAP1 PUSH1 0x1 PUSH1 0x1 PUSH1 0xA0 SHL SUB DUP1 DUP1 PUSH2 0x3747 DUP6 PUSH2 0x4266 JUMP JUMPDEST AND SWAP3 AND SWAP2 DUP1 DUP4 EQ PUSH2 0x3842 JUMPI DUP1 CALLER EQ SWAP1 DUP2 ISZERO PUSH2 0x381D JUMPI JUMPDEST POP ISZERO PUSH2 0x37B2 JUMPI PUSH1 0x0 DUP4 DUP2 MSTORE PUSH1 0x6 PUSH1 0x20 MSTORE PUSH1 0x40 SWAP1 KECCAK256 DUP1 SLOAD PUSH1 0x1 PUSH1 0x1 PUSH1 0xA0 SHL SUB NOT AND DUP4 OR SWAP1 SSTORE PUSH2 0x378A DUP4 PUSH2 0x4266 JUMP JUMPDEST AND PUSH32 0x8C5BE1E5EBEC7D5BD14F71427D1E84F3DD0314C0F7B2291E5B200AC8C7C3B925 PUSH1 0x0 DUP1 LOG4 STOP JUMPDEST PUSH1 0x40 MLOAD PUSH3 0x461BCD PUSH1 0xE5 SHL DUP2 MSTORE PUSH1 0x20 PUSH1 0x4 DUP3 ADD MSTORE PUSH1 0x3D PUSH1 0x24 DUP3 ADD MSTORE PUSH32 0x4552433732313A20617070726F76652063616C6C6572206973206E6F7420746F PUSH1 0x44 DUP3 ADD MSTORE PUSH32 0x6B656E206F776E6572206F7220617070726F76656420666F7220616C6C000000 PUSH1 0x64 DUP3 ADD MSTORE PUSH1 0x84 SWAP1 REVERT JUMPDEST SWAP1 POP PUSH1 0x0 MSTORE PUSH1 0x7 PUSH1 0x20 MSTORE PUSH1 0x40 PUSH1 0x0 KECCAK256 CALLER PUSH1 0x0 MSTORE PUSH1 0x20 MSTORE PUSH1 0xFF PUSH1 0x40 PUSH1 0x0 KECCAK256 SLOAD AND DUP5 PUSH2 0x375D JUMP JUMPDEST PUSH1 0x40 MLOAD PUSH3 0x461BCD PUSH1 0xE5 SHL DUP2 MSTORE PUSH1 0x20 PUSH1 0x4 DUP3 ADD MSTORE PUSH1 0x21 PUSH1 0x24 DUP3 ADD MSTORE PUSH32 0x4552433732313A20617070726F76616C20746F2063757272656E74206F776E65 PUSH1 0x44 DUP3 ADD MSTORE PUSH1 0x39 PUSH1 0xF9 SHL PUSH1 0x64 DUP3 ADD MSTORE PUSH1 0x84 SWAP1 REVERT JUMPDEST CALLVALUE PUSH2 0x4B9 JUMPI PUSH1 0x20 CALLDATASIZE PUSH1 0x3 NOT ADD SLT PUSH2 0x4B9 JUMPI PUSH1 0x20 PUSH2 0x2F82 PUSH1 0x4 CALLDATALOAD PUSH2 0x4289 JUMP JUMPDEST CALLVALUE PUSH2 0x4B9 JUMPI PUSH1 0x0 CALLDATASIZE PUSH1 0x3 NOT ADD SLT PUSH2 0x4B9 JUMPI PUSH1 0x40 MLOAD PUSH1 0x0 PUSH1 0x2 SLOAD PUSH2 0x38D1 DUP2 PUSH2 0x40B4 JUMP JUMPDEST DUP1 DUP5 MSTORE SWAP1 PUSH1 0x1 SWAP1 DUP2 DUP2 AND SWAP1 DUP2 ISZERO PUSH2 0x2C8C JUMPI POP PUSH1 0x1 EQ PUSH2 0x38FA JUMPI PUSH2 0x21F DUP5 PUSH2 0x2C1D DUP2 DUP7 SUB DUP3 PUSH2 0x3FDE JUMP JUMPDEST PUSH1 0x2 PUSH1 0x0 SWAP1 DUP2 MSTORE SWAP3 POP PUSH32 0x405787FA12A823E0F2B7631CC41B3BA8828B3321CA811111FA75CD3AA3BB5ACE JUMPDEST DUP3 DUP5 LT PUSH2 0x393D JUMPI POP POP POP DUP2 ADD PUSH1 0x20 ADD PUSH2 0x2C1D DUP3 PUSH2 0x2C0D JUMP JUMPDEST DUP1 SLOAD PUSH1 0x20 DUP6 DUP8 ADD DUP2 ADD SWAP2 SWAP1 SWAP2 MSTORE SWAP1 SWAP4 ADD SWAP3 DUP2 ADD PUSH2 0x3925 JUMP JUMPDEST CALLVALUE PUSH2 0x4B9 JUMPI PUSH1 0x0 CALLDATASIZE PUSH1 0x3 NOT ADD SLT PUSH2 0x4B9 JUMPI PUSH1 0x8 SLOAD PUSH1 0x0 PUSH1 0x1 JUMPDEST DUP3 DUP2 GT ISZERO PUSH2 0x3BAB JUMPI POP PUSH2 0x3980 SWAP1 PUSH2 0x4F70 JUMP JUMPDEST SWAP1 PUSH1 0x1 PUSH1 0x0 JUMPDEST DUP3 DUP3 GT ISZERO PUSH2 0x399C JUMPI PUSH1 0x40 MLOAD DUP1 PUSH2 0x21F DUP7 DUP3 PUSH2 0x3EFE JUMP JUMPDEST DUP2 PUSH1 0x0 MSTORE PUSH1 0xE PUSH1 0x20 MSTORE PUSH1 0x40 PUSH1 0x0 KECCAK256 PUSH1 0xF DUP2 ADD SLOAD SWAP1 PUSH1 0xFF DUP3 PUSH1 0x10 SHR AND ISZERO PUSH2 0x39CF JUMPI JUMPDEST POP POP SWAP1 PUSH2 0x39C9 SWAP1 PUSH2 0x4F61 JUMP JUMPDEST SWAP1 PUSH2 0x3986 JUMP JUMPDEST PUSH1 0x40 MLOAD SWAP2 PUSH2 0x39DC DUP4 PUSH2 0x3F8C JUMP JUMPDEST DUP2 SLOAD DUP4 MSTORE PUSH1 0x1 DUP3 ADD SLOAD PUSH1 0x1 PUSH1 0x1 PUSH1 0xA0 SHL SUB AND PUSH1 0x20 DUP5 ADD MSTORE PUSH2 0x39FF PUSH1 0x2 DUP4 ADD PUSH2 0x40EE JUMP JUMPDEST PUSH1 0x40 DUP5 ADD MSTORE PUSH2 0x3A10 PUSH1 0x3 DUP4 ADD PUSH2 0x40EE JUMP JUMPDEST PUSH1 0x60 DUP5 ADD MSTORE PUSH1 0x4 DUP3 ADD SLOAD PUSH1 0x80 DUP5 ADD MSTORE PUSH1 0x5 DUP3 ADD SLOAD PUSH1 0xA0 DUP5 ADD MSTORE PUSH2 0x3A35 PUSH1 0x6 DUP4 ADD PUSH2 0x40EE JUMP JUMPDEST PUSH1 0xC0 DUP5 ADD MSTORE PUSH2 0x3A46 PUSH1 0x7 DUP4 ADD PUSH2 0x40EE JUMP JUMPDEST PUSH1 0xE0 DUP5 ADD MSTORE PUSH1 0x8 DUP3 ADD DUP1 SLOAD PUSH2 0x3A5A DUP2 PUSH2 0x4C10 JUMP JUMPDEST SWAP2 PUSH2 0x3A68 PUSH1 0x40 MLOAD SWAP4 DUP5 PUSH2 0x3FDE JUMP JUMPDEST DUP2 DUP4 MSTORE PUSH1 0x20 DUP4 ADD SWAP1 PUSH1 0x0 MSTORE PUSH1 0x20 PUSH1 0x0 KECCAK256 SWAP1 PUSH1 0x0 SWAP1 JUMPDEST DUP4 DUP3 LT PUSH2 0x3B8E JUMPI POP POP POP POP PUSH1 0x10 SWAP3 SWAP2 PUSH1 0xFF SWAP2 PUSH2 0x100 DUP7 ADD MSTORE PUSH2 0x3AA1 PUSH1 0x9 DUP5 ADD PUSH2 0x40EE JUMP JUMPDEST PUSH2 0x120 DUP7 ADD MSTORE PUSH2 0x3AB3 PUSH1 0xA DUP5 ADD PUSH2 0x40EE JUMP JUMPDEST PUSH2 0x140 DUP7 ADD MSTORE PUSH1 0xB DUP4 ADD SLOAD PUSH2 0x160 DUP7 ADD MSTORE PUSH2 0x3AD0 PUSH1 0xC DUP5 ADD PUSH2 0x40EE JUMP JUMPDEST PUSH2 0x180 DUP7 ADD MSTORE PUSH2 0x3AE2 PUSH1 0xD DUP5 ADD PUSH2 0x40EE JUMP JUMPDEST PUSH2 0x1A0 DUP7 ADD MSTORE PUSH1 0xE DUP4 ADD SLOAD PUSH2 0x1C0 DUP7 ADD MSTORE DUP2 DUP2 AND ISZERO ISZERO PUSH2 0x1E0 DUP7 ADD MSTORE DUP2 DUP2 PUSH1 0x8 SHR AND ISZERO ISZERO PUSH2 0x200 DUP7 ADD MSTORE DUP4 SHR AND ISZERO ISZERO PUSH2 0x220 DUP5 ADD MSTORE ADD DUP1 SLOAD SWAP1 PUSH2 0x3B24 DUP3 PUSH2 0x4C10 JUMP JUMPDEST SWAP2 PUSH2 0x3B32 PUSH1 0x40 MLOAD SWAP4 DUP5 PUSH2 0x3FDE JUMP JUMPDEST DUP1 DUP4 MSTORE PUSH1 0x20 DUP4 ADD SWAP2 PUSH1 0x0 MSTORE PUSH1 0x20 PUSH1 0x0 KECCAK256 PUSH1 0x0 SWAP3 JUMPDEST DUP3 DUP5 LT PUSH2 0x3B70 JUMPI POP POP POP POP PUSH2 0x240 DUP3 ADD MSTORE PUSH2 0x39C9 SWAP2 PUSH2 0x3B69 SWAP2 PUSH2 0x3F1 DUP3 DUP9 PUSH2 0x4FC0 JUMP JUMPDEST SWAP1 DUP6 PUSH2 0x39BD JUMP JUMPDEST PUSH1 0x5 PUSH1 0x20 PUSH1 0x1 SWAP3 PUSH2 0x3B80 DUP6 PUSH2 0x4F11 JUMP JUMPDEST DUP2 MSTORE ADD SWAP3 ADD SWAP4 ADD SWAP3 SWAP1 PUSH2 0x3B46 JUMP JUMPDEST PUSH1 0x1 PUSH1 0x20 DUP2 SWAP3 PUSH2 0x3B9D DUP7 PUSH2 0x40EE JUMP JUMPDEST DUP2 MSTORE ADD SWAP4 ADD SWAP2 ADD SWAP1 SWAP2 PUSH2 0x3A7D JUMP JUMPDEST DUP1 PUSH1 0x0 MSTORE PUSH1 0xE PUSH1 0x20 MSTORE PUSH1 0xFF PUSH1 0xF PUSH1 0x40 PUSH1 0x0 KECCAK256 ADD SLOAD PUSH1 0x10 SHR AND ISZERO PUSH2 0x3BD7 JUMPI JUMPDEST PUSH2 0x3BD2 SWAP1 PUSH2 0x4F61 JUMP JUMPDEST PUSH2 0x396E JUMP JUMPDEST SWAP1 PUSH2 0x3BE4 PUSH2 0x3BD2 SWAP2 PUSH2 0x4F61 JUMP JUMPDEST SWAP2 SWAP1 POP PUSH2 0x3BC9 JUMP JUMPDEST CALLVALUE PUSH2 0x4B9 JUMPI PUSH1 0x20 CALLDATASIZE PUSH1 0x3 NOT ADD SLT PUSH2 0x4B9 JUMPI PUSH1 0x4 CALLDATALOAD PUSH4 0xFFFFFFFF PUSH1 0xE0 SHL DUP2 AND DUP1 SWAP2 SUB PUSH2 0x4B9 JUMPI PUSH1 0x20 SWAP1 PUSH4 0x80AC58CD PUSH1 0xE0 SHL DUP2 EQ SWAP1 DUP2 ISZERO PUSH2 0x3C49 JUMPI JUMPDEST DUP2 ISZERO PUSH2 0x3C38 JUMPI JUMPDEST POP PUSH1 0x40 MLOAD SWAP1 ISZERO ISZERO DUP2 MSTORE RETURN JUMPDEST PUSH4 0x1FFC9A7 PUSH1 0xE0 SHL EQ SWAP1 POP DUP3 PUSH2 0x3C2D JUMP JUMPDEST PUSH4 0x5B5E139F PUSH1 0xE0 SHL DUP2 EQ SWAP2 POP PUSH2 0x3C26 JUMP JUMPDEST CALLVALUE PUSH2 0x4B9 JUMPI PUSH1 0x20 CALLDATASIZE PUSH1 0x3 NOT ADD SLT PUSH2 0x4B9 JUMPI PUSH1 0x20 SWAP1 PUSH1 0x4 CALLDATALOAD PUSH1 0x0 MSTORE PUSH1 0x11 DUP3 MSTORE PUSH1 0xFF PUSH1 0x40 PUSH1 0x0 KECCAK256 SLOAD AND ISZERO ISZERO DUP2 MSTORE RETURN JUMPDEST SWAP2 SWAP1 DUP3 MLOAD SWAP3 DUP4 DUP3 MSTORE PUSH1 0x0 JUMPDEST DUP5 DUP2 LT PUSH2 0x3CB3 JUMPI POP POP DUP3 PUSH1 0x0 PUSH1 0x20 DUP1 SWAP5 SWAP6 DUP5 ADD ADD MSTORE PUSH1 0x1F DUP1 NOT SWAP2 ADD AND ADD ADD SWAP1 JUMP JUMPDEST PUSH1 0x20 DUP2 DUP4 ADD DUP2 ADD MLOAD DUP5 DUP4 ADD DUP3 ADD MSTORE ADD PUSH2 0x3C92 JUMP JUMPDEST SWAP1 DUP1 DUP3 MLOAD SWAP1 DUP2 DUP2 MSTORE PUSH1 0x20 DUP1 SWAP2 ADD SWAP3 DUP2 DUP1 DUP5 PUSH1 0x5 SHL DUP4 ADD ADD SWAP6 ADD SWAP4 PUSH1 0x0 SWAP2 JUMPDEST DUP5 DUP4 LT PUSH2 0x3CF5 JUMPI POP POP POP POP POP POP SWAP1 JUMP JUMPDEST SWAP1 SWAP2 SWAP3 SWAP4 SWAP5 SWAP6 DUP5 DUP1 PUSH1 0x1 SWAP3 PUSH1 0x1F NOT DUP6 DUP3 SUB ADD DUP7 MSTORE DUP10 MLOAD SWAP1 DUP2 MLOAD DUP2 MSTORE DUP5 DUP1 PUSH1 0xA0 SHL SUB DUP4 DUP4 ADD MLOAD AND DUP4 DUP3 ADD MSTORE PUSH1 0x40 DUP1 DUP4 ADD MLOAD SWAP1 DUP3 ADD MSTORE PUSH2 0x3D42 PUSH1 0x60 DUP1 DUP5 ADD MLOAD SWAP1 PUSH1 0xA0 DUP1 SWAP2 DUP6 ADD MSTORE DUP4 ADD SWAP1 PUSH2 0x3C87 JUMP JUMPDEST SWAP2 PUSH1 0x80 DUP1 SWAP2 ADD MLOAD ISZERO ISZERO SWAP2 ADD MSTORE SWAP9 ADD SWAP4 ADD SWAP4 ADD SWAP2 SWAP5 SWAP4 SWAP3 SWAP1 PUSH2 0x3CE5 JUMP JUMPDEST SWAP2 SWAP1 DUP3 MLOAD DUP2 MSTORE PUSH1 0x20 SWAP3 PUSH1 0x1 DUP1 PUSH1 0xA0 SHL SUB DUP5 DUP3 ADD MLOAD AND DUP5 DUP4 ADD MSTORE PUSH2 0x3DE3 PUSH2 0x3DD1 PUSH2 0x3DAB PUSH2 0x3D99 PUSH1 0x40 DUP6 ADD MLOAD PUSH2 0x260 DUP1 PUSH1 0x40 DUP10 ADD MSTORE DUP8 ADD SWAP1 PUSH2 0x3C87 JUMP JUMPDEST PUSH1 0x60 DUP6 ADD MLOAD DUP7 DUP3 SUB PUSH1 0x60 DUP9 ADD MSTORE PUSH2 0x3C87 JUMP JUMPDEST PUSH1 0x80 DUP5 ADD MLOAD PUSH1 0x80 DUP7 ADD MSTORE PUSH1 0xA0 DUP5 ADD MLOAD PUSH1 0xA0 DUP7 ADD MSTORE PUSH1 0xC0 DUP5 ADD MLOAD DUP6 DUP3 SUB PUSH1 0xC0 DUP8 ADD MSTORE PUSH2 0x3C87 JUMP JUMPDEST PUSH1 0xE0 DUP4 ADD MLOAD DUP5 DUP3 SUB PUSH1 0xE0 DUP7 ADD MSTORE PUSH2 0x3C87 JUMP JUMPDEST PUSH2 0x100 SWAP5 DUP6 DUP4 ADD MLOAD SWAP6 DUP5 DUP4 SUB SWAP1 DUP6 ADD MSTORE DUP6 MLOAD DUP1 DUP4 MSTORE DUP2 DUP4 ADD SWAP2 DUP1 DUP1 DUP4 PUSH1 0x5 SHL DUP7 ADD ADD SWAP9 ADD SWAP3 PUSH1 0x0 SWAP1 JUMPDEST DUP4 DUP3 LT PUSH2 0x3ECE JUMPI POP POP POP POP POP POP PUSH2 0x3E85 PUSH2 0x3E71 PUSH2 0x3E52 PUSH2 0x3E3E PUSH2 0x3ECB SWAP7 SWAP8 PUSH2 0x120 DUP1 DUP8 ADD MLOAD SWAP1 DUP9 DUP4 SUB SWAP1 DUP10 ADD MSTORE PUSH2 0x3C87 JUMP JUMPDEST PUSH2 0x140 DUP1 DUP7 ADD MLOAD SWAP1 DUP8 DUP4 SUB SWAP1 DUP9 ADD MSTORE PUSH2 0x3C87 JUMP JUMPDEST PUSH2 0x160 DUP1 DUP6 ADD MLOAD SWAP1 DUP7 ADD MSTORE PUSH2 0x180 DUP1 DUP6 ADD MLOAD SWAP1 DUP7 DUP4 SUB SWAP1 DUP8 ADD MSTORE PUSH2 0x3C87 JUMP JUMPDEST PUSH2 0x1A0 DUP1 DUP5 ADD MLOAD SWAP1 DUP6 DUP4 SUB SWAP1 DUP7 ADD MSTORE PUSH2 0x3C87 JUMP JUMPDEST SWAP2 PUSH2 0x1C0 DUP1 DUP4 ADD MLOAD SWAP1 DUP3 ADD MSTORE PUSH2 0x1E0 DUP1 DUP4 ADD MLOAD ISZERO ISZERO SWAP1 DUP3 ADD MSTORE PUSH2 0x200 DUP1 DUP4 ADD MLOAD ISZERO ISZERO SWAP1 DUP3 ADD MSTORE PUSH2 0x220 DUP1 DUP4 ADD MLOAD ISZERO ISZERO SWAP1 DUP3 ADD MSTORE PUSH2 0x240 DUP1 SWAP3 ADD MLOAD SWAP2 DUP2 DUP5 SUB SWAP2 ADD MSTORE PUSH2 0x3CC7 JUMP JUMPDEST SWAP1 JUMP JUMPDEST SWAP1 SWAP2 SWAP3 SWAP4 SWAP5 SWAP9 DUP4 DUP1 PUSH2 0x3EED PUSH1 0x1 SWAP4 DUP14 PUSH1 0x1F NOT SWAP1 DUP3 SUB ADD DUP7 MSTORE DUP10 MLOAD PUSH2 0x3C87 JUMP JUMPDEST SWAP12 SWAP8 ADD SWAP6 SWAP5 SWAP4 SWAP2 SWAP1 SWAP2 ADD SWAP2 ADD PUSH2 0x3E0C JUMP JUMPDEST PUSH1 0x20 DUP1 DUP3 ADD SWAP1 DUP1 DUP4 MSTORE DUP4 MLOAD DUP1 SWAP3 MSTORE PUSH1 0x40 DUP4 ADD SWAP3 DUP2 PUSH1 0x40 DUP5 PUSH1 0x5 SHL DUP4 ADD ADD SWAP6 ADD SWAP4 PUSH1 0x0 SWAP2 JUMPDEST DUP5 DUP4 LT PUSH2 0x3F32 JUMPI POP POP POP POP POP POP SWAP1 JUMP JUMPDEST SWAP1 SWAP2 SWAP3 SWAP4 SWAP5 SWAP6 DUP5 DUP1 PUSH2 0x3F50 PUSH1 0x1 SWAP4 PUSH1 0x3F NOT DUP7 DUP3 SUB ADD DUP8 MSTORE DUP11 MLOAD PUSH2 0x3D5E JUMP JUMPDEST SWAP9 ADD SWAP4 ADD SWAP4 ADD SWAP2 SWAP5 SWAP4 SWAP3 SWAP1 PUSH2 0x3F22 JUMP JUMPDEST PUSH1 0x4 CALLDATALOAD SWAP1 PUSH1 0x1 PUSH1 0x1 PUSH1 0xA0 SHL SUB DUP3 AND DUP3 SUB PUSH2 0x4B9 JUMPI JUMP JUMPDEST PUSH1 0x24 CALLDATALOAD SWAP1 PUSH1 0x1 PUSH1 0x1 PUSH1 0xA0 SHL SUB DUP3 AND DUP3 SUB PUSH2 0x4B9 JUMPI JUMP JUMPDEST PUSH2 0x260 DUP2 ADD SWAP1 DUP2 LT PUSH1 0x1 PUSH1 0x1 PUSH1 0x40 SHL SUB DUP3 GT OR PUSH2 0x219D JUMPI PUSH1 0x40 MSTORE JUMP JUMPDEST PUSH1 0xA0 DUP2 ADD SWAP1 DUP2 LT PUSH1 0x1 PUSH1 0x1 PUSH1 0x40 SHL SUB DUP3 GT OR PUSH2 0x219D JUMPI PUSH1 0x40 MSTORE JUMP JUMPDEST PUSH1 0x20 DUP2 ADD SWAP1 DUP2 LT PUSH1 0x1 PUSH1 0x1 PUSH1 0x40 SHL SUB DUP3 GT OR PUSH2 0x219D JUMPI PUSH1 0x40 MSTORE JUMP JUMPDEST SWAP1 PUSH1 0x1F DUP1 NOT SWAP2 ADD AND DUP2 ADD SWAP1 DUP2 LT PUSH1 0x1 PUSH1 0x1 PUSH1 0x40 SHL SUB DUP3 GT OR PUSH2 0x219D JUMPI PUSH1 0x40 MSTORE JUMP JUMPDEST PUSH1 0x1 PUSH1 0x1 PUSH1 0x40 SHL SUB DUP2 GT PUSH2 0x219D JUMPI PUSH1 0x1F ADD PUSH1 0x1F NOT AND PUSH1 0x20 ADD SWAP1 JUMP JUMPDEST SWAP3 SWAP2 SWAP3 PUSH2 0x4026 DUP3 PUSH2 0x3FFF JUMP JUMPDEST SWAP2 PUSH2 0x4034 PUSH1 0x40 MLOAD SWAP4 DUP5 PUSH2 0x3FDE JUMP JUMPDEST DUP3 SWAP5 DUP2 DUP5 MSTORE DUP2 DUP4 ADD GT PUSH2 0x4B9 JUMPI DUP3 DUP2 PUSH1 0x20 SWAP4 DUP5 PUSH1 0x0 SWAP7 ADD CALLDATACOPY ADD ADD MSTORE JUMP JUMPDEST SWAP1 DUP1 PUSH1 0x1F DUP4 ADD SLT ISZERO PUSH2 0x4B9 JUMPI DUP2 PUSH1 0x20 PUSH2 0x3ECB SWAP4 CALLDATALOAD SWAP2 ADD PUSH2 0x401A JUMP JUMPDEST PUSH1 0x60 SWAP1 PUSH1 0x3 NOT ADD SLT PUSH2 0x4B9 JUMPI PUSH1 0x1 PUSH1 0x1 PUSH1 0xA0 SHL SUB SWAP1 PUSH1 0x4 CALLDATALOAD DUP3 DUP2 AND DUP2 SUB PUSH2 0x4B9 JUMPI SWAP2 PUSH1 0x24 CALLDATALOAD SWAP1 DUP2 AND DUP2 SUB PUSH2 0x4B9 JUMPI SWAP1 PUSH1 0x44 CALLDATALOAD SWAP1 JUMP JUMPDEST SWAP2 SWAP1 PUSH1 0x20 DUP4 ADD SWAP3 PUSH1 0x4 DUP3 LT ISZERO PUSH2 0x715 JUMPI MSTORE JUMP JUMPDEST SWAP1 PUSH1 0x1 DUP3 DUP2 SHR SWAP3 AND DUP1 ISZERO PUSH2 0x40E4 JUMPI JUMPDEST PUSH1 0x20 DUP4 LT EQ PUSH2 0x40CE JUMPI JUMP JUMPDEST PUSH4 0x4E487B71 PUSH1 0xE0 SHL PUSH1 0x0 MSTORE PUSH1 0x22 PUSH1 0x4 MSTORE PUSH1 0x24 PUSH1 0x0 REVERT JUMPDEST SWAP2 PUSH1 0x7F AND SWAP2 PUSH2 0x40C3 JUMP JUMPDEST SWAP1 PUSH1 0x40 MLOAD SWAP2 DUP3 PUSH1 0x0 DUP3 SLOAD SWAP3 PUSH2 0x4102 DUP5 PUSH2 0x40B4 JUMP JUMPDEST SWAP1 DUP2 DUP5 MSTORE PUSH1 0x1 SWAP5 DUP6 DUP2 AND SWAP1 DUP2 PUSH1 0x0 EQ PUSH2 0x4171 JUMPI POP PUSH1 0x1 EQ PUSH2 0x412E JUMPI JUMPDEST POP POP PUSH2 0x412C SWAP3 POP SUB DUP4 PUSH2 0x3FDE JUMP JUMPDEST JUMP JUMPDEST SWAP1 SWAP4 SWAP2 POP PUSH1 0x0 MSTORE PUSH1 0x20 SWAP1 DUP2 PUSH1 0x0 KECCAK256 SWAP4 PUSH1 0x0 SWAP2 JUMPDEST DUP2 DUP4 LT PUSH2 0x4159 JUMPI POP POP PUSH2 0x412C SWAP4 POP DUP3 ADD ADD CODESIZE DUP1 PUSH2 0x411E JUMP JUMPDEST DUP6 SLOAD DUP9 DUP5 ADD DUP6 ADD MSTORE SWAP5 DUP6 ADD SWAP5 DUP8 SWAP5 POP SWAP2 DUP4 ADD SWAP2 PUSH2 0x4141 JUMP JUMPDEST SWAP2 POP POP PUSH2 0x412C SWAP5 POP PUSH1 0x20 SWAP3 POP PUSH1 0xFF NOT AND DUP3 DUP5 ADD MSTORE ISZERO ISZERO PUSH1 0x5 SHL DUP3 ADD ADD CODESIZE DUP1 PUSH2 0x411E JUMP JUMPDEST DUP1 SLOAD DUP3 LT ISZERO PUSH2 0x41AC JUMPI PUSH1 0x0 MSTORE PUSH1 0x20 PUSH1 0x0 KECCAK256 ADD SWAP1 PUSH1 0x0 SWAP1 JUMP JUMPDEST PUSH4 0x4E487B71 PUSH1 0xE0 SHL PUSH1 0x0 MSTORE PUSH1 0x32 PUSH1 0x4 MSTORE PUSH1 0x24 PUSH1 0x0 REVERT JUMPDEST PUSH1 0x0 SLOAD PUSH1 0x1 PUSH1 0x1 PUSH1 0xA0 SHL SUB AND CALLER SUB PUSH2 0x41D6 JUMPI JUMP JUMPDEST PUSH1 0x64 PUSH1 0x40 MLOAD PUSH3 0x461BCD PUSH1 0xE5 SHL DUP2 MSTORE PUSH1 0x20 PUSH1 0x4 DUP3 ADD MSTORE PUSH1 0x20 PUSH1 0x24 DUP3 ADD MSTORE PUSH32 0x4F776E61626C653A2063616C6C6572206973206E6F7420746865206F776E6572 PUSH1 0x44 DUP3 ADD MSTORE REVERT JUMPDEST ISZERO PUSH2 0x4221 JUMPI JUMP JUMPDEST PUSH1 0x40 MLOAD PUSH3 0x461BCD PUSH1 0xE5 SHL DUP2 MSTORE PUSH1 0x20 PUSH1 0x4 DUP3 ADD MSTORE PUSH1 0x18 PUSH1 0x24 DUP3 ADD MSTORE PUSH32 0x4552433732313A20696E76616C696420746F6B656E2049440000000000000000 PUSH1 0x44 DUP3 ADD MSTORE PUSH1 0x64 SWAP1 REVERT JUMPDEST PUSH1 0x0 SWAP1 DUP2 MSTORE PUSH1 0x4 PUSH1 0x20 MSTORE PUSH1 0x40 SWAP1 KECCAK256 SLOAD PUSH1 0x1 PUSH1 0x1 PUSH1 0xA0 SHL SUB AND PUSH2 0x3ECB DUP2 ISZERO ISZERO PUSH2 0x421A JUMP JUMPDEST PUSH1 0x0 DUP2 DUP2 MSTORE PUSH1 0x4 PUSH1 0x20 MSTORE PUSH1 0x40 SWAP1 KECCAK256 SLOAD PUSH2 0x42AC SWAP1 PUSH1 0x1 PUSH1 0x1 PUSH1 0xA0 SHL SUB AND ISZERO ISZERO PUSH2 0x421A JUMP JUMPDEST PUSH1 0x0 SWAP1 DUP2 MSTORE PUSH1 0x6 PUSH1 0x20 MSTORE PUSH1 0x40 SWAP1 KECCAK256 SLOAD PUSH1 0x1 PUSH1 0x1 PUSH1 0xA0 SHL SUB AND SWAP1 JUMP JUMPDEST ISZERO PUSH2 0x42CE JUMPI JUMP JUMPDEST PUSH1 0x40 MLOAD PUSH3 0x461BCD PUSH1 0xE5 SHL DUP2 MSTORE PUSH1 0x20 PUSH1 0x4 DUP3 ADD MSTORE PUSH1 0x2D PUSH1 0x24 DUP3 ADD MSTORE PUSH32 0x4552433732313A2063616C6C6572206973206E6F7420746F6B656E206F776E65 PUSH1 0x44 DUP3 ADD MSTORE PUSH13 0x1C881BDC88185C1C1C9BDD9959 PUSH1 0x9A SHL PUSH1 0x64 DUP3 ADD MSTORE PUSH1 0x84 SWAP1 REVERT JUMPDEST SWAP1 PUSH2 0x434D SWAP4 SWAP3 SWAP2 PUSH2 0x433D PUSH2 0x34C1 DUP5 CALLER PUSH2 0x43C4 JUMP JUMPDEST PUSH2 0x4348 DUP4 DUP4 DUP4 PUSH2 0x448C JUMP JUMPDEST PUSH2 0x45CD JUMP JUMPDEST ISZERO PUSH2 0x4354 JUMPI JUMP JUMPDEST PUSH1 0x40 MLOAD PUSH3 0x461BCD PUSH1 0xE5 SHL DUP2 MSTORE DUP1 PUSH2 0x436D PUSH1 0x4 DUP3 ADD PUSH2 0x4371 JUMP JUMPDEST SUB SWAP1 REVERT JUMPDEST PUSH1 0x80 SWAP1 PUSH1 0x20 DUP2 MSTORE PUSH1 0x32 PUSH1 0x20 DUP3 ADD MSTORE PUSH32 0x4552433732313A207472616E7366657220746F206E6F6E204552433732315265 PUSH1 0x40 DUP3 ADD MSTORE PUSH18 0x31B2B4BB32B91034B6B83632B6B2B73A32B9 PUSH1 0x71 SHL PUSH1 0x60 DUP3 ADD MSTORE ADD SWAP1 JUMP JUMPDEST SWAP1 PUSH1 0x1 PUSH1 0x1 PUSH1 0xA0 SHL SUB DUP1 DUP1 PUSH2 0x43D8 DUP5 PUSH2 0x4266 JUMP JUMPDEST AND SWAP4 AND SWAP2 DUP4 DUP4 EQ SWAP4 DUP5 ISZERO PUSH2 0x440B JUMPI JUMPDEST POP DUP4 ISZERO PUSH2 0x43F5 JUMPI JUMPDEST POP POP POP SWAP1 JUMP JUMPDEST PUSH2 0x4401 SWAP2 SWAP3 SWAP4 POP PUSH2 0x4289 JUMP JUMPDEST AND EQ CODESIZE DUP1 DUP1 PUSH2 0x43EF JUMP JUMPDEST SWAP1 SWAP4 POP PUSH1 0x0 MSTORE PUSH1 0x7 PUSH1 0x20 MSTORE PUSH1 0x40 PUSH1 0x0 KECCAK256 DUP3 PUSH1 0x0 MSTORE PUSH1 0x20 MSTORE PUSH1 0xFF PUSH1 0x40 PUSH1 0x0 KECCAK256 SLOAD AND SWAP3 CODESIZE PUSH2 0x43E7 JUMP JUMPDEST ISZERO PUSH2 0x4439 JUMPI JUMP JUMPDEST PUSH1 0x40 MLOAD PUSH3 0x461BCD PUSH1 0xE5 SHL DUP2 MSTORE PUSH1 0x20 PUSH1 0x4 DUP3 ADD MSTORE PUSH1 0x25 PUSH1 0x24 DUP3 ADD MSTORE PUSH32 0x4552433732313A207472616E736665722066726F6D20696E636F727265637420 PUSH1 0x44 DUP3 ADD MSTORE PUSH5 0x37BBB732B9 PUSH1 0xD9 SHL PUSH1 0x64 DUP3 ADD MSTORE PUSH1 0x84 SWAP1 REVERT JUMPDEST SWAP1 PUSH2 0x44B4 SWAP2 PUSH2 0x449A DUP5 PUSH2 0x4266 JUMP JUMPDEST PUSH1 0x1 PUSH1 0x1 PUSH1 0xA0 SHL SUB SWAP4 SWAP2 DUP5 AND SWAP3 DUP5 SWAP3 SWAP1 SWAP2 DUP4 AND DUP5 EQ PUSH2 0x4432 JUMP JUMPDEST AND SWAP2 DUP3 ISZERO PUSH2 0x454C JUMPI DUP2 PUSH2 0x44D1 SWAP2 PUSH2 0x44CA DUP7 PUSH2 0x4266 JUMP JUMPDEST AND EQ PUSH2 0x4432 JUMP JUMPDEST PUSH32 0xDDF252AD1BE2C89B69C2B068FC378DAA952BA7F163C4A11628F55A4DF523B3EF PUSH1 0x0 DUP5 DUP2 MSTORE PUSH1 0x6 PUSH1 0x20 MSTORE PUSH1 0x40 DUP2 KECCAK256 PUSH1 0x1 PUSH1 0x1 PUSH1 0x60 SHL SUB PUSH1 0xA0 SHL SWAP1 DUP2 DUP2 SLOAD AND SWAP1 SSTORE DUP4 DUP3 MSTORE PUSH1 0x5 PUSH1 0x20 MSTORE PUSH1 0x40 DUP3 KECCAK256 PUSH1 0x0 NOT DUP2 SLOAD ADD SWAP1 SSTORE DUP5 DUP3 MSTORE PUSH1 0x40 DUP3 KECCAK256 PUSH1 0x1 DUP2 SLOAD ADD SWAP1 SSTORE DUP6 DUP3 MSTORE PUSH1 0x4 PUSH1 0x20 MSTORE DUP5 PUSH1 0x40 DUP4 KECCAK256 SWAP2 DUP3 SLOAD AND OR SWAP1 SSTORE DUP1 LOG4 JUMP JUMPDEST PUSH1 0x40 MLOAD PUSH3 0x461BCD PUSH1 0xE5 SHL DUP2 MSTORE PUSH1 0x20 PUSH1 0x4 DUP3 ADD MSTORE PUSH1 0x24 DUP1 DUP3 ADD MSTORE PUSH32 0x4552433732313A207472616E7366657220746F20746865207A65726F20616464 PUSH1 0x44 DUP3 ADD MSTORE PUSH4 0x72657373 PUSH1 0xE0 SHL PUSH1 0x64 DUP3 ADD MSTORE PUSH1 0x84 SWAP1 REVERT JUMPDEST RETURNDATASIZE ISZERO PUSH2 0x45C8 JUMPI RETURNDATASIZE SWAP1 PUSH2 0x45AE DUP3 PUSH2 0x3FFF JUMP JUMPDEST SWAP2 PUSH2 0x45BC PUSH1 0x40 MLOAD SWAP4 DUP5 PUSH2 0x3FDE JUMP JUMPDEST DUP3 MSTORE RETURNDATASIZE PUSH1 0x0 PUSH1 0x20 DUP5 ADD RETURNDATACOPY JUMP JUMPDEST PUSH1 0x60 SWAP1 JUMP JUMPDEST SWAP2 SWAP3 PUSH1 0x0 SWAP3 SWAP2 SWAP1 DUP2 EXTCODESIZE ISZERO PUSH2 0x46C2 JUMPI PUSH1 0x20 SWAP2 PUSH2 0x4623 SWAP2 DUP6 PUSH1 0x40 MLOAD SWAP6 DUP7 DUP1 SWAP6 DUP2 SWAP5 PUSH4 0xA85BD01 PUSH1 0xE1 SHL SWAP12 DUP13 DUP5 MSTORE CALLER PUSH1 0x4 DUP6 ADD MSTORE PUSH1 0x1 DUP1 PUSH1 0xA0 SHL SUB DUP1 SWAP6 AND PUSH1 0x24 DUP6 ADD MSTORE PUSH1 0x44 DUP5 ADD MSTORE PUSH1 0x80 PUSH1 0x64 DUP5 ADD MSTORE PUSH1 0x84 DUP4 ADD SWAP1 PUSH2 0x3C87 JUMP JUMPDEST SUB SWAP4 AND GAS CALL SWAP1 DUP3 SWAP1 DUP3 PUSH2 0x4673 JUMPI JUMPDEST POP POP PUSH2 0x4665 JUMPI PUSH2 0x463F PUSH2 0x459D JUMP JUMPDEST DUP1 MLOAD SWAP1 DUP2 PUSH2 0x4660 JUMPI PUSH1 0x40 MLOAD PUSH3 0x461BCD PUSH1 0xE5 SHL DUP2 MSTORE DUP1 PUSH2 0x436D PUSH1 0x4 DUP3 ADD PUSH2 0x4371 JUMP JUMPDEST PUSH1 0x20 ADD REVERT JUMPDEST PUSH1 0x1 PUSH1 0x1 PUSH1 0xE0 SHL SUB NOT AND EQ SWAP1 JUMP JUMPDEST SWAP1 SWAP2 SWAP3 POP PUSH1 0x20 DUP2 RETURNDATASIZE DUP3 GT PUSH2 0x46BA JUMPI JUMPDEST DUP2 PUSH2 0x468F PUSH1 0x20 SWAP4 DUP4 PUSH2 0x3FDE JUMP JUMPDEST DUP2 ADD SUB SLT PUSH2 0x46B6 JUMPI MLOAD SWAP1 PUSH1 0x1 PUSH1 0x1 PUSH1 0xE0 SHL SUB NOT DUP3 AND DUP3 SUB PUSH2 0x46B3 JUMPI POP SWAP1 CODESIZE DUP1 PUSH2 0x4631 JUMP JUMPDEST DUP1 REVERT JUMPDEST POP DUP1 REVERT JUMPDEST RETURNDATASIZE SWAP2 POP PUSH2 0x4682 JUMP JUMPDEST POP POP POP POP POP PUSH1 0x1 SWAP1 JUMP JUMPDEST ISZERO PUSH2 0x46D3 JUMPI JUMP JUMPDEST PUSH1 0x40 MLOAD PUSH3 0x461BCD PUSH1 0xE5 SHL DUP2 MSTORE PUSH1 0x20 PUSH1 0x4 DUP3 ADD MSTORE PUSH1 0x25 PUSH1 0x24 DUP3 ADD MSTORE PUSH32 0x4F6E6C792076657269666965642073656C6C6572206F72206F776E657220616C PUSH1 0x44 DUP3 ADD MSTORE PUSH5 0x1B1BDDD959 PUSH1 0xDA SHL PUSH1 0x64 DUP3 ADD MSTORE PUSH1 0x84 SWAP1 REVERT JUMPDEST SWAP1 CALLDATALOAD SWAP1 PUSH1 0x1E NOT DUP2 CALLDATASIZE SUB ADD DUP3 SLT ISZERO PUSH2 0x4B9 JUMPI ADD DUP1 CALLDATALOAD SWAP1 PUSH1 0x1 PUSH1 0x1 PUSH1 0x40 SHL SUB DUP3 GT PUSH2 0x4B9 JUMPI PUSH1 0x20 ADD SWAP2 DUP2 CALLDATASIZE SUB DUP4 SGT PUSH2 0x4B9 JUMPI JUMP JUMPDEST ISZERO PUSH2 0x475F JUMPI JUMP JUMPDEST PUSH1 0x40 MLOAD PUSH3 0x461BCD PUSH1 0xE5 SHL DUP2 MSTORE PUSH1 0x20 PUSH1 0x4 DUP3 ADD MSTORE PUSH1 0x14 PUSH1 0x24 DUP3 ADD MSTORE PUSH20 0x4E616D652063616E6E6F7420626520656D707479 PUSH1 0x60 SHL PUSH1 0x44 DUP3 ADD MSTORE PUSH1 0x64 SWAP1 REVERT JUMPDEST ISZERO PUSH2 0x47A2 JUMPI JUMP JUMPDEST PUSH1 0x40 MLOAD PUSH3 0x461BCD PUSH1 0xE5 SHL DUP2 MSTORE PUSH1 0x20 PUSH1 0x4 DUP3 ADD MSTORE PUSH1 0x1B PUSH1 0x24 DUP3 ADD MSTORE PUSH32 0x4465736372697074696F6E2063616E6E6F7420626520656D7074790000000000 PUSH1 0x44 DUP3 ADD MSTORE PUSH1 0x64 SWAP1 REVERT JUMPDEST ISZERO PUSH2 0x47EE JUMPI JUMP JUMPDEST PUSH1 0x40 MLOAD PUSH3 0x461BCD PUSH1 0xE5 SHL DUP2 MSTORE PUSH1 0x20 PUSH1 0x4 DUP3 ADD MSTORE PUSH1 0x1C PUSH1 0x24 DUP3 ADD MSTORE PUSH32 0x5072696365206D7573742062652067726561746572207468616E203000000000 PUSH1 0x44 DUP3 ADD MSTORE PUSH1 0x64 SWAP1 REVERT JUMPDEST ISZERO PUSH2 0x483A JUMPI JUMP JUMPDEST PUSH1 0x40 MLOAD PUSH3 0x461BCD PUSH1 0xE5 SHL DUP2 MSTORE PUSH1 0x20 PUSH1 0x4 DUP3 ADD MSTORE PUSH1 0x1C PUSH1 0x24 DUP3 ADD MSTORE PUSH32 0x53746F636B206D7573742062652067726561746572207468616E203000000000 PUSH1 0x44 DUP3 ADD MSTORE PUSH1 0x64 SWAP1 REVERT JUMPDEST ISZERO PUSH2 0x4886 JUMPI JUMP JUMPDEST PUSH1 0x40 MLOAD PUSH3 0x461BCD PUSH1 0xE5 SHL DUP2 MSTORE PUSH1 0x20 PUSH1 0x4 DUP3 ADD MSTORE PUSH1 0x15 PUSH1 0x24 DUP3 ADD MSTORE PUSH21 0x436F6C6F722063616E6E6F7420626520656D707479 PUSH1 0x58 SHL PUSH1 0x44 DUP3 ADD MSTORE PUSH1 0x64 SWAP1 REVERT JUMPDEST SWAP1 CALLDATALOAD SWAP1 PUSH1 0x1E NOT DUP2 CALLDATASIZE SUB ADD DUP3 SLT ISZERO PUSH2 0x4B9 JUMPI ADD DUP1 CALLDATALOAD SWAP1 PUSH1 0x1 PUSH1 0x1 PUSH1 0x40 SHL SUB DUP3 GT PUSH2 0x4B9 JUMPI PUSH1 0x20 ADD SWAP2 DUP2 PUSH1 0x5 SHL CALLDATASIZE SUB DUP4 SGT PUSH2 0x4B9 JUMPI JUMP JUMPDEST ISZERO PUSH2 0x48FF JUMPI JUMP JUMPDEST PUSH1 0x40 MLOAD PUSH3 0x461BCD PUSH1 0xE5 SHL DUP2 MSTORE PUSH1 0x20 PUSH1 0x4 DUP3 ADD MSTORE PUSH1 0x16 PUSH1 0x24 DUP3 ADD MSTORE PUSH22 0x496D616765732063616E6E6F7420626520656D707479 PUSH1 0x50 SHL PUSH1 0x44 DUP3 ADD MSTORE PUSH1 0x64 SWAP1 REVERT JUMPDEST ISZERO PUSH2 0x4944 JUMPI JUMP JUMPDEST PUSH1 0x40 MLOAD PUSH3 0x461BCD PUSH1 0xE5 SHL DUP2 MSTORE PUSH1 0x20 PUSH1 0x4 DUP3 ADD MSTORE PUSH1 0x1C PUSH1 0x24 DUP3 ADD MSTORE PUSH32 0x496D616765732063616E6E6F74206265206D6F7265207468616E203500000000 PUSH1 0x44 DUP3 ADD MSTORE PUSH1 0x64 SWAP1 REVERT JUMPDEST ISZERO PUSH2 0x4990 JUMPI JUMP JUMPDEST PUSH1 0x40 MLOAD PUSH3 0x461BCD PUSH1 0xE5 SHL DUP2 MSTORE PUSH1 0x20 PUSH1 0x4 DUP3 ADD MSTORE PUSH1 0x14 PUSH1 0x24 DUP3 ADD MSTORE PUSH20 0x53697A652063616E6E6F7420626520656D707479 PUSH1 0x60 SHL PUSH1 0x44 DUP3 ADD MSTORE PUSH1 0x64 SWAP1 REVERT JUMPDEST ISZERO PUSH2 0x49D3 JUMPI JUMP JUMPDEST PUSH1 0x40 MLOAD PUSH3 0x461BCD PUSH1 0xE5 SHL DUP2 MSTORE PUSH1 0x20 PUSH1 0x4 DUP3 ADD MSTORE PUSH1 0x18 PUSH1 0x24 DUP3 ADD MSTORE PUSH32 0x43617465676F72792063616E6E6F7420626520656D7074790000000000000000 PUSH1 0x44 DUP3 ADD MSTORE PUSH1 0x64 SWAP1 REVERT JUMPDEST ISZERO PUSH2 0x4A1F JUMPI JUMP JUMPDEST PUSH1 0x40 MLOAD PUSH3 0x461BCD PUSH1 0xE5 SHL DUP2 MSTORE PUSH1 0x20 PUSH1 0x4 DUP3 ADD MSTORE PUSH1 0x1C PUSH1 0x24 DUP3 ADD MSTORE PUSH32 0x5375622D63617465676F72792063616E6E6F7420626520656D70747900000000 PUSH1 0x44 DUP3 ADD MSTORE PUSH1 0x64 SWAP1 REVERT JUMPDEST ISZERO PUSH2 0x4A6B JUMPI JUMP JUMPDEST PUSH1 0x40 MLOAD PUSH3 0x461BCD PUSH1 0xE5 SHL DUP2 MSTORE PUSH1 0x20 PUSH1 0x4 DUP3 ADD MSTORE PUSH1 0x15 PUSH1 0x24 DUP3 ADD MSTORE PUSH21 0x4D6F64656C2063616E6E6F7420626520656D707479 PUSH1 0x58 SHL PUSH1 0x44 DUP3 ADD MSTORE PUSH1 0x64 SWAP1 REVERT JUMPDEST ISZERO PUSH2 0x4AAF JUMPI JUMP JUMPDEST PUSH1 0x40 MLOAD PUSH3 0x461BCD PUSH1 0xE5 SHL DUP2 MSTORE PUSH1 0x20 PUSH1 0x4 DUP3 ADD MSTORE PUSH1 0x15 PUSH1 0x24 DUP3 ADD MSTORE PUSH21 0x4272616E642063616E6E6F7420626520656D707479 PUSH1 0x58 SHL PUSH1 0x44 DUP3 ADD MSTORE PUSH1 0x64 SWAP1 REVERT JUMPDEST ISZERO PUSH2 0x4AF3 JUMPI JUMP JUMPDEST PUSH1 0x40 MLOAD PUSH3 0x461BCD PUSH1 0xE5 SHL DUP2 MSTORE PUSH1 0x20 PUSH1 0x4 DUP3 ADD MSTORE PUSH1 0x1D PUSH1 0x24 DUP3 ADD MSTORE PUSH32 0x576569676874206D7573742062652067726561746572207468616E2030000000 PUSH1 0x44 DUP3 ADD MSTORE PUSH1 0x64 SWAP1 REVERT JUMPDEST ISZERO PUSH2 0x4B3F JUMPI JUMP JUMPDEST PUSH1 0x40 MLOAD PUSH3 0x461BCD PUSH1 0xE5 SHL DUP2 MSTORE PUSH1 0x20 PUSH1 0x4 DUP3 ADD MSTORE PUSH1 0x1A PUSH1 0x24 DUP3 ADD MSTORE PUSH32 0x534B55206D7573742062652067726561746572207468616E2030000000000000 PUSH1 0x44 DUP3 ADD MSTORE PUSH1 0x64 SWAP1 REVERT JUMPDEST PUSH1 0x40 MLOAD SWAP1 PUSH2 0x4B91 DUP3 PUSH2 0x3F8C JUMP JUMPDEST DUP2 PUSH2 0x240 PUSH1 0x0 SWAP2 DUP3 DUP2 MSTORE DUP3 PUSH1 0x20 DUP3 ADD MSTORE PUSH1 0x60 SWAP3 DUP4 PUSH1 0x40 DUP4 ADD MSTORE DUP4 DUP1 DUP4 ADD MSTORE DUP1 PUSH1 0x80 DUP4 ADD MSTORE DUP1 PUSH1 0xA0 DUP4 ADD MSTORE DUP4 PUSH1 0xC0 DUP4 ADD MSTORE DUP4 PUSH1 0xE0 DUP4 ADD MSTORE DUP4 PUSH2 0x100 DUP4 ADD MSTORE DUP4 PUSH2 0x120 DUP4 ADD MSTORE DUP4 PUSH2 0x140 DUP4 ADD MSTORE DUP1 PUSH2 0x160 DUP4 ADD MSTORE DUP4 PUSH2 0x180 DUP4 ADD MSTORE DUP4 PUSH2 0x1A0 DUP4 ADD MSTORE DUP1 PUSH2 0x1C0 DUP4 ADD MSTORE DUP1 PUSH2 0x1E0 DUP4 ADD MSTORE DUP1 PUSH2 0x200 DUP4 ADD MSTORE PUSH2 0x220 DUP3 ADD MSTORE ADD MSTORE JUMP JUMPDEST PUSH1 0x1 PUSH1 0x1 PUSH1 0x40 SHL SUB DUP2 GT PUSH2 0x219D JUMPI PUSH1 0x5 SHL PUSH1 0x20 ADD SWAP1 JUMP JUMPDEST DUP2 DUP2 LT PUSH2 0x4C32 JUMPI POP POP JUMP JUMPDEST PUSH1 0x0 DUP2 SSTORE PUSH1 0x1 ADD PUSH2 0x4C27 JUMP JUMPDEST SWAP2 SWAP1 PUSH1 0x1F DUP2 GT PUSH2 0x4C4D JUMPI POP POP POP JUMP JUMPDEST PUSH2 0x412C SWAP3 PUSH1 0x0 MSTORE PUSH1 0x20 PUSH1 0x0 KECCAK256 SWAP1 PUSH1 0x20 PUSH1 0x1F DUP5 ADD PUSH1 0x5 SHR DUP4 ADD SWAP4 LT PUSH2 0x4C79 JUMPI JUMPDEST PUSH1 0x1F ADD PUSH1 0x5 SHR ADD SWAP1 PUSH2 0x4C27 JUMP JUMPDEST SWAP1 SWAP2 POP DUP2 SWAP1 PUSH2 0x4C6C JUMP JUMPDEST PUSH2 0x4C8D DUP2 SLOAD PUSH2 0x40B4 JUMP JUMPDEST SWAP1 DUP2 PUSH2 0x4C97 JUMPI POP POP JUMP JUMPDEST DUP2 PUSH1 0x1F PUSH1 0x0 SWAP4 GT PUSH1 0x1 EQ PUSH2 0x4CA9 JUMPI POP SSTORE JUMP JUMPDEST SWAP1 DUP1 DUP4 SWAP2 DUP3 MSTORE PUSH2 0x4CC8 PUSH1 0x1F PUSH1 0x20 DUP5 KECCAK256 SWAP5 ADD PUSH1 0x5 SHR DUP5 ADD PUSH1 0x1 DUP6 ADD PUSH2 0x4C27 JUMP JUMPDEST SSTORE SSTORE JUMP JUMPDEST SWAP1 PUSH1 0x1 PUSH1 0x40 SHL DUP2 GT PUSH2 0x219D JUMPI DUP2 SLOAD SWAP2 DUP2 DUP2 SSTORE DUP3 DUP3 LT PUSH2 0x4CEA JUMPI POP POP POP JUMP JUMPDEST PUSH1 0x0 MSTORE PUSH1 0x20 PUSH1 0x0 KECCAK256 SWAP2 DUP3 ADD SWAP2 ADD JUMPDEST DUP2 DUP2 LT PUSH2 0x4D03 JUMPI POP POP JUMP JUMPDEST DUP1 PUSH2 0x4D0F PUSH1 0x1 SWAP3 PUSH2 0x4C83 JUMP JUMPDEST ADD PUSH2 0x4CF8 JUMP JUMPDEST DUP2 MLOAD DUP2 SSTORE PUSH1 0x1 SWAP2 DUP3 DUP3 ADD PUSH1 0x20 SWAP1 PUSH1 0x1 DUP1 PUSH1 0xA0 SHL SUB DUP3 DUP5 ADD MLOAD AND PUSH1 0x1 PUSH1 0x1 PUSH1 0x60 SHL SUB PUSH1 0xA0 SHL DUP3 SLOAD AND OR SWAP1 SSTORE PUSH1 0x40 DUP3 ADD MLOAD PUSH1 0x2 DUP5 ADD SSTORE PUSH1 0x3 DUP4 ADD SWAP1 PUSH1 0x60 DUP4 ADD MLOAD SWAP5 DUP6 MLOAD SWAP2 PUSH1 0x1 PUSH1 0x1 PUSH1 0x40 SHL SUB DUP4 GT PUSH2 0x219D JUMPI PUSH2 0x4D73 DUP4 PUSH2 0x1762 DUP7 SLOAD PUSH2 0x40B4 JUMP JUMPDEST DUP1 PUSH1 0x1F DUP5 GT PUSH1 0x1 EQ PUSH2 0x4DCB JUMPI POP SWAP2 DUP1 DUP1 PUSH1 0x80 SWAP6 SWAP4 PUSH1 0x4 SWAP8 SWAP6 PUSH2 0x412C SWAP11 PUSH1 0x0 SWAP5 PUSH2 0x4DC0 JUMPI JUMPDEST POP POP SHL SWAP2 PUSH1 0x0 NOT SWAP1 PUSH1 0x3 SHL SHR NOT AND OR SWAP1 SSTORE JUMPDEST ADD MLOAD ISZERO ISZERO SWAP2 ADD SWAP1 PUSH1 0xFF DUP1 NOT DUP4 SLOAD AND SWAP2 ISZERO ISZERO AND OR SWAP1 SSTORE JUMP JUMPDEST ADD MLOAD SWAP3 POP CODESIZE DUP1 PUSH2 0x4D97 JUMP JUMPDEST SWAP2 SWAP4 SWAP5 SWAP6 SWAP7 PUSH1 0x1F NOT DUP5 AND DUP7 PUSH1 0x0 MSTORE DUP4 PUSH1 0x0 KECCAK256 SWAP4 PUSH1 0x0 SWAP1 JUMPDEST DUP3 DUP3 LT PUSH2 0x4E28 JUMPI POP POP SWAP3 PUSH1 0x80 SWAP6 SWAP3 DUP6 SWAP3 PUSH2 0x412C SWAP11 SWAP10 SWAP7 PUSH1 0x4 SWAP10 SWAP7 LT PUSH2 0x4E0F JUMPI JUMPDEST POP POP POP DUP2 SHL ADD SWAP1 SSTORE PUSH2 0x4DA9 JUMP JUMPDEST ADD MLOAD PUSH1 0x0 NOT PUSH1 0xF8 DUP5 PUSH1 0x3 SHL AND SHR NOT AND SWAP1 SSTORE CODESIZE DUP1 DUP1 PUSH2 0x4E02 JUMP JUMPDEST DUP1 DUP9 DUP7 SWAP8 DUP3 SWAP5 SWAP8 DUP8 ADD MLOAD DUP2 SSTORE ADD SWAP7 ADD SWAP5 ADD SWAP1 PUSH2 0x4DE2 JUMP JUMPDEST ISZERO PUSH2 0x4E46 JUMPI JUMP JUMPDEST PUSH1 0x40 MLOAD PUSH3 0x461BCD PUSH1 0xE5 SHL DUP2 MSTORE PUSH1 0x20 PUSH1 0x4 DUP3 ADD MSTORE PUSH1 0x1C PUSH1 0x24 DUP3 ADD MSTORE PUSH32 0x4552433732313A20746F6B656E20616C7265616479206D696E74656400000000 PUSH1 0x44 DUP3 ADD MSTORE PUSH1 0x64 SWAP1 REVERT JUMPDEST ISZERO PUSH2 0x4E92 JUMPI JUMP JUMPDEST PUSH1 0x40 MLOAD PUSH3 0x461BCD PUSH1 0xE5 SHL DUP2 MSTORE PUSH1 0x20 PUSH1 0x4 DUP3 ADD MSTORE PUSH1 0x16 PUSH1 0x24 DUP3 ADD MSTORE PUSH22 0x141C9BD91D58DD08191BD95CC81B9BDD08195E1A5CDD PUSH1 0x52 SHL PUSH1 0x44 DUP3 ADD MSTORE PUSH1 0x64 SWAP1 REVERT JUMPDEST ISZERO PUSH2 0x4ED7 JUMPI JUMP JUMPDEST PUSH1 0x40 MLOAD PUSH3 0x461BCD PUSH1 0xE5 SHL DUP2 MSTORE PUSH1 0x20 PUSH1 0x4 DUP3 ADD MSTORE PUSH1 0x12 PUSH1 0x24 DUP3 ADD MSTORE PUSH18 0x141C9BD91D58DD081A5CC819195B195D1959 PUSH1 0x72 SHL PUSH1 0x44 DUP3 ADD MSTORE PUSH1 0x64 SWAP1 REVERT JUMPDEST SWAP1 PUSH1 0x40 MLOAD PUSH2 0x4F1E DUP2 PUSH2 0x3FA8 JUMP JUMPDEST PUSH1 0x80 PUSH1 0xFF PUSH1 0x4 DUP4 SWAP6 DUP1 SLOAD DUP6 MSTORE PUSH1 0x1 DUP1 PUSH1 0xA0 SHL SUB PUSH1 0x1 DUP3 ADD SLOAD AND PUSH1 0x20 DUP7 ADD MSTORE PUSH1 0x2 DUP2 ADD SLOAD PUSH1 0x40 DUP7 ADD MSTORE PUSH2 0x4F52 PUSH1 0x3 DUP3 ADD PUSH2 0x40EE JUMP JUMPDEST PUSH1 0x60 DUP7 ADD MSTORE ADD SLOAD AND ISZERO ISZERO SWAP2 ADD MSTORE JUMP JUMPDEST PUSH1 0x0 NOT DUP2 EQ PUSH2 0x31DF JUMPI PUSH1 0x1 ADD SWAP1 JUMP JUMPDEST SWAP1 PUSH2 0x4F7A DUP3 PUSH2 0x4C10 JUMP JUMPDEST PUSH2 0x4F87 PUSH1 0x40 MLOAD SWAP2 DUP3 PUSH2 0x3FDE JUMP JUMPDEST DUP3 DUP2 MSTORE DUP1 SWAP3 PUSH2 0x4F98 PUSH1 0x1F NOT SWAP2 PUSH2 0x4C10 JUMP JUMPDEST ADD SWAP1 PUSH1 0x0 JUMPDEST DUP3 DUP2 LT PUSH2 0x4FA9 JUMPI POP POP POP JUMP JUMPDEST PUSH1 0x20 SWAP1 PUSH2 0x4FB4 PUSH2 0x4B84 JUMP JUMPDEST DUP3 DUP3 DUP6 ADD ADD MSTORE ADD PUSH2 0x4F9D JUMP JUMPDEST DUP1 MLOAD DUP3 LT ISZERO PUSH2 0x41AC JUMPI PUSH1 0x20 SWAP2 PUSH1 0x5 SHL ADD ADD SWAP1 JUMP JUMPDEST PUSH1 0x40 MLOAD SWAP1 PUSH2 0x4FE1 DUP3 PUSH2 0x3FA8 JUMP JUMPDEST PUSH1 0x0 PUSH1 0x80 DUP4 DUP3 DUP2 MSTORE DUP3 PUSH1 0x20 DUP3 ADD MSTORE DUP3 PUSH1 0x40 DUP3 ADD MSTORE PUSH1 0x60 DUP1 DUP3 ADD MSTORE ADD MSTORE JUMP JUMPDEST DUP1 SLOAD DUP3 LT ISZERO PUSH2 0x41AC JUMPI PUSH1 0x0 MSTORE PUSH1 0x5 PUSH1 0x20 PUSH1 0x0 KECCAK256 SWAP2 MUL ADD SWAP1 PUSH1 0x0 SWAP1 JUMP JUMPDEST PUSH1 0x1 PUSH1 0x1 PUSH1 0xA0 SHL SUB AND DUP1 ISZERO PUSH2 0x507A JUMPI PUSH1 0x0 DUP1 DUP1 SWAP4 DUP2 SWAP4 GAS CALL PUSH2 0x503B PUSH2 0x459D JUMP JUMPDEST POP ISZERO PUSH2 0x5043 JUMPI JUMP JUMPDEST PUSH1 0x40 MLOAD PUSH3 0x461BCD PUSH1 0xE5 SHL DUP2 MSTORE PUSH1 0x20 PUSH1 0x4 DUP3 ADD MSTORE PUSH1 0xF PUSH1 0x24 DUP3 ADD MSTORE PUSH15 0x151C985B9CD9995C8819985A5B1959 PUSH1 0x8A SHL PUSH1 0x44 DUP3 ADD MSTORE PUSH1 0x64 SWAP1 REVERT JUMPDEST PUSH1 0x40 MLOAD PUSH3 0x461BCD PUSH1 0xE5 SHL DUP2 MSTORE PUSH1 0x20 PUSH1 0x4 DUP3 ADD MSTORE PUSH1 0xF PUSH1 0x24 DUP3 ADD MSTORE PUSH15 0x496E76616C69642061646472657373 PUSH1 0x88 SHL PUSH1 0x44 DUP3 ADD MSTORE PUSH1 0x64 SWAP1 REVERT INVALID LOG2 PUSH5 0x6970667358 0x22 SLT KECCAK256 DIV 0xA7 ADDMOD 0xE7 0xB8 PUSH4 0xFDFA916D PUSH26 0xE9964D8F8FE2959514C5827C3F59B4D541309963A464736F6C63 NUMBER STOP ADDMOD SGT STOP CALLER "},"methodIdentifiers":{"adminImpersonating(address)":"b95a0628","approve(address,uint256)":"095ea7b3","balanceOf(address)":"70a08231","createProduct((string,string,uint256,uint256,string,string,string[],string,string,string,string,uint256,uint256))":"b235b4a9","createReview(uint256,uint256,string)":"16d81b38","deleteProduct(uint256)":"ed90c7b7","deleteReview(uint256,uint256)":"24d41a03","getAllProducts()":"02ee3a52","getApproved(uint256)":"081812fc","getMyProducts()":"fdca4ca3","getProduct(uint256)":"b9db15b4","getReviews(uint256)":"9d4a2255","getSellerBalance(address)":"2148893f","impersonateAccount(address)":"a22fb387","isApprovedForAll(address,address)":"e985e9c5","name()":"06fdde03","owner()":"8da5cb5b","ownerOf(uint256)":"6352211e","productExists(uint256)":"af55ed64","products(uint256)":"7acc0b20","registerSeller()":"52c9224c","registeredSellers(address)":"c64b8a8f","renounceOwnership()":"715018a6","reviewExists(uint256)":"00d64e76","safeTransferFrom(address,address,uint256)":"42842e0e","safeTransferFrom(address,address,uint256,bytes)":"b88d4fde","sellerBalances(address)":"607eb4e4","sellerProducts(address,uint256)":"c1302b34","sellerStatus(address)":"45de84db","servicePct()":"e01ef6e6","setApprovalForAll(address,bool)":"a22cb465","stopImpersonating()":"1385fd92","supportsInterface(bytes4)":"01ffc9a7","symbol()":"95d89b41","tokenURI(uint256)":"c87b56dd","transferFrom(address,address,uint256)":"23b872dd","transferOwnership(address)":"f2fde38b","updateProduct(uint256,(string,string,uint256,uint256,string,string,string[],string,string,string,string,uint256,uint256))":"b1191052","updateSellerStatus(address,uint8)":"97b6f393","withdraw()":"3ccfd60b"}}}}}