{"contracts/HemShopBase.sol":{"HemShopBase":{"abi":[{"inputs":[{"internalType":"uint256","name":"_pct","type":"uint256"}],"stateMutability":"nonpayable","type":"constructor"},{"anonymous":false,"inputs":[{"indexed":false,"internalType":"address","name":"admin","type":"address"},{"indexed":false,"internalType":"address","name":"impersonatedAccount","type":"address"}],"name":"AdminImpersonationChanged","type":"event"},{"anonymous":false,"inputs":[{"indexed":true,"internalType":"address","name":"owner","type":"address"},{"indexed":true,"internalType":"address","name":"approved","type":"address"},{"indexed":true,"internalType":"uint256","name":"tokenId","type":"uint256"}],"name":"Approval","type":"event"},{"anonymous":false,"inputs":[{"indexed":true,"internalType":"address","name":"owner","type":"address"},{"indexed":true,"internalType":"address","name":"operator","type":"address"},{"indexed":false,"internalType":"bool","name":"approved","type":"bool"}],"name":"ApprovalForAll","type":"event"},{"anonymous":false,"inputs":[{"indexed":true,"internalType":"address","name":"previousOwner","type":"address"},{"indexed":true,"internalType":"address","name":"newOwner","type":"address"}],"name":"OwnershipTransferred","type":"event"},{"anonymous":false,"inputs":[{"indexed":true,"internalType":"address","name":"from","type":"address"},{"indexed":true,"internalType":"address","name":"to","type":"address"},{"indexed":true,"internalType":"uint256","name":"tokenId","type":"uint256"}],"name":"Transfer","type":"event"},{"inputs":[{"internalType":"address","name":"","type":"address"}],"name":"adminImpersonating","outputs":[{"internalType":"address","name":"","type":"address"}],"stateMutability":"view","type":"function"},{"inputs":[{"internalType":"address","name":"to","type":"address"},{"internalType":"uint256","name":"tokenId","type":"uint256"}],"name":"approve","outputs":[],"stateMutability":"nonpayable","type":"function"},{"inputs":[{"internalType":"address","name":"owner","type":"address"}],"name":"balanceOf","outputs":[{"internalType":"uint256","name":"","type":"uint256"}],"stateMutability":"view","type":"function"},{"inputs":[{"internalType":"uint256","name":"tokenId","type":"uint256"}],"name":"getApproved","outputs":[{"internalType":"address","name":"","type":"address"}],"stateMutability":"view","type":"function"},{"inputs":[{"internalType":"address","name":"account","type":"address"}],"name":"impersonateAccount","outputs":[],"stateMutability":"nonpayable","type":"function"},{"inputs":[{"internalType":"address","name":"owner","type":"address"},{"internalType":"address","name":"operator","type":"address"}],"name":"isApprovedForAll","outputs":[{"internalType":"bool","name":"","type":"bool"}],"stateMutability":"view","type":"function"},{"inputs":[],"name":"name","outputs":[{"internalType":"string","name":"","type":"string"}],"stateMutability":"view","type":"function"},{"inputs":[],"name":"owner","outputs":[{"internalType":"address","name":"","type":"address"}],"stateMutability":"view","type":"function"},{"inputs":[{"internalType":"uint256","name":"tokenId","type":"uint256"}],"name":"ownerOf","outputs":[{"internalType":"address","name":"","type":"address"}],"stateMutability":"view","type":"function"},{"inputs":[],"name":"renounceOwnership","outputs":[],"stateMutability":"nonpayable","type":"function"},{"inputs":[{"internalType":"address","name":"from","type":"address"},{"internalType":"address","name":"to","type":"address"},{"internalType":"uint256","name":"tokenId","type":"uint256"}],"name":"safeTransferFrom","outputs":[],"stateMutability":"nonpayable","type":"function"},{"inputs":[{"internalType":"address","name":"from","type":"address"},{"internalType":"address","name":"to","type":"address"},{"internalType":"uint256","name":"tokenId","type":"uint256"},{"internalType":"bytes","name":"data","type":"bytes"}],"name":"safeTransferFrom","outputs":[],"stateMutability":"nonpayable","type":"function"},{"inputs":[{"internalType":"address","name":"","type":"address"}],"name":"sellerStatus","outputs":[{"internalType":"enum HemShopBase.SellerStatus","name":"","type":"uint8"}],"stateMutability":"view","type":"function"},{"inputs":[],"name":"servicePct","outputs":[{"internalType":"uint256","name":"","type":"uint256"}],"stateMutability":"view","type":"function"},{"inputs":[{"internalType":"address","name":"operator","type":"address"},{"internalType":"bool","name":"approved","type":"bool"}],"name":"setApprovalForAll","outputs":[],"stateMutability":"nonpayable","type":"function"},{"inputs":[],"name":"stopImpersonating","outputs":[],"stateMutability":"nonpayable","type":"function"},{"inputs":[{"internalType":"bytes4","name":"interfaceId","type":"bytes4"}],"name":"supportsInterface","outputs":[{"internalType":"bool","name":"","type":"bool"}],"stateMutability":"view","type":"function"},{"inputs":[],"name":"symbol","outputs":[{"internalType":"string","name":"","type":"string"}],"stateMutability":"view","type":"function"},{"inputs":[{"internalType":"uint256","name":"tokenId","type":"uint256"}],"name":"tokenURI","outputs":[{"internalType":"string","name":"","type":"string"}],"stateMutability":"view","type":"function"},{"inputs":[{"internalType":"address","name":"from","type":"address"},{"internalType":"address","name":"to","type":"address"},{"internalType":"uint256","name":"tokenId","type":"uint256"}],"name":"transferFrom","outputs":[],"stateMutability":"nonpayable","type":"function"},{"inputs":[{"internalType":"address","name":"newOwner","type":"address"}],"name":"transferOwnership","outputs":[],"stateMutability":"nonpayable","type":"function"}],"evm":{"bytecode":{"linkReferences":{},"object":"6080346200037757601f90601f196001600160401b03620015313881900385810184168501838111868210176200037c57859282916040528339602094859181010312620003775751936200005362000392565b926007845266048656d53686f760cc1b858501526200007162000392565b60038082526204873760ec1b8783015260008054336001600160a01b031982168117835592989394919392906001600160a01b03167f8be0079c531659141344cd1fd0a4f28419497f9722a3daafe3b4186f6b6457e08580a360019687805580519087821162000363576002548981811c9116801562000358575b858210146200034457908188849311620002f0575b5084908883116001146200028e57869262000282575b5050600019828b1b1c191690881b176002555b83519586116200026e5787548781811c9116801562000263575b838210146200024f5785811162000207575b5081948611600114620001a25750509183949184939462000196575b50501b9160001990841b1c19161790555b600b5560405161117e9081620003b38239f35b01519250388062000172565b8783528183209493928692918316915b88838310620001ec5750505010620001d3575b505050811b01905562000183565b015160001983861b60f8161c19169055388080620001c5565b858701518855909601959485019487935090810190620001b2565b8884528284208680890160051c820192858a1062000245575b0160051c019088905b8281106200023957505062000156565b85815501889062000229565b9250819262000220565b634e487b7160e01b84526022600452602484fd5b90607f169062000144565b634e487b7160e01b83526041600452602483fd5b01519050388062000117565b90848b9416916002885286882092885b88828210620002d95750508411620002c0575b505050811b016002556200012a565b0151600019838d1b60f8161c19169055388080620002b1565b8385015186558e979095019493840193016200029e565b909150600286528486208880850160051c8201928786106200033a575b918c91869594930160051c01915b8281106200032b57505062000101565b8881558594508c91016200031b565b925081926200030d565b634e487b7160e01b86526022600452602486fd5b90607f1690620000ec565b634e487b7160e01b85526041600452602485fd5b600080fd5b634e487b7160e01b600052604160045260246000fd5b60408051919082016001600160401b038111838210176200037c5760405256fe6080604081815260048036101561001557600080fd5b600092833560e01c90816301ffc9a714610abc5750806306fdde03146109ef578063081812fc146109cf578063095ea7b31461085f5780631385fd92146107f957806323b872dd146107cf57806342842e0e146107a657806345de84db1461074d5780636352211e1461071c57806370a0823114610686578063715018a61461062c5780638da5cb5b1461060457806395d89b41146104ea578063a22cb4651461041b578063a22fb38714610356578063b88d4fde146102cd578063b95a062814610292578063c87b56dd14610240578063e01ef6e614610221578063e985e9c5146101cf5763f2fde38b1461010a57600080fd5b346101cb5760203660031901126101cb57610123610b68565b9061012c610c3e565b6001600160a01b0391821692831561017957505082546001600160a01b0319811683178455167f8be0079c531659141344cd1fd0a4f28419497f9722a3daafe3b4186f6b6457e08380a380f35b906020608492519162461bcd60e51b8352820152602660248201527f4f776e61626c653a206e6577206f776e657220697320746865207a65726f206160448201526564647265737360d01b6064820152fd5b8280fd5b50503461021d578060031936011261021d5760ff816020936101ef610b68565b6101f7610b83565b6001600160a01b0391821683526007875283832091168252855220549151911615158152f35b5080fd5b50503461021d578160031936011261021d57602090600b549051908152f35b5091903461021d57602036600319011261021d5761026161028e9335611002565b81815161026d81610bce565b5280519161027a83610bce565b825251918291602083526020830190610b28565b0390f35b50503461021d57602036600319011261021d576020916001600160a01b03908290826102bc610b68565b168152600d85522054169051908152f35b5090346101cb5760803660031901126101cb576102e8610b68565b6102f0610b83565b846064359467ffffffffffffffff861161021d573660238701121561021d578501359461032861031f87610c22565b95519586610c00565b858552366024878301011161021d578561035396602460209301838801378501015260443591610d8e565b80f35b50346101cb5760203660031901126101cb57610370610b68565b610378610c3e565b6001600160a01b03169081156103d85750907f32b449308c94e824ccedd9877932cd82f89a481c06c4643a0cb2914454a8c58291338452600d602052818420816001600160601b0360a01b8254161790558151903382526020820152a180f35b606490602084519162461bcd60e51b8352820152601760248201527f496e76616c6964206163636f756e7420616464726573730000000000000000006044820152fd5b5090346101cb57806003193601126101cb57610435610b68565b90602435918215158093036104e6576001600160a01b0316923384146104a45750338452600760205280842083855260205280842060ff1981541660ff8416179055519081527f17307eab39ab6107e8899845ad3d59bd9653f200f220920489ca2b5937696c3160203392a380f35b6020606492519162461bcd60e51b8352820152601960248201527f4552433732313a20617070726f766520746f2063616c6c6572000000000000006044820152fd5b8480fd5b5091346106015780600319360112610601578151918160035492600184811c918186169586156105f7575b60209687851081146105e4578899509688969785829a5291826000146105bd575050600114610561575b50505061028e9291610552910385610c00565b51928284938452830190610b28565b9190869350600383527fc2575a0e9e593c00f959f8c92f12db2869c3395a3b0502d05e2516446f71f85b5b8284106105a5575050508201018161055261028e61053f565b8054848a01860152889550879490930192810161058c565b60ff19168782015293151560051b86019093019350849250610552915061028e905061053f565b634e487b7160e01b835260228a52602483fd5b92607f1692610515565b80fd5b50503461021d578160031936011261021d57905490516001600160a01b039091168152602090f35b8334610601578060031936011261060157610645610c3e565b80546001600160a01b03198116825581906001600160a01b03167f8be0079c531659141344cd1fd0a4f28419497f9722a3daafe3b4186f6b6457e08280a380f35b5082903461021d57602036600319011261021d576001600160a01b036106aa610b68565b169081156106c75760208480858581526005845220549051908152f35b608490602085519162461bcd60e51b8352820152602960248201527f4552433732313a2061646472657373207a65726f206973206e6f7420612076616044820152683634b21037bbb732b960b91b6064820152fd5b509134610601576020366003190112610601575061073c60209235610ce2565b90516001600160a01b039091168152f35b5091903461021d57602036600319011261021d576001600160a01b03610771610b68565b168252600c60205260ff81832054169051918382101561079357602083838152f35b634e487b7160e01b815260218452602490fd5b50503461021d57610353906107ba36610b99565b919251926107c784610bce565b858452610d8e565b8334610601576103536107e136610b99565b916107f46107ef8433610e29565b610d2c565b610ef1565b50503461021d578160031936011261021d577f32b449308c94e824ccedd9877932cd82f89a481c06c4643a0cb2914454a8c58290610835610c3e565b338352600d6020528083206001600160601b0360a01b81541690558051338152836020820152a180f35b50346101cb57816003193601126101cb57610878610b68565b6024359290916001600160a01b039190828061089387610ce2565b1694169380851461098257803314908115610963575b50156108fb57508385526006602052842080546001600160a01b031916831790556108d383610ce2565b167f8c5be1e5ebec7d5bd14f71427d1e84f3dd0314c0f7b2291e5b200ac8c7c3b9258480a480f35b6020608492519162461bcd60e51b8352820152603d60248201527f4552433732313a20617070726f76652063616c6c6572206973206e6f7420746f60448201527f6b656e206f776e6572206f7220617070726f76656420666f7220616c6c0000006064820152fd5b90508652600760205281862033875260205260ff8287205416386108a9565b506020608492519162461bcd60e51b8352820152602160248201527f4552433732313a20617070726f76616c20746f2063757272656e74206f776e656044820152603960f91b6064820152fd5b509134610601576020366003190112610601575061073c60209235610d08565b5091346106015780600319360112610601578151918160025492600184811c91818616958615610ab2575b60209687851081146105e4578899509688969785829a5291826000146105bd575050600114610a565750505061028e9291610552910385610c00565b9190869350600283527f405787fa12a823e0f2b7631cc41b3ba8828b3321ca811111fa75cd3aa3bb5ace5b828410610a9a575050508201018161055261028e61053f565b8054848a018601528895508794909301928101610a81565b92607f1692610a1a565b925050346101cb5760203660031901126101cb573563ffffffff60e01b81168091036101cb57602092506380ac58cd60e01b8114908115610b17575b8115610b06575b5015158152f35b6301ffc9a760e01b14905038610aff565b635b5e139f60e01b81149150610af8565b919082519283825260005b848110610b54575050826000602080949584010152601f8019910116010190565b602081830181015184830182015201610b33565b600435906001600160a01b0382168203610b7e57565b600080fd5b602435906001600160a01b0382168203610b7e57565b6060906003190112610b7e576001600160a01b03906004358281168103610b7e57916024359081168103610b7e579060443590565b6020810190811067ffffffffffffffff821117610bea57604052565b634e487b7160e01b600052604160045260246000fd5b90601f8019910116810190811067ffffffffffffffff821117610bea57604052565b67ffffffffffffffff8111610bea57601f01601f191660200190565b6000546001600160a01b03163303610c5257565b606460405162461bcd60e51b815260206004820152602060248201527f4f776e61626c653a2063616c6c6572206973206e6f7420746865206f776e65726044820152fd5b15610c9d57565b60405162461bcd60e51b815260206004820152601860248201527f4552433732313a20696e76616c696420746f6b656e20494400000000000000006044820152606490fd5b6000908152600460205260409020546001600160a01b0316610d05811515610c96565b90565b610d1181611002565b6000908152600660205260409020546001600160a01b031690565b15610d3357565b60405162461bcd60e51b815260206004820152602d60248201527f4552433732313a2063616c6c6572206973206e6f7420746f6b656e206f776e6560448201526c1c881bdc88185c1c1c9bdd9959609a1b6064820152608490fd5b90610db2939291610da26107ef8433610e29565b610dad838383610ef1565b611027565b15610db957565b60405162461bcd60e51b815280610dd260048201610dd6565b0390fd5b60809060208152603260208201527f4552433732313a207472616e7366657220746f206e6f6e20455243373231526560408201527131b2b4bb32b91034b6b83632b6b2b73a32b960711b60608201520190565b906001600160a01b038080610e3d84610ce2565b16931691838314938415610e70575b508315610e5a575b50505090565b610e6691929350610d08565b1614388080610e54565b909350600052600760205260406000208260005260205260ff604060002054169238610e4c565b15610e9e57565b60405162461bcd60e51b815260206004820152602560248201527f4552433732313a207472616e736665722066726f6d20696e636f72726563742060448201526437bbb732b960d91b6064820152608490fd5b90610f1991610eff84610ce2565b6001600160a01b0393918416928492909183168414610e97565b16918215610fb15781610f3691610f2f86610ce2565b1614610e97565b7fddf252ad1be2c89b69c2b068fc378daa952ba7f163c4a11628f55a4df523b3ef60008481526006602052604081206001600160601b0360a01b9081815416905583825260056020526040822060001981540190558482526040822060018154019055858252600460205284604083209182541617905580a4565b60405162461bcd60e51b8152602060048201526024808201527f4552433732313a207472616e7366657220746f20746865207a65726f206164646044820152637265737360e01b6064820152608490fd5b600090815260046020526040902054611025906001600160a01b03161515610c96565b565b9293600093909291803b1561113d579484916110819660405180948193630a85bd0160e11b9788845233600485015260018060a01b0380921660248501526044840152608060648401528260209b8c976084830190610b28565b0393165af18491816110fd575b506110ec575050503d6000146110e4573d6110a881610c22565b906110b66040519283610c00565b81528091833d92013e5b805191826110e15760405162461bcd60e51b815280610dd260048201610dd6565b01fd5b5060606110c0565b6001600160e01b0319161492509050565b9091508581813d8311611136575b6111158183610c00565b810103126104e657516001600160e01b0319811681036104e657903861108e565b503d61110b565b50505091505060019056fea264697066735822122081271ae7597155b94d4a2a2be92f83d3647e22b176dffa7f4574fa3e3dfe102564736f6c63430008130033","opcodes":"PUSH1 0x80 CALLVALUE PUSH3 0x377 JUMPI PUSH1 0x1F SWAP1 PUSH1 0x1F NOT PUSH1 0x1 PUSH1 0x1 PUSH1 0x40 SHL SUB PUSH3 0x1531 CODESIZE DUP2 SWAP1 SUB DUP6 DUP2 ADD DUP5 AND DUP6 ADD DUP4 DUP2 GT DUP7 DUP3 LT OR PUSH3 0x37C JUMPI DUP6 SWAP3 DUP3 SWAP2 PUSH1 0x40 MSTORE DUP4 CODECOPY PUSH1 0x20 SWAP5 DUP6 SWAP2 DUP2 ADD SUB SLT PUSH3 0x377 JUMPI MLOAD SWAP4 PUSH3 0x53 PUSH3 0x392 JUMP JUMPDEST SWAP3 PUSH1 0x7 DUP5 MSTORE PUSH7 0x48656D53686F7 PUSH1 0xCC SHL DUP6 DUP6 ADD MSTORE PUSH3 0x71 PUSH3 0x392 JUMP JUMPDEST PUSH1 0x3 DUP1 DUP3 MSTORE PUSH3 0x48737 PUSH1 0xEC SHL DUP8 DUP4 ADD MSTORE PUSH1 0x0 DUP1 SLOAD CALLER PUSH1 0x1 PUSH1 0x1 PUSH1 0xA0 SHL SUB NOT DUP3 AND DUP2 OR DUP4 SSTORE SWAP3 SWAP9 SWAP4 SWAP5 SWAP2 SWAP4 SWAP3 SWAP1 PUSH1 0x1 PUSH1 0x1 PUSH1 0xA0 SHL SUB AND PUSH32 0x8BE0079C531659141344CD1FD0A4F28419497F9722A3DAAFE3B4186F6B6457E0 DUP6 DUP1 LOG3 PUSH1 0x1 SWAP7 DUP8 DUP1 SSTORE DUP1 MLOAD SWAP1 DUP8 DUP3 GT PUSH3 0x363 JUMPI PUSH1 0x2 SLOAD DUP10 DUP2 DUP2 SHR SWAP2 AND DUP1 ISZERO PUSH3 0x358 JUMPI JUMPDEST DUP6 DUP3 LT EQ PUSH3 0x344 JUMPI SWAP1 DUP2 DUP9 DUP5 SWAP4 GT PUSH3 0x2F0 JUMPI JUMPDEST POP DUP5 SWAP1 DUP9 DUP4 GT PUSH1 0x1 EQ PUSH3 0x28E JUMPI DUP7 SWAP3 PUSH3 0x282 JUMPI JUMPDEST POP POP PUSH1 0x0 NOT DUP3 DUP12 SHL SHR NOT AND SWAP1 DUP9 SHL OR PUSH1 0x2 SSTORE JUMPDEST DUP4 MLOAD SWAP6 DUP7 GT PUSH3 0x26E JUMPI DUP8 SLOAD DUP8 DUP2 DUP2 SHR SWAP2 AND DUP1 ISZERO PUSH3 0x263 JUMPI JUMPDEST DUP4 DUP3 LT EQ PUSH3 0x24F JUMPI DUP6 DUP2 GT PUSH3 0x207 JUMPI JUMPDEST POP DUP2 SWAP5 DUP7 GT PUSH1 0x1 EQ PUSH3 0x1A2 JUMPI POP POP SWAP2 DUP4 SWAP5 SWAP2 DUP5 SWAP4 SWAP5 PUSH3 0x196 JUMPI JUMPDEST POP POP SHL SWAP2 PUSH1 0x0 NOT SWAP1 DUP5 SHL SHR NOT AND OR SWAP1 SSTORE JUMPDEST PUSH1 0xB SSTORE PUSH1 0x40 MLOAD PUSH2 0x117E SWAP1 DUP2 PUSH3 0x3B3 DUP3 CODECOPY RETURN JUMPDEST ADD MLOAD SWAP3 POP CODESIZE DUP1 PUSH3 0x172 JUMP JUMPDEST DUP8 DUP4 MSTORE DUP2 DUP4 KECCAK256 SWAP5 SWAP4 SWAP3 DUP7 SWAP3 SWAP2 DUP4 AND SWAP2 JUMPDEST DUP9 DUP4 DUP4 LT PUSH3 0x1EC JUMPI POP POP POP LT PUSH3 0x1D3 JUMPI JUMPDEST POP POP POP DUP2 SHL ADD SWAP1 SSTORE PUSH3 0x183 JUMP JUMPDEST ADD MLOAD PUSH1 0x0 NOT DUP4 DUP7 SHL PUSH1 0xF8 AND SHR NOT AND SWAP1 SSTORE CODESIZE DUP1 DUP1 PUSH3 0x1C5 JUMP JUMPDEST DUP6 DUP8 ADD MLOAD DUP9 SSTORE SWAP1 SWAP7 ADD SWAP6 SWAP5 DUP6 ADD SWAP5 DUP8 SWAP4 POP SWAP1 DUP2 ADD SWAP1 PUSH3 0x1B2 JUMP JUMPDEST DUP9 DUP5 MSTORE DUP3 DUP5 KECCAK256 DUP7 DUP1 DUP10 ADD PUSH1 0x5 SHR DUP3 ADD SWAP3 DUP6 DUP11 LT PUSH3 0x245 JUMPI JUMPDEST ADD PUSH1 0x5 SHR ADD SWAP1 DUP9 SWAP1 JUMPDEST DUP3 DUP2 LT PUSH3 0x239 JUMPI POP POP PUSH3 0x156 JUMP JUMPDEST DUP6 DUP2 SSTORE ADD DUP9 SWAP1 PUSH3 0x229 JUMP JUMPDEST SWAP3 POP DUP2 SWAP3 PUSH3 0x220 JUMP JUMPDEST PUSH4 0x4E487B71 PUSH1 0xE0 SHL DUP5 MSTORE PUSH1 0x22 PUSH1 0x4 MSTORE PUSH1 0x24 DUP5 REVERT JUMPDEST SWAP1 PUSH1 0x7F AND SWAP1 PUSH3 0x144 JUMP JUMPDEST PUSH4 0x4E487B71 PUSH1 0xE0 SHL DUP4 MSTORE PUSH1 0x41 PUSH1 0x4 MSTORE PUSH1 0x24 DUP4 REVERT JUMPDEST ADD MLOAD SWAP1 POP CODESIZE DUP1 PUSH3 0x117 JUMP JUMPDEST SWAP1 DUP5 DUP12 SWAP5 AND SWAP2 PUSH1 0x2 DUP9 MSTORE DUP7 DUP9 KECCAK256 SWAP3 DUP9 JUMPDEST DUP9 DUP3 DUP3 LT PUSH3 0x2D9 JUMPI POP POP DUP5 GT PUSH3 0x2C0 JUMPI JUMPDEST POP POP POP DUP2 SHL ADD PUSH1 0x2 SSTORE PUSH3 0x12A JUMP JUMPDEST ADD MLOAD PUSH1 0x0 NOT DUP4 DUP14 SHL PUSH1 0xF8 AND SHR NOT AND SWAP1 SSTORE CODESIZE DUP1 DUP1 PUSH3 0x2B1 JUMP JUMPDEST DUP4 DUP6 ADD MLOAD DUP7 SSTORE DUP15 SWAP8 SWAP1 SWAP6 ADD SWAP5 SWAP4 DUP5 ADD SWAP4 ADD PUSH3 0x29E JUMP JUMPDEST SWAP1 SWAP2 POP PUSH1 0x2 DUP7 MSTORE DUP5 DUP7 KECCAK256 DUP9 DUP1 DUP6 ADD PUSH1 0x5 SHR DUP3 ADD SWAP3 DUP8 DUP7 LT PUSH3 0x33A JUMPI JUMPDEST SWAP2 DUP13 SWAP2 DUP7 SWAP6 SWAP5 SWAP4 ADD PUSH1 0x5 SHR ADD SWAP2 JUMPDEST DUP3 DUP2 LT PUSH3 0x32B JUMPI POP POP PUSH3 0x101 JUMP JUMPDEST DUP9 DUP2 SSTORE DUP6 SWAP5 POP DUP13 SWAP2 ADD PUSH3 0x31B JUMP JUMPDEST SWAP3 POP DUP2 SWAP3 PUSH3 0x30D JUMP JUMPDEST PUSH4 0x4E487B71 PUSH1 0xE0 SHL DUP7 MSTORE PUSH1 0x22 PUSH1 0x4 MSTORE PUSH1 0x24 DUP7 REVERT JUMPDEST SWAP1 PUSH1 0x7F AND SWAP1 PUSH3 0xEC JUMP JUMPDEST PUSH4 0x4E487B71 PUSH1 0xE0 SHL DUP6 MSTORE PUSH1 0x41 PUSH1 0x4 MSTORE PUSH1 0x24 DUP6 REVERT JUMPDEST PUSH1 0x0 DUP1 REVERT JUMPDEST PUSH4 0x4E487B71 PUSH1 0xE0 SHL PUSH1 0x0 MSTORE PUSH1 0x41 PUSH1 0x4 MSTORE PUSH1 0x24 PUSH1 0x0 REVERT JUMPDEST PUSH1 0x40 DUP1 MLOAD SWAP2 SWAP1 DUP3 ADD PUSH1 0x1 PUSH1 0x1 PUSH1 0x40 SHL SUB DUP2 GT DUP4 DUP3 LT OR PUSH3 0x37C JUMPI PUSH1 0x40 MSTORE JUMP INVALID PUSH1 0x80 PUSH1 0x40 DUP2 DUP2 MSTORE PUSH1 0x4 DUP1 CALLDATASIZE LT ISZERO PUSH2 0x15 JUMPI PUSH1 0x0 DUP1 REVERT JUMPDEST PUSH1 0x0 SWAP3 DUP4 CALLDATALOAD PUSH1 0xE0 SHR SWAP1 DUP2 PUSH4 0x1FFC9A7 EQ PUSH2 0xABC JUMPI POP DUP1 PUSH4 0x6FDDE03 EQ PUSH2 0x9EF JUMPI DUP1 PUSH4 0x81812FC EQ PUSH2 0x9CF JUMPI DUP1 PUSH4 0x95EA7B3 EQ PUSH2 0x85F JUMPI DUP1 PUSH4 0x1385FD92 EQ PUSH2 0x7F9 JUMPI DUP1 PUSH4 0x23B872DD EQ PUSH2 0x7CF JUMPI DUP1 PUSH4 0x42842E0E EQ PUSH2 0x7A6 JUMPI DUP1 PUSH4 0x45DE84DB EQ PUSH2 0x74D JUMPI DUP1 PUSH4 0x6352211E EQ PUSH2 0x71C JUMPI DUP1 PUSH4 0x70A08231 EQ PUSH2 0x686 JUMPI DUP1 PUSH4 0x715018A6 EQ PUSH2 0x62C JUMPI DUP1 PUSH4 0x8DA5CB5B EQ PUSH2 0x604 JUMPI DUP1 PUSH4 0x95D89B41 EQ PUSH2 0x4EA JUMPI DUP1 PUSH4 0xA22CB465 EQ PUSH2 0x41B JUMPI DUP1 PUSH4 0xA22FB387 EQ PUSH2 0x356 JUMPI DUP1 PUSH4 0xB88D4FDE EQ PUSH2 0x2CD JUMPI DUP1 PUSH4 0xB95A0628 EQ PUSH2 0x292 JUMPI DUP1 PUSH4 0xC87B56DD EQ PUSH2 0x240 JUMPI DUP1 PUSH4 0xE01EF6E6 EQ PUSH2 0x221 JUMPI DUP1 PUSH4 0xE985E9C5 EQ PUSH2 0x1CF JUMPI PUSH4 0xF2FDE38B EQ PUSH2 0x10A JUMPI PUSH1 0x0 DUP1 REVERT JUMPDEST CALLVALUE PUSH2 0x1CB JUMPI PUSH1 0x20 CALLDATASIZE PUSH1 0x3 NOT ADD SLT PUSH2 0x1CB JUMPI PUSH2 0x123 PUSH2 0xB68 JUMP JUMPDEST SWAP1 PUSH2 0x12C PUSH2 0xC3E JUMP JUMPDEST PUSH1 0x1 PUSH1 0x1 PUSH1 0xA0 SHL SUB SWAP2 DUP3 AND SWAP3 DUP4 ISZERO PUSH2 0x179 JUMPI POP POP DUP3 SLOAD PUSH1 0x1 PUSH1 0x1 PUSH1 0xA0 SHL SUB NOT DUP2 AND DUP4 OR DUP5 SSTORE AND PUSH32 0x8BE0079C531659141344CD1FD0A4F28419497F9722A3DAAFE3B4186F6B6457E0 DUP4 DUP1 LOG3 DUP1 RETURN JUMPDEST SWAP1 PUSH1 0x20 PUSH1 0x84 SWAP3 MLOAD SWAP2 PUSH3 0x461BCD PUSH1 0xE5 SHL DUP4 MSTORE DUP3 ADD MSTORE PUSH1 0x26 PUSH1 0x24 DUP3 ADD MSTORE PUSH32 0x4F776E61626C653A206E6577206F776E657220697320746865207A65726F2061 PUSH1 0x44 DUP3 ADD MSTORE PUSH6 0x646472657373 PUSH1 0xD0 SHL PUSH1 0x64 DUP3 ADD MSTORE REVERT JUMPDEST DUP3 DUP1 REVERT JUMPDEST POP POP CALLVALUE PUSH2 0x21D JUMPI DUP1 PUSH1 0x3 NOT CALLDATASIZE ADD SLT PUSH2 0x21D JUMPI PUSH1 0xFF DUP2 PUSH1 0x20 SWAP4 PUSH2 0x1EF PUSH2 0xB68 JUMP JUMPDEST PUSH2 0x1F7 PUSH2 0xB83 JUMP JUMPDEST PUSH1 0x1 PUSH1 0x1 PUSH1 0xA0 SHL SUB SWAP2 DUP3 AND DUP4 MSTORE PUSH1 0x7 DUP8 MSTORE DUP4 DUP4 KECCAK256 SWAP2 AND DUP3 MSTORE DUP6 MSTORE KECCAK256 SLOAD SWAP2 MLOAD SWAP2 AND ISZERO ISZERO DUP2 MSTORE RETURN JUMPDEST POP DUP1 REVERT JUMPDEST POP POP CALLVALUE PUSH2 0x21D JUMPI DUP2 PUSH1 0x3 NOT CALLDATASIZE ADD SLT PUSH2 0x21D JUMPI PUSH1 0x20 SWAP1 PUSH1 0xB SLOAD SWAP1 MLOAD SWAP1 DUP2 MSTORE RETURN JUMPDEST POP SWAP2 SWAP1 CALLVALUE PUSH2 0x21D JUMPI PUSH1 0x20 CALLDATASIZE PUSH1 0x3 NOT ADD SLT PUSH2 0x21D JUMPI PUSH2 0x261 PUSH2 0x28E SWAP4 CALLDATALOAD PUSH2 0x1002 JUMP JUMPDEST DUP2 DUP2 MLOAD PUSH2 0x26D DUP2 PUSH2 0xBCE JUMP JUMPDEST MSTORE DUP1 MLOAD SWAP2 PUSH2 0x27A DUP4 PUSH2 0xBCE JUMP JUMPDEST DUP3 MSTORE MLOAD SWAP2 DUP3 SWAP2 PUSH1 0x20 DUP4 MSTORE PUSH1 0x20 DUP4 ADD SWAP1 PUSH2 0xB28 JUMP JUMPDEST SUB SWAP1 RETURN JUMPDEST POP POP CALLVALUE PUSH2 0x21D JUMPI PUSH1 0x20 CALLDATASIZE PUSH1 0x3 NOT ADD SLT PUSH2 0x21D JUMPI PUSH1 0x20 SWAP2 PUSH1 0x1 PUSH1 0x1 PUSH1 0xA0 SHL SUB SWAP1 DUP3 SWAP1 DUP3 PUSH2 0x2BC PUSH2 0xB68 JUMP JUMPDEST AND DUP2 MSTORE PUSH1 0xD DUP6 MSTORE KECCAK256 SLOAD AND SWAP1 MLOAD SWAP1 DUP2 MSTORE RETURN JUMPDEST POP SWAP1 CALLVALUE PUSH2 0x1CB JUMPI PUSH1 0x80 CALLDATASIZE PUSH1 0x3 NOT ADD SLT PUSH2 0x1CB JUMPI PUSH2 0x2E8 PUSH2 0xB68 JUMP JUMPDEST PUSH2 0x2F0 PUSH2 0xB83 JUMP JUMPDEST DUP5 PUSH1 0x64 CALLDATALOAD SWAP5 PUSH8 0xFFFFFFFFFFFFFFFF DUP7 GT PUSH2 0x21D JUMPI CALLDATASIZE PUSH1 0x23 DUP8 ADD SLT ISZERO PUSH2 0x21D JUMPI DUP6 ADD CALLDATALOAD SWAP5 PUSH2 0x328 PUSH2 0x31F DUP8 PUSH2 0xC22 JUMP JUMPDEST SWAP6 MLOAD SWAP6 DUP7 PUSH2 0xC00 JUMP JUMPDEST DUP6 DUP6 MSTORE CALLDATASIZE PUSH1 0x24 DUP8 DUP4 ADD ADD GT PUSH2 0x21D JUMPI DUP6 PUSH2 0x353 SWAP7 PUSH1 0x24 PUSH1 0x20 SWAP4 ADD DUP4 DUP9 ADD CALLDATACOPY DUP6 ADD ADD MSTORE PUSH1 0x44 CALLDATALOAD SWAP2 PUSH2 0xD8E JUMP JUMPDEST DUP1 RETURN JUMPDEST POP CALLVALUE PUSH2 0x1CB JUMPI PUSH1 0x20 CALLDATASIZE PUSH1 0x3 NOT ADD SLT PUSH2 0x1CB JUMPI PUSH2 0x370 PUSH2 0xB68 JUMP JUMPDEST PUSH2 0x378 PUSH2 0xC3E JUMP JUMPDEST PUSH1 0x1 PUSH1 0x1 PUSH1 0xA0 SHL SUB AND SWAP1 DUP2 ISZERO PUSH2 0x3D8 JUMPI POP SWAP1 PUSH32 0x32B449308C94E824CCEDD9877932CD82F89A481C06C4643A0CB2914454A8C582 SWAP2 CALLER DUP5 MSTORE PUSH1 0xD PUSH1 0x20 MSTORE DUP2 DUP5 KECCAK256 DUP2 PUSH1 0x1 PUSH1 0x1 PUSH1 0x60 SHL SUB PUSH1 0xA0 SHL DUP3 SLOAD AND OR SWAP1 SSTORE DUP2 MLOAD SWAP1 CALLER DUP3 MSTORE PUSH1 0x20 DUP3 ADD MSTORE LOG1 DUP1 RETURN JUMPDEST PUSH1 0x64 SWAP1 PUSH1 0x20 DUP5 MLOAD SWAP2 PUSH3 0x461BCD PUSH1 0xE5 SHL DUP4 MSTORE DUP3 ADD MSTORE PUSH1 0x17 PUSH1 0x24 DUP3 ADD MSTORE PUSH32 0x496E76616C6964206163636F756E742061646472657373000000000000000000 PUSH1 0x44 DUP3 ADD MSTORE REVERT JUMPDEST POP SWAP1 CALLVALUE PUSH2 0x1CB JUMPI DUP1 PUSH1 0x3 NOT CALLDATASIZE ADD SLT PUSH2 0x1CB JUMPI PUSH2 0x435 PUSH2 0xB68 JUMP JUMPDEST SWAP1 PUSH1 0x24 CALLDATALOAD SWAP2 DUP3 ISZERO ISZERO DUP1 SWAP4 SUB PUSH2 0x4E6 JUMPI PUSH1 0x1 PUSH1 0x1 PUSH1 0xA0 SHL SUB AND SWAP3 CALLER DUP5 EQ PUSH2 0x4A4 JUMPI POP CALLER DUP5 MSTORE PUSH1 0x7 PUSH1 0x20 MSTORE DUP1 DUP5 KECCAK256 DUP4 DUP6 MSTORE PUSH1 0x20 MSTORE DUP1 DUP5 KECCAK256 PUSH1 0xFF NOT DUP2 SLOAD AND PUSH1 0xFF DUP5 AND OR SWAP1 SSTORE MLOAD SWAP1 DUP2 MSTORE PUSH32 0x17307EAB39AB6107E8899845AD3D59BD9653F200F220920489CA2B5937696C31 PUSH1 0x20 CALLER SWAP3 LOG3 DUP1 RETURN JUMPDEST PUSH1 0x20 PUSH1 0x64 SWAP3 MLOAD SWAP2 PUSH3 0x461BCD PUSH1 0xE5 SHL DUP4 MSTORE DUP3 ADD MSTORE PUSH1 0x19 PUSH1 0x24 DUP3 ADD MSTORE PUSH32 0x4552433732313A20617070726F766520746F2063616C6C657200000000000000 PUSH1 0x44 DUP3 ADD MSTORE REVERT JUMPDEST DUP5 DUP1 REVERT JUMPDEST POP SWAP2 CALLVALUE PUSH2 0x601 JUMPI DUP1 PUSH1 0x3 NOT CALLDATASIZE ADD SLT PUSH2 0x601 JUMPI DUP2 MLOAD SWAP2 DUP2 PUSH1 0x3 SLOAD SWAP3 PUSH1 0x1 DUP5 DUP2 SHR SWAP2 DUP2 DUP7 AND SWAP6 DUP7 ISZERO PUSH2 0x5F7 JUMPI JUMPDEST PUSH1 0x20 SWAP7 DUP8 DUP6 LT DUP2 EQ PUSH2 0x5E4 JUMPI DUP9 SWAP10 POP SWAP7 DUP9 SWAP7 SWAP8 DUP6 DUP3 SWAP11 MSTORE SWAP2 DUP3 PUSH1 0x0 EQ PUSH2 0x5BD JUMPI POP POP PUSH1 0x1 EQ PUSH2 0x561 JUMPI JUMPDEST POP POP POP PUSH2 0x28E SWAP3 SWAP2 PUSH2 0x552 SWAP2 SUB DUP6 PUSH2 0xC00 JUMP JUMPDEST MLOAD SWAP3 DUP3 DUP5 SWAP4 DUP5 MSTORE DUP4 ADD SWAP1 PUSH2 0xB28 JUMP JUMPDEST SWAP2 SWAP1 DUP7 SWAP4 POP PUSH1 0x3 DUP4 MSTORE PUSH32 0xC2575A0E9E593C00F959F8C92F12DB2869C3395A3B0502D05E2516446F71F85B JUMPDEST DUP3 DUP5 LT PUSH2 0x5A5 JUMPI POP POP POP DUP3 ADD ADD DUP2 PUSH2 0x552 PUSH2 0x28E PUSH2 0x53F JUMP JUMPDEST DUP1 SLOAD DUP5 DUP11 ADD DUP7 ADD MSTORE DUP9 SWAP6 POP DUP8 SWAP5 SWAP1 SWAP4 ADD SWAP3 DUP2 ADD PUSH2 0x58C JUMP JUMPDEST PUSH1 0xFF NOT AND DUP8 DUP3 ADD MSTORE SWAP4 ISZERO ISZERO PUSH1 0x5 SHL DUP7 ADD SWAP1 SWAP4 ADD SWAP4 POP DUP5 SWAP3 POP PUSH2 0x552 SWAP2 POP PUSH2 0x28E SWAP1 POP PUSH2 0x53F JUMP JUMPDEST PUSH4 0x4E487B71 PUSH1 0xE0 SHL DUP4 MSTORE PUSH1 0x22 DUP11 MSTORE PUSH1 0x24 DUP4 REVERT JUMPDEST SWAP3 PUSH1 0x7F AND SWAP3 PUSH2 0x515 JUMP JUMPDEST DUP1 REVERT JUMPDEST POP POP CALLVALUE PUSH2 0x21D JUMPI DUP2 PUSH1 0x3 NOT CALLDATASIZE ADD SLT PUSH2 0x21D JUMPI SWAP1 SLOAD SWAP1 MLOAD PUSH1 0x1 PUSH1 0x1 PUSH1 0xA0 SHL SUB SWAP1 SWAP2 AND DUP2 MSTORE PUSH1 0x20 SWAP1 RETURN JUMPDEST DUP4 CALLVALUE PUSH2 0x601 JUMPI DUP1 PUSH1 0x3 NOT CALLDATASIZE ADD SLT PUSH2 0x601 JUMPI PUSH2 0x645 PUSH2 0xC3E JUMP JUMPDEST DUP1 SLOAD PUSH1 0x1 PUSH1 0x1 PUSH1 0xA0 SHL SUB NOT DUP2 AND DUP3 SSTORE DUP2 SWAP1 PUSH1 0x1 PUSH1 0x1 PUSH1 0xA0 SHL SUB AND PUSH32 0x8BE0079C531659141344CD1FD0A4F28419497F9722A3DAAFE3B4186F6B6457E0 DUP3 DUP1 LOG3 DUP1 RETURN JUMPDEST POP DUP3 SWAP1 CALLVALUE PUSH2 0x21D JUMPI PUSH1 0x20 CALLDATASIZE PUSH1 0x3 NOT ADD SLT PUSH2 0x21D JUMPI PUSH1 0x1 PUSH1 0x1 PUSH1 0xA0 SHL SUB PUSH2 0x6AA PUSH2 0xB68 JUMP JUMPDEST AND SWAP1 DUP2 ISZERO PUSH2 0x6C7 JUMPI PUSH1 0x20 DUP5 DUP1 DUP6 DUP6 DUP2 MSTORE PUSH1 0x5 DUP5 MSTORE KECCAK256 SLOAD SWAP1 MLOAD SWAP1 DUP2 MSTORE RETURN JUMPDEST PUSH1 0x84 SWAP1 PUSH1 0x20 DUP6 MLOAD SWAP2 PUSH3 0x461BCD PUSH1 0xE5 SHL DUP4 MSTORE DUP3 ADD MSTORE PUSH1 0x29 PUSH1 0x24 DUP3 ADD MSTORE PUSH32 0x4552433732313A2061646472657373207A65726F206973206E6F742061207661 PUSH1 0x44 DUP3 ADD MSTORE PUSH9 0x3634B21037BBB732B9 PUSH1 0xB9 SHL PUSH1 0x64 DUP3 ADD MSTORE REVERT JUMPDEST POP SWAP2 CALLVALUE PUSH2 0x601 JUMPI PUSH1 0x20 CALLDATASIZE PUSH1 0x3 NOT ADD SLT PUSH2 0x601 JUMPI POP PUSH2 0x73C PUSH1 0x20 SWAP3 CALLDATALOAD PUSH2 0xCE2 JUMP JUMPDEST SWAP1 MLOAD PUSH1 0x1 PUSH1 0x1 PUSH1 0xA0 SHL SUB SWAP1 SWAP2 AND DUP2 MSTORE RETURN JUMPDEST POP SWAP2 SWAP1 CALLVALUE PUSH2 0x21D JUMPI PUSH1 0x20 CALLDATASIZE PUSH1 0x3 NOT ADD SLT PUSH2 0x21D JUMPI PUSH1 0x1 PUSH1 0x1 PUSH1 0xA0 SHL SUB PUSH2 0x771 PUSH2 0xB68 JUMP JUMPDEST AND DUP3 MSTORE PUSH1 0xC PUSH1 0x20 MSTORE PUSH1 0xFF DUP2 DUP4 KECCAK256 SLOAD AND SWAP1 MLOAD SWAP2 DUP4 DUP3 LT ISZERO PUSH2 0x793 JUMPI PUSH1 0x20 DUP4 DUP4 DUP2 MSTORE RETURN JUMPDEST PUSH4 0x4E487B71 PUSH1 0xE0 SHL DUP2 MSTORE PUSH1 0x21 DUP5 MSTORE PUSH1 0x24 SWAP1 REVERT JUMPDEST POP POP CALLVALUE PUSH2 0x21D JUMPI PUSH2 0x353 SWAP1 PUSH2 0x7BA CALLDATASIZE PUSH2 0xB99 JUMP JUMPDEST SWAP2 SWAP3 MLOAD SWAP3 PUSH2 0x7C7 DUP5 PUSH2 0xBCE JUMP JUMPDEST DUP6 DUP5 MSTORE PUSH2 0xD8E JUMP JUMPDEST DUP4 CALLVALUE PUSH2 0x601 JUMPI PUSH2 0x353 PUSH2 0x7E1 CALLDATASIZE PUSH2 0xB99 JUMP JUMPDEST SWAP2 PUSH2 0x7F4 PUSH2 0x7EF DUP5 CALLER PUSH2 0xE29 JUMP JUMPDEST PUSH2 0xD2C JUMP JUMPDEST PUSH2 0xEF1 JUMP JUMPDEST POP POP CALLVALUE PUSH2 0x21D JUMPI DUP2 PUSH1 0x3 NOT CALLDATASIZE ADD SLT PUSH2 0x21D JUMPI PUSH32 0x32B449308C94E824CCEDD9877932CD82F89A481C06C4643A0CB2914454A8C582 SWAP1 PUSH2 0x835 PUSH2 0xC3E JUMP JUMPDEST CALLER DUP4 MSTORE PUSH1 0xD PUSH1 0x20 MSTORE DUP1 DUP4 KECCAK256 PUSH1 0x1 PUSH1 0x1 PUSH1 0x60 SHL SUB PUSH1 0xA0 SHL DUP2 SLOAD AND SWAP1 SSTORE DUP1 MLOAD CALLER DUP2 MSTORE DUP4 PUSH1 0x20 DUP3 ADD MSTORE LOG1 DUP1 RETURN JUMPDEST POP CALLVALUE PUSH2 0x1CB JUMPI DUP2 PUSH1 0x3 NOT CALLDATASIZE ADD SLT PUSH2 0x1CB JUMPI PUSH2 0x878 PUSH2 0xB68 JUMP JUMPDEST PUSH1 0x24 CALLDATALOAD SWAP3 SWAP1 SWAP2 PUSH1 0x1 PUSH1 0x1 PUSH1 0xA0 SHL SUB SWAP2 SWAP1 DUP3 DUP1 PUSH2 0x893 DUP8 PUSH2 0xCE2 JUMP JUMPDEST AND SWAP5 AND SWAP4 DUP1 DUP6 EQ PUSH2 0x982 JUMPI DUP1 CALLER EQ SWAP1 DUP2 ISZERO PUSH2 0x963 JUMPI JUMPDEST POP ISZERO PUSH2 0x8FB JUMPI POP DUP4 DUP6 MSTORE PUSH1 0x6 PUSH1 0x20 MSTORE DUP5 KECCAK256 DUP1 SLOAD PUSH1 0x1 PUSH1 0x1 PUSH1 0xA0 SHL SUB NOT AND DUP4 OR SWAP1 SSTORE PUSH2 0x8D3 DUP4 PUSH2 0xCE2 JUMP JUMPDEST AND PUSH32 0x8C5BE1E5EBEC7D5BD14F71427D1E84F3DD0314C0F7B2291E5B200AC8C7C3B925 DUP5 DUP1 LOG4 DUP1 RETURN JUMPDEST PUSH1 0x20 PUSH1 0x84 SWAP3 MLOAD SWAP2 PUSH3 0x461BCD PUSH1 0xE5 SHL DUP4 MSTORE DUP3 ADD MSTORE PUSH1 0x3D PUSH1 0x24 DUP3 ADD MSTORE PUSH32 0x4552433732313A20617070726F76652063616C6C6572206973206E6F7420746F PUSH1 0x44 DUP3 ADD MSTORE PUSH32 0x6B656E206F776E6572206F7220617070726F76656420666F7220616C6C000000 PUSH1 0x64 DUP3 ADD MSTORE REVERT JUMPDEST SWAP1 POP DUP7 MSTORE PUSH1 0x7 PUSH1 0x20 MSTORE DUP2 DUP7 KECCAK256 CALLER DUP8 MSTORE PUSH1 0x20 MSTORE PUSH1 0xFF DUP3 DUP8 KECCAK256 SLOAD AND CODESIZE PUSH2 0x8A9 JUMP JUMPDEST POP PUSH1 0x20 PUSH1 0x84 SWAP3 MLOAD SWAP2 PUSH3 0x461BCD PUSH1 0xE5 SHL DUP4 MSTORE DUP3 ADD MSTORE PUSH1 0x21 PUSH1 0x24 DUP3 ADD MSTORE PUSH32 0x4552433732313A20617070726F76616C20746F2063757272656E74206F776E65 PUSH1 0x44 DUP3 ADD MSTORE PUSH1 0x39 PUSH1 0xF9 SHL PUSH1 0x64 DUP3 ADD MSTORE REVERT JUMPDEST POP SWAP2 CALLVALUE PUSH2 0x601 JUMPI PUSH1 0x20 CALLDATASIZE PUSH1 0x3 NOT ADD SLT PUSH2 0x601 JUMPI POP PUSH2 0x73C PUSH1 0x20 SWAP3 CALLDATALOAD PUSH2 0xD08 JUMP JUMPDEST POP SWAP2 CALLVALUE PUSH2 0x601 JUMPI DUP1 PUSH1 0x3 NOT CALLDATASIZE ADD SLT PUSH2 0x601 JUMPI DUP2 MLOAD SWAP2 DUP2 PUSH1 0x2 SLOAD SWAP3 PUSH1 0x1 DUP5 DUP2 SHR SWAP2 DUP2 DUP7 AND SWAP6 DUP7 ISZERO PUSH2 0xAB2 JUMPI JUMPDEST PUSH1 0x20 SWAP7 DUP8 DUP6 LT DUP2 EQ PUSH2 0x5E4 JUMPI DUP9 SWAP10 POP SWAP7 DUP9 SWAP7 SWAP8 DUP6 DUP3 SWAP11 MSTORE SWAP2 DUP3 PUSH1 0x0 EQ PUSH2 0x5BD JUMPI POP POP PUSH1 0x1 EQ PUSH2 0xA56 JUMPI POP POP POP PUSH2 0x28E SWAP3 SWAP2 PUSH2 0x552 SWAP2 SUB DUP6 PUSH2 0xC00 JUMP JUMPDEST SWAP2 SWAP1 DUP7 SWAP4 POP PUSH1 0x2 DUP4 MSTORE PUSH32 0x405787FA12A823E0F2B7631CC41B3BA8828B3321CA811111FA75CD3AA3BB5ACE JUMPDEST DUP3 DUP5 LT PUSH2 0xA9A JUMPI POP POP POP DUP3 ADD ADD DUP2 PUSH2 0x552 PUSH2 0x28E PUSH2 0x53F JUMP JUMPDEST DUP1 SLOAD DUP5 DUP11 ADD DUP7 ADD MSTORE DUP9 SWAP6 POP DUP8 SWAP5 SWAP1 SWAP4 ADD SWAP3 DUP2 ADD PUSH2 0xA81 JUMP JUMPDEST SWAP3 PUSH1 0x7F AND SWAP3 PUSH2 0xA1A JUMP JUMPDEST SWAP3 POP POP CALLVALUE PUSH2 0x1CB JUMPI PUSH1 0x20 CALLDATASIZE PUSH1 0x3 NOT ADD SLT PUSH2 0x1CB JUMPI CALLDATALOAD PUSH4 0xFFFFFFFF PUSH1 0xE0 SHL DUP2 AND DUP1 SWAP2 SUB PUSH2 0x1CB JUMPI PUSH1 0x20 SWAP3 POP PUSH4 0x80AC58CD PUSH1 0xE0 SHL DUP2 EQ SWAP1 DUP2 ISZERO PUSH2 0xB17 JUMPI JUMPDEST DUP2 ISZERO PUSH2 0xB06 JUMPI JUMPDEST POP ISZERO ISZERO DUP2 MSTORE RETURN JUMPDEST PUSH4 0x1FFC9A7 PUSH1 0xE0 SHL EQ SWAP1 POP CODESIZE PUSH2 0xAFF JUMP JUMPDEST PUSH4 0x5B5E139F PUSH1 0xE0 SHL DUP2 EQ SWAP2 POP PUSH2 0xAF8 JUMP JUMPDEST SWAP2 SWAP1 DUP3 MLOAD SWAP3 DUP4 DUP3 MSTORE PUSH1 0x0 JUMPDEST DUP5 DUP2 LT PUSH2 0xB54 JUMPI POP POP DUP3 PUSH1 0x0 PUSH1 0x20 DUP1 SWAP5 SWAP6 DUP5 ADD ADD MSTORE PUSH1 0x1F DUP1 NOT SWAP2 ADD AND ADD ADD SWAP1 JUMP JUMPDEST PUSH1 0x20 DUP2 DUP4 ADD DUP2 ADD MLOAD DUP5 DUP4 ADD DUP3 ADD MSTORE ADD PUSH2 0xB33 JUMP JUMPDEST PUSH1 0x4 CALLDATALOAD SWAP1 PUSH1 0x1 PUSH1 0x1 PUSH1 0xA0 SHL SUB DUP3 AND DUP3 SUB PUSH2 0xB7E JUMPI JUMP JUMPDEST PUSH1 0x0 DUP1 REVERT JUMPDEST PUSH1 0x24 CALLDATALOAD SWAP1 PUSH1 0x1 PUSH1 0x1 PUSH1 0xA0 SHL SUB DUP3 AND DUP3 SUB PUSH2 0xB7E JUMPI JUMP JUMPDEST PUSH1 0x60 SWAP1 PUSH1 0x3 NOT ADD SLT PUSH2 0xB7E JUMPI PUSH1 0x1 PUSH1 0x1 PUSH1 0xA0 SHL SUB SWAP1 PUSH1 0x4 CALLDATALOAD DUP3 DUP2 AND DUP2 SUB PUSH2 0xB7E JUMPI SWAP2 PUSH1 0x24 CALLDATALOAD SWAP1 DUP2 AND DUP2 SUB PUSH2 0xB7E JUMPI SWAP1 PUSH1 0x44 CALLDATALOAD SWAP1 JUMP JUMPDEST PUSH1 0x20 DUP2 ADD SWAP1 DUP2 LT PUSH8 0xFFFFFFFFFFFFFFFF DUP3 GT OR PUSH2 0xBEA JUMPI PUSH1 0x40 MSTORE JUMP JUMPDEST PUSH4 0x4E487B71 PUSH1 0xE0 SHL PUSH1 0x0 MSTORE PUSH1 0x41 PUSH1 0x4 MSTORE PUSH1 0x24 PUSH1 0x0 REVERT JUMPDEST SWAP1 PUSH1 0x1F DUP1 NOT SWAP2 ADD AND DUP2 ADD SWAP1 DUP2 LT PUSH8 0xFFFFFFFFFFFFFFFF DUP3 GT OR PUSH2 0xBEA JUMPI PUSH1 0x40 MSTORE JUMP JUMPDEST PUSH8 0xFFFFFFFFFFFFFFFF DUP2 GT PUSH2 0xBEA JUMPI PUSH1 0x1F ADD PUSH1 0x1F NOT AND PUSH1 0x20 ADD SWAP1 JUMP JUMPDEST PUSH1 0x0 SLOAD PUSH1 0x1 PUSH1 0x1 PUSH1 0xA0 SHL SUB AND CALLER SUB PUSH2 0xC52 JUMPI JUMP JUMPDEST PUSH1 0x64 PUSH1 0x40 MLOAD PUSH3 0x461BCD PUSH1 0xE5 SHL DUP2 MSTORE PUSH1 0x20 PUSH1 0x4 DUP3 ADD MSTORE PUSH1 0x20 PUSH1 0x24 DUP3 ADD MSTORE PUSH32 0x4F776E61626C653A2063616C6C6572206973206E6F7420746865206F776E6572 PUSH1 0x44 DUP3 ADD MSTORE REVERT JUMPDEST ISZERO PUSH2 0xC9D JUMPI JUMP JUMPDEST PUSH1 0x40 MLOAD PUSH3 0x461BCD PUSH1 0xE5 SHL DUP2 MSTORE PUSH1 0x20 PUSH1 0x4 DUP3 ADD MSTORE PUSH1 0x18 PUSH1 0x24 DUP3 ADD MSTORE PUSH32 0x4552433732313A20696E76616C696420746F6B656E2049440000000000000000 PUSH1 0x44 DUP3 ADD MSTORE PUSH1 0x64 SWAP1 REVERT JUMPDEST PUSH1 0x0 SWAP1 DUP2 MSTORE PUSH1 0x4 PUSH1 0x20 MSTORE PUSH1 0x40 SWAP1 KECCAK256 SLOAD PUSH1 0x1 PUSH1 0x1 PUSH1 0xA0 SHL SUB AND PUSH2 0xD05 DUP2 ISZERO ISZERO PUSH2 0xC96 JUMP JUMPDEST SWAP1 JUMP JUMPDEST PUSH2 0xD11 DUP2 PUSH2 0x1002 JUMP JUMPDEST PUSH1 0x0 SWAP1 DUP2 MSTORE PUSH1 0x6 PUSH1 0x20 MSTORE PUSH1 0x40 SWAP1 KECCAK256 SLOAD PUSH1 0x1 PUSH1 0x1 PUSH1 0xA0 SHL SUB AND SWAP1 JUMP JUMPDEST ISZERO PUSH2 0xD33 JUMPI JUMP JUMPDEST PUSH1 0x40 MLOAD PUSH3 0x461BCD PUSH1 0xE5 SHL DUP2 MSTORE PUSH1 0x20 PUSH1 0x4 DUP3 ADD MSTORE PUSH1 0x2D PUSH1 0x24 DUP3 ADD MSTORE PUSH32 0x4552433732313A2063616C6C6572206973206E6F7420746F6B656E206F776E65 PUSH1 0x44 DUP3 ADD MSTORE PUSH13 0x1C881BDC88185C1C1C9BDD9959 PUSH1 0x9A SHL PUSH1 0x64 DUP3 ADD MSTORE PUSH1 0x84 SWAP1 REVERT JUMPDEST SWAP1 PUSH2 0xDB2 SWAP4 SWAP3 SWAP2 PUSH2 0xDA2 PUSH2 0x7EF DUP5 CALLER PUSH2 0xE29 JUMP JUMPDEST PUSH2 0xDAD DUP4 DUP4 DUP4 PUSH2 0xEF1 JUMP JUMPDEST PUSH2 0x1027 JUMP JUMPDEST ISZERO PUSH2 0xDB9 JUMPI JUMP JUMPDEST PUSH1 0x40 MLOAD PUSH3 0x461BCD PUSH1 0xE5 SHL DUP2 MSTORE DUP1 PUSH2 0xDD2 PUSH1 0x4 DUP3 ADD PUSH2 0xDD6 JUMP JUMPDEST SUB SWAP1 REVERT JUMPDEST PUSH1 0x80 SWAP1 PUSH1 0x20 DUP2 MSTORE PUSH1 0x32 PUSH1 0x20 DUP3 ADD MSTORE PUSH32 0x4552433732313A207472616E7366657220746F206E6F6E204552433732315265 PUSH1 0x40 DUP3 ADD MSTORE PUSH18 0x31B2B4BB32B91034B6B83632B6B2B73A32B9 PUSH1 0x71 SHL PUSH1 0x60 DUP3 ADD MSTORE ADD SWAP1 JUMP JUMPDEST SWAP1 PUSH1 0x1 PUSH1 0x1 PUSH1 0xA0 SHL SUB DUP1 DUP1 PUSH2 0xE3D DUP5 PUSH2 0xCE2 JUMP JUMPDEST AND SWAP4 AND SWAP2 DUP4 DUP4 EQ SWAP4 DUP5 ISZERO PUSH2 0xE70 JUMPI JUMPDEST POP DUP4 ISZERO PUSH2 0xE5A JUMPI JUMPDEST POP POP POP SWAP1 JUMP JUMPDEST PUSH2 0xE66 SWAP2 SWAP3 SWAP4 POP PUSH2 0xD08 JUMP JUMPDEST AND EQ CODESIZE DUP1 DUP1 PUSH2 0xE54 JUMP JUMPDEST SWAP1 SWAP4 POP PUSH1 0x0 MSTORE PUSH1 0x7 PUSH1 0x20 MSTORE PUSH1 0x40 PUSH1 0x0 KECCAK256 DUP3 PUSH1 0x0 MSTORE PUSH1 0x20 MSTORE PUSH1 0xFF PUSH1 0x40 PUSH1 0x0 KECCAK256 SLOAD AND SWAP3 CODESIZE PUSH2 0xE4C JUMP JUMPDEST ISZERO PUSH2 0xE9E JUMPI JUMP JUMPDEST PUSH1 0x40 MLOAD PUSH3 0x461BCD PUSH1 0xE5 SHL DUP2 MSTORE PUSH1 0x20 PUSH1 0x4 DUP3 ADD MSTORE PUSH1 0x25 PUSH1 0x24 DUP3 ADD MSTORE PUSH32 0x4552433732313A207472616E736665722066726F6D20696E636F727265637420 PUSH1 0x44 DUP3 ADD MSTORE PUSH5 0x37BBB732B9 PUSH1 0xD9 SHL PUSH1 0x64 DUP3 ADD MSTORE PUSH1 0x84 SWAP1 REVERT JUMPDEST SWAP1 PUSH2 0xF19 SWAP2 PUSH2 0xEFF DUP5 PUSH2 0xCE2 JUMP JUMPDEST PUSH1 0x1 PUSH1 0x1 PUSH1 0xA0 SHL SUB SWAP4 SWAP2 DUP5 AND SWAP3 DUP5 SWAP3 SWAP1 SWAP2 DUP4 AND DUP5 EQ PUSH2 0xE97 JUMP JUMPDEST AND SWAP2 DUP3 ISZERO PUSH2 0xFB1 JUMPI DUP2 PUSH2 0xF36 SWAP2 PUSH2 0xF2F DUP7 PUSH2 0xCE2 JUMP JUMPDEST AND EQ PUSH2 0xE97 JUMP JUMPDEST PUSH32 0xDDF252AD1BE2C89B69C2B068FC378DAA952BA7F163C4A11628F55A4DF523B3EF PUSH1 0x0 DUP5 DUP2 MSTORE PUSH1 0x6 PUSH1 0x20 MSTORE PUSH1 0x40 DUP2 KECCAK256 PUSH1 0x1 PUSH1 0x1 PUSH1 0x60 SHL SUB PUSH1 0xA0 SHL SWAP1 DUP2 DUP2 SLOAD AND SWAP1 SSTORE DUP4 DUP3 MSTORE PUSH1 0x5 PUSH1 0x20 MSTORE PUSH1 0x40 DUP3 KECCAK256 PUSH1 0x0 NOT DUP2 SLOAD ADD SWAP1 SSTORE DUP5 DUP3 MSTORE PUSH1 0x40 DUP3 KECCAK256 PUSH1 0x1 DUP2 SLOAD ADD SWAP1 SSTORE DUP6 DUP3 MSTORE PUSH1 0x4 PUSH1 0x20 MSTORE DUP5 PUSH1 0x40 DUP4 KECCAK256 SWAP2 DUP3 SLOAD AND OR SWAP1 SSTORE DUP1 LOG4 JUMP JUMPDEST PUSH1 0x40 MLOAD PUSH3 0x461BCD PUSH1 0xE5 SHL DUP2 MSTORE PUSH1 0x20 PUSH1 0x4 DUP3 ADD MSTORE PUSH1 0x24 DUP1 DUP3 ADD MSTORE PUSH32 0x4552433732313A207472616E7366657220746F20746865207A65726F20616464 PUSH1 0x44 DUP3 ADD MSTORE PUSH4 0x72657373 PUSH1 0xE0 SHL PUSH1 0x64 DUP3 ADD MSTORE PUSH1 0x84 SWAP1 REVERT JUMPDEST PUSH1 0x0 SWAP1 DUP2 MSTORE PUSH1 0x4 PUSH1 0x20 MSTORE PUSH1 0x40 SWAP1 KECCAK256 SLOAD PUSH2 0x1025 SWAP1 PUSH1 0x1 PUSH1 0x1 PUSH1 0xA0 SHL SUB AND ISZERO ISZERO PUSH2 0xC96 JUMP JUMPDEST JUMP JUMPDEST SWAP3 SWAP4 PUSH1 0x0 SWAP4 SWAP1 SWAP3 SWAP2 DUP1 EXTCODESIZE ISZERO PUSH2 0x113D JUMPI SWAP5 DUP5 SWAP2 PUSH2 0x1081 SWAP7 PUSH1 0x40 MLOAD DUP1 SWAP5 DUP2 SWAP4 PUSH4 0xA85BD01 PUSH1 0xE1 SHL SWAP8 DUP9 DUP5 MSTORE CALLER PUSH1 0x4 DUP6 ADD MSTORE PUSH1 0x1 DUP1 PUSH1 0xA0 SHL SUB DUP1 SWAP3 AND PUSH1 0x24 DUP6 ADD MSTORE PUSH1 0x44 DUP5 ADD MSTORE PUSH1 0x80 PUSH1 0x64 DUP5 ADD MSTORE DUP3 PUSH1 0x20 SWAP12 DUP13 SWAP8 PUSH1 0x84 DUP4 ADD SWAP1 PUSH2 0xB28 JUMP JUMPDEST SUB SWAP4 AND GAS CALL DUP5 SWAP2 DUP2 PUSH2 0x10FD JUMPI JUMPDEST POP PUSH2 0x10EC JUMPI POP POP POP RETURNDATASIZE PUSH1 0x0 EQ PUSH2 0x10E4 JUMPI RETURNDATASIZE PUSH2 0x10A8 DUP2 PUSH2 0xC22 JUMP JUMPDEST SWAP1 PUSH2 0x10B6 PUSH1 0x40 MLOAD SWAP3 DUP4 PUSH2 0xC00 JUMP JUMPDEST DUP2 MSTORE DUP1 SWAP2 DUP4 RETURNDATASIZE SWAP3 ADD RETURNDATACOPY JUMPDEST DUP1 MLOAD SWAP2 DUP3 PUSH2 0x10E1 JUMPI PUSH1 0x40 MLOAD PUSH3 0x461BCD PUSH1 0xE5 SHL DUP2 MSTORE DUP1 PUSH2 0xDD2 PUSH1 0x4 DUP3 ADD PUSH2 0xDD6 JUMP JUMPDEST ADD REVERT JUMPDEST POP PUSH1 0x60 PUSH2 0x10C0 JUMP JUMPDEST PUSH1 0x1 PUSH1 0x1 PUSH1 0xE0 SHL SUB NOT AND EQ SWAP3 POP SWAP1 POP JUMP JUMPDEST SWAP1 SWAP2 POP DUP6 DUP2 DUP2 RETURNDATASIZE DUP4 GT PUSH2 0x1136 JUMPI JUMPDEST PUSH2 0x1115 DUP2 DUP4 PUSH2 0xC00 JUMP JUMPDEST DUP2 ADD SUB SLT PUSH2 0x4E6 JUMPI MLOAD PUSH1 0x1 PUSH1 0x1 PUSH1 0xE0 SHL SUB NOT DUP2 AND DUP2 SUB PUSH2 0x4E6 JUMPI SWAP1 CODESIZE PUSH2 0x108E JUMP JUMPDEST POP RETURNDATASIZE PUSH2 0x110B JUMP JUMPDEST POP POP POP SWAP2 POP POP PUSH1 0x1 SWAP1 JUMP INVALID LOG2 PUSH5 0x6970667358 0x22 SLT KECCAK256 DUP2 0x27 BYTE 0xE7 MSIZE PUSH18 0x55B94D4A2A2BE92F83D3647E22B176DFFA7F GASLIMIT PUSH21 0xFA3E3DFE102564736F6C6343000813003300000000 "},"methodIdentifiers":{"adminImpersonating(address)":"b95a0628","approve(address,uint256)":"095ea7b3","balanceOf(address)":"70a08231","getApproved(uint256)":"081812fc","impersonateAccount(address)":"a22fb387","isApprovedForAll(address,address)":"e985e9c5","name()":"06fdde03","owner()":"8da5cb5b","ownerOf(uint256)":"6352211e","renounceOwnership()":"715018a6","safeTransferFrom(address,address,uint256)":"42842e0e","safeTransferFrom(address,address,uint256,bytes)":"b88d4fde","sellerStatus(address)":"45de84db","servicePct()":"e01ef6e6","setApprovalForAll(address,bool)":"a22cb465","stopImpersonating()":"1385fd92","supportsInterface(bytes4)":"01ffc9a7","symbol()":"95d89b41","tokenURI(uint256)":"c87b56dd","transferFrom(address,address,uint256)":"23b872dd","transferOwnership(address)":"f2fde38b"}}}}}