{"contracts/HemShop.sol":{"HemShop":{"abi":[{"inputs":[{"internalType":"uint256","name":"_pct","type":"uint256"}],"stateMutability":"nonpayable","type":"constructor"},{"anonymous":false,"inputs":[{"indexed":false,"internalType":"address","name":"admin","type":"address"},{"indexed":false,"internalType":"address","name":"impersonatedAccount","type":"address"}],"name":"AdminImpersonationChanged","type":"event"},{"anonymous":false,"inputs":[{"indexed":true,"internalType":"address","name":"owner","type":"address"},{"indexed":true,"internalType":"address","name":"approved","type":"address"},{"indexed":true,"internalType":"uint256","name":"tokenId","type":"uint256"}],"name":"Approval","type":"event"},{"anonymous":false,"inputs":[{"indexed":true,"internalType":"address","name":"owner","type":"address"},{"indexed":true,"internalType":"address","name":"operator","type":"address"},{"indexed":false,"internalType":"bool","name":"approved","type":"bool"}],"name":"ApprovalForAll","type":"event"},{"anonymous":false,"inputs":[{"indexed":true,"internalType":"address","name":"seller","type":"address"},{"indexed":false,"internalType":"uint256","name":"newBalance","type":"uint256"}],"name":"BalanceUpdated","type":"event"},{"anonymous":false,"inputs":[{"indexed":true,"internalType":"uint256","name":"id","type":"uint256"},{"indexed":false,"internalType":"string","name":"name","type":"string"}],"name":"CategoryCreated","type":"event"},{"anonymous":false,"inputs":[{"indexed":true,"internalType":"uint256","name":"id","type":"uint256"},{"indexed":false,"internalType":"string","name":"name","type":"string"},{"indexed":false,"internalType":"bool","name":"isActive","type":"bool"}],"name":"CategoryUpdated","type":"event"},{"anonymous":false,"inputs":[{"indexed":true,"internalType":"uint256","name":"productId","type":"uint256"},{"indexed":true,"internalType":"address","name":"buyer","type":"address"},{"indexed":false,"internalType":"bool","name":"isDelivered","type":"bool"}],"name":"DeliveryStatusUpdated","type":"event"},{"anonymous":false,"inputs":[{"indexed":true,"internalType":"address","name":"previousOwner","type":"address"},{"indexed":true,"internalType":"address","name":"newOwner","type":"address"}],"name":"OwnershipTransferred","type":"event"},{"anonymous":false,"inputs":[{"indexed":true,"internalType":"uint256","name":"productId","type":"uint256"},{"indexed":true,"internalType":"address","name":"buyer","type":"address"},{"indexed":true,"internalType":"address","name":"seller","type":"address"},{"indexed":false,"internalType":"uint256","name":"price","type":"uint256"},{"indexed":false,"internalType":"uint256","name":"timestamp","type":"uint256"}],"name":"ProductPurchased","type":"event"},{"anonymous":false,"inputs":[{"indexed":true,"internalType":"uint256","name":"productId","type":"uint256"},{"indexed":true,"internalType":"address","name":"buyer","type":"address"},{"indexed":true,"internalType":"address","name":"seller","type":"address"},{"indexed":false,"internalType":"uint256","name":"totalAmount","type":"uint256"},{"indexed":false,"internalType":"uint256","name":"basePrice","type":"uint256"},{"indexed":false,"internalType":"uint256","name":"timestamp","type":"uint256"}],"name":"PurchaseRecorded","type":"event"},{"anonymous":false,"inputs":[{"indexed":true,"internalType":"address","name":"seller","type":"address"},{"indexed":false,"internalType":"uint256","name":"timestamp","type":"uint256"}],"name":"SellerRegistered","type":"event"},{"anonymous":false,"inputs":[{"indexed":true,"internalType":"address","name":"seller","type":"address"},{"indexed":false,"internalType":"enum HemShop.SellerStatus","name":"status","type":"uint8"}],"name":"SellerStatusUpdated","type":"event"},{"anonymous":false,"inputs":[{"indexed":true,"internalType":"uint256","name":"id","type":"uint256"},{"indexed":true,"internalType":"uint256","name":"parentId","type":"uint256"},{"indexed":false,"internalType":"string","name":"name","type":"string"}],"name":"SubCategoryCreated","type":"event"},{"anonymous":false,"inputs":[{"indexed":true,"internalType":"uint256","name":"id","type":"uint256"},{"indexed":false,"internalType":"string","name":"name","type":"string"},{"indexed":false,"internalType":"bool","name":"isActive","type":"bool"}],"name":"SubCategoryUpdated","type":"event"},{"anonymous":false,"inputs":[{"indexed":true,"internalType":"address","name":"from","type":"address"},{"indexed":true,"internalType":"address","name":"to","type":"address"},{"indexed":true,"internalType":"uint256","name":"tokenId","type":"uint256"}],"name":"Transfer","type":"event"},{"anonymous":false,"inputs":[{"indexed":true,"internalType":"address","name":"user","type":"address"},{"indexed":false,"internalType":"string","name":"name","type":"string"}],"name":"UserRegistered","type":"event"},{"inputs":[{"internalType":"address","name":"","type":"address"}],"name":"adminImpersonating","outputs":[{"internalType":"address","name":"","type":"address"}],"stateMutability":"view","type":"function"},{"inputs":[{"internalType":"address","name":"to","type":"address"},{"internalType":"uint256","name":"tokenId","type":"uint256"}],"name":"approve","outputs":[],"stateMutability":"nonpayable","type":"function"},{"inputs":[{"internalType":"address","name":"owner","type":"address"}],"name":"balanceOf","outputs":[{"internalType":"uint256","name":"","type":"uint256"}],"stateMutability":"view","type":"function"},{"inputs":[{"internalType":"uint256","name":"productId","type":"uint256"},{"components":[{"internalType":"string","name":"fullName","type":"string"},{"internalType":"string","name":"streetAddress","type":"string"},{"internalType":"string","name":"city","type":"string"},{"internalType":"string","name":"state","type":"string"},{"internalType":"string","name":"country","type":"string"},{"internalType":"string","name":"postalCode","type":"string"},{"internalType":"string","name":"phone","type":"string"},{"internalType":"string","name":"email","type":"string"}],"internalType":"struct HemShop.ShippingDetails","name":"shippingDetails","type":"tuple"}],"name":"buyProduct","outputs":[],"stateMutability":"payable","type":"function"},{"inputs":[{"internalType":"address","name":"","type":"address"},{"internalType":"uint256","name":"","type":"uint256"}],"name":"buyerPurchaseHistory","outputs":[{"internalType":"uint256","name":"productId","type":"uint256"},{"internalType":"uint256","name":"totalAmount","type":"uint256"},{"internalType":"uint256","name":"basePrice","type":"uint256"},{"internalType":"uint256","name":"timestamp","type":"uint256"},{"internalType":"address","name":"buyer","type":"address"},{"internalType":"address","name":"seller","type":"address"},{"internalType":"bool","name":"isDelivered","type":"bool"},{"components":[{"internalType":"string","name":"fullName","type":"string"},{"internalType":"string","name":"streetAddress","type":"string"},{"internalType":"string","name":"city","type":"string"},{"internalType":"string","name":"state","type":"string"},{"internalType":"string","name":"country","type":"string"},{"internalType":"string","name":"postalCode","type":"string"},{"internalType":"string","name":"phone","type":"string"},{"internalType":"string","name":"email","type":"string"}],"internalType":"struct HemShop.ShippingDetails","name":"shippingDetails","type":"tuple"}],"stateMutability":"view","type":"function"},{"inputs":[{"internalType":"uint256","name":"newPct","type":"uint256"}],"name":"changeServicePct","outputs":[],"stateMutability":"nonpayable","type":"function"},{"inputs":[{"internalType":"string","name":"_name","type":"string"}],"name":"createCategory","outputs":[],"stateMutability":"nonpayable","type":"function"},{"inputs":[{"components":[{"internalType":"string","name":"name","type":"string"},{"internalType":"string","name":"description","type":"string"},{"internalType":"uint256","name":"price","type":"uint256"},{"internalType":"uint256","name":"stock","type":"uint256"},{"internalType":"string[]","name":"colors","type":"string[]"},{"internalType":"string[]","name":"sizes","type":"string[]"},{"internalType":"string[]","name":"images","type":"string[]"},{"internalType":"uint256","name":"categoryId","type":"uint256"},{"internalType":"uint256","name":"subCategoryId","type":"uint256"},{"internalType":"uint256","name":"weight","type":"uint256"},{"internalType":"string","name":"model","type":"string"},{"internalType":"string","name":"brand","type":"string"},{"internalType":"uint256","name":"sku","type":"uint256"}],"internalType":"struct HemShop.ProductInput","name":"input","type":"tuple"}],"name":"createProduct","outputs":[],"stateMutability":"nonpayable","type":"function"},{"inputs":[{"internalType":"uint256","name":"productId","type":"uint256"},{"internalType":"uint256","name":"rating","type":"uint256"},{"internalType":"string","name":"comment","type":"string"}],"name":"createReview","outputs":[],"stateMutability":"nonpayable","type":"function"},{"inputs":[{"internalType":"uint256","name":"parentId","type":"uint256"},{"internalType":"string[]","name":"names","type":"string[]"}],"name":"createSubCategoriesBulk","outputs":[],"stateMutability":"nonpayable","type":"function"},{"inputs":[{"internalType":"uint256","name":"_parentId","type":"uint256"},{"internalType":"string","name":"_name","type":"string"}],"name":"createSubCategory","outputs":[],"stateMutability":"nonpayable","type":"function"},{"inputs":[{"internalType":"uint256","name":"_id","type":"uint256"}],"name":"deleteCategory","outputs":[],"stateMutability":"nonpayable","type":"function"},{"inputs":[{"internalType":"uint256","name":"productId","type":"uint256"}],"name":"deleteProduct","outputs":[],"stateMutability":"nonpayable","type":"function"},{"inputs":[{"internalType":"uint256","name":"productId","type":"uint256"},{"internalType":"uint256","name":"reviewId","type":"uint256"}],"name":"deleteReview","outputs":[],"stateMutability":"nonpayable","type":"function"},{"inputs":[{"internalType":"uint256","name":"_id","type":"uint256"}],"name":"deleteSubCategory","outputs":[],"stateMutability":"nonpayable","type":"function"},{"inputs":[],"name":"getAllCategories","outputs":[{"internalType":"uint256[]","name":"ids","type":"uint256[]"},{"internalType":"string[]","name":"names","type":"string[]"},{"internalType":"bool[]","name":"activeStates","type":"bool[]"},{"internalType":"uint256[][]","name":"subCategoryIdArrays","type":"uint256[][]"}],"stateMutability":"view","type":"function"},{"inputs":[],"name":"getAllProducts","outputs":[{"components":[{"internalType":"uint256","name":"id","type":"uint256"},{"internalType":"address","name":"seller","type":"address"},{"internalType":"string","name":"name","type":"string"},{"internalType":"string","name":"description","type":"string"},{"internalType":"uint256","name":"price","type":"uint256"},{"internalType":"uint256","name":"stock","type":"uint256"},{"internalType":"string[]","name":"colors","type":"string[]"},{"internalType":"string[]","name":"sizes","type":"string[]"},{"internalType":"string[]","name":"images","type":"string[]"},{"internalType":"string","name":"category","type":"string"},{"internalType":"string","name":"subCategory","type":"string"},{"internalType":"uint256","name":"weight","type":"uint256"},{"internalType":"string","name":"model","type":"string"},{"internalType":"string","name":"brand","type":"string"},{"internalType":"uint256","name":"sku","type":"uint256"},{"internalType":"bool","name":"soldout","type":"bool"},{"internalType":"bool","name":"wishlist","type":"bool"},{"internalType":"bool","name":"deleted","type":"bool"},{"components":[{"internalType":"uint256","name":"reviewId","type":"uint256"},{"internalType":"address","name":"reviewer","type":"address"},{"internalType":"uint256","name":"rating","type":"uint256"},{"internalType":"string","name":"comment","type":"string"},{"internalType":"bool","name":"deleted","type":"bool"},{"internalType":"uint256","name":"timestamp","type":"uint256"}],"internalType":"struct HemShop.ReviewStruct[]","name":"reviews","type":"tuple[]"}],"internalType":"struct HemShop.ProductStruct[]","name":"","type":"tuple[]"}],"stateMutability":"view","type":"function"},{"inputs":[],"name":"getAllRegisteredSellers","outputs":[{"internalType":"address[]","name":"","type":"address[]"}],"stateMutability":"view","type":"function"},{"inputs":[{"internalType":"uint256","name":"tokenId","type":"uint256"}],"name":"getApproved","outputs":[{"internalType":"address","name":"","type":"address"}],"stateMutability":"view","type":"function"},{"inputs":[{"internalType":"address","name":"buyer","type":"address"}],"name":"getBuyerPurchaseHistory","outputs":[{"components":[{"internalType":"uint256","name":"productId","type":"uint256"},{"internalType":"uint256","name":"totalAmount","type":"uint256"},{"internalType":"uint256","name":"basePrice","type":"uint256"},{"internalType":"uint256","name":"timestamp","type":"uint256"},{"internalType":"address","name":"buyer","type":"address"},{"internalType":"address","name":"seller","type":"address"},{"internalType":"bool","name":"isDelivered","type":"bool"},{"components":[{"internalType":"string","name":"fullName","type":"string"},{"internalType":"string","name":"streetAddress","type":"string"},{"internalType":"string","name":"city","type":"string"},{"internalType":"string","name":"state","type":"string"},{"internalType":"string","name":"country","type":"string"},{"internalType":"string","name":"postalCode","type":"string"},{"internalType":"string","name":"phone","type":"string"},{"internalType":"string","name":"email","type":"string"}],"internalType":"struct HemShop.ShippingDetails","name":"shippingDetails","type":"tuple"}],"internalType":"struct HemShop.PurchaseHistoryStruct[]","name":"","type":"tuple[]"}],"stateMutability":"view","type":"function"},{"inputs":[{"internalType":"uint256","name":"_id","type":"uint256"}],"name":"getCategory","outputs":[{"internalType":"uint256","name":"id","type":"uint256"},{"internalType":"string","name":"name","type":"string"},{"internalType":"bool","name":"isActive","type":"bool"},{"internalType":"uint256[]","name":"subCategoryIds","type":"uint256[]"}],"stateMutability":"view","type":"function"},{"inputs":[],"name":"getMyProducts","outputs":[{"components":[{"internalType":"uint256","name":"id","type":"uint256"},{"internalType":"address","name":"seller","type":"address"},{"internalType":"string","name":"name","type":"string"},{"internalType":"string","name":"description","type":"string"},{"internalType":"uint256","name":"price","type":"uint256"},{"internalType":"uint256","name":"stock","type":"uint256"},{"internalType":"string[]","name":"colors","type":"string[]"},{"internalType":"string[]","name":"sizes","type":"string[]"},{"internalType":"string[]","name":"images","type":"string[]"},{"internalType":"string","name":"category","type":"string"},{"internalType":"string","name":"subCategory","type":"string"},{"internalType":"uint256","name":"weight","type":"uint256"},{"internalType":"string","name":"model","type":"string"},{"internalType":"string","name":"brand","type":"string"},{"internalType":"uint256","name":"sku","type":"uint256"},{"internalType":"bool","name":"soldout","type":"bool"},{"internalType":"bool","name":"wishlist","type":"bool"},{"internalType":"bool","name":"deleted","type":"bool"},{"components":[{"internalType":"uint256","name":"reviewId","type":"uint256"},{"internalType":"address","name":"reviewer","type":"address"},{"internalType":"uint256","name":"rating","type":"uint256"},{"internalType":"string","name":"comment","type":"string"},{"internalType":"bool","name":"deleted","type":"bool"},{"internalType":"uint256","name":"timestamp","type":"uint256"}],"internalType":"struct HemShop.ReviewStruct[]","name":"reviews","type":"tuple[]"}],"internalType":"struct HemShop.ProductStruct[]","name":"","type":"tuple[]"}],"stateMutability":"view","type":"function"},{"inputs":[{"internalType":"uint256","name":"productId","type":"uint256"}],"name":"getProduct","outputs":[{"components":[{"internalType":"uint256","name":"id","type":"uint256"},{"internalType":"address","name":"seller","type":"address"},{"internalType":"string","name":"name","type":"string"},{"internalType":"string","name":"description","type":"string"},{"internalType":"uint256","name":"price","type":"uint256"},{"internalType":"uint256","name":"stock","type":"uint256"},{"internalType":"string[]","name":"colors","type":"string[]"},{"internalType":"string[]","name":"sizes","type":"string[]"},{"internalType":"string[]","name":"images","type":"string[]"},{"internalType":"string","name":"category","type":"string"},{"internalType":"string","name":"subCategory","type":"string"},{"internalType":"uint256","name":"weight","type":"uint256"},{"internalType":"string","name":"model","type":"string"},{"internalType":"string","name":"brand","type":"string"},{"internalType":"uint256","name":"sku","type":"uint256"},{"internalType":"bool","name":"soldout","type":"bool"},{"internalType":"bool","name":"wishlist","type":"bool"},{"internalType":"bool","name":"deleted","type":"bool"},{"components":[{"internalType":"uint256","name":"reviewId","type":"uint256"},{"internalType":"address","name":"reviewer","type":"address"},{"internalType":"uint256","name":"rating","type":"uint256"},{"internalType":"string","name":"comment","type":"string"},{"internalType":"bool","name":"deleted","type":"bool"},{"internalType":"uint256","name":"timestamp","type":"uint256"}],"internalType":"struct HemShop.ReviewStruct[]","name":"reviews","type":"tuple[]"}],"internalType":"struct HemShop.ProductStruct","name":"","type":"tuple"}],"stateMutability":"view","type":"function"},{"inputs":[{"internalType":"string","name":"categoryName","type":"string"}],"name":"getProductsByCategory","outputs":[{"components":[{"internalType":"uint256","name":"id","type":"uint256"},{"internalType":"address","name":"seller","type":"address"},{"internalType":"string","name":"name","type":"string"},{"internalType":"string","name":"description","type":"string"},{"internalType":"uint256","name":"price","type":"uint256"},{"internalType":"uint256","name":"stock","type":"uint256"},{"internalType":"string[]","name":"colors","type":"string[]"},{"internalType":"string[]","name":"sizes","type":"string[]"},{"internalType":"string[]","name":"images","type":"string[]"},{"internalType":"string","name":"category","type":"string"},{"internalType":"string","name":"subCategory","type":"string"},{"internalType":"uint256","name":"weight","type":"uint256"},{"internalType":"string","name":"model","type":"string"},{"internalType":"string","name":"brand","type":"string"},{"internalType":"uint256","name":"sku","type":"uint256"},{"internalType":"bool","name":"soldout","type":"bool"},{"internalType":"bool","name":"wishlist","type":"bool"},{"internalType":"bool","name":"deleted","type":"bool"},{"components":[{"internalType":"uint256","name":"reviewId","type":"uint256"},{"internalType":"address","name":"reviewer","type":"address"},{"internalType":"uint256","name":"rating","type":"uint256"},{"internalType":"string","name":"comment","type":"string"},{"internalType":"bool","name":"deleted","type":"bool"},{"internalType":"uint256","name":"timestamp","type":"uint256"}],"internalType":"struct HemShop.ReviewStruct[]","name":"reviews","type":"tuple[]"}],"internalType":"struct HemShop.ProductStruct[]","name":"","type":"tuple[]"}],"stateMutability":"view","type":"function"},{"inputs":[{"internalType":"uint256","name":"productId","type":"uint256"}],"name":"getReviews","outputs":[{"components":[{"internalType":"uint256","name":"reviewId","type":"uint256"},{"internalType":"address","name":"reviewer","type":"address"},{"internalType":"uint256","name":"rating","type":"uint256"},{"internalType":"string","name":"comment","type":"string"},{"internalType":"bool","name":"deleted","type":"bool"},{"internalType":"uint256","name":"timestamp","type":"uint256"}],"internalType":"struct HemShop.ReviewStruct[]","name":"","type":"tuple[]"}],"stateMutability":"view","type":"function"},{"inputs":[{"internalType":"address","name":"seller","type":"address"}],"name":"getSeller","outputs":[{"components":[{"internalType":"string","name":"businessName","type":"string"},{"internalType":"string","name":"description","type":"string"},{"internalType":"string","name":"email","type":"string"},{"internalType":"string","name":"phone","type":"string"},{"internalType":"string","name":"logo","type":"string"},{"internalType":"uint256","name":"registeredAt","type":"uint256"},{"internalType":"bool","name":"termsAccepted","type":"bool"}],"internalType":"struct HemShop.SellerProfile","name":"profile","type":"tuple"},{"internalType":"enum HemShop.SellerStatus","name":"status","type":"uint8"},{"internalType":"uint256","name":"balance","type":"uint256"},{"internalType":"uint256[]","name":"productIds","type":"uint256[]"}],"stateMutability":"view","type":"function"},{"inputs":[{"internalType":"address","name":"seller","type":"address"}],"name":"getSellerBalance","outputs":[{"internalType":"uint256","name":"","type":"uint256"}],"stateMutability":"view","type":"function"},{"inputs":[{"internalType":"address","name":"seller","type":"address"}],"name":"getSellerProducts","outputs":[{"components":[{"internalType":"uint256","name":"id","type":"uint256"},{"internalType":"address","name":"seller","type":"address"},{"internalType":"string","name":"name","type":"string"},{"internalType":"string","name":"description","type":"string"},{"internalType":"uint256","name":"price","type":"uint256"},{"internalType":"uint256","name":"stock","type":"uint256"},{"internalType":"string[]","name":"colors","type":"string[]"},{"internalType":"string[]","name":"sizes","type":"string[]"},{"internalType":"string[]","name":"images","type":"string[]"},{"internalType":"string","name":"category","type":"string"},{"internalType":"string","name":"subCategory","type":"string"},{"internalType":"uint256","name":"weight","type":"uint256"},{"internalType":"string","name":"model","type":"string"},{"internalType":"string","name":"brand","type":"string"},{"internalType":"uint256","name":"sku","type":"uint256"},{"internalType":"bool","name":"soldout","type":"bool"},{"internalType":"bool","name":"wishlist","type":"bool"},{"internalType":"bool","name":"deleted","type":"bool"},{"components":[{"internalType":"uint256","name":"reviewId","type":"uint256"},{"internalType":"address","name":"reviewer","type":"address"},{"internalType":"uint256","name":"rating","type":"uint256"},{"internalType":"string","name":"comment","type":"string"},{"internalType":"bool","name":"deleted","type":"bool"},{"internalType":"uint256","name":"timestamp","type":"uint256"}],"internalType":"struct HemShop.ReviewStruct[]","name":"reviews","type":"tuple[]"}],"internalType":"struct HemShop.ProductStruct[]","name":"","type":"tuple[]"}],"stateMutability":"view","type":"function"},{"inputs":[{"internalType":"address","name":"seller","type":"address"}],"name":"getSellerProfile","outputs":[{"components":[{"internalType":"string","name":"businessName","type":"string"},{"internalType":"string","name":"description","type":"string"},{"internalType":"string","name":"email","type":"string"},{"internalType":"string","name":"phone","type":"string"},{"internalType":"string","name":"logo","type":"string"},{"internalType":"uint256","name":"registeredAt","type":"uint256"},{"internalType":"bool","name":"termsAccepted","type":"bool"}],"internalType":"struct HemShop.SellerProfile","name":"","type":"tuple"}],"stateMutability":"view","type":"function"},{"inputs":[{"internalType":"address","name":"seller","type":"address"}],"name":"getSellerPurchaseHistory","outputs":[{"components":[{"internalType":"uint256","name":"productId","type":"uint256"},{"internalType":"uint256","name":"totalAmount","type":"uint256"},{"internalType":"uint256","name":"basePrice","type":"uint256"},{"internalType":"uint256","name":"timestamp","type":"uint256"},{"internalType":"address","name":"buyer","type":"address"},{"internalType":"address","name":"seller","type":"address"},{"internalType":"bool","name":"isDelivered","type":"bool"},{"components":[{"internalType":"string","name":"fullName","type":"string"},{"internalType":"string","name":"streetAddress","type":"string"},{"internalType":"string","name":"city","type":"string"},{"internalType":"string","name":"state","type":"string"},{"internalType":"string","name":"country","type":"string"},{"internalType":"string","name":"postalCode","type":"string"},{"internalType":"string","name":"phone","type":"string"},{"internalType":"string","name":"email","type":"string"}],"internalType":"struct HemShop.ShippingDetails","name":"shippingDetails","type":"tuple"}],"internalType":"struct HemShop.PurchaseHistoryStruct[]","name":"","type":"tuple[]"}],"stateMutability":"view","type":"function"},{"inputs":[{"internalType":"address","name":"seller","type":"address"}],"name":"getSellerStatus","outputs":[{"internalType":"enum HemShop.SellerStatus","name":"","type":"uint8"}],"stateMutability":"view","type":"function"},{"inputs":[{"internalType":"uint256","name":"_id","type":"uint256"}],"name":"getSubCategory","outputs":[{"internalType":"uint256","name":"id","type":"uint256"},{"internalType":"string","name":"name","type":"string"},{"internalType":"uint256","name":"parentCategoryId","type":"uint256"},{"internalType":"bool","name":"isActive","type":"bool"}],"stateMutability":"view","type":"function"},{"inputs":[{"internalType":"address","name":"user","type":"address"}],"name":"getUser","outputs":[{"internalType":"bool","name":"isRegistered","type":"bool"},{"components":[{"internalType":"string","name":"name","type":"string"},{"internalType":"string","name":"email","type":"string"},{"internalType":"string","name":"avatar","type":"string"},{"internalType":"uint256","name":"registeredAt","type":"uint256"},{"internalType":"bool","name":"isActive","type":"bool"}],"internalType":"struct HemShop.UserProfile","name":"profile","type":"tuple"},{"internalType":"bool","name":"isUserSeller","type":"bool"},{"internalType":"enum HemShop.SellerStatus","name":"sellerState","type":"uint8"}],"stateMutability":"view","type":"function"},{"inputs":[{"internalType":"address","name":"account","type":"address"}],"name":"impersonateAccount","outputs":[],"stateMutability":"nonpayable","type":"function"},{"inputs":[{"internalType":"address","name":"owner","type":"address"},{"internalType":"address","name":"operator","type":"address"}],"name":"isApprovedForAll","outputs":[{"internalType":"bool","name":"","type":"bool"}],"stateMutability":"view","type":"function"},{"inputs":[{"internalType":"uint256","name":"productId","type":"uint256"},{"internalType":"address","name":"buyer","type":"address"}],"name":"markPurchaseDelivered","outputs":[],"stateMutability":"nonpayable","type":"function"},{"inputs":[],"name":"name","outputs":[{"internalType":"string","name":"","type":"string"}],"stateMutability":"view","type":"function"},{"inputs":[],"name":"owner","outputs":[{"internalType":"address","name":"","type":"address"}],"stateMutability":"view","type":"function"},{"inputs":[{"internalType":"uint256","name":"tokenId","type":"uint256"}],"name":"ownerOf","outputs":[{"internalType":"address","name":"","type":"address"}],"stateMutability":"view","type":"function"},{"inputs":[{"internalType":"uint256","name":"","type":"uint256"}],"name":"productExists","outputs":[{"internalType":"bool","name":"","type":"bool"}],"stateMutability":"view","type":"function"},{"inputs":[{"internalType":"uint256","name":"","type":"uint256"}],"name":"products","outputs":[{"internalType":"uint256","name":"id","type":"uint256"},{"internalType":"address","name":"seller","type":"address"},{"internalType":"string","name":"name","type":"string"},{"internalType":"string","name":"description","type":"string"},{"internalType":"uint256","name":"price","type":"uint256"},{"internalType":"uint256","name":"stock","type":"uint256"},{"internalType":"string","name":"category","type":"string"},{"internalType":"string","name":"subCategory","type":"string"},{"internalType":"uint256","name":"weight","type":"uint256"},{"internalType":"string","name":"model","type":"string"},{"internalType":"string","name":"brand","type":"string"},{"internalType":"uint256","name":"sku","type":"uint256"},{"internalType":"bool","name":"soldout","type":"bool"},{"internalType":"bool","name":"wishlist","type":"bool"},{"internalType":"bool","name":"deleted","type":"bool"}],"stateMutability":"view","type":"function"},{"inputs":[{"internalType":"string","name":"businessName","type":"string"},{"internalType":"string","name":"description","type":"string"},{"internalType":"string","name":"email","type":"string"},{"internalType":"string","name":"phone","type":"string"},{"internalType":"string","name":"logo","type":"string"}],"name":"registerSeller","outputs":[],"stateMutability":"nonpayable","type":"function"},{"inputs":[{"internalType":"string","name":"name","type":"string"},{"internalType":"string","name":"email","type":"string"},{"internalType":"string","name":"avatar","type":"string"}],"name":"registerUser","outputs":[],"stateMutability":"nonpayable","type":"function"},{"inputs":[{"internalType":"address","name":"","type":"address"}],"name":"registeredSellers","outputs":[{"internalType":"bool","name":"","type":"bool"}],"stateMutability":"view","type":"function"},{"inputs":[{"internalType":"address","name":"","type":"address"}],"name":"registeredUsers","outputs":[{"internalType":"bool","name":"","type":"bool"}],"stateMutability":"view","type":"function"},{"inputs":[],"name":"renounceOwnership","outputs":[],"stateMutability":"nonpayable","type":"function"},{"inputs":[{"internalType":"uint256","name":"","type":"uint256"}],"name":"reviewExists","outputs":[{"internalType":"bool","name":"","type":"bool"}],"stateMutability":"view","type":"function"},{"inputs":[{"internalType":"address","name":"from","type":"address"},{"internalType":"address","name":"to","type":"address"},{"internalType":"uint256","name":"tokenId","type":"uint256"}],"name":"safeTransferFrom","outputs":[],"stateMutability":"nonpayable","type":"function"},{"inputs":[{"internalType":"address","name":"from","type":"address"},{"internalType":"address","name":"to","type":"address"},{"internalType":"uint256","name":"tokenId","type":"uint256"},{"internalType":"bytes","name":"data","type":"bytes"}],"name":"safeTransferFrom","outputs":[],"stateMutability":"nonpayable","type":"function"},{"inputs":[{"internalType":"address","name":"","type":"address"}],"name":"sellerBalances","outputs":[{"internalType":"uint256","name":"","type":"uint256"}],"stateMutability":"view","type":"function"},{"inputs":[{"internalType":"address","name":"","type":"address"},{"internalType":"uint256","name":"","type":"uint256"}],"name":"sellerProducts","outputs":[{"internalType":"uint256","name":"","type":"uint256"}],"stateMutability":"view","type":"function"},{"inputs":[{"internalType":"address","name":"","type":"address"}],"name":"sellerProfiles","outputs":[{"internalType":"string","name":"businessName","type":"string"},{"internalType":"string","name":"description","type":"string"},{"internalType":"string","name":"email","type":"string"},{"internalType":"string","name":"phone","type":"string"},{"internalType":"string","name":"logo","type":"string"},{"internalType":"uint256","name":"registeredAt","type":"uint256"},{"internalType":"bool","name":"termsAccepted","type":"bool"}],"stateMutability":"view","type":"function"},{"inputs":[{"internalType":"address","name":"","type":"address"},{"internalType":"uint256","name":"","type":"uint256"}],"name":"sellerPurchaseHistory","outputs":[{"internalType":"uint256","name":"productId","type":"uint256"},{"internalType":"uint256","name":"totalAmount","type":"uint256"},{"internalType":"uint256","name":"basePrice","type":"uint256"},{"internalType":"uint256","name":"timestamp","type":"uint256"},{"internalType":"address","name":"buyer","type":"address"},{"internalType":"address","name":"seller","type":"address"},{"internalType":"bool","name":"isDelivered","type":"bool"},{"components":[{"internalType":"string","name":"fullName","type":"string"},{"internalType":"string","name":"streetAddress","type":"string"},{"internalType":"string","name":"city","type":"string"},{"internalType":"string","name":"state","type":"string"},{"internalType":"string","name":"country","type":"string"},{"internalType":"string","name":"postalCode","type":"string"},{"internalType":"string","name":"phone","type":"string"},{"internalType":"string","name":"email","type":"string"}],"internalType":"struct HemShop.ShippingDetails","name":"shippingDetails","type":"tuple"}],"stateMutability":"view","type":"function"},{"inputs":[{"internalType":"address","name":"","type":"address"}],"name":"sellerStatus","outputs":[{"internalType":"enum HemShop.SellerStatus","name":"","type":"uint8"}],"stateMutability":"view","type":"function"},{"inputs":[],"name":"servicePct","outputs":[{"internalType":"uint256","name":"","type":"uint256"}],"stateMutability":"view","type":"function"},{"inputs":[{"internalType":"address","name":"operator","type":"address"},{"internalType":"bool","name":"approved","type":"bool"}],"name":"setApprovalForAll","outputs":[],"stateMutability":"nonpayable","type":"function"},{"inputs":[],"name":"stopImpersonating","outputs":[],"stateMutability":"nonpayable","type":"function"},{"inputs":[{"internalType":"bytes4","name":"interfaceId","type":"bytes4"}],"name":"supportsInterface","outputs":[{"internalType":"bool","name":"","type":"bool"}],"stateMutability":"view","type":"function"},{"inputs":[],"name":"symbol","outputs":[{"internalType":"string","name":"","type":"string"}],"stateMutability":"view","type":"function"},{"inputs":[{"internalType":"uint256","name":"tokenId","type":"uint256"}],"name":"tokenURI","outputs":[{"internalType":"string","name":"","type":"string"}],"stateMutability":"view","type":"function"},{"inputs":[{"internalType":"address","name":"from","type":"address"},{"internalType":"address","name":"to","type":"address"},{"internalType":"uint256","name":"tokenId","type":"uint256"}],"name":"transferFrom","outputs":[],"stateMutability":"nonpayable","type":"function"},{"inputs":[{"internalType":"address","name":"newOwner","type":"address"}],"name":"transferOwnership","outputs":[],"stateMutability":"nonpayable","type":"function"},{"inputs":[{"internalType":"uint256","name":"_id","type":"uint256"},{"internalType":"string","name":"_name","type":"string"},{"internalType":"bool","name":"_isActive","type":"bool"}],"name":"updateCategory","outputs":[],"stateMutability":"nonpayable","type":"function"},{"inputs":[{"internalType":"uint256","name":"productId","type":"uint256"},{"components":[{"internalType":"string","name":"name","type":"string"},{"internalType":"string","name":"description","type":"string"},{"internalType":"uint256","name":"price","type":"uint256"},{"internalType":"uint256","name":"stock","type":"uint256"},{"internalType":"string[]","name":"colors","type":"string[]"},{"internalType":"string[]","name":"sizes","type":"string[]"},{"internalType":"string[]","name":"images","type":"string[]"},{"internalType":"uint256","name":"categoryId","type":"uint256"},{"internalType":"uint256","name":"subCategoryId","type":"uint256"},{"internalType":"uint256","name":"weight","type":"uint256"},{"internalType":"string","name":"model","type":"string"},{"internalType":"string","name":"brand","type":"string"},{"internalType":"uint256","name":"sku","type":"uint256"}],"internalType":"struct HemShop.ProductInput","name":"input","type":"tuple"}],"name":"updateProduct","outputs":[],"stateMutability":"nonpayable","type":"function"},{"inputs":[{"internalType":"address","name":"seller","type":"address"},{"internalType":"enum HemShop.SellerStatus","name":"newStatus","type":"uint8"}],"name":"updateSellerStatus","outputs":[],"stateMutability":"nonpayable","type":"function"},{"inputs":[{"internalType":"uint256","name":"_id","type":"uint256"},{"internalType":"string","name":"_name","type":"string"},{"internalType":"bool","name":"_isActive","type":"bool"}],"name":"updateSubCategory","outputs":[],"stateMutability":"nonpayable","type":"function"},{"inputs":[{"internalType":"address","name":"","type":"address"}],"name":"userProfiles","outputs":[{"internalType":"string","name":"name","type":"string"},{"internalType":"string","name":"email","type":"string"},{"internalType":"string","name":"avatar","type":"string"},{"internalType":"uint256","name":"registeredAt","type":"uint256"},{"internalType":"bool","name":"isActive","type":"bool"}],"stateMutability":"view","type":"function"},{"inputs":[{"internalType":"uint256","name":"","type":"uint256"}],"name":"usersList","outputs":[{"internalType":"address","name":"","type":"address"}],"stateMutability":"view","type":"function"},{"inputs":[],"name":"withdraw","outputs":[],"stateMutability":"nonpayable","type":"function"}],"evm":{"bytecode":{"linkReferences":{},"object":"6080346200037757601f90601f196001600160401b03620097dc3881900385810184168501838111868210176200037c57859282916040528339602094859181010312620003775751936200005362000392565b926007845266048656d53686f760cc1b858501526200007162000392565b60038082526204873760ec1b8783015260008054336001600160a01b031982168117835592989394919392906001600160a01b03167f8be0079c531659141344cd1fd0a4f28419497f9722a3daafe3b4186f6b6457e08580a360019687805580519087821162000363576002548981811c9116801562000358575b858210146200034457908188849311620002f0575b5084908883116001146200028e57869262000282575b5050600019828b1b1c191690881b176002555b83519586116200026e5787548781811c9116801562000263575b838210146200024f5785811162000207575b5081948611600114620001a25750509183949184939462000196575b50501b9160001990841b1c19161790555b600d556040516194299081620003b38239f35b01519250388062000172565b8783528183209493928692918316915b88838310620001ec5750505010620001d3575b505050811b01905562000183565b015160001983861b60f8161c19169055388080620001c5565b858701518855909601959485019487935090810190620001b2565b8884528284208680890160051c820192858a1062000245575b0160051c019088905b8281106200023957505062000156565b85815501889062000229565b9250819262000220565b634e487b7160e01b84526022600452602484fd5b90607f169062000144565b634e487b7160e01b83526041600452602483fd5b01519050388062000117565b90848b9416916002885286882092885b88828210620002d95750508411620002c0575b505050811b016002556200012a565b0151600019838d1b60f8161c19169055388080620002b1565b8385015186558e979095019493840193016200029e565b909150600286528486208880850160051c8201928786106200033a575b918c91869594930160051c01915b8281106200032b57505062000101565b8881558594508c91016200031b565b925081926200030d565b634e487b7160e01b86526022600452602486fd5b90607f1690620000ec565b634e487b7160e01b85526041600452602485fd5b600080fd5b634e487b7160e01b600052604160045260246000fd5b60408051919082016001600160401b038111838210176200037c5760405256fe608080604052600436101561001357600080fd5b60003560e01c908162d64e7614616bc15750806301ffc9a714616b5357806302ee3a52146168d857806306fdde0314616833578063081812fc14616815578063095ea7b31461669b5780630e50cee51461665c57806311aa5b34146166385780631385fd92146165e457806316d81b381461640157806317e98548146163895780632148893f14615a1157806323b872dd1461636057806324d41a031461613d578063317a082714615ff6578063332d56d714615f355780633c2575d514615e505780633ccfd60b14615d0e57806342842e0e14615ce65780634293e5ce14615be457806345de84db14615ba2578063502aa3b514615b595780635ad6a58014615aae5780635be2095914615a4b578063607eb4e414615a115780636352211e146159e1578063661e1712146152b957806366224d8e146151635780636f2c8599146150b85780636f77926b14614f3557806370a0823114614e9e578063715018a614614e575780637acc0b2014614c985780637d3978db14614a7a5780637e8555ed1461432e578063868a54611461381e5780638da5cb5b146137f55780638f38cc7b146134cf5780639196dfcb146133b557806395d89b41146132d357806397b6f393146131955780639d4a2255146130025780639fa44dbf14612fba578063a22cb46514612eef578063a22fb38714612e44578063a323d29e14612cf1578063af55ed6414612cc0578063b27e169714612bdb578063b88d4fde14612b7c578063b95a062814612b41578063b9db15b414612927578063c1302b34146128cf578063c64b8a8f14612890578063c87b56dd14612836578063ceca737f146127b2578063d2bc9d7814612505578063d637dcfa14612066578063dadd0a5714611d66578063dc29868214611b45578063e01ef6e614611b27578063e40971e514610c62578063e585cb2c14610bd2578063e6a93e1614610918578063e985e9c5146108c2578063eb11c43414610890578063ed90c7b714610756578063f2fde38b146106a7578063f3052d26146105e75763fdca4ca31461031557600080fd5b346105e25760003660031901126105e25760088054600060015b8281111561058157506103419061848b565b9060009260015b82811115610362576040518061035e8682616e7b565b0390f35b600081815260156020908152604090912060018101546001600160a01b031691903383148061056f575b6103a2575b50505061039d9061847c565b610348565b604097939751926103b284616f09565b81548452828401526040516103d5816103ce8160028601617106565b0382616fc8565b60408401526040516103ee816103ce8160038601617106565b606084015260048101546080840152600581015460a08401526006906104158282016183b6565b60c0850152610426600782016183b6565b60e08501526104368682016183b6565b610100850152604051610450816103ce8160098601617106565b61012085015260405161046a816103ce81600a8601617106565b610140850152600b81015461016085015260405161048f816103ce81600c8601617106565b6101808501526040516104a9816103ce81600d8601617106565b6101a0850152600e8101546101c0850152600f81015460ff80821615156101e087015281881c81161515610200870152601091821c16151561022086015201805491906104f583617f92565b936105036040519586616fc8565b8385526000918252808220918186015b85821061055357505050505050918161039d9361024061054a94015261053982886184db565b5261054481876184db565b5061847c565b94903880610391565b84836001926105618761841b565b815201940191019092610513565b5060ff600f82015460101c161561038c565b600081815260156020526040902060018101546001600160a01b0316331490816105cf575b506105ba575b6105b59061847c565b61032f565b906105c76105b59161847c565b9190506105ac565b60ff9150600f015460101c1615386105a6565b600080fd5b346105e25760203660031901126105e2576004356000526018602052604060002060405161061481616f5c565b8154815261035e60405191610637836106308160018801617106565b0384616fc8565b6020810192835261065b600360ff6002870154169560408401961515875201618650565b906060810191825261066f815115156185a1565b5192519351151590516106946040519586958652608060208701526080860190616bee565b91604085015283820360608501526174d9565b346105e25760203660031901126105e2576106c0616edd565b6106c861750d565b6001600160a01b03908116908115610702576000548260018060a01b03198216176000551660008051602061935d833981519152600080a3005b60405162461bcd60e51b815260206004820152602660248201527f4f776e61626c653a206e6577206f776e657220697320746865207a65726f206160448201526564647265737360d01b6064820152608490fd5b346105e2576020806003193601126105e25760043590816000526017815261078560ff60406000205416618258565b6000828152601582526040902060010154336001600160a01b0391821614908115610882575b501561082e57816000526015815260ff600f6040600020015460101c166107ed5760009182526015905260409020600f01805462ff0000191662010000179055005b6064906040519062461bcd60e51b82526004820152601a602482015279141c9bd91d58dd081a5cc8185b1c9958591e4819195b195d195960321b6044820152fd5b6084906040519062461bcd60e51b82526004820152602760248201527f4f6e6c792070726f647563742073656c6c6572206f72206f776e65722063616e6044820152662064656c65746560c81b6064820152fd5b6000541633149050836107ab565b346105e25760203660031901126105e25760206108b36108ae616edd565b617be8565b6108c06040518092617382565bf35b346105e25760403660031901126105e2576108db616edd565b6108e3616ef3565b9060018060a01b03809116600052600760205260406000209116600052602052602060ff604060002054166040519015158152f35b346105e25760203660031901126105e257610931616edd565b600854600060015b82811115610b6e575061094b9061848b565b90600160005b82821115610967576040518061035e8682616e7b565b600082815260156020526040902060018101546001600160a01b0390811691908716821480610b5c575b6109a8575b5050906109a29061847c565b90610951565b604051916109b583616f09565b8154835260208301526040516109d2816103ce8160028601617106565b60408301526040516109eb816103ce8160038601617106565b606083015260048101546080830152600581015460a0830152610a10600682016183b6565b60c0830152610a21600782016183b6565b60e0830152610a32600882016183b6565b610100830152604051610a4c816103ce8160098601617106565b610120830152604051610a66816103ce81600a8601617106565b610140830152600b810154610160830152604051610a8b816103ce81600c8601617106565b610180830152604051610aa5816103ce81600d8601617106565b6101a0830152600e8101546101c0830152600f8101549060ff80831615156101e0850152808360081c161515610200850152601092831c16151561022084015201805490610af282617f92565b91610b006040519384616fc8565b808352602083019160005260206000206000925b828410610b3e57505050506102408201526109a291610b379161053982886184db565b9086610996565b60066020600192610b4e8561841b565b815201920193019290610b14565b5060ff600f82015460101c1615610991565b600081815260156020526040902060018101546001600160a01b038681169116149081610bbf575b50610baa575b610ba59061847c565b610939565b90610bb7610ba59161847c565b919050610b9c565b60ff9150600f015460101c161585610b96565b346105e25760403660031901126105e257610beb616edd565b6001600160a01b039081166000908152601c602052604090208054602435908110156105e257610c1a916173a7565b509061035e825460018401549360028101549160038201548560048401541690610c4b6006600586015495016173c3565b9460405198899860ff8760a01c169616948961748f565b346105e2576003196020368201126105e2576001600160401b03600435116105e2576101a090600435360301126105e25733600052601260205260ff604060002054166004811015611b11576002148015611afd575b15611ab957610cd7610cce600480350180617c5c565b90501515617a52565b610ce8604460043501351515617c8e565b610cf9606460043501351515617cd9565b60e4600435013515611a6957610104600435013515611a1657610d2461012460043501351515617d24565b610d45610d3c61014460043501600435600401617c5c565b90501515617d70565b610d66610d5d61016460043501600435600401617c5c565b90501515617db4565b610d7861018460043501351515617df8565b610d98610d8f60c460043501600435600401617e41565b90501515617e76565b610dba6005610db160c460043501600435600401617e41565b90501115617ebb565b60016008540180600855610dcc617f06565b81815233602082015290610dee610de7600480350180617c5c565b3691617006565b6040830152610e0a610de7602460043501600435600401617c5c565b60608301526044600435013560808301526064600435013560a0830152610e45610e3e608460043501600435600401617e41565b3691617fa9565b60c0830152610e61610e3e60a460043501600435600401617e41565b60e0830152610e7d610e3e60c460043501600435600401617e41565b61010083015260e4600435013560005260186020526103ce610eac600160406000200160405192838092617106565b610120830152610104600435013560005260196020526103ce610edc600160406000200160405192838092617106565b610140830152610efa610de761014460043501600435600401617c5c565b610180830152610f18610de761016460043501600435600401617c5c565b6101a083015260043561012481013561016084015261018401356101c083015233156119d257610f50610f4a826178c8565b1561820d565b610f5c610f4a826178c8565b33600052600560205260406000206001815401905580600052600460205260406000203360018060a01b03198254161790558033600060008051602061939d8339815191528180a46015602052604060002090825182556001820160018060a01b0360208501511660018060a01b0319825416179055604083015192835160018060401b03811161143c5761100181610ff860028701546170cc565b60028701617aac565b6020601f8211600114611963578192939495600092611958575b50508160011b916000199060031b1c19161760028401555b606081015180519093906001600160401b03811161143c576110658161105c60038501546170cc565b60038501617aac565b6020601f82116001146118e95781929394956000926118de575b50508160011b916000199060031b1c19161760038201555b6080820151600482015560a082015160058201556006810160c083015160208151916110c38385618061565b01916000526020600020916000905b82821061180157505050506007810160e083015160208151916110f58385618061565b01916000526020600020916000905b82821061172457505050506008810161010083015160208151916111288385618061565b01916000526020600020916000905b828210611641575050505061012082015180519093906001600160401b03811161143c576111758161116c60098601546170cc565b60098601617aac565b6020601f82116001146115d25781929394956000926115c7575b50508160011b916000199060031b1c19161760098301555b61014083015180519093906001600160401b03811161143c576111da816111d1600a8701546170cc565b600a8701617aac565b6020601f821160011461155857819293949560009261154d575b50508160011b916000199060031b1c191617600a8401555b610160810151600b84015561018081015180519093906001600160401b03811161143c5761124a81611241600c8501546170cc565b600c8501617aac565b6020601f82116001146114de5781929394956000926114d3575b50508160011b916000199060031b1c191617600c8201555b6101a08201518051906001600160401b03821161143c576112ad826112a4600d8601546170cc565b600d8601617aac565b602090601f831160011461145d5791806102409492601094600092611452575b50508160011b916000199060031b1c191617600d8201555b6101c0840151600e820155600f81016113056101e08601511515826178b7565b6102008501511515815461ff0062ff00006102208901511515871b169260081b169062ffff001916171790550191015190815191600160401b831161143c5781548383558084106113b9575b506020019060005260206000206000915b83831061139b57611399858060005260176020526040600020600160ff1982541617905533600052601660205260406000206181d8565b005b60066020826113ad60019451866180aa565b01920192019190611362565b8060060290600682040361142657836006026006810485036114265783600052602060002091820191015b8181106113f15750611351565b80600060069255600060018201556000600282015561141260038201618018565b6000600482015560006005820155016113e4565b634e487b7160e01b600052601160045260246000fd5b634e487b7160e01b600052604160045260246000fd5b0151905087806112cd565b90600d840160005260206000209160005b601f19851681106114bb575092610240949260019260109583601f198116106114a2575b505050811b01600d8201556112e5565b015160001960f88460031b161c19169055878080611492565b9192602060018192868501518155019401920161146e565b015190508580611264565b600c830160005260206000209060005b601f1984168110611535575060019394959683601f1981161061151c575b505050811b01600c82015561127c565b015160001960f88460031b161c1916905585808061150c565b9091602060018192858b0151815501930191016114ee565b0151905085806111f4565b600a850160005260206000209060005b601f19841681106115af575060019394959683601f19811610611596575b505050811b01600a84015561120c565b015160001960f88460031b161c19169055858080611586565b9091602060018192858b015181550193019101611568565b01519050858061118f565b6009840160005260206000209060005b601f1984168110611629575060019394959683601f19811610611610575b505050811b0160098301556111a7565b015160001960f88460031b161c19169055858080611600565b9091602060018192858b0151815501930191016115e2565b80518051906001600160401b03821161143c576116688261166288546170cc565b88617aac565b602090601f83116001146116b45792826001949360209386956000926116a9575b5050600019600383901b1c191690841b1787555b01940191019092611137565b015190508c80611689565b908660005260206000209160005b601f198516811061170c575083602093600196938796938794601f198116106116f3575b505050811b01875561169d565b015160001960f88460031b161c191690558c80806116e6565b919260206001819286850151815501940192016116c2565b80518051906001600160401b03821161143c576117458261166288546170cc565b602090601f8311600114611791579282600194936020938695600092611786575b5050600019600383901b1c191690841b1787555b01940191019092611104565b015190508c80611766565b908660005260206000209160005b601f19851681106117e9575083602093600196938796938794601f198116106117d0575b505050811b01875561177a565b015160001960f88460031b161c191690558c80806117c3565b9192602060018192868501518155019401920161179f565b80518051906001600160401b03821161143c576118228261166288546170cc565b602090601f831160011461186e579282600194936020938695600092611863575b5050600019600383901b1c191690841b1787555b019401910190926110d2565b015190508c80611843565b908660005260206000209160005b601f19851681106118c6575083602093600196938796938794601f198116106118ad575b505050811b018755611857565b015160001960f88460031b161c191690558c80806118a0565b9192602060018192868501518155019401920161187c565b01519050858061107f565b6003830160005260206000209060005b601f1984168110611940575060019394959683601f19811610611927575b505050811b016003820155611097565b015160001960f88460031b161c19169055858080611917565b9091602060018192858b0151815501930191016118f9565b01519050858061101b565b6002850160005260206000209060005b601f19841681106119ba575060019394959683601f198116106119a1575b505050811b016002840155611033565b015160001960f88460031b161c19169055858080611991565b9091602060018192858b015181550193019101611973565b606460405162461bcd60e51b815260206004820152602060248201527f4552433732313a206d696e7420746f20746865207a65726f20616464726573736044820152fd5b60405162461bcd60e51b815260206004820152602560248201527f53756243617465676f7279204944206d75737420626520677265617465722074604482015264068616e20360dc1b6064820152608490fd5b60405162461bcd60e51b815260206004820152602260248201527f43617465676f7279204944206d7573742062652067726561746572207468616e604482015261020360f41b6064820152608490fd5b606460405162461bcd60e51b815260206004820152602060248201527f4d7573742062652076657269666965642073656c6c6572206f72206f776e65726044820152fd5b506000546001600160a01b03163314610cb8565b634e487b7160e01b600052602160045260246000fd5b346105e25760003660031901126105e2576020600d54604051908152f35b346105e2576020806003193601126105e2576001600160401b036004358181116105e257611b7790369060040161703d565b90611b8061750d565b611b8c825115156184ef565b611b97600b5461847c565b9081600b55604051611ba881616fad565b60008152604051611bb881616f5c565b83815285810185815260408201906001958683526060840194855260005260188852604060002092518355858301905180519086821161143c57611c0682611c0085546170cc565b85617aac565b8990601f8311600114611cf5579180611c4594926003979694600092611cea575b505060001982881b1c191690891b1790555b511515600283016178b7565b019051805192831161143c57600160401b831161143c5785908254848455808510611ccd575b5001906000528460002060005b838110611cbc57600b546040518881527f11c167cc9b439f0ad8bec5588159f1b06b813bc38d50c867a41b23b077be2c1a9080611cb7818c018b616bee565b0390a2005b825182820155918601918401611c78565b611ce4908460005285846000209182019101617a95565b87611c6b565b015190508c80611c27565b889291601f19831691856000528c600020928d6000905b828210611d4f575050916003989795939185611c4598969410611d37575b505050811b019055611c39565b0151600019838a1b60f8161c191690558c8080611d2a565b8385015186558d979095019493840193018e611d0c565b346105e25760003660031901126105e257600b54611d8381617f92565b611d906040519182616fc8565b818152601f19611d9f83617f92565b01366020830137611daf82617f92565b91611dbd6040519384616fc8565b808352611dd9601f19611dcf83617f92565b016020850161869f565b611de281617f92565b92611df06040519485616fc8565b818452601f19611dff83617f92565b01366020860137611e0f82617f92565b90611e1d6040519283616fc8565b828252611e2983617f92565b92611e3c6020840194601f19018561869f565b60015b81811115611f78575050611e5e604051946080865260808601906174d9565b8481036020860152815180825260208201916020808360051b8301019401926000915b838310611f4b57505050505083810360408501526020808651928381520195019060005b818110611f3357505050828403606084015251808452602084019060208160051b86010192916000905b828210611edc5785850386f35b90919293601f19878203018252845190602080835192838152019201906000905b808210611f1b57505050602080600192960192019201909291611ecf565b90919260208060019286518152019401920190611efd565b82511515875260209687019690920191600101611ea5565b9091929394602080611f69600193601f198682030187528951616bee565b97019301930191939290611e81565b806000526018602052604060002090611fcb600360405193611f9985616f5c565b80548552604051611fb1816103ce8160018601617106565b602086015260ff6002820154161515604086015201618650565b60608301528151611fe6575b611fe1915061847c565b611e3f565b8060001981011161142657606082611fe1935161200760001985018b6184db565b52602081015161201b6000198501886184db565b5261202a6000198401876184db565b506040810151151561204060001985018c6184db565b5201516120516000198301876184db565b526120606000198201866184db565b50611fd7565b346105e25760603660031901126105e2576004356001600160401b0381116105e25761209690369060040161703d565b6024356001600160401b0381116105e2576120b590369060040161703d565b906044356001600160401b0381116105e2576120d590369060040161703d565b916120e1331515617a14565b33600052601460205260ff604060002054166124c65761210382511515617a52565b805115612489576040519261211784616f77565b82845260208401918252604084015242606084015260016080840152336000526010602052604060002090835180519060018060401b03821161143c57819061216a8261216487546170cc565b87617aac565b602090601f831160011461241d57600092612412575b50508160011b916000199060031b1c19161782555b5180519093906001600160401b03811161143c576121c3816121ba60018601546170cc565b60018601617aac565b6020601f82116001146123a3578192939495600092612398575b50508160011b916000199060031b1c19161760018301555b6040810151805160028401916001600160401b03821161143c5761221d82611c0085546170cc565b602090601f831160011461232657928260809361226b97969360049660009261231b575b50508160011b916000199060031b1c19161790555b606081015160038501550151151591016178b7565b336000908152601460205260409020805460ff19166001179055600f54600160401b81101561143c576001810180600f5581101561230557600f6000526000805160206193fd8339815191520180546001600160a01b03191633908117909155604051602080825291927f48cac28ad4dc618e15f4c2dd5e97751182f166de97b25618318b2112aa951a2f928291611cb791830190616bee565b634e487b7160e01b600052603260045260246000fd5b015190508980612241565b90601f198316918460005260206000209260005b81811061238057509361226b979693600496936001938360809810612367575b505050811b019055612256565b015160001960f88460031b161c1916905589808061235a565b9293602060018192878601518155019501930161233a565b0151905085806121dd565b6001840160005260206000209060005b601f19841681106123fa575060019394959683601f198116106123e1575b505050811b0160018301556121f5565b015160001960f88460031b161c191690558580806123d1565b9091602060018192858b0151815501930191016123b3565b015190508680612180565b9250846000526020600020906000935b601f198416851061246e576001945083601f19811610612455575b505050811b018255612195565b015160001960f88460031b161c19169055868080612448565b8181015183556020948501946001909301929091019061242d565b60405162461bcd60e51b8152602060048201526015602482015274456d61696c2063616e6e6f7420626520656d70747960581b6044820152606490fd5b60405162461bcd60e51b8152602060048201526017602482015276155cd95c88185b1c9958591e481c9959da5cdd195c9959604a1b6044820152606490fd5b346105e25760403660031901126105e2576024356001600160401b0381116105e257366023820112156105e2576001600160401b036004820135116105e257366024826004013560051b830101116105e257600435600052601860205260ff60026040600020015416156127705760005b8160040135811061258357005b61258e600c5461847c565b80600c556125c06125a783856004013560248701618586565b9190604051926125b684616f5c565b8484523691617006565b91602082019283526004356040830152600160608301526000526019602052604060002091815183555180519060018060401b03821161143c576126148261260b60018701546170cc565b60018701617aac565b602090601f83116001146126f25761268693836126e297969461266c946060946000926126e7575b50508160011b916000199060031b1c19161760018501555b604081015160028501550151151560038093016178b7565b6004356000526018602052604060002001600c54906181d8565b6000805160206193bd833981519152600c546126aa83866004013560248801618586565b9290836040519160208352816020840152604083013760006040858301015260408160043595601f80199101168101030190a361847c565b612576565b015190508a8061263c565b906001850160005260206000209160005b601f198516811061275857509360018461266c94606094612686986126e29b9a98601f1981161061273f575b505050811b016001850155612654565b015160001960f88460031b161c191690558a808061272f565b91926020600181928685015181550194019201612703565b60405162461bcd60e51b815260206004820152601a602482015279506172656e742063617465676f7279206e6f742061637469766560301b6044820152606490fd5b346105e25760203660031901126105e2576004356127ce61750d565b8060005260186020526127e760406000205415156185a1565b80600052601860205260008051602061933d83398151915261282a60406000206002810160ff198154169055604051918291604083526001604084019101617106565b600060208301520390a2005b346105e25760203660031901126105e25761285a6128556004356178c8565b617565565b600060405161286881616fad565b5261035e60405161287881616fad565b60008152604051918291602083526020830190616bee565b346105e25760203660031901126105e2576001600160a01b036128b1616edd565b166000526013602052602060ff604060002054166040519015158152f35b346105e25760403660031901126105e2576128e8616edd565b6001600160a01b03166000908152601660205260409020805460243591908210156105e2576020916129199161738f565b90546040519160031b1c8152f35b346105e2576020806003193601126105e257600435612944617f06565b50806000526015825261296560ff600f6040600020015460101c161561829d565b806000526017825261297e60ff60406000205416618258565b600052601581526040600020906040519161299883616f09565b805483526001808201546001600160a01b0316838501526040516129c3816103ce8160028701617106565b60408501526040516129dc816103ce8160038701617106565b606085015260048201546080850152600582015460a08501526010600692612a058482016183b6565b60c0870152612a16600782016183b6565b60e0870152612a27600882016183b6565b610100870152604051612a41816103ce8160098601617106565b610120870152604051612a5b816103ce81600a8601617106565b610140870152600b810154610160870152604051612a80816103ce81600c8601617106565b610180870152604051612a9a816103ce81600d8601617106565b6101a0870152600e8101546101c087015260ff600f82015481811615156101e0890152818160081c161515610200890152831c1615156102208701520191825490612ae482617f92565b93612af26040519586616fc8565b8285526000908152858120868087015b858410612b24576102408a018890526040518281528061035e8185018d616d2b565b86918591612b318561841b565b8152019201920191908790612b02565b346105e25760203660031901126105e25760206001600160a01b0380612b65616edd565b16600052601e825260406000205416604051908152f35b346105e25760803660031901126105e257612b95616edd565b612b9d616ef3565b606435916001600160401b0383116105e257366023840112156105e257612bd1611399933690602481600401359101617006565b9160443591617658565b346105e2576020806003193601126105e2576001600160a01b039081612bff616edd565b16600052601b81526040600020805490612c1882617f92565b92612c266040519485616fc8565b82845260009182528082208185015b848410612c4a576040518061035e8882617244565b600e83600192604051612c5c81616f25565b85548152848601548382015260028601546040820152600386015460608201528a600487015416608082015260ff600587015460a08d8216818501521c16151560c0820152612cad600687016173c3565b60e0820152815201920193019290612c35565b346105e25760203660031901126105e2576004356000526017602052602060ff604060002054166040519015158152f35b346105e2576020806003193601126105e257612e299061035e612d12616edd565b612d1a617b6d565b5060018060a01b0316918260005260138152612d3d60ff60406000205416617ba4565b826000526011815260406000209260ff600660405195612d5c87616f41565b604051612d6d816103ce8185617106565b8752604051612d83816103ce8160018601617106565b85880152604051612d9b816103ce8160028601617106565b6040880152604051612db4816103ce8160038601617106565b6060880152604051612dcd816103ce8160048601617106565b6080880152600581015460a0880152015416151560c08501526000526012815260ff60406000205416601a825260406000205460168352612e32612e146040600020618650565b92604051978897608089526080890190617302565b94870190617382565b604085015283820360608501526174d9565b346105e25760203660031901126105e257612e5d616edd565b612e6561750d565b6001600160a01b03168015612eb05760406000805160206192fd8339815191529133600052601e602052816000208160018060a01b03198254161790558151903382526020820152a1005b60405162461bcd60e51b8152602060048201526017602482015276496e76616c6964206163636f756e74206164647265737360481b6044820152606490fd5b346105e25760403660031901126105e257612f08616edd565b60243590811515908183036105e2576001600160a01b031691338314612f7957612f4b9033600052600760205260406000208460005260205260406000206178b7565b6040519081527f17307eab39ab6107e8899845ad3d59bd9653f200f220920489ca2b5937696c3160203392a3005b60405162461bcd60e51b815260206004820152601960248201527822a9219b99189d1030b8383937bb32903a379031b0b63632b960391b6044820152606490fd5b346105e25760403660031901126105e257612fd3616edd565b6001600160a01b039081166000908152601b602052604090208054602435908110156105e257610c1a916173a7565b346105e2576020806003193601126105e2576004358060005260159081835260ff600f604060002001549161303d82601094851c161561829d565b80600052601785526130558260406000205416618258565b60009260005b826000528587528160406000200180548210156130ac57600461307f8387936186fa565b5001541615613097575b6130929061847c565b61305b565b936130a46130929161847c565b949050613089565b505084866130b986617f92565b956130c76040519788616fc8565b8087526130d6601f1991617f92565b018160005b82811061317f5750505060009360005b8160005283835284604060002001805482101561316c57600461310f838a936186fa565b5001541615613127575b6131229061847c565b6130eb565b94613164613122918360005285855261314f61314989896040600020016186fa565b5061841b565b613159828c6184db565b52610544818b6184db565b959050613119565b6040518481528061035e8187018c616c8a565b6131876186c9565b82828b0101520182906130db565b346105e25760403660031901126105e2576131ae616edd565b6024359060048210156105e2576131c361750d565b60018060a01b03169081600052602090601382526131e860ff60406000205416617ba4565b801561328e57826000526012825260ff604060002054166004811015611b11578114613249579060008051602061937d833981519152918360005260128252604060002060ff1981541660ff83161790556132466040518092617382565ba2005b60405162461bcd60e51b815260048101839052601e60248201527f53656c6c657220616c72656164792068617320746869732073746174757300006044820152606490fd5b60405162461bcd60e51b815260048101839052601f60248201527f43616e6e6f74207365742073746174757320746f20556e7665726966696564006044820152606490fd5b346105e25760003660031901126105e2576040516000906003546132f6816170cc565b80835260019180831690811561338d5750600114613333575b61035e8361331f81870382616fc8565b604051918291602083526020830190616bee565b6003600090815260209450917fc2575a0e9e593c00f959f8c92f12db2869c3395a3b0502d05e2516446f71f85b5b82841061337a5750505081019091019061331f8161330f565b8054858501870152928501928101613361565b61035e955061331f93506020915091849260ff191682840152151560051b820101935061330f565b346105e25760203660031901126105e2576001600160a01b036133d6616edd565b166000526011602052613486604060002060405190613400826133f98184617106565b0383616fc8565b604051613414816103ce8160018601617106565b6134be60405161342b816103ce8160028801617106565b6134b0604051613442816103ce8160038a01617106565b6134a2604051936134618561345a8160048c01617106565b0386616fc8565b61349460ff600660058b01549a015416976040519b8c9b60e08d5260e08d0190616bee565b908b820360208d0152616bee565b9089820360408b0152616bee565b908782036060890152616bee565b908582036080870152616bee565b9160a0840152151560c08301520390f35b346105e25760203660031901126105e2576004356001600160401b0381116105e2576134ff90369060040161703d565b600854600060015b8281111561377357506135199061848b565b90600160005b82821115613535576040518061035e8682616e7b565b816000526015806020526009906103ce61355b8360406000200160405192838092617106565b60208151910120875160208901201480613755575b613587575b5050906135819061847c565b9061351f565b8360005260205260406000206103ce613645604051936135a685616f09565b8354855260018401546001600160a01b031660208601526040516135d1816103ce8160028901617106565b60408601526040516135ea816103ce8160038901617106565b606086015260048401546080860152600584015460a086015261360f600685016183b6565b60c0860152613620600785016183b6565b60e0860152613631600885016183b6565b610100860152604051928380928601617106565b61012083015260405161365f816103ce81600a8601617106565b610140830152600b810154610160830152604051613684816103ce81600c8601617106565b61018083015260405161369e816103ce81600d8601617106565b6101a0830152600e8101546101c0830152600f8101549060ff80831615156101e0850152808360081c161515610200850152601092831c161515610220840152018054906136eb82617f92565b916136f96040519384616fc8565b808352602083019160005260206000206000925b8284106137375750505050610240820152613581916137309161053982886184db565b9086613575565b600660206001926137478561841b565b81520192019301929061370d565b50836000528060205260ff600f6040600020015460101c1615613570565b806000526015806020526103ce613797600960406000200160405192838092617106565b60208151910120855160208701201490816137d6575b506137c1575b6137bc9061847c565b613507565b906137ce6137bc9161847c565b9190506137b3565b90508160005260205260ff600f6040600020015460101c1615856137ad565b346105e25760003660031901126105e2576000546040516001600160a01b039091168152602090f35b346105e2576003196040368201126105e2576001600160401b03602435116105e2576101a090602435360301126105e2576004356000908152601560205260409020600101546001600160a01b031633036142d857600435600052601760205261388f60ff60406000205416618258565b60043560005260156020526138b260ff600f6040600020015460101c161561829d565b6138c4610cce60046024350180617c5c565b6138d76024803501602435600401617c5c565b905015614295576138ef604460243501351515617c8e565b613900606460243501351515617cd9565b613914608460243501602435600401617e41565b9050156142575761392f60a460243501602435600401617e41565b90501561421a5761394d610d8f60c460243501602435600401617e41565b6139666005610db160c460243501602435600401617e41565b60e46024350135156141da5761010460243501351561419657613997610d3c61014460243501602435600401617c5c565b6139af610d5d61016460243501602435600401617c5c565b6139c161012460243501351515617d24565b6139d361018460243501351515617df8565b6139e260046024350180617c5c565b6004356000908152601560205260409020600201906001600160401b03811161143c57613a1981613a1384546170cc565b84617aac565b600092601f821160011461412d5792819293600092614122575b50508160011b916000199060031b1c19161790555b613a5b6024803501602435600401617c5c565b6004356000908152601560205260409020600301906001600160401b03811161143c57613a8c81613a1384546170cc565b600092601f82116001146140b957928192936000926140ae575b50508160011b916000199060031b1c19161790555b600435600052601560205260406000206044602435013560048201556064602435013560058201556006613af9608460243501602435600401617e41565b9190920191613b088284618061565b60009283526020832090805b838510613fcb57613b2f60a460243501602435600401617e41565b6004356000526015602052600760406000200191613b4d8284618061565b60009283526020832090805b838510613ee857613b7460c460243501602435600401617e41565b6004356000526015602052600860406000200191613b928284618061565b60009283526020832090805b838510613e055760e460243501356000526018602052613bd76001604060002001600435600052601560205260096040600020016182de565b61010460243501356000526019602052613c0a60016040600020016004356000526015602052600a6040600020016182de565b613c1f61014460243501602435600401617c5c565b6004356000908152601560205260409020600c01906001600160401b03811161143c57613c5081613a1384546170cc565b600092601f8211600114613d9c5792819293600092613d91575b50508160011b916000199060031b1c19161790555b613c9461016460243501602435600401617c5c565b6004356000908152601560205260409020600d01906001600160401b03811161143c57613cc581613a1384546170cc565b6000601f8211600114613d2c57819293600092613d21575b50508160011b916000199060031b1c19161790555b600435600052601560205260406000206101246024350135600b820155600e6101846024350135910155600080f35b013590508380613cdd565b601f198216938360005260206000209160005b868110613d795750836001959610613d5f575b505050811b019055613cf2565b0135600019600384901b60f8161c19169055838080613d52565b90926020600181928686013581550194019101613d3f565b013590508380613c6a565b826000526020600020906000945b601f1984168610613ded57600194955083601f19811610613dd3575b505050811b019055613c7f565b0135600019600384901b60f8161c19169055838080613dc6565b91602060018192858501358155019301950194613daa565b613e0f8183617c5c565b906001600160401b03821161143c57613e2c8261216487546170cc565b600090601f8311600114613e78579282600194936020938695600092613e6d575b5050600019600383901b1c191690841b1786555b01930194019391613b9e565b013590508a80613e4d565b8560005260206000209160005b601f1985168110613ed0575083602093600196938796938794601f19811610613eb6575b505050811b018655613e61565b0135600019600384901b60f8161c191690558a8080613ea9565b90926020600181928686013581550194019101613e85565b613ef28183617c5c565b906001600160401b03821161143c57613f0f8261216487546170cc565b600090601f8311600114613f5b579282600194936020938695600092613f50575b5050600019600383901b1c191690841b1786555b01930194019391613b59565b013590508a80613f30565b8560005260206000209160005b601f1985168110613fb3575083602093600196938796938794601f19811610613f99575b505050811b018655613f44565b0135600019600384901b60f8161c191690558a8080613f8c565b90926020600181928686013581550194019101613f68565b613fd58183617c5c565b906001600160401b03821161143c57613ff28261216487546170cc565b600090601f831160011461403e579282600194936020938695600092614033575b5050600019600383901b1c191690841b1786555b01930194019391613b14565b013590508a80614013565b8560005260206000209160005b601f1985168110614096575083602093600196938796938794601f1981161061407c575b505050811b018655614027565b0135600019600384901b60f8161c191690558a808061406f565b9092602060018192868601358155019401910161404b565b013590508380613aa6565b826000526020600020906000945b601f198416861061410a57600194955083601f198116106140f0575b505050811b019055613abb565b0135600019600384901b60f8161c191690558380806140e3565b916020600181928585013581550193019501946140c7565b013590508380613a33565b826000526020600020906000945b601f198416861061417e57600194955083601f19811610614164575b505050811b019055613a48565b0135600019600384901b60f8161c19169055838080614157565b9160206001819285850135815501930195019461413b565b60405162461bcd60e51b815260206004820152601c60248201527b5375622d63617465676f72792063616e6e6f7420626520656d70747960201b6044820152606490fd5b60405162461bcd60e51b815260206004820152601860248201527743617465676f72792063616e6e6f7420626520656d70747960401b6044820152606490fd5b60405162461bcd60e51b815260206004820152601560248201527453697a65732063616e6e6f7420626520656d70747960581b6044820152606490fd5b60405162461bcd60e51b8152602060048201526016602482015275436f6c6f72732063616e6e6f7420626520656d70747960501b6044820152606490fd5b60405162461bcd60e51b815260206004820152601b60248201527a4465736372697074696f6e2063616e6e6f7420626520656d70747960281b6044820152606490fd5b60405162461bcd60e51b815260206004820152602860248201527f4f6e6c79207468652073656c6c65722063616e20757064617465207468656972604482015267081c1c9bd91d58dd60c21b6064820152608490fd5b346105e25760a03660031901126105e2576004356001600160401b0381116105e25761435e90369060040161703d565b60249081356001600160401b0381116105e25761437f90369060040161703d565b6044356001600160401b0381116105e25761439e90369060040161703d565b6064356001600160401b0381116105e2576143bd90369060040161703d565b906084356001600160401b0381116105e2576143dd90369060040161703d565b926143e9331515617a14565b33600052601360205260ff60406000205416614a37578451156149fa5761441282511515617af3565b61441e83511515617b30565b6040519461442b86616f41565b855260208501526040840152606083015260808201524260a0820152600160c0820152336000526011602052604060002090805192835160018060401b0381116149e5576144838161447d86546170cc565b86617aac565b6020601f821160011461497c578192939495600092614971575b50508160011b916000199060031b1c19161783555b602082015180519093906001600160401b03811161495c576144e4816144db60018501546170cc565b60018501617aac565b6020601f82116001146148ed5781929394956000926148e2575b50508160011b916000199060031b1c19161760018201555b604083015180519093906001600160401b0381116148cd576145488161453f60028601546170cc565b60028601617aac565b6020601f821160011461485e578192939495600092614853575b50508160011b916000199060031b1c19161760028301555b6060810151805160038401916001600160401b0382116147cd5781906145a48261447d86546170cc565b602090601f83116001146147ed576000926147e2575b50508160011b916000199060031b1c19161790555b6080810151805160048401916001600160401b0382116147cd576145f782611c0085546170cc565b602090601f831160011461475b57928260c093614645979693600696600092614750575b50508160011b916000199060031b1c19161790555b60a081015160058501550151151591016178b7565b336000526013602052604060002060ff19906001828254161790556012602052600160406000209182541617905561467c336192ae565b156146cb575b6040514281527fa1a1a78ff3033d5ee8393372052aeb2a16bbb347a29f3780370e9506c109e37260203392a26040516001815260008051602061937d83398151915260203392a2005b600e5490600160401b82101561473c576001820180600e558210156147285750600e6000527fbb7b4a454dc3493923482f07822329ed19e8244eff582cc204f8554c3620c3fd0180546001600160a01b0319163317905580614682565b634e487b7160e01b60009081526032600452fd5b634e487b7160e01b60009081526041600452fd5b01519050898061461b565b90601f198316918460005260206000209260005b8181106147b5575093614645979693600696936001938360c0981061479c575b505050811b019055614630565b015160001960f88460031b161c1916905589808061478f565b9293602060018192878601518155019501930161476f565b85634e487b7160e01b60005260416004526000fd5b0151905086806145ba565b6000858152602081209350601f198516905b81811061483b5750908460019594939210614822575b505050811b0190556145cf565b015160001960f88460031b161c19169055868080614815565b929360206001819287860151815501950193016147ff565b015190508580614562565b6002840160005260206000209060005b601f19841681106148b5575060019394959683601f1981161061489c575b505050811b01600283015561457a565b015160001960f88460031b161c1916905585808061488c565b9091602060018192858b01518155019301910161486e565b83634e487b7160e01b60005260416004526000fd5b0151905085806144fe565b6001830160005260206000209060005b601f1984168110614944575060019394959683601f1981161061492b575b505050811b016001820155614516565b015160001960f88460031b161c1916905585808061491b565b9091602060018192858b0151815501930191016148fd565b82634e487b7160e01b60005260416004526000fd5b01519050858061449d565b8460005260206000209060005b601f19841681106149cd575060019394959683601f198116106149b4575b505050811b0183556144b2565b015160001960f88460031b161c191690558580806149a7565b9091602060018192858b015181550193019101614989565b50634e487b7160e01b60009081526041600452fd5b60405162461bcd60e51b81526020600482015260168188015275109d5cda5b995cdcc81b985b59481c995c5d5a5c995960521b6044820152606490fd5b60405162461bcd60e51b815260206004820152601c818801527b20b63932b0b23c903932b3b4b9ba32b932b21030b99039b2b63632b960211b6044820152606490fd5b346105e25760403660031901126105e2576001600160401b036004356024358281116105e257614aae90369060040161703d565b614ab661750d565b816000526020906018825260406000205415614c5357614ad88151151561853b565b614ae3600c5461847c565b80600c5560405190614af482616f5c565b808252838201838152604083019086825260608401926001908185526000526019875260406000209451855580850191518051998a1161143c57614b3c8a611c0085546170cc565b8790601f8b11600114614bd65799808060039694614b92999896946000805160206193bd8339815191529c9d9e600094614bcb575b50501b9160001990871b1c19161790555b51600284015551151591016178b7565b8360005260188352614bae6003604060002001600c54906181d8565b600c5492614bc6604051928284938452830190616bee565b0390a3005b015192508e80614b71565b9990601f1982169a84600052896000209b60005b818110614c3e57509b60039694928492614b929a9997956000805160206193bd8339815191529d9e9f10614c26575b505050811b019055614b82565b015160001983891b60f8161c191690558c8080614c19565b838301518e559c85019c928b01928b01614bea565b60405162461bcd60e51b815260048101839052601e60248201527f506172656e742063617465676f727920646f6573206e6f7420657869737400006044820152606490fd5b346105e25760203660031901126105e257600435600052601560205260406000208054600160a01b600190036001830154169160405180806002840190614cde91617106565b03614ce99082616fc8565b60405180614cfa8160038601617106565b03614d059082616fc8565b600483015460058401549060405180806009880190614d2391617106565b03614d2e9082616fc8565b6040519081614d4081600a8a01617106565b03614d4b9083616fc8565b600b87015492604051948580600c8b0190614d6591617106565b03614d709087616fc8565b6040519687614d8281600d8d01617106565b03614d8d9089616fc8565b600e8a015499600f0154986040519c8d9c8d5260208d01528b6101e06040819201528c01614dba91616bee565b8b810360608d0152614dcb91616bee565b9160808b015260a08a015288810360c08a0152614de791616bee565b87810360e0890152614df891616bee565b90610100870152858103610120870152614e1191616bee565b848103610140860152614e2391616bee565b9161016084015260ff811615156101808401528060081c60ff1615156101a084015260101c60ff1615156101c08301520390f35b346105e25760003660031901126105e257614e7061750d565b600080546001600160a01b0319811682556001600160a01b031660008051602061935d8339815191528280a3005b346105e25760203660031901126105e2576001600160a01b03614ebf616edd565b168015614ede5760005260056020526020604060002054604051908152f35b60405162461bcd60e51b815260206004820152602960248201527f4552433732313a2061646472657373207a65726f206973206e6f7420612076616044820152683634b21037bbb732b960b91b6064820152608490fd5b346105e2576020806003193601126105e257614f4f616edd565b60405190614f5c82616f77565b6000608060609384815284868201528460408201528285820152015260018060a01b031690816000526014835260ff60406000205416916010845260406000209160405191614faa83616f77565b604051614fbb816103ce8188617106565b835260405190614fd2826133f98160018901617106565b86840191825260405191614fed836106308160028a01617106565b6040850192835260ff6004600388015497868801988952015416916080860192151583526000526013885260ff6040600020541692836000146150b0576012895260ff60406000205416955b604051998a9915158a52890160809052516080890160a09052610120890161506091616bee565b9151607f1992838a82030160a08b015261507991616bee565b9051918882030160c089015261508e91616bee565b945160e087015251151561010086015215156040850152830161035e91617382565b600095615039565b346105e25760203660031901126105e257600435600052601960205260406000206040516150e581616f5c565b81548152604051906150fe826133f98160018701617106565b6020810191825260ff6003600285015494604084019586520154169060608101911515825261512f81511515618607565b5191519251905115156151546040519485948552608060208601526080850190616bee565b91604084015260608301520390f35b346105e2576151713661708d565b61517c92919261750d565b816000526020926018845261519760406000205415156185a1565b6151a3815115156184ef565b60008381526018855260409020815194906001908101906001600160401b03871161143c576151d687613a1384546170cc565b82601f881160011461524457968080601895949360008051602061933d833981519152999a600093615239575b501b916000199060031b1c19161790555b856000525261522a8260026040600020016178b7565b611cb7604051928392836185e7565b88015192508b615203565b96601f1981169783600052846000209860005b8181106152a4575098829160189695949360008051602061933d8339815191529a9b1061528b575b5050811b019055615214565b87015160001960f88460031b161c19169055898061527f565b878301518b5599840199918601918601615257565b6003196040368201126105e2576024906001600160401b038235116105e257610100908235360301126105e2576152ee618716565b600435600052601760205261530a60ff60406000205416618258565b600435600052601560205261532d60ff600f6040600020015460101c161561829d565b6004356000526015602052600560406000200154156159a357600435600052601560205260ff600f604060002001541661596257600435600052601560205260018060a01b0360016040600020015416331461592057615391600482350180617c5c565b9050156158e7576153a9818035018235600401617c5c565b9050156158a9576153c260448235018235600401617c5c565b905015615875576153db60648235018235600401617c5c565b905015615840576153f460848235018235600401617c5c565b9050156158095761540d60a48235018235600401617c5c565b9050156157ce5761543261542960c48335018335600401617c5c565b90501515617b30565b61545061544760e48335018335600401617c5c565b90501515617af3565b600435600052601560205260046040600020015490813410615795576004356000526015602052600560406000200180548015615780576000190190556004356000526015602052604060002060058101541561576c575b600101546040516001600160a01b0390911691906154c581616f25565b6004823501356001600160401b0381116105e2576154ea90600436918535010161703d565b81526001600160401b038235830135116105e257615511368335808501350160040161703d565b60208201528135604401356001600160401b0381116105e25761553b90600436918535010161703d565b60408201528135606401356001600160401b0381116105e25761556590600436918535010161703d565b60608201528135608401356001600160401b0381116105e25761558f90600436918535010161703d565b6080820152813560a401356001600160401b0381116105e2576155b990600436918535010161703d565b60a0820152813560c401356001600160401b0381116105e2576155e390600436918535010161703d565b60c0820152813560e40135906001600160401b0382116105e25761561161567c92600436918635010161703d565b60e08201526040519061562382616f25565b60043582528560208301528560408301524260608301523360808301528460a0830152600060c083015260e082015233600052601b60205261566981604060002061876c565b83600052601c602052604060002061876c565b81600052601a602052604060002080549184830180931161575857505560405182815282602082015242604082015233907f45280c7ac9cec77edd454e39e1641a3e22619146cf074a4239beee86a7c07edc606060043592a46001600954016009556156e881346186bc565b80615748575b50600435600052601560205260018060a01b03600160406000200154169060405190815242602082015233907fbe6177108f4df43c5d7be79cb219c969fc97915bbdb4b56d14d391dcdcc16060604060043592a460018055005b6157529033619248565b816156ee565b634e487b7160e01b60009081526011600452fd5b600f8101805460ff191660011790556154a8565b82634e487b7160e01b60005260116004526000fd5b60649060126040519162461bcd60e51b83526020600484015282015271496e73756666696369656e742066756e647360701b6044820152fd5b60649060146040519162461bcd60e51b83526020600484015282015273141bdcdd185b0818dbd919481c995c5d5a5c995960621b6044820152fd5b60649060106040519162461bcd60e51b8352602060048401528201526f10dbdd5b9d1c9e481c995c5d5a5c995960821b6044820152fd5b606490600e6040519162461bcd60e51b8352602060048401528201526d14dd185d19481c995c5d5a5c995960921b6044820152fd5b606490600d6040519162461bcd60e51b8352602060048401528201526c10da5d1e481c995c5d5a5c9959609a1b6044820152fd5b60649060176040519162461bcd60e51b8352602060048401528201527614dd1c99595d081859191c995cdcc81c995c5d5a5c9959604a1b6044820152fd5b60649060126040519162461bcd60e51b83526020600484015282015271119d5b1b081b985b59481c995c5d5a5c995960721b6044820152fd5b606490601b6040519162461bcd60e51b8352602060048401528201527a10d85b9b9bdd08189d5e481e5bdd5c881bdddb881c1c9bd91d58dd602a1b6044820152fd5b606490601a6040519162461bcd60e51b83526020600484015282015279141c9bd91d58dd081a5cc8185b1c9958591e481cdbdb191bdd5d60321b6044820152fd5b60649060176040519162461bcd60e51b8352602060048401528201527650726f64756374206973206f7574206f662073746f636b60481b6044820152fd5b346105e25760203660031901126105e25760206159ff6004356175ac565b6040516001600160a01b039091168152f35b346105e25760203660031901126105e2576001600160a01b03615a32616edd565b16600052601a6020526020604060002054604051908152f35b346105e25760203660031901126105e257600435615a6761750d565b60648111615a7457600d55005b60405162461bcd60e51b8152602060048201526012602482015271496e76616c69642070657263656e7461676560701b6044820152606490fd5b346105e25760003660031901126105e25760405180600e5480835260208093018091600e600052846000209060005b86828210615b3c578686615af382880383616fc8565b604051928392818401908285525180915260408401929160005b828110615b1c57505050500390f35b83516001600160a01b031685528695509381019392810192600101615b0d565b83546001600160a01b031685529093019260019283019201615add565b346105e25760203660031901126105e257600435600f548110156105e257600f6000526000805160206193fd83398151915201546040516001600160a01b039091168152602090f35b346105e25760203660031901126105e2576001600160a01b03615bc3616edd565b166000526012602052602060ff604060002054166108c06040518092617382565b346105e2576020806003193601126105e257615bfe616edd565b615c06617b6d565b506001600160a01b03166000818152601383526040902054615c2a9060ff16617ba4565b6000526011815260406000209060ff600660405193615c4885616f41565b604051615c59816103ce8185617106565b8552604051615c6f816103ce8160018601617106565b84860152604051615c87816103ce8160028601617106565b6040860152604051615ca0816103ce8160038601617106565b6060860152604051615cb9816103ce8160048601617106565b6080860152600581015460a0860152015416151560c083015261035e604051928284938452830190617302565b346105e257611399615cf736617058565b9060405192615d0584616fad565b60008452617658565b346105e25760003660031901126105e257615d27618716565b3360005260206013815260ff6040600020541615615e0e5733600052601a8152604060002054908115615dd157600d54808302908382040361142657615dcb92615d786064615dc5930480926186bc565b9233600052601a8152600060408120557f8ad64a0ac7700dd8425ab0499f107cb6e2cd1581d803c5b8c1c79dcb8190b1af60405191600083523392a26000546001600160a01b0316619248565b33619248565b60018055005b6064906040519062461bcd60e51b8252600482015260166024820152754e6f2062616c616e636520746f20776974686472617760501b6044820152fd5b6064906040519062461bcd60e51b82526004820152601b60248201527a26bab9ba1031329030903932b3b4b9ba32b932b21039b2b63632b960291b6044820152fd5b346105e2576020806003193601126105e2576001600160a01b039081615e74616edd565b16600052601c81526040600020805490615e8d82617f92565b92615e9b6040519485616fc8565b82845260009182528082208185015b848410615ebf576040518061035e8882617244565b600e83600192604051615ed181616f25565b85548152848601548382015260028601546040820152600386015460608201528a600487015416608082015260ff600587015460a08d8216818501521c16151560c0820152615f22600687016173c3565b60e0820152815201920193019290615eaa565b346105e25760203660031901126105e2576001600160a01b03615f56616edd565b166000526010602052615fc9604060002060405190615f79826133f98184617106565b604051615f8d816103ce8160018601617106565b615fe5604051615fa4816103ce8160028801617106565b615fd760ff60046003870154960154169360405197889760a0895260a0890190616bee565b908782036020890152616bee565b908582036040870152616bee565b916060840152151560808301520390f35b346105e2576160043661708d565b61600f92919261750d565b816000526020926019845261602a6040600020541515618607565b6160368151151561853b565b60008381526019855260409020815194906001908101906001600160401b03871161143c5761606987613a1384546170cc565b82601f88116001146160c85796808060199594936000805160206193dd833981519152999a6000936160bd575b501b916000199060031b1c19161790555b856000525261522a8260036040600020016178b7565b88015192508b616096565b96601f1981169783600052846000209860005b81811061612857509882916019969594936000805160206193dd8339815191529a9b1061610f575b5050811b0190556160a7565b87015160001960f88460031b161c191690558980616103565b878301518b55998401999186019186016160db565b346105e25760403660031901126105e257602480356004356000805b826000526015602090808252601091826040600020018054851015616353576161838589926186fa565b50541461619b575050506161969061847c565b616159565b919350919394600052601d815260ff9485604060002054161561631957806000528282526161cf85856040600020016186fa565b50600190810154909690336001600160a01b039182161490811561630b575b50156162b65781600052838352600461620d87876040600020016186fa565b50015416616279579161622e939160049593600052526040600020016186fa565b5001805460ff1916821790555b1561624257005b60649060106040519162461bcd60e51b8352602060048401528201526f14995d9a595dc81b9bdd08199bdd5b9960821b6044820152fd5b60405162461bcd60e51b8152600481018390526016818901527514995d9a595dc8185b1c9958591e4819195b195d195960521b6044820152606490fd5b60405162461bcd60e51b8152600481018490526028818a01527f4f6e6c79207265766965776572206f72206f776e65722063616e2064656c6574604482015267652072657669657760c01b6064820152608490fd5b6000541633149050896161ee565b50606491866040519262461bcd60e51b845260048401528201527414995d9a595dc8191bd95cc81b9bdd08195e1a5cdd605a1b6044820152fd5b505050505091505061623b565b346105e25761139961637136617058565b9161638461637f84336176f3565b6175f6565b6177bb565b346105e25760203660031901126105e2576004356163a561750d565b8060005260196020526163be6040600020541515618607565b8060005260196020526000805160206193dd83398151915261282a60406000206003810160ff198154169055604051918291604083526001604084019101617106565b346105e25760603660031901126105e257602480356004356044356001600160401b0381116105e25761643890369060040161703d565b90806000526020916015835260018060a01b036001604060002001541633146165915783151580616586575b15616542578051156165045790601592916001600a54019081600a556164886186c9565b958287523385880152604087015260608601524260a0860152600052601d82526040600020600160ff198254161790556000525260106040600020018054600160401b8110156148cd576164e1916001820181556186fa565b6164ef5761139992506180aa565b82634e487b7160e01b60005260006004526000fd5b60405162461bcd60e51b81526004810184905260178187015276436f6d6d656e742063616e6e6f7420626520656d70747960481b6044820152606490fd5b60405162461bcd60e51b815260048101849052601e818701527f526174696e67206d757374206265206265747765656e203120616e64203500006044820152606490fd5b506005841115616464565b60405162461bcd60e51b8152600481018490526026818701527f53656c6c65722063616e6e6f7420726576696577207468656972206f776e20706044820152651c9bd91d58dd60d21b6064820152608490fd5b346105e25760003660031901126105e2576165fd61750d565b33600052601e602052604060002060018060a01b031981541690556000805160206192fd8339815191526040805133815260006020820152a1005b346105e25760403660031901126105e257611399616654616ef3565b600435618ea2565b346105e25760203660031901126105e2576001600160a01b0361667d616edd565b166000526014602052602060ff604060002054166040519015158152f35b346105e25760403660031901126105e2576166b4616edd565b602435906001600160a01b0380806166cb856175ac565b169216918083146167c6578033149081156167a1575b501561673657600083815260066020526040902080546001600160a01b0319168317905561670e836175ac565b167f8c5be1e5ebec7d5bd14f71427d1e84f3dd0314c0f7b2291e5b200ac8c7c3b925600080a4005b60405162461bcd60e51b815260206004820152603d60248201527f4552433732313a20617070726f76652063616c6c6572206973206e6f7420746f60448201527f6b656e206f776e6572206f7220617070726f76656420666f7220616c6c0000006064820152608490fd5b9050600052600760205260406000203360005260205260ff60406000205416846166e1565b60405162461bcd60e51b815260206004820152602160248201527f4552433732313a20617070726f76616c20746f2063757272656e74206f776e656044820152603960f91b6064820152608490fd5b346105e25760203660031901126105e25760206159ff6004356175cf565b346105e25760003660031901126105e257604051600090600254616856816170cc565b80835260019180831690811561338d575060011461687e5761035e8361331f81870382616fc8565b6002600090815260209450917f405787fa12a823e0f2b7631cc41b3ba8828b3321ca811111fa75cd3aa3bb5ace5b8284106168c55750505081019091019061331f8161330f565b80548585018701529285019281016168ac565b346105e25760003660031901126105e25760088054600060015b82811115616b1257506169049061848b565b9060009260015b82811115616921576040518061035e8682616e7b565b80600052602060158152604060002090600f82015460ff926010908483831c16158061695c575b5050505050506169579061847c565b61690b565b60409a969a519561696c87616f09565b8254875260018301546001600160a01b031686880152604051616996816103ce8160028801617106565b60408801526040516169af816103ce8160038801617106565b606088015260048301546080880152600583015460a08801526006946169d68685016183b6565b60c08901526169e7600785016183b6565b60e08901526169f78a85016183b6565b610100890152604051616a11816103ce8160098901617106565b610120890152604051616a2b816103ce81600a8901617106565b610140890152600b840154610160890152604051616a50816103ce81600c8901617106565b610180890152604051616a6a816103ce81600d8901617106565b6101a0890152600e8401546101c089015281811615156101e0890152891c161515610200870152156102208601520190815491616aa683617f92565b93616ab46040519586616fc8565b8385526000918252808220918186015b858210616af657505050505050918161695793610240616aea94015261053982886184db565b94908680808080616948565b8483600192616b048761841b565b815201940191019092616ac4565b80600052601560205260ff600f6040600020015460101c1615616b3e575b616b399061847c565b6168f2565b90616b4b616b399161847c565b919050616b30565b346105e25760203660031901126105e25760043563ffffffff60e01b81168091036105e2576020906380ac58cd60e01b8114908115616bb0575b8115616b9f575b506040519015158152f35b6301ffc9a760e01b14905082616b94565b635b5e139f60e01b81149150616b8d565b346105e25760203660031901126105e257602090600435600052601d825260ff6040600020541615158152f35b919082519283825260005b848110616c1a575050826000602080949584010152601f8019910116010190565b602081830181015184830182015201616bf9565b908082519081815260208091019281808460051b8301019501936000915b848310616c5c5750505050505090565b9091929394958480616c7a600193601f198682030187528a51616bee565b9801930193019194939290616c4c565b908082519081815260208091019281808460051b8301019501936000915b848310616cb85750505050505090565b9091929394958480600192601f1985820301865289519081518152848060a01b0383830151168382015260408083015190820152616d056060808401519060c08091850152830190616bee565b9160808082015115159083015260a0809101519101529801930193019194939290616ca8565b90616e78918051825260018060a01b036020820151166020830152616e32616e1e616dff616deb616dd7616dc3616db1616d8b616d7960408a015160408c61026091829101528c0190616bee565b60608a01518b820360608d0152616bee565b608089015160808b015260a089015160a08b015260c08901518a820360c08c0152616c2e565b60e088015189820360e08b0152616c2e565b6101008088015190898303908a0152616c2e565b610120808701519088830390890152616bee565b610140808601519087830390880152616bee565b6101608085015190860152610180808501519086830390870152616bee565b6101a0808401519085830390860152616bee565b916101c080830151908201526101e08083015115159082015261020080830151151590820152610220808301511515908201526102408092015191818403910152616c8a565b90565b602080820190808352835180925260408301928160408460051b8301019501936000915b848310616eaf5750505050505090565b9091929394958480616ecd600193603f198682030187528a51616d2b565b9801930193019194939290616e9f565b600435906001600160a01b03821682036105e257565b602435906001600160a01b03821682036105e257565b61026081019081106001600160401b0382111761143c57604052565b61010081019081106001600160401b0382111761143c57604052565b60e081019081106001600160401b0382111761143c57604052565b608081019081106001600160401b0382111761143c57604052565b60a081019081106001600160401b0382111761143c57604052565b60c081019081106001600160401b0382111761143c57604052565b602081019081106001600160401b0382111761143c57604052565b601f909101601f19168101906001600160401b0382119082101761143c57604052565b6001600160401b03811161143c57601f01601f191660200190565b92919261701282616feb565b916170206040519384616fc8565b8294818452818301116105e2578281602093846000960137010152565b9080601f830112156105e257816020616e7893359101617006565b60609060031901126105e2576001600160a01b039060043582811681036105e2579160243590811681036105e2579060443590565b9060606003198301126105e25760043591602435906001600160401b0382116105e2576170bc9160040161703d565b9060443580151581036105e25790565b90600182811c921680156170fc575b60208310146170e657565b634e487b7160e01b600052602260045260246000fd5b91607f16916170db565b9060009291805491617117836170cc565b9182825260019384811690816000146171795750600114617139575b50505050565b90919394506000526020928360002092846000945b838610617165575050505001019038808080617133565b80548587018301529401938590820161714e565b9294505050602093945060ff191683830152151560051b01019038808080617133565b616e789160e061723361722161720f6171fd6171eb6171d96171c78951610100808b528a0190616bee565b60208a015189820360208b0152616bee565b604089015188820360408a0152616bee565b60608801518782036060890152616bee565b60808701518682036080880152616bee565b60a086015185820360a0870152616bee565b60c085015184820360c0860152616bee565b9201519060e0818403910152616bee565b602080820190808352835180925260409283810182858560051b8401019601946000925b858410617279575050505050505090565b9091929394959685806172f1600193603f198682030188528b51805182528381015184830152878101518883015260608082015190830152858060a01b0360808181840151169084015260a09081830151169083015260c08082015115159083015260e080910151916101008092820152019061719c565b990194019401929594939190617268565b9060c08061736d61735b617349617337617325885160e0895260e0890190616bee565b602089015188820360208a0152616bee565b60408801518782036040890152616bee565b60608701518682036060880152616bee565b60808601518582036080870152616bee565b9360a081015160a08501520151151591015290565b906004821015611b115752565b80548210156123055760005260206000200190600090565b805482101561230557600052600e602060002091020190600090565b90600760e060409361748b8551916173da83616f25565b610630839780516173ef816103ce8187617106565b85528051617404816103ce8160018801617106565b6020860152805161741c816103ce8160028801617106565b818601528051617433816103ce8160038801617106565b6060860152805161744b816103ce8160048801617106565b60808601528051617463816103ce8160058801617106565b60a0860152805161747b816103ce8160068801617106565b60c0860152518096819301617106565b0152565b95929091616e789897959492875260208701526040860152606085015260018060a01b0380921660808501521660a0830152151560c0820152610100908160e0820152019061719c565b90815180825260208080930193019160005b8281106174f9575050505090565b8351855293810193928101926001016174eb565b6000546001600160a01b0316330361752157565b606460405162461bcd60e51b815260206004820152602060248201527f4f776e61626c653a2063616c6c6572206973206e6f7420746865206f776e65726044820152fd5b1561756c57565b60405162461bcd60e51b8152602060048201526018602482015277115490cdcc8c4e881a5b9d985b1a59081d1bdad95b88125160421b6044820152606490fd5b6000908152600460205260409020546001600160a01b0316616e78811515617565565b6175db612855826178c8565b6000908152600660205260409020546001600160a01b031690565b156175fd57565b60405162461bcd60e51b815260206004820152602d60248201527f4552433732313a2063616c6c6572206973206e6f7420746f6b656e206f776e6560448201526c1c881bdc88185c1c1c9bdd9959609a1b6064820152608490fd5b9061767c93929161766c61637f84336176f3565b6176778383836177bb565b617915565b1561768357565b60405162461bcd60e51b81528061769c600482016176a0565b0390fd5b60809060208152603260208201527f4552433732313a207472616e7366657220746f206e6f6e20455243373231526560408201527131b2b4bb32b91034b6b83632b6b2b73a32b960711b60608201520190565b906001600160a01b038080617707846175ac565b1693169183831493841561773a575b508315617724575b50505090565b617730919293506175cf565b161438808061771e565b909350600052600760205260406000208260005260205260ff604060002054169238617716565b1561776857565b60405162461bcd60e51b815260206004820152602560248201527f4552433732313a207472616e736665722066726f6d20696e636f72726563742060448201526437bbb732b960d91b6064820152608490fd5b906177e3916177c9846175ac565b6001600160a01b0393918416928492909183168414617761565b169182156178665781617800916177f9866175ac565b1614617761565b60008051602061939d833981519152600084815260066020526040812060018060a01b03199081815416905583825260056020526040822060001981540190558482526040822060018154019055858252600460205284604083209182541617905580a4565b60405162461bcd60e51b8152602060048201526024808201527f4552433732313a207472616e7366657220746f20746865207a65726f206164646044820152637265737360e01b6064820152608490fd5b9060ff801983541691151516179055565b6000908152600460205260409020546001600160a01b0316151590565b3d15617910573d906178f682616feb565b916179046040519384616fc8565b82523d6000602084013e565b606090565b91926000929190813b15617a0a5760209161796b9185604051958680958194630a85bd0160e11b9b8c845233600485015260018060a01b0380951660248501526044840152608060648401526084830190616bee565b0393165af1908290826179bb575b50506179ad576179876178e5565b805190816179a85760405162461bcd60e51b81528061769c600482016176a0565b602001fd5b6001600160e01b0319161490565b909192506020813d8211617a02575b816179d760209383616fc8565b810103126179fe5751906001600160e01b0319821682036179fb5750903880617979565b80fd5b5080fd5b3d91506179ca565b5050505050600190565b15617a1b57565b60405162461bcd60e51b815260206004820152600f60248201526e496e76616c6964206164647265737360881b6044820152606490fd5b15617a5957565b60405162461bcd60e51b81526020600482015260146024820152734e616d652063616e6e6f7420626520656d70747960601b6044820152606490fd5b818110617aa0575050565b60008155600101617a95565b9190601f8111617abb57505050565b617ae7926000526020600020906020601f840160051c83019310617ae9575b601f0160051c0190617a95565b565b9091508190617ada565b15617afa57565b60405162461bcd60e51b815260206004820152600e60248201526d115b585a5b081c995c5d5a5c995960921b6044820152606490fd5b15617b3757565b60405162461bcd60e51b815260206004820152600e60248201526d141a1bdb99481c995c5d5a5c995960921b6044820152606490fd5b60405190617b7a82616f41565b600060c0836060808252806020830152806040830152808083015260808201528260a08201520152565b15617bab57565b60405162461bcd60e51b815260206004820152601560248201527414d95b1b195c881b9bdd081c9959da5cdd195c9959605a1b6044820152606490fd5b6001600160a01b03908116908115617c1e57600054168114617c1857600052601260205260ff6040600020541690565b50600290565b60405162461bcd60e51b8152602060048201526016602482015275496e76616c69642073656c6c6572206164647265737360501b6044820152606490fd5b903590601e19813603018212156105e257018035906001600160401b0382116105e2576020019181360383136105e257565b15617c9557565b60405162461bcd60e51b815260206004820152601c60248201527b05072696365206d7573742062652067726561746572207468616e20360241b6044820152606490fd5b15617ce057565b60405162461bcd60e51b815260206004820152601c60248201527b053746f636b206d7573742062652067726561746572207468616e20360241b6044820152606490fd5b15617d2b57565b60405162461bcd60e51b815260206004820152601d60248201527f576569676874206d7573742062652067726561746572207468616e20300000006044820152606490fd5b15617d7757565b60405162461bcd60e51b81526020600482015260156024820152744d6f64656c2063616e6e6f7420626520656d70747960581b6044820152606490fd5b15617dbb57565b60405162461bcd60e51b81526020600482015260156024820152744272616e642063616e6e6f7420626520656d70747960581b6044820152606490fd5b15617dff57565b60405162461bcd60e51b815260206004820152601a6024820152790534b55206d7573742062652067726561746572207468616e20360341b6044820152606490fd5b903590601e19813603018212156105e257018035906001600160401b0382116105e257602001918160051b360383136105e257565b15617e7d57565b60405162461bcd60e51b8152602060048201526016602482015275496d616765732063616e6e6f7420626520656d70747960501b6044820152606490fd5b15617ec257565b60405162461bcd60e51b815260206004820152601c60248201527b496d616765732063616e6e6f74206265206d6f7265207468616e203560201b6044820152606490fd5b60405190617f1382616f09565b8161024060009182815282602082015260609283604083015283808301528060808301528060a08301528360c08301528360e08301528361010083015283610120830152836101408301528061016083015283610180830152836101a0830152806101c0830152806101e0830152806102008301526102208201520152565b6001600160401b03811161143c5760051b60200190565b92919092617fb684617f92565b91617fc46040519384616fc8565b829480845260208094019060051b8301928284116105e25780915b848310617fee57505050505050565b82356001600160401b0381116105e257869161800d868493860161703d565b815201920191617fdf565b61802281546170cc565b908161802c575050565b81601f6000931160011461803e575055565b90808391825261805d601f60208420940160051c840160018501617a95565b5555565b90600160401b811161143c5781549181815582821061807f57505050565b600052602060002091820191015b818110618098575050565b806180a4600192618018565b0161808d565b81518155602080830151600180840180546001600160a01b0319166001600160a01b03939093169290921790915560408401516002840155606084015180519394909390926003860192906001600160401b03831161143c576181118361447d86546170cc565b80601f841160011461816957509180809260a096959460059860009461815e575b50501b916000199060031b1c19161790555b61815760808201511515600486016178b7565b0151910155565b015192503880618132565b91939495601f1984168660005283600020936000905b8282106181c1575050916005979593918560a0989694106181a8575b505050811b019055618144565b015160001960f88460031b161c1916905538808061819b565b80888697829497870151815501960194019061817f565b8054600160401b81101561143c576181f59160018201815561738f565b819291549060031b91821b91600019901b1916179055565b1561821457565b60405162461bcd60e51b815260206004820152601c60248201527b115490cdcc8c4e881d1bdad95b88185b1c9958591e481b5a5b9d195960221b6044820152606490fd5b1561825f57565b60405162461bcd60e51b8152602060048201526016602482015275141c9bd91d58dd08191bd95cc81b9bdd08195e1a5cdd60521b6044820152606490fd5b156182a457565b60405162461bcd60e51b8152602060048201526012602482015271141c9bd91d58dd081a5cc819195b195d195960721b6044820152606490fd5b908082146183b2576182f081546170cc565b906001600160401b03821161143c57819061830f8261447d86546170cc565b600090601f83116001146183465760009261833b575b50508160011b916000199060031b1c1916179055565b015490503880618325565b81526020808220858352818320935090601f1985169083905b828210618399575050908460019594939210618380575b505050811b019055565b015460001960f88460031b161c19169055388080618376565b849581929585015481556001809101960194019061835f565b5050565b9081546183c281617f92565b926040936183d285519182616fc8565b828152809460208092019260005281600020906000935b8585106183f857505050505050565b6001848192845161840d816103ce818a617106565b8152019301940193916183e9565b9060405161842881616f92565b60a06005829480548452600180841b03600182015416602085015260028101546040850152604051618461816103ce8160038601617106565b606085015260ff600482015416151560808501520154910152565b60001981146114265760010190565b9061849582617f92565b6184a26040519182616fc8565b82815280926184b3601f1991617f92565b019060005b8281106184c457505050565b6020906184cf617f06565b828285010152016184b8565b80518210156123055760209160051b010190565b156184f657565b60405162461bcd60e51b815260206004820152601d60248201527f43617465676f7279206e616d652063616e6e6f7420626520656d7074790000006044820152606490fd5b1561854257565b606460405162461bcd60e51b815260206004820152602060248201527f53756263617465676f7279206e616d652063616e6e6f7420626520656d7074796044820152fd5b908210156123055761859d9160051b810190617c5c565b9091565b156185a857565b60405162461bcd60e51b815260206004820152601760248201527610d85d1959dbdc9e48191bd95cc81b9bdd08195e1a5cdd604a1b6044820152606490fd5b906185ff602091949394604084526040840190616bee565b931515910152565b1561860e57565b60405162461bcd60e51b815260206004820152601a60248201527914dd5898d85d1959dbdc9e48191bd95cc81b9bdd08195e1a5cdd60321b6044820152606490fd5b9060405191828154918282526020928383019160005283600020936000905b82821061868557505050617ae792500383616fc8565b85548452600195860195889550938101939091019061866f565b60005b8281106186ae57505050565b6060828201526020016186a2565b9190820391821161142657565b604051906186d682616f92565b600060a0838281528260208201528260408201526060808201528260808201520152565b8054821015612305576000526006602060002091020190600090565b600260015414618727576002600155565b60405162461bcd60e51b815260206004820152601f60248201527f5265656e7472616e637947756172643a207265656e7472616e742063616c6c006044820152606490fd5b8054600160401b81101561143c5761878b9060019283820181556173a7565b929092618e325780518355602080820151838501556040820151600285015560608201516003808601919091556080830151600480870180546001600160a01b0319166001600160a01b0393841617905560a08086015160058901805460c08901516001600160a81b0319909116929095169190911793151590911b60ff60a01b169290921790915560e0909301518051805191966001600160401b039593949193926006820190878111618e1d5761884881613a1384546170cc565b8084601f97888311600114618dbb57600092618db0575b505060001982891b1c191690891b1790555b6007810182890151805190888211618b7a5781906188938261447d86546170cc565b8590888311600114618d4e57600092618d43575b505060001982891b1c191690891b1790555b600881016040890151805190888211618b7a5781906188dc8261447d86546170cc565b8590888311600114618ce157600092618cd6575b505060001982891b1c191690891b1790555b600981016060890151805190888211618b7a5781906189258261447d86546170cc565b8590888311600114618c7457600092618c69575b505060001982891b1c191690891b1790555b600a81016080890151805190888211618b7a57819061896e8261447d86546170cc565b8590888311600114618c0757600092618bfc575b505060001982891b1c191690891b1790555b600b810160a0890151805190888211618b7a5781906189b78261447d86546170cc565b8590888311600114618b9a57600092618b8f575b505060001982891b1c191690891b1790555b600c810160c0890151805190888211618b7a576189fe82611c0085546170cc565b8490878311600114618b0d579180600d949260e09694600092618b02575b5050600019828b1b1c1916908b1b1790555b01970151918251958611618aed5750618a5185618a4b89546170cc565b89617aac565b80928511600114618a875750938394918492600095618a7c575b50501b92600019911b1c1916179055565b015193503880618a6b565b92919084601f1981168860005285600020956000905b89838310618ad35750505010618ab9575b50505050811b019055565b01519060f884600019921b161c1916905538808080618aae565b858701518955909701969485019488935090810190618a9d565b604190634e487b7160e01b6000525260246000fd5b015190503880618a1c565b8a9291601f1983169185600052876000209260005b89828210618b645750509160e09795939185600d98969410618b4c575b505050811b019055618a2e565b0151600019838d1b60f8161c19169055388080618b3f565b8385015186558f97909501949384019301618b22565b604186634e487b7160e01b6000525260246000fd5b0151905038806189cb565b908b9350601f1983169185600052876000209260005b89828210618be65750508411618bce575b505050811b0190556189dd565b0151600019838b1b60f8161c19169055388080618bc1565b8385015186558f97909501949384019301618bb0565b015190503880618982565b908b9350601f1983169185600052876000209260005b89828210618c535750508411618c3b575b505050811b019055618994565b0151600019838b1b60f8161c19169055388080618c2e565b8385015186558f97909501949384019301618c1d565b015190503880618939565b908b9350601f1983169185600052876000209260005b89828210618cc05750508411618ca8575b505050811b01905561894b565b0151600019838b1b60f8161c19169055388080618c9b565b8385015186558f97909501949384019301618c8a565b0151905038806188f0565b908b9350601f1983169185600052876000209260005b89828210618d2d5750508411618d15575b505050811b019055618902565b0151600019838b1b60f8161c19169055388080618d08565b8385015186558f97909501949384019301618cf7565b0151905038806188a7565b908b9350601f1983169185600052876000209260005b89828210618d9a5750508411618d82575b505050811b0190556188b9565b0151600019838b1b60f8161c19169055388080618d75565b8385015186558f97909501949384019301618d64565b01519050388061885f565b908b9350601f1983169185600052876000209260005b89828210618e075750508411618def575b505050811b019055618871565b0151600019838b1b60f8161c19169055388080618de2565b8385015186558f97909501949384019301618dd1565b604185634e487b7160e01b6000525260246000fd5b634e487b7160e01b600052600060045260246000fd5b15618e4f57565b60405162461bcd60e51b815260206004820152602560248201527f4f6e6c792076657269666965642073656c6c6572206f72206f776e657220616c6044820152641b1bddd95960da1b6064820152608490fd5b6000805490939291906001600160a01b039081163314618f8557338552601e60205260408520548116908115618f2f57818652601260205260ff6040872054166004811015618f1b5791617ae79596916002618f099414928315618f0e575b505050618e48565b618f8d565b5416149050388080618f01565b634e487b7160e01b87526021600452602487fd5b9050601260205260ff6040862054166004811015618f715794618f09916002617ae7969714918215618f63575b5050618e48565b909150541633143880618f5c565b634e487b7160e01b86526021600452602486fd5b50617ae79293505b600091825b60018060a01b0380831680600052601b602081815260409283600020805487101561923a57618fc2878a926173a7565b505414618fdc575050505050618fd79061847c565b618f92565b809192939496979850600052828252618ff885856000206173a7565b509560ff60058098015460a01c166191fa5781600052838352808761902088886000206173a7565b5001541633149081156191ec575b5015619195579061904894939291600052526000206173a7565b5001805460ff60a01b1916600160a01b17905560015b1561915b57816000526020916015835260018060a01b039260019384936040828682600020015416866000905b6190ad575b505060008051602061931d833981519152949550519586521693a3565b81600052601c808752836000208054831015619154576190ce838a926173a7565b5054148061912f575b6190eb57506190e59061847c565b8761908b565b60008051602061931d83398151915297985090619113916005936000528752836000206173a7565b5001805460ff60a01b1916600160a01b17905586959438619090565b508260005280875285600461914784876000206173a7565b50015416868616146190d7565b5050619090565b60405162461bcd60e51b8152602060048201526012602482015271141d5c98da185cd9481b9bdd08199bdd5b9960721b6044820152606490fd5b835162461bcd60e51b815260048101839052602a60248201527f4f6e6c792073656c6c6572206f72206f776e65722063616e206d61726b2061736044820152690819195b1a5d995c995960b21b6064820152608490fd5b60005416331490503861902e565b6064838587519162461bcd60e51b8352600483015260248201527a105b1c9958591e481b585c9ad95908185cc819195b1a5d995c9959602a1b6044820152fd5b50505050505050909161905e565b6000918291829182916001600160a01b0316619265811515617a14565b5af161926f6178e5565b501561927757565b60405162461bcd60e51b815260206004820152600f60248201526e151c985b9cd9995c8819985a5b1959608a1b6044820152606490fd5b600090600e8054925b8381106192c75750505050600090565b6000828152602090208101546001600160a01b038481169116146192f3576192ee9061847c565b6192b7565b5050505060019056fe32b449308c94e824ccedd9877932cd82f89a481c06c4643a0cb2914454a8c582f9dc8543b583e01f592678422369b2777e3649761f5808ae432cb1c24ca9438c79d3150b1760cd391f5006c9543aea088e4c9060f3e582ea0a948dc6649b25da8be0079c531659141344cd1fd0a4f28419497f9722a3daafe3b4186f6b6457e0d8f7bcb2c5cffc294a0aaef719685993d7be95273fb8254803a1563510ccefedddf252ad1be2c89b69c2b068fc378daa952ba7f163c4a11628f55a4df523b3ef5a8a989e12f3ce7cf805b73156a361da5d8369f0c37173209308910b322117ac4cfca6396923c3eee68be58aa35fd6623ae5d67bb552da5e1de2e0d5854166dc8d1108e10bcb7c27dddfc02ed9d693a074039d026cf4ea4240b40f7d581ac802a164736f6c6343000813000a","opcodes":"PUSH1 0x80 CALLVALUE PUSH3 0x377 JUMPI PUSH1 0x1F SWAP1 PUSH1 0x1F NOT PUSH1 0x1 PUSH1 0x1 PUSH1 0x40 SHL SUB PUSH3 0x97DC CODESIZE DUP2 SWAP1 SUB DUP6 DUP2 ADD DUP5 AND DUP6 ADD DUP4 DUP2 GT DUP7 DUP3 LT OR PUSH3 0x37C JUMPI DUP6 SWAP3 DUP3 SWAP2 PUSH1 0x40 MSTORE DUP4 CODECOPY PUSH1 0x20 SWAP5 DUP6 SWAP2 DUP2 ADD SUB SLT PUSH3 0x377 JUMPI MLOAD SWAP4 PUSH3 0x53 PUSH3 0x392 JUMP JUMPDEST SWAP3 PUSH1 0x7 DUP5 MSTORE PUSH7 0x48656D53686F7 PUSH1 0xCC SHL DUP6 DUP6 ADD MSTORE PUSH3 0x71 PUSH3 0x392 JUMP JUMPDEST PUSH1 0x3 DUP1 DUP3 MSTORE PUSH3 0x48737 PUSH1 0xEC SHL DUP8 DUP4 ADD MSTORE PUSH1 0x0 DUP1 SLOAD CALLER PUSH1 0x1 PUSH1 0x1 PUSH1 0xA0 SHL SUB NOT DUP3 AND DUP2 OR DUP4 SSTORE SWAP3 SWAP9 SWAP4 SWAP5 SWAP2 SWAP4 SWAP3 SWAP1 PUSH1 0x1 PUSH1 0x1 PUSH1 0xA0 SHL SUB AND PUSH32 0x8BE0079C531659141344CD1FD0A4F28419497F9722A3DAAFE3B4186F6B6457E0 DUP6 DUP1 LOG3 PUSH1 0x1 SWAP7 DUP8 DUP1 SSTORE DUP1 MLOAD SWAP1 DUP8 DUP3 GT PUSH3 0x363 JUMPI PUSH1 0x2 SLOAD DUP10 DUP2 DUP2 SHR SWAP2 AND DUP1 ISZERO PUSH3 0x358 JUMPI JUMPDEST DUP6 DUP3 LT EQ PUSH3 0x344 JUMPI SWAP1 DUP2 DUP9 DUP5 SWAP4 GT PUSH3 0x2F0 JUMPI JUMPDEST POP DUP5 SWAP1 DUP9 DUP4 GT PUSH1 0x1 EQ PUSH3 0x28E JUMPI DUP7 SWAP3 PUSH3 0x282 JUMPI JUMPDEST POP POP PUSH1 0x0 NOT DUP3 DUP12 SHL SHR NOT AND SWAP1 DUP9 SHL OR PUSH1 0x2 SSTORE JUMPDEST DUP4 MLOAD SWAP6 DUP7 GT PUSH3 0x26E JUMPI DUP8 SLOAD DUP8 DUP2 DUP2 SHR SWAP2 AND DUP1 ISZERO PUSH3 0x263 JUMPI JUMPDEST DUP4 DUP3 LT EQ PUSH3 0x24F JUMPI DUP6 DUP2 GT PUSH3 0x207 JUMPI JUMPDEST POP DUP2 SWAP5 DUP7 GT PUSH1 0x1 EQ PUSH3 0x1A2 JUMPI POP POP SWAP2 DUP4 SWAP5 SWAP2 DUP5 SWAP4 SWAP5 PUSH3 0x196 JUMPI JUMPDEST POP POP SHL SWAP2 PUSH1 0x0 NOT SWAP1 DUP5 SHL SHR NOT AND OR SWAP1 SSTORE JUMPDEST PUSH1 0xD SSTORE PUSH1 0x40 MLOAD PUSH2 0x9429 SWAP1 DUP2 PUSH3 0x3B3 DUP3 CODECOPY RETURN JUMPDEST ADD MLOAD SWAP3 POP CODESIZE DUP1 PUSH3 0x172 JUMP JUMPDEST DUP8 DUP4 MSTORE DUP2 DUP4 KECCAK256 SWAP5 SWAP4 SWAP3 DUP7 SWAP3 SWAP2 DUP4 AND SWAP2 JUMPDEST DUP9 DUP4 DUP4 LT PUSH3 0x1EC JUMPI POP POP POP LT PUSH3 0x1D3 JUMPI JUMPDEST POP POP POP DUP2 SHL ADD SWAP1 SSTORE PUSH3 0x183 JUMP JUMPDEST ADD MLOAD PUSH1 0x0 NOT DUP4 DUP7 SHL PUSH1 0xF8 AND SHR NOT AND SWAP1 SSTORE CODESIZE DUP1 DUP1 PUSH3 0x1C5 JUMP JUMPDEST DUP6 DUP8 ADD MLOAD DUP9 SSTORE SWAP1 SWAP7 ADD SWAP6 SWAP5 DUP6 ADD SWAP5 DUP8 SWAP4 POP SWAP1 DUP2 ADD SWAP1 PUSH3 0x1B2 JUMP JUMPDEST DUP9 DUP5 MSTORE DUP3 DUP5 KECCAK256 DUP7 DUP1 DUP10 ADD PUSH1 0x5 SHR DUP3 ADD SWAP3 DUP6 DUP11 LT PUSH3 0x245 JUMPI JUMPDEST ADD PUSH1 0x5 SHR ADD SWAP1 DUP9 SWAP1 JUMPDEST DUP3 DUP2 LT PUSH3 0x239 JUMPI POP POP PUSH3 0x156 JUMP JUMPDEST DUP6 DUP2 SSTORE ADD DUP9 SWAP1 PUSH3 0x229 JUMP JUMPDEST SWAP3 POP DUP2 SWAP3 PUSH3 0x220 JUMP JUMPDEST PUSH4 0x4E487B71 PUSH1 0xE0 SHL DUP5 MSTORE PUSH1 0x22 PUSH1 0x4 MSTORE PUSH1 0x24 DUP5 REVERT JUMPDEST SWAP1 PUSH1 0x7F AND SWAP1 PUSH3 0x144 JUMP JUMPDEST PUSH4 0x4E487B71 PUSH1 0xE0 SHL DUP4 MSTORE PUSH1 0x41 PUSH1 0x4 MSTORE PUSH1 0x24 DUP4 REVERT JUMPDEST ADD MLOAD SWAP1 POP CODESIZE DUP1 PUSH3 0x117 JUMP JUMPDEST SWAP1 DUP5 DUP12 SWAP5 AND SWAP2 PUSH1 0x2 DUP9 MSTORE DUP7 DUP9 KECCAK256 SWAP3 DUP9 JUMPDEST DUP9 DUP3 DUP3 LT PUSH3 0x2D9 JUMPI POP POP DUP5 GT PUSH3 0x2C0 JUMPI JUMPDEST POP POP POP DUP2 SHL ADD PUSH1 0x2 SSTORE PUSH3 0x12A JUMP JUMPDEST ADD MLOAD PUSH1 0x0 NOT DUP4 DUP14 SHL PUSH1 0xF8 AND SHR NOT AND SWAP1 SSTORE CODESIZE DUP1 DUP1 PUSH3 0x2B1 JUMP JUMPDEST DUP4 DUP6 ADD MLOAD DUP7 SSTORE DUP15 SWAP8 SWAP1 SWAP6 ADD SWAP5 SWAP4 DUP5 ADD SWAP4 ADD PUSH3 0x29E JUMP JUMPDEST SWAP1 SWAP2 POP PUSH1 0x2 DUP7 MSTORE DUP5 DUP7 KECCAK256 DUP9 DUP1 DUP6 ADD PUSH1 0x5 SHR DUP3 ADD SWAP3 DUP8 DUP7 LT PUSH3 0x33A JUMPI JUMPDEST SWAP2 DUP13 SWAP2 DUP7 SWAP6 SWAP5 SWAP4 ADD PUSH1 0x5 SHR ADD SWAP2 JUMPDEST DUP3 DUP2 LT PUSH3 0x32B JUMPI POP POP PUSH3 0x101 JUMP JUMPDEST DUP9 DUP2 SSTORE DUP6 SWAP5 POP DUP13 SWAP2 ADD PUSH3 0x31B JUMP JUMPDEST SWAP3 POP DUP2 SWAP3 PUSH3 0x30D JUMP JUMPDEST PUSH4 0x4E487B71 PUSH1 0xE0 SHL DUP7 MSTORE PUSH1 0x22 PUSH1 0x4 MSTORE PUSH1 0x24 DUP7 REVERT JUMPDEST SWAP1 PUSH1 0x7F AND SWAP1 PUSH3 0xEC JUMP JUMPDEST PUSH4 0x4E487B71 PUSH1 0xE0 SHL DUP6 MSTORE PUSH1 0x41 PUSH1 0x4 MSTORE PUSH1 0x24 DUP6 REVERT JUMPDEST PUSH1 0x0 DUP1 REVERT JUMPDEST PUSH4 0x4E487B71 PUSH1 0xE0 SHL PUSH1 0x0 MSTORE PUSH1 0x41 PUSH1 0x4 MSTORE PUSH1 0x24 PUSH1 0x0 REVERT JUMPDEST PUSH1 0x40 DUP1 MLOAD SWAP2 SWAP1 DUP3 ADD PUSH1 0x1 PUSH1 0x1 PUSH1 0x40 SHL SUB DUP2 GT DUP4 DUP3 LT OR PUSH3 0x37C JUMPI PUSH1 0x40 MSTORE JUMP INVALID PUSH1 0x80 DUP1 PUSH1 0x40 MSTORE PUSH1 0x4 CALLDATASIZE LT ISZERO PUSH2 0x13 JUMPI PUSH1 0x0 DUP1 REVERT JUMPDEST PUSH1 0x0 CALLDATALOAD PUSH1 0xE0 SHR SWAP1 DUP2 PUSH3 0xD64E76 EQ PUSH2 0x6BC1 JUMPI POP DUP1 PUSH4 0x1FFC9A7 EQ PUSH2 0x6B53 JUMPI DUP1 PUSH4 0x2EE3A52 EQ PUSH2 0x68D8 JUMPI DUP1 PUSH4 0x6FDDE03 EQ PUSH2 0x6833 JUMPI DUP1 PUSH4 0x81812FC EQ PUSH2 0x6815 JUMPI DUP1 PUSH4 0x95EA7B3 EQ PUSH2 0x669B JUMPI DUP1 PUSH4 0xE50CEE5 EQ PUSH2 0x665C JUMPI DUP1 PUSH4 0x11AA5B34 EQ PUSH2 0x6638 JUMPI DUP1 PUSH4 0x1385FD92 EQ PUSH2 0x65E4 JUMPI DUP1 PUSH4 0x16D81B38 EQ PUSH2 0x6401 JUMPI DUP1 PUSH4 0x17E98548 EQ PUSH2 0x6389 JUMPI DUP1 PUSH4 0x2148893F EQ PUSH2 0x5A11 JUMPI DUP1 PUSH4 0x23B872DD EQ PUSH2 0x6360 JUMPI DUP1 PUSH4 0x24D41A03 EQ PUSH2 0x613D JUMPI DUP1 PUSH4 0x317A0827 EQ PUSH2 0x5FF6 JUMPI DUP1 PUSH4 0x332D56D7 EQ PUSH2 0x5F35 JUMPI DUP1 PUSH4 0x3C2575D5 EQ PUSH2 0x5E50 JUMPI DUP1 PUSH4 0x3CCFD60B EQ PUSH2 0x5D0E JUMPI DUP1 PUSH4 0x42842E0E EQ PUSH2 0x5CE6 JUMPI DUP1 PUSH4 0x4293E5CE EQ PUSH2 0x5BE4 JUMPI DUP1 PUSH4 0x45DE84DB EQ PUSH2 0x5BA2 JUMPI DUP1 PUSH4 0x502AA3B5 EQ PUSH2 0x5B59 JUMPI DUP1 PUSH4 0x5AD6A580 EQ PUSH2 0x5AAE JUMPI DUP1 PUSH4 0x5BE20959 EQ PUSH2 0x5A4B JUMPI DUP1 PUSH4 0x607EB4E4 EQ PUSH2 0x5A11 JUMPI DUP1 PUSH4 0x6352211E EQ PUSH2 0x59E1 JUMPI DUP1 PUSH4 0x661E1712 EQ PUSH2 0x52B9 JUMPI DUP1 PUSH4 0x66224D8E EQ PUSH2 0x5163 JUMPI DUP1 PUSH4 0x6F2C8599 EQ PUSH2 0x50B8 JUMPI DUP1 PUSH4 0x6F77926B EQ PUSH2 0x4F35 JUMPI DUP1 PUSH4 0x70A08231 EQ PUSH2 0x4E9E JUMPI DUP1 PUSH4 0x715018A6 EQ PUSH2 0x4E57 JUMPI DUP1 PUSH4 0x7ACC0B20 EQ PUSH2 0x4C98 JUMPI DUP1 PUSH4 0x7D3978DB EQ PUSH2 0x4A7A JUMPI DUP1 PUSH4 0x7E8555ED EQ PUSH2 0x432E JUMPI DUP1 PUSH4 0x868A5461 EQ PUSH2 0x381E JUMPI DUP1 PUSH4 0x8DA5CB5B EQ PUSH2 0x37F5 JUMPI DUP1 PUSH4 0x8F38CC7B EQ PUSH2 0x34CF JUMPI DUP1 PUSH4 0x9196DFCB EQ PUSH2 0x33B5 JUMPI DUP1 PUSH4 0x95D89B41 EQ PUSH2 0x32D3 JUMPI DUP1 PUSH4 0x97B6F393 EQ PUSH2 0x3195 JUMPI DUP1 PUSH4 0x9D4A2255 EQ PUSH2 0x3002 JUMPI DUP1 PUSH4 0x9FA44DBF EQ PUSH2 0x2FBA JUMPI DUP1 PUSH4 0xA22CB465 EQ PUSH2 0x2EEF JUMPI DUP1 PUSH4 0xA22FB387 EQ PUSH2 0x2E44 JUMPI DUP1 PUSH4 0xA323D29E EQ PUSH2 0x2CF1 JUMPI DUP1 PUSH4 0xAF55ED64 EQ PUSH2 0x2CC0 JUMPI DUP1 PUSH4 0xB27E1697 EQ PUSH2 0x2BDB JUMPI DUP1 PUSH4 0xB88D4FDE EQ PUSH2 0x2B7C JUMPI DUP1 PUSH4 0xB95A0628 EQ PUSH2 0x2B41 JUMPI DUP1 PUSH4 0xB9DB15B4 EQ PUSH2 0x2927 JUMPI DUP1 PUSH4 0xC1302B34 EQ PUSH2 0x28CF JUMPI DUP1 PUSH4 0xC64B8A8F EQ PUSH2 0x2890 JUMPI DUP1 PUSH4 0xC87B56DD EQ PUSH2 0x2836 JUMPI DUP1 PUSH4 0xCECA737F EQ PUSH2 0x27B2 JUMPI DUP1 PUSH4 0xD2BC9D78 EQ PUSH2 0x2505 JUMPI DUP1 PUSH4 0xD637DCFA EQ PUSH2 0x2066 JUMPI DUP1 PUSH4 0xDADD0A57 EQ PUSH2 0x1D66 JUMPI DUP1 PUSH4 0xDC298682 EQ PUSH2 0x1B45 JUMPI DUP1 PUSH4 0xE01EF6E6 EQ PUSH2 0x1B27 JUMPI DUP1 PUSH4 0xE40971E5 EQ PUSH2 0xC62 JUMPI DUP1 PUSH4 0xE585CB2C EQ PUSH2 0xBD2 JUMPI DUP1 PUSH4 0xE6A93E16 EQ PUSH2 0x918 JUMPI DUP1 PUSH4 0xE985E9C5 EQ PUSH2 0x8C2 JUMPI DUP1 PUSH4 0xEB11C434 EQ PUSH2 0x890 JUMPI DUP1 PUSH4 0xED90C7B7 EQ PUSH2 0x756 JUMPI DUP1 PUSH4 0xF2FDE38B EQ PUSH2 0x6A7 JUMPI DUP1 PUSH4 0xF3052D26 EQ PUSH2 0x5E7 JUMPI PUSH4 0xFDCA4CA3 EQ PUSH2 0x315 JUMPI PUSH1 0x0 DUP1 REVERT JUMPDEST CALLVALUE PUSH2 0x5E2 JUMPI PUSH1 0x0 CALLDATASIZE PUSH1 0x3 NOT ADD SLT PUSH2 0x5E2 JUMPI PUSH1 0x8 DUP1 SLOAD PUSH1 0x0 PUSH1 0x1 JUMPDEST DUP3 DUP2 GT ISZERO PUSH2 0x581 JUMPI POP PUSH2 0x341 SWAP1 PUSH2 0x848B JUMP JUMPDEST SWAP1 PUSH1 0x0 SWAP3 PUSH1 0x1 JUMPDEST DUP3 DUP2 GT ISZERO PUSH2 0x362 JUMPI PUSH1 0x40 MLOAD DUP1 PUSH2 0x35E DUP7 DUP3 PUSH2 0x6E7B JUMP JUMPDEST SUB SWAP1 RETURN JUMPDEST PUSH1 0x0 DUP2 DUP2 MSTORE PUSH1 0x15 PUSH1 0x20 SWAP1 DUP2 MSTORE PUSH1 0x40 SWAP1 SWAP2 KECCAK256 PUSH1 0x1 DUP2 ADD SLOAD PUSH1 0x1 PUSH1 0x1 PUSH1 0xA0 SHL SUB AND SWAP2 SWAP1 CALLER DUP4 EQ DUP1 PUSH2 0x56F JUMPI JUMPDEST PUSH2 0x3A2 JUMPI JUMPDEST POP POP POP PUSH2 0x39D SWAP1 PUSH2 0x847C JUMP JUMPDEST PUSH2 0x348 JUMP JUMPDEST PUSH1 0x40 SWAP8 SWAP4 SWAP8 MLOAD SWAP3 PUSH2 0x3B2 DUP5 PUSH2 0x6F09 JUMP JUMPDEST DUP2 SLOAD DUP5 MSTORE DUP3 DUP5 ADD MSTORE PUSH1 0x40 MLOAD PUSH2 0x3D5 DUP2 PUSH2 0x3CE DUP2 PUSH1 0x2 DUP7 ADD PUSH2 0x7106 JUMP JUMPDEST SUB DUP3 PUSH2 0x6FC8 JUMP JUMPDEST PUSH1 0x40 DUP5 ADD MSTORE PUSH1 0x40 MLOAD PUSH2 0x3EE DUP2 PUSH2 0x3CE DUP2 PUSH1 0x3 DUP7 ADD PUSH2 0x7106 JUMP JUMPDEST PUSH1 0x60 DUP5 ADD MSTORE PUSH1 0x4 DUP2 ADD SLOAD PUSH1 0x80 DUP5 ADD MSTORE PUSH1 0x5 DUP2 ADD SLOAD PUSH1 0xA0 DUP5 ADD MSTORE PUSH1 0x6 SWAP1 PUSH2 0x415 DUP3 DUP3 ADD PUSH2 0x83B6 JUMP JUMPDEST PUSH1 0xC0 DUP6 ADD MSTORE PUSH2 0x426 PUSH1 0x7 DUP3 ADD PUSH2 0x83B6 JUMP JUMPDEST PUSH1 0xE0 DUP6 ADD MSTORE PUSH2 0x436 DUP7 DUP3 ADD PUSH2 0x83B6 JUMP JUMPDEST PUSH2 0x100 DUP6 ADD MSTORE PUSH1 0x40 MLOAD PUSH2 0x450 DUP2 PUSH2 0x3CE DUP2 PUSH1 0x9 DUP7 ADD PUSH2 0x7106 JUMP JUMPDEST PUSH2 0x120 DUP6 ADD MSTORE PUSH1 0x40 MLOAD PUSH2 0x46A DUP2 PUSH2 0x3CE DUP2 PUSH1 0xA DUP7 ADD PUSH2 0x7106 JUMP JUMPDEST PUSH2 0x140 DUP6 ADD MSTORE PUSH1 0xB DUP2 ADD SLOAD PUSH2 0x160 DUP6 ADD MSTORE PUSH1 0x40 MLOAD PUSH2 0x48F DUP2 PUSH2 0x3CE DUP2 PUSH1 0xC DUP7 ADD PUSH2 0x7106 JUMP JUMPDEST PUSH2 0x180 DUP6 ADD MSTORE PUSH1 0x40 MLOAD PUSH2 0x4A9 DUP2 PUSH2 0x3CE DUP2 PUSH1 0xD DUP7 ADD PUSH2 0x7106 JUMP JUMPDEST PUSH2 0x1A0 DUP6 ADD MSTORE PUSH1 0xE DUP2 ADD SLOAD PUSH2 0x1C0 DUP6 ADD MSTORE PUSH1 0xF DUP2 ADD SLOAD PUSH1 0xFF DUP1 DUP3 AND ISZERO ISZERO PUSH2 0x1E0 DUP8 ADD MSTORE DUP2 DUP9 SHR DUP2 AND ISZERO ISZERO PUSH2 0x200 DUP8 ADD MSTORE PUSH1 0x10 SWAP2 DUP3 SHR AND ISZERO ISZERO PUSH2 0x220 DUP7 ADD MSTORE ADD DUP1 SLOAD SWAP2 SWAP1 PUSH2 0x4F5 DUP4 PUSH2 0x7F92 JUMP JUMPDEST SWAP4 PUSH2 0x503 PUSH1 0x40 MLOAD SWAP6 DUP7 PUSH2 0x6FC8 JUMP JUMPDEST DUP4 DUP6 MSTORE PUSH1 0x0 SWAP2 DUP3 MSTORE DUP1 DUP3 KECCAK256 SWAP2 DUP2 DUP7 ADD JUMPDEST DUP6 DUP3 LT PUSH2 0x553 JUMPI POP POP POP POP POP POP SWAP2 DUP2 PUSH2 0x39D SWAP4 PUSH2 0x240 PUSH2 0x54A SWAP5 ADD MSTORE PUSH2 0x539 DUP3 DUP9 PUSH2 0x84DB JUMP JUMPDEST MSTORE PUSH2 0x544 DUP2 DUP8 PUSH2 0x84DB JUMP JUMPDEST POP PUSH2 0x847C JUMP JUMPDEST SWAP5 SWAP1 CODESIZE DUP1 PUSH2 0x391 JUMP JUMPDEST DUP5 DUP4 PUSH1 0x1 SWAP3 PUSH2 0x561 DUP8 PUSH2 0x841B JUMP JUMPDEST DUP2 MSTORE ADD SWAP5 ADD SWAP2 ADD SWAP1 SWAP3 PUSH2 0x513 JUMP JUMPDEST POP PUSH1 0xFF PUSH1 0xF DUP3 ADD SLOAD PUSH1 0x10 SHR AND ISZERO PUSH2 0x38C JUMP JUMPDEST PUSH1 0x0 DUP2 DUP2 MSTORE PUSH1 0x15 PUSH1 0x20 MSTORE PUSH1 0x40 SWAP1 KECCAK256 PUSH1 0x1 DUP2 ADD SLOAD PUSH1 0x1 PUSH1 0x1 PUSH1 0xA0 SHL SUB AND CALLER EQ SWAP1 DUP2 PUSH2 0x5CF JUMPI JUMPDEST POP PUSH2 0x5BA JUMPI JUMPDEST PUSH2 0x5B5 SWAP1 PUSH2 0x847C JUMP JUMPDEST PUSH2 0x32F JUMP JUMPDEST SWAP1 PUSH2 0x5C7 PUSH2 0x5B5 SWAP2 PUSH2 0x847C JUMP JUMPDEST SWAP2 SWAP1 POP PUSH2 0x5AC JUMP JUMPDEST PUSH1 0xFF SWAP2 POP PUSH1 0xF ADD SLOAD PUSH1 0x10 SHR AND ISZERO CODESIZE PUSH2 0x5A6 JUMP JUMPDEST PUSH1 0x0 DUP1 REVERT JUMPDEST CALLVALUE PUSH2 0x5E2 JUMPI PUSH1 0x20 CALLDATASIZE PUSH1 0x3 NOT ADD SLT PUSH2 0x5E2 JUMPI PUSH1 0x4 CALLDATALOAD PUSH1 0x0 MSTORE PUSH1 0x18 PUSH1 0x20 MSTORE PUSH1 0x40 PUSH1 0x0 KECCAK256 PUSH1 0x40 MLOAD PUSH2 0x614 DUP2 PUSH2 0x6F5C JUMP JUMPDEST DUP2 SLOAD DUP2 MSTORE PUSH2 0x35E PUSH1 0x40 MLOAD SWAP2 PUSH2 0x637 DUP4 PUSH2 0x630 DUP2 PUSH1 0x1 DUP9 ADD PUSH2 0x7106 JUMP JUMPDEST SUB DUP5 PUSH2 0x6FC8 JUMP JUMPDEST PUSH1 0x20 DUP2 ADD SWAP3 DUP4 MSTORE PUSH2 0x65B PUSH1 0x3 PUSH1 0xFF PUSH1 0x2 DUP8 ADD SLOAD AND SWAP6 PUSH1 0x40 DUP5 ADD SWAP7 ISZERO ISZERO DUP8 MSTORE ADD PUSH2 0x8650 JUMP JUMPDEST SWAP1 PUSH1 0x60 DUP2 ADD SWAP2 DUP3 MSTORE PUSH2 0x66F DUP2 MLOAD ISZERO ISZERO PUSH2 0x85A1 JUMP JUMPDEST MLOAD SWAP3 MLOAD SWAP4 MLOAD ISZERO ISZERO SWAP1 MLOAD PUSH2 0x694 PUSH1 0x40 MLOAD SWAP6 DUP7 SWAP6 DUP7 MSTORE PUSH1 0x80 PUSH1 0x20 DUP8 ADD MSTORE PUSH1 0x80 DUP7 ADD SWAP1 PUSH2 0x6BEE JUMP JUMPDEST SWAP2 PUSH1 0x40 DUP6 ADD MSTORE DUP4 DUP3 SUB PUSH1 0x60 DUP6 ADD MSTORE PUSH2 0x74D9 JUMP JUMPDEST CALLVALUE PUSH2 0x5E2 JUMPI PUSH1 0x20 CALLDATASIZE PUSH1 0x3 NOT ADD SLT PUSH2 0x5E2 JUMPI PUSH2 0x6C0 PUSH2 0x6EDD JUMP JUMPDEST PUSH2 0x6C8 PUSH2 0x750D JUMP JUMPDEST PUSH1 0x1 PUSH1 0x1 PUSH1 0xA0 SHL SUB SWAP1 DUP2 AND SWAP1 DUP2 ISZERO PUSH2 0x702 JUMPI PUSH1 0x0 SLOAD DUP3 PUSH1 0x1 DUP1 PUSH1 0xA0 SHL SUB NOT DUP3 AND OR PUSH1 0x0 SSTORE AND PUSH1 0x0 DUP1 MLOAD PUSH1 0x20 PUSH2 0x935D DUP4 CODECOPY DUP2 MLOAD SWAP2 MSTORE PUSH1 0x0 DUP1 LOG3 STOP JUMPDEST PUSH1 0x40 MLOAD PUSH3 0x461BCD PUSH1 0xE5 SHL DUP2 MSTORE PUSH1 0x20 PUSH1 0x4 DUP3 ADD MSTORE PUSH1 0x26 PUSH1 0x24 DUP3 ADD MSTORE PUSH32 0x4F776E61626C653A206E6577206F776E657220697320746865207A65726F2061 PUSH1 0x44 DUP3 ADD MSTORE PUSH6 0x646472657373 PUSH1 0xD0 SHL PUSH1 0x64 DUP3 ADD MSTORE PUSH1 0x84 SWAP1 REVERT JUMPDEST CALLVALUE PUSH2 0x5E2 JUMPI PUSH1 0x20 DUP1 PUSH1 0x3 NOT CALLDATASIZE ADD SLT PUSH2 0x5E2 JUMPI PUSH1 0x4 CALLDATALOAD SWAP1 DUP2 PUSH1 0x0 MSTORE PUSH1 0x17 DUP2 MSTORE PUSH2 0x785 PUSH1 0xFF PUSH1 0x40 PUSH1 0x0 KECCAK256 SLOAD AND PUSH2 0x8258 JUMP JUMPDEST PUSH1 0x0 DUP3 DUP2 MSTORE PUSH1 0x15 DUP3 MSTORE PUSH1 0x40 SWAP1 KECCAK256 PUSH1 0x1 ADD SLOAD CALLER PUSH1 0x1 PUSH1 0x1 PUSH1 0xA0 SHL SUB SWAP2 DUP3 AND EQ SWAP1 DUP2 ISZERO PUSH2 0x882 JUMPI JUMPDEST POP ISZERO PUSH2 0x82E JUMPI DUP2 PUSH1 0x0 MSTORE PUSH1 0x15 DUP2 MSTORE PUSH1 0xFF PUSH1 0xF PUSH1 0x40 PUSH1 0x0 KECCAK256 ADD SLOAD PUSH1 0x10 SHR AND PUSH2 0x7ED JUMPI PUSH1 0x0 SWAP2 DUP3 MSTORE PUSH1 0x15 SWAP1 MSTORE PUSH1 0x40 SWAP1 KECCAK256 PUSH1 0xF ADD DUP1 SLOAD PUSH3 0xFF0000 NOT AND PUSH3 0x10000 OR SWAP1 SSTORE STOP JUMPDEST PUSH1 0x64 SWAP1 PUSH1 0x40 MLOAD SWAP1 PUSH3 0x461BCD PUSH1 0xE5 SHL DUP3 MSTORE PUSH1 0x4 DUP3 ADD MSTORE PUSH1 0x1A PUSH1 0x24 DUP3 ADD MSTORE PUSH26 0x141C9BD91D58DD081A5CC8185B1C9958591E4819195B195D1959 PUSH1 0x32 SHL PUSH1 0x44 DUP3 ADD MSTORE REVERT JUMPDEST PUSH1 0x84 SWAP1 PUSH1 0x40 MLOAD SWAP1 PUSH3 0x461BCD PUSH1 0xE5 SHL DUP3 MSTORE PUSH1 0x4 DUP3 ADD MSTORE PUSH1 0x27 PUSH1 0x24 DUP3 ADD MSTORE PUSH32 0x4F6E6C792070726F647563742073656C6C6572206F72206F776E65722063616E PUSH1 0x44 DUP3 ADD MSTORE PUSH7 0x2064656C657465 PUSH1 0xC8 SHL PUSH1 0x64 DUP3 ADD MSTORE REVERT JUMPDEST PUSH1 0x0 SLOAD AND CALLER EQ SWAP1 POP DUP4 PUSH2 0x7AB JUMP JUMPDEST CALLVALUE PUSH2 0x5E2 JUMPI PUSH1 0x20 CALLDATASIZE PUSH1 0x3 NOT ADD SLT PUSH2 0x5E2 JUMPI PUSH1 0x20 PUSH2 0x8B3 PUSH2 0x8AE PUSH2 0x6EDD JUMP JUMPDEST PUSH2 0x7BE8 JUMP JUMPDEST PUSH2 0x8C0 PUSH1 0x40 MLOAD DUP1 SWAP3 PUSH2 0x7382 JUMP JUMPDEST RETURN JUMPDEST CALLVALUE PUSH2 0x5E2 JUMPI PUSH1 0x40 CALLDATASIZE PUSH1 0x3 NOT ADD SLT PUSH2 0x5E2 JUMPI PUSH2 0x8DB PUSH2 0x6EDD JUMP JUMPDEST PUSH2 0x8E3 PUSH2 0x6EF3 JUMP JUMPDEST SWAP1 PUSH1 0x1 DUP1 PUSH1 0xA0 SHL SUB DUP1 SWAP2 AND PUSH1 0x0 MSTORE PUSH1 0x7 PUSH1 0x20 MSTORE PUSH1 0x40 PUSH1 0x0 KECCAK256 SWAP2 AND PUSH1 0x0 MSTORE PUSH1 0x20 MSTORE PUSH1 0x20 PUSH1 0xFF PUSH1 0x40 PUSH1 0x0 KECCAK256 SLOAD AND PUSH1 0x40 MLOAD SWAP1 ISZERO ISZERO DUP2 MSTORE RETURN JUMPDEST CALLVALUE PUSH2 0x5E2 JUMPI PUSH1 0x20 CALLDATASIZE PUSH1 0x3 NOT ADD SLT PUSH2 0x5E2 JUMPI PUSH2 0x931 PUSH2 0x6EDD JUMP JUMPDEST PUSH1 0x8 SLOAD PUSH1 0x0 PUSH1 0x1 JUMPDEST DUP3 DUP2 GT ISZERO PUSH2 0xB6E JUMPI POP PUSH2 0x94B SWAP1 PUSH2 0x848B JUMP JUMPDEST SWAP1 PUSH1 0x1 PUSH1 0x0 JUMPDEST DUP3 DUP3 GT ISZERO PUSH2 0x967 JUMPI PUSH1 0x40 MLOAD DUP1 PUSH2 0x35E DUP7 DUP3 PUSH2 0x6E7B JUMP JUMPDEST PUSH1 0x0 DUP3 DUP2 MSTORE PUSH1 0x15 PUSH1 0x20 MSTORE PUSH1 0x40 SWAP1 KECCAK256 PUSH1 0x1 DUP2 ADD SLOAD PUSH1 0x1 PUSH1 0x1 PUSH1 0xA0 SHL SUB SWAP1 DUP2 AND SWAP2 SWAP1 DUP8 AND DUP3 EQ DUP1 PUSH2 0xB5C JUMPI JUMPDEST PUSH2 0x9A8 JUMPI JUMPDEST POP POP SWAP1 PUSH2 0x9A2 SWAP1 PUSH2 0x847C JUMP JUMPDEST SWAP1 PUSH2 0x951 JUMP JUMPDEST PUSH1 0x40 MLOAD SWAP2 PUSH2 0x9B5 DUP4 PUSH2 0x6F09 JUMP JUMPDEST DUP2 SLOAD DUP4 MSTORE PUSH1 0x20 DUP4 ADD MSTORE PUSH1 0x40 MLOAD PUSH2 0x9D2 DUP2 PUSH2 0x3CE DUP2 PUSH1 0x2 DUP7 ADD PUSH2 0x7106 JUMP JUMPDEST PUSH1 0x40 DUP4 ADD MSTORE PUSH1 0x40 MLOAD PUSH2 0x9EB DUP2 PUSH2 0x3CE DUP2 PUSH1 0x3 DUP7 ADD PUSH2 0x7106 JUMP JUMPDEST PUSH1 0x60 DUP4 ADD MSTORE PUSH1 0x4 DUP2 ADD SLOAD PUSH1 0x80 DUP4 ADD MSTORE PUSH1 0x5 DUP2 ADD SLOAD PUSH1 0xA0 DUP4 ADD MSTORE PUSH2 0xA10 PUSH1 0x6 DUP3 ADD PUSH2 0x83B6 JUMP JUMPDEST PUSH1 0xC0 DUP4 ADD MSTORE PUSH2 0xA21 PUSH1 0x7 DUP3 ADD PUSH2 0x83B6 JUMP JUMPDEST PUSH1 0xE0 DUP4 ADD MSTORE PUSH2 0xA32 PUSH1 0x8 DUP3 ADD PUSH2 0x83B6 JUMP JUMPDEST PUSH2 0x100 DUP4 ADD MSTORE PUSH1 0x40 MLOAD PUSH2 0xA4C DUP2 PUSH2 0x3CE DUP2 PUSH1 0x9 DUP7 ADD PUSH2 0x7106 JUMP JUMPDEST PUSH2 0x120 DUP4 ADD MSTORE PUSH1 0x40 MLOAD PUSH2 0xA66 DUP2 PUSH2 0x3CE DUP2 PUSH1 0xA DUP7 ADD PUSH2 0x7106 JUMP JUMPDEST PUSH2 0x140 DUP4 ADD MSTORE PUSH1 0xB DUP2 ADD SLOAD PUSH2 0x160 DUP4 ADD MSTORE PUSH1 0x40 MLOAD PUSH2 0xA8B DUP2 PUSH2 0x3CE DUP2 PUSH1 0xC DUP7 ADD PUSH2 0x7106 JUMP JUMPDEST PUSH2 0x180 DUP4 ADD MSTORE PUSH1 0x40 MLOAD PUSH2 0xAA5 DUP2 PUSH2 0x3CE DUP2 PUSH1 0xD DUP7 ADD PUSH2 0x7106 JUMP JUMPDEST PUSH2 0x1A0 DUP4 ADD MSTORE PUSH1 0xE DUP2 ADD SLOAD PUSH2 0x1C0 DUP4 ADD MSTORE PUSH1 0xF DUP2 ADD SLOAD SWAP1 PUSH1 0xFF DUP1 DUP4 AND ISZERO ISZERO PUSH2 0x1E0 DUP6 ADD MSTORE DUP1 DUP4 PUSH1 0x8 SHR AND ISZERO ISZERO PUSH2 0x200 DUP6 ADD MSTORE PUSH1 0x10 SWAP3 DUP4 SHR AND ISZERO ISZERO PUSH2 0x220 DUP5 ADD MSTORE ADD DUP1 SLOAD SWAP1 PUSH2 0xAF2 DUP3 PUSH2 0x7F92 JUMP JUMPDEST SWAP2 PUSH2 0xB00 PUSH1 0x40 MLOAD SWAP4 DUP5 PUSH2 0x6FC8 JUMP JUMPDEST DUP1 DUP4 MSTORE PUSH1 0x20 DUP4 ADD SWAP2 PUSH1 0x0 MSTORE PUSH1 0x20 PUSH1 0x0 KECCAK256 PUSH1 0x0 SWAP3 JUMPDEST DUP3 DUP5 LT PUSH2 0xB3E JUMPI POP POP POP POP PUSH2 0x240 DUP3 ADD MSTORE PUSH2 0x9A2 SWAP2 PUSH2 0xB37 SWAP2 PUSH2 0x539 DUP3 DUP9 PUSH2 0x84DB JUMP JUMPDEST SWAP1 DUP7 PUSH2 0x996 JUMP JUMPDEST PUSH1 0x6 PUSH1 0x20 PUSH1 0x1 SWAP3 PUSH2 0xB4E DUP6 PUSH2 0x841B JUMP JUMPDEST DUP2 MSTORE ADD SWAP3 ADD SWAP4 ADD SWAP3 SWAP1 PUSH2 0xB14 JUMP JUMPDEST POP PUSH1 0xFF PUSH1 0xF DUP3 ADD SLOAD PUSH1 0x10 SHR AND ISZERO PUSH2 0x991 JUMP JUMPDEST PUSH1 0x0 DUP2 DUP2 MSTORE PUSH1 0x15 PUSH1 0x20 MSTORE PUSH1 0x40 SWAP1 KECCAK256 PUSH1 0x1 DUP2 ADD SLOAD PUSH1 0x1 PUSH1 0x1 PUSH1 0xA0 SHL SUB DUP7 DUP2 AND SWAP2 AND EQ SWAP1 DUP2 PUSH2 0xBBF JUMPI JUMPDEST POP PUSH2 0xBAA JUMPI JUMPDEST PUSH2 0xBA5 SWAP1 PUSH2 0x847C JUMP JUMPDEST PUSH2 0x939 JUMP JUMPDEST SWAP1 PUSH2 0xBB7 PUSH2 0xBA5 SWAP2 PUSH2 0x847C JUMP JUMPDEST SWAP2 SWAP1 POP PUSH2 0xB9C JUMP JUMPDEST PUSH1 0xFF SWAP2 POP PUSH1 0xF ADD SLOAD PUSH1 0x10 SHR AND ISZERO DUP6 PUSH2 0xB96 JUMP JUMPDEST CALLVALUE PUSH2 0x5E2 JUMPI PUSH1 0x40 CALLDATASIZE PUSH1 0x3 NOT ADD SLT PUSH2 0x5E2 JUMPI PUSH2 0xBEB PUSH2 0x6EDD JUMP JUMPDEST PUSH1 0x1 PUSH1 0x1 PUSH1 0xA0 SHL SUB SWAP1 DUP2 AND PUSH1 0x0 SWAP1 DUP2 MSTORE PUSH1 0x1C PUSH1 0x20 MSTORE PUSH1 0x40 SWAP1 KECCAK256 DUP1 SLOAD PUSH1 0x24 CALLDATALOAD SWAP1 DUP2 LT ISZERO PUSH2 0x5E2 JUMPI PUSH2 0xC1A SWAP2 PUSH2 0x73A7 JUMP JUMPDEST POP SWAP1 PUSH2 0x35E DUP3 SLOAD PUSH1 0x1 DUP5 ADD SLOAD SWAP4 PUSH1 0x2 DUP2 ADD SLOAD SWAP2 PUSH1 0x3 DUP3 ADD SLOAD DUP6 PUSH1 0x4 DUP5 ADD SLOAD AND SWAP1 PUSH2 0xC4B PUSH1 0x6 PUSH1 0x5 DUP7 ADD SLOAD SWAP6 ADD PUSH2 0x73C3 JUMP JUMPDEST SWAP5 PUSH1 0x40 MLOAD SWAP9 DUP10 SWAP9 PUSH1 0xFF DUP8 PUSH1 0xA0 SHR AND SWAP7 AND SWAP5 DUP10 PUSH2 0x748F JUMP JUMPDEST CALLVALUE PUSH2 0x5E2 JUMPI PUSH1 0x3 NOT PUSH1 0x20 CALLDATASIZE DUP3 ADD SLT PUSH2 0x5E2 JUMPI PUSH1 0x1 PUSH1 0x1 PUSH1 0x40 SHL SUB PUSH1 0x4 CALLDATALOAD GT PUSH2 0x5E2 JUMPI PUSH2 0x1A0 SWAP1 PUSH1 0x4 CALLDATALOAD CALLDATASIZE SUB ADD SLT PUSH2 0x5E2 JUMPI CALLER PUSH1 0x0 MSTORE PUSH1 0x12 PUSH1 0x20 MSTORE PUSH1 0xFF PUSH1 0x40 PUSH1 0x0 KECCAK256 SLOAD AND PUSH1 0x4 DUP2 LT ISZERO PUSH2 0x1B11 JUMPI PUSH1 0x2 EQ DUP1 ISZERO PUSH2 0x1AFD JUMPI JUMPDEST ISZERO PUSH2 0x1AB9 JUMPI PUSH2 0xCD7 PUSH2 0xCCE PUSH1 0x4 DUP1 CALLDATALOAD ADD DUP1 PUSH2 0x7C5C JUMP JUMPDEST SWAP1 POP ISZERO ISZERO PUSH2 0x7A52 JUMP JUMPDEST PUSH2 0xCE8 PUSH1 0x44 PUSH1 0x4 CALLDATALOAD ADD CALLDATALOAD ISZERO ISZERO PUSH2 0x7C8E JUMP JUMPDEST PUSH2 0xCF9 PUSH1 0x64 PUSH1 0x4 CALLDATALOAD ADD CALLDATALOAD ISZERO ISZERO PUSH2 0x7CD9 JUMP JUMPDEST PUSH1 0xE4 PUSH1 0x4 CALLDATALOAD ADD CALLDATALOAD ISZERO PUSH2 0x1A69 JUMPI PUSH2 0x104 PUSH1 0x4 CALLDATALOAD ADD CALLDATALOAD ISZERO PUSH2 0x1A16 JUMPI PUSH2 0xD24 PUSH2 0x124 PUSH1 0x4 CALLDATALOAD ADD CALLDATALOAD ISZERO ISZERO PUSH2 0x7D24 JUMP JUMPDEST PUSH2 0xD45 PUSH2 0xD3C PUSH2 0x144 PUSH1 0x4 CALLDATALOAD ADD PUSH1 0x4 CALLDATALOAD PUSH1 0x4 ADD PUSH2 0x7C5C JUMP JUMPDEST SWAP1 POP ISZERO ISZERO PUSH2 0x7D70 JUMP JUMPDEST PUSH2 0xD66 PUSH2 0xD5D PUSH2 0x164 PUSH1 0x4 CALLDATALOAD ADD PUSH1 0x4 CALLDATALOAD PUSH1 0x4 ADD PUSH2 0x7C5C JUMP JUMPDEST SWAP1 POP ISZERO ISZERO PUSH2 0x7DB4 JUMP JUMPDEST PUSH2 0xD78 PUSH2 0x184 PUSH1 0x4 CALLDATALOAD ADD CALLDATALOAD ISZERO ISZERO PUSH2 0x7DF8 JUMP JUMPDEST PUSH2 0xD98 PUSH2 0xD8F PUSH1 0xC4 PUSH1 0x4 CALLDATALOAD ADD PUSH1 0x4 CALLDATALOAD PUSH1 0x4 ADD PUSH2 0x7E41 JUMP JUMPDEST SWAP1 POP ISZERO ISZERO PUSH2 0x7E76 JUMP JUMPDEST PUSH2 0xDBA PUSH1 0x5 PUSH2 0xDB1 PUSH1 0xC4 PUSH1 0x4 CALLDATALOAD ADD PUSH1 0x4 CALLDATALOAD PUSH1 0x4 ADD PUSH2 0x7E41 JUMP JUMPDEST SWAP1 POP GT ISZERO PUSH2 0x7EBB JUMP JUMPDEST PUSH1 0x1 PUSH1 0x8 SLOAD ADD DUP1 PUSH1 0x8 SSTORE PUSH2 0xDCC PUSH2 0x7F06 JUMP JUMPDEST DUP2 DUP2 MSTORE CALLER PUSH1 0x20 DUP3 ADD MSTORE SWAP1 PUSH2 0xDEE PUSH2 0xDE7 PUSH1 0x4 DUP1 CALLDATALOAD ADD DUP1 PUSH2 0x7C5C JUMP JUMPDEST CALLDATASIZE SWAP2 PUSH2 0x7006 JUMP JUMPDEST PUSH1 0x40 DUP4 ADD MSTORE PUSH2 0xE0A PUSH2 0xDE7 PUSH1 0x24 PUSH1 0x4 CALLDATALOAD ADD PUSH1 0x4 CALLDATALOAD PUSH1 0x4 ADD PUSH2 0x7C5C JUMP JUMPDEST PUSH1 0x60 DUP4 ADD MSTORE PUSH1 0x44 PUSH1 0x4 CALLDATALOAD ADD CALLDATALOAD PUSH1 0x80 DUP4 ADD MSTORE PUSH1 0x64 PUSH1 0x4 CALLDATALOAD ADD CALLDATALOAD PUSH1 0xA0 DUP4 ADD MSTORE PUSH2 0xE45 PUSH2 0xE3E PUSH1 0x84 PUSH1 0x4 CALLDATALOAD ADD PUSH1 0x4 CALLDATALOAD PUSH1 0x4 ADD PUSH2 0x7E41 JUMP JUMPDEST CALLDATASIZE SWAP2 PUSH2 0x7FA9 JUMP JUMPDEST PUSH1 0xC0 DUP4 ADD MSTORE PUSH2 0xE61 PUSH2 0xE3E PUSH1 0xA4 PUSH1 0x4 CALLDATALOAD ADD PUSH1 0x4 CALLDATALOAD PUSH1 0x4 ADD PUSH2 0x7E41 JUMP JUMPDEST PUSH1 0xE0 DUP4 ADD MSTORE PUSH2 0xE7D PUSH2 0xE3E PUSH1 0xC4 PUSH1 0x4 CALLDATALOAD ADD PUSH1 0x4 CALLDATALOAD PUSH1 0x4 ADD PUSH2 0x7E41 JUMP JUMPDEST PUSH2 0x100 DUP4 ADD MSTORE PUSH1 0xE4 PUSH1 0x4 CALLDATALOAD ADD CALLDATALOAD PUSH1 0x0 MSTORE PUSH1 0x18 PUSH1 0x20 MSTORE PUSH2 0x3CE PUSH2 0xEAC PUSH1 0x1 PUSH1 0x40 PUSH1 0x0 KECCAK256 ADD PUSH1 0x40 MLOAD SWAP3 DUP4 DUP1 SWAP3 PUSH2 0x7106 JUMP JUMPDEST PUSH2 0x120 DUP4 ADD MSTORE PUSH2 0x104 PUSH1 0x4 CALLDATALOAD ADD CALLDATALOAD PUSH1 0x0 MSTORE PUSH1 0x19 PUSH1 0x20 MSTORE PUSH2 0x3CE PUSH2 0xEDC PUSH1 0x1 PUSH1 0x40 PUSH1 0x0 KECCAK256 ADD PUSH1 0x40 MLOAD SWAP3 DUP4 DUP1 SWAP3 PUSH2 0x7106 JUMP JUMPDEST PUSH2 0x140 DUP4 ADD MSTORE PUSH2 0xEFA PUSH2 0xDE7 PUSH2 0x144 PUSH1 0x4 CALLDATALOAD ADD PUSH1 0x4 CALLDATALOAD PUSH1 0x4 ADD PUSH2 0x7C5C JUMP JUMPDEST PUSH2 0x180 DUP4 ADD MSTORE PUSH2 0xF18 PUSH2 0xDE7 PUSH2 0x164 PUSH1 0x4 CALLDATALOAD ADD PUSH1 0x4 CALLDATALOAD PUSH1 0x4 ADD PUSH2 0x7C5C JUMP JUMPDEST PUSH2 0x1A0 DUP4 ADD MSTORE PUSH1 0x4 CALLDATALOAD PUSH2 0x124 DUP2 ADD CALLDATALOAD PUSH2 0x160 DUP5 ADD MSTORE PUSH2 0x184 ADD CALLDATALOAD PUSH2 0x1C0 DUP4 ADD MSTORE CALLER ISZERO PUSH2 0x19D2 JUMPI PUSH2 0xF50 PUSH2 0xF4A DUP3 PUSH2 0x78C8 JUMP JUMPDEST ISZERO PUSH2 0x820D JUMP JUMPDEST PUSH2 0xF5C PUSH2 0xF4A DUP3 PUSH2 0x78C8 JUMP JUMPDEST CALLER PUSH1 0x0 MSTORE PUSH1 0x5 PUSH1 0x20 MSTORE PUSH1 0x40 PUSH1 0x0 KECCAK256 PUSH1 0x1 DUP2 SLOAD ADD SWAP1 SSTORE DUP1 PUSH1 0x0 MSTORE PUSH1 0x4 PUSH1 0x20 MSTORE PUSH1 0x40 PUSH1 0x0 KECCAK256 CALLER PUSH1 0x1 DUP1 PUSH1 0xA0 SHL SUB NOT DUP3 SLOAD AND OR SWAP1 SSTORE DUP1 CALLER PUSH1 0x0 PUSH1 0x0 DUP1 MLOAD PUSH1 0x20 PUSH2 0x939D DUP4 CODECOPY DUP2 MLOAD SWAP2 MSTORE DUP2 DUP1 LOG4 PUSH1 0x15 PUSH1 0x20 MSTORE PUSH1 0x40 PUSH1 0x0 KECCAK256 SWAP1 DUP3 MLOAD DUP3 SSTORE PUSH1 0x1 DUP3 ADD PUSH1 0x1 DUP1 PUSH1 0xA0 SHL SUB PUSH1 0x20 DUP6 ADD MLOAD AND PUSH1 0x1 DUP1 PUSH1 0xA0 SHL SUB NOT DUP3 SLOAD AND OR SWAP1 SSTORE PUSH1 0x40 DUP4 ADD MLOAD SWAP3 DUP4 MLOAD PUSH1 0x1 DUP1 PUSH1 0x40 SHL SUB DUP2 GT PUSH2 0x143C JUMPI PUSH2 0x1001 DUP2 PUSH2 0xFF8 PUSH1 0x2 DUP8 ADD SLOAD PUSH2 0x70CC JUMP JUMPDEST PUSH1 0x2 DUP8 ADD PUSH2 0x7AAC JUMP JUMPDEST PUSH1 0x20 PUSH1 0x1F DUP3 GT PUSH1 0x1 EQ PUSH2 0x1963 JUMPI DUP2 SWAP3 SWAP4 SWAP5 SWAP6 PUSH1 0x0 SWAP3 PUSH2 0x1958 JUMPI JUMPDEST POP POP DUP2 PUSH1 0x1 SHL SWAP2 PUSH1 0x0 NOT SWAP1 PUSH1 0x3 SHL SHR NOT AND OR PUSH1 0x2 DUP5 ADD SSTORE JUMPDEST PUSH1 0x60 DUP2 ADD MLOAD DUP1 MLOAD SWAP1 SWAP4 SWAP1 PUSH1 0x1 PUSH1 0x1 PUSH1 0x40 SHL SUB DUP2 GT PUSH2 0x143C JUMPI PUSH2 0x1065 DUP2 PUSH2 0x105C PUSH1 0x3 DUP6 ADD SLOAD PUSH2 0x70CC JUMP JUMPDEST PUSH1 0x3 DUP6 ADD PUSH2 0x7AAC JUMP JUMPDEST PUSH1 0x20 PUSH1 0x1F DUP3 GT PUSH1 0x1 EQ PUSH2 0x18E9 JUMPI DUP2 SWAP3 SWAP4 SWAP5 SWAP6 PUSH1 0x0 SWAP3 PUSH2 0x18DE JUMPI JUMPDEST POP POP DUP2 PUSH1 0x1 SHL SWAP2 PUSH1 0x0 NOT SWAP1 PUSH1 0x3 SHL SHR NOT AND OR PUSH1 0x3 DUP3 ADD SSTORE JUMPDEST PUSH1 0x80 DUP3 ADD MLOAD PUSH1 0x4 DUP3 ADD SSTORE PUSH1 0xA0 DUP3 ADD MLOAD PUSH1 0x5 DUP3 ADD SSTORE PUSH1 0x6 DUP2 ADD PUSH1 0xC0 DUP4 ADD MLOAD PUSH1 0x20 DUP2 MLOAD SWAP2 PUSH2 0x10C3 DUP4 DUP6 PUSH2 0x8061 JUMP JUMPDEST ADD SWAP2 PUSH1 0x0 MSTORE PUSH1 0x20 PUSH1 0x0 KECCAK256 SWAP2 PUSH1 0x0 SWAP1 JUMPDEST DUP3 DUP3 LT PUSH2 0x1801 JUMPI POP POP POP POP PUSH1 0x7 DUP2 ADD PUSH1 0xE0 DUP4 ADD MLOAD PUSH1 0x20 DUP2 MLOAD SWAP2 PUSH2 0x10F5 DUP4 DUP6 PUSH2 0x8061 JUMP JUMPDEST ADD SWAP2 PUSH1 0x0 MSTORE PUSH1 0x20 PUSH1 0x0 KECCAK256 SWAP2 PUSH1 0x0 SWAP1 JUMPDEST DUP3 DUP3 LT PUSH2 0x1724 JUMPI POP POP POP POP PUSH1 0x8 DUP2 ADD PUSH2 0x100 DUP4 ADD MLOAD PUSH1 0x20 DUP2 MLOAD SWAP2 PUSH2 0x1128 DUP4 DUP6 PUSH2 0x8061 JUMP JUMPDEST ADD SWAP2 PUSH1 0x0 MSTORE PUSH1 0x20 PUSH1 0x0 KECCAK256 SWAP2 PUSH1 0x0 SWAP1 JUMPDEST DUP3 DUP3 LT PUSH2 0x1641 JUMPI POP POP POP POP PUSH2 0x120 DUP3 ADD MLOAD DUP1 MLOAD SWAP1 SWAP4 SWAP1 PUSH1 0x1 PUSH1 0x1 PUSH1 0x40 SHL SUB DUP2 GT PUSH2 0x143C JUMPI PUSH2 0x1175 DUP2 PUSH2 0x116C PUSH1 0x9 DUP7 ADD SLOAD PUSH2 0x70CC JUMP JUMPDEST PUSH1 0x9 DUP7 ADD PUSH2 0x7AAC JUMP JUMPDEST PUSH1 0x20 PUSH1 0x1F DUP3 GT PUSH1 0x1 EQ PUSH2 0x15D2 JUMPI DUP2 SWAP3 SWAP4 SWAP5 SWAP6 PUSH1 0x0 SWAP3 PUSH2 0x15C7 JUMPI JUMPDEST POP POP DUP2 PUSH1 0x1 SHL SWAP2 PUSH1 0x0 NOT SWAP1 PUSH1 0x3 SHL SHR NOT AND OR PUSH1 0x9 DUP4 ADD SSTORE JUMPDEST PUSH2 0x140 DUP4 ADD MLOAD DUP1 MLOAD SWAP1 SWAP4 SWAP1 PUSH1 0x1 PUSH1 0x1 PUSH1 0x40 SHL SUB DUP2 GT PUSH2 0x143C JUMPI PUSH2 0x11DA DUP2 PUSH2 0x11D1 PUSH1 0xA DUP8 ADD SLOAD PUSH2 0x70CC JUMP JUMPDEST PUSH1 0xA DUP8 ADD PUSH2 0x7AAC JUMP JUMPDEST PUSH1 0x20 PUSH1 0x1F DUP3 GT PUSH1 0x1 EQ PUSH2 0x1558 JUMPI DUP2 SWAP3 SWAP4 SWAP5 SWAP6 PUSH1 0x0 SWAP3 PUSH2 0x154D JUMPI JUMPDEST POP POP DUP2 PUSH1 0x1 SHL SWAP2 PUSH1 0x0 NOT SWAP1 PUSH1 0x3 SHL SHR NOT AND OR PUSH1 0xA DUP5 ADD SSTORE JUMPDEST PUSH2 0x160 DUP2 ADD MLOAD PUSH1 0xB DUP5 ADD SSTORE PUSH2 0x180 DUP2 ADD MLOAD DUP1 MLOAD SWAP1 SWAP4 SWAP1 PUSH1 0x1 PUSH1 0x1 PUSH1 0x40 SHL SUB DUP2 GT PUSH2 0x143C JUMPI PUSH2 0x124A DUP2 PUSH2 0x1241 PUSH1 0xC DUP6 ADD SLOAD PUSH2 0x70CC JUMP JUMPDEST PUSH1 0xC DUP6 ADD PUSH2 0x7AAC JUMP JUMPDEST PUSH1 0x20 PUSH1 0x1F DUP3 GT PUSH1 0x1 EQ PUSH2 0x14DE JUMPI DUP2 SWAP3 SWAP4 SWAP5 SWAP6 PUSH1 0x0 SWAP3 PUSH2 0x14D3 JUMPI JUMPDEST POP POP DUP2 PUSH1 0x1 SHL SWAP2 PUSH1 0x0 NOT SWAP1 PUSH1 0x3 SHL SHR NOT AND OR PUSH1 0xC DUP3 ADD SSTORE JUMPDEST PUSH2 0x1A0 DUP3 ADD MLOAD DUP1 MLOAD SWAP1 PUSH1 0x1 PUSH1 0x1 PUSH1 0x40 SHL SUB DUP3 GT PUSH2 0x143C JUMPI PUSH2 0x12AD DUP3 PUSH2 0x12A4 PUSH1 0xD DUP7 ADD SLOAD PUSH2 0x70CC JUMP JUMPDEST PUSH1 0xD DUP7 ADD PUSH2 0x7AAC JUMP JUMPDEST PUSH1 0x20 SWAP1 PUSH1 0x1F DUP4 GT PUSH1 0x1 EQ PUSH2 0x145D JUMPI SWAP2 DUP1 PUSH2 0x240 SWAP5 SWAP3 PUSH1 0x10 SWAP5 PUSH1 0x0 SWAP3 PUSH2 0x1452 JUMPI JUMPDEST POP POP DUP2 PUSH1 0x1 SHL SWAP2 PUSH1 0x0 NOT SWAP1 PUSH1 0x3 SHL SHR NOT AND OR PUSH1 0xD DUP3 ADD SSTORE JUMPDEST PUSH2 0x1C0 DUP5 ADD MLOAD PUSH1 0xE DUP3 ADD SSTORE PUSH1 0xF DUP2 ADD PUSH2 0x1305 PUSH2 0x1E0 DUP7 ADD MLOAD ISZERO ISZERO DUP3 PUSH2 0x78B7 JUMP JUMPDEST PUSH2 0x200 DUP6 ADD MLOAD ISZERO ISZERO DUP2 SLOAD PUSH2 0xFF00 PUSH3 0xFF0000 PUSH2 0x220 DUP10 ADD MLOAD ISZERO ISZERO DUP8 SHL AND SWAP3 PUSH1 0x8 SHL AND SWAP1 PUSH3 0xFFFF00 NOT AND OR OR SWAP1 SSTORE ADD SWAP2 ADD MLOAD SWAP1 DUP2 MLOAD SWAP2 PUSH1 0x1 PUSH1 0x40 SHL DUP4 GT PUSH2 0x143C JUMPI DUP2 SLOAD DUP4 DUP4 SSTORE DUP1 DUP5 LT PUSH2 0x13B9 JUMPI JUMPDEST POP PUSH1 0x20 ADD SWAP1 PUSH1 0x0 MSTORE PUSH1 0x20 PUSH1 0x0 KECCAK256 PUSH1 0x0 SWAP2 JUMPDEST DUP4 DUP4 LT PUSH2 0x139B JUMPI PUSH2 0x1399 DUP6 DUP1 PUSH1 0x0 MSTORE PUSH1 0x17 PUSH1 0x20 MSTORE PUSH1 0x40 PUSH1 0x0 KECCAK256 PUSH1 0x1 PUSH1 0xFF NOT DUP3 SLOAD AND OR SWAP1 SSTORE CALLER PUSH1 0x0 MSTORE PUSH1 0x16 PUSH1 0x20 MSTORE PUSH1 0x40 PUSH1 0x0 KECCAK256 PUSH2 0x81D8 JUMP JUMPDEST STOP JUMPDEST PUSH1 0x6 PUSH1 0x20 DUP3 PUSH2 0x13AD PUSH1 0x1 SWAP5 MLOAD DUP7 PUSH2 0x80AA JUMP JUMPDEST ADD SWAP3 ADD SWAP3 ADD SWAP2 SWAP1 PUSH2 0x1362 JUMP JUMPDEST DUP1 PUSH1 0x6 MUL SWAP1 PUSH1 0x6 DUP3 DIV SUB PUSH2 0x1426 JUMPI DUP4 PUSH1 0x6 MUL PUSH1 0x6 DUP2 DIV DUP6 SUB PUSH2 0x1426 JUMPI DUP4 PUSH1 0x0 MSTORE PUSH1 0x20 PUSH1 0x0 KECCAK256 SWAP2 DUP3 ADD SWAP2 ADD JUMPDEST DUP2 DUP2 LT PUSH2 0x13F1 JUMPI POP PUSH2 0x1351 JUMP JUMPDEST DUP1 PUSH1 0x0 PUSH1 0x6 SWAP3 SSTORE PUSH1 0x0 PUSH1 0x1 DUP3 ADD SSTORE PUSH1 0x0 PUSH1 0x2 DUP3 ADD SSTORE PUSH2 0x1412 PUSH1 0x3 DUP3 ADD PUSH2 0x8018 JUMP JUMPDEST PUSH1 0x0 PUSH1 0x4 DUP3 ADD SSTORE PUSH1 0x0 PUSH1 0x5 DUP3 ADD SSTORE ADD PUSH2 0x13E4 JUMP JUMPDEST PUSH4 0x4E487B71 PUSH1 0xE0 SHL PUSH1 0x0 MSTORE PUSH1 0x11 PUSH1 0x4 MSTORE PUSH1 0x24 PUSH1 0x0 REVERT JUMPDEST PUSH4 0x4E487B71 PUSH1 0xE0 SHL PUSH1 0x0 MSTORE PUSH1 0x41 PUSH1 0x4 MSTORE PUSH1 0x24 PUSH1 0x0 REVERT JUMPDEST ADD MLOAD SWAP1 POP DUP8 DUP1 PUSH2 0x12CD JUMP JUMPDEST SWAP1 PUSH1 0xD DUP5 ADD PUSH1 0x0 MSTORE PUSH1 0x20 PUSH1 0x0 KECCAK256 SWAP2 PUSH1 0x0 JUMPDEST PUSH1 0x1F NOT DUP6 AND DUP2 LT PUSH2 0x14BB JUMPI POP SWAP3 PUSH2 0x240 SWAP5 SWAP3 PUSH1 0x1 SWAP3 PUSH1 0x10 SWAP6 DUP4 PUSH1 0x1F NOT DUP2 AND LT PUSH2 0x14A2 JUMPI JUMPDEST POP POP POP DUP2 SHL ADD PUSH1 0xD DUP3 ADD SSTORE PUSH2 0x12E5 JUMP JUMPDEST ADD MLOAD PUSH1 0x0 NOT PUSH1 0xF8 DUP5 PUSH1 0x3 SHL AND SHR NOT AND SWAP1 SSTORE DUP8 DUP1 DUP1 PUSH2 0x1492 JUMP JUMPDEST SWAP2 SWAP3 PUSH1 0x20 PUSH1 0x1 DUP2 SWAP3 DUP7 DUP6 ADD MLOAD DUP2 SSTORE ADD SWAP5 ADD SWAP3 ADD PUSH2 0x146E JUMP JUMPDEST ADD MLOAD SWAP1 POP DUP6 DUP1 PUSH2 0x1264 JUMP JUMPDEST PUSH1 0xC DUP4 ADD PUSH1 0x0 MSTORE PUSH1 0x20 PUSH1 0x0 KECCAK256 SWAP1 PUSH1 0x0 JUMPDEST PUSH1 0x1F NOT DUP5 AND DUP2 LT PUSH2 0x1535 JUMPI POP PUSH1 0x1 SWAP4 SWAP5 SWAP6 SWAP7 DUP4 PUSH1 0x1F NOT DUP2 AND LT PUSH2 0x151C JUMPI JUMPDEST POP POP POP DUP2 SHL ADD PUSH1 0xC DUP3 ADD SSTORE PUSH2 0x127C JUMP JUMPDEST ADD MLOAD PUSH1 0x0 NOT PUSH1 0xF8 DUP5 PUSH1 0x3 SHL AND SHR NOT AND SWAP1 SSTORE DUP6 DUP1 DUP1 PUSH2 0x150C JUMP JUMPDEST SWAP1 SWAP2 PUSH1 0x20 PUSH1 0x1 DUP2 SWAP3 DUP6 DUP12 ADD MLOAD DUP2 SSTORE ADD SWAP4 ADD SWAP2 ADD PUSH2 0x14EE JUMP JUMPDEST ADD MLOAD SWAP1 POP DUP6 DUP1 PUSH2 0x11F4 JUMP JUMPDEST PUSH1 0xA DUP6 ADD PUSH1 0x0 MSTORE PUSH1 0x20 PUSH1 0x0 KECCAK256 SWAP1 PUSH1 0x0 JUMPDEST PUSH1 0x1F NOT DUP5 AND DUP2 LT PUSH2 0x15AF JUMPI POP PUSH1 0x1 SWAP4 SWAP5 SWAP6 SWAP7 DUP4 PUSH1 0x1F NOT DUP2 AND LT PUSH2 0x1596 JUMPI JUMPDEST POP POP POP DUP2 SHL ADD PUSH1 0xA DUP5 ADD SSTORE PUSH2 0x120C JUMP JUMPDEST ADD MLOAD PUSH1 0x0 NOT PUSH1 0xF8 DUP5 PUSH1 0x3 SHL AND SHR NOT AND SWAP1 SSTORE DUP6 DUP1 DUP1 PUSH2 0x1586 JUMP JUMPDEST SWAP1 SWAP2 PUSH1 0x20 PUSH1 0x1 DUP2 SWAP3 DUP6 DUP12 ADD MLOAD DUP2 SSTORE ADD SWAP4 ADD SWAP2 ADD PUSH2 0x1568 JUMP JUMPDEST ADD MLOAD SWAP1 POP DUP6 DUP1 PUSH2 0x118F JUMP JUMPDEST PUSH1 0x9 DUP5 ADD PUSH1 0x0 MSTORE PUSH1 0x20 PUSH1 0x0 KECCAK256 SWAP1 PUSH1 0x0 JUMPDEST PUSH1 0x1F NOT DUP5 AND DUP2 LT PUSH2 0x1629 JUMPI POP PUSH1 0x1 SWAP4 SWAP5 SWAP6 SWAP7 DUP4 PUSH1 0x1F NOT DUP2 AND LT PUSH2 0x1610 JUMPI JUMPDEST POP POP POP DUP2 SHL ADD PUSH1 0x9 DUP4 ADD SSTORE PUSH2 0x11A7 JUMP JUMPDEST ADD MLOAD PUSH1 0x0 NOT PUSH1 0xF8 DUP5 PUSH1 0x3 SHL AND SHR NOT AND SWAP1 SSTORE DUP6 DUP1 DUP1 PUSH2 0x1600 JUMP JUMPDEST SWAP1 SWAP2 PUSH1 0x20 PUSH1 0x1 DUP2 SWAP3 DUP6 DUP12 ADD MLOAD DUP2 SSTORE ADD SWAP4 ADD SWAP2 ADD PUSH2 0x15E2 JUMP JUMPDEST DUP1 MLOAD DUP1 MLOAD SWAP1 PUSH1 0x1 PUSH1 0x1 PUSH1 0x40 SHL SUB DUP3 GT PUSH2 0x143C JUMPI PUSH2 0x1668 DUP3 PUSH2 0x1662 DUP9 SLOAD PUSH2 0x70CC JUMP JUMPDEST DUP9 PUSH2 0x7AAC JUMP JUMPDEST PUSH1 0x20 SWAP1 PUSH1 0x1F DUP4 GT PUSH1 0x1 EQ PUSH2 0x16B4 JUMPI SWAP3 DUP3 PUSH1 0x1 SWAP5 SWAP4 PUSH1 0x20 SWAP4 DUP7 SWAP6 PUSH1 0x0 SWAP3 PUSH2 0x16A9 JUMPI JUMPDEST POP POP PUSH1 0x0 NOT PUSH1 0x3 DUP4 SWAP1 SHL SHR NOT AND SWAP1 DUP5 SHL OR DUP8 SSTORE JUMPDEST ADD SWAP5 ADD SWAP2 ADD SWAP1 SWAP3 PUSH2 0x1137 JUMP JUMPDEST ADD MLOAD SWAP1 POP DUP13 DUP1 PUSH2 0x1689 JUMP JUMPDEST SWAP1 DUP7 PUSH1 0x0 MSTORE PUSH1 0x20 PUSH1 0x0 KECCAK256 SWAP2 PUSH1 0x0 JUMPDEST PUSH1 0x1F NOT DUP6 AND DUP2 LT PUSH2 0x170C JUMPI POP DUP4 PUSH1 0x20 SWAP4 PUSH1 0x1 SWAP7 SWAP4 DUP8 SWAP7 SWAP4 DUP8 SWAP5 PUSH1 0x1F NOT DUP2 AND LT PUSH2 0x16F3 JUMPI JUMPDEST POP POP POP DUP2 SHL ADD DUP8 SSTORE PUSH2 0x169D JUMP JUMPDEST ADD MLOAD PUSH1 0x0 NOT PUSH1 0xF8 DUP5 PUSH1 0x3 SHL AND SHR NOT AND SWAP1 SSTORE DUP13 DUP1 DUP1 PUSH2 0x16E6 JUMP JUMPDEST SWAP2 SWAP3 PUSH1 0x20 PUSH1 0x1 DUP2 SWAP3 DUP7 DUP6 ADD MLOAD DUP2 SSTORE ADD SWAP5 ADD SWAP3 ADD PUSH2 0x16C2 JUMP JUMPDEST DUP1 MLOAD DUP1 MLOAD SWAP1 PUSH1 0x1 PUSH1 0x1 PUSH1 0x40 SHL SUB DUP3 GT PUSH2 0x143C JUMPI PUSH2 0x1745 DUP3 PUSH2 0x1662 DUP9 SLOAD PUSH2 0x70CC JUMP JUMPDEST PUSH1 0x20 SWAP1 PUSH1 0x1F DUP4 GT PUSH1 0x1 EQ PUSH2 0x1791 JUMPI SWAP3 DUP3 PUSH1 0x1 SWAP5 SWAP4 PUSH1 0x20 SWAP4 DUP7 SWAP6 PUSH1 0x0 SWAP3 PUSH2 0x1786 JUMPI JUMPDEST POP POP PUSH1 0x0 NOT PUSH1 0x3 DUP4 SWAP1 SHL SHR NOT AND SWAP1 DUP5 SHL OR DUP8 SSTORE JUMPDEST ADD SWAP5 ADD SWAP2 ADD SWAP1 SWAP3 PUSH2 0x1104 JUMP JUMPDEST ADD MLOAD SWAP1 POP DUP13 DUP1 PUSH2 0x1766 JUMP JUMPDEST SWAP1 DUP7 PUSH1 0x0 MSTORE PUSH1 0x20 PUSH1 0x0 KECCAK256 SWAP2 PUSH1 0x0 JUMPDEST PUSH1 0x1F NOT DUP6 AND DUP2 LT PUSH2 0x17E9 JUMPI POP DUP4 PUSH1 0x20 SWAP4 PUSH1 0x1 SWAP7 SWAP4 DUP8 SWAP7 SWAP4 DUP8 SWAP5 PUSH1 0x1F NOT DUP2 AND LT PUSH2 0x17D0 JUMPI JUMPDEST POP POP POP DUP2 SHL ADD DUP8 SSTORE PUSH2 0x177A JUMP JUMPDEST ADD MLOAD PUSH1 0x0 NOT PUSH1 0xF8 DUP5 PUSH1 0x3 SHL AND SHR NOT AND SWAP1 SSTORE DUP13 DUP1 DUP1 PUSH2 0x17C3 JUMP JUMPDEST SWAP2 SWAP3 PUSH1 0x20 PUSH1 0x1 DUP2 SWAP3 DUP7 DUP6 ADD MLOAD DUP2 SSTORE ADD SWAP5 ADD SWAP3 ADD PUSH2 0x179F JUMP JUMPDEST DUP1 MLOAD DUP1 MLOAD SWAP1 PUSH1 0x1 PUSH1 0x1 PUSH1 0x40 SHL SUB DUP3 GT PUSH2 0x143C JUMPI PUSH2 0x1822 DUP3 PUSH2 0x1662 DUP9 SLOAD PUSH2 0x70CC JUMP JUMPDEST PUSH1 0x20 SWAP1 PUSH1 0x1F DUP4 GT PUSH1 0x1 EQ PUSH2 0x186E JUMPI SWAP3 DUP3 PUSH1 0x1 SWAP5 SWAP4 PUSH1 0x20 SWAP4 DUP7 SWAP6 PUSH1 0x0 SWAP3 PUSH2 0x1863 JUMPI JUMPDEST POP POP PUSH1 0x0 NOT PUSH1 0x3 DUP4 SWAP1 SHL SHR NOT AND SWAP1 DUP5 SHL OR DUP8 SSTORE JUMPDEST ADD SWAP5 ADD SWAP2 ADD SWAP1 SWAP3 PUSH2 0x10D2 JUMP JUMPDEST ADD MLOAD SWAP1 POP DUP13 DUP1 PUSH2 0x1843 JUMP JUMPDEST SWAP1 DUP7 PUSH1 0x0 MSTORE PUSH1 0x20 PUSH1 0x0 KECCAK256 SWAP2 PUSH1 0x0 JUMPDEST PUSH1 0x1F NOT DUP6 AND DUP2 LT PUSH2 0x18C6 JUMPI POP DUP4 PUSH1 0x20 SWAP4 PUSH1 0x1 SWAP7 SWAP4 DUP8 SWAP7 SWAP4 DUP8 SWAP5 PUSH1 0x1F NOT DUP2 AND LT PUSH2 0x18AD JUMPI JUMPDEST POP POP POP DUP2 SHL ADD DUP8 SSTORE PUSH2 0x1857 JUMP JUMPDEST ADD MLOAD PUSH1 0x0 NOT PUSH1 0xF8 DUP5 PUSH1 0x3 SHL AND SHR NOT AND SWAP1 SSTORE DUP13 DUP1 DUP1 PUSH2 0x18A0 JUMP JUMPDEST SWAP2 SWAP3 PUSH1 0x20 PUSH1 0x1 DUP2 SWAP3 DUP7 DUP6 ADD MLOAD DUP2 SSTORE ADD SWAP5 ADD SWAP3 ADD PUSH2 0x187C JUMP JUMPDEST ADD MLOAD SWAP1 POP DUP6 DUP1 PUSH2 0x107F JUMP JUMPDEST PUSH1 0x3 DUP4 ADD PUSH1 0x0 MSTORE PUSH1 0x20 PUSH1 0x0 KECCAK256 SWAP1 PUSH1 0x0 JUMPDEST PUSH1 0x1F NOT DUP5 AND DUP2 LT PUSH2 0x1940 JUMPI POP PUSH1 0x1 SWAP4 SWAP5 SWAP6 SWAP7 DUP4 PUSH1 0x1F NOT DUP2 AND LT PUSH2 0x1927 JUMPI JUMPDEST POP POP POP DUP2 SHL ADD PUSH1 0x3 DUP3 ADD SSTORE PUSH2 0x1097 JUMP JUMPDEST ADD MLOAD PUSH1 0x0 NOT PUSH1 0xF8 DUP5 PUSH1 0x3 SHL AND SHR NOT AND SWAP1 SSTORE DUP6 DUP1 DUP1 PUSH2 0x1917 JUMP JUMPDEST SWAP1 SWAP2 PUSH1 0x20 PUSH1 0x1 DUP2 SWAP3 DUP6 DUP12 ADD MLOAD DUP2 SSTORE ADD SWAP4 ADD SWAP2 ADD PUSH2 0x18F9 JUMP JUMPDEST ADD MLOAD SWAP1 POP DUP6 DUP1 PUSH2 0x101B JUMP JUMPDEST PUSH1 0x2 DUP6 ADD PUSH1 0x0 MSTORE PUSH1 0x20 PUSH1 0x0 KECCAK256 SWAP1 PUSH1 0x0 JUMPDEST PUSH1 0x1F NOT DUP5 AND DUP2 LT PUSH2 0x19BA JUMPI POP PUSH1 0x1 SWAP4 SWAP5 SWAP6 SWAP7 DUP4 PUSH1 0x1F NOT DUP2 AND LT PUSH2 0x19A1 JUMPI JUMPDEST POP POP POP DUP2 SHL ADD PUSH1 0x2 DUP5 ADD SSTORE PUSH2 0x1033 JUMP JUMPDEST ADD MLOAD PUSH1 0x0 NOT PUSH1 0xF8 DUP5 PUSH1 0x3 SHL AND SHR NOT AND SWAP1 SSTORE DUP6 DUP1 DUP1 PUSH2 0x1991 JUMP JUMPDEST SWAP1 SWAP2 PUSH1 0x20 PUSH1 0x1 DUP2 SWAP3 DUP6 DUP12 ADD MLOAD DUP2 SSTORE ADD SWAP4 ADD SWAP2 ADD PUSH2 0x1973 JUMP JUMPDEST PUSH1 0x64 PUSH1 0x40 MLOAD PUSH3 0x461BCD PUSH1 0xE5 SHL DUP2 MSTORE PUSH1 0x20 PUSH1 0x4 DUP3 ADD MSTORE PUSH1 0x20 PUSH1 0x24 DUP3 ADD MSTORE PUSH32 0x4552433732313A206D696E7420746F20746865207A65726F2061646472657373 PUSH1 0x44 DUP3 ADD MSTORE REVERT JUMPDEST PUSH1 0x40 MLOAD PUSH3 0x461BCD PUSH1 0xE5 SHL DUP2 MSTORE PUSH1 0x20 PUSH1 0x4 DUP3 ADD MSTORE PUSH1 0x25 PUSH1 0x24 DUP3 ADD MSTORE PUSH32 0x53756243617465676F7279204944206D75737420626520677265617465722074 PUSH1 0x44 DUP3 ADD MSTORE PUSH5 0x68616E203 PUSH1 0xDC SHL PUSH1 0x64 DUP3 ADD MSTORE PUSH1 0x84 SWAP1 REVERT JUMPDEST PUSH1 0x40 MLOAD PUSH3 0x461BCD PUSH1 0xE5 SHL DUP2 MSTORE PUSH1 0x20 PUSH1 0x4 DUP3 ADD MSTORE PUSH1 0x22 PUSH1 0x24 DUP3 ADD MSTORE PUSH32 0x43617465676F7279204944206D7573742062652067726561746572207468616E PUSH1 0x44 DUP3 ADD MSTORE PUSH2 0x203 PUSH1 0xF4 SHL PUSH1 0x64 DUP3 ADD MSTORE PUSH1 0x84 SWAP1 REVERT JUMPDEST PUSH1 0x64 PUSH1 0x40 MLOAD PUSH3 0x461BCD PUSH1 0xE5 SHL DUP2 MSTORE PUSH1 0x20 PUSH1 0x4 DUP3 ADD MSTORE PUSH1 0x20 PUSH1 0x24 DUP3 ADD MSTORE PUSH32 0x4D7573742062652076657269666965642073656C6C6572206F72206F776E6572 PUSH1 0x44 DUP3 ADD MSTORE REVERT JUMPDEST POP PUSH1 0x0 SLOAD PUSH1 0x1 PUSH1 0x1 PUSH1 0xA0 SHL SUB AND CALLER EQ PUSH2 0xCB8 JUMP JUMPDEST PUSH4 0x4E487B71 PUSH1 0xE0 SHL PUSH1 0x0 MSTORE PUSH1 0x21 PUSH1 0x4 MSTORE PUSH1 0x24 PUSH1 0x0 REVERT JUMPDEST CALLVALUE PUSH2 0x5E2 JUMPI PUSH1 0x0 CALLDATASIZE PUSH1 0x3 NOT ADD SLT PUSH2 0x5E2 JUMPI PUSH1 0x20 PUSH1 0xD SLOAD PUSH1 0x40 MLOAD SWAP1 DUP2 MSTORE RETURN JUMPDEST CALLVALUE PUSH2 0x5E2 JUMPI PUSH1 0x20 DUP1 PUSH1 0x3 NOT CALLDATASIZE ADD SLT PUSH2 0x5E2 JUMPI PUSH1 0x1 PUSH1 0x1 PUSH1 0x40 SHL SUB PUSH1 0x4 CALLDATALOAD DUP2 DUP2 GT PUSH2 0x5E2 JUMPI PUSH2 0x1B77 SWAP1 CALLDATASIZE SWAP1 PUSH1 0x4 ADD PUSH2 0x703D JUMP JUMPDEST SWAP1 PUSH2 0x1B80 PUSH2 0x750D JUMP JUMPDEST PUSH2 0x1B8C DUP3 MLOAD ISZERO ISZERO PUSH2 0x84EF JUMP JUMPDEST PUSH2 0x1B97 PUSH1 0xB SLOAD PUSH2 0x847C JUMP JUMPDEST SWAP1 DUP2 PUSH1 0xB SSTORE PUSH1 0x40 MLOAD PUSH2 0x1BA8 DUP2 PUSH2 0x6FAD JUMP JUMPDEST PUSH1 0x0 DUP2 MSTORE PUSH1 0x40 MLOAD PUSH2 0x1BB8 DUP2 PUSH2 0x6F5C JUMP JUMPDEST DUP4 DUP2 MSTORE DUP6 DUP2 ADD DUP6 DUP2 MSTORE PUSH1 0x40 DUP3 ADD SWAP1 PUSH1 0x1 SWAP6 DUP7 DUP4 MSTORE PUSH1 0x60 DUP5 ADD SWAP5 DUP6 MSTORE PUSH1 0x0 MSTORE PUSH1 0x18 DUP9 MSTORE PUSH1 0x40 PUSH1 0x0 KECCAK256 SWAP3 MLOAD DUP4 SSTORE DUP6 DUP4 ADD SWAP1 MLOAD DUP1 MLOAD SWAP1 DUP7 DUP3 GT PUSH2 0x143C JUMPI PUSH2 0x1C06 DUP3 PUSH2 0x1C00 DUP6 SLOAD PUSH2 0x70CC JUMP JUMPDEST DUP6 PUSH2 0x7AAC JUMP JUMPDEST DUP10 SWAP1 PUSH1 0x1F DUP4 GT PUSH1 0x1 EQ PUSH2 0x1CF5 JUMPI SWAP2 DUP1 PUSH2 0x1C45 SWAP5 SWAP3 PUSH1 0x3 SWAP8 SWAP7 SWAP5 PUSH1 0x0 SWAP3 PUSH2 0x1CEA JUMPI JUMPDEST POP POP PUSH1 0x0 NOT DUP3 DUP9 SHL SHR NOT AND SWAP1 DUP10 SHL OR SWAP1 SSTORE JUMPDEST MLOAD ISZERO ISZERO PUSH1 0x2 DUP4 ADD PUSH2 0x78B7 JUMP JUMPDEST ADD SWAP1 MLOAD DUP1 MLOAD SWAP3 DUP4 GT PUSH2 0x143C JUMPI PUSH1 0x1 PUSH1 0x40 SHL DUP4 GT PUSH2 0x143C JUMPI DUP6 SWAP1 DUP3 SLOAD DUP5 DUP5 SSTORE DUP1 DUP6 LT PUSH2 0x1CCD JUMPI JUMPDEST POP ADD SWAP1 PUSH1 0x0 MSTORE DUP5 PUSH1 0x0 KECCAK256 PUSH1 0x0 JUMPDEST DUP4 DUP2 LT PUSH2 0x1CBC JUMPI PUSH1 0xB SLOAD PUSH1 0x40 MLOAD DUP9 DUP2 MSTORE PUSH32 0x11C167CC9B439F0AD8BEC5588159F1B06B813BC38D50C867A41B23B077BE2C1A SWAP1 DUP1 PUSH2 0x1CB7 DUP2 DUP13 ADD DUP12 PUSH2 0x6BEE JUMP JUMPDEST SUB SWAP1 LOG2 STOP JUMPDEST DUP3 MLOAD DUP3 DUP3 ADD SSTORE SWAP2 DUP7 ADD SWAP2 DUP5 ADD PUSH2 0x1C78 JUMP JUMPDEST PUSH2 0x1CE4 SWAP1 DUP5 PUSH1 0x0 MSTORE DUP6 DUP5 PUSH1 0x0 KECCAK256 SWAP2 DUP3 ADD SWAP2 ADD PUSH2 0x7A95 JUMP JUMPDEST DUP8 PUSH2 0x1C6B JUMP JUMPDEST ADD MLOAD SWAP1 POP DUP13 DUP1 PUSH2 0x1C27 JUMP JUMPDEST DUP9 SWAP3 SWAP2 PUSH1 0x1F NOT DUP4 AND SWAP2 DUP6 PUSH1 0x0 MSTORE DUP13 PUSH1 0x0 KECCAK256 SWAP3 DUP14 PUSH1 0x0 SWAP1 JUMPDEST DUP3 DUP3 LT PUSH2 0x1D4F JUMPI POP POP SWAP2 PUSH1 0x3 SWAP9 SWAP8 SWAP6 SWAP4 SWAP2 DUP6 PUSH2 0x1C45 SWAP9 SWAP7 SWAP5 LT PUSH2 0x1D37 JUMPI JUMPDEST POP POP POP DUP2 SHL ADD SWAP1 SSTORE PUSH2 0x1C39 JUMP JUMPDEST ADD MLOAD PUSH1 0x0 NOT DUP4 DUP11 SHL PUSH1 0xF8 AND SHR NOT AND SWAP1 SSTORE DUP13 DUP1 DUP1 PUSH2 0x1D2A JUMP JUMPDEST DUP4 DUP6 ADD MLOAD DUP7 SSTORE DUP14 SWAP8 SWAP1 SWAP6 ADD SWAP5 SWAP4 DUP5 ADD SWAP4 ADD DUP15 PUSH2 0x1D0C JUMP JUMPDEST CALLVALUE PUSH2 0x5E2 JUMPI PUSH1 0x0 CALLDATASIZE PUSH1 0x3 NOT ADD SLT PUSH2 0x5E2 JUMPI PUSH1 0xB SLOAD PUSH2 0x1D83 DUP2 PUSH2 0x7F92 JUMP JUMPDEST PUSH2 0x1D90 PUSH1 0x40 MLOAD SWAP2 DUP3 PUSH2 0x6FC8 JUMP JUMPDEST DUP2 DUP2 MSTORE PUSH1 0x1F NOT PUSH2 0x1D9F DUP4 PUSH2 0x7F92 JUMP JUMPDEST ADD CALLDATASIZE PUSH1 0x20 DUP4 ADD CALLDATACOPY PUSH2 0x1DAF DUP3 PUSH2 0x7F92 JUMP JUMPDEST SWAP2 PUSH2 0x1DBD PUSH1 0x40 MLOAD SWAP4 DUP5 PUSH2 0x6FC8 JUMP JUMPDEST DUP1 DUP4 MSTORE PUSH2 0x1DD9 PUSH1 0x1F NOT PUSH2 0x1DCF DUP4 PUSH2 0x7F92 JUMP JUMPDEST ADD PUSH1 0x20 DUP6 ADD PUSH2 0x869F JUMP JUMPDEST PUSH2 0x1DE2 DUP2 PUSH2 0x7F92 JUMP JUMPDEST SWAP3 PUSH2 0x1DF0 PUSH1 0x40 MLOAD SWAP5 DUP6 PUSH2 0x6FC8 JUMP JUMPDEST DUP2 DUP5 MSTORE PUSH1 0x1F NOT PUSH2 0x1DFF DUP4 PUSH2 0x7F92 JUMP JUMPDEST ADD CALLDATASIZE PUSH1 0x20 DUP7 ADD CALLDATACOPY PUSH2 0x1E0F DUP3 PUSH2 0x7F92 JUMP JUMPDEST SWAP1 PUSH2 0x1E1D PUSH1 0x40 MLOAD SWAP3 DUP4 PUSH2 0x6FC8 JUMP JUMPDEST DUP3 DUP3 MSTORE PUSH2 0x1E29 DUP4 PUSH2 0x7F92 JUMP JUMPDEST SWAP3 PUSH2 0x1E3C PUSH1 0x20 DUP5 ADD SWAP5 PUSH1 0x1F NOT ADD DUP6 PUSH2 0x869F JUMP JUMPDEST PUSH1 0x1 JUMPDEST DUP2 DUP2 GT ISZERO PUSH2 0x1F78 JUMPI POP POP PUSH2 0x1E5E PUSH1 0x40 MLOAD SWAP5 PUSH1 0x80 DUP7 MSTORE PUSH1 0x80 DUP7 ADD SWAP1 PUSH2 0x74D9 JUMP JUMPDEST DUP5 DUP2 SUB PUSH1 0x20 DUP7 ADD MSTORE DUP2 MLOAD DUP1 DUP3 MSTORE PUSH1 0x20 DUP3 ADD SWAP2 PUSH1 0x20 DUP1 DUP4 PUSH1 0x5 SHL DUP4 ADD ADD SWAP5 ADD SWAP3 PUSH1 0x0 SWAP2 JUMPDEST DUP4 DUP4 LT PUSH2 0x1F4B JUMPI POP POP POP POP POP DUP4 DUP2 SUB PUSH1 0x40 DUP6 ADD MSTORE PUSH1 0x20 DUP1 DUP7 MLOAD SWAP3 DUP4 DUP2 MSTORE ADD SWAP6 ADD SWAP1 PUSH1 0x0 JUMPDEST DUP2 DUP2 LT PUSH2 0x1F33 JUMPI POP POP POP DUP3 DUP5 SUB PUSH1 0x60 DUP5 ADD MSTORE MLOAD DUP1 DUP5 MSTORE PUSH1 0x20 DUP5 ADD SWAP1 PUSH1 0x20 DUP2 PUSH1 0x5 SHL DUP7 ADD ADD SWAP3 SWAP2 PUSH1 0x0 SWAP1 JUMPDEST DUP3 DUP3 LT PUSH2 0x1EDC JUMPI DUP6 DUP6 SUB DUP7 RETURN JUMPDEST SWAP1 SWAP2 SWAP3 SWAP4 PUSH1 0x1F NOT DUP8 DUP3 SUB ADD DUP3 MSTORE DUP5 MLOAD SWAP1 PUSH1 0x20 DUP1 DUP4 MLOAD SWAP3 DUP4 DUP2 MSTORE ADD SWAP3 ADD SWAP1 PUSH1 0x0 SWAP1 JUMPDEST DUP1 DUP3 LT PUSH2 0x1F1B JUMPI POP POP POP PUSH1 0x20 DUP1 PUSH1 0x1 SWAP3 SWAP7 ADD SWAP3 ADD SWAP3 ADD SWAP1 SWAP3 SWAP2 PUSH2 0x1ECF JUMP JUMPDEST SWAP1 SWAP2 SWAP3 PUSH1 0x20 DUP1 PUSH1 0x1 SWAP3 DUP7 MLOAD DUP2 MSTORE ADD SWAP5 ADD SWAP3 ADD SWAP1 PUSH2 0x1EFD JUMP JUMPDEST DUP3 MLOAD ISZERO ISZERO DUP8 MSTORE PUSH1 0x20 SWAP7 DUP8 ADD SWAP7 SWAP1 SWAP3 ADD SWAP2 PUSH1 0x1 ADD PUSH2 0x1EA5 JUMP JUMPDEST SWAP1 SWAP2 SWAP3 SWAP4 SWAP5 PUSH1 0x20 DUP1 PUSH2 0x1F69 PUSH1 0x1 SWAP4 PUSH1 0x1F NOT DUP7 DUP3 SUB ADD DUP8 MSTORE DUP10 MLOAD PUSH2 0x6BEE JUMP JUMPDEST SWAP8 ADD SWAP4 ADD SWAP4 ADD SWAP2 SWAP4 SWAP3 SWAP1 PUSH2 0x1E81 JUMP JUMPDEST DUP1 PUSH1 0x0 MSTORE PUSH1 0x18 PUSH1 0x20 MSTORE PUSH1 0x40 PUSH1 0x0 KECCAK256 SWAP1 PUSH2 0x1FCB PUSH1 0x3 PUSH1 0x40 MLOAD SWAP4 PUSH2 0x1F99 DUP6 PUSH2 0x6F5C JUMP JUMPDEST DUP1 SLOAD DUP6 MSTORE PUSH1 0x40 MLOAD PUSH2 0x1FB1 DUP2 PUSH2 0x3CE DUP2 PUSH1 0x1 DUP7 ADD PUSH2 0x7106 JUMP JUMPDEST PUSH1 0x20 DUP7 ADD MSTORE PUSH1 0xFF PUSH1 0x2 DUP3 ADD SLOAD AND ISZERO ISZERO PUSH1 0x40 DUP7 ADD MSTORE ADD PUSH2 0x8650 JUMP JUMPDEST PUSH1 0x60 DUP4 ADD MSTORE DUP2 MLOAD PUSH2 0x1FE6 JUMPI JUMPDEST PUSH2 0x1FE1 SWAP2 POP PUSH2 0x847C JUMP JUMPDEST PUSH2 0x1E3F JUMP JUMPDEST DUP1 PUSH1 0x0 NOT DUP2 ADD GT PUSH2 0x1426 JUMPI PUSH1 0x60 DUP3 PUSH2 0x1FE1 SWAP4 MLOAD PUSH2 0x2007 PUSH1 0x0 NOT DUP6 ADD DUP12 PUSH2 0x84DB JUMP JUMPDEST MSTORE PUSH1 0x20 DUP2 ADD MLOAD PUSH2 0x201B PUSH1 0x0 NOT DUP6 ADD DUP9 PUSH2 0x84DB JUMP JUMPDEST MSTORE PUSH2 0x202A PUSH1 0x0 NOT DUP5 ADD DUP8 PUSH2 0x84DB JUMP JUMPDEST POP PUSH1 0x40 DUP2 ADD MLOAD ISZERO ISZERO PUSH2 0x2040 PUSH1 0x0 NOT DUP6 ADD DUP13 PUSH2 0x84DB JUMP JUMPDEST MSTORE ADD MLOAD PUSH2 0x2051 PUSH1 0x0 NOT DUP4 ADD DUP8 PUSH2 0x84DB JUMP JUMPDEST MSTORE PUSH2 0x2060 PUSH1 0x0 NOT DUP3 ADD DUP7 PUSH2 0x84DB JUMP JUMPDEST POP PUSH2 0x1FD7 JUMP JUMPDEST CALLVALUE PUSH2 0x5E2 JUMPI PUSH1 0x60 CALLDATASIZE PUSH1 0x3 NOT ADD SLT PUSH2 0x5E2 JUMPI PUSH1 0x4 CALLDATALOAD PUSH1 0x1 PUSH1 0x1 PUSH1 0x40 SHL SUB DUP2 GT PUSH2 0x5E2 JUMPI PUSH2 0x2096 SWAP1 CALLDATASIZE SWAP1 PUSH1 0x4 ADD PUSH2 0x703D JUMP JUMPDEST PUSH1 0x24 CALLDATALOAD PUSH1 0x1 PUSH1 0x1 PUSH1 0x40 SHL SUB DUP2 GT PUSH2 0x5E2 JUMPI PUSH2 0x20B5 SWAP1 CALLDATASIZE SWAP1 PUSH1 0x4 ADD PUSH2 0x703D JUMP JUMPDEST SWAP1 PUSH1 0x44 CALLDATALOAD PUSH1 0x1 PUSH1 0x1 PUSH1 0x40 SHL SUB DUP2 GT PUSH2 0x5E2 JUMPI PUSH2 0x20D5 SWAP1 CALLDATASIZE SWAP1 PUSH1 0x4 ADD PUSH2 0x703D JUMP JUMPDEST SWAP2 PUSH2 0x20E1 CALLER ISZERO ISZERO PUSH2 0x7A14 JUMP JUMPDEST CALLER PUSH1 0x0 MSTORE PUSH1 0x14 PUSH1 0x20 MSTORE PUSH1 0xFF PUSH1 0x40 PUSH1 0x0 KECCAK256 SLOAD AND PUSH2 0x24C6 JUMPI PUSH2 0x2103 DUP3 MLOAD ISZERO ISZERO PUSH2 0x7A52 JUMP JUMPDEST DUP1 MLOAD ISZERO PUSH2 0x2489 JUMPI PUSH1 0x40 MLOAD SWAP3 PUSH2 0x2117 DUP5 PUSH2 0x6F77 JUMP JUMPDEST DUP3 DUP5 MSTORE PUSH1 0x20 DUP5 ADD SWAP2 DUP3 MSTORE PUSH1 0x40 DUP5 ADD MSTORE TIMESTAMP PUSH1 0x60 DUP5 ADD MSTORE PUSH1 0x1 PUSH1 0x80 DUP5 ADD MSTORE CALLER PUSH1 0x0 MSTORE PUSH1 0x10 PUSH1 0x20 MSTORE PUSH1 0x40 PUSH1 0x0 KECCAK256 SWAP1 DUP4 MLOAD DUP1 MLOAD SWAP1 PUSH1 0x1 DUP1 PUSH1 0x40 SHL SUB DUP3 GT PUSH2 0x143C JUMPI DUP2 SWAP1 PUSH2 0x216A DUP3 PUSH2 0x2164 DUP8 SLOAD PUSH2 0x70CC JUMP JUMPDEST DUP8 PUSH2 0x7AAC JUMP JUMPDEST PUSH1 0x20 SWAP1 PUSH1 0x1F DUP4 GT PUSH1 0x1 EQ PUSH2 0x241D JUMPI PUSH1 0x0 SWAP3 PUSH2 0x2412 JUMPI JUMPDEST POP POP DUP2 PUSH1 0x1 SHL SWAP2 PUSH1 0x0 NOT SWAP1 PUSH1 0x3 SHL SHR NOT AND OR DUP3 SSTORE JUMPDEST MLOAD DUP1 MLOAD SWAP1 SWAP4 SWAP1 PUSH1 0x1 PUSH1 0x1 PUSH1 0x40 SHL SUB DUP2 GT PUSH2 0x143C JUMPI PUSH2 0x21C3 DUP2 PUSH2 0x21BA PUSH1 0x1 DUP7 ADD SLOAD PUSH2 0x70CC JUMP JUMPDEST PUSH1 0x1 DUP7 ADD PUSH2 0x7AAC JUMP JUMPDEST PUSH1 0x20 PUSH1 0x1F DUP3 GT PUSH1 0x1 EQ PUSH2 0x23A3 JUMPI DUP2 SWAP3 SWAP4 SWAP5 SWAP6 PUSH1 0x0 SWAP3 PUSH2 0x2398 JUMPI JUMPDEST POP POP DUP2 PUSH1 0x1 SHL SWAP2 PUSH1 0x0 NOT SWAP1 PUSH1 0x3 SHL SHR NOT AND OR PUSH1 0x1 DUP4 ADD SSTORE JUMPDEST PUSH1 0x40 DUP2 ADD MLOAD DUP1 MLOAD PUSH1 0x2 DUP5 ADD SWAP2 PUSH1 0x1 PUSH1 0x1 PUSH1 0x40 SHL SUB DUP3 GT PUSH2 0x143C JUMPI PUSH2 0x221D DUP3 PUSH2 0x1C00 DUP6 SLOAD PUSH2 0x70CC JUMP JUMPDEST PUSH1 0x20 SWAP1 PUSH1 0x1F DUP4 GT PUSH1 0x1 EQ PUSH2 0x2326 JUMPI SWAP3 DUP3 PUSH1 0x80 SWAP4 PUSH2 0x226B SWAP8 SWAP7 SWAP4 PUSH1 0x4 SWAP7 PUSH1 0x0 SWAP3 PUSH2 0x231B JUMPI JUMPDEST POP POP DUP2 PUSH1 0x1 SHL SWAP2 PUSH1 0x0 NOT SWAP1 PUSH1 0x3 SHL SHR NOT AND OR SWAP1 SSTORE JUMPDEST PUSH1 0x60 DUP2 ADD MLOAD PUSH1 0x3 DUP6 ADD SSTORE ADD MLOAD ISZERO ISZERO SWAP2 ADD PUSH2 0x78B7 JUMP JUMPDEST CALLER PUSH1 0x0 SWAP1 DUP2 MSTORE PUSH1 0x14 PUSH1 0x20 MSTORE PUSH1 0x40 SWAP1 KECCAK256 DUP1 SLOAD PUSH1 0xFF NOT AND PUSH1 0x1 OR SWAP1 SSTORE PUSH1 0xF SLOAD PUSH1 0x1 PUSH1 0x40 SHL DUP2 LT ISZERO PUSH2 0x143C JUMPI PUSH1 0x1 DUP2 ADD DUP1 PUSH1 0xF SSTORE DUP2 LT ISZERO PUSH2 0x2305 JUMPI PUSH1 0xF PUSH1 0x0 MSTORE PUSH1 0x0 DUP1 MLOAD PUSH1 0x20 PUSH2 0x93FD DUP4 CODECOPY DUP2 MLOAD SWAP2 MSTORE ADD DUP1 SLOAD PUSH1 0x1 PUSH1 0x1 PUSH1 0xA0 SHL SUB NOT AND CALLER SWAP1 DUP2 OR SWAP1 SWAP2 SSTORE PUSH1 0x40 MLOAD PUSH1 0x20 DUP1 DUP3 MSTORE SWAP2 SWAP3 PUSH32 0x48CAC28AD4DC618E15F4C2DD5E97751182F166DE97B25618318B2112AA951A2F SWAP3 DUP3 SWAP2 PUSH2 0x1CB7 SWAP2 DUP4 ADD SWAP1 PUSH2 0x6BEE JUMP JUMPDEST PUSH4 0x4E487B71 PUSH1 0xE0 SHL PUSH1 0x0 MSTORE PUSH1 0x32 PUSH1 0x4 MSTORE PUSH1 0x24 PUSH1 0x0 REVERT JUMPDEST ADD MLOAD SWAP1 POP DUP10 DUP1 PUSH2 0x2241 JUMP JUMPDEST SWAP1 PUSH1 0x1F NOT DUP4 AND SWAP2 DUP5 PUSH1 0x0 MSTORE PUSH1 0x20 PUSH1 0x0 KECCAK256 SWAP3 PUSH1 0x0 JUMPDEST DUP2 DUP2 LT PUSH2 0x2380 JUMPI POP SWAP4 PUSH2 0x226B SWAP8 SWAP7 SWAP4 PUSH1 0x4 SWAP7 SWAP4 PUSH1 0x1 SWAP4 DUP4 PUSH1 0x80 SWAP9 LT PUSH2 0x2367 JUMPI JUMPDEST POP POP POP DUP2 SHL ADD SWAP1 SSTORE PUSH2 0x2256 JUMP JUMPDEST ADD MLOAD PUSH1 0x0 NOT PUSH1 0xF8 DUP5 PUSH1 0x3 SHL AND SHR NOT AND SWAP1 SSTORE DUP10 DUP1 DUP1 PUSH2 0x235A JUMP JUMPDEST SWAP3 SWAP4 PUSH1 0x20 PUSH1 0x1 DUP2 SWAP3 DUP8 DUP7 ADD MLOAD DUP2 SSTORE ADD SWAP6 ADD SWAP4 ADD PUSH2 0x233A JUMP JUMPDEST ADD MLOAD SWAP1 POP DUP6 DUP1 PUSH2 0x21DD JUMP JUMPDEST PUSH1 0x1 DUP5 ADD PUSH1 0x0 MSTORE PUSH1 0x20 PUSH1 0x0 KECCAK256 SWAP1 PUSH1 0x0 JUMPDEST PUSH1 0x1F NOT DUP5 AND DUP2 LT PUSH2 0x23FA JUMPI POP PUSH1 0x1 SWAP4 SWAP5 SWAP6 SWAP7 DUP4 PUSH1 0x1F NOT DUP2 AND LT PUSH2 0x23E1 JUMPI JUMPDEST POP POP POP DUP2 SHL ADD PUSH1 0x1 DUP4 ADD SSTORE PUSH2 0x21F5 JUMP JUMPDEST ADD MLOAD PUSH1 0x0 NOT PUSH1 0xF8 DUP5 PUSH1 0x3 SHL AND SHR NOT AND SWAP1 SSTORE DUP6 DUP1 DUP1 PUSH2 0x23D1 JUMP JUMPDEST SWAP1 SWAP2 PUSH1 0x20 PUSH1 0x1 DUP2 SWAP3 DUP6 DUP12 ADD MLOAD DUP2 SSTORE ADD SWAP4 ADD SWAP2 ADD PUSH2 0x23B3 JUMP JUMPDEST ADD MLOAD SWAP1 POP DUP7 DUP1 PUSH2 0x2180 JUMP JUMPDEST SWAP3 POP DUP5 PUSH1 0x0 MSTORE PUSH1 0x20 PUSH1 0x0 KECCAK256 SWAP1 PUSH1 0x0 SWAP4 JUMPDEST PUSH1 0x1F NOT DUP5 AND DUP6 LT PUSH2 0x246E JUMPI PUSH1 0x1 SWAP5 POP DUP4 PUSH1 0x1F NOT DUP2 AND LT PUSH2 0x2455 JUMPI JUMPDEST POP POP POP DUP2 SHL ADD DUP3 SSTORE PUSH2 0x2195 JUMP JUMPDEST ADD MLOAD PUSH1 0x0 NOT PUSH1 0xF8 DUP5 PUSH1 0x3 SHL AND SHR NOT AND SWAP1 SSTORE DUP7 DUP1 DUP1 PUSH2 0x2448 JUMP JUMPDEST DUP2 DUP2 ADD MLOAD DUP4 SSTORE PUSH1 0x20 SWAP5 DUP6 ADD SWAP5 PUSH1 0x1 SWAP1 SWAP4 ADD SWAP3 SWAP1 SWAP2 ADD SWAP1 PUSH2 0x242D JUMP JUMPDEST PUSH1 0x40 MLOAD PUSH3 0x461BCD PUSH1 0xE5 SHL DUP2 MSTORE PUSH1 0x20 PUSH1 0x4 DUP3 ADD MSTORE PUSH1 0x15 PUSH1 0x24 DUP3 ADD MSTORE PUSH21 0x456D61696C2063616E6E6F7420626520656D707479 PUSH1 0x58 SHL PUSH1 0x44 DUP3 ADD MSTORE PUSH1 0x64 SWAP1 REVERT JUMPDEST PUSH1 0x40 MLOAD PUSH3 0x461BCD PUSH1 0xE5 SHL DUP2 MSTORE PUSH1 0x20 PUSH1 0x4 DUP3 ADD MSTORE PUSH1 0x17 PUSH1 0x24 DUP3 ADD MSTORE PUSH23 0x155CD95C88185B1C9958591E481C9959DA5CDD195C9959 PUSH1 0x4A SHL PUSH1 0x44 DUP3 ADD MSTORE PUSH1 0x64 SWAP1 REVERT JUMPDEST CALLVALUE PUSH2 0x5E2 JUMPI PUSH1 0x40 CALLDATASIZE PUSH1 0x3 NOT ADD SLT PUSH2 0x5E2 JUMPI PUSH1 0x24 CALLDATALOAD PUSH1 0x1 PUSH1 0x1 PUSH1 0x40 SHL SUB DUP2 GT PUSH2 0x5E2 JUMPI CALLDATASIZE PUSH1 0x23 DUP3 ADD SLT ISZERO PUSH2 0x5E2 JUMPI PUSH1 0x1 PUSH1 0x1 PUSH1 0x40 SHL SUB PUSH1 0x4 DUP3 ADD CALLDATALOAD GT PUSH2 0x5E2 JUMPI CALLDATASIZE PUSH1 0x24 DUP3 PUSH1 0x4 ADD CALLDATALOAD PUSH1 0x5 SHL DUP4 ADD ADD GT PUSH2 0x5E2 JUMPI PUSH1 0x4 CALLDATALOAD PUSH1 0x0 MSTORE PUSH1 0x18 PUSH1 0x20 MSTORE PUSH1 0xFF PUSH1 0x2 PUSH1 0x40 PUSH1 0x0 KECCAK256 ADD SLOAD AND ISZERO PUSH2 0x2770 JUMPI PUSH1 0x0 JUMPDEST DUP2 PUSH1 0x4 ADD CALLDATALOAD DUP2 LT PUSH2 0x2583 JUMPI STOP JUMPDEST PUSH2 0x258E PUSH1 0xC SLOAD PUSH2 0x847C JUMP JUMPDEST DUP1 PUSH1 0xC SSTORE PUSH2 0x25C0 PUSH2 0x25A7 DUP4 DUP6 PUSH1 0x4 ADD CALLDATALOAD PUSH1 0x24 DUP8 ADD PUSH2 0x8586 JUMP JUMPDEST SWAP2 SWAP1 PUSH1 0x40 MLOAD SWAP3 PUSH2 0x25B6 DUP5 PUSH2 0x6F5C JUMP JUMPDEST DUP5 DUP5 MSTORE CALLDATASIZE SWAP2 PUSH2 0x7006 JUMP JUMPDEST SWAP2 PUSH1 0x20 DUP3 ADD SWAP3 DUP4 MSTORE PUSH1 0x4 CALLDATALOAD PUSH1 0x40 DUP4 ADD MSTORE PUSH1 0x1 PUSH1 0x60 DUP4 ADD MSTORE PUSH1 0x0 MSTORE PUSH1 0x19 PUSH1 0x20 MSTORE PUSH1 0x40 PUSH1 0x0 KECCAK256 SWAP2 DUP2 MLOAD DUP4 SSTORE MLOAD DUP1 MLOAD SWAP1 PUSH1 0x1 DUP1 PUSH1 0x40 SHL SUB DUP3 GT PUSH2 0x143C JUMPI PUSH2 0x2614 DUP3 PUSH2 0x260B PUSH1 0x1 DUP8 ADD SLOAD PUSH2 0x70CC JUMP JUMPDEST PUSH1 0x1 DUP8 ADD PUSH2 0x7AAC JUMP JUMPDEST PUSH1 0x20 SWAP1 PUSH1 0x1F DUP4 GT PUSH1 0x1 EQ PUSH2 0x26F2 JUMPI PUSH2 0x2686 SWAP4 DUP4 PUSH2 0x26E2 SWAP8 SWAP7 SWAP5 PUSH2 0x266C SWAP5 PUSH1 0x60 SWAP5 PUSH1 0x0 SWAP3 PUSH2 0x26E7 JUMPI JUMPDEST POP POP DUP2 PUSH1 0x1 SHL SWAP2 PUSH1 0x0 NOT SWAP1 PUSH1 0x3 SHL SHR NOT AND OR PUSH1 0x1 DUP6 ADD SSTORE JUMPDEST PUSH1 0x40 DUP2 ADD MLOAD PUSH1 0x2 DUP6 ADD SSTORE ADD MLOAD ISZERO ISZERO PUSH1 0x3 DUP1 SWAP4 ADD PUSH2 0x78B7 JUMP JUMPDEST PUSH1 0x4 CALLDATALOAD PUSH1 0x0 MSTORE PUSH1 0x18 PUSH1 0x20 MSTORE PUSH1 0x40 PUSH1 0x0 KECCAK256 ADD PUSH1 0xC SLOAD SWAP1 PUSH2 0x81D8 JUMP JUMPDEST PUSH1 0x0 DUP1 MLOAD PUSH1 0x20 PUSH2 0x93BD DUP4 CODECOPY DUP2 MLOAD SWAP2 MSTORE PUSH1 0xC SLOAD PUSH2 0x26AA DUP4 DUP7 PUSH1 0x4 ADD CALLDATALOAD PUSH1 0x24 DUP9 ADD PUSH2 0x8586 JUMP JUMPDEST SWAP3 SWAP1 DUP4 PUSH1 0x40 MLOAD SWAP2 PUSH1 0x20 DUP4 MSTORE DUP2 PUSH1 0x20 DUP5 ADD MSTORE PUSH1 0x40 DUP4 ADD CALLDATACOPY PUSH1 0x0 PUSH1 0x40 DUP6 DUP4 ADD ADD MSTORE PUSH1 0x40 DUP2 PUSH1 0x4 CALLDATALOAD SWAP6 PUSH1 0x1F DUP1 NOT SWAP2 ADD AND DUP2 ADD SUB ADD SWAP1 LOG3 PUSH2 0x847C JUMP JUMPDEST PUSH2 0x2576 JUMP JUMPDEST ADD MLOAD SWAP1 POP DUP11 DUP1 PUSH2 0x263C JUMP JUMPDEST SWAP1 PUSH1 0x1 DUP6 ADD PUSH1 0x0 MSTORE PUSH1 0x20 PUSH1 0x0 KECCAK256 SWAP2 PUSH1 0x0 JUMPDEST PUSH1 0x1F NOT DUP6 AND DUP2 LT PUSH2 0x2758 JUMPI POP SWAP4 PUSH1 0x1 DUP5 PUSH2 0x266C SWAP5 PUSH1 0x60 SWAP5 PUSH2 0x2686 SWAP9 PUSH2 0x26E2 SWAP12 SWAP11 SWAP9 PUSH1 0x1F NOT DUP2 AND LT PUSH2 0x273F JUMPI JUMPDEST POP POP POP DUP2 SHL ADD PUSH1 0x1 DUP6 ADD SSTORE PUSH2 0x2654 JUMP JUMPDEST ADD MLOAD PUSH1 0x0 NOT PUSH1 0xF8 DUP5 PUSH1 0x3 SHL AND SHR NOT AND SWAP1 SSTORE DUP11 DUP1 DUP1 PUSH2 0x272F JUMP JUMPDEST SWAP2 SWAP3 PUSH1 0x20 PUSH1 0x1 DUP2 SWAP3 DUP7 DUP6 ADD MLOAD DUP2 SSTORE ADD SWAP5 ADD SWAP3 ADD PUSH2 0x2703 JUMP JUMPDEST PUSH1 0x40 MLOAD PUSH3 0x461BCD PUSH1 0xE5 SHL DUP2 MSTORE PUSH1 0x20 PUSH1 0x4 DUP3 ADD MSTORE PUSH1 0x1A PUSH1 0x24 DUP3 ADD MSTORE PUSH26 0x506172656E742063617465676F7279206E6F7420616374697665 PUSH1 0x30 SHL PUSH1 0x44 DUP3 ADD MSTORE PUSH1 0x64 SWAP1 REVERT JUMPDEST CALLVALUE PUSH2 0x5E2 JUMPI PUSH1 0x20 CALLDATASIZE PUSH1 0x3 NOT ADD SLT PUSH2 0x5E2 JUMPI PUSH1 0x4 CALLDATALOAD PUSH2 0x27CE PUSH2 0x750D JUMP JUMPDEST DUP1 PUSH1 0x0 MSTORE PUSH1 0x18 PUSH1 0x20 MSTORE PUSH2 0x27E7 PUSH1 0x40 PUSH1 0x0 KECCAK256 SLOAD ISZERO ISZERO PUSH2 0x85A1 JUMP JUMPDEST DUP1 PUSH1 0x0 MSTORE PUSH1 0x18 PUSH1 0x20 MSTORE PUSH1 0x0 DUP1 MLOAD PUSH1 0x20 PUSH2 0x933D DUP4 CODECOPY DUP2 MLOAD SWAP2 MSTORE PUSH2 0x282A PUSH1 0x40 PUSH1 0x0 KECCAK256 PUSH1 0x2 DUP2 ADD PUSH1 0xFF NOT DUP2 SLOAD AND SWAP1 SSTORE PUSH1 0x40 MLOAD SWAP2 DUP3 SWAP2 PUSH1 0x40 DUP4 MSTORE PUSH1 0x1 PUSH1 0x40 DUP5 ADD SWAP2 ADD PUSH2 0x7106 JUMP JUMPDEST PUSH1 0x0 PUSH1 0x20 DUP4 ADD MSTORE SUB SWAP1 LOG2 STOP JUMPDEST CALLVALUE PUSH2 0x5E2 JUMPI PUSH1 0x20 CALLDATASIZE PUSH1 0x3 NOT ADD SLT PUSH2 0x5E2 JUMPI PUSH2 0x285A PUSH2 0x2855 PUSH1 0x4 CALLDATALOAD PUSH2 0x78C8 JUMP JUMPDEST PUSH2 0x7565 JUMP JUMPDEST PUSH1 0x0 PUSH1 0x40 MLOAD PUSH2 0x2868 DUP2 PUSH2 0x6FAD JUMP JUMPDEST MSTORE PUSH2 0x35E PUSH1 0x40 MLOAD PUSH2 0x2878 DUP2 PUSH2 0x6FAD JUMP JUMPDEST PUSH1 0x0 DUP2 MSTORE PUSH1 0x40 MLOAD SWAP2 DUP3 SWAP2 PUSH1 0x20 DUP4 MSTORE PUSH1 0x20 DUP4 ADD SWAP1 PUSH2 0x6BEE JUMP JUMPDEST CALLVALUE PUSH2 0x5E2 JUMPI PUSH1 0x20 CALLDATASIZE PUSH1 0x3 NOT ADD SLT PUSH2 0x5E2 JUMPI PUSH1 0x1 PUSH1 0x1 PUSH1 0xA0 SHL SUB PUSH2 0x28B1 PUSH2 0x6EDD JUMP JUMPDEST AND PUSH1 0x0 MSTORE PUSH1 0x13 PUSH1 0x20 MSTORE PUSH1 0x20 PUSH1 0xFF PUSH1 0x40 PUSH1 0x0 KECCAK256 SLOAD AND PUSH1 0x40 MLOAD SWAP1 ISZERO ISZERO DUP2 MSTORE RETURN JUMPDEST CALLVALUE PUSH2 0x5E2 JUMPI PUSH1 0x40 CALLDATASIZE PUSH1 0x3 NOT ADD SLT PUSH2 0x5E2 JUMPI PUSH2 0x28E8 PUSH2 0x6EDD JUMP JUMPDEST PUSH1 0x1 PUSH1 0x1 PUSH1 0xA0 SHL SUB AND PUSH1 0x0 SWAP1 DUP2 MSTORE PUSH1 0x16 PUSH1 0x20 MSTORE PUSH1 0x40 SWAP1 KECCAK256 DUP1 SLOAD PUSH1 0x24 CALLDATALOAD SWAP2 SWAP1 DUP3 LT ISZERO PUSH2 0x5E2 JUMPI PUSH1 0x20 SWAP2 PUSH2 0x2919 SWAP2 PUSH2 0x738F JUMP JUMPDEST SWAP1 SLOAD PUSH1 0x40 MLOAD SWAP2 PUSH1 0x3 SHL SHR DUP2 MSTORE RETURN JUMPDEST CALLVALUE PUSH2 0x5E2 JUMPI PUSH1 0x20 DUP1 PUSH1 0x3 NOT CALLDATASIZE ADD SLT PUSH2 0x5E2 JUMPI PUSH1 0x4 CALLDATALOAD PUSH2 0x2944 PUSH2 0x7F06 JUMP JUMPDEST POP DUP1 PUSH1 0x0 MSTORE PUSH1 0x15 DUP3 MSTORE PUSH2 0x2965 PUSH1 0xFF PUSH1 0xF PUSH1 0x40 PUSH1 0x0 KECCAK256 ADD SLOAD PUSH1 0x10 SHR AND ISZERO PUSH2 0x829D JUMP JUMPDEST DUP1 PUSH1 0x0 MSTORE PUSH1 0x17 DUP3 MSTORE PUSH2 0x297E PUSH1 0xFF PUSH1 0x40 PUSH1 0x0 KECCAK256 SLOAD AND PUSH2 0x8258 JUMP JUMPDEST PUSH1 0x0 MSTORE PUSH1 0x15 DUP2 MSTORE PUSH1 0x40 PUSH1 0x0 KECCAK256 SWAP1 PUSH1 0x40 MLOAD SWAP2 PUSH2 0x2998 DUP4 PUSH2 0x6F09 JUMP JUMPDEST DUP1 SLOAD DUP4 MSTORE PUSH1 0x1 DUP1 DUP3 ADD SLOAD PUSH1 0x1 PUSH1 0x1 PUSH1 0xA0 SHL SUB AND DUP4 DUP6 ADD MSTORE PUSH1 0x40 MLOAD PUSH2 0x29C3 DUP2 PUSH2 0x3CE DUP2 PUSH1 0x2 DUP8 ADD PUSH2 0x7106 JUMP JUMPDEST PUSH1 0x40 DUP6 ADD MSTORE PUSH1 0x40 MLOAD PUSH2 0x29DC DUP2 PUSH2 0x3CE DUP2 PUSH1 0x3 DUP8 ADD PUSH2 0x7106 JUMP JUMPDEST PUSH1 0x60 DUP6 ADD MSTORE PUSH1 0x4 DUP3 ADD SLOAD PUSH1 0x80 DUP6 ADD MSTORE PUSH1 0x5 DUP3 ADD SLOAD PUSH1 0xA0 DUP6 ADD MSTORE PUSH1 0x10 PUSH1 0x6 SWAP3 PUSH2 0x2A05 DUP5 DUP3 ADD PUSH2 0x83B6 JUMP JUMPDEST PUSH1 0xC0 DUP8 ADD MSTORE PUSH2 0x2A16 PUSH1 0x7 DUP3 ADD PUSH2 0x83B6 JUMP JUMPDEST PUSH1 0xE0 DUP8 ADD MSTORE PUSH2 0x2A27 PUSH1 0x8 DUP3 ADD PUSH2 0x83B6 JUMP JUMPDEST PUSH2 0x100 DUP8 ADD MSTORE PUSH1 0x40 MLOAD PUSH2 0x2A41 DUP2 PUSH2 0x3CE DUP2 PUSH1 0x9 DUP7 ADD PUSH2 0x7106 JUMP JUMPDEST PUSH2 0x120 DUP8 ADD MSTORE PUSH1 0x40 MLOAD PUSH2 0x2A5B DUP2 PUSH2 0x3CE DUP2 PUSH1 0xA DUP7 ADD PUSH2 0x7106 JUMP JUMPDEST PUSH2 0x140 DUP8 ADD MSTORE PUSH1 0xB DUP2 ADD SLOAD PUSH2 0x160 DUP8 ADD MSTORE PUSH1 0x40 MLOAD PUSH2 0x2A80 DUP2 PUSH2 0x3CE DUP2 PUSH1 0xC DUP7 ADD PUSH2 0x7106 JUMP JUMPDEST PUSH2 0x180 DUP8 ADD MSTORE PUSH1 0x40 MLOAD PUSH2 0x2A9A DUP2 PUSH2 0x3CE DUP2 PUSH1 0xD DUP7 ADD PUSH2 0x7106 JUMP JUMPDEST PUSH2 0x1A0 DUP8 ADD MSTORE PUSH1 0xE DUP2 ADD SLOAD PUSH2 0x1C0 DUP8 ADD MSTORE PUSH1 0xFF PUSH1 0xF DUP3 ADD SLOAD DUP2 DUP2 AND ISZERO ISZERO PUSH2 0x1E0 DUP10 ADD MSTORE DUP2 DUP2 PUSH1 0x8 SHR AND ISZERO ISZERO PUSH2 0x200 DUP10 ADD MSTORE DUP4 SHR AND ISZERO ISZERO PUSH2 0x220 DUP8 ADD MSTORE ADD SWAP2 DUP3 SLOAD SWAP1 PUSH2 0x2AE4 DUP3 PUSH2 0x7F92 JUMP JUMPDEST SWAP4 PUSH2 0x2AF2 PUSH1 0x40 MLOAD SWAP6 DUP7 PUSH2 0x6FC8 JUMP JUMPDEST DUP3 DUP6 MSTORE PUSH1 0x0 SWAP1 DUP2 MSTORE DUP6 DUP2 KECCAK256 DUP7 DUP1 DUP8 ADD JUMPDEST DUP6 DUP5 LT PUSH2 0x2B24 JUMPI PUSH2 0x240 DUP11 ADD DUP9 SWAP1 MSTORE PUSH1 0x40 MLOAD DUP3 DUP2 MSTORE DUP1 PUSH2 0x35E DUP2 DUP6 ADD DUP14 PUSH2 0x6D2B JUMP JUMPDEST DUP7 SWAP2 DUP6 SWAP2 PUSH2 0x2B31 DUP6 PUSH2 0x841B JUMP JUMPDEST DUP2 MSTORE ADD SWAP3 ADD SWAP3 ADD SWAP2 SWAP1 DUP8 SWAP1 PUSH2 0x2B02 JUMP JUMPDEST CALLVALUE PUSH2 0x5E2 JUMPI PUSH1 0x20 CALLDATASIZE PUSH1 0x3 NOT ADD SLT PUSH2 0x5E2 JUMPI PUSH1 0x20 PUSH1 0x1 PUSH1 0x1 PUSH1 0xA0 SHL SUB DUP1 PUSH2 0x2B65 PUSH2 0x6EDD JUMP JUMPDEST AND PUSH1 0x0 MSTORE PUSH1 0x1E DUP3 MSTORE PUSH1 0x40 PUSH1 0x0 KECCAK256 SLOAD AND PUSH1 0x40 MLOAD SWAP1 DUP2 MSTORE RETURN JUMPDEST CALLVALUE PUSH2 0x5E2 JUMPI PUSH1 0x80 CALLDATASIZE PUSH1 0x3 NOT ADD SLT PUSH2 0x5E2 JUMPI PUSH2 0x2B95 PUSH2 0x6EDD JUMP JUMPDEST PUSH2 0x2B9D PUSH2 0x6EF3 JUMP JUMPDEST PUSH1 0x64 CALLDATALOAD SWAP2 PUSH1 0x1 PUSH1 0x1 PUSH1 0x40 SHL SUB DUP4 GT PUSH2 0x5E2 JUMPI CALLDATASIZE PUSH1 0x23 DUP5 ADD SLT ISZERO PUSH2 0x5E2 JUMPI PUSH2 0x2BD1 PUSH2 0x1399 SWAP4 CALLDATASIZE SWAP1 PUSH1 0x24 DUP2 PUSH1 0x4 ADD CALLDATALOAD SWAP2 ADD PUSH2 0x7006 JUMP JUMPDEST SWAP2 PUSH1 0x44 CALLDATALOAD SWAP2 PUSH2 0x7658 JUMP JUMPDEST CALLVALUE PUSH2 0x5E2 JUMPI PUSH1 0x20 DUP1 PUSH1 0x3 NOT CALLDATASIZE ADD SLT PUSH2 0x5E2 JUMPI PUSH1 0x1 PUSH1 0x1 PUSH1 0xA0 SHL SUB SWAP1 DUP2 PUSH2 0x2BFF PUSH2 0x6EDD JUMP JUMPDEST AND PUSH1 0x0 MSTORE PUSH1 0x1B DUP2 MSTORE PUSH1 0x40 PUSH1 0x0 KECCAK256 DUP1 SLOAD SWAP1 PUSH2 0x2C18 DUP3 PUSH2 0x7F92 JUMP JUMPDEST SWAP3 PUSH2 0x2C26 PUSH1 0x40 MLOAD SWAP5 DUP6 PUSH2 0x6FC8 JUMP JUMPDEST DUP3 DUP5 MSTORE PUSH1 0x0 SWAP2 DUP3 MSTORE DUP1 DUP3 KECCAK256 DUP2 DUP6 ADD JUMPDEST DUP5 DUP5 LT PUSH2 0x2C4A JUMPI PUSH1 0x40 MLOAD DUP1 PUSH2 0x35E DUP9 DUP3 PUSH2 0x7244 JUMP JUMPDEST PUSH1 0xE DUP4 PUSH1 0x1 SWAP3 PUSH1 0x40 MLOAD PUSH2 0x2C5C DUP2 PUSH2 0x6F25 JUMP JUMPDEST DUP6 SLOAD DUP2 MSTORE DUP5 DUP7 ADD SLOAD DUP4 DUP3 ADD MSTORE PUSH1 0x2 DUP7 ADD SLOAD PUSH1 0x40 DUP3 ADD MSTORE PUSH1 0x3 DUP7 ADD SLOAD PUSH1 0x60 DUP3 ADD MSTORE DUP11 PUSH1 0x4 DUP8 ADD SLOAD AND PUSH1 0x80 DUP3 ADD MSTORE PUSH1 0xFF PUSH1 0x5 DUP8 ADD SLOAD PUSH1 0xA0 DUP14 DUP3 AND DUP2 DUP6 ADD MSTORE SHR AND ISZERO ISZERO PUSH1 0xC0 DUP3 ADD MSTORE PUSH2 0x2CAD PUSH1 0x6 DUP8 ADD PUSH2 0x73C3 JUMP JUMPDEST PUSH1 0xE0 DUP3 ADD MSTORE DUP2 MSTORE ADD SWAP3 ADD SWAP4 ADD SWAP3 SWAP1 PUSH2 0x2C35 JUMP JUMPDEST CALLVALUE PUSH2 0x5E2 JUMPI PUSH1 0x20 CALLDATASIZE PUSH1 0x3 NOT ADD SLT PUSH2 0x5E2 JUMPI PUSH1 0x4 CALLDATALOAD PUSH1 0x0 MSTORE PUSH1 0x17 PUSH1 0x20 MSTORE PUSH1 0x20 PUSH1 0xFF PUSH1 0x40 PUSH1 0x0 KECCAK256 SLOAD AND PUSH1 0x40 MLOAD SWAP1 ISZERO ISZERO DUP2 MSTORE RETURN JUMPDEST CALLVALUE PUSH2 0x5E2 JUMPI PUSH1 0x20 DUP1 PUSH1 0x3 NOT CALLDATASIZE ADD SLT PUSH2 0x5E2 JUMPI PUSH2 0x2E29 SWAP1 PUSH2 0x35E PUSH2 0x2D12 PUSH2 0x6EDD JUMP JUMPDEST PUSH2 0x2D1A PUSH2 0x7B6D JUMP JUMPDEST POP PUSH1 0x1 DUP1 PUSH1 0xA0 SHL SUB AND SWAP2 DUP3 PUSH1 0x0 MSTORE PUSH1 0x13 DUP2 MSTORE PUSH2 0x2D3D PUSH1 0xFF PUSH1 0x40 PUSH1 0x0 KECCAK256 SLOAD AND PUSH2 0x7BA4 JUMP JUMPDEST DUP3 PUSH1 0x0 MSTORE PUSH1 0x11 DUP2 MSTORE PUSH1 0x40 PUSH1 0x0 KECCAK256 SWAP3 PUSH1 0xFF PUSH1 0x6 PUSH1 0x40 MLOAD SWAP6 PUSH2 0x2D5C DUP8 PUSH2 0x6F41 JUMP JUMPDEST PUSH1 0x40 MLOAD PUSH2 0x2D6D DUP2 PUSH2 0x3CE DUP2 DUP6 PUSH2 0x7106 JUMP JUMPDEST DUP8 MSTORE PUSH1 0x40 MLOAD PUSH2 0x2D83 DUP2 PUSH2 0x3CE DUP2 PUSH1 0x1 DUP7 ADD PUSH2 0x7106 JUMP JUMPDEST DUP6 DUP9 ADD MSTORE PUSH1 0x40 MLOAD PUSH2 0x2D9B DUP2 PUSH2 0x3CE DUP2 PUSH1 0x2 DUP7 ADD PUSH2 0x7106 JUMP JUMPDEST PUSH1 0x40 DUP9 ADD MSTORE PUSH1 0x40 MLOAD PUSH2 0x2DB4 DUP2 PUSH2 0x3CE DUP2 PUSH1 0x3 DUP7 ADD PUSH2 0x7106 JUMP JUMPDEST PUSH1 0x60 DUP9 ADD MSTORE PUSH1 0x40 MLOAD PUSH2 0x2DCD DUP2 PUSH2 0x3CE DUP2 PUSH1 0x4 DUP7 ADD PUSH2 0x7106 JUMP JUMPDEST PUSH1 0x80 DUP9 ADD MSTORE PUSH1 0x5 DUP2 ADD SLOAD PUSH1 0xA0 DUP9 ADD MSTORE ADD SLOAD AND ISZERO ISZERO PUSH1 0xC0 DUP6 ADD MSTORE PUSH1 0x0 MSTORE PUSH1 0x12 DUP2 MSTORE PUSH1 0xFF PUSH1 0x40 PUSH1 0x0 KECCAK256 SLOAD AND PUSH1 0x1A DUP3 MSTORE PUSH1 0x40 PUSH1 0x0 KECCAK256 SLOAD PUSH1 0x16 DUP4 MSTORE PUSH2 0x2E32 PUSH2 0x2E14 PUSH1 0x40 PUSH1 0x0 KECCAK256 PUSH2 0x8650 JUMP JUMPDEST SWAP3 PUSH1 0x40 MLOAD SWAP8 DUP9 SWAP8 PUSH1 0x80 DUP10 MSTORE PUSH1 0x80 DUP10 ADD SWAP1 PUSH2 0x7302 JUMP JUMPDEST SWAP5 DUP8 ADD SWAP1 PUSH2 0x7382 JUMP JUMPDEST PUSH1 0x40 DUP6 ADD MSTORE DUP4 DUP3 SUB PUSH1 0x60 DUP6 ADD MSTORE PUSH2 0x74D9 JUMP JUMPDEST CALLVALUE PUSH2 0x5E2 JUMPI PUSH1 0x20 CALLDATASIZE PUSH1 0x3 NOT ADD SLT PUSH2 0x5E2 JUMPI PUSH2 0x2E5D PUSH2 0x6EDD JUMP JUMPDEST PUSH2 0x2E65 PUSH2 0x750D JUMP JUMPDEST PUSH1 0x1 PUSH1 0x1 PUSH1 0xA0 SHL SUB AND DUP1 ISZERO PUSH2 0x2EB0 JUMPI PUSH1 0x40 PUSH1 0x0 DUP1 MLOAD PUSH1 0x20 PUSH2 0x92FD DUP4 CODECOPY DUP2 MLOAD SWAP2 MSTORE SWAP2 CALLER PUSH1 0x0 MSTORE PUSH1 0x1E PUSH1 0x20 MSTORE DUP2 PUSH1 0x0 KECCAK256 DUP2 PUSH1 0x1 DUP1 PUSH1 0xA0 SHL SUB NOT DUP3 SLOAD AND OR SWAP1 SSTORE DUP2 MLOAD SWAP1 CALLER DUP3 MSTORE PUSH1 0x20 DUP3 ADD MSTORE LOG1 STOP JUMPDEST PUSH1 0x40 MLOAD PUSH3 0x461BCD PUSH1 0xE5 SHL DUP2 MSTORE PUSH1 0x20 PUSH1 0x4 DUP3 ADD MSTORE PUSH1 0x17 PUSH1 0x24 DUP3 ADD MSTORE PUSH23 0x496E76616C6964206163636F756E742061646472657373 PUSH1 0x48 SHL PUSH1 0x44 DUP3 ADD MSTORE PUSH1 0x64 SWAP1 REVERT JUMPDEST CALLVALUE PUSH2 0x5E2 JUMPI PUSH1 0x40 CALLDATASIZE PUSH1 0x3 NOT ADD SLT PUSH2 0x5E2 JUMPI PUSH2 0x2F08 PUSH2 0x6EDD JUMP JUMPDEST PUSH1 0x24 CALLDATALOAD SWAP1 DUP2 ISZERO ISZERO SWAP1 DUP2 DUP4 SUB PUSH2 0x5E2 JUMPI PUSH1 0x1 PUSH1 0x1 PUSH1 0xA0 SHL SUB AND SWAP2 CALLER DUP4 EQ PUSH2 0x2F79 JUMPI PUSH2 0x2F4B SWAP1 CALLER PUSH1 0x0 MSTORE PUSH1 0x7 PUSH1 0x20 MSTORE PUSH1 0x40 PUSH1 0x0 KECCAK256 DUP5 PUSH1 0x0 MSTORE PUSH1 0x20 MSTORE PUSH1 0x40 PUSH1 0x0 KECCAK256 PUSH2 0x78B7 JUMP JUMPDEST PUSH1 0x40 MLOAD SWAP1 DUP2 MSTORE PUSH32 0x17307EAB39AB6107E8899845AD3D59BD9653F200F220920489CA2B5937696C31 PUSH1 0x20 CALLER SWAP3 LOG3 STOP JUMPDEST PUSH1 0x40 MLOAD PUSH3 0x461BCD PUSH1 0xE5 SHL DUP2 MSTORE PUSH1 0x20 PUSH1 0x4 DUP3 ADD MSTORE PUSH1 0x19 PUSH1 0x24 DUP3 ADD MSTORE PUSH25 0x22A9219B99189D1030B8383937BB32903A379031B0B63632B9 PUSH1 0x39 SHL PUSH1 0x44 DUP3 ADD MSTORE PUSH1 0x64 SWAP1 REVERT JUMPDEST CALLVALUE PUSH2 0x5E2 JUMPI PUSH1 0x40 CALLDATASIZE PUSH1 0x3 NOT ADD SLT PUSH2 0x5E2 JUMPI PUSH2 0x2FD3 PUSH2 0x6EDD JUMP JUMPDEST PUSH1 0x1 PUSH1 0x1 PUSH1 0xA0 SHL SUB SWAP1 DUP2 AND PUSH1 0x0 SWAP1 DUP2 MSTORE PUSH1 0x1B PUSH1 0x20 MSTORE PUSH1 0x40 SWAP1 KECCAK256 DUP1 SLOAD PUSH1 0x24 CALLDATALOAD SWAP1 DUP2 LT ISZERO PUSH2 0x5E2 JUMPI PUSH2 0xC1A SWAP2 PUSH2 0x73A7 JUMP JUMPDEST CALLVALUE PUSH2 0x5E2 JUMPI PUSH1 0x20 DUP1 PUSH1 0x3 NOT CALLDATASIZE ADD SLT PUSH2 0x5E2 JUMPI PUSH1 0x4 CALLDATALOAD DUP1 PUSH1 0x0 MSTORE PUSH1 0x15 SWAP1 DUP2 DUP4 MSTORE PUSH1 0xFF PUSH1 0xF PUSH1 0x40 PUSH1 0x0 KECCAK256 ADD SLOAD SWAP2 PUSH2 0x303D DUP3 PUSH1 0x10 SWAP5 DUP6 SHR AND ISZERO PUSH2 0x829D JUMP JUMPDEST DUP1 PUSH1 0x0 MSTORE PUSH1 0x17 DUP6 MSTORE PUSH2 0x3055 DUP3 PUSH1 0x40 PUSH1 0x0 KECCAK256 SLOAD AND PUSH2 0x8258 JUMP JUMPDEST PUSH1 0x0 SWAP3 PUSH1 0x0 JUMPDEST DUP3 PUSH1 0x0 MSTORE DUP6 DUP8 MSTORE DUP2 PUSH1 0x40 PUSH1 0x0 KECCAK256 ADD DUP1 SLOAD DUP3 LT ISZERO PUSH2 0x30AC JUMPI PUSH1 0x4 PUSH2 0x307F DUP4 DUP8 SWAP4 PUSH2 0x86FA JUMP JUMPDEST POP ADD SLOAD AND ISZERO PUSH2 0x3097 JUMPI JUMPDEST PUSH2 0x3092 SWAP1 PUSH2 0x847C JUMP JUMPDEST PUSH2 0x305B JUMP JUMPDEST SWAP4 PUSH2 0x30A4 PUSH2 0x3092 SWAP2 PUSH2 0x847C JUMP JUMPDEST SWAP5 SWAP1 POP PUSH2 0x3089 JUMP JUMPDEST POP POP DUP5 DUP7 PUSH2 0x30B9 DUP7 PUSH2 0x7F92 JUMP JUMPDEST SWAP6 PUSH2 0x30C7 PUSH1 0x40 MLOAD SWAP8 DUP9 PUSH2 0x6FC8 JUMP JUMPDEST DUP1 DUP8 MSTORE PUSH2 0x30D6 PUSH1 0x1F NOT SWAP2 PUSH2 0x7F92 JUMP JUMPDEST ADD DUP2 PUSH1 0x0 JUMPDEST DUP3 DUP2 LT PUSH2 0x317F JUMPI POP POP POP PUSH1 0x0 SWAP4 PUSH1 0x0 JUMPDEST DUP2 PUSH1 0x0 MSTORE DUP4 DUP4 MSTORE DUP5 PUSH1 0x40 PUSH1 0x0 KECCAK256 ADD DUP1 SLOAD DUP3 LT ISZERO PUSH2 0x316C JUMPI PUSH1 0x4 PUSH2 0x310F DUP4 DUP11 SWAP4 PUSH2 0x86FA JUMP JUMPDEST POP ADD SLOAD AND ISZERO PUSH2 0x3127 JUMPI JUMPDEST PUSH2 0x3122 SWAP1 PUSH2 0x847C JUMP JUMPDEST PUSH2 0x30EB JUMP JUMPDEST SWAP5 PUSH2 0x3164 PUSH2 0x3122 SWAP2 DUP4 PUSH1 0x0 MSTORE DUP6 DUP6 MSTORE PUSH2 0x314F PUSH2 0x3149 DUP10 DUP10 PUSH1 0x40 PUSH1 0x0 KECCAK256 ADD PUSH2 0x86FA JUMP JUMPDEST POP PUSH2 0x841B JUMP JUMPDEST PUSH2 0x3159 DUP3 DUP13 PUSH2 0x84DB JUMP JUMPDEST MSTORE PUSH2 0x544 DUP2 DUP12 PUSH2 0x84DB JUMP JUMPDEST SWAP6 SWAP1 POP PUSH2 0x3119 JUMP JUMPDEST PUSH1 0x40 MLOAD DUP5 DUP2 MSTORE DUP1 PUSH2 0x35E DUP2 DUP8 ADD DUP13 PUSH2 0x6C8A JUMP JUMPDEST PUSH2 0x3187 PUSH2 0x86C9 JUMP JUMPDEST DUP3 DUP3 DUP12 ADD ADD MSTORE ADD DUP3 SWAP1 PUSH2 0x30DB JUMP JUMPDEST CALLVALUE PUSH2 0x5E2 JUMPI PUSH1 0x40 CALLDATASIZE PUSH1 0x3 NOT ADD SLT PUSH2 0x5E2 JUMPI PUSH2 0x31AE PUSH2 0x6EDD JUMP JUMPDEST PUSH1 0x24 CALLDATALOAD SWAP1 PUSH1 0x4 DUP3 LT ISZERO PUSH2 0x5E2 JUMPI PUSH2 0x31C3 PUSH2 0x750D JUMP JUMPDEST PUSH1 0x1 DUP1 PUSH1 0xA0 SHL SUB AND SWAP1 DUP2 PUSH1 0x0 MSTORE PUSH1 0x20 SWAP1 PUSH1 0x13 DUP3 MSTORE PUSH2 0x31E8 PUSH1 0xFF PUSH1 0x40 PUSH1 0x0 KECCAK256 SLOAD AND PUSH2 0x7BA4 JUMP JUMPDEST DUP1 ISZERO PUSH2 0x328E JUMPI DUP3 PUSH1 0x0 MSTORE PUSH1 0x12 DUP3 MSTORE PUSH1 0xFF PUSH1 0x40 PUSH1 0x0 KECCAK256 SLOAD AND PUSH1 0x4 DUP2 LT ISZERO PUSH2 0x1B11 JUMPI DUP2 EQ PUSH2 0x3249 JUMPI SWAP1 PUSH1 0x0 DUP1 MLOAD PUSH1 0x20 PUSH2 0x937D DUP4 CODECOPY DUP2 MLOAD SWAP2 MSTORE SWAP2 DUP4 PUSH1 0x0 MSTORE PUSH1 0x12 DUP3 MSTORE PUSH1 0x40 PUSH1 0x0 KECCAK256 PUSH1 0xFF NOT DUP2 SLOAD AND PUSH1 0xFF DUP4 AND OR SWAP1 SSTORE PUSH2 0x3246 PUSH1 0x40 MLOAD DUP1 SWAP3 PUSH2 0x7382 JUMP JUMPDEST LOG2 STOP JUMPDEST PUSH1 0x40 MLOAD PUSH3 0x461BCD PUSH1 0xE5 SHL DUP2 MSTORE PUSH1 0x4 DUP2 ADD DUP4 SWAP1 MSTORE PUSH1 0x1E PUSH1 0x24 DUP3 ADD MSTORE PUSH32 0x53656C6C657220616C7265616479206861732074686973207374617475730000 PUSH1 0x44 DUP3 ADD MSTORE PUSH1 0x64 SWAP1 REVERT JUMPDEST PUSH1 0x40 MLOAD PUSH3 0x461BCD PUSH1 0xE5 SHL DUP2 MSTORE PUSH1 0x4 DUP2 ADD DUP4 SWAP1 MSTORE PUSH1 0x1F PUSH1 0x24 DUP3 ADD MSTORE PUSH32 0x43616E6E6F74207365742073746174757320746F20556E766572696669656400 PUSH1 0x44 DUP3 ADD MSTORE PUSH1 0x64 SWAP1 REVERT JUMPDEST CALLVALUE PUSH2 0x5E2 JUMPI PUSH1 0x0 CALLDATASIZE PUSH1 0x3 NOT ADD SLT PUSH2 0x5E2 JUMPI PUSH1 0x40 MLOAD PUSH1 0x0 SWAP1 PUSH1 0x3 SLOAD PUSH2 0x32F6 DUP2 PUSH2 0x70CC JUMP JUMPDEST DUP1 DUP4 MSTORE PUSH1 0x1 SWAP2 DUP1 DUP4 AND SWAP1 DUP2 ISZERO PUSH2 0x338D JUMPI POP PUSH1 0x1 EQ PUSH2 0x3333 JUMPI JUMPDEST PUSH2 0x35E DUP4 PUSH2 0x331F DUP2 DUP8 SUB DUP3 PUSH2 0x6FC8 JUMP JUMPDEST PUSH1 0x40 MLOAD SWAP2 DUP3 SWAP2 PUSH1 0x20 DUP4 MSTORE PUSH1 0x20 DUP4 ADD SWAP1 PUSH2 0x6BEE JUMP JUMPDEST PUSH1 0x3 PUSH1 0x0 SWAP1 DUP2 MSTORE PUSH1 0x20 SWAP5 POP SWAP2 PUSH32 0xC2575A0E9E593C00F959F8C92F12DB2869C3395A3B0502D05E2516446F71F85B JUMPDEST DUP3 DUP5 LT PUSH2 0x337A JUMPI POP POP POP DUP2 ADD SWAP1 SWAP2 ADD SWAP1 PUSH2 0x331F DUP2 PUSH2 0x330F JUMP JUMPDEST DUP1 SLOAD DUP6 DUP6 ADD DUP8 ADD MSTORE SWAP3 DUP6 ADD SWAP3 DUP2 ADD PUSH2 0x3361 JUMP JUMPDEST PUSH2 0x35E SWAP6 POP PUSH2 0x331F SWAP4 POP PUSH1 0x20 SWAP2 POP SWAP2 DUP5 SWAP3 PUSH1 0xFF NOT AND DUP3 DUP5 ADD MSTORE ISZERO ISZERO PUSH1 0x5 SHL DUP3 ADD ADD SWAP4 POP PUSH2 0x330F JUMP JUMPDEST CALLVALUE PUSH2 0x5E2 JUMPI PUSH1 0x20 CALLDATASIZE PUSH1 0x3 NOT ADD SLT PUSH2 0x5E2 JUMPI PUSH1 0x1 PUSH1 0x1 PUSH1 0xA0 SHL SUB PUSH2 0x33D6 PUSH2 0x6EDD JUMP JUMPDEST AND PUSH1 0x0 MSTORE PUSH1 0x11 PUSH1 0x20 MSTORE PUSH2 0x3486 PUSH1 0x40 PUSH1 0x0 KECCAK256 PUSH1 0x40 MLOAD SWAP1 PUSH2 0x3400 DUP3 PUSH2 0x33F9 DUP2 DUP5 PUSH2 0x7106 JUMP JUMPDEST SUB DUP4 PUSH2 0x6FC8 JUMP JUMPDEST PUSH1 0x40 MLOAD PUSH2 0x3414 DUP2 PUSH2 0x3CE DUP2 PUSH1 0x1 DUP7 ADD PUSH2 0x7106 JUMP JUMPDEST PUSH2 0x34BE PUSH1 0x40 MLOAD PUSH2 0x342B DUP2 PUSH2 0x3CE DUP2 PUSH1 0x2 DUP9 ADD PUSH2 0x7106 JUMP JUMPDEST PUSH2 0x34B0 PUSH1 0x40 MLOAD PUSH2 0x3442 DUP2 PUSH2 0x3CE DUP2 PUSH1 0x3 DUP11 ADD PUSH2 0x7106 JUMP JUMPDEST PUSH2 0x34A2 PUSH1 0x40 MLOAD SWAP4 PUSH2 0x3461 DUP6 PUSH2 0x345A DUP2 PUSH1 0x4 DUP13 ADD PUSH2 0x7106 JUMP JUMPDEST SUB DUP7 PUSH2 0x6FC8 JUMP JUMPDEST PUSH2 0x3494 PUSH1 0xFF PUSH1 0x6 PUSH1 0x5 DUP12 ADD SLOAD SWAP11 ADD SLOAD AND SWAP8 PUSH1 0x40 MLOAD SWAP12 DUP13 SWAP12 PUSH1 0xE0 DUP14 MSTORE PUSH1 0xE0 DUP14 ADD SWAP1 PUSH2 0x6BEE JUMP JUMPDEST SWAP1 DUP12 DUP3 SUB PUSH1 0x20 DUP14 ADD MSTORE PUSH2 0x6BEE JUMP JUMPDEST SWAP1 DUP10 DUP3 SUB PUSH1 0x40 DUP12 ADD MSTORE PUSH2 0x6BEE JUMP JUMPDEST SWAP1 DUP8 DUP3 SUB PUSH1 0x60 DUP10 ADD MSTORE PUSH2 0x6BEE JUMP JUMPDEST SWAP1 DUP6 DUP3 SUB PUSH1 0x80 DUP8 ADD MSTORE PUSH2 0x6BEE JUMP JUMPDEST SWAP2 PUSH1 0xA0 DUP5 ADD MSTORE ISZERO ISZERO PUSH1 0xC0 DUP4 ADD MSTORE SUB SWAP1 RETURN JUMPDEST CALLVALUE PUSH2 0x5E2 JUMPI PUSH1 0x20 CALLDATASIZE PUSH1 0x3 NOT ADD SLT PUSH2 0x5E2 JUMPI PUSH1 0x4 CALLDATALOAD PUSH1 0x1 PUSH1 0x1 PUSH1 0x40 SHL SUB DUP2 GT PUSH2 0x5E2 JUMPI PUSH2 0x34FF SWAP1 CALLDATASIZE SWAP1 PUSH1 0x4 ADD PUSH2 0x703D JUMP JUMPDEST PUSH1 0x8 SLOAD PUSH1 0x0 PUSH1 0x1 JUMPDEST DUP3 DUP2 GT ISZERO PUSH2 0x3773 JUMPI POP PUSH2 0x3519 SWAP1 PUSH2 0x848B JUMP JUMPDEST SWAP1 PUSH1 0x1 PUSH1 0x0 JUMPDEST DUP3 DUP3 GT ISZERO PUSH2 0x3535 JUMPI PUSH1 0x40 MLOAD DUP1 PUSH2 0x35E DUP7 DUP3 PUSH2 0x6E7B JUMP JUMPDEST DUP2 PUSH1 0x0 MSTORE PUSH1 0x15 DUP1 PUSH1 0x20 MSTORE PUSH1 0x9 SWAP1 PUSH2 0x3CE PUSH2 0x355B DUP4 PUSH1 0x40 PUSH1 0x0 KECCAK256 ADD PUSH1 0x40 MLOAD SWAP3 DUP4 DUP1 SWAP3 PUSH2 0x7106 JUMP JUMPDEST PUSH1 0x20 DUP2 MLOAD SWAP2 ADD KECCAK256 DUP8 MLOAD PUSH1 0x20 DUP10 ADD KECCAK256 EQ DUP1 PUSH2 0x3755 JUMPI JUMPDEST PUSH2 0x3587 JUMPI JUMPDEST POP POP SWAP1 PUSH2 0x3581 SWAP1 PUSH2 0x847C JUMP JUMPDEST SWAP1 PUSH2 0x351F JUMP JUMPDEST DUP4 PUSH1 0x0 MSTORE PUSH1 0x20 MSTORE PUSH1 0x40 PUSH1 0x0 KECCAK256 PUSH2 0x3CE PUSH2 0x3645 PUSH1 0x40 MLOAD SWAP4 PUSH2 0x35A6 DUP6 PUSH2 0x6F09 JUMP JUMPDEST DUP4 SLOAD DUP6 MSTORE PUSH1 0x1 DUP5 ADD SLOAD PUSH1 0x1 PUSH1 0x1 PUSH1 0xA0 SHL SUB AND PUSH1 0x20 DUP7 ADD MSTORE PUSH1 0x40 MLOAD PUSH2 0x35D1 DUP2 PUSH2 0x3CE DUP2 PUSH1 0x2 DUP10 ADD PUSH2 0x7106 JUMP JUMPDEST PUSH1 0x40 DUP7 ADD MSTORE PUSH1 0x40 MLOAD PUSH2 0x35EA DUP2 PUSH2 0x3CE DUP2 PUSH1 0x3 DUP10 ADD PUSH2 0x7106 JUMP JUMPDEST PUSH1 0x60 DUP7 ADD MSTORE PUSH1 0x4 DUP5 ADD SLOAD PUSH1 0x80 DUP7 ADD MSTORE PUSH1 0x5 DUP5 ADD SLOAD PUSH1 0xA0 DUP7 ADD MSTORE PUSH2 0x360F PUSH1 0x6 DUP6 ADD PUSH2 0x83B6 JUMP JUMPDEST PUSH1 0xC0 DUP7 ADD MSTORE PUSH2 0x3620 PUSH1 0x7 DUP6 ADD PUSH2 0x83B6 JUMP JUMPDEST PUSH1 0xE0 DUP7 ADD MSTORE PUSH2 0x3631 PUSH1 0x8 DUP6 ADD PUSH2 0x83B6 JUMP JUMPDEST PUSH2 0x100 DUP7 ADD MSTORE PUSH1 0x40 MLOAD SWAP3 DUP4 DUP1 SWAP3 DUP7 ADD PUSH2 0x7106 JUMP JUMPDEST PUSH2 0x120 DUP4 ADD MSTORE PUSH1 0x40 MLOAD PUSH2 0x365F DUP2 PUSH2 0x3CE DUP2 PUSH1 0xA DUP7 ADD PUSH2 0x7106 JUMP JUMPDEST PUSH2 0x140 DUP4 ADD MSTORE PUSH1 0xB DUP2 ADD SLOAD PUSH2 0x160 DUP4 ADD MSTORE PUSH1 0x40 MLOAD PUSH2 0x3684 DUP2 PUSH2 0x3CE DUP2 PUSH1 0xC DUP7 ADD PUSH2 0x7106 JUMP JUMPDEST PUSH2 0x180 DUP4 ADD MSTORE PUSH1 0x40 MLOAD PUSH2 0x369E DUP2 PUSH2 0x3CE DUP2 PUSH1 0xD DUP7 ADD PUSH2 0x7106 JUMP JUMPDEST PUSH2 0x1A0 DUP4 ADD MSTORE PUSH1 0xE DUP2 ADD SLOAD PUSH2 0x1C0 DUP4 ADD MSTORE PUSH1 0xF DUP2 ADD SLOAD SWAP1 PUSH1 0xFF DUP1 DUP4 AND ISZERO ISZERO PUSH2 0x1E0 DUP6 ADD MSTORE DUP1 DUP4 PUSH1 0x8 SHR AND ISZERO ISZERO PUSH2 0x200 DUP6 ADD MSTORE PUSH1 0x10 SWAP3 DUP4 SHR AND ISZERO ISZERO PUSH2 0x220 DUP5 ADD MSTORE ADD DUP1 SLOAD SWAP1 PUSH2 0x36EB DUP3 PUSH2 0x7F92 JUMP JUMPDEST SWAP2 PUSH2 0x36F9 PUSH1 0x40 MLOAD SWAP4 DUP5 PUSH2 0x6FC8 JUMP JUMPDEST DUP1 DUP4 MSTORE PUSH1 0x20 DUP4 ADD SWAP2 PUSH1 0x0 MSTORE PUSH1 0x20 PUSH1 0x0 KECCAK256 PUSH1 0x0 SWAP3 JUMPDEST DUP3 DUP5 LT PUSH2 0x3737 JUMPI POP POP POP POP PUSH2 0x240 DUP3 ADD MSTORE PUSH2 0x3581 SWAP2 PUSH2 0x3730 SWAP2 PUSH2 0x539 DUP3 DUP9 PUSH2 0x84DB JUMP JUMPDEST SWAP1 DUP7 PUSH2 0x3575 JUMP JUMPDEST PUSH1 0x6 PUSH1 0x20 PUSH1 0x1 SWAP3 PUSH2 0x3747 DUP6 PUSH2 0x841B JUMP JUMPDEST DUP2 MSTORE ADD SWAP3 ADD SWAP4 ADD SWAP3 SWAP1 PUSH2 0x370D JUMP JUMPDEST POP DUP4 PUSH1 0x0 MSTORE DUP1 PUSH1 0x20 MSTORE PUSH1 0xFF PUSH1 0xF PUSH1 0x40 PUSH1 0x0 KECCAK256 ADD SLOAD PUSH1 0x10 SHR AND ISZERO PUSH2 0x3570 JUMP JUMPDEST DUP1 PUSH1 0x0 MSTORE PUSH1 0x15 DUP1 PUSH1 0x20 MSTORE PUSH2 0x3CE PUSH2 0x3797 PUSH1 0x9 PUSH1 0x40 PUSH1 0x0 KECCAK256 ADD PUSH1 0x40 MLOAD SWAP3 DUP4 DUP1 SWAP3 PUSH2 0x7106 JUMP JUMPDEST PUSH1 0x20 DUP2 MLOAD SWAP2 ADD KECCAK256 DUP6 MLOAD PUSH1 0x20 DUP8 ADD KECCAK256 EQ SWAP1 DUP2 PUSH2 0x37D6 JUMPI JUMPDEST POP PUSH2 0x37C1 JUMPI JUMPDEST PUSH2 0x37BC SWAP1 PUSH2 0x847C JUMP JUMPDEST PUSH2 0x3507 JUMP JUMPDEST SWAP1 PUSH2 0x37CE PUSH2 0x37BC SWAP2 PUSH2 0x847C JUMP JUMPDEST SWAP2 SWAP1 POP PUSH2 0x37B3 JUMP JUMPDEST SWAP1 POP DUP2 PUSH1 0x0 MSTORE PUSH1 0x20 MSTORE PUSH1 0xFF PUSH1 0xF PUSH1 0x40 PUSH1 0x0 KECCAK256 ADD SLOAD PUSH1 0x10 SHR AND ISZERO DUP6 PUSH2 0x37AD JUMP JUMPDEST CALLVALUE PUSH2 0x5E2 JUMPI PUSH1 0x0 CALLDATASIZE PUSH1 0x3 NOT ADD SLT PUSH2 0x5E2 JUMPI PUSH1 0x0 SLOAD PUSH1 0x40 MLOAD PUSH1 0x1 PUSH1 0x1 PUSH1 0xA0 SHL SUB SWAP1 SWAP2 AND DUP2 MSTORE PUSH1 0x20 SWAP1 RETURN JUMPDEST CALLVALUE PUSH2 0x5E2 JUMPI PUSH1 0x3 NOT PUSH1 0x40 CALLDATASIZE DUP3 ADD SLT PUSH2 0x5E2 JUMPI PUSH1 0x1 PUSH1 0x1 PUSH1 0x40 SHL SUB PUSH1 0x24 CALLDATALOAD GT PUSH2 0x5E2 JUMPI PUSH2 0x1A0 SWAP1 PUSH1 0x24 CALLDATALOAD CALLDATASIZE SUB ADD SLT PUSH2 0x5E2 JUMPI PUSH1 0x4 CALLDATALOAD PUSH1 0x0 SWAP1 DUP2 MSTORE PUSH1 0x15 PUSH1 0x20 MSTORE PUSH1 0x40 SWAP1 KECCAK256 PUSH1 0x1 ADD SLOAD PUSH1 0x1 PUSH1 0x1 PUSH1 0xA0 SHL SUB AND CALLER SUB PUSH2 0x42D8 JUMPI PUSH1 0x4 CALLDATALOAD PUSH1 0x0 MSTORE PUSH1 0x17 PUSH1 0x20 MSTORE PUSH2 0x388F PUSH1 0xFF PUSH1 0x40 PUSH1 0x0 KECCAK256 SLOAD AND PUSH2 0x8258 JUMP JUMPDEST PUSH1 0x4 CALLDATALOAD PUSH1 0x0 MSTORE PUSH1 0x15 PUSH1 0x20 MSTORE PUSH2 0x38B2 PUSH1 0xFF PUSH1 0xF PUSH1 0x40 PUSH1 0x0 KECCAK256 ADD SLOAD PUSH1 0x10 SHR AND ISZERO PUSH2 0x829D JUMP JUMPDEST PUSH2 0x38C4 PUSH2 0xCCE PUSH1 0x4 PUSH1 0x24 CALLDATALOAD ADD DUP1 PUSH2 0x7C5C JUMP JUMPDEST PUSH2 0x38D7 PUSH1 0x24 DUP1 CALLDATALOAD ADD PUSH1 0x24 CALLDATALOAD PUSH1 0x4 ADD PUSH2 0x7C5C JUMP JUMPDEST SWAP1 POP ISZERO PUSH2 0x4295 JUMPI PUSH2 0x38EF PUSH1 0x44 PUSH1 0x24 CALLDATALOAD ADD CALLDATALOAD ISZERO ISZERO PUSH2 0x7C8E JUMP JUMPDEST PUSH2 0x3900 PUSH1 0x64 PUSH1 0x24 CALLDATALOAD ADD CALLDATALOAD ISZERO ISZERO PUSH2 0x7CD9 JUMP JUMPDEST PUSH2 0x3914 PUSH1 0x84 PUSH1 0x24 CALLDATALOAD ADD PUSH1 0x24 CALLDATALOAD PUSH1 0x4 ADD PUSH2 0x7E41 JUMP JUMPDEST SWAP1 POP ISZERO PUSH2 0x4257 JUMPI PUSH2 0x392F PUSH1 0xA4 PUSH1 0x24 CALLDATALOAD ADD PUSH1 0x24 CALLDATALOAD PUSH1 0x4 ADD PUSH2 0x7E41 JUMP JUMPDEST SWAP1 POP ISZERO PUSH2 0x421A JUMPI PUSH2 0x394D PUSH2 0xD8F PUSH1 0xC4 PUSH1 0x24 CALLDATALOAD ADD PUSH1 0x24 CALLDATALOAD PUSH1 0x4 ADD PUSH2 0x7E41 JUMP JUMPDEST PUSH2 0x3966 PUSH1 0x5 PUSH2 0xDB1 PUSH1 0xC4 PUSH1 0x24 CALLDATALOAD ADD PUSH1 0x24 CALLDATALOAD PUSH1 0x4 ADD PUSH2 0x7E41 JUMP JUMPDEST PUSH1 0xE4 PUSH1 0x24 CALLDATALOAD ADD CALLDATALOAD ISZERO PUSH2 0x41DA JUMPI PUSH2 0x104 PUSH1 0x24 CALLDATALOAD ADD CALLDATALOAD ISZERO PUSH2 0x4196 JUMPI PUSH2 0x3997 PUSH2 0xD3C PUSH2 0x144 PUSH1 0x24 CALLDATALOAD ADD PUSH1 0x24 CALLDATALOAD PUSH1 0x4 ADD PUSH2 0x7C5C JUMP JUMPDEST PUSH2 0x39AF PUSH2 0xD5D PUSH2 0x164 PUSH1 0x24 CALLDATALOAD ADD PUSH1 0x24 CALLDATALOAD PUSH1 0x4 ADD PUSH2 0x7C5C JUMP JUMPDEST PUSH2 0x39C1 PUSH2 0x124 PUSH1 0x24 CALLDATALOAD ADD CALLDATALOAD ISZERO ISZERO PUSH2 0x7D24 JUMP JUMPDEST PUSH2 0x39D3 PUSH2 0x184 PUSH1 0x24 CALLDATALOAD ADD CALLDATALOAD ISZERO ISZERO PUSH2 0x7DF8 JUMP JUMPDEST PUSH2 0x39E2 PUSH1 0x4 PUSH1 0x24 CALLDATALOAD ADD DUP1 PUSH2 0x7C5C JUMP JUMPDEST PUSH1 0x4 CALLDATALOAD PUSH1 0x0 SWAP1 DUP2 MSTORE PUSH1 0x15 PUSH1 0x20 MSTORE PUSH1 0x40 SWAP1 KECCAK256 PUSH1 0x2 ADD SWAP1 PUSH1 0x1 PUSH1 0x1 PUSH1 0x40 SHL SUB DUP2 GT PUSH2 0x143C JUMPI PUSH2 0x3A19 DUP2 PUSH2 0x3A13 DUP5 SLOAD PUSH2 0x70CC JUMP JUMPDEST DUP5 PUSH2 0x7AAC JUMP JUMPDEST PUSH1 0x0 SWAP3 PUSH1 0x1F DUP3 GT PUSH1 0x1 EQ PUSH2 0x412D JUMPI SWAP3 DUP2 SWAP3 SWAP4 PUSH1 0x0 SWAP3 PUSH2 0x4122 JUMPI JUMPDEST POP POP DUP2 PUSH1 0x1 SHL SWAP2 PUSH1 0x0 NOT SWAP1 PUSH1 0x3 SHL SHR NOT AND OR SWAP1 SSTORE JUMPDEST PUSH2 0x3A5B PUSH1 0x24 DUP1 CALLDATALOAD ADD PUSH1 0x24 CALLDATALOAD PUSH1 0x4 ADD PUSH2 0x7C5C JUMP JUMPDEST PUSH1 0x4 CALLDATALOAD PUSH1 0x0 SWAP1 DUP2 MSTORE PUSH1 0x15 PUSH1 0x20 MSTORE PUSH1 0x40 SWAP1 KECCAK256 PUSH1 0x3 ADD SWAP1 PUSH1 0x1 PUSH1 0x1 PUSH1 0x40 SHL SUB DUP2 GT PUSH2 0x143C JUMPI PUSH2 0x3A8C DUP2 PUSH2 0x3A13 DUP5 SLOAD PUSH2 0x70CC JUMP JUMPDEST PUSH1 0x0 SWAP3 PUSH1 0x1F DUP3 GT PUSH1 0x1 EQ PUSH2 0x40B9 JUMPI SWAP3 DUP2 SWAP3 SWAP4 PUSH1 0x0 SWAP3 PUSH2 0x40AE JUMPI JUMPDEST POP POP DUP2 PUSH1 0x1 SHL SWAP2 PUSH1 0x0 NOT SWAP1 PUSH1 0x3 SHL SHR NOT AND OR SWAP1 SSTORE JUMPDEST PUSH1 0x4 CALLDATALOAD PUSH1 0x0 MSTORE PUSH1 0x15 PUSH1 0x20 MSTORE PUSH1 0x40 PUSH1 0x0 KECCAK256 PUSH1 0x44 PUSH1 0x24 CALLDATALOAD ADD CALLDATALOAD PUSH1 0x4 DUP3 ADD SSTORE PUSH1 0x64 PUSH1 0x24 CALLDATALOAD ADD CALLDATALOAD PUSH1 0x5 DUP3 ADD SSTORE PUSH1 0x6 PUSH2 0x3AF9 PUSH1 0x84 PUSH1 0x24 CALLDATALOAD ADD PUSH1 0x24 CALLDATALOAD PUSH1 0x4 ADD PUSH2 0x7E41 JUMP JUMPDEST SWAP2 SWAP1 SWAP3 ADD SWAP2 PUSH2 0x3B08 DUP3 DUP5 PUSH2 0x8061 JUMP JUMPDEST PUSH1 0x0 SWAP3 DUP4 MSTORE PUSH1 0x20 DUP4 KECCAK256 SWAP1 DUP1 JUMPDEST DUP4 DUP6 LT PUSH2 0x3FCB JUMPI PUSH2 0x3B2F PUSH1 0xA4 PUSH1 0x24 CALLDATALOAD ADD PUSH1 0x24 CALLDATALOAD PUSH1 0x4 ADD PUSH2 0x7E41 JUMP JUMPDEST PUSH1 0x4 CALLDATALOAD PUSH1 0x0 MSTORE PUSH1 0x15 PUSH1 0x20 MSTORE PUSH1 0x7 PUSH1 0x40 PUSH1 0x0 KECCAK256 ADD SWAP2 PUSH2 0x3B4D DUP3 DUP5 PUSH2 0x8061 JUMP JUMPDEST PUSH1 0x0 SWAP3 DUP4 MSTORE PUSH1 0x20 DUP4 KECCAK256 SWAP1 DUP1 JUMPDEST DUP4 DUP6 LT PUSH2 0x3EE8 JUMPI PUSH2 0x3B74 PUSH1 0xC4 PUSH1 0x24 CALLDATALOAD ADD PUSH1 0x24 CALLDATALOAD PUSH1 0x4 ADD PUSH2 0x7E41 JUMP JUMPDEST PUSH1 0x4 CALLDATALOAD PUSH1 0x0 MSTORE PUSH1 0x15 PUSH1 0x20 MSTORE PUSH1 0x8 PUSH1 0x40 PUSH1 0x0 KECCAK256 ADD SWAP2 PUSH2 0x3B92 DUP3 DUP5 PUSH2 0x8061 JUMP JUMPDEST PUSH1 0x0 SWAP3 DUP4 MSTORE PUSH1 0x20 DUP4 KECCAK256 SWAP1 DUP1 JUMPDEST DUP4 DUP6 LT PUSH2 0x3E05 JUMPI PUSH1 0xE4 PUSH1 0x24 CALLDATALOAD ADD CALLDATALOAD PUSH1 0x0 MSTORE PUSH1 0x18 PUSH1 0x20 MSTORE PUSH2 0x3BD7 PUSH1 0x1 PUSH1 0x40 PUSH1 0x0 KECCAK256 ADD PUSH1 0x4 CALLDATALOAD PUSH1 0x0 MSTORE PUSH1 0x15 PUSH1 0x20 MSTORE PUSH1 0x9 PUSH1 0x40 PUSH1 0x0 KECCAK256 ADD PUSH2 0x82DE JUMP JUMPDEST PUSH2 0x104 PUSH1 0x24 CALLDATALOAD ADD CALLDATALOAD PUSH1 0x0 MSTORE PUSH1 0x19 PUSH1 0x20 MSTORE PUSH2 0x3C0A PUSH1 0x1 PUSH1 0x40 PUSH1 0x0 KECCAK256 ADD PUSH1 0x4 CALLDATALOAD PUSH1 0x0 MSTORE PUSH1 0x15 PUSH1 0x20 MSTORE PUSH1 0xA PUSH1 0x40 PUSH1 0x0 KECCAK256 ADD PUSH2 0x82DE JUMP JUMPDEST PUSH2 0x3C1F PUSH2 0x144 PUSH1 0x24 CALLDATALOAD ADD PUSH1 0x24 CALLDATALOAD PUSH1 0x4 ADD PUSH2 0x7C5C JUMP JUMPDEST PUSH1 0x4 CALLDATALOAD PUSH1 0x0 SWAP1 DUP2 MSTORE PUSH1 0x15 PUSH1 0x20 MSTORE PUSH1 0x40 SWAP1 KECCAK256 PUSH1 0xC ADD SWAP1 PUSH1 0x1 PUSH1 0x1 PUSH1 0x40 SHL SUB DUP2 GT PUSH2 0x143C JUMPI PUSH2 0x3C50 DUP2 PUSH2 0x3A13 DUP5 SLOAD PUSH2 0x70CC JUMP JUMPDEST PUSH1 0x0 SWAP3 PUSH1 0x1F DUP3 GT PUSH1 0x1 EQ PUSH2 0x3D9C JUMPI SWAP3 DUP2 SWAP3 SWAP4 PUSH1 0x0 SWAP3 PUSH2 0x3D91 JUMPI JUMPDEST POP POP DUP2 PUSH1 0x1 SHL SWAP2 PUSH1 0x0 NOT SWAP1 PUSH1 0x3 SHL SHR NOT AND OR SWAP1 SSTORE JUMPDEST PUSH2 0x3C94 PUSH2 0x164 PUSH1 0x24 CALLDATALOAD ADD PUSH1 0x24 CALLDATALOAD PUSH1 0x4 ADD PUSH2 0x7C5C JUMP JUMPDEST PUSH1 0x4 CALLDATALOAD PUSH1 0x0 SWAP1 DUP2 MSTORE PUSH1 0x15 PUSH1 0x20 MSTORE PUSH1 0x40 SWAP1 KECCAK256 PUSH1 0xD ADD SWAP1 PUSH1 0x1 PUSH1 0x1 PUSH1 0x40 SHL SUB DUP2 GT PUSH2 0x143C JUMPI PUSH2 0x3CC5 DUP2 PUSH2 0x3A13 DUP5 SLOAD PUSH2 0x70CC JUMP JUMPDEST PUSH1 0x0 PUSH1 0x1F DUP3 GT PUSH1 0x1 EQ PUSH2 0x3D2C JUMPI DUP2 SWAP3 SWAP4 PUSH1 0x0 SWAP3 PUSH2 0x3D21 JUMPI JUMPDEST POP POP DUP2 PUSH1 0x1 SHL SWAP2 PUSH1 0x0 NOT SWAP1 PUSH1 0x3 SHL SHR NOT AND OR SWAP1 SSTORE JUMPDEST PUSH1 0x4 CALLDATALOAD PUSH1 0x0 MSTORE PUSH1 0x15 PUSH1 0x20 MSTORE PUSH1 0x40 PUSH1 0x0 KECCAK256 PUSH2 0x124 PUSH1 0x24 CALLDATALOAD ADD CALLDATALOAD PUSH1 0xB DUP3 ADD SSTORE PUSH1 0xE PUSH2 0x184 PUSH1 0x24 CALLDATALOAD ADD CALLDATALOAD SWAP2 ADD SSTORE PUSH1 0x0 DUP1 RETURN JUMPDEST ADD CALLDATALOAD SWAP1 POP DUP4 DUP1 PUSH2 0x3CDD JUMP JUMPDEST PUSH1 0x1F NOT DUP3 AND SWAP4 DUP4 PUSH1 0x0 MSTORE PUSH1 0x20 PUSH1 0x0 KECCAK256 SWAP2 PUSH1 0x0 JUMPDEST DUP7 DUP2 LT PUSH2 0x3D79 JUMPI POP DUP4 PUSH1 0x1 SWAP6 SWAP7 LT PUSH2 0x3D5F JUMPI JUMPDEST POP POP POP DUP2 SHL ADD SWAP1 SSTORE PUSH2 0x3CF2 JUMP JUMPDEST ADD CALLDATALOAD PUSH1 0x0 NOT PUSH1 0x3 DUP5 SWAP1 SHL PUSH1 0xF8 AND SHR NOT AND SWAP1 SSTORE DUP4 DUP1 DUP1 PUSH2 0x3D52 JUMP JUMPDEST SWAP1 SWAP3 PUSH1 0x20 PUSH1 0x1 DUP2 SWAP3 DUP7 DUP7 ADD CALLDATALOAD DUP2 SSTORE ADD SWAP5 ADD SWAP2 ADD PUSH2 0x3D3F JUMP JUMPDEST ADD CALLDATALOAD SWAP1 POP DUP4 DUP1 PUSH2 0x3C6A JUMP JUMPDEST DUP3 PUSH1 0x0 MSTORE PUSH1 0x20 PUSH1 0x0 KECCAK256 SWAP1 PUSH1 0x0 SWAP5 JUMPDEST PUSH1 0x1F NOT DUP5 AND DUP7 LT PUSH2 0x3DED JUMPI PUSH1 0x1 SWAP5 SWAP6 POP DUP4 PUSH1 0x1F NOT DUP2 AND LT PUSH2 0x3DD3 JUMPI JUMPDEST POP POP POP DUP2 SHL ADD SWAP1 SSTORE PUSH2 0x3C7F JUMP JUMPDEST ADD CALLDATALOAD PUSH1 0x0 NOT PUSH1 0x3 DUP5 SWAP1 SHL PUSH1 0xF8 AND SHR NOT AND SWAP1 SSTORE DUP4 DUP1 DUP1 PUSH2 0x3DC6 JUMP JUMPDEST SWAP2 PUSH1 0x20 PUSH1 0x1 DUP2 SWAP3 DUP6 DUP6 ADD CALLDATALOAD DUP2 SSTORE ADD SWAP4 ADD SWAP6 ADD SWAP5 PUSH2 0x3DAA JUMP JUMPDEST PUSH2 0x3E0F DUP2 DUP4 PUSH2 0x7C5C JUMP JUMPDEST SWAP1 PUSH1 0x1 PUSH1 0x1 PUSH1 0x40 SHL SUB DUP3 GT PUSH2 0x143C JUMPI PUSH2 0x3E2C DUP3 PUSH2 0x2164 DUP8 SLOAD PUSH2 0x70CC JUMP JUMPDEST PUSH1 0x0 SWAP1 PUSH1 0x1F DUP4 GT PUSH1 0x1 EQ PUSH2 0x3E78 JUMPI SWAP3 DUP3 PUSH1 0x1 SWAP5 SWAP4 PUSH1 0x20 SWAP4 DUP7 SWAP6 PUSH1 0x0 SWAP3 PUSH2 0x3E6D JUMPI JUMPDEST POP POP PUSH1 0x0 NOT PUSH1 0x3 DUP4 SWAP1 SHL SHR NOT AND SWAP1 DUP5 SHL OR DUP7 SSTORE JUMPDEST ADD SWAP4 ADD SWAP5 ADD SWAP4 SWAP2 PUSH2 0x3B9E JUMP JUMPDEST ADD CALLDATALOAD SWAP1 POP DUP11 DUP1 PUSH2 0x3E4D JUMP JUMPDEST DUP6 PUSH1 0x0 MSTORE PUSH1 0x20 PUSH1 0x0 KECCAK256 SWAP2 PUSH1 0x0 JUMPDEST PUSH1 0x1F NOT DUP6 AND DUP2 LT PUSH2 0x3ED0 JUMPI POP DUP4 PUSH1 0x20 SWAP4 PUSH1 0x1 SWAP7 SWAP4 DUP8 SWAP7 SWAP4 DUP8 SWAP5 PUSH1 0x1F NOT DUP2 AND LT PUSH2 0x3EB6 JUMPI JUMPDEST POP POP POP DUP2 SHL ADD DUP7 SSTORE PUSH2 0x3E61 JUMP JUMPDEST ADD CALLDATALOAD PUSH1 0x0 NOT PUSH1 0x3 DUP5 SWAP1 SHL PUSH1 0xF8 AND SHR NOT AND SWAP1 SSTORE DUP11 DUP1 DUP1 PUSH2 0x3EA9 JUMP JUMPDEST SWAP1 SWAP3 PUSH1 0x20 PUSH1 0x1 DUP2 SWAP3 DUP7 DUP7 ADD CALLDATALOAD DUP2 SSTORE ADD SWAP5 ADD SWAP2 ADD PUSH2 0x3E85 JUMP JUMPDEST PUSH2 0x3EF2 DUP2 DUP4 PUSH2 0x7C5C JUMP JUMPDEST SWAP1 PUSH1 0x1 PUSH1 0x1 PUSH1 0x40 SHL SUB DUP3 GT PUSH2 0x143C JUMPI PUSH2 0x3F0F DUP3 PUSH2 0x2164 DUP8 SLOAD PUSH2 0x70CC JUMP JUMPDEST PUSH1 0x0 SWAP1 PUSH1 0x1F DUP4 GT PUSH1 0x1 EQ PUSH2 0x3F5B JUMPI SWAP3 DUP3 PUSH1 0x1 SWAP5 SWAP4 PUSH1 0x20 SWAP4 DUP7 SWAP6 PUSH1 0x0 SWAP3 PUSH2 0x3F50 JUMPI JUMPDEST POP POP PUSH1 0x0 NOT PUSH1 0x3 DUP4 SWAP1 SHL SHR NOT AND SWAP1 DUP5 SHL OR DUP7 SSTORE JUMPDEST ADD SWAP4 ADD SWAP5 ADD SWAP4 SWAP2 PUSH2 0x3B59 JUMP JUMPDEST ADD CALLDATALOAD SWAP1 POP DUP11 DUP1 PUSH2 0x3F30 JUMP JUMPDEST DUP6 PUSH1 0x0 MSTORE PUSH1 0x20 PUSH1 0x0 KECCAK256 SWAP2 PUSH1 0x0 JUMPDEST PUSH1 0x1F NOT DUP6 AND DUP2 LT PUSH2 0x3FB3 JUMPI POP DUP4 PUSH1 0x20 SWAP4 PUSH1 0x1 SWAP7 SWAP4 DUP8 SWAP7 SWAP4 DUP8 SWAP5 PUSH1 0x1F NOT DUP2 AND LT PUSH2 0x3F99 JUMPI JUMPDEST POP POP POP DUP2 SHL ADD DUP7 SSTORE PUSH2 0x3F44 JUMP JUMPDEST ADD CALLDATALOAD PUSH1 0x0 NOT PUSH1 0x3 DUP5 SWAP1 SHL PUSH1 0xF8 AND SHR NOT AND SWAP1 SSTORE DUP11 DUP1 DUP1 PUSH2 0x3F8C JUMP JUMPDEST SWAP1 SWAP3 PUSH1 0x20 PUSH1 0x1 DUP2 SWAP3 DUP7 DUP7 ADD CALLDATALOAD DUP2 SSTORE ADD SWAP5 ADD SWAP2 ADD PUSH2 0x3F68 JUMP JUMPDEST PUSH2 0x3FD5 DUP2 DUP4 PUSH2 0x7C5C JUMP JUMPDEST SWAP1 PUSH1 0x1 PUSH1 0x1 PUSH1 0x40 SHL SUB DUP3 GT PUSH2 0x143C JUMPI PUSH2 0x3FF2 DUP3 PUSH2 0x2164 DUP8 SLOAD PUSH2 0x70CC JUMP JUMPDEST PUSH1 0x0 SWAP1 PUSH1 0x1F DUP4 GT PUSH1 0x1 EQ PUSH2 0x403E JUMPI SWAP3 DUP3 PUSH1 0x1 SWAP5 SWAP4 PUSH1 0x20 SWAP4 DUP7 SWAP6 PUSH1 0x0 SWAP3 PUSH2 0x4033 JUMPI JUMPDEST POP POP PUSH1 0x0 NOT PUSH1 0x3 DUP4 SWAP1 SHL SHR NOT AND SWAP1 DUP5 SHL OR DUP7 SSTORE JUMPDEST ADD SWAP4 ADD SWAP5 ADD SWAP4 SWAP2 PUSH2 0x3B14 JUMP JUMPDEST ADD CALLDATALOAD SWAP1 POP DUP11 DUP1 PUSH2 0x4013 JUMP JUMPDEST DUP6 PUSH1 0x0 MSTORE PUSH1 0x20 PUSH1 0x0 KECCAK256 SWAP2 PUSH1 0x0 JUMPDEST PUSH1 0x1F NOT DUP6 AND DUP2 LT PUSH2 0x4096 JUMPI POP DUP4 PUSH1 0x20 SWAP4 PUSH1 0x1 SWAP7 SWAP4 DUP8 SWAP7 SWAP4 DUP8 SWAP5 PUSH1 0x1F NOT DUP2 AND LT PUSH2 0x407C JUMPI JUMPDEST POP POP POP DUP2 SHL ADD DUP7 SSTORE PUSH2 0x4027 JUMP JUMPDEST ADD CALLDATALOAD PUSH1 0x0 NOT PUSH1 0x3 DUP5 SWAP1 SHL PUSH1 0xF8 AND SHR NOT AND SWAP1 SSTORE DUP11 DUP1 DUP1 PUSH2 0x406F JUMP JUMPDEST SWAP1 SWAP3 PUSH1 0x20 PUSH1 0x1 DUP2 SWAP3 DUP7 DUP7 ADD CALLDATALOAD DUP2 SSTORE ADD SWAP5 ADD SWAP2 ADD PUSH2 0x404B JUMP JUMPDEST ADD CALLDATALOAD SWAP1 POP DUP4 DUP1 PUSH2 0x3AA6 JUMP JUMPDEST DUP3 PUSH1 0x0 MSTORE PUSH1 0x20 PUSH1 0x0 KECCAK256 SWAP1 PUSH1 0x0 SWAP5 JUMPDEST PUSH1 0x1F NOT DUP5 AND DUP7 LT PUSH2 0x410A JUMPI PUSH1 0x1 SWAP5 SWAP6 POP DUP4 PUSH1 0x1F NOT DUP2 AND LT PUSH2 0x40F0 JUMPI JUMPDEST POP POP POP DUP2 SHL ADD SWAP1 SSTORE PUSH2 0x3ABB JUMP JUMPDEST ADD CALLDATALOAD PUSH1 0x0 NOT PUSH1 0x3 DUP5 SWAP1 SHL PUSH1 0xF8 AND SHR NOT AND SWAP1 SSTORE DUP4 DUP1 DUP1 PUSH2 0x40E3 JUMP JUMPDEST SWAP2 PUSH1 0x20 PUSH1 0x1 DUP2 SWAP3 DUP6 DUP6 ADD CALLDATALOAD DUP2 SSTORE ADD SWAP4 ADD SWAP6 ADD SWAP5 PUSH2 0x40C7 JUMP JUMPDEST ADD CALLDATALOAD SWAP1 POP DUP4 DUP1 PUSH2 0x3A33 JUMP JUMPDEST DUP3 PUSH1 0x0 MSTORE PUSH1 0x20 PUSH1 0x0 KECCAK256 SWAP1 PUSH1 0x0 SWAP5 JUMPDEST PUSH1 0x1F NOT DUP5 AND DUP7 LT PUSH2 0x417E JUMPI PUSH1 0x1 SWAP5 SWAP6 POP DUP4 PUSH1 0x1F NOT DUP2 AND LT PUSH2 0x4164 JUMPI JUMPDEST POP POP POP DUP2 SHL ADD SWAP1 SSTORE PUSH2 0x3A48 JUMP JUMPDEST ADD CALLDATALOAD PUSH1 0x0 NOT PUSH1 0x3 DUP5 SWAP1 SHL PUSH1 0xF8 AND SHR NOT AND SWAP1 SSTORE DUP4 DUP1 DUP1 PUSH2 0x4157 JUMP JUMPDEST SWAP2 PUSH1 0x20 PUSH1 0x1 DUP2 SWAP3 DUP6 DUP6 ADD CALLDATALOAD DUP2 SSTORE ADD SWAP4 ADD SWAP6 ADD SWAP5 PUSH2 0x413B JUMP JUMPDEST PUSH1 0x40 MLOAD PUSH3 0x461BCD PUSH1 0xE5 SHL DUP2 MSTORE PUSH1 0x20 PUSH1 0x4 DUP3 ADD MSTORE PUSH1 0x1C PUSH1 0x24 DUP3 ADD MSTORE PUSH28 0x5375622D63617465676F72792063616E6E6F7420626520656D707479 PUSH1 0x20 SHL PUSH1 0x44 DUP3 ADD MSTORE PUSH1 0x64 SWAP1 REVERT JUMPDEST PUSH1 0x40 MLOAD PUSH3 0x461BCD PUSH1 0xE5 SHL DUP2 MSTORE PUSH1 0x20 PUSH1 0x4 DUP3 ADD MSTORE PUSH1 0x18 PUSH1 0x24 DUP3 ADD MSTORE PUSH24 0x43617465676F72792063616E6E6F7420626520656D707479 PUSH1 0x40 SHL PUSH1 0x44 DUP3 ADD MSTORE PUSH1 0x64 SWAP1 REVERT JUMPDEST PUSH1 0x40 MLOAD PUSH3 0x461BCD PUSH1 0xE5 SHL DUP2 MSTORE PUSH1 0x20 PUSH1 0x4 DUP3 ADD MSTORE PUSH1 0x15 PUSH1 0x24 DUP3 ADD MSTORE PUSH21 0x53697A65732063616E6E6F7420626520656D707479 PUSH1 0x58 SHL PUSH1 0x44 DUP3 ADD MSTORE PUSH1 0x64 SWAP1 REVERT JUMPDEST PUSH1 0x40 MLOAD PUSH3 0x461BCD PUSH1 0xE5 SHL DUP2 MSTORE PUSH1 0x20 PUSH1 0x4 DUP3 ADD MSTORE PUSH1 0x16 PUSH1 0x24 DUP3 ADD MSTORE PUSH22 0x436F6C6F72732063616E6E6F7420626520656D707479 PUSH1 0x50 SHL PUSH1 0x44 DUP3 ADD MSTORE PUSH1 0x64 SWAP1 REVERT JUMPDEST PUSH1 0x40 MLOAD PUSH3 0x461BCD PUSH1 0xE5 SHL DUP2 MSTORE PUSH1 0x20 PUSH1 0x4 DUP3 ADD MSTORE PUSH1 0x1B PUSH1 0x24 DUP3 ADD MSTORE PUSH27 0x4465736372697074696F6E2063616E6E6F7420626520656D707479 PUSH1 0x28 SHL PUSH1 0x44 DUP3 ADD MSTORE PUSH1 0x64 SWAP1 REVERT JUMPDEST PUSH1 0x40 MLOAD PUSH3 0x461BCD PUSH1 0xE5 SHL DUP2 MSTORE PUSH1 0x20 PUSH1 0x4 DUP3 ADD MSTORE PUSH1 0x28 PUSH1 0x24 DUP3 ADD MSTORE PUSH32 0x4F6E6C79207468652073656C6C65722063616E20757064617465207468656972 PUSH1 0x44 DUP3 ADD MSTORE PUSH8 0x81C1C9BD91D58DD PUSH1 0xC2 SHL PUSH1 0x64 DUP3 ADD MSTORE PUSH1 0x84 SWAP1 REVERT JUMPDEST CALLVALUE PUSH2 0x5E2 JUMPI PUSH1 0xA0 CALLDATASIZE PUSH1 0x3 NOT ADD SLT PUSH2 0x5E2 JUMPI PUSH1 0x4 CALLDATALOAD PUSH1 0x1 PUSH1 0x1 PUSH1 0x40 SHL SUB DUP2 GT PUSH2 0x5E2 JUMPI PUSH2 0x435E SWAP1 CALLDATASIZE SWAP1 PUSH1 0x4 ADD PUSH2 0x703D JUMP JUMPDEST PUSH1 0x24 SWAP1 DUP2 CALLDATALOAD PUSH1 0x1 PUSH1 0x1 PUSH1 0x40 SHL SUB DUP2 GT PUSH2 0x5E2 JUMPI PUSH2 0x437F SWAP1 CALLDATASIZE SWAP1 PUSH1 0x4 ADD PUSH2 0x703D JUMP JUMPDEST PUSH1 0x44 CALLDATALOAD PUSH1 0x1 PUSH1 0x1 PUSH1 0x40 SHL SUB DUP2 GT PUSH2 0x5E2 JUMPI PUSH2 0x439E SWAP1 CALLDATASIZE SWAP1 PUSH1 0x4 ADD PUSH2 0x703D JUMP JUMPDEST PUSH1 0x64 CALLDATALOAD PUSH1 0x1 PUSH1 0x1 PUSH1 0x40 SHL SUB DUP2 GT PUSH2 0x5E2 JUMPI PUSH2 0x43BD SWAP1 CALLDATASIZE SWAP1 PUSH1 0x4 ADD PUSH2 0x703D JUMP JUMPDEST SWAP1 PUSH1 0x84 CALLDATALOAD PUSH1 0x1 PUSH1 0x1 PUSH1 0x40 SHL SUB DUP2 GT PUSH2 0x5E2 JUMPI PUSH2 0x43DD SWAP1 CALLDATASIZE SWAP1 PUSH1 0x4 ADD PUSH2 0x703D JUMP JUMPDEST SWAP3 PUSH2 0x43E9 CALLER ISZERO ISZERO PUSH2 0x7A14 JUMP JUMPDEST CALLER PUSH1 0x0 MSTORE PUSH1 0x13 PUSH1 0x20 MSTORE PUSH1 0xFF PUSH1 0x40 PUSH1 0x0 KECCAK256 SLOAD AND PUSH2 0x4A37 JUMPI DUP5 MLOAD ISZERO PUSH2 0x49FA JUMPI PUSH2 0x4412 DUP3 MLOAD ISZERO ISZERO PUSH2 0x7AF3 JUMP JUMPDEST PUSH2 0x441E DUP4 MLOAD ISZERO ISZERO PUSH2 0x7B30 JUMP JUMPDEST PUSH1 0x40 MLOAD SWAP5 PUSH2 0x442B DUP7 PUSH2 0x6F41 JUMP JUMPDEST DUP6 MSTORE PUSH1 0x20 DUP6 ADD MSTORE PUSH1 0x40 DUP5 ADD MSTORE PUSH1 0x60 DUP4 ADD MSTORE PUSH1 0x80 DUP3 ADD MSTORE TIMESTAMP PUSH1 0xA0 DUP3 ADD MSTORE PUSH1 0x1 PUSH1 0xC0 DUP3 ADD MSTORE CALLER PUSH1 0x0 MSTORE PUSH1 0x11 PUSH1 0x20 MSTORE PUSH1 0x40 PUSH1 0x0 KECCAK256 SWAP1 DUP1 MLOAD SWAP3 DUP4 MLOAD PUSH1 0x1 DUP1 PUSH1 0x40 SHL SUB DUP2 GT PUSH2 0x49E5 JUMPI PUSH2 0x4483 DUP2 PUSH2 0x447D DUP7 SLOAD PUSH2 0x70CC JUMP JUMPDEST DUP7 PUSH2 0x7AAC JUMP JUMPDEST PUSH1 0x20 PUSH1 0x1F DUP3 GT PUSH1 0x1 EQ PUSH2 0x497C JUMPI DUP2 SWAP3 SWAP4 SWAP5 SWAP6 PUSH1 0x0 SWAP3 PUSH2 0x4971 JUMPI JUMPDEST POP POP DUP2 PUSH1 0x1 SHL SWAP2 PUSH1 0x0 NOT SWAP1 PUSH1 0x3 SHL SHR NOT AND OR DUP4 SSTORE JUMPDEST PUSH1 0x20 DUP3 ADD MLOAD DUP1 MLOAD SWAP1 SWAP4 SWAP1 PUSH1 0x1 PUSH1 0x1 PUSH1 0x40 SHL SUB DUP2 GT PUSH2 0x495C JUMPI PUSH2 0x44E4 DUP2 PUSH2 0x44DB PUSH1 0x1 DUP6 ADD SLOAD PUSH2 0x70CC JUMP JUMPDEST PUSH1 0x1 DUP6 ADD PUSH2 0x7AAC JUMP JUMPDEST PUSH1 0x20 PUSH1 0x1F DUP3 GT PUSH1 0x1 EQ PUSH2 0x48ED JUMPI DUP2 SWAP3 SWAP4 SWAP5 SWAP6 PUSH1 0x0 SWAP3 PUSH2 0x48E2 JUMPI JUMPDEST POP POP DUP2 PUSH1 0x1 SHL SWAP2 PUSH1 0x0 NOT SWAP1 PUSH1 0x3 SHL SHR NOT AND OR PUSH1 0x1 DUP3 ADD SSTORE JUMPDEST PUSH1 0x40 DUP4 ADD MLOAD DUP1 MLOAD SWAP1 SWAP4 SWAP1 PUSH1 0x1 PUSH1 0x1 PUSH1 0x40 SHL SUB DUP2 GT PUSH2 0x48CD JUMPI PUSH2 0x4548 DUP2 PUSH2 0x453F PUSH1 0x2 DUP7 ADD SLOAD PUSH2 0x70CC JUMP JUMPDEST PUSH1 0x2 DUP7 ADD PUSH2 0x7AAC JUMP JUMPDEST PUSH1 0x20 PUSH1 0x1F DUP3 GT PUSH1 0x1 EQ PUSH2 0x485E JUMPI DUP2 SWAP3 SWAP4 SWAP5 SWAP6 PUSH1 0x0 SWAP3 PUSH2 0x4853 JUMPI JUMPDEST POP POP DUP2 PUSH1 0x1 SHL SWAP2 PUSH1 0x0 NOT SWAP1 PUSH1 0x3 SHL SHR NOT AND OR PUSH1 0x2 DUP4 ADD SSTORE JUMPDEST PUSH1 0x60 DUP2 ADD MLOAD DUP1 MLOAD PUSH1 0x3 DUP5 ADD SWAP2 PUSH1 0x1 PUSH1 0x1 PUSH1 0x40 SHL SUB DUP3 GT PUSH2 0x47CD JUMPI DUP2 SWAP1 PUSH2 0x45A4 DUP3 PUSH2 0x447D DUP7 SLOAD PUSH2 0x70CC JUMP JUMPDEST PUSH1 0x20 SWAP1 PUSH1 0x1F DUP4 GT PUSH1 0x1 EQ PUSH2 0x47ED JUMPI PUSH1 0x0 SWAP3 PUSH2 0x47E2 JUMPI JUMPDEST POP POP DUP2 PUSH1 0x1 SHL SWAP2 PUSH1 0x0 NOT SWAP1 PUSH1 0x3 SHL SHR NOT AND OR SWAP1 SSTORE JUMPDEST PUSH1 0x80 DUP2 ADD MLOAD DUP1 MLOAD PUSH1 0x4 DUP5 ADD SWAP2 PUSH1 0x1 PUSH1 0x1 PUSH1 0x40 SHL SUB DUP3 GT PUSH2 0x47CD JUMPI PUSH2 0x45F7 DUP3 PUSH2 0x1C00 DUP6 SLOAD PUSH2 0x70CC JUMP JUMPDEST PUSH1 0x20 SWAP1 PUSH1 0x1F DUP4 GT PUSH1 0x1 EQ PUSH2 0x475B JUMPI SWAP3 DUP3 PUSH1 0xC0 SWAP4 PUSH2 0x4645 SWAP8 SWAP7 SWAP4 PUSH1 0x6 SWAP7 PUSH1 0x0 SWAP3 PUSH2 0x4750 JUMPI JUMPDEST POP POP DUP2 PUSH1 0x1 SHL SWAP2 PUSH1 0x0 NOT SWAP1 PUSH1 0x3 SHL SHR NOT AND OR SWAP1 SSTORE JUMPDEST PUSH1 0xA0 DUP2 ADD MLOAD PUSH1 0x5 DUP6 ADD SSTORE ADD MLOAD ISZERO ISZERO SWAP2 ADD PUSH2 0x78B7 JUMP JUMPDEST CALLER PUSH1 0x0 MSTORE PUSH1 0x13 PUSH1 0x20 MSTORE PUSH1 0x40 PUSH1 0x0 KECCAK256 PUSH1 0xFF NOT SWAP1 PUSH1 0x1 DUP3 DUP3 SLOAD AND OR SWAP1 SSTORE PUSH1 0x12 PUSH1 0x20 MSTORE PUSH1 0x1 PUSH1 0x40 PUSH1 0x0 KECCAK256 SWAP2 DUP3 SLOAD AND OR SWAP1 SSTORE PUSH2 0x467C CALLER PUSH2 0x92AE JUMP JUMPDEST ISZERO PUSH2 0x46CB JUMPI JUMPDEST PUSH1 0x40 MLOAD TIMESTAMP DUP2 MSTORE PUSH32 0xA1A1A78FF3033D5EE8393372052AEB2A16BBB347A29F3780370E9506C109E372 PUSH1 0x20 CALLER SWAP3 LOG2 PUSH1 0x40 MLOAD PUSH1 0x1 DUP2 MSTORE PUSH1 0x0 DUP1 MLOAD PUSH1 0x20 PUSH2 0x937D DUP4 CODECOPY DUP2 MLOAD SWAP2 MSTORE PUSH1 0x20 CALLER SWAP3 LOG2 STOP JUMPDEST PUSH1 0xE SLOAD SWAP1 PUSH1 0x1 PUSH1 0x40 SHL DUP3 LT ISZERO PUSH2 0x473C JUMPI PUSH1 0x1 DUP3 ADD DUP1 PUSH1 0xE SSTORE DUP3 LT ISZERO PUSH2 0x4728 JUMPI POP PUSH1 0xE PUSH1 0x0 MSTORE PUSH32 0xBB7B4A454DC3493923482F07822329ED19E8244EFF582CC204F8554C3620C3FD ADD DUP1 SLOAD PUSH1 0x1 PUSH1 0x1 PUSH1 0xA0 SHL SUB NOT AND CALLER OR SWAP1 SSTORE DUP1 PUSH2 0x4682 JUMP JUMPDEST PUSH4 0x4E487B71 PUSH1 0xE0 SHL PUSH1 0x0 SWAP1 DUP2 MSTORE PUSH1 0x32 PUSH1 0x4 MSTORE REVERT JUMPDEST PUSH4 0x4E487B71 PUSH1 0xE0 SHL PUSH1 0x0 SWAP1 DUP2 MSTORE PUSH1 0x41 PUSH1 0x4 MSTORE REVERT JUMPDEST ADD MLOAD SWAP1 POP DUP10 DUP1 PUSH2 0x461B JUMP JUMPDEST SWAP1 PUSH1 0x1F NOT DUP4 AND SWAP2 DUP5 PUSH1 0x0 MSTORE PUSH1 0x20 PUSH1 0x0 KECCAK256 SWAP3 PUSH1 0x0 JUMPDEST DUP2 DUP2 LT PUSH2 0x47B5 JUMPI POP SWAP4 PUSH2 0x4645 SWAP8 SWAP7 SWAP4 PUSH1 0x6 SWAP7 SWAP4 PUSH1 0x1 SWAP4 DUP4 PUSH1 0xC0 SWAP9 LT PUSH2 0x479C JUMPI JUMPDEST POP POP POP DUP2 SHL ADD SWAP1 SSTORE PUSH2 0x4630 JUMP JUMPDEST ADD MLOAD PUSH1 0x0 NOT PUSH1 0xF8 DUP5 PUSH1 0x3 SHL AND SHR NOT AND SWAP1 SSTORE DUP10 DUP1 DUP1 PUSH2 0x478F JUMP JUMPDEST SWAP3 SWAP4 PUSH1 0x20 PUSH1 0x1 DUP2 SWAP3 DUP8 DUP7 ADD MLOAD DUP2 SSTORE ADD SWAP6 ADD SWAP4 ADD PUSH2 0x476F JUMP JUMPDEST DUP6 PUSH4 0x4E487B71 PUSH1 0xE0 SHL PUSH1 0x0 MSTORE PUSH1 0x41 PUSH1 0x4 MSTORE PUSH1 0x0 REVERT JUMPDEST ADD MLOAD SWAP1 POP DUP7 DUP1 PUSH2 0x45BA JUMP JUMPDEST PUSH1 0x0 DUP6 DUP2 MSTORE PUSH1 0x20 DUP2 KECCAK256 SWAP4 POP PUSH1 0x1F NOT DUP6 AND SWAP1 JUMPDEST DUP2 DUP2 LT PUSH2 0x483B JUMPI POP SWAP1 DUP5 PUSH1 0x1 SWAP6 SWAP5 SWAP4 SWAP3 LT PUSH2 0x4822 JUMPI JUMPDEST POP POP POP DUP2 SHL ADD SWAP1 SSTORE PUSH2 0x45CF JUMP JUMPDEST ADD MLOAD PUSH1 0x0 NOT PUSH1 0xF8 DUP5 PUSH1 0x3 SHL AND SHR NOT AND SWAP1 SSTORE DUP7 DUP1 DUP1 PUSH2 0x4815 JUMP JUMPDEST SWAP3 SWAP4 PUSH1 0x20 PUSH1 0x1 DUP2 SWAP3 DUP8 DUP7 ADD MLOAD DUP2 SSTORE ADD SWAP6 ADD SWAP4 ADD PUSH2 0x47FF JUMP JUMPDEST ADD MLOAD SWAP1 POP DUP6 DUP1 PUSH2 0x4562 JUMP JUMPDEST PUSH1 0x2 DUP5 ADD PUSH1 0x0 MSTORE PUSH1 0x20 PUSH1 0x0 KECCAK256 SWAP1 PUSH1 0x0 JUMPDEST PUSH1 0x1F NOT DUP5 AND DUP2 LT PUSH2 0x48B5 JUMPI POP PUSH1 0x1 SWAP4 SWAP5 SWAP6 SWAP7 DUP4 PUSH1 0x1F NOT DUP2 AND LT PUSH2 0x489C JUMPI JUMPDEST POP POP POP DUP2 SHL ADD PUSH1 0x2 DUP4 ADD SSTORE PUSH2 0x457A JUMP JUMPDEST ADD MLOAD PUSH1 0x0 NOT PUSH1 0xF8 DUP5 PUSH1 0x3 SHL AND SHR NOT AND SWAP1 SSTORE DUP6 DUP1 DUP1 PUSH2 0x488C JUMP JUMPDEST SWAP1 SWAP2 PUSH1 0x20 PUSH1 0x1 DUP2 SWAP3 DUP6 DUP12 ADD MLOAD DUP2 SSTORE ADD SWAP4 ADD SWAP2 ADD PUSH2 0x486E JUMP JUMPDEST DUP4 PUSH4 0x4E487B71 PUSH1 0xE0 SHL PUSH1 0x0 MSTORE PUSH1 0x41 PUSH1 0x4 MSTORE PUSH1 0x0 REVERT JUMPDEST ADD MLOAD SWAP1 POP DUP6 DUP1 PUSH2 0x44FE JUMP JUMPDEST PUSH1 0x1 DUP4 ADD PUSH1 0x0 MSTORE PUSH1 0x20 PUSH1 0x0 KECCAK256 SWAP1 PUSH1 0x0 JUMPDEST PUSH1 0x1F NOT DUP5 AND DUP2 LT PUSH2 0x4944 JUMPI POP PUSH1 0x1 SWAP4 SWAP5 SWAP6 SWAP7 DUP4 PUSH1 0x1F NOT DUP2 AND LT PUSH2 0x492B JUMPI JUMPDEST POP POP POP DUP2 SHL ADD PUSH1 0x1 DUP3 ADD SSTORE PUSH2 0x4516 JUMP JUMPDEST ADD MLOAD PUSH1 0x0 NOT PUSH1 0xF8 DUP5 PUSH1 0x3 SHL AND SHR NOT AND SWAP1 SSTORE DUP6 DUP1 DUP1 PUSH2 0x491B JUMP JUMPDEST SWAP1 SWAP2 PUSH1 0x20 PUSH1 0x1 DUP2 SWAP3 DUP6 DUP12 ADD MLOAD DUP2 SSTORE ADD SWAP4 ADD SWAP2 ADD PUSH2 0x48FD JUMP JUMPDEST DUP3 PUSH4 0x4E487B71 PUSH1 0xE0 SHL PUSH1 0x0 MSTORE PUSH1 0x41 PUSH1 0x4 MSTORE PUSH1 0x0 REVERT JUMPDEST ADD MLOAD SWAP1 POP DUP6 DUP1 PUSH2 0x449D JUMP JUMPDEST DUP5 PUSH1 0x0 MSTORE PUSH1 0x20 PUSH1 0x0 KECCAK256 SWAP1 PUSH1 0x0 JUMPDEST PUSH1 0x1F NOT DUP5 AND DUP2 LT PUSH2 0x49CD JUMPI POP PUSH1 0x1 SWAP4 SWAP5 SWAP6 SWAP7 DUP4 PUSH1 0x1F NOT DUP2 AND LT PUSH2 0x49B4 JUMPI JUMPDEST POP POP POP DUP2 SHL ADD DUP4 SSTORE PUSH2 0x44B2 JUMP JUMPDEST ADD MLOAD PUSH1 0x0 NOT PUSH1 0xF8 DUP5 PUSH1 0x3 SHL AND SHR NOT AND SWAP1 SSTORE DUP6 DUP1 DUP1 PUSH2 0x49A7 JUMP JUMPDEST SWAP1 SWAP2 PUSH1 0x20 PUSH1 0x1 DUP2 SWAP3 DUP6 DUP12 ADD MLOAD DUP2 SSTORE ADD SWAP4 ADD SWAP2 ADD PUSH2 0x4989 JUMP JUMPDEST POP PUSH4 0x4E487B71 PUSH1 0xE0 SHL PUSH1 0x0 SWAP1 DUP2 MSTORE PUSH1 0x41 PUSH1 0x4 MSTORE REVERT JUMPDEST PUSH1 0x40 MLOAD PUSH3 0x461BCD PUSH1 0xE5 SHL DUP2 MSTORE PUSH1 0x20 PUSH1 0x4 DUP3 ADD MSTORE PUSH1 0x16 DUP2 DUP9 ADD MSTORE PUSH22 0x109D5CDA5B995CDCC81B985B59481C995C5D5A5C9959 PUSH1 0x52 SHL PUSH1 0x44 DUP3 ADD MSTORE PUSH1 0x64 SWAP1 REVERT JUMPDEST PUSH1 0x40 MLOAD PUSH3 0x461BCD PUSH1 0xE5 SHL DUP2 MSTORE PUSH1 0x20 PUSH1 0x4 DUP3 ADD MSTORE PUSH1 0x1C DUP2 DUP9 ADD MSTORE PUSH28 0x20B63932B0B23C903932B3B4B9BA32B932B21030B99039B2B63632B9 PUSH1 0x21 SHL PUSH1 0x44 DUP3 ADD MSTORE PUSH1 0x64 SWAP1 REVERT JUMPDEST CALLVALUE PUSH2 0x5E2 JUMPI PUSH1 0x40 CALLDATASIZE PUSH1 0x3 NOT ADD SLT PUSH2 0x5E2 JUMPI PUSH1 0x1 PUSH1 0x1 PUSH1 0x40 SHL SUB PUSH1 0x4 CALLDATALOAD PUSH1 0x24 CALLDATALOAD DUP3 DUP2 GT PUSH2 0x5E2 JUMPI PUSH2 0x4AAE SWAP1 CALLDATASIZE SWAP1 PUSH1 0x4 ADD PUSH2 0x703D JUMP JUMPDEST PUSH2 0x4AB6 PUSH2 0x750D JUMP JUMPDEST DUP2 PUSH1 0x0 MSTORE PUSH1 0x20 SWAP1 PUSH1 0x18 DUP3 MSTORE PUSH1 0x40 PUSH1 0x0 KECCAK256 SLOAD ISZERO PUSH2 0x4C53 JUMPI PUSH2 0x4AD8 DUP2 MLOAD ISZERO ISZERO PUSH2 0x853B JUMP JUMPDEST PUSH2 0x4AE3 PUSH1 0xC SLOAD PUSH2 0x847C JUMP JUMPDEST DUP1 PUSH1 0xC SSTORE PUSH1 0x40 MLOAD SWAP1 PUSH2 0x4AF4 DUP3 PUSH2 0x6F5C JUMP JUMPDEST DUP1 DUP3 MSTORE DUP4 DUP3 ADD DUP4 DUP2 MSTORE PUSH1 0x40 DUP4 ADD SWAP1 DUP7 DUP3 MSTORE PUSH1 0x60 DUP5 ADD SWAP3 PUSH1 0x1 SWAP1 DUP2 DUP6 MSTORE PUSH1 0x0 MSTORE PUSH1 0x19 DUP8 MSTORE PUSH1 0x40 PUSH1 0x0 KECCAK256 SWAP5 MLOAD DUP6 SSTORE DUP1 DUP6 ADD SWAP2 MLOAD DUP1 MLOAD SWAP10 DUP11 GT PUSH2 0x143C JUMPI PUSH2 0x4B3C DUP11 PUSH2 0x1C00 DUP6 SLOAD PUSH2 0x70CC JUMP JUMPDEST DUP8 SWAP1 PUSH1 0x1F DUP12 GT PUSH1 0x1 EQ PUSH2 0x4BD6 JUMPI SWAP10 DUP1 DUP1 PUSH1 0x3 SWAP7 SWAP5 PUSH2 0x4B92 SWAP10 SWAP9 SWAP7 SWAP5 PUSH1 0x0 DUP1 MLOAD PUSH1 0x20 PUSH2 0x93BD DUP4 CODECOPY DUP2 MLOAD SWAP2 MSTORE SWAP13 SWAP14 SWAP15 PUSH1 0x0 SWAP5 PUSH2 0x4BCB JUMPI JUMPDEST POP POP SHL SWAP2 PUSH1 0x0 NOT SWAP1 DUP8 SHL SHR NOT AND OR SWAP1 SSTORE JUMPDEST MLOAD PUSH1 0x2 DUP5 ADD SSTORE MLOAD ISZERO ISZERO SWAP2 ADD PUSH2 0x78B7 JUMP JUMPDEST DUP4 PUSH1 0x0 MSTORE PUSH1 0x18 DUP4 MSTORE PUSH2 0x4BAE PUSH1 0x3 PUSH1 0x40 PUSH1 0x0 KECCAK256 ADD PUSH1 0xC SLOAD SWAP1 PUSH2 0x81D8 JUMP JUMPDEST PUSH1 0xC SLOAD SWAP3 PUSH2 0x4BC6 PUSH1 0x40 MLOAD SWAP3 DUP3 DUP5 SWAP4 DUP5 MSTORE DUP4 ADD SWAP1 PUSH2 0x6BEE JUMP JUMPDEST SUB SWAP1 LOG3 STOP JUMPDEST ADD MLOAD SWAP3 POP DUP15 DUP1 PUSH2 0x4B71 JUMP JUMPDEST SWAP10 SWAP1 PUSH1 0x1F NOT DUP3 AND SWAP11 DUP5 PUSH1 0x0 MSTORE DUP10 PUSH1 0x0 KECCAK256 SWAP12 PUSH1 0x0 JUMPDEST DUP2 DUP2 LT PUSH2 0x4C3E JUMPI POP SWAP12 PUSH1 0x3 SWAP7 SWAP5 SWAP3 DUP5 SWAP3 PUSH2 0x4B92 SWAP11 SWAP10 SWAP8 SWAP6 PUSH1 0x0 DUP1 MLOAD PUSH1 0x20 PUSH2 0x93BD DUP4 CODECOPY DUP2 MLOAD SWAP2 MSTORE SWAP14 SWAP15 SWAP16 LT PUSH2 0x4C26 JUMPI JUMPDEST POP POP POP DUP2 SHL ADD SWAP1 SSTORE PUSH2 0x4B82 JUMP JUMPDEST ADD MLOAD PUSH1 0x0 NOT DUP4 DUP10 SHL PUSH1 0xF8 AND SHR NOT AND SWAP1 SSTORE DUP13 DUP1 DUP1 PUSH2 0x4C19 JUMP JUMPDEST DUP4 DUP4 ADD MLOAD DUP15 SSTORE SWAP13 DUP6 ADD SWAP13 SWAP3 DUP12 ADD SWAP3 DUP12 ADD PUSH2 0x4BEA JUMP JUMPDEST PUSH1 0x40 MLOAD PUSH3 0x461BCD PUSH1 0xE5 SHL DUP2 MSTORE PUSH1 0x4 DUP2 ADD DUP4 SWAP1 MSTORE PUSH1 0x1E PUSH1 0x24 DUP3 ADD MSTORE PUSH32 0x506172656E742063617465676F727920646F6573206E6F742065786973740000 PUSH1 0x44 DUP3 ADD MSTORE PUSH1 0x64 SWAP1 REVERT JUMPDEST CALLVALUE PUSH2 0x5E2 JUMPI PUSH1 0x20 CALLDATASIZE PUSH1 0x3 NOT ADD SLT PUSH2 0x5E2 JUMPI PUSH1 0x4 CALLDATALOAD PUSH1 0x0 MSTORE PUSH1 0x15 PUSH1 0x20 MSTORE PUSH1 0x40 PUSH1 0x0 KECCAK256 DUP1 SLOAD PUSH1 0x1 PUSH1 0xA0 SHL PUSH1 0x1 SWAP1 SUB PUSH1 0x1 DUP4 ADD SLOAD AND SWAP2 PUSH1 0x40 MLOAD DUP1 DUP1 PUSH1 0x2 DUP5 ADD SWAP1 PUSH2 0x4CDE SWAP2 PUSH2 0x7106 JUMP JUMPDEST SUB PUSH2 0x4CE9 SWAP1 DUP3 PUSH2 0x6FC8 JUMP JUMPDEST PUSH1 0x40 MLOAD DUP1 PUSH2 0x4CFA DUP2 PUSH1 0x3 DUP7 ADD PUSH2 0x7106 JUMP JUMPDEST SUB PUSH2 0x4D05 SWAP1 DUP3 PUSH2 0x6FC8 JUMP JUMPDEST PUSH1 0x4 DUP4 ADD SLOAD PUSH1 0x5 DUP5 ADD SLOAD SWAP1 PUSH1 0x40 MLOAD DUP1 DUP1 PUSH1 0x9 DUP9 ADD SWAP1 PUSH2 0x4D23 SWAP2 PUSH2 0x7106 JUMP JUMPDEST SUB PUSH2 0x4D2E SWAP1 DUP3 PUSH2 0x6FC8 JUMP JUMPDEST PUSH1 0x40 MLOAD SWAP1 DUP2 PUSH2 0x4D40 DUP2 PUSH1 0xA DUP11 ADD PUSH2 0x7106 JUMP JUMPDEST SUB PUSH2 0x4D4B SWAP1 DUP4 PUSH2 0x6FC8 JUMP JUMPDEST PUSH1 0xB DUP8 ADD SLOAD SWAP3 PUSH1 0x40 MLOAD SWAP5 DUP6 DUP1 PUSH1 0xC DUP12 ADD SWAP1 PUSH2 0x4D65 SWAP2 PUSH2 0x7106 JUMP JUMPDEST SUB PUSH2 0x4D70 SWAP1 DUP8 PUSH2 0x6FC8 JUMP JUMPDEST PUSH1 0x40 MLOAD SWAP7 DUP8 PUSH2 0x4D82 DUP2 PUSH1 0xD DUP14 ADD PUSH2 0x7106 JUMP JUMPDEST SUB PUSH2 0x4D8D SWAP1 DUP10 PUSH2 0x6FC8 JUMP JUMPDEST PUSH1 0xE DUP11 ADD SLOAD SWAP10 PUSH1 0xF ADD SLOAD SWAP9 PUSH1 0x40 MLOAD SWAP13 DUP14 SWAP13 DUP14 MSTORE PUSH1 0x20 DUP14 ADD MSTORE DUP12 PUSH2 0x1E0 PUSH1 0x40 DUP2 SWAP3 ADD MSTORE DUP13 ADD PUSH2 0x4DBA SWAP2 PUSH2 0x6BEE JUMP JUMPDEST DUP12 DUP2 SUB PUSH1 0x60 DUP14 ADD MSTORE PUSH2 0x4DCB SWAP2 PUSH2 0x6BEE JUMP JUMPDEST SWAP2 PUSH1 0x80 DUP12 ADD MSTORE PUSH1 0xA0 DUP11 ADD MSTORE DUP9 DUP2 SUB PUSH1 0xC0 DUP11 ADD MSTORE PUSH2 0x4DE7 SWAP2 PUSH2 0x6BEE JUMP JUMPDEST DUP8 DUP2 SUB PUSH1 0xE0 DUP10 ADD MSTORE PUSH2 0x4DF8 SWAP2 PUSH2 0x6BEE JUMP JUMPDEST SWAP1 PUSH2 0x100 DUP8 ADD MSTORE DUP6 DUP2 SUB PUSH2 0x120 DUP8 ADD MSTORE PUSH2 0x4E11 SWAP2 PUSH2 0x6BEE JUMP JUMPDEST DUP5 DUP2 SUB PUSH2 0x140 DUP7 ADD MSTORE PUSH2 0x4E23 SWAP2 PUSH2 0x6BEE JUMP JUMPDEST SWAP2 PUSH2 0x160 DUP5 ADD MSTORE PUSH1 0xFF DUP2 AND ISZERO ISZERO PUSH2 0x180 DUP5 ADD MSTORE DUP1 PUSH1 0x8 SHR PUSH1 0xFF AND ISZERO ISZERO PUSH2 0x1A0 DUP5 ADD MSTORE PUSH1 0x10 SHR PUSH1 0xFF AND ISZERO ISZERO PUSH2 0x1C0 DUP4 ADD MSTORE SUB SWAP1 RETURN JUMPDEST CALLVALUE PUSH2 0x5E2 JUMPI PUSH1 0x0 CALLDATASIZE PUSH1 0x3 NOT ADD SLT PUSH2 0x5E2 JUMPI PUSH2 0x4E70 PUSH2 0x750D JUMP JUMPDEST PUSH1 0x0 DUP1 SLOAD PUSH1 0x1 PUSH1 0x1 PUSH1 0xA0 SHL SUB NOT DUP2 AND DUP3 SSTORE PUSH1 0x1 PUSH1 0x1 PUSH1 0xA0 SHL SUB AND PUSH1 0x0 DUP1 MLOAD PUSH1 0x20 PUSH2 0x935D DUP4 CODECOPY DUP2 MLOAD SWAP2 MSTORE DUP3 DUP1 LOG3 STOP JUMPDEST CALLVALUE PUSH2 0x5E2 JUMPI PUSH1 0x20 CALLDATASIZE PUSH1 0x3 NOT ADD SLT PUSH2 0x5E2 JUMPI PUSH1 0x1 PUSH1 0x1 PUSH1 0xA0 SHL SUB PUSH2 0x4EBF PUSH2 0x6EDD JUMP JUMPDEST AND DUP1 ISZERO PUSH2 0x4EDE JUMPI PUSH1 0x0 MSTORE PUSH1 0x5 PUSH1 0x20 MSTORE PUSH1 0x20 PUSH1 0x40 PUSH1 0x0 KECCAK256 SLOAD PUSH1 0x40 MLOAD SWAP1 DUP2 MSTORE RETURN JUMPDEST PUSH1 0x40 MLOAD PUSH3 0x461BCD PUSH1 0xE5 SHL DUP2 MSTORE PUSH1 0x20 PUSH1 0x4 DUP3 ADD MSTORE PUSH1 0x29 PUSH1 0x24 DUP3 ADD MSTORE PUSH32 0x4552433732313A2061646472657373207A65726F206973206E6F742061207661 PUSH1 0x44 DUP3 ADD MSTORE PUSH9 0x3634B21037BBB732B9 PUSH1 0xB9 SHL PUSH1 0x64 DUP3 ADD MSTORE PUSH1 0x84 SWAP1 REVERT JUMPDEST CALLVALUE PUSH2 0x5E2 JUMPI PUSH1 0x20 DUP1 PUSH1 0x3 NOT CALLDATASIZE ADD SLT PUSH2 0x5E2 JUMPI PUSH2 0x4F4F PUSH2 0x6EDD JUMP JUMPDEST PUSH1 0x40 MLOAD SWAP1 PUSH2 0x4F5C DUP3 PUSH2 0x6F77 JUMP JUMPDEST PUSH1 0x0 PUSH1 0x80 PUSH1 0x60 SWAP4 DUP5 DUP2 MSTORE DUP5 DUP7 DUP3 ADD MSTORE DUP5 PUSH1 0x40 DUP3 ADD MSTORE DUP3 DUP6 DUP3 ADD MSTORE ADD MSTORE PUSH1 0x1 DUP1 PUSH1 0xA0 SHL SUB AND SWAP1 DUP2 PUSH1 0x0 MSTORE PUSH1 0x14 DUP4 MSTORE PUSH1 0xFF PUSH1 0x40 PUSH1 0x0 KECCAK256 SLOAD AND SWAP2 PUSH1 0x10 DUP5 MSTORE PUSH1 0x40 PUSH1 0x0 KECCAK256 SWAP2 PUSH1 0x40 MLOAD SWAP2 PUSH2 0x4FAA DUP4 PUSH2 0x6F77 JUMP JUMPDEST PUSH1 0x40 MLOAD PUSH2 0x4FBB DUP2 PUSH2 0x3CE DUP2 DUP9 PUSH2 0x7106 JUMP JUMPDEST DUP4 MSTORE PUSH1 0x40 MLOAD SWAP1 PUSH2 0x4FD2 DUP3 PUSH2 0x33F9 DUP2 PUSH1 0x1 DUP10 ADD PUSH2 0x7106 JUMP JUMPDEST DUP7 DUP5 ADD SWAP2 DUP3 MSTORE PUSH1 0x40 MLOAD SWAP2 PUSH2 0x4FED DUP4 PUSH2 0x630 DUP2 PUSH1 0x2 DUP11 ADD PUSH2 0x7106 JUMP JUMPDEST PUSH1 0x40 DUP6 ADD SWAP3 DUP4 MSTORE PUSH1 0xFF PUSH1 0x4 PUSH1 0x3 DUP9 ADD SLOAD SWAP8 DUP7 DUP9 ADD SWAP9 DUP10 MSTORE ADD SLOAD AND SWAP2 PUSH1 0x80 DUP7 ADD SWAP3 ISZERO ISZERO DUP4 MSTORE PUSH1 0x0 MSTORE PUSH1 0x13 DUP9 MSTORE PUSH1 0xFF PUSH1 0x40 PUSH1 0x0 KECCAK256 SLOAD AND SWAP3 DUP4 PUSH1 0x0 EQ PUSH2 0x50B0 JUMPI PUSH1 0x12 DUP10 MSTORE PUSH1 0xFF PUSH1 0x40 PUSH1 0x0 KECCAK256 SLOAD AND SWAP6 JUMPDEST PUSH1 0x40 MLOAD SWAP10 DUP11 SWAP10 ISZERO ISZERO DUP11 MSTORE DUP10 ADD PUSH1 0x80 SWAP1 MSTORE MLOAD PUSH1 0x80 DUP10 ADD PUSH1 0xA0 SWAP1 MSTORE PUSH2 0x120 DUP10 ADD PUSH2 0x5060 SWAP2 PUSH2 0x6BEE JUMP JUMPDEST SWAP2 MLOAD PUSH1 0x7F NOT SWAP3 DUP4 DUP11 DUP3 SUB ADD PUSH1 0xA0 DUP12 ADD MSTORE PUSH2 0x5079 SWAP2 PUSH2 0x6BEE JUMP JUMPDEST SWAP1 MLOAD SWAP2 DUP9 DUP3 SUB ADD PUSH1 0xC0 DUP10 ADD MSTORE PUSH2 0x508E SWAP2 PUSH2 0x6BEE JUMP JUMPDEST SWAP5 MLOAD PUSH1 0xE0 DUP8 ADD MSTORE MLOAD ISZERO ISZERO PUSH2 0x100 DUP7 ADD MSTORE ISZERO ISZERO PUSH1 0x40 DUP6 ADD MSTORE DUP4 ADD PUSH2 0x35E SWAP2 PUSH2 0x7382 JUMP JUMPDEST PUSH1 0x0 SWAP6 PUSH2 0x5039 JUMP JUMPDEST CALLVALUE PUSH2 0x5E2 JUMPI PUSH1 0x20 CALLDATASIZE PUSH1 0x3 NOT ADD SLT PUSH2 0x5E2 JUMPI PUSH1 0x4 CALLDATALOAD PUSH1 0x0 MSTORE PUSH1 0x19 PUSH1 0x20 MSTORE PUSH1 0x40 PUSH1 0x0 KECCAK256 PUSH1 0x40 MLOAD PUSH2 0x50E5 DUP2 PUSH2 0x6F5C JUMP JUMPDEST DUP2 SLOAD DUP2 MSTORE PUSH1 0x40 MLOAD SWAP1 PUSH2 0x50FE DUP3 PUSH2 0x33F9 DUP2 PUSH1 0x1 DUP8 ADD PUSH2 0x7106 JUMP JUMPDEST PUSH1 0x20 DUP2 ADD SWAP2 DUP3 MSTORE PUSH1 0xFF PUSH1 0x3 PUSH1 0x2 DUP6 ADD SLOAD SWAP5 PUSH1 0x40 DUP5 ADD SWAP6 DUP7 MSTORE ADD SLOAD AND SWAP1 PUSH1 0x60 DUP2 ADD SWAP2 ISZERO ISZERO DUP3 MSTORE PUSH2 0x512F DUP2 MLOAD ISZERO ISZERO PUSH2 0x8607 JUMP JUMPDEST MLOAD SWAP2 MLOAD SWAP3 MLOAD SWAP1 MLOAD ISZERO ISZERO PUSH2 0x5154 PUSH1 0x40 MLOAD SWAP5 DUP6 SWAP5 DUP6 MSTORE PUSH1 0x80 PUSH1 0x20 DUP7 ADD MSTORE PUSH1 0x80 DUP6 ADD SWAP1 PUSH2 0x6BEE JUMP JUMPDEST SWAP2 PUSH1 0x40 DUP5 ADD MSTORE PUSH1 0x60 DUP4 ADD MSTORE SUB SWAP1 RETURN JUMPDEST CALLVALUE PUSH2 0x5E2 JUMPI PUSH2 0x5171 CALLDATASIZE PUSH2 0x708D JUMP JUMPDEST PUSH2 0x517C SWAP3 SWAP2 SWAP3 PUSH2 0x750D JUMP JUMPDEST DUP2 PUSH1 0x0 MSTORE PUSH1 0x20 SWAP3 PUSH1 0x18 DUP5 MSTORE PUSH2 0x5197 PUSH1 0x40 PUSH1 0x0 KECCAK256 SLOAD ISZERO ISZERO PUSH2 0x85A1 JUMP JUMPDEST PUSH2 0x51A3 DUP2 MLOAD ISZERO ISZERO PUSH2 0x84EF JUMP JUMPDEST PUSH1 0x0 DUP4 DUP2 MSTORE PUSH1 0x18 DUP6 MSTORE PUSH1 0x40 SWAP1 KECCAK256 DUP2 MLOAD SWAP5 SWAP1 PUSH1 0x1 SWAP1 DUP2 ADD SWAP1 PUSH1 0x1 PUSH1 0x1 PUSH1 0x40 SHL SUB DUP8 GT PUSH2 0x143C JUMPI PUSH2 0x51D6 DUP8 PUSH2 0x3A13 DUP5 SLOAD PUSH2 0x70CC JUMP JUMPDEST DUP3 PUSH1 0x1F DUP9 GT PUSH1 0x1 EQ PUSH2 0x5244 JUMPI SWAP7 DUP1 DUP1 PUSH1 0x18 SWAP6 SWAP5 SWAP4 PUSH1 0x0 DUP1 MLOAD PUSH1 0x20 PUSH2 0x933D DUP4 CODECOPY DUP2 MLOAD SWAP2 MSTORE SWAP10 SWAP11 PUSH1 0x0 SWAP4 PUSH2 0x5239 JUMPI JUMPDEST POP SHL SWAP2 PUSH1 0x0 NOT SWAP1 PUSH1 0x3 SHL SHR NOT AND OR SWAP1 SSTORE JUMPDEST DUP6 PUSH1 0x0 MSTORE MSTORE PUSH2 0x522A DUP3 PUSH1 0x2 PUSH1 0x40 PUSH1 0x0 KECCAK256 ADD PUSH2 0x78B7 JUMP JUMPDEST PUSH2 0x1CB7 PUSH1 0x40 MLOAD SWAP3 DUP4 SWAP3 DUP4 PUSH2 0x85E7 JUMP JUMPDEST DUP9 ADD MLOAD SWAP3 POP DUP12 PUSH2 0x5203 JUMP JUMPDEST SWAP7 PUSH1 0x1F NOT DUP2 AND SWAP8 DUP4 PUSH1 0x0 MSTORE DUP5 PUSH1 0x0 KECCAK256 SWAP9 PUSH1 0x0 JUMPDEST DUP2 DUP2 LT PUSH2 0x52A4 JUMPI POP SWAP9 DUP3 SWAP2 PUSH1 0x18 SWAP7 SWAP6 SWAP5 SWAP4 PUSH1 0x0 DUP1 MLOAD PUSH1 0x20 PUSH2 0x933D DUP4 CODECOPY DUP2 MLOAD SWAP2 MSTORE SWAP11 SWAP12 LT PUSH2 0x528B JUMPI JUMPDEST POP POP DUP2 SHL ADD SWAP1 SSTORE PUSH2 0x5214 JUMP JUMPDEST DUP8 ADD MLOAD PUSH1 0x0 NOT PUSH1 0xF8 DUP5 PUSH1 0x3 SHL AND SHR NOT AND SWAP1 SSTORE DUP10 DUP1 PUSH2 0x527F JUMP JUMPDEST DUP8 DUP4 ADD MLOAD DUP12 SSTORE SWAP10 DUP5 ADD SWAP10 SWAP2 DUP7 ADD SWAP2 DUP7 ADD PUSH2 0x5257 JUMP JUMPDEST PUSH1 0x3 NOT PUSH1 0x40 CALLDATASIZE DUP3 ADD SLT PUSH2 0x5E2 JUMPI PUSH1 0x24 SWAP1 PUSH1 0x1 PUSH1 0x1 PUSH1 0x40 SHL SUB DUP3 CALLDATALOAD GT PUSH2 0x5E2 JUMPI PUSH2 0x100 SWAP1 DUP3 CALLDATALOAD CALLDATASIZE SUB ADD SLT PUSH2 0x5E2 JUMPI PUSH2 0x52EE PUSH2 0x8716 JUMP JUMPDEST PUSH1 0x4 CALLDATALOAD PUSH1 0x0 MSTORE PUSH1 0x17 PUSH1 0x20 MSTORE PUSH2 0x530A PUSH1 0xFF PUSH1 0x40 PUSH1 0x0 KECCAK256 SLOAD AND PUSH2 0x8258 JUMP JUMPDEST PUSH1 0x4 CALLDATALOAD PUSH1 0x0 MSTORE PUSH1 0x15 PUSH1 0x20 MSTORE PUSH2 0x532D PUSH1 0xFF PUSH1 0xF PUSH1 0x40 PUSH1 0x0 KECCAK256 ADD SLOAD PUSH1 0x10 SHR AND ISZERO PUSH2 0x829D JUMP JUMPDEST PUSH1 0x4 CALLDATALOAD PUSH1 0x0 MSTORE PUSH1 0x15 PUSH1 0x20 MSTORE PUSH1 0x5 PUSH1 0x40 PUSH1 0x0 KECCAK256 ADD SLOAD ISZERO PUSH2 0x59A3 JUMPI PUSH1 0x4 CALLDATALOAD PUSH1 0x0 MSTORE PUSH1 0x15 PUSH1 0x20 MSTORE PUSH1 0xFF PUSH1 0xF PUSH1 0x40 PUSH1 0x0 KECCAK256 ADD SLOAD AND PUSH2 0x5962 JUMPI PUSH1 0x4 CALLDATALOAD PUSH1 0x0 MSTORE PUSH1 0x15 PUSH1 0x20 MSTORE PUSH1 0x1 DUP1 PUSH1 0xA0 SHL SUB PUSH1 0x1 PUSH1 0x40 PUSH1 0x0 KECCAK256 ADD SLOAD AND CALLER EQ PUSH2 0x5920 JUMPI PUSH2 0x5391 PUSH1 0x4 DUP3 CALLDATALOAD ADD DUP1 PUSH2 0x7C5C JUMP JUMPDEST SWAP1 POP ISZERO PUSH2 0x58E7 JUMPI PUSH2 0x53A9 DUP2 DUP1 CALLDATALOAD ADD DUP3 CALLDATALOAD PUSH1 0x4 ADD PUSH2 0x7C5C JUMP JUMPDEST SWAP1 POP ISZERO PUSH2 0x58A9 JUMPI PUSH2 0x53C2 PUSH1 0x44 DUP3 CALLDATALOAD ADD DUP3 CALLDATALOAD PUSH1 0x4 ADD PUSH2 0x7C5C JUMP JUMPDEST SWAP1 POP ISZERO PUSH2 0x5875 JUMPI PUSH2 0x53DB PUSH1 0x64 DUP3 CALLDATALOAD ADD DUP3 CALLDATALOAD PUSH1 0x4 ADD PUSH2 0x7C5C JUMP JUMPDEST SWAP1 POP ISZERO PUSH2 0x5840 JUMPI PUSH2 0x53F4 PUSH1 0x84 DUP3 CALLDATALOAD ADD DUP3 CALLDATALOAD PUSH1 0x4 ADD PUSH2 0x7C5C JUMP JUMPDEST SWAP1 POP ISZERO PUSH2 0x5809 JUMPI PUSH2 0x540D PUSH1 0xA4 DUP3 CALLDATALOAD ADD DUP3 CALLDATALOAD PUSH1 0x4 ADD PUSH2 0x7C5C JUMP JUMPDEST SWAP1 POP ISZERO PUSH2 0x57CE JUMPI PUSH2 0x5432 PUSH2 0x5429 PUSH1 0xC4 DUP4 CALLDATALOAD ADD DUP4 CALLDATALOAD PUSH1 0x4 ADD PUSH2 0x7C5C JUMP JUMPDEST SWAP1 POP ISZERO ISZERO PUSH2 0x7B30 JUMP JUMPDEST PUSH2 0x5450 PUSH2 0x5447 PUSH1 0xE4 DUP4 CALLDATALOAD ADD DUP4 CALLDATALOAD PUSH1 0x4 ADD PUSH2 0x7C5C JUMP JUMPDEST SWAP1 POP ISZERO ISZERO PUSH2 0x7AF3 JUMP JUMPDEST PUSH1 0x4 CALLDATALOAD PUSH1 0x0 MSTORE PUSH1 0x15 PUSH1 0x20 MSTORE PUSH1 0x4 PUSH1 0x40 PUSH1 0x0 KECCAK256 ADD SLOAD SWAP1 DUP2 CALLVALUE LT PUSH2 0x5795 JUMPI PUSH1 0x4 CALLDATALOAD PUSH1 0x0 MSTORE PUSH1 0x15 PUSH1 0x20 MSTORE PUSH1 0x5 PUSH1 0x40 PUSH1 0x0 KECCAK256 ADD DUP1 SLOAD DUP1 ISZERO PUSH2 0x5780 JUMPI PUSH1 0x0 NOT ADD SWAP1 SSTORE PUSH1 0x4 CALLDATALOAD PUSH1 0x0 MSTORE PUSH1 0x15 PUSH1 0x20 MSTORE PUSH1 0x40 PUSH1 0x0 KECCAK256 PUSH1 0x5 DUP2 ADD SLOAD ISZERO PUSH2 0x576C JUMPI JUMPDEST PUSH1 0x1 ADD SLOAD PUSH1 0x40 MLOAD PUSH1 0x1 PUSH1 0x1 PUSH1 0xA0 SHL SUB SWAP1 SWAP2 AND SWAP2 SWAP1 PUSH2 0x54C5 DUP2 PUSH2 0x6F25 JUMP JUMPDEST PUSH1 0x4 DUP3 CALLDATALOAD ADD CALLDATALOAD PUSH1 0x1 PUSH1 0x1 PUSH1 0x40 SHL SUB DUP2 GT PUSH2 0x5E2 JUMPI PUSH2 0x54EA SWAP1 PUSH1 0x4 CALLDATASIZE SWAP2 DUP6 CALLDATALOAD ADD ADD PUSH2 0x703D JUMP JUMPDEST DUP2 MSTORE PUSH1 0x1 PUSH1 0x1 PUSH1 0x40 SHL SUB DUP3 CALLDATALOAD DUP4 ADD CALLDATALOAD GT PUSH2 0x5E2 JUMPI PUSH2 0x5511 CALLDATASIZE DUP4 CALLDATALOAD DUP1 DUP6 ADD CALLDATALOAD ADD PUSH1 0x4 ADD PUSH2 0x703D JUMP JUMPDEST PUSH1 0x20 DUP3 ADD MSTORE DUP2 CALLDATALOAD PUSH1 0x44 ADD CALLDATALOAD PUSH1 0x1 PUSH1 0x1 PUSH1 0x40 SHL SUB DUP2 GT PUSH2 0x5E2 JUMPI PUSH2 0x553B SWAP1 PUSH1 0x4 CALLDATASIZE SWAP2 DUP6 CALLDATALOAD ADD ADD PUSH2 0x703D JUMP JUMPDEST PUSH1 0x40 DUP3 ADD MSTORE DUP2 CALLDATALOAD PUSH1 0x64 ADD CALLDATALOAD PUSH1 0x1 PUSH1 0x1 PUSH1 0x40 SHL SUB DUP2 GT PUSH2 0x5E2 JUMPI PUSH2 0x5565 SWAP1 PUSH1 0x4 CALLDATASIZE SWAP2 DUP6 CALLDATALOAD ADD ADD PUSH2 0x703D JUMP JUMPDEST PUSH1 0x60 DUP3 ADD MSTORE DUP2 CALLDATALOAD PUSH1 0x84 ADD CALLDATALOAD PUSH1 0x1 PUSH1 0x1 PUSH1 0x40 SHL SUB DUP2 GT PUSH2 0x5E2 JUMPI PUSH2 0x558F SWAP1 PUSH1 0x4 CALLDATASIZE SWAP2 DUP6 CALLDATALOAD ADD ADD PUSH2 0x703D JUMP JUMPDEST PUSH1 0x80 DUP3 ADD MSTORE DUP2 CALLDATALOAD PUSH1 0xA4 ADD CALLDATALOAD PUSH1 0x1 PUSH1 0x1 PUSH1 0x40 SHL SUB DUP2 GT PUSH2 0x5E2 JUMPI PUSH2 0x55B9 SWAP1 PUSH1 0x4 CALLDATASIZE SWAP2 DUP6 CALLDATALOAD ADD ADD PUSH2 0x703D JUMP JUMPDEST PUSH1 0xA0 DUP3 ADD MSTORE DUP2 CALLDATALOAD PUSH1 0xC4 ADD CALLDATALOAD PUSH1 0x1 PUSH1 0x1 PUSH1 0x40 SHL SUB DUP2 GT PUSH2 0x5E2 JUMPI PUSH2 0x55E3 SWAP1 PUSH1 0x4 CALLDATASIZE SWAP2 DUP6 CALLDATALOAD ADD ADD PUSH2 0x703D JUMP JUMPDEST PUSH1 0xC0 DUP3 ADD MSTORE DUP2 CALLDATALOAD PUSH1 0xE4 ADD CALLDATALOAD SWAP1 PUSH1 0x1 PUSH1 0x1 PUSH1 0x40 SHL SUB DUP3 GT PUSH2 0x5E2 JUMPI PUSH2 0x5611 PUSH2 0x567C SWAP3 PUSH1 0x4 CALLDATASIZE SWAP2 DUP7 CALLDATALOAD ADD ADD PUSH2 0x703D JUMP JUMPDEST PUSH1 0xE0 DUP3 ADD MSTORE PUSH1 0x40 MLOAD SWAP1 PUSH2 0x5623 DUP3 PUSH2 0x6F25 JUMP JUMPDEST PUSH1 0x4 CALLDATALOAD DUP3 MSTORE DUP6 PUSH1 0x20 DUP4 ADD MSTORE DUP6 PUSH1 0x40 DUP4 ADD MSTORE TIMESTAMP PUSH1 0x60 DUP4 ADD MSTORE CALLER PUSH1 0x80 DUP4 ADD MSTORE DUP5 PUSH1 0xA0 DUP4 ADD MSTORE PUSH1 0x0 PUSH1 0xC0 DUP4 ADD MSTORE PUSH1 0xE0 DUP3 ADD MSTORE CALLER PUSH1 0x0 MSTORE PUSH1 0x1B PUSH1 0x20 MSTORE PUSH2 0x5669 DUP2 PUSH1 0x40 PUSH1 0x0 KECCAK256 PUSH2 0x876C JUMP JUMPDEST DUP4 PUSH1 0x0 MSTORE PUSH1 0x1C PUSH1 0x20 MSTORE PUSH1 0x40 PUSH1 0x0 KECCAK256 PUSH2 0x876C JUMP JUMPDEST DUP2 PUSH1 0x0 MSTORE PUSH1 0x1A PUSH1 0x20 MSTORE PUSH1 0x40 PUSH1 0x0 KECCAK256 DUP1 SLOAD SWAP2 DUP5 DUP4 ADD DUP1 SWAP4 GT PUSH2 0x5758 JUMPI POP SSTORE PUSH1 0x40 MLOAD DUP3 DUP2 MSTORE DUP3 PUSH1 0x20 DUP3 ADD MSTORE TIMESTAMP PUSH1 0x40 DUP3 ADD MSTORE CALLER SWAP1 PUSH32 0x45280C7AC9CEC77EDD454E39E1641A3E22619146CF074A4239BEEE86A7C07EDC PUSH1 0x60 PUSH1 0x4 CALLDATALOAD SWAP3 LOG4 PUSH1 0x1 PUSH1 0x9 SLOAD ADD PUSH1 0x9 SSTORE PUSH2 0x56E8 DUP2 CALLVALUE PUSH2 0x86BC JUMP JUMPDEST DUP1 PUSH2 0x5748 JUMPI JUMPDEST POP PUSH1 0x4 CALLDATALOAD PUSH1 0x0 MSTORE PUSH1 0x15 PUSH1 0x20 MSTORE PUSH1 0x1 DUP1 PUSH1 0xA0 SHL SUB PUSH1 0x1 PUSH1 0x40 PUSH1 0x0 KECCAK256 ADD SLOAD AND SWAP1 PUSH1 0x40 MLOAD SWAP1 DUP2 MSTORE TIMESTAMP PUSH1 0x20 DUP3 ADD MSTORE CALLER SWAP1 PUSH32 0xBE6177108F4DF43C5D7BE79CB219C969FC97915BBDB4B56D14D391DCDCC16060 PUSH1 0x40 PUSH1 0x4 CALLDATALOAD SWAP3 LOG4 PUSH1 0x1 DUP1 SSTORE STOP JUMPDEST PUSH2 0x5752 SWAP1 CALLER PUSH2 0x9248 JUMP JUMPDEST DUP2 PUSH2 0x56EE JUMP JUMPDEST PUSH4 0x4E487B71 PUSH1 0xE0 SHL PUSH1 0x0 SWAP1 DUP2 MSTORE PUSH1 0x11 PUSH1 0x4 MSTORE REVERT JUMPDEST PUSH1 0xF DUP2 ADD DUP1 SLOAD PUSH1 0xFF NOT AND PUSH1 0x1 OR SWAP1 SSTORE PUSH2 0x54A8 JUMP JUMPDEST DUP3 PUSH4 0x4E487B71 PUSH1 0xE0 SHL PUSH1 0x0 MSTORE PUSH1 0x11 PUSH1 0x4 MSTORE PUSH1 0x0 REVERT JUMPDEST PUSH1 0x64 SWAP1 PUSH1 0x12 PUSH1 0x40 MLOAD SWAP2 PUSH3 0x461BCD PUSH1 0xE5 SHL DUP4 MSTORE PUSH1 0x20 PUSH1 0x4 DUP5 ADD MSTORE DUP3 ADD MSTORE PUSH18 0x496E73756666696369656E742066756E6473 PUSH1 0x70 SHL PUSH1 0x44 DUP3 ADD MSTORE REVERT JUMPDEST PUSH1 0x64 SWAP1 PUSH1 0x14 PUSH1 0x40 MLOAD SWAP2 PUSH3 0x461BCD PUSH1 0xE5 SHL DUP4 MSTORE PUSH1 0x20 PUSH1 0x4 DUP5 ADD MSTORE DUP3 ADD MSTORE PUSH20 0x141BDCDD185B0818DBD919481C995C5D5A5C9959 PUSH1 0x62 SHL PUSH1 0x44 DUP3 ADD MSTORE REVERT JUMPDEST PUSH1 0x64 SWAP1 PUSH1 0x10 PUSH1 0x40 MLOAD SWAP2 PUSH3 0x461BCD PUSH1 0xE5 SHL DUP4 MSTORE PUSH1 0x20 PUSH1 0x4 DUP5 ADD MSTORE DUP3 ADD MSTORE PUSH16 0x10DBDD5B9D1C9E481C995C5D5A5C9959 PUSH1 0x82 SHL PUSH1 0x44 DUP3 ADD MSTORE REVERT JUMPDEST PUSH1 0x64 SWAP1 PUSH1 0xE PUSH1 0x40 MLOAD SWAP2 PUSH3 0x461BCD PUSH1 0xE5 SHL DUP4 MSTORE PUSH1 0x20 PUSH1 0x4 DUP5 ADD MSTORE DUP3 ADD MSTORE PUSH14 0x14DD185D19481C995C5D5A5C9959 PUSH1 0x92 SHL PUSH1 0x44 DUP3 ADD MSTORE REVERT JUMPDEST PUSH1 0x64 SWAP1 PUSH1 0xD PUSH1 0x40 MLOAD SWAP2 PUSH3 0x461BCD PUSH1 0xE5 SHL DUP4 MSTORE PUSH1 0x20 PUSH1 0x4 DUP5 ADD MSTORE DUP3 ADD MSTORE PUSH13 0x10DA5D1E481C995C5D5A5C9959 PUSH1 0x9A SHL PUSH1 0x44 DUP3 ADD MSTORE REVERT JUMPDEST PUSH1 0x64 SWAP1 PUSH1 0x17 PUSH1 0x40 MLOAD SWAP2 PUSH3 0x461BCD PUSH1 0xE5 SHL DUP4 MSTORE PUSH1 0x20 PUSH1 0x4 DUP5 ADD MSTORE DUP3 ADD MSTORE PUSH23 0x14DD1C99595D081859191C995CDCC81C995C5D5A5C9959 PUSH1 0x4A SHL PUSH1 0x44 DUP3 ADD MSTORE REVERT JUMPDEST PUSH1 0x64 SWAP1 PUSH1 0x12 PUSH1 0x40 MLOAD SWAP2 PUSH3 0x461BCD PUSH1 0xE5 SHL DUP4 MSTORE PUSH1 0x20 PUSH1 0x4 DUP5 ADD MSTORE DUP3 ADD MSTORE PUSH18 0x119D5B1B081B985B59481C995C5D5A5C9959 PUSH1 0x72 SHL PUSH1 0x44 DUP3 ADD MSTORE REVERT JUMPDEST PUSH1 0x64 SWAP1 PUSH1 0x1B PUSH1 0x40 MLOAD SWAP2 PUSH3 0x461BCD PUSH1 0xE5 SHL DUP4 MSTORE PUSH1 0x20 PUSH1 0x4 DUP5 ADD MSTORE DUP3 ADD MSTORE PUSH27 0x10D85B9B9BDD08189D5E481E5BDD5C881BDDDB881C1C9BD91D58DD PUSH1 0x2A SHL PUSH1 0x44 DUP3 ADD MSTORE REVERT JUMPDEST PUSH1 0x64 SWAP1 PUSH1 0x1A PUSH1 0x40 MLOAD SWAP2 PUSH3 0x461BCD PUSH1 0xE5 SHL DUP4 MSTORE PUSH1 0x20 PUSH1 0x4 DUP5 ADD MSTORE DUP3 ADD MSTORE PUSH26 0x141C9BD91D58DD081A5CC8185B1C9958591E481CDBDB191BDD5D PUSH1 0x32 SHL PUSH1 0x44 DUP3 ADD MSTORE REVERT JUMPDEST PUSH1 0x64 SWAP1 PUSH1 0x17 PUSH1 0x40 MLOAD SWAP2 PUSH3 0x461BCD PUSH1 0xE5 SHL DUP4 MSTORE PUSH1 0x20 PUSH1 0x4 DUP5 ADD MSTORE DUP3 ADD MSTORE PUSH23 0x50726F64756374206973206F7574206F662073746F636B PUSH1 0x48 SHL PUSH1 0x44 DUP3 ADD MSTORE REVERT JUMPDEST CALLVALUE PUSH2 0x5E2 JUMPI PUSH1 0x20 CALLDATASIZE PUSH1 0x3 NOT ADD SLT PUSH2 0x5E2 JUMPI PUSH1 0x20 PUSH2 0x59FF PUSH1 0x4 CALLDATALOAD PUSH2 0x75AC JUMP JUMPDEST PUSH1 0x40 MLOAD PUSH1 0x1 PUSH1 0x1 PUSH1 0xA0 SHL SUB SWAP1 SWAP2 AND DUP2 MSTORE RETURN JUMPDEST CALLVALUE PUSH2 0x5E2 JUMPI PUSH1 0x20 CALLDATASIZE PUSH1 0x3 NOT ADD SLT PUSH2 0x5E2 JUMPI PUSH1 0x1 PUSH1 0x1 PUSH1 0xA0 SHL SUB PUSH2 0x5A32 PUSH2 0x6EDD JUMP JUMPDEST AND PUSH1 0x0 MSTORE PUSH1 0x1A PUSH1 0x20 MSTORE PUSH1 0x20 PUSH1 0x40 PUSH1 0x0 KECCAK256 SLOAD PUSH1 0x40 MLOAD SWAP1 DUP2 MSTORE RETURN JUMPDEST CALLVALUE PUSH2 0x5E2 JUMPI PUSH1 0x20 CALLDATASIZE PUSH1 0x3 NOT ADD SLT PUSH2 0x5E2 JUMPI PUSH1 0x4 CALLDATALOAD PUSH2 0x5A67 PUSH2 0x750D JUMP JUMPDEST PUSH1 0x64 DUP2 GT PUSH2 0x5A74 JUMPI PUSH1 0xD SSTORE STOP JUMPDEST PUSH1 0x40 MLOAD PUSH3 0x461BCD PUSH1 0xE5 SHL DUP2 MSTORE PUSH1 0x20 PUSH1 0x4 DUP3 ADD MSTORE PUSH1 0x12 PUSH1 0x24 DUP3 ADD MSTORE PUSH18 0x496E76616C69642070657263656E74616765 PUSH1 0x70 SHL PUSH1 0x44 DUP3 ADD MSTORE PUSH1 0x64 SWAP1 REVERT JUMPDEST CALLVALUE PUSH2 0x5E2 JUMPI PUSH1 0x0 CALLDATASIZE PUSH1 0x3 NOT ADD SLT PUSH2 0x5E2 JUMPI PUSH1 0x40 MLOAD DUP1 PUSH1 0xE SLOAD DUP1 DUP4 MSTORE PUSH1 0x20 DUP1 SWAP4 ADD DUP1 SWAP2 PUSH1 0xE PUSH1 0x0 MSTORE DUP5 PUSH1 0x0 KECCAK256 SWAP1 PUSH1 0x0 JUMPDEST DUP7 DUP3 DUP3 LT PUSH2 0x5B3C JUMPI DUP7 DUP7 PUSH2 0x5AF3 DUP3 DUP9 SUB DUP4 PUSH2 0x6FC8 JUMP JUMPDEST PUSH1 0x40 MLOAD SWAP3 DUP4 SWAP3 DUP2 DUP5 ADD SWAP1 DUP3 DUP6 MSTORE MLOAD DUP1 SWAP2 MSTORE PUSH1 0x40 DUP5 ADD SWAP3 SWAP2 PUSH1 0x0 JUMPDEST DUP3 DUP2 LT PUSH2 0x5B1C JUMPI POP POP POP POP SUB SWAP1 RETURN JUMPDEST DUP4 MLOAD PUSH1 0x1 PUSH1 0x1 PUSH1 0xA0 SHL SUB AND DUP6 MSTORE DUP7 SWAP6 POP SWAP4 DUP2 ADD SWAP4 SWAP3 DUP2 ADD SWAP3 PUSH1 0x1 ADD PUSH2 0x5B0D JUMP JUMPDEST DUP4 SLOAD PUSH1 0x1 PUSH1 0x1 PUSH1 0xA0 SHL SUB AND DUP6 MSTORE SWAP1 SWAP4 ADD SWAP3 PUSH1 0x1 SWAP3 DUP4 ADD SWAP3 ADD PUSH2 0x5ADD JUMP JUMPDEST CALLVALUE PUSH2 0x5E2 JUMPI PUSH1 0x20 CALLDATASIZE PUSH1 0x3 NOT ADD SLT PUSH2 0x5E2 JUMPI PUSH1 0x4 CALLDATALOAD PUSH1 0xF SLOAD DUP2 LT ISZERO PUSH2 0x5E2 JUMPI PUSH1 0xF PUSH1 0x0 MSTORE PUSH1 0x0 DUP1 MLOAD PUSH1 0x20 PUSH2 0x93FD DUP4 CODECOPY DUP2 MLOAD SWAP2 MSTORE ADD SLOAD PUSH1 0x40 MLOAD PUSH1 0x1 PUSH1 0x1 PUSH1 0xA0 SHL SUB SWAP1 SWAP2 AND DUP2 MSTORE PUSH1 0x20 SWAP1 RETURN JUMPDEST CALLVALUE PUSH2 0x5E2 JUMPI PUSH1 0x20 CALLDATASIZE PUSH1 0x3 NOT ADD SLT PUSH2 0x5E2 JUMPI PUSH1 0x1 PUSH1 0x1 PUSH1 0xA0 SHL SUB PUSH2 0x5BC3 PUSH2 0x6EDD JUMP JUMPDEST AND PUSH1 0x0 MSTORE PUSH1 0x12 PUSH1 0x20 MSTORE PUSH1 0x20 PUSH1 0xFF PUSH1 0x40 PUSH1 0x0 KECCAK256 SLOAD AND PUSH2 0x8C0 PUSH1 0x40 MLOAD DUP1 SWAP3 PUSH2 0x7382 JUMP JUMPDEST CALLVALUE PUSH2 0x5E2 JUMPI PUSH1 0x20 DUP1 PUSH1 0x3 NOT CALLDATASIZE ADD SLT PUSH2 0x5E2 JUMPI PUSH2 0x5BFE PUSH2 0x6EDD JUMP JUMPDEST PUSH2 0x5C06 PUSH2 0x7B6D JUMP JUMPDEST POP PUSH1 0x1 PUSH1 0x1 PUSH1 0xA0 SHL SUB AND PUSH1 0x0 DUP2 DUP2 MSTORE PUSH1 0x13 DUP4 MSTORE PUSH1 0x40 SWAP1 KECCAK256 SLOAD PUSH2 0x5C2A SWAP1 PUSH1 0xFF AND PUSH2 0x7BA4 JUMP JUMPDEST PUSH1 0x0 MSTORE PUSH1 0x11 DUP2 MSTORE PUSH1 0x40 PUSH1 0x0 KECCAK256 SWAP1 PUSH1 0xFF PUSH1 0x6 PUSH1 0x40 MLOAD SWAP4 PUSH2 0x5C48 DUP6 PUSH2 0x6F41 JUMP JUMPDEST PUSH1 0x40 MLOAD PUSH2 0x5C59 DUP2 PUSH2 0x3CE DUP2 DUP6 PUSH2 0x7106 JUMP JUMPDEST DUP6 MSTORE PUSH1 0x40 MLOAD PUSH2 0x5C6F DUP2 PUSH2 0x3CE DUP2 PUSH1 0x1 DUP7 ADD PUSH2 0x7106 JUMP JUMPDEST DUP5 DUP7 ADD MSTORE PUSH1 0x40 MLOAD PUSH2 0x5C87 DUP2 PUSH2 0x3CE DUP2 PUSH1 0x2 DUP7 ADD PUSH2 0x7106 JUMP JUMPDEST PUSH1 0x40 DUP7 ADD MSTORE PUSH1 0x40 MLOAD PUSH2 0x5CA0 DUP2 PUSH2 0x3CE DUP2 PUSH1 0x3 DUP7 ADD PUSH2 0x7106 JUMP JUMPDEST PUSH1 0x60 DUP7 ADD MSTORE PUSH1 0x40 MLOAD PUSH2 0x5CB9 DUP2 PUSH2 0x3CE DUP2 PUSH1 0x4 DUP7 ADD PUSH2 0x7106 JUMP JUMPDEST PUSH1 0x80 DUP7 ADD MSTORE PUSH1 0x5 DUP2 ADD SLOAD PUSH1 0xA0 DUP7 ADD MSTORE ADD SLOAD AND ISZERO ISZERO PUSH1 0xC0 DUP4 ADD MSTORE PUSH2 0x35E PUSH1 0x40 MLOAD SWAP3 DUP3 DUP5 SWAP4 DUP5 MSTORE DUP4 ADD SWAP1 PUSH2 0x7302 JUMP JUMPDEST CALLVALUE PUSH2 0x5E2 JUMPI PUSH2 0x1399 PUSH2 0x5CF7 CALLDATASIZE PUSH2 0x7058 JUMP JUMPDEST SWAP1 PUSH1 0x40 MLOAD SWAP3 PUSH2 0x5D05 DUP5 PUSH2 0x6FAD JUMP JUMPDEST PUSH1 0x0 DUP5 MSTORE PUSH2 0x7658 JUMP JUMPDEST CALLVALUE PUSH2 0x5E2 JUMPI PUSH1 0x0 CALLDATASIZE PUSH1 0x3 NOT ADD SLT PUSH2 0x5E2 JUMPI PUSH2 0x5D27 PUSH2 0x8716 JUMP JUMPDEST CALLER PUSH1 0x0 MSTORE PUSH1 0x20 PUSH1 0x13 DUP2 MSTORE PUSH1 0xFF PUSH1 0x40 PUSH1 0x0 KECCAK256 SLOAD AND ISZERO PUSH2 0x5E0E JUMPI CALLER PUSH1 0x0 MSTORE PUSH1 0x1A DUP2 MSTORE PUSH1 0x40 PUSH1 0x0 KECCAK256 SLOAD SWAP1 DUP2 ISZERO PUSH2 0x5DD1 JUMPI PUSH1 0xD SLOAD DUP1 DUP4 MUL SWAP1 DUP4 DUP3 DIV SUB PUSH2 0x1426 JUMPI PUSH2 0x5DCB SWAP3 PUSH2 0x5D78 PUSH1 0x64 PUSH2 0x5DC5 SWAP4 DIV DUP1 SWAP3 PUSH2 0x86BC JUMP JUMPDEST SWAP3 CALLER PUSH1 0x0 MSTORE PUSH1 0x1A DUP2 MSTORE PUSH1 0x0 PUSH1 0x40 DUP2 KECCAK256 SSTORE PUSH32 0x8AD64A0AC7700DD8425AB0499F107CB6E2CD1581D803C5B8C1C79DCB8190B1AF PUSH1 0x40 MLOAD SWAP2 PUSH1 0x0 DUP4 MSTORE CALLER SWAP3 LOG2 PUSH1 0x0 SLOAD PUSH1 0x1 PUSH1 0x1 PUSH1 0xA0 SHL SUB AND PUSH2 0x9248 JUMP JUMPDEST CALLER PUSH2 0x9248 JUMP JUMPDEST PUSH1 0x1 DUP1 SSTORE STOP JUMPDEST PUSH1 0x64 SWAP1 PUSH1 0x40 MLOAD SWAP1 PUSH3 0x461BCD PUSH1 0xE5 SHL DUP3 MSTORE PUSH1 0x4 DUP3 ADD MSTORE PUSH1 0x16 PUSH1 0x24 DUP3 ADD MSTORE PUSH22 0x4E6F2062616C616E636520746F207769746864726177 PUSH1 0x50 SHL PUSH1 0x44 DUP3 ADD MSTORE REVERT JUMPDEST PUSH1 0x64 SWAP1 PUSH1 0x40 MLOAD SWAP1 PUSH3 0x461BCD PUSH1 0xE5 SHL DUP3 MSTORE PUSH1 0x4 DUP3 ADD MSTORE PUSH1 0x1B PUSH1 0x24 DUP3 ADD MSTORE PUSH27 0x26BAB9BA1031329030903932B3B4B9BA32B932B21039B2B63632B9 PUSH1 0x29 SHL PUSH1 0x44 DUP3 ADD MSTORE REVERT JUMPDEST CALLVALUE PUSH2 0x5E2 JUMPI PUSH1 0x20 DUP1 PUSH1 0x3 NOT CALLDATASIZE ADD SLT PUSH2 0x5E2 JUMPI PUSH1 0x1 PUSH1 0x1 PUSH1 0xA0 SHL SUB SWAP1 DUP2 PUSH2 0x5E74 PUSH2 0x6EDD JUMP JUMPDEST AND PUSH1 0x0 MSTORE PUSH1 0x1C DUP2 MSTORE PUSH1 0x40 PUSH1 0x0 KECCAK256 DUP1 SLOAD SWAP1 PUSH2 0x5E8D DUP3 PUSH2 0x7F92 JUMP JUMPDEST SWAP3 PUSH2 0x5E9B PUSH1 0x40 MLOAD SWAP5 DUP6 PUSH2 0x6FC8 JUMP JUMPDEST DUP3 DUP5 MSTORE PUSH1 0x0 SWAP2 DUP3 MSTORE DUP1 DUP3 KECCAK256 DUP2 DUP6 ADD JUMPDEST DUP5 DUP5 LT PUSH2 0x5EBF JUMPI PUSH1 0x40 MLOAD DUP1 PUSH2 0x35E DUP9 DUP3 PUSH2 0x7244 JUMP JUMPDEST PUSH1 0xE DUP4 PUSH1 0x1 SWAP3 PUSH1 0x40 MLOAD PUSH2 0x5ED1 DUP2 PUSH2 0x6F25 JUMP JUMPDEST DUP6 SLOAD DUP2 MSTORE DUP5 DUP7 ADD SLOAD DUP4 DUP3 ADD MSTORE PUSH1 0x2 DUP7 ADD SLOAD PUSH1 0x40 DUP3 ADD MSTORE PUSH1 0x3 DUP7 ADD SLOAD PUSH1 0x60 DUP3 ADD MSTORE DUP11 PUSH1 0x4 DUP8 ADD SLOAD AND PUSH1 0x80 DUP3 ADD MSTORE PUSH1 0xFF PUSH1 0x5 DUP8 ADD SLOAD PUSH1 0xA0 DUP14 DUP3 AND DUP2 DUP6 ADD MSTORE SHR AND ISZERO ISZERO PUSH1 0xC0 DUP3 ADD MSTORE PUSH2 0x5F22 PUSH1 0x6 DUP8 ADD PUSH2 0x73C3 JUMP JUMPDEST PUSH1 0xE0 DUP3 ADD MSTORE DUP2 MSTORE ADD SWAP3 ADD SWAP4 ADD SWAP3 SWAP1 PUSH2 0x5EAA JUMP JUMPDEST CALLVALUE PUSH2 0x5E2 JUMPI PUSH1 0x20 CALLDATASIZE PUSH1 0x3 NOT ADD SLT PUSH2 0x5E2 JUMPI PUSH1 0x1 PUSH1 0x1 PUSH1 0xA0 SHL SUB PUSH2 0x5F56 PUSH2 0x6EDD JUMP JUMPDEST AND PUSH1 0x0 MSTORE PUSH1 0x10 PUSH1 0x20 MSTORE PUSH2 0x5FC9 PUSH1 0x40 PUSH1 0x0 KECCAK256 PUSH1 0x40 MLOAD SWAP1 PUSH2 0x5F79 DUP3 PUSH2 0x33F9 DUP2 DUP5 PUSH2 0x7106 JUMP JUMPDEST PUSH1 0x40 MLOAD PUSH2 0x5F8D DUP2 PUSH2 0x3CE DUP2 PUSH1 0x1 DUP7 ADD PUSH2 0x7106 JUMP JUMPDEST PUSH2 0x5FE5 PUSH1 0x40 MLOAD PUSH2 0x5FA4 DUP2 PUSH2 0x3CE DUP2 PUSH1 0x2 DUP9 ADD PUSH2 0x7106 JUMP JUMPDEST PUSH2 0x5FD7 PUSH1 0xFF PUSH1 0x4 PUSH1 0x3 DUP8 ADD SLOAD SWAP7 ADD SLOAD AND SWAP4 PUSH1 0x40 MLOAD SWAP8 DUP9 SWAP8 PUSH1 0xA0 DUP10 MSTORE PUSH1 0xA0 DUP10 ADD SWAP1 PUSH2 0x6BEE JUMP JUMPDEST SWAP1 DUP8 DUP3 SUB PUSH1 0x20 DUP10 ADD MSTORE PUSH2 0x6BEE JUMP JUMPDEST SWAP1 DUP6 DUP3 SUB PUSH1 0x40 DUP8 ADD MSTORE PUSH2 0x6BEE JUMP JUMPDEST SWAP2 PUSH1 0x60 DUP5 ADD MSTORE ISZERO ISZERO PUSH1 0x80 DUP4 ADD MSTORE SUB SWAP1 RETURN JUMPDEST CALLVALUE PUSH2 0x5E2 JUMPI PUSH2 0x6004 CALLDATASIZE PUSH2 0x708D JUMP JUMPDEST PUSH2 0x600F SWAP3 SWAP2 SWAP3 PUSH2 0x750D JUMP JUMPDEST DUP2 PUSH1 0x0 MSTORE PUSH1 0x20 SWAP3 PUSH1 0x19 DUP5 MSTORE PUSH2 0x602A PUSH1 0x40 PUSH1 0x0 KECCAK256 SLOAD ISZERO ISZERO PUSH2 0x8607 JUMP JUMPDEST PUSH2 0x6036 DUP2 MLOAD ISZERO ISZERO PUSH2 0x853B JUMP JUMPDEST PUSH1 0x0 DUP4 DUP2 MSTORE PUSH1 0x19 DUP6 MSTORE PUSH1 0x40 SWAP1 KECCAK256 DUP2 MLOAD SWAP5 SWAP1 PUSH1 0x1 SWAP1 DUP2 ADD SWAP1 PUSH1 0x1 PUSH1 0x1 PUSH1 0x40 SHL SUB DUP8 GT PUSH2 0x143C JUMPI PUSH2 0x6069 DUP8 PUSH2 0x3A13 DUP5 SLOAD PUSH2 0x70CC JUMP JUMPDEST DUP3 PUSH1 0x1F DUP9 GT PUSH1 0x1 EQ PUSH2 0x60C8 JUMPI SWAP7 DUP1 DUP1 PUSH1 0x19 SWAP6 SWAP5 SWAP4 PUSH1 0x0 DUP1 MLOAD PUSH1 0x20 PUSH2 0x93DD DUP4 CODECOPY DUP2 MLOAD SWAP2 MSTORE SWAP10 SWAP11 PUSH1 0x0 SWAP4 PUSH2 0x60BD JUMPI JUMPDEST POP SHL SWAP2 PUSH1 0x0 NOT SWAP1 PUSH1 0x3 SHL SHR NOT AND OR SWAP1 SSTORE JUMPDEST DUP6 PUSH1 0x0 MSTORE MSTORE PUSH2 0x522A DUP3 PUSH1 0x3 PUSH1 0x40 PUSH1 0x0 KECCAK256 ADD PUSH2 0x78B7 JUMP JUMPDEST DUP9 ADD MLOAD SWAP3 POP DUP12 PUSH2 0x6096 JUMP JUMPDEST SWAP7 PUSH1 0x1F NOT DUP2 AND SWAP8 DUP4 PUSH1 0x0 MSTORE DUP5 PUSH1 0x0 KECCAK256 SWAP9 PUSH1 0x0 JUMPDEST DUP2 DUP2 LT PUSH2 0x6128 JUMPI POP SWAP9 DUP3 SWAP2 PUSH1 0x19 SWAP7 SWAP6 SWAP5 SWAP4 PUSH1 0x0 DUP1 MLOAD PUSH1 0x20 PUSH2 0x93DD DUP4 CODECOPY DUP2 MLOAD SWAP2 MSTORE SWAP11 SWAP12 LT PUSH2 0x610F JUMPI JUMPDEST POP POP DUP2 SHL ADD SWAP1 SSTORE PUSH2 0x60A7 JUMP JUMPDEST DUP8 ADD MLOAD PUSH1 0x0 NOT PUSH1 0xF8 DUP5 PUSH1 0x3 SHL AND SHR NOT AND SWAP1 SSTORE DUP10 DUP1 PUSH2 0x6103 JUMP JUMPDEST DUP8 DUP4 ADD MLOAD DUP12 SSTORE SWAP10 DUP5 ADD SWAP10 SWAP2 DUP7 ADD SWAP2 DUP7 ADD PUSH2 0x60DB JUMP JUMPDEST CALLVALUE PUSH2 0x5E2 JUMPI PUSH1 0x40 CALLDATASIZE PUSH1 0x3 NOT ADD SLT PUSH2 0x5E2 JUMPI PUSH1 0x24 DUP1 CALLDATALOAD PUSH1 0x4 CALLDATALOAD PUSH1 0x0 DUP1 JUMPDEST DUP3 PUSH1 0x0 MSTORE PUSH1 0x15 PUSH1 0x20 SWAP1 DUP1 DUP3 MSTORE PUSH1 0x10 SWAP2 DUP3 PUSH1 0x40 PUSH1 0x0 KECCAK256 ADD DUP1 SLOAD DUP6 LT ISZERO PUSH2 0x6353 JUMPI PUSH2 0x6183 DUP6 DUP10 SWAP3 PUSH2 0x86FA JUMP JUMPDEST POP SLOAD EQ PUSH2 0x619B JUMPI POP POP POP PUSH2 0x6196 SWAP1 PUSH2 0x847C JUMP JUMPDEST PUSH2 0x6159 JUMP JUMPDEST SWAP2 SWAP4 POP SWAP2 SWAP4 SWAP5 PUSH1 0x0 MSTORE PUSH1 0x1D DUP2 MSTORE PUSH1 0xFF SWAP5 DUP6 PUSH1 0x40 PUSH1 0x0 KECCAK256 SLOAD AND ISZERO PUSH2 0x6319 JUMPI DUP1 PUSH1 0x0 MSTORE DUP3 DUP3 MSTORE PUSH2 0x61CF DUP6 DUP6 PUSH1 0x40 PUSH1 0x0 KECCAK256 ADD PUSH2 0x86FA JUMP JUMPDEST POP PUSH1 0x1 SWAP1 DUP2 ADD SLOAD SWAP1 SWAP7 SWAP1 CALLER PUSH1 0x1 PUSH1 0x1 PUSH1 0xA0 SHL SUB SWAP2 DUP3 AND EQ SWAP1 DUP2 ISZERO PUSH2 0x630B JUMPI JUMPDEST POP ISZERO PUSH2 0x62B6 JUMPI DUP2 PUSH1 0x0 MSTORE DUP4 DUP4 MSTORE PUSH1 0x4 PUSH2 0x620D DUP8 DUP8 PUSH1 0x40 PUSH1 0x0 KECCAK256 ADD PUSH2 0x86FA JUMP JUMPDEST POP ADD SLOAD AND PUSH2 0x6279 JUMPI SWAP2 PUSH2 0x622E SWAP4 SWAP2 PUSH1 0x4 SWAP6 SWAP4 PUSH1 0x0 MSTORE MSTORE PUSH1 0x40 PUSH1 0x0 KECCAK256 ADD PUSH2 0x86FA JUMP JUMPDEST POP ADD DUP1 SLOAD PUSH1 0xFF NOT AND DUP3 OR SWAP1 SSTORE JUMPDEST ISZERO PUSH2 0x6242 JUMPI STOP JUMPDEST PUSH1 0x64 SWAP1 PUSH1 0x10 PUSH1 0x40 MLOAD SWAP2 PUSH3 0x461BCD PUSH1 0xE5 SHL DUP4 MSTORE PUSH1 0x20 PUSH1 0x4 DUP5 ADD MSTORE DUP3 ADD MSTORE PUSH16 0x14995D9A595DC81B9BDD08199BDD5B99 PUSH1 0x82 SHL PUSH1 0x44 DUP3 ADD MSTORE REVERT JUMPDEST PUSH1 0x40 MLOAD PUSH3 0x461BCD PUSH1 0xE5 SHL DUP2 MSTORE PUSH1 0x4 DUP2 ADD DUP4 SWAP1 MSTORE PUSH1 0x16 DUP2 DUP10 ADD MSTORE PUSH22 0x14995D9A595DC8185B1C9958591E4819195B195D1959 PUSH1 0x52 SHL PUSH1 0x44 DUP3 ADD MSTORE PUSH1 0x64 SWAP1 REVERT JUMPDEST PUSH1 0x40 MLOAD PUSH3 0x461BCD PUSH1 0xE5 SHL DUP2 MSTORE PUSH1 0x4 DUP2 ADD DUP5 SWAP1 MSTORE PUSH1 0x28 DUP2 DUP11 ADD MSTORE PUSH32 0x4F6E6C79207265766965776572206F72206F776E65722063616E2064656C6574 PUSH1 0x44 DUP3 ADD MSTORE PUSH8 0x6520726576696577 PUSH1 0xC0 SHL PUSH1 0x64 DUP3 ADD MSTORE PUSH1 0x84 SWAP1 REVERT JUMPDEST PUSH1 0x0 SLOAD AND CALLER EQ SWAP1 POP DUP10 PUSH2 0x61EE JUMP JUMPDEST POP PUSH1 0x64 SWAP2 DUP7 PUSH1 0x40 MLOAD SWAP3 PUSH3 0x461BCD PUSH1 0xE5 SHL DUP5 MSTORE PUSH1 0x4 DUP5 ADD MSTORE DUP3 ADD MSTORE PUSH21 0x14995D9A595DC8191BD95CC81B9BDD08195E1A5CDD PUSH1 0x5A SHL PUSH1 0x44 DUP3 ADD MSTORE REVERT JUMPDEST POP POP POP POP POP SWAP2 POP POP PUSH2 0x623B JUMP JUMPDEST CALLVALUE PUSH2 0x5E2 JUMPI PUSH2 0x1399 PUSH2 0x6371 CALLDATASIZE PUSH2 0x7058 JUMP JUMPDEST SWAP2 PUSH2 0x6384 PUSH2 0x637F DUP5 CALLER PUSH2 0x76F3 JUMP JUMPDEST PUSH2 0x75F6 JUMP JUMPDEST PUSH2 0x77BB JUMP JUMPDEST CALLVALUE PUSH2 0x5E2 JUMPI PUSH1 0x20 CALLDATASIZE PUSH1 0x3 NOT ADD SLT PUSH2 0x5E2 JUMPI PUSH1 0x4 CALLDATALOAD PUSH2 0x63A5 PUSH2 0x750D JUMP JUMPDEST DUP1 PUSH1 0x0 MSTORE PUSH1 0x19 PUSH1 0x20 MSTORE PUSH2 0x63BE PUSH1 0x40 PUSH1 0x0 KECCAK256 SLOAD ISZERO ISZERO PUSH2 0x8607 JUMP JUMPDEST DUP1 PUSH1 0x0 MSTORE PUSH1 0x19 PUSH1 0x20 MSTORE PUSH1 0x0 DUP1 MLOAD PUSH1 0x20 PUSH2 0x93DD DUP4 CODECOPY DUP2 MLOAD SWAP2 MSTORE PUSH2 0x282A PUSH1 0x40 PUSH1 0x0 KECCAK256 PUSH1 0x3 DUP2 ADD PUSH1 0xFF NOT DUP2 SLOAD AND SWAP1 SSTORE PUSH1 0x40 MLOAD SWAP2 DUP3 SWAP2 PUSH1 0x40 DUP4 MSTORE PUSH1 0x1 PUSH1 0x40 DUP5 ADD SWAP2 ADD PUSH2 0x7106 JUMP JUMPDEST CALLVALUE PUSH2 0x5E2 JUMPI PUSH1 0x60 CALLDATASIZE PUSH1 0x3 NOT ADD SLT PUSH2 0x5E2 JUMPI PUSH1 0x24 DUP1 CALLDATALOAD PUSH1 0x4 CALLDATALOAD PUSH1 0x44 CALLDATALOAD PUSH1 0x1 PUSH1 0x1 PUSH1 0x40 SHL SUB DUP2 GT PUSH2 0x5E2 JUMPI PUSH2 0x6438 SWAP1 CALLDATASIZE SWAP1 PUSH1 0x4 ADD PUSH2 0x703D JUMP JUMPDEST SWAP1 DUP1 PUSH1 0x0 MSTORE PUSH1 0x20 SWAP2 PUSH1 0x15 DUP4 MSTORE PUSH1 0x1 DUP1 PUSH1 0xA0 SHL SUB PUSH1 0x1 PUSH1 0x40 PUSH1 0x0 KECCAK256 ADD SLOAD AND CALLER EQ PUSH2 0x6591 JUMPI DUP4 ISZERO ISZERO DUP1 PUSH2 0x6586 JUMPI JUMPDEST ISZERO PUSH2 0x6542 JUMPI DUP1 MLOAD ISZERO PUSH2 0x6504 JUMPI SWAP1 PUSH1 0x15 SWAP3 SWAP2 PUSH1 0x1 PUSH1 0xA SLOAD ADD SWAP1 DUP2 PUSH1 0xA SSTORE PUSH2 0x6488 PUSH2 0x86C9 JUMP JUMPDEST SWAP6 DUP3 DUP8 MSTORE CALLER DUP6 DUP9 ADD MSTORE PUSH1 0x40 DUP8 ADD MSTORE PUSH1 0x60 DUP7 ADD MSTORE TIMESTAMP PUSH1 0xA0 DUP7 ADD MSTORE PUSH1 0x0 MSTORE PUSH1 0x1D DUP3 MSTORE PUSH1 0x40 PUSH1 0x0 KECCAK256 PUSH1 0x1 PUSH1 0xFF NOT DUP3 SLOAD AND OR SWAP1 SSTORE PUSH1 0x0 MSTORE MSTORE PUSH1 0x10 PUSH1 0x40 PUSH1 0x0 KECCAK256 ADD DUP1 SLOAD PUSH1 0x1 PUSH1 0x40 SHL DUP2 LT ISZERO PUSH2 0x48CD JUMPI PUSH2 0x64E1 SWAP2 PUSH1 0x1 DUP3 ADD DUP2 SSTORE PUSH2 0x86FA JUMP JUMPDEST PUSH2 0x64EF JUMPI PUSH2 0x1399 SWAP3 POP PUSH2 0x80AA JUMP JUMPDEST DUP3 PUSH4 0x4E487B71 PUSH1 0xE0 SHL PUSH1 0x0 MSTORE PUSH1 0x0 PUSH1 0x4 MSTORE PUSH1 0x0 REVERT JUMPDEST PUSH1 0x40 MLOAD PUSH3 0x461BCD PUSH1 0xE5 SHL DUP2 MSTORE PUSH1 0x4 DUP2 ADD DUP5 SWAP1 MSTORE PUSH1 0x17 DUP2 DUP8 ADD MSTORE PUSH23 0x436F6D6D656E742063616E6E6F7420626520656D707479 PUSH1 0x48 SHL PUSH1 0x44 DUP3 ADD MSTORE PUSH1 0x64 SWAP1 REVERT JUMPDEST PUSH1 0x40 MLOAD PUSH3 0x461BCD PUSH1 0xE5 SHL DUP2 MSTORE PUSH1 0x4 DUP2 ADD DUP5 SWAP1 MSTORE PUSH1 0x1E DUP2 DUP8 ADD MSTORE PUSH32 0x526174696E67206D757374206265206265747765656E203120616E6420350000 PUSH1 0x44 DUP3 ADD MSTORE PUSH1 0x64 SWAP1 REVERT JUMPDEST POP PUSH1 0x5 DUP5 GT ISZERO PUSH2 0x6464 JUMP JUMPDEST PUSH1 0x40 MLOAD PUSH3 0x461BCD PUSH1 0xE5 SHL DUP2 MSTORE PUSH1 0x4 DUP2 ADD DUP5 SWAP1 MSTORE PUSH1 0x26 DUP2 DUP8 ADD MSTORE PUSH32 0x53656C6C65722063616E6E6F7420726576696577207468656972206F776E2070 PUSH1 0x44 DUP3 ADD MSTORE PUSH6 0x1C9BD91D58DD PUSH1 0xD2 SHL PUSH1 0x64 DUP3 ADD MSTORE PUSH1 0x84 SWAP1 REVERT JUMPDEST CALLVALUE PUSH2 0x5E2 JUMPI PUSH1 0x0 CALLDATASIZE PUSH1 0x3 NOT ADD SLT PUSH2 0x5E2 JUMPI PUSH2 0x65FD PUSH2 0x750D JUMP JUMPDEST CALLER PUSH1 0x0 MSTORE PUSH1 0x1E PUSH1 0x20 MSTORE PUSH1 0x40 PUSH1 0x0 KECCAK256 PUSH1 0x1 DUP1 PUSH1 0xA0 SHL SUB NOT DUP2 SLOAD AND SWAP1 SSTORE PUSH1 0x0 DUP1 MLOAD PUSH1 0x20 PUSH2 0x92FD DUP4 CODECOPY DUP2 MLOAD SWAP2 MSTORE PUSH1 0x40 DUP1 MLOAD CALLER DUP2 MSTORE PUSH1 0x0 PUSH1 0x20 DUP3 ADD MSTORE LOG1 STOP JUMPDEST CALLVALUE PUSH2 0x5E2 JUMPI PUSH1 0x40 CALLDATASIZE PUSH1 0x3 NOT ADD SLT PUSH2 0x5E2 JUMPI PUSH2 0x1399 PUSH2 0x6654 PUSH2 0x6EF3 JUMP JUMPDEST PUSH1 0x4 CALLDATALOAD PUSH2 0x8EA2 JUMP JUMPDEST CALLVALUE PUSH2 0x5E2 JUMPI PUSH1 0x20 CALLDATASIZE PUSH1 0x3 NOT ADD SLT PUSH2 0x5E2 JUMPI PUSH1 0x1 PUSH1 0x1 PUSH1 0xA0 SHL SUB PUSH2 0x667D PUSH2 0x6EDD JUMP JUMPDEST AND PUSH1 0x0 MSTORE PUSH1 0x14 PUSH1 0x20 MSTORE PUSH1 0x20 PUSH1 0xFF PUSH1 0x40 PUSH1 0x0 KECCAK256 SLOAD AND PUSH1 0x40 MLOAD SWAP1 ISZERO ISZERO DUP2 MSTORE RETURN JUMPDEST CALLVALUE PUSH2 0x5E2 JUMPI PUSH1 0x40 CALLDATASIZE PUSH1 0x3 NOT ADD SLT PUSH2 0x5E2 JUMPI PUSH2 0x66B4 PUSH2 0x6EDD JUMP JUMPDEST PUSH1 0x24 CALLDATALOAD SWAP1 PUSH1 0x1 PUSH1 0x1 PUSH1 0xA0 SHL SUB DUP1 DUP1 PUSH2 0x66CB DUP6 PUSH2 0x75AC JUMP JUMPDEST AND SWAP3 AND SWAP2 DUP1 DUP4 EQ PUSH2 0x67C6 JUMPI DUP1 CALLER EQ SWAP1 DUP2 ISZERO PUSH2 0x67A1 JUMPI JUMPDEST POP ISZERO PUSH2 0x6736 JUMPI PUSH1 0x0 DUP4 DUP2 MSTORE PUSH1 0x6 PUSH1 0x20 MSTORE PUSH1 0x40 SWAP1 KECCAK256 DUP1 SLOAD PUSH1 0x1 PUSH1 0x1 PUSH1 0xA0 SHL SUB NOT AND DUP4 OR SWAP1 SSTORE PUSH2 0x670E DUP4 PUSH2 0x75AC JUMP JUMPDEST AND PUSH32 0x8C5BE1E5EBEC7D5BD14F71427D1E84F3DD0314C0F7B2291E5B200AC8C7C3B925 PUSH1 0x0 DUP1 LOG4 STOP JUMPDEST PUSH1 0x40 MLOAD PUSH3 0x461BCD PUSH1 0xE5 SHL DUP2 MSTORE PUSH1 0x20 PUSH1 0x4 DUP3 ADD MSTORE PUSH1 0x3D PUSH1 0x24 DUP3 ADD MSTORE PUSH32 0x4552433732313A20617070726F76652063616C6C6572206973206E6F7420746F PUSH1 0x44 DUP3 ADD MSTORE PUSH32 0x6B656E206F776E6572206F7220617070726F76656420666F7220616C6C000000 PUSH1 0x64 DUP3 ADD MSTORE PUSH1 0x84 SWAP1 REVERT JUMPDEST SWAP1 POP PUSH1 0x0 MSTORE PUSH1 0x7 PUSH1 0x20 MSTORE PUSH1 0x40 PUSH1 0x0 KECCAK256 CALLER PUSH1 0x0 MSTORE PUSH1 0x20 MSTORE PUSH1 0xFF PUSH1 0x40 PUSH1 0x0 KECCAK256 SLOAD AND DUP5 PUSH2 0x66E1 JUMP JUMPDEST PUSH1 0x40 MLOAD PUSH3 0x461BCD PUSH1 0xE5 SHL DUP2 MSTORE PUSH1 0x20 PUSH1 0x4 DUP3 ADD MSTORE PUSH1 0x21 PUSH1 0x24 DUP3 ADD MSTORE PUSH32 0x4552433732313A20617070726F76616C20746F2063757272656E74206F776E65 PUSH1 0x44 DUP3 ADD MSTORE PUSH1 0x39 PUSH1 0xF9 SHL PUSH1 0x64 DUP3 ADD MSTORE PUSH1 0x84 SWAP1 REVERT JUMPDEST CALLVALUE PUSH2 0x5E2 JUMPI PUSH1 0x20 CALLDATASIZE PUSH1 0x3 NOT ADD SLT PUSH2 0x5E2 JUMPI PUSH1 0x20 PUSH2 0x59FF PUSH1 0x4 CALLDATALOAD PUSH2 0x75CF JUMP JUMPDEST CALLVALUE PUSH2 0x5E2 JUMPI PUSH1 0x0 CALLDATASIZE PUSH1 0x3 NOT ADD SLT PUSH2 0x5E2 JUMPI PUSH1 0x40 MLOAD PUSH1 0x0 SWAP1 PUSH1 0x2 SLOAD PUSH2 0x6856 DUP2 PUSH2 0x70CC JUMP JUMPDEST DUP1 DUP4 MSTORE PUSH1 0x1 SWAP2 DUP1 DUP4 AND SWAP1 DUP2 ISZERO PUSH2 0x338D JUMPI POP PUSH1 0x1 EQ PUSH2 0x687E JUMPI PUSH2 0x35E DUP4 PUSH2 0x331F DUP2 DUP8 SUB DUP3 PUSH2 0x6FC8 JUMP JUMPDEST PUSH1 0x2 PUSH1 0x0 SWAP1 DUP2 MSTORE PUSH1 0x20 SWAP5 POP SWAP2 PUSH32 0x405787FA12A823E0F2B7631CC41B3BA8828B3321CA811111FA75CD3AA3BB5ACE JUMPDEST DUP3 DUP5 LT PUSH2 0x68C5 JUMPI POP POP POP DUP2 ADD SWAP1 SWAP2 ADD SWAP1 PUSH2 0x331F DUP2 PUSH2 0x330F JUMP JUMPDEST DUP1 SLOAD DUP6 DUP6 ADD DUP8 ADD MSTORE SWAP3 DUP6 ADD SWAP3 DUP2 ADD PUSH2 0x68AC JUMP JUMPDEST CALLVALUE PUSH2 0x5E2 JUMPI PUSH1 0x0 CALLDATASIZE PUSH1 0x3 NOT ADD SLT PUSH2 0x5E2 JUMPI PUSH1 0x8 DUP1 SLOAD PUSH1 0x0 PUSH1 0x1 JUMPDEST DUP3 DUP2 GT ISZERO PUSH2 0x6B12 JUMPI POP PUSH2 0x6904 SWAP1 PUSH2 0x848B JUMP JUMPDEST SWAP1 PUSH1 0x0 SWAP3 PUSH1 0x1 JUMPDEST DUP3 DUP2 GT ISZERO PUSH2 0x6921 JUMPI PUSH1 0x40 MLOAD DUP1 PUSH2 0x35E DUP7 DUP3 PUSH2 0x6E7B JUMP JUMPDEST DUP1 PUSH1 0x0 MSTORE PUSH1 0x20 PUSH1 0x15 DUP2 MSTORE PUSH1 0x40 PUSH1 0x0 KECCAK256 SWAP1 PUSH1 0xF DUP3 ADD SLOAD PUSH1 0xFF SWAP3 PUSH1 0x10 SWAP1 DUP5 DUP4 DUP4 SHR AND ISZERO DUP1 PUSH2 0x695C JUMPI JUMPDEST POP POP POP POP POP POP PUSH2 0x6957 SWAP1 PUSH2 0x847C JUMP JUMPDEST PUSH2 0x690B JUMP JUMPDEST PUSH1 0x40 SWAP11 SWAP7 SWAP11 MLOAD SWAP6 PUSH2 0x696C DUP8 PUSH2 0x6F09 JUMP JUMPDEST DUP3 SLOAD DUP8 MSTORE PUSH1 0x1 DUP4 ADD SLOAD PUSH1 0x1 PUSH1 0x1 PUSH1 0xA0 SHL SUB AND DUP7 DUP9 ADD MSTORE PUSH1 0x40 MLOAD PUSH2 0x6996 DUP2 PUSH2 0x3CE DUP2 PUSH1 0x2 DUP9 ADD PUSH2 0x7106 JUMP JUMPDEST PUSH1 0x40 DUP9 ADD MSTORE PUSH1 0x40 MLOAD PUSH2 0x69AF DUP2 PUSH2 0x3CE DUP2 PUSH1 0x3 DUP9 ADD PUSH2 0x7106 JUMP JUMPDEST PUSH1 0x60 DUP9 ADD MSTORE PUSH1 0x4 DUP4 ADD SLOAD PUSH1 0x80 DUP9 ADD MSTORE PUSH1 0x5 DUP4 ADD SLOAD PUSH1 0xA0 DUP9 ADD MSTORE PUSH1 0x6 SWAP5 PUSH2 0x69D6 DUP7 DUP6 ADD PUSH2 0x83B6 JUMP JUMPDEST PUSH1 0xC0 DUP10 ADD MSTORE PUSH2 0x69E7 PUSH1 0x7 DUP6 ADD PUSH2 0x83B6 JUMP JUMPDEST PUSH1 0xE0 DUP10 ADD MSTORE PUSH2 0x69F7 DUP11 DUP6 ADD PUSH2 0x83B6 JUMP JUMPDEST PUSH2 0x100 DUP10 ADD MSTORE PUSH1 0x40 MLOAD PUSH2 0x6A11 DUP2 PUSH2 0x3CE DUP2 PUSH1 0x9 DUP10 ADD PUSH2 0x7106 JUMP JUMPDEST PUSH2 0x120 DUP10 ADD MSTORE PUSH1 0x40 MLOAD PUSH2 0x6A2B DUP2 PUSH2 0x3CE DUP2 PUSH1 0xA DUP10 ADD PUSH2 0x7106 JUMP JUMPDEST PUSH2 0x140 DUP10 ADD MSTORE PUSH1 0xB DUP5 ADD SLOAD PUSH2 0x160 DUP10 ADD MSTORE PUSH1 0x40 MLOAD PUSH2 0x6A50 DUP2 PUSH2 0x3CE DUP2 PUSH1 0xC DUP10 ADD PUSH2 0x7106 JUMP JUMPDEST PUSH2 0x180 DUP10 ADD MSTORE PUSH1 0x40 MLOAD PUSH2 0x6A6A DUP2 PUSH2 0x3CE DUP2 PUSH1 0xD DUP10 ADD PUSH2 0x7106 JUMP JUMPDEST PUSH2 0x1A0 DUP10 ADD MSTORE PUSH1 0xE DUP5 ADD SLOAD PUSH2 0x1C0 DUP10 ADD MSTORE DUP2 DUP2 AND ISZERO ISZERO PUSH2 0x1E0 DUP10 ADD MSTORE DUP10 SHR AND ISZERO ISZERO PUSH2 0x200 DUP8 ADD MSTORE ISZERO PUSH2 0x220 DUP7 ADD MSTORE ADD SWAP1 DUP2 SLOAD SWAP2 PUSH2 0x6AA6 DUP4 PUSH2 0x7F92 JUMP JUMPDEST SWAP4 PUSH2 0x6AB4 PUSH1 0x40 MLOAD SWAP6 DUP7 PUSH2 0x6FC8 JUMP JUMPDEST DUP4 DUP6 MSTORE PUSH1 0x0 SWAP2 DUP3 MSTORE DUP1 DUP3 KECCAK256 SWAP2 DUP2 DUP7 ADD JUMPDEST DUP6 DUP3 LT PUSH2 0x6AF6 JUMPI POP POP POP POP POP POP SWAP2 DUP2 PUSH2 0x6957 SWAP4 PUSH2 0x240 PUSH2 0x6AEA SWAP5 ADD MSTORE PUSH2 0x539 DUP3 DUP9 PUSH2 0x84DB JUMP JUMPDEST SWAP5 SWAP1 DUP7 DUP1 DUP1 DUP1 DUP1 PUSH2 0x6948 JUMP JUMPDEST DUP5 DUP4 PUSH1 0x1 SWAP3 PUSH2 0x6B04 DUP8 PUSH2 0x841B JUMP JUMPDEST DUP2 MSTORE ADD SWAP5 ADD SWAP2 ADD SWAP1 SWAP3 PUSH2 0x6AC4 JUMP JUMPDEST DUP1 PUSH1 0x0 MSTORE PUSH1 0x15 PUSH1 0x20 MSTORE PUSH1 0xFF PUSH1 0xF PUSH1 0x40 PUSH1 0x0 KECCAK256 ADD SLOAD PUSH1 0x10 SHR AND ISZERO PUSH2 0x6B3E JUMPI JUMPDEST PUSH2 0x6B39 SWAP1 PUSH2 0x847C JUMP JUMPDEST PUSH2 0x68F2 JUMP JUMPDEST SWAP1 PUSH2 0x6B4B PUSH2 0x6B39 SWAP2 PUSH2 0x847C JUMP JUMPDEST SWAP2 SWAP1 POP PUSH2 0x6B30 JUMP JUMPDEST CALLVALUE PUSH2 0x5E2 JUMPI PUSH1 0x20 CALLDATASIZE PUSH1 0x3 NOT ADD SLT PUSH2 0x5E2 JUMPI PUSH1 0x4 CALLDATALOAD PUSH4 0xFFFFFFFF PUSH1 0xE0 SHL DUP2 AND DUP1 SWAP2 SUB PUSH2 0x5E2 JUMPI PUSH1 0x20 SWAP1 PUSH4 0x80AC58CD PUSH1 0xE0 SHL DUP2 EQ SWAP1 DUP2 ISZERO PUSH2 0x6BB0 JUMPI JUMPDEST DUP2 ISZERO PUSH2 0x6B9F JUMPI JUMPDEST POP PUSH1 0x40 MLOAD SWAP1 ISZERO ISZERO DUP2 MSTORE RETURN JUMPDEST PUSH4 0x1FFC9A7 PUSH1 0xE0 SHL EQ SWAP1 POP DUP3 PUSH2 0x6B94 JUMP JUMPDEST PUSH4 0x5B5E139F PUSH1 0xE0 SHL DUP2 EQ SWAP2 POP PUSH2 0x6B8D JUMP JUMPDEST CALLVALUE PUSH2 0x5E2 JUMPI PUSH1 0x20 CALLDATASIZE PUSH1 0x3 NOT ADD SLT PUSH2 0x5E2 JUMPI PUSH1 0x20 SWAP1 PUSH1 0x4 CALLDATALOAD PUSH1 0x0 MSTORE PUSH1 0x1D DUP3 MSTORE PUSH1 0xFF PUSH1 0x40 PUSH1 0x0 KECCAK256 SLOAD AND ISZERO ISZERO DUP2 MSTORE RETURN JUMPDEST SWAP2 SWAP1 DUP3 MLOAD SWAP3 DUP4 DUP3 MSTORE PUSH1 0x0 JUMPDEST DUP5 DUP2 LT PUSH2 0x6C1A JUMPI POP POP DUP3 PUSH1 0x0 PUSH1 0x20 DUP1 SWAP5 SWAP6 DUP5 ADD ADD MSTORE PUSH1 0x1F DUP1 NOT SWAP2 ADD AND ADD ADD SWAP1 JUMP JUMPDEST PUSH1 0x20 DUP2 DUP4 ADD DUP2 ADD MLOAD DUP5 DUP4 ADD DUP3 ADD MSTORE ADD PUSH2 0x6BF9 JUMP JUMPDEST SWAP1 DUP1 DUP3 MLOAD SWAP1 DUP2 DUP2 MSTORE PUSH1 0x20 DUP1 SWAP2 ADD SWAP3 DUP2 DUP1 DUP5 PUSH1 0x5 SHL DUP4 ADD ADD SWAP6 ADD SWAP4 PUSH1 0x0 SWAP2 JUMPDEST DUP5 DUP4 LT PUSH2 0x6C5C JUMPI POP POP POP POP POP POP SWAP1 JUMP JUMPDEST SWAP1 SWAP2 SWAP3 SWAP4 SWAP5 SWAP6 DUP5 DUP1 PUSH2 0x6C7A PUSH1 0x1 SWAP4 PUSH1 0x1F NOT DUP7 DUP3 SUB ADD DUP8 MSTORE DUP11 MLOAD PUSH2 0x6BEE JUMP JUMPDEST SWAP9 ADD SWAP4 ADD SWAP4 ADD SWAP2 SWAP5 SWAP4 SWAP3 SWAP1 PUSH2 0x6C4C JUMP JUMPDEST SWAP1 DUP1 DUP3 MLOAD SWAP1 DUP2 DUP2 MSTORE PUSH1 0x20 DUP1 SWAP2 ADD SWAP3 DUP2 DUP1 DUP5 PUSH1 0x5 SHL DUP4 ADD ADD SWAP6 ADD SWAP4 PUSH1 0x0 SWAP2 JUMPDEST DUP5 DUP4 LT PUSH2 0x6CB8 JUMPI POP POP POP POP POP POP SWAP1 JUMP JUMPDEST SWAP1 SWAP2 SWAP3 SWAP4 SWAP5 SWAP6 DUP5 DUP1 PUSH1 0x1 SWAP3 PUSH1 0x1F NOT DUP6 DUP3 SUB ADD DUP7 MSTORE DUP10 MLOAD SWAP1 DUP2 MLOAD DUP2 MSTORE DUP5 DUP1 PUSH1 0xA0 SHL SUB DUP4 DUP4 ADD MLOAD AND DUP4 DUP3 ADD MSTORE PUSH1 0x40 DUP1 DUP4 ADD MLOAD SWAP1 DUP3 ADD MSTORE PUSH2 0x6D05 PUSH1 0x60 DUP1 DUP5 ADD MLOAD SWAP1 PUSH1 0xC0 DUP1 SWAP2 DUP6 ADD MSTORE DUP4 ADD SWAP1 PUSH2 0x6BEE JUMP JUMPDEST SWAP2 PUSH1 0x80 DUP1 DUP3 ADD MLOAD ISZERO ISZERO SWAP1 DUP4 ADD MSTORE PUSH1 0xA0 DUP1 SWAP2 ADD MLOAD SWAP2 ADD MSTORE SWAP9 ADD SWAP4 ADD SWAP4 ADD SWAP2 SWAP5 SWAP4 SWAP3 SWAP1 PUSH2 0x6CA8 JUMP JUMPDEST SWAP1 PUSH2 0x6E78 SWAP2 DUP1 MLOAD DUP3 MSTORE PUSH1 0x1 DUP1 PUSH1 0xA0 SHL SUB PUSH1 0x20 DUP3 ADD MLOAD AND PUSH1 0x20 DUP4 ADD MSTORE PUSH2 0x6E32 PUSH2 0x6E1E PUSH2 0x6DFF PUSH2 0x6DEB PUSH2 0x6DD7 PUSH2 0x6DC3 PUSH2 0x6DB1 PUSH2 0x6D8B PUSH2 0x6D79 PUSH1 0x40 DUP11 ADD MLOAD PUSH1 0x40 DUP13 PUSH2 0x260 SWAP2 DUP3 SWAP2 ADD MSTORE DUP13 ADD SWAP1 PUSH2 0x6BEE JUMP JUMPDEST PUSH1 0x60 DUP11 ADD MLOAD DUP12 DUP3 SUB PUSH1 0x60 DUP14 ADD MSTORE PUSH2 0x6BEE JUMP JUMPDEST PUSH1 0x80 DUP10 ADD MLOAD PUSH1 0x80 DUP12 ADD MSTORE PUSH1 0xA0 DUP10 ADD MLOAD PUSH1 0xA0 DUP12 ADD MSTORE PUSH1 0xC0 DUP10 ADD MLOAD DUP11 DUP3 SUB PUSH1 0xC0 DUP13 ADD MSTORE PUSH2 0x6C2E JUMP JUMPDEST PUSH1 0xE0 DUP9 ADD MLOAD DUP10 DUP3 SUB PUSH1 0xE0 DUP12 ADD MSTORE PUSH2 0x6C2E JUMP JUMPDEST PUSH2 0x100 DUP1 DUP9 ADD MLOAD SWAP1 DUP10 DUP4 SUB SWAP1 DUP11 ADD MSTORE PUSH2 0x6C2E JUMP JUMPDEST PUSH2 0x120 DUP1 DUP8 ADD MLOAD SWAP1 DUP9 DUP4 SUB SWAP1 DUP10 ADD MSTORE PUSH2 0x6BEE JUMP JUMPDEST PUSH2 0x140 DUP1 DUP7 ADD MLOAD SWAP1 DUP8 DUP4 SUB SWAP1 DUP9 ADD MSTORE PUSH2 0x6BEE JUMP JUMPDEST PUSH2 0x160 DUP1 DUP6 ADD MLOAD SWAP1 DUP7 ADD MSTORE PUSH2 0x180 DUP1 DUP6 ADD MLOAD SWAP1 DUP7 DUP4 SUB SWAP1 DUP8 ADD MSTORE PUSH2 0x6BEE JUMP JUMPDEST PUSH2 0x1A0 DUP1 DUP5 ADD MLOAD SWAP1 DUP6 DUP4 SUB SWAP1 DUP7 ADD MSTORE PUSH2 0x6BEE JUMP JUMPDEST SWAP2 PUSH2 0x1C0 DUP1 DUP4 ADD MLOAD SWAP1 DUP3 ADD MSTORE PUSH2 0x1E0 DUP1 DUP4 ADD MLOAD ISZERO ISZERO SWAP1 DUP3 ADD MSTORE PUSH2 0x200 DUP1 DUP4 ADD MLOAD ISZERO ISZERO SWAP1 DUP3 ADD MSTORE PUSH2 0x220 DUP1 DUP4 ADD MLOAD ISZERO ISZERO SWAP1 DUP3 ADD MSTORE PUSH2 0x240 DUP1 SWAP3 ADD MLOAD SWAP2 DUP2 DUP5 SUB SWAP2 ADD MSTORE PUSH2 0x6C8A JUMP JUMPDEST SWAP1 JUMP JUMPDEST PUSH1 0x20 DUP1 DUP3 ADD SWAP1 DUP1 DUP4 MSTORE DUP4 MLOAD DUP1 SWAP3 MSTORE PUSH1 0x40 DUP4 ADD SWAP3 DUP2 PUSH1 0x40 DUP5 PUSH1 0x5 SHL DUP4 ADD ADD SWAP6 ADD SWAP4 PUSH1 0x0 SWAP2 JUMPDEST DUP5 DUP4 LT PUSH2 0x6EAF JUMPI POP POP POP POP POP POP SWAP1 JUMP JUMPDEST SWAP1 SWAP2 SWAP3 SWAP4 SWAP5 SWAP6 DUP5 DUP1 PUSH2 0x6ECD PUSH1 0x1 SWAP4 PUSH1 0x3F NOT DUP7 DUP3 SUB ADD DUP8 MSTORE DUP11 MLOAD PUSH2 0x6D2B JUMP JUMPDEST SWAP9 ADD SWAP4 ADD SWAP4 ADD SWAP2 SWAP5 SWAP4 SWAP3 SWAP1 PUSH2 0x6E9F JUMP JUMPDEST PUSH1 0x4 CALLDATALOAD SWAP1 PUSH1 0x1 PUSH1 0x1 PUSH1 0xA0 SHL SUB DUP3 AND DUP3 SUB PUSH2 0x5E2 JUMPI JUMP JUMPDEST PUSH1 0x24 CALLDATALOAD SWAP1 PUSH1 0x1 PUSH1 0x1 PUSH1 0xA0 SHL SUB DUP3 AND DUP3 SUB PUSH2 0x5E2 JUMPI JUMP JUMPDEST PUSH2 0x260 DUP2 ADD SWAP1 DUP2 LT PUSH1 0x1 PUSH1 0x1 PUSH1 0x40 SHL SUB DUP3 GT OR PUSH2 0x143C JUMPI PUSH1 0x40 MSTORE JUMP JUMPDEST PUSH2 0x100 DUP2 ADD SWAP1 DUP2 LT PUSH1 0x1 PUSH1 0x1 PUSH1 0x40 SHL SUB DUP3 GT OR PUSH2 0x143C JUMPI PUSH1 0x40 MSTORE JUMP JUMPDEST PUSH1 0xE0 DUP2 ADD SWAP1 DUP2 LT PUSH1 0x1 PUSH1 0x1 PUSH1 0x40 SHL SUB DUP3 GT OR PUSH2 0x143C JUMPI PUSH1 0x40 MSTORE JUMP JUMPDEST PUSH1 0x80 DUP2 ADD SWAP1 DUP2 LT PUSH1 0x1 PUSH1 0x1 PUSH1 0x40 SHL SUB DUP3 GT OR PUSH2 0x143C JUMPI PUSH1 0x40 MSTORE JUMP JUMPDEST PUSH1 0xA0 DUP2 ADD SWAP1 DUP2 LT PUSH1 0x1 PUSH1 0x1 PUSH1 0x40 SHL SUB DUP3 GT OR PUSH2 0x143C JUMPI PUSH1 0x40 MSTORE JUMP JUMPDEST PUSH1 0xC0 DUP2 ADD SWAP1 DUP2 LT PUSH1 0x1 PUSH1 0x1 PUSH1 0x40 SHL SUB DUP3 GT OR PUSH2 0x143C JUMPI PUSH1 0x40 MSTORE JUMP JUMPDEST PUSH1 0x20 DUP2 ADD SWAP1 DUP2 LT PUSH1 0x1 PUSH1 0x1 PUSH1 0x40 SHL SUB DUP3 GT OR PUSH2 0x143C JUMPI PUSH1 0x40 MSTORE JUMP JUMPDEST PUSH1 0x1F SWAP1 SWAP2 ADD PUSH1 0x1F NOT AND DUP2 ADD SWAP1 PUSH1 0x1 PUSH1 0x1 PUSH1 0x40 SHL SUB DUP3 GT SWAP1 DUP3 LT OR PUSH2 0x143C JUMPI PUSH1 0x40 MSTORE JUMP JUMPDEST PUSH1 0x1 PUSH1 0x1 PUSH1 0x40 SHL SUB DUP2 GT PUSH2 0x143C JUMPI PUSH1 0x1F ADD PUSH1 0x1F NOT AND PUSH1 0x20 ADD SWAP1 JUMP JUMPDEST SWAP3 SWAP2 SWAP3 PUSH2 0x7012 DUP3 PUSH2 0x6FEB JUMP JUMPDEST SWAP2 PUSH2 0x7020 PUSH1 0x40 MLOAD SWAP4 DUP5 PUSH2 0x6FC8 JUMP JUMPDEST DUP3 SWAP5 DUP2 DUP5 MSTORE DUP2 DUP4 ADD GT PUSH2 0x5E2 JUMPI DUP3 DUP2 PUSH1 0x20 SWAP4 DUP5 PUSH1 0x0 SWAP7 ADD CALLDATACOPY ADD ADD MSTORE JUMP JUMPDEST SWAP1 DUP1 PUSH1 0x1F DUP4 ADD SLT ISZERO PUSH2 0x5E2 JUMPI DUP2 PUSH1 0x20 PUSH2 0x6E78 SWAP4 CALLDATALOAD SWAP2 ADD PUSH2 0x7006 JUMP JUMPDEST PUSH1 0x60 SWAP1 PUSH1 0x3 NOT ADD SLT PUSH2 0x5E2 JUMPI PUSH1 0x1 PUSH1 0x1 PUSH1 0xA0 SHL SUB SWAP1 PUSH1 0x4 CALLDATALOAD DUP3 DUP2 AND DUP2 SUB PUSH2 0x5E2 JUMPI SWAP2 PUSH1 0x24 CALLDATALOAD SWAP1 DUP2 AND DUP2 SUB PUSH2 0x5E2 JUMPI SWAP1 PUSH1 0x44 CALLDATALOAD SWAP1 JUMP JUMPDEST SWAP1 PUSH1 0x60 PUSH1 0x3 NOT DUP4 ADD SLT PUSH2 0x5E2 JUMPI PUSH1 0x4 CALLDATALOAD SWAP2 PUSH1 0x24 CALLDATALOAD SWAP1 PUSH1 0x1 PUSH1 0x1 PUSH1 0x40 SHL SUB DUP3 GT PUSH2 0x5E2 JUMPI PUSH2 0x70BC SWAP2 PUSH1 0x4 ADD PUSH2 0x703D JUMP JUMPDEST SWAP1 PUSH1 0x44 CALLDATALOAD DUP1 ISZERO ISZERO DUP2 SUB PUSH2 0x5E2 JUMPI SWAP1 JUMP JUMPDEST SWAP1 PUSH1 0x1 DUP3 DUP2 SHR SWAP3 AND DUP1 ISZERO PUSH2 0x70FC JUMPI JUMPDEST PUSH1 0x20 DUP4 LT EQ PUSH2 0x70E6 JUMPI JUMP JUMPDEST PUSH4 0x4E487B71 PUSH1 0xE0 SHL PUSH1 0x0 MSTORE PUSH1 0x22 PUSH1 0x4 MSTORE PUSH1 0x24 PUSH1 0x0 REVERT JUMPDEST SWAP2 PUSH1 0x7F AND SWAP2 PUSH2 0x70DB JUMP JUMPDEST SWAP1 PUSH1 0x0 SWAP3 SWAP2 DUP1 SLOAD SWAP2 PUSH2 0x7117 DUP4 PUSH2 0x70CC JUMP JUMPDEST SWAP2 DUP3 DUP3 MSTORE PUSH1 0x1 SWAP4 DUP5 DUP2 AND SWAP1 DUP2 PUSH1 0x0 EQ PUSH2 0x7179 JUMPI POP PUSH1 0x1 EQ PUSH2 0x7139 JUMPI JUMPDEST POP POP POP POP JUMP JUMPDEST SWAP1 SWAP2 SWAP4 SWAP5 POP PUSH1 0x0 MSTORE PUSH1 0x20 SWAP3 DUP4 PUSH1 0x0 KECCAK256 SWAP3 DUP5 PUSH1 0x0 SWAP5 JUMPDEST DUP4 DUP7 LT PUSH2 0x7165 JUMPI POP POP POP POP ADD ADD SWAP1 CODESIZE DUP1 DUP1 DUP1 PUSH2 0x7133 JUMP JUMPDEST DUP1 SLOAD DUP6 DUP8 ADD DUP4 ADD MSTORE SWAP5 ADD SWAP4 DUP6 SWAP1 DUP3 ADD PUSH2 0x714E JUMP JUMPDEST SWAP3 SWAP5 POP POP POP PUSH1 0x20 SWAP4 SWAP5 POP PUSH1 0xFF NOT AND DUP4 DUP4 ADD MSTORE ISZERO ISZERO PUSH1 0x5 SHL ADD ADD SWAP1 CODESIZE DUP1 DUP1 DUP1 PUSH2 0x7133 JUMP JUMPDEST PUSH2 0x6E78 SWAP2 PUSH1 0xE0 PUSH2 0x7233 PUSH2 0x7221 PUSH2 0x720F PUSH2 0x71FD PUSH2 0x71EB PUSH2 0x71D9 PUSH2 0x71C7 DUP10 MLOAD PUSH2 0x100 DUP1 DUP12 MSTORE DUP11 ADD SWAP1 PUSH2 0x6BEE JUMP JUMPDEST PUSH1 0x20 DUP11 ADD MLOAD DUP10 DUP3 SUB PUSH1 0x20 DUP12 ADD MSTORE PUSH2 0x6BEE JUMP JUMPDEST PUSH1 0x40 DUP10 ADD MLOAD DUP9 DUP3 SUB PUSH1 0x40 DUP11 ADD MSTORE PUSH2 0x6BEE JUMP JUMPDEST PUSH1 0x60 DUP9 ADD MLOAD DUP8 DUP3 SUB PUSH1 0x60 DUP10 ADD MSTORE PUSH2 0x6BEE JUMP JUMPDEST PUSH1 0x80 DUP8 ADD MLOAD DUP7 DUP3 SUB PUSH1 0x80 DUP9 ADD MSTORE PUSH2 0x6BEE JUMP JUMPDEST PUSH1 0xA0 DUP7 ADD MLOAD DUP6 DUP3 SUB PUSH1 0xA0 DUP8 ADD MSTORE PUSH2 0x6BEE JUMP JUMPDEST PUSH1 0xC0 DUP6 ADD MLOAD DUP5 DUP3 SUB PUSH1 0xC0 DUP7 ADD MSTORE PUSH2 0x6BEE JUMP JUMPDEST SWAP3 ADD MLOAD SWAP1 PUSH1 0xE0 DUP2 DUP5 SUB SWAP2 ADD MSTORE PUSH2 0x6BEE JUMP JUMPDEST PUSH1 0x20 DUP1 DUP3 ADD SWAP1 DUP1 DUP4 MSTORE DUP4 MLOAD DUP1 SWAP3 MSTORE PUSH1 0x40 SWAP3 DUP4 DUP2 ADD DUP3 DUP6 DUP6 PUSH1 0x5 SHL DUP5 ADD ADD SWAP7 ADD SWAP5 PUSH1 0x0 SWAP3 JUMPDEST DUP6 DUP5 LT PUSH2 0x7279 JUMPI POP POP POP POP POP POP POP SWAP1 JUMP JUMPDEST SWAP1 SWAP2 SWAP3 SWAP4 SWAP5 SWAP6 SWAP7 DUP6 DUP1 PUSH2 0x72F1 PUSH1 0x1 SWAP4 PUSH1 0x3F NOT DUP7 DUP3 SUB ADD DUP9 MSTORE DUP12 MLOAD DUP1 MLOAD DUP3 MSTORE DUP4 DUP2 ADD MLOAD DUP5 DUP4 ADD MSTORE DUP8 DUP2 ADD MLOAD DUP9 DUP4 ADD MSTORE PUSH1 0x60 DUP1 DUP3 ADD MLOAD SWAP1 DUP4 ADD MSTORE DUP6 DUP1 PUSH1 0xA0 SHL SUB PUSH1 0x80 DUP2 DUP2 DUP5 ADD MLOAD AND SWAP1 DUP5 ADD MSTORE PUSH1 0xA0 SWAP1 DUP2 DUP4 ADD MLOAD AND SWAP1 DUP4 ADD MSTORE PUSH1 0xC0 DUP1 DUP3 ADD MLOAD ISZERO ISZERO SWAP1 DUP4 ADD MSTORE PUSH1 0xE0 DUP1 SWAP2 ADD MLOAD SWAP2 PUSH2 0x100 DUP1 SWAP3 DUP3 ADD MSTORE ADD SWAP1 PUSH2 0x719C JUMP JUMPDEST SWAP10 ADD SWAP5 ADD SWAP5 ADD SWAP3 SWAP6 SWAP5 SWAP4 SWAP2 SWAP1 PUSH2 0x7268 JUMP JUMPDEST SWAP1 PUSH1 0xC0 DUP1 PUSH2 0x736D PUSH2 0x735B PUSH2 0x7349 PUSH2 0x7337 PUSH2 0x7325 DUP9 MLOAD PUSH1 0xE0 DUP10 MSTORE PUSH1 0xE0 DUP10 ADD SWAP1 PUSH2 0x6BEE JUMP JUMPDEST PUSH1 0x20 DUP10 ADD MLOAD DUP9 DUP3 SUB PUSH1 0x20 DUP11 ADD MSTORE PUSH2 0x6BEE JUMP JUMPDEST PUSH1 0x40 DUP9 ADD MLOAD DUP8 DUP3 SUB PUSH1 0x40 DUP10 ADD MSTORE PUSH2 0x6BEE JUMP JUMPDEST PUSH1 0x60 DUP8 ADD MLOAD DUP7 DUP3 SUB PUSH1 0x60 DUP9 ADD MSTORE PUSH2 0x6BEE JUMP JUMPDEST PUSH1 0x80 DUP7 ADD MLOAD DUP6 DUP3 SUB PUSH1 0x80 DUP8 ADD MSTORE PUSH2 0x6BEE JUMP JUMPDEST SWAP4 PUSH1 0xA0 DUP2 ADD MLOAD PUSH1 0xA0 DUP6 ADD MSTORE ADD MLOAD ISZERO ISZERO SWAP2 ADD MSTORE SWAP1 JUMP JUMPDEST SWAP1 PUSH1 0x4 DUP3 LT ISZERO PUSH2 0x1B11 JUMPI MSTORE JUMP JUMPDEST DUP1 SLOAD DUP3 LT ISZERO PUSH2 0x2305 JUMPI PUSH1 0x0 MSTORE PUSH1 0x20 PUSH1 0x0 KECCAK256 ADD SWAP1 PUSH1 0x0 SWAP1 JUMP JUMPDEST DUP1 SLOAD DUP3 LT ISZERO PUSH2 0x2305 JUMPI PUSH1 0x0 MSTORE PUSH1 0xE PUSH1 0x20 PUSH1 0x0 KECCAK256 SWAP2 MUL ADD SWAP1 PUSH1 0x0 SWAP1 JUMP JUMPDEST SWAP1 PUSH1 0x7 PUSH1 0xE0 PUSH1 0x40 SWAP4 PUSH2 0x748B DUP6 MLOAD SWAP2 PUSH2 0x73DA DUP4 PUSH2 0x6F25 JUMP JUMPDEST PUSH2 0x630 DUP4 SWAP8 DUP1 MLOAD PUSH2 0x73EF DUP2 PUSH2 0x3CE DUP2 DUP8 PUSH2 0x7106 JUMP JUMPDEST DUP6 MSTORE DUP1 MLOAD PUSH2 0x7404 DUP2 PUSH2 0x3CE DUP2 PUSH1 0x1 DUP9 ADD PUSH2 0x7106 JUMP JUMPDEST PUSH1 0x20 DUP7 ADD MSTORE DUP1 MLOAD PUSH2 0x741C DUP2 PUSH2 0x3CE DUP2 PUSH1 0x2 DUP9 ADD PUSH2 0x7106 JUMP JUMPDEST DUP2 DUP7 ADD MSTORE DUP1 MLOAD PUSH2 0x7433 DUP2 PUSH2 0x3CE DUP2 PUSH1 0x3 DUP9 ADD PUSH2 0x7106 JUMP JUMPDEST PUSH1 0x60 DUP7 ADD MSTORE DUP1 MLOAD PUSH2 0x744B DUP2 PUSH2 0x3CE DUP2 PUSH1 0x4 DUP9 ADD PUSH2 0x7106 JUMP JUMPDEST PUSH1 0x80 DUP7 ADD MSTORE DUP1 MLOAD PUSH2 0x7463 DUP2 PUSH2 0x3CE DUP2 PUSH1 0x5 DUP9 ADD PUSH2 0x7106 JUMP JUMPDEST PUSH1 0xA0 DUP7 ADD MSTORE DUP1 MLOAD PUSH2 0x747B DUP2 PUSH2 0x3CE DUP2 PUSH1 0x6 DUP9 ADD PUSH2 0x7106 JUMP JUMPDEST PUSH1 0xC0 DUP7 ADD MSTORE MLOAD DUP1 SWAP7 DUP2 SWAP4 ADD PUSH2 0x7106 JUMP JUMPDEST ADD MSTORE JUMP JUMPDEST SWAP6 SWAP3 SWAP1 SWAP2 PUSH2 0x6E78 SWAP9 SWAP8 SWAP6 SWAP5 SWAP3 DUP8 MSTORE PUSH1 0x20 DUP8 ADD MSTORE PUSH1 0x40 DUP7 ADD MSTORE PUSH1 0x60 DUP6 ADD MSTORE PUSH1 0x1 DUP1 PUSH1 0xA0 SHL SUB DUP1 SWAP3 AND PUSH1 0x80 DUP6 ADD MSTORE AND PUSH1 0xA0 DUP4 ADD MSTORE ISZERO ISZERO PUSH1 0xC0 DUP3 ADD MSTORE PUSH2 0x100 SWAP1 DUP2 PUSH1 0xE0 DUP3 ADD MSTORE ADD SWAP1 PUSH2 0x719C JUMP JUMPDEST SWAP1 DUP2 MLOAD DUP1 DUP3 MSTORE PUSH1 0x20 DUP1 DUP1 SWAP4 ADD SWAP4 ADD SWAP2 PUSH1 0x0 JUMPDEST DUP3 DUP2 LT PUSH2 0x74F9 JUMPI POP POP POP POP SWAP1 JUMP JUMPDEST DUP4 MLOAD DUP6 MSTORE SWAP4 DUP2 ADD SWAP4 SWAP3 DUP2 ADD SWAP3 PUSH1 0x1 ADD PUSH2 0x74EB JUMP JUMPDEST PUSH1 0x0 SLOAD PUSH1 0x1 PUSH1 0x1 PUSH1 0xA0 SHL SUB AND CALLER SUB PUSH2 0x7521 JUMPI JUMP JUMPDEST PUSH1 0x64 PUSH1 0x40 MLOAD PUSH3 0x461BCD PUSH1 0xE5 SHL DUP2 MSTORE PUSH1 0x20 PUSH1 0x4 DUP3 ADD MSTORE PUSH1 0x20 PUSH1 0x24 DUP3 ADD MSTORE PUSH32 0x4F776E61626C653A2063616C6C6572206973206E6F7420746865206F776E6572 PUSH1 0x44 DUP3 ADD MSTORE REVERT JUMPDEST ISZERO PUSH2 0x756C JUMPI JUMP JUMPDEST PUSH1 0x40 MLOAD PUSH3 0x461BCD PUSH1 0xE5 SHL DUP2 MSTORE PUSH1 0x20 PUSH1 0x4 DUP3 ADD MSTORE PUSH1 0x18 PUSH1 0x24 DUP3 ADD MSTORE PUSH24 0x115490CDCC8C4E881A5B9D985B1A59081D1BDAD95B881251 PUSH1 0x42 SHL PUSH1 0x44 DUP3 ADD MSTORE PUSH1 0x64 SWAP1 REVERT JUMPDEST PUSH1 0x0 SWAP1 DUP2 MSTORE PUSH1 0x4 PUSH1 0x20 MSTORE PUSH1 0x40 SWAP1 KECCAK256 SLOAD PUSH1 0x1 PUSH1 0x1 PUSH1 0xA0 SHL SUB AND PUSH2 0x6E78 DUP2 ISZERO ISZERO PUSH2 0x7565 JUMP JUMPDEST PUSH2 0x75DB PUSH2 0x2855 DUP3 PUSH2 0x78C8 JUMP JUMPDEST PUSH1 0x0 SWAP1 DUP2 MSTORE PUSH1 0x6 PUSH1 0x20 MSTORE PUSH1 0x40 SWAP1 KECCAK256 SLOAD PUSH1 0x1 PUSH1 0x1 PUSH1 0xA0 SHL SUB AND SWAP1 JUMP JUMPDEST ISZERO PUSH2 0x75FD JUMPI JUMP JUMPDEST PUSH1 0x40 MLOAD PUSH3 0x461BCD PUSH1 0xE5 SHL DUP2 MSTORE PUSH1 0x20 PUSH1 0x4 DUP3 ADD MSTORE PUSH1 0x2D PUSH1 0x24 DUP3 ADD MSTORE PUSH32 0x4552433732313A2063616C6C6572206973206E6F7420746F6B656E206F776E65 PUSH1 0x44 DUP3 ADD MSTORE PUSH13 0x1C881BDC88185C1C1C9BDD9959 PUSH1 0x9A SHL PUSH1 0x64 DUP3 ADD MSTORE PUSH1 0x84 SWAP1 REVERT JUMPDEST SWAP1 PUSH2 0x767C SWAP4 SWAP3 SWAP2 PUSH2 0x766C PUSH2 0x637F DUP5 CALLER PUSH2 0x76F3 JUMP JUMPDEST PUSH2 0x7677 DUP4 DUP4 DUP4 PUSH2 0x77BB JUMP JUMPDEST PUSH2 0x7915 JUMP JUMPDEST ISZERO PUSH2 0x7683 JUMPI JUMP JUMPDEST PUSH1 0x40 MLOAD PUSH3 0x461BCD PUSH1 0xE5 SHL DUP2 MSTORE DUP1 PUSH2 0x769C PUSH1 0x4 DUP3 ADD PUSH2 0x76A0 JUMP JUMPDEST SUB SWAP1 REVERT JUMPDEST PUSH1 0x80 SWAP1 PUSH1 0x20 DUP2 MSTORE PUSH1 0x32 PUSH1 0x20 DUP3 ADD MSTORE PUSH32 0x4552433732313A207472616E7366657220746F206E6F6E204552433732315265 PUSH1 0x40 DUP3 ADD MSTORE PUSH18 0x31B2B4BB32B91034B6B83632B6B2B73A32B9 PUSH1 0x71 SHL PUSH1 0x60 DUP3 ADD MSTORE ADD SWAP1 JUMP JUMPDEST SWAP1 PUSH1 0x1 PUSH1 0x1 PUSH1 0xA0 SHL SUB DUP1 DUP1 PUSH2 0x7707 DUP5 PUSH2 0x75AC JUMP JUMPDEST AND SWAP4 AND SWAP2 DUP4 DUP4 EQ SWAP4 DUP5 ISZERO PUSH2 0x773A JUMPI JUMPDEST POP DUP4 ISZERO PUSH2 0x7724 JUMPI JUMPDEST POP POP POP SWAP1 JUMP JUMPDEST PUSH2 0x7730 SWAP2 SWAP3 SWAP4 POP PUSH2 0x75CF JUMP JUMPDEST AND EQ CODESIZE DUP1 DUP1 PUSH2 0x771E JUMP JUMPDEST SWAP1 SWAP4 POP PUSH1 0x0 MSTORE PUSH1 0x7 PUSH1 0x20 MSTORE PUSH1 0x40 PUSH1 0x0 KECCAK256 DUP3 PUSH1 0x0 MSTORE PUSH1 0x20 MSTORE PUSH1 0xFF PUSH1 0x40 PUSH1 0x0 KECCAK256 SLOAD AND SWAP3 CODESIZE PUSH2 0x7716 JUMP JUMPDEST ISZERO PUSH2 0x7768 JUMPI JUMP JUMPDEST PUSH1 0x40 MLOAD PUSH3 0x461BCD PUSH1 0xE5 SHL DUP2 MSTORE PUSH1 0x20 PUSH1 0x4 DUP3 ADD MSTORE PUSH1 0x25 PUSH1 0x24 DUP3 ADD MSTORE PUSH32 0x4552433732313A207472616E736665722066726F6D20696E636F727265637420 PUSH1 0x44 DUP3 ADD MSTORE PUSH5 0x37BBB732B9 PUSH1 0xD9 SHL PUSH1 0x64 DUP3 ADD MSTORE PUSH1 0x84 SWAP1 REVERT JUMPDEST SWAP1 PUSH2 0x77E3 SWAP2 PUSH2 0x77C9 DUP5 PUSH2 0x75AC JUMP JUMPDEST PUSH1 0x1 PUSH1 0x1 PUSH1 0xA0 SHL SUB SWAP4 SWAP2 DUP5 AND SWAP3 DUP5 SWAP3 SWAP1 SWAP2 DUP4 AND DUP5 EQ PUSH2 0x7761 JUMP JUMPDEST AND SWAP2 DUP3 ISZERO PUSH2 0x7866 JUMPI DUP2 PUSH2 0x7800 SWAP2 PUSH2 0x77F9 DUP7 PUSH2 0x75AC JUMP JUMPDEST AND EQ PUSH2 0x7761 JUMP JUMPDEST PUSH1 0x0 DUP1 MLOAD PUSH1 0x20 PUSH2 0x939D DUP4 CODECOPY DUP2 MLOAD SWAP2 MSTORE PUSH1 0x0 DUP5 DUP2 MSTORE PUSH1 0x6 PUSH1 0x20 MSTORE PUSH1 0x40 DUP2 KECCAK256 PUSH1 0x1 DUP1 PUSH1 0xA0 SHL SUB NOT SWAP1 DUP2 DUP2 SLOAD AND SWAP1 SSTORE DUP4 DUP3 MSTORE PUSH1 0x5 PUSH1 0x20 MSTORE PUSH1 0x40 DUP3 KECCAK256 PUSH1 0x0 NOT DUP2 SLOAD ADD SWAP1 SSTORE DUP5 DUP3 MSTORE PUSH1 0x40 DUP3 KECCAK256 PUSH1 0x1 DUP2 SLOAD ADD SWAP1 SSTORE DUP6 DUP3 MSTORE PUSH1 0x4 PUSH1 0x20 MSTORE DUP5 PUSH1 0x40 DUP4 KECCAK256 SWAP2 DUP3 SLOAD AND OR SWAP1 SSTORE DUP1 LOG4 JUMP JUMPDEST PUSH1 0x40 MLOAD PUSH3 0x461BCD PUSH1 0xE5 SHL DUP2 MSTORE PUSH1 0x20 PUSH1 0x4 DUP3 ADD MSTORE PUSH1 0x24 DUP1 DUP3 ADD MSTORE PUSH32 0x4552433732313A207472616E7366657220746F20746865207A65726F20616464 PUSH1 0x44 DUP3 ADD MSTORE PUSH4 0x72657373 PUSH1 0xE0 SHL PUSH1 0x64 DUP3 ADD MSTORE PUSH1 0x84 SWAP1 REVERT JUMPDEST SWAP1 PUSH1 0xFF DUP1 NOT DUP4 SLOAD AND SWAP2 ISZERO ISZERO AND OR SWAP1 SSTORE JUMP JUMPDEST PUSH1 0x0 SWAP1 DUP2 MSTORE PUSH1 0x4 PUSH1 0x20 MSTORE PUSH1 0x40 SWAP1 KECCAK256 SLOAD PUSH1 0x1 PUSH1 0x1 PUSH1 0xA0 SHL SUB AND ISZERO ISZERO SWAP1 JUMP JUMPDEST RETURNDATASIZE ISZERO PUSH2 0x7910 JUMPI RETURNDATASIZE SWAP1 PUSH2 0x78F6 DUP3 PUSH2 0x6FEB JUMP JUMPDEST SWAP2 PUSH2 0x7904 PUSH1 0x40 MLOAD SWAP4 DUP5 PUSH2 0x6FC8 JUMP JUMPDEST DUP3 MSTORE RETURNDATASIZE PUSH1 0x0 PUSH1 0x20 DUP5 ADD RETURNDATACOPY JUMP JUMPDEST PUSH1 0x60 SWAP1 JUMP JUMPDEST SWAP2 SWAP3 PUSH1 0x0 SWAP3 SWAP2 SWAP1 DUP2 EXTCODESIZE ISZERO PUSH2 0x7A0A JUMPI PUSH1 0x20 SWAP2 PUSH2 0x796B SWAP2 DUP6 PUSH1 0x40 MLOAD SWAP6 DUP7 DUP1 SWAP6 DUP2 SWAP5 PUSH4 0xA85BD01 PUSH1 0xE1 SHL SWAP12 DUP13 DUP5 MSTORE CALLER PUSH1 0x4 DUP6 ADD MSTORE PUSH1 0x1 DUP1 PUSH1 0xA0 SHL SUB DUP1 SWAP6 AND PUSH1 0x24 DUP6 ADD MSTORE PUSH1 0x44 DUP5 ADD MSTORE PUSH1 0x80 PUSH1 0x64 DUP5 ADD MSTORE PUSH1 0x84 DUP4 ADD SWAP1 PUSH2 0x6BEE JUMP JUMPDEST SUB SWAP4 AND GAS CALL SWAP1 DUP3 SWAP1 DUP3 PUSH2 0x79BB JUMPI JUMPDEST POP POP PUSH2 0x79AD JUMPI PUSH2 0x7987 PUSH2 0x78E5 JUMP JUMPDEST DUP1 MLOAD SWAP1 DUP2 PUSH2 0x79A8 JUMPI PUSH1 0x40 MLOAD PUSH3 0x461BCD PUSH1 0xE5 SHL DUP2 MSTORE DUP1 PUSH2 0x769C PUSH1 0x4 DUP3 ADD PUSH2 0x76A0 JUMP JUMPDEST PUSH1 0x20 ADD REVERT JUMPDEST PUSH1 0x1 PUSH1 0x1 PUSH1 0xE0 SHL SUB NOT AND EQ SWAP1 JUMP JUMPDEST SWAP1 SWAP2 SWAP3 POP PUSH1 0x20 DUP2 RETURNDATASIZE DUP3 GT PUSH2 0x7A02 JUMPI JUMPDEST DUP2 PUSH2 0x79D7 PUSH1 0x20 SWAP4 DUP4 PUSH2 0x6FC8 JUMP JUMPDEST DUP2 ADD SUB SLT PUSH2 0x79FE JUMPI MLOAD SWAP1 PUSH1 0x1 PUSH1 0x1 PUSH1 0xE0 SHL SUB NOT DUP3 AND DUP3 SUB PUSH2 0x79FB JUMPI POP SWAP1 CODESIZE DUP1 PUSH2 0x7979 JUMP JUMPDEST DUP1 REVERT JUMPDEST POP DUP1 REVERT JUMPDEST RETURNDATASIZE SWAP2 POP PUSH2 0x79CA JUMP JUMPDEST POP POP POP POP POP PUSH1 0x1 SWAP1 JUMP JUMPDEST ISZERO PUSH2 0x7A1B JUMPI JUMP JUMPDEST PUSH1 0x40 MLOAD PUSH3 0x461BCD PUSH1 0xE5 SHL DUP2 MSTORE PUSH1 0x20 PUSH1 0x4 DUP3 ADD MSTORE PUSH1 0xF PUSH1 0x24 DUP3 ADD MSTORE PUSH15 0x496E76616C69642061646472657373 PUSH1 0x88 SHL PUSH1 0x44 DUP3 ADD MSTORE PUSH1 0x64 SWAP1 REVERT JUMPDEST ISZERO PUSH2 0x7A59 JUMPI JUMP JUMPDEST PUSH1 0x40 MLOAD PUSH3 0x461BCD PUSH1 0xE5 SHL DUP2 MSTORE PUSH1 0x20 PUSH1 0x4 DUP3 ADD MSTORE PUSH1 0x14 PUSH1 0x24 DUP3 ADD MSTORE PUSH20 0x4E616D652063616E6E6F7420626520656D707479 PUSH1 0x60 SHL PUSH1 0x44 DUP3 ADD MSTORE PUSH1 0x64 SWAP1 REVERT JUMPDEST DUP2 DUP2 LT PUSH2 0x7AA0 JUMPI POP POP JUMP JUMPDEST PUSH1 0x0 DUP2 SSTORE PUSH1 0x1 ADD PUSH2 0x7A95 JUMP JUMPDEST SWAP2 SWAP1 PUSH1 0x1F DUP2 GT PUSH2 0x7ABB JUMPI POP POP POP JUMP JUMPDEST PUSH2 0x7AE7 SWAP3 PUSH1 0x0 MSTORE PUSH1 0x20 PUSH1 0x0 KECCAK256 SWAP1 PUSH1 0x20 PUSH1 0x1F DUP5 ADD PUSH1 0x5 SHR DUP4 ADD SWAP4 LT PUSH2 0x7AE9 JUMPI JUMPDEST PUSH1 0x1F ADD PUSH1 0x5 SHR ADD SWAP1 PUSH2 0x7A95 JUMP JUMPDEST JUMP JUMPDEST SWAP1 SWAP2 POP DUP2 SWAP1 PUSH2 0x7ADA JUMP JUMPDEST ISZERO PUSH2 0x7AFA JUMPI JUMP JUMPDEST PUSH1 0x40 MLOAD PUSH3 0x461BCD PUSH1 0xE5 SHL DUP2 MSTORE PUSH1 0x20 PUSH1 0x4 DUP3 ADD MSTORE PUSH1 0xE PUSH1 0x24 DUP3 ADD MSTORE PUSH14 0x115B585A5B081C995C5D5A5C9959 PUSH1 0x92 SHL PUSH1 0x44 DUP3 ADD MSTORE PUSH1 0x64 SWAP1 REVERT JUMPDEST ISZERO PUSH2 0x7B37 JUMPI JUMP JUMPDEST PUSH1 0x40 MLOAD PUSH3 0x461BCD PUSH1 0xE5 SHL DUP2 MSTORE PUSH1 0x20 PUSH1 0x4 DUP3 ADD MSTORE PUSH1 0xE PUSH1 0x24 DUP3 ADD MSTORE PUSH14 0x141A1BDB99481C995C5D5A5C9959 PUSH1 0x92 SHL PUSH1 0x44 DUP3 ADD MSTORE PUSH1 0x64 SWAP1 REVERT JUMPDEST PUSH1 0x40 MLOAD SWAP1 PUSH2 0x7B7A DUP3 PUSH2 0x6F41 JUMP JUMPDEST PUSH1 0x0 PUSH1 0xC0 DUP4 PUSH1 0x60 DUP1 DUP3 MSTORE DUP1 PUSH1 0x20 DUP4 ADD MSTORE DUP1 PUSH1 0x40 DUP4 ADD MSTORE DUP1 DUP1 DUP4 ADD MSTORE PUSH1 0x80 DUP3 ADD MSTORE DUP3 PUSH1 0xA0 DUP3 ADD MSTORE ADD MSTORE JUMP JUMPDEST ISZERO PUSH2 0x7BAB JUMPI JUMP JUMPDEST PUSH1 0x40 MLOAD PUSH3 0x461BCD PUSH1 0xE5 SHL DUP2 MSTORE PUSH1 0x20 PUSH1 0x4 DUP3 ADD MSTORE PUSH1 0x15 PUSH1 0x24 DUP3 ADD MSTORE PUSH21 0x14D95B1B195C881B9BDD081C9959DA5CDD195C9959 PUSH1 0x5A SHL PUSH1 0x44 DUP3 ADD MSTORE PUSH1 0x64 SWAP1 REVERT JUMPDEST PUSH1 0x1 PUSH1 0x1 PUSH1 0xA0 SHL SUB SWAP1 DUP2 AND SWAP1 DUP2 ISZERO PUSH2 0x7C1E JUMPI PUSH1 0x0 SLOAD AND DUP2 EQ PUSH2 0x7C18 JUMPI PUSH1 0x0 MSTORE PUSH1 0x12 PUSH1 0x20 MSTORE PUSH1 0xFF PUSH1 0x40 PUSH1 0x0 KECCAK256 SLOAD AND SWAP1 JUMP JUMPDEST POP PUSH1 0x2 SWAP1 JUMP JUMPDEST PUSH1 0x40 MLOAD PUSH3 0x461BCD PUSH1 0xE5 SHL DUP2 MSTORE PUSH1 0x20 PUSH1 0x4 DUP3 ADD MSTORE PUSH1 0x16 PUSH1 0x24 DUP3 ADD MSTORE PUSH22 0x496E76616C69642073656C6C65722061646472657373 PUSH1 0x50 SHL PUSH1 0x44 DUP3 ADD MSTORE PUSH1 0x64 SWAP1 REVERT JUMPDEST SWAP1 CALLDATALOAD SWAP1 PUSH1 0x1E NOT DUP2 CALLDATASIZE SUB ADD DUP3 SLT ISZERO PUSH2 0x5E2 JUMPI ADD DUP1 CALLDATALOAD SWAP1 PUSH1 0x1 PUSH1 0x1 PUSH1 0x40 SHL SUB DUP3 GT PUSH2 0x5E2 JUMPI PUSH1 0x20 ADD SWAP2 DUP2 CALLDATASIZE SUB DUP4 SGT PUSH2 0x5E2 JUMPI JUMP JUMPDEST ISZERO PUSH2 0x7C95 JUMPI JUMP JUMPDEST PUSH1 0x40 MLOAD PUSH3 0x461BCD PUSH1 0xE5 SHL DUP2 MSTORE PUSH1 0x20 PUSH1 0x4 DUP3 ADD MSTORE PUSH1 0x1C PUSH1 0x24 DUP3 ADD MSTORE PUSH28 0x5072696365206D7573742062652067726561746572207468616E203 PUSH1 0x24 SHL PUSH1 0x44 DUP3 ADD MSTORE PUSH1 0x64 SWAP1 REVERT JUMPDEST ISZERO PUSH2 0x7CE0 JUMPI JUMP JUMPDEST PUSH1 0x40 MLOAD PUSH3 0x461BCD PUSH1 0xE5 SHL DUP2 MSTORE PUSH1 0x20 PUSH1 0x4 DUP3 ADD MSTORE PUSH1 0x1C PUSH1 0x24 DUP3 ADD MSTORE PUSH28 0x53746F636B206D7573742062652067726561746572207468616E203 PUSH1 0x24 SHL PUSH1 0x44 DUP3 ADD MSTORE PUSH1 0x64 SWAP1 REVERT JUMPDEST ISZERO PUSH2 0x7D2B JUMPI JUMP JUMPDEST PUSH1 0x40 MLOAD PUSH3 0x461BCD PUSH1 0xE5 SHL DUP2 MSTORE PUSH1 0x20 PUSH1 0x4 DUP3 ADD MSTORE PUSH1 0x1D PUSH1 0x24 DUP3 ADD MSTORE PUSH32 0x576569676874206D7573742062652067726561746572207468616E2030000000 PUSH1 0x44 DUP3 ADD MSTORE PUSH1 0x64 SWAP1 REVERT JUMPDEST ISZERO PUSH2 0x7D77 JUMPI JUMP JUMPDEST PUSH1 0x40 MLOAD PUSH3 0x461BCD PUSH1 0xE5 SHL DUP2 MSTORE PUSH1 0x20 PUSH1 0x4 DUP3 ADD MSTORE PUSH1 0x15 PUSH1 0x24 DUP3 ADD MSTORE PUSH21 0x4D6F64656C2063616E6E6F7420626520656D707479 PUSH1 0x58 SHL PUSH1 0x44 DUP3 ADD MSTORE PUSH1 0x64 SWAP1 REVERT JUMPDEST ISZERO PUSH2 0x7DBB JUMPI JUMP JUMPDEST PUSH1 0x40 MLOAD PUSH3 0x461BCD PUSH1 0xE5 SHL DUP2 MSTORE PUSH1 0x20 PUSH1 0x4 DUP3 ADD MSTORE PUSH1 0x15 PUSH1 0x24 DUP3 ADD MSTORE PUSH21 0x4272616E642063616E6E6F7420626520656D707479 PUSH1 0x58 SHL PUSH1 0x44 DUP3 ADD MSTORE PUSH1 0x64 SWAP1 REVERT JUMPDEST ISZERO PUSH2 0x7DFF JUMPI JUMP JUMPDEST PUSH1 0x40 MLOAD PUSH3 0x461BCD PUSH1 0xE5 SHL DUP2 MSTORE PUSH1 0x20 PUSH1 0x4 DUP3 ADD MSTORE PUSH1 0x1A PUSH1 0x24 DUP3 ADD MSTORE PUSH26 0x534B55206D7573742062652067726561746572207468616E203 PUSH1 0x34 SHL PUSH1 0x44 DUP3 ADD MSTORE PUSH1 0x64 SWAP1 REVERT JUMPDEST SWAP1 CALLDATALOAD SWAP1 PUSH1 0x1E NOT DUP2 CALLDATASIZE SUB ADD DUP3 SLT ISZERO PUSH2 0x5E2 JUMPI ADD DUP1 CALLDATALOAD SWAP1 PUSH1 0x1 PUSH1 0x1 PUSH1 0x40 SHL SUB DUP3 GT PUSH2 0x5E2 JUMPI PUSH1 0x20 ADD SWAP2 DUP2 PUSH1 0x5 SHL CALLDATASIZE SUB DUP4 SGT PUSH2 0x5E2 JUMPI JUMP JUMPDEST ISZERO PUSH2 0x7E7D JUMPI JUMP JUMPDEST PUSH1 0x40 MLOAD PUSH3 0x461BCD PUSH1 0xE5 SHL DUP2 MSTORE PUSH1 0x20 PUSH1 0x4 DUP3 ADD MSTORE PUSH1 0x16 PUSH1 0x24 DUP3 ADD MSTORE PUSH22 0x496D616765732063616E6E6F7420626520656D707479 PUSH1 0x50 SHL PUSH1 0x44 DUP3 ADD MSTORE PUSH1 0x64 SWAP1 REVERT JUMPDEST ISZERO PUSH2 0x7EC2 JUMPI JUMP JUMPDEST PUSH1 0x40 MLOAD PUSH3 0x461BCD PUSH1 0xE5 SHL DUP2 MSTORE PUSH1 0x20 PUSH1 0x4 DUP3 ADD MSTORE PUSH1 0x1C PUSH1 0x24 DUP3 ADD MSTORE PUSH28 0x496D616765732063616E6E6F74206265206D6F7265207468616E2035 PUSH1 0x20 SHL PUSH1 0x44 DUP3 ADD MSTORE PUSH1 0x64 SWAP1 REVERT JUMPDEST PUSH1 0x40 MLOAD SWAP1 PUSH2 0x7F13 DUP3 PUSH2 0x6F09 JUMP JUMPDEST DUP2 PUSH2 0x240 PUSH1 0x0 SWAP2 DUP3 DUP2 MSTORE DUP3 PUSH1 0x20 DUP3 ADD MSTORE PUSH1 0x60 SWAP3 DUP4 PUSH1 0x40 DUP4 ADD MSTORE DUP4 DUP1 DUP4 ADD MSTORE DUP1 PUSH1 0x80 DUP4 ADD MSTORE DUP1 PUSH1 0xA0 DUP4 ADD MSTORE DUP4 PUSH1 0xC0 DUP4 ADD MSTORE DUP4 PUSH1 0xE0 DUP4 ADD MSTORE DUP4 PUSH2 0x100 DUP4 ADD MSTORE DUP4 PUSH2 0x120 DUP4 ADD MSTORE DUP4 PUSH2 0x140 DUP4 ADD MSTORE DUP1 PUSH2 0x160 DUP4 ADD MSTORE DUP4 PUSH2 0x180 DUP4 ADD MSTORE DUP4 PUSH2 0x1A0 DUP4 ADD MSTORE DUP1 PUSH2 0x1C0 DUP4 ADD MSTORE DUP1 PUSH2 0x1E0 DUP4 ADD MSTORE DUP1 PUSH2 0x200 DUP4 ADD MSTORE PUSH2 0x220 DUP3 ADD MSTORE ADD MSTORE JUMP JUMPDEST PUSH1 0x1 PUSH1 0x1 PUSH1 0x40 SHL SUB DUP2 GT PUSH2 0x143C JUMPI PUSH1 0x5 SHL PUSH1 0x20 ADD SWAP1 JUMP JUMPDEST SWAP3 SWAP2 SWAP1 SWAP3 PUSH2 0x7FB6 DUP5 PUSH2 0x7F92 JUMP JUMPDEST SWAP2 PUSH2 0x7FC4 PUSH1 0x40 MLOAD SWAP4 DUP5 PUSH2 0x6FC8 JUMP JUMPDEST DUP3 SWAP5 DUP1 DUP5 MSTORE PUSH1 0x20 DUP1 SWAP5 ADD SWAP1 PUSH1 0x5 SHL DUP4 ADD SWAP3 DUP3 DUP5 GT PUSH2 0x5E2 JUMPI DUP1 SWAP2 JUMPDEST DUP5 DUP4 LT PUSH2 0x7FEE JUMPI POP POP POP POP POP POP JUMP JUMPDEST DUP3 CALLDATALOAD PUSH1 0x1 PUSH1 0x1 PUSH1 0x40 SHL SUB DUP2 GT PUSH2 0x5E2 JUMPI DUP7 SWAP2 PUSH2 0x800D DUP7 DUP5 SWAP4 DUP7 ADD PUSH2 0x703D JUMP JUMPDEST DUP2 MSTORE ADD SWAP3 ADD SWAP2 PUSH2 0x7FDF JUMP JUMPDEST PUSH2 0x8022 DUP2 SLOAD PUSH2 0x70CC JUMP JUMPDEST SWAP1 DUP2 PUSH2 0x802C JUMPI POP POP JUMP JUMPDEST DUP2 PUSH1 0x1F PUSH1 0x0 SWAP4 GT PUSH1 0x1 EQ PUSH2 0x803E JUMPI POP SSTORE JUMP JUMPDEST SWAP1 DUP1 DUP4 SWAP2 DUP3 MSTORE PUSH2 0x805D PUSH1 0x1F PUSH1 0x20 DUP5 KECCAK256 SWAP5 ADD PUSH1 0x5 SHR DUP5 ADD PUSH1 0x1 DUP6 ADD PUSH2 0x7A95 JUMP JUMPDEST SSTORE SSTORE JUMP JUMPDEST SWAP1 PUSH1 0x1 PUSH1 0x40 SHL DUP2 GT PUSH2 0x143C JUMPI DUP2 SLOAD SWAP2 DUP2 DUP2 SSTORE DUP3 DUP3 LT PUSH2 0x807F JUMPI POP POP POP JUMP JUMPDEST PUSH1 0x0 MSTORE PUSH1 0x20 PUSH1 0x0 KECCAK256 SWAP2 DUP3 ADD SWAP2 ADD JUMPDEST DUP2 DUP2 LT PUSH2 0x8098 JUMPI POP POP JUMP JUMPDEST DUP1 PUSH2 0x80A4 PUSH1 0x1 SWAP3 PUSH2 0x8018 JUMP JUMPDEST ADD PUSH2 0x808D JUMP JUMPDEST DUP2 MLOAD DUP2 SSTORE PUSH1 0x20 DUP1 DUP4 ADD MLOAD PUSH1 0x1 DUP1 DUP5 ADD DUP1 SLOAD PUSH1 0x1 PUSH1 0x1 PUSH1 0xA0 SHL SUB NOT AND PUSH1 0x1 PUSH1 0x1 PUSH1 0xA0 SHL SUB SWAP4 SWAP1 SWAP4 AND SWAP3 SWAP1 SWAP3 OR SWAP1 SWAP2 SSTORE PUSH1 0x40 DUP5 ADD MLOAD PUSH1 0x2 DUP5 ADD SSTORE PUSH1 0x60 DUP5 ADD MLOAD DUP1 MLOAD SWAP4 SWAP5 SWAP1 SWAP4 SWAP1 SWAP3 PUSH1 0x3 DUP7 ADD SWAP3 SWAP1 PUSH1 0x1 PUSH1 0x1 PUSH1 0x40 SHL SUB DUP4 GT PUSH2 0x143C JUMPI PUSH2 0x8111 DUP4 PUSH2 0x447D DUP7 SLOAD PUSH2 0x70CC JUMP JUMPDEST DUP1 PUSH1 0x1F DUP5 GT PUSH1 0x1 EQ PUSH2 0x8169 JUMPI POP SWAP2 DUP1 DUP1 SWAP3 PUSH1 0xA0 SWAP7 SWAP6 SWAP5 PUSH1 0x5 SWAP9 PUSH1 0x0 SWAP5 PUSH2 0x815E JUMPI JUMPDEST POP POP SHL SWAP2 PUSH1 0x0 NOT SWAP1 PUSH1 0x3 SHL SHR NOT AND OR SWAP1 SSTORE JUMPDEST PUSH2 0x8157 PUSH1 0x80 DUP3 ADD MLOAD ISZERO ISZERO PUSH1 0x4 DUP7 ADD PUSH2 0x78B7 JUMP JUMPDEST ADD MLOAD SWAP2 ADD SSTORE JUMP JUMPDEST ADD MLOAD SWAP3 POP CODESIZE DUP1 PUSH2 0x8132 JUMP JUMPDEST SWAP2 SWAP4 SWAP5 SWAP6 PUSH1 0x1F NOT DUP5 AND DUP7 PUSH1 0x0 MSTORE DUP4 PUSH1 0x0 KECCAK256 SWAP4 PUSH1 0x0 SWAP1 JUMPDEST DUP3 DUP3 LT PUSH2 0x81C1 JUMPI POP POP SWAP2 PUSH1 0x5 SWAP8 SWAP6 SWAP4 SWAP2 DUP6 PUSH1 0xA0 SWAP9 SWAP7 SWAP5 LT PUSH2 0x81A8 JUMPI JUMPDEST POP POP POP DUP2 SHL ADD SWAP1 SSTORE PUSH2 0x8144 JUMP JUMPDEST ADD MLOAD PUSH1 0x0 NOT PUSH1 0xF8 DUP5 PUSH1 0x3 SHL AND SHR NOT AND SWAP1 SSTORE CODESIZE DUP1 DUP1 PUSH2 0x819B JUMP JUMPDEST DUP1 DUP9 DUP7 SWAP8 DUP3 SWAP5 SWAP8 DUP8 ADD MLOAD DUP2 SSTORE ADD SWAP7 ADD SWAP5 ADD SWAP1 PUSH2 0x817F JUMP JUMPDEST DUP1 SLOAD PUSH1 0x1 PUSH1 0x40 SHL DUP2 LT ISZERO PUSH2 0x143C JUMPI PUSH2 0x81F5 SWAP2 PUSH1 0x1 DUP3 ADD DUP2 SSTORE PUSH2 0x738F JUMP JUMPDEST DUP2 SWAP3 SWAP2 SLOAD SWAP1 PUSH1 0x3 SHL SWAP2 DUP3 SHL SWAP2 PUSH1 0x0 NOT SWAP1 SHL NOT AND OR SWAP1 SSTORE JUMP JUMPDEST ISZERO PUSH2 0x8214 JUMPI JUMP JUMPDEST PUSH1 0x40 MLOAD PUSH3 0x461BCD PUSH1 0xE5 SHL DUP2 MSTORE PUSH1 0x20 PUSH1 0x4 DUP3 ADD MSTORE PUSH1 0x1C PUSH1 0x24 DUP3 ADD MSTORE PUSH28 0x115490CDCC8C4E881D1BDAD95B88185B1C9958591E481B5A5B9D1959 PUSH1 0x22 SHL PUSH1 0x44 DUP3 ADD MSTORE PUSH1 0x64 SWAP1 REVERT JUMPDEST ISZERO PUSH2 0x825F JUMPI JUMP JUMPDEST PUSH1 0x40 MLOAD PUSH3 0x461BCD PUSH1 0xE5 SHL DUP2 MSTORE PUSH1 0x20 PUSH1 0x4 DUP3 ADD MSTORE PUSH1 0x16 PUSH1 0x24 DUP3 ADD MSTORE PUSH22 0x141C9BD91D58DD08191BD95CC81B9BDD08195E1A5CDD PUSH1 0x52 SHL PUSH1 0x44 DUP3 ADD MSTORE PUSH1 0x64 SWAP1 REVERT JUMPDEST ISZERO PUSH2 0x82A4 JUMPI JUMP JUMPDEST PUSH1 0x40 MLOAD PUSH3 0x461BCD PUSH1 0xE5 SHL DUP2 MSTORE PUSH1 0x20 PUSH1 0x4 DUP3 ADD MSTORE PUSH1 0x12 PUSH1 0x24 DUP3 ADD MSTORE PUSH18 0x141C9BD91D58DD081A5CC819195B195D1959 PUSH1 0x72 SHL PUSH1 0x44 DUP3 ADD MSTORE PUSH1 0x64 SWAP1 REVERT JUMPDEST SWAP1 DUP1 DUP3 EQ PUSH2 0x83B2 JUMPI PUSH2 0x82F0 DUP2 SLOAD PUSH2 0x70CC JUMP JUMPDEST SWAP1 PUSH1 0x1 PUSH1 0x1 PUSH1 0x40 SHL SUB DUP3 GT PUSH2 0x143C JUMPI DUP2 SWAP1 PUSH2 0x830F DUP3 PUSH2 0x447D DUP7 SLOAD PUSH2 0x70CC JUMP JUMPDEST PUSH1 0x0 SWAP1 PUSH1 0x1F DUP4 GT PUSH1 0x1 EQ PUSH2 0x8346 JUMPI PUSH1 0x0 SWAP3 PUSH2 0x833B JUMPI JUMPDEST POP POP DUP2 PUSH1 0x1 SHL SWAP2 PUSH1 0x0 NOT SWAP1 PUSH1 0x3 SHL SHR NOT AND OR SWAP1 SSTORE JUMP JUMPDEST ADD SLOAD SWAP1 POP CODESIZE DUP1 PUSH2 0x8325 JUMP JUMPDEST DUP2 MSTORE PUSH1 0x20 DUP1 DUP3 KECCAK256 DUP6 DUP4 MSTORE DUP2 DUP4 KECCAK256 SWAP4 POP SWAP1 PUSH1 0x1F NOT DUP6 AND SWAP1 DUP4 SWAP1 JUMPDEST DUP3 DUP3 LT PUSH2 0x8399 JUMPI POP POP SWAP1 DUP5 PUSH1 0x1 SWAP6 SWAP5 SWAP4 SWAP3 LT PUSH2 0x8380 JUMPI JUMPDEST POP POP POP DUP2 SHL ADD SWAP1 SSTORE JUMP JUMPDEST ADD SLOAD PUSH1 0x0 NOT PUSH1 0xF8 DUP5 PUSH1 0x3 SHL AND SHR NOT AND SWAP1 SSTORE CODESIZE DUP1 DUP1 PUSH2 0x8376 JUMP JUMPDEST DUP5 SWAP6 DUP2 SWAP3 SWAP6 DUP6 ADD SLOAD DUP2 SSTORE PUSH1 0x1 DUP1 SWAP2 ADD SWAP7 ADD SWAP5 ADD SWAP1 PUSH2 0x835F JUMP JUMPDEST POP POP JUMP JUMPDEST SWAP1 DUP2 SLOAD PUSH2 0x83C2 DUP2 PUSH2 0x7F92 JUMP JUMPDEST SWAP3 PUSH1 0x40 SWAP4 PUSH2 0x83D2 DUP6 MLOAD SWAP2 DUP3 PUSH2 0x6FC8 JUMP JUMPDEST DUP3 DUP2 MSTORE DUP1 SWAP5 PUSH1 0x20 DUP1 SWAP3 ADD SWAP3 PUSH1 0x0 MSTORE DUP2 PUSH1 0x0 KECCAK256 SWAP1 PUSH1 0x0 SWAP4 JUMPDEST DUP6 DUP6 LT PUSH2 0x83F8 JUMPI POP POP POP POP POP POP JUMP JUMPDEST PUSH1 0x1 DUP5 DUP2 SWAP3 DUP5 MLOAD PUSH2 0x840D DUP2 PUSH2 0x3CE DUP2 DUP11 PUSH2 0x7106 JUMP JUMPDEST DUP2 MSTORE ADD SWAP4 ADD SWAP5 ADD SWAP4 SWAP2 PUSH2 0x83E9 JUMP JUMPDEST SWAP1 PUSH1 0x40 MLOAD PUSH2 0x8428 DUP2 PUSH2 0x6F92 JUMP JUMPDEST PUSH1 0xA0 PUSH1 0x5 DUP3 SWAP5 DUP1 SLOAD DUP5 MSTORE PUSH1 0x1 DUP1 DUP5 SHL SUB PUSH1 0x1 DUP3 ADD SLOAD AND PUSH1 0x20 DUP6 ADD MSTORE PUSH1 0x2 DUP2 ADD SLOAD PUSH1 0x40 DUP6 ADD MSTORE PUSH1 0x40 MLOAD PUSH2 0x8461 DUP2 PUSH2 0x3CE DUP2 PUSH1 0x3 DUP7 ADD PUSH2 0x7106 JUMP JUMPDEST PUSH1 0x60 DUP6 ADD MSTORE PUSH1 0xFF PUSH1 0x4 DUP3 ADD SLOAD AND ISZERO ISZERO PUSH1 0x80 DUP6 ADD MSTORE ADD SLOAD SWAP2 ADD MSTORE JUMP JUMPDEST PUSH1 0x0 NOT DUP2 EQ PUSH2 0x1426 JUMPI PUSH1 0x1 ADD SWAP1 JUMP JUMPDEST SWAP1 PUSH2 0x8495 DUP3 PUSH2 0x7F92 JUMP JUMPDEST PUSH2 0x84A2 PUSH1 0x40 MLOAD SWAP2 DUP3 PUSH2 0x6FC8 JUMP JUMPDEST DUP3 DUP2 MSTORE DUP1 SWAP3 PUSH2 0x84B3 PUSH1 0x1F NOT SWAP2 PUSH2 0x7F92 JUMP JUMPDEST ADD SWAP1 PUSH1 0x0 JUMPDEST DUP3 DUP2 LT PUSH2 0x84C4 JUMPI POP POP POP JUMP JUMPDEST PUSH1 0x20 SWAP1 PUSH2 0x84CF PUSH2 0x7F06 JUMP JUMPDEST DUP3 DUP3 DUP6 ADD ADD MSTORE ADD PUSH2 0x84B8 JUMP JUMPDEST DUP1 MLOAD DUP3 LT ISZERO PUSH2 0x2305 JUMPI PUSH1 0x20 SWAP2 PUSH1 0x5 SHL ADD ADD SWAP1 JUMP JUMPDEST ISZERO PUSH2 0x84F6 JUMPI JUMP JUMPDEST PUSH1 0x40 MLOAD PUSH3 0x461BCD PUSH1 0xE5 SHL DUP2 MSTORE PUSH1 0x20 PUSH1 0x4 DUP3 ADD MSTORE PUSH1 0x1D PUSH1 0x24 DUP3 ADD MSTORE PUSH32 0x43617465676F7279206E616D652063616E6E6F7420626520656D707479000000 PUSH1 0x44 DUP3 ADD MSTORE PUSH1 0x64 SWAP1 REVERT JUMPDEST ISZERO PUSH2 0x8542 JUMPI JUMP JUMPDEST PUSH1 0x64 PUSH1 0x40 MLOAD PUSH3 0x461BCD PUSH1 0xE5 SHL DUP2 MSTORE PUSH1 0x20 PUSH1 0x4 DUP3 ADD MSTORE PUSH1 0x20 PUSH1 0x24 DUP3 ADD MSTORE PUSH32 0x53756263617465676F7279206E616D652063616E6E6F7420626520656D707479 PUSH1 0x44 DUP3 ADD MSTORE REVERT JUMPDEST SWAP1 DUP3 LT ISZERO PUSH2 0x2305 JUMPI PUSH2 0x859D SWAP2 PUSH1 0x5 SHL DUP2 ADD SWAP1 PUSH2 0x7C5C JUMP JUMPDEST SWAP1 SWAP2 JUMP JUMPDEST ISZERO PUSH2 0x85A8 JUMPI JUMP JUMPDEST PUSH1 0x40 MLOAD PUSH3 0x461BCD PUSH1 0xE5 SHL DUP2 MSTORE PUSH1 0x20 PUSH1 0x4 DUP3 ADD MSTORE PUSH1 0x17 PUSH1 0x24 DUP3 ADD MSTORE PUSH23 0x10D85D1959DBDC9E48191BD95CC81B9BDD08195E1A5CDD PUSH1 0x4A SHL PUSH1 0x44 DUP3 ADD MSTORE PUSH1 0x64 SWAP1 REVERT JUMPDEST SWAP1 PUSH2 0x85FF PUSH1 0x20 SWAP2 SWAP5 SWAP4 SWAP5 PUSH1 0x40 DUP5 MSTORE PUSH1 0x40 DUP5 ADD SWAP1 PUSH2 0x6BEE JUMP JUMPDEST SWAP4 ISZERO ISZERO SWAP2 ADD MSTORE JUMP JUMPDEST ISZERO PUSH2 0x860E JUMPI JUMP JUMPDEST PUSH1 0x40 MLOAD PUSH3 0x461BCD PUSH1 0xE5 SHL DUP2 MSTORE PUSH1 0x20 PUSH1 0x4 DUP3 ADD MSTORE PUSH1 0x1A PUSH1 0x24 DUP3 ADD MSTORE PUSH26 0x14DD5898D85D1959DBDC9E48191BD95CC81B9BDD08195E1A5CDD PUSH1 0x32 SHL PUSH1 0x44 DUP3 ADD MSTORE PUSH1 0x64 SWAP1 REVERT JUMPDEST SWAP1 PUSH1 0x40 MLOAD SWAP2 DUP3 DUP2 SLOAD SWAP2 DUP3 DUP3 MSTORE PUSH1 0x20 SWAP3 DUP4 DUP4 ADD SWAP2 PUSH1 0x0 MSTORE DUP4 PUSH1 0x0 KECCAK256 SWAP4 PUSH1 0x0 SWAP1 JUMPDEST DUP3 DUP3 LT PUSH2 0x8685 JUMPI POP POP POP PUSH2 0x7AE7 SWAP3 POP SUB DUP4 PUSH2 0x6FC8 JUMP JUMPDEST DUP6 SLOAD DUP5 MSTORE PUSH1 0x1 SWAP6 DUP7 ADD SWAP6 DUP9 SWAP6 POP SWAP4 DUP2 ADD SWAP4 SWAP1 SWAP2 ADD SWAP1 PUSH2 0x866F JUMP JUMPDEST PUSH1 0x0 JUMPDEST DUP3 DUP2 LT PUSH2 0x86AE JUMPI POP POP POP JUMP JUMPDEST PUSH1 0x60 DUP3 DUP3 ADD MSTORE PUSH1 0x20 ADD PUSH2 0x86A2 JUMP JUMPDEST SWAP2 SWAP1 DUP3 SUB SWAP2 DUP3 GT PUSH2 0x1426 JUMPI JUMP JUMPDEST PUSH1 0x40 MLOAD SWAP1 PUSH2 0x86D6 DUP3 PUSH2 0x6F92 JUMP JUMPDEST PUSH1 0x0 PUSH1 0xA0 DUP4 DUP3 DUP2 MSTORE DUP3 PUSH1 0x20 DUP3 ADD MSTORE DUP3 PUSH1 0x40 DUP3 ADD MSTORE PUSH1 0x60 DUP1 DUP3 ADD MSTORE DUP3 PUSH1 0x80 DUP3 ADD MSTORE ADD MSTORE JUMP JUMPDEST DUP1 SLOAD DUP3 LT ISZERO PUSH2 0x2305 JUMPI PUSH1 0x0 MSTORE PUSH1 0x6 PUSH1 0x20 PUSH1 0x0 KECCAK256 SWAP2 MUL ADD SWAP1 PUSH1 0x0 SWAP1 JUMP JUMPDEST PUSH1 0x2 PUSH1 0x1 SLOAD EQ PUSH2 0x8727 JUMPI PUSH1 0x2 PUSH1 0x1 SSTORE JUMP JUMPDEST PUSH1 0x40 MLOAD PUSH3 0x461BCD PUSH1 0xE5 SHL DUP2 MSTORE PUSH1 0x20 PUSH1 0x4 DUP3 ADD MSTORE PUSH1 0x1F PUSH1 0x24 DUP3 ADD MSTORE PUSH32 0x5265656E7472616E637947756172643A207265656E7472616E742063616C6C00 PUSH1 0x44 DUP3 ADD MSTORE PUSH1 0x64 SWAP1 REVERT JUMPDEST DUP1 SLOAD PUSH1 0x1 PUSH1 0x40 SHL DUP2 LT ISZERO PUSH2 0x143C JUMPI PUSH2 0x878B SWAP1 PUSH1 0x1 SWAP3 DUP4 DUP3 ADD DUP2 SSTORE PUSH2 0x73A7 JUMP JUMPDEST SWAP3 SWAP1 SWAP3 PUSH2 0x8E32 JUMPI DUP1 MLOAD DUP4 SSTORE PUSH1 0x20 DUP1 DUP3 ADD MLOAD DUP4 DUP6 ADD SSTORE PUSH1 0x40 DUP3 ADD MLOAD PUSH1 0x2 DUP6 ADD SSTORE PUSH1 0x60 DUP3 ADD MLOAD PUSH1 0x3 DUP1 DUP7 ADD SWAP2 SWAP1 SWAP2 SSTORE PUSH1 0x80 DUP4 ADD MLOAD PUSH1 0x4 DUP1 DUP8 ADD DUP1 SLOAD PUSH1 0x1 PUSH1 0x1 PUSH1 0xA0 SHL SUB NOT AND PUSH1 0x1 PUSH1 0x1 PUSH1 0xA0 SHL SUB SWAP4 DUP5 AND OR SWAP1 SSTORE PUSH1 0xA0 DUP1 DUP7 ADD MLOAD PUSH1 0x5 DUP10 ADD DUP1 SLOAD PUSH1 0xC0 DUP10 ADD MLOAD PUSH1 0x1 PUSH1 0x1 PUSH1 0xA8 SHL SUB NOT SWAP1 SWAP2 AND SWAP3 SWAP1 SWAP6 AND SWAP2 SWAP1 SWAP2 OR SWAP4 ISZERO ISZERO SWAP1 SWAP2 SHL PUSH1 0xFF PUSH1 0xA0 SHL AND SWAP3 SWAP1 SWAP3 OR SWAP1 SWAP2 SSTORE PUSH1 0xE0 SWAP1 SWAP4 ADD MLOAD DUP1 MLOAD DUP1 MLOAD SWAP2 SWAP7 PUSH1 0x1 PUSH1 0x1 PUSH1 0x40 SHL SUB SWAP6 SWAP4 SWAP5 SWAP2 SWAP4 SWAP3 PUSH1 0x6 DUP3 ADD SWAP1 DUP8 DUP2 GT PUSH2 0x8E1D JUMPI PUSH2 0x8848 DUP2 PUSH2 0x3A13 DUP5 SLOAD PUSH2 0x70CC JUMP JUMPDEST DUP1 DUP5 PUSH1 0x1F SWAP8 DUP9 DUP4 GT PUSH1 0x1 EQ PUSH2 0x8DBB JUMPI PUSH1 0x0 SWAP3 PUSH2 0x8DB0 JUMPI JUMPDEST POP POP PUSH1 0x0 NOT DUP3 DUP10 SHL SHR NOT AND SWAP1 DUP10 SHL OR SWAP1 SSTORE JUMPDEST PUSH1 0x7 DUP2 ADD DUP3 DUP10 ADD MLOAD DUP1 MLOAD SWAP1 DUP9 DUP3 GT PUSH2 0x8B7A JUMPI DUP2 SWAP1 PUSH2 0x8893 DUP3 PUSH2 0x447D DUP7 SLOAD PUSH2 0x70CC JUMP JUMPDEST DUP6 SWAP1 DUP9 DUP4 GT PUSH1 0x1 EQ PUSH2 0x8D4E JUMPI PUSH1 0x0 SWAP3 PUSH2 0x8D43 JUMPI JUMPDEST POP POP PUSH1 0x0 NOT DUP3 DUP10 SHL SHR NOT AND SWAP1 DUP10 SHL OR SWAP1 SSTORE JUMPDEST PUSH1 0x8 DUP2 ADD PUSH1 0x40 DUP10 ADD MLOAD DUP1 MLOAD SWAP1 DUP9 DUP3 GT PUSH2 0x8B7A JUMPI DUP2 SWAP1 PUSH2 0x88DC DUP3 PUSH2 0x447D DUP7 SLOAD PUSH2 0x70CC JUMP JUMPDEST DUP6 SWAP1 DUP9 DUP4 GT PUSH1 0x1 EQ PUSH2 0x8CE1 JUMPI PUSH1 0x0 SWAP3 PUSH2 0x8CD6 JUMPI JUMPDEST POP POP PUSH1 0x0 NOT DUP3 DUP10 SHL SHR NOT AND SWAP1 DUP10 SHL OR SWAP1 SSTORE JUMPDEST PUSH1 0x9 DUP2 ADD PUSH1 0x60 DUP10 ADD MLOAD DUP1 MLOAD SWAP1 DUP9 DUP3 GT PUSH2 0x8B7A JUMPI DUP2 SWAP1 PUSH2 0x8925 DUP3 PUSH2 0x447D DUP7 SLOAD PUSH2 0x70CC JUMP JUMPDEST DUP6 SWAP1 DUP9 DUP4 GT PUSH1 0x1 EQ PUSH2 0x8C74 JUMPI PUSH1 0x0 SWAP3 PUSH2 0x8C69 JUMPI JUMPDEST POP POP PUSH1 0x0 NOT DUP3 DUP10 SHL SHR NOT AND SWAP1 DUP10 SHL OR SWAP1 SSTORE JUMPDEST PUSH1 0xA DUP2 ADD PUSH1 0x80 DUP10 ADD MLOAD DUP1 MLOAD SWAP1 DUP9 DUP3 GT PUSH2 0x8B7A JUMPI DUP2 SWAP1 PUSH2 0x896E DUP3 PUSH2 0x447D DUP7 SLOAD PUSH2 0x70CC JUMP JUMPDEST DUP6 SWAP1 DUP9 DUP4 GT PUSH1 0x1 EQ PUSH2 0x8C07 JUMPI PUSH1 0x0 SWAP3 PUSH2 0x8BFC JUMPI JUMPDEST POP POP PUSH1 0x0 NOT DUP3 DUP10 SHL SHR NOT AND SWAP1 DUP10 SHL OR SWAP1 SSTORE JUMPDEST PUSH1 0xB DUP2 ADD PUSH1 0xA0 DUP10 ADD MLOAD DUP1 MLOAD SWAP1 DUP9 DUP3 GT PUSH2 0x8B7A JUMPI DUP2 SWAP1 PUSH2 0x89B7 DUP3 PUSH2 0x447D DUP7 SLOAD PUSH2 0x70CC JUMP JUMPDEST DUP6 SWAP1 DUP9 DUP4 GT PUSH1 0x1 EQ PUSH2 0x8B9A JUMPI PUSH1 0x0 SWAP3 PUSH2 0x8B8F JUMPI JUMPDEST POP POP PUSH1 0x0 NOT DUP3 DUP10 SHL SHR NOT AND SWAP1 DUP10 SHL OR SWAP1 SSTORE JUMPDEST PUSH1 0xC DUP2 ADD PUSH1 0xC0 DUP10 ADD MLOAD DUP1 MLOAD SWAP1 DUP9 DUP3 GT PUSH2 0x8B7A JUMPI PUSH2 0x89FE DUP3 PUSH2 0x1C00 DUP6 SLOAD PUSH2 0x70CC JUMP JUMPDEST DUP5 SWAP1 DUP8 DUP4 GT PUSH1 0x1 EQ PUSH2 0x8B0D JUMPI SWAP2 DUP1 PUSH1 0xD SWAP5 SWAP3 PUSH1 0xE0 SWAP7 SWAP5 PUSH1 0x0 SWAP3 PUSH2 0x8B02 JUMPI JUMPDEST POP POP PUSH1 0x0 NOT DUP3 DUP12 SHL SHR NOT AND SWAP1 DUP12 SHL OR SWAP1 SSTORE JUMPDEST ADD SWAP8 ADD MLOAD SWAP2 DUP3 MLOAD SWAP6 DUP7 GT PUSH2 0x8AED JUMPI POP PUSH2 0x8A51 DUP6 PUSH2 0x8A4B DUP10 SLOAD PUSH2 0x70CC JUMP JUMPDEST DUP10 PUSH2 0x7AAC JUMP JUMPDEST DUP1 SWAP3 DUP6 GT PUSH1 0x1 EQ PUSH2 0x8A87 JUMPI POP SWAP4 DUP4 SWAP5 SWAP2 DUP5 SWAP3 PUSH1 0x0 SWAP6 PUSH2 0x8A7C JUMPI JUMPDEST POP POP SHL SWAP3 PUSH1 0x0 NOT SWAP2 SHL SHR NOT AND OR SWAP1 SSTORE JUMP JUMPDEST ADD MLOAD SWAP4 POP CODESIZE DUP1 PUSH2 0x8A6B JUMP JUMPDEST SWAP3 SWAP2 SWAP1 DUP5 PUSH1 0x1F NOT DUP2 AND DUP9 PUSH1 0x0 MSTORE DUP6 PUSH1 0x0 KECCAK256 SWAP6 PUSH1 0x0 SWAP1 JUMPDEST DUP10 DUP4 DUP4 LT PUSH2 0x8AD3 JUMPI POP POP POP LT PUSH2 0x8AB9 JUMPI JUMPDEST POP POP POP POP DUP2 SHL ADD SWAP1 SSTORE JUMP JUMPDEST ADD MLOAD SWAP1 PUSH1 0xF8 DUP5 PUSH1 0x0 NOT SWAP3 SHL AND SHR NOT AND SWAP1 SSTORE CODESIZE DUP1 DUP1 DUP1 PUSH2 0x8AAE JUMP JUMPDEST DUP6 DUP8 ADD MLOAD DUP10 SSTORE SWAP1 SWAP8 ADD SWAP7 SWAP5 DUP6 ADD SWAP5 DUP9 SWAP4 POP SWAP1 DUP2 ADD SWAP1 PUSH2 0x8A9D JUMP JUMPDEST PUSH1 0x41 SWAP1 PUSH4 0x4E487B71 PUSH1 0xE0 SHL PUSH1 0x0 MSTORE MSTORE PUSH1 0x24 PUSH1 0x0 REVERT JUMPDEST ADD MLOAD SWAP1 POP CODESIZE DUP1 PUSH2 0x8A1C JUMP JUMPDEST DUP11 SWAP3 SWAP2 PUSH1 0x1F NOT DUP4 AND SWAP2 DUP6 PUSH1 0x0 MSTORE DUP8 PUSH1 0x0 KECCAK256 SWAP3 PUSH1 0x0 JUMPDEST DUP10 DUP3 DUP3 LT PUSH2 0x8B64 JUMPI POP POP SWAP2 PUSH1 0xE0 SWAP8 SWAP6 SWAP4 SWAP2 DUP6 PUSH1 0xD SWAP9 SWAP7 SWAP5 LT PUSH2 0x8B4C JUMPI JUMPDEST POP POP POP DUP2 SHL ADD SWAP1 SSTORE PUSH2 0x8A2E JUMP JUMPDEST ADD MLOAD PUSH1 0x0 NOT DUP4 DUP14 SHL PUSH1 0xF8 AND SHR NOT AND SWAP1 SSTORE CODESIZE DUP1 DUP1 PUSH2 0x8B3F JUMP JUMPDEST DUP4 DUP6 ADD MLOAD DUP7 SSTORE DUP16 SWAP8 SWAP1 SWAP6 ADD SWAP5 SWAP4 DUP5 ADD SWAP4 ADD PUSH2 0x8B22 JUMP JUMPDEST PUSH1 0x41 DUP7 PUSH4 0x4E487B71 PUSH1 0xE0 SHL PUSH1 0x0 MSTORE MSTORE PUSH1 0x24 PUSH1 0x0 REVERT JUMPDEST ADD MLOAD SWAP1 POP CODESIZE DUP1 PUSH2 0x89CB JUMP JUMPDEST SWAP1 DUP12 SWAP4 POP PUSH1 0x1F NOT DUP4 AND SWAP2 DUP6 PUSH1 0x0 MSTORE DUP8 PUSH1 0x0 KECCAK256 SWAP3 PUSH1 0x0 JUMPDEST DUP10 DUP3 DUP3 LT PUSH2 0x8BE6 JUMPI POP POP DUP5 GT PUSH2 0x8BCE JUMPI JUMPDEST POP POP POP DUP2 SHL ADD SWAP1 SSTORE PUSH2 0x89DD JUMP JUMPDEST ADD MLOAD PUSH1 0x0 NOT DUP4 DUP12 SHL PUSH1 0xF8 AND SHR NOT AND SWAP1 SSTORE CODESIZE DUP1 DUP1 PUSH2 0x8BC1 JUMP JUMPDEST DUP4 DUP6 ADD MLOAD DUP7 SSTORE DUP16 SWAP8 SWAP1 SWAP6 ADD SWAP5 SWAP4 DUP5 ADD SWAP4 ADD PUSH2 0x8BB0 JUMP JUMPDEST ADD MLOAD SWAP1 POP CODESIZE DUP1 PUSH2 0x8982 JUMP JUMPDEST SWAP1 DUP12 SWAP4 POP PUSH1 0x1F NOT DUP4 AND SWAP2 DUP6 PUSH1 0x0 MSTORE DUP8 PUSH1 0x0 KECCAK256 SWAP3 PUSH1 0x0 JUMPDEST DUP10 DUP3 DUP3 LT PUSH2 0x8C53 JUMPI POP POP DUP5 GT PUSH2 0x8C3B JUMPI JUMPDEST POP POP POP DUP2 SHL ADD SWAP1 SSTORE PUSH2 0x8994 JUMP JUMPDEST ADD MLOAD PUSH1 0x0 NOT DUP4 DUP12 SHL PUSH1 0xF8 AND SHR NOT AND SWAP1 SSTORE CODESIZE DUP1 DUP1 PUSH2 0x8C2E JUMP JUMPDEST DUP4 DUP6 ADD MLOAD DUP7 SSTORE DUP16 SWAP8 SWAP1 SWAP6 ADD SWAP5 SWAP4 DUP5 ADD SWAP4 ADD PUSH2 0x8C1D JUMP JUMPDEST ADD MLOAD SWAP1 POP CODESIZE DUP1 PUSH2 0x8939 JUMP JUMPDEST SWAP1 DUP12 SWAP4 POP PUSH1 0x1F NOT DUP4 AND SWAP2 DUP6 PUSH1 0x0 MSTORE DUP8 PUSH1 0x0 KECCAK256 SWAP3 PUSH1 0x0 JUMPDEST DUP10 DUP3 DUP3 LT PUSH2 0x8CC0 JUMPI POP POP DUP5 GT PUSH2 0x8CA8 JUMPI JUMPDEST POP POP POP DUP2 SHL ADD SWAP1 SSTORE PUSH2 0x894B JUMP JUMPDEST ADD MLOAD PUSH1 0x0 NOT DUP4 DUP12 SHL PUSH1 0xF8 AND SHR NOT AND SWAP1 SSTORE CODESIZE DUP1 DUP1 PUSH2 0x8C9B JUMP JUMPDEST DUP4 DUP6 ADD MLOAD DUP7 SSTORE DUP16 SWAP8 SWAP1 SWAP6 ADD SWAP5 SWAP4 DUP5 ADD SWAP4 ADD PUSH2 0x8C8A JUMP JUMPDEST ADD MLOAD SWAP1 POP CODESIZE DUP1 PUSH2 0x88F0 JUMP JUMPDEST SWAP1 DUP12 SWAP4 POP PUSH1 0x1F NOT DUP4 AND SWAP2 DUP6 PUSH1 0x0 MSTORE DUP8 PUSH1 0x0 KECCAK256 SWAP3 PUSH1 0x0 JUMPDEST DUP10 DUP3 DUP3 LT PUSH2 0x8D2D JUMPI POP POP DUP5 GT PUSH2 0x8D15 JUMPI JUMPDEST POP POP POP DUP2 SHL ADD SWAP1 SSTORE PUSH2 0x8902 JUMP JUMPDEST ADD MLOAD PUSH1 0x0 NOT DUP4 DUP12 SHL PUSH1 0xF8 AND SHR NOT AND SWAP1 SSTORE CODESIZE DUP1 DUP1 PUSH2 0x8D08 JUMP JUMPDEST DUP4 DUP6 ADD MLOAD DUP7 SSTORE DUP16 SWAP8 SWAP1 SWAP6 ADD SWAP5 SWAP4 DUP5 ADD SWAP4 ADD PUSH2 0x8CF7 JUMP JUMPDEST ADD MLOAD SWAP1 POP CODESIZE DUP1 PUSH2 0x88A7 JUMP JUMPDEST SWAP1 DUP12 SWAP4 POP PUSH1 0x1F NOT DUP4 AND SWAP2 DUP6 PUSH1 0x0 MSTORE DUP8 PUSH1 0x0 KECCAK256 SWAP3 PUSH1 0x0 JUMPDEST DUP10 DUP3 DUP3 LT PUSH2 0x8D9A JUMPI POP POP DUP5 GT PUSH2 0x8D82 JUMPI JUMPDEST POP POP POP DUP2 SHL ADD SWAP1 SSTORE PUSH2 0x88B9 JUMP JUMPDEST ADD MLOAD PUSH1 0x0 NOT DUP4 DUP12 SHL PUSH1 0xF8 AND SHR NOT AND SWAP1 SSTORE CODESIZE DUP1 DUP1 PUSH2 0x8D75 JUMP JUMPDEST DUP4 DUP6 ADD MLOAD DUP7 SSTORE DUP16 SWAP8 SWAP1 SWAP6 ADD SWAP5 SWAP4 DUP5 ADD SWAP4 ADD PUSH2 0x8D64 JUMP JUMPDEST ADD MLOAD SWAP1 POP CODESIZE DUP1 PUSH2 0x885F JUMP JUMPDEST SWAP1 DUP12 SWAP4 POP PUSH1 0x1F NOT DUP4 AND SWAP2 DUP6 PUSH1 0x0 MSTORE DUP8 PUSH1 0x0 KECCAK256 SWAP3 PUSH1 0x0 JUMPDEST DUP10 DUP3 DUP3 LT PUSH2 0x8E07 JUMPI POP POP DUP5 GT PUSH2 0x8DEF JUMPI JUMPDEST POP POP POP DUP2 SHL ADD SWAP1 SSTORE PUSH2 0x8871 JUMP JUMPDEST ADD MLOAD PUSH1 0x0 NOT DUP4 DUP12 SHL PUSH1 0xF8 AND SHR NOT AND SWAP1 SSTORE CODESIZE DUP1 DUP1 PUSH2 0x8DE2 JUMP JUMPDEST DUP4 DUP6 ADD MLOAD DUP7 SSTORE DUP16 SWAP8 SWAP1 SWAP6 ADD SWAP5 SWAP4 DUP5 ADD SWAP4 ADD PUSH2 0x8DD1 JUMP JUMPDEST PUSH1 0x41 DUP6 PUSH4 0x4E487B71 PUSH1 0xE0 SHL PUSH1 0x0 MSTORE MSTORE PUSH1 0x24 PUSH1 0x0 REVERT JUMPDEST PUSH4 0x4E487B71 PUSH1 0xE0 SHL PUSH1 0x0 MSTORE PUSH1 0x0 PUSH1 0x4 MSTORE PUSH1 0x24 PUSH1 0x0 REVERT JUMPDEST ISZERO PUSH2 0x8E4F JUMPI JUMP JUMPDEST PUSH1 0x40 MLOAD PUSH3 0x461BCD PUSH1 0xE5 SHL DUP2 MSTORE PUSH1 0x20 PUSH1 0x4 DUP3 ADD MSTORE PUSH1 0x25 PUSH1 0x24 DUP3 ADD MSTORE PUSH32 0x4F6E6C792076657269666965642073656C6C6572206F72206F776E657220616C PUSH1 0x44 DUP3 ADD MSTORE PUSH5 0x1B1BDDD959 PUSH1 0xDA SHL PUSH1 0x64 DUP3 ADD MSTORE PUSH1 0x84 SWAP1 REVERT JUMPDEST PUSH1 0x0 DUP1 SLOAD SWAP1 SWAP4 SWAP3 SWAP2 SWAP1 PUSH1 0x1 PUSH1 0x1 PUSH1 0xA0 SHL SUB SWAP1 DUP2 AND CALLER EQ PUSH2 0x8F85 JUMPI CALLER DUP6 MSTORE PUSH1 0x1E PUSH1 0x20 MSTORE PUSH1 0x40 DUP6 KECCAK256 SLOAD DUP2 AND SWAP1 DUP2 ISZERO PUSH2 0x8F2F JUMPI DUP2 DUP7 MSTORE PUSH1 0x12 PUSH1 0x20 MSTORE PUSH1 0xFF PUSH1 0x40 DUP8 KECCAK256 SLOAD AND PUSH1 0x4 DUP2 LT ISZERO PUSH2 0x8F1B JUMPI SWAP2 PUSH2 0x7AE7 SWAP6 SWAP7 SWAP2 PUSH1 0x2 PUSH2 0x8F09 SWAP5 EQ SWAP3 DUP4 ISZERO PUSH2 0x8F0E JUMPI JUMPDEST POP POP POP PUSH2 0x8E48 JUMP JUMPDEST PUSH2 0x8F8D JUMP JUMPDEST SLOAD AND EQ SWAP1 POP CODESIZE DUP1 DUP1 PUSH2 0x8F01 JUMP JUMPDEST PUSH4 0x4E487B71 PUSH1 0xE0 SHL DUP8 MSTORE PUSH1 0x21 PUSH1 0x4 MSTORE PUSH1 0x24 DUP8 REVERT JUMPDEST SWAP1 POP PUSH1 0x12 PUSH1 0x20 MSTORE PUSH1 0xFF PUSH1 0x40 DUP7 KECCAK256 SLOAD AND PUSH1 0x4 DUP2 LT ISZERO PUSH2 0x8F71 JUMPI SWAP5 PUSH2 0x8F09 SWAP2 PUSH1 0x2 PUSH2 0x7AE7 SWAP7 SWAP8 EQ SWAP2 DUP3 ISZERO PUSH2 0x8F63 JUMPI JUMPDEST POP POP PUSH2 0x8E48 JUMP JUMPDEST SWAP1 SWAP2 POP SLOAD AND CALLER EQ CODESIZE DUP1 PUSH2 0x8F5C JUMP JUMPDEST PUSH4 0x4E487B71 PUSH1 0xE0 SHL DUP7 MSTORE PUSH1 0x21 PUSH1 0x4 MSTORE PUSH1 0x24 DUP7 REVERT JUMPDEST POP PUSH2 0x7AE7 SWAP3 SWAP4 POP JUMPDEST PUSH1 0x0 SWAP2 DUP3 JUMPDEST PUSH1 0x1 DUP1 PUSH1 0xA0 SHL SUB DUP1 DUP4 AND DUP1 PUSH1 0x0 MSTORE PUSH1 0x1B PUSH1 0x20 DUP2 DUP2 MSTORE PUSH1 0x40 SWAP3 DUP4 PUSH1 0x0 KECCAK256 DUP1 SLOAD DUP8 LT ISZERO PUSH2 0x923A JUMPI PUSH2 0x8FC2 DUP8 DUP11 SWAP3 PUSH2 0x73A7 JUMP JUMPDEST POP SLOAD EQ PUSH2 0x8FDC JUMPI POP POP POP POP POP PUSH2 0x8FD7 SWAP1 PUSH2 0x847C JUMP JUMPDEST PUSH2 0x8F92 JUMP JUMPDEST DUP1 SWAP2 SWAP3 SWAP4 SWAP5 SWAP7 SWAP8 SWAP9 POP PUSH1 0x0 MSTORE DUP3 DUP3 MSTORE PUSH2 0x8FF8 DUP6 DUP6 PUSH1 0x0 KECCAK256 PUSH2 0x73A7 JUMP JUMPDEST POP SWAP6 PUSH1 0xFF PUSH1 0x5 DUP1 SWAP9 ADD SLOAD PUSH1 0xA0 SHR AND PUSH2 0x91FA JUMPI DUP2 PUSH1 0x0 MSTORE DUP4 DUP4 MSTORE DUP1 DUP8 PUSH2 0x9020 DUP9 DUP9 PUSH1 0x0 KECCAK256 PUSH2 0x73A7 JUMP JUMPDEST POP ADD SLOAD AND CALLER EQ SWAP1 DUP2 ISZERO PUSH2 0x91EC JUMPI JUMPDEST POP ISZERO PUSH2 0x9195 JUMPI SWAP1 PUSH2 0x9048 SWAP5 SWAP4 SWAP3 SWAP2 PUSH1 0x0 MSTORE MSTORE PUSH1 0x0 KECCAK256 PUSH2 0x73A7 JUMP JUMPDEST POP ADD DUP1 SLOAD PUSH1 0xFF PUSH1 0xA0 SHL NOT AND PUSH1 0x1 PUSH1 0xA0 SHL OR SWAP1 SSTORE PUSH1 0x1 JUMPDEST ISZERO PUSH2 0x915B JUMPI DUP2 PUSH1 0x0 MSTORE PUSH1 0x20 SWAP2 PUSH1 0x15 DUP4 MSTORE PUSH1 0x1 DUP1 PUSH1 0xA0 SHL SUB SWAP3 PUSH1 0x1 SWAP4 DUP5 SWAP4 PUSH1 0x40 DUP3 DUP7 DUP3 PUSH1 0x0 KECCAK256 ADD SLOAD AND DUP7 PUSH1 0x0 SWAP1 JUMPDEST PUSH2 0x90AD JUMPI JUMPDEST POP POP PUSH1 0x0 DUP1 MLOAD PUSH1 0x20 PUSH2 0x931D DUP4 CODECOPY DUP2 MLOAD SWAP2 MSTORE SWAP5 SWAP6 POP MLOAD SWAP6 DUP7 MSTORE AND SWAP4 LOG3 JUMP JUMPDEST DUP2 PUSH1 0x0 MSTORE PUSH1 0x1C DUP1 DUP8 MSTORE DUP4 PUSH1 0x0 KECCAK256 DUP1 SLOAD DUP4 LT ISZERO PUSH2 0x9154 JUMPI PUSH2 0x90CE DUP4 DUP11 SWAP3 PUSH2 0x73A7 JUMP JUMPDEST POP SLOAD EQ DUP1 PUSH2 0x912F JUMPI JUMPDEST PUSH2 0x90EB JUMPI POP PUSH2 0x90E5 SWAP1 PUSH2 0x847C JUMP JUMPDEST DUP8 PUSH2 0x908B JUMP JUMPDEST PUSH1 0x0 DUP1 MLOAD PUSH1 0x20 PUSH2 0x931D DUP4 CODECOPY DUP2 MLOAD SWAP2 MSTORE SWAP8 SWAP9 POP SWAP1 PUSH2 0x9113 SWAP2 PUSH1 0x5 SWAP4 PUSH1 0x0 MSTORE DUP8 MSTORE DUP4 PUSH1 0x0 KECCAK256 PUSH2 0x73A7 JUMP JUMPDEST POP ADD DUP1 SLOAD PUSH1 0xFF PUSH1 0xA0 SHL NOT AND PUSH1 0x1 PUSH1 0xA0 SHL OR SWAP1 SSTORE DUP7 SWAP6 SWAP5 CODESIZE PUSH2 0x9090 JUMP JUMPDEST POP DUP3 PUSH1 0x0 MSTORE DUP1 DUP8 MSTORE DUP6 PUSH1 0x4 PUSH2 0x9147 DUP5 DUP8 PUSH1 0x0 KECCAK256 PUSH2 0x73A7 JUMP JUMPDEST POP ADD SLOAD AND DUP7 DUP7 AND EQ PUSH2 0x90D7 JUMP JUMPDEST POP POP PUSH2 0x9090 JUMP JUMPDEST PUSH1 0x40 MLOAD PUSH3 0x461BCD PUSH1 0xE5 SHL DUP2 MSTORE PUSH1 0x20 PUSH1 0x4 DUP3 ADD MSTORE PUSH1 0x12 PUSH1 0x24 DUP3 ADD MSTORE PUSH18 0x141D5C98DA185CD9481B9BDD08199BDD5B99 PUSH1 0x72 SHL PUSH1 0x44 DUP3 ADD MSTORE PUSH1 0x64 SWAP1 REVERT JUMPDEST DUP4 MLOAD PUSH3 0x461BCD PUSH1 0xE5 SHL DUP2 MSTORE PUSH1 0x4 DUP2 ADD DUP4 SWAP1 MSTORE PUSH1 0x2A PUSH1 0x24 DUP3 ADD MSTORE PUSH32 0x4F6E6C792073656C6C6572206F72206F776E65722063616E206D61726B206173 PUSH1 0x44 DUP3 ADD MSTORE PUSH10 0x819195B1A5D995C9959 PUSH1 0xB2 SHL PUSH1 0x64 DUP3 ADD MSTORE PUSH1 0x84 SWAP1 REVERT JUMPDEST PUSH1 0x0 SLOAD AND CALLER EQ SWAP1 POP CODESIZE PUSH2 0x902E JUMP JUMPDEST PUSH1 0x64 DUP4 DUP6 DUP8 MLOAD SWAP2 PUSH3 0x461BCD PUSH1 0xE5 SHL DUP4 MSTORE PUSH1 0x4 DUP4 ADD MSTORE PUSH1 0x24 DUP3 ADD MSTORE PUSH27 0x105B1C9958591E481B585C9AD95908185CC819195B1A5D995C9959 PUSH1 0x2A SHL PUSH1 0x44 DUP3 ADD MSTORE REVERT JUMPDEST POP POP POP POP POP POP POP SWAP1 SWAP2 PUSH2 0x905E JUMP JUMPDEST PUSH1 0x0 SWAP2 DUP3 SWAP2 DUP3 SWAP2 DUP3 SWAP2 PUSH1 0x1 PUSH1 0x1 PUSH1 0xA0 SHL SUB AND PUSH2 0x9265 DUP2 ISZERO ISZERO PUSH2 0x7A14 JUMP JUMPDEST GAS CALL PUSH2 0x926F PUSH2 0x78E5 JUMP JUMPDEST POP ISZERO PUSH2 0x9277 JUMPI JUMP JUMPDEST PUSH1 0x40 MLOAD PUSH3 0x461BCD PUSH1 0xE5 SHL DUP2 MSTORE PUSH1 0x20 PUSH1 0x4 DUP3 ADD MSTORE PUSH1 0xF PUSH1 0x24 DUP3 ADD MSTORE PUSH15 0x151C985B9CD9995C8819985A5B1959 PUSH1 0x8A SHL PUSH1 0x44 DUP3 ADD MSTORE PUSH1 0x64 SWAP1 REVERT JUMPDEST PUSH1 0x0 SWAP1 PUSH1 0xE DUP1 SLOAD SWAP3 JUMPDEST DUP4 DUP2 LT PUSH2 0x92C7 JUMPI POP POP POP POP PUSH1 0x0 SWAP1 JUMP JUMPDEST PUSH1 0x0 DUP3 DUP2 MSTORE PUSH1 0x20 SWAP1 KECCAK256 DUP2 ADD SLOAD PUSH1 0x1 PUSH1 0x1 PUSH1 0xA0 SHL SUB DUP5 DUP2 AND SWAP2 AND EQ PUSH2 0x92F3 JUMPI PUSH2 0x92EE SWAP1 PUSH2 0x847C JUMP JUMPDEST PUSH2 0x92B7 JUMP JUMPDEST POP POP POP POP PUSH1 0x1 SWAP1 JUMP INVALID ORIGIN 0xB4 0x49 ADDRESS DUP13 SWAP5 0xE8 0x24 0xCC 0xED 0xD9 DUP8 PUSH26 0x32CD82F89A481C06C4643A0CB2914454A8C582F9DC8543B583E0 0x1F MSIZE 0x26 PUSH25 0x422369B2777E3649761F5808AE432CB1C24CA9438C79D3150B OR PUSH1 0xCD CODECOPY 0x1F POP MOD 0xC9 SLOAD GASPRICE 0xEA ADDMOD DUP15 0x4C SWAP1 PUSH1 0xF3 0xE5 DUP3 0xEA EXP SWAP5 DUP14 0xC6 PUSH5 0x9B25DA8BE0 SMOD SWAP13 MSTORE8 AND MSIZE EQ SGT DIFFICULTY 0xCD 0x1F 0xD0 LOG4 CALLCODE DUP5 NOT 0x49 PUSH32 0x9722A3DAAFE3B4186F6B6457E0D8F7BCB2C5CFFC294A0AAEF719685993D7BE95 0x27 EXTCODEHASH 0xB8 0x25 BASEFEE SUB LOG1 JUMP CALLDATALOAD LT 0xCC 0xEF 0xED 0xDD CALLCODE MSTORE 0xAD SHL 0xE2 0xC8 SWAP12 PUSH10 0xC2B068FC378DAA952BA7 CALL PUSH4 0xC4A11628 CREATE2 GAS 0x4D CREATE2 0x23 0xB3 0xEF GAS DUP11 SWAP9 SWAP15 SLT RETURN 0xCE PUSH29 0xF805B73156A361DA5D8369F0C37173209308910B322117AC4CFCA63969 0x23 0xC3 0xEE 0xE6 DUP12 0xE5 DUP11 LOG3 0x5F 0xD6 PUSH3 0x3AE5D6 PUSH28 0xB552DA5E1DE2E0D5854166DC8D1108E10BCB7C27DDDFC02ED9D693A0 PUSH21 0x39D026CF4EA4240B40F7D581AC802A164736F6C63 NUMBER STOP ADDMOD SGT STOP EXP "},"methodIdentifiers":{"adminImpersonating(address)":"b95a0628","approve(address,uint256)":"095ea7b3","balanceOf(address)":"70a08231","buyProduct(uint256,(string,string,string,string,string,string,string,string))":"661e1712","buyerPurchaseHistory(address,uint256)":"9fa44dbf","changeServicePct(uint256)":"5be20959","createCategory(string)":"dc298682","createProduct((string,string,uint256,uint256,string[],string[],string[],uint256,uint256,uint256,string,string,uint256))":"e40971e5","createReview(uint256,uint256,string)":"16d81b38","createSubCategoriesBulk(uint256,string[])":"d2bc9d78","createSubCategory(uint256,string)":"7d3978db","deleteCategory(uint256)":"ceca737f","deleteProduct(uint256)":"ed90c7b7","deleteReview(uint256,uint256)":"24d41a03","deleteSubCategory(uint256)":"17e98548","getAllCategories()":"dadd0a57","getAllProducts()":"02ee3a52","getAllRegisteredSellers()":"5ad6a580","getApproved(uint256)":"081812fc","getBuyerPurchaseHistory(address)":"b27e1697","getCategory(uint256)":"f3052d26","getMyProducts()":"fdca4ca3","getProduct(uint256)":"b9db15b4","getProductsByCategory(string)":"8f38cc7b","getReviews(uint256)":"9d4a2255","getSeller(address)":"a323d29e","getSellerBalance(address)":"2148893f","getSellerProducts(address)":"e6a93e16","getSellerProfile(address)":"4293e5ce","getSellerPurchaseHistory(address)":"3c2575d5","getSellerStatus(address)":"eb11c434","getSubCategory(uint256)":"6f2c8599","getUser(address)":"6f77926b","impersonateAccount(address)":"a22fb387","isApprovedForAll(address,address)":"e985e9c5","markPurchaseDelivered(uint256,address)":"11aa5b34","name()":"06fdde03","owner()":"8da5cb5b","ownerOf(uint256)":"6352211e","productExists(uint256)":"af55ed64","products(uint256)":"7acc0b20","registerSeller(string,string,string,string,string)":"7e8555ed","registerUser(string,string,string)":"d637dcfa","registeredSellers(address)":"c64b8a8f","registeredUsers(address)":"0e50cee5","renounceOwnership()":"715018a6","reviewExists(uint256)":"00d64e76","safeTransferFrom(address,address,uint256)":"42842e0e","safeTransferFrom(address,address,uint256,bytes)":"b88d4fde","sellerBalances(address)":"607eb4e4","sellerProducts(address,uint256)":"c1302b34","sellerProfiles(address)":"9196dfcb","sellerPurchaseHistory(address,uint256)":"e585cb2c","sellerStatus(address)":"45de84db","servicePct()":"e01ef6e6","setApprovalForAll(address,bool)":"a22cb465","stopImpersonating()":"1385fd92","supportsInterface(bytes4)":"01ffc9a7","symbol()":"95d89b41","tokenURI(uint256)":"c87b56dd","transferFrom(address,address,uint256)":"23b872dd","transferOwnership(address)":"f2fde38b","updateCategory(uint256,string,bool)":"66224d8e","updateProduct(uint256,(string,string,uint256,uint256,string[],string[],string[],uint256,uint256,uint256,string,string,uint256))":"868a5461","updateSellerStatus(address,uint8)":"97b6f393","updateSubCategory(uint256,string,bool)":"317a0827","userProfiles(address)":"332d56d7","usersList(uint256)":"502aa3b5","withdraw()":"3ccfd60b"}}}}}