{"contracts/management/ProductManager.sol":{"ProductManager":{"abi":[{"anonymous":false,"inputs":[{"indexed":true,"internalType":"address","name":"previousOwner","type":"address"},{"indexed":true,"internalType":"address","name":"newOwner","type":"address"}],"name":"OwnershipTransferred","type":"event"},{"anonymous":false,"inputs":[{"indexed":true,"internalType":"uint256","name":"id","type":"uint256"},{"indexed":true,"internalType":"address","name":"seller","type":"address"}],"name":"ProductCreated","type":"event"},{"anonymous":false,"inputs":[{"indexed":true,"internalType":"uint256","name":"id","type":"uint256"}],"name":"ProductDeleted","type":"event"},{"anonymous":false,"inputs":[{"indexed":true,"internalType":"uint256","name":"id","type":"uint256"}],"name":"ProductUpdated","type":"event"},{"anonymous":false,"inputs":[{"indexed":true,"internalType":"uint256","name":"productId","type":"uint256"},{"indexed":false,"internalType":"uint256","name":"newStock","type":"uint256"}],"name":"StockUpdated","type":"event"},{"inputs":[{"components":[{"internalType":"string","name":"name","type":"string"},{"internalType":"string","name":"description","type":"string"},{"internalType":"uint256","name":"price","type":"uint256"},{"internalType":"uint256","name":"stock","type":"uint256"},{"internalType":"string[]","name":"colors","type":"string[]"},{"internalType":"string[]","name":"sizes","type":"string[]"},{"internalType":"string[]","name":"images","type":"string[]"},{"internalType":"string","name":"category","type":"string"},{"internalType":"string","name":"subCategory","type":"string"},{"internalType":"uint256","name":"weight","type":"uint256"},{"internalType":"string","name":"model","type":"string"},{"internalType":"string","name":"brand","type":"string"},{"internalType":"uint256","name":"sku","type":"uint256"}],"internalType":"struct IHemShop.ProductInput","name":"input","type":"tuple"}],"name":"createProduct","outputs":[{"internalType":"uint256","name":"","type":"uint256"}],"stateMutability":"nonpayable","type":"function"},{"inputs":[{"internalType":"uint256","name":"productId","type":"uint256"}],"name":"deleteProduct","outputs":[],"stateMutability":"nonpayable","type":"function"},{"inputs":[],"name":"getAllProducts","outputs":[{"components":[{"internalType":"uint256","name":"id","type":"uint256"},{"internalType":"address","name":"seller","type":"address"},{"internalType":"string","name":"name","type":"string"},{"internalType":"string","name":"description","type":"string"},{"internalType":"uint256","name":"price","type":"uint256"},{"internalType":"uint256","name":"stock","type":"uint256"},{"internalType":"string[]","name":"colors","type":"string[]"},{"internalType":"string[]","name":"sizes","type":"string[]"},{"internalType":"string[]","name":"images","type":"string[]"},{"internalType":"string","name":"category","type":"string"},{"internalType":"string","name":"subCategory","type":"string"},{"internalType":"uint256","name":"weight","type":"uint256"},{"internalType":"string","name":"model","type":"string"},{"internalType":"string","name":"brand","type":"string"},{"internalType":"uint256","name":"sku","type":"uint256"},{"internalType":"bool","name":"soldout","type":"bool"},{"internalType":"bool","name":"deleted","type":"bool"}],"internalType":"struct ProductManager.ProductStruct[]","name":"","type":"tuple[]"}],"stateMutability":"view","type":"function"},{"inputs":[],"name":"getMyProducts","outputs":[{"components":[{"internalType":"uint256","name":"id","type":"uint256"},{"internalType":"address","name":"seller","type":"address"},{"internalType":"string","name":"name","type":"string"},{"internalType":"string","name":"description","type":"string"},{"internalType":"uint256","name":"price","type":"uint256"},{"internalType":"uint256","name":"stock","type":"uint256"},{"internalType":"string[]","name":"colors","type":"string[]"},{"internalType":"string[]","name":"sizes","type":"string[]"},{"internalType":"string[]","name":"images","type":"string[]"},{"internalType":"string","name":"category","type":"string"},{"internalType":"string","name":"subCategory","type":"string"},{"internalType":"uint256","name":"weight","type":"uint256"},{"internalType":"string","name":"model","type":"string"},{"internalType":"string","name":"brand","type":"string"},{"internalType":"uint256","name":"sku","type":"uint256"},{"internalType":"bool","name":"soldout","type":"bool"},{"internalType":"bool","name":"deleted","type":"bool"}],"internalType":"struct ProductManager.ProductStruct[]","name":"","type":"tuple[]"}],"stateMutability":"view","type":"function"},{"inputs":[{"internalType":"uint256","name":"productId","type":"uint256"}],"name":"getProduct","outputs":[{"components":[{"internalType":"uint256","name":"id","type":"uint256"},{"internalType":"address","name":"seller","type":"address"},{"internalType":"string","name":"name","type":"string"},{"internalType":"string","name":"description","type":"string"},{"internalType":"uint256","name":"price","type":"uint256"},{"internalType":"uint256","name":"stock","type":"uint256"},{"internalType":"string[]","name":"colors","type":"string[]"},{"internalType":"string[]","name":"sizes","type":"string[]"},{"internalType":"string[]","name":"images","type":"string[]"},{"internalType":"string","name":"category","type":"string"},{"internalType":"string","name":"subCategory","type":"string"},{"internalType":"uint256","name":"weight","type":"uint256"},{"internalType":"string","name":"model","type":"string"},{"internalType":"string","name":"brand","type":"string"},{"internalType":"uint256","name":"sku","type":"uint256"},{"internalType":"bool","name":"soldout","type":"bool"},{"internalType":"bool","name":"deleted","type":"bool"}],"internalType":"struct ProductManager.ProductStruct","name":"","type":"tuple"}],"stateMutability":"view","type":"function"},{"inputs":[{"internalType":"string","name":"categoryName","type":"string"}],"name":"getProductsByCategory","outputs":[{"components":[{"internalType":"uint256","name":"id","type":"uint256"},{"internalType":"address","name":"seller","type":"address"},{"internalType":"string","name":"name","type":"string"},{"internalType":"string","name":"description","type":"string"},{"internalType":"uint256","name":"price","type":"uint256"},{"internalType":"uint256","name":"stock","type":"uint256"},{"internalType":"string[]","name":"colors","type":"string[]"},{"internalType":"string[]","name":"sizes","type":"string[]"},{"internalType":"string[]","name":"images","type":"string[]"},{"internalType":"string","name":"category","type":"string"},{"internalType":"string","name":"subCategory","type":"string"},{"internalType":"uint256","name":"weight","type":"uint256"},{"internalType":"string","name":"model","type":"string"},{"internalType":"string","name":"brand","type":"string"},{"internalType":"uint256","name":"sku","type":"uint256"},{"internalType":"bool","name":"soldout","type":"bool"},{"internalType":"bool","name":"deleted","type":"bool"}],"internalType":"struct ProductManager.ProductStruct[]","name":"","type":"tuple[]"}],"stateMutability":"view","type":"function"},{"inputs":[{"internalType":"address","name":"seller","type":"address"}],"name":"getSellerProducts","outputs":[{"components":[{"internalType":"uint256","name":"id","type":"uint256"},{"internalType":"address","name":"seller","type":"address"},{"internalType":"string","name":"name","type":"string"},{"internalType":"string","name":"description","type":"string"},{"internalType":"uint256","name":"price","type":"uint256"},{"internalType":"uint256","name":"stock","type":"uint256"},{"internalType":"string[]","name":"colors","type":"string[]"},{"internalType":"string[]","name":"sizes","type":"string[]"},{"internalType":"string[]","name":"images","type":"string[]"},{"internalType":"string","name":"category","type":"string"},{"internalType":"string","name":"subCategory","type":"string"},{"internalType":"uint256","name":"weight","type":"uint256"},{"internalType":"string","name":"model","type":"string"},{"internalType":"string","name":"brand","type":"string"},{"internalType":"uint256","name":"sku","type":"uint256"},{"internalType":"bool","name":"soldout","type":"bool"},{"internalType":"bool","name":"deleted","type":"bool"}],"internalType":"struct ProductManager.ProductStruct[]","name":"","type":"tuple[]"}],"stateMutability":"view","type":"function"},{"inputs":[],"name":"getTotalProducts","outputs":[{"internalType":"uint256","name":"","type":"uint256"}],"stateMutability":"view","type":"function"},{"inputs":[],"name":"hemShop","outputs":[{"internalType":"address","name":"","type":"address"}],"stateMutability":"view","type":"function"},{"inputs":[],"name":"owner","outputs":[{"internalType":"address","name":"","type":"address"}],"stateMutability":"view","type":"function"},{"inputs":[{"internalType":"uint256","name":"","type":"uint256"}],"name":"productExists","outputs":[{"internalType":"bool","name":"","type":"bool"}],"stateMutability":"view","type":"function"},{"inputs":[{"internalType":"uint256","name":"","type":"uint256"}],"name":"products","outputs":[{"internalType":"uint256","name":"id","type":"uint256"},{"internalType":"address","name":"seller","type":"address"},{"internalType":"string","name":"name","type":"string"},{"internalType":"string","name":"description","type":"string"},{"internalType":"uint256","name":"price","type":"uint256"},{"internalType":"uint256","name":"stock","type":"uint256"},{"internalType":"string","name":"category","type":"string"},{"internalType":"string","name":"subCategory","type":"string"},{"internalType":"uint256","name":"weight","type":"uint256"},{"internalType":"string","name":"model","type":"string"},{"internalType":"string","name":"brand","type":"string"},{"internalType":"uint256","name":"sku","type":"uint256"},{"internalType":"bool","name":"soldout","type":"bool"},{"internalType":"bool","name":"deleted","type":"bool"}],"stateMutability":"view","type":"function"},{"inputs":[],"name":"renounceOwnership","outputs":[],"stateMutability":"nonpayable","type":"function"},{"inputs":[{"internalType":"address","name":"","type":"address"},{"internalType":"uint256","name":"","type":"uint256"}],"name":"sellerProducts","outputs":[{"internalType":"uint256","name":"","type":"uint256"}],"stateMutability":"view","type":"function"},{"inputs":[{"internalType":"address","name":"_hemShop","type":"address"}],"name":"setHemShop","outputs":[],"stateMutability":"nonpayable","type":"function"},{"inputs":[{"internalType":"address","name":"newOwner","type":"address"}],"name":"transferOwnership","outputs":[],"stateMutability":"nonpayable","type":"function"},{"inputs":[{"internalType":"uint256","name":"productId","type":"uint256"},{"components":[{"internalType":"string","name":"name","type":"string"},{"internalType":"string","name":"description","type":"string"},{"internalType":"uint256","name":"price","type":"uint256"},{"internalType":"uint256","name":"stock","type":"uint256"},{"internalType":"string[]","name":"colors","type":"string[]"},{"internalType":"string[]","name":"sizes","type":"string[]"},{"internalType":"string[]","name":"images","type":"string[]"},{"internalType":"string","name":"category","type":"string"},{"internalType":"string","name":"subCategory","type":"string"},{"internalType":"uint256","name":"weight","type":"uint256"},{"internalType":"string","name":"model","type":"string"},{"internalType":"string","name":"brand","type":"string"},{"internalType":"uint256","name":"sku","type":"uint256"}],"internalType":"struct IHemShop.ProductInput","name":"input","type":"tuple"}],"name":"updateProduct","outputs":[],"stateMutability":"nonpayable","type":"function"},{"inputs":[{"internalType":"uint256","name":"productId","type":"uint256"},{"internalType":"uint256","name":"quantity","type":"uint256"}],"name":"updateProductStock","outputs":[{"internalType":"bool","name":"","type":"bool"}],"stateMutability":"nonpayable","type":"function"}],"evm":{"bytecode":{"linkReferences":{},"object":"6080806040523461005b5760008054336001600160a01b0319821681178355916001600160a01b03909116907f8be0079c531659141344cd1fd0a4f28419497f9722a3daafe3b4186f6b6457e09080a361311490816100618239f35b600080fdfe610160604052600436101561001357600080fd5b60003560e01c806302ee3a521461275c578063570aea8a1461273e5780636f5927c014611aa4578063715018a614611a4b5780637acc0b201461189b5780638da5cb5b146118725780638f38cc7b1461164d578063af55ed641461161c578063b55cef3814610bdb578063b9db15b414610a2b578063c1302b34146109d3578063cc640d0114610946578063e6a93e16146106f3578063ed90c7b7146105c0578063f2fde38b146104fc578063f7ac228e146104d3578063fd2314111461034a5763fdca4ca3146100e357600080fd5b34610345576000366003190112610345576000805b336000526020600481526040600020805483101561015f578261011a91612caa565b919054600392831b1c6000525260ff600f6040600020015460081c161561014a575b6101459061306b565b6100f8565b906101576101459161306b565b91905061013c565b6101688461307a565b6000805b3360005260206004815260406000208054831015610333578261018e91612caa565b9054600391821b1c6000528082526040600020600f81015460ff9160088383821c161594856101cd575b505050505050506101c89061306b565b61016c565b61032696949261027a6101c8999a97959361021e610238600e956040519a6101f48c612bf3565b86548c5260018701546001600160a01b0316908c01526040516102258161021e8160028b01612b5d565b0382612c0f565b60408c0152604051928380928801612b5d565b606089015260048301546080890152600583015460a089015261025d60068401613006565b60c089015261026e60078401613006565b60e08901528201613006565b6101008701526040516102948161021e8160098601612b5d565b6101208701526040516102ae8161021e81600a8601612b5d565b610140870152600b8101546101608701526040516102d38161021e81600c8601612b5d565b6101808701526040516102ed8161021e81600d8601612b5d565b6101a087015201546101c08501521615156101e08301521561020082015261031582876130ca565b5261032081866130ca565b5061306b565b91908480808080806101b8565b604051806103418782612ac1565b0390f35b600080fd5b346103455760403660031901126103455760025460243590600435906001600160a01b0316330361049657806000526020916005835261039160ff60406000205416612f0b565b81600052600383526103b160ff600f6040600020015460081c1615612f4b565b8160005260038352806005604060002001541061045c57816000526003835260056040600020018054918203918211610446575580600052600382527febcfd4ce21b6aefd071d3e0f4bfa57e491b5308a1ffb5a3a8e4805e23f00b8d78260406000206005810154908115610432575b50604051908152a260405160018152f35b600f01805460ff1916600117905585610421565b634e487b7160e01b600052601160045260246000fd5b60405162461bcd60e51b8152600481018490526012602482015271496e73756666696369656e742073746f636b60701b6044820152606490fd5b60405162461bcd60e51b815260206004820152601560248201527413db9b1e4812195b54da1bdc0818d85b8818d85b1b605a1b6044820152606490fd5b34610345576000366003190112610345576002546040516001600160a01b039091168152602090f35b3461034557602036600319011261034557610515612c94565b61051d612cd8565b6001600160a01b0390811690811561056c57600054826001600160601b0360a01b821617600055167f8be0079c531659141344cd1fd0a4f28419497f9722a3daafe3b4186f6b6457e0600080a3005b60405162461bcd60e51b815260206004820152602660248201527f4f776e61626c653a206e6577206f776e657220697320746865207a65726f206160448201526564647265737360d01b6064820152608490fd5b3461034557602080600319360112610345576004359081600052600581526105ef60ff60406000205416612f0b565b6000828152600382526040902060010154336001600160a01b03918216149081156106e5575b50156106b057816000526003815260ff600f6040600020015460081c1661067a576003908260005252600f60406000200161010061ff00198254161790557fc341cf326465fe622f86c468249e8c0cb03ed23ba376a6a34863a1374ac7d769600080a2005b6064906040519062461bcd60e51b82526004820152600f60248201526e105b1c9958591e4819195b195d1959608a1b6044820152fd5b6064906040519062461bcd60e51b82526004820152600e60248201526d139bdd08185d5d1a1bdc9a5e995960921b6044820152fd5b600054163314905083610615565b34610345576020806003193601126103455761070d612c94565b60018054916001600160a01b0391908216906000905b848111156108ed57506107359061307a565b9360009160015b8581111561075257604051806103418982612ac1565b80600052600380845260406000208660018201541691848314806108db575b610787575b5050506107829061306b565b61073c565b9161078293969161021e6107d46108d295604051946107a586612bf3565b845486528a8601526040516107c18161021e8160028901612b5d565b6040860152604051928380928601612b5d565b606083015260048101546080830152600581015460a08301526107f960068201613006565b60c083015261080a60078201613006565b60e0830152600f60089161081f838201613006565b6101008501526040516108398161021e8160098601612b5d565b6101208501526040516108538161021e81600a8601612b5d565b610140850152600b8101546101608501526040516108788161021e81600c8601612b5d565b6101808501526040516108928161021e81600d8601612b5d565b6101a0850152600e8101546101c0850152015460ff9182821615156101e08501521c1615156102008201526108c7828b6130ca565b52610320818a6130ca565b93908880610776565b5060ff600f83015460081c1615610771565b806000526003865260406000208385600183015416149081610933575b5061091e575b6109199061306b565b610723565b9061092b6109199161306b565b919050610910565b60ff9150600f015460081c16158761090a565b346103455760203660031901126103455761095f612c94565b610967612cd8565b6001600160a01b0316801561098e576001600160601b0360a01b6002541617600255600080f35b60405162461bcd60e51b815260206004820152601760248201527f496e76616c69642048656d53686f7020616464726573730000000000000000006044820152606490fd5b34610345576040366003190112610345576109ec612c94565b6001600160a01b031660009081526004602052604090208054602435919082101561034557602091610a1d91612caa565b90546040519160031b1c8152f35b346103455760208060031936011261034557600435610a48612f89565b508060005260058252610a6260ff60406000205416612f0b565b8060005260038252610a8260ff600f6040600020015460081c1615612f4b565b6000526003815260406000209060ff600f60405193610aa085612bf3565b8054855260018101546001600160a01b031684860152604051610aca8161021e8160028601612b5d565b6040860152604051610ae38161021e8160038601612b5d565b606086015260048101546080860152600581015460a0860152610b0860068201613006565b60c0860152610b1960078201613006565b60e0860152610b2a60088201613006565b610100860152604051610b448161021e8160098601612b5d565b610120860152604051610b5e8161021e81600a8601612b5d565b610140860152600b810154610160860152604051610b838161021e81600c8601612b5d565b610180860152604051610b9d8161021e81600d8601612b5d565b6101a0860152600e8101546101c0860152015481811615156101e085015260081c161515610200830152610341604051928284938452830190612998565b3461034557600319604036820112610345576001600160401b0360243511610345576101a09060243536030112610345576004356000908152600360205260409020600101546001600160a01b031633036115de576004356000526005602052610c4c60ff60406000205416612f0b565b6004356000526003602052610c6f60ff600f6040600020015460081c1615612f4b565b610c7e60046024350180612d30565b60043560005260036020526002604060002001906001600160401b0381116110d657610cb481610cae8454612b23565b84612e34565b600092601f8211600114611575579281929360009261156a575b50508160011b916000199060031b1c19161790555b610cf66024803501602435600401612d30565b60043560005260036020526003604060002001906001600160401b0381116110d657610d2681610cae8454612b23565b6000601f8211600114611505578192936000926114fa575b50508160011b916000199060031b1c19161790555b600435600052600360205260406000206044602435013560048201556064602435013560058201556006610d91608460243501602435600401612d62565b9190920191610da08284612e7b565b60009283526020832090805b83851061141757610dc760a460243501602435600401612d62565b6004356000526003602052600760406000200191610de58284612e7b565b60009283526020832090805b83851061133457610e0c60c460243501602435600401612d62565b6004356000526003602052600860406000200191610e2a8284612e7b565b60009283526020832090805b83851061124b57610e5160e460243501602435600401612d30565b60043560005260036020526009604060002001906001600160401b0381116110d657610e8181610cae8454612b23565b600092601f82116001146111e257928192936000926111d7575b50508160011b916000199060031b1c19161790555b610ec561010460243501602435600401612d30565b6004356000526003602052600a604060002001906001600160401b0381116110d657610ef581610cae8454612b23565b6000601f821160011461117257819293600092611167575b50508160011b916000199060031b1c19161790555b600435600052600360205260406000206101246024350135600b820155610f5461014460243501602435600401612d30565b906001600160401b0382116110d657610f7d82610f74600c860154612b23565b600c8601612e34565b600090601f83116001146110f757600c9291600091836110ec575b50508160011b916000199060031b1c1916179101555b610fc361016460243501602435600401612d30565b6004356000526003602052600d604060002001906001600160401b0381116110d657610ff381610cae8454612b23565b6000601f821160011461107157819293600092611066575b50508160011b916000199060031b1c19161790555b60043560005260036020526101846024350135600e604060002001556004357feca6714fcf568fb34cf9db4a414cb0cc48e93c5d4e1ba0582a46ea3704cf24d5600080a2005b01359050838061100b565b601f198216938360005260206000209160005b8681106110be57508360019596106110a4575b505050811b019055611020565b0135600019600384901b60f8161c19169055838080611097565b90926020600181928686013581550194019101611084565b634e487b7160e01b600052604160045260246000fd5b013590508480610f98565b600c840160005260206000209160005b601f198516811061114f5750918391600193600c95601f19811610611135575b505050811b01910155610fae565b0135600019600384901b60f8161c19169055848080611127565b90926020600181928686013581550194019101611107565b013590508380610f0d565b601f198216938360005260206000209160005b8681106111bf57508360019596106111a5575b505050811b019055610f22565b0135600019600384901b60f8161c19169055838080611198565b90926020600181928686013581550194019101611185565b013590508380610e9b565b826000526020600020906000945b601f198416861061123357600194955083601f19811610611219575b505050811b019055610eb0565b0135600019600384901b60f8161c1916905583808061120c565b916020600181928585013581550193019501946111f0565b6112558183612d30565b906001600160401b0382116110d657611278826112728754612b23565b87612e34565b600090601f83116001146112c45792826001949360209386956000926112b9575b5050600019600383901b1c191690841b1786555b01930194019391610e36565b013590508a80611299565b8560005260206000209160005b601f198516811061131c575083602093600196938796938794601f19811610611302575b505050811b0186556112ad565b0135600019600384901b60f8161c191690558a80806112f5565b909260206001819286860135815501940191016112d1565b61133e8183612d30565b906001600160401b0382116110d65761135b826112728754612b23565b600090601f83116001146113a757928260019493602093869560009261139c575b5050600019600383901b1c191690841b1786555b01930194019391610df1565b013590508a8061137c565b8560005260206000209160005b601f19851681106113ff575083602093600196938796938794601f198116106113e5575b505050811b018655611390565b0135600019600384901b60f8161c191690558a80806113d8565b909260206001819286860135815501940191016113b4565b6114218183612d30565b906001600160401b0382116110d65761143e826112728754612b23565b600090601f831160011461148a57928260019493602093869560009261147f575b5050600019600383901b1c191690841b1786555b01930194019391610dac565b013590508a8061145f565b8560005260206000209160005b601f19851681106114e2575083602093600196938796938794601f198116106114c8575b505050811b018655611473565b0135600019600384901b60f8161c191690558a80806114bb565b90926020600181928686013581550194019101611497565b013590508380610d3e565b601f198216938360005260206000209160005b8681106115525750836001959610611538575b505050811b019055610d53565b0135600019600384901b60f8161c1916905583808061152b565b90926020600181928686013581550194019101611518565b013590508380610cce565b826000526020600020906000945b601f19841686106115c657600194955083601f198116106115ac575b505050811b019055610ce3565b0135600019600384901b60f8161c1916905583808061159f565b91602060018192858501358155019301950194611583565b60405162461bcd60e51b81526020600482015260166024820152754f6e6c792073656c6c65722063616e2075706461746560501b6044820152606490fd5b34610345576020366003190112610345576004356000526005602052602060ff604060002054166040519015158152f35b3461034557602080600319360112610345576004356001600160401b0381116103455761167e903690600401612c76565b90600090600192835492828201945b848111156117f6575061169f9061307a565b9360009160015b858111156116bc57604051806103418982612ac1565b806000526003808652600961021e6116e08260406000200160405192838092612b5d565b8781519101208451862014806117d9575b611706575b50506117019061306b565b6116a6565b946117d191839661170194600052818952600f604060002061021e61176e6040519561173187612bf3565b8354875260018401546001600160a01b03168e88015260405161175b8161021e8160028901612b5d565b6040880152604051928380928601612b5d565b606085015260048101546080850152600581015460a085015261179360068201613006565b60c08501526117a460078201613006565b60e085015261021e6108396008946117bd868501613006565b610100880152604051928380928601612b5d565b9390886116f6565b508260005281875260ff600f6040600020015460081c16156116f1565b80600052600380855261021e611819600960406000200160405192838092612b5d565b85815191012084518820149081611854575b5061183f575b61183a9061306b565b61168d565b9061184c61183a9161306b565b919050611831565b905081600052845260ff600f6040600020015460081c16158761182b565b34610345576000366003190112610345576000546040516001600160a01b039091168152602090f35b3461034557602036600319011261034557600435600052600360205260406000208054600160a01b6001900360018301541691604051808060028401906118e191612b5d565b036118ec9082612c0f565b604051806118fd8160038601612b5d565b036119089082612c0f565b60048301546005840154906040518080600988019061192691612b5d565b036119319082612c0f565b604051908161194381600a8a01612b5d565b0361194e9083612c0f565b600b87015492604051948580600c8b019061196891612b5d565b036119739087612c0f565b604051968761198581600d8d01612b5d565b036119909089612c0f565b600e8a015499600f0154986040519c8d9c8d5260208d01528b6101c06040819201528c016119bd916128fc565b8b810360608d01526119ce916128fc565b9160808b015260a08a015288810360c08a01526119ea916128fc565b87810360e08901526119fb916128fc565b90610100870152858103610120870152611a14916128fc565b848103610140860152611a26916128fc565b9161016084015260ff8116151561018084015260081c60ff1615156101a08301520390f35b3461034557600036600319011261034557611a64612cd8565b600080546001600160a01b0319811682556001600160a01b03167f8be0079c531659141344cd1fd0a4f28419497f9722a3daafe3b4186f6b6457e08280a3005b3461034557600319602036820112610345576001600160401b0360043511610345576101a0906004353603011261034557611ae3600480350180612d30565b9050156127095760446004350135156126d357606460043501351561269d576001805481016101208190529055611b1e600480350180612d30565b61014052608052611b3760048035602481019101612d30565b90611b4a60048035608481019101612d62565b90611b5d6004803560a481019101612d62565b90611b706004803560c481019101612d62565b9091611b846004803560e481019101612d30565b9490956004356101040160043560040190611b9e91612d30565b9890996004356101440160043560040190611bb891612d30565b9c9060e0526004356101640160043560040190611bd491612d30565b6101005260c0526040518060a052611beb90612bf3565b6101205160a051523360a0516020015236610140519060805191611c0e92612c30565b60a051604001523690611c2092612c30565b60a051606001526004356044013560a051608001526004356064013560a05160a001523690611c4e92612dae565b60a05160c001523690611c6092612dae565b60a05160e001523690611c7292612dae565b60a05161010001523690611c8592612c30565b60a05161012001523690611c9892612c30565b60a0516101400152600435610124013560a05161016001523660e05191611cbe92612c30565b60a05161018001526101005160c051611cd8913691612c30565b60a0516101a00152600435610184013560a0516101c0015260a0516101e0016000905260a0516102000160009052610120516000526003602052604060002060a0518051825560018201600160a01b600190036020830151166001600160601b0360a01b825416179055604001518051906001600160401b0382116110d6578190611d7382611d6a6002870154612b23565b60028701612e34565b602090601f831160011461262b57600092612620575b50508160011b916000199060031b1c19161760028201555b606060a05101518051906001600160401b0382116110d6578190611dd582611dcc6003870154612b23565b60038701612e34565b602090601f83116001146125ae576000926125a3575b50508160011b916000199060031b1c19161760038201555b60a0516080810151600483015560a0810151600583015560c0600683019101516020815191611e328385612e7b565b01916000526020600020916000905b8282106124c657846007810160e060a05101516020815191611e638385612e7b565b01916000526020600020916000905b8282106123e957846008810161010060a05101516020815191611e958385612e7b565b01916000526020600020916000905b828210612306578461012060a05101518051906001600160401b0382116110d6578190611ee182611ed86009870154612b23565b60098701612e34565b602090601f831160011461229457600092612289575b50508160011b916000199060031b1c19161760098201555b61014060a05101518051906001600160401b0382116110d6578190611f4482611f3b600a870154612b23565b600a8701612e34565b602090601f83116001146122175760009261220c575b50508160011b916000199060031b1c191617600a8201555b61018060a051610160810151600b84015501518051906001600160401b0382116110d6578190611fb282611fa9600c870154612b23565b600c8701612e34565b602090601f831160011461219a5760009261218f575b50508160011b916000199060031b1c191617600c8201555b6101a060a05101518051906001600160401b0382116110d65781906120158261200c600d870154612b23565b600d8701612e34565b602090601f831160011461211d57600092612112575b50508160011b916000199060031b1c191617600d8201555b600f60a051916101c0830151600e82015501906101e081015115159060ff61ff006102008554930151151560081b1692169061ffff1916171790556101205160005260056020526040600020600160ff198254161790553360005260046020526040600020805490600160401b8210156110d657816120c9916001602094018155612caa565b9080549160031b610120519283821b91600019901b19161790556040519033817fe8bb4e90e950f7b76a8c4e472b3b5e01d41c478f9eeaea36b4ba991f51133f91600080a38152f35b01519050838061202b565b9250600d84016000526020600020906000935b601f1984168510612174576001945083601f1981161061215b575b505050811b01600d820155612043565b015160001960f88460031b161c1916905583808061214b565b81810151835560209485019460019093019290910190612130565b015190508380611fc8565b9250600c84016000526020600020906000935b601f19841685106121f1576001945083601f198116106121d8575b505050811b01600c820155611fe0565b015160001960f88460031b161c191690558380806121c8565b818101518355602094850194600190930192909101906121ad565b015190508380611f5a565b9250600a84016000526020600020906000935b601f198416851061226e576001945083601f19811610612255575b505050811b01600a820155611f72565b015160001960f88460031b161c19169055838080612245565b8181015183556020948501946001909301929091019061222a565b015190508380611ef7565b9250600984016000526020600020906000935b601f19841685106122eb576001945083601f198116106122d2575b505050811b016009820155611f0f565b015160001960f88460031b161c191690558380806122c2565b818101518355602094850194600190930192909101906122a7565b80518051906001600160401b0382116110d65761232d826123278854612b23565b88612e34565b602090601f831160011461237957928260019493602093869560009261236e575b5050600019600383901b1c191690841b1787555b01940191019092611ea4565b015190508a8061234e565b908660005260206000209160005b601f19851681106123d1575083602093600196938796938794601f198116106123b8575b505050811b018755612362565b015160001960f88460031b161c191690558a80806123ab565b91926020600181928685015181550194019201612387565b80518051906001600160401b0382116110d65761240a826123278854612b23565b602090601f831160011461245657928260019493602093869560009261244b575b5050600019600383901b1c191690841b1787555b01940191019092611e72565b015190508a8061242b565b908660005260206000209160005b601f19851681106124ae575083602093600196938796938794601f19811610612495575b505050811b01875561243f565b015160001960f88460031b161c191690558a8080612488565b91926020600181928685015181550194019201612464565b80518051906001600160401b0382116110d6576124e7826123278854612b23565b602090601f8311600114612533579282600194936020938695600092612528575b5050600019600383901b1c191690841b1787555b01940191019092611e41565b015190508a80612508565b908660005260206000209160005b601f198516811061258b575083602093600196938796938794601f19811610612572575b505050811b01875561251c565b015160001960f88460031b161c191690558a8080612565565b91926020600181928685015181550194019201612541565b015190508380611deb565b9250600384016000526020600020906000935b601f1984168510612605576001945083601f198116106125ec575b505050811b016003820155611e03565b015160001960f88460031b161c191690558380806125dc565b818101518355602094850194600190930192909101906125c1565b015190508380611d89565b9250600284016000526020600020906000935b601f1984168510612682576001945083601f19811610612669575b505050811b016002820155611da1565b015160001960f88460031b161c19169055838080612659565b8181015183556020948501946001909301929091019061263e565b60405162461bcd60e51b815260206004820152600e60248201526d14dd1bd8dac81c995c5d5a5c995960921b6044820152606490fd5b60405162461bcd60e51b815260206004820152600e60248201526d141c9a58d9481c995c5d5a5c995960921b6044820152606490fd5b60405162461bcd60e51b815260206004820152600d60248201526c13985b59481c995c5d5a5c9959609a1b6044820152606490fd5b34610345576000366003190112610345576020600154604051908152f35b346103455760003660031901126103455760006001908154915b828111156128bb57506127889061307a565b90600060015b828111156127a457604051806103418682612ac1565b8060005260036020908082526040600020600f81015460ff9160088383821c161594856127e1575b505050505050506127dc9061306b565b61278e565b6128ae9694926128086127dc999a97959361021e610238600e956040519a6101f48c612bf3565b6101008701526040516128228161021e8160098601612b5d565b61012087015260405161283c8161021e81600a8601612b5d565b610140870152600b8101546101608701526040516128618161021e81600c8601612b5d565b61018087015260405161287b8161021e81600d8601612b5d565b6101a087015201546101c08501521615156101e0830152156102008201526128a382886130ca565b5261032081876130ca565b91908580808080806127cc565b80600052600360205260ff600f6040600020015460081c16156128e7575b6128e29061306b565b612776565b906128f46128e29161306b565b9190506128d9565b919082519283825260005b848110612928575050826000602080949584010152601f8019910116010190565b602081830181015184830182015201612907565b908082519081815260208091019281808460051b8301019501936000915b84831061296a5750505050505090565b9091929394958480612988600193601f198682030187528a516128fc565b980193019301919493929061295a565b908151815260018060a01b036020830151166020820152612a99612a85612a66612a52612a3e612a2a612a186129f26129e060408b01516102208060408d01528b01906128fc565b60608b01518a820360608c01526128fc565b60808a015160808a015260a08a015160a08a015260c08a015189820360c08b015261293c565b60e089015188820360e08a015261293c565b61010080890151908883039089015261293c565b6101208088015190878303908801526128fc565b6101408087015190868303908701526128fc565b61016080860151908501526101808086015190858303908601526128fc565b6101a08085015190848303908501526128fc565b916101c080820151908301526101e08082015115159083015261020080910151151591015290565b602080820190808352835180925260408301928160408460051b8301019501936000915b848310612af55750505050505090565b9091929394958480612b13600193603f198682030187528a51612998565b9801930193019194939290612ae5565b90600182811c92168015612b53575b6020831014612b3d57565b634e487b7160e01b600052602260045260246000fd5b91607f1691612b32565b9060009291805491612b6e83612b23565b918282526001938481169081600014612bd05750600114612b90575b50505050565b90919394506000526020928360002092846000945b838610612bbc575050505001019038808080612b8a565b805485870183015294019385908201612ba5565b9294505050602093945060ff191683830152151560051b01019038808080612b8a565b61022081019081106001600160401b038211176110d657604052565b90601f801991011681019081106001600160401b038211176110d657604052565b9291926001600160401b0382116110d65760405191612c59601f8201601f191660200184612c0f565b829481845281830111610345578281602093846000960137010152565b9080601f8301121561034557816020612c9193359101612c30565b90565b600435906001600160a01b038216820361034557565b8054821015612cc25760005260206000200190600090565b634e487b7160e01b600052603260045260246000fd5b6000546001600160a01b03163303612cec57565b606460405162461bcd60e51b815260206004820152602060248201527f4f776e61626c653a2063616c6c6572206973206e6f7420746865206f776e65726044820152fd5b903590601e198136030182121561034557018035906001600160401b0382116103455760200191813603831361034557565b903590601e198136030182121561034557018035906001600160401b03821161034557602001918160051b3603831361034557565b6001600160401b0381116110d65760051b60200190565b92919092612dbb84612d97565b91612dc96040519384612c0f565b829480845260208094019060051b8301928284116103455780915b848310612df357505050505050565b82356001600160401b038111610345578691612e128684938601612c76565b815201920191612de4565b818110612e28575050565b60008155600101612e1d565b9190601f8111612e4357505050565b612e6f926000526020600020906020601f840160051c83019310612e71575b601f0160051c0190612e1d565b565b9091508190612e62565b600160401b82116110d657805491808255828110612e9857505050565b600091825260209081832093840193015b838110612eb65750505050565b8083612ec460019354612b23565b80612ed2575b505001612ea9565b601f8082118514612ee957505081555b8338612eca565b612f0290848452868420920160051c8201858301612e1d565b81835555612ee2565b15612f1257565b60405162461bcd60e51b8152602060048201526011602482015270141c9bd91d58dd081b9bdd08199bdd5b99607a1b6044820152606490fd5b15612f5257565b60405162461bcd60e51b815260206004820152600f60248201526e141c9bd91d58dd0819195b195d1959608a1b6044820152606490fd5b60405190612f9682612bf3565b81610200600091828152826020820152606080604083015280808301528360808301528360a08301528060c08301528060e083015280610100830152806101208301528061014083015283610160830152806101808301526101a0820152826101c0820152826101e08201520152565b90815461301281612d97565b9260409361302285519182612c0f565b828152809460208092019260005281600020906000935b85851061304857505050505050565b6001848192845161305d8161021e818a612b5d565b815201930194019391613039565b60001981146104465760010190565b9061308482612d97565b6130916040519182612c0f565b82815280926130a2601f1991612d97565b019060005b8281106130b357505050565b6020906130be612f89565b828285010152016130a7565b8051821015612cc25760209160051b01019056fea2646970667358221220bab49e56fab3ce6efff1f8aeebc572591e46bf3c0f05e672fcfcf3c5df7ad01a64736f6c63430008130033","opcodes":"PUSH1 0x80 DUP1 PUSH1 0x40 MSTORE CALLVALUE PUSH2 0x5B JUMPI PUSH1 0x0 DUP1 SLOAD CALLER PUSH1 0x1 PUSH1 0x1 PUSH1 0xA0 SHL SUB NOT DUP3 AND DUP2 OR DUP4 SSTORE SWAP2 PUSH1 0x1 PUSH1 0x1 PUSH1 0xA0 SHL SUB SWAP1 SWAP2 AND SWAP1 PUSH32 0x8BE0079C531659141344CD1FD0A4F28419497F9722A3DAAFE3B4186F6B6457E0 SWAP1 DUP1 LOG3 PUSH2 0x3114 SWAP1 DUP2 PUSH2 0x61 DUP3 CODECOPY RETURN JUMPDEST PUSH1 0x0 DUP1 REVERT INVALID PUSH2 0x160 PUSH1 0x40 MSTORE PUSH1 0x4 CALLDATASIZE LT ISZERO PUSH2 0x13 JUMPI PUSH1 0x0 DUP1 REVERT JUMPDEST PUSH1 0x0 CALLDATALOAD PUSH1 0xE0 SHR DUP1 PUSH4 0x2EE3A52 EQ PUSH2 0x275C JUMPI DUP1 PUSH4 0x570AEA8A EQ PUSH2 0x273E JUMPI DUP1 PUSH4 0x6F5927C0 EQ PUSH2 0x1AA4 JUMPI DUP1 PUSH4 0x715018A6 EQ PUSH2 0x1A4B JUMPI DUP1 PUSH4 0x7ACC0B20 EQ PUSH2 0x189B JUMPI DUP1 PUSH4 0x8DA5CB5B EQ PUSH2 0x1872 JUMPI DUP1 PUSH4 0x8F38CC7B EQ PUSH2 0x164D JUMPI DUP1 PUSH4 0xAF55ED64 EQ PUSH2 0x161C JUMPI DUP1 PUSH4 0xB55CEF38 EQ PUSH2 0xBDB JUMPI DUP1 PUSH4 0xB9DB15B4 EQ PUSH2 0xA2B JUMPI DUP1 PUSH4 0xC1302B34 EQ PUSH2 0x9D3 JUMPI DUP1 PUSH4 0xCC640D01 EQ PUSH2 0x946 JUMPI DUP1 PUSH4 0xE6A93E16 EQ PUSH2 0x6F3 JUMPI DUP1 PUSH4 0xED90C7B7 EQ PUSH2 0x5C0 JUMPI DUP1 PUSH4 0xF2FDE38B EQ PUSH2 0x4FC JUMPI DUP1 PUSH4 0xF7AC228E EQ PUSH2 0x4D3 JUMPI DUP1 PUSH4 0xFD231411 EQ PUSH2 0x34A JUMPI PUSH4 0xFDCA4CA3 EQ PUSH2 0xE3 JUMPI PUSH1 0x0 DUP1 REVERT JUMPDEST CALLVALUE PUSH2 0x345 JUMPI PUSH1 0x0 CALLDATASIZE PUSH1 0x3 NOT ADD SLT PUSH2 0x345 JUMPI PUSH1 0x0 DUP1 JUMPDEST CALLER PUSH1 0x0 MSTORE PUSH1 0x20 PUSH1 0x4 DUP2 MSTORE PUSH1 0x40 PUSH1 0x0 KECCAK256 DUP1 SLOAD DUP4 LT ISZERO PUSH2 0x15F JUMPI DUP3 PUSH2 0x11A SWAP2 PUSH2 0x2CAA JUMP JUMPDEST SWAP2 SWAP1 SLOAD PUSH1 0x3 SWAP3 DUP4 SHL SHR PUSH1 0x0 MSTORE MSTORE PUSH1 0xFF PUSH1 0xF PUSH1 0x40 PUSH1 0x0 KECCAK256 ADD SLOAD PUSH1 0x8 SHR AND ISZERO PUSH2 0x14A JUMPI JUMPDEST PUSH2 0x145 SWAP1 PUSH2 0x306B JUMP JUMPDEST PUSH2 0xF8 JUMP JUMPDEST SWAP1 PUSH2 0x157 PUSH2 0x145 SWAP2 PUSH2 0x306B JUMP JUMPDEST SWAP2 SWAP1 POP PUSH2 0x13C JUMP JUMPDEST PUSH2 0x168 DUP5 PUSH2 0x307A JUMP JUMPDEST PUSH1 0x0 DUP1 JUMPDEST CALLER PUSH1 0x0 MSTORE PUSH1 0x20 PUSH1 0x4 DUP2 MSTORE PUSH1 0x40 PUSH1 0x0 KECCAK256 DUP1 SLOAD DUP4 LT ISZERO PUSH2 0x333 JUMPI DUP3 PUSH2 0x18E SWAP2 PUSH2 0x2CAA JUMP JUMPDEST SWAP1 SLOAD PUSH1 0x3 SWAP2 DUP3 SHL SHR PUSH1 0x0 MSTORE DUP1 DUP3 MSTORE PUSH1 0x40 PUSH1 0x0 KECCAK256 PUSH1 0xF DUP2 ADD SLOAD PUSH1 0xFF SWAP2 PUSH1 0x8 DUP4 DUP4 DUP3 SHR AND ISZERO SWAP5 DUP6 PUSH2 0x1CD JUMPI JUMPDEST POP POP POP POP POP POP POP PUSH2 0x1C8 SWAP1 PUSH2 0x306B JUMP JUMPDEST PUSH2 0x16C JUMP JUMPDEST PUSH2 0x326 SWAP7 SWAP5 SWAP3 PUSH2 0x27A PUSH2 0x1C8 SWAP10 SWAP11 SWAP8 SWAP6 SWAP4 PUSH2 0x21E PUSH2 0x238 PUSH1 0xE SWAP6 PUSH1 0x40 MLOAD SWAP11 PUSH2 0x1F4 DUP13 PUSH2 0x2BF3 JUMP JUMPDEST DUP7 SLOAD DUP13 MSTORE PUSH1 0x1 DUP8 ADD SLOAD PUSH1 0x1 PUSH1 0x1 PUSH1 0xA0 SHL SUB AND SWAP1 DUP13 ADD MSTORE PUSH1 0x40 MLOAD PUSH2 0x225 DUP2 PUSH2 0x21E DUP2 PUSH1 0x2 DUP12 ADD PUSH2 0x2B5D JUMP JUMPDEST SUB DUP3 PUSH2 0x2C0F JUMP JUMPDEST PUSH1 0x40 DUP13 ADD MSTORE PUSH1 0x40 MLOAD SWAP3 DUP4 DUP1 SWAP3 DUP9 ADD PUSH2 0x2B5D JUMP JUMPDEST PUSH1 0x60 DUP10 ADD MSTORE PUSH1 0x4 DUP4 ADD SLOAD PUSH1 0x80 DUP10 ADD MSTORE PUSH1 0x5 DUP4 ADD SLOAD PUSH1 0xA0 DUP10 ADD MSTORE PUSH2 0x25D PUSH1 0x6 DUP5 ADD PUSH2 0x3006 JUMP JUMPDEST PUSH1 0xC0 DUP10 ADD MSTORE PUSH2 0x26E PUSH1 0x7 DUP5 ADD PUSH2 0x3006 JUMP JUMPDEST PUSH1 0xE0 DUP10 ADD MSTORE DUP3 ADD PUSH2 0x3006 JUMP JUMPDEST PUSH2 0x100 DUP8 ADD MSTORE PUSH1 0x40 MLOAD PUSH2 0x294 DUP2 PUSH2 0x21E DUP2 PUSH1 0x9 DUP7 ADD PUSH2 0x2B5D JUMP JUMPDEST PUSH2 0x120 DUP8 ADD MSTORE PUSH1 0x40 MLOAD PUSH2 0x2AE DUP2 PUSH2 0x21E DUP2 PUSH1 0xA DUP7 ADD PUSH2 0x2B5D JUMP JUMPDEST PUSH2 0x140 DUP8 ADD MSTORE PUSH1 0xB DUP2 ADD SLOAD PUSH2 0x160 DUP8 ADD MSTORE PUSH1 0x40 MLOAD PUSH2 0x2D3 DUP2 PUSH2 0x21E DUP2 PUSH1 0xC DUP7 ADD PUSH2 0x2B5D JUMP JUMPDEST PUSH2 0x180 DUP8 ADD MSTORE PUSH1 0x40 MLOAD PUSH2 0x2ED DUP2 PUSH2 0x21E DUP2 PUSH1 0xD DUP7 ADD PUSH2 0x2B5D JUMP JUMPDEST PUSH2 0x1A0 DUP8 ADD MSTORE ADD SLOAD PUSH2 0x1C0 DUP6 ADD MSTORE AND ISZERO ISZERO PUSH2 0x1E0 DUP4 ADD MSTORE ISZERO PUSH2 0x200 DUP3 ADD MSTORE PUSH2 0x315 DUP3 DUP8 PUSH2 0x30CA JUMP JUMPDEST MSTORE PUSH2 0x320 DUP2 DUP7 PUSH2 0x30CA JUMP JUMPDEST POP PUSH2 0x306B JUMP JUMPDEST SWAP2 SWAP1 DUP5 DUP1 DUP1 DUP1 DUP1 DUP1 PUSH2 0x1B8 JUMP JUMPDEST PUSH1 0x40 MLOAD DUP1 PUSH2 0x341 DUP8 DUP3 PUSH2 0x2AC1 JUMP JUMPDEST SUB SWAP1 RETURN JUMPDEST PUSH1 0x0 DUP1 REVERT JUMPDEST CALLVALUE PUSH2 0x345 JUMPI PUSH1 0x40 CALLDATASIZE PUSH1 0x3 NOT ADD SLT PUSH2 0x345 JUMPI PUSH1 0x2 SLOAD PUSH1 0x24 CALLDATALOAD SWAP1 PUSH1 0x4 CALLDATALOAD SWAP1 PUSH1 0x1 PUSH1 0x1 PUSH1 0xA0 SHL SUB AND CALLER SUB PUSH2 0x496 JUMPI DUP1 PUSH1 0x0 MSTORE PUSH1 0x20 SWAP2 PUSH1 0x5 DUP4 MSTORE PUSH2 0x391 PUSH1 0xFF PUSH1 0x40 PUSH1 0x0 KECCAK256 SLOAD AND PUSH2 0x2F0B JUMP JUMPDEST DUP2 PUSH1 0x0 MSTORE PUSH1 0x3 DUP4 MSTORE PUSH2 0x3B1 PUSH1 0xFF PUSH1 0xF PUSH1 0x40 PUSH1 0x0 KECCAK256 ADD SLOAD PUSH1 0x8 SHR AND ISZERO PUSH2 0x2F4B JUMP JUMPDEST DUP2 PUSH1 0x0 MSTORE PUSH1 0x3 DUP4 MSTORE DUP1 PUSH1 0x5 PUSH1 0x40 PUSH1 0x0 KECCAK256 ADD SLOAD LT PUSH2 0x45C JUMPI DUP2 PUSH1 0x0 MSTORE PUSH1 0x3 DUP4 MSTORE PUSH1 0x5 PUSH1 0x40 PUSH1 0x0 KECCAK256 ADD DUP1 SLOAD SWAP2 DUP3 SUB SWAP2 DUP3 GT PUSH2 0x446 JUMPI SSTORE DUP1 PUSH1 0x0 MSTORE PUSH1 0x3 DUP3 MSTORE PUSH32 0xEBCFD4CE21B6AEFD071D3E0F4BFA57E491B5308A1FFB5A3A8E4805E23F00B8D7 DUP3 PUSH1 0x40 PUSH1 0x0 KECCAK256 PUSH1 0x5 DUP2 ADD SLOAD SWAP1 DUP2 ISZERO PUSH2 0x432 JUMPI JUMPDEST POP PUSH1 0x40 MLOAD SWAP1 DUP2 MSTORE LOG2 PUSH1 0x40 MLOAD PUSH1 0x1 DUP2 MSTORE RETURN JUMPDEST PUSH1 0xF ADD DUP1 SLOAD PUSH1 0xFF NOT AND PUSH1 0x1 OR SWAP1 SSTORE DUP6 PUSH2 0x421 JUMP JUMPDEST PUSH4 0x4E487B71 PUSH1 0xE0 SHL PUSH1 0x0 MSTORE PUSH1 0x11 PUSH1 0x4 MSTORE PUSH1 0x24 PUSH1 0x0 REVERT JUMPDEST PUSH1 0x40 MLOAD PUSH3 0x461BCD PUSH1 0xE5 SHL DUP2 MSTORE PUSH1 0x4 DUP2 ADD DUP5 SWAP1 MSTORE PUSH1 0x12 PUSH1 0x24 DUP3 ADD MSTORE PUSH18 0x496E73756666696369656E742073746F636B PUSH1 0x70 SHL PUSH1 0x44 DUP3 ADD MSTORE PUSH1 0x64 SWAP1 REVERT JUMPDEST PUSH1 0x40 MLOAD PUSH3 0x461BCD PUSH1 0xE5 SHL DUP2 MSTORE PUSH1 0x20 PUSH1 0x4 DUP3 ADD MSTORE PUSH1 0x15 PUSH1 0x24 DUP3 ADD MSTORE PUSH21 0x13DB9B1E4812195B54DA1BDC0818D85B8818D85B1B PUSH1 0x5A SHL PUSH1 0x44 DUP3 ADD MSTORE PUSH1 0x64 SWAP1 REVERT JUMPDEST CALLVALUE PUSH2 0x345 JUMPI PUSH1 0x0 CALLDATASIZE PUSH1 0x3 NOT ADD SLT PUSH2 0x345 JUMPI PUSH1 0x2 SLOAD PUSH1 0x40 MLOAD PUSH1 0x1 PUSH1 0x1 PUSH1 0xA0 SHL SUB SWAP1 SWAP2 AND DUP2 MSTORE PUSH1 0x20 SWAP1 RETURN JUMPDEST CALLVALUE PUSH2 0x345 JUMPI PUSH1 0x20 CALLDATASIZE PUSH1 0x3 NOT ADD SLT PUSH2 0x345 JUMPI PUSH2 0x515 PUSH2 0x2C94 JUMP JUMPDEST PUSH2 0x51D PUSH2 0x2CD8 JUMP JUMPDEST PUSH1 0x1 PUSH1 0x1 PUSH1 0xA0 SHL SUB SWAP1 DUP2 AND SWAP1 DUP2 ISZERO PUSH2 0x56C JUMPI PUSH1 0x0 SLOAD DUP3 PUSH1 0x1 PUSH1 0x1 PUSH1 0x60 SHL SUB PUSH1 0xA0 SHL DUP3 AND OR PUSH1 0x0 SSTORE AND PUSH32 0x8BE0079C531659141344CD1FD0A4F28419497F9722A3DAAFE3B4186F6B6457E0 PUSH1 0x0 DUP1 LOG3 STOP JUMPDEST PUSH1 0x40 MLOAD PUSH3 0x461BCD PUSH1 0xE5 SHL DUP2 MSTORE PUSH1 0x20 PUSH1 0x4 DUP3 ADD MSTORE PUSH1 0x26 PUSH1 0x24 DUP3 ADD MSTORE PUSH32 0x4F776E61626C653A206E6577206F776E657220697320746865207A65726F2061 PUSH1 0x44 DUP3 ADD MSTORE PUSH6 0x646472657373 PUSH1 0xD0 SHL PUSH1 0x64 DUP3 ADD MSTORE PUSH1 0x84 SWAP1 REVERT JUMPDEST CALLVALUE PUSH2 0x345 JUMPI PUSH1 0x20 DUP1 PUSH1 0x3 NOT CALLDATASIZE ADD SLT PUSH2 0x345 JUMPI PUSH1 0x4 CALLDATALOAD SWAP1 DUP2 PUSH1 0x0 MSTORE PUSH1 0x5 DUP2 MSTORE PUSH2 0x5EF PUSH1 0xFF PUSH1 0x40 PUSH1 0x0 KECCAK256 SLOAD AND PUSH2 0x2F0B JUMP JUMPDEST PUSH1 0x0 DUP3 DUP2 MSTORE PUSH1 0x3 DUP3 MSTORE PUSH1 0x40 SWAP1 KECCAK256 PUSH1 0x1 ADD SLOAD CALLER PUSH1 0x1 PUSH1 0x1 PUSH1 0xA0 SHL SUB SWAP2 DUP3 AND EQ SWAP1 DUP2 ISZERO PUSH2 0x6E5 JUMPI JUMPDEST POP ISZERO PUSH2 0x6B0 JUMPI DUP2 PUSH1 0x0 MSTORE PUSH1 0x3 DUP2 MSTORE PUSH1 0xFF PUSH1 0xF PUSH1 0x40 PUSH1 0x0 KECCAK256 ADD SLOAD PUSH1 0x8 SHR AND PUSH2 0x67A JUMPI PUSH1 0x3 SWAP1 DUP3 PUSH1 0x0 MSTORE MSTORE PUSH1 0xF PUSH1 0x40 PUSH1 0x0 KECCAK256 ADD PUSH2 0x100 PUSH2 0xFF00 NOT DUP3 SLOAD AND OR SWAP1 SSTORE PUSH32 0xC341CF326465FE622F86C468249E8C0CB03ED23BA376A6A34863A1374AC7D769 PUSH1 0x0 DUP1 LOG2 STOP JUMPDEST PUSH1 0x64 SWAP1 PUSH1 0x40 MLOAD SWAP1 PUSH3 0x461BCD PUSH1 0xE5 SHL DUP3 MSTORE PUSH1 0x4 DUP3 ADD MSTORE PUSH1 0xF PUSH1 0x24 DUP3 ADD MSTORE PUSH15 0x105B1C9958591E4819195B195D1959 PUSH1 0x8A SHL PUSH1 0x44 DUP3 ADD MSTORE REVERT JUMPDEST PUSH1 0x64 SWAP1 PUSH1 0x40 MLOAD SWAP1 PUSH3 0x461BCD PUSH1 0xE5 SHL DUP3 MSTORE PUSH1 0x4 DUP3 ADD MSTORE PUSH1 0xE PUSH1 0x24 DUP3 ADD MSTORE PUSH14 0x139BDD08185D5D1A1BDC9A5E9959 PUSH1 0x92 SHL PUSH1 0x44 DUP3 ADD MSTORE REVERT JUMPDEST PUSH1 0x0 SLOAD AND CALLER EQ SWAP1 POP DUP4 PUSH2 0x615 JUMP JUMPDEST CALLVALUE PUSH2 0x345 JUMPI PUSH1 0x20 DUP1 PUSH1 0x3 NOT CALLDATASIZE ADD SLT PUSH2 0x345 JUMPI PUSH2 0x70D PUSH2 0x2C94 JUMP JUMPDEST PUSH1 0x1 DUP1 SLOAD SWAP2 PUSH1 0x1 PUSH1 0x1 PUSH1 0xA0 SHL SUB SWAP2 SWAP1 DUP3 AND SWAP1 PUSH1 0x0 SWAP1 JUMPDEST DUP5 DUP2 GT ISZERO PUSH2 0x8ED JUMPI POP PUSH2 0x735 SWAP1 PUSH2 0x307A JUMP JUMPDEST SWAP4 PUSH1 0x0 SWAP2 PUSH1 0x1 JUMPDEST DUP6 DUP2 GT ISZERO PUSH2 0x752 JUMPI PUSH1 0x40 MLOAD DUP1 PUSH2 0x341 DUP10 DUP3 PUSH2 0x2AC1 JUMP JUMPDEST DUP1 PUSH1 0x0 MSTORE PUSH1 0x3 DUP1 DUP5 MSTORE PUSH1 0x40 PUSH1 0x0 KECCAK256 DUP7 PUSH1 0x1 DUP3 ADD SLOAD AND SWAP2 DUP5 DUP4 EQ DUP1 PUSH2 0x8DB JUMPI JUMPDEST PUSH2 0x787 JUMPI JUMPDEST POP POP POP PUSH2 0x782 SWAP1 PUSH2 0x306B JUMP JUMPDEST PUSH2 0x73C JUMP JUMPDEST SWAP2 PUSH2 0x782 SWAP4 SWAP7 SWAP2 PUSH2 0x21E PUSH2 0x7D4 PUSH2 0x8D2 SWAP6 PUSH1 0x40 MLOAD SWAP5 PUSH2 0x7A5 DUP7 PUSH2 0x2BF3 JUMP JUMPDEST DUP5 SLOAD DUP7 MSTORE DUP11 DUP7 ADD MSTORE PUSH1 0x40 MLOAD PUSH2 0x7C1 DUP2 PUSH2 0x21E DUP2 PUSH1 0x2 DUP10 ADD PUSH2 0x2B5D JUMP JUMPDEST PUSH1 0x40 DUP7 ADD MSTORE PUSH1 0x40 MLOAD SWAP3 DUP4 DUP1 SWAP3 DUP7 ADD PUSH2 0x2B5D JUMP JUMPDEST PUSH1 0x60 DUP4 ADD MSTORE PUSH1 0x4 DUP2 ADD SLOAD PUSH1 0x80 DUP4 ADD MSTORE PUSH1 0x5 DUP2 ADD SLOAD PUSH1 0xA0 DUP4 ADD MSTORE PUSH2 0x7F9 PUSH1 0x6 DUP3 ADD PUSH2 0x3006 JUMP JUMPDEST PUSH1 0xC0 DUP4 ADD MSTORE PUSH2 0x80A PUSH1 0x7 DUP3 ADD PUSH2 0x3006 JUMP JUMPDEST PUSH1 0xE0 DUP4 ADD MSTORE PUSH1 0xF PUSH1 0x8 SWAP2 PUSH2 0x81F DUP4 DUP3 ADD PUSH2 0x3006 JUMP JUMPDEST PUSH2 0x100 DUP6 ADD MSTORE PUSH1 0x40 MLOAD PUSH2 0x839 DUP2 PUSH2 0x21E DUP2 PUSH1 0x9 DUP7 ADD PUSH2 0x2B5D JUMP JUMPDEST PUSH2 0x120 DUP6 ADD MSTORE PUSH1 0x40 MLOAD PUSH2 0x853 DUP2 PUSH2 0x21E DUP2 PUSH1 0xA DUP7 ADD PUSH2 0x2B5D JUMP JUMPDEST PUSH2 0x140 DUP6 ADD MSTORE PUSH1 0xB DUP2 ADD SLOAD PUSH2 0x160 DUP6 ADD MSTORE PUSH1 0x40 MLOAD PUSH2 0x878 DUP2 PUSH2 0x21E DUP2 PUSH1 0xC DUP7 ADD PUSH2 0x2B5D JUMP JUMPDEST PUSH2 0x180 DUP6 ADD MSTORE PUSH1 0x40 MLOAD PUSH2 0x892 DUP2 PUSH2 0x21E DUP2 PUSH1 0xD DUP7 ADD PUSH2 0x2B5D JUMP JUMPDEST PUSH2 0x1A0 DUP6 ADD MSTORE PUSH1 0xE DUP2 ADD SLOAD PUSH2 0x1C0 DUP6 ADD MSTORE ADD SLOAD PUSH1 0xFF SWAP2 DUP3 DUP3 AND ISZERO ISZERO PUSH2 0x1E0 DUP6 ADD MSTORE SHR AND ISZERO ISZERO PUSH2 0x200 DUP3 ADD MSTORE PUSH2 0x8C7 DUP3 DUP12 PUSH2 0x30CA JUMP JUMPDEST MSTORE PUSH2 0x320 DUP2 DUP11 PUSH2 0x30CA JUMP JUMPDEST SWAP4 SWAP1 DUP9 DUP1 PUSH2 0x776 JUMP JUMPDEST POP PUSH1 0xFF PUSH1 0xF DUP4 ADD SLOAD PUSH1 0x8 SHR AND ISZERO PUSH2 0x771 JUMP JUMPDEST DUP1 PUSH1 0x0 MSTORE PUSH1 0x3 DUP7 MSTORE PUSH1 0x40 PUSH1 0x0 KECCAK256 DUP4 DUP6 PUSH1 0x1 DUP4 ADD SLOAD AND EQ SWAP1 DUP2 PUSH2 0x933 JUMPI JUMPDEST POP PUSH2 0x91E JUMPI JUMPDEST PUSH2 0x919 SWAP1 PUSH2 0x306B JUMP JUMPDEST PUSH2 0x723 JUMP JUMPDEST SWAP1 PUSH2 0x92B PUSH2 0x919 SWAP2 PUSH2 0x306B JUMP JUMPDEST SWAP2 SWAP1 POP PUSH2 0x910 JUMP JUMPDEST PUSH1 0xFF SWAP2 POP PUSH1 0xF ADD SLOAD PUSH1 0x8 SHR AND ISZERO DUP8 PUSH2 0x90A JUMP JUMPDEST CALLVALUE PUSH2 0x345 JUMPI PUSH1 0x20 CALLDATASIZE PUSH1 0x3 NOT ADD SLT PUSH2 0x345 JUMPI PUSH2 0x95F PUSH2 0x2C94 JUMP JUMPDEST PUSH2 0x967 PUSH2 0x2CD8 JUMP JUMPDEST PUSH1 0x1 PUSH1 0x1 PUSH1 0xA0 SHL SUB AND DUP1 ISZERO PUSH2 0x98E JUMPI PUSH1 0x1 PUSH1 0x1 PUSH1 0x60 SHL SUB PUSH1 0xA0 SHL PUSH1 0x2 SLOAD AND OR PUSH1 0x2 SSTORE PUSH1 0x0 DUP1 RETURN JUMPDEST PUSH1 0x40 MLOAD PUSH3 0x461BCD PUSH1 0xE5 SHL DUP2 MSTORE PUSH1 0x20 PUSH1 0x4 DUP3 ADD MSTORE PUSH1 0x17 PUSH1 0x24 DUP3 ADD MSTORE PUSH32 0x496E76616C69642048656D53686F702061646472657373000000000000000000 PUSH1 0x44 DUP3 ADD MSTORE PUSH1 0x64 SWAP1 REVERT JUMPDEST CALLVALUE PUSH2 0x345 JUMPI PUSH1 0x40 CALLDATASIZE PUSH1 0x3 NOT ADD SLT PUSH2 0x345 JUMPI PUSH2 0x9EC PUSH2 0x2C94 JUMP JUMPDEST PUSH1 0x1 PUSH1 0x1 PUSH1 0xA0 SHL SUB AND PUSH1 0x0 SWAP1 DUP2 MSTORE PUSH1 0x4 PUSH1 0x20 MSTORE PUSH1 0x40 SWAP1 KECCAK256 DUP1 SLOAD PUSH1 0x24 CALLDATALOAD SWAP2 SWAP1 DUP3 LT ISZERO PUSH2 0x345 JUMPI PUSH1 0x20 SWAP2 PUSH2 0xA1D SWAP2 PUSH2 0x2CAA JUMP JUMPDEST SWAP1 SLOAD PUSH1 0x40 MLOAD SWAP2 PUSH1 0x3 SHL SHR DUP2 MSTORE RETURN JUMPDEST CALLVALUE PUSH2 0x345 JUMPI PUSH1 0x20 DUP1 PUSH1 0x3 NOT CALLDATASIZE ADD SLT PUSH2 0x345 JUMPI PUSH1 0x4 CALLDATALOAD PUSH2 0xA48 PUSH2 0x2F89 JUMP JUMPDEST POP DUP1 PUSH1 0x0 MSTORE PUSH1 0x5 DUP3 MSTORE PUSH2 0xA62 PUSH1 0xFF PUSH1 0x40 PUSH1 0x0 KECCAK256 SLOAD AND PUSH2 0x2F0B JUMP JUMPDEST DUP1 PUSH1 0x0 MSTORE PUSH1 0x3 DUP3 MSTORE PUSH2 0xA82 PUSH1 0xFF PUSH1 0xF PUSH1 0x40 PUSH1 0x0 KECCAK256 ADD SLOAD PUSH1 0x8 SHR AND ISZERO PUSH2 0x2F4B JUMP JUMPDEST PUSH1 0x0 MSTORE PUSH1 0x3 DUP2 MSTORE PUSH1 0x40 PUSH1 0x0 KECCAK256 SWAP1 PUSH1 0xFF PUSH1 0xF PUSH1 0x40 MLOAD SWAP4 PUSH2 0xAA0 DUP6 PUSH2 0x2BF3 JUMP JUMPDEST DUP1 SLOAD DUP6 MSTORE PUSH1 0x1 DUP2 ADD SLOAD PUSH1 0x1 PUSH1 0x1 PUSH1 0xA0 SHL SUB AND DUP5 DUP7 ADD MSTORE PUSH1 0x40 MLOAD PUSH2 0xACA DUP2 PUSH2 0x21E DUP2 PUSH1 0x2 DUP7 ADD PUSH2 0x2B5D JUMP JUMPDEST PUSH1 0x40 DUP7 ADD MSTORE PUSH1 0x40 MLOAD PUSH2 0xAE3 DUP2 PUSH2 0x21E DUP2 PUSH1 0x3 DUP7 ADD PUSH2 0x2B5D JUMP JUMPDEST PUSH1 0x60 DUP7 ADD MSTORE PUSH1 0x4 DUP2 ADD SLOAD PUSH1 0x80 DUP7 ADD MSTORE PUSH1 0x5 DUP2 ADD SLOAD PUSH1 0xA0 DUP7 ADD MSTORE PUSH2 0xB08 PUSH1 0x6 DUP3 ADD PUSH2 0x3006 JUMP JUMPDEST PUSH1 0xC0 DUP7 ADD MSTORE PUSH2 0xB19 PUSH1 0x7 DUP3 ADD PUSH2 0x3006 JUMP JUMPDEST PUSH1 0xE0 DUP7 ADD MSTORE PUSH2 0xB2A PUSH1 0x8 DUP3 ADD PUSH2 0x3006 JUMP JUMPDEST PUSH2 0x100 DUP7 ADD MSTORE PUSH1 0x40 MLOAD PUSH2 0xB44 DUP2 PUSH2 0x21E DUP2 PUSH1 0x9 DUP7 ADD PUSH2 0x2B5D JUMP JUMPDEST PUSH2 0x120 DUP7 ADD MSTORE PUSH1 0x40 MLOAD PUSH2 0xB5E DUP2 PUSH2 0x21E DUP2 PUSH1 0xA DUP7 ADD PUSH2 0x2B5D JUMP JUMPDEST PUSH2 0x140 DUP7 ADD MSTORE PUSH1 0xB DUP2 ADD SLOAD PUSH2 0x160 DUP7 ADD MSTORE PUSH1 0x40 MLOAD PUSH2 0xB83 DUP2 PUSH2 0x21E DUP2 PUSH1 0xC DUP7 ADD PUSH2 0x2B5D JUMP JUMPDEST PUSH2 0x180 DUP7 ADD MSTORE PUSH1 0x40 MLOAD PUSH2 0xB9D DUP2 PUSH2 0x21E DUP2 PUSH1 0xD DUP7 ADD PUSH2 0x2B5D JUMP JUMPDEST PUSH2 0x1A0 DUP7 ADD MSTORE PUSH1 0xE DUP2 ADD SLOAD PUSH2 0x1C0 DUP7 ADD MSTORE ADD SLOAD DUP2 DUP2 AND ISZERO ISZERO PUSH2 0x1E0 DUP6 ADD MSTORE PUSH1 0x8 SHR AND ISZERO ISZERO PUSH2 0x200 DUP4 ADD MSTORE PUSH2 0x341 PUSH1 0x40 MLOAD SWAP3 DUP3 DUP5 SWAP4 DUP5 MSTORE DUP4 ADD SWAP1 PUSH2 0x2998 JUMP JUMPDEST CALLVALUE PUSH2 0x345 JUMPI PUSH1 0x3 NOT PUSH1 0x40 CALLDATASIZE DUP3 ADD SLT PUSH2 0x345 JUMPI PUSH1 0x1 PUSH1 0x1 PUSH1 0x40 SHL SUB PUSH1 0x24 CALLDATALOAD GT PUSH2 0x345 JUMPI PUSH2 0x1A0 SWAP1 PUSH1 0x24 CALLDATALOAD CALLDATASIZE SUB ADD SLT PUSH2 0x345 JUMPI PUSH1 0x4 CALLDATALOAD PUSH1 0x0 SWAP1 DUP2 MSTORE PUSH1 0x3 PUSH1 0x20 MSTORE PUSH1 0x40 SWAP1 KECCAK256 PUSH1 0x1 ADD SLOAD PUSH1 0x1 PUSH1 0x1 PUSH1 0xA0 SHL SUB AND CALLER SUB PUSH2 0x15DE JUMPI PUSH1 0x4 CALLDATALOAD PUSH1 0x0 MSTORE PUSH1 0x5 PUSH1 0x20 MSTORE PUSH2 0xC4C PUSH1 0xFF PUSH1 0x40 PUSH1 0x0 KECCAK256 SLOAD AND PUSH2 0x2F0B JUMP JUMPDEST PUSH1 0x4 CALLDATALOAD PUSH1 0x0 MSTORE PUSH1 0x3 PUSH1 0x20 MSTORE PUSH2 0xC6F PUSH1 0xFF PUSH1 0xF PUSH1 0x40 PUSH1 0x0 KECCAK256 ADD SLOAD PUSH1 0x8 SHR AND ISZERO PUSH2 0x2F4B JUMP JUMPDEST PUSH2 0xC7E PUSH1 0x4 PUSH1 0x24 CALLDATALOAD ADD DUP1 PUSH2 0x2D30 JUMP JUMPDEST PUSH1 0x4 CALLDATALOAD PUSH1 0x0 MSTORE PUSH1 0x3 PUSH1 0x20 MSTORE PUSH1 0x2 PUSH1 0x40 PUSH1 0x0 KECCAK256 ADD SWAP1 PUSH1 0x1 PUSH1 0x1 PUSH1 0x40 SHL SUB DUP2 GT PUSH2 0x10D6 JUMPI PUSH2 0xCB4 DUP2 PUSH2 0xCAE DUP5 SLOAD PUSH2 0x2B23 JUMP JUMPDEST DUP5 PUSH2 0x2E34 JUMP JUMPDEST PUSH1 0x0 SWAP3 PUSH1 0x1F DUP3 GT PUSH1 0x1 EQ PUSH2 0x1575 JUMPI SWAP3 DUP2 SWAP3 SWAP4 PUSH1 0x0 SWAP3 PUSH2 0x156A JUMPI JUMPDEST POP POP DUP2 PUSH1 0x1 SHL SWAP2 PUSH1 0x0 NOT SWAP1 PUSH1 0x3 SHL SHR NOT AND OR SWAP1 SSTORE JUMPDEST PUSH2 0xCF6 PUSH1 0x24 DUP1 CALLDATALOAD ADD PUSH1 0x24 CALLDATALOAD PUSH1 0x4 ADD PUSH2 0x2D30 JUMP JUMPDEST PUSH1 0x4 CALLDATALOAD PUSH1 0x0 MSTORE PUSH1 0x3 PUSH1 0x20 MSTORE PUSH1 0x3 PUSH1 0x40 PUSH1 0x0 KECCAK256 ADD SWAP1 PUSH1 0x1 PUSH1 0x1 PUSH1 0x40 SHL SUB DUP2 GT PUSH2 0x10D6 JUMPI PUSH2 0xD26 DUP2 PUSH2 0xCAE DUP5 SLOAD PUSH2 0x2B23 JUMP JUMPDEST PUSH1 0x0 PUSH1 0x1F DUP3 GT PUSH1 0x1 EQ PUSH2 0x1505 JUMPI DUP2 SWAP3 SWAP4 PUSH1 0x0 SWAP3 PUSH2 0x14FA JUMPI JUMPDEST POP POP DUP2 PUSH1 0x1 SHL SWAP2 PUSH1 0x0 NOT SWAP1 PUSH1 0x3 SHL SHR NOT AND OR SWAP1 SSTORE JUMPDEST PUSH1 0x4 CALLDATALOAD PUSH1 0x0 MSTORE PUSH1 0x3 PUSH1 0x20 MSTORE PUSH1 0x40 PUSH1 0x0 KECCAK256 PUSH1 0x44 PUSH1 0x24 CALLDATALOAD ADD CALLDATALOAD PUSH1 0x4 DUP3 ADD SSTORE PUSH1 0x64 PUSH1 0x24 CALLDATALOAD ADD CALLDATALOAD PUSH1 0x5 DUP3 ADD SSTORE PUSH1 0x6 PUSH2 0xD91 PUSH1 0x84 PUSH1 0x24 CALLDATALOAD ADD PUSH1 0x24 CALLDATALOAD PUSH1 0x4 ADD PUSH2 0x2D62 JUMP JUMPDEST SWAP2 SWAP1 SWAP3 ADD SWAP2 PUSH2 0xDA0 DUP3 DUP5 PUSH2 0x2E7B JUMP JUMPDEST PUSH1 0x0 SWAP3 DUP4 MSTORE PUSH1 0x20 DUP4 KECCAK256 SWAP1 DUP1 JUMPDEST DUP4 DUP6 LT PUSH2 0x1417 JUMPI PUSH2 0xDC7 PUSH1 0xA4 PUSH1 0x24 CALLDATALOAD ADD PUSH1 0x24 CALLDATALOAD PUSH1 0x4 ADD PUSH2 0x2D62 JUMP JUMPDEST PUSH1 0x4 CALLDATALOAD PUSH1 0x0 MSTORE PUSH1 0x3 PUSH1 0x20 MSTORE PUSH1 0x7 PUSH1 0x40 PUSH1 0x0 KECCAK256 ADD SWAP2 PUSH2 0xDE5 DUP3 DUP5 PUSH2 0x2E7B JUMP JUMPDEST PUSH1 0x0 SWAP3 DUP4 MSTORE PUSH1 0x20 DUP4 KECCAK256 SWAP1 DUP1 JUMPDEST DUP4 DUP6 LT PUSH2 0x1334 JUMPI PUSH2 0xE0C PUSH1 0xC4 PUSH1 0x24 CALLDATALOAD ADD PUSH1 0x24 CALLDATALOAD PUSH1 0x4 ADD PUSH2 0x2D62 JUMP JUMPDEST PUSH1 0x4 CALLDATALOAD PUSH1 0x0 MSTORE PUSH1 0x3 PUSH1 0x20 MSTORE PUSH1 0x8 PUSH1 0x40 PUSH1 0x0 KECCAK256 ADD SWAP2 PUSH2 0xE2A DUP3 DUP5 PUSH2 0x2E7B JUMP JUMPDEST PUSH1 0x0 SWAP3 DUP4 MSTORE PUSH1 0x20 DUP4 KECCAK256 SWAP1 DUP1 JUMPDEST DUP4 DUP6 LT PUSH2 0x124B JUMPI PUSH2 0xE51 PUSH1 0xE4 PUSH1 0x24 CALLDATALOAD ADD PUSH1 0x24 CALLDATALOAD PUSH1 0x4 ADD PUSH2 0x2D30 JUMP JUMPDEST PUSH1 0x4 CALLDATALOAD PUSH1 0x0 MSTORE PUSH1 0x3 PUSH1 0x20 MSTORE PUSH1 0x9 PUSH1 0x40 PUSH1 0x0 KECCAK256 ADD SWAP1 PUSH1 0x1 PUSH1 0x1 PUSH1 0x40 SHL SUB DUP2 GT PUSH2 0x10D6 JUMPI PUSH2 0xE81 DUP2 PUSH2 0xCAE DUP5 SLOAD PUSH2 0x2B23 JUMP JUMPDEST PUSH1 0x0 SWAP3 PUSH1 0x1F DUP3 GT PUSH1 0x1 EQ PUSH2 0x11E2 JUMPI SWAP3 DUP2 SWAP3 SWAP4 PUSH1 0x0 SWAP3 PUSH2 0x11D7 JUMPI JUMPDEST POP POP DUP2 PUSH1 0x1 SHL SWAP2 PUSH1 0x0 NOT SWAP1 PUSH1 0x3 SHL SHR NOT AND OR SWAP1 SSTORE JUMPDEST PUSH2 0xEC5 PUSH2 0x104 PUSH1 0x24 CALLDATALOAD ADD PUSH1 0x24 CALLDATALOAD PUSH1 0x4 ADD PUSH2 0x2D30 JUMP JUMPDEST PUSH1 0x4 CALLDATALOAD PUSH1 0x0 MSTORE PUSH1 0x3 PUSH1 0x20 MSTORE PUSH1 0xA PUSH1 0x40 PUSH1 0x0 KECCAK256 ADD SWAP1 PUSH1 0x1 PUSH1 0x1 PUSH1 0x40 SHL SUB DUP2 GT PUSH2 0x10D6 JUMPI PUSH2 0xEF5 DUP2 PUSH2 0xCAE DUP5 SLOAD PUSH2 0x2B23 JUMP JUMPDEST PUSH1 0x0 PUSH1 0x1F DUP3 GT PUSH1 0x1 EQ PUSH2 0x1172 JUMPI DUP2 SWAP3 SWAP4 PUSH1 0x0 SWAP3 PUSH2 0x1167 JUMPI JUMPDEST POP POP DUP2 PUSH1 0x1 SHL SWAP2 PUSH1 0x0 NOT SWAP1 PUSH1 0x3 SHL SHR NOT AND OR SWAP1 SSTORE JUMPDEST PUSH1 0x4 CALLDATALOAD PUSH1 0x0 MSTORE PUSH1 0x3 PUSH1 0x20 MSTORE PUSH1 0x40 PUSH1 0x0 KECCAK256 PUSH2 0x124 PUSH1 0x24 CALLDATALOAD ADD CALLDATALOAD PUSH1 0xB DUP3 ADD SSTORE PUSH2 0xF54 PUSH2 0x144 PUSH1 0x24 CALLDATALOAD ADD PUSH1 0x24 CALLDATALOAD PUSH1 0x4 ADD PUSH2 0x2D30 JUMP JUMPDEST SWAP1 PUSH1 0x1 PUSH1 0x1 PUSH1 0x40 SHL SUB DUP3 GT PUSH2 0x10D6 JUMPI PUSH2 0xF7D DUP3 PUSH2 0xF74 PUSH1 0xC DUP7 ADD SLOAD PUSH2 0x2B23 JUMP JUMPDEST PUSH1 0xC DUP7 ADD PUSH2 0x2E34 JUMP JUMPDEST PUSH1 0x0 SWAP1 PUSH1 0x1F DUP4 GT PUSH1 0x1 EQ PUSH2 0x10F7 JUMPI PUSH1 0xC SWAP3 SWAP2 PUSH1 0x0 SWAP2 DUP4 PUSH2 0x10EC JUMPI JUMPDEST POP POP DUP2 PUSH1 0x1 SHL SWAP2 PUSH1 0x0 NOT SWAP1 PUSH1 0x3 SHL SHR NOT AND OR SWAP2 ADD SSTORE JUMPDEST PUSH2 0xFC3 PUSH2 0x164 PUSH1 0x24 CALLDATALOAD ADD PUSH1 0x24 CALLDATALOAD PUSH1 0x4 ADD PUSH2 0x2D30 JUMP JUMPDEST PUSH1 0x4 CALLDATALOAD PUSH1 0x0 MSTORE PUSH1 0x3 PUSH1 0x20 MSTORE PUSH1 0xD PUSH1 0x40 PUSH1 0x0 KECCAK256 ADD SWAP1 PUSH1 0x1 PUSH1 0x1 PUSH1 0x40 SHL SUB DUP2 GT PUSH2 0x10D6 JUMPI PUSH2 0xFF3 DUP2 PUSH2 0xCAE DUP5 SLOAD PUSH2 0x2B23 JUMP JUMPDEST PUSH1 0x0 PUSH1 0x1F DUP3 GT PUSH1 0x1 EQ PUSH2 0x1071 JUMPI DUP2 SWAP3 SWAP4 PUSH1 0x0 SWAP3 PUSH2 0x1066 JUMPI JUMPDEST POP POP DUP2 PUSH1 0x1 SHL SWAP2 PUSH1 0x0 NOT SWAP1 PUSH1 0x3 SHL SHR NOT AND OR SWAP1 SSTORE JUMPDEST PUSH1 0x4 CALLDATALOAD PUSH1 0x0 MSTORE PUSH1 0x3 PUSH1 0x20 MSTORE PUSH2 0x184 PUSH1 0x24 CALLDATALOAD ADD CALLDATALOAD PUSH1 0xE PUSH1 0x40 PUSH1 0x0 KECCAK256 ADD SSTORE PUSH1 0x4 CALLDATALOAD PUSH32 0xECA6714FCF568FB34CF9DB4A414CB0CC48E93C5D4E1BA0582A46EA3704CF24D5 PUSH1 0x0 DUP1 LOG2 STOP JUMPDEST ADD CALLDATALOAD SWAP1 POP DUP4 DUP1 PUSH2 0x100B JUMP JUMPDEST PUSH1 0x1F NOT DUP3 AND SWAP4 DUP4 PUSH1 0x0 MSTORE PUSH1 0x20 PUSH1 0x0 KECCAK256 SWAP2 PUSH1 0x0 JUMPDEST DUP7 DUP2 LT PUSH2 0x10BE JUMPI POP DUP4 PUSH1 0x1 SWAP6 SWAP7 LT PUSH2 0x10A4 JUMPI JUMPDEST POP POP POP DUP2 SHL ADD SWAP1 SSTORE PUSH2 0x1020 JUMP JUMPDEST ADD CALLDATALOAD PUSH1 0x0 NOT PUSH1 0x3 DUP5 SWAP1 SHL PUSH1 0xF8 AND SHR NOT AND SWAP1 SSTORE DUP4 DUP1 DUP1 PUSH2 0x1097 JUMP JUMPDEST SWAP1 SWAP3 PUSH1 0x20 PUSH1 0x1 DUP2 SWAP3 DUP7 DUP7 ADD CALLDATALOAD DUP2 SSTORE ADD SWAP5 ADD SWAP2 ADD PUSH2 0x1084 JUMP JUMPDEST PUSH4 0x4E487B71 PUSH1 0xE0 SHL PUSH1 0x0 MSTORE PUSH1 0x41 PUSH1 0x4 MSTORE PUSH1 0x24 PUSH1 0x0 REVERT JUMPDEST ADD CALLDATALOAD SWAP1 POP DUP5 DUP1 PUSH2 0xF98 JUMP JUMPDEST PUSH1 0xC DUP5 ADD PUSH1 0x0 MSTORE PUSH1 0x20 PUSH1 0x0 KECCAK256 SWAP2 PUSH1 0x0 JUMPDEST PUSH1 0x1F NOT DUP6 AND DUP2 LT PUSH2 0x114F JUMPI POP SWAP2 DUP4 SWAP2 PUSH1 0x1 SWAP4 PUSH1 0xC SWAP6 PUSH1 0x1F NOT DUP2 AND LT PUSH2 0x1135 JUMPI JUMPDEST POP POP POP DUP2 SHL ADD SWAP2 ADD SSTORE PUSH2 0xFAE JUMP JUMPDEST ADD CALLDATALOAD PUSH1 0x0 NOT PUSH1 0x3 DUP5 SWAP1 SHL PUSH1 0xF8 AND SHR NOT AND SWAP1 SSTORE DUP5 DUP1 DUP1 PUSH2 0x1127 JUMP JUMPDEST SWAP1 SWAP3 PUSH1 0x20 PUSH1 0x1 DUP2 SWAP3 DUP7 DUP7 ADD CALLDATALOAD DUP2 SSTORE ADD SWAP5 ADD SWAP2 ADD PUSH2 0x1107 JUMP JUMPDEST ADD CALLDATALOAD SWAP1 POP DUP4 DUP1 PUSH2 0xF0D JUMP JUMPDEST PUSH1 0x1F NOT DUP3 AND SWAP4 DUP4 PUSH1 0x0 MSTORE PUSH1 0x20 PUSH1 0x0 KECCAK256 SWAP2 PUSH1 0x0 JUMPDEST DUP7 DUP2 LT PUSH2 0x11BF JUMPI POP DUP4 PUSH1 0x1 SWAP6 SWAP7 LT PUSH2 0x11A5 JUMPI JUMPDEST POP POP POP DUP2 SHL ADD SWAP1 SSTORE PUSH2 0xF22 JUMP JUMPDEST ADD CALLDATALOAD PUSH1 0x0 NOT PUSH1 0x3 DUP5 SWAP1 SHL PUSH1 0xF8 AND SHR NOT AND SWAP1 SSTORE DUP4 DUP1 DUP1 PUSH2 0x1198 JUMP JUMPDEST SWAP1 SWAP3 PUSH1 0x20 PUSH1 0x1 DUP2 SWAP3 DUP7 DUP7 ADD CALLDATALOAD DUP2 SSTORE ADD SWAP5 ADD SWAP2 ADD PUSH2 0x1185 JUMP JUMPDEST ADD CALLDATALOAD SWAP1 POP DUP4 DUP1 PUSH2 0xE9B JUMP JUMPDEST DUP3 PUSH1 0x0 MSTORE PUSH1 0x20 PUSH1 0x0 KECCAK256 SWAP1 PUSH1 0x0 SWAP5 JUMPDEST PUSH1 0x1F NOT DUP5 AND DUP7 LT PUSH2 0x1233 JUMPI PUSH1 0x1 SWAP5 SWAP6 POP DUP4 PUSH1 0x1F NOT DUP2 AND LT PUSH2 0x1219 JUMPI JUMPDEST POP POP POP DUP2 SHL ADD SWAP1 SSTORE PUSH2 0xEB0 JUMP JUMPDEST ADD CALLDATALOAD PUSH1 0x0 NOT PUSH1 0x3 DUP5 SWAP1 SHL PUSH1 0xF8 AND SHR NOT AND SWAP1 SSTORE DUP4 DUP1 DUP1 PUSH2 0x120C JUMP JUMPDEST SWAP2 PUSH1 0x20 PUSH1 0x1 DUP2 SWAP3 DUP6 DUP6 ADD CALLDATALOAD DUP2 SSTORE ADD SWAP4 ADD SWAP6 ADD SWAP5 PUSH2 0x11F0 JUMP JUMPDEST PUSH2 0x1255 DUP2 DUP4 PUSH2 0x2D30 JUMP JUMPDEST SWAP1 PUSH1 0x1 PUSH1 0x1 PUSH1 0x40 SHL SUB DUP3 GT PUSH2 0x10D6 JUMPI PUSH2 0x1278 DUP3 PUSH2 0x1272 DUP8 SLOAD PUSH2 0x2B23 JUMP JUMPDEST DUP8 PUSH2 0x2E34 JUMP JUMPDEST PUSH1 0x0 SWAP1 PUSH1 0x1F DUP4 GT PUSH1 0x1 EQ PUSH2 0x12C4 JUMPI SWAP3 DUP3 PUSH1 0x1 SWAP5 SWAP4 PUSH1 0x20 SWAP4 DUP7 SWAP6 PUSH1 0x0 SWAP3 PUSH2 0x12B9 JUMPI JUMPDEST POP POP PUSH1 0x0 NOT PUSH1 0x3 DUP4 SWAP1 SHL SHR NOT AND SWAP1 DUP5 SHL OR DUP7 SSTORE JUMPDEST ADD SWAP4 ADD SWAP5 ADD SWAP4 SWAP2 PUSH2 0xE36 JUMP JUMPDEST ADD CALLDATALOAD SWAP1 POP DUP11 DUP1 PUSH2 0x1299 JUMP JUMPDEST DUP6 PUSH1 0x0 MSTORE PUSH1 0x20 PUSH1 0x0 KECCAK256 SWAP2 PUSH1 0x0 JUMPDEST PUSH1 0x1F NOT DUP6 AND DUP2 LT PUSH2 0x131C JUMPI POP DUP4 PUSH1 0x20 SWAP4 PUSH1 0x1 SWAP7 SWAP4 DUP8 SWAP7 SWAP4 DUP8 SWAP5 PUSH1 0x1F NOT DUP2 AND LT PUSH2 0x1302 JUMPI JUMPDEST POP POP POP DUP2 SHL ADD DUP7 SSTORE PUSH2 0x12AD JUMP JUMPDEST ADD CALLDATALOAD PUSH1 0x0 NOT PUSH1 0x3 DUP5 SWAP1 SHL PUSH1 0xF8 AND SHR NOT AND SWAP1 SSTORE DUP11 DUP1 DUP1 PUSH2 0x12F5 JUMP JUMPDEST SWAP1 SWAP3 PUSH1 0x20 PUSH1 0x1 DUP2 SWAP3 DUP7 DUP7 ADD CALLDATALOAD DUP2 SSTORE ADD SWAP5 ADD SWAP2 ADD PUSH2 0x12D1 JUMP JUMPDEST PUSH2 0x133E DUP2 DUP4 PUSH2 0x2D30 JUMP JUMPDEST SWAP1 PUSH1 0x1 PUSH1 0x1 PUSH1 0x40 SHL SUB DUP3 GT PUSH2 0x10D6 JUMPI PUSH2 0x135B DUP3 PUSH2 0x1272 DUP8 SLOAD PUSH2 0x2B23 JUMP JUMPDEST PUSH1 0x0 SWAP1 PUSH1 0x1F DUP4 GT PUSH1 0x1 EQ PUSH2 0x13A7 JUMPI SWAP3 DUP3 PUSH1 0x1 SWAP5 SWAP4 PUSH1 0x20 SWAP4 DUP7 SWAP6 PUSH1 0x0 SWAP3 PUSH2 0x139C JUMPI JUMPDEST POP POP PUSH1 0x0 NOT PUSH1 0x3 DUP4 SWAP1 SHL SHR NOT AND SWAP1 DUP5 SHL OR DUP7 SSTORE JUMPDEST ADD SWAP4 ADD SWAP5 ADD SWAP4 SWAP2 PUSH2 0xDF1 JUMP JUMPDEST ADD CALLDATALOAD SWAP1 POP DUP11 DUP1 PUSH2 0x137C JUMP JUMPDEST DUP6 PUSH1 0x0 MSTORE PUSH1 0x20 PUSH1 0x0 KECCAK256 SWAP2 PUSH1 0x0 JUMPDEST PUSH1 0x1F NOT DUP6 AND DUP2 LT PUSH2 0x13FF JUMPI POP DUP4 PUSH1 0x20 SWAP4 PUSH1 0x1 SWAP7 SWAP4 DUP8 SWAP7 SWAP4 DUP8 SWAP5 PUSH1 0x1F NOT DUP2 AND LT PUSH2 0x13E5 JUMPI JUMPDEST POP POP POP DUP2 SHL ADD DUP7 SSTORE PUSH2 0x1390 JUMP JUMPDEST ADD CALLDATALOAD PUSH1 0x0 NOT PUSH1 0x3 DUP5 SWAP1 SHL PUSH1 0xF8 AND SHR NOT AND SWAP1 SSTORE DUP11 DUP1 DUP1 PUSH2 0x13D8 JUMP JUMPDEST SWAP1 SWAP3 PUSH1 0x20 PUSH1 0x1 DUP2 SWAP3 DUP7 DUP7 ADD CALLDATALOAD DUP2 SSTORE ADD SWAP5 ADD SWAP2 ADD PUSH2 0x13B4 JUMP JUMPDEST PUSH2 0x1421 DUP2 DUP4 PUSH2 0x2D30 JUMP JUMPDEST SWAP1 PUSH1 0x1 PUSH1 0x1 PUSH1 0x40 SHL SUB DUP3 GT PUSH2 0x10D6 JUMPI PUSH2 0x143E DUP3 PUSH2 0x1272 DUP8 SLOAD PUSH2 0x2B23 JUMP JUMPDEST PUSH1 0x0 SWAP1 PUSH1 0x1F DUP4 GT PUSH1 0x1 EQ PUSH2 0x148A JUMPI SWAP3 DUP3 PUSH1 0x1 SWAP5 SWAP4 PUSH1 0x20 SWAP4 DUP7 SWAP6 PUSH1 0x0 SWAP3 PUSH2 0x147F JUMPI JUMPDEST POP POP PUSH1 0x0 NOT PUSH1 0x3 DUP4 SWAP1 SHL SHR NOT AND SWAP1 DUP5 SHL OR DUP7 SSTORE JUMPDEST ADD SWAP4 ADD SWAP5 ADD SWAP4 SWAP2 PUSH2 0xDAC JUMP JUMPDEST ADD CALLDATALOAD SWAP1 POP DUP11 DUP1 PUSH2 0x145F JUMP JUMPDEST DUP6 PUSH1 0x0 MSTORE PUSH1 0x20 PUSH1 0x0 KECCAK256 SWAP2 PUSH1 0x0 JUMPDEST PUSH1 0x1F NOT DUP6 AND DUP2 LT PUSH2 0x14E2 JUMPI POP DUP4 PUSH1 0x20 SWAP4 PUSH1 0x1 SWAP7 SWAP4 DUP8 SWAP7 SWAP4 DUP8 SWAP5 PUSH1 0x1F NOT DUP2 AND LT PUSH2 0x14C8 JUMPI JUMPDEST POP POP POP DUP2 SHL ADD DUP7 SSTORE PUSH2 0x1473 JUMP JUMPDEST ADD CALLDATALOAD PUSH1 0x0 NOT PUSH1 0x3 DUP5 SWAP1 SHL PUSH1 0xF8 AND SHR NOT AND SWAP1 SSTORE DUP11 DUP1 DUP1 PUSH2 0x14BB JUMP JUMPDEST SWAP1 SWAP3 PUSH1 0x20 PUSH1 0x1 DUP2 SWAP3 DUP7 DUP7 ADD CALLDATALOAD DUP2 SSTORE ADD SWAP5 ADD SWAP2 ADD PUSH2 0x1497 JUMP JUMPDEST ADD CALLDATALOAD SWAP1 POP DUP4 DUP1 PUSH2 0xD3E JUMP JUMPDEST PUSH1 0x1F NOT DUP3 AND SWAP4 DUP4 PUSH1 0x0 MSTORE PUSH1 0x20 PUSH1 0x0 KECCAK256 SWAP2 PUSH1 0x0 JUMPDEST DUP7 DUP2 LT PUSH2 0x1552 JUMPI POP DUP4 PUSH1 0x1 SWAP6 SWAP7 LT PUSH2 0x1538 JUMPI JUMPDEST POP POP POP DUP2 SHL ADD SWAP1 SSTORE PUSH2 0xD53 JUMP JUMPDEST ADD CALLDATALOAD PUSH1 0x0 NOT PUSH1 0x3 DUP5 SWAP1 SHL PUSH1 0xF8 AND SHR NOT AND SWAP1 SSTORE DUP4 DUP1 DUP1 PUSH2 0x152B JUMP JUMPDEST SWAP1 SWAP3 PUSH1 0x20 PUSH1 0x1 DUP2 SWAP3 DUP7 DUP7 ADD CALLDATALOAD DUP2 SSTORE ADD SWAP5 ADD SWAP2 ADD PUSH2 0x1518 JUMP JUMPDEST ADD CALLDATALOAD SWAP1 POP DUP4 DUP1 PUSH2 0xCCE JUMP JUMPDEST DUP3 PUSH1 0x0 MSTORE PUSH1 0x20 PUSH1 0x0 KECCAK256 SWAP1 PUSH1 0x0 SWAP5 JUMPDEST PUSH1 0x1F NOT DUP5 AND DUP7 LT PUSH2 0x15C6 JUMPI PUSH1 0x1 SWAP5 SWAP6 POP DUP4 PUSH1 0x1F NOT DUP2 AND LT PUSH2 0x15AC JUMPI JUMPDEST POP POP POP DUP2 SHL ADD SWAP1 SSTORE PUSH2 0xCE3 JUMP JUMPDEST ADD CALLDATALOAD PUSH1 0x0 NOT PUSH1 0x3 DUP5 SWAP1 SHL PUSH1 0xF8 AND SHR NOT AND SWAP1 SSTORE DUP4 DUP1 DUP1 PUSH2 0x159F JUMP JUMPDEST SWAP2 PUSH1 0x20 PUSH1 0x1 DUP2 SWAP3 DUP6 DUP6 ADD CALLDATALOAD DUP2 SSTORE ADD SWAP4 ADD SWAP6 ADD SWAP5 PUSH2 0x1583 JUMP JUMPDEST PUSH1 0x40 MLOAD PUSH3 0x461BCD PUSH1 0xE5 SHL DUP2 MSTORE PUSH1 0x20 PUSH1 0x4 DUP3 ADD MSTORE PUSH1 0x16 PUSH1 0x24 DUP3 ADD MSTORE PUSH22 0x4F6E6C792073656C6C65722063616E20757064617465 PUSH1 0x50 SHL PUSH1 0x44 DUP3 ADD MSTORE PUSH1 0x64 SWAP1 REVERT JUMPDEST CALLVALUE PUSH2 0x345 JUMPI PUSH1 0x20 CALLDATASIZE PUSH1 0x3 NOT ADD SLT PUSH2 0x345 JUMPI PUSH1 0x4 CALLDATALOAD PUSH1 0x0 MSTORE PUSH1 0x5 PUSH1 0x20 MSTORE PUSH1 0x20 PUSH1 0xFF PUSH1 0x40 PUSH1 0x0 KECCAK256 SLOAD AND PUSH1 0x40 MLOAD SWAP1 ISZERO ISZERO DUP2 MSTORE RETURN JUMPDEST CALLVALUE PUSH2 0x345 JUMPI PUSH1 0x20 DUP1 PUSH1 0x3 NOT CALLDATASIZE ADD SLT PUSH2 0x345 JUMPI PUSH1 0x4 CALLDATALOAD PUSH1 0x1 PUSH1 0x1 PUSH1 0x40 SHL SUB DUP2 GT PUSH2 0x345 JUMPI PUSH2 0x167E SWAP1 CALLDATASIZE SWAP1 PUSH1 0x4 ADD PUSH2 0x2C76 JUMP JUMPDEST SWAP1 PUSH1 0x0 SWAP1 PUSH1 0x1 SWAP3 DUP4 SLOAD SWAP3 DUP3 DUP3 ADD SWAP5 JUMPDEST DUP5 DUP2 GT ISZERO PUSH2 0x17F6 JUMPI POP PUSH2 0x169F SWAP1 PUSH2 0x307A JUMP JUMPDEST SWAP4 PUSH1 0x0 SWAP2 PUSH1 0x1 JUMPDEST DUP6 DUP2 GT ISZERO PUSH2 0x16BC JUMPI PUSH1 0x40 MLOAD DUP1 PUSH2 0x341 DUP10 DUP3 PUSH2 0x2AC1 JUMP JUMPDEST DUP1 PUSH1 0x0 MSTORE PUSH1 0x3 DUP1 DUP7 MSTORE PUSH1 0x9 PUSH2 0x21E PUSH2 0x16E0 DUP3 PUSH1 0x40 PUSH1 0x0 KECCAK256 ADD PUSH1 0x40 MLOAD SWAP3 DUP4 DUP1 SWAP3 PUSH2 0x2B5D JUMP JUMPDEST DUP8 DUP2 MLOAD SWAP2 ADD KECCAK256 DUP5 MLOAD DUP7 KECCAK256 EQ DUP1 PUSH2 0x17D9 JUMPI JUMPDEST PUSH2 0x1706 JUMPI JUMPDEST POP POP PUSH2 0x1701 SWAP1 PUSH2 0x306B JUMP JUMPDEST PUSH2 0x16A6 JUMP JUMPDEST SWAP5 PUSH2 0x17D1 SWAP2 DUP4 SWAP7 PUSH2 0x1701 SWAP5 PUSH1 0x0 MSTORE DUP2 DUP10 MSTORE PUSH1 0xF PUSH1 0x40 PUSH1 0x0 KECCAK256 PUSH2 0x21E PUSH2 0x176E PUSH1 0x40 MLOAD SWAP6 PUSH2 0x1731 DUP8 PUSH2 0x2BF3 JUMP JUMPDEST DUP4 SLOAD DUP8 MSTORE PUSH1 0x1 DUP5 ADD SLOAD PUSH1 0x1 PUSH1 0x1 PUSH1 0xA0 SHL SUB AND DUP15 DUP9 ADD MSTORE PUSH1 0x40 MLOAD PUSH2 0x175B DUP2 PUSH2 0x21E DUP2 PUSH1 0x2 DUP10 ADD PUSH2 0x2B5D JUMP JUMPDEST PUSH1 0x40 DUP9 ADD MSTORE PUSH1 0x40 MLOAD SWAP3 DUP4 DUP1 SWAP3 DUP7 ADD PUSH2 0x2B5D JUMP JUMPDEST PUSH1 0x60 DUP6 ADD MSTORE PUSH1 0x4 DUP2 ADD SLOAD PUSH1 0x80 DUP6 ADD MSTORE PUSH1 0x5 DUP2 ADD SLOAD PUSH1 0xA0 DUP6 ADD MSTORE PUSH2 0x1793 PUSH1 0x6 DUP3 ADD PUSH2 0x3006 JUMP JUMPDEST PUSH1 0xC0 DUP6 ADD MSTORE PUSH2 0x17A4 PUSH1 0x7 DUP3 ADD PUSH2 0x3006 JUMP JUMPDEST PUSH1 0xE0 DUP6 ADD MSTORE PUSH2 0x21E PUSH2 0x839 PUSH1 0x8 SWAP5 PUSH2 0x17BD DUP7 DUP6 ADD PUSH2 0x3006 JUMP JUMPDEST PUSH2 0x100 DUP9 ADD MSTORE PUSH1 0x40 MLOAD SWAP3 DUP4 DUP1 SWAP3 DUP7 ADD PUSH2 0x2B5D JUMP JUMPDEST SWAP4 SWAP1 DUP9 PUSH2 0x16F6 JUMP JUMPDEST POP DUP3 PUSH1 0x0 MSTORE DUP2 DUP8 MSTORE PUSH1 0xFF PUSH1 0xF PUSH1 0x40 PUSH1 0x0 KECCAK256 ADD SLOAD PUSH1 0x8 SHR AND ISZERO PUSH2 0x16F1 JUMP JUMPDEST DUP1 PUSH1 0x0 MSTORE PUSH1 0x3 DUP1 DUP6 MSTORE PUSH2 0x21E PUSH2 0x1819 PUSH1 0x9 PUSH1 0x40 PUSH1 0x0 KECCAK256 ADD PUSH1 0x40 MLOAD SWAP3 DUP4 DUP1 SWAP3 PUSH2 0x2B5D JUMP JUMPDEST DUP6 DUP2 MLOAD SWAP2 ADD KECCAK256 DUP5 MLOAD DUP9 KECCAK256 EQ SWAP1 DUP2 PUSH2 0x1854 JUMPI JUMPDEST POP PUSH2 0x183F JUMPI JUMPDEST PUSH2 0x183A SWAP1 PUSH2 0x306B JUMP JUMPDEST PUSH2 0x168D JUMP JUMPDEST SWAP1 PUSH2 0x184C PUSH2 0x183A SWAP2 PUSH2 0x306B JUMP JUMPDEST SWAP2 SWAP1 POP PUSH2 0x1831 JUMP JUMPDEST SWAP1 POP DUP2 PUSH1 0x0 MSTORE DUP5 MSTORE PUSH1 0xFF PUSH1 0xF PUSH1 0x40 PUSH1 0x0 KECCAK256 ADD SLOAD PUSH1 0x8 SHR AND ISZERO DUP8 PUSH2 0x182B JUMP JUMPDEST CALLVALUE PUSH2 0x345 JUMPI PUSH1 0x0 CALLDATASIZE PUSH1 0x3 NOT ADD SLT PUSH2 0x345 JUMPI PUSH1 0x0 SLOAD PUSH1 0x40 MLOAD PUSH1 0x1 PUSH1 0x1 PUSH1 0xA0 SHL SUB SWAP1 SWAP2 AND DUP2 MSTORE PUSH1 0x20 SWAP1 RETURN JUMPDEST CALLVALUE PUSH2 0x345 JUMPI PUSH1 0x20 CALLDATASIZE PUSH1 0x3 NOT ADD SLT PUSH2 0x345 JUMPI PUSH1 0x4 CALLDATALOAD PUSH1 0x0 MSTORE PUSH1 0x3 PUSH1 0x20 MSTORE PUSH1 0x40 PUSH1 0x0 KECCAK256 DUP1 SLOAD PUSH1 0x1 PUSH1 0xA0 SHL PUSH1 0x1 SWAP1 SUB PUSH1 0x1 DUP4 ADD SLOAD AND SWAP2 PUSH1 0x40 MLOAD DUP1 DUP1 PUSH1 0x2 DUP5 ADD SWAP1 PUSH2 0x18E1 SWAP2 PUSH2 0x2B5D JUMP JUMPDEST SUB PUSH2 0x18EC SWAP1 DUP3 PUSH2 0x2C0F JUMP JUMPDEST PUSH1 0x40 MLOAD DUP1 PUSH2 0x18FD DUP2 PUSH1 0x3 DUP7 ADD PUSH2 0x2B5D JUMP JUMPDEST SUB PUSH2 0x1908 SWAP1 DUP3 PUSH2 0x2C0F JUMP JUMPDEST PUSH1 0x4 DUP4 ADD SLOAD PUSH1 0x5 DUP5 ADD SLOAD SWAP1 PUSH1 0x40 MLOAD DUP1 DUP1 PUSH1 0x9 DUP9 ADD SWAP1 PUSH2 0x1926 SWAP2 PUSH2 0x2B5D JUMP JUMPDEST SUB PUSH2 0x1931 SWAP1 DUP3 PUSH2 0x2C0F JUMP JUMPDEST PUSH1 0x40 MLOAD SWAP1 DUP2 PUSH2 0x1943 DUP2 PUSH1 0xA DUP11 ADD PUSH2 0x2B5D JUMP JUMPDEST SUB PUSH2 0x194E SWAP1 DUP4 PUSH2 0x2C0F JUMP JUMPDEST PUSH1 0xB DUP8 ADD SLOAD SWAP3 PUSH1 0x40 MLOAD SWAP5 DUP6 DUP1 PUSH1 0xC DUP12 ADD SWAP1 PUSH2 0x1968 SWAP2 PUSH2 0x2B5D JUMP JUMPDEST SUB PUSH2 0x1973 SWAP1 DUP8 PUSH2 0x2C0F JUMP JUMPDEST PUSH1 0x40 MLOAD SWAP7 DUP8 PUSH2 0x1985 DUP2 PUSH1 0xD DUP14 ADD PUSH2 0x2B5D JUMP JUMPDEST SUB PUSH2 0x1990 SWAP1 DUP10 PUSH2 0x2C0F JUMP JUMPDEST PUSH1 0xE DUP11 ADD SLOAD SWAP10 PUSH1 0xF ADD SLOAD SWAP9 PUSH1 0x40 MLOAD SWAP13 DUP14 SWAP13 DUP14 MSTORE PUSH1 0x20 DUP14 ADD MSTORE DUP12 PUSH2 0x1C0 PUSH1 0x40 DUP2 SWAP3 ADD MSTORE DUP13 ADD PUSH2 0x19BD SWAP2 PUSH2 0x28FC JUMP JUMPDEST DUP12 DUP2 SUB PUSH1 0x60 DUP14 ADD MSTORE PUSH2 0x19CE SWAP2 PUSH2 0x28FC JUMP JUMPDEST SWAP2 PUSH1 0x80 DUP12 ADD MSTORE PUSH1 0xA0 DUP11 ADD MSTORE DUP9 DUP2 SUB PUSH1 0xC0 DUP11 ADD MSTORE PUSH2 0x19EA SWAP2 PUSH2 0x28FC JUMP JUMPDEST DUP8 DUP2 SUB PUSH1 0xE0 DUP10 ADD MSTORE PUSH2 0x19FB SWAP2 PUSH2 0x28FC JUMP JUMPDEST SWAP1 PUSH2 0x100 DUP8 ADD MSTORE DUP6 DUP2 SUB PUSH2 0x120 DUP8 ADD MSTORE PUSH2 0x1A14 SWAP2 PUSH2 0x28FC JUMP JUMPDEST DUP5 DUP2 SUB PUSH2 0x140 DUP7 ADD MSTORE PUSH2 0x1A26 SWAP2 PUSH2 0x28FC JUMP JUMPDEST SWAP2 PUSH2 0x160 DUP5 ADD MSTORE PUSH1 0xFF DUP2 AND ISZERO ISZERO PUSH2 0x180 DUP5 ADD MSTORE PUSH1 0x8 SHR PUSH1 0xFF AND ISZERO ISZERO PUSH2 0x1A0 DUP4 ADD MSTORE SUB SWAP1 RETURN JUMPDEST CALLVALUE PUSH2 0x345 JUMPI PUSH1 0x0 CALLDATASIZE PUSH1 0x3 NOT ADD SLT PUSH2 0x345 JUMPI PUSH2 0x1A64 PUSH2 0x2CD8 JUMP JUMPDEST PUSH1 0x0 DUP1 SLOAD PUSH1 0x1 PUSH1 0x1 PUSH1 0xA0 SHL SUB NOT DUP2 AND DUP3 SSTORE PUSH1 0x1 PUSH1 0x1 PUSH1 0xA0 SHL SUB AND PUSH32 0x8BE0079C531659141344CD1FD0A4F28419497F9722A3DAAFE3B4186F6B6457E0 DUP3 DUP1 LOG3 STOP JUMPDEST CALLVALUE PUSH2 0x345 JUMPI PUSH1 0x3 NOT PUSH1 0x20 CALLDATASIZE DUP3 ADD SLT PUSH2 0x345 JUMPI PUSH1 0x1 PUSH1 0x1 PUSH1 0x40 SHL SUB PUSH1 0x4 CALLDATALOAD GT PUSH2 0x345 JUMPI PUSH2 0x1A0 SWAP1 PUSH1 0x4 CALLDATALOAD CALLDATASIZE SUB ADD SLT PUSH2 0x345 JUMPI PUSH2 0x1AE3 PUSH1 0x4 DUP1 CALLDATALOAD ADD DUP1 PUSH2 0x2D30 JUMP JUMPDEST SWAP1 POP ISZERO PUSH2 0x2709 JUMPI PUSH1 0x44 PUSH1 0x4 CALLDATALOAD ADD CALLDATALOAD ISZERO PUSH2 0x26D3 JUMPI PUSH1 0x64 PUSH1 0x4 CALLDATALOAD ADD CALLDATALOAD ISZERO PUSH2 0x269D JUMPI PUSH1 0x1 DUP1 SLOAD DUP2 ADD PUSH2 0x120 DUP2 SWAP1 MSTORE SWAP1 SSTORE PUSH2 0x1B1E PUSH1 0x4 DUP1 CALLDATALOAD ADD DUP1 PUSH2 0x2D30 JUMP JUMPDEST PUSH2 0x140 MSTORE PUSH1 0x80 MSTORE PUSH2 0x1B37 PUSH1 0x4 DUP1 CALLDATALOAD PUSH1 0x24 DUP2 ADD SWAP2 ADD PUSH2 0x2D30 JUMP JUMPDEST SWAP1 PUSH2 0x1B4A PUSH1 0x4 DUP1 CALLDATALOAD PUSH1 0x84 DUP2 ADD SWAP2 ADD PUSH2 0x2D62 JUMP JUMPDEST SWAP1 PUSH2 0x1B5D PUSH1 0x4 DUP1 CALLDATALOAD PUSH1 0xA4 DUP2 ADD SWAP2 ADD PUSH2 0x2D62 JUMP JUMPDEST SWAP1 PUSH2 0x1B70 PUSH1 0x4 DUP1 CALLDATALOAD PUSH1 0xC4 DUP2 ADD SWAP2 ADD PUSH2 0x2D62 JUMP JUMPDEST SWAP1 SWAP2 PUSH2 0x1B84 PUSH1 0x4 DUP1 CALLDATALOAD PUSH1 0xE4 DUP2 ADD SWAP2 ADD PUSH2 0x2D30 JUMP JUMPDEST SWAP5 SWAP1 SWAP6 PUSH1 0x4 CALLDATALOAD PUSH2 0x104 ADD PUSH1 0x4 CALLDATALOAD PUSH1 0x4 ADD SWAP1 PUSH2 0x1B9E SWAP2 PUSH2 0x2D30 JUMP JUMPDEST SWAP9 SWAP1 SWAP10 PUSH1 0x4 CALLDATALOAD PUSH2 0x144 ADD PUSH1 0x4 CALLDATALOAD PUSH1 0x4 ADD SWAP1 PUSH2 0x1BB8 SWAP2 PUSH2 0x2D30 JUMP JUMPDEST SWAP13 SWAP1 PUSH1 0xE0 MSTORE PUSH1 0x4 CALLDATALOAD PUSH2 0x164 ADD PUSH1 0x4 CALLDATALOAD PUSH1 0x4 ADD SWAP1 PUSH2 0x1BD4 SWAP2 PUSH2 0x2D30 JUMP JUMPDEST PUSH2 0x100 MSTORE PUSH1 0xC0 MSTORE PUSH1 0x40 MLOAD DUP1 PUSH1 0xA0 MSTORE PUSH2 0x1BEB SWAP1 PUSH2 0x2BF3 JUMP JUMPDEST PUSH2 0x120 MLOAD PUSH1 0xA0 MLOAD MSTORE CALLER PUSH1 0xA0 MLOAD PUSH1 0x20 ADD MSTORE CALLDATASIZE PUSH2 0x140 MLOAD SWAP1 PUSH1 0x80 MLOAD SWAP2 PUSH2 0x1C0E SWAP3 PUSH2 0x2C30 JUMP JUMPDEST PUSH1 0xA0 MLOAD PUSH1 0x40 ADD MSTORE CALLDATASIZE SWAP1 PUSH2 0x1C20 SWAP3 PUSH2 0x2C30 JUMP JUMPDEST PUSH1 0xA0 MLOAD PUSH1 0x60 ADD MSTORE PUSH1 0x4 CALLDATALOAD PUSH1 0x44 ADD CALLDATALOAD PUSH1 0xA0 MLOAD PUSH1 0x80 ADD MSTORE PUSH1 0x4 CALLDATALOAD PUSH1 0x64 ADD CALLDATALOAD PUSH1 0xA0 MLOAD PUSH1 0xA0 ADD MSTORE CALLDATASIZE SWAP1 PUSH2 0x1C4E SWAP3 PUSH2 0x2DAE JUMP JUMPDEST PUSH1 0xA0 MLOAD PUSH1 0xC0 ADD MSTORE CALLDATASIZE SWAP1 PUSH2 0x1C60 SWAP3 PUSH2 0x2DAE JUMP JUMPDEST PUSH1 0xA0 MLOAD PUSH1 0xE0 ADD MSTORE CALLDATASIZE SWAP1 PUSH2 0x1C72 SWAP3 PUSH2 0x2DAE JUMP JUMPDEST PUSH1 0xA0 MLOAD PUSH2 0x100 ADD MSTORE CALLDATASIZE SWAP1 PUSH2 0x1C85 SWAP3 PUSH2 0x2C30 JUMP JUMPDEST PUSH1 0xA0 MLOAD PUSH2 0x120 ADD MSTORE CALLDATASIZE SWAP1 PUSH2 0x1C98 SWAP3 PUSH2 0x2C30 JUMP JUMPDEST PUSH1 0xA0 MLOAD PUSH2 0x140 ADD MSTORE PUSH1 0x4 CALLDATALOAD PUSH2 0x124 ADD CALLDATALOAD PUSH1 0xA0 MLOAD PUSH2 0x160 ADD MSTORE CALLDATASIZE PUSH1 0xE0 MLOAD SWAP2 PUSH2 0x1CBE SWAP3 PUSH2 0x2C30 JUMP JUMPDEST PUSH1 0xA0 MLOAD PUSH2 0x180 ADD MSTORE PUSH2 0x100 MLOAD PUSH1 0xC0 MLOAD PUSH2 0x1CD8 SWAP2 CALLDATASIZE SWAP2 PUSH2 0x2C30 JUMP JUMPDEST PUSH1 0xA0 MLOAD PUSH2 0x1A0 ADD MSTORE PUSH1 0x4 CALLDATALOAD PUSH2 0x184 ADD CALLDATALOAD PUSH1 0xA0 MLOAD PUSH2 0x1C0 ADD MSTORE PUSH1 0xA0 MLOAD PUSH2 0x1E0 ADD PUSH1 0x0 SWAP1 MSTORE PUSH1 0xA0 MLOAD PUSH2 0x200 ADD PUSH1 0x0 SWAP1 MSTORE PUSH2 0x120 MLOAD PUSH1 0x0 MSTORE PUSH1 0x3 PUSH1 0x20 MSTORE PUSH1 0x40 PUSH1 0x0 KECCAK256 PUSH1 0xA0 MLOAD DUP1 MLOAD DUP3 SSTORE PUSH1 0x1 DUP3 ADD PUSH1 0x1 PUSH1 0xA0 SHL PUSH1 0x1 SWAP1 SUB PUSH1 0x20 DUP4 ADD MLOAD AND PUSH1 0x1 PUSH1 0x1 PUSH1 0x60 SHL SUB PUSH1 0xA0 SHL DUP3 SLOAD AND OR SWAP1 SSTORE PUSH1 0x40 ADD MLOAD DUP1 MLOAD SWAP1 PUSH1 0x1 PUSH1 0x1 PUSH1 0x40 SHL SUB DUP3 GT PUSH2 0x10D6 JUMPI DUP2 SWAP1 PUSH2 0x1D73 DUP3 PUSH2 0x1D6A PUSH1 0x2 DUP8 ADD SLOAD PUSH2 0x2B23 JUMP JUMPDEST PUSH1 0x2 DUP8 ADD PUSH2 0x2E34 JUMP JUMPDEST PUSH1 0x20 SWAP1 PUSH1 0x1F DUP4 GT PUSH1 0x1 EQ PUSH2 0x262B JUMPI PUSH1 0x0 SWAP3 PUSH2 0x2620 JUMPI JUMPDEST POP POP DUP2 PUSH1 0x1 SHL SWAP2 PUSH1 0x0 NOT SWAP1 PUSH1 0x3 SHL SHR NOT AND OR PUSH1 0x2 DUP3 ADD SSTORE JUMPDEST PUSH1 0x60 PUSH1 0xA0 MLOAD ADD MLOAD DUP1 MLOAD SWAP1 PUSH1 0x1 PUSH1 0x1 PUSH1 0x40 SHL SUB DUP3 GT PUSH2 0x10D6 JUMPI DUP2 SWAP1 PUSH2 0x1DD5 DUP3 PUSH2 0x1DCC PUSH1 0x3 DUP8 ADD SLOAD PUSH2 0x2B23 JUMP JUMPDEST PUSH1 0x3 DUP8 ADD PUSH2 0x2E34 JUMP JUMPDEST PUSH1 0x20 SWAP1 PUSH1 0x1F DUP4 GT PUSH1 0x1 EQ PUSH2 0x25AE JUMPI PUSH1 0x0 SWAP3 PUSH2 0x25A3 JUMPI JUMPDEST POP POP DUP2 PUSH1 0x1 SHL SWAP2 PUSH1 0x0 NOT SWAP1 PUSH1 0x3 SHL SHR NOT AND OR PUSH1 0x3 DUP3 ADD SSTORE JUMPDEST PUSH1 0xA0 MLOAD PUSH1 0x80 DUP2 ADD MLOAD PUSH1 0x4 DUP4 ADD SSTORE PUSH1 0xA0 DUP2 ADD MLOAD PUSH1 0x5 DUP4 ADD SSTORE PUSH1 0xC0 PUSH1 0x6 DUP4 ADD SWAP2 ADD MLOAD PUSH1 0x20 DUP2 MLOAD SWAP2 PUSH2 0x1E32 DUP4 DUP6 PUSH2 0x2E7B JUMP JUMPDEST ADD SWAP2 PUSH1 0x0 MSTORE PUSH1 0x20 PUSH1 0x0 KECCAK256 SWAP2 PUSH1 0x0 SWAP1 JUMPDEST DUP3 DUP3 LT PUSH2 0x24C6 JUMPI DUP5 PUSH1 0x7 DUP2 ADD PUSH1 0xE0 PUSH1 0xA0 MLOAD ADD MLOAD PUSH1 0x20 DUP2 MLOAD SWAP2 PUSH2 0x1E63 DUP4 DUP6 PUSH2 0x2E7B JUMP JUMPDEST ADD SWAP2 PUSH1 0x0 MSTORE PUSH1 0x20 PUSH1 0x0 KECCAK256 SWAP2 PUSH1 0x0 SWAP1 JUMPDEST DUP3 DUP3 LT PUSH2 0x23E9 JUMPI DUP5 PUSH1 0x8 DUP2 ADD PUSH2 0x100 PUSH1 0xA0 MLOAD ADD MLOAD PUSH1 0x20 DUP2 MLOAD SWAP2 PUSH2 0x1E95 DUP4 DUP6 PUSH2 0x2E7B JUMP JUMPDEST ADD SWAP2 PUSH1 0x0 MSTORE PUSH1 0x20 PUSH1 0x0 KECCAK256 SWAP2 PUSH1 0x0 SWAP1 JUMPDEST DUP3 DUP3 LT PUSH2 0x2306 JUMPI DUP5 PUSH2 0x120 PUSH1 0xA0 MLOAD ADD MLOAD DUP1 MLOAD SWAP1 PUSH1 0x1 PUSH1 0x1 PUSH1 0x40 SHL SUB DUP3 GT PUSH2 0x10D6 JUMPI DUP2 SWAP1 PUSH2 0x1EE1 DUP3 PUSH2 0x1ED8 PUSH1 0x9 DUP8 ADD SLOAD PUSH2 0x2B23 JUMP JUMPDEST PUSH1 0x9 DUP8 ADD PUSH2 0x2E34 JUMP JUMPDEST PUSH1 0x20 SWAP1 PUSH1 0x1F DUP4 GT PUSH1 0x1 EQ PUSH2 0x2294 JUMPI PUSH1 0x0 SWAP3 PUSH2 0x2289 JUMPI JUMPDEST POP POP DUP2 PUSH1 0x1 SHL SWAP2 PUSH1 0x0 NOT SWAP1 PUSH1 0x3 SHL SHR NOT AND OR PUSH1 0x9 DUP3 ADD SSTORE JUMPDEST PUSH2 0x140 PUSH1 0xA0 MLOAD ADD MLOAD DUP1 MLOAD SWAP1 PUSH1 0x1 PUSH1 0x1 PUSH1 0x40 SHL SUB DUP3 GT PUSH2 0x10D6 JUMPI DUP2 SWAP1 PUSH2 0x1F44 DUP3 PUSH2 0x1F3B PUSH1 0xA DUP8 ADD SLOAD PUSH2 0x2B23 JUMP JUMPDEST PUSH1 0xA DUP8 ADD PUSH2 0x2E34 JUMP JUMPDEST PUSH1 0x20 SWAP1 PUSH1 0x1F DUP4 GT PUSH1 0x1 EQ PUSH2 0x2217 JUMPI PUSH1 0x0 SWAP3 PUSH2 0x220C JUMPI JUMPDEST POP POP DUP2 PUSH1 0x1 SHL SWAP2 PUSH1 0x0 NOT SWAP1 PUSH1 0x3 SHL SHR NOT AND OR PUSH1 0xA DUP3 ADD SSTORE JUMPDEST PUSH2 0x180 PUSH1 0xA0 MLOAD PUSH2 0x160 DUP2 ADD MLOAD PUSH1 0xB DUP5 ADD SSTORE ADD MLOAD DUP1 MLOAD SWAP1 PUSH1 0x1 PUSH1 0x1 PUSH1 0x40 SHL SUB DUP3 GT PUSH2 0x10D6 JUMPI DUP2 SWAP1 PUSH2 0x1FB2 DUP3 PUSH2 0x1FA9 PUSH1 0xC DUP8 ADD SLOAD PUSH2 0x2B23 JUMP JUMPDEST PUSH1 0xC DUP8 ADD PUSH2 0x2E34 JUMP JUMPDEST PUSH1 0x20 SWAP1 PUSH1 0x1F DUP4 GT PUSH1 0x1 EQ PUSH2 0x219A JUMPI PUSH1 0x0 SWAP3 PUSH2 0x218F JUMPI JUMPDEST POP POP DUP2 PUSH1 0x1 SHL SWAP2 PUSH1 0x0 NOT SWAP1 PUSH1 0x3 SHL SHR NOT AND OR PUSH1 0xC DUP3 ADD SSTORE JUMPDEST PUSH2 0x1A0 PUSH1 0xA0 MLOAD ADD MLOAD DUP1 MLOAD SWAP1 PUSH1 0x1 PUSH1 0x1 PUSH1 0x40 SHL SUB DUP3 GT PUSH2 0x10D6 JUMPI DUP2 SWAP1 PUSH2 0x2015 DUP3 PUSH2 0x200C PUSH1 0xD DUP8 ADD SLOAD PUSH2 0x2B23 JUMP JUMPDEST PUSH1 0xD DUP8 ADD PUSH2 0x2E34 JUMP JUMPDEST PUSH1 0x20 SWAP1 PUSH1 0x1F DUP4 GT PUSH1 0x1 EQ PUSH2 0x211D JUMPI PUSH1 0x0 SWAP3 PUSH2 0x2112 JUMPI JUMPDEST POP POP DUP2 PUSH1 0x1 SHL SWAP2 PUSH1 0x0 NOT SWAP1 PUSH1 0x3 SHL SHR NOT AND OR PUSH1 0xD DUP3 ADD SSTORE JUMPDEST PUSH1 0xF PUSH1 0xA0 MLOAD SWAP2 PUSH2 0x1C0 DUP4 ADD MLOAD PUSH1 0xE DUP3 ADD SSTORE ADD SWAP1 PUSH2 0x1E0 DUP2 ADD MLOAD ISZERO ISZERO SWAP1 PUSH1 0xFF PUSH2 0xFF00 PUSH2 0x200 DUP6 SLOAD SWAP4 ADD MLOAD ISZERO ISZERO PUSH1 0x8 SHL AND SWAP3 AND SWAP1 PUSH2 0xFFFF NOT AND OR OR SWAP1 SSTORE PUSH2 0x120 MLOAD PUSH1 0x0 MSTORE PUSH1 0x5 PUSH1 0x20 MSTORE PUSH1 0x40 PUSH1 0x0 KECCAK256 PUSH1 0x1 PUSH1 0xFF NOT DUP3 SLOAD AND OR SWAP1 SSTORE CALLER PUSH1 0x0 MSTORE PUSH1 0x4 PUSH1 0x20 MSTORE PUSH1 0x40 PUSH1 0x0 KECCAK256 DUP1 SLOAD SWAP1 PUSH1 0x1 PUSH1 0x40 SHL DUP3 LT ISZERO PUSH2 0x10D6 JUMPI DUP2 PUSH2 0x20C9 SWAP2 PUSH1 0x1 PUSH1 0x20 SWAP5 ADD DUP2 SSTORE PUSH2 0x2CAA JUMP JUMPDEST SWAP1 DUP1 SLOAD SWAP2 PUSH1 0x3 SHL PUSH2 0x120 MLOAD SWAP3 DUP4 DUP3 SHL SWAP2 PUSH1 0x0 NOT SWAP1 SHL NOT AND OR SWAP1 SSTORE PUSH1 0x40 MLOAD SWAP1 CALLER DUP2 PUSH32 0xE8BB4E90E950F7B76A8C4E472B3B5E01D41C478F9EEAEA36B4BA991F51133F91 PUSH1 0x0 DUP1 LOG3 DUP2 MSTORE RETURN JUMPDEST ADD MLOAD SWAP1 POP DUP4 DUP1 PUSH2 0x202B JUMP JUMPDEST SWAP3 POP PUSH1 0xD DUP5 ADD PUSH1 0x0 MSTORE PUSH1 0x20 PUSH1 0x0 KECCAK256 SWAP1 PUSH1 0x0 SWAP4 JUMPDEST PUSH1 0x1F NOT DUP5 AND DUP6 LT PUSH2 0x2174 JUMPI PUSH1 0x1 SWAP5 POP DUP4 PUSH1 0x1F NOT DUP2 AND LT PUSH2 0x215B JUMPI JUMPDEST POP POP POP DUP2 SHL ADD PUSH1 0xD DUP3 ADD SSTORE PUSH2 0x2043 JUMP JUMPDEST ADD MLOAD PUSH1 0x0 NOT PUSH1 0xF8 DUP5 PUSH1 0x3 SHL AND SHR NOT AND SWAP1 SSTORE DUP4 DUP1 DUP1 PUSH2 0x214B JUMP JUMPDEST DUP2 DUP2 ADD MLOAD DUP4 SSTORE PUSH1 0x20 SWAP5 DUP6 ADD SWAP5 PUSH1 0x1 SWAP1 SWAP4 ADD SWAP3 SWAP1 SWAP2 ADD SWAP1 PUSH2 0x2130 JUMP JUMPDEST ADD MLOAD SWAP1 POP DUP4 DUP1 PUSH2 0x1FC8 JUMP JUMPDEST SWAP3 POP PUSH1 0xC DUP5 ADD PUSH1 0x0 MSTORE PUSH1 0x20 PUSH1 0x0 KECCAK256 SWAP1 PUSH1 0x0 SWAP4 JUMPDEST PUSH1 0x1F NOT DUP5 AND DUP6 LT PUSH2 0x21F1 JUMPI PUSH1 0x1 SWAP5 POP DUP4 PUSH1 0x1F NOT DUP2 AND LT PUSH2 0x21D8 JUMPI JUMPDEST POP POP POP DUP2 SHL ADD PUSH1 0xC DUP3 ADD SSTORE PUSH2 0x1FE0 JUMP JUMPDEST ADD MLOAD PUSH1 0x0 NOT PUSH1 0xF8 DUP5 PUSH1 0x3 SHL AND SHR NOT AND SWAP1 SSTORE DUP4 DUP1 DUP1 PUSH2 0x21C8 JUMP JUMPDEST DUP2 DUP2 ADD MLOAD DUP4 SSTORE PUSH1 0x20 SWAP5 DUP6 ADD SWAP5 PUSH1 0x1 SWAP1 SWAP4 ADD SWAP3 SWAP1 SWAP2 ADD SWAP1 PUSH2 0x21AD JUMP JUMPDEST ADD MLOAD SWAP1 POP DUP4 DUP1 PUSH2 0x1F5A JUMP JUMPDEST SWAP3 POP PUSH1 0xA DUP5 ADD PUSH1 0x0 MSTORE PUSH1 0x20 PUSH1 0x0 KECCAK256 SWAP1 PUSH1 0x0 SWAP4 JUMPDEST PUSH1 0x1F NOT DUP5 AND DUP6 LT PUSH2 0x226E JUMPI PUSH1 0x1 SWAP5 POP DUP4 PUSH1 0x1F NOT DUP2 AND LT PUSH2 0x2255 JUMPI JUMPDEST POP POP POP DUP2 SHL ADD PUSH1 0xA DUP3 ADD SSTORE PUSH2 0x1F72 JUMP JUMPDEST ADD MLOAD PUSH1 0x0 NOT PUSH1 0xF8 DUP5 PUSH1 0x3 SHL AND SHR NOT AND SWAP1 SSTORE DUP4 DUP1 DUP1 PUSH2 0x2245 JUMP JUMPDEST DUP2 DUP2 ADD MLOAD DUP4 SSTORE PUSH1 0x20 SWAP5 DUP6 ADD SWAP5 PUSH1 0x1 SWAP1 SWAP4 ADD SWAP3 SWAP1 SWAP2 ADD SWAP1 PUSH2 0x222A JUMP JUMPDEST ADD MLOAD SWAP1 POP DUP4 DUP1 PUSH2 0x1EF7 JUMP JUMPDEST SWAP3 POP PUSH1 0x9 DUP5 ADD PUSH1 0x0 MSTORE PUSH1 0x20 PUSH1 0x0 KECCAK256 SWAP1 PUSH1 0x0 SWAP4 JUMPDEST PUSH1 0x1F NOT DUP5 AND DUP6 LT PUSH2 0x22EB JUMPI PUSH1 0x1 SWAP5 POP DUP4 PUSH1 0x1F NOT DUP2 AND LT PUSH2 0x22D2 JUMPI JUMPDEST POP POP POP DUP2 SHL ADD PUSH1 0x9 DUP3 ADD SSTORE PUSH2 0x1F0F JUMP JUMPDEST ADD MLOAD PUSH1 0x0 NOT PUSH1 0xF8 DUP5 PUSH1 0x3 SHL AND SHR NOT AND SWAP1 SSTORE DUP4 DUP1 DUP1 PUSH2 0x22C2 JUMP JUMPDEST DUP2 DUP2 ADD MLOAD DUP4 SSTORE PUSH1 0x20 SWAP5 DUP6 ADD SWAP5 PUSH1 0x1 SWAP1 SWAP4 ADD SWAP3 SWAP1 SWAP2 ADD SWAP1 PUSH2 0x22A7 JUMP JUMPDEST DUP1 MLOAD DUP1 MLOAD SWAP1 PUSH1 0x1 PUSH1 0x1 PUSH1 0x40 SHL SUB DUP3 GT PUSH2 0x10D6 JUMPI PUSH2 0x232D DUP3 PUSH2 0x2327 DUP9 SLOAD PUSH2 0x2B23 JUMP JUMPDEST DUP9 PUSH2 0x2E34 JUMP JUMPDEST PUSH1 0x20 SWAP1 PUSH1 0x1F DUP4 GT PUSH1 0x1 EQ PUSH2 0x2379 JUMPI SWAP3 DUP3 PUSH1 0x1 SWAP5 SWAP4 PUSH1 0x20 SWAP4 DUP7 SWAP6 PUSH1 0x0 SWAP3 PUSH2 0x236E JUMPI JUMPDEST POP POP PUSH1 0x0 NOT PUSH1 0x3 DUP4 SWAP1 SHL SHR NOT AND SWAP1 DUP5 SHL OR DUP8 SSTORE JUMPDEST ADD SWAP5 ADD SWAP2 ADD SWAP1 SWAP3 PUSH2 0x1EA4 JUMP JUMPDEST ADD MLOAD SWAP1 POP DUP11 DUP1 PUSH2 0x234E JUMP JUMPDEST SWAP1 DUP7 PUSH1 0x0 MSTORE PUSH1 0x20 PUSH1 0x0 KECCAK256 SWAP2 PUSH1 0x0 JUMPDEST PUSH1 0x1F NOT DUP6 AND DUP2 LT PUSH2 0x23D1 JUMPI POP DUP4 PUSH1 0x20 SWAP4 PUSH1 0x1 SWAP7 SWAP4 DUP8 SWAP7 SWAP4 DUP8 SWAP5 PUSH1 0x1F NOT DUP2 AND LT PUSH2 0x23B8 JUMPI JUMPDEST POP POP POP DUP2 SHL ADD DUP8 SSTORE PUSH2 0x2362 JUMP JUMPDEST ADD MLOAD PUSH1 0x0 NOT PUSH1 0xF8 DUP5 PUSH1 0x3 SHL AND SHR NOT AND SWAP1 SSTORE DUP11 DUP1 DUP1 PUSH2 0x23AB JUMP JUMPDEST SWAP2 SWAP3 PUSH1 0x20 PUSH1 0x1 DUP2 SWAP3 DUP7 DUP6 ADD MLOAD DUP2 SSTORE ADD SWAP5 ADD SWAP3 ADD PUSH2 0x2387 JUMP JUMPDEST DUP1 MLOAD DUP1 MLOAD SWAP1 PUSH1 0x1 PUSH1 0x1 PUSH1 0x40 SHL SUB DUP3 GT PUSH2 0x10D6 JUMPI PUSH2 0x240A DUP3 PUSH2 0x2327 DUP9 SLOAD PUSH2 0x2B23 JUMP JUMPDEST PUSH1 0x20 SWAP1 PUSH1 0x1F DUP4 GT PUSH1 0x1 EQ PUSH2 0x2456 JUMPI SWAP3 DUP3 PUSH1 0x1 SWAP5 SWAP4 PUSH1 0x20 SWAP4 DUP7 SWAP6 PUSH1 0x0 SWAP3 PUSH2 0x244B JUMPI JUMPDEST POP POP PUSH1 0x0 NOT PUSH1 0x3 DUP4 SWAP1 SHL SHR NOT AND SWAP1 DUP5 SHL OR DUP8 SSTORE JUMPDEST ADD SWAP5 ADD SWAP2 ADD SWAP1 SWAP3 PUSH2 0x1E72 JUMP JUMPDEST ADD MLOAD SWAP1 POP DUP11 DUP1 PUSH2 0x242B JUMP JUMPDEST SWAP1 DUP7 PUSH1 0x0 MSTORE PUSH1 0x20 PUSH1 0x0 KECCAK256 SWAP2 PUSH1 0x0 JUMPDEST PUSH1 0x1F NOT DUP6 AND DUP2 LT PUSH2 0x24AE JUMPI POP DUP4 PUSH1 0x20 SWAP4 PUSH1 0x1 SWAP7 SWAP4 DUP8 SWAP7 SWAP4 DUP8 SWAP5 PUSH1 0x1F NOT DUP2 AND LT PUSH2 0x2495 JUMPI JUMPDEST POP POP POP DUP2 SHL ADD DUP8 SSTORE PUSH2 0x243F JUMP JUMPDEST ADD MLOAD PUSH1 0x0 NOT PUSH1 0xF8 DUP5 PUSH1 0x3 SHL AND SHR NOT AND SWAP1 SSTORE DUP11 DUP1 DUP1 PUSH2 0x2488 JUMP JUMPDEST SWAP2 SWAP3 PUSH1 0x20 PUSH1 0x1 DUP2 SWAP3 DUP7 DUP6 ADD MLOAD DUP2 SSTORE ADD SWAP5 ADD SWAP3 ADD PUSH2 0x2464 JUMP JUMPDEST DUP1 MLOAD DUP1 MLOAD SWAP1 PUSH1 0x1 PUSH1 0x1 PUSH1 0x40 SHL SUB DUP3 GT PUSH2 0x10D6 JUMPI PUSH2 0x24E7 DUP3 PUSH2 0x2327 DUP9 SLOAD PUSH2 0x2B23 JUMP JUMPDEST PUSH1 0x20 SWAP1 PUSH1 0x1F DUP4 GT PUSH1 0x1 EQ PUSH2 0x2533 JUMPI SWAP3 DUP3 PUSH1 0x1 SWAP5 SWAP4 PUSH1 0x20 SWAP4 DUP7 SWAP6 PUSH1 0x0 SWAP3 PUSH2 0x2528 JUMPI JUMPDEST POP POP PUSH1 0x0 NOT PUSH1 0x3 DUP4 SWAP1 SHL SHR NOT AND SWAP1 DUP5 SHL OR DUP8 SSTORE JUMPDEST ADD SWAP5 ADD SWAP2 ADD SWAP1 SWAP3 PUSH2 0x1E41 JUMP JUMPDEST ADD MLOAD SWAP1 POP DUP11 DUP1 PUSH2 0x2508 JUMP JUMPDEST SWAP1 DUP7 PUSH1 0x0 MSTORE PUSH1 0x20 PUSH1 0x0 KECCAK256 SWAP2 PUSH1 0x0 JUMPDEST PUSH1 0x1F NOT DUP6 AND DUP2 LT PUSH2 0x258B JUMPI POP DUP4 PUSH1 0x20 SWAP4 PUSH1 0x1 SWAP7 SWAP4 DUP8 SWAP7 SWAP4 DUP8 SWAP5 PUSH1 0x1F NOT DUP2 AND LT PUSH2 0x2572 JUMPI JUMPDEST POP POP POP DUP2 SHL ADD DUP8 SSTORE PUSH2 0x251C JUMP JUMPDEST ADD MLOAD PUSH1 0x0 NOT PUSH1 0xF8 DUP5 PUSH1 0x3 SHL AND SHR NOT AND SWAP1 SSTORE DUP11 DUP1 DUP1 PUSH2 0x2565 JUMP JUMPDEST SWAP2 SWAP3 PUSH1 0x20 PUSH1 0x1 DUP2 SWAP3 DUP7 DUP6 ADD MLOAD DUP2 SSTORE ADD SWAP5 ADD SWAP3 ADD PUSH2 0x2541 JUMP JUMPDEST ADD MLOAD SWAP1 POP DUP4 DUP1 PUSH2 0x1DEB JUMP JUMPDEST SWAP3 POP PUSH1 0x3 DUP5 ADD PUSH1 0x0 MSTORE PUSH1 0x20 PUSH1 0x0 KECCAK256 SWAP1 PUSH1 0x0 SWAP4 JUMPDEST PUSH1 0x1F NOT DUP5 AND DUP6 LT PUSH2 0x2605 JUMPI PUSH1 0x1 SWAP5 POP DUP4 PUSH1 0x1F NOT DUP2 AND LT PUSH2 0x25EC JUMPI JUMPDEST POP POP POP DUP2 SHL ADD PUSH1 0x3 DUP3 ADD SSTORE PUSH2 0x1E03 JUMP JUMPDEST ADD MLOAD PUSH1 0x0 NOT PUSH1 0xF8 DUP5 PUSH1 0x3 SHL AND SHR NOT AND SWAP1 SSTORE DUP4 DUP1 DUP1 PUSH2 0x25DC JUMP JUMPDEST DUP2 DUP2 ADD MLOAD DUP4 SSTORE PUSH1 0x20 SWAP5 DUP6 ADD SWAP5 PUSH1 0x1 SWAP1 SWAP4 ADD SWAP3 SWAP1 SWAP2 ADD SWAP1 PUSH2 0x25C1 JUMP JUMPDEST ADD MLOAD SWAP1 POP DUP4 DUP1 PUSH2 0x1D89 JUMP JUMPDEST SWAP3 POP PUSH1 0x2 DUP5 ADD PUSH1 0x0 MSTORE PUSH1 0x20 PUSH1 0x0 KECCAK256 SWAP1 PUSH1 0x0 SWAP4 JUMPDEST PUSH1 0x1F NOT DUP5 AND DUP6 LT PUSH2 0x2682 JUMPI PUSH1 0x1 SWAP5 POP DUP4 PUSH1 0x1F NOT DUP2 AND LT PUSH2 0x2669 JUMPI JUMPDEST POP POP POP DUP2 SHL ADD PUSH1 0x2 DUP3 ADD SSTORE PUSH2 0x1DA1 JUMP JUMPDEST ADD MLOAD PUSH1 0x0 NOT PUSH1 0xF8 DUP5 PUSH1 0x3 SHL AND SHR NOT AND SWAP1 SSTORE DUP4 DUP1 DUP1 PUSH2 0x2659 JUMP JUMPDEST DUP2 DUP2 ADD MLOAD DUP4 SSTORE PUSH1 0x20 SWAP5 DUP6 ADD SWAP5 PUSH1 0x1 SWAP1 SWAP4 ADD SWAP3 SWAP1 SWAP2 ADD SWAP1 PUSH2 0x263E JUMP JUMPDEST PUSH1 0x40 MLOAD PUSH3 0x461BCD PUSH1 0xE5 SHL DUP2 MSTORE PUSH1 0x20 PUSH1 0x4 DUP3 ADD MSTORE PUSH1 0xE PUSH1 0x24 DUP3 ADD MSTORE PUSH14 0x14DD1BD8DAC81C995C5D5A5C9959 PUSH1 0x92 SHL PUSH1 0x44 DUP3 ADD MSTORE PUSH1 0x64 SWAP1 REVERT JUMPDEST PUSH1 0x40 MLOAD PUSH3 0x461BCD PUSH1 0xE5 SHL DUP2 MSTORE PUSH1 0x20 PUSH1 0x4 DUP3 ADD MSTORE PUSH1 0xE PUSH1 0x24 DUP3 ADD MSTORE PUSH14 0x141C9A58D9481C995C5D5A5C9959 PUSH1 0x92 SHL PUSH1 0x44 DUP3 ADD MSTORE PUSH1 0x64 SWAP1 REVERT JUMPDEST PUSH1 0x40 MLOAD PUSH3 0x461BCD PUSH1 0xE5 SHL DUP2 MSTORE PUSH1 0x20 PUSH1 0x4 DUP3 ADD MSTORE PUSH1 0xD PUSH1 0x24 DUP3 ADD MSTORE PUSH13 0x13985B59481C995C5D5A5C9959 PUSH1 0x9A SHL PUSH1 0x44 DUP3 ADD MSTORE PUSH1 0x64 SWAP1 REVERT JUMPDEST CALLVALUE PUSH2 0x345 JUMPI PUSH1 0x0 CALLDATASIZE PUSH1 0x3 NOT ADD SLT PUSH2 0x345 JUMPI PUSH1 0x20 PUSH1 0x1 SLOAD PUSH1 0x40 MLOAD SWAP1 DUP2 MSTORE RETURN JUMPDEST CALLVALUE PUSH2 0x345 JUMPI PUSH1 0x0 CALLDATASIZE PUSH1 0x3 NOT ADD SLT PUSH2 0x345 JUMPI PUSH1 0x0 PUSH1 0x1 SWAP1 DUP2 SLOAD SWAP2 JUMPDEST DUP3 DUP2 GT ISZERO PUSH2 0x28BB JUMPI POP PUSH2 0x2788 SWAP1 PUSH2 0x307A JUMP JUMPDEST SWAP1 PUSH1 0x0 PUSH1 0x1 JUMPDEST DUP3 DUP2 GT ISZERO PUSH2 0x27A4 JUMPI PUSH1 0x40 MLOAD DUP1 PUSH2 0x341 DUP7 DUP3 PUSH2 0x2AC1 JUMP JUMPDEST DUP1 PUSH1 0x0 MSTORE PUSH1 0x3 PUSH1 0x20 SWAP1 DUP1 DUP3 MSTORE PUSH1 0x40 PUSH1 0x0 KECCAK256 PUSH1 0xF DUP2 ADD SLOAD PUSH1 0xFF SWAP2 PUSH1 0x8 DUP4 DUP4 DUP3 SHR AND ISZERO SWAP5 DUP6 PUSH2 0x27E1 JUMPI JUMPDEST POP POP POP POP POP POP POP PUSH2 0x27DC SWAP1 PUSH2 0x306B JUMP JUMPDEST PUSH2 0x278E JUMP JUMPDEST PUSH2 0x28AE SWAP7 SWAP5 SWAP3 PUSH2 0x2808 PUSH2 0x27DC SWAP10 SWAP11 SWAP8 SWAP6 SWAP4 PUSH2 0x21E PUSH2 0x238 PUSH1 0xE SWAP6 PUSH1 0x40 MLOAD SWAP11 PUSH2 0x1F4 DUP13 PUSH2 0x2BF3 JUMP JUMPDEST PUSH2 0x100 DUP8 ADD MSTORE PUSH1 0x40 MLOAD PUSH2 0x2822 DUP2 PUSH2 0x21E DUP2 PUSH1 0x9 DUP7 ADD PUSH2 0x2B5D JUMP JUMPDEST PUSH2 0x120 DUP8 ADD MSTORE PUSH1 0x40 MLOAD PUSH2 0x283C DUP2 PUSH2 0x21E DUP2 PUSH1 0xA DUP7 ADD PUSH2 0x2B5D JUMP JUMPDEST PUSH2 0x140 DUP8 ADD MSTORE PUSH1 0xB DUP2 ADD SLOAD PUSH2 0x160 DUP8 ADD MSTORE PUSH1 0x40 MLOAD PUSH2 0x2861 DUP2 PUSH2 0x21E DUP2 PUSH1 0xC DUP7 ADD PUSH2 0x2B5D JUMP JUMPDEST PUSH2 0x180 DUP8 ADD MSTORE PUSH1 0x40 MLOAD PUSH2 0x287B DUP2 PUSH2 0x21E DUP2 PUSH1 0xD DUP7 ADD PUSH2 0x2B5D JUMP JUMPDEST PUSH2 0x1A0 DUP8 ADD MSTORE ADD SLOAD PUSH2 0x1C0 DUP6 ADD MSTORE AND ISZERO ISZERO PUSH2 0x1E0 DUP4 ADD MSTORE ISZERO PUSH2 0x200 DUP3 ADD MSTORE PUSH2 0x28A3 DUP3 DUP9 PUSH2 0x30CA JUMP JUMPDEST MSTORE PUSH2 0x320 DUP2 DUP8 PUSH2 0x30CA JUMP JUMPDEST SWAP2 SWAP1 DUP6 DUP1 DUP1 DUP1 DUP1 DUP1 PUSH2 0x27CC JUMP JUMPDEST DUP1 PUSH1 0x0 MSTORE PUSH1 0x3 PUSH1 0x20 MSTORE PUSH1 0xFF PUSH1 0xF PUSH1 0x40 PUSH1 0x0 KECCAK256 ADD SLOAD PUSH1 0x8 SHR AND ISZERO PUSH2 0x28E7 JUMPI JUMPDEST PUSH2 0x28E2 SWAP1 PUSH2 0x306B JUMP JUMPDEST PUSH2 0x2776 JUMP JUMPDEST SWAP1 PUSH2 0x28F4 PUSH2 0x28E2 SWAP2 PUSH2 0x306B JUMP JUMPDEST SWAP2 SWAP1 POP PUSH2 0x28D9 JUMP JUMPDEST SWAP2 SWAP1 DUP3 MLOAD SWAP3 DUP4 DUP3 MSTORE PUSH1 0x0 JUMPDEST DUP5 DUP2 LT PUSH2 0x2928 JUMPI POP POP DUP3 PUSH1 0x0 PUSH1 0x20 DUP1 SWAP5 SWAP6 DUP5 ADD ADD MSTORE PUSH1 0x1F DUP1 NOT SWAP2 ADD AND ADD ADD SWAP1 JUMP JUMPDEST PUSH1 0x20 DUP2 DUP4 ADD DUP2 ADD MLOAD DUP5 DUP4 ADD DUP3 ADD MSTORE ADD PUSH2 0x2907 JUMP JUMPDEST SWAP1 DUP1 DUP3 MLOAD SWAP1 DUP2 DUP2 MSTORE PUSH1 0x20 DUP1 SWAP2 ADD SWAP3 DUP2 DUP1 DUP5 PUSH1 0x5 SHL DUP4 ADD ADD SWAP6 ADD SWAP4 PUSH1 0x0 SWAP2 JUMPDEST DUP5 DUP4 LT PUSH2 0x296A JUMPI POP POP POP POP POP POP SWAP1 JUMP JUMPDEST SWAP1 SWAP2 SWAP3 SWAP4 SWAP5 SWAP6 DUP5 DUP1 PUSH2 0x2988 PUSH1 0x1 SWAP4 PUSH1 0x1F NOT DUP7 DUP3 SUB ADD DUP8 MSTORE DUP11 MLOAD PUSH2 0x28FC JUMP JUMPDEST SWAP9 ADD SWAP4 ADD SWAP4 ADD SWAP2 SWAP5 SWAP4 SWAP3 SWAP1 PUSH2 0x295A JUMP JUMPDEST SWAP1 DUP2 MLOAD DUP2 MSTORE PUSH1 0x1 DUP1 PUSH1 0xA0 SHL SUB PUSH1 0x20 DUP4 ADD MLOAD AND PUSH1 0x20 DUP3 ADD MSTORE PUSH2 0x2A99 PUSH2 0x2A85 PUSH2 0x2A66 PUSH2 0x2A52 PUSH2 0x2A3E PUSH2 0x2A2A PUSH2 0x2A18 PUSH2 0x29F2 PUSH2 0x29E0 PUSH1 0x40 DUP12 ADD MLOAD PUSH2 0x220 DUP1 PUSH1 0x40 DUP14 ADD MSTORE DUP12 ADD SWAP1 PUSH2 0x28FC JUMP JUMPDEST PUSH1 0x60 DUP12 ADD MLOAD DUP11 DUP3 SUB PUSH1 0x60 DUP13 ADD MSTORE PUSH2 0x28FC JUMP JUMPDEST PUSH1 0x80 DUP11 ADD MLOAD PUSH1 0x80 DUP11 ADD MSTORE PUSH1 0xA0 DUP11 ADD MLOAD PUSH1 0xA0 DUP11 ADD MSTORE PUSH1 0xC0 DUP11 ADD MLOAD DUP10 DUP3 SUB PUSH1 0xC0 DUP12 ADD MSTORE PUSH2 0x293C JUMP JUMPDEST PUSH1 0xE0 DUP10 ADD MLOAD DUP9 DUP3 SUB PUSH1 0xE0 DUP11 ADD MSTORE PUSH2 0x293C JUMP JUMPDEST PUSH2 0x100 DUP1 DUP10 ADD MLOAD SWAP1 DUP9 DUP4 SUB SWAP1 DUP10 ADD MSTORE PUSH2 0x293C JUMP JUMPDEST PUSH2 0x120 DUP1 DUP9 ADD MLOAD SWAP1 DUP8 DUP4 SUB SWAP1 DUP9 ADD MSTORE PUSH2 0x28FC JUMP JUMPDEST PUSH2 0x140 DUP1 DUP8 ADD MLOAD SWAP1 DUP7 DUP4 SUB SWAP1 DUP8 ADD MSTORE PUSH2 0x28FC JUMP JUMPDEST PUSH2 0x160 DUP1 DUP7 ADD MLOAD SWAP1 DUP6 ADD MSTORE PUSH2 0x180 DUP1 DUP7 ADD MLOAD SWAP1 DUP6 DUP4 SUB SWAP1 DUP7 ADD MSTORE PUSH2 0x28FC JUMP JUMPDEST PUSH2 0x1A0 DUP1 DUP6 ADD MLOAD SWAP1 DUP5 DUP4 SUB SWAP1 DUP6 ADD MSTORE PUSH2 0x28FC JUMP JUMPDEST SWAP2 PUSH2 0x1C0 DUP1 DUP3 ADD MLOAD SWAP1 DUP4 ADD MSTORE PUSH2 0x1E0 DUP1 DUP3 ADD MLOAD ISZERO ISZERO SWAP1 DUP4 ADD MSTORE PUSH2 0x200 DUP1 SWAP2 ADD MLOAD ISZERO ISZERO SWAP2 ADD MSTORE SWAP1 JUMP JUMPDEST PUSH1 0x20 DUP1 DUP3 ADD SWAP1 DUP1 DUP4 MSTORE DUP4 MLOAD DUP1 SWAP3 MSTORE PUSH1 0x40 DUP4 ADD SWAP3 DUP2 PUSH1 0x40 DUP5 PUSH1 0x5 SHL DUP4 ADD ADD SWAP6 ADD SWAP4 PUSH1 0x0 SWAP2 JUMPDEST DUP5 DUP4 LT PUSH2 0x2AF5 JUMPI POP POP POP POP POP POP SWAP1 JUMP JUMPDEST SWAP1 SWAP2 SWAP3 SWAP4 SWAP5 SWAP6 DUP5 DUP1 PUSH2 0x2B13 PUSH1 0x1 SWAP4 PUSH1 0x3F NOT DUP7 DUP3 SUB ADD DUP8 MSTORE DUP11 MLOAD PUSH2 0x2998 JUMP JUMPDEST SWAP9 ADD SWAP4 ADD SWAP4 ADD SWAP2 SWAP5 SWAP4 SWAP3 SWAP1 PUSH2 0x2AE5 JUMP JUMPDEST SWAP1 PUSH1 0x1 DUP3 DUP2 SHR SWAP3 AND DUP1 ISZERO PUSH2 0x2B53 JUMPI JUMPDEST PUSH1 0x20 DUP4 LT EQ PUSH2 0x2B3D JUMPI JUMP JUMPDEST PUSH4 0x4E487B71 PUSH1 0xE0 SHL PUSH1 0x0 MSTORE PUSH1 0x22 PUSH1 0x4 MSTORE PUSH1 0x24 PUSH1 0x0 REVERT JUMPDEST SWAP2 PUSH1 0x7F AND SWAP2 PUSH2 0x2B32 JUMP JUMPDEST SWAP1 PUSH1 0x0 SWAP3 SWAP2 DUP1 SLOAD SWAP2 PUSH2 0x2B6E DUP4 PUSH2 0x2B23 JUMP JUMPDEST SWAP2 DUP3 DUP3 MSTORE PUSH1 0x1 SWAP4 DUP5 DUP2 AND SWAP1 DUP2 PUSH1 0x0 EQ PUSH2 0x2BD0 JUMPI POP PUSH1 0x1 EQ PUSH2 0x2B90 JUMPI JUMPDEST POP POP POP POP JUMP JUMPDEST SWAP1 SWAP2 SWAP4 SWAP5 POP PUSH1 0x0 MSTORE PUSH1 0x20 SWAP3 DUP4 PUSH1 0x0 KECCAK256 SWAP3 DUP5 PUSH1 0x0 SWAP5 JUMPDEST DUP4 DUP7 LT PUSH2 0x2BBC JUMPI POP POP POP POP ADD ADD SWAP1 CODESIZE DUP1 DUP1 DUP1 PUSH2 0x2B8A JUMP JUMPDEST DUP1 SLOAD DUP6 DUP8 ADD DUP4 ADD MSTORE SWAP5 ADD SWAP4 DUP6 SWAP1 DUP3 ADD PUSH2 0x2BA5 JUMP JUMPDEST SWAP3 SWAP5 POP POP POP PUSH1 0x20 SWAP4 SWAP5 POP PUSH1 0xFF NOT AND DUP4 DUP4 ADD MSTORE ISZERO ISZERO PUSH1 0x5 SHL ADD ADD SWAP1 CODESIZE DUP1 DUP1 DUP1 PUSH2 0x2B8A JUMP JUMPDEST PUSH2 0x220 DUP2 ADD SWAP1 DUP2 LT PUSH1 0x1 PUSH1 0x1 PUSH1 0x40 SHL SUB DUP3 GT OR PUSH2 0x10D6 JUMPI PUSH1 0x40 MSTORE JUMP JUMPDEST SWAP1 PUSH1 0x1F DUP1 NOT SWAP2 ADD AND DUP2 ADD SWAP1 DUP2 LT PUSH1 0x1 PUSH1 0x1 PUSH1 0x40 SHL SUB DUP3 GT OR PUSH2 0x10D6 JUMPI PUSH1 0x40 MSTORE JUMP JUMPDEST SWAP3 SWAP2 SWAP3 PUSH1 0x1 PUSH1 0x1 PUSH1 0x40 SHL SUB DUP3 GT PUSH2 0x10D6 JUMPI PUSH1 0x40 MLOAD SWAP2 PUSH2 0x2C59 PUSH1 0x1F DUP3 ADD PUSH1 0x1F NOT AND PUSH1 0x20 ADD DUP5 PUSH2 0x2C0F JUMP JUMPDEST DUP3 SWAP5 DUP2 DUP5 MSTORE DUP2 DUP4 ADD GT PUSH2 0x345 JUMPI DUP3 DUP2 PUSH1 0x20 SWAP4 DUP5 PUSH1 0x0 SWAP7 ADD CALLDATACOPY ADD ADD MSTORE JUMP JUMPDEST SWAP1 DUP1 PUSH1 0x1F DUP4 ADD SLT ISZERO PUSH2 0x345 JUMPI DUP2 PUSH1 0x20 PUSH2 0x2C91 SWAP4 CALLDATALOAD SWAP2 ADD PUSH2 0x2C30 JUMP JUMPDEST SWAP1 JUMP JUMPDEST PUSH1 0x4 CALLDATALOAD SWAP1 PUSH1 0x1 PUSH1 0x1 PUSH1 0xA0 SHL SUB DUP3 AND DUP3 SUB PUSH2 0x345 JUMPI JUMP JUMPDEST DUP1 SLOAD DUP3 LT ISZERO PUSH2 0x2CC2 JUMPI PUSH1 0x0 MSTORE PUSH1 0x20 PUSH1 0x0 KECCAK256 ADD SWAP1 PUSH1 0x0 SWAP1 JUMP JUMPDEST PUSH4 0x4E487B71 PUSH1 0xE0 SHL PUSH1 0x0 MSTORE PUSH1 0x32 PUSH1 0x4 MSTORE PUSH1 0x24 PUSH1 0x0 REVERT JUMPDEST PUSH1 0x0 SLOAD PUSH1 0x1 PUSH1 0x1 PUSH1 0xA0 SHL SUB AND CALLER SUB PUSH2 0x2CEC JUMPI JUMP JUMPDEST PUSH1 0x64 PUSH1 0x40 MLOAD PUSH3 0x461BCD PUSH1 0xE5 SHL DUP2 MSTORE PUSH1 0x20 PUSH1 0x4 DUP3 ADD MSTORE PUSH1 0x20 PUSH1 0x24 DUP3 ADD MSTORE PUSH32 0x4F776E61626C653A2063616C6C6572206973206E6F7420746865206F776E6572 PUSH1 0x44 DUP3 ADD MSTORE REVERT JUMPDEST SWAP1 CALLDATALOAD SWAP1 PUSH1 0x1E NOT DUP2 CALLDATASIZE SUB ADD DUP3 SLT ISZERO PUSH2 0x345 JUMPI ADD DUP1 CALLDATALOAD SWAP1 PUSH1 0x1 PUSH1 0x1 PUSH1 0x40 SHL SUB DUP3 GT PUSH2 0x345 JUMPI PUSH1 0x20 ADD SWAP2 DUP2 CALLDATASIZE SUB DUP4 SGT PUSH2 0x345 JUMPI JUMP JUMPDEST SWAP1 CALLDATALOAD SWAP1 PUSH1 0x1E NOT DUP2 CALLDATASIZE SUB ADD DUP3 SLT ISZERO PUSH2 0x345 JUMPI ADD DUP1 CALLDATALOAD SWAP1 PUSH1 0x1 PUSH1 0x1 PUSH1 0x40 SHL SUB DUP3 GT PUSH2 0x345 JUMPI PUSH1 0x20 ADD SWAP2 DUP2 PUSH1 0x5 SHL CALLDATASIZE SUB DUP4 SGT PUSH2 0x345 JUMPI JUMP JUMPDEST PUSH1 0x1 PUSH1 0x1 PUSH1 0x40 SHL SUB DUP2 GT PUSH2 0x10D6 JUMPI PUSH1 0x5 SHL PUSH1 0x20 ADD SWAP1 JUMP JUMPDEST SWAP3 SWAP2 SWAP1 SWAP3 PUSH2 0x2DBB DUP5 PUSH2 0x2D97 JUMP JUMPDEST SWAP2 PUSH2 0x2DC9 PUSH1 0x40 MLOAD SWAP4 DUP5 PUSH2 0x2C0F JUMP JUMPDEST DUP3 SWAP5 DUP1 DUP5 MSTORE PUSH1 0x20 DUP1 SWAP5 ADD SWAP1 PUSH1 0x5 SHL DUP4 ADD SWAP3 DUP3 DUP5 GT PUSH2 0x345 JUMPI DUP1 SWAP2 JUMPDEST DUP5 DUP4 LT PUSH2 0x2DF3 JUMPI POP POP POP POP POP POP JUMP JUMPDEST DUP3 CALLDATALOAD PUSH1 0x1 PUSH1 0x1 PUSH1 0x40 SHL SUB DUP2 GT PUSH2 0x345 JUMPI DUP7 SWAP2 PUSH2 0x2E12 DUP7 DUP5 SWAP4 DUP7 ADD PUSH2 0x2C76 JUMP JUMPDEST DUP2 MSTORE ADD SWAP3 ADD SWAP2 PUSH2 0x2DE4 JUMP JUMPDEST DUP2 DUP2 LT PUSH2 0x2E28 JUMPI POP POP JUMP JUMPDEST PUSH1 0x0 DUP2 SSTORE PUSH1 0x1 ADD PUSH2 0x2E1D JUMP JUMPDEST SWAP2 SWAP1 PUSH1 0x1F DUP2 GT PUSH2 0x2E43 JUMPI POP POP POP JUMP JUMPDEST PUSH2 0x2E6F SWAP3 PUSH1 0x0 MSTORE PUSH1 0x20 PUSH1 0x0 KECCAK256 SWAP1 PUSH1 0x20 PUSH1 0x1F DUP5 ADD PUSH1 0x5 SHR DUP4 ADD SWAP4 LT PUSH2 0x2E71 JUMPI JUMPDEST PUSH1 0x1F ADD PUSH1 0x5 SHR ADD SWAP1 PUSH2 0x2E1D JUMP JUMPDEST JUMP JUMPDEST SWAP1 SWAP2 POP DUP2 SWAP1 PUSH2 0x2E62 JUMP JUMPDEST PUSH1 0x1 PUSH1 0x40 SHL DUP3 GT PUSH2 0x10D6 JUMPI DUP1 SLOAD SWAP2 DUP1 DUP3 SSTORE DUP3 DUP2 LT PUSH2 0x2E98 JUMPI POP POP POP JUMP JUMPDEST PUSH1 0x0 SWAP2 DUP3 MSTORE PUSH1 0x20 SWAP1 DUP2 DUP4 KECCAK256 SWAP4 DUP5 ADD SWAP4 ADD JUMPDEST DUP4 DUP2 LT PUSH2 0x2EB6 JUMPI POP POP POP POP JUMP JUMPDEST DUP1 DUP4 PUSH2 0x2EC4 PUSH1 0x1 SWAP4 SLOAD PUSH2 0x2B23 JUMP JUMPDEST DUP1 PUSH2 0x2ED2 JUMPI JUMPDEST POP POP ADD PUSH2 0x2EA9 JUMP JUMPDEST PUSH1 0x1F DUP1 DUP3 GT DUP6 EQ PUSH2 0x2EE9 JUMPI POP POP DUP2 SSTORE JUMPDEST DUP4 CODESIZE PUSH2 0x2ECA JUMP JUMPDEST PUSH2 0x2F02 SWAP1 DUP5 DUP5 MSTORE DUP7 DUP5 KECCAK256 SWAP3 ADD PUSH1 0x5 SHR DUP3 ADD DUP6 DUP4 ADD PUSH2 0x2E1D JUMP JUMPDEST DUP2 DUP4 SSTORE SSTORE PUSH2 0x2EE2 JUMP JUMPDEST ISZERO PUSH2 0x2F12 JUMPI JUMP JUMPDEST PUSH1 0x40 MLOAD PUSH3 0x461BCD PUSH1 0xE5 SHL DUP2 MSTORE PUSH1 0x20 PUSH1 0x4 DUP3 ADD MSTORE PUSH1 0x11 PUSH1 0x24 DUP3 ADD MSTORE PUSH17 0x141C9BD91D58DD081B9BDD08199BDD5B99 PUSH1 0x7A SHL PUSH1 0x44 DUP3 ADD MSTORE PUSH1 0x64 SWAP1 REVERT JUMPDEST ISZERO PUSH2 0x2F52 JUMPI JUMP JUMPDEST PUSH1 0x40 MLOAD PUSH3 0x461BCD PUSH1 0xE5 SHL DUP2 MSTORE PUSH1 0x20 PUSH1 0x4 DUP3 ADD MSTORE PUSH1 0xF PUSH1 0x24 DUP3 ADD MSTORE PUSH15 0x141C9BD91D58DD0819195B195D1959 PUSH1 0x8A SHL PUSH1 0x44 DUP3 ADD MSTORE PUSH1 0x64 SWAP1 REVERT JUMPDEST PUSH1 0x40 MLOAD SWAP1 PUSH2 0x2F96 DUP3 PUSH2 0x2BF3 JUMP JUMPDEST DUP2 PUSH2 0x200 PUSH1 0x0 SWAP2 DUP3 DUP2 MSTORE DUP3 PUSH1 0x20 DUP3 ADD MSTORE PUSH1 0x60 DUP1 PUSH1 0x40 DUP4 ADD MSTORE DUP1 DUP1 DUP4 ADD MSTORE DUP4 PUSH1 0x80 DUP4 ADD MSTORE DUP4 PUSH1 0xA0 DUP4 ADD MSTORE DUP1 PUSH1 0xC0 DUP4 ADD MSTORE DUP1 PUSH1 0xE0 DUP4 ADD MSTORE DUP1 PUSH2 0x100 DUP4 ADD MSTORE DUP1 PUSH2 0x120 DUP4 ADD MSTORE DUP1 PUSH2 0x140 DUP4 ADD MSTORE DUP4 PUSH2 0x160 DUP4 ADD MSTORE DUP1 PUSH2 0x180 DUP4 ADD MSTORE PUSH2 0x1A0 DUP3 ADD MSTORE DUP3 PUSH2 0x1C0 DUP3 ADD MSTORE DUP3 PUSH2 0x1E0 DUP3 ADD MSTORE ADD MSTORE JUMP JUMPDEST SWAP1 DUP2 SLOAD PUSH2 0x3012 DUP2 PUSH2 0x2D97 JUMP JUMPDEST SWAP3 PUSH1 0x40 SWAP4 PUSH2 0x3022 DUP6 MLOAD SWAP2 DUP3 PUSH2 0x2C0F JUMP JUMPDEST DUP3 DUP2 MSTORE DUP1 SWAP5 PUSH1 0x20 DUP1 SWAP3 ADD SWAP3 PUSH1 0x0 MSTORE DUP2 PUSH1 0x0 KECCAK256 SWAP1 PUSH1 0x0 SWAP4 JUMPDEST DUP6 DUP6 LT PUSH2 0x3048 JUMPI POP POP POP POP POP POP JUMP JUMPDEST PUSH1 0x1 DUP5 DUP2 SWAP3 DUP5 MLOAD PUSH2 0x305D DUP2 PUSH2 0x21E DUP2 DUP11 PUSH2 0x2B5D JUMP JUMPDEST DUP2 MSTORE ADD SWAP4 ADD SWAP5 ADD SWAP4 SWAP2 PUSH2 0x3039 JUMP JUMPDEST PUSH1 0x0 NOT DUP2 EQ PUSH2 0x446 JUMPI PUSH1 0x1 ADD SWAP1 JUMP JUMPDEST SWAP1 PUSH2 0x3084 DUP3 PUSH2 0x2D97 JUMP JUMPDEST PUSH2 0x3091 PUSH1 0x40 MLOAD SWAP2 DUP3 PUSH2 0x2C0F JUMP JUMPDEST DUP3 DUP2 MSTORE DUP1 SWAP3 PUSH2 0x30A2 PUSH1 0x1F NOT SWAP2 PUSH2 0x2D97 JUMP JUMPDEST ADD SWAP1 PUSH1 0x0 JUMPDEST DUP3 DUP2 LT PUSH2 0x30B3 JUMPI POP POP POP JUMP JUMPDEST PUSH1 0x20 SWAP1 PUSH2 0x30BE PUSH2 0x2F89 JUMP JUMPDEST DUP3 DUP3 DUP6 ADD ADD MSTORE ADD PUSH2 0x30A7 JUMP JUMPDEST DUP1 MLOAD DUP3 LT ISZERO PUSH2 0x2CC2 JUMPI PUSH1 0x20 SWAP2 PUSH1 0x5 SHL ADD ADD SWAP1 JUMP INVALID LOG2 PUSH5 0x6970667358 0x22 SLT KECCAK256 0xBA 0xB4 SWAP15 JUMP STATICCALL 0xB3 0xCE PUSH15 0xFFF1F8AEEBC572591E46BF3C0F05E6 PUSH19 0xFCFCF3C5DF7AD01A64736F6C63430008130033 "},"methodIdentifiers":{"createProduct((string,string,uint256,uint256,string[],string[],string[],string,string,uint256,string,string,uint256))":"6f5927c0","deleteProduct(uint256)":"ed90c7b7","getAllProducts()":"02ee3a52","getMyProducts()":"fdca4ca3","getProduct(uint256)":"b9db15b4","getProductsByCategory(string)":"8f38cc7b","getSellerProducts(address)":"e6a93e16","getTotalProducts()":"570aea8a","hemShop()":"f7ac228e","owner()":"8da5cb5b","productExists(uint256)":"af55ed64","products(uint256)":"7acc0b20","renounceOwnership()":"715018a6","sellerProducts(address,uint256)":"c1302b34","setHemShop(address)":"cc640d01","transferOwnership(address)":"f2fde38b","updateProduct(uint256,(string,string,uint256,uint256,string[],string[],string[],string,string,uint256,string,string,uint256))":"b55cef38","updateProductStock(uint256,uint256)":"fd231411"}}}}}