{"contracts/HemShopV1.sol":{"HemShopV1":{"abi":[{"inputs":[],"stateMutability":"nonpayable","type":"constructor"},{"anonymous":false,"inputs":[{"indexed":true,"internalType":"address","name":"owner","type":"address"},{"indexed":true,"internalType":"address","name":"approved","type":"address"},{"indexed":true,"internalType":"uint256","name":"tokenId","type":"uint256"}],"name":"Approval","type":"event"},{"anonymous":false,"inputs":[{"indexed":true,"internalType":"address","name":"owner","type":"address"},{"indexed":true,"internalType":"address","name":"operator","type":"address"},{"indexed":false,"internalType":"bool","name":"approved","type":"bool"}],"name":"ApprovalForAll","type":"event"},{"anonymous":false,"inputs":[{"indexed":false,"internalType":"uint8","name":"version","type":"uint8"}],"name":"Initialized","type":"event"},{"anonymous":false,"inputs":[{"indexed":true,"internalType":"address","name":"previousOwner","type":"address"},{"indexed":true,"internalType":"address","name":"newOwner","type":"address"}],"name":"OwnershipTransferred","type":"event"},{"anonymous":false,"inputs":[{"indexed":true,"internalType":"address","name":"from","type":"address"},{"indexed":true,"internalType":"address","name":"to","type":"address"},{"indexed":true,"internalType":"uint256","name":"tokenId","type":"uint256"}],"name":"Transfer","type":"event"},{"inputs":[{"internalType":"address","name":"to","type":"address"},{"internalType":"uint256","name":"tokenId","type":"uint256"}],"name":"approve","outputs":[],"stateMutability":"nonpayable","type":"function"},{"inputs":[{"internalType":"address","name":"owner","type":"address"}],"name":"balanceOf","outputs":[{"internalType":"uint256","name":"","type":"uint256"}],"stateMutability":"view","type":"function"},{"inputs":[{"internalType":"uint256","name":"productId","type":"uint256"},{"components":[{"internalType":"string","name":"fullName","type":"string"},{"internalType":"string","name":"streetAddress","type":"string"},{"internalType":"string","name":"city","type":"string"},{"internalType":"string","name":"state","type":"string"},{"internalType":"string","name":"country","type":"string"},{"internalType":"string","name":"postalCode","type":"string"},{"internalType":"string","name":"phone","type":"string"},{"internalType":"string","name":"email","type":"string"}],"internalType":"struct IHemShop.ShippingDetails","name":"shippingDetails","type":"tuple"},{"internalType":"string","name":"selectedColor","type":"string"},{"internalType":"string","name":"selectedSize","type":"string"},{"internalType":"uint256","name":"quantity","type":"uint256"}],"name":"buyProduct","outputs":[],"stateMutability":"payable","type":"function"},{"inputs":[],"name":"categoryManager","outputs":[{"internalType":"contract ICategoryManager","name":"","type":"address"}],"stateMutability":"view","type":"function"},{"inputs":[{"internalType":"string","name":"name","type":"string"}],"name":"createCategory","outputs":[],"stateMutability":"nonpayable","type":"function"},{"inputs":[{"components":[{"internalType":"string","name":"name","type":"string"},{"internalType":"string","name":"description","type":"string"},{"internalType":"uint256","name":"price","type":"uint256"},{"internalType":"uint256","name":"stock","type":"uint256"},{"internalType":"string[]","name":"colors","type":"string[]"},{"internalType":"string[]","name":"sizes","type":"string[]"},{"internalType":"string[]","name":"images","type":"string[]"},{"internalType":"string","name":"category","type":"string"},{"internalType":"string","name":"subCategory","type":"string"},{"internalType":"uint256","name":"weight","type":"uint256"},{"internalType":"string","name":"model","type":"string"},{"internalType":"string","name":"brand","type":"string"},{"internalType":"uint256","name":"sku","type":"uint256"}],"internalType":"struct IHemShop.ProductInput","name":"input","type":"tuple"}],"name":"createProduct","outputs":[],"stateMutability":"nonpayable","type":"function"},{"inputs":[{"internalType":"uint256","name":"productId","type":"uint256"},{"internalType":"uint256","name":"rating","type":"uint256"},{"internalType":"string","name":"comment","type":"string"}],"name":"createReview","outputs":[],"stateMutability":"nonpayable","type":"function"},{"inputs":[{"internalType":"uint256","name":"parentId","type":"uint256"},{"internalType":"string[]","name":"names","type":"string[]"}],"name":"createSubCategoriesBulk","outputs":[],"stateMutability":"nonpayable","type":"function"},{"inputs":[{"internalType":"uint256","name":"parentId","type":"uint256"},{"internalType":"string","name":"name","type":"string"}],"name":"createSubCategory","outputs":[],"stateMutability":"nonpayable","type":"function"},{"inputs":[{"internalType":"uint256","name":"productId","type":"uint256"}],"name":"deleteProduct","outputs":[],"stateMutability":"nonpayable","type":"function"},{"inputs":[{"internalType":"uint256","name":"productId","type":"uint256"},{"internalType":"uint256","name":"reviewId","type":"uint256"}],"name":"deleteReview","outputs":[],"stateMutability":"nonpayable","type":"function"},{"inputs":[],"name":"getAllCategories","outputs":[{"internalType":"uint256[]","name":"ids","type":"uint256[]"},{"internalType":"string[]","name":"names","type":"string[]"},{"internalType":"bool[]","name":"activeStates","type":"bool[]"},{"internalType":"uint256[][]","name":"subCategoryIdArrays","type":"uint256[][]"}],"stateMutability":"view","type":"function"},{"inputs":[],"name":"getAllProducts","outputs":[{"components":[{"internalType":"uint256","name":"id","type":"uint256"},{"internalType":"address","name":"seller","type":"address"},{"internalType":"string","name":"name","type":"string"},{"internalType":"string","name":"description","type":"string"},{"internalType":"uint256","name":"price","type":"uint256"},{"internalType":"uint256","name":"stock","type":"uint256"},{"internalType":"string[]","name":"colors","type":"string[]"},{"internalType":"string[]","name":"sizes","type":"string[]"},{"internalType":"string[]","name":"images","type":"string[]"},{"internalType":"string","name":"category","type":"string"},{"internalType":"string","name":"subCategory","type":"string"},{"internalType":"uint256","name":"weight","type":"uint256"},{"internalType":"string","name":"model","type":"string"},{"internalType":"string","name":"brand","type":"string"},{"internalType":"uint256","name":"sku","type":"uint256"},{"internalType":"bool","name":"soldout","type":"bool"},{"internalType":"bool","name":"deleted","type":"bool"}],"internalType":"struct IProductManager.ProductStruct[]","name":"","type":"tuple[]"}],"stateMutability":"view","type":"function"},{"inputs":[],"name":"getAllRegisteredSellers","outputs":[{"internalType":"address[]","name":"","type":"address[]"}],"stateMutability":"view","type":"function"},{"inputs":[{"internalType":"uint256","name":"tokenId","type":"uint256"}],"name":"getApproved","outputs":[{"internalType":"address","name":"","type":"address"}],"stateMutability":"view","type":"function"},{"inputs":[{"internalType":"address","name":"buyer","type":"address"}],"name":"getBuyerPurchaseHistory","outputs":[{"components":[{"internalType":"uint256","name":"productId","type":"uint256"},{"internalType":"uint256","name":"totalAmount","type":"uint256"},{"internalType":"uint256","name":"basePrice","type":"uint256"},{"internalType":"uint256","name":"timestamp","type":"uint256"},{"internalType":"uint256","name":"lastUpdated","type":"uint256"},{"internalType":"address","name":"buyer","type":"address"},{"internalType":"address","name":"seller","type":"address"},{"internalType":"bool","name":"isDelivered","type":"bool"},{"components":[{"internalType":"string","name":"fullName","type":"string"},{"internalType":"string","name":"streetAddress","type":"string"},{"internalType":"string","name":"city","type":"string"},{"internalType":"string","name":"state","type":"string"},{"internalType":"string","name":"country","type":"string"},{"internalType":"string","name":"postalCode","type":"string"},{"internalType":"string","name":"phone","type":"string"},{"internalType":"string","name":"email","type":"string"}],"internalType":"struct IHemShop.ShippingDetails","name":"shippingDetails","type":"tuple"},{"components":[{"internalType":"string","name":"name","type":"string"},{"internalType":"string[]","name":"images","type":"string[]"},{"internalType":"string","name":"selectedColor","type":"string"},{"internalType":"string","name":"selectedSize","type":"string"},{"internalType":"uint256","name":"quantity","type":"uint256"},{"internalType":"string","name":"category","type":"string"},{"internalType":"string","name":"description","type":"string"}],"internalType":"struct IHemShop.OrderDetails","name":"orderDetails","type":"tuple"}],"internalType":"struct IHemShop.PurchaseHistoryStruct[]","name":"","type":"tuple[]"}],"stateMutability":"view","type":"function"},{"inputs":[],"name":"getMyProducts","outputs":[{"components":[{"internalType":"uint256","name":"id","type":"uint256"},{"internalType":"address","name":"seller","type":"address"},{"internalType":"string","name":"name","type":"string"},{"internalType":"string","name":"description","type":"string"},{"internalType":"uint256","name":"price","type":"uint256"},{"internalType":"uint256","name":"stock","type":"uint256"},{"internalType":"string[]","name":"colors","type":"string[]"},{"internalType":"string[]","name":"sizes","type":"string[]"},{"internalType":"string[]","name":"images","type":"string[]"},{"internalType":"string","name":"category","type":"string"},{"internalType":"string","name":"subCategory","type":"string"},{"internalType":"uint256","name":"weight","type":"uint256"},{"internalType":"string","name":"model","type":"string"},{"internalType":"string","name":"brand","type":"string"},{"internalType":"uint256","name":"sku","type":"uint256"},{"internalType":"bool","name":"soldout","type":"bool"},{"internalType":"bool","name":"deleted","type":"bool"}],"internalType":"struct IProductManager.ProductStruct[]","name":"","type":"tuple[]"}],"stateMutability":"view","type":"function"},{"inputs":[{"internalType":"uint256","name":"productId","type":"uint256"}],"name":"getProduct","outputs":[{"components":[{"internalType":"uint256","name":"id","type":"uint256"},{"internalType":"address","name":"seller","type":"address"},{"internalType":"string","name":"name","type":"string"},{"internalType":"string","name":"description","type":"string"},{"internalType":"uint256","name":"price","type":"uint256"},{"internalType":"uint256","name":"stock","type":"uint256"},{"internalType":"string[]","name":"colors","type":"string[]"},{"internalType":"string[]","name":"sizes","type":"string[]"},{"internalType":"string[]","name":"images","type":"string[]"},{"internalType":"string","name":"category","type":"string"},{"internalType":"string","name":"subCategory","type":"string"},{"internalType":"uint256","name":"weight","type":"uint256"},{"internalType":"string","name":"model","type":"string"},{"internalType":"string","name":"brand","type":"string"},{"internalType":"uint256","name":"sku","type":"uint256"},{"internalType":"bool","name":"soldout","type":"bool"},{"internalType":"bool","name":"deleted","type":"bool"}],"internalType":"struct IProductManager.ProductStruct","name":"","type":"tuple"}],"stateMutability":"view","type":"function"},{"inputs":[{"internalType":"string","name":"categoryName","type":"string"}],"name":"getProductsByCategory","outputs":[{"components":[{"internalType":"uint256","name":"id","type":"uint256"},{"internalType":"address","name":"seller","type":"address"},{"internalType":"string","name":"name","type":"string"},{"internalType":"string","name":"description","type":"string"},{"internalType":"uint256","name":"price","type":"uint256"},{"internalType":"uint256","name":"stock","type":"uint256"},{"internalType":"string[]","name":"colors","type":"string[]"},{"internalType":"string[]","name":"sizes","type":"string[]"},{"internalType":"string[]","name":"images","type":"string[]"},{"internalType":"string","name":"category","type":"string"},{"internalType":"string","name":"subCategory","type":"string"},{"internalType":"uint256","name":"weight","type":"uint256"},{"internalType":"string","name":"model","type":"string"},{"internalType":"string","name":"brand","type":"string"},{"internalType":"uint256","name":"sku","type":"uint256"},{"internalType":"bool","name":"soldout","type":"bool"},{"internalType":"bool","name":"deleted","type":"bool"}],"internalType":"struct IProductManager.ProductStruct[]","name":"","type":"tuple[]"}],"stateMutability":"view","type":"function"},{"inputs":[{"internalType":"uint256","name":"productId","type":"uint256"}],"name":"getReviews","outputs":[{"components":[{"internalType":"uint256","name":"reviewId","type":"uint256"},{"internalType":"address","name":"reviewer","type":"address"},{"internalType":"uint256","name":"rating","type":"uint256"},{"internalType":"string","name":"comment","type":"string"},{"internalType":"bool","name":"deleted","type":"bool"},{"internalType":"uint256","name":"timestamp","type":"uint256"}],"internalType":"struct IReviewManager.ReviewStruct[]","name":"","type":"tuple[]"}],"stateMutability":"view","type":"function"},{"inputs":[{"internalType":"address","name":"seller","type":"address"}],"name":"getSeller","outputs":[{"components":[{"internalType":"string","name":"businessName","type":"string"},{"internalType":"string","name":"description","type":"string"},{"internalType":"string","name":"email","type":"string"},{"internalType":"string","name":"phone","type":"string"},{"internalType":"string","name":"logo","type":"string"},{"internalType":"uint256","name":"registeredAt","type":"uint256"},{"internalType":"bool","name":"termsAccepted","type":"bool"}],"internalType":"struct IUserSellerManager.SellerProfile","name":"profile","type":"tuple"},{"internalType":"enum IHemShop.SellerStatus","name":"status","type":"uint8"},{"internalType":"bool","name":"isRegistered","type":"bool"}],"stateMutability":"view","type":"function"},{"inputs":[{"internalType":"address","name":"seller","type":"address"}],"name":"getSellerBalance","outputs":[{"internalType":"uint256","name":"","type":"uint256"}],"stateMutability":"view","type":"function"},{"inputs":[{"internalType":"address","name":"seller","type":"address"}],"name":"getSellerProfile","outputs":[{"components":[{"internalType":"string","name":"businessName","type":"string"},{"internalType":"string","name":"description","type":"string"},{"internalType":"string","name":"email","type":"string"},{"internalType":"string","name":"phone","type":"string"},{"internalType":"string","name":"logo","type":"string"},{"internalType":"uint256","name":"registeredAt","type":"uint256"},{"internalType":"bool","name":"termsAccepted","type":"bool"}],"internalType":"struct IUserSellerManager.SellerProfile","name":"","type":"tuple"}],"stateMutability":"view","type":"function"},{"inputs":[{"internalType":"address","name":"seller","type":"address"}],"name":"getSellerPurchaseHistory","outputs":[{"components":[{"internalType":"uint256","name":"productId","type":"uint256"},{"internalType":"uint256","name":"totalAmount","type":"uint256"},{"internalType":"uint256","name":"basePrice","type":"uint256"},{"internalType":"uint256","name":"timestamp","type":"uint256"},{"internalType":"uint256","name":"lastUpdated","type":"uint256"},{"internalType":"address","name":"buyer","type":"address"},{"internalType":"address","name":"seller","type":"address"},{"internalType":"bool","name":"isDelivered","type":"bool"},{"components":[{"internalType":"string","name":"fullName","type":"string"},{"internalType":"string","name":"streetAddress","type":"string"},{"internalType":"string","name":"city","type":"string"},{"internalType":"string","name":"state","type":"string"},{"internalType":"string","name":"country","type":"string"},{"internalType":"string","name":"postalCode","type":"string"},{"internalType":"string","name":"phone","type":"string"},{"internalType":"string","name":"email","type":"string"}],"internalType":"struct IHemShop.ShippingDetails","name":"shippingDetails","type":"tuple"},{"components":[{"internalType":"string","name":"name","type":"string"},{"internalType":"string[]","name":"images","type":"string[]"},{"internalType":"string","name":"selectedColor","type":"string"},{"internalType":"string","name":"selectedSize","type":"string"},{"internalType":"uint256","name":"quantity","type":"uint256"},{"internalType":"string","name":"category","type":"string"},{"internalType":"string","name":"description","type":"string"}],"internalType":"struct IHemShop.OrderDetails","name":"orderDetails","type":"tuple"}],"internalType":"struct IHemShop.PurchaseHistoryStruct[]","name":"","type":"tuple[]"}],"stateMutability":"view","type":"function"},{"inputs":[{"internalType":"address","name":"seller","type":"address"}],"name":"getSellerStatus","outputs":[{"internalType":"enum IHemShop.SellerStatus","name":"","type":"uint8"}],"stateMutability":"view","type":"function"},{"inputs":[{"internalType":"address","name":"user","type":"address"}],"name":"getUser","outputs":[{"internalType":"bool","name":"isRegistered","type":"bool"},{"components":[{"internalType":"string","name":"name","type":"string"},{"internalType":"string","name":"email","type":"string"},{"internalType":"string","name":"avatar","type":"string"},{"internalType":"uint256","name":"registeredAt","type":"uint256"},{"internalType":"bool","name":"isActive","type":"bool"}],"internalType":"struct IUserSellerManager.UserProfile","name":"profile","type":"tuple"},{"internalType":"bool","name":"isUserSeller","type":"bool"},{"internalType":"enum IHemShop.SellerStatus","name":"sellerState","type":"uint8"}],"stateMutability":"view","type":"function"},{"inputs":[{"internalType":"address","name":"_userSellerManager","type":"address"},{"internalType":"address","name":"_productManager","type":"address"},{"internalType":"address","name":"_categoryManager","type":"address"},{"internalType":"address","name":"_reviewManager","type":"address"},{"internalType":"address","name":"_purchaseManager","type":"address"},{"internalType":"uint256","name":"_servicePct","type":"uint256"}],"name":"initialize","outputs":[],"stateMutability":"nonpayable","type":"function"},{"inputs":[{"internalType":"address","name":"owner","type":"address"},{"internalType":"address","name":"operator","type":"address"}],"name":"isApprovedForAll","outputs":[{"internalType":"bool","name":"","type":"bool"}],"stateMutability":"view","type":"function"},{"inputs":[{"internalType":"uint256","name":"productId","type":"uint256"},{"internalType":"address","name":"buyer","type":"address"}],"name":"markPurchaseDelivered","outputs":[],"stateMutability":"nonpayable","type":"function"},{"inputs":[],"name":"name","outputs":[{"internalType":"string","name":"","type":"string"}],"stateMutability":"view","type":"function"},{"inputs":[],"name":"owner","outputs":[{"internalType":"address","name":"","type":"address"}],"stateMutability":"view","type":"function"},{"inputs":[{"internalType":"uint256","name":"tokenId","type":"uint256"}],"name":"ownerOf","outputs":[{"internalType":"address","name":"","type":"address"}],"stateMutability":"view","type":"function"},{"inputs":[],"name":"productManager","outputs":[{"internalType":"contract IProductManager","name":"","type":"address"}],"stateMutability":"view","type":"function"},{"inputs":[],"name":"purchaseManager","outputs":[{"internalType":"contract IPurchaseManager","name":"","type":"address"}],"stateMutability":"view","type":"function"},{"inputs":[{"internalType":"string","name":"businessName","type":"string"},{"internalType":"string","name":"description","type":"string"},{"internalType":"string","name":"email","type":"string"},{"internalType":"string","name":"phone","type":"string"},{"internalType":"string","name":"logo","type":"string"}],"name":"registerSeller","outputs":[],"stateMutability":"nonpayable","type":"function"},{"inputs":[{"internalType":"string","name":"name","type":"string"},{"internalType":"string","name":"email","type":"string"},{"internalType":"string","name":"avatar","type":"string"}],"name":"registerUser","outputs":[],"stateMutability":"nonpayable","type":"function"},{"inputs":[],"name":"renounceOwnership","outputs":[],"stateMutability":"nonpayable","type":"function"},{"inputs":[],"name":"reviewManager","outputs":[{"internalType":"contract IReviewManager","name":"","type":"address"}],"stateMutability":"view","type":"function"},{"inputs":[{"internalType":"address","name":"from","type":"address"},{"internalType":"address","name":"to","type":"address"},{"internalType":"uint256","name":"tokenId","type":"uint256"}],"name":"safeTransferFrom","outputs":[],"stateMutability":"nonpayable","type":"function"},{"inputs":[{"internalType":"address","name":"from","type":"address"},{"internalType":"address","name":"to","type":"address"},{"internalType":"uint256","name":"tokenId","type":"uint256"},{"internalType":"bytes","name":"data","type":"bytes"}],"name":"safeTransferFrom","outputs":[],"stateMutability":"nonpayable","type":"function"},{"inputs":[],"name":"servicePct","outputs":[{"internalType":"uint256","name":"","type":"uint256"}],"stateMutability":"view","type":"function"},{"inputs":[{"internalType":"address","name":"operator","type":"address"},{"internalType":"bool","name":"approved","type":"bool"}],"name":"setApprovalForAll","outputs":[],"stateMutability":"nonpayable","type":"function"},{"inputs":[{"internalType":"bytes4","name":"interfaceId","type":"bytes4"}],"name":"supportsInterface","outputs":[{"internalType":"bool","name":"","type":"bool"}],"stateMutability":"view","type":"function"},{"inputs":[],"name":"symbol","outputs":[{"internalType":"string","name":"","type":"string"}],"stateMutability":"view","type":"function"},{"inputs":[{"internalType":"uint256","name":"tokenId","type":"uint256"}],"name":"tokenURI","outputs":[{"internalType":"string","name":"","type":"string"}],"stateMutability":"view","type":"function"},{"inputs":[{"internalType":"address","name":"from","type":"address"},{"internalType":"address","name":"to","type":"address"},{"internalType":"uint256","name":"tokenId","type":"uint256"}],"name":"transferFrom","outputs":[],"stateMutability":"nonpayable","type":"function"},{"inputs":[{"internalType":"address","name":"newOwner","type":"address"}],"name":"transferOwnership","outputs":[],"stateMutability":"nonpayable","type":"function"},{"inputs":[{"internalType":"uint256","name":"productId","type":"uint256"},{"components":[{"internalType":"string","name":"name","type":"string"},{"internalType":"string","name":"description","type":"string"},{"internalType":"uint256","name":"price","type":"uint256"},{"internalType":"uint256","name":"stock","type":"uint256"},{"internalType":"string[]","name":"colors","type":"string[]"},{"internalType":"string[]","name":"sizes","type":"string[]"},{"internalType":"string[]","name":"images","type":"string[]"},{"internalType":"string","name":"category","type":"string"},{"internalType":"string","name":"subCategory","type":"string"},{"internalType":"uint256","name":"weight","type":"uint256"},{"internalType":"string","name":"model","type":"string"},{"internalType":"string","name":"brand","type":"string"},{"internalType":"uint256","name":"sku","type":"uint256"}],"internalType":"struct IHemShop.ProductInput","name":"input","type":"tuple"}],"name":"updateProduct","outputs":[],"stateMutability":"nonpayable","type":"function"},{"inputs":[{"internalType":"address","name":"seller","type":"address"},{"internalType":"enum IHemShop.SellerStatus","name":"newStatus","type":"uint8"}],"name":"updateSellerStatus","outputs":[],"stateMutability":"nonpayable","type":"function"},{"inputs":[],"name":"userSellerManager","outputs":[{"internalType":"contract IUserSellerManager","name":"","type":"address"}],"stateMutability":"view","type":"function"},{"inputs":[],"name":"withdraw","outputs":[],"stateMutability":"nonpayable","type":"function"},{"stateMutability":"payable","type":"receive"}],"evm":{"bytecode":{"linkReferences":{},"object":"6080346200037d576040906001600160401b0381830181811183821017620003675783526007825260209066048656d53686f760cc1b828401528351848101818110838211176200036757855260038082526204873760ec1b848301526000805462010000600160b01b0319811633601081811b62010000600160b01b031692909217845593979294929391901c6001600160a01b03167f8be0079c531659141344cd1fd0a4f28419497f9722a3daafe3b4186f6b6457e08580a360019283805582518581116200035357600254938585811c9516801562000348575b8886101462000334578190601f95868111620002e0575b5088908683116001146200027b5784926200026f575b5050600019828a1b1c191690851b176002555b81519485116200025b5786548481811c9116801562000250575b878210146200023c57838111620001f4575b50859285116001146200018e57939450849291908362000182575b50501b9160001990841b1c19161790555b516142489081620003838239f35b01519250388062000163565b86815285812093958591601f198316915b88838310620001d95750505010620001c0575b505050811b01905562000174565b015160001983861b60f8161c19169055388080620001b2565b8587015188559096019594850194879350908101906200019f565b8782528682208480880160051c82019289891062000232575b0160051c019085905b8281106200022657505062000148565b83815501859062000216565b925081926200020d565b634e487b7160e01b82526022600452602482fd5b90607f169062000136565b634e487b7160e01b81526041600452602490fd5b01519050388062000109565b600285528985208894509190601f198416865b8c828210620002c95750508411620002b0575b505050811b016002556200011c565b0151600019838c1b60f8161c19169055388080620002a1565b8385015186558b979095019493840193016200028e565b909150600284528884208680850160051c8201928b86106200032a575b918991869594930160051c01915b8281106200031b575050620000f3565b8681558594508991016200030b565b92508192620002fd565b634e487b7160e01b83526022600452602483fd5b94607f1694620000dc565b634e487b7160e01b82526041600452602482fd5b634e487b7160e01b600052604160045260246000fd5b600080fdfe608080604052600436101561001d575b50361561001b57600080fd5b005b600090813560e01c90816301ffc9a7146129fa5750806302ee3a52146129a557806306fdde03146128e3578063081812fc146128c4578063095ea7b31461274f57806311aa5b34146126df57806316d81b38146126285780632053fba6146122d45780632148893f1461224857806323b872dd1461221e57806324d41a03146121905780633c2575d51461212a5780633ccfd60b146120df57806342842e0e146120b75780634293e5ce14611ffd5780635ad6a58014611ee15780635cbf60cc14611eb85780636352211e14611e875780636f5927c014611cde5780636f77926b14611ae657806370a0823114611a50578063715018a6146119f15780637d3978db146119705780637e8555ed146118495780638da5cb5b1461181e5780638f38cc7b1461179857806395b6ef0c1461151157806395d89b411461141857806397b6f393146113995780639d4a22551461110f578063a22cb4651461103d578063a323d29e14610f39578063b27e169714610eaf578063b55cef3814610e32578063b749293a14610e09578063b88d4fde14610da6578063b9db15b414610ca9578063c87b56dd14610a7d578063c9b8158314610a54578063d2bc9d78146109b7578063d637dcfa146108e6578063d86ec238146108bd578063dadd0a5714610601578063dc29868214610572578063e01ef6e614610554578063e985e9c514610500578063eb11c4341461044c578063ed90c7b7146103e5578063f2fde38b1461030a578063f426306f146102e15763fdca4ca30361000f57346102de57806003193601126102de5760095460405163fdca4ca360e01b8152908290829060049082906001600160a01b03165afa9081156102d357826102ac93926102b0575b505060405191829182612c34565b0390f35b6102cc92503d8091833e6102c48183612d42565b810190613ccd565b388061029e565b6040513d84823e3d90fd5b80fd5b50346102de57806003193601126102de576009546040516001600160a01b039091168152602090f35b50346102de5760203660031901126102de57610324612c96565b61032c613129565b6001600160a01b03818116918215610391576000805462010000600160b01b03198116601093841b62010000600160b01b031617825590911c91909116907f8be0079c531659141344cd1fd0a4f28419497f9722a3daafe3b4186f6b6457e09080a380f35b60405162461bcd60e51b815260206004820152602660248201527f4f776e61626c653a206e6577206f776e657220697320746865207a65726f206160448201526564647265737360d01b6064820152608490fd5b50346102de5760203660031901126102de5760095481906001600160a01b0316803b156104495781809160246040518094819363ed90c7b760e01b835260043560048401525af180156102d3576104395750f35b61044290612cc2565b6102de5780f35b50fd5b50346102de57602090816003193601126102de57610468612c96565b600854604051633ac4710d60e21b81526001600160a01b0392831660048201529291849184916024918391165afa9182156104f35781926104b5575b50506104b360405180926130d2565bf35b9091508281813d83116104ec575b6104cd8183612d42565b810103126104e857519060048210156102de575038806104a4565b5080fd5b503d6104c3565b50604051903d90823e3d90fd5b50346102de5760403660031901126102de5761051a612c96565b6040610524612cac565b9260018060a01b0380931681526007602052209116600052602052602060ff604060002054166040519015158152f35b50346102de57806003193601126102de576020600d54604051908152f35b50346102de5760203660031901126102de57806004356001600160401b038111610449576105a4903690600401612db5565b6105ac613129565b600a546001600160a01b0316803b156105fd57604051636e14c34160e11b81526020600482015291839183918290849082906105ec906024830190612a8a565b03925af180156102d3576104395750f35b5050fd5b50346102de57806003193601126102de57600a5460405163dadd0a5760e01b815291908190839060049082906001600160a01b03165afa80156104f35781808194829361074b575b5061065f604051946080865260808601906130f5565b906020918581038387015281518082528382019184808360051b83010194019286915b86848410610720575050505050508481036040860152818087519283815201960190835b81811061070a57505050838503606085015282519081865280860181808460051b890101950193965b8388106106dc5786860387f35b909192939483806106f9600193601f1986820301875289516130f5565b9701930197019690939291936106cf565b82511515885296830196918301916001016106a6565b8061073c6001939495969798601f198682030187528951612a8a565b97019301930191939290610682565b9350509250503d8083833e6107608183612d42565b8101906080818303126108b9578051926001600160401b03938481116104e8578361078c918401613a12565b6020808401518681116108b557856107a5918601613a70565b9460408501518781116108955785019481601f87011215610895578551956107cc87613628565b966107da6040519889612d42565b808852848089019160051b830101918483116108915785809101915b83831061089d575050505060608101519088821161089957019080601f830112156108955781519061082782613628565b986108356040519a8b612d42565b828a5284808b019360051b8501019382851161089157858101935b85851061086857505050505050509291939138610649565b845183811161088d57879161088286848094870101613a12565b815201940193610850565b8980fd5b8780fd5b8480fd5b8580fd5b81906108a884613653565b81520191019085906107f6565b8380fd5b8280fd5b50346102de57806003193601126102de57600a546040516001600160a01b039091168152602090f35b50346102de5780600319606036820112610449576001600160401b036004358181116109b25761091a903690600401612db5565b9060243581811161089557610933903690600401612db5565b906044359081116108955761094c903690600401612db5565b6008546001600160a01b031690813b15610899578580946105ec6109a39761099394604051998a9889978896636b1bee7d60e11b8852606060048901526064880190612a8a565b9084878303016024880152612a8a565b91848303016044850152612a8a565b505050fd5b50346102de5760403660031901126102de57806024356001600160401b038082116105fd57366023830112156105fd5781600401359081116105fd573660248260051b840101116105fd57610a0a613129565b600a546001600160a01b031691823b156109b2576105ec92849283604051809681958294631a5793af60e31b8452600435600485015260406024850152602460448501920161382d565b50346102de57806003193601126102de57600b546040516001600160a01b039091168152602090f35b50346102de57602090816003193601126102de578160043591610abd610ab884600052600460205260018060a01b0360406000205416151590565b613184565b60405192610aca84612d27565b8184528115610c8f578190807a184f03e93ff9f4daa797ed6e38ed64bf6a1f0100000000000000008181811015610c81575b5050846d04ee2d6d415b85acef810000000080841015610c73575b5050662386f26fc1000080831015610c64575b506305f5e10080831015610c55575b5061271080831015610c46575b506064821015610c36575b600a80921015610c2c575b60019081602181860195610b88610b7288612d63565b97610b80604051998a612d42565b808952612d63565b878a019890601f1901368a3750860101905b610bf6575b5050505092610be09291610bd4946040519583610bc58895518092888089019101612a67565b84019151809386840190612a67565b01038084520182612d42565b905b6102ac604051928284938452830190612a8a565b600019019083906f181899199a1a9b1b9c1cb0b131b232b360811b8282061a835304918215610c2757919082610b9a565b610b9f565b9160010191610b5c565b9190606460029104910191610b51565b60049193920491019138610b46565b60089193920491019138610b39565b60109193920491019138610b2a565b930192909104908438610b17565b604094500491503880610afc565b50505050604051610c9f81612d27565b6000815290610be2565b50346102de5760203660031901126102de5780610200604051610ccb81612cf0565b828152826020820152606080604083015280808301528360808301528360a08301528060c08301528060e083015280610100830152806101208301528061014083015283610160830152806101808301526101a0820152826101c0820152826101e0820152015260248160018060a01b036009541660405192838092632e76c56d60e21b825260043560048301525afa9081156102d357826102ac9392610d83575b5050604051918291602083526020830190612b0b565b610d9f92503d8091833e610d978183612d42565b810190613c7f565b3880610d6d565b50346102de5760803660031901126102de57610dc0612c96565b610dc8612cac565b606435916001600160401b0383116108b557366023840112156108b557610dfc610e06933690602481600401359101612d7e565b9160443591613293565b80f35b50346102de57806003193601126102de576008546040516001600160a01b039091168152602090f35b50346102de578060031960403682011261044957602435906001600160401b0382116105fd576101a0908236030112610449576009546001600160a01b0316803b156105fd576105ec83929183926040519485809481936316ab9de760e31b8352600435600484015260406024840152604483019060040161388a565b50346102de5760203660031901126102de57610ec9612c96565b600c5460405163b27e169760e01b81526001600160a01b03928316600482015291839183916024918391165afa9081156102d357826102ac9392610f16575b505060405191829182612e35565b610f3292503d8091833e610f2a8183612d42565b810190613d62565b3880610f08565b50346102de5760203660031901126102de57610f53612c96565b90610f5c6136a2565b50600854604051635191e94f60e11b81526001600160a01b03938416600482015292829184916024918391165afa908115611031578091818091610fce575b50610fb89350610fc3604051948594606086526060860190613052565b9260208501906130d2565b151560408301520390f35b925050503d8082843e610fe18184612d42565b82016060838203126104e85782516001600160401b0381116108b957906110099184016136d9565b60208301519160048310156102de57506110286040610fb89401613653565b90919038610f9b565b604051903d90823e3d90fd5b50346102de5760403660031901126102de57611057612c96565b602435908115158092036108b9576001600160a01b0316903382146110ca5733835260076020526040832082600052602052604060002060ff1981541660ff83161790556040519081527f17307eab39ab6107e8899845ad3d59bd9653f200f220920489ca2b5937696c3160203392a380f35b60405162461bcd60e51b815260206004820152601960248201527f4552433732313a20617070726f766520746f2063616c6c6572000000000000006044820152606490fd5b50346102de5760203660031901126102de57600b54604051639d4a225560e01b81526004803590820152908290829060249082906001600160a01b03165afa9081156102d3578291611208575b50906040519182916020830160208452825180915260408401602060408360051b870101940192905b82821061119457505050500390f35b919360019193955060208091603f1989820301855287519081518152848060a01b03838301511683820152604082015160408201526111e26060808401519060c08091850152830190612a8a565b9160808082015115159083015260a0809101519101529601920192018594939192611185565b90503d8083833e6112198183612d42565b60208282810103126108b9578151906001600160401b0382116108b557808301601f8385010112156108b557818301519061125382613628565b936112616040519586612d42565b828552602085019382820160208560051b83850101011161139557602081830101945b60208560051b838501010186106112a1575050505050503861115c565b85516001600160401b0381116113915760c0848401820186860103601f19011261139157604051918260c08101106001600160401b0360c08501111761137b5760c083016040908152858501830160208101518552611300910161363f565b602084015284840182016060810151604085015260800151906001600160401b0382116113775760209384936113428594858b8b0191848b8d01010101613660565b606083015260c060a09161135b83828b8d010101613653565b6080850152888a01010151908201528152019601959050611284565b8a80fd5b634e487b7160e01b600052604160045260246000fd5b8880fd5b8680fd5b50346102de5760403660031901126102de57806113b4612c96565b6024359060048210156105fd576113c9613129565b6008546001600160a01b03908116803b156108955784928360449261140960405197889687956397b6f39360e01b875216600486015260248501906130d2565b5af180156102d3576104395750f35b50346102de57806003193601126102de57604051908060035491600183811c92818516948515611507575b60209586861081146114f3578588528794939291879082156114d1575050600114611477575b5050610be292500383612d42565b90859250600382527fc2575a0e9e593c00f959f8c92f12db2869c3395a3b0502d05e2516446f71f85b5b8583106114b9575050610be293508201013880611469565b805483890185015287945086939092019181016114a1565b9250935050610be294915060ff191682840152151560051b8201013880611469565b634e487b7160e01b83526022600452602483fd5b93607f1693611443565b50346102de5760c03660031901126102de5761152b612c96565b611533612cac565b6001600160a01b036044358181169290839003611793576064359082821680920361179357608435938385168095036117935786549460ff8660081c161596878098611786575b801561176f575b156117135760ff19871660011789558896879487918a611702575b50816001600160601b0360a01b9316836008541617600855169460095493868386161760095582600a541617600a5581600b541617600b55600c541617600c5560a435600d55161790813b156108b95760405183816024818363cc640d0160e01b978883523060048401525af19081156116e35784916116ee575b505080600b5416803b156108b5578380916024604051809481938883523060048401525af19081156116e35784916116cf575b5050600c541690813b156108b957829160248392604051948593849283523060048401525af180156102d3576116bb575b50506116845780f35b61ff001981541681557f7f26b83ff96e1f2b6a682f133852f6798a09c465da95921460cefb3847402498602060405160018152a180f35b6116c490612cc2565b6104e857813861167b565b6116d890612cc2565b6108b957823861164a565b6040513d86823e3d90fd5b6116f790612cc2565b6108b9578238611617565b61ffff19166101011786553861159c565b60405162461bcd60e51b815260206004820152602e60248201527f496e697469616c697a61626c653a20636f6e747261637420697320616c72656160448201526d191e481a5b9a5d1a585b1a5e995960921b6064820152608490fd5b50303b1580156115815750600160ff881614611581565b50600160ff88161061157a565b600080fd5b50346102de5760203660031901126102de57600435816001600160401b0382116102de576117cd6117fb923690600401612db5565b60018060a01b03600954166040518080958194638f38cc7b60e01b8352602060048401526024830190612a8a565b03915afa9081156102d357826102ac93926102b057505060405191829182612c34565b50346102de57806003193601126102de575460405160109190911c6001600160a01b03168152602090f35b50346102de578060031960a036820112610449576001600160401b03906004358281116109b25761187e903690600401612db5565b60243583811161089557611896903690600401612db5565b90604435848111610899576118af903690600401612db5565b606435858111611395576118c7903690600401612db5565b94608435908111611395576118e0903690600401612db5565b6008546001600160a01b031692909190833b15610891576105ec8896611931946119616119419a6119518b976040519d8e9c8d9b8c9a637e8555ed60e01b8c5260a060048d015260a48c0190612a8a565b90888b83030160248c0152612a8a565b90868983030160448a0152612a8a565b9084878303016064880152612a8a565b91848303016084850152612a8a565b50346102de5760403660031901126102de57806024356001600160401b038111610449576119a2903690600401612db5565b6119aa613129565b600a546001600160a01b0316803b156105fd576105ec8392918392604051948580948193637d3978db60e01b83526004356004840152604060248401526044830190612a8a565b50346102de57806003193601126102de57611a0a613129565b6000805462010000600160b01b03198116825560101c6001600160a01b03167f8be0079c531659141344cd1fd0a4f28419497f9722a3daafe3b4186f6b6457e08280a380f35b50346102de5760203660031901126102de576001600160a01b03611a72612c96565b168015611a8f578160409160209352600583522054604051908152f35b60405162461bcd60e51b815260206004820152602960248201527f4552433732313a2061646472657373207a65726f206973206e6f7420612076616044820152683634b21037bbb732b960b91b6064820152608490fd5b50346102de576020806003193601126104e857611b01612c96565b604051611b0d81612cd5565b606080825280848301528060408301528481830152846080809301528460018060a01b0360248160085416956040519687938492636f77926b60e01b84521660048301525afa908115611cd3578593869387918894611bea575b50906102ac939291611bc76040519889981515895282818a0152611bb2611b9a895160a0868d01526101208c0190612a8a565b9189015191607f1992838c83030160a08d0152612a8a565b906040890151908a83030160c08b0152612a8a565b958381015160e089015201511515610100870152151560408601528401906130d2565b945092505092503d8086843e611c008184612d42565b820192818385031261089957611c1583613653565b858401516001600160401b03908181116113915785019560a0878203126113915760405196611c4388612cd5565b80518381116113775782611c58918301613660565b8852888101518381116113775782611c71918301613660565b89890152604081015192831161088d57611c918692611ca4948301613660565b6040890152848101518589015201613653565b8386015281611cb560408601613653565b940151906004821015610891579596508695949390926102ac611b67565b6040513d87823e3d90fd5b50346102de5780602060031981813601126105fd57600435906001600160401b0382116109b2576101a09082360301126105fd576009546040516301bd649f60e61b815260048082018590529094849386936001600160a01b0316928492918391611d4e9160248401910161388a565b03925af1918215611e7c578392611e4d575b503315611e0a57600490611d92611d8c84600052600460205260018060a01b0360406000205416151590565b156139c6565b600083815260046020526040902054611db5906001600160a01b03161515611d8c565b3384526005815260408420600181540190558284525260408220336001600160601b0360a01b82541617905533827fddf252ad1be2c89b69c2b068fc378daa952ba7f163c4a11628f55a4df523b3ef8180a480f35b6064906040519062461bcd60e51b825280600483015260248201527f4552433732313a206d696e7420746f20746865207a65726f20616464726573736044820152fd5b9080925081813d8311611e75575b611e658183612d42565b8101031261179357519038611d60565b503d611e5b565b6040513d85823e3d90fd5b50346102de5760203660031901126102de576020611ea66004356131d0565b6040516001600160a01b039091168152f35b50346102de57806003193601126102de57600c546040516001600160a01b039091168152602090f35b50346102de57806003193601126102de5760085460405162b5ad4b60e71b81526001600160a01b03929182908290600490829087165afa9081156102d3578291611f65575b5060405191602080840190808552835180925280604086019401925b828110611f4f5785850386f35b8351871685529381019392810192600101611f42565b90503d8083833e611f768183612d42565b81019060209081818403126108b5578051906001600160401b03821161089557019180601f840112156108b5578251611fae81613628565b93611fbc6040519586612d42565b818552838086019260051b820101928311610899578301905b828210611fe6575050505038611f26565b838091611ff28461363f565b815201910190611fd5565b50346102de5760203660031901126102de57612017612c96565b906120206136a2565b50600854604051632149f2e760e11b81526001600160a01b03938416600482015292829184916024918391165afa908115611031578091612072575b604051602080825281906102ac90820185613052565b90503d8082843e6120838184612d42565b8201916020818403126104e8578051916001600160401b0383116102de5750916120b1916102ac93016136d9565b3861205c565b50346102de57610e066120c936612e00565b90604051926120d784612d27565b858452613293565b50346102de57806003193601126102de57600c5481906001600160a01b0316803b1561044957818091600460405180948193633ccfd60b60e01b83525af180156102d3576104395750f35b50346102de5760203660031901126102de57612144612c96565b600c54604051633c2575d560e01b81526001600160a01b03928316600482015291839183916024918391165afa9081156102d357826102ac9392610f1657505060405191829182612e35565b50346102de5760403660031901126102de5780602060018060a01b03600b5416606460405180948193630d9e919760e01b8352600435600484015260243560248401523360448401525af180156102d3576121e9575080f35b6020813d8211612216575b8161220160209383612d42565b810103126104e85761221290613653565b5080f35b3d91506121f4565b50346102de57610e0661223036612e00565b9161224361223e843361332e565b613231565b6133f6565b50346102de57602090816003193601126102de57612264612c96565b600c54604051632148893f60e01b81526001600160a01b03928316600482015291849183916024918391165afa91821561103157916122a7575b50604051908152f35b90508181813d83116122cd575b6122be8183612d42565b8101031261179357513861229e565b503d6122b4565b5060a03660031901126102de576001600160401b0380602435116104e857610100602435360360031901126104e8576044358181116108b95761231b903690600401612dd3565b916064359081116108b557612334903690600401612dd3565b90926002600154146125e35760026001556009546040516303d6605960e51b815260048035908201526001600160a01b039590918790839060249082908a165afa9182156125d85787926125bc575b5060808201906123966084358351613ca4565b3410612580576123b78760208a99600c541695015116926084359051613ca4565b91833b156108915761254c889692879361253a6040519a8b998a98899763731bc05d60e01b895260043560048a01523360248a01526044890152346064890152608488015261012060a488015261252860243560040161242e61241a82806137a7565b6101006101248d01526102248c01916137d8565b61251861250b6124ea6124c98d6124a861248861246861245260248035018b6137a7565b61012319868c0381016101448801529a916137d8565b6124776044602435018b6137a7565b908a868403016101648701526137d8565b6124976064602435018a6137a7565b9089858403016101848601526137d8565b906124b8608460243501896137a7565b916101a489828603019101526137d8565b8d6124d960a460243501886137a7565b916101c488828603019101526137d8565b8c6124fa60c460243501876137a7565b916101e487828603019101526137d8565b9260e460243501906137a7565b918b8403016102048c01526137d8565b8781036003190160c4890152916137d8565b8481036003190160e4860152916137d8565b60843561010483015203925af180156102d35761256c575b506001805580f35b61257590612cc2565b6102de578038612564565b60405162461bcd60e51b8152602060048201526014602482015273125b9cdd59999a58da595b9d081c185e5b595b9d60621b6044820152606490fd5b6125d19192503d8089833e610d978183612d42565b9038612383565b6040513d89823e3d90fd5b60405162461bcd60e51b815260206004820152601f60248201527f5265656e7472616e637947756172643a207265656e7472616e742063616c6c006044820152606490fd5b50346102de5760603660031901126102de57806044356001600160401b038111610449576126a561265f6020923690600401612db5565b60018060a01b03600b54169060405194858094819363bb37c32d60e01b835260043560048401523360248401526024356044840152608060648401526084830190612a8a565b03925af180156102d3576126b7575080f35b602090813d81116126d8575b6126cd8183612d42565b810103126117935780f35b503d6126c3565b50346102de5760403660031901126102de576126f9612cac565b600c546001600160a01b0390811691839190833b156108b95760449083604051958694859363046a96cd60e21b855260043560048601521660248401525af180156102d357612746575080f35b610e0690612cc2565b50346102de5760403660031901126102de57612769612c96565b602435906001600160a01b038080612780856131d0565b1692169180831461287557803314908115612854575b50156127e95782845260066020526040842080546001600160a01b031916831790556127c1836131d0565b167f8c5be1e5ebec7d5bd14f71427d1e84f3dd0314c0f7b2291e5b200ac8c7c3b9258480a480f35b60405162461bcd60e51b815260206004820152603d60248201527f4552433732313a20617070726f76652063616c6c6572206973206e6f7420746f60448201527f6b656e206f776e6572206f7220617070726f76656420666f7220616c6c0000006064820152608490fd5b9050845260076020526040842033855260205260ff60408520541638612796565b60405162461bcd60e51b815260206004820152602160248201527f4552433732313a20617070726f76616c20746f2063757272656e74206f776e656044820152603960f91b6064820152608490fd5b50346102de5760203660031901126102de576020611ea66004356131f3565b50346102de57806003193601126102de57604051908060025491600183811c9281851694851561299b575b60209586861081146114f3578588528794939291879082156114d1575050600114612941575050610be292500383612d42565b90859250600282527f405787fa12a823e0f2b7631cc41b3ba8828b3321ca811111fa75cd3aa3bb5ace5b858310612983575050610be293508201013880611469565b8054838901850152879450869390920191810161296b565b93607f169361290e565b50346102de57806003193601126102de576009546040516301771d2960e11b8152908290829060049082906001600160a01b03165afa9081156102d357826102ac93926102b057505060405191829182612c34565b9050346104e85760203660031901126104e85760043563ffffffff60e01b81168091036108b957602092506380ac58cd60e01b8114908115612a56575b8115612a45575b5015158152f35b6301ffc9a760e01b14905038612a3e565b635b5e139f60e01b81149150612a37565b60005b838110612a7a5750506000910152565b8181015183820152602001612a6a565b90602091612aa381518092818552858086019101612a67565b601f01601f1916010190565b908082519081815260208091019281808460051b8301019501936000915b848310612add5750505050505090565b9091929394958480612afb600193601f198682030187528a51612a8a565b9801930193019194939290612acd565b908151815260018060a01b036020830151166020820152612c0c612bf8612bd9612bc5612bb1612b9d612b8b612b65612b5360408b01516102208060408d01528b0190612a8a565b60608b01518a820360608c0152612a8a565b60808a015160808a015260a08a015160a08a015260c08a015189820360c08b0152612aaf565b60e089015188820360e08a0152612aaf565b610100808901519088830390890152612aaf565b610120808801519087830390880152612a8a565b610140808701519086830390870152612a8a565b6101608086015190850152610180808601519085830390860152612a8a565b6101a0808501519084830390850152612a8a565b916101c080820151908301526101e08082015115159083015261020080910151151591015290565b602080820190808352835180925260408301928160408460051b8301019501936000915b848310612c685750505050505090565b9091929394958480612c86600193603f198682030187528a51612b0b565b9801930193019194939290612c58565b600435906001600160a01b038216820361179357565b602435906001600160a01b038216820361179357565b6001600160401b03811161137b57604052565b60a081019081106001600160401b0382111761137b57604052565b61022081019081106001600160401b0382111761137b57604052565b60e081019081106001600160401b0382111761137b57604052565b602081019081106001600160401b0382111761137b57604052565b90601f801991011681019081106001600160401b0382111761137b57604052565b6001600160401b03811161137b57601f01601f191660200190565b929192612d8a82612d63565b91612d986040519384612d42565b829481845281830111611793578281602093846000960137010152565b9080601f8301121561179357816020612dd093359101612d7e565b90565b9181601f84011215611793578235916001600160401b038311611793576020838186019501011161179357565b6060906003190112611793576001600160a01b0390600435828116810361179357916024359081168103611793579060443590565b602080820190808352835180925260409283810182858560051b8401019601946000925b858410612e6a575050505050505090565b909192938080969798603f1984820301865289518051825282810151838301528581015186830152606091828201518382015260808083015181830152600160a01b600190039060a0908282860151168285015260c095869384870151168486015260e0808701511515818701528b61010082818a0151916101409081818c01528351918b01526102408a01612eff91612a8a565b928c83015161013f1994858c8203016101608d0152612f1d91612a8a565b9083015190848b8203016101808c0152612f3691612a8a565b8583015190848b8203016101a08c0152612f4f91612a8a565b8683015190848b8203016101c08c0152612f6891612a8a565b8783015190848b8203016101e08c0152612f8191612a8a565b8883015190848b8203016102008c0152612f9a91612a8a565b9101519188820301610220890152612fb191612a8a565b9561012080980151978188039101528651908087528601612fd191612a8a565b88870151908681038a880152612fe691612aaf565b8b870151908681038d880152612ffb91612a8a565b81870151918682039087015261301091612a8a565b90808601519085015281850151918482039085015261302e91612a8a565b9201519281830391015261304191612a8a565b980196959460010193019190612e59565b9060c0806130bd6130ab613099613087613075885160e0895260e0890190612a8a565b602089015188820360208a0152612a8a565b60408801518782036040890152612a8a565b60608701518682036060880152612a8a565b60808601518582036080870152612a8a565b9360a081015160a08501520151151591015290565b9060048210156130df5752565b634e487b7160e01b600052602160045260246000fd5b90815180825260208080930193019160005b828110613115575050505090565b835185529381019392810192600101613107565b60005460101c6001600160a01b0316330361314057565b606460405162461bcd60e51b815260206004820152602060248201527f4f776e61626c653a2063616c6c6572206973206e6f7420746865206f776e65726044820152fd5b1561318b57565b60405162461bcd60e51b815260206004820152601860248201527f4552433732313a20696e76616c696420746f6b656e20494400000000000000006044820152606490fd5b6000908152600460205260409020546001600160a01b0316612dd0811515613184565b600081815260046020526040902054613216906001600160a01b03161515613184565b6000908152600660205260409020546001600160a01b031690565b1561323857565b60405162461bcd60e51b815260206004820152602d60248201527f4552433732313a2063616c6c6572206973206e6f7420746f6b656e206f776e6560448201526c1c881bdc88185c1c1c9bdd9959609a1b6064820152608490fd5b906132b79392916132a761223e843361332e565b6132b28383836133f6565b613507565b156132be57565b60405162461bcd60e51b8152806132d7600482016132db565b0390fd5b60809060208152603260208201527f4552433732313a207472616e7366657220746f206e6f6e20455243373231526560408201527131b2b4bb32b91034b6b83632b6b2b73a32b960711b60608201520190565b906001600160a01b038080613342846131d0565b16931691838314938415613375575b50831561335f575b50505090565b61336b919293506131f3565b1614388080613359565b909350600052600760205260406000208260005260205260ff604060002054169238613351565b156133a357565b60405162461bcd60e51b815260206004820152602560248201527f4552433732313a207472616e736665722066726f6d20696e636f72726563742060448201526437bbb732b960d91b6064820152608490fd5b9061341e91613404846131d0565b6001600160a01b039391841692849290918316841461339c565b169182156134b6578161343b91613434866131d0565b161461339c565b7fddf252ad1be2c89b69c2b068fc378daa952ba7f163c4a11628f55a4df523b3ef60008481526006602052604081206001600160601b0360a01b9081815416905583825260056020526040822060001981540190558482526040822060018154019055858252600460205284604083209182541617905580a4565b60405162461bcd60e51b8152602060048201526024808201527f4552433732313a207472616e7366657220746f20746865207a65726f206164646044820152637265737360e01b6064820152608490fd5b9293600093909291803b1561361d579484916135619660405180948193630a85bd0160e11b9788845233600485015260018060a01b0380921660248501526044840152608060648401528260209b8c976084830190612a8a565b0393165af18491816135dd575b506135cc575050503d6000146135c4573d61358881612d63565b906135966040519283612d42565b81528091833d92013e5b805191826135c15760405162461bcd60e51b8152806132d7600482016132db565b01fd5b5060606135a0565b6001600160e01b0319161492509050565b9091508581813d8311613616575b6135f58183612d42565b8101031261089557516001600160e01b03198116810361089557903861356e565b503d6135eb565b505050915050600190565b6001600160401b03811161137b5760051b60200190565b51906001600160a01b038216820361179357565b5190811515820361179357565b81601f8201121561179357805161367681612d63565b926136846040519485612d42565b8184526020828401011161179357612dd09160208085019101612a67565b604051906136af82612d0c565b600060c0836060808252806020830152806040830152808083015260808201528260a08201520152565b91909160e08184031261179357604051906136f382612d0c565b81938151906001600160401b03918281116117935781613714918501613660565b84526020830151828111611793578161372e918501613660565b60208501526040830151828111611793578161374b918501613660565b604085015260608301518281116117935781613768918501613660565b60608501526080830151918211611793578261378d60c094926137a294869401613660565b608086015260a081015160a086015201613653565b910152565b9035601e19823603018112156117935701602081359101916001600160401b03821161179357813603831361179357565b908060209392818452848401376000828201840152601f01601f1916010190565b9035601e19823603018112156117935701602081359101916001600160401b038211611793578160051b3603831361179357565b90808352602080930192838260051b850194846000925b858410613855575050505050505090565b90919293949596858061387983856001950388526138738c886137a7565b906137d8565b990194019401929594939190613844565b906139b861399c61397561395961393e6139236139086138d96138be6138b08b806137a7565b6101a0808d528c01916137d8565b6138cb60208c018c6137a7565b908b830360208d01526137d8565b60408a013560408a015260608a013560608a01526138fa60808b018b6137f9565b908a830360808c015261382d565b61391560a08a018a6137f9565b9089830360a08b015261382d565b61393060c08901896137f9565b9088830360c08a015261382d565b61394b60e08801886137a7565b9087830360e08901526137d8565b610100613968818801886137a7565b91878403908801526137d8565b610120808601359085015261014061398f818701876137a7565b91868403908701526137d8565b6101606139ab818601866137a7565b91858403908601526137d8565b916101808091013591015290565b156139cd57565b60405162461bcd60e51b815260206004820152601c60248201527f4552433732313a20746f6b656e20616c7265616479206d696e746564000000006044820152606490fd5b81601f8201121561179357805191613a2983613628565b92613a376040519485612d42565b808452602092838086019260051b820101928311611793578301905b828210613a61575050505090565b81518152908301908301613a53565b9080601f8301121561179357815190613a8882613628565b92613a966040519485612d42565b828452602092838086019160051b8301019280841161179357848301915b848310613ac45750505050505090565b82516001600160401b038111611793578691613ae584848094890101613660565b815201920191613ab4565b919091610220818403126117935760405190613b0b82612cf0565b819381518352613b1d6020830161363f565b602084015260408201516001600160401b03908181116117935782613b43918501613660565b604085015260608301518181116117935782613b60918501613660565b60608501526080830151608085015260a083015160a085015260c08301518181116117935782613b91918501613a70565b60c085015260e08301518181116117935782613bae918501613a70565b60e0850152610100808401518281116117935783613bcd918601613a70565b90850152610120808401518281116117935783613beb918601613660565b90850152610140808401518281116117935783613c09918601613660565b908501526101608084015190850152610180808401518281116117935783613c32918601613660565b908501526101a0918284015191821161179357613c50918401613660565b908301526101c080820151908301526101e0613c6d818301613653565b908301526137a2610200809201613653565b906020828203126117935781516001600160401b03811161179357612dd09201613af0565b81810292918115918404141715613cb757565b634e487b7160e01b600052601160045260246000fd5b9060209081838203126117935782516001600160401b0393848211611793570181601f82011215611793578051613d0381613628565b94613d116040519687612d42565b818652848087019260051b8401019380851161179357858401925b858410613d3d575050505050505090565b8351838111611793578791613d57848480948a0101613af0565b815201930192613d2c565b906020828203126117935781516001600160401b0381116117935781601f828501011215611793578083015192613d9884613628565b93613da66040519586612d42565b80855260208086019160051b84840101019284841161179357602081840101915b848310613dd75750505050505090565b82516001600160401b0381116117935761014085840182018803601f190112611793576040519161014083018381106001600160401b038211176141fd576040908152868501830160208181015186528183015190860152606080820151928601929092526080808201519286019290925260a081015191850191909152613e619060c00161363f565b60a0840152613e7660e083868901010161363f565b60c0840152613e8c610100838689010101613653565b60e0840152610120828588010101516001600160401b03811161179357610100878601840182018a03601f190112611793576040519061010082018281106001600160401b038211176141fd5760405260208185888b01010101516001600160401b038111611793578a6020613f0a9284888b8e0101010101613660565b825260408185888b01010101516001600160401b038111611793578a6020613f3a9284888b8e0101010101613660565b602083015260608185888b01010101516001600160401b038111611793578a6020613f6d9284888b8e0101010101613660565b604083015260808185888b01010101516001600160401b038111611793578a6020613fa09284888b8e0101010101613660565b606083015260a08185888b01010101516001600160401b038111611793578a6020613fd39284888b8e0101010101613660565b608083015260c08185888b01010101516001600160401b038111611793578a60206140069284888b8e0101010101613660565b60a083015260e08185888b01010101516001600160401b038111611793578a60206140399284888b8e0101010101613660565b60c08301526101008185888b01010101516001600160401b0381116117935760208b9161406d93878a8d0101010101613660565b60e082015261010084015261014082858801010151926001600160401b0384116117935760e0878601840185018a03601f190112611793576040516140b181612d0c565b60208585888b01010101516001600160401b038111611793578a60206140df9288888b8e0101010101613660565b815260408585888b01010101516001600160401b038111611793578a602061410f9288888b8e0101010101613a70565b602082015260608585888b01010101516001600160401b038111611793578a60206141429288888b8e0101010101613660565b604082015260808585888b01010101516001600160401b038111611793578a60206141759288888b8e0101010101613660565b60608201528786018401850160a0810151608083015260c001516001600160401b038111611793578a60206141b29288888b8e0101010101613660565b60a082015260e08585888b01010101516001600160401b038111611793578a60206141e792819882988b8e0101010101613660565b60c0820152610120820152815201920191613dc7565b60246000634e487b7160e01b81526041600452fdfea264697066735822122055463fa7d08641867ced16de48567dc2848d02ad7e331dc1f7654240a8ff6fdf64736f6c63430008130033","opcodes":"PUSH1 0x80 CALLVALUE PUSH3 0x37D JUMPI PUSH1 0x40 SWAP1 PUSH1 0x1 PUSH1 0x1 PUSH1 0x40 SHL SUB DUP2 DUP4 ADD DUP2 DUP2 GT DUP4 DUP3 LT OR PUSH3 0x367 JUMPI DUP4 MSTORE PUSH1 0x7 DUP3 MSTORE PUSH1 0x20 SWAP1 PUSH7 0x48656D53686F7 PUSH1 0xCC SHL DUP3 DUP5 ADD MSTORE DUP4 MLOAD DUP5 DUP2 ADD DUP2 DUP2 LT DUP4 DUP3 GT OR PUSH3 0x367 JUMPI DUP6 MSTORE PUSH1 0x3 DUP1 DUP3 MSTORE PUSH3 0x48737 PUSH1 0xEC SHL DUP5 DUP4 ADD MSTORE PUSH1 0x0 DUP1 SLOAD PUSH3 0x10000 PUSH1 0x1 PUSH1 0xB0 SHL SUB NOT DUP2 AND CALLER PUSH1 0x10 DUP2 DUP2 SHL PUSH3 0x10000 PUSH1 0x1 PUSH1 0xB0 SHL SUB AND SWAP3 SWAP1 SWAP3 OR DUP5 SSTORE SWAP4 SWAP8 SWAP3 SWAP5 SWAP3 SWAP4 SWAP2 SWAP1 SHR PUSH1 0x1 PUSH1 0x1 PUSH1 0xA0 SHL SUB AND PUSH32 0x8BE0079C531659141344CD1FD0A4F28419497F9722A3DAAFE3B4186F6B6457E0 DUP6 DUP1 LOG3 PUSH1 0x1 SWAP3 DUP4 DUP1 SSTORE DUP3 MLOAD DUP6 DUP2 GT PUSH3 0x353 JUMPI PUSH1 0x2 SLOAD SWAP4 DUP6 DUP6 DUP2 SHR SWAP6 AND DUP1 ISZERO PUSH3 0x348 JUMPI JUMPDEST DUP9 DUP7 LT EQ PUSH3 0x334 JUMPI DUP2 SWAP1 PUSH1 0x1F SWAP6 DUP7 DUP2 GT PUSH3 0x2E0 JUMPI JUMPDEST POP DUP9 SWAP1 DUP7 DUP4 GT PUSH1 0x1 EQ PUSH3 0x27B JUMPI DUP5 SWAP3 PUSH3 0x26F JUMPI JUMPDEST POP POP PUSH1 0x0 NOT DUP3 DUP11 SHL SHR NOT AND SWAP1 DUP6 SHL OR PUSH1 0x2 SSTORE JUMPDEST DUP2 MLOAD SWAP5 DUP6 GT PUSH3 0x25B JUMPI DUP7 SLOAD DUP5 DUP2 DUP2 SHR SWAP2 AND DUP1 ISZERO PUSH3 0x250 JUMPI JUMPDEST DUP8 DUP3 LT EQ PUSH3 0x23C JUMPI DUP4 DUP2 GT PUSH3 0x1F4 JUMPI JUMPDEST POP DUP6 SWAP3 DUP6 GT PUSH1 0x1 EQ PUSH3 0x18E JUMPI SWAP4 SWAP5 POP DUP5 SWAP3 SWAP2 SWAP1 DUP4 PUSH3 0x182 JUMPI JUMPDEST POP POP SHL SWAP2 PUSH1 0x0 NOT SWAP1 DUP5 SHL SHR NOT AND OR SWAP1 SSTORE JUMPDEST MLOAD PUSH2 0x4248 SWAP1 DUP2 PUSH3 0x383 DUP3 CODECOPY RETURN JUMPDEST ADD MLOAD SWAP3 POP CODESIZE DUP1 PUSH3 0x163 JUMP JUMPDEST DUP7 DUP2 MSTORE DUP6 DUP2 KECCAK256 SWAP4 SWAP6 DUP6 SWAP2 PUSH1 0x1F NOT DUP4 AND SWAP2 JUMPDEST DUP9 DUP4 DUP4 LT PUSH3 0x1D9 JUMPI POP POP POP LT PUSH3 0x1C0 JUMPI JUMPDEST POP POP POP DUP2 SHL ADD SWAP1 SSTORE PUSH3 0x174 JUMP JUMPDEST ADD MLOAD PUSH1 0x0 NOT DUP4 DUP7 SHL PUSH1 0xF8 AND SHR NOT AND SWAP1 SSTORE CODESIZE DUP1 DUP1 PUSH3 0x1B2 JUMP JUMPDEST DUP6 DUP8 ADD MLOAD DUP9 SSTORE SWAP1 SWAP7 ADD SWAP6 SWAP5 DUP6 ADD SWAP5 DUP8 SWAP4 POP SWAP1 DUP2 ADD SWAP1 PUSH3 0x19F JUMP JUMPDEST DUP8 DUP3 MSTORE DUP7 DUP3 KECCAK256 DUP5 DUP1 DUP9 ADD PUSH1 0x5 SHR DUP3 ADD SWAP3 DUP10 DUP10 LT PUSH3 0x232 JUMPI JUMPDEST ADD PUSH1 0x5 SHR ADD SWAP1 DUP6 SWAP1 JUMPDEST DUP3 DUP2 LT PUSH3 0x226 JUMPI POP POP PUSH3 0x148 JUMP JUMPDEST DUP4 DUP2 SSTORE ADD DUP6 SWAP1 PUSH3 0x216 JUMP JUMPDEST SWAP3 POP DUP2 SWAP3 PUSH3 0x20D JUMP JUMPDEST PUSH4 0x4E487B71 PUSH1 0xE0 SHL DUP3 MSTORE PUSH1 0x22 PUSH1 0x4 MSTORE PUSH1 0x24 DUP3 REVERT JUMPDEST SWAP1 PUSH1 0x7F AND SWAP1 PUSH3 0x136 JUMP JUMPDEST PUSH4 0x4E487B71 PUSH1 0xE0 SHL DUP2 MSTORE PUSH1 0x41 PUSH1 0x4 MSTORE PUSH1 0x24 SWAP1 REVERT JUMPDEST ADD MLOAD SWAP1 POP CODESIZE DUP1 PUSH3 0x109 JUMP JUMPDEST PUSH1 0x2 DUP6 MSTORE DUP10 DUP6 KECCAK256 DUP9 SWAP5 POP SWAP2 SWAP1 PUSH1 0x1F NOT DUP5 AND DUP7 JUMPDEST DUP13 DUP3 DUP3 LT PUSH3 0x2C9 JUMPI POP POP DUP5 GT PUSH3 0x2B0 JUMPI JUMPDEST POP POP POP DUP2 SHL ADD PUSH1 0x2 SSTORE PUSH3 0x11C JUMP JUMPDEST ADD MLOAD PUSH1 0x0 NOT DUP4 DUP13 SHL PUSH1 0xF8 AND SHR NOT AND SWAP1 SSTORE CODESIZE DUP1 DUP1 PUSH3 0x2A1 JUMP JUMPDEST DUP4 DUP6 ADD MLOAD DUP7 SSTORE DUP12 SWAP8 SWAP1 SWAP6 ADD SWAP5 SWAP4 DUP5 ADD SWAP4 ADD PUSH3 0x28E JUMP JUMPDEST SWAP1 SWAP2 POP PUSH1 0x2 DUP5 MSTORE DUP9 DUP5 KECCAK256 DUP7 DUP1 DUP6 ADD PUSH1 0x5 SHR DUP3 ADD SWAP3 DUP12 DUP7 LT PUSH3 0x32A JUMPI JUMPDEST SWAP2 DUP10 SWAP2 DUP7 SWAP6 SWAP5 SWAP4 ADD PUSH1 0x5 SHR ADD SWAP2 JUMPDEST DUP3 DUP2 LT PUSH3 0x31B JUMPI POP POP PUSH3 0xF3 JUMP JUMPDEST DUP7 DUP2 SSTORE DUP6 SWAP5 POP DUP10 SWAP2 ADD PUSH3 0x30B JUMP JUMPDEST SWAP3 POP DUP2 SWAP3 PUSH3 0x2FD JUMP JUMPDEST PUSH4 0x4E487B71 PUSH1 0xE0 SHL DUP4 MSTORE PUSH1 0x22 PUSH1 0x4 MSTORE PUSH1 0x24 DUP4 REVERT JUMPDEST SWAP5 PUSH1 0x7F AND SWAP5 PUSH3 0xDC JUMP JUMPDEST PUSH4 0x4E487B71 PUSH1 0xE0 SHL DUP3 MSTORE PUSH1 0x41 PUSH1 0x4 MSTORE PUSH1 0x24 DUP3 REVERT JUMPDEST PUSH4 0x4E487B71 PUSH1 0xE0 SHL PUSH1 0x0 MSTORE PUSH1 0x41 PUSH1 0x4 MSTORE PUSH1 0x24 PUSH1 0x0 REVERT JUMPDEST PUSH1 0x0 DUP1 REVERT INVALID PUSH1 0x80 DUP1 PUSH1 0x40 MSTORE PUSH1 0x4 CALLDATASIZE LT ISZERO PUSH2 0x1D JUMPI JUMPDEST POP CALLDATASIZE ISZERO PUSH2 0x1B JUMPI PUSH1 0x0 DUP1 REVERT JUMPDEST STOP JUMPDEST PUSH1 0x0 SWAP1 DUP2 CALLDATALOAD PUSH1 0xE0 SHR SWAP1 DUP2 PUSH4 0x1FFC9A7 EQ PUSH2 0x29FA JUMPI POP DUP1 PUSH4 0x2EE3A52 EQ PUSH2 0x29A5 JUMPI DUP1 PUSH4 0x6FDDE03 EQ PUSH2 0x28E3 JUMPI DUP1 PUSH4 0x81812FC EQ PUSH2 0x28C4 JUMPI DUP1 PUSH4 0x95EA7B3 EQ PUSH2 0x274F JUMPI DUP1 PUSH4 0x11AA5B34 EQ PUSH2 0x26DF JUMPI DUP1 PUSH4 0x16D81B38 EQ PUSH2 0x2628 JUMPI DUP1 PUSH4 0x2053FBA6 EQ PUSH2 0x22D4 JUMPI DUP1 PUSH4 0x2148893F EQ PUSH2 0x2248 JUMPI DUP1 PUSH4 0x23B872DD EQ PUSH2 0x221E JUMPI DUP1 PUSH4 0x24D41A03 EQ PUSH2 0x2190 JUMPI DUP1 PUSH4 0x3C2575D5 EQ PUSH2 0x212A JUMPI DUP1 PUSH4 0x3CCFD60B EQ PUSH2 0x20DF JUMPI DUP1 PUSH4 0x42842E0E EQ PUSH2 0x20B7 JUMPI DUP1 PUSH4 0x4293E5CE EQ PUSH2 0x1FFD JUMPI DUP1 PUSH4 0x5AD6A580 EQ PUSH2 0x1EE1 JUMPI DUP1 PUSH4 0x5CBF60CC EQ PUSH2 0x1EB8 JUMPI DUP1 PUSH4 0x6352211E EQ PUSH2 0x1E87 JUMPI DUP1 PUSH4 0x6F5927C0 EQ PUSH2 0x1CDE JUMPI DUP1 PUSH4 0x6F77926B EQ PUSH2 0x1AE6 JUMPI DUP1 PUSH4 0x70A08231 EQ PUSH2 0x1A50 JUMPI DUP1 PUSH4 0x715018A6 EQ PUSH2 0x19F1 JUMPI DUP1 PUSH4 0x7D3978DB EQ PUSH2 0x1970 JUMPI DUP1 PUSH4 0x7E8555ED EQ PUSH2 0x1849 JUMPI DUP1 PUSH4 0x8DA5CB5B EQ PUSH2 0x181E JUMPI DUP1 PUSH4 0x8F38CC7B EQ PUSH2 0x1798 JUMPI DUP1 PUSH4 0x95B6EF0C EQ PUSH2 0x1511 JUMPI DUP1 PUSH4 0x95D89B41 EQ PUSH2 0x1418 JUMPI DUP1 PUSH4 0x97B6F393 EQ PUSH2 0x1399 JUMPI DUP1 PUSH4 0x9D4A2255 EQ PUSH2 0x110F JUMPI DUP1 PUSH4 0xA22CB465 EQ PUSH2 0x103D JUMPI DUP1 PUSH4 0xA323D29E EQ PUSH2 0xF39 JUMPI DUP1 PUSH4 0xB27E1697 EQ PUSH2 0xEAF JUMPI DUP1 PUSH4 0xB55CEF38 EQ PUSH2 0xE32 JUMPI DUP1 PUSH4 0xB749293A EQ PUSH2 0xE09 JUMPI DUP1 PUSH4 0xB88D4FDE EQ PUSH2 0xDA6 JUMPI DUP1 PUSH4 0xB9DB15B4 EQ PUSH2 0xCA9 JUMPI DUP1 PUSH4 0xC87B56DD EQ PUSH2 0xA7D JUMPI DUP1 PUSH4 0xC9B81583 EQ PUSH2 0xA54 JUMPI DUP1 PUSH4 0xD2BC9D78 EQ PUSH2 0x9B7 JUMPI DUP1 PUSH4 0xD637DCFA EQ PUSH2 0x8E6 JUMPI DUP1 PUSH4 0xD86EC238 EQ PUSH2 0x8BD JUMPI DUP1 PUSH4 0xDADD0A57 EQ PUSH2 0x601 JUMPI DUP1 PUSH4 0xDC298682 EQ PUSH2 0x572 JUMPI DUP1 PUSH4 0xE01EF6E6 EQ PUSH2 0x554 JUMPI DUP1 PUSH4 0xE985E9C5 EQ PUSH2 0x500 JUMPI DUP1 PUSH4 0xEB11C434 EQ PUSH2 0x44C JUMPI DUP1 PUSH4 0xED90C7B7 EQ PUSH2 0x3E5 JUMPI DUP1 PUSH4 0xF2FDE38B EQ PUSH2 0x30A JUMPI DUP1 PUSH4 0xF426306F EQ PUSH2 0x2E1 JUMPI PUSH4 0xFDCA4CA3 SUB PUSH2 0xF JUMPI CALLVALUE PUSH2 0x2DE JUMPI DUP1 PUSH1 0x3 NOT CALLDATASIZE ADD SLT PUSH2 0x2DE JUMPI PUSH1 0x9 SLOAD PUSH1 0x40 MLOAD PUSH4 0xFDCA4CA3 PUSH1 0xE0 SHL DUP2 MSTORE SWAP1 DUP3 SWAP1 DUP3 SWAP1 PUSH1 0x4 SWAP1 DUP3 SWAP1 PUSH1 0x1 PUSH1 0x1 PUSH1 0xA0 SHL SUB AND GAS STATICCALL SWAP1 DUP2 ISZERO PUSH2 0x2D3 JUMPI DUP3 PUSH2 0x2AC SWAP4 SWAP3 PUSH2 0x2B0 JUMPI JUMPDEST POP POP PUSH1 0x40 MLOAD SWAP2 DUP3 SWAP2 DUP3 PUSH2 0x2C34 JUMP JUMPDEST SUB SWAP1 RETURN JUMPDEST PUSH2 0x2CC SWAP3 POP RETURNDATASIZE DUP1 SWAP2 DUP4 RETURNDATACOPY PUSH2 0x2C4 DUP2 DUP4 PUSH2 0x2D42 JUMP JUMPDEST DUP2 ADD SWAP1 PUSH2 0x3CCD JUMP JUMPDEST CODESIZE DUP1 PUSH2 0x29E JUMP JUMPDEST PUSH1 0x40 MLOAD RETURNDATASIZE DUP5 DUP3 RETURNDATACOPY RETURNDATASIZE SWAP1 REVERT JUMPDEST DUP1 REVERT JUMPDEST POP CALLVALUE PUSH2 0x2DE JUMPI DUP1 PUSH1 0x3 NOT CALLDATASIZE ADD SLT PUSH2 0x2DE JUMPI PUSH1 0x9 SLOAD PUSH1 0x40 MLOAD PUSH1 0x1 PUSH1 0x1 PUSH1 0xA0 SHL SUB SWAP1 SWAP2 AND DUP2 MSTORE PUSH1 0x20 SWAP1 RETURN JUMPDEST POP CALLVALUE PUSH2 0x2DE JUMPI PUSH1 0x20 CALLDATASIZE PUSH1 0x3 NOT ADD SLT PUSH2 0x2DE JUMPI PUSH2 0x324 PUSH2 0x2C96 JUMP JUMPDEST PUSH2 0x32C PUSH2 0x3129 JUMP JUMPDEST PUSH1 0x1 PUSH1 0x1 PUSH1 0xA0 SHL SUB DUP2 DUP2 AND SWAP2 DUP3 ISZERO PUSH2 0x391 JUMPI PUSH1 0x0 DUP1 SLOAD PUSH3 0x10000 PUSH1 0x1 PUSH1 0xB0 SHL SUB NOT DUP2 AND PUSH1 0x10 SWAP4 DUP5 SHL PUSH3 0x10000 PUSH1 0x1 PUSH1 0xB0 SHL SUB AND OR DUP3 SSTORE SWAP1 SWAP2 SHR SWAP2 SWAP1 SWAP2 AND SWAP1 PUSH32 0x8BE0079C531659141344CD1FD0A4F28419497F9722A3DAAFE3B4186F6B6457E0 SWAP1 DUP1 LOG3 DUP1 RETURN JUMPDEST PUSH1 0x40 MLOAD PUSH3 0x461BCD PUSH1 0xE5 SHL DUP2 MSTORE PUSH1 0x20 PUSH1 0x4 DUP3 ADD MSTORE PUSH1 0x26 PUSH1 0x24 DUP3 ADD MSTORE PUSH32 0x4F776E61626C653A206E6577206F776E657220697320746865207A65726F2061 PUSH1 0x44 DUP3 ADD MSTORE PUSH6 0x646472657373 PUSH1 0xD0 SHL PUSH1 0x64 DUP3 ADD MSTORE PUSH1 0x84 SWAP1 REVERT JUMPDEST POP CALLVALUE PUSH2 0x2DE JUMPI PUSH1 0x20 CALLDATASIZE PUSH1 0x3 NOT ADD SLT PUSH2 0x2DE JUMPI PUSH1 0x9 SLOAD DUP2 SWAP1 PUSH1 0x1 PUSH1 0x1 PUSH1 0xA0 SHL SUB AND DUP1 EXTCODESIZE ISZERO PUSH2 0x449 JUMPI DUP2 DUP1 SWAP2 PUSH1 0x24 PUSH1 0x40 MLOAD DUP1 SWAP5 DUP2 SWAP4 PUSH4 0xED90C7B7 PUSH1 0xE0 SHL DUP4 MSTORE PUSH1 0x4 CALLDATALOAD PUSH1 0x4 DUP5 ADD MSTORE GAS CALL DUP1 ISZERO PUSH2 0x2D3 JUMPI PUSH2 0x439 JUMPI POP RETURN JUMPDEST PUSH2 0x442 SWAP1 PUSH2 0x2CC2 JUMP JUMPDEST PUSH2 0x2DE JUMPI DUP1 RETURN JUMPDEST POP REVERT JUMPDEST POP CALLVALUE PUSH2 0x2DE JUMPI PUSH1 0x20 SWAP1 DUP2 PUSH1 0x3 NOT CALLDATASIZE ADD SLT PUSH2 0x2DE JUMPI PUSH2 0x468 PUSH2 0x2C96 JUMP JUMPDEST PUSH1 0x8 SLOAD PUSH1 0x40 MLOAD PUSH4 0x3AC4710D PUSH1 0xE2 SHL DUP2 MSTORE PUSH1 0x1 PUSH1 0x1 PUSH1 0xA0 SHL SUB SWAP3 DUP4 AND PUSH1 0x4 DUP3 ADD MSTORE SWAP3 SWAP2 DUP5 SWAP2 DUP5 SWAP2 PUSH1 0x24 SWAP2 DUP4 SWAP2 AND GAS STATICCALL SWAP2 DUP3 ISZERO PUSH2 0x4F3 JUMPI DUP2 SWAP3 PUSH2 0x4B5 JUMPI JUMPDEST POP POP PUSH2 0x4B3 PUSH1 0x40 MLOAD DUP1 SWAP3 PUSH2 0x30D2 JUMP JUMPDEST RETURN JUMPDEST SWAP1 SWAP2 POP DUP3 DUP2 DUP2 RETURNDATASIZE DUP4 GT PUSH2 0x4EC JUMPI JUMPDEST PUSH2 0x4CD DUP2 DUP4 PUSH2 0x2D42 JUMP JUMPDEST DUP2 ADD SUB SLT PUSH2 0x4E8 JUMPI MLOAD SWAP1 PUSH1 0x4 DUP3 LT ISZERO PUSH2 0x2DE JUMPI POP CODESIZE DUP1 PUSH2 0x4A4 JUMP JUMPDEST POP DUP1 REVERT JUMPDEST POP RETURNDATASIZE PUSH2 0x4C3 JUMP JUMPDEST POP PUSH1 0x40 MLOAD SWAP1 RETURNDATASIZE SWAP1 DUP3 RETURNDATACOPY RETURNDATASIZE SWAP1 REVERT JUMPDEST POP CALLVALUE PUSH2 0x2DE JUMPI PUSH1 0x40 CALLDATASIZE PUSH1 0x3 NOT ADD SLT PUSH2 0x2DE JUMPI PUSH2 0x51A PUSH2 0x2C96 JUMP JUMPDEST PUSH1 0x40 PUSH2 0x524 PUSH2 0x2CAC JUMP JUMPDEST SWAP3 PUSH1 0x1 DUP1 PUSH1 0xA0 SHL SUB DUP1 SWAP4 AND DUP2 MSTORE PUSH1 0x7 PUSH1 0x20 MSTORE KECCAK256 SWAP2 AND PUSH1 0x0 MSTORE PUSH1 0x20 MSTORE PUSH1 0x20 PUSH1 0xFF PUSH1 0x40 PUSH1 0x0 KECCAK256 SLOAD AND PUSH1 0x40 MLOAD SWAP1 ISZERO ISZERO DUP2 MSTORE RETURN JUMPDEST POP CALLVALUE PUSH2 0x2DE JUMPI DUP1 PUSH1 0x3 NOT CALLDATASIZE ADD SLT PUSH2 0x2DE JUMPI PUSH1 0x20 PUSH1 0xD SLOAD PUSH1 0x40 MLOAD SWAP1 DUP2 MSTORE RETURN JUMPDEST POP CALLVALUE PUSH2 0x2DE JUMPI PUSH1 0x20 CALLDATASIZE PUSH1 0x3 NOT ADD SLT PUSH2 0x2DE JUMPI DUP1 PUSH1 0x4 CALLDATALOAD PUSH1 0x1 PUSH1 0x1 PUSH1 0x40 SHL SUB DUP2 GT PUSH2 0x449 JUMPI PUSH2 0x5A4 SWAP1 CALLDATASIZE SWAP1 PUSH1 0x4 ADD PUSH2 0x2DB5 JUMP JUMPDEST PUSH2 0x5AC PUSH2 0x3129 JUMP JUMPDEST PUSH1 0xA SLOAD PUSH1 0x1 PUSH1 0x1 PUSH1 0xA0 SHL SUB AND DUP1 EXTCODESIZE ISZERO PUSH2 0x5FD JUMPI PUSH1 0x40 MLOAD PUSH4 0x6E14C341 PUSH1 0xE1 SHL DUP2 MSTORE PUSH1 0x20 PUSH1 0x4 DUP3 ADD MSTORE SWAP2 DUP4 SWAP2 DUP4 SWAP2 DUP3 SWAP1 DUP5 SWAP1 DUP3 SWAP1 PUSH2 0x5EC SWAP1 PUSH1 0x24 DUP4 ADD SWAP1 PUSH2 0x2A8A JUMP JUMPDEST SUB SWAP3 GAS CALL DUP1 ISZERO PUSH2 0x2D3 JUMPI PUSH2 0x439 JUMPI POP RETURN JUMPDEST POP POP REVERT JUMPDEST POP CALLVALUE PUSH2 0x2DE JUMPI DUP1 PUSH1 0x3 NOT CALLDATASIZE ADD SLT PUSH2 0x2DE JUMPI PUSH1 0xA SLOAD PUSH1 0x40 MLOAD PUSH4 0xDADD0A57 PUSH1 0xE0 SHL DUP2 MSTORE SWAP2 SWAP1 DUP2 SWAP1 DUP4 SWAP1 PUSH1 0x4 SWAP1 DUP3 SWAP1 PUSH1 0x1 PUSH1 0x1 PUSH1 0xA0 SHL SUB AND GAS STATICCALL DUP1 ISZERO PUSH2 0x4F3 JUMPI DUP2 DUP1 DUP2 SWAP5 DUP3 SWAP4 PUSH2 0x74B JUMPI JUMPDEST POP PUSH2 0x65F PUSH1 0x40 MLOAD SWAP5 PUSH1 0x80 DUP7 MSTORE PUSH1 0x80 DUP7 ADD SWAP1 PUSH2 0x30F5 JUMP JUMPDEST SWAP1 PUSH1 0x20 SWAP2 DUP6 DUP2 SUB DUP4 DUP8 ADD MSTORE DUP2 MLOAD DUP1 DUP3 MSTORE DUP4 DUP3 ADD SWAP2 DUP5 DUP1 DUP4 PUSH1 0x5 SHL DUP4 ADD ADD SWAP5 ADD SWAP3 DUP7 SWAP2 JUMPDEST DUP7 DUP5 DUP5 LT PUSH2 0x720 JUMPI POP POP POP POP POP POP DUP5 DUP2 SUB PUSH1 0x40 DUP7 ADD MSTORE DUP2 DUP1 DUP8 MLOAD SWAP3 DUP4 DUP2 MSTORE ADD SWAP7 ADD SWAP1 DUP4 JUMPDEST DUP2 DUP2 LT PUSH2 0x70A JUMPI POP POP POP DUP4 DUP6 SUB PUSH1 0x60 DUP6 ADD MSTORE DUP3 MLOAD SWAP1 DUP2 DUP7 MSTORE DUP1 DUP7 ADD DUP2 DUP1 DUP5 PUSH1 0x5 SHL DUP10 ADD ADD SWAP6 ADD SWAP4 SWAP7 JUMPDEST DUP4 DUP9 LT PUSH2 0x6DC JUMPI DUP7 DUP7 SUB DUP8 RETURN JUMPDEST SWAP1 SWAP2 SWAP3 SWAP4 SWAP5 DUP4 DUP1 PUSH2 0x6F9 PUSH1 0x1 SWAP4 PUSH1 0x1F NOT DUP7 DUP3 SUB ADD DUP8 MSTORE DUP10 MLOAD PUSH2 0x30F5 JUMP JUMPDEST SWAP8 ADD SWAP4 ADD SWAP8 ADD SWAP7 SWAP1 SWAP4 SWAP3 SWAP2 SWAP4 PUSH2 0x6CF JUMP JUMPDEST DUP3 MLOAD ISZERO ISZERO DUP9 MSTORE SWAP7 DUP4 ADD SWAP7 SWAP2 DUP4 ADD SWAP2 PUSH1 0x1 ADD PUSH2 0x6A6 JUMP JUMPDEST DUP1 PUSH2 0x73C PUSH1 0x1 SWAP4 SWAP5 SWAP6 SWAP7 SWAP8 SWAP9 PUSH1 0x1F NOT DUP7 DUP3 SUB ADD DUP8 MSTORE DUP10 MLOAD PUSH2 0x2A8A JUMP JUMPDEST SWAP8 ADD SWAP4 ADD SWAP4 ADD SWAP2 SWAP4 SWAP3 SWAP1 PUSH2 0x682 JUMP JUMPDEST SWAP4 POP POP SWAP3 POP POP RETURNDATASIZE DUP1 DUP4 DUP4 RETURNDATACOPY PUSH2 0x760 DUP2 DUP4 PUSH2 0x2D42 JUMP JUMPDEST DUP2 ADD SWAP1 PUSH1 0x80 DUP2 DUP4 SUB SLT PUSH2 0x8B9 JUMPI DUP1 MLOAD SWAP3 PUSH1 0x1 PUSH1 0x1 PUSH1 0x40 SHL SUB SWAP4 DUP5 DUP2 GT PUSH2 0x4E8 JUMPI DUP4 PUSH2 0x78C SWAP2 DUP5 ADD PUSH2 0x3A12 JUMP JUMPDEST PUSH1 0x20 DUP1 DUP5 ADD MLOAD DUP7 DUP2 GT PUSH2 0x8B5 JUMPI DUP6 PUSH2 0x7A5 SWAP2 DUP7 ADD PUSH2 0x3A70 JUMP JUMPDEST SWAP5 PUSH1 0x40 DUP6 ADD MLOAD DUP8 DUP2 GT PUSH2 0x895 JUMPI DUP6 ADD SWAP5 DUP2 PUSH1 0x1F DUP8 ADD SLT ISZERO PUSH2 0x895 JUMPI DUP6 MLOAD SWAP6 PUSH2 0x7CC DUP8 PUSH2 0x3628 JUMP JUMPDEST SWAP7 PUSH2 0x7DA PUSH1 0x40 MLOAD SWAP9 DUP10 PUSH2 0x2D42 JUMP JUMPDEST DUP1 DUP9 MSTORE DUP5 DUP1 DUP10 ADD SWAP2 PUSH1 0x5 SHL DUP4 ADD ADD SWAP2 DUP5 DUP4 GT PUSH2 0x891 JUMPI DUP6 DUP1 SWAP2 ADD SWAP2 JUMPDEST DUP4 DUP4 LT PUSH2 0x89D JUMPI POP POP POP POP PUSH1 0x60 DUP2 ADD MLOAD SWAP1 DUP9 DUP3 GT PUSH2 0x899 JUMPI ADD SWAP1 DUP1 PUSH1 0x1F DUP4 ADD SLT ISZERO PUSH2 0x895 JUMPI DUP2 MLOAD SWAP1 PUSH2 0x827 DUP3 PUSH2 0x3628 JUMP JUMPDEST SWAP9 PUSH2 0x835 PUSH1 0x40 MLOAD SWAP11 DUP12 PUSH2 0x2D42 JUMP JUMPDEST DUP3 DUP11 MSTORE DUP5 DUP1 DUP12 ADD SWAP4 PUSH1 0x5 SHL DUP6 ADD ADD SWAP4 DUP3 DUP6 GT PUSH2 0x891 JUMPI DUP6 DUP2 ADD SWAP4 JUMPDEST DUP6 DUP6 LT PUSH2 0x868 JUMPI POP POP POP POP POP POP POP SWAP3 SWAP2 SWAP4 SWAP2 CODESIZE PUSH2 0x649 JUMP JUMPDEST DUP5 MLOAD DUP4 DUP2 GT PUSH2 0x88D JUMPI DUP8 SWAP2 PUSH2 0x882 DUP7 DUP5 DUP1 SWAP5 DUP8 ADD ADD PUSH2 0x3A12 JUMP JUMPDEST DUP2 MSTORE ADD SWAP5 ADD SWAP4 PUSH2 0x850 JUMP JUMPDEST DUP10 DUP1 REVERT JUMPDEST DUP8 DUP1 REVERT JUMPDEST DUP5 DUP1 REVERT JUMPDEST DUP6 DUP1 REVERT JUMPDEST DUP2 SWAP1 PUSH2 0x8A8 DUP5 PUSH2 0x3653 JUMP JUMPDEST DUP2 MSTORE ADD SWAP2 ADD SWAP1 DUP6 SWAP1 PUSH2 0x7F6 JUMP JUMPDEST DUP4 DUP1 REVERT JUMPDEST DUP3 DUP1 REVERT JUMPDEST POP CALLVALUE PUSH2 0x2DE JUMPI DUP1 PUSH1 0x3 NOT CALLDATASIZE ADD SLT PUSH2 0x2DE JUMPI PUSH1 0xA SLOAD PUSH1 0x40 MLOAD PUSH1 0x1 PUSH1 0x1 PUSH1 0xA0 SHL SUB SWAP1 SWAP2 AND DUP2 MSTORE PUSH1 0x20 SWAP1 RETURN JUMPDEST POP CALLVALUE PUSH2 0x2DE JUMPI DUP1 PUSH1 0x3 NOT PUSH1 0x60 CALLDATASIZE DUP3 ADD SLT PUSH2 0x449 JUMPI PUSH1 0x1 PUSH1 0x1 PUSH1 0x40 SHL SUB PUSH1 0x4 CALLDATALOAD DUP2 DUP2 GT PUSH2 0x9B2 JUMPI PUSH2 0x91A SWAP1 CALLDATASIZE SWAP1 PUSH1 0x4 ADD PUSH2 0x2DB5 JUMP JUMPDEST SWAP1 PUSH1 0x24 CALLDATALOAD DUP2 DUP2 GT PUSH2 0x895 JUMPI PUSH2 0x933 SWAP1 CALLDATASIZE SWAP1 PUSH1 0x4 ADD PUSH2 0x2DB5 JUMP JUMPDEST SWAP1 PUSH1 0x44 CALLDATALOAD SWAP1 DUP2 GT PUSH2 0x895 JUMPI PUSH2 0x94C SWAP1 CALLDATASIZE SWAP1 PUSH1 0x4 ADD PUSH2 0x2DB5 JUMP JUMPDEST PUSH1 0x8 SLOAD PUSH1 0x1 PUSH1 0x1 PUSH1 0xA0 SHL SUB AND SWAP1 DUP2 EXTCODESIZE ISZERO PUSH2 0x899 JUMPI DUP6 DUP1 SWAP5 PUSH2 0x5EC PUSH2 0x9A3 SWAP8 PUSH2 0x993 SWAP5 PUSH1 0x40 MLOAD SWAP10 DUP11 SWAP9 DUP10 SWAP8 DUP9 SWAP7 PUSH4 0x6B1BEE7D PUSH1 0xE1 SHL DUP9 MSTORE PUSH1 0x60 PUSH1 0x4 DUP10 ADD MSTORE PUSH1 0x64 DUP9 ADD SWAP1 PUSH2 0x2A8A JUMP JUMPDEST SWAP1 DUP5 DUP8 DUP4 SUB ADD PUSH1 0x24 DUP9 ADD MSTORE PUSH2 0x2A8A JUMP JUMPDEST SWAP2 DUP5 DUP4 SUB ADD PUSH1 0x44 DUP6 ADD MSTORE PUSH2 0x2A8A JUMP JUMPDEST POP POP POP REVERT JUMPDEST POP CALLVALUE PUSH2 0x2DE JUMPI PUSH1 0x40 CALLDATASIZE PUSH1 0x3 NOT ADD SLT PUSH2 0x2DE JUMPI DUP1 PUSH1 0x24 CALLDATALOAD PUSH1 0x1 PUSH1 0x1 PUSH1 0x40 SHL SUB DUP1 DUP3 GT PUSH2 0x5FD JUMPI CALLDATASIZE PUSH1 0x23 DUP4 ADD SLT ISZERO PUSH2 0x5FD JUMPI DUP2 PUSH1 0x4 ADD CALLDATALOAD SWAP1 DUP2 GT PUSH2 0x5FD JUMPI CALLDATASIZE PUSH1 0x24 DUP3 PUSH1 0x5 SHL DUP5 ADD ADD GT PUSH2 0x5FD JUMPI PUSH2 0xA0A PUSH2 0x3129 JUMP JUMPDEST PUSH1 0xA SLOAD PUSH1 0x1 PUSH1 0x1 PUSH1 0xA0 SHL SUB AND SWAP2 DUP3 EXTCODESIZE ISZERO PUSH2 0x9B2 JUMPI PUSH2 0x5EC SWAP3 DUP5 SWAP3 DUP4 PUSH1 0x40 MLOAD DUP1 SWAP7 DUP2 SWAP6 DUP3 SWAP5 PUSH4 0x1A5793AF PUSH1 0xE3 SHL DUP5 MSTORE PUSH1 0x4 CALLDATALOAD PUSH1 0x4 DUP6 ADD MSTORE PUSH1 0x40 PUSH1 0x24 DUP6 ADD MSTORE PUSH1 0x24 PUSH1 0x44 DUP6 ADD SWAP3 ADD PUSH2 0x382D JUMP JUMPDEST POP CALLVALUE PUSH2 0x2DE JUMPI DUP1 PUSH1 0x3 NOT CALLDATASIZE ADD SLT PUSH2 0x2DE JUMPI PUSH1 0xB SLOAD PUSH1 0x40 MLOAD PUSH1 0x1 PUSH1 0x1 PUSH1 0xA0 SHL SUB SWAP1 SWAP2 AND DUP2 MSTORE PUSH1 0x20 SWAP1 RETURN JUMPDEST POP CALLVALUE PUSH2 0x2DE JUMPI PUSH1 0x20 SWAP1 DUP2 PUSH1 0x3 NOT CALLDATASIZE ADD SLT PUSH2 0x2DE JUMPI DUP2 PUSH1 0x4 CALLDATALOAD SWAP2 PUSH2 0xABD PUSH2 0xAB8 DUP5 PUSH1 0x0 MSTORE PUSH1 0x4 PUSH1 0x20 MSTORE PUSH1 0x1 DUP1 PUSH1 0xA0 SHL SUB PUSH1 0x40 PUSH1 0x0 KECCAK256 SLOAD AND ISZERO ISZERO SWAP1 JUMP JUMPDEST PUSH2 0x3184 JUMP JUMPDEST PUSH1 0x40 MLOAD SWAP3 PUSH2 0xACA DUP5 PUSH2 0x2D27 JUMP JUMPDEST DUP2 DUP5 MSTORE DUP2 ISZERO PUSH2 0xC8F JUMPI DUP2 SWAP1 DUP1 PUSH27 0x184F03E93FF9F4DAA797ED6E38ED64BF6A1F010000000000000000 DUP2 DUP2 DUP2 LT ISZERO PUSH2 0xC81 JUMPI JUMPDEST POP POP DUP5 PUSH14 0x4EE2D6D415B85ACEF8100000000 DUP1 DUP5 LT ISZERO PUSH2 0xC73 JUMPI JUMPDEST POP POP PUSH7 0x2386F26FC10000 DUP1 DUP4 LT ISZERO PUSH2 0xC64 JUMPI JUMPDEST POP PUSH4 0x5F5E100 DUP1 DUP4 LT ISZERO PUSH2 0xC55 JUMPI JUMPDEST POP PUSH2 0x2710 DUP1 DUP4 LT ISZERO PUSH2 0xC46 JUMPI JUMPDEST POP PUSH1 0x64 DUP3 LT ISZERO PUSH2 0xC36 JUMPI JUMPDEST PUSH1 0xA DUP1 SWAP3 LT ISZERO PUSH2 0xC2C JUMPI JUMPDEST PUSH1 0x1 SWAP1 DUP2 PUSH1 0x21 DUP2 DUP7 ADD SWAP6 PUSH2 0xB88 PUSH2 0xB72 DUP9 PUSH2 0x2D63 JUMP JUMPDEST SWAP8 PUSH2 0xB80 PUSH1 0x40 MLOAD SWAP10 DUP11 PUSH2 0x2D42 JUMP JUMPDEST DUP1 DUP10 MSTORE PUSH2 0x2D63 JUMP JUMPDEST DUP8 DUP11 ADD SWAP9 SWAP1 PUSH1 0x1F NOT ADD CALLDATASIZE DUP11 CALLDATACOPY POP DUP7 ADD ADD SWAP1 JUMPDEST PUSH2 0xBF6 JUMPI JUMPDEST POP POP POP POP SWAP3 PUSH2 0xBE0 SWAP3 SWAP2 PUSH2 0xBD4 SWAP5 PUSH1 0x40 MLOAD SWAP6 DUP4 PUSH2 0xBC5 DUP9 SWAP6 MLOAD DUP1 SWAP3 DUP9 DUP1 DUP10 ADD SWAP2 ADD PUSH2 0x2A67 JUMP JUMPDEST DUP5 ADD SWAP2 MLOAD DUP1 SWAP4 DUP7 DUP5 ADD SWAP1 PUSH2 0x2A67 JUMP JUMPDEST ADD SUB DUP1 DUP5 MSTORE ADD DUP3 PUSH2 0x2D42 JUMP JUMPDEST SWAP1 JUMPDEST PUSH2 0x2AC PUSH1 0x40 MLOAD SWAP3 DUP3 DUP5 SWAP4 DUP5 MSTORE DUP4 ADD SWAP1 PUSH2 0x2A8A JUMP JUMPDEST PUSH1 0x0 NOT ADD SWAP1 DUP4 SWAP1 PUSH16 0x181899199A1A9B1B9C1CB0B131B232B3 PUSH1 0x81 SHL DUP3 DUP3 MOD BYTE DUP4 MSTORE8 DIV SWAP2 DUP3 ISZERO PUSH2 0xC27 JUMPI SWAP2 SWAP1 DUP3 PUSH2 0xB9A JUMP JUMPDEST PUSH2 0xB9F JUMP JUMPDEST SWAP2 PUSH1 0x1 ADD SWAP2 PUSH2 0xB5C JUMP JUMPDEST SWAP2 SWAP1 PUSH1 0x64 PUSH1 0x2 SWAP2 DIV SWAP2 ADD SWAP2 PUSH2 0xB51 JUMP JUMPDEST PUSH1 0x4 SWAP2 SWAP4 SWAP3 DIV SWAP2 ADD SWAP2 CODESIZE PUSH2 0xB46 JUMP JUMPDEST PUSH1 0x8 SWAP2 SWAP4 SWAP3 DIV SWAP2 ADD SWAP2 CODESIZE PUSH2 0xB39 JUMP JUMPDEST PUSH1 0x10 SWAP2 SWAP4 SWAP3 DIV SWAP2 ADD SWAP2 CODESIZE PUSH2 0xB2A JUMP JUMPDEST SWAP4 ADD SWAP3 SWAP1 SWAP2 DIV SWAP1 DUP5 CODESIZE PUSH2 0xB17 JUMP JUMPDEST PUSH1 0x40 SWAP5 POP DIV SWAP2 POP CODESIZE DUP1 PUSH2 0xAFC JUMP JUMPDEST POP POP POP POP PUSH1 0x40 MLOAD PUSH2 0xC9F DUP2 PUSH2 0x2D27 JUMP JUMPDEST PUSH1 0x0 DUP2 MSTORE SWAP1 PUSH2 0xBE2 JUMP JUMPDEST POP CALLVALUE PUSH2 0x2DE JUMPI PUSH1 0x20 CALLDATASIZE PUSH1 0x3 NOT ADD SLT PUSH2 0x2DE JUMPI DUP1 PUSH2 0x200 PUSH1 0x40 MLOAD PUSH2 0xCCB DUP2 PUSH2 0x2CF0 JUMP JUMPDEST DUP3 DUP2 MSTORE DUP3 PUSH1 0x20 DUP3 ADD MSTORE PUSH1 0x60 DUP1 PUSH1 0x40 DUP4 ADD MSTORE DUP1 DUP1 DUP4 ADD MSTORE DUP4 PUSH1 0x80 DUP4 ADD MSTORE DUP4 PUSH1 0xA0 DUP4 ADD MSTORE DUP1 PUSH1 0xC0 DUP4 ADD MSTORE DUP1 PUSH1 0xE0 DUP4 ADD MSTORE DUP1 PUSH2 0x100 DUP4 ADD MSTORE DUP1 PUSH2 0x120 DUP4 ADD MSTORE DUP1 PUSH2 0x140 DUP4 ADD MSTORE DUP4 PUSH2 0x160 DUP4 ADD MSTORE DUP1 PUSH2 0x180 DUP4 ADD MSTORE PUSH2 0x1A0 DUP3 ADD MSTORE DUP3 PUSH2 0x1C0 DUP3 ADD MSTORE DUP3 PUSH2 0x1E0 DUP3 ADD MSTORE ADD MSTORE PUSH1 0x24 DUP2 PUSH1 0x1 DUP1 PUSH1 0xA0 SHL SUB PUSH1 0x9 SLOAD AND PUSH1 0x40 MLOAD SWAP3 DUP4 DUP1 SWAP3 PUSH4 0x2E76C56D PUSH1 0xE2 SHL DUP3 MSTORE PUSH1 0x4 CALLDATALOAD PUSH1 0x4 DUP4 ADD MSTORE GAS STATICCALL SWAP1 DUP2 ISZERO PUSH2 0x2D3 JUMPI DUP3 PUSH2 0x2AC SWAP4 SWAP3 PUSH2 0xD83 JUMPI JUMPDEST POP POP PUSH1 0x40 MLOAD SWAP2 DUP3 SWAP2 PUSH1 0x20 DUP4 MSTORE PUSH1 0x20 DUP4 ADD SWAP1 PUSH2 0x2B0B JUMP JUMPDEST PUSH2 0xD9F SWAP3 POP RETURNDATASIZE DUP1 SWAP2 DUP4 RETURNDATACOPY PUSH2 0xD97 DUP2 DUP4 PUSH2 0x2D42 JUMP JUMPDEST DUP2 ADD SWAP1 PUSH2 0x3C7F JUMP JUMPDEST CODESIZE DUP1 PUSH2 0xD6D JUMP JUMPDEST POP CALLVALUE PUSH2 0x2DE JUMPI PUSH1 0x80 CALLDATASIZE PUSH1 0x3 NOT ADD SLT PUSH2 0x2DE JUMPI PUSH2 0xDC0 PUSH2 0x2C96 JUMP JUMPDEST PUSH2 0xDC8 PUSH2 0x2CAC JUMP JUMPDEST PUSH1 0x64 CALLDATALOAD SWAP2 PUSH1 0x1 PUSH1 0x1 PUSH1 0x40 SHL SUB DUP4 GT PUSH2 0x8B5 JUMPI CALLDATASIZE PUSH1 0x23 DUP5 ADD SLT ISZERO PUSH2 0x8B5 JUMPI PUSH2 0xDFC PUSH2 0xE06 SWAP4 CALLDATASIZE SWAP1 PUSH1 0x24 DUP2 PUSH1 0x4 ADD CALLDATALOAD SWAP2 ADD PUSH2 0x2D7E JUMP JUMPDEST SWAP2 PUSH1 0x44 CALLDATALOAD SWAP2 PUSH2 0x3293 JUMP JUMPDEST DUP1 RETURN JUMPDEST POP CALLVALUE PUSH2 0x2DE JUMPI DUP1 PUSH1 0x3 NOT CALLDATASIZE ADD SLT PUSH2 0x2DE JUMPI PUSH1 0x8 SLOAD PUSH1 0x40 MLOAD PUSH1 0x1 PUSH1 0x1 PUSH1 0xA0 SHL SUB SWAP1 SWAP2 AND DUP2 MSTORE PUSH1 0x20 SWAP1 RETURN JUMPDEST POP CALLVALUE PUSH2 0x2DE JUMPI DUP1 PUSH1 0x3 NOT PUSH1 0x40 CALLDATASIZE DUP3 ADD SLT PUSH2 0x449 JUMPI PUSH1 0x24 CALLDATALOAD SWAP1 PUSH1 0x1 PUSH1 0x1 PUSH1 0x40 SHL SUB DUP3 GT PUSH2 0x5FD JUMPI PUSH2 0x1A0 SWAP1 DUP3 CALLDATASIZE SUB ADD SLT PUSH2 0x449 JUMPI PUSH1 0x9 SLOAD PUSH1 0x1 PUSH1 0x1 PUSH1 0xA0 SHL SUB AND DUP1 EXTCODESIZE ISZERO PUSH2 0x5FD JUMPI PUSH2 0x5EC DUP4 SWAP3 SWAP2 DUP4 SWAP3 PUSH1 0x40 MLOAD SWAP5 DUP6 DUP1 SWAP5 DUP2 SWAP4 PUSH4 0x16AB9DE7 PUSH1 0xE3 SHL DUP4 MSTORE PUSH1 0x4 CALLDATALOAD PUSH1 0x4 DUP5 ADD MSTORE PUSH1 0x40 PUSH1 0x24 DUP5 ADD MSTORE PUSH1 0x44 DUP4 ADD SWAP1 PUSH1 0x4 ADD PUSH2 0x388A JUMP JUMPDEST POP CALLVALUE PUSH2 0x2DE JUMPI PUSH1 0x20 CALLDATASIZE PUSH1 0x3 NOT ADD SLT PUSH2 0x2DE JUMPI PUSH2 0xEC9 PUSH2 0x2C96 JUMP JUMPDEST PUSH1 0xC SLOAD PUSH1 0x40 MLOAD PUSH4 0xB27E1697 PUSH1 0xE0 SHL DUP2 MSTORE PUSH1 0x1 PUSH1 0x1 PUSH1 0xA0 SHL SUB SWAP3 DUP4 AND PUSH1 0x4 DUP3 ADD MSTORE SWAP2 DUP4 SWAP2 DUP4 SWAP2 PUSH1 0x24 SWAP2 DUP4 SWAP2 AND GAS STATICCALL SWAP1 DUP2 ISZERO PUSH2 0x2D3 JUMPI DUP3 PUSH2 0x2AC SWAP4 SWAP3 PUSH2 0xF16 JUMPI JUMPDEST POP POP PUSH1 0x40 MLOAD SWAP2 DUP3 SWAP2 DUP3 PUSH2 0x2E35 JUMP JUMPDEST PUSH2 0xF32 SWAP3 POP RETURNDATASIZE DUP1 SWAP2 DUP4 RETURNDATACOPY PUSH2 0xF2A DUP2 DUP4 PUSH2 0x2D42 JUMP JUMPDEST DUP2 ADD SWAP1 PUSH2 0x3D62 JUMP JUMPDEST CODESIZE DUP1 PUSH2 0xF08 JUMP JUMPDEST POP CALLVALUE PUSH2 0x2DE JUMPI PUSH1 0x20 CALLDATASIZE PUSH1 0x3 NOT ADD SLT PUSH2 0x2DE JUMPI PUSH2 0xF53 PUSH2 0x2C96 JUMP JUMPDEST SWAP1 PUSH2 0xF5C PUSH2 0x36A2 JUMP JUMPDEST POP PUSH1 0x8 SLOAD PUSH1 0x40 MLOAD PUSH4 0x5191E94F PUSH1 0xE1 SHL DUP2 MSTORE PUSH1 0x1 PUSH1 0x1 PUSH1 0xA0 SHL SUB SWAP4 DUP5 AND PUSH1 0x4 DUP3 ADD MSTORE SWAP3 DUP3 SWAP2 DUP5 SWAP2 PUSH1 0x24 SWAP2 DUP4 SWAP2 AND GAS STATICCALL SWAP1 DUP2 ISZERO PUSH2 0x1031 JUMPI DUP1 SWAP2 DUP2 DUP1 SWAP2 PUSH2 0xFCE JUMPI JUMPDEST POP PUSH2 0xFB8 SWAP4 POP PUSH2 0xFC3 PUSH1 0x40 MLOAD SWAP5 DUP6 SWAP5 PUSH1 0x60 DUP7 MSTORE PUSH1 0x60 DUP7 ADD SWAP1 PUSH2 0x3052 JUMP JUMPDEST SWAP3 PUSH1 0x20 DUP6 ADD SWAP1 PUSH2 0x30D2 JUMP JUMPDEST ISZERO ISZERO PUSH1 0x40 DUP4 ADD MSTORE SUB SWAP1 RETURN JUMPDEST SWAP3 POP POP POP RETURNDATASIZE DUP1 DUP3 DUP5 RETURNDATACOPY PUSH2 0xFE1 DUP2 DUP5 PUSH2 0x2D42 JUMP JUMPDEST DUP3 ADD PUSH1 0x60 DUP4 DUP3 SUB SLT PUSH2 0x4E8 JUMPI DUP3 MLOAD PUSH1 0x1 PUSH1 0x1 PUSH1 0x40 SHL SUB DUP2 GT PUSH2 0x8B9 JUMPI SWAP1 PUSH2 0x1009 SWAP2 DUP5 ADD PUSH2 0x36D9 JUMP JUMPDEST PUSH1 0x20 DUP4 ADD MLOAD SWAP2 PUSH1 0x4 DUP4 LT ISZERO PUSH2 0x2DE JUMPI POP PUSH2 0x1028 PUSH1 0x40 PUSH2 0xFB8 SWAP5 ADD PUSH2 0x3653 JUMP JUMPDEST SWAP1 SWAP2 SWAP1 CODESIZE PUSH2 0xF9B JUMP JUMPDEST PUSH1 0x40 MLOAD SWAP1 RETURNDATASIZE SWAP1 DUP3 RETURNDATACOPY RETURNDATASIZE SWAP1 REVERT JUMPDEST POP CALLVALUE PUSH2 0x2DE JUMPI PUSH1 0x40 CALLDATASIZE PUSH1 0x3 NOT ADD SLT PUSH2 0x2DE JUMPI PUSH2 0x1057 PUSH2 0x2C96 JUMP JUMPDEST PUSH1 0x24 CALLDATALOAD SWAP1 DUP2 ISZERO ISZERO DUP1 SWAP3 SUB PUSH2 0x8B9 JUMPI PUSH1 0x1 PUSH1 0x1 PUSH1 0xA0 SHL SUB AND SWAP1 CALLER DUP3 EQ PUSH2 0x10CA JUMPI CALLER DUP4 MSTORE PUSH1 0x7 PUSH1 0x20 MSTORE PUSH1 0x40 DUP4 KECCAK256 DUP3 PUSH1 0x0 MSTORE PUSH1 0x20 MSTORE PUSH1 0x40 PUSH1 0x0 KECCAK256 PUSH1 0xFF NOT DUP2 SLOAD AND PUSH1 0xFF DUP4 AND OR SWAP1 SSTORE PUSH1 0x40 MLOAD SWAP1 DUP2 MSTORE PUSH32 0x17307EAB39AB6107E8899845AD3D59BD9653F200F220920489CA2B5937696C31 PUSH1 0x20 CALLER SWAP3 LOG3 DUP1 RETURN JUMPDEST PUSH1 0x40 MLOAD PUSH3 0x461BCD PUSH1 0xE5 SHL DUP2 MSTORE PUSH1 0x20 PUSH1 0x4 DUP3 ADD MSTORE PUSH1 0x19 PUSH1 0x24 DUP3 ADD MSTORE PUSH32 0x4552433732313A20617070726F766520746F2063616C6C657200000000000000 PUSH1 0x44 DUP3 ADD MSTORE PUSH1 0x64 SWAP1 REVERT JUMPDEST POP CALLVALUE PUSH2 0x2DE JUMPI PUSH1 0x20 CALLDATASIZE PUSH1 0x3 NOT ADD SLT PUSH2 0x2DE JUMPI PUSH1 0xB SLOAD PUSH1 0x40 MLOAD PUSH4 0x9D4A2255 PUSH1 0xE0 SHL DUP2 MSTORE PUSH1 0x4 DUP1 CALLDATALOAD SWAP1 DUP3 ADD MSTORE SWAP1 DUP3 SWAP1 DUP3 SWAP1 PUSH1 0x24 SWAP1 DUP3 SWAP1 PUSH1 0x1 PUSH1 0x1 PUSH1 0xA0 SHL SUB AND GAS STATICCALL SWAP1 DUP2 ISZERO PUSH2 0x2D3 JUMPI DUP3 SWAP2 PUSH2 0x1208 JUMPI JUMPDEST POP SWAP1 PUSH1 0x40 MLOAD SWAP2 DUP3 SWAP2 PUSH1 0x20 DUP4 ADD PUSH1 0x20 DUP5 MSTORE DUP3 MLOAD DUP1 SWAP2 MSTORE PUSH1 0x40 DUP5 ADD PUSH1 0x20 PUSH1 0x40 DUP4 PUSH1 0x5 SHL DUP8 ADD ADD SWAP5 ADD SWAP3 SWAP1 JUMPDEST DUP3 DUP3 LT PUSH2 0x1194 JUMPI POP POP POP POP SUB SWAP1 RETURN JUMPDEST SWAP2 SWAP4 PUSH1 0x1 SWAP2 SWAP4 SWAP6 POP PUSH1 0x20 DUP1 SWAP2 PUSH1 0x3F NOT DUP10 DUP3 SUB ADD DUP6 MSTORE DUP8 MLOAD SWAP1 DUP2 MLOAD DUP2 MSTORE DUP5 DUP1 PUSH1 0xA0 SHL SUB DUP4 DUP4 ADD MLOAD AND DUP4 DUP3 ADD MSTORE PUSH1 0x40 DUP3 ADD MLOAD PUSH1 0x40 DUP3 ADD MSTORE PUSH2 0x11E2 PUSH1 0x60 DUP1 DUP5 ADD MLOAD SWAP1 PUSH1 0xC0 DUP1 SWAP2 DUP6 ADD MSTORE DUP4 ADD SWAP1 PUSH2 0x2A8A JUMP JUMPDEST SWAP2 PUSH1 0x80 DUP1 DUP3 ADD MLOAD ISZERO ISZERO SWAP1 DUP4 ADD MSTORE PUSH1 0xA0 DUP1 SWAP2 ADD MLOAD SWAP2 ADD MSTORE SWAP7 ADD SWAP3 ADD SWAP3 ADD DUP6 SWAP5 SWAP4 SWAP2 SWAP3 PUSH2 0x1185 JUMP JUMPDEST SWAP1 POP RETURNDATASIZE DUP1 DUP4 DUP4 RETURNDATACOPY PUSH2 0x1219 DUP2 DUP4 PUSH2 0x2D42 JUMP JUMPDEST PUSH1 0x20 DUP3 DUP3 DUP2 ADD SUB SLT PUSH2 0x8B9 JUMPI DUP2 MLOAD SWAP1 PUSH1 0x1 PUSH1 0x1 PUSH1 0x40 SHL SUB DUP3 GT PUSH2 0x8B5 JUMPI DUP1 DUP4 ADD PUSH1 0x1F DUP4 DUP6 ADD ADD SLT ISZERO PUSH2 0x8B5 JUMPI DUP2 DUP4 ADD MLOAD SWAP1 PUSH2 0x1253 DUP3 PUSH2 0x3628 JUMP JUMPDEST SWAP4 PUSH2 0x1261 PUSH1 0x40 MLOAD SWAP6 DUP7 PUSH2 0x2D42 JUMP JUMPDEST DUP3 DUP6 MSTORE PUSH1 0x20 DUP6 ADD SWAP4 DUP3 DUP3 ADD PUSH1 0x20 DUP6 PUSH1 0x5 SHL DUP4 DUP6 ADD ADD ADD GT PUSH2 0x1395 JUMPI PUSH1 0x20 DUP2 DUP4 ADD ADD SWAP5 JUMPDEST PUSH1 0x20 DUP6 PUSH1 0x5 SHL DUP4 DUP6 ADD ADD ADD DUP7 LT PUSH2 0x12A1 JUMPI POP POP POP POP POP POP CODESIZE PUSH2 0x115C JUMP JUMPDEST DUP6 MLOAD PUSH1 0x1 PUSH1 0x1 PUSH1 0x40 SHL SUB DUP2 GT PUSH2 0x1391 JUMPI PUSH1 0xC0 DUP5 DUP5 ADD DUP3 ADD DUP7 DUP7 ADD SUB PUSH1 0x1F NOT ADD SLT PUSH2 0x1391 JUMPI PUSH1 0x40 MLOAD SWAP2 DUP3 PUSH1 0xC0 DUP2 ADD LT PUSH1 0x1 PUSH1 0x1 PUSH1 0x40 SHL SUB PUSH1 0xC0 DUP6 ADD GT OR PUSH2 0x137B JUMPI PUSH1 0xC0 DUP4 ADD PUSH1 0x40 SWAP1 DUP2 MSTORE DUP6 DUP6 ADD DUP4 ADD PUSH1 0x20 DUP2 ADD MLOAD DUP6 MSTORE PUSH2 0x1300 SWAP2 ADD PUSH2 0x363F JUMP JUMPDEST PUSH1 0x20 DUP5 ADD MSTORE DUP5 DUP5 ADD DUP3 ADD PUSH1 0x60 DUP2 ADD MLOAD PUSH1 0x40 DUP6 ADD MSTORE PUSH1 0x80 ADD MLOAD SWAP1 PUSH1 0x1 PUSH1 0x1 PUSH1 0x40 SHL SUB DUP3 GT PUSH2 0x1377 JUMPI PUSH1 0x20 SWAP4 DUP5 SWAP4 PUSH2 0x1342 DUP6 SWAP5 DUP6 DUP12 DUP12 ADD SWAP2 DUP5 DUP12 DUP14 ADD ADD ADD ADD PUSH2 0x3660 JUMP JUMPDEST PUSH1 0x60 DUP4 ADD MSTORE PUSH1 0xC0 PUSH1 0xA0 SWAP2 PUSH2 0x135B DUP4 DUP3 DUP12 DUP14 ADD ADD ADD PUSH2 0x3653 JUMP JUMPDEST PUSH1 0x80 DUP6 ADD MSTORE DUP9 DUP11 ADD ADD ADD MLOAD SWAP1 DUP3 ADD MSTORE DUP2 MSTORE ADD SWAP7 ADD SWAP6 SWAP1 POP PUSH2 0x1284 JUMP JUMPDEST DUP11 DUP1 REVERT JUMPDEST PUSH4 0x4E487B71 PUSH1 0xE0 SHL PUSH1 0x0 MSTORE PUSH1 0x41 PUSH1 0x4 MSTORE PUSH1 0x24 PUSH1 0x0 REVERT JUMPDEST DUP9 DUP1 REVERT JUMPDEST DUP7 DUP1 REVERT JUMPDEST POP CALLVALUE PUSH2 0x2DE JUMPI PUSH1 0x40 CALLDATASIZE PUSH1 0x3 NOT ADD SLT PUSH2 0x2DE JUMPI DUP1 PUSH2 0x13B4 PUSH2 0x2C96 JUMP JUMPDEST PUSH1 0x24 CALLDATALOAD SWAP1 PUSH1 0x4 DUP3 LT ISZERO PUSH2 0x5FD JUMPI PUSH2 0x13C9 PUSH2 0x3129 JUMP JUMPDEST PUSH1 0x8 SLOAD PUSH1 0x1 PUSH1 0x1 PUSH1 0xA0 SHL SUB SWAP1 DUP2 AND DUP1 EXTCODESIZE ISZERO PUSH2 0x895 JUMPI DUP5 SWAP3 DUP4 PUSH1 0x44 SWAP3 PUSH2 0x1409 PUSH1 0x40 MLOAD SWAP8 DUP9 SWAP7 DUP8 SWAP6 PUSH4 0x97B6F393 PUSH1 0xE0 SHL DUP8 MSTORE AND PUSH1 0x4 DUP7 ADD MSTORE PUSH1 0x24 DUP6 ADD SWAP1 PUSH2 0x30D2 JUMP JUMPDEST GAS CALL DUP1 ISZERO PUSH2 0x2D3 JUMPI PUSH2 0x439 JUMPI POP RETURN JUMPDEST POP CALLVALUE PUSH2 0x2DE JUMPI DUP1 PUSH1 0x3 NOT CALLDATASIZE ADD SLT PUSH2 0x2DE JUMPI PUSH1 0x40 MLOAD SWAP1 DUP1 PUSH1 0x3 SLOAD SWAP2 PUSH1 0x1 DUP4 DUP2 SHR SWAP3 DUP2 DUP6 AND SWAP5 DUP6 ISZERO PUSH2 0x1507 JUMPI JUMPDEST PUSH1 0x20 SWAP6 DUP7 DUP7 LT DUP2 EQ PUSH2 0x14F3 JUMPI DUP6 DUP9 MSTORE DUP8 SWAP5 SWAP4 SWAP3 SWAP2 DUP8 SWAP1 DUP3 ISZERO PUSH2 0x14D1 JUMPI POP POP PUSH1 0x1 EQ PUSH2 0x1477 JUMPI JUMPDEST POP POP PUSH2 0xBE2 SWAP3 POP SUB DUP4 PUSH2 0x2D42 JUMP JUMPDEST SWAP1 DUP6 SWAP3 POP PUSH1 0x3 DUP3 MSTORE PUSH32 0xC2575A0E9E593C00F959F8C92F12DB2869C3395A3B0502D05E2516446F71F85B JUMPDEST DUP6 DUP4 LT PUSH2 0x14B9 JUMPI POP POP PUSH2 0xBE2 SWAP4 POP DUP3 ADD ADD CODESIZE DUP1 PUSH2 0x1469 JUMP JUMPDEST DUP1 SLOAD DUP4 DUP10 ADD DUP6 ADD MSTORE DUP8 SWAP5 POP DUP7 SWAP4 SWAP1 SWAP3 ADD SWAP2 DUP2 ADD PUSH2 0x14A1 JUMP JUMPDEST SWAP3 POP SWAP4 POP POP PUSH2 0xBE2 SWAP5 SWAP2 POP PUSH1 0xFF NOT AND DUP3 DUP5 ADD MSTORE ISZERO ISZERO PUSH1 0x5 SHL DUP3 ADD ADD CODESIZE DUP1 PUSH2 0x1469 JUMP JUMPDEST PUSH4 0x4E487B71 PUSH1 0xE0 SHL DUP4 MSTORE PUSH1 0x22 PUSH1 0x4 MSTORE PUSH1 0x24 DUP4 REVERT JUMPDEST SWAP4 PUSH1 0x7F AND SWAP4 PUSH2 0x1443 JUMP JUMPDEST POP CALLVALUE PUSH2 0x2DE JUMPI PUSH1 0xC0 CALLDATASIZE PUSH1 0x3 NOT ADD SLT PUSH2 0x2DE JUMPI PUSH2 0x152B PUSH2 0x2C96 JUMP JUMPDEST PUSH2 0x1533 PUSH2 0x2CAC JUMP JUMPDEST PUSH1 0x1 PUSH1 0x1 PUSH1 0xA0 SHL SUB PUSH1 0x44 CALLDATALOAD DUP2 DUP2 AND SWAP3 SWAP1 DUP4 SWAP1 SUB PUSH2 0x1793 JUMPI PUSH1 0x64 CALLDATALOAD SWAP1 DUP3 DUP3 AND DUP1 SWAP3 SUB PUSH2 0x1793 JUMPI PUSH1 0x84 CALLDATALOAD SWAP4 DUP4 DUP6 AND DUP1 SWAP6 SUB PUSH2 0x1793 JUMPI DUP7 SLOAD SWAP5 PUSH1 0xFF DUP7 PUSH1 0x8 SHR AND ISZERO SWAP7 DUP8 DUP1 SWAP9 PUSH2 0x1786 JUMPI JUMPDEST DUP1 ISZERO PUSH2 0x176F JUMPI JUMPDEST ISZERO PUSH2 0x1713 JUMPI PUSH1 0xFF NOT DUP8 AND PUSH1 0x1 OR DUP10 SSTORE DUP9 SWAP7 DUP8 SWAP5 DUP8 SWAP2 DUP11 PUSH2 0x1702 JUMPI JUMPDEST POP DUP2 PUSH1 0x1 PUSH1 0x1 PUSH1 0x60 SHL SUB PUSH1 0xA0 SHL SWAP4 AND DUP4 PUSH1 0x8 SLOAD AND OR PUSH1 0x8 SSTORE AND SWAP5 PUSH1 0x9 SLOAD SWAP4 DUP7 DUP4 DUP7 AND OR PUSH1 0x9 SSTORE DUP3 PUSH1 0xA SLOAD AND OR PUSH1 0xA SSTORE DUP2 PUSH1 0xB SLOAD AND OR PUSH1 0xB SSTORE PUSH1 0xC SLOAD AND OR PUSH1 0xC SSTORE PUSH1 0xA4 CALLDATALOAD PUSH1 0xD SSTORE AND OR SWAP1 DUP2 EXTCODESIZE ISZERO PUSH2 0x8B9 JUMPI PUSH1 0x40 MLOAD DUP4 DUP2 PUSH1 0x24 DUP2 DUP4 PUSH4 0xCC640D01 PUSH1 0xE0 SHL SWAP8 DUP9 DUP4 MSTORE ADDRESS PUSH1 0x4 DUP5 ADD MSTORE GAS CALL SWAP1 DUP2 ISZERO PUSH2 0x16E3 JUMPI DUP5 SWAP2 PUSH2 0x16EE JUMPI JUMPDEST POP POP DUP1 PUSH1 0xB SLOAD AND DUP1 EXTCODESIZE ISZERO PUSH2 0x8B5 JUMPI DUP4 DUP1 SWAP2 PUSH1 0x24 PUSH1 0x40 MLOAD DUP1 SWAP5 DUP2 SWAP4 DUP9 DUP4 MSTORE ADDRESS PUSH1 0x4 DUP5 ADD MSTORE GAS CALL SWAP1 DUP2 ISZERO PUSH2 0x16E3 JUMPI DUP5 SWAP2 PUSH2 0x16CF JUMPI JUMPDEST POP POP PUSH1 0xC SLOAD AND SWAP1 DUP2 EXTCODESIZE ISZERO PUSH2 0x8B9 JUMPI DUP3 SWAP2 PUSH1 0x24 DUP4 SWAP3 PUSH1 0x40 MLOAD SWAP5 DUP6 SWAP4 DUP5 SWAP3 DUP4 MSTORE ADDRESS PUSH1 0x4 DUP5 ADD MSTORE GAS CALL DUP1 ISZERO PUSH2 0x2D3 JUMPI PUSH2 0x16BB JUMPI JUMPDEST POP POP PUSH2 0x1684 JUMPI DUP1 RETURN JUMPDEST PUSH2 0xFF00 NOT DUP2 SLOAD AND DUP2 SSTORE PUSH32 0x7F26B83FF96E1F2B6A682F133852F6798A09C465DA95921460CEFB3847402498 PUSH1 0x20 PUSH1 0x40 MLOAD PUSH1 0x1 DUP2 MSTORE LOG1 DUP1 RETURN JUMPDEST PUSH2 0x16C4 SWAP1 PUSH2 0x2CC2 JUMP JUMPDEST PUSH2 0x4E8 JUMPI DUP2 CODESIZE PUSH2 0x167B JUMP JUMPDEST PUSH2 0x16D8 SWAP1 PUSH2 0x2CC2 JUMP JUMPDEST PUSH2 0x8B9 JUMPI DUP3 CODESIZE PUSH2 0x164A JUMP JUMPDEST PUSH1 0x40 MLOAD RETURNDATASIZE DUP7 DUP3 RETURNDATACOPY RETURNDATASIZE SWAP1 REVERT JUMPDEST PUSH2 0x16F7 SWAP1 PUSH2 0x2CC2 JUMP JUMPDEST PUSH2 0x8B9 JUMPI DUP3 CODESIZE PUSH2 0x1617 JUMP JUMPDEST PUSH2 0xFFFF NOT AND PUSH2 0x101 OR DUP7 SSTORE CODESIZE PUSH2 0x159C JUMP JUMPDEST PUSH1 0x40 MLOAD PUSH3 0x461BCD PUSH1 0xE5 SHL DUP2 MSTORE PUSH1 0x20 PUSH1 0x4 DUP3 ADD MSTORE PUSH1 0x2E PUSH1 0x24 DUP3 ADD MSTORE PUSH32 0x496E697469616C697A61626C653A20636F6E747261637420697320616C726561 PUSH1 0x44 DUP3 ADD MSTORE PUSH14 0x191E481A5B9A5D1A585B1A5E9959 PUSH1 0x92 SHL PUSH1 0x64 DUP3 ADD MSTORE PUSH1 0x84 SWAP1 REVERT JUMPDEST POP ADDRESS EXTCODESIZE ISZERO DUP1 ISZERO PUSH2 0x1581 JUMPI POP PUSH1 0x1 PUSH1 0xFF DUP9 AND EQ PUSH2 0x1581 JUMP JUMPDEST POP PUSH1 0x1 PUSH1 0xFF DUP9 AND LT PUSH2 0x157A JUMP JUMPDEST PUSH1 0x0 DUP1 REVERT JUMPDEST POP CALLVALUE PUSH2 0x2DE JUMPI PUSH1 0x20 CALLDATASIZE PUSH1 0x3 NOT ADD SLT PUSH2 0x2DE JUMPI PUSH1 0x4 CALLDATALOAD DUP2 PUSH1 0x1 PUSH1 0x1 PUSH1 0x40 SHL SUB DUP3 GT PUSH2 0x2DE JUMPI PUSH2 0x17CD PUSH2 0x17FB SWAP3 CALLDATASIZE SWAP1 PUSH1 0x4 ADD PUSH2 0x2DB5 JUMP JUMPDEST PUSH1 0x1 DUP1 PUSH1 0xA0 SHL SUB PUSH1 0x9 SLOAD AND PUSH1 0x40 MLOAD DUP1 DUP1 SWAP6 DUP2 SWAP5 PUSH4 0x8F38CC7B PUSH1 0xE0 SHL DUP4 MSTORE PUSH1 0x20 PUSH1 0x4 DUP5 ADD MSTORE PUSH1 0x24 DUP4 ADD SWAP1 PUSH2 0x2A8A JUMP JUMPDEST SUB SWAP2 GAS STATICCALL SWAP1 DUP2 ISZERO PUSH2 0x2D3 JUMPI DUP3 PUSH2 0x2AC SWAP4 SWAP3 PUSH2 0x2B0 JUMPI POP POP PUSH1 0x40 MLOAD SWAP2 DUP3 SWAP2 DUP3 PUSH2 0x2C34 JUMP JUMPDEST POP CALLVALUE PUSH2 0x2DE JUMPI DUP1 PUSH1 0x3 NOT CALLDATASIZE ADD SLT PUSH2 0x2DE JUMPI SLOAD PUSH1 0x40 MLOAD PUSH1 0x10 SWAP2 SWAP1 SWAP2 SHR PUSH1 0x1 PUSH1 0x1 PUSH1 0xA0 SHL SUB AND DUP2 MSTORE PUSH1 0x20 SWAP1 RETURN JUMPDEST POP CALLVALUE PUSH2 0x2DE JUMPI DUP1 PUSH1 0x3 NOT PUSH1 0xA0 CALLDATASIZE DUP3 ADD SLT PUSH2 0x449 JUMPI PUSH1 0x1 PUSH1 0x1 PUSH1 0x40 SHL SUB SWAP1 PUSH1 0x4 CALLDATALOAD DUP3 DUP2 GT PUSH2 0x9B2 JUMPI PUSH2 0x187E SWAP1 CALLDATASIZE SWAP1 PUSH1 0x4 ADD PUSH2 0x2DB5 JUMP JUMPDEST PUSH1 0x24 CALLDATALOAD DUP4 DUP2 GT PUSH2 0x895 JUMPI PUSH2 0x1896 SWAP1 CALLDATASIZE SWAP1 PUSH1 0x4 ADD PUSH2 0x2DB5 JUMP JUMPDEST SWAP1 PUSH1 0x44 CALLDATALOAD DUP5 DUP2 GT PUSH2 0x899 JUMPI PUSH2 0x18AF SWAP1 CALLDATASIZE SWAP1 PUSH1 0x4 ADD PUSH2 0x2DB5 JUMP JUMPDEST PUSH1 0x64 CALLDATALOAD DUP6 DUP2 GT PUSH2 0x1395 JUMPI PUSH2 0x18C7 SWAP1 CALLDATASIZE SWAP1 PUSH1 0x4 ADD PUSH2 0x2DB5 JUMP JUMPDEST SWAP5 PUSH1 0x84 CALLDATALOAD SWAP1 DUP2 GT PUSH2 0x1395 JUMPI PUSH2 0x18E0 SWAP1 CALLDATASIZE SWAP1 PUSH1 0x4 ADD PUSH2 0x2DB5 JUMP JUMPDEST PUSH1 0x8 SLOAD PUSH1 0x1 PUSH1 0x1 PUSH1 0xA0 SHL SUB AND SWAP3 SWAP1 SWAP2 SWAP1 DUP4 EXTCODESIZE ISZERO PUSH2 0x891 JUMPI PUSH2 0x5EC DUP9 SWAP7 PUSH2 0x1931 SWAP5 PUSH2 0x1961 PUSH2 0x1941 SWAP11 PUSH2 0x1951 DUP12 SWAP8 PUSH1 0x40 MLOAD SWAP14 DUP15 SWAP13 DUP14 SWAP12 DUP13 SWAP11 PUSH4 0x7E8555ED PUSH1 0xE0 SHL DUP13 MSTORE PUSH1 0xA0 PUSH1 0x4 DUP14 ADD MSTORE PUSH1 0xA4 DUP13 ADD SWAP1 PUSH2 0x2A8A JUMP JUMPDEST SWAP1 DUP9 DUP12 DUP4 SUB ADD PUSH1 0x24 DUP13 ADD MSTORE PUSH2 0x2A8A JUMP JUMPDEST SWAP1 DUP7 DUP10 DUP4 SUB ADD PUSH1 0x44 DUP11 ADD MSTORE PUSH2 0x2A8A JUMP JUMPDEST SWAP1 DUP5 DUP8 DUP4 SUB ADD PUSH1 0x64 DUP9 ADD MSTORE PUSH2 0x2A8A JUMP JUMPDEST SWAP2 DUP5 DUP4 SUB ADD PUSH1 0x84 DUP6 ADD MSTORE PUSH2 0x2A8A JUMP JUMPDEST POP CALLVALUE PUSH2 0x2DE JUMPI PUSH1 0x40 CALLDATASIZE PUSH1 0x3 NOT ADD SLT PUSH2 0x2DE JUMPI DUP1 PUSH1 0x24 CALLDATALOAD PUSH1 0x1 PUSH1 0x1 PUSH1 0x40 SHL SUB DUP2 GT PUSH2 0x449 JUMPI PUSH2 0x19A2 SWAP1 CALLDATASIZE SWAP1 PUSH1 0x4 ADD PUSH2 0x2DB5 JUMP JUMPDEST PUSH2 0x19AA PUSH2 0x3129 JUMP JUMPDEST PUSH1 0xA SLOAD PUSH1 0x1 PUSH1 0x1 PUSH1 0xA0 SHL SUB AND DUP1 EXTCODESIZE ISZERO PUSH2 0x5FD JUMPI PUSH2 0x5EC DUP4 SWAP3 SWAP2 DUP4 SWAP3 PUSH1 0x40 MLOAD SWAP5 DUP6 DUP1 SWAP5 DUP2 SWAP4 PUSH4 0x7D3978DB PUSH1 0xE0 SHL DUP4 MSTORE PUSH1 0x4 CALLDATALOAD PUSH1 0x4 DUP5 ADD MSTORE PUSH1 0x40 PUSH1 0x24 DUP5 ADD MSTORE PUSH1 0x44 DUP4 ADD SWAP1 PUSH2 0x2A8A JUMP JUMPDEST POP CALLVALUE PUSH2 0x2DE JUMPI DUP1 PUSH1 0x3 NOT CALLDATASIZE ADD SLT PUSH2 0x2DE JUMPI PUSH2 0x1A0A PUSH2 0x3129 JUMP JUMPDEST PUSH1 0x0 DUP1 SLOAD PUSH3 0x10000 PUSH1 0x1 PUSH1 0xB0 SHL SUB NOT DUP2 AND DUP3 SSTORE PUSH1 0x10 SHR PUSH1 0x1 PUSH1 0x1 PUSH1 0xA0 SHL SUB AND PUSH32 0x8BE0079C531659141344CD1FD0A4F28419497F9722A3DAAFE3B4186F6B6457E0 DUP3 DUP1 LOG3 DUP1 RETURN JUMPDEST POP CALLVALUE PUSH2 0x2DE JUMPI PUSH1 0x20 CALLDATASIZE PUSH1 0x3 NOT ADD SLT PUSH2 0x2DE JUMPI PUSH1 0x1 PUSH1 0x1 PUSH1 0xA0 SHL SUB PUSH2 0x1A72 PUSH2 0x2C96 JUMP JUMPDEST AND DUP1 ISZERO PUSH2 0x1A8F JUMPI DUP2 PUSH1 0x40 SWAP2 PUSH1 0x20 SWAP4 MSTORE PUSH1 0x5 DUP4 MSTORE KECCAK256 SLOAD PUSH1 0x40 MLOAD SWAP1 DUP2 MSTORE RETURN JUMPDEST PUSH1 0x40 MLOAD PUSH3 0x461BCD PUSH1 0xE5 SHL DUP2 MSTORE PUSH1 0x20 PUSH1 0x4 DUP3 ADD MSTORE PUSH1 0x29 PUSH1 0x24 DUP3 ADD MSTORE PUSH32 0x4552433732313A2061646472657373207A65726F206973206E6F742061207661 PUSH1 0x44 DUP3 ADD MSTORE PUSH9 0x3634B21037BBB732B9 PUSH1 0xB9 SHL PUSH1 0x64 DUP3 ADD MSTORE PUSH1 0x84 SWAP1 REVERT JUMPDEST POP CALLVALUE PUSH2 0x2DE JUMPI PUSH1 0x20 DUP1 PUSH1 0x3 NOT CALLDATASIZE ADD SLT PUSH2 0x4E8 JUMPI PUSH2 0x1B01 PUSH2 0x2C96 JUMP JUMPDEST PUSH1 0x40 MLOAD PUSH2 0x1B0D DUP2 PUSH2 0x2CD5 JUMP JUMPDEST PUSH1 0x60 DUP1 DUP3 MSTORE DUP1 DUP5 DUP4 ADD MSTORE DUP1 PUSH1 0x40 DUP4 ADD MSTORE DUP5 DUP2 DUP4 ADD MSTORE DUP5 PUSH1 0x80 DUP1 SWAP4 ADD MSTORE DUP5 PUSH1 0x1 DUP1 PUSH1 0xA0 SHL SUB PUSH1 0x24 DUP2 PUSH1 0x8 SLOAD AND SWAP6 PUSH1 0x40 MLOAD SWAP7 DUP8 SWAP4 DUP5 SWAP3 PUSH4 0x6F77926B PUSH1 0xE0 SHL DUP5 MSTORE AND PUSH1 0x4 DUP4 ADD MSTORE GAS STATICCALL SWAP1 DUP2 ISZERO PUSH2 0x1CD3 JUMPI DUP6 SWAP4 DUP7 SWAP4 DUP8 SWAP2 DUP9 SWAP5 PUSH2 0x1BEA JUMPI JUMPDEST POP SWAP1 PUSH2 0x2AC SWAP4 SWAP3 SWAP2 PUSH2 0x1BC7 PUSH1 0x40 MLOAD SWAP9 DUP10 SWAP9 ISZERO ISZERO DUP10 MSTORE DUP3 DUP2 DUP11 ADD MSTORE PUSH2 0x1BB2 PUSH2 0x1B9A DUP10 MLOAD PUSH1 0xA0 DUP7 DUP14 ADD MSTORE PUSH2 0x120 DUP13 ADD SWAP1 PUSH2 0x2A8A JUMP JUMPDEST SWAP2 DUP10 ADD MLOAD SWAP2 PUSH1 0x7F NOT SWAP3 DUP4 DUP13 DUP4 SUB ADD PUSH1 0xA0 DUP14 ADD MSTORE PUSH2 0x2A8A JUMP JUMPDEST SWAP1 PUSH1 0x40 DUP10 ADD MLOAD SWAP1 DUP11 DUP4 SUB ADD PUSH1 0xC0 DUP12 ADD MSTORE PUSH2 0x2A8A JUMP JUMPDEST SWAP6 DUP4 DUP2 ADD MLOAD PUSH1 0xE0 DUP10 ADD MSTORE ADD MLOAD ISZERO ISZERO PUSH2 0x100 DUP8 ADD MSTORE ISZERO ISZERO PUSH1 0x40 DUP7 ADD MSTORE DUP5 ADD SWAP1 PUSH2 0x30D2 JUMP JUMPDEST SWAP5 POP SWAP3 POP POP SWAP3 POP RETURNDATASIZE DUP1 DUP7 DUP5 RETURNDATACOPY PUSH2 0x1C00 DUP2 DUP5 PUSH2 0x2D42 JUMP JUMPDEST DUP3 ADD SWAP3 DUP2 DUP4 DUP6 SUB SLT PUSH2 0x899 JUMPI PUSH2 0x1C15 DUP4 PUSH2 0x3653 JUMP JUMPDEST DUP6 DUP5 ADD MLOAD PUSH1 0x1 PUSH1 0x1 PUSH1 0x40 SHL SUB SWAP1 DUP2 DUP2 GT PUSH2 0x1391 JUMPI DUP6 ADD SWAP6 PUSH1 0xA0 DUP8 DUP3 SUB SLT PUSH2 0x1391 JUMPI PUSH1 0x40 MLOAD SWAP7 PUSH2 0x1C43 DUP9 PUSH2 0x2CD5 JUMP JUMPDEST DUP1 MLOAD DUP4 DUP2 GT PUSH2 0x1377 JUMPI DUP3 PUSH2 0x1C58 SWAP2 DUP4 ADD PUSH2 0x3660 JUMP JUMPDEST DUP9 MSTORE DUP9 DUP2 ADD MLOAD DUP4 DUP2 GT PUSH2 0x1377 JUMPI DUP3 PUSH2 0x1C71 SWAP2 DUP4 ADD PUSH2 0x3660 JUMP JUMPDEST DUP10 DUP10 ADD MSTORE PUSH1 0x40 DUP2 ADD MLOAD SWAP3 DUP4 GT PUSH2 0x88D JUMPI PUSH2 0x1C91 DUP7 SWAP3 PUSH2 0x1CA4 SWAP5 DUP4 ADD PUSH2 0x3660 JUMP JUMPDEST PUSH1 0x40 DUP10 ADD MSTORE DUP5 DUP2 ADD MLOAD DUP6 DUP10 ADD MSTORE ADD PUSH2 0x3653 JUMP JUMPDEST DUP4 DUP7 ADD MSTORE DUP2 PUSH2 0x1CB5 PUSH1 0x40 DUP7 ADD PUSH2 0x3653 JUMP JUMPDEST SWAP5 ADD MLOAD SWAP1 PUSH1 0x4 DUP3 LT ISZERO PUSH2 0x891 JUMPI SWAP6 SWAP7 POP DUP7 SWAP6 SWAP5 SWAP4 SWAP1 SWAP3 PUSH2 0x2AC PUSH2 0x1B67 JUMP JUMPDEST PUSH1 0x40 MLOAD RETURNDATASIZE DUP8 DUP3 RETURNDATACOPY RETURNDATASIZE SWAP1 REVERT JUMPDEST POP CALLVALUE PUSH2 0x2DE JUMPI DUP1 PUSH1 0x20 PUSH1 0x3 NOT DUP2 DUP2 CALLDATASIZE ADD SLT PUSH2 0x5FD JUMPI PUSH1 0x4 CALLDATALOAD SWAP1 PUSH1 0x1 PUSH1 0x1 PUSH1 0x40 SHL SUB DUP3 GT PUSH2 0x9B2 JUMPI PUSH2 0x1A0 SWAP1 DUP3 CALLDATASIZE SUB ADD SLT PUSH2 0x5FD JUMPI PUSH1 0x9 SLOAD PUSH1 0x40 MLOAD PUSH4 0x1BD649F PUSH1 0xE6 SHL DUP2 MSTORE PUSH1 0x4 DUP1 DUP3 ADD DUP6 SWAP1 MSTORE SWAP1 SWAP5 DUP5 SWAP4 DUP7 SWAP4 PUSH1 0x1 PUSH1 0x1 PUSH1 0xA0 SHL SUB AND SWAP3 DUP5 SWAP3 SWAP2 DUP4 SWAP2 PUSH2 0x1D4E SWAP2 PUSH1 0x24 DUP5 ADD SWAP2 ADD PUSH2 0x388A JUMP JUMPDEST SUB SWAP3 GAS CALL SWAP2 DUP3 ISZERO PUSH2 0x1E7C JUMPI DUP4 SWAP3 PUSH2 0x1E4D JUMPI JUMPDEST POP CALLER ISZERO PUSH2 0x1E0A JUMPI PUSH1 0x4 SWAP1 PUSH2 0x1D92 PUSH2 0x1D8C DUP5 PUSH1 0x0 MSTORE PUSH1 0x4 PUSH1 0x20 MSTORE PUSH1 0x1 DUP1 PUSH1 0xA0 SHL SUB PUSH1 0x40 PUSH1 0x0 KECCAK256 SLOAD AND ISZERO ISZERO SWAP1 JUMP JUMPDEST ISZERO PUSH2 0x39C6 JUMP JUMPDEST PUSH1 0x0 DUP4 DUP2 MSTORE PUSH1 0x4 PUSH1 0x20 MSTORE PUSH1 0x40 SWAP1 KECCAK256 SLOAD PUSH2 0x1DB5 SWAP1 PUSH1 0x1 PUSH1 0x1 PUSH1 0xA0 SHL SUB AND ISZERO ISZERO PUSH2 0x1D8C JUMP JUMPDEST CALLER DUP5 MSTORE PUSH1 0x5 DUP2 MSTORE PUSH1 0x40 DUP5 KECCAK256 PUSH1 0x1 DUP2 SLOAD ADD SWAP1 SSTORE DUP3 DUP5 MSTORE MSTORE PUSH1 0x40 DUP3 KECCAK256 CALLER PUSH1 0x1 PUSH1 0x1 PUSH1 0x60 SHL SUB PUSH1 0xA0 SHL DUP3 SLOAD AND OR SWAP1 SSTORE CALLER DUP3 PUSH32 0xDDF252AD1BE2C89B69C2B068FC378DAA952BA7F163C4A11628F55A4DF523B3EF DUP2 DUP1 LOG4 DUP1 RETURN JUMPDEST PUSH1 0x64 SWAP1 PUSH1 0x40 MLOAD SWAP1 PUSH3 0x461BCD PUSH1 0xE5 SHL DUP3 MSTORE DUP1 PUSH1 0x4 DUP4 ADD MSTORE PUSH1 0x24 DUP3 ADD MSTORE PUSH32 0x4552433732313A206D696E7420746F20746865207A65726F2061646472657373 PUSH1 0x44 DUP3 ADD MSTORE REVERT JUMPDEST SWAP1 DUP1 SWAP3 POP DUP2 DUP2 RETURNDATASIZE DUP4 GT PUSH2 0x1E75 JUMPI JUMPDEST PUSH2 0x1E65 DUP2 DUP4 PUSH2 0x2D42 JUMP JUMPDEST DUP2 ADD SUB SLT PUSH2 0x1793 JUMPI MLOAD SWAP1 CODESIZE PUSH2 0x1D60 JUMP JUMPDEST POP RETURNDATASIZE PUSH2 0x1E5B JUMP JUMPDEST PUSH1 0x40 MLOAD RETURNDATASIZE DUP6 DUP3 RETURNDATACOPY RETURNDATASIZE SWAP1 REVERT JUMPDEST POP CALLVALUE PUSH2 0x2DE JUMPI PUSH1 0x20 CALLDATASIZE PUSH1 0x3 NOT ADD SLT PUSH2 0x2DE JUMPI PUSH1 0x20 PUSH2 0x1EA6 PUSH1 0x4 CALLDATALOAD PUSH2 0x31D0 JUMP JUMPDEST PUSH1 0x40 MLOAD PUSH1 0x1 PUSH1 0x1 PUSH1 0xA0 SHL SUB SWAP1 SWAP2 AND DUP2 MSTORE RETURN JUMPDEST POP CALLVALUE PUSH2 0x2DE JUMPI DUP1 PUSH1 0x3 NOT CALLDATASIZE ADD SLT PUSH2 0x2DE JUMPI PUSH1 0xC SLOAD PUSH1 0x40 MLOAD PUSH1 0x1 PUSH1 0x1 PUSH1 0xA0 SHL SUB SWAP1 SWAP2 AND DUP2 MSTORE PUSH1 0x20 SWAP1 RETURN JUMPDEST POP CALLVALUE PUSH2 0x2DE JUMPI DUP1 PUSH1 0x3 NOT CALLDATASIZE ADD SLT PUSH2 0x2DE JUMPI PUSH1 0x8 SLOAD PUSH1 0x40 MLOAD PUSH3 0xB5AD4B PUSH1 0xE7 SHL DUP2 MSTORE PUSH1 0x1 PUSH1 0x1 PUSH1 0xA0 SHL SUB SWAP3 SWAP2 DUP3 SWAP1 DUP3 SWAP1 PUSH1 0x4 SWAP1 DUP3 SWAP1 DUP8 AND GAS STATICCALL SWAP1 DUP2 ISZERO PUSH2 0x2D3 JUMPI DUP3 SWAP2 PUSH2 0x1F65 JUMPI JUMPDEST POP PUSH1 0x40 MLOAD SWAP2 PUSH1 0x20 DUP1 DUP5 ADD SWAP1 DUP1 DUP6 MSTORE DUP4 MLOAD DUP1 SWAP3 MSTORE DUP1 PUSH1 0x40 DUP7 ADD SWAP5 ADD SWAP3 JUMPDEST DUP3 DUP2 LT PUSH2 0x1F4F JUMPI DUP6 DUP6 SUB DUP7 RETURN JUMPDEST DUP4 MLOAD DUP8 AND DUP6 MSTORE SWAP4 DUP2 ADD SWAP4 SWAP3 DUP2 ADD SWAP3 PUSH1 0x1 ADD PUSH2 0x1F42 JUMP JUMPDEST SWAP1 POP RETURNDATASIZE DUP1 DUP4 DUP4 RETURNDATACOPY PUSH2 0x1F76 DUP2 DUP4 PUSH2 0x2D42 JUMP JUMPDEST DUP2 ADD SWAP1 PUSH1 0x20 SWAP1 DUP2 DUP2 DUP5 SUB SLT PUSH2 0x8B5 JUMPI DUP1 MLOAD SWAP1 PUSH1 0x1 PUSH1 0x1 PUSH1 0x40 SHL SUB DUP3 GT PUSH2 0x895 JUMPI ADD SWAP2 DUP1 PUSH1 0x1F DUP5 ADD SLT ISZERO PUSH2 0x8B5 JUMPI DUP3 MLOAD PUSH2 0x1FAE DUP2 PUSH2 0x3628 JUMP JUMPDEST SWAP4 PUSH2 0x1FBC PUSH1 0x40 MLOAD SWAP6 DUP7 PUSH2 0x2D42 JUMP JUMPDEST DUP2 DUP6 MSTORE DUP4 DUP1 DUP7 ADD SWAP3 PUSH1 0x5 SHL DUP3 ADD ADD SWAP3 DUP4 GT PUSH2 0x899 JUMPI DUP4 ADD SWAP1 JUMPDEST DUP3 DUP3 LT PUSH2 0x1FE6 JUMPI POP POP POP POP CODESIZE PUSH2 0x1F26 JUMP JUMPDEST DUP4 DUP1 SWAP2 PUSH2 0x1FF2 DUP5 PUSH2 0x363F JUMP JUMPDEST DUP2 MSTORE ADD SWAP2 ADD SWAP1 PUSH2 0x1FD5 JUMP JUMPDEST POP CALLVALUE PUSH2 0x2DE JUMPI PUSH1 0x20 CALLDATASIZE PUSH1 0x3 NOT ADD SLT PUSH2 0x2DE JUMPI PUSH2 0x2017 PUSH2 0x2C96 JUMP JUMPDEST SWAP1 PUSH2 0x2020 PUSH2 0x36A2 JUMP JUMPDEST POP PUSH1 0x8 SLOAD PUSH1 0x40 MLOAD PUSH4 0x2149F2E7 PUSH1 0xE1 SHL DUP2 MSTORE PUSH1 0x1 PUSH1 0x1 PUSH1 0xA0 SHL SUB SWAP4 DUP5 AND PUSH1 0x4 DUP3 ADD MSTORE SWAP3 DUP3 SWAP2 DUP5 SWAP2 PUSH1 0x24 SWAP2 DUP4 SWAP2 AND GAS STATICCALL SWAP1 DUP2 ISZERO PUSH2 0x1031 JUMPI DUP1 SWAP2 PUSH2 0x2072 JUMPI JUMPDEST PUSH1 0x40 MLOAD PUSH1 0x20 DUP1 DUP3 MSTORE DUP2 SWAP1 PUSH2 0x2AC SWAP1 DUP3 ADD DUP6 PUSH2 0x3052 JUMP JUMPDEST SWAP1 POP RETURNDATASIZE DUP1 DUP3 DUP5 RETURNDATACOPY PUSH2 0x2083 DUP2 DUP5 PUSH2 0x2D42 JUMP JUMPDEST DUP3 ADD SWAP2 PUSH1 0x20 DUP2 DUP5 SUB SLT PUSH2 0x4E8 JUMPI DUP1 MLOAD SWAP2 PUSH1 0x1 PUSH1 0x1 PUSH1 0x40 SHL SUB DUP4 GT PUSH2 0x2DE JUMPI POP SWAP2 PUSH2 0x20B1 SWAP2 PUSH2 0x2AC SWAP4 ADD PUSH2 0x36D9 JUMP JUMPDEST CODESIZE PUSH2 0x205C JUMP JUMPDEST POP CALLVALUE PUSH2 0x2DE JUMPI PUSH2 0xE06 PUSH2 0x20C9 CALLDATASIZE PUSH2 0x2E00 JUMP JUMPDEST SWAP1 PUSH1 0x40 MLOAD SWAP3 PUSH2 0x20D7 DUP5 PUSH2 0x2D27 JUMP JUMPDEST DUP6 DUP5 MSTORE PUSH2 0x3293 JUMP JUMPDEST POP CALLVALUE PUSH2 0x2DE JUMPI DUP1 PUSH1 0x3 NOT CALLDATASIZE ADD SLT PUSH2 0x2DE JUMPI PUSH1 0xC SLOAD DUP2 SWAP1 PUSH1 0x1 PUSH1 0x1 PUSH1 0xA0 SHL SUB AND DUP1 EXTCODESIZE ISZERO PUSH2 0x449 JUMPI DUP2 DUP1 SWAP2 PUSH1 0x4 PUSH1 0x40 MLOAD DUP1 SWAP5 DUP2 SWAP4 PUSH4 0x3CCFD60B PUSH1 0xE0 SHL DUP4 MSTORE GAS CALL DUP1 ISZERO PUSH2 0x2D3 JUMPI PUSH2 0x439 JUMPI POP RETURN JUMPDEST POP CALLVALUE PUSH2 0x2DE JUMPI PUSH1 0x20 CALLDATASIZE PUSH1 0x3 NOT ADD SLT PUSH2 0x2DE JUMPI PUSH2 0x2144 PUSH2 0x2C96 JUMP JUMPDEST PUSH1 0xC SLOAD PUSH1 0x40 MLOAD PUSH4 0x3C2575D5 PUSH1 0xE0 SHL DUP2 MSTORE PUSH1 0x1 PUSH1 0x1 PUSH1 0xA0 SHL SUB SWAP3 DUP4 AND PUSH1 0x4 DUP3 ADD MSTORE SWAP2 DUP4 SWAP2 DUP4 SWAP2 PUSH1 0x24 SWAP2 DUP4 SWAP2 AND GAS STATICCALL SWAP1 DUP2 ISZERO PUSH2 0x2D3 JUMPI DUP3 PUSH2 0x2AC SWAP4 SWAP3 PUSH2 0xF16 JUMPI POP POP PUSH1 0x40 MLOAD SWAP2 DUP3 SWAP2 DUP3 PUSH2 0x2E35 JUMP JUMPDEST POP CALLVALUE PUSH2 0x2DE JUMPI PUSH1 0x40 CALLDATASIZE PUSH1 0x3 NOT ADD SLT PUSH2 0x2DE JUMPI DUP1 PUSH1 0x20 PUSH1 0x1 DUP1 PUSH1 0xA0 SHL SUB PUSH1 0xB SLOAD AND PUSH1 0x64 PUSH1 0x40 MLOAD DUP1 SWAP5 DUP2 SWAP4 PUSH4 0xD9E9197 PUSH1 0xE0 SHL DUP4 MSTORE PUSH1 0x4 CALLDATALOAD PUSH1 0x4 DUP5 ADD MSTORE PUSH1 0x24 CALLDATALOAD PUSH1 0x24 DUP5 ADD MSTORE CALLER PUSH1 0x44 DUP5 ADD MSTORE GAS CALL DUP1 ISZERO PUSH2 0x2D3 JUMPI PUSH2 0x21E9 JUMPI POP DUP1 RETURN JUMPDEST PUSH1 0x20 DUP2 RETURNDATASIZE DUP3 GT PUSH2 0x2216 JUMPI JUMPDEST DUP2 PUSH2 0x2201 PUSH1 0x20 SWAP4 DUP4 PUSH2 0x2D42 JUMP JUMPDEST DUP2 ADD SUB SLT PUSH2 0x4E8 JUMPI PUSH2 0x2212 SWAP1 PUSH2 0x3653 JUMP JUMPDEST POP DUP1 RETURN JUMPDEST RETURNDATASIZE SWAP2 POP PUSH2 0x21F4 JUMP JUMPDEST POP CALLVALUE PUSH2 0x2DE JUMPI PUSH2 0xE06 PUSH2 0x2230 CALLDATASIZE PUSH2 0x2E00 JUMP JUMPDEST SWAP2 PUSH2 0x2243 PUSH2 0x223E DUP5 CALLER PUSH2 0x332E JUMP JUMPDEST PUSH2 0x3231 JUMP JUMPDEST PUSH2 0x33F6 JUMP JUMPDEST POP CALLVALUE PUSH2 0x2DE JUMPI PUSH1 0x20 SWAP1 DUP2 PUSH1 0x3 NOT CALLDATASIZE ADD SLT PUSH2 0x2DE JUMPI PUSH2 0x2264 PUSH2 0x2C96 JUMP JUMPDEST PUSH1 0xC SLOAD PUSH1 0x40 MLOAD PUSH4 0x2148893F PUSH1 0xE0 SHL DUP2 MSTORE PUSH1 0x1 PUSH1 0x1 PUSH1 0xA0 SHL SUB SWAP3 DUP4 AND PUSH1 0x4 DUP3 ADD MSTORE SWAP2 DUP5 SWAP2 DUP4 SWAP2 PUSH1 0x24 SWAP2 DUP4 SWAP2 AND GAS STATICCALL SWAP2 DUP3 ISZERO PUSH2 0x1031 JUMPI SWAP2 PUSH2 0x22A7 JUMPI JUMPDEST POP PUSH1 0x40 MLOAD SWAP1 DUP2 MSTORE RETURN JUMPDEST SWAP1 POP DUP2 DUP2 DUP2 RETURNDATASIZE DUP4 GT PUSH2 0x22CD JUMPI JUMPDEST PUSH2 0x22BE DUP2 DUP4 PUSH2 0x2D42 JUMP JUMPDEST DUP2 ADD SUB SLT PUSH2 0x1793 JUMPI MLOAD CODESIZE PUSH2 0x229E JUMP JUMPDEST POP RETURNDATASIZE PUSH2 0x22B4 JUMP JUMPDEST POP PUSH1 0xA0 CALLDATASIZE PUSH1 0x3 NOT ADD SLT PUSH2 0x2DE JUMPI PUSH1 0x1 PUSH1 0x1 PUSH1 0x40 SHL SUB DUP1 PUSH1 0x24 CALLDATALOAD GT PUSH2 0x4E8 JUMPI PUSH2 0x100 PUSH1 0x24 CALLDATALOAD CALLDATASIZE SUB PUSH1 0x3 NOT ADD SLT PUSH2 0x4E8 JUMPI PUSH1 0x44 CALLDATALOAD DUP2 DUP2 GT PUSH2 0x8B9 JUMPI PUSH2 0x231B SWAP1 CALLDATASIZE SWAP1 PUSH1 0x4 ADD PUSH2 0x2DD3 JUMP JUMPDEST SWAP2 PUSH1 0x64 CALLDATALOAD SWAP1 DUP2 GT PUSH2 0x8B5 JUMPI PUSH2 0x2334 SWAP1 CALLDATASIZE SWAP1 PUSH1 0x4 ADD PUSH2 0x2DD3 JUMP JUMPDEST SWAP1 SWAP3 PUSH1 0x2 PUSH1 0x1 SLOAD EQ PUSH2 0x25E3 JUMPI PUSH1 0x2 PUSH1 0x1 SSTORE PUSH1 0x9 SLOAD PUSH1 0x40 MLOAD PUSH4 0x3D66059 PUSH1 0xE5 SHL DUP2 MSTORE PUSH1 0x4 DUP1 CALLDATALOAD SWAP1 DUP3 ADD MSTORE PUSH1 0x1 PUSH1 0x1 PUSH1 0xA0 SHL SUB SWAP6 SWAP1 SWAP2 DUP8 SWAP1 DUP4 SWAP1 PUSH1 0x24 SWAP1 DUP3 SWAP1 DUP11 AND GAS STATICCALL SWAP2 DUP3 ISZERO PUSH2 0x25D8 JUMPI DUP8 SWAP3 PUSH2 0x25BC JUMPI JUMPDEST POP PUSH1 0x80 DUP3 ADD SWAP1 PUSH2 0x2396 PUSH1 0x84 CALLDATALOAD DUP4 MLOAD PUSH2 0x3CA4 JUMP JUMPDEST CALLVALUE LT PUSH2 0x2580 JUMPI PUSH2 0x23B7 DUP8 PUSH1 0x20 DUP11 SWAP10 PUSH1 0xC SLOAD AND SWAP6 ADD MLOAD AND SWAP3 PUSH1 0x84 CALLDATALOAD SWAP1 MLOAD PUSH2 0x3CA4 JUMP JUMPDEST SWAP2 DUP4 EXTCODESIZE ISZERO PUSH2 0x891 JUMPI PUSH2 0x254C DUP9 SWAP7 SWAP3 DUP8 SWAP4 PUSH2 0x253A PUSH1 0x40 MLOAD SWAP11 DUP12 SWAP10 DUP11 SWAP9 DUP10 SWAP8 PUSH4 0x731BC05D PUSH1 0xE0 SHL DUP10 MSTORE PUSH1 0x4 CALLDATALOAD PUSH1 0x4 DUP11 ADD MSTORE CALLER PUSH1 0x24 DUP11 ADD MSTORE PUSH1 0x44 DUP10 ADD MSTORE CALLVALUE PUSH1 0x64 DUP10 ADD MSTORE PUSH1 0x84 DUP9 ADD MSTORE PUSH2 0x120 PUSH1 0xA4 DUP9 ADD MSTORE PUSH2 0x2528 PUSH1 0x24 CALLDATALOAD PUSH1 0x4 ADD PUSH2 0x242E PUSH2 0x241A DUP3 DUP1 PUSH2 0x37A7 JUMP JUMPDEST PUSH2 0x100 PUSH2 0x124 DUP14 ADD MSTORE PUSH2 0x224 DUP13 ADD SWAP2 PUSH2 0x37D8 JUMP JUMPDEST PUSH2 0x2518 PUSH2 0x250B PUSH2 0x24EA PUSH2 0x24C9 DUP14 PUSH2 0x24A8 PUSH2 0x2488 PUSH2 0x2468 PUSH2 0x2452 PUSH1 0x24 DUP1 CALLDATALOAD ADD DUP12 PUSH2 0x37A7 JUMP JUMPDEST PUSH2 0x123 NOT DUP7 DUP13 SUB DUP2 ADD PUSH2 0x144 DUP9 ADD MSTORE SWAP11 SWAP2 PUSH2 0x37D8 JUMP JUMPDEST PUSH2 0x2477 PUSH1 0x44 PUSH1 0x24 CALLDATALOAD ADD DUP12 PUSH2 0x37A7 JUMP JUMPDEST SWAP1 DUP11 DUP7 DUP5 SUB ADD PUSH2 0x164 DUP8 ADD MSTORE PUSH2 0x37D8 JUMP JUMPDEST PUSH2 0x2497 PUSH1 0x64 PUSH1 0x24 CALLDATALOAD ADD DUP11 PUSH2 0x37A7 JUMP JUMPDEST SWAP1 DUP10 DUP6 DUP5 SUB ADD PUSH2 0x184 DUP7 ADD MSTORE PUSH2 0x37D8 JUMP JUMPDEST SWAP1 PUSH2 0x24B8 PUSH1 0x84 PUSH1 0x24 CALLDATALOAD ADD DUP10 PUSH2 0x37A7 JUMP JUMPDEST SWAP2 PUSH2 0x1A4 DUP10 DUP3 DUP7 SUB ADD SWAP2 ADD MSTORE PUSH2 0x37D8 JUMP JUMPDEST DUP14 PUSH2 0x24D9 PUSH1 0xA4 PUSH1 0x24 CALLDATALOAD ADD DUP9 PUSH2 0x37A7 JUMP JUMPDEST SWAP2 PUSH2 0x1C4 DUP9 DUP3 DUP7 SUB ADD SWAP2 ADD MSTORE PUSH2 0x37D8 JUMP JUMPDEST DUP13 PUSH2 0x24FA PUSH1 0xC4 PUSH1 0x24 CALLDATALOAD ADD DUP8 PUSH2 0x37A7 JUMP JUMPDEST SWAP2 PUSH2 0x1E4 DUP8 DUP3 DUP7 SUB ADD SWAP2 ADD MSTORE PUSH2 0x37D8 JUMP JUMPDEST SWAP3 PUSH1 0xE4 PUSH1 0x24 CALLDATALOAD ADD SWAP1 PUSH2 0x37A7 JUMP JUMPDEST SWAP2 DUP12 DUP5 SUB ADD PUSH2 0x204 DUP13 ADD MSTORE PUSH2 0x37D8 JUMP JUMPDEST DUP8 DUP2 SUB PUSH1 0x3 NOT ADD PUSH1 0xC4 DUP10 ADD MSTORE SWAP2 PUSH2 0x37D8 JUMP JUMPDEST DUP5 DUP2 SUB PUSH1 0x3 NOT ADD PUSH1 0xE4 DUP7 ADD MSTORE SWAP2 PUSH2 0x37D8 JUMP JUMPDEST PUSH1 0x84 CALLDATALOAD PUSH2 0x104 DUP4 ADD MSTORE SUB SWAP3 GAS CALL DUP1 ISZERO PUSH2 0x2D3 JUMPI PUSH2 0x256C JUMPI JUMPDEST POP PUSH1 0x1 DUP1 SSTORE DUP1 RETURN JUMPDEST PUSH2 0x2575 SWAP1 PUSH2 0x2CC2 JUMP JUMPDEST PUSH2 0x2DE JUMPI DUP1 CODESIZE PUSH2 0x2564 JUMP JUMPDEST PUSH1 0x40 MLOAD PUSH3 0x461BCD PUSH1 0xE5 SHL DUP2 MSTORE PUSH1 0x20 PUSH1 0x4 DUP3 ADD MSTORE PUSH1 0x14 PUSH1 0x24 DUP3 ADD MSTORE PUSH20 0x125B9CDD59999A58DA595B9D081C185E5B595B9D PUSH1 0x62 SHL PUSH1 0x44 DUP3 ADD MSTORE PUSH1 0x64 SWAP1 REVERT JUMPDEST PUSH2 0x25D1 SWAP2 SWAP3 POP RETURNDATASIZE DUP1 DUP10 DUP4 RETURNDATACOPY PUSH2 0xD97 DUP2 DUP4 PUSH2 0x2D42 JUMP JUMPDEST SWAP1 CODESIZE PUSH2 0x2383 JUMP JUMPDEST PUSH1 0x40 MLOAD RETURNDATASIZE DUP10 DUP3 RETURNDATACOPY RETURNDATASIZE SWAP1 REVERT JUMPDEST PUSH1 0x40 MLOAD PUSH3 0x461BCD PUSH1 0xE5 SHL DUP2 MSTORE PUSH1 0x20 PUSH1 0x4 DUP3 ADD MSTORE PUSH1 0x1F PUSH1 0x24 DUP3 ADD MSTORE PUSH32 0x5265656E7472616E637947756172643A207265656E7472616E742063616C6C00 PUSH1 0x44 DUP3 ADD MSTORE PUSH1 0x64 SWAP1 REVERT JUMPDEST POP CALLVALUE PUSH2 0x2DE JUMPI PUSH1 0x60 CALLDATASIZE PUSH1 0x3 NOT ADD SLT PUSH2 0x2DE JUMPI DUP1 PUSH1 0x44 CALLDATALOAD PUSH1 0x1 PUSH1 0x1 PUSH1 0x40 SHL SUB DUP2 GT PUSH2 0x449 JUMPI PUSH2 0x26A5 PUSH2 0x265F PUSH1 0x20 SWAP3 CALLDATASIZE SWAP1 PUSH1 0x4 ADD PUSH2 0x2DB5 JUMP JUMPDEST PUSH1 0x1 DUP1 PUSH1 0xA0 SHL SUB PUSH1 0xB SLOAD AND SWAP1 PUSH1 0x40 MLOAD SWAP5 DUP6 DUP1 SWAP5 DUP2 SWAP4 PUSH4 0xBB37C32D PUSH1 0xE0 SHL DUP4 MSTORE PUSH1 0x4 CALLDATALOAD PUSH1 0x4 DUP5 ADD MSTORE CALLER PUSH1 0x24 DUP5 ADD MSTORE PUSH1 0x24 CALLDATALOAD PUSH1 0x44 DUP5 ADD MSTORE PUSH1 0x80 PUSH1 0x64 DUP5 ADD MSTORE PUSH1 0x84 DUP4 ADD SWAP1 PUSH2 0x2A8A JUMP JUMPDEST SUB SWAP3 GAS CALL DUP1 ISZERO PUSH2 0x2D3 JUMPI PUSH2 0x26B7 JUMPI POP DUP1 RETURN JUMPDEST PUSH1 0x20 SWAP1 DUP2 RETURNDATASIZE DUP2 GT PUSH2 0x26D8 JUMPI JUMPDEST PUSH2 0x26CD DUP2 DUP4 PUSH2 0x2D42 JUMP JUMPDEST DUP2 ADD SUB SLT PUSH2 0x1793 JUMPI DUP1 RETURN JUMPDEST POP RETURNDATASIZE PUSH2 0x26C3 JUMP JUMPDEST POP CALLVALUE PUSH2 0x2DE JUMPI PUSH1 0x40 CALLDATASIZE PUSH1 0x3 NOT ADD SLT PUSH2 0x2DE JUMPI PUSH2 0x26F9 PUSH2 0x2CAC JUMP JUMPDEST PUSH1 0xC SLOAD PUSH1 0x1 PUSH1 0x1 PUSH1 0xA0 SHL SUB SWAP1 DUP2 AND SWAP2 DUP4 SWAP2 SWAP1 DUP4 EXTCODESIZE ISZERO PUSH2 0x8B9 JUMPI PUSH1 0x44 SWAP1 DUP4 PUSH1 0x40 MLOAD SWAP6 DUP7 SWAP5 DUP6 SWAP4 PUSH4 0x46A96CD PUSH1 0xE2 SHL DUP6 MSTORE PUSH1 0x4 CALLDATALOAD PUSH1 0x4 DUP7 ADD MSTORE AND PUSH1 0x24 DUP5 ADD MSTORE GAS CALL DUP1 ISZERO PUSH2 0x2D3 JUMPI PUSH2 0x2746 JUMPI POP DUP1 RETURN JUMPDEST PUSH2 0xE06 SWAP1 PUSH2 0x2CC2 JUMP JUMPDEST POP CALLVALUE PUSH2 0x2DE JUMPI PUSH1 0x40 CALLDATASIZE PUSH1 0x3 NOT ADD SLT PUSH2 0x2DE JUMPI PUSH2 0x2769 PUSH2 0x2C96 JUMP JUMPDEST PUSH1 0x24 CALLDATALOAD SWAP1 PUSH1 0x1 PUSH1 0x1 PUSH1 0xA0 SHL SUB DUP1 DUP1 PUSH2 0x2780 DUP6 PUSH2 0x31D0 JUMP JUMPDEST AND SWAP3 AND SWAP2 DUP1 DUP4 EQ PUSH2 0x2875 JUMPI DUP1 CALLER EQ SWAP1 DUP2 ISZERO PUSH2 0x2854 JUMPI JUMPDEST POP ISZERO PUSH2 0x27E9 JUMPI DUP3 DUP5 MSTORE PUSH1 0x6 PUSH1 0x20 MSTORE PUSH1 0x40 DUP5 KECCAK256 DUP1 SLOAD PUSH1 0x1 PUSH1 0x1 PUSH1 0xA0 SHL SUB NOT AND DUP4 OR SWAP1 SSTORE PUSH2 0x27C1 DUP4 PUSH2 0x31D0 JUMP JUMPDEST AND PUSH32 0x8C5BE1E5EBEC7D5BD14F71427D1E84F3DD0314C0F7B2291E5B200AC8C7C3B925 DUP5 DUP1 LOG4 DUP1 RETURN JUMPDEST PUSH1 0x40 MLOAD PUSH3 0x461BCD PUSH1 0xE5 SHL DUP2 MSTORE PUSH1 0x20 PUSH1 0x4 DUP3 ADD MSTORE PUSH1 0x3D PUSH1 0x24 DUP3 ADD MSTORE PUSH32 0x4552433732313A20617070726F76652063616C6C6572206973206E6F7420746F PUSH1 0x44 DUP3 ADD MSTORE PUSH32 0x6B656E206F776E6572206F7220617070726F76656420666F7220616C6C000000 PUSH1 0x64 DUP3 ADD MSTORE PUSH1 0x84 SWAP1 REVERT JUMPDEST SWAP1 POP DUP5 MSTORE PUSH1 0x7 PUSH1 0x20 MSTORE PUSH1 0x40 DUP5 KECCAK256 CALLER DUP6 MSTORE PUSH1 0x20 MSTORE PUSH1 0xFF PUSH1 0x40 DUP6 KECCAK256 SLOAD AND CODESIZE PUSH2 0x2796 JUMP JUMPDEST PUSH1 0x40 MLOAD PUSH3 0x461BCD PUSH1 0xE5 SHL DUP2 MSTORE PUSH1 0x20 PUSH1 0x4 DUP3 ADD MSTORE PUSH1 0x21 PUSH1 0x24 DUP3 ADD MSTORE PUSH32 0x4552433732313A20617070726F76616C20746F2063757272656E74206F776E65 PUSH1 0x44 DUP3 ADD MSTORE PUSH1 0x39 PUSH1 0xF9 SHL PUSH1 0x64 DUP3 ADD MSTORE PUSH1 0x84 SWAP1 REVERT JUMPDEST POP CALLVALUE PUSH2 0x2DE JUMPI PUSH1 0x20 CALLDATASIZE PUSH1 0x3 NOT ADD SLT PUSH2 0x2DE JUMPI PUSH1 0x20 PUSH2 0x1EA6 PUSH1 0x4 CALLDATALOAD PUSH2 0x31F3 JUMP JUMPDEST POP CALLVALUE PUSH2 0x2DE JUMPI DUP1 PUSH1 0x3 NOT CALLDATASIZE ADD SLT PUSH2 0x2DE JUMPI PUSH1 0x40 MLOAD SWAP1 DUP1 PUSH1 0x2 SLOAD SWAP2 PUSH1 0x1 DUP4 DUP2 SHR SWAP3 DUP2 DUP6 AND SWAP5 DUP6 ISZERO PUSH2 0x299B JUMPI JUMPDEST PUSH1 0x20 SWAP6 DUP7 DUP7 LT DUP2 EQ PUSH2 0x14F3 JUMPI DUP6 DUP9 MSTORE DUP8 SWAP5 SWAP4 SWAP3 SWAP2 DUP8 SWAP1 DUP3 ISZERO PUSH2 0x14D1 JUMPI POP POP PUSH1 0x1 EQ PUSH2 0x2941 JUMPI POP POP PUSH2 0xBE2 SWAP3 POP SUB DUP4 PUSH2 0x2D42 JUMP JUMPDEST SWAP1 DUP6 SWAP3 POP PUSH1 0x2 DUP3 MSTORE PUSH32 0x405787FA12A823E0F2B7631CC41B3BA8828B3321CA811111FA75CD3AA3BB5ACE JUMPDEST DUP6 DUP4 LT PUSH2 0x2983 JUMPI POP POP PUSH2 0xBE2 SWAP4 POP DUP3 ADD ADD CODESIZE DUP1 PUSH2 0x1469 JUMP JUMPDEST DUP1 SLOAD DUP4 DUP10 ADD DUP6 ADD MSTORE DUP8 SWAP5 POP DUP7 SWAP4 SWAP1 SWAP3 ADD SWAP2 DUP2 ADD PUSH2 0x296B JUMP JUMPDEST SWAP4 PUSH1 0x7F AND SWAP4 PUSH2 0x290E JUMP JUMPDEST POP CALLVALUE PUSH2 0x2DE JUMPI DUP1 PUSH1 0x3 NOT CALLDATASIZE ADD SLT PUSH2 0x2DE JUMPI PUSH1 0x9 SLOAD PUSH1 0x40 MLOAD PUSH4 0x1771D29 PUSH1 0xE1 SHL DUP2 MSTORE SWAP1 DUP3 SWAP1 DUP3 SWAP1 PUSH1 0x4 SWAP1 DUP3 SWAP1 PUSH1 0x1 PUSH1 0x1 PUSH1 0xA0 SHL SUB AND GAS STATICCALL SWAP1 DUP2 ISZERO PUSH2 0x2D3 JUMPI DUP3 PUSH2 0x2AC SWAP4 SWAP3 PUSH2 0x2B0 JUMPI POP POP PUSH1 0x40 MLOAD SWAP2 DUP3 SWAP2 DUP3 PUSH2 0x2C34 JUMP JUMPDEST SWAP1 POP CALLVALUE PUSH2 0x4E8 JUMPI PUSH1 0x20 CALLDATASIZE PUSH1 0x3 NOT ADD SLT PUSH2 0x4E8 JUMPI PUSH1 0x4 CALLDATALOAD PUSH4 0xFFFFFFFF PUSH1 0xE0 SHL DUP2 AND DUP1 SWAP2 SUB PUSH2 0x8B9 JUMPI PUSH1 0x20 SWAP3 POP PUSH4 0x80AC58CD PUSH1 0xE0 SHL DUP2 EQ SWAP1 DUP2 ISZERO PUSH2 0x2A56 JUMPI JUMPDEST DUP2 ISZERO PUSH2 0x2A45 JUMPI JUMPDEST POP ISZERO ISZERO DUP2 MSTORE RETURN JUMPDEST PUSH4 0x1FFC9A7 PUSH1 0xE0 SHL EQ SWAP1 POP CODESIZE PUSH2 0x2A3E JUMP JUMPDEST PUSH4 0x5B5E139F PUSH1 0xE0 SHL DUP2 EQ SWAP2 POP PUSH2 0x2A37 JUMP JUMPDEST PUSH1 0x0 JUMPDEST DUP4 DUP2 LT PUSH2 0x2A7A JUMPI POP POP PUSH1 0x0 SWAP2 ADD MSTORE JUMP JUMPDEST DUP2 DUP2 ADD MLOAD DUP4 DUP3 ADD MSTORE PUSH1 0x20 ADD PUSH2 0x2A6A JUMP JUMPDEST SWAP1 PUSH1 0x20 SWAP2 PUSH2 0x2AA3 DUP2 MLOAD DUP1 SWAP3 DUP2 DUP6 MSTORE DUP6 DUP1 DUP7 ADD SWAP2 ADD PUSH2 0x2A67 JUMP JUMPDEST PUSH1 0x1F ADD PUSH1 0x1F NOT AND ADD ADD SWAP1 JUMP JUMPDEST SWAP1 DUP1 DUP3 MLOAD SWAP1 DUP2 DUP2 MSTORE PUSH1 0x20 DUP1 SWAP2 ADD SWAP3 DUP2 DUP1 DUP5 PUSH1 0x5 SHL DUP4 ADD ADD SWAP6 ADD SWAP4 PUSH1 0x0 SWAP2 JUMPDEST DUP5 DUP4 LT PUSH2 0x2ADD JUMPI POP POP POP POP POP POP SWAP1 JUMP JUMPDEST SWAP1 SWAP2 SWAP3 SWAP4 SWAP5 SWAP6 DUP5 DUP1 PUSH2 0x2AFB PUSH1 0x1 SWAP4 PUSH1 0x1F NOT DUP7 DUP3 SUB ADD DUP8 MSTORE DUP11 MLOAD PUSH2 0x2A8A JUMP JUMPDEST SWAP9 ADD SWAP4 ADD SWAP4 ADD SWAP2 SWAP5 SWAP4 SWAP3 SWAP1 PUSH2 0x2ACD JUMP JUMPDEST SWAP1 DUP2 MLOAD DUP2 MSTORE PUSH1 0x1 DUP1 PUSH1 0xA0 SHL SUB PUSH1 0x20 DUP4 ADD MLOAD AND PUSH1 0x20 DUP3 ADD MSTORE PUSH2 0x2C0C PUSH2 0x2BF8 PUSH2 0x2BD9 PUSH2 0x2BC5 PUSH2 0x2BB1 PUSH2 0x2B9D PUSH2 0x2B8B PUSH2 0x2B65 PUSH2 0x2B53 PUSH1 0x40 DUP12 ADD MLOAD PUSH2 0x220 DUP1 PUSH1 0x40 DUP14 ADD MSTORE DUP12 ADD SWAP1 PUSH2 0x2A8A JUMP JUMPDEST PUSH1 0x60 DUP12 ADD MLOAD DUP11 DUP3 SUB PUSH1 0x60 DUP13 ADD MSTORE PUSH2 0x2A8A JUMP JUMPDEST PUSH1 0x80 DUP11 ADD MLOAD PUSH1 0x80 DUP11 ADD MSTORE PUSH1 0xA0 DUP11 ADD MLOAD PUSH1 0xA0 DUP11 ADD MSTORE PUSH1 0xC0 DUP11 ADD MLOAD DUP10 DUP3 SUB PUSH1 0xC0 DUP12 ADD MSTORE PUSH2 0x2AAF JUMP JUMPDEST PUSH1 0xE0 DUP10 ADD MLOAD DUP9 DUP3 SUB PUSH1 0xE0 DUP11 ADD MSTORE PUSH2 0x2AAF JUMP JUMPDEST PUSH2 0x100 DUP1 DUP10 ADD MLOAD SWAP1 DUP9 DUP4 SUB SWAP1 DUP10 ADD MSTORE PUSH2 0x2AAF JUMP JUMPDEST PUSH2 0x120 DUP1 DUP9 ADD MLOAD SWAP1 DUP8 DUP4 SUB SWAP1 DUP9 ADD MSTORE PUSH2 0x2A8A JUMP JUMPDEST PUSH2 0x140 DUP1 DUP8 ADD MLOAD SWAP1 DUP7 DUP4 SUB SWAP1 DUP8 ADD MSTORE PUSH2 0x2A8A JUMP JUMPDEST PUSH2 0x160 DUP1 DUP7 ADD MLOAD SWAP1 DUP6 ADD MSTORE PUSH2 0x180 DUP1 DUP7 ADD MLOAD SWAP1 DUP6 DUP4 SUB SWAP1 DUP7 ADD MSTORE PUSH2 0x2A8A JUMP JUMPDEST PUSH2 0x1A0 DUP1 DUP6 ADD MLOAD SWAP1 DUP5 DUP4 SUB SWAP1 DUP6 ADD MSTORE PUSH2 0x2A8A JUMP JUMPDEST SWAP2 PUSH2 0x1C0 DUP1 DUP3 ADD MLOAD SWAP1 DUP4 ADD MSTORE PUSH2 0x1E0 DUP1 DUP3 ADD MLOAD ISZERO ISZERO SWAP1 DUP4 ADD MSTORE PUSH2 0x200 DUP1 SWAP2 ADD MLOAD ISZERO ISZERO SWAP2 ADD MSTORE SWAP1 JUMP JUMPDEST PUSH1 0x20 DUP1 DUP3 ADD SWAP1 DUP1 DUP4 MSTORE DUP4 MLOAD DUP1 SWAP3 MSTORE PUSH1 0x40 DUP4 ADD SWAP3 DUP2 PUSH1 0x40 DUP5 PUSH1 0x5 SHL DUP4 ADD ADD SWAP6 ADD SWAP4 PUSH1 0x0 SWAP2 JUMPDEST DUP5 DUP4 LT PUSH2 0x2C68 JUMPI POP POP POP POP POP POP SWAP1 JUMP JUMPDEST SWAP1 SWAP2 SWAP3 SWAP4 SWAP5 SWAP6 DUP5 DUP1 PUSH2 0x2C86 PUSH1 0x1 SWAP4 PUSH1 0x3F NOT DUP7 DUP3 SUB ADD DUP8 MSTORE DUP11 MLOAD PUSH2 0x2B0B JUMP JUMPDEST SWAP9 ADD SWAP4 ADD SWAP4 ADD SWAP2 SWAP5 SWAP4 SWAP3 SWAP1 PUSH2 0x2C58 JUMP JUMPDEST PUSH1 0x4 CALLDATALOAD SWAP1 PUSH1 0x1 PUSH1 0x1 PUSH1 0xA0 SHL SUB DUP3 AND DUP3 SUB PUSH2 0x1793 JUMPI JUMP JUMPDEST PUSH1 0x24 CALLDATALOAD SWAP1 PUSH1 0x1 PUSH1 0x1 PUSH1 0xA0 SHL SUB DUP3 AND DUP3 SUB PUSH2 0x1793 JUMPI JUMP JUMPDEST PUSH1 0x1 PUSH1 0x1 PUSH1 0x40 SHL SUB DUP2 GT PUSH2 0x137B JUMPI PUSH1 0x40 MSTORE JUMP JUMPDEST PUSH1 0xA0 DUP2 ADD SWAP1 DUP2 LT PUSH1 0x1 PUSH1 0x1 PUSH1 0x40 SHL SUB DUP3 GT OR PUSH2 0x137B JUMPI PUSH1 0x40 MSTORE JUMP JUMPDEST PUSH2 0x220 DUP2 ADD SWAP1 DUP2 LT PUSH1 0x1 PUSH1 0x1 PUSH1 0x40 SHL SUB DUP3 GT OR PUSH2 0x137B JUMPI PUSH1 0x40 MSTORE JUMP JUMPDEST PUSH1 0xE0 DUP2 ADD SWAP1 DUP2 LT PUSH1 0x1 PUSH1 0x1 PUSH1 0x40 SHL SUB DUP3 GT OR PUSH2 0x137B JUMPI PUSH1 0x40 MSTORE JUMP JUMPDEST PUSH1 0x20 DUP2 ADD SWAP1 DUP2 LT PUSH1 0x1 PUSH1 0x1 PUSH1 0x40 SHL SUB DUP3 GT OR PUSH2 0x137B JUMPI PUSH1 0x40 MSTORE JUMP JUMPDEST SWAP1 PUSH1 0x1F DUP1 NOT SWAP2 ADD AND DUP2 ADD SWAP1 DUP2 LT PUSH1 0x1 PUSH1 0x1 PUSH1 0x40 SHL SUB DUP3 GT OR PUSH2 0x137B JUMPI PUSH1 0x40 MSTORE JUMP JUMPDEST PUSH1 0x1 PUSH1 0x1 PUSH1 0x40 SHL SUB DUP2 GT PUSH2 0x137B JUMPI PUSH1 0x1F ADD PUSH1 0x1F NOT AND PUSH1 0x20 ADD SWAP1 JUMP JUMPDEST SWAP3 SWAP2 SWAP3 PUSH2 0x2D8A DUP3 PUSH2 0x2D63 JUMP JUMPDEST SWAP2 PUSH2 0x2D98 PUSH1 0x40 MLOAD SWAP4 DUP5 PUSH2 0x2D42 JUMP JUMPDEST DUP3 SWAP5 DUP2 DUP5 MSTORE DUP2 DUP4 ADD GT PUSH2 0x1793 JUMPI DUP3 DUP2 PUSH1 0x20 SWAP4 DUP5 PUSH1 0x0 SWAP7 ADD CALLDATACOPY ADD ADD MSTORE JUMP JUMPDEST SWAP1 DUP1 PUSH1 0x1F DUP4 ADD SLT ISZERO PUSH2 0x1793 JUMPI DUP2 PUSH1 0x20 PUSH2 0x2DD0 SWAP4 CALLDATALOAD SWAP2 ADD PUSH2 0x2D7E JUMP JUMPDEST SWAP1 JUMP JUMPDEST SWAP2 DUP2 PUSH1 0x1F DUP5 ADD SLT ISZERO PUSH2 0x1793 JUMPI DUP3 CALLDATALOAD SWAP2 PUSH1 0x1 PUSH1 0x1 PUSH1 0x40 SHL SUB DUP4 GT PUSH2 0x1793 JUMPI PUSH1 0x20 DUP4 DUP2 DUP7 ADD SWAP6 ADD ADD GT PUSH2 0x1793 JUMPI JUMP JUMPDEST PUSH1 0x60 SWAP1 PUSH1 0x3 NOT ADD SLT PUSH2 0x1793 JUMPI PUSH1 0x1 PUSH1 0x1 PUSH1 0xA0 SHL SUB SWAP1 PUSH1 0x4 CALLDATALOAD DUP3 DUP2 AND DUP2 SUB PUSH2 0x1793 JUMPI SWAP2 PUSH1 0x24 CALLDATALOAD SWAP1 DUP2 AND DUP2 SUB PUSH2 0x1793 JUMPI SWAP1 PUSH1 0x44 CALLDATALOAD SWAP1 JUMP JUMPDEST PUSH1 0x20 DUP1 DUP3 ADD SWAP1 DUP1 DUP4 MSTORE DUP4 MLOAD DUP1 SWAP3 MSTORE PUSH1 0x40 SWAP3 DUP4 DUP2 ADD DUP3 DUP6 DUP6 PUSH1 0x5 SHL DUP5 ADD ADD SWAP7 ADD SWAP5 PUSH1 0x0 SWAP3 JUMPDEST DUP6 DUP5 LT PUSH2 0x2E6A JUMPI POP POP POP POP POP POP POP SWAP1 JUMP JUMPDEST SWAP1 SWAP2 SWAP3 SWAP4 DUP1 DUP1 SWAP7 SWAP8 SWAP9 PUSH1 0x3F NOT DUP5 DUP3 SUB ADD DUP7 MSTORE DUP10 MLOAD DUP1 MLOAD DUP3 MSTORE DUP3 DUP2 ADD MLOAD DUP4 DUP4 ADD MSTORE DUP6 DUP2 ADD MLOAD DUP7 DUP4 ADD MSTORE PUSH1 0x60 SWAP2 DUP3 DUP3 ADD MLOAD DUP4 DUP3 ADD MSTORE PUSH1 0x80 DUP1 DUP4 ADD MLOAD DUP2 DUP4 ADD MSTORE PUSH1 0x1 PUSH1 0xA0 SHL PUSH1 0x1 SWAP1 SUB SWAP1 PUSH1 0xA0 SWAP1 DUP3 DUP3 DUP7 ADD MLOAD AND DUP3 DUP6 ADD MSTORE PUSH1 0xC0 SWAP6 DUP7 SWAP4 DUP5 DUP8 ADD MLOAD AND DUP5 DUP7 ADD MSTORE PUSH1 0xE0 DUP1 DUP8 ADD MLOAD ISZERO ISZERO DUP2 DUP8 ADD MSTORE DUP12 PUSH2 0x100 DUP3 DUP2 DUP11 ADD MLOAD SWAP2 PUSH2 0x140 SWAP1 DUP2 DUP2 DUP13 ADD MSTORE DUP4 MLOAD SWAP2 DUP12 ADD MSTORE PUSH2 0x240 DUP11 ADD PUSH2 0x2EFF SWAP2 PUSH2 0x2A8A JUMP JUMPDEST SWAP3 DUP13 DUP4 ADD MLOAD PUSH2 0x13F NOT SWAP5 DUP6 DUP13 DUP3 SUB ADD PUSH2 0x160 DUP14 ADD MSTORE PUSH2 0x2F1D SWAP2 PUSH2 0x2A8A JUMP JUMPDEST SWAP1 DUP4 ADD MLOAD SWAP1 DUP5 DUP12 DUP3 SUB ADD PUSH2 0x180 DUP13 ADD MSTORE PUSH2 0x2F36 SWAP2 PUSH2 0x2A8A JUMP JUMPDEST DUP6 DUP4 ADD MLOAD SWAP1 DUP5 DUP12 DUP3 SUB ADD PUSH2 0x1A0 DUP13 ADD MSTORE PUSH2 0x2F4F SWAP2 PUSH2 0x2A8A JUMP JUMPDEST DUP7 DUP4 ADD MLOAD SWAP1 DUP5 DUP12 DUP3 SUB ADD PUSH2 0x1C0 DUP13 ADD MSTORE PUSH2 0x2F68 SWAP2 PUSH2 0x2A8A JUMP JUMPDEST DUP8 DUP4 ADD MLOAD SWAP1 DUP5 DUP12 DUP3 SUB ADD PUSH2 0x1E0 DUP13 ADD MSTORE PUSH2 0x2F81 SWAP2 PUSH2 0x2A8A JUMP JUMPDEST DUP9 DUP4 ADD MLOAD SWAP1 DUP5 DUP12 DUP3 SUB ADD PUSH2 0x200 DUP13 ADD MSTORE PUSH2 0x2F9A SWAP2 PUSH2 0x2A8A JUMP JUMPDEST SWAP2 ADD MLOAD SWAP2 DUP9 DUP3 SUB ADD PUSH2 0x220 DUP10 ADD MSTORE PUSH2 0x2FB1 SWAP2 PUSH2 0x2A8A JUMP JUMPDEST SWAP6 PUSH2 0x120 DUP1 SWAP9 ADD MLOAD SWAP8 DUP2 DUP9 SUB SWAP2 ADD MSTORE DUP7 MLOAD SWAP1 DUP1 DUP8 MSTORE DUP7 ADD PUSH2 0x2FD1 SWAP2 PUSH2 0x2A8A JUMP JUMPDEST DUP9 DUP8 ADD MLOAD SWAP1 DUP7 DUP2 SUB DUP11 DUP9 ADD MSTORE PUSH2 0x2FE6 SWAP2 PUSH2 0x2AAF JUMP JUMPDEST DUP12 DUP8 ADD MLOAD SWAP1 DUP7 DUP2 SUB DUP14 DUP9 ADD MSTORE PUSH2 0x2FFB SWAP2 PUSH2 0x2A8A JUMP JUMPDEST DUP2 DUP8 ADD MLOAD SWAP2 DUP7 DUP3 SUB SWAP1 DUP8 ADD MSTORE PUSH2 0x3010 SWAP2 PUSH2 0x2A8A JUMP JUMPDEST SWAP1 DUP1 DUP7 ADD MLOAD SWAP1 DUP6 ADD MSTORE DUP2 DUP6 ADD MLOAD SWAP2 DUP5 DUP3 SUB SWAP1 DUP6 ADD MSTORE PUSH2 0x302E SWAP2 PUSH2 0x2A8A JUMP JUMPDEST SWAP3 ADD MLOAD SWAP3 DUP2 DUP4 SUB SWAP2 ADD MSTORE PUSH2 0x3041 SWAP2 PUSH2 0x2A8A JUMP JUMPDEST SWAP9 ADD SWAP7 SWAP6 SWAP5 PUSH1 0x1 ADD SWAP4 ADD SWAP2 SWAP1 PUSH2 0x2E59 JUMP JUMPDEST SWAP1 PUSH1 0xC0 DUP1 PUSH2 0x30BD PUSH2 0x30AB PUSH2 0x3099 PUSH2 0x3087 PUSH2 0x3075 DUP9 MLOAD PUSH1 0xE0 DUP10 MSTORE PUSH1 0xE0 DUP10 ADD SWAP1 PUSH2 0x2A8A JUMP JUMPDEST PUSH1 0x20 DUP10 ADD MLOAD DUP9 DUP3 SUB PUSH1 0x20 DUP11 ADD MSTORE PUSH2 0x2A8A JUMP JUMPDEST PUSH1 0x40 DUP9 ADD MLOAD DUP8 DUP3 SUB PUSH1 0x40 DUP10 ADD MSTORE PUSH2 0x2A8A JUMP JUMPDEST PUSH1 0x60 DUP8 ADD MLOAD DUP7 DUP3 SUB PUSH1 0x60 DUP9 ADD MSTORE PUSH2 0x2A8A JUMP JUMPDEST PUSH1 0x80 DUP7 ADD MLOAD DUP6 DUP3 SUB PUSH1 0x80 DUP8 ADD MSTORE PUSH2 0x2A8A JUMP JUMPDEST SWAP4 PUSH1 0xA0 DUP2 ADD MLOAD PUSH1 0xA0 DUP6 ADD MSTORE ADD MLOAD ISZERO ISZERO SWAP2 ADD MSTORE SWAP1 JUMP JUMPDEST SWAP1 PUSH1 0x4 DUP3 LT ISZERO PUSH2 0x30DF JUMPI MSTORE JUMP JUMPDEST PUSH4 0x4E487B71 PUSH1 0xE0 SHL PUSH1 0x0 MSTORE PUSH1 0x21 PUSH1 0x4 MSTORE PUSH1 0x24 PUSH1 0x0 REVERT JUMPDEST SWAP1 DUP2 MLOAD DUP1 DUP3 MSTORE PUSH1 0x20 DUP1 DUP1 SWAP4 ADD SWAP4 ADD SWAP2 PUSH1 0x0 JUMPDEST DUP3 DUP2 LT PUSH2 0x3115 JUMPI POP POP POP POP SWAP1 JUMP JUMPDEST DUP4 MLOAD DUP6 MSTORE SWAP4 DUP2 ADD SWAP4 SWAP3 DUP2 ADD SWAP3 PUSH1 0x1 ADD PUSH2 0x3107 JUMP JUMPDEST PUSH1 0x0 SLOAD PUSH1 0x10 SHR PUSH1 0x1 PUSH1 0x1 PUSH1 0xA0 SHL SUB AND CALLER SUB PUSH2 0x3140 JUMPI JUMP JUMPDEST PUSH1 0x64 PUSH1 0x40 MLOAD PUSH3 0x461BCD PUSH1 0xE5 SHL DUP2 MSTORE PUSH1 0x20 PUSH1 0x4 DUP3 ADD MSTORE PUSH1 0x20 PUSH1 0x24 DUP3 ADD MSTORE PUSH32 0x4F776E61626C653A2063616C6C6572206973206E6F7420746865206F776E6572 PUSH1 0x44 DUP3 ADD MSTORE REVERT JUMPDEST ISZERO PUSH2 0x318B JUMPI JUMP JUMPDEST PUSH1 0x40 MLOAD PUSH3 0x461BCD PUSH1 0xE5 SHL DUP2 MSTORE PUSH1 0x20 PUSH1 0x4 DUP3 ADD MSTORE PUSH1 0x18 PUSH1 0x24 DUP3 ADD MSTORE PUSH32 0x4552433732313A20696E76616C696420746F6B656E2049440000000000000000 PUSH1 0x44 DUP3 ADD MSTORE PUSH1 0x64 SWAP1 REVERT JUMPDEST PUSH1 0x0 SWAP1 DUP2 MSTORE PUSH1 0x4 PUSH1 0x20 MSTORE PUSH1 0x40 SWAP1 KECCAK256 SLOAD PUSH1 0x1 PUSH1 0x1 PUSH1 0xA0 SHL SUB AND PUSH2 0x2DD0 DUP2 ISZERO ISZERO PUSH2 0x3184 JUMP JUMPDEST PUSH1 0x0 DUP2 DUP2 MSTORE PUSH1 0x4 PUSH1 0x20 MSTORE PUSH1 0x40 SWAP1 KECCAK256 SLOAD PUSH2 0x3216 SWAP1 PUSH1 0x1 PUSH1 0x1 PUSH1 0xA0 SHL SUB AND ISZERO ISZERO PUSH2 0x3184 JUMP JUMPDEST PUSH1 0x0 SWAP1 DUP2 MSTORE PUSH1 0x6 PUSH1 0x20 MSTORE PUSH1 0x40 SWAP1 KECCAK256 SLOAD PUSH1 0x1 PUSH1 0x1 PUSH1 0xA0 SHL SUB AND SWAP1 JUMP JUMPDEST ISZERO PUSH2 0x3238 JUMPI JUMP JUMPDEST PUSH1 0x40 MLOAD PUSH3 0x461BCD PUSH1 0xE5 SHL DUP2 MSTORE PUSH1 0x20 PUSH1 0x4 DUP3 ADD MSTORE PUSH1 0x2D PUSH1 0x24 DUP3 ADD MSTORE PUSH32 0x4552433732313A2063616C6C6572206973206E6F7420746F6B656E206F776E65 PUSH1 0x44 DUP3 ADD MSTORE PUSH13 0x1C881BDC88185C1C1C9BDD9959 PUSH1 0x9A SHL PUSH1 0x64 DUP3 ADD MSTORE PUSH1 0x84 SWAP1 REVERT JUMPDEST SWAP1 PUSH2 0x32B7 SWAP4 SWAP3 SWAP2 PUSH2 0x32A7 PUSH2 0x223E DUP5 CALLER PUSH2 0x332E JUMP JUMPDEST PUSH2 0x32B2 DUP4 DUP4 DUP4 PUSH2 0x33F6 JUMP JUMPDEST PUSH2 0x3507 JUMP JUMPDEST ISZERO PUSH2 0x32BE JUMPI JUMP JUMPDEST PUSH1 0x40 MLOAD PUSH3 0x461BCD PUSH1 0xE5 SHL DUP2 MSTORE DUP1 PUSH2 0x32D7 PUSH1 0x4 DUP3 ADD PUSH2 0x32DB JUMP JUMPDEST SUB SWAP1 REVERT JUMPDEST PUSH1 0x80 SWAP1 PUSH1 0x20 DUP2 MSTORE PUSH1 0x32 PUSH1 0x20 DUP3 ADD MSTORE PUSH32 0x4552433732313A207472616E7366657220746F206E6F6E204552433732315265 PUSH1 0x40 DUP3 ADD MSTORE PUSH18 0x31B2B4BB32B91034B6B83632B6B2B73A32B9 PUSH1 0x71 SHL PUSH1 0x60 DUP3 ADD MSTORE ADD SWAP1 JUMP JUMPDEST SWAP1 PUSH1 0x1 PUSH1 0x1 PUSH1 0xA0 SHL SUB DUP1 DUP1 PUSH2 0x3342 DUP5 PUSH2 0x31D0 JUMP JUMPDEST AND SWAP4 AND SWAP2 DUP4 DUP4 EQ SWAP4 DUP5 ISZERO PUSH2 0x3375 JUMPI JUMPDEST POP DUP4 ISZERO PUSH2 0x335F JUMPI JUMPDEST POP POP POP SWAP1 JUMP JUMPDEST PUSH2 0x336B SWAP2 SWAP3 SWAP4 POP PUSH2 0x31F3 JUMP JUMPDEST AND EQ CODESIZE DUP1 DUP1 PUSH2 0x3359 JUMP JUMPDEST SWAP1 SWAP4 POP PUSH1 0x0 MSTORE PUSH1 0x7 PUSH1 0x20 MSTORE PUSH1 0x40 PUSH1 0x0 KECCAK256 DUP3 PUSH1 0x0 MSTORE PUSH1 0x20 MSTORE PUSH1 0xFF PUSH1 0x40 PUSH1 0x0 KECCAK256 SLOAD AND SWAP3 CODESIZE PUSH2 0x3351 JUMP JUMPDEST ISZERO PUSH2 0x33A3 JUMPI JUMP JUMPDEST PUSH1 0x40 MLOAD PUSH3 0x461BCD PUSH1 0xE5 SHL DUP2 MSTORE PUSH1 0x20 PUSH1 0x4 DUP3 ADD MSTORE PUSH1 0x25 PUSH1 0x24 DUP3 ADD MSTORE PUSH32 0x4552433732313A207472616E736665722066726F6D20696E636F727265637420 PUSH1 0x44 DUP3 ADD MSTORE PUSH5 0x37BBB732B9 PUSH1 0xD9 SHL PUSH1 0x64 DUP3 ADD MSTORE PUSH1 0x84 SWAP1 REVERT JUMPDEST SWAP1 PUSH2 0x341E SWAP2 PUSH2 0x3404 DUP5 PUSH2 0x31D0 JUMP JUMPDEST PUSH1 0x1 PUSH1 0x1 PUSH1 0xA0 SHL SUB SWAP4 SWAP2 DUP5 AND SWAP3 DUP5 SWAP3 SWAP1 SWAP2 DUP4 AND DUP5 EQ PUSH2 0x339C JUMP JUMPDEST AND SWAP2 DUP3 ISZERO PUSH2 0x34B6 JUMPI DUP2 PUSH2 0x343B SWAP2 PUSH2 0x3434 DUP7 PUSH2 0x31D0 JUMP JUMPDEST AND EQ PUSH2 0x339C JUMP JUMPDEST PUSH32 0xDDF252AD1BE2C89B69C2B068FC378DAA952BA7F163C4A11628F55A4DF523B3EF PUSH1 0x0 DUP5 DUP2 MSTORE PUSH1 0x6 PUSH1 0x20 MSTORE PUSH1 0x40 DUP2 KECCAK256 PUSH1 0x1 PUSH1 0x1 PUSH1 0x60 SHL SUB PUSH1 0xA0 SHL SWAP1 DUP2 DUP2 SLOAD AND SWAP1 SSTORE DUP4 DUP3 MSTORE PUSH1 0x5 PUSH1 0x20 MSTORE PUSH1 0x40 DUP3 KECCAK256 PUSH1 0x0 NOT DUP2 SLOAD ADD SWAP1 SSTORE DUP5 DUP3 MSTORE PUSH1 0x40 DUP3 KECCAK256 PUSH1 0x1 DUP2 SLOAD ADD SWAP1 SSTORE DUP6 DUP3 MSTORE PUSH1 0x4 PUSH1 0x20 MSTORE DUP5 PUSH1 0x40 DUP4 KECCAK256 SWAP2 DUP3 SLOAD AND OR SWAP1 SSTORE DUP1 LOG4 JUMP JUMPDEST PUSH1 0x40 MLOAD PUSH3 0x461BCD PUSH1 0xE5 SHL DUP2 MSTORE PUSH1 0x20 PUSH1 0x4 DUP3 ADD MSTORE PUSH1 0x24 DUP1 DUP3 ADD MSTORE PUSH32 0x4552433732313A207472616E7366657220746F20746865207A65726F20616464 PUSH1 0x44 DUP3 ADD MSTORE PUSH4 0x72657373 PUSH1 0xE0 SHL PUSH1 0x64 DUP3 ADD MSTORE PUSH1 0x84 SWAP1 REVERT JUMPDEST SWAP3 SWAP4 PUSH1 0x0 SWAP4 SWAP1 SWAP3 SWAP2 DUP1 EXTCODESIZE ISZERO PUSH2 0x361D JUMPI SWAP5 DUP5 SWAP2 PUSH2 0x3561 SWAP7 PUSH1 0x40 MLOAD DUP1 SWAP5 DUP2 SWAP4 PUSH4 0xA85BD01 PUSH1 0xE1 SHL SWAP8 DUP9 DUP5 MSTORE CALLER PUSH1 0x4 DUP6 ADD MSTORE PUSH1 0x1 DUP1 PUSH1 0xA0 SHL SUB DUP1 SWAP3 AND PUSH1 0x24 DUP6 ADD MSTORE PUSH1 0x44 DUP5 ADD MSTORE PUSH1 0x80 PUSH1 0x64 DUP5 ADD MSTORE DUP3 PUSH1 0x20 SWAP12 DUP13 SWAP8 PUSH1 0x84 DUP4 ADD SWAP1 PUSH2 0x2A8A JUMP JUMPDEST SUB SWAP4 AND GAS CALL DUP5 SWAP2 DUP2 PUSH2 0x35DD JUMPI JUMPDEST POP PUSH2 0x35CC JUMPI POP POP POP RETURNDATASIZE PUSH1 0x0 EQ PUSH2 0x35C4 JUMPI RETURNDATASIZE PUSH2 0x3588 DUP2 PUSH2 0x2D63 JUMP JUMPDEST SWAP1 PUSH2 0x3596 PUSH1 0x40 MLOAD SWAP3 DUP4 PUSH2 0x2D42 JUMP JUMPDEST DUP2 MSTORE DUP1 SWAP2 DUP4 RETURNDATASIZE SWAP3 ADD RETURNDATACOPY JUMPDEST DUP1 MLOAD SWAP2 DUP3 PUSH2 0x35C1 JUMPI PUSH1 0x40 MLOAD PUSH3 0x461BCD PUSH1 0xE5 SHL DUP2 MSTORE DUP1 PUSH2 0x32D7 PUSH1 0x4 DUP3 ADD PUSH2 0x32DB JUMP JUMPDEST ADD REVERT JUMPDEST POP PUSH1 0x60 PUSH2 0x35A0 JUMP JUMPDEST PUSH1 0x1 PUSH1 0x1 PUSH1 0xE0 SHL SUB NOT AND EQ SWAP3 POP SWAP1 POP JUMP JUMPDEST SWAP1 SWAP2 POP DUP6 DUP2 DUP2 RETURNDATASIZE DUP4 GT PUSH2 0x3616 JUMPI JUMPDEST PUSH2 0x35F5 DUP2 DUP4 PUSH2 0x2D42 JUMP JUMPDEST DUP2 ADD SUB SLT PUSH2 0x895 JUMPI MLOAD PUSH1 0x1 PUSH1 0x1 PUSH1 0xE0 SHL SUB NOT DUP2 AND DUP2 SUB PUSH2 0x895 JUMPI SWAP1 CODESIZE PUSH2 0x356E JUMP JUMPDEST POP RETURNDATASIZE PUSH2 0x35EB JUMP JUMPDEST POP POP POP SWAP2 POP POP PUSH1 0x1 SWAP1 JUMP JUMPDEST PUSH1 0x1 PUSH1 0x1 PUSH1 0x40 SHL SUB DUP2 GT PUSH2 0x137B JUMPI PUSH1 0x5 SHL PUSH1 0x20 ADD SWAP1 JUMP JUMPDEST MLOAD SWAP1 PUSH1 0x1 PUSH1 0x1 PUSH1 0xA0 SHL SUB DUP3 AND DUP3 SUB PUSH2 0x1793 JUMPI JUMP JUMPDEST MLOAD SWAP1 DUP2 ISZERO ISZERO DUP3 SUB PUSH2 0x1793 JUMPI JUMP JUMPDEST DUP2 PUSH1 0x1F DUP3 ADD SLT ISZERO PUSH2 0x1793 JUMPI DUP1 MLOAD PUSH2 0x3676 DUP2 PUSH2 0x2D63 JUMP JUMPDEST SWAP3 PUSH2 0x3684 PUSH1 0x40 MLOAD SWAP5 DUP6 PUSH2 0x2D42 JUMP JUMPDEST DUP2 DUP5 MSTORE PUSH1 0x20 DUP3 DUP5 ADD ADD GT PUSH2 0x1793 JUMPI PUSH2 0x2DD0 SWAP2 PUSH1 0x20 DUP1 DUP6 ADD SWAP2 ADD PUSH2 0x2A67 JUMP JUMPDEST PUSH1 0x40 MLOAD SWAP1 PUSH2 0x36AF DUP3 PUSH2 0x2D0C JUMP JUMPDEST PUSH1 0x0 PUSH1 0xC0 DUP4 PUSH1 0x60 DUP1 DUP3 MSTORE DUP1 PUSH1 0x20 DUP4 ADD MSTORE DUP1 PUSH1 0x40 DUP4 ADD MSTORE DUP1 DUP1 DUP4 ADD MSTORE PUSH1 0x80 DUP3 ADD MSTORE DUP3 PUSH1 0xA0 DUP3 ADD MSTORE ADD MSTORE JUMP JUMPDEST SWAP2 SWAP1 SWAP2 PUSH1 0xE0 DUP2 DUP5 SUB SLT PUSH2 0x1793 JUMPI PUSH1 0x40 MLOAD SWAP1 PUSH2 0x36F3 DUP3 PUSH2 0x2D0C JUMP JUMPDEST DUP2 SWAP4 DUP2 MLOAD SWAP1 PUSH1 0x1 PUSH1 0x1 PUSH1 0x40 SHL SUB SWAP2 DUP3 DUP2 GT PUSH2 0x1793 JUMPI DUP2 PUSH2 0x3714 SWAP2 DUP6 ADD PUSH2 0x3660 JUMP JUMPDEST DUP5 MSTORE PUSH1 0x20 DUP4 ADD MLOAD DUP3 DUP2 GT PUSH2 0x1793 JUMPI DUP2 PUSH2 0x372E SWAP2 DUP6 ADD PUSH2 0x3660 JUMP JUMPDEST PUSH1 0x20 DUP6 ADD MSTORE PUSH1 0x40 DUP4 ADD MLOAD DUP3 DUP2 GT PUSH2 0x1793 JUMPI DUP2 PUSH2 0x374B SWAP2 DUP6 ADD PUSH2 0x3660 JUMP JUMPDEST PUSH1 0x40 DUP6 ADD MSTORE PUSH1 0x60 DUP4 ADD MLOAD DUP3 DUP2 GT PUSH2 0x1793 JUMPI DUP2 PUSH2 0x3768 SWAP2 DUP6 ADD PUSH2 0x3660 JUMP JUMPDEST PUSH1 0x60 DUP6 ADD MSTORE PUSH1 0x80 DUP4 ADD MLOAD SWAP2 DUP3 GT PUSH2 0x1793 JUMPI DUP3 PUSH2 0x378D PUSH1 0xC0 SWAP5 SWAP3 PUSH2 0x37A2 SWAP5 DUP7 SWAP5 ADD PUSH2 0x3660 JUMP JUMPDEST PUSH1 0x80 DUP7 ADD MSTORE PUSH1 0xA0 DUP2 ADD MLOAD PUSH1 0xA0 DUP7 ADD MSTORE ADD PUSH2 0x3653 JUMP JUMPDEST SWAP2 ADD MSTORE JUMP JUMPDEST SWAP1 CALLDATALOAD PUSH1 0x1E NOT DUP3 CALLDATASIZE SUB ADD DUP2 SLT ISZERO PUSH2 0x1793 JUMPI ADD PUSH1 0x20 DUP2 CALLDATALOAD SWAP2 ADD SWAP2 PUSH1 0x1 PUSH1 0x1 PUSH1 0x40 SHL SUB DUP3 GT PUSH2 0x1793 JUMPI DUP2 CALLDATASIZE SUB DUP4 SGT PUSH2 0x1793 JUMPI JUMP JUMPDEST SWAP1 DUP1 PUSH1 0x20 SWAP4 SWAP3 DUP2 DUP5 MSTORE DUP5 DUP5 ADD CALLDATACOPY PUSH1 0x0 DUP3 DUP3 ADD DUP5 ADD MSTORE PUSH1 0x1F ADD PUSH1 0x1F NOT AND ADD ADD SWAP1 JUMP JUMPDEST SWAP1 CALLDATALOAD PUSH1 0x1E NOT DUP3 CALLDATASIZE SUB ADD DUP2 SLT ISZERO PUSH2 0x1793 JUMPI ADD PUSH1 0x20 DUP2 CALLDATALOAD SWAP2 ADD SWAP2 PUSH1 0x1 PUSH1 0x1 PUSH1 0x40 SHL SUB DUP3 GT PUSH2 0x1793 JUMPI DUP2 PUSH1 0x5 SHL CALLDATASIZE SUB DUP4 SGT PUSH2 0x1793 JUMPI JUMP JUMPDEST SWAP1 DUP1 DUP4 MSTORE PUSH1 0x20 DUP1 SWAP4 ADD SWAP3 DUP4 DUP3 PUSH1 0x5 SHL DUP6 ADD SWAP5 DUP5 PUSH1 0x0 SWAP3 JUMPDEST DUP6 DUP5 LT PUSH2 0x3855 JUMPI POP POP POP POP POP POP POP SWAP1 JUMP JUMPDEST SWAP1 SWAP2 SWAP3 SWAP4 SWAP5 SWAP6 SWAP7 DUP6 DUP1 PUSH2 0x3879 DUP4 DUP6 PUSH1 0x1 SWAP6 SUB DUP9 MSTORE PUSH2 0x3873 DUP13 DUP9 PUSH2 0x37A7 JUMP JUMPDEST SWAP1 PUSH2 0x37D8 JUMP JUMPDEST SWAP10 ADD SWAP5 ADD SWAP5 ADD SWAP3 SWAP6 SWAP5 SWAP4 SWAP2 SWAP1 PUSH2 0x3844 JUMP JUMPDEST SWAP1 PUSH2 0x39B8 PUSH2 0x399C PUSH2 0x3975 PUSH2 0x3959 PUSH2 0x393E PUSH2 0x3923 PUSH2 0x3908 PUSH2 0x38D9 PUSH2 0x38BE PUSH2 0x38B0 DUP12 DUP1 PUSH2 0x37A7 JUMP JUMPDEST PUSH2 0x1A0 DUP1 DUP14 MSTORE DUP13 ADD SWAP2 PUSH2 0x37D8 JUMP JUMPDEST PUSH2 0x38CB PUSH1 0x20 DUP13 ADD DUP13 PUSH2 0x37A7 JUMP JUMPDEST SWAP1 DUP12 DUP4 SUB PUSH1 0x20 DUP14 ADD MSTORE PUSH2 0x37D8 JUMP JUMPDEST PUSH1 0x40 DUP11 ADD CALLDATALOAD PUSH1 0x40 DUP11 ADD MSTORE PUSH1 0x60 DUP11 ADD CALLDATALOAD PUSH1 0x60 DUP11 ADD MSTORE PUSH2 0x38FA PUSH1 0x80 DUP12 ADD DUP12 PUSH2 0x37F9 JUMP JUMPDEST SWAP1 DUP11 DUP4 SUB PUSH1 0x80 DUP13 ADD MSTORE PUSH2 0x382D JUMP JUMPDEST PUSH2 0x3915 PUSH1 0xA0 DUP11 ADD DUP11 PUSH2 0x37F9 JUMP JUMPDEST SWAP1 DUP10 DUP4 SUB PUSH1 0xA0 DUP12 ADD MSTORE PUSH2 0x382D JUMP JUMPDEST PUSH2 0x3930 PUSH1 0xC0 DUP10 ADD DUP10 PUSH2 0x37F9 JUMP JUMPDEST SWAP1 DUP9 DUP4 SUB PUSH1 0xC0 DUP11 ADD MSTORE PUSH2 0x382D JUMP JUMPDEST PUSH2 0x394B PUSH1 0xE0 DUP9 ADD DUP9 PUSH2 0x37A7 JUMP JUMPDEST SWAP1 DUP8 DUP4 SUB PUSH1 0xE0 DUP10 ADD MSTORE PUSH2 0x37D8 JUMP JUMPDEST PUSH2 0x100 PUSH2 0x3968 DUP2 DUP9 ADD DUP9 PUSH2 0x37A7 JUMP JUMPDEST SWAP2 DUP8 DUP5 SUB SWAP1 DUP9 ADD MSTORE PUSH2 0x37D8 JUMP JUMPDEST PUSH2 0x120 DUP1 DUP7 ADD CALLDATALOAD SWAP1 DUP6 ADD MSTORE PUSH2 0x140 PUSH2 0x398F DUP2 DUP8 ADD DUP8 PUSH2 0x37A7 JUMP JUMPDEST SWAP2 DUP7 DUP5 SUB SWAP1 DUP8 ADD MSTORE PUSH2 0x37D8 JUMP JUMPDEST PUSH2 0x160 PUSH2 0x39AB DUP2 DUP7 ADD DUP7 PUSH2 0x37A7 JUMP JUMPDEST SWAP2 DUP6 DUP5 SUB SWAP1 DUP7 ADD MSTORE PUSH2 0x37D8 JUMP JUMPDEST SWAP2 PUSH2 0x180 DUP1 SWAP2 ADD CALLDATALOAD SWAP2 ADD MSTORE SWAP1 JUMP JUMPDEST ISZERO PUSH2 0x39CD JUMPI JUMP JUMPDEST PUSH1 0x40 MLOAD PUSH3 0x461BCD PUSH1 0xE5 SHL DUP2 MSTORE PUSH1 0x20 PUSH1 0x4 DUP3 ADD MSTORE PUSH1 0x1C PUSH1 0x24 DUP3 ADD MSTORE PUSH32 0x4552433732313A20746F6B656E20616C7265616479206D696E74656400000000 PUSH1 0x44 DUP3 ADD MSTORE PUSH1 0x64 SWAP1 REVERT JUMPDEST DUP2 PUSH1 0x1F DUP3 ADD SLT ISZERO PUSH2 0x1793 JUMPI DUP1 MLOAD SWAP2 PUSH2 0x3A29 DUP4 PUSH2 0x3628 JUMP JUMPDEST SWAP3 PUSH2 0x3A37 PUSH1 0x40 MLOAD SWAP5 DUP6 PUSH2 0x2D42 JUMP JUMPDEST DUP1 DUP5 MSTORE PUSH1 0x20 SWAP3 DUP4 DUP1 DUP7 ADD SWAP3 PUSH1 0x5 SHL DUP3 ADD ADD SWAP3 DUP4 GT PUSH2 0x1793 JUMPI DUP4 ADD SWAP1 JUMPDEST DUP3 DUP3 LT PUSH2 0x3A61 JUMPI POP POP POP POP SWAP1 JUMP JUMPDEST DUP2 MLOAD DUP2 MSTORE SWAP1 DUP4 ADD SWAP1 DUP4 ADD PUSH2 0x3A53 JUMP JUMPDEST SWAP1 DUP1 PUSH1 0x1F DUP4 ADD SLT ISZERO PUSH2 0x1793 JUMPI DUP2 MLOAD SWAP1 PUSH2 0x3A88 DUP3 PUSH2 0x3628 JUMP JUMPDEST SWAP3 PUSH2 0x3A96 PUSH1 0x40 MLOAD SWAP5 DUP6 PUSH2 0x2D42 JUMP JUMPDEST DUP3 DUP5 MSTORE PUSH1 0x20 SWAP3 DUP4 DUP1 DUP7 ADD SWAP2 PUSH1 0x5 SHL DUP4 ADD ADD SWAP3 DUP1 DUP5 GT PUSH2 0x1793 JUMPI DUP5 DUP4 ADD SWAP2 JUMPDEST DUP5 DUP4 LT PUSH2 0x3AC4 JUMPI POP POP POP POP POP POP SWAP1 JUMP JUMPDEST DUP3 MLOAD PUSH1 0x1 PUSH1 0x1 PUSH1 0x40 SHL SUB DUP2 GT PUSH2 0x1793 JUMPI DUP7 SWAP2 PUSH2 0x3AE5 DUP5 DUP5 DUP1 SWAP5 DUP10 ADD ADD PUSH2 0x3660 JUMP JUMPDEST DUP2 MSTORE ADD SWAP3 ADD SWAP2 PUSH2 0x3AB4 JUMP JUMPDEST SWAP2 SWAP1 SWAP2 PUSH2 0x220 DUP2 DUP5 SUB SLT PUSH2 0x1793 JUMPI PUSH1 0x40 MLOAD SWAP1 PUSH2 0x3B0B DUP3 PUSH2 0x2CF0 JUMP JUMPDEST DUP2 SWAP4 DUP2 MLOAD DUP4 MSTORE PUSH2 0x3B1D PUSH1 0x20 DUP4 ADD PUSH2 0x363F JUMP JUMPDEST PUSH1 0x20 DUP5 ADD MSTORE PUSH1 0x40 DUP3 ADD MLOAD PUSH1 0x1 PUSH1 0x1 PUSH1 0x40 SHL SUB SWAP1 DUP2 DUP2 GT PUSH2 0x1793 JUMPI DUP3 PUSH2 0x3B43 SWAP2 DUP6 ADD PUSH2 0x3660 JUMP JUMPDEST PUSH1 0x40 DUP6 ADD MSTORE PUSH1 0x60 DUP4 ADD MLOAD DUP2 DUP2 GT PUSH2 0x1793 JUMPI DUP3 PUSH2 0x3B60 SWAP2 DUP6 ADD PUSH2 0x3660 JUMP JUMPDEST PUSH1 0x60 DUP6 ADD MSTORE PUSH1 0x80 DUP4 ADD MLOAD PUSH1 0x80 DUP6 ADD MSTORE PUSH1 0xA0 DUP4 ADD MLOAD PUSH1 0xA0 DUP6 ADD MSTORE PUSH1 0xC0 DUP4 ADD MLOAD DUP2 DUP2 GT PUSH2 0x1793 JUMPI DUP3 PUSH2 0x3B91 SWAP2 DUP6 ADD PUSH2 0x3A70 JUMP JUMPDEST PUSH1 0xC0 DUP6 ADD MSTORE PUSH1 0xE0 DUP4 ADD MLOAD DUP2 DUP2 GT PUSH2 0x1793 JUMPI DUP3 PUSH2 0x3BAE SWAP2 DUP6 ADD PUSH2 0x3A70 JUMP JUMPDEST PUSH1 0xE0 DUP6 ADD MSTORE PUSH2 0x100 DUP1 DUP5 ADD MLOAD DUP3 DUP2 GT PUSH2 0x1793 JUMPI DUP4 PUSH2 0x3BCD SWAP2 DUP7 ADD PUSH2 0x3A70 JUMP JUMPDEST SWAP1 DUP6 ADD MSTORE PUSH2 0x120 DUP1 DUP5 ADD MLOAD DUP3 DUP2 GT PUSH2 0x1793 JUMPI DUP4 PUSH2 0x3BEB SWAP2 DUP7 ADD PUSH2 0x3660 JUMP JUMPDEST SWAP1 DUP6 ADD MSTORE PUSH2 0x140 DUP1 DUP5 ADD MLOAD DUP3 DUP2 GT PUSH2 0x1793 JUMPI DUP4 PUSH2 0x3C09 SWAP2 DUP7 ADD PUSH2 0x3660 JUMP JUMPDEST SWAP1 DUP6 ADD MSTORE PUSH2 0x160 DUP1 DUP5 ADD MLOAD SWAP1 DUP6 ADD MSTORE PUSH2 0x180 DUP1 DUP5 ADD MLOAD DUP3 DUP2 GT PUSH2 0x1793 JUMPI DUP4 PUSH2 0x3C32 SWAP2 DUP7 ADD PUSH2 0x3660 JUMP JUMPDEST SWAP1 DUP6 ADD MSTORE PUSH2 0x1A0 SWAP2 DUP3 DUP5 ADD MLOAD SWAP2 DUP3 GT PUSH2 0x1793 JUMPI PUSH2 0x3C50 SWAP2 DUP5 ADD PUSH2 0x3660 JUMP JUMPDEST SWAP1 DUP4 ADD MSTORE PUSH2 0x1C0 DUP1 DUP3 ADD MLOAD SWAP1 DUP4 ADD MSTORE PUSH2 0x1E0 PUSH2 0x3C6D DUP2 DUP4 ADD PUSH2 0x3653 JUMP JUMPDEST SWAP1 DUP4 ADD MSTORE PUSH2 0x37A2 PUSH2 0x200 DUP1 SWAP3 ADD PUSH2 0x3653 JUMP JUMPDEST SWAP1 PUSH1 0x20 DUP3 DUP3 SUB SLT PUSH2 0x1793 JUMPI DUP2 MLOAD PUSH1 0x1 PUSH1 0x1 PUSH1 0x40 SHL SUB DUP2 GT PUSH2 0x1793 JUMPI PUSH2 0x2DD0 SWAP3 ADD PUSH2 0x3AF0 JUMP JUMPDEST DUP2 DUP2 MUL SWAP3 SWAP2 DUP2 ISZERO SWAP2 DUP5 DIV EQ OR ISZERO PUSH2 0x3CB7 JUMPI JUMP JUMPDEST PUSH4 0x4E487B71 PUSH1 0xE0 SHL PUSH1 0x0 MSTORE PUSH1 0x11 PUSH1 0x4 MSTORE PUSH1 0x24 PUSH1 0x0 REVERT JUMPDEST SWAP1 PUSH1 0x20 SWAP1 DUP2 DUP4 DUP3 SUB SLT PUSH2 0x1793 JUMPI DUP3 MLOAD PUSH1 0x1 PUSH1 0x1 PUSH1 0x40 SHL SUB SWAP4 DUP5 DUP3 GT PUSH2 0x1793 JUMPI ADD DUP2 PUSH1 0x1F DUP3 ADD SLT ISZERO PUSH2 0x1793 JUMPI DUP1 MLOAD PUSH2 0x3D03 DUP2 PUSH2 0x3628 JUMP JUMPDEST SWAP5 PUSH2 0x3D11 PUSH1 0x40 MLOAD SWAP7 DUP8 PUSH2 0x2D42 JUMP JUMPDEST DUP2 DUP7 MSTORE DUP5 DUP1 DUP8 ADD SWAP3 PUSH1 0x5 SHL DUP5 ADD ADD SWAP4 DUP1 DUP6 GT PUSH2 0x1793 JUMPI DUP6 DUP5 ADD SWAP3 JUMPDEST DUP6 DUP5 LT PUSH2 0x3D3D JUMPI POP POP POP POP POP POP POP SWAP1 JUMP JUMPDEST DUP4 MLOAD DUP4 DUP2 GT PUSH2 0x1793 JUMPI DUP8 SWAP2 PUSH2 0x3D57 DUP5 DUP5 DUP1 SWAP5 DUP11 ADD ADD PUSH2 0x3AF0 JUMP JUMPDEST DUP2 MSTORE ADD SWAP4 ADD SWAP3 PUSH2 0x3D2C JUMP JUMPDEST SWAP1 PUSH1 0x20 DUP3 DUP3 SUB SLT PUSH2 0x1793 JUMPI DUP2 MLOAD PUSH1 0x1 PUSH1 0x1 PUSH1 0x40 SHL SUB DUP2 GT PUSH2 0x1793 JUMPI DUP2 PUSH1 0x1F DUP3 DUP6 ADD ADD SLT ISZERO PUSH2 0x1793 JUMPI DUP1 DUP4 ADD MLOAD SWAP3 PUSH2 0x3D98 DUP5 PUSH2 0x3628 JUMP JUMPDEST SWAP4 PUSH2 0x3DA6 PUSH1 0x40 MLOAD SWAP6 DUP7 PUSH2 0x2D42 JUMP JUMPDEST DUP1 DUP6 MSTORE PUSH1 0x20 DUP1 DUP7 ADD SWAP2 PUSH1 0x5 SHL DUP5 DUP5 ADD ADD ADD SWAP3 DUP5 DUP5 GT PUSH2 0x1793 JUMPI PUSH1 0x20 DUP2 DUP5 ADD ADD SWAP2 JUMPDEST DUP5 DUP4 LT PUSH2 0x3DD7 JUMPI POP POP POP POP POP POP SWAP1 JUMP JUMPDEST DUP3 MLOAD PUSH1 0x1 PUSH1 0x1 PUSH1 0x40 SHL SUB DUP2 GT PUSH2 0x1793 JUMPI PUSH2 0x140 DUP6 DUP5 ADD DUP3 ADD DUP9 SUB PUSH1 0x1F NOT ADD SLT PUSH2 0x1793 JUMPI PUSH1 0x40 MLOAD SWAP2 PUSH2 0x140 DUP4 ADD DUP4 DUP2 LT PUSH1 0x1 PUSH1 0x1 PUSH1 0x40 SHL SUB DUP3 GT OR PUSH2 0x41FD JUMPI PUSH1 0x40 SWAP1 DUP2 MSTORE DUP7 DUP6 ADD DUP4 ADD PUSH1 0x20 DUP2 DUP2 ADD MLOAD DUP7 MSTORE DUP2 DUP4 ADD MLOAD SWAP1 DUP7 ADD MSTORE PUSH1 0x60 DUP1 DUP3 ADD MLOAD SWAP3 DUP7 ADD SWAP3 SWAP1 SWAP3 MSTORE PUSH1 0x80 DUP1 DUP3 ADD MLOAD SWAP3 DUP7 ADD SWAP3 SWAP1 SWAP3 MSTORE PUSH1 0xA0 DUP2 ADD MLOAD SWAP2 DUP6 ADD SWAP2 SWAP1 SWAP2 MSTORE PUSH2 0x3E61 SWAP1 PUSH1 0xC0 ADD PUSH2 0x363F JUMP JUMPDEST PUSH1 0xA0 DUP5 ADD MSTORE PUSH2 0x3E76 PUSH1 0xE0 DUP4 DUP7 DUP10 ADD ADD ADD PUSH2 0x363F JUMP JUMPDEST PUSH1 0xC0 DUP5 ADD MSTORE PUSH2 0x3E8C PUSH2 0x100 DUP4 DUP7 DUP10 ADD ADD ADD PUSH2 0x3653 JUMP JUMPDEST PUSH1 0xE0 DUP5 ADD MSTORE PUSH2 0x120 DUP3 DUP6 DUP9 ADD ADD ADD MLOAD PUSH1 0x1 PUSH1 0x1 PUSH1 0x40 SHL SUB DUP2 GT PUSH2 0x1793 JUMPI PUSH2 0x100 DUP8 DUP7 ADD DUP5 ADD DUP3 ADD DUP11 SUB PUSH1 0x1F NOT ADD SLT PUSH2 0x1793 JUMPI PUSH1 0x40 MLOAD SWAP1 PUSH2 0x100 DUP3 ADD DUP3 DUP2 LT PUSH1 0x1 PUSH1 0x1 PUSH1 0x40 SHL SUB DUP3 GT OR PUSH2 0x41FD JUMPI PUSH1 0x40 MSTORE PUSH1 0x20 DUP2 DUP6 DUP9 DUP12 ADD ADD ADD ADD MLOAD PUSH1 0x1 PUSH1 0x1 PUSH1 0x40 SHL SUB DUP2 GT PUSH2 0x1793 JUMPI DUP11 PUSH1 0x20 PUSH2 0x3F0A SWAP3 DUP5 DUP9 DUP12 DUP15 ADD ADD ADD ADD ADD PUSH2 0x3660 JUMP JUMPDEST DUP3 MSTORE PUSH1 0x40 DUP2 DUP6 DUP9 DUP12 ADD ADD ADD ADD MLOAD PUSH1 0x1 PUSH1 0x1 PUSH1 0x40 SHL SUB DUP2 GT PUSH2 0x1793 JUMPI DUP11 PUSH1 0x20 PUSH2 0x3F3A SWAP3 DUP5 DUP9 DUP12 DUP15 ADD ADD ADD ADD ADD PUSH2 0x3660 JUMP JUMPDEST PUSH1 0x20 DUP4 ADD MSTORE PUSH1 0x60 DUP2 DUP6 DUP9 DUP12 ADD ADD ADD ADD MLOAD PUSH1 0x1 PUSH1 0x1 PUSH1 0x40 SHL SUB DUP2 GT PUSH2 0x1793 JUMPI DUP11 PUSH1 0x20 PUSH2 0x3F6D SWAP3 DUP5 DUP9 DUP12 DUP15 ADD ADD ADD ADD ADD PUSH2 0x3660 JUMP JUMPDEST PUSH1 0x40 DUP4 ADD MSTORE PUSH1 0x80 DUP2 DUP6 DUP9 DUP12 ADD ADD ADD ADD MLOAD PUSH1 0x1 PUSH1 0x1 PUSH1 0x40 SHL SUB DUP2 GT PUSH2 0x1793 JUMPI DUP11 PUSH1 0x20 PUSH2 0x3FA0 SWAP3 DUP5 DUP9 DUP12 DUP15 ADD ADD ADD ADD ADD PUSH2 0x3660 JUMP JUMPDEST PUSH1 0x60 DUP4 ADD MSTORE PUSH1 0xA0 DUP2 DUP6 DUP9 DUP12 ADD ADD ADD ADD MLOAD PUSH1 0x1 PUSH1 0x1 PUSH1 0x40 SHL SUB DUP2 GT PUSH2 0x1793 JUMPI DUP11 PUSH1 0x20 PUSH2 0x3FD3 SWAP3 DUP5 DUP9 DUP12 DUP15 ADD ADD ADD ADD ADD PUSH2 0x3660 JUMP JUMPDEST PUSH1 0x80 DUP4 ADD MSTORE PUSH1 0xC0 DUP2 DUP6 DUP9 DUP12 ADD ADD ADD ADD MLOAD PUSH1 0x1 PUSH1 0x1 PUSH1 0x40 SHL SUB DUP2 GT PUSH2 0x1793 JUMPI DUP11 PUSH1 0x20 PUSH2 0x4006 SWAP3 DUP5 DUP9 DUP12 DUP15 ADD ADD ADD ADD ADD PUSH2 0x3660 JUMP JUMPDEST PUSH1 0xA0 DUP4 ADD MSTORE PUSH1 0xE0 DUP2 DUP6 DUP9 DUP12 ADD ADD ADD ADD MLOAD PUSH1 0x1 PUSH1 0x1 PUSH1 0x40 SHL SUB DUP2 GT PUSH2 0x1793 JUMPI DUP11 PUSH1 0x20 PUSH2 0x4039 SWAP3 DUP5 DUP9 DUP12 DUP15 ADD ADD ADD ADD ADD PUSH2 0x3660 JUMP JUMPDEST PUSH1 0xC0 DUP4 ADD MSTORE PUSH2 0x100 DUP2 DUP6 DUP9 DUP12 ADD ADD ADD ADD MLOAD PUSH1 0x1 PUSH1 0x1 PUSH1 0x40 SHL SUB DUP2 GT PUSH2 0x1793 JUMPI PUSH1 0x20 DUP12 SWAP2 PUSH2 0x406D SWAP4 DUP8 DUP11 DUP14 ADD ADD ADD ADD ADD PUSH2 0x3660 JUMP JUMPDEST PUSH1 0xE0 DUP3 ADD MSTORE PUSH2 0x100 DUP5 ADD MSTORE PUSH2 0x140 DUP3 DUP6 DUP9 ADD ADD ADD MLOAD SWAP3 PUSH1 0x1 PUSH1 0x1 PUSH1 0x40 SHL SUB DUP5 GT PUSH2 0x1793 JUMPI PUSH1 0xE0 DUP8 DUP7 ADD DUP5 ADD DUP6 ADD DUP11 SUB PUSH1 0x1F NOT ADD SLT PUSH2 0x1793 JUMPI PUSH1 0x40 MLOAD PUSH2 0x40B1 DUP2 PUSH2 0x2D0C JUMP JUMPDEST PUSH1 0x20 DUP6 DUP6 DUP9 DUP12 ADD ADD ADD ADD MLOAD PUSH1 0x1 PUSH1 0x1 PUSH1 0x40 SHL SUB DUP2 GT PUSH2 0x1793 JUMPI DUP11 PUSH1 0x20 PUSH2 0x40DF SWAP3 DUP9 DUP9 DUP12 DUP15 ADD ADD ADD ADD ADD PUSH2 0x3660 JUMP JUMPDEST DUP2 MSTORE PUSH1 0x40 DUP6 DUP6 DUP9 DUP12 ADD ADD ADD ADD MLOAD PUSH1 0x1 PUSH1 0x1 PUSH1 0x40 SHL SUB DUP2 GT PUSH2 0x1793 JUMPI DUP11 PUSH1 0x20 PUSH2 0x410F SWAP3 DUP9 DUP9 DUP12 DUP15 ADD ADD ADD ADD ADD PUSH2 0x3A70 JUMP JUMPDEST PUSH1 0x20 DUP3 ADD MSTORE PUSH1 0x60 DUP6 DUP6 DUP9 DUP12 ADD ADD ADD ADD MLOAD PUSH1 0x1 PUSH1 0x1 PUSH1 0x40 SHL SUB DUP2 GT PUSH2 0x1793 JUMPI DUP11 PUSH1 0x20 PUSH2 0x4142 SWAP3 DUP9 DUP9 DUP12 DUP15 ADD ADD ADD ADD ADD PUSH2 0x3660 JUMP JUMPDEST PUSH1 0x40 DUP3 ADD MSTORE PUSH1 0x80 DUP6 DUP6 DUP9 DUP12 ADD ADD ADD ADD MLOAD PUSH1 0x1 PUSH1 0x1 PUSH1 0x40 SHL SUB DUP2 GT PUSH2 0x1793 JUMPI DUP11 PUSH1 0x20 PUSH2 0x4175 SWAP3 DUP9 DUP9 DUP12 DUP15 ADD ADD ADD ADD ADD PUSH2 0x3660 JUMP JUMPDEST PUSH1 0x60 DUP3 ADD MSTORE DUP8 DUP7 ADD DUP5 ADD DUP6 ADD PUSH1 0xA0 DUP2 ADD MLOAD PUSH1 0x80 DUP4 ADD MSTORE PUSH1 0xC0 ADD MLOAD PUSH1 0x1 PUSH1 0x1 PUSH1 0x40 SHL SUB DUP2 GT PUSH2 0x1793 JUMPI DUP11 PUSH1 0x20 PUSH2 0x41B2 SWAP3 DUP9 DUP9 DUP12 DUP15 ADD ADD ADD ADD ADD PUSH2 0x3660 JUMP JUMPDEST PUSH1 0xA0 DUP3 ADD MSTORE PUSH1 0xE0 DUP6 DUP6 DUP9 DUP12 ADD ADD ADD ADD MLOAD PUSH1 0x1 PUSH1 0x1 PUSH1 0x40 SHL SUB DUP2 GT PUSH2 0x1793 JUMPI DUP11 PUSH1 0x20 PUSH2 0x41E7 SWAP3 DUP2 SWAP9 DUP3 SWAP9 DUP12 DUP15 ADD ADD ADD ADD ADD PUSH2 0x3660 JUMP JUMPDEST PUSH1 0xC0 DUP3 ADD MSTORE PUSH2 0x120 DUP3 ADD MSTORE DUP2 MSTORE ADD SWAP3 ADD SWAP2 PUSH2 0x3DC7 JUMP JUMPDEST PUSH1 0x24 PUSH1 0x0 PUSH4 0x4E487B71 PUSH1 0xE0 SHL DUP2 MSTORE PUSH1 0x41 PUSH1 0x4 MSTORE REVERT INVALID LOG2 PUSH5 0x6970667358 0x22 SLT KECCAK256 SSTORE CHAINID EXTCODEHASH 0xA7 0xD0 DUP7 COINBASE DUP7 PUSH29 0xED16DE48567DC2848D02AD7E331DC1F7654240A8FF6FDF64736F6C6343 STOP ADDMOD SGT STOP CALLER "},"methodIdentifiers":{"approve(address,uint256)":"095ea7b3","balanceOf(address)":"70a08231","buyProduct(uint256,(string,string,string,string,string,string,string,string),string,string,uint256)":"2053fba6","categoryManager()":"d86ec238","createCategory(string)":"dc298682","createProduct((string,string,uint256,uint256,string[],string[],string[],string,string,uint256,string,string,uint256))":"6f5927c0","createReview(uint256,uint256,string)":"16d81b38","createSubCategoriesBulk(uint256,string[])":"d2bc9d78","createSubCategory(uint256,string)":"7d3978db","deleteProduct(uint256)":"ed90c7b7","deleteReview(uint256,uint256)":"24d41a03","getAllCategories()":"dadd0a57","getAllProducts()":"02ee3a52","getAllRegisteredSellers()":"5ad6a580","getApproved(uint256)":"081812fc","getBuyerPurchaseHistory(address)":"b27e1697","getMyProducts()":"fdca4ca3","getProduct(uint256)":"b9db15b4","getProductsByCategory(string)":"8f38cc7b","getReviews(uint256)":"9d4a2255","getSeller(address)":"a323d29e","getSellerBalance(address)":"2148893f","getSellerProfile(address)":"4293e5ce","getSellerPurchaseHistory(address)":"3c2575d5","getSellerStatus(address)":"eb11c434","getUser(address)":"6f77926b","initialize(address,address,address,address,address,uint256)":"95b6ef0c","isApprovedForAll(address,address)":"e985e9c5","markPurchaseDelivered(uint256,address)":"11aa5b34","name()":"06fdde03","owner()":"8da5cb5b","ownerOf(uint256)":"6352211e","productManager()":"f426306f","purchaseManager()":"5cbf60cc","registerSeller(string,string,string,string,string)":"7e8555ed","registerUser(string,string,string)":"d637dcfa","renounceOwnership()":"715018a6","reviewManager()":"c9b81583","safeTransferFrom(address,address,uint256)":"42842e0e","safeTransferFrom(address,address,uint256,bytes)":"b88d4fde","servicePct()":"e01ef6e6","setApprovalForAll(address,bool)":"a22cb465","supportsInterface(bytes4)":"01ffc9a7","symbol()":"95d89b41","tokenURI(uint256)":"c87b56dd","transferFrom(address,address,uint256)":"23b872dd","transferOwnership(address)":"f2fde38b","updateProduct(uint256,(string,string,uint256,uint256,string[],string[],string[],string,string,uint256,string,string,uint256))":"b55cef38","updateSellerStatus(address,uint8)":"97b6f393","userSellerManager()":"b749293a","withdraw()":"3ccfd60b"}}}}}