{"contracts/management/ReviewManager.sol":{"ReviewManager":{"abi":[{"anonymous":false,"inputs":[{"indexed":true,"internalType":"address","name":"previousOwner","type":"address"},{"indexed":true,"internalType":"address","name":"newOwner","type":"address"}],"name":"OwnershipTransferred","type":"event"},{"anonymous":false,"inputs":[{"indexed":true,"internalType":"uint256","name":"productId","type":"uint256"},{"indexed":true,"internalType":"uint256","name":"reviewId","type":"uint256"}],"name":"ReviewCreated","type":"event"},{"anonymous":false,"inputs":[{"indexed":true,"internalType":"uint256","name":"productId","type":"uint256"},{"indexed":true,"internalType":"uint256","name":"reviewId","type":"uint256"}],"name":"ReviewDeleted","type":"event"},{"inputs":[{"internalType":"uint256","name":"productId","type":"uint256"},{"internalType":"address","name":"reviewer","type":"address"},{"internalType":"uint256","name":"rating","type":"uint256"},{"internalType":"string","name":"comment","type":"string"}],"name":"createReview","outputs":[{"internalType":"uint256","name":"","type":"uint256"}],"stateMutability":"nonpayable","type":"function"},{"inputs":[{"internalType":"uint256","name":"productId","type":"uint256"},{"internalType":"uint256","name":"reviewId","type":"uint256"},{"internalType":"address","name":"caller","type":"address"}],"name":"deleteReview","outputs":[{"internalType":"bool","name":"","type":"bool"}],"stateMutability":"nonpayable","type":"function"},{"inputs":[{"internalType":"uint256","name":"productId","type":"uint256"},{"internalType":"uint256","name":"reviewId","type":"uint256"}],"name":"getReviewById","outputs":[{"components":[{"internalType":"uint256","name":"reviewId","type":"uint256"},{"internalType":"address","name":"reviewer","type":"address"},{"internalType":"uint256","name":"rating","type":"uint256"},{"internalType":"string","name":"comment","type":"string"},{"internalType":"bool","name":"deleted","type":"bool"},{"internalType":"uint256","name":"timestamp","type":"uint256"}],"internalType":"struct ReviewManager.ReviewStruct","name":"","type":"tuple"}],"stateMutability":"view","type":"function"},{"inputs":[{"internalType":"uint256","name":"productId","type":"uint256"}],"name":"getReviews","outputs":[{"components":[{"internalType":"uint256","name":"reviewId","type":"uint256"},{"internalType":"address","name":"reviewer","type":"address"},{"internalType":"uint256","name":"rating","type":"uint256"},{"internalType":"string","name":"comment","type":"string"},{"internalType":"bool","name":"deleted","type":"bool"},{"internalType":"uint256","name":"timestamp","type":"uint256"}],"internalType":"struct ReviewManager.ReviewStruct[]","name":"","type":"tuple[]"}],"stateMutability":"view","type":"function"},{"inputs":[],"name":"getTotalReviews","outputs":[{"internalType":"uint256","name":"","type":"uint256"}],"stateMutability":"view","type":"function"},{"inputs":[],"name":"hemShop","outputs":[{"internalType":"address","name":"","type":"address"}],"stateMutability":"view","type":"function"},{"inputs":[],"name":"owner","outputs":[{"internalType":"address","name":"","type":"address"}],"stateMutability":"view","type":"function"},{"inputs":[],"name":"renounceOwnership","outputs":[],"stateMutability":"nonpayable","type":"function"},{"inputs":[{"internalType":"uint256","name":"","type":"uint256"}],"name":"reviewExists","outputs":[{"internalType":"bool","name":"","type":"bool"}],"stateMutability":"view","type":"function"},{"inputs":[{"internalType":"address","name":"_hemShop","type":"address"}],"name":"setHemShop","outputs":[],"stateMutability":"nonpayable","type":"function"},{"inputs":[{"internalType":"address","name":"newOwner","type":"address"}],"name":"transferOwnership","outputs":[],"stateMutability":"nonpayable","type":"function"}],"evm":{"bytecode":{"linkReferences":{},"object":"6080806040523461005b5760008054336001600160a01b0319821681178355916001600160a01b03909116907f8be0079c531659141344cd1fd0a4f28419497f9722a3daafe3b4186f6b6457e09080a3610f3790816100618239f35b600080fdfe608080604052600436101561001357600080fd5b60003560e01c908162d64e7614610aae575080630d9e91971461085357806325f600821461083557806360db6e77146107fb578063715018a6146107a25780638da5cb5b146107795780639d4a2255146105d8578063bb37c32d14610216578063cc640d0114610189578063f2fde38b146100c55763f7ac228e1461009757600080fd5b346100c05760003660031901126100c0576002546040516001600160a01b039091168152602090f35b600080fd5b346100c05760203660031901126100c0576100de610adb565b6100e6610bcc565b6001600160a01b0390811690811561013557600054826001600160601b0360a01b821617600055167f8be0079c531659141344cd1fd0a4f28419497f9722a3daafe3b4186f6b6457e0600080a3005b60405162461bcd60e51b815260206004820152602660248201527f4f776e61626c653a206e6577206f776e657220697320746865207a65726f206160448201526564647265737360d01b6064820152608490fd5b346100c05760203660031901126100c0576101a2610adb565b6101aa610bcc565b6001600160a01b031680156101d1576001600160601b0360a01b6002541617600255600080f35b60405162461bcd60e51b815260206004820152601760248201527f496e76616c69642048656d53686f7020616464726573730000000000000000006044820152606490fd5b346100c05760803660031901126100c0576001600160a01b0360248035918216918290036100c0576064359167ffffffffffffffff83116100c057366023840112156100c05782600401359167ffffffffffffffff83116105085760405192601f199461028b602087601f8501160186610baa565b818552368383830101116100c05781600092846020930183880137850101526102bf60018060a01b03600254163314610c24565b60443592831515806105cd575b15610589578051156105455760018054019384600155604051936102ef85610b78565b858552602085015260408401526060830152600060808301524260a08301526004356000526004602052604060002080549068010000000000000000821015610530579061034291600182018155610c68565b91909161051c57825182556001820160018060a01b036020850151166001600160601b0360a01b82541617905560408301516002830155606083015180519167ffffffffffffffff8311610508575061039e6003840154610c9a565b601f81116104bd575b5060209582918791601f84116001146104525750600092610447575b50508160011b916000199060031b1c19161760038201555b600560a06004830193608081015115159460ff199560ff87835416911617905501519101558160005260038352600160406000209182541617905560405190806004357f7f81c790a4345d8750e5542a4c0213b9a5969741805deafb58ad031fe113c4cd600080a38152f35b0151905086806103c3565b925060038501600052876000209260005b81861681106104a65750908480949392600196161061048d575b505050811b0160038201556103db565b015160001960f88460031b161c1916905586808061047d565b929389600181928786015181550195019301610463565b600384016000526020600020601f840160051c810191602085106104fe575b601f0160051c01905b8181106104f257506103a7565b600081556001016104e5565b90915081906104dc565b634e487b7160e01b60009081526041600452fd5b634e487b7160e01b60005260006004526000fd5b82634e487b7160e01b60005260416004526000fd5b60405162461bcd60e51b8152602060048201526017818401527f436f6d6d656e742063616e6e6f7420626520656d7074790000000000000000006044820152606490fd5b60405162461bcd60e51b815260206004820152601e818401527f526174696e67206d757374206265206265747765656e203120616e64203500006044820152606490fd5b5060058411156102cc565b346100c0576020806003193601126100c057600435906000805b8360005260048352604060002080548210156106435760046106168360ff93610c68565b500154161561062e575b61062990610cd4565b6105f2565b9061063b61062991610cd4565b919050610620565b83858461064f81610cf9565b9061065d6040519283610baa565b80825261066c601f1991610cf9565b018360005b828110610763575050506000805b8360005260048552604060002080548210156107055760046106a38360ff93610c68565b50015416156106bb575b6106b690610cd4565b61067f565b906106fd6106b69185600052600487526106e26106dc856040600020610c68565b50610d56565b6106ec8287610d42565b526106f78186610d42565b50610cd4565b9190506106ad565b604080518781528551818901819052600092600582901b8301810191888b01918b9085015b8287106107375785850386f35b909192938280610753600193603f198a82030186528851610af1565b960192019601959291909261072a565b61076b610d11565b828286010152018490610671565b346100c05760003660031901126100c0576000546040516001600160a01b039091168152602090f35b346100c05760003660031901126100c0576107bb610bcc565b600080546001600160a01b0319811682556001600160a01b03167f8be0079c531659141344cd1fd0a4f28419497f9722a3daafe3b4186f6b6457e08280a3005b346100c05760403660031901126100c05761083161081d602435600435610e42565b604051918291602083526020830190610af1565b0390f35b346100c05760003660031901126100c0576020600154604051908152f35b346100c05760603660031901126100c0576004356001600160a01b036024803590604480358481169291908390036100c05761089485600254163314610c24565b60009160005b8760005260206004815260406000208054831015610a9f576108bd838992610c68565b5054146108d357506108ce90610cd4565b61089a565b9350939495866000526003845260ff90816040600020541615610a64578860005260048552610906866040600020610c68565b509680826001809a01541614918215610a56575b505015610a095787600052600484526004610939866040600020610c68565b500154166109d55750506004918261095a9287600052526040600020610c68565b5001805460ff191682179055917ffe09911b3ec9652ef94a11286713bd397f2fb090f28c62303451d8040ff62c62600080a35b1561099d57602060405160018152f35b60405162461bcd60e51b815260206004820152601060248201526f14995d9a595dc81b9bdd08199bdd5b9960821b6044820152606490fd5b60649291600f6e105b1c9958591e4819195b195d1959608a1b926040519462461bcd60e51b86526004860152840152820152fd5b60405162461bcd60e51b8152600481018590526021818401527f4f6e6c79207265766965776572206f72206f776e65722063616e2064656c657481850152606560f81b6064820152608490fd5b60005416149050898061091a565b60405162461bcd60e51b8152600481018690526015818501527414995d9a595dc8191bd95cc81b9bdd08195e1a5cdd605a1b81860152606490fd5b5050505050935050505061098d565b346100c05760203660031901126100c0576020906004356000526003825260ff6040600020541615158152f35b600435906001600160a01b03821682036100c057565b919082518152602060018060a01b038185015116818301526040840151604083015260608401519360c060608401528451918260c085015260005b838110610b6457505060e093945060a0906000858486010152608081015115156080850152015160a0830152601f8019910116010190565b86810182015185820160e001528101610b2c565b60c0810190811067ffffffffffffffff821117610b9457604052565b634e487b7160e01b600052604160045260246000fd5b90601f8019910116810190811067ffffffffffffffff821117610b9457604052565b6000546001600160a01b03163303610be057565b606460405162461bcd60e51b815260206004820152602060248201527f4f776e61626c653a2063616c6c6572206973206e6f7420746865206f776e65726044820152fd5b15610c2b57565b60405162461bcd60e51b815260206004820152601560248201527413db9b1e4812195b54da1bdc0818d85b8818d85b1b605a1b6044820152606490fd5b8054821015610c84576000526006602060002091020190600090565b634e487b7160e01b600052603260045260246000fd5b90600182811c92168015610cca575b6020831014610cb457565b634e487b7160e01b600052602260045260246000fd5b91607f1691610ca9565b6000198114610ce35760010190565b634e487b7160e01b600052601160045260246000fd5b67ffffffffffffffff8111610b945760051b60200190565b60405190610d1e82610b78565b600060a0838281528260208201528260408201526060808201528260808201520152565b8051821015610c845760209160051b010190565b90604051610d6381610b78565b8092805482526001808060a01b038183015416906020918285015260028301546040850152600383019160405192600092815491610da083610c9a565b80875292828116908115610e215750600114610de8575b505050509181610dcd60059360a0950382610baa565b606085015260ff600482015416151560808501520154910152565b6000908152838120939450925b828410610e0e5750505082010181610dcd8160a0610db7565b8054868501860152928401928101610df5565b60ff191685880152505050151560051b830101905081610dcd8160a0610db7565b90610e4b610d11565b5060005b82600052600460209080825260409182600020805485101561099d57610e76858792610c68565b505414610e8e57505050610e8990610cd4565b610e4f565b91935091938060005282825260ff83610eaa8787600020610c68565b50015416610ecc57916106dc9391610ec9959360005252600020610c68565b90565b50606492519162461bcd60e51b8352820152601160248201527014995d9a595dc81a5cc819195b195d1959607a1b6044820152fdfea2646970667358221220bb6f49ca00526381b1f0184df400f52550d9385ba19e93b8d5565e98c1143cde64736f6c63430008130033","opcodes":"PUSH1 0x80 DUP1 PUSH1 0x40 MSTORE CALLVALUE PUSH2 0x5B JUMPI PUSH1 0x0 DUP1 SLOAD CALLER PUSH1 0x1 PUSH1 0x1 PUSH1 0xA0 SHL SUB NOT DUP3 AND DUP2 OR DUP4 SSTORE SWAP2 PUSH1 0x1 PUSH1 0x1 PUSH1 0xA0 SHL SUB SWAP1 SWAP2 AND SWAP1 PUSH32 0x8BE0079C531659141344CD1FD0A4F28419497F9722A3DAAFE3B4186F6B6457E0 SWAP1 DUP1 LOG3 PUSH2 0xF37 SWAP1 DUP2 PUSH2 0x61 DUP3 CODECOPY RETURN JUMPDEST PUSH1 0x0 DUP1 REVERT INVALID PUSH1 0x80 DUP1 PUSH1 0x40 MSTORE PUSH1 0x4 CALLDATASIZE LT ISZERO PUSH2 0x13 JUMPI PUSH1 0x0 DUP1 REVERT JUMPDEST PUSH1 0x0 CALLDATALOAD PUSH1 0xE0 SHR SWAP1 DUP2 PUSH3 0xD64E76 EQ PUSH2 0xAAE JUMPI POP DUP1 PUSH4 0xD9E9197 EQ PUSH2 0x853 JUMPI DUP1 PUSH4 0x25F60082 EQ PUSH2 0x835 JUMPI DUP1 PUSH4 0x60DB6E77 EQ PUSH2 0x7FB JUMPI DUP1 PUSH4 0x715018A6 EQ PUSH2 0x7A2 JUMPI DUP1 PUSH4 0x8DA5CB5B EQ PUSH2 0x779 JUMPI DUP1 PUSH4 0x9D4A2255 EQ PUSH2 0x5D8 JUMPI DUP1 PUSH4 0xBB37C32D EQ PUSH2 0x216 JUMPI DUP1 PUSH4 0xCC640D01 EQ PUSH2 0x189 JUMPI DUP1 PUSH4 0xF2FDE38B EQ PUSH2 0xC5 JUMPI PUSH4 0xF7AC228E EQ PUSH2 0x97 JUMPI PUSH1 0x0 DUP1 REVERT JUMPDEST CALLVALUE PUSH2 0xC0 JUMPI PUSH1 0x0 CALLDATASIZE PUSH1 0x3 NOT ADD SLT PUSH2 0xC0 JUMPI PUSH1 0x2 SLOAD PUSH1 0x40 MLOAD PUSH1 0x1 PUSH1 0x1 PUSH1 0xA0 SHL SUB SWAP1 SWAP2 AND DUP2 MSTORE PUSH1 0x20 SWAP1 RETURN JUMPDEST PUSH1 0x0 DUP1 REVERT JUMPDEST CALLVALUE PUSH2 0xC0 JUMPI PUSH1 0x20 CALLDATASIZE PUSH1 0x3 NOT ADD SLT PUSH2 0xC0 JUMPI PUSH2 0xDE PUSH2 0xADB JUMP JUMPDEST PUSH2 0xE6 PUSH2 0xBCC JUMP JUMPDEST PUSH1 0x1 PUSH1 0x1 PUSH1 0xA0 SHL SUB SWAP1 DUP2 AND SWAP1 DUP2 ISZERO PUSH2 0x135 JUMPI PUSH1 0x0 SLOAD DUP3 PUSH1 0x1 PUSH1 0x1 PUSH1 0x60 SHL SUB PUSH1 0xA0 SHL DUP3 AND OR PUSH1 0x0 SSTORE AND PUSH32 0x8BE0079C531659141344CD1FD0A4F28419497F9722A3DAAFE3B4186F6B6457E0 PUSH1 0x0 DUP1 LOG3 STOP JUMPDEST PUSH1 0x40 MLOAD PUSH3 0x461BCD PUSH1 0xE5 SHL DUP2 MSTORE PUSH1 0x20 PUSH1 0x4 DUP3 ADD MSTORE PUSH1 0x26 PUSH1 0x24 DUP3 ADD MSTORE PUSH32 0x4F776E61626C653A206E6577206F776E657220697320746865207A65726F2061 PUSH1 0x44 DUP3 ADD MSTORE PUSH6 0x646472657373 PUSH1 0xD0 SHL PUSH1 0x64 DUP3 ADD MSTORE PUSH1 0x84 SWAP1 REVERT JUMPDEST CALLVALUE PUSH2 0xC0 JUMPI PUSH1 0x20 CALLDATASIZE PUSH1 0x3 NOT ADD SLT PUSH2 0xC0 JUMPI PUSH2 0x1A2 PUSH2 0xADB JUMP JUMPDEST PUSH2 0x1AA PUSH2 0xBCC JUMP JUMPDEST PUSH1 0x1 PUSH1 0x1 PUSH1 0xA0 SHL SUB AND DUP1 ISZERO PUSH2 0x1D1 JUMPI PUSH1 0x1 PUSH1 0x1 PUSH1 0x60 SHL SUB PUSH1 0xA0 SHL PUSH1 0x2 SLOAD AND OR PUSH1 0x2 SSTORE PUSH1 0x0 DUP1 RETURN JUMPDEST PUSH1 0x40 MLOAD PUSH3 0x461BCD PUSH1 0xE5 SHL DUP2 MSTORE PUSH1 0x20 PUSH1 0x4 DUP3 ADD MSTORE PUSH1 0x17 PUSH1 0x24 DUP3 ADD MSTORE PUSH32 0x496E76616C69642048656D53686F702061646472657373000000000000000000 PUSH1 0x44 DUP3 ADD MSTORE PUSH1 0x64 SWAP1 REVERT JUMPDEST CALLVALUE PUSH2 0xC0 JUMPI PUSH1 0x80 CALLDATASIZE PUSH1 0x3 NOT ADD SLT PUSH2 0xC0 JUMPI PUSH1 0x1 PUSH1 0x1 PUSH1 0xA0 SHL SUB PUSH1 0x24 DUP1 CALLDATALOAD SWAP2 DUP3 AND SWAP2 DUP3 SWAP1 SUB PUSH2 0xC0 JUMPI PUSH1 0x64 CALLDATALOAD SWAP2 PUSH8 0xFFFFFFFFFFFFFFFF DUP4 GT PUSH2 0xC0 JUMPI CALLDATASIZE PUSH1 0x23 DUP5 ADD SLT ISZERO PUSH2 0xC0 JUMPI DUP3 PUSH1 0x4 ADD CALLDATALOAD SWAP2 PUSH8 0xFFFFFFFFFFFFFFFF DUP4 GT PUSH2 0x508 JUMPI PUSH1 0x40 MLOAD SWAP3 PUSH1 0x1F NOT SWAP5 PUSH2 0x28B PUSH1 0x20 DUP8 PUSH1 0x1F DUP6 ADD AND ADD DUP7 PUSH2 0xBAA JUMP JUMPDEST DUP2 DUP6 MSTORE CALLDATASIZE DUP4 DUP4 DUP4 ADD ADD GT PUSH2 0xC0 JUMPI DUP2 PUSH1 0x0 SWAP3 DUP5 PUSH1 0x20 SWAP4 ADD DUP4 DUP9 ADD CALLDATACOPY DUP6 ADD ADD MSTORE PUSH2 0x2BF PUSH1 0x1 DUP1 PUSH1 0xA0 SHL SUB PUSH1 0x2 SLOAD AND CALLER EQ PUSH2 0xC24 JUMP JUMPDEST PUSH1 0x44 CALLDATALOAD SWAP3 DUP4 ISZERO ISZERO DUP1 PUSH2 0x5CD JUMPI JUMPDEST ISZERO PUSH2 0x589 JUMPI DUP1 MLOAD ISZERO PUSH2 0x545 JUMPI PUSH1 0x1 DUP1 SLOAD ADD SWAP4 DUP5 PUSH1 0x1 SSTORE PUSH1 0x40 MLOAD SWAP4 PUSH2 0x2EF DUP6 PUSH2 0xB78 JUMP JUMPDEST DUP6 DUP6 MSTORE PUSH1 0x20 DUP6 ADD MSTORE PUSH1 0x40 DUP5 ADD MSTORE PUSH1 0x60 DUP4 ADD MSTORE PUSH1 0x0 PUSH1 0x80 DUP4 ADD MSTORE TIMESTAMP PUSH1 0xA0 DUP4 ADD MSTORE PUSH1 0x4 CALLDATALOAD PUSH1 0x0 MSTORE PUSH1 0x4 PUSH1 0x20 MSTORE PUSH1 0x40 PUSH1 0x0 KECCAK256 DUP1 SLOAD SWAP1 PUSH9 0x10000000000000000 DUP3 LT ISZERO PUSH2 0x530 JUMPI SWAP1 PUSH2 0x342 SWAP2 PUSH1 0x1 DUP3 ADD DUP2 SSTORE PUSH2 0xC68 JUMP JUMPDEST SWAP2 SWAP1 SWAP2 PUSH2 0x51C JUMPI DUP3 MLOAD DUP3 SSTORE PUSH1 0x1 DUP3 ADD PUSH1 0x1 DUP1 PUSH1 0xA0 SHL SUB PUSH1 0x20 DUP6 ADD MLOAD AND PUSH1 0x1 PUSH1 0x1 PUSH1 0x60 SHL SUB PUSH1 0xA0 SHL DUP3 SLOAD AND OR SWAP1 SSTORE PUSH1 0x40 DUP4 ADD MLOAD PUSH1 0x2 DUP4 ADD SSTORE PUSH1 0x60 DUP4 ADD MLOAD DUP1 MLOAD SWAP2 PUSH8 0xFFFFFFFFFFFFFFFF DUP4 GT PUSH2 0x508 JUMPI POP PUSH2 0x39E PUSH1 0x3 DUP5 ADD SLOAD PUSH2 0xC9A JUMP JUMPDEST PUSH1 0x1F DUP2 GT PUSH2 0x4BD JUMPI JUMPDEST POP PUSH1 0x20 SWAP6 DUP3 SWAP2 DUP8 SWAP2 PUSH1 0x1F DUP5 GT PUSH1 0x1 EQ PUSH2 0x452 JUMPI POP PUSH1 0x0 SWAP3 PUSH2 0x447 JUMPI JUMPDEST POP POP DUP2 PUSH1 0x1 SHL SWAP2 PUSH1 0x0 NOT SWAP1 PUSH1 0x3 SHL SHR NOT AND OR PUSH1 0x3 DUP3 ADD SSTORE JUMPDEST PUSH1 0x5 PUSH1 0xA0 PUSH1 0x4 DUP4 ADD SWAP4 PUSH1 0x80 DUP2 ADD MLOAD ISZERO ISZERO SWAP5 PUSH1 0xFF NOT SWAP6 PUSH1 0xFF DUP8 DUP4 SLOAD AND SWAP2 AND OR SWAP1 SSTORE ADD MLOAD SWAP2 ADD SSTORE DUP2 PUSH1 0x0 MSTORE PUSH1 0x3 DUP4 MSTORE PUSH1 0x1 PUSH1 0x40 PUSH1 0x0 KECCAK256 SWAP2 DUP3 SLOAD AND OR SWAP1 SSTORE PUSH1 0x40 MLOAD SWAP1 DUP1 PUSH1 0x4 CALLDATALOAD PUSH32 0x7F81C790A4345D8750E5542A4C0213B9A5969741805DEAFB58AD031FE113C4CD PUSH1 0x0 DUP1 LOG3 DUP2 MSTORE RETURN JUMPDEST ADD MLOAD SWAP1 POP DUP7 DUP1 PUSH2 0x3C3 JUMP JUMPDEST SWAP3 POP PUSH1 0x3 DUP6 ADD PUSH1 0x0 MSTORE DUP8 PUSH1 0x0 KECCAK256 SWAP3 PUSH1 0x0 JUMPDEST DUP2 DUP7 AND DUP2 LT PUSH2 0x4A6 JUMPI POP SWAP1 DUP5 DUP1 SWAP5 SWAP4 SWAP3 PUSH1 0x1 SWAP7 AND LT PUSH2 0x48D JUMPI JUMPDEST POP POP POP DUP2 SHL ADD PUSH1 0x3 DUP3 ADD SSTORE PUSH2 0x3DB JUMP JUMPDEST ADD MLOAD PUSH1 0x0 NOT PUSH1 0xF8 DUP5 PUSH1 0x3 SHL AND SHR NOT AND SWAP1 SSTORE DUP7 DUP1 DUP1 PUSH2 0x47D JUMP JUMPDEST SWAP3 SWAP4 DUP10 PUSH1 0x1 DUP2 SWAP3 DUP8 DUP7 ADD MLOAD DUP2 SSTORE ADD SWAP6 ADD SWAP4 ADD PUSH2 0x463 JUMP JUMPDEST PUSH1 0x3 DUP5 ADD PUSH1 0x0 MSTORE PUSH1 0x20 PUSH1 0x0 KECCAK256 PUSH1 0x1F DUP5 ADD PUSH1 0x5 SHR DUP2 ADD SWAP2 PUSH1 0x20 DUP6 LT PUSH2 0x4FE JUMPI JUMPDEST PUSH1 0x1F ADD PUSH1 0x5 SHR ADD SWAP1 JUMPDEST DUP2 DUP2 LT PUSH2 0x4F2 JUMPI POP PUSH2 0x3A7 JUMP JUMPDEST PUSH1 0x0 DUP2 SSTORE PUSH1 0x1 ADD PUSH2 0x4E5 JUMP JUMPDEST SWAP1 SWAP2 POP DUP2 SWAP1 PUSH2 0x4DC JUMP JUMPDEST PUSH4 0x4E487B71 PUSH1 0xE0 SHL PUSH1 0x0 SWAP1 DUP2 MSTORE PUSH1 0x41 PUSH1 0x4 MSTORE REVERT JUMPDEST PUSH4 0x4E487B71 PUSH1 0xE0 SHL PUSH1 0x0 MSTORE PUSH1 0x0 PUSH1 0x4 MSTORE PUSH1 0x0 REVERT JUMPDEST DUP3 PUSH4 0x4E487B71 PUSH1 0xE0 SHL PUSH1 0x0 MSTORE PUSH1 0x41 PUSH1 0x4 MSTORE PUSH1 0x0 REVERT JUMPDEST PUSH1 0x40 MLOAD PUSH3 0x461BCD PUSH1 0xE5 SHL DUP2 MSTORE PUSH1 0x20 PUSH1 0x4 DUP3 ADD MSTORE PUSH1 0x17 DUP2 DUP5 ADD MSTORE PUSH32 0x436F6D6D656E742063616E6E6F7420626520656D707479000000000000000000 PUSH1 0x44 DUP3 ADD MSTORE PUSH1 0x64 SWAP1 REVERT JUMPDEST PUSH1 0x40 MLOAD PUSH3 0x461BCD PUSH1 0xE5 SHL DUP2 MSTORE PUSH1 0x20 PUSH1 0x4 DUP3 ADD MSTORE PUSH1 0x1E DUP2 DUP5 ADD MSTORE PUSH32 0x526174696E67206D757374206265206265747765656E203120616E6420350000 PUSH1 0x44 DUP3 ADD MSTORE PUSH1 0x64 SWAP1 REVERT JUMPDEST POP PUSH1 0x5 DUP5 GT ISZERO PUSH2 0x2CC JUMP JUMPDEST CALLVALUE PUSH2 0xC0 JUMPI PUSH1 0x20 DUP1 PUSH1 0x3 NOT CALLDATASIZE ADD SLT PUSH2 0xC0 JUMPI PUSH1 0x4 CALLDATALOAD SWAP1 PUSH1 0x0 DUP1 JUMPDEST DUP4 PUSH1 0x0 MSTORE PUSH1 0x4 DUP4 MSTORE PUSH1 0x40 PUSH1 0x0 KECCAK256 DUP1 SLOAD DUP3 LT ISZERO PUSH2 0x643 JUMPI PUSH1 0x4 PUSH2 0x616 DUP4 PUSH1 0xFF SWAP4 PUSH2 0xC68 JUMP JUMPDEST POP ADD SLOAD AND ISZERO PUSH2 0x62E JUMPI JUMPDEST PUSH2 0x629 SWAP1 PUSH2 0xCD4 JUMP JUMPDEST PUSH2 0x5F2 JUMP JUMPDEST SWAP1 PUSH2 0x63B PUSH2 0x629 SWAP2 PUSH2 0xCD4 JUMP JUMPDEST SWAP2 SWAP1 POP PUSH2 0x620 JUMP JUMPDEST DUP4 DUP6 DUP5 PUSH2 0x64F DUP2 PUSH2 0xCF9 JUMP JUMPDEST SWAP1 PUSH2 0x65D PUSH1 0x40 MLOAD SWAP3 DUP4 PUSH2 0xBAA JUMP JUMPDEST DUP1 DUP3 MSTORE PUSH2 0x66C PUSH1 0x1F NOT SWAP2 PUSH2 0xCF9 JUMP JUMPDEST ADD DUP4 PUSH1 0x0 JUMPDEST DUP3 DUP2 LT PUSH2 0x763 JUMPI POP POP POP PUSH1 0x0 DUP1 JUMPDEST DUP4 PUSH1 0x0 MSTORE PUSH1 0x4 DUP6 MSTORE PUSH1 0x40 PUSH1 0x0 KECCAK256 DUP1 SLOAD DUP3 LT ISZERO PUSH2 0x705 JUMPI PUSH1 0x4 PUSH2 0x6A3 DUP4 PUSH1 0xFF SWAP4 PUSH2 0xC68 JUMP JUMPDEST POP ADD SLOAD AND ISZERO PUSH2 0x6BB JUMPI JUMPDEST PUSH2 0x6B6 SWAP1 PUSH2 0xCD4 JUMP JUMPDEST PUSH2 0x67F JUMP JUMPDEST SWAP1 PUSH2 0x6FD PUSH2 0x6B6 SWAP2 DUP6 PUSH1 0x0 MSTORE PUSH1 0x4 DUP8 MSTORE PUSH2 0x6E2 PUSH2 0x6DC DUP6 PUSH1 0x40 PUSH1 0x0 KECCAK256 PUSH2 0xC68 JUMP JUMPDEST POP PUSH2 0xD56 JUMP JUMPDEST PUSH2 0x6EC DUP3 DUP8 PUSH2 0xD42 JUMP JUMPDEST MSTORE PUSH2 0x6F7 DUP2 DUP7 PUSH2 0xD42 JUMP JUMPDEST POP PUSH2 0xCD4 JUMP JUMPDEST SWAP2 SWAP1 POP PUSH2 0x6AD JUMP JUMPDEST PUSH1 0x40 DUP1 MLOAD DUP8 DUP2 MSTORE DUP6 MLOAD DUP2 DUP10 ADD DUP2 SWAP1 MSTORE PUSH1 0x0 SWAP3 PUSH1 0x5 DUP3 SWAP1 SHL DUP4 ADD DUP2 ADD SWAP2 DUP9 DUP12 ADD SWAP2 DUP12 SWAP1 DUP6 ADD JUMPDEST DUP3 DUP8 LT PUSH2 0x737 JUMPI DUP6 DUP6 SUB DUP7 RETURN JUMPDEST SWAP1 SWAP2 SWAP3 SWAP4 DUP3 DUP1 PUSH2 0x753 PUSH1 0x1 SWAP4 PUSH1 0x3F NOT DUP11 DUP3 SUB ADD DUP7 MSTORE DUP9 MLOAD PUSH2 0xAF1 JUMP JUMPDEST SWAP7 ADD SWAP3 ADD SWAP7 ADD SWAP6 SWAP3 SWAP2 SWAP1 SWAP3 PUSH2 0x72A JUMP JUMPDEST PUSH2 0x76B PUSH2 0xD11 JUMP JUMPDEST DUP3 DUP3 DUP7 ADD ADD MSTORE ADD DUP5 SWAP1 PUSH2 0x671 JUMP JUMPDEST CALLVALUE PUSH2 0xC0 JUMPI PUSH1 0x0 CALLDATASIZE PUSH1 0x3 NOT ADD SLT PUSH2 0xC0 JUMPI PUSH1 0x0 SLOAD PUSH1 0x40 MLOAD PUSH1 0x1 PUSH1 0x1 PUSH1 0xA0 SHL SUB SWAP1 SWAP2 AND DUP2 MSTORE PUSH1 0x20 SWAP1 RETURN JUMPDEST CALLVALUE PUSH2 0xC0 JUMPI PUSH1 0x0 CALLDATASIZE PUSH1 0x3 NOT ADD SLT PUSH2 0xC0 JUMPI PUSH2 0x7BB PUSH2 0xBCC JUMP JUMPDEST PUSH1 0x0 DUP1 SLOAD PUSH1 0x1 PUSH1 0x1 PUSH1 0xA0 SHL SUB NOT DUP2 AND DUP3 SSTORE PUSH1 0x1 PUSH1 0x1 PUSH1 0xA0 SHL SUB AND PUSH32 0x8BE0079C531659141344CD1FD0A4F28419497F9722A3DAAFE3B4186F6B6457E0 DUP3 DUP1 LOG3 STOP JUMPDEST CALLVALUE PUSH2 0xC0 JUMPI PUSH1 0x40 CALLDATASIZE PUSH1 0x3 NOT ADD SLT PUSH2 0xC0 JUMPI PUSH2 0x831 PUSH2 0x81D PUSH1 0x24 CALLDATALOAD PUSH1 0x4 CALLDATALOAD PUSH2 0xE42 JUMP JUMPDEST PUSH1 0x40 MLOAD SWAP2 DUP3 SWAP2 PUSH1 0x20 DUP4 MSTORE PUSH1 0x20 DUP4 ADD SWAP1 PUSH2 0xAF1 JUMP JUMPDEST SUB SWAP1 RETURN JUMPDEST CALLVALUE PUSH2 0xC0 JUMPI PUSH1 0x0 CALLDATASIZE PUSH1 0x3 NOT ADD SLT PUSH2 0xC0 JUMPI PUSH1 0x20 PUSH1 0x1 SLOAD PUSH1 0x40 MLOAD SWAP1 DUP2 MSTORE RETURN JUMPDEST CALLVALUE PUSH2 0xC0 JUMPI PUSH1 0x60 CALLDATASIZE PUSH1 0x3 NOT ADD SLT PUSH2 0xC0 JUMPI PUSH1 0x4 CALLDATALOAD PUSH1 0x1 PUSH1 0x1 PUSH1 0xA0 SHL SUB PUSH1 0x24 DUP1 CALLDATALOAD SWAP1 PUSH1 0x44 DUP1 CALLDATALOAD DUP5 DUP2 AND SWAP3 SWAP2 SWAP1 DUP4 SWAP1 SUB PUSH2 0xC0 JUMPI PUSH2 0x894 DUP6 PUSH1 0x2 SLOAD AND CALLER EQ PUSH2 0xC24 JUMP JUMPDEST PUSH1 0x0 SWAP2 PUSH1 0x0 JUMPDEST DUP8 PUSH1 0x0 MSTORE PUSH1 0x20 PUSH1 0x4 DUP2 MSTORE PUSH1 0x40 PUSH1 0x0 KECCAK256 DUP1 SLOAD DUP4 LT ISZERO PUSH2 0xA9F JUMPI PUSH2 0x8BD DUP4 DUP10 SWAP3 PUSH2 0xC68 JUMP JUMPDEST POP SLOAD EQ PUSH2 0x8D3 JUMPI POP PUSH2 0x8CE SWAP1 PUSH2 0xCD4 JUMP JUMPDEST PUSH2 0x89A JUMP JUMPDEST SWAP4 POP SWAP4 SWAP5 SWAP6 DUP7 PUSH1 0x0 MSTORE PUSH1 0x3 DUP5 MSTORE PUSH1 0xFF SWAP1 DUP2 PUSH1 0x40 PUSH1 0x0 KECCAK256 SLOAD AND ISZERO PUSH2 0xA64 JUMPI DUP9 PUSH1 0x0 MSTORE PUSH1 0x4 DUP6 MSTORE PUSH2 0x906 DUP7 PUSH1 0x40 PUSH1 0x0 KECCAK256 PUSH2 0xC68 JUMP JUMPDEST POP SWAP7 DUP1 DUP3 PUSH1 0x1 DUP1 SWAP11 ADD SLOAD AND EQ SWAP2 DUP3 ISZERO PUSH2 0xA56 JUMPI JUMPDEST POP POP ISZERO PUSH2 0xA09 JUMPI DUP8 PUSH1 0x0 MSTORE PUSH1 0x4 DUP5 MSTORE PUSH1 0x4 PUSH2 0x939 DUP7 PUSH1 0x40 PUSH1 0x0 KECCAK256 PUSH2 0xC68 JUMP JUMPDEST POP ADD SLOAD AND PUSH2 0x9D5 JUMPI POP POP PUSH1 0x4 SWAP2 DUP3 PUSH2 0x95A SWAP3 DUP8 PUSH1 0x0 MSTORE MSTORE PUSH1 0x40 PUSH1 0x0 KECCAK256 PUSH2 0xC68 JUMP JUMPDEST POP ADD DUP1 SLOAD PUSH1 0xFF NOT AND DUP3 OR SWAP1 SSTORE SWAP2 PUSH32 0xFE09911B3EC9652EF94A11286713BD397F2FB090F28C62303451D8040FF62C62 PUSH1 0x0 DUP1 LOG3 JUMPDEST ISZERO PUSH2 0x99D JUMPI PUSH1 0x20 PUSH1 0x40 MLOAD PUSH1 0x1 DUP2 MSTORE RETURN JUMPDEST PUSH1 0x40 MLOAD PUSH3 0x461BCD PUSH1 0xE5 SHL DUP2 MSTORE PUSH1 0x20 PUSH1 0x4 DUP3 ADD MSTORE PUSH1 0x10 PUSH1 0x24 DUP3 ADD MSTORE PUSH16 0x14995D9A595DC81B9BDD08199BDD5B99 PUSH1 0x82 SHL PUSH1 0x44 DUP3 ADD MSTORE PUSH1 0x64 SWAP1 REVERT JUMPDEST PUSH1 0x64 SWAP3 SWAP2 PUSH1 0xF PUSH15 0x105B1C9958591E4819195B195D1959 PUSH1 0x8A SHL SWAP3 PUSH1 0x40 MLOAD SWAP5 PUSH3 0x461BCD PUSH1 0xE5 SHL DUP7 MSTORE PUSH1 0x4 DUP7 ADD MSTORE DUP5 ADD MSTORE DUP3 ADD MSTORE REVERT JUMPDEST PUSH1 0x40 MLOAD PUSH3 0x461BCD PUSH1 0xE5 SHL DUP2 MSTORE PUSH1 0x4 DUP2 ADD DUP6 SWAP1 MSTORE PUSH1 0x21 DUP2 DUP5 ADD MSTORE PUSH32 0x4F6E6C79207265766965776572206F72206F776E65722063616E2064656C6574 DUP2 DUP6 ADD MSTORE PUSH1 0x65 PUSH1 0xF8 SHL PUSH1 0x64 DUP3 ADD MSTORE PUSH1 0x84 SWAP1 REVERT JUMPDEST PUSH1 0x0 SLOAD AND EQ SWAP1 POP DUP10 DUP1 PUSH2 0x91A JUMP JUMPDEST PUSH1 0x40 MLOAD PUSH3 0x461BCD PUSH1 0xE5 SHL DUP2 MSTORE PUSH1 0x4 DUP2 ADD DUP7 SWAP1 MSTORE PUSH1 0x15 DUP2 DUP6 ADD MSTORE PUSH21 0x14995D9A595DC8191BD95CC81B9BDD08195E1A5CDD PUSH1 0x5A SHL DUP2 DUP7 ADD MSTORE PUSH1 0x64 SWAP1 REVERT JUMPDEST POP POP POP POP POP SWAP4 POP POP POP POP PUSH2 0x98D JUMP JUMPDEST CALLVALUE PUSH2 0xC0 JUMPI PUSH1 0x20 CALLDATASIZE PUSH1 0x3 NOT ADD SLT PUSH2 0xC0 JUMPI PUSH1 0x20 SWAP1 PUSH1 0x4 CALLDATALOAD PUSH1 0x0 MSTORE PUSH1 0x3 DUP3 MSTORE PUSH1 0xFF PUSH1 0x40 PUSH1 0x0 KECCAK256 SLOAD AND ISZERO ISZERO DUP2 MSTORE RETURN JUMPDEST PUSH1 0x4 CALLDATALOAD SWAP1 PUSH1 0x1 PUSH1 0x1 PUSH1 0xA0 SHL SUB DUP3 AND DUP3 SUB PUSH2 0xC0 JUMPI JUMP JUMPDEST SWAP2 SWAP1 DUP3 MLOAD DUP2 MSTORE PUSH1 0x20 PUSH1 0x1 DUP1 PUSH1 0xA0 SHL SUB DUP2 DUP6 ADD MLOAD AND DUP2 DUP4 ADD MSTORE PUSH1 0x40 DUP5 ADD MLOAD PUSH1 0x40 DUP4 ADD MSTORE PUSH1 0x60 DUP5 ADD MLOAD SWAP4 PUSH1 0xC0 PUSH1 0x60 DUP5 ADD MSTORE DUP5 MLOAD SWAP2 DUP3 PUSH1 0xC0 DUP6 ADD MSTORE PUSH1 0x0 JUMPDEST DUP4 DUP2 LT PUSH2 0xB64 JUMPI POP POP PUSH1 0xE0 SWAP4 SWAP5 POP PUSH1 0xA0 SWAP1 PUSH1 0x0 DUP6 DUP5 DUP7 ADD ADD MSTORE PUSH1 0x80 DUP2 ADD MLOAD ISZERO ISZERO PUSH1 0x80 DUP6 ADD MSTORE ADD MLOAD PUSH1 0xA0 DUP4 ADD MSTORE PUSH1 0x1F DUP1 NOT SWAP2 ADD AND ADD ADD SWAP1 JUMP JUMPDEST DUP7 DUP2 ADD DUP3 ADD MLOAD DUP6 DUP3 ADD PUSH1 0xE0 ADD MSTORE DUP2 ADD PUSH2 0xB2C JUMP JUMPDEST PUSH1 0xC0 DUP2 ADD SWAP1 DUP2 LT PUSH8 0xFFFFFFFFFFFFFFFF DUP3 GT OR PUSH2 0xB94 JUMPI PUSH1 0x40 MSTORE JUMP JUMPDEST PUSH4 0x4E487B71 PUSH1 0xE0 SHL PUSH1 0x0 MSTORE PUSH1 0x41 PUSH1 0x4 MSTORE PUSH1 0x24 PUSH1 0x0 REVERT JUMPDEST SWAP1 PUSH1 0x1F DUP1 NOT SWAP2 ADD AND DUP2 ADD SWAP1 DUP2 LT PUSH8 0xFFFFFFFFFFFFFFFF DUP3 GT OR PUSH2 0xB94 JUMPI PUSH1 0x40 MSTORE JUMP JUMPDEST PUSH1 0x0 SLOAD PUSH1 0x1 PUSH1 0x1 PUSH1 0xA0 SHL SUB AND CALLER SUB PUSH2 0xBE0 JUMPI JUMP JUMPDEST PUSH1 0x64 PUSH1 0x40 MLOAD PUSH3 0x461BCD PUSH1 0xE5 SHL DUP2 MSTORE PUSH1 0x20 PUSH1 0x4 DUP3 ADD MSTORE PUSH1 0x20 PUSH1 0x24 DUP3 ADD MSTORE PUSH32 0x4F776E61626C653A2063616C6C6572206973206E6F7420746865206F776E6572 PUSH1 0x44 DUP3 ADD MSTORE REVERT JUMPDEST ISZERO PUSH2 0xC2B JUMPI JUMP JUMPDEST PUSH1 0x40 MLOAD PUSH3 0x461BCD PUSH1 0xE5 SHL DUP2 MSTORE PUSH1 0x20 PUSH1 0x4 DUP3 ADD MSTORE PUSH1 0x15 PUSH1 0x24 DUP3 ADD MSTORE PUSH21 0x13DB9B1E4812195B54DA1BDC0818D85B8818D85B1B PUSH1 0x5A SHL PUSH1 0x44 DUP3 ADD MSTORE PUSH1 0x64 SWAP1 REVERT JUMPDEST DUP1 SLOAD DUP3 LT ISZERO PUSH2 0xC84 JUMPI PUSH1 0x0 MSTORE PUSH1 0x6 PUSH1 0x20 PUSH1 0x0 KECCAK256 SWAP2 MUL ADD SWAP1 PUSH1 0x0 SWAP1 JUMP JUMPDEST PUSH4 0x4E487B71 PUSH1 0xE0 SHL PUSH1 0x0 MSTORE PUSH1 0x32 PUSH1 0x4 MSTORE PUSH1 0x24 PUSH1 0x0 REVERT JUMPDEST SWAP1 PUSH1 0x1 DUP3 DUP2 SHR SWAP3 AND DUP1 ISZERO PUSH2 0xCCA JUMPI JUMPDEST PUSH1 0x20 DUP4 LT EQ PUSH2 0xCB4 JUMPI JUMP JUMPDEST PUSH4 0x4E487B71 PUSH1 0xE0 SHL PUSH1 0x0 MSTORE PUSH1 0x22 PUSH1 0x4 MSTORE PUSH1 0x24 PUSH1 0x0 REVERT JUMPDEST SWAP2 PUSH1 0x7F AND SWAP2 PUSH2 0xCA9 JUMP JUMPDEST PUSH1 0x0 NOT DUP2 EQ PUSH2 0xCE3 JUMPI PUSH1 0x1 ADD SWAP1 JUMP JUMPDEST PUSH4 0x4E487B71 PUSH1 0xE0 SHL PUSH1 0x0 MSTORE PUSH1 0x11 PUSH1 0x4 MSTORE PUSH1 0x24 PUSH1 0x0 REVERT JUMPDEST PUSH8 0xFFFFFFFFFFFFFFFF DUP2 GT PUSH2 0xB94 JUMPI PUSH1 0x5 SHL PUSH1 0x20 ADD SWAP1 JUMP JUMPDEST PUSH1 0x40 MLOAD SWAP1 PUSH2 0xD1E DUP3 PUSH2 0xB78 JUMP JUMPDEST PUSH1 0x0 PUSH1 0xA0 DUP4 DUP3 DUP2 MSTORE DUP3 PUSH1 0x20 DUP3 ADD MSTORE DUP3 PUSH1 0x40 DUP3 ADD MSTORE PUSH1 0x60 DUP1 DUP3 ADD MSTORE DUP3 PUSH1 0x80 DUP3 ADD MSTORE ADD MSTORE JUMP JUMPDEST DUP1 MLOAD DUP3 LT ISZERO PUSH2 0xC84 JUMPI PUSH1 0x20 SWAP2 PUSH1 0x5 SHL ADD ADD SWAP1 JUMP JUMPDEST SWAP1 PUSH1 0x40 MLOAD PUSH2 0xD63 DUP2 PUSH2 0xB78 JUMP JUMPDEST DUP1 SWAP3 DUP1 SLOAD DUP3 MSTORE PUSH1 0x1 DUP1 DUP1 PUSH1 0xA0 SHL SUB DUP2 DUP4 ADD SLOAD AND SWAP1 PUSH1 0x20 SWAP2 DUP3 DUP6 ADD MSTORE PUSH1 0x2 DUP4 ADD SLOAD PUSH1 0x40 DUP6 ADD MSTORE PUSH1 0x3 DUP4 ADD SWAP2 PUSH1 0x40 MLOAD SWAP3 PUSH1 0x0 SWAP3 DUP2 SLOAD SWAP2 PUSH2 0xDA0 DUP4 PUSH2 0xC9A JUMP JUMPDEST DUP1 DUP8 MSTORE SWAP3 DUP3 DUP2 AND SWAP1 DUP2 ISZERO PUSH2 0xE21 JUMPI POP PUSH1 0x1 EQ PUSH2 0xDE8 JUMPI JUMPDEST POP POP POP POP SWAP2 DUP2 PUSH2 0xDCD PUSH1 0x5 SWAP4 PUSH1 0xA0 SWAP6 SUB DUP3 PUSH2 0xBAA JUMP JUMPDEST PUSH1 0x60 DUP6 ADD MSTORE PUSH1 0xFF PUSH1 0x4 DUP3 ADD SLOAD AND ISZERO ISZERO PUSH1 0x80 DUP6 ADD MSTORE ADD SLOAD SWAP2 ADD MSTORE JUMP JUMPDEST PUSH1 0x0 SWAP1 DUP2 MSTORE DUP4 DUP2 KECCAK256 SWAP4 SWAP5 POP SWAP3 JUMPDEST DUP3 DUP5 LT PUSH2 0xE0E JUMPI POP POP POP DUP3 ADD ADD DUP2 PUSH2 0xDCD DUP2 PUSH1 0xA0 PUSH2 0xDB7 JUMP JUMPDEST DUP1 SLOAD DUP7 DUP6 ADD DUP7 ADD MSTORE SWAP3 DUP5 ADD SWAP3 DUP2 ADD PUSH2 0xDF5 JUMP JUMPDEST PUSH1 0xFF NOT AND DUP6 DUP9 ADD MSTORE POP POP POP ISZERO ISZERO PUSH1 0x5 SHL DUP4 ADD ADD SWAP1 POP DUP2 PUSH2 0xDCD DUP2 PUSH1 0xA0 PUSH2 0xDB7 JUMP JUMPDEST SWAP1 PUSH2 0xE4B PUSH2 0xD11 JUMP JUMPDEST POP PUSH1 0x0 JUMPDEST DUP3 PUSH1 0x0 MSTORE PUSH1 0x4 PUSH1 0x20 SWAP1 DUP1 DUP3 MSTORE PUSH1 0x40 SWAP2 DUP3 PUSH1 0x0 KECCAK256 DUP1 SLOAD DUP6 LT ISZERO PUSH2 0x99D JUMPI PUSH2 0xE76 DUP6 DUP8 SWAP3 PUSH2 0xC68 JUMP JUMPDEST POP SLOAD EQ PUSH2 0xE8E JUMPI POP POP POP PUSH2 0xE89 SWAP1 PUSH2 0xCD4 JUMP JUMPDEST PUSH2 0xE4F JUMP JUMPDEST SWAP2 SWAP4 POP SWAP2 SWAP4 DUP1 PUSH1 0x0 MSTORE DUP3 DUP3 MSTORE PUSH1 0xFF DUP4 PUSH2 0xEAA DUP8 DUP8 PUSH1 0x0 KECCAK256 PUSH2 0xC68 JUMP JUMPDEST POP ADD SLOAD AND PUSH2 0xECC JUMPI SWAP2 PUSH2 0x6DC SWAP4 SWAP2 PUSH2 0xEC9 SWAP6 SWAP4 PUSH1 0x0 MSTORE MSTORE PUSH1 0x0 KECCAK256 PUSH2 0xC68 JUMP JUMPDEST SWAP1 JUMP JUMPDEST POP PUSH1 0x64 SWAP3 MLOAD SWAP2 PUSH3 0x461BCD PUSH1 0xE5 SHL DUP4 MSTORE DUP3 ADD MSTORE PUSH1 0x11 PUSH1 0x24 DUP3 ADD MSTORE PUSH17 0x14995D9A595DC81A5CC819195B195D1959 PUSH1 0x7A SHL PUSH1 0x44 DUP3 ADD MSTORE REVERT INVALID LOG2 PUSH5 0x6970667358 0x22 SLT KECCAK256 0xBB PUSH16 0x49CA00526381B1F0184DF400F52550D9 CODESIZE JUMPDEST LOG1 SWAP15 SWAP4 0xB8 0xD5 JUMP 0x5E SWAP9 0xC1 EQ EXTCODECOPY 0xDE PUSH5 0x736F6C6343 STOP ADDMOD SGT STOP CALLER "},"methodIdentifiers":{"createReview(uint256,address,uint256,string)":"bb37c32d","deleteReview(uint256,uint256,address)":"0d9e9197","getReviewById(uint256,uint256)":"60db6e77","getReviews(uint256)":"9d4a2255","getTotalReviews()":"25f60082","hemShop()":"f7ac228e","owner()":"8da5cb5b","renounceOwnership()":"715018a6","reviewExists(uint256)":"00d64e76","setHemShop(address)":"cc640d01","transferOwnership(address)":"f2fde38b"}}}}}