{"contracts/management/PurchaseManager.sol":{"PurchaseManager":{"abi":[{"inputs":[{"internalType":"uint256","name":"_pct","type":"uint256"},{"internalType":"address","name":"_userSellerManager","type":"address"},{"internalType":"address","name":"_productManager","type":"address"}],"stateMutability":"nonpayable","type":"constructor"},{"anonymous":false,"inputs":[{"indexed":true,"internalType":"address","name":"seller","type":"address"},{"indexed":false,"internalType":"uint256","name":"newBalance","type":"uint256"}],"name":"BalanceUpdated","type":"event"},{"anonymous":false,"inputs":[{"indexed":true,"internalType":"uint256","name":"productId","type":"uint256"},{"indexed":true,"internalType":"address","name":"buyer","type":"address"},{"indexed":false,"internalType":"bool","name":"isDelivered","type":"bool"}],"name":"DeliveryStatusUpdated","type":"event"},{"anonymous":false,"inputs":[{"indexed":true,"internalType":"address","name":"previousOwner","type":"address"},{"indexed":true,"internalType":"address","name":"newOwner","type":"address"}],"name":"OwnershipTransferred","type":"event"},{"anonymous":false,"inputs":[{"indexed":true,"internalType":"uint256","name":"productId","type":"uint256"},{"indexed":true,"internalType":"address","name":"buyer","type":"address"},{"indexed":true,"internalType":"address","name":"seller","type":"address"},{"indexed":false,"internalType":"uint256","name":"totalAmount","type":"uint256"},{"indexed":false,"internalType":"uint256","name":"basePrice","type":"uint256"},{"indexed":false,"internalType":"uint256","name":"timestamp","type":"uint256"}],"name":"PurchaseRecorded","type":"event"},{"inputs":[{"internalType":"address","name":"","type":"address"},{"internalType":"uint256","name":"","type":"uint256"}],"name":"buyerPurchaseHistory","outputs":[{"internalType":"uint256","name":"productId","type":"uint256"},{"internalType":"uint256","name":"totalAmount","type":"uint256"},{"internalType":"uint256","name":"basePrice","type":"uint256"},{"internalType":"uint256","name":"timestamp","type":"uint256"},{"internalType":"uint256","name":"lastUpdated","type":"uint256"},{"internalType":"address","name":"buyer","type":"address"},{"internalType":"address","name":"seller","type":"address"},{"internalType":"bool","name":"isDelivered","type":"bool"},{"components":[{"internalType":"string","name":"fullName","type":"string"},{"internalType":"string","name":"streetAddress","type":"string"},{"internalType":"string","name":"city","type":"string"},{"internalType":"string","name":"state","type":"string"},{"internalType":"string","name":"country","type":"string"},{"internalType":"string","name":"postalCode","type":"string"},{"internalType":"string","name":"phone","type":"string"},{"internalType":"string","name":"email","type":"string"}],"internalType":"struct IHemShop.ShippingDetails","name":"shippingDetails","type":"tuple"},{"components":[{"internalType":"string","name":"name","type":"string"},{"internalType":"string[]","name":"images","type":"string[]"},{"internalType":"string","name":"selectedColor","type":"string"},{"internalType":"string","name":"selectedSize","type":"string"},{"internalType":"uint256","name":"quantity","type":"uint256"},{"internalType":"string","name":"category","type":"string"},{"internalType":"string","name":"description","type":"string"}],"internalType":"struct IHemShop.OrderDetails","name":"orderDetails","type":"tuple"}],"stateMutability":"view","type":"function"},{"inputs":[{"internalType":"address","name":"buyer","type":"address"}],"name":"getBuyerPurchaseHistory","outputs":[{"components":[{"internalType":"uint256","name":"productId","type":"uint256"},{"internalType":"uint256","name":"totalAmount","type":"uint256"},{"internalType":"uint256","name":"basePrice","type":"uint256"},{"internalType":"uint256","name":"timestamp","type":"uint256"},{"internalType":"uint256","name":"lastUpdated","type":"uint256"},{"internalType":"address","name":"buyer","type":"address"},{"internalType":"address","name":"seller","type":"address"},{"internalType":"bool","name":"isDelivered","type":"bool"},{"components":[{"internalType":"string","name":"fullName","type":"string"},{"internalType":"string","name":"streetAddress","type":"string"},{"internalType":"string","name":"city","type":"string"},{"internalType":"string","name":"state","type":"string"},{"internalType":"string","name":"country","type":"string"},{"internalType":"string","name":"postalCode","type":"string"},{"internalType":"string","name":"phone","type":"string"},{"internalType":"string","name":"email","type":"string"}],"internalType":"struct IHemShop.ShippingDetails","name":"shippingDetails","type":"tuple"},{"components":[{"internalType":"string","name":"name","type":"string"},{"internalType":"string[]","name":"images","type":"string[]"},{"internalType":"string","name":"selectedColor","type":"string"},{"internalType":"string","name":"selectedSize","type":"string"},{"internalType":"uint256","name":"quantity","type":"uint256"},{"internalType":"string","name":"category","type":"string"},{"internalType":"string","name":"description","type":"string"}],"internalType":"struct IHemShop.OrderDetails","name":"orderDetails","type":"tuple"}],"internalType":"struct IHemShop.PurchaseHistoryStruct[]","name":"","type":"tuple[]"}],"stateMutability":"view","type":"function"},{"inputs":[{"internalType":"address","name":"seller","type":"address"}],"name":"getSellerBalance","outputs":[{"internalType":"uint256","name":"","type":"uint256"}],"stateMutability":"view","type":"function"},{"inputs":[{"internalType":"address","name":"seller","type":"address"}],"name":"getSellerPurchaseHistory","outputs":[{"components":[{"internalType":"uint256","name":"productId","type":"uint256"},{"internalType":"uint256","name":"totalAmount","type":"uint256"},{"internalType":"uint256","name":"basePrice","type":"uint256"},{"internalType":"uint256","name":"timestamp","type":"uint256"},{"internalType":"uint256","name":"lastUpdated","type":"uint256"},{"internalType":"address","name":"buyer","type":"address"},{"internalType":"address","name":"seller","type":"address"},{"internalType":"bool","name":"isDelivered","type":"bool"},{"components":[{"internalType":"string","name":"fullName","type":"string"},{"internalType":"string","name":"streetAddress","type":"string"},{"internalType":"string","name":"city","type":"string"},{"internalType":"string","name":"state","type":"string"},{"internalType":"string","name":"country","type":"string"},{"internalType":"string","name":"postalCode","type":"string"},{"internalType":"string","name":"phone","type":"string"},{"internalType":"string","name":"email","type":"string"}],"internalType":"struct IHemShop.ShippingDetails","name":"shippingDetails","type":"tuple"},{"components":[{"internalType":"string","name":"name","type":"string"},{"internalType":"string[]","name":"images","type":"string[]"},{"internalType":"string","name":"selectedColor","type":"string"},{"internalType":"string","name":"selectedSize","type":"string"},{"internalType":"uint256","name":"quantity","type":"uint256"},{"internalType":"string","name":"category","type":"string"},{"internalType":"string","name":"description","type":"string"}],"internalType":"struct IHemShop.OrderDetails","name":"orderDetails","type":"tuple"}],"internalType":"struct IHemShop.PurchaseHistoryStruct[]","name":"","type":"tuple[]"}],"stateMutability":"view","type":"function"},{"inputs":[],"name":"hemShop","outputs":[{"internalType":"address","name":"","type":"address"}],"stateMutability":"view","type":"function"},{"inputs":[{"internalType":"uint256","name":"productId","type":"uint256"},{"internalType":"address","name":"buyer","type":"address"}],"name":"markPurchaseDelivered","outputs":[],"stateMutability":"nonpayable","type":"function"},{"inputs":[],"name":"owner","outputs":[{"internalType":"address","name":"","type":"address"}],"stateMutability":"view","type":"function"},{"inputs":[],"name":"productManager","outputs":[{"internalType":"contract IProductManager","name":"","type":"address"}],"stateMutability":"view","type":"function"},{"inputs":[{"internalType":"uint256","name":"productId","type":"uint256"},{"internalType":"address","name":"buyer","type":"address"},{"internalType":"address","name":"seller","type":"address"},{"internalType":"uint256","name":"totalAmount","type":"uint256"},{"internalType":"uint256","name":"basePrice","type":"uint256"},{"components":[{"internalType":"string","name":"fullName","type":"string"},{"internalType":"string","name":"streetAddress","type":"string"},{"internalType":"string","name":"city","type":"string"},{"internalType":"string","name":"state","type":"string"},{"internalType":"string","name":"country","type":"string"},{"internalType":"string","name":"postalCode","type":"string"},{"internalType":"string","name":"phone","type":"string"},{"internalType":"string","name":"email","type":"string"}],"internalType":"struct IHemShop.ShippingDetails","name":"shippingDetails","type":"tuple"},{"internalType":"string","name":"selectedColor","type":"string"},{"internalType":"string","name":"selectedSize","type":"string"},{"internalType":"uint256","name":"quantity","type":"uint256"}],"name":"recordPurchase","outputs":[],"stateMutability":"nonpayable","type":"function"},{"inputs":[],"name":"renounceOwnership","outputs":[],"stateMutability":"nonpayable","type":"function"},{"inputs":[{"internalType":"address","name":"","type":"address"}],"name":"sellerBalances","outputs":[{"internalType":"uint256","name":"","type":"uint256"}],"stateMutability":"view","type":"function"},{"inputs":[{"internalType":"address","name":"","type":"address"},{"internalType":"uint256","name":"","type":"uint256"}],"name":"sellerPurchaseHistory","outputs":[{"internalType":"uint256","name":"productId","type":"uint256"},{"internalType":"uint256","name":"totalAmount","type":"uint256"},{"internalType":"uint256","name":"basePrice","type":"uint256"},{"internalType":"uint256","name":"timestamp","type":"uint256"},{"internalType":"uint256","name":"lastUpdated","type":"uint256"},{"internalType":"address","name":"buyer","type":"address"},{"internalType":"address","name":"seller","type":"address"},{"internalType":"bool","name":"isDelivered","type":"bool"},{"components":[{"internalType":"string","name":"fullName","type":"string"},{"internalType":"string","name":"streetAddress","type":"string"},{"internalType":"string","name":"city","type":"string"},{"internalType":"string","name":"state","type":"string"},{"internalType":"string","name":"country","type":"string"},{"internalType":"string","name":"postalCode","type":"string"},{"internalType":"string","name":"phone","type":"string"},{"internalType":"string","name":"email","type":"string"}],"internalType":"struct IHemShop.ShippingDetails","name":"shippingDetails","type":"tuple"},{"components":[{"internalType":"string","name":"name","type":"string"},{"internalType":"string[]","name":"images","type":"string[]"},{"internalType":"string","name":"selectedColor","type":"string"},{"internalType":"string","name":"selectedSize","type":"string"},{"internalType":"uint256","name":"quantity","type":"uint256"},{"internalType":"string","name":"category","type":"string"},{"internalType":"string","name":"description","type":"string"}],"internalType":"struct IHemShop.OrderDetails","name":"orderDetails","type":"tuple"}],"stateMutability":"view","type":"function"},{"inputs":[],"name":"servicePct","outputs":[{"internalType":"uint256","name":"","type":"uint256"}],"stateMutability":"view","type":"function"},{"inputs":[{"internalType":"address","name":"_hemShop","type":"address"}],"name":"setHemShop","outputs":[],"stateMutability":"nonpayable","type":"function"},{"inputs":[{"internalType":"address","name":"newOwner","type":"address"}],"name":"transferOwnership","outputs":[],"stateMutability":"nonpayable","type":"function"},{"inputs":[],"name":"userSellerManager","outputs":[{"internalType":"contract IUserSellerManager","name":"","type":"address"}],"stateMutability":"view","type":"function"},{"inputs":[],"name":"withdraw","outputs":[],"stateMutability":"nonpayable","type":"function"}],"evm":{"bytecode":{"linkReferences":{},"object":"608034620000da57601f62002cb038819003918201601f19168301916001600160401b03831184841017620000df57808492606094604052833981010312620000da5780516200006060406200005860208501620000f5565b9301620000f5565b600080546001600160a01b03198082163390811784556040519691956001600160a01b03959486949192918516907f8be0079c531659141344cd1fd0a4f28419497f9722a3daafe3b4186f6b6457e09080a3600180556006551683600754161760075516906008541617600855612ba590816200010b8239f35b600080fd5b634e487b7160e01b600052604160045260246000fd5b51906001600160a01b0382168203620000da5756fe608080604052600436101561001357600080fd5b60003560e01c90816311aa5b3414610dc6575080632148893f14610a9c5780633c2575d514610cc05780633ccfd60b14610ad6578063607eb4e414610a9c578063715018a614610a43578063731bc05d146104e55780638da5cb5b146104bc5780639fa44dbf14610474578063b27e169714610370578063b749293a14610347578063cc640d01146102ba578063e01ef6e61461029c578063e585cb2c146101f5578063f2fde38b14610131578063f426306f146101085763f7ac228e146100da57600080fd5b34610103576000366003190112610103576002546040516001600160a01b039091168152602090f35b600080fd5b34610103576000366003190112610103576008546040516001600160a01b039091168152602090f35b346101035760203660031901126101035761014a6111cd565b610152611869565b6001600160a01b039081169081156101a157600054826001600160601b0360a01b821617600055167f8be0079c531659141344cd1fd0a4f28419497f9722a3daafe3b4186f6b6457e0600080a3005b60405162461bcd60e51b815260206004820152602660248201527f4f776e61626c653a206e6577206f776e657220697320746865207a65726f206160448201526564647265737360d01b6064820152608490fd5b346101035760403660031901126101035761020e6111cd565b6001600160a01b0390811660009081526005602052604090208054602435908110156101035761023d91611584565b5090610298825460018401549360028101549160038201549060048301548660058501541690600685015493610281600f61027a60078901611696565b9701611740565b966040519a8b9a60ff8860a01c169716958b611805565b0390f35b34610103576000366003190112610103576020600654604051908152f35b34610103576020366003190112610103576102d36111cd565b6102db611869565b6001600160a01b03168015610302576001600160601b0360a01b6002541617600255600080f35b60405162461bcd60e51b815260206004820152601760248201527f496e76616c69642048656d53686f7020616464726573730000000000000000006044820152606490fd5b34610103576000366003190112610103576007546040516001600160a01b039091168152602090f35b3461010357602080600319360112610103576001600160a01b0390816103946111cd565b166000526004815260406000208054906103ad82611728565b926103bb60405194856114ff565b82845260009182528082208185015b8484106103df576040518061029888826113b2565b6016836001926040516103f181611493565b85548152848601548382015260028601546040820152600386015460608201526004860154608082015260ff8b60058801541660a090818401526006880154908d821660c08501521c16151560e082015261044e60078701611696565b610100820152610460600f8701611740565b6101208201528152019201930192906103ca565b346101035760403660031901126101035761048d6111cd565b6001600160a01b0390811660009081526004602052604090208054602435908110156101035761023d91611584565b34610103576000366003190112610103576000546040516001600160a01b039091168152602090f35b346101035760031961012036820112610103576105006111b7565b90604435906001600160a01b03821682036101035760a43567ffffffffffffffff91828211610103576101009082360301126101035760405190610543826114c6565b80600401358381116101035761055f906004369184010161153d565b825260248101358381116101035761057d906004369184010161153d565b602083015260448101358381116101035761059e906004369184010161153d565b60408301526064810135838111610103576105bf906004369184010161153d565b60608301526084810135838111610103576105e0906004369184010161153d565b608083015260a481013583811161010357610601906004369184010161153d565b60a083015260c481013583811161010357610622906004369184010161153d565b60c083015260e481013590838211610103576004610643923692010161153d565b60e082015260c4358281116101035761066090369060040161153d565b9160e4359081116101035761067990369060040161153d565b6002546001600160a01b03163303610a0657600754604051633ac4710d60e21b81526001600160a01b038681166004830152909160209183916024918391165afa908115610941576000916109d7575b5060048110156109c157600203610986576008546040516303d6605960e51b815260048035908201529390600090859060249082906001600160a01b03165afa8015610941576107ff94600091610963575b506040810151926101008201519260606101208401519301519360405195610742876114e3565b865260208601526040850152606084015261010435608084015260a083015260c08201526040519161077383611493565b60043583526064356020840152608435604084015242606084015242608084015260018060a01b03861660a084015260018060a01b03851660c0840152600060e084015261010083015261012082015260018060a01b03841660005260046020526107e2816040600020611b7a565b6001600160a01b0383166000908152600560205260409020611b7a565b6001600160a01b0381166000908152600360205260409020805460643581019190821061094d575560085460405163fd23141160e01b8152600480359082015261010435602482015290602090829060449082906000906001600160a01b03165af190811561094157600091610907575b50156108c957604051906064358252608435602083015242604083015260018060a01b03169160018060a01b0316907f45280c7ac9cec77edd454e39e1641a3e22619146cf074a4239beee86a7c07edc606060043592a4005b60405162461bcd60e51b81526020600482015260166024820152754661696c656420746f207570646174652073746f636b60501b6044820152606490fd5b90506020813d602011610939575b81610922602093836114ff565b81010312610103576109339061199c565b83610870565b3d9150610915565b6040513d6000823e3d90fd5b634e487b7160e01b600052601160045260246000fd5b61098091503d806000833e61097881836114ff565b8101906119a9565b8761071b565b60405162461bcd60e51b815260206004820152601360248201527214d95b1b195c881b9bdd081d995c9a599a5959606a1b6044820152606490fd5b634e487b7160e01b600052602160045260246000fd5b6109f9915060203d6020116109ff575b6109f181836114ff565b8101906118c1565b866106c9565b503d6109e7565b60405162461bcd60e51b815260206004820152601560248201527413db9b1e4812195b54da1bdc0818d85b8818d85b1b605a1b6044820152606490fd5b3461010357600036600319011261010357610a5c611869565b600080546001600160a01b0319811682556001600160a01b03167f8be0079c531659141344cd1fd0a4f28419497f9722a3daafe3b4186f6b6457e08280a3005b34610103576020366003190112610103576001600160a01b03610abd6111cd565b1660005260036020526020604060002054604051908152f35b3461010357600036600319011261010357600260015414610c7b57600260015560075460405163c64b8a8f60e01b81523360048201526001600160a01b03916020919082908290602490829087165afa90811561094157600091610c46575b5015610c02573360005260038152604060002054908115610bc557600654808302908382040361094d576064900480830392831161094d57610bbf93610bb9923360005260038152600060408120557f8ad64a0ac7700dd8425ab0499f107cb6e2cd1581d803c5b8c1c79dcb8190b1af60405191600083523392a260005416612aef565b33612aef565b60018055005b6064906040519062461bcd60e51b8252600482015260166024820152754e6f2062616c616e636520746f20776974686472617760501b6044820152fd5b6064906040519062461bcd60e51b82526004820152601b60248201527f4d757374206265206120726567697374657265642073656c6c657200000000006044820152fd5b90508181813d8311610c74575b610c5d81836114ff565b8101031261010357610c6e9061199c565b83610b35565b503d610c53565b60405162461bcd60e51b815260206004820152601f60248201527f5265656e7472616e637947756172643a207265656e7472616e742063616c6c006044820152606490fd5b3461010357602080600319360112610103576001600160a01b039081610ce46111cd565b166000526005908181526040600020805491610cff83611728565b93610d0d60405195866114ff565b8385526000928352818320908286015b858510610d32576040518061029889826113b2565b601684600192604051610d4481611493565b86548152848701548382015260028701546040820152600387015460608201526004870154608082015260ff8c80888a01541660a0908185015260068a015491821660c08501521c16151560e0820152610da060078801611696565b610100820152610db2600f8801611740565b610120820152815201930194019391610d1d565b3461010357604036600319011261010357600435610de26111b7565b9060018060a01b039083808360075416633ac4710d60e21b8252336004830152602092839160249889915afa9081156109415760009161119a575b506004811015611185576002148015611178575b15611127579282169360009390845b86600052600483526040600020805482101561111c57610e61828692611584565b505414610e7657610e7190612ae0565b610e40565b9091929394508560005260048352610e92816040600020611584565b509060ff60068093015460a01c166110d8578660005260048452610eba816040600020611584565b508201548616331480156110cb575b1561107457610ee49087600052600485526040600020611584565b5001805460ff60a01b1916600160a01b17905560015b1561103c5760008460085416604051928380926303d6605960e51b82528760048301525afa9081156109415784918391600091611021575b500151169260005b84600052600580845260406000208054831015610ff457610f5c838792611584565b50541480610fd1575b610f785750610f7390612ae0565b610f3a565b6006925090610fb3917ff9dc8543b583e01f592678422369b2777e3649761f5808ae432cb1c24ca9438c959660005284526040600020611584565b5001805460ff60a01b1916600160a01b1790555b60405160018152a3005b5085600052808452868382610fea856040600020611584565b5001541614610f65565b505050507ff9dc8543b583e01f592678422369b2777e3649761f5808ae432cb1c24ca9438c919250610fc7565b61103691503d806000833e61097881836114ff565b87610f32565b9060126064926040519262461bcd60e51b8452600484015282015271141d5c98da185cd9481b9bdd08199bdd5b9960721b6044820152fd5b60405162461bcd60e51b815260048101859052602a818501527f4f6e6c792073656c6c6572206f72206f776e65722063616e206d61726b2061736044820152690819195b1a5d995c995960b21b6064820152608490fd5b5033866000541614610ec9565b60405162461bcd60e51b815260048101859052601b818501527f416c7265616479206d61726b65642061732064656c69766572656400000000006044820152606490fd5b505090919293610efa565b6084906025866040519262461bcd60e51b845260048401528201527f4f6e6c792076657269666965642073656c6c6572206f72206f776e657220616c6044820152641b1bddd95960da1b6064820152fd5b5082600054163314610e31565b85634e487b7160e01b60005260216004526000fd5b6111b19150823d84116109ff576109f181836114ff565b86610e1d565b602435906001600160a01b038216820361010357565b600435906001600160a01b038216820361010357565b60005b8381106111f65750506000910152565b81810151838201526020016111e6565b9060209161121f815180928185528580860191016111e3565b601f01601f1916010190565b6112d39160e06112c26112b061129e61128c61127a6112686112568951610100808b528a0190611206565b60208a015189820360208b0152611206565b604089015188820360408a0152611206565b60608801518782036060890152611206565b60808701518682036080880152611206565b60a086015185820360a0870152611206565b60c085015184820360c0860152611206565b9201519060e0818403910152611206565b90565b9190916112ec815160e0855260e0850190611206565b602082810151858303828701528051808452600581901b840183019693929182019160008185015b8382106113825750505050505060c06113716113556113436112d3969760408701518682036040880152611206565b60608601518582036060870152611206565b6080850151608085015260a085015184820360a0860152611206565b9201519060c0818403910152611206565b90919293949883806113a16001938d601f199082030186528951611206565b9b9701959493919091019101611314565b602080820190808352835180925260409283810182858560051b8401019601946000925b8584106113e7575050505050505090565b909192939495968580611482600193603f198682030188528b5180518252838101518483015287810151888301526060808201519083015260808082015190830152858060a01b0360a08181840151169084015260c09081830151169083015260e08082015115159083015261146e6101008083015190610140809186015284019061122b565b9161012080920151918184039101526112d6565b9901940194019295949391906113d6565b610140810190811067ffffffffffffffff8211176114b057604052565b634e487b7160e01b600052604160045260246000fd5b610100810190811067ffffffffffffffff8211176114b057604052565b60e0810190811067ffffffffffffffff8211176114b057604052565b90601f8019910116810190811067ffffffffffffffff8211176114b057604052565b67ffffffffffffffff81116114b057601f01601f191660200190565b81601f820112156101035780359061155482611521565b9261156260405194856114ff565b8284526020838301011161010357816000926020809301838601378301015290565b80548210156115a0576000526016602060002091020190600090565b634e487b7160e01b600052603260045260246000fd5b90600182811c921680156115e6575b60208310146115d057565b634e487b7160e01b600052602260045260246000fd5b91607f16916115c5565b9060405191826000825492611604846115b6565b9081845260019485811690816000146116735750600114611630575b505061162e925003836114ff565b565b9093915060005260209081600020936000915b81831061165b57505061162e93508201013880611620565b85548884018501529485019487945091830191611643565b91505061162e94506020925060ff191682840152151560051b8201013880611620565b906040516116a3816114c6565b60e0611723600783956116b5816115f0565b85526116c3600182016115f0565b60208601526116d4600282016115f0565b60408601526116e5600382016115f0565b60608601526116f6600482016115f0565b6080860152611707600582016115f0565b60a0860152611718600682016115f0565b60c0860152016115f0565b910152565b67ffffffffffffffff81116114b05760051b60200190565b9060405161174d816114e3565b8092611758816115f0565b8252600180820180549161176b83611728565b9261177960405194856114ff565b80845260209283850190600052836000206000915b8383106117ea57505050505060c092611723926006928601526117b3600282016115f0565b60408601526117c4600382016115f0565b6060860152600481015460808601526117df600582016115f0565b60a0860152016115f0565b848681926117f7856115f0565b81520192019201919061178e565b98959390926112d39a98959261185a98948b5260208b015260408a01526060890152608088015260018060a01b0380921660a08801521660c0860152151560e08501526101408061010086015284019061122b565b916101208184039101526112d6565b6000546001600160a01b0316330361187d57565b606460405162461bcd60e51b815260206004820152602060248201527f4f776e61626c653a2063616c6c6572206973206e6f7420746865206f776e65726044820152fd5b90816020910312610103575160048110156101035790565b81601f820112156101035780516118ef81611521565b926118fd60405194856114ff565b81845260208284010111610103576112d391602080850191016111e3565b9080601f830112156101035781519061193382611728565b9261194160405194856114ff565b828452602092838086019160051b8301019280841161010357848301915b84831061196f5750505050505090565b825167ffffffffffffffff8111610103578691611991848480948901016118d9565b81520192019161195f565b5190811515820361010357565b9060208282031261010357815167ffffffffffffffff9283821161010357019061022092838383031261010357604051938401848110828211176114b0576040528251845260208301516001600160a01b038116810361010357602085015260408301518181116101035782611a209185016118d9565b604085015260608301518181116101035782611a3d9185016118d9565b60608501526080830151608085015260a083015160a085015260c08301518181116101035782611a6e91850161191b565b60c085015260e08301518181116101035782611a8b91850161191b565b60e0850152610100808401518281116101035783611aaa91860161191b565b90850152610120808401518281116101035783611ac89186016118d9565b90850152610140808401518281116101035783611ae69186016118d9565b908501526101608084015190850152610180808401518281116101035783611b0f9186016118d9565b908501526101a0918284015191821161010357611b2d9184016118d9565b908301526101c080820151908301526101e0611b4a81830161199c565b90830152611b5c61020080920161199c565b9082015290565b818110611b6e575050565b60008155600101611b63565b91908254926801000000000000000093848110156114b057611ba191600182018155611584565b612aca5781518155602082015160018201556040820151600282015560608201516003820155608082015160048201556005810160018060a01b03908160a0850151166001600160601b0360a01b825416179055600682019060c08401511681549060ff60a01b60e0860151151560a01b16916affffffffffffffffffffff60a81b16171790556007810193610100830151805195865167ffffffffffffffff978882116114b0578190611c5584546115b6565b601f8111612a98575b50602090601f8311600114612a2c57600092612a21575b50508160011b916000199060031b1c19161790555b6008830160208201518051908882116114b0578190611ca984546115b6565b601f81116129ef575b50602090601f831160011461298357600092612978575b50508160011b916000199060031b1c19161790555b6009830160408201518051908882116114b0578190611cfd84546115b6565b601f8111612946575b50602090601f83116001146128da576000926128cf575b50508160011b916000199060031b1c19161790555b600a830160608201518051908882116114b0578190611d5184546115b6565b601f811161289d575b50602090601f831160011461283157600092612826575b50508160011b916000199060031b1c19161790555b600b830160808201518051908882116114b0578190611da584546115b6565b601f81116127f4575b50602090601f83116001146127885760009261277d575b50508160011b916000199060031b1c19161790555b600c830160a08201518051908882116114b0578190611df984546115b6565b601f811161274b575b50602090601f83116001146126df576000926126d4575b50508160011b916000199060031b1c19161790555b600d830160c08201518051908882116114b0578190611e4d84546115b6565b601f81116126a2575b50602090601f83116001146126365760009261262b575b50508160011b916000199060031b1c19161790555b60e001518051600e8401918782116114b0578190611ea084546115b6565b601f81116125f9575b50602090601f831160011461259357600092612588575b50508160011b916000199060031b1c19161790555b610120600f83019301519283518051908782116114b0578190611ef884546115b6565b601f8111612556575b50602090601f83116001146124f0576000926124e5575b50508160011b916000199060031b1c19161790555b60108201602084015180519283116114b0578154838355808410612471575b506020019060005260206000206000915b83831061236357505050506011810160408301518051908682116114b0578190611f8784546115b6565b601f8111612331575b50602090601f83116001146122cb576000926122c0575b50508160011b916000199060031b1c19161790555b6012810160608301518051908682116114b0578190611fdb84546115b6565b601f811161228e575b50602090601f83116001146122285760009261221d575b50508160011b916000199060031b1c19161790555b608082015160138201556014810160a08301518051908682116114b05761203783546115b6565b601f81116121eb575b50602090601f831160011461217d5791806015949260c09694600092612172575b50508160011b916000199060031b1c19161790555b019101519283519081116114b05761208e82546115b6565b601f8111612135575b506020601f82116001146120d257819293946000926120c7575b50508160011b916000199060031b1c1916179055565b0151905038806120b1565b601f198216908360005260206000209160005b81811061211d57509583600195969710612104575b505050811b019055565b015160001960f88460031b161c191690553880806120fa565b9192602060018192868b0151815501940192016120e5565b61216290836000526020600020601f840160051c81019160208510612168575b601f0160051c0190611b63565b38612097565b9091508190612155565b015190503880612061565b90601f198316918460005260206000209260005b8181106121d3575092600192859260c0989660159896106121ba575b505050811b019055612076565b015160001960f88460031b161c191690553880806121ad565b92936020600181928786015181550195019301612191565b61221790846000526020600020601f850160051c8101916020861061216857601f0160051c0190611b63565b38612040565b015190503880611ffb565b6000858152602081209350601f198516905b818110612276575090846001959493921061225d575b505050811b019055612010565b015160001960f88460031b161c19169055388080612250565b9293602060018192878601518155019501930161223a565b6122ba90856000526020600020601f850160051c8101916020861061216857601f0160051c0190611b63565b38611fe4565b015190503880611fa7565b6000858152602081209350601f198516905b8181106123195750908460019594939210612300575b505050811b019055611fbc565b015160001960f88460031b161c191690553880806122f3565b929360206001819287860151815501950193016122dd565b61235d90856000526020600020601f850160051c8101916020861061216857601f0160051c0190611b63565b38611f90565b80518051908982116114b05761237984546115b6565b601f811161243f575b50602090601f83116001146123cf5792826001949360209386956000926123c4575b5050600019600383901b1c191690841b1785555b01920192019190611f5d565b0151905038806123a4565b908460005260206000209160005b601f1985168110612427575083602093600196938796938794601f1981161061240e575b505050811b0185556123b8565b015160001960f88460031b161c19169055388080612401565b919260206001819286850151815501940192016123dd565b61246b90856000526020600020601f850160051c8101916020861061216857601f0160051c0190611b63565b38612382565b8260005283602060002091820191015b81811061248e5750611f4c565b8061249b600192546115b6565b806124a8575b5001612481565b601f811183146124be5750600081555b386124a1565b6000908282526124dc601f60208420920160051c8201858301611b63565b818355556124b8565b015190503880611f18565b6000858152602081209350601f198516905b81811061253e5750908460019594939210612525575b505050811b019055611f2d565b015160001960f88460031b161c19169055388080612518565b92936020600181928786015181550195019301612502565b61258290856000526020600020601f850160051c8101916020861061216857601f0160051c0190611b63565b38611f01565b015190503880611ec0565b6000858152602081209350601f198516905b8181106125e157509084600195949392106125c8575b505050811b019055611ed5565b015160001960f88460031b161c191690553880806125bb565b929360206001819287860151815501950193016125a5565b61262590856000526020600020601f850160051c8101916020861061216857601f0160051c0190611b63565b38611ea9565b015190503880611e6d565b9250836000526020600020906000935b601f1984168510612687576001945083601f1981161061266e575b505050811b019055611e82565b015160001960f88460031b161c19169055388080612661565b81810151835560209485019460019093019290910190612646565b6126ce90856000526020600020601f850160051c8101916020861061216857601f0160051c0190611b63565b38611e56565b015190503880611e19565b9250836000526020600020906000935b601f1984168510612730576001945083601f19811610612717575b505050811b019055611e2e565b015160001960f88460031b161c1916905538808061270a565b818101518355602094850194600190930192909101906126ef565b61277790856000526020600020601f850160051c8101916020861061216857601f0160051c0190611b63565b38611e02565b015190503880611dc5565b9250836000526020600020906000935b601f19841685106127d9576001945083601f198116106127c0575b505050811b019055611dda565b015160001960f88460031b161c191690553880806127b3565b81810151835560209485019460019093019290910190612798565b61282090856000526020600020601f850160051c8101916020861061216857601f0160051c0190611b63565b38611dae565b015190503880611d71565b9250836000526020600020906000935b601f1984168510612882576001945083601f19811610612869575b505050811b019055611d86565b015160001960f88460031b161c1916905538808061285c565b81810151835560209485019460019093019290910190612841565b6128c990856000526020600020601f850160051c8101916020861061216857601f0160051c0190611b63565b38611d5a565b015190503880611d1d565b9250836000526020600020906000935b601f198416851061292b576001945083601f19811610612912575b505050811b019055611d32565b015160001960f88460031b161c19169055388080612905565b818101518355602094850194600190930192909101906128ea565b61297290856000526020600020601f850160051c8101916020861061216857601f0160051c0190611b63565b38611d06565b015190503880611cc9565b9250836000526020600020906000935b601f19841685106129d4576001945083601f198116106129bb575b505050811b019055611cde565b015160001960f88460031b161c191690553880806129ae565b81810151835560209485019460019093019290910190612993565b612a1b90856000526020600020601f850160051c8101916020861061216857601f0160051c0190611b63565b38611cb2565b015190503880611c75565b9250836000526020600020906000935b601f1984168510612a7d576001945083601f19811610612a64575b505050811b019055611c8a565b015160001960f88460031b161c19169055388080612a57565b81810151835560209485019460019093019290910190612a3c565b612ac490856000526020600020601f850160051c8101916020861061216857601f0160051c0190611b63565b38611c5e565b634e487b7160e01b600052600060045260246000fd5b600019811461094d5760010190565b6000918291829182916001600160a01b03165af13d15612b6a573d612b1381611521565b90612b2160405192836114ff565b8152600060203d92013e5b15612b3357565b60405162461bcd60e51b815260206004820152600f60248201526e151c985b9cd9995c8819985a5b1959608a1b6044820152606490fd5b612b2c56fea2646970667358221220c72c4c671d32cdd0e9c2ce0da8d8a5078c7c8c311b851a4f0aa96595072dcff364736f6c63430008130033","opcodes":"PUSH1 0x80 CALLVALUE PUSH3 0xDA JUMPI PUSH1 0x1F PUSH3 0x2CB0 CODESIZE DUP2 SWAP1 SUB SWAP2 DUP3 ADD PUSH1 0x1F NOT AND DUP4 ADD SWAP2 PUSH1 0x1 PUSH1 0x1 PUSH1 0x40 SHL SUB DUP4 GT DUP5 DUP5 LT OR PUSH3 0xDF JUMPI DUP1 DUP5 SWAP3 PUSH1 0x60 SWAP5 PUSH1 0x40 MSTORE DUP4 CODECOPY DUP2 ADD SUB SLT PUSH3 0xDA JUMPI DUP1 MLOAD PUSH3 0x60 PUSH1 0x40 PUSH3 0x58 PUSH1 0x20 DUP6 ADD PUSH3 0xF5 JUMP JUMPDEST SWAP4 ADD PUSH3 0xF5 JUMP JUMPDEST PUSH1 0x0 DUP1 SLOAD PUSH1 0x1 PUSH1 0x1 PUSH1 0xA0 SHL SUB NOT DUP1 DUP3 AND CALLER SWAP1 DUP2 OR DUP5 SSTORE PUSH1 0x40 MLOAD SWAP7 SWAP2 SWAP6 PUSH1 0x1 PUSH1 0x1 PUSH1 0xA0 SHL SUB SWAP6 SWAP5 DUP7 SWAP5 SWAP2 SWAP3 SWAP2 DUP6 AND SWAP1 PUSH32 0x8BE0079C531659141344CD1FD0A4F28419497F9722A3DAAFE3B4186F6B6457E0 SWAP1 DUP1 LOG3 PUSH1 0x1 DUP1 SSTORE PUSH1 0x6 SSTORE AND DUP4 PUSH1 0x7 SLOAD AND OR PUSH1 0x7 SSTORE AND SWAP1 PUSH1 0x8 SLOAD AND OR PUSH1 0x8 SSTORE PUSH2 0x2BA5 SWAP1 DUP2 PUSH3 0x10B DUP3 CODECOPY RETURN JUMPDEST PUSH1 0x0 DUP1 REVERT JUMPDEST PUSH4 0x4E487B71 PUSH1 0xE0 SHL PUSH1 0x0 MSTORE PUSH1 0x41 PUSH1 0x4 MSTORE PUSH1 0x24 PUSH1 0x0 REVERT JUMPDEST MLOAD SWAP1 PUSH1 0x1 PUSH1 0x1 PUSH1 0xA0 SHL SUB DUP3 AND DUP3 SUB PUSH3 0xDA JUMPI JUMP INVALID PUSH1 0x80 DUP1 PUSH1 0x40 MSTORE PUSH1 0x4 CALLDATASIZE LT ISZERO PUSH2 0x13 JUMPI PUSH1 0x0 DUP1 REVERT JUMPDEST PUSH1 0x0 CALLDATALOAD PUSH1 0xE0 SHR SWAP1 DUP2 PUSH4 0x11AA5B34 EQ PUSH2 0xDC6 JUMPI POP DUP1 PUSH4 0x2148893F EQ PUSH2 0xA9C JUMPI DUP1 PUSH4 0x3C2575D5 EQ PUSH2 0xCC0 JUMPI DUP1 PUSH4 0x3CCFD60B EQ PUSH2 0xAD6 JUMPI DUP1 PUSH4 0x607EB4E4 EQ PUSH2 0xA9C JUMPI DUP1 PUSH4 0x715018A6 EQ PUSH2 0xA43 JUMPI DUP1 PUSH4 0x731BC05D EQ PUSH2 0x4E5 JUMPI DUP1 PUSH4 0x8DA5CB5B EQ PUSH2 0x4BC JUMPI DUP1 PUSH4 0x9FA44DBF EQ PUSH2 0x474 JUMPI DUP1 PUSH4 0xB27E1697 EQ PUSH2 0x370 JUMPI DUP1 PUSH4 0xB749293A EQ PUSH2 0x347 JUMPI DUP1 PUSH4 0xCC640D01 EQ PUSH2 0x2BA JUMPI DUP1 PUSH4 0xE01EF6E6 EQ PUSH2 0x29C JUMPI DUP1 PUSH4 0xE585CB2C EQ PUSH2 0x1F5 JUMPI DUP1 PUSH4 0xF2FDE38B EQ PUSH2 0x131 JUMPI DUP1 PUSH4 0xF426306F EQ PUSH2 0x108 JUMPI PUSH4 0xF7AC228E EQ PUSH2 0xDA JUMPI PUSH1 0x0 DUP1 REVERT JUMPDEST CALLVALUE PUSH2 0x103 JUMPI PUSH1 0x0 CALLDATASIZE PUSH1 0x3 NOT ADD SLT PUSH2 0x103 JUMPI PUSH1 0x2 SLOAD PUSH1 0x40 MLOAD PUSH1 0x1 PUSH1 0x1 PUSH1 0xA0 SHL SUB SWAP1 SWAP2 AND DUP2 MSTORE PUSH1 0x20 SWAP1 RETURN JUMPDEST PUSH1 0x0 DUP1 REVERT JUMPDEST CALLVALUE PUSH2 0x103 JUMPI PUSH1 0x0 CALLDATASIZE PUSH1 0x3 NOT ADD SLT PUSH2 0x103 JUMPI PUSH1 0x8 SLOAD PUSH1 0x40 MLOAD PUSH1 0x1 PUSH1 0x1 PUSH1 0xA0 SHL SUB SWAP1 SWAP2 AND DUP2 MSTORE PUSH1 0x20 SWAP1 RETURN JUMPDEST CALLVALUE PUSH2 0x103 JUMPI PUSH1 0x20 CALLDATASIZE PUSH1 0x3 NOT ADD SLT PUSH2 0x103 JUMPI PUSH2 0x14A PUSH2 0x11CD JUMP JUMPDEST PUSH2 0x152 PUSH2 0x1869 JUMP JUMPDEST PUSH1 0x1 PUSH1 0x1 PUSH1 0xA0 SHL SUB SWAP1 DUP2 AND SWAP1 DUP2 ISZERO PUSH2 0x1A1 JUMPI PUSH1 0x0 SLOAD DUP3 PUSH1 0x1 PUSH1 0x1 PUSH1 0x60 SHL SUB PUSH1 0xA0 SHL DUP3 AND OR PUSH1 0x0 SSTORE AND PUSH32 0x8BE0079C531659141344CD1FD0A4F28419497F9722A3DAAFE3B4186F6B6457E0 PUSH1 0x0 DUP1 LOG3 STOP JUMPDEST PUSH1 0x40 MLOAD PUSH3 0x461BCD PUSH1 0xE5 SHL DUP2 MSTORE PUSH1 0x20 PUSH1 0x4 DUP3 ADD MSTORE PUSH1 0x26 PUSH1 0x24 DUP3 ADD MSTORE PUSH32 0x4F776E61626C653A206E6577206F776E657220697320746865207A65726F2061 PUSH1 0x44 DUP3 ADD MSTORE PUSH6 0x646472657373 PUSH1 0xD0 SHL PUSH1 0x64 DUP3 ADD MSTORE PUSH1 0x84 SWAP1 REVERT JUMPDEST CALLVALUE PUSH2 0x103 JUMPI PUSH1 0x40 CALLDATASIZE PUSH1 0x3 NOT ADD SLT PUSH2 0x103 JUMPI PUSH2 0x20E PUSH2 0x11CD JUMP JUMPDEST PUSH1 0x1 PUSH1 0x1 PUSH1 0xA0 SHL SUB SWAP1 DUP2 AND PUSH1 0x0 SWAP1 DUP2 MSTORE PUSH1 0x5 PUSH1 0x20 MSTORE PUSH1 0x40 SWAP1 KECCAK256 DUP1 SLOAD PUSH1 0x24 CALLDATALOAD SWAP1 DUP2 LT ISZERO PUSH2 0x103 JUMPI PUSH2 0x23D SWAP2 PUSH2 0x1584 JUMP JUMPDEST POP SWAP1 PUSH2 0x298 DUP3 SLOAD PUSH1 0x1 DUP5 ADD SLOAD SWAP4 PUSH1 0x2 DUP2 ADD SLOAD SWAP2 PUSH1 0x3 DUP3 ADD SLOAD SWAP1 PUSH1 0x4 DUP4 ADD SLOAD DUP7 PUSH1 0x5 DUP6 ADD SLOAD AND SWAP1 PUSH1 0x6 DUP6 ADD SLOAD SWAP4 PUSH2 0x281 PUSH1 0xF PUSH2 0x27A PUSH1 0x7 DUP10 ADD PUSH2 0x1696 JUMP JUMPDEST SWAP8 ADD PUSH2 0x1740 JUMP JUMPDEST SWAP7 PUSH1 0x40 MLOAD SWAP11 DUP12 SWAP11 PUSH1 0xFF DUP9 PUSH1 0xA0 SHR AND SWAP8 AND SWAP6 DUP12 PUSH2 0x1805 JUMP JUMPDEST SUB SWAP1 RETURN JUMPDEST CALLVALUE PUSH2 0x103 JUMPI PUSH1 0x0 CALLDATASIZE PUSH1 0x3 NOT ADD SLT PUSH2 0x103 JUMPI PUSH1 0x20 PUSH1 0x6 SLOAD PUSH1 0x40 MLOAD SWAP1 DUP2 MSTORE RETURN JUMPDEST CALLVALUE PUSH2 0x103 JUMPI PUSH1 0x20 CALLDATASIZE PUSH1 0x3 NOT ADD SLT PUSH2 0x103 JUMPI PUSH2 0x2D3 PUSH2 0x11CD JUMP JUMPDEST PUSH2 0x2DB PUSH2 0x1869 JUMP JUMPDEST PUSH1 0x1 PUSH1 0x1 PUSH1 0xA0 SHL SUB AND DUP1 ISZERO PUSH2 0x302 JUMPI PUSH1 0x1 PUSH1 0x1 PUSH1 0x60 SHL SUB PUSH1 0xA0 SHL PUSH1 0x2 SLOAD AND OR PUSH1 0x2 SSTORE PUSH1 0x0 DUP1 RETURN JUMPDEST PUSH1 0x40 MLOAD PUSH3 0x461BCD PUSH1 0xE5 SHL DUP2 MSTORE PUSH1 0x20 PUSH1 0x4 DUP3 ADD MSTORE PUSH1 0x17 PUSH1 0x24 DUP3 ADD MSTORE PUSH32 0x496E76616C69642048656D53686F702061646472657373000000000000000000 PUSH1 0x44 DUP3 ADD MSTORE PUSH1 0x64 SWAP1 REVERT JUMPDEST CALLVALUE PUSH2 0x103 JUMPI PUSH1 0x0 CALLDATASIZE PUSH1 0x3 NOT ADD SLT PUSH2 0x103 JUMPI PUSH1 0x7 SLOAD PUSH1 0x40 MLOAD PUSH1 0x1 PUSH1 0x1 PUSH1 0xA0 SHL SUB SWAP1 SWAP2 AND DUP2 MSTORE PUSH1 0x20 SWAP1 RETURN JUMPDEST CALLVALUE PUSH2 0x103 JUMPI PUSH1 0x20 DUP1 PUSH1 0x3 NOT CALLDATASIZE ADD SLT PUSH2 0x103 JUMPI PUSH1 0x1 PUSH1 0x1 PUSH1 0xA0 SHL SUB SWAP1 DUP2 PUSH2 0x394 PUSH2 0x11CD JUMP JUMPDEST AND PUSH1 0x0 MSTORE PUSH1 0x4 DUP2 MSTORE PUSH1 0x40 PUSH1 0x0 KECCAK256 DUP1 SLOAD SWAP1 PUSH2 0x3AD DUP3 PUSH2 0x1728 JUMP JUMPDEST SWAP3 PUSH2 0x3BB PUSH1 0x40 MLOAD SWAP5 DUP6 PUSH2 0x14FF JUMP JUMPDEST DUP3 DUP5 MSTORE PUSH1 0x0 SWAP2 DUP3 MSTORE DUP1 DUP3 KECCAK256 DUP2 DUP6 ADD JUMPDEST DUP5 DUP5 LT PUSH2 0x3DF JUMPI PUSH1 0x40 MLOAD DUP1 PUSH2 0x298 DUP9 DUP3 PUSH2 0x13B2 JUMP JUMPDEST PUSH1 0x16 DUP4 PUSH1 0x1 SWAP3 PUSH1 0x40 MLOAD PUSH2 0x3F1 DUP2 PUSH2 0x1493 JUMP JUMPDEST DUP6 SLOAD DUP2 MSTORE DUP5 DUP7 ADD SLOAD DUP4 DUP3 ADD MSTORE PUSH1 0x2 DUP7 ADD SLOAD PUSH1 0x40 DUP3 ADD MSTORE PUSH1 0x3 DUP7 ADD SLOAD PUSH1 0x60 DUP3 ADD MSTORE PUSH1 0x4 DUP7 ADD SLOAD PUSH1 0x80 DUP3 ADD MSTORE PUSH1 0xFF DUP12 PUSH1 0x5 DUP9 ADD SLOAD AND PUSH1 0xA0 SWAP1 DUP2 DUP5 ADD MSTORE PUSH1 0x6 DUP9 ADD SLOAD SWAP1 DUP14 DUP3 AND PUSH1 0xC0 DUP6 ADD MSTORE SHR AND ISZERO ISZERO PUSH1 0xE0 DUP3 ADD MSTORE PUSH2 0x44E PUSH1 0x7 DUP8 ADD PUSH2 0x1696 JUMP JUMPDEST PUSH2 0x100 DUP3 ADD MSTORE PUSH2 0x460 PUSH1 0xF DUP8 ADD PUSH2 0x1740 JUMP JUMPDEST PUSH2 0x120 DUP3 ADD MSTORE DUP2 MSTORE ADD SWAP3 ADD SWAP4 ADD SWAP3 SWAP1 PUSH2 0x3CA JUMP JUMPDEST CALLVALUE PUSH2 0x103 JUMPI PUSH1 0x40 CALLDATASIZE PUSH1 0x3 NOT ADD SLT PUSH2 0x103 JUMPI PUSH2 0x48D PUSH2 0x11CD JUMP JUMPDEST PUSH1 0x1 PUSH1 0x1 PUSH1 0xA0 SHL SUB SWAP1 DUP2 AND PUSH1 0x0 SWAP1 DUP2 MSTORE PUSH1 0x4 PUSH1 0x20 MSTORE PUSH1 0x40 SWAP1 KECCAK256 DUP1 SLOAD PUSH1 0x24 CALLDATALOAD SWAP1 DUP2 LT ISZERO PUSH2 0x103 JUMPI PUSH2 0x23D SWAP2 PUSH2 0x1584 JUMP JUMPDEST CALLVALUE PUSH2 0x103 JUMPI PUSH1 0x0 CALLDATASIZE PUSH1 0x3 NOT ADD SLT PUSH2 0x103 JUMPI PUSH1 0x0 SLOAD PUSH1 0x40 MLOAD PUSH1 0x1 PUSH1 0x1 PUSH1 0xA0 SHL SUB SWAP1 SWAP2 AND DUP2 MSTORE PUSH1 0x20 SWAP1 RETURN JUMPDEST CALLVALUE PUSH2 0x103 JUMPI PUSH1 0x3 NOT PUSH2 0x120 CALLDATASIZE DUP3 ADD SLT PUSH2 0x103 JUMPI PUSH2 0x500 PUSH2 0x11B7 JUMP JUMPDEST SWAP1 PUSH1 0x44 CALLDATALOAD SWAP1 PUSH1 0x1 PUSH1 0x1 PUSH1 0xA0 SHL SUB DUP3 AND DUP3 SUB PUSH2 0x103 JUMPI PUSH1 0xA4 CALLDATALOAD PUSH8 0xFFFFFFFFFFFFFFFF SWAP2 DUP3 DUP3 GT PUSH2 0x103 JUMPI PUSH2 0x100 SWAP1 DUP3 CALLDATASIZE SUB ADD SLT PUSH2 0x103 JUMPI PUSH1 0x40 MLOAD SWAP1 PUSH2 0x543 DUP3 PUSH2 0x14C6 JUMP JUMPDEST DUP1 PUSH1 0x4 ADD CALLDATALOAD DUP4 DUP2 GT PUSH2 0x103 JUMPI PUSH2 0x55F SWAP1 PUSH1 0x4 CALLDATASIZE SWAP2 DUP5 ADD ADD PUSH2 0x153D JUMP JUMPDEST DUP3 MSTORE PUSH1 0x24 DUP2 ADD CALLDATALOAD DUP4 DUP2 GT PUSH2 0x103 JUMPI PUSH2 0x57D SWAP1 PUSH1 0x4 CALLDATASIZE SWAP2 DUP5 ADD ADD PUSH2 0x153D JUMP JUMPDEST PUSH1 0x20 DUP4 ADD MSTORE PUSH1 0x44 DUP2 ADD CALLDATALOAD DUP4 DUP2 GT PUSH2 0x103 JUMPI PUSH2 0x59E SWAP1 PUSH1 0x4 CALLDATASIZE SWAP2 DUP5 ADD ADD PUSH2 0x153D JUMP JUMPDEST PUSH1 0x40 DUP4 ADD MSTORE PUSH1 0x64 DUP2 ADD CALLDATALOAD DUP4 DUP2 GT PUSH2 0x103 JUMPI PUSH2 0x5BF SWAP1 PUSH1 0x4 CALLDATASIZE SWAP2 DUP5 ADD ADD PUSH2 0x153D JUMP JUMPDEST PUSH1 0x60 DUP4 ADD MSTORE PUSH1 0x84 DUP2 ADD CALLDATALOAD DUP4 DUP2 GT PUSH2 0x103 JUMPI PUSH2 0x5E0 SWAP1 PUSH1 0x4 CALLDATASIZE SWAP2 DUP5 ADD ADD PUSH2 0x153D JUMP JUMPDEST PUSH1 0x80 DUP4 ADD MSTORE PUSH1 0xA4 DUP2 ADD CALLDATALOAD DUP4 DUP2 GT PUSH2 0x103 JUMPI PUSH2 0x601 SWAP1 PUSH1 0x4 CALLDATASIZE SWAP2 DUP5 ADD ADD PUSH2 0x153D JUMP JUMPDEST PUSH1 0xA0 DUP4 ADD MSTORE PUSH1 0xC4 DUP2 ADD CALLDATALOAD DUP4 DUP2 GT PUSH2 0x103 JUMPI PUSH2 0x622 SWAP1 PUSH1 0x4 CALLDATASIZE SWAP2 DUP5 ADD ADD PUSH2 0x153D JUMP JUMPDEST PUSH1 0xC0 DUP4 ADD MSTORE PUSH1 0xE4 DUP2 ADD CALLDATALOAD SWAP1 DUP4 DUP3 GT PUSH2 0x103 JUMPI PUSH1 0x4 PUSH2 0x643 SWAP3 CALLDATASIZE SWAP3 ADD ADD PUSH2 0x153D JUMP JUMPDEST PUSH1 0xE0 DUP3 ADD MSTORE PUSH1 0xC4 CALLDATALOAD DUP3 DUP2 GT PUSH2 0x103 JUMPI PUSH2 0x660 SWAP1 CALLDATASIZE SWAP1 PUSH1 0x4 ADD PUSH2 0x153D JUMP JUMPDEST SWAP2 PUSH1 0xE4 CALLDATALOAD SWAP1 DUP2 GT PUSH2 0x103 JUMPI PUSH2 0x679 SWAP1 CALLDATASIZE SWAP1 PUSH1 0x4 ADD PUSH2 0x153D JUMP JUMPDEST PUSH1 0x2 SLOAD PUSH1 0x1 PUSH1 0x1 PUSH1 0xA0 SHL SUB AND CALLER SUB PUSH2 0xA06 JUMPI PUSH1 0x7 SLOAD PUSH1 0x40 MLOAD PUSH4 0x3AC4710D PUSH1 0xE2 SHL DUP2 MSTORE PUSH1 0x1 PUSH1 0x1 PUSH1 0xA0 SHL SUB DUP7 DUP2 AND PUSH1 0x4 DUP4 ADD MSTORE SWAP1 SWAP2 PUSH1 0x20 SWAP2 DUP4 SWAP2 PUSH1 0x24 SWAP2 DUP4 SWAP2 AND GAS STATICCALL SWAP1 DUP2 ISZERO PUSH2 0x941 JUMPI PUSH1 0x0 SWAP2 PUSH2 0x9D7 JUMPI JUMPDEST POP PUSH1 0x4 DUP2 LT ISZERO PUSH2 0x9C1 JUMPI PUSH1 0x2 SUB PUSH2 0x986 JUMPI PUSH1 0x8 SLOAD PUSH1 0x40 MLOAD PUSH4 0x3D66059 PUSH1 0xE5 SHL DUP2 MSTORE PUSH1 0x4 DUP1 CALLDATALOAD SWAP1 DUP3 ADD MSTORE SWAP4 SWAP1 PUSH1 0x0 SWAP1 DUP6 SWAP1 PUSH1 0x24 SWAP1 DUP3 SWAP1 PUSH1 0x1 PUSH1 0x1 PUSH1 0xA0 SHL SUB AND GAS STATICCALL DUP1 ISZERO PUSH2 0x941 JUMPI PUSH2 0x7FF SWAP5 PUSH1 0x0 SWAP2 PUSH2 0x963 JUMPI JUMPDEST POP PUSH1 0x40 DUP2 ADD MLOAD SWAP3 PUSH2 0x100 DUP3 ADD MLOAD SWAP3 PUSH1 0x60 PUSH2 0x120 DUP5 ADD MLOAD SWAP4 ADD MLOAD SWAP4 PUSH1 0x40 MLOAD SWAP6 PUSH2 0x742 DUP8 PUSH2 0x14E3 JUMP JUMPDEST DUP7 MSTORE PUSH1 0x20 DUP7 ADD MSTORE PUSH1 0x40 DUP6 ADD MSTORE PUSH1 0x60 DUP5 ADD MSTORE PUSH2 0x104 CALLDATALOAD PUSH1 0x80 DUP5 ADD MSTORE PUSH1 0xA0 DUP4 ADD MSTORE PUSH1 0xC0 DUP3 ADD MSTORE PUSH1 0x40 MLOAD SWAP2 PUSH2 0x773 DUP4 PUSH2 0x1493 JUMP JUMPDEST PUSH1 0x4 CALLDATALOAD DUP4 MSTORE PUSH1 0x64 CALLDATALOAD PUSH1 0x20 DUP5 ADD MSTORE PUSH1 0x84 CALLDATALOAD PUSH1 0x40 DUP5 ADD MSTORE TIMESTAMP PUSH1 0x60 DUP5 ADD MSTORE TIMESTAMP PUSH1 0x80 DUP5 ADD MSTORE PUSH1 0x1 DUP1 PUSH1 0xA0 SHL SUB DUP7 AND PUSH1 0xA0 DUP5 ADD MSTORE PUSH1 0x1 DUP1 PUSH1 0xA0 SHL SUB DUP6 AND PUSH1 0xC0 DUP5 ADD MSTORE PUSH1 0x0 PUSH1 0xE0 DUP5 ADD MSTORE PUSH2 0x100 DUP4 ADD MSTORE PUSH2 0x120 DUP3 ADD MSTORE PUSH1 0x1 DUP1 PUSH1 0xA0 SHL SUB DUP5 AND PUSH1 0x0 MSTORE PUSH1 0x4 PUSH1 0x20 MSTORE PUSH2 0x7E2 DUP2 PUSH1 0x40 PUSH1 0x0 KECCAK256 PUSH2 0x1B7A JUMP JUMPDEST PUSH1 0x1 PUSH1 0x1 PUSH1 0xA0 SHL SUB DUP4 AND PUSH1 0x0 SWAP1 DUP2 MSTORE PUSH1 0x5 PUSH1 0x20 MSTORE PUSH1 0x40 SWAP1 KECCAK256 PUSH2 0x1B7A JUMP JUMPDEST PUSH1 0x1 PUSH1 0x1 PUSH1 0xA0 SHL SUB DUP2 AND PUSH1 0x0 SWAP1 DUP2 MSTORE PUSH1 0x3 PUSH1 0x20 MSTORE PUSH1 0x40 SWAP1 KECCAK256 DUP1 SLOAD PUSH1 0x64 CALLDATALOAD DUP2 ADD SWAP2 SWAP1 DUP3 LT PUSH2 0x94D JUMPI SSTORE PUSH1 0x8 SLOAD PUSH1 0x40 MLOAD PUSH4 0xFD231411 PUSH1 0xE0 SHL DUP2 MSTORE PUSH1 0x4 DUP1 CALLDATALOAD SWAP1 DUP3 ADD MSTORE PUSH2 0x104 CALLDATALOAD PUSH1 0x24 DUP3 ADD MSTORE SWAP1 PUSH1 0x20 SWAP1 DUP3 SWAP1 PUSH1 0x44 SWAP1 DUP3 SWAP1 PUSH1 0x0 SWAP1 PUSH1 0x1 PUSH1 0x1 PUSH1 0xA0 SHL SUB AND GAS CALL SWAP1 DUP2 ISZERO PUSH2 0x941 JUMPI PUSH1 0x0 SWAP2 PUSH2 0x907 JUMPI JUMPDEST POP ISZERO PUSH2 0x8C9 JUMPI PUSH1 0x40 MLOAD SWAP1 PUSH1 0x64 CALLDATALOAD DUP3 MSTORE PUSH1 0x84 CALLDATALOAD PUSH1 0x20 DUP4 ADD MSTORE TIMESTAMP PUSH1 0x40 DUP4 ADD MSTORE PUSH1 0x1 DUP1 PUSH1 0xA0 SHL SUB AND SWAP2 PUSH1 0x1 DUP1 PUSH1 0xA0 SHL SUB AND SWAP1 PUSH32 0x45280C7AC9CEC77EDD454E39E1641A3E22619146CF074A4239BEEE86A7C07EDC PUSH1 0x60 PUSH1 0x4 CALLDATALOAD SWAP3 LOG4 STOP JUMPDEST PUSH1 0x40 MLOAD PUSH3 0x461BCD PUSH1 0xE5 SHL DUP2 MSTORE PUSH1 0x20 PUSH1 0x4 DUP3 ADD MSTORE PUSH1 0x16 PUSH1 0x24 DUP3 ADD MSTORE PUSH22 0x4661696C656420746F207570646174652073746F636B PUSH1 0x50 SHL PUSH1 0x44 DUP3 ADD MSTORE PUSH1 0x64 SWAP1 REVERT JUMPDEST SWAP1 POP PUSH1 0x20 DUP2 RETURNDATASIZE PUSH1 0x20 GT PUSH2 0x939 JUMPI JUMPDEST DUP2 PUSH2 0x922 PUSH1 0x20 SWAP4 DUP4 PUSH2 0x14FF JUMP JUMPDEST DUP2 ADD SUB SLT PUSH2 0x103 JUMPI PUSH2 0x933 SWAP1 PUSH2 0x199C JUMP JUMPDEST DUP4 PUSH2 0x870 JUMP JUMPDEST RETURNDATASIZE SWAP2 POP PUSH2 0x915 JUMP JUMPDEST PUSH1 0x40 MLOAD RETURNDATASIZE PUSH1 0x0 DUP3 RETURNDATACOPY RETURNDATASIZE SWAP1 REVERT JUMPDEST PUSH4 0x4E487B71 PUSH1 0xE0 SHL PUSH1 0x0 MSTORE PUSH1 0x11 PUSH1 0x4 MSTORE PUSH1 0x24 PUSH1 0x0 REVERT JUMPDEST PUSH2 0x980 SWAP2 POP RETURNDATASIZE DUP1 PUSH1 0x0 DUP4 RETURNDATACOPY PUSH2 0x978 DUP2 DUP4 PUSH2 0x14FF JUMP JUMPDEST DUP2 ADD SWAP1 PUSH2 0x19A9 JUMP JUMPDEST DUP8 PUSH2 0x71B JUMP JUMPDEST PUSH1 0x40 MLOAD PUSH3 0x461BCD PUSH1 0xE5 SHL DUP2 MSTORE PUSH1 0x20 PUSH1 0x4 DUP3 ADD MSTORE PUSH1 0x13 PUSH1 0x24 DUP3 ADD MSTORE PUSH19 0x14D95B1B195C881B9BDD081D995C9A599A5959 PUSH1 0x6A SHL PUSH1 0x44 DUP3 ADD MSTORE PUSH1 0x64 SWAP1 REVERT JUMPDEST PUSH4 0x4E487B71 PUSH1 0xE0 SHL PUSH1 0x0 MSTORE PUSH1 0x21 PUSH1 0x4 MSTORE PUSH1 0x24 PUSH1 0x0 REVERT JUMPDEST PUSH2 0x9F9 SWAP2 POP PUSH1 0x20 RETURNDATASIZE PUSH1 0x20 GT PUSH2 0x9FF JUMPI JUMPDEST PUSH2 0x9F1 DUP2 DUP4 PUSH2 0x14FF JUMP JUMPDEST DUP2 ADD SWAP1 PUSH2 0x18C1 JUMP JUMPDEST DUP7 PUSH2 0x6C9 JUMP JUMPDEST POP RETURNDATASIZE PUSH2 0x9E7 JUMP JUMPDEST PUSH1 0x40 MLOAD PUSH3 0x461BCD PUSH1 0xE5 SHL DUP2 MSTORE PUSH1 0x20 PUSH1 0x4 DUP3 ADD MSTORE PUSH1 0x15 PUSH1 0x24 DUP3 ADD MSTORE PUSH21 0x13DB9B1E4812195B54DA1BDC0818D85B8818D85B1B PUSH1 0x5A SHL PUSH1 0x44 DUP3 ADD MSTORE PUSH1 0x64 SWAP1 REVERT JUMPDEST CALLVALUE PUSH2 0x103 JUMPI PUSH1 0x0 CALLDATASIZE PUSH1 0x3 NOT ADD SLT PUSH2 0x103 JUMPI PUSH2 0xA5C PUSH2 0x1869 JUMP JUMPDEST PUSH1 0x0 DUP1 SLOAD PUSH1 0x1 PUSH1 0x1 PUSH1 0xA0 SHL SUB NOT DUP2 AND DUP3 SSTORE PUSH1 0x1 PUSH1 0x1 PUSH1 0xA0 SHL SUB AND PUSH32 0x8BE0079C531659141344CD1FD0A4F28419497F9722A3DAAFE3B4186F6B6457E0 DUP3 DUP1 LOG3 STOP JUMPDEST CALLVALUE PUSH2 0x103 JUMPI PUSH1 0x20 CALLDATASIZE PUSH1 0x3 NOT ADD SLT PUSH2 0x103 JUMPI PUSH1 0x1 PUSH1 0x1 PUSH1 0xA0 SHL SUB PUSH2 0xABD PUSH2 0x11CD JUMP JUMPDEST AND PUSH1 0x0 MSTORE PUSH1 0x3 PUSH1 0x20 MSTORE PUSH1 0x20 PUSH1 0x40 PUSH1 0x0 KECCAK256 SLOAD PUSH1 0x40 MLOAD SWAP1 DUP2 MSTORE RETURN JUMPDEST CALLVALUE PUSH2 0x103 JUMPI PUSH1 0x0 CALLDATASIZE PUSH1 0x3 NOT ADD SLT PUSH2 0x103 JUMPI PUSH1 0x2 PUSH1 0x1 SLOAD EQ PUSH2 0xC7B JUMPI PUSH1 0x2 PUSH1 0x1 SSTORE PUSH1 0x7 SLOAD PUSH1 0x40 MLOAD PUSH4 0xC64B8A8F PUSH1 0xE0 SHL DUP2 MSTORE CALLER PUSH1 0x4 DUP3 ADD MSTORE PUSH1 0x1 PUSH1 0x1 PUSH1 0xA0 SHL SUB SWAP2 PUSH1 0x20 SWAP2 SWAP1 DUP3 SWAP1 DUP3 SWAP1 PUSH1 0x24 SWAP1 DUP3 SWAP1 DUP8 AND GAS STATICCALL SWAP1 DUP2 ISZERO PUSH2 0x941 JUMPI PUSH1 0x0 SWAP2 PUSH2 0xC46 JUMPI JUMPDEST POP ISZERO PUSH2 0xC02 JUMPI CALLER PUSH1 0x0 MSTORE PUSH1 0x3 DUP2 MSTORE PUSH1 0x40 PUSH1 0x0 KECCAK256 SLOAD SWAP1 DUP2 ISZERO PUSH2 0xBC5 JUMPI PUSH1 0x6 SLOAD DUP1 DUP4 MUL SWAP1 DUP4 DUP3 DIV SUB PUSH2 0x94D JUMPI PUSH1 0x64 SWAP1 DIV DUP1 DUP4 SUB SWAP3 DUP4 GT PUSH2 0x94D JUMPI PUSH2 0xBBF SWAP4 PUSH2 0xBB9 SWAP3 CALLER PUSH1 0x0 MSTORE PUSH1 0x3 DUP2 MSTORE PUSH1 0x0 PUSH1 0x40 DUP2 KECCAK256 SSTORE PUSH32 0x8AD64A0AC7700DD8425AB0499F107CB6E2CD1581D803C5B8C1C79DCB8190B1AF PUSH1 0x40 MLOAD SWAP2 PUSH1 0x0 DUP4 MSTORE CALLER SWAP3 LOG2 PUSH1 0x0 SLOAD AND PUSH2 0x2AEF JUMP JUMPDEST CALLER PUSH2 0x2AEF JUMP JUMPDEST PUSH1 0x1 DUP1 SSTORE STOP JUMPDEST PUSH1 0x64 SWAP1 PUSH1 0x40 MLOAD SWAP1 PUSH3 0x461BCD PUSH1 0xE5 SHL DUP3 MSTORE PUSH1 0x4 DUP3 ADD MSTORE PUSH1 0x16 PUSH1 0x24 DUP3 ADD MSTORE PUSH22 0x4E6F2062616C616E636520746F207769746864726177 PUSH1 0x50 SHL PUSH1 0x44 DUP3 ADD MSTORE REVERT JUMPDEST PUSH1 0x64 SWAP1 PUSH1 0x40 MLOAD SWAP1 PUSH3 0x461BCD PUSH1 0xE5 SHL DUP3 MSTORE PUSH1 0x4 DUP3 ADD MSTORE PUSH1 0x1B PUSH1 0x24 DUP3 ADD MSTORE PUSH32 0x4D757374206265206120726567697374657265642073656C6C65720000000000 PUSH1 0x44 DUP3 ADD MSTORE REVERT JUMPDEST SWAP1 POP DUP2 DUP2 DUP2 RETURNDATASIZE DUP4 GT PUSH2 0xC74 JUMPI JUMPDEST PUSH2 0xC5D DUP2 DUP4 PUSH2 0x14FF JUMP JUMPDEST DUP2 ADD SUB SLT PUSH2 0x103 JUMPI PUSH2 0xC6E SWAP1 PUSH2 0x199C JUMP JUMPDEST DUP4 PUSH2 0xB35 JUMP JUMPDEST POP RETURNDATASIZE PUSH2 0xC53 JUMP JUMPDEST PUSH1 0x40 MLOAD PUSH3 0x461BCD PUSH1 0xE5 SHL DUP2 MSTORE PUSH1 0x20 PUSH1 0x4 DUP3 ADD MSTORE PUSH1 0x1F PUSH1 0x24 DUP3 ADD MSTORE PUSH32 0x5265656E7472616E637947756172643A207265656E7472616E742063616C6C00 PUSH1 0x44 DUP3 ADD MSTORE PUSH1 0x64 SWAP1 REVERT JUMPDEST CALLVALUE PUSH2 0x103 JUMPI PUSH1 0x20 DUP1 PUSH1 0x3 NOT CALLDATASIZE ADD SLT PUSH2 0x103 JUMPI PUSH1 0x1 PUSH1 0x1 PUSH1 0xA0 SHL SUB SWAP1 DUP2 PUSH2 0xCE4 PUSH2 0x11CD JUMP JUMPDEST AND PUSH1 0x0 MSTORE PUSH1 0x5 SWAP1 DUP2 DUP2 MSTORE PUSH1 0x40 PUSH1 0x0 KECCAK256 DUP1 SLOAD SWAP2 PUSH2 0xCFF DUP4 PUSH2 0x1728 JUMP JUMPDEST SWAP4 PUSH2 0xD0D PUSH1 0x40 MLOAD SWAP6 DUP7 PUSH2 0x14FF JUMP JUMPDEST DUP4 DUP6 MSTORE PUSH1 0x0 SWAP3 DUP4 MSTORE DUP2 DUP4 KECCAK256 SWAP1 DUP3 DUP7 ADD JUMPDEST DUP6 DUP6 LT PUSH2 0xD32 JUMPI PUSH1 0x40 MLOAD DUP1 PUSH2 0x298 DUP10 DUP3 PUSH2 0x13B2 JUMP JUMPDEST PUSH1 0x16 DUP5 PUSH1 0x1 SWAP3 PUSH1 0x40 MLOAD PUSH2 0xD44 DUP2 PUSH2 0x1493 JUMP JUMPDEST DUP7 SLOAD DUP2 MSTORE DUP5 DUP8 ADD SLOAD DUP4 DUP3 ADD MSTORE PUSH1 0x2 DUP8 ADD SLOAD PUSH1 0x40 DUP3 ADD MSTORE PUSH1 0x3 DUP8 ADD SLOAD PUSH1 0x60 DUP3 ADD MSTORE PUSH1 0x4 DUP8 ADD SLOAD PUSH1 0x80 DUP3 ADD MSTORE PUSH1 0xFF DUP13 DUP1 DUP9 DUP11 ADD SLOAD AND PUSH1 0xA0 SWAP1 DUP2 DUP6 ADD MSTORE PUSH1 0x6 DUP11 ADD SLOAD SWAP2 DUP3 AND PUSH1 0xC0 DUP6 ADD MSTORE SHR AND ISZERO ISZERO PUSH1 0xE0 DUP3 ADD MSTORE PUSH2 0xDA0 PUSH1 0x7 DUP9 ADD PUSH2 0x1696 JUMP JUMPDEST PUSH2 0x100 DUP3 ADD MSTORE PUSH2 0xDB2 PUSH1 0xF DUP9 ADD PUSH2 0x1740 JUMP JUMPDEST PUSH2 0x120 DUP3 ADD MSTORE DUP2 MSTORE ADD SWAP4 ADD SWAP5 ADD SWAP4 SWAP2 PUSH2 0xD1D JUMP JUMPDEST CALLVALUE PUSH2 0x103 JUMPI PUSH1 0x40 CALLDATASIZE PUSH1 0x3 NOT ADD SLT PUSH2 0x103 JUMPI PUSH1 0x4 CALLDATALOAD PUSH2 0xDE2 PUSH2 0x11B7 JUMP JUMPDEST SWAP1 PUSH1 0x1 DUP1 PUSH1 0xA0 SHL SUB SWAP1 DUP4 DUP1 DUP4 PUSH1 0x7 SLOAD AND PUSH4 0x3AC4710D PUSH1 0xE2 SHL DUP3 MSTORE CALLER PUSH1 0x4 DUP4 ADD MSTORE PUSH1 0x20 SWAP3 DUP4 SWAP2 PUSH1 0x24 SWAP9 DUP10 SWAP2 GAS STATICCALL SWAP1 DUP2 ISZERO PUSH2 0x941 JUMPI PUSH1 0x0 SWAP2 PUSH2 0x119A JUMPI JUMPDEST POP PUSH1 0x4 DUP2 LT ISZERO PUSH2 0x1185 JUMPI PUSH1 0x2 EQ DUP1 ISZERO PUSH2 0x1178 JUMPI JUMPDEST ISZERO PUSH2 0x1127 JUMPI SWAP3 DUP3 AND SWAP4 PUSH1 0x0 SWAP4 SWAP1 DUP5 JUMPDEST DUP7 PUSH1 0x0 MSTORE PUSH1 0x4 DUP4 MSTORE PUSH1 0x40 PUSH1 0x0 KECCAK256 DUP1 SLOAD DUP3 LT ISZERO PUSH2 0x111C JUMPI PUSH2 0xE61 DUP3 DUP7 SWAP3 PUSH2 0x1584 JUMP JUMPDEST POP SLOAD EQ PUSH2 0xE76 JUMPI PUSH2 0xE71 SWAP1 PUSH2 0x2AE0 JUMP JUMPDEST PUSH2 0xE40 JUMP JUMPDEST SWAP1 SWAP2 SWAP3 SWAP4 SWAP5 POP DUP6 PUSH1 0x0 MSTORE PUSH1 0x4 DUP4 MSTORE PUSH2 0xE92 DUP2 PUSH1 0x40 PUSH1 0x0 KECCAK256 PUSH2 0x1584 JUMP JUMPDEST POP SWAP1 PUSH1 0xFF PUSH1 0x6 DUP1 SWAP4 ADD SLOAD PUSH1 0xA0 SHR AND PUSH2 0x10D8 JUMPI DUP7 PUSH1 0x0 MSTORE PUSH1 0x4 DUP5 MSTORE PUSH2 0xEBA DUP2 PUSH1 0x40 PUSH1 0x0 KECCAK256 PUSH2 0x1584 JUMP JUMPDEST POP DUP3 ADD SLOAD DUP7 AND CALLER EQ DUP1 ISZERO PUSH2 0x10CB JUMPI JUMPDEST ISZERO PUSH2 0x1074 JUMPI PUSH2 0xEE4 SWAP1 DUP8 PUSH1 0x0 MSTORE PUSH1 0x4 DUP6 MSTORE PUSH1 0x40 PUSH1 0x0 KECCAK256 PUSH2 0x1584 JUMP JUMPDEST POP ADD DUP1 SLOAD PUSH1 0xFF PUSH1 0xA0 SHL NOT AND PUSH1 0x1 PUSH1 0xA0 SHL OR SWAP1 SSTORE PUSH1 0x1 JUMPDEST ISZERO PUSH2 0x103C JUMPI PUSH1 0x0 DUP5 PUSH1 0x8 SLOAD AND PUSH1 0x40 MLOAD SWAP3 DUP4 DUP1 SWAP3 PUSH4 0x3D66059 PUSH1 0xE5 SHL DUP3 MSTORE DUP8 PUSH1 0x4 DUP4 ADD MSTORE GAS STATICCALL SWAP1 DUP2 ISZERO PUSH2 0x941 JUMPI DUP5 SWAP2 DUP4 SWAP2 PUSH1 0x0 SWAP2 PUSH2 0x1021 JUMPI JUMPDEST POP ADD MLOAD AND SWAP3 PUSH1 0x0 JUMPDEST DUP5 PUSH1 0x0 MSTORE PUSH1 0x5 DUP1 DUP5 MSTORE PUSH1 0x40 PUSH1 0x0 KECCAK256 DUP1 SLOAD DUP4 LT ISZERO PUSH2 0xFF4 JUMPI PUSH2 0xF5C DUP4 DUP8 SWAP3 PUSH2 0x1584 JUMP JUMPDEST POP SLOAD EQ DUP1 PUSH2 0xFD1 JUMPI JUMPDEST PUSH2 0xF78 JUMPI POP PUSH2 0xF73 SWAP1 PUSH2 0x2AE0 JUMP JUMPDEST PUSH2 0xF3A JUMP JUMPDEST PUSH1 0x6 SWAP3 POP SWAP1 PUSH2 0xFB3 SWAP2 PUSH32 0xF9DC8543B583E01F592678422369B2777E3649761F5808AE432CB1C24CA9438C SWAP6 SWAP7 PUSH1 0x0 MSTORE DUP5 MSTORE PUSH1 0x40 PUSH1 0x0 KECCAK256 PUSH2 0x1584 JUMP JUMPDEST POP ADD DUP1 SLOAD PUSH1 0xFF PUSH1 0xA0 SHL NOT AND PUSH1 0x1 PUSH1 0xA0 SHL OR SWAP1 SSTORE JUMPDEST PUSH1 0x40 MLOAD PUSH1 0x1 DUP2 MSTORE LOG3 STOP JUMPDEST POP DUP6 PUSH1 0x0 MSTORE DUP1 DUP5 MSTORE DUP7 DUP4 DUP3 PUSH2 0xFEA DUP6 PUSH1 0x40 PUSH1 0x0 KECCAK256 PUSH2 0x1584 JUMP JUMPDEST POP ADD SLOAD AND EQ PUSH2 0xF65 JUMP JUMPDEST POP POP POP POP PUSH32 0xF9DC8543B583E01F592678422369B2777E3649761F5808AE432CB1C24CA9438C SWAP2 SWAP3 POP PUSH2 0xFC7 JUMP JUMPDEST PUSH2 0x1036 SWAP2 POP RETURNDATASIZE DUP1 PUSH1 0x0 DUP4 RETURNDATACOPY PUSH2 0x978 DUP2 DUP4 PUSH2 0x14FF JUMP JUMPDEST DUP8 PUSH2 0xF32 JUMP JUMPDEST SWAP1 PUSH1 0x12 PUSH1 0x64 SWAP3 PUSH1 0x40 MLOAD SWAP3 PUSH3 0x461BCD PUSH1 0xE5 SHL DUP5 MSTORE PUSH1 0x4 DUP5 ADD MSTORE DUP3 ADD MSTORE PUSH18 0x141D5C98DA185CD9481B9BDD08199BDD5B99 PUSH1 0x72 SHL PUSH1 0x44 DUP3 ADD MSTORE REVERT JUMPDEST PUSH1 0x40 MLOAD PUSH3 0x461BCD PUSH1 0xE5 SHL DUP2 MSTORE PUSH1 0x4 DUP2 ADD DUP6 SWAP1 MSTORE PUSH1 0x2A DUP2 DUP6 ADD MSTORE PUSH32 0x4F6E6C792073656C6C6572206F72206F776E65722063616E206D61726B206173 PUSH1 0x44 DUP3 ADD MSTORE PUSH10 0x819195B1A5D995C9959 PUSH1 0xB2 SHL PUSH1 0x64 DUP3 ADD MSTORE PUSH1 0x84 SWAP1 REVERT JUMPDEST POP CALLER DUP7 PUSH1 0x0 SLOAD AND EQ PUSH2 0xEC9 JUMP JUMPDEST PUSH1 0x40 MLOAD PUSH3 0x461BCD PUSH1 0xE5 SHL DUP2 MSTORE PUSH1 0x4 DUP2 ADD DUP6 SWAP1 MSTORE PUSH1 0x1B DUP2 DUP6 ADD MSTORE PUSH32 0x416C7265616479206D61726B65642061732064656C6976657265640000000000 PUSH1 0x44 DUP3 ADD MSTORE PUSH1 0x64 SWAP1 REVERT JUMPDEST POP POP SWAP1 SWAP2 SWAP3 SWAP4 PUSH2 0xEFA JUMP JUMPDEST PUSH1 0x84 SWAP1 PUSH1 0x25 DUP7 PUSH1 0x40 MLOAD SWAP3 PUSH3 0x461BCD PUSH1 0xE5 SHL DUP5 MSTORE PUSH1 0x4 DUP5 ADD MSTORE DUP3 ADD MSTORE PUSH32 0x4F6E6C792076657269666965642073656C6C6572206F72206F776E657220616C PUSH1 0x44 DUP3 ADD MSTORE PUSH5 0x1B1BDDD959 PUSH1 0xDA SHL PUSH1 0x64 DUP3 ADD MSTORE REVERT JUMPDEST POP DUP3 PUSH1 0x0 SLOAD AND CALLER EQ PUSH2 0xE31 JUMP JUMPDEST DUP6 PUSH4 0x4E487B71 PUSH1 0xE0 SHL PUSH1 0x0 MSTORE PUSH1 0x21 PUSH1 0x4 MSTORE PUSH1 0x0 REVERT JUMPDEST PUSH2 0x11B1 SWAP2 POP DUP3 RETURNDATASIZE DUP5 GT PUSH2 0x9FF JUMPI PUSH2 0x9F1 DUP2 DUP4 PUSH2 0x14FF JUMP JUMPDEST DUP7 PUSH2 0xE1D JUMP JUMPDEST PUSH1 0x24 CALLDATALOAD SWAP1 PUSH1 0x1 PUSH1 0x1 PUSH1 0xA0 SHL SUB DUP3 AND DUP3 SUB PUSH2 0x103 JUMPI JUMP JUMPDEST PUSH1 0x4 CALLDATALOAD SWAP1 PUSH1 0x1 PUSH1 0x1 PUSH1 0xA0 SHL SUB DUP3 AND DUP3 SUB PUSH2 0x103 JUMPI JUMP JUMPDEST PUSH1 0x0 JUMPDEST DUP4 DUP2 LT PUSH2 0x11F6 JUMPI POP POP PUSH1 0x0 SWAP2 ADD MSTORE JUMP JUMPDEST DUP2 DUP2 ADD MLOAD DUP4 DUP3 ADD MSTORE PUSH1 0x20 ADD PUSH2 0x11E6 JUMP JUMPDEST SWAP1 PUSH1 0x20 SWAP2 PUSH2 0x121F DUP2 MLOAD DUP1 SWAP3 DUP2 DUP6 MSTORE DUP6 DUP1 DUP7 ADD SWAP2 ADD PUSH2 0x11E3 JUMP JUMPDEST PUSH1 0x1F ADD PUSH1 0x1F NOT AND ADD ADD SWAP1 JUMP JUMPDEST PUSH2 0x12D3 SWAP2 PUSH1 0xE0 PUSH2 0x12C2 PUSH2 0x12B0 PUSH2 0x129E PUSH2 0x128C PUSH2 0x127A PUSH2 0x1268 PUSH2 0x1256 DUP10 MLOAD PUSH2 0x100 DUP1 DUP12 MSTORE DUP11 ADD SWAP1 PUSH2 0x1206 JUMP JUMPDEST PUSH1 0x20 DUP11 ADD MLOAD DUP10 DUP3 SUB PUSH1 0x20 DUP12 ADD MSTORE PUSH2 0x1206 JUMP JUMPDEST PUSH1 0x40 DUP10 ADD MLOAD DUP9 DUP3 SUB PUSH1 0x40 DUP11 ADD MSTORE PUSH2 0x1206 JUMP JUMPDEST PUSH1 0x60 DUP9 ADD MLOAD DUP8 DUP3 SUB PUSH1 0x60 DUP10 ADD MSTORE PUSH2 0x1206 JUMP JUMPDEST PUSH1 0x80 DUP8 ADD MLOAD DUP7 DUP3 SUB PUSH1 0x80 DUP9 ADD MSTORE PUSH2 0x1206 JUMP JUMPDEST PUSH1 0xA0 DUP7 ADD MLOAD DUP6 DUP3 SUB PUSH1 0xA0 DUP8 ADD MSTORE PUSH2 0x1206 JUMP JUMPDEST PUSH1 0xC0 DUP6 ADD MLOAD DUP5 DUP3 SUB PUSH1 0xC0 DUP7 ADD MSTORE PUSH2 0x1206 JUMP JUMPDEST SWAP3 ADD MLOAD SWAP1 PUSH1 0xE0 DUP2 DUP5 SUB SWAP2 ADD MSTORE PUSH2 0x1206 JUMP JUMPDEST SWAP1 JUMP JUMPDEST SWAP2 SWAP1 SWAP2 PUSH2 0x12EC DUP2 MLOAD PUSH1 0xE0 DUP6 MSTORE PUSH1 0xE0 DUP6 ADD SWAP1 PUSH2 0x1206 JUMP JUMPDEST PUSH1 0x20 DUP3 DUP2 ADD MLOAD DUP6 DUP4 SUB DUP3 DUP8 ADD MSTORE DUP1 MLOAD DUP1 DUP5 MSTORE PUSH1 0x5 DUP2 SWAP1 SHL DUP5 ADD DUP4 ADD SWAP7 SWAP4 SWAP3 SWAP2 DUP3 ADD SWAP2 PUSH1 0x0 DUP2 DUP6 ADD JUMPDEST DUP4 DUP3 LT PUSH2 0x1382 JUMPI POP POP POP POP POP POP PUSH1 0xC0 PUSH2 0x1371 PUSH2 0x1355 PUSH2 0x1343 PUSH2 0x12D3 SWAP7 SWAP8 PUSH1 0x40 DUP8 ADD MLOAD DUP7 DUP3 SUB PUSH1 0x40 DUP9 ADD MSTORE PUSH2 0x1206 JUMP JUMPDEST PUSH1 0x60 DUP7 ADD MLOAD DUP6 DUP3 SUB PUSH1 0x60 DUP8 ADD MSTORE PUSH2 0x1206 JUMP JUMPDEST PUSH1 0x80 DUP6 ADD MLOAD PUSH1 0x80 DUP6 ADD MSTORE PUSH1 0xA0 DUP6 ADD MLOAD DUP5 DUP3 SUB PUSH1 0xA0 DUP7 ADD MSTORE PUSH2 0x1206 JUMP JUMPDEST SWAP3 ADD MLOAD SWAP1 PUSH1 0xC0 DUP2 DUP5 SUB SWAP2 ADD MSTORE PUSH2 0x1206 JUMP JUMPDEST SWAP1 SWAP2 SWAP3 SWAP4 SWAP5 SWAP9 DUP4 DUP1 PUSH2 0x13A1 PUSH1 0x1 SWAP4 DUP14 PUSH1 0x1F NOT SWAP1 DUP3 SUB ADD DUP7 MSTORE DUP10 MLOAD PUSH2 0x1206 JUMP JUMPDEST SWAP12 SWAP8 ADD SWAP6 SWAP5 SWAP4 SWAP2 SWAP1 SWAP2 ADD SWAP2 ADD PUSH2 0x1314 JUMP JUMPDEST PUSH1 0x20 DUP1 DUP3 ADD SWAP1 DUP1 DUP4 MSTORE DUP4 MLOAD DUP1 SWAP3 MSTORE PUSH1 0x40 SWAP3 DUP4 DUP2 ADD DUP3 DUP6 DUP6 PUSH1 0x5 SHL DUP5 ADD ADD SWAP7 ADD SWAP5 PUSH1 0x0 SWAP3 JUMPDEST DUP6 DUP5 LT PUSH2 0x13E7 JUMPI POP POP POP POP POP POP POP SWAP1 JUMP JUMPDEST SWAP1 SWAP2 SWAP3 SWAP4 SWAP5 SWAP6 SWAP7 DUP6 DUP1 PUSH2 0x1482 PUSH1 0x1 SWAP4 PUSH1 0x3F NOT DUP7 DUP3 SUB ADD DUP9 MSTORE DUP12 MLOAD DUP1 MLOAD DUP3 MSTORE DUP4 DUP2 ADD MLOAD DUP5 DUP4 ADD MSTORE DUP8 DUP2 ADD MLOAD DUP9 DUP4 ADD MSTORE PUSH1 0x60 DUP1 DUP3 ADD MLOAD SWAP1 DUP4 ADD MSTORE PUSH1 0x80 DUP1 DUP3 ADD MLOAD SWAP1 DUP4 ADD MSTORE DUP6 DUP1 PUSH1 0xA0 SHL SUB PUSH1 0xA0 DUP2 DUP2 DUP5 ADD MLOAD AND SWAP1 DUP5 ADD MSTORE PUSH1 0xC0 SWAP1 DUP2 DUP4 ADD MLOAD AND SWAP1 DUP4 ADD MSTORE PUSH1 0xE0 DUP1 DUP3 ADD MLOAD ISZERO ISZERO SWAP1 DUP4 ADD MSTORE PUSH2 0x146E PUSH2 0x100 DUP1 DUP4 ADD MLOAD SWAP1 PUSH2 0x140 DUP1 SWAP2 DUP7 ADD MSTORE DUP5 ADD SWAP1 PUSH2 0x122B JUMP JUMPDEST SWAP2 PUSH2 0x120 DUP1 SWAP3 ADD MLOAD SWAP2 DUP2 DUP5 SUB SWAP2 ADD MSTORE PUSH2 0x12D6 JUMP JUMPDEST SWAP10 ADD SWAP5 ADD SWAP5 ADD SWAP3 SWAP6 SWAP5 SWAP4 SWAP2 SWAP1 PUSH2 0x13D6 JUMP JUMPDEST PUSH2 0x140 DUP2 ADD SWAP1 DUP2 LT PUSH8 0xFFFFFFFFFFFFFFFF DUP3 GT OR PUSH2 0x14B0 JUMPI PUSH1 0x40 MSTORE JUMP JUMPDEST PUSH4 0x4E487B71 PUSH1 0xE0 SHL PUSH1 0x0 MSTORE PUSH1 0x41 PUSH1 0x4 MSTORE PUSH1 0x24 PUSH1 0x0 REVERT JUMPDEST PUSH2 0x100 DUP2 ADD SWAP1 DUP2 LT PUSH8 0xFFFFFFFFFFFFFFFF DUP3 GT OR PUSH2 0x14B0 JUMPI PUSH1 0x40 MSTORE JUMP JUMPDEST PUSH1 0xE0 DUP2 ADD SWAP1 DUP2 LT PUSH8 0xFFFFFFFFFFFFFFFF DUP3 GT OR PUSH2 0x14B0 JUMPI PUSH1 0x40 MSTORE JUMP JUMPDEST SWAP1 PUSH1 0x1F DUP1 NOT SWAP2 ADD AND DUP2 ADD SWAP1 DUP2 LT PUSH8 0xFFFFFFFFFFFFFFFF DUP3 GT OR PUSH2 0x14B0 JUMPI PUSH1 0x40 MSTORE JUMP JUMPDEST PUSH8 0xFFFFFFFFFFFFFFFF DUP2 GT PUSH2 0x14B0 JUMPI PUSH1 0x1F ADD PUSH1 0x1F NOT AND PUSH1 0x20 ADD SWAP1 JUMP JUMPDEST DUP2 PUSH1 0x1F DUP3 ADD SLT ISZERO PUSH2 0x103 JUMPI DUP1 CALLDATALOAD SWAP1 PUSH2 0x1554 DUP3 PUSH2 0x1521 JUMP JUMPDEST SWAP3 PUSH2 0x1562 PUSH1 0x40 MLOAD SWAP5 DUP6 PUSH2 0x14FF JUMP JUMPDEST DUP3 DUP5 MSTORE PUSH1 0x20 DUP4 DUP4 ADD ADD GT PUSH2 0x103 JUMPI DUP2 PUSH1 0x0 SWAP3 PUSH1 0x20 DUP1 SWAP4 ADD DUP4 DUP7 ADD CALLDATACOPY DUP4 ADD ADD MSTORE SWAP1 JUMP JUMPDEST DUP1 SLOAD DUP3 LT ISZERO PUSH2 0x15A0 JUMPI PUSH1 0x0 MSTORE PUSH1 0x16 PUSH1 0x20 PUSH1 0x0 KECCAK256 SWAP2 MUL ADD SWAP1 PUSH1 0x0 SWAP1 JUMP JUMPDEST PUSH4 0x4E487B71 PUSH1 0xE0 SHL PUSH1 0x0 MSTORE PUSH1 0x32 PUSH1 0x4 MSTORE PUSH1 0x24 PUSH1 0x0 REVERT JUMPDEST SWAP1 PUSH1 0x1 DUP3 DUP2 SHR SWAP3 AND DUP1 ISZERO PUSH2 0x15E6 JUMPI JUMPDEST PUSH1 0x20 DUP4 LT EQ PUSH2 0x15D0 JUMPI JUMP JUMPDEST PUSH4 0x4E487B71 PUSH1 0xE0 SHL PUSH1 0x0 MSTORE PUSH1 0x22 PUSH1 0x4 MSTORE PUSH1 0x24 PUSH1 0x0 REVERT JUMPDEST SWAP2 PUSH1 0x7F AND SWAP2 PUSH2 0x15C5 JUMP JUMPDEST SWAP1 PUSH1 0x40 MLOAD SWAP2 DUP3 PUSH1 0x0 DUP3 SLOAD SWAP3 PUSH2 0x1604 DUP5 PUSH2 0x15B6 JUMP JUMPDEST SWAP1 DUP2 DUP5 MSTORE PUSH1 0x1 SWAP5 DUP6 DUP2 AND SWAP1 DUP2 PUSH1 0x0 EQ PUSH2 0x1673 JUMPI POP PUSH1 0x1 EQ PUSH2 0x1630 JUMPI JUMPDEST POP POP PUSH2 0x162E SWAP3 POP SUB DUP4 PUSH2 0x14FF JUMP JUMPDEST JUMP JUMPDEST SWAP1 SWAP4 SWAP2 POP PUSH1 0x0 MSTORE PUSH1 0x20 SWAP1 DUP2 PUSH1 0x0 KECCAK256 SWAP4 PUSH1 0x0 SWAP2 JUMPDEST DUP2 DUP4 LT PUSH2 0x165B JUMPI POP POP PUSH2 0x162E SWAP4 POP DUP3 ADD ADD CODESIZE DUP1 PUSH2 0x1620 JUMP JUMPDEST DUP6 SLOAD DUP9 DUP5 ADD DUP6 ADD MSTORE SWAP5 DUP6 ADD SWAP5 DUP8 SWAP5 POP SWAP2 DUP4 ADD SWAP2 PUSH2 0x1643 JUMP JUMPDEST SWAP2 POP POP PUSH2 0x162E SWAP5 POP PUSH1 0x20 SWAP3 POP PUSH1 0xFF NOT AND DUP3 DUP5 ADD MSTORE ISZERO ISZERO PUSH1 0x5 SHL DUP3 ADD ADD CODESIZE DUP1 PUSH2 0x1620 JUMP JUMPDEST SWAP1 PUSH1 0x40 MLOAD PUSH2 0x16A3 DUP2 PUSH2 0x14C6 JUMP JUMPDEST PUSH1 0xE0 PUSH2 0x1723 PUSH1 0x7 DUP4 SWAP6 PUSH2 0x16B5 DUP2 PUSH2 0x15F0 JUMP JUMPDEST DUP6 MSTORE PUSH2 0x16C3 PUSH1 0x1 DUP3 ADD PUSH2 0x15F0 JUMP JUMPDEST PUSH1 0x20 DUP7 ADD MSTORE PUSH2 0x16D4 PUSH1 0x2 DUP3 ADD PUSH2 0x15F0 JUMP JUMPDEST PUSH1 0x40 DUP7 ADD MSTORE PUSH2 0x16E5 PUSH1 0x3 DUP3 ADD PUSH2 0x15F0 JUMP JUMPDEST PUSH1 0x60 DUP7 ADD MSTORE PUSH2 0x16F6 PUSH1 0x4 DUP3 ADD PUSH2 0x15F0 JUMP JUMPDEST PUSH1 0x80 DUP7 ADD MSTORE PUSH2 0x1707 PUSH1 0x5 DUP3 ADD PUSH2 0x15F0 JUMP JUMPDEST PUSH1 0xA0 DUP7 ADD MSTORE PUSH2 0x1718 PUSH1 0x6 DUP3 ADD PUSH2 0x15F0 JUMP JUMPDEST PUSH1 0xC0 DUP7 ADD MSTORE ADD PUSH2 0x15F0 JUMP JUMPDEST SWAP2 ADD MSTORE JUMP JUMPDEST PUSH8 0xFFFFFFFFFFFFFFFF DUP2 GT PUSH2 0x14B0 JUMPI PUSH1 0x5 SHL PUSH1 0x20 ADD SWAP1 JUMP JUMPDEST SWAP1 PUSH1 0x40 MLOAD PUSH2 0x174D DUP2 PUSH2 0x14E3 JUMP JUMPDEST DUP1 SWAP3 PUSH2 0x1758 DUP2 PUSH2 0x15F0 JUMP JUMPDEST DUP3 MSTORE PUSH1 0x1 DUP1 DUP3 ADD DUP1 SLOAD SWAP2 PUSH2 0x176B DUP4 PUSH2 0x1728 JUMP JUMPDEST SWAP3 PUSH2 0x1779 PUSH1 0x40 MLOAD SWAP5 DUP6 PUSH2 0x14FF JUMP JUMPDEST DUP1 DUP5 MSTORE PUSH1 0x20 SWAP3 DUP4 DUP6 ADD SWAP1 PUSH1 0x0 MSTORE DUP4 PUSH1 0x0 KECCAK256 PUSH1 0x0 SWAP2 JUMPDEST DUP4 DUP4 LT PUSH2 0x17EA JUMPI POP POP POP POP POP PUSH1 0xC0 SWAP3 PUSH2 0x1723 SWAP3 PUSH1 0x6 SWAP3 DUP7 ADD MSTORE PUSH2 0x17B3 PUSH1 0x2 DUP3 ADD PUSH2 0x15F0 JUMP JUMPDEST PUSH1 0x40 DUP7 ADD MSTORE PUSH2 0x17C4 PUSH1 0x3 DUP3 ADD PUSH2 0x15F0 JUMP JUMPDEST PUSH1 0x60 DUP7 ADD MSTORE PUSH1 0x4 DUP2 ADD SLOAD PUSH1 0x80 DUP7 ADD MSTORE PUSH2 0x17DF PUSH1 0x5 DUP3 ADD PUSH2 0x15F0 JUMP JUMPDEST PUSH1 0xA0 DUP7 ADD MSTORE ADD PUSH2 0x15F0 JUMP JUMPDEST DUP5 DUP7 DUP2 SWAP3 PUSH2 0x17F7 DUP6 PUSH2 0x15F0 JUMP JUMPDEST DUP2 MSTORE ADD SWAP3 ADD SWAP3 ADD SWAP2 SWAP1 PUSH2 0x178E JUMP JUMPDEST SWAP9 SWAP6 SWAP4 SWAP1 SWAP3 PUSH2 0x12D3 SWAP11 SWAP9 SWAP6 SWAP3 PUSH2 0x185A SWAP9 SWAP5 DUP12 MSTORE PUSH1 0x20 DUP12 ADD MSTORE PUSH1 0x40 DUP11 ADD MSTORE PUSH1 0x60 DUP10 ADD MSTORE PUSH1 0x80 DUP9 ADD MSTORE PUSH1 0x1 DUP1 PUSH1 0xA0 SHL SUB DUP1 SWAP3 AND PUSH1 0xA0 DUP9 ADD MSTORE AND PUSH1 0xC0 DUP7 ADD MSTORE ISZERO ISZERO PUSH1 0xE0 DUP6 ADD MSTORE PUSH2 0x140 DUP1 PUSH2 0x100 DUP7 ADD MSTORE DUP5 ADD SWAP1 PUSH2 0x122B JUMP JUMPDEST SWAP2 PUSH2 0x120 DUP2 DUP5 SUB SWAP2 ADD MSTORE PUSH2 0x12D6 JUMP JUMPDEST PUSH1 0x0 SLOAD PUSH1 0x1 PUSH1 0x1 PUSH1 0xA0 SHL SUB AND CALLER SUB PUSH2 0x187D JUMPI JUMP JUMPDEST PUSH1 0x64 PUSH1 0x40 MLOAD PUSH3 0x461BCD PUSH1 0xE5 SHL DUP2 MSTORE PUSH1 0x20 PUSH1 0x4 DUP3 ADD MSTORE PUSH1 0x20 PUSH1 0x24 DUP3 ADD MSTORE PUSH32 0x4F776E61626C653A2063616C6C6572206973206E6F7420746865206F776E6572 PUSH1 0x44 DUP3 ADD MSTORE REVERT JUMPDEST SWAP1 DUP2 PUSH1 0x20 SWAP2 SUB SLT PUSH2 0x103 JUMPI MLOAD PUSH1 0x4 DUP2 LT ISZERO PUSH2 0x103 JUMPI SWAP1 JUMP JUMPDEST DUP2 PUSH1 0x1F DUP3 ADD SLT ISZERO PUSH2 0x103 JUMPI DUP1 MLOAD PUSH2 0x18EF DUP2 PUSH2 0x1521 JUMP JUMPDEST SWAP3 PUSH2 0x18FD PUSH1 0x40 MLOAD SWAP5 DUP6 PUSH2 0x14FF JUMP JUMPDEST DUP2 DUP5 MSTORE PUSH1 0x20 DUP3 DUP5 ADD ADD GT PUSH2 0x103 JUMPI PUSH2 0x12D3 SWAP2 PUSH1 0x20 DUP1 DUP6 ADD SWAP2 ADD PUSH2 0x11E3 JUMP JUMPDEST SWAP1 DUP1 PUSH1 0x1F DUP4 ADD SLT ISZERO PUSH2 0x103 JUMPI DUP2 MLOAD SWAP1 PUSH2 0x1933 DUP3 PUSH2 0x1728 JUMP JUMPDEST SWAP3 PUSH2 0x1941 PUSH1 0x40 MLOAD SWAP5 DUP6 PUSH2 0x14FF JUMP JUMPDEST DUP3 DUP5 MSTORE PUSH1 0x20 SWAP3 DUP4 DUP1 DUP7 ADD SWAP2 PUSH1 0x5 SHL DUP4 ADD ADD SWAP3 DUP1 DUP5 GT PUSH2 0x103 JUMPI DUP5 DUP4 ADD SWAP2 JUMPDEST DUP5 DUP4 LT PUSH2 0x196F JUMPI POP POP POP POP POP POP SWAP1 JUMP JUMPDEST DUP3 MLOAD PUSH8 0xFFFFFFFFFFFFFFFF DUP2 GT PUSH2 0x103 JUMPI DUP7 SWAP2 PUSH2 0x1991 DUP5 DUP5 DUP1 SWAP5 DUP10 ADD ADD PUSH2 0x18D9 JUMP JUMPDEST DUP2 MSTORE ADD SWAP3 ADD SWAP2 PUSH2 0x195F JUMP JUMPDEST MLOAD SWAP1 DUP2 ISZERO ISZERO DUP3 SUB PUSH2 0x103 JUMPI JUMP JUMPDEST SWAP1 PUSH1 0x20 DUP3 DUP3 SUB SLT PUSH2 0x103 JUMPI DUP2 MLOAD PUSH8 0xFFFFFFFFFFFFFFFF SWAP3 DUP4 DUP3 GT PUSH2 0x103 JUMPI ADD SWAP1 PUSH2 0x220 SWAP3 DUP4 DUP4 DUP4 SUB SLT PUSH2 0x103 JUMPI PUSH1 0x40 MLOAD SWAP4 DUP5 ADD DUP5 DUP2 LT DUP3 DUP3 GT OR PUSH2 0x14B0 JUMPI PUSH1 0x40 MSTORE DUP3 MLOAD DUP5 MSTORE PUSH1 0x20 DUP4 ADD MLOAD PUSH1 0x1 PUSH1 0x1 PUSH1 0xA0 SHL SUB DUP2 AND DUP2 SUB PUSH2 0x103 JUMPI PUSH1 0x20 DUP6 ADD MSTORE PUSH1 0x40 DUP4 ADD MLOAD DUP2 DUP2 GT PUSH2 0x103 JUMPI DUP3 PUSH2 0x1A20 SWAP2 DUP6 ADD PUSH2 0x18D9 JUMP JUMPDEST PUSH1 0x40 DUP6 ADD MSTORE PUSH1 0x60 DUP4 ADD MLOAD DUP2 DUP2 GT PUSH2 0x103 JUMPI DUP3 PUSH2 0x1A3D SWAP2 DUP6 ADD PUSH2 0x18D9 JUMP JUMPDEST PUSH1 0x60 DUP6 ADD MSTORE PUSH1 0x80 DUP4 ADD MLOAD PUSH1 0x80 DUP6 ADD MSTORE PUSH1 0xA0 DUP4 ADD MLOAD PUSH1 0xA0 DUP6 ADD MSTORE PUSH1 0xC0 DUP4 ADD MLOAD DUP2 DUP2 GT PUSH2 0x103 JUMPI DUP3 PUSH2 0x1A6E SWAP2 DUP6 ADD PUSH2 0x191B JUMP JUMPDEST PUSH1 0xC0 DUP6 ADD MSTORE PUSH1 0xE0 DUP4 ADD MLOAD DUP2 DUP2 GT PUSH2 0x103 JUMPI DUP3 PUSH2 0x1A8B SWAP2 DUP6 ADD PUSH2 0x191B JUMP JUMPDEST PUSH1 0xE0 DUP6 ADD MSTORE PUSH2 0x100 DUP1 DUP5 ADD MLOAD DUP3 DUP2 GT PUSH2 0x103 JUMPI DUP4 PUSH2 0x1AAA SWAP2 DUP7 ADD PUSH2 0x191B JUMP JUMPDEST SWAP1 DUP6 ADD MSTORE PUSH2 0x120 DUP1 DUP5 ADD MLOAD DUP3 DUP2 GT PUSH2 0x103 JUMPI DUP4 PUSH2 0x1AC8 SWAP2 DUP7 ADD PUSH2 0x18D9 JUMP JUMPDEST SWAP1 DUP6 ADD MSTORE PUSH2 0x140 DUP1 DUP5 ADD MLOAD DUP3 DUP2 GT PUSH2 0x103 JUMPI DUP4 PUSH2 0x1AE6 SWAP2 DUP7 ADD PUSH2 0x18D9 JUMP JUMPDEST SWAP1 DUP6 ADD MSTORE PUSH2 0x160 DUP1 DUP5 ADD MLOAD SWAP1 DUP6 ADD MSTORE PUSH2 0x180 DUP1 DUP5 ADD MLOAD DUP3 DUP2 GT PUSH2 0x103 JUMPI DUP4 PUSH2 0x1B0F SWAP2 DUP7 ADD PUSH2 0x18D9 JUMP JUMPDEST SWAP1 DUP6 ADD MSTORE PUSH2 0x1A0 SWAP2 DUP3 DUP5 ADD MLOAD SWAP2 DUP3 GT PUSH2 0x103 JUMPI PUSH2 0x1B2D SWAP2 DUP5 ADD PUSH2 0x18D9 JUMP JUMPDEST SWAP1 DUP4 ADD MSTORE PUSH2 0x1C0 DUP1 DUP3 ADD MLOAD SWAP1 DUP4 ADD MSTORE PUSH2 0x1E0 PUSH2 0x1B4A DUP2 DUP4 ADD PUSH2 0x199C JUMP JUMPDEST SWAP1 DUP4 ADD MSTORE PUSH2 0x1B5C PUSH2 0x200 DUP1 SWAP3 ADD PUSH2 0x199C JUMP JUMPDEST SWAP1 DUP3 ADD MSTORE SWAP1 JUMP JUMPDEST DUP2 DUP2 LT PUSH2 0x1B6E JUMPI POP POP JUMP JUMPDEST PUSH1 0x0 DUP2 SSTORE PUSH1 0x1 ADD PUSH2 0x1B63 JUMP JUMPDEST SWAP2 SWAP1 DUP3 SLOAD SWAP3 PUSH9 0x10000000000000000 SWAP4 DUP5 DUP2 LT ISZERO PUSH2 0x14B0 JUMPI PUSH2 0x1BA1 SWAP2 PUSH1 0x1 DUP3 ADD DUP2 SSTORE PUSH2 0x1584 JUMP JUMPDEST PUSH2 0x2ACA JUMPI DUP2 MLOAD DUP2 SSTORE PUSH1 0x20 DUP3 ADD MLOAD PUSH1 0x1 DUP3 ADD SSTORE PUSH1 0x40 DUP3 ADD MLOAD PUSH1 0x2 DUP3 ADD SSTORE PUSH1 0x60 DUP3 ADD MLOAD PUSH1 0x3 DUP3 ADD SSTORE PUSH1 0x80 DUP3 ADD MLOAD PUSH1 0x4 DUP3 ADD SSTORE PUSH1 0x5 DUP2 ADD PUSH1 0x1 DUP1 PUSH1 0xA0 SHL SUB SWAP1 DUP2 PUSH1 0xA0 DUP6 ADD MLOAD AND PUSH1 0x1 PUSH1 0x1 PUSH1 0x60 SHL SUB PUSH1 0xA0 SHL DUP3 SLOAD AND OR SWAP1 SSTORE PUSH1 0x6 DUP3 ADD SWAP1 PUSH1 0xC0 DUP5 ADD MLOAD AND DUP2 SLOAD SWAP1 PUSH1 0xFF PUSH1 0xA0 SHL PUSH1 0xE0 DUP7 ADD MLOAD ISZERO ISZERO PUSH1 0xA0 SHL AND SWAP2 PUSH11 0xFFFFFFFFFFFFFFFFFFFFFF PUSH1 0xA8 SHL AND OR OR SWAP1 SSTORE PUSH1 0x7 DUP2 ADD SWAP4 PUSH2 0x100 DUP4 ADD MLOAD DUP1 MLOAD SWAP6 DUP7 MLOAD PUSH8 0xFFFFFFFFFFFFFFFF SWAP8 DUP9 DUP3 GT PUSH2 0x14B0 JUMPI DUP2 SWAP1 PUSH2 0x1C55 DUP5 SLOAD PUSH2 0x15B6 JUMP JUMPDEST PUSH1 0x1F DUP2 GT PUSH2 0x2A98 JUMPI JUMPDEST POP PUSH1 0x20 SWAP1 PUSH1 0x1F DUP4 GT PUSH1 0x1 EQ PUSH2 0x2A2C JUMPI PUSH1 0x0 SWAP3 PUSH2 0x2A21 JUMPI JUMPDEST POP POP DUP2 PUSH1 0x1 SHL SWAP2 PUSH1 0x0 NOT SWAP1 PUSH1 0x3 SHL SHR NOT AND OR SWAP1 SSTORE JUMPDEST PUSH1 0x8 DUP4 ADD PUSH1 0x20 DUP3 ADD MLOAD DUP1 MLOAD SWAP1 DUP9 DUP3 GT PUSH2 0x14B0 JUMPI DUP2 SWAP1 PUSH2 0x1CA9 DUP5 SLOAD PUSH2 0x15B6 JUMP JUMPDEST PUSH1 0x1F DUP2 GT PUSH2 0x29EF JUMPI JUMPDEST POP PUSH1 0x20 SWAP1 PUSH1 0x1F DUP4 GT PUSH1 0x1 EQ PUSH2 0x2983 JUMPI PUSH1 0x0 SWAP3 PUSH2 0x2978 JUMPI JUMPDEST POP POP DUP2 PUSH1 0x1 SHL SWAP2 PUSH1 0x0 NOT SWAP1 PUSH1 0x3 SHL SHR NOT AND OR SWAP1 SSTORE JUMPDEST PUSH1 0x9 DUP4 ADD PUSH1 0x40 DUP3 ADD MLOAD DUP1 MLOAD SWAP1 DUP9 DUP3 GT PUSH2 0x14B0 JUMPI DUP2 SWAP1 PUSH2 0x1CFD DUP5 SLOAD PUSH2 0x15B6 JUMP JUMPDEST PUSH1 0x1F DUP2 GT PUSH2 0x2946 JUMPI JUMPDEST POP PUSH1 0x20 SWAP1 PUSH1 0x1F DUP4 GT PUSH1 0x1 EQ PUSH2 0x28DA JUMPI PUSH1 0x0 SWAP3 PUSH2 0x28CF JUMPI JUMPDEST POP POP DUP2 PUSH1 0x1 SHL SWAP2 PUSH1 0x0 NOT SWAP1 PUSH1 0x3 SHL SHR NOT AND OR SWAP1 SSTORE JUMPDEST PUSH1 0xA DUP4 ADD PUSH1 0x60 DUP3 ADD MLOAD DUP1 MLOAD SWAP1 DUP9 DUP3 GT PUSH2 0x14B0 JUMPI DUP2 SWAP1 PUSH2 0x1D51 DUP5 SLOAD PUSH2 0x15B6 JUMP JUMPDEST PUSH1 0x1F DUP2 GT PUSH2 0x289D JUMPI JUMPDEST POP PUSH1 0x20 SWAP1 PUSH1 0x1F DUP4 GT PUSH1 0x1 EQ PUSH2 0x2831 JUMPI PUSH1 0x0 SWAP3 PUSH2 0x2826 JUMPI JUMPDEST POP POP DUP2 PUSH1 0x1 SHL SWAP2 PUSH1 0x0 NOT SWAP1 PUSH1 0x3 SHL SHR NOT AND OR SWAP1 SSTORE JUMPDEST PUSH1 0xB DUP4 ADD PUSH1 0x80 DUP3 ADD MLOAD DUP1 MLOAD SWAP1 DUP9 DUP3 GT PUSH2 0x14B0 JUMPI DUP2 SWAP1 PUSH2 0x1DA5 DUP5 SLOAD PUSH2 0x15B6 JUMP JUMPDEST PUSH1 0x1F DUP2 GT PUSH2 0x27F4 JUMPI JUMPDEST POP PUSH1 0x20 SWAP1 PUSH1 0x1F DUP4 GT PUSH1 0x1 EQ PUSH2 0x2788 JUMPI PUSH1 0x0 SWAP3 PUSH2 0x277D JUMPI JUMPDEST POP POP DUP2 PUSH1 0x1 SHL SWAP2 PUSH1 0x0 NOT SWAP1 PUSH1 0x3 SHL SHR NOT AND OR SWAP1 SSTORE JUMPDEST PUSH1 0xC DUP4 ADD PUSH1 0xA0 DUP3 ADD MLOAD DUP1 MLOAD SWAP1 DUP9 DUP3 GT PUSH2 0x14B0 JUMPI DUP2 SWAP1 PUSH2 0x1DF9 DUP5 SLOAD PUSH2 0x15B6 JUMP JUMPDEST PUSH1 0x1F DUP2 GT PUSH2 0x274B JUMPI JUMPDEST POP PUSH1 0x20 SWAP1 PUSH1 0x1F DUP4 GT PUSH1 0x1 EQ PUSH2 0x26DF JUMPI PUSH1 0x0 SWAP3 PUSH2 0x26D4 JUMPI JUMPDEST POP POP DUP2 PUSH1 0x1 SHL SWAP2 PUSH1 0x0 NOT SWAP1 PUSH1 0x3 SHL SHR NOT AND OR SWAP1 SSTORE JUMPDEST PUSH1 0xD DUP4 ADD PUSH1 0xC0 DUP3 ADD MLOAD DUP1 MLOAD SWAP1 DUP9 DUP3 GT PUSH2 0x14B0 JUMPI DUP2 SWAP1 PUSH2 0x1E4D DUP5 SLOAD PUSH2 0x15B6 JUMP JUMPDEST PUSH1 0x1F DUP2 GT PUSH2 0x26A2 JUMPI JUMPDEST POP PUSH1 0x20 SWAP1 PUSH1 0x1F DUP4 GT PUSH1 0x1 EQ PUSH2 0x2636 JUMPI PUSH1 0x0 SWAP3 PUSH2 0x262B JUMPI JUMPDEST POP POP DUP2 PUSH1 0x1 SHL SWAP2 PUSH1 0x0 NOT SWAP1 PUSH1 0x3 SHL SHR NOT AND OR SWAP1 SSTORE JUMPDEST PUSH1 0xE0 ADD MLOAD DUP1 MLOAD PUSH1 0xE DUP5 ADD SWAP2 DUP8 DUP3 GT PUSH2 0x14B0 JUMPI DUP2 SWAP1 PUSH2 0x1EA0 DUP5 SLOAD PUSH2 0x15B6 JUMP JUMPDEST PUSH1 0x1F DUP2 GT PUSH2 0x25F9 JUMPI JUMPDEST POP PUSH1 0x20 SWAP1 PUSH1 0x1F DUP4 GT PUSH1 0x1 EQ PUSH2 0x2593 JUMPI PUSH1 0x0 SWAP3 PUSH2 0x2588 JUMPI JUMPDEST POP POP DUP2 PUSH1 0x1 SHL SWAP2 PUSH1 0x0 NOT SWAP1 PUSH1 0x3 SHL SHR NOT AND OR SWAP1 SSTORE JUMPDEST PUSH2 0x120 PUSH1 0xF DUP4 ADD SWAP4 ADD MLOAD SWAP3 DUP4 MLOAD DUP1 MLOAD SWAP1 DUP8 DUP3 GT PUSH2 0x14B0 JUMPI DUP2 SWAP1 PUSH2 0x1EF8 DUP5 SLOAD PUSH2 0x15B6 JUMP JUMPDEST PUSH1 0x1F DUP2 GT PUSH2 0x2556 JUMPI JUMPDEST POP PUSH1 0x20 SWAP1 PUSH1 0x1F DUP4 GT PUSH1 0x1 EQ PUSH2 0x24F0 JUMPI PUSH1 0x0 SWAP3 PUSH2 0x24E5 JUMPI JUMPDEST POP POP DUP2 PUSH1 0x1 SHL SWAP2 PUSH1 0x0 NOT SWAP1 PUSH1 0x3 SHL SHR NOT AND OR SWAP1 SSTORE JUMPDEST PUSH1 0x10 DUP3 ADD PUSH1 0x20 DUP5 ADD MLOAD DUP1 MLOAD SWAP3 DUP4 GT PUSH2 0x14B0 JUMPI DUP2 SLOAD DUP4 DUP4 SSTORE DUP1 DUP5 LT PUSH2 0x2471 JUMPI JUMPDEST POP PUSH1 0x20 ADD SWAP1 PUSH1 0x0 MSTORE PUSH1 0x20 PUSH1 0x0 KECCAK256 PUSH1 0x0 SWAP2 JUMPDEST DUP4 DUP4 LT PUSH2 0x2363 JUMPI POP POP POP POP PUSH1 0x11 DUP2 ADD PUSH1 0x40 DUP4 ADD MLOAD DUP1 MLOAD SWAP1 DUP7 DUP3 GT PUSH2 0x14B0 JUMPI DUP2 SWAP1 PUSH2 0x1F87 DUP5 SLOAD PUSH2 0x15B6 JUMP JUMPDEST PUSH1 0x1F DUP2 GT PUSH2 0x2331 JUMPI JUMPDEST POP PUSH1 0x20 SWAP1 PUSH1 0x1F DUP4 GT PUSH1 0x1 EQ PUSH2 0x22CB JUMPI PUSH1 0x0 SWAP3 PUSH2 0x22C0 JUMPI JUMPDEST POP POP DUP2 PUSH1 0x1 SHL SWAP2 PUSH1 0x0 NOT SWAP1 PUSH1 0x3 SHL SHR NOT AND OR SWAP1 SSTORE JUMPDEST PUSH1 0x12 DUP2 ADD PUSH1 0x60 DUP4 ADD MLOAD DUP1 MLOAD SWAP1 DUP7 DUP3 GT PUSH2 0x14B0 JUMPI DUP2 SWAP1 PUSH2 0x1FDB DUP5 SLOAD PUSH2 0x15B6 JUMP JUMPDEST PUSH1 0x1F DUP2 GT PUSH2 0x228E JUMPI JUMPDEST POP PUSH1 0x20 SWAP1 PUSH1 0x1F DUP4 GT PUSH1 0x1 EQ PUSH2 0x2228 JUMPI PUSH1 0x0 SWAP3 PUSH2 0x221D JUMPI JUMPDEST POP POP DUP2 PUSH1 0x1 SHL SWAP2 PUSH1 0x0 NOT SWAP1 PUSH1 0x3 SHL SHR NOT AND OR SWAP1 SSTORE JUMPDEST PUSH1 0x80 DUP3 ADD MLOAD PUSH1 0x13 DUP3 ADD SSTORE PUSH1 0x14 DUP2 ADD PUSH1 0xA0 DUP4 ADD MLOAD DUP1 MLOAD SWAP1 DUP7 DUP3 GT PUSH2 0x14B0 JUMPI PUSH2 0x2037 DUP4 SLOAD PUSH2 0x15B6 JUMP JUMPDEST PUSH1 0x1F DUP2 GT PUSH2 0x21EB JUMPI JUMPDEST POP PUSH1 0x20 SWAP1 PUSH1 0x1F DUP4 GT PUSH1 0x1 EQ PUSH2 0x217D JUMPI SWAP2 DUP1 PUSH1 0x15 SWAP5 SWAP3 PUSH1 0xC0 SWAP7 SWAP5 PUSH1 0x0 SWAP3 PUSH2 0x2172 JUMPI JUMPDEST POP POP DUP2 PUSH1 0x1 SHL SWAP2 PUSH1 0x0 NOT SWAP1 PUSH1 0x3 SHL SHR NOT AND OR SWAP1 SSTORE JUMPDEST ADD SWAP2 ADD MLOAD SWAP3 DUP4 MLOAD SWAP1 DUP2 GT PUSH2 0x14B0 JUMPI PUSH2 0x208E DUP3 SLOAD PUSH2 0x15B6 JUMP JUMPDEST PUSH1 0x1F DUP2 GT PUSH2 0x2135 JUMPI JUMPDEST POP PUSH1 0x20 PUSH1 0x1F DUP3 GT PUSH1 0x1 EQ PUSH2 0x20D2 JUMPI DUP2 SWAP3 SWAP4 SWAP5 PUSH1 0x0 SWAP3 PUSH2 0x20C7 JUMPI JUMPDEST POP POP DUP2 PUSH1 0x1 SHL SWAP2 PUSH1 0x0 NOT SWAP1 PUSH1 0x3 SHL SHR NOT AND OR SWAP1 SSTORE JUMP JUMPDEST ADD MLOAD SWAP1 POP CODESIZE DUP1 PUSH2 0x20B1 JUMP JUMPDEST PUSH1 0x1F NOT DUP3 AND SWAP1 DUP4 PUSH1 0x0 MSTORE PUSH1 0x20 PUSH1 0x0 KECCAK256 SWAP2 PUSH1 0x0 JUMPDEST DUP2 DUP2 LT PUSH2 0x211D JUMPI POP SWAP6 DUP4 PUSH1 0x1 SWAP6 SWAP7 SWAP8 LT PUSH2 0x2104 JUMPI JUMPDEST POP POP POP DUP2 SHL ADD SWAP1 SSTORE JUMP JUMPDEST ADD MLOAD PUSH1 0x0 NOT PUSH1 0xF8 DUP5 PUSH1 0x3 SHL AND SHR NOT AND SWAP1 SSTORE CODESIZE DUP1 DUP1 PUSH2 0x20FA JUMP JUMPDEST SWAP2 SWAP3 PUSH1 0x20 PUSH1 0x1 DUP2 SWAP3 DUP7 DUP12 ADD MLOAD DUP2 SSTORE ADD SWAP5 ADD SWAP3 ADD PUSH2 0x20E5 JUMP JUMPDEST PUSH2 0x2162 SWAP1 DUP4 PUSH1 0x0 MSTORE PUSH1 0x20 PUSH1 0x0 KECCAK256 PUSH1 0x1F DUP5 ADD PUSH1 0x5 SHR DUP2 ADD SWAP2 PUSH1 0x20 DUP6 LT PUSH2 0x2168 JUMPI JUMPDEST PUSH1 0x1F ADD PUSH1 0x5 SHR ADD SWAP1 PUSH2 0x1B63 JUMP JUMPDEST CODESIZE PUSH2 0x2097 JUMP JUMPDEST SWAP1 SWAP2 POP DUP2 SWAP1 PUSH2 0x2155 JUMP JUMPDEST ADD MLOAD SWAP1 POP CODESIZE DUP1 PUSH2 0x2061 JUMP JUMPDEST SWAP1 PUSH1 0x1F NOT DUP4 AND SWAP2 DUP5 PUSH1 0x0 MSTORE PUSH1 0x20 PUSH1 0x0 KECCAK256 SWAP3 PUSH1 0x0 JUMPDEST DUP2 DUP2 LT PUSH2 0x21D3 JUMPI POP SWAP3 PUSH1 0x1 SWAP3 DUP6 SWAP3 PUSH1 0xC0 SWAP9 SWAP7 PUSH1 0x15 SWAP9 SWAP7 LT PUSH2 0x21BA JUMPI JUMPDEST POP POP POP DUP2 SHL ADD SWAP1 SSTORE PUSH2 0x2076 JUMP JUMPDEST ADD MLOAD PUSH1 0x0 NOT PUSH1 0xF8 DUP5 PUSH1 0x3 SHL AND SHR NOT AND SWAP1 SSTORE CODESIZE DUP1 DUP1 PUSH2 0x21AD JUMP JUMPDEST SWAP3 SWAP4 PUSH1 0x20 PUSH1 0x1 DUP2 SWAP3 DUP8 DUP7 ADD MLOAD DUP2 SSTORE ADD SWAP6 ADD SWAP4 ADD PUSH2 0x2191 JUMP JUMPDEST PUSH2 0x2217 SWAP1 DUP5 PUSH1 0x0 MSTORE PUSH1 0x20 PUSH1 0x0 KECCAK256 PUSH1 0x1F DUP6 ADD PUSH1 0x5 SHR DUP2 ADD SWAP2 PUSH1 0x20 DUP7 LT PUSH2 0x2168 JUMPI PUSH1 0x1F ADD PUSH1 0x5 SHR ADD SWAP1 PUSH2 0x1B63 JUMP JUMPDEST CODESIZE PUSH2 0x2040 JUMP JUMPDEST ADD MLOAD SWAP1 POP CODESIZE DUP1 PUSH2 0x1FFB JUMP JUMPDEST PUSH1 0x0 DUP6 DUP2 MSTORE PUSH1 0x20 DUP2 KECCAK256 SWAP4 POP PUSH1 0x1F NOT DUP6 AND SWAP1 JUMPDEST DUP2 DUP2 LT PUSH2 0x2276 JUMPI POP SWAP1 DUP5 PUSH1 0x1 SWAP6 SWAP5 SWAP4 SWAP3 LT PUSH2 0x225D JUMPI JUMPDEST POP POP POP DUP2 SHL ADD SWAP1 SSTORE PUSH2 0x2010 JUMP JUMPDEST ADD MLOAD PUSH1 0x0 NOT PUSH1 0xF8 DUP5 PUSH1 0x3 SHL AND SHR NOT AND SWAP1 SSTORE CODESIZE DUP1 DUP1 PUSH2 0x2250 JUMP JUMPDEST SWAP3 SWAP4 PUSH1 0x20 PUSH1 0x1 DUP2 SWAP3 DUP8 DUP7 ADD MLOAD DUP2 SSTORE ADD SWAP6 ADD SWAP4 ADD PUSH2 0x223A JUMP JUMPDEST PUSH2 0x22BA SWAP1 DUP6 PUSH1 0x0 MSTORE PUSH1 0x20 PUSH1 0x0 KECCAK256 PUSH1 0x1F DUP6 ADD PUSH1 0x5 SHR DUP2 ADD SWAP2 PUSH1 0x20 DUP7 LT PUSH2 0x2168 JUMPI PUSH1 0x1F ADD PUSH1 0x5 SHR ADD SWAP1 PUSH2 0x1B63 JUMP JUMPDEST CODESIZE PUSH2 0x1FE4 JUMP JUMPDEST ADD MLOAD SWAP1 POP CODESIZE DUP1 PUSH2 0x1FA7 JUMP JUMPDEST PUSH1 0x0 DUP6 DUP2 MSTORE PUSH1 0x20 DUP2 KECCAK256 SWAP4 POP PUSH1 0x1F NOT DUP6 AND SWAP1 JUMPDEST DUP2 DUP2 LT PUSH2 0x2319 JUMPI POP SWAP1 DUP5 PUSH1 0x1 SWAP6 SWAP5 SWAP4 SWAP3 LT PUSH2 0x2300 JUMPI JUMPDEST POP POP POP DUP2 SHL ADD SWAP1 SSTORE PUSH2 0x1FBC JUMP JUMPDEST ADD MLOAD PUSH1 0x0 NOT PUSH1 0xF8 DUP5 PUSH1 0x3 SHL AND SHR NOT AND SWAP1 SSTORE CODESIZE DUP1 DUP1 PUSH2 0x22F3 JUMP JUMPDEST SWAP3 SWAP4 PUSH1 0x20 PUSH1 0x1 DUP2 SWAP3 DUP8 DUP7 ADD MLOAD DUP2 SSTORE ADD SWAP6 ADD SWAP4 ADD PUSH2 0x22DD JUMP JUMPDEST PUSH2 0x235D SWAP1 DUP6 PUSH1 0x0 MSTORE PUSH1 0x20 PUSH1 0x0 KECCAK256 PUSH1 0x1F DUP6 ADD PUSH1 0x5 SHR DUP2 ADD SWAP2 PUSH1 0x20 DUP7 LT PUSH2 0x2168 JUMPI PUSH1 0x1F ADD PUSH1 0x5 SHR ADD SWAP1 PUSH2 0x1B63 JUMP JUMPDEST CODESIZE PUSH2 0x1F90 JUMP JUMPDEST DUP1 MLOAD DUP1 MLOAD SWAP1 DUP10 DUP3 GT PUSH2 0x14B0 JUMPI PUSH2 0x2379 DUP5 SLOAD PUSH2 0x15B6 JUMP JUMPDEST PUSH1 0x1F DUP2 GT PUSH2 0x243F JUMPI JUMPDEST POP PUSH1 0x20 SWAP1 PUSH1 0x1F DUP4 GT PUSH1 0x1 EQ PUSH2 0x23CF JUMPI SWAP3 DUP3 PUSH1 0x1 SWAP5 SWAP4 PUSH1 0x20 SWAP4 DUP7 SWAP6 PUSH1 0x0 SWAP3 PUSH2 0x23C4 JUMPI JUMPDEST POP POP PUSH1 0x0 NOT PUSH1 0x3 DUP4 SWAP1 SHL SHR NOT AND SWAP1 DUP5 SHL OR DUP6 SSTORE JUMPDEST ADD SWAP3 ADD SWAP3 ADD SWAP2 SWAP1 PUSH2 0x1F5D JUMP JUMPDEST ADD MLOAD SWAP1 POP CODESIZE DUP1 PUSH2 0x23A4 JUMP JUMPDEST SWAP1 DUP5 PUSH1 0x0 MSTORE PUSH1 0x20 PUSH1 0x0 KECCAK256 SWAP2 PUSH1 0x0 JUMPDEST PUSH1 0x1F NOT DUP6 AND DUP2 LT PUSH2 0x2427 JUMPI POP DUP4 PUSH1 0x20 SWAP4 PUSH1 0x1 SWAP7 SWAP4 DUP8 SWAP7 SWAP4 DUP8 SWAP5 PUSH1 0x1F NOT DUP2 AND LT PUSH2 0x240E JUMPI JUMPDEST POP POP POP DUP2 SHL ADD DUP6 SSTORE PUSH2 0x23B8 JUMP JUMPDEST ADD MLOAD PUSH1 0x0 NOT PUSH1 0xF8 DUP5 PUSH1 0x3 SHL AND SHR NOT AND SWAP1 SSTORE CODESIZE DUP1 DUP1 PUSH2 0x2401 JUMP JUMPDEST SWAP2 SWAP3 PUSH1 0x20 PUSH1 0x1 DUP2 SWAP3 DUP7 DUP6 ADD MLOAD DUP2 SSTORE ADD SWAP5 ADD SWAP3 ADD PUSH2 0x23DD JUMP JUMPDEST PUSH2 0x246B SWAP1 DUP6 PUSH1 0x0 MSTORE PUSH1 0x20 PUSH1 0x0 KECCAK256 PUSH1 0x1F DUP6 ADD PUSH1 0x5 SHR DUP2 ADD SWAP2 PUSH1 0x20 DUP7 LT PUSH2 0x2168 JUMPI PUSH1 0x1F ADD PUSH1 0x5 SHR ADD SWAP1 PUSH2 0x1B63 JUMP JUMPDEST CODESIZE PUSH2 0x2382 JUMP JUMPDEST DUP3 PUSH1 0x0 MSTORE DUP4 PUSH1 0x20 PUSH1 0x0 KECCAK256 SWAP2 DUP3 ADD SWAP2 ADD JUMPDEST DUP2 DUP2 LT PUSH2 0x248E JUMPI POP PUSH2 0x1F4C JUMP JUMPDEST DUP1 PUSH2 0x249B PUSH1 0x1 SWAP3 SLOAD PUSH2 0x15B6 JUMP JUMPDEST DUP1 PUSH2 0x24A8 JUMPI JUMPDEST POP ADD PUSH2 0x2481 JUMP JUMPDEST PUSH1 0x1F DUP2 GT DUP4 EQ PUSH2 0x24BE JUMPI POP PUSH1 0x0 DUP2 SSTORE JUMPDEST CODESIZE PUSH2 0x24A1 JUMP JUMPDEST PUSH1 0x0 SWAP1 DUP3 DUP3 MSTORE PUSH2 0x24DC PUSH1 0x1F PUSH1 0x20 DUP5 KECCAK256 SWAP3 ADD PUSH1 0x5 SHR DUP3 ADD DUP6 DUP4 ADD PUSH2 0x1B63 JUMP JUMPDEST DUP2 DUP4 SSTORE SSTORE PUSH2 0x24B8 JUMP JUMPDEST ADD MLOAD SWAP1 POP CODESIZE DUP1 PUSH2 0x1F18 JUMP JUMPDEST PUSH1 0x0 DUP6 DUP2 MSTORE PUSH1 0x20 DUP2 KECCAK256 SWAP4 POP PUSH1 0x1F NOT DUP6 AND SWAP1 JUMPDEST DUP2 DUP2 LT PUSH2 0x253E JUMPI POP SWAP1 DUP5 PUSH1 0x1 SWAP6 SWAP5 SWAP4 SWAP3 LT PUSH2 0x2525 JUMPI JUMPDEST POP POP POP DUP2 SHL ADD SWAP1 SSTORE PUSH2 0x1F2D JUMP JUMPDEST ADD MLOAD PUSH1 0x0 NOT PUSH1 0xF8 DUP5 PUSH1 0x3 SHL AND SHR NOT AND SWAP1 SSTORE CODESIZE DUP1 DUP1 PUSH2 0x2518 JUMP JUMPDEST SWAP3 SWAP4 PUSH1 0x20 PUSH1 0x1 DUP2 SWAP3 DUP8 DUP7 ADD MLOAD DUP2 SSTORE ADD SWAP6 ADD SWAP4 ADD PUSH2 0x2502 JUMP JUMPDEST PUSH2 0x2582 SWAP1 DUP6 PUSH1 0x0 MSTORE PUSH1 0x20 PUSH1 0x0 KECCAK256 PUSH1 0x1F DUP6 ADD PUSH1 0x5 SHR DUP2 ADD SWAP2 PUSH1 0x20 DUP7 LT PUSH2 0x2168 JUMPI PUSH1 0x1F ADD PUSH1 0x5 SHR ADD SWAP1 PUSH2 0x1B63 JUMP JUMPDEST CODESIZE PUSH2 0x1F01 JUMP JUMPDEST ADD MLOAD SWAP1 POP CODESIZE DUP1 PUSH2 0x1EC0 JUMP JUMPDEST PUSH1 0x0 DUP6 DUP2 MSTORE PUSH1 0x20 DUP2 KECCAK256 SWAP4 POP PUSH1 0x1F NOT DUP6 AND SWAP1 JUMPDEST DUP2 DUP2 LT PUSH2 0x25E1 JUMPI POP SWAP1 DUP5 PUSH1 0x1 SWAP6 SWAP5 SWAP4 SWAP3 LT PUSH2 0x25C8 JUMPI JUMPDEST POP POP POP DUP2 SHL ADD SWAP1 SSTORE PUSH2 0x1ED5 JUMP JUMPDEST ADD MLOAD PUSH1 0x0 NOT PUSH1 0xF8 DUP5 PUSH1 0x3 SHL AND SHR NOT AND SWAP1 SSTORE CODESIZE DUP1 DUP1 PUSH2 0x25BB JUMP JUMPDEST SWAP3 SWAP4 PUSH1 0x20 PUSH1 0x1 DUP2 SWAP3 DUP8 DUP7 ADD MLOAD DUP2 SSTORE ADD SWAP6 ADD SWAP4 ADD PUSH2 0x25A5 JUMP JUMPDEST PUSH2 0x2625 SWAP1 DUP6 PUSH1 0x0 MSTORE PUSH1 0x20 PUSH1 0x0 KECCAK256 PUSH1 0x1F DUP6 ADD PUSH1 0x5 SHR DUP2 ADD SWAP2 PUSH1 0x20 DUP7 LT PUSH2 0x2168 JUMPI PUSH1 0x1F ADD PUSH1 0x5 SHR ADD SWAP1 PUSH2 0x1B63 JUMP JUMPDEST CODESIZE PUSH2 0x1EA9 JUMP JUMPDEST ADD MLOAD SWAP1 POP CODESIZE DUP1 PUSH2 0x1E6D JUMP JUMPDEST SWAP3 POP DUP4 PUSH1 0x0 MSTORE PUSH1 0x20 PUSH1 0x0 KECCAK256 SWAP1 PUSH1 0x0 SWAP4 JUMPDEST PUSH1 0x1F NOT DUP5 AND DUP6 LT PUSH2 0x2687 JUMPI PUSH1 0x1 SWAP5 POP DUP4 PUSH1 0x1F NOT DUP2 AND LT PUSH2 0x266E JUMPI JUMPDEST POP POP POP DUP2 SHL ADD SWAP1 SSTORE PUSH2 0x1E82 JUMP JUMPDEST ADD MLOAD PUSH1 0x0 NOT PUSH1 0xF8 DUP5 PUSH1 0x3 SHL AND SHR NOT AND SWAP1 SSTORE CODESIZE DUP1 DUP1 PUSH2 0x2661 JUMP JUMPDEST DUP2 DUP2 ADD MLOAD DUP4 SSTORE PUSH1 0x20 SWAP5 DUP6 ADD SWAP5 PUSH1 0x1 SWAP1 SWAP4 ADD SWAP3 SWAP1 SWAP2 ADD SWAP1 PUSH2 0x2646 JUMP JUMPDEST PUSH2 0x26CE SWAP1 DUP6 PUSH1 0x0 MSTORE PUSH1 0x20 PUSH1 0x0 KECCAK256 PUSH1 0x1F DUP6 ADD PUSH1 0x5 SHR DUP2 ADD SWAP2 PUSH1 0x20 DUP7 LT PUSH2 0x2168 JUMPI PUSH1 0x1F ADD PUSH1 0x5 SHR ADD SWAP1 PUSH2 0x1B63 JUMP JUMPDEST CODESIZE PUSH2 0x1E56 JUMP JUMPDEST ADD MLOAD SWAP1 POP CODESIZE DUP1 PUSH2 0x1E19 JUMP JUMPDEST SWAP3 POP DUP4 PUSH1 0x0 MSTORE PUSH1 0x20 PUSH1 0x0 KECCAK256 SWAP1 PUSH1 0x0 SWAP4 JUMPDEST PUSH1 0x1F NOT DUP5 AND DUP6 LT PUSH2 0x2730 JUMPI PUSH1 0x1 SWAP5 POP DUP4 PUSH1 0x1F NOT DUP2 AND LT PUSH2 0x2717 JUMPI JUMPDEST POP POP POP DUP2 SHL ADD SWAP1 SSTORE PUSH2 0x1E2E JUMP JUMPDEST ADD MLOAD PUSH1 0x0 NOT PUSH1 0xF8 DUP5 PUSH1 0x3 SHL AND SHR NOT AND SWAP1 SSTORE CODESIZE DUP1 DUP1 PUSH2 0x270A JUMP JUMPDEST DUP2 DUP2 ADD MLOAD DUP4 SSTORE PUSH1 0x20 SWAP5 DUP6 ADD SWAP5 PUSH1 0x1 SWAP1 SWAP4 ADD SWAP3 SWAP1 SWAP2 ADD SWAP1 PUSH2 0x26EF JUMP JUMPDEST PUSH2 0x2777 SWAP1 DUP6 PUSH1 0x0 MSTORE PUSH1 0x20 PUSH1 0x0 KECCAK256 PUSH1 0x1F DUP6 ADD PUSH1 0x5 SHR DUP2 ADD SWAP2 PUSH1 0x20 DUP7 LT PUSH2 0x2168 JUMPI PUSH1 0x1F ADD PUSH1 0x5 SHR ADD SWAP1 PUSH2 0x1B63 JUMP JUMPDEST CODESIZE PUSH2 0x1E02 JUMP JUMPDEST ADD MLOAD SWAP1 POP CODESIZE DUP1 PUSH2 0x1DC5 JUMP JUMPDEST SWAP3 POP DUP4 PUSH1 0x0 MSTORE PUSH1 0x20 PUSH1 0x0 KECCAK256 SWAP1 PUSH1 0x0 SWAP4 JUMPDEST PUSH1 0x1F NOT DUP5 AND DUP6 LT PUSH2 0x27D9 JUMPI PUSH1 0x1 SWAP5 POP DUP4 PUSH1 0x1F NOT DUP2 AND LT PUSH2 0x27C0 JUMPI JUMPDEST POP POP POP DUP2 SHL ADD SWAP1 SSTORE PUSH2 0x1DDA JUMP JUMPDEST ADD MLOAD PUSH1 0x0 NOT PUSH1 0xF8 DUP5 PUSH1 0x3 SHL AND SHR NOT AND SWAP1 SSTORE CODESIZE DUP1 DUP1 PUSH2 0x27B3 JUMP JUMPDEST DUP2 DUP2 ADD MLOAD DUP4 SSTORE PUSH1 0x20 SWAP5 DUP6 ADD SWAP5 PUSH1 0x1 SWAP1 SWAP4 ADD SWAP3 SWAP1 SWAP2 ADD SWAP1 PUSH2 0x2798 JUMP JUMPDEST PUSH2 0x2820 SWAP1 DUP6 PUSH1 0x0 MSTORE PUSH1 0x20 PUSH1 0x0 KECCAK256 PUSH1 0x1F DUP6 ADD PUSH1 0x5 SHR DUP2 ADD SWAP2 PUSH1 0x20 DUP7 LT PUSH2 0x2168 JUMPI PUSH1 0x1F ADD PUSH1 0x5 SHR ADD SWAP1 PUSH2 0x1B63 JUMP JUMPDEST CODESIZE PUSH2 0x1DAE JUMP JUMPDEST ADD MLOAD SWAP1 POP CODESIZE DUP1 PUSH2 0x1D71 JUMP JUMPDEST SWAP3 POP DUP4 PUSH1 0x0 MSTORE PUSH1 0x20 PUSH1 0x0 KECCAK256 SWAP1 PUSH1 0x0 SWAP4 JUMPDEST PUSH1 0x1F NOT DUP5 AND DUP6 LT PUSH2 0x2882 JUMPI PUSH1 0x1 SWAP5 POP DUP4 PUSH1 0x1F NOT DUP2 AND LT PUSH2 0x2869 JUMPI JUMPDEST POP POP POP DUP2 SHL ADD SWAP1 SSTORE PUSH2 0x1D86 JUMP JUMPDEST ADD MLOAD PUSH1 0x0 NOT PUSH1 0xF8 DUP5 PUSH1 0x3 SHL AND SHR NOT AND SWAP1 SSTORE CODESIZE DUP1 DUP1 PUSH2 0x285C JUMP JUMPDEST DUP2 DUP2 ADD MLOAD DUP4 SSTORE PUSH1 0x20 SWAP5 DUP6 ADD SWAP5 PUSH1 0x1 SWAP1 SWAP4 ADD SWAP3 SWAP1 SWAP2 ADD SWAP1 PUSH2 0x2841 JUMP JUMPDEST PUSH2 0x28C9 SWAP1 DUP6 PUSH1 0x0 MSTORE PUSH1 0x20 PUSH1 0x0 KECCAK256 PUSH1 0x1F DUP6 ADD PUSH1 0x5 SHR DUP2 ADD SWAP2 PUSH1 0x20 DUP7 LT PUSH2 0x2168 JUMPI PUSH1 0x1F ADD PUSH1 0x5 SHR ADD SWAP1 PUSH2 0x1B63 JUMP JUMPDEST CODESIZE PUSH2 0x1D5A JUMP JUMPDEST ADD MLOAD SWAP1 POP CODESIZE DUP1 PUSH2 0x1D1D JUMP JUMPDEST SWAP3 POP DUP4 PUSH1 0x0 MSTORE PUSH1 0x20 PUSH1 0x0 KECCAK256 SWAP1 PUSH1 0x0 SWAP4 JUMPDEST PUSH1 0x1F NOT DUP5 AND DUP6 LT PUSH2 0x292B JUMPI PUSH1 0x1 SWAP5 POP DUP4 PUSH1 0x1F NOT DUP2 AND LT PUSH2 0x2912 JUMPI JUMPDEST POP POP POP DUP2 SHL ADD SWAP1 SSTORE PUSH2 0x1D32 JUMP JUMPDEST ADD MLOAD PUSH1 0x0 NOT PUSH1 0xF8 DUP5 PUSH1 0x3 SHL AND SHR NOT AND SWAP1 SSTORE CODESIZE DUP1 DUP1 PUSH2 0x2905 JUMP JUMPDEST DUP2 DUP2 ADD MLOAD DUP4 SSTORE PUSH1 0x20 SWAP5 DUP6 ADD SWAP5 PUSH1 0x1 SWAP1 SWAP4 ADD SWAP3 SWAP1 SWAP2 ADD SWAP1 PUSH2 0x28EA JUMP JUMPDEST PUSH2 0x2972 SWAP1 DUP6 PUSH1 0x0 MSTORE PUSH1 0x20 PUSH1 0x0 KECCAK256 PUSH1 0x1F DUP6 ADD PUSH1 0x5 SHR DUP2 ADD SWAP2 PUSH1 0x20 DUP7 LT PUSH2 0x2168 JUMPI PUSH1 0x1F ADD PUSH1 0x5 SHR ADD SWAP1 PUSH2 0x1B63 JUMP JUMPDEST CODESIZE PUSH2 0x1D06 JUMP JUMPDEST ADD MLOAD SWAP1 POP CODESIZE DUP1 PUSH2 0x1CC9 JUMP JUMPDEST SWAP3 POP DUP4 PUSH1 0x0 MSTORE PUSH1 0x20 PUSH1 0x0 KECCAK256 SWAP1 PUSH1 0x0 SWAP4 JUMPDEST PUSH1 0x1F NOT DUP5 AND DUP6 LT PUSH2 0x29D4 JUMPI PUSH1 0x1 SWAP5 POP DUP4 PUSH1 0x1F NOT DUP2 AND LT PUSH2 0x29BB JUMPI JUMPDEST POP POP POP DUP2 SHL ADD SWAP1 SSTORE PUSH2 0x1CDE JUMP JUMPDEST ADD MLOAD PUSH1 0x0 NOT PUSH1 0xF8 DUP5 PUSH1 0x3 SHL AND SHR NOT AND SWAP1 SSTORE CODESIZE DUP1 DUP1 PUSH2 0x29AE JUMP JUMPDEST DUP2 DUP2 ADD MLOAD DUP4 SSTORE PUSH1 0x20 SWAP5 DUP6 ADD SWAP5 PUSH1 0x1 SWAP1 SWAP4 ADD SWAP3 SWAP1 SWAP2 ADD SWAP1 PUSH2 0x2993 JUMP JUMPDEST PUSH2 0x2A1B SWAP1 DUP6 PUSH1 0x0 MSTORE PUSH1 0x20 PUSH1 0x0 KECCAK256 PUSH1 0x1F DUP6 ADD PUSH1 0x5 SHR DUP2 ADD SWAP2 PUSH1 0x20 DUP7 LT PUSH2 0x2168 JUMPI PUSH1 0x1F ADD PUSH1 0x5 SHR ADD SWAP1 PUSH2 0x1B63 JUMP JUMPDEST CODESIZE PUSH2 0x1CB2 JUMP JUMPDEST ADD MLOAD SWAP1 POP CODESIZE DUP1 PUSH2 0x1C75 JUMP JUMPDEST SWAP3 POP DUP4 PUSH1 0x0 MSTORE PUSH1 0x20 PUSH1 0x0 KECCAK256 SWAP1 PUSH1 0x0 SWAP4 JUMPDEST PUSH1 0x1F NOT DUP5 AND DUP6 LT PUSH2 0x2A7D JUMPI PUSH1 0x1 SWAP5 POP DUP4 PUSH1 0x1F NOT DUP2 AND LT PUSH2 0x2A64 JUMPI JUMPDEST POP POP POP DUP2 SHL ADD SWAP1 SSTORE PUSH2 0x1C8A JUMP JUMPDEST ADD MLOAD PUSH1 0x0 NOT PUSH1 0xF8 DUP5 PUSH1 0x3 SHL AND SHR NOT AND SWAP1 SSTORE CODESIZE DUP1 DUP1 PUSH2 0x2A57 JUMP JUMPDEST DUP2 DUP2 ADD MLOAD DUP4 SSTORE PUSH1 0x20 SWAP5 DUP6 ADD SWAP5 PUSH1 0x1 SWAP1 SWAP4 ADD SWAP3 SWAP1 SWAP2 ADD SWAP1 PUSH2 0x2A3C JUMP JUMPDEST PUSH2 0x2AC4 SWAP1 DUP6 PUSH1 0x0 MSTORE PUSH1 0x20 PUSH1 0x0 KECCAK256 PUSH1 0x1F DUP6 ADD PUSH1 0x5 SHR DUP2 ADD SWAP2 PUSH1 0x20 DUP7 LT PUSH2 0x2168 JUMPI PUSH1 0x1F ADD PUSH1 0x5 SHR ADD SWAP1 PUSH2 0x1B63 JUMP JUMPDEST CODESIZE PUSH2 0x1C5E JUMP JUMPDEST PUSH4 0x4E487B71 PUSH1 0xE0 SHL PUSH1 0x0 MSTORE PUSH1 0x0 PUSH1 0x4 MSTORE PUSH1 0x24 PUSH1 0x0 REVERT JUMPDEST PUSH1 0x0 NOT DUP2 EQ PUSH2 0x94D JUMPI PUSH1 0x1 ADD SWAP1 JUMP JUMPDEST PUSH1 0x0 SWAP2 DUP3 SWAP2 DUP3 SWAP2 DUP3 SWAP2 PUSH1 0x1 PUSH1 0x1 PUSH1 0xA0 SHL SUB AND GAS CALL RETURNDATASIZE ISZERO PUSH2 0x2B6A JUMPI RETURNDATASIZE PUSH2 0x2B13 DUP2 PUSH2 0x1521 JUMP JUMPDEST SWAP1 PUSH2 0x2B21 PUSH1 0x40 MLOAD SWAP3 DUP4 PUSH2 0x14FF JUMP JUMPDEST DUP2 MSTORE PUSH1 0x0 PUSH1 0x20 RETURNDATASIZE SWAP3 ADD RETURNDATACOPY JUMPDEST ISZERO PUSH2 0x2B33 JUMPI JUMP JUMPDEST PUSH1 0x40 MLOAD PUSH3 0x461BCD PUSH1 0xE5 SHL DUP2 MSTORE PUSH1 0x20 PUSH1 0x4 DUP3 ADD MSTORE PUSH1 0xF PUSH1 0x24 DUP3 ADD MSTORE PUSH15 0x151C985B9CD9995C8819985A5B1959 PUSH1 0x8A SHL PUSH1 0x44 DUP3 ADD MSTORE PUSH1 0x64 SWAP1 REVERT JUMPDEST PUSH2 0x2B2C JUMP INVALID LOG2 PUSH5 0x6970667358 0x22 SLT KECCAK256 0xC7 0x2C 0x4C PUSH8 0x1D32CDD0E9C2CE0D 0xA8 0xD8 0xA5 SMOD DUP13 PUSH29 0x8C311B851A4F0AA96595072DCFF364736F6C6343000813003300000000 "},"methodIdentifiers":{"buyerPurchaseHistory(address,uint256)":"9fa44dbf","getBuyerPurchaseHistory(address)":"b27e1697","getSellerBalance(address)":"2148893f","getSellerPurchaseHistory(address)":"3c2575d5","hemShop()":"f7ac228e","markPurchaseDelivered(uint256,address)":"11aa5b34","owner()":"8da5cb5b","productManager()":"f426306f","recordPurchase(uint256,address,address,uint256,uint256,(string,string,string,string,string,string,string,string),string,string,uint256)":"731bc05d","renounceOwnership()":"715018a6","sellerBalances(address)":"607eb4e4","sellerPurchaseHistory(address,uint256)":"e585cb2c","servicePct()":"e01ef6e6","setHemShop(address)":"cc640d01","transferOwnership(address)":"f2fde38b","userSellerManager()":"b749293a","withdraw()":"3ccfd60b"}}}}}