{"contracts/HemShop.sol":{"HemShop":{"abi":[{"inputs":[{"internalType":"uint256","name":"_pct","type":"uint256"}],"stateMutability":"nonpayable","type":"constructor"},{"anonymous":false,"inputs":[{"indexed":false,"internalType":"address","name":"admin","type":"address"},{"indexed":false,"internalType":"address","name":"impersonatedAccount","type":"address"}],"name":"AdminImpersonationChanged","type":"event"},{"anonymous":false,"inputs":[{"indexed":true,"internalType":"address","name":"owner","type":"address"},{"indexed":true,"internalType":"address","name":"approved","type":"address"},{"indexed":true,"internalType":"uint256","name":"tokenId","type":"uint256"}],"name":"Approval","type":"event"},{"anonymous":false,"inputs":[{"indexed":true,"internalType":"address","name":"owner","type":"address"},{"indexed":true,"internalType":"address","name":"operator","type":"address"},{"indexed":false,"internalType":"bool","name":"approved","type":"bool"}],"name":"ApprovalForAll","type":"event"},{"anonymous":false,"inputs":[{"indexed":true,"internalType":"address","name":"seller","type":"address"},{"indexed":false,"internalType":"uint256","name":"newBalance","type":"uint256"}],"name":"BalanceUpdated","type":"event"},{"anonymous":false,"inputs":[{"indexed":true,"internalType":"uint256","name":"id","type":"uint256"},{"indexed":false,"internalType":"string","name":"name","type":"string"}],"name":"CategoryCreated","type":"event"},{"anonymous":false,"inputs":[{"indexed":true,"internalType":"uint256","name":"id","type":"uint256"},{"indexed":false,"internalType":"string","name":"name","type":"string"},{"indexed":false,"internalType":"bool","name":"isActive","type":"bool"}],"name":"CategoryUpdated","type":"event"},{"anonymous":false,"inputs":[{"indexed":true,"internalType":"uint256","name":"productId","type":"uint256"},{"indexed":true,"internalType":"address","name":"buyer","type":"address"},{"indexed":false,"internalType":"bool","name":"isDelivered","type":"bool"}],"name":"DeliveryStatusUpdated","type":"event"},{"anonymous":false,"inputs":[{"indexed":true,"internalType":"address","name":"previousOwner","type":"address"},{"indexed":true,"internalType":"address","name":"newOwner","type":"address"}],"name":"OwnershipTransferred","type":"event"},{"anonymous":false,"inputs":[{"indexed":true,"internalType":"uint256","name":"productId","type":"uint256"},{"indexed":true,"internalType":"address","name":"buyer","type":"address"},{"indexed":true,"internalType":"address","name":"seller","type":"address"},{"indexed":false,"internalType":"uint256","name":"price","type":"uint256"},{"indexed":false,"internalType":"uint256","name":"timestamp","type":"uint256"}],"name":"ProductPurchased","type":"event"},{"anonymous":false,"inputs":[{"indexed":true,"internalType":"uint256","name":"productId","type":"uint256"},{"indexed":true,"internalType":"address","name":"buyer","type":"address"},{"indexed":true,"internalType":"address","name":"seller","type":"address"},{"indexed":false,"internalType":"uint256","name":"totalAmount","type":"uint256"},{"indexed":false,"internalType":"uint256","name":"basePrice","type":"uint256"},{"indexed":false,"internalType":"uint256","name":"timestamp","type":"uint256"}],"name":"PurchaseRecorded","type":"event"},{"anonymous":false,"inputs":[{"indexed":true,"internalType":"address","name":"seller","type":"address"},{"indexed":false,"internalType":"uint256","name":"timestamp","type":"uint256"}],"name":"SellerRegistered","type":"event"},{"anonymous":false,"inputs":[{"indexed":true,"internalType":"address","name":"seller","type":"address"},{"indexed":false,"internalType":"enum HemShop.SellerStatus","name":"status","type":"uint8"}],"name":"SellerStatusUpdated","type":"event"},{"anonymous":false,"inputs":[{"indexed":true,"internalType":"uint256","name":"id","type":"uint256"},{"indexed":true,"internalType":"uint256","name":"parentId","type":"uint256"},{"indexed":false,"internalType":"string","name":"name","type":"string"}],"name":"SubCategoryCreated","type":"event"},{"anonymous":false,"inputs":[{"indexed":true,"internalType":"uint256","name":"id","type":"uint256"},{"indexed":false,"internalType":"string","name":"name","type":"string"},{"indexed":false,"internalType":"bool","name":"isActive","type":"bool"}],"name":"SubCategoryUpdated","type":"event"},{"anonymous":false,"inputs":[{"indexed":true,"internalType":"address","name":"from","type":"address"},{"indexed":true,"internalType":"address","name":"to","type":"address"},{"indexed":true,"internalType":"uint256","name":"tokenId","type":"uint256"}],"name":"Transfer","type":"event"},{"anonymous":false,"inputs":[{"indexed":true,"internalType":"address","name":"user","type":"address"},{"indexed":false,"internalType":"string","name":"name","type":"string"}],"name":"UserRegistered","type":"event"},{"inputs":[{"internalType":"address","name":"","type":"address"}],"name":"adminImpersonating","outputs":[{"internalType":"address","name":"","type":"address"}],"stateMutability":"view","type":"function"},{"inputs":[{"internalType":"address","name":"to","type":"address"},{"internalType":"uint256","name":"tokenId","type":"uint256"}],"name":"approve","outputs":[],"stateMutability":"nonpayable","type":"function"},{"inputs":[{"internalType":"address","name":"owner","type":"address"}],"name":"balanceOf","outputs":[{"internalType":"uint256","name":"","type":"uint256"}],"stateMutability":"view","type":"function"},{"inputs":[{"internalType":"uint256","name":"productId","type":"uint256"},{"components":[{"internalType":"string","name":"fullName","type":"string"},{"internalType":"string","name":"streetAddress","type":"string"},{"internalType":"string","name":"city","type":"string"},{"internalType":"string","name":"state","type":"string"},{"internalType":"string","name":"country","type":"string"},{"internalType":"string","name":"postalCode","type":"string"},{"internalType":"string","name":"phone","type":"string"},{"internalType":"string","name":"email","type":"string"}],"internalType":"struct HemShop.ShippingDetails","name":"shippingDetails","type":"tuple"},{"internalType":"string","name":"selectedColor","type":"string"},{"internalType":"string","name":"selectedSize","type":"string"},{"internalType":"uint256","name":"quantity","type":"uint256"}],"name":"buyProduct","outputs":[],"stateMutability":"payable","type":"function"},{"inputs":[{"internalType":"address","name":"","type":"address"},{"internalType":"uint256","name":"","type":"uint256"}],"name":"buyerPurchaseHistory","outputs":[{"internalType":"uint256","name":"productId","type":"uint256"},{"internalType":"uint256","name":"totalAmount","type":"uint256"},{"internalType":"uint256","name":"basePrice","type":"uint256"},{"internalType":"uint256","name":"timestamp","type":"uint256"},{"internalType":"uint256","name":"lastUpdated","type":"uint256"},{"internalType":"address","name":"buyer","type":"address"},{"internalType":"address","name":"seller","type":"address"},{"internalType":"bool","name":"isDelivered","type":"bool"},{"components":[{"internalType":"string","name":"fullName","type":"string"},{"internalType":"string","name":"streetAddress","type":"string"},{"internalType":"string","name":"city","type":"string"},{"internalType":"string","name":"state","type":"string"},{"internalType":"string","name":"country","type":"string"},{"internalType":"string","name":"postalCode","type":"string"},{"internalType":"string","name":"phone","type":"string"},{"internalType":"string","name":"email","type":"string"}],"internalType":"struct HemShop.ShippingDetails","name":"shippingDetails","type":"tuple"},{"components":[{"internalType":"string","name":"name","type":"string"},{"internalType":"string[]","name":"images","type":"string[]"},{"internalType":"string","name":"selectedColor","type":"string"},{"internalType":"string","name":"selectedSize","type":"string"},{"internalType":"uint256","name":"quantity","type":"uint256"},{"internalType":"string","name":"category","type":"string"},{"internalType":"string","name":"description","type":"string"}],"internalType":"struct HemShop.OrderDetails","name":"orderDetails","type":"tuple"}],"stateMutability":"view","type":"function"},{"inputs":[{"internalType":"uint256","name":"newPct","type":"uint256"}],"name":"changeServicePct","outputs":[],"stateMutability":"nonpayable","type":"function"},{"inputs":[{"internalType":"string","name":"_name","type":"string"}],"name":"createCategory","outputs":[],"stateMutability":"nonpayable","type":"function"},{"inputs":[{"components":[{"internalType":"string","name":"name","type":"string"},{"internalType":"string","name":"description","type":"string"},{"internalType":"uint256","name":"price","type":"uint256"},{"internalType":"uint256","name":"stock","type":"uint256"},{"internalType":"string[]","name":"colors","type":"string[]"},{"internalType":"string[]","name":"sizes","type":"string[]"},{"internalType":"string[]","name":"images","type":"string[]"},{"internalType":"uint256","name":"categoryId","type":"uint256"},{"internalType":"uint256","name":"subCategoryId","type":"uint256"},{"internalType":"uint256","name":"weight","type":"uint256"},{"internalType":"string","name":"model","type":"string"},{"internalType":"string","name":"brand","type":"string"},{"internalType":"uint256","name":"sku","type":"uint256"}],"internalType":"struct HemShop.ProductInput","name":"input","type":"tuple"}],"name":"createProduct","outputs":[],"stateMutability":"nonpayable","type":"function"},{"inputs":[{"internalType":"uint256","name":"productId","type":"uint256"},{"internalType":"uint256","name":"rating","type":"uint256"},{"internalType":"string","name":"comment","type":"string"}],"name":"createReview","outputs":[],"stateMutability":"nonpayable","type":"function"},{"inputs":[{"internalType":"uint256","name":"parentId","type":"uint256"},{"internalType":"string[]","name":"names","type":"string[]"}],"name":"createSubCategoriesBulk","outputs":[],"stateMutability":"nonpayable","type":"function"},{"inputs":[{"internalType":"uint256","name":"_parentId","type":"uint256"},{"internalType":"string","name":"_name","type":"string"}],"name":"createSubCategory","outputs":[],"stateMutability":"nonpayable","type":"function"},{"inputs":[{"internalType":"uint256","name":"_id","type":"uint256"}],"name":"deleteCategory","outputs":[],"stateMutability":"nonpayable","type":"function"},{"inputs":[{"internalType":"uint256","name":"productId","type":"uint256"}],"name":"deleteProduct","outputs":[],"stateMutability":"nonpayable","type":"function"},{"inputs":[{"internalType":"uint256","name":"productId","type":"uint256"},{"internalType":"uint256","name":"reviewId","type":"uint256"}],"name":"deleteReview","outputs":[],"stateMutability":"nonpayable","type":"function"},{"inputs":[{"internalType":"uint256","name":"_id","type":"uint256"}],"name":"deleteSubCategory","outputs":[],"stateMutability":"nonpayable","type":"function"},{"inputs":[],"name":"getAllCategories","outputs":[{"internalType":"uint256[]","name":"ids","type":"uint256[]"},{"internalType":"string[]","name":"names","type":"string[]"},{"internalType":"bool[]","name":"activeStates","type":"bool[]"},{"internalType":"uint256[][]","name":"subCategoryIdArrays","type":"uint256[][]"}],"stateMutability":"view","type":"function"},{"inputs":[],"name":"getAllProducts","outputs":[{"components":[{"internalType":"uint256","name":"id","type":"uint256"},{"internalType":"address","name":"seller","type":"address"},{"internalType":"string","name":"name","type":"string"},{"internalType":"string","name":"description","type":"string"},{"internalType":"uint256","name":"price","type":"uint256"},{"internalType":"uint256","name":"stock","type":"uint256"},{"internalType":"string[]","name":"colors","type":"string[]"},{"internalType":"string[]","name":"sizes","type":"string[]"},{"internalType":"string[]","name":"images","type":"string[]"},{"internalType":"string","name":"category","type":"string"},{"internalType":"string","name":"subCategory","type":"string"},{"internalType":"uint256","name":"weight","type":"uint256"},{"internalType":"string","name":"model","type":"string"},{"internalType":"string","name":"brand","type":"string"},{"internalType":"uint256","name":"sku","type":"uint256"},{"internalType":"bool","name":"soldout","type":"bool"},{"internalType":"bool","name":"wishlist","type":"bool"},{"internalType":"bool","name":"deleted","type":"bool"},{"components":[{"internalType":"uint256","name":"reviewId","type":"uint256"},{"internalType":"address","name":"reviewer","type":"address"},{"internalType":"uint256","name":"rating","type":"uint256"},{"internalType":"string","name":"comment","type":"string"},{"internalType":"bool","name":"deleted","type":"bool"},{"internalType":"uint256","name":"timestamp","type":"uint256"}],"internalType":"struct HemShop.ReviewStruct[]","name":"reviews","type":"tuple[]"}],"internalType":"struct HemShop.ProductStruct[]","name":"","type":"tuple[]"}],"stateMutability":"view","type":"function"},{"inputs":[],"name":"getAllRegisteredSellers","outputs":[{"internalType":"address[]","name":"","type":"address[]"}],"stateMutability":"view","type":"function"},{"inputs":[{"internalType":"uint256","name":"tokenId","type":"uint256"}],"name":"getApproved","outputs":[{"internalType":"address","name":"","type":"address"}],"stateMutability":"view","type":"function"},{"inputs":[{"internalType":"address","name":"buyer","type":"address"}],"name":"getBuyerPurchaseHistory","outputs":[{"components":[{"internalType":"uint256","name":"productId","type":"uint256"},{"internalType":"uint256","name":"totalAmount","type":"uint256"},{"internalType":"uint256","name":"basePrice","type":"uint256"},{"internalType":"uint256","name":"timestamp","type":"uint256"},{"internalType":"uint256","name":"lastUpdated","type":"uint256"},{"internalType":"address","name":"buyer","type":"address"},{"internalType":"address","name":"seller","type":"address"},{"internalType":"bool","name":"isDelivered","type":"bool"},{"components":[{"internalType":"string","name":"fullName","type":"string"},{"internalType":"string","name":"streetAddress","type":"string"},{"internalType":"string","name":"city","type":"string"},{"internalType":"string","name":"state","type":"string"},{"internalType":"string","name":"country","type":"string"},{"internalType":"string","name":"postalCode","type":"string"},{"internalType":"string","name":"phone","type":"string"},{"internalType":"string","name":"email","type":"string"}],"internalType":"struct HemShop.ShippingDetails","name":"shippingDetails","type":"tuple"},{"components":[{"internalType":"string","name":"name","type":"string"},{"internalType":"string[]","name":"images","type":"string[]"},{"internalType":"string","name":"selectedColor","type":"string"},{"internalType":"string","name":"selectedSize","type":"string"},{"internalType":"uint256","name":"quantity","type":"uint256"},{"internalType":"string","name":"category","type":"string"},{"internalType":"string","name":"description","type":"string"}],"internalType":"struct HemShop.OrderDetails","name":"orderDetails","type":"tuple"}],"internalType":"struct HemShop.PurchaseHistoryStruct[]","name":"","type":"tuple[]"}],"stateMutability":"view","type":"function"},{"inputs":[{"internalType":"uint256","name":"_id","type":"uint256"}],"name":"getCategory","outputs":[{"internalType":"uint256","name":"id","type":"uint256"},{"internalType":"string","name":"name","type":"string"},{"internalType":"bool","name":"isActive","type":"bool"},{"internalType":"uint256[]","name":"subCategoryIds","type":"uint256[]"}],"stateMutability":"view","type":"function"},{"inputs":[],"name":"getMyProducts","outputs":[{"components":[{"internalType":"uint256","name":"id","type":"uint256"},{"internalType":"address","name":"seller","type":"address"},{"internalType":"string","name":"name","type":"string"},{"internalType":"string","name":"description","type":"string"},{"internalType":"uint256","name":"price","type":"uint256"},{"internalType":"uint256","name":"stock","type":"uint256"},{"internalType":"string[]","name":"colors","type":"string[]"},{"internalType":"string[]","name":"sizes","type":"string[]"},{"internalType":"string[]","name":"images","type":"string[]"},{"internalType":"string","name":"category","type":"string"},{"internalType":"string","name":"subCategory","type":"string"},{"internalType":"uint256","name":"weight","type":"uint256"},{"internalType":"string","name":"model","type":"string"},{"internalType":"string","name":"brand","type":"string"},{"internalType":"uint256","name":"sku","type":"uint256"},{"internalType":"bool","name":"soldout","type":"bool"},{"internalType":"bool","name":"wishlist","type":"bool"},{"internalType":"bool","name":"deleted","type":"bool"},{"components":[{"internalType":"uint256","name":"reviewId","type":"uint256"},{"internalType":"address","name":"reviewer","type":"address"},{"internalType":"uint256","name":"rating","type":"uint256"},{"internalType":"string","name":"comment","type":"string"},{"internalType":"bool","name":"deleted","type":"bool"},{"internalType":"uint256","name":"timestamp","type":"uint256"}],"internalType":"struct HemShop.ReviewStruct[]","name":"reviews","type":"tuple[]"}],"internalType":"struct HemShop.ProductStruct[]","name":"","type":"tuple[]"}],"stateMutability":"view","type":"function"},{"inputs":[{"internalType":"uint256","name":"productId","type":"uint256"}],"name":"getProduct","outputs":[{"components":[{"internalType":"uint256","name":"id","type":"uint256"},{"internalType":"address","name":"seller","type":"address"},{"internalType":"string","name":"name","type":"string"},{"internalType":"string","name":"description","type":"string"},{"internalType":"uint256","name":"price","type":"uint256"},{"internalType":"uint256","name":"stock","type":"uint256"},{"internalType":"string[]","name":"colors","type":"string[]"},{"internalType":"string[]","name":"sizes","type":"string[]"},{"internalType":"string[]","name":"images","type":"string[]"},{"internalType":"string","name":"category","type":"string"},{"internalType":"string","name":"subCategory","type":"string"},{"internalType":"uint256","name":"weight","type":"uint256"},{"internalType":"string","name":"model","type":"string"},{"internalType":"string","name":"brand","type":"string"},{"internalType":"uint256","name":"sku","type":"uint256"},{"internalType":"bool","name":"soldout","type":"bool"},{"internalType":"bool","name":"wishlist","type":"bool"},{"internalType":"bool","name":"deleted","type":"bool"},{"components":[{"internalType":"uint256","name":"reviewId","type":"uint256"},{"internalType":"address","name":"reviewer","type":"address"},{"internalType":"uint256","name":"rating","type":"uint256"},{"internalType":"string","name":"comment","type":"string"},{"internalType":"bool","name":"deleted","type":"bool"},{"internalType":"uint256","name":"timestamp","type":"uint256"}],"internalType":"struct HemShop.ReviewStruct[]","name":"reviews","type":"tuple[]"}],"internalType":"struct HemShop.ProductStruct","name":"","type":"tuple"}],"stateMutability":"view","type":"function"},{"inputs":[{"internalType":"string","name":"categoryName","type":"string"}],"name":"getProductsByCategory","outputs":[{"components":[{"internalType":"uint256","name":"id","type":"uint256"},{"internalType":"address","name":"seller","type":"address"},{"internalType":"string","name":"name","type":"string"},{"internalType":"string","name":"description","type":"string"},{"internalType":"uint256","name":"price","type":"uint256"},{"internalType":"uint256","name":"stock","type":"uint256"},{"internalType":"string[]","name":"colors","type":"string[]"},{"internalType":"string[]","name":"sizes","type":"string[]"},{"internalType":"string[]","name":"images","type":"string[]"},{"internalType":"string","name":"category","type":"string"},{"internalType":"string","name":"subCategory","type":"string"},{"internalType":"uint256","name":"weight","type":"uint256"},{"internalType":"string","name":"model","type":"string"},{"internalType":"string","name":"brand","type":"string"},{"internalType":"uint256","name":"sku","type":"uint256"},{"internalType":"bool","name":"soldout","type":"bool"},{"internalType":"bool","name":"wishlist","type":"bool"},{"internalType":"bool","name":"deleted","type":"bool"},{"components":[{"internalType":"uint256","name":"reviewId","type":"uint256"},{"internalType":"address","name":"reviewer","type":"address"},{"internalType":"uint256","name":"rating","type":"uint256"},{"internalType":"string","name":"comment","type":"string"},{"internalType":"bool","name":"deleted","type":"bool"},{"internalType":"uint256","name":"timestamp","type":"uint256"}],"internalType":"struct HemShop.ReviewStruct[]","name":"reviews","type":"tuple[]"}],"internalType":"struct HemShop.ProductStruct[]","name":"","type":"tuple[]"}],"stateMutability":"view","type":"function"},{"inputs":[{"internalType":"uint256","name":"productId","type":"uint256"}],"name":"getReviews","outputs":[{"components":[{"internalType":"uint256","name":"reviewId","type":"uint256"},{"internalType":"address","name":"reviewer","type":"address"},{"internalType":"uint256","name":"rating","type":"uint256"},{"internalType":"string","name":"comment","type":"string"},{"internalType":"bool","name":"deleted","type":"bool"},{"internalType":"uint256","name":"timestamp","type":"uint256"}],"internalType":"struct HemShop.ReviewStruct[]","name":"","type":"tuple[]"}],"stateMutability":"view","type":"function"},{"inputs":[{"internalType":"address","name":"seller","type":"address"}],"name":"getSeller","outputs":[{"components":[{"internalType":"string","name":"businessName","type":"string"},{"internalType":"string","name":"description","type":"string"},{"internalType":"string","name":"email","type":"string"},{"internalType":"string","name":"phone","type":"string"},{"internalType":"string","name":"logo","type":"string"},{"internalType":"uint256","name":"registeredAt","type":"uint256"},{"internalType":"bool","name":"termsAccepted","type":"bool"}],"internalType":"struct HemShop.SellerProfile","name":"profile","type":"tuple"},{"internalType":"enum HemShop.SellerStatus","name":"status","type":"uint8"},{"internalType":"uint256","name":"balance","type":"uint256"},{"internalType":"uint256[]","name":"productIds","type":"uint256[]"}],"stateMutability":"view","type":"function"},{"inputs":[{"internalType":"address","name":"seller","type":"address"}],"name":"getSellerBalance","outputs":[{"internalType":"uint256","name":"","type":"uint256"}],"stateMutability":"view","type":"function"},{"inputs":[{"internalType":"address","name":"seller","type":"address"}],"name":"getSellerProducts","outputs":[{"components":[{"internalType":"uint256","name":"id","type":"uint256"},{"internalType":"address","name":"seller","type":"address"},{"internalType":"string","name":"name","type":"string"},{"internalType":"string","name":"description","type":"string"},{"internalType":"uint256","name":"price","type":"uint256"},{"internalType":"uint256","name":"stock","type":"uint256"},{"internalType":"string[]","name":"colors","type":"string[]"},{"internalType":"string[]","name":"sizes","type":"string[]"},{"internalType":"string[]","name":"images","type":"string[]"},{"internalType":"string","name":"category","type":"string"},{"internalType":"string","name":"subCategory","type":"string"},{"internalType":"uint256","name":"weight","type":"uint256"},{"internalType":"string","name":"model","type":"string"},{"internalType":"string","name":"brand","type":"string"},{"internalType":"uint256","name":"sku","type":"uint256"},{"internalType":"bool","name":"soldout","type":"bool"},{"internalType":"bool","name":"wishlist","type":"bool"},{"internalType":"bool","name":"deleted","type":"bool"},{"components":[{"internalType":"uint256","name":"reviewId","type":"uint256"},{"internalType":"address","name":"reviewer","type":"address"},{"internalType":"uint256","name":"rating","type":"uint256"},{"internalType":"string","name":"comment","type":"string"},{"internalType":"bool","name":"deleted","type":"bool"},{"internalType":"uint256","name":"timestamp","type":"uint256"}],"internalType":"struct HemShop.ReviewStruct[]","name":"reviews","type":"tuple[]"}],"internalType":"struct HemShop.ProductStruct[]","name":"","type":"tuple[]"}],"stateMutability":"view","type":"function"},{"inputs":[{"internalType":"address","name":"seller","type":"address"}],"name":"getSellerProfile","outputs":[{"components":[{"internalType":"string","name":"businessName","type":"string"},{"internalType":"string","name":"description","type":"string"},{"internalType":"string","name":"email","type":"string"},{"internalType":"string","name":"phone","type":"string"},{"internalType":"string","name":"logo","type":"string"},{"internalType":"uint256","name":"registeredAt","type":"uint256"},{"internalType":"bool","name":"termsAccepted","type":"bool"}],"internalType":"struct HemShop.SellerProfile","name":"","type":"tuple"}],"stateMutability":"view","type":"function"},{"inputs":[{"internalType":"address","name":"seller","type":"address"}],"name":"getSellerPurchaseHistory","outputs":[{"components":[{"internalType":"uint256","name":"productId","type":"uint256"},{"internalType":"uint256","name":"totalAmount","type":"uint256"},{"internalType":"uint256","name":"basePrice","type":"uint256"},{"internalType":"uint256","name":"timestamp","type":"uint256"},{"internalType":"uint256","name":"lastUpdated","type":"uint256"},{"internalType":"address","name":"buyer","type":"address"},{"internalType":"address","name":"seller","type":"address"},{"internalType":"bool","name":"isDelivered","type":"bool"},{"components":[{"internalType":"string","name":"fullName","type":"string"},{"internalType":"string","name":"streetAddress","type":"string"},{"internalType":"string","name":"city","type":"string"},{"internalType":"string","name":"state","type":"string"},{"internalType":"string","name":"country","type":"string"},{"internalType":"string","name":"postalCode","type":"string"},{"internalType":"string","name":"phone","type":"string"},{"internalType":"string","name":"email","type":"string"}],"internalType":"struct HemShop.ShippingDetails","name":"shippingDetails","type":"tuple"},{"components":[{"internalType":"string","name":"name","type":"string"},{"internalType":"string[]","name":"images","type":"string[]"},{"internalType":"string","name":"selectedColor","type":"string"},{"internalType":"string","name":"selectedSize","type":"string"},{"internalType":"uint256","name":"quantity","type":"uint256"},{"internalType":"string","name":"category","type":"string"},{"internalType":"string","name":"description","type":"string"}],"internalType":"struct HemShop.OrderDetails","name":"orderDetails","type":"tuple"}],"internalType":"struct HemShop.PurchaseHistoryStruct[]","name":"","type":"tuple[]"}],"stateMutability":"view","type":"function"},{"inputs":[{"internalType":"address","name":"seller","type":"address"}],"name":"getSellerStatus","outputs":[{"internalType":"enum HemShop.SellerStatus","name":"","type":"uint8"}],"stateMutability":"view","type":"function"},{"inputs":[{"internalType":"uint256","name":"_id","type":"uint256"}],"name":"getSubCategory","outputs":[{"internalType":"uint256","name":"id","type":"uint256"},{"internalType":"string","name":"name","type":"string"},{"internalType":"uint256","name":"parentCategoryId","type":"uint256"},{"internalType":"bool","name":"isActive","type":"bool"}],"stateMutability":"view","type":"function"},{"inputs":[{"internalType":"address","name":"user","type":"address"}],"name":"getUser","outputs":[{"internalType":"bool","name":"isRegistered","type":"bool"},{"components":[{"internalType":"string","name":"name","type":"string"},{"internalType":"string","name":"email","type":"string"},{"internalType":"string","name":"avatar","type":"string"},{"internalType":"uint256","name":"registeredAt","type":"uint256"},{"internalType":"bool","name":"isActive","type":"bool"}],"internalType":"struct HemShop.UserProfile","name":"profile","type":"tuple"},{"internalType":"bool","name":"isUserSeller","type":"bool"},{"internalType":"enum HemShop.SellerStatus","name":"sellerState","type":"uint8"}],"stateMutability":"view","type":"function"},{"inputs":[{"internalType":"address","name":"account","type":"address"}],"name":"impersonateAccount","outputs":[],"stateMutability":"nonpayable","type":"function"},{"inputs":[{"internalType":"address","name":"owner","type":"address"},{"internalType":"address","name":"operator","type":"address"}],"name":"isApprovedForAll","outputs":[{"internalType":"bool","name":"","type":"bool"}],"stateMutability":"view","type":"function"},{"inputs":[{"internalType":"uint256","name":"productId","type":"uint256"},{"internalType":"address","name":"buyer","type":"address"}],"name":"markPurchaseDelivered","outputs":[],"stateMutability":"nonpayable","type":"function"},{"inputs":[],"name":"name","outputs":[{"internalType":"string","name":"","type":"string"}],"stateMutability":"view","type":"function"},{"inputs":[],"name":"owner","outputs":[{"internalType":"address","name":"","type":"address"}],"stateMutability":"view","type":"function"},{"inputs":[{"internalType":"uint256","name":"tokenId","type":"uint256"}],"name":"ownerOf","outputs":[{"internalType":"address","name":"","type":"address"}],"stateMutability":"view","type":"function"},{"inputs":[{"internalType":"uint256","name":"","type":"uint256"}],"name":"productExists","outputs":[{"internalType":"bool","name":"","type":"bool"}],"stateMutability":"view","type":"function"},{"inputs":[{"internalType":"uint256","name":"","type":"uint256"}],"name":"products","outputs":[{"internalType":"uint256","name":"id","type":"uint256"},{"internalType":"address","name":"seller","type":"address"},{"internalType":"string","name":"name","type":"string"},{"internalType":"string","name":"description","type":"string"},{"internalType":"uint256","name":"price","type":"uint256"},{"internalType":"uint256","name":"stock","type":"uint256"},{"internalType":"string","name":"category","type":"string"},{"internalType":"string","name":"subCategory","type":"string"},{"internalType":"uint256","name":"weight","type":"uint256"},{"internalType":"string","name":"model","type":"string"},{"internalType":"string","name":"brand","type":"string"},{"internalType":"uint256","name":"sku","type":"uint256"},{"internalType":"bool","name":"soldout","type":"bool"},{"internalType":"bool","name":"wishlist","type":"bool"},{"internalType":"bool","name":"deleted","type":"bool"}],"stateMutability":"view","type":"function"},{"inputs":[{"internalType":"string","name":"businessName","type":"string"},{"internalType":"string","name":"description","type":"string"},{"internalType":"string","name":"email","type":"string"},{"internalType":"string","name":"phone","type":"string"},{"internalType":"string","name":"logo","type":"string"}],"name":"registerSeller","outputs":[],"stateMutability":"nonpayable","type":"function"},{"inputs":[{"internalType":"string","name":"name","type":"string"},{"internalType":"string","name":"email","type":"string"},{"internalType":"string","name":"avatar","type":"string"}],"name":"registerUser","outputs":[],"stateMutability":"nonpayable","type":"function"},{"inputs":[{"internalType":"address","name":"","type":"address"}],"name":"registeredSellers","outputs":[{"internalType":"bool","name":"","type":"bool"}],"stateMutability":"view","type":"function"},{"inputs":[{"internalType":"address","name":"","type":"address"}],"name":"registeredUsers","outputs":[{"internalType":"bool","name":"","type":"bool"}],"stateMutability":"view","type":"function"},{"inputs":[],"name":"renounceOwnership","outputs":[],"stateMutability":"nonpayable","type":"function"},{"inputs":[{"internalType":"uint256","name":"","type":"uint256"}],"name":"reviewExists","outputs":[{"internalType":"bool","name":"","type":"bool"}],"stateMutability":"view","type":"function"},{"inputs":[{"internalType":"address","name":"from","type":"address"},{"internalType":"address","name":"to","type":"address"},{"internalType":"uint256","name":"tokenId","type":"uint256"}],"name":"safeTransferFrom","outputs":[],"stateMutability":"nonpayable","type":"function"},{"inputs":[{"internalType":"address","name":"from","type":"address"},{"internalType":"address","name":"to","type":"address"},{"internalType":"uint256","name":"tokenId","type":"uint256"},{"internalType":"bytes","name":"data","type":"bytes"}],"name":"safeTransferFrom","outputs":[],"stateMutability":"nonpayable","type":"function"},{"inputs":[{"internalType":"address","name":"","type":"address"}],"name":"sellerBalances","outputs":[{"internalType":"uint256","name":"","type":"uint256"}],"stateMutability":"view","type":"function"},{"inputs":[{"internalType":"address","name":"","type":"address"},{"internalType":"uint256","name":"","type":"uint256"}],"name":"sellerProducts","outputs":[{"internalType":"uint256","name":"","type":"uint256"}],"stateMutability":"view","type":"function"},{"inputs":[{"internalType":"address","name":"","type":"address"}],"name":"sellerProfiles","outputs":[{"internalType":"string","name":"businessName","type":"string"},{"internalType":"string","name":"description","type":"string"},{"internalType":"string","name":"email","type":"string"},{"internalType":"string","name":"phone","type":"string"},{"internalType":"string","name":"logo","type":"string"},{"internalType":"uint256","name":"registeredAt","type":"uint256"},{"internalType":"bool","name":"termsAccepted","type":"bool"}],"stateMutability":"view","type":"function"},{"inputs":[{"internalType":"address","name":"","type":"address"},{"internalType":"uint256","name":"","type":"uint256"}],"name":"sellerPurchaseHistory","outputs":[{"internalType":"uint256","name":"productId","type":"uint256"},{"internalType":"uint256","name":"totalAmount","type":"uint256"},{"internalType":"uint256","name":"basePrice","type":"uint256"},{"internalType":"uint256","name":"timestamp","type":"uint256"},{"internalType":"uint256","name":"lastUpdated","type":"uint256"},{"internalType":"address","name":"buyer","type":"address"},{"internalType":"address","name":"seller","type":"address"},{"internalType":"bool","name":"isDelivered","type":"bool"},{"components":[{"internalType":"string","name":"fullName","type":"string"},{"internalType":"string","name":"streetAddress","type":"string"},{"internalType":"string","name":"city","type":"string"},{"internalType":"string","name":"state","type":"string"},{"internalType":"string","name":"country","type":"string"},{"internalType":"string","name":"postalCode","type":"string"},{"internalType":"string","name":"phone","type":"string"},{"internalType":"string","name":"email","type":"string"}],"internalType":"struct HemShop.ShippingDetails","name":"shippingDetails","type":"tuple"},{"components":[{"internalType":"string","name":"name","type":"string"},{"internalType":"string[]","name":"images","type":"string[]"},{"internalType":"string","name":"selectedColor","type":"string"},{"internalType":"string","name":"selectedSize","type":"string"},{"internalType":"uint256","name":"quantity","type":"uint256"},{"internalType":"string","name":"category","type":"string"},{"internalType":"string","name":"description","type":"string"}],"internalType":"struct HemShop.OrderDetails","name":"orderDetails","type":"tuple"}],"stateMutability":"view","type":"function"},{"inputs":[{"internalType":"address","name":"","type":"address"}],"name":"sellerStatus","outputs":[{"internalType":"enum HemShop.SellerStatus","name":"","type":"uint8"}],"stateMutability":"view","type":"function"},{"inputs":[],"name":"servicePct","outputs":[{"internalType":"uint256","name":"","type":"uint256"}],"stateMutability":"view","type":"function"},{"inputs":[{"internalType":"address","name":"operator","type":"address"},{"internalType":"bool","name":"approved","type":"bool"}],"name":"setApprovalForAll","outputs":[],"stateMutability":"nonpayable","type":"function"},{"inputs":[],"name":"stopImpersonating","outputs":[],"stateMutability":"nonpayable","type":"function"},{"inputs":[{"internalType":"bytes4","name":"interfaceId","type":"bytes4"}],"name":"supportsInterface","outputs":[{"internalType":"bool","name":"","type":"bool"}],"stateMutability":"view","type":"function"},{"inputs":[],"name":"symbol","outputs":[{"internalType":"string","name":"","type":"string"}],"stateMutability":"view","type":"function"},{"inputs":[{"internalType":"uint256","name":"tokenId","type":"uint256"}],"name":"tokenURI","outputs":[{"internalType":"string","name":"","type":"string"}],"stateMutability":"view","type":"function"},{"inputs":[{"internalType":"address","name":"from","type":"address"},{"internalType":"address","name":"to","type":"address"},{"internalType":"uint256","name":"tokenId","type":"uint256"}],"name":"transferFrom","outputs":[],"stateMutability":"nonpayable","type":"function"},{"inputs":[{"internalType":"address","name":"newOwner","type":"address"}],"name":"transferOwnership","outputs":[],"stateMutability":"nonpayable","type":"function"},{"inputs":[{"internalType":"uint256","name":"_id","type":"uint256"},{"internalType":"string","name":"_name","type":"string"},{"internalType":"bool","name":"_isActive","type":"bool"}],"name":"updateCategory","outputs":[],"stateMutability":"nonpayable","type":"function"},{"inputs":[{"internalType":"uint256","name":"productId","type":"uint256"},{"components":[{"internalType":"string","name":"name","type":"string"},{"internalType":"string","name":"description","type":"string"},{"internalType":"uint256","name":"price","type":"uint256"},{"internalType":"uint256","name":"stock","type":"uint256"},{"internalType":"string[]","name":"colors","type":"string[]"},{"internalType":"string[]","name":"sizes","type":"string[]"},{"internalType":"string[]","name":"images","type":"string[]"},{"internalType":"uint256","name":"categoryId","type":"uint256"},{"internalType":"uint256","name":"subCategoryId","type":"uint256"},{"internalType":"uint256","name":"weight","type":"uint256"},{"internalType":"string","name":"model","type":"string"},{"internalType":"string","name":"brand","type":"string"},{"internalType":"uint256","name":"sku","type":"uint256"}],"internalType":"struct HemShop.ProductInput","name":"input","type":"tuple"}],"name":"updateProduct","outputs":[],"stateMutability":"nonpayable","type":"function"},{"inputs":[{"internalType":"address","name":"seller","type":"address"},{"internalType":"enum HemShop.SellerStatus","name":"newStatus","type":"uint8"}],"name":"updateSellerStatus","outputs":[],"stateMutability":"nonpayable","type":"function"},{"inputs":[{"internalType":"uint256","name":"_id","type":"uint256"},{"internalType":"string","name":"_name","type":"string"},{"internalType":"bool","name":"_isActive","type":"bool"}],"name":"updateSubCategory","outputs":[],"stateMutability":"nonpayable","type":"function"},{"inputs":[{"internalType":"address","name":"","type":"address"}],"name":"userProfiles","outputs":[{"internalType":"string","name":"name","type":"string"},{"internalType":"string","name":"email","type":"string"},{"internalType":"string","name":"avatar","type":"string"},{"internalType":"uint256","name":"registeredAt","type":"uint256"},{"internalType":"bool","name":"isActive","type":"bool"}],"stateMutability":"view","type":"function"},{"inputs":[{"internalType":"uint256","name":"","type":"uint256"}],"name":"usersList","outputs":[{"internalType":"address","name":"","type":"address"}],"stateMutability":"view","type":"function"},{"inputs":[],"name":"withdraw","outputs":[],"stateMutability":"nonpayable","type":"function"}],"evm":{"bytecode":{"linkReferences":{},"object":"6080346200037757601f90601f196001600160401b0362009cda3881900385810184168501838111868210176200037c57859282916040528339602094859181010312620003775751936200005362000392565b926007845266048656d53686f760cc1b858501526200007162000392565b60038082526204873760ec1b8783015260008054336001600160a01b031982168117835592989394919392906001600160a01b03167f8be0079c531659141344cd1fd0a4f28419497f9722a3daafe3b4186f6b6457e08580a360019687805580519087821162000363576002548981811c9116801562000358575b858210146200034457908188849311620002f0575b5084908883116001146200028e57869262000282575b5050600019828b1b1c191690881b176002555b83519586116200026e5787548781811c9116801562000263575b838210146200024f5785811162000207575b5081948611600114620001a25750509183949184939462000196575b50501b9160001990841b1c19161790555b600d556040516199279081620003b38239f35b01519250388062000172565b8783528183209493928692918316915b88838310620001ec5750505010620001d3575b505050811b01905562000183565b015160001983861b60f8161c19169055388080620001c5565b858701518855909601959485019487935090810190620001b2565b8884528284208680890160051c820192858a1062000245575b0160051c019088905b8281106200023957505062000156565b85815501889062000229565b9250819262000220565b634e487b7160e01b84526022600452602484fd5b90607f169062000144565b634e487b7160e01b83526041600452602483fd5b01519050388062000117565b90848b9416916002885286882092885b88828210620002d95750508411620002c0575b505050811b016002556200012a565b0151600019838d1b60f8161c19169055388080620002b1565b8385015186558e979095019493840193016200029e565b909150600286528486208880850160051c8201928786106200033a575b918c91869594930160051c01915b8281106200032b57505062000101565b8881558594508c91016200031b565b925081926200030d565b634e487b7160e01b86526022600452602486fd5b90607f1690620000ec565b634e487b7160e01b85526041600452602485fd5b600080fd5b634e487b7160e01b600052604160045260246000fd5b60408051919082016001600160401b038111838210176200037c5760405256fe608080604052600436101561001357600080fd5b60003560e01c908162d64e7614616a815750806301ffc9a714616a1357806302ee3a521461679857806306fdde03146166f3578063081812fc146166d5578063095ea7b31461655b5780630e50cee51461651c57806311aa5b34146164f85780631385fd92146164a457806316d81b38146162c157806317e98548146162495780632053fba614615d0e5780632148893f1461537b57806323b872dd14615ce557806324d41a0314615ac2578063317a08271461597b578063332d56d7146158ba5780633c2575d5146157b65780633ccfd60b1461567857806342842e0e146156505780634293e5ce1461554e57806345de84db1461550c578063502aa3b5146154c35780635ad6a580146154185780635be20959146153b5578063607eb4e41461537b5780636352211e1461534b57806366224d8e146151f55780636f2c85991461514a5780636f77926b14614fc757806370a0823114614f30578063715018a614614ee95780637acc0b2014614d2a5780637d3978db14614b0c5780637e8555ed14614360578063868a5461146138505780638da5cb5b146138275780638f38cc7b146135015780639196dfcb146133e757806395d89b411461330557806397b6f393146131c75780639d4a2255146130345780639fa44dbf14612fec578063a22cb46514612f21578063a22fb38714612e76578063a323d29e14612d23578063af55ed6414612cf2578063b27e169714612bee578063b88d4fde14612b8f578063b95a062814612b54578063b9db15b41461293a578063c1302b34146128e2578063c64b8a8f146128a3578063c87b56dd14612849578063ceca737f146127c5578063d2bc9d7814612518578063d637dcfa14612079578063dadd0a5714611d79578063dc29868214611b58578063e01ef6e614611b3a578063e40971e514610c75578063e585cb2c14610bd2578063e6a93e1614610918578063e985e9c5146108c2578063eb11c43414610890578063ed90c7b714610756578063f2fde38b146106a7578063f3052d26146105e75763fdca4ca31461031557600080fd5b346105e25760003660031901126105e25760088054600060015b8281111561058157506103419061848d565b9060009260015b82811115610362576040518061035e8682616d3b565b0390f35b600081815260156020908152604090912060018101546001600160a01b031691903383148061056f575b6103a2575b50505061039d9061847e565b610348565b604097939751926103b284616dc9565b81548452828401526040516103d5816103ce816002860161700f565b0382616ea4565b60408401526040516103ee816103ce816003860161700f565b606084015260048101546080840152600581015460a084015260069061041582820161745a565b60c08501526104266007820161745a565b60e085015261043686820161745a565b610100850152604051610450816103ce816009860161700f565b61012085015260405161046a816103ce81600a860161700f565b610140850152600b81015461016085015260405161048f816103ce81600c860161700f565b6101808501526040516104a9816103ce81600d860161700f565b6101a0850152600e8101546101c0850152600f81015460ff80821615156101e087015281881c81161515610200870152601091821c16151561022086015201805491906104f583617443565b936105036040519586616ea4565b8385526000918252808220918186015b85821061055357505050505050918161039d9361024061054a94015261053982886184dd565b5261054481876184dd565b5061847e565b94903880610391565b84836001926105618761841d565b815201940191019092610513565b5060ff600f82015460101c161561038c565b600081815260156020526040902060018101546001600160a01b0316331490816105cf575b506105ba575b6105b59061847e565b61032f565b906105c76105b59161847e565b9190506105ac565b60ff9150600f015460101c1615386105a6565b600080fd5b346105e25760203660031901126105e2576004356000526018602052604060002060405161061481616e38565b8154815261035e6040519161063783610630816001880161700f565b0384616ea4565b6020810192835261065b600360ff6002870154169560408401961515875201618652565b906060810191825261066f815115156185a3565b5192519351151590516106946040519586958652608060208701526080860190616aae565b91604085015283820360608501526175be565b346105e25760203660031901126105e2576106c0616d9d565b6106c86175f2565b6001600160a01b03908116908115610702576000548260018060a01b03198216176000551660008051602061985b833981519152600080a3005b60405162461bcd60e51b815260206004820152602660248201527f4f776e61626c653a206e6577206f776e657220697320746865207a65726f206160448201526564647265737360d01b6064820152608490fd5b346105e2576020806003193601126105e25760043590816000526017815261078560ff604060002054166182bf565b6000828152601582526040902060010154336001600160a01b0391821614908115610882575b501561082e57816000526015815260ff600f6040600020015460101c166107ed5760009182526015905260409020600f01805462ff0000191662010000179055005b6064906040519062461bcd60e51b82526004820152601a602482015279141c9bd91d58dd081a5cc8185b1c9958591e4819195b195d195960321b6044820152fd5b6084906040519062461bcd60e51b82526004820152602760248201527f4f6e6c792070726f647563742073656c6c6572206f72206f776e65722063616e6044820152662064656c65746560c81b6064820152fd5b6000541633149050836107ab565b346105e25760203660031901126105e25760206108b36108ae616d9d565b617c53565b6108c06040518092617336565bf35b346105e25760403660031901126105e2576108db616d9d565b6108e3616db3565b9060018060a01b03809116600052600760205260406000209116600052602052602060ff604060002054166040519015158152f35b346105e25760203660031901126105e257610931616d9d565b600854600060015b82811115610b6e575061094b9061848d565b90600160005b82821115610967576040518061035e8682616d3b565b600082815260156020526040902060018101546001600160a01b0390811691908716821480610b5c575b6109a8575b5050906109a29061847e565b90610951565b604051916109b583616dc9565b8154835260208301526040516109d2816103ce816002860161700f565b60408301526040516109eb816103ce816003860161700f565b606083015260048101546080830152600581015460a0830152610a106006820161745a565b60c0830152610a216007820161745a565b60e0830152610a326008820161745a565b610100830152604051610a4c816103ce816009860161700f565b610120830152604051610a66816103ce81600a860161700f565b610140830152600b810154610160830152604051610a8b816103ce81600c860161700f565b610180830152604051610aa5816103ce81600d860161700f565b6101a0830152600e8101546101c0830152600f8101549060ff80831615156101e0850152808360081c161515610200850152601092831c16151561022084015201805490610af282617443565b91610b006040519384616ea4565b808352602083019160005260206000206000925b828410610b3e57505050506102408201526109a291610b379161053982886184dd565b9086610996565b60066020600192610b4e8561841d565b815201920193019290610b14565b5060ff600f82015460101c1615610991565b600081815260156020526040902060018101546001600160a01b038681169116149081610bbf575b50610baa575b610ba59061847e565b610939565b90610bb7610ba59161847e565b919050610b9c565b60ff9150600f015460101c161585610b96565b346105e25760403660031901126105e257610beb616d9d565b6001600160a01b039081166000908152601c602052604090208054602435908110156105e257610c1a9161735b565b509061035e825460018401549360028101549160038201549060048301548660058501541690600685015493610c5e600f610c5760078901617377565b97016174bf565b966040519a8b9a60ff8860a01c169716958b61755a565b346105e2576003196020368201126105e2576001600160401b03600435116105e2576101a090600435360301126105e25733600052601260205260ff604060002054166004811015611b24576002148015611b10575b15611acc57610cea610ce1600480350180617cc7565b90501515617b37565b610cfb604460043501351515617cf9565b610d0c606460043501351515617d44565b60e4600435013515611a7c57610104600435013515611a2957610d3761012460043501351515617d8f565b610d58610d4f61014460043501600435600401617cc7565b90501515617ddb565b610d79610d7061016460043501600435600401617cc7565b90501515617e1f565b610d8b61018460043501351515617e63565b610dab610da260c460043501600435600401617eac565b90501515617ee1565b610dcd6005610dc460c460043501600435600401617eac565b90501115617f26565b60016008540180600855610ddf617f71565b81815233602082015290610e01610dfa600480350180617cc7565b3691616ee2565b6040830152610e1d610dfa602460043501600435600401617cc7565b60608301526044600435013560808301526064600435013560a0830152610e58610e51608460043501600435600401617eac565b3691617ffd565b60c0830152610e74610e5160a460043501600435600401617eac565b60e0830152610e90610e5160c460043501600435600401617eac565b61010083015260e4600435013560005260186020526103ce610ebf60016040600020016040519283809261700f565b610120830152610104600435013560005260196020526103ce610eef60016040600020016040519283809261700f565b610140830152610f0d610dfa61014460043501600435600401617cc7565b610180830152610f2b610dfa61016460043501600435600401617cc7565b6101a083015260043561012481013561016084015261018401356101c083015233156119e557610f63610f5d826179ad565b15618274565b610f6f610f5d826179ad565b33600052600560205260406000206001815401905580600052600460205260406000203360018060a01b03198254161790558033600060008051602061989b8339815191528180a46015602052604060002090825182556001820160018060a01b0360208501511660018060a01b0319825416179055604083015192835160018060401b03811161144f576110148161100b6002870154616fd5565b60028701617b91565b6020601f821160011461197657819293949560009261196b575b50508160011b916000199060031b1c19161760028401555b606081015180519093906001600160401b03811161144f576110788161106f6003850154616fd5565b60038501617b91565b6020601f82116001146118fc5781929394956000926118f1575b50508160011b916000199060031b1c19161760038201555b6080820151600482015560a082015160058201556006810160c083015160208151916110d683856180c8565b01916000526020600020916000905b82821061181457505050506007810160e0830151602081519161110883856180c8565b01916000526020600020916000905b828210611737575050505060088101610100830151602081519161113b83856180c8565b01916000526020600020916000905b828210611654575050505061012082015180519093906001600160401b03811161144f576111888161117f6009860154616fd5565b60098601617b91565b6020601f82116001146115e55781929394956000926115da575b50508160011b916000199060031b1c19161760098301555b61014083015180519093906001600160401b03811161144f576111ed816111e4600a870154616fd5565b600a8701617b91565b6020601f821160011461156b578192939495600092611560575b50508160011b916000199060031b1c191617600a8401555b610160810151600b84015561018081015180519093906001600160401b03811161144f5761125d81611254600c850154616fd5565b600c8501617b91565b6020601f82116001146114f15781929394956000926114e6575b50508160011b916000199060031b1c191617600c8201555b6101a08201518051906001600160401b03821161144f576112c0826112b7600d860154616fd5565b600d8601617b91565b602090601f83116001146114705791806102409492601094600092611465575b50508160011b916000199060031b1c191617600d8201555b6101c0840151600e820155600f81016113186101e086015115158261799c565b6102008501511515815461ff0062ff00006102208901511515871b169260081b169062ffff001916171790550191015190815191600160401b831161144f5781548383558084106113cc575b506020019060005260206000206000915b8383106113ae576113ac858060005260176020526040600020600160ff19825416179055336000526016602052604060002061823f565b005b60066020826113c06001945186618111565b01920192019190611375565b8060060290600682040361143957836006026006810485036114395783600052602060002091820191015b8181106114045750611364565b8060006006925560006001820155600060028201556114256003820161807f565b6000600482015560006005820155016113f7565b634e487b7160e01b600052601160045260246000fd5b634e487b7160e01b600052604160045260246000fd5b0151905087806112e0565b90600d840160005260206000209160005b601f19851681106114ce575092610240949260019260109583601f198116106114b5575b505050811b01600d8201556112f8565b015160001960f88460031b161c191690558780806114a5565b91926020600181928685015181550194019201611481565b015190508580611277565b600c830160005260206000209060005b601f1984168110611548575060019394959683601f1981161061152f575b505050811b01600c82015561128f565b015160001960f88460031b161c1916905585808061151f565b9091602060018192858b015181550193019101611501565b015190508580611207565b600a850160005260206000209060005b601f19841681106115c2575060019394959683601f198116106115a9575b505050811b01600a84015561121f565b015160001960f88460031b161c19169055858080611599565b9091602060018192858b01518155019301910161157b565b0151905085806111a2565b6009840160005260206000209060005b601f198416811061163c575060019394959683601f19811610611623575b505050811b0160098301556111ba565b015160001960f88460031b161c19169055858080611613565b9091602060018192858b0151815501930191016115f5565b80518051906001600160401b03821161144f5761167b826116758854616fd5565b88617b91565b602090601f83116001146116c75792826001949360209386956000926116bc575b5050600019600383901b1c191690841b1787555b0194019101909261114a565b015190508c8061169c565b908660005260206000209160005b601f198516811061171f575083602093600196938796938794601f19811610611706575b505050811b0187556116b0565b015160001960f88460031b161c191690558c80806116f9565b919260206001819286850151815501940192016116d5565b80518051906001600160401b03821161144f57611758826116758854616fd5565b602090601f83116001146117a4579282600194936020938695600092611799575b5050600019600383901b1c191690841b1787555b01940191019092611117565b015190508c80611779565b908660005260206000209160005b601f19851681106117fc575083602093600196938796938794601f198116106117e3575b505050811b01875561178d565b015160001960f88460031b161c191690558c80806117d6565b919260206001819286850151815501940192016117b2565b80518051906001600160401b03821161144f57611835826116758854616fd5565b602090601f8311600114611881579282600194936020938695600092611876575b5050600019600383901b1c191690841b1787555b019401910190926110e5565b015190508c80611856565b908660005260206000209160005b601f19851681106118d9575083602093600196938796938794601f198116106118c0575b505050811b01875561186a565b015160001960f88460031b161c191690558c80806118b3565b9192602060018192868501518155019401920161188f565b015190508580611092565b6003830160005260206000209060005b601f1984168110611953575060019394959683601f1981161061193a575b505050811b0160038201556110aa565b015160001960f88460031b161c1916905585808061192a565b9091602060018192858b01518155019301910161190c565b01519050858061102e565b6002850160005260206000209060005b601f19841681106119cd575060019394959683601f198116106119b4575b505050811b016002840155611046565b015160001960f88460031b161c191690558580806119a4565b9091602060018192858b015181550193019101611986565b606460405162461bcd60e51b815260206004820152602060248201527f4552433732313a206d696e7420746f20746865207a65726f20616464726573736044820152fd5b60405162461bcd60e51b815260206004820152602560248201527f53756243617465676f7279204944206d75737420626520677265617465722074604482015264068616e20360dc1b6064820152608490fd5b60405162461bcd60e51b815260206004820152602260248201527f43617465676f7279204944206d7573742062652067726561746572207468616e604482015261020360f41b6064820152608490fd5b606460405162461bcd60e51b815260206004820152602060248201527f4d7573742062652076657269666965642073656c6c6572206f72206f776e65726044820152fd5b506000546001600160a01b03163314610ccb565b634e487b7160e01b600052602160045260246000fd5b346105e25760003660031901126105e2576020600d54604051908152f35b346105e2576020806003193601126105e2576001600160401b036004358181116105e257611b8a903690600401616f19565b90611b936175f2565b611b9f825115156184f1565b611baa600b5461847e565b9081600b55604051611bbb81616e89565b60008152604051611bcb81616e38565b83815285810185815260408201906001958683526060840194855260005260188852604060002092518355858301905180519086821161144f57611c1982611c138554616fd5565b85617b91565b8990601f8311600114611d08579180611c5894926003979694600092611cfd575b505060001982881b1c191690891b1790555b5115156002830161799c565b019051805192831161144f57600160401b831161144f5785908254848455808510611ce0575b5001906000528460002060005b838110611ccf57600b546040518881527f11c167cc9b439f0ad8bec5588159f1b06b813bc38d50c867a41b23b077be2c1a9080611cca818c018b616aae565b0390a2005b825182820155918601918401611c8b565b611cf7908460005285846000209182019101617b7a565b87611c7e565b015190508c80611c3a565b889291601f19831691856000528c600020928d6000905b828210611d62575050916003989795939185611c5898969410611d4a575b505050811b019055611c4c565b0151600019838a1b60f8161c191690558c8080611d3d565b8385015186558d979095019493840193018e611d1f565b346105e25760003660031901126105e257600b54611d9681617443565b611da36040519182616ea4565b818152601f19611db283617443565b01366020830137611dc282617443565b91611dd06040519384616ea4565b808352611dec601f19611de283617443565b01602085016186a1565b611df581617443565b92611e036040519485616ea4565b818452601f19611e1283617443565b01366020860137611e2282617443565b90611e306040519283616ea4565b828252611e3c83617443565b92611e4f6020840194601f1901856186a1565b60015b81811115611f8b575050611e71604051946080865260808601906175be565b8481036020860152815180825260208201916020808360051b8301019401926000915b838310611f5e57505050505083810360408501526020808651928381520195019060005b818110611f4657505050828403606084015251808452602084019060208160051b86010192916000905b828210611eef5785850386f35b90919293601f19878203018252845190602080835192838152019201906000905b808210611f2e57505050602080600192960192019201909291611ee2565b90919260208060019286518152019401920190611f10565b82511515875260209687019690920191600101611eb8565b9091929394602080611f7c600193601f198682030187528951616aae565b97019301930191939290611e94565b806000526018602052604060002090611fde600360405193611fac85616e38565b80548552604051611fc4816103ce816001860161700f565b602086015260ff6002820154161515604086015201618652565b60608301528151611ff9575b611ff4915061847e565b611e52565b8060001981011161143957606082611ff4935161201a60001985018b6184dd565b52602081015161202e6000198501886184dd565b5261203d6000198401876184dd565b506040810151151561205360001985018c6184dd565b5201516120646000198301876184dd565b526120736000198201866184dd565b50611fea565b346105e25760603660031901126105e2576004356001600160401b0381116105e2576120a9903690600401616f19565b6024356001600160401b0381116105e2576120c8903690600401616f19565b906044356001600160401b0381116105e2576120e8903690600401616f19565b916120f4331515617af9565b33600052601460205260ff604060002054166124d95761211682511515617b37565b80511561249c576040519261212a84616e53565b82845260208401918252604084015242606084015260016080840152336000526010602052604060002090835180519060018060401b03821161144f57819061217d826121778754616fd5565b87617b91565b602090601f831160011461243057600092612425575b50508160011b916000199060031b1c19161782555b5180519093906001600160401b03811161144f576121d6816121cd6001860154616fd5565b60018601617b91565b6020601f82116001146123b65781929394956000926123ab575b50508160011b916000199060031b1c19161760018301555b6040810151805160028401916001600160401b03821161144f5761223082611c138554616fd5565b602090601f831160011461233957928260809361227e97969360049660009261232e575b50508160011b916000199060031b1c19161790555b6060810151600385015501511515910161799c565b336000908152601460205260409020805460ff19166001179055600f54600160401b81101561144f576001810180600f5581101561231857600f6000526000805160206198fb8339815191520180546001600160a01b03191633908117909155604051602080825291927f48cac28ad4dc618e15f4c2dd5e97751182f166de97b25618318b2112aa951a2f928291611cca91830190616aae565b634e487b7160e01b600052603260045260246000fd5b015190508980612254565b90601f198316918460005260206000209260005b81811061239357509361227e97969360049693600193836080981061237a575b505050811b019055612269565b015160001960f88460031b161c1916905589808061236d565b9293602060018192878601518155019501930161234d565b0151905085806121f0565b6001840160005260206000209060005b601f198416811061240d575060019394959683601f198116106123f4575b505050811b016001830155612208565b015160001960f88460031b161c191690558580806123e4565b9091602060018192858b0151815501930191016123c6565b015190508680612193565b9250846000526020600020906000935b601f1984168510612481576001945083601f19811610612468575b505050811b0182556121a8565b015160001960f88460031b161c1916905586808061245b565b81810151835560209485019460019093019290910190612440565b60405162461bcd60e51b8152602060048201526015602482015274456d61696c2063616e6e6f7420626520656d70747960581b6044820152606490fd5b60405162461bcd60e51b8152602060048201526017602482015276155cd95c88185b1c9958591e481c9959da5cdd195c9959604a1b6044820152606490fd5b346105e25760403660031901126105e2576024356001600160401b0381116105e257366023820112156105e2576001600160401b036004820135116105e257366024826004013560051b830101116105e257600435600052601860205260ff60026040600020015416156127835760005b8160040135811061259657005b6125a1600c5461847e565b80600c556125d36125ba83856004013560248701618588565b9190604051926125c984616e38565b8484523691616ee2565b91602082019283526004356040830152600160608301526000526019602052604060002091815183555180519060018060401b03821161144f576126278261261e6001870154616fd5565b60018701617b91565b602090601f83116001146127055761269993836126f597969461267f946060946000926126fa575b50508160011b916000199060031b1c19161760018501555b6040810151600285015501511515600380930161799c565b6004356000526018602052604060002001600c549061823f565b6000805160206198bb833981519152600c546126bd83866004013560248801618588565b9290836040519160208352816020840152604083013760006040858301015260408160043595601f80199101168101030190a361847e565b612589565b015190508a8061264f565b906001850160005260206000209160005b601f198516811061276b57509360018461267f94606094612699986126f59b9a98601f19811610612752575b505050811b016001850155612667565b015160001960f88460031b161c191690558a8080612742565b91926020600181928685015181550194019201612716565b60405162461bcd60e51b815260206004820152601a602482015279506172656e742063617465676f7279206e6f742061637469766560301b6044820152606490fd5b346105e25760203660031901126105e2576004356127e16175f2565b8060005260186020526127fa60406000205415156185a3565b80600052601860205260008051602061983b83398151915261283d60406000206002810160ff19815416905560405191829160408352600160408401910161700f565b600060208301520390a2005b346105e25760203660031901126105e25761286d6128686004356179ad565b61764a565b600060405161287b81616e89565b5261035e60405161288b81616e89565b60008152604051918291602083526020830190616aae565b346105e25760203660031901126105e2576001600160a01b036128c4616d9d565b166000526013602052602060ff604060002054166040519015158152f35b346105e25760403660031901126105e2576128fb616d9d565b6001600160a01b03166000908152601660205260409020805460243591908210156105e25760209161292c91617343565b90546040519160031b1c8152f35b346105e2576020806003193601126105e257600435612957617f71565b50806000526015825261297860ff600f6040600020015460101c1615618304565b806000526017825261299160ff604060002054166182bf565b60005260158152604060002090604051916129ab83616dc9565b805483526001808201546001600160a01b0316838501526040516129d6816103ce816002870161700f565b60408501526040516129ef816103ce816003870161700f565b606085015260048201546080850152600582015460a08501526010600692612a1884820161745a565b60c0870152612a296007820161745a565b60e0870152612a3a6008820161745a565b610100870152604051612a54816103ce816009860161700f565b610120870152604051612a6e816103ce81600a860161700f565b610140870152600b810154610160870152604051612a93816103ce81600c860161700f565b610180870152604051612aad816103ce81600d860161700f565b6101a0870152600e8101546101c087015260ff600f82015481811615156101e0890152818160081c161515610200890152831c1615156102208701520191825490612af782617443565b93612b056040519586616ea4565b8285526000908152858120868087015b858410612b37576102408a018890526040518281528061035e8185018d616beb565b86918591612b448561841d565b8152019201920191908790612b15565b346105e25760203660031901126105e25760206001600160a01b0380612b78616d9d565b16600052601e825260406000205416604051908152f35b346105e25760803660031901126105e257612ba8616d9d565b612bb0616db3565b606435916001600160401b0383116105e257366023840112156105e257612be46113ac933690602481600401359101616ee2565b916044359161773d565b346105e2576020806003193601126105e2576001600160a01b039081612c12616d9d565b16600052601b81526040600020805490612c2b82617443565b92612c396040519485616ea4565b82845260009182528082208185015b848410612c5d576040518061035e88826171d5565b601683600192604051612c6f81616e1c565b85548152848601548382015260028601546040820152600386015460608201526004860154608082015260ff8b60058801541660a090818401526006880154908d821660c08501521c16151560e0820152612ccc60078701617377565b610100820152612cde600f87016174bf565b610120820152815201920193019290612c48565b346105e25760203660031901126105e2576004356000526017602052602060ff604060002054166040519015158152f35b346105e2576020806003193601126105e257612e5b9061035e612d44616d9d565b612d4c617bd8565b5060018060a01b0316918260005260138152612d6f60ff60406000205416617c0f565b826000526011815260406000209260ff600660405195612d8e87616e01565b604051612d9f816103ce818561700f565b8752604051612db5816103ce816001860161700f565b85880152604051612dcd816103ce816002860161700f565b6040880152604051612de6816103ce816003860161700f565b6060880152604051612dff816103ce816004860161700f565b6080880152600581015460a0880152015416151560c08501526000526012815260ff60406000205416601a825260406000205460168352612e64612e466040600020618652565b926040519788976080895260808901906172b6565b94870190617336565b604085015283820360608501526175be565b346105e25760203660031901126105e257612e8f616d9d565b612e976175f2565b6001600160a01b03168015612ee25760406000805160206197fb8339815191529133600052601e602052816000208160018060a01b03198254161790558151903382526020820152a1005b60405162461bcd60e51b8152602060048201526017602482015276496e76616c6964206163636f756e74206164647265737360481b6044820152606490fd5b346105e25760403660031901126105e257612f3a616d9d565b60243590811515908183036105e2576001600160a01b031691338314612fab57612f7d90336000526007602052604060002084600052602052604060002061799c565b6040519081527f17307eab39ab6107e8899845ad3d59bd9653f200f220920489ca2b5937696c3160203392a3005b60405162461bcd60e51b815260206004820152601960248201527822a9219b99189d1030b8383937bb32903a379031b0b63632b960391b6044820152606490fd5b346105e25760403660031901126105e257613005616d9d565b6001600160a01b039081166000908152601b602052604090208054602435908110156105e257610c1a9161735b565b346105e2576020806003193601126105e2576004358060005260159081835260ff600f604060002001549161306f82601094851c1615618304565b806000526017855261308782604060002054166182bf565b60009260005b826000528587528160406000200180548210156130de5760046130b18387936186fc565b50015416156130c9575b6130c49061847e565b61308d565b936130d66130c49161847e565b9490506130bb565b505084866130eb86617443565b956130f96040519788616ea4565b808752613108601f1991617443565b018160005b8281106131b15750505060009360005b8160005283835284604060002001805482101561319e576004613141838a936186fc565b5001541615613159575b6131549061847e565b61311d565b94613196613154918360005285855261318161317b89896040600020016186fc565b5061841d565b61318b828c6184dd565b52610544818b6184dd565b95905061314b565b6040518481528061035e8187018c616b4a565b6131b96186cb565b82828b01015201829061310d565b346105e25760403660031901126105e2576131e0616d9d565b6024359060048210156105e2576131f56175f2565b60018060a01b031690816000526020906013825261321a60ff60406000205416617c0f565b80156132c057826000526012825260ff604060002054166004811015611b2457811461327b579060008051602061987b833981519152918360005260128252604060002060ff1981541660ff83161790556132786040518092617336565ba2005b60405162461bcd60e51b815260048101839052601e60248201527f53656c6c657220616c72656164792068617320746869732073746174757300006044820152606490fd5b60405162461bcd60e51b815260048101839052601f60248201527f43616e6e6f74207365742073746174757320746f20556e7665726966696564006044820152606490fd5b346105e25760003660031901126105e25760405160009060035461332881616fd5565b8083526001918083169081156133bf5750600114613365575b61035e8361335181870382616ea4565b604051918291602083526020830190616aae565b6003600090815260209450917fc2575a0e9e593c00f959f8c92f12db2869c3395a3b0502d05e2516446f71f85b5b8284106133ac5750505081019091019061335181613341565b8054858501870152928501928101613393565b61035e955061335193506020915091849260ff191682840152151560051b8201019350613341565b346105e25760203660031901126105e2576001600160a01b03613408616d9d565b1660005260116020526134b86040600020604051906134328261342b818461700f565b0383616ea4565b604051613446816103ce816001860161700f565b6134f060405161345d816103ce816002880161700f565b6134e2604051613474816103ce8160038a0161700f565b6134d4604051936134938561348c8160048c0161700f565b0386616ea4565b6134c660ff600660058b01549a015416976040519b8c9b60e08d5260e08d0190616aae565b908b820360208d0152616aae565b9089820360408b0152616aae565b908782036060890152616aae565b908582036080870152616aae565b9160a0840152151560c08301520390f35b346105e25760203660031901126105e2576004356001600160401b0381116105e257613531903690600401616f19565b600854600060015b828111156137a5575061354b9061848d565b90600160005b82821115613567576040518061035e8682616d3b565b816000526015806020526009906103ce61358d836040600020016040519283809261700f565b60208151910120875160208901201480613787575b6135b9575b5050906135b39061847e565b90613551565b8360005260205260406000206103ce613677604051936135d885616dc9565b8354855260018401546001600160a01b03166020860152604051613603816103ce816002890161700f565b604086015260405161361c816103ce816003890161700f565b606086015260048401546080860152600584015460a08601526136416006850161745a565b60c08601526136526007850161745a565b60e08601526136636008850161745a565b61010086015260405192838092860161700f565b610120830152604051613691816103ce81600a860161700f565b610140830152600b8101546101608301526040516136b6816103ce81600c860161700f565b6101808301526040516136d0816103ce81600d860161700f565b6101a0830152600e8101546101c0830152600f8101549060ff80831615156101e0850152808360081c161515610200850152601092831c1615156102208401520180549061371d82617443565b9161372b6040519384616ea4565b808352602083019160005260206000206000925b82841061376957505050506102408201526135b3916137629161053982886184dd565b90866135a7565b600660206001926137798561841d565b81520192019301929061373f565b50836000528060205260ff600f6040600020015460101c16156135a2565b806000526015806020526103ce6137c960096040600020016040519283809261700f565b6020815191012085516020870120149081613808575b506137f3575b6137ee9061847e565b613539565b906138006137ee9161847e565b9190506137e5565b90508160005260205260ff600f6040600020015460101c1615856137df565b346105e25760003660031901126105e2576000546040516001600160a01b039091168152602090f35b346105e2576003196040368201126105e2576001600160401b03602435116105e2576101a090602435360301126105e2576004356000908152601560205260409020600101546001600160a01b0316330361430a5760043560005260176020526138c160ff604060002054166182bf565b60043560005260156020526138e460ff600f6040600020015460101c1615618304565b6138f6610ce160046024350180617cc7565b6139096024803501602435600401617cc7565b9050156142c757613921604460243501351515617cf9565b613932606460243501351515617d44565b613946608460243501602435600401617eac565b9050156142895761396160a460243501602435600401617eac565b90501561424c5761397f610da260c460243501602435600401617eac565b6139986005610dc460c460243501602435600401617eac565b60e460243501351561420c576101046024350135156141c8576139c9610d4f61014460243501602435600401617cc7565b6139e1610d7061016460243501602435600401617cc7565b6139f361012460243501351515617d8f565b613a0561018460243501351515617e63565b613a1460046024350180617cc7565b6004356000908152601560205260409020600201906001600160401b03811161144f57613a4b81613a458454616fd5565b84617b91565b600092601f821160011461415f5792819293600092614154575b50508160011b916000199060031b1c19161790555b613a8d6024803501602435600401617cc7565b6004356000908152601560205260409020600301906001600160401b03811161144f57613abe81613a458454616fd5565b600092601f82116001146140eb57928192936000926140e0575b50508160011b916000199060031b1c19161790555b600435600052601560205260406000206044602435013560048201556064602435013560058201556006613b2b608460243501602435600401617eac565b9190920191613b3a82846180c8565b60009283526020832090805b838510613ffd57613b6160a460243501602435600401617eac565b6004356000526015602052600760406000200191613b7f82846180c8565b60009283526020832090805b838510613f1a57613ba660c460243501602435600401617eac565b6004356000526015602052600860406000200191613bc482846180c8565b60009283526020832090805b838510613e375760e460243501356000526018602052613c09600160406000200160043560005260156020526009604060002001618345565b61010460243501356000526019602052613c3c60016040600020016004356000526015602052600a604060002001618345565b613c5161014460243501602435600401617cc7565b6004356000908152601560205260409020600c01906001600160401b03811161144f57613c8281613a458454616fd5565b600092601f8211600114613dce5792819293600092613dc3575b50508160011b916000199060031b1c19161790555b613cc661016460243501602435600401617cc7565b6004356000908152601560205260409020600d01906001600160401b03811161144f57613cf781613a458454616fd5565b6000601f8211600114613d5e57819293600092613d53575b50508160011b916000199060031b1c19161790555b600435600052601560205260406000206101246024350135600b820155600e6101846024350135910155600080f35b013590508380613d0f565b601f198216938360005260206000209160005b868110613dab5750836001959610613d91575b505050811b019055613d24565b0135600019600384901b60f8161c19169055838080613d84565b90926020600181928686013581550194019101613d71565b013590508380613c9c565b826000526020600020906000945b601f1984168610613e1f57600194955083601f19811610613e05575b505050811b019055613cb1565b0135600019600384901b60f8161c19169055838080613df8565b91602060018192858501358155019301950194613ddc565b613e418183617cc7565b906001600160401b03821161144f57613e5e826121778754616fd5565b600090601f8311600114613eaa579282600194936020938695600092613e9f575b5050600019600383901b1c191690841b1786555b01930194019391613bd0565b013590508a80613e7f565b8560005260206000209160005b601f1985168110613f02575083602093600196938796938794601f19811610613ee8575b505050811b018655613e93565b0135600019600384901b60f8161c191690558a8080613edb565b90926020600181928686013581550194019101613eb7565b613f248183617cc7565b906001600160401b03821161144f57613f41826121778754616fd5565b600090601f8311600114613f8d579282600194936020938695600092613f82575b5050600019600383901b1c191690841b1786555b01930194019391613b8b565b013590508a80613f62565b8560005260206000209160005b601f1985168110613fe5575083602093600196938796938794601f19811610613fcb575b505050811b018655613f76565b0135600019600384901b60f8161c191690558a8080613fbe565b90926020600181928686013581550194019101613f9a565b6140078183617cc7565b906001600160401b03821161144f57614024826121778754616fd5565b600090601f8311600114614070579282600194936020938695600092614065575b5050600019600383901b1c191690841b1786555b01930194019391613b46565b013590508a80614045565b8560005260206000209160005b601f19851681106140c8575083602093600196938796938794601f198116106140ae575b505050811b018655614059565b0135600019600384901b60f8161c191690558a80806140a1565b9092602060018192868601358155019401910161407d565b013590508380613ad8565b826000526020600020906000945b601f198416861061413c57600194955083601f19811610614122575b505050811b019055613aed565b0135600019600384901b60f8161c19169055838080614115565b916020600181928585013581550193019501946140f9565b013590508380613a65565b826000526020600020906000945b601f19841686106141b057600194955083601f19811610614196575b505050811b019055613a7a565b0135600019600384901b60f8161c19169055838080614189565b9160206001819285850135815501930195019461416d565b60405162461bcd60e51b815260206004820152601c60248201527b5375622d63617465676f72792063616e6e6f7420626520656d70747960201b6044820152606490fd5b60405162461bcd60e51b815260206004820152601860248201527743617465676f72792063616e6e6f7420626520656d70747960401b6044820152606490fd5b60405162461bcd60e51b815260206004820152601560248201527453697a65732063616e6e6f7420626520656d70747960581b6044820152606490fd5b60405162461bcd60e51b8152602060048201526016602482015275436f6c6f72732063616e6e6f7420626520656d70747960501b6044820152606490fd5b60405162461bcd60e51b815260206004820152601b60248201527a4465736372697074696f6e2063616e6e6f7420626520656d70747960281b6044820152606490fd5b60405162461bcd60e51b815260206004820152602860248201527f4f6e6c79207468652073656c6c65722063616e20757064617465207468656972604482015267081c1c9bd91d58dd60c21b6064820152608490fd5b346105e25760a03660031901126105e2576004356001600160401b0381116105e257614390903690600401616f19565b60249081356001600160401b0381116105e2576143b1903690600401616f19565b6044356001600160401b0381116105e2576143d0903690600401616f19565b6064356001600160401b0381116105e2576143ef903690600401616f19565b906084356001600160401b0381116105e25761440f903690600401616f19565b9261441b331515617af9565b33600052601360205260ff60406000205416614ac957845115614a8c57815115614a5757825115614a22576040519461445386616e01565b855260208501526040840152606083015260808201524260a0820152600160c0820152336000526011602052604060002090805192835160018060401b038111614a0d576144ab816144a58654616fd5565b86617b91565b6020601f82116001146149a4578192939495600092614999575b50508160011b916000199060031b1c19161783555b602082015180519093906001600160401b0381116149845761450c816145036001850154616fd5565b60018501617b91565b6020601f821160011461491557819293949560009261490a575b50508160011b916000199060031b1c19161760018201555b604083015180519093906001600160401b0381116148f557614570816145676002860154616fd5565b60028601617b91565b6020601f821160011461488657819293949560009261487b575b50508160011b916000199060031b1c19161760028301555b6060810151805160038401916001600160401b0382116147f55781906145cc826144a58654616fd5565b602090601f83116001146148155760009261480a575b50508160011b916000199060031b1c19161790555b6080810151805160048401916001600160401b0382116147f55761461f82611c138554616fd5565b602090601f831160011461478357928260c09361466d979693600696600092614778575b50508160011b916000199060031b1c19161790555b60a0810151600585015501511515910161799c565b336000526013602052604060002060ff1990600182825416179055601260205260016040600020918254161790556146a4336197ac565b156146f3575b6040514281527fa1a1a78ff3033d5ee8393372052aeb2a16bbb347a29f3780370e9506c109e37260203392a26040516001815260008051602061987b83398151915260203392a2005b600e5490600160401b821015614764576001820180600e558210156147505750600e6000527fbb7b4a454dc3493923482f07822329ed19e8244eff582cc204f8554c3620c3fd0180546001600160a01b03191633179055806146aa565b634e487b7160e01b60009081526032600452fd5b634e487b7160e01b60009081526041600452fd5b015190508980614643565b90601f198316918460005260206000209260005b8181106147dd57509361466d979693600696936001938360c098106147c4575b505050811b019055614658565b015160001960f88460031b161c191690558980806147b7565b92936020600181928786015181550195019301614797565b85634e487b7160e01b60005260416004526000fd5b0151905086806145e2565b6000858152602081209350601f198516905b818110614863575090846001959493921061484a575b505050811b0190556145f7565b015160001960f88460031b161c1916905586808061483d565b92936020600181928786015181550195019301614827565b01519050858061458a565b6002840160005260206000209060005b601f19841681106148dd575060019394959683601f198116106148c4575b505050811b0160028301556145a2565b015160001960f88460031b161c191690558580806148b4565b9091602060018192858b015181550193019101614896565b83634e487b7160e01b60005260416004526000fd5b015190508580614526565b6001830160005260206000209060005b601f198416811061496c575060019394959683601f19811610614953575b505050811b01600182015561453e565b015160001960f88460031b161c19169055858080614943565b9091602060018192858b015181550193019101614925565b82634e487b7160e01b60005260416004526000fd5b0151905085806144c5565b8460005260206000209060005b601f19841681106149f5575060019394959683601f198116106149dc575b505050811b0183556144da565b015160001960f88460031b161c191690558580806149cf565b9091602060018192858b0151815501930191016149b1565b50634e487b7160e01b60009081526041600452fd5b60405162461bcd60e51b815260206004820152600e818801526d141a1bdb99481c995c5d5a5c995960921b6044820152606490fd5b60405162461bcd60e51b815260206004820152600e818801526d115b585a5b081c995c5d5a5c995960921b6044820152606490fd5b60405162461bcd60e51b81526020600482015260168188015275109d5cda5b995cdcc81b985b59481c995c5d5a5c995960521b6044820152606490fd5b60405162461bcd60e51b815260206004820152601c818801527b20b63932b0b23c903932b3b4b9ba32b932b21030b99039b2b63632b960211b6044820152606490fd5b346105e25760403660031901126105e2576001600160401b036004356024358281116105e257614b40903690600401616f19565b614b486175f2565b816000526020906018825260406000205415614ce557614b6a8151151561853d565b614b75600c5461847e565b80600c5560405190614b8682616e38565b808252838201838152604083019086825260608401926001908185526000526019875260406000209451855580850191518051998a1161144f57614bce8a611c138554616fd5565b8790601f8b11600114614c685799808060039694614c24999896946000805160206198bb8339815191529c9d9e600094614c5d575b50501b9160001990871b1c19161790555b516002840155511515910161799c565b8360005260188352614c406003604060002001600c549061823f565b600c5492614c58604051928284938452830190616aae565b0390a3005b015192508e80614c03565b9990601f1982169a84600052896000209b60005b818110614cd057509b60039694928492614c249a9997956000805160206198bb8339815191529d9e9f10614cb8575b505050811b019055614c14565b015160001983891b60f8161c191690558c8080614cab565b838301518e559c85019c928b01928b01614c7c565b60405162461bcd60e51b815260048101839052601e60248201527f506172656e742063617465676f727920646f6573206e6f7420657869737400006044820152606490fd5b346105e25760203660031901126105e257600435600052601560205260406000208054600160a01b600190036001830154169160405180806002840190614d709161700f565b03614d7b9082616ea4565b60405180614d8c816003860161700f565b03614d979082616ea4565b600483015460058401549060405180806009880190614db59161700f565b03614dc09082616ea4565b6040519081614dd281600a8a0161700f565b03614ddd9083616ea4565b600b87015492604051948580600c8b0190614df79161700f565b03614e029087616ea4565b6040519687614e1481600d8d0161700f565b03614e1f9089616ea4565b600e8a015499600f0154986040519c8d9c8d5260208d01528b6101e06040819201528c01614e4c91616aae565b8b810360608d0152614e5d91616aae565b9160808b015260a08a015288810360c08a0152614e7991616aae565b87810360e0890152614e8a91616aae565b90610100870152858103610120870152614ea391616aae565b848103610140860152614eb591616aae565b9161016084015260ff811615156101808401528060081c60ff1615156101a084015260101c60ff1615156101c08301520390f35b346105e25760003660031901126105e257614f026175f2565b600080546001600160a01b0319811682556001600160a01b031660008051602061985b8339815191528280a3005b346105e25760203660031901126105e2576001600160a01b03614f51616d9d565b168015614f705760005260056020526020604060002054604051908152f35b60405162461bcd60e51b815260206004820152602960248201527f4552433732313a2061646472657373207a65726f206973206e6f7420612076616044820152683634b21037bbb732b960b91b6064820152608490fd5b346105e2576020806003193601126105e257614fe1616d9d565b60405190614fee82616e53565b6000608060609384815284868201528460408201528285820152015260018060a01b031690816000526014835260ff6040600020541691601084526040600020916040519161503c83616e53565b60405161504d816103ce818861700f565b8352604051906150648261342b816001890161700f565b8684019182526040519161507f836106308160028a0161700f565b6040850192835260ff6004600388015497868801988952015416916080860192151583526000526013885260ff604060002054169283600014615142576012895260ff60406000205416955b604051998a9915158a52890160809052516080890160a0905261012089016150f291616aae565b9151607f1992838a82030160a08b015261510b91616aae565b9051918882030160c089015261512091616aae565b945160e087015251151561010086015215156040850152830161035e91617336565b6000956150cb565b346105e25760203660031901126105e2576004356000526019602052604060002060405161517781616e38565b81548152604051906151908261342b816001870161700f565b6020810191825260ff600360028501549460408401958652015416906060810191151582526151c181511515618609565b5191519251905115156151e66040519485948552608060208601526080850190616aae565b91604084015260608301520390f35b346105e25761520336616f96565b61520e9291926175f2565b816000526020926018845261522960406000205415156185a3565b615235815115156184f1565b60008381526018855260409020815194906001908101906001600160401b03871161144f5761526887613a458454616fd5565b82601f88116001146152d657968080601895949360008051602061983b833981519152999a6000936152cb575b501b916000199060031b1c19161790555b85600052526152bc82600260406000200161799c565b611cca604051928392836185e9565b88015192508b615295565b96601f1981169783600052846000209860005b818110615336575098829160189695949360008051602061983b8339815191529a9b1061531d575b5050811b0190556152a6565b87015160001960f88460031b161c191690558980615311565b878301518b55998401999186019186016152e9565b346105e25760203660031901126105e2576020615369600435617691565b6040516001600160a01b039091168152f35b346105e25760203660031901126105e2576001600160a01b0361539c616d9d565b16600052601a6020526020604060002054604051908152f35b346105e25760203660031901126105e2576004356153d16175f2565b606481116153de57600d55005b60405162461bcd60e51b8152602060048201526012602482015271496e76616c69642070657263656e7461676560701b6044820152606490fd5b346105e25760003660031901126105e25760405180600e5480835260208093018091600e600052846000209060005b868282106154a657868661545d82880383616ea4565b604051928392818401908285525180915260408401929160005b82811061548657505050500390f35b83516001600160a01b031685528695509381019392810192600101615477565b83546001600160a01b031685529093019260019283019201615447565b346105e25760203660031901126105e257600435600f548110156105e257600f6000526000805160206198fb83398151915201546040516001600160a01b039091168152602090f35b346105e25760203660031901126105e2576001600160a01b0361552d616d9d565b166000526012602052602060ff604060002054166108c06040518092617336565b346105e2576020806003193601126105e257615568616d9d565b615570617bd8565b506001600160a01b031660008181526013835260409020546155949060ff16617c0f565b6000526011815260406000209060ff6006604051936155b285616e01565b6040516155c3816103ce818561700f565b85526040516155d9816103ce816001860161700f565b848601526040516155f1816103ce816002860161700f565b604086015260405161560a816103ce816003860161700f565b6060860152604051615623816103ce816004860161700f565b6080860152600581015460a0860152015416151560c083015261035e6040519282849384528301906172b6565b346105e2576113ac61566136616f61565b906040519261566f84616e89565b6000845261773d565b346105e25760003660031901126105e257615691618718565b3360005260206013815260ff60406000205416156157745733600052601a81526040600020549081156157375761572b615731926156de60646156d6600d548461806c565b0480926186be565b9233600052601a8152600060408120557f8ad64a0ac7700dd8425ab0499f107cb6e2cd1581d803c5b8c1c79dcb8190b1af60405191600083523392a26000546001600160a01b0316619746565b33619746565b60018055005b6064906040519062461bcd60e51b8252600482015260166024820152754e6f2062616c616e636520746f20776974686472617760501b6044820152fd5b6064906040519062461bcd60e51b82526004820152601b60248201527a26bab9ba1031329030903932b3b4b9ba32b932b21039b2b63632b960291b6044820152fd5b346105e2576020806003193601126105e2576001600160a01b0390816157da616d9d565b16600052601c815260406000208054906157f382617443565b926158016040519485616ea4565b82845260009182528082208185015b848410615825576040518061035e88826171d5565b60168360019260405161583781616e1c565b85548152848601548382015260028601546040820152600386015460608201526004860154608082015260ff8b60058801541660a090818401526006880154908d821660c08501521c16151560e082015261589460078701617377565b6101008201526158a6600f87016174bf565b610120820152815201920193019290615810565b346105e25760203660031901126105e2576001600160a01b036158db616d9d565b16600052601060205261594e6040600020604051906158fe8261342b818461700f565b604051615912816103ce816001860161700f565b61596a604051615929816103ce816002880161700f565b61595c60ff60046003870154960154169360405197889760a0895260a0890190616aae565b908782036020890152616aae565b908582036040870152616aae565b916060840152151560808301520390f35b346105e25761598936616f96565b6159949291926175f2565b81600052602092601984526159af6040600020541515618609565b6159bb8151151561853d565b60008381526019855260409020815194906001908101906001600160401b03871161144f576159ee87613a458454616fd5565b82601f8811600114615a4d5796808060199594936000805160206198db833981519152999a600093615a42575b501b916000199060031b1c19161790555b85600052526152bc82600360406000200161799c565b88015192508b615a1b565b96601f1981169783600052846000209860005b818110615aad57509882916019969594936000805160206198db8339815191529a9b10615a94575b5050811b019055615a2c565b87015160001960f88460031b161c191690558980615a88565b878301518b5599840199918601918601615a60565b346105e25760403660031901126105e257602480356004356000805b826000526015602090808252601091826040600020018054851015615cd857615b088589926186fc565b505414615b2057505050615b1b9061847e565b615ade565b919350919394600052601d815260ff94856040600020541615615c9e5780600052828252615b5485856040600020016186fc565b50600190810154909690336001600160a01b0391821614908115615c90575b5015615c3b57816000528383526004615b9287876040600020016186fc565b50015416615bfe5791615bb3939160049593600052526040600020016186fc565b5001805460ff1916821790555b15615bc757005b60649060106040519162461bcd60e51b8352602060048401528201526f14995d9a595dc81b9bdd08199bdd5b9960821b6044820152fd5b60405162461bcd60e51b8152600481018390526016818901527514995d9a595dc8185b1c9958591e4819195b195d195960521b6044820152606490fd5b60405162461bcd60e51b8152600481018490526028818a01527f4f6e6c79207265766965776572206f72206f776e65722063616e2064656c6574604482015267652072657669657760c01b6064820152608490fd5b600054163314905089615b73565b50606491866040519262461bcd60e51b845260048401528201527414995d9a595dc8191bd95cc81b9bdd08195e1a5cdd605a1b6044820152fd5b5050505050915050615bc0565b346105e2576113ac615cf636616f61565b91615d09615d0484336177d8565b6176db565b6178a0565b60031960a0368201126105e2576001600160401b03602435116105e25761010090602435360301126105e2576044356001600160401b0381116105e257615d59903690600401616f34565b906064356001600160401b0381116105e257615d79903690600401616f34565b91615d82618718565b600435600052601760205260ff6040600020541615616210576004356000526015602052604060002093600f8501549360ff8560101c166161d057600586015494608435861061619657600487015495615dde6084358861806c565b341061615a57615df190608435906186be565b80600589015515616148575b5060018601546001600160a01b031694615e1a906084359061806c565b9360405192615e2884616de5565b6001600160401b0360046024350135116105e257615e523660046024358101356024350101616f19565b84526001600160401b03602480350135116105e257615e7d3660046024803501356024350101616f19565b60208501526001600160401b0360243560440135116105e257615eab36602435604481013501600401616f19565b6040850152602435606401356001600160401b0381116105e257615ed790600436916024350101616f19565b6060850152602435608401356001600160401b0381116105e257615f0390600436916024350101616f19565b608085015260243560a401356001600160401b0381116105e257615f2f90600436916024350101616f19565b60a085015260243560c401356001600160401b0381116105e257615f5b90600436916024350101616f19565b60c08501526001600160401b0360243560e40135116105e257615fb0600392615fa86160a89761603094615f9c36600460e460243501356024350101616f19565b60e08a01523691616ee2565b943691616ee2565b600435600052601560205260406000209060405194615fce86616e01565b604051615fe2816103ce816002880161700f565b8652615ff06008840161745a565b602087015260408601526060850152608435608085015260405161601b816103ce816009860161700f565b60a08501526103ce604051809481930161700f565b60c08201526040519161604283616e1c565b60043583523460208401528460408401524260608401524260808401523360a08401528560c0840152600060e084015261010083015261012082015233600052601b60205261609581604060002061876e565b83600052601c602052604060002061876e565b81600052601a6020526040600020805490348201809211611439575560405190348252602082015242604082015233907f45280c7ac9cec77edd454e39e1641a3e22619146cf074a4239beee86a7c07edc606060043592a46001808060a01b039101541660405134815242602082015233907fbe6177108f4df43c5d7be79cb219c969fc97915bbdb4b56d14d391dcdcc16060604060043592a460018055005b60ff1916600117600f87015586615dfd565b60405162461bcd60e51b8152602060048201526014602482015273125b9cdd59999a58da595b9d081c185e5b595b9d60621b6044820152606490fd5b60405162461bcd60e51b8152602060048201526012602482015271496e73756666696369656e742073746f636b60701b6044820152606490fd5b60405162461bcd60e51b8152602060048201526018602482015277141c9bd91d58dd081a185cc81899595b8819195b195d195960421b6044820152606490fd5b60405162461bcd60e51b8152602060048201526011602482015270141c9bd91d58dd081b9bdd08199bdd5b99607a1b6044820152606490fd5b346105e25760203660031901126105e2576004356162656175f2565b80600052601960205261627e6040600020541515618609565b8060005260196020526000805160206198db83398151915261283d60406000206003810160ff19815416905560405191829160408352600160408401910161700f565b346105e25760603660031901126105e257602480356004356044356001600160401b0381116105e2576162f8903690600401616f19565b90806000526020916015835260018060a01b036001604060002001541633146164515783151580616446575b15616402578051156163c45790601592916001600a54019081600a556163486186cb565b958287523385880152604087015260608601524260a0860152600052601d82526040600020600160ff198254161790556000525260106040600020018054600160401b8110156148f5576163a1916001820181556186fc565b6163af576113ac9250618111565b82634e487b7160e01b60005260006004526000fd5b60405162461bcd60e51b81526004810184905260178187015276436f6d6d656e742063616e6e6f7420626520656d70747960481b6044820152606490fd5b60405162461bcd60e51b815260048101849052601e818701527f526174696e67206d757374206265206265747765656e203120616e64203500006044820152606490fd5b506005841115616324565b60405162461bcd60e51b8152600481018490526026818701527f53656c6c65722063616e6e6f7420726576696577207468656972206f776e20706044820152651c9bd91d58dd60d21b6064820152608490fd5b346105e25760003660031901126105e2576164bd6175f2565b33600052601e602052604060002060018060a01b031981541690556000805160206197fb8339815191526040805133815260006020820152a1005b346105e25760403660031901126105e2576113ac616514616db3565b6004356193a0565b346105e25760203660031901126105e2576001600160a01b0361653d616d9d565b166000526014602052602060ff604060002054166040519015158152f35b346105e25760403660031901126105e257616574616d9d565b602435906001600160a01b03808061658b85617691565b1692169180831461668657803314908115616661575b50156165f657600083815260066020526040902080546001600160a01b031916831790556165ce83617691565b167f8c5be1e5ebec7d5bd14f71427d1e84f3dd0314c0f7b2291e5b200ac8c7c3b925600080a4005b60405162461bcd60e51b815260206004820152603d60248201527f4552433732313a20617070726f76652063616c6c6572206973206e6f7420746f60448201527f6b656e206f776e6572206f7220617070726f76656420666f7220616c6c0000006064820152608490fd5b9050600052600760205260406000203360005260205260ff60406000205416846165a1565b60405162461bcd60e51b815260206004820152602160248201527f4552433732313a20617070726f76616c20746f2063757272656e74206f776e656044820152603960f91b6064820152608490fd5b346105e25760203660031901126105e25760206153696004356176b4565b346105e25760003660031901126105e25760405160009060025461671681616fd5565b8083526001918083169081156133bf575060011461673e5761035e8361335181870382616ea4565b6002600090815260209450917f405787fa12a823e0f2b7631cc41b3ba8828b3321ca811111fa75cd3aa3bb5ace5b8284106167855750505081019091019061335181613341565b805485850187015292850192810161676c565b346105e25760003660031901126105e25760088054600060015b828111156169d257506167c49061848d565b9060009260015b828111156167e1576040518061035e8682616d3b565b80600052602060158152604060002090600f82015460ff926010908483831c16158061681c575b5050505050506168179061847e565b6167cb565b60409a969a519561682c87616dc9565b8254875260018301546001600160a01b031686880152604051616856816103ce816002880161700f565b604088015260405161686f816103ce816003880161700f565b606088015260048301546080880152600583015460a088015260069461689686850161745a565b60c08901526168a76007850161745a565b60e08901526168b78a850161745a565b6101008901526040516168d1816103ce816009890161700f565b6101208901526040516168eb816103ce81600a890161700f565b610140890152600b840154610160890152604051616910816103ce81600c890161700f565b61018089015260405161692a816103ce81600d890161700f565b6101a0890152600e8401546101c089015281811615156101e0890152891c16151561020087015215610220860152019081549161696683617443565b936169746040519586616ea4565b8385526000918252808220918186015b8582106169b6575050505050509181616817936102406169aa94015261053982886184dd565b94908680808080616808565b84836001926169c48761841d565b815201940191019092616984565b80600052601560205260ff600f6040600020015460101c16156169fe575b6169f99061847e565b6167b2565b90616a0b6169f99161847e565b9190506169f0565b346105e25760203660031901126105e25760043563ffffffff60e01b81168091036105e2576020906380ac58cd60e01b8114908115616a70575b8115616a5f575b506040519015158152f35b6301ffc9a760e01b14905082616a54565b635b5e139f60e01b81149150616a4d565b346105e25760203660031901126105e257602090600435600052601d825260ff6040600020541615158152f35b919082519283825260005b848110616ada575050826000602080949584010152601f8019910116010190565b602081830181015184830182015201616ab9565b908082519081815260208091019281808460051b8301019501936000915b848310616b1c5750505050505090565b9091929394958480616b3a600193601f198682030187528a51616aae565b9801930193019194939290616b0c565b908082519081815260208091019281808460051b8301019501936000915b848310616b785750505050505090565b9091929394958480600192601f1985820301865289519081518152848060a01b0383830151168382015260408083015190820152616bc56060808401519060c08091850152830190616aae565b9160808082015115159083015260a0809101519101529801930193019194939290616b68565b90616d38918051825260018060a01b036020820151166020830152616cf2616cde616cbf616cab616c97616c83616c71616c4b616c3960408a015160408c61026091829101528c0190616aae565b60608a01518b820360608d0152616aae565b608089015160808b015260a089015160a08b015260c08901518a820360c08c0152616aee565b60e088015189820360e08b0152616aee565b6101008088015190898303908a0152616aee565b610120808701519088830390890152616aae565b610140808601519087830390880152616aae565b6101608085015190860152610180808501519086830390870152616aae565b6101a0808401519085830390860152616aae565b916101c080830151908201526101e08083015115159082015261020080830151151590820152610220808301511515908201526102408092015191818403910152616b4a565b90565b602080820190808352835180925260408301928160408460051b8301019501936000915b848310616d6f5750505050505090565b9091929394958480616d8d600193603f198682030187528a51616beb565b9801930193019194939290616d5f565b600435906001600160a01b03821682036105e257565b602435906001600160a01b03821682036105e257565b61026081019081106001600160401b0382111761144f57604052565b61010081019081106001600160401b0382111761144f57604052565b60e081019081106001600160401b0382111761144f57604052565b61014081019081106001600160401b0382111761144f57604052565b608081019081106001600160401b0382111761144f57604052565b60a081019081106001600160401b0382111761144f57604052565b60c081019081106001600160401b0382111761144f57604052565b602081019081106001600160401b0382111761144f57604052565b601f909101601f19168101906001600160401b0382119082101761144f57604052565b6001600160401b03811161144f57601f01601f191660200190565b929192616eee82616ec7565b91616efc6040519384616ea4565b8294818452818301116105e2578281602093846000960137010152565b9080601f830112156105e257816020616d3893359101616ee2565b9181601f840112156105e2578235916001600160401b0383116105e257602083818601950101116105e257565b60609060031901126105e2576001600160a01b039060043582811681036105e2579160243590811681036105e2579060443590565b9060606003198301126105e25760043591602435906001600160401b0382116105e257616fc591600401616f19565b9060443580151581036105e25790565b90600182811c92168015617005575b6020831014616fef57565b634e487b7160e01b600052602260045260246000fd5b91607f1691616fe4565b906000929180549161702083616fd5565b9182825260019384811690816000146170825750600114617042575b50505050565b90919394506000526020928360002092846000945b83861061706e57505050500101903880808061703c565b805485870183015294019385908201617057565b9294505050602093945060ff191683830152151560051b0101903880808061703c565b616d389160e061713c61712a6171186171066170f46170e26170d08951610100808b528a0190616aae565b60208a015189820360208b0152616aae565b604089015188820360408a0152616aae565b60608801518782036060890152616aae565b60808701518682036080880152616aae565b60a086015185820360a0870152616aae565b60c085015184820360c0860152616aae565b9201519060e0818403910152616aae565b616d389160c06171c46171a8617196617184617172875160e0885260e0880190616aae565b60208801518782036020890152616aee565b60408701518682036040880152616aae565b60608601518582036060870152616aae565b6080850151608085015260a085015184820360a0860152616aae565b9201519060c0818403910152616aae565b602080820190808352835180925260409283810182858560051b8401019601946000925b85841061720a575050505050505090565b9091929394959685806172a5600193603f198682030188528b5180518252838101518483015287810151888301526060808201519083015260808082015190830152858060a01b0360a08181840151169084015260c09081830151169083015260e080820151151590830152617291610100808301519061014080918601528401906170a5565b91610120809201519181840391015261714d565b9901940194019295949391906171f9565b9060c08061732161730f6172fd6172eb6172d9885160e0895260e0890190616aae565b602089015188820360208a0152616aae565b60408801518782036040890152616aae565b60608701518682036060880152616aae565b60808601518582036080870152616aae565b9360a081015160a08501520151151591015290565b906004821015611b245752565b80548210156123185760005260206000200190600090565b8054821015612318576000526016602060002091020190600090565b90600760e060409361743f85519161738e83616de5565b610630839780516173a3816103ce818761700f565b855280516173b8816103ce816001880161700f565b602086015280516173d0816103ce816002880161700f565b8186015280516173e7816103ce816003880161700f565b606086015280516173ff816103ce816004880161700f565b60808601528051617417816103ce816005880161700f565b60a0860152805161742f816103ce816006880161700f565b60c086015251809681930161700f565b0152565b6001600160401b03811161144f5760051b60200190565b90815461746681617443565b9260409361747685519182616ea4565b828152809460208092019260005281600020906000935b85851061749c57505050505050565b600184819284516174b1816103ce818a61700f565b81520193019401939161748d565b90600660c060409361743f8551916174d683616e01565b610630839780516174eb816103ce818761700f565b85526174f96001840161745a565b60208601528051617511816103ce816002880161700f565b818601528051617528816103ce816003880161700f565b606086015260048301546080860152805161754a816103ce816005880161700f565b60a086015251809681930161700f565b9895939092616d389a9895926175af98948b5260208b015260408a01526060890152608088015260018060a01b0380921660a08801521660c0860152151560e0850152610140806101008601528401906170a5565b9161012081840391015261714d565b90815180825260208080930193019160005b8281106175de575050505090565b8351855293810193928101926001016175d0565b6000546001600160a01b0316330361760657565b606460405162461bcd60e51b815260206004820152602060248201527f4f776e61626c653a2063616c6c6572206973206e6f7420746865206f776e65726044820152fd5b1561765157565b60405162461bcd60e51b8152602060048201526018602482015277115490cdcc8c4e881a5b9d985b1a59081d1bdad95b88125160421b6044820152606490fd5b6000908152600460205260409020546001600160a01b0316616d3881151561764a565b6176c0612868826179ad565b6000908152600660205260409020546001600160a01b031690565b156176e257565b60405162461bcd60e51b815260206004820152602d60248201527f4552433732313a2063616c6c6572206973206e6f7420746f6b656e206f776e6560448201526c1c881bdc88185c1c1c9bdd9959609a1b6064820152608490fd5b90617761939291617751615d0484336177d8565b61775c8383836178a0565b6179fa565b1561776857565b60405162461bcd60e51b81528061778160048201617785565b0390fd5b60809060208152603260208201527f4552433732313a207472616e7366657220746f206e6f6e20455243373231526560408201527131b2b4bb32b91034b6b83632b6b2b73a32b960711b60608201520190565b906001600160a01b0380806177ec84617691565b1693169183831493841561781f575b508315617809575b50505090565b617815919293506176b4565b1614388080617803565b909350600052600760205260406000208260005260205260ff6040600020541692386177fb565b1561784d57565b60405162461bcd60e51b815260206004820152602560248201527f4552433732313a207472616e736665722066726f6d20696e636f72726563742060448201526437bbb732b960d91b6064820152608490fd5b906178c8916178ae84617691565b6001600160a01b0393918416928492909183168414617846565b1691821561794b57816178e5916178de86617691565b1614617846565b60008051602061989b833981519152600084815260066020526040812060018060a01b03199081815416905583825260056020526040822060001981540190558482526040822060018154019055858252600460205284604083209182541617905580a4565b60405162461bcd60e51b8152602060048201526024808201527f4552433732313a207472616e7366657220746f20746865207a65726f206164646044820152637265737360e01b6064820152608490fd5b9060ff801983541691151516179055565b6000908152600460205260409020546001600160a01b0316151590565b3d156179f5573d906179db82616ec7565b916179e96040519384616ea4565b82523d6000602084013e565b606090565b91926000929190813b15617aef57602091617a509185604051958680958194630a85bd0160e11b9b8c845233600485015260018060a01b0380951660248501526044840152608060648401526084830190616aae565b0393165af190829082617aa0575b5050617a9257617a6c6179ca565b80519081617a8d5760405162461bcd60e51b81528061778160048201617785565b602001fd5b6001600160e01b0319161490565b909192506020813d8211617ae7575b81617abc60209383616ea4565b81010312617ae35751906001600160e01b031982168203617ae05750903880617a5e565b80fd5b5080fd5b3d9150617aaf565b5050505050600190565b15617b0057565b60405162461bcd60e51b815260206004820152600f60248201526e496e76616c6964206164647265737360881b6044820152606490fd5b15617b3e57565b60405162461bcd60e51b81526020600482015260146024820152734e616d652063616e6e6f7420626520656d70747960601b6044820152606490fd5b818110617b85575050565b60008155600101617b7a565b9190601f8111617ba057505050565b617bcc926000526020600020906020601f840160051c83019310617bce575b601f0160051c0190617b7a565b565b9091508190617bbf565b60405190617be582616e01565b600060c0836060808252806020830152806040830152808083015260808201528260a08201520152565b15617c1657565b60405162461bcd60e51b815260206004820152601560248201527414d95b1b195c881b9bdd081c9959da5cdd195c9959605a1b6044820152606490fd5b6001600160a01b03908116908115617c8957600054168114617c8357600052601260205260ff6040600020541690565b50600290565b60405162461bcd60e51b8152602060048201526016602482015275496e76616c69642073656c6c6572206164647265737360501b6044820152606490fd5b903590601e19813603018212156105e257018035906001600160401b0382116105e2576020019181360383136105e257565b15617d0057565b60405162461bcd60e51b815260206004820152601c60248201527b05072696365206d7573742062652067726561746572207468616e20360241b6044820152606490fd5b15617d4b57565b60405162461bcd60e51b815260206004820152601c60248201527b053746f636b206d7573742062652067726561746572207468616e20360241b6044820152606490fd5b15617d9657565b60405162461bcd60e51b815260206004820152601d60248201527f576569676874206d7573742062652067726561746572207468616e20300000006044820152606490fd5b15617de257565b60405162461bcd60e51b81526020600482015260156024820152744d6f64656c2063616e6e6f7420626520656d70747960581b6044820152606490fd5b15617e2657565b60405162461bcd60e51b81526020600482015260156024820152744272616e642063616e6e6f7420626520656d70747960581b6044820152606490fd5b15617e6a57565b60405162461bcd60e51b815260206004820152601a6024820152790534b55206d7573742062652067726561746572207468616e20360341b6044820152606490fd5b903590601e19813603018212156105e257018035906001600160401b0382116105e257602001918160051b360383136105e257565b15617ee857565b60405162461bcd60e51b8152602060048201526016602482015275496d616765732063616e6e6f7420626520656d70747960501b6044820152606490fd5b15617f2d57565b60405162461bcd60e51b815260206004820152601c60248201527b496d616765732063616e6e6f74206265206d6f7265207468616e203560201b6044820152606490fd5b60405190617f7e82616dc9565b8161024060009182815282602082015260609283604083015283808301528060808301528060a08301528360c08301528360e08301528361010083015283610120830152836101408301528061016083015283610180830152836101a0830152806101c0830152806101e0830152806102008301526102208201520152565b9291909261800a84617443565b916180186040519384616ea4565b829480845260208094019060051b8301928284116105e25780915b84831061804257505050505050565b82356001600160401b0381116105e25786916180618684938601616f19565b815201920191618033565b8181029291811591840414171561143957565b6180898154616fd5565b9081618093575050565b81601f600093116001146180a5575055565b9080839182526180c4601f60208420940160051c840160018501617b7a565b5555565b90600160401b811161144f578154918181558282106180e657505050565b600052602060002091820191015b8181106180ff575050565b8061810b60019261807f565b016180f4565b81518155602080830151600180840180546001600160a01b0319166001600160a01b03939093169290921790915560408401516002840155606084015180519394909390926003860192906001600160401b03831161144f57618178836144a58654616fd5565b80601f84116001146181d057509180809260a09695946005986000946181c5575b50501b916000199060031b1c19161790555b6181be608082015115156004860161799c565b0151910155565b015192503880618199565b91939495601f1984168660005283600020936000905b828210618228575050916005979593918560a09896941061820f575b505050811b0190556181ab565b015160001960f88460031b161c19169055388080618202565b8088869782949787015181550196019401906181e6565b8054600160401b81101561144f5761825c91600182018155617343565b819291549060031b91821b91600019901b1916179055565b1561827b57565b60405162461bcd60e51b815260206004820152601c60248201527b115490cdcc8c4e881d1bdad95b88185b1c9958591e481b5a5b9d195960221b6044820152606490fd5b156182c657565b60405162461bcd60e51b8152602060048201526016602482015275141c9bd91d58dd08191bd95cc81b9bdd08195e1a5cdd60521b6044820152606490fd5b1561830b57565b60405162461bcd60e51b8152602060048201526012602482015271141c9bd91d58dd081a5cc819195b195d195960721b6044820152606490fd5b90808214618419576183578154616fd5565b906001600160401b03821161144f578190618376826144a58654616fd5565b600090601f83116001146183ad576000926183a2575b50508160011b916000199060031b1c1916179055565b01549050388061838c565b81526020808220858352818320935090601f1985169083905b8282106184005750509084600195949392106183e7575b505050811b019055565b015460001960f88460031b161c191690553880806183dd565b84958192958501548155600180910196019401906183c6565b5050565b9060405161842a81616e6e565b60a06005829480548452600180841b03600182015416602085015260028101546040850152604051618463816103ce816003860161700f565b606085015260ff600482015416151560808501520154910152565b60001981146114395760010190565b9061849782617443565b6184a46040519182616ea4565b82815280926184b5601f1991617443565b019060005b8281106184c657505050565b6020906184d1617f71565b828285010152016184ba565b80518210156123185760209160051b010190565b156184f857565b60405162461bcd60e51b815260206004820152601d60248201527f43617465676f7279206e616d652063616e6e6f7420626520656d7074790000006044820152606490fd5b1561854457565b606460405162461bcd60e51b815260206004820152602060248201527f53756263617465676f7279206e616d652063616e6e6f7420626520656d7074796044820152fd5b908210156123185761859f9160051b810190617cc7565b9091565b156185aa57565b60405162461bcd60e51b815260206004820152601760248201527610d85d1959dbdc9e48191bd95cc81b9bdd08195e1a5cdd604a1b6044820152606490fd5b90618601602091949394604084526040840190616aae565b931515910152565b1561861057565b60405162461bcd60e51b815260206004820152601a60248201527914dd5898d85d1959dbdc9e48191bd95cc81b9bdd08195e1a5cdd60321b6044820152606490fd5b9060405191828154918282526020928383019160005283600020936000905b82821061868757505050617bcc92500383616ea4565b855484526001958601958895509381019390910190618671565b60005b8281106186b057505050565b6060828201526020016186a4565b9190820391821161143957565b604051906186d882616e6e565b600060a0838281528260208201528260408201526060808201528260808201520152565b8054821015612318576000526006602060002091020190600090565b600260015414618729576002600155565b60405162461bcd60e51b815260206004820152601f60248201527f5265656e7472616e637947756172643a207265656e7472616e742063616c6c006044820152606490fd5b8054600160401b81101561144f5761878d90600192838201815561735b565b619330578251815560208084015183830155604084015160028301556060840151600380840191909155608085015160048085019190915560a0808701516005860180546001600160a01b0319166001600160a01b0392831617905560c088015160068701805460e08b01516001600160a81b0319909116929093169190911791151590921b60ff60a01b16179055610100860151805180516001600160401b0396949591949192906007830190888111618d2b5761885081613a458454616fd5565b8085601f988983116001146192c5576000926192ba575b5050600019828a1b1c1916908a1b1790555b600882018382015180519089821161905757819061889b826144a58654616fd5565b869089831160011461924f57600092619244575b5050600019828a1b1c1916908a1b1790555b6009820160408201518051908982116190575781906188e4826144a58654616fd5565b86908983116001146191d9576000926191ce575b5050600019828a1b1c1916908a1b1790555b600a8201606082015180519089821161905757819061892d826144a58654616fd5565b869089831160011461916357600092619158575b5050600019828a1b1c1916908a1b1790555b600b82016080820151805190898211619057578190618976826144a58654616fd5565b86908983116001146190ed576000926190e2575b5050600019828a1b1c1916908a1b1790555b600c820160a08201518051908982116190575781906189bf826144a58654616fd5565b86908983116001146190775760009261906c575b5050600019828a1b1c1916908a1b1790555b600d820160c0820151805190898211619057578190618a08826144a58654616fd5565b8690898311600114618fec57600092618fe1575b5050600019828a1b1c1916908a1b1790555b60e001518051600e830191888211618d2b578190618a50826144a58654616fd5565b8590888311600114618f7f57600092618f74575b505060001982891b1c191690891b1790555b610120600f8201980151978851805190888211618d2b578190618a9d826144a58654616fd5565b8590888311600114618f1257600092618f07575b505060001982891b1c191690891b1790555b60108101828901519083825192618ada84846180c8565b0190600052836000206000915b838310618e1a5750505050601181016040890151805190888211618d2b578190618b15826144a58654616fd5565b8590888311600114618db857600092618dad575b505060001982891b1c191690891b1790555b601281016060890151805190888211618d2b578190618b5e826144a58654616fd5565b8590888311600114618d4b57600092618d40575b505060001982891b1c191690891b1790555b608088015160138201556014810160a0890151805190888211618d2b57618baf82611c138554616fd5565b8490878311600114618cbe5791806015949260c09694600092618cb3575b5050600019828b1b1c1916908b1b1790555b01970151918251958611618c9e5750618c0285618bfc8954616fd5565b89617b91565b80928511600114618c385750938394918492600095618c2d575b50501b92600019911b1c1916179055565b015193503880618c1c565b92919084601f1981168860005285600020956000905b89838310618c845750505010618c6a575b50505050811b019055565b01519060f884600019921b161c1916905538808080618c5f565b858701518955909701969485019488935090810190618c4e565b604190634e487b7160e01b6000525260246000fd5b015190503880618bcd565b8a9291601f1983169185600052876000209260005b89828210618d155750509160c09795939185601598969410618cfd575b505050811b019055618bdf565b0151600019838d1b60f8161c19169055388080618cf0565b8385015186558f97909501949384019301618cd3565b604186634e487b7160e01b6000525260246000fd5b015190503880618b72565b908b9350601f1983169185600052876000209260005b89828210618d975750508411618d7f575b505050811b019055618b84565b0151600019838b1b60f8161c19169055388080618d72565b8385015186558f97909501949384019301618d61565b015190503880618b29565b908b9350601f1983169185600052876000209260005b89828210618e045750508411618dec575b505050811b019055618b3b565b0151600019838b1b60f8161c19169055388080618ddf565b8385015186558f97909501949384019301618dce565b80519081518b8111618ef2578c9181618e388a936116758854616fd5565b82948c8211600114618e795784958291600092618e6e575b5050600019828f1b1c191690841b1785555b01920192019190618ae7565b015190503880618e50565b8d9587600052846000209160005b601f1985168110618ece57509683929187988895601f19811610618eb4575b50505050811b018555618e62565b01519060f884600019921b161c19169055388e8180618ea6565b949750929585928285979397015181550194019201928f9491928e96938c95618e87565b604189634e487b7160e01b6000525260246000fd5b015190503880618ab1565b908b9350601f1983169185600052876000209260005b89828210618f5e5750508411618f46575b505050811b019055618ac3565b0151600019838b1b60f8161c19169055388080618f39565b8385015186558f97909501949384019301618f28565b015190503880618a64565b908b9350601f1983169185600052876000209260005b89828210618fcb5750508411618fb3575b505050811b019055618a76565b0151600019838b1b60f8161c19169055388080618fa6565b8385015186558f97909501949384019301618f95565b015190503880618a1c565b908c9350601f1983169185600052886000209260005b8a8282106190385750508411619020575b505050811b019055618a2e565b0151600019838c1b60f8161c19169055388080619013565b91929395968291958786015181550195019301908e9594939291619002565b604187634e487b7160e01b6000525260246000fd5b0151905038806189d3565b908c9350601f1983169185600052886000209260005b8a8282106190c357505084116190ab575b505050811b0190556189e5565b0151600019838c1b60f8161c1916905538808061909e565b91929395968291958786015181550195019301908e959493929161908d565b01519050388061898a565b908c9350601f1983169185600052886000209260005b8a8282106191395750508411619121575b505050811b01905561899c565b0151600019838c1b60f8161c19169055388080619114565b91929395968291958786015181550195019301908e9594939291619103565b015190503880618941565b908c9350601f1983169185600052886000209260005b8a8282106191af5750508411619197575b505050811b019055618953565b0151600019838c1b60f8161c1916905538808061918a565b91929395968291958786015181550195019301908e9594939291619179565b0151905038806188f8565b908c9350601f1983169185600052886000209260005b8a828210619225575050841161920d575b505050811b01905561890a565b0151600019838c1b60f8161c19169055388080619200565b91929395968291958786015181550195019301908e95949392916191ef565b0151905038806188af565b908c9350601f1983169185600052886000209260005b8a82821061929b5750508411619283575b505050811b0190556188c1565b0151600019838c1b60f8161c19169055388080619276565b91929395968291958786015181550195019301908e9594939291619265565b015190503880618867565b908c9350601f1983169185600052886000209260005b8a82821061931157505084116192f9575b505050811b019055618879565b0151600019838c1b60f8161c191690553880806192ec565b91929395968291958786015181550195019301908e95949392916192db565b634e487b7160e01b600052600060045260246000fd5b1561934d57565b60405162461bcd60e51b815260206004820152602560248201527f4f6e6c792076657269666965642073656c6c6572206f72206f776e657220616c6044820152641b1bddd95960da1b6064820152608490fd5b6000805490939291906001600160a01b03908116331461948357338552601e6020526040852054811690811561942d57818652601260205260ff60408720541660048110156194195791617bcc9596916002619407941492831561940c575b505050619346565b61948b565b54161490503880806193ff565b634e487b7160e01b87526021600452602487fd5b9050601260205260ff604086205416600481101561946f5794619407916002617bcc969714918215619461575b5050619346565b90915054163314388061945a565b634e487b7160e01b86526021600452602486fd5b50617bcc9293505b600091825b60018060a01b0380831680600052601b6020818152604092836000208054871015619738576194c0878a9261735b565b5054146194da5750505050506194d59061847e565b619490565b8091929394969798506000528282526194f6858560002061735b565b509560ff60068098015460a01c166196f85781600052838352808761951e888860002061735b565b5001541633149081156196ea575b50156196935790619546949392916000525260002061735b565b5001805460ff60a01b1916600160a01b17905560015b1561965957816000526020916015835260018060a01b039260019384936040828682600020015416866000905b6195ab575b505060008051602061981b833981519152949550519586521693a3565b81600052601c808752836000208054831015619652576195cc838a9261735b565b5054148061962d575b6195e957506195e39061847e565b87619589565b60008051602061981b833981519152979850906196119160069360005287528360002061735b565b5001805460ff60a01b1916600160a01b1790558695943861958e565b5082600052808752856005619645848760002061735b565b50015416868616146195d5565b505061958e565b60405162461bcd60e51b8152602060048201526012602482015271141d5c98da185cd9481b9bdd08199bdd5b9960721b6044820152606490fd5b835162461bcd60e51b815260048101839052602a60248201527f4f6e6c792073656c6c6572206f72206f776e65722063616e206d61726b2061736044820152690819195b1a5d995c995960b21b6064820152608490fd5b60005416331490503861952c565b6064838587519162461bcd60e51b8352600483015260248201527a105b1c9958591e481b585c9ad95908185cc819195b1a5d995c9959602a1b6044820152fd5b50505050505050909161955c565b6000918291829182916001600160a01b0316619763811515617af9565b5af161976d6179ca565b501561977557565b60405162461bcd60e51b815260206004820152600f60248201526e151c985b9cd9995c8819985a5b1959608a1b6044820152606490fd5b600090600e8054925b8381106197c55750505050600090565b6000828152602090208101546001600160a01b038481169116146197f1576197ec9061847e565b6197b5565b5050505060019056fe32b449308c94e824ccedd9877932cd82f89a481c06c4643a0cb2914454a8c582f9dc8543b583e01f592678422369b2777e3649761f5808ae432cb1c24ca9438c79d3150b1760cd391f5006c9543aea088e4c9060f3e582ea0a948dc6649b25da8be0079c531659141344cd1fd0a4f28419497f9722a3daafe3b4186f6b6457e0d8f7bcb2c5cffc294a0aaef719685993d7be95273fb8254803a1563510ccefedddf252ad1be2c89b69c2b068fc378daa952ba7f163c4a11628f55a4df523b3ef5a8a989e12f3ce7cf805b73156a361da5d8369f0c37173209308910b322117ac4cfca6396923c3eee68be58aa35fd6623ae5d67bb552da5e1de2e0d5854166dc8d1108e10bcb7c27dddfc02ed9d693a074039d026cf4ea4240b40f7d581ac802a164736f6c6343000813000a","opcodes":"PUSH1 0x80 CALLVALUE PUSH3 0x377 JUMPI PUSH1 0x1F SWAP1 PUSH1 0x1F NOT PUSH1 0x1 PUSH1 0x1 PUSH1 0x40 SHL SUB PUSH3 0x9CDA CODESIZE DUP2 SWAP1 SUB DUP6 DUP2 ADD DUP5 AND DUP6 ADD DUP4 DUP2 GT DUP7 DUP3 LT OR PUSH3 0x37C JUMPI DUP6 SWAP3 DUP3 SWAP2 PUSH1 0x40 MSTORE DUP4 CODECOPY PUSH1 0x20 SWAP5 DUP6 SWAP2 DUP2 ADD SUB SLT PUSH3 0x377 JUMPI MLOAD SWAP4 PUSH3 0x53 PUSH3 0x392 JUMP JUMPDEST SWAP3 PUSH1 0x7 DUP5 MSTORE PUSH7 0x48656D53686F7 PUSH1 0xCC SHL DUP6 DUP6 ADD MSTORE PUSH3 0x71 PUSH3 0x392 JUMP JUMPDEST PUSH1 0x3 DUP1 DUP3 MSTORE PUSH3 0x48737 PUSH1 0xEC SHL DUP8 DUP4 ADD MSTORE PUSH1 0x0 DUP1 SLOAD CALLER PUSH1 0x1 PUSH1 0x1 PUSH1 0xA0 SHL SUB NOT DUP3 AND DUP2 OR DUP4 SSTORE SWAP3 SWAP9 SWAP4 SWAP5 SWAP2 SWAP4 SWAP3 SWAP1 PUSH1 0x1 PUSH1 0x1 PUSH1 0xA0 SHL SUB AND PUSH32 0x8BE0079C531659141344CD1FD0A4F28419497F9722A3DAAFE3B4186F6B6457E0 DUP6 DUP1 LOG3 PUSH1 0x1 SWAP7 DUP8 DUP1 SSTORE DUP1 MLOAD SWAP1 DUP8 DUP3 GT PUSH3 0x363 JUMPI PUSH1 0x2 SLOAD DUP10 DUP2 DUP2 SHR SWAP2 AND DUP1 ISZERO PUSH3 0x358 JUMPI JUMPDEST DUP6 DUP3 LT EQ PUSH3 0x344 JUMPI SWAP1 DUP2 DUP9 DUP5 SWAP4 GT PUSH3 0x2F0 JUMPI JUMPDEST POP DUP5 SWAP1 DUP9 DUP4 GT PUSH1 0x1 EQ PUSH3 0x28E JUMPI DUP7 SWAP3 PUSH3 0x282 JUMPI JUMPDEST POP POP PUSH1 0x0 NOT DUP3 DUP12 SHL SHR NOT AND SWAP1 DUP9 SHL OR PUSH1 0x2 SSTORE JUMPDEST DUP4 MLOAD SWAP6 DUP7 GT PUSH3 0x26E JUMPI DUP8 SLOAD DUP8 DUP2 DUP2 SHR SWAP2 AND DUP1 ISZERO PUSH3 0x263 JUMPI JUMPDEST DUP4 DUP3 LT EQ PUSH3 0x24F JUMPI DUP6 DUP2 GT PUSH3 0x207 JUMPI JUMPDEST POP DUP2 SWAP5 DUP7 GT PUSH1 0x1 EQ PUSH3 0x1A2 JUMPI POP POP SWAP2 DUP4 SWAP5 SWAP2 DUP5 SWAP4 SWAP5 PUSH3 0x196 JUMPI JUMPDEST POP POP SHL SWAP2 PUSH1 0x0 NOT SWAP1 DUP5 SHL SHR NOT AND OR SWAP1 SSTORE JUMPDEST PUSH1 0xD SSTORE PUSH1 0x40 MLOAD PUSH2 0x9927 SWAP1 DUP2 PUSH3 0x3B3 DUP3 CODECOPY RETURN JUMPDEST ADD MLOAD SWAP3 POP CODESIZE DUP1 PUSH3 0x172 JUMP JUMPDEST DUP8 DUP4 MSTORE DUP2 DUP4 KECCAK256 SWAP5 SWAP4 SWAP3 DUP7 SWAP3 SWAP2 DUP4 AND SWAP2 JUMPDEST DUP9 DUP4 DUP4 LT PUSH3 0x1EC JUMPI POP POP POP LT PUSH3 0x1D3 JUMPI JUMPDEST POP POP POP DUP2 SHL ADD SWAP1 SSTORE PUSH3 0x183 JUMP JUMPDEST ADD MLOAD PUSH1 0x0 NOT DUP4 DUP7 SHL PUSH1 0xF8 AND SHR NOT AND SWAP1 SSTORE CODESIZE DUP1 DUP1 PUSH3 0x1C5 JUMP JUMPDEST DUP6 DUP8 ADD MLOAD DUP9 SSTORE SWAP1 SWAP7 ADD SWAP6 SWAP5 DUP6 ADD SWAP5 DUP8 SWAP4 POP SWAP1 DUP2 ADD SWAP1 PUSH3 0x1B2 JUMP JUMPDEST DUP9 DUP5 MSTORE DUP3 DUP5 KECCAK256 DUP7 DUP1 DUP10 ADD PUSH1 0x5 SHR DUP3 ADD SWAP3 DUP6 DUP11 LT PUSH3 0x245 JUMPI JUMPDEST ADD PUSH1 0x5 SHR ADD SWAP1 DUP9 SWAP1 JUMPDEST DUP3 DUP2 LT PUSH3 0x239 JUMPI POP POP PUSH3 0x156 JUMP JUMPDEST DUP6 DUP2 SSTORE ADD DUP9 SWAP1 PUSH3 0x229 JUMP JUMPDEST SWAP3 POP DUP2 SWAP3 PUSH3 0x220 JUMP JUMPDEST PUSH4 0x4E487B71 PUSH1 0xE0 SHL DUP5 MSTORE PUSH1 0x22 PUSH1 0x4 MSTORE PUSH1 0x24 DUP5 REVERT JUMPDEST SWAP1 PUSH1 0x7F AND SWAP1 PUSH3 0x144 JUMP JUMPDEST PUSH4 0x4E487B71 PUSH1 0xE0 SHL DUP4 MSTORE PUSH1 0x41 PUSH1 0x4 MSTORE PUSH1 0x24 DUP4 REVERT JUMPDEST ADD MLOAD SWAP1 POP CODESIZE DUP1 PUSH3 0x117 JUMP JUMPDEST SWAP1 DUP5 DUP12 SWAP5 AND SWAP2 PUSH1 0x2 DUP9 MSTORE DUP7 DUP9 KECCAK256 SWAP3 DUP9 JUMPDEST DUP9 DUP3 DUP3 LT PUSH3 0x2D9 JUMPI POP POP DUP5 GT PUSH3 0x2C0 JUMPI JUMPDEST POP POP POP DUP2 SHL ADD PUSH1 0x2 SSTORE PUSH3 0x12A JUMP JUMPDEST ADD MLOAD PUSH1 0x0 NOT DUP4 DUP14 SHL PUSH1 0xF8 AND SHR NOT AND SWAP1 SSTORE CODESIZE DUP1 DUP1 PUSH3 0x2B1 JUMP JUMPDEST DUP4 DUP6 ADD MLOAD DUP7 SSTORE DUP15 SWAP8 SWAP1 SWAP6 ADD SWAP5 SWAP4 DUP5 ADD SWAP4 ADD PUSH3 0x29E JUMP JUMPDEST SWAP1 SWAP2 POP PUSH1 0x2 DUP7 MSTORE DUP5 DUP7 KECCAK256 DUP9 DUP1 DUP6 ADD PUSH1 0x5 SHR DUP3 ADD SWAP3 DUP8 DUP7 LT PUSH3 0x33A JUMPI JUMPDEST SWAP2 DUP13 SWAP2 DUP7 SWAP6 SWAP5 SWAP4 ADD PUSH1 0x5 SHR ADD SWAP2 JUMPDEST DUP3 DUP2 LT PUSH3 0x32B JUMPI POP POP PUSH3 0x101 JUMP JUMPDEST DUP9 DUP2 SSTORE DUP6 SWAP5 POP DUP13 SWAP2 ADD PUSH3 0x31B JUMP JUMPDEST SWAP3 POP DUP2 SWAP3 PUSH3 0x30D JUMP JUMPDEST PUSH4 0x4E487B71 PUSH1 0xE0 SHL DUP7 MSTORE PUSH1 0x22 PUSH1 0x4 MSTORE PUSH1 0x24 DUP7 REVERT JUMPDEST SWAP1 PUSH1 0x7F AND SWAP1 PUSH3 0xEC JUMP JUMPDEST PUSH4 0x4E487B71 PUSH1 0xE0 SHL DUP6 MSTORE PUSH1 0x41 PUSH1 0x4 MSTORE PUSH1 0x24 DUP6 REVERT JUMPDEST PUSH1 0x0 DUP1 REVERT JUMPDEST PUSH4 0x4E487B71 PUSH1 0xE0 SHL PUSH1 0x0 MSTORE PUSH1 0x41 PUSH1 0x4 MSTORE PUSH1 0x24 PUSH1 0x0 REVERT JUMPDEST PUSH1 0x40 DUP1 MLOAD SWAP2 SWAP1 DUP3 ADD PUSH1 0x1 PUSH1 0x1 PUSH1 0x40 SHL SUB DUP2 GT DUP4 DUP3 LT OR PUSH3 0x37C JUMPI PUSH1 0x40 MSTORE JUMP INVALID PUSH1 0x80 DUP1 PUSH1 0x40 MSTORE PUSH1 0x4 CALLDATASIZE LT ISZERO PUSH2 0x13 JUMPI PUSH1 0x0 DUP1 REVERT JUMPDEST PUSH1 0x0 CALLDATALOAD PUSH1 0xE0 SHR SWAP1 DUP2 PUSH3 0xD64E76 EQ PUSH2 0x6A81 JUMPI POP DUP1 PUSH4 0x1FFC9A7 EQ PUSH2 0x6A13 JUMPI DUP1 PUSH4 0x2EE3A52 EQ PUSH2 0x6798 JUMPI DUP1 PUSH4 0x6FDDE03 EQ PUSH2 0x66F3 JUMPI DUP1 PUSH4 0x81812FC EQ PUSH2 0x66D5 JUMPI DUP1 PUSH4 0x95EA7B3 EQ PUSH2 0x655B JUMPI DUP1 PUSH4 0xE50CEE5 EQ PUSH2 0x651C JUMPI DUP1 PUSH4 0x11AA5B34 EQ PUSH2 0x64F8 JUMPI DUP1 PUSH4 0x1385FD92 EQ PUSH2 0x64A4 JUMPI DUP1 PUSH4 0x16D81B38 EQ PUSH2 0x62C1 JUMPI DUP1 PUSH4 0x17E98548 EQ PUSH2 0x6249 JUMPI DUP1 PUSH4 0x2053FBA6 EQ PUSH2 0x5D0E JUMPI DUP1 PUSH4 0x2148893F EQ PUSH2 0x537B JUMPI DUP1 PUSH4 0x23B872DD EQ PUSH2 0x5CE5 JUMPI DUP1 PUSH4 0x24D41A03 EQ PUSH2 0x5AC2 JUMPI DUP1 PUSH4 0x317A0827 EQ PUSH2 0x597B JUMPI DUP1 PUSH4 0x332D56D7 EQ PUSH2 0x58BA JUMPI DUP1 PUSH4 0x3C2575D5 EQ PUSH2 0x57B6 JUMPI DUP1 PUSH4 0x3CCFD60B EQ PUSH2 0x5678 JUMPI DUP1 PUSH4 0x42842E0E EQ PUSH2 0x5650 JUMPI DUP1 PUSH4 0x4293E5CE EQ PUSH2 0x554E JUMPI DUP1 PUSH4 0x45DE84DB EQ PUSH2 0x550C JUMPI DUP1 PUSH4 0x502AA3B5 EQ PUSH2 0x54C3 JUMPI DUP1 PUSH4 0x5AD6A580 EQ PUSH2 0x5418 JUMPI DUP1 PUSH4 0x5BE20959 EQ PUSH2 0x53B5 JUMPI DUP1 PUSH4 0x607EB4E4 EQ PUSH2 0x537B JUMPI DUP1 PUSH4 0x6352211E EQ PUSH2 0x534B JUMPI DUP1 PUSH4 0x66224D8E EQ PUSH2 0x51F5 JUMPI DUP1 PUSH4 0x6F2C8599 EQ PUSH2 0x514A JUMPI DUP1 PUSH4 0x6F77926B EQ PUSH2 0x4FC7 JUMPI DUP1 PUSH4 0x70A08231 EQ PUSH2 0x4F30 JUMPI DUP1 PUSH4 0x715018A6 EQ PUSH2 0x4EE9 JUMPI DUP1 PUSH4 0x7ACC0B20 EQ PUSH2 0x4D2A JUMPI DUP1 PUSH4 0x7D3978DB EQ PUSH2 0x4B0C JUMPI DUP1 PUSH4 0x7E8555ED EQ PUSH2 0x4360 JUMPI DUP1 PUSH4 0x868A5461 EQ PUSH2 0x3850 JUMPI DUP1 PUSH4 0x8DA5CB5B EQ PUSH2 0x3827 JUMPI DUP1 PUSH4 0x8F38CC7B EQ PUSH2 0x3501 JUMPI DUP1 PUSH4 0x9196DFCB EQ PUSH2 0x33E7 JUMPI DUP1 PUSH4 0x95D89B41 EQ PUSH2 0x3305 JUMPI DUP1 PUSH4 0x97B6F393 EQ PUSH2 0x31C7 JUMPI DUP1 PUSH4 0x9D4A2255 EQ PUSH2 0x3034 JUMPI DUP1 PUSH4 0x9FA44DBF EQ PUSH2 0x2FEC JUMPI DUP1 PUSH4 0xA22CB465 EQ PUSH2 0x2F21 JUMPI DUP1 PUSH4 0xA22FB387 EQ PUSH2 0x2E76 JUMPI DUP1 PUSH4 0xA323D29E EQ PUSH2 0x2D23 JUMPI DUP1 PUSH4 0xAF55ED64 EQ PUSH2 0x2CF2 JUMPI DUP1 PUSH4 0xB27E1697 EQ PUSH2 0x2BEE JUMPI DUP1 PUSH4 0xB88D4FDE EQ PUSH2 0x2B8F JUMPI DUP1 PUSH4 0xB95A0628 EQ PUSH2 0x2B54 JUMPI DUP1 PUSH4 0xB9DB15B4 EQ PUSH2 0x293A JUMPI DUP1 PUSH4 0xC1302B34 EQ PUSH2 0x28E2 JUMPI DUP1 PUSH4 0xC64B8A8F EQ PUSH2 0x28A3 JUMPI DUP1 PUSH4 0xC87B56DD EQ PUSH2 0x2849 JUMPI DUP1 PUSH4 0xCECA737F EQ PUSH2 0x27C5 JUMPI DUP1 PUSH4 0xD2BC9D78 EQ PUSH2 0x2518 JUMPI DUP1 PUSH4 0xD637DCFA EQ PUSH2 0x2079 JUMPI DUP1 PUSH4 0xDADD0A57 EQ PUSH2 0x1D79 JUMPI DUP1 PUSH4 0xDC298682 EQ PUSH2 0x1B58 JUMPI DUP1 PUSH4 0xE01EF6E6 EQ PUSH2 0x1B3A JUMPI DUP1 PUSH4 0xE40971E5 EQ PUSH2 0xC75 JUMPI DUP1 PUSH4 0xE585CB2C EQ PUSH2 0xBD2 JUMPI DUP1 PUSH4 0xE6A93E16 EQ PUSH2 0x918 JUMPI DUP1 PUSH4 0xE985E9C5 EQ PUSH2 0x8C2 JUMPI DUP1 PUSH4 0xEB11C434 EQ PUSH2 0x890 JUMPI DUP1 PUSH4 0xED90C7B7 EQ PUSH2 0x756 JUMPI DUP1 PUSH4 0xF2FDE38B EQ PUSH2 0x6A7 JUMPI DUP1 PUSH4 0xF3052D26 EQ PUSH2 0x5E7 JUMPI PUSH4 0xFDCA4CA3 EQ PUSH2 0x315 JUMPI PUSH1 0x0 DUP1 REVERT JUMPDEST CALLVALUE PUSH2 0x5E2 JUMPI PUSH1 0x0 CALLDATASIZE PUSH1 0x3 NOT ADD SLT PUSH2 0x5E2 JUMPI PUSH1 0x8 DUP1 SLOAD PUSH1 0x0 PUSH1 0x1 JUMPDEST DUP3 DUP2 GT ISZERO PUSH2 0x581 JUMPI POP PUSH2 0x341 SWAP1 PUSH2 0x848D JUMP JUMPDEST SWAP1 PUSH1 0x0 SWAP3 PUSH1 0x1 JUMPDEST DUP3 DUP2 GT ISZERO PUSH2 0x362 JUMPI PUSH1 0x40 MLOAD DUP1 PUSH2 0x35E DUP7 DUP3 PUSH2 0x6D3B JUMP JUMPDEST SUB SWAP1 RETURN JUMPDEST PUSH1 0x0 DUP2 DUP2 MSTORE PUSH1 0x15 PUSH1 0x20 SWAP1 DUP2 MSTORE PUSH1 0x40 SWAP1 SWAP2 KECCAK256 PUSH1 0x1 DUP2 ADD SLOAD PUSH1 0x1 PUSH1 0x1 PUSH1 0xA0 SHL SUB AND SWAP2 SWAP1 CALLER DUP4 EQ DUP1 PUSH2 0x56F JUMPI JUMPDEST PUSH2 0x3A2 JUMPI JUMPDEST POP POP POP PUSH2 0x39D SWAP1 PUSH2 0x847E JUMP JUMPDEST PUSH2 0x348 JUMP JUMPDEST PUSH1 0x40 SWAP8 SWAP4 SWAP8 MLOAD SWAP3 PUSH2 0x3B2 DUP5 PUSH2 0x6DC9 JUMP JUMPDEST DUP2 SLOAD DUP5 MSTORE DUP3 DUP5 ADD MSTORE PUSH1 0x40 MLOAD PUSH2 0x3D5 DUP2 PUSH2 0x3CE DUP2 PUSH1 0x2 DUP7 ADD PUSH2 0x700F JUMP JUMPDEST SUB DUP3 PUSH2 0x6EA4 JUMP JUMPDEST PUSH1 0x40 DUP5 ADD MSTORE PUSH1 0x40 MLOAD PUSH2 0x3EE DUP2 PUSH2 0x3CE DUP2 PUSH1 0x3 DUP7 ADD PUSH2 0x700F JUMP JUMPDEST PUSH1 0x60 DUP5 ADD MSTORE PUSH1 0x4 DUP2 ADD SLOAD PUSH1 0x80 DUP5 ADD MSTORE PUSH1 0x5 DUP2 ADD SLOAD PUSH1 0xA0 DUP5 ADD MSTORE PUSH1 0x6 SWAP1 PUSH2 0x415 DUP3 DUP3 ADD PUSH2 0x745A JUMP JUMPDEST PUSH1 0xC0 DUP6 ADD MSTORE PUSH2 0x426 PUSH1 0x7 DUP3 ADD PUSH2 0x745A JUMP JUMPDEST PUSH1 0xE0 DUP6 ADD MSTORE PUSH2 0x436 DUP7 DUP3 ADD PUSH2 0x745A JUMP JUMPDEST PUSH2 0x100 DUP6 ADD MSTORE PUSH1 0x40 MLOAD PUSH2 0x450 DUP2 PUSH2 0x3CE DUP2 PUSH1 0x9 DUP7 ADD PUSH2 0x700F JUMP JUMPDEST PUSH2 0x120 DUP6 ADD MSTORE PUSH1 0x40 MLOAD PUSH2 0x46A DUP2 PUSH2 0x3CE DUP2 PUSH1 0xA DUP7 ADD PUSH2 0x700F JUMP JUMPDEST PUSH2 0x140 DUP6 ADD MSTORE PUSH1 0xB DUP2 ADD SLOAD PUSH2 0x160 DUP6 ADD MSTORE PUSH1 0x40 MLOAD PUSH2 0x48F DUP2 PUSH2 0x3CE DUP2 PUSH1 0xC DUP7 ADD PUSH2 0x700F JUMP JUMPDEST PUSH2 0x180 DUP6 ADD MSTORE PUSH1 0x40 MLOAD PUSH2 0x4A9 DUP2 PUSH2 0x3CE DUP2 PUSH1 0xD DUP7 ADD PUSH2 0x700F JUMP JUMPDEST PUSH2 0x1A0 DUP6 ADD MSTORE PUSH1 0xE DUP2 ADD SLOAD PUSH2 0x1C0 DUP6 ADD MSTORE PUSH1 0xF DUP2 ADD SLOAD PUSH1 0xFF DUP1 DUP3 AND ISZERO ISZERO PUSH2 0x1E0 DUP8 ADD MSTORE DUP2 DUP9 SHR DUP2 AND ISZERO ISZERO PUSH2 0x200 DUP8 ADD MSTORE PUSH1 0x10 SWAP2 DUP3 SHR AND ISZERO ISZERO PUSH2 0x220 DUP7 ADD MSTORE ADD DUP1 SLOAD SWAP2 SWAP1 PUSH2 0x4F5 DUP4 PUSH2 0x7443 JUMP JUMPDEST SWAP4 PUSH2 0x503 PUSH1 0x40 MLOAD SWAP6 DUP7 PUSH2 0x6EA4 JUMP JUMPDEST DUP4 DUP6 MSTORE PUSH1 0x0 SWAP2 DUP3 MSTORE DUP1 DUP3 KECCAK256 SWAP2 DUP2 DUP7 ADD JUMPDEST DUP6 DUP3 LT PUSH2 0x553 JUMPI POP POP POP POP POP POP SWAP2 DUP2 PUSH2 0x39D SWAP4 PUSH2 0x240 PUSH2 0x54A SWAP5 ADD MSTORE PUSH2 0x539 DUP3 DUP9 PUSH2 0x84DD JUMP JUMPDEST MSTORE PUSH2 0x544 DUP2 DUP8 PUSH2 0x84DD JUMP JUMPDEST POP PUSH2 0x847E JUMP JUMPDEST SWAP5 SWAP1 CODESIZE DUP1 PUSH2 0x391 JUMP JUMPDEST DUP5 DUP4 PUSH1 0x1 SWAP3 PUSH2 0x561 DUP8 PUSH2 0x841D JUMP JUMPDEST DUP2 MSTORE ADD SWAP5 ADD SWAP2 ADD SWAP1 SWAP3 PUSH2 0x513 JUMP JUMPDEST POP PUSH1 0xFF PUSH1 0xF DUP3 ADD SLOAD PUSH1 0x10 SHR AND ISZERO PUSH2 0x38C JUMP JUMPDEST PUSH1 0x0 DUP2 DUP2 MSTORE PUSH1 0x15 PUSH1 0x20 MSTORE PUSH1 0x40 SWAP1 KECCAK256 PUSH1 0x1 DUP2 ADD SLOAD PUSH1 0x1 PUSH1 0x1 PUSH1 0xA0 SHL SUB AND CALLER EQ SWAP1 DUP2 PUSH2 0x5CF JUMPI JUMPDEST POP PUSH2 0x5BA JUMPI JUMPDEST PUSH2 0x5B5 SWAP1 PUSH2 0x847E JUMP JUMPDEST PUSH2 0x32F JUMP JUMPDEST SWAP1 PUSH2 0x5C7 PUSH2 0x5B5 SWAP2 PUSH2 0x847E JUMP JUMPDEST SWAP2 SWAP1 POP PUSH2 0x5AC JUMP JUMPDEST PUSH1 0xFF SWAP2 POP PUSH1 0xF ADD SLOAD PUSH1 0x10 SHR AND ISZERO CODESIZE PUSH2 0x5A6 JUMP JUMPDEST PUSH1 0x0 DUP1 REVERT JUMPDEST CALLVALUE PUSH2 0x5E2 JUMPI PUSH1 0x20 CALLDATASIZE PUSH1 0x3 NOT ADD SLT PUSH2 0x5E2 JUMPI PUSH1 0x4 CALLDATALOAD PUSH1 0x0 MSTORE PUSH1 0x18 PUSH1 0x20 MSTORE PUSH1 0x40 PUSH1 0x0 KECCAK256 PUSH1 0x40 MLOAD PUSH2 0x614 DUP2 PUSH2 0x6E38 JUMP JUMPDEST DUP2 SLOAD DUP2 MSTORE PUSH2 0x35E PUSH1 0x40 MLOAD SWAP2 PUSH2 0x637 DUP4 PUSH2 0x630 DUP2 PUSH1 0x1 DUP9 ADD PUSH2 0x700F JUMP JUMPDEST SUB DUP5 PUSH2 0x6EA4 JUMP JUMPDEST PUSH1 0x20 DUP2 ADD SWAP3 DUP4 MSTORE PUSH2 0x65B PUSH1 0x3 PUSH1 0xFF PUSH1 0x2 DUP8 ADD SLOAD AND SWAP6 PUSH1 0x40 DUP5 ADD SWAP7 ISZERO ISZERO DUP8 MSTORE ADD PUSH2 0x8652 JUMP JUMPDEST SWAP1 PUSH1 0x60 DUP2 ADD SWAP2 DUP3 MSTORE PUSH2 0x66F DUP2 MLOAD ISZERO ISZERO PUSH2 0x85A3 JUMP JUMPDEST MLOAD SWAP3 MLOAD SWAP4 MLOAD ISZERO ISZERO SWAP1 MLOAD PUSH2 0x694 PUSH1 0x40 MLOAD SWAP6 DUP7 SWAP6 DUP7 MSTORE PUSH1 0x80 PUSH1 0x20 DUP8 ADD MSTORE PUSH1 0x80 DUP7 ADD SWAP1 PUSH2 0x6AAE JUMP JUMPDEST SWAP2 PUSH1 0x40 DUP6 ADD MSTORE DUP4 DUP3 SUB PUSH1 0x60 DUP6 ADD MSTORE PUSH2 0x75BE JUMP JUMPDEST CALLVALUE PUSH2 0x5E2 JUMPI PUSH1 0x20 CALLDATASIZE PUSH1 0x3 NOT ADD SLT PUSH2 0x5E2 JUMPI PUSH2 0x6C0 PUSH2 0x6D9D JUMP JUMPDEST PUSH2 0x6C8 PUSH2 0x75F2 JUMP JUMPDEST PUSH1 0x1 PUSH1 0x1 PUSH1 0xA0 SHL SUB SWAP1 DUP2 AND SWAP1 DUP2 ISZERO PUSH2 0x702 JUMPI PUSH1 0x0 SLOAD DUP3 PUSH1 0x1 DUP1 PUSH1 0xA0 SHL SUB NOT DUP3 AND OR PUSH1 0x0 SSTORE AND PUSH1 0x0 DUP1 MLOAD PUSH1 0x20 PUSH2 0x985B DUP4 CODECOPY DUP2 MLOAD SWAP2 MSTORE PUSH1 0x0 DUP1 LOG3 STOP JUMPDEST PUSH1 0x40 MLOAD PUSH3 0x461BCD PUSH1 0xE5 SHL DUP2 MSTORE PUSH1 0x20 PUSH1 0x4 DUP3 ADD MSTORE PUSH1 0x26 PUSH1 0x24 DUP3 ADD MSTORE PUSH32 0x4F776E61626C653A206E6577206F776E657220697320746865207A65726F2061 PUSH1 0x44 DUP3 ADD MSTORE PUSH6 0x646472657373 PUSH1 0xD0 SHL PUSH1 0x64 DUP3 ADD MSTORE PUSH1 0x84 SWAP1 REVERT JUMPDEST CALLVALUE PUSH2 0x5E2 JUMPI PUSH1 0x20 DUP1 PUSH1 0x3 NOT CALLDATASIZE ADD SLT PUSH2 0x5E2 JUMPI PUSH1 0x4 CALLDATALOAD SWAP1 DUP2 PUSH1 0x0 MSTORE PUSH1 0x17 DUP2 MSTORE PUSH2 0x785 PUSH1 0xFF PUSH1 0x40 PUSH1 0x0 KECCAK256 SLOAD AND PUSH2 0x82BF JUMP JUMPDEST PUSH1 0x0 DUP3 DUP2 MSTORE PUSH1 0x15 DUP3 MSTORE PUSH1 0x40 SWAP1 KECCAK256 PUSH1 0x1 ADD SLOAD CALLER PUSH1 0x1 PUSH1 0x1 PUSH1 0xA0 SHL SUB SWAP2 DUP3 AND EQ SWAP1 DUP2 ISZERO PUSH2 0x882 JUMPI JUMPDEST POP ISZERO PUSH2 0x82E JUMPI DUP2 PUSH1 0x0 MSTORE PUSH1 0x15 DUP2 MSTORE PUSH1 0xFF PUSH1 0xF PUSH1 0x40 PUSH1 0x0 KECCAK256 ADD SLOAD PUSH1 0x10 SHR AND PUSH2 0x7ED JUMPI PUSH1 0x0 SWAP2 DUP3 MSTORE PUSH1 0x15 SWAP1 MSTORE PUSH1 0x40 SWAP1 KECCAK256 PUSH1 0xF ADD DUP1 SLOAD PUSH3 0xFF0000 NOT AND PUSH3 0x10000 OR SWAP1 SSTORE STOP JUMPDEST PUSH1 0x64 SWAP1 PUSH1 0x40 MLOAD SWAP1 PUSH3 0x461BCD PUSH1 0xE5 SHL DUP3 MSTORE PUSH1 0x4 DUP3 ADD MSTORE PUSH1 0x1A PUSH1 0x24 DUP3 ADD MSTORE PUSH26 0x141C9BD91D58DD081A5CC8185B1C9958591E4819195B195D1959 PUSH1 0x32 SHL PUSH1 0x44 DUP3 ADD MSTORE REVERT JUMPDEST PUSH1 0x84 SWAP1 PUSH1 0x40 MLOAD SWAP1 PUSH3 0x461BCD PUSH1 0xE5 SHL DUP3 MSTORE PUSH1 0x4 DUP3 ADD MSTORE PUSH1 0x27 PUSH1 0x24 DUP3 ADD MSTORE PUSH32 0x4F6E6C792070726F647563742073656C6C6572206F72206F776E65722063616E PUSH1 0x44 DUP3 ADD MSTORE PUSH7 0x2064656C657465 PUSH1 0xC8 SHL PUSH1 0x64 DUP3 ADD MSTORE REVERT JUMPDEST PUSH1 0x0 SLOAD AND CALLER EQ SWAP1 POP DUP4 PUSH2 0x7AB JUMP JUMPDEST CALLVALUE PUSH2 0x5E2 JUMPI PUSH1 0x20 CALLDATASIZE PUSH1 0x3 NOT ADD SLT PUSH2 0x5E2 JUMPI PUSH1 0x20 PUSH2 0x8B3 PUSH2 0x8AE PUSH2 0x6D9D JUMP JUMPDEST PUSH2 0x7C53 JUMP JUMPDEST PUSH2 0x8C0 PUSH1 0x40 MLOAD DUP1 SWAP3 PUSH2 0x7336 JUMP JUMPDEST RETURN JUMPDEST CALLVALUE PUSH2 0x5E2 JUMPI PUSH1 0x40 CALLDATASIZE PUSH1 0x3 NOT ADD SLT PUSH2 0x5E2 JUMPI PUSH2 0x8DB PUSH2 0x6D9D JUMP JUMPDEST PUSH2 0x8E3 PUSH2 0x6DB3 JUMP JUMPDEST SWAP1 PUSH1 0x1 DUP1 PUSH1 0xA0 SHL SUB DUP1 SWAP2 AND PUSH1 0x0 MSTORE PUSH1 0x7 PUSH1 0x20 MSTORE PUSH1 0x40 PUSH1 0x0 KECCAK256 SWAP2 AND PUSH1 0x0 MSTORE PUSH1 0x20 MSTORE PUSH1 0x20 PUSH1 0xFF PUSH1 0x40 PUSH1 0x0 KECCAK256 SLOAD AND PUSH1 0x40 MLOAD SWAP1 ISZERO ISZERO DUP2 MSTORE RETURN JUMPDEST CALLVALUE PUSH2 0x5E2 JUMPI PUSH1 0x20 CALLDATASIZE PUSH1 0x3 NOT ADD SLT PUSH2 0x5E2 JUMPI PUSH2 0x931 PUSH2 0x6D9D JUMP JUMPDEST PUSH1 0x8 SLOAD PUSH1 0x0 PUSH1 0x1 JUMPDEST DUP3 DUP2 GT ISZERO PUSH2 0xB6E JUMPI POP PUSH2 0x94B SWAP1 PUSH2 0x848D JUMP JUMPDEST SWAP1 PUSH1 0x1 PUSH1 0x0 JUMPDEST DUP3 DUP3 GT ISZERO PUSH2 0x967 JUMPI PUSH1 0x40 MLOAD DUP1 PUSH2 0x35E DUP7 DUP3 PUSH2 0x6D3B JUMP JUMPDEST PUSH1 0x0 DUP3 DUP2 MSTORE PUSH1 0x15 PUSH1 0x20 MSTORE PUSH1 0x40 SWAP1 KECCAK256 PUSH1 0x1 DUP2 ADD SLOAD PUSH1 0x1 PUSH1 0x1 PUSH1 0xA0 SHL SUB SWAP1 DUP2 AND SWAP2 SWAP1 DUP8 AND DUP3 EQ DUP1 PUSH2 0xB5C JUMPI JUMPDEST PUSH2 0x9A8 JUMPI JUMPDEST POP POP SWAP1 PUSH2 0x9A2 SWAP1 PUSH2 0x847E JUMP JUMPDEST SWAP1 PUSH2 0x951 JUMP JUMPDEST PUSH1 0x40 MLOAD SWAP2 PUSH2 0x9B5 DUP4 PUSH2 0x6DC9 JUMP JUMPDEST DUP2 SLOAD DUP4 MSTORE PUSH1 0x20 DUP4 ADD MSTORE PUSH1 0x40 MLOAD PUSH2 0x9D2 DUP2 PUSH2 0x3CE DUP2 PUSH1 0x2 DUP7 ADD PUSH2 0x700F JUMP JUMPDEST PUSH1 0x40 DUP4 ADD MSTORE PUSH1 0x40 MLOAD PUSH2 0x9EB DUP2 PUSH2 0x3CE DUP2 PUSH1 0x3 DUP7 ADD PUSH2 0x700F JUMP JUMPDEST PUSH1 0x60 DUP4 ADD MSTORE PUSH1 0x4 DUP2 ADD SLOAD PUSH1 0x80 DUP4 ADD MSTORE PUSH1 0x5 DUP2 ADD SLOAD PUSH1 0xA0 DUP4 ADD MSTORE PUSH2 0xA10 PUSH1 0x6 DUP3 ADD PUSH2 0x745A JUMP JUMPDEST PUSH1 0xC0 DUP4 ADD MSTORE PUSH2 0xA21 PUSH1 0x7 DUP3 ADD PUSH2 0x745A JUMP JUMPDEST PUSH1 0xE0 DUP4 ADD MSTORE PUSH2 0xA32 PUSH1 0x8 DUP3 ADD PUSH2 0x745A JUMP JUMPDEST PUSH2 0x100 DUP4 ADD MSTORE PUSH1 0x40 MLOAD PUSH2 0xA4C DUP2 PUSH2 0x3CE DUP2 PUSH1 0x9 DUP7 ADD PUSH2 0x700F JUMP JUMPDEST PUSH2 0x120 DUP4 ADD MSTORE PUSH1 0x40 MLOAD PUSH2 0xA66 DUP2 PUSH2 0x3CE DUP2 PUSH1 0xA DUP7 ADD PUSH2 0x700F JUMP JUMPDEST PUSH2 0x140 DUP4 ADD MSTORE PUSH1 0xB DUP2 ADD SLOAD PUSH2 0x160 DUP4 ADD MSTORE PUSH1 0x40 MLOAD PUSH2 0xA8B DUP2 PUSH2 0x3CE DUP2 PUSH1 0xC DUP7 ADD PUSH2 0x700F JUMP JUMPDEST PUSH2 0x180 DUP4 ADD MSTORE PUSH1 0x40 MLOAD PUSH2 0xAA5 DUP2 PUSH2 0x3CE DUP2 PUSH1 0xD DUP7 ADD PUSH2 0x700F JUMP JUMPDEST PUSH2 0x1A0 DUP4 ADD MSTORE PUSH1 0xE DUP2 ADD SLOAD PUSH2 0x1C0 DUP4 ADD MSTORE PUSH1 0xF DUP2 ADD SLOAD SWAP1 PUSH1 0xFF DUP1 DUP4 AND ISZERO ISZERO PUSH2 0x1E0 DUP6 ADD MSTORE DUP1 DUP4 PUSH1 0x8 SHR AND ISZERO ISZERO PUSH2 0x200 DUP6 ADD MSTORE PUSH1 0x10 SWAP3 DUP4 SHR AND ISZERO ISZERO PUSH2 0x220 DUP5 ADD MSTORE ADD DUP1 SLOAD SWAP1 PUSH2 0xAF2 DUP3 PUSH2 0x7443 JUMP JUMPDEST SWAP2 PUSH2 0xB00 PUSH1 0x40 MLOAD SWAP4 DUP5 PUSH2 0x6EA4 JUMP JUMPDEST DUP1 DUP4 MSTORE PUSH1 0x20 DUP4 ADD SWAP2 PUSH1 0x0 MSTORE PUSH1 0x20 PUSH1 0x0 KECCAK256 PUSH1 0x0 SWAP3 JUMPDEST DUP3 DUP5 LT PUSH2 0xB3E JUMPI POP POP POP POP PUSH2 0x240 DUP3 ADD MSTORE PUSH2 0x9A2 SWAP2 PUSH2 0xB37 SWAP2 PUSH2 0x539 DUP3 DUP9 PUSH2 0x84DD JUMP JUMPDEST SWAP1 DUP7 PUSH2 0x996 JUMP JUMPDEST PUSH1 0x6 PUSH1 0x20 PUSH1 0x1 SWAP3 PUSH2 0xB4E DUP6 PUSH2 0x841D JUMP JUMPDEST DUP2 MSTORE ADD SWAP3 ADD SWAP4 ADD SWAP3 SWAP1 PUSH2 0xB14 JUMP JUMPDEST POP PUSH1 0xFF PUSH1 0xF DUP3 ADD SLOAD PUSH1 0x10 SHR AND ISZERO PUSH2 0x991 JUMP JUMPDEST PUSH1 0x0 DUP2 DUP2 MSTORE PUSH1 0x15 PUSH1 0x20 MSTORE PUSH1 0x40 SWAP1 KECCAK256 PUSH1 0x1 DUP2 ADD SLOAD PUSH1 0x1 PUSH1 0x1 PUSH1 0xA0 SHL SUB DUP7 DUP2 AND SWAP2 AND EQ SWAP1 DUP2 PUSH2 0xBBF JUMPI JUMPDEST POP PUSH2 0xBAA JUMPI JUMPDEST PUSH2 0xBA5 SWAP1 PUSH2 0x847E JUMP JUMPDEST PUSH2 0x939 JUMP JUMPDEST SWAP1 PUSH2 0xBB7 PUSH2 0xBA5 SWAP2 PUSH2 0x847E JUMP JUMPDEST SWAP2 SWAP1 POP PUSH2 0xB9C JUMP JUMPDEST PUSH1 0xFF SWAP2 POP PUSH1 0xF ADD SLOAD PUSH1 0x10 SHR AND ISZERO DUP6 PUSH2 0xB96 JUMP JUMPDEST CALLVALUE PUSH2 0x5E2 JUMPI PUSH1 0x40 CALLDATASIZE PUSH1 0x3 NOT ADD SLT PUSH2 0x5E2 JUMPI PUSH2 0xBEB PUSH2 0x6D9D JUMP JUMPDEST PUSH1 0x1 PUSH1 0x1 PUSH1 0xA0 SHL SUB SWAP1 DUP2 AND PUSH1 0x0 SWAP1 DUP2 MSTORE PUSH1 0x1C PUSH1 0x20 MSTORE PUSH1 0x40 SWAP1 KECCAK256 DUP1 SLOAD PUSH1 0x24 CALLDATALOAD SWAP1 DUP2 LT ISZERO PUSH2 0x5E2 JUMPI PUSH2 0xC1A SWAP2 PUSH2 0x735B JUMP JUMPDEST POP SWAP1 PUSH2 0x35E DUP3 SLOAD PUSH1 0x1 DUP5 ADD SLOAD SWAP4 PUSH1 0x2 DUP2 ADD SLOAD SWAP2 PUSH1 0x3 DUP3 ADD SLOAD SWAP1 PUSH1 0x4 DUP4 ADD SLOAD DUP7 PUSH1 0x5 DUP6 ADD SLOAD AND SWAP1 PUSH1 0x6 DUP6 ADD SLOAD SWAP4 PUSH2 0xC5E PUSH1 0xF PUSH2 0xC57 PUSH1 0x7 DUP10 ADD PUSH2 0x7377 JUMP JUMPDEST SWAP8 ADD PUSH2 0x74BF JUMP JUMPDEST SWAP7 PUSH1 0x40 MLOAD SWAP11 DUP12 SWAP11 PUSH1 0xFF DUP9 PUSH1 0xA0 SHR AND SWAP8 AND SWAP6 DUP12 PUSH2 0x755A JUMP JUMPDEST CALLVALUE PUSH2 0x5E2 JUMPI PUSH1 0x3 NOT PUSH1 0x20 CALLDATASIZE DUP3 ADD SLT PUSH2 0x5E2 JUMPI PUSH1 0x1 PUSH1 0x1 PUSH1 0x40 SHL SUB PUSH1 0x4 CALLDATALOAD GT PUSH2 0x5E2 JUMPI PUSH2 0x1A0 SWAP1 PUSH1 0x4 CALLDATALOAD CALLDATASIZE SUB ADD SLT PUSH2 0x5E2 JUMPI CALLER PUSH1 0x0 MSTORE PUSH1 0x12 PUSH1 0x20 MSTORE PUSH1 0xFF PUSH1 0x40 PUSH1 0x0 KECCAK256 SLOAD AND PUSH1 0x4 DUP2 LT ISZERO PUSH2 0x1B24 JUMPI PUSH1 0x2 EQ DUP1 ISZERO PUSH2 0x1B10 JUMPI JUMPDEST ISZERO PUSH2 0x1ACC JUMPI PUSH2 0xCEA PUSH2 0xCE1 PUSH1 0x4 DUP1 CALLDATALOAD ADD DUP1 PUSH2 0x7CC7 JUMP JUMPDEST SWAP1 POP ISZERO ISZERO PUSH2 0x7B37 JUMP JUMPDEST PUSH2 0xCFB PUSH1 0x44 PUSH1 0x4 CALLDATALOAD ADD CALLDATALOAD ISZERO ISZERO PUSH2 0x7CF9 JUMP JUMPDEST PUSH2 0xD0C PUSH1 0x64 PUSH1 0x4 CALLDATALOAD ADD CALLDATALOAD ISZERO ISZERO PUSH2 0x7D44 JUMP JUMPDEST PUSH1 0xE4 PUSH1 0x4 CALLDATALOAD ADD CALLDATALOAD ISZERO PUSH2 0x1A7C JUMPI PUSH2 0x104 PUSH1 0x4 CALLDATALOAD ADD CALLDATALOAD ISZERO PUSH2 0x1A29 JUMPI PUSH2 0xD37 PUSH2 0x124 PUSH1 0x4 CALLDATALOAD ADD CALLDATALOAD ISZERO ISZERO PUSH2 0x7D8F JUMP JUMPDEST PUSH2 0xD58 PUSH2 0xD4F PUSH2 0x144 PUSH1 0x4 CALLDATALOAD ADD PUSH1 0x4 CALLDATALOAD PUSH1 0x4 ADD PUSH2 0x7CC7 JUMP JUMPDEST SWAP1 POP ISZERO ISZERO PUSH2 0x7DDB JUMP JUMPDEST PUSH2 0xD79 PUSH2 0xD70 PUSH2 0x164 PUSH1 0x4 CALLDATALOAD ADD PUSH1 0x4 CALLDATALOAD PUSH1 0x4 ADD PUSH2 0x7CC7 JUMP JUMPDEST SWAP1 POP ISZERO ISZERO PUSH2 0x7E1F JUMP JUMPDEST PUSH2 0xD8B PUSH2 0x184 PUSH1 0x4 CALLDATALOAD ADD CALLDATALOAD ISZERO ISZERO PUSH2 0x7E63 JUMP JUMPDEST PUSH2 0xDAB PUSH2 0xDA2 PUSH1 0xC4 PUSH1 0x4 CALLDATALOAD ADD PUSH1 0x4 CALLDATALOAD PUSH1 0x4 ADD PUSH2 0x7EAC JUMP JUMPDEST SWAP1 POP ISZERO ISZERO PUSH2 0x7EE1 JUMP JUMPDEST PUSH2 0xDCD PUSH1 0x5 PUSH2 0xDC4 PUSH1 0xC4 PUSH1 0x4 CALLDATALOAD ADD PUSH1 0x4 CALLDATALOAD PUSH1 0x4 ADD PUSH2 0x7EAC JUMP JUMPDEST SWAP1 POP GT ISZERO PUSH2 0x7F26 JUMP JUMPDEST PUSH1 0x1 PUSH1 0x8 SLOAD ADD DUP1 PUSH1 0x8 SSTORE PUSH2 0xDDF PUSH2 0x7F71 JUMP JUMPDEST DUP2 DUP2 MSTORE CALLER PUSH1 0x20 DUP3 ADD MSTORE SWAP1 PUSH2 0xE01 PUSH2 0xDFA PUSH1 0x4 DUP1 CALLDATALOAD ADD DUP1 PUSH2 0x7CC7 JUMP JUMPDEST CALLDATASIZE SWAP2 PUSH2 0x6EE2 JUMP JUMPDEST PUSH1 0x40 DUP4 ADD MSTORE PUSH2 0xE1D PUSH2 0xDFA PUSH1 0x24 PUSH1 0x4 CALLDATALOAD ADD PUSH1 0x4 CALLDATALOAD PUSH1 0x4 ADD PUSH2 0x7CC7 JUMP JUMPDEST PUSH1 0x60 DUP4 ADD MSTORE PUSH1 0x44 PUSH1 0x4 CALLDATALOAD ADD CALLDATALOAD PUSH1 0x80 DUP4 ADD MSTORE PUSH1 0x64 PUSH1 0x4 CALLDATALOAD ADD CALLDATALOAD PUSH1 0xA0 DUP4 ADD MSTORE PUSH2 0xE58 PUSH2 0xE51 PUSH1 0x84 PUSH1 0x4 CALLDATALOAD ADD PUSH1 0x4 CALLDATALOAD PUSH1 0x4 ADD PUSH2 0x7EAC JUMP JUMPDEST CALLDATASIZE SWAP2 PUSH2 0x7FFD JUMP JUMPDEST PUSH1 0xC0 DUP4 ADD MSTORE PUSH2 0xE74 PUSH2 0xE51 PUSH1 0xA4 PUSH1 0x4 CALLDATALOAD ADD PUSH1 0x4 CALLDATALOAD PUSH1 0x4 ADD PUSH2 0x7EAC JUMP JUMPDEST PUSH1 0xE0 DUP4 ADD MSTORE PUSH2 0xE90 PUSH2 0xE51 PUSH1 0xC4 PUSH1 0x4 CALLDATALOAD ADD PUSH1 0x4 CALLDATALOAD PUSH1 0x4 ADD PUSH2 0x7EAC JUMP JUMPDEST PUSH2 0x100 DUP4 ADD MSTORE PUSH1 0xE4 PUSH1 0x4 CALLDATALOAD ADD CALLDATALOAD PUSH1 0x0 MSTORE PUSH1 0x18 PUSH1 0x20 MSTORE PUSH2 0x3CE PUSH2 0xEBF PUSH1 0x1 PUSH1 0x40 PUSH1 0x0 KECCAK256 ADD PUSH1 0x40 MLOAD SWAP3 DUP4 DUP1 SWAP3 PUSH2 0x700F JUMP JUMPDEST PUSH2 0x120 DUP4 ADD MSTORE PUSH2 0x104 PUSH1 0x4 CALLDATALOAD ADD CALLDATALOAD PUSH1 0x0 MSTORE PUSH1 0x19 PUSH1 0x20 MSTORE PUSH2 0x3CE PUSH2 0xEEF PUSH1 0x1 PUSH1 0x40 PUSH1 0x0 KECCAK256 ADD PUSH1 0x40 MLOAD SWAP3 DUP4 DUP1 SWAP3 PUSH2 0x700F JUMP JUMPDEST PUSH2 0x140 DUP4 ADD MSTORE PUSH2 0xF0D PUSH2 0xDFA PUSH2 0x144 PUSH1 0x4 CALLDATALOAD ADD PUSH1 0x4 CALLDATALOAD PUSH1 0x4 ADD PUSH2 0x7CC7 JUMP JUMPDEST PUSH2 0x180 DUP4 ADD MSTORE PUSH2 0xF2B PUSH2 0xDFA PUSH2 0x164 PUSH1 0x4 CALLDATALOAD ADD PUSH1 0x4 CALLDATALOAD PUSH1 0x4 ADD PUSH2 0x7CC7 JUMP JUMPDEST PUSH2 0x1A0 DUP4 ADD MSTORE PUSH1 0x4 CALLDATALOAD PUSH2 0x124 DUP2 ADD CALLDATALOAD PUSH2 0x160 DUP5 ADD MSTORE PUSH2 0x184 ADD CALLDATALOAD PUSH2 0x1C0 DUP4 ADD MSTORE CALLER ISZERO PUSH2 0x19E5 JUMPI PUSH2 0xF63 PUSH2 0xF5D DUP3 PUSH2 0x79AD JUMP JUMPDEST ISZERO PUSH2 0x8274 JUMP JUMPDEST PUSH2 0xF6F PUSH2 0xF5D DUP3 PUSH2 0x79AD JUMP JUMPDEST CALLER PUSH1 0x0 MSTORE PUSH1 0x5 PUSH1 0x20 MSTORE PUSH1 0x40 PUSH1 0x0 KECCAK256 PUSH1 0x1 DUP2 SLOAD ADD SWAP1 SSTORE DUP1 PUSH1 0x0 MSTORE PUSH1 0x4 PUSH1 0x20 MSTORE PUSH1 0x40 PUSH1 0x0 KECCAK256 CALLER PUSH1 0x1 DUP1 PUSH1 0xA0 SHL SUB NOT DUP3 SLOAD AND OR SWAP1 SSTORE DUP1 CALLER PUSH1 0x0 PUSH1 0x0 DUP1 MLOAD PUSH1 0x20 PUSH2 0x989B DUP4 CODECOPY DUP2 MLOAD SWAP2 MSTORE DUP2 DUP1 LOG4 PUSH1 0x15 PUSH1 0x20 MSTORE PUSH1 0x40 PUSH1 0x0 KECCAK256 SWAP1 DUP3 MLOAD DUP3 SSTORE PUSH1 0x1 DUP3 ADD PUSH1 0x1 DUP1 PUSH1 0xA0 SHL SUB PUSH1 0x20 DUP6 ADD MLOAD AND PUSH1 0x1 DUP1 PUSH1 0xA0 SHL SUB NOT DUP3 SLOAD AND OR SWAP1 SSTORE PUSH1 0x40 DUP4 ADD MLOAD SWAP3 DUP4 MLOAD PUSH1 0x1 DUP1 PUSH1 0x40 SHL SUB DUP2 GT PUSH2 0x144F JUMPI PUSH2 0x1014 DUP2 PUSH2 0x100B PUSH1 0x2 DUP8 ADD SLOAD PUSH2 0x6FD5 JUMP JUMPDEST PUSH1 0x2 DUP8 ADD PUSH2 0x7B91 JUMP JUMPDEST PUSH1 0x20 PUSH1 0x1F DUP3 GT PUSH1 0x1 EQ PUSH2 0x1976 JUMPI DUP2 SWAP3 SWAP4 SWAP5 SWAP6 PUSH1 0x0 SWAP3 PUSH2 0x196B JUMPI JUMPDEST POP POP DUP2 PUSH1 0x1 SHL SWAP2 PUSH1 0x0 NOT SWAP1 PUSH1 0x3 SHL SHR NOT AND OR PUSH1 0x2 DUP5 ADD SSTORE JUMPDEST PUSH1 0x60 DUP2 ADD MLOAD DUP1 MLOAD SWAP1 SWAP4 SWAP1 PUSH1 0x1 PUSH1 0x1 PUSH1 0x40 SHL SUB DUP2 GT PUSH2 0x144F JUMPI PUSH2 0x1078 DUP2 PUSH2 0x106F PUSH1 0x3 DUP6 ADD SLOAD PUSH2 0x6FD5 JUMP JUMPDEST PUSH1 0x3 DUP6 ADD PUSH2 0x7B91 JUMP JUMPDEST PUSH1 0x20 PUSH1 0x1F DUP3 GT PUSH1 0x1 EQ PUSH2 0x18FC JUMPI DUP2 SWAP3 SWAP4 SWAP5 SWAP6 PUSH1 0x0 SWAP3 PUSH2 0x18F1 JUMPI JUMPDEST POP POP DUP2 PUSH1 0x1 SHL SWAP2 PUSH1 0x0 NOT SWAP1 PUSH1 0x3 SHL SHR NOT AND OR PUSH1 0x3 DUP3 ADD SSTORE JUMPDEST PUSH1 0x80 DUP3 ADD MLOAD PUSH1 0x4 DUP3 ADD SSTORE PUSH1 0xA0 DUP3 ADD MLOAD PUSH1 0x5 DUP3 ADD SSTORE PUSH1 0x6 DUP2 ADD PUSH1 0xC0 DUP4 ADD MLOAD PUSH1 0x20 DUP2 MLOAD SWAP2 PUSH2 0x10D6 DUP4 DUP6 PUSH2 0x80C8 JUMP JUMPDEST ADD SWAP2 PUSH1 0x0 MSTORE PUSH1 0x20 PUSH1 0x0 KECCAK256 SWAP2 PUSH1 0x0 SWAP1 JUMPDEST DUP3 DUP3 LT PUSH2 0x1814 JUMPI POP POP POP POP PUSH1 0x7 DUP2 ADD PUSH1 0xE0 DUP4 ADD MLOAD PUSH1 0x20 DUP2 MLOAD SWAP2 PUSH2 0x1108 DUP4 DUP6 PUSH2 0x80C8 JUMP JUMPDEST ADD SWAP2 PUSH1 0x0 MSTORE PUSH1 0x20 PUSH1 0x0 KECCAK256 SWAP2 PUSH1 0x0 SWAP1 JUMPDEST DUP3 DUP3 LT PUSH2 0x1737 JUMPI POP POP POP POP PUSH1 0x8 DUP2 ADD PUSH2 0x100 DUP4 ADD MLOAD PUSH1 0x20 DUP2 MLOAD SWAP2 PUSH2 0x113B DUP4 DUP6 PUSH2 0x80C8 JUMP JUMPDEST ADD SWAP2 PUSH1 0x0 MSTORE PUSH1 0x20 PUSH1 0x0 KECCAK256 SWAP2 PUSH1 0x0 SWAP1 JUMPDEST DUP3 DUP3 LT PUSH2 0x1654 JUMPI POP POP POP POP PUSH2 0x120 DUP3 ADD MLOAD DUP1 MLOAD SWAP1 SWAP4 SWAP1 PUSH1 0x1 PUSH1 0x1 PUSH1 0x40 SHL SUB DUP2 GT PUSH2 0x144F JUMPI PUSH2 0x1188 DUP2 PUSH2 0x117F PUSH1 0x9 DUP7 ADD SLOAD PUSH2 0x6FD5 JUMP JUMPDEST PUSH1 0x9 DUP7 ADD PUSH2 0x7B91 JUMP JUMPDEST PUSH1 0x20 PUSH1 0x1F DUP3 GT PUSH1 0x1 EQ PUSH2 0x15E5 JUMPI DUP2 SWAP3 SWAP4 SWAP5 SWAP6 PUSH1 0x0 SWAP3 PUSH2 0x15DA JUMPI JUMPDEST POP POP DUP2 PUSH1 0x1 SHL SWAP2 PUSH1 0x0 NOT SWAP1 PUSH1 0x3 SHL SHR NOT AND OR PUSH1 0x9 DUP4 ADD SSTORE JUMPDEST PUSH2 0x140 DUP4 ADD MLOAD DUP1 MLOAD SWAP1 SWAP4 SWAP1 PUSH1 0x1 PUSH1 0x1 PUSH1 0x40 SHL SUB DUP2 GT PUSH2 0x144F JUMPI PUSH2 0x11ED DUP2 PUSH2 0x11E4 PUSH1 0xA DUP8 ADD SLOAD PUSH2 0x6FD5 JUMP JUMPDEST PUSH1 0xA DUP8 ADD PUSH2 0x7B91 JUMP JUMPDEST PUSH1 0x20 PUSH1 0x1F DUP3 GT PUSH1 0x1 EQ PUSH2 0x156B JUMPI DUP2 SWAP3 SWAP4 SWAP5 SWAP6 PUSH1 0x0 SWAP3 PUSH2 0x1560 JUMPI JUMPDEST POP POP DUP2 PUSH1 0x1 SHL SWAP2 PUSH1 0x0 NOT SWAP1 PUSH1 0x3 SHL SHR NOT AND OR PUSH1 0xA DUP5 ADD SSTORE JUMPDEST PUSH2 0x160 DUP2 ADD MLOAD PUSH1 0xB DUP5 ADD SSTORE PUSH2 0x180 DUP2 ADD MLOAD DUP1 MLOAD SWAP1 SWAP4 SWAP1 PUSH1 0x1 PUSH1 0x1 PUSH1 0x40 SHL SUB DUP2 GT PUSH2 0x144F JUMPI PUSH2 0x125D DUP2 PUSH2 0x1254 PUSH1 0xC DUP6 ADD SLOAD PUSH2 0x6FD5 JUMP JUMPDEST PUSH1 0xC DUP6 ADD PUSH2 0x7B91 JUMP JUMPDEST PUSH1 0x20 PUSH1 0x1F DUP3 GT PUSH1 0x1 EQ PUSH2 0x14F1 JUMPI DUP2 SWAP3 SWAP4 SWAP5 SWAP6 PUSH1 0x0 SWAP3 PUSH2 0x14E6 JUMPI JUMPDEST POP POP DUP2 PUSH1 0x1 SHL SWAP2 PUSH1 0x0 NOT SWAP1 PUSH1 0x3 SHL SHR NOT AND OR PUSH1 0xC DUP3 ADD SSTORE JUMPDEST PUSH2 0x1A0 DUP3 ADD MLOAD DUP1 MLOAD SWAP1 PUSH1 0x1 PUSH1 0x1 PUSH1 0x40 SHL SUB DUP3 GT PUSH2 0x144F JUMPI PUSH2 0x12C0 DUP3 PUSH2 0x12B7 PUSH1 0xD DUP7 ADD SLOAD PUSH2 0x6FD5 JUMP JUMPDEST PUSH1 0xD DUP7 ADD PUSH2 0x7B91 JUMP JUMPDEST PUSH1 0x20 SWAP1 PUSH1 0x1F DUP4 GT PUSH1 0x1 EQ PUSH2 0x1470 JUMPI SWAP2 DUP1 PUSH2 0x240 SWAP5 SWAP3 PUSH1 0x10 SWAP5 PUSH1 0x0 SWAP3 PUSH2 0x1465 JUMPI JUMPDEST POP POP DUP2 PUSH1 0x1 SHL SWAP2 PUSH1 0x0 NOT SWAP1 PUSH1 0x3 SHL SHR NOT AND OR PUSH1 0xD DUP3 ADD SSTORE JUMPDEST PUSH2 0x1C0 DUP5 ADD MLOAD PUSH1 0xE DUP3 ADD SSTORE PUSH1 0xF DUP2 ADD PUSH2 0x1318 PUSH2 0x1E0 DUP7 ADD MLOAD ISZERO ISZERO DUP3 PUSH2 0x799C JUMP JUMPDEST PUSH2 0x200 DUP6 ADD MLOAD ISZERO ISZERO DUP2 SLOAD PUSH2 0xFF00 PUSH3 0xFF0000 PUSH2 0x220 DUP10 ADD MLOAD ISZERO ISZERO DUP8 SHL AND SWAP3 PUSH1 0x8 SHL AND SWAP1 PUSH3 0xFFFF00 NOT AND OR OR SWAP1 SSTORE ADD SWAP2 ADD MLOAD SWAP1 DUP2 MLOAD SWAP2 PUSH1 0x1 PUSH1 0x40 SHL DUP4 GT PUSH2 0x144F JUMPI DUP2 SLOAD DUP4 DUP4 SSTORE DUP1 DUP5 LT PUSH2 0x13CC JUMPI JUMPDEST POP PUSH1 0x20 ADD SWAP1 PUSH1 0x0 MSTORE PUSH1 0x20 PUSH1 0x0 KECCAK256 PUSH1 0x0 SWAP2 JUMPDEST DUP4 DUP4 LT PUSH2 0x13AE JUMPI PUSH2 0x13AC DUP6 DUP1 PUSH1 0x0 MSTORE PUSH1 0x17 PUSH1 0x20 MSTORE PUSH1 0x40 PUSH1 0x0 KECCAK256 PUSH1 0x1 PUSH1 0xFF NOT DUP3 SLOAD AND OR SWAP1 SSTORE CALLER PUSH1 0x0 MSTORE PUSH1 0x16 PUSH1 0x20 MSTORE PUSH1 0x40 PUSH1 0x0 KECCAK256 PUSH2 0x823F JUMP JUMPDEST STOP JUMPDEST PUSH1 0x6 PUSH1 0x20 DUP3 PUSH2 0x13C0 PUSH1 0x1 SWAP5 MLOAD DUP7 PUSH2 0x8111 JUMP JUMPDEST ADD SWAP3 ADD SWAP3 ADD SWAP2 SWAP1 PUSH2 0x1375 JUMP JUMPDEST DUP1 PUSH1 0x6 MUL SWAP1 PUSH1 0x6 DUP3 DIV SUB PUSH2 0x1439 JUMPI DUP4 PUSH1 0x6 MUL PUSH1 0x6 DUP2 DIV DUP6 SUB PUSH2 0x1439 JUMPI DUP4 PUSH1 0x0 MSTORE PUSH1 0x20 PUSH1 0x0 KECCAK256 SWAP2 DUP3 ADD SWAP2 ADD JUMPDEST DUP2 DUP2 LT PUSH2 0x1404 JUMPI POP PUSH2 0x1364 JUMP JUMPDEST DUP1 PUSH1 0x0 PUSH1 0x6 SWAP3 SSTORE PUSH1 0x0 PUSH1 0x1 DUP3 ADD SSTORE PUSH1 0x0 PUSH1 0x2 DUP3 ADD SSTORE PUSH2 0x1425 PUSH1 0x3 DUP3 ADD PUSH2 0x807F JUMP JUMPDEST PUSH1 0x0 PUSH1 0x4 DUP3 ADD SSTORE PUSH1 0x0 PUSH1 0x5 DUP3 ADD SSTORE ADD PUSH2 0x13F7 JUMP JUMPDEST PUSH4 0x4E487B71 PUSH1 0xE0 SHL PUSH1 0x0 MSTORE PUSH1 0x11 PUSH1 0x4 MSTORE PUSH1 0x24 PUSH1 0x0 REVERT JUMPDEST PUSH4 0x4E487B71 PUSH1 0xE0 SHL PUSH1 0x0 MSTORE PUSH1 0x41 PUSH1 0x4 MSTORE PUSH1 0x24 PUSH1 0x0 REVERT JUMPDEST ADD MLOAD SWAP1 POP DUP8 DUP1 PUSH2 0x12E0 JUMP JUMPDEST SWAP1 PUSH1 0xD DUP5 ADD PUSH1 0x0 MSTORE PUSH1 0x20 PUSH1 0x0 KECCAK256 SWAP2 PUSH1 0x0 JUMPDEST PUSH1 0x1F NOT DUP6 AND DUP2 LT PUSH2 0x14CE JUMPI POP SWAP3 PUSH2 0x240 SWAP5 SWAP3 PUSH1 0x1 SWAP3 PUSH1 0x10 SWAP6 DUP4 PUSH1 0x1F NOT DUP2 AND LT PUSH2 0x14B5 JUMPI JUMPDEST POP POP POP DUP2 SHL ADD PUSH1 0xD DUP3 ADD SSTORE PUSH2 0x12F8 JUMP JUMPDEST ADD MLOAD PUSH1 0x0 NOT PUSH1 0xF8 DUP5 PUSH1 0x3 SHL AND SHR NOT AND SWAP1 SSTORE DUP8 DUP1 DUP1 PUSH2 0x14A5 JUMP JUMPDEST SWAP2 SWAP3 PUSH1 0x20 PUSH1 0x1 DUP2 SWAP3 DUP7 DUP6 ADD MLOAD DUP2 SSTORE ADD SWAP5 ADD SWAP3 ADD PUSH2 0x1481 JUMP JUMPDEST ADD MLOAD SWAP1 POP DUP6 DUP1 PUSH2 0x1277 JUMP JUMPDEST PUSH1 0xC DUP4 ADD PUSH1 0x0 MSTORE PUSH1 0x20 PUSH1 0x0 KECCAK256 SWAP1 PUSH1 0x0 JUMPDEST PUSH1 0x1F NOT DUP5 AND DUP2 LT PUSH2 0x1548 JUMPI POP PUSH1 0x1 SWAP4 SWAP5 SWAP6 SWAP7 DUP4 PUSH1 0x1F NOT DUP2 AND LT PUSH2 0x152F JUMPI JUMPDEST POP POP POP DUP2 SHL ADD PUSH1 0xC DUP3 ADD SSTORE PUSH2 0x128F JUMP JUMPDEST ADD MLOAD PUSH1 0x0 NOT PUSH1 0xF8 DUP5 PUSH1 0x3 SHL AND SHR NOT AND SWAP1 SSTORE DUP6 DUP1 DUP1 PUSH2 0x151F JUMP JUMPDEST SWAP1 SWAP2 PUSH1 0x20 PUSH1 0x1 DUP2 SWAP3 DUP6 DUP12 ADD MLOAD DUP2 SSTORE ADD SWAP4 ADD SWAP2 ADD PUSH2 0x1501 JUMP JUMPDEST ADD MLOAD SWAP1 POP DUP6 DUP1 PUSH2 0x1207 JUMP JUMPDEST PUSH1 0xA DUP6 ADD PUSH1 0x0 MSTORE PUSH1 0x20 PUSH1 0x0 KECCAK256 SWAP1 PUSH1 0x0 JUMPDEST PUSH1 0x1F NOT DUP5 AND DUP2 LT PUSH2 0x15C2 JUMPI POP PUSH1 0x1 SWAP4 SWAP5 SWAP6 SWAP7 DUP4 PUSH1 0x1F NOT DUP2 AND LT PUSH2 0x15A9 JUMPI JUMPDEST POP POP POP DUP2 SHL ADD PUSH1 0xA DUP5 ADD SSTORE PUSH2 0x121F JUMP JUMPDEST ADD MLOAD PUSH1 0x0 NOT PUSH1 0xF8 DUP5 PUSH1 0x3 SHL AND SHR NOT AND SWAP1 SSTORE DUP6 DUP1 DUP1 PUSH2 0x1599 JUMP JUMPDEST SWAP1 SWAP2 PUSH1 0x20 PUSH1 0x1 DUP2 SWAP3 DUP6 DUP12 ADD MLOAD DUP2 SSTORE ADD SWAP4 ADD SWAP2 ADD PUSH2 0x157B JUMP JUMPDEST ADD MLOAD SWAP1 POP DUP6 DUP1 PUSH2 0x11A2 JUMP JUMPDEST PUSH1 0x9 DUP5 ADD PUSH1 0x0 MSTORE PUSH1 0x20 PUSH1 0x0 KECCAK256 SWAP1 PUSH1 0x0 JUMPDEST PUSH1 0x1F NOT DUP5 AND DUP2 LT PUSH2 0x163C JUMPI POP PUSH1 0x1 SWAP4 SWAP5 SWAP6 SWAP7 DUP4 PUSH1 0x1F NOT DUP2 AND LT PUSH2 0x1623 JUMPI JUMPDEST POP POP POP DUP2 SHL ADD PUSH1 0x9 DUP4 ADD SSTORE PUSH2 0x11BA JUMP JUMPDEST ADD MLOAD PUSH1 0x0 NOT PUSH1 0xF8 DUP5 PUSH1 0x3 SHL AND SHR NOT AND SWAP1 SSTORE DUP6 DUP1 DUP1 PUSH2 0x1613 JUMP JUMPDEST SWAP1 SWAP2 PUSH1 0x20 PUSH1 0x1 DUP2 SWAP3 DUP6 DUP12 ADD MLOAD DUP2 SSTORE ADD SWAP4 ADD SWAP2 ADD PUSH2 0x15F5 JUMP JUMPDEST DUP1 MLOAD DUP1 MLOAD SWAP1 PUSH1 0x1 PUSH1 0x1 PUSH1 0x40 SHL SUB DUP3 GT PUSH2 0x144F JUMPI PUSH2 0x167B DUP3 PUSH2 0x1675 DUP9 SLOAD PUSH2 0x6FD5 JUMP JUMPDEST DUP9 PUSH2 0x7B91 JUMP JUMPDEST PUSH1 0x20 SWAP1 PUSH1 0x1F DUP4 GT PUSH1 0x1 EQ PUSH2 0x16C7 JUMPI SWAP3 DUP3 PUSH1 0x1 SWAP5 SWAP4 PUSH1 0x20 SWAP4 DUP7 SWAP6 PUSH1 0x0 SWAP3 PUSH2 0x16BC JUMPI JUMPDEST POP POP PUSH1 0x0 NOT PUSH1 0x3 DUP4 SWAP1 SHL SHR NOT AND SWAP1 DUP5 SHL OR DUP8 SSTORE JUMPDEST ADD SWAP5 ADD SWAP2 ADD SWAP1 SWAP3 PUSH2 0x114A JUMP JUMPDEST ADD MLOAD SWAP1 POP DUP13 DUP1 PUSH2 0x169C JUMP JUMPDEST SWAP1 DUP7 PUSH1 0x0 MSTORE PUSH1 0x20 PUSH1 0x0 KECCAK256 SWAP2 PUSH1 0x0 JUMPDEST PUSH1 0x1F NOT DUP6 AND DUP2 LT PUSH2 0x171F JUMPI POP DUP4 PUSH1 0x20 SWAP4 PUSH1 0x1 SWAP7 SWAP4 DUP8 SWAP7 SWAP4 DUP8 SWAP5 PUSH1 0x1F NOT DUP2 AND LT PUSH2 0x1706 JUMPI JUMPDEST POP POP POP DUP2 SHL ADD DUP8 SSTORE PUSH2 0x16B0 JUMP JUMPDEST ADD MLOAD PUSH1 0x0 NOT PUSH1 0xF8 DUP5 PUSH1 0x3 SHL AND SHR NOT AND SWAP1 SSTORE DUP13 DUP1 DUP1 PUSH2 0x16F9 JUMP JUMPDEST SWAP2 SWAP3 PUSH1 0x20 PUSH1 0x1 DUP2 SWAP3 DUP7 DUP6 ADD MLOAD DUP2 SSTORE ADD SWAP5 ADD SWAP3 ADD PUSH2 0x16D5 JUMP JUMPDEST DUP1 MLOAD DUP1 MLOAD SWAP1 PUSH1 0x1 PUSH1 0x1 PUSH1 0x40 SHL SUB DUP3 GT PUSH2 0x144F JUMPI PUSH2 0x1758 DUP3 PUSH2 0x1675 DUP9 SLOAD PUSH2 0x6FD5 JUMP JUMPDEST PUSH1 0x20 SWAP1 PUSH1 0x1F DUP4 GT PUSH1 0x1 EQ PUSH2 0x17A4 JUMPI SWAP3 DUP3 PUSH1 0x1 SWAP5 SWAP4 PUSH1 0x20 SWAP4 DUP7 SWAP6 PUSH1 0x0 SWAP3 PUSH2 0x1799 JUMPI JUMPDEST POP POP PUSH1 0x0 NOT PUSH1 0x3 DUP4 SWAP1 SHL SHR NOT AND SWAP1 DUP5 SHL OR DUP8 SSTORE JUMPDEST ADD SWAP5 ADD SWAP2 ADD SWAP1 SWAP3 PUSH2 0x1117 JUMP JUMPDEST ADD MLOAD SWAP1 POP DUP13 DUP1 PUSH2 0x1779 JUMP JUMPDEST SWAP1 DUP7 PUSH1 0x0 MSTORE PUSH1 0x20 PUSH1 0x0 KECCAK256 SWAP2 PUSH1 0x0 JUMPDEST PUSH1 0x1F NOT DUP6 AND DUP2 LT PUSH2 0x17FC JUMPI POP DUP4 PUSH1 0x20 SWAP4 PUSH1 0x1 SWAP7 SWAP4 DUP8 SWAP7 SWAP4 DUP8 SWAP5 PUSH1 0x1F NOT DUP2 AND LT PUSH2 0x17E3 JUMPI JUMPDEST POP POP POP DUP2 SHL ADD DUP8 SSTORE PUSH2 0x178D JUMP JUMPDEST ADD MLOAD PUSH1 0x0 NOT PUSH1 0xF8 DUP5 PUSH1 0x3 SHL AND SHR NOT AND SWAP1 SSTORE DUP13 DUP1 DUP1 PUSH2 0x17D6 JUMP JUMPDEST SWAP2 SWAP3 PUSH1 0x20 PUSH1 0x1 DUP2 SWAP3 DUP7 DUP6 ADD MLOAD DUP2 SSTORE ADD SWAP5 ADD SWAP3 ADD PUSH2 0x17B2 JUMP JUMPDEST DUP1 MLOAD DUP1 MLOAD SWAP1 PUSH1 0x1 PUSH1 0x1 PUSH1 0x40 SHL SUB DUP3 GT PUSH2 0x144F JUMPI PUSH2 0x1835 DUP3 PUSH2 0x1675 DUP9 SLOAD PUSH2 0x6FD5 JUMP JUMPDEST PUSH1 0x20 SWAP1 PUSH1 0x1F DUP4 GT PUSH1 0x1 EQ PUSH2 0x1881 JUMPI SWAP3 DUP3 PUSH1 0x1 SWAP5 SWAP4 PUSH1 0x20 SWAP4 DUP7 SWAP6 PUSH1 0x0 SWAP3 PUSH2 0x1876 JUMPI JUMPDEST POP POP PUSH1 0x0 NOT PUSH1 0x3 DUP4 SWAP1 SHL SHR NOT AND SWAP1 DUP5 SHL OR DUP8 SSTORE JUMPDEST ADD SWAP5 ADD SWAP2 ADD SWAP1 SWAP3 PUSH2 0x10E5 JUMP JUMPDEST ADD MLOAD SWAP1 POP DUP13 DUP1 PUSH2 0x1856 JUMP JUMPDEST SWAP1 DUP7 PUSH1 0x0 MSTORE PUSH1 0x20 PUSH1 0x0 KECCAK256 SWAP2 PUSH1 0x0 JUMPDEST PUSH1 0x1F NOT DUP6 AND DUP2 LT PUSH2 0x18D9 JUMPI POP DUP4 PUSH1 0x20 SWAP4 PUSH1 0x1 SWAP7 SWAP4 DUP8 SWAP7 SWAP4 DUP8 SWAP5 PUSH1 0x1F NOT DUP2 AND LT PUSH2 0x18C0 JUMPI JUMPDEST POP POP POP DUP2 SHL ADD DUP8 SSTORE PUSH2 0x186A JUMP JUMPDEST ADD MLOAD PUSH1 0x0 NOT PUSH1 0xF8 DUP5 PUSH1 0x3 SHL AND SHR NOT AND SWAP1 SSTORE DUP13 DUP1 DUP1 PUSH2 0x18B3 JUMP JUMPDEST SWAP2 SWAP3 PUSH1 0x20 PUSH1 0x1 DUP2 SWAP3 DUP7 DUP6 ADD MLOAD DUP2 SSTORE ADD SWAP5 ADD SWAP3 ADD PUSH2 0x188F JUMP JUMPDEST ADD MLOAD SWAP1 POP DUP6 DUP1 PUSH2 0x1092 JUMP JUMPDEST PUSH1 0x3 DUP4 ADD PUSH1 0x0 MSTORE PUSH1 0x20 PUSH1 0x0 KECCAK256 SWAP1 PUSH1 0x0 JUMPDEST PUSH1 0x1F NOT DUP5 AND DUP2 LT PUSH2 0x1953 JUMPI POP PUSH1 0x1 SWAP4 SWAP5 SWAP6 SWAP7 DUP4 PUSH1 0x1F NOT DUP2 AND LT PUSH2 0x193A JUMPI JUMPDEST POP POP POP DUP2 SHL ADD PUSH1 0x3 DUP3 ADD SSTORE PUSH2 0x10AA JUMP JUMPDEST ADD MLOAD PUSH1 0x0 NOT PUSH1 0xF8 DUP5 PUSH1 0x3 SHL AND SHR NOT AND SWAP1 SSTORE DUP6 DUP1 DUP1 PUSH2 0x192A JUMP JUMPDEST SWAP1 SWAP2 PUSH1 0x20 PUSH1 0x1 DUP2 SWAP3 DUP6 DUP12 ADD MLOAD DUP2 SSTORE ADD SWAP4 ADD SWAP2 ADD PUSH2 0x190C JUMP JUMPDEST ADD MLOAD SWAP1 POP DUP6 DUP1 PUSH2 0x102E JUMP JUMPDEST PUSH1 0x2 DUP6 ADD PUSH1 0x0 MSTORE PUSH1 0x20 PUSH1 0x0 KECCAK256 SWAP1 PUSH1 0x0 JUMPDEST PUSH1 0x1F NOT DUP5 AND DUP2 LT PUSH2 0x19CD JUMPI POP PUSH1 0x1 SWAP4 SWAP5 SWAP6 SWAP7 DUP4 PUSH1 0x1F NOT DUP2 AND LT PUSH2 0x19B4 JUMPI JUMPDEST POP POP POP DUP2 SHL ADD PUSH1 0x2 DUP5 ADD SSTORE PUSH2 0x1046 JUMP JUMPDEST ADD MLOAD PUSH1 0x0 NOT PUSH1 0xF8 DUP5 PUSH1 0x3 SHL AND SHR NOT AND SWAP1 SSTORE DUP6 DUP1 DUP1 PUSH2 0x19A4 JUMP JUMPDEST SWAP1 SWAP2 PUSH1 0x20 PUSH1 0x1 DUP2 SWAP3 DUP6 DUP12 ADD MLOAD DUP2 SSTORE ADD SWAP4 ADD SWAP2 ADD PUSH2 0x1986 JUMP JUMPDEST PUSH1 0x64 PUSH1 0x40 MLOAD PUSH3 0x461BCD PUSH1 0xE5 SHL DUP2 MSTORE PUSH1 0x20 PUSH1 0x4 DUP3 ADD MSTORE PUSH1 0x20 PUSH1 0x24 DUP3 ADD MSTORE PUSH32 0x4552433732313A206D696E7420746F20746865207A65726F2061646472657373 PUSH1 0x44 DUP3 ADD MSTORE REVERT JUMPDEST PUSH1 0x40 MLOAD PUSH3 0x461BCD PUSH1 0xE5 SHL DUP2 MSTORE PUSH1 0x20 PUSH1 0x4 DUP3 ADD MSTORE PUSH1 0x25 PUSH1 0x24 DUP3 ADD MSTORE PUSH32 0x53756243617465676F7279204944206D75737420626520677265617465722074 PUSH1 0x44 DUP3 ADD MSTORE PUSH5 0x68616E203 PUSH1 0xDC SHL PUSH1 0x64 DUP3 ADD MSTORE PUSH1 0x84 SWAP1 REVERT JUMPDEST PUSH1 0x40 MLOAD PUSH3 0x461BCD PUSH1 0xE5 SHL DUP2 MSTORE PUSH1 0x20 PUSH1 0x4 DUP3 ADD MSTORE PUSH1 0x22 PUSH1 0x24 DUP3 ADD MSTORE PUSH32 0x43617465676F7279204944206D7573742062652067726561746572207468616E PUSH1 0x44 DUP3 ADD MSTORE PUSH2 0x203 PUSH1 0xF4 SHL PUSH1 0x64 DUP3 ADD MSTORE PUSH1 0x84 SWAP1 REVERT JUMPDEST PUSH1 0x64 PUSH1 0x40 MLOAD PUSH3 0x461BCD PUSH1 0xE5 SHL DUP2 MSTORE PUSH1 0x20 PUSH1 0x4 DUP3 ADD MSTORE PUSH1 0x20 PUSH1 0x24 DUP3 ADD MSTORE PUSH32 0x4D7573742062652076657269666965642073656C6C6572206F72206F776E6572 PUSH1 0x44 DUP3 ADD MSTORE REVERT JUMPDEST POP PUSH1 0x0 SLOAD PUSH1 0x1 PUSH1 0x1 PUSH1 0xA0 SHL SUB AND CALLER EQ PUSH2 0xCCB JUMP JUMPDEST PUSH4 0x4E487B71 PUSH1 0xE0 SHL PUSH1 0x0 MSTORE PUSH1 0x21 PUSH1 0x4 MSTORE PUSH1 0x24 PUSH1 0x0 REVERT JUMPDEST CALLVALUE PUSH2 0x5E2 JUMPI PUSH1 0x0 CALLDATASIZE PUSH1 0x3 NOT ADD SLT PUSH2 0x5E2 JUMPI PUSH1 0x20 PUSH1 0xD SLOAD PUSH1 0x40 MLOAD SWAP1 DUP2 MSTORE RETURN JUMPDEST CALLVALUE PUSH2 0x5E2 JUMPI PUSH1 0x20 DUP1 PUSH1 0x3 NOT CALLDATASIZE ADD SLT PUSH2 0x5E2 JUMPI PUSH1 0x1 PUSH1 0x1 PUSH1 0x40 SHL SUB PUSH1 0x4 CALLDATALOAD DUP2 DUP2 GT PUSH2 0x5E2 JUMPI PUSH2 0x1B8A SWAP1 CALLDATASIZE SWAP1 PUSH1 0x4 ADD PUSH2 0x6F19 JUMP JUMPDEST SWAP1 PUSH2 0x1B93 PUSH2 0x75F2 JUMP JUMPDEST PUSH2 0x1B9F DUP3 MLOAD ISZERO ISZERO PUSH2 0x84F1 JUMP JUMPDEST PUSH2 0x1BAA PUSH1 0xB SLOAD PUSH2 0x847E JUMP JUMPDEST SWAP1 DUP2 PUSH1 0xB SSTORE PUSH1 0x40 MLOAD PUSH2 0x1BBB DUP2 PUSH2 0x6E89 JUMP JUMPDEST PUSH1 0x0 DUP2 MSTORE PUSH1 0x40 MLOAD PUSH2 0x1BCB DUP2 PUSH2 0x6E38 JUMP JUMPDEST DUP4 DUP2 MSTORE DUP6 DUP2 ADD DUP6 DUP2 MSTORE PUSH1 0x40 DUP3 ADD SWAP1 PUSH1 0x1 SWAP6 DUP7 DUP4 MSTORE PUSH1 0x60 DUP5 ADD SWAP5 DUP6 MSTORE PUSH1 0x0 MSTORE PUSH1 0x18 DUP9 MSTORE PUSH1 0x40 PUSH1 0x0 KECCAK256 SWAP3 MLOAD DUP4 SSTORE DUP6 DUP4 ADD SWAP1 MLOAD DUP1 MLOAD SWAP1 DUP7 DUP3 GT PUSH2 0x144F JUMPI PUSH2 0x1C19 DUP3 PUSH2 0x1C13 DUP6 SLOAD PUSH2 0x6FD5 JUMP JUMPDEST DUP6 PUSH2 0x7B91 JUMP JUMPDEST DUP10 SWAP1 PUSH1 0x1F DUP4 GT PUSH1 0x1 EQ PUSH2 0x1D08 JUMPI SWAP2 DUP1 PUSH2 0x1C58 SWAP5 SWAP3 PUSH1 0x3 SWAP8 SWAP7 SWAP5 PUSH1 0x0 SWAP3 PUSH2 0x1CFD JUMPI JUMPDEST POP POP PUSH1 0x0 NOT DUP3 DUP9 SHL SHR NOT AND SWAP1 DUP10 SHL OR SWAP1 SSTORE JUMPDEST MLOAD ISZERO ISZERO PUSH1 0x2 DUP4 ADD PUSH2 0x799C JUMP JUMPDEST ADD SWAP1 MLOAD DUP1 MLOAD SWAP3 DUP4 GT PUSH2 0x144F JUMPI PUSH1 0x1 PUSH1 0x40 SHL DUP4 GT PUSH2 0x144F JUMPI DUP6 SWAP1 DUP3 SLOAD DUP5 DUP5 SSTORE DUP1 DUP6 LT PUSH2 0x1CE0 JUMPI JUMPDEST POP ADD SWAP1 PUSH1 0x0 MSTORE DUP5 PUSH1 0x0 KECCAK256 PUSH1 0x0 JUMPDEST DUP4 DUP2 LT PUSH2 0x1CCF JUMPI PUSH1 0xB SLOAD PUSH1 0x40 MLOAD DUP9 DUP2 MSTORE PUSH32 0x11C167CC9B439F0AD8BEC5588159F1B06B813BC38D50C867A41B23B077BE2C1A SWAP1 DUP1 PUSH2 0x1CCA DUP2 DUP13 ADD DUP12 PUSH2 0x6AAE JUMP JUMPDEST SUB SWAP1 LOG2 STOP JUMPDEST DUP3 MLOAD DUP3 DUP3 ADD SSTORE SWAP2 DUP7 ADD SWAP2 DUP5 ADD PUSH2 0x1C8B JUMP JUMPDEST PUSH2 0x1CF7 SWAP1 DUP5 PUSH1 0x0 MSTORE DUP6 DUP5 PUSH1 0x0 KECCAK256 SWAP2 DUP3 ADD SWAP2 ADD PUSH2 0x7B7A JUMP JUMPDEST DUP8 PUSH2 0x1C7E JUMP JUMPDEST ADD MLOAD SWAP1 POP DUP13 DUP1 PUSH2 0x1C3A JUMP JUMPDEST DUP9 SWAP3 SWAP2 PUSH1 0x1F NOT DUP4 AND SWAP2 DUP6 PUSH1 0x0 MSTORE DUP13 PUSH1 0x0 KECCAK256 SWAP3 DUP14 PUSH1 0x0 SWAP1 JUMPDEST DUP3 DUP3 LT PUSH2 0x1D62 JUMPI POP POP SWAP2 PUSH1 0x3 SWAP9 SWAP8 SWAP6 SWAP4 SWAP2 DUP6 PUSH2 0x1C58 SWAP9 SWAP7 SWAP5 LT PUSH2 0x1D4A JUMPI JUMPDEST POP POP POP DUP2 SHL ADD SWAP1 SSTORE PUSH2 0x1C4C JUMP JUMPDEST ADD MLOAD PUSH1 0x0 NOT DUP4 DUP11 SHL PUSH1 0xF8 AND SHR NOT AND SWAP1 SSTORE DUP13 DUP1 DUP1 PUSH2 0x1D3D JUMP JUMPDEST DUP4 DUP6 ADD MLOAD DUP7 SSTORE DUP14 SWAP8 SWAP1 SWAP6 ADD SWAP5 SWAP4 DUP5 ADD SWAP4 ADD DUP15 PUSH2 0x1D1F JUMP JUMPDEST CALLVALUE PUSH2 0x5E2 JUMPI PUSH1 0x0 CALLDATASIZE PUSH1 0x3 NOT ADD SLT PUSH2 0x5E2 JUMPI PUSH1 0xB SLOAD PUSH2 0x1D96 DUP2 PUSH2 0x7443 JUMP JUMPDEST PUSH2 0x1DA3 PUSH1 0x40 MLOAD SWAP2 DUP3 PUSH2 0x6EA4 JUMP JUMPDEST DUP2 DUP2 MSTORE PUSH1 0x1F NOT PUSH2 0x1DB2 DUP4 PUSH2 0x7443 JUMP JUMPDEST ADD CALLDATASIZE PUSH1 0x20 DUP4 ADD CALLDATACOPY PUSH2 0x1DC2 DUP3 PUSH2 0x7443 JUMP JUMPDEST SWAP2 PUSH2 0x1DD0 PUSH1 0x40 MLOAD SWAP4 DUP5 PUSH2 0x6EA4 JUMP JUMPDEST DUP1 DUP4 MSTORE PUSH2 0x1DEC PUSH1 0x1F NOT PUSH2 0x1DE2 DUP4 PUSH2 0x7443 JUMP JUMPDEST ADD PUSH1 0x20 DUP6 ADD PUSH2 0x86A1 JUMP JUMPDEST PUSH2 0x1DF5 DUP2 PUSH2 0x7443 JUMP JUMPDEST SWAP3 PUSH2 0x1E03 PUSH1 0x40 MLOAD SWAP5 DUP6 PUSH2 0x6EA4 JUMP JUMPDEST DUP2 DUP5 MSTORE PUSH1 0x1F NOT PUSH2 0x1E12 DUP4 PUSH2 0x7443 JUMP JUMPDEST ADD CALLDATASIZE PUSH1 0x20 DUP7 ADD CALLDATACOPY PUSH2 0x1E22 DUP3 PUSH2 0x7443 JUMP JUMPDEST SWAP1 PUSH2 0x1E30 PUSH1 0x40 MLOAD SWAP3 DUP4 PUSH2 0x6EA4 JUMP JUMPDEST DUP3 DUP3 MSTORE PUSH2 0x1E3C DUP4 PUSH2 0x7443 JUMP JUMPDEST SWAP3 PUSH2 0x1E4F PUSH1 0x20 DUP5 ADD SWAP5 PUSH1 0x1F NOT ADD DUP6 PUSH2 0x86A1 JUMP JUMPDEST PUSH1 0x1 JUMPDEST DUP2 DUP2 GT ISZERO PUSH2 0x1F8B JUMPI POP POP PUSH2 0x1E71 PUSH1 0x40 MLOAD SWAP5 PUSH1 0x80 DUP7 MSTORE PUSH1 0x80 DUP7 ADD SWAP1 PUSH2 0x75BE JUMP JUMPDEST DUP5 DUP2 SUB PUSH1 0x20 DUP7 ADD MSTORE DUP2 MLOAD DUP1 DUP3 MSTORE PUSH1 0x20 DUP3 ADD SWAP2 PUSH1 0x20 DUP1 DUP4 PUSH1 0x5 SHL DUP4 ADD ADD SWAP5 ADD SWAP3 PUSH1 0x0 SWAP2 JUMPDEST DUP4 DUP4 LT PUSH2 0x1F5E JUMPI POP POP POP POP POP DUP4 DUP2 SUB PUSH1 0x40 DUP6 ADD MSTORE PUSH1 0x20 DUP1 DUP7 MLOAD SWAP3 DUP4 DUP2 MSTORE ADD SWAP6 ADD SWAP1 PUSH1 0x0 JUMPDEST DUP2 DUP2 LT PUSH2 0x1F46 JUMPI POP POP POP DUP3 DUP5 SUB PUSH1 0x60 DUP5 ADD MSTORE MLOAD DUP1 DUP5 MSTORE PUSH1 0x20 DUP5 ADD SWAP1 PUSH1 0x20 DUP2 PUSH1 0x5 SHL DUP7 ADD ADD SWAP3 SWAP2 PUSH1 0x0 SWAP1 JUMPDEST DUP3 DUP3 LT PUSH2 0x1EEF JUMPI DUP6 DUP6 SUB DUP7 RETURN JUMPDEST SWAP1 SWAP2 SWAP3 SWAP4 PUSH1 0x1F NOT DUP8 DUP3 SUB ADD DUP3 MSTORE DUP5 MLOAD SWAP1 PUSH1 0x20 DUP1 DUP4 MLOAD SWAP3 DUP4 DUP2 MSTORE ADD SWAP3 ADD SWAP1 PUSH1 0x0 SWAP1 JUMPDEST DUP1 DUP3 LT PUSH2 0x1F2E JUMPI POP POP POP PUSH1 0x20 DUP1 PUSH1 0x1 SWAP3 SWAP7 ADD SWAP3 ADD SWAP3 ADD SWAP1 SWAP3 SWAP2 PUSH2 0x1EE2 JUMP JUMPDEST SWAP1 SWAP2 SWAP3 PUSH1 0x20 DUP1 PUSH1 0x1 SWAP3 DUP7 MLOAD DUP2 MSTORE ADD SWAP5 ADD SWAP3 ADD SWAP1 PUSH2 0x1F10 JUMP JUMPDEST DUP3 MLOAD ISZERO ISZERO DUP8 MSTORE PUSH1 0x20 SWAP7 DUP8 ADD SWAP7 SWAP1 SWAP3 ADD SWAP2 PUSH1 0x1 ADD PUSH2 0x1EB8 JUMP JUMPDEST SWAP1 SWAP2 SWAP3 SWAP4 SWAP5 PUSH1 0x20 DUP1 PUSH2 0x1F7C PUSH1 0x1 SWAP4 PUSH1 0x1F NOT DUP7 DUP3 SUB ADD DUP8 MSTORE DUP10 MLOAD PUSH2 0x6AAE JUMP JUMPDEST SWAP8 ADD SWAP4 ADD SWAP4 ADD SWAP2 SWAP4 SWAP3 SWAP1 PUSH2 0x1E94 JUMP JUMPDEST DUP1 PUSH1 0x0 MSTORE PUSH1 0x18 PUSH1 0x20 MSTORE PUSH1 0x40 PUSH1 0x0 KECCAK256 SWAP1 PUSH2 0x1FDE PUSH1 0x3 PUSH1 0x40 MLOAD SWAP4 PUSH2 0x1FAC DUP6 PUSH2 0x6E38 JUMP JUMPDEST DUP1 SLOAD DUP6 MSTORE PUSH1 0x40 MLOAD PUSH2 0x1FC4 DUP2 PUSH2 0x3CE DUP2 PUSH1 0x1 DUP7 ADD PUSH2 0x700F JUMP JUMPDEST PUSH1 0x20 DUP7 ADD MSTORE PUSH1 0xFF PUSH1 0x2 DUP3 ADD SLOAD AND ISZERO ISZERO PUSH1 0x40 DUP7 ADD MSTORE ADD PUSH2 0x8652 JUMP JUMPDEST PUSH1 0x60 DUP4 ADD MSTORE DUP2 MLOAD PUSH2 0x1FF9 JUMPI JUMPDEST PUSH2 0x1FF4 SWAP2 POP PUSH2 0x847E JUMP JUMPDEST PUSH2 0x1E52 JUMP JUMPDEST DUP1 PUSH1 0x0 NOT DUP2 ADD GT PUSH2 0x1439 JUMPI PUSH1 0x60 DUP3 PUSH2 0x1FF4 SWAP4 MLOAD PUSH2 0x201A PUSH1 0x0 NOT DUP6 ADD DUP12 PUSH2 0x84DD JUMP JUMPDEST MSTORE PUSH1 0x20 DUP2 ADD MLOAD PUSH2 0x202E PUSH1 0x0 NOT DUP6 ADD DUP9 PUSH2 0x84DD JUMP JUMPDEST MSTORE PUSH2 0x203D PUSH1 0x0 NOT DUP5 ADD DUP8 PUSH2 0x84DD JUMP JUMPDEST POP PUSH1 0x40 DUP2 ADD MLOAD ISZERO ISZERO PUSH2 0x2053 PUSH1 0x0 NOT DUP6 ADD DUP13 PUSH2 0x84DD JUMP JUMPDEST MSTORE ADD MLOAD PUSH2 0x2064 PUSH1 0x0 NOT DUP4 ADD DUP8 PUSH2 0x84DD JUMP JUMPDEST MSTORE PUSH2 0x2073 PUSH1 0x0 NOT DUP3 ADD DUP7 PUSH2 0x84DD JUMP JUMPDEST POP PUSH2 0x1FEA JUMP JUMPDEST CALLVALUE PUSH2 0x5E2 JUMPI PUSH1 0x60 CALLDATASIZE PUSH1 0x3 NOT ADD SLT PUSH2 0x5E2 JUMPI PUSH1 0x4 CALLDATALOAD PUSH1 0x1 PUSH1 0x1 PUSH1 0x40 SHL SUB DUP2 GT PUSH2 0x5E2 JUMPI PUSH2 0x20A9 SWAP1 CALLDATASIZE SWAP1 PUSH1 0x4 ADD PUSH2 0x6F19 JUMP JUMPDEST PUSH1 0x24 CALLDATALOAD PUSH1 0x1 PUSH1 0x1 PUSH1 0x40 SHL SUB DUP2 GT PUSH2 0x5E2 JUMPI PUSH2 0x20C8 SWAP1 CALLDATASIZE SWAP1 PUSH1 0x4 ADD PUSH2 0x6F19 JUMP JUMPDEST SWAP1 PUSH1 0x44 CALLDATALOAD PUSH1 0x1 PUSH1 0x1 PUSH1 0x40 SHL SUB DUP2 GT PUSH2 0x5E2 JUMPI PUSH2 0x20E8 SWAP1 CALLDATASIZE SWAP1 PUSH1 0x4 ADD PUSH2 0x6F19 JUMP JUMPDEST SWAP2 PUSH2 0x20F4 CALLER ISZERO ISZERO PUSH2 0x7AF9 JUMP JUMPDEST CALLER PUSH1 0x0 MSTORE PUSH1 0x14 PUSH1 0x20 MSTORE PUSH1 0xFF PUSH1 0x40 PUSH1 0x0 KECCAK256 SLOAD AND PUSH2 0x24D9 JUMPI PUSH2 0x2116 DUP3 MLOAD ISZERO ISZERO PUSH2 0x7B37 JUMP JUMPDEST DUP1 MLOAD ISZERO PUSH2 0x249C JUMPI PUSH1 0x40 MLOAD SWAP3 PUSH2 0x212A DUP5 PUSH2 0x6E53 JUMP JUMPDEST DUP3 DUP5 MSTORE PUSH1 0x20 DUP5 ADD SWAP2 DUP3 MSTORE PUSH1 0x40 DUP5 ADD MSTORE TIMESTAMP PUSH1 0x60 DUP5 ADD MSTORE PUSH1 0x1 PUSH1 0x80 DUP5 ADD MSTORE CALLER PUSH1 0x0 MSTORE PUSH1 0x10 PUSH1 0x20 MSTORE PUSH1 0x40 PUSH1 0x0 KECCAK256 SWAP1 DUP4 MLOAD DUP1 MLOAD SWAP1 PUSH1 0x1 DUP1 PUSH1 0x40 SHL SUB DUP3 GT PUSH2 0x144F JUMPI DUP2 SWAP1 PUSH2 0x217D DUP3 PUSH2 0x2177 DUP8 SLOAD PUSH2 0x6FD5 JUMP JUMPDEST DUP8 PUSH2 0x7B91 JUMP JUMPDEST PUSH1 0x20 SWAP1 PUSH1 0x1F DUP4 GT PUSH1 0x1 EQ PUSH2 0x2430 JUMPI PUSH1 0x0 SWAP3 PUSH2 0x2425 JUMPI JUMPDEST POP POP DUP2 PUSH1 0x1 SHL SWAP2 PUSH1 0x0 NOT SWAP1 PUSH1 0x3 SHL SHR NOT AND OR DUP3 SSTORE JUMPDEST MLOAD DUP1 MLOAD SWAP1 SWAP4 SWAP1 PUSH1 0x1 PUSH1 0x1 PUSH1 0x40 SHL SUB DUP2 GT PUSH2 0x144F JUMPI PUSH2 0x21D6 DUP2 PUSH2 0x21CD PUSH1 0x1 DUP7 ADD SLOAD PUSH2 0x6FD5 JUMP JUMPDEST PUSH1 0x1 DUP7 ADD PUSH2 0x7B91 JUMP JUMPDEST PUSH1 0x20 PUSH1 0x1F DUP3 GT PUSH1 0x1 EQ PUSH2 0x23B6 JUMPI DUP2 SWAP3 SWAP4 SWAP5 SWAP6 PUSH1 0x0 SWAP3 PUSH2 0x23AB JUMPI JUMPDEST POP POP DUP2 PUSH1 0x1 SHL SWAP2 PUSH1 0x0 NOT SWAP1 PUSH1 0x3 SHL SHR NOT AND OR PUSH1 0x1 DUP4 ADD SSTORE JUMPDEST PUSH1 0x40 DUP2 ADD MLOAD DUP1 MLOAD PUSH1 0x2 DUP5 ADD SWAP2 PUSH1 0x1 PUSH1 0x1 PUSH1 0x40 SHL SUB DUP3 GT PUSH2 0x144F JUMPI PUSH2 0x2230 DUP3 PUSH2 0x1C13 DUP6 SLOAD PUSH2 0x6FD5 JUMP JUMPDEST PUSH1 0x20 SWAP1 PUSH1 0x1F DUP4 GT PUSH1 0x1 EQ PUSH2 0x2339 JUMPI SWAP3 DUP3 PUSH1 0x80 SWAP4 PUSH2 0x227E SWAP8 SWAP7 SWAP4 PUSH1 0x4 SWAP7 PUSH1 0x0 SWAP3 PUSH2 0x232E JUMPI JUMPDEST POP POP DUP2 PUSH1 0x1 SHL SWAP2 PUSH1 0x0 NOT SWAP1 PUSH1 0x3 SHL SHR NOT AND OR SWAP1 SSTORE JUMPDEST PUSH1 0x60 DUP2 ADD MLOAD PUSH1 0x3 DUP6 ADD SSTORE ADD MLOAD ISZERO ISZERO SWAP2 ADD PUSH2 0x799C JUMP JUMPDEST CALLER PUSH1 0x0 SWAP1 DUP2 MSTORE PUSH1 0x14 PUSH1 0x20 MSTORE PUSH1 0x40 SWAP1 KECCAK256 DUP1 SLOAD PUSH1 0xFF NOT AND PUSH1 0x1 OR SWAP1 SSTORE PUSH1 0xF SLOAD PUSH1 0x1 PUSH1 0x40 SHL DUP2 LT ISZERO PUSH2 0x144F JUMPI PUSH1 0x1 DUP2 ADD DUP1 PUSH1 0xF SSTORE DUP2 LT ISZERO PUSH2 0x2318 JUMPI PUSH1 0xF PUSH1 0x0 MSTORE PUSH1 0x0 DUP1 MLOAD PUSH1 0x20 PUSH2 0x98FB DUP4 CODECOPY DUP2 MLOAD SWAP2 MSTORE ADD DUP1 SLOAD PUSH1 0x1 PUSH1 0x1 PUSH1 0xA0 SHL SUB NOT AND CALLER SWAP1 DUP2 OR SWAP1 SWAP2 SSTORE PUSH1 0x40 MLOAD PUSH1 0x20 DUP1 DUP3 MSTORE SWAP2 SWAP3 PUSH32 0x48CAC28AD4DC618E15F4C2DD5E97751182F166DE97B25618318B2112AA951A2F SWAP3 DUP3 SWAP2 PUSH2 0x1CCA SWAP2 DUP4 ADD SWAP1 PUSH2 0x6AAE JUMP JUMPDEST PUSH4 0x4E487B71 PUSH1 0xE0 SHL PUSH1 0x0 MSTORE PUSH1 0x32 PUSH1 0x4 MSTORE PUSH1 0x24 PUSH1 0x0 REVERT JUMPDEST ADD MLOAD SWAP1 POP DUP10 DUP1 PUSH2 0x2254 JUMP JUMPDEST SWAP1 PUSH1 0x1F NOT DUP4 AND SWAP2 DUP5 PUSH1 0x0 MSTORE PUSH1 0x20 PUSH1 0x0 KECCAK256 SWAP3 PUSH1 0x0 JUMPDEST DUP2 DUP2 LT PUSH2 0x2393 JUMPI POP SWAP4 PUSH2 0x227E SWAP8 SWAP7 SWAP4 PUSH1 0x4 SWAP7 SWAP4 PUSH1 0x1 SWAP4 DUP4 PUSH1 0x80 SWAP9 LT PUSH2 0x237A JUMPI JUMPDEST POP POP POP DUP2 SHL ADD SWAP1 SSTORE PUSH2 0x2269 JUMP JUMPDEST ADD MLOAD PUSH1 0x0 NOT PUSH1 0xF8 DUP5 PUSH1 0x3 SHL AND SHR NOT AND SWAP1 SSTORE DUP10 DUP1 DUP1 PUSH2 0x236D JUMP JUMPDEST SWAP3 SWAP4 PUSH1 0x20 PUSH1 0x1 DUP2 SWAP3 DUP8 DUP7 ADD MLOAD DUP2 SSTORE ADD SWAP6 ADD SWAP4 ADD PUSH2 0x234D JUMP JUMPDEST ADD MLOAD SWAP1 POP DUP6 DUP1 PUSH2 0x21F0 JUMP JUMPDEST PUSH1 0x1 DUP5 ADD PUSH1 0x0 MSTORE PUSH1 0x20 PUSH1 0x0 KECCAK256 SWAP1 PUSH1 0x0 JUMPDEST PUSH1 0x1F NOT DUP5 AND DUP2 LT PUSH2 0x240D JUMPI POP PUSH1 0x1 SWAP4 SWAP5 SWAP6 SWAP7 DUP4 PUSH1 0x1F NOT DUP2 AND LT PUSH2 0x23F4 JUMPI JUMPDEST POP POP POP DUP2 SHL ADD PUSH1 0x1 DUP4 ADD SSTORE PUSH2 0x2208 JUMP JUMPDEST ADD MLOAD PUSH1 0x0 NOT PUSH1 0xF8 DUP5 PUSH1 0x3 SHL AND SHR NOT AND SWAP1 SSTORE DUP6 DUP1 DUP1 PUSH2 0x23E4 JUMP JUMPDEST SWAP1 SWAP2 PUSH1 0x20 PUSH1 0x1 DUP2 SWAP3 DUP6 DUP12 ADD MLOAD DUP2 SSTORE ADD SWAP4 ADD SWAP2 ADD PUSH2 0x23C6 JUMP JUMPDEST ADD MLOAD SWAP1 POP DUP7 DUP1 PUSH2 0x2193 JUMP JUMPDEST SWAP3 POP DUP5 PUSH1 0x0 MSTORE PUSH1 0x20 PUSH1 0x0 KECCAK256 SWAP1 PUSH1 0x0 SWAP4 JUMPDEST PUSH1 0x1F NOT DUP5 AND DUP6 LT PUSH2 0x2481 JUMPI PUSH1 0x1 SWAP5 POP DUP4 PUSH1 0x1F NOT DUP2 AND LT PUSH2 0x2468 JUMPI JUMPDEST POP POP POP DUP2 SHL ADD DUP3 SSTORE PUSH2 0x21A8 JUMP JUMPDEST ADD MLOAD PUSH1 0x0 NOT PUSH1 0xF8 DUP5 PUSH1 0x3 SHL AND SHR NOT AND SWAP1 SSTORE DUP7 DUP1 DUP1 PUSH2 0x245B JUMP JUMPDEST DUP2 DUP2 ADD MLOAD DUP4 SSTORE PUSH1 0x20 SWAP5 DUP6 ADD SWAP5 PUSH1 0x1 SWAP1 SWAP4 ADD SWAP3 SWAP1 SWAP2 ADD SWAP1 PUSH2 0x2440 JUMP JUMPDEST PUSH1 0x40 MLOAD PUSH3 0x461BCD PUSH1 0xE5 SHL DUP2 MSTORE PUSH1 0x20 PUSH1 0x4 DUP3 ADD MSTORE PUSH1 0x15 PUSH1 0x24 DUP3 ADD MSTORE PUSH21 0x456D61696C2063616E6E6F7420626520656D707479 PUSH1 0x58 SHL PUSH1 0x44 DUP3 ADD MSTORE PUSH1 0x64 SWAP1 REVERT JUMPDEST PUSH1 0x40 MLOAD PUSH3 0x461BCD PUSH1 0xE5 SHL DUP2 MSTORE PUSH1 0x20 PUSH1 0x4 DUP3 ADD MSTORE PUSH1 0x17 PUSH1 0x24 DUP3 ADD MSTORE PUSH23 0x155CD95C88185B1C9958591E481C9959DA5CDD195C9959 PUSH1 0x4A SHL PUSH1 0x44 DUP3 ADD MSTORE PUSH1 0x64 SWAP1 REVERT JUMPDEST CALLVALUE PUSH2 0x5E2 JUMPI PUSH1 0x40 CALLDATASIZE PUSH1 0x3 NOT ADD SLT PUSH2 0x5E2 JUMPI PUSH1 0x24 CALLDATALOAD PUSH1 0x1 PUSH1 0x1 PUSH1 0x40 SHL SUB DUP2 GT PUSH2 0x5E2 JUMPI CALLDATASIZE PUSH1 0x23 DUP3 ADD SLT ISZERO PUSH2 0x5E2 JUMPI PUSH1 0x1 PUSH1 0x1 PUSH1 0x40 SHL SUB PUSH1 0x4 DUP3 ADD CALLDATALOAD GT PUSH2 0x5E2 JUMPI CALLDATASIZE PUSH1 0x24 DUP3 PUSH1 0x4 ADD CALLDATALOAD PUSH1 0x5 SHL DUP4 ADD ADD GT PUSH2 0x5E2 JUMPI PUSH1 0x4 CALLDATALOAD PUSH1 0x0 MSTORE PUSH1 0x18 PUSH1 0x20 MSTORE PUSH1 0xFF PUSH1 0x2 PUSH1 0x40 PUSH1 0x0 KECCAK256 ADD SLOAD AND ISZERO PUSH2 0x2783 JUMPI PUSH1 0x0 JUMPDEST DUP2 PUSH1 0x4 ADD CALLDATALOAD DUP2 LT PUSH2 0x2596 JUMPI STOP JUMPDEST PUSH2 0x25A1 PUSH1 0xC SLOAD PUSH2 0x847E JUMP JUMPDEST DUP1 PUSH1 0xC SSTORE PUSH2 0x25D3 PUSH2 0x25BA DUP4 DUP6 PUSH1 0x4 ADD CALLDATALOAD PUSH1 0x24 DUP8 ADD PUSH2 0x8588 JUMP JUMPDEST SWAP2 SWAP1 PUSH1 0x40 MLOAD SWAP3 PUSH2 0x25C9 DUP5 PUSH2 0x6E38 JUMP JUMPDEST DUP5 DUP5 MSTORE CALLDATASIZE SWAP2 PUSH2 0x6EE2 JUMP JUMPDEST SWAP2 PUSH1 0x20 DUP3 ADD SWAP3 DUP4 MSTORE PUSH1 0x4 CALLDATALOAD PUSH1 0x40 DUP4 ADD MSTORE PUSH1 0x1 PUSH1 0x60 DUP4 ADD MSTORE PUSH1 0x0 MSTORE PUSH1 0x19 PUSH1 0x20 MSTORE PUSH1 0x40 PUSH1 0x0 KECCAK256 SWAP2 DUP2 MLOAD DUP4 SSTORE MLOAD DUP1 MLOAD SWAP1 PUSH1 0x1 DUP1 PUSH1 0x40 SHL SUB DUP3 GT PUSH2 0x144F JUMPI PUSH2 0x2627 DUP3 PUSH2 0x261E PUSH1 0x1 DUP8 ADD SLOAD PUSH2 0x6FD5 JUMP JUMPDEST PUSH1 0x1 DUP8 ADD PUSH2 0x7B91 JUMP JUMPDEST PUSH1 0x20 SWAP1 PUSH1 0x1F DUP4 GT PUSH1 0x1 EQ PUSH2 0x2705 JUMPI PUSH2 0x2699 SWAP4 DUP4 PUSH2 0x26F5 SWAP8 SWAP7 SWAP5 PUSH2 0x267F SWAP5 PUSH1 0x60 SWAP5 PUSH1 0x0 SWAP3 PUSH2 0x26FA JUMPI JUMPDEST POP POP DUP2 PUSH1 0x1 SHL SWAP2 PUSH1 0x0 NOT SWAP1 PUSH1 0x3 SHL SHR NOT AND OR PUSH1 0x1 DUP6 ADD SSTORE JUMPDEST PUSH1 0x40 DUP2 ADD MLOAD PUSH1 0x2 DUP6 ADD SSTORE ADD MLOAD ISZERO ISZERO PUSH1 0x3 DUP1 SWAP4 ADD PUSH2 0x799C JUMP JUMPDEST PUSH1 0x4 CALLDATALOAD PUSH1 0x0 MSTORE PUSH1 0x18 PUSH1 0x20 MSTORE PUSH1 0x40 PUSH1 0x0 KECCAK256 ADD PUSH1 0xC SLOAD SWAP1 PUSH2 0x823F JUMP JUMPDEST PUSH1 0x0 DUP1 MLOAD PUSH1 0x20 PUSH2 0x98BB DUP4 CODECOPY DUP2 MLOAD SWAP2 MSTORE PUSH1 0xC SLOAD PUSH2 0x26BD DUP4 DUP7 PUSH1 0x4 ADD CALLDATALOAD PUSH1 0x24 DUP9 ADD PUSH2 0x8588 JUMP JUMPDEST SWAP3 SWAP1 DUP4 PUSH1 0x40 MLOAD SWAP2 PUSH1 0x20 DUP4 MSTORE DUP2 PUSH1 0x20 DUP5 ADD MSTORE PUSH1 0x40 DUP4 ADD CALLDATACOPY PUSH1 0x0 PUSH1 0x40 DUP6 DUP4 ADD ADD MSTORE PUSH1 0x40 DUP2 PUSH1 0x4 CALLDATALOAD SWAP6 PUSH1 0x1F DUP1 NOT SWAP2 ADD AND DUP2 ADD SUB ADD SWAP1 LOG3 PUSH2 0x847E JUMP JUMPDEST PUSH2 0x2589 JUMP JUMPDEST ADD MLOAD SWAP1 POP DUP11 DUP1 PUSH2 0x264F JUMP JUMPDEST SWAP1 PUSH1 0x1 DUP6 ADD PUSH1 0x0 MSTORE PUSH1 0x20 PUSH1 0x0 KECCAK256 SWAP2 PUSH1 0x0 JUMPDEST PUSH1 0x1F NOT DUP6 AND DUP2 LT PUSH2 0x276B JUMPI POP SWAP4 PUSH1 0x1 DUP5 PUSH2 0x267F SWAP5 PUSH1 0x60 SWAP5 PUSH2 0x2699 SWAP9 PUSH2 0x26F5 SWAP12 SWAP11 SWAP9 PUSH1 0x1F NOT DUP2 AND LT PUSH2 0x2752 JUMPI JUMPDEST POP POP POP DUP2 SHL ADD PUSH1 0x1 DUP6 ADD SSTORE PUSH2 0x2667 JUMP JUMPDEST ADD MLOAD PUSH1 0x0 NOT PUSH1 0xF8 DUP5 PUSH1 0x3 SHL AND SHR NOT AND SWAP1 SSTORE DUP11 DUP1 DUP1 PUSH2 0x2742 JUMP JUMPDEST SWAP2 SWAP3 PUSH1 0x20 PUSH1 0x1 DUP2 SWAP3 DUP7 DUP6 ADD MLOAD DUP2 SSTORE ADD SWAP5 ADD SWAP3 ADD PUSH2 0x2716 JUMP JUMPDEST PUSH1 0x40 MLOAD PUSH3 0x461BCD PUSH1 0xE5 SHL DUP2 MSTORE PUSH1 0x20 PUSH1 0x4 DUP3 ADD MSTORE PUSH1 0x1A PUSH1 0x24 DUP3 ADD MSTORE PUSH26 0x506172656E742063617465676F7279206E6F7420616374697665 PUSH1 0x30 SHL PUSH1 0x44 DUP3 ADD MSTORE PUSH1 0x64 SWAP1 REVERT JUMPDEST CALLVALUE PUSH2 0x5E2 JUMPI PUSH1 0x20 CALLDATASIZE PUSH1 0x3 NOT ADD SLT PUSH2 0x5E2 JUMPI PUSH1 0x4 CALLDATALOAD PUSH2 0x27E1 PUSH2 0x75F2 JUMP JUMPDEST DUP1 PUSH1 0x0 MSTORE PUSH1 0x18 PUSH1 0x20 MSTORE PUSH2 0x27FA PUSH1 0x40 PUSH1 0x0 KECCAK256 SLOAD ISZERO ISZERO PUSH2 0x85A3 JUMP JUMPDEST DUP1 PUSH1 0x0 MSTORE PUSH1 0x18 PUSH1 0x20 MSTORE PUSH1 0x0 DUP1 MLOAD PUSH1 0x20 PUSH2 0x983B DUP4 CODECOPY DUP2 MLOAD SWAP2 MSTORE PUSH2 0x283D PUSH1 0x40 PUSH1 0x0 KECCAK256 PUSH1 0x2 DUP2 ADD PUSH1 0xFF NOT DUP2 SLOAD AND SWAP1 SSTORE PUSH1 0x40 MLOAD SWAP2 DUP3 SWAP2 PUSH1 0x40 DUP4 MSTORE PUSH1 0x1 PUSH1 0x40 DUP5 ADD SWAP2 ADD PUSH2 0x700F JUMP JUMPDEST PUSH1 0x0 PUSH1 0x20 DUP4 ADD MSTORE SUB SWAP1 LOG2 STOP JUMPDEST CALLVALUE PUSH2 0x5E2 JUMPI PUSH1 0x20 CALLDATASIZE PUSH1 0x3 NOT ADD SLT PUSH2 0x5E2 JUMPI PUSH2 0x286D PUSH2 0x2868 PUSH1 0x4 CALLDATALOAD PUSH2 0x79AD JUMP JUMPDEST PUSH2 0x764A JUMP JUMPDEST PUSH1 0x0 PUSH1 0x40 MLOAD PUSH2 0x287B DUP2 PUSH2 0x6E89 JUMP JUMPDEST MSTORE PUSH2 0x35E PUSH1 0x40 MLOAD PUSH2 0x288B DUP2 PUSH2 0x6E89 JUMP JUMPDEST PUSH1 0x0 DUP2 MSTORE PUSH1 0x40 MLOAD SWAP2 DUP3 SWAP2 PUSH1 0x20 DUP4 MSTORE PUSH1 0x20 DUP4 ADD SWAP1 PUSH2 0x6AAE JUMP JUMPDEST CALLVALUE PUSH2 0x5E2 JUMPI PUSH1 0x20 CALLDATASIZE PUSH1 0x3 NOT ADD SLT PUSH2 0x5E2 JUMPI PUSH1 0x1 PUSH1 0x1 PUSH1 0xA0 SHL SUB PUSH2 0x28C4 PUSH2 0x6D9D JUMP JUMPDEST AND PUSH1 0x0 MSTORE PUSH1 0x13 PUSH1 0x20 MSTORE PUSH1 0x20 PUSH1 0xFF PUSH1 0x40 PUSH1 0x0 KECCAK256 SLOAD AND PUSH1 0x40 MLOAD SWAP1 ISZERO ISZERO DUP2 MSTORE RETURN JUMPDEST CALLVALUE PUSH2 0x5E2 JUMPI PUSH1 0x40 CALLDATASIZE PUSH1 0x3 NOT ADD SLT PUSH2 0x5E2 JUMPI PUSH2 0x28FB PUSH2 0x6D9D JUMP JUMPDEST PUSH1 0x1 PUSH1 0x1 PUSH1 0xA0 SHL SUB AND PUSH1 0x0 SWAP1 DUP2 MSTORE PUSH1 0x16 PUSH1 0x20 MSTORE PUSH1 0x40 SWAP1 KECCAK256 DUP1 SLOAD PUSH1 0x24 CALLDATALOAD SWAP2 SWAP1 DUP3 LT ISZERO PUSH2 0x5E2 JUMPI PUSH1 0x20 SWAP2 PUSH2 0x292C SWAP2 PUSH2 0x7343 JUMP JUMPDEST SWAP1 SLOAD PUSH1 0x40 MLOAD SWAP2 PUSH1 0x3 SHL SHR DUP2 MSTORE RETURN JUMPDEST CALLVALUE PUSH2 0x5E2 JUMPI PUSH1 0x20 DUP1 PUSH1 0x3 NOT CALLDATASIZE ADD SLT PUSH2 0x5E2 JUMPI PUSH1 0x4 CALLDATALOAD PUSH2 0x2957 PUSH2 0x7F71 JUMP JUMPDEST POP DUP1 PUSH1 0x0 MSTORE PUSH1 0x15 DUP3 MSTORE PUSH2 0x2978 PUSH1 0xFF PUSH1 0xF PUSH1 0x40 PUSH1 0x0 KECCAK256 ADD SLOAD PUSH1 0x10 SHR AND ISZERO PUSH2 0x8304 JUMP JUMPDEST DUP1 PUSH1 0x0 MSTORE PUSH1 0x17 DUP3 MSTORE PUSH2 0x2991 PUSH1 0xFF PUSH1 0x40 PUSH1 0x0 KECCAK256 SLOAD AND PUSH2 0x82BF JUMP JUMPDEST PUSH1 0x0 MSTORE PUSH1 0x15 DUP2 MSTORE PUSH1 0x40 PUSH1 0x0 KECCAK256 SWAP1 PUSH1 0x40 MLOAD SWAP2 PUSH2 0x29AB DUP4 PUSH2 0x6DC9 JUMP JUMPDEST DUP1 SLOAD DUP4 MSTORE PUSH1 0x1 DUP1 DUP3 ADD SLOAD PUSH1 0x1 PUSH1 0x1 PUSH1 0xA0 SHL SUB AND DUP4 DUP6 ADD MSTORE PUSH1 0x40 MLOAD PUSH2 0x29D6 DUP2 PUSH2 0x3CE DUP2 PUSH1 0x2 DUP8 ADD PUSH2 0x700F JUMP JUMPDEST PUSH1 0x40 DUP6 ADD MSTORE PUSH1 0x40 MLOAD PUSH2 0x29EF DUP2 PUSH2 0x3CE DUP2 PUSH1 0x3 DUP8 ADD PUSH2 0x700F JUMP JUMPDEST PUSH1 0x60 DUP6 ADD MSTORE PUSH1 0x4 DUP3 ADD SLOAD PUSH1 0x80 DUP6 ADD MSTORE PUSH1 0x5 DUP3 ADD SLOAD PUSH1 0xA0 DUP6 ADD MSTORE PUSH1 0x10 PUSH1 0x6 SWAP3 PUSH2 0x2A18 DUP5 DUP3 ADD PUSH2 0x745A JUMP JUMPDEST PUSH1 0xC0 DUP8 ADD MSTORE PUSH2 0x2A29 PUSH1 0x7 DUP3 ADD PUSH2 0x745A JUMP JUMPDEST PUSH1 0xE0 DUP8 ADD MSTORE PUSH2 0x2A3A PUSH1 0x8 DUP3 ADD PUSH2 0x745A JUMP JUMPDEST PUSH2 0x100 DUP8 ADD MSTORE PUSH1 0x40 MLOAD PUSH2 0x2A54 DUP2 PUSH2 0x3CE DUP2 PUSH1 0x9 DUP7 ADD PUSH2 0x700F JUMP JUMPDEST PUSH2 0x120 DUP8 ADD MSTORE PUSH1 0x40 MLOAD PUSH2 0x2A6E DUP2 PUSH2 0x3CE DUP2 PUSH1 0xA DUP7 ADD PUSH2 0x700F JUMP JUMPDEST PUSH2 0x140 DUP8 ADD MSTORE PUSH1 0xB DUP2 ADD SLOAD PUSH2 0x160 DUP8 ADD MSTORE PUSH1 0x40 MLOAD PUSH2 0x2A93 DUP2 PUSH2 0x3CE DUP2 PUSH1 0xC DUP7 ADD PUSH2 0x700F JUMP JUMPDEST PUSH2 0x180 DUP8 ADD MSTORE PUSH1 0x40 MLOAD PUSH2 0x2AAD DUP2 PUSH2 0x3CE DUP2 PUSH1 0xD DUP7 ADD PUSH2 0x700F JUMP JUMPDEST PUSH2 0x1A0 DUP8 ADD MSTORE PUSH1 0xE DUP2 ADD SLOAD PUSH2 0x1C0 DUP8 ADD MSTORE PUSH1 0xFF PUSH1 0xF DUP3 ADD SLOAD DUP2 DUP2 AND ISZERO ISZERO PUSH2 0x1E0 DUP10 ADD MSTORE DUP2 DUP2 PUSH1 0x8 SHR AND ISZERO ISZERO PUSH2 0x200 DUP10 ADD MSTORE DUP4 SHR AND ISZERO ISZERO PUSH2 0x220 DUP8 ADD MSTORE ADD SWAP2 DUP3 SLOAD SWAP1 PUSH2 0x2AF7 DUP3 PUSH2 0x7443 JUMP JUMPDEST SWAP4 PUSH2 0x2B05 PUSH1 0x40 MLOAD SWAP6 DUP7 PUSH2 0x6EA4 JUMP JUMPDEST DUP3 DUP6 MSTORE PUSH1 0x0 SWAP1 DUP2 MSTORE DUP6 DUP2 KECCAK256 DUP7 DUP1 DUP8 ADD JUMPDEST DUP6 DUP5 LT PUSH2 0x2B37 JUMPI PUSH2 0x240 DUP11 ADD DUP9 SWAP1 MSTORE PUSH1 0x40 MLOAD DUP3 DUP2 MSTORE DUP1 PUSH2 0x35E DUP2 DUP6 ADD DUP14 PUSH2 0x6BEB JUMP JUMPDEST DUP7 SWAP2 DUP6 SWAP2 PUSH2 0x2B44 DUP6 PUSH2 0x841D JUMP JUMPDEST DUP2 MSTORE ADD SWAP3 ADD SWAP3 ADD SWAP2 SWAP1 DUP8 SWAP1 PUSH2 0x2B15 JUMP JUMPDEST CALLVALUE PUSH2 0x5E2 JUMPI PUSH1 0x20 CALLDATASIZE PUSH1 0x3 NOT ADD SLT PUSH2 0x5E2 JUMPI PUSH1 0x20 PUSH1 0x1 PUSH1 0x1 PUSH1 0xA0 SHL SUB DUP1 PUSH2 0x2B78 PUSH2 0x6D9D JUMP JUMPDEST AND PUSH1 0x0 MSTORE PUSH1 0x1E DUP3 MSTORE PUSH1 0x40 PUSH1 0x0 KECCAK256 SLOAD AND PUSH1 0x40 MLOAD SWAP1 DUP2 MSTORE RETURN JUMPDEST CALLVALUE PUSH2 0x5E2 JUMPI PUSH1 0x80 CALLDATASIZE PUSH1 0x3 NOT ADD SLT PUSH2 0x5E2 JUMPI PUSH2 0x2BA8 PUSH2 0x6D9D JUMP JUMPDEST PUSH2 0x2BB0 PUSH2 0x6DB3 JUMP JUMPDEST PUSH1 0x64 CALLDATALOAD SWAP2 PUSH1 0x1 PUSH1 0x1 PUSH1 0x40 SHL SUB DUP4 GT PUSH2 0x5E2 JUMPI CALLDATASIZE PUSH1 0x23 DUP5 ADD SLT ISZERO PUSH2 0x5E2 JUMPI PUSH2 0x2BE4 PUSH2 0x13AC SWAP4 CALLDATASIZE SWAP1 PUSH1 0x24 DUP2 PUSH1 0x4 ADD CALLDATALOAD SWAP2 ADD PUSH2 0x6EE2 JUMP JUMPDEST SWAP2 PUSH1 0x44 CALLDATALOAD SWAP2 PUSH2 0x773D JUMP JUMPDEST CALLVALUE PUSH2 0x5E2 JUMPI PUSH1 0x20 DUP1 PUSH1 0x3 NOT CALLDATASIZE ADD SLT PUSH2 0x5E2 JUMPI PUSH1 0x1 PUSH1 0x1 PUSH1 0xA0 SHL SUB SWAP1 DUP2 PUSH2 0x2C12 PUSH2 0x6D9D JUMP JUMPDEST AND PUSH1 0x0 MSTORE PUSH1 0x1B DUP2 MSTORE PUSH1 0x40 PUSH1 0x0 KECCAK256 DUP1 SLOAD SWAP1 PUSH2 0x2C2B DUP3 PUSH2 0x7443 JUMP JUMPDEST SWAP3 PUSH2 0x2C39 PUSH1 0x40 MLOAD SWAP5 DUP6 PUSH2 0x6EA4 JUMP JUMPDEST DUP3 DUP5 MSTORE PUSH1 0x0 SWAP2 DUP3 MSTORE DUP1 DUP3 KECCAK256 DUP2 DUP6 ADD JUMPDEST DUP5 DUP5 LT PUSH2 0x2C5D JUMPI PUSH1 0x40 MLOAD DUP1 PUSH2 0x35E DUP9 DUP3 PUSH2 0x71D5 JUMP JUMPDEST PUSH1 0x16 DUP4 PUSH1 0x1 SWAP3 PUSH1 0x40 MLOAD PUSH2 0x2C6F DUP2 PUSH2 0x6E1C JUMP JUMPDEST DUP6 SLOAD DUP2 MSTORE DUP5 DUP7 ADD SLOAD DUP4 DUP3 ADD MSTORE PUSH1 0x2 DUP7 ADD SLOAD PUSH1 0x40 DUP3 ADD MSTORE PUSH1 0x3 DUP7 ADD SLOAD PUSH1 0x60 DUP3 ADD MSTORE PUSH1 0x4 DUP7 ADD SLOAD PUSH1 0x80 DUP3 ADD MSTORE PUSH1 0xFF DUP12 PUSH1 0x5 DUP9 ADD SLOAD AND PUSH1 0xA0 SWAP1 DUP2 DUP5 ADD MSTORE PUSH1 0x6 DUP9 ADD SLOAD SWAP1 DUP14 DUP3 AND PUSH1 0xC0 DUP6 ADD MSTORE SHR AND ISZERO ISZERO PUSH1 0xE0 DUP3 ADD MSTORE PUSH2 0x2CCC PUSH1 0x7 DUP8 ADD PUSH2 0x7377 JUMP JUMPDEST PUSH2 0x100 DUP3 ADD MSTORE PUSH2 0x2CDE PUSH1 0xF DUP8 ADD PUSH2 0x74BF JUMP JUMPDEST PUSH2 0x120 DUP3 ADD MSTORE DUP2 MSTORE ADD SWAP3 ADD SWAP4 ADD SWAP3 SWAP1 PUSH2 0x2C48 JUMP JUMPDEST CALLVALUE PUSH2 0x5E2 JUMPI PUSH1 0x20 CALLDATASIZE PUSH1 0x3 NOT ADD SLT PUSH2 0x5E2 JUMPI PUSH1 0x4 CALLDATALOAD PUSH1 0x0 MSTORE PUSH1 0x17 PUSH1 0x20 MSTORE PUSH1 0x20 PUSH1 0xFF PUSH1 0x40 PUSH1 0x0 KECCAK256 SLOAD AND PUSH1 0x40 MLOAD SWAP1 ISZERO ISZERO DUP2 MSTORE RETURN JUMPDEST CALLVALUE PUSH2 0x5E2 JUMPI PUSH1 0x20 DUP1 PUSH1 0x3 NOT CALLDATASIZE ADD SLT PUSH2 0x5E2 JUMPI PUSH2 0x2E5B SWAP1 PUSH2 0x35E PUSH2 0x2D44 PUSH2 0x6D9D JUMP JUMPDEST PUSH2 0x2D4C PUSH2 0x7BD8 JUMP JUMPDEST POP PUSH1 0x1 DUP1 PUSH1 0xA0 SHL SUB AND SWAP2 DUP3 PUSH1 0x0 MSTORE PUSH1 0x13 DUP2 MSTORE PUSH2 0x2D6F PUSH1 0xFF PUSH1 0x40 PUSH1 0x0 KECCAK256 SLOAD AND PUSH2 0x7C0F JUMP JUMPDEST DUP3 PUSH1 0x0 MSTORE PUSH1 0x11 DUP2 MSTORE PUSH1 0x40 PUSH1 0x0 KECCAK256 SWAP3 PUSH1 0xFF PUSH1 0x6 PUSH1 0x40 MLOAD SWAP6 PUSH2 0x2D8E DUP8 PUSH2 0x6E01 JUMP JUMPDEST PUSH1 0x40 MLOAD PUSH2 0x2D9F DUP2 PUSH2 0x3CE DUP2 DUP6 PUSH2 0x700F JUMP JUMPDEST DUP8 MSTORE PUSH1 0x40 MLOAD PUSH2 0x2DB5 DUP2 PUSH2 0x3CE DUP2 PUSH1 0x1 DUP7 ADD PUSH2 0x700F JUMP JUMPDEST DUP6 DUP9 ADD MSTORE PUSH1 0x40 MLOAD PUSH2 0x2DCD DUP2 PUSH2 0x3CE DUP2 PUSH1 0x2 DUP7 ADD PUSH2 0x700F JUMP JUMPDEST PUSH1 0x40 DUP9 ADD MSTORE PUSH1 0x40 MLOAD PUSH2 0x2DE6 DUP2 PUSH2 0x3CE DUP2 PUSH1 0x3 DUP7 ADD PUSH2 0x700F JUMP JUMPDEST PUSH1 0x60 DUP9 ADD MSTORE PUSH1 0x40 MLOAD PUSH2 0x2DFF DUP2 PUSH2 0x3CE DUP2 PUSH1 0x4 DUP7 ADD PUSH2 0x700F JUMP JUMPDEST PUSH1 0x80 DUP9 ADD MSTORE PUSH1 0x5 DUP2 ADD SLOAD PUSH1 0xA0 DUP9 ADD MSTORE ADD SLOAD AND ISZERO ISZERO PUSH1 0xC0 DUP6 ADD MSTORE PUSH1 0x0 MSTORE PUSH1 0x12 DUP2 MSTORE PUSH1 0xFF PUSH1 0x40 PUSH1 0x0 KECCAK256 SLOAD AND PUSH1 0x1A DUP3 MSTORE PUSH1 0x40 PUSH1 0x0 KECCAK256 SLOAD PUSH1 0x16 DUP4 MSTORE PUSH2 0x2E64 PUSH2 0x2E46 PUSH1 0x40 PUSH1 0x0 KECCAK256 PUSH2 0x8652 JUMP JUMPDEST SWAP3 PUSH1 0x40 MLOAD SWAP8 DUP9 SWAP8 PUSH1 0x80 DUP10 MSTORE PUSH1 0x80 DUP10 ADD SWAP1 PUSH2 0x72B6 JUMP JUMPDEST SWAP5 DUP8 ADD SWAP1 PUSH2 0x7336 JUMP JUMPDEST PUSH1 0x40 DUP6 ADD MSTORE DUP4 DUP3 SUB PUSH1 0x60 DUP6 ADD MSTORE PUSH2 0x75BE JUMP JUMPDEST CALLVALUE PUSH2 0x5E2 JUMPI PUSH1 0x20 CALLDATASIZE PUSH1 0x3 NOT ADD SLT PUSH2 0x5E2 JUMPI PUSH2 0x2E8F PUSH2 0x6D9D JUMP JUMPDEST PUSH2 0x2E97 PUSH2 0x75F2 JUMP JUMPDEST PUSH1 0x1 PUSH1 0x1 PUSH1 0xA0 SHL SUB AND DUP1 ISZERO PUSH2 0x2EE2 JUMPI PUSH1 0x40 PUSH1 0x0 DUP1 MLOAD PUSH1 0x20 PUSH2 0x97FB DUP4 CODECOPY DUP2 MLOAD SWAP2 MSTORE SWAP2 CALLER PUSH1 0x0 MSTORE PUSH1 0x1E PUSH1 0x20 MSTORE DUP2 PUSH1 0x0 KECCAK256 DUP2 PUSH1 0x1 DUP1 PUSH1 0xA0 SHL SUB NOT DUP3 SLOAD AND OR SWAP1 SSTORE DUP2 MLOAD SWAP1 CALLER DUP3 MSTORE PUSH1 0x20 DUP3 ADD MSTORE LOG1 STOP JUMPDEST PUSH1 0x40 MLOAD PUSH3 0x461BCD PUSH1 0xE5 SHL DUP2 MSTORE PUSH1 0x20 PUSH1 0x4 DUP3 ADD MSTORE PUSH1 0x17 PUSH1 0x24 DUP3 ADD MSTORE PUSH23 0x496E76616C6964206163636F756E742061646472657373 PUSH1 0x48 SHL PUSH1 0x44 DUP3 ADD MSTORE PUSH1 0x64 SWAP1 REVERT JUMPDEST CALLVALUE PUSH2 0x5E2 JUMPI PUSH1 0x40 CALLDATASIZE PUSH1 0x3 NOT ADD SLT PUSH2 0x5E2 JUMPI PUSH2 0x2F3A PUSH2 0x6D9D JUMP JUMPDEST PUSH1 0x24 CALLDATALOAD SWAP1 DUP2 ISZERO ISZERO SWAP1 DUP2 DUP4 SUB PUSH2 0x5E2 JUMPI PUSH1 0x1 PUSH1 0x1 PUSH1 0xA0 SHL SUB AND SWAP2 CALLER DUP4 EQ PUSH2 0x2FAB JUMPI PUSH2 0x2F7D SWAP1 CALLER PUSH1 0x0 MSTORE PUSH1 0x7 PUSH1 0x20 MSTORE PUSH1 0x40 PUSH1 0x0 KECCAK256 DUP5 PUSH1 0x0 MSTORE PUSH1 0x20 MSTORE PUSH1 0x40 PUSH1 0x0 KECCAK256 PUSH2 0x799C JUMP JUMPDEST PUSH1 0x40 MLOAD SWAP1 DUP2 MSTORE PUSH32 0x17307EAB39AB6107E8899845AD3D59BD9653F200F220920489CA2B5937696C31 PUSH1 0x20 CALLER SWAP3 LOG3 STOP JUMPDEST PUSH1 0x40 MLOAD PUSH3 0x461BCD PUSH1 0xE5 SHL DUP2 MSTORE PUSH1 0x20 PUSH1 0x4 DUP3 ADD MSTORE PUSH1 0x19 PUSH1 0x24 DUP3 ADD MSTORE PUSH25 0x22A9219B99189D1030B8383937BB32903A379031B0B63632B9 PUSH1 0x39 SHL PUSH1 0x44 DUP3 ADD MSTORE PUSH1 0x64 SWAP1 REVERT JUMPDEST CALLVALUE PUSH2 0x5E2 JUMPI PUSH1 0x40 CALLDATASIZE PUSH1 0x3 NOT ADD SLT PUSH2 0x5E2 JUMPI PUSH2 0x3005 PUSH2 0x6D9D JUMP JUMPDEST PUSH1 0x1 PUSH1 0x1 PUSH1 0xA0 SHL SUB SWAP1 DUP2 AND PUSH1 0x0 SWAP1 DUP2 MSTORE PUSH1 0x1B PUSH1 0x20 MSTORE PUSH1 0x40 SWAP1 KECCAK256 DUP1 SLOAD PUSH1 0x24 CALLDATALOAD SWAP1 DUP2 LT ISZERO PUSH2 0x5E2 JUMPI PUSH2 0xC1A SWAP2 PUSH2 0x735B JUMP JUMPDEST CALLVALUE PUSH2 0x5E2 JUMPI PUSH1 0x20 DUP1 PUSH1 0x3 NOT CALLDATASIZE ADD SLT PUSH2 0x5E2 JUMPI PUSH1 0x4 CALLDATALOAD DUP1 PUSH1 0x0 MSTORE PUSH1 0x15 SWAP1 DUP2 DUP4 MSTORE PUSH1 0xFF PUSH1 0xF PUSH1 0x40 PUSH1 0x0 KECCAK256 ADD SLOAD SWAP2 PUSH2 0x306F DUP3 PUSH1 0x10 SWAP5 DUP6 SHR AND ISZERO PUSH2 0x8304 JUMP JUMPDEST DUP1 PUSH1 0x0 MSTORE PUSH1 0x17 DUP6 MSTORE PUSH2 0x3087 DUP3 PUSH1 0x40 PUSH1 0x0 KECCAK256 SLOAD AND PUSH2 0x82BF JUMP JUMPDEST PUSH1 0x0 SWAP3 PUSH1 0x0 JUMPDEST DUP3 PUSH1 0x0 MSTORE DUP6 DUP8 MSTORE DUP2 PUSH1 0x40 PUSH1 0x0 KECCAK256 ADD DUP1 SLOAD DUP3 LT ISZERO PUSH2 0x30DE JUMPI PUSH1 0x4 PUSH2 0x30B1 DUP4 DUP8 SWAP4 PUSH2 0x86FC JUMP JUMPDEST POP ADD SLOAD AND ISZERO PUSH2 0x30C9 JUMPI JUMPDEST PUSH2 0x30C4 SWAP1 PUSH2 0x847E JUMP JUMPDEST PUSH2 0x308D JUMP JUMPDEST SWAP4 PUSH2 0x30D6 PUSH2 0x30C4 SWAP2 PUSH2 0x847E JUMP JUMPDEST SWAP5 SWAP1 POP PUSH2 0x30BB JUMP JUMPDEST POP POP DUP5 DUP7 PUSH2 0x30EB DUP7 PUSH2 0x7443 JUMP JUMPDEST SWAP6 PUSH2 0x30F9 PUSH1 0x40 MLOAD SWAP8 DUP9 PUSH2 0x6EA4 JUMP JUMPDEST DUP1 DUP8 MSTORE PUSH2 0x3108 PUSH1 0x1F NOT SWAP2 PUSH2 0x7443 JUMP JUMPDEST ADD DUP2 PUSH1 0x0 JUMPDEST DUP3 DUP2 LT PUSH2 0x31B1 JUMPI POP POP POP PUSH1 0x0 SWAP4 PUSH1 0x0 JUMPDEST DUP2 PUSH1 0x0 MSTORE DUP4 DUP4 MSTORE DUP5 PUSH1 0x40 PUSH1 0x0 KECCAK256 ADD DUP1 SLOAD DUP3 LT ISZERO PUSH2 0x319E JUMPI PUSH1 0x4 PUSH2 0x3141 DUP4 DUP11 SWAP4 PUSH2 0x86FC JUMP JUMPDEST POP ADD SLOAD AND ISZERO PUSH2 0x3159 JUMPI JUMPDEST PUSH2 0x3154 SWAP1 PUSH2 0x847E JUMP JUMPDEST PUSH2 0x311D JUMP JUMPDEST SWAP5 PUSH2 0x3196 PUSH2 0x3154 SWAP2 DUP4 PUSH1 0x0 MSTORE DUP6 DUP6 MSTORE PUSH2 0x3181 PUSH2 0x317B DUP10 DUP10 PUSH1 0x40 PUSH1 0x0 KECCAK256 ADD PUSH2 0x86FC JUMP JUMPDEST POP PUSH2 0x841D JUMP JUMPDEST PUSH2 0x318B DUP3 DUP13 PUSH2 0x84DD JUMP JUMPDEST MSTORE PUSH2 0x544 DUP2 DUP12 PUSH2 0x84DD JUMP JUMPDEST SWAP6 SWAP1 POP PUSH2 0x314B JUMP JUMPDEST PUSH1 0x40 MLOAD DUP5 DUP2 MSTORE DUP1 PUSH2 0x35E DUP2 DUP8 ADD DUP13 PUSH2 0x6B4A JUMP JUMPDEST PUSH2 0x31B9 PUSH2 0x86CB JUMP JUMPDEST DUP3 DUP3 DUP12 ADD ADD MSTORE ADD DUP3 SWAP1 PUSH2 0x310D JUMP JUMPDEST CALLVALUE PUSH2 0x5E2 JUMPI PUSH1 0x40 CALLDATASIZE PUSH1 0x3 NOT ADD SLT PUSH2 0x5E2 JUMPI PUSH2 0x31E0 PUSH2 0x6D9D JUMP JUMPDEST PUSH1 0x24 CALLDATALOAD SWAP1 PUSH1 0x4 DUP3 LT ISZERO PUSH2 0x5E2 JUMPI PUSH2 0x31F5 PUSH2 0x75F2 JUMP JUMPDEST PUSH1 0x1 DUP1 PUSH1 0xA0 SHL SUB AND SWAP1 DUP2 PUSH1 0x0 MSTORE PUSH1 0x20 SWAP1 PUSH1 0x13 DUP3 MSTORE PUSH2 0x321A PUSH1 0xFF PUSH1 0x40 PUSH1 0x0 KECCAK256 SLOAD AND PUSH2 0x7C0F JUMP JUMPDEST DUP1 ISZERO PUSH2 0x32C0 JUMPI DUP3 PUSH1 0x0 MSTORE PUSH1 0x12 DUP3 MSTORE PUSH1 0xFF PUSH1 0x40 PUSH1 0x0 KECCAK256 SLOAD AND PUSH1 0x4 DUP2 LT ISZERO PUSH2 0x1B24 JUMPI DUP2 EQ PUSH2 0x327B JUMPI SWAP1 PUSH1 0x0 DUP1 MLOAD PUSH1 0x20 PUSH2 0x987B DUP4 CODECOPY DUP2 MLOAD SWAP2 MSTORE SWAP2 DUP4 PUSH1 0x0 MSTORE PUSH1 0x12 DUP3 MSTORE PUSH1 0x40 PUSH1 0x0 KECCAK256 PUSH1 0xFF NOT DUP2 SLOAD AND PUSH1 0xFF DUP4 AND OR SWAP1 SSTORE PUSH2 0x3278 PUSH1 0x40 MLOAD DUP1 SWAP3 PUSH2 0x7336 JUMP JUMPDEST LOG2 STOP JUMPDEST PUSH1 0x40 MLOAD PUSH3 0x461BCD PUSH1 0xE5 SHL DUP2 MSTORE PUSH1 0x4 DUP2 ADD DUP4 SWAP1 MSTORE PUSH1 0x1E PUSH1 0x24 DUP3 ADD MSTORE PUSH32 0x53656C6C657220616C7265616479206861732074686973207374617475730000 PUSH1 0x44 DUP3 ADD MSTORE PUSH1 0x64 SWAP1 REVERT JUMPDEST PUSH1 0x40 MLOAD PUSH3 0x461BCD PUSH1 0xE5 SHL DUP2 MSTORE PUSH1 0x4 DUP2 ADD DUP4 SWAP1 MSTORE PUSH1 0x1F PUSH1 0x24 DUP3 ADD MSTORE PUSH32 0x43616E6E6F74207365742073746174757320746F20556E766572696669656400 PUSH1 0x44 DUP3 ADD MSTORE PUSH1 0x64 SWAP1 REVERT JUMPDEST CALLVALUE PUSH2 0x5E2 JUMPI PUSH1 0x0 CALLDATASIZE PUSH1 0x3 NOT ADD SLT PUSH2 0x5E2 JUMPI PUSH1 0x40 MLOAD PUSH1 0x0 SWAP1 PUSH1 0x3 SLOAD PUSH2 0x3328 DUP2 PUSH2 0x6FD5 JUMP JUMPDEST DUP1 DUP4 MSTORE PUSH1 0x1 SWAP2 DUP1 DUP4 AND SWAP1 DUP2 ISZERO PUSH2 0x33BF JUMPI POP PUSH1 0x1 EQ PUSH2 0x3365 JUMPI JUMPDEST PUSH2 0x35E DUP4 PUSH2 0x3351 DUP2 DUP8 SUB DUP3 PUSH2 0x6EA4 JUMP JUMPDEST PUSH1 0x40 MLOAD SWAP2 DUP3 SWAP2 PUSH1 0x20 DUP4 MSTORE PUSH1 0x20 DUP4 ADD SWAP1 PUSH2 0x6AAE JUMP JUMPDEST PUSH1 0x3 PUSH1 0x0 SWAP1 DUP2 MSTORE PUSH1 0x20 SWAP5 POP SWAP2 PUSH32 0xC2575A0E9E593C00F959F8C92F12DB2869C3395A3B0502D05E2516446F71F85B JUMPDEST DUP3 DUP5 LT PUSH2 0x33AC JUMPI POP POP POP DUP2 ADD SWAP1 SWAP2 ADD SWAP1 PUSH2 0x3351 DUP2 PUSH2 0x3341 JUMP JUMPDEST DUP1 SLOAD DUP6 DUP6 ADD DUP8 ADD MSTORE SWAP3 DUP6 ADD SWAP3 DUP2 ADD PUSH2 0x3393 JUMP JUMPDEST PUSH2 0x35E SWAP6 POP PUSH2 0x3351 SWAP4 POP PUSH1 0x20 SWAP2 POP SWAP2 DUP5 SWAP3 PUSH1 0xFF NOT AND DUP3 DUP5 ADD MSTORE ISZERO ISZERO PUSH1 0x5 SHL DUP3 ADD ADD SWAP4 POP PUSH2 0x3341 JUMP JUMPDEST CALLVALUE PUSH2 0x5E2 JUMPI PUSH1 0x20 CALLDATASIZE PUSH1 0x3 NOT ADD SLT PUSH2 0x5E2 JUMPI PUSH1 0x1 PUSH1 0x1 PUSH1 0xA0 SHL SUB PUSH2 0x3408 PUSH2 0x6D9D JUMP JUMPDEST AND PUSH1 0x0 MSTORE PUSH1 0x11 PUSH1 0x20 MSTORE PUSH2 0x34B8 PUSH1 0x40 PUSH1 0x0 KECCAK256 PUSH1 0x40 MLOAD SWAP1 PUSH2 0x3432 DUP3 PUSH2 0x342B DUP2 DUP5 PUSH2 0x700F JUMP JUMPDEST SUB DUP4 PUSH2 0x6EA4 JUMP JUMPDEST PUSH1 0x40 MLOAD PUSH2 0x3446 DUP2 PUSH2 0x3CE DUP2 PUSH1 0x1 DUP7 ADD PUSH2 0x700F JUMP JUMPDEST PUSH2 0x34F0 PUSH1 0x40 MLOAD PUSH2 0x345D DUP2 PUSH2 0x3CE DUP2 PUSH1 0x2 DUP9 ADD PUSH2 0x700F JUMP JUMPDEST PUSH2 0x34E2 PUSH1 0x40 MLOAD PUSH2 0x3474 DUP2 PUSH2 0x3CE DUP2 PUSH1 0x3 DUP11 ADD PUSH2 0x700F JUMP JUMPDEST PUSH2 0x34D4 PUSH1 0x40 MLOAD SWAP4 PUSH2 0x3493 DUP6 PUSH2 0x348C DUP2 PUSH1 0x4 DUP13 ADD PUSH2 0x700F JUMP JUMPDEST SUB DUP7 PUSH2 0x6EA4 JUMP JUMPDEST PUSH2 0x34C6 PUSH1 0xFF PUSH1 0x6 PUSH1 0x5 DUP12 ADD SLOAD SWAP11 ADD SLOAD AND SWAP8 PUSH1 0x40 MLOAD SWAP12 DUP13 SWAP12 PUSH1 0xE0 DUP14 MSTORE PUSH1 0xE0 DUP14 ADD SWAP1 PUSH2 0x6AAE JUMP JUMPDEST SWAP1 DUP12 DUP3 SUB PUSH1 0x20 DUP14 ADD MSTORE PUSH2 0x6AAE JUMP JUMPDEST SWAP1 DUP10 DUP3 SUB PUSH1 0x40 DUP12 ADD MSTORE PUSH2 0x6AAE JUMP JUMPDEST SWAP1 DUP8 DUP3 SUB PUSH1 0x60 DUP10 ADD MSTORE PUSH2 0x6AAE JUMP JUMPDEST SWAP1 DUP6 DUP3 SUB PUSH1 0x80 DUP8 ADD MSTORE PUSH2 0x6AAE JUMP JUMPDEST SWAP2 PUSH1 0xA0 DUP5 ADD MSTORE ISZERO ISZERO PUSH1 0xC0 DUP4 ADD MSTORE SUB SWAP1 RETURN JUMPDEST CALLVALUE PUSH2 0x5E2 JUMPI PUSH1 0x20 CALLDATASIZE PUSH1 0x3 NOT ADD SLT PUSH2 0x5E2 JUMPI PUSH1 0x4 CALLDATALOAD PUSH1 0x1 PUSH1 0x1 PUSH1 0x40 SHL SUB DUP2 GT PUSH2 0x5E2 JUMPI PUSH2 0x3531 SWAP1 CALLDATASIZE SWAP1 PUSH1 0x4 ADD PUSH2 0x6F19 JUMP JUMPDEST PUSH1 0x8 SLOAD PUSH1 0x0 PUSH1 0x1 JUMPDEST DUP3 DUP2 GT ISZERO PUSH2 0x37A5 JUMPI POP PUSH2 0x354B SWAP1 PUSH2 0x848D JUMP JUMPDEST SWAP1 PUSH1 0x1 PUSH1 0x0 JUMPDEST DUP3 DUP3 GT ISZERO PUSH2 0x3567 JUMPI PUSH1 0x40 MLOAD DUP1 PUSH2 0x35E DUP7 DUP3 PUSH2 0x6D3B JUMP JUMPDEST DUP2 PUSH1 0x0 MSTORE PUSH1 0x15 DUP1 PUSH1 0x20 MSTORE PUSH1 0x9 SWAP1 PUSH2 0x3CE PUSH2 0x358D DUP4 PUSH1 0x40 PUSH1 0x0 KECCAK256 ADD PUSH1 0x40 MLOAD SWAP3 DUP4 DUP1 SWAP3 PUSH2 0x700F JUMP JUMPDEST PUSH1 0x20 DUP2 MLOAD SWAP2 ADD KECCAK256 DUP8 MLOAD PUSH1 0x20 DUP10 ADD KECCAK256 EQ DUP1 PUSH2 0x3787 JUMPI JUMPDEST PUSH2 0x35B9 JUMPI JUMPDEST POP POP SWAP1 PUSH2 0x35B3 SWAP1 PUSH2 0x847E JUMP JUMPDEST SWAP1 PUSH2 0x3551 JUMP JUMPDEST DUP4 PUSH1 0x0 MSTORE PUSH1 0x20 MSTORE PUSH1 0x40 PUSH1 0x0 KECCAK256 PUSH2 0x3CE PUSH2 0x3677 PUSH1 0x40 MLOAD SWAP4 PUSH2 0x35D8 DUP6 PUSH2 0x6DC9 JUMP JUMPDEST DUP4 SLOAD DUP6 MSTORE PUSH1 0x1 DUP5 ADD SLOAD PUSH1 0x1 PUSH1 0x1 PUSH1 0xA0 SHL SUB AND PUSH1 0x20 DUP7 ADD MSTORE PUSH1 0x40 MLOAD PUSH2 0x3603 DUP2 PUSH2 0x3CE DUP2 PUSH1 0x2 DUP10 ADD PUSH2 0x700F JUMP JUMPDEST PUSH1 0x40 DUP7 ADD MSTORE PUSH1 0x40 MLOAD PUSH2 0x361C DUP2 PUSH2 0x3CE DUP2 PUSH1 0x3 DUP10 ADD PUSH2 0x700F JUMP JUMPDEST PUSH1 0x60 DUP7 ADD MSTORE PUSH1 0x4 DUP5 ADD SLOAD PUSH1 0x80 DUP7 ADD MSTORE PUSH1 0x5 DUP5 ADD SLOAD PUSH1 0xA0 DUP7 ADD MSTORE PUSH2 0x3641 PUSH1 0x6 DUP6 ADD PUSH2 0x745A JUMP JUMPDEST PUSH1 0xC0 DUP7 ADD MSTORE PUSH2 0x3652 PUSH1 0x7 DUP6 ADD PUSH2 0x745A JUMP JUMPDEST PUSH1 0xE0 DUP7 ADD MSTORE PUSH2 0x3663 PUSH1 0x8 DUP6 ADD PUSH2 0x745A JUMP JUMPDEST PUSH2 0x100 DUP7 ADD MSTORE PUSH1 0x40 MLOAD SWAP3 DUP4 DUP1 SWAP3 DUP7 ADD PUSH2 0x700F JUMP JUMPDEST PUSH2 0x120 DUP4 ADD MSTORE PUSH1 0x40 MLOAD PUSH2 0x3691 DUP2 PUSH2 0x3CE DUP2 PUSH1 0xA DUP7 ADD PUSH2 0x700F JUMP JUMPDEST PUSH2 0x140 DUP4 ADD MSTORE PUSH1 0xB DUP2 ADD SLOAD PUSH2 0x160 DUP4 ADD MSTORE PUSH1 0x40 MLOAD PUSH2 0x36B6 DUP2 PUSH2 0x3CE DUP2 PUSH1 0xC DUP7 ADD PUSH2 0x700F JUMP JUMPDEST PUSH2 0x180 DUP4 ADD MSTORE PUSH1 0x40 MLOAD PUSH2 0x36D0 DUP2 PUSH2 0x3CE DUP2 PUSH1 0xD DUP7 ADD PUSH2 0x700F JUMP JUMPDEST PUSH2 0x1A0 DUP4 ADD MSTORE PUSH1 0xE DUP2 ADD SLOAD PUSH2 0x1C0 DUP4 ADD MSTORE PUSH1 0xF DUP2 ADD SLOAD SWAP1 PUSH1 0xFF DUP1 DUP4 AND ISZERO ISZERO PUSH2 0x1E0 DUP6 ADD MSTORE DUP1 DUP4 PUSH1 0x8 SHR AND ISZERO ISZERO PUSH2 0x200 DUP6 ADD MSTORE PUSH1 0x10 SWAP3 DUP4 SHR AND ISZERO ISZERO PUSH2 0x220 DUP5 ADD MSTORE ADD DUP1 SLOAD SWAP1 PUSH2 0x371D DUP3 PUSH2 0x7443 JUMP JUMPDEST SWAP2 PUSH2 0x372B PUSH1 0x40 MLOAD SWAP4 DUP5 PUSH2 0x6EA4 JUMP JUMPDEST DUP1 DUP4 MSTORE PUSH1 0x20 DUP4 ADD SWAP2 PUSH1 0x0 MSTORE PUSH1 0x20 PUSH1 0x0 KECCAK256 PUSH1 0x0 SWAP3 JUMPDEST DUP3 DUP5 LT PUSH2 0x3769 JUMPI POP POP POP POP PUSH2 0x240 DUP3 ADD MSTORE PUSH2 0x35B3 SWAP2 PUSH2 0x3762 SWAP2 PUSH2 0x539 DUP3 DUP9 PUSH2 0x84DD JUMP JUMPDEST SWAP1 DUP7 PUSH2 0x35A7 JUMP JUMPDEST PUSH1 0x6 PUSH1 0x20 PUSH1 0x1 SWAP3 PUSH2 0x3779 DUP6 PUSH2 0x841D JUMP JUMPDEST DUP2 MSTORE ADD SWAP3 ADD SWAP4 ADD SWAP3 SWAP1 PUSH2 0x373F JUMP JUMPDEST POP DUP4 PUSH1 0x0 MSTORE DUP1 PUSH1 0x20 MSTORE PUSH1 0xFF PUSH1 0xF PUSH1 0x40 PUSH1 0x0 KECCAK256 ADD SLOAD PUSH1 0x10 SHR AND ISZERO PUSH2 0x35A2 JUMP JUMPDEST DUP1 PUSH1 0x0 MSTORE PUSH1 0x15 DUP1 PUSH1 0x20 MSTORE PUSH2 0x3CE PUSH2 0x37C9 PUSH1 0x9 PUSH1 0x40 PUSH1 0x0 KECCAK256 ADD PUSH1 0x40 MLOAD SWAP3 DUP4 DUP1 SWAP3 PUSH2 0x700F JUMP JUMPDEST PUSH1 0x20 DUP2 MLOAD SWAP2 ADD KECCAK256 DUP6 MLOAD PUSH1 0x20 DUP8 ADD KECCAK256 EQ SWAP1 DUP2 PUSH2 0x3808 JUMPI JUMPDEST POP PUSH2 0x37F3 JUMPI JUMPDEST PUSH2 0x37EE SWAP1 PUSH2 0x847E JUMP JUMPDEST PUSH2 0x3539 JUMP JUMPDEST SWAP1 PUSH2 0x3800 PUSH2 0x37EE SWAP2 PUSH2 0x847E JUMP JUMPDEST SWAP2 SWAP1 POP PUSH2 0x37E5 JUMP JUMPDEST SWAP1 POP DUP2 PUSH1 0x0 MSTORE PUSH1 0x20 MSTORE PUSH1 0xFF PUSH1 0xF PUSH1 0x40 PUSH1 0x0 KECCAK256 ADD SLOAD PUSH1 0x10 SHR AND ISZERO DUP6 PUSH2 0x37DF JUMP JUMPDEST CALLVALUE PUSH2 0x5E2 JUMPI PUSH1 0x0 CALLDATASIZE PUSH1 0x3 NOT ADD SLT PUSH2 0x5E2 JUMPI PUSH1 0x0 SLOAD PUSH1 0x40 MLOAD PUSH1 0x1 PUSH1 0x1 PUSH1 0xA0 SHL SUB SWAP1 SWAP2 AND DUP2 MSTORE PUSH1 0x20 SWAP1 RETURN JUMPDEST CALLVALUE PUSH2 0x5E2 JUMPI PUSH1 0x3 NOT PUSH1 0x40 CALLDATASIZE DUP3 ADD SLT PUSH2 0x5E2 JUMPI PUSH1 0x1 PUSH1 0x1 PUSH1 0x40 SHL SUB PUSH1 0x24 CALLDATALOAD GT PUSH2 0x5E2 JUMPI PUSH2 0x1A0 SWAP1 PUSH1 0x24 CALLDATALOAD CALLDATASIZE SUB ADD SLT PUSH2 0x5E2 JUMPI PUSH1 0x4 CALLDATALOAD PUSH1 0x0 SWAP1 DUP2 MSTORE PUSH1 0x15 PUSH1 0x20 MSTORE PUSH1 0x40 SWAP1 KECCAK256 PUSH1 0x1 ADD SLOAD PUSH1 0x1 PUSH1 0x1 PUSH1 0xA0 SHL SUB AND CALLER SUB PUSH2 0x430A JUMPI PUSH1 0x4 CALLDATALOAD PUSH1 0x0 MSTORE PUSH1 0x17 PUSH1 0x20 MSTORE PUSH2 0x38C1 PUSH1 0xFF PUSH1 0x40 PUSH1 0x0 KECCAK256 SLOAD AND PUSH2 0x82BF JUMP JUMPDEST PUSH1 0x4 CALLDATALOAD PUSH1 0x0 MSTORE PUSH1 0x15 PUSH1 0x20 MSTORE PUSH2 0x38E4 PUSH1 0xFF PUSH1 0xF PUSH1 0x40 PUSH1 0x0 KECCAK256 ADD SLOAD PUSH1 0x10 SHR AND ISZERO PUSH2 0x8304 JUMP JUMPDEST PUSH2 0x38F6 PUSH2 0xCE1 PUSH1 0x4 PUSH1 0x24 CALLDATALOAD ADD DUP1 PUSH2 0x7CC7 JUMP JUMPDEST PUSH2 0x3909 PUSH1 0x24 DUP1 CALLDATALOAD ADD PUSH1 0x24 CALLDATALOAD PUSH1 0x4 ADD PUSH2 0x7CC7 JUMP JUMPDEST SWAP1 POP ISZERO PUSH2 0x42C7 JUMPI PUSH2 0x3921 PUSH1 0x44 PUSH1 0x24 CALLDATALOAD ADD CALLDATALOAD ISZERO ISZERO PUSH2 0x7CF9 JUMP JUMPDEST PUSH2 0x3932 PUSH1 0x64 PUSH1 0x24 CALLDATALOAD ADD CALLDATALOAD ISZERO ISZERO PUSH2 0x7D44 JUMP JUMPDEST PUSH2 0x3946 PUSH1 0x84 PUSH1 0x24 CALLDATALOAD ADD PUSH1 0x24 CALLDATALOAD PUSH1 0x4 ADD PUSH2 0x7EAC JUMP JUMPDEST SWAP1 POP ISZERO PUSH2 0x4289 JUMPI PUSH2 0x3961 PUSH1 0xA4 PUSH1 0x24 CALLDATALOAD ADD PUSH1 0x24 CALLDATALOAD PUSH1 0x4 ADD PUSH2 0x7EAC JUMP JUMPDEST SWAP1 POP ISZERO PUSH2 0x424C JUMPI PUSH2 0x397F PUSH2 0xDA2 PUSH1 0xC4 PUSH1 0x24 CALLDATALOAD ADD PUSH1 0x24 CALLDATALOAD PUSH1 0x4 ADD PUSH2 0x7EAC JUMP JUMPDEST PUSH2 0x3998 PUSH1 0x5 PUSH2 0xDC4 PUSH1 0xC4 PUSH1 0x24 CALLDATALOAD ADD PUSH1 0x24 CALLDATALOAD PUSH1 0x4 ADD PUSH2 0x7EAC JUMP JUMPDEST PUSH1 0xE4 PUSH1 0x24 CALLDATALOAD ADD CALLDATALOAD ISZERO PUSH2 0x420C JUMPI PUSH2 0x104 PUSH1 0x24 CALLDATALOAD ADD CALLDATALOAD ISZERO PUSH2 0x41C8 JUMPI PUSH2 0x39C9 PUSH2 0xD4F PUSH2 0x144 PUSH1 0x24 CALLDATALOAD ADD PUSH1 0x24 CALLDATALOAD PUSH1 0x4 ADD PUSH2 0x7CC7 JUMP JUMPDEST PUSH2 0x39E1 PUSH2 0xD70 PUSH2 0x164 PUSH1 0x24 CALLDATALOAD ADD PUSH1 0x24 CALLDATALOAD PUSH1 0x4 ADD PUSH2 0x7CC7 JUMP JUMPDEST PUSH2 0x39F3 PUSH2 0x124 PUSH1 0x24 CALLDATALOAD ADD CALLDATALOAD ISZERO ISZERO PUSH2 0x7D8F JUMP JUMPDEST PUSH2 0x3A05 PUSH2 0x184 PUSH1 0x24 CALLDATALOAD ADD CALLDATALOAD ISZERO ISZERO PUSH2 0x7E63 JUMP JUMPDEST PUSH2 0x3A14 PUSH1 0x4 PUSH1 0x24 CALLDATALOAD ADD DUP1 PUSH2 0x7CC7 JUMP JUMPDEST PUSH1 0x4 CALLDATALOAD PUSH1 0x0 SWAP1 DUP2 MSTORE PUSH1 0x15 PUSH1 0x20 MSTORE PUSH1 0x40 SWAP1 KECCAK256 PUSH1 0x2 ADD SWAP1 PUSH1 0x1 PUSH1 0x1 PUSH1 0x40 SHL SUB DUP2 GT PUSH2 0x144F JUMPI PUSH2 0x3A4B DUP2 PUSH2 0x3A45 DUP5 SLOAD PUSH2 0x6FD5 JUMP JUMPDEST DUP5 PUSH2 0x7B91 JUMP JUMPDEST PUSH1 0x0 SWAP3 PUSH1 0x1F DUP3 GT PUSH1 0x1 EQ PUSH2 0x415F JUMPI SWAP3 DUP2 SWAP3 SWAP4 PUSH1 0x0 SWAP3 PUSH2 0x4154 JUMPI JUMPDEST POP POP DUP2 PUSH1 0x1 SHL SWAP2 PUSH1 0x0 NOT SWAP1 PUSH1 0x3 SHL SHR NOT AND OR SWAP1 SSTORE JUMPDEST PUSH2 0x3A8D PUSH1 0x24 DUP1 CALLDATALOAD ADD PUSH1 0x24 CALLDATALOAD PUSH1 0x4 ADD PUSH2 0x7CC7 JUMP JUMPDEST PUSH1 0x4 CALLDATALOAD PUSH1 0x0 SWAP1 DUP2 MSTORE PUSH1 0x15 PUSH1 0x20 MSTORE PUSH1 0x40 SWAP1 KECCAK256 PUSH1 0x3 ADD SWAP1 PUSH1 0x1 PUSH1 0x1 PUSH1 0x40 SHL SUB DUP2 GT PUSH2 0x144F JUMPI PUSH2 0x3ABE DUP2 PUSH2 0x3A45 DUP5 SLOAD PUSH2 0x6FD5 JUMP JUMPDEST PUSH1 0x0 SWAP3 PUSH1 0x1F DUP3 GT PUSH1 0x1 EQ PUSH2 0x40EB JUMPI SWAP3 DUP2 SWAP3 SWAP4 PUSH1 0x0 SWAP3 PUSH2 0x40E0 JUMPI JUMPDEST POP POP DUP2 PUSH1 0x1 SHL SWAP2 PUSH1 0x0 NOT SWAP1 PUSH1 0x3 SHL SHR NOT AND OR SWAP1 SSTORE JUMPDEST PUSH1 0x4 CALLDATALOAD PUSH1 0x0 MSTORE PUSH1 0x15 PUSH1 0x20 MSTORE PUSH1 0x40 PUSH1 0x0 KECCAK256 PUSH1 0x44 PUSH1 0x24 CALLDATALOAD ADD CALLDATALOAD PUSH1 0x4 DUP3 ADD SSTORE PUSH1 0x64 PUSH1 0x24 CALLDATALOAD ADD CALLDATALOAD PUSH1 0x5 DUP3 ADD SSTORE PUSH1 0x6 PUSH2 0x3B2B PUSH1 0x84 PUSH1 0x24 CALLDATALOAD ADD PUSH1 0x24 CALLDATALOAD PUSH1 0x4 ADD PUSH2 0x7EAC JUMP JUMPDEST SWAP2 SWAP1 SWAP3 ADD SWAP2 PUSH2 0x3B3A DUP3 DUP5 PUSH2 0x80C8 JUMP JUMPDEST PUSH1 0x0 SWAP3 DUP4 MSTORE PUSH1 0x20 DUP4 KECCAK256 SWAP1 DUP1 JUMPDEST DUP4 DUP6 LT PUSH2 0x3FFD JUMPI PUSH2 0x3B61 PUSH1 0xA4 PUSH1 0x24 CALLDATALOAD ADD PUSH1 0x24 CALLDATALOAD PUSH1 0x4 ADD PUSH2 0x7EAC JUMP JUMPDEST PUSH1 0x4 CALLDATALOAD PUSH1 0x0 MSTORE PUSH1 0x15 PUSH1 0x20 MSTORE PUSH1 0x7 PUSH1 0x40 PUSH1 0x0 KECCAK256 ADD SWAP2 PUSH2 0x3B7F DUP3 DUP5 PUSH2 0x80C8 JUMP JUMPDEST PUSH1 0x0 SWAP3 DUP4 MSTORE PUSH1 0x20 DUP4 KECCAK256 SWAP1 DUP1 JUMPDEST DUP4 DUP6 LT PUSH2 0x3F1A JUMPI PUSH2 0x3BA6 PUSH1 0xC4 PUSH1 0x24 CALLDATALOAD ADD PUSH1 0x24 CALLDATALOAD PUSH1 0x4 ADD PUSH2 0x7EAC JUMP JUMPDEST PUSH1 0x4 CALLDATALOAD PUSH1 0x0 MSTORE PUSH1 0x15 PUSH1 0x20 MSTORE PUSH1 0x8 PUSH1 0x40 PUSH1 0x0 KECCAK256 ADD SWAP2 PUSH2 0x3BC4 DUP3 DUP5 PUSH2 0x80C8 JUMP JUMPDEST PUSH1 0x0 SWAP3 DUP4 MSTORE PUSH1 0x20 DUP4 KECCAK256 SWAP1 DUP1 JUMPDEST DUP4 DUP6 LT PUSH2 0x3E37 JUMPI PUSH1 0xE4 PUSH1 0x24 CALLDATALOAD ADD CALLDATALOAD PUSH1 0x0 MSTORE PUSH1 0x18 PUSH1 0x20 MSTORE PUSH2 0x3C09 PUSH1 0x1 PUSH1 0x40 PUSH1 0x0 KECCAK256 ADD PUSH1 0x4 CALLDATALOAD PUSH1 0x0 MSTORE PUSH1 0x15 PUSH1 0x20 MSTORE PUSH1 0x9 PUSH1 0x40 PUSH1 0x0 KECCAK256 ADD PUSH2 0x8345 JUMP JUMPDEST PUSH2 0x104 PUSH1 0x24 CALLDATALOAD ADD CALLDATALOAD PUSH1 0x0 MSTORE PUSH1 0x19 PUSH1 0x20 MSTORE PUSH2 0x3C3C PUSH1 0x1 PUSH1 0x40 PUSH1 0x0 KECCAK256 ADD PUSH1 0x4 CALLDATALOAD PUSH1 0x0 MSTORE PUSH1 0x15 PUSH1 0x20 MSTORE PUSH1 0xA PUSH1 0x40 PUSH1 0x0 KECCAK256 ADD PUSH2 0x8345 JUMP JUMPDEST PUSH2 0x3C51 PUSH2 0x144 PUSH1 0x24 CALLDATALOAD ADD PUSH1 0x24 CALLDATALOAD PUSH1 0x4 ADD PUSH2 0x7CC7 JUMP JUMPDEST PUSH1 0x4 CALLDATALOAD PUSH1 0x0 SWAP1 DUP2 MSTORE PUSH1 0x15 PUSH1 0x20 MSTORE PUSH1 0x40 SWAP1 KECCAK256 PUSH1 0xC ADD SWAP1 PUSH1 0x1 PUSH1 0x1 PUSH1 0x40 SHL SUB DUP2 GT PUSH2 0x144F JUMPI PUSH2 0x3C82 DUP2 PUSH2 0x3A45 DUP5 SLOAD PUSH2 0x6FD5 JUMP JUMPDEST PUSH1 0x0 SWAP3 PUSH1 0x1F DUP3 GT PUSH1 0x1 EQ PUSH2 0x3DCE JUMPI SWAP3 DUP2 SWAP3 SWAP4 PUSH1 0x0 SWAP3 PUSH2 0x3DC3 JUMPI JUMPDEST POP POP DUP2 PUSH1 0x1 SHL SWAP2 PUSH1 0x0 NOT SWAP1 PUSH1 0x3 SHL SHR NOT AND OR SWAP1 SSTORE JUMPDEST PUSH2 0x3CC6 PUSH2 0x164 PUSH1 0x24 CALLDATALOAD ADD PUSH1 0x24 CALLDATALOAD PUSH1 0x4 ADD PUSH2 0x7CC7 JUMP JUMPDEST PUSH1 0x4 CALLDATALOAD PUSH1 0x0 SWAP1 DUP2 MSTORE PUSH1 0x15 PUSH1 0x20 MSTORE PUSH1 0x40 SWAP1 KECCAK256 PUSH1 0xD ADD SWAP1 PUSH1 0x1 PUSH1 0x1 PUSH1 0x40 SHL SUB DUP2 GT PUSH2 0x144F JUMPI PUSH2 0x3CF7 DUP2 PUSH2 0x3A45 DUP5 SLOAD PUSH2 0x6FD5 JUMP JUMPDEST PUSH1 0x0 PUSH1 0x1F DUP3 GT PUSH1 0x1 EQ PUSH2 0x3D5E JUMPI DUP2 SWAP3 SWAP4 PUSH1 0x0 SWAP3 PUSH2 0x3D53 JUMPI JUMPDEST POP POP DUP2 PUSH1 0x1 SHL SWAP2 PUSH1 0x0 NOT SWAP1 PUSH1 0x3 SHL SHR NOT AND OR SWAP1 SSTORE JUMPDEST PUSH1 0x4 CALLDATALOAD PUSH1 0x0 MSTORE PUSH1 0x15 PUSH1 0x20 MSTORE PUSH1 0x40 PUSH1 0x0 KECCAK256 PUSH2 0x124 PUSH1 0x24 CALLDATALOAD ADD CALLDATALOAD PUSH1 0xB DUP3 ADD SSTORE PUSH1 0xE PUSH2 0x184 PUSH1 0x24 CALLDATALOAD ADD CALLDATALOAD SWAP2 ADD SSTORE PUSH1 0x0 DUP1 RETURN JUMPDEST ADD CALLDATALOAD SWAP1 POP DUP4 DUP1 PUSH2 0x3D0F JUMP JUMPDEST PUSH1 0x1F NOT DUP3 AND SWAP4 DUP4 PUSH1 0x0 MSTORE PUSH1 0x20 PUSH1 0x0 KECCAK256 SWAP2 PUSH1 0x0 JUMPDEST DUP7 DUP2 LT PUSH2 0x3DAB JUMPI POP DUP4 PUSH1 0x1 SWAP6 SWAP7 LT PUSH2 0x3D91 JUMPI JUMPDEST POP POP POP DUP2 SHL ADD SWAP1 SSTORE PUSH2 0x3D24 JUMP JUMPDEST ADD CALLDATALOAD PUSH1 0x0 NOT PUSH1 0x3 DUP5 SWAP1 SHL PUSH1 0xF8 AND SHR NOT AND SWAP1 SSTORE DUP4 DUP1 DUP1 PUSH2 0x3D84 JUMP JUMPDEST SWAP1 SWAP3 PUSH1 0x20 PUSH1 0x1 DUP2 SWAP3 DUP7 DUP7 ADD CALLDATALOAD DUP2 SSTORE ADD SWAP5 ADD SWAP2 ADD PUSH2 0x3D71 JUMP JUMPDEST ADD CALLDATALOAD SWAP1 POP DUP4 DUP1 PUSH2 0x3C9C JUMP JUMPDEST DUP3 PUSH1 0x0 MSTORE PUSH1 0x20 PUSH1 0x0 KECCAK256 SWAP1 PUSH1 0x0 SWAP5 JUMPDEST PUSH1 0x1F NOT DUP5 AND DUP7 LT PUSH2 0x3E1F JUMPI PUSH1 0x1 SWAP5 SWAP6 POP DUP4 PUSH1 0x1F NOT DUP2 AND LT PUSH2 0x3E05 JUMPI JUMPDEST POP POP POP DUP2 SHL ADD SWAP1 SSTORE PUSH2 0x3CB1 JUMP JUMPDEST ADD CALLDATALOAD PUSH1 0x0 NOT PUSH1 0x3 DUP5 SWAP1 SHL PUSH1 0xF8 AND SHR NOT AND SWAP1 SSTORE DUP4 DUP1 DUP1 PUSH2 0x3DF8 JUMP JUMPDEST SWAP2 PUSH1 0x20 PUSH1 0x1 DUP2 SWAP3 DUP6 DUP6 ADD CALLDATALOAD DUP2 SSTORE ADD SWAP4 ADD SWAP6 ADD SWAP5 PUSH2 0x3DDC JUMP JUMPDEST PUSH2 0x3E41 DUP2 DUP4 PUSH2 0x7CC7 JUMP JUMPDEST SWAP1 PUSH1 0x1 PUSH1 0x1 PUSH1 0x40 SHL SUB DUP3 GT PUSH2 0x144F JUMPI PUSH2 0x3E5E DUP3 PUSH2 0x2177 DUP8 SLOAD PUSH2 0x6FD5 JUMP JUMPDEST PUSH1 0x0 SWAP1 PUSH1 0x1F DUP4 GT PUSH1 0x1 EQ PUSH2 0x3EAA JUMPI SWAP3 DUP3 PUSH1 0x1 SWAP5 SWAP4 PUSH1 0x20 SWAP4 DUP7 SWAP6 PUSH1 0x0 SWAP3 PUSH2 0x3E9F JUMPI JUMPDEST POP POP PUSH1 0x0 NOT PUSH1 0x3 DUP4 SWAP1 SHL SHR NOT AND SWAP1 DUP5 SHL OR DUP7 SSTORE JUMPDEST ADD SWAP4 ADD SWAP5 ADD SWAP4 SWAP2 PUSH2 0x3BD0 JUMP JUMPDEST ADD CALLDATALOAD SWAP1 POP DUP11 DUP1 PUSH2 0x3E7F JUMP JUMPDEST DUP6 PUSH1 0x0 MSTORE PUSH1 0x20 PUSH1 0x0 KECCAK256 SWAP2 PUSH1 0x0 JUMPDEST PUSH1 0x1F NOT DUP6 AND DUP2 LT PUSH2 0x3F02 JUMPI POP DUP4 PUSH1 0x20 SWAP4 PUSH1 0x1 SWAP7 SWAP4 DUP8 SWAP7 SWAP4 DUP8 SWAP5 PUSH1 0x1F NOT DUP2 AND LT PUSH2 0x3EE8 JUMPI JUMPDEST POP POP POP DUP2 SHL ADD DUP7 SSTORE PUSH2 0x3E93 JUMP JUMPDEST ADD CALLDATALOAD PUSH1 0x0 NOT PUSH1 0x3 DUP5 SWAP1 SHL PUSH1 0xF8 AND SHR NOT AND SWAP1 SSTORE DUP11 DUP1 DUP1 PUSH2 0x3EDB JUMP JUMPDEST SWAP1 SWAP3 PUSH1 0x20 PUSH1 0x1 DUP2 SWAP3 DUP7 DUP7 ADD CALLDATALOAD DUP2 SSTORE ADD SWAP5 ADD SWAP2 ADD PUSH2 0x3EB7 JUMP JUMPDEST PUSH2 0x3F24 DUP2 DUP4 PUSH2 0x7CC7 JUMP JUMPDEST SWAP1 PUSH1 0x1 PUSH1 0x1 PUSH1 0x40 SHL SUB DUP3 GT PUSH2 0x144F JUMPI PUSH2 0x3F41 DUP3 PUSH2 0x2177 DUP8 SLOAD PUSH2 0x6FD5 JUMP JUMPDEST PUSH1 0x0 SWAP1 PUSH1 0x1F DUP4 GT PUSH1 0x1 EQ PUSH2 0x3F8D JUMPI SWAP3 DUP3 PUSH1 0x1 SWAP5 SWAP4 PUSH1 0x20 SWAP4 DUP7 SWAP6 PUSH1 0x0 SWAP3 PUSH2 0x3F82 JUMPI JUMPDEST POP POP PUSH1 0x0 NOT PUSH1 0x3 DUP4 SWAP1 SHL SHR NOT AND SWAP1 DUP5 SHL OR DUP7 SSTORE JUMPDEST ADD SWAP4 ADD SWAP5 ADD SWAP4 SWAP2 PUSH2 0x3B8B JUMP JUMPDEST ADD CALLDATALOAD SWAP1 POP DUP11 DUP1 PUSH2 0x3F62 JUMP JUMPDEST DUP6 PUSH1 0x0 MSTORE PUSH1 0x20 PUSH1 0x0 KECCAK256 SWAP2 PUSH1 0x0 JUMPDEST PUSH1 0x1F NOT DUP6 AND DUP2 LT PUSH2 0x3FE5 JUMPI POP DUP4 PUSH1 0x20 SWAP4 PUSH1 0x1 SWAP7 SWAP4 DUP8 SWAP7 SWAP4 DUP8 SWAP5 PUSH1 0x1F NOT DUP2 AND LT PUSH2 0x3FCB JUMPI JUMPDEST POP POP POP DUP2 SHL ADD DUP7 SSTORE PUSH2 0x3F76 JUMP JUMPDEST ADD CALLDATALOAD PUSH1 0x0 NOT PUSH1 0x3 DUP5 SWAP1 SHL PUSH1 0xF8 AND SHR NOT AND SWAP1 SSTORE DUP11 DUP1 DUP1 PUSH2 0x3FBE JUMP JUMPDEST SWAP1 SWAP3 PUSH1 0x20 PUSH1 0x1 DUP2 SWAP3 DUP7 DUP7 ADD CALLDATALOAD DUP2 SSTORE ADD SWAP5 ADD SWAP2 ADD PUSH2 0x3F9A JUMP JUMPDEST PUSH2 0x4007 DUP2 DUP4 PUSH2 0x7CC7 JUMP JUMPDEST SWAP1 PUSH1 0x1 PUSH1 0x1 PUSH1 0x40 SHL SUB DUP3 GT PUSH2 0x144F JUMPI PUSH2 0x4024 DUP3 PUSH2 0x2177 DUP8 SLOAD PUSH2 0x6FD5 JUMP JUMPDEST PUSH1 0x0 SWAP1 PUSH1 0x1F DUP4 GT PUSH1 0x1 EQ PUSH2 0x4070 JUMPI SWAP3 DUP3 PUSH1 0x1 SWAP5 SWAP4 PUSH1 0x20 SWAP4 DUP7 SWAP6 PUSH1 0x0 SWAP3 PUSH2 0x4065 JUMPI JUMPDEST POP POP PUSH1 0x0 NOT PUSH1 0x3 DUP4 SWAP1 SHL SHR NOT AND SWAP1 DUP5 SHL OR DUP7 SSTORE JUMPDEST ADD SWAP4 ADD SWAP5 ADD SWAP4 SWAP2 PUSH2 0x3B46 JUMP JUMPDEST ADD CALLDATALOAD SWAP1 POP DUP11 DUP1 PUSH2 0x4045 JUMP JUMPDEST DUP6 PUSH1 0x0 MSTORE PUSH1 0x20 PUSH1 0x0 KECCAK256 SWAP2 PUSH1 0x0 JUMPDEST PUSH1 0x1F NOT DUP6 AND DUP2 LT PUSH2 0x40C8 JUMPI POP DUP4 PUSH1 0x20 SWAP4 PUSH1 0x1 SWAP7 SWAP4 DUP8 SWAP7 SWAP4 DUP8 SWAP5 PUSH1 0x1F NOT DUP2 AND LT PUSH2 0x40AE JUMPI JUMPDEST POP POP POP DUP2 SHL ADD DUP7 SSTORE PUSH2 0x4059 JUMP JUMPDEST ADD CALLDATALOAD PUSH1 0x0 NOT PUSH1 0x3 DUP5 SWAP1 SHL PUSH1 0xF8 AND SHR NOT AND SWAP1 SSTORE DUP11 DUP1 DUP1 PUSH2 0x40A1 JUMP JUMPDEST SWAP1 SWAP3 PUSH1 0x20 PUSH1 0x1 DUP2 SWAP3 DUP7 DUP7 ADD CALLDATALOAD DUP2 SSTORE ADD SWAP5 ADD SWAP2 ADD PUSH2 0x407D JUMP JUMPDEST ADD CALLDATALOAD SWAP1 POP DUP4 DUP1 PUSH2 0x3AD8 JUMP JUMPDEST DUP3 PUSH1 0x0 MSTORE PUSH1 0x20 PUSH1 0x0 KECCAK256 SWAP1 PUSH1 0x0 SWAP5 JUMPDEST PUSH1 0x1F NOT DUP5 AND DUP7 LT PUSH2 0x413C JUMPI PUSH1 0x1 SWAP5 SWAP6 POP DUP4 PUSH1 0x1F NOT DUP2 AND LT PUSH2 0x4122 JUMPI JUMPDEST POP POP POP DUP2 SHL ADD SWAP1 SSTORE PUSH2 0x3AED JUMP JUMPDEST ADD CALLDATALOAD PUSH1 0x0 NOT PUSH1 0x3 DUP5 SWAP1 SHL PUSH1 0xF8 AND SHR NOT AND SWAP1 SSTORE DUP4 DUP1 DUP1 PUSH2 0x4115 JUMP JUMPDEST SWAP2 PUSH1 0x20 PUSH1 0x1 DUP2 SWAP3 DUP6 DUP6 ADD CALLDATALOAD DUP2 SSTORE ADD SWAP4 ADD SWAP6 ADD SWAP5 PUSH2 0x40F9 JUMP JUMPDEST ADD CALLDATALOAD SWAP1 POP DUP4 DUP1 PUSH2 0x3A65 JUMP JUMPDEST DUP3 PUSH1 0x0 MSTORE PUSH1 0x20 PUSH1 0x0 KECCAK256 SWAP1 PUSH1 0x0 SWAP5 JUMPDEST PUSH1 0x1F NOT DUP5 AND DUP7 LT PUSH2 0x41B0 JUMPI PUSH1 0x1 SWAP5 SWAP6 POP DUP4 PUSH1 0x1F NOT DUP2 AND LT PUSH2 0x4196 JUMPI JUMPDEST POP POP POP DUP2 SHL ADD SWAP1 SSTORE PUSH2 0x3A7A JUMP JUMPDEST ADD CALLDATALOAD PUSH1 0x0 NOT PUSH1 0x3 DUP5 SWAP1 SHL PUSH1 0xF8 AND SHR NOT AND SWAP1 SSTORE DUP4 DUP1 DUP1 PUSH2 0x4189 JUMP JUMPDEST SWAP2 PUSH1 0x20 PUSH1 0x1 DUP2 SWAP3 DUP6 DUP6 ADD CALLDATALOAD DUP2 SSTORE ADD SWAP4 ADD SWAP6 ADD SWAP5 PUSH2 0x416D JUMP JUMPDEST PUSH1 0x40 MLOAD PUSH3 0x461BCD PUSH1 0xE5 SHL DUP2 MSTORE PUSH1 0x20 PUSH1 0x4 DUP3 ADD MSTORE PUSH1 0x1C PUSH1 0x24 DUP3 ADD MSTORE PUSH28 0x5375622D63617465676F72792063616E6E6F7420626520656D707479 PUSH1 0x20 SHL PUSH1 0x44 DUP3 ADD MSTORE PUSH1 0x64 SWAP1 REVERT JUMPDEST PUSH1 0x40 MLOAD PUSH3 0x461BCD PUSH1 0xE5 SHL DUP2 MSTORE PUSH1 0x20 PUSH1 0x4 DUP3 ADD MSTORE PUSH1 0x18 PUSH1 0x24 DUP3 ADD MSTORE PUSH24 0x43617465676F72792063616E6E6F7420626520656D707479 PUSH1 0x40 SHL PUSH1 0x44 DUP3 ADD MSTORE PUSH1 0x64 SWAP1 REVERT JUMPDEST PUSH1 0x40 MLOAD PUSH3 0x461BCD PUSH1 0xE5 SHL DUP2 MSTORE PUSH1 0x20 PUSH1 0x4 DUP3 ADD MSTORE PUSH1 0x15 PUSH1 0x24 DUP3 ADD MSTORE PUSH21 0x53697A65732063616E6E6F7420626520656D707479 PUSH1 0x58 SHL PUSH1 0x44 DUP3 ADD MSTORE PUSH1 0x64 SWAP1 REVERT JUMPDEST PUSH1 0x40 MLOAD PUSH3 0x461BCD PUSH1 0xE5 SHL DUP2 MSTORE PUSH1 0x20 PUSH1 0x4 DUP3 ADD MSTORE PUSH1 0x16 PUSH1 0x24 DUP3 ADD MSTORE PUSH22 0x436F6C6F72732063616E6E6F7420626520656D707479 PUSH1 0x50 SHL PUSH1 0x44 DUP3 ADD MSTORE PUSH1 0x64 SWAP1 REVERT JUMPDEST PUSH1 0x40 MLOAD PUSH3 0x461BCD PUSH1 0xE5 SHL DUP2 MSTORE PUSH1 0x20 PUSH1 0x4 DUP3 ADD MSTORE PUSH1 0x1B PUSH1 0x24 DUP3 ADD MSTORE PUSH27 0x4465736372697074696F6E2063616E6E6F7420626520656D707479 PUSH1 0x28 SHL PUSH1 0x44 DUP3 ADD MSTORE PUSH1 0x64 SWAP1 REVERT JUMPDEST PUSH1 0x40 MLOAD PUSH3 0x461BCD PUSH1 0xE5 SHL DUP2 MSTORE PUSH1 0x20 PUSH1 0x4 DUP3 ADD MSTORE PUSH1 0x28 PUSH1 0x24 DUP3 ADD MSTORE PUSH32 0x4F6E6C79207468652073656C6C65722063616E20757064617465207468656972 PUSH1 0x44 DUP3 ADD MSTORE PUSH8 0x81C1C9BD91D58DD PUSH1 0xC2 SHL PUSH1 0x64 DUP3 ADD MSTORE PUSH1 0x84 SWAP1 REVERT JUMPDEST CALLVALUE PUSH2 0x5E2 JUMPI PUSH1 0xA0 CALLDATASIZE PUSH1 0x3 NOT ADD SLT PUSH2 0x5E2 JUMPI PUSH1 0x4 CALLDATALOAD PUSH1 0x1 PUSH1 0x1 PUSH1 0x40 SHL SUB DUP2 GT PUSH2 0x5E2 JUMPI PUSH2 0x4390 SWAP1 CALLDATASIZE SWAP1 PUSH1 0x4 ADD PUSH2 0x6F19 JUMP JUMPDEST PUSH1 0x24 SWAP1 DUP2 CALLDATALOAD PUSH1 0x1 PUSH1 0x1 PUSH1 0x40 SHL SUB DUP2 GT PUSH2 0x5E2 JUMPI PUSH2 0x43B1 SWAP1 CALLDATASIZE SWAP1 PUSH1 0x4 ADD PUSH2 0x6F19 JUMP JUMPDEST PUSH1 0x44 CALLDATALOAD PUSH1 0x1 PUSH1 0x1 PUSH1 0x40 SHL SUB DUP2 GT PUSH2 0x5E2 JUMPI PUSH2 0x43D0 SWAP1 CALLDATASIZE SWAP1 PUSH1 0x4 ADD PUSH2 0x6F19 JUMP JUMPDEST PUSH1 0x64 CALLDATALOAD PUSH1 0x1 PUSH1 0x1 PUSH1 0x40 SHL SUB DUP2 GT PUSH2 0x5E2 JUMPI PUSH2 0x43EF SWAP1 CALLDATASIZE SWAP1 PUSH1 0x4 ADD PUSH2 0x6F19 JUMP JUMPDEST SWAP1 PUSH1 0x84 CALLDATALOAD PUSH1 0x1 PUSH1 0x1 PUSH1 0x40 SHL SUB DUP2 GT PUSH2 0x5E2 JUMPI PUSH2 0x440F SWAP1 CALLDATASIZE SWAP1 PUSH1 0x4 ADD PUSH2 0x6F19 JUMP JUMPDEST SWAP3 PUSH2 0x441B CALLER ISZERO ISZERO PUSH2 0x7AF9 JUMP JUMPDEST CALLER PUSH1 0x0 MSTORE PUSH1 0x13 PUSH1 0x20 MSTORE PUSH1 0xFF PUSH1 0x40 PUSH1 0x0 KECCAK256 SLOAD AND PUSH2 0x4AC9 JUMPI DUP5 MLOAD ISZERO PUSH2 0x4A8C JUMPI DUP2 MLOAD ISZERO PUSH2 0x4A57 JUMPI DUP3 MLOAD ISZERO PUSH2 0x4A22 JUMPI PUSH1 0x40 MLOAD SWAP5 PUSH2 0x4453 DUP7 PUSH2 0x6E01 JUMP JUMPDEST DUP6 MSTORE PUSH1 0x20 DUP6 ADD MSTORE PUSH1 0x40 DUP5 ADD MSTORE PUSH1 0x60 DUP4 ADD MSTORE PUSH1 0x80 DUP3 ADD MSTORE TIMESTAMP PUSH1 0xA0 DUP3 ADD MSTORE PUSH1 0x1 PUSH1 0xC0 DUP3 ADD MSTORE CALLER PUSH1 0x0 MSTORE PUSH1 0x11 PUSH1 0x20 MSTORE PUSH1 0x40 PUSH1 0x0 KECCAK256 SWAP1 DUP1 MLOAD SWAP3 DUP4 MLOAD PUSH1 0x1 DUP1 PUSH1 0x40 SHL SUB DUP2 GT PUSH2 0x4A0D JUMPI PUSH2 0x44AB DUP2 PUSH2 0x44A5 DUP7 SLOAD PUSH2 0x6FD5 JUMP JUMPDEST DUP7 PUSH2 0x7B91 JUMP JUMPDEST PUSH1 0x20 PUSH1 0x1F DUP3 GT PUSH1 0x1 EQ PUSH2 0x49A4 JUMPI DUP2 SWAP3 SWAP4 SWAP5 SWAP6 PUSH1 0x0 SWAP3 PUSH2 0x4999 JUMPI JUMPDEST POP POP DUP2 PUSH1 0x1 SHL SWAP2 PUSH1 0x0 NOT SWAP1 PUSH1 0x3 SHL SHR NOT AND OR DUP4 SSTORE JUMPDEST PUSH1 0x20 DUP3 ADD MLOAD DUP1 MLOAD SWAP1 SWAP4 SWAP1 PUSH1 0x1 PUSH1 0x1 PUSH1 0x40 SHL SUB DUP2 GT PUSH2 0x4984 JUMPI PUSH2 0x450C DUP2 PUSH2 0x4503 PUSH1 0x1 DUP6 ADD SLOAD PUSH2 0x6FD5 JUMP JUMPDEST PUSH1 0x1 DUP6 ADD PUSH2 0x7B91 JUMP JUMPDEST PUSH1 0x20 PUSH1 0x1F DUP3 GT PUSH1 0x1 EQ PUSH2 0x4915 JUMPI DUP2 SWAP3 SWAP4 SWAP5 SWAP6 PUSH1 0x0 SWAP3 PUSH2 0x490A JUMPI JUMPDEST POP POP DUP2 PUSH1 0x1 SHL SWAP2 PUSH1 0x0 NOT SWAP1 PUSH1 0x3 SHL SHR NOT AND OR PUSH1 0x1 DUP3 ADD SSTORE JUMPDEST PUSH1 0x40 DUP4 ADD MLOAD DUP1 MLOAD SWAP1 SWAP4 SWAP1 PUSH1 0x1 PUSH1 0x1 PUSH1 0x40 SHL SUB DUP2 GT PUSH2 0x48F5 JUMPI PUSH2 0x4570 DUP2 PUSH2 0x4567 PUSH1 0x2 DUP7 ADD SLOAD PUSH2 0x6FD5 JUMP JUMPDEST PUSH1 0x2 DUP7 ADD PUSH2 0x7B91 JUMP JUMPDEST PUSH1 0x20 PUSH1 0x1F DUP3 GT PUSH1 0x1 EQ PUSH2 0x4886 JUMPI DUP2 SWAP3 SWAP4 SWAP5 SWAP6 PUSH1 0x0 SWAP3 PUSH2 0x487B JUMPI JUMPDEST POP POP DUP2 PUSH1 0x1 SHL SWAP2 PUSH1 0x0 NOT SWAP1 PUSH1 0x3 SHL SHR NOT AND OR PUSH1 0x2 DUP4 ADD SSTORE JUMPDEST PUSH1 0x60 DUP2 ADD MLOAD DUP1 MLOAD PUSH1 0x3 DUP5 ADD SWAP2 PUSH1 0x1 PUSH1 0x1 PUSH1 0x40 SHL SUB DUP3 GT PUSH2 0x47F5 JUMPI DUP2 SWAP1 PUSH2 0x45CC DUP3 PUSH2 0x44A5 DUP7 SLOAD PUSH2 0x6FD5 JUMP JUMPDEST PUSH1 0x20 SWAP1 PUSH1 0x1F DUP4 GT PUSH1 0x1 EQ PUSH2 0x4815 JUMPI PUSH1 0x0 SWAP3 PUSH2 0x480A JUMPI JUMPDEST POP POP DUP2 PUSH1 0x1 SHL SWAP2 PUSH1 0x0 NOT SWAP1 PUSH1 0x3 SHL SHR NOT AND OR SWAP1 SSTORE JUMPDEST PUSH1 0x80 DUP2 ADD MLOAD DUP1 MLOAD PUSH1 0x4 DUP5 ADD SWAP2 PUSH1 0x1 PUSH1 0x1 PUSH1 0x40 SHL SUB DUP3 GT PUSH2 0x47F5 JUMPI PUSH2 0x461F DUP3 PUSH2 0x1C13 DUP6 SLOAD PUSH2 0x6FD5 JUMP JUMPDEST PUSH1 0x20 SWAP1 PUSH1 0x1F DUP4 GT PUSH1 0x1 EQ PUSH2 0x4783 JUMPI SWAP3 DUP3 PUSH1 0xC0 SWAP4 PUSH2 0x466D SWAP8 SWAP7 SWAP4 PUSH1 0x6 SWAP7 PUSH1 0x0 SWAP3 PUSH2 0x4778 JUMPI JUMPDEST POP POP DUP2 PUSH1 0x1 SHL SWAP2 PUSH1 0x0 NOT SWAP1 PUSH1 0x3 SHL SHR NOT AND OR SWAP1 SSTORE JUMPDEST PUSH1 0xA0 DUP2 ADD MLOAD PUSH1 0x5 DUP6 ADD SSTORE ADD MLOAD ISZERO ISZERO SWAP2 ADD PUSH2 0x799C JUMP JUMPDEST CALLER PUSH1 0x0 MSTORE PUSH1 0x13 PUSH1 0x20 MSTORE PUSH1 0x40 PUSH1 0x0 KECCAK256 PUSH1 0xFF NOT SWAP1 PUSH1 0x1 DUP3 DUP3 SLOAD AND OR SWAP1 SSTORE PUSH1 0x12 PUSH1 0x20 MSTORE PUSH1 0x1 PUSH1 0x40 PUSH1 0x0 KECCAK256 SWAP2 DUP3 SLOAD AND OR SWAP1 SSTORE PUSH2 0x46A4 CALLER PUSH2 0x97AC JUMP JUMPDEST ISZERO PUSH2 0x46F3 JUMPI JUMPDEST PUSH1 0x40 MLOAD TIMESTAMP DUP2 MSTORE PUSH32 0xA1A1A78FF3033D5EE8393372052AEB2A16BBB347A29F3780370E9506C109E372 PUSH1 0x20 CALLER SWAP3 LOG2 PUSH1 0x40 MLOAD PUSH1 0x1 DUP2 MSTORE PUSH1 0x0 DUP1 MLOAD PUSH1 0x20 PUSH2 0x987B DUP4 CODECOPY DUP2 MLOAD SWAP2 MSTORE PUSH1 0x20 CALLER SWAP3 LOG2 STOP JUMPDEST PUSH1 0xE SLOAD SWAP1 PUSH1 0x1 PUSH1 0x40 SHL DUP3 LT ISZERO PUSH2 0x4764 JUMPI PUSH1 0x1 DUP3 ADD DUP1 PUSH1 0xE SSTORE DUP3 LT ISZERO PUSH2 0x4750 JUMPI POP PUSH1 0xE PUSH1 0x0 MSTORE PUSH32 0xBB7B4A454DC3493923482F07822329ED19E8244EFF582CC204F8554C3620C3FD ADD DUP1 SLOAD PUSH1 0x1 PUSH1 0x1 PUSH1 0xA0 SHL SUB NOT AND CALLER OR SWAP1 SSTORE DUP1 PUSH2 0x46AA JUMP JUMPDEST PUSH4 0x4E487B71 PUSH1 0xE0 SHL PUSH1 0x0 SWAP1 DUP2 MSTORE PUSH1 0x32 PUSH1 0x4 MSTORE REVERT JUMPDEST PUSH4 0x4E487B71 PUSH1 0xE0 SHL PUSH1 0x0 SWAP1 DUP2 MSTORE PUSH1 0x41 PUSH1 0x4 MSTORE REVERT JUMPDEST ADD MLOAD SWAP1 POP DUP10 DUP1 PUSH2 0x4643 JUMP JUMPDEST SWAP1 PUSH1 0x1F NOT DUP4 AND SWAP2 DUP5 PUSH1 0x0 MSTORE PUSH1 0x20 PUSH1 0x0 KECCAK256 SWAP3 PUSH1 0x0 JUMPDEST DUP2 DUP2 LT PUSH2 0x47DD JUMPI POP SWAP4 PUSH2 0x466D SWAP8 SWAP7 SWAP4 PUSH1 0x6 SWAP7 SWAP4 PUSH1 0x1 SWAP4 DUP4 PUSH1 0xC0 SWAP9 LT PUSH2 0x47C4 JUMPI JUMPDEST POP POP POP DUP2 SHL ADD SWAP1 SSTORE PUSH2 0x4658 JUMP JUMPDEST ADD MLOAD PUSH1 0x0 NOT PUSH1 0xF8 DUP5 PUSH1 0x3 SHL AND SHR NOT AND SWAP1 SSTORE DUP10 DUP1 DUP1 PUSH2 0x47B7 JUMP JUMPDEST SWAP3 SWAP4 PUSH1 0x20 PUSH1 0x1 DUP2 SWAP3 DUP8 DUP7 ADD MLOAD DUP2 SSTORE ADD SWAP6 ADD SWAP4 ADD PUSH2 0x4797 JUMP JUMPDEST DUP6 PUSH4 0x4E487B71 PUSH1 0xE0 SHL PUSH1 0x0 MSTORE PUSH1 0x41 PUSH1 0x4 MSTORE PUSH1 0x0 REVERT JUMPDEST ADD MLOAD SWAP1 POP DUP7 DUP1 PUSH2 0x45E2 JUMP JUMPDEST PUSH1 0x0 DUP6 DUP2 MSTORE PUSH1 0x20 DUP2 KECCAK256 SWAP4 POP PUSH1 0x1F NOT DUP6 AND SWAP1 JUMPDEST DUP2 DUP2 LT PUSH2 0x4863 JUMPI POP SWAP1 DUP5 PUSH1 0x1 SWAP6 SWAP5 SWAP4 SWAP3 LT PUSH2 0x484A JUMPI JUMPDEST POP POP POP DUP2 SHL ADD SWAP1 SSTORE PUSH2 0x45F7 JUMP JUMPDEST ADD MLOAD PUSH1 0x0 NOT PUSH1 0xF8 DUP5 PUSH1 0x3 SHL AND SHR NOT AND SWAP1 SSTORE DUP7 DUP1 DUP1 PUSH2 0x483D JUMP JUMPDEST SWAP3 SWAP4 PUSH1 0x20 PUSH1 0x1 DUP2 SWAP3 DUP8 DUP7 ADD MLOAD DUP2 SSTORE ADD SWAP6 ADD SWAP4 ADD PUSH2 0x4827 JUMP JUMPDEST ADD MLOAD SWAP1 POP DUP6 DUP1 PUSH2 0x458A JUMP JUMPDEST PUSH1 0x2 DUP5 ADD PUSH1 0x0 MSTORE PUSH1 0x20 PUSH1 0x0 KECCAK256 SWAP1 PUSH1 0x0 JUMPDEST PUSH1 0x1F NOT DUP5 AND DUP2 LT PUSH2 0x48DD JUMPI POP PUSH1 0x1 SWAP4 SWAP5 SWAP6 SWAP7 DUP4 PUSH1 0x1F NOT DUP2 AND LT PUSH2 0x48C4 JUMPI JUMPDEST POP POP POP DUP2 SHL ADD PUSH1 0x2 DUP4 ADD SSTORE PUSH2 0x45A2 JUMP JUMPDEST ADD MLOAD PUSH1 0x0 NOT PUSH1 0xF8 DUP5 PUSH1 0x3 SHL AND SHR NOT AND SWAP1 SSTORE DUP6 DUP1 DUP1 PUSH2 0x48B4 JUMP JUMPDEST SWAP1 SWAP2 PUSH1 0x20 PUSH1 0x1 DUP2 SWAP3 DUP6 DUP12 ADD MLOAD DUP2 SSTORE ADD SWAP4 ADD SWAP2 ADD PUSH2 0x4896 JUMP JUMPDEST DUP4 PUSH4 0x4E487B71 PUSH1 0xE0 SHL PUSH1 0x0 MSTORE PUSH1 0x41 PUSH1 0x4 MSTORE PUSH1 0x0 REVERT JUMPDEST ADD MLOAD SWAP1 POP DUP6 DUP1 PUSH2 0x4526 JUMP JUMPDEST PUSH1 0x1 DUP4 ADD PUSH1 0x0 MSTORE PUSH1 0x20 PUSH1 0x0 KECCAK256 SWAP1 PUSH1 0x0 JUMPDEST PUSH1 0x1F NOT DUP5 AND DUP2 LT PUSH2 0x496C JUMPI POP PUSH1 0x1 SWAP4 SWAP5 SWAP6 SWAP7 DUP4 PUSH1 0x1F NOT DUP2 AND LT PUSH2 0x4953 JUMPI JUMPDEST POP POP POP DUP2 SHL ADD PUSH1 0x1 DUP3 ADD SSTORE PUSH2 0x453E JUMP JUMPDEST ADD MLOAD PUSH1 0x0 NOT PUSH1 0xF8 DUP5 PUSH1 0x3 SHL AND SHR NOT AND SWAP1 SSTORE DUP6 DUP1 DUP1 PUSH2 0x4943 JUMP JUMPDEST SWAP1 SWAP2 PUSH1 0x20 PUSH1 0x1 DUP2 SWAP3 DUP6 DUP12 ADD MLOAD DUP2 SSTORE ADD SWAP4 ADD SWAP2 ADD PUSH2 0x4925 JUMP JUMPDEST DUP3 PUSH4 0x4E487B71 PUSH1 0xE0 SHL PUSH1 0x0 MSTORE PUSH1 0x41 PUSH1 0x4 MSTORE PUSH1 0x0 REVERT JUMPDEST ADD MLOAD SWAP1 POP DUP6 DUP1 PUSH2 0x44C5 JUMP JUMPDEST DUP5 PUSH1 0x0 MSTORE PUSH1 0x20 PUSH1 0x0 KECCAK256 SWAP1 PUSH1 0x0 JUMPDEST PUSH1 0x1F NOT DUP5 AND DUP2 LT PUSH2 0x49F5 JUMPI POP PUSH1 0x1 SWAP4 SWAP5 SWAP6 SWAP7 DUP4 PUSH1 0x1F NOT DUP2 AND LT PUSH2 0x49DC JUMPI JUMPDEST POP POP POP DUP2 SHL ADD DUP4 SSTORE PUSH2 0x44DA JUMP JUMPDEST ADD MLOAD PUSH1 0x0 NOT PUSH1 0xF8 DUP5 PUSH1 0x3 SHL AND SHR NOT AND SWAP1 SSTORE DUP6 DUP1 DUP1 PUSH2 0x49CF JUMP JUMPDEST SWAP1 SWAP2 PUSH1 0x20 PUSH1 0x1 DUP2 SWAP3 DUP6 DUP12 ADD MLOAD DUP2 SSTORE ADD SWAP4 ADD SWAP2 ADD PUSH2 0x49B1 JUMP JUMPDEST POP PUSH4 0x4E487B71 PUSH1 0xE0 SHL PUSH1 0x0 SWAP1 DUP2 MSTORE PUSH1 0x41 PUSH1 0x4 MSTORE REVERT JUMPDEST PUSH1 0x40 MLOAD PUSH3 0x461BCD PUSH1 0xE5 SHL DUP2 MSTORE PUSH1 0x20 PUSH1 0x4 DUP3 ADD MSTORE PUSH1 0xE DUP2 DUP9 ADD MSTORE PUSH14 0x141A1BDB99481C995C5D5A5C9959 PUSH1 0x92 SHL PUSH1 0x44 DUP3 ADD MSTORE PUSH1 0x64 SWAP1 REVERT JUMPDEST PUSH1 0x40 MLOAD PUSH3 0x461BCD PUSH1 0xE5 SHL DUP2 MSTORE PUSH1 0x20 PUSH1 0x4 DUP3 ADD MSTORE PUSH1 0xE DUP2 DUP9 ADD MSTORE PUSH14 0x115B585A5B081C995C5D5A5C9959 PUSH1 0x92 SHL PUSH1 0x44 DUP3 ADD MSTORE PUSH1 0x64 SWAP1 REVERT JUMPDEST PUSH1 0x40 MLOAD PUSH3 0x461BCD PUSH1 0xE5 SHL DUP2 MSTORE PUSH1 0x20 PUSH1 0x4 DUP3 ADD MSTORE PUSH1 0x16 DUP2 DUP9 ADD MSTORE PUSH22 0x109D5CDA5B995CDCC81B985B59481C995C5D5A5C9959 PUSH1 0x52 SHL PUSH1 0x44 DUP3 ADD MSTORE PUSH1 0x64 SWAP1 REVERT JUMPDEST PUSH1 0x40 MLOAD PUSH3 0x461BCD PUSH1 0xE5 SHL DUP2 MSTORE PUSH1 0x20 PUSH1 0x4 DUP3 ADD MSTORE PUSH1 0x1C DUP2 DUP9 ADD MSTORE PUSH28 0x20B63932B0B23C903932B3B4B9BA32B932B21030B99039B2B63632B9 PUSH1 0x21 SHL PUSH1 0x44 DUP3 ADD MSTORE PUSH1 0x64 SWAP1 REVERT JUMPDEST CALLVALUE PUSH2 0x5E2 JUMPI PUSH1 0x40 CALLDATASIZE PUSH1 0x3 NOT ADD SLT PUSH2 0x5E2 JUMPI PUSH1 0x1 PUSH1 0x1 PUSH1 0x40 SHL SUB PUSH1 0x4 CALLDATALOAD PUSH1 0x24 CALLDATALOAD DUP3 DUP2 GT PUSH2 0x5E2 JUMPI PUSH2 0x4B40 SWAP1 CALLDATASIZE SWAP1 PUSH1 0x4 ADD PUSH2 0x6F19 JUMP JUMPDEST PUSH2 0x4B48 PUSH2 0x75F2 JUMP JUMPDEST DUP2 PUSH1 0x0 MSTORE PUSH1 0x20 SWAP1 PUSH1 0x18 DUP3 MSTORE PUSH1 0x40 PUSH1 0x0 KECCAK256 SLOAD ISZERO PUSH2 0x4CE5 JUMPI PUSH2 0x4B6A DUP2 MLOAD ISZERO ISZERO PUSH2 0x853D JUMP JUMPDEST PUSH2 0x4B75 PUSH1 0xC SLOAD PUSH2 0x847E JUMP JUMPDEST DUP1 PUSH1 0xC SSTORE PUSH1 0x40 MLOAD SWAP1 PUSH2 0x4B86 DUP3 PUSH2 0x6E38 JUMP JUMPDEST DUP1 DUP3 MSTORE DUP4 DUP3 ADD DUP4 DUP2 MSTORE PUSH1 0x40 DUP4 ADD SWAP1 DUP7 DUP3 MSTORE PUSH1 0x60 DUP5 ADD SWAP3 PUSH1 0x1 SWAP1 DUP2 DUP6 MSTORE PUSH1 0x0 MSTORE PUSH1 0x19 DUP8 MSTORE PUSH1 0x40 PUSH1 0x0 KECCAK256 SWAP5 MLOAD DUP6 SSTORE DUP1 DUP6 ADD SWAP2 MLOAD DUP1 MLOAD SWAP10 DUP11 GT PUSH2 0x144F JUMPI PUSH2 0x4BCE DUP11 PUSH2 0x1C13 DUP6 SLOAD PUSH2 0x6FD5 JUMP JUMPDEST DUP8 SWAP1 PUSH1 0x1F DUP12 GT PUSH1 0x1 EQ PUSH2 0x4C68 JUMPI SWAP10 DUP1 DUP1 PUSH1 0x3 SWAP7 SWAP5 PUSH2 0x4C24 SWAP10 SWAP9 SWAP7 SWAP5 PUSH1 0x0 DUP1 MLOAD PUSH1 0x20 PUSH2 0x98BB DUP4 CODECOPY DUP2 MLOAD SWAP2 MSTORE SWAP13 SWAP14 SWAP15 PUSH1 0x0 SWAP5 PUSH2 0x4C5D JUMPI JUMPDEST POP POP SHL SWAP2 PUSH1 0x0 NOT SWAP1 DUP8 SHL SHR NOT AND OR SWAP1 SSTORE JUMPDEST MLOAD PUSH1 0x2 DUP5 ADD SSTORE MLOAD ISZERO ISZERO SWAP2 ADD PUSH2 0x799C JUMP JUMPDEST DUP4 PUSH1 0x0 MSTORE PUSH1 0x18 DUP4 MSTORE PUSH2 0x4C40 PUSH1 0x3 PUSH1 0x40 PUSH1 0x0 KECCAK256 ADD PUSH1 0xC SLOAD SWAP1 PUSH2 0x823F JUMP JUMPDEST PUSH1 0xC SLOAD SWAP3 PUSH2 0x4C58 PUSH1 0x40 MLOAD SWAP3 DUP3 DUP5 SWAP4 DUP5 MSTORE DUP4 ADD SWAP1 PUSH2 0x6AAE JUMP JUMPDEST SUB SWAP1 LOG3 STOP JUMPDEST ADD MLOAD SWAP3 POP DUP15 DUP1 PUSH2 0x4C03 JUMP JUMPDEST SWAP10 SWAP1 PUSH1 0x1F NOT DUP3 AND SWAP11 DUP5 PUSH1 0x0 MSTORE DUP10 PUSH1 0x0 KECCAK256 SWAP12 PUSH1 0x0 JUMPDEST DUP2 DUP2 LT PUSH2 0x4CD0 JUMPI POP SWAP12 PUSH1 0x3 SWAP7 SWAP5 SWAP3 DUP5 SWAP3 PUSH2 0x4C24 SWAP11 SWAP10 SWAP8 SWAP6 PUSH1 0x0 DUP1 MLOAD PUSH1 0x20 PUSH2 0x98BB DUP4 CODECOPY DUP2 MLOAD SWAP2 MSTORE SWAP14 SWAP15 SWAP16 LT PUSH2 0x4CB8 JUMPI JUMPDEST POP POP POP DUP2 SHL ADD SWAP1 SSTORE PUSH2 0x4C14 JUMP JUMPDEST ADD MLOAD PUSH1 0x0 NOT DUP4 DUP10 SHL PUSH1 0xF8 AND SHR NOT AND SWAP1 SSTORE DUP13 DUP1 DUP1 PUSH2 0x4CAB JUMP JUMPDEST DUP4 DUP4 ADD MLOAD DUP15 SSTORE SWAP13 DUP6 ADD SWAP13 SWAP3 DUP12 ADD SWAP3 DUP12 ADD PUSH2 0x4C7C JUMP JUMPDEST PUSH1 0x40 MLOAD PUSH3 0x461BCD PUSH1 0xE5 SHL DUP2 MSTORE PUSH1 0x4 DUP2 ADD DUP4 SWAP1 MSTORE PUSH1 0x1E PUSH1 0x24 DUP3 ADD MSTORE PUSH32 0x506172656E742063617465676F727920646F6573206E6F742065786973740000 PUSH1 0x44 DUP3 ADD MSTORE PUSH1 0x64 SWAP1 REVERT JUMPDEST CALLVALUE PUSH2 0x5E2 JUMPI PUSH1 0x20 CALLDATASIZE PUSH1 0x3 NOT ADD SLT PUSH2 0x5E2 JUMPI PUSH1 0x4 CALLDATALOAD PUSH1 0x0 MSTORE PUSH1 0x15 PUSH1 0x20 MSTORE PUSH1 0x40 PUSH1 0x0 KECCAK256 DUP1 SLOAD PUSH1 0x1 PUSH1 0xA0 SHL PUSH1 0x1 SWAP1 SUB PUSH1 0x1 DUP4 ADD SLOAD AND SWAP2 PUSH1 0x40 MLOAD DUP1 DUP1 PUSH1 0x2 DUP5 ADD SWAP1 PUSH2 0x4D70 SWAP2 PUSH2 0x700F JUMP JUMPDEST SUB PUSH2 0x4D7B SWAP1 DUP3 PUSH2 0x6EA4 JUMP JUMPDEST PUSH1 0x40 MLOAD DUP1 PUSH2 0x4D8C DUP2 PUSH1 0x3 DUP7 ADD PUSH2 0x700F JUMP JUMPDEST SUB PUSH2 0x4D97 SWAP1 DUP3 PUSH2 0x6EA4 JUMP JUMPDEST PUSH1 0x4 DUP4 ADD SLOAD PUSH1 0x5 DUP5 ADD SLOAD SWAP1 PUSH1 0x40 MLOAD DUP1 DUP1 PUSH1 0x9 DUP9 ADD SWAP1 PUSH2 0x4DB5 SWAP2 PUSH2 0x700F JUMP JUMPDEST SUB PUSH2 0x4DC0 SWAP1 DUP3 PUSH2 0x6EA4 JUMP JUMPDEST PUSH1 0x40 MLOAD SWAP1 DUP2 PUSH2 0x4DD2 DUP2 PUSH1 0xA DUP11 ADD PUSH2 0x700F JUMP JUMPDEST SUB PUSH2 0x4DDD SWAP1 DUP4 PUSH2 0x6EA4 JUMP JUMPDEST PUSH1 0xB DUP8 ADD SLOAD SWAP3 PUSH1 0x40 MLOAD SWAP5 DUP6 DUP1 PUSH1 0xC DUP12 ADD SWAP1 PUSH2 0x4DF7 SWAP2 PUSH2 0x700F JUMP JUMPDEST SUB PUSH2 0x4E02 SWAP1 DUP8 PUSH2 0x6EA4 JUMP JUMPDEST PUSH1 0x40 MLOAD SWAP7 DUP8 PUSH2 0x4E14 DUP2 PUSH1 0xD DUP14 ADD PUSH2 0x700F JUMP JUMPDEST SUB PUSH2 0x4E1F SWAP1 DUP10 PUSH2 0x6EA4 JUMP JUMPDEST PUSH1 0xE DUP11 ADD SLOAD SWAP10 PUSH1 0xF ADD SLOAD SWAP9 PUSH1 0x40 MLOAD SWAP13 DUP14 SWAP13 DUP14 MSTORE PUSH1 0x20 DUP14 ADD MSTORE DUP12 PUSH2 0x1E0 PUSH1 0x40 DUP2 SWAP3 ADD MSTORE DUP13 ADD PUSH2 0x4E4C SWAP2 PUSH2 0x6AAE JUMP JUMPDEST DUP12 DUP2 SUB PUSH1 0x60 DUP14 ADD MSTORE PUSH2 0x4E5D SWAP2 PUSH2 0x6AAE JUMP JUMPDEST SWAP2 PUSH1 0x80 DUP12 ADD MSTORE PUSH1 0xA0 DUP11 ADD MSTORE DUP9 DUP2 SUB PUSH1 0xC0 DUP11 ADD MSTORE PUSH2 0x4E79 SWAP2 PUSH2 0x6AAE JUMP JUMPDEST DUP8 DUP2 SUB PUSH1 0xE0 DUP10 ADD MSTORE PUSH2 0x4E8A SWAP2 PUSH2 0x6AAE JUMP JUMPDEST SWAP1 PUSH2 0x100 DUP8 ADD MSTORE DUP6 DUP2 SUB PUSH2 0x120 DUP8 ADD MSTORE PUSH2 0x4EA3 SWAP2 PUSH2 0x6AAE JUMP JUMPDEST DUP5 DUP2 SUB PUSH2 0x140 DUP7 ADD MSTORE PUSH2 0x4EB5 SWAP2 PUSH2 0x6AAE JUMP JUMPDEST SWAP2 PUSH2 0x160 DUP5 ADD MSTORE PUSH1 0xFF DUP2 AND ISZERO ISZERO PUSH2 0x180 DUP5 ADD MSTORE DUP1 PUSH1 0x8 SHR PUSH1 0xFF AND ISZERO ISZERO PUSH2 0x1A0 DUP5 ADD MSTORE PUSH1 0x10 SHR PUSH1 0xFF AND ISZERO ISZERO PUSH2 0x1C0 DUP4 ADD MSTORE SUB SWAP1 RETURN JUMPDEST CALLVALUE PUSH2 0x5E2 JUMPI PUSH1 0x0 CALLDATASIZE PUSH1 0x3 NOT ADD SLT PUSH2 0x5E2 JUMPI PUSH2 0x4F02 PUSH2 0x75F2 JUMP JUMPDEST PUSH1 0x0 DUP1 SLOAD PUSH1 0x1 PUSH1 0x1 PUSH1 0xA0 SHL SUB NOT DUP2 AND DUP3 SSTORE PUSH1 0x1 PUSH1 0x1 PUSH1 0xA0 SHL SUB AND PUSH1 0x0 DUP1 MLOAD PUSH1 0x20 PUSH2 0x985B DUP4 CODECOPY DUP2 MLOAD SWAP2 MSTORE DUP3 DUP1 LOG3 STOP JUMPDEST CALLVALUE PUSH2 0x5E2 JUMPI PUSH1 0x20 CALLDATASIZE PUSH1 0x3 NOT ADD SLT PUSH2 0x5E2 JUMPI PUSH1 0x1 PUSH1 0x1 PUSH1 0xA0 SHL SUB PUSH2 0x4F51 PUSH2 0x6D9D JUMP JUMPDEST AND DUP1 ISZERO PUSH2 0x4F70 JUMPI PUSH1 0x0 MSTORE PUSH1 0x5 PUSH1 0x20 MSTORE PUSH1 0x20 PUSH1 0x40 PUSH1 0x0 KECCAK256 SLOAD PUSH1 0x40 MLOAD SWAP1 DUP2 MSTORE RETURN JUMPDEST PUSH1 0x40 MLOAD PUSH3 0x461BCD PUSH1 0xE5 SHL DUP2 MSTORE PUSH1 0x20 PUSH1 0x4 DUP3 ADD MSTORE PUSH1 0x29 PUSH1 0x24 DUP3 ADD MSTORE PUSH32 0x4552433732313A2061646472657373207A65726F206973206E6F742061207661 PUSH1 0x44 DUP3 ADD MSTORE PUSH9 0x3634B21037BBB732B9 PUSH1 0xB9 SHL PUSH1 0x64 DUP3 ADD MSTORE PUSH1 0x84 SWAP1 REVERT JUMPDEST CALLVALUE PUSH2 0x5E2 JUMPI PUSH1 0x20 DUP1 PUSH1 0x3 NOT CALLDATASIZE ADD SLT PUSH2 0x5E2 JUMPI PUSH2 0x4FE1 PUSH2 0x6D9D JUMP JUMPDEST PUSH1 0x40 MLOAD SWAP1 PUSH2 0x4FEE DUP3 PUSH2 0x6E53 JUMP JUMPDEST PUSH1 0x0 PUSH1 0x80 PUSH1 0x60 SWAP4 DUP5 DUP2 MSTORE DUP5 DUP7 DUP3 ADD MSTORE DUP5 PUSH1 0x40 DUP3 ADD MSTORE DUP3 DUP6 DUP3 ADD MSTORE ADD MSTORE PUSH1 0x1 DUP1 PUSH1 0xA0 SHL SUB AND SWAP1 DUP2 PUSH1 0x0 MSTORE PUSH1 0x14 DUP4 MSTORE PUSH1 0xFF PUSH1 0x40 PUSH1 0x0 KECCAK256 SLOAD AND SWAP2 PUSH1 0x10 DUP5 MSTORE PUSH1 0x40 PUSH1 0x0 KECCAK256 SWAP2 PUSH1 0x40 MLOAD SWAP2 PUSH2 0x503C DUP4 PUSH2 0x6E53 JUMP JUMPDEST PUSH1 0x40 MLOAD PUSH2 0x504D DUP2 PUSH2 0x3CE DUP2 DUP9 PUSH2 0x700F JUMP JUMPDEST DUP4 MSTORE PUSH1 0x40 MLOAD SWAP1 PUSH2 0x5064 DUP3 PUSH2 0x342B DUP2 PUSH1 0x1 DUP10 ADD PUSH2 0x700F JUMP JUMPDEST DUP7 DUP5 ADD SWAP2 DUP3 MSTORE PUSH1 0x40 MLOAD SWAP2 PUSH2 0x507F DUP4 PUSH2 0x630 DUP2 PUSH1 0x2 DUP11 ADD PUSH2 0x700F JUMP JUMPDEST PUSH1 0x40 DUP6 ADD SWAP3 DUP4 MSTORE PUSH1 0xFF PUSH1 0x4 PUSH1 0x3 DUP9 ADD SLOAD SWAP8 DUP7 DUP9 ADD SWAP9 DUP10 MSTORE ADD SLOAD AND SWAP2 PUSH1 0x80 DUP7 ADD SWAP3 ISZERO ISZERO DUP4 MSTORE PUSH1 0x0 MSTORE PUSH1 0x13 DUP9 MSTORE PUSH1 0xFF PUSH1 0x40 PUSH1 0x0 KECCAK256 SLOAD AND SWAP3 DUP4 PUSH1 0x0 EQ PUSH2 0x5142 JUMPI PUSH1 0x12 DUP10 MSTORE PUSH1 0xFF PUSH1 0x40 PUSH1 0x0 KECCAK256 SLOAD AND SWAP6 JUMPDEST PUSH1 0x40 MLOAD SWAP10 DUP11 SWAP10 ISZERO ISZERO DUP11 MSTORE DUP10 ADD PUSH1 0x80 SWAP1 MSTORE MLOAD PUSH1 0x80 DUP10 ADD PUSH1 0xA0 SWAP1 MSTORE PUSH2 0x120 DUP10 ADD PUSH2 0x50F2 SWAP2 PUSH2 0x6AAE JUMP JUMPDEST SWAP2 MLOAD PUSH1 0x7F NOT SWAP3 DUP4 DUP11 DUP3 SUB ADD PUSH1 0xA0 DUP12 ADD MSTORE PUSH2 0x510B SWAP2 PUSH2 0x6AAE JUMP JUMPDEST SWAP1 MLOAD SWAP2 DUP9 DUP3 SUB ADD PUSH1 0xC0 DUP10 ADD MSTORE PUSH2 0x5120 SWAP2 PUSH2 0x6AAE JUMP JUMPDEST SWAP5 MLOAD PUSH1 0xE0 DUP8 ADD MSTORE MLOAD ISZERO ISZERO PUSH2 0x100 DUP7 ADD MSTORE ISZERO ISZERO PUSH1 0x40 DUP6 ADD MSTORE DUP4 ADD PUSH2 0x35E SWAP2 PUSH2 0x7336 JUMP JUMPDEST PUSH1 0x0 SWAP6 PUSH2 0x50CB JUMP JUMPDEST CALLVALUE PUSH2 0x5E2 JUMPI PUSH1 0x20 CALLDATASIZE PUSH1 0x3 NOT ADD SLT PUSH2 0x5E2 JUMPI PUSH1 0x4 CALLDATALOAD PUSH1 0x0 MSTORE PUSH1 0x19 PUSH1 0x20 MSTORE PUSH1 0x40 PUSH1 0x0 KECCAK256 PUSH1 0x40 MLOAD PUSH2 0x5177 DUP2 PUSH2 0x6E38 JUMP JUMPDEST DUP2 SLOAD DUP2 MSTORE PUSH1 0x40 MLOAD SWAP1 PUSH2 0x5190 DUP3 PUSH2 0x342B DUP2 PUSH1 0x1 DUP8 ADD PUSH2 0x700F JUMP JUMPDEST PUSH1 0x20 DUP2 ADD SWAP2 DUP3 MSTORE PUSH1 0xFF PUSH1 0x3 PUSH1 0x2 DUP6 ADD SLOAD SWAP5 PUSH1 0x40 DUP5 ADD SWAP6 DUP7 MSTORE ADD SLOAD AND SWAP1 PUSH1 0x60 DUP2 ADD SWAP2 ISZERO ISZERO DUP3 MSTORE PUSH2 0x51C1 DUP2 MLOAD ISZERO ISZERO PUSH2 0x8609 JUMP JUMPDEST MLOAD SWAP2 MLOAD SWAP3 MLOAD SWAP1 MLOAD ISZERO ISZERO PUSH2 0x51E6 PUSH1 0x40 MLOAD SWAP5 DUP6 SWAP5 DUP6 MSTORE PUSH1 0x80 PUSH1 0x20 DUP7 ADD MSTORE PUSH1 0x80 DUP6 ADD SWAP1 PUSH2 0x6AAE JUMP JUMPDEST SWAP2 PUSH1 0x40 DUP5 ADD MSTORE PUSH1 0x60 DUP4 ADD MSTORE SUB SWAP1 RETURN JUMPDEST CALLVALUE PUSH2 0x5E2 JUMPI PUSH2 0x5203 CALLDATASIZE PUSH2 0x6F96 JUMP JUMPDEST PUSH2 0x520E SWAP3 SWAP2 SWAP3 PUSH2 0x75F2 JUMP JUMPDEST DUP2 PUSH1 0x0 MSTORE PUSH1 0x20 SWAP3 PUSH1 0x18 DUP5 MSTORE PUSH2 0x5229 PUSH1 0x40 PUSH1 0x0 KECCAK256 SLOAD ISZERO ISZERO PUSH2 0x85A3 JUMP JUMPDEST PUSH2 0x5235 DUP2 MLOAD ISZERO ISZERO PUSH2 0x84F1 JUMP JUMPDEST PUSH1 0x0 DUP4 DUP2 MSTORE PUSH1 0x18 DUP6 MSTORE PUSH1 0x40 SWAP1 KECCAK256 DUP2 MLOAD SWAP5 SWAP1 PUSH1 0x1 SWAP1 DUP2 ADD SWAP1 PUSH1 0x1 PUSH1 0x1 PUSH1 0x40 SHL SUB DUP8 GT PUSH2 0x144F JUMPI PUSH2 0x5268 DUP8 PUSH2 0x3A45 DUP5 SLOAD PUSH2 0x6FD5 JUMP JUMPDEST DUP3 PUSH1 0x1F DUP9 GT PUSH1 0x1 EQ PUSH2 0x52D6 JUMPI SWAP7 DUP1 DUP1 PUSH1 0x18 SWAP6 SWAP5 SWAP4 PUSH1 0x0 DUP1 MLOAD PUSH1 0x20 PUSH2 0x983B DUP4 CODECOPY DUP2 MLOAD SWAP2 MSTORE SWAP10 SWAP11 PUSH1 0x0 SWAP4 PUSH2 0x52CB JUMPI JUMPDEST POP SHL SWAP2 PUSH1 0x0 NOT SWAP1 PUSH1 0x3 SHL SHR NOT AND OR SWAP1 SSTORE JUMPDEST DUP6 PUSH1 0x0 MSTORE MSTORE PUSH2 0x52BC DUP3 PUSH1 0x2 PUSH1 0x40 PUSH1 0x0 KECCAK256 ADD PUSH2 0x799C JUMP JUMPDEST PUSH2 0x1CCA PUSH1 0x40 MLOAD SWAP3 DUP4 SWAP3 DUP4 PUSH2 0x85E9 JUMP JUMPDEST DUP9 ADD MLOAD SWAP3 POP DUP12 PUSH2 0x5295 JUMP JUMPDEST SWAP7 PUSH1 0x1F NOT DUP2 AND SWAP8 DUP4 PUSH1 0x0 MSTORE DUP5 PUSH1 0x0 KECCAK256 SWAP9 PUSH1 0x0 JUMPDEST DUP2 DUP2 LT PUSH2 0x5336 JUMPI POP SWAP9 DUP3 SWAP2 PUSH1 0x18 SWAP7 SWAP6 SWAP5 SWAP4 PUSH1 0x0 DUP1 MLOAD PUSH1 0x20 PUSH2 0x983B DUP4 CODECOPY DUP2 MLOAD SWAP2 MSTORE SWAP11 SWAP12 LT PUSH2 0x531D JUMPI JUMPDEST POP POP DUP2 SHL ADD SWAP1 SSTORE PUSH2 0x52A6 JUMP JUMPDEST DUP8 ADD MLOAD PUSH1 0x0 NOT PUSH1 0xF8 DUP5 PUSH1 0x3 SHL AND SHR NOT AND SWAP1 SSTORE DUP10 DUP1 PUSH2 0x5311 JUMP JUMPDEST DUP8 DUP4 ADD MLOAD DUP12 SSTORE SWAP10 DUP5 ADD SWAP10 SWAP2 DUP7 ADD SWAP2 DUP7 ADD PUSH2 0x52E9 JUMP JUMPDEST CALLVALUE PUSH2 0x5E2 JUMPI PUSH1 0x20 CALLDATASIZE PUSH1 0x3 NOT ADD SLT PUSH2 0x5E2 JUMPI PUSH1 0x20 PUSH2 0x5369 PUSH1 0x4 CALLDATALOAD PUSH2 0x7691 JUMP JUMPDEST PUSH1 0x40 MLOAD PUSH1 0x1 PUSH1 0x1 PUSH1 0xA0 SHL SUB SWAP1 SWAP2 AND DUP2 MSTORE RETURN JUMPDEST CALLVALUE PUSH2 0x5E2 JUMPI PUSH1 0x20 CALLDATASIZE PUSH1 0x3 NOT ADD SLT PUSH2 0x5E2 JUMPI PUSH1 0x1 PUSH1 0x1 PUSH1 0xA0 SHL SUB PUSH2 0x539C PUSH2 0x6D9D JUMP JUMPDEST AND PUSH1 0x0 MSTORE PUSH1 0x1A PUSH1 0x20 MSTORE PUSH1 0x20 PUSH1 0x40 PUSH1 0x0 KECCAK256 SLOAD PUSH1 0x40 MLOAD SWAP1 DUP2 MSTORE RETURN JUMPDEST CALLVALUE PUSH2 0x5E2 JUMPI PUSH1 0x20 CALLDATASIZE PUSH1 0x3 NOT ADD SLT PUSH2 0x5E2 JUMPI PUSH1 0x4 CALLDATALOAD PUSH2 0x53D1 PUSH2 0x75F2 JUMP JUMPDEST PUSH1 0x64 DUP2 GT PUSH2 0x53DE JUMPI PUSH1 0xD SSTORE STOP JUMPDEST PUSH1 0x40 MLOAD PUSH3 0x461BCD PUSH1 0xE5 SHL DUP2 MSTORE PUSH1 0x20 PUSH1 0x4 DUP3 ADD MSTORE PUSH1 0x12 PUSH1 0x24 DUP3 ADD MSTORE PUSH18 0x496E76616C69642070657263656E74616765 PUSH1 0x70 SHL PUSH1 0x44 DUP3 ADD MSTORE PUSH1 0x64 SWAP1 REVERT JUMPDEST CALLVALUE PUSH2 0x5E2 JUMPI PUSH1 0x0 CALLDATASIZE PUSH1 0x3 NOT ADD SLT PUSH2 0x5E2 JUMPI PUSH1 0x40 MLOAD DUP1 PUSH1 0xE SLOAD DUP1 DUP4 MSTORE PUSH1 0x20 DUP1 SWAP4 ADD DUP1 SWAP2 PUSH1 0xE PUSH1 0x0 MSTORE DUP5 PUSH1 0x0 KECCAK256 SWAP1 PUSH1 0x0 JUMPDEST DUP7 DUP3 DUP3 LT PUSH2 0x54A6 JUMPI DUP7 DUP7 PUSH2 0x545D DUP3 DUP9 SUB DUP4 PUSH2 0x6EA4 JUMP JUMPDEST PUSH1 0x40 MLOAD SWAP3 DUP4 SWAP3 DUP2 DUP5 ADD SWAP1 DUP3 DUP6 MSTORE MLOAD DUP1 SWAP2 MSTORE PUSH1 0x40 DUP5 ADD SWAP3 SWAP2 PUSH1 0x0 JUMPDEST DUP3 DUP2 LT PUSH2 0x5486 JUMPI POP POP POP POP SUB SWAP1 RETURN JUMPDEST DUP4 MLOAD PUSH1 0x1 PUSH1 0x1 PUSH1 0xA0 SHL SUB AND DUP6 MSTORE DUP7 SWAP6 POP SWAP4 DUP2 ADD SWAP4 SWAP3 DUP2 ADD SWAP3 PUSH1 0x1 ADD PUSH2 0x5477 JUMP JUMPDEST DUP4 SLOAD PUSH1 0x1 PUSH1 0x1 PUSH1 0xA0 SHL SUB AND DUP6 MSTORE SWAP1 SWAP4 ADD SWAP3 PUSH1 0x1 SWAP3 DUP4 ADD SWAP3 ADD PUSH2 0x5447 JUMP JUMPDEST CALLVALUE PUSH2 0x5E2 JUMPI PUSH1 0x20 CALLDATASIZE PUSH1 0x3 NOT ADD SLT PUSH2 0x5E2 JUMPI PUSH1 0x4 CALLDATALOAD PUSH1 0xF SLOAD DUP2 LT ISZERO PUSH2 0x5E2 JUMPI PUSH1 0xF PUSH1 0x0 MSTORE PUSH1 0x0 DUP1 MLOAD PUSH1 0x20 PUSH2 0x98FB DUP4 CODECOPY DUP2 MLOAD SWAP2 MSTORE ADD SLOAD PUSH1 0x40 MLOAD PUSH1 0x1 PUSH1 0x1 PUSH1 0xA0 SHL SUB SWAP1 SWAP2 AND DUP2 MSTORE PUSH1 0x20 SWAP1 RETURN JUMPDEST CALLVALUE PUSH2 0x5E2 JUMPI PUSH1 0x20 CALLDATASIZE PUSH1 0x3 NOT ADD SLT PUSH2 0x5E2 JUMPI PUSH1 0x1 PUSH1 0x1 PUSH1 0xA0 SHL SUB PUSH2 0x552D PUSH2 0x6D9D JUMP JUMPDEST AND PUSH1 0x0 MSTORE PUSH1 0x12 PUSH1 0x20 MSTORE PUSH1 0x20 PUSH1 0xFF PUSH1 0x40 PUSH1 0x0 KECCAK256 SLOAD AND PUSH2 0x8C0 PUSH1 0x40 MLOAD DUP1 SWAP3 PUSH2 0x7336 JUMP JUMPDEST CALLVALUE PUSH2 0x5E2 JUMPI PUSH1 0x20 DUP1 PUSH1 0x3 NOT CALLDATASIZE ADD SLT PUSH2 0x5E2 JUMPI PUSH2 0x5568 PUSH2 0x6D9D JUMP JUMPDEST PUSH2 0x5570 PUSH2 0x7BD8 JUMP JUMPDEST POP PUSH1 0x1 PUSH1 0x1 PUSH1 0xA0 SHL SUB AND PUSH1 0x0 DUP2 DUP2 MSTORE PUSH1 0x13 DUP4 MSTORE PUSH1 0x40 SWAP1 KECCAK256 SLOAD PUSH2 0x5594 SWAP1 PUSH1 0xFF AND PUSH2 0x7C0F JUMP JUMPDEST PUSH1 0x0 MSTORE PUSH1 0x11 DUP2 MSTORE PUSH1 0x40 PUSH1 0x0 KECCAK256 SWAP1 PUSH1 0xFF PUSH1 0x6 PUSH1 0x40 MLOAD SWAP4 PUSH2 0x55B2 DUP6 PUSH2 0x6E01 JUMP JUMPDEST PUSH1 0x40 MLOAD PUSH2 0x55C3 DUP2 PUSH2 0x3CE DUP2 DUP6 PUSH2 0x700F JUMP JUMPDEST DUP6 MSTORE PUSH1 0x40 MLOAD PUSH2 0x55D9 DUP2 PUSH2 0x3CE DUP2 PUSH1 0x1 DUP7 ADD PUSH2 0x700F JUMP JUMPDEST DUP5 DUP7 ADD MSTORE PUSH1 0x40 MLOAD PUSH2 0x55F1 DUP2 PUSH2 0x3CE DUP2 PUSH1 0x2 DUP7 ADD PUSH2 0x700F JUMP JUMPDEST PUSH1 0x40 DUP7 ADD MSTORE PUSH1 0x40 MLOAD PUSH2 0x560A DUP2 PUSH2 0x3CE DUP2 PUSH1 0x3 DUP7 ADD PUSH2 0x700F JUMP JUMPDEST PUSH1 0x60 DUP7 ADD MSTORE PUSH1 0x40 MLOAD PUSH2 0x5623 DUP2 PUSH2 0x3CE DUP2 PUSH1 0x4 DUP7 ADD PUSH2 0x700F JUMP JUMPDEST PUSH1 0x80 DUP7 ADD MSTORE PUSH1 0x5 DUP2 ADD SLOAD PUSH1 0xA0 DUP7 ADD MSTORE ADD SLOAD AND ISZERO ISZERO PUSH1 0xC0 DUP4 ADD MSTORE PUSH2 0x35E PUSH1 0x40 MLOAD SWAP3 DUP3 DUP5 SWAP4 DUP5 MSTORE DUP4 ADD SWAP1 PUSH2 0x72B6 JUMP JUMPDEST CALLVALUE PUSH2 0x5E2 JUMPI PUSH2 0x13AC PUSH2 0x5661 CALLDATASIZE PUSH2 0x6F61 JUMP JUMPDEST SWAP1 PUSH1 0x40 MLOAD SWAP3 PUSH2 0x566F DUP5 PUSH2 0x6E89 JUMP JUMPDEST PUSH1 0x0 DUP5 MSTORE PUSH2 0x773D JUMP JUMPDEST CALLVALUE PUSH2 0x5E2 JUMPI PUSH1 0x0 CALLDATASIZE PUSH1 0x3 NOT ADD SLT PUSH2 0x5E2 JUMPI PUSH2 0x5691 PUSH2 0x8718 JUMP JUMPDEST CALLER PUSH1 0x0 MSTORE PUSH1 0x20 PUSH1 0x13 DUP2 MSTORE PUSH1 0xFF PUSH1 0x40 PUSH1 0x0 KECCAK256 SLOAD AND ISZERO PUSH2 0x5774 JUMPI CALLER PUSH1 0x0 MSTORE PUSH1 0x1A DUP2 MSTORE PUSH1 0x40 PUSH1 0x0 KECCAK256 SLOAD SWAP1 DUP2 ISZERO PUSH2 0x5737 JUMPI PUSH2 0x572B PUSH2 0x5731 SWAP3 PUSH2 0x56DE PUSH1 0x64 PUSH2 0x56D6 PUSH1 0xD SLOAD DUP5 PUSH2 0x806C JUMP JUMPDEST DIV DUP1 SWAP3 PUSH2 0x86BE JUMP JUMPDEST SWAP3 CALLER PUSH1 0x0 MSTORE PUSH1 0x1A DUP2 MSTORE PUSH1 0x0 PUSH1 0x40 DUP2 KECCAK256 SSTORE PUSH32 0x8AD64A0AC7700DD8425AB0499F107CB6E2CD1581D803C5B8C1C79DCB8190B1AF PUSH1 0x40 MLOAD SWAP2 PUSH1 0x0 DUP4 MSTORE CALLER SWAP3 LOG2 PUSH1 0x0 SLOAD PUSH1 0x1 PUSH1 0x1 PUSH1 0xA0 SHL SUB AND PUSH2 0x9746 JUMP JUMPDEST CALLER PUSH2 0x9746 JUMP JUMPDEST PUSH1 0x1 DUP1 SSTORE STOP JUMPDEST PUSH1 0x64 SWAP1 PUSH1 0x40 MLOAD SWAP1 PUSH3 0x461BCD PUSH1 0xE5 SHL DUP3 MSTORE PUSH1 0x4 DUP3 ADD MSTORE PUSH1 0x16 PUSH1 0x24 DUP3 ADD MSTORE PUSH22 0x4E6F2062616C616E636520746F207769746864726177 PUSH1 0x50 SHL PUSH1 0x44 DUP3 ADD MSTORE REVERT JUMPDEST PUSH1 0x64 SWAP1 PUSH1 0x40 MLOAD SWAP1 PUSH3 0x461BCD PUSH1 0xE5 SHL DUP3 MSTORE PUSH1 0x4 DUP3 ADD MSTORE PUSH1 0x1B PUSH1 0x24 DUP3 ADD MSTORE PUSH27 0x26BAB9BA1031329030903932B3B4B9BA32B932B21039B2B63632B9 PUSH1 0x29 SHL PUSH1 0x44 DUP3 ADD MSTORE REVERT JUMPDEST CALLVALUE PUSH2 0x5E2 JUMPI PUSH1 0x20 DUP1 PUSH1 0x3 NOT CALLDATASIZE ADD SLT PUSH2 0x5E2 JUMPI PUSH1 0x1 PUSH1 0x1 PUSH1 0xA0 SHL SUB SWAP1 DUP2 PUSH2 0x57DA PUSH2 0x6D9D JUMP JUMPDEST AND PUSH1 0x0 MSTORE PUSH1 0x1C DUP2 MSTORE PUSH1 0x40 PUSH1 0x0 KECCAK256 DUP1 SLOAD SWAP1 PUSH2 0x57F3 DUP3 PUSH2 0x7443 JUMP JUMPDEST SWAP3 PUSH2 0x5801 PUSH1 0x40 MLOAD SWAP5 DUP6 PUSH2 0x6EA4 JUMP JUMPDEST DUP3 DUP5 MSTORE PUSH1 0x0 SWAP2 DUP3 MSTORE DUP1 DUP3 KECCAK256 DUP2 DUP6 ADD JUMPDEST DUP5 DUP5 LT PUSH2 0x5825 JUMPI PUSH1 0x40 MLOAD DUP1 PUSH2 0x35E DUP9 DUP3 PUSH2 0x71D5 JUMP JUMPDEST PUSH1 0x16 DUP4 PUSH1 0x1 SWAP3 PUSH1 0x40 MLOAD PUSH2 0x5837 DUP2 PUSH2 0x6E1C JUMP JUMPDEST DUP6 SLOAD DUP2 MSTORE DUP5 DUP7 ADD SLOAD DUP4 DUP3 ADD MSTORE PUSH1 0x2 DUP7 ADD SLOAD PUSH1 0x40 DUP3 ADD MSTORE PUSH1 0x3 DUP7 ADD SLOAD PUSH1 0x60 DUP3 ADD MSTORE PUSH1 0x4 DUP7 ADD SLOAD PUSH1 0x80 DUP3 ADD MSTORE PUSH1 0xFF DUP12 PUSH1 0x5 DUP9 ADD SLOAD AND PUSH1 0xA0 SWAP1 DUP2 DUP5 ADD MSTORE PUSH1 0x6 DUP9 ADD SLOAD SWAP1 DUP14 DUP3 AND PUSH1 0xC0 DUP6 ADD MSTORE SHR AND ISZERO ISZERO PUSH1 0xE0 DUP3 ADD MSTORE PUSH2 0x5894 PUSH1 0x7 DUP8 ADD PUSH2 0x7377 JUMP JUMPDEST PUSH2 0x100 DUP3 ADD MSTORE PUSH2 0x58A6 PUSH1 0xF DUP8 ADD PUSH2 0x74BF JUMP JUMPDEST PUSH2 0x120 DUP3 ADD MSTORE DUP2 MSTORE ADD SWAP3 ADD SWAP4 ADD SWAP3 SWAP1 PUSH2 0x5810 JUMP JUMPDEST CALLVALUE PUSH2 0x5E2 JUMPI PUSH1 0x20 CALLDATASIZE PUSH1 0x3 NOT ADD SLT PUSH2 0x5E2 JUMPI PUSH1 0x1 PUSH1 0x1 PUSH1 0xA0 SHL SUB PUSH2 0x58DB PUSH2 0x6D9D JUMP JUMPDEST AND PUSH1 0x0 MSTORE PUSH1 0x10 PUSH1 0x20 MSTORE PUSH2 0x594E PUSH1 0x40 PUSH1 0x0 KECCAK256 PUSH1 0x40 MLOAD SWAP1 PUSH2 0x58FE DUP3 PUSH2 0x342B DUP2 DUP5 PUSH2 0x700F JUMP JUMPDEST PUSH1 0x40 MLOAD PUSH2 0x5912 DUP2 PUSH2 0x3CE DUP2 PUSH1 0x1 DUP7 ADD PUSH2 0x700F JUMP JUMPDEST PUSH2 0x596A PUSH1 0x40 MLOAD PUSH2 0x5929 DUP2 PUSH2 0x3CE DUP2 PUSH1 0x2 DUP9 ADD PUSH2 0x700F JUMP JUMPDEST PUSH2 0x595C PUSH1 0xFF PUSH1 0x4 PUSH1 0x3 DUP8 ADD SLOAD SWAP7 ADD SLOAD AND SWAP4 PUSH1 0x40 MLOAD SWAP8 DUP9 SWAP8 PUSH1 0xA0 DUP10 MSTORE PUSH1 0xA0 DUP10 ADD SWAP1 PUSH2 0x6AAE JUMP JUMPDEST SWAP1 DUP8 DUP3 SUB PUSH1 0x20 DUP10 ADD MSTORE PUSH2 0x6AAE JUMP JUMPDEST SWAP1 DUP6 DUP3 SUB PUSH1 0x40 DUP8 ADD MSTORE PUSH2 0x6AAE JUMP JUMPDEST SWAP2 PUSH1 0x60 DUP5 ADD MSTORE ISZERO ISZERO PUSH1 0x80 DUP4 ADD MSTORE SUB SWAP1 RETURN JUMPDEST CALLVALUE PUSH2 0x5E2 JUMPI PUSH2 0x5989 CALLDATASIZE PUSH2 0x6F96 JUMP JUMPDEST PUSH2 0x5994 SWAP3 SWAP2 SWAP3 PUSH2 0x75F2 JUMP JUMPDEST DUP2 PUSH1 0x0 MSTORE PUSH1 0x20 SWAP3 PUSH1 0x19 DUP5 MSTORE PUSH2 0x59AF PUSH1 0x40 PUSH1 0x0 KECCAK256 SLOAD ISZERO ISZERO PUSH2 0x8609 JUMP JUMPDEST PUSH2 0x59BB DUP2 MLOAD ISZERO ISZERO PUSH2 0x853D JUMP JUMPDEST PUSH1 0x0 DUP4 DUP2 MSTORE PUSH1 0x19 DUP6 MSTORE PUSH1 0x40 SWAP1 KECCAK256 DUP2 MLOAD SWAP5 SWAP1 PUSH1 0x1 SWAP1 DUP2 ADD SWAP1 PUSH1 0x1 PUSH1 0x1 PUSH1 0x40 SHL SUB DUP8 GT PUSH2 0x144F JUMPI PUSH2 0x59EE DUP8 PUSH2 0x3A45 DUP5 SLOAD PUSH2 0x6FD5 JUMP JUMPDEST DUP3 PUSH1 0x1F DUP9 GT PUSH1 0x1 EQ PUSH2 0x5A4D JUMPI SWAP7 DUP1 DUP1 PUSH1 0x19 SWAP6 SWAP5 SWAP4 PUSH1 0x0 DUP1 MLOAD PUSH1 0x20 PUSH2 0x98DB DUP4 CODECOPY DUP2 MLOAD SWAP2 MSTORE SWAP10 SWAP11 PUSH1 0x0 SWAP4 PUSH2 0x5A42 JUMPI JUMPDEST POP SHL SWAP2 PUSH1 0x0 NOT SWAP1 PUSH1 0x3 SHL SHR NOT AND OR SWAP1 SSTORE JUMPDEST DUP6 PUSH1 0x0 MSTORE MSTORE PUSH2 0x52BC DUP3 PUSH1 0x3 PUSH1 0x40 PUSH1 0x0 KECCAK256 ADD PUSH2 0x799C JUMP JUMPDEST DUP9 ADD MLOAD SWAP3 POP DUP12 PUSH2 0x5A1B JUMP JUMPDEST SWAP7 PUSH1 0x1F NOT DUP2 AND SWAP8 DUP4 PUSH1 0x0 MSTORE DUP5 PUSH1 0x0 KECCAK256 SWAP9 PUSH1 0x0 JUMPDEST DUP2 DUP2 LT PUSH2 0x5AAD JUMPI POP SWAP9 DUP3 SWAP2 PUSH1 0x19 SWAP7 SWAP6 SWAP5 SWAP4 PUSH1 0x0 DUP1 MLOAD PUSH1 0x20 PUSH2 0x98DB DUP4 CODECOPY DUP2 MLOAD SWAP2 MSTORE SWAP11 SWAP12 LT PUSH2 0x5A94 JUMPI JUMPDEST POP POP DUP2 SHL ADD SWAP1 SSTORE PUSH2 0x5A2C JUMP JUMPDEST DUP8 ADD MLOAD PUSH1 0x0 NOT PUSH1 0xF8 DUP5 PUSH1 0x3 SHL AND SHR NOT AND SWAP1 SSTORE DUP10 DUP1 PUSH2 0x5A88 JUMP JUMPDEST DUP8 DUP4 ADD MLOAD DUP12 SSTORE SWAP10 DUP5 ADD SWAP10 SWAP2 DUP7 ADD SWAP2 DUP7 ADD PUSH2 0x5A60 JUMP JUMPDEST CALLVALUE PUSH2 0x5E2 JUMPI PUSH1 0x40 CALLDATASIZE PUSH1 0x3 NOT ADD SLT PUSH2 0x5E2 JUMPI PUSH1 0x24 DUP1 CALLDATALOAD PUSH1 0x4 CALLDATALOAD PUSH1 0x0 DUP1 JUMPDEST DUP3 PUSH1 0x0 MSTORE PUSH1 0x15 PUSH1 0x20 SWAP1 DUP1 DUP3 MSTORE PUSH1 0x10 SWAP2 DUP3 PUSH1 0x40 PUSH1 0x0 KECCAK256 ADD DUP1 SLOAD DUP6 LT ISZERO PUSH2 0x5CD8 JUMPI PUSH2 0x5B08 DUP6 DUP10 SWAP3 PUSH2 0x86FC JUMP JUMPDEST POP SLOAD EQ PUSH2 0x5B20 JUMPI POP POP POP PUSH2 0x5B1B SWAP1 PUSH2 0x847E JUMP JUMPDEST PUSH2 0x5ADE JUMP JUMPDEST SWAP2 SWAP4 POP SWAP2 SWAP4 SWAP5 PUSH1 0x0 MSTORE PUSH1 0x1D DUP2 MSTORE PUSH1 0xFF SWAP5 DUP6 PUSH1 0x40 PUSH1 0x0 KECCAK256 SLOAD AND ISZERO PUSH2 0x5C9E JUMPI DUP1 PUSH1 0x0 MSTORE DUP3 DUP3 MSTORE PUSH2 0x5B54 DUP6 DUP6 PUSH1 0x40 PUSH1 0x0 KECCAK256 ADD PUSH2 0x86FC JUMP JUMPDEST POP PUSH1 0x1 SWAP1 DUP2 ADD SLOAD SWAP1 SWAP7 SWAP1 CALLER PUSH1 0x1 PUSH1 0x1 PUSH1 0xA0 SHL SUB SWAP2 DUP3 AND EQ SWAP1 DUP2 ISZERO PUSH2 0x5C90 JUMPI JUMPDEST POP ISZERO PUSH2 0x5C3B JUMPI DUP2 PUSH1 0x0 MSTORE DUP4 DUP4 MSTORE PUSH1 0x4 PUSH2 0x5B92 DUP8 DUP8 PUSH1 0x40 PUSH1 0x0 KECCAK256 ADD PUSH2 0x86FC JUMP JUMPDEST POP ADD SLOAD AND PUSH2 0x5BFE JUMPI SWAP2 PUSH2 0x5BB3 SWAP4 SWAP2 PUSH1 0x4 SWAP6 SWAP4 PUSH1 0x0 MSTORE MSTORE PUSH1 0x40 PUSH1 0x0 KECCAK256 ADD PUSH2 0x86FC JUMP JUMPDEST POP ADD DUP1 SLOAD PUSH1 0xFF NOT AND DUP3 OR SWAP1 SSTORE JUMPDEST ISZERO PUSH2 0x5BC7 JUMPI STOP JUMPDEST PUSH1 0x64 SWAP1 PUSH1 0x10 PUSH1 0x40 MLOAD SWAP2 PUSH3 0x461BCD PUSH1 0xE5 SHL DUP4 MSTORE PUSH1 0x20 PUSH1 0x4 DUP5 ADD MSTORE DUP3 ADD MSTORE PUSH16 0x14995D9A595DC81B9BDD08199BDD5B99 PUSH1 0x82 SHL PUSH1 0x44 DUP3 ADD MSTORE REVERT JUMPDEST PUSH1 0x40 MLOAD PUSH3 0x461BCD PUSH1 0xE5 SHL DUP2 MSTORE PUSH1 0x4 DUP2 ADD DUP4 SWAP1 MSTORE PUSH1 0x16 DUP2 DUP10 ADD MSTORE PUSH22 0x14995D9A595DC8185B1C9958591E4819195B195D1959 PUSH1 0x52 SHL PUSH1 0x44 DUP3 ADD MSTORE PUSH1 0x64 SWAP1 REVERT JUMPDEST PUSH1 0x40 MLOAD PUSH3 0x461BCD PUSH1 0xE5 SHL DUP2 MSTORE PUSH1 0x4 DUP2 ADD DUP5 SWAP1 MSTORE PUSH1 0x28 DUP2 DUP11 ADD MSTORE PUSH32 0x4F6E6C79207265766965776572206F72206F776E65722063616E2064656C6574 PUSH1 0x44 DUP3 ADD MSTORE PUSH8 0x6520726576696577 PUSH1 0xC0 SHL PUSH1 0x64 DUP3 ADD MSTORE PUSH1 0x84 SWAP1 REVERT JUMPDEST PUSH1 0x0 SLOAD AND CALLER EQ SWAP1 POP DUP10 PUSH2 0x5B73 JUMP JUMPDEST POP PUSH1 0x64 SWAP2 DUP7 PUSH1 0x40 MLOAD SWAP3 PUSH3 0x461BCD PUSH1 0xE5 SHL DUP5 MSTORE PUSH1 0x4 DUP5 ADD MSTORE DUP3 ADD MSTORE PUSH21 0x14995D9A595DC8191BD95CC81B9BDD08195E1A5CDD PUSH1 0x5A SHL PUSH1 0x44 DUP3 ADD MSTORE REVERT JUMPDEST POP POP POP POP POP SWAP2 POP POP PUSH2 0x5BC0 JUMP JUMPDEST CALLVALUE PUSH2 0x5E2 JUMPI PUSH2 0x13AC PUSH2 0x5CF6 CALLDATASIZE PUSH2 0x6F61 JUMP JUMPDEST SWAP2 PUSH2 0x5D09 PUSH2 0x5D04 DUP5 CALLER PUSH2 0x77D8 JUMP JUMPDEST PUSH2 0x76DB JUMP JUMPDEST PUSH2 0x78A0 JUMP JUMPDEST PUSH1 0x3 NOT PUSH1 0xA0 CALLDATASIZE DUP3 ADD SLT PUSH2 0x5E2 JUMPI PUSH1 0x1 PUSH1 0x1 PUSH1 0x40 SHL SUB PUSH1 0x24 CALLDATALOAD GT PUSH2 0x5E2 JUMPI PUSH2 0x100 SWAP1 PUSH1 0x24 CALLDATALOAD CALLDATASIZE SUB ADD SLT PUSH2 0x5E2 JUMPI PUSH1 0x44 CALLDATALOAD PUSH1 0x1 PUSH1 0x1 PUSH1 0x40 SHL SUB DUP2 GT PUSH2 0x5E2 JUMPI PUSH2 0x5D59 SWAP1 CALLDATASIZE SWAP1 PUSH1 0x4 ADD PUSH2 0x6F34 JUMP JUMPDEST SWAP1 PUSH1 0x64 CALLDATALOAD PUSH1 0x1 PUSH1 0x1 PUSH1 0x40 SHL SUB DUP2 GT PUSH2 0x5E2 JUMPI PUSH2 0x5D79 SWAP1 CALLDATASIZE SWAP1 PUSH1 0x4 ADD PUSH2 0x6F34 JUMP JUMPDEST SWAP2 PUSH2 0x5D82 PUSH2 0x8718 JUMP JUMPDEST PUSH1 0x4 CALLDATALOAD PUSH1 0x0 MSTORE PUSH1 0x17 PUSH1 0x20 MSTORE PUSH1 0xFF PUSH1 0x40 PUSH1 0x0 KECCAK256 SLOAD AND ISZERO PUSH2 0x6210 JUMPI PUSH1 0x4 CALLDATALOAD PUSH1 0x0 MSTORE PUSH1 0x15 PUSH1 0x20 MSTORE PUSH1 0x40 PUSH1 0x0 KECCAK256 SWAP4 PUSH1 0xF DUP6 ADD SLOAD SWAP4 PUSH1 0xFF DUP6 PUSH1 0x10 SHR AND PUSH2 0x61D0 JUMPI PUSH1 0x5 DUP7 ADD SLOAD SWAP5 PUSH1 0x84 CALLDATALOAD DUP7 LT PUSH2 0x6196 JUMPI PUSH1 0x4 DUP8 ADD SLOAD SWAP6 PUSH2 0x5DDE PUSH1 0x84 CALLDATALOAD DUP9 PUSH2 0x806C JUMP JUMPDEST CALLVALUE LT PUSH2 0x615A JUMPI PUSH2 0x5DF1 SWAP1 PUSH1 0x84 CALLDATALOAD SWAP1 PUSH2 0x86BE JUMP JUMPDEST DUP1 PUSH1 0x5 DUP10 ADD SSTORE ISZERO PUSH2 0x6148 JUMPI JUMPDEST POP PUSH1 0x1 DUP7 ADD SLOAD PUSH1 0x1 PUSH1 0x1 PUSH1 0xA0 SHL SUB AND SWAP5 PUSH2 0x5E1A SWAP1 PUSH1 0x84 CALLDATALOAD SWAP1 PUSH2 0x806C JUMP JUMPDEST SWAP4 PUSH1 0x40 MLOAD SWAP3 PUSH2 0x5E28 DUP5 PUSH2 0x6DE5 JUMP JUMPDEST PUSH1 0x1 PUSH1 0x1 PUSH1 0x40 SHL SUB PUSH1 0x4 PUSH1 0x24 CALLDATALOAD ADD CALLDATALOAD GT PUSH2 0x5E2 JUMPI PUSH2 0x5E52 CALLDATASIZE PUSH1 0x4 PUSH1 0x24 CALLDATALOAD DUP2 ADD CALLDATALOAD PUSH1 0x24 CALLDATALOAD ADD ADD PUSH2 0x6F19 JUMP JUMPDEST DUP5 MSTORE PUSH1 0x1 PUSH1 0x1 PUSH1 0x40 SHL SUB PUSH1 0x24 DUP1 CALLDATALOAD ADD CALLDATALOAD GT PUSH2 0x5E2 JUMPI PUSH2 0x5E7D CALLDATASIZE PUSH1 0x4 PUSH1 0x24 DUP1 CALLDATALOAD ADD CALLDATALOAD PUSH1 0x24 CALLDATALOAD ADD ADD PUSH2 0x6F19 JUMP JUMPDEST PUSH1 0x20 DUP6 ADD MSTORE PUSH1 0x1 PUSH1 0x1 PUSH1 0x40 SHL SUB PUSH1 0x24 CALLDATALOAD PUSH1 0x44 ADD CALLDATALOAD GT PUSH2 0x5E2 JUMPI PUSH2 0x5EAB CALLDATASIZE PUSH1 0x24 CALLDATALOAD PUSH1 0x44 DUP2 ADD CALLDATALOAD ADD PUSH1 0x4 ADD PUSH2 0x6F19 JUMP JUMPDEST PUSH1 0x40 DUP6 ADD MSTORE PUSH1 0x24 CALLDATALOAD PUSH1 0x64 ADD CALLDATALOAD PUSH1 0x1 PUSH1 0x1 PUSH1 0x40 SHL SUB DUP2 GT PUSH2 0x5E2 JUMPI PUSH2 0x5ED7 SWAP1 PUSH1 0x4 CALLDATASIZE SWAP2 PUSH1 0x24 CALLDATALOAD ADD ADD PUSH2 0x6F19 JUMP JUMPDEST PUSH1 0x60 DUP6 ADD MSTORE PUSH1 0x24 CALLDATALOAD PUSH1 0x84 ADD CALLDATALOAD PUSH1 0x1 PUSH1 0x1 PUSH1 0x40 SHL SUB DUP2 GT PUSH2 0x5E2 JUMPI PUSH2 0x5F03 SWAP1 PUSH1 0x4 CALLDATASIZE SWAP2 PUSH1 0x24 CALLDATALOAD ADD ADD PUSH2 0x6F19 JUMP JUMPDEST PUSH1 0x80 DUP6 ADD MSTORE PUSH1 0x24 CALLDATALOAD PUSH1 0xA4 ADD CALLDATALOAD PUSH1 0x1 PUSH1 0x1 PUSH1 0x40 SHL SUB DUP2 GT PUSH2 0x5E2 JUMPI PUSH2 0x5F2F SWAP1 PUSH1 0x4 CALLDATASIZE SWAP2 PUSH1 0x24 CALLDATALOAD ADD ADD PUSH2 0x6F19 JUMP JUMPDEST PUSH1 0xA0 DUP6 ADD MSTORE PUSH1 0x24 CALLDATALOAD PUSH1 0xC4 ADD CALLDATALOAD PUSH1 0x1 PUSH1 0x1 PUSH1 0x40 SHL SUB DUP2 GT PUSH2 0x5E2 JUMPI PUSH2 0x5F5B SWAP1 PUSH1 0x4 CALLDATASIZE SWAP2 PUSH1 0x24 CALLDATALOAD ADD ADD PUSH2 0x6F19 JUMP JUMPDEST PUSH1 0xC0 DUP6 ADD MSTORE PUSH1 0x1 PUSH1 0x1 PUSH1 0x40 SHL SUB PUSH1 0x24 CALLDATALOAD PUSH1 0xE4 ADD CALLDATALOAD GT PUSH2 0x5E2 JUMPI PUSH2 0x5FB0 PUSH1 0x3 SWAP3 PUSH2 0x5FA8 PUSH2 0x60A8 SWAP8 PUSH2 0x6030 SWAP5 PUSH2 0x5F9C CALLDATASIZE PUSH1 0x4 PUSH1 0xE4 PUSH1 0x24 CALLDATALOAD ADD CALLDATALOAD PUSH1 0x24 CALLDATALOAD ADD ADD PUSH2 0x6F19 JUMP JUMPDEST PUSH1 0xE0 DUP11 ADD MSTORE CALLDATASIZE SWAP2 PUSH2 0x6EE2 JUMP JUMPDEST SWAP5 CALLDATASIZE SWAP2 PUSH2 0x6EE2 JUMP JUMPDEST PUSH1 0x4 CALLDATALOAD PUSH1 0x0 MSTORE PUSH1 0x15 PUSH1 0x20 MSTORE PUSH1 0x40 PUSH1 0x0 KECCAK256 SWAP1 PUSH1 0x40 MLOAD SWAP5 PUSH2 0x5FCE DUP7 PUSH2 0x6E01 JUMP JUMPDEST PUSH1 0x40 MLOAD PUSH2 0x5FE2 DUP2 PUSH2 0x3CE DUP2 PUSH1 0x2 DUP9 ADD PUSH2 0x700F JUMP JUMPDEST DUP7 MSTORE PUSH2 0x5FF0 PUSH1 0x8 DUP5 ADD PUSH2 0x745A JUMP JUMPDEST PUSH1 0x20 DUP8 ADD MSTORE PUSH1 0x40 DUP7 ADD MSTORE PUSH1 0x60 DUP6 ADD MSTORE PUSH1 0x84 CALLDATALOAD PUSH1 0x80 DUP6 ADD MSTORE PUSH1 0x40 MLOAD PUSH2 0x601B DUP2 PUSH2 0x3CE DUP2 PUSH1 0x9 DUP7 ADD PUSH2 0x700F JUMP JUMPDEST PUSH1 0xA0 DUP6 ADD MSTORE PUSH2 0x3CE PUSH1 0x40 MLOAD DUP1 SWAP5 DUP2 SWAP4 ADD PUSH2 0x700F JUMP JUMPDEST PUSH1 0xC0 DUP3 ADD MSTORE PUSH1 0x40 MLOAD SWAP2 PUSH2 0x6042 DUP4 PUSH2 0x6E1C JUMP JUMPDEST PUSH1 0x4 CALLDATALOAD DUP4 MSTORE CALLVALUE PUSH1 0x20 DUP5 ADD MSTORE DUP5 PUSH1 0x40 DUP5 ADD MSTORE TIMESTAMP PUSH1 0x60 DUP5 ADD MSTORE TIMESTAMP PUSH1 0x80 DUP5 ADD MSTORE CALLER PUSH1 0xA0 DUP5 ADD MSTORE DUP6 PUSH1 0xC0 DUP5 ADD MSTORE PUSH1 0x0 PUSH1 0xE0 DUP5 ADD MSTORE PUSH2 0x100 DUP4 ADD MSTORE PUSH2 0x120 DUP3 ADD MSTORE CALLER PUSH1 0x0 MSTORE PUSH1 0x1B PUSH1 0x20 MSTORE PUSH2 0x6095 DUP2 PUSH1 0x40 PUSH1 0x0 KECCAK256 PUSH2 0x876E JUMP JUMPDEST DUP4 PUSH1 0x0 MSTORE PUSH1 0x1C PUSH1 0x20 MSTORE PUSH1 0x40 PUSH1 0x0 KECCAK256 PUSH2 0x876E JUMP JUMPDEST DUP2 PUSH1 0x0 MSTORE PUSH1 0x1A PUSH1 0x20 MSTORE PUSH1 0x40 PUSH1 0x0 KECCAK256 DUP1 SLOAD SWAP1 CALLVALUE DUP3 ADD DUP1 SWAP3 GT PUSH2 0x1439 JUMPI SSTORE PUSH1 0x40 MLOAD SWAP1 CALLVALUE DUP3 MSTORE PUSH1 0x20 DUP3 ADD MSTORE TIMESTAMP PUSH1 0x40 DUP3 ADD MSTORE CALLER SWAP1 PUSH32 0x45280C7AC9CEC77EDD454E39E1641A3E22619146CF074A4239BEEE86A7C07EDC PUSH1 0x60 PUSH1 0x4 CALLDATALOAD SWAP3 LOG4 PUSH1 0x1 DUP1 DUP1 PUSH1 0xA0 SHL SUB SWAP2 ADD SLOAD AND PUSH1 0x40 MLOAD CALLVALUE DUP2 MSTORE TIMESTAMP PUSH1 0x20 DUP3 ADD MSTORE CALLER SWAP1 PUSH32 0xBE6177108F4DF43C5D7BE79CB219C969FC97915BBDB4B56D14D391DCDCC16060 PUSH1 0x40 PUSH1 0x4 CALLDATALOAD SWAP3 LOG4 PUSH1 0x1 DUP1 SSTORE STOP JUMPDEST PUSH1 0xFF NOT AND PUSH1 0x1 OR PUSH1 0xF DUP8 ADD SSTORE DUP7 PUSH2 0x5DFD JUMP JUMPDEST PUSH1 0x40 MLOAD PUSH3 0x461BCD PUSH1 0xE5 SHL DUP2 MSTORE PUSH1 0x20 PUSH1 0x4 DUP3 ADD MSTORE PUSH1 0x14 PUSH1 0x24 DUP3 ADD MSTORE PUSH20 0x125B9CDD59999A58DA595B9D081C185E5B595B9D PUSH1 0x62 SHL PUSH1 0x44 DUP3 ADD MSTORE PUSH1 0x64 SWAP1 REVERT JUMPDEST PUSH1 0x40 MLOAD PUSH3 0x461BCD PUSH1 0xE5 SHL DUP2 MSTORE PUSH1 0x20 PUSH1 0x4 DUP3 ADD MSTORE PUSH1 0x12 PUSH1 0x24 DUP3 ADD MSTORE PUSH18 0x496E73756666696369656E742073746F636B PUSH1 0x70 SHL PUSH1 0x44 DUP3 ADD MSTORE PUSH1 0x64 SWAP1 REVERT JUMPDEST PUSH1 0x40 MLOAD PUSH3 0x461BCD PUSH1 0xE5 SHL DUP2 MSTORE PUSH1 0x20 PUSH1 0x4 DUP3 ADD MSTORE PUSH1 0x18 PUSH1 0x24 DUP3 ADD MSTORE PUSH24 0x141C9BD91D58DD081A185CC81899595B8819195B195D1959 PUSH1 0x42 SHL PUSH1 0x44 DUP3 ADD MSTORE PUSH1 0x64 SWAP1 REVERT JUMPDEST PUSH1 0x40 MLOAD PUSH3 0x461BCD PUSH1 0xE5 SHL DUP2 MSTORE PUSH1 0x20 PUSH1 0x4 DUP3 ADD MSTORE PUSH1 0x11 PUSH1 0x24 DUP3 ADD MSTORE PUSH17 0x141C9BD91D58DD081B9BDD08199BDD5B99 PUSH1 0x7A SHL PUSH1 0x44 DUP3 ADD MSTORE PUSH1 0x64 SWAP1 REVERT JUMPDEST CALLVALUE PUSH2 0x5E2 JUMPI PUSH1 0x20 CALLDATASIZE PUSH1 0x3 NOT ADD SLT PUSH2 0x5E2 JUMPI PUSH1 0x4 CALLDATALOAD PUSH2 0x6265 PUSH2 0x75F2 JUMP JUMPDEST DUP1 PUSH1 0x0 MSTORE PUSH1 0x19 PUSH1 0x20 MSTORE PUSH2 0x627E PUSH1 0x40 PUSH1 0x0 KECCAK256 SLOAD ISZERO ISZERO PUSH2 0x8609 JUMP JUMPDEST DUP1 PUSH1 0x0 MSTORE PUSH1 0x19 PUSH1 0x20 MSTORE PUSH1 0x0 DUP1 MLOAD PUSH1 0x20 PUSH2 0x98DB DUP4 CODECOPY DUP2 MLOAD SWAP2 MSTORE PUSH2 0x283D PUSH1 0x40 PUSH1 0x0 KECCAK256 PUSH1 0x3 DUP2 ADD PUSH1 0xFF NOT DUP2 SLOAD AND SWAP1 SSTORE PUSH1 0x40 MLOAD SWAP2 DUP3 SWAP2 PUSH1 0x40 DUP4 MSTORE PUSH1 0x1 PUSH1 0x40 DUP5 ADD SWAP2 ADD PUSH2 0x700F JUMP JUMPDEST CALLVALUE PUSH2 0x5E2 JUMPI PUSH1 0x60 CALLDATASIZE PUSH1 0x3 NOT ADD SLT PUSH2 0x5E2 JUMPI PUSH1 0x24 DUP1 CALLDATALOAD PUSH1 0x4 CALLDATALOAD PUSH1 0x44 CALLDATALOAD PUSH1 0x1 PUSH1 0x1 PUSH1 0x40 SHL SUB DUP2 GT PUSH2 0x5E2 JUMPI PUSH2 0x62F8 SWAP1 CALLDATASIZE SWAP1 PUSH1 0x4 ADD PUSH2 0x6F19 JUMP JUMPDEST SWAP1 DUP1 PUSH1 0x0 MSTORE PUSH1 0x20 SWAP2 PUSH1 0x15 DUP4 MSTORE PUSH1 0x1 DUP1 PUSH1 0xA0 SHL SUB PUSH1 0x1 PUSH1 0x40 PUSH1 0x0 KECCAK256 ADD SLOAD AND CALLER EQ PUSH2 0x6451 JUMPI DUP4 ISZERO ISZERO DUP1 PUSH2 0x6446 JUMPI JUMPDEST ISZERO PUSH2 0x6402 JUMPI DUP1 MLOAD ISZERO PUSH2 0x63C4 JUMPI SWAP1 PUSH1 0x15 SWAP3 SWAP2 PUSH1 0x1 PUSH1 0xA SLOAD ADD SWAP1 DUP2 PUSH1 0xA SSTORE PUSH2 0x6348 PUSH2 0x86CB JUMP JUMPDEST SWAP6 DUP3 DUP8 MSTORE CALLER DUP6 DUP9 ADD MSTORE PUSH1 0x40 DUP8 ADD MSTORE PUSH1 0x60 DUP7 ADD MSTORE TIMESTAMP PUSH1 0xA0 DUP7 ADD MSTORE PUSH1 0x0 MSTORE PUSH1 0x1D DUP3 MSTORE PUSH1 0x40 PUSH1 0x0 KECCAK256 PUSH1 0x1 PUSH1 0xFF NOT DUP3 SLOAD AND OR SWAP1 SSTORE PUSH1 0x0 MSTORE MSTORE PUSH1 0x10 PUSH1 0x40 PUSH1 0x0 KECCAK256 ADD DUP1 SLOAD PUSH1 0x1 PUSH1 0x40 SHL DUP2 LT ISZERO PUSH2 0x48F5 JUMPI PUSH2 0x63A1 SWAP2 PUSH1 0x1 DUP3 ADD DUP2 SSTORE PUSH2 0x86FC JUMP JUMPDEST PUSH2 0x63AF JUMPI PUSH2 0x13AC SWAP3 POP PUSH2 0x8111 JUMP JUMPDEST DUP3 PUSH4 0x4E487B71 PUSH1 0xE0 SHL PUSH1 0x0 MSTORE PUSH1 0x0 PUSH1 0x4 MSTORE PUSH1 0x0 REVERT JUMPDEST PUSH1 0x40 MLOAD PUSH3 0x461BCD PUSH1 0xE5 SHL DUP2 MSTORE PUSH1 0x4 DUP2 ADD DUP5 SWAP1 MSTORE PUSH1 0x17 DUP2 DUP8 ADD MSTORE PUSH23 0x436F6D6D656E742063616E6E6F7420626520656D707479 PUSH1 0x48 SHL PUSH1 0x44 DUP3 ADD MSTORE PUSH1 0x64 SWAP1 REVERT JUMPDEST PUSH1 0x40 MLOAD PUSH3 0x461BCD PUSH1 0xE5 SHL DUP2 MSTORE PUSH1 0x4 DUP2 ADD DUP5 SWAP1 MSTORE PUSH1 0x1E DUP2 DUP8 ADD MSTORE PUSH32 0x526174696E67206D757374206265206265747765656E203120616E6420350000 PUSH1 0x44 DUP3 ADD MSTORE PUSH1 0x64 SWAP1 REVERT JUMPDEST POP PUSH1 0x5 DUP5 GT ISZERO PUSH2 0x6324 JUMP JUMPDEST PUSH1 0x40 MLOAD PUSH3 0x461BCD PUSH1 0xE5 SHL DUP2 MSTORE PUSH1 0x4 DUP2 ADD DUP5 SWAP1 MSTORE PUSH1 0x26 DUP2 DUP8 ADD MSTORE PUSH32 0x53656C6C65722063616E6E6F7420726576696577207468656972206F776E2070 PUSH1 0x44 DUP3 ADD MSTORE PUSH6 0x1C9BD91D58DD PUSH1 0xD2 SHL PUSH1 0x64 DUP3 ADD MSTORE PUSH1 0x84 SWAP1 REVERT JUMPDEST CALLVALUE PUSH2 0x5E2 JUMPI PUSH1 0x0 CALLDATASIZE PUSH1 0x3 NOT ADD SLT PUSH2 0x5E2 JUMPI PUSH2 0x64BD PUSH2 0x75F2 JUMP JUMPDEST CALLER PUSH1 0x0 MSTORE PUSH1 0x1E PUSH1 0x20 MSTORE PUSH1 0x40 PUSH1 0x0 KECCAK256 PUSH1 0x1 DUP1 PUSH1 0xA0 SHL SUB NOT DUP2 SLOAD AND SWAP1 SSTORE PUSH1 0x0 DUP1 MLOAD PUSH1 0x20 PUSH2 0x97FB DUP4 CODECOPY DUP2 MLOAD SWAP2 MSTORE PUSH1 0x40 DUP1 MLOAD CALLER DUP2 MSTORE PUSH1 0x0 PUSH1 0x20 DUP3 ADD MSTORE LOG1 STOP JUMPDEST CALLVALUE PUSH2 0x5E2 JUMPI PUSH1 0x40 CALLDATASIZE PUSH1 0x3 NOT ADD SLT PUSH2 0x5E2 JUMPI PUSH2 0x13AC PUSH2 0x6514 PUSH2 0x6DB3 JUMP JUMPDEST PUSH1 0x4 CALLDATALOAD PUSH2 0x93A0 JUMP JUMPDEST CALLVALUE PUSH2 0x5E2 JUMPI PUSH1 0x20 CALLDATASIZE PUSH1 0x3 NOT ADD SLT PUSH2 0x5E2 JUMPI PUSH1 0x1 PUSH1 0x1 PUSH1 0xA0 SHL SUB PUSH2 0x653D PUSH2 0x6D9D JUMP JUMPDEST AND PUSH1 0x0 MSTORE PUSH1 0x14 PUSH1 0x20 MSTORE PUSH1 0x20 PUSH1 0xFF PUSH1 0x40 PUSH1 0x0 KECCAK256 SLOAD AND PUSH1 0x40 MLOAD SWAP1 ISZERO ISZERO DUP2 MSTORE RETURN JUMPDEST CALLVALUE PUSH2 0x5E2 JUMPI PUSH1 0x40 CALLDATASIZE PUSH1 0x3 NOT ADD SLT PUSH2 0x5E2 JUMPI PUSH2 0x6574 PUSH2 0x6D9D JUMP JUMPDEST PUSH1 0x24 CALLDATALOAD SWAP1 PUSH1 0x1 PUSH1 0x1 PUSH1 0xA0 SHL SUB DUP1 DUP1 PUSH2 0x658B DUP6 PUSH2 0x7691 JUMP JUMPDEST AND SWAP3 AND SWAP2 DUP1 DUP4 EQ PUSH2 0x6686 JUMPI DUP1 CALLER EQ SWAP1 DUP2 ISZERO PUSH2 0x6661 JUMPI JUMPDEST POP ISZERO PUSH2 0x65F6 JUMPI PUSH1 0x0 DUP4 DUP2 MSTORE PUSH1 0x6 PUSH1 0x20 MSTORE PUSH1 0x40 SWAP1 KECCAK256 DUP1 SLOAD PUSH1 0x1 PUSH1 0x1 PUSH1 0xA0 SHL SUB NOT AND DUP4 OR SWAP1 SSTORE PUSH2 0x65CE DUP4 PUSH2 0x7691 JUMP JUMPDEST AND PUSH32 0x8C5BE1E5EBEC7D5BD14F71427D1E84F3DD0314C0F7B2291E5B200AC8C7C3B925 PUSH1 0x0 DUP1 LOG4 STOP JUMPDEST PUSH1 0x40 MLOAD PUSH3 0x461BCD PUSH1 0xE5 SHL DUP2 MSTORE PUSH1 0x20 PUSH1 0x4 DUP3 ADD MSTORE PUSH1 0x3D PUSH1 0x24 DUP3 ADD MSTORE PUSH32 0x4552433732313A20617070726F76652063616C6C6572206973206E6F7420746F PUSH1 0x44 DUP3 ADD MSTORE PUSH32 0x6B656E206F776E6572206F7220617070726F76656420666F7220616C6C000000 PUSH1 0x64 DUP3 ADD MSTORE PUSH1 0x84 SWAP1 REVERT JUMPDEST SWAP1 POP PUSH1 0x0 MSTORE PUSH1 0x7 PUSH1 0x20 MSTORE PUSH1 0x40 PUSH1 0x0 KECCAK256 CALLER PUSH1 0x0 MSTORE PUSH1 0x20 MSTORE PUSH1 0xFF PUSH1 0x40 PUSH1 0x0 KECCAK256 SLOAD AND DUP5 PUSH2 0x65A1 JUMP JUMPDEST PUSH1 0x40 MLOAD PUSH3 0x461BCD PUSH1 0xE5 SHL DUP2 MSTORE PUSH1 0x20 PUSH1 0x4 DUP3 ADD MSTORE PUSH1 0x21 PUSH1 0x24 DUP3 ADD MSTORE PUSH32 0x4552433732313A20617070726F76616C20746F2063757272656E74206F776E65 PUSH1 0x44 DUP3 ADD MSTORE PUSH1 0x39 PUSH1 0xF9 SHL PUSH1 0x64 DUP3 ADD MSTORE PUSH1 0x84 SWAP1 REVERT JUMPDEST CALLVALUE PUSH2 0x5E2 JUMPI PUSH1 0x20 CALLDATASIZE PUSH1 0x3 NOT ADD SLT PUSH2 0x5E2 JUMPI PUSH1 0x20 PUSH2 0x5369 PUSH1 0x4 CALLDATALOAD PUSH2 0x76B4 JUMP JUMPDEST CALLVALUE PUSH2 0x5E2 JUMPI PUSH1 0x0 CALLDATASIZE PUSH1 0x3 NOT ADD SLT PUSH2 0x5E2 JUMPI PUSH1 0x40 MLOAD PUSH1 0x0 SWAP1 PUSH1 0x2 SLOAD PUSH2 0x6716 DUP2 PUSH2 0x6FD5 JUMP JUMPDEST DUP1 DUP4 MSTORE PUSH1 0x1 SWAP2 DUP1 DUP4 AND SWAP1 DUP2 ISZERO PUSH2 0x33BF JUMPI POP PUSH1 0x1 EQ PUSH2 0x673E JUMPI PUSH2 0x35E DUP4 PUSH2 0x3351 DUP2 DUP8 SUB DUP3 PUSH2 0x6EA4 JUMP JUMPDEST PUSH1 0x2 PUSH1 0x0 SWAP1 DUP2 MSTORE PUSH1 0x20 SWAP5 POP SWAP2 PUSH32 0x405787FA12A823E0F2B7631CC41B3BA8828B3321CA811111FA75CD3AA3BB5ACE JUMPDEST DUP3 DUP5 LT PUSH2 0x6785 JUMPI POP POP POP DUP2 ADD SWAP1 SWAP2 ADD SWAP1 PUSH2 0x3351 DUP2 PUSH2 0x3341 JUMP JUMPDEST DUP1 SLOAD DUP6 DUP6 ADD DUP8 ADD MSTORE SWAP3 DUP6 ADD SWAP3 DUP2 ADD PUSH2 0x676C JUMP JUMPDEST CALLVALUE PUSH2 0x5E2 JUMPI PUSH1 0x0 CALLDATASIZE PUSH1 0x3 NOT ADD SLT PUSH2 0x5E2 JUMPI PUSH1 0x8 DUP1 SLOAD PUSH1 0x0 PUSH1 0x1 JUMPDEST DUP3 DUP2 GT ISZERO PUSH2 0x69D2 JUMPI POP PUSH2 0x67C4 SWAP1 PUSH2 0x848D JUMP JUMPDEST SWAP1 PUSH1 0x0 SWAP3 PUSH1 0x1 JUMPDEST DUP3 DUP2 GT ISZERO PUSH2 0x67E1 JUMPI PUSH1 0x40 MLOAD DUP1 PUSH2 0x35E DUP7 DUP3 PUSH2 0x6D3B JUMP JUMPDEST DUP1 PUSH1 0x0 MSTORE PUSH1 0x20 PUSH1 0x15 DUP2 MSTORE PUSH1 0x40 PUSH1 0x0 KECCAK256 SWAP1 PUSH1 0xF DUP3 ADD SLOAD PUSH1 0xFF SWAP3 PUSH1 0x10 SWAP1 DUP5 DUP4 DUP4 SHR AND ISZERO DUP1 PUSH2 0x681C JUMPI JUMPDEST POP POP POP POP POP POP PUSH2 0x6817 SWAP1 PUSH2 0x847E JUMP JUMPDEST PUSH2 0x67CB JUMP JUMPDEST PUSH1 0x40 SWAP11 SWAP7 SWAP11 MLOAD SWAP6 PUSH2 0x682C DUP8 PUSH2 0x6DC9 JUMP JUMPDEST DUP3 SLOAD DUP8 MSTORE PUSH1 0x1 DUP4 ADD SLOAD PUSH1 0x1 PUSH1 0x1 PUSH1 0xA0 SHL SUB AND DUP7 DUP9 ADD MSTORE PUSH1 0x40 MLOAD PUSH2 0x6856 DUP2 PUSH2 0x3CE DUP2 PUSH1 0x2 DUP9 ADD PUSH2 0x700F JUMP JUMPDEST PUSH1 0x40 DUP9 ADD MSTORE PUSH1 0x40 MLOAD PUSH2 0x686F DUP2 PUSH2 0x3CE DUP2 PUSH1 0x3 DUP9 ADD PUSH2 0x700F JUMP JUMPDEST PUSH1 0x60 DUP9 ADD MSTORE PUSH1 0x4 DUP4 ADD SLOAD PUSH1 0x80 DUP9 ADD MSTORE PUSH1 0x5 DUP4 ADD SLOAD PUSH1 0xA0 DUP9 ADD MSTORE PUSH1 0x6 SWAP5 PUSH2 0x6896 DUP7 DUP6 ADD PUSH2 0x745A JUMP JUMPDEST PUSH1 0xC0 DUP10 ADD MSTORE PUSH2 0x68A7 PUSH1 0x7 DUP6 ADD PUSH2 0x745A JUMP JUMPDEST PUSH1 0xE0 DUP10 ADD MSTORE PUSH2 0x68B7 DUP11 DUP6 ADD PUSH2 0x745A JUMP JUMPDEST PUSH2 0x100 DUP10 ADD MSTORE PUSH1 0x40 MLOAD PUSH2 0x68D1 DUP2 PUSH2 0x3CE DUP2 PUSH1 0x9 DUP10 ADD PUSH2 0x700F JUMP JUMPDEST PUSH2 0x120 DUP10 ADD MSTORE PUSH1 0x40 MLOAD PUSH2 0x68EB DUP2 PUSH2 0x3CE DUP2 PUSH1 0xA DUP10 ADD PUSH2 0x700F JUMP JUMPDEST PUSH2 0x140 DUP10 ADD MSTORE PUSH1 0xB DUP5 ADD SLOAD PUSH2 0x160 DUP10 ADD MSTORE PUSH1 0x40 MLOAD PUSH2 0x6910 DUP2 PUSH2 0x3CE DUP2 PUSH1 0xC DUP10 ADD PUSH2 0x700F JUMP JUMPDEST PUSH2 0x180 DUP10 ADD MSTORE PUSH1 0x40 MLOAD PUSH2 0x692A DUP2 PUSH2 0x3CE DUP2 PUSH1 0xD DUP10 ADD PUSH2 0x700F JUMP JUMPDEST PUSH2 0x1A0 DUP10 ADD MSTORE PUSH1 0xE DUP5 ADD SLOAD PUSH2 0x1C0 DUP10 ADD MSTORE DUP2 DUP2 AND ISZERO ISZERO PUSH2 0x1E0 DUP10 ADD MSTORE DUP10 SHR AND ISZERO ISZERO PUSH2 0x200 DUP8 ADD MSTORE ISZERO PUSH2 0x220 DUP7 ADD MSTORE ADD SWAP1 DUP2 SLOAD SWAP2 PUSH2 0x6966 DUP4 PUSH2 0x7443 JUMP JUMPDEST SWAP4 PUSH2 0x6974 PUSH1 0x40 MLOAD SWAP6 DUP7 PUSH2 0x6EA4 JUMP JUMPDEST DUP4 DUP6 MSTORE PUSH1 0x0 SWAP2 DUP3 MSTORE DUP1 DUP3 KECCAK256 SWAP2 DUP2 DUP7 ADD JUMPDEST DUP6 DUP3 LT PUSH2 0x69B6 JUMPI POP POP POP POP POP POP SWAP2 DUP2 PUSH2 0x6817 SWAP4 PUSH2 0x240 PUSH2 0x69AA SWAP5 ADD MSTORE PUSH2 0x539 DUP3 DUP9 PUSH2 0x84DD JUMP JUMPDEST SWAP5 SWAP1 DUP7 DUP1 DUP1 DUP1 DUP1 PUSH2 0x6808 JUMP JUMPDEST DUP5 DUP4 PUSH1 0x1 SWAP3 PUSH2 0x69C4 DUP8 PUSH2 0x841D JUMP JUMPDEST DUP2 MSTORE ADD SWAP5 ADD SWAP2 ADD SWAP1 SWAP3 PUSH2 0x6984 JUMP JUMPDEST DUP1 PUSH1 0x0 MSTORE PUSH1 0x15 PUSH1 0x20 MSTORE PUSH1 0xFF PUSH1 0xF PUSH1 0x40 PUSH1 0x0 KECCAK256 ADD SLOAD PUSH1 0x10 SHR AND ISZERO PUSH2 0x69FE JUMPI JUMPDEST PUSH2 0x69F9 SWAP1 PUSH2 0x847E JUMP JUMPDEST PUSH2 0x67B2 JUMP JUMPDEST SWAP1 PUSH2 0x6A0B PUSH2 0x69F9 SWAP2 PUSH2 0x847E JUMP JUMPDEST SWAP2 SWAP1 POP PUSH2 0x69F0 JUMP JUMPDEST CALLVALUE PUSH2 0x5E2 JUMPI PUSH1 0x20 CALLDATASIZE PUSH1 0x3 NOT ADD SLT PUSH2 0x5E2 JUMPI PUSH1 0x4 CALLDATALOAD PUSH4 0xFFFFFFFF PUSH1 0xE0 SHL DUP2 AND DUP1 SWAP2 SUB PUSH2 0x5E2 JUMPI PUSH1 0x20 SWAP1 PUSH4 0x80AC58CD PUSH1 0xE0 SHL DUP2 EQ SWAP1 DUP2 ISZERO PUSH2 0x6A70 JUMPI JUMPDEST DUP2 ISZERO PUSH2 0x6A5F JUMPI JUMPDEST POP PUSH1 0x40 MLOAD SWAP1 ISZERO ISZERO DUP2 MSTORE RETURN JUMPDEST PUSH4 0x1FFC9A7 PUSH1 0xE0 SHL EQ SWAP1 POP DUP3 PUSH2 0x6A54 JUMP JUMPDEST PUSH4 0x5B5E139F PUSH1 0xE0 SHL DUP2 EQ SWAP2 POP PUSH2 0x6A4D JUMP JUMPDEST CALLVALUE PUSH2 0x5E2 JUMPI PUSH1 0x20 CALLDATASIZE PUSH1 0x3 NOT ADD SLT PUSH2 0x5E2 JUMPI PUSH1 0x20 SWAP1 PUSH1 0x4 CALLDATALOAD PUSH1 0x0 MSTORE PUSH1 0x1D DUP3 MSTORE PUSH1 0xFF PUSH1 0x40 PUSH1 0x0 KECCAK256 SLOAD AND ISZERO ISZERO DUP2 MSTORE RETURN JUMPDEST SWAP2 SWAP1 DUP3 MLOAD SWAP3 DUP4 DUP3 MSTORE PUSH1 0x0 JUMPDEST DUP5 DUP2 LT PUSH2 0x6ADA JUMPI POP POP DUP3 PUSH1 0x0 PUSH1 0x20 DUP1 SWAP5 SWAP6 DUP5 ADD ADD MSTORE PUSH1 0x1F DUP1 NOT SWAP2 ADD AND ADD ADD SWAP1 JUMP JUMPDEST PUSH1 0x20 DUP2 DUP4 ADD DUP2 ADD MLOAD DUP5 DUP4 ADD DUP3 ADD MSTORE ADD PUSH2 0x6AB9 JUMP JUMPDEST SWAP1 DUP1 DUP3 MLOAD SWAP1 DUP2 DUP2 MSTORE PUSH1 0x20 DUP1 SWAP2 ADD SWAP3 DUP2 DUP1 DUP5 PUSH1 0x5 SHL DUP4 ADD ADD SWAP6 ADD SWAP4 PUSH1 0x0 SWAP2 JUMPDEST DUP5 DUP4 LT PUSH2 0x6B1C JUMPI POP POP POP POP POP POP SWAP1 JUMP JUMPDEST SWAP1 SWAP2 SWAP3 SWAP4 SWAP5 SWAP6 DUP5 DUP1 PUSH2 0x6B3A PUSH1 0x1 SWAP4 PUSH1 0x1F NOT DUP7 DUP3 SUB ADD DUP8 MSTORE DUP11 MLOAD PUSH2 0x6AAE JUMP JUMPDEST SWAP9 ADD SWAP4 ADD SWAP4 ADD SWAP2 SWAP5 SWAP4 SWAP3 SWAP1 PUSH2 0x6B0C JUMP JUMPDEST SWAP1 DUP1 DUP3 MLOAD SWAP1 DUP2 DUP2 MSTORE PUSH1 0x20 DUP1 SWAP2 ADD SWAP3 DUP2 DUP1 DUP5 PUSH1 0x5 SHL DUP4 ADD ADD SWAP6 ADD SWAP4 PUSH1 0x0 SWAP2 JUMPDEST DUP5 DUP4 LT PUSH2 0x6B78 JUMPI POP POP POP POP POP POP SWAP1 JUMP JUMPDEST SWAP1 SWAP2 SWAP3 SWAP4 SWAP5 SWAP6 DUP5 DUP1 PUSH1 0x1 SWAP3 PUSH1 0x1F NOT DUP6 DUP3 SUB ADD DUP7 MSTORE DUP10 MLOAD SWAP1 DUP2 MLOAD DUP2 MSTORE DUP5 DUP1 PUSH1 0xA0 SHL SUB DUP4 DUP4 ADD MLOAD AND DUP4 DUP3 ADD MSTORE PUSH1 0x40 DUP1 DUP4 ADD MLOAD SWAP1 DUP3 ADD MSTORE PUSH2 0x6BC5 PUSH1 0x60 DUP1 DUP5 ADD MLOAD SWAP1 PUSH1 0xC0 DUP1 SWAP2 DUP6 ADD MSTORE DUP4 ADD SWAP1 PUSH2 0x6AAE JUMP JUMPDEST SWAP2 PUSH1 0x80 DUP1 DUP3 ADD MLOAD ISZERO ISZERO SWAP1 DUP4 ADD MSTORE PUSH1 0xA0 DUP1 SWAP2 ADD MLOAD SWAP2 ADD MSTORE SWAP9 ADD SWAP4 ADD SWAP4 ADD SWAP2 SWAP5 SWAP4 SWAP3 SWAP1 PUSH2 0x6B68 JUMP JUMPDEST SWAP1 PUSH2 0x6D38 SWAP2 DUP1 MLOAD DUP3 MSTORE PUSH1 0x1 DUP1 PUSH1 0xA0 SHL SUB PUSH1 0x20 DUP3 ADD MLOAD AND PUSH1 0x20 DUP4 ADD MSTORE PUSH2 0x6CF2 PUSH2 0x6CDE PUSH2 0x6CBF PUSH2 0x6CAB PUSH2 0x6C97 PUSH2 0x6C83 PUSH2 0x6C71 PUSH2 0x6C4B PUSH2 0x6C39 PUSH1 0x40 DUP11 ADD MLOAD PUSH1 0x40 DUP13 PUSH2 0x260 SWAP2 DUP3 SWAP2 ADD MSTORE DUP13 ADD SWAP1 PUSH2 0x6AAE JUMP JUMPDEST PUSH1 0x60 DUP11 ADD MLOAD DUP12 DUP3 SUB PUSH1 0x60 DUP14 ADD MSTORE PUSH2 0x6AAE JUMP JUMPDEST PUSH1 0x80 DUP10 ADD MLOAD PUSH1 0x80 DUP12 ADD MSTORE PUSH1 0xA0 DUP10 ADD MLOAD PUSH1 0xA0 DUP12 ADD MSTORE PUSH1 0xC0 DUP10 ADD MLOAD DUP11 DUP3 SUB PUSH1 0xC0 DUP13 ADD MSTORE PUSH2 0x6AEE JUMP JUMPDEST PUSH1 0xE0 DUP9 ADD MLOAD DUP10 DUP3 SUB PUSH1 0xE0 DUP12 ADD MSTORE PUSH2 0x6AEE JUMP JUMPDEST PUSH2 0x100 DUP1 DUP9 ADD MLOAD SWAP1 DUP10 DUP4 SUB SWAP1 DUP11 ADD MSTORE PUSH2 0x6AEE JUMP JUMPDEST PUSH2 0x120 DUP1 DUP8 ADD MLOAD SWAP1 DUP9 DUP4 SUB SWAP1 DUP10 ADD MSTORE PUSH2 0x6AAE JUMP JUMPDEST PUSH2 0x140 DUP1 DUP7 ADD MLOAD SWAP1 DUP8 DUP4 SUB SWAP1 DUP9 ADD MSTORE PUSH2 0x6AAE JUMP JUMPDEST PUSH2 0x160 DUP1 DUP6 ADD MLOAD SWAP1 DUP7 ADD MSTORE PUSH2 0x180 DUP1 DUP6 ADD MLOAD SWAP1 DUP7 DUP4 SUB SWAP1 DUP8 ADD MSTORE PUSH2 0x6AAE JUMP JUMPDEST PUSH2 0x1A0 DUP1 DUP5 ADD MLOAD SWAP1 DUP6 DUP4 SUB SWAP1 DUP7 ADD MSTORE PUSH2 0x6AAE JUMP JUMPDEST SWAP2 PUSH2 0x1C0 DUP1 DUP4 ADD MLOAD SWAP1 DUP3 ADD MSTORE PUSH2 0x1E0 DUP1 DUP4 ADD MLOAD ISZERO ISZERO SWAP1 DUP3 ADD MSTORE PUSH2 0x200 DUP1 DUP4 ADD MLOAD ISZERO ISZERO SWAP1 DUP3 ADD MSTORE PUSH2 0x220 DUP1 DUP4 ADD MLOAD ISZERO ISZERO SWAP1 DUP3 ADD MSTORE PUSH2 0x240 DUP1 SWAP3 ADD MLOAD SWAP2 DUP2 DUP5 SUB SWAP2 ADD MSTORE PUSH2 0x6B4A JUMP JUMPDEST SWAP1 JUMP JUMPDEST PUSH1 0x20 DUP1 DUP3 ADD SWAP1 DUP1 DUP4 MSTORE DUP4 MLOAD DUP1 SWAP3 MSTORE PUSH1 0x40 DUP4 ADD SWAP3 DUP2 PUSH1 0x40 DUP5 PUSH1 0x5 SHL DUP4 ADD ADD SWAP6 ADD SWAP4 PUSH1 0x0 SWAP2 JUMPDEST DUP5 DUP4 LT PUSH2 0x6D6F JUMPI POP POP POP POP POP POP SWAP1 JUMP JUMPDEST SWAP1 SWAP2 SWAP3 SWAP4 SWAP5 SWAP6 DUP5 DUP1 PUSH2 0x6D8D PUSH1 0x1 SWAP4 PUSH1 0x3F NOT DUP7 DUP3 SUB ADD DUP8 MSTORE DUP11 MLOAD PUSH2 0x6BEB JUMP JUMPDEST SWAP9 ADD SWAP4 ADD SWAP4 ADD SWAP2 SWAP5 SWAP4 SWAP3 SWAP1 PUSH2 0x6D5F JUMP JUMPDEST PUSH1 0x4 CALLDATALOAD SWAP1 PUSH1 0x1 PUSH1 0x1 PUSH1 0xA0 SHL SUB DUP3 AND DUP3 SUB PUSH2 0x5E2 JUMPI JUMP JUMPDEST PUSH1 0x24 CALLDATALOAD SWAP1 PUSH1 0x1 PUSH1 0x1 PUSH1 0xA0 SHL SUB DUP3 AND DUP3 SUB PUSH2 0x5E2 JUMPI JUMP JUMPDEST PUSH2 0x260 DUP2 ADD SWAP1 DUP2 LT PUSH1 0x1 PUSH1 0x1 PUSH1 0x40 SHL SUB DUP3 GT OR PUSH2 0x144F JUMPI PUSH1 0x40 MSTORE JUMP JUMPDEST PUSH2 0x100 DUP2 ADD SWAP1 DUP2 LT PUSH1 0x1 PUSH1 0x1 PUSH1 0x40 SHL SUB DUP3 GT OR PUSH2 0x144F JUMPI PUSH1 0x40 MSTORE JUMP JUMPDEST PUSH1 0xE0 DUP2 ADD SWAP1 DUP2 LT PUSH1 0x1 PUSH1 0x1 PUSH1 0x40 SHL SUB DUP3 GT OR PUSH2 0x144F JUMPI PUSH1 0x40 MSTORE JUMP JUMPDEST PUSH2 0x140 DUP2 ADD SWAP1 DUP2 LT PUSH1 0x1 PUSH1 0x1 PUSH1 0x40 SHL SUB DUP3 GT OR PUSH2 0x144F JUMPI PUSH1 0x40 MSTORE JUMP JUMPDEST PUSH1 0x80 DUP2 ADD SWAP1 DUP2 LT PUSH1 0x1 PUSH1 0x1 PUSH1 0x40 SHL SUB DUP3 GT OR PUSH2 0x144F JUMPI PUSH1 0x40 MSTORE JUMP JUMPDEST PUSH1 0xA0 DUP2 ADD SWAP1 DUP2 LT PUSH1 0x1 PUSH1 0x1 PUSH1 0x40 SHL SUB DUP3 GT OR PUSH2 0x144F JUMPI PUSH1 0x40 MSTORE JUMP JUMPDEST PUSH1 0xC0 DUP2 ADD SWAP1 DUP2 LT PUSH1 0x1 PUSH1 0x1 PUSH1 0x40 SHL SUB DUP3 GT OR PUSH2 0x144F JUMPI PUSH1 0x40 MSTORE JUMP JUMPDEST PUSH1 0x20 DUP2 ADD SWAP1 DUP2 LT PUSH1 0x1 PUSH1 0x1 PUSH1 0x40 SHL SUB DUP3 GT OR PUSH2 0x144F JUMPI PUSH1 0x40 MSTORE JUMP JUMPDEST PUSH1 0x1F SWAP1 SWAP2 ADD PUSH1 0x1F NOT AND DUP2 ADD SWAP1 PUSH1 0x1 PUSH1 0x1 PUSH1 0x40 SHL SUB DUP3 GT SWAP1 DUP3 LT OR PUSH2 0x144F JUMPI PUSH1 0x40 MSTORE JUMP JUMPDEST PUSH1 0x1 PUSH1 0x1 PUSH1 0x40 SHL SUB DUP2 GT PUSH2 0x144F JUMPI PUSH1 0x1F ADD PUSH1 0x1F NOT AND PUSH1 0x20 ADD SWAP1 JUMP JUMPDEST SWAP3 SWAP2 SWAP3 PUSH2 0x6EEE DUP3 PUSH2 0x6EC7 JUMP JUMPDEST SWAP2 PUSH2 0x6EFC PUSH1 0x40 MLOAD SWAP4 DUP5 PUSH2 0x6EA4 JUMP JUMPDEST DUP3 SWAP5 DUP2 DUP5 MSTORE DUP2 DUP4 ADD GT PUSH2 0x5E2 JUMPI DUP3 DUP2 PUSH1 0x20 SWAP4 DUP5 PUSH1 0x0 SWAP7 ADD CALLDATACOPY ADD ADD MSTORE JUMP JUMPDEST SWAP1 DUP1 PUSH1 0x1F DUP4 ADD SLT ISZERO PUSH2 0x5E2 JUMPI DUP2 PUSH1 0x20 PUSH2 0x6D38 SWAP4 CALLDATALOAD SWAP2 ADD PUSH2 0x6EE2 JUMP JUMPDEST SWAP2 DUP2 PUSH1 0x1F DUP5 ADD SLT ISZERO PUSH2 0x5E2 JUMPI DUP3 CALLDATALOAD SWAP2 PUSH1 0x1 PUSH1 0x1 PUSH1 0x40 SHL SUB DUP4 GT PUSH2 0x5E2 JUMPI PUSH1 0x20 DUP4 DUP2 DUP7 ADD SWAP6 ADD ADD GT PUSH2 0x5E2 JUMPI JUMP JUMPDEST PUSH1 0x60 SWAP1 PUSH1 0x3 NOT ADD SLT PUSH2 0x5E2 JUMPI PUSH1 0x1 PUSH1 0x1 PUSH1 0xA0 SHL SUB SWAP1 PUSH1 0x4 CALLDATALOAD DUP3 DUP2 AND DUP2 SUB PUSH2 0x5E2 JUMPI SWAP2 PUSH1 0x24 CALLDATALOAD SWAP1 DUP2 AND DUP2 SUB PUSH2 0x5E2 JUMPI SWAP1 PUSH1 0x44 CALLDATALOAD SWAP1 JUMP JUMPDEST SWAP1 PUSH1 0x60 PUSH1 0x3 NOT DUP4 ADD SLT PUSH2 0x5E2 JUMPI PUSH1 0x4 CALLDATALOAD SWAP2 PUSH1 0x24 CALLDATALOAD SWAP1 PUSH1 0x1 PUSH1 0x1 PUSH1 0x40 SHL SUB DUP3 GT PUSH2 0x5E2 JUMPI PUSH2 0x6FC5 SWAP2 PUSH1 0x4 ADD PUSH2 0x6F19 JUMP JUMPDEST SWAP1 PUSH1 0x44 CALLDATALOAD DUP1 ISZERO ISZERO DUP2 SUB PUSH2 0x5E2 JUMPI SWAP1 JUMP JUMPDEST SWAP1 PUSH1 0x1 DUP3 DUP2 SHR SWAP3 AND DUP1 ISZERO PUSH2 0x7005 JUMPI JUMPDEST PUSH1 0x20 DUP4 LT EQ PUSH2 0x6FEF JUMPI JUMP JUMPDEST PUSH4 0x4E487B71 PUSH1 0xE0 SHL PUSH1 0x0 MSTORE PUSH1 0x22 PUSH1 0x4 MSTORE PUSH1 0x24 PUSH1 0x0 REVERT JUMPDEST SWAP2 PUSH1 0x7F AND SWAP2 PUSH2 0x6FE4 JUMP JUMPDEST SWAP1 PUSH1 0x0 SWAP3 SWAP2 DUP1 SLOAD SWAP2 PUSH2 0x7020 DUP4 PUSH2 0x6FD5 JUMP JUMPDEST SWAP2 DUP3 DUP3 MSTORE PUSH1 0x1 SWAP4 DUP5 DUP2 AND SWAP1 DUP2 PUSH1 0x0 EQ PUSH2 0x7082 JUMPI POP PUSH1 0x1 EQ PUSH2 0x7042 JUMPI JUMPDEST POP POP POP POP JUMP JUMPDEST SWAP1 SWAP2 SWAP4 SWAP5 POP PUSH1 0x0 MSTORE PUSH1 0x20 SWAP3 DUP4 PUSH1 0x0 KECCAK256 SWAP3 DUP5 PUSH1 0x0 SWAP5 JUMPDEST DUP4 DUP7 LT PUSH2 0x706E JUMPI POP POP POP POP ADD ADD SWAP1 CODESIZE DUP1 DUP1 DUP1 PUSH2 0x703C JUMP JUMPDEST DUP1 SLOAD DUP6 DUP8 ADD DUP4 ADD MSTORE SWAP5 ADD SWAP4 DUP6 SWAP1 DUP3 ADD PUSH2 0x7057 JUMP JUMPDEST SWAP3 SWAP5 POP POP POP PUSH1 0x20 SWAP4 SWAP5 POP PUSH1 0xFF NOT AND DUP4 DUP4 ADD MSTORE ISZERO ISZERO PUSH1 0x5 SHL ADD ADD SWAP1 CODESIZE DUP1 DUP1 DUP1 PUSH2 0x703C JUMP JUMPDEST PUSH2 0x6D38 SWAP2 PUSH1 0xE0 PUSH2 0x713C PUSH2 0x712A PUSH2 0x7118 PUSH2 0x7106 PUSH2 0x70F4 PUSH2 0x70E2 PUSH2 0x70D0 DUP10 MLOAD PUSH2 0x100 DUP1 DUP12 MSTORE DUP11 ADD SWAP1 PUSH2 0x6AAE JUMP JUMPDEST PUSH1 0x20 DUP11 ADD MLOAD DUP10 DUP3 SUB PUSH1 0x20 DUP12 ADD MSTORE PUSH2 0x6AAE JUMP JUMPDEST PUSH1 0x40 DUP10 ADD MLOAD DUP9 DUP3 SUB PUSH1 0x40 DUP11 ADD MSTORE PUSH2 0x6AAE JUMP JUMPDEST PUSH1 0x60 DUP9 ADD MLOAD DUP8 DUP3 SUB PUSH1 0x60 DUP10 ADD MSTORE PUSH2 0x6AAE JUMP JUMPDEST PUSH1 0x80 DUP8 ADD MLOAD DUP7 DUP3 SUB PUSH1 0x80 DUP9 ADD MSTORE PUSH2 0x6AAE JUMP JUMPDEST PUSH1 0xA0 DUP7 ADD MLOAD DUP6 DUP3 SUB PUSH1 0xA0 DUP8 ADD MSTORE PUSH2 0x6AAE JUMP JUMPDEST PUSH1 0xC0 DUP6 ADD MLOAD DUP5 DUP3 SUB PUSH1 0xC0 DUP7 ADD MSTORE PUSH2 0x6AAE JUMP JUMPDEST SWAP3 ADD MLOAD SWAP1 PUSH1 0xE0 DUP2 DUP5 SUB SWAP2 ADD MSTORE PUSH2 0x6AAE JUMP JUMPDEST PUSH2 0x6D38 SWAP2 PUSH1 0xC0 PUSH2 0x71C4 PUSH2 0x71A8 PUSH2 0x7196 PUSH2 0x7184 PUSH2 0x7172 DUP8 MLOAD PUSH1 0xE0 DUP9 MSTORE PUSH1 0xE0 DUP9 ADD SWAP1 PUSH2 0x6AAE JUMP JUMPDEST PUSH1 0x20 DUP9 ADD MLOAD DUP8 DUP3 SUB PUSH1 0x20 DUP10 ADD MSTORE PUSH2 0x6AEE JUMP JUMPDEST PUSH1 0x40 DUP8 ADD MLOAD DUP7 DUP3 SUB PUSH1 0x40 DUP9 ADD MSTORE PUSH2 0x6AAE JUMP JUMPDEST PUSH1 0x60 DUP7 ADD MLOAD DUP6 DUP3 SUB PUSH1 0x60 DUP8 ADD MSTORE PUSH2 0x6AAE JUMP JUMPDEST PUSH1 0x80 DUP6 ADD MLOAD PUSH1 0x80 DUP6 ADD MSTORE PUSH1 0xA0 DUP6 ADD MLOAD DUP5 DUP3 SUB PUSH1 0xA0 DUP7 ADD MSTORE PUSH2 0x6AAE JUMP JUMPDEST SWAP3 ADD MLOAD SWAP1 PUSH1 0xC0 DUP2 DUP5 SUB SWAP2 ADD MSTORE PUSH2 0x6AAE JUMP JUMPDEST PUSH1 0x20 DUP1 DUP3 ADD SWAP1 DUP1 DUP4 MSTORE DUP4 MLOAD DUP1 SWAP3 MSTORE PUSH1 0x40 SWAP3 DUP4 DUP2 ADD DUP3 DUP6 DUP6 PUSH1 0x5 SHL DUP5 ADD ADD SWAP7 ADD SWAP5 PUSH1 0x0 SWAP3 JUMPDEST DUP6 DUP5 LT PUSH2 0x720A JUMPI POP POP POP POP POP POP POP SWAP1 JUMP JUMPDEST SWAP1 SWAP2 SWAP3 SWAP4 SWAP5 SWAP6 SWAP7 DUP6 DUP1 PUSH2 0x72A5 PUSH1 0x1 SWAP4 PUSH1 0x3F NOT DUP7 DUP3 SUB ADD DUP9 MSTORE DUP12 MLOAD DUP1 MLOAD DUP3 MSTORE DUP4 DUP2 ADD MLOAD DUP5 DUP4 ADD MSTORE DUP8 DUP2 ADD MLOAD DUP9 DUP4 ADD MSTORE PUSH1 0x60 DUP1 DUP3 ADD MLOAD SWAP1 DUP4 ADD MSTORE PUSH1 0x80 DUP1 DUP3 ADD MLOAD SWAP1 DUP4 ADD MSTORE DUP6 DUP1 PUSH1 0xA0 SHL SUB PUSH1 0xA0 DUP2 DUP2 DUP5 ADD MLOAD AND SWAP1 DUP5 ADD MSTORE PUSH1 0xC0 SWAP1 DUP2 DUP4 ADD MLOAD AND SWAP1 DUP4 ADD MSTORE PUSH1 0xE0 DUP1 DUP3 ADD MLOAD ISZERO ISZERO SWAP1 DUP4 ADD MSTORE PUSH2 0x7291 PUSH2 0x100 DUP1 DUP4 ADD MLOAD SWAP1 PUSH2 0x140 DUP1 SWAP2 DUP7 ADD MSTORE DUP5 ADD SWAP1 PUSH2 0x70A5 JUMP JUMPDEST SWAP2 PUSH2 0x120 DUP1 SWAP3 ADD MLOAD SWAP2 DUP2 DUP5 SUB SWAP2 ADD MSTORE PUSH2 0x714D JUMP JUMPDEST SWAP10 ADD SWAP5 ADD SWAP5 ADD SWAP3 SWAP6 SWAP5 SWAP4 SWAP2 SWAP1 PUSH2 0x71F9 JUMP JUMPDEST SWAP1 PUSH1 0xC0 DUP1 PUSH2 0x7321 PUSH2 0x730F PUSH2 0x72FD PUSH2 0x72EB PUSH2 0x72D9 DUP9 MLOAD PUSH1 0xE0 DUP10 MSTORE PUSH1 0xE0 DUP10 ADD SWAP1 PUSH2 0x6AAE JUMP JUMPDEST PUSH1 0x20 DUP10 ADD MLOAD DUP9 DUP3 SUB PUSH1 0x20 DUP11 ADD MSTORE PUSH2 0x6AAE JUMP JUMPDEST PUSH1 0x40 DUP9 ADD MLOAD DUP8 DUP3 SUB PUSH1 0x40 DUP10 ADD MSTORE PUSH2 0x6AAE JUMP JUMPDEST PUSH1 0x60 DUP8 ADD MLOAD DUP7 DUP3 SUB PUSH1 0x60 DUP9 ADD MSTORE PUSH2 0x6AAE JUMP JUMPDEST PUSH1 0x80 DUP7 ADD MLOAD DUP6 DUP3 SUB PUSH1 0x80 DUP8 ADD MSTORE PUSH2 0x6AAE JUMP JUMPDEST SWAP4 PUSH1 0xA0 DUP2 ADD MLOAD PUSH1 0xA0 DUP6 ADD MSTORE ADD MLOAD ISZERO ISZERO SWAP2 ADD MSTORE SWAP1 JUMP JUMPDEST SWAP1 PUSH1 0x4 DUP3 LT ISZERO PUSH2 0x1B24 JUMPI MSTORE JUMP JUMPDEST DUP1 SLOAD DUP3 LT ISZERO PUSH2 0x2318 JUMPI PUSH1 0x0 MSTORE PUSH1 0x20 PUSH1 0x0 KECCAK256 ADD SWAP1 PUSH1 0x0 SWAP1 JUMP JUMPDEST DUP1 SLOAD DUP3 LT ISZERO PUSH2 0x2318 JUMPI PUSH1 0x0 MSTORE PUSH1 0x16 PUSH1 0x20 PUSH1 0x0 KECCAK256 SWAP2 MUL ADD SWAP1 PUSH1 0x0 SWAP1 JUMP JUMPDEST SWAP1 PUSH1 0x7 PUSH1 0xE0 PUSH1 0x40 SWAP4 PUSH2 0x743F DUP6 MLOAD SWAP2 PUSH2 0x738E DUP4 PUSH2 0x6DE5 JUMP JUMPDEST PUSH2 0x630 DUP4 SWAP8 DUP1 MLOAD PUSH2 0x73A3 DUP2 PUSH2 0x3CE DUP2 DUP8 PUSH2 0x700F JUMP JUMPDEST DUP6 MSTORE DUP1 MLOAD PUSH2 0x73B8 DUP2 PUSH2 0x3CE DUP2 PUSH1 0x1 DUP9 ADD PUSH2 0x700F JUMP JUMPDEST PUSH1 0x20 DUP7 ADD MSTORE DUP1 MLOAD PUSH2 0x73D0 DUP2 PUSH2 0x3CE DUP2 PUSH1 0x2 DUP9 ADD PUSH2 0x700F JUMP JUMPDEST DUP2 DUP7 ADD MSTORE DUP1 MLOAD PUSH2 0x73E7 DUP2 PUSH2 0x3CE DUP2 PUSH1 0x3 DUP9 ADD PUSH2 0x700F JUMP JUMPDEST PUSH1 0x60 DUP7 ADD MSTORE DUP1 MLOAD PUSH2 0x73FF DUP2 PUSH2 0x3CE DUP2 PUSH1 0x4 DUP9 ADD PUSH2 0x700F JUMP JUMPDEST PUSH1 0x80 DUP7 ADD MSTORE DUP1 MLOAD PUSH2 0x7417 DUP2 PUSH2 0x3CE DUP2 PUSH1 0x5 DUP9 ADD PUSH2 0x700F JUMP JUMPDEST PUSH1 0xA0 DUP7 ADD MSTORE DUP1 MLOAD PUSH2 0x742F DUP2 PUSH2 0x3CE DUP2 PUSH1 0x6 DUP9 ADD PUSH2 0x700F JUMP JUMPDEST PUSH1 0xC0 DUP7 ADD MSTORE MLOAD DUP1 SWAP7 DUP2 SWAP4 ADD PUSH2 0x700F JUMP JUMPDEST ADD MSTORE JUMP JUMPDEST PUSH1 0x1 PUSH1 0x1 PUSH1 0x40 SHL SUB DUP2 GT PUSH2 0x144F JUMPI PUSH1 0x5 SHL PUSH1 0x20 ADD SWAP1 JUMP JUMPDEST SWAP1 DUP2 SLOAD PUSH2 0x7466 DUP2 PUSH2 0x7443 JUMP JUMPDEST SWAP3 PUSH1 0x40 SWAP4 PUSH2 0x7476 DUP6 MLOAD SWAP2 DUP3 PUSH2 0x6EA4 JUMP JUMPDEST DUP3 DUP2 MSTORE DUP1 SWAP5 PUSH1 0x20 DUP1 SWAP3 ADD SWAP3 PUSH1 0x0 MSTORE DUP2 PUSH1 0x0 KECCAK256 SWAP1 PUSH1 0x0 SWAP4 JUMPDEST DUP6 DUP6 LT PUSH2 0x749C JUMPI POP POP POP POP POP POP JUMP JUMPDEST PUSH1 0x1 DUP5 DUP2 SWAP3 DUP5 MLOAD PUSH2 0x74B1 DUP2 PUSH2 0x3CE DUP2 DUP11 PUSH2 0x700F JUMP JUMPDEST DUP2 MSTORE ADD SWAP4 ADD SWAP5 ADD SWAP4 SWAP2 PUSH2 0x748D JUMP JUMPDEST SWAP1 PUSH1 0x6 PUSH1 0xC0 PUSH1 0x40 SWAP4 PUSH2 0x743F DUP6 MLOAD SWAP2 PUSH2 0x74D6 DUP4 PUSH2 0x6E01 JUMP JUMPDEST PUSH2 0x630 DUP4 SWAP8 DUP1 MLOAD PUSH2 0x74EB DUP2 PUSH2 0x3CE DUP2 DUP8 PUSH2 0x700F JUMP JUMPDEST DUP6 MSTORE PUSH2 0x74F9 PUSH1 0x1 DUP5 ADD PUSH2 0x745A JUMP JUMPDEST PUSH1 0x20 DUP7 ADD MSTORE DUP1 MLOAD PUSH2 0x7511 DUP2 PUSH2 0x3CE DUP2 PUSH1 0x2 DUP9 ADD PUSH2 0x700F JUMP JUMPDEST DUP2 DUP7 ADD MSTORE DUP1 MLOAD PUSH2 0x7528 DUP2 PUSH2 0x3CE DUP2 PUSH1 0x3 DUP9 ADD PUSH2 0x700F JUMP JUMPDEST PUSH1 0x60 DUP7 ADD MSTORE PUSH1 0x4 DUP4 ADD SLOAD PUSH1 0x80 DUP7 ADD MSTORE DUP1 MLOAD PUSH2 0x754A DUP2 PUSH2 0x3CE DUP2 PUSH1 0x5 DUP9 ADD PUSH2 0x700F JUMP JUMPDEST PUSH1 0xA0 DUP7 ADD MSTORE MLOAD DUP1 SWAP7 DUP2 SWAP4 ADD PUSH2 0x700F JUMP JUMPDEST SWAP9 SWAP6 SWAP4 SWAP1 SWAP3 PUSH2 0x6D38 SWAP11 SWAP9 SWAP6 SWAP3 PUSH2 0x75AF SWAP9 SWAP5 DUP12 MSTORE PUSH1 0x20 DUP12 ADD MSTORE PUSH1 0x40 DUP11 ADD MSTORE PUSH1 0x60 DUP10 ADD MSTORE PUSH1 0x80 DUP9 ADD MSTORE PUSH1 0x1 DUP1 PUSH1 0xA0 SHL SUB DUP1 SWAP3 AND PUSH1 0xA0 DUP9 ADD MSTORE AND PUSH1 0xC0 DUP7 ADD MSTORE ISZERO ISZERO PUSH1 0xE0 DUP6 ADD MSTORE PUSH2 0x140 DUP1 PUSH2 0x100 DUP7 ADD MSTORE DUP5 ADD SWAP1 PUSH2 0x70A5 JUMP JUMPDEST SWAP2 PUSH2 0x120 DUP2 DUP5 SUB SWAP2 ADD MSTORE PUSH2 0x714D JUMP JUMPDEST SWAP1 DUP2 MLOAD DUP1 DUP3 MSTORE PUSH1 0x20 DUP1 DUP1 SWAP4 ADD SWAP4 ADD SWAP2 PUSH1 0x0 JUMPDEST DUP3 DUP2 LT PUSH2 0x75DE JUMPI POP POP POP POP SWAP1 JUMP JUMPDEST DUP4 MLOAD DUP6 MSTORE SWAP4 DUP2 ADD SWAP4 SWAP3 DUP2 ADD SWAP3 PUSH1 0x1 ADD PUSH2 0x75D0 JUMP JUMPDEST PUSH1 0x0 SLOAD PUSH1 0x1 PUSH1 0x1 PUSH1 0xA0 SHL SUB AND CALLER SUB PUSH2 0x7606 JUMPI JUMP JUMPDEST PUSH1 0x64 PUSH1 0x40 MLOAD PUSH3 0x461BCD PUSH1 0xE5 SHL DUP2 MSTORE PUSH1 0x20 PUSH1 0x4 DUP3 ADD MSTORE PUSH1 0x20 PUSH1 0x24 DUP3 ADD MSTORE PUSH32 0x4F776E61626C653A2063616C6C6572206973206E6F7420746865206F776E6572 PUSH1 0x44 DUP3 ADD MSTORE REVERT JUMPDEST ISZERO PUSH2 0x7651 JUMPI JUMP JUMPDEST PUSH1 0x40 MLOAD PUSH3 0x461BCD PUSH1 0xE5 SHL DUP2 MSTORE PUSH1 0x20 PUSH1 0x4 DUP3 ADD MSTORE PUSH1 0x18 PUSH1 0x24 DUP3 ADD MSTORE PUSH24 0x115490CDCC8C4E881A5B9D985B1A59081D1BDAD95B881251 PUSH1 0x42 SHL PUSH1 0x44 DUP3 ADD MSTORE PUSH1 0x64 SWAP1 REVERT JUMPDEST PUSH1 0x0 SWAP1 DUP2 MSTORE PUSH1 0x4 PUSH1 0x20 MSTORE PUSH1 0x40 SWAP1 KECCAK256 SLOAD PUSH1 0x1 PUSH1 0x1 PUSH1 0xA0 SHL SUB AND PUSH2 0x6D38 DUP2 ISZERO ISZERO PUSH2 0x764A JUMP JUMPDEST PUSH2 0x76C0 PUSH2 0x2868 DUP3 PUSH2 0x79AD JUMP JUMPDEST PUSH1 0x0 SWAP1 DUP2 MSTORE PUSH1 0x6 PUSH1 0x20 MSTORE PUSH1 0x40 SWAP1 KECCAK256 SLOAD PUSH1 0x1 PUSH1 0x1 PUSH1 0xA0 SHL SUB AND SWAP1 JUMP JUMPDEST ISZERO PUSH2 0x76E2 JUMPI JUMP JUMPDEST PUSH1 0x40 MLOAD PUSH3 0x461BCD PUSH1 0xE5 SHL DUP2 MSTORE PUSH1 0x20 PUSH1 0x4 DUP3 ADD MSTORE PUSH1 0x2D PUSH1 0x24 DUP3 ADD MSTORE PUSH32 0x4552433732313A2063616C6C6572206973206E6F7420746F6B656E206F776E65 PUSH1 0x44 DUP3 ADD MSTORE PUSH13 0x1C881BDC88185C1C1C9BDD9959 PUSH1 0x9A SHL PUSH1 0x64 DUP3 ADD MSTORE PUSH1 0x84 SWAP1 REVERT JUMPDEST SWAP1 PUSH2 0x7761 SWAP4 SWAP3 SWAP2 PUSH2 0x7751 PUSH2 0x5D04 DUP5 CALLER PUSH2 0x77D8 JUMP JUMPDEST PUSH2 0x775C DUP4 DUP4 DUP4 PUSH2 0x78A0 JUMP JUMPDEST PUSH2 0x79FA JUMP JUMPDEST ISZERO PUSH2 0x7768 JUMPI JUMP JUMPDEST PUSH1 0x40 MLOAD PUSH3 0x461BCD PUSH1 0xE5 SHL DUP2 MSTORE DUP1 PUSH2 0x7781 PUSH1 0x4 DUP3 ADD PUSH2 0x7785 JUMP JUMPDEST SUB SWAP1 REVERT JUMPDEST PUSH1 0x80 SWAP1 PUSH1 0x20 DUP2 MSTORE PUSH1 0x32 PUSH1 0x20 DUP3 ADD MSTORE PUSH32 0x4552433732313A207472616E7366657220746F206E6F6E204552433732315265 PUSH1 0x40 DUP3 ADD MSTORE PUSH18 0x31B2B4BB32B91034B6B83632B6B2B73A32B9 PUSH1 0x71 SHL PUSH1 0x60 DUP3 ADD MSTORE ADD SWAP1 JUMP JUMPDEST SWAP1 PUSH1 0x1 PUSH1 0x1 PUSH1 0xA0 SHL SUB DUP1 DUP1 PUSH2 0x77EC DUP5 PUSH2 0x7691 JUMP JUMPDEST AND SWAP4 AND SWAP2 DUP4 DUP4 EQ SWAP4 DUP5 ISZERO PUSH2 0x781F JUMPI JUMPDEST POP DUP4 ISZERO PUSH2 0x7809 JUMPI JUMPDEST POP POP POP SWAP1 JUMP JUMPDEST PUSH2 0x7815 SWAP2 SWAP3 SWAP4 POP PUSH2 0x76B4 JUMP JUMPDEST AND EQ CODESIZE DUP1 DUP1 PUSH2 0x7803 JUMP JUMPDEST SWAP1 SWAP4 POP PUSH1 0x0 MSTORE PUSH1 0x7 PUSH1 0x20 MSTORE PUSH1 0x40 PUSH1 0x0 KECCAK256 DUP3 PUSH1 0x0 MSTORE PUSH1 0x20 MSTORE PUSH1 0xFF PUSH1 0x40 PUSH1 0x0 KECCAK256 SLOAD AND SWAP3 CODESIZE PUSH2 0x77FB JUMP JUMPDEST ISZERO PUSH2 0x784D JUMPI JUMP JUMPDEST PUSH1 0x40 MLOAD PUSH3 0x461BCD PUSH1 0xE5 SHL DUP2 MSTORE PUSH1 0x20 PUSH1 0x4 DUP3 ADD MSTORE PUSH1 0x25 PUSH1 0x24 DUP3 ADD MSTORE PUSH32 0x4552433732313A207472616E736665722066726F6D20696E636F727265637420 PUSH1 0x44 DUP3 ADD MSTORE PUSH5 0x37BBB732B9 PUSH1 0xD9 SHL PUSH1 0x64 DUP3 ADD MSTORE PUSH1 0x84 SWAP1 REVERT JUMPDEST SWAP1 PUSH2 0x78C8 SWAP2 PUSH2 0x78AE DUP5 PUSH2 0x7691 JUMP JUMPDEST PUSH1 0x1 PUSH1 0x1 PUSH1 0xA0 SHL SUB SWAP4 SWAP2 DUP5 AND SWAP3 DUP5 SWAP3 SWAP1 SWAP2 DUP4 AND DUP5 EQ PUSH2 0x7846 JUMP JUMPDEST AND SWAP2 DUP3 ISZERO PUSH2 0x794B JUMPI DUP2 PUSH2 0x78E5 SWAP2 PUSH2 0x78DE DUP7 PUSH2 0x7691 JUMP JUMPDEST AND EQ PUSH2 0x7846 JUMP JUMPDEST PUSH1 0x0 DUP1 MLOAD PUSH1 0x20 PUSH2 0x989B DUP4 CODECOPY DUP2 MLOAD SWAP2 MSTORE PUSH1 0x0 DUP5 DUP2 MSTORE PUSH1 0x6 PUSH1 0x20 MSTORE PUSH1 0x40 DUP2 KECCAK256 PUSH1 0x1 DUP1 PUSH1 0xA0 SHL SUB NOT SWAP1 DUP2 DUP2 SLOAD AND SWAP1 SSTORE DUP4 DUP3 MSTORE PUSH1 0x5 PUSH1 0x20 MSTORE PUSH1 0x40 DUP3 KECCAK256 PUSH1 0x0 NOT DUP2 SLOAD ADD SWAP1 SSTORE DUP5 DUP3 MSTORE PUSH1 0x40 DUP3 KECCAK256 PUSH1 0x1 DUP2 SLOAD ADD SWAP1 SSTORE DUP6 DUP3 MSTORE PUSH1 0x4 PUSH1 0x20 MSTORE DUP5 PUSH1 0x40 DUP4 KECCAK256 SWAP2 DUP3 SLOAD AND OR SWAP1 SSTORE DUP1 LOG4 JUMP JUMPDEST PUSH1 0x40 MLOAD PUSH3 0x461BCD PUSH1 0xE5 SHL DUP2 MSTORE PUSH1 0x20 PUSH1 0x4 DUP3 ADD MSTORE PUSH1 0x24 DUP1 DUP3 ADD MSTORE PUSH32 0x4552433732313A207472616E7366657220746F20746865207A65726F20616464 PUSH1 0x44 DUP3 ADD MSTORE PUSH4 0x72657373 PUSH1 0xE0 SHL PUSH1 0x64 DUP3 ADD MSTORE PUSH1 0x84 SWAP1 REVERT JUMPDEST SWAP1 PUSH1 0xFF DUP1 NOT DUP4 SLOAD AND SWAP2 ISZERO ISZERO AND OR SWAP1 SSTORE JUMP JUMPDEST PUSH1 0x0 SWAP1 DUP2 MSTORE PUSH1 0x4 PUSH1 0x20 MSTORE PUSH1 0x40 SWAP1 KECCAK256 SLOAD PUSH1 0x1 PUSH1 0x1 PUSH1 0xA0 SHL SUB AND ISZERO ISZERO SWAP1 JUMP JUMPDEST RETURNDATASIZE ISZERO PUSH2 0x79F5 JUMPI RETURNDATASIZE SWAP1 PUSH2 0x79DB DUP3 PUSH2 0x6EC7 JUMP JUMPDEST SWAP2 PUSH2 0x79E9 PUSH1 0x40 MLOAD SWAP4 DUP5 PUSH2 0x6EA4 JUMP JUMPDEST DUP3 MSTORE RETURNDATASIZE PUSH1 0x0 PUSH1 0x20 DUP5 ADD RETURNDATACOPY JUMP JUMPDEST PUSH1 0x60 SWAP1 JUMP JUMPDEST SWAP2 SWAP3 PUSH1 0x0 SWAP3 SWAP2 SWAP1 DUP2 EXTCODESIZE ISZERO PUSH2 0x7AEF JUMPI PUSH1 0x20 SWAP2 PUSH2 0x7A50 SWAP2 DUP6 PUSH1 0x40 MLOAD SWAP6 DUP7 DUP1 SWAP6 DUP2 SWAP5 PUSH4 0xA85BD01 PUSH1 0xE1 SHL SWAP12 DUP13 DUP5 MSTORE CALLER PUSH1 0x4 DUP6 ADD MSTORE PUSH1 0x1 DUP1 PUSH1 0xA0 SHL SUB DUP1 SWAP6 AND PUSH1 0x24 DUP6 ADD MSTORE PUSH1 0x44 DUP5 ADD MSTORE PUSH1 0x80 PUSH1 0x64 DUP5 ADD MSTORE PUSH1 0x84 DUP4 ADD SWAP1 PUSH2 0x6AAE JUMP JUMPDEST SUB SWAP4 AND GAS CALL SWAP1 DUP3 SWAP1 DUP3 PUSH2 0x7AA0 JUMPI JUMPDEST POP POP PUSH2 0x7A92 JUMPI PUSH2 0x7A6C PUSH2 0x79CA JUMP JUMPDEST DUP1 MLOAD SWAP1 DUP2 PUSH2 0x7A8D JUMPI PUSH1 0x40 MLOAD PUSH3 0x461BCD PUSH1 0xE5 SHL DUP2 MSTORE DUP1 PUSH2 0x7781 PUSH1 0x4 DUP3 ADD PUSH2 0x7785 JUMP JUMPDEST PUSH1 0x20 ADD REVERT JUMPDEST PUSH1 0x1 PUSH1 0x1 PUSH1 0xE0 SHL SUB NOT AND EQ SWAP1 JUMP JUMPDEST SWAP1 SWAP2 SWAP3 POP PUSH1 0x20 DUP2 RETURNDATASIZE DUP3 GT PUSH2 0x7AE7 JUMPI JUMPDEST DUP2 PUSH2 0x7ABC PUSH1 0x20 SWAP4 DUP4 PUSH2 0x6EA4 JUMP JUMPDEST DUP2 ADD SUB SLT PUSH2 0x7AE3 JUMPI MLOAD SWAP1 PUSH1 0x1 PUSH1 0x1 PUSH1 0xE0 SHL SUB NOT DUP3 AND DUP3 SUB PUSH2 0x7AE0 JUMPI POP SWAP1 CODESIZE DUP1 PUSH2 0x7A5E JUMP JUMPDEST DUP1 REVERT JUMPDEST POP DUP1 REVERT JUMPDEST RETURNDATASIZE SWAP2 POP PUSH2 0x7AAF JUMP JUMPDEST POP POP POP POP POP PUSH1 0x1 SWAP1 JUMP JUMPDEST ISZERO PUSH2 0x7B00 JUMPI JUMP JUMPDEST PUSH1 0x40 MLOAD PUSH3 0x461BCD PUSH1 0xE5 SHL DUP2 MSTORE PUSH1 0x20 PUSH1 0x4 DUP3 ADD MSTORE PUSH1 0xF PUSH1 0x24 DUP3 ADD MSTORE PUSH15 0x496E76616C69642061646472657373 PUSH1 0x88 SHL PUSH1 0x44 DUP3 ADD MSTORE PUSH1 0x64 SWAP1 REVERT JUMPDEST ISZERO PUSH2 0x7B3E JUMPI JUMP JUMPDEST PUSH1 0x40 MLOAD PUSH3 0x461BCD PUSH1 0xE5 SHL DUP2 MSTORE PUSH1 0x20 PUSH1 0x4 DUP3 ADD MSTORE PUSH1 0x14 PUSH1 0x24 DUP3 ADD MSTORE PUSH20 0x4E616D652063616E6E6F7420626520656D707479 PUSH1 0x60 SHL PUSH1 0x44 DUP3 ADD MSTORE PUSH1 0x64 SWAP1 REVERT JUMPDEST DUP2 DUP2 LT PUSH2 0x7B85 JUMPI POP POP JUMP JUMPDEST PUSH1 0x0 DUP2 SSTORE PUSH1 0x1 ADD PUSH2 0x7B7A JUMP JUMPDEST SWAP2 SWAP1 PUSH1 0x1F DUP2 GT PUSH2 0x7BA0 JUMPI POP POP POP JUMP JUMPDEST PUSH2 0x7BCC SWAP3 PUSH1 0x0 MSTORE PUSH1 0x20 PUSH1 0x0 KECCAK256 SWAP1 PUSH1 0x20 PUSH1 0x1F DUP5 ADD PUSH1 0x5 SHR DUP4 ADD SWAP4 LT PUSH2 0x7BCE JUMPI JUMPDEST PUSH1 0x1F ADD PUSH1 0x5 SHR ADD SWAP1 PUSH2 0x7B7A JUMP JUMPDEST JUMP JUMPDEST SWAP1 SWAP2 POP DUP2 SWAP1 PUSH2 0x7BBF JUMP JUMPDEST PUSH1 0x40 MLOAD SWAP1 PUSH2 0x7BE5 DUP3 PUSH2 0x6E01 JUMP JUMPDEST PUSH1 0x0 PUSH1 0xC0 DUP4 PUSH1 0x60 DUP1 DUP3 MSTORE DUP1 PUSH1 0x20 DUP4 ADD MSTORE DUP1 PUSH1 0x40 DUP4 ADD MSTORE DUP1 DUP1 DUP4 ADD MSTORE PUSH1 0x80 DUP3 ADD MSTORE DUP3 PUSH1 0xA0 DUP3 ADD MSTORE ADD MSTORE JUMP JUMPDEST ISZERO PUSH2 0x7C16 JUMPI JUMP JUMPDEST PUSH1 0x40 MLOAD PUSH3 0x461BCD PUSH1 0xE5 SHL DUP2 MSTORE PUSH1 0x20 PUSH1 0x4 DUP3 ADD MSTORE PUSH1 0x15 PUSH1 0x24 DUP3 ADD MSTORE PUSH21 0x14D95B1B195C881B9BDD081C9959DA5CDD195C9959 PUSH1 0x5A SHL PUSH1 0x44 DUP3 ADD MSTORE PUSH1 0x64 SWAP1 REVERT JUMPDEST PUSH1 0x1 PUSH1 0x1 PUSH1 0xA0 SHL SUB SWAP1 DUP2 AND SWAP1 DUP2 ISZERO PUSH2 0x7C89 JUMPI PUSH1 0x0 SLOAD AND DUP2 EQ PUSH2 0x7C83 JUMPI PUSH1 0x0 MSTORE PUSH1 0x12 PUSH1 0x20 MSTORE PUSH1 0xFF PUSH1 0x40 PUSH1 0x0 KECCAK256 SLOAD AND SWAP1 JUMP JUMPDEST POP PUSH1 0x2 SWAP1 JUMP JUMPDEST PUSH1 0x40 MLOAD PUSH3 0x461BCD PUSH1 0xE5 SHL DUP2 MSTORE PUSH1 0x20 PUSH1 0x4 DUP3 ADD MSTORE PUSH1 0x16 PUSH1 0x24 DUP3 ADD MSTORE PUSH22 0x496E76616C69642073656C6C65722061646472657373 PUSH1 0x50 SHL PUSH1 0x44 DUP3 ADD MSTORE PUSH1 0x64 SWAP1 REVERT JUMPDEST SWAP1 CALLDATALOAD SWAP1 PUSH1 0x1E NOT DUP2 CALLDATASIZE SUB ADD DUP3 SLT ISZERO PUSH2 0x5E2 JUMPI ADD DUP1 CALLDATALOAD SWAP1 PUSH1 0x1 PUSH1 0x1 PUSH1 0x40 SHL SUB DUP3 GT PUSH2 0x5E2 JUMPI PUSH1 0x20 ADD SWAP2 DUP2 CALLDATASIZE SUB DUP4 SGT PUSH2 0x5E2 JUMPI JUMP JUMPDEST ISZERO PUSH2 0x7D00 JUMPI JUMP JUMPDEST PUSH1 0x40 MLOAD PUSH3 0x461BCD PUSH1 0xE5 SHL DUP2 MSTORE PUSH1 0x20 PUSH1 0x4 DUP3 ADD MSTORE PUSH1 0x1C PUSH1 0x24 DUP3 ADD MSTORE PUSH28 0x5072696365206D7573742062652067726561746572207468616E203 PUSH1 0x24 SHL PUSH1 0x44 DUP3 ADD MSTORE PUSH1 0x64 SWAP1 REVERT JUMPDEST ISZERO PUSH2 0x7D4B JUMPI JUMP JUMPDEST PUSH1 0x40 MLOAD PUSH3 0x461BCD PUSH1 0xE5 SHL DUP2 MSTORE PUSH1 0x20 PUSH1 0x4 DUP3 ADD MSTORE PUSH1 0x1C PUSH1 0x24 DUP3 ADD MSTORE PUSH28 0x53746F636B206D7573742062652067726561746572207468616E203 PUSH1 0x24 SHL PUSH1 0x44 DUP3 ADD MSTORE PUSH1 0x64 SWAP1 REVERT JUMPDEST ISZERO PUSH2 0x7D96 JUMPI JUMP JUMPDEST PUSH1 0x40 MLOAD PUSH3 0x461BCD PUSH1 0xE5 SHL DUP2 MSTORE PUSH1 0x20 PUSH1 0x4 DUP3 ADD MSTORE PUSH1 0x1D PUSH1 0x24 DUP3 ADD MSTORE PUSH32 0x576569676874206D7573742062652067726561746572207468616E2030000000 PUSH1 0x44 DUP3 ADD MSTORE PUSH1 0x64 SWAP1 REVERT JUMPDEST ISZERO PUSH2 0x7DE2 JUMPI JUMP JUMPDEST PUSH1 0x40 MLOAD PUSH3 0x461BCD PUSH1 0xE5 SHL DUP2 MSTORE PUSH1 0x20 PUSH1 0x4 DUP3 ADD MSTORE PUSH1 0x15 PUSH1 0x24 DUP3 ADD MSTORE PUSH21 0x4D6F64656C2063616E6E6F7420626520656D707479 PUSH1 0x58 SHL PUSH1 0x44 DUP3 ADD MSTORE PUSH1 0x64 SWAP1 REVERT JUMPDEST ISZERO PUSH2 0x7E26 JUMPI JUMP JUMPDEST PUSH1 0x40 MLOAD PUSH3 0x461BCD PUSH1 0xE5 SHL DUP2 MSTORE PUSH1 0x20 PUSH1 0x4 DUP3 ADD MSTORE PUSH1 0x15 PUSH1 0x24 DUP3 ADD MSTORE PUSH21 0x4272616E642063616E6E6F7420626520656D707479 PUSH1 0x58 SHL PUSH1 0x44 DUP3 ADD MSTORE PUSH1 0x64 SWAP1 REVERT JUMPDEST ISZERO PUSH2 0x7E6A JUMPI JUMP JUMPDEST PUSH1 0x40 MLOAD PUSH3 0x461BCD PUSH1 0xE5 SHL DUP2 MSTORE PUSH1 0x20 PUSH1 0x4 DUP3 ADD MSTORE PUSH1 0x1A PUSH1 0x24 DUP3 ADD MSTORE PUSH26 0x534B55206D7573742062652067726561746572207468616E203 PUSH1 0x34 SHL PUSH1 0x44 DUP3 ADD MSTORE PUSH1 0x64 SWAP1 REVERT JUMPDEST SWAP1 CALLDATALOAD SWAP1 PUSH1 0x1E NOT DUP2 CALLDATASIZE SUB ADD DUP3 SLT ISZERO PUSH2 0x5E2 JUMPI ADD DUP1 CALLDATALOAD SWAP1 PUSH1 0x1 PUSH1 0x1 PUSH1 0x40 SHL SUB DUP3 GT PUSH2 0x5E2 JUMPI PUSH1 0x20 ADD SWAP2 DUP2 PUSH1 0x5 SHL CALLDATASIZE SUB DUP4 SGT PUSH2 0x5E2 JUMPI JUMP JUMPDEST ISZERO PUSH2 0x7EE8 JUMPI JUMP JUMPDEST PUSH1 0x40 MLOAD PUSH3 0x461BCD PUSH1 0xE5 SHL DUP2 MSTORE PUSH1 0x20 PUSH1 0x4 DUP3 ADD MSTORE PUSH1 0x16 PUSH1 0x24 DUP3 ADD MSTORE PUSH22 0x496D616765732063616E6E6F7420626520656D707479 PUSH1 0x50 SHL PUSH1 0x44 DUP3 ADD MSTORE PUSH1 0x64 SWAP1 REVERT JUMPDEST ISZERO PUSH2 0x7F2D JUMPI JUMP JUMPDEST PUSH1 0x40 MLOAD PUSH3 0x461BCD PUSH1 0xE5 SHL DUP2 MSTORE PUSH1 0x20 PUSH1 0x4 DUP3 ADD MSTORE PUSH1 0x1C PUSH1 0x24 DUP3 ADD MSTORE PUSH28 0x496D616765732063616E6E6F74206265206D6F7265207468616E2035 PUSH1 0x20 SHL PUSH1 0x44 DUP3 ADD MSTORE PUSH1 0x64 SWAP1 REVERT JUMPDEST PUSH1 0x40 MLOAD SWAP1 PUSH2 0x7F7E DUP3 PUSH2 0x6DC9 JUMP JUMPDEST DUP2 PUSH2 0x240 PUSH1 0x0 SWAP2 DUP3 DUP2 MSTORE DUP3 PUSH1 0x20 DUP3 ADD MSTORE PUSH1 0x60 SWAP3 DUP4 PUSH1 0x40 DUP4 ADD MSTORE DUP4 DUP1 DUP4 ADD MSTORE DUP1 PUSH1 0x80 DUP4 ADD MSTORE DUP1 PUSH1 0xA0 DUP4 ADD MSTORE DUP4 PUSH1 0xC0 DUP4 ADD MSTORE DUP4 PUSH1 0xE0 DUP4 ADD MSTORE DUP4 PUSH2 0x100 DUP4 ADD MSTORE DUP4 PUSH2 0x120 DUP4 ADD MSTORE DUP4 PUSH2 0x140 DUP4 ADD MSTORE DUP1 PUSH2 0x160 DUP4 ADD MSTORE DUP4 PUSH2 0x180 DUP4 ADD MSTORE DUP4 PUSH2 0x1A0 DUP4 ADD MSTORE DUP1 PUSH2 0x1C0 DUP4 ADD MSTORE DUP1 PUSH2 0x1E0 DUP4 ADD MSTORE DUP1 PUSH2 0x200 DUP4 ADD MSTORE PUSH2 0x220 DUP3 ADD MSTORE ADD MSTORE JUMP JUMPDEST SWAP3 SWAP2 SWAP1 SWAP3 PUSH2 0x800A DUP5 PUSH2 0x7443 JUMP JUMPDEST SWAP2 PUSH2 0x8018 PUSH1 0x40 MLOAD SWAP4 DUP5 PUSH2 0x6EA4 JUMP JUMPDEST DUP3 SWAP5 DUP1 DUP5 MSTORE PUSH1 0x20 DUP1 SWAP5 ADD SWAP1 PUSH1 0x5 SHL DUP4 ADD SWAP3 DUP3 DUP5 GT PUSH2 0x5E2 JUMPI DUP1 SWAP2 JUMPDEST DUP5 DUP4 LT PUSH2 0x8042 JUMPI POP POP POP POP POP POP JUMP JUMPDEST DUP3 CALLDATALOAD PUSH1 0x1 PUSH1 0x1 PUSH1 0x40 SHL SUB DUP2 GT PUSH2 0x5E2 JUMPI DUP7 SWAP2 PUSH2 0x8061 DUP7 DUP5 SWAP4 DUP7 ADD PUSH2 0x6F19 JUMP JUMPDEST DUP2 MSTORE ADD SWAP3 ADD SWAP2 PUSH2 0x8033 JUMP JUMPDEST DUP2 DUP2 MUL SWAP3 SWAP2 DUP2 ISZERO SWAP2 DUP5 DIV EQ OR ISZERO PUSH2 0x1439 JUMPI JUMP JUMPDEST PUSH2 0x8089 DUP2 SLOAD PUSH2 0x6FD5 JUMP JUMPDEST SWAP1 DUP2 PUSH2 0x8093 JUMPI POP POP JUMP JUMPDEST DUP2 PUSH1 0x1F PUSH1 0x0 SWAP4 GT PUSH1 0x1 EQ PUSH2 0x80A5 JUMPI POP SSTORE JUMP JUMPDEST SWAP1 DUP1 DUP4 SWAP2 DUP3 MSTORE PUSH2 0x80C4 PUSH1 0x1F PUSH1 0x20 DUP5 KECCAK256 SWAP5 ADD PUSH1 0x5 SHR DUP5 ADD PUSH1 0x1 DUP6 ADD PUSH2 0x7B7A JUMP JUMPDEST SSTORE SSTORE JUMP JUMPDEST SWAP1 PUSH1 0x1 PUSH1 0x40 SHL DUP2 GT PUSH2 0x144F JUMPI DUP2 SLOAD SWAP2 DUP2 DUP2 SSTORE DUP3 DUP3 LT PUSH2 0x80E6 JUMPI POP POP POP JUMP JUMPDEST PUSH1 0x0 MSTORE PUSH1 0x20 PUSH1 0x0 KECCAK256 SWAP2 DUP3 ADD SWAP2 ADD JUMPDEST DUP2 DUP2 LT PUSH2 0x80FF JUMPI POP POP JUMP JUMPDEST DUP1 PUSH2 0x810B PUSH1 0x1 SWAP3 PUSH2 0x807F JUMP JUMPDEST ADD PUSH2 0x80F4 JUMP JUMPDEST DUP2 MLOAD DUP2 SSTORE PUSH1 0x20 DUP1 DUP4 ADD MLOAD PUSH1 0x1 DUP1 DUP5 ADD DUP1 SLOAD PUSH1 0x1 PUSH1 0x1 PUSH1 0xA0 SHL SUB NOT AND PUSH1 0x1 PUSH1 0x1 PUSH1 0xA0 SHL SUB SWAP4 SWAP1 SWAP4 AND SWAP3 SWAP1 SWAP3 OR SWAP1 SWAP2 SSTORE PUSH1 0x40 DUP5 ADD MLOAD PUSH1 0x2 DUP5 ADD SSTORE PUSH1 0x60 DUP5 ADD MLOAD DUP1 MLOAD SWAP4 SWAP5 SWAP1 SWAP4 SWAP1 SWAP3 PUSH1 0x3 DUP7 ADD SWAP3 SWAP1 PUSH1 0x1 PUSH1 0x1 PUSH1 0x40 SHL SUB DUP4 GT PUSH2 0x144F JUMPI PUSH2 0x8178 DUP4 PUSH2 0x44A5 DUP7 SLOAD PUSH2 0x6FD5 JUMP JUMPDEST DUP1 PUSH1 0x1F DUP5 GT PUSH1 0x1 EQ PUSH2 0x81D0 JUMPI POP SWAP2 DUP1 DUP1 SWAP3 PUSH1 0xA0 SWAP7 SWAP6 SWAP5 PUSH1 0x5 SWAP9 PUSH1 0x0 SWAP5 PUSH2 0x81C5 JUMPI JUMPDEST POP POP SHL SWAP2 PUSH1 0x0 NOT SWAP1 PUSH1 0x3 SHL SHR NOT AND OR SWAP1 SSTORE JUMPDEST PUSH2 0x81BE PUSH1 0x80 DUP3 ADD MLOAD ISZERO ISZERO PUSH1 0x4 DUP7 ADD PUSH2 0x799C JUMP JUMPDEST ADD MLOAD SWAP2 ADD SSTORE JUMP JUMPDEST ADD MLOAD SWAP3 POP CODESIZE DUP1 PUSH2 0x8199 JUMP JUMPDEST SWAP2 SWAP4 SWAP5 SWAP6 PUSH1 0x1F NOT DUP5 AND DUP7 PUSH1 0x0 MSTORE DUP4 PUSH1 0x0 KECCAK256 SWAP4 PUSH1 0x0 SWAP1 JUMPDEST DUP3 DUP3 LT PUSH2 0x8228 JUMPI POP POP SWAP2 PUSH1 0x5 SWAP8 SWAP6 SWAP4 SWAP2 DUP6 PUSH1 0xA0 SWAP9 SWAP7 SWAP5 LT PUSH2 0x820F JUMPI JUMPDEST POP POP POP DUP2 SHL ADD SWAP1 SSTORE PUSH2 0x81AB JUMP JUMPDEST ADD MLOAD PUSH1 0x0 NOT PUSH1 0xF8 DUP5 PUSH1 0x3 SHL AND SHR NOT AND SWAP1 SSTORE CODESIZE DUP1 DUP1 PUSH2 0x8202 JUMP JUMPDEST DUP1 DUP9 DUP7 SWAP8 DUP3 SWAP5 SWAP8 DUP8 ADD MLOAD DUP2 SSTORE ADD SWAP7 ADD SWAP5 ADD SWAP1 PUSH2 0x81E6 JUMP JUMPDEST DUP1 SLOAD PUSH1 0x1 PUSH1 0x40 SHL DUP2 LT ISZERO PUSH2 0x144F JUMPI PUSH2 0x825C SWAP2 PUSH1 0x1 DUP3 ADD DUP2 SSTORE PUSH2 0x7343 JUMP JUMPDEST DUP2 SWAP3 SWAP2 SLOAD SWAP1 PUSH1 0x3 SHL SWAP2 DUP3 SHL SWAP2 PUSH1 0x0 NOT SWAP1 SHL NOT AND OR SWAP1 SSTORE JUMP JUMPDEST ISZERO PUSH2 0x827B JUMPI JUMP JUMPDEST PUSH1 0x40 MLOAD PUSH3 0x461BCD PUSH1 0xE5 SHL DUP2 MSTORE PUSH1 0x20 PUSH1 0x4 DUP3 ADD MSTORE PUSH1 0x1C PUSH1 0x24 DUP3 ADD MSTORE PUSH28 0x115490CDCC8C4E881D1BDAD95B88185B1C9958591E481B5A5B9D1959 PUSH1 0x22 SHL PUSH1 0x44 DUP3 ADD MSTORE PUSH1 0x64 SWAP1 REVERT JUMPDEST ISZERO PUSH2 0x82C6 JUMPI JUMP JUMPDEST PUSH1 0x40 MLOAD PUSH3 0x461BCD PUSH1 0xE5 SHL DUP2 MSTORE PUSH1 0x20 PUSH1 0x4 DUP3 ADD MSTORE PUSH1 0x16 PUSH1 0x24 DUP3 ADD MSTORE PUSH22 0x141C9BD91D58DD08191BD95CC81B9BDD08195E1A5CDD PUSH1 0x52 SHL PUSH1 0x44 DUP3 ADD MSTORE PUSH1 0x64 SWAP1 REVERT JUMPDEST ISZERO PUSH2 0x830B JUMPI JUMP JUMPDEST PUSH1 0x40 MLOAD PUSH3 0x461BCD PUSH1 0xE5 SHL DUP2 MSTORE PUSH1 0x20 PUSH1 0x4 DUP3 ADD MSTORE PUSH1 0x12 PUSH1 0x24 DUP3 ADD MSTORE PUSH18 0x141C9BD91D58DD081A5CC819195B195D1959 PUSH1 0x72 SHL PUSH1 0x44 DUP3 ADD MSTORE PUSH1 0x64 SWAP1 REVERT JUMPDEST SWAP1 DUP1 DUP3 EQ PUSH2 0x8419 JUMPI PUSH2 0x8357 DUP2 SLOAD PUSH2 0x6FD5 JUMP JUMPDEST SWAP1 PUSH1 0x1 PUSH1 0x1 PUSH1 0x40 SHL SUB DUP3 GT PUSH2 0x144F JUMPI DUP2 SWAP1 PUSH2 0x8376 DUP3 PUSH2 0x44A5 DUP7 SLOAD PUSH2 0x6FD5 JUMP JUMPDEST PUSH1 0x0 SWAP1 PUSH1 0x1F DUP4 GT PUSH1 0x1 EQ PUSH2 0x83AD JUMPI PUSH1 0x0 SWAP3 PUSH2 0x83A2 JUMPI JUMPDEST POP POP DUP2 PUSH1 0x1 SHL SWAP2 PUSH1 0x0 NOT SWAP1 PUSH1 0x3 SHL SHR NOT AND OR SWAP1 SSTORE JUMP JUMPDEST ADD SLOAD SWAP1 POP CODESIZE DUP1 PUSH2 0x838C JUMP JUMPDEST DUP2 MSTORE PUSH1 0x20 DUP1 DUP3 KECCAK256 DUP6 DUP4 MSTORE DUP2 DUP4 KECCAK256 SWAP4 POP SWAP1 PUSH1 0x1F NOT DUP6 AND SWAP1 DUP4 SWAP1 JUMPDEST DUP3 DUP3 LT PUSH2 0x8400 JUMPI POP POP SWAP1 DUP5 PUSH1 0x1 SWAP6 SWAP5 SWAP4 SWAP3 LT PUSH2 0x83E7 JUMPI JUMPDEST POP POP POP DUP2 SHL ADD SWAP1 SSTORE JUMP JUMPDEST ADD SLOAD PUSH1 0x0 NOT PUSH1 0xF8 DUP5 PUSH1 0x3 SHL AND SHR NOT AND SWAP1 SSTORE CODESIZE DUP1 DUP1 PUSH2 0x83DD JUMP JUMPDEST DUP5 SWAP6 DUP2 SWAP3 SWAP6 DUP6 ADD SLOAD DUP2 SSTORE PUSH1 0x1 DUP1 SWAP2 ADD SWAP7 ADD SWAP5 ADD SWAP1 PUSH2 0x83C6 JUMP JUMPDEST POP POP JUMP JUMPDEST SWAP1 PUSH1 0x40 MLOAD PUSH2 0x842A DUP2 PUSH2 0x6E6E JUMP JUMPDEST PUSH1 0xA0 PUSH1 0x5 DUP3 SWAP5 DUP1 SLOAD DUP5 MSTORE PUSH1 0x1 DUP1 DUP5 SHL SUB PUSH1 0x1 DUP3 ADD SLOAD AND PUSH1 0x20 DUP6 ADD MSTORE PUSH1 0x2 DUP2 ADD SLOAD PUSH1 0x40 DUP6 ADD MSTORE PUSH1 0x40 MLOAD PUSH2 0x8463 DUP2 PUSH2 0x3CE DUP2 PUSH1 0x3 DUP7 ADD PUSH2 0x700F JUMP JUMPDEST PUSH1 0x60 DUP6 ADD MSTORE PUSH1 0xFF PUSH1 0x4 DUP3 ADD SLOAD AND ISZERO ISZERO PUSH1 0x80 DUP6 ADD MSTORE ADD SLOAD SWAP2 ADD MSTORE JUMP JUMPDEST PUSH1 0x0 NOT DUP2 EQ PUSH2 0x1439 JUMPI PUSH1 0x1 ADD SWAP1 JUMP JUMPDEST SWAP1 PUSH2 0x8497 DUP3 PUSH2 0x7443 JUMP JUMPDEST PUSH2 0x84A4 PUSH1 0x40 MLOAD SWAP2 DUP3 PUSH2 0x6EA4 JUMP JUMPDEST DUP3 DUP2 MSTORE DUP1 SWAP3 PUSH2 0x84B5 PUSH1 0x1F NOT SWAP2 PUSH2 0x7443 JUMP JUMPDEST ADD SWAP1 PUSH1 0x0 JUMPDEST DUP3 DUP2 LT PUSH2 0x84C6 JUMPI POP POP POP JUMP JUMPDEST PUSH1 0x20 SWAP1 PUSH2 0x84D1 PUSH2 0x7F71 JUMP JUMPDEST DUP3 DUP3 DUP6 ADD ADD MSTORE ADD PUSH2 0x84BA JUMP JUMPDEST DUP1 MLOAD DUP3 LT ISZERO PUSH2 0x2318 JUMPI PUSH1 0x20 SWAP2 PUSH1 0x5 SHL ADD ADD SWAP1 JUMP JUMPDEST ISZERO PUSH2 0x84F8 JUMPI JUMP JUMPDEST PUSH1 0x40 MLOAD PUSH3 0x461BCD PUSH1 0xE5 SHL DUP2 MSTORE PUSH1 0x20 PUSH1 0x4 DUP3 ADD MSTORE PUSH1 0x1D PUSH1 0x24 DUP3 ADD MSTORE PUSH32 0x43617465676F7279206E616D652063616E6E6F7420626520656D707479000000 PUSH1 0x44 DUP3 ADD MSTORE PUSH1 0x64 SWAP1 REVERT JUMPDEST ISZERO PUSH2 0x8544 JUMPI JUMP JUMPDEST PUSH1 0x64 PUSH1 0x40 MLOAD PUSH3 0x461BCD PUSH1 0xE5 SHL DUP2 MSTORE PUSH1 0x20 PUSH1 0x4 DUP3 ADD MSTORE PUSH1 0x20 PUSH1 0x24 DUP3 ADD MSTORE PUSH32 0x53756263617465676F7279206E616D652063616E6E6F7420626520656D707479 PUSH1 0x44 DUP3 ADD MSTORE REVERT JUMPDEST SWAP1 DUP3 LT ISZERO PUSH2 0x2318 JUMPI PUSH2 0x859F SWAP2 PUSH1 0x5 SHL DUP2 ADD SWAP1 PUSH2 0x7CC7 JUMP JUMPDEST SWAP1 SWAP2 JUMP JUMPDEST ISZERO PUSH2 0x85AA JUMPI JUMP JUMPDEST PUSH1 0x40 MLOAD PUSH3 0x461BCD PUSH1 0xE5 SHL DUP2 MSTORE PUSH1 0x20 PUSH1 0x4 DUP3 ADD MSTORE PUSH1 0x17 PUSH1 0x24 DUP3 ADD MSTORE PUSH23 0x10D85D1959DBDC9E48191BD95CC81B9BDD08195E1A5CDD PUSH1 0x4A SHL PUSH1 0x44 DUP3 ADD MSTORE PUSH1 0x64 SWAP1 REVERT JUMPDEST SWAP1 PUSH2 0x8601 PUSH1 0x20 SWAP2 SWAP5 SWAP4 SWAP5 PUSH1 0x40 DUP5 MSTORE PUSH1 0x40 DUP5 ADD SWAP1 PUSH2 0x6AAE JUMP JUMPDEST SWAP4 ISZERO ISZERO SWAP2 ADD MSTORE JUMP JUMPDEST ISZERO PUSH2 0x8610 JUMPI JUMP JUMPDEST PUSH1 0x40 MLOAD PUSH3 0x461BCD PUSH1 0xE5 SHL DUP2 MSTORE PUSH1 0x20 PUSH1 0x4 DUP3 ADD MSTORE PUSH1 0x1A PUSH1 0x24 DUP3 ADD MSTORE PUSH26 0x14DD5898D85D1959DBDC9E48191BD95CC81B9BDD08195E1A5CDD PUSH1 0x32 SHL PUSH1 0x44 DUP3 ADD MSTORE PUSH1 0x64 SWAP1 REVERT JUMPDEST SWAP1 PUSH1 0x40 MLOAD SWAP2 DUP3 DUP2 SLOAD SWAP2 DUP3 DUP3 MSTORE PUSH1 0x20 SWAP3 DUP4 DUP4 ADD SWAP2 PUSH1 0x0 MSTORE DUP4 PUSH1 0x0 KECCAK256 SWAP4 PUSH1 0x0 SWAP1 JUMPDEST DUP3 DUP3 LT PUSH2 0x8687 JUMPI POP POP POP PUSH2 0x7BCC SWAP3 POP SUB DUP4 PUSH2 0x6EA4 JUMP JUMPDEST DUP6 SLOAD DUP5 MSTORE PUSH1 0x1 SWAP6 DUP7 ADD SWAP6 DUP9 SWAP6 POP SWAP4 DUP2 ADD SWAP4 SWAP1 SWAP2 ADD SWAP1 PUSH2 0x8671 JUMP JUMPDEST PUSH1 0x0 JUMPDEST DUP3 DUP2 LT PUSH2 0x86B0 JUMPI POP POP POP JUMP JUMPDEST PUSH1 0x60 DUP3 DUP3 ADD MSTORE PUSH1 0x20 ADD PUSH2 0x86A4 JUMP JUMPDEST SWAP2 SWAP1 DUP3 SUB SWAP2 DUP3 GT PUSH2 0x1439 JUMPI JUMP JUMPDEST PUSH1 0x40 MLOAD SWAP1 PUSH2 0x86D8 DUP3 PUSH2 0x6E6E JUMP JUMPDEST PUSH1 0x0 PUSH1 0xA0 DUP4 DUP3 DUP2 MSTORE DUP3 PUSH1 0x20 DUP3 ADD MSTORE DUP3 PUSH1 0x40 DUP3 ADD MSTORE PUSH1 0x60 DUP1 DUP3 ADD MSTORE DUP3 PUSH1 0x80 DUP3 ADD MSTORE ADD MSTORE JUMP JUMPDEST DUP1 SLOAD DUP3 LT ISZERO PUSH2 0x2318 JUMPI PUSH1 0x0 MSTORE PUSH1 0x6 PUSH1 0x20 PUSH1 0x0 KECCAK256 SWAP2 MUL ADD SWAP1 PUSH1 0x0 SWAP1 JUMP JUMPDEST PUSH1 0x2 PUSH1 0x1 SLOAD EQ PUSH2 0x8729 JUMPI PUSH1 0x2 PUSH1 0x1 SSTORE JUMP JUMPDEST PUSH1 0x40 MLOAD PUSH3 0x461BCD PUSH1 0xE5 SHL DUP2 MSTORE PUSH1 0x20 PUSH1 0x4 DUP3 ADD MSTORE PUSH1 0x1F PUSH1 0x24 DUP3 ADD MSTORE PUSH32 0x5265656E7472616E637947756172643A207265656E7472616E742063616C6C00 PUSH1 0x44 DUP3 ADD MSTORE PUSH1 0x64 SWAP1 REVERT JUMPDEST DUP1 SLOAD PUSH1 0x1 PUSH1 0x40 SHL DUP2 LT ISZERO PUSH2 0x144F JUMPI PUSH2 0x878D SWAP1 PUSH1 0x1 SWAP3 DUP4 DUP3 ADD DUP2 SSTORE PUSH2 0x735B JUMP JUMPDEST PUSH2 0x9330 JUMPI DUP3 MLOAD DUP2 SSTORE PUSH1 0x20 DUP1 DUP5 ADD MLOAD DUP4 DUP4 ADD SSTORE PUSH1 0x40 DUP5 ADD MLOAD PUSH1 0x2 DUP4 ADD SSTORE PUSH1 0x60 DUP5 ADD MLOAD PUSH1 0x3 DUP1 DUP5 ADD SWAP2 SWAP1 SWAP2 SSTORE PUSH1 0x80 DUP6 ADD MLOAD PUSH1 0x4 DUP1 DUP6 ADD SWAP2 SWAP1 SWAP2 SSTORE PUSH1 0xA0 DUP1 DUP8 ADD MLOAD PUSH1 0x5 DUP7 ADD DUP1 SLOAD PUSH1 0x1 PUSH1 0x1 PUSH1 0xA0 SHL SUB NOT AND PUSH1 0x1 PUSH1 0x1 PUSH1 0xA0 SHL SUB SWAP3 DUP4 AND OR SWAP1 SSTORE PUSH1 0xC0 DUP9 ADD MLOAD PUSH1 0x6 DUP8 ADD DUP1 SLOAD PUSH1 0xE0 DUP12 ADD MLOAD PUSH1 0x1 PUSH1 0x1 PUSH1 0xA8 SHL SUB NOT SWAP1 SWAP2 AND SWAP3 SWAP1 SWAP4 AND SWAP2 SWAP1 SWAP2 OR SWAP2 ISZERO ISZERO SWAP1 SWAP3 SHL PUSH1 0xFF PUSH1 0xA0 SHL AND OR SWAP1 SSTORE PUSH2 0x100 DUP7 ADD MLOAD DUP1 MLOAD DUP1 MLOAD PUSH1 0x1 PUSH1 0x1 PUSH1 0x40 SHL SUB SWAP7 SWAP5 SWAP6 SWAP2 SWAP5 SWAP2 SWAP3 SWAP1 PUSH1 0x7 DUP4 ADD SWAP1 DUP9 DUP2 GT PUSH2 0x8D2B JUMPI PUSH2 0x8850 DUP2 PUSH2 0x3A45 DUP5 SLOAD PUSH2 0x6FD5 JUMP JUMPDEST DUP1 DUP6 PUSH1 0x1F SWAP9 DUP10 DUP4 GT PUSH1 0x1 EQ PUSH2 0x92C5 JUMPI PUSH1 0x0 SWAP3 PUSH2 0x92BA JUMPI JUMPDEST POP POP PUSH1 0x0 NOT DUP3 DUP11 SHL SHR NOT AND SWAP1 DUP11 SHL OR SWAP1 SSTORE JUMPDEST PUSH1 0x8 DUP3 ADD DUP4 DUP3 ADD MLOAD DUP1 MLOAD SWAP1 DUP10 DUP3 GT PUSH2 0x9057 JUMPI DUP2 SWAP1 PUSH2 0x889B DUP3 PUSH2 0x44A5 DUP7 SLOAD PUSH2 0x6FD5 JUMP JUMPDEST DUP7 SWAP1 DUP10 DUP4 GT PUSH1 0x1 EQ PUSH2 0x924F JUMPI PUSH1 0x0 SWAP3 PUSH2 0x9244 JUMPI JUMPDEST POP POP PUSH1 0x0 NOT DUP3 DUP11 SHL SHR NOT AND SWAP1 DUP11 SHL OR SWAP1 SSTORE JUMPDEST PUSH1 0x9 DUP3 ADD PUSH1 0x40 DUP3 ADD MLOAD DUP1 MLOAD SWAP1 DUP10 DUP3 GT PUSH2 0x9057 JUMPI DUP2 SWAP1 PUSH2 0x88E4 DUP3 PUSH2 0x44A5 DUP7 SLOAD PUSH2 0x6FD5 JUMP JUMPDEST DUP7 SWAP1 DUP10 DUP4 GT PUSH1 0x1 EQ PUSH2 0x91D9 JUMPI PUSH1 0x0 SWAP3 PUSH2 0x91CE JUMPI JUMPDEST POP POP PUSH1 0x0 NOT DUP3 DUP11 SHL SHR NOT AND SWAP1 DUP11 SHL OR SWAP1 SSTORE JUMPDEST PUSH1 0xA DUP3 ADD PUSH1 0x60 DUP3 ADD MLOAD DUP1 MLOAD SWAP1 DUP10 DUP3 GT PUSH2 0x9057 JUMPI DUP2 SWAP1 PUSH2 0x892D DUP3 PUSH2 0x44A5 DUP7 SLOAD PUSH2 0x6FD5 JUMP JUMPDEST DUP7 SWAP1 DUP10 DUP4 GT PUSH1 0x1 EQ PUSH2 0x9163 JUMPI PUSH1 0x0 SWAP3 PUSH2 0x9158 JUMPI JUMPDEST POP POP PUSH1 0x0 NOT DUP3 DUP11 SHL SHR NOT AND SWAP1 DUP11 SHL OR SWAP1 SSTORE JUMPDEST PUSH1 0xB DUP3 ADD PUSH1 0x80 DUP3 ADD MLOAD DUP1 MLOAD SWAP1 DUP10 DUP3 GT PUSH2 0x9057 JUMPI DUP2 SWAP1 PUSH2 0x8976 DUP3 PUSH2 0x44A5 DUP7 SLOAD PUSH2 0x6FD5 JUMP JUMPDEST DUP7 SWAP1 DUP10 DUP4 GT PUSH1 0x1 EQ PUSH2 0x90ED JUMPI PUSH1 0x0 SWAP3 PUSH2 0x90E2 JUMPI JUMPDEST POP POP PUSH1 0x0 NOT DUP3 DUP11 SHL SHR NOT AND SWAP1 DUP11 SHL OR SWAP1 SSTORE JUMPDEST PUSH1 0xC DUP3 ADD PUSH1 0xA0 DUP3 ADD MLOAD DUP1 MLOAD SWAP1 DUP10 DUP3 GT PUSH2 0x9057 JUMPI DUP2 SWAP1 PUSH2 0x89BF DUP3 PUSH2 0x44A5 DUP7 SLOAD PUSH2 0x6FD5 JUMP JUMPDEST DUP7 SWAP1 DUP10 DUP4 GT PUSH1 0x1 EQ PUSH2 0x9077 JUMPI PUSH1 0x0 SWAP3 PUSH2 0x906C JUMPI JUMPDEST POP POP PUSH1 0x0 NOT DUP3 DUP11 SHL SHR NOT AND SWAP1 DUP11 SHL OR SWAP1 SSTORE JUMPDEST PUSH1 0xD DUP3 ADD PUSH1 0xC0 DUP3 ADD MLOAD DUP1 MLOAD SWAP1 DUP10 DUP3 GT PUSH2 0x9057 JUMPI DUP2 SWAP1 PUSH2 0x8A08 DUP3 PUSH2 0x44A5 DUP7 SLOAD PUSH2 0x6FD5 JUMP JUMPDEST DUP7 SWAP1 DUP10 DUP4 GT PUSH1 0x1 EQ PUSH2 0x8FEC JUMPI PUSH1 0x0 SWAP3 PUSH2 0x8FE1 JUMPI JUMPDEST POP POP PUSH1 0x0 NOT DUP3 DUP11 SHL SHR NOT AND SWAP1 DUP11 SHL OR SWAP1 SSTORE JUMPDEST PUSH1 0xE0 ADD MLOAD DUP1 MLOAD PUSH1 0xE DUP4 ADD SWAP2 DUP9 DUP3 GT PUSH2 0x8D2B JUMPI DUP2 SWAP1 PUSH2 0x8A50 DUP3 PUSH2 0x44A5 DUP7 SLOAD PUSH2 0x6FD5 JUMP JUMPDEST DUP6 SWAP1 DUP9 DUP4 GT PUSH1 0x1 EQ PUSH2 0x8F7F JUMPI PUSH1 0x0 SWAP3 PUSH2 0x8F74 JUMPI JUMPDEST POP POP PUSH1 0x0 NOT DUP3 DUP10 SHL SHR NOT AND SWAP1 DUP10 SHL OR SWAP1 SSTORE JUMPDEST PUSH2 0x120 PUSH1 0xF DUP3 ADD SWAP9 ADD MLOAD SWAP8 DUP9 MLOAD DUP1 MLOAD SWAP1 DUP9 DUP3 GT PUSH2 0x8D2B JUMPI DUP2 SWAP1 PUSH2 0x8A9D DUP3 PUSH2 0x44A5 DUP7 SLOAD PUSH2 0x6FD5 JUMP JUMPDEST DUP6 SWAP1 DUP9 DUP4 GT PUSH1 0x1 EQ PUSH2 0x8F12 JUMPI PUSH1 0x0 SWAP3 PUSH2 0x8F07 JUMPI JUMPDEST POP POP PUSH1 0x0 NOT DUP3 DUP10 SHL SHR NOT AND SWAP1 DUP10 SHL OR SWAP1 SSTORE JUMPDEST PUSH1 0x10 DUP2 ADD DUP3 DUP10 ADD MLOAD SWAP1 DUP4 DUP3 MLOAD SWAP3 PUSH2 0x8ADA DUP5 DUP5 PUSH2 0x80C8 JUMP JUMPDEST ADD SWAP1 PUSH1 0x0 MSTORE DUP4 PUSH1 0x0 KECCAK256 PUSH1 0x0 SWAP2 JUMPDEST DUP4 DUP4 LT PUSH2 0x8E1A JUMPI POP POP POP POP PUSH1 0x11 DUP2 ADD PUSH1 0x40 DUP10 ADD MLOAD DUP1 MLOAD SWAP1 DUP9 DUP3 GT PUSH2 0x8D2B JUMPI DUP2 SWAP1 PUSH2 0x8B15 DUP3 PUSH2 0x44A5 DUP7 SLOAD PUSH2 0x6FD5 JUMP JUMPDEST DUP6 SWAP1 DUP9 DUP4 GT PUSH1 0x1 EQ PUSH2 0x8DB8 JUMPI PUSH1 0x0 SWAP3 PUSH2 0x8DAD JUMPI JUMPDEST POP POP PUSH1 0x0 NOT DUP3 DUP10 SHL SHR NOT AND SWAP1 DUP10 SHL OR SWAP1 SSTORE JUMPDEST PUSH1 0x12 DUP2 ADD PUSH1 0x60 DUP10 ADD MLOAD DUP1 MLOAD SWAP1 DUP9 DUP3 GT PUSH2 0x8D2B JUMPI DUP2 SWAP1 PUSH2 0x8B5E DUP3 PUSH2 0x44A5 DUP7 SLOAD PUSH2 0x6FD5 JUMP JUMPDEST DUP6 SWAP1 DUP9 DUP4 GT PUSH1 0x1 EQ PUSH2 0x8D4B JUMPI PUSH1 0x0 SWAP3 PUSH2 0x8D40 JUMPI JUMPDEST POP POP PUSH1 0x0 NOT DUP3 DUP10 SHL SHR NOT AND SWAP1 DUP10 SHL OR SWAP1 SSTORE JUMPDEST PUSH1 0x80 DUP9 ADD MLOAD PUSH1 0x13 DUP3 ADD SSTORE PUSH1 0x14 DUP2 ADD PUSH1 0xA0 DUP10 ADD MLOAD DUP1 MLOAD SWAP1 DUP9 DUP3 GT PUSH2 0x8D2B JUMPI PUSH2 0x8BAF DUP3 PUSH2 0x1C13 DUP6 SLOAD PUSH2 0x6FD5 JUMP JUMPDEST DUP5 SWAP1 DUP8 DUP4 GT PUSH1 0x1 EQ PUSH2 0x8CBE JUMPI SWAP2 DUP1 PUSH1 0x15 SWAP5 SWAP3 PUSH1 0xC0 SWAP7 SWAP5 PUSH1 0x0 SWAP3 PUSH2 0x8CB3 JUMPI JUMPDEST POP POP PUSH1 0x0 NOT DUP3 DUP12 SHL SHR NOT AND SWAP1 DUP12 SHL OR SWAP1 SSTORE JUMPDEST ADD SWAP8 ADD MLOAD SWAP2 DUP3 MLOAD SWAP6 DUP7 GT PUSH2 0x8C9E JUMPI POP PUSH2 0x8C02 DUP6 PUSH2 0x8BFC DUP10 SLOAD PUSH2 0x6FD5 JUMP JUMPDEST DUP10 PUSH2 0x7B91 JUMP JUMPDEST DUP1 SWAP3 DUP6 GT PUSH1 0x1 EQ PUSH2 0x8C38 JUMPI POP SWAP4 DUP4 SWAP5 SWAP2 DUP5 SWAP3 PUSH1 0x0 SWAP6 PUSH2 0x8C2D JUMPI JUMPDEST POP POP SHL SWAP3 PUSH1 0x0 NOT SWAP2 SHL SHR NOT AND OR SWAP1 SSTORE JUMP JUMPDEST ADD MLOAD SWAP4 POP CODESIZE DUP1 PUSH2 0x8C1C JUMP JUMPDEST SWAP3 SWAP2 SWAP1 DUP5 PUSH1 0x1F NOT DUP2 AND DUP9 PUSH1 0x0 MSTORE DUP6 PUSH1 0x0 KECCAK256 SWAP6 PUSH1 0x0 SWAP1 JUMPDEST DUP10 DUP4 DUP4 LT PUSH2 0x8C84 JUMPI POP POP POP LT PUSH2 0x8C6A JUMPI JUMPDEST POP POP POP POP DUP2 SHL ADD SWAP1 SSTORE JUMP JUMPDEST ADD MLOAD SWAP1 PUSH1 0xF8 DUP5 PUSH1 0x0 NOT SWAP3 SHL AND SHR NOT AND SWAP1 SSTORE CODESIZE DUP1 DUP1 DUP1 PUSH2 0x8C5F JUMP JUMPDEST DUP6 DUP8 ADD MLOAD DUP10 SSTORE SWAP1 SWAP8 ADD SWAP7 SWAP5 DUP6 ADD SWAP5 DUP9 SWAP4 POP SWAP1 DUP2 ADD SWAP1 PUSH2 0x8C4E JUMP JUMPDEST PUSH1 0x41 SWAP1 PUSH4 0x4E487B71 PUSH1 0xE0 SHL PUSH1 0x0 MSTORE MSTORE PUSH1 0x24 PUSH1 0x0 REVERT JUMPDEST ADD MLOAD SWAP1 POP CODESIZE DUP1 PUSH2 0x8BCD JUMP JUMPDEST DUP11 SWAP3 SWAP2 PUSH1 0x1F NOT DUP4 AND SWAP2 DUP6 PUSH1 0x0 MSTORE DUP8 PUSH1 0x0 KECCAK256 SWAP3 PUSH1 0x0 JUMPDEST DUP10 DUP3 DUP3 LT PUSH2 0x8D15 JUMPI POP POP SWAP2 PUSH1 0xC0 SWAP8 SWAP6 SWAP4 SWAP2 DUP6 PUSH1 0x15 SWAP9 SWAP7 SWAP5 LT PUSH2 0x8CFD JUMPI JUMPDEST POP POP POP DUP2 SHL ADD SWAP1 SSTORE PUSH2 0x8BDF JUMP JUMPDEST ADD MLOAD PUSH1 0x0 NOT DUP4 DUP14 SHL PUSH1 0xF8 AND SHR NOT AND SWAP1 SSTORE CODESIZE DUP1 DUP1 PUSH2 0x8CF0 JUMP JUMPDEST DUP4 DUP6 ADD MLOAD DUP7 SSTORE DUP16 SWAP8 SWAP1 SWAP6 ADD SWAP5 SWAP4 DUP5 ADD SWAP4 ADD PUSH2 0x8CD3 JUMP JUMPDEST PUSH1 0x41 DUP7 PUSH4 0x4E487B71 PUSH1 0xE0 SHL PUSH1 0x0 MSTORE MSTORE PUSH1 0x24 PUSH1 0x0 REVERT JUMPDEST ADD MLOAD SWAP1 POP CODESIZE DUP1 PUSH2 0x8B72 JUMP JUMPDEST SWAP1 DUP12 SWAP4 POP PUSH1 0x1F NOT DUP4 AND SWAP2 DUP6 PUSH1 0x0 MSTORE DUP8 PUSH1 0x0 KECCAK256 SWAP3 PUSH1 0x0 JUMPDEST DUP10 DUP3 DUP3 LT PUSH2 0x8D97 JUMPI POP POP DUP5 GT PUSH2 0x8D7F JUMPI JUMPDEST POP POP POP DUP2 SHL ADD SWAP1 SSTORE PUSH2 0x8B84 JUMP JUMPDEST ADD MLOAD PUSH1 0x0 NOT DUP4 DUP12 SHL PUSH1 0xF8 AND SHR NOT AND SWAP1 SSTORE CODESIZE DUP1 DUP1 PUSH2 0x8D72 JUMP JUMPDEST DUP4 DUP6 ADD MLOAD DUP7 SSTORE DUP16 SWAP8 SWAP1 SWAP6 ADD SWAP5 SWAP4 DUP5 ADD SWAP4 ADD PUSH2 0x8D61 JUMP JUMPDEST ADD MLOAD SWAP1 POP CODESIZE DUP1 PUSH2 0x8B29 JUMP JUMPDEST SWAP1 DUP12 SWAP4 POP PUSH1 0x1F NOT DUP4 AND SWAP2 DUP6 PUSH1 0x0 MSTORE DUP8 PUSH1 0x0 KECCAK256 SWAP3 PUSH1 0x0 JUMPDEST DUP10 DUP3 DUP3 LT PUSH2 0x8E04 JUMPI POP POP DUP5 GT PUSH2 0x8DEC JUMPI JUMPDEST POP POP POP DUP2 SHL ADD SWAP1 SSTORE PUSH2 0x8B3B JUMP JUMPDEST ADD MLOAD PUSH1 0x0 NOT DUP4 DUP12 SHL PUSH1 0xF8 AND SHR NOT AND SWAP1 SSTORE CODESIZE DUP1 DUP1 PUSH2 0x8DDF JUMP JUMPDEST DUP4 DUP6 ADD MLOAD DUP7 SSTORE DUP16 SWAP8 SWAP1 SWAP6 ADD SWAP5 SWAP4 DUP5 ADD SWAP4 ADD PUSH2 0x8DCE JUMP JUMPDEST DUP1 MLOAD SWAP1 DUP2 MLOAD DUP12 DUP2 GT PUSH2 0x8EF2 JUMPI DUP13 SWAP2 DUP2 PUSH2 0x8E38 DUP11 SWAP4 PUSH2 0x1675 DUP9 SLOAD PUSH2 0x6FD5 JUMP JUMPDEST DUP3 SWAP5 DUP13 DUP3 GT PUSH1 0x1 EQ PUSH2 0x8E79 JUMPI DUP5 SWAP6 DUP3 SWAP2 PUSH1 0x0 SWAP3 PUSH2 0x8E6E JUMPI JUMPDEST POP POP PUSH1 0x0 NOT DUP3 DUP16 SHL SHR NOT AND SWAP1 DUP5 SHL OR DUP6 SSTORE JUMPDEST ADD SWAP3 ADD SWAP3 ADD SWAP2 SWAP1 PUSH2 0x8AE7 JUMP JUMPDEST ADD MLOAD SWAP1 POP CODESIZE DUP1 PUSH2 0x8E50 JUMP JUMPDEST DUP14 SWAP6 DUP8 PUSH1 0x0 MSTORE DUP5 PUSH1 0x0 KECCAK256 SWAP2 PUSH1 0x0 JUMPDEST PUSH1 0x1F NOT DUP6 AND DUP2 LT PUSH2 0x8ECE JUMPI POP SWAP7 DUP4 SWAP3 SWAP2 DUP8 SWAP9 DUP9 SWAP6 PUSH1 0x1F NOT DUP2 AND LT PUSH2 0x8EB4 JUMPI JUMPDEST POP POP POP POP DUP2 SHL ADD DUP6 SSTORE PUSH2 0x8E62 JUMP JUMPDEST ADD MLOAD SWAP1 PUSH1 0xF8 DUP5 PUSH1 0x0 NOT SWAP3 SHL AND SHR NOT AND SWAP1 SSTORE CODESIZE DUP15 DUP2 DUP1 PUSH2 0x8EA6 JUMP JUMPDEST SWAP5 SWAP8 POP SWAP3 SWAP6 DUP6 SWAP3 DUP3 DUP6 SWAP8 SWAP4 SWAP8 ADD MLOAD DUP2 SSTORE ADD SWAP5 ADD SWAP3 ADD SWAP3 DUP16 SWAP5 SWAP2 SWAP3 DUP15 SWAP7 SWAP4 DUP13 SWAP6 PUSH2 0x8E87 JUMP JUMPDEST PUSH1 0x41 DUP10 PUSH4 0x4E487B71 PUSH1 0xE0 SHL PUSH1 0x0 MSTORE MSTORE PUSH1 0x24 PUSH1 0x0 REVERT JUMPDEST ADD MLOAD SWAP1 POP CODESIZE DUP1 PUSH2 0x8AB1 JUMP JUMPDEST SWAP1 DUP12 SWAP4 POP PUSH1 0x1F NOT DUP4 AND SWAP2 DUP6 PUSH1 0x0 MSTORE DUP8 PUSH1 0x0 KECCAK256 SWAP3 PUSH1 0x0 JUMPDEST DUP10 DUP3 DUP3 LT PUSH2 0x8F5E JUMPI POP POP DUP5 GT PUSH2 0x8F46 JUMPI JUMPDEST POP POP POP DUP2 SHL ADD SWAP1 SSTORE PUSH2 0x8AC3 JUMP JUMPDEST ADD MLOAD PUSH1 0x0 NOT DUP4 DUP12 SHL PUSH1 0xF8 AND SHR NOT AND SWAP1 SSTORE CODESIZE DUP1 DUP1 PUSH2 0x8F39 JUMP JUMPDEST DUP4 DUP6 ADD MLOAD DUP7 SSTORE DUP16 SWAP8 SWAP1 SWAP6 ADD SWAP5 SWAP4 DUP5 ADD SWAP4 ADD PUSH2 0x8F28 JUMP JUMPDEST ADD MLOAD SWAP1 POP CODESIZE DUP1 PUSH2 0x8A64 JUMP JUMPDEST SWAP1 DUP12 SWAP4 POP PUSH1 0x1F NOT DUP4 AND SWAP2 DUP6 PUSH1 0x0 MSTORE DUP8 PUSH1 0x0 KECCAK256 SWAP3 PUSH1 0x0 JUMPDEST DUP10 DUP3 DUP3 LT PUSH2 0x8FCB JUMPI POP POP DUP5 GT PUSH2 0x8FB3 JUMPI JUMPDEST POP POP POP DUP2 SHL ADD SWAP1 SSTORE PUSH2 0x8A76 JUMP JUMPDEST ADD MLOAD PUSH1 0x0 NOT DUP4 DUP12 SHL PUSH1 0xF8 AND SHR NOT AND SWAP1 SSTORE CODESIZE DUP1 DUP1 PUSH2 0x8FA6 JUMP JUMPDEST DUP4 DUP6 ADD MLOAD DUP7 SSTORE DUP16 SWAP8 SWAP1 SWAP6 ADD SWAP5 SWAP4 DUP5 ADD SWAP4 ADD PUSH2 0x8F95 JUMP JUMPDEST ADD MLOAD SWAP1 POP CODESIZE DUP1 PUSH2 0x8A1C JUMP JUMPDEST SWAP1 DUP13 SWAP4 POP PUSH1 0x1F NOT DUP4 AND SWAP2 DUP6 PUSH1 0x0 MSTORE DUP9 PUSH1 0x0 KECCAK256 SWAP3 PUSH1 0x0 JUMPDEST DUP11 DUP3 DUP3 LT PUSH2 0x9038 JUMPI POP POP DUP5 GT PUSH2 0x9020 JUMPI JUMPDEST POP POP POP DUP2 SHL ADD SWAP1 SSTORE PUSH2 0x8A2E JUMP JUMPDEST ADD MLOAD PUSH1 0x0 NOT DUP4 DUP13 SHL PUSH1 0xF8 AND SHR NOT AND SWAP1 SSTORE CODESIZE DUP1 DUP1 PUSH2 0x9013 JUMP JUMPDEST SWAP2 SWAP3 SWAP4 SWAP6 SWAP7 DUP3 SWAP2 SWAP6 DUP8 DUP7 ADD MLOAD DUP2 SSTORE ADD SWAP6 ADD SWAP4 ADD SWAP1 DUP15 SWAP6 SWAP5 SWAP4 SWAP3 SWAP2 PUSH2 0x9002 JUMP JUMPDEST PUSH1 0x41 DUP8 PUSH4 0x4E487B71 PUSH1 0xE0 SHL PUSH1 0x0 MSTORE MSTORE PUSH1 0x24 PUSH1 0x0 REVERT JUMPDEST ADD MLOAD SWAP1 POP CODESIZE DUP1 PUSH2 0x89D3 JUMP JUMPDEST SWAP1 DUP13 SWAP4 POP PUSH1 0x1F NOT DUP4 AND SWAP2 DUP6 PUSH1 0x0 MSTORE DUP9 PUSH1 0x0 KECCAK256 SWAP3 PUSH1 0x0 JUMPDEST DUP11 DUP3 DUP3 LT PUSH2 0x90C3 JUMPI POP POP DUP5 GT PUSH2 0x90AB JUMPI JUMPDEST POP POP POP DUP2 SHL ADD SWAP1 SSTORE PUSH2 0x89E5 JUMP JUMPDEST ADD MLOAD PUSH1 0x0 NOT DUP4 DUP13 SHL PUSH1 0xF8 AND SHR NOT AND SWAP1 SSTORE CODESIZE DUP1 DUP1 PUSH2 0x909E JUMP JUMPDEST SWAP2 SWAP3 SWAP4 SWAP6 SWAP7 DUP3 SWAP2 SWAP6 DUP8 DUP7 ADD MLOAD DUP2 SSTORE ADD SWAP6 ADD SWAP4 ADD SWAP1 DUP15 SWAP6 SWAP5 SWAP4 SWAP3 SWAP2 PUSH2 0x908D JUMP JUMPDEST ADD MLOAD SWAP1 POP CODESIZE DUP1 PUSH2 0x898A JUMP JUMPDEST SWAP1 DUP13 SWAP4 POP PUSH1 0x1F NOT DUP4 AND SWAP2 DUP6 PUSH1 0x0 MSTORE DUP9 PUSH1 0x0 KECCAK256 SWAP3 PUSH1 0x0 JUMPDEST DUP11 DUP3 DUP3 LT PUSH2 0x9139 JUMPI POP POP DUP5 GT PUSH2 0x9121 JUMPI JUMPDEST POP POP POP DUP2 SHL ADD SWAP1 SSTORE PUSH2 0x899C JUMP JUMPDEST ADD MLOAD PUSH1 0x0 NOT DUP4 DUP13 SHL PUSH1 0xF8 AND SHR NOT AND SWAP1 SSTORE CODESIZE DUP1 DUP1 PUSH2 0x9114 JUMP JUMPDEST SWAP2 SWAP3 SWAP4 SWAP6 SWAP7 DUP3 SWAP2 SWAP6 DUP8 DUP7 ADD MLOAD DUP2 SSTORE ADD SWAP6 ADD SWAP4 ADD SWAP1 DUP15 SWAP6 SWAP5 SWAP4 SWAP3 SWAP2 PUSH2 0x9103 JUMP JUMPDEST ADD MLOAD SWAP1 POP CODESIZE DUP1 PUSH2 0x8941 JUMP JUMPDEST SWAP1 DUP13 SWAP4 POP PUSH1 0x1F NOT DUP4 AND SWAP2 DUP6 PUSH1 0x0 MSTORE DUP9 PUSH1 0x0 KECCAK256 SWAP3 PUSH1 0x0 JUMPDEST DUP11 DUP3 DUP3 LT PUSH2 0x91AF JUMPI POP POP DUP5 GT PUSH2 0x9197 JUMPI JUMPDEST POP POP POP DUP2 SHL ADD SWAP1 SSTORE PUSH2 0x8953 JUMP JUMPDEST ADD MLOAD PUSH1 0x0 NOT DUP4 DUP13 SHL PUSH1 0xF8 AND SHR NOT AND SWAP1 SSTORE CODESIZE DUP1 DUP1 PUSH2 0x918A JUMP JUMPDEST SWAP2 SWAP3 SWAP4 SWAP6 SWAP7 DUP3 SWAP2 SWAP6 DUP8 DUP7 ADD MLOAD DUP2 SSTORE ADD SWAP6 ADD SWAP4 ADD SWAP1 DUP15 SWAP6 SWAP5 SWAP4 SWAP3 SWAP2 PUSH2 0x9179 JUMP JUMPDEST ADD MLOAD SWAP1 POP CODESIZE DUP1 PUSH2 0x88F8 JUMP JUMPDEST SWAP1 DUP13 SWAP4 POP PUSH1 0x1F NOT DUP4 AND SWAP2 DUP6 PUSH1 0x0 MSTORE DUP9 PUSH1 0x0 KECCAK256 SWAP3 PUSH1 0x0 JUMPDEST DUP11 DUP3 DUP3 LT PUSH2 0x9225 JUMPI POP POP DUP5 GT PUSH2 0x920D JUMPI JUMPDEST POP POP POP DUP2 SHL ADD SWAP1 SSTORE PUSH2 0x890A JUMP JUMPDEST ADD MLOAD PUSH1 0x0 NOT DUP4 DUP13 SHL PUSH1 0xF8 AND SHR NOT AND SWAP1 SSTORE CODESIZE DUP1 DUP1 PUSH2 0x9200 JUMP JUMPDEST SWAP2 SWAP3 SWAP4 SWAP6 SWAP7 DUP3 SWAP2 SWAP6 DUP8 DUP7 ADD MLOAD DUP2 SSTORE ADD SWAP6 ADD SWAP4 ADD SWAP1 DUP15 SWAP6 SWAP5 SWAP4 SWAP3 SWAP2 PUSH2 0x91EF JUMP JUMPDEST ADD MLOAD SWAP1 POP CODESIZE DUP1 PUSH2 0x88AF JUMP JUMPDEST SWAP1 DUP13 SWAP4 POP PUSH1 0x1F NOT DUP4 AND SWAP2 DUP6 PUSH1 0x0 MSTORE DUP9 PUSH1 0x0 KECCAK256 SWAP3 PUSH1 0x0 JUMPDEST DUP11 DUP3 DUP3 LT PUSH2 0x929B JUMPI POP POP DUP5 GT PUSH2 0x9283 JUMPI JUMPDEST POP POP POP DUP2 SHL ADD SWAP1 SSTORE PUSH2 0x88C1 JUMP JUMPDEST ADD MLOAD PUSH1 0x0 NOT DUP4 DUP13 SHL PUSH1 0xF8 AND SHR NOT AND SWAP1 SSTORE CODESIZE DUP1 DUP1 PUSH2 0x9276 JUMP JUMPDEST SWAP2 SWAP3 SWAP4 SWAP6 SWAP7 DUP3 SWAP2 SWAP6 DUP8 DUP7 ADD MLOAD DUP2 SSTORE ADD SWAP6 ADD SWAP4 ADD SWAP1 DUP15 SWAP6 SWAP5 SWAP4 SWAP3 SWAP2 PUSH2 0x9265 JUMP JUMPDEST ADD MLOAD SWAP1 POP CODESIZE DUP1 PUSH2 0x8867 JUMP JUMPDEST SWAP1 DUP13 SWAP4 POP PUSH1 0x1F NOT DUP4 AND SWAP2 DUP6 PUSH1 0x0 MSTORE DUP9 PUSH1 0x0 KECCAK256 SWAP3 PUSH1 0x0 JUMPDEST DUP11 DUP3 DUP3 LT PUSH2 0x9311 JUMPI POP POP DUP5 GT PUSH2 0x92F9 JUMPI JUMPDEST POP POP POP DUP2 SHL ADD SWAP1 SSTORE PUSH2 0x8879 JUMP JUMPDEST ADD MLOAD PUSH1 0x0 NOT DUP4 DUP13 SHL PUSH1 0xF8 AND SHR NOT AND SWAP1 SSTORE CODESIZE DUP1 DUP1 PUSH2 0x92EC JUMP JUMPDEST SWAP2 SWAP3 SWAP4 SWAP6 SWAP7 DUP3 SWAP2 SWAP6 DUP8 DUP7 ADD MLOAD DUP2 SSTORE ADD SWAP6 ADD SWAP4 ADD SWAP1 DUP15 SWAP6 SWAP5 SWAP4 SWAP3 SWAP2 PUSH2 0x92DB JUMP JUMPDEST PUSH4 0x4E487B71 PUSH1 0xE0 SHL PUSH1 0x0 MSTORE PUSH1 0x0 PUSH1 0x4 MSTORE PUSH1 0x24 PUSH1 0x0 REVERT JUMPDEST ISZERO PUSH2 0x934D JUMPI JUMP JUMPDEST PUSH1 0x40 MLOAD PUSH3 0x461BCD PUSH1 0xE5 SHL DUP2 MSTORE PUSH1 0x20 PUSH1 0x4 DUP3 ADD MSTORE PUSH1 0x25 PUSH1 0x24 DUP3 ADD MSTORE PUSH32 0x4F6E6C792076657269666965642073656C6C6572206F72206F776E657220616C PUSH1 0x44 DUP3 ADD MSTORE PUSH5 0x1B1BDDD959 PUSH1 0xDA SHL PUSH1 0x64 DUP3 ADD MSTORE PUSH1 0x84 SWAP1 REVERT JUMPDEST PUSH1 0x0 DUP1 SLOAD SWAP1 SWAP4 SWAP3 SWAP2 SWAP1 PUSH1 0x1 PUSH1 0x1 PUSH1 0xA0 SHL SUB SWAP1 DUP2 AND CALLER EQ PUSH2 0x9483 JUMPI CALLER DUP6 MSTORE PUSH1 0x1E PUSH1 0x20 MSTORE PUSH1 0x40 DUP6 KECCAK256 SLOAD DUP2 AND SWAP1 DUP2 ISZERO PUSH2 0x942D JUMPI DUP2 DUP7 MSTORE PUSH1 0x12 PUSH1 0x20 MSTORE PUSH1 0xFF PUSH1 0x40 DUP8 KECCAK256 SLOAD AND PUSH1 0x4 DUP2 LT ISZERO PUSH2 0x9419 JUMPI SWAP2 PUSH2 0x7BCC SWAP6 SWAP7 SWAP2 PUSH1 0x2 PUSH2 0x9407 SWAP5 EQ SWAP3 DUP4 ISZERO PUSH2 0x940C JUMPI JUMPDEST POP POP POP PUSH2 0x9346 JUMP JUMPDEST PUSH2 0x948B JUMP JUMPDEST SLOAD AND EQ SWAP1 POP CODESIZE DUP1 DUP1 PUSH2 0x93FF JUMP JUMPDEST PUSH4 0x4E487B71 PUSH1 0xE0 SHL DUP8 MSTORE PUSH1 0x21 PUSH1 0x4 MSTORE PUSH1 0x24 DUP8 REVERT JUMPDEST SWAP1 POP PUSH1 0x12 PUSH1 0x20 MSTORE PUSH1 0xFF PUSH1 0x40 DUP7 KECCAK256 SLOAD AND PUSH1 0x4 DUP2 LT ISZERO PUSH2 0x946F JUMPI SWAP5 PUSH2 0x9407 SWAP2 PUSH1 0x2 PUSH2 0x7BCC SWAP7 SWAP8 EQ SWAP2 DUP3 ISZERO PUSH2 0x9461 JUMPI JUMPDEST POP POP PUSH2 0x9346 JUMP JUMPDEST SWAP1 SWAP2 POP SLOAD AND CALLER EQ CODESIZE DUP1 PUSH2 0x945A JUMP JUMPDEST PUSH4 0x4E487B71 PUSH1 0xE0 SHL DUP7 MSTORE PUSH1 0x21 PUSH1 0x4 MSTORE PUSH1 0x24 DUP7 REVERT JUMPDEST POP PUSH2 0x7BCC SWAP3 SWAP4 POP JUMPDEST PUSH1 0x0 SWAP2 DUP3 JUMPDEST PUSH1 0x1 DUP1 PUSH1 0xA0 SHL SUB DUP1 DUP4 AND DUP1 PUSH1 0x0 MSTORE PUSH1 0x1B PUSH1 0x20 DUP2 DUP2 MSTORE PUSH1 0x40 SWAP3 DUP4 PUSH1 0x0 KECCAK256 DUP1 SLOAD DUP8 LT ISZERO PUSH2 0x9738 JUMPI PUSH2 0x94C0 DUP8 DUP11 SWAP3 PUSH2 0x735B JUMP JUMPDEST POP SLOAD EQ PUSH2 0x94DA JUMPI POP POP POP POP POP PUSH2 0x94D5 SWAP1 PUSH2 0x847E JUMP JUMPDEST PUSH2 0x9490 JUMP JUMPDEST DUP1 SWAP2 SWAP3 SWAP4 SWAP5 SWAP7 SWAP8 SWAP9 POP PUSH1 0x0 MSTORE DUP3 DUP3 MSTORE PUSH2 0x94F6 DUP6 DUP6 PUSH1 0x0 KECCAK256 PUSH2 0x735B JUMP JUMPDEST POP SWAP6 PUSH1 0xFF PUSH1 0x6 DUP1 SWAP9 ADD SLOAD PUSH1 0xA0 SHR AND PUSH2 0x96F8 JUMPI DUP2 PUSH1 0x0 MSTORE DUP4 DUP4 MSTORE DUP1 DUP8 PUSH2 0x951E DUP9 DUP9 PUSH1 0x0 KECCAK256 PUSH2 0x735B JUMP JUMPDEST POP ADD SLOAD AND CALLER EQ SWAP1 DUP2 ISZERO PUSH2 0x96EA JUMPI JUMPDEST POP ISZERO PUSH2 0x9693 JUMPI SWAP1 PUSH2 0x9546 SWAP5 SWAP4 SWAP3 SWAP2 PUSH1 0x0 MSTORE MSTORE PUSH1 0x0 KECCAK256 PUSH2 0x735B JUMP JUMPDEST POP ADD DUP1 SLOAD PUSH1 0xFF PUSH1 0xA0 SHL NOT AND PUSH1 0x1 PUSH1 0xA0 SHL OR SWAP1 SSTORE PUSH1 0x1 JUMPDEST ISZERO PUSH2 0x9659 JUMPI DUP2 PUSH1 0x0 MSTORE PUSH1 0x20 SWAP2 PUSH1 0x15 DUP4 MSTORE PUSH1 0x1 DUP1 PUSH1 0xA0 SHL SUB SWAP3 PUSH1 0x1 SWAP4 DUP5 SWAP4 PUSH1 0x40 DUP3 DUP7 DUP3 PUSH1 0x0 KECCAK256 ADD SLOAD AND DUP7 PUSH1 0x0 SWAP1 JUMPDEST PUSH2 0x95AB JUMPI JUMPDEST POP POP PUSH1 0x0 DUP1 MLOAD PUSH1 0x20 PUSH2 0x981B DUP4 CODECOPY DUP2 MLOAD SWAP2 MSTORE SWAP5 SWAP6 POP MLOAD SWAP6 DUP7 MSTORE AND SWAP4 LOG3 JUMP JUMPDEST DUP2 PUSH1 0x0 MSTORE PUSH1 0x1C DUP1 DUP8 MSTORE DUP4 PUSH1 0x0 KECCAK256 DUP1 SLOAD DUP4 LT ISZERO PUSH2 0x9652 JUMPI PUSH2 0x95CC DUP4 DUP11 SWAP3 PUSH2 0x735B JUMP JUMPDEST POP SLOAD EQ DUP1 PUSH2 0x962D JUMPI JUMPDEST PUSH2 0x95E9 JUMPI POP PUSH2 0x95E3 SWAP1 PUSH2 0x847E JUMP JUMPDEST DUP8 PUSH2 0x9589 JUMP JUMPDEST PUSH1 0x0 DUP1 MLOAD PUSH1 0x20 PUSH2 0x981B DUP4 CODECOPY DUP2 MLOAD SWAP2 MSTORE SWAP8 SWAP9 POP SWAP1 PUSH2 0x9611 SWAP2 PUSH1 0x6 SWAP4 PUSH1 0x0 MSTORE DUP8 MSTORE DUP4 PUSH1 0x0 KECCAK256 PUSH2 0x735B JUMP JUMPDEST POP ADD DUP1 SLOAD PUSH1 0xFF PUSH1 0xA0 SHL NOT AND PUSH1 0x1 PUSH1 0xA0 SHL OR SWAP1 SSTORE DUP7 SWAP6 SWAP5 CODESIZE PUSH2 0x958E JUMP JUMPDEST POP DUP3 PUSH1 0x0 MSTORE DUP1 DUP8 MSTORE DUP6 PUSH1 0x5 PUSH2 0x9645 DUP5 DUP8 PUSH1 0x0 KECCAK256 PUSH2 0x735B JUMP JUMPDEST POP ADD SLOAD AND DUP7 DUP7 AND EQ PUSH2 0x95D5 JUMP JUMPDEST POP POP PUSH2 0x958E JUMP JUMPDEST PUSH1 0x40 MLOAD PUSH3 0x461BCD PUSH1 0xE5 SHL DUP2 MSTORE PUSH1 0x20 PUSH1 0x4 DUP3 ADD MSTORE PUSH1 0x12 PUSH1 0x24 DUP3 ADD MSTORE PUSH18 0x141D5C98DA185CD9481B9BDD08199BDD5B99 PUSH1 0x72 SHL PUSH1 0x44 DUP3 ADD MSTORE PUSH1 0x64 SWAP1 REVERT JUMPDEST DUP4 MLOAD PUSH3 0x461BCD PUSH1 0xE5 SHL DUP2 MSTORE PUSH1 0x4 DUP2 ADD DUP4 SWAP1 MSTORE PUSH1 0x2A PUSH1 0x24 DUP3 ADD MSTORE PUSH32 0x4F6E6C792073656C6C6572206F72206F776E65722063616E206D61726B206173 PUSH1 0x44 DUP3 ADD MSTORE PUSH10 0x819195B1A5D995C9959 PUSH1 0xB2 SHL PUSH1 0x64 DUP3 ADD MSTORE PUSH1 0x84 SWAP1 REVERT JUMPDEST PUSH1 0x0 SLOAD AND CALLER EQ SWAP1 POP CODESIZE PUSH2 0x952C JUMP JUMPDEST PUSH1 0x64 DUP4 DUP6 DUP8 MLOAD SWAP2 PUSH3 0x461BCD PUSH1 0xE5 SHL DUP4 MSTORE PUSH1 0x4 DUP4 ADD MSTORE PUSH1 0x24 DUP3 ADD MSTORE PUSH27 0x105B1C9958591E481B585C9AD95908185CC819195B1A5D995C9959 PUSH1 0x2A SHL PUSH1 0x44 DUP3 ADD MSTORE REVERT JUMPDEST POP POP POP POP POP POP POP SWAP1 SWAP2 PUSH2 0x955C JUMP JUMPDEST PUSH1 0x0 SWAP2 DUP3 SWAP2 DUP3 SWAP2 DUP3 SWAP2 PUSH1 0x1 PUSH1 0x1 PUSH1 0xA0 SHL SUB AND PUSH2 0x9763 DUP2 ISZERO ISZERO PUSH2 0x7AF9 JUMP JUMPDEST GAS CALL PUSH2 0x976D PUSH2 0x79CA JUMP JUMPDEST POP ISZERO PUSH2 0x9775 JUMPI JUMP JUMPDEST PUSH1 0x40 MLOAD PUSH3 0x461BCD PUSH1 0xE5 SHL DUP2 MSTORE PUSH1 0x20 PUSH1 0x4 DUP3 ADD MSTORE PUSH1 0xF PUSH1 0x24 DUP3 ADD MSTORE PUSH15 0x151C985B9CD9995C8819985A5B1959 PUSH1 0x8A SHL PUSH1 0x44 DUP3 ADD MSTORE PUSH1 0x64 SWAP1 REVERT JUMPDEST PUSH1 0x0 SWAP1 PUSH1 0xE DUP1 SLOAD SWAP3 JUMPDEST DUP4 DUP2 LT PUSH2 0x97C5 JUMPI POP POP POP POP PUSH1 0x0 SWAP1 JUMP JUMPDEST PUSH1 0x0 DUP3 DUP2 MSTORE PUSH1 0x20 SWAP1 KECCAK256 DUP2 ADD SLOAD PUSH1 0x1 PUSH1 0x1 PUSH1 0xA0 SHL SUB DUP5 DUP2 AND SWAP2 AND EQ PUSH2 0x97F1 JUMPI PUSH2 0x97EC SWAP1 PUSH2 0x847E JUMP JUMPDEST PUSH2 0x97B5 JUMP JUMPDEST POP POP POP POP PUSH1 0x1 SWAP1 JUMP INVALID ORIGIN 0xB4 0x49 ADDRESS DUP13 SWAP5 0xE8 0x24 0xCC 0xED 0xD9 DUP8 PUSH26 0x32CD82F89A481C06C4643A0CB2914454A8C582F9DC8543B583E0 0x1F MSIZE 0x26 PUSH25 0x422369B2777E3649761F5808AE432CB1C24CA9438C79D3150B OR PUSH1 0xCD CODECOPY 0x1F POP MOD 0xC9 SLOAD GASPRICE 0xEA ADDMOD DUP15 0x4C SWAP1 PUSH1 0xF3 0xE5 DUP3 0xEA EXP SWAP5 DUP14 0xC6 PUSH5 0x9B25DA8BE0 SMOD SWAP13 MSTORE8 AND MSIZE EQ SGT DIFFICULTY 0xCD 0x1F 0xD0 LOG4 CALLCODE DUP5 NOT 0x49 PUSH32 0x9722A3DAAFE3B4186F6B6457E0D8F7BCB2C5CFFC294A0AAEF719685993D7BE95 0x27 EXTCODEHASH 0xB8 0x25 BASEFEE SUB LOG1 JUMP CALLDATALOAD LT 0xCC 0xEF 0xED 0xDD CALLCODE MSTORE 0xAD SHL 0xE2 0xC8 SWAP12 PUSH10 0xC2B068FC378DAA952BA7 CALL PUSH4 0xC4A11628 CREATE2 GAS 0x4D CREATE2 0x23 0xB3 0xEF GAS DUP11 SWAP9 SWAP15 SLT RETURN 0xCE PUSH29 0xF805B73156A361DA5D8369F0C37173209308910B322117AC4CFCA63969 0x23 0xC3 0xEE 0xE6 DUP12 0xE5 DUP11 LOG3 0x5F 0xD6 PUSH3 0x3AE5D6 PUSH28 0xB552DA5E1DE2E0D5854166DC8D1108E10BCB7C27DDDFC02ED9D693A0 PUSH21 0x39D026CF4EA4240B40F7D581AC802A164736F6C63 NUMBER STOP ADDMOD SGT STOP EXP "},"methodIdentifiers":{"adminImpersonating(address)":"b95a0628","approve(address,uint256)":"095ea7b3","balanceOf(address)":"70a08231","buyProduct(uint256,(string,string,string,string,string,string,string,string),string,string,uint256)":"2053fba6","buyerPurchaseHistory(address,uint256)":"9fa44dbf","changeServicePct(uint256)":"5be20959","createCategory(string)":"dc298682","createProduct((string,string,uint256,uint256,string[],string[],string[],uint256,uint256,uint256,string,string,uint256))":"e40971e5","createReview(uint256,uint256,string)":"16d81b38","createSubCategoriesBulk(uint256,string[])":"d2bc9d78","createSubCategory(uint256,string)":"7d3978db","deleteCategory(uint256)":"ceca737f","deleteProduct(uint256)":"ed90c7b7","deleteReview(uint256,uint256)":"24d41a03","deleteSubCategory(uint256)":"17e98548","getAllCategories()":"dadd0a57","getAllProducts()":"02ee3a52","getAllRegisteredSellers()":"5ad6a580","getApproved(uint256)":"081812fc","getBuyerPurchaseHistory(address)":"b27e1697","getCategory(uint256)":"f3052d26","getMyProducts()":"fdca4ca3","getProduct(uint256)":"b9db15b4","getProductsByCategory(string)":"8f38cc7b","getReviews(uint256)":"9d4a2255","getSeller(address)":"a323d29e","getSellerBalance(address)":"2148893f","getSellerProducts(address)":"e6a93e16","getSellerProfile(address)":"4293e5ce","getSellerPurchaseHistory(address)":"3c2575d5","getSellerStatus(address)":"eb11c434","getSubCategory(uint256)":"6f2c8599","getUser(address)":"6f77926b","impersonateAccount(address)":"a22fb387","isApprovedForAll(address,address)":"e985e9c5","markPurchaseDelivered(uint256,address)":"11aa5b34","name()":"06fdde03","owner()":"8da5cb5b","ownerOf(uint256)":"6352211e","productExists(uint256)":"af55ed64","products(uint256)":"7acc0b20","registerSeller(string,string,string,string,string)":"7e8555ed","registerUser(string,string,string)":"d637dcfa","registeredSellers(address)":"c64b8a8f","registeredUsers(address)":"0e50cee5","renounceOwnership()":"715018a6","reviewExists(uint256)":"00d64e76","safeTransferFrom(address,address,uint256)":"42842e0e","safeTransferFrom(address,address,uint256,bytes)":"b88d4fde","sellerBalances(address)":"607eb4e4","sellerProducts(address,uint256)":"c1302b34","sellerProfiles(address)":"9196dfcb","sellerPurchaseHistory(address,uint256)":"e585cb2c","sellerStatus(address)":"45de84db","servicePct()":"e01ef6e6","setApprovalForAll(address,bool)":"a22cb465","stopImpersonating()":"1385fd92","supportsInterface(bytes4)":"01ffc9a7","symbol()":"95d89b41","tokenURI(uint256)":"c87b56dd","transferFrom(address,address,uint256)":"23b872dd","transferOwnership(address)":"f2fde38b","updateCategory(uint256,string,bool)":"66224d8e","updateProduct(uint256,(string,string,uint256,uint256,string[],string[],string[],uint256,uint256,uint256,string,string,uint256))":"868a5461","updateSellerStatus(address,uint8)":"97b6f393","updateSubCategory(uint256,string,bool)":"317a0827","userProfiles(address)":"332d56d7","usersList(uint256)":"502aa3b5","withdraw()":"3ccfd60b"}}}}}