{"contracts/HemShop.sol":{"HemShop":{"abi":[{"inputs":[{"internalType":"uint256","name":"_pct","type":"uint256"}],"stateMutability":"nonpayable","type":"constructor"},{"anonymous":false,"inputs":[{"indexed":true,"internalType":"address","name":"owner","type":"address"},{"indexed":true,"internalType":"address","name":"approved","type":"address"},{"indexed":true,"internalType":"uint256","name":"tokenId","type":"uint256"}],"name":"Approval","type":"event"},{"anonymous":false,"inputs":[{"indexed":true,"internalType":"address","name":"owner","type":"address"},{"indexed":true,"internalType":"address","name":"operator","type":"address"},{"indexed":false,"internalType":"bool","name":"approved","type":"bool"}],"name":"ApprovalForAll","type":"event"},{"anonymous":false,"inputs":[{"indexed":true,"internalType":"address","name":"seller","type":"address"},{"indexed":false,"internalType":"uint256","name":"newBalance","type":"uint256"}],"name":"BalanceUpdated","type":"event"},{"anonymous":false,"inputs":[{"indexed":true,"internalType":"uint256","name":"productId","type":"uint256"},{"indexed":true,"internalType":"address","name":"buyer","type":"address"},{"indexed":false,"internalType":"bool","name":"isDelivered","type":"bool"}],"name":"DeliveryStatusUpdated","type":"event"},{"anonymous":false,"inputs":[{"indexed":true,"internalType":"address","name":"previousOwner","type":"address"},{"indexed":true,"internalType":"address","name":"newOwner","type":"address"}],"name":"OwnershipTransferred","type":"event"},{"anonymous":false,"inputs":[{"indexed":true,"internalType":"uint256","name":"productId","type":"uint256"},{"indexed":true,"internalType":"address","name":"buyer","type":"address"},{"indexed":true,"internalType":"address","name":"seller","type":"address"},{"indexed":false,"internalType":"uint256","name":"price","type":"uint256"},{"indexed":false,"internalType":"uint256","name":"timestamp","type":"uint256"}],"name":"ProductPurchased","type":"event"},{"anonymous":false,"inputs":[{"indexed":true,"internalType":"uint256","name":"productId","type":"uint256"},{"indexed":true,"internalType":"address","name":"buyer","type":"address"},{"indexed":true,"internalType":"address","name":"seller","type":"address"},{"indexed":false,"internalType":"uint256","name":"totalAmount","type":"uint256"},{"indexed":false,"internalType":"uint256","name":"basePrice","type":"uint256"},{"indexed":false,"internalType":"uint256","name":"timestamp","type":"uint256"}],"name":"PurchaseRecorded","type":"event"},{"anonymous":false,"inputs":[{"indexed":true,"internalType":"address","name":"seller","type":"address"},{"indexed":false,"internalType":"uint256","name":"timestamp","type":"uint256"}],"name":"SellerRegistered","type":"event"},{"anonymous":false,"inputs":[{"indexed":true,"internalType":"address","name":"seller","type":"address"},{"indexed":false,"internalType":"enum HemShop.SellerStatus","name":"status","type":"uint8"}],"name":"SellerStatusUpdated","type":"event"},{"anonymous":false,"inputs":[{"indexed":true,"internalType":"address","name":"from","type":"address"},{"indexed":true,"internalType":"address","name":"to","type":"address"},{"indexed":true,"internalType":"uint256","name":"tokenId","type":"uint256"}],"name":"Transfer","type":"event"},{"inputs":[{"internalType":"address","name":"to","type":"address"},{"internalType":"uint256","name":"tokenId","type":"uint256"}],"name":"approve","outputs":[],"stateMutability":"nonpayable","type":"function"},{"inputs":[{"internalType":"address","name":"owner","type":"address"}],"name":"balanceOf","outputs":[{"internalType":"uint256","name":"","type":"uint256"}],"stateMutability":"view","type":"function"},{"inputs":[{"internalType":"uint256","name":"productId","type":"uint256"},{"components":[{"internalType":"string","name":"fullName","type":"string"},{"internalType":"string","name":"streetAddress","type":"string"},{"internalType":"string","name":"city","type":"string"},{"internalType":"string","name":"state","type":"string"},{"internalType":"string","name":"country","type":"string"},{"internalType":"string","name":"postalCode","type":"string"},{"internalType":"string","name":"phone","type":"string"},{"internalType":"string","name":"email","type":"string"}],"internalType":"struct HemShop.ShippingDetails","name":"shippingDetails","type":"tuple"}],"name":"buyProduct","outputs":[],"stateMutability":"payable","type":"function"},{"inputs":[{"internalType":"address","name":"","type":"address"},{"internalType":"uint256","name":"","type":"uint256"}],"name":"buyerPurchaseHistory","outputs":[{"internalType":"uint256","name":"productId","type":"uint256"},{"internalType":"uint256","name":"totalAmount","type":"uint256"},{"internalType":"uint256","name":"basePrice","type":"uint256"},{"internalType":"uint256","name":"timestamp","type":"uint256"},{"internalType":"address","name":"buyer","type":"address"},{"internalType":"address","name":"seller","type":"address"},{"internalType":"bool","name":"isDelivered","type":"bool"},{"components":[{"internalType":"string","name":"fullName","type":"string"},{"internalType":"string","name":"streetAddress","type":"string"},{"internalType":"string","name":"city","type":"string"},{"internalType":"string","name":"state","type":"string"},{"internalType":"string","name":"country","type":"string"},{"internalType":"string","name":"postalCode","type":"string"},{"internalType":"string","name":"phone","type":"string"},{"internalType":"string","name":"email","type":"string"}],"internalType":"struct HemShop.ShippingDetails","name":"shippingDetails","type":"tuple"}],"stateMutability":"view","type":"function"},{"inputs":[{"components":[{"internalType":"string","name":"name","type":"string"},{"internalType":"string","name":"description","type":"string"},{"internalType":"uint256","name":"price","type":"uint256"},{"internalType":"uint256","name":"stock","type":"uint256"},{"internalType":"string","name":"color","type":"string"},{"internalType":"string","name":"size","type":"string"},{"internalType":"string[]","name":"images","type":"string[]"},{"internalType":"string","name":"category","type":"string"},{"internalType":"string","name":"subCategory","type":"string"},{"internalType":"string","name":"model","type":"string"},{"internalType":"string","name":"brand","type":"string"},{"internalType":"uint256","name":"weight","type":"uint256"},{"internalType":"uint256","name":"sku","type":"uint256"}],"internalType":"struct HemShop.ProductInput","name":"input","type":"tuple"}],"name":"createProduct","outputs":[],"stateMutability":"nonpayable","type":"function"},{"inputs":[{"internalType":"uint256","name":"productId","type":"uint256"},{"internalType":"uint256","name":"rating","type":"uint256"},{"internalType":"string","name":"comment","type":"string"}],"name":"createReview","outputs":[],"stateMutability":"nonpayable","type":"function"},{"inputs":[{"internalType":"uint256","name":"productId","type":"uint256"}],"name":"deleteProduct","outputs":[],"stateMutability":"nonpayable","type":"function"},{"inputs":[{"internalType":"uint256","name":"productId","type":"uint256"},{"internalType":"uint256","name":"reviewId","type":"uint256"}],"name":"deleteReview","outputs":[],"stateMutability":"nonpayable","type":"function"},{"inputs":[],"name":"getAllProducts","outputs":[{"components":[{"internalType":"uint256","name":"id","type":"uint256"},{"internalType":"address","name":"seller","type":"address"},{"internalType":"string","name":"name","type":"string"},{"internalType":"string","name":"description","type":"string"},{"internalType":"uint256","name":"price","type":"uint256"},{"internalType":"uint256","name":"stock","type":"uint256"},{"internalType":"string","name":"color","type":"string"},{"internalType":"string","name":"size","type":"string"},{"internalType":"string[]","name":"images","type":"string[]"},{"internalType":"string","name":"category","type":"string"},{"internalType":"string","name":"subCategory","type":"string"},{"internalType":"uint256","name":"weight","type":"uint256"},{"internalType":"string","name":"model","type":"string"},{"internalType":"string","name":"brand","type":"string"},{"internalType":"uint256","name":"sku","type":"uint256"},{"internalType":"bool","name":"soldout","type":"bool"},{"internalType":"bool","name":"wishlist","type":"bool"},{"internalType":"bool","name":"deleted","type":"bool"},{"components":[{"internalType":"uint256","name":"reviewId","type":"uint256"},{"internalType":"address","name":"reviewer","type":"address"},{"internalType":"uint256","name":"rating","type":"uint256"},{"internalType":"string","name":"comment","type":"string"},{"internalType":"bool","name":"deleted","type":"bool"}],"internalType":"struct HemShop.ReviewStruct[]","name":"reviews","type":"tuple[]"}],"internalType":"struct HemShop.ProductStruct[]","name":"","type":"tuple[]"}],"stateMutability":"view","type":"function"},{"inputs":[{"internalType":"uint256","name":"tokenId","type":"uint256"}],"name":"getApproved","outputs":[{"internalType":"address","name":"","type":"address"}],"stateMutability":"view","type":"function"},{"inputs":[{"internalType":"address","name":"buyer","type":"address"}],"name":"getBuyerPurchaseHistory","outputs":[{"components":[{"internalType":"uint256","name":"productId","type":"uint256"},{"internalType":"uint256","name":"totalAmount","type":"uint256"},{"internalType":"uint256","name":"basePrice","type":"uint256"},{"internalType":"uint256","name":"timestamp","type":"uint256"},{"internalType":"address","name":"buyer","type":"address"},{"internalType":"address","name":"seller","type":"address"},{"internalType":"bool","name":"isDelivered","type":"bool"},{"components":[{"internalType":"string","name":"fullName","type":"string"},{"internalType":"string","name":"streetAddress","type":"string"},{"internalType":"string","name":"city","type":"string"},{"internalType":"string","name":"state","type":"string"},{"internalType":"string","name":"country","type":"string"},{"internalType":"string","name":"postalCode","type":"string"},{"internalType":"string","name":"phone","type":"string"},{"internalType":"string","name":"email","type":"string"}],"internalType":"struct HemShop.ShippingDetails","name":"shippingDetails","type":"tuple"}],"internalType":"struct HemShop.PurchaseHistoryStruct[]","name":"","type":"tuple[]"}],"stateMutability":"view","type":"function"},{"inputs":[{"internalType":"address","name":"buyer","type":"address"}],"name":"getBuyerPurchaseHistoryAsAdmin","outputs":[{"components":[{"internalType":"uint256","name":"productId","type":"uint256"},{"internalType":"uint256","name":"totalAmount","type":"uint256"},{"internalType":"uint256","name":"basePrice","type":"uint256"},{"internalType":"uint256","name":"timestamp","type":"uint256"},{"internalType":"address","name":"buyer","type":"address"},{"internalType":"address","name":"seller","type":"address"},{"internalType":"bool","name":"isDelivered","type":"bool"},{"components":[{"internalType":"string","name":"fullName","type":"string"},{"internalType":"string","name":"streetAddress","type":"string"},{"internalType":"string","name":"city","type":"string"},{"internalType":"string","name":"state","type":"string"},{"internalType":"string","name":"country","type":"string"},{"internalType":"string","name":"postalCode","type":"string"},{"internalType":"string","name":"phone","type":"string"},{"internalType":"string","name":"email","type":"string"}],"internalType":"struct HemShop.ShippingDetails","name":"shippingDetails","type":"tuple"}],"internalType":"struct HemShop.PurchaseHistoryStruct[]","name":"","type":"tuple[]"}],"stateMutability":"view","type":"function"},{"inputs":[],"name":"getMyProducts","outputs":[{"components":[{"internalType":"uint256","name":"id","type":"uint256"},{"internalType":"address","name":"seller","type":"address"},{"internalType":"string","name":"name","type":"string"},{"internalType":"string","name":"description","type":"string"},{"internalType":"uint256","name":"price","type":"uint256"},{"internalType":"uint256","name":"stock","type":"uint256"},{"internalType":"string","name":"color","type":"string"},{"internalType":"string","name":"size","type":"string"},{"internalType":"string[]","name":"images","type":"string[]"},{"internalType":"string","name":"category","type":"string"},{"internalType":"string","name":"subCategory","type":"string"},{"internalType":"uint256","name":"weight","type":"uint256"},{"internalType":"string","name":"model","type":"string"},{"internalType":"string","name":"brand","type":"string"},{"internalType":"uint256","name":"sku","type":"uint256"},{"internalType":"bool","name":"soldout","type":"bool"},{"internalType":"bool","name":"wishlist","type":"bool"},{"internalType":"bool","name":"deleted","type":"bool"},{"components":[{"internalType":"uint256","name":"reviewId","type":"uint256"},{"internalType":"address","name":"reviewer","type":"address"},{"internalType":"uint256","name":"rating","type":"uint256"},{"internalType":"string","name":"comment","type":"string"},{"internalType":"bool","name":"deleted","type":"bool"}],"internalType":"struct HemShop.ReviewStruct[]","name":"reviews","type":"tuple[]"}],"internalType":"struct HemShop.ProductStruct[]","name":"","type":"tuple[]"}],"stateMutability":"view","type":"function"},{"inputs":[{"internalType":"uint256","name":"productId","type":"uint256"}],"name":"getProduct","outputs":[{"components":[{"internalType":"uint256","name":"id","type":"uint256"},{"internalType":"address","name":"seller","type":"address"},{"internalType":"string","name":"name","type":"string"},{"internalType":"string","name":"description","type":"string"},{"internalType":"uint256","name":"price","type":"uint256"},{"internalType":"uint256","name":"stock","type":"uint256"},{"internalType":"string","name":"color","type":"string"},{"internalType":"string","name":"size","type":"string"},{"internalType":"string[]","name":"images","type":"string[]"},{"internalType":"string","name":"category","type":"string"},{"internalType":"string","name":"subCategory","type":"string"},{"internalType":"uint256","name":"weight","type":"uint256"},{"internalType":"string","name":"model","type":"string"},{"internalType":"string","name":"brand","type":"string"},{"internalType":"uint256","name":"sku","type":"uint256"},{"internalType":"bool","name":"soldout","type":"bool"},{"internalType":"bool","name":"wishlist","type":"bool"},{"internalType":"bool","name":"deleted","type":"bool"},{"components":[{"internalType":"uint256","name":"reviewId","type":"uint256"},{"internalType":"address","name":"reviewer","type":"address"},{"internalType":"uint256","name":"rating","type":"uint256"},{"internalType":"string","name":"comment","type":"string"},{"internalType":"bool","name":"deleted","type":"bool"}],"internalType":"struct HemShop.ReviewStruct[]","name":"reviews","type":"tuple[]"}],"internalType":"struct HemShop.ProductStruct","name":"","type":"tuple"}],"stateMutability":"view","type":"function"},{"inputs":[{"internalType":"address","name":"seller","type":"address"}],"name":"getProductsAsSeller","outputs":[{"components":[{"internalType":"uint256","name":"id","type":"uint256"},{"internalType":"address","name":"seller","type":"address"},{"internalType":"string","name":"name","type":"string"},{"internalType":"string","name":"description","type":"string"},{"internalType":"uint256","name":"price","type":"uint256"},{"internalType":"uint256","name":"stock","type":"uint256"},{"internalType":"string","name":"color","type":"string"},{"internalType":"string","name":"size","type":"string"},{"internalType":"string[]","name":"images","type":"string[]"},{"internalType":"string","name":"category","type":"string"},{"internalType":"string","name":"subCategory","type":"string"},{"internalType":"uint256","name":"weight","type":"uint256"},{"internalType":"string","name":"model","type":"string"},{"internalType":"string","name":"brand","type":"string"},{"internalType":"uint256","name":"sku","type":"uint256"},{"internalType":"bool","name":"soldout","type":"bool"},{"internalType":"bool","name":"wishlist","type":"bool"},{"internalType":"bool","name":"deleted","type":"bool"},{"components":[{"internalType":"uint256","name":"reviewId","type":"uint256"},{"internalType":"address","name":"reviewer","type":"address"},{"internalType":"uint256","name":"rating","type":"uint256"},{"internalType":"string","name":"comment","type":"string"},{"internalType":"bool","name":"deleted","type":"bool"}],"internalType":"struct HemShop.ReviewStruct[]","name":"reviews","type":"tuple[]"}],"internalType":"struct HemShop.ProductStruct[]","name":"","type":"tuple[]"}],"stateMutability":"view","type":"function"},{"inputs":[{"internalType":"uint256","name":"productId","type":"uint256"}],"name":"getReviews","outputs":[{"components":[{"internalType":"uint256","name":"reviewId","type":"uint256"},{"internalType":"address","name":"reviewer","type":"address"},{"internalType":"uint256","name":"rating","type":"uint256"},{"internalType":"string","name":"comment","type":"string"},{"internalType":"bool","name":"deleted","type":"bool"}],"internalType":"struct HemShop.ReviewStruct[]","name":"","type":"tuple[]"}],"stateMutability":"view","type":"function"},{"inputs":[{"internalType":"address","name":"seller","type":"address"}],"name":"getSellerBalance","outputs":[{"internalType":"uint256","name":"","type":"uint256"}],"stateMutability":"view","type":"function"},{"inputs":[{"internalType":"address","name":"seller","type":"address"}],"name":"getSellerBalanceAsAdmin","outputs":[{"internalType":"uint256","name":"","type":"uint256"}],"stateMutability":"view","type":"function"},{"inputs":[{"internalType":"address","name":"seller","type":"address"}],"name":"getSellerPurchaseHistory","outputs":[{"components":[{"internalType":"uint256","name":"productId","type":"uint256"},{"internalType":"uint256","name":"totalAmount","type":"uint256"},{"internalType":"uint256","name":"basePrice","type":"uint256"},{"internalType":"uint256","name":"timestamp","type":"uint256"},{"internalType":"address","name":"buyer","type":"address"},{"internalType":"address","name":"seller","type":"address"},{"internalType":"bool","name":"isDelivered","type":"bool"},{"components":[{"internalType":"string","name":"fullName","type":"string"},{"internalType":"string","name":"streetAddress","type":"string"},{"internalType":"string","name":"city","type":"string"},{"internalType":"string","name":"state","type":"string"},{"internalType":"string","name":"country","type":"string"},{"internalType":"string","name":"postalCode","type":"string"},{"internalType":"string","name":"phone","type":"string"},{"internalType":"string","name":"email","type":"string"}],"internalType":"struct HemShop.ShippingDetails","name":"shippingDetails","type":"tuple"}],"internalType":"struct HemShop.PurchaseHistoryStruct[]","name":"","type":"tuple[]"}],"stateMutability":"view","type":"function"},{"inputs":[{"internalType":"address","name":"seller","type":"address"}],"name":"getSellerPurchaseHistoryAsAdmin","outputs":[{"components":[{"internalType":"uint256","name":"productId","type":"uint256"},{"internalType":"uint256","name":"totalAmount","type":"uint256"},{"internalType":"uint256","name":"basePrice","type":"uint256"},{"internalType":"uint256","name":"timestamp","type":"uint256"},{"internalType":"address","name":"buyer","type":"address"},{"internalType":"address","name":"seller","type":"address"},{"internalType":"bool","name":"isDelivered","type":"bool"},{"components":[{"internalType":"string","name":"fullName","type":"string"},{"internalType":"string","name":"streetAddress","type":"string"},{"internalType":"string","name":"city","type":"string"},{"internalType":"string","name":"state","type":"string"},{"internalType":"string","name":"country","type":"string"},{"internalType":"string","name":"postalCode","type":"string"},{"internalType":"string","name":"phone","type":"string"},{"internalType":"string","name":"email","type":"string"}],"internalType":"struct HemShop.ShippingDetails","name":"shippingDetails","type":"tuple"}],"internalType":"struct HemShop.PurchaseHistoryStruct[]","name":"","type":"tuple[]"}],"stateMutability":"view","type":"function"},{"inputs":[{"internalType":"address","name":"owner","type":"address"},{"internalType":"address","name":"operator","type":"address"}],"name":"isApprovedForAll","outputs":[{"internalType":"bool","name":"","type":"bool"}],"stateMutability":"view","type":"function"},{"inputs":[{"internalType":"uint256","name":"productId","type":"uint256"},{"internalType":"address","name":"buyer","type":"address"}],"name":"markPurchaseDelivered","outputs":[],"stateMutability":"nonpayable","type":"function"},{"inputs":[],"name":"name","outputs":[{"internalType":"string","name":"","type":"string"}],"stateMutability":"view","type":"function"},{"inputs":[],"name":"owner","outputs":[{"internalType":"address","name":"","type":"address"}],"stateMutability":"view","type":"function"},{"inputs":[{"internalType":"uint256","name":"tokenId","type":"uint256"}],"name":"ownerOf","outputs":[{"internalType":"address","name":"","type":"address"}],"stateMutability":"view","type":"function"},{"inputs":[{"internalType":"uint256","name":"","type":"uint256"}],"name":"productExists","outputs":[{"internalType":"bool","name":"","type":"bool"}],"stateMutability":"view","type":"function"},{"inputs":[{"internalType":"uint256","name":"","type":"uint256"}],"name":"products","outputs":[{"internalType":"uint256","name":"id","type":"uint256"},{"internalType":"address","name":"seller","type":"address"},{"internalType":"string","name":"name","type":"string"},{"internalType":"string","name":"description","type":"string"},{"internalType":"uint256","name":"price","type":"uint256"},{"internalType":"uint256","name":"stock","type":"uint256"},{"internalType":"string","name":"color","type":"string"},{"internalType":"string","name":"size","type":"string"},{"internalType":"string","name":"category","type":"string"},{"internalType":"string","name":"subCategory","type":"string"},{"internalType":"uint256","name":"weight","type":"uint256"},{"internalType":"string","name":"model","type":"string"},{"internalType":"string","name":"brand","type":"string"},{"internalType":"uint256","name":"sku","type":"uint256"},{"internalType":"bool","name":"soldout","type":"bool"},{"internalType":"bool","name":"wishlist","type":"bool"},{"internalType":"bool","name":"deleted","type":"bool"}],"stateMutability":"view","type":"function"},{"inputs":[],"name":"registerSeller","outputs":[],"stateMutability":"nonpayable","type":"function"},{"inputs":[{"internalType":"address","name":"","type":"address"}],"name":"registeredSellers","outputs":[{"internalType":"bool","name":"","type":"bool"}],"stateMutability":"view","type":"function"},{"inputs":[],"name":"renounceOwnership","outputs":[],"stateMutability":"nonpayable","type":"function"},{"inputs":[{"internalType":"uint256","name":"","type":"uint256"}],"name":"reviewExists","outputs":[{"internalType":"bool","name":"","type":"bool"}],"stateMutability":"view","type":"function"},{"inputs":[{"internalType":"address","name":"from","type":"address"},{"internalType":"address","name":"to","type":"address"},{"internalType":"uint256","name":"tokenId","type":"uint256"}],"name":"safeTransferFrom","outputs":[],"stateMutability":"nonpayable","type":"function"},{"inputs":[{"internalType":"address","name":"from","type":"address"},{"internalType":"address","name":"to","type":"address"},{"internalType":"uint256","name":"tokenId","type":"uint256"},{"internalType":"bytes","name":"data","type":"bytes"}],"name":"safeTransferFrom","outputs":[],"stateMutability":"nonpayable","type":"function"},{"inputs":[{"internalType":"address","name":"","type":"address"}],"name":"sellerBalances","outputs":[{"internalType":"uint256","name":"","type":"uint256"}],"stateMutability":"view","type":"function"},{"inputs":[{"internalType":"address","name":"","type":"address"},{"internalType":"uint256","name":"","type":"uint256"}],"name":"sellerProducts","outputs":[{"internalType":"uint256","name":"","type":"uint256"}],"stateMutability":"view","type":"function"},{"inputs":[{"internalType":"address","name":"","type":"address"},{"internalType":"uint256","name":"","type":"uint256"}],"name":"sellerPurchaseHistory","outputs":[{"internalType":"uint256","name":"productId","type":"uint256"},{"internalType":"uint256","name":"totalAmount","type":"uint256"},{"internalType":"uint256","name":"basePrice","type":"uint256"},{"internalType":"uint256","name":"timestamp","type":"uint256"},{"internalType":"address","name":"buyer","type":"address"},{"internalType":"address","name":"seller","type":"address"},{"internalType":"bool","name":"isDelivered","type":"bool"},{"components":[{"internalType":"string","name":"fullName","type":"string"},{"internalType":"string","name":"streetAddress","type":"string"},{"internalType":"string","name":"city","type":"string"},{"internalType":"string","name":"state","type":"string"},{"internalType":"string","name":"country","type":"string"},{"internalType":"string","name":"postalCode","type":"string"},{"internalType":"string","name":"phone","type":"string"},{"internalType":"string","name":"email","type":"string"}],"internalType":"struct HemShop.ShippingDetails","name":"shippingDetails","type":"tuple"}],"stateMutability":"view","type":"function"},{"inputs":[{"internalType":"address","name":"","type":"address"}],"name":"sellerStatus","outputs":[{"internalType":"enum HemShop.SellerStatus","name":"","type":"uint8"}],"stateMutability":"view","type":"function"},{"inputs":[],"name":"servicePct","outputs":[{"internalType":"uint256","name":"","type":"uint256"}],"stateMutability":"view","type":"function"},{"inputs":[{"internalType":"address","name":"operator","type":"address"},{"internalType":"bool","name":"approved","type":"bool"}],"name":"setApprovalForAll","outputs":[],"stateMutability":"nonpayable","type":"function"},{"inputs":[{"internalType":"bytes4","name":"interfaceId","type":"bytes4"}],"name":"supportsInterface","outputs":[{"internalType":"bool","name":"","type":"bool"}],"stateMutability":"view","type":"function"},{"inputs":[],"name":"symbol","outputs":[{"internalType":"string","name":"","type":"string"}],"stateMutability":"view","type":"function"},{"inputs":[{"internalType":"uint256","name":"tokenId","type":"uint256"}],"name":"tokenURI","outputs":[{"internalType":"string","name":"","type":"string"}],"stateMutability":"view","type":"function"},{"inputs":[{"internalType":"address","name":"from","type":"address"},{"internalType":"address","name":"to","type":"address"},{"internalType":"uint256","name":"tokenId","type":"uint256"}],"name":"transferFrom","outputs":[],"stateMutability":"nonpayable","type":"function"},{"inputs":[{"internalType":"address","name":"newOwner","type":"address"}],"name":"transferOwnership","outputs":[],"stateMutability":"nonpayable","type":"function"},{"inputs":[{"internalType":"uint256","name":"productId","type":"uint256"},{"components":[{"internalType":"string","name":"name","type":"string"},{"internalType":"string","name":"description","type":"string"},{"internalType":"uint256","name":"price","type":"uint256"},{"internalType":"uint256","name":"stock","type":"uint256"},{"internalType":"string","name":"color","type":"string"},{"internalType":"string","name":"size","type":"string"},{"internalType":"string[]","name":"images","type":"string[]"},{"internalType":"string","name":"category","type":"string"},{"internalType":"string","name":"subCategory","type":"string"},{"internalType":"string","name":"model","type":"string"},{"internalType":"string","name":"brand","type":"string"},{"internalType":"uint256","name":"weight","type":"uint256"},{"internalType":"uint256","name":"sku","type":"uint256"}],"internalType":"struct HemShop.ProductInput","name":"input","type":"tuple"}],"name":"updateProduct","outputs":[],"stateMutability":"nonpayable","type":"function"},{"inputs":[{"internalType":"address","name":"seller","type":"address"},{"internalType":"enum HemShop.SellerStatus","name":"status","type":"uint8"}],"name":"updateSellerStatus","outputs":[],"stateMutability":"nonpayable","type":"function"},{"inputs":[],"name":"withdraw","outputs":[],"stateMutability":"nonpayable","type":"function"}],"evm":{"bytecode":{"linkReferences":{},"object":"6080346200037757601f90601f196001600160401b0362006d6e3881900385810184168501838111868210176200037c57859282916040528339602094859181010312620003775751936200005362000392565b926007845266048656d53686f760cc1b858501526200007162000392565b60038082526204873760ec1b8783015260008054336001600160a01b031982168117835592989394919392906001600160a01b03167f8be0079c531659141344cd1fd0a4f28419497f9722a3daafe3b4186f6b6457e08580a360019687805580519087821162000363576002548981811c9116801562000358575b858210146200034457908188849311620002f0575b5084908883116001146200028e57869262000282575b5050600019828b1b1c191690881b176002555b83519586116200026e5787548781811c9116801562000263575b838210146200024f5785811162000207575b5081948611600114620001a25750509183949184939462000196575b50501b9160001990841b1c19161790555b600b556040516169bb9081620003b38239f35b01519250388062000172565b8783528183209493928692918316915b88838310620001ec5750505010620001d3575b505050811b01905562000183565b015160001983861b60f8161c19169055388080620001c5565b858701518855909601959485019487935090810190620001b2565b8884528284208680890160051c820192858a1062000245575b0160051c019088905b8281106200023957505062000156565b85815501889062000229565b9250819262000220565b634e487b7160e01b84526022600452602484fd5b90607f169062000144565b634e487b7160e01b83526041600452602483fd5b01519050388062000117565b90848b9416916002885286882092885b88828210620002d95750508411620002c0575b505050811b016002556200012a565b0151600019838d1b60f8161c19169055388080620002b1565b8385015186558e979095019493840193016200029e565b909150600286528486208880850160051c8201928786106200033a575b918c91869594930160051c01915b8281106200032b57505062000101565b8881558594508c91016200031b565b925081926200030d565b634e487b7160e01b86526022600452602486fd5b90607f1690620000ec565b634e487b7160e01b85526041600452602485fd5b600080fd5b634e487b7160e01b600052604160045260246000fd5b60408051919082016001600160401b038111838210176200037c5760405256fe608080604052600436101561001357600080fd5b60003560e01c908162d64e7614614a3b5750806301ffc9a7146149cd57806302ee3a52146147345780630377a9d61461470e57806306fdde0314614668578063081812fc1461464a578063095ea7b3146144d057806311aa5b341461419757806316d81b3814613fb45780632148893f14613f7357806323b872dd14613f4a57806324d41a0314613d255780633c2575d514613d065780633ccfd60b14613bd057806342842e0e14613ba857806345de84db14613b6657806352c9224c14613aa95780635a158520146137c9578063607eb4e41461378f5780636352211e1461375f578063661e171214612f0157806370a0823114612e6a578063715018a614612e115780637acc0b2014612c795780638da5cb5b14612c5057806395d89b4114612b6e57806397b6f393146129725780639d4a2255146127df5780639fa44dbf14612797578063a22cb465146126bc578063af55ed641461268b578063b119105214611b64578063b235b4a914610c89578063b27e169714610c6a578063b88d4fde14610c09578063b9db15b4146109d3578063c1302b341461097b578063c64b8a8f1461093c578063c87b56dd146108cc578063d8b0f841146108a0578063e01ef6e614610882578063e4b25c6a1461084a578063e585cb2c146107ba578063e985e9c514610764578063ed90c7b7146105d0578063f2fde38b1461050c5763fdca4ca31461022357600080fd5b346105075760003660031901126105075760088054600060015b828111156104a6575061024f90616026565b9060009260015b82811115610270576040518061026c8682614cdf565b0390f35b6000818152600c6020818152604090922060018101546001600160a01b031692919033841480610494575b6102b2575b505050506102ad90615fb3565b610256565b604098949851936102c285614d6d565b81548552838501526102d660028201615051565b60408501526102e760038201615051565b6060850152600481015460808501526005918282015460a086015261030e60068301615051565b60c086015261031f60078301615051565b60e0860152868201805461033281615c6b565b916103406040519384614ddb565b818352600090815286812090878085015b84831061047657505050505061010086015261039d9061037360098401615051565b610120870152610385600a8401615051565b610140870152600b8301546101608701528201615051565b6101808501526103af600d8201615051565b6101a0850152600e8101546101c0850152600f81015460ff80821615156101e087015281881c81161515610200870152601091821c16151561022086015201805491906103fb83615c6b565b936104096040519586614ddb565b8385526000918252808220918186015b85821061045a5750505050505091816102ad9361024061045094015261043f8288615fc2565b5261044a8187615fc2565b50615fb3565b94903880806102a0565b848360019261046887615fd6565b815201940191019092610419565b600191829161048486615051565b8152019301910190918890610351565b5060ff600f82015460101c161561029b565b6000818152600c6020526040902060018101546001600160a01b0316331490816104f4575b506104df575b6104da90615fb3565b61023d565b906104ec6104da91615fb3565b9190506104d1565b60ff9150600f015460101c1615386104cb565b600080fd5b3461050757602036600319011261050757610525614d41565b61052d61521d565b6001600160a01b0390811690811561057c57600054826001600160601b0360a01b821617600055167f8be0079c531659141344cd1fd0a4f28419497f9722a3daafe3b4186f6b6457e0600080a3005b60405162461bcd60e51b815260206004820152602660248201527f4f776e61626c653a206e6577206f776e657220697320746865207a65726f206160448201526564647265737360d01b6064820152608490fd5b3461050757602080600319360112610507576004359033600052600f815260ff60406000205416600481101561074e57600214801561073a575b61061390615727565b816000526013815261062c60ff60406000205416615ee6565b6000828152600c825260409020600101546001600160a01b03908116331490811561072c575b50156106d85781600052600c815260ff600f6040600020015460101c16610694576000918252600c905260409020600f01805462ff0000191662010000179055005b6064906040519062461bcd60e51b82526004820152601a60248201527f50726f6475637420697320616c72656164792064656c657465640000000000006044820152fd5b6084906040519062461bcd60e51b82526004820152602760248201527f4f6e6c792070726f647563742073656c6c6572206f72206f776e65722063616e6044820152662064656c65746560c81b6064820152fd5b600054163314905083610652565b506000546001600160a01b0316331461060a565b634e487b7160e01b600052602160045260246000fd5b346105075760403660031901126105075761077d614d41565b610785614d57565b9060018060a01b03809116600052600760205260406000209116600052602052602060ff604060002054166040519015158152f35b34610507576040366003190112610507576107d3614d41565b6001600160a01b03908116600090815260116020526040902080546024359081101561050757610802916150f7565b509061026c825460018401549360028101549160038201548560048401541690610833600660058601549501615129565b9460405198899860ff8760a01c16961694896151bb565b346105075760203660031901126105075761026c610876610869614d41565b61087161521d565b616825565b60405191829182614f46565b34610507576000366003190112610507576020600b54604051908152f35b346105075760203660031901126105075761026c6108766108bf614d41565b6108c761521d565b61675b565b3461050757602036600319011261050757610906610901600435600052600460205260018060a01b0360406000205416151590565b615275565b600060405161091481614dc0565b5261026c60405161092481614dc0565b60008152604051918291602083526020830190614a68565b34610507576020366003190112610507576001600160a01b0361095d614d41565b166000526012602052602060ff604060002054166040519015158152f35b3461050757604036600319011261050757610994614d41565b6001600160a01b03166000908152600d6020526040902080546024359190821015610507576020916109c591615205565b90546040519160031b1c8152f35b3461050757602080600319360112610507576004356109f0615bdf565b5080600052600c8252610a1160ff600f6040600020015460101c1615615f2b565b8060005260138252610a2a60ff60406000205416615ee6565b600052600c815260406000209060405191610a4483614d6d565b805483526001808201546001600160a01b031683850152610a6760028301615051565b6040850152610a7860038301615051565b6060850152600482015460808501526005918281015460a0860152610a9f60068201615051565b60c0860152610ab060078201615051565b60e0860152600881018054610ac481615c6b565b91610ad26040519384614ddb565b818352600090815286812085888086015b858510610bec5750888b9260108989610100870152610b0460098201615051565b610120870152610b16600a8201615051565b610140870152600b810154610160870152610b33600c8201615051565b610180870152610b45600d8201615051565b6101a0870152600e8101546101c087015260ff600f82015481811615156101e0890152818160081c161515610200890152831c1615156102208701520191825490610b8f82615c6b565b93610b9d6040519586614ddb565b8285526000908152858120868087015b858410610bcf576102408a018890526040518281528061026c8185018d614b3f565b86918591610bdc85615fd6565b8152019201920191908790610bad565b908291610bf885615051565b815201920192019190888791610ae3565b3461050757608036600319011261050757610c22614d41565b610c2a614d57565b606435916001600160401b038311610507573660238401121561050757610c5e610c68933690602481600401359101614e17565b9160443591615384565b005b346105075760203660031901126105075761026c6108766108c7614d41565b3461050757600319602036820112610507576001600160401b0360043511610507576101a090600435360301126105075733600052600f60205260ff60406000205416600481101561074e576002148015611b50575b610ce890615727565b610d02610cf9600480350180615781565b905015156157b3565b6024610d23610d1a8260043501600435600401615781565b905015156157f6565b610d34604460043501351515615842565b610d4560646004350135151561588e565b610d65610d5c608460043501600435600401615781565b905015156158da565b610d85610d7c60c46004350160043560040161591e565b90501515615953565b610da66005610d9e60c46004350160043560040161591e565b905010615998565b610dc6610dbd60a460043501600435600401615781565b905015156159e4565b610de6610ddd60e460043501600435600401615781565b90501515615a27565b610e07610dfe61010460043501600435600401615781565b90501515615a73565b610e28610e1f61012460043501600435600401615781565b90501515615abf565b610e49610e4061014460043501600435600401615781565b90501515615b03565b610e5b61016460043501351515615b47565b610e6d61018460043501351515615b93565b60016008540180600855610e7f615bdf565b818152336020820152610ea0610e99600480350180615781565b3691614e17565b6040820152610ebb610e998460043501600435600401615781565b60608201526044600435013560808201526064600435013560a0820152610eef610e99608460043501600435600401615781565b60c0820152610f0b610e9960a460043501600435600401615781565b60e0820152610f2460c46004350160043560040161591e565b90610f2e82615c6b565b91610f3c6040519384614ddb565b8083526020830191368260051b8201116105075780925b8260051b82018410611b255750505050610100820152610f80610e9960e460043501600435600401615781565b610120820152610f9e610e9961010460043501600435600401615781565b610140820152610fbc610e9961012460043501600435600401615781565b610180820152610fda610e9961014460043501600435600401615781565b6101a082015260043561016481013561016083015261018401356101c08201523315611ae157600082815260046020526040902054611025906001600160a01b031615155b15615e9a565b600082815260046020526040902054611048906001600160a01b0316151561101f565b3360005260056020526040600020600181540190558160005260046020526040600020336001600160601b0360a01b825416179055813360007fddf252ad1be2c89b69c2b068fc378daa952ba7f163c4a11628f55a4df523b3ef8180a4600c6020526040600020815181556001810160018060a01b036020840151166001600160601b0360a01b82541617905560408201518051906001600160401b0382116115e8578190611107826110fe6002870154615017565b60028701615c99565b602090601f8311600114611a6f57600092611a64575b50508160011b916000199060031b1c19161760028201555b60608201518051906001600160401b0382116115e85781906111678261115e6003870154615017565b60038701615c99565b602090601f83116001146119f2576000926119e7575b50508160011b916000199060031b1c19161760038201555b6080820151600482015560a0820151600582015560c08201518051906001600160401b0382116115e85781906111db826111d26006870154615017565b60068701615c99565b602090601f83116001146119755760009261196a575b50508160011b916000199060031b1c19161760068201555b60e08201518051906001600160401b0382116115e857819061123b826112326007870154615017565b60078701615c99565b602090601f83116001146118f8576000926118ed575b50508160011b916000199060031b1c19161760078201555b600881016101008301519060208251926112838484615d27565b019060005260206000206000915b8383106117f557505050506101208201518051906001600160401b0382116115e85781906112cf826112c66009870154615017565b60098701615c99565b602090601f831160011461178357600092611778575b50508160011b916000199060031b1c19161760098201555b6101408201518051906001600160401b0382116115e857819061133082611327600a870154615017565b600a8701615c99565b602090601f8311600114611706576000926116fb575b50508160011b916000199060031b1c191617600a8201555b610160820151600b8201556101808201518051906001600160401b0382116115e857819061139c82611393600c870154615017565b600c8701615c99565b602090601f83116001146116895760009261167e575b50508160011b916000199060031b1c191617600c8201555b6101a08201518051906001600160401b0382116115e8576113fb826113f2600d860154615017565b600d8601615c99565b602090601f831160011461160857918061024094926010946000926115fd575b50508160011b916000199060031b1c191617600d8201555b6101c0840151600e820155600f810161145f6101e08601511515829060ff801983541691151516179055565b6102008501511515815461ff0062ff00006102208901511515871b169260081b169062ffff001916171790550191015190815190600160401b928383116115e8578154838355808410611558575b506020019060005260206000206000915b83831061153a57505050508160005260136020526040600020600160ff1982541617905533600052600d6020526040600020805491821015611525579061150a91600182018155615205565b819291549060031b91821b91600019901b1916179055600080f35b83634e487b7160e01b60005260416004526000fd5b600560208261154c6001945186615d70565b019201920191906114be565b806005029060058204036115d357836005026005810485036115be5783600052602060002091820191015b81811061159057506114ad565b8060006005925560006001820155600060028201556115b160038201615cde565b6000600482015501611583565b87634e487b7160e01b60005260116004526000fd5b86634e487b7160e01b60005260116004526000fd5b85634e487b7160e01b60005260416004526000fd5b01519050888061141b565b90600d840160005260206000209160005b601f1985168110611666575092610240949260019260109583601f1981161061164d575b505050811b01600d820155611433565b015160001960f88460031b161c1916905588808061163d565b91926020600181928685015181550194019201611619565b0151905086806113b2565b9250600c84016000526020600020906000935b601f19841685106116e0576001945083601f198116106116c7575b505050811b01600c8201556113ca565b015160001960f88460031b161c191690558680806116b7565b8181015183556020948501946001909301929091019061169c565b015190508680611346565b9250600a84016000526020600020906000935b601f198416851061175d576001945083601f19811610611744575b505050811b01600a82015561135e565b015160001960f88460031b161c19169055868080611734565b81810151835560209485019460019093019290910190611719565b0151905086806112e5565b9250600984016000526020600020906000935b601f19841685106117da576001945083601f198116106117c1575b505050811b0160098201556112fd565b015160001960f88460031b161c191690558680806117b1565b81810151835560209485019460019093019290910190611796565b80518051906001600160401b0382116118d85761181c826118168654615017565b86615c99565b602090601f831160011461186857928260019493602093869560009261185d575b5050600019600383901b1c191690841b1785555b01920192019190611291565b015190508d8061183d565b908460005260206000209160005b601f19851681106118c0575083602093600196938796938794601f198116106118a7575b505050811b018555611851565b015160001960f88460031b161c191690558d808061189a565b91926020600181928685015181550194019201611876565b89634e487b7160e01b60005260416004526000fd5b015190508680611251565b9250600784016000526020600020906000935b601f198416851061194f576001945083601f19811610611936575b505050811b016007820155611269565b015160001960f88460031b161c19169055868080611926565b8181015183556020948501946001909301929091019061190b565b0151905086806111f1565b9250600684016000526020600020906000935b601f19841685106119cc576001945083601f198116106119b3575b505050811b016006820155611209565b015160001960f88460031b161c191690558680806119a3565b81810151835560209485019460019093019290910190611988565b01519050868061117d565b9250600384016000526020600020906000935b601f1984168510611a49576001945083601f19811610611a30575b505050811b016003820155611195565b015160001960f88460031b161c19169055868080611a20565b81810151835560209485019460019093019290910190611a05565b01519050868061111d565b9250600284016000526020600020906000935b601f1984168510611ac6576001945083601f19811610611aad575b505050811b016002820155611135565b015160001960f88460031b161c19169055868080611a9d565b81810151835560209485019460019093019290910190611a82565b60405162461bcd60e51b8152602060048201819052818501527f4552433732313a206d696e7420746f20746865207a65726f20616464726573736044820152606490fd5b6001600160401b038435116105075760208091611b453687358601614e4e565b815201930192610f53565b506000546001600160a01b03163314610cdf565b3461050757600319604036820112610507576001600160401b0360243511610507576101a090602435360301126105075733600052600f60205260ff60406000205416600481101561074e576002148015612677575b611bc390615727565b600435600052600c6020523360018060a01b036001604060002001541603612621576004356000526013602052611c0160ff60406000205416615ee6565b600435600052600c602052611c2460ff600f6040600020015460101c1615615f2b565b611c36610cf960046024350180615781565b611c4c610d1a6024803501602435600401615781565b611c5d604460243501351515615842565b611c74610d7c60c46024350160243560040161591e565b611c8d6005610d9e60c46024350160243560040161591e565b611c9e60646024350135151561588e565b611cb5610d5c608460243501602435600401615781565b611ccc610dbd60a460243501602435600401615781565b611ce3610ddd60e460243501602435600401615781565b611cfb610dfe61010460243501602435600401615781565b611d13610e1f61012460243501602435600401615781565b611d2b610e4061014460243501602435600401615781565b611d3d61016460243501351515615b47565b611d4f61018460243501351515615b93565b611d5e60046024350180615781565b600435600052600c6020526002604060002001906001600160401b0381116121ef57611d9481611d8e8454615017565b84615c99565b600092601f82116001146125b857928192936000926125ad575b50508160011b916000199060031b1c19161790555b611dd66024803501602435600401615781565b600435600052600c6020526003604060002001906001600160401b0381116121ef57611e0681611d8e8454615017565b600092601f82116001146125445792819293600092612539575b50508160011b916000199060031b1c19161790555b600435600052600c6020526040600020604460243501356004820155606460243501356005820155611e71608460243501602435600401615781565b906001600160401b0382116121ef57611e9a82611e916006860154615017565b60068601615c99565b600090601f83116001146124c95760069291600091836124be575b50508160011b916000199060031b1c1916179101555b611edf60a460243501602435600401615781565b600435600052600c6020526007604060002001906001600160401b0381116121ef57611f0f81611d8e8454615017565b600092601f8211600114612455579281929360009261244a575b50508160011b916000199060031b1c19161790555b611f5260c46024350160243560040161591e565b600435600052600c602052600860406000200191611f708284615d27565b60009283526020832090805b83851061236157611f9760e460243501602435600401615781565b600435600052600c6020526009604060002001906001600160401b0381116121ef57611fc781611d8e8454615017565b600092601f82116001146122f857928192936000926122ed575b50508160011b916000199060031b1c19161790555b61200b61010460243501602435600401615781565b600435600052600c602052600a604060002001906001600160401b0381116121ef5761203b81611d8e8454615017565b600092601f82116001146122845792819293600092612279575b50508160011b916000199060031b1c19161790555b61207f61012460243501602435600401615781565b600435600052600c602052600c604060002001906001600160401b0381116121ef576120af81611d8e8454615017565b600092601f82116001146122105792819293600092612205575b50508160011b916000199060031b1c19161790555b6120f361014460243501602435600401615781565b600435600052600c602052600d604060002001906001600160401b0381116121ef5761212381611d8e8454615017565b6000601f821160011461218a5781929360009261217f575b50508160011b916000199060031b1c19161790555b600435600052600c60205260406000206101646024350135600b820155600e6101846024350135910155600080f35b01359050838061213b565b601f198216938360005260206000209160005b8681106121d757508360019596106121bd575b505050811b019055612150565b0135600019600384901b60f8161c191690558380806121b0565b9092602060018192868601358155019401910161219d565b634e487b7160e01b600052604160045260246000fd5b0135905083806120c9565b826000526020600020906000945b601f198416861061226157600194955083601f19811610612247575b505050811b0190556120de565b0135600019600384901b60f8161c1916905583808061223a565b9160206001819285850135815501930195019461221e565b013590508380612055565b826000526020600020906000945b601f19841686106122d557600194955083601f198116106122bb575b505050811b01905561206a565b0135600019600384901b60f8161c191690558380806122ae565b91602060018192858501358155019301950194612292565b013590508380611fe1565b826000526020600020906000945b601f198416861061234957600194955083601f1981161061232f575b505050811b019055611ff6565b0135600019600384901b60f8161c19169055838080612322565b91602060018192858501358155019301950194612306565b61236b8183615781565b906001600160401b0382116121ef5761238e826123888754615017565b87615c99565b600090601f83116001146123da5792826001949360209386956000926123cf575b5050600019600383901b1c191690841b1786555b01930194019391611f7c565b013590508a806123af565b8560005260206000209160005b601f1985168110612432575083602093600196938796938794601f19811610612418575b505050811b0186556123c3565b0135600019600384901b60f8161c191690558a808061240b565b909260206001819286860135815501940191016123e7565b013590508380611f29565b826000526020600020906000945b601f19841686106124a657600194955083601f1981161061248c575b505050811b019055611f3e565b0135600019600384901b60f8161c1916905583808061247f565b91602060018192858501358155019301950194612463565b013590508480611eb5565b6006840160005260206000209160005b601f19851681106125215750918391600193600695601f19811610612507575b505050811b01910155611ecb565b0135600019600384901b60f8161c191690558480806124f9565b909260206001819286860135815501940191016124d9565b013590508380611e20565b826000526020600020906000945b601f198416861061259557600194955083601f1981161061257b575b505050811b019055611e35565b0135600019600384901b60f8161c1916905583808061256e565b91602060018192858501358155019301950194612552565b013590508380611dae565b826000526020600020906000945b601f198416861061260957600194955083601f198116106125ef575b505050811b019055611dc3565b0135600019600384901b60f8161c191690558380806125e2565b916020600181928585013581550193019501946125c6565b60405162461bcd60e51b815260206004820152602860248201527f4f6e6c79207468652073656c6c65722063616e20757064617465207468656972604482015267081c1c9bd91d58dd60c21b6064820152608490fd5b506000546001600160a01b03163314611bba565b34610507576020366003190112610507576004356000526013602052602060ff604060002054166040519015158152f35b34610507576040366003190112610507576126d5614d41565b6024359081151590818303610507576001600160a01b031691338314612752576127249033600052600760205260406000208460005260205260406000209060ff801983541691151516179055565b6040519081527f17307eab39ab6107e8899845ad3d59bd9653f200f220920489ca2b5937696c3160203392a3005b60405162461bcd60e51b815260206004820152601960248201527f4552433732313a20617070726f766520746f2063616c6c6572000000000000006044820152606490fd5b34610507576040366003190112610507576127b0614d41565b6001600160a01b03908116600090815260106020526040902080546024359081101561050757610802916150f7565b34610507576020806003193601126105075760043580600052600c9081835260ff600f604060002001549161281a82601094851c1615615f2b565b80600052601385526128328260406000205416615ee6565b60009260005b8260005285875281604060002001805482101561288957600461285c838793615f97565b5001541615612874575b61286f90615fb3565b612838565b9361288161286f91615fb3565b949050612866565b5050848661289686615c6b565b956128a46040519788614ddb565b8087526128b3601f1991615c6b565b018160005b82811061295c5750505060009360005b816000528383528460406000200180548210156129495760046128ec838a93615f97565b5001541615612904575b6128ff90615fb3565b6128c8565b946129416128ff918360005285855261292c6129268989604060002001615f97565b50615fd6565b612936828c615fc2565b5261044a818b615fc2565b9590506128f6565b6040518481528061026c8187018c614aa8565b612964615f6c565b82828b0101520182906128b8565b346105075760403660031901126105075761298b614d41565b6024908135906004821015610507576129a261521d565b6001600160a01b0316918215612b3157826000526020906012825260ff6040600020541615612af65783600052600f825260ff604060002054166004811015612aa9578314612abe5760028314612a45575b507fd8f7bcb2c5cffc294a0aaef719685993d7be95273fb8254803a1563510ccefed91600f612a40928560005252604060002060ff1981541660ff831617905560405191829182615004565b0390a2005b83600052600f825260ff604060002054166004811015612aa9576001146129f45790601f6064926040519262461bcd60e51b845260048401528201527f43616e206f6e6c79207665726966792070656e64696e672073656c6c657273006044820152fd5b50634e487b7160e01b60009081526021600452fd5b9060126064926040519262461bcd60e51b845260048401528201527114dd185d1d5cc8185b1c9958591e481cd95d60721b6044820152fd5b9060156064926040519262461bcd60e51b845260048401528201527414d95b1b195c881b9bdd081c9959da5cdd195c9959605a1b6044820152fd5b60649060166040519162461bcd60e51b83526020600484015282015275496e76616c69642073656c6c6572206164647265737360501b6044820152fd5b34610507576000366003190112610507576040516000600354612b9081615017565b80845290600190818116908115612c295750600114612bce575b61026c84612bba81860382614ddb565b604051918291602083526020830190614a68565b6003600090815292507fc2575a0e9e593c00f959f8c92f12db2869c3395a3b0502d05e2516446f71f85b5b828410612c11575050508101602001612bba82612baa565b80546020858701810191909152909301928101612bf9565b60ff191660208087019190915292151560051b85019092019250612bba9150839050612baa565b34610507576000366003190112610507576000546040516001600160a01b039091168152602090f35b34610507576020366003190112610507576004356000908152600c60205260409020805460018201546001600160a01b031691612cb860028201615051565b612cc460038301615051565b6004830154600584015490612cdb60068601615051565b612ce760078701615051565b612cf360098801615051565b90612d00600a8901615051565b92600b89015494600c8a01612d1490615051565b96612d21600d8c01615051565b98600e8c01549b600f01549a6040519e8f9e8f908152602001528d6102209081604082015201612d5091614a68565b8d810360608f0152612d6191614a68565b9160808d015260a08c01528a810360c08c0152612d7d91614a68565b89810360e08b0152612d8e91614a68565b8881036101008a0152612da091614a68565b878103610120890152612db291614a68565b90610140870152858103610160870152612dcb91614a68565b848103610180860152612ddd91614a68565b916101a084015260ff811615156101c08401528060081c60ff1615156101e084015260101c60ff1615156102008301520390f35b3461050757600036600319011261050757612e2a61521d565b600080546001600160a01b0319811682556001600160a01b03167f8be0079c531659141344cd1fd0a4f28419497f9722a3daafe3b4186f6b6457e08280a3005b34610507576020366003190112610507576001600160a01b03612e8b614d41565b168015612eaa5760005260056020526020604060002054604051908152f35b60405162461bcd60e51b815260206004820152602960248201527f4552433732313a2061646472657373207a65726f206973206e6f7420612076616044820152683634b21037bbb732b960b91b6064820152608490fd5b600319604036820112610507576024906001600160401b0382351161050757610100908235360301126105075760026001541461371b5760026001556004356000526013602052612f5960ff60406000205416615ee6565b600435600052600c602052612f7c60ff600f6040600020015460101c1615615f2b565b600435600052600c60205260018060a01b0360016040600020015416600052600f60205260ff604060002054166004811015612aa9576002036136de57600435600052600c6020526005604060002001541561369a57600435600052600c60205260ff600f604060002001541661365657600435600052600c60205260018060a01b036001604060002001541633146136125761301d600482350180615781565b9050156135d957613035818035018235600401615781565b9050156135955761304e60448235018235600401615781565b9050156135615761306760648235018235600401615781565b90501561352c5761308060848235018235600401615781565b9050156134f55761309960a48235018235600401615781565b9050156134ba576130b260c48235018235600401615781565b905015613485576130cb60e48235018235600401615781565b90501561345057600435600052600c6020526004604060002001549081341061341757600435600052600c60205260056040600020018054801561340257600019019055600435600052600c60205260406000206005810154156133ee575b600101546040516001600160a01b03909116919061314781614d89565b8135600401356001600160401b0381116105075761316c906004369185350101614e4e565b81526001600160401b03828035013511610507576131933683358085013501600401614e4e565b60208201526044823501356001600160401b038111610507576131bd906004369185350101614e4e565b60408201526064823501356001600160401b038111610507576131e7906004369185350101614e4e565b60608201526084823501356001600160401b03811161050757613211906004369185350101614e4e565b608082015260a4823501356001600160401b0381116105075761323b906004369185350101614e4e565b60a082015260c4823501356001600160401b03811161050757613265906004369185350101614e4e565b60c082015260e482350135906001600160401b038211610507576132936132fe926004369186350101614e4e565b60e0820152604051906132a582614d89565b60043582528560208301528560408301524260608301523360808301528460a0830152600060c083015260e08201523360005260106020526132eb816040600020616083565b8360005260116020526040600020616083565b81600052600e60205260406000208054918483018093116133da57505560405182815282602082015242604082015233907f45280c7ac9cec77edd454e39e1641a3e22619146cf074a4239beee86a7c07edc606060043592a460016009540160095561336a8134616076565b806133ca575b50600435600052600c60205260018060a01b03600160406000200154169060405190815242602082015233907fbe6177108f4df43c5d7be79cb219c969fc97915bbdb4b56d14d391dcdcc16060604060043592a460018055005b6133d490336168ef565b81613370565b634e487b7160e01b60009081526011600452fd5b600f8101805460ff1916600117905561312a565b82634e487b7160e01b60005260116004526000fd5b60649060126040519162461bcd60e51b83526020600484015282015271496e73756666696369656e742066756e647360701b6044820152fd5b606490600e6040519162461bcd60e51b8352602060048401528201526d115b585a5b081c995c5d5a5c995960921b6044820152fd5b606490600e6040519162461bcd60e51b8352602060048401528201526d141a1bdb99481c995c5d5a5c995960921b6044820152fd5b60649060146040519162461bcd60e51b83526020600484015282015273141bdcdd185b0818dbd919481c995c5d5a5c995960621b6044820152fd5b60649060106040519162461bcd60e51b8352602060048401528201526f10dbdd5b9d1c9e481c995c5d5a5c995960821b6044820152fd5b606490600e6040519162461bcd60e51b8352602060048401528201526d14dd185d19481c995c5d5a5c995960921b6044820152fd5b606490600d6040519162461bcd60e51b8352602060048401528201526c10da5d1e481c995c5d5a5c9959609a1b6044820152fd5b60649060176040519162461bcd60e51b8352602060048401528201527f53747265657420616464726573732072657175697265640000000000000000006044820152fd5b60649060126040519162461bcd60e51b83526020600484015282015271119d5b1b081b985b59481c995c5d5a5c995960721b6044820152fd5b606490601b6040519162461bcd60e51b8352602060048401528201527f43616e6e6f742062757920796f7572206f776e2070726f6475637400000000006044820152fd5b606490601a6040519162461bcd60e51b8352602060048401528201527f50726f6475637420697320616c726561647920736f6c646f75740000000000006044820152fd5b60649060176040519162461bcd60e51b8352602060048401528201527f50726f64756374206973206f7574206f662073746f636b0000000000000000006044820152fd5b60649060166040519162461bcd60e51b8352602060048401528201527514d95b1b195c881a5cc81b9bdd081d995c9a599a595960521b6044820152fd5b606490601f6040519162461bcd60e51b8352602060048401528201527f5265656e7472616e637947756172643a207265656e7472616e742063616c6c006044820152fd5b3461050757602036600319011261050757602061377d6004356152c1565b6040516001600160a01b039091168152f35b34610507576020366003190112610507576001600160a01b036137b0614d41565b16600052600e6020526020604060002054604051908152f35b34610507576020366003190112610507576137e2614d41565b6137ea61521d565b600854600060015b82811115613a45575061380490616026565b90600160005b82821115613820576040518061026c8682614cdf565b6000828152600c6020526040902060018101546001600160a01b0390811691908716821480613a33575b613861575b50509061385b90615fb3565b9061380a565b6040519161386e83614d6d565b81548352602083015261388360028201615051565b604083015261389460038201615051565b606083015260048101546080830152600581015460a08301526138b960068201615051565b60c08301526138ca60078201615051565b60e08301526008810180546138de81615c6b565b916138ec6040519384614ddb565b81835260208301906000526020600020906000905b838210613a16575050505061010083015261391e60098201615051565b610120830152613930600a8201615051565b610140830152600b81015461016083015261394d600c8201615051565b61018083015261395f600d8201615051565b6101a0830152600e8101546101c0830152600f8101549060ff80831615156101e0850152808360081c161515610200850152601092831c161515610220840152018054906139ac82615c6b565b916139ba6040519384614ddb565b808352602083019160005260206000206000925b8284106139f8575050505061024082015261385b916139f19161043f8288615fc2565b908661384f565b60056020600192613a0885615fd6565b8152019201930192906139ce565b600160208192613a2586615051565b815201930191019091613901565b5060ff600f82015460101c161561384a565b6000818152600c6020526040902060018101546001600160a01b038681169116149081613a96575b50613a81575b613a7c90615fb3565b6137f2565b90613a8e613a7c91615fb3565b919050613a73565b60ff9150600f015460101c161585613a6d565b346105075760003660031901126105075733600052601260205260ff60406000205416613b2c57336000526012602052604060002060ff1990600182825416179055600f60205260016040600020918254161790556040514281527fa1a1a78ff3033d5ee8393372052aeb2a16bbb347a29f3780370e9506c109e37260203392a2005b60405162461bcd60e51b8152602060048201526012602482015271105b1c9958591e481c9959da5cdd195c995960721b6044820152606490fd5b34610507576020366003190112610507576001600160a01b03613b87614d41565b16600052600f60205261026c60ff6040600020541660405191829182615004565b3461050757610c68613bb936614e69565b9060405192613bc784614dc0565b60008452615384565b346105075760003660031901126105075733600052600f60205260ff60406000205416600481101561074e576002148015613cf2575b613c0f90615727565b33600052600e6020526040600020548015613cb457600b54908181029181830403613c9e57613c69613c486064613c6f94048093616076565b9133600052600e6020526000604081205560018060a01b03600054166168ef565b336168ef565b604051600081527f8ad64a0ac7700dd8425ab0499f107cb6e2cd1581d803c5b8c1c79dcb8190b1af60203392a2005b634e487b7160e01b600052601160045260246000fd5b60405162461bcd60e51b81526020600482015260166024820152754e6f2062616c616e636520746f20776974686472617760501b6044820152606490fd5b506000546001600160a01b03163314613c06565b346105075760203660031901126105075761026c610876610871614d41565b3461050757604036600319011261050757602480356004356000805b82600052600c602090808252601091826040600020018054851015613f3d57613d6b858992615f97565b505414613d8357505050613d7e90615fb3565b613d41565b9193509193946000526014815260ff94856040600020541615613f015780600052828252613db78585604060002001615f97565b50600190810154909690336001600160a01b0391821614908115613ef3575b5015613e9e57816000528383526004613df58787604060002001615f97565b50015416613e615791613e1693916004959360005252604060002001615f97565b5001805460ff1916821790555b15613e2a57005b60649060106040519162461bcd60e51b8352602060048401528201526f14995d9a595dc81b9bdd08199bdd5b9960821b6044820152fd5b60405162461bcd60e51b8152600481018390526016818901527514995d9a595dc8185b1c9958591e4819195b195d195960521b6044820152606490fd5b60405162461bcd60e51b8152600481018490526028818a01527f4f6e6c79207265766965776572206f72206f776e65722063616e2064656c6574604482015267652072657669657760c01b6064820152608490fd5b600054163314905089613dd6565b60405162461bcd60e51b8152600481018390526015818901527414995d9a595dc8191bd95cc81b9bdd08195e1a5cdd605a1b6044820152606490fd5b5050505050915050613e23565b3461050757610c68613f5b36614e69565b91613f6e613f69843361541f565b615322565b6154e7565b34610507576020366003190112610507576020613fac613f91614d41565b6001600160a01b03166000908152600e602052604090205490565b604051908152f35b3461050757606036600319011261050757602480356004356044356001600160401b03811161050757613feb903690600401614e4e565b9080600052602091600c835260018060a01b036001604060002001541633146141445783151580614139575b156140f5578051156140b15790600c92916001600a54019081600a5561403b615f6c565b95828752338588015260408701526060860152600052601482526040600020600160ff198254161790556000525260106040600020018054600160401b8110156115255761408e91600182018155615f97565b61409c57610c689250615d70565b82634e487b7160e01b60005260006004526000fd5b60405162461bcd60e51b8152600481018490526017818701527f436f6d6d656e742063616e6e6f7420626520656d7074790000000000000000006044820152606490fd5b60405162461bcd60e51b815260048101849052601e818701527f526174696e67206d757374206265206265747765656e203120616e64203500006044820152606490fd5b506005841115614017565b60405162461bcd60e51b8152600481018490526026818701527f53656c6c65722063616e6e6f7420726576696577207468656972206f776e20706044820152651c9bd91d58dd60d21b6064820152608490fd5b34610507576040366003190112610507576004356141b3614d57565b9033600052602091600f835260ff918260406000205416600481101561074e5760021480156144bc575b6141e990949394615727565b6001600160a01b039182169360009390845b866000526010808452604060002080548310156144b05761421d8387926150f7565b505414614233575061422e90615fb3565b6141fb565b909192939495508660005280845261424f8260406000206150f7565b509260058094015460a01c1661446b57866000528084526142748260406000206150f7565b5083015486163314801561445e575b15614406579061429d9187600052845260406000206150f7565b5001805460ff60a01b1916600160a01b17905560015b156143cd5781600052600c815260019280846040600020015416846000905b614306575b5050507ff9dc8543b583e01f592678422369b2777e3649761f5808ae432cb1c24ca9438c9192604051908152a3005b816000526011808552604060002080548310156143c6576143288388926150f7565b505414806143a2575b61434a575090614342869392615fb3565b9091926142d2565b7ff9dc8543b583e01f592678422369b2777e3649761f5808ae432cb1c24ca9438c959693509061438691600593600052855260406000206150f7565b5001805460ff60a01b1916600160a01b179055929185806142d7565b5082600052808552878460046143bc8560406000206150f7565b5001541614614331565b50506142d7565b6064906040519062461bcd60e51b825260048201526012602482015271141d5c98da185cd9481b9bdd08199bdd5b9960721b6044820152fd5b60405162461bcd60e51b815260048101859052602a60248201527f4f6e6c792073656c6c6572206f72206f776e65722063616e206d61726b2061736044820152690819195b1a5d995c995960b21b6064820152608490fd5b5033866000541614614283565b60405162461bcd60e51b815260048101859052601b60248201527f416c7265616479206d61726b65642061732064656c69766572656400000000006044820152606490fd5b505050509091926142b3565b506000546001600160a01b031633146141dd565b34610507576040366003190112610507576144e9614d41565b602435906001600160a01b038080614500856152c1565b169216918083146145fb578033149081156145d6575b501561456b57600083815260066020526040902080546001600160a01b03191683179055614543836152c1565b167f8c5be1e5ebec7d5bd14f71427d1e84f3dd0314c0f7b2291e5b200ac8c7c3b925600080a4005b60405162461bcd60e51b815260206004820152603d60248201527f4552433732313a20617070726f76652063616c6c6572206973206e6f7420746f60448201527f6b656e206f776e6572206f7220617070726f76656420666f7220616c6c0000006064820152608490fd5b9050600052600760205260406000203360005260205260ff6040600020541684614516565b60405162461bcd60e51b815260206004820152602160248201527f4552433732313a20617070726f76616c20746f2063757272656e74206f776e656044820152603960f91b6064820152608490fd5b3461050757602036600319011261050757602061377d6004356152e4565b3461050757600036600319011261050757604051600060025461468a81615017565b80845290600190818116908115612c2957506001146146b35761026c84612bba81860382614ddb565b6002600090815292507f405787fa12a823e0f2b7631cc41b3ba8828b3321ca811111fa75cd3aa3bb5ace5b8284106146f6575050508101602001612bba82612baa565b805460208587018101919091529093019281016146de565b34610507576020366003190112610507576020613fac61472c614d41565b613f9161521d565b3461050757600036600319011261050757600854600060015b8281111561498c575061475f90616026565b90600160005b8282111561477b576040518061026c8682614cdf565b81600052600c6020526040600020600f8101549060ff8260101c16156147ae575b5050906147a890615fb3565b90614765565b604051916147bb83614d6d565b8154835260018201546001600160a01b031660208401526147de60028301615051565b60408401526147ef60038301615051565b606084015260048201546080840152600582015460a084015261481460068301615051565b60c084015261482560078301615051565b60e0840152600882015461483881615c6b565b906148466040519283614ddb565b80825260208201600885016000526020600020906000905b83821061496f57505050506010929160ff9161010086015261488260098401615051565b610120860152614894600a8401615051565b610140860152600b8301546101608601526148b1600c8401615051565b6101808601526148c3600d8401615051565b6101a0860152600e8301546101c086015281811615156101e0860152818160081c161515610200860152831c1615156102208401520180549061490582615c6b565b916149136040519384614ddb565b808352602083019160005260206000206000925b82841061495157505050506102408201526147a89161494a9161043f8288615fc2565b908561479c565b6005602060019261496185615fd6565b815201920193019290614927565b60016020819261497e86615051565b81520193019101909161485e565b80600052600c60205260ff600f6040600020015460101c16156149b8575b6149b390615fb3565b61474d565b906149c56149b391615fb3565b9190506149aa565b346105075760203660031901126105075760043563ffffffff60e01b8116809103610507576020906380ac58cd60e01b8114908115614a2a575b8115614a19575b506040519015158152f35b6301ffc9a760e01b14905082614a0e565b635b5e139f60e01b81149150614a07565b34610507576020366003190112610507576020906004356000526014825260ff6040600020541615158152f35b919082519283825260005b848110614a94575050826000602080949584010152601f8019910116010190565b602081830181015184830182015201614a73565b908082519081815260208091019281808460051b8301019501936000915b848310614ad65750505050505090565b9091929394958480600192601f1985820301865289519081518152848060a01b0383830151168382015260408083015190820152614b236060808401519060a08091850152830190614a68565b9160808091015115159101529801930193019194939290614ac6565b91908251815260209260018060a01b03848201511684830152614bc4614bb2614b8c614b7a6040850151610260806040890152870190614a68565b60608501518682036060880152614a68565b6080840151608086015260a084015160a086015260c084015185820360c0870152614a68565b60e083015184820360e0860152614a68565b6101009485830151958483039085015285518083528183019180808360051b8601019801926000905b838210614caf57505050505050614c66614c52614c33614c1f614cac9697610120808701519088830390890152614a68565b610140808601519087830390880152614a68565b6101608085015190860152610180808501519086830390870152614a68565b6101a0808401519085830390860152614a68565b916101c080830151908201526101e08083015115159082015261020080830151151590820152610220808301511515908201526102408092015191818403910152614aa8565b90565b9091929394988380614cce6001938d601f199082030186528951614a68565b9b9701959493919091019101614bed565b602080820190808352835180925260408301928160408460051b8301019501936000915b848310614d135750505050505090565b9091929394958480614d31600193603f198682030187528a51614b3f565b9801930193019194939290614d03565b600435906001600160a01b038216820361050757565b602435906001600160a01b038216820361050757565b61026081019081106001600160401b038211176121ef57604052565b61010081019081106001600160401b038211176121ef57604052565b60a081019081106001600160401b038211176121ef57604052565b602081019081106001600160401b038211176121ef57604052565b90601f801991011681019081106001600160401b038211176121ef57604052565b6001600160401b0381116121ef57601f01601f191660200190565b929192614e2382614dfc565b91614e316040519384614ddb565b829481845281830111610507578281602093846000960137010152565b9080601f8301121561050757816020614cac93359101614e17565b6060906003190112610507576001600160a01b0390600435828116810361050757916024359081168103610507579060443590565b614cac9160e0614f35614f23614f11614eff614eed614edb614ec98951610100808b528a0190614a68565b60208a015189820360208b0152614a68565b604089015188820360408a0152614a68565b60608801518782036060890152614a68565b60808701518682036080880152614a68565b60a086015185820360a0870152614a68565b60c085015184820360c0860152614a68565b9201519060e0818403910152614a68565b602080820190808352835180925260409283810182858560051b8401019601946000925b858410614f7b575050505050505090565b909192939495968580614ff3600193603f198682030188528b51805182528381015184830152878101518883015260608082015190830152858060a01b0360808181840151169084015260a09081830151169083015260c08082015115159083015260e0809101519161010080928201520190614e9e565b990194019401929594939190614f6a565b91906020830192600482101561074e5752565b90600182811c92168015615047575b602083101461503157565b634e487b7160e01b600052602260045260246000fd5b91607f1691615026565b906040519182600082549261506584615017565b9081845260019485811690816000146150d45750600114615091575b505061508f92500383614ddb565b565b9093915060005260209081600020936000915b8183106150bc57505061508f93508201013880615081565b855488840185015294850194879450918301916150a4565b91505061508f94506020925060ff191682840152151560051b8201013880615081565b805482101561511357600052600e602060002091020190600090565b634e487b7160e01b600052603260045260246000fd5b9060405161513681614d89565b60e06151b66007839561514881615051565b855261515660018201615051565b602086015261516760028201615051565b604086015261517860038201615051565b606086015261518960048201615051565b608086015261519a60058201615051565b60a08601526151ab60068201615051565b60c086015201615051565b910152565b95929091614cac9897959492875260208701526040860152606085015260018060a01b0380921660808501521660a0830152151560c0820152610100908160e08201520190614e9e565b80548210156151135760005260206000200190600090565b6000546001600160a01b0316330361523157565b606460405162461bcd60e51b815260206004820152602060248201527f4f776e61626c653a2063616c6c6572206973206e6f7420746865206f776e65726044820152fd5b1561527c57565b60405162461bcd60e51b815260206004820152601860248201527f4552433732313a20696e76616c696420746f6b656e20494400000000000000006044820152606490fd5b6000908152600460205260409020546001600160a01b0316614cac811515615275565b600081815260046020526040902054615307906001600160a01b03161515615275565b6000908152600660205260409020546001600160a01b031690565b1561532957565b60405162461bcd60e51b815260206004820152602d60248201527f4552433732313a2063616c6c6572206973206e6f7420746f6b656e206f776e6560448201526c1c881bdc88185c1c1c9bdd9959609a1b6064820152608490fd5b906153a8939291615398613f69843361541f565b6153a38383836154e7565b615628565b156153af57565b60405162461bcd60e51b8152806153c8600482016153cc565b0390fd5b60809060208152603260208201527f4552433732313a207472616e7366657220746f206e6f6e20455243373231526560408201527131b2b4bb32b91034b6b83632b6b2b73a32b960711b60608201520190565b906001600160a01b038080615433846152c1565b16931691838314938415615466575b508315615450575b50505090565b61545c919293506152e4565b161438808061544a565b909350600052600760205260406000208260005260205260ff604060002054169238615442565b1561549457565b60405162461bcd60e51b815260206004820152602560248201527f4552433732313a207472616e736665722066726f6d20696e636f72726563742060448201526437bbb732b960d91b6064820152608490fd5b9061550f916154f5846152c1565b6001600160a01b039391841692849290918316841461548d565b169182156155a7578161552c91615525866152c1565b161461548d565b7fddf252ad1be2c89b69c2b068fc378daa952ba7f163c4a11628f55a4df523b3ef60008481526006602052604081206001600160601b0360a01b9081815416905583825260056020526040822060001981540190558482526040822060018154019055858252600460205284604083209182541617905580a4565b60405162461bcd60e51b8152602060048201526024808201527f4552433732313a207472616e7366657220746f20746865207a65726f206164646044820152637265737360e01b6064820152608490fd5b3d15615623573d9061560982614dfc565b916156176040519384614ddb565b82523d6000602084013e565b606090565b91926000929190813b1561571d5760209161567e9185604051958680958194630a85bd0160e11b9b8c845233600485015260018060a01b0380951660248501526044840152608060648401526084830190614a68565b0393165af1908290826156ce575b50506156c05761569a6155f8565b805190816156bb5760405162461bcd60e51b8152806153c8600482016153cc565b602001fd5b6001600160e01b0319161490565b909192506020813d8211615715575b816156ea60209383614ddb565b810103126157115751906001600160e01b03198216820361570e575090388061568c565b80fd5b5080fd5b3d91506156dd565b5050505050600190565b1561572e57565b60405162461bcd60e51b815260206004820152602560248201527f4f6e6c792076657269666965642073656c6c6572206f72206f776e657220616c6044820152641b1bddd95960da1b6064820152608490fd5b903590601e198136030182121561050757018035906001600160401b0382116105075760200191813603831361050757565b156157ba57565b60405162461bcd60e51b81526020600482015260146024820152734e616d652063616e6e6f7420626520656d70747960601b6044820152606490fd5b156157fd57565b60405162461bcd60e51b815260206004820152601b60248201527f4465736372697074696f6e2063616e6e6f7420626520656d70747900000000006044820152606490fd5b1561584957565b60405162461bcd60e51b815260206004820152601c60248201527f5072696365206d7573742062652067726561746572207468616e2030000000006044820152606490fd5b1561589557565b60405162461bcd60e51b815260206004820152601c60248201527f53746f636b206d7573742062652067726561746572207468616e2030000000006044820152606490fd5b156158e157565b60405162461bcd60e51b8152602060048201526015602482015274436f6c6f722063616e6e6f7420626520656d70747960581b6044820152606490fd5b903590601e198136030182121561050757018035906001600160401b03821161050757602001918160051b3603831361050757565b1561595a57565b60405162461bcd60e51b8152602060048201526016602482015275496d616765732063616e6e6f7420626520656d70747960501b6044820152606490fd5b1561599f57565b60405162461bcd60e51b815260206004820152601c60248201527f496d616765732063616e6e6f74206265206d6f7265207468616e2035000000006044820152606490fd5b156159eb57565b60405162461bcd60e51b815260206004820152601460248201527353697a652063616e6e6f7420626520656d70747960601b6044820152606490fd5b15615a2e57565b60405162461bcd60e51b815260206004820152601860248201527f43617465676f72792063616e6e6f7420626520656d70747900000000000000006044820152606490fd5b15615a7a57565b60405162461bcd60e51b815260206004820152601c60248201527f5375622d63617465676f72792063616e6e6f7420626520656d707479000000006044820152606490fd5b15615ac657565b60405162461bcd60e51b81526020600482015260156024820152744d6f64656c2063616e6e6f7420626520656d70747960581b6044820152606490fd5b15615b0a57565b60405162461bcd60e51b81526020600482015260156024820152744272616e642063616e6e6f7420626520656d70747960581b6044820152606490fd5b15615b4e57565b60405162461bcd60e51b815260206004820152601d60248201527f576569676874206d7573742062652067726561746572207468616e20300000006044820152606490fd5b15615b9a57565b60405162461bcd60e51b815260206004820152601a60248201527f534b55206d7573742062652067726561746572207468616e20300000000000006044820152606490fd5b60405190615bec82614d6d565b8161024060009182815282602082015260609283604083015283808301528060808301528060a08301528360c08301528360e08301528361010083015283610120830152836101408301528061016083015283610180830152836101a0830152806101c0830152806101e0830152806102008301526102208201520152565b6001600160401b0381116121ef5760051b60200190565b818110615c8d575050565b60008155600101615c82565b9190601f8111615ca857505050565b61508f926000526020600020906020601f840160051c83019310615cd4575b601f0160051c0190615c82565b9091508190615cc7565b615ce88154615017565b9081615cf2575050565b81601f60009311600114615d04575055565b908083918252615d23601f60208420940160051c840160018501615c82565b5555565b90600160401b81116121ef57815491818155828210615d4557505050565b600052602060002091820191015b818110615d5e575050565b80615d6a600192615cde565b01615d53565b8151815560019182820160209060018060a01b0382840151166001600160601b0360a01b8254161790556040820151600284015560038301906060830151948551916001600160401b0383116121ef57615dce836118168654615017565b80601f8411600114615e265750918080608095936004979561508f9a600094615e1b575b50501b916000199060031b1c19161790555b0151151591019060ff801983541691151516179055565b015192503880615df2565b9193949596601f1984168660005283600020936000905b828210615e835750509260809592859261508f9a99966004999610615e6a575b505050811b019055615e04565b015160001960f88460031b161c19169055388080615e5d565b808886978294978701518155019601940190615e3d565b15615ea157565b60405162461bcd60e51b815260206004820152601c60248201527f4552433732313a20746f6b656e20616c7265616479206d696e746564000000006044820152606490fd5b15615eed57565b60405162461bcd60e51b8152602060048201526016602482015275141c9bd91d58dd08191bd95cc81b9bdd08195e1a5cdd60521b6044820152606490fd5b15615f3257565b60405162461bcd60e51b8152602060048201526012602482015271141c9bd91d58dd081a5cc819195b195d195960721b6044820152606490fd5b60405190615f7982614da5565b60006080838281528260208201528260408201526060808201520152565b8054821015615113576000526005602060002091020190600090565b6000198114613c9e5760010190565b80518210156151135760209160051b010190565b90604051615fe381614da5565b608060ff600483958054855260018060a01b0360018201541660208601526002810154604086015261601760038201615051565b60608601520154161515910152565b9061603082615c6b565b61603d6040519182614ddb565b828152809261604e601f1991615c6b565b019060005b82811061605f57505050565b60209061606a615bdf565b82828501015201616053565b91908203918211613c9e57565b8054600160401b8110156121ef576160a29060019283820181556150f7565b929092616745578051835560209283820151838201556040820151600282015560608201519060039182820155600480820160018060a01b0390816080870151166001600160601b0360a01b825416179055600583019060a08601511681549060ff60a01b60c0880151151560a01b16916affffffffffffffffffffff60a81b161717905560e060068301940151958651928351956001600160401b03968781116167305761615581611d8e8454615017565b8084601f978883116001146166ce576000926166c3575b505060001982891b1c191690891b1790555b600781018289015180519088821161648d5781906161a0826118168654615017565b859088831160011461666157600092616656575b505060001982891b1c191690891b1790555b60088101604089015180519088821161648d5781906161e9826118168654615017565b85908883116001146165f4576000926165e9575b505060001982891b1c191690891b1790555b60098101606089015180519088821161648d578190616232826118168654615017565b85908883116001146165875760009261657c575b505060001982891b1c191690891b1790555b600a8101608089015180519088821161648d57819061627b826118168654615017565b859088831160011461651a5760009261650f575b505060001982891b1c191690891b1790555b600b810160a089015180519088821161648d5781906162c4826118168654615017565b85908883116001146164ad576000926164a2575b505060001982891b1c191690891b1790555b600c810160c089015180519088821161648d576163118261630b8554615017565b85615c99565b8490878311600114616420579180600d949260e09694600092616415575b5050600019828b1b1c1916908b1b1790555b0197015191825195861161640057506163648561635e8954615017565b89615c99565b8092851160011461639a575093839491849260009561638f575b50501b92600019911b1c1916179055565b01519350388061637e565b92919084601f1981168860005285600020956000905b898383106163e657505050106163cc575b50505050811b019055565b01519060f884600019921b161c19169055388080806163c1565b8587015189559097019694850194889350908101906163b0565b604190634e487b7160e01b6000525260246000fd5b01519050388061632f565b8a9291601f1983169185600052876000209260005b898282106164775750509160e09795939185600d9896941061645f575b505050811b019055616341565b0151600019838d1b60f8161c19169055388080616452565b8385015186558f97909501949384019301616435565b604186634e487b7160e01b6000525260246000fd5b0151905038806162d8565b908b9350601f1983169185600052876000209260005b898282106164f957505084116164e1575b505050811b0190556162ea565b0151600019838b1b60f8161c191690553880806164d4565b8385015186558f979095019493840193016164c3565b01519050388061628f565b908b9350601f1983169185600052876000209260005b89828210616566575050841161654e575b505050811b0190556162a1565b0151600019838b1b60f8161c19169055388080616541565b8385015186558f97909501949384019301616530565b015190503880616246565b908b9350601f1983169185600052876000209260005b898282106165d357505084116165bb575b505050811b019055616258565b0151600019838b1b60f8161c191690553880806165ae565b8385015186558f9790950194938401930161659d565b0151905038806161fd565b908b9350601f1983169185600052876000209260005b898282106166405750508411616628575b505050811b01905561620f565b0151600019838b1b60f8161c1916905538808061661b565b8385015186558f9790950194938401930161660a565b0151905038806161b4565b908b9350601f1983169185600052876000209260005b898282106166ad5750508411616695575b505050811b0190556161c6565b0151600019838b1b60f8161c19169055388080616688565b8385015186558f97909501949384019301616677565b01519050388061616c565b908b9350601f1983169185600052876000209260005b8982821061671a5750508411616702575b505050811b01905561617e565b0151600019838b1b60f8161c191690553880806166f5565b8385015186558f979095019493840193016166e4565b604185634e487b7160e01b6000525260246000fd5b634e487b7160e01b600052600060045260246000fd5b60018060a01b0380911660005260209060108252604091826000209081549261678384615c6b565b9461679081519687614ddb565b8486526000938452828420918387015b8686106167b1575050505050505090565b600e8560019285516167c281614d89565b8754815284880154838201526002880154878201526003880154606082015285600489015416608082015260ff600589015460a0888216818501521c16151560c082015261681260068901615129565b60e08201528152019401950194926167a0565b60018060a01b0380911660005260209060118252604091826000209081549261684d84615c6b565b9461685a81519687614ddb565b8486526000938452828420918387015b86861061687b575050505050505090565b600e85600192855161688c81614d89565b8754815284880154838201526002880154878201526003880154606082015285600489015416608082015260ff600589015460a0888216818501521c16151560c08201526168dc60068901615129565b60e082015281520194019501949261686a565b6001600160a01b0316801561694e57600080809381935af161690f6155f8565b501561691757565b60405162461bcd60e51b815260206004820152600f60248201526e151c985b9cd9995c8819985a5b1959608a1b6044820152606490fd5b60405162461bcd60e51b815260206004820152600f60248201526e496e76616c6964206164647265737360881b6044820152606490fdfea2646970667358221220cda538349fae636361ee6c02f1694bde544dbff8b82dca09d15697f10b51d94764736f6c63430008130033","opcodes":"PUSH1 0x80 CALLVALUE PUSH3 0x377 JUMPI PUSH1 0x1F SWAP1 PUSH1 0x1F NOT PUSH1 0x1 PUSH1 0x1 PUSH1 0x40 SHL SUB PUSH3 0x6D6E CODESIZE DUP2 SWAP1 SUB DUP6 DUP2 ADD DUP5 AND DUP6 ADD DUP4 DUP2 GT DUP7 DUP3 LT OR PUSH3 0x37C JUMPI DUP6 SWAP3 DUP3 SWAP2 PUSH1 0x40 MSTORE DUP4 CODECOPY PUSH1 0x20 SWAP5 DUP6 SWAP2 DUP2 ADD SUB SLT PUSH3 0x377 JUMPI MLOAD SWAP4 PUSH3 0x53 PUSH3 0x392 JUMP JUMPDEST SWAP3 PUSH1 0x7 DUP5 MSTORE PUSH7 0x48656D53686F7 PUSH1 0xCC SHL DUP6 DUP6 ADD MSTORE PUSH3 0x71 PUSH3 0x392 JUMP JUMPDEST PUSH1 0x3 DUP1 DUP3 MSTORE PUSH3 0x48737 PUSH1 0xEC SHL DUP8 DUP4 ADD MSTORE PUSH1 0x0 DUP1 SLOAD CALLER PUSH1 0x1 PUSH1 0x1 PUSH1 0xA0 SHL SUB NOT DUP3 AND DUP2 OR DUP4 SSTORE SWAP3 SWAP9 SWAP4 SWAP5 SWAP2 SWAP4 SWAP3 SWAP1 PUSH1 0x1 PUSH1 0x1 PUSH1 0xA0 SHL SUB AND PUSH32 0x8BE0079C531659141344CD1FD0A4F28419497F9722A3DAAFE3B4186F6B6457E0 DUP6 DUP1 LOG3 PUSH1 0x1 SWAP7 DUP8 DUP1 SSTORE DUP1 MLOAD SWAP1 DUP8 DUP3 GT PUSH3 0x363 JUMPI PUSH1 0x2 SLOAD DUP10 DUP2 DUP2 SHR SWAP2 AND DUP1 ISZERO PUSH3 0x358 JUMPI JUMPDEST DUP6 DUP3 LT EQ PUSH3 0x344 JUMPI SWAP1 DUP2 DUP9 DUP5 SWAP4 GT PUSH3 0x2F0 JUMPI JUMPDEST POP DUP5 SWAP1 DUP9 DUP4 GT PUSH1 0x1 EQ PUSH3 0x28E JUMPI DUP7 SWAP3 PUSH3 0x282 JUMPI JUMPDEST POP POP PUSH1 0x0 NOT DUP3 DUP12 SHL SHR NOT AND SWAP1 DUP9 SHL OR PUSH1 0x2 SSTORE JUMPDEST DUP4 MLOAD SWAP6 DUP7 GT PUSH3 0x26E JUMPI DUP8 SLOAD DUP8 DUP2 DUP2 SHR SWAP2 AND DUP1 ISZERO PUSH3 0x263 JUMPI JUMPDEST DUP4 DUP3 LT EQ PUSH3 0x24F JUMPI DUP6 DUP2 GT PUSH3 0x207 JUMPI JUMPDEST POP DUP2 SWAP5 DUP7 GT PUSH1 0x1 EQ PUSH3 0x1A2 JUMPI POP POP SWAP2 DUP4 SWAP5 SWAP2 DUP5 SWAP4 SWAP5 PUSH3 0x196 JUMPI JUMPDEST POP POP SHL SWAP2 PUSH1 0x0 NOT SWAP1 DUP5 SHL SHR NOT AND OR SWAP1 SSTORE JUMPDEST PUSH1 0xB SSTORE PUSH1 0x40 MLOAD PUSH2 0x69BB SWAP1 DUP2 PUSH3 0x3B3 DUP3 CODECOPY RETURN JUMPDEST ADD MLOAD SWAP3 POP CODESIZE DUP1 PUSH3 0x172 JUMP JUMPDEST DUP8 DUP4 MSTORE DUP2 DUP4 KECCAK256 SWAP5 SWAP4 SWAP3 DUP7 SWAP3 SWAP2 DUP4 AND SWAP2 JUMPDEST DUP9 DUP4 DUP4 LT PUSH3 0x1EC JUMPI POP POP POP LT PUSH3 0x1D3 JUMPI JUMPDEST POP POP POP DUP2 SHL ADD SWAP1 SSTORE PUSH3 0x183 JUMP JUMPDEST ADD MLOAD PUSH1 0x0 NOT DUP4 DUP7 SHL PUSH1 0xF8 AND SHR NOT AND SWAP1 SSTORE CODESIZE DUP1 DUP1 PUSH3 0x1C5 JUMP JUMPDEST DUP6 DUP8 ADD MLOAD DUP9 SSTORE SWAP1 SWAP7 ADD SWAP6 SWAP5 DUP6 ADD SWAP5 DUP8 SWAP4 POP SWAP1 DUP2 ADD SWAP1 PUSH3 0x1B2 JUMP JUMPDEST DUP9 DUP5 MSTORE DUP3 DUP5 KECCAK256 DUP7 DUP1 DUP10 ADD PUSH1 0x5 SHR DUP3 ADD SWAP3 DUP6 DUP11 LT PUSH3 0x245 JUMPI JUMPDEST ADD PUSH1 0x5 SHR ADD SWAP1 DUP9 SWAP1 JUMPDEST DUP3 DUP2 LT PUSH3 0x239 JUMPI POP POP PUSH3 0x156 JUMP JUMPDEST DUP6 DUP2 SSTORE ADD DUP9 SWAP1 PUSH3 0x229 JUMP JUMPDEST SWAP3 POP DUP2 SWAP3 PUSH3 0x220 JUMP JUMPDEST PUSH4 0x4E487B71 PUSH1 0xE0 SHL DUP5 MSTORE PUSH1 0x22 PUSH1 0x4 MSTORE PUSH1 0x24 DUP5 REVERT JUMPDEST SWAP1 PUSH1 0x7F AND SWAP1 PUSH3 0x144 JUMP JUMPDEST PUSH4 0x4E487B71 PUSH1 0xE0 SHL DUP4 MSTORE PUSH1 0x41 PUSH1 0x4 MSTORE PUSH1 0x24 DUP4 REVERT JUMPDEST ADD MLOAD SWAP1 POP CODESIZE DUP1 PUSH3 0x117 JUMP JUMPDEST SWAP1 DUP5 DUP12 SWAP5 AND SWAP2 PUSH1 0x2 DUP9 MSTORE DUP7 DUP9 KECCAK256 SWAP3 DUP9 JUMPDEST DUP9 DUP3 DUP3 LT PUSH3 0x2D9 JUMPI POP POP DUP5 GT PUSH3 0x2C0 JUMPI JUMPDEST POP POP POP DUP2 SHL ADD PUSH1 0x2 SSTORE PUSH3 0x12A JUMP JUMPDEST ADD MLOAD PUSH1 0x0 NOT DUP4 DUP14 SHL PUSH1 0xF8 AND SHR NOT AND SWAP1 SSTORE CODESIZE DUP1 DUP1 PUSH3 0x2B1 JUMP JUMPDEST DUP4 DUP6 ADD MLOAD DUP7 SSTORE DUP15 SWAP8 SWAP1 SWAP6 ADD SWAP5 SWAP4 DUP5 ADD SWAP4 ADD PUSH3 0x29E JUMP JUMPDEST SWAP1 SWAP2 POP PUSH1 0x2 DUP7 MSTORE DUP5 DUP7 KECCAK256 DUP9 DUP1 DUP6 ADD PUSH1 0x5 SHR DUP3 ADD SWAP3 DUP8 DUP7 LT PUSH3 0x33A JUMPI JUMPDEST SWAP2 DUP13 SWAP2 DUP7 SWAP6 SWAP5 SWAP4 ADD PUSH1 0x5 SHR ADD SWAP2 JUMPDEST DUP3 DUP2 LT PUSH3 0x32B JUMPI POP POP PUSH3 0x101 JUMP JUMPDEST DUP9 DUP2 SSTORE DUP6 SWAP5 POP DUP13 SWAP2 ADD PUSH3 0x31B JUMP JUMPDEST SWAP3 POP DUP2 SWAP3 PUSH3 0x30D JUMP JUMPDEST PUSH4 0x4E487B71 PUSH1 0xE0 SHL DUP7 MSTORE PUSH1 0x22 PUSH1 0x4 MSTORE PUSH1 0x24 DUP7 REVERT JUMPDEST SWAP1 PUSH1 0x7F AND SWAP1 PUSH3 0xEC JUMP JUMPDEST PUSH4 0x4E487B71 PUSH1 0xE0 SHL DUP6 MSTORE PUSH1 0x41 PUSH1 0x4 MSTORE PUSH1 0x24 DUP6 REVERT JUMPDEST PUSH1 0x0 DUP1 REVERT JUMPDEST PUSH4 0x4E487B71 PUSH1 0xE0 SHL PUSH1 0x0 MSTORE PUSH1 0x41 PUSH1 0x4 MSTORE PUSH1 0x24 PUSH1 0x0 REVERT JUMPDEST PUSH1 0x40 DUP1 MLOAD SWAP2 SWAP1 DUP3 ADD PUSH1 0x1 PUSH1 0x1 PUSH1 0x40 SHL SUB DUP2 GT DUP4 DUP3 LT OR PUSH3 0x37C JUMPI PUSH1 0x40 MSTORE JUMP INVALID PUSH1 0x80 DUP1 PUSH1 0x40 MSTORE PUSH1 0x4 CALLDATASIZE LT ISZERO PUSH2 0x13 JUMPI PUSH1 0x0 DUP1 REVERT JUMPDEST PUSH1 0x0 CALLDATALOAD PUSH1 0xE0 SHR SWAP1 DUP2 PUSH3 0xD64E76 EQ PUSH2 0x4A3B JUMPI POP DUP1 PUSH4 0x1FFC9A7 EQ PUSH2 0x49CD JUMPI DUP1 PUSH4 0x2EE3A52 EQ PUSH2 0x4734 JUMPI DUP1 PUSH4 0x377A9D6 EQ PUSH2 0x470E JUMPI DUP1 PUSH4 0x6FDDE03 EQ PUSH2 0x4668 JUMPI DUP1 PUSH4 0x81812FC EQ PUSH2 0x464A JUMPI DUP1 PUSH4 0x95EA7B3 EQ PUSH2 0x44D0 JUMPI DUP1 PUSH4 0x11AA5B34 EQ PUSH2 0x4197 JUMPI DUP1 PUSH4 0x16D81B38 EQ PUSH2 0x3FB4 JUMPI DUP1 PUSH4 0x2148893F EQ PUSH2 0x3F73 JUMPI DUP1 PUSH4 0x23B872DD EQ PUSH2 0x3F4A JUMPI DUP1 PUSH4 0x24D41A03 EQ PUSH2 0x3D25 JUMPI DUP1 PUSH4 0x3C2575D5 EQ PUSH2 0x3D06 JUMPI DUP1 PUSH4 0x3CCFD60B EQ PUSH2 0x3BD0 JUMPI DUP1 PUSH4 0x42842E0E EQ PUSH2 0x3BA8 JUMPI DUP1 PUSH4 0x45DE84DB EQ PUSH2 0x3B66 JUMPI DUP1 PUSH4 0x52C9224C EQ PUSH2 0x3AA9 JUMPI DUP1 PUSH4 0x5A158520 EQ PUSH2 0x37C9 JUMPI DUP1 PUSH4 0x607EB4E4 EQ PUSH2 0x378F JUMPI DUP1 PUSH4 0x6352211E EQ PUSH2 0x375F JUMPI DUP1 PUSH4 0x661E1712 EQ PUSH2 0x2F01 JUMPI DUP1 PUSH4 0x70A08231 EQ PUSH2 0x2E6A JUMPI DUP1 PUSH4 0x715018A6 EQ PUSH2 0x2E11 JUMPI DUP1 PUSH4 0x7ACC0B20 EQ PUSH2 0x2C79 JUMPI DUP1 PUSH4 0x8DA5CB5B EQ PUSH2 0x2C50 JUMPI DUP1 PUSH4 0x95D89B41 EQ PUSH2 0x2B6E JUMPI DUP1 PUSH4 0x97B6F393 EQ PUSH2 0x2972 JUMPI DUP1 PUSH4 0x9D4A2255 EQ PUSH2 0x27DF JUMPI DUP1 PUSH4 0x9FA44DBF EQ PUSH2 0x2797 JUMPI DUP1 PUSH4 0xA22CB465 EQ PUSH2 0x26BC JUMPI DUP1 PUSH4 0xAF55ED64 EQ PUSH2 0x268B JUMPI DUP1 PUSH4 0xB1191052 EQ PUSH2 0x1B64 JUMPI DUP1 PUSH4 0xB235B4A9 EQ PUSH2 0xC89 JUMPI DUP1 PUSH4 0xB27E1697 EQ PUSH2 0xC6A JUMPI DUP1 PUSH4 0xB88D4FDE EQ PUSH2 0xC09 JUMPI DUP1 PUSH4 0xB9DB15B4 EQ PUSH2 0x9D3 JUMPI DUP1 PUSH4 0xC1302B34 EQ PUSH2 0x97B JUMPI DUP1 PUSH4 0xC64B8A8F EQ PUSH2 0x93C JUMPI DUP1 PUSH4 0xC87B56DD EQ PUSH2 0x8CC JUMPI DUP1 PUSH4 0xD8B0F841 EQ PUSH2 0x8A0 JUMPI DUP1 PUSH4 0xE01EF6E6 EQ PUSH2 0x882 JUMPI DUP1 PUSH4 0xE4B25C6A EQ PUSH2 0x84A JUMPI DUP1 PUSH4 0xE585CB2C EQ PUSH2 0x7BA JUMPI DUP1 PUSH4 0xE985E9C5 EQ PUSH2 0x764 JUMPI DUP1 PUSH4 0xED90C7B7 EQ PUSH2 0x5D0 JUMPI DUP1 PUSH4 0xF2FDE38B EQ PUSH2 0x50C JUMPI PUSH4 0xFDCA4CA3 EQ PUSH2 0x223 JUMPI PUSH1 0x0 DUP1 REVERT JUMPDEST CALLVALUE PUSH2 0x507 JUMPI PUSH1 0x0 CALLDATASIZE PUSH1 0x3 NOT ADD SLT PUSH2 0x507 JUMPI PUSH1 0x8 DUP1 SLOAD PUSH1 0x0 PUSH1 0x1 JUMPDEST DUP3 DUP2 GT ISZERO PUSH2 0x4A6 JUMPI POP PUSH2 0x24F SWAP1 PUSH2 0x6026 JUMP JUMPDEST SWAP1 PUSH1 0x0 SWAP3 PUSH1 0x1 JUMPDEST DUP3 DUP2 GT ISZERO PUSH2 0x270 JUMPI PUSH1 0x40 MLOAD DUP1 PUSH2 0x26C DUP7 DUP3 PUSH2 0x4CDF JUMP JUMPDEST SUB SWAP1 RETURN JUMPDEST PUSH1 0x0 DUP2 DUP2 MSTORE PUSH1 0xC PUSH1 0x20 DUP2 DUP2 MSTORE PUSH1 0x40 SWAP1 SWAP3 KECCAK256 PUSH1 0x1 DUP2 ADD SLOAD PUSH1 0x1 PUSH1 0x1 PUSH1 0xA0 SHL SUB AND SWAP3 SWAP2 SWAP1 CALLER DUP5 EQ DUP1 PUSH2 0x494 JUMPI JUMPDEST PUSH2 0x2B2 JUMPI JUMPDEST POP POP POP POP PUSH2 0x2AD SWAP1 PUSH2 0x5FB3 JUMP JUMPDEST PUSH2 0x256 JUMP JUMPDEST PUSH1 0x40 SWAP9 SWAP5 SWAP9 MLOAD SWAP4 PUSH2 0x2C2 DUP6 PUSH2 0x4D6D JUMP JUMPDEST DUP2 SLOAD DUP6 MSTORE DUP4 DUP6 ADD MSTORE PUSH2 0x2D6 PUSH1 0x2 DUP3 ADD PUSH2 0x5051 JUMP JUMPDEST PUSH1 0x40 DUP6 ADD MSTORE PUSH2 0x2E7 PUSH1 0x3 DUP3 ADD PUSH2 0x5051 JUMP JUMPDEST PUSH1 0x60 DUP6 ADD MSTORE PUSH1 0x4 DUP2 ADD SLOAD PUSH1 0x80 DUP6 ADD MSTORE PUSH1 0x5 SWAP2 DUP3 DUP3 ADD SLOAD PUSH1 0xA0 DUP7 ADD MSTORE PUSH2 0x30E PUSH1 0x6 DUP4 ADD PUSH2 0x5051 JUMP JUMPDEST PUSH1 0xC0 DUP7 ADD MSTORE PUSH2 0x31F PUSH1 0x7 DUP4 ADD PUSH2 0x5051 JUMP JUMPDEST PUSH1 0xE0 DUP7 ADD MSTORE DUP7 DUP3 ADD DUP1 SLOAD PUSH2 0x332 DUP2 PUSH2 0x5C6B JUMP JUMPDEST SWAP2 PUSH2 0x340 PUSH1 0x40 MLOAD SWAP4 DUP5 PUSH2 0x4DDB JUMP JUMPDEST DUP2 DUP4 MSTORE PUSH1 0x0 SWAP1 DUP2 MSTORE DUP7 DUP2 KECCAK256 SWAP1 DUP8 DUP1 DUP6 ADD JUMPDEST DUP5 DUP4 LT PUSH2 0x476 JUMPI POP POP POP POP POP PUSH2 0x100 DUP7 ADD MSTORE PUSH2 0x39D SWAP1 PUSH2 0x373 PUSH1 0x9 DUP5 ADD PUSH2 0x5051 JUMP JUMPDEST PUSH2 0x120 DUP8 ADD MSTORE PUSH2 0x385 PUSH1 0xA DUP5 ADD PUSH2 0x5051 JUMP JUMPDEST PUSH2 0x140 DUP8 ADD MSTORE PUSH1 0xB DUP4 ADD SLOAD PUSH2 0x160 DUP8 ADD MSTORE DUP3 ADD PUSH2 0x5051 JUMP JUMPDEST PUSH2 0x180 DUP6 ADD MSTORE PUSH2 0x3AF PUSH1 0xD DUP3 ADD PUSH2 0x5051 JUMP JUMPDEST PUSH2 0x1A0 DUP6 ADD MSTORE PUSH1 0xE DUP2 ADD SLOAD PUSH2 0x1C0 DUP6 ADD MSTORE PUSH1 0xF DUP2 ADD SLOAD PUSH1 0xFF DUP1 DUP3 AND ISZERO ISZERO PUSH2 0x1E0 DUP8 ADD MSTORE DUP2 DUP9 SHR DUP2 AND ISZERO ISZERO PUSH2 0x200 DUP8 ADD MSTORE PUSH1 0x10 SWAP2 DUP3 SHR AND ISZERO ISZERO PUSH2 0x220 DUP7 ADD MSTORE ADD DUP1 SLOAD SWAP2 SWAP1 PUSH2 0x3FB DUP4 PUSH2 0x5C6B JUMP JUMPDEST SWAP4 PUSH2 0x409 PUSH1 0x40 MLOAD SWAP6 DUP7 PUSH2 0x4DDB JUMP JUMPDEST DUP4 DUP6 MSTORE PUSH1 0x0 SWAP2 DUP3 MSTORE DUP1 DUP3 KECCAK256 SWAP2 DUP2 DUP7 ADD JUMPDEST DUP6 DUP3 LT PUSH2 0x45A JUMPI POP POP POP POP POP POP SWAP2 DUP2 PUSH2 0x2AD SWAP4 PUSH2 0x240 PUSH2 0x450 SWAP5 ADD MSTORE PUSH2 0x43F DUP3 DUP9 PUSH2 0x5FC2 JUMP JUMPDEST MSTORE PUSH2 0x44A DUP2 DUP8 PUSH2 0x5FC2 JUMP JUMPDEST POP PUSH2 0x5FB3 JUMP JUMPDEST SWAP5 SWAP1 CODESIZE DUP1 DUP1 PUSH2 0x2A0 JUMP JUMPDEST DUP5 DUP4 PUSH1 0x1 SWAP3 PUSH2 0x468 DUP8 PUSH2 0x5FD6 JUMP JUMPDEST DUP2 MSTORE ADD SWAP5 ADD SWAP2 ADD SWAP1 SWAP3 PUSH2 0x419 JUMP JUMPDEST PUSH1 0x1 SWAP2 DUP3 SWAP2 PUSH2 0x484 DUP7 PUSH2 0x5051 JUMP JUMPDEST DUP2 MSTORE ADD SWAP4 ADD SWAP2 ADD SWAP1 SWAP2 DUP9 SWAP1 PUSH2 0x351 JUMP JUMPDEST POP PUSH1 0xFF PUSH1 0xF DUP3 ADD SLOAD PUSH1 0x10 SHR AND ISZERO PUSH2 0x29B JUMP JUMPDEST PUSH1 0x0 DUP2 DUP2 MSTORE PUSH1 0xC PUSH1 0x20 MSTORE PUSH1 0x40 SWAP1 KECCAK256 PUSH1 0x1 DUP2 ADD SLOAD PUSH1 0x1 PUSH1 0x1 PUSH1 0xA0 SHL SUB AND CALLER EQ SWAP1 DUP2 PUSH2 0x4F4 JUMPI JUMPDEST POP PUSH2 0x4DF JUMPI JUMPDEST PUSH2 0x4DA SWAP1 PUSH2 0x5FB3 JUMP JUMPDEST PUSH2 0x23D JUMP JUMPDEST SWAP1 PUSH2 0x4EC PUSH2 0x4DA SWAP2 PUSH2 0x5FB3 JUMP JUMPDEST SWAP2 SWAP1 POP PUSH2 0x4D1 JUMP JUMPDEST PUSH1 0xFF SWAP2 POP PUSH1 0xF ADD SLOAD PUSH1 0x10 SHR AND ISZERO CODESIZE PUSH2 0x4CB JUMP JUMPDEST PUSH1 0x0 DUP1 REVERT JUMPDEST CALLVALUE PUSH2 0x507 JUMPI PUSH1 0x20 CALLDATASIZE PUSH1 0x3 NOT ADD SLT PUSH2 0x507 JUMPI PUSH2 0x525 PUSH2 0x4D41 JUMP JUMPDEST PUSH2 0x52D PUSH2 0x521D JUMP JUMPDEST PUSH1 0x1 PUSH1 0x1 PUSH1 0xA0 SHL SUB SWAP1 DUP2 AND SWAP1 DUP2 ISZERO PUSH2 0x57C JUMPI PUSH1 0x0 SLOAD DUP3 PUSH1 0x1 PUSH1 0x1 PUSH1 0x60 SHL SUB PUSH1 0xA0 SHL DUP3 AND OR PUSH1 0x0 SSTORE AND PUSH32 0x8BE0079C531659141344CD1FD0A4F28419497F9722A3DAAFE3B4186F6B6457E0 PUSH1 0x0 DUP1 LOG3 STOP JUMPDEST PUSH1 0x40 MLOAD PUSH3 0x461BCD PUSH1 0xE5 SHL DUP2 MSTORE PUSH1 0x20 PUSH1 0x4 DUP3 ADD MSTORE PUSH1 0x26 PUSH1 0x24 DUP3 ADD MSTORE PUSH32 0x4F776E61626C653A206E6577206F776E657220697320746865207A65726F2061 PUSH1 0x44 DUP3 ADD MSTORE PUSH6 0x646472657373 PUSH1 0xD0 SHL PUSH1 0x64 DUP3 ADD MSTORE PUSH1 0x84 SWAP1 REVERT JUMPDEST CALLVALUE PUSH2 0x507 JUMPI PUSH1 0x20 DUP1 PUSH1 0x3 NOT CALLDATASIZE ADD SLT PUSH2 0x507 JUMPI PUSH1 0x4 CALLDATALOAD SWAP1 CALLER PUSH1 0x0 MSTORE PUSH1 0xF DUP2 MSTORE PUSH1 0xFF PUSH1 0x40 PUSH1 0x0 KECCAK256 SLOAD AND PUSH1 0x4 DUP2 LT ISZERO PUSH2 0x74E JUMPI PUSH1 0x2 EQ DUP1 ISZERO PUSH2 0x73A JUMPI JUMPDEST PUSH2 0x613 SWAP1 PUSH2 0x5727 JUMP JUMPDEST DUP2 PUSH1 0x0 MSTORE PUSH1 0x13 DUP2 MSTORE PUSH2 0x62C PUSH1 0xFF PUSH1 0x40 PUSH1 0x0 KECCAK256 SLOAD AND PUSH2 0x5EE6 JUMP JUMPDEST PUSH1 0x0 DUP3 DUP2 MSTORE PUSH1 0xC DUP3 MSTORE PUSH1 0x40 SWAP1 KECCAK256 PUSH1 0x1 ADD SLOAD PUSH1 0x1 PUSH1 0x1 PUSH1 0xA0 SHL SUB SWAP1 DUP2 AND CALLER EQ SWAP1 DUP2 ISZERO PUSH2 0x72C JUMPI JUMPDEST POP ISZERO PUSH2 0x6D8 JUMPI DUP2 PUSH1 0x0 MSTORE PUSH1 0xC DUP2 MSTORE PUSH1 0xFF PUSH1 0xF PUSH1 0x40 PUSH1 0x0 KECCAK256 ADD SLOAD PUSH1 0x10 SHR AND PUSH2 0x694 JUMPI PUSH1 0x0 SWAP2 DUP3 MSTORE PUSH1 0xC SWAP1 MSTORE PUSH1 0x40 SWAP1 KECCAK256 PUSH1 0xF ADD DUP1 SLOAD PUSH3 0xFF0000 NOT AND PUSH3 0x10000 OR SWAP1 SSTORE STOP JUMPDEST PUSH1 0x64 SWAP1 PUSH1 0x40 MLOAD SWAP1 PUSH3 0x461BCD PUSH1 0xE5 SHL DUP3 MSTORE PUSH1 0x4 DUP3 ADD MSTORE PUSH1 0x1A PUSH1 0x24 DUP3 ADD MSTORE PUSH32 0x50726F6475637420697320616C72656164792064656C65746564000000000000 PUSH1 0x44 DUP3 ADD MSTORE REVERT JUMPDEST PUSH1 0x84 SWAP1 PUSH1 0x40 MLOAD SWAP1 PUSH3 0x461BCD PUSH1 0xE5 SHL DUP3 MSTORE PUSH1 0x4 DUP3 ADD MSTORE PUSH1 0x27 PUSH1 0x24 DUP3 ADD MSTORE PUSH32 0x4F6E6C792070726F647563742073656C6C6572206F72206F776E65722063616E PUSH1 0x44 DUP3 ADD MSTORE PUSH7 0x2064656C657465 PUSH1 0xC8 SHL PUSH1 0x64 DUP3 ADD MSTORE REVERT JUMPDEST PUSH1 0x0 SLOAD AND CALLER EQ SWAP1 POP DUP4 PUSH2 0x652 JUMP JUMPDEST POP PUSH1 0x0 SLOAD PUSH1 0x1 PUSH1 0x1 PUSH1 0xA0 SHL SUB AND CALLER EQ PUSH2 0x60A JUMP JUMPDEST PUSH4 0x4E487B71 PUSH1 0xE0 SHL PUSH1 0x0 MSTORE PUSH1 0x21 PUSH1 0x4 MSTORE PUSH1 0x24 PUSH1 0x0 REVERT JUMPDEST CALLVALUE PUSH2 0x507 JUMPI PUSH1 0x40 CALLDATASIZE PUSH1 0x3 NOT ADD SLT PUSH2 0x507 JUMPI PUSH2 0x77D PUSH2 0x4D41 JUMP JUMPDEST PUSH2 0x785 PUSH2 0x4D57 JUMP JUMPDEST SWAP1 PUSH1 0x1 DUP1 PUSH1 0xA0 SHL SUB DUP1 SWAP2 AND PUSH1 0x0 MSTORE PUSH1 0x7 PUSH1 0x20 MSTORE PUSH1 0x40 PUSH1 0x0 KECCAK256 SWAP2 AND PUSH1 0x0 MSTORE PUSH1 0x20 MSTORE PUSH1 0x20 PUSH1 0xFF PUSH1 0x40 PUSH1 0x0 KECCAK256 SLOAD AND PUSH1 0x40 MLOAD SWAP1 ISZERO ISZERO DUP2 MSTORE RETURN JUMPDEST CALLVALUE PUSH2 0x507 JUMPI PUSH1 0x40 CALLDATASIZE PUSH1 0x3 NOT ADD SLT PUSH2 0x507 JUMPI PUSH2 0x7D3 PUSH2 0x4D41 JUMP JUMPDEST PUSH1 0x1 PUSH1 0x1 PUSH1 0xA0 SHL SUB SWAP1 DUP2 AND PUSH1 0x0 SWAP1 DUP2 MSTORE PUSH1 0x11 PUSH1 0x20 MSTORE PUSH1 0x40 SWAP1 KECCAK256 DUP1 SLOAD PUSH1 0x24 CALLDATALOAD SWAP1 DUP2 LT ISZERO PUSH2 0x507 JUMPI PUSH2 0x802 SWAP2 PUSH2 0x50F7 JUMP JUMPDEST POP SWAP1 PUSH2 0x26C DUP3 SLOAD PUSH1 0x1 DUP5 ADD SLOAD SWAP4 PUSH1 0x2 DUP2 ADD SLOAD SWAP2 PUSH1 0x3 DUP3 ADD SLOAD DUP6 PUSH1 0x4 DUP5 ADD SLOAD AND SWAP1 PUSH2 0x833 PUSH1 0x6 PUSH1 0x5 DUP7 ADD SLOAD SWAP6 ADD PUSH2 0x5129 JUMP JUMPDEST SWAP5 PUSH1 0x40 MLOAD SWAP9 DUP10 SWAP9 PUSH1 0xFF DUP8 PUSH1 0xA0 SHR AND SWAP7 AND SWAP5 DUP10 PUSH2 0x51BB JUMP JUMPDEST CALLVALUE PUSH2 0x507 JUMPI PUSH1 0x20 CALLDATASIZE PUSH1 0x3 NOT ADD SLT PUSH2 0x507 JUMPI PUSH2 0x26C PUSH2 0x876 PUSH2 0x869 PUSH2 0x4D41 JUMP JUMPDEST PUSH2 0x871 PUSH2 0x521D JUMP JUMPDEST PUSH2 0x6825 JUMP JUMPDEST PUSH1 0x40 MLOAD SWAP2 DUP3 SWAP2 DUP3 PUSH2 0x4F46 JUMP JUMPDEST CALLVALUE PUSH2 0x507 JUMPI PUSH1 0x0 CALLDATASIZE PUSH1 0x3 NOT ADD SLT PUSH2 0x507 JUMPI PUSH1 0x20 PUSH1 0xB SLOAD PUSH1 0x40 MLOAD SWAP1 DUP2 MSTORE RETURN JUMPDEST CALLVALUE PUSH2 0x507 JUMPI PUSH1 0x20 CALLDATASIZE PUSH1 0x3 NOT ADD SLT PUSH2 0x507 JUMPI PUSH2 0x26C PUSH2 0x876 PUSH2 0x8BF PUSH2 0x4D41 JUMP JUMPDEST PUSH2 0x8C7 PUSH2 0x521D JUMP JUMPDEST PUSH2 0x675B JUMP JUMPDEST CALLVALUE PUSH2 0x507 JUMPI PUSH1 0x20 CALLDATASIZE PUSH1 0x3 NOT ADD SLT PUSH2 0x507 JUMPI PUSH2 0x906 PUSH2 0x901 PUSH1 0x4 CALLDATALOAD PUSH1 0x0 MSTORE PUSH1 0x4 PUSH1 0x20 MSTORE PUSH1 0x1 DUP1 PUSH1 0xA0 SHL SUB PUSH1 0x40 PUSH1 0x0 KECCAK256 SLOAD AND ISZERO ISZERO SWAP1 JUMP JUMPDEST PUSH2 0x5275 JUMP JUMPDEST PUSH1 0x0 PUSH1 0x40 MLOAD PUSH2 0x914 DUP2 PUSH2 0x4DC0 JUMP JUMPDEST MSTORE PUSH2 0x26C PUSH1 0x40 MLOAD PUSH2 0x924 DUP2 PUSH2 0x4DC0 JUMP JUMPDEST PUSH1 0x0 DUP2 MSTORE PUSH1 0x40 MLOAD SWAP2 DUP3 SWAP2 PUSH1 0x20 DUP4 MSTORE PUSH1 0x20 DUP4 ADD SWAP1 PUSH2 0x4A68 JUMP JUMPDEST CALLVALUE PUSH2 0x507 JUMPI PUSH1 0x20 CALLDATASIZE PUSH1 0x3 NOT ADD SLT PUSH2 0x507 JUMPI PUSH1 0x1 PUSH1 0x1 PUSH1 0xA0 SHL SUB PUSH2 0x95D PUSH2 0x4D41 JUMP JUMPDEST AND PUSH1 0x0 MSTORE PUSH1 0x12 PUSH1 0x20 MSTORE PUSH1 0x20 PUSH1 0xFF PUSH1 0x40 PUSH1 0x0 KECCAK256 SLOAD AND PUSH1 0x40 MLOAD SWAP1 ISZERO ISZERO DUP2 MSTORE RETURN JUMPDEST CALLVALUE PUSH2 0x507 JUMPI PUSH1 0x40 CALLDATASIZE PUSH1 0x3 NOT ADD SLT PUSH2 0x507 JUMPI PUSH2 0x994 PUSH2 0x4D41 JUMP JUMPDEST PUSH1 0x1 PUSH1 0x1 PUSH1 0xA0 SHL SUB AND PUSH1 0x0 SWAP1 DUP2 MSTORE PUSH1 0xD PUSH1 0x20 MSTORE PUSH1 0x40 SWAP1 KECCAK256 DUP1 SLOAD PUSH1 0x24 CALLDATALOAD SWAP2 SWAP1 DUP3 LT ISZERO PUSH2 0x507 JUMPI PUSH1 0x20 SWAP2 PUSH2 0x9C5 SWAP2 PUSH2 0x5205 JUMP JUMPDEST SWAP1 SLOAD PUSH1 0x40 MLOAD SWAP2 PUSH1 0x3 SHL SHR DUP2 MSTORE RETURN JUMPDEST CALLVALUE PUSH2 0x507 JUMPI PUSH1 0x20 DUP1 PUSH1 0x3 NOT CALLDATASIZE ADD SLT PUSH2 0x507 JUMPI PUSH1 0x4 CALLDATALOAD PUSH2 0x9F0 PUSH2 0x5BDF JUMP JUMPDEST POP DUP1 PUSH1 0x0 MSTORE PUSH1 0xC DUP3 MSTORE PUSH2 0xA11 PUSH1 0xFF PUSH1 0xF PUSH1 0x40 PUSH1 0x0 KECCAK256 ADD SLOAD PUSH1 0x10 SHR AND ISZERO PUSH2 0x5F2B JUMP JUMPDEST DUP1 PUSH1 0x0 MSTORE PUSH1 0x13 DUP3 MSTORE PUSH2 0xA2A PUSH1 0xFF PUSH1 0x40 PUSH1 0x0 KECCAK256 SLOAD AND PUSH2 0x5EE6 JUMP JUMPDEST PUSH1 0x0 MSTORE PUSH1 0xC DUP2 MSTORE PUSH1 0x40 PUSH1 0x0 KECCAK256 SWAP1 PUSH1 0x40 MLOAD SWAP2 PUSH2 0xA44 DUP4 PUSH2 0x4D6D JUMP JUMPDEST DUP1 SLOAD DUP4 MSTORE PUSH1 0x1 DUP1 DUP3 ADD SLOAD PUSH1 0x1 PUSH1 0x1 PUSH1 0xA0 SHL SUB AND DUP4 DUP6 ADD MSTORE PUSH2 0xA67 PUSH1 0x2 DUP4 ADD PUSH2 0x5051 JUMP JUMPDEST PUSH1 0x40 DUP6 ADD MSTORE PUSH2 0xA78 PUSH1 0x3 DUP4 ADD PUSH2 0x5051 JUMP JUMPDEST PUSH1 0x60 DUP6 ADD MSTORE PUSH1 0x4 DUP3 ADD SLOAD PUSH1 0x80 DUP6 ADD MSTORE PUSH1 0x5 SWAP2 DUP3 DUP2 ADD SLOAD PUSH1 0xA0 DUP7 ADD MSTORE PUSH2 0xA9F PUSH1 0x6 DUP3 ADD PUSH2 0x5051 JUMP JUMPDEST PUSH1 0xC0 DUP7 ADD MSTORE PUSH2 0xAB0 PUSH1 0x7 DUP3 ADD PUSH2 0x5051 JUMP JUMPDEST PUSH1 0xE0 DUP7 ADD MSTORE PUSH1 0x8 DUP2 ADD DUP1 SLOAD PUSH2 0xAC4 DUP2 PUSH2 0x5C6B JUMP JUMPDEST SWAP2 PUSH2 0xAD2 PUSH1 0x40 MLOAD SWAP4 DUP5 PUSH2 0x4DDB JUMP JUMPDEST DUP2 DUP4 MSTORE PUSH1 0x0 SWAP1 DUP2 MSTORE DUP7 DUP2 KECCAK256 DUP6 DUP9 DUP1 DUP7 ADD JUMPDEST DUP6 DUP6 LT PUSH2 0xBEC JUMPI POP DUP9 DUP12 SWAP3 PUSH1 0x10 DUP10 DUP10 PUSH2 0x100 DUP8 ADD MSTORE PUSH2 0xB04 PUSH1 0x9 DUP3 ADD PUSH2 0x5051 JUMP JUMPDEST PUSH2 0x120 DUP8 ADD MSTORE PUSH2 0xB16 PUSH1 0xA DUP3 ADD PUSH2 0x5051 JUMP JUMPDEST PUSH2 0x140 DUP8 ADD MSTORE PUSH1 0xB DUP2 ADD SLOAD PUSH2 0x160 DUP8 ADD MSTORE PUSH2 0xB33 PUSH1 0xC DUP3 ADD PUSH2 0x5051 JUMP JUMPDEST PUSH2 0x180 DUP8 ADD MSTORE PUSH2 0xB45 PUSH1 0xD DUP3 ADD PUSH2 0x5051 JUMP JUMPDEST PUSH2 0x1A0 DUP8 ADD MSTORE PUSH1 0xE DUP2 ADD SLOAD PUSH2 0x1C0 DUP8 ADD MSTORE PUSH1 0xFF PUSH1 0xF DUP3 ADD SLOAD DUP2 DUP2 AND ISZERO ISZERO PUSH2 0x1E0 DUP10 ADD MSTORE DUP2 DUP2 PUSH1 0x8 SHR AND ISZERO ISZERO PUSH2 0x200 DUP10 ADD MSTORE DUP4 SHR AND ISZERO ISZERO PUSH2 0x220 DUP8 ADD MSTORE ADD SWAP2 DUP3 SLOAD SWAP1 PUSH2 0xB8F DUP3 PUSH2 0x5C6B JUMP JUMPDEST SWAP4 PUSH2 0xB9D PUSH1 0x40 MLOAD SWAP6 DUP7 PUSH2 0x4DDB JUMP JUMPDEST DUP3 DUP6 MSTORE PUSH1 0x0 SWAP1 DUP2 MSTORE DUP6 DUP2 KECCAK256 DUP7 DUP1 DUP8 ADD JUMPDEST DUP6 DUP5 LT PUSH2 0xBCF JUMPI PUSH2 0x240 DUP11 ADD DUP9 SWAP1 MSTORE PUSH1 0x40 MLOAD DUP3 DUP2 MSTORE DUP1 PUSH2 0x26C DUP2 DUP6 ADD DUP14 PUSH2 0x4B3F JUMP JUMPDEST DUP7 SWAP2 DUP6 SWAP2 PUSH2 0xBDC DUP6 PUSH2 0x5FD6 JUMP JUMPDEST DUP2 MSTORE ADD SWAP3 ADD SWAP3 ADD SWAP2 SWAP1 DUP8 SWAP1 PUSH2 0xBAD JUMP JUMPDEST SWAP1 DUP3 SWAP2 PUSH2 0xBF8 DUP6 PUSH2 0x5051 JUMP JUMPDEST DUP2 MSTORE ADD SWAP3 ADD SWAP3 ADD SWAP2 SWAP1 DUP9 DUP8 SWAP2 PUSH2 0xAE3 JUMP JUMPDEST CALLVALUE PUSH2 0x507 JUMPI PUSH1 0x80 CALLDATASIZE PUSH1 0x3 NOT ADD SLT PUSH2 0x507 JUMPI PUSH2 0xC22 PUSH2 0x4D41 JUMP JUMPDEST PUSH2 0xC2A PUSH2 0x4D57 JUMP JUMPDEST PUSH1 0x64 CALLDATALOAD SWAP2 PUSH1 0x1 PUSH1 0x1 PUSH1 0x40 SHL SUB DUP4 GT PUSH2 0x507 JUMPI CALLDATASIZE PUSH1 0x23 DUP5 ADD SLT ISZERO PUSH2 0x507 JUMPI PUSH2 0xC5E PUSH2 0xC68 SWAP4 CALLDATASIZE SWAP1 PUSH1 0x24 DUP2 PUSH1 0x4 ADD CALLDATALOAD SWAP2 ADD PUSH2 0x4E17 JUMP JUMPDEST SWAP2 PUSH1 0x44 CALLDATALOAD SWAP2 PUSH2 0x5384 JUMP JUMPDEST STOP JUMPDEST CALLVALUE PUSH2 0x507 JUMPI PUSH1 0x20 CALLDATASIZE PUSH1 0x3 NOT ADD SLT PUSH2 0x507 JUMPI PUSH2 0x26C PUSH2 0x876 PUSH2 0x8C7 PUSH2 0x4D41 JUMP JUMPDEST CALLVALUE PUSH2 0x507 JUMPI PUSH1 0x3 NOT PUSH1 0x20 CALLDATASIZE DUP3 ADD SLT PUSH2 0x507 JUMPI PUSH1 0x1 PUSH1 0x1 PUSH1 0x40 SHL SUB PUSH1 0x4 CALLDATALOAD GT PUSH2 0x507 JUMPI PUSH2 0x1A0 SWAP1 PUSH1 0x4 CALLDATALOAD CALLDATASIZE SUB ADD SLT PUSH2 0x507 JUMPI CALLER PUSH1 0x0 MSTORE PUSH1 0xF PUSH1 0x20 MSTORE PUSH1 0xFF PUSH1 0x40 PUSH1 0x0 KECCAK256 SLOAD AND PUSH1 0x4 DUP2 LT ISZERO PUSH2 0x74E JUMPI PUSH1 0x2 EQ DUP1 ISZERO PUSH2 0x1B50 JUMPI JUMPDEST PUSH2 0xCE8 SWAP1 PUSH2 0x5727 JUMP JUMPDEST PUSH2 0xD02 PUSH2 0xCF9 PUSH1 0x4 DUP1 CALLDATALOAD ADD DUP1 PUSH2 0x5781 JUMP JUMPDEST SWAP1 POP ISZERO ISZERO PUSH2 0x57B3 JUMP JUMPDEST PUSH1 0x24 PUSH2 0xD23 PUSH2 0xD1A DUP3 PUSH1 0x4 CALLDATALOAD ADD PUSH1 0x4 CALLDATALOAD PUSH1 0x4 ADD PUSH2 0x5781 JUMP JUMPDEST SWAP1 POP ISZERO ISZERO PUSH2 0x57F6 JUMP JUMPDEST PUSH2 0xD34 PUSH1 0x44 PUSH1 0x4 CALLDATALOAD ADD CALLDATALOAD ISZERO ISZERO PUSH2 0x5842 JUMP JUMPDEST PUSH2 0xD45 PUSH1 0x64 PUSH1 0x4 CALLDATALOAD ADD CALLDATALOAD ISZERO ISZERO PUSH2 0x588E JUMP JUMPDEST PUSH2 0xD65 PUSH2 0xD5C PUSH1 0x84 PUSH1 0x4 CALLDATALOAD ADD PUSH1 0x4 CALLDATALOAD PUSH1 0x4 ADD PUSH2 0x5781 JUMP JUMPDEST SWAP1 POP ISZERO ISZERO PUSH2 0x58DA JUMP JUMPDEST PUSH2 0xD85 PUSH2 0xD7C PUSH1 0xC4 PUSH1 0x4 CALLDATALOAD ADD PUSH1 0x4 CALLDATALOAD PUSH1 0x4 ADD PUSH2 0x591E JUMP JUMPDEST SWAP1 POP ISZERO ISZERO PUSH2 0x5953 JUMP JUMPDEST PUSH2 0xDA6 PUSH1 0x5 PUSH2 0xD9E PUSH1 0xC4 PUSH1 0x4 CALLDATALOAD ADD PUSH1 0x4 CALLDATALOAD PUSH1 0x4 ADD PUSH2 0x591E JUMP JUMPDEST SWAP1 POP LT PUSH2 0x5998 JUMP JUMPDEST PUSH2 0xDC6 PUSH2 0xDBD PUSH1 0xA4 PUSH1 0x4 CALLDATALOAD ADD PUSH1 0x4 CALLDATALOAD PUSH1 0x4 ADD PUSH2 0x5781 JUMP JUMPDEST SWAP1 POP ISZERO ISZERO PUSH2 0x59E4 JUMP JUMPDEST PUSH2 0xDE6 PUSH2 0xDDD PUSH1 0xE4 PUSH1 0x4 CALLDATALOAD ADD PUSH1 0x4 CALLDATALOAD PUSH1 0x4 ADD PUSH2 0x5781 JUMP JUMPDEST SWAP1 POP ISZERO ISZERO PUSH2 0x5A27 JUMP JUMPDEST PUSH2 0xE07 PUSH2 0xDFE PUSH2 0x104 PUSH1 0x4 CALLDATALOAD ADD PUSH1 0x4 CALLDATALOAD PUSH1 0x4 ADD PUSH2 0x5781 JUMP JUMPDEST SWAP1 POP ISZERO ISZERO PUSH2 0x5A73 JUMP JUMPDEST PUSH2 0xE28 PUSH2 0xE1F PUSH2 0x124 PUSH1 0x4 CALLDATALOAD ADD PUSH1 0x4 CALLDATALOAD PUSH1 0x4 ADD PUSH2 0x5781 JUMP JUMPDEST SWAP1 POP ISZERO ISZERO PUSH2 0x5ABF JUMP JUMPDEST PUSH2 0xE49 PUSH2 0xE40 PUSH2 0x144 PUSH1 0x4 CALLDATALOAD ADD PUSH1 0x4 CALLDATALOAD PUSH1 0x4 ADD PUSH2 0x5781 JUMP JUMPDEST SWAP1 POP ISZERO ISZERO PUSH2 0x5B03 JUMP JUMPDEST PUSH2 0xE5B PUSH2 0x164 PUSH1 0x4 CALLDATALOAD ADD CALLDATALOAD ISZERO ISZERO PUSH2 0x5B47 JUMP JUMPDEST PUSH2 0xE6D PUSH2 0x184 PUSH1 0x4 CALLDATALOAD ADD CALLDATALOAD ISZERO ISZERO PUSH2 0x5B93 JUMP JUMPDEST PUSH1 0x1 PUSH1 0x8 SLOAD ADD DUP1 PUSH1 0x8 SSTORE PUSH2 0xE7F PUSH2 0x5BDF JUMP JUMPDEST DUP2 DUP2 MSTORE CALLER PUSH1 0x20 DUP3 ADD MSTORE PUSH2 0xEA0 PUSH2 0xE99 PUSH1 0x4 DUP1 CALLDATALOAD ADD DUP1 PUSH2 0x5781 JUMP JUMPDEST CALLDATASIZE SWAP2 PUSH2 0x4E17 JUMP JUMPDEST PUSH1 0x40 DUP3 ADD MSTORE PUSH2 0xEBB PUSH2 0xE99 DUP5 PUSH1 0x4 CALLDATALOAD ADD PUSH1 0x4 CALLDATALOAD PUSH1 0x4 ADD PUSH2 0x5781 JUMP JUMPDEST PUSH1 0x60 DUP3 ADD MSTORE PUSH1 0x44 PUSH1 0x4 CALLDATALOAD ADD CALLDATALOAD PUSH1 0x80 DUP3 ADD MSTORE PUSH1 0x64 PUSH1 0x4 CALLDATALOAD ADD CALLDATALOAD PUSH1 0xA0 DUP3 ADD MSTORE PUSH2 0xEEF PUSH2 0xE99 PUSH1 0x84 PUSH1 0x4 CALLDATALOAD ADD PUSH1 0x4 CALLDATALOAD PUSH1 0x4 ADD PUSH2 0x5781 JUMP JUMPDEST PUSH1 0xC0 DUP3 ADD MSTORE PUSH2 0xF0B PUSH2 0xE99 PUSH1 0xA4 PUSH1 0x4 CALLDATALOAD ADD PUSH1 0x4 CALLDATALOAD PUSH1 0x4 ADD PUSH2 0x5781 JUMP JUMPDEST PUSH1 0xE0 DUP3 ADD MSTORE PUSH2 0xF24 PUSH1 0xC4 PUSH1 0x4 CALLDATALOAD ADD PUSH1 0x4 CALLDATALOAD PUSH1 0x4 ADD PUSH2 0x591E JUMP JUMPDEST SWAP1 PUSH2 0xF2E DUP3 PUSH2 0x5C6B JUMP JUMPDEST SWAP2 PUSH2 0xF3C PUSH1 0x40 MLOAD SWAP4 DUP5 PUSH2 0x4DDB JUMP JUMPDEST DUP1 DUP4 MSTORE PUSH1 0x20 DUP4 ADD SWAP2 CALLDATASIZE DUP3 PUSH1 0x5 SHL DUP3 ADD GT PUSH2 0x507 JUMPI DUP1 SWAP3 JUMPDEST DUP3 PUSH1 0x5 SHL DUP3 ADD DUP5 LT PUSH2 0x1B25 JUMPI POP POP POP POP PUSH2 0x100 DUP3 ADD MSTORE PUSH2 0xF80 PUSH2 0xE99 PUSH1 0xE4 PUSH1 0x4 CALLDATALOAD ADD PUSH1 0x4 CALLDATALOAD PUSH1 0x4 ADD PUSH2 0x5781 JUMP JUMPDEST PUSH2 0x120 DUP3 ADD MSTORE PUSH2 0xF9E PUSH2 0xE99 PUSH2 0x104 PUSH1 0x4 CALLDATALOAD ADD PUSH1 0x4 CALLDATALOAD PUSH1 0x4 ADD PUSH2 0x5781 JUMP JUMPDEST PUSH2 0x140 DUP3 ADD MSTORE PUSH2 0xFBC PUSH2 0xE99 PUSH2 0x124 PUSH1 0x4 CALLDATALOAD ADD PUSH1 0x4 CALLDATALOAD PUSH1 0x4 ADD PUSH2 0x5781 JUMP JUMPDEST PUSH2 0x180 DUP3 ADD MSTORE PUSH2 0xFDA PUSH2 0xE99 PUSH2 0x144 PUSH1 0x4 CALLDATALOAD ADD PUSH1 0x4 CALLDATALOAD PUSH1 0x4 ADD PUSH2 0x5781 JUMP JUMPDEST PUSH2 0x1A0 DUP3 ADD MSTORE PUSH1 0x4 CALLDATALOAD PUSH2 0x164 DUP2 ADD CALLDATALOAD PUSH2 0x160 DUP4 ADD MSTORE PUSH2 0x184 ADD CALLDATALOAD PUSH2 0x1C0 DUP3 ADD MSTORE CALLER ISZERO PUSH2 0x1AE1 JUMPI PUSH1 0x0 DUP3 DUP2 MSTORE PUSH1 0x4 PUSH1 0x20 MSTORE PUSH1 0x40 SWAP1 KECCAK256 SLOAD PUSH2 0x1025 SWAP1 PUSH1 0x1 PUSH1 0x1 PUSH1 0xA0 SHL SUB AND ISZERO ISZERO JUMPDEST ISZERO PUSH2 0x5E9A JUMP JUMPDEST PUSH1 0x0 DUP3 DUP2 MSTORE PUSH1 0x4 PUSH1 0x20 MSTORE PUSH1 0x40 SWAP1 KECCAK256 SLOAD PUSH2 0x1048 SWAP1 PUSH1 0x1 PUSH1 0x1 PUSH1 0xA0 SHL SUB AND ISZERO ISZERO PUSH2 0x101F JUMP JUMPDEST CALLER PUSH1 0x0 MSTORE PUSH1 0x5 PUSH1 0x20 MSTORE PUSH1 0x40 PUSH1 0x0 KECCAK256 PUSH1 0x1 DUP2 SLOAD ADD SWAP1 SSTORE DUP2 PUSH1 0x0 MSTORE PUSH1 0x4 PUSH1 0x20 MSTORE PUSH1 0x40 PUSH1 0x0 KECCAK256 CALLER PUSH1 0x1 PUSH1 0x1 PUSH1 0x60 SHL SUB PUSH1 0xA0 SHL DUP3 SLOAD AND OR SWAP1 SSTORE DUP2 CALLER PUSH1 0x0 PUSH32 0xDDF252AD1BE2C89B69C2B068FC378DAA952BA7F163C4A11628F55A4DF523B3EF DUP2 DUP1 LOG4 PUSH1 0xC PUSH1 0x20 MSTORE PUSH1 0x40 PUSH1 0x0 KECCAK256 DUP2 MLOAD DUP2 SSTORE PUSH1 0x1 DUP2 ADD PUSH1 0x1 DUP1 PUSH1 0xA0 SHL SUB PUSH1 0x20 DUP5 ADD MLOAD AND PUSH1 0x1 PUSH1 0x1 PUSH1 0x60 SHL SUB PUSH1 0xA0 SHL DUP3 SLOAD AND OR SWAP1 SSTORE PUSH1 0x40 DUP3 ADD MLOAD DUP1 MLOAD SWAP1 PUSH1 0x1 PUSH1 0x1 PUSH1 0x40 SHL SUB DUP3 GT PUSH2 0x15E8 JUMPI DUP2 SWAP1 PUSH2 0x1107 DUP3 PUSH2 0x10FE PUSH1 0x2 DUP8 ADD SLOAD PUSH2 0x5017 JUMP JUMPDEST PUSH1 0x2 DUP8 ADD PUSH2 0x5C99 JUMP JUMPDEST PUSH1 0x20 SWAP1 PUSH1 0x1F DUP4 GT PUSH1 0x1 EQ PUSH2 0x1A6F JUMPI PUSH1 0x0 SWAP3 PUSH2 0x1A64 JUMPI JUMPDEST POP POP DUP2 PUSH1 0x1 SHL SWAP2 PUSH1 0x0 NOT SWAP1 PUSH1 0x3 SHL SHR NOT AND OR PUSH1 0x2 DUP3 ADD SSTORE JUMPDEST PUSH1 0x60 DUP3 ADD MLOAD DUP1 MLOAD SWAP1 PUSH1 0x1 PUSH1 0x1 PUSH1 0x40 SHL SUB DUP3 GT PUSH2 0x15E8 JUMPI DUP2 SWAP1 PUSH2 0x1167 DUP3 PUSH2 0x115E PUSH1 0x3 DUP8 ADD SLOAD PUSH2 0x5017 JUMP JUMPDEST PUSH1 0x3 DUP8 ADD PUSH2 0x5C99 JUMP JUMPDEST PUSH1 0x20 SWAP1 PUSH1 0x1F DUP4 GT PUSH1 0x1 EQ PUSH2 0x19F2 JUMPI PUSH1 0x0 SWAP3 PUSH2 0x19E7 JUMPI JUMPDEST POP POP DUP2 PUSH1 0x1 SHL SWAP2 PUSH1 0x0 NOT SWAP1 PUSH1 0x3 SHL SHR NOT AND OR PUSH1 0x3 DUP3 ADD SSTORE JUMPDEST PUSH1 0x80 DUP3 ADD MLOAD PUSH1 0x4 DUP3 ADD SSTORE PUSH1 0xA0 DUP3 ADD MLOAD PUSH1 0x5 DUP3 ADD SSTORE PUSH1 0xC0 DUP3 ADD MLOAD DUP1 MLOAD SWAP1 PUSH1 0x1 PUSH1 0x1 PUSH1 0x40 SHL SUB DUP3 GT PUSH2 0x15E8 JUMPI DUP2 SWAP1 PUSH2 0x11DB DUP3 PUSH2 0x11D2 PUSH1 0x6 DUP8 ADD SLOAD PUSH2 0x5017 JUMP JUMPDEST PUSH1 0x6 DUP8 ADD PUSH2 0x5C99 JUMP JUMPDEST PUSH1 0x20 SWAP1 PUSH1 0x1F DUP4 GT PUSH1 0x1 EQ PUSH2 0x1975 JUMPI PUSH1 0x0 SWAP3 PUSH2 0x196A JUMPI JUMPDEST POP POP DUP2 PUSH1 0x1 SHL SWAP2 PUSH1 0x0 NOT SWAP1 PUSH1 0x3 SHL SHR NOT AND OR PUSH1 0x6 DUP3 ADD SSTORE JUMPDEST PUSH1 0xE0 DUP3 ADD MLOAD DUP1 MLOAD SWAP1 PUSH1 0x1 PUSH1 0x1 PUSH1 0x40 SHL SUB DUP3 GT PUSH2 0x15E8 JUMPI DUP2 SWAP1 PUSH2 0x123B DUP3 PUSH2 0x1232 PUSH1 0x7 DUP8 ADD SLOAD PUSH2 0x5017 JUMP JUMPDEST PUSH1 0x7 DUP8 ADD PUSH2 0x5C99 JUMP JUMPDEST PUSH1 0x20 SWAP1 PUSH1 0x1F DUP4 GT PUSH1 0x1 EQ PUSH2 0x18F8 JUMPI PUSH1 0x0 SWAP3 PUSH2 0x18ED JUMPI JUMPDEST POP POP DUP2 PUSH1 0x1 SHL SWAP2 PUSH1 0x0 NOT SWAP1 PUSH1 0x3 SHL SHR NOT AND OR PUSH1 0x7 DUP3 ADD SSTORE JUMPDEST PUSH1 0x8 DUP2 ADD PUSH2 0x100 DUP4 ADD MLOAD SWAP1 PUSH1 0x20 DUP3 MLOAD SWAP3 PUSH2 0x1283 DUP5 DUP5 PUSH2 0x5D27 JUMP JUMPDEST ADD SWAP1 PUSH1 0x0 MSTORE PUSH1 0x20 PUSH1 0x0 KECCAK256 PUSH1 0x0 SWAP2 JUMPDEST DUP4 DUP4 LT PUSH2 0x17F5 JUMPI POP POP POP POP PUSH2 0x120 DUP3 ADD MLOAD DUP1 MLOAD SWAP1 PUSH1 0x1 PUSH1 0x1 PUSH1 0x40 SHL SUB DUP3 GT PUSH2 0x15E8 JUMPI DUP2 SWAP1 PUSH2 0x12CF DUP3 PUSH2 0x12C6 PUSH1 0x9 DUP8 ADD SLOAD PUSH2 0x5017 JUMP JUMPDEST PUSH1 0x9 DUP8 ADD PUSH2 0x5C99 JUMP JUMPDEST PUSH1 0x20 SWAP1 PUSH1 0x1F DUP4 GT PUSH1 0x1 EQ PUSH2 0x1783 JUMPI PUSH1 0x0 SWAP3 PUSH2 0x1778 JUMPI JUMPDEST POP POP DUP2 PUSH1 0x1 SHL SWAP2 PUSH1 0x0 NOT SWAP1 PUSH1 0x3 SHL SHR NOT AND OR PUSH1 0x9 DUP3 ADD SSTORE JUMPDEST PUSH2 0x140 DUP3 ADD MLOAD DUP1 MLOAD SWAP1 PUSH1 0x1 PUSH1 0x1 PUSH1 0x40 SHL SUB DUP3 GT PUSH2 0x15E8 JUMPI DUP2 SWAP1 PUSH2 0x1330 DUP3 PUSH2 0x1327 PUSH1 0xA DUP8 ADD SLOAD PUSH2 0x5017 JUMP JUMPDEST PUSH1 0xA DUP8 ADD PUSH2 0x5C99 JUMP JUMPDEST PUSH1 0x20 SWAP1 PUSH1 0x1F DUP4 GT PUSH1 0x1 EQ PUSH2 0x1706 JUMPI PUSH1 0x0 SWAP3 PUSH2 0x16FB JUMPI JUMPDEST POP POP DUP2 PUSH1 0x1 SHL SWAP2 PUSH1 0x0 NOT SWAP1 PUSH1 0x3 SHL SHR NOT AND OR PUSH1 0xA DUP3 ADD SSTORE JUMPDEST PUSH2 0x160 DUP3 ADD MLOAD PUSH1 0xB DUP3 ADD SSTORE PUSH2 0x180 DUP3 ADD MLOAD DUP1 MLOAD SWAP1 PUSH1 0x1 PUSH1 0x1 PUSH1 0x40 SHL SUB DUP3 GT PUSH2 0x15E8 JUMPI DUP2 SWAP1 PUSH2 0x139C DUP3 PUSH2 0x1393 PUSH1 0xC DUP8 ADD SLOAD PUSH2 0x5017 JUMP JUMPDEST PUSH1 0xC DUP8 ADD PUSH2 0x5C99 JUMP JUMPDEST PUSH1 0x20 SWAP1 PUSH1 0x1F DUP4 GT PUSH1 0x1 EQ PUSH2 0x1689 JUMPI PUSH1 0x0 SWAP3 PUSH2 0x167E JUMPI JUMPDEST POP POP DUP2 PUSH1 0x1 SHL SWAP2 PUSH1 0x0 NOT SWAP1 PUSH1 0x3 SHL SHR NOT AND OR PUSH1 0xC DUP3 ADD SSTORE JUMPDEST PUSH2 0x1A0 DUP3 ADD MLOAD DUP1 MLOAD SWAP1 PUSH1 0x1 PUSH1 0x1 PUSH1 0x40 SHL SUB DUP3 GT PUSH2 0x15E8 JUMPI PUSH2 0x13FB DUP3 PUSH2 0x13F2 PUSH1 0xD DUP7 ADD SLOAD PUSH2 0x5017 JUMP JUMPDEST PUSH1 0xD DUP7 ADD PUSH2 0x5C99 JUMP JUMPDEST PUSH1 0x20 SWAP1 PUSH1 0x1F DUP4 GT PUSH1 0x1 EQ PUSH2 0x1608 JUMPI SWAP2 DUP1 PUSH2 0x240 SWAP5 SWAP3 PUSH1 0x10 SWAP5 PUSH1 0x0 SWAP3 PUSH2 0x15FD JUMPI JUMPDEST POP POP DUP2 PUSH1 0x1 SHL SWAP2 PUSH1 0x0 NOT SWAP1 PUSH1 0x3 SHL SHR NOT AND OR PUSH1 0xD DUP3 ADD SSTORE JUMPDEST PUSH2 0x1C0 DUP5 ADD MLOAD PUSH1 0xE DUP3 ADD SSTORE PUSH1 0xF DUP2 ADD PUSH2 0x145F PUSH2 0x1E0 DUP7 ADD MLOAD ISZERO ISZERO DUP3 SWAP1 PUSH1 0xFF DUP1 NOT DUP4 SLOAD AND SWAP2 ISZERO ISZERO AND OR SWAP1 SSTORE JUMP JUMPDEST PUSH2 0x200 DUP6 ADD MLOAD ISZERO ISZERO DUP2 SLOAD PUSH2 0xFF00 PUSH3 0xFF0000 PUSH2 0x220 DUP10 ADD MLOAD ISZERO ISZERO DUP8 SHL AND SWAP3 PUSH1 0x8 SHL AND SWAP1 PUSH3 0xFFFF00 NOT AND OR OR SWAP1 SSTORE ADD SWAP2 ADD MLOAD SWAP1 DUP2 MLOAD SWAP1 PUSH1 0x1 PUSH1 0x40 SHL SWAP3 DUP4 DUP4 GT PUSH2 0x15E8 JUMPI DUP2 SLOAD DUP4 DUP4 SSTORE DUP1 DUP5 LT PUSH2 0x1558 JUMPI JUMPDEST POP PUSH1 0x20 ADD SWAP1 PUSH1 0x0 MSTORE PUSH1 0x20 PUSH1 0x0 KECCAK256 PUSH1 0x0 SWAP2 JUMPDEST DUP4 DUP4 LT PUSH2 0x153A JUMPI POP POP POP POP DUP2 PUSH1 0x0 MSTORE PUSH1 0x13 PUSH1 0x20 MSTORE PUSH1 0x40 PUSH1 0x0 KECCAK256 PUSH1 0x1 PUSH1 0xFF NOT DUP3 SLOAD AND OR SWAP1 SSTORE CALLER PUSH1 0x0 MSTORE PUSH1 0xD PUSH1 0x20 MSTORE PUSH1 0x40 PUSH1 0x0 KECCAK256 DUP1 SLOAD SWAP2 DUP3 LT ISZERO PUSH2 0x1525 JUMPI SWAP1 PUSH2 0x150A SWAP2 PUSH1 0x1 DUP3 ADD DUP2 SSTORE PUSH2 0x5205 JUMP JUMPDEST DUP2 SWAP3 SWAP2 SLOAD SWAP1 PUSH1 0x3 SHL SWAP2 DUP3 SHL SWAP2 PUSH1 0x0 NOT SWAP1 SHL NOT AND OR SWAP1 SSTORE PUSH1 0x0 DUP1 RETURN JUMPDEST DUP4 PUSH4 0x4E487B71 PUSH1 0xE0 SHL PUSH1 0x0 MSTORE PUSH1 0x41 PUSH1 0x4 MSTORE PUSH1 0x0 REVERT JUMPDEST PUSH1 0x5 PUSH1 0x20 DUP3 PUSH2 0x154C PUSH1 0x1 SWAP5 MLOAD DUP7 PUSH2 0x5D70 JUMP JUMPDEST ADD SWAP3 ADD SWAP3 ADD SWAP2 SWAP1 PUSH2 0x14BE JUMP JUMPDEST DUP1 PUSH1 0x5 MUL SWAP1 PUSH1 0x5 DUP3 DIV SUB PUSH2 0x15D3 JUMPI DUP4 PUSH1 0x5 MUL PUSH1 0x5 DUP2 DIV DUP6 SUB PUSH2 0x15BE JUMPI DUP4 PUSH1 0x0 MSTORE PUSH1 0x20 PUSH1 0x0 KECCAK256 SWAP2 DUP3 ADD SWAP2 ADD JUMPDEST DUP2 DUP2 LT PUSH2 0x1590 JUMPI POP PUSH2 0x14AD JUMP JUMPDEST DUP1 PUSH1 0x0 PUSH1 0x5 SWAP3 SSTORE PUSH1 0x0 PUSH1 0x1 DUP3 ADD SSTORE PUSH1 0x0 PUSH1 0x2 DUP3 ADD SSTORE PUSH2 0x15B1 PUSH1 0x3 DUP3 ADD PUSH2 0x5CDE JUMP JUMPDEST PUSH1 0x0 PUSH1 0x4 DUP3 ADD SSTORE ADD PUSH2 0x1583 JUMP JUMPDEST DUP8 PUSH4 0x4E487B71 PUSH1 0xE0 SHL PUSH1 0x0 MSTORE PUSH1 0x11 PUSH1 0x4 MSTORE PUSH1 0x0 REVERT JUMPDEST DUP7 PUSH4 0x4E487B71 PUSH1 0xE0 SHL PUSH1 0x0 MSTORE PUSH1 0x11 PUSH1 0x4 MSTORE PUSH1 0x0 REVERT JUMPDEST DUP6 PUSH4 0x4E487B71 PUSH1 0xE0 SHL PUSH1 0x0 MSTORE PUSH1 0x41 PUSH1 0x4 MSTORE PUSH1 0x0 REVERT JUMPDEST ADD MLOAD SWAP1 POP DUP9 DUP1 PUSH2 0x141B JUMP JUMPDEST SWAP1 PUSH1 0xD DUP5 ADD PUSH1 0x0 MSTORE PUSH1 0x20 PUSH1 0x0 KECCAK256 SWAP2 PUSH1 0x0 JUMPDEST PUSH1 0x1F NOT DUP6 AND DUP2 LT PUSH2 0x1666 JUMPI POP SWAP3 PUSH2 0x240 SWAP5 SWAP3 PUSH1 0x1 SWAP3 PUSH1 0x10 SWAP6 DUP4 PUSH1 0x1F NOT DUP2 AND LT PUSH2 0x164D JUMPI JUMPDEST POP POP POP DUP2 SHL ADD PUSH1 0xD DUP3 ADD SSTORE PUSH2 0x1433 JUMP JUMPDEST ADD MLOAD PUSH1 0x0 NOT PUSH1 0xF8 DUP5 PUSH1 0x3 SHL AND SHR NOT AND SWAP1 SSTORE DUP9 DUP1 DUP1 PUSH2 0x163D JUMP JUMPDEST SWAP2 SWAP3 PUSH1 0x20 PUSH1 0x1 DUP2 SWAP3 DUP7 DUP6 ADD MLOAD DUP2 SSTORE ADD SWAP5 ADD SWAP3 ADD PUSH2 0x1619 JUMP JUMPDEST ADD MLOAD SWAP1 POP DUP7 DUP1 PUSH2 0x13B2 JUMP JUMPDEST SWAP3 POP PUSH1 0xC DUP5 ADD PUSH1 0x0 MSTORE PUSH1 0x20 PUSH1 0x0 KECCAK256 SWAP1 PUSH1 0x0 SWAP4 JUMPDEST PUSH1 0x1F NOT DUP5 AND DUP6 LT PUSH2 0x16E0 JUMPI PUSH1 0x1 SWAP5 POP DUP4 PUSH1 0x1F NOT DUP2 AND LT PUSH2 0x16C7 JUMPI JUMPDEST POP POP POP DUP2 SHL ADD PUSH1 0xC DUP3 ADD SSTORE PUSH2 0x13CA JUMP JUMPDEST ADD MLOAD PUSH1 0x0 NOT PUSH1 0xF8 DUP5 PUSH1 0x3 SHL AND SHR NOT AND SWAP1 SSTORE DUP7 DUP1 DUP1 PUSH2 0x16B7 JUMP JUMPDEST DUP2 DUP2 ADD MLOAD DUP4 SSTORE PUSH1 0x20 SWAP5 DUP6 ADD SWAP5 PUSH1 0x1 SWAP1 SWAP4 ADD SWAP3 SWAP1 SWAP2 ADD SWAP1 PUSH2 0x169C JUMP JUMPDEST ADD MLOAD SWAP1 POP DUP7 DUP1 PUSH2 0x1346 JUMP JUMPDEST SWAP3 POP PUSH1 0xA DUP5 ADD PUSH1 0x0 MSTORE PUSH1 0x20 PUSH1 0x0 KECCAK256 SWAP1 PUSH1 0x0 SWAP4 JUMPDEST PUSH1 0x1F NOT DUP5 AND DUP6 LT PUSH2 0x175D JUMPI PUSH1 0x1 SWAP5 POP DUP4 PUSH1 0x1F NOT DUP2 AND LT PUSH2 0x1744 JUMPI JUMPDEST POP POP POP DUP2 SHL ADD PUSH1 0xA DUP3 ADD SSTORE PUSH2 0x135E JUMP JUMPDEST ADD MLOAD PUSH1 0x0 NOT PUSH1 0xF8 DUP5 PUSH1 0x3 SHL AND SHR NOT AND SWAP1 SSTORE DUP7 DUP1 DUP1 PUSH2 0x1734 JUMP JUMPDEST DUP2 DUP2 ADD MLOAD DUP4 SSTORE PUSH1 0x20 SWAP5 DUP6 ADD SWAP5 PUSH1 0x1 SWAP1 SWAP4 ADD SWAP3 SWAP1 SWAP2 ADD SWAP1 PUSH2 0x1719 JUMP JUMPDEST ADD MLOAD SWAP1 POP DUP7 DUP1 PUSH2 0x12E5 JUMP JUMPDEST SWAP3 POP PUSH1 0x9 DUP5 ADD PUSH1 0x0 MSTORE PUSH1 0x20 PUSH1 0x0 KECCAK256 SWAP1 PUSH1 0x0 SWAP4 JUMPDEST PUSH1 0x1F NOT DUP5 AND DUP6 LT PUSH2 0x17DA JUMPI PUSH1 0x1 SWAP5 POP DUP4 PUSH1 0x1F NOT DUP2 AND LT PUSH2 0x17C1 JUMPI JUMPDEST POP POP POP DUP2 SHL ADD PUSH1 0x9 DUP3 ADD SSTORE PUSH2 0x12FD JUMP JUMPDEST ADD MLOAD PUSH1 0x0 NOT PUSH1 0xF8 DUP5 PUSH1 0x3 SHL AND SHR NOT AND SWAP1 SSTORE DUP7 DUP1 DUP1 PUSH2 0x17B1 JUMP JUMPDEST DUP2 DUP2 ADD MLOAD DUP4 SSTORE PUSH1 0x20 SWAP5 DUP6 ADD SWAP5 PUSH1 0x1 SWAP1 SWAP4 ADD SWAP3 SWAP1 SWAP2 ADD SWAP1 PUSH2 0x1796 JUMP JUMPDEST DUP1 MLOAD DUP1 MLOAD SWAP1 PUSH1 0x1 PUSH1 0x1 PUSH1 0x40 SHL SUB DUP3 GT PUSH2 0x18D8 JUMPI PUSH2 0x181C DUP3 PUSH2 0x1816 DUP7 SLOAD PUSH2 0x5017 JUMP JUMPDEST DUP7 PUSH2 0x5C99 JUMP JUMPDEST PUSH1 0x20 SWAP1 PUSH1 0x1F DUP4 GT PUSH1 0x1 EQ PUSH2 0x1868 JUMPI SWAP3 DUP3 PUSH1 0x1 SWAP5 SWAP4 PUSH1 0x20 SWAP4 DUP7 SWAP6 PUSH1 0x0 SWAP3 PUSH2 0x185D JUMPI JUMPDEST POP POP PUSH1 0x0 NOT PUSH1 0x3 DUP4 SWAP1 SHL SHR NOT AND SWAP1 DUP5 SHL OR DUP6 SSTORE JUMPDEST ADD SWAP3 ADD SWAP3 ADD SWAP2 SWAP1 PUSH2 0x1291 JUMP JUMPDEST ADD MLOAD SWAP1 POP DUP14 DUP1 PUSH2 0x183D JUMP JUMPDEST SWAP1 DUP5 PUSH1 0x0 MSTORE PUSH1 0x20 PUSH1 0x0 KECCAK256 SWAP2 PUSH1 0x0 JUMPDEST PUSH1 0x1F NOT DUP6 AND DUP2 LT PUSH2 0x18C0 JUMPI POP DUP4 PUSH1 0x20 SWAP4 PUSH1 0x1 SWAP7 SWAP4 DUP8 SWAP7 SWAP4 DUP8 SWAP5 PUSH1 0x1F NOT DUP2 AND LT PUSH2 0x18A7 JUMPI JUMPDEST POP POP POP DUP2 SHL ADD DUP6 SSTORE PUSH2 0x1851 JUMP JUMPDEST ADD MLOAD PUSH1 0x0 NOT PUSH1 0xF8 DUP5 PUSH1 0x3 SHL AND SHR NOT AND SWAP1 SSTORE DUP14 DUP1 DUP1 PUSH2 0x189A JUMP JUMPDEST SWAP2 SWAP3 PUSH1 0x20 PUSH1 0x1 DUP2 SWAP3 DUP7 DUP6 ADD MLOAD DUP2 SSTORE ADD SWAP5 ADD SWAP3 ADD PUSH2 0x1876 JUMP JUMPDEST DUP10 PUSH4 0x4E487B71 PUSH1 0xE0 SHL PUSH1 0x0 MSTORE PUSH1 0x41 PUSH1 0x4 MSTORE PUSH1 0x0 REVERT JUMPDEST ADD MLOAD SWAP1 POP DUP7 DUP1 PUSH2 0x1251 JUMP JUMPDEST SWAP3 POP PUSH1 0x7 DUP5 ADD PUSH1 0x0 MSTORE PUSH1 0x20 PUSH1 0x0 KECCAK256 SWAP1 PUSH1 0x0 SWAP4 JUMPDEST PUSH1 0x1F NOT DUP5 AND DUP6 LT PUSH2 0x194F JUMPI PUSH1 0x1 SWAP5 POP DUP4 PUSH1 0x1F NOT DUP2 AND LT PUSH2 0x1936 JUMPI JUMPDEST POP POP POP DUP2 SHL ADD PUSH1 0x7 DUP3 ADD SSTORE PUSH2 0x1269 JUMP JUMPDEST ADD MLOAD PUSH1 0x0 NOT PUSH1 0xF8 DUP5 PUSH1 0x3 SHL AND SHR NOT AND SWAP1 SSTORE DUP7 DUP1 DUP1 PUSH2 0x1926 JUMP JUMPDEST DUP2 DUP2 ADD MLOAD DUP4 SSTORE PUSH1 0x20 SWAP5 DUP6 ADD SWAP5 PUSH1 0x1 SWAP1 SWAP4 ADD SWAP3 SWAP1 SWAP2 ADD SWAP1 PUSH2 0x190B JUMP JUMPDEST ADD MLOAD SWAP1 POP DUP7 DUP1 PUSH2 0x11F1 JUMP JUMPDEST SWAP3 POP PUSH1 0x6 DUP5 ADD PUSH1 0x0 MSTORE PUSH1 0x20 PUSH1 0x0 KECCAK256 SWAP1 PUSH1 0x0 SWAP4 JUMPDEST PUSH1 0x1F NOT DUP5 AND DUP6 LT PUSH2 0x19CC JUMPI PUSH1 0x1 SWAP5 POP DUP4 PUSH1 0x1F NOT DUP2 AND LT PUSH2 0x19B3 JUMPI JUMPDEST POP POP POP DUP2 SHL ADD PUSH1 0x6 DUP3 ADD SSTORE PUSH2 0x1209 JUMP JUMPDEST ADD MLOAD PUSH1 0x0 NOT PUSH1 0xF8 DUP5 PUSH1 0x3 SHL AND SHR NOT AND SWAP1 SSTORE DUP7 DUP1 DUP1 PUSH2 0x19A3 JUMP JUMPDEST DUP2 DUP2 ADD MLOAD DUP4 SSTORE PUSH1 0x20 SWAP5 DUP6 ADD SWAP5 PUSH1 0x1 SWAP1 SWAP4 ADD SWAP3 SWAP1 SWAP2 ADD SWAP1 PUSH2 0x1988 JUMP JUMPDEST ADD MLOAD SWAP1 POP DUP7 DUP1 PUSH2 0x117D JUMP JUMPDEST SWAP3 POP PUSH1 0x3 DUP5 ADD PUSH1 0x0 MSTORE PUSH1 0x20 PUSH1 0x0 KECCAK256 SWAP1 PUSH1 0x0 SWAP4 JUMPDEST PUSH1 0x1F NOT DUP5 AND DUP6 LT PUSH2 0x1A49 JUMPI PUSH1 0x1 SWAP5 POP DUP4 PUSH1 0x1F NOT DUP2 AND LT PUSH2 0x1A30 JUMPI JUMPDEST POP POP POP DUP2 SHL ADD PUSH1 0x3 DUP3 ADD SSTORE PUSH2 0x1195 JUMP JUMPDEST ADD MLOAD PUSH1 0x0 NOT PUSH1 0xF8 DUP5 PUSH1 0x3 SHL AND SHR NOT AND SWAP1 SSTORE DUP7 DUP1 DUP1 PUSH2 0x1A20 JUMP JUMPDEST DUP2 DUP2 ADD MLOAD DUP4 SSTORE PUSH1 0x20 SWAP5 DUP6 ADD SWAP5 PUSH1 0x1 SWAP1 SWAP4 ADD SWAP3 SWAP1 SWAP2 ADD SWAP1 PUSH2 0x1A05 JUMP JUMPDEST ADD MLOAD SWAP1 POP DUP7 DUP1 PUSH2 0x111D JUMP JUMPDEST SWAP3 POP PUSH1 0x2 DUP5 ADD PUSH1 0x0 MSTORE PUSH1 0x20 PUSH1 0x0 KECCAK256 SWAP1 PUSH1 0x0 SWAP4 JUMPDEST PUSH1 0x1F NOT DUP5 AND DUP6 LT PUSH2 0x1AC6 JUMPI PUSH1 0x1 SWAP5 POP DUP4 PUSH1 0x1F NOT DUP2 AND LT PUSH2 0x1AAD JUMPI JUMPDEST POP POP POP DUP2 SHL ADD PUSH1 0x2 DUP3 ADD SSTORE PUSH2 0x1135 JUMP JUMPDEST ADD MLOAD PUSH1 0x0 NOT PUSH1 0xF8 DUP5 PUSH1 0x3 SHL AND SHR NOT AND SWAP1 SSTORE DUP7 DUP1 DUP1 PUSH2 0x1A9D JUMP JUMPDEST DUP2 DUP2 ADD MLOAD DUP4 SSTORE PUSH1 0x20 SWAP5 DUP6 ADD SWAP5 PUSH1 0x1 SWAP1 SWAP4 ADD SWAP3 SWAP1 SWAP2 ADD SWAP1 PUSH2 0x1A82 JUMP JUMPDEST PUSH1 0x40 MLOAD PUSH3 0x461BCD PUSH1 0xE5 SHL DUP2 MSTORE PUSH1 0x20 PUSH1 0x4 DUP3 ADD DUP2 SWAP1 MSTORE DUP2 DUP6 ADD MSTORE PUSH32 0x4552433732313A206D696E7420746F20746865207A65726F2061646472657373 PUSH1 0x44 DUP3 ADD MSTORE PUSH1 0x64 SWAP1 REVERT JUMPDEST PUSH1 0x1 PUSH1 0x1 PUSH1 0x40 SHL SUB DUP5 CALLDATALOAD GT PUSH2 0x507 JUMPI PUSH1 0x20 DUP1 SWAP2 PUSH2 0x1B45 CALLDATASIZE DUP8 CALLDATALOAD DUP7 ADD PUSH2 0x4E4E JUMP JUMPDEST DUP2 MSTORE ADD SWAP4 ADD SWAP3 PUSH2 0xF53 JUMP JUMPDEST POP PUSH1 0x0 SLOAD PUSH1 0x1 PUSH1 0x1 PUSH1 0xA0 SHL SUB AND CALLER EQ PUSH2 0xCDF JUMP JUMPDEST CALLVALUE PUSH2 0x507 JUMPI PUSH1 0x3 NOT PUSH1 0x40 CALLDATASIZE DUP3 ADD SLT PUSH2 0x507 JUMPI PUSH1 0x1 PUSH1 0x1 PUSH1 0x40 SHL SUB PUSH1 0x24 CALLDATALOAD GT PUSH2 0x507 JUMPI PUSH2 0x1A0 SWAP1 PUSH1 0x24 CALLDATALOAD CALLDATASIZE SUB ADD SLT PUSH2 0x507 JUMPI CALLER PUSH1 0x0 MSTORE PUSH1 0xF PUSH1 0x20 MSTORE PUSH1 0xFF PUSH1 0x40 PUSH1 0x0 KECCAK256 SLOAD AND PUSH1 0x4 DUP2 LT ISZERO PUSH2 0x74E JUMPI PUSH1 0x2 EQ DUP1 ISZERO PUSH2 0x2677 JUMPI JUMPDEST PUSH2 0x1BC3 SWAP1 PUSH2 0x5727 JUMP JUMPDEST PUSH1 0x4 CALLDATALOAD PUSH1 0x0 MSTORE PUSH1 0xC PUSH1 0x20 MSTORE CALLER PUSH1 0x1 DUP1 PUSH1 0xA0 SHL SUB PUSH1 0x1 PUSH1 0x40 PUSH1 0x0 KECCAK256 ADD SLOAD AND SUB PUSH2 0x2621 JUMPI PUSH1 0x4 CALLDATALOAD PUSH1 0x0 MSTORE PUSH1 0x13 PUSH1 0x20 MSTORE PUSH2 0x1C01 PUSH1 0xFF PUSH1 0x40 PUSH1 0x0 KECCAK256 SLOAD AND PUSH2 0x5EE6 JUMP JUMPDEST PUSH1 0x4 CALLDATALOAD PUSH1 0x0 MSTORE PUSH1 0xC PUSH1 0x20 MSTORE PUSH2 0x1C24 PUSH1 0xFF PUSH1 0xF PUSH1 0x40 PUSH1 0x0 KECCAK256 ADD SLOAD PUSH1 0x10 SHR AND ISZERO PUSH2 0x5F2B JUMP JUMPDEST PUSH2 0x1C36 PUSH2 0xCF9 PUSH1 0x4 PUSH1 0x24 CALLDATALOAD ADD DUP1 PUSH2 0x5781 JUMP JUMPDEST PUSH2 0x1C4C PUSH2 0xD1A PUSH1 0x24 DUP1 CALLDATALOAD ADD PUSH1 0x24 CALLDATALOAD PUSH1 0x4 ADD PUSH2 0x5781 JUMP JUMPDEST PUSH2 0x1C5D PUSH1 0x44 PUSH1 0x24 CALLDATALOAD ADD CALLDATALOAD ISZERO ISZERO PUSH2 0x5842 JUMP JUMPDEST PUSH2 0x1C74 PUSH2 0xD7C PUSH1 0xC4 PUSH1 0x24 CALLDATALOAD ADD PUSH1 0x24 CALLDATALOAD PUSH1 0x4 ADD PUSH2 0x591E JUMP JUMPDEST PUSH2 0x1C8D PUSH1 0x5 PUSH2 0xD9E PUSH1 0xC4 PUSH1 0x24 CALLDATALOAD ADD PUSH1 0x24 CALLDATALOAD PUSH1 0x4 ADD PUSH2 0x591E JUMP JUMPDEST PUSH2 0x1C9E PUSH1 0x64 PUSH1 0x24 CALLDATALOAD ADD CALLDATALOAD ISZERO ISZERO PUSH2 0x588E JUMP JUMPDEST PUSH2 0x1CB5 PUSH2 0xD5C PUSH1 0x84 PUSH1 0x24 CALLDATALOAD ADD PUSH1 0x24 CALLDATALOAD PUSH1 0x4 ADD PUSH2 0x5781 JUMP JUMPDEST PUSH2 0x1CCC PUSH2 0xDBD PUSH1 0xA4 PUSH1 0x24 CALLDATALOAD ADD PUSH1 0x24 CALLDATALOAD PUSH1 0x4 ADD PUSH2 0x5781 JUMP JUMPDEST PUSH2 0x1CE3 PUSH2 0xDDD PUSH1 0xE4 PUSH1 0x24 CALLDATALOAD ADD PUSH1 0x24 CALLDATALOAD PUSH1 0x4 ADD PUSH2 0x5781 JUMP JUMPDEST PUSH2 0x1CFB PUSH2 0xDFE PUSH2 0x104 PUSH1 0x24 CALLDATALOAD ADD PUSH1 0x24 CALLDATALOAD PUSH1 0x4 ADD PUSH2 0x5781 JUMP JUMPDEST PUSH2 0x1D13 PUSH2 0xE1F PUSH2 0x124 PUSH1 0x24 CALLDATALOAD ADD PUSH1 0x24 CALLDATALOAD PUSH1 0x4 ADD PUSH2 0x5781 JUMP JUMPDEST PUSH2 0x1D2B PUSH2 0xE40 PUSH2 0x144 PUSH1 0x24 CALLDATALOAD ADD PUSH1 0x24 CALLDATALOAD PUSH1 0x4 ADD PUSH2 0x5781 JUMP JUMPDEST PUSH2 0x1D3D PUSH2 0x164 PUSH1 0x24 CALLDATALOAD ADD CALLDATALOAD ISZERO ISZERO PUSH2 0x5B47 JUMP JUMPDEST PUSH2 0x1D4F PUSH2 0x184 PUSH1 0x24 CALLDATALOAD ADD CALLDATALOAD ISZERO ISZERO PUSH2 0x5B93 JUMP JUMPDEST PUSH2 0x1D5E PUSH1 0x4 PUSH1 0x24 CALLDATALOAD ADD DUP1 PUSH2 0x5781 JUMP JUMPDEST PUSH1 0x4 CALLDATALOAD PUSH1 0x0 MSTORE PUSH1 0xC PUSH1 0x20 MSTORE PUSH1 0x2 PUSH1 0x40 PUSH1 0x0 KECCAK256 ADD SWAP1 PUSH1 0x1 PUSH1 0x1 PUSH1 0x40 SHL SUB DUP2 GT PUSH2 0x21EF JUMPI PUSH2 0x1D94 DUP2 PUSH2 0x1D8E DUP5 SLOAD PUSH2 0x5017 JUMP JUMPDEST DUP5 PUSH2 0x5C99 JUMP JUMPDEST PUSH1 0x0 SWAP3 PUSH1 0x1F DUP3 GT PUSH1 0x1 EQ PUSH2 0x25B8 JUMPI SWAP3 DUP2 SWAP3 SWAP4 PUSH1 0x0 SWAP3 PUSH2 0x25AD JUMPI JUMPDEST POP POP DUP2 PUSH1 0x1 SHL SWAP2 PUSH1 0x0 NOT SWAP1 PUSH1 0x3 SHL SHR NOT AND OR SWAP1 SSTORE JUMPDEST PUSH2 0x1DD6 PUSH1 0x24 DUP1 CALLDATALOAD ADD PUSH1 0x24 CALLDATALOAD PUSH1 0x4 ADD PUSH2 0x5781 JUMP JUMPDEST PUSH1 0x4 CALLDATALOAD PUSH1 0x0 MSTORE PUSH1 0xC PUSH1 0x20 MSTORE PUSH1 0x3 PUSH1 0x40 PUSH1 0x0 KECCAK256 ADD SWAP1 PUSH1 0x1 PUSH1 0x1 PUSH1 0x40 SHL SUB DUP2 GT PUSH2 0x21EF JUMPI PUSH2 0x1E06 DUP2 PUSH2 0x1D8E DUP5 SLOAD PUSH2 0x5017 JUMP JUMPDEST PUSH1 0x0 SWAP3 PUSH1 0x1F DUP3 GT PUSH1 0x1 EQ PUSH2 0x2544 JUMPI SWAP3 DUP2 SWAP3 SWAP4 PUSH1 0x0 SWAP3 PUSH2 0x2539 JUMPI JUMPDEST POP POP DUP2 PUSH1 0x1 SHL SWAP2 PUSH1 0x0 NOT SWAP1 PUSH1 0x3 SHL SHR NOT AND OR SWAP1 SSTORE JUMPDEST PUSH1 0x4 CALLDATALOAD PUSH1 0x0 MSTORE PUSH1 0xC PUSH1 0x20 MSTORE PUSH1 0x40 PUSH1 0x0 KECCAK256 PUSH1 0x44 PUSH1 0x24 CALLDATALOAD ADD CALLDATALOAD PUSH1 0x4 DUP3 ADD SSTORE PUSH1 0x64 PUSH1 0x24 CALLDATALOAD ADD CALLDATALOAD PUSH1 0x5 DUP3 ADD SSTORE PUSH2 0x1E71 PUSH1 0x84 PUSH1 0x24 CALLDATALOAD ADD PUSH1 0x24 CALLDATALOAD PUSH1 0x4 ADD PUSH2 0x5781 JUMP JUMPDEST SWAP1 PUSH1 0x1 PUSH1 0x1 PUSH1 0x40 SHL SUB DUP3 GT PUSH2 0x21EF JUMPI PUSH2 0x1E9A DUP3 PUSH2 0x1E91 PUSH1 0x6 DUP7 ADD SLOAD PUSH2 0x5017 JUMP JUMPDEST PUSH1 0x6 DUP7 ADD PUSH2 0x5C99 JUMP JUMPDEST PUSH1 0x0 SWAP1 PUSH1 0x1F DUP4 GT PUSH1 0x1 EQ PUSH2 0x24C9 JUMPI PUSH1 0x6 SWAP3 SWAP2 PUSH1 0x0 SWAP2 DUP4 PUSH2 0x24BE JUMPI JUMPDEST POP POP DUP2 PUSH1 0x1 SHL SWAP2 PUSH1 0x0 NOT SWAP1 PUSH1 0x3 SHL SHR NOT AND OR SWAP2 ADD SSTORE JUMPDEST PUSH2 0x1EDF PUSH1 0xA4 PUSH1 0x24 CALLDATALOAD ADD PUSH1 0x24 CALLDATALOAD PUSH1 0x4 ADD PUSH2 0x5781 JUMP JUMPDEST PUSH1 0x4 CALLDATALOAD PUSH1 0x0 MSTORE PUSH1 0xC PUSH1 0x20 MSTORE PUSH1 0x7 PUSH1 0x40 PUSH1 0x0 KECCAK256 ADD SWAP1 PUSH1 0x1 PUSH1 0x1 PUSH1 0x40 SHL SUB DUP2 GT PUSH2 0x21EF JUMPI PUSH2 0x1F0F DUP2 PUSH2 0x1D8E DUP5 SLOAD PUSH2 0x5017 JUMP JUMPDEST PUSH1 0x0 SWAP3 PUSH1 0x1F DUP3 GT PUSH1 0x1 EQ PUSH2 0x2455 JUMPI SWAP3 DUP2 SWAP3 SWAP4 PUSH1 0x0 SWAP3 PUSH2 0x244A JUMPI JUMPDEST POP POP DUP2 PUSH1 0x1 SHL SWAP2 PUSH1 0x0 NOT SWAP1 PUSH1 0x3 SHL SHR NOT AND OR SWAP1 SSTORE JUMPDEST PUSH2 0x1F52 PUSH1 0xC4 PUSH1 0x24 CALLDATALOAD ADD PUSH1 0x24 CALLDATALOAD PUSH1 0x4 ADD PUSH2 0x591E JUMP JUMPDEST PUSH1 0x4 CALLDATALOAD PUSH1 0x0 MSTORE PUSH1 0xC PUSH1 0x20 MSTORE PUSH1 0x8 PUSH1 0x40 PUSH1 0x0 KECCAK256 ADD SWAP2 PUSH2 0x1F70 DUP3 DUP5 PUSH2 0x5D27 JUMP JUMPDEST PUSH1 0x0 SWAP3 DUP4 MSTORE PUSH1 0x20 DUP4 KECCAK256 SWAP1 DUP1 JUMPDEST DUP4 DUP6 LT PUSH2 0x2361 JUMPI PUSH2 0x1F97 PUSH1 0xE4 PUSH1 0x24 CALLDATALOAD ADD PUSH1 0x24 CALLDATALOAD PUSH1 0x4 ADD PUSH2 0x5781 JUMP JUMPDEST PUSH1 0x4 CALLDATALOAD PUSH1 0x0 MSTORE PUSH1 0xC PUSH1 0x20 MSTORE PUSH1 0x9 PUSH1 0x40 PUSH1 0x0 KECCAK256 ADD SWAP1 PUSH1 0x1 PUSH1 0x1 PUSH1 0x40 SHL SUB DUP2 GT PUSH2 0x21EF JUMPI PUSH2 0x1FC7 DUP2 PUSH2 0x1D8E DUP5 SLOAD PUSH2 0x5017 JUMP JUMPDEST PUSH1 0x0 SWAP3 PUSH1 0x1F DUP3 GT PUSH1 0x1 EQ PUSH2 0x22F8 JUMPI SWAP3 DUP2 SWAP3 SWAP4 PUSH1 0x0 SWAP3 PUSH2 0x22ED JUMPI JUMPDEST POP POP DUP2 PUSH1 0x1 SHL SWAP2 PUSH1 0x0 NOT SWAP1 PUSH1 0x3 SHL SHR NOT AND OR SWAP1 SSTORE JUMPDEST PUSH2 0x200B PUSH2 0x104 PUSH1 0x24 CALLDATALOAD ADD PUSH1 0x24 CALLDATALOAD PUSH1 0x4 ADD PUSH2 0x5781 JUMP JUMPDEST PUSH1 0x4 CALLDATALOAD PUSH1 0x0 MSTORE PUSH1 0xC PUSH1 0x20 MSTORE PUSH1 0xA PUSH1 0x40 PUSH1 0x0 KECCAK256 ADD SWAP1 PUSH1 0x1 PUSH1 0x1 PUSH1 0x40 SHL SUB DUP2 GT PUSH2 0x21EF JUMPI PUSH2 0x203B DUP2 PUSH2 0x1D8E DUP5 SLOAD PUSH2 0x5017 JUMP JUMPDEST PUSH1 0x0 SWAP3 PUSH1 0x1F DUP3 GT PUSH1 0x1 EQ PUSH2 0x2284 JUMPI SWAP3 DUP2 SWAP3 SWAP4 PUSH1 0x0 SWAP3 PUSH2 0x2279 JUMPI JUMPDEST POP POP DUP2 PUSH1 0x1 SHL SWAP2 PUSH1 0x0 NOT SWAP1 PUSH1 0x3 SHL SHR NOT AND OR SWAP1 SSTORE JUMPDEST PUSH2 0x207F PUSH2 0x124 PUSH1 0x24 CALLDATALOAD ADD PUSH1 0x24 CALLDATALOAD PUSH1 0x4 ADD PUSH2 0x5781 JUMP JUMPDEST PUSH1 0x4 CALLDATALOAD PUSH1 0x0 MSTORE PUSH1 0xC PUSH1 0x20 MSTORE PUSH1 0xC PUSH1 0x40 PUSH1 0x0 KECCAK256 ADD SWAP1 PUSH1 0x1 PUSH1 0x1 PUSH1 0x40 SHL SUB DUP2 GT PUSH2 0x21EF JUMPI PUSH2 0x20AF DUP2 PUSH2 0x1D8E DUP5 SLOAD PUSH2 0x5017 JUMP JUMPDEST PUSH1 0x0 SWAP3 PUSH1 0x1F DUP3 GT PUSH1 0x1 EQ PUSH2 0x2210 JUMPI SWAP3 DUP2 SWAP3 SWAP4 PUSH1 0x0 SWAP3 PUSH2 0x2205 JUMPI JUMPDEST POP POP DUP2 PUSH1 0x1 SHL SWAP2 PUSH1 0x0 NOT SWAP1 PUSH1 0x3 SHL SHR NOT AND OR SWAP1 SSTORE JUMPDEST PUSH2 0x20F3 PUSH2 0x144 PUSH1 0x24 CALLDATALOAD ADD PUSH1 0x24 CALLDATALOAD PUSH1 0x4 ADD PUSH2 0x5781 JUMP JUMPDEST PUSH1 0x4 CALLDATALOAD PUSH1 0x0 MSTORE PUSH1 0xC PUSH1 0x20 MSTORE PUSH1 0xD PUSH1 0x40 PUSH1 0x0 KECCAK256 ADD SWAP1 PUSH1 0x1 PUSH1 0x1 PUSH1 0x40 SHL SUB DUP2 GT PUSH2 0x21EF JUMPI PUSH2 0x2123 DUP2 PUSH2 0x1D8E DUP5 SLOAD PUSH2 0x5017 JUMP JUMPDEST PUSH1 0x0 PUSH1 0x1F DUP3 GT PUSH1 0x1 EQ PUSH2 0x218A JUMPI DUP2 SWAP3 SWAP4 PUSH1 0x0 SWAP3 PUSH2 0x217F JUMPI JUMPDEST POP POP DUP2 PUSH1 0x1 SHL SWAP2 PUSH1 0x0 NOT SWAP1 PUSH1 0x3 SHL SHR NOT AND OR SWAP1 SSTORE JUMPDEST PUSH1 0x4 CALLDATALOAD PUSH1 0x0 MSTORE PUSH1 0xC PUSH1 0x20 MSTORE PUSH1 0x40 PUSH1 0x0 KECCAK256 PUSH2 0x164 PUSH1 0x24 CALLDATALOAD ADD CALLDATALOAD PUSH1 0xB DUP3 ADD SSTORE PUSH1 0xE PUSH2 0x184 PUSH1 0x24 CALLDATALOAD ADD CALLDATALOAD SWAP2 ADD SSTORE PUSH1 0x0 DUP1 RETURN JUMPDEST ADD CALLDATALOAD SWAP1 POP DUP4 DUP1 PUSH2 0x213B JUMP JUMPDEST PUSH1 0x1F NOT DUP3 AND SWAP4 DUP4 PUSH1 0x0 MSTORE PUSH1 0x20 PUSH1 0x0 KECCAK256 SWAP2 PUSH1 0x0 JUMPDEST DUP7 DUP2 LT PUSH2 0x21D7 JUMPI POP DUP4 PUSH1 0x1 SWAP6 SWAP7 LT PUSH2 0x21BD JUMPI JUMPDEST POP POP POP DUP2 SHL ADD SWAP1 SSTORE PUSH2 0x2150 JUMP JUMPDEST ADD CALLDATALOAD PUSH1 0x0 NOT PUSH1 0x3 DUP5 SWAP1 SHL PUSH1 0xF8 AND SHR NOT AND SWAP1 SSTORE DUP4 DUP1 DUP1 PUSH2 0x21B0 JUMP JUMPDEST SWAP1 SWAP3 PUSH1 0x20 PUSH1 0x1 DUP2 SWAP3 DUP7 DUP7 ADD CALLDATALOAD DUP2 SSTORE ADD SWAP5 ADD SWAP2 ADD PUSH2 0x219D JUMP JUMPDEST PUSH4 0x4E487B71 PUSH1 0xE0 SHL PUSH1 0x0 MSTORE PUSH1 0x41 PUSH1 0x4 MSTORE PUSH1 0x24 PUSH1 0x0 REVERT JUMPDEST ADD CALLDATALOAD SWAP1 POP DUP4 DUP1 PUSH2 0x20C9 JUMP JUMPDEST DUP3 PUSH1 0x0 MSTORE PUSH1 0x20 PUSH1 0x0 KECCAK256 SWAP1 PUSH1 0x0 SWAP5 JUMPDEST PUSH1 0x1F NOT DUP5 AND DUP7 LT PUSH2 0x2261 JUMPI PUSH1 0x1 SWAP5 SWAP6 POP DUP4 PUSH1 0x1F NOT DUP2 AND LT PUSH2 0x2247 JUMPI JUMPDEST POP POP POP DUP2 SHL ADD SWAP1 SSTORE PUSH2 0x20DE JUMP JUMPDEST ADD CALLDATALOAD PUSH1 0x0 NOT PUSH1 0x3 DUP5 SWAP1 SHL PUSH1 0xF8 AND SHR NOT AND SWAP1 SSTORE DUP4 DUP1 DUP1 PUSH2 0x223A JUMP JUMPDEST SWAP2 PUSH1 0x20 PUSH1 0x1 DUP2 SWAP3 DUP6 DUP6 ADD CALLDATALOAD DUP2 SSTORE ADD SWAP4 ADD SWAP6 ADD SWAP5 PUSH2 0x221E JUMP JUMPDEST ADD CALLDATALOAD SWAP1 POP DUP4 DUP1 PUSH2 0x2055 JUMP JUMPDEST DUP3 PUSH1 0x0 MSTORE PUSH1 0x20 PUSH1 0x0 KECCAK256 SWAP1 PUSH1 0x0 SWAP5 JUMPDEST PUSH1 0x1F NOT DUP5 AND DUP7 LT PUSH2 0x22D5 JUMPI PUSH1 0x1 SWAP5 SWAP6 POP DUP4 PUSH1 0x1F NOT DUP2 AND LT PUSH2 0x22BB JUMPI JUMPDEST POP POP POP DUP2 SHL ADD SWAP1 SSTORE PUSH2 0x206A JUMP JUMPDEST ADD CALLDATALOAD PUSH1 0x0 NOT PUSH1 0x3 DUP5 SWAP1 SHL PUSH1 0xF8 AND SHR NOT AND SWAP1 SSTORE DUP4 DUP1 DUP1 PUSH2 0x22AE JUMP JUMPDEST SWAP2 PUSH1 0x20 PUSH1 0x1 DUP2 SWAP3 DUP6 DUP6 ADD CALLDATALOAD DUP2 SSTORE ADD SWAP4 ADD SWAP6 ADD SWAP5 PUSH2 0x2292 JUMP JUMPDEST ADD CALLDATALOAD SWAP1 POP DUP4 DUP1 PUSH2 0x1FE1 JUMP JUMPDEST DUP3 PUSH1 0x0 MSTORE PUSH1 0x20 PUSH1 0x0 KECCAK256 SWAP1 PUSH1 0x0 SWAP5 JUMPDEST PUSH1 0x1F NOT DUP5 AND DUP7 LT PUSH2 0x2349 JUMPI PUSH1 0x1 SWAP5 SWAP6 POP DUP4 PUSH1 0x1F NOT DUP2 AND LT PUSH2 0x232F JUMPI JUMPDEST POP POP POP DUP2 SHL ADD SWAP1 SSTORE PUSH2 0x1FF6 JUMP JUMPDEST ADD CALLDATALOAD PUSH1 0x0 NOT PUSH1 0x3 DUP5 SWAP1 SHL PUSH1 0xF8 AND SHR NOT AND SWAP1 SSTORE DUP4 DUP1 DUP1 PUSH2 0x2322 JUMP JUMPDEST SWAP2 PUSH1 0x20 PUSH1 0x1 DUP2 SWAP3 DUP6 DUP6 ADD CALLDATALOAD DUP2 SSTORE ADD SWAP4 ADD SWAP6 ADD SWAP5 PUSH2 0x2306 JUMP JUMPDEST PUSH2 0x236B DUP2 DUP4 PUSH2 0x5781 JUMP JUMPDEST SWAP1 PUSH1 0x1 PUSH1 0x1 PUSH1 0x40 SHL SUB DUP3 GT PUSH2 0x21EF JUMPI PUSH2 0x238E DUP3 PUSH2 0x2388 DUP8 SLOAD PUSH2 0x5017 JUMP JUMPDEST DUP8 PUSH2 0x5C99 JUMP JUMPDEST PUSH1 0x0 SWAP1 PUSH1 0x1F DUP4 GT PUSH1 0x1 EQ PUSH2 0x23DA JUMPI SWAP3 DUP3 PUSH1 0x1 SWAP5 SWAP4 PUSH1 0x20 SWAP4 DUP7 SWAP6 PUSH1 0x0 SWAP3 PUSH2 0x23CF JUMPI JUMPDEST POP POP PUSH1 0x0 NOT PUSH1 0x3 DUP4 SWAP1 SHL SHR NOT AND SWAP1 DUP5 SHL OR DUP7 SSTORE JUMPDEST ADD SWAP4 ADD SWAP5 ADD SWAP4 SWAP2 PUSH2 0x1F7C JUMP JUMPDEST ADD CALLDATALOAD SWAP1 POP DUP11 DUP1 PUSH2 0x23AF JUMP JUMPDEST DUP6 PUSH1 0x0 MSTORE PUSH1 0x20 PUSH1 0x0 KECCAK256 SWAP2 PUSH1 0x0 JUMPDEST PUSH1 0x1F NOT DUP6 AND DUP2 LT PUSH2 0x2432 JUMPI POP DUP4 PUSH1 0x20 SWAP4 PUSH1 0x1 SWAP7 SWAP4 DUP8 SWAP7 SWAP4 DUP8 SWAP5 PUSH1 0x1F NOT DUP2 AND LT PUSH2 0x2418 JUMPI JUMPDEST POP POP POP DUP2 SHL ADD DUP7 SSTORE PUSH2 0x23C3 JUMP JUMPDEST ADD CALLDATALOAD PUSH1 0x0 NOT PUSH1 0x3 DUP5 SWAP1 SHL PUSH1 0xF8 AND SHR NOT AND SWAP1 SSTORE DUP11 DUP1 DUP1 PUSH2 0x240B JUMP JUMPDEST SWAP1 SWAP3 PUSH1 0x20 PUSH1 0x1 DUP2 SWAP3 DUP7 DUP7 ADD CALLDATALOAD DUP2 SSTORE ADD SWAP5 ADD SWAP2 ADD PUSH2 0x23E7 JUMP JUMPDEST ADD CALLDATALOAD SWAP1 POP DUP4 DUP1 PUSH2 0x1F29 JUMP JUMPDEST DUP3 PUSH1 0x0 MSTORE PUSH1 0x20 PUSH1 0x0 KECCAK256 SWAP1 PUSH1 0x0 SWAP5 JUMPDEST PUSH1 0x1F NOT DUP5 AND DUP7 LT PUSH2 0x24A6 JUMPI PUSH1 0x1 SWAP5 SWAP6 POP DUP4 PUSH1 0x1F NOT DUP2 AND LT PUSH2 0x248C JUMPI JUMPDEST POP POP POP DUP2 SHL ADD SWAP1 SSTORE PUSH2 0x1F3E JUMP JUMPDEST ADD CALLDATALOAD PUSH1 0x0 NOT PUSH1 0x3 DUP5 SWAP1 SHL PUSH1 0xF8 AND SHR NOT AND SWAP1 SSTORE DUP4 DUP1 DUP1 PUSH2 0x247F JUMP JUMPDEST SWAP2 PUSH1 0x20 PUSH1 0x1 DUP2 SWAP3 DUP6 DUP6 ADD CALLDATALOAD DUP2 SSTORE ADD SWAP4 ADD SWAP6 ADD SWAP5 PUSH2 0x2463 JUMP JUMPDEST ADD CALLDATALOAD SWAP1 POP DUP5 DUP1 PUSH2 0x1EB5 JUMP JUMPDEST PUSH1 0x6 DUP5 ADD PUSH1 0x0 MSTORE PUSH1 0x20 PUSH1 0x0 KECCAK256 SWAP2 PUSH1 0x0 JUMPDEST PUSH1 0x1F NOT DUP6 AND DUP2 LT PUSH2 0x2521 JUMPI POP SWAP2 DUP4 SWAP2 PUSH1 0x1 SWAP4 PUSH1 0x6 SWAP6 PUSH1 0x1F NOT DUP2 AND LT PUSH2 0x2507 JUMPI JUMPDEST POP POP POP DUP2 SHL ADD SWAP2 ADD SSTORE PUSH2 0x1ECB JUMP JUMPDEST ADD CALLDATALOAD PUSH1 0x0 NOT PUSH1 0x3 DUP5 SWAP1 SHL PUSH1 0xF8 AND SHR NOT AND SWAP1 SSTORE DUP5 DUP1 DUP1 PUSH2 0x24F9 JUMP JUMPDEST SWAP1 SWAP3 PUSH1 0x20 PUSH1 0x1 DUP2 SWAP3 DUP7 DUP7 ADD CALLDATALOAD DUP2 SSTORE ADD SWAP5 ADD SWAP2 ADD PUSH2 0x24D9 JUMP JUMPDEST ADD CALLDATALOAD SWAP1 POP DUP4 DUP1 PUSH2 0x1E20 JUMP JUMPDEST DUP3 PUSH1 0x0 MSTORE PUSH1 0x20 PUSH1 0x0 KECCAK256 SWAP1 PUSH1 0x0 SWAP5 JUMPDEST PUSH1 0x1F NOT DUP5 AND DUP7 LT PUSH2 0x2595 JUMPI PUSH1 0x1 SWAP5 SWAP6 POP DUP4 PUSH1 0x1F NOT DUP2 AND LT PUSH2 0x257B JUMPI JUMPDEST POP POP POP DUP2 SHL ADD SWAP1 SSTORE PUSH2 0x1E35 JUMP JUMPDEST ADD CALLDATALOAD PUSH1 0x0 NOT PUSH1 0x3 DUP5 SWAP1 SHL PUSH1 0xF8 AND SHR NOT AND SWAP1 SSTORE DUP4 DUP1 DUP1 PUSH2 0x256E JUMP JUMPDEST SWAP2 PUSH1 0x20 PUSH1 0x1 DUP2 SWAP3 DUP6 DUP6 ADD CALLDATALOAD DUP2 SSTORE ADD SWAP4 ADD SWAP6 ADD SWAP5 PUSH2 0x2552 JUMP JUMPDEST ADD CALLDATALOAD SWAP1 POP DUP4 DUP1 PUSH2 0x1DAE JUMP JUMPDEST DUP3 PUSH1 0x0 MSTORE PUSH1 0x20 PUSH1 0x0 KECCAK256 SWAP1 PUSH1 0x0 SWAP5 JUMPDEST PUSH1 0x1F NOT DUP5 AND DUP7 LT PUSH2 0x2609 JUMPI PUSH1 0x1 SWAP5 SWAP6 POP DUP4 PUSH1 0x1F NOT DUP2 AND LT PUSH2 0x25EF JUMPI JUMPDEST POP POP POP DUP2 SHL ADD SWAP1 SSTORE PUSH2 0x1DC3 JUMP JUMPDEST ADD CALLDATALOAD PUSH1 0x0 NOT PUSH1 0x3 DUP5 SWAP1 SHL PUSH1 0xF8 AND SHR NOT AND SWAP1 SSTORE DUP4 DUP1 DUP1 PUSH2 0x25E2 JUMP JUMPDEST SWAP2 PUSH1 0x20 PUSH1 0x1 DUP2 SWAP3 DUP6 DUP6 ADD CALLDATALOAD DUP2 SSTORE ADD SWAP4 ADD SWAP6 ADD SWAP5 PUSH2 0x25C6 JUMP JUMPDEST PUSH1 0x40 MLOAD PUSH3 0x461BCD PUSH1 0xE5 SHL DUP2 MSTORE PUSH1 0x20 PUSH1 0x4 DUP3 ADD MSTORE PUSH1 0x28 PUSH1 0x24 DUP3 ADD MSTORE PUSH32 0x4F6E6C79207468652073656C6C65722063616E20757064617465207468656972 PUSH1 0x44 DUP3 ADD MSTORE PUSH8 0x81C1C9BD91D58DD PUSH1 0xC2 SHL PUSH1 0x64 DUP3 ADD MSTORE PUSH1 0x84 SWAP1 REVERT JUMPDEST POP PUSH1 0x0 SLOAD PUSH1 0x1 PUSH1 0x1 PUSH1 0xA0 SHL SUB AND CALLER EQ PUSH2 0x1BBA JUMP JUMPDEST CALLVALUE PUSH2 0x507 JUMPI PUSH1 0x20 CALLDATASIZE PUSH1 0x3 NOT ADD SLT PUSH2 0x507 JUMPI PUSH1 0x4 CALLDATALOAD PUSH1 0x0 MSTORE PUSH1 0x13 PUSH1 0x20 MSTORE PUSH1 0x20 PUSH1 0xFF PUSH1 0x40 PUSH1 0x0 KECCAK256 SLOAD AND PUSH1 0x40 MLOAD SWAP1 ISZERO ISZERO DUP2 MSTORE RETURN JUMPDEST CALLVALUE PUSH2 0x507 JUMPI PUSH1 0x40 CALLDATASIZE PUSH1 0x3 NOT ADD SLT PUSH2 0x507 JUMPI PUSH2 0x26D5 PUSH2 0x4D41 JUMP JUMPDEST PUSH1 0x24 CALLDATALOAD SWAP1 DUP2 ISZERO ISZERO SWAP1 DUP2 DUP4 SUB PUSH2 0x507 JUMPI PUSH1 0x1 PUSH1 0x1 PUSH1 0xA0 SHL SUB AND SWAP2 CALLER DUP4 EQ PUSH2 0x2752 JUMPI PUSH2 0x2724 SWAP1 CALLER PUSH1 0x0 MSTORE PUSH1 0x7 PUSH1 0x20 MSTORE PUSH1 0x40 PUSH1 0x0 KECCAK256 DUP5 PUSH1 0x0 MSTORE PUSH1 0x20 MSTORE PUSH1 0x40 PUSH1 0x0 KECCAK256 SWAP1 PUSH1 0xFF DUP1 NOT DUP4 SLOAD AND SWAP2 ISZERO ISZERO AND OR SWAP1 SSTORE JUMP JUMPDEST PUSH1 0x40 MLOAD SWAP1 DUP2 MSTORE PUSH32 0x17307EAB39AB6107E8899845AD3D59BD9653F200F220920489CA2B5937696C31 PUSH1 0x20 CALLER SWAP3 LOG3 STOP JUMPDEST PUSH1 0x40 MLOAD PUSH3 0x461BCD PUSH1 0xE5 SHL DUP2 MSTORE PUSH1 0x20 PUSH1 0x4 DUP3 ADD MSTORE PUSH1 0x19 PUSH1 0x24 DUP3 ADD MSTORE PUSH32 0x4552433732313A20617070726F766520746F2063616C6C657200000000000000 PUSH1 0x44 DUP3 ADD MSTORE PUSH1 0x64 SWAP1 REVERT JUMPDEST CALLVALUE PUSH2 0x507 JUMPI PUSH1 0x40 CALLDATASIZE PUSH1 0x3 NOT ADD SLT PUSH2 0x507 JUMPI PUSH2 0x27B0 PUSH2 0x4D41 JUMP JUMPDEST PUSH1 0x1 PUSH1 0x1 PUSH1 0xA0 SHL SUB SWAP1 DUP2 AND PUSH1 0x0 SWAP1 DUP2 MSTORE PUSH1 0x10 PUSH1 0x20 MSTORE PUSH1 0x40 SWAP1 KECCAK256 DUP1 SLOAD PUSH1 0x24 CALLDATALOAD SWAP1 DUP2 LT ISZERO PUSH2 0x507 JUMPI PUSH2 0x802 SWAP2 PUSH2 0x50F7 JUMP JUMPDEST CALLVALUE PUSH2 0x507 JUMPI PUSH1 0x20 DUP1 PUSH1 0x3 NOT CALLDATASIZE ADD SLT PUSH2 0x507 JUMPI PUSH1 0x4 CALLDATALOAD DUP1 PUSH1 0x0 MSTORE PUSH1 0xC SWAP1 DUP2 DUP4 MSTORE PUSH1 0xFF PUSH1 0xF PUSH1 0x40 PUSH1 0x0 KECCAK256 ADD SLOAD SWAP2 PUSH2 0x281A DUP3 PUSH1 0x10 SWAP5 DUP6 SHR AND ISZERO PUSH2 0x5F2B JUMP JUMPDEST DUP1 PUSH1 0x0 MSTORE PUSH1 0x13 DUP6 MSTORE PUSH2 0x2832 DUP3 PUSH1 0x40 PUSH1 0x0 KECCAK256 SLOAD AND PUSH2 0x5EE6 JUMP JUMPDEST PUSH1 0x0 SWAP3 PUSH1 0x0 JUMPDEST DUP3 PUSH1 0x0 MSTORE DUP6 DUP8 MSTORE DUP2 PUSH1 0x40 PUSH1 0x0 KECCAK256 ADD DUP1 SLOAD DUP3 LT ISZERO PUSH2 0x2889 JUMPI PUSH1 0x4 PUSH2 0x285C DUP4 DUP8 SWAP4 PUSH2 0x5F97 JUMP JUMPDEST POP ADD SLOAD AND ISZERO PUSH2 0x2874 JUMPI JUMPDEST PUSH2 0x286F SWAP1 PUSH2 0x5FB3 JUMP JUMPDEST PUSH2 0x2838 JUMP JUMPDEST SWAP4 PUSH2 0x2881 PUSH2 0x286F SWAP2 PUSH2 0x5FB3 JUMP JUMPDEST SWAP5 SWAP1 POP PUSH2 0x2866 JUMP JUMPDEST POP POP DUP5 DUP7 PUSH2 0x2896 DUP7 PUSH2 0x5C6B JUMP JUMPDEST SWAP6 PUSH2 0x28A4 PUSH1 0x40 MLOAD SWAP8 DUP9 PUSH2 0x4DDB JUMP JUMPDEST DUP1 DUP8 MSTORE PUSH2 0x28B3 PUSH1 0x1F NOT SWAP2 PUSH2 0x5C6B JUMP JUMPDEST ADD DUP2 PUSH1 0x0 JUMPDEST DUP3 DUP2 LT PUSH2 0x295C JUMPI POP POP POP PUSH1 0x0 SWAP4 PUSH1 0x0 JUMPDEST DUP2 PUSH1 0x0 MSTORE DUP4 DUP4 MSTORE DUP5 PUSH1 0x40 PUSH1 0x0 KECCAK256 ADD DUP1 SLOAD DUP3 LT ISZERO PUSH2 0x2949 JUMPI PUSH1 0x4 PUSH2 0x28EC DUP4 DUP11 SWAP4 PUSH2 0x5F97 JUMP JUMPDEST POP ADD SLOAD AND ISZERO PUSH2 0x2904 JUMPI JUMPDEST PUSH2 0x28FF SWAP1 PUSH2 0x5FB3 JUMP JUMPDEST PUSH2 0x28C8 JUMP JUMPDEST SWAP5 PUSH2 0x2941 PUSH2 0x28FF SWAP2 DUP4 PUSH1 0x0 MSTORE DUP6 DUP6 MSTORE PUSH2 0x292C PUSH2 0x2926 DUP10 DUP10 PUSH1 0x40 PUSH1 0x0 KECCAK256 ADD PUSH2 0x5F97 JUMP JUMPDEST POP PUSH2 0x5FD6 JUMP JUMPDEST PUSH2 0x2936 DUP3 DUP13 PUSH2 0x5FC2 JUMP JUMPDEST MSTORE PUSH2 0x44A DUP2 DUP12 PUSH2 0x5FC2 JUMP JUMPDEST SWAP6 SWAP1 POP PUSH2 0x28F6 JUMP JUMPDEST PUSH1 0x40 MLOAD DUP5 DUP2 MSTORE DUP1 PUSH2 0x26C DUP2 DUP8 ADD DUP13 PUSH2 0x4AA8 JUMP JUMPDEST PUSH2 0x2964 PUSH2 0x5F6C JUMP JUMPDEST DUP3 DUP3 DUP12 ADD ADD MSTORE ADD DUP3 SWAP1 PUSH2 0x28B8 JUMP JUMPDEST CALLVALUE PUSH2 0x507 JUMPI PUSH1 0x40 CALLDATASIZE PUSH1 0x3 NOT ADD SLT PUSH2 0x507 JUMPI PUSH2 0x298B PUSH2 0x4D41 JUMP JUMPDEST PUSH1 0x24 SWAP1 DUP2 CALLDATALOAD SWAP1 PUSH1 0x4 DUP3 LT ISZERO PUSH2 0x507 JUMPI PUSH2 0x29A2 PUSH2 0x521D JUMP JUMPDEST PUSH1 0x1 PUSH1 0x1 PUSH1 0xA0 SHL SUB AND SWAP2 DUP3 ISZERO PUSH2 0x2B31 JUMPI DUP3 PUSH1 0x0 MSTORE PUSH1 0x20 SWAP1 PUSH1 0x12 DUP3 MSTORE PUSH1 0xFF PUSH1 0x40 PUSH1 0x0 KECCAK256 SLOAD AND ISZERO PUSH2 0x2AF6 JUMPI DUP4 PUSH1 0x0 MSTORE PUSH1 0xF DUP3 MSTORE PUSH1 0xFF PUSH1 0x40 PUSH1 0x0 KECCAK256 SLOAD AND PUSH1 0x4 DUP2 LT ISZERO PUSH2 0x2AA9 JUMPI DUP4 EQ PUSH2 0x2ABE JUMPI PUSH1 0x2 DUP4 EQ PUSH2 0x2A45 JUMPI JUMPDEST POP PUSH32 0xD8F7BCB2C5CFFC294A0AAEF719685993D7BE95273FB8254803A1563510CCEFED SWAP2 PUSH1 0xF PUSH2 0x2A40 SWAP3 DUP6 PUSH1 0x0 MSTORE MSTORE PUSH1 0x40 PUSH1 0x0 KECCAK256 PUSH1 0xFF NOT DUP2 SLOAD AND PUSH1 0xFF DUP4 AND OR SWAP1 SSTORE PUSH1 0x40 MLOAD SWAP2 DUP3 SWAP2 DUP3 PUSH2 0x5004 JUMP JUMPDEST SUB SWAP1 LOG2 STOP JUMPDEST DUP4 PUSH1 0x0 MSTORE PUSH1 0xF DUP3 MSTORE PUSH1 0xFF PUSH1 0x40 PUSH1 0x0 KECCAK256 SLOAD AND PUSH1 0x4 DUP2 LT ISZERO PUSH2 0x2AA9 JUMPI PUSH1 0x1 EQ PUSH2 0x29F4 JUMPI SWAP1 PUSH1 0x1F PUSH1 0x64 SWAP3 PUSH1 0x40 MLOAD SWAP3 PUSH3 0x461BCD PUSH1 0xE5 SHL DUP5 MSTORE PUSH1 0x4 DUP5 ADD MSTORE DUP3 ADD MSTORE PUSH32 0x43616E206F6E6C79207665726966792070656E64696E672073656C6C65727300 PUSH1 0x44 DUP3 ADD MSTORE REVERT JUMPDEST POP PUSH4 0x4E487B71 PUSH1 0xE0 SHL PUSH1 0x0 SWAP1 DUP2 MSTORE PUSH1 0x21 PUSH1 0x4 MSTORE REVERT JUMPDEST SWAP1 PUSH1 0x12 PUSH1 0x64 SWAP3 PUSH1 0x40 MLOAD SWAP3 PUSH3 0x461BCD PUSH1 0xE5 SHL DUP5 MSTORE PUSH1 0x4 DUP5 ADD MSTORE DUP3 ADD MSTORE PUSH18 0x14DD185D1D5CC8185B1C9958591E481CD95D PUSH1 0x72 SHL PUSH1 0x44 DUP3 ADD MSTORE REVERT JUMPDEST SWAP1 PUSH1 0x15 PUSH1 0x64 SWAP3 PUSH1 0x40 MLOAD SWAP3 PUSH3 0x461BCD PUSH1 0xE5 SHL DUP5 MSTORE PUSH1 0x4 DUP5 ADD MSTORE DUP3 ADD MSTORE PUSH21 0x14D95B1B195C881B9BDD081C9959DA5CDD195C9959 PUSH1 0x5A SHL PUSH1 0x44 DUP3 ADD MSTORE REVERT JUMPDEST PUSH1 0x64 SWAP1 PUSH1 0x16 PUSH1 0x40 MLOAD SWAP2 PUSH3 0x461BCD PUSH1 0xE5 SHL DUP4 MSTORE PUSH1 0x20 PUSH1 0x4 DUP5 ADD MSTORE DUP3 ADD MSTORE PUSH22 0x496E76616C69642073656C6C65722061646472657373 PUSH1 0x50 SHL PUSH1 0x44 DUP3 ADD MSTORE REVERT JUMPDEST CALLVALUE PUSH2 0x507 JUMPI PUSH1 0x0 CALLDATASIZE PUSH1 0x3 NOT ADD SLT PUSH2 0x507 JUMPI PUSH1 0x40 MLOAD PUSH1 0x0 PUSH1 0x3 SLOAD PUSH2 0x2B90 DUP2 PUSH2 0x5017 JUMP JUMPDEST DUP1 DUP5 MSTORE SWAP1 PUSH1 0x1 SWAP1 DUP2 DUP2 AND SWAP1 DUP2 ISZERO PUSH2 0x2C29 JUMPI POP PUSH1 0x1 EQ PUSH2 0x2BCE JUMPI JUMPDEST PUSH2 0x26C DUP5 PUSH2 0x2BBA DUP2 DUP7 SUB DUP3 PUSH2 0x4DDB JUMP JUMPDEST PUSH1 0x40 MLOAD SWAP2 DUP3 SWAP2 PUSH1 0x20 DUP4 MSTORE PUSH1 0x20 DUP4 ADD SWAP1 PUSH2 0x4A68 JUMP JUMPDEST PUSH1 0x3 PUSH1 0x0 SWAP1 DUP2 MSTORE SWAP3 POP PUSH32 0xC2575A0E9E593C00F959F8C92F12DB2869C3395A3B0502D05E2516446F71F85B JUMPDEST DUP3 DUP5 LT PUSH2 0x2C11 JUMPI POP POP POP DUP2 ADD PUSH1 0x20 ADD PUSH2 0x2BBA DUP3 PUSH2 0x2BAA JUMP JUMPDEST DUP1 SLOAD PUSH1 0x20 DUP6 DUP8 ADD DUP2 ADD SWAP2 SWAP1 SWAP2 MSTORE SWAP1 SWAP4 ADD SWAP3 DUP2 ADD PUSH2 0x2BF9 JUMP JUMPDEST PUSH1 0xFF NOT AND PUSH1 0x20 DUP1 DUP8 ADD SWAP2 SWAP1 SWAP2 MSTORE SWAP3 ISZERO ISZERO PUSH1 0x5 SHL DUP6 ADD SWAP1 SWAP3 ADD SWAP3 POP PUSH2 0x2BBA SWAP2 POP DUP4 SWAP1 POP PUSH2 0x2BAA JUMP JUMPDEST CALLVALUE PUSH2 0x507 JUMPI PUSH1 0x0 CALLDATASIZE PUSH1 0x3 NOT ADD SLT PUSH2 0x507 JUMPI PUSH1 0x0 SLOAD PUSH1 0x40 MLOAD PUSH1 0x1 PUSH1 0x1 PUSH1 0xA0 SHL SUB SWAP1 SWAP2 AND DUP2 MSTORE PUSH1 0x20 SWAP1 RETURN JUMPDEST CALLVALUE PUSH2 0x507 JUMPI PUSH1 0x20 CALLDATASIZE PUSH1 0x3 NOT ADD SLT PUSH2 0x507 JUMPI PUSH1 0x4 CALLDATALOAD PUSH1 0x0 SWAP1 DUP2 MSTORE PUSH1 0xC PUSH1 0x20 MSTORE PUSH1 0x40 SWAP1 KECCAK256 DUP1 SLOAD PUSH1 0x1 DUP3 ADD SLOAD PUSH1 0x1 PUSH1 0x1 PUSH1 0xA0 SHL SUB AND SWAP2 PUSH2 0x2CB8 PUSH1 0x2 DUP3 ADD PUSH2 0x5051 JUMP JUMPDEST PUSH2 0x2CC4 PUSH1 0x3 DUP4 ADD PUSH2 0x5051 JUMP JUMPDEST PUSH1 0x4 DUP4 ADD SLOAD PUSH1 0x5 DUP5 ADD SLOAD SWAP1 PUSH2 0x2CDB PUSH1 0x6 DUP7 ADD PUSH2 0x5051 JUMP JUMPDEST PUSH2 0x2CE7 PUSH1 0x7 DUP8 ADD PUSH2 0x5051 JUMP JUMPDEST PUSH2 0x2CF3 PUSH1 0x9 DUP9 ADD PUSH2 0x5051 JUMP JUMPDEST SWAP1 PUSH2 0x2D00 PUSH1 0xA DUP10 ADD PUSH2 0x5051 JUMP JUMPDEST SWAP3 PUSH1 0xB DUP10 ADD SLOAD SWAP5 PUSH1 0xC DUP11 ADD PUSH2 0x2D14 SWAP1 PUSH2 0x5051 JUMP JUMPDEST SWAP7 PUSH2 0x2D21 PUSH1 0xD DUP13 ADD PUSH2 0x5051 JUMP JUMPDEST SWAP9 PUSH1 0xE DUP13 ADD SLOAD SWAP12 PUSH1 0xF ADD SLOAD SWAP11 PUSH1 0x40 MLOAD SWAP15 DUP16 SWAP15 DUP16 SWAP1 DUP2 MSTORE PUSH1 0x20 ADD MSTORE DUP14 PUSH2 0x220 SWAP1 DUP2 PUSH1 0x40 DUP3 ADD MSTORE ADD PUSH2 0x2D50 SWAP2 PUSH2 0x4A68 JUMP JUMPDEST DUP14 DUP2 SUB PUSH1 0x60 DUP16 ADD MSTORE PUSH2 0x2D61 SWAP2 PUSH2 0x4A68 JUMP JUMPDEST SWAP2 PUSH1 0x80 DUP14 ADD MSTORE PUSH1 0xA0 DUP13 ADD MSTORE DUP11 DUP2 SUB PUSH1 0xC0 DUP13 ADD MSTORE PUSH2 0x2D7D SWAP2 PUSH2 0x4A68 JUMP JUMPDEST DUP10 DUP2 SUB PUSH1 0xE0 DUP12 ADD MSTORE PUSH2 0x2D8E SWAP2 PUSH2 0x4A68 JUMP JUMPDEST DUP9 DUP2 SUB PUSH2 0x100 DUP11 ADD MSTORE PUSH2 0x2DA0 SWAP2 PUSH2 0x4A68 JUMP JUMPDEST DUP8 DUP2 SUB PUSH2 0x120 DUP10 ADD MSTORE PUSH2 0x2DB2 SWAP2 PUSH2 0x4A68 JUMP JUMPDEST SWAP1 PUSH2 0x140 DUP8 ADD MSTORE DUP6 DUP2 SUB PUSH2 0x160 DUP8 ADD MSTORE PUSH2 0x2DCB SWAP2 PUSH2 0x4A68 JUMP JUMPDEST DUP5 DUP2 SUB PUSH2 0x180 DUP7 ADD MSTORE PUSH2 0x2DDD SWAP2 PUSH2 0x4A68 JUMP JUMPDEST SWAP2 PUSH2 0x1A0 DUP5 ADD MSTORE PUSH1 0xFF DUP2 AND ISZERO ISZERO PUSH2 0x1C0 DUP5 ADD MSTORE DUP1 PUSH1 0x8 SHR PUSH1 0xFF AND ISZERO ISZERO PUSH2 0x1E0 DUP5 ADD MSTORE PUSH1 0x10 SHR PUSH1 0xFF AND ISZERO ISZERO PUSH2 0x200 DUP4 ADD MSTORE SUB SWAP1 RETURN JUMPDEST CALLVALUE PUSH2 0x507 JUMPI PUSH1 0x0 CALLDATASIZE PUSH1 0x3 NOT ADD SLT PUSH2 0x507 JUMPI PUSH2 0x2E2A PUSH2 0x521D JUMP JUMPDEST PUSH1 0x0 DUP1 SLOAD PUSH1 0x1 PUSH1 0x1 PUSH1 0xA0 SHL SUB NOT DUP2 AND DUP3 SSTORE PUSH1 0x1 PUSH1 0x1 PUSH1 0xA0 SHL SUB AND PUSH32 0x8BE0079C531659141344CD1FD0A4F28419497F9722A3DAAFE3B4186F6B6457E0 DUP3 DUP1 LOG3 STOP JUMPDEST CALLVALUE PUSH2 0x507 JUMPI PUSH1 0x20 CALLDATASIZE PUSH1 0x3 NOT ADD SLT PUSH2 0x507 JUMPI PUSH1 0x1 PUSH1 0x1 PUSH1 0xA0 SHL SUB PUSH2 0x2E8B PUSH2 0x4D41 JUMP JUMPDEST AND DUP1 ISZERO PUSH2 0x2EAA JUMPI PUSH1 0x0 MSTORE PUSH1 0x5 PUSH1 0x20 MSTORE PUSH1 0x20 PUSH1 0x40 PUSH1 0x0 KECCAK256 SLOAD PUSH1 0x40 MLOAD SWAP1 DUP2 MSTORE RETURN JUMPDEST PUSH1 0x40 MLOAD PUSH3 0x461BCD PUSH1 0xE5 SHL DUP2 MSTORE PUSH1 0x20 PUSH1 0x4 DUP3 ADD MSTORE PUSH1 0x29 PUSH1 0x24 DUP3 ADD MSTORE PUSH32 0x4552433732313A2061646472657373207A65726F206973206E6F742061207661 PUSH1 0x44 DUP3 ADD MSTORE PUSH9 0x3634B21037BBB732B9 PUSH1 0xB9 SHL PUSH1 0x64 DUP3 ADD MSTORE PUSH1 0x84 SWAP1 REVERT JUMPDEST PUSH1 0x3 NOT PUSH1 0x40 CALLDATASIZE DUP3 ADD SLT PUSH2 0x507 JUMPI PUSH1 0x24 SWAP1 PUSH1 0x1 PUSH1 0x1 PUSH1 0x40 SHL SUB DUP3 CALLDATALOAD GT PUSH2 0x507 JUMPI PUSH2 0x100 SWAP1 DUP3 CALLDATALOAD CALLDATASIZE SUB ADD SLT PUSH2 0x507 JUMPI PUSH1 0x2 PUSH1 0x1 SLOAD EQ PUSH2 0x371B JUMPI PUSH1 0x2 PUSH1 0x1 SSTORE PUSH1 0x4 CALLDATALOAD PUSH1 0x0 MSTORE PUSH1 0x13 PUSH1 0x20 MSTORE PUSH2 0x2F59 PUSH1 0xFF PUSH1 0x40 PUSH1 0x0 KECCAK256 SLOAD AND PUSH2 0x5EE6 JUMP JUMPDEST PUSH1 0x4 CALLDATALOAD PUSH1 0x0 MSTORE PUSH1 0xC PUSH1 0x20 MSTORE PUSH2 0x2F7C PUSH1 0xFF PUSH1 0xF PUSH1 0x40 PUSH1 0x0 KECCAK256 ADD SLOAD PUSH1 0x10 SHR AND ISZERO PUSH2 0x5F2B JUMP JUMPDEST PUSH1 0x4 CALLDATALOAD PUSH1 0x0 MSTORE PUSH1 0xC PUSH1 0x20 MSTORE PUSH1 0x1 DUP1 PUSH1 0xA0 SHL SUB PUSH1 0x1 PUSH1 0x40 PUSH1 0x0 KECCAK256 ADD SLOAD AND PUSH1 0x0 MSTORE PUSH1 0xF PUSH1 0x20 MSTORE PUSH1 0xFF PUSH1 0x40 PUSH1 0x0 KECCAK256 SLOAD AND PUSH1 0x4 DUP2 LT ISZERO PUSH2 0x2AA9 JUMPI PUSH1 0x2 SUB PUSH2 0x36DE JUMPI PUSH1 0x4 CALLDATALOAD PUSH1 0x0 MSTORE PUSH1 0xC PUSH1 0x20 MSTORE PUSH1 0x5 PUSH1 0x40 PUSH1 0x0 KECCAK256 ADD SLOAD ISZERO PUSH2 0x369A JUMPI PUSH1 0x4 CALLDATALOAD PUSH1 0x0 MSTORE PUSH1 0xC PUSH1 0x20 MSTORE PUSH1 0xFF PUSH1 0xF PUSH1 0x40 PUSH1 0x0 KECCAK256 ADD SLOAD AND PUSH2 0x3656 JUMPI PUSH1 0x4 CALLDATALOAD PUSH1 0x0 MSTORE PUSH1 0xC PUSH1 0x20 MSTORE PUSH1 0x1 DUP1 PUSH1 0xA0 SHL SUB PUSH1 0x1 PUSH1 0x40 PUSH1 0x0 KECCAK256 ADD SLOAD AND CALLER EQ PUSH2 0x3612 JUMPI PUSH2 0x301D PUSH1 0x4 DUP3 CALLDATALOAD ADD DUP1 PUSH2 0x5781 JUMP JUMPDEST SWAP1 POP ISZERO PUSH2 0x35D9 JUMPI PUSH2 0x3035 DUP2 DUP1 CALLDATALOAD ADD DUP3 CALLDATALOAD PUSH1 0x4 ADD PUSH2 0x5781 JUMP JUMPDEST SWAP1 POP ISZERO PUSH2 0x3595 JUMPI PUSH2 0x304E PUSH1 0x44 DUP3 CALLDATALOAD ADD DUP3 CALLDATALOAD PUSH1 0x4 ADD PUSH2 0x5781 JUMP JUMPDEST SWAP1 POP ISZERO PUSH2 0x3561 JUMPI PUSH2 0x3067 PUSH1 0x64 DUP3 CALLDATALOAD ADD DUP3 CALLDATALOAD PUSH1 0x4 ADD PUSH2 0x5781 JUMP JUMPDEST SWAP1 POP ISZERO PUSH2 0x352C JUMPI PUSH2 0x3080 PUSH1 0x84 DUP3 CALLDATALOAD ADD DUP3 CALLDATALOAD PUSH1 0x4 ADD PUSH2 0x5781 JUMP JUMPDEST SWAP1 POP ISZERO PUSH2 0x34F5 JUMPI PUSH2 0x3099 PUSH1 0xA4 DUP3 CALLDATALOAD ADD DUP3 CALLDATALOAD PUSH1 0x4 ADD PUSH2 0x5781 JUMP JUMPDEST SWAP1 POP ISZERO PUSH2 0x34BA JUMPI PUSH2 0x30B2 PUSH1 0xC4 DUP3 CALLDATALOAD ADD DUP3 CALLDATALOAD PUSH1 0x4 ADD PUSH2 0x5781 JUMP JUMPDEST SWAP1 POP ISZERO PUSH2 0x3485 JUMPI PUSH2 0x30CB PUSH1 0xE4 DUP3 CALLDATALOAD ADD DUP3 CALLDATALOAD PUSH1 0x4 ADD PUSH2 0x5781 JUMP JUMPDEST SWAP1 POP ISZERO PUSH2 0x3450 JUMPI PUSH1 0x4 CALLDATALOAD PUSH1 0x0 MSTORE PUSH1 0xC PUSH1 0x20 MSTORE PUSH1 0x4 PUSH1 0x40 PUSH1 0x0 KECCAK256 ADD SLOAD SWAP1 DUP2 CALLVALUE LT PUSH2 0x3417 JUMPI PUSH1 0x4 CALLDATALOAD PUSH1 0x0 MSTORE PUSH1 0xC PUSH1 0x20 MSTORE PUSH1 0x5 PUSH1 0x40 PUSH1 0x0 KECCAK256 ADD DUP1 SLOAD DUP1 ISZERO PUSH2 0x3402 JUMPI PUSH1 0x0 NOT ADD SWAP1 SSTORE PUSH1 0x4 CALLDATALOAD PUSH1 0x0 MSTORE PUSH1 0xC PUSH1 0x20 MSTORE PUSH1 0x40 PUSH1 0x0 KECCAK256 PUSH1 0x5 DUP2 ADD SLOAD ISZERO PUSH2 0x33EE JUMPI JUMPDEST PUSH1 0x1 ADD SLOAD PUSH1 0x40 MLOAD PUSH1 0x1 PUSH1 0x1 PUSH1 0xA0 SHL SUB SWAP1 SWAP2 AND SWAP2 SWAP1 PUSH2 0x3147 DUP2 PUSH2 0x4D89 JUMP JUMPDEST DUP2 CALLDATALOAD PUSH1 0x4 ADD CALLDATALOAD PUSH1 0x1 PUSH1 0x1 PUSH1 0x40 SHL SUB DUP2 GT PUSH2 0x507 JUMPI PUSH2 0x316C SWAP1 PUSH1 0x4 CALLDATASIZE SWAP2 DUP6 CALLDATALOAD ADD ADD PUSH2 0x4E4E JUMP JUMPDEST DUP2 MSTORE PUSH1 0x1 PUSH1 0x1 PUSH1 0x40 SHL SUB DUP3 DUP1 CALLDATALOAD ADD CALLDATALOAD GT PUSH2 0x507 JUMPI PUSH2 0x3193 CALLDATASIZE DUP4 CALLDATALOAD DUP1 DUP6 ADD CALLDATALOAD ADD PUSH1 0x4 ADD PUSH2 0x4E4E JUMP JUMPDEST PUSH1 0x20 DUP3 ADD MSTORE PUSH1 0x44 DUP3 CALLDATALOAD ADD CALLDATALOAD PUSH1 0x1 PUSH1 0x1 PUSH1 0x40 SHL SUB DUP2 GT PUSH2 0x507 JUMPI PUSH2 0x31BD SWAP1 PUSH1 0x4 CALLDATASIZE SWAP2 DUP6 CALLDATALOAD ADD ADD PUSH2 0x4E4E JUMP JUMPDEST PUSH1 0x40 DUP3 ADD MSTORE PUSH1 0x64 DUP3 CALLDATALOAD ADD CALLDATALOAD PUSH1 0x1 PUSH1 0x1 PUSH1 0x40 SHL SUB DUP2 GT PUSH2 0x507 JUMPI PUSH2 0x31E7 SWAP1 PUSH1 0x4 CALLDATASIZE SWAP2 DUP6 CALLDATALOAD ADD ADD PUSH2 0x4E4E JUMP JUMPDEST PUSH1 0x60 DUP3 ADD MSTORE PUSH1 0x84 DUP3 CALLDATALOAD ADD CALLDATALOAD PUSH1 0x1 PUSH1 0x1 PUSH1 0x40 SHL SUB DUP2 GT PUSH2 0x507 JUMPI PUSH2 0x3211 SWAP1 PUSH1 0x4 CALLDATASIZE SWAP2 DUP6 CALLDATALOAD ADD ADD PUSH2 0x4E4E JUMP JUMPDEST PUSH1 0x80 DUP3 ADD MSTORE PUSH1 0xA4 DUP3 CALLDATALOAD ADD CALLDATALOAD PUSH1 0x1 PUSH1 0x1 PUSH1 0x40 SHL SUB DUP2 GT PUSH2 0x507 JUMPI PUSH2 0x323B SWAP1 PUSH1 0x4 CALLDATASIZE SWAP2 DUP6 CALLDATALOAD ADD ADD PUSH2 0x4E4E JUMP JUMPDEST PUSH1 0xA0 DUP3 ADD MSTORE PUSH1 0xC4 DUP3 CALLDATALOAD ADD CALLDATALOAD PUSH1 0x1 PUSH1 0x1 PUSH1 0x40 SHL SUB DUP2 GT PUSH2 0x507 JUMPI PUSH2 0x3265 SWAP1 PUSH1 0x4 CALLDATASIZE SWAP2 DUP6 CALLDATALOAD ADD ADD PUSH2 0x4E4E JUMP JUMPDEST PUSH1 0xC0 DUP3 ADD MSTORE PUSH1 0xE4 DUP3 CALLDATALOAD ADD CALLDATALOAD SWAP1 PUSH1 0x1 PUSH1 0x1 PUSH1 0x40 SHL SUB DUP3 GT PUSH2 0x507 JUMPI PUSH2 0x3293 PUSH2 0x32FE SWAP3 PUSH1 0x4 CALLDATASIZE SWAP2 DUP7 CALLDATALOAD ADD ADD PUSH2 0x4E4E JUMP JUMPDEST PUSH1 0xE0 DUP3 ADD MSTORE PUSH1 0x40 MLOAD SWAP1 PUSH2 0x32A5 DUP3 PUSH2 0x4D89 JUMP JUMPDEST PUSH1 0x4 CALLDATALOAD DUP3 MSTORE DUP6 PUSH1 0x20 DUP4 ADD MSTORE DUP6 PUSH1 0x40 DUP4 ADD MSTORE TIMESTAMP PUSH1 0x60 DUP4 ADD MSTORE CALLER PUSH1 0x80 DUP4 ADD MSTORE DUP5 PUSH1 0xA0 DUP4 ADD MSTORE PUSH1 0x0 PUSH1 0xC0 DUP4 ADD MSTORE PUSH1 0xE0 DUP3 ADD MSTORE CALLER PUSH1 0x0 MSTORE PUSH1 0x10 PUSH1 0x20 MSTORE PUSH2 0x32EB DUP2 PUSH1 0x40 PUSH1 0x0 KECCAK256 PUSH2 0x6083 JUMP JUMPDEST DUP4 PUSH1 0x0 MSTORE PUSH1 0x11 PUSH1 0x20 MSTORE PUSH1 0x40 PUSH1 0x0 KECCAK256 PUSH2 0x6083 JUMP JUMPDEST DUP2 PUSH1 0x0 MSTORE PUSH1 0xE PUSH1 0x20 MSTORE PUSH1 0x40 PUSH1 0x0 KECCAK256 DUP1 SLOAD SWAP2 DUP5 DUP4 ADD DUP1 SWAP4 GT PUSH2 0x33DA JUMPI POP SSTORE PUSH1 0x40 MLOAD DUP3 DUP2 MSTORE DUP3 PUSH1 0x20 DUP3 ADD MSTORE TIMESTAMP PUSH1 0x40 DUP3 ADD MSTORE CALLER SWAP1 PUSH32 0x45280C7AC9CEC77EDD454E39E1641A3E22619146CF074A4239BEEE86A7C07EDC PUSH1 0x60 PUSH1 0x4 CALLDATALOAD SWAP3 LOG4 PUSH1 0x1 PUSH1 0x9 SLOAD ADD PUSH1 0x9 SSTORE PUSH2 0x336A DUP2 CALLVALUE PUSH2 0x6076 JUMP JUMPDEST DUP1 PUSH2 0x33CA JUMPI JUMPDEST POP PUSH1 0x4 CALLDATALOAD PUSH1 0x0 MSTORE PUSH1 0xC PUSH1 0x20 MSTORE PUSH1 0x1 DUP1 PUSH1 0xA0 SHL SUB PUSH1 0x1 PUSH1 0x40 PUSH1 0x0 KECCAK256 ADD SLOAD AND SWAP1 PUSH1 0x40 MLOAD SWAP1 DUP2 MSTORE TIMESTAMP PUSH1 0x20 DUP3 ADD MSTORE CALLER SWAP1 PUSH32 0xBE6177108F4DF43C5D7BE79CB219C969FC97915BBDB4B56D14D391DCDCC16060 PUSH1 0x40 PUSH1 0x4 CALLDATALOAD SWAP3 LOG4 PUSH1 0x1 DUP1 SSTORE STOP JUMPDEST PUSH2 0x33D4 SWAP1 CALLER PUSH2 0x68EF JUMP JUMPDEST DUP2 PUSH2 0x3370 JUMP JUMPDEST PUSH4 0x4E487B71 PUSH1 0xE0 SHL PUSH1 0x0 SWAP1 DUP2 MSTORE PUSH1 0x11 PUSH1 0x4 MSTORE REVERT JUMPDEST PUSH1 0xF DUP2 ADD DUP1 SLOAD PUSH1 0xFF NOT AND PUSH1 0x1 OR SWAP1 SSTORE PUSH2 0x312A JUMP JUMPDEST DUP3 PUSH4 0x4E487B71 PUSH1 0xE0 SHL PUSH1 0x0 MSTORE PUSH1 0x11 PUSH1 0x4 MSTORE PUSH1 0x0 REVERT JUMPDEST PUSH1 0x64 SWAP1 PUSH1 0x12 PUSH1 0x40 MLOAD SWAP2 PUSH3 0x461BCD PUSH1 0xE5 SHL DUP4 MSTORE PUSH1 0x20 PUSH1 0x4 DUP5 ADD MSTORE DUP3 ADD MSTORE PUSH18 0x496E73756666696369656E742066756E6473 PUSH1 0x70 SHL PUSH1 0x44 DUP3 ADD MSTORE REVERT JUMPDEST PUSH1 0x64 SWAP1 PUSH1 0xE PUSH1 0x40 MLOAD SWAP2 PUSH3 0x461BCD PUSH1 0xE5 SHL DUP4 MSTORE PUSH1 0x20 PUSH1 0x4 DUP5 ADD MSTORE DUP3 ADD MSTORE PUSH14 0x115B585A5B081C995C5D5A5C9959 PUSH1 0x92 SHL PUSH1 0x44 DUP3 ADD MSTORE REVERT JUMPDEST PUSH1 0x64 SWAP1 PUSH1 0xE PUSH1 0x40 MLOAD SWAP2 PUSH3 0x461BCD PUSH1 0xE5 SHL DUP4 MSTORE PUSH1 0x20 PUSH1 0x4 DUP5 ADD MSTORE DUP3 ADD MSTORE PUSH14 0x141A1BDB99481C995C5D5A5C9959 PUSH1 0x92 SHL PUSH1 0x44 DUP3 ADD MSTORE REVERT JUMPDEST PUSH1 0x64 SWAP1 PUSH1 0x14 PUSH1 0x40 MLOAD SWAP2 PUSH3 0x461BCD PUSH1 0xE5 SHL DUP4 MSTORE PUSH1 0x20 PUSH1 0x4 DUP5 ADD MSTORE DUP3 ADD MSTORE PUSH20 0x141BDCDD185B0818DBD919481C995C5D5A5C9959 PUSH1 0x62 SHL PUSH1 0x44 DUP3 ADD MSTORE REVERT JUMPDEST PUSH1 0x64 SWAP1 PUSH1 0x10 PUSH1 0x40 MLOAD SWAP2 PUSH3 0x461BCD PUSH1 0xE5 SHL DUP4 MSTORE PUSH1 0x20 PUSH1 0x4 DUP5 ADD MSTORE DUP3 ADD MSTORE PUSH16 0x10DBDD5B9D1C9E481C995C5D5A5C9959 PUSH1 0x82 SHL PUSH1 0x44 DUP3 ADD MSTORE REVERT JUMPDEST PUSH1 0x64 SWAP1 PUSH1 0xE PUSH1 0x40 MLOAD SWAP2 PUSH3 0x461BCD PUSH1 0xE5 SHL DUP4 MSTORE PUSH1 0x20 PUSH1 0x4 DUP5 ADD MSTORE DUP3 ADD MSTORE PUSH14 0x14DD185D19481C995C5D5A5C9959 PUSH1 0x92 SHL PUSH1 0x44 DUP3 ADD MSTORE REVERT JUMPDEST PUSH1 0x64 SWAP1 PUSH1 0xD PUSH1 0x40 MLOAD SWAP2 PUSH3 0x461BCD PUSH1 0xE5 SHL DUP4 MSTORE PUSH1 0x20 PUSH1 0x4 DUP5 ADD MSTORE DUP3 ADD MSTORE PUSH13 0x10DA5D1E481C995C5D5A5C9959 PUSH1 0x9A SHL PUSH1 0x44 DUP3 ADD MSTORE REVERT JUMPDEST PUSH1 0x64 SWAP1 PUSH1 0x17 PUSH1 0x40 MLOAD SWAP2 PUSH3 0x461BCD PUSH1 0xE5 SHL DUP4 MSTORE PUSH1 0x20 PUSH1 0x4 DUP5 ADD MSTORE DUP3 ADD MSTORE PUSH32 0x5374726565742061646472657373207265717569726564000000000000000000 PUSH1 0x44 DUP3 ADD MSTORE REVERT JUMPDEST PUSH1 0x64 SWAP1 PUSH1 0x12 PUSH1 0x40 MLOAD SWAP2 PUSH3 0x461BCD PUSH1 0xE5 SHL DUP4 MSTORE PUSH1 0x20 PUSH1 0x4 DUP5 ADD MSTORE DUP3 ADD MSTORE PUSH18 0x119D5B1B081B985B59481C995C5D5A5C9959 PUSH1 0x72 SHL PUSH1 0x44 DUP3 ADD MSTORE REVERT JUMPDEST PUSH1 0x64 SWAP1 PUSH1 0x1B PUSH1 0x40 MLOAD SWAP2 PUSH3 0x461BCD PUSH1 0xE5 SHL DUP4 MSTORE PUSH1 0x20 PUSH1 0x4 DUP5 ADD MSTORE DUP3 ADD MSTORE PUSH32 0x43616E6E6F742062757920796F7572206F776E2070726F647563740000000000 PUSH1 0x44 DUP3 ADD MSTORE REVERT JUMPDEST PUSH1 0x64 SWAP1 PUSH1 0x1A PUSH1 0x40 MLOAD SWAP2 PUSH3 0x461BCD PUSH1 0xE5 SHL DUP4 MSTORE PUSH1 0x20 PUSH1 0x4 DUP5 ADD MSTORE DUP3 ADD MSTORE PUSH32 0x50726F6475637420697320616C726561647920736F6C646F7574000000000000 PUSH1 0x44 DUP3 ADD MSTORE REVERT JUMPDEST PUSH1 0x64 SWAP1 PUSH1 0x17 PUSH1 0x40 MLOAD SWAP2 PUSH3 0x461BCD PUSH1 0xE5 SHL DUP4 MSTORE PUSH1 0x20 PUSH1 0x4 DUP5 ADD MSTORE DUP3 ADD MSTORE PUSH32 0x50726F64756374206973206F7574206F662073746F636B000000000000000000 PUSH1 0x44 DUP3 ADD MSTORE REVERT JUMPDEST PUSH1 0x64 SWAP1 PUSH1 0x16 PUSH1 0x40 MLOAD SWAP2 PUSH3 0x461BCD PUSH1 0xE5 SHL DUP4 MSTORE PUSH1 0x20 PUSH1 0x4 DUP5 ADD MSTORE DUP3 ADD MSTORE PUSH22 0x14D95B1B195C881A5CC81B9BDD081D995C9A599A5959 PUSH1 0x52 SHL PUSH1 0x44 DUP3 ADD MSTORE REVERT JUMPDEST PUSH1 0x64 SWAP1 PUSH1 0x1F PUSH1 0x40 MLOAD SWAP2 PUSH3 0x461BCD PUSH1 0xE5 SHL DUP4 MSTORE PUSH1 0x20 PUSH1 0x4 DUP5 ADD MSTORE DUP3 ADD MSTORE PUSH32 0x5265656E7472616E637947756172643A207265656E7472616E742063616C6C00 PUSH1 0x44 DUP3 ADD MSTORE REVERT JUMPDEST CALLVALUE PUSH2 0x507 JUMPI PUSH1 0x20 CALLDATASIZE PUSH1 0x3 NOT ADD SLT PUSH2 0x507 JUMPI PUSH1 0x20 PUSH2 0x377D PUSH1 0x4 CALLDATALOAD PUSH2 0x52C1 JUMP JUMPDEST PUSH1 0x40 MLOAD PUSH1 0x1 PUSH1 0x1 PUSH1 0xA0 SHL SUB SWAP1 SWAP2 AND DUP2 MSTORE RETURN JUMPDEST CALLVALUE PUSH2 0x507 JUMPI PUSH1 0x20 CALLDATASIZE PUSH1 0x3 NOT ADD SLT PUSH2 0x507 JUMPI PUSH1 0x1 PUSH1 0x1 PUSH1 0xA0 SHL SUB PUSH2 0x37B0 PUSH2 0x4D41 JUMP JUMPDEST AND PUSH1 0x0 MSTORE PUSH1 0xE PUSH1 0x20 MSTORE PUSH1 0x20 PUSH1 0x40 PUSH1 0x0 KECCAK256 SLOAD PUSH1 0x40 MLOAD SWAP1 DUP2 MSTORE RETURN JUMPDEST CALLVALUE PUSH2 0x507 JUMPI PUSH1 0x20 CALLDATASIZE PUSH1 0x3 NOT ADD SLT PUSH2 0x507 JUMPI PUSH2 0x37E2 PUSH2 0x4D41 JUMP JUMPDEST PUSH2 0x37EA PUSH2 0x521D JUMP JUMPDEST PUSH1 0x8 SLOAD PUSH1 0x0 PUSH1 0x1 JUMPDEST DUP3 DUP2 GT ISZERO PUSH2 0x3A45 JUMPI POP PUSH2 0x3804 SWAP1 PUSH2 0x6026 JUMP JUMPDEST SWAP1 PUSH1 0x1 PUSH1 0x0 JUMPDEST DUP3 DUP3 GT ISZERO PUSH2 0x3820 JUMPI PUSH1 0x40 MLOAD DUP1 PUSH2 0x26C DUP7 DUP3 PUSH2 0x4CDF JUMP JUMPDEST PUSH1 0x0 DUP3 DUP2 MSTORE PUSH1 0xC PUSH1 0x20 MSTORE PUSH1 0x40 SWAP1 KECCAK256 PUSH1 0x1 DUP2 ADD SLOAD PUSH1 0x1 PUSH1 0x1 PUSH1 0xA0 SHL SUB SWAP1 DUP2 AND SWAP2 SWAP1 DUP8 AND DUP3 EQ DUP1 PUSH2 0x3A33 JUMPI JUMPDEST PUSH2 0x3861 JUMPI JUMPDEST POP POP SWAP1 PUSH2 0x385B SWAP1 PUSH2 0x5FB3 JUMP JUMPDEST SWAP1 PUSH2 0x380A JUMP JUMPDEST PUSH1 0x40 MLOAD SWAP2 PUSH2 0x386E DUP4 PUSH2 0x4D6D JUMP JUMPDEST DUP2 SLOAD DUP4 MSTORE PUSH1 0x20 DUP4 ADD MSTORE PUSH2 0x3883 PUSH1 0x2 DUP3 ADD PUSH2 0x5051 JUMP JUMPDEST PUSH1 0x40 DUP4 ADD MSTORE PUSH2 0x3894 PUSH1 0x3 DUP3 ADD PUSH2 0x5051 JUMP JUMPDEST PUSH1 0x60 DUP4 ADD MSTORE PUSH1 0x4 DUP2 ADD SLOAD PUSH1 0x80 DUP4 ADD MSTORE PUSH1 0x5 DUP2 ADD SLOAD PUSH1 0xA0 DUP4 ADD MSTORE PUSH2 0x38B9 PUSH1 0x6 DUP3 ADD PUSH2 0x5051 JUMP JUMPDEST PUSH1 0xC0 DUP4 ADD MSTORE PUSH2 0x38CA PUSH1 0x7 DUP3 ADD PUSH2 0x5051 JUMP JUMPDEST PUSH1 0xE0 DUP4 ADD MSTORE PUSH1 0x8 DUP2 ADD DUP1 SLOAD PUSH2 0x38DE DUP2 PUSH2 0x5C6B JUMP JUMPDEST SWAP2 PUSH2 0x38EC PUSH1 0x40 MLOAD SWAP4 DUP5 PUSH2 0x4DDB JUMP JUMPDEST DUP2 DUP4 MSTORE PUSH1 0x20 DUP4 ADD SWAP1 PUSH1 0x0 MSTORE PUSH1 0x20 PUSH1 0x0 KECCAK256 SWAP1 PUSH1 0x0 SWAP1 JUMPDEST DUP4 DUP3 LT PUSH2 0x3A16 JUMPI POP POP POP POP PUSH2 0x100 DUP4 ADD MSTORE PUSH2 0x391E PUSH1 0x9 DUP3 ADD PUSH2 0x5051 JUMP JUMPDEST PUSH2 0x120 DUP4 ADD MSTORE PUSH2 0x3930 PUSH1 0xA DUP3 ADD PUSH2 0x5051 JUMP JUMPDEST PUSH2 0x140 DUP4 ADD MSTORE PUSH1 0xB DUP2 ADD SLOAD PUSH2 0x160 DUP4 ADD MSTORE PUSH2 0x394D PUSH1 0xC DUP3 ADD PUSH2 0x5051 JUMP JUMPDEST PUSH2 0x180 DUP4 ADD MSTORE PUSH2 0x395F PUSH1 0xD DUP3 ADD PUSH2 0x5051 JUMP JUMPDEST PUSH2 0x1A0 DUP4 ADD MSTORE PUSH1 0xE DUP2 ADD SLOAD PUSH2 0x1C0 DUP4 ADD MSTORE PUSH1 0xF DUP2 ADD SLOAD SWAP1 PUSH1 0xFF DUP1 DUP4 AND ISZERO ISZERO PUSH2 0x1E0 DUP6 ADD MSTORE DUP1 DUP4 PUSH1 0x8 SHR AND ISZERO ISZERO PUSH2 0x200 DUP6 ADD MSTORE PUSH1 0x10 SWAP3 DUP4 SHR AND ISZERO ISZERO PUSH2 0x220 DUP5 ADD MSTORE ADD DUP1 SLOAD SWAP1 PUSH2 0x39AC DUP3 PUSH2 0x5C6B JUMP JUMPDEST SWAP2 PUSH2 0x39BA PUSH1 0x40 MLOAD SWAP4 DUP5 PUSH2 0x4DDB JUMP JUMPDEST DUP1 DUP4 MSTORE PUSH1 0x20 DUP4 ADD SWAP2 PUSH1 0x0 MSTORE PUSH1 0x20 PUSH1 0x0 KECCAK256 PUSH1 0x0 SWAP3 JUMPDEST DUP3 DUP5 LT PUSH2 0x39F8 JUMPI POP POP POP POP PUSH2 0x240 DUP3 ADD MSTORE PUSH2 0x385B SWAP2 PUSH2 0x39F1 SWAP2 PUSH2 0x43F DUP3 DUP9 PUSH2 0x5FC2 JUMP JUMPDEST SWAP1 DUP7 PUSH2 0x384F JUMP JUMPDEST PUSH1 0x5 PUSH1 0x20 PUSH1 0x1 SWAP3 PUSH2 0x3A08 DUP6 PUSH2 0x5FD6 JUMP JUMPDEST DUP2 MSTORE ADD SWAP3 ADD SWAP4 ADD SWAP3 SWAP1 PUSH2 0x39CE JUMP JUMPDEST PUSH1 0x1 PUSH1 0x20 DUP2 SWAP3 PUSH2 0x3A25 DUP7 PUSH2 0x5051 JUMP JUMPDEST DUP2 MSTORE ADD SWAP4 ADD SWAP2 ADD SWAP1 SWAP2 PUSH2 0x3901 JUMP JUMPDEST POP PUSH1 0xFF PUSH1 0xF DUP3 ADD SLOAD PUSH1 0x10 SHR AND ISZERO PUSH2 0x384A JUMP JUMPDEST PUSH1 0x0 DUP2 DUP2 MSTORE PUSH1 0xC PUSH1 0x20 MSTORE PUSH1 0x40 SWAP1 KECCAK256 PUSH1 0x1 DUP2 ADD SLOAD PUSH1 0x1 PUSH1 0x1 PUSH1 0xA0 SHL SUB DUP7 DUP2 AND SWAP2 AND EQ SWAP1 DUP2 PUSH2 0x3A96 JUMPI JUMPDEST POP PUSH2 0x3A81 JUMPI JUMPDEST PUSH2 0x3A7C SWAP1 PUSH2 0x5FB3 JUMP JUMPDEST PUSH2 0x37F2 JUMP JUMPDEST SWAP1 PUSH2 0x3A8E PUSH2 0x3A7C SWAP2 PUSH2 0x5FB3 JUMP JUMPDEST SWAP2 SWAP1 POP PUSH2 0x3A73 JUMP JUMPDEST PUSH1 0xFF SWAP2 POP PUSH1 0xF ADD SLOAD PUSH1 0x10 SHR AND ISZERO DUP6 PUSH2 0x3A6D JUMP JUMPDEST CALLVALUE PUSH2 0x507 JUMPI PUSH1 0x0 CALLDATASIZE PUSH1 0x3 NOT ADD SLT PUSH2 0x507 JUMPI CALLER PUSH1 0x0 MSTORE PUSH1 0x12 PUSH1 0x20 MSTORE PUSH1 0xFF PUSH1 0x40 PUSH1 0x0 KECCAK256 SLOAD AND PUSH2 0x3B2C JUMPI CALLER PUSH1 0x0 MSTORE PUSH1 0x12 PUSH1 0x20 MSTORE PUSH1 0x40 PUSH1 0x0 KECCAK256 PUSH1 0xFF NOT SWAP1 PUSH1 0x1 DUP3 DUP3 SLOAD AND OR SWAP1 SSTORE PUSH1 0xF PUSH1 0x20 MSTORE PUSH1 0x1 PUSH1 0x40 PUSH1 0x0 KECCAK256 SWAP2 DUP3 SLOAD AND OR SWAP1 SSTORE PUSH1 0x40 MLOAD TIMESTAMP DUP2 MSTORE PUSH32 0xA1A1A78FF3033D5EE8393372052AEB2A16BBB347A29F3780370E9506C109E372 PUSH1 0x20 CALLER SWAP3 LOG2 STOP JUMPDEST PUSH1 0x40 MLOAD PUSH3 0x461BCD PUSH1 0xE5 SHL DUP2 MSTORE PUSH1 0x20 PUSH1 0x4 DUP3 ADD MSTORE PUSH1 0x12 PUSH1 0x24 DUP3 ADD MSTORE PUSH18 0x105B1C9958591E481C9959DA5CDD195C9959 PUSH1 0x72 SHL PUSH1 0x44 DUP3 ADD MSTORE PUSH1 0x64 SWAP1 REVERT JUMPDEST CALLVALUE PUSH2 0x507 JUMPI PUSH1 0x20 CALLDATASIZE PUSH1 0x3 NOT ADD SLT PUSH2 0x507 JUMPI PUSH1 0x1 PUSH1 0x1 PUSH1 0xA0 SHL SUB PUSH2 0x3B87 PUSH2 0x4D41 JUMP JUMPDEST AND PUSH1 0x0 MSTORE PUSH1 0xF PUSH1 0x20 MSTORE PUSH2 0x26C PUSH1 0xFF PUSH1 0x40 PUSH1 0x0 KECCAK256 SLOAD AND PUSH1 0x40 MLOAD SWAP2 DUP3 SWAP2 DUP3 PUSH2 0x5004 JUMP JUMPDEST CALLVALUE PUSH2 0x507 JUMPI PUSH2 0xC68 PUSH2 0x3BB9 CALLDATASIZE PUSH2 0x4E69 JUMP JUMPDEST SWAP1 PUSH1 0x40 MLOAD SWAP3 PUSH2 0x3BC7 DUP5 PUSH2 0x4DC0 JUMP JUMPDEST PUSH1 0x0 DUP5 MSTORE PUSH2 0x5384 JUMP JUMPDEST CALLVALUE PUSH2 0x507 JUMPI PUSH1 0x0 CALLDATASIZE PUSH1 0x3 NOT ADD SLT PUSH2 0x507 JUMPI CALLER PUSH1 0x0 MSTORE PUSH1 0xF PUSH1 0x20 MSTORE PUSH1 0xFF PUSH1 0x40 PUSH1 0x0 KECCAK256 SLOAD AND PUSH1 0x4 DUP2 LT ISZERO PUSH2 0x74E JUMPI PUSH1 0x2 EQ DUP1 ISZERO PUSH2 0x3CF2 JUMPI JUMPDEST PUSH2 0x3C0F SWAP1 PUSH2 0x5727 JUMP JUMPDEST CALLER PUSH1 0x0 MSTORE PUSH1 0xE PUSH1 0x20 MSTORE PUSH1 0x40 PUSH1 0x0 KECCAK256 SLOAD DUP1 ISZERO PUSH2 0x3CB4 JUMPI PUSH1 0xB SLOAD SWAP1 DUP2 DUP2 MUL SWAP2 DUP2 DUP4 DIV SUB PUSH2 0x3C9E JUMPI PUSH2 0x3C69 PUSH2 0x3C48 PUSH1 0x64 PUSH2 0x3C6F SWAP5 DIV DUP1 SWAP4 PUSH2 0x6076 JUMP JUMPDEST SWAP2 CALLER PUSH1 0x0 MSTORE PUSH1 0xE PUSH1 0x20 MSTORE PUSH1 0x0 PUSH1 0x40 DUP2 KECCAK256 SSTORE PUSH1 0x1 DUP1 PUSH1 0xA0 SHL SUB PUSH1 0x0 SLOAD AND PUSH2 0x68EF JUMP JUMPDEST CALLER PUSH2 0x68EF JUMP JUMPDEST PUSH1 0x40 MLOAD PUSH1 0x0 DUP2 MSTORE PUSH32 0x8AD64A0AC7700DD8425AB0499F107CB6E2CD1581D803C5B8C1C79DCB8190B1AF PUSH1 0x20 CALLER SWAP3 LOG2 STOP JUMPDEST PUSH4 0x4E487B71 PUSH1 0xE0 SHL PUSH1 0x0 MSTORE PUSH1 0x11 PUSH1 0x4 MSTORE PUSH1 0x24 PUSH1 0x0 REVERT JUMPDEST PUSH1 0x40 MLOAD PUSH3 0x461BCD PUSH1 0xE5 SHL DUP2 MSTORE PUSH1 0x20 PUSH1 0x4 DUP3 ADD MSTORE PUSH1 0x16 PUSH1 0x24 DUP3 ADD MSTORE PUSH22 0x4E6F2062616C616E636520746F207769746864726177 PUSH1 0x50 SHL PUSH1 0x44 DUP3 ADD MSTORE PUSH1 0x64 SWAP1 REVERT JUMPDEST POP PUSH1 0x0 SLOAD PUSH1 0x1 PUSH1 0x1 PUSH1 0xA0 SHL SUB AND CALLER EQ PUSH2 0x3C06 JUMP JUMPDEST CALLVALUE PUSH2 0x507 JUMPI PUSH1 0x20 CALLDATASIZE PUSH1 0x3 NOT ADD SLT PUSH2 0x507 JUMPI PUSH2 0x26C PUSH2 0x876 PUSH2 0x871 PUSH2 0x4D41 JUMP JUMPDEST CALLVALUE PUSH2 0x507 JUMPI PUSH1 0x40 CALLDATASIZE PUSH1 0x3 NOT ADD SLT PUSH2 0x507 JUMPI PUSH1 0x24 DUP1 CALLDATALOAD PUSH1 0x4 CALLDATALOAD PUSH1 0x0 DUP1 JUMPDEST DUP3 PUSH1 0x0 MSTORE PUSH1 0xC PUSH1 0x20 SWAP1 DUP1 DUP3 MSTORE PUSH1 0x10 SWAP2 DUP3 PUSH1 0x40 PUSH1 0x0 KECCAK256 ADD DUP1 SLOAD DUP6 LT ISZERO PUSH2 0x3F3D JUMPI PUSH2 0x3D6B DUP6 DUP10 SWAP3 PUSH2 0x5F97 JUMP JUMPDEST POP SLOAD EQ PUSH2 0x3D83 JUMPI POP POP POP PUSH2 0x3D7E SWAP1 PUSH2 0x5FB3 JUMP JUMPDEST PUSH2 0x3D41 JUMP JUMPDEST SWAP2 SWAP4 POP SWAP2 SWAP4 SWAP5 PUSH1 0x0 MSTORE PUSH1 0x14 DUP2 MSTORE PUSH1 0xFF SWAP5 DUP6 PUSH1 0x40 PUSH1 0x0 KECCAK256 SLOAD AND ISZERO PUSH2 0x3F01 JUMPI DUP1 PUSH1 0x0 MSTORE DUP3 DUP3 MSTORE PUSH2 0x3DB7 DUP6 DUP6 PUSH1 0x40 PUSH1 0x0 KECCAK256 ADD PUSH2 0x5F97 JUMP JUMPDEST POP PUSH1 0x1 SWAP1 DUP2 ADD SLOAD SWAP1 SWAP7 SWAP1 CALLER PUSH1 0x1 PUSH1 0x1 PUSH1 0xA0 SHL SUB SWAP2 DUP3 AND EQ SWAP1 DUP2 ISZERO PUSH2 0x3EF3 JUMPI JUMPDEST POP ISZERO PUSH2 0x3E9E JUMPI DUP2 PUSH1 0x0 MSTORE DUP4 DUP4 MSTORE PUSH1 0x4 PUSH2 0x3DF5 DUP8 DUP8 PUSH1 0x40 PUSH1 0x0 KECCAK256 ADD PUSH2 0x5F97 JUMP JUMPDEST POP ADD SLOAD AND PUSH2 0x3E61 JUMPI SWAP2 PUSH2 0x3E16 SWAP4 SWAP2 PUSH1 0x4 SWAP6 SWAP4 PUSH1 0x0 MSTORE MSTORE PUSH1 0x40 PUSH1 0x0 KECCAK256 ADD PUSH2 0x5F97 JUMP JUMPDEST POP ADD DUP1 SLOAD PUSH1 0xFF NOT AND DUP3 OR SWAP1 SSTORE JUMPDEST ISZERO PUSH2 0x3E2A JUMPI STOP JUMPDEST PUSH1 0x64 SWAP1 PUSH1 0x10 PUSH1 0x40 MLOAD SWAP2 PUSH3 0x461BCD PUSH1 0xE5 SHL DUP4 MSTORE PUSH1 0x20 PUSH1 0x4 DUP5 ADD MSTORE DUP3 ADD MSTORE PUSH16 0x14995D9A595DC81B9BDD08199BDD5B99 PUSH1 0x82 SHL PUSH1 0x44 DUP3 ADD MSTORE REVERT JUMPDEST PUSH1 0x40 MLOAD PUSH3 0x461BCD PUSH1 0xE5 SHL DUP2 MSTORE PUSH1 0x4 DUP2 ADD DUP4 SWAP1 MSTORE PUSH1 0x16 DUP2 DUP10 ADD MSTORE PUSH22 0x14995D9A595DC8185B1C9958591E4819195B195D1959 PUSH1 0x52 SHL PUSH1 0x44 DUP3 ADD MSTORE PUSH1 0x64 SWAP1 REVERT JUMPDEST PUSH1 0x40 MLOAD PUSH3 0x461BCD PUSH1 0xE5 SHL DUP2 MSTORE PUSH1 0x4 DUP2 ADD DUP5 SWAP1 MSTORE PUSH1 0x28 DUP2 DUP11 ADD MSTORE PUSH32 0x4F6E6C79207265766965776572206F72206F776E65722063616E2064656C6574 PUSH1 0x44 DUP3 ADD MSTORE PUSH8 0x6520726576696577 PUSH1 0xC0 SHL PUSH1 0x64 DUP3 ADD MSTORE PUSH1 0x84 SWAP1 REVERT JUMPDEST PUSH1 0x0 SLOAD AND CALLER EQ SWAP1 POP DUP10 PUSH2 0x3DD6 JUMP JUMPDEST PUSH1 0x40 MLOAD PUSH3 0x461BCD PUSH1 0xE5 SHL DUP2 MSTORE PUSH1 0x4 DUP2 ADD DUP4 SWAP1 MSTORE PUSH1 0x15 DUP2 DUP10 ADD MSTORE PUSH21 0x14995D9A595DC8191BD95CC81B9BDD08195E1A5CDD PUSH1 0x5A SHL PUSH1 0x44 DUP3 ADD MSTORE PUSH1 0x64 SWAP1 REVERT JUMPDEST POP POP POP POP POP SWAP2 POP POP PUSH2 0x3E23 JUMP JUMPDEST CALLVALUE PUSH2 0x507 JUMPI PUSH2 0xC68 PUSH2 0x3F5B CALLDATASIZE PUSH2 0x4E69 JUMP JUMPDEST SWAP2 PUSH2 0x3F6E PUSH2 0x3F69 DUP5 CALLER PUSH2 0x541F JUMP JUMPDEST PUSH2 0x5322 JUMP JUMPDEST PUSH2 0x54E7 JUMP JUMPDEST CALLVALUE PUSH2 0x507 JUMPI PUSH1 0x20 CALLDATASIZE PUSH1 0x3 NOT ADD SLT PUSH2 0x507 JUMPI PUSH1 0x20 PUSH2 0x3FAC PUSH2 0x3F91 PUSH2 0x4D41 JUMP JUMPDEST PUSH1 0x1 PUSH1 0x1 PUSH1 0xA0 SHL SUB AND PUSH1 0x0 SWAP1 DUP2 MSTORE PUSH1 0xE PUSH1 0x20 MSTORE PUSH1 0x40 SWAP1 KECCAK256 SLOAD SWAP1 JUMP JUMPDEST PUSH1 0x40 MLOAD SWAP1 DUP2 MSTORE RETURN JUMPDEST CALLVALUE PUSH2 0x507 JUMPI PUSH1 0x60 CALLDATASIZE PUSH1 0x3 NOT ADD SLT PUSH2 0x507 JUMPI PUSH1 0x24 DUP1 CALLDATALOAD PUSH1 0x4 CALLDATALOAD PUSH1 0x44 CALLDATALOAD PUSH1 0x1 PUSH1 0x1 PUSH1 0x40 SHL SUB DUP2 GT PUSH2 0x507 JUMPI PUSH2 0x3FEB SWAP1 CALLDATASIZE SWAP1 PUSH1 0x4 ADD PUSH2 0x4E4E JUMP JUMPDEST SWAP1 DUP1 PUSH1 0x0 MSTORE PUSH1 0x20 SWAP2 PUSH1 0xC DUP4 MSTORE PUSH1 0x1 DUP1 PUSH1 0xA0 SHL SUB PUSH1 0x1 PUSH1 0x40 PUSH1 0x0 KECCAK256 ADD SLOAD AND CALLER EQ PUSH2 0x4144 JUMPI DUP4 ISZERO ISZERO DUP1 PUSH2 0x4139 JUMPI JUMPDEST ISZERO PUSH2 0x40F5 JUMPI DUP1 MLOAD ISZERO PUSH2 0x40B1 JUMPI SWAP1 PUSH1 0xC SWAP3 SWAP2 PUSH1 0x1 PUSH1 0xA SLOAD ADD SWAP1 DUP2 PUSH1 0xA SSTORE PUSH2 0x403B PUSH2 0x5F6C JUMP JUMPDEST SWAP6 DUP3 DUP8 MSTORE CALLER DUP6 DUP9 ADD MSTORE PUSH1 0x40 DUP8 ADD MSTORE PUSH1 0x60 DUP7 ADD MSTORE PUSH1 0x0 MSTORE PUSH1 0x14 DUP3 MSTORE PUSH1 0x40 PUSH1 0x0 KECCAK256 PUSH1 0x1 PUSH1 0xFF NOT DUP3 SLOAD AND OR SWAP1 SSTORE PUSH1 0x0 MSTORE MSTORE PUSH1 0x10 PUSH1 0x40 PUSH1 0x0 KECCAK256 ADD DUP1 SLOAD PUSH1 0x1 PUSH1 0x40 SHL DUP2 LT ISZERO PUSH2 0x1525 JUMPI PUSH2 0x408E SWAP2 PUSH1 0x1 DUP3 ADD DUP2 SSTORE PUSH2 0x5F97 JUMP JUMPDEST PUSH2 0x409C JUMPI PUSH2 0xC68 SWAP3 POP PUSH2 0x5D70 JUMP JUMPDEST DUP3 PUSH4 0x4E487B71 PUSH1 0xE0 SHL PUSH1 0x0 MSTORE PUSH1 0x0 PUSH1 0x4 MSTORE PUSH1 0x0 REVERT JUMPDEST PUSH1 0x40 MLOAD PUSH3 0x461BCD PUSH1 0xE5 SHL DUP2 MSTORE PUSH1 0x4 DUP2 ADD DUP5 SWAP1 MSTORE PUSH1 0x17 DUP2 DUP8 ADD MSTORE PUSH32 0x436F6D6D656E742063616E6E6F7420626520656D707479000000000000000000 PUSH1 0x44 DUP3 ADD MSTORE PUSH1 0x64 SWAP1 REVERT JUMPDEST PUSH1 0x40 MLOAD PUSH3 0x461BCD PUSH1 0xE5 SHL DUP2 MSTORE PUSH1 0x4 DUP2 ADD DUP5 SWAP1 MSTORE PUSH1 0x1E DUP2 DUP8 ADD MSTORE PUSH32 0x526174696E67206D757374206265206265747765656E203120616E6420350000 PUSH1 0x44 DUP3 ADD MSTORE PUSH1 0x64 SWAP1 REVERT JUMPDEST POP PUSH1 0x5 DUP5 GT ISZERO PUSH2 0x4017 JUMP JUMPDEST PUSH1 0x40 MLOAD PUSH3 0x461BCD PUSH1 0xE5 SHL DUP2 MSTORE PUSH1 0x4 DUP2 ADD DUP5 SWAP1 MSTORE PUSH1 0x26 DUP2 DUP8 ADD MSTORE PUSH32 0x53656C6C65722063616E6E6F7420726576696577207468656972206F776E2070 PUSH1 0x44 DUP3 ADD MSTORE PUSH6 0x1C9BD91D58DD PUSH1 0xD2 SHL PUSH1 0x64 DUP3 ADD MSTORE PUSH1 0x84 SWAP1 REVERT JUMPDEST CALLVALUE PUSH2 0x507 JUMPI PUSH1 0x40 CALLDATASIZE PUSH1 0x3 NOT ADD SLT PUSH2 0x507 JUMPI PUSH1 0x4 CALLDATALOAD PUSH2 0x41B3 PUSH2 0x4D57 JUMP JUMPDEST SWAP1 CALLER PUSH1 0x0 MSTORE PUSH1 0x20 SWAP2 PUSH1 0xF DUP4 MSTORE PUSH1 0xFF SWAP2 DUP3 PUSH1 0x40 PUSH1 0x0 KECCAK256 SLOAD AND PUSH1 0x4 DUP2 LT ISZERO PUSH2 0x74E JUMPI PUSH1 0x2 EQ DUP1 ISZERO PUSH2 0x44BC JUMPI JUMPDEST PUSH2 0x41E9 SWAP1 SWAP5 SWAP4 SWAP5 PUSH2 0x5727 JUMP JUMPDEST PUSH1 0x1 PUSH1 0x1 PUSH1 0xA0 SHL SUB SWAP2 DUP3 AND SWAP4 PUSH1 0x0 SWAP4 SWAP1 DUP5 JUMPDEST DUP7 PUSH1 0x0 MSTORE PUSH1 0x10 DUP1 DUP5 MSTORE PUSH1 0x40 PUSH1 0x0 KECCAK256 DUP1 SLOAD DUP4 LT ISZERO PUSH2 0x44B0 JUMPI PUSH2 0x421D DUP4 DUP8 SWAP3 PUSH2 0x50F7 JUMP JUMPDEST POP SLOAD EQ PUSH2 0x4233 JUMPI POP PUSH2 0x422E SWAP1 PUSH2 0x5FB3 JUMP JUMPDEST PUSH2 0x41FB JUMP JUMPDEST SWAP1 SWAP2 SWAP3 SWAP4 SWAP5 SWAP6 POP DUP7 PUSH1 0x0 MSTORE DUP1 DUP5 MSTORE PUSH2 0x424F DUP3 PUSH1 0x40 PUSH1 0x0 KECCAK256 PUSH2 0x50F7 JUMP JUMPDEST POP SWAP3 PUSH1 0x5 DUP1 SWAP5 ADD SLOAD PUSH1 0xA0 SHR AND PUSH2 0x446B JUMPI DUP7 PUSH1 0x0 MSTORE DUP1 DUP5 MSTORE PUSH2 0x4274 DUP3 PUSH1 0x40 PUSH1 0x0 KECCAK256 PUSH2 0x50F7 JUMP JUMPDEST POP DUP4 ADD SLOAD DUP7 AND CALLER EQ DUP1 ISZERO PUSH2 0x445E JUMPI JUMPDEST ISZERO PUSH2 0x4406 JUMPI SWAP1 PUSH2 0x429D SWAP2 DUP8 PUSH1 0x0 MSTORE DUP5 MSTORE PUSH1 0x40 PUSH1 0x0 KECCAK256 PUSH2 0x50F7 JUMP JUMPDEST POP ADD DUP1 SLOAD PUSH1 0xFF PUSH1 0xA0 SHL NOT AND PUSH1 0x1 PUSH1 0xA0 SHL OR SWAP1 SSTORE PUSH1 0x1 JUMPDEST ISZERO PUSH2 0x43CD JUMPI DUP2 PUSH1 0x0 MSTORE PUSH1 0xC DUP2 MSTORE PUSH1 0x1 SWAP3 DUP1 DUP5 PUSH1 0x40 PUSH1 0x0 KECCAK256 ADD SLOAD AND DUP5 PUSH1 0x0 SWAP1 JUMPDEST PUSH2 0x4306 JUMPI JUMPDEST POP POP POP PUSH32 0xF9DC8543B583E01F592678422369B2777E3649761F5808AE432CB1C24CA9438C SWAP2 SWAP3 PUSH1 0x40 MLOAD SWAP1 DUP2 MSTORE LOG3 STOP JUMPDEST DUP2 PUSH1 0x0 MSTORE PUSH1 0x11 DUP1 DUP6 MSTORE PUSH1 0x40 PUSH1 0x0 KECCAK256 DUP1 SLOAD DUP4 LT ISZERO PUSH2 0x43C6 JUMPI PUSH2 0x4328 DUP4 DUP9 SWAP3 PUSH2 0x50F7 JUMP JUMPDEST POP SLOAD EQ DUP1 PUSH2 0x43A2 JUMPI JUMPDEST PUSH2 0x434A JUMPI POP SWAP1 PUSH2 0x4342 DUP7 SWAP4 SWAP3 PUSH2 0x5FB3 JUMP JUMPDEST SWAP1 SWAP2 SWAP3 PUSH2 0x42D2 JUMP JUMPDEST PUSH32 0xF9DC8543B583E01F592678422369B2777E3649761F5808AE432CB1C24CA9438C SWAP6 SWAP7 SWAP4 POP SWAP1 PUSH2 0x4386 SWAP2 PUSH1 0x5 SWAP4 PUSH1 0x0 MSTORE DUP6 MSTORE PUSH1 0x40 PUSH1 0x0 KECCAK256 PUSH2 0x50F7 JUMP JUMPDEST POP ADD DUP1 SLOAD PUSH1 0xFF PUSH1 0xA0 SHL NOT AND PUSH1 0x1 PUSH1 0xA0 SHL OR SWAP1 SSTORE SWAP3 SWAP2 DUP6 DUP1 PUSH2 0x42D7 JUMP JUMPDEST POP DUP3 PUSH1 0x0 MSTORE DUP1 DUP6 MSTORE DUP8 DUP5 PUSH1 0x4 PUSH2 0x43BC DUP6 PUSH1 0x40 PUSH1 0x0 KECCAK256 PUSH2 0x50F7 JUMP JUMPDEST POP ADD SLOAD AND EQ PUSH2 0x4331 JUMP JUMPDEST POP POP PUSH2 0x42D7 JUMP JUMPDEST PUSH1 0x64 SWAP1 PUSH1 0x40 MLOAD SWAP1 PUSH3 0x461BCD PUSH1 0xE5 SHL DUP3 MSTORE PUSH1 0x4 DUP3 ADD MSTORE PUSH1 0x12 PUSH1 0x24 DUP3 ADD MSTORE PUSH18 0x141D5C98DA185CD9481B9BDD08199BDD5B99 PUSH1 0x72 SHL PUSH1 0x44 DUP3 ADD MSTORE REVERT JUMPDEST PUSH1 0x40 MLOAD PUSH3 0x461BCD PUSH1 0xE5 SHL DUP2 MSTORE PUSH1 0x4 DUP2 ADD DUP6 SWAP1 MSTORE PUSH1 0x2A PUSH1 0x24 DUP3 ADD MSTORE PUSH32 0x4F6E6C792073656C6C6572206F72206F776E65722063616E206D61726B206173 PUSH1 0x44 DUP3 ADD MSTORE PUSH10 0x819195B1A5D995C9959 PUSH1 0xB2 SHL PUSH1 0x64 DUP3 ADD MSTORE PUSH1 0x84 SWAP1 REVERT JUMPDEST POP CALLER DUP7 PUSH1 0x0 SLOAD AND EQ PUSH2 0x4283 JUMP JUMPDEST PUSH1 0x40 MLOAD PUSH3 0x461BCD PUSH1 0xE5 SHL DUP2 MSTORE PUSH1 0x4 DUP2 ADD DUP6 SWAP1 MSTORE PUSH1 0x1B PUSH1 0x24 DUP3 ADD MSTORE PUSH32 0x416C7265616479206D61726B65642061732064656C6976657265640000000000 PUSH1 0x44 DUP3 ADD MSTORE PUSH1 0x64 SWAP1 REVERT JUMPDEST POP POP POP POP SWAP1 SWAP2 SWAP3 PUSH2 0x42B3 JUMP JUMPDEST POP PUSH1 0x0 SLOAD PUSH1 0x1 PUSH1 0x1 PUSH1 0xA0 SHL SUB AND CALLER EQ PUSH2 0x41DD JUMP JUMPDEST CALLVALUE PUSH2 0x507 JUMPI PUSH1 0x40 CALLDATASIZE PUSH1 0x3 NOT ADD SLT PUSH2 0x507 JUMPI PUSH2 0x44E9 PUSH2 0x4D41 JUMP JUMPDEST PUSH1 0x24 CALLDATALOAD SWAP1 PUSH1 0x1 PUSH1 0x1 PUSH1 0xA0 SHL SUB DUP1 DUP1 PUSH2 0x4500 DUP6 PUSH2 0x52C1 JUMP JUMPDEST AND SWAP3 AND SWAP2 DUP1 DUP4 EQ PUSH2 0x45FB JUMPI DUP1 CALLER EQ SWAP1 DUP2 ISZERO PUSH2 0x45D6 JUMPI JUMPDEST POP ISZERO PUSH2 0x456B JUMPI PUSH1 0x0 DUP4 DUP2 MSTORE PUSH1 0x6 PUSH1 0x20 MSTORE PUSH1 0x40 SWAP1 KECCAK256 DUP1 SLOAD PUSH1 0x1 PUSH1 0x1 PUSH1 0xA0 SHL SUB NOT AND DUP4 OR SWAP1 SSTORE PUSH2 0x4543 DUP4 PUSH2 0x52C1 JUMP JUMPDEST AND PUSH32 0x8C5BE1E5EBEC7D5BD14F71427D1E84F3DD0314C0F7B2291E5B200AC8C7C3B925 PUSH1 0x0 DUP1 LOG4 STOP JUMPDEST PUSH1 0x40 MLOAD PUSH3 0x461BCD PUSH1 0xE5 SHL DUP2 MSTORE PUSH1 0x20 PUSH1 0x4 DUP3 ADD MSTORE PUSH1 0x3D PUSH1 0x24 DUP3 ADD MSTORE PUSH32 0x4552433732313A20617070726F76652063616C6C6572206973206E6F7420746F PUSH1 0x44 DUP3 ADD MSTORE PUSH32 0x6B656E206F776E6572206F7220617070726F76656420666F7220616C6C000000 PUSH1 0x64 DUP3 ADD MSTORE PUSH1 0x84 SWAP1 REVERT JUMPDEST SWAP1 POP PUSH1 0x0 MSTORE PUSH1 0x7 PUSH1 0x20 MSTORE PUSH1 0x40 PUSH1 0x0 KECCAK256 CALLER PUSH1 0x0 MSTORE PUSH1 0x20 MSTORE PUSH1 0xFF PUSH1 0x40 PUSH1 0x0 KECCAK256 SLOAD AND DUP5 PUSH2 0x4516 JUMP JUMPDEST PUSH1 0x40 MLOAD PUSH3 0x461BCD PUSH1 0xE5 SHL DUP2 MSTORE PUSH1 0x20 PUSH1 0x4 DUP3 ADD MSTORE PUSH1 0x21 PUSH1 0x24 DUP3 ADD MSTORE PUSH32 0x4552433732313A20617070726F76616C20746F2063757272656E74206F776E65 PUSH1 0x44 DUP3 ADD MSTORE PUSH1 0x39 PUSH1 0xF9 SHL PUSH1 0x64 DUP3 ADD MSTORE PUSH1 0x84 SWAP1 REVERT JUMPDEST CALLVALUE PUSH2 0x507 JUMPI PUSH1 0x20 CALLDATASIZE PUSH1 0x3 NOT ADD SLT PUSH2 0x507 JUMPI PUSH1 0x20 PUSH2 0x377D PUSH1 0x4 CALLDATALOAD PUSH2 0x52E4 JUMP JUMPDEST CALLVALUE PUSH2 0x507 JUMPI PUSH1 0x0 CALLDATASIZE PUSH1 0x3 NOT ADD SLT PUSH2 0x507 JUMPI PUSH1 0x40 MLOAD PUSH1 0x0 PUSH1 0x2 SLOAD PUSH2 0x468A DUP2 PUSH2 0x5017 JUMP JUMPDEST DUP1 DUP5 MSTORE SWAP1 PUSH1 0x1 SWAP1 DUP2 DUP2 AND SWAP1 DUP2 ISZERO PUSH2 0x2C29 JUMPI POP PUSH1 0x1 EQ PUSH2 0x46B3 JUMPI PUSH2 0x26C DUP5 PUSH2 0x2BBA DUP2 DUP7 SUB DUP3 PUSH2 0x4DDB JUMP JUMPDEST PUSH1 0x2 PUSH1 0x0 SWAP1 DUP2 MSTORE SWAP3 POP PUSH32 0x405787FA12A823E0F2B7631CC41B3BA8828B3321CA811111FA75CD3AA3BB5ACE JUMPDEST DUP3 DUP5 LT PUSH2 0x46F6 JUMPI POP POP POP DUP2 ADD PUSH1 0x20 ADD PUSH2 0x2BBA DUP3 PUSH2 0x2BAA JUMP JUMPDEST DUP1 SLOAD PUSH1 0x20 DUP6 DUP8 ADD DUP2 ADD SWAP2 SWAP1 SWAP2 MSTORE SWAP1 SWAP4 ADD SWAP3 DUP2 ADD PUSH2 0x46DE JUMP JUMPDEST CALLVALUE PUSH2 0x507 JUMPI PUSH1 0x20 CALLDATASIZE PUSH1 0x3 NOT ADD SLT PUSH2 0x507 JUMPI PUSH1 0x20 PUSH2 0x3FAC PUSH2 0x472C PUSH2 0x4D41 JUMP JUMPDEST PUSH2 0x3F91 PUSH2 0x521D JUMP JUMPDEST CALLVALUE PUSH2 0x507 JUMPI PUSH1 0x0 CALLDATASIZE PUSH1 0x3 NOT ADD SLT PUSH2 0x507 JUMPI PUSH1 0x8 SLOAD PUSH1 0x0 PUSH1 0x1 JUMPDEST DUP3 DUP2 GT ISZERO PUSH2 0x498C JUMPI POP PUSH2 0x475F SWAP1 PUSH2 0x6026 JUMP JUMPDEST SWAP1 PUSH1 0x1 PUSH1 0x0 JUMPDEST DUP3 DUP3 GT ISZERO PUSH2 0x477B JUMPI PUSH1 0x40 MLOAD DUP1 PUSH2 0x26C DUP7 DUP3 PUSH2 0x4CDF JUMP JUMPDEST DUP2 PUSH1 0x0 MSTORE PUSH1 0xC PUSH1 0x20 MSTORE PUSH1 0x40 PUSH1 0x0 KECCAK256 PUSH1 0xF DUP2 ADD SLOAD SWAP1 PUSH1 0xFF DUP3 PUSH1 0x10 SHR AND ISZERO PUSH2 0x47AE JUMPI JUMPDEST POP POP SWAP1 PUSH2 0x47A8 SWAP1 PUSH2 0x5FB3 JUMP JUMPDEST SWAP1 PUSH2 0x4765 JUMP JUMPDEST PUSH1 0x40 MLOAD SWAP2 PUSH2 0x47BB DUP4 PUSH2 0x4D6D JUMP JUMPDEST DUP2 SLOAD DUP4 MSTORE PUSH1 0x1 DUP3 ADD SLOAD PUSH1 0x1 PUSH1 0x1 PUSH1 0xA0 SHL SUB AND PUSH1 0x20 DUP5 ADD MSTORE PUSH2 0x47DE PUSH1 0x2 DUP4 ADD PUSH2 0x5051 JUMP JUMPDEST PUSH1 0x40 DUP5 ADD MSTORE PUSH2 0x47EF PUSH1 0x3 DUP4 ADD PUSH2 0x5051 JUMP JUMPDEST PUSH1 0x60 DUP5 ADD MSTORE PUSH1 0x4 DUP3 ADD SLOAD PUSH1 0x80 DUP5 ADD MSTORE PUSH1 0x5 DUP3 ADD SLOAD PUSH1 0xA0 DUP5 ADD MSTORE PUSH2 0x4814 PUSH1 0x6 DUP4 ADD PUSH2 0x5051 JUMP JUMPDEST PUSH1 0xC0 DUP5 ADD MSTORE PUSH2 0x4825 PUSH1 0x7 DUP4 ADD PUSH2 0x5051 JUMP JUMPDEST PUSH1 0xE0 DUP5 ADD MSTORE PUSH1 0x8 DUP3 ADD SLOAD PUSH2 0x4838 DUP2 PUSH2 0x5C6B JUMP JUMPDEST SWAP1 PUSH2 0x4846 PUSH1 0x40 MLOAD SWAP3 DUP4 PUSH2 0x4DDB JUMP JUMPDEST DUP1 DUP3 MSTORE PUSH1 0x20 DUP3 ADD PUSH1 0x8 DUP6 ADD PUSH1 0x0 MSTORE PUSH1 0x20 PUSH1 0x0 KECCAK256 SWAP1 PUSH1 0x0 SWAP1 JUMPDEST DUP4 DUP3 LT PUSH2 0x496F JUMPI POP POP POP POP PUSH1 0x10 SWAP3 SWAP2 PUSH1 0xFF SWAP2 PUSH2 0x100 DUP7 ADD MSTORE PUSH2 0x4882 PUSH1 0x9 DUP5 ADD PUSH2 0x5051 JUMP JUMPDEST PUSH2 0x120 DUP7 ADD MSTORE PUSH2 0x4894 PUSH1 0xA DUP5 ADD PUSH2 0x5051 JUMP JUMPDEST PUSH2 0x140 DUP7 ADD MSTORE PUSH1 0xB DUP4 ADD SLOAD PUSH2 0x160 DUP7 ADD MSTORE PUSH2 0x48B1 PUSH1 0xC DUP5 ADD PUSH2 0x5051 JUMP JUMPDEST PUSH2 0x180 DUP7 ADD MSTORE PUSH2 0x48C3 PUSH1 0xD DUP5 ADD PUSH2 0x5051 JUMP JUMPDEST PUSH2 0x1A0 DUP7 ADD MSTORE PUSH1 0xE DUP4 ADD SLOAD PUSH2 0x1C0 DUP7 ADD MSTORE DUP2 DUP2 AND ISZERO ISZERO PUSH2 0x1E0 DUP7 ADD MSTORE DUP2 DUP2 PUSH1 0x8 SHR AND ISZERO ISZERO PUSH2 0x200 DUP7 ADD MSTORE DUP4 SHR AND ISZERO ISZERO PUSH2 0x220 DUP5 ADD MSTORE ADD DUP1 SLOAD SWAP1 PUSH2 0x4905 DUP3 PUSH2 0x5C6B JUMP JUMPDEST SWAP2 PUSH2 0x4913 PUSH1 0x40 MLOAD SWAP4 DUP5 PUSH2 0x4DDB JUMP JUMPDEST DUP1 DUP4 MSTORE PUSH1 0x20 DUP4 ADD SWAP2 PUSH1 0x0 MSTORE PUSH1 0x20 PUSH1 0x0 KECCAK256 PUSH1 0x0 SWAP3 JUMPDEST DUP3 DUP5 LT PUSH2 0x4951 JUMPI POP POP POP POP PUSH2 0x240 DUP3 ADD MSTORE PUSH2 0x47A8 SWAP2 PUSH2 0x494A SWAP2 PUSH2 0x43F DUP3 DUP9 PUSH2 0x5FC2 JUMP JUMPDEST SWAP1 DUP6 PUSH2 0x479C JUMP JUMPDEST PUSH1 0x5 PUSH1 0x20 PUSH1 0x1 SWAP3 PUSH2 0x4961 DUP6 PUSH2 0x5FD6 JUMP JUMPDEST DUP2 MSTORE ADD SWAP3 ADD SWAP4 ADD SWAP3 SWAP1 PUSH2 0x4927 JUMP JUMPDEST PUSH1 0x1 PUSH1 0x20 DUP2 SWAP3 PUSH2 0x497E DUP7 PUSH2 0x5051 JUMP JUMPDEST DUP2 MSTORE ADD SWAP4 ADD SWAP2 ADD SWAP1 SWAP2 PUSH2 0x485E JUMP JUMPDEST DUP1 PUSH1 0x0 MSTORE PUSH1 0xC PUSH1 0x20 MSTORE PUSH1 0xFF PUSH1 0xF PUSH1 0x40 PUSH1 0x0 KECCAK256 ADD SLOAD PUSH1 0x10 SHR AND ISZERO PUSH2 0x49B8 JUMPI JUMPDEST PUSH2 0x49B3 SWAP1 PUSH2 0x5FB3 JUMP JUMPDEST PUSH2 0x474D JUMP JUMPDEST SWAP1 PUSH2 0x49C5 PUSH2 0x49B3 SWAP2 PUSH2 0x5FB3 JUMP JUMPDEST SWAP2 SWAP1 POP PUSH2 0x49AA JUMP JUMPDEST CALLVALUE PUSH2 0x507 JUMPI PUSH1 0x20 CALLDATASIZE PUSH1 0x3 NOT ADD SLT PUSH2 0x507 JUMPI PUSH1 0x4 CALLDATALOAD PUSH4 0xFFFFFFFF PUSH1 0xE0 SHL DUP2 AND DUP1 SWAP2 SUB PUSH2 0x507 JUMPI PUSH1 0x20 SWAP1 PUSH4 0x80AC58CD PUSH1 0xE0 SHL DUP2 EQ SWAP1 DUP2 ISZERO PUSH2 0x4A2A JUMPI JUMPDEST DUP2 ISZERO PUSH2 0x4A19 JUMPI JUMPDEST POP PUSH1 0x40 MLOAD SWAP1 ISZERO ISZERO DUP2 MSTORE RETURN JUMPDEST PUSH4 0x1FFC9A7 PUSH1 0xE0 SHL EQ SWAP1 POP DUP3 PUSH2 0x4A0E JUMP JUMPDEST PUSH4 0x5B5E139F PUSH1 0xE0 SHL DUP2 EQ SWAP2 POP PUSH2 0x4A07 JUMP JUMPDEST CALLVALUE PUSH2 0x507 JUMPI PUSH1 0x20 CALLDATASIZE PUSH1 0x3 NOT ADD SLT PUSH2 0x507 JUMPI PUSH1 0x20 SWAP1 PUSH1 0x4 CALLDATALOAD PUSH1 0x0 MSTORE PUSH1 0x14 DUP3 MSTORE PUSH1 0xFF PUSH1 0x40 PUSH1 0x0 KECCAK256 SLOAD AND ISZERO ISZERO DUP2 MSTORE RETURN JUMPDEST SWAP2 SWAP1 DUP3 MLOAD SWAP3 DUP4 DUP3 MSTORE PUSH1 0x0 JUMPDEST DUP5 DUP2 LT PUSH2 0x4A94 JUMPI POP POP DUP3 PUSH1 0x0 PUSH1 0x20 DUP1 SWAP5 SWAP6 DUP5 ADD ADD MSTORE PUSH1 0x1F DUP1 NOT SWAP2 ADD AND ADD ADD SWAP1 JUMP JUMPDEST PUSH1 0x20 DUP2 DUP4 ADD DUP2 ADD MLOAD DUP5 DUP4 ADD DUP3 ADD MSTORE ADD PUSH2 0x4A73 JUMP JUMPDEST SWAP1 DUP1 DUP3 MLOAD SWAP1 DUP2 DUP2 MSTORE PUSH1 0x20 DUP1 SWAP2 ADD SWAP3 DUP2 DUP1 DUP5 PUSH1 0x5 SHL DUP4 ADD ADD SWAP6 ADD SWAP4 PUSH1 0x0 SWAP2 JUMPDEST DUP5 DUP4 LT PUSH2 0x4AD6 JUMPI POP POP POP POP POP POP SWAP1 JUMP JUMPDEST SWAP1 SWAP2 SWAP3 SWAP4 SWAP5 SWAP6 DUP5 DUP1 PUSH1 0x1 SWAP3 PUSH1 0x1F NOT DUP6 DUP3 SUB ADD DUP7 MSTORE DUP10 MLOAD SWAP1 DUP2 MLOAD DUP2 MSTORE DUP5 DUP1 PUSH1 0xA0 SHL SUB DUP4 DUP4 ADD MLOAD AND DUP4 DUP3 ADD MSTORE PUSH1 0x40 DUP1 DUP4 ADD MLOAD SWAP1 DUP3 ADD MSTORE PUSH2 0x4B23 PUSH1 0x60 DUP1 DUP5 ADD MLOAD SWAP1 PUSH1 0xA0 DUP1 SWAP2 DUP6 ADD MSTORE DUP4 ADD SWAP1 PUSH2 0x4A68 JUMP JUMPDEST SWAP2 PUSH1 0x80 DUP1 SWAP2 ADD MLOAD ISZERO ISZERO SWAP2 ADD MSTORE SWAP9 ADD SWAP4 ADD SWAP4 ADD SWAP2 SWAP5 SWAP4 SWAP3 SWAP1 PUSH2 0x4AC6 JUMP JUMPDEST SWAP2 SWAP1 DUP3 MLOAD DUP2 MSTORE PUSH1 0x20 SWAP3 PUSH1 0x1 DUP1 PUSH1 0xA0 SHL SUB DUP5 DUP3 ADD MLOAD AND DUP5 DUP4 ADD MSTORE PUSH2 0x4BC4 PUSH2 0x4BB2 PUSH2 0x4B8C PUSH2 0x4B7A PUSH1 0x40 DUP6 ADD MLOAD PUSH2 0x260 DUP1 PUSH1 0x40 DUP10 ADD MSTORE DUP8 ADD SWAP1 PUSH2 0x4A68 JUMP JUMPDEST PUSH1 0x60 DUP6 ADD MLOAD DUP7 DUP3 SUB PUSH1 0x60 DUP9 ADD MSTORE PUSH2 0x4A68 JUMP JUMPDEST PUSH1 0x80 DUP5 ADD MLOAD PUSH1 0x80 DUP7 ADD MSTORE PUSH1 0xA0 DUP5 ADD MLOAD PUSH1 0xA0 DUP7 ADD MSTORE PUSH1 0xC0 DUP5 ADD MLOAD DUP6 DUP3 SUB PUSH1 0xC0 DUP8 ADD MSTORE PUSH2 0x4A68 JUMP JUMPDEST PUSH1 0xE0 DUP4 ADD MLOAD DUP5 DUP3 SUB PUSH1 0xE0 DUP7 ADD MSTORE PUSH2 0x4A68 JUMP JUMPDEST PUSH2 0x100 SWAP5 DUP6 DUP4 ADD MLOAD SWAP6 DUP5 DUP4 SUB SWAP1 DUP6 ADD MSTORE DUP6 MLOAD DUP1 DUP4 MSTORE DUP2 DUP4 ADD SWAP2 DUP1 DUP1 DUP4 PUSH1 0x5 SHL DUP7 ADD ADD SWAP9 ADD SWAP3 PUSH1 0x0 SWAP1 JUMPDEST DUP4 DUP3 LT PUSH2 0x4CAF JUMPI POP POP POP POP POP POP PUSH2 0x4C66 PUSH2 0x4C52 PUSH2 0x4C33 PUSH2 0x4C1F PUSH2 0x4CAC SWAP7 SWAP8 PUSH2 0x120 DUP1 DUP8 ADD MLOAD SWAP1 DUP9 DUP4 SUB SWAP1 DUP10 ADD MSTORE PUSH2 0x4A68 JUMP JUMPDEST PUSH2 0x140 DUP1 DUP7 ADD MLOAD SWAP1 DUP8 DUP4 SUB SWAP1 DUP9 ADD MSTORE PUSH2 0x4A68 JUMP JUMPDEST PUSH2 0x160 DUP1 DUP6 ADD MLOAD SWAP1 DUP7 ADD MSTORE PUSH2 0x180 DUP1 DUP6 ADD MLOAD SWAP1 DUP7 DUP4 SUB SWAP1 DUP8 ADD MSTORE PUSH2 0x4A68 JUMP JUMPDEST PUSH2 0x1A0 DUP1 DUP5 ADD MLOAD SWAP1 DUP6 DUP4 SUB SWAP1 DUP7 ADD MSTORE PUSH2 0x4A68 JUMP JUMPDEST SWAP2 PUSH2 0x1C0 DUP1 DUP4 ADD MLOAD SWAP1 DUP3 ADD MSTORE PUSH2 0x1E0 DUP1 DUP4 ADD MLOAD ISZERO ISZERO SWAP1 DUP3 ADD MSTORE PUSH2 0x200 DUP1 DUP4 ADD MLOAD ISZERO ISZERO SWAP1 DUP3 ADD MSTORE PUSH2 0x220 DUP1 DUP4 ADD MLOAD ISZERO ISZERO SWAP1 DUP3 ADD MSTORE PUSH2 0x240 DUP1 SWAP3 ADD MLOAD SWAP2 DUP2 DUP5 SUB SWAP2 ADD MSTORE PUSH2 0x4AA8 JUMP JUMPDEST SWAP1 JUMP JUMPDEST SWAP1 SWAP2 SWAP3 SWAP4 SWAP5 SWAP9 DUP4 DUP1 PUSH2 0x4CCE PUSH1 0x1 SWAP4 DUP14 PUSH1 0x1F NOT SWAP1 DUP3 SUB ADD DUP7 MSTORE DUP10 MLOAD PUSH2 0x4A68 JUMP JUMPDEST SWAP12 SWAP8 ADD SWAP6 SWAP5 SWAP4 SWAP2 SWAP1 SWAP2 ADD SWAP2 ADD PUSH2 0x4BED JUMP JUMPDEST PUSH1 0x20 DUP1 DUP3 ADD SWAP1 DUP1 DUP4 MSTORE DUP4 MLOAD DUP1 SWAP3 MSTORE PUSH1 0x40 DUP4 ADD SWAP3 DUP2 PUSH1 0x40 DUP5 PUSH1 0x5 SHL DUP4 ADD ADD SWAP6 ADD SWAP4 PUSH1 0x0 SWAP2 JUMPDEST DUP5 DUP4 LT PUSH2 0x4D13 JUMPI POP POP POP POP POP POP SWAP1 JUMP JUMPDEST SWAP1 SWAP2 SWAP3 SWAP4 SWAP5 SWAP6 DUP5 DUP1 PUSH2 0x4D31 PUSH1 0x1 SWAP4 PUSH1 0x3F NOT DUP7 DUP3 SUB ADD DUP8 MSTORE DUP11 MLOAD PUSH2 0x4B3F JUMP JUMPDEST SWAP9 ADD SWAP4 ADD SWAP4 ADD SWAP2 SWAP5 SWAP4 SWAP3 SWAP1 PUSH2 0x4D03 JUMP JUMPDEST PUSH1 0x4 CALLDATALOAD SWAP1 PUSH1 0x1 PUSH1 0x1 PUSH1 0xA0 SHL SUB DUP3 AND DUP3 SUB PUSH2 0x507 JUMPI JUMP JUMPDEST PUSH1 0x24 CALLDATALOAD SWAP1 PUSH1 0x1 PUSH1 0x1 PUSH1 0xA0 SHL SUB DUP3 AND DUP3 SUB PUSH2 0x507 JUMPI JUMP JUMPDEST PUSH2 0x260 DUP2 ADD SWAP1 DUP2 LT PUSH1 0x1 PUSH1 0x1 PUSH1 0x40 SHL SUB DUP3 GT OR PUSH2 0x21EF JUMPI PUSH1 0x40 MSTORE JUMP JUMPDEST PUSH2 0x100 DUP2 ADD SWAP1 DUP2 LT PUSH1 0x1 PUSH1 0x1 PUSH1 0x40 SHL SUB DUP3 GT OR PUSH2 0x21EF JUMPI PUSH1 0x40 MSTORE JUMP JUMPDEST PUSH1 0xA0 DUP2 ADD SWAP1 DUP2 LT PUSH1 0x1 PUSH1 0x1 PUSH1 0x40 SHL SUB DUP3 GT OR PUSH2 0x21EF JUMPI PUSH1 0x40 MSTORE JUMP JUMPDEST PUSH1 0x20 DUP2 ADD SWAP1 DUP2 LT PUSH1 0x1 PUSH1 0x1 PUSH1 0x40 SHL SUB DUP3 GT OR PUSH2 0x21EF JUMPI PUSH1 0x40 MSTORE JUMP JUMPDEST SWAP1 PUSH1 0x1F DUP1 NOT SWAP2 ADD AND DUP2 ADD SWAP1 DUP2 LT PUSH1 0x1 PUSH1 0x1 PUSH1 0x40 SHL SUB DUP3 GT OR PUSH2 0x21EF JUMPI PUSH1 0x40 MSTORE JUMP JUMPDEST PUSH1 0x1 PUSH1 0x1 PUSH1 0x40 SHL SUB DUP2 GT PUSH2 0x21EF JUMPI PUSH1 0x1F ADD PUSH1 0x1F NOT AND PUSH1 0x20 ADD SWAP1 JUMP JUMPDEST SWAP3 SWAP2 SWAP3 PUSH2 0x4E23 DUP3 PUSH2 0x4DFC JUMP JUMPDEST SWAP2 PUSH2 0x4E31 PUSH1 0x40 MLOAD SWAP4 DUP5 PUSH2 0x4DDB JUMP JUMPDEST DUP3 SWAP5 DUP2 DUP5 MSTORE DUP2 DUP4 ADD GT PUSH2 0x507 JUMPI DUP3 DUP2 PUSH1 0x20 SWAP4 DUP5 PUSH1 0x0 SWAP7 ADD CALLDATACOPY ADD ADD MSTORE JUMP JUMPDEST SWAP1 DUP1 PUSH1 0x1F DUP4 ADD SLT ISZERO PUSH2 0x507 JUMPI DUP2 PUSH1 0x20 PUSH2 0x4CAC SWAP4 CALLDATALOAD SWAP2 ADD PUSH2 0x4E17 JUMP JUMPDEST PUSH1 0x60 SWAP1 PUSH1 0x3 NOT ADD SLT PUSH2 0x507 JUMPI PUSH1 0x1 PUSH1 0x1 PUSH1 0xA0 SHL SUB SWAP1 PUSH1 0x4 CALLDATALOAD DUP3 DUP2 AND DUP2 SUB PUSH2 0x507 JUMPI SWAP2 PUSH1 0x24 CALLDATALOAD SWAP1 DUP2 AND DUP2 SUB PUSH2 0x507 JUMPI SWAP1 PUSH1 0x44 CALLDATALOAD SWAP1 JUMP JUMPDEST PUSH2 0x4CAC SWAP2 PUSH1 0xE0 PUSH2 0x4F35 PUSH2 0x4F23 PUSH2 0x4F11 PUSH2 0x4EFF PUSH2 0x4EED PUSH2 0x4EDB PUSH2 0x4EC9 DUP10 MLOAD PUSH2 0x100 DUP1 DUP12 MSTORE DUP11 ADD SWAP1 PUSH2 0x4A68 JUMP JUMPDEST PUSH1 0x20 DUP11 ADD MLOAD DUP10 DUP3 SUB PUSH1 0x20 DUP12 ADD MSTORE PUSH2 0x4A68 JUMP JUMPDEST PUSH1 0x40 DUP10 ADD MLOAD DUP9 DUP3 SUB PUSH1 0x40 DUP11 ADD MSTORE PUSH2 0x4A68 JUMP JUMPDEST PUSH1 0x60 DUP9 ADD MLOAD DUP8 DUP3 SUB PUSH1 0x60 DUP10 ADD MSTORE PUSH2 0x4A68 JUMP JUMPDEST PUSH1 0x80 DUP8 ADD MLOAD DUP7 DUP3 SUB PUSH1 0x80 DUP9 ADD MSTORE PUSH2 0x4A68 JUMP JUMPDEST PUSH1 0xA0 DUP7 ADD MLOAD DUP6 DUP3 SUB PUSH1 0xA0 DUP8 ADD MSTORE PUSH2 0x4A68 JUMP JUMPDEST PUSH1 0xC0 DUP6 ADD MLOAD DUP5 DUP3 SUB PUSH1 0xC0 DUP7 ADD MSTORE PUSH2 0x4A68 JUMP JUMPDEST SWAP3 ADD MLOAD SWAP1 PUSH1 0xE0 DUP2 DUP5 SUB SWAP2 ADD MSTORE PUSH2 0x4A68 JUMP JUMPDEST PUSH1 0x20 DUP1 DUP3 ADD SWAP1 DUP1 DUP4 MSTORE DUP4 MLOAD DUP1 SWAP3 MSTORE PUSH1 0x40 SWAP3 DUP4 DUP2 ADD DUP3 DUP6 DUP6 PUSH1 0x5 SHL DUP5 ADD ADD SWAP7 ADD SWAP5 PUSH1 0x0 SWAP3 JUMPDEST DUP6 DUP5 LT PUSH2 0x4F7B JUMPI POP POP POP POP POP POP POP SWAP1 JUMP JUMPDEST SWAP1 SWAP2 SWAP3 SWAP4 SWAP5 SWAP6 SWAP7 DUP6 DUP1 PUSH2 0x4FF3 PUSH1 0x1 SWAP4 PUSH1 0x3F NOT DUP7 DUP3 SUB ADD DUP9 MSTORE DUP12 MLOAD DUP1 MLOAD DUP3 MSTORE DUP4 DUP2 ADD MLOAD DUP5 DUP4 ADD MSTORE DUP8 DUP2 ADD MLOAD DUP9 DUP4 ADD MSTORE PUSH1 0x60 DUP1 DUP3 ADD MLOAD SWAP1 DUP4 ADD MSTORE DUP6 DUP1 PUSH1 0xA0 SHL SUB PUSH1 0x80 DUP2 DUP2 DUP5 ADD MLOAD AND SWAP1 DUP5 ADD MSTORE PUSH1 0xA0 SWAP1 DUP2 DUP4 ADD MLOAD AND SWAP1 DUP4 ADD MSTORE PUSH1 0xC0 DUP1 DUP3 ADD MLOAD ISZERO ISZERO SWAP1 DUP4 ADD MSTORE PUSH1 0xE0 DUP1 SWAP2 ADD MLOAD SWAP2 PUSH2 0x100 DUP1 SWAP3 DUP3 ADD MSTORE ADD SWAP1 PUSH2 0x4E9E JUMP JUMPDEST SWAP10 ADD SWAP5 ADD SWAP5 ADD SWAP3 SWAP6 SWAP5 SWAP4 SWAP2 SWAP1 PUSH2 0x4F6A JUMP JUMPDEST SWAP2 SWAP1 PUSH1 0x20 DUP4 ADD SWAP3 PUSH1 0x4 DUP3 LT ISZERO PUSH2 0x74E JUMPI MSTORE JUMP JUMPDEST SWAP1 PUSH1 0x1 DUP3 DUP2 SHR SWAP3 AND DUP1 ISZERO PUSH2 0x5047 JUMPI JUMPDEST PUSH1 0x20 DUP4 LT EQ PUSH2 0x5031 JUMPI JUMP JUMPDEST PUSH4 0x4E487B71 PUSH1 0xE0 SHL PUSH1 0x0 MSTORE PUSH1 0x22 PUSH1 0x4 MSTORE PUSH1 0x24 PUSH1 0x0 REVERT JUMPDEST SWAP2 PUSH1 0x7F AND SWAP2 PUSH2 0x5026 JUMP JUMPDEST SWAP1 PUSH1 0x40 MLOAD SWAP2 DUP3 PUSH1 0x0 DUP3 SLOAD SWAP3 PUSH2 0x5065 DUP5 PUSH2 0x5017 JUMP JUMPDEST SWAP1 DUP2 DUP5 MSTORE PUSH1 0x1 SWAP5 DUP6 DUP2 AND SWAP1 DUP2 PUSH1 0x0 EQ PUSH2 0x50D4 JUMPI POP PUSH1 0x1 EQ PUSH2 0x5091 JUMPI JUMPDEST POP POP PUSH2 0x508F SWAP3 POP SUB DUP4 PUSH2 0x4DDB JUMP JUMPDEST JUMP JUMPDEST SWAP1 SWAP4 SWAP2 POP PUSH1 0x0 MSTORE PUSH1 0x20 SWAP1 DUP2 PUSH1 0x0 KECCAK256 SWAP4 PUSH1 0x0 SWAP2 JUMPDEST DUP2 DUP4 LT PUSH2 0x50BC JUMPI POP POP PUSH2 0x508F SWAP4 POP DUP3 ADD ADD CODESIZE DUP1 PUSH2 0x5081 JUMP JUMPDEST DUP6 SLOAD DUP9 DUP5 ADD DUP6 ADD MSTORE SWAP5 DUP6 ADD SWAP5 DUP8 SWAP5 POP SWAP2 DUP4 ADD SWAP2 PUSH2 0x50A4 JUMP JUMPDEST SWAP2 POP POP PUSH2 0x508F SWAP5 POP PUSH1 0x20 SWAP3 POP PUSH1 0xFF NOT AND DUP3 DUP5 ADD MSTORE ISZERO ISZERO PUSH1 0x5 SHL DUP3 ADD ADD CODESIZE DUP1 PUSH2 0x5081 JUMP JUMPDEST DUP1 SLOAD DUP3 LT ISZERO PUSH2 0x5113 JUMPI PUSH1 0x0 MSTORE PUSH1 0xE PUSH1 0x20 PUSH1 0x0 KECCAK256 SWAP2 MUL ADD SWAP1 PUSH1 0x0 SWAP1 JUMP JUMPDEST PUSH4 0x4E487B71 PUSH1 0xE0 SHL PUSH1 0x0 MSTORE PUSH1 0x32 PUSH1 0x4 MSTORE PUSH1 0x24 PUSH1 0x0 REVERT JUMPDEST SWAP1 PUSH1 0x40 MLOAD PUSH2 0x5136 DUP2 PUSH2 0x4D89 JUMP JUMPDEST PUSH1 0xE0 PUSH2 0x51B6 PUSH1 0x7 DUP4 SWAP6 PUSH2 0x5148 DUP2 PUSH2 0x5051 JUMP JUMPDEST DUP6 MSTORE PUSH2 0x5156 PUSH1 0x1 DUP3 ADD PUSH2 0x5051 JUMP JUMPDEST PUSH1 0x20 DUP7 ADD MSTORE PUSH2 0x5167 PUSH1 0x2 DUP3 ADD PUSH2 0x5051 JUMP JUMPDEST PUSH1 0x40 DUP7 ADD MSTORE PUSH2 0x5178 PUSH1 0x3 DUP3 ADD PUSH2 0x5051 JUMP JUMPDEST PUSH1 0x60 DUP7 ADD MSTORE PUSH2 0x5189 PUSH1 0x4 DUP3 ADD PUSH2 0x5051 JUMP JUMPDEST PUSH1 0x80 DUP7 ADD MSTORE PUSH2 0x519A PUSH1 0x5 DUP3 ADD PUSH2 0x5051 JUMP JUMPDEST PUSH1 0xA0 DUP7 ADD MSTORE PUSH2 0x51AB PUSH1 0x6 DUP3 ADD PUSH2 0x5051 JUMP JUMPDEST PUSH1 0xC0 DUP7 ADD MSTORE ADD PUSH2 0x5051 JUMP JUMPDEST SWAP2 ADD MSTORE JUMP JUMPDEST SWAP6 SWAP3 SWAP1 SWAP2 PUSH2 0x4CAC SWAP9 SWAP8 SWAP6 SWAP5 SWAP3 DUP8 MSTORE PUSH1 0x20 DUP8 ADD MSTORE PUSH1 0x40 DUP7 ADD MSTORE PUSH1 0x60 DUP6 ADD MSTORE PUSH1 0x1 DUP1 PUSH1 0xA0 SHL SUB DUP1 SWAP3 AND PUSH1 0x80 DUP6 ADD MSTORE AND PUSH1 0xA0 DUP4 ADD MSTORE ISZERO ISZERO PUSH1 0xC0 DUP3 ADD MSTORE PUSH2 0x100 SWAP1 DUP2 PUSH1 0xE0 DUP3 ADD MSTORE ADD SWAP1 PUSH2 0x4E9E JUMP JUMPDEST DUP1 SLOAD DUP3 LT ISZERO PUSH2 0x5113 JUMPI PUSH1 0x0 MSTORE PUSH1 0x20 PUSH1 0x0 KECCAK256 ADD SWAP1 PUSH1 0x0 SWAP1 JUMP JUMPDEST PUSH1 0x0 SLOAD PUSH1 0x1 PUSH1 0x1 PUSH1 0xA0 SHL SUB AND CALLER SUB PUSH2 0x5231 JUMPI JUMP JUMPDEST PUSH1 0x64 PUSH1 0x40 MLOAD PUSH3 0x461BCD PUSH1 0xE5 SHL DUP2 MSTORE PUSH1 0x20 PUSH1 0x4 DUP3 ADD MSTORE PUSH1 0x20 PUSH1 0x24 DUP3 ADD MSTORE PUSH32 0x4F776E61626C653A2063616C6C6572206973206E6F7420746865206F776E6572 PUSH1 0x44 DUP3 ADD MSTORE REVERT JUMPDEST ISZERO PUSH2 0x527C JUMPI JUMP JUMPDEST PUSH1 0x40 MLOAD PUSH3 0x461BCD PUSH1 0xE5 SHL DUP2 MSTORE PUSH1 0x20 PUSH1 0x4 DUP3 ADD MSTORE PUSH1 0x18 PUSH1 0x24 DUP3 ADD MSTORE PUSH32 0x4552433732313A20696E76616C696420746F6B656E2049440000000000000000 PUSH1 0x44 DUP3 ADD MSTORE PUSH1 0x64 SWAP1 REVERT JUMPDEST PUSH1 0x0 SWAP1 DUP2 MSTORE PUSH1 0x4 PUSH1 0x20 MSTORE PUSH1 0x40 SWAP1 KECCAK256 SLOAD PUSH1 0x1 PUSH1 0x1 PUSH1 0xA0 SHL SUB AND PUSH2 0x4CAC DUP2 ISZERO ISZERO PUSH2 0x5275 JUMP JUMPDEST PUSH1 0x0 DUP2 DUP2 MSTORE PUSH1 0x4 PUSH1 0x20 MSTORE PUSH1 0x40 SWAP1 KECCAK256 SLOAD PUSH2 0x5307 SWAP1 PUSH1 0x1 PUSH1 0x1 PUSH1 0xA0 SHL SUB AND ISZERO ISZERO PUSH2 0x5275 JUMP JUMPDEST PUSH1 0x0 SWAP1 DUP2 MSTORE PUSH1 0x6 PUSH1 0x20 MSTORE PUSH1 0x40 SWAP1 KECCAK256 SLOAD PUSH1 0x1 PUSH1 0x1 PUSH1 0xA0 SHL SUB AND SWAP1 JUMP JUMPDEST ISZERO PUSH2 0x5329 JUMPI JUMP JUMPDEST PUSH1 0x40 MLOAD PUSH3 0x461BCD PUSH1 0xE5 SHL DUP2 MSTORE PUSH1 0x20 PUSH1 0x4 DUP3 ADD MSTORE PUSH1 0x2D PUSH1 0x24 DUP3 ADD MSTORE PUSH32 0x4552433732313A2063616C6C6572206973206E6F7420746F6B656E206F776E65 PUSH1 0x44 DUP3 ADD MSTORE PUSH13 0x1C881BDC88185C1C1C9BDD9959 PUSH1 0x9A SHL PUSH1 0x64 DUP3 ADD MSTORE PUSH1 0x84 SWAP1 REVERT JUMPDEST SWAP1 PUSH2 0x53A8 SWAP4 SWAP3 SWAP2 PUSH2 0x5398 PUSH2 0x3F69 DUP5 CALLER PUSH2 0x541F JUMP JUMPDEST PUSH2 0x53A3 DUP4 DUP4 DUP4 PUSH2 0x54E7 JUMP JUMPDEST PUSH2 0x5628 JUMP JUMPDEST ISZERO PUSH2 0x53AF JUMPI JUMP JUMPDEST PUSH1 0x40 MLOAD PUSH3 0x461BCD PUSH1 0xE5 SHL DUP2 MSTORE DUP1 PUSH2 0x53C8 PUSH1 0x4 DUP3 ADD PUSH2 0x53CC JUMP JUMPDEST SUB SWAP1 REVERT JUMPDEST PUSH1 0x80 SWAP1 PUSH1 0x20 DUP2 MSTORE PUSH1 0x32 PUSH1 0x20 DUP3 ADD MSTORE PUSH32 0x4552433732313A207472616E7366657220746F206E6F6E204552433732315265 PUSH1 0x40 DUP3 ADD MSTORE PUSH18 0x31B2B4BB32B91034B6B83632B6B2B73A32B9 PUSH1 0x71 SHL PUSH1 0x60 DUP3 ADD MSTORE ADD SWAP1 JUMP JUMPDEST SWAP1 PUSH1 0x1 PUSH1 0x1 PUSH1 0xA0 SHL SUB DUP1 DUP1 PUSH2 0x5433 DUP5 PUSH2 0x52C1 JUMP JUMPDEST AND SWAP4 AND SWAP2 DUP4 DUP4 EQ SWAP4 DUP5 ISZERO PUSH2 0x5466 JUMPI JUMPDEST POP DUP4 ISZERO PUSH2 0x5450 JUMPI JUMPDEST POP POP POP SWAP1 JUMP JUMPDEST PUSH2 0x545C SWAP2 SWAP3 SWAP4 POP PUSH2 0x52E4 JUMP JUMPDEST AND EQ CODESIZE DUP1 DUP1 PUSH2 0x544A JUMP JUMPDEST SWAP1 SWAP4 POP PUSH1 0x0 MSTORE PUSH1 0x7 PUSH1 0x20 MSTORE PUSH1 0x40 PUSH1 0x0 KECCAK256 DUP3 PUSH1 0x0 MSTORE PUSH1 0x20 MSTORE PUSH1 0xFF PUSH1 0x40 PUSH1 0x0 KECCAK256 SLOAD AND SWAP3 CODESIZE PUSH2 0x5442 JUMP JUMPDEST ISZERO PUSH2 0x5494 JUMPI JUMP JUMPDEST PUSH1 0x40 MLOAD PUSH3 0x461BCD PUSH1 0xE5 SHL DUP2 MSTORE PUSH1 0x20 PUSH1 0x4 DUP3 ADD MSTORE PUSH1 0x25 PUSH1 0x24 DUP3 ADD MSTORE PUSH32 0x4552433732313A207472616E736665722066726F6D20696E636F727265637420 PUSH1 0x44 DUP3 ADD MSTORE PUSH5 0x37BBB732B9 PUSH1 0xD9 SHL PUSH1 0x64 DUP3 ADD MSTORE PUSH1 0x84 SWAP1 REVERT JUMPDEST SWAP1 PUSH2 0x550F SWAP2 PUSH2 0x54F5 DUP5 PUSH2 0x52C1 JUMP JUMPDEST PUSH1 0x1 PUSH1 0x1 PUSH1 0xA0 SHL SUB SWAP4 SWAP2 DUP5 AND SWAP3 DUP5 SWAP3 SWAP1 SWAP2 DUP4 AND DUP5 EQ PUSH2 0x548D JUMP JUMPDEST AND SWAP2 DUP3 ISZERO PUSH2 0x55A7 JUMPI DUP2 PUSH2 0x552C SWAP2 PUSH2 0x5525 DUP7 PUSH2 0x52C1 JUMP JUMPDEST AND EQ PUSH2 0x548D JUMP JUMPDEST PUSH32 0xDDF252AD1BE2C89B69C2B068FC378DAA952BA7F163C4A11628F55A4DF523B3EF PUSH1 0x0 DUP5 DUP2 MSTORE PUSH1 0x6 PUSH1 0x20 MSTORE PUSH1 0x40 DUP2 KECCAK256 PUSH1 0x1 PUSH1 0x1 PUSH1 0x60 SHL SUB PUSH1 0xA0 SHL SWAP1 DUP2 DUP2 SLOAD AND SWAP1 SSTORE DUP4 DUP3 MSTORE PUSH1 0x5 PUSH1 0x20 MSTORE PUSH1 0x40 DUP3 KECCAK256 PUSH1 0x0 NOT DUP2 SLOAD ADD SWAP1 SSTORE DUP5 DUP3 MSTORE PUSH1 0x40 DUP3 KECCAK256 PUSH1 0x1 DUP2 SLOAD ADD SWAP1 SSTORE DUP6 DUP3 MSTORE PUSH1 0x4 PUSH1 0x20 MSTORE DUP5 PUSH1 0x40 DUP4 KECCAK256 SWAP2 DUP3 SLOAD AND OR SWAP1 SSTORE DUP1 LOG4 JUMP JUMPDEST PUSH1 0x40 MLOAD PUSH3 0x461BCD PUSH1 0xE5 SHL DUP2 MSTORE PUSH1 0x20 PUSH1 0x4 DUP3 ADD MSTORE PUSH1 0x24 DUP1 DUP3 ADD MSTORE PUSH32 0x4552433732313A207472616E7366657220746F20746865207A65726F20616464 PUSH1 0x44 DUP3 ADD MSTORE PUSH4 0x72657373 PUSH1 0xE0 SHL PUSH1 0x64 DUP3 ADD MSTORE PUSH1 0x84 SWAP1 REVERT JUMPDEST RETURNDATASIZE ISZERO PUSH2 0x5623 JUMPI RETURNDATASIZE SWAP1 PUSH2 0x5609 DUP3 PUSH2 0x4DFC JUMP JUMPDEST SWAP2 PUSH2 0x5617 PUSH1 0x40 MLOAD SWAP4 DUP5 PUSH2 0x4DDB JUMP JUMPDEST DUP3 MSTORE RETURNDATASIZE PUSH1 0x0 PUSH1 0x20 DUP5 ADD RETURNDATACOPY JUMP JUMPDEST PUSH1 0x60 SWAP1 JUMP JUMPDEST SWAP2 SWAP3 PUSH1 0x0 SWAP3 SWAP2 SWAP1 DUP2 EXTCODESIZE ISZERO PUSH2 0x571D JUMPI PUSH1 0x20 SWAP2 PUSH2 0x567E SWAP2 DUP6 PUSH1 0x40 MLOAD SWAP6 DUP7 DUP1 SWAP6 DUP2 SWAP5 PUSH4 0xA85BD01 PUSH1 0xE1 SHL SWAP12 DUP13 DUP5 MSTORE CALLER PUSH1 0x4 DUP6 ADD MSTORE PUSH1 0x1 DUP1 PUSH1 0xA0 SHL SUB DUP1 SWAP6 AND PUSH1 0x24 DUP6 ADD MSTORE PUSH1 0x44 DUP5 ADD MSTORE PUSH1 0x80 PUSH1 0x64 DUP5 ADD MSTORE PUSH1 0x84 DUP4 ADD SWAP1 PUSH2 0x4A68 JUMP JUMPDEST SUB SWAP4 AND GAS CALL SWAP1 DUP3 SWAP1 DUP3 PUSH2 0x56CE JUMPI JUMPDEST POP POP PUSH2 0x56C0 JUMPI PUSH2 0x569A PUSH2 0x55F8 JUMP JUMPDEST DUP1 MLOAD SWAP1 DUP2 PUSH2 0x56BB JUMPI PUSH1 0x40 MLOAD PUSH3 0x461BCD PUSH1 0xE5 SHL DUP2 MSTORE DUP1 PUSH2 0x53C8 PUSH1 0x4 DUP3 ADD PUSH2 0x53CC JUMP JUMPDEST PUSH1 0x20 ADD REVERT JUMPDEST PUSH1 0x1 PUSH1 0x1 PUSH1 0xE0 SHL SUB NOT AND EQ SWAP1 JUMP JUMPDEST SWAP1 SWAP2 SWAP3 POP PUSH1 0x20 DUP2 RETURNDATASIZE DUP3 GT PUSH2 0x5715 JUMPI JUMPDEST DUP2 PUSH2 0x56EA PUSH1 0x20 SWAP4 DUP4 PUSH2 0x4DDB JUMP JUMPDEST DUP2 ADD SUB SLT PUSH2 0x5711 JUMPI MLOAD SWAP1 PUSH1 0x1 PUSH1 0x1 PUSH1 0xE0 SHL SUB NOT DUP3 AND DUP3 SUB PUSH2 0x570E JUMPI POP SWAP1 CODESIZE DUP1 PUSH2 0x568C JUMP JUMPDEST DUP1 REVERT JUMPDEST POP DUP1 REVERT JUMPDEST RETURNDATASIZE SWAP2 POP PUSH2 0x56DD JUMP JUMPDEST POP POP POP POP POP PUSH1 0x1 SWAP1 JUMP JUMPDEST ISZERO PUSH2 0x572E JUMPI JUMP JUMPDEST PUSH1 0x40 MLOAD PUSH3 0x461BCD PUSH1 0xE5 SHL DUP2 MSTORE PUSH1 0x20 PUSH1 0x4 DUP3 ADD MSTORE PUSH1 0x25 PUSH1 0x24 DUP3 ADD MSTORE PUSH32 0x4F6E6C792076657269666965642073656C6C6572206F72206F776E657220616C PUSH1 0x44 DUP3 ADD MSTORE PUSH5 0x1B1BDDD959 PUSH1 0xDA SHL PUSH1 0x64 DUP3 ADD MSTORE PUSH1 0x84 SWAP1 REVERT JUMPDEST SWAP1 CALLDATALOAD SWAP1 PUSH1 0x1E NOT DUP2 CALLDATASIZE SUB ADD DUP3 SLT ISZERO PUSH2 0x507 JUMPI ADD DUP1 CALLDATALOAD SWAP1 PUSH1 0x1 PUSH1 0x1 PUSH1 0x40 SHL SUB DUP3 GT PUSH2 0x507 JUMPI PUSH1 0x20 ADD SWAP2 DUP2 CALLDATASIZE SUB DUP4 SGT PUSH2 0x507 JUMPI JUMP JUMPDEST ISZERO PUSH2 0x57BA JUMPI JUMP JUMPDEST PUSH1 0x40 MLOAD PUSH3 0x461BCD PUSH1 0xE5 SHL DUP2 MSTORE PUSH1 0x20 PUSH1 0x4 DUP3 ADD MSTORE PUSH1 0x14 PUSH1 0x24 DUP3 ADD MSTORE PUSH20 0x4E616D652063616E6E6F7420626520656D707479 PUSH1 0x60 SHL PUSH1 0x44 DUP3 ADD MSTORE PUSH1 0x64 SWAP1 REVERT JUMPDEST ISZERO PUSH2 0x57FD JUMPI JUMP JUMPDEST PUSH1 0x40 MLOAD PUSH3 0x461BCD PUSH1 0xE5 SHL DUP2 MSTORE PUSH1 0x20 PUSH1 0x4 DUP3 ADD MSTORE PUSH1 0x1B PUSH1 0x24 DUP3 ADD MSTORE PUSH32 0x4465736372697074696F6E2063616E6E6F7420626520656D7074790000000000 PUSH1 0x44 DUP3 ADD MSTORE PUSH1 0x64 SWAP1 REVERT JUMPDEST ISZERO PUSH2 0x5849 JUMPI JUMP JUMPDEST PUSH1 0x40 MLOAD PUSH3 0x461BCD PUSH1 0xE5 SHL DUP2 MSTORE PUSH1 0x20 PUSH1 0x4 DUP3 ADD MSTORE PUSH1 0x1C PUSH1 0x24 DUP3 ADD MSTORE PUSH32 0x5072696365206D7573742062652067726561746572207468616E203000000000 PUSH1 0x44 DUP3 ADD MSTORE PUSH1 0x64 SWAP1 REVERT JUMPDEST ISZERO PUSH2 0x5895 JUMPI JUMP JUMPDEST PUSH1 0x40 MLOAD PUSH3 0x461BCD PUSH1 0xE5 SHL DUP2 MSTORE PUSH1 0x20 PUSH1 0x4 DUP3 ADD MSTORE PUSH1 0x1C PUSH1 0x24 DUP3 ADD MSTORE PUSH32 0x53746F636B206D7573742062652067726561746572207468616E203000000000 PUSH1 0x44 DUP3 ADD MSTORE PUSH1 0x64 SWAP1 REVERT JUMPDEST ISZERO PUSH2 0x58E1 JUMPI JUMP JUMPDEST PUSH1 0x40 MLOAD PUSH3 0x461BCD PUSH1 0xE5 SHL DUP2 MSTORE PUSH1 0x20 PUSH1 0x4 DUP3 ADD MSTORE PUSH1 0x15 PUSH1 0x24 DUP3 ADD MSTORE PUSH21 0x436F6C6F722063616E6E6F7420626520656D707479 PUSH1 0x58 SHL PUSH1 0x44 DUP3 ADD MSTORE PUSH1 0x64 SWAP1 REVERT JUMPDEST SWAP1 CALLDATALOAD SWAP1 PUSH1 0x1E NOT DUP2 CALLDATASIZE SUB ADD DUP3 SLT ISZERO PUSH2 0x507 JUMPI ADD DUP1 CALLDATALOAD SWAP1 PUSH1 0x1 PUSH1 0x1 PUSH1 0x40 SHL SUB DUP3 GT PUSH2 0x507 JUMPI PUSH1 0x20 ADD SWAP2 DUP2 PUSH1 0x5 SHL CALLDATASIZE SUB DUP4 SGT PUSH2 0x507 JUMPI JUMP JUMPDEST ISZERO PUSH2 0x595A JUMPI JUMP JUMPDEST PUSH1 0x40 MLOAD PUSH3 0x461BCD PUSH1 0xE5 SHL DUP2 MSTORE PUSH1 0x20 PUSH1 0x4 DUP3 ADD MSTORE PUSH1 0x16 PUSH1 0x24 DUP3 ADD MSTORE PUSH22 0x496D616765732063616E6E6F7420626520656D707479 PUSH1 0x50 SHL PUSH1 0x44 DUP3 ADD MSTORE PUSH1 0x64 SWAP1 REVERT JUMPDEST ISZERO PUSH2 0x599F JUMPI JUMP JUMPDEST PUSH1 0x40 MLOAD PUSH3 0x461BCD PUSH1 0xE5 SHL DUP2 MSTORE PUSH1 0x20 PUSH1 0x4 DUP3 ADD MSTORE PUSH1 0x1C PUSH1 0x24 DUP3 ADD MSTORE PUSH32 0x496D616765732063616E6E6F74206265206D6F7265207468616E203500000000 PUSH1 0x44 DUP3 ADD MSTORE PUSH1 0x64 SWAP1 REVERT JUMPDEST ISZERO PUSH2 0x59EB JUMPI JUMP JUMPDEST PUSH1 0x40 MLOAD PUSH3 0x461BCD PUSH1 0xE5 SHL DUP2 MSTORE PUSH1 0x20 PUSH1 0x4 DUP3 ADD MSTORE PUSH1 0x14 PUSH1 0x24 DUP3 ADD MSTORE PUSH20 0x53697A652063616E6E6F7420626520656D707479 PUSH1 0x60 SHL PUSH1 0x44 DUP3 ADD MSTORE PUSH1 0x64 SWAP1 REVERT JUMPDEST ISZERO PUSH2 0x5A2E JUMPI JUMP JUMPDEST PUSH1 0x40 MLOAD PUSH3 0x461BCD PUSH1 0xE5 SHL DUP2 MSTORE PUSH1 0x20 PUSH1 0x4 DUP3 ADD MSTORE PUSH1 0x18 PUSH1 0x24 DUP3 ADD MSTORE PUSH32 0x43617465676F72792063616E6E6F7420626520656D7074790000000000000000 PUSH1 0x44 DUP3 ADD MSTORE PUSH1 0x64 SWAP1 REVERT JUMPDEST ISZERO PUSH2 0x5A7A JUMPI JUMP JUMPDEST PUSH1 0x40 MLOAD PUSH3 0x461BCD PUSH1 0xE5 SHL DUP2 MSTORE PUSH1 0x20 PUSH1 0x4 DUP3 ADD MSTORE PUSH1 0x1C PUSH1 0x24 DUP3 ADD MSTORE PUSH32 0x5375622D63617465676F72792063616E6E6F7420626520656D70747900000000 PUSH1 0x44 DUP3 ADD MSTORE PUSH1 0x64 SWAP1 REVERT JUMPDEST ISZERO PUSH2 0x5AC6 JUMPI JUMP JUMPDEST PUSH1 0x40 MLOAD PUSH3 0x461BCD PUSH1 0xE5 SHL DUP2 MSTORE PUSH1 0x20 PUSH1 0x4 DUP3 ADD MSTORE PUSH1 0x15 PUSH1 0x24 DUP3 ADD MSTORE PUSH21 0x4D6F64656C2063616E6E6F7420626520656D707479 PUSH1 0x58 SHL PUSH1 0x44 DUP3 ADD MSTORE PUSH1 0x64 SWAP1 REVERT JUMPDEST ISZERO PUSH2 0x5B0A JUMPI JUMP JUMPDEST PUSH1 0x40 MLOAD PUSH3 0x461BCD PUSH1 0xE5 SHL DUP2 MSTORE PUSH1 0x20 PUSH1 0x4 DUP3 ADD MSTORE PUSH1 0x15 PUSH1 0x24 DUP3 ADD MSTORE PUSH21 0x4272616E642063616E6E6F7420626520656D707479 PUSH1 0x58 SHL PUSH1 0x44 DUP3 ADD MSTORE PUSH1 0x64 SWAP1 REVERT JUMPDEST ISZERO PUSH2 0x5B4E JUMPI JUMP JUMPDEST PUSH1 0x40 MLOAD PUSH3 0x461BCD PUSH1 0xE5 SHL DUP2 MSTORE PUSH1 0x20 PUSH1 0x4 DUP3 ADD MSTORE PUSH1 0x1D PUSH1 0x24 DUP3 ADD MSTORE PUSH32 0x576569676874206D7573742062652067726561746572207468616E2030000000 PUSH1 0x44 DUP3 ADD MSTORE PUSH1 0x64 SWAP1 REVERT JUMPDEST ISZERO PUSH2 0x5B9A JUMPI JUMP JUMPDEST PUSH1 0x40 MLOAD PUSH3 0x461BCD PUSH1 0xE5 SHL DUP2 MSTORE PUSH1 0x20 PUSH1 0x4 DUP3 ADD MSTORE PUSH1 0x1A PUSH1 0x24 DUP3 ADD MSTORE PUSH32 0x534B55206D7573742062652067726561746572207468616E2030000000000000 PUSH1 0x44 DUP3 ADD MSTORE PUSH1 0x64 SWAP1 REVERT JUMPDEST PUSH1 0x40 MLOAD SWAP1 PUSH2 0x5BEC DUP3 PUSH2 0x4D6D JUMP JUMPDEST DUP2 PUSH2 0x240 PUSH1 0x0 SWAP2 DUP3 DUP2 MSTORE DUP3 PUSH1 0x20 DUP3 ADD MSTORE PUSH1 0x60 SWAP3 DUP4 PUSH1 0x40 DUP4 ADD MSTORE DUP4 DUP1 DUP4 ADD MSTORE DUP1 PUSH1 0x80 DUP4 ADD MSTORE DUP1 PUSH1 0xA0 DUP4 ADD MSTORE DUP4 PUSH1 0xC0 DUP4 ADD MSTORE DUP4 PUSH1 0xE0 DUP4 ADD MSTORE DUP4 PUSH2 0x100 DUP4 ADD MSTORE DUP4 PUSH2 0x120 DUP4 ADD MSTORE DUP4 PUSH2 0x140 DUP4 ADD MSTORE DUP1 PUSH2 0x160 DUP4 ADD MSTORE DUP4 PUSH2 0x180 DUP4 ADD MSTORE DUP4 PUSH2 0x1A0 DUP4 ADD MSTORE DUP1 PUSH2 0x1C0 DUP4 ADD MSTORE DUP1 PUSH2 0x1E0 DUP4 ADD MSTORE DUP1 PUSH2 0x200 DUP4 ADD MSTORE PUSH2 0x220 DUP3 ADD MSTORE ADD MSTORE JUMP JUMPDEST PUSH1 0x1 PUSH1 0x1 PUSH1 0x40 SHL SUB DUP2 GT PUSH2 0x21EF JUMPI PUSH1 0x5 SHL PUSH1 0x20 ADD SWAP1 JUMP JUMPDEST DUP2 DUP2 LT PUSH2 0x5C8D JUMPI POP POP JUMP JUMPDEST PUSH1 0x0 DUP2 SSTORE PUSH1 0x1 ADD PUSH2 0x5C82 JUMP JUMPDEST SWAP2 SWAP1 PUSH1 0x1F DUP2 GT PUSH2 0x5CA8 JUMPI POP POP POP JUMP JUMPDEST PUSH2 0x508F SWAP3 PUSH1 0x0 MSTORE PUSH1 0x20 PUSH1 0x0 KECCAK256 SWAP1 PUSH1 0x20 PUSH1 0x1F DUP5 ADD PUSH1 0x5 SHR DUP4 ADD SWAP4 LT PUSH2 0x5CD4 JUMPI JUMPDEST PUSH1 0x1F ADD PUSH1 0x5 SHR ADD SWAP1 PUSH2 0x5C82 JUMP JUMPDEST SWAP1 SWAP2 POP DUP2 SWAP1 PUSH2 0x5CC7 JUMP JUMPDEST PUSH2 0x5CE8 DUP2 SLOAD PUSH2 0x5017 JUMP JUMPDEST SWAP1 DUP2 PUSH2 0x5CF2 JUMPI POP POP JUMP JUMPDEST DUP2 PUSH1 0x1F PUSH1 0x0 SWAP4 GT PUSH1 0x1 EQ PUSH2 0x5D04 JUMPI POP SSTORE JUMP JUMPDEST SWAP1 DUP1 DUP4 SWAP2 DUP3 MSTORE PUSH2 0x5D23 PUSH1 0x1F PUSH1 0x20 DUP5 KECCAK256 SWAP5 ADD PUSH1 0x5 SHR DUP5 ADD PUSH1 0x1 DUP6 ADD PUSH2 0x5C82 JUMP JUMPDEST SSTORE SSTORE JUMP JUMPDEST SWAP1 PUSH1 0x1 PUSH1 0x40 SHL DUP2 GT PUSH2 0x21EF JUMPI DUP2 SLOAD SWAP2 DUP2 DUP2 SSTORE DUP3 DUP3 LT PUSH2 0x5D45 JUMPI POP POP POP JUMP JUMPDEST PUSH1 0x0 MSTORE PUSH1 0x20 PUSH1 0x0 KECCAK256 SWAP2 DUP3 ADD SWAP2 ADD JUMPDEST DUP2 DUP2 LT PUSH2 0x5D5E JUMPI POP POP JUMP JUMPDEST DUP1 PUSH2 0x5D6A PUSH1 0x1 SWAP3 PUSH2 0x5CDE JUMP JUMPDEST ADD PUSH2 0x5D53 JUMP JUMPDEST DUP2 MLOAD DUP2 SSTORE PUSH1 0x1 SWAP2 DUP3 DUP3 ADD PUSH1 0x20 SWAP1 PUSH1 0x1 DUP1 PUSH1 0xA0 SHL SUB DUP3 DUP5 ADD MLOAD AND PUSH1 0x1 PUSH1 0x1 PUSH1 0x60 SHL SUB PUSH1 0xA0 SHL DUP3 SLOAD AND OR SWAP1 SSTORE PUSH1 0x40 DUP3 ADD MLOAD PUSH1 0x2 DUP5 ADD SSTORE PUSH1 0x3 DUP4 ADD SWAP1 PUSH1 0x60 DUP4 ADD MLOAD SWAP5 DUP6 MLOAD SWAP2 PUSH1 0x1 PUSH1 0x1 PUSH1 0x40 SHL SUB DUP4 GT PUSH2 0x21EF JUMPI PUSH2 0x5DCE DUP4 PUSH2 0x1816 DUP7 SLOAD PUSH2 0x5017 JUMP JUMPDEST DUP1 PUSH1 0x1F DUP5 GT PUSH1 0x1 EQ PUSH2 0x5E26 JUMPI POP SWAP2 DUP1 DUP1 PUSH1 0x80 SWAP6 SWAP4 PUSH1 0x4 SWAP8 SWAP6 PUSH2 0x508F SWAP11 PUSH1 0x0 SWAP5 PUSH2 0x5E1B JUMPI JUMPDEST POP POP SHL SWAP2 PUSH1 0x0 NOT SWAP1 PUSH1 0x3 SHL SHR NOT AND OR SWAP1 SSTORE JUMPDEST ADD MLOAD ISZERO ISZERO SWAP2 ADD SWAP1 PUSH1 0xFF DUP1 NOT DUP4 SLOAD AND SWAP2 ISZERO ISZERO AND OR SWAP1 SSTORE JUMP JUMPDEST ADD MLOAD SWAP3 POP CODESIZE DUP1 PUSH2 0x5DF2 JUMP JUMPDEST SWAP2 SWAP4 SWAP5 SWAP6 SWAP7 PUSH1 0x1F NOT DUP5 AND DUP7 PUSH1 0x0 MSTORE DUP4 PUSH1 0x0 KECCAK256 SWAP4 PUSH1 0x0 SWAP1 JUMPDEST DUP3 DUP3 LT PUSH2 0x5E83 JUMPI POP POP SWAP3 PUSH1 0x80 SWAP6 SWAP3 DUP6 SWAP3 PUSH2 0x508F SWAP11 SWAP10 SWAP7 PUSH1 0x4 SWAP10 SWAP7 LT PUSH2 0x5E6A JUMPI JUMPDEST POP POP POP DUP2 SHL ADD SWAP1 SSTORE PUSH2 0x5E04 JUMP JUMPDEST ADD MLOAD PUSH1 0x0 NOT PUSH1 0xF8 DUP5 PUSH1 0x3 SHL AND SHR NOT AND SWAP1 SSTORE CODESIZE DUP1 DUP1 PUSH2 0x5E5D JUMP JUMPDEST DUP1 DUP9 DUP7 SWAP8 DUP3 SWAP5 SWAP8 DUP8 ADD MLOAD DUP2 SSTORE ADD SWAP7 ADD SWAP5 ADD SWAP1 PUSH2 0x5E3D JUMP JUMPDEST ISZERO PUSH2 0x5EA1 JUMPI JUMP JUMPDEST PUSH1 0x40 MLOAD PUSH3 0x461BCD PUSH1 0xE5 SHL DUP2 MSTORE PUSH1 0x20 PUSH1 0x4 DUP3 ADD MSTORE PUSH1 0x1C PUSH1 0x24 DUP3 ADD MSTORE PUSH32 0x4552433732313A20746F6B656E20616C7265616479206D696E74656400000000 PUSH1 0x44 DUP3 ADD MSTORE PUSH1 0x64 SWAP1 REVERT JUMPDEST ISZERO PUSH2 0x5EED JUMPI JUMP JUMPDEST PUSH1 0x40 MLOAD PUSH3 0x461BCD PUSH1 0xE5 SHL DUP2 MSTORE PUSH1 0x20 PUSH1 0x4 DUP3 ADD MSTORE PUSH1 0x16 PUSH1 0x24 DUP3 ADD MSTORE PUSH22 0x141C9BD91D58DD08191BD95CC81B9BDD08195E1A5CDD PUSH1 0x52 SHL PUSH1 0x44 DUP3 ADD MSTORE PUSH1 0x64 SWAP1 REVERT JUMPDEST ISZERO PUSH2 0x5F32 JUMPI JUMP JUMPDEST PUSH1 0x40 MLOAD PUSH3 0x461BCD PUSH1 0xE5 SHL DUP2 MSTORE PUSH1 0x20 PUSH1 0x4 DUP3 ADD MSTORE PUSH1 0x12 PUSH1 0x24 DUP3 ADD MSTORE PUSH18 0x141C9BD91D58DD081A5CC819195B195D1959 PUSH1 0x72 SHL PUSH1 0x44 DUP3 ADD MSTORE PUSH1 0x64 SWAP1 REVERT JUMPDEST PUSH1 0x40 MLOAD SWAP1 PUSH2 0x5F79 DUP3 PUSH2 0x4DA5 JUMP JUMPDEST PUSH1 0x0 PUSH1 0x80 DUP4 DUP3 DUP2 MSTORE DUP3 PUSH1 0x20 DUP3 ADD MSTORE DUP3 PUSH1 0x40 DUP3 ADD MSTORE PUSH1 0x60 DUP1 DUP3 ADD MSTORE ADD MSTORE JUMP JUMPDEST DUP1 SLOAD DUP3 LT ISZERO PUSH2 0x5113 JUMPI PUSH1 0x0 MSTORE PUSH1 0x5 PUSH1 0x20 PUSH1 0x0 KECCAK256 SWAP2 MUL ADD SWAP1 PUSH1 0x0 SWAP1 JUMP JUMPDEST PUSH1 0x0 NOT DUP2 EQ PUSH2 0x3C9E JUMPI PUSH1 0x1 ADD SWAP1 JUMP JUMPDEST DUP1 MLOAD DUP3 LT ISZERO PUSH2 0x5113 JUMPI PUSH1 0x20 SWAP2 PUSH1 0x5 SHL ADD ADD SWAP1 JUMP JUMPDEST SWAP1 PUSH1 0x40 MLOAD PUSH2 0x5FE3 DUP2 PUSH2 0x4DA5 JUMP JUMPDEST PUSH1 0x80 PUSH1 0xFF PUSH1 0x4 DUP4 SWAP6 DUP1 SLOAD DUP6 MSTORE PUSH1 0x1 DUP1 PUSH1 0xA0 SHL SUB PUSH1 0x1 DUP3 ADD SLOAD AND PUSH1 0x20 DUP7 ADD MSTORE PUSH1 0x2 DUP2 ADD SLOAD PUSH1 0x40 DUP7 ADD MSTORE PUSH2 0x6017 PUSH1 0x3 DUP3 ADD PUSH2 0x5051 JUMP JUMPDEST PUSH1 0x60 DUP7 ADD MSTORE ADD SLOAD AND ISZERO ISZERO SWAP2 ADD MSTORE JUMP JUMPDEST SWAP1 PUSH2 0x6030 DUP3 PUSH2 0x5C6B JUMP JUMPDEST PUSH2 0x603D PUSH1 0x40 MLOAD SWAP2 DUP3 PUSH2 0x4DDB JUMP JUMPDEST DUP3 DUP2 MSTORE DUP1 SWAP3 PUSH2 0x604E PUSH1 0x1F NOT SWAP2 PUSH2 0x5C6B JUMP JUMPDEST ADD SWAP1 PUSH1 0x0 JUMPDEST DUP3 DUP2 LT PUSH2 0x605F JUMPI POP POP POP JUMP JUMPDEST PUSH1 0x20 SWAP1 PUSH2 0x606A PUSH2 0x5BDF JUMP JUMPDEST DUP3 DUP3 DUP6 ADD ADD MSTORE ADD PUSH2 0x6053 JUMP JUMPDEST SWAP2 SWAP1 DUP3 SUB SWAP2 DUP3 GT PUSH2 0x3C9E JUMPI JUMP JUMPDEST DUP1 SLOAD PUSH1 0x1 PUSH1 0x40 SHL DUP2 LT ISZERO PUSH2 0x21EF JUMPI PUSH2 0x60A2 SWAP1 PUSH1 0x1 SWAP3 DUP4 DUP3 ADD DUP2 SSTORE PUSH2 0x50F7 JUMP JUMPDEST SWAP3 SWAP1 SWAP3 PUSH2 0x6745 JUMPI DUP1 MLOAD DUP4 SSTORE PUSH1 0x20 SWAP3 DUP4 DUP3 ADD MLOAD DUP4 DUP3 ADD SSTORE PUSH1 0x40 DUP3 ADD MLOAD PUSH1 0x2 DUP3 ADD SSTORE PUSH1 0x60 DUP3 ADD MLOAD SWAP1 PUSH1 0x3 SWAP2 DUP3 DUP3 ADD SSTORE PUSH1 0x4 DUP1 DUP3 ADD PUSH1 0x1 DUP1 PUSH1 0xA0 SHL SUB SWAP1 DUP2 PUSH1 0x80 DUP8 ADD MLOAD AND PUSH1 0x1 PUSH1 0x1 PUSH1 0x60 SHL SUB PUSH1 0xA0 SHL DUP3 SLOAD AND OR SWAP1 SSTORE PUSH1 0x5 DUP4 ADD SWAP1 PUSH1 0xA0 DUP7 ADD MLOAD AND DUP2 SLOAD SWAP1 PUSH1 0xFF PUSH1 0xA0 SHL PUSH1 0xC0 DUP9 ADD MLOAD ISZERO ISZERO PUSH1 0xA0 SHL AND SWAP2 PUSH11 0xFFFFFFFFFFFFFFFFFFFFFF PUSH1 0xA8 SHL AND OR OR SWAP1 SSTORE PUSH1 0xE0 PUSH1 0x6 DUP4 ADD SWAP5 ADD MLOAD SWAP6 DUP7 MLOAD SWAP3 DUP4 MLOAD SWAP6 PUSH1 0x1 PUSH1 0x1 PUSH1 0x40 SHL SUB SWAP7 DUP8 DUP2 GT PUSH2 0x6730 JUMPI PUSH2 0x6155 DUP2 PUSH2 0x1D8E DUP5 SLOAD PUSH2 0x5017 JUMP JUMPDEST DUP1 DUP5 PUSH1 0x1F SWAP8 DUP9 DUP4 GT PUSH1 0x1 EQ PUSH2 0x66CE JUMPI PUSH1 0x0 SWAP3 PUSH2 0x66C3 JUMPI JUMPDEST POP POP PUSH1 0x0 NOT DUP3 DUP10 SHL SHR NOT AND SWAP1 DUP10 SHL OR SWAP1 SSTORE JUMPDEST PUSH1 0x7 DUP2 ADD DUP3 DUP10 ADD MLOAD DUP1 MLOAD SWAP1 DUP9 DUP3 GT PUSH2 0x648D JUMPI DUP2 SWAP1 PUSH2 0x61A0 DUP3 PUSH2 0x1816 DUP7 SLOAD PUSH2 0x5017 JUMP JUMPDEST DUP6 SWAP1 DUP9 DUP4 GT PUSH1 0x1 EQ PUSH2 0x6661 JUMPI PUSH1 0x0 SWAP3 PUSH2 0x6656 JUMPI JUMPDEST POP POP PUSH1 0x0 NOT DUP3 DUP10 SHL SHR NOT AND SWAP1 DUP10 SHL OR SWAP1 SSTORE JUMPDEST PUSH1 0x8 DUP2 ADD PUSH1 0x40 DUP10 ADD MLOAD DUP1 MLOAD SWAP1 DUP9 DUP3 GT PUSH2 0x648D JUMPI DUP2 SWAP1 PUSH2 0x61E9 DUP3 PUSH2 0x1816 DUP7 SLOAD PUSH2 0x5017 JUMP JUMPDEST DUP6 SWAP1 DUP9 DUP4 GT PUSH1 0x1 EQ PUSH2 0x65F4 JUMPI PUSH1 0x0 SWAP3 PUSH2 0x65E9 JUMPI JUMPDEST POP POP PUSH1 0x0 NOT DUP3 DUP10 SHL SHR NOT AND SWAP1 DUP10 SHL OR SWAP1 SSTORE JUMPDEST PUSH1 0x9 DUP2 ADD PUSH1 0x60 DUP10 ADD MLOAD DUP1 MLOAD SWAP1 DUP9 DUP3 GT PUSH2 0x648D JUMPI DUP2 SWAP1 PUSH2 0x6232 DUP3 PUSH2 0x1816 DUP7 SLOAD PUSH2 0x5017 JUMP JUMPDEST DUP6 SWAP1 DUP9 DUP4 GT PUSH1 0x1 EQ PUSH2 0x6587 JUMPI PUSH1 0x0 SWAP3 PUSH2 0x657C JUMPI JUMPDEST POP POP PUSH1 0x0 NOT DUP3 DUP10 SHL SHR NOT AND SWAP1 DUP10 SHL OR SWAP1 SSTORE JUMPDEST PUSH1 0xA DUP2 ADD PUSH1 0x80 DUP10 ADD MLOAD DUP1 MLOAD SWAP1 DUP9 DUP3 GT PUSH2 0x648D JUMPI DUP2 SWAP1 PUSH2 0x627B DUP3 PUSH2 0x1816 DUP7 SLOAD PUSH2 0x5017 JUMP JUMPDEST DUP6 SWAP1 DUP9 DUP4 GT PUSH1 0x1 EQ PUSH2 0x651A JUMPI PUSH1 0x0 SWAP3 PUSH2 0x650F JUMPI JUMPDEST POP POP PUSH1 0x0 NOT DUP3 DUP10 SHL SHR NOT AND SWAP1 DUP10 SHL OR SWAP1 SSTORE JUMPDEST PUSH1 0xB DUP2 ADD PUSH1 0xA0 DUP10 ADD MLOAD DUP1 MLOAD SWAP1 DUP9 DUP3 GT PUSH2 0x648D JUMPI DUP2 SWAP1 PUSH2 0x62C4 DUP3 PUSH2 0x1816 DUP7 SLOAD PUSH2 0x5017 JUMP JUMPDEST DUP6 SWAP1 DUP9 DUP4 GT PUSH1 0x1 EQ PUSH2 0x64AD JUMPI PUSH1 0x0 SWAP3 PUSH2 0x64A2 JUMPI JUMPDEST POP POP PUSH1 0x0 NOT DUP3 DUP10 SHL SHR NOT AND SWAP1 DUP10 SHL OR SWAP1 SSTORE JUMPDEST PUSH1 0xC DUP2 ADD PUSH1 0xC0 DUP10 ADD MLOAD DUP1 MLOAD SWAP1 DUP9 DUP3 GT PUSH2 0x648D JUMPI PUSH2 0x6311 DUP3 PUSH2 0x630B DUP6 SLOAD PUSH2 0x5017 JUMP JUMPDEST DUP6 PUSH2 0x5C99 JUMP JUMPDEST DUP5 SWAP1 DUP8 DUP4 GT PUSH1 0x1 EQ PUSH2 0x6420 JUMPI SWAP2 DUP1 PUSH1 0xD SWAP5 SWAP3 PUSH1 0xE0 SWAP7 SWAP5 PUSH1 0x0 SWAP3 PUSH2 0x6415 JUMPI JUMPDEST POP POP PUSH1 0x0 NOT DUP3 DUP12 SHL SHR NOT AND SWAP1 DUP12 SHL OR SWAP1 SSTORE JUMPDEST ADD SWAP8 ADD MLOAD SWAP2 DUP3 MLOAD SWAP6 DUP7 GT PUSH2 0x6400 JUMPI POP PUSH2 0x6364 DUP6 PUSH2 0x635E DUP10 SLOAD PUSH2 0x5017 JUMP JUMPDEST DUP10 PUSH2 0x5C99 JUMP JUMPDEST DUP1 SWAP3 DUP6 GT PUSH1 0x1 EQ PUSH2 0x639A JUMPI POP SWAP4 DUP4 SWAP5 SWAP2 DUP5 SWAP3 PUSH1 0x0 SWAP6 PUSH2 0x638F JUMPI JUMPDEST POP POP SHL SWAP3 PUSH1 0x0 NOT SWAP2 SHL SHR NOT AND OR SWAP1 SSTORE JUMP JUMPDEST ADD MLOAD SWAP4 POP CODESIZE DUP1 PUSH2 0x637E JUMP JUMPDEST SWAP3 SWAP2 SWAP1 DUP5 PUSH1 0x1F NOT DUP2 AND DUP9 PUSH1 0x0 MSTORE DUP6 PUSH1 0x0 KECCAK256 SWAP6 PUSH1 0x0 SWAP1 JUMPDEST DUP10 DUP4 DUP4 LT PUSH2 0x63E6 JUMPI POP POP POP LT PUSH2 0x63CC JUMPI JUMPDEST POP POP POP POP DUP2 SHL ADD SWAP1 SSTORE JUMP JUMPDEST ADD MLOAD SWAP1 PUSH1 0xF8 DUP5 PUSH1 0x0 NOT SWAP3 SHL AND SHR NOT AND SWAP1 SSTORE CODESIZE DUP1 DUP1 DUP1 PUSH2 0x63C1 JUMP JUMPDEST DUP6 DUP8 ADD MLOAD DUP10 SSTORE SWAP1 SWAP8 ADD SWAP7 SWAP5 DUP6 ADD SWAP5 DUP9 SWAP4 POP SWAP1 DUP2 ADD SWAP1 PUSH2 0x63B0 JUMP JUMPDEST PUSH1 0x41 SWAP1 PUSH4 0x4E487B71 PUSH1 0xE0 SHL PUSH1 0x0 MSTORE MSTORE PUSH1 0x24 PUSH1 0x0 REVERT JUMPDEST ADD MLOAD SWAP1 POP CODESIZE DUP1 PUSH2 0x632F JUMP JUMPDEST DUP11 SWAP3 SWAP2 PUSH1 0x1F NOT DUP4 AND SWAP2 DUP6 PUSH1 0x0 MSTORE DUP8 PUSH1 0x0 KECCAK256 SWAP3 PUSH1 0x0 JUMPDEST DUP10 DUP3 DUP3 LT PUSH2 0x6477 JUMPI POP POP SWAP2 PUSH1 0xE0 SWAP8 SWAP6 SWAP4 SWAP2 DUP6 PUSH1 0xD SWAP9 SWAP7 SWAP5 LT PUSH2 0x645F JUMPI JUMPDEST POP POP POP DUP2 SHL ADD SWAP1 SSTORE PUSH2 0x6341 JUMP JUMPDEST ADD MLOAD PUSH1 0x0 NOT DUP4 DUP14 SHL PUSH1 0xF8 AND SHR NOT AND SWAP1 SSTORE CODESIZE DUP1 DUP1 PUSH2 0x6452 JUMP JUMPDEST DUP4 DUP6 ADD MLOAD DUP7 SSTORE DUP16 SWAP8 SWAP1 SWAP6 ADD SWAP5 SWAP4 DUP5 ADD SWAP4 ADD PUSH2 0x6435 JUMP JUMPDEST PUSH1 0x41 DUP7 PUSH4 0x4E487B71 PUSH1 0xE0 SHL PUSH1 0x0 MSTORE MSTORE PUSH1 0x24 PUSH1 0x0 REVERT JUMPDEST ADD MLOAD SWAP1 POP CODESIZE DUP1 PUSH2 0x62D8 JUMP JUMPDEST SWAP1 DUP12 SWAP4 POP PUSH1 0x1F NOT DUP4 AND SWAP2 DUP6 PUSH1 0x0 MSTORE DUP8 PUSH1 0x0 KECCAK256 SWAP3 PUSH1 0x0 JUMPDEST DUP10 DUP3 DUP3 LT PUSH2 0x64F9 JUMPI POP POP DUP5 GT PUSH2 0x64E1 JUMPI JUMPDEST POP POP POP DUP2 SHL ADD SWAP1 SSTORE PUSH2 0x62EA JUMP JUMPDEST ADD MLOAD PUSH1 0x0 NOT DUP4 DUP12 SHL PUSH1 0xF8 AND SHR NOT AND SWAP1 SSTORE CODESIZE DUP1 DUP1 PUSH2 0x64D4 JUMP JUMPDEST DUP4 DUP6 ADD MLOAD DUP7 SSTORE DUP16 SWAP8 SWAP1 SWAP6 ADD SWAP5 SWAP4 DUP5 ADD SWAP4 ADD PUSH2 0x64C3 JUMP JUMPDEST ADD MLOAD SWAP1 POP CODESIZE DUP1 PUSH2 0x628F JUMP JUMPDEST SWAP1 DUP12 SWAP4 POP PUSH1 0x1F NOT DUP4 AND SWAP2 DUP6 PUSH1 0x0 MSTORE DUP8 PUSH1 0x0 KECCAK256 SWAP3 PUSH1 0x0 JUMPDEST DUP10 DUP3 DUP3 LT PUSH2 0x6566 JUMPI POP POP DUP5 GT PUSH2 0x654E JUMPI JUMPDEST POP POP POP DUP2 SHL ADD SWAP1 SSTORE PUSH2 0x62A1 JUMP JUMPDEST ADD MLOAD PUSH1 0x0 NOT DUP4 DUP12 SHL PUSH1 0xF8 AND SHR NOT AND SWAP1 SSTORE CODESIZE DUP1 DUP1 PUSH2 0x6541 JUMP JUMPDEST DUP4 DUP6 ADD MLOAD DUP7 SSTORE DUP16 SWAP8 SWAP1 SWAP6 ADD SWAP5 SWAP4 DUP5 ADD SWAP4 ADD PUSH2 0x6530 JUMP JUMPDEST ADD MLOAD SWAP1 POP CODESIZE DUP1 PUSH2 0x6246 JUMP JUMPDEST SWAP1 DUP12 SWAP4 POP PUSH1 0x1F NOT DUP4 AND SWAP2 DUP6 PUSH1 0x0 MSTORE DUP8 PUSH1 0x0 KECCAK256 SWAP3 PUSH1 0x0 JUMPDEST DUP10 DUP3 DUP3 LT PUSH2 0x65D3 JUMPI POP POP DUP5 GT PUSH2 0x65BB JUMPI JUMPDEST POP POP POP DUP2 SHL ADD SWAP1 SSTORE PUSH2 0x6258 JUMP JUMPDEST ADD MLOAD PUSH1 0x0 NOT DUP4 DUP12 SHL PUSH1 0xF8 AND SHR NOT AND SWAP1 SSTORE CODESIZE DUP1 DUP1 PUSH2 0x65AE JUMP JUMPDEST DUP4 DUP6 ADD MLOAD DUP7 SSTORE DUP16 SWAP8 SWAP1 SWAP6 ADD SWAP5 SWAP4 DUP5 ADD SWAP4 ADD PUSH2 0x659D JUMP JUMPDEST ADD MLOAD SWAP1 POP CODESIZE DUP1 PUSH2 0x61FD JUMP JUMPDEST SWAP1 DUP12 SWAP4 POP PUSH1 0x1F NOT DUP4 AND SWAP2 DUP6 PUSH1 0x0 MSTORE DUP8 PUSH1 0x0 KECCAK256 SWAP3 PUSH1 0x0 JUMPDEST DUP10 DUP3 DUP3 LT PUSH2 0x6640 JUMPI POP POP DUP5 GT PUSH2 0x6628 JUMPI JUMPDEST POP POP POP DUP2 SHL ADD SWAP1 SSTORE PUSH2 0x620F JUMP JUMPDEST ADD MLOAD PUSH1 0x0 NOT DUP4 DUP12 SHL PUSH1 0xF8 AND SHR NOT AND SWAP1 SSTORE CODESIZE DUP1 DUP1 PUSH2 0x661B JUMP JUMPDEST DUP4 DUP6 ADD MLOAD DUP7 SSTORE DUP16 SWAP8 SWAP1 SWAP6 ADD SWAP5 SWAP4 DUP5 ADD SWAP4 ADD PUSH2 0x660A JUMP JUMPDEST ADD MLOAD SWAP1 POP CODESIZE DUP1 PUSH2 0x61B4 JUMP JUMPDEST SWAP1 DUP12 SWAP4 POP PUSH1 0x1F NOT DUP4 AND SWAP2 DUP6 PUSH1 0x0 MSTORE DUP8 PUSH1 0x0 KECCAK256 SWAP3 PUSH1 0x0 JUMPDEST DUP10 DUP3 DUP3 LT PUSH2 0x66AD JUMPI POP POP DUP5 GT PUSH2 0x6695 JUMPI JUMPDEST POP POP POP DUP2 SHL ADD SWAP1 SSTORE PUSH2 0x61C6 JUMP JUMPDEST ADD MLOAD PUSH1 0x0 NOT DUP4 DUP12 SHL PUSH1 0xF8 AND SHR NOT AND SWAP1 SSTORE CODESIZE DUP1 DUP1 PUSH2 0x6688 JUMP JUMPDEST DUP4 DUP6 ADD MLOAD DUP7 SSTORE DUP16 SWAP8 SWAP1 SWAP6 ADD SWAP5 SWAP4 DUP5 ADD SWAP4 ADD PUSH2 0x6677 JUMP JUMPDEST ADD MLOAD SWAP1 POP CODESIZE DUP1 PUSH2 0x616C JUMP JUMPDEST SWAP1 DUP12 SWAP4 POP PUSH1 0x1F NOT DUP4 AND SWAP2 DUP6 PUSH1 0x0 MSTORE DUP8 PUSH1 0x0 KECCAK256 SWAP3 PUSH1 0x0 JUMPDEST DUP10 DUP3 DUP3 LT PUSH2 0x671A JUMPI POP POP DUP5 GT PUSH2 0x6702 JUMPI JUMPDEST POP POP POP DUP2 SHL ADD SWAP1 SSTORE PUSH2 0x617E JUMP JUMPDEST ADD MLOAD PUSH1 0x0 NOT DUP4 DUP12 SHL PUSH1 0xF8 AND SHR NOT AND SWAP1 SSTORE CODESIZE DUP1 DUP1 PUSH2 0x66F5 JUMP JUMPDEST DUP4 DUP6 ADD MLOAD DUP7 SSTORE DUP16 SWAP8 SWAP1 SWAP6 ADD SWAP5 SWAP4 DUP5 ADD SWAP4 ADD PUSH2 0x66E4 JUMP JUMPDEST PUSH1 0x41 DUP6 PUSH4 0x4E487B71 PUSH1 0xE0 SHL PUSH1 0x0 MSTORE MSTORE PUSH1 0x24 PUSH1 0x0 REVERT JUMPDEST PUSH4 0x4E487B71 PUSH1 0xE0 SHL PUSH1 0x0 MSTORE PUSH1 0x0 PUSH1 0x4 MSTORE PUSH1 0x24 PUSH1 0x0 REVERT JUMPDEST PUSH1 0x1 DUP1 PUSH1 0xA0 SHL SUB DUP1 SWAP2 AND PUSH1 0x0 MSTORE PUSH1 0x20 SWAP1 PUSH1 0x10 DUP3 MSTORE PUSH1 0x40 SWAP2 DUP3 PUSH1 0x0 KECCAK256 SWAP1 DUP2 SLOAD SWAP3 PUSH2 0x6783 DUP5 PUSH2 0x5C6B JUMP JUMPDEST SWAP5 PUSH2 0x6790 DUP2 MLOAD SWAP7 DUP8 PUSH2 0x4DDB JUMP JUMPDEST DUP5 DUP7 MSTORE PUSH1 0x0 SWAP4 DUP5 MSTORE DUP3 DUP5 KECCAK256 SWAP2 DUP4 DUP8 ADD JUMPDEST DUP7 DUP7 LT PUSH2 0x67B1 JUMPI POP POP POP POP POP POP POP SWAP1 JUMP JUMPDEST PUSH1 0xE DUP6 PUSH1 0x1 SWAP3 DUP6 MLOAD PUSH2 0x67C2 DUP2 PUSH2 0x4D89 JUMP JUMPDEST DUP8 SLOAD DUP2 MSTORE DUP5 DUP9 ADD SLOAD DUP4 DUP3 ADD MSTORE PUSH1 0x2 DUP9 ADD SLOAD DUP8 DUP3 ADD MSTORE PUSH1 0x3 DUP9 ADD SLOAD PUSH1 0x60 DUP3 ADD MSTORE DUP6 PUSH1 0x4 DUP10 ADD SLOAD AND PUSH1 0x80 DUP3 ADD MSTORE PUSH1 0xFF PUSH1 0x5 DUP10 ADD SLOAD PUSH1 0xA0 DUP9 DUP3 AND DUP2 DUP6 ADD MSTORE SHR AND ISZERO ISZERO PUSH1 0xC0 DUP3 ADD MSTORE PUSH2 0x6812 PUSH1 0x6 DUP10 ADD PUSH2 0x5129 JUMP JUMPDEST PUSH1 0xE0 DUP3 ADD MSTORE DUP2 MSTORE ADD SWAP5 ADD SWAP6 ADD SWAP5 SWAP3 PUSH2 0x67A0 JUMP JUMPDEST PUSH1 0x1 DUP1 PUSH1 0xA0 SHL SUB DUP1 SWAP2 AND PUSH1 0x0 MSTORE PUSH1 0x20 SWAP1 PUSH1 0x11 DUP3 MSTORE PUSH1 0x40 SWAP2 DUP3 PUSH1 0x0 KECCAK256 SWAP1 DUP2 SLOAD SWAP3 PUSH2 0x684D DUP5 PUSH2 0x5C6B JUMP JUMPDEST SWAP5 PUSH2 0x685A DUP2 MLOAD SWAP7 DUP8 PUSH2 0x4DDB JUMP JUMPDEST DUP5 DUP7 MSTORE PUSH1 0x0 SWAP4 DUP5 MSTORE DUP3 DUP5 KECCAK256 SWAP2 DUP4 DUP8 ADD JUMPDEST DUP7 DUP7 LT PUSH2 0x687B JUMPI POP POP POP POP POP POP POP SWAP1 JUMP JUMPDEST PUSH1 0xE DUP6 PUSH1 0x1 SWAP3 DUP6 MLOAD PUSH2 0x688C DUP2 PUSH2 0x4D89 JUMP JUMPDEST DUP8 SLOAD DUP2 MSTORE DUP5 DUP9 ADD SLOAD DUP4 DUP3 ADD MSTORE PUSH1 0x2 DUP9 ADD SLOAD DUP8 DUP3 ADD MSTORE PUSH1 0x3 DUP9 ADD SLOAD PUSH1 0x60 DUP3 ADD MSTORE DUP6 PUSH1 0x4 DUP10 ADD SLOAD AND PUSH1 0x80 DUP3 ADD MSTORE PUSH1 0xFF PUSH1 0x5 DUP10 ADD SLOAD PUSH1 0xA0 DUP9 DUP3 AND DUP2 DUP6 ADD MSTORE SHR AND ISZERO ISZERO PUSH1 0xC0 DUP3 ADD MSTORE PUSH2 0x68DC PUSH1 0x6 DUP10 ADD PUSH2 0x5129 JUMP JUMPDEST PUSH1 0xE0 DUP3 ADD MSTORE DUP2 MSTORE ADD SWAP5 ADD SWAP6 ADD SWAP5 SWAP3 PUSH2 0x686A JUMP JUMPDEST PUSH1 0x1 PUSH1 0x1 PUSH1 0xA0 SHL SUB AND DUP1 ISZERO PUSH2 0x694E JUMPI PUSH1 0x0 DUP1 DUP1 SWAP4 DUP2 SWAP4 GAS CALL PUSH2 0x690F PUSH2 0x55F8 JUMP JUMPDEST POP ISZERO PUSH2 0x6917 JUMPI JUMP JUMPDEST PUSH1 0x40 MLOAD PUSH3 0x461BCD PUSH1 0xE5 SHL DUP2 MSTORE PUSH1 0x20 PUSH1 0x4 DUP3 ADD MSTORE PUSH1 0xF PUSH1 0x24 DUP3 ADD MSTORE PUSH15 0x151C985B9CD9995C8819985A5B1959 PUSH1 0x8A SHL PUSH1 0x44 DUP3 ADD MSTORE PUSH1 0x64 SWAP1 REVERT JUMPDEST PUSH1 0x40 MLOAD PUSH3 0x461BCD PUSH1 0xE5 SHL DUP2 MSTORE PUSH1 0x20 PUSH1 0x4 DUP3 ADD MSTORE PUSH1 0xF PUSH1 0x24 DUP3 ADD MSTORE PUSH15 0x496E76616C69642061646472657373 PUSH1 0x88 SHL PUSH1 0x44 DUP3 ADD MSTORE PUSH1 0x64 SWAP1 REVERT INVALID LOG2 PUSH5 0x6970667358 0x22 SLT KECCAK256 0xCD 0xA5 CODESIZE CALLVALUE SWAP16 0xAE PUSH4 0x6361EE6C MUL CALL PUSH10 0x4BDE544DBFF8B82DCA09 0xD1 JUMP SWAP8 CALL SIGNEXTEND MLOAD 0xD9 SELFBALANCE PUSH5 0x736F6C6343 STOP ADDMOD SGT STOP CALLER "},"methodIdentifiers":{"approve(address,uint256)":"095ea7b3","balanceOf(address)":"70a08231","buyProduct(uint256,(string,string,string,string,string,string,string,string))":"661e1712","buyerPurchaseHistory(address,uint256)":"9fa44dbf","createProduct((string,string,uint256,uint256,string,string,string[],string,string,string,string,uint256,uint256))":"b235b4a9","createReview(uint256,uint256,string)":"16d81b38","deleteProduct(uint256)":"ed90c7b7","deleteReview(uint256,uint256)":"24d41a03","getAllProducts()":"02ee3a52","getApproved(uint256)":"081812fc","getBuyerPurchaseHistory(address)":"b27e1697","getBuyerPurchaseHistoryAsAdmin(address)":"d8b0f841","getMyProducts()":"fdca4ca3","getProduct(uint256)":"b9db15b4","getProductsAsSeller(address)":"5a158520","getReviews(uint256)":"9d4a2255","getSellerBalance(address)":"2148893f","getSellerBalanceAsAdmin(address)":"0377a9d6","getSellerPurchaseHistory(address)":"3c2575d5","getSellerPurchaseHistoryAsAdmin(address)":"e4b25c6a","isApprovedForAll(address,address)":"e985e9c5","markPurchaseDelivered(uint256,address)":"11aa5b34","name()":"06fdde03","owner()":"8da5cb5b","ownerOf(uint256)":"6352211e","productExists(uint256)":"af55ed64","products(uint256)":"7acc0b20","registerSeller()":"52c9224c","registeredSellers(address)":"c64b8a8f","renounceOwnership()":"715018a6","reviewExists(uint256)":"00d64e76","safeTransferFrom(address,address,uint256)":"42842e0e","safeTransferFrom(address,address,uint256,bytes)":"b88d4fde","sellerBalances(address)":"607eb4e4","sellerProducts(address,uint256)":"c1302b34","sellerPurchaseHistory(address,uint256)":"e585cb2c","sellerStatus(address)":"45de84db","servicePct()":"e01ef6e6","setApprovalForAll(address,bool)":"a22cb465","supportsInterface(bytes4)":"01ffc9a7","symbol()":"95d89b41","tokenURI(uint256)":"c87b56dd","transferFrom(address,address,uint256)":"23b872dd","transferOwnership(address)":"f2fde38b","updateProduct(uint256,(string,string,uint256,uint256,string,string,string[],string,string,string,string,uint256,uint256))":"b1191052","updateSellerStatus(address,uint8)":"97b6f393","withdraw()":"3ccfd60b"}}}}}