{
  "_format": "hh-sol-artifact-1",
  "contractName": "HemShop",
  "sourceName": "contracts/HemShop.sol",
  "abi": [
    {
      "inputs": [
        {
          "internalType": "uint256",
          "name": "_pct",
          "type": "uint256"
        }
      ],
      "stateMutability": "nonpayable",
      "type": "constructor"
    },
    {
      "anonymous": false,
      "inputs": [
        {
          "indexed": false,
          "internalType": "address",
          "name": "admin",
          "type": "address"
        },
        {
          "indexed": false,
          "internalType": "address",
          "name": "impersonatedAccount",
          "type": "address"
        }
      ],
      "name": "AdminImpersonationChanged",
      "type": "event"
    },
    {
      "anonymous": false,
      "inputs": [
        {
          "indexed": true,
          "internalType": "address",
          "name": "owner",
          "type": "address"
        },
        {
          "indexed": true,
          "internalType": "address",
          "name": "approved",
          "type": "address"
        },
        {
          "indexed": true,
          "internalType": "uint256",
          "name": "tokenId",
          "type": "uint256"
        }
      ],
      "name": "Approval",
      "type": "event"
    },
    {
      "anonymous": false,
      "inputs": [
        {
          "indexed": true,
          "internalType": "address",
          "name": "owner",
          "type": "address"
        },
        {
          "indexed": true,
          "internalType": "address",
          "name": "operator",
          "type": "address"
        },
        {
          "indexed": false,
          "internalType": "bool",
          "name": "approved",
          "type": "bool"
        }
      ],
      "name": "ApprovalForAll",
      "type": "event"
    },
    {
      "anonymous": false,
      "inputs": [
        {
          "indexed": true,
          "internalType": "address",
          "name": "seller",
          "type": "address"
        },
        {
          "indexed": false,
          "internalType": "uint256",
          "name": "newBalance",
          "type": "uint256"
        }
      ],
      "name": "BalanceUpdated",
      "type": "event"
    },
    {
      "anonymous": false,
      "inputs": [
        {
          "indexed": true,
          "internalType": "uint256",
          "name": "id",
          "type": "uint256"
        },
        {
          "indexed": false,
          "internalType": "string",
          "name": "name",
          "type": "string"
        }
      ],
      "name": "CategoryCreated",
      "type": "event"
    },
    {
      "anonymous": false,
      "inputs": [
        {
          "indexed": true,
          "internalType": "uint256",
          "name": "id",
          "type": "uint256"
        },
        {
          "indexed": false,
          "internalType": "string",
          "name": "name",
          "type": "string"
        },
        {
          "indexed": false,
          "internalType": "bool",
          "name": "isActive",
          "type": "bool"
        }
      ],
      "name": "CategoryUpdated",
      "type": "event"
    },
    {
      "anonymous": false,
      "inputs": [
        {
          "indexed": true,
          "internalType": "uint256",
          "name": "productId",
          "type": "uint256"
        },
        {
          "indexed": true,
          "internalType": "address",
          "name": "buyer",
          "type": "address"
        },
        {
          "indexed": false,
          "internalType": "bool",
          "name": "isDelivered",
          "type": "bool"
        }
      ],
      "name": "DeliveryStatusUpdated",
      "type": "event"
    },
    {
      "anonymous": false,
      "inputs": [
        {
          "indexed": true,
          "internalType": "address",
          "name": "previousOwner",
          "type": "address"
        },
        {
          "indexed": true,
          "internalType": "address",
          "name": "newOwner",
          "type": "address"
        }
      ],
      "name": "OwnershipTransferred",
      "type": "event"
    },
    {
      "anonymous": false,
      "inputs": [
        {
          "indexed": true,
          "internalType": "uint256",
          "name": "productId",
          "type": "uint256"
        },
        {
          "indexed": true,
          "internalType": "address",
          "name": "buyer",
          "type": "address"
        },
        {
          "indexed": true,
          "internalType": "address",
          "name": "seller",
          "type": "address"
        },
        {
          "indexed": false,
          "internalType": "uint256",
          "name": "price",
          "type": "uint256"
        },
        {
          "indexed": false,
          "internalType": "uint256",
          "name": "timestamp",
          "type": "uint256"
        }
      ],
      "name": "ProductPurchased",
      "type": "event"
    },
    {
      "anonymous": false,
      "inputs": [
        {
          "indexed": true,
          "internalType": "uint256",
          "name": "productId",
          "type": "uint256"
        },
        {
          "indexed": true,
          "internalType": "address",
          "name": "buyer",
          "type": "address"
        },
        {
          "indexed": true,
          "internalType": "address",
          "name": "seller",
          "type": "address"
        },
        {
          "indexed": false,
          "internalType": "uint256",
          "name": "totalAmount",
          "type": "uint256"
        },
        {
          "indexed": false,
          "internalType": "uint256",
          "name": "basePrice",
          "type": "uint256"
        },
        {
          "indexed": false,
          "internalType": "uint256",
          "name": "timestamp",
          "type": "uint256"
        }
      ],
      "name": "PurchaseRecorded",
      "type": "event"
    },
    {
      "anonymous": false,
      "inputs": [
        {
          "indexed": true,
          "internalType": "address",
          "name": "seller",
          "type": "address"
        },
        {
          "indexed": false,
          "internalType": "uint256",
          "name": "timestamp",
          "type": "uint256"
        }
      ],
      "name": "SellerRegistered",
      "type": "event"
    },
    {
      "anonymous": false,
      "inputs": [
        {
          "indexed": true,
          "internalType": "address",
          "name": "seller",
          "type": "address"
        },
        {
          "indexed": false,
          "internalType": "enum HemShop.SellerStatus",
          "name": "status",
          "type": "uint8"
        }
      ],
      "name": "SellerStatusUpdated",
      "type": "event"
    },
    {
      "anonymous": false,
      "inputs": [
        {
          "indexed": true,
          "internalType": "uint256",
          "name": "id",
          "type": "uint256"
        },
        {
          "indexed": true,
          "internalType": "uint256",
          "name": "parentId",
          "type": "uint256"
        },
        {
          "indexed": false,
          "internalType": "string",
          "name": "name",
          "type": "string"
        }
      ],
      "name": "SubCategoryCreated",
      "type": "event"
    },
    {
      "anonymous": false,
      "inputs": [
        {
          "indexed": true,
          "internalType": "uint256",
          "name": "id",
          "type": "uint256"
        },
        {
          "indexed": false,
          "internalType": "string",
          "name": "name",
          "type": "string"
        },
        {
          "indexed": false,
          "internalType": "bool",
          "name": "isActive",
          "type": "bool"
        }
      ],
      "name": "SubCategoryUpdated",
      "type": "event"
    },
    {
      "anonymous": false,
      "inputs": [
        {
          "indexed": true,
          "internalType": "address",
          "name": "from",
          "type": "address"
        },
        {
          "indexed": true,
          "internalType": "address",
          "name": "to",
          "type": "address"
        },
        {
          "indexed": true,
          "internalType": "uint256",
          "name": "tokenId",
          "type": "uint256"
        }
      ],
      "name": "Transfer",
      "type": "event"
    },
    {
      "inputs": [
        {
          "internalType": "address",
          "name": "",
          "type": "address"
        }
      ],
      "name": "adminImpersonating",
      "outputs": [
        {
          "internalType": "address",
          "name": "",
          "type": "address"
        }
      ],
      "stateMutability": "view",
      "type": "function"
    },
    {
      "inputs": [
        {
          "internalType": "address",
          "name": "to",
          "type": "address"
        },
        {
          "internalType": "uint256",
          "name": "tokenId",
          "type": "uint256"
        }
      ],
      "name": "approve",
      "outputs": [],
      "stateMutability": "nonpayable",
      "type": "function"
    },
    {
      "inputs": [
        {
          "internalType": "address",
          "name": "owner",
          "type": "address"
        }
      ],
      "name": "balanceOf",
      "outputs": [
        {
          "internalType": "uint256",
          "name": "",
          "type": "uint256"
        }
      ],
      "stateMutability": "view",
      "type": "function"
    },
    {
      "inputs": [
        {
          "internalType": "uint256",
          "name": "productId",
          "type": "uint256"
        },
        {
          "components": [
            {
              "internalType": "string",
              "name": "fullName",
              "type": "string"
            },
            {
              "internalType": "string",
              "name": "streetAddress",
              "type": "string"
            },
            {
              "internalType": "string",
              "name": "city",
              "type": "string"
            },
            {
              "internalType": "string",
              "name": "state",
              "type": "string"
            },
            {
              "internalType": "string",
              "name": "country",
              "type": "string"
            },
            {
              "internalType": "string",
              "name": "postalCode",
              "type": "string"
            },
            {
              "internalType": "string",
              "name": "phone",
              "type": "string"
            },
            {
              "internalType": "string",
              "name": "email",
              "type": "string"
            }
          ],
          "internalType": "struct HemShop.ShippingDetails",
          "name": "shippingDetails",
          "type": "tuple"
        }
      ],
      "name": "buyProduct",
      "outputs": [],
      "stateMutability": "payable",
      "type": "function"
    },
    {
      "inputs": [
        {
          "internalType": "address",
          "name": "",
          "type": "address"
        },
        {
          "internalType": "uint256",
          "name": "",
          "type": "uint256"
        }
      ],
      "name": "buyerPurchaseHistory",
      "outputs": [
        {
          "internalType": "uint256",
          "name": "productId",
          "type": "uint256"
        },
        {
          "internalType": "uint256",
          "name": "totalAmount",
          "type": "uint256"
        },
        {
          "internalType": "uint256",
          "name": "basePrice",
          "type": "uint256"
        },
        {
          "internalType": "uint256",
          "name": "timestamp",
          "type": "uint256"
        },
        {
          "internalType": "address",
          "name": "buyer",
          "type": "address"
        },
        {
          "internalType": "address",
          "name": "seller",
          "type": "address"
        },
        {
          "internalType": "bool",
          "name": "isDelivered",
          "type": "bool"
        },
        {
          "components": [
            {
              "internalType": "string",
              "name": "fullName",
              "type": "string"
            },
            {
              "internalType": "string",
              "name": "streetAddress",
              "type": "string"
            },
            {
              "internalType": "string",
              "name": "city",
              "type": "string"
            },
            {
              "internalType": "string",
              "name": "state",
              "type": "string"
            },
            {
              "internalType": "string",
              "name": "country",
              "type": "string"
            },
            {
              "internalType": "string",
              "name": "postalCode",
              "type": "string"
            },
            {
              "internalType": "string",
              "name": "phone",
              "type": "string"
            },
            {
              "internalType": "string",
              "name": "email",
              "type": "string"
            }
          ],
          "internalType": "struct HemShop.ShippingDetails",
          "name": "shippingDetails",
          "type": "tuple"
        }
      ],
      "stateMutability": "view",
      "type": "function"
    },
    {
      "inputs": [
        {
          "internalType": "uint256",
          "name": "newPct",
          "type": "uint256"
        }
      ],
      "name": "changeServicePct",
      "outputs": [],
      "stateMutability": "nonpayable",
      "type": "function"
    },
    {
      "inputs": [
        {
          "internalType": "string",
          "name": "_name",
          "type": "string"
        }
      ],
      "name": "createCategory",
      "outputs": [],
      "stateMutability": "nonpayable",
      "type": "function"
    },
    {
      "inputs": [
        {
          "components": [
            {
              "internalType": "string",
              "name": "name",
              "type": "string"
            },
            {
              "internalType": "string",
              "name": "description",
              "type": "string"
            },
            {
              "internalType": "uint256",
              "name": "price",
              "type": "uint256"
            },
            {
              "internalType": "uint256",
              "name": "stock",
              "type": "uint256"
            },
            {
              "internalType": "string[]",
              "name": "colors",
              "type": "string[]"
            },
            {
              "internalType": "string[]",
              "name": "sizes",
              "type": "string[]"
            },
            {
              "internalType": "string[]",
              "name": "images",
              "type": "string[]"
            },
            {
              "internalType": "uint256",
              "name": "categoryId",
              "type": "uint256"
            },
            {
              "internalType": "uint256",
              "name": "subCategoryId",
              "type": "uint256"
            },
            {
              "internalType": "string",
              "name": "model",
              "type": "string"
            },
            {
              "internalType": "string",
              "name": "brand",
              "type": "string"
            },
            {
              "internalType": "uint256",
              "name": "weight",
              "type": "uint256"
            },
            {
              "internalType": "uint256",
              "name": "sku",
              "type": "uint256"
            }
          ],
          "internalType": "struct HemShop.ProductInput",
          "name": "input",
          "type": "tuple"
        }
      ],
      "name": "createProduct",
      "outputs": [],
      "stateMutability": "nonpayable",
      "type": "function"
    },
    {
      "inputs": [
        {
          "internalType": "uint256",
          "name": "productId",
          "type": "uint256"
        },
        {
          "internalType": "uint256",
          "name": "rating",
          "type": "uint256"
        },
        {
          "internalType": "string",
          "name": "comment",
          "type": "string"
        }
      ],
      "name": "createReview",
      "outputs": [],
      "stateMutability": "nonpayable",
      "type": "function"
    },
    {
      "inputs": [
        {
          "internalType": "uint256",
          "name": "parentId",
          "type": "uint256"
        },
        {
          "internalType": "string[]",
          "name": "names",
          "type": "string[]"
        }
      ],
      "name": "createSubCategoriesBulk",
      "outputs": [],
      "stateMutability": "nonpayable",
      "type": "function"
    },
    {
      "inputs": [
        {
          "internalType": "uint256",
          "name": "_parentId",
          "type": "uint256"
        },
        {
          "internalType": "string",
          "name": "_name",
          "type": "string"
        }
      ],
      "name": "createSubCategory",
      "outputs": [],
      "stateMutability": "nonpayable",
      "type": "function"
    },
    {
      "inputs": [
        {
          "internalType": "uint256",
          "name": "_id",
          "type": "uint256"
        }
      ],
      "name": "deleteCategory",
      "outputs": [],
      "stateMutability": "nonpayable",
      "type": "function"
    },
    {
      "inputs": [
        {
          "internalType": "uint256",
          "name": "productId",
          "type": "uint256"
        }
      ],
      "name": "deleteProduct",
      "outputs": [],
      "stateMutability": "nonpayable",
      "type": "function"
    },
    {
      "inputs": [
        {
          "internalType": "uint256",
          "name": "productId",
          "type": "uint256"
        },
        {
          "internalType": "uint256",
          "name": "reviewId",
          "type": "uint256"
        }
      ],
      "name": "deleteReview",
      "outputs": [],
      "stateMutability": "nonpayable",
      "type": "function"
    },
    {
      "inputs": [
        {
          "internalType": "uint256",
          "name": "_id",
          "type": "uint256"
        }
      ],
      "name": "deleteSubCategory",
      "outputs": [],
      "stateMutability": "nonpayable",
      "type": "function"
    },
    {
      "inputs": [],
      "name": "getAllCategories",
      "outputs": [
        {
          "internalType": "uint256[]",
          "name": "ids",
          "type": "uint256[]"
        },
        {
          "internalType": "string[]",
          "name": "names",
          "type": "string[]"
        },
        {
          "internalType": "bool[]",
          "name": "activeStates",
          "type": "bool[]"
        },
        {
          "internalType": "uint256[][]",
          "name": "subCategoryIdArrays",
          "type": "uint256[][]"
        }
      ],
      "stateMutability": "view",
      "type": "function"
    },
    {
      "inputs": [],
      "name": "getAllProducts",
      "outputs": [
        {
          "components": [
            {
              "internalType": "uint256",
              "name": "id",
              "type": "uint256"
            },
            {
              "internalType": "address",
              "name": "seller",
              "type": "address"
            },
            {
              "internalType": "string",
              "name": "name",
              "type": "string"
            },
            {
              "internalType": "string",
              "name": "description",
              "type": "string"
            },
            {
              "internalType": "uint256",
              "name": "price",
              "type": "uint256"
            },
            {
              "internalType": "uint256",
              "name": "stock",
              "type": "uint256"
            },
            {
              "internalType": "string[]",
              "name": "colors",
              "type": "string[]"
            },
            {
              "internalType": "string[]",
              "name": "sizes",
              "type": "string[]"
            },
            {
              "internalType": "string[]",
              "name": "images",
              "type": "string[]"
            },
            {
              "internalType": "string",
              "name": "category",
              "type": "string"
            },
            {
              "internalType": "string",
              "name": "subCategory",
              "type": "string"
            },
            {
              "internalType": "uint256",
              "name": "weight",
              "type": "uint256"
            },
            {
              "internalType": "string",
              "name": "model",
              "type": "string"
            },
            {
              "internalType": "string",
              "name": "brand",
              "type": "string"
            },
            {
              "internalType": "uint256",
              "name": "sku",
              "type": "uint256"
            },
            {
              "internalType": "bool",
              "name": "soldout",
              "type": "bool"
            },
            {
              "internalType": "bool",
              "name": "wishlist",
              "type": "bool"
            },
            {
              "internalType": "bool",
              "name": "deleted",
              "type": "bool"
            },
            {
              "components": [
                {
                  "internalType": "uint256",
                  "name": "reviewId",
                  "type": "uint256"
                },
                {
                  "internalType": "address",
                  "name": "reviewer",
                  "type": "address"
                },
                {
                  "internalType": "uint256",
                  "name": "rating",
                  "type": "uint256"
                },
                {
                  "internalType": "string",
                  "name": "comment",
                  "type": "string"
                },
                {
                  "internalType": "bool",
                  "name": "deleted",
                  "type": "bool"
                },
                {
                  "internalType": "uint256",
                  "name": "timestamp",
                  "type": "uint256"
                }
              ],
              "internalType": "struct HemShop.ReviewStruct[]",
              "name": "reviews",
              "type": "tuple[]"
            }
          ],
          "internalType": "struct HemShop.ProductStruct[]",
          "name": "",
          "type": "tuple[]"
        }
      ],
      "stateMutability": "view",
      "type": "function"
    },
    {
      "inputs": [
        {
          "internalType": "uint256",
          "name": "tokenId",
          "type": "uint256"
        }
      ],
      "name": "getApproved",
      "outputs": [
        {
          "internalType": "address",
          "name": "",
          "type": "address"
        }
      ],
      "stateMutability": "view",
      "type": "function"
    },
    {
      "inputs": [
        {
          "internalType": "address",
          "name": "buyer",
          "type": "address"
        }
      ],
      "name": "getBuyerPurchaseHistory",
      "outputs": [
        {
          "components": [
            {
              "internalType": "uint256",
              "name": "productId",
              "type": "uint256"
            },
            {
              "internalType": "uint256",
              "name": "totalAmount",
              "type": "uint256"
            },
            {
              "internalType": "uint256",
              "name": "basePrice",
              "type": "uint256"
            },
            {
              "internalType": "uint256",
              "name": "timestamp",
              "type": "uint256"
            },
            {
              "internalType": "address",
              "name": "buyer",
              "type": "address"
            },
            {
              "internalType": "address",
              "name": "seller",
              "type": "address"
            },
            {
              "internalType": "bool",
              "name": "isDelivered",
              "type": "bool"
            },
            {
              "components": [
                {
                  "internalType": "string",
                  "name": "fullName",
                  "type": "string"
                },
                {
                  "internalType": "string",
                  "name": "streetAddress",
                  "type": "string"
                },
                {
                  "internalType": "string",
                  "name": "city",
                  "type": "string"
                },
                {
                  "internalType": "string",
                  "name": "state",
                  "type": "string"
                },
                {
                  "internalType": "string",
                  "name": "country",
                  "type": "string"
                },
                {
                  "internalType": "string",
                  "name": "postalCode",
                  "type": "string"
                },
                {
                  "internalType": "string",
                  "name": "phone",
                  "type": "string"
                },
                {
                  "internalType": "string",
                  "name": "email",
                  "type": "string"
                }
              ],
              "internalType": "struct HemShop.ShippingDetails",
              "name": "shippingDetails",
              "type": "tuple"
            }
          ],
          "internalType": "struct HemShop.PurchaseHistoryStruct[]",
          "name": "",
          "type": "tuple[]"
        }
      ],
      "stateMutability": "view",
      "type": "function"
    },
    {
      "inputs": [
        {
          "internalType": "uint256",
          "name": "_id",
          "type": "uint256"
        }
      ],
      "name": "getCategory",
      "outputs": [
        {
          "internalType": "uint256",
          "name": "id",
          "type": "uint256"
        },
        {
          "internalType": "string",
          "name": "name",
          "type": "string"
        },
        {
          "internalType": "bool",
          "name": "isActive",
          "type": "bool"
        },
        {
          "internalType": "uint256[]",
          "name": "subCategoryIds",
          "type": "uint256[]"
        }
      ],
      "stateMutability": "view",
      "type": "function"
    },
    {
      "inputs": [],
      "name": "getMyProducts",
      "outputs": [
        {
          "components": [
            {
              "internalType": "uint256",
              "name": "id",
              "type": "uint256"
            },
            {
              "internalType": "address",
              "name": "seller",
              "type": "address"
            },
            {
              "internalType": "string",
              "name": "name",
              "type": "string"
            },
            {
              "internalType": "string",
              "name": "description",
              "type": "string"
            },
            {
              "internalType": "uint256",
              "name": "price",
              "type": "uint256"
            },
            {
              "internalType": "uint256",
              "name": "stock",
              "type": "uint256"
            },
            {
              "internalType": "string[]",
              "name": "colors",
              "type": "string[]"
            },
            {
              "internalType": "string[]",
              "name": "sizes",
              "type": "string[]"
            },
            {
              "internalType": "string[]",
              "name": "images",
              "type": "string[]"
            },
            {
              "internalType": "string",
              "name": "category",
              "type": "string"
            },
            {
              "internalType": "string",
              "name": "subCategory",
              "type": "string"
            },
            {
              "internalType": "uint256",
              "name": "weight",
              "type": "uint256"
            },
            {
              "internalType": "string",
              "name": "model",
              "type": "string"
            },
            {
              "internalType": "string",
              "name": "brand",
              "type": "string"
            },
            {
              "internalType": "uint256",
              "name": "sku",
              "type": "uint256"
            },
            {
              "internalType": "bool",
              "name": "soldout",
              "type": "bool"
            },
            {
              "internalType": "bool",
              "name": "wishlist",
              "type": "bool"
            },
            {
              "internalType": "bool",
              "name": "deleted",
              "type": "bool"
            },
            {
              "components": [
                {
                  "internalType": "uint256",
                  "name": "reviewId",
                  "type": "uint256"
                },
                {
                  "internalType": "address",
                  "name": "reviewer",
                  "type": "address"
                },
                {
                  "internalType": "uint256",
                  "name": "rating",
                  "type": "uint256"
                },
                {
                  "internalType": "string",
                  "name": "comment",
                  "type": "string"
                },
                {
                  "internalType": "bool",
                  "name": "deleted",
                  "type": "bool"
                },
                {
                  "internalType": "uint256",
                  "name": "timestamp",
                  "type": "uint256"
                }
              ],
              "internalType": "struct HemShop.ReviewStruct[]",
              "name": "reviews",
              "type": "tuple[]"
            }
          ],
          "internalType": "struct HemShop.ProductStruct[]",
          "name": "",
          "type": "tuple[]"
        }
      ],
      "stateMutability": "view",
      "type": "function"
    },
    {
      "inputs": [],
      "name": "getPendingSellers",
      "outputs": [
        {
          "internalType": "address[]",
          "name": "",
          "type": "address[]"
        }
      ],
      "stateMutability": "view",
      "type": "function"
    },
    {
      "inputs": [
        {
          "internalType": "uint256",
          "name": "productId",
          "type": "uint256"
        }
      ],
      "name": "getProduct",
      "outputs": [
        {
          "components": [
            {
              "internalType": "uint256",
              "name": "id",
              "type": "uint256"
            },
            {
              "internalType": "address",
              "name": "seller",
              "type": "address"
            },
            {
              "internalType": "string",
              "name": "name",
              "type": "string"
            },
            {
              "internalType": "string",
              "name": "description",
              "type": "string"
            },
            {
              "internalType": "uint256",
              "name": "price",
              "type": "uint256"
            },
            {
              "internalType": "uint256",
              "name": "stock",
              "type": "uint256"
            },
            {
              "internalType": "string[]",
              "name": "colors",
              "type": "string[]"
            },
            {
              "internalType": "string[]",
              "name": "sizes",
              "type": "string[]"
            },
            {
              "internalType": "string[]",
              "name": "images",
              "type": "string[]"
            },
            {
              "internalType": "string",
              "name": "category",
              "type": "string"
            },
            {
              "internalType": "string",
              "name": "subCategory",
              "type": "string"
            },
            {
              "internalType": "uint256",
              "name": "weight",
              "type": "uint256"
            },
            {
              "internalType": "string",
              "name": "model",
              "type": "string"
            },
            {
              "internalType": "string",
              "name": "brand",
              "type": "string"
            },
            {
              "internalType": "uint256",
              "name": "sku",
              "type": "uint256"
            },
            {
              "internalType": "bool",
              "name": "soldout",
              "type": "bool"
            },
            {
              "internalType": "bool",
              "name": "wishlist",
              "type": "bool"
            },
            {
              "internalType": "bool",
              "name": "deleted",
              "type": "bool"
            },
            {
              "components": [
                {
                  "internalType": "uint256",
                  "name": "reviewId",
                  "type": "uint256"
                },
                {
                  "internalType": "address",
                  "name": "reviewer",
                  "type": "address"
                },
                {
                  "internalType": "uint256",
                  "name": "rating",
                  "type": "uint256"
                },
                {
                  "internalType": "string",
                  "name": "comment",
                  "type": "string"
                },
                {
                  "internalType": "bool",
                  "name": "deleted",
                  "type": "bool"
                },
                {
                  "internalType": "uint256",
                  "name": "timestamp",
                  "type": "uint256"
                }
              ],
              "internalType": "struct HemShop.ReviewStruct[]",
              "name": "reviews",
              "type": "tuple[]"
            }
          ],
          "internalType": "struct HemShop.ProductStruct",
          "name": "",
          "type": "tuple"
        }
      ],
      "stateMutability": "view",
      "type": "function"
    },
    {
      "inputs": [
        {
          "internalType": "string",
          "name": "categoryName",
          "type": "string"
        }
      ],
      "name": "getProductsByCategory",
      "outputs": [
        {
          "components": [
            {
              "internalType": "uint256",
              "name": "id",
              "type": "uint256"
            },
            {
              "internalType": "address",
              "name": "seller",
              "type": "address"
            },
            {
              "internalType": "string",
              "name": "name",
              "type": "string"
            },
            {
              "internalType": "string",
              "name": "description",
              "type": "string"
            },
            {
              "internalType": "uint256",
              "name": "price",
              "type": "uint256"
            },
            {
              "internalType": "uint256",
              "name": "stock",
              "type": "uint256"
            },
            {
              "internalType": "string[]",
              "name": "colors",
              "type": "string[]"
            },
            {
              "internalType": "string[]",
              "name": "sizes",
              "type": "string[]"
            },
            {
              "internalType": "string[]",
              "name": "images",
              "type": "string[]"
            },
            {
              "internalType": "string",
              "name": "category",
              "type": "string"
            },
            {
              "internalType": "string",
              "name": "subCategory",
              "type": "string"
            },
            {
              "internalType": "uint256",
              "name": "weight",
              "type": "uint256"
            },
            {
              "internalType": "string",
              "name": "model",
              "type": "string"
            },
            {
              "internalType": "string",
              "name": "brand",
              "type": "string"
            },
            {
              "internalType": "uint256",
              "name": "sku",
              "type": "uint256"
            },
            {
              "internalType": "bool",
              "name": "soldout",
              "type": "bool"
            },
            {
              "internalType": "bool",
              "name": "wishlist",
              "type": "bool"
            },
            {
              "internalType": "bool",
              "name": "deleted",
              "type": "bool"
            },
            {
              "components": [
                {
                  "internalType": "uint256",
                  "name": "reviewId",
                  "type": "uint256"
                },
                {
                  "internalType": "address",
                  "name": "reviewer",
                  "type": "address"
                },
                {
                  "internalType": "uint256",
                  "name": "rating",
                  "type": "uint256"
                },
                {
                  "internalType": "string",
                  "name": "comment",
                  "type": "string"
                },
                {
                  "internalType": "bool",
                  "name": "deleted",
                  "type": "bool"
                },
                {
                  "internalType": "uint256",
                  "name": "timestamp",
                  "type": "uint256"
                }
              ],
              "internalType": "struct HemShop.ReviewStruct[]",
              "name": "reviews",
              "type": "tuple[]"
            }
          ],
          "internalType": "struct HemShop.ProductStruct[]",
          "name": "",
          "type": "tuple[]"
        }
      ],
      "stateMutability": "view",
      "type": "function"
    },
    {
      "inputs": [
        {
          "internalType": "uint256",
          "name": "productId",
          "type": "uint256"
        }
      ],
      "name": "getReviews",
      "outputs": [
        {
          "components": [
            {
              "internalType": "uint256",
              "name": "reviewId",
              "type": "uint256"
            },
            {
              "internalType": "address",
              "name": "reviewer",
              "type": "address"
            },
            {
              "internalType": "uint256",
              "name": "rating",
              "type": "uint256"
            },
            {
              "internalType": "string",
              "name": "comment",
              "type": "string"
            },
            {
              "internalType": "bool",
              "name": "deleted",
              "type": "bool"
            },
            {
              "internalType": "uint256",
              "name": "timestamp",
              "type": "uint256"
            }
          ],
          "internalType": "struct HemShop.ReviewStruct[]",
          "name": "",
          "type": "tuple[]"
        }
      ],
      "stateMutability": "view",
      "type": "function"
    },
    {
      "inputs": [
        {
          "internalType": "address",
          "name": "seller",
          "type": "address"
        }
      ],
      "name": "getSellerBalance",
      "outputs": [
        {
          "internalType": "uint256",
          "name": "",
          "type": "uint256"
        }
      ],
      "stateMutability": "view",
      "type": "function"
    },
    {
      "inputs": [
        {
          "internalType": "address",
          "name": "seller",
          "type": "address"
        }
      ],
      "name": "getSellerProducts",
      "outputs": [
        {
          "components": [
            {
              "internalType": "uint256",
              "name": "id",
              "type": "uint256"
            },
            {
              "internalType": "address",
              "name": "seller",
              "type": "address"
            },
            {
              "internalType": "string",
              "name": "name",
              "type": "string"
            },
            {
              "internalType": "string",
              "name": "description",
              "type": "string"
            },
            {
              "internalType": "uint256",
              "name": "price",
              "type": "uint256"
            },
            {
              "internalType": "uint256",
              "name": "stock",
              "type": "uint256"
            },
            {
              "internalType": "string[]",
              "name": "colors",
              "type": "string[]"
            },
            {
              "internalType": "string[]",
              "name": "sizes",
              "type": "string[]"
            },
            {
              "internalType": "string[]",
              "name": "images",
              "type": "string[]"
            },
            {
              "internalType": "string",
              "name": "category",
              "type": "string"
            },
            {
              "internalType": "string",
              "name": "subCategory",
              "type": "string"
            },
            {
              "internalType": "uint256",
              "name": "weight",
              "type": "uint256"
            },
            {
              "internalType": "string",
              "name": "model",
              "type": "string"
            },
            {
              "internalType": "string",
              "name": "brand",
              "type": "string"
            },
            {
              "internalType": "uint256",
              "name": "sku",
              "type": "uint256"
            },
            {
              "internalType": "bool",
              "name": "soldout",
              "type": "bool"
            },
            {
              "internalType": "bool",
              "name": "wishlist",
              "type": "bool"
            },
            {
              "internalType": "bool",
              "name": "deleted",
              "type": "bool"
            },
            {
              "components": [
                {
                  "internalType": "uint256",
                  "name": "reviewId",
                  "type": "uint256"
                },
                {
                  "internalType": "address",
                  "name": "reviewer",
                  "type": "address"
                },
                {
                  "internalType": "uint256",
                  "name": "rating",
                  "type": "uint256"
                },
                {
                  "internalType": "string",
                  "name": "comment",
                  "type": "string"
                },
                {
                  "internalType": "bool",
                  "name": "deleted",
                  "type": "bool"
                },
                {
                  "internalType": "uint256",
                  "name": "timestamp",
                  "type": "uint256"
                }
              ],
              "internalType": "struct HemShop.ReviewStruct[]",
              "name": "reviews",
              "type": "tuple[]"
            }
          ],
          "internalType": "struct HemShop.ProductStruct[]",
          "name": "",
          "type": "tuple[]"
        }
      ],
      "stateMutability": "view",
      "type": "function"
    },
    {
      "inputs": [
        {
          "internalType": "address",
          "name": "seller",
          "type": "address"
        }
      ],
      "name": "getSellerPurchaseHistory",
      "outputs": [
        {
          "components": [
            {
              "internalType": "uint256",
              "name": "productId",
              "type": "uint256"
            },
            {
              "internalType": "uint256",
              "name": "totalAmount",
              "type": "uint256"
            },
            {
              "internalType": "uint256",
              "name": "basePrice",
              "type": "uint256"
            },
            {
              "internalType": "uint256",
              "name": "timestamp",
              "type": "uint256"
            },
            {
              "internalType": "address",
              "name": "buyer",
              "type": "address"
            },
            {
              "internalType": "address",
              "name": "seller",
              "type": "address"
            },
            {
              "internalType": "bool",
              "name": "isDelivered",
              "type": "bool"
            },
            {
              "components": [
                {
                  "internalType": "string",
                  "name": "fullName",
                  "type": "string"
                },
                {
                  "internalType": "string",
                  "name": "streetAddress",
                  "type": "string"
                },
                {
                  "internalType": "string",
                  "name": "city",
                  "type": "string"
                },
                {
                  "internalType": "string",
                  "name": "state",
                  "type": "string"
                },
                {
                  "internalType": "string",
                  "name": "country",
                  "type": "string"
                },
                {
                  "internalType": "string",
                  "name": "postalCode",
                  "type": "string"
                },
                {
                  "internalType": "string",
                  "name": "phone",
                  "type": "string"
                },
                {
                  "internalType": "string",
                  "name": "email",
                  "type": "string"
                }
              ],
              "internalType": "struct HemShop.ShippingDetails",
              "name": "shippingDetails",
              "type": "tuple"
            }
          ],
          "internalType": "struct HemShop.PurchaseHistoryStruct[]",
          "name": "",
          "type": "tuple[]"
        }
      ],
      "stateMutability": "view",
      "type": "function"
    },
    {
      "inputs": [
        {
          "internalType": "address",
          "name": "seller",
          "type": "address"
        }
      ],
      "name": "getSellerStatus",
      "outputs": [
        {
          "internalType": "enum HemShop.SellerStatus",
          "name": "",
          "type": "uint8"
        }
      ],
      "stateMutability": "view",
      "type": "function"
    },
    {
      "inputs": [
        {
          "internalType": "uint256",
          "name": "_id",
          "type": "uint256"
        }
      ],
      "name": "getSubCategory",
      "outputs": [
        {
          "internalType": "uint256",
          "name": "id",
          "type": "uint256"
        },
        {
          "internalType": "string",
          "name": "name",
          "type": "string"
        },
        {
          "internalType": "uint256",
          "name": "parentCategoryId",
          "type": "uint256"
        },
        {
          "internalType": "bool",
          "name": "isActive",
          "type": "bool"
        }
      ],
      "stateMutability": "view",
      "type": "function"
    },
    {
      "inputs": [
        {
          "internalType": "address",
          "name": "account",
          "type": "address"
        }
      ],
      "name": "impersonateAccount",
      "outputs": [],
      "stateMutability": "nonpayable",
      "type": "function"
    },
    {
      "inputs": [
        {
          "internalType": "address",
          "name": "owner",
          "type": "address"
        },
        {
          "internalType": "address",
          "name": "operator",
          "type": "address"
        }
      ],
      "name": "isApprovedForAll",
      "outputs": [
        {
          "internalType": "bool",
          "name": "",
          "type": "bool"
        }
      ],
      "stateMutability": "view",
      "type": "function"
    },
    {
      "inputs": [
        {
          "internalType": "uint256",
          "name": "productId",
          "type": "uint256"
        },
        {
          "internalType": "address",
          "name": "buyer",
          "type": "address"
        }
      ],
      "name": "markPurchaseDelivered",
      "outputs": [],
      "stateMutability": "nonpayable",
      "type": "function"
    },
    {
      "inputs": [],
      "name": "name",
      "outputs": [
        {
          "internalType": "string",
          "name": "",
          "type": "string"
        }
      ],
      "stateMutability": "view",
      "type": "function"
    },
    {
      "inputs": [],
      "name": "owner",
      "outputs": [
        {
          "internalType": "address",
          "name": "",
          "type": "address"
        }
      ],
      "stateMutability": "view",
      "type": "function"
    },
    {
      "inputs": [
        {
          "internalType": "uint256",
          "name": "tokenId",
          "type": "uint256"
        }
      ],
      "name": "ownerOf",
      "outputs": [
        {
          "internalType": "address",
          "name": "",
          "type": "address"
        }
      ],
      "stateMutability": "view",
      "type": "function"
    },
    {
      "inputs": [
        {
          "internalType": "uint256",
          "name": "",
          "type": "uint256"
        }
      ],
      "name": "productExists",
      "outputs": [
        {
          "internalType": "bool",
          "name": "",
          "type": "bool"
        }
      ],
      "stateMutability": "view",
      "type": "function"
    },
    {
      "inputs": [
        {
          "internalType": "uint256",
          "name": "",
          "type": "uint256"
        }
      ],
      "name": "products",
      "outputs": [
        {
          "internalType": "uint256",
          "name": "id",
          "type": "uint256"
        },
        {
          "internalType": "address",
          "name": "seller",
          "type": "address"
        },
        {
          "internalType": "string",
          "name": "name",
          "type": "string"
        },
        {
          "internalType": "string",
          "name": "description",
          "type": "string"
        },
        {
          "internalType": "uint256",
          "name": "price",
          "type": "uint256"
        },
        {
          "internalType": "uint256",
          "name": "stock",
          "type": "uint256"
        },
        {
          "internalType": "string",
          "name": "category",
          "type": "string"
        },
        {
          "internalType": "string",
          "name": "subCategory",
          "type": "string"
        },
        {
          "internalType": "uint256",
          "name": "weight",
          "type": "uint256"
        },
        {
          "internalType": "string",
          "name": "model",
          "type": "string"
        },
        {
          "internalType": "string",
          "name": "brand",
          "type": "string"
        },
        {
          "internalType": "uint256",
          "name": "sku",
          "type": "uint256"
        },
        {
          "internalType": "bool",
          "name": "soldout",
          "type": "bool"
        },
        {
          "internalType": "bool",
          "name": "wishlist",
          "type": "bool"
        },
        {
          "internalType": "bool",
          "name": "deleted",
          "type": "bool"
        }
      ],
      "stateMutability": "view",
      "type": "function"
    },
    {
      "inputs": [],
      "name": "registerSeller",
      "outputs": [],
      "stateMutability": "nonpayable",
      "type": "function"
    },
    {
      "inputs": [
        {
          "internalType": "address",
          "name": "",
          "type": "address"
        }
      ],
      "name": "registeredSellers",
      "outputs": [
        {
          "internalType": "bool",
          "name": "",
          "type": "bool"
        }
      ],
      "stateMutability": "view",
      "type": "function"
    },
    {
      "inputs": [],
      "name": "renounceOwnership",
      "outputs": [],
      "stateMutability": "nonpayable",
      "type": "function"
    },
    {
      "inputs": [
        {
          "internalType": "uint256",
          "name": "",
          "type": "uint256"
        }
      ],
      "name": "reviewExists",
      "outputs": [
        {
          "internalType": "bool",
          "name": "",
          "type": "bool"
        }
      ],
      "stateMutability": "view",
      "type": "function"
    },
    {
      "inputs": [
        {
          "internalType": "address",
          "name": "from",
          "type": "address"
        },
        {
          "internalType": "address",
          "name": "to",
          "type": "address"
        },
        {
          "internalType": "uint256",
          "name": "tokenId",
          "type": "uint256"
        }
      ],
      "name": "safeTransferFrom",
      "outputs": [],
      "stateMutability": "nonpayable",
      "type": "function"
    },
    {
      "inputs": [
        {
          "internalType": "address",
          "name": "from",
          "type": "address"
        },
        {
          "internalType": "address",
          "name": "to",
          "type": "address"
        },
        {
          "internalType": "uint256",
          "name": "tokenId",
          "type": "uint256"
        },
        {
          "internalType": "bytes",
          "name": "data",
          "type": "bytes"
        }
      ],
      "name": "safeTransferFrom",
      "outputs": [],
      "stateMutability": "nonpayable",
      "type": "function"
    },
    {
      "inputs": [
        {
          "internalType": "address",
          "name": "",
          "type": "address"
        }
      ],
      "name": "sellerBalances",
      "outputs": [
        {
          "internalType": "uint256",
          "name": "",
          "type": "uint256"
        }
      ],
      "stateMutability": "view",
      "type": "function"
    },
    {
      "inputs": [
        {
          "internalType": "address",
          "name": "",
          "type": "address"
        },
        {
          "internalType": "uint256",
          "name": "",
          "type": "uint256"
        }
      ],
      "name": "sellerProducts",
      "outputs": [
        {
          "internalType": "uint256",
          "name": "",
          "type": "uint256"
        }
      ],
      "stateMutability": "view",
      "type": "function"
    },
    {
      "inputs": [
        {
          "internalType": "address",
          "name": "",
          "type": "address"
        },
        {
          "internalType": "uint256",
          "name": "",
          "type": "uint256"
        }
      ],
      "name": "sellerPurchaseHistory",
      "outputs": [
        {
          "internalType": "uint256",
          "name": "productId",
          "type": "uint256"
        },
        {
          "internalType": "uint256",
          "name": "totalAmount",
          "type": "uint256"
        },
        {
          "internalType": "uint256",
          "name": "basePrice",
          "type": "uint256"
        },
        {
          "internalType": "uint256",
          "name": "timestamp",
          "type": "uint256"
        },
        {
          "internalType": "address",
          "name": "buyer",
          "type": "address"
        },
        {
          "internalType": "address",
          "name": "seller",
          "type": "address"
        },
        {
          "internalType": "bool",
          "name": "isDelivered",
          "type": "bool"
        },
        {
          "components": [
            {
              "internalType": "string",
              "name": "fullName",
              "type": "string"
            },
            {
              "internalType": "string",
              "name": "streetAddress",
              "type": "string"
            },
            {
              "internalType": "string",
              "name": "city",
              "type": "string"
            },
            {
              "internalType": "string",
              "name": "state",
              "type": "string"
            },
            {
              "internalType": "string",
              "name": "country",
              "type": "string"
            },
            {
              "internalType": "string",
              "name": "postalCode",
              "type": "string"
            },
            {
              "internalType": "string",
              "name": "phone",
              "type": "string"
            },
            {
              "internalType": "string",
              "name": "email",
              "type": "string"
            }
          ],
          "internalType": "struct HemShop.ShippingDetails",
          "name": "shippingDetails",
          "type": "tuple"
        }
      ],
      "stateMutability": "view",
      "type": "function"
    },
    {
      "inputs": [
        {
          "internalType": "address",
          "name": "",
          "type": "address"
        }
      ],
      "name": "sellerStatus",
      "outputs": [
        {
          "internalType": "enum HemShop.SellerStatus",
          "name": "",
          "type": "uint8"
        }
      ],
      "stateMutability": "view",
      "type": "function"
    },
    {
      "inputs": [],
      "name": "servicePct",
      "outputs": [
        {
          "internalType": "uint256",
          "name": "",
          "type": "uint256"
        }
      ],
      "stateMutability": "view",
      "type": "function"
    },
    {
      "inputs": [
        {
          "internalType": "address",
          "name": "operator",
          "type": "address"
        },
        {
          "internalType": "bool",
          "name": "approved",
          "type": "bool"
        }
      ],
      "name": "setApprovalForAll",
      "outputs": [],
      "stateMutability": "nonpayable",
      "type": "function"
    },
    {
      "inputs": [],
      "name": "stopImpersonating",
      "outputs": [],
      "stateMutability": "nonpayable",
      "type": "function"
    },
    {
      "inputs": [
        {
          "internalType": "bytes4",
          "name": "interfaceId",
          "type": "bytes4"
        }
      ],
      "name": "supportsInterface",
      "outputs": [
        {
          "internalType": "bool",
          "name": "",
          "type": "bool"
        }
      ],
      "stateMutability": "view",
      "type": "function"
    },
    {
      "inputs": [],
      "name": "symbol",
      "outputs": [
        {
          "internalType": "string",
          "name": "",
          "type": "string"
        }
      ],
      "stateMutability": "view",
      "type": "function"
    },
    {
      "inputs": [
        {
          "internalType": "uint256",
          "name": "tokenId",
          "type": "uint256"
        }
      ],
      "name": "tokenURI",
      "outputs": [
        {
          "internalType": "string",
          "name": "",
          "type": "string"
        }
      ],
      "stateMutability": "view",
      "type": "function"
    },
    {
      "inputs": [
        {
          "internalType": "address",
          "name": "from",
          "type": "address"
        },
        {
          "internalType": "address",
          "name": "to",
          "type": "address"
        },
        {
          "internalType": "uint256",
          "name": "tokenId",
          "type": "uint256"
        }
      ],
      "name": "transferFrom",
      "outputs": [],
      "stateMutability": "nonpayable",
      "type": "function"
    },
    {
      "inputs": [
        {
          "internalType": "address",
          "name": "newOwner",
          "type": "address"
        }
      ],
      "name": "transferOwnership",
      "outputs": [],
      "stateMutability": "nonpayable",
      "type": "function"
    },
    {
      "inputs": [
        {
          "internalType": "uint256",
          "name": "_id",
          "type": "uint256"
        },
        {
          "internalType": "string",
          "name": "_name",
          "type": "string"
        },
        {
          "internalType": "bool",
          "name": "_isActive",
          "type": "bool"
        }
      ],
      "name": "updateCategory",
      "outputs": [],
      "stateMutability": "nonpayable",
      "type": "function"
    },
    {
      "inputs": [
        {
          "internalType": "uint256",
          "name": "productId",
          "type": "uint256"
        },
        {
          "components": [
            {
              "internalType": "string",
              "name": "name",
              "type": "string"
            },
            {
              "internalType": "string",
              "name": "description",
              "type": "string"
            },
            {
              "internalType": "uint256",
              "name": "price",
              "type": "uint256"
            },
            {
              "internalType": "uint256",
              "name": "stock",
              "type": "uint256"
            },
            {
              "internalType": "string[]",
              "name": "colors",
              "type": "string[]"
            },
            {
              "internalType": "string[]",
              "name": "sizes",
              "type": "string[]"
            },
            {
              "internalType": "string[]",
              "name": "images",
              "type": "string[]"
            },
            {
              "internalType": "uint256",
              "name": "categoryId",
              "type": "uint256"
            },
            {
              "internalType": "uint256",
              "name": "subCategoryId",
              "type": "uint256"
            },
            {
              "internalType": "string",
              "name": "model",
              "type": "string"
            },
            {
              "internalType": "string",
              "name": "brand",
              "type": "string"
            },
            {
              "internalType": "uint256",
              "name": "weight",
              "type": "uint256"
            },
            {
              "internalType": "uint256",
              "name": "sku",
              "type": "uint256"
            }
          ],
          "internalType": "struct HemShop.ProductInput",
          "name": "input",
          "type": "tuple"
        }
      ],
      "name": "updateProduct",
      "outputs": [],
      "stateMutability": "nonpayable",
      "type": "function"
    },
    {
      "inputs": [
        {
          "internalType": "address",
          "name": "seller",
          "type": "address"
        },
        {
          "internalType": "enum HemShop.SellerStatus",
          "name": "status",
          "type": "uint8"
        }
      ],
      "name": "updateSellerStatus",
      "outputs": [],
      "stateMutability": "nonpayable",
      "type": "function"
    },
    {
      "inputs": [
        {
          "internalType": "uint256",
          "name": "_id",
          "type": "uint256"
        },
        {
          "internalType": "string",
          "name": "_name",
          "type": "string"
        },
        {
          "internalType": "bool",
          "name": "_isActive",
          "type": "bool"
        }
      ],
      "name": "updateSubCategory",
      "outputs": [],
      "stateMutability": "nonpayable",
      "type": "function"
    },
    {
      "inputs": [],
      "name": "withdraw",
      "outputs": [],
      "stateMutability": "nonpayable",
      "type": "function"
    }
  ],
  "bytecode": "0x6080346200037757601f90601f196001600160401b036200868f3881900385810184168501838111868210176200037c57859282916040528339602094859181010312620003775751936200005362000392565b926007845266048656d53686f760cc1b858501526200007162000392565b60038082526204873760ec1b8783015260008054336001600160a01b031982168117835592989394919392906001600160a01b03167f8be0079c531659141344cd1fd0a4f28419497f9722a3daafe3b4186f6b6457e08580a360019687805580519087821162000363576002548981811c9116801562000358575b858210146200034457908188849311620002f0575b5084908883116001146200028e57869262000282575b5050600019828b1b1c191690881b176002555b83519586116200026e5787548781811c9116801562000263575b838210146200024f5785811162000207575b5081948611600114620001a25750509183949184939462000196575b50501b9160001990841b1c19161790555b600b556040516182dc9081620003b38239f35b01519250388062000172565b8783528183209493928692918316915b88838310620001ec5750505010620001d3575b505050811b01905562000183565b015160001983861b60f8161c19169055388080620001c5565b858701518855909601959485019487935090810190620001b2565b8884528284208680890160051c820192858a1062000245575b0160051c019088905b8281106200023957505062000156565b85815501889062000229565b9250819262000220565b634e487b7160e01b84526022600452602484fd5b90607f169062000144565b634e487b7160e01b83526041600452602483fd5b01519050388062000117565b90848b9416916002885286882092885b88828210620002d95750508411620002c0575b505050811b016002556200012a565b0151600019838d1b60f8161c19169055388080620002b1565b8385015186558e979095019493840193016200029e565b909150600286528486208880850160051c8201928786106200033a575b918c91869594930160051c01915b8281106200032b57505062000101565b8881558594508c91016200031b565b925081926200030d565b634e487b7160e01b86526022600452602486fd5b90607f1690620000ec565b634e487b7160e01b85526041600452602485fd5b600080fd5b634e487b7160e01b600052604160045260246000fd5b60408051919082016001600160401b038111838210176200037c5760405256fe608080604052600436101561001357600080fd5b60003560e01c908162d64e76146141cf5750806301ffc9a71461416157806302ee3a5214613ee657806306fdde0314613e41578063081812fc14613e23578063095ea7b314613ca957806311aa5b3414613c855780631385fd9214613c3157806316d81b3814613a395780631700ea2c146139f957806317e98548146139815780632148893f1461332a57806323b872dd1461395857806324d41a0314613733578063317a0827146135ec5780633c2575d5146135075780633ccfd60b146134ee57806342842e0e146134c657806345de84db1461348457806352c9224c146133c75780635be2095914613364578063607eb4e41461332a5780636352211e146132fa578063661e171214612aad57806366224d8e146129515780636f2c85991461289f57806370a0823114612808578063715018a6146127c15780637acc0b20146126025780637d3978db146123e45780638da5cb5b146123bb5780638f38cc7b1461209557806395d89b4114611fb357806397b6f39314611df45780639d4a225514611c615780639fa44dbf14611c19578063a0fa719c14611bdc578063a22cb46514611b11578063a22fb38714611a66578063af55ed6414611a35578063b27e169714611950578063b88d4fde146118f1578063b95a0628146118b6578063b9db15b41461169c578063c1302b3414611644578063c64b8a8f14611605578063c87b56dd146115ab578063ceca737f14611527578063d2bc9d781461127a578063d3e2457f146110e2578063dadd0a5714610d99578063dc29868214610b62578063e01ef6e614610b44578063e585cb2c14610ab4578063e6a93e16146107fa578063e985e9c5146107a4578063eb11c43414610757578063ed90c7b714610739578063f2fde38b1461068a578063f3052d261461058f5763fdca4ca3146102bd57600080fd5b3461058a57600036600319011261058a5760088054600060015b8281111561052957506102e990617533565b9060009260015b8281111561030a57604051806103068682614489565b0390f35b600081815260116020908152604090912060018101546001600160a01b0316919033831480610517575b61034a575b505050610345906172be565b6102f0565b6040979397519261035a84614517565b815484528284015260405161037d816103768160028601614857565b03826145a0565b6040840152604051610396816103768160038601614857565b606084015260048101546080840152600581015460a08401526006906103bd8282016174ce565b60c08501526103ce600782016174ce565b60e08501526103de8682016174ce565b6101008501526040516103f8816103768160098601614857565b6101208501526040516104128161037681600a8601614857565b610140850152600b8101546101608501526040516104378161037681600c8601614857565b6101808501526040516104518161037681600d8601614857565b6101a0850152600e8101546101c0850152600f81015460ff80821615156101e087015281881c81161515610200870152601091821c161515610220860152018054919061049d83615586565b936104ab60405195866145a0565b8385526000918252808220918186015b8582106104fb575050505050509181610345936102406104f29401526104e1828861740c565b526104ec818761740c565b506172be565b94903880610339565b84836001926105098761746d565b8152019401910190926104bb565b5060ff600f82015460101c1615610334565b600081815260116020526040902060018101546001600160a01b031633149081610577575b50610562575b61055d906172be565b6102d7565b9061056f61055d916172be565b919050610554565b60ff9150600f015460101c16153861054e565b600080fd5b3461058a5760208060031936011261058a57600435600052600d815260406000206040516105bc8161454f565b81548152604051916001916105de846105d781868601614857565b03856145a0565b848101938452600360ff60028401541692604083019315158452016040518094878354928381520192600052876000209160005b8982821061067757896103068a8a6106648b610630848d03856145a0565b6060810193845261064381511515617333565b519451915115159251916080604051978897885287015260808601906141fc565b9160408501528382036060850152614a6f565b8454865290940193928201928201610612565b3461058a57602036600319011261058a576106a36144eb565b6106ab614aa3565b6001600160a01b039081169081156106e5576000548260018060a01b031982161760005516600080516020618250833981519152600080a3005b60405162461bcd60e51b815260206004820152602660248201527f4f776e61626c653a206e6577206f776e657220697320746865207a65726f206160448201526564647265737360d01b6064820152608490fd5b3461058a57602036600319011261058a576107556004356170c8565b005b3461058a57602036600319011261058a576001600160a01b036107786144eb565b16610784811515617c5f565b600052601460205261030660ff604060002054166040519182918261480a565b3461058a57604036600319011261058a576107bd6144eb565b6107c5614501565b9060018060a01b03809116600052600760205260406000209116600052602052602060ff604060002054166040519015158152f35b3461058a57602036600319011261058a576108136144eb565b600854600060015b82811115610a50575061082d90617533565b90600160005b8282111561084957604051806103068682614489565b600082815260116020526040902060018101546001600160a01b0390811691908716821480610a3e575b61088a575b505090610884906172be565b90610833565b6040519161089783614517565b8154835260208301526040516108b4816103768160028601614857565b60408301526040516108cd816103768160038601614857565b606083015260048101546080830152600581015460a08301526108f2600682016174ce565b60c0830152610903600782016174ce565b60e0830152610914600882016174ce565b61010083015260405161092e816103768160098601614857565b6101208301526040516109488161037681600a8601614857565b610140830152600b81015461016083015260405161096d8161037681600c8601614857565b6101808301526040516109878161037681600d8601614857565b6101a0830152600e8101546101c0830152600f8101549060ff80831615156101e0850152808360081c161515610200850152601092831c161515610220840152018054906109d482615586565b916109e260405193846145a0565b808352602083019160005260206000206000925b828410610a20575050505061024082015261088491610a19916104e1828861740c565b9086610878565b60066020600192610a308561746d565b8152019201930192906109f6565b5060ff600f82015460101c1615610873565b600081815260116020526040902060018101546001600160a01b038681169116149081610aa1575b50610a8c575b610a87906172be565b61081b565b90610a99610a87916172be565b919050610a7e565b60ff9150600f015460101c161585610a78565b3461058a57604036600319011261058a57610acd6144eb565b6001600160a01b03908116600090815260166020526040902080546024359081101561058a57610afc916148ed565b5090610306825460018401549360028101549160038201548560048401541690610b2d60066005860154950161491f565b9460405198899860ff8760a01c16961694896149f2565b3461058a57600036600319011261058a576020600b54604051908152f35b3461058a5760208060031936011261058a576001600160401b0360043581811161058a57610b94903690600401614615565b90610b9d614aa3565b610ba982511515617272565b610bb4600f546172be565b9081600f55604051610bc581614585565b60008152604051610bd58161454f565b838152858101858152604082019060019586835260608401948552600052600d88526040600020925183558583019051805190868211610d0757610c2382610c1d855461481d565b85615623565b8990601f8311600114610d28579180610c6294926003979694600092610d1d575b505060001982881b1c191690891b1790555b51151560028301614e4d565b0190518051928311610d0757600160401b8311610d075785908254848455808510610cea575b5001906000528460002060005b838110610cd957600f546040518881527f11c167cc9b439f0ad8bec5588159f1b06b813bc38d50c867a41b23b077be2c1a9080610cd4818c018b6141fc565b0390a2005b825182820155918601918401610c95565b610d0190846000528584600020918201910161560c565b87610c88565b634e487b7160e01b600052604160045260246000fd5b015190508c80610c44565b889291601f19831691856000528c600020928d6000905b828210610d82575050916003989795939185610c6298969410610d6a575b505050811b019055610c56565b0151600019838a1b60f8161c191690558c8080610d5d565b8385015186558d979095019493840193018e610d3f565b3461058a57600036600319011261058a57600f54610db681615586565b90610dc460405192836145a0565b808252601f19610dd382615586565b01366020840137610de381615586565b610df060405191826145a0565b818152610e0c601f19610e0284615586565b01602083016173e2565b610e1582615586565b90610e2360405192836145a0565b828252610e2f83615586565b602083019290601f1901368437610e4584615586565b93610e5360405195866145a0565b808552610e6f601f19610e6583615586565b01602087016173e2565b60015b81811115610f9857610e968787878787604051958695608087526080870190614a6f565b8581036020870152825180825260208201916020808360051b8301019501926000915b838310610f615750505050506020908583036040870152519182815201919060005b818110610f46575050508281036060840152815180825260208201916020808360051b8301019401926000915b838310610f155786860387f35b919395509193602080610f34600193601f198682030187528951614a6f565b97019301930190928695949293610f08565b82511515845286955060209384019390920191600101610edb565b919396979850919394602080610f83600193601f198682030187528a516141fc565b98019301930190928998979695949293610eb9565b80600052600d602052604060002090600360405192610fb68461454f565b80548452604051610fce816103768160018601614857565b602085015260ff6002820154161515604085015201604051808260208294549384815201906000526020600020926000905b8082106110c6575050611015925003826145a0565b60608301528151611030575b61102b91506172be565b610e72565b806000198101116110b05760608261102b935161105160001985018c61740c565b52602081015161106560001985018961740c565b5261107460001984018861740c565b506040810151151561108a60001985018861740c565b52015161109b60001983018961740c565b526110aa60001982018861740c565b50611021565b634e487b7160e01b600052601160045260246000fd5b9160019193506020829186548152019401920184929391611000565b3461058a57600036600319011261058a57600c546000805b82811061121d575061112461110e82615586565b9161111c60405193846145a0565b808352615586565b6020928383019291601f19013684376000805b82811061118b5750505090604051928392818401908285525180915260408401929160005b82811061116b57505050500390f35b83516001600160a01b03168552869550938101939281019260010161115c565b61119481614a3c565b60018060a01b03809254600392831b1c166000526014885260ff604060002054166004811015611207576001146111d6575b50506111d1906172be565b611137565b926111ff9183946111e96111d195614a3c565b9054911b1c166111f9828861740c565b526172be565b9190876111c6565b634e487b7160e01b600052602160045260246000fd5b61122681614a3c565b60018060a01b0391549060031b1c16600052601460205260ff60406000205416600481101561120757600114611265575b611260906172be565b6110fa565b90611272611260916172be565b919050611257565b3461058a57604036600319011261058a576024356001600160401b03811161058a573660238201121561058a576001600160401b0360048201351161058a57366024826004013560051b8301011161058a57600435600052600d60205260ff60026040600020015416156114e55760005b816004013581106112f857005b6113036010546172be565b8060105561133561131c83856004013560248701617318565b91906040519261132b8461454f565b84845236916145de565b9160208201928352600435604083015260016060830152600052600e602052604060002091815183555180519060018060401b038211610d075761138982611380600187015461481d565b60018701615623565b602090601f8311600114611467576113fb93836114579796946113e19460609460009261145c575b50508160011b916000199060031b1c19161760018501555b60408101516002850155015115156003809301614e4d565b600435600052600d6020526040600020016010549061582e565b60008051602061829083398151915260105461141f83866004013560248801617318565b9290836040519160208352816020840152604083013760006040858301015260408160043595601f80199101168101030190a36172be565b6112eb565b015190508a806113b1565b906001850160005260206000209160005b601f19851681106114cd5750936001846113e1946060946113fb986114579b9a98601f198116106114b4575b505050811b0160018501556113c9565b015160001960f88460031b161c191690558a80806114a4565b91926020600181928685015181550194019201611478565b60405162461bcd60e51b815260206004820152601a602482015279506172656e742063617465676f7279206e6f742061637469766560301b6044820152606490fd5b3461058a57602036600319011261058a57600435611543614aa3565b80600052600d60205261155c6040600020541515617333565b80600052600d60205260008051602061823083398151915261159f60406000206002810160ff198154169055604051918291604083526001604084019101614857565b600060208301520390a2005b3461058a57602036600319011261058a576115cf6115ca600435614e5e565b614afb565b60006040516115dd81614585565b526103066040516115ed81614585565b600081526040519182916020835260208301906141fc565b3461058a57602036600319011261058a576001600160a01b036116266144eb565b166000526017602052602060ff604060002054166040519015158152f35b3461058a57604036600319011261058a5761165d6144eb565b6001600160a01b031660009081526012602052604090208054602435919082101561058a5760209161168e91614a57565b90546040519160031b1c8152f35b3461058a5760208060031936011261058a576004356116b96154fa565b5080600052601182526116da60ff600f6040600020015460101c16156166a9565b80600052601882526116f360ff60406000205416616664565b600052601181526040600020906040519161170d83614517565b805483526001808201546001600160a01b031683850152604051611738816103768160028701614857565b6040850152604051611751816103768160038701614857565b606085015260048201546080850152600582015460a0850152601060069261177a8482016174ce565b60c087015261178b600782016174ce565b60e087015261179c600882016174ce565b6101008701526040516117b6816103768160098601614857565b6101208701526040516117d08161037681600a8601614857565b610140870152600b8101546101608701526040516117f58161037681600c8601614857565b61018087015260405161180f8161037681600d8601614857565b6101a0870152600e8101546101c087015260ff600f82015481811615156101e0890152818160081c161515610200890152831c161515610220870152019182549061185982615586565b9361186760405195866145a0565b8285526000908152858120868087015b858410611899576102408a01889052604051828152806103068185018d614339565b869185916118a68561746d565b8152019201920191908790611877565b3461058a57602036600319011261058a5760206001600160a01b03806118da6144eb565b16600052601a825260406000205416604051908152f35b3461058a57608036600319011261058a5761190a6144eb565b611912614501565b606435916001600160401b03831161058a573660238401121561058a576119466107559336906024816004013591016145de565b9160443591614bee565b3461058a5760208060031936011261058a576001600160a01b0390816119746144eb565b1660005260158152604060002080549061198d82615586565b9261199b60405194856145a0565b82845260009182528082208185015b8484106119bf5760405180610306888261474c565b600e836001926040516119d181614533565b85548152848601548382015260028601546040820152600386015460608201528a600487015416608082015260ff600587015460a08d8216818501521c16151560c0820152611a226006870161491f565b60e08201528152019201930192906119aa565b3461058a57602036600319011261058a576004356000526018602052602060ff604060002054166040519015158152f35b3461058a57602036600319011261058a57611a7f6144eb565b611a87614aa3565b6001600160a01b03168015611ad25760406000805160206181f08339815191529133600052601a602052816000208160018060a01b03198254161790558151903382526020820152a1005b60405162461bcd60e51b8152602060048201526017602482015276496e76616c6964206163636f756e74206164647265737360481b6044820152606490fd5b3461058a57604036600319011261058a57611b2a6144eb565b602435908115159081830361058a576001600160a01b031691338314611b9b57611b6d903360005260076020526040600020846000526020526040600020614e4d565b6040519081527f17307eab39ab6107e8899845ad3d59bd9653f200f220920489ca2b5937696c3160203392a3005b60405162461bcd60e51b815260206004820152601960248201527822a9219b99189d1030b8383937bb32903a379031b0b63632b960391b6044820152606490fd5b3461058a5760031960203682011261058a57600435906001600160401b03821161058a576101a090823603011261058a5761075590600401615004565b3461058a57604036600319011261058a57611c326144eb565b6001600160a01b03908116600090815260156020526040902080546024359081101561058a57610afc916148ed565b3461058a5760208060031936011261058a576004358060005260119081835260ff600f6040600020015491611c9c82601094851c16156166a9565b8060005260188552611cb48260406000205416616664565b60009260005b82600052858752816040600020018054821015611d0b576004611cde838793617451565b5001541615611cf6575b611cf1906172be565b611cba565b93611d03611cf1916172be565b949050611ce8565b50508486611d1886615586565b95611d2660405197886145a0565b808752611d35601f1991615586565b018160005b828110611dde5750505060009360005b81600052838352846040600020018054821015611dcb576004611d6e838a93617451565b5001541615611d86575b611d81906172be565b611d4a565b94611dc3611d819183600052858552611dae611da88989604060002001617451565b5061746d565b611db8828c61740c565b526104ec818b61740c565b959050611d78565b604051848152806103068187018c614298565b611de6617420565b82828b010152018290611d3a565b3461058a57604036600319011261058a57611e0d6144eb565b602490813590600482101561058a57611e24614aa3565b6001600160a01b031691611e39831515617c5f565b826000526020906017825260ff6040600020541615611f7857836000526014825260ff604060002054166004811015611f2b578314611f405760028314611ec7575b507fd8f7bcb2c5cffc294a0aaef719685993d7be95273fb8254803a1563510ccefed916014610cd4928560005252604060002060ff1981541660ff83161790556040519182918261480a565b836000526014825260ff604060002054166004811015611f2b57600114611e7b5790601f6064926040519262461bcd60e51b845260048401528201527f43616e206f6e6c79207665726966792070656e64696e672073656c6c657273006044820152fd5b50634e487b7160e01b60009081526021600452fd5b9060126064926040519262461bcd60e51b845260048401528201527114dd185d1d5cc8185b1c9958591e481cd95d60721b6044820152fd5b9060156064926040519262461bcd60e51b845260048401528201527414d95b1b195c881b9bdd081c9959da5cdd195c9959605a1b6044820152fd5b3461058a57600036600319011261058a57604051600090600354611fd68161481d565b80835260019180831690811561206d5750600114612013575b61030683611fff818703826145a0565b6040519182916020835260208301906141fc565b6003600090815260209450917fc2575a0e9e593c00f959f8c92f12db2869c3395a3b0502d05e2516446f71f85b5b82841061205a57505050810190910190611fff81611fef565b8054858501870152928501928101612041565b6103069550611fff93506020915091849260ff191682840152151560051b8201019350611fef565b3461058a57602036600319011261058a576004356001600160401b03811161058a576120c5903690600401614615565b600854600060015b8281111561233957506120df90617533565b90600160005b828211156120fb57604051806103068682614489565b816000526011806020526009906103766121218360406000200160405192838092614857565b6020815191012087516020890120148061231b575b61214d575b505090612147906172be565b906120e5565b83600052602052604060002061037661220b6040519361216c85614517565b8354855260018401546001600160a01b03166020860152604051612197816103768160028901614857565b60408601526040516121b0816103768160038901614857565b606086015260048401546080860152600584015460a08601526121d5600685016174ce565b60c08601526121e6600785016174ce565b60e08601526121f7600885016174ce565b610100860152604051928380928601614857565b6101208301526040516122258161037681600a8601614857565b610140830152600b81015461016083015260405161224a8161037681600c8601614857565b6101808301526040516122648161037681600d8601614857565b6101a0830152600e8101546101c0830152600f8101549060ff80831615156101e0850152808360081c161515610200850152601092831c161515610220840152018054906122b182615586565b916122bf60405193846145a0565b808352602083019160005260206000206000925b8284106122fd5750505050610240820152612147916122f6916104e1828861740c565b908661213b565b6006602060019261230d8561746d565b8152019201930192906122d3565b50836000528060205260ff600f6040600020015460101c1615612136565b8060005260118060205261037661235d600960406000200160405192838092614857565b602081519101208551602087012014908161239c575b50612387575b612382906172be565b6120cd565b90612394612382916172be565b919050612379565b90508160005260205260ff600f6040600020015460101c161585612373565b3461058a57600036600319011261058a576000546040516001600160a01b039091168152602090f35b3461058a57604036600319011261058a576001600160401b0360043560243582811161058a57612418903690600401614615565b612420614aa3565b81600052602090600d8252604060002054156125bd57612442815115156172cd565b61244d6010546172be565b806010556040519061245e8261454f565b80825283820183815260408301908682526060840192600190818552600052600e875260406000209451855580850191518051998a11610d07576124a68a610c1d855461481d565b8790601f8b1160011461254057998080600396946124fc999896946000805160206182908339815191529c9d9e600094612535575b50501b9160001990871b1c19161790555b5160028401555115159101614e4d565b83600052600d835261251860036040600020016010549061582e565b601054926125306040519282849384528301906141fc565b0390a3005b015192508e806124db565b9990601f1982169a84600052896000209b60005b8181106125a857509b600396949284926124fc9a9997956000805160206182908339815191529d9e9f10612590575b505050811b0190556124ec565b015160001983891b60f8161c191690558c8080612583565b838301518e559c85019c928b01928b01612554565b60405162461bcd60e51b815260048101839052601e60248201527f506172656e742063617465676f727920646f6573206e6f7420657869737400006044820152606490fd5b3461058a57602036600319011261058a57600435600052601160205260406000208054600160a01b60019003600183015416916040518080600284019061264891614857565b0361265390826145a0565b604051806126648160038601614857565b0361266f90826145a0565b60048301546005840154906040518080600988019061268d91614857565b0361269890826145a0565b60405190816126aa81600a8a01614857565b036126b590836145a0565b600b87015492604051948580600c8b01906126cf91614857565b036126da90876145a0565b60405196876126ec81600d8d01614857565b036126f790896145a0565b600e8a015499600f0154986040519c8d9c8d5260208d01528b6101e06040819201528c01612724916141fc565b8b810360608d0152612735916141fc565b9160808b015260a08a015288810360c08a0152612751916141fc565b87810360e0890152612762916141fc565b9061010087015285810361012087015261277b916141fc565b84810361014086015261278d916141fc565b9161016084015260ff811615156101808401528060081c60ff1615156101a084015260101c60ff1615156101c08301520390f35b3461058a57600036600319011261058a576127da614aa3565b600080546001600160a01b0319811682556001600160a01b03166000805160206182508339815191528280a3005b3461058a57602036600319011261058a576001600160a01b036128296144eb565b1680156128485760005260056020526020604060002054604051908152f35b60405162461bcd60e51b815260206004820152602960248201527f4552433732313a2061646472657373207a65726f206973206e6f7420612076616044820152683634b21037bbb732b960b91b6064820152608490fd5b3461058a57602036600319011261058a57600435600052600e60205260406000206040516128cc8161454f565b81548152604051906128ec826128e58160018701614857565b03836145a0565b6020810191825260ff6003600285015494604084019586520154169060608101911515825261291d81511515617399565b51915192519051151561294260405194859485526080602086015260808501906141fc565b91604084015260608301520390f35b3461058a5761295f36614665565b61296a929192614aa3565b81600052602092600d84526129856040600020541515617333565b61299181511515617272565b6000838152600d855260409020815194906001908101906001600160401b038711610d07576129ca876129c4845461481d565b84615623565b82601f8811600114612a3857968080600d959493600080516020618230833981519152999a600093612a2d575b501b916000199060031b1c19161790555b8560005252612a1e826002604060002001614e4d565b610cd460405192839283617379565b88015192508b6129f7565b96601f1981169783600052846000209860005b818110612a985750988291600d969594936000805160206182308339815191529a9b10612a7f575b5050811b019055612a08565b87015160001960f88460031b161c191690558980612a73565b878301518b5599840199918601918601612a4b565b60031960403682011261058a576024906001600160401b0382351161058a576101009082353603011261058a576002600154146132b65760026001556004356000526018602052612b0560ff60406000205416616664565b6004356000526011602052612b2860ff600f6040600020015460101c16156166a9565b600435600052601160205260018060a01b0360016040600020015416600052601460205260ff604060002054166004811015611f2b576002036132795760043560005260116020526005604060002001541561323b57600435600052601160205260ff600f60406000200154166131fa57600435600052601160205260018060a01b036001604060002001541633146131b857612bc96004823501806150a8565b90501561317f57612be18180350182356004016150a8565b90501561314157612bfa604482350182356004016150a8565b90501561310d57612c13606482350182356004016150a8565b9050156130d857612c2c608482350182356004016150a8565b9050156130a157612c4560a482350182356004016150a8565b90501561306657612c5e60c482350182356004016150a8565b90501561303157612c7760e482350182356004016150a8565b905015612ffc57600435600052601160205260046040600020015490813410612fc3576004356000526011602052600560406000200180548015612fae5760001901905560043560005260116020526040600020600581015415612f9a575b600101546040516001600160a01b039091169190612cf381614533565b6004823501356001600160401b03811161058a57612d18906004369185350101614615565b81526001600160401b0382358301351161058a57612d3f3683358085013501600401614615565b60208201528135604401356001600160401b03811161058a57612d69906004369185350101614615565b60408201528135606401356001600160401b03811161058a57612d93906004369185350101614615565b60608201528135608401356001600160401b03811161058a57612dbd906004369185350101614615565b6080820152813560a401356001600160401b03811161058a57612de7906004369185350101614615565b60a0820152813560c401356001600160401b03811161058a57612e11906004369185350101614615565b60c0820152813560e40135906001600160401b03821161058a57612e3f612eaa926004369186350101614615565b60e082015260405190612e5182614533565b60043582528560208301528560408301524260608301523360808301528460a0830152600060c083015260e0820152336000526015602052612e97816040600020617583565b8360005260166020526040600020617583565b8160005260136020526040600020805491848301809311612f8657505560405182815282602082015242604082015233907f45280c7ac9cec77edd454e39e1641a3e22619146cf074a4239beee86a7c07edc606060043592a4600160095401600955612f1681346173ff565b80612f76575b50600435600052601160205260018060a01b03600160406000200154169060405190815242602082015233907fbe6177108f4df43c5d7be79cb219c969fc97915bbdb4b56d14d391dcdcc16060604060043592a460018055005b612f809033617e0e565b81612f1c565b634e487b7160e01b60009081526011600452fd5b600f8101805460ff19166001179055612cd6565b82634e487b7160e01b60005260116004526000fd5b60649060126040519162461bcd60e51b83526020600484015282015271496e73756666696369656e742066756e647360701b6044820152fd5b606490600e6040519162461bcd60e51b8352602060048401528201526d115b585a5b081c995c5d5a5c995960921b6044820152fd5b606490600e6040519162461bcd60e51b8352602060048401528201526d141a1bdb99481c995c5d5a5c995960921b6044820152fd5b60649060146040519162461bcd60e51b83526020600484015282015273141bdcdd185b0818dbd919481c995c5d5a5c995960621b6044820152fd5b60649060106040519162461bcd60e51b8352602060048401528201526f10dbdd5b9d1c9e481c995c5d5a5c995960821b6044820152fd5b606490600e6040519162461bcd60e51b8352602060048401528201526d14dd185d19481c995c5d5a5c995960921b6044820152fd5b606490600d6040519162461bcd60e51b8352602060048401528201526c10da5d1e481c995c5d5a5c9959609a1b6044820152fd5b60649060176040519162461bcd60e51b8352602060048401528201527614dd1c99595d081859191c995cdcc81c995c5d5a5c9959604a1b6044820152fd5b60649060126040519162461bcd60e51b83526020600484015282015271119d5b1b081b985b59481c995c5d5a5c995960721b6044820152fd5b606490601b6040519162461bcd60e51b8352602060048401528201527a10d85b9b9bdd08189d5e481e5bdd5c881bdddb881c1c9bd91d58dd602a1b6044820152fd5b606490601a6040519162461bcd60e51b83526020600484015282015279141c9bd91d58dd081a5cc8185b1c9958591e481cdbdb191bdd5d60321b6044820152fd5b60649060176040519162461bcd60e51b8352602060048401528201527650726f64756374206973206f7574206f662073746f636b60481b6044820152fd5b60649060166040519162461bcd60e51b8352602060048401528201527514d95b1b195c881a5cc81b9bdd081d995c9a599a595960521b6044820152fd5b606490601f6040519162461bcd60e51b8352602060048401528201527f5265656e7472616e637947756172643a207265656e7472616e742063616c6c006044820152fd5b3461058a57602036600319011261058a576020613318600435614b42565b6040516001600160a01b039091168152f35b3461058a57602036600319011261058a576001600160a01b0361334b6144eb565b1660005260136020526020604060002054604051908152f35b3461058a57602036600319011261058a57600435613380614aa3565b6064811161338d57600b55005b60405162461bcd60e51b8152602060048201526012602482015271496e76616c69642070657263656e7461676560701b6044820152606490fd5b3461058a57600036600319011261058a5733600052601760205260ff6040600020541661344a57336000526017602052604060002060ff1990600182825416179055601460205260016040600020918254161790556040514281527fa1a1a78ff3033d5ee8393372052aeb2a16bbb347a29f3780370e9506c109e37260203392a2005b60405162461bcd60e51b8152602060048201526012602482015271105b1c9958591e481c9959da5cdd195c995960721b6044820152606490fd5b3461058a57602036600319011261058a576001600160a01b036134a56144eb565b16600052601460205261030660ff604060002054166040519182918261480a565b3461058a576107556134d736614630565b90604051926134e584614585565b60008452614bee565b3461058a57600036600319011261058a57610755617ca4565b3461058a5760208060031936011261058a576001600160a01b03908161352b6144eb565b1660005260168152604060002080549061354482615586565b9261355260405194856145a0565b82845260009182528082208185015b8484106135765760405180610306888261474c565b600e8360019260405161358881614533565b85548152848601548382015260028601546040820152600386015460608201528a600487015416608082015260ff600587015460a08d8216818501521c16151560c08201526135d96006870161491f565b60e0820152815201920193019290613561565b3461058a576135fa36614665565b613605929192614aa3565b81600052602092600e84526136206040600020541515617399565b61362c815115156172cd565b6000838152600e855260409020815194906001908101906001600160401b038711610d075761365f876129c4845461481d565b82601f88116001146136be57968080600e9594936000805160206182b0833981519152999a6000936136b3575b501b916000199060031b1c19161790555b8560005252612a1e826003604060002001614e4d565b88015192508b61368c565b96601f1981169783600052846000209860005b81811061371e5750988291600e969594936000805160206182b08339815191529a9b10613705575b5050811b01905561369d565b87015160001960f88460031b161c1916905589806136f9565b878301518b55998401999186019186016136d1565b3461058a57604036600319011261058a57602480356004356000805b82600052601160209080825260109182604060002001805485101561394b57613779858992617451565b5054146137915750505061378c906172be565b61374f565b9193509193946000526019815260ff9485604060002054161561390f57806000528282526137c58585604060002001617451565b50600190810154909690336001600160a01b0391821614908115613901575b50156138ac578160005283835260046138038787604060002001617451565b5001541661386f579161382493916004959360005252604060002001617451565b5001805460ff1916821790555b1561383857005b60649060106040519162461bcd60e51b8352602060048401528201526f14995d9a595dc81b9bdd08199bdd5b9960821b6044820152fd5b60405162461bcd60e51b8152600481018390526016818901527514995d9a595dc8185b1c9958591e4819195b195d195960521b6044820152606490fd5b60405162461bcd60e51b8152600481018490526028818a01527f4f6e6c79207265766965776572206f72206f776e65722063616e2064656c6574604482015267652072657669657760c01b6064820152608490fd5b6000541633149050896137e4565b60405162461bcd60e51b8152600481018390526015818901527414995d9a595dc8191bd95cc81b9bdd08195e1a5cdd605a1b6044820152606490fd5b5050505050915050613831565b3461058a5761075561396936614630565b9161397c6139778433614c89565b614b8c565b614d51565b3461058a57602036600319011261058a5760043561399d614aa3565b80600052600e6020526139b66040600020541515617399565b80600052600e6020526000805160206182b083398151915261159f60406000206003810160ff198154169055604051918291604083526001604084019101614857565b3461058a5760031960403682011261058a57602435906001600160401b03821161058a576101a090823603011261058a57610755906004016004356165d2565b3461058a57606036600319011261058a57602480356004356044356001600160401b03811161058a57613a70903690600401614615565b90806000526020916011835260018060a01b03600160406000200154163314613bde5783151580613bd3575b15613b8f57805115613b515790601192916001600a54019081600a55613ac0617420565b958287523385880152604087015260608601524260a0860152600052601982526040600020600160ff198254161790556000525260106040600020018054600160401b811015613b3c57613b1991600182018155617451565b613b275761075592506156fa565b82634e487b7160e01b60005260006004526000fd5b83634e487b7160e01b60005260416004526000fd5b60405162461bcd60e51b81526004810184905260178187015276436f6d6d656e742063616e6e6f7420626520656d70747960481b6044820152606490fd5b60405162461bcd60e51b815260048101849052601e818701527f526174696e67206d757374206265206265747765656e203120616e64203500006044820152606490fd5b506005841115613a9c565b60405162461bcd60e51b8152600481018490526026818701527f53656c6c65722063616e6e6f7420726576696577207468656972206f776e20706044820152651c9bd91d58dd60d21b6064820152608490fd5b3461058a57600036600319011261058a57613c4a614aa3565b33600052601a602052604060002060018060a01b031981541690556000805160206181f08339815191526040805133815260006020820152a1005b3461058a57604036600319011261058a57610755613ca1614501565b600435617ea4565b3461058a57604036600319011261058a57613cc26144eb565b602435906001600160a01b038080613cd985614b42565b16921691808314613dd457803314908115613daf575b5015613d4457600083815260066020526040902080546001600160a01b03191683179055613d1c83614b42565b167f8c5be1e5ebec7d5bd14f71427d1e84f3dd0314c0f7b2291e5b200ac8c7c3b925600080a4005b60405162461bcd60e51b815260206004820152603d60248201527f4552433732313a20617070726f76652063616c6c6572206973206e6f7420746f60448201527f6b656e206f776e6572206f7220617070726f76656420666f7220616c6c0000006064820152608490fd5b9050600052600760205260406000203360005260205260ff6040600020541684613cef565b60405162461bcd60e51b815260206004820152602160248201527f4552433732313a20617070726f76616c20746f2063757272656e74206f776e656044820152603960f91b6064820152608490fd5b3461058a57602036600319011261058a576020613318600435614b65565b3461058a57600036600319011261058a57604051600090600254613e648161481d565b80835260019180831690811561206d5750600114613e8c5761030683611fff818703826145a0565b6002600090815260209450917f405787fa12a823e0f2b7631cc41b3ba8828b3321ca811111fa75cd3aa3bb5ace5b828410613ed357505050810190910190611fff81611fef565b8054858501870152928501928101613eba565b3461058a57600036600319011261058a5760088054600060015b828111156141205750613f1290617533565b9060009260015b82811115613f2f57604051806103068682614489565b80600052602060118152604060002090600f82015460ff926010908483831c161580613f6a575b505050505050613f65906172be565b613f19565b60409a969a5195613f7a87614517565b8254875260018301546001600160a01b031686880152604051613fa4816103768160028801614857565b6040880152604051613fbd816103768160038801614857565b606088015260048301546080880152600583015460a0880152600694613fe48685016174ce565b60c0890152613ff5600785016174ce565b60e08901526140058a85016174ce565b61010089015260405161401f816103768160098901614857565b6101208901526040516140398161037681600a8901614857565b610140890152600b84015461016089015260405161405e8161037681600c8901614857565b6101808901526040516140788161037681600d8901614857565b6101a0890152600e8401546101c089015281811615156101e0890152891c1615156102008701521561022086015201908154916140b483615586565b936140c260405195866145a0565b8385526000918252808220918186015b858210614104575050505050509181613f65936102406140f89401526104e1828861740c565b94908680808080613f56565b84836001926141128761746d565b8152019401910190926140d2565b80600052601160205260ff600f6040600020015460101c161561414c575b614147906172be565b613f00565b90614159614147916172be565b91905061413e565b3461058a57602036600319011261058a5760043563ffffffff60e01b811680910361058a576020906380ac58cd60e01b81149081156141be575b81156141ad575b506040519015158152f35b6301ffc9a760e01b149050826141a2565b635b5e139f60e01b8114915061419b565b3461058a57602036600319011261058a576020906004356000526019825260ff6040600020541615158152f35b919082519283825260005b848110614228575050826000602080949584010152601f8019910116010190565b602081830181015184830182015201614207565b908082519081815260208091019281808460051b8301019501936000915b84831061426a5750505050505090565b9091929394958480614288600193601f198682030187528a516141fc565b980193019301919493929061425a565b908082519081815260208091019281808460051b8301019501936000915b8483106142c65750505050505090565b9091929394958480600192601f1985820301865289519081518152848060a01b03838301511683820152604080830151908201526143136060808401519060c080918501528301906141fc565b9160808082015115159083015260a08091015191015298019301930191949392906142b6565b90614486918051825260018060a01b03602082015116602083015261444061442c61440d6143f96143e56143d16143bf61439961438760408a015160408c61026091829101528c01906141fc565b60608a01518b820360608d01526141fc565b608089015160808b015260a089015160a08b015260c08901518a820360c08c015261423c565b60e088015189820360e08b015261423c565b6101008088015190898303908a015261423c565b6101208087015190888303908901526141fc565b6101408086015190878303908801526141fc565b61016080850151908601526101808085015190868303908701526141fc565b6101a08084015190858303908601526141fc565b916101c080830151908201526101e08083015115159082015261020080830151151590820152610220808301511515908201526102408092015191818403910152614298565b90565b602080820190808352835180925260408301928160408460051b8301019501936000915b8483106144bd5750505050505090565b90919293949584806144db600193603f198682030187528a51614339565b98019301930191949392906144ad565b600435906001600160a01b038216820361058a57565b602435906001600160a01b038216820361058a57565b61026081019081106001600160401b03821117610d0757604052565b61010081019081106001600160401b03821117610d0757604052565b608081019081106001600160401b03821117610d0757604052565b60c081019081106001600160401b03821117610d0757604052565b602081019081106001600160401b03821117610d0757604052565b601f909101601f19168101906001600160401b03821190821017610d0757604052565b6001600160401b038111610d0757601f01601f191660200190565b9291926145ea826145c3565b916145f860405193846145a0565b82948184528183011161058a578281602093846000960137010152565b9080601f8301121561058a57816020614486933591016145de565b606090600319011261058a576001600160a01b0390600435828116810361058a5791602435908116810361058a579060443590565b90606060031983011261058a5760043591602435906001600160401b03821161058a5761469491600401614615565b90604435801515810361058a5790565b6144869160e061473b6147296147176147056146f36146e16146cf8951610100808b528a01906141fc565b60208a015189820360208b01526141fc565b604089015188820360408a01526141fc565b606088015187820360608901526141fc565b608087015186820360808801526141fc565b60a086015185820360a08701526141fc565b60c085015184820360c08601526141fc565b9201519060e08184039101526141fc565b602080820190808352835180925260409283810182858560051b8401019601946000925b858410614781575050505050505090565b9091929394959685806147f9600193603f198682030188528b51805182528381015184830152878101518883015260608082015190830152858060a01b0360808181840151169084015260a09081830151169083015260c08082015115159083015260e08091015191610100809282015201906146a4565b990194019401929594939190614770565b9190602083019260048210156112075752565b90600182811c9216801561484d575b602083101461483757565b634e487b7160e01b600052602260045260246000fd5b91607f169161482c565b90600092918054916148688361481d565b9182825260019384811690816000146148ca575060011461488a575b50505050565b90919394506000526020928360002092846000945b8386106148b6575050505001019038808080614884565b80548587018301529401938590820161489f565b9294505050602093945060ff191683830152151560051b01019038808080614884565b805482101561490957600052600e602060002091020190600090565b634e487b7160e01b600052603260045260246000fd5b90600760e06040936149ee85519161493683614533565b6149e78397805161494b816103768187614857565b85528051614960816103768160018801614857565b60208601528051614978816103768160028801614857565b81860152805161498f816103768160038801614857565b606086015280516149a7816103768160048801614857565b608086015280516149bf816103768160058801614857565b60a086015280516149d7816103768160068801614857565b60c0860152518096819301614857565b03846145a0565b0152565b959290916144869897959492875260208701526040860152606085015260018060a01b0380921660808501521660a0830152151560c0820152610100908160e082015201906146a4565b600c5481101561490957600c60005260206000200190600090565b80548210156149095760005260206000200190600090565b90815180825260208080930193019160005b828110614a8f575050505090565b835185529381019392810192600101614a81565b6000546001600160a01b03163303614ab757565b606460405162461bcd60e51b815260206004820152602060248201527f4f776e61626c653a2063616c6c6572206973206e6f7420746865206f776e65726044820152fd5b15614b0257565b60405162461bcd60e51b8152602060048201526018602482015277115490cdcc8c4e881a5b9d985b1a59081d1bdad95b88125160421b6044820152606490fd5b6000908152600460205260409020546001600160a01b0316614486811515614afb565b614b716115ca82614e5e565b6000908152600660205260409020546001600160a01b031690565b15614b9357565b60405162461bcd60e51b815260206004820152602d60248201527f4552433732313a2063616c6c6572206973206e6f7420746f6b656e206f776e6560448201526c1c881bdc88185c1c1c9bdd9959609a1b6064820152608490fd5b90614c12939291614c026139778433614c89565b614c0d838383614d51565b614eab565b15614c1957565b60405162461bcd60e51b815280614c3260048201614c36565b0390fd5b60809060208152603260208201527f4552433732313a207472616e7366657220746f206e6f6e20455243373231526560408201527131b2b4bb32b91034b6b83632b6b2b73a32b960711b60608201520190565b906001600160a01b038080614c9d84614b42565b16931691838314938415614cd0575b508315614cba575b50505090565b614cc691929350614b65565b1614388080614cb4565b909350600052600760205260406000208260005260205260ff604060002054169238614cac565b15614cfe57565b60405162461bcd60e51b815260206004820152602560248201527f4552433732313a207472616e736665722066726f6d20696e636f72726563742060448201526437bbb732b960d91b6064820152608490fd5b90614d7991614d5f84614b42565b6001600160a01b0393918416928492909183168414614cf7565b16918215614dfc5781614d9691614d8f86614b42565b1614614cf7565b600080516020618270833981519152600084815260066020526040812060018060a01b03199081815416905583825260056020526040822060001981540190558482526040822060018154019055858252600460205284604083209182541617905580a4565b60405162461bcd60e51b8152602060048201526024808201527f4552433732313a207472616e7366657220746f20746865207a65726f206164646044820152637265737360e01b6064820152608490fd5b9060ff801983541691151516179055565b6000908152600460205260409020546001600160a01b0316151590565b3d15614ea6573d90614e8c826145c3565b91614e9a60405193846145a0565b82523d6000602084013e565b606090565b91926000929190813b15614fa057602091614f019185604051958680958194630a85bd0160e11b9b8c845233600485015260018060a01b03809516602485015260448401526080606484015260848301906141fc565b0393165af190829082614f51575b5050614f4357614f1d614e7b565b80519081614f3e5760405162461bcd60e51b815280614c3260048201614c36565b602001fd5b6001600160e01b0319161490565b909192506020813d8211614f98575b81614f6d602093836145a0565b81010312614f945751906001600160e01b031982168203614f915750903880614f0f565b80fd5b5080fd5b3d9150614f60565b5050505050600190565b15614fb157565b60405162461bcd60e51b815260206004820152602560248201527f4f6e6c792076657269666965642073656c6c6572206f72206f776e657220616c6044820152641b1bddd95960da1b6064820152608490fd5b6000338152601a60205260018060a01b038060408320541690825416331461509d578015615071578152601460205260ff60408220541690600482101561505d575090615056600261505b9314614faa565b615863565b565b634e487b7160e01b81526021600452602490fd5b50338152601460205260ff60408220541690600482101561505d575090615056600261505b9314614faa565b505061505b90615863565b903590601e198136030182121561058a57018035906001600160401b03821161058a5760200191813603831361058a57565b156150e157565b60405162461bcd60e51b81526020600482015260146024820152734e616d652063616e6e6f7420626520656d70747960601b6044820152606490fd5b1561512457565b60405162461bcd60e51b815260206004820152601b60248201527a4465736372697074696f6e2063616e6e6f7420626520656d70747960281b6044820152606490fd5b1561516e57565b60405162461bcd60e51b815260206004820152601c60248201527b05072696365206d7573742062652067726561746572207468616e20360241b6044820152606490fd5b156151b957565b60405162461bcd60e51b815260206004820152601c60248201527b053746f636b206d7573742062652067726561746572207468616e20360241b6044820152606490fd5b903590601e198136030182121561058a57018035906001600160401b03821161058a57602001918160051b3603831361058a57565b1561523957565b60405162461bcd60e51b8152602060048201526016602482015275436f6c6f72732063616e6e6f7420626520656d70747960501b6044820152606490fd5b1561527e57565b60405162461bcd60e51b815260206004820152601560248201527453697a65732063616e6e6f7420626520656d70747960581b6044820152606490fd5b156152c257565b60405162461bcd60e51b8152602060048201526016602482015275496d616765732063616e6e6f7420626520656d70747960501b6044820152606490fd5b1561530757565b60405162461bcd60e51b815260206004820152601c60248201527b496d616765732063616e6e6f74206265206d6f7265207468616e203560201b6044820152606490fd5b1561535257565b60405162461bcd60e51b815260206004820152601860248201527743617465676f72792063616e6e6f7420626520656d70747960401b6044820152606490fd5b1561539957565b60405162461bcd60e51b815260206004820152601c60248201527b5375622d63617465676f72792063616e6e6f7420626520656d70747960201b6044820152606490fd5b156153e457565b60405162461bcd60e51b81526020600482015260156024820152744d6f64656c2063616e6e6f7420626520656d70747960581b6044820152606490fd5b1561542857565b60405162461bcd60e51b81526020600482015260156024820152744272616e642063616e6e6f7420626520656d70747960581b6044820152606490fd5b1561546c57565b60405162461bcd60e51b815260206004820152601d60248201527f576569676874206d7573742062652067726561746572207468616e20300000006044820152606490fd5b156154b857565b60405162461bcd60e51b815260206004820152601a6024820152790534b55206d7573742062652067726561746572207468616e20360341b6044820152606490fd5b6040519061550782614517565b8161024060009182815282602082015260609283604083015283808301528060808301528060a08301528360c08301528360e08301528361010083015283610120830152836101408301528061016083015283610180830152836101a0830152806101c0830152806101e0830152806102008301526102208201520152565b6001600160401b038111610d075760051b60200190565b929190926155aa84615586565b916155b860405193846145a0565b829480845260208094019060051b83019282841161058a5780915b8483106155e257505050505050565b82356001600160401b03811161058a5786916156018684938601614615565b8152019201916155d3565b818110615617575050565b6000815560010161560c565b9190601f811161563257505050565b61505b926000526020600020906020601f840160051c8301931061565e575b601f0160051c019061560c565b9091508190615651565b615672815461481d565b908161567c575050565b81601f6000931160011461568e575055565b9080839182526156ad601f60208420940160051c84016001850161560c565b5555565b90600160401b8111610d07578154918181558282106156cf57505050565b600052602060002091820191015b8181106156e8575050565b806156f4600192615668565b016156dd565b81518155602080830151600180840180546001600160a01b0319166001600160a01b03939093169290921790915560408401516002840155606084015180519394909390926003860192906001600160401b038311610d075761576783615761865461481d565b86615623565b80601f84116001146157bf57509180809260a09695946005986000946157b4575b50501b916000199060031b1c19161790555b6157ad6080820151151560048601614e4d565b0151910155565b015192503880615788565b91939495601f1984168660005283600020936000905b828210615817575050916005979593918560a0989694106157fe575b505050811b01905561579a565b015160001960f88460031b161c191690553880806157f1565b8088869782949787015181550196019401906157d5565b8054600160401b811015610d075761584b91600182018155614a57565b819291549060031b91821b91600019901b1916179055565b61587961587082806150a8565b905015156150da565b61589261588960208301836150a8565b9050151561511d565b6158a160408201351515615167565b6158b0606082013515156151b2565b6158c96158c060808301836151fd565b90501515615232565b6158e26158d960a08301836151fd565b90501515615277565b6158fb6158f260c08301836151fd565b905015156152bb565b615916600561590d60c08401846151fd565b90501115615300565b61592560e0820135151561534b565b6159356101008201351515615392565b61594f6159466101208301836150a8565b905015156153dd565b6159696159606101408301836150a8565b90501515615421565b6159796101608201351515615465565b61598961018082013515156154b1565b600160085401908160085561018061599f6154fa565b918383523360208401526159bd6159b682806150a8565b36916145de565b60408401526159d26159b660208301836150a8565b606084015260408101356080840152606081013560a0840152615a026159fb60808301836151fd565b369161559d565b60c0840152615a176159fb60a08301836151fd565b60e0840152615a2c6159fb60c08301836151fd565b61010084015260e0810135600052600d602052610376615a59600160406000200160405192838092614857565b610120840152610100810135600052600e602052610376615a87600160406000200160405192838092614857565b610140840152615a9e6159b66101208301836150a8565b82840152615ab36159b66101408301836150a8565b6101a084015261016081013561016084015201356101c0820152331561654357615ae5615adf83614e5e565b15616587565b615af1615adf83614e5e565b33600052600560205260406000206001815401905581600052600460205260406000203360018060a01b0319825416179055813360006000805160206182708339815191528180a4601160209081526040600081902083518155918301516001830180546001600160a01b0319166001600160a01b03929092169190911790558201518051906001600160401b038211610d07578190615ba182615b98600287015461481d565b60028701615623565b602090601f83116001146164d1576000926164c6575b50508160011b916000199060031b1c19161760028201555b60608201518051906001600160401b038211610d07578190615c0182615bf8600387015461481d565b60038701615623565b602090601f831160011461645457600092616449575b50508160011b916000199060031b1c19161760038201555b6080820151600482015560a082015160058201556006810160c08301516020815191615c5b83856156b1565b01916000526020600020916000905b82821061636c57505050506007810160e08301516020815191615c8d83856156b1565b01916000526020600020916000905b82821061628f5750505050600881016101008301516020815191615cc083856156b1565b01916000526020600020916000905b8282106161ac57505050506101208201518051906001600160401b038211610d07578190615d0d82615d04600987015461481d565b60098701615623565b602090601f831160011461613a5760009261612f575b50508160011b916000199060031b1c19161760098201555b6101408201518051906001600160401b038211610d07578190615d6e82615d65600a87015461481d565b600a8701615623565b602090601f83116001146160bd576000926160b2575b50508160011b916000199060031b1c191617600a8201555b610160820151600b8201556101808201518051906001600160401b038211610d07578190615dda82615dd1600c87015461481d565b600c8701615623565b602090601f831160011461604057600092616035575b50508160011b916000199060031b1c191617600c8201555b6101a08201518051906001600160401b038211610d0757615e3982615e30600d86015461481d565b600d8601615623565b602090601f8311600114615fbf5791806102409492601094600092615fb4575b50508160011b916000199060031b1c191617600d8201555b6101c0840151600e820155600f8101615e916101e0860151151582614e4d565b6102008501511515815461ff0062ff00006102208901511515871b169260081b169062ffff001916171790550191015190815191600160401b8311610d07578154838355808410615f47575b506020019060005260206000206000915b838310615f2957505050508061505b9160005260186020526040600020600160ff19825416179055336000526012602052604060002061582e565b6006602082615f3b60019451866156fa565b01920192019190615eee565b806006029060068204036110b057836006026006810485036110b05783600052602060002091820191015b818110615f7f5750615edd565b806000600692556000600182015560006002820155615fa060038201615668565b600060048201556000600582015501615f72565b015190503880615e59565b90600d840160005260206000209160005b601f198516811061601d575092610240949260019260109583601f19811610616004575b505050811b01600d820155615e71565b015160001960f88460031b161c19169055388080615ff4565b91926020600181928685015181550194019201615fd0565b015190503880615df0565b9250600c84016000526020600020906000935b601f1984168510616097576001945083601f1981161061607e575b505050811b01600c820155615e08565b015160001960f88460031b161c1916905538808061606e565b81810151835560209485019460019093019290910190616053565b015190503880615d84565b9250600a84016000526020600020906000935b601f1984168510616114576001945083601f198116106160fb575b505050811b01600a820155615d9c565b015160001960f88460031b161c191690553880806160eb565b818101518355602094850194600190930192909101906160d0565b015190503880615d23565b9250600984016000526020600020906000935b601f1984168510616191576001945083601f19811610616178575b505050811b016009820155615d3b565b015160001960f88460031b161c19169055388080616168565b8181015183556020948501946001909301929091019061614d565b80518051906001600160401b038211610d07576161d3826161cd885461481d565b88615623565b602090601f831160011461621f579282600194936020938695600092616214575b5050600019600383901b1c191690841b1787555b01940191019092615ccf565b0151905038806161f4565b908660005260206000209160005b601f1985168110616277575083602093600196938796938794601f1981161061625e575b505050811b018755616208565b015160001960f88460031b161c19169055388080616251565b9192602060018192868501518155019401920161622d565b80518051906001600160401b038211610d07576162b0826161cd885461481d565b602090601f83116001146162fc5792826001949360209386956000926162f1575b5050600019600383901b1c191690841b1787555b01940191019092615c9c565b0151905038806162d1565b908660005260206000209160005b601f1985168110616354575083602093600196938796938794601f1981161061633b575b505050811b0187556162e5565b015160001960f88460031b161c1916905538808061632e565b9192602060018192868501518155019401920161630a565b80518051906001600160401b038211610d075761638d826161cd885461481d565b602090601f83116001146163d95792826001949360209386956000926163ce575b5050600019600383901b1c191690841b1787555b01940191019092615c6a565b0151905038806163ae565b908660005260206000209160005b601f1985168110616431575083602093600196938796938794601f19811610616418575b505050811b0187556163c2565b015160001960f88460031b161c1916905538808061640b565b919260206001819286850151815501940192016163e7565b015190503880615c17565b9250600384016000526020600020906000935b601f19841685106164ab576001945083601f19811610616492575b505050811b016003820155615c2f565b015160001960f88460031b161c19169055388080616482565b81810151835560209485019460019093019290910190616467565b015190503880615bb7565b9250600284016000526020600020906000935b601f1984168510616528576001945083601f1981161061650f575b505050811b016002820155615bcf565b015160001960f88460031b161c191690553880806164ff565b818101518355602094850194600190930192909101906164e4565b606460405162461bcd60e51b815260206004820152602060248201527f4552433732313a206d696e7420746f20746865207a65726f20616464726573736044820152fd5b1561658e57565b60405162461bcd60e51b815260206004820152601c60248201527b115490cdcc8c4e881d1bdad95b88185b1c9958591e481b5a5b9d195960221b6044820152606490fd5b9190600092338452601a60205260018060a01b038060408620541690855416331461665857801561662c578452601460205260ff60408520541693600485101561505d5750616627600261505b949514614faa565b6167c2565b50338452601460205260ff60408520541693600485101561505d5750616627600261505b949514614faa565b5061505b9293506167c2565b1561666b57565b60405162461bcd60e51b8152602060048201526016602482015275141c9bd91d58dd08191bd95cc81b9bdd08195e1a5cdd60521b6044820152606490fd5b156166b057565b60405162461bcd60e51b8152602060048201526012602482015271141c9bd91d58dd081a5cc819195b195d195960721b6044820152606490fd5b908082146167be576166fc815461481d565b906001600160401b038211610d0757819061671b82615761865461481d565b600090601f831160011461675257600092616747575b50508160011b916000199060031b1c1916179055565b015490503880616731565b81526020808220858352818320935090601f1985169083905b8282106167a557505090846001959493921061678c575b505050811b019055565b015460001960f88460031b161c19169055388080616782565b849581929585015481556001809101960194019061676b565b5050565b6000818152601160205260409020600101546001600160a01b03163303617072578060005260186020526167fd60ff60406000205416616664565b80600052601160205261681e60ff600f6040600020015460101c16156166a9565b61682b61587083806150a8565b61683b61588960208401846150a8565b61684a60408301351515615167565b616859606083013515156151b2565b6168696158c060808401846151fd565b6168796158d960a08401846151fd565b6168896158f260c08401846151fd565b61689b600561590d60c08501856151fd565b6168aa60e0830135151561534b565b6168ba6101008301351515615392565b6168cb6159466101208401846150a8565b6168dc6159606101408401846150a8565b6168ec6101608301351515615465565b6168fc61018083013515156154b1565b61690682806150a8565b6000838152601160205260409020600201916001600160401b038211610d0757819061693682615761865461481d565b600090601f831160011461700a57600092616fff575b50508160011b916000199060031b1c19161790555b61696e60208301836150a8565b6000838152601160205260409020600301916001600160401b038211610d0757819061699e82615761865461481d565b600090601f8311600114616f9757600092616f8c575b50508160011b916000199060031b1c19161790555b8060005260116020526040600020604083013560048201556060830135600582015560066169fa60808501856151fd565b9190920191616a0982846156b1565b60009283526020832090805b838510616ea9575050505050616a2e60a08301836151fd565b826000526011602052600760406000200191616a4a82846156b1565b60009283526020832090805b838510616dc6575050505050616a6f60c08301836151fd565b826000526011602052600860406000200191616a8b82846156b1565b60009283526020832090805b838510616cdd57505050505060e0820135600052600d602052616ad1600160406000200182600052601160205260096040600020016166ea565b610100820135600052600e602052616b006001604060002001826000526011602052600a6040600020016166ea565b616b0e6101208301836150a8565b6000838152601160205260409020600c01916001600160401b038211610d07578190616b3e82615761865461481d565b600090601f8311600114616c7557600092616c6a575b50508160011b916000199060031b1c19161790555b616b776101408301836150a8565b6000838152601160205260409020600d01916001600160401b038211610d07578190616ba782615761865461481d565b600090601f8311600114616c0257600092616bf7575b50508160011b916000199060031b1c19161790555b6000526011602052600e610180604060002092610160810135600b8501550135910155565b013590503880616bbd565b600085815260208120909450915b601f1984168510616c52576001945083601f19811610616c38575b505050811b019055616bd2565b0135600019600384901b60f8161c19169055388080616c2b565b81810135835560209485019460019093019201616c10565b013590503880616b54565b600085815260208120909450915b601f1984168510616cc5576001945083601f19811610616cab575b505050811b019055616b69565b0135600019600384901b60f8161c19169055388080616c9e565b81810135835560209485019460019093019201616c83565b616ce781836150a8565b906001600160401b038211610d0757616d0a82616d04875461481d565b87615623565b600090601f8311600114616d56579282600194936020938695600092616d4b575b5050600019600383901b1c191690841b1786555b01930194019391616a97565b013590503880616d2b565b8560005260206000209160005b601f1985168110616dae575083602093600196938796938794601f19811610616d94575b505050811b018655616d3f565b0135600019600384901b60f8161c19169055388080616d87565b90926020600181928686013581550194019101616d63565b616dd081836150a8565b906001600160401b038211610d0757616ded82616d04875461481d565b600090601f8311600114616e39579282600194936020938695600092616e2e575b5050600019600383901b1c191690841b1786555b01930194019391616a56565b013590503880616e0e565b8560005260206000209160005b601f1985168110616e91575083602093600196938796938794601f19811610616e77575b505050811b018655616e22565b0135600019600384901b60f8161c19169055388080616e6a565b90926020600181928686013581550194019101616e46565b616eb381836150a8565b906001600160401b038211610d0757616ed082616d04875461481d565b600090601f8311600114616f1c579282600194936020938695600092616f11575b5050600019600383901b1c191690841b1786555b01930194019391616a15565b013590503880616ef1565b8560005260206000209160005b601f1985168110616f74575083602093600196938796938794601f19811610616f5a575b505050811b018655616f05565b0135600019600384901b60f8161c19169055388080616f4d565b90926020600181928686013581550194019101616f29565b0135905038806169b4565b600085815260208120909450915b601f1984168510616fe7576001945083601f19811610616fcd575b505050811b0190556169c9565b0135600019600384901b60f8161c19169055388080616fc0565b81810135835560209485019460019093019201616fa5565b01359050388061694c565b600085815260208120909450915b601f198416851061705a576001945083601f19811610617040575b505050811b019055616961565b0135600019600384901b60f8161c19169055388080617033565b81810135835560209485019460019093019201617018565b60405162461bcd60e51b815260206004820152602860248201527f4f6e6c79207468652073656c6c65722063616e20757064617465207468656972604482015267081c1c9bd91d58dd60c21b6064820152608490fd5b6000338152601a60205260018060a01b038060408320541690825416331461714b57801561711f578152601460205260ff60408220541690600482101561505d57509061711a600261505b9314614faa565b617152565b50338152601460205260ff60408220541690600482101561505d57509061711a600261505b9314614faa565b505061505b905b906000918083526020926018845260409161717260ff8484205416616664565b8082526011855282822060010154336001600160a01b0391821614908115617265575b5015617211578082526011855260ff600f848420015460101c166171d057600f939460119183525220016201000062ff000019825416179055565b825162461bcd60e51b815260048101869052601a602482015279141c9bd91d58dd081a5cc8185b1c9958591e4819195b195d195960321b6044820152606490fd5b825162461bcd60e51b815260048101869052602760248201527f4f6e6c792070726f647563742073656c6c6572206f72206f776e65722063616e6044820152662064656c65746560c81b6064820152608490fd5b8354163314905038617195565b1561727957565b60405162461bcd60e51b815260206004820152601d60248201527f43617465676f7279206e616d652063616e6e6f7420626520656d7074790000006044820152606490fd5b60001981146110b05760010190565b156172d457565b606460405162461bcd60e51b815260206004820152602060248201527f53756263617465676f7279206e616d652063616e6e6f7420626520656d7074796044820152fd5b908210156149095761732f9160051b8101906150a8565b9091565b1561733a57565b60405162461bcd60e51b815260206004820152601760248201527610d85d1959dbdc9e48191bd95cc81b9bdd08195e1a5cdd604a1b6044820152606490fd5b906173916020919493946040845260408401906141fc565b931515910152565b156173a057565b60405162461bcd60e51b815260206004820152601a60248201527914dd5898d85d1959dbdc9e48191bd95cc81b9bdd08195e1a5cdd60321b6044820152606490fd5b60005b8281106173f157505050565b6060828201526020016173e5565b919082039182116110b057565b80518210156149095760209160051b010190565b6040519061742d8261456a565b600060a0838281528260208201528260408201526060808201528260808201520152565b8054821015614909576000526006602060002091020190600090565b9060405161747a8161456a565b60a06005829480548452600180841b036001820154166020850152600281015460408501526040516174b3816103768160038601614857565b606085015260ff600482015416151560808501520154910152565b9081546174da81615586565b926040936174ea855191826145a0565b828152809460208092019260005281600020906000935b85851061751057505050505050565b6001848192845161752581610376818a614857565b815201930194019391617501565b9061753d82615586565b61754a60405191826145a0565b828152809261755b601f1991615586565b019060005b82811061756c57505050565b6020906175776154fa565b82828501015201617560565b8054600160401b811015610d07576175a29060019283820181556148ed565b929092617c495780518355602080820151838501556040820151600285015560608201516003808601919091556080830151600480870180546001600160a01b0319166001600160a01b0393841617905560a08086015160058901805460c08901516001600160a81b0319909116929095169190911793151590911b60ff60a01b169290921790915560e0909301518051805191966001600160401b039593949193926006820190878111617c345761765f816129c4845461481d565b8084601f97888311600114617bd257600092617bc7575b505060001982891b1c191690891b1790555b60078101828901518051908882116179915781906176aa82615761865461481d565b8590888311600114617b6557600092617b5a575b505060001982891b1c191690891b1790555b6008810160408901518051908882116179915781906176f382615761865461481d565b8590888311600114617af857600092617aed575b505060001982891b1c191690891b1790555b60098101606089015180519088821161799157819061773c82615761865461481d565b8590888311600114617a8b57600092617a80575b505060001982891b1c191690891b1790555b600a8101608089015180519088821161799157819061778582615761865461481d565b8590888311600114617a1e57600092617a13575b505060001982891b1c191690891b1790555b600b810160a08901518051908882116179915781906177ce82615761865461481d565b85908883116001146179b1576000926179a6575b505060001982891b1c191690891b1790555b600c810160c08901518051908882116179915761781582610c1d855461481d565b8490878311600114617924579180600d949260e09694600092617919575b5050600019828b1b1c1916908b1b1790555b01970151918251958611617904575061786885617862895461481d565b89615623565b8092851160011461789e5750938394918492600095617893575b50501b92600019911b1c1916179055565b015193503880617882565b92919084601f1981168860005285600020956000905b898383106178ea57505050106178d0575b50505050811b019055565b01519060f884600019921b161c19169055388080806178c5565b8587015189559097019694850194889350908101906178b4565b604190634e487b7160e01b6000525260246000fd5b015190503880617833565b8a9291601f1983169185600052876000209260005b8982821061797b5750509160e09795939185600d98969410617963575b505050811b019055617845565b0151600019838d1b60f8161c19169055388080617956565b8385015186558f97909501949384019301617939565b604186634e487b7160e01b6000525260246000fd5b0151905038806177e2565b908b9350601f1983169185600052876000209260005b898282106179fd57505084116179e5575b505050811b0190556177f4565b0151600019838b1b60f8161c191690553880806179d8565b8385015186558f979095019493840193016179c7565b015190503880617799565b908b9350601f1983169185600052876000209260005b89828210617a6a5750508411617a52575b505050811b0190556177ab565b0151600019838b1b60f8161c19169055388080617a45565b8385015186558f97909501949384019301617a34565b015190503880617750565b908b9350601f1983169185600052876000209260005b89828210617ad75750508411617abf575b505050811b019055617762565b0151600019838b1b60f8161c19169055388080617ab2565b8385015186558f97909501949384019301617aa1565b015190503880617707565b908b9350601f1983169185600052876000209260005b89828210617b445750508411617b2c575b505050811b019055617719565b0151600019838b1b60f8161c19169055388080617b1f565b8385015186558f97909501949384019301617b0e565b0151905038806176be565b908b9350601f1983169185600052876000209260005b89828210617bb15750508411617b99575b505050811b0190556176d0565b0151600019838b1b60f8161c19169055388080617b8c565b8385015186558f97909501949384019301617b7b565b015190503880617676565b908b9350601f1983169185600052876000209260005b89828210617c1e5750508411617c06575b505050811b019055617688565b0151600019838b1b60f8161c19169055388080617bf9565b8385015186558f97909501949384019301617be8565b604185634e487b7160e01b6000525260246000fd5b634e487b7160e01b600052600060045260246000fd5b15617c6657565b60405162461bcd60e51b8152602060048201526016602482015275496e76616c69642073656c6c6572206164647265737360501b6044820152606490fd5b6000338152601a60205260018060a01b0380604083205416908254163314617d27578015617cfa578152601460205260ff60408220541690600482101561505d57506002617cf29114614faa565b61505b617d2d565b50338152601460205260ff60408220541690600482101561505d57506002617d229114614faa565b617cf2565b505061505b5b6000338152601360205260408120548015617dd057600b548082029082820403617dbc5790617d88617d666064617d8e940480936173ff565b33855260136020526040852085905584549092906001600160a01b0316617e0e565b33617e0e565b6040519081527f8ad64a0ac7700dd8425ab0499f107cb6e2cd1581d803c5b8c1c79dcb8190b1af60203392a2565b634e487b7160e01b83526011600452602483fd5b60405162461bcd60e51b81526020600482015260166024820152754e6f2062616c616e636520746f20776974686472617760501b6044820152606490fd5b6001600160a01b03168015617e6d57600080809381935af1617e2e614e7b565b5015617e3657565b60405162461bcd60e51b815260206004820152600f60248201526e151c985b9cd9995c8819985a5b1959608a1b6044820152606490fd5b60405162461bcd60e51b815260206004820152600f60248201526e496e76616c6964206164647265737360881b6044820152606490fd5b9190600092338452601a60205260018060a01b0380604086205416908554163314617f2a578015617efe578452601460205260ff60408520541693600485101561505d5750617ef9600261505b949514614faa565b617f32565b50338452601460205260ff60408520541693600485101561505d5750617ef9600261505b949514614faa565b5061505b9293505b600091825b60018060a01b0380831680600052601560208181526040928360002080548710156181e157617f67878a926148ed565b505414617f81575050505050617f7c906172be565b617f37565b809192939496979850600052828252617f9d85856000206148ed565b509560ff60058098015460a01c1661819f57816000528383528087617fc588886000206148ed565b500154163314908115618191575b501561813a5790617fed94939291600052526000206148ed565b5001805460ff60a01b1916600160a01b17905560015b1561810057816000526020916011835260018060a01b039260019384936040828682600020015416866000905b618052575b5050600080516020618210833981519152949550519586521693a3565b8160005260168087528360002080548310156180f957618073838a926148ed565b505414806180d4575b618090575061808a906172be565b87618030565b600080516020618210833981519152979850906180b8916005936000528752836000206148ed565b5001805460ff60a01b1916600160a01b17905586959438618035565b50826000528087528560046180ec84876000206148ed565b500154168686161461807c565b5050618035565b60405162461bcd60e51b8152602060048201526012602482015271141d5c98da185cd9481b9bdd08199bdd5b9960721b6044820152606490fd5b835162461bcd60e51b815260048101839052602a60248201527f4f6e6c792073656c6c6572206f72206f776e65722063616e206d61726b2061736044820152690819195b1a5d995c995960b21b6064820152608490fd5b600054163314905038617fd3565b845162461bcd60e51b815260048101849052601b60248201527a105b1c9958591e481b585c9ad95908185cc819195b1a5d995c9959602a1b6044820152606490fd5b50505050505050909161800356fe32b449308c94e824ccedd9877932cd82f89a481c06c4643a0cb2914454a8c582f9dc8543b583e01f592678422369b2777e3649761f5808ae432cb1c24ca9438c79d3150b1760cd391f5006c9543aea088e4c9060f3e582ea0a948dc6649b25da8be0079c531659141344cd1fd0a4f28419497f9722a3daafe3b4186f6b6457e0ddf252ad1be2c89b69c2b068fc378daa952ba7f163c4a11628f55a4df523b3ef5a8a989e12f3ce7cf805b73156a361da5d8369f0c37173209308910b322117ac4cfca6396923c3eee68be58aa35fd6623ae5d67bb552da5e1de2e0d5854166dca164736f6c6343000813000a",
  "linkReferences": {},
  "deployedLinkReferences": {}
}