{
  "_format": "hh-sol-artifact-1",
  "contractName": "HemShop",
  "sourceName": "contracts/HemShop.sol",
  "abi": [
    {
      "inputs": [
        {
          "internalType": "uint256",
          "name": "_pct",
          "type": "uint256"
        }
      ],
      "stateMutability": "nonpayable",
      "type": "constructor"
    },
    {
      "anonymous": false,
      "inputs": [
        {
          "indexed": false,
          "internalType": "address",
          "name": "admin",
          "type": "address"
        },
        {
          "indexed": false,
          "internalType": "address",
          "name": "impersonatedAccount",
          "type": "address"
        }
      ],
      "name": "AdminImpersonationChanged",
      "type": "event"
    },
    {
      "anonymous": false,
      "inputs": [
        {
          "indexed": true,
          "internalType": "address",
          "name": "owner",
          "type": "address"
        },
        {
          "indexed": true,
          "internalType": "address",
          "name": "approved",
          "type": "address"
        },
        {
          "indexed": true,
          "internalType": "uint256",
          "name": "tokenId",
          "type": "uint256"
        }
      ],
      "name": "Approval",
      "type": "event"
    },
    {
      "anonymous": false,
      "inputs": [
        {
          "indexed": true,
          "internalType": "address",
          "name": "owner",
          "type": "address"
        },
        {
          "indexed": true,
          "internalType": "address",
          "name": "operator",
          "type": "address"
        },
        {
          "indexed": false,
          "internalType": "bool",
          "name": "approved",
          "type": "bool"
        }
      ],
      "name": "ApprovalForAll",
      "type": "event"
    },
    {
      "anonymous": false,
      "inputs": [
        {
          "indexed": true,
          "internalType": "address",
          "name": "seller",
          "type": "address"
        },
        {
          "indexed": false,
          "internalType": "uint256",
          "name": "newBalance",
          "type": "uint256"
        }
      ],
      "name": "BalanceUpdated",
      "type": "event"
    },
    {
      "anonymous": false,
      "inputs": [
        {
          "indexed": true,
          "internalType": "uint256",
          "name": "productId",
          "type": "uint256"
        },
        {
          "indexed": true,
          "internalType": "address",
          "name": "buyer",
          "type": "address"
        },
        {
          "indexed": false,
          "internalType": "bool",
          "name": "isDelivered",
          "type": "bool"
        }
      ],
      "name": "DeliveryStatusUpdated",
      "type": "event"
    },
    {
      "anonymous": false,
      "inputs": [
        {
          "indexed": true,
          "internalType": "address",
          "name": "previousOwner",
          "type": "address"
        },
        {
          "indexed": true,
          "internalType": "address",
          "name": "newOwner",
          "type": "address"
        }
      ],
      "name": "OwnershipTransferred",
      "type": "event"
    },
    {
      "anonymous": false,
      "inputs": [
        {
          "indexed": true,
          "internalType": "uint256",
          "name": "productId",
          "type": "uint256"
        },
        {
          "indexed": true,
          "internalType": "address",
          "name": "buyer",
          "type": "address"
        },
        {
          "indexed": true,
          "internalType": "address",
          "name": "seller",
          "type": "address"
        },
        {
          "indexed": false,
          "internalType": "uint256",
          "name": "price",
          "type": "uint256"
        },
        {
          "indexed": false,
          "internalType": "uint256",
          "name": "timestamp",
          "type": "uint256"
        }
      ],
      "name": "ProductPurchased",
      "type": "event"
    },
    {
      "anonymous": false,
      "inputs": [
        {
          "indexed": true,
          "internalType": "uint256",
          "name": "productId",
          "type": "uint256"
        },
        {
          "indexed": true,
          "internalType": "address",
          "name": "buyer",
          "type": "address"
        },
        {
          "indexed": true,
          "internalType": "address",
          "name": "seller",
          "type": "address"
        },
        {
          "indexed": false,
          "internalType": "uint256",
          "name": "totalAmount",
          "type": "uint256"
        },
        {
          "indexed": false,
          "internalType": "uint256",
          "name": "basePrice",
          "type": "uint256"
        },
        {
          "indexed": false,
          "internalType": "uint256",
          "name": "timestamp",
          "type": "uint256"
        }
      ],
      "name": "PurchaseRecorded",
      "type": "event"
    },
    {
      "anonymous": false,
      "inputs": [
        {
          "indexed": true,
          "internalType": "address",
          "name": "seller",
          "type": "address"
        },
        {
          "indexed": false,
          "internalType": "uint256",
          "name": "timestamp",
          "type": "uint256"
        }
      ],
      "name": "SellerRegistered",
      "type": "event"
    },
    {
      "anonymous": false,
      "inputs": [
        {
          "indexed": true,
          "internalType": "address",
          "name": "seller",
          "type": "address"
        },
        {
          "indexed": false,
          "internalType": "enum HemShop.SellerStatus",
          "name": "status",
          "type": "uint8"
        }
      ],
      "name": "SellerStatusUpdated",
      "type": "event"
    },
    {
      "anonymous": false,
      "inputs": [
        {
          "indexed": true,
          "internalType": "address",
          "name": "from",
          "type": "address"
        },
        {
          "indexed": true,
          "internalType": "address",
          "name": "to",
          "type": "address"
        },
        {
          "indexed": true,
          "internalType": "uint256",
          "name": "tokenId",
          "type": "uint256"
        }
      ],
      "name": "Transfer",
      "type": "event"
    },
    {
      "inputs": [
        {
          "internalType": "address",
          "name": "",
          "type": "address"
        }
      ],
      "name": "adminImpersonating",
      "outputs": [
        {
          "internalType": "address",
          "name": "",
          "type": "address"
        }
      ],
      "stateMutability": "view",
      "type": "function"
    },
    {
      "inputs": [
        {
          "internalType": "address",
          "name": "to",
          "type": "address"
        },
        {
          "internalType": "uint256",
          "name": "tokenId",
          "type": "uint256"
        }
      ],
      "name": "approve",
      "outputs": [],
      "stateMutability": "nonpayable",
      "type": "function"
    },
    {
      "inputs": [
        {
          "internalType": "address",
          "name": "owner",
          "type": "address"
        }
      ],
      "name": "balanceOf",
      "outputs": [
        {
          "internalType": "uint256",
          "name": "",
          "type": "uint256"
        }
      ],
      "stateMutability": "view",
      "type": "function"
    },
    {
      "inputs": [
        {
          "internalType": "uint256",
          "name": "productId",
          "type": "uint256"
        },
        {
          "components": [
            {
              "internalType": "string",
              "name": "fullName",
              "type": "string"
            },
            {
              "internalType": "string",
              "name": "streetAddress",
              "type": "string"
            },
            {
              "internalType": "string",
              "name": "city",
              "type": "string"
            },
            {
              "internalType": "string",
              "name": "state",
              "type": "string"
            },
            {
              "internalType": "string",
              "name": "country",
              "type": "string"
            },
            {
              "internalType": "string",
              "name": "postalCode",
              "type": "string"
            },
            {
              "internalType": "string",
              "name": "phone",
              "type": "string"
            },
            {
              "internalType": "string",
              "name": "email",
              "type": "string"
            }
          ],
          "internalType": "struct HemShop.ShippingDetails",
          "name": "shippingDetails",
          "type": "tuple"
        }
      ],
      "name": "buyProduct",
      "outputs": [],
      "stateMutability": "payable",
      "type": "function"
    },
    {
      "inputs": [
        {
          "internalType": "address",
          "name": "",
          "type": "address"
        },
        {
          "internalType": "uint256",
          "name": "",
          "type": "uint256"
        }
      ],
      "name": "buyerPurchaseHistory",
      "outputs": [
        {
          "internalType": "uint256",
          "name": "productId",
          "type": "uint256"
        },
        {
          "internalType": "uint256",
          "name": "totalAmount",
          "type": "uint256"
        },
        {
          "internalType": "uint256",
          "name": "basePrice",
          "type": "uint256"
        },
        {
          "internalType": "uint256",
          "name": "timestamp",
          "type": "uint256"
        },
        {
          "internalType": "address",
          "name": "buyer",
          "type": "address"
        },
        {
          "internalType": "address",
          "name": "seller",
          "type": "address"
        },
        {
          "internalType": "bool",
          "name": "isDelivered",
          "type": "bool"
        },
        {
          "components": [
            {
              "internalType": "string",
              "name": "fullName",
              "type": "string"
            },
            {
              "internalType": "string",
              "name": "streetAddress",
              "type": "string"
            },
            {
              "internalType": "string",
              "name": "city",
              "type": "string"
            },
            {
              "internalType": "string",
              "name": "state",
              "type": "string"
            },
            {
              "internalType": "string",
              "name": "country",
              "type": "string"
            },
            {
              "internalType": "string",
              "name": "postalCode",
              "type": "string"
            },
            {
              "internalType": "string",
              "name": "phone",
              "type": "string"
            },
            {
              "internalType": "string",
              "name": "email",
              "type": "string"
            }
          ],
          "internalType": "struct HemShop.ShippingDetails",
          "name": "shippingDetails",
          "type": "tuple"
        }
      ],
      "stateMutability": "view",
      "type": "function"
    },
    {
      "inputs": [
        {
          "components": [
            {
              "internalType": "string",
              "name": "name",
              "type": "string"
            },
            {
              "internalType": "string",
              "name": "description",
              "type": "string"
            },
            {
              "internalType": "uint256",
              "name": "price",
              "type": "uint256"
            },
            {
              "internalType": "uint256",
              "name": "stock",
              "type": "uint256"
            },
            {
              "internalType": "string",
              "name": "color",
              "type": "string"
            },
            {
              "internalType": "string",
              "name": "size",
              "type": "string"
            },
            {
              "internalType": "string[]",
              "name": "images",
              "type": "string[]"
            },
            {
              "internalType": "string",
              "name": "category",
              "type": "string"
            },
            {
              "internalType": "string",
              "name": "subCategory",
              "type": "string"
            },
            {
              "internalType": "string",
              "name": "model",
              "type": "string"
            },
            {
              "internalType": "string",
              "name": "brand",
              "type": "string"
            },
            {
              "internalType": "uint256",
              "name": "weight",
              "type": "uint256"
            },
            {
              "internalType": "uint256",
              "name": "sku",
              "type": "uint256"
            }
          ],
          "internalType": "struct HemShop.ProductInput",
          "name": "input",
          "type": "tuple"
        }
      ],
      "name": "createProduct",
      "outputs": [],
      "stateMutability": "nonpayable",
      "type": "function"
    },
    {
      "inputs": [
        {
          "internalType": "uint256",
          "name": "productId",
          "type": "uint256"
        },
        {
          "internalType": "uint256",
          "name": "rating",
          "type": "uint256"
        },
        {
          "internalType": "string",
          "name": "comment",
          "type": "string"
        }
      ],
      "name": "createReview",
      "outputs": [],
      "stateMutability": "nonpayable",
      "type": "function"
    },
    {
      "inputs": [
        {
          "internalType": "uint256",
          "name": "productId",
          "type": "uint256"
        }
      ],
      "name": "deleteProduct",
      "outputs": [],
      "stateMutability": "nonpayable",
      "type": "function"
    },
    {
      "inputs": [
        {
          "internalType": "uint256",
          "name": "productId",
          "type": "uint256"
        },
        {
          "internalType": "uint256",
          "name": "reviewId",
          "type": "uint256"
        }
      ],
      "name": "deleteReview",
      "outputs": [],
      "stateMutability": "nonpayable",
      "type": "function"
    },
    {
      "inputs": [],
      "name": "getAllProducts",
      "outputs": [
        {
          "components": [
            {
              "internalType": "uint256",
              "name": "id",
              "type": "uint256"
            },
            {
              "internalType": "address",
              "name": "seller",
              "type": "address"
            },
            {
              "internalType": "string",
              "name": "name",
              "type": "string"
            },
            {
              "internalType": "string",
              "name": "description",
              "type": "string"
            },
            {
              "internalType": "uint256",
              "name": "price",
              "type": "uint256"
            },
            {
              "internalType": "uint256",
              "name": "stock",
              "type": "uint256"
            },
            {
              "internalType": "string",
              "name": "color",
              "type": "string"
            },
            {
              "internalType": "string",
              "name": "size",
              "type": "string"
            },
            {
              "internalType": "string[]",
              "name": "images",
              "type": "string[]"
            },
            {
              "internalType": "string",
              "name": "category",
              "type": "string"
            },
            {
              "internalType": "string",
              "name": "subCategory",
              "type": "string"
            },
            {
              "internalType": "uint256",
              "name": "weight",
              "type": "uint256"
            },
            {
              "internalType": "string",
              "name": "model",
              "type": "string"
            },
            {
              "internalType": "string",
              "name": "brand",
              "type": "string"
            },
            {
              "internalType": "uint256",
              "name": "sku",
              "type": "uint256"
            },
            {
              "internalType": "bool",
              "name": "soldout",
              "type": "bool"
            },
            {
              "internalType": "bool",
              "name": "wishlist",
              "type": "bool"
            },
            {
              "internalType": "bool",
              "name": "deleted",
              "type": "bool"
            },
            {
              "components": [
                {
                  "internalType": "uint256",
                  "name": "reviewId",
                  "type": "uint256"
                },
                {
                  "internalType": "address",
                  "name": "reviewer",
                  "type": "address"
                },
                {
                  "internalType": "uint256",
                  "name": "rating",
                  "type": "uint256"
                },
                {
                  "internalType": "string",
                  "name": "comment",
                  "type": "string"
                },
                {
                  "internalType": "bool",
                  "name": "deleted",
                  "type": "bool"
                }
              ],
              "internalType": "struct HemShop.ReviewStruct[]",
              "name": "reviews",
              "type": "tuple[]"
            }
          ],
          "internalType": "struct HemShop.ProductStruct[]",
          "name": "",
          "type": "tuple[]"
        }
      ],
      "stateMutability": "view",
      "type": "function"
    },
    {
      "inputs": [
        {
          "internalType": "uint256",
          "name": "tokenId",
          "type": "uint256"
        }
      ],
      "name": "getApproved",
      "outputs": [
        {
          "internalType": "address",
          "name": "",
          "type": "address"
        }
      ],
      "stateMutability": "view",
      "type": "function"
    },
    {
      "inputs": [
        {
          "internalType": "address",
          "name": "buyer",
          "type": "address"
        }
      ],
      "name": "getBuyerPurchaseHistory",
      "outputs": [
        {
          "components": [
            {
              "internalType": "uint256",
              "name": "productId",
              "type": "uint256"
            },
            {
              "internalType": "uint256",
              "name": "totalAmount",
              "type": "uint256"
            },
            {
              "internalType": "uint256",
              "name": "basePrice",
              "type": "uint256"
            },
            {
              "internalType": "uint256",
              "name": "timestamp",
              "type": "uint256"
            },
            {
              "internalType": "address",
              "name": "buyer",
              "type": "address"
            },
            {
              "internalType": "address",
              "name": "seller",
              "type": "address"
            },
            {
              "internalType": "bool",
              "name": "isDelivered",
              "type": "bool"
            },
            {
              "components": [
                {
                  "internalType": "string",
                  "name": "fullName",
                  "type": "string"
                },
                {
                  "internalType": "string",
                  "name": "streetAddress",
                  "type": "string"
                },
                {
                  "internalType": "string",
                  "name": "city",
                  "type": "string"
                },
                {
                  "internalType": "string",
                  "name": "state",
                  "type": "string"
                },
                {
                  "internalType": "string",
                  "name": "country",
                  "type": "string"
                },
                {
                  "internalType": "string",
                  "name": "postalCode",
                  "type": "string"
                },
                {
                  "internalType": "string",
                  "name": "phone",
                  "type": "string"
                },
                {
                  "internalType": "string",
                  "name": "email",
                  "type": "string"
                }
              ],
              "internalType": "struct HemShop.ShippingDetails",
              "name": "shippingDetails",
              "type": "tuple"
            }
          ],
          "internalType": "struct HemShop.PurchaseHistoryStruct[]",
          "name": "",
          "type": "tuple[]"
        }
      ],
      "stateMutability": "view",
      "type": "function"
    },
    {
      "inputs": [],
      "name": "getMyProducts",
      "outputs": [
        {
          "components": [
            {
              "internalType": "uint256",
              "name": "id",
              "type": "uint256"
            },
            {
              "internalType": "address",
              "name": "seller",
              "type": "address"
            },
            {
              "internalType": "string",
              "name": "name",
              "type": "string"
            },
            {
              "internalType": "string",
              "name": "description",
              "type": "string"
            },
            {
              "internalType": "uint256",
              "name": "price",
              "type": "uint256"
            },
            {
              "internalType": "uint256",
              "name": "stock",
              "type": "uint256"
            },
            {
              "internalType": "string",
              "name": "color",
              "type": "string"
            },
            {
              "internalType": "string",
              "name": "size",
              "type": "string"
            },
            {
              "internalType": "string[]",
              "name": "images",
              "type": "string[]"
            },
            {
              "internalType": "string",
              "name": "category",
              "type": "string"
            },
            {
              "internalType": "string",
              "name": "subCategory",
              "type": "string"
            },
            {
              "internalType": "uint256",
              "name": "weight",
              "type": "uint256"
            },
            {
              "internalType": "string",
              "name": "model",
              "type": "string"
            },
            {
              "internalType": "string",
              "name": "brand",
              "type": "string"
            },
            {
              "internalType": "uint256",
              "name": "sku",
              "type": "uint256"
            },
            {
              "internalType": "bool",
              "name": "soldout",
              "type": "bool"
            },
            {
              "internalType": "bool",
              "name": "wishlist",
              "type": "bool"
            },
            {
              "internalType": "bool",
              "name": "deleted",
              "type": "bool"
            },
            {
              "components": [
                {
                  "internalType": "uint256",
                  "name": "reviewId",
                  "type": "uint256"
                },
                {
                  "internalType": "address",
                  "name": "reviewer",
                  "type": "address"
                },
                {
                  "internalType": "uint256",
                  "name": "rating",
                  "type": "uint256"
                },
                {
                  "internalType": "string",
                  "name": "comment",
                  "type": "string"
                },
                {
                  "internalType": "bool",
                  "name": "deleted",
                  "type": "bool"
                }
              ],
              "internalType": "struct HemShop.ReviewStruct[]",
              "name": "reviews",
              "type": "tuple[]"
            }
          ],
          "internalType": "struct HemShop.ProductStruct[]",
          "name": "",
          "type": "tuple[]"
        }
      ],
      "stateMutability": "view",
      "type": "function"
    },
    {
      "inputs": [
        {
          "internalType": "uint256",
          "name": "productId",
          "type": "uint256"
        }
      ],
      "name": "getProduct",
      "outputs": [
        {
          "components": [
            {
              "internalType": "uint256",
              "name": "id",
              "type": "uint256"
            },
            {
              "internalType": "address",
              "name": "seller",
              "type": "address"
            },
            {
              "internalType": "string",
              "name": "name",
              "type": "string"
            },
            {
              "internalType": "string",
              "name": "description",
              "type": "string"
            },
            {
              "internalType": "uint256",
              "name": "price",
              "type": "uint256"
            },
            {
              "internalType": "uint256",
              "name": "stock",
              "type": "uint256"
            },
            {
              "internalType": "string",
              "name": "color",
              "type": "string"
            },
            {
              "internalType": "string",
              "name": "size",
              "type": "string"
            },
            {
              "internalType": "string[]",
              "name": "images",
              "type": "string[]"
            },
            {
              "internalType": "string",
              "name": "category",
              "type": "string"
            },
            {
              "internalType": "string",
              "name": "subCategory",
              "type": "string"
            },
            {
              "internalType": "uint256",
              "name": "weight",
              "type": "uint256"
            },
            {
              "internalType": "string",
              "name": "model",
              "type": "string"
            },
            {
              "internalType": "string",
              "name": "brand",
              "type": "string"
            },
            {
              "internalType": "uint256",
              "name": "sku",
              "type": "uint256"
            },
            {
              "internalType": "bool",
              "name": "soldout",
              "type": "bool"
            },
            {
              "internalType": "bool",
              "name": "wishlist",
              "type": "bool"
            },
            {
              "internalType": "bool",
              "name": "deleted",
              "type": "bool"
            },
            {
              "components": [
                {
                  "internalType": "uint256",
                  "name": "reviewId",
                  "type": "uint256"
                },
                {
                  "internalType": "address",
                  "name": "reviewer",
                  "type": "address"
                },
                {
                  "internalType": "uint256",
                  "name": "rating",
                  "type": "uint256"
                },
                {
                  "internalType": "string",
                  "name": "comment",
                  "type": "string"
                },
                {
                  "internalType": "bool",
                  "name": "deleted",
                  "type": "bool"
                }
              ],
              "internalType": "struct HemShop.ReviewStruct[]",
              "name": "reviews",
              "type": "tuple[]"
            }
          ],
          "internalType": "struct HemShop.ProductStruct",
          "name": "",
          "type": "tuple"
        }
      ],
      "stateMutability": "view",
      "type": "function"
    },
    {
      "inputs": [
        {
          "internalType": "uint256",
          "name": "productId",
          "type": "uint256"
        }
      ],
      "name": "getReviews",
      "outputs": [
        {
          "components": [
            {
              "internalType": "uint256",
              "name": "reviewId",
              "type": "uint256"
            },
            {
              "internalType": "address",
              "name": "reviewer",
              "type": "address"
            },
            {
              "internalType": "uint256",
              "name": "rating",
              "type": "uint256"
            },
            {
              "internalType": "string",
              "name": "comment",
              "type": "string"
            },
            {
              "internalType": "bool",
              "name": "deleted",
              "type": "bool"
            }
          ],
          "internalType": "struct HemShop.ReviewStruct[]",
          "name": "",
          "type": "tuple[]"
        }
      ],
      "stateMutability": "view",
      "type": "function"
    },
    {
      "inputs": [
        {
          "internalType": "address",
          "name": "seller",
          "type": "address"
        }
      ],
      "name": "getSellerBalance",
      "outputs": [
        {
          "internalType": "uint256",
          "name": "",
          "type": "uint256"
        }
      ],
      "stateMutability": "view",
      "type": "function"
    },
    {
      "inputs": [
        {
          "internalType": "address",
          "name": "seller",
          "type": "address"
        }
      ],
      "name": "getSellerPurchaseHistory",
      "outputs": [
        {
          "components": [
            {
              "internalType": "uint256",
              "name": "productId",
              "type": "uint256"
            },
            {
              "internalType": "uint256",
              "name": "totalAmount",
              "type": "uint256"
            },
            {
              "internalType": "uint256",
              "name": "basePrice",
              "type": "uint256"
            },
            {
              "internalType": "uint256",
              "name": "timestamp",
              "type": "uint256"
            },
            {
              "internalType": "address",
              "name": "buyer",
              "type": "address"
            },
            {
              "internalType": "address",
              "name": "seller",
              "type": "address"
            },
            {
              "internalType": "bool",
              "name": "isDelivered",
              "type": "bool"
            },
            {
              "components": [
                {
                  "internalType": "string",
                  "name": "fullName",
                  "type": "string"
                },
                {
                  "internalType": "string",
                  "name": "streetAddress",
                  "type": "string"
                },
                {
                  "internalType": "string",
                  "name": "city",
                  "type": "string"
                },
                {
                  "internalType": "string",
                  "name": "state",
                  "type": "string"
                },
                {
                  "internalType": "string",
                  "name": "country",
                  "type": "string"
                },
                {
                  "internalType": "string",
                  "name": "postalCode",
                  "type": "string"
                },
                {
                  "internalType": "string",
                  "name": "phone",
                  "type": "string"
                },
                {
                  "internalType": "string",
                  "name": "email",
                  "type": "string"
                }
              ],
              "internalType": "struct HemShop.ShippingDetails",
              "name": "shippingDetails",
              "type": "tuple"
            }
          ],
          "internalType": "struct HemShop.PurchaseHistoryStruct[]",
          "name": "",
          "type": "tuple[]"
        }
      ],
      "stateMutability": "view",
      "type": "function"
    },
    {
      "inputs": [
        {
          "internalType": "address",
          "name": "account",
          "type": "address"
        }
      ],
      "name": "impersonateAccount",
      "outputs": [],
      "stateMutability": "nonpayable",
      "type": "function"
    },
    {
      "inputs": [
        {
          "internalType": "address",
          "name": "owner",
          "type": "address"
        },
        {
          "internalType": "address",
          "name": "operator",
          "type": "address"
        }
      ],
      "name": "isApprovedForAll",
      "outputs": [
        {
          "internalType": "bool",
          "name": "",
          "type": "bool"
        }
      ],
      "stateMutability": "view",
      "type": "function"
    },
    {
      "inputs": [
        {
          "internalType": "uint256",
          "name": "productId",
          "type": "uint256"
        },
        {
          "internalType": "address",
          "name": "buyer",
          "type": "address"
        }
      ],
      "name": "markPurchaseDelivered",
      "outputs": [],
      "stateMutability": "nonpayable",
      "type": "function"
    },
    {
      "inputs": [],
      "name": "name",
      "outputs": [
        {
          "internalType": "string",
          "name": "",
          "type": "string"
        }
      ],
      "stateMutability": "view",
      "type": "function"
    },
    {
      "inputs": [],
      "name": "owner",
      "outputs": [
        {
          "internalType": "address",
          "name": "",
          "type": "address"
        }
      ],
      "stateMutability": "view",
      "type": "function"
    },
    {
      "inputs": [
        {
          "internalType": "uint256",
          "name": "tokenId",
          "type": "uint256"
        }
      ],
      "name": "ownerOf",
      "outputs": [
        {
          "internalType": "address",
          "name": "",
          "type": "address"
        }
      ],
      "stateMutability": "view",
      "type": "function"
    },
    {
      "inputs": [
        {
          "internalType": "uint256",
          "name": "",
          "type": "uint256"
        }
      ],
      "name": "productExists",
      "outputs": [
        {
          "internalType": "bool",
          "name": "",
          "type": "bool"
        }
      ],
      "stateMutability": "view",
      "type": "function"
    },
    {
      "inputs": [
        {
          "internalType": "uint256",
          "name": "",
          "type": "uint256"
        }
      ],
      "name": "products",
      "outputs": [
        {
          "internalType": "uint256",
          "name": "id",
          "type": "uint256"
        },
        {
          "internalType": "address",
          "name": "seller",
          "type": "address"
        },
        {
          "internalType": "string",
          "name": "name",
          "type": "string"
        },
        {
          "internalType": "string",
          "name": "description",
          "type": "string"
        },
        {
          "internalType": "uint256",
          "name": "price",
          "type": "uint256"
        },
        {
          "internalType": "uint256",
          "name": "stock",
          "type": "uint256"
        },
        {
          "internalType": "string",
          "name": "color",
          "type": "string"
        },
        {
          "internalType": "string",
          "name": "size",
          "type": "string"
        },
        {
          "internalType": "string",
          "name": "category",
          "type": "string"
        },
        {
          "internalType": "string",
          "name": "subCategory",
          "type": "string"
        },
        {
          "internalType": "uint256",
          "name": "weight",
          "type": "uint256"
        },
        {
          "internalType": "string",
          "name": "model",
          "type": "string"
        },
        {
          "internalType": "string",
          "name": "brand",
          "type": "string"
        },
        {
          "internalType": "uint256",
          "name": "sku",
          "type": "uint256"
        },
        {
          "internalType": "bool",
          "name": "soldout",
          "type": "bool"
        },
        {
          "internalType": "bool",
          "name": "wishlist",
          "type": "bool"
        },
        {
          "internalType": "bool",
          "name": "deleted",
          "type": "bool"
        }
      ],
      "stateMutability": "view",
      "type": "function"
    },
    {
      "inputs": [],
      "name": "registerSeller",
      "outputs": [],
      "stateMutability": "nonpayable",
      "type": "function"
    },
    {
      "inputs": [
        {
          "internalType": "address",
          "name": "",
          "type": "address"
        }
      ],
      "name": "registeredSellers",
      "outputs": [
        {
          "internalType": "bool",
          "name": "",
          "type": "bool"
        }
      ],
      "stateMutability": "view",
      "type": "function"
    },
    {
      "inputs": [],
      "name": "renounceOwnership",
      "outputs": [],
      "stateMutability": "nonpayable",
      "type": "function"
    },
    {
      "inputs": [
        {
          "internalType": "uint256",
          "name": "",
          "type": "uint256"
        }
      ],
      "name": "reviewExists",
      "outputs": [
        {
          "internalType": "bool",
          "name": "",
          "type": "bool"
        }
      ],
      "stateMutability": "view",
      "type": "function"
    },
    {
      "inputs": [
        {
          "internalType": "address",
          "name": "from",
          "type": "address"
        },
        {
          "internalType": "address",
          "name": "to",
          "type": "address"
        },
        {
          "internalType": "uint256",
          "name": "tokenId",
          "type": "uint256"
        }
      ],
      "name": "safeTransferFrom",
      "outputs": [],
      "stateMutability": "nonpayable",
      "type": "function"
    },
    {
      "inputs": [
        {
          "internalType": "address",
          "name": "from",
          "type": "address"
        },
        {
          "internalType": "address",
          "name": "to",
          "type": "address"
        },
        {
          "internalType": "uint256",
          "name": "tokenId",
          "type": "uint256"
        },
        {
          "internalType": "bytes",
          "name": "data",
          "type": "bytes"
        }
      ],
      "name": "safeTransferFrom",
      "outputs": [],
      "stateMutability": "nonpayable",
      "type": "function"
    },
    {
      "inputs": [
        {
          "internalType": "address",
          "name": "",
          "type": "address"
        }
      ],
      "name": "sellerBalances",
      "outputs": [
        {
          "internalType": "uint256",
          "name": "",
          "type": "uint256"
        }
      ],
      "stateMutability": "view",
      "type": "function"
    },
    {
      "inputs": [
        {
          "internalType": "address",
          "name": "",
          "type": "address"
        },
        {
          "internalType": "uint256",
          "name": "",
          "type": "uint256"
        }
      ],
      "name": "sellerProducts",
      "outputs": [
        {
          "internalType": "uint256",
          "name": "",
          "type": "uint256"
        }
      ],
      "stateMutability": "view",
      "type": "function"
    },
    {
      "inputs": [
        {
          "internalType": "address",
          "name": "",
          "type": "address"
        },
        {
          "internalType": "uint256",
          "name": "",
          "type": "uint256"
        }
      ],
      "name": "sellerPurchaseHistory",
      "outputs": [
        {
          "internalType": "uint256",
          "name": "productId",
          "type": "uint256"
        },
        {
          "internalType": "uint256",
          "name": "totalAmount",
          "type": "uint256"
        },
        {
          "internalType": "uint256",
          "name": "basePrice",
          "type": "uint256"
        },
        {
          "internalType": "uint256",
          "name": "timestamp",
          "type": "uint256"
        },
        {
          "internalType": "address",
          "name": "buyer",
          "type": "address"
        },
        {
          "internalType": "address",
          "name": "seller",
          "type": "address"
        },
        {
          "internalType": "bool",
          "name": "isDelivered",
          "type": "bool"
        },
        {
          "components": [
            {
              "internalType": "string",
              "name": "fullName",
              "type": "string"
            },
            {
              "internalType": "string",
              "name": "streetAddress",
              "type": "string"
            },
            {
              "internalType": "string",
              "name": "city",
              "type": "string"
            },
            {
              "internalType": "string",
              "name": "state",
              "type": "string"
            },
            {
              "internalType": "string",
              "name": "country",
              "type": "string"
            },
            {
              "internalType": "string",
              "name": "postalCode",
              "type": "string"
            },
            {
              "internalType": "string",
              "name": "phone",
              "type": "string"
            },
            {
              "internalType": "string",
              "name": "email",
              "type": "string"
            }
          ],
          "internalType": "struct HemShop.ShippingDetails",
          "name": "shippingDetails",
          "type": "tuple"
        }
      ],
      "stateMutability": "view",
      "type": "function"
    },
    {
      "inputs": [
        {
          "internalType": "address",
          "name": "",
          "type": "address"
        }
      ],
      "name": "sellerStatus",
      "outputs": [
        {
          "internalType": "enum HemShop.SellerStatus",
          "name": "",
          "type": "uint8"
        }
      ],
      "stateMutability": "view",
      "type": "function"
    },
    {
      "inputs": [],
      "name": "servicePct",
      "outputs": [
        {
          "internalType": "uint256",
          "name": "",
          "type": "uint256"
        }
      ],
      "stateMutability": "view",
      "type": "function"
    },
    {
      "inputs": [
        {
          "internalType": "address",
          "name": "operator",
          "type": "address"
        },
        {
          "internalType": "bool",
          "name": "approved",
          "type": "bool"
        }
      ],
      "name": "setApprovalForAll",
      "outputs": [],
      "stateMutability": "nonpayable",
      "type": "function"
    },
    {
      "inputs": [],
      "name": "stopImpersonating",
      "outputs": [],
      "stateMutability": "nonpayable",
      "type": "function"
    },
    {
      "inputs": [
        {
          "internalType": "bytes4",
          "name": "interfaceId",
          "type": "bytes4"
        }
      ],
      "name": "supportsInterface",
      "outputs": [
        {
          "internalType": "bool",
          "name": "",
          "type": "bool"
        }
      ],
      "stateMutability": "view",
      "type": "function"
    },
    {
      "inputs": [],
      "name": "symbol",
      "outputs": [
        {
          "internalType": "string",
          "name": "",
          "type": "string"
        }
      ],
      "stateMutability": "view",
      "type": "function"
    },
    {
      "inputs": [
        {
          "internalType": "uint256",
          "name": "tokenId",
          "type": "uint256"
        }
      ],
      "name": "tokenURI",
      "outputs": [
        {
          "internalType": "string",
          "name": "",
          "type": "string"
        }
      ],
      "stateMutability": "view",
      "type": "function"
    },
    {
      "inputs": [
        {
          "internalType": "address",
          "name": "from",
          "type": "address"
        },
        {
          "internalType": "address",
          "name": "to",
          "type": "address"
        },
        {
          "internalType": "uint256",
          "name": "tokenId",
          "type": "uint256"
        }
      ],
      "name": "transferFrom",
      "outputs": [],
      "stateMutability": "nonpayable",
      "type": "function"
    },
    {
      "inputs": [
        {
          "internalType": "address",
          "name": "newOwner",
          "type": "address"
        }
      ],
      "name": "transferOwnership",
      "outputs": [],
      "stateMutability": "nonpayable",
      "type": "function"
    },
    {
      "inputs": [
        {
          "internalType": "uint256",
          "name": "productId",
          "type": "uint256"
        },
        {
          "components": [
            {
              "internalType": "string",
              "name": "name",
              "type": "string"
            },
            {
              "internalType": "string",
              "name": "description",
              "type": "string"
            },
            {
              "internalType": "uint256",
              "name": "price",
              "type": "uint256"
            },
            {
              "internalType": "uint256",
              "name": "stock",
              "type": "uint256"
            },
            {
              "internalType": "string",
              "name": "color",
              "type": "string"
            },
            {
              "internalType": "string",
              "name": "size",
              "type": "string"
            },
            {
              "internalType": "string[]",
              "name": "images",
              "type": "string[]"
            },
            {
              "internalType": "string",
              "name": "category",
              "type": "string"
            },
            {
              "internalType": "string",
              "name": "subCategory",
              "type": "string"
            },
            {
              "internalType": "string",
              "name": "model",
              "type": "string"
            },
            {
              "internalType": "string",
              "name": "brand",
              "type": "string"
            },
            {
              "internalType": "uint256",
              "name": "weight",
              "type": "uint256"
            },
            {
              "internalType": "uint256",
              "name": "sku",
              "type": "uint256"
            }
          ],
          "internalType": "struct HemShop.ProductInput",
          "name": "input",
          "type": "tuple"
        }
      ],
      "name": "updateProduct",
      "outputs": [],
      "stateMutability": "nonpayable",
      "type": "function"
    },
    {
      "inputs": [
        {
          "internalType": "address",
          "name": "seller",
          "type": "address"
        },
        {
          "internalType": "enum HemShop.SellerStatus",
          "name": "status",
          "type": "uint8"
        }
      ],
      "name": "updateSellerStatus",
      "outputs": [],
      "stateMutability": "nonpayable",
      "type": "function"
    },
    {
      "inputs": [],
      "name": "withdraw",
      "outputs": [],
      "stateMutability": "nonpayable",
      "type": "function"
    }
  ],
  "bytecode": "0x6080346200037757601f90601f196001600160401b0362006c173881900385810184168501838111868210176200037c57859282916040528339602094859181010312620003775751936200005362000392565b926007845266048656d53686f760cc1b858501526200007162000392565b60038082526204873760ec1b8783015260008054336001600160a01b031982168117835592989394919392906001600160a01b03167f8be0079c531659141344cd1fd0a4f28419497f9722a3daafe3b4186f6b6457e08580a360019687805580519087821162000363576002548981811c9116801562000358575b858210146200034457908188849311620002f0575b5084908883116001146200028e57869262000282575b5050600019828b1b1c191690881b176002555b83519586116200026e5787548781811c9116801562000263575b838210146200024f5785811162000207575b5081948611600114620001a25750509183949184939462000196575b50501b9160001990841b1c19161790555b600b556040516168649081620003b38239f35b01519250388062000172565b8783528183209493928692918316915b88838310620001ec5750505010620001d3575b505050811b01905562000183565b015160001983861b60f8161c19169055388080620001c5565b858701518855909601959485019487935090810190620001b2565b8884528284208680890160051c820192858a1062000245575b0160051c019088905b8281106200023957505062000156565b85815501889062000229565b9250819262000220565b634e487b7160e01b84526022600452602484fd5b90607f169062000144565b634e487b7160e01b83526041600452602483fd5b01519050388062000117565b90848b9416916002885286882092885b88828210620002d95750508411620002c0575b505050811b016002556200012a565b0151600019838d1b60f8161c19169055388080620002b1565b8385015186558e979095019493840193016200029e565b909150600286528486208880850160051c8201928786106200033a575b918c91869594930160051c01915b8281106200032b57505062000101565b8881558594508c91016200031b565b925081926200030d565b634e487b7160e01b86526022600452602486fd5b90607f1690620000ec565b634e487b7160e01b85526041600452602485fd5b600080fd5b634e487b7160e01b600052604160045260246000fd5b60408051919082016001600160401b038111838210176200037c5760405256fe608080604052600436101561001357600080fd5b60003560e01c908162d64e7614614a2d5750806301ffc9a7146149bf57806302ee3a521461472657806306fdde0314614681578063081812fc14614663578063095ea7b3146144e957806311aa5b34146141835780631385fd921461412f57806316d81b3814613f525780632148893f1461393657806323b872dd14613f2957806324d41a0314613d045780633c2575d514613c1f5780633ccfd60b14613a9757806342842e0e14613a6f57806345de84db14613a2d57806352c9224c14613970578063607eb4e4146139365780636352211e14613906578063661e1712146130b957806370a0823114613022578063715018a614612fdb5780637acc0b2014612e435780638da5cb5b14612e1a57806395d89b4114612d3857806397b6f39314612b3c5780639d4a2255146129a95780639fa44dbf14612961578063a22cb46514612896578063a22fb387146127eb578063af55ed64146127ba578063b119105214611c3a578063b235b4a914610d3e578063b27e169714610c59578063b88d4fde14610bf8578063b95a062814610bbd578063b9db15b414610987578063c1302b341461092f578063c64b8a8f146108f0578063c87b56dd14610896578063e01ef6e614610878578063e585cb2c146107e8578063e985e9c514610792578063ed90c7b7146105b0578063f2fde38b146105015763fdca4ca31461021857600080fd5b346104fc5760003660031901126104fc5760088054600060015b8281111561049b575061024490616002565b9060009260015b8281111561026557604051806102618682614cd1565b0390f35b6000818152600c6020818152604090922060018101546001600160a01b031692919033841480610489575b6102a7575b505050506102a290615f8f565b61024b565b604098949851936102b785614d5f565b81548552838501526102cb60028201615045565b60408501526102dc60038201615045565b6060850152600481015460808501526005918282015460a086015261030360068301615045565b60c086015261031460078301615045565b60e0860152868201805461032781615c4e565b916103356040519384614dcd565b818352600090815286812090878085015b84831061046b5750505050506101008601526103929061036860098401615045565b61012087015261037a600a8401615045565b610140870152600b8301546101608701528201615045565b6101808501526103a4600d8201615045565b6101a0850152600e8101546101c0850152600f81015460ff80821615156101e087015281881c81161515610200870152601091821c16151561022086015201805491906103f083615c4e565b936103fe6040519586614dcd565b8385526000918252808220918186015b85821061044f5750505050505091816102a2936102406104459401526104348288615f9e565b5261043f8187615f9e565b50615f8f565b9490388080610295565b848360019261045d87615fb2565b81520194019101909261040e565b600191829161047986615045565b8152019301910190918890610346565b5060ff600f82015460101c1615610290565b6000818152600c6020526040902060018101546001600160a01b0316331490816104e9575b506104d4575b6104cf90615f8f565b610232565b906104e16104cf91615f8f565b9190506104c6565b60ff9150600f015460101c1615386104c0565b600080fd5b346104fc5760203660031901126104fc5761051a614d33565b610522615211565b6001600160a01b0390811690811561055c576000548260018060a01b031982161760005516600080516020616818833981519152600080a3005b60405162461bcd60e51b815260206004820152602660248201527f4f776e61626c653a206e6577206f776e657220697320746865207a65726f206160448201526564647265737360d01b6064820152608490fd5b346104fc576020806003193601126104fc5733600090815260158252604090205460043591906001600160a01b0390811680156107565780600052600f835260ff604060002054169060048210156107405760026106179214908115610732575b50615718565b826000526013825261063060ff60406000205416615ec2565b82600052600c825233816001604060002001541614908115610724575b50156106d05781600052600c815260ff600f6040600020015460101c1661068f576000918252600c905260409020600f01805462ff0000191662010000179055005b6064906040519062461bcd60e51b82526004820152601a602482015279141c9bd91d58dd081a5cc8185b1c9958591e4819195b195d195960321b6044820152fd5b6084906040519062461bcd60e51b82526004820152602760248201527f4f6e6c792070726f647563742073656c6c6572206f72206f776e65722063616e6044820152662064656c65746560c81b6064820152fd5b60005416331490508361064d565b905082600054161485610611565b634e487b7160e01b600052602160045260246000fd5b50600f825260ff604060002054166004811015610740576002148015610785575b61078090615718565b610617565b5060005481163314610777565b346104fc5760403660031901126104fc576107ab614d33565b6107b3614d49565b9060018060a01b03809116600052600760205260406000209116600052602052602060ff604060002054166040519015158152f35b346104fc5760403660031901126104fc57610801614d33565b6001600160a01b0390811660009081526011602052604090208054602435908110156104fc57610830916150eb565b509061026182546001840154936002810154916003820154856004840154169061086160066005860154950161511d565b9460405198899860ff8760a01c16961694896151af565b346104fc5760003660031901126104fc576020600b54604051908152f35b346104fc5760203660031901126104fc576108ba6108b56004356155cc565b615269565b60006040516108c881614db2565b526102616040516108d881614db2565b60008152604051918291602083526020830190614a5a565b346104fc5760203660031901126104fc576001600160a01b03610911614d33565b166000526012602052602060ff604060002054166040519015158152f35b346104fc5760403660031901126104fc57610948614d33565b6001600160a01b03166000908152600d60205260409020805460243591908210156104fc57602091610979916151f9565b90546040519160031b1c8152f35b346104fc576020806003193601126104fc576004356109a4615bc2565b5080600052600c82526109c560ff600f6040600020015460101c1615615f07565b80600052601382526109de60ff60406000205416615ec2565b600052600c8152604060002090604051916109f883614d5f565b805483526001808201546001600160a01b031683850152610a1b60028301615045565b6040850152610a2c60038301615045565b6060850152600482015460808501526005918281015460a0860152610a5360068201615045565b60c0860152610a6460078201615045565b60e0860152600881018054610a7881615c4e565b91610a866040519384614dcd565b818352600090815286812085888086015b858510610ba05750888b9260108989610100870152610ab860098201615045565b610120870152610aca600a8201615045565b610140870152600b810154610160870152610ae7600c8201615045565b610180870152610af9600d8201615045565b6101a0870152600e8101546101c087015260ff600f82015481811615156101e0890152818160081c161515610200890152831c1615156102208701520191825490610b4382615c4e565b93610b516040519586614dcd565b8285526000908152858120868087015b858410610b83576102408a01889052604051828152806102618185018d614b31565b86918591610b9085615fb2565b8152019201920191908790610b61565b908291610bac85615045565b815201920192019190888791610a97565b346104fc5760203660031901126104fc5760206001600160a01b0380610be1614d33565b166000526015825260406000205416604051908152f35b346104fc5760803660031901126104fc57610c11614d33565b610c19614d49565b606435916001600160401b0383116104fc57366023840112156104fc57610c4d610c57933690602481600401359101614e0b565b916044359161535c565b005b346104fc576020806003193601126104fc576001600160a01b039081610c7d614d33565b16600052601081526040600020805490610c9682615c4e565b92610ca46040519485614dcd565b82845260009182528082208185015b848410610cc857604051806102618882614f3a565b600e83600192604051610cda81614d7b565b85548152848601548382015260028601546040820152600386015460608201528a600487015416608082015260ff600587015460a08d8216818501521c16151560c0820152610d2b6006870161511d565b60e0820152815201920193019290610cb3565b346104fc576003196020368201126104fc576001600160401b03600435116104fc576101a090600435360301126104fc57336000908152601560205260409020546001600160a01b03168015611bf65780600052600f60205260ff60406000205416906004821015610740576002610dbe9214908115611be15750615718565b610dd8610dcf600480350180615772565b905015156157a4565b6024610df9610df08260043501600435600401615772565b905015156157e7565b610e0a604460043501351515615831565b610e1b60646004350135151561587c565b610e3b610e32608460043501600435600401615772565b905015156158c7565b610e5b610e5260c46004350160043560040161590b565b90501515615940565b610e7c6005610e7460c46004350160043560040161590b565b905010615985565b610e9c610e9360a460043501600435600401615772565b905015156159d0565b610ebc610eb360e460043501600435600401615772565b90501515615a13565b610edd610ed461010460043501600435600401615772565b90501515615a5a565b610efe610ef561012460043501600435600401615772565b90501515615aa5565b610f1f610f1661014460043501600435600401615772565b90501515615ae9565b610f3161016460043501351515615b2d565b610f4361018460043501351515615b79565b60016008540180600855610f55615bc2565b818152336020820152610f76610f6f600480350180615772565b3691614e0b565b6040820152610f91610f6f8460043501600435600401615772565b60608201526044600435013560808201526064600435013560a0820152610fc5610f6f608460043501600435600401615772565b60c0820152610fe1610f6f60a460043501600435600401615772565b60e0820152610ffa60c46004350160043560040161590b565b9061100482615c4e565b916110126040519384614dcd565b8083526020830191368260051b8201116104fc5780925b8260051b82018410611bb65750505050610100820152611056610f6f60e460043501600435600401615772565b610120820152611074610f6f61010460043501600435600401615772565b610140820152611092610f6f61012460043501600435600401615772565b6101808201526110b0610f6f61014460043501600435600401615772565b6101a082015260043561016481013561016083015261018401356101c08201523315611b72576110e86110e2836155cc565b15615e77565b6110f46110e2836155cc565b33600052600560205260406000206001815401905581600052600460205260406000203360018060a01b0319825416179055813360006000805160206168388339815191528180a4600c60209081526040600081902083518155918301516001830180546001600160a01b0319166001600160a01b03929092169190911790558201518051906001600160401b0382116116795781906111a48261119b600287015461500b565b60028701615c7c565b602090601f8311600114611b0057600092611af5575b50508160011b916000199060031b1c19161760028201555b60608201518051906001600160401b038211611679578190611204826111fb600387015461500b565b60038701615c7c565b602090601f8311600114611a8357600092611a78575b50508160011b916000199060031b1c19161760038201555b6080820151600482015560a0820151600582015560c08201518051906001600160401b0382116116795781906112788261126f600687015461500b565b60068701615c7c565b602090601f8311600114611a06576000926119fb575b50508160011b916000199060031b1c19161760068201555b60e08201518051906001600160401b0382116116795781906112d8826112cf600787015461500b565b60078701615c7c565b602090601f83116001146119895760009261197e575b50508160011b916000199060031b1c19161760078201555b600881016101008301519060208251926113208484615d0a565b019060005260206000206000915b83831061188657505050506101208201518051906001600160401b03821161167957819061136c82611363600987015461500b565b60098701615c7c565b602090601f831160011461181457600092611809575b50508160011b916000199060031b1c19161760098201555b6101408201518051906001600160401b0382116116795781906113cd826113c4600a87015461500b565b600a8701615c7c565b602090601f83116001146117975760009261178c575b50508160011b916000199060031b1c191617600a8201555b610160820151600b8201556101808201518051906001600160401b03821161167957819061143982611430600c87015461500b565b600c8701615c7c565b602090601f831160011461171a5760009261170f575b50508160011b916000199060031b1c191617600c8201555b6101a08201518051906001600160401b038211611679576114988261148f600d86015461500b565b600d8601615c7c565b602090601f8311600114611699579180610240949260109460009261168e575b50508160011b916000199060031b1c191617600d8201555b6101c0840151600e820155600f81016114f06101e08601511515826155bb565b6102008501511515815461ff0062ff00006102208901511515871b169260081b169062ffff001916171790550191015190815190600160401b928383116116795781548383558084106115e9575b506020019060005260206000206000915b8383106115cb57505050508160005260136020526040600020600160ff1982541617905533600052600d60205260406000208054918210156115b6579061159b916001820181556151f9565b819291549060031b91821b91600019901b1916179055600080f35b83634e487b7160e01b60005260416004526000fd5b60056020826115dd6001945186615d53565b0192019201919061154f565b80600502906005820403611664578360050260058104850361164f5783600052602060002091820191015b818110611621575061153e565b80600060059255600060018201556000600282015561164260038201615cc1565b6000600482015501611614565b87634e487b7160e01b60005260116004526000fd5b86634e487b7160e01b60005260116004526000fd5b85634e487b7160e01b60005260416004526000fd5b0151905088806114b8565b90600d840160005260206000209160005b601f19851681106116f7575092610240949260019260109583601f198116106116de575b505050811b01600d8201556114d0565b015160001960f88460031b161c191690558880806116ce565b919260206001819286850151815501940192016116aa565b01519050868061144f565b9250600c84016000526020600020906000935b601f1984168510611771576001945083601f19811610611758575b505050811b01600c820155611467565b015160001960f88460031b161c19169055868080611748565b8181015183556020948501946001909301929091019061172d565b0151905086806113e3565b9250600a84016000526020600020906000935b601f19841685106117ee576001945083601f198116106117d5575b505050811b01600a8201556113fb565b015160001960f88460031b161c191690558680806117c5565b818101518355602094850194600190930192909101906117aa565b015190508680611382565b9250600984016000526020600020906000935b601f198416851061186b576001945083601f19811610611852575b505050811b01600982015561139a565b015160001960f88460031b161c19169055868080611842565b81810151835560209485019460019093019290910190611827565b80518051906001600160401b038211611969576118ad826118a7865461500b565b86615c7c565b602090601f83116001146118f95792826001949360209386956000926118ee575b5050600019600383901b1c191690841b1785555b0192019201919061132e565b015190508d806118ce565b908460005260206000209160005b601f1985168110611951575083602093600196938796938794601f19811610611938575b505050811b0185556118e2565b015160001960f88460031b161c191690558d808061192b565b91926020600181928685015181550194019201611907565b89634e487b7160e01b60005260416004526000fd5b0151905086806112ee565b9250600784016000526020600020906000935b601f19841685106119e0576001945083601f198116106119c7575b505050811b016007820155611306565b015160001960f88460031b161c191690558680806119b7565b8181015183556020948501946001909301929091019061199c565b01519050868061128e565b9250600684016000526020600020906000935b601f1984168510611a5d576001945083601f19811610611a44575b505050811b0160068201556112a6565b015160001960f88460031b161c19169055868080611a34565b81810151835560209485019460019093019290910190611a19565b01519050868061121a565b9250600384016000526020600020906000935b601f1984168510611ada576001945083601f19811610611ac1575b505050811b016003820155611232565b015160001960f88460031b161c19169055868080611ab1565b81810151835560209485019460019093019290910190611a96565b0151905086806111ba565b9250600284016000526020600020906000935b601f1984168510611b57576001945083601f19811610611b3e575b505050811b0160028201556111d2565b015160001960f88460031b161c19169055868080611b2e565b81810151835560209485019460019093019290910190611b13565b60405162461bcd60e51b8152602060048201819052818501527f4552433732313a206d696e7420746f20746865207a65726f20616464726573736044820152606490fd5b6001600160401b038435116104fc5760208091611bd63687358601614e42565b815201930192611029565b6000546001600160a01b031614905082610611565b50600f60205260ff604060002054166004811015610740576002148015611c26575b611c2190615718565b610dbe565b506000546001600160a01b03163314611c18565b346104fc576003196040368201126104fc576001600160401b03602435116104fc576101a090602435360301126104fc57336000908152601560205260409020546001600160a01b03908116801561277d5780600052600f60205260ff60406000205416906004821015610740576002611cbc921490811561276f5750615718565b600435600052600c60205233906001604060002001541603612719576004356000526013602052611cf460ff60406000205416615ec2565b600435600052600c602052611d1760ff600f6040600020015460101c1615615f07565b611d29610dcf60046024350180615772565b611d3f610df06024803501602435600401615772565b611d50604460243501351515615831565b611d67610e5260c46024350160243560040161590b565b611d806005610e7460c46024350160243560040161590b565b611d9160646024350135151561587c565b611da8610e32608460243501602435600401615772565b611dbf610e9360a460243501602435600401615772565b611dd6610eb360e460243501602435600401615772565b611dee610ed461010460243501602435600401615772565b611e06610ef561012460243501602435600401615772565b611e1e610f1661014460243501602435600401615772565b611e3061016460243501351515615b2d565b611e4261018460243501351515615b79565b611e5160046024350180615772565b6004356000908152600c60205260409020600201906001600160401b0381116122e757611e8881611e82845461500b565b84615c7c565b600092601f82116001146126b057928192936000926126a5575b50508160011b916000199060031b1c19161790555b611eca6024803501602435600401615772565b6004356000908152600c60205260409020600301906001600160401b0381116122e757611efb81611e82845461500b565b600092601f821160011461263c5792819293600092612631575b50508160011b916000199060031b1c19161790555b600435600052600c6020526040600020604460243501356004820155606460243501356005820155611f66608460243501602435600401615772565b906001600160401b0382116122e757611f8f82611f86600686015461500b565b60068601615c7c565b600090601f83116001146125c15760069291600091836125b6575b50508160011b916000199060031b1c1916179101555b611fd460a460243501602435600401615772565b6004356000908152600c60205260409020600701906001600160401b0381116122e75761200581611e82845461500b565b600092601f821160011461254d5792819293600092612542575b50508160011b916000199060031b1c19161790555b61204860c46024350160243560040161590b565b600435600052600c6020526008604060002001916120668284615d0a565b60009283526020832090805b8385106124595761208d60e460243501602435600401615772565b6004356000908152600c60205260409020600901906001600160401b0381116122e7576120be81611e82845461500b565b600092601f82116001146123f057928192936000926123e5575b50508160011b916000199060031b1c19161790555b61210261010460243501602435600401615772565b6004356000908152600c60205260409020600a01906001600160401b0381116122e75761213381611e82845461500b565b600092601f821160011461237c5792819293600092612371575b50508160011b916000199060031b1c19161790555b61217761012460243501602435600401615772565b600435600052600c602052600c6040600020019060018060401b0381116122e7576121a681611e82845461500b565b600092601f821160011461230857928192936000926122fd575b50508160011b916000199060031b1c19161790555b6121ea61014460243501602435600401615772565b6004356000908152600c60205260409020600d01906001600160401b0381116122e75761221b81611e82845461500b565b6000601f821160011461228257819293600092612277575b50508160011b916000199060031b1c19161790555b600435600052600c60205260406000206101646024350135600b820155600e6101846024350135910155600080f35b013590508380612233565b601f198216938360005260206000209160005b8681106122cf57508360019596106122b5575b505050811b019055612248565b0135600019600384901b60f8161c191690558380806122a8565b90926020600181928686013581550194019101612295565b634e487b7160e01b600052604160045260246000fd5b0135905083806121c0565b826000526020600020906000945b601f198416861061235957600194955083601f1981161061233f575b505050811b0190556121d5565b0135600019600384901b60f8161c19169055838080612332565b91602060018192858501358155019301950194612316565b01359050838061214d565b826000526020600020906000945b601f19841686106123cd57600194955083601f198116106123b3575b505050811b019055612162565b0135600019600384901b60f8161c191690558380806123a6565b9160206001819285850135815501930195019461238a565b0135905083806120d8565b826000526020600020906000945b601f198416861061244157600194955083601f19811610612427575b505050811b0190556120ed565b0135600019600384901b60f8161c1916905583808061241a565b916020600181928585013581550193019501946123fe565b6124638183615772565b906001600160401b0382116122e75761248682612480875461500b565b87615c7c565b600090601f83116001146124d25792826001949360209386956000926124c7575b5050600019600383901b1c191690841b1786555b01930194019391612072565b013590508a806124a7565b8560005260206000209160005b601f198516811061252a575083602093600196938796938794601f19811610612510575b505050811b0186556124bb565b0135600019600384901b60f8161c191690558a8080612503565b909260206001819286860135815501940191016124df565b01359050838061201f565b826000526020600020906000945b601f198416861061259e57600194955083601f19811610612584575b505050811b019055612034565b0135600019600384901b60f8161c19169055838080612577565b9160206001819285850135815501930195019461255b565b013590508480611faa565b6006840160005260206000209160005b601f19851681106126195750918391600193600695601f198116106125ff575b505050811b01910155611fc0565b0135600019600384901b60f8161c191690558480806125f1565b909260206001819286860135815501940191016125d1565b013590508380611f15565b826000526020600020906000945b601f198416861061268d57600194955083601f19811610612673575b505050811b019055611f2a565b0135600019600384901b60f8161c19169055838080612666565b9160206001819285850135815501930195019461264a565b013590508380611ea2565b826000526020600020906000945b601f198416861061270157600194955083601f198116106126e7575b505050811b019055611eb7565b0135600019600384901b60f8161c191690558380806126da565b916020600181928585013581550193019501946126be565b60405162461bcd60e51b815260206004820152602860248201527f4f6e6c79207468652073656c6c65722063616e20757064617465207468656972604482015267081c1c9bd91d58dd60c21b6064820152608490fd5b905082600054161483610611565b50600f60205260ff6040600020541660048110156107405760021480156127ad575b6127a890615718565b611cbc565b506000548116331461279f565b346104fc5760203660031901126104fc576004356000526013602052602060ff604060002054166040519015158152f35b346104fc5760203660031901126104fc57612804614d33565b61280c615211565b6001600160a01b031680156128575760406000805160206167d883398151915291336000526015602052816000208160018060a01b03198254161790558151903382526020820152a1005b60405162461bcd60e51b8152602060048201526017602482015276496e76616c6964206163636f756e74206164647265737360481b6044820152606490fd5b346104fc5760403660031901126104fc576128af614d33565b60243590811515908183036104fc576001600160a01b031691338314612920576128f29033600052600760205260406000208460005260205260406000206155bb565b6040519081527f17307eab39ab6107e8899845ad3d59bd9653f200f220920489ca2b5937696c3160203392a3005b60405162461bcd60e51b815260206004820152601960248201527822a9219b99189d1030b8383937bb32903a379031b0b63632b960391b6044820152606490fd5b346104fc5760403660031901126104fc5761297a614d33565b6001600160a01b0390811660009081526010602052604090208054602435908110156104fc57610830916150eb565b346104fc576020806003193601126104fc5760043580600052600c9081835260ff600f60406000200154916129e482601094851c1615615f07565b80600052601385526129fc8260406000205416615ec2565b60009260005b82600052858752816040600020018054821015612a53576004612a26838793615f73565b5001541615612a3e575b612a3990615f8f565b612a02565b93612a4b612a3991615f8f565b949050612a30565b50508486612a6086615c4e565b95612a6e6040519788614dcd565b808752612a7d601f1991615c4e565b018160005b828110612b265750505060009360005b81600052838352846040600020018054821015612b13576004612ab6838a93615f73565b5001541615612ace575b612ac990615f8f565b612a92565b94612b0b612ac99183600052858552612af6612af08989604060002001615f73565b50615fb2565b612b00828c615f9e565b5261043f818b615f9e565b959050612ac0565b604051848152806102618187018c614a9a565b612b2e615f48565b82828b010152018290612a82565b346104fc5760403660031901126104fc57612b55614d33565b60249081359060048210156104fc57612b6c615211565b6001600160a01b0316918215612cfb57826000526020906012825260ff6040600020541615612cc05783600052600f825260ff604060002054166004811015612c73578314612c885760028314612c0f575b507fd8f7bcb2c5cffc294a0aaef719685993d7be95273fb8254803a1563510ccefed91600f612c0a928560005252604060002060ff1981541660ff831617905560405191829182614ff8565b0390a2005b83600052600f825260ff604060002054166004811015612c7357600114612bbe5790601f6064926040519262461bcd60e51b845260048401528201527f43616e206f6e6c79207665726966792070656e64696e672073656c6c657273006044820152fd5b50634e487b7160e01b60009081526021600452fd5b9060126064926040519262461bcd60e51b845260048401528201527114dd185d1d5cc8185b1c9958591e481cd95d60721b6044820152fd5b9060156064926040519262461bcd60e51b845260048401528201527414d95b1b195c881b9bdd081c9959da5cdd195c9959605a1b6044820152fd5b60649060166040519162461bcd60e51b83526020600484015282015275496e76616c69642073656c6c6572206164647265737360501b6044820152fd5b346104fc5760003660031901126104fc57604051600090600354612d5b8161500b565b808352600191808316908115612df25750600114612d98575b61026183612d8481870382614dcd565b604051918291602083526020830190614a5a565b6003600090815260209450917fc2575a0e9e593c00f959f8c92f12db2869c3395a3b0502d05e2516446f71f85b5b828410612ddf57505050810190910190612d8481612d74565b8054858501870152928501928101612dc6565b6102619550612d8493506020915091849260ff191682840152151560051b8201019350612d74565b346104fc5760003660031901126104fc576000546040516001600160a01b039091168152602090f35b346104fc5760203660031901126104fc576004356000908152600c60205260409020805460018201546001600160a01b031691612e8260028201615045565b612e8e60038301615045565b6004830154600584015490612ea560068601615045565b612eb160078701615045565b612ebd60098801615045565b90612eca600a8901615045565b92600b89015494600c8a01612ede90615045565b96612eeb600d8c01615045565b98600e8c01549b600f01549a6040519e8f9e8f908152602001528d6102209081604082015201612f1a91614a5a565b8d810360608f0152612f2b91614a5a565b9160808d015260a08c01528a810360c08c0152612f4791614a5a565b89810360e08b0152612f5891614a5a565b8881036101008a0152612f6a91614a5a565b878103610120890152612f7c91614a5a565b90610140870152858103610160870152612f9591614a5a565b848103610180860152612fa791614a5a565b916101a084015260ff811615156101c08401528060081c60ff1615156101e084015260101c60ff1615156102008301520390f35b346104fc5760003660031901126104fc57612ff4615211565b600080546001600160a01b0319811682556001600160a01b03166000805160206168188339815191528280a3005b346104fc5760203660031901126104fc576001600160a01b03613043614d33565b1680156130625760005260056020526020604060002054604051908152f35b60405162461bcd60e51b815260206004820152602960248201527f4552433732313a2061646472657373207a65726f206973206e6f7420612076616044820152683634b21037bbb732b960b91b6064820152608490fd5b6003196040368201126104fc576024906001600160401b038235116104fc57610100908235360301126104fc576002600154146138c2576002600155600435600052601360205261311160ff60406000205416615ec2565b600435600052600c60205261313460ff600f6040600020015460101c1615615f07565b600435600052600c60205260018060a01b0360016040600020015416600052600f60205260ff604060002054166004811015612c735760020361388557600435600052600c6020526005604060002001541561384757600435600052600c60205260ff600f604060002001541661380657600435600052600c60205260018060a01b036001604060002001541633146137c4576131d5600482350180615772565b90501561378b576131ed818035018235600401615772565b90501561374d5761320660448235018235600401615772565b9050156137195761321f60648235018235600401615772565b9050156136e45761323860848235018235600401615772565b9050156136ad5761325160a48235018235600401615772565b9050156136725761326a60c48235018235600401615772565b90501561363d5761328360e48235018235600401615772565b90501561360857600435600052600c602052600460406000200154908134106135cf57600435600052600c6020526005604060002001805480156135ba57600019019055600435600052600c60205260406000206005810154156135a6575b600101546040516001600160a01b0390911691906132ff81614d7b565b6004823501356001600160401b0381116104fc57613324906004369185350101614e42565b81526001600160401b038235830135116104fc5761334b3683358085013501600401614e42565b60208201528135604401356001600160401b0381116104fc57613375906004369185350101614e42565b60408201528135606401356001600160401b0381116104fc5761339f906004369185350101614e42565b60608201528135608401356001600160401b0381116104fc576133c9906004369185350101614e42565b6080820152813560a401356001600160401b0381116104fc576133f3906004369185350101614e42565b60a0820152813560c401356001600160401b0381116104fc5761341d906004369185350101614e42565b60c0820152813560e40135906001600160401b0382116104fc5761344b6134b6926004369186350101614e42565b60e08201526040519061345d82614d7b565b60043582528560208301528560408301524260608301523360808301528460a0830152600060c083015260e08201523360005260106020526134a381604060002061605f565b836000526011602052604060002061605f565b81600052600e602052604060002080549184830180931161359257505560405182815282602082015242604082015233907f45280c7ac9cec77edd454e39e1641a3e22619146cf074a4239beee86a7c07edc606060043592a46001600954016009556135228134616052565b80613582575b50600435600052600c60205260018060a01b03600160406000200154169060405190815242602082015233907fbe6177108f4df43c5d7be79cb219c969fc97915bbdb4b56d14d391dcdcc16060604060043592a460018055005b61358c9033616741565b81613528565b634e487b7160e01b60009081526011600452fd5b600f8101805460ff191660011790556132e2565b82634e487b7160e01b60005260116004526000fd5b60649060126040519162461bcd60e51b83526020600484015282015271496e73756666696369656e742066756e647360701b6044820152fd5b606490600e6040519162461bcd60e51b8352602060048401528201526d115b585a5b081c995c5d5a5c995960921b6044820152fd5b606490600e6040519162461bcd60e51b8352602060048401528201526d141a1bdb99481c995c5d5a5c995960921b6044820152fd5b60649060146040519162461bcd60e51b83526020600484015282015273141bdcdd185b0818dbd919481c995c5d5a5c995960621b6044820152fd5b60649060106040519162461bcd60e51b8352602060048401528201526f10dbdd5b9d1c9e481c995c5d5a5c995960821b6044820152fd5b606490600e6040519162461bcd60e51b8352602060048401528201526d14dd185d19481c995c5d5a5c995960921b6044820152fd5b606490600d6040519162461bcd60e51b8352602060048401528201526c10da5d1e481c995c5d5a5c9959609a1b6044820152fd5b60649060176040519162461bcd60e51b8352602060048401528201527614dd1c99595d081859191c995cdcc81c995c5d5a5c9959604a1b6044820152fd5b60649060126040519162461bcd60e51b83526020600484015282015271119d5b1b081b985b59481c995c5d5a5c995960721b6044820152fd5b606490601b6040519162461bcd60e51b8352602060048401528201527a10d85b9b9bdd08189d5e481e5bdd5c881bdddb881c1c9bd91d58dd602a1b6044820152fd5b606490601a6040519162461bcd60e51b83526020600484015282015279141c9bd91d58dd081a5cc8185b1c9958591e481cdbdb191bdd5d60321b6044820152fd5b60649060176040519162461bcd60e51b8352602060048401528201527650726f64756374206973206f7574206f662073746f636b60481b6044820152fd5b60649060166040519162461bcd60e51b8352602060048401528201527514d95b1b195c881a5cc81b9bdd081d995c9a599a595960521b6044820152fd5b606490601f6040519162461bcd60e51b8352602060048401528201527f5265656e7472616e637947756172643a207265656e7472616e742063616c6c006044820152fd5b346104fc5760203660031901126104fc5760206139246004356152b0565b6040516001600160a01b039091168152f35b346104fc5760203660031901126104fc576001600160a01b03613957614d33565b16600052600e6020526020604060002054604051908152f35b346104fc5760003660031901126104fc5733600052601260205260ff604060002054166139f357336000526012602052604060002060ff1990600182825416179055600f60205260016040600020918254161790556040514281527fa1a1a78ff3033d5ee8393372052aeb2a16bbb347a29f3780370e9506c109e37260203392a2005b60405162461bcd60e51b8152602060048201526012602482015271105b1c9958591e481c9959da5cdd195c995960721b6044820152606490fd5b346104fc5760203660031901126104fc576001600160a01b03613a4e614d33565b16600052600f60205261026160ff6040600020541660405191829182614ff8565b346104fc57610c57613a8036614e5d565b9060405192613a8e84614db2565b6000845261535c565b346104fc5760003660031901126104fc57336000908152601560209081526040909120546001600160a01b039081168015613be35780600052600f835260ff60406000205416906004821015610740576002613afb9214908115613bd55750615718565b33600052600e8252604060002054908115613b9757600b548083029083820403613b8157613b5392613b346064613b4d93048092616052565b9233600052600e86526000604081205560005416616741565b33616741565b7f8ad64a0ac7700dd8425ab0499f107cb6e2cd1581d803c5b8c1c79dcb8190b1af60405191600083523392a2005b634e487b7160e01b600052601160045260246000fd5b60405162461bcd60e51b81526004810184905260166024820152754e6f2062616c616e636520746f20776974686472617760501b6044820152606490fd5b905082600054161484610611565b50600f825260ff604060002054166004811015610740576002148015613c12575b613c0d90615718565b613afb565b5060005481163314613c04565b346104fc576020806003193601126104fc576001600160a01b039081613c43614d33565b16600052601181526040600020805490613c5c82615c4e565b92613c6a6040519485614dcd565b82845260009182528082208185015b848410613c8e57604051806102618882614f3a565b600e83600192604051613ca081614d7b565b85548152848601548382015260028601546040820152600386015460608201528a600487015416608082015260ff600587015460a08d8216818501521c16151560c0820152613cf16006870161511d565b60e0820152815201920193019290613c79565b346104fc5760403660031901126104fc57602480356004356000805b82600052600c602090808252601091826040600020018054851015613f1c57613d4a858992615f73565b505414613d6257505050613d5d90615f8f565b613d20565b9193509193946000526014815260ff94856040600020541615613ee05780600052828252613d968585604060002001615f73565b50600190810154909690336001600160a01b0391821614908115613ed2575b5015613e7d57816000528383526004613dd48787604060002001615f73565b50015416613e405791613df593916004959360005252604060002001615f73565b5001805460ff1916821790555b15613e0957005b60649060106040519162461bcd60e51b8352602060048401528201526f14995d9a595dc81b9bdd08199bdd5b9960821b6044820152fd5b60405162461bcd60e51b8152600481018390526016818901527514995d9a595dc8185b1c9958591e4819195b195d195960521b6044820152606490fd5b60405162461bcd60e51b8152600481018490526028818a01527f4f6e6c79207265766965776572206f72206f776e65722063616e2064656c6574604482015267652072657669657760c01b6064820152608490fd5b600054163314905089613db5565b60405162461bcd60e51b8152600481018390526015818901527414995d9a595dc8191bd95cc81b9bdd08195e1a5cdd605a1b6044820152606490fd5b5050505050915050613e02565b346104fc57610c57613f3a36614e5d565b91613f4d613f4884336153f7565b6152fa565b6154bf565b346104fc5760603660031901126104fc57602480356004356044356001600160401b0381116104fc57613f89903690600401614e42565b9080600052602091600c835260018060a01b036001604060002001541633146140dc57831515806140d1575b1561408d5780511561404f5790600c92916001600a54019081600a55613fd9615f48565b95828752338588015260408701526060860152600052601482526040600020600160ff198254161790556000525260106040600020018054600160401b8110156115b65761402c91600182018155615f73565b61403a57610c579250615d53565b82634e487b7160e01b60005260006004526000fd5b60405162461bcd60e51b81526004810184905260178187015276436f6d6d656e742063616e6e6f7420626520656d70747960481b6044820152606490fd5b60405162461bcd60e51b815260048101849052601e818701527f526174696e67206d757374206265206265747765656e203120616e64203500006044820152606490fd5b506005841115613fb5565b60405162461bcd60e51b8152600481018490526026818701527f53656c6c65722063616e6e6f7420726576696577207468656972206f776e20706044820152651c9bd91d58dd60d21b6064820152608490fd5b346104fc5760003660031901126104fc57614148615211565b336000526015602052604060002060018060a01b031981541690556000805160206167d88339815191526040805133815260006020820152a1005b346104fc5760403660031901126104fc5760043561419f614d49565b3360009081526015602090815260409091205490926001600160a01b0391821680156144aa5780600052600f855260ff604060002054169060048210156107405760026141f4921490811561449c5750615718565b9291925b6000928260009516945b85600052601080835260406000208054831015614491576142248386926150eb565b50541461423a575061423590615f8f565b614202565b9192939450856000528183526142548160406000206150eb565b509160ff60058094015460a01c1661444e578660005280845261427b8260406000206150eb565b50830154861633148015614441575b156143e957906142a49187600052845260406000206150eb565b5001805460ff60a01b1916600160a01b17905560015b156143b05781600052600c815260019280846040600020015416846000905b6142fb575b5050506000805160206167f88339815191529192604051908152a3005b816000526011808552604060002080548310156143a95761431d8388926150eb565b50541480614385575b61433f575090614337869392615f8f565b9091926142d9565b6000805160206167f8833981519152959693509061436991600593600052855260406000206150eb565b5001805460ff60a01b1916600160a01b179055929185806142de565b50826000528085528784600461439f8560406000206150eb565b5001541614614326565b50506142de565b6064906040519062461bcd60e51b825260048201526012602482015271141d5c98da185cd9481b9bdd08199bdd5b9960721b6044820152fd5b60405162461bcd60e51b815260048101859052602a60248201527f4f6e6c792073656c6c6572206f72206f776e65722063616e206d61726b2061736044820152690819195b1a5d995c995960b21b6064820152608490fd5b503386600054161461428a565b60405162461bcd60e51b815260048101859052601b60248201527a105b1c9958591e481b585c9ad95908185cc819195b1a5d995c9959602a1b6044820152606490fd5b5050509091926142ba565b905083600054161486610611565b50600f845260ff6040600020541660048110156107405760021480156144dc575b6144d490615718565b9291926141f8565b50600054821633146144cb565b346104fc5760403660031901126104fc57614502614d33565b602435906001600160a01b038080614519856152b0565b16921691808314614614578033149081156145ef575b501561458457600083815260066020526040902080546001600160a01b0319168317905561455c836152b0565b167f8c5be1e5ebec7d5bd14f71427d1e84f3dd0314c0f7b2291e5b200ac8c7c3b925600080a4005b60405162461bcd60e51b815260206004820152603d60248201527f4552433732313a20617070726f76652063616c6c6572206973206e6f7420746f60448201527f6b656e206f776e6572206f7220617070726f76656420666f7220616c6c0000006064820152608490fd5b9050600052600760205260406000203360005260205260ff604060002054168461452f565b60405162461bcd60e51b815260206004820152602160248201527f4552433732313a20617070726f76616c20746f2063757272656e74206f776e656044820152603960f91b6064820152608490fd5b346104fc5760203660031901126104fc5760206139246004356152d3565b346104fc5760003660031901126104fc576040516000906002546146a48161500b565b808352600191808316908115612df257506001146146cc5761026183612d8481870382614dcd565b6002600090815260209450917f405787fa12a823e0f2b7631cc41b3ba8828b3321ca811111fa75cd3aa3bb5ace5b82841061471357505050810190910190612d8481612d74565b80548585018701529285019281016146fa565b346104fc5760003660031901126104fc57600854600060015b8281111561497e575061475190616002565b90600160005b8282111561476d57604051806102618682614cd1565b81600052600c6020526040600020600f8101549060ff8260101c16156147a0575b50509061479a90615f8f565b90614757565b604051916147ad83614d5f565b8154835260018201546001600160a01b031660208401526147d060028301615045565b60408401526147e160038301615045565b606084015260048201546080840152600582015460a084015261480660068301615045565b60c084015261481760078301615045565b60e0840152600882015461482a81615c4e565b906148386040519283614dcd565b80825260208201600885016000526020600020906000905b83821061496157505050506010929160ff9161010086015261487460098401615045565b610120860152614886600a8401615045565b610140860152600b8301546101608601526148a3600c8401615045565b6101808601526148b5600d8401615045565b6101a0860152600e8301546101c086015281811615156101e0860152818160081c161515610200860152831c161515610220840152018054906148f782615c4e565b916149056040519384614dcd565b808352602083019160005260206000206000925b828410614943575050505061024082015261479a9161493c916104348288615f9e565b908561478e565b6005602060019261495385615fb2565b815201920193019290614919565b60016020819261497086615045565b815201930191019091614850565b80600052600c60205260ff600f6040600020015460101c16156149aa575b6149a590615f8f565b61473f565b906149b76149a591615f8f565b91905061499c565b346104fc5760203660031901126104fc5760043563ffffffff60e01b81168091036104fc576020906380ac58cd60e01b8114908115614a1c575b8115614a0b575b506040519015158152f35b6301ffc9a760e01b14905082614a00565b635b5e139f60e01b811491506149f9565b346104fc5760203660031901126104fc576020906004356000526014825260ff6040600020541615158152f35b919082519283825260005b848110614a86575050826000602080949584010152601f8019910116010190565b602081830181015184830182015201614a65565b908082519081815260208091019281808460051b8301019501936000915b848310614ac85750505050505090565b9091929394958480600192601f1985820301865289519081518152848060a01b0383830151168382015260408083015190820152614b156060808401519060a08091850152830190614a5a565b9160808091015115159101529801930193019194939290614ab8565b91908251815260209260018060a01b03848201511684830152614bb6614ba4614b7e614b6c6040850151610260806040890152870190614a5a565b60608501518682036060880152614a5a565b6080840151608086015260a084015160a086015260c084015185820360c0870152614a5a565b60e083015184820360e0860152614a5a565b6101009485830151958483039085015285518083528183019180808360051b8601019801926000905b838210614ca157505050505050614c58614c44614c25614c11614c9e9697610120808701519088830390890152614a5a565b610140808601519087830390880152614a5a565b6101608085015190860152610180808501519086830390870152614a5a565b6101a0808401519085830390860152614a5a565b916101c080830151908201526101e08083015115159082015261020080830151151590820152610220808301511515908201526102408092015191818403910152614a9a565b90565b9091929394988380614cc06001938d601f199082030186528951614a5a565b9b9701959493919091019101614bdf565b602080820190808352835180925260408301928160408460051b8301019501936000915b848310614d055750505050505090565b9091929394958480614d23600193603f198682030187528a51614b31565b9801930193019194939290614cf5565b600435906001600160a01b03821682036104fc57565b602435906001600160a01b03821682036104fc57565b61026081019081106001600160401b038211176122e757604052565b61010081019081106001600160401b038211176122e757604052565b60a081019081106001600160401b038211176122e757604052565b602081019081106001600160401b038211176122e757604052565b601f909101601f19168101906001600160401b038211908210176122e757604052565b6001600160401b0381116122e757601f01601f191660200190565b929192614e1782614df0565b91614e256040519384614dcd565b8294818452818301116104fc578281602093846000960137010152565b9080601f830112156104fc57816020614c9e93359101614e0b565b60609060031901126104fc576001600160a01b039060043582811681036104fc579160243590811681036104fc579060443590565b614c9e9160e0614f29614f17614f05614ef3614ee1614ecf614ebd8951610100808b528a0190614a5a565b60208a015189820360208b0152614a5a565b604089015188820360408a0152614a5a565b60608801518782036060890152614a5a565b60808701518682036080880152614a5a565b60a086015185820360a0870152614a5a565b60c085015184820360c0860152614a5a565b9201519060e0818403910152614a5a565b602080820190808352835180925260409283810182858560051b8401019601946000925b858410614f6f575050505050505090565b909192939495968580614fe7600193603f198682030188528b51805182528381015184830152878101518883015260608082015190830152858060a01b0360808181840151169084015260a09081830151169083015260c08082015115159083015260e0809101519161010080928201520190614e92565b990194019401929594939190614f5e565b9190602083019260048210156107405752565b90600182811c9216801561503b575b602083101461502557565b634e487b7160e01b600052602260045260246000fd5b91607f169161501a565b90604051918260008254926150598461500b565b9081845260019485811690816000146150c85750600114615085575b505061508392500383614dcd565b565b9093915060005260209081600020936000915b8183106150b057505061508393508201013880615075565b85548884018501529485019487945091830191615098565b91505061508394506020925060ff191682840152151560051b8201013880615075565b805482101561510757600052600e602060002091020190600090565b634e487b7160e01b600052603260045260246000fd5b9060405161512a81614d7b565b60e06151aa6007839561513c81615045565b855261514a60018201615045565b602086015261515b60028201615045565b604086015261516c60038201615045565b606086015261517d60048201615045565b608086015261518e60058201615045565b60a086015261519f60068201615045565b60c086015201615045565b910152565b95929091614c9e9897959492875260208701526040860152606085015260018060a01b0380921660808501521660a0830152151560c0820152610100908160e08201520190614e92565b80548210156151075760005260206000200190600090565b6000546001600160a01b0316330361522557565b606460405162461bcd60e51b815260206004820152602060248201527f4f776e61626c653a2063616c6c6572206973206e6f7420746865206f776e65726044820152fd5b1561527057565b60405162461bcd60e51b8152602060048201526018602482015277115490cdcc8c4e881a5b9d985b1a59081d1bdad95b88125160421b6044820152606490fd5b6000908152600460205260409020546001600160a01b0316614c9e811515615269565b6152df6108b5826155cc565b6000908152600660205260409020546001600160a01b031690565b1561530157565b60405162461bcd60e51b815260206004820152602d60248201527f4552433732313a2063616c6c6572206973206e6f7420746f6b656e206f776e6560448201526c1c881bdc88185c1c1c9bdd9959609a1b6064820152608490fd5b90615380939291615370613f4884336153f7565b61537b8383836154bf565b615619565b1561538757565b60405162461bcd60e51b8152806153a0600482016153a4565b0390fd5b60809060208152603260208201527f4552433732313a207472616e7366657220746f206e6f6e20455243373231526560408201527131b2b4bb32b91034b6b83632b6b2b73a32b960711b60608201520190565b906001600160a01b03808061540b846152b0565b1693169183831493841561543e575b508315615428575b50505090565b615434919293506152d3565b1614388080615422565b909350600052600760205260406000208260005260205260ff60406000205416923861541a565b1561546c57565b60405162461bcd60e51b815260206004820152602560248201527f4552433732313a207472616e736665722066726f6d20696e636f72726563742060448201526437bbb732b960d91b6064820152608490fd5b906154e7916154cd846152b0565b6001600160a01b0393918416928492909183168414615465565b1691821561556a5781615504916154fd866152b0565b1614615465565b600080516020616838833981519152600084815260066020526040812060018060a01b03199081815416905583825260056020526040822060001981540190558482526040822060018154019055858252600460205284604083209182541617905580a4565b60405162461bcd60e51b8152602060048201526024808201527f4552433732313a207472616e7366657220746f20746865207a65726f206164646044820152637265737360e01b6064820152608490fd5b9060ff801983541691151516179055565b6000908152600460205260409020546001600160a01b0316151590565b3d15615614573d906155fa82614df0565b916156086040519384614dcd565b82523d6000602084013e565b606090565b91926000929190813b1561570e5760209161566f9185604051958680958194630a85bd0160e11b9b8c845233600485015260018060a01b0380951660248501526044840152608060648401526084830190614a5a565b0393165af1908290826156bf575b50506156b15761568b6155e9565b805190816156ac5760405162461bcd60e51b8152806153a0600482016153a4565b602001fd5b6001600160e01b0319161490565b909192506020813d8211615706575b816156db60209383614dcd565b810103126157025751906001600160e01b0319821682036156ff575090388061567d565b80fd5b5080fd5b3d91506156ce565b5050505050600190565b1561571f57565b60405162461bcd60e51b815260206004820152602560248201527f4f6e6c792076657269666965642073656c6c6572206f72206f776e657220616c6044820152641b1bddd95960da1b6064820152608490fd5b903590601e19813603018212156104fc57018035906001600160401b0382116104fc576020019181360383136104fc57565b156157ab57565b60405162461bcd60e51b81526020600482015260146024820152734e616d652063616e6e6f7420626520656d70747960601b6044820152606490fd5b156157ee57565b60405162461bcd60e51b815260206004820152601b60248201527a4465736372697074696f6e2063616e6e6f7420626520656d70747960281b6044820152606490fd5b1561583857565b60405162461bcd60e51b815260206004820152601c60248201527b05072696365206d7573742062652067726561746572207468616e20360241b6044820152606490fd5b1561588357565b60405162461bcd60e51b815260206004820152601c60248201527b053746f636b206d7573742062652067726561746572207468616e20360241b6044820152606490fd5b156158ce57565b60405162461bcd60e51b8152602060048201526015602482015274436f6c6f722063616e6e6f7420626520656d70747960581b6044820152606490fd5b903590601e19813603018212156104fc57018035906001600160401b0382116104fc57602001918160051b360383136104fc57565b1561594757565b60405162461bcd60e51b8152602060048201526016602482015275496d616765732063616e6e6f7420626520656d70747960501b6044820152606490fd5b1561598c57565b60405162461bcd60e51b815260206004820152601c60248201527b496d616765732063616e6e6f74206265206d6f7265207468616e203560201b6044820152606490fd5b156159d757565b60405162461bcd60e51b815260206004820152601460248201527353697a652063616e6e6f7420626520656d70747960601b6044820152606490fd5b15615a1a57565b60405162461bcd60e51b815260206004820152601860248201527743617465676f72792063616e6e6f7420626520656d70747960401b6044820152606490fd5b15615a6157565b60405162461bcd60e51b815260206004820152601c60248201527b5375622d63617465676f72792063616e6e6f7420626520656d70747960201b6044820152606490fd5b15615aac57565b60405162461bcd60e51b81526020600482015260156024820152744d6f64656c2063616e6e6f7420626520656d70747960581b6044820152606490fd5b15615af057565b60405162461bcd60e51b81526020600482015260156024820152744272616e642063616e6e6f7420626520656d70747960581b6044820152606490fd5b15615b3457565b60405162461bcd60e51b815260206004820152601d60248201527f576569676874206d7573742062652067726561746572207468616e20300000006044820152606490fd5b15615b8057565b60405162461bcd60e51b815260206004820152601a6024820152790534b55206d7573742062652067726561746572207468616e20360341b6044820152606490fd5b60405190615bcf82614d5f565b8161024060009182815282602082015260609283604083015283808301528060808301528060a08301528360c08301528360e08301528361010083015283610120830152836101408301528061016083015283610180830152836101a0830152806101c0830152806101e0830152806102008301526102208201520152565b6001600160401b0381116122e75760051b60200190565b818110615c70575050565b60008155600101615c65565b9190601f8111615c8b57505050565b615083926000526020600020906020601f840160051c83019310615cb7575b601f0160051c0190615c65565b9091508190615caa565b615ccb815461500b565b9081615cd5575050565b81601f60009311600114615ce7575055565b908083918252615d06601f60208420940160051c840160018501615c65565b5555565b90600160401b81116122e757815491818155828210615d2857505050565b600052602060002091820191015b818110615d41575050565b80615d4d600192615cc1565b01615d36565b81518155602080830151600180840180546001600160a01b0319166001600160a01b03939093169290921790915560408401516002840155606084015180519094926003850192906001600160401b0383116122e757615db7836118a7865461500b565b80601f8411600114615e03575091808060809593600497956150839a600094615df8575b50501b916000199060031b1c19161790555b0151151591016155bb565b015192503880615ddb565b9193949596601f1984168660005283600020936000905b828210615e60575050926080959285926150839a99966004999610615e47575b505050811b019055615ded565b015160001960f88460031b161c19169055388080615e3a565b808886978294978701518155019601940190615e1a565b15615e7e57565b60405162461bcd60e51b815260206004820152601c60248201527b115490cdcc8c4e881d1bdad95b88185b1c9958591e481b5a5b9d195960221b6044820152606490fd5b15615ec957565b60405162461bcd60e51b8152602060048201526016602482015275141c9bd91d58dd08191bd95cc81b9bdd08195e1a5cdd60521b6044820152606490fd5b15615f0e57565b60405162461bcd60e51b8152602060048201526012602482015271141c9bd91d58dd081a5cc819195b195d195960721b6044820152606490fd5b60405190615f5582614d97565b60006080838281528260208201528260408201526060808201520152565b8054821015615107576000526005602060002091020190600090565b6000198114613b815760010190565b80518210156151075760209160051b010190565b90604051615fbf81614d97565b608060ff600483958054855260018060a01b03600182015416602086015260028101546040860152615ff360038201615045565b60608601520154161515910152565b9061600c82615c4e565b6160196040519182614dcd565b828152809261602a601f1991615c4e565b019060005b82811061603b57505050565b602090616046615bc2565b8282850101520161602f565b91908203918211613b8157565b8054600160401b8110156122e75761607e9060019283820181556150eb565b92909261672b5780518355602080820151838501556040820151600285015560608201516003808601919091556080830151600480870180546001600160a01b0319166001600160a01b0393841617905560a08086015160058901805460c08901516001600160a81b0319909116929095169190911793151590911b60ff60a01b169290921790915560e0909301518051805191966001600160401b0395939491939260068201908781116167165761613b81611e82845461500b565b8084601f978883116001146166b4576000926166a9575b505060001982891b1c191690891b1790555b6007810182890151805190888211616473578190616186826118a7865461500b565b85908883116001146166475760009261663c575b505060001982891b1c191690891b1790555b6008810160408901518051908882116164735781906161cf826118a7865461500b565b85908883116001146165da576000926165cf575b505060001982891b1c191690891b1790555b600981016060890151805190888211616473578190616218826118a7865461500b565b859088831160011461656d57600092616562575b505060001982891b1c191690891b1790555b600a81016080890151805190888211616473578190616261826118a7865461500b565b8590888311600114616500576000926164f5575b505060001982891b1c191690891b1790555b600b810160a08901518051908882116164735781906162aa826118a7865461500b565b859088831160011461649357600092616488575b505060001982891b1c191690891b1790555b600c810160c0890151805190888211616473576162f7826162f1855461500b565b85615c7c565b8490878311600114616406579180600d949260e096946000926163fb575b5050600019828b1b1c1916908b1b1790555b019701519182519586116163e6575061634a85616344895461500b565b89615c7c565b809285116001146163805750938394918492600095616375575b50501b92600019911b1c1916179055565b015193503880616364565b92919084601f1981168860005285600020956000905b898383106163cc57505050106163b2575b50505050811b019055565b01519060f884600019921b161c19169055388080806163a7565b858701518955909701969485019488935090810190616396565b604190634e487b7160e01b6000525260246000fd5b015190503880616315565b8a9291601f1983169185600052876000209260005b8982821061645d5750509160e09795939185600d98969410616445575b505050811b019055616327565b0151600019838d1b60f8161c19169055388080616438565b8385015186558f9790950194938401930161641b565b604186634e487b7160e01b6000525260246000fd5b0151905038806162be565b908b9350601f1983169185600052876000209260005b898282106164df57505084116164c7575b505050811b0190556162d0565b0151600019838b1b60f8161c191690553880806164ba565b8385015186558f979095019493840193016164a9565b015190503880616275565b908b9350601f1983169185600052876000209260005b8982821061654c5750508411616534575b505050811b019055616287565b0151600019838b1b60f8161c19169055388080616527565b8385015186558f97909501949384019301616516565b01519050388061622c565b908b9350601f1983169185600052876000209260005b898282106165b957505084116165a1575b505050811b01905561623e565b0151600019838b1b60f8161c19169055388080616594565b8385015186558f97909501949384019301616583565b0151905038806161e3565b908b9350601f1983169185600052876000209260005b89828210616626575050841161660e575b505050811b0190556161f5565b0151600019838b1b60f8161c19169055388080616601565b8385015186558f979095019493840193016165f0565b01519050388061619a565b908b9350601f1983169185600052876000209260005b89828210616693575050841161667b575b505050811b0190556161ac565b0151600019838b1b60f8161c1916905538808061666e565b8385015186558f9790950194938401930161665d565b015190503880616152565b908b9350601f1983169185600052876000209260005b8982821061670057505084116166e8575b505050811b019055616164565b0151600019838b1b60f8161c191690553880806166db565b8385015186558f979095019493840193016166ca565b604185634e487b7160e01b6000525260246000fd5b634e487b7160e01b600052600060045260246000fd5b6001600160a01b031680156167a057600080809381935af16167616155e9565b501561676957565b60405162461bcd60e51b815260206004820152600f60248201526e151c985b9cd9995c8819985a5b1959608a1b6044820152606490fd5b60405162461bcd60e51b815260206004820152600f60248201526e496e76616c6964206164647265737360881b6044820152606490fdfe32b449308c94e824ccedd9877932cd82f89a481c06c4643a0cb2914454a8c582f9dc8543b583e01f592678422369b2777e3649761f5808ae432cb1c24ca9438c8be0079c531659141344cd1fd0a4f28419497f9722a3daafe3b4186f6b6457e0ddf252ad1be2c89b69c2b068fc378daa952ba7f163c4a11628f55a4df523b3efa164736f6c6343000813000a",
  "linkReferences": {},
  "deployedLinkReferences": {}
}