{
  "_format": "hh-sol-artifact-1",
  "contractName": "HemShop",
  "sourceName": "contracts/HemShop.sol",
  "abi": [
    {
      "inputs": [
        {
          "internalType": "uint256",
          "name": "_pct",
          "type": "uint256"
        }
      ],
      "stateMutability": "nonpayable",
      "type": "constructor"
    },
    {
      "anonymous": false,
      "inputs": [
        {
          "indexed": false,
          "internalType": "address",
          "name": "admin",
          "type": "address"
        },
        {
          "indexed": false,
          "internalType": "address",
          "name": "impersonatedAccount",
          "type": "address"
        }
      ],
      "name": "AdminImpersonationChanged",
      "type": "event"
    },
    {
      "anonymous": false,
      "inputs": [
        {
          "indexed": true,
          "internalType": "address",
          "name": "owner",
          "type": "address"
        },
        {
          "indexed": true,
          "internalType": "address",
          "name": "approved",
          "type": "address"
        },
        {
          "indexed": true,
          "internalType": "uint256",
          "name": "tokenId",
          "type": "uint256"
        }
      ],
      "name": "Approval",
      "type": "event"
    },
    {
      "anonymous": false,
      "inputs": [
        {
          "indexed": true,
          "internalType": "address",
          "name": "owner",
          "type": "address"
        },
        {
          "indexed": true,
          "internalType": "address",
          "name": "operator",
          "type": "address"
        },
        {
          "indexed": false,
          "internalType": "bool",
          "name": "approved",
          "type": "bool"
        }
      ],
      "name": "ApprovalForAll",
      "type": "event"
    },
    {
      "anonymous": false,
      "inputs": [
        {
          "indexed": true,
          "internalType": "address",
          "name": "seller",
          "type": "address"
        },
        {
          "indexed": false,
          "internalType": "uint256",
          "name": "newBalance",
          "type": "uint256"
        }
      ],
      "name": "BalanceUpdated",
      "type": "event"
    },
    {
      "anonymous": false,
      "inputs": [
        {
          "indexed": true,
          "internalType": "uint256",
          "name": "id",
          "type": "uint256"
        },
        {
          "indexed": false,
          "internalType": "string",
          "name": "name",
          "type": "string"
        }
      ],
      "name": "CategoryCreated",
      "type": "event"
    },
    {
      "anonymous": false,
      "inputs": [
        {
          "indexed": true,
          "internalType": "uint256",
          "name": "id",
          "type": "uint256"
        },
        {
          "indexed": false,
          "internalType": "string",
          "name": "name",
          "type": "string"
        },
        {
          "indexed": false,
          "internalType": "bool",
          "name": "isActive",
          "type": "bool"
        }
      ],
      "name": "CategoryUpdated",
      "type": "event"
    },
    {
      "anonymous": false,
      "inputs": [
        {
          "indexed": true,
          "internalType": "uint256",
          "name": "productId",
          "type": "uint256"
        },
        {
          "indexed": true,
          "internalType": "address",
          "name": "buyer",
          "type": "address"
        },
        {
          "indexed": false,
          "internalType": "bool",
          "name": "isDelivered",
          "type": "bool"
        }
      ],
      "name": "DeliveryStatusUpdated",
      "type": "event"
    },
    {
      "anonymous": false,
      "inputs": [
        {
          "indexed": true,
          "internalType": "address",
          "name": "previousOwner",
          "type": "address"
        },
        {
          "indexed": true,
          "internalType": "address",
          "name": "newOwner",
          "type": "address"
        }
      ],
      "name": "OwnershipTransferred",
      "type": "event"
    },
    {
      "anonymous": false,
      "inputs": [
        {
          "indexed": true,
          "internalType": "uint256",
          "name": "productId",
          "type": "uint256"
        },
        {
          "indexed": true,
          "internalType": "address",
          "name": "buyer",
          "type": "address"
        },
        {
          "indexed": true,
          "internalType": "address",
          "name": "seller",
          "type": "address"
        },
        {
          "indexed": false,
          "internalType": "uint256",
          "name": "price",
          "type": "uint256"
        },
        {
          "indexed": false,
          "internalType": "uint256",
          "name": "timestamp",
          "type": "uint256"
        }
      ],
      "name": "ProductPurchased",
      "type": "event"
    },
    {
      "anonymous": false,
      "inputs": [
        {
          "indexed": true,
          "internalType": "uint256",
          "name": "productId",
          "type": "uint256"
        },
        {
          "indexed": true,
          "internalType": "address",
          "name": "buyer",
          "type": "address"
        },
        {
          "indexed": true,
          "internalType": "address",
          "name": "seller",
          "type": "address"
        },
        {
          "indexed": false,
          "internalType": "uint256",
          "name": "totalAmount",
          "type": "uint256"
        },
        {
          "indexed": false,
          "internalType": "uint256",
          "name": "basePrice",
          "type": "uint256"
        },
        {
          "indexed": false,
          "internalType": "uint256",
          "name": "timestamp",
          "type": "uint256"
        }
      ],
      "name": "PurchaseRecorded",
      "type": "event"
    },
    {
      "anonymous": false,
      "inputs": [
        {
          "indexed": true,
          "internalType": "address",
          "name": "seller",
          "type": "address"
        },
        {
          "indexed": false,
          "internalType": "uint256",
          "name": "timestamp",
          "type": "uint256"
        }
      ],
      "name": "SellerRegistered",
      "type": "event"
    },
    {
      "anonymous": false,
      "inputs": [
        {
          "indexed": true,
          "internalType": "address",
          "name": "seller",
          "type": "address"
        },
        {
          "indexed": false,
          "internalType": "enum HemShop.SellerStatus",
          "name": "status",
          "type": "uint8"
        }
      ],
      "name": "SellerStatusUpdated",
      "type": "event"
    },
    {
      "anonymous": false,
      "inputs": [
        {
          "indexed": true,
          "internalType": "uint256",
          "name": "id",
          "type": "uint256"
        },
        {
          "indexed": true,
          "internalType": "uint256",
          "name": "parentId",
          "type": "uint256"
        },
        {
          "indexed": false,
          "internalType": "string",
          "name": "name",
          "type": "string"
        }
      ],
      "name": "SubCategoryCreated",
      "type": "event"
    },
    {
      "anonymous": false,
      "inputs": [
        {
          "indexed": true,
          "internalType": "uint256",
          "name": "id",
          "type": "uint256"
        },
        {
          "indexed": false,
          "internalType": "string",
          "name": "name",
          "type": "string"
        },
        {
          "indexed": false,
          "internalType": "bool",
          "name": "isActive",
          "type": "bool"
        }
      ],
      "name": "SubCategoryUpdated",
      "type": "event"
    },
    {
      "anonymous": false,
      "inputs": [
        {
          "indexed": true,
          "internalType": "address",
          "name": "from",
          "type": "address"
        },
        {
          "indexed": true,
          "internalType": "address",
          "name": "to",
          "type": "address"
        },
        {
          "indexed": true,
          "internalType": "uint256",
          "name": "tokenId",
          "type": "uint256"
        }
      ],
      "name": "Transfer",
      "type": "event"
    },
    {
      "anonymous": false,
      "inputs": [
        {
          "indexed": true,
          "internalType": "address",
          "name": "user",
          "type": "address"
        },
        {
          "indexed": false,
          "internalType": "string",
          "name": "name",
          "type": "string"
        }
      ],
      "name": "UserRegistered",
      "type": "event"
    },
    {
      "inputs": [
        {
          "internalType": "address",
          "name": "",
          "type": "address"
        }
      ],
      "name": "adminImpersonating",
      "outputs": [
        {
          "internalType": "address",
          "name": "",
          "type": "address"
        }
      ],
      "stateMutability": "view",
      "type": "function"
    },
    {
      "inputs": [
        {
          "internalType": "address",
          "name": "to",
          "type": "address"
        },
        {
          "internalType": "uint256",
          "name": "tokenId",
          "type": "uint256"
        }
      ],
      "name": "approve",
      "outputs": [],
      "stateMutability": "nonpayable",
      "type": "function"
    },
    {
      "inputs": [
        {
          "internalType": "address",
          "name": "owner",
          "type": "address"
        }
      ],
      "name": "balanceOf",
      "outputs": [
        {
          "internalType": "uint256",
          "name": "",
          "type": "uint256"
        }
      ],
      "stateMutability": "view",
      "type": "function"
    },
    {
      "inputs": [
        {
          "internalType": "uint256",
          "name": "productId",
          "type": "uint256"
        },
        {
          "components": [
            {
              "internalType": "string",
              "name": "fullName",
              "type": "string"
            },
            {
              "internalType": "string",
              "name": "streetAddress",
              "type": "string"
            },
            {
              "internalType": "string",
              "name": "city",
              "type": "string"
            },
            {
              "internalType": "string",
              "name": "state",
              "type": "string"
            },
            {
              "internalType": "string",
              "name": "country",
              "type": "string"
            },
            {
              "internalType": "string",
              "name": "postalCode",
              "type": "string"
            },
            {
              "internalType": "string",
              "name": "phone",
              "type": "string"
            },
            {
              "internalType": "string",
              "name": "email",
              "type": "string"
            }
          ],
          "internalType": "struct HemShop.ShippingDetails",
          "name": "shippingDetails",
          "type": "tuple"
        }
      ],
      "name": "buyProduct",
      "outputs": [],
      "stateMutability": "payable",
      "type": "function"
    },
    {
      "inputs": [
        {
          "internalType": "address",
          "name": "",
          "type": "address"
        },
        {
          "internalType": "uint256",
          "name": "",
          "type": "uint256"
        }
      ],
      "name": "buyerPurchaseHistory",
      "outputs": [
        {
          "internalType": "uint256",
          "name": "productId",
          "type": "uint256"
        },
        {
          "internalType": "uint256",
          "name": "totalAmount",
          "type": "uint256"
        },
        {
          "internalType": "uint256",
          "name": "basePrice",
          "type": "uint256"
        },
        {
          "internalType": "uint256",
          "name": "timestamp",
          "type": "uint256"
        },
        {
          "internalType": "address",
          "name": "buyer",
          "type": "address"
        },
        {
          "internalType": "address",
          "name": "seller",
          "type": "address"
        },
        {
          "internalType": "bool",
          "name": "isDelivered",
          "type": "bool"
        },
        {
          "components": [
            {
              "internalType": "string",
              "name": "fullName",
              "type": "string"
            },
            {
              "internalType": "string",
              "name": "streetAddress",
              "type": "string"
            },
            {
              "internalType": "string",
              "name": "city",
              "type": "string"
            },
            {
              "internalType": "string",
              "name": "state",
              "type": "string"
            },
            {
              "internalType": "string",
              "name": "country",
              "type": "string"
            },
            {
              "internalType": "string",
              "name": "postalCode",
              "type": "string"
            },
            {
              "internalType": "string",
              "name": "phone",
              "type": "string"
            },
            {
              "internalType": "string",
              "name": "email",
              "type": "string"
            }
          ],
          "internalType": "struct HemShop.ShippingDetails",
          "name": "shippingDetails",
          "type": "tuple"
        }
      ],
      "stateMutability": "view",
      "type": "function"
    },
    {
      "inputs": [
        {
          "internalType": "uint256",
          "name": "newPct",
          "type": "uint256"
        }
      ],
      "name": "changeServicePct",
      "outputs": [],
      "stateMutability": "nonpayable",
      "type": "function"
    },
    {
      "inputs": [
        {
          "internalType": "string",
          "name": "_name",
          "type": "string"
        }
      ],
      "name": "createCategory",
      "outputs": [],
      "stateMutability": "nonpayable",
      "type": "function"
    },
    {
      "inputs": [
        {
          "components": [
            {
              "internalType": "string",
              "name": "name",
              "type": "string"
            },
            {
              "internalType": "string",
              "name": "description",
              "type": "string"
            },
            {
              "internalType": "uint256",
              "name": "price",
              "type": "uint256"
            },
            {
              "internalType": "uint256",
              "name": "stock",
              "type": "uint256"
            },
            {
              "internalType": "string[]",
              "name": "colors",
              "type": "string[]"
            },
            {
              "internalType": "string[]",
              "name": "sizes",
              "type": "string[]"
            },
            {
              "internalType": "string[]",
              "name": "images",
              "type": "string[]"
            },
            {
              "internalType": "uint256",
              "name": "categoryId",
              "type": "uint256"
            },
            {
              "internalType": "uint256",
              "name": "subCategoryId",
              "type": "uint256"
            },
            {
              "internalType": "uint256",
              "name": "weight",
              "type": "uint256"
            },
            {
              "internalType": "string",
              "name": "model",
              "type": "string"
            },
            {
              "internalType": "string",
              "name": "brand",
              "type": "string"
            },
            {
              "internalType": "uint256",
              "name": "sku",
              "type": "uint256"
            }
          ],
          "internalType": "struct HemShop.ProductInput",
          "name": "input",
          "type": "tuple"
        }
      ],
      "name": "createProduct",
      "outputs": [],
      "stateMutability": "nonpayable",
      "type": "function"
    },
    {
      "inputs": [
        {
          "internalType": "uint256",
          "name": "productId",
          "type": "uint256"
        },
        {
          "internalType": "uint256",
          "name": "rating",
          "type": "uint256"
        },
        {
          "internalType": "string",
          "name": "comment",
          "type": "string"
        }
      ],
      "name": "createReview",
      "outputs": [],
      "stateMutability": "nonpayable",
      "type": "function"
    },
    {
      "inputs": [
        {
          "internalType": "uint256",
          "name": "parentId",
          "type": "uint256"
        },
        {
          "internalType": "string[]",
          "name": "names",
          "type": "string[]"
        }
      ],
      "name": "createSubCategoriesBulk",
      "outputs": [],
      "stateMutability": "nonpayable",
      "type": "function"
    },
    {
      "inputs": [
        {
          "internalType": "uint256",
          "name": "_parentId",
          "type": "uint256"
        },
        {
          "internalType": "string",
          "name": "_name",
          "type": "string"
        }
      ],
      "name": "createSubCategory",
      "outputs": [],
      "stateMutability": "nonpayable",
      "type": "function"
    },
    {
      "inputs": [
        {
          "internalType": "uint256",
          "name": "_id",
          "type": "uint256"
        }
      ],
      "name": "deleteCategory",
      "outputs": [],
      "stateMutability": "nonpayable",
      "type": "function"
    },
    {
      "inputs": [
        {
          "internalType": "uint256",
          "name": "productId",
          "type": "uint256"
        }
      ],
      "name": "deleteProduct",
      "outputs": [],
      "stateMutability": "nonpayable",
      "type": "function"
    },
    {
      "inputs": [
        {
          "internalType": "uint256",
          "name": "productId",
          "type": "uint256"
        },
        {
          "internalType": "uint256",
          "name": "reviewId",
          "type": "uint256"
        }
      ],
      "name": "deleteReview",
      "outputs": [],
      "stateMutability": "nonpayable",
      "type": "function"
    },
    {
      "inputs": [
        {
          "internalType": "uint256",
          "name": "_id",
          "type": "uint256"
        }
      ],
      "name": "deleteSubCategory",
      "outputs": [],
      "stateMutability": "nonpayable",
      "type": "function"
    },
    {
      "inputs": [],
      "name": "getAllCategories",
      "outputs": [
        {
          "internalType": "uint256[]",
          "name": "ids",
          "type": "uint256[]"
        },
        {
          "internalType": "string[]",
          "name": "names",
          "type": "string[]"
        },
        {
          "internalType": "bool[]",
          "name": "activeStates",
          "type": "bool[]"
        },
        {
          "internalType": "uint256[][]",
          "name": "subCategoryIdArrays",
          "type": "uint256[][]"
        }
      ],
      "stateMutability": "view",
      "type": "function"
    },
    {
      "inputs": [],
      "name": "getAllProducts",
      "outputs": [
        {
          "components": [
            {
              "internalType": "uint256",
              "name": "id",
              "type": "uint256"
            },
            {
              "internalType": "address",
              "name": "seller",
              "type": "address"
            },
            {
              "internalType": "string",
              "name": "name",
              "type": "string"
            },
            {
              "internalType": "string",
              "name": "description",
              "type": "string"
            },
            {
              "internalType": "uint256",
              "name": "price",
              "type": "uint256"
            },
            {
              "internalType": "uint256",
              "name": "stock",
              "type": "uint256"
            },
            {
              "internalType": "string[]",
              "name": "colors",
              "type": "string[]"
            },
            {
              "internalType": "string[]",
              "name": "sizes",
              "type": "string[]"
            },
            {
              "internalType": "string[]",
              "name": "images",
              "type": "string[]"
            },
            {
              "internalType": "string",
              "name": "category",
              "type": "string"
            },
            {
              "internalType": "string",
              "name": "subCategory",
              "type": "string"
            },
            {
              "internalType": "uint256",
              "name": "weight",
              "type": "uint256"
            },
            {
              "internalType": "string",
              "name": "model",
              "type": "string"
            },
            {
              "internalType": "string",
              "name": "brand",
              "type": "string"
            },
            {
              "internalType": "uint256",
              "name": "sku",
              "type": "uint256"
            },
            {
              "internalType": "bool",
              "name": "soldout",
              "type": "bool"
            },
            {
              "internalType": "bool",
              "name": "wishlist",
              "type": "bool"
            },
            {
              "internalType": "bool",
              "name": "deleted",
              "type": "bool"
            },
            {
              "components": [
                {
                  "internalType": "uint256",
                  "name": "reviewId",
                  "type": "uint256"
                },
                {
                  "internalType": "address",
                  "name": "reviewer",
                  "type": "address"
                },
                {
                  "internalType": "uint256",
                  "name": "rating",
                  "type": "uint256"
                },
                {
                  "internalType": "string",
                  "name": "comment",
                  "type": "string"
                },
                {
                  "internalType": "bool",
                  "name": "deleted",
                  "type": "bool"
                },
                {
                  "internalType": "uint256",
                  "name": "timestamp",
                  "type": "uint256"
                }
              ],
              "internalType": "struct HemShop.ReviewStruct[]",
              "name": "reviews",
              "type": "tuple[]"
            }
          ],
          "internalType": "struct HemShop.ProductStruct[]",
          "name": "",
          "type": "tuple[]"
        }
      ],
      "stateMutability": "view",
      "type": "function"
    },
    {
      "inputs": [],
      "name": "getAllRegisteredSellers",
      "outputs": [
        {
          "internalType": "address[]",
          "name": "",
          "type": "address[]"
        }
      ],
      "stateMutability": "view",
      "type": "function"
    },
    {
      "inputs": [
        {
          "internalType": "uint256",
          "name": "tokenId",
          "type": "uint256"
        }
      ],
      "name": "getApproved",
      "outputs": [
        {
          "internalType": "address",
          "name": "",
          "type": "address"
        }
      ],
      "stateMutability": "view",
      "type": "function"
    },
    {
      "inputs": [
        {
          "internalType": "address",
          "name": "buyer",
          "type": "address"
        }
      ],
      "name": "getBuyerPurchaseHistory",
      "outputs": [
        {
          "components": [
            {
              "internalType": "uint256",
              "name": "productId",
              "type": "uint256"
            },
            {
              "internalType": "uint256",
              "name": "totalAmount",
              "type": "uint256"
            },
            {
              "internalType": "uint256",
              "name": "basePrice",
              "type": "uint256"
            },
            {
              "internalType": "uint256",
              "name": "timestamp",
              "type": "uint256"
            },
            {
              "internalType": "address",
              "name": "buyer",
              "type": "address"
            },
            {
              "internalType": "address",
              "name": "seller",
              "type": "address"
            },
            {
              "internalType": "bool",
              "name": "isDelivered",
              "type": "bool"
            },
            {
              "components": [
                {
                  "internalType": "string",
                  "name": "fullName",
                  "type": "string"
                },
                {
                  "internalType": "string",
                  "name": "streetAddress",
                  "type": "string"
                },
                {
                  "internalType": "string",
                  "name": "city",
                  "type": "string"
                },
                {
                  "internalType": "string",
                  "name": "state",
                  "type": "string"
                },
                {
                  "internalType": "string",
                  "name": "country",
                  "type": "string"
                },
                {
                  "internalType": "string",
                  "name": "postalCode",
                  "type": "string"
                },
                {
                  "internalType": "string",
                  "name": "phone",
                  "type": "string"
                },
                {
                  "internalType": "string",
                  "name": "email",
                  "type": "string"
                }
              ],
              "internalType": "struct HemShop.ShippingDetails",
              "name": "shippingDetails",
              "type": "tuple"
            }
          ],
          "internalType": "struct HemShop.PurchaseHistoryStruct[]",
          "name": "",
          "type": "tuple[]"
        }
      ],
      "stateMutability": "view",
      "type": "function"
    },
    {
      "inputs": [
        {
          "internalType": "uint256",
          "name": "_id",
          "type": "uint256"
        }
      ],
      "name": "getCategory",
      "outputs": [
        {
          "internalType": "uint256",
          "name": "id",
          "type": "uint256"
        },
        {
          "internalType": "string",
          "name": "name",
          "type": "string"
        },
        {
          "internalType": "bool",
          "name": "isActive",
          "type": "bool"
        },
        {
          "internalType": "uint256[]",
          "name": "subCategoryIds",
          "type": "uint256[]"
        }
      ],
      "stateMutability": "view",
      "type": "function"
    },
    {
      "inputs": [],
      "name": "getMyProducts",
      "outputs": [
        {
          "components": [
            {
              "internalType": "uint256",
              "name": "id",
              "type": "uint256"
            },
            {
              "internalType": "address",
              "name": "seller",
              "type": "address"
            },
            {
              "internalType": "string",
              "name": "name",
              "type": "string"
            },
            {
              "internalType": "string",
              "name": "description",
              "type": "string"
            },
            {
              "internalType": "uint256",
              "name": "price",
              "type": "uint256"
            },
            {
              "internalType": "uint256",
              "name": "stock",
              "type": "uint256"
            },
            {
              "internalType": "string[]",
              "name": "colors",
              "type": "string[]"
            },
            {
              "internalType": "string[]",
              "name": "sizes",
              "type": "string[]"
            },
            {
              "internalType": "string[]",
              "name": "images",
              "type": "string[]"
            },
            {
              "internalType": "string",
              "name": "category",
              "type": "string"
            },
            {
              "internalType": "string",
              "name": "subCategory",
              "type": "string"
            },
            {
              "internalType": "uint256",
              "name": "weight",
              "type": "uint256"
            },
            {
              "internalType": "string",
              "name": "model",
              "type": "string"
            },
            {
              "internalType": "string",
              "name": "brand",
              "type": "string"
            },
            {
              "internalType": "uint256",
              "name": "sku",
              "type": "uint256"
            },
            {
              "internalType": "bool",
              "name": "soldout",
              "type": "bool"
            },
            {
              "internalType": "bool",
              "name": "wishlist",
              "type": "bool"
            },
            {
              "internalType": "bool",
              "name": "deleted",
              "type": "bool"
            },
            {
              "components": [
                {
                  "internalType": "uint256",
                  "name": "reviewId",
                  "type": "uint256"
                },
                {
                  "internalType": "address",
                  "name": "reviewer",
                  "type": "address"
                },
                {
                  "internalType": "uint256",
                  "name": "rating",
                  "type": "uint256"
                },
                {
                  "internalType": "string",
                  "name": "comment",
                  "type": "string"
                },
                {
                  "internalType": "bool",
                  "name": "deleted",
                  "type": "bool"
                },
                {
                  "internalType": "uint256",
                  "name": "timestamp",
                  "type": "uint256"
                }
              ],
              "internalType": "struct HemShop.ReviewStruct[]",
              "name": "reviews",
              "type": "tuple[]"
            }
          ],
          "internalType": "struct HemShop.ProductStruct[]",
          "name": "",
          "type": "tuple[]"
        }
      ],
      "stateMutability": "view",
      "type": "function"
    },
    {
      "inputs": [
        {
          "internalType": "uint256",
          "name": "productId",
          "type": "uint256"
        }
      ],
      "name": "getProduct",
      "outputs": [
        {
          "components": [
            {
              "internalType": "uint256",
              "name": "id",
              "type": "uint256"
            },
            {
              "internalType": "address",
              "name": "seller",
              "type": "address"
            },
            {
              "internalType": "string",
              "name": "name",
              "type": "string"
            },
            {
              "internalType": "string",
              "name": "description",
              "type": "string"
            },
            {
              "internalType": "uint256",
              "name": "price",
              "type": "uint256"
            },
            {
              "internalType": "uint256",
              "name": "stock",
              "type": "uint256"
            },
            {
              "internalType": "string[]",
              "name": "colors",
              "type": "string[]"
            },
            {
              "internalType": "string[]",
              "name": "sizes",
              "type": "string[]"
            },
            {
              "internalType": "string[]",
              "name": "images",
              "type": "string[]"
            },
            {
              "internalType": "string",
              "name": "category",
              "type": "string"
            },
            {
              "internalType": "string",
              "name": "subCategory",
              "type": "string"
            },
            {
              "internalType": "uint256",
              "name": "weight",
              "type": "uint256"
            },
            {
              "internalType": "string",
              "name": "model",
              "type": "string"
            },
            {
              "internalType": "string",
              "name": "brand",
              "type": "string"
            },
            {
              "internalType": "uint256",
              "name": "sku",
              "type": "uint256"
            },
            {
              "internalType": "bool",
              "name": "soldout",
              "type": "bool"
            },
            {
              "internalType": "bool",
              "name": "wishlist",
              "type": "bool"
            },
            {
              "internalType": "bool",
              "name": "deleted",
              "type": "bool"
            },
            {
              "components": [
                {
                  "internalType": "uint256",
                  "name": "reviewId",
                  "type": "uint256"
                },
                {
                  "internalType": "address",
                  "name": "reviewer",
                  "type": "address"
                },
                {
                  "internalType": "uint256",
                  "name": "rating",
                  "type": "uint256"
                },
                {
                  "internalType": "string",
                  "name": "comment",
                  "type": "string"
                },
                {
                  "internalType": "bool",
                  "name": "deleted",
                  "type": "bool"
                },
                {
                  "internalType": "uint256",
                  "name": "timestamp",
                  "type": "uint256"
                }
              ],
              "internalType": "struct HemShop.ReviewStruct[]",
              "name": "reviews",
              "type": "tuple[]"
            }
          ],
          "internalType": "struct HemShop.ProductStruct",
          "name": "",
          "type": "tuple"
        }
      ],
      "stateMutability": "view",
      "type": "function"
    },
    {
      "inputs": [
        {
          "internalType": "string",
          "name": "categoryName",
          "type": "string"
        }
      ],
      "name": "getProductsByCategory",
      "outputs": [
        {
          "components": [
            {
              "internalType": "uint256",
              "name": "id",
              "type": "uint256"
            },
            {
              "internalType": "address",
              "name": "seller",
              "type": "address"
            },
            {
              "internalType": "string",
              "name": "name",
              "type": "string"
            },
            {
              "internalType": "string",
              "name": "description",
              "type": "string"
            },
            {
              "internalType": "uint256",
              "name": "price",
              "type": "uint256"
            },
            {
              "internalType": "uint256",
              "name": "stock",
              "type": "uint256"
            },
            {
              "internalType": "string[]",
              "name": "colors",
              "type": "string[]"
            },
            {
              "internalType": "string[]",
              "name": "sizes",
              "type": "string[]"
            },
            {
              "internalType": "string[]",
              "name": "images",
              "type": "string[]"
            },
            {
              "internalType": "string",
              "name": "category",
              "type": "string"
            },
            {
              "internalType": "string",
              "name": "subCategory",
              "type": "string"
            },
            {
              "internalType": "uint256",
              "name": "weight",
              "type": "uint256"
            },
            {
              "internalType": "string",
              "name": "model",
              "type": "string"
            },
            {
              "internalType": "string",
              "name": "brand",
              "type": "string"
            },
            {
              "internalType": "uint256",
              "name": "sku",
              "type": "uint256"
            },
            {
              "internalType": "bool",
              "name": "soldout",
              "type": "bool"
            },
            {
              "internalType": "bool",
              "name": "wishlist",
              "type": "bool"
            },
            {
              "internalType": "bool",
              "name": "deleted",
              "type": "bool"
            },
            {
              "components": [
                {
                  "internalType": "uint256",
                  "name": "reviewId",
                  "type": "uint256"
                },
                {
                  "internalType": "address",
                  "name": "reviewer",
                  "type": "address"
                },
                {
                  "internalType": "uint256",
                  "name": "rating",
                  "type": "uint256"
                },
                {
                  "internalType": "string",
                  "name": "comment",
                  "type": "string"
                },
                {
                  "internalType": "bool",
                  "name": "deleted",
                  "type": "bool"
                },
                {
                  "internalType": "uint256",
                  "name": "timestamp",
                  "type": "uint256"
                }
              ],
              "internalType": "struct HemShop.ReviewStruct[]",
              "name": "reviews",
              "type": "tuple[]"
            }
          ],
          "internalType": "struct HemShop.ProductStruct[]",
          "name": "",
          "type": "tuple[]"
        }
      ],
      "stateMutability": "view",
      "type": "function"
    },
    {
      "inputs": [
        {
          "internalType": "uint256",
          "name": "productId",
          "type": "uint256"
        }
      ],
      "name": "getReviews",
      "outputs": [
        {
          "components": [
            {
              "internalType": "uint256",
              "name": "reviewId",
              "type": "uint256"
            },
            {
              "internalType": "address",
              "name": "reviewer",
              "type": "address"
            },
            {
              "internalType": "uint256",
              "name": "rating",
              "type": "uint256"
            },
            {
              "internalType": "string",
              "name": "comment",
              "type": "string"
            },
            {
              "internalType": "bool",
              "name": "deleted",
              "type": "bool"
            },
            {
              "internalType": "uint256",
              "name": "timestamp",
              "type": "uint256"
            }
          ],
          "internalType": "struct HemShop.ReviewStruct[]",
          "name": "",
          "type": "tuple[]"
        }
      ],
      "stateMutability": "view",
      "type": "function"
    },
    {
      "inputs": [
        {
          "internalType": "address",
          "name": "seller",
          "type": "address"
        }
      ],
      "name": "getSeller",
      "outputs": [
        {
          "components": [
            {
              "internalType": "string",
              "name": "businessName",
              "type": "string"
            },
            {
              "internalType": "string",
              "name": "description",
              "type": "string"
            },
            {
              "internalType": "string",
              "name": "email",
              "type": "string"
            },
            {
              "internalType": "string",
              "name": "phone",
              "type": "string"
            },
            {
              "internalType": "string",
              "name": "logo",
              "type": "string"
            },
            {
              "internalType": "uint256",
              "name": "registeredAt",
              "type": "uint256"
            },
            {
              "internalType": "bool",
              "name": "termsAccepted",
              "type": "bool"
            }
          ],
          "internalType": "struct HemShop.SellerProfile",
          "name": "profile",
          "type": "tuple"
        },
        {
          "internalType": "enum HemShop.SellerStatus",
          "name": "status",
          "type": "uint8"
        },
        {
          "internalType": "uint256",
          "name": "balance",
          "type": "uint256"
        },
        {
          "internalType": "uint256[]",
          "name": "productIds",
          "type": "uint256[]"
        }
      ],
      "stateMutability": "view",
      "type": "function"
    },
    {
      "inputs": [
        {
          "internalType": "address",
          "name": "seller",
          "type": "address"
        }
      ],
      "name": "getSellerBalance",
      "outputs": [
        {
          "internalType": "uint256",
          "name": "",
          "type": "uint256"
        }
      ],
      "stateMutability": "view",
      "type": "function"
    },
    {
      "inputs": [
        {
          "internalType": "address",
          "name": "seller",
          "type": "address"
        }
      ],
      "name": "getSellerProducts",
      "outputs": [
        {
          "components": [
            {
              "internalType": "uint256",
              "name": "id",
              "type": "uint256"
            },
            {
              "internalType": "address",
              "name": "seller",
              "type": "address"
            },
            {
              "internalType": "string",
              "name": "name",
              "type": "string"
            },
            {
              "internalType": "string",
              "name": "description",
              "type": "string"
            },
            {
              "internalType": "uint256",
              "name": "price",
              "type": "uint256"
            },
            {
              "internalType": "uint256",
              "name": "stock",
              "type": "uint256"
            },
            {
              "internalType": "string[]",
              "name": "colors",
              "type": "string[]"
            },
            {
              "internalType": "string[]",
              "name": "sizes",
              "type": "string[]"
            },
            {
              "internalType": "string[]",
              "name": "images",
              "type": "string[]"
            },
            {
              "internalType": "string",
              "name": "category",
              "type": "string"
            },
            {
              "internalType": "string",
              "name": "subCategory",
              "type": "string"
            },
            {
              "internalType": "uint256",
              "name": "weight",
              "type": "uint256"
            },
            {
              "internalType": "string",
              "name": "model",
              "type": "string"
            },
            {
              "internalType": "string",
              "name": "brand",
              "type": "string"
            },
            {
              "internalType": "uint256",
              "name": "sku",
              "type": "uint256"
            },
            {
              "internalType": "bool",
              "name": "soldout",
              "type": "bool"
            },
            {
              "internalType": "bool",
              "name": "wishlist",
              "type": "bool"
            },
            {
              "internalType": "bool",
              "name": "deleted",
              "type": "bool"
            },
            {
              "components": [
                {
                  "internalType": "uint256",
                  "name": "reviewId",
                  "type": "uint256"
                },
                {
                  "internalType": "address",
                  "name": "reviewer",
                  "type": "address"
                },
                {
                  "internalType": "uint256",
                  "name": "rating",
                  "type": "uint256"
                },
                {
                  "internalType": "string",
                  "name": "comment",
                  "type": "string"
                },
                {
                  "internalType": "bool",
                  "name": "deleted",
                  "type": "bool"
                },
                {
                  "internalType": "uint256",
                  "name": "timestamp",
                  "type": "uint256"
                }
              ],
              "internalType": "struct HemShop.ReviewStruct[]",
              "name": "reviews",
              "type": "tuple[]"
            }
          ],
          "internalType": "struct HemShop.ProductStruct[]",
          "name": "",
          "type": "tuple[]"
        }
      ],
      "stateMutability": "view",
      "type": "function"
    },
    {
      "inputs": [
        {
          "internalType": "address",
          "name": "seller",
          "type": "address"
        }
      ],
      "name": "getSellerProfile",
      "outputs": [
        {
          "components": [
            {
              "internalType": "string",
              "name": "businessName",
              "type": "string"
            },
            {
              "internalType": "string",
              "name": "description",
              "type": "string"
            },
            {
              "internalType": "string",
              "name": "email",
              "type": "string"
            },
            {
              "internalType": "string",
              "name": "phone",
              "type": "string"
            },
            {
              "internalType": "string",
              "name": "logo",
              "type": "string"
            },
            {
              "internalType": "uint256",
              "name": "registeredAt",
              "type": "uint256"
            },
            {
              "internalType": "bool",
              "name": "termsAccepted",
              "type": "bool"
            }
          ],
          "internalType": "struct HemShop.SellerProfile",
          "name": "",
          "type": "tuple"
        }
      ],
      "stateMutability": "view",
      "type": "function"
    },
    {
      "inputs": [
        {
          "internalType": "address",
          "name": "seller",
          "type": "address"
        }
      ],
      "name": "getSellerPurchaseHistory",
      "outputs": [
        {
          "components": [
            {
              "internalType": "uint256",
              "name": "productId",
              "type": "uint256"
            },
            {
              "internalType": "uint256",
              "name": "totalAmount",
              "type": "uint256"
            },
            {
              "internalType": "uint256",
              "name": "basePrice",
              "type": "uint256"
            },
            {
              "internalType": "uint256",
              "name": "timestamp",
              "type": "uint256"
            },
            {
              "internalType": "address",
              "name": "buyer",
              "type": "address"
            },
            {
              "internalType": "address",
              "name": "seller",
              "type": "address"
            },
            {
              "internalType": "bool",
              "name": "isDelivered",
              "type": "bool"
            },
            {
              "components": [
                {
                  "internalType": "string",
                  "name": "fullName",
                  "type": "string"
                },
                {
                  "internalType": "string",
                  "name": "streetAddress",
                  "type": "string"
                },
                {
                  "internalType": "string",
                  "name": "city",
                  "type": "string"
                },
                {
                  "internalType": "string",
                  "name": "state",
                  "type": "string"
                },
                {
                  "internalType": "string",
                  "name": "country",
                  "type": "string"
                },
                {
                  "internalType": "string",
                  "name": "postalCode",
                  "type": "string"
                },
                {
                  "internalType": "string",
                  "name": "phone",
                  "type": "string"
                },
                {
                  "internalType": "string",
                  "name": "email",
                  "type": "string"
                }
              ],
              "internalType": "struct HemShop.ShippingDetails",
              "name": "shippingDetails",
              "type": "tuple"
            }
          ],
          "internalType": "struct HemShop.PurchaseHistoryStruct[]",
          "name": "",
          "type": "tuple[]"
        }
      ],
      "stateMutability": "view",
      "type": "function"
    },
    {
      "inputs": [
        {
          "internalType": "address",
          "name": "seller",
          "type": "address"
        }
      ],
      "name": "getSellerStatus",
      "outputs": [
        {
          "internalType": "enum HemShop.SellerStatus",
          "name": "",
          "type": "uint8"
        }
      ],
      "stateMutability": "view",
      "type": "function"
    },
    {
      "inputs": [
        {
          "internalType": "uint256",
          "name": "_id",
          "type": "uint256"
        }
      ],
      "name": "getSubCategory",
      "outputs": [
        {
          "internalType": "uint256",
          "name": "id",
          "type": "uint256"
        },
        {
          "internalType": "string",
          "name": "name",
          "type": "string"
        },
        {
          "internalType": "uint256",
          "name": "parentCategoryId",
          "type": "uint256"
        },
        {
          "internalType": "bool",
          "name": "isActive",
          "type": "bool"
        }
      ],
      "stateMutability": "view",
      "type": "function"
    },
    {
      "inputs": [
        {
          "internalType": "address",
          "name": "user",
          "type": "address"
        }
      ],
      "name": "getUser",
      "outputs": [
        {
          "internalType": "bool",
          "name": "isRegistered",
          "type": "bool"
        },
        {
          "components": [
            {
              "internalType": "string",
              "name": "name",
              "type": "string"
            },
            {
              "internalType": "string",
              "name": "email",
              "type": "string"
            },
            {
              "internalType": "string",
              "name": "avatar",
              "type": "string"
            },
            {
              "internalType": "uint256",
              "name": "registeredAt",
              "type": "uint256"
            },
            {
              "internalType": "bool",
              "name": "isActive",
              "type": "bool"
            }
          ],
          "internalType": "struct HemShop.UserProfile",
          "name": "profile",
          "type": "tuple"
        },
        {
          "internalType": "bool",
          "name": "isUserSeller",
          "type": "bool"
        },
        {
          "internalType": "enum HemShop.SellerStatus",
          "name": "sellerState",
          "type": "uint8"
        }
      ],
      "stateMutability": "view",
      "type": "function"
    },
    {
      "inputs": [
        {
          "internalType": "address",
          "name": "account",
          "type": "address"
        }
      ],
      "name": "impersonateAccount",
      "outputs": [],
      "stateMutability": "nonpayable",
      "type": "function"
    },
    {
      "inputs": [
        {
          "internalType": "address",
          "name": "owner",
          "type": "address"
        },
        {
          "internalType": "address",
          "name": "operator",
          "type": "address"
        }
      ],
      "name": "isApprovedForAll",
      "outputs": [
        {
          "internalType": "bool",
          "name": "",
          "type": "bool"
        }
      ],
      "stateMutability": "view",
      "type": "function"
    },
    {
      "inputs": [
        {
          "internalType": "uint256",
          "name": "productId",
          "type": "uint256"
        },
        {
          "internalType": "address",
          "name": "buyer",
          "type": "address"
        }
      ],
      "name": "markPurchaseDelivered",
      "outputs": [],
      "stateMutability": "nonpayable",
      "type": "function"
    },
    {
      "inputs": [],
      "name": "name",
      "outputs": [
        {
          "internalType": "string",
          "name": "",
          "type": "string"
        }
      ],
      "stateMutability": "view",
      "type": "function"
    },
    {
      "inputs": [],
      "name": "owner",
      "outputs": [
        {
          "internalType": "address",
          "name": "",
          "type": "address"
        }
      ],
      "stateMutability": "view",
      "type": "function"
    },
    {
      "inputs": [
        {
          "internalType": "uint256",
          "name": "tokenId",
          "type": "uint256"
        }
      ],
      "name": "ownerOf",
      "outputs": [
        {
          "internalType": "address",
          "name": "",
          "type": "address"
        }
      ],
      "stateMutability": "view",
      "type": "function"
    },
    {
      "inputs": [
        {
          "internalType": "uint256",
          "name": "",
          "type": "uint256"
        }
      ],
      "name": "productExists",
      "outputs": [
        {
          "internalType": "bool",
          "name": "",
          "type": "bool"
        }
      ],
      "stateMutability": "view",
      "type": "function"
    },
    {
      "inputs": [
        {
          "internalType": "uint256",
          "name": "",
          "type": "uint256"
        }
      ],
      "name": "products",
      "outputs": [
        {
          "internalType": "uint256",
          "name": "id",
          "type": "uint256"
        },
        {
          "internalType": "address",
          "name": "seller",
          "type": "address"
        },
        {
          "internalType": "string",
          "name": "name",
          "type": "string"
        },
        {
          "internalType": "string",
          "name": "description",
          "type": "string"
        },
        {
          "internalType": "uint256",
          "name": "price",
          "type": "uint256"
        },
        {
          "internalType": "uint256",
          "name": "stock",
          "type": "uint256"
        },
        {
          "internalType": "string",
          "name": "category",
          "type": "string"
        },
        {
          "internalType": "string",
          "name": "subCategory",
          "type": "string"
        },
        {
          "internalType": "uint256",
          "name": "weight",
          "type": "uint256"
        },
        {
          "internalType": "string",
          "name": "model",
          "type": "string"
        },
        {
          "internalType": "string",
          "name": "brand",
          "type": "string"
        },
        {
          "internalType": "uint256",
          "name": "sku",
          "type": "uint256"
        },
        {
          "internalType": "bool",
          "name": "soldout",
          "type": "bool"
        },
        {
          "internalType": "bool",
          "name": "wishlist",
          "type": "bool"
        },
        {
          "internalType": "bool",
          "name": "deleted",
          "type": "bool"
        }
      ],
      "stateMutability": "view",
      "type": "function"
    },
    {
      "inputs": [
        {
          "internalType": "string",
          "name": "businessName",
          "type": "string"
        },
        {
          "internalType": "string",
          "name": "description",
          "type": "string"
        },
        {
          "internalType": "string",
          "name": "email",
          "type": "string"
        },
        {
          "internalType": "string",
          "name": "phone",
          "type": "string"
        },
        {
          "internalType": "string",
          "name": "logo",
          "type": "string"
        }
      ],
      "name": "registerSeller",
      "outputs": [],
      "stateMutability": "nonpayable",
      "type": "function"
    },
    {
      "inputs": [
        {
          "internalType": "string",
          "name": "name",
          "type": "string"
        },
        {
          "internalType": "string",
          "name": "email",
          "type": "string"
        },
        {
          "internalType": "string",
          "name": "avatar",
          "type": "string"
        }
      ],
      "name": "registerUser",
      "outputs": [],
      "stateMutability": "nonpayable",
      "type": "function"
    },
    {
      "inputs": [
        {
          "internalType": "address",
          "name": "",
          "type": "address"
        }
      ],
      "name": "registeredSellers",
      "outputs": [
        {
          "internalType": "bool",
          "name": "",
          "type": "bool"
        }
      ],
      "stateMutability": "view",
      "type": "function"
    },
    {
      "inputs": [
        {
          "internalType": "address",
          "name": "",
          "type": "address"
        }
      ],
      "name": "registeredUsers",
      "outputs": [
        {
          "internalType": "bool",
          "name": "",
          "type": "bool"
        }
      ],
      "stateMutability": "view",
      "type": "function"
    },
    {
      "inputs": [],
      "name": "renounceOwnership",
      "outputs": [],
      "stateMutability": "nonpayable",
      "type": "function"
    },
    {
      "inputs": [
        {
          "internalType": "uint256",
          "name": "",
          "type": "uint256"
        }
      ],
      "name": "reviewExists",
      "outputs": [
        {
          "internalType": "bool",
          "name": "",
          "type": "bool"
        }
      ],
      "stateMutability": "view",
      "type": "function"
    },
    {
      "inputs": [
        {
          "internalType": "address",
          "name": "from",
          "type": "address"
        },
        {
          "internalType": "address",
          "name": "to",
          "type": "address"
        },
        {
          "internalType": "uint256",
          "name": "tokenId",
          "type": "uint256"
        }
      ],
      "name": "safeTransferFrom",
      "outputs": [],
      "stateMutability": "nonpayable",
      "type": "function"
    },
    {
      "inputs": [
        {
          "internalType": "address",
          "name": "from",
          "type": "address"
        },
        {
          "internalType": "address",
          "name": "to",
          "type": "address"
        },
        {
          "internalType": "uint256",
          "name": "tokenId",
          "type": "uint256"
        },
        {
          "internalType": "bytes",
          "name": "data",
          "type": "bytes"
        }
      ],
      "name": "safeTransferFrom",
      "outputs": [],
      "stateMutability": "nonpayable",
      "type": "function"
    },
    {
      "inputs": [
        {
          "internalType": "address",
          "name": "",
          "type": "address"
        }
      ],
      "name": "sellerBalances",
      "outputs": [
        {
          "internalType": "uint256",
          "name": "",
          "type": "uint256"
        }
      ],
      "stateMutability": "view",
      "type": "function"
    },
    {
      "inputs": [
        {
          "internalType": "address",
          "name": "",
          "type": "address"
        },
        {
          "internalType": "uint256",
          "name": "",
          "type": "uint256"
        }
      ],
      "name": "sellerProducts",
      "outputs": [
        {
          "internalType": "uint256",
          "name": "",
          "type": "uint256"
        }
      ],
      "stateMutability": "view",
      "type": "function"
    },
    {
      "inputs": [
        {
          "internalType": "address",
          "name": "",
          "type": "address"
        }
      ],
      "name": "sellerProfiles",
      "outputs": [
        {
          "internalType": "string",
          "name": "businessName",
          "type": "string"
        },
        {
          "internalType": "string",
          "name": "description",
          "type": "string"
        },
        {
          "internalType": "string",
          "name": "email",
          "type": "string"
        },
        {
          "internalType": "string",
          "name": "phone",
          "type": "string"
        },
        {
          "internalType": "string",
          "name": "logo",
          "type": "string"
        },
        {
          "internalType": "uint256",
          "name": "registeredAt",
          "type": "uint256"
        },
        {
          "internalType": "bool",
          "name": "termsAccepted",
          "type": "bool"
        }
      ],
      "stateMutability": "view",
      "type": "function"
    },
    {
      "inputs": [
        {
          "internalType": "address",
          "name": "",
          "type": "address"
        },
        {
          "internalType": "uint256",
          "name": "",
          "type": "uint256"
        }
      ],
      "name": "sellerPurchaseHistory",
      "outputs": [
        {
          "internalType": "uint256",
          "name": "productId",
          "type": "uint256"
        },
        {
          "internalType": "uint256",
          "name": "totalAmount",
          "type": "uint256"
        },
        {
          "internalType": "uint256",
          "name": "basePrice",
          "type": "uint256"
        },
        {
          "internalType": "uint256",
          "name": "timestamp",
          "type": "uint256"
        },
        {
          "internalType": "address",
          "name": "buyer",
          "type": "address"
        },
        {
          "internalType": "address",
          "name": "seller",
          "type": "address"
        },
        {
          "internalType": "bool",
          "name": "isDelivered",
          "type": "bool"
        },
        {
          "components": [
            {
              "internalType": "string",
              "name": "fullName",
              "type": "string"
            },
            {
              "internalType": "string",
              "name": "streetAddress",
              "type": "string"
            },
            {
              "internalType": "string",
              "name": "city",
              "type": "string"
            },
            {
              "internalType": "string",
              "name": "state",
              "type": "string"
            },
            {
              "internalType": "string",
              "name": "country",
              "type": "string"
            },
            {
              "internalType": "string",
              "name": "postalCode",
              "type": "string"
            },
            {
              "internalType": "string",
              "name": "phone",
              "type": "string"
            },
            {
              "internalType": "string",
              "name": "email",
              "type": "string"
            }
          ],
          "internalType": "struct HemShop.ShippingDetails",
          "name": "shippingDetails",
          "type": "tuple"
        }
      ],
      "stateMutability": "view",
      "type": "function"
    },
    {
      "inputs": [
        {
          "internalType": "address",
          "name": "",
          "type": "address"
        }
      ],
      "name": "sellerStatus",
      "outputs": [
        {
          "internalType": "enum HemShop.SellerStatus",
          "name": "",
          "type": "uint8"
        }
      ],
      "stateMutability": "view",
      "type": "function"
    },
    {
      "inputs": [],
      "name": "servicePct",
      "outputs": [
        {
          "internalType": "uint256",
          "name": "",
          "type": "uint256"
        }
      ],
      "stateMutability": "view",
      "type": "function"
    },
    {
      "inputs": [
        {
          "internalType": "address",
          "name": "operator",
          "type": "address"
        },
        {
          "internalType": "bool",
          "name": "approved",
          "type": "bool"
        }
      ],
      "name": "setApprovalForAll",
      "outputs": [],
      "stateMutability": "nonpayable",
      "type": "function"
    },
    {
      "inputs": [],
      "name": "stopImpersonating",
      "outputs": [],
      "stateMutability": "nonpayable",
      "type": "function"
    },
    {
      "inputs": [
        {
          "internalType": "bytes4",
          "name": "interfaceId",
          "type": "bytes4"
        }
      ],
      "name": "supportsInterface",
      "outputs": [
        {
          "internalType": "bool",
          "name": "",
          "type": "bool"
        }
      ],
      "stateMutability": "view",
      "type": "function"
    },
    {
      "inputs": [],
      "name": "symbol",
      "outputs": [
        {
          "internalType": "string",
          "name": "",
          "type": "string"
        }
      ],
      "stateMutability": "view",
      "type": "function"
    },
    {
      "inputs": [
        {
          "internalType": "uint256",
          "name": "tokenId",
          "type": "uint256"
        }
      ],
      "name": "tokenURI",
      "outputs": [
        {
          "internalType": "string",
          "name": "",
          "type": "string"
        }
      ],
      "stateMutability": "view",
      "type": "function"
    },
    {
      "inputs": [
        {
          "internalType": "address",
          "name": "from",
          "type": "address"
        },
        {
          "internalType": "address",
          "name": "to",
          "type": "address"
        },
        {
          "internalType": "uint256",
          "name": "tokenId",
          "type": "uint256"
        }
      ],
      "name": "transferFrom",
      "outputs": [],
      "stateMutability": "nonpayable",
      "type": "function"
    },
    {
      "inputs": [
        {
          "internalType": "address",
          "name": "newOwner",
          "type": "address"
        }
      ],
      "name": "transferOwnership",
      "outputs": [],
      "stateMutability": "nonpayable",
      "type": "function"
    },
    {
      "inputs": [
        {
          "internalType": "uint256",
          "name": "_id",
          "type": "uint256"
        },
        {
          "internalType": "string",
          "name": "_name",
          "type": "string"
        },
        {
          "internalType": "bool",
          "name": "_isActive",
          "type": "bool"
        }
      ],
      "name": "updateCategory",
      "outputs": [],
      "stateMutability": "nonpayable",
      "type": "function"
    },
    {
      "inputs": [
        {
          "internalType": "uint256",
          "name": "productId",
          "type": "uint256"
        },
        {
          "components": [
            {
              "internalType": "string",
              "name": "name",
              "type": "string"
            },
            {
              "internalType": "string",
              "name": "description",
              "type": "string"
            },
            {
              "internalType": "uint256",
              "name": "price",
              "type": "uint256"
            },
            {
              "internalType": "uint256",
              "name": "stock",
              "type": "uint256"
            },
            {
              "internalType": "string[]",
              "name": "colors",
              "type": "string[]"
            },
            {
              "internalType": "string[]",
              "name": "sizes",
              "type": "string[]"
            },
            {
              "internalType": "string[]",
              "name": "images",
              "type": "string[]"
            },
            {
              "internalType": "uint256",
              "name": "categoryId",
              "type": "uint256"
            },
            {
              "internalType": "uint256",
              "name": "subCategoryId",
              "type": "uint256"
            },
            {
              "internalType": "uint256",
              "name": "weight",
              "type": "uint256"
            },
            {
              "internalType": "string",
              "name": "model",
              "type": "string"
            },
            {
              "internalType": "string",
              "name": "brand",
              "type": "string"
            },
            {
              "internalType": "uint256",
              "name": "sku",
              "type": "uint256"
            }
          ],
          "internalType": "struct HemShop.ProductInput",
          "name": "input",
          "type": "tuple"
        }
      ],
      "name": "updateProduct",
      "outputs": [],
      "stateMutability": "nonpayable",
      "type": "function"
    },
    {
      "inputs": [
        {
          "internalType": "uint256",
          "name": "_id",
          "type": "uint256"
        },
        {
          "internalType": "string",
          "name": "_name",
          "type": "string"
        },
        {
          "internalType": "bool",
          "name": "_isActive",
          "type": "bool"
        }
      ],
      "name": "updateSubCategory",
      "outputs": [],
      "stateMutability": "nonpayable",
      "type": "function"
    },
    {
      "inputs": [
        {
          "internalType": "address",
          "name": "",
          "type": "address"
        }
      ],
      "name": "userProfiles",
      "outputs": [
        {
          "internalType": "string",
          "name": "name",
          "type": "string"
        },
        {
          "internalType": "string",
          "name": "email",
          "type": "string"
        },
        {
          "internalType": "string",
          "name": "avatar",
          "type": "string"
        },
        {
          "internalType": "uint256",
          "name": "registeredAt",
          "type": "uint256"
        },
        {
          "internalType": "bool",
          "name": "isActive",
          "type": "bool"
        }
      ],
      "stateMutability": "view",
      "type": "function"
    },
    {
      "inputs": [
        {
          "internalType": "uint256",
          "name": "",
          "type": "uint256"
        }
      ],
      "name": "usersList",
      "outputs": [
        {
          "internalType": "address",
          "name": "",
          "type": "address"
        }
      ],
      "stateMutability": "view",
      "type": "function"
    },
    {
      "inputs": [],
      "name": "withdraw",
      "outputs": [],
      "stateMutability": "nonpayable",
      "type": "function"
    }
  ],
  "bytecode": "0x6080346200037757601f90601f196001600160401b03620097033881900385810184168501838111868210176200037c57859282916040528339602094859181010312620003775751936200005362000392565b926007845266048656d53686f760cc1b858501526200007162000392565b60038082526204873760ec1b8783015260008054336001600160a01b031982168117835592989394919392906001600160a01b03167f8be0079c531659141344cd1fd0a4f28419497f9722a3daafe3b4186f6b6457e08580a360019687805580519087821162000363576002548981811c9116801562000358575b858210146200034457908188849311620002f0575b5084908883116001146200028e57869262000282575b5050600019828b1b1c191690881b176002555b83519586116200026e5787548781811c9116801562000263575b838210146200024f5785811162000207575b5081948611600114620001a25750509183949184939462000196575b50501b9160001990841b1c19161790555b600d556040516193509081620003b38239f35b01519250388062000172565b8783528183209493928692918316915b88838310620001ec5750505010620001d3575b505050811b01905562000183565b015160001983861b60f8161c19169055388080620001c5565b858701518855909601959485019487935090810190620001b2565b8884528284208680890160051c820192858a1062000245575b0160051c019088905b8281106200023957505062000156565b85815501889062000229565b9250819262000220565b634e487b7160e01b84526022600452602484fd5b90607f169062000144565b634e487b7160e01b83526041600452602483fd5b01519050388062000117565b90848b9416916002885286882092885b88828210620002d95750508411620002c0575b505050811b016002556200012a565b0151600019838d1b60f8161c19169055388080620002b1565b8385015186558e979095019493840193016200029e565b909150600286528486208880850160051c8201928786106200033a575b918c91869594930160051c01915b8281106200032b57505062000101565b8881558594508c91016200031b565b925081926200030d565b634e487b7160e01b86526022600452602486fd5b90607f1690620000ec565b634e487b7160e01b85526041600452602485fd5b600080fd5b634e487b7160e01b600052604160045260246000fd5b60408051919082016001600160401b038111838210176200037c5760405256fe608080604052600436101561001357600080fd5b60003560e01c908162d64e7614616a605750806301ffc9a7146169f257806302ee3a521461677757806306fdde03146166d2578063081812fc146166b4578063095ea7b31461653a5780630e50cee5146164fb57806311aa5b34146164d75780631385fd921461648357806316d81b38146162a057806317e98548146162285780632148893f146158ed57806323b872dd146161ff57806324d41a0314615fdc578063317a082714615e95578063332d56d714615dd45780633c2575d514615cef5780633ccfd60b14615bea57806342842e0e14615bc25780634293e5ce14615ac057806345de84db14615a7e578063502aa3b514615a355780635ad6a5801461598a5780635be2095914615927578063607eb4e4146158ed5780636352211e146158bd578063661e17121461517957806366224d8e146150235780636f2c859914614f785780636f77926b14614df557806370a0823114614d5e578063715018a614614d175780637acc0b2014614b585780637d3978db1461493a5780637e8555ed14614181578063868a5461146136715780638da5cb5b146136485780638f38cc7b146133225780639196dfcb1461320857806395d89b41146131265780639d4a225514612f935780639fa44dbf14612f4b578063a22cb46514612e80578063a22fb38714612dd5578063a323d29e14612c82578063af55ed6414612c51578063b27e169714612b6c578063b88d4fde14612b0d578063b95a062814612ad2578063b9db15b4146128b8578063c1302b3414612860578063c64b8a8f14612821578063c87b56dd146127c7578063ceca737f14612743578063d2bc9d7814612496578063d637dcfa14611ff7578063dadd0a5714611cf7578063dc29868214611ad6578063e01ef6e614611ab8578063e40971e514610c57578063e585cb2c14610bc7578063e6a93e161461090d578063e985e9c5146108b7578063eb11c43414610885578063ed90c7b71461074b578063f2fde38b1461069c578063f3052d26146105dc5763fdca4ca31461030a57600080fd5b346105d75760003660031901126105d75760088054600060015b828111156105765750610336906183d2565b9060009260015b8281111561035757604051806103538682616d1a565b0390f35b600081815260156020908152604090912060018101546001600160a01b0316919033831480610564575b610397575b505050610392906183c3565b61033d565b604097939751926103a784616da8565b81548452828401526040516103ca816103c38160028601616fa5565b0382616e67565b60408401526040516103e3816103c38160038601616fa5565b606084015260048101546080840152600581015460a084015260069061040a8282016182fd565b60c085015261041b600782016182fd565b60e085015261042b8682016182fd565b610100850152604051610445816103c38160098601616fa5565b61012085015260405161045f816103c381600a8601616fa5565b610140850152600b810154610160850152604051610484816103c381600c8601616fa5565b61018085015260405161049e816103c381600d8601616fa5565b6101a0850152600e8101546101c0850152600f81015460ff80821615156101e087015281881c81161515610200870152601091821c16151561022086015201805491906104ea83617ed9565b936104f86040519586616e67565b8385526000918252808220918186015b8582106105485750505050505091816103929361024061053f94015261052e8288618422565b526105398187618422565b506183c3565b94903880610386565b848360019261055687618362565b815201940191019092610508565b5060ff600f82015460101c1615610381565b600081815260156020526040902060018101546001600160a01b0316331490816105c4575b506105af575b6105aa906183c3565b610324565b906105bc6105aa916183c3565b9190506105a1565b60ff9150600f015460101c16153861059b565b600080fd5b346105d75760203660031901126105d7576004356000526018602052604060002060405161060981616dfb565b815481526103536040519161062c836106258160018801616fa5565b0384616e67565b60208101928352610650600360ff6002870154169560408401961515875201618597565b9060608101918252610664815115156184e8565b5192519351151590516106896040519586958652608060208701526080860190616a8d565b916040850152838203606085015261738e565b346105d75760203660031901126105d7576106b5616d7c565b6106bd6173c2565b6001600160a01b039081169081156106f7576000548260018060a01b0319821617600055166000805160206192a4833981519152600080a3005b60405162461bcd60e51b815260206004820152602660248201527f4f776e61626c653a206e6577206f776e657220697320746865207a65726f206160448201526564647265737360d01b6064820152608490fd5b346105d7576020806003193601126105d75760043590816000526017815261077a60ff6040600020541661819f565b6000828152601582526040902060010154336001600160a01b0391821614908115610877575b501561082357816000526015815260ff600f6040600020015460101c166107e25760009182526015905260409020600f01805462ff0000191662010000179055005b6064906040519062461bcd60e51b82526004820152601a602482015279141c9bd91d58dd081a5cc8185b1c9958591e4819195b195d195960321b6044820152fd5b6084906040519062461bcd60e51b82526004820152602760248201527f4f6e6c792070726f647563742073656c6c6572206f72206f776e65722063616e6044820152662064656c65746560c81b6064820152fd5b6000541633149050836107a0565b346105d75760203660031901126105d75760206108a86108a3616d7c565b617a9d565b6108b56040518092617221565bf35b346105d75760403660031901126105d7576108d0616d7c565b6108d8616d92565b9060018060a01b03809116600052600760205260406000209116600052602052602060ff604060002054166040519015158152f35b346105d75760203660031901126105d757610926616d7c565b600854600060015b82811115610b635750610940906183d2565b90600160005b8282111561095c57604051806103538682616d1a565b600082815260156020526040902060018101546001600160a01b0390811691908716821480610b51575b61099d575b505090610997906183c3565b90610946565b604051916109aa83616da8565b8154835260208301526040516109c7816103c38160028601616fa5565b60408301526040516109e0816103c38160038601616fa5565b606083015260048101546080830152600581015460a0830152610a05600682016182fd565b60c0830152610a16600782016182fd565b60e0830152610a27600882016182fd565b610100830152604051610a41816103c38160098601616fa5565b610120830152604051610a5b816103c381600a8601616fa5565b610140830152600b810154610160830152604051610a80816103c381600c8601616fa5565b610180830152604051610a9a816103c381600d8601616fa5565b6101a0830152600e8101546101c0830152600f8101549060ff80831615156101e0850152808360081c161515610200850152601092831c16151561022084015201805490610ae782617ed9565b91610af56040519384616e67565b808352602083019160005260206000206000925b828410610b33575050505061024082015261099791610b2c9161052e8288618422565b908661098b565b60066020600192610b4385618362565b815201920193019290610b09565b5060ff600f82015460101c1615610986565b600081815260156020526040902060018101546001600160a01b038681169116149081610bb4575b50610b9f575b610b9a906183c3565b61092e565b90610bac610b9a916183c3565b919050610b91565b60ff9150600f015460101c161585610b8b565b346105d75760403660031901126105d757610be0616d7c565b6001600160a01b039081166000908152601c602052604090208054602435908110156105d757610c0f9161725c565b5090610353825460018401549360028101549160038201548560048401541690610c40600660058601549501617278565b9460405198899860ff8760a01c1696169489617344565b346105d7576003196020368201126105d7576001600160401b03600435116105d7576101a090600435360301126105d757336000526014602052610ca260ff60406000205416617b11565b336000526013602052610cbc60ff60406000205416617b59565b610cd6610ccd600480350180617ba3565b90501515617907565b610ce7604460043501351515617bd5565b610cf8606460043501351515617c20565b60e4600435013515611a6857610104600435013515611a1557610d2361012460043501351515617c6b565b610d44610d3b61014460043501600435600401617ba3565b90501515617cb7565b610d65610d5c61016460043501600435600401617ba3565b90501515617cfb565b610d7761018460043501351515617d3f565b610d97610d8e60c460043501600435600401617d88565b90501515617dbd565b610db96005610db060c460043501600435600401617d88565b90501115617e02565b60016008540180600855610dcb617e4d565b81815233602082015290610ded610de6600480350180617ba3565b3691616ea5565b6040830152610e09610de6602460043501600435600401617ba3565b60608301526044600435013560808301526064600435013560a0830152610e44610e3d608460043501600435600401617d88565b3691617ef0565b60c0830152610e60610e3d60a460043501600435600401617d88565b60e0830152610e7c610e3d60c460043501600435600401617d88565b61010083015260e4600435013560005260186020526103c3610eab600160406000200160405192838092616fa5565b610120830152610104600435013560005260196020526103c3610edb600160406000200160405192838092616fa5565b610140830152610ef9610de661014460043501600435600401617ba3565b610180830152610f17610de661016460043501600435600401617ba3565b6101a083015260043561012481013561016084015261018401356101c083015233156119d157610f4f610f498261777d565b15618154565b610f5b610f498261777d565b33600052600560205260406000206001815401905580600052600460205260406000203360018060a01b0319825416179055803360006000805160206192c48339815191528180a46015602052604060002090825182556001820160018060a01b0360208501511660018060a01b0319825416179055604083015192835160018060401b03811161143b5761100081610ff76002870154616f6b565b60028701617961565b6020601f8211600114611962578192939495600092611957575b50508160011b916000199060031b1c19161760028401555b606081015180519093906001600160401b03811161143b576110648161105b6003850154616f6b565b60038501617961565b6020601f82116001146118e85781929394956000926118dd575b50508160011b916000199060031b1c19161760038201555b6080820151600482015560a082015160058201556006810160c083015160208151916110c28385617fa8565b01916000526020600020916000905b82821061180057505050506007810160e083015160208151916110f48385617fa8565b01916000526020600020916000905b82821061172357505050506008810161010083015160208151916111278385617fa8565b01916000526020600020916000905b828210611640575050505061012082015180519093906001600160401b03811161143b576111748161116b6009860154616f6b565b60098601617961565b6020601f82116001146115d15781929394956000926115c6575b50508160011b916000199060031b1c19161760098301555b61014083015180519093906001600160401b03811161143b576111d9816111d0600a870154616f6b565b600a8701617961565b6020601f821160011461155757819293949560009261154c575b50508160011b916000199060031b1c191617600a8401555b610160810151600b84015561018081015180519093906001600160401b03811161143b5761124981611240600c850154616f6b565b600c8501617961565b6020601f82116001146114dd5781929394956000926114d2575b50508160011b916000199060031b1c191617600c8201555b6101a08201518051906001600160401b03821161143b576112ac826112a3600d860154616f6b565b600d8601617961565b602090601f831160011461145c5791806102409492601094600092611451575b50508160011b916000199060031b1c191617600d8201555b6101c0840151600e820155600f81016113046101e086015115158261776c565b6102008501511515815461ff0062ff00006102208901511515871b169260081b169062ffff001916171790550191015190815191600160401b831161143b5781548383558084106113b8575b506020019060005260206000206000915b83831061139a57611398858060005260176020526040600020600160ff19825416179055336000526016602052604060002061811f565b005b60066020826113ac6001945186617ff1565b01920192019190611361565b8060060290600682040361142557836006026006810485036114255783600052602060002091820191015b8181106113f05750611350565b80600060069255600060018201556000600282015561141160038201617f5f565b6000600482015560006005820155016113e3565b634e487b7160e01b600052601160045260246000fd5b634e487b7160e01b600052604160045260246000fd5b0151905087806112cc565b90600d840160005260206000209160005b601f19851681106114ba575092610240949260019260109583601f198116106114a1575b505050811b01600d8201556112e4565b015160001960f88460031b161c19169055878080611491565b9192602060018192868501518155019401920161146d565b015190508580611263565b600c830160005260206000209060005b601f1984168110611534575060019394959683601f1981161061151b575b505050811b01600c82015561127b565b015160001960f88460031b161c1916905585808061150b565b9091602060018192858b0151815501930191016114ed565b0151905085806111f3565b600a850160005260206000209060005b601f19841681106115ae575060019394959683601f19811610611595575b505050811b01600a84015561120b565b015160001960f88460031b161c19169055858080611585565b9091602060018192858b015181550193019101611567565b01519050858061118e565b6009840160005260206000209060005b601f1984168110611628575060019394959683601f1981161061160f575b505050811b0160098301556111a6565b015160001960f88460031b161c191690558580806115ff565b9091602060018192858b0151815501930191016115e1565b80518051906001600160401b03821161143b57611667826116618854616f6b565b88617961565b602090601f83116001146116b35792826001949360209386956000926116a8575b5050600019600383901b1c191690841b1787555b01940191019092611136565b015190508c80611688565b908660005260206000209160005b601f198516811061170b575083602093600196938796938794601f198116106116f2575b505050811b01875561169c565b015160001960f88460031b161c191690558c80806116e5565b919260206001819286850151815501940192016116c1565b80518051906001600160401b03821161143b57611744826116618854616f6b565b602090601f8311600114611790579282600194936020938695600092611785575b5050600019600383901b1c191690841b1787555b01940191019092611103565b015190508c80611765565b908660005260206000209160005b601f19851681106117e8575083602093600196938796938794601f198116106117cf575b505050811b018755611779565b015160001960f88460031b161c191690558c80806117c2565b9192602060018192868501518155019401920161179e565b80518051906001600160401b03821161143b57611821826116618854616f6b565b602090601f831160011461186d579282600194936020938695600092611862575b5050600019600383901b1c191690841b1787555b019401910190926110d1565b015190508c80611842565b908660005260206000209160005b601f19851681106118c5575083602093600196938796938794601f198116106118ac575b505050811b018755611856565b015160001960f88460031b161c191690558c808061189f565b9192602060018192868501518155019401920161187b565b01519050858061107e565b6003830160005260206000209060005b601f198416811061193f575060019394959683601f19811610611926575b505050811b016003820155611096565b015160001960f88460031b161c19169055858080611916565b9091602060018192858b0151815501930191016118f8565b01519050858061101a565b6002850160005260206000209060005b601f19841681106119b9575060019394959683601f198116106119a0575b505050811b016002840155611032565b015160001960f88460031b161c19169055858080611990565b9091602060018192858b015181550193019101611972565b606460405162461bcd60e51b815260206004820152602060248201527f4552433732313a206d696e7420746f20746865207a65726f20616464726573736044820152fd5b60405162461bcd60e51b815260206004820152602560248201527f53756243617465676f7279204944206d75737420626520677265617465722074604482015264068616e20360dc1b6064820152608490fd5b60405162461bcd60e51b815260206004820152602260248201527f43617465676f7279204944206d7573742062652067726561746572207468616e604482015261020360f41b6064820152608490fd5b346105d75760003660031901126105d7576020600d54604051908152f35b346105d7576020806003193601126105d7576001600160401b036004358181116105d757611b08903690600401616edc565b90611b116173c2565b611b1d82511515618436565b611b28600b546183c3565b9081600b55604051611b3981616e4c565b60008152604051611b4981616dfb565b83815285810185815260408201906001958683526060840194855260005260188852604060002092518355858301905180519086821161143b57611b9782611b918554616f6b565b85617961565b8990601f8311600114611c86579180611bd694926003979694600092611c7b575b505060001982881b1c191690891b1790555b5115156002830161776c565b019051805192831161143b57600160401b831161143b5785908254848455808510611c5e575b5001906000528460002060005b838110611c4d57600b546040518881527f11c167cc9b439f0ad8bec5588159f1b06b813bc38d50c867a41b23b077be2c1a9080611c48818c018b616a8d565b0390a2005b825182820155918601918401611c09565b611c7590846000528584600020918201910161794a565b87611bfc565b015190508c80611bb8565b889291601f19831691856000528c600020928d6000905b828210611ce0575050916003989795939185611bd698969410611cc8575b505050811b019055611bca565b0151600019838a1b60f8161c191690558c8080611cbb565b8385015186558d979095019493840193018e611c9d565b346105d75760003660031901126105d757600b54611d1481617ed9565b611d216040519182616e67565b818152601f19611d3083617ed9565b01366020830137611d4082617ed9565b91611d4e6040519384616e67565b808352611d6a601f19611d6083617ed9565b01602085016185e6565b611d7381617ed9565b92611d816040519485616e67565b818452601f19611d9083617ed9565b01366020860137611da082617ed9565b90611dae6040519283616e67565b828252611dba83617ed9565b92611dcd6020840194601f1901856185e6565b60015b81811115611f09575050611def6040519460808652608086019061738e565b8481036020860152815180825260208201916020808360051b8301019401926000915b838310611edc57505050505083810360408501526020808651928381520195019060005b818110611ec457505050828403606084015251808452602084019060208160051b86010192916000905b828210611e6d5785850386f35b90919293601f19878203018252845190602080835192838152019201906000905b808210611eac57505050602080600192960192019201909291611e60565b90919260208060019286518152019401920190611e8e565b82511515875260209687019690920191600101611e36565b9091929394602080611efa600193601f198682030187528951616a8d565b97019301930191939290611e12565b806000526018602052604060002090611f5c600360405193611f2a85616dfb565b80548552604051611f42816103c38160018601616fa5565b602086015260ff6002820154161515604086015201618597565b60608301528151611f77575b611f7291506183c3565b611dd0565b8060001981011161142557606082611f729351611f9860001985018b618422565b526020810151611fac600019850188618422565b52611fbb600019840187618422565b5060408101511515611fd160001985018c618422565b520151611fe2600019830187618422565b52611ff1600019820186618422565b50611f68565b346105d75760603660031901126105d7576004356001600160401b0381116105d757612027903690600401616edc565b6024356001600160401b0381116105d757612046903690600401616edc565b906044356001600160401b0381116105d757612066903690600401616edc565b916120723315156178c9565b33600052601460205260ff604060002054166124575761209482511515617907565b80511561241a57604051926120a884616e16565b82845260208401918252604084015242606084015260016080840152336000526010602052604060002090835180519060018060401b03821161143b5781906120fb826120f58754616f6b565b87617961565b602090601f83116001146123ae576000926123a3575b50508160011b916000199060031b1c19161782555b5180519093906001600160401b03811161143b576121548161214b6001860154616f6b565b60018601617961565b6020601f8211600114612334578192939495600092612329575b50508160011b916000199060031b1c19161760018301555b6040810151805160028401916001600160401b03821161143b576121ae82611b918554616f6b565b602090601f83116001146122b75792826080936121fc9796936004966000926122ac575b50508160011b916000199060031b1c19161790555b6060810151600385015501511515910161776c565b336000908152601460205260409020805460ff19166001179055600f54600160401b81101561143b576001810180600f5581101561229657600f6000526000805160206193248339815191520180546001600160a01b03191633908117909155604051602080825291927f48cac28ad4dc618e15f4c2dd5e97751182f166de97b25618318b2112aa951a2f928291611c4891830190616a8d565b634e487b7160e01b600052603260045260246000fd5b0151905089806121d2565b90601f198316918460005260206000209260005b8181106123115750936121fc9796936004969360019383608098106122f8575b505050811b0190556121e7565b015160001960f88460031b161c191690558980806122eb565b929360206001819287860151815501950193016122cb565b01519050858061216e565b6001840160005260206000209060005b601f198416811061238b575060019394959683601f19811610612372575b505050811b016001830155612186565b015160001960f88460031b161c19169055858080612362565b9091602060018192858b015181550193019101612344565b015190508680612111565b9250846000526020600020906000935b601f19841685106123ff576001945083601f198116106123e6575b505050811b018255612126565b015160001960f88460031b161c191690558680806123d9565b818101518355602094850194600190930192909101906123be565b60405162461bcd60e51b8152602060048201526015602482015274456d61696c2063616e6e6f7420626520656d70747960581b6044820152606490fd5b60405162461bcd60e51b8152602060048201526017602482015276155cd95c88185b1c9958591e481c9959da5cdd195c9959604a1b6044820152606490fd5b346105d75760403660031901126105d7576024356001600160401b0381116105d757366023820112156105d7576001600160401b036004820135116105d757366024826004013560051b830101116105d757600435600052601860205260ff60026040600020015416156127015760005b8160040135811061251457005b61251f600c546183c3565b80600c55612551612538838560040135602487016184cd565b91906040519261254784616dfb565b8484523691616ea5565b91602082019283526004356040830152600160608301526000526019602052604060002091815183555180519060018060401b03821161143b576125a58261259c6001870154616f6b565b60018701617961565b602090601f83116001146126835761261793836126739796946125fd94606094600092612678575b50508160011b916000199060031b1c19161760018501555b6040810151600285015501511515600380930161776c565b6004356000526018602052604060002001600c549061811f565b6000805160206192e4833981519152600c5461263b838660040135602488016184cd565b9290836040519160208352816020840152604083013760006040858301015260408160043595601f80199101168101030190a36183c3565b612507565b015190508a806125cd565b906001850160005260206000209160005b601f19851681106126e95750936001846125fd94606094612617986126739b9a98601f198116106126d0575b505050811b0160018501556125e5565b015160001960f88460031b161c191690558a80806126c0565b91926020600181928685015181550194019201612694565b60405162461bcd60e51b815260206004820152601a602482015279506172656e742063617465676f7279206e6f742061637469766560301b6044820152606490fd5b346105d75760203660031901126105d75760043561275f6173c2565b80600052601860205261277860406000205415156184e8565b8060005260186020526000805160206192848339815191526127bb60406000206002810160ff198154169055604051918291604083526001604084019101616fa5565b600060208301520390a2005b346105d75760203660031901126105d7576127eb6127e660043561777d565b61741a565b60006040516127f981616e4c565b5261035360405161280981616e4c565b60008152604051918291602083526020830190616a8d565b346105d75760203660031901126105d7576001600160a01b03612842616d7c565b166000526013602052602060ff604060002054166040519015158152f35b346105d75760403660031901126105d757612879616d7c565b6001600160a01b03166000908152601660205260409020805460243591908210156105d7576020916128aa91617244565b90546040519160031b1c8152f35b346105d7576020806003193601126105d7576004356128d5617e4d565b5080600052601582526128f660ff600f6040600020015460101c16156181e4565b806000526017825261290f60ff6040600020541661819f565b600052601581526040600020906040519161292983616da8565b805483526001808201546001600160a01b031683850152604051612954816103c38160028701616fa5565b604085015260405161296d816103c38160038701616fa5565b606085015260048201546080850152600582015460a085015260106006926129968482016182fd565b60c08701526129a7600782016182fd565b60e08701526129b8600882016182fd565b6101008701526040516129d2816103c38160098601616fa5565b6101208701526040516129ec816103c381600a8601616fa5565b610140870152600b810154610160870152604051612a11816103c381600c8601616fa5565b610180870152604051612a2b816103c381600d8601616fa5565b6101a0870152600e8101546101c087015260ff600f82015481811615156101e0890152818160081c161515610200890152831c1615156102208701520191825490612a7582617ed9565b93612a836040519586616e67565b8285526000908152858120868087015b858410612ab5576102408a01889052604051828152806103538185018d616bca565b86918591612ac285618362565b8152019201920191908790612a93565b346105d75760203660031901126105d75760206001600160a01b0380612af6616d7c565b16600052601e825260406000205416604051908152f35b346105d75760803660031901126105d757612b26616d7c565b612b2e616d92565b606435916001600160401b0383116105d757366023840112156105d757612b62611398933690602481600401359101616ea5565b916044359161750d565b346105d7576020806003193601126105d7576001600160a01b039081612b90616d7c565b16600052601b81526040600020805490612ba982617ed9565b92612bb76040519485616e67565b82845260009182528082208185015b848410612bdb576040518061035388826170e3565b600e83600192604051612bed81616dc4565b85548152848601548382015260028601546040820152600386015460608201528a600487015416608082015260ff600587015460a08d8216818501521c16151560c0820152612c3e60068701617278565b60e0820152815201920193019290612bc6565b346105d75760203660031901126105d7576004356000526017602052602060ff604060002054166040519015158152f35b346105d7576020806003193601126105d757612dba90610353612ca3616d7c565b612cab617a22565b5060018060a01b0316918260005260138152612cce60ff60406000205416617a59565b826000526011815260406000209260ff600660405195612ced87616de0565b604051612cfe816103c38185616fa5565b8752604051612d14816103c38160018601616fa5565b85880152604051612d2c816103c38160028601616fa5565b6040880152604051612d45816103c38160038601616fa5565b6060880152604051612d5e816103c38160048601616fa5565b6080880152600581015460a0880152015416151560c08501526000526012815260ff60406000205416601a825260406000205460168352612dc3612da56040600020618597565b926040519788976080895260808901906171a1565b94870190617221565b6040850152838203606085015261738e565b346105d75760203660031901126105d757612dee616d7c565b612df66173c2565b6001600160a01b03168015612e415760406000805160206192448339815191529133600052601e602052816000208160018060a01b03198254161790558151903382526020820152a1005b60405162461bcd60e51b8152602060048201526017602482015276496e76616c6964206163636f756e74206164647265737360481b6044820152606490fd5b346105d75760403660031901126105d757612e99616d7c565b60243590811515908183036105d7576001600160a01b031691338314612f0a57612edc90336000526007602052604060002084600052602052604060002061776c565b6040519081527f17307eab39ab6107e8899845ad3d59bd9653f200f220920489ca2b5937696c3160203392a3005b60405162461bcd60e51b815260206004820152601960248201527822a9219b99189d1030b8383937bb32903a379031b0b63632b960391b6044820152606490fd5b346105d75760403660031901126105d757612f64616d7c565b6001600160a01b039081166000908152601b602052604090208054602435908110156105d757610c0f9161725c565b346105d7576020806003193601126105d7576004358060005260159081835260ff600f6040600020015491612fce82601094851c16156181e4565b8060005260178552612fe6826040600020541661819f565b60009260005b8260005285875281604060002001805482101561303d576004613010838793618641565b5001541615613028575b613023906183c3565b612fec565b93613035613023916183c3565b94905061301a565b5050848661304a86617ed9565b956130586040519788616e67565b808752613067601f1991617ed9565b018160005b8281106131105750505060009360005b816000528383528460406000200180548210156130fd5760046130a0838a93618641565b50015416156130b8575b6130b3906183c3565b61307c565b946130f56130b391836000528585526130e06130da8989604060002001618641565b50618362565b6130ea828c618422565b52610539818b618422565b9590506130aa565b604051848152806103538187018c616b29565b613118618610565b82828b01015201829061306c565b346105d75760003660031901126105d75760405160009060035461314981616f6b565b8083526001918083169081156131e05750600114613186575b6103538361317281870382616e67565b604051918291602083526020830190616a8d565b6003600090815260209450917fc2575a0e9e593c00f959f8c92f12db2869c3395a3b0502d05e2516446f71f85b5b8284106131cd5750505081019091019061317281613162565b80548585018701529285019281016131b4565b610353955061317293506020915091849260ff191682840152151560051b8201019350613162565b346105d75760203660031901126105d7576001600160a01b03613229616d7c565b1660005260116020526132d96040600020604051906132538261324c8184616fa5565b0383616e67565b604051613267816103c38160018601616fa5565b61331160405161327e816103c38160028801616fa5565b613303604051613295816103c38160038a01616fa5565b6132f5604051936132b4856132ad8160048c01616fa5565b0386616e67565b6132e760ff600660058b01549a015416976040519b8c9b60e08d5260e08d0190616a8d565b908b820360208d0152616a8d565b9089820360408b0152616a8d565b908782036060890152616a8d565b908582036080870152616a8d565b9160a0840152151560c08301520390f35b346105d75760203660031901126105d7576004356001600160401b0381116105d757613352903690600401616edc565b600854600060015b828111156135c6575061336c906183d2565b90600160005b8282111561338857604051806103538682616d1a565b816000526015806020526009906103c36133ae8360406000200160405192838092616fa5565b602081519101208751602089012014806135a8575b6133da575b5050906133d4906183c3565b90613372565b8360005260205260406000206103c3613498604051936133f985616da8565b8354855260018401546001600160a01b03166020860152604051613424816103c38160028901616fa5565b604086015260405161343d816103c38160038901616fa5565b606086015260048401546080860152600584015460a0860152613462600685016182fd565b60c0860152613473600785016182fd565b60e0860152613484600885016182fd565b610100860152604051928380928601616fa5565b6101208301526040516134b2816103c381600a8601616fa5565b610140830152600b8101546101608301526040516134d7816103c381600c8601616fa5565b6101808301526040516134f1816103c381600d8601616fa5565b6101a0830152600e8101546101c0830152600f8101549060ff80831615156101e0850152808360081c161515610200850152601092831c1615156102208401520180549061353e82617ed9565b9161354c6040519384616e67565b808352602083019160005260206000206000925b82841061358a57505050506102408201526133d4916135839161052e8288618422565b90866133c8565b6006602060019261359a85618362565b815201920193019290613560565b50836000528060205260ff600f6040600020015460101c16156133c3565b806000526015806020526103c36135ea600960406000200160405192838092616fa5565b6020815191012085516020870120149081613629575b50613614575b61360f906183c3565b61335a565b9061362161360f916183c3565b919050613606565b90508160005260205260ff600f6040600020015460101c161585613600565b346105d75760003660031901126105d7576000546040516001600160a01b039091168152602090f35b346105d7576003196040368201126105d7576001600160401b03602435116105d7576101a090602435360301126105d7576004356000908152601560205260409020600101546001600160a01b0316330361412b5760043560005260176020526136e260ff6040600020541661819f565b600435600052601560205261370560ff600f6040600020015460101c16156181e4565b613717610ccd60046024350180617ba3565b61372a6024803501602435600401617ba3565b9050156140e857613742604460243501351515617bd5565b613753606460243501351515617c20565b613767608460243501602435600401617d88565b9050156140aa5761378260a460243501602435600401617d88565b90501561406d576137a0610d8e60c460243501602435600401617d88565b6137b96005610db060c460243501602435600401617d88565b60e460243501351561402d57610104602435013515613fe9576137ea610d3b61014460243501602435600401617ba3565b613802610d5c61016460243501602435600401617ba3565b61381461012460243501351515617c6b565b61382661018460243501351515617d3f565b61383560046024350180617ba3565b6004356000908152601560205260409020600201906001600160401b03811161143b5761386c816138668454616f6b565b84617961565b600092601f8211600114613f805792819293600092613f75575b50508160011b916000199060031b1c19161790555b6138ae6024803501602435600401617ba3565b6004356000908152601560205260409020600301906001600160401b03811161143b576138df816138668454616f6b565b600092601f8211600114613f0c5792819293600092613f01575b50508160011b916000199060031b1c19161790555b60043560005260156020526040600020604460243501356004820155606460243501356005820155600661394c608460243501602435600401617d88565b919092019161395b8284617fa8565b60009283526020832090805b838510613e1e5761398260a460243501602435600401617d88565b60043560005260156020526007604060002001916139a08284617fa8565b60009283526020832090805b838510613d3b576139c760c460243501602435600401617d88565b60043560005260156020526008604060002001916139e58284617fa8565b60009283526020832090805b838510613c585760e460243501356000526018602052613a2a600160406000200160043560005260156020526009604060002001618225565b61010460243501356000526019602052613a5d60016040600020016004356000526015602052600a604060002001618225565b613a7261014460243501602435600401617ba3565b6004356000908152601560205260409020600c01906001600160401b03811161143b57613aa3816138668454616f6b565b600092601f8211600114613bef5792819293600092613be4575b50508160011b916000199060031b1c19161790555b613ae761016460243501602435600401617ba3565b6004356000908152601560205260409020600d01906001600160401b03811161143b57613b18816138668454616f6b565b6000601f8211600114613b7f57819293600092613b74575b50508160011b916000199060031b1c19161790555b600435600052601560205260406000206101246024350135600b820155600e6101846024350135910155600080f35b013590508380613b30565b601f198216938360005260206000209160005b868110613bcc5750836001959610613bb2575b505050811b019055613b45565b0135600019600384901b60f8161c19169055838080613ba5565b90926020600181928686013581550194019101613b92565b013590508380613abd565b826000526020600020906000945b601f1984168610613c4057600194955083601f19811610613c26575b505050811b019055613ad2565b0135600019600384901b60f8161c19169055838080613c19565b91602060018192858501358155019301950194613bfd565b613c628183617ba3565b906001600160401b03821161143b57613c7f826120f58754616f6b565b600090601f8311600114613ccb579282600194936020938695600092613cc0575b5050600019600383901b1c191690841b1786555b019301940193916139f1565b013590508a80613ca0565b8560005260206000209160005b601f1985168110613d23575083602093600196938796938794601f19811610613d09575b505050811b018655613cb4565b0135600019600384901b60f8161c191690558a8080613cfc565b90926020600181928686013581550194019101613cd8565b613d458183617ba3565b906001600160401b03821161143b57613d62826120f58754616f6b565b600090601f8311600114613dae579282600194936020938695600092613da3575b5050600019600383901b1c191690841b1786555b019301940193916139ac565b013590508a80613d83565b8560005260206000209160005b601f1985168110613e06575083602093600196938796938794601f19811610613dec575b505050811b018655613d97565b0135600019600384901b60f8161c191690558a8080613ddf565b90926020600181928686013581550194019101613dbb565b613e288183617ba3565b906001600160401b03821161143b57613e45826120f58754616f6b565b600090601f8311600114613e91579282600194936020938695600092613e86575b5050600019600383901b1c191690841b1786555b01930194019391613967565b013590508a80613e66565b8560005260206000209160005b601f1985168110613ee9575083602093600196938796938794601f19811610613ecf575b505050811b018655613e7a565b0135600019600384901b60f8161c191690558a8080613ec2565b90926020600181928686013581550194019101613e9e565b0135905083806138f9565b826000526020600020906000945b601f1984168610613f5d57600194955083601f19811610613f43575b505050811b01905561390e565b0135600019600384901b60f8161c19169055838080613f36565b91602060018192858501358155019301950194613f1a565b013590508380613886565b826000526020600020906000945b601f1984168610613fd157600194955083601f19811610613fb7575b505050811b01905561389b565b0135600019600384901b60f8161c19169055838080613faa565b91602060018192858501358155019301950194613f8e565b60405162461bcd60e51b815260206004820152601c60248201527b5375622d63617465676f72792063616e6e6f7420626520656d70747960201b6044820152606490fd5b60405162461bcd60e51b815260206004820152601860248201527743617465676f72792063616e6e6f7420626520656d70747960401b6044820152606490fd5b60405162461bcd60e51b815260206004820152601560248201527453697a65732063616e6e6f7420626520656d70747960581b6044820152606490fd5b60405162461bcd60e51b8152602060048201526016602482015275436f6c6f72732063616e6e6f7420626520656d70747960501b6044820152606490fd5b60405162461bcd60e51b815260206004820152601b60248201527a4465736372697074696f6e2063616e6e6f7420626520656d70747960281b6044820152606490fd5b60405162461bcd60e51b815260206004820152602860248201527f4f6e6c79207468652073656c6c65722063616e20757064617465207468656972604482015267081c1c9bd91d58dd60c21b6064820152608490fd5b346105d75760a03660031901126105d7576004356001600160401b0381116105d7576141b1903690600401616edc565b60249081356001600160401b0381116105d7576141d2903690600401616edc565b6044356001600160401b0381116105d7576141f1903690600401616edc565b6064356001600160401b0381116105d757614210903690600401616edc565b906084356001600160401b0381116105d757614230903690600401616edc565b9261423c3315156178c9565b33600052601460205260ff60406000205416156148f65733600052601360205260ff604060002054166148b3578451156148765761427c825115156179a8565b614288835115156179e5565b6040519461429586616de0565b855260208501526040840152606083015260808201524260a0820152600160c0820152336000526011602052604060002090805192835160018060401b038111614861576142ed816142e78654616f6b565b86617961565b6020601f82116001146147f85781929394956000926147ed575b50508160011b916000199060031b1c19161783555b602082015180519093906001600160401b0381116147d85761434e816143456001850154616f6b565b60018501617961565b6020601f821160011461476957819293949560009261475e575b50508160011b916000199060031b1c19161760018201555b604083015180519093906001600160401b038111614749576143b2816143a96002860154616f6b565b60028601617961565b6020601f82116001146146da5781929394956000926146cf575b50508160011b916000199060031b1c19161760028301555b6060810151805160038401916001600160401b03821161464957819061440e826142e78654616f6b565b602090601f83116001146146695760009261465e575b50508160011b916000199060031b1c19161790555b6080810151805160048401916001600160401b0382116146495761446182611b918554616f6b565b602090601f83116001146145d757928260c0936144af9796936006966000926145cc575b50508160011b916000199060031b1c19161790555b60a0810151600585015501511515910161776c565b336000526013602052604060002060ff1990600182825416179055601260205260026040600020918254161790556144e6336191f5565b15614547575b6040514281527fa1a1a78ff3033d5ee8393372052aeb2a16bbb347a29f3780370e9506c109e37260203392a2604051600281527fd8f7bcb2c5cffc294a0aaef719685993d7be95273fb8254803a1563510ccefed60203392a2005b600e5490600160401b8210156145b8576001820180600e558210156145a45750600e6000527fbb7b4a454dc3493923482f07822329ed19e8244eff582cc204f8554c3620c3fd0180546001600160a01b03191633179055806144ec565b634e487b7160e01b60009081526032600452fd5b634e487b7160e01b60009081526041600452fd5b015190508980614485565b90601f198316918460005260206000209260005b8181106146315750936144af979693600696936001938360c09810614618575b505050811b01905561449a565b015160001960f88460031b161c1916905589808061460b565b929360206001819287860151815501950193016145eb565b85634e487b7160e01b60005260416004526000fd5b015190508680614424565b6000858152602081209350601f198516905b8181106146b7575090846001959493921061469e575b505050811b019055614439565b015160001960f88460031b161c19169055868080614691565b9293602060018192878601518155019501930161467b565b0151905085806143cc565b6002840160005260206000209060005b601f1984168110614731575060019394959683601f19811610614718575b505050811b0160028301556143e4565b015160001960f88460031b161c19169055858080614708565b9091602060018192858b0151815501930191016146ea565b83634e487b7160e01b60005260416004526000fd5b015190508580614368565b6001830160005260206000209060005b601f19841681106147c0575060019394959683601f198116106147a7575b505050811b016001820155614380565b015160001960f88460031b161c19169055858080614797565b9091602060018192858b015181550193019101614779565b82634e487b7160e01b60005260416004526000fd5b015190508580614307565b8460005260206000209060005b601f1984168110614849575060019394959683601f19811610614830575b505050811b01835561431c565b015160001960f88460031b161c19169055858080614823565b9091602060018192858b015181550193019101614805565b50634e487b7160e01b60009081526041600452fd5b60405162461bcd60e51b81526020600482015260168188015275109d5cda5b995cdcc81b985b59481c995c5d5a5c995960521b6044820152606490fd5b60405162461bcd60e51b815260206004820152601c818801527b20b63932b0b23c903932b3b4b9ba32b932b21030b99039b2b63632b960211b6044820152606490fd5b60405162461bcd60e51b815260206004820152601f818801527f4d757374206265206120726567697374657265642075736572206669727374006044820152606490fd5b346105d75760403660031901126105d7576001600160401b036004356024358281116105d75761496e903690600401616edc565b6149766173c2565b816000526020906018825260406000205415614b135761499881511515618482565b6149a3600c546183c3565b80600c55604051906149b482616dfb565b808252838201838152604083019086825260608401926001908185526000526019875260406000209451855580850191518051998a1161143b576149fc8a611b918554616f6b565b8790601f8b11600114614a965799808060039694614a52999896946000805160206192e48339815191529c9d9e600094614a8b575b50501b9160001990871b1c19161790555b516002840155511515910161776c565b8360005260188352614a6e6003604060002001600c549061811f565b600c5492614a86604051928284938452830190616a8d565b0390a3005b015192508e80614a31565b9990601f1982169a84600052896000209b60005b818110614afe57509b60039694928492614a529a9997956000805160206192e48339815191529d9e9f10614ae6575b505050811b019055614a42565b015160001983891b60f8161c191690558c8080614ad9565b838301518e559c85019c928b01928b01614aaa565b60405162461bcd60e51b815260048101839052601e60248201527f506172656e742063617465676f727920646f6573206e6f7420657869737400006044820152606490fd5b346105d75760203660031901126105d757600435600052601560205260406000208054600160a01b600190036001830154169160405180806002840190614b9e91616fa5565b03614ba99082616e67565b60405180614bba8160038601616fa5565b03614bc59082616e67565b600483015460058401549060405180806009880190614be391616fa5565b03614bee9082616e67565b6040519081614c0081600a8a01616fa5565b03614c0b9083616e67565b600b87015492604051948580600c8b0190614c2591616fa5565b03614c309087616e67565b6040519687614c4281600d8d01616fa5565b03614c4d9089616e67565b600e8a015499600f0154986040519c8d9c8d5260208d01528b6101e06040819201528c01614c7a91616a8d565b8b810360608d0152614c8b91616a8d565b9160808b015260a08a015288810360c08a0152614ca791616a8d565b87810360e0890152614cb891616a8d565b90610100870152858103610120870152614cd191616a8d565b848103610140860152614ce391616a8d565b9161016084015260ff811615156101808401528060081c60ff1615156101a084015260101c60ff1615156101c08301520390f35b346105d75760003660031901126105d757614d306173c2565b600080546001600160a01b0319811682556001600160a01b03166000805160206192a48339815191528280a3005b346105d75760203660031901126105d7576001600160a01b03614d7f616d7c565b168015614d9e5760005260056020526020604060002054604051908152f35b60405162461bcd60e51b815260206004820152602960248201527f4552433732313a2061646472657373207a65726f206973206e6f7420612076616044820152683634b21037bbb732b960b91b6064820152608490fd5b346105d7576020806003193601126105d757614e0f616d7c565b60405190614e1c82616e16565b6000608060609384815284868201528460408201528285820152015260018060a01b031690816000526014835260ff60406000205416916010845260406000209160405191614e6a83616e16565b604051614e7b816103c38188616fa5565b835260405190614e928261324c8160018901616fa5565b86840191825260405191614ead836106258160028a01616fa5565b6040850192835260ff6004600388015497868801988952015416916080860192151583526000526013885260ff604060002054169283600014614f70576012895260ff60406000205416955b604051998a9915158a52890160809052516080890160a090526101208901614f2091616a8d565b9151607f1992838a82030160a08b0152614f3991616a8d565b9051918882030160c0890152614f4e91616a8d565b945160e087015251151561010086015215156040850152830161035391617221565b600095614ef9565b346105d75760203660031901126105d75760043560005260196020526040600020604051614fa581616dfb565b8154815260405190614fbe8261324c8160018701616fa5565b6020810191825260ff60036002850154946040840195865201541690606081019115158252614fef8151151561854e565b5191519251905115156150146040519485948552608060208601526080850190616a8d565b91604084015260608301520390f35b346105d75761503136616f2c565b61503c9291926173c2565b816000526020926018845261505760406000205415156184e8565b61506381511515618436565b60008381526018855260409020815194906001908101906001600160401b03871161143b57615096876138668454616f6b565b82601f8811600114615104579680806018959493600080516020619284833981519152999a6000936150f9575b501b916000199060031b1c19161790555b85600052526150ea82600260406000200161776c565b611c486040519283928361852e565b88015192508b6150c3565b96601f1981169783600052846000209860005b81811061516457509882916018969594936000805160206192848339815191529a9b1061514b575b5050811b0190556150d4565b87015160001960f88460031b161c19169055898061513f565b878301518b5599840199918601918601615117565b6003196040368201126105d7576024906001600160401b038235116105d757610100908235360301126105d7576151ae61865d565b3360005260146020526151c860ff60406000205416617b11565b60043560005260176020526151e460ff6040600020541661819f565b600435600052601560205261520760ff600f6040600020015460101c16156181e4565b60043560005260156020526005604060002001541561587f57600435600052601560205260ff600f604060002001541661583e576004356000908152601560205260409020600101546001600160a01b031633146157fc5761526d600482350180617ba3565b9050156157c357615285818035018235600401617ba3565b9050156157855761529e60448235018235600401617ba3565b905015615751576152b760648235018235600401617ba3565b90501561571c576152d060848235018235600401617ba3565b9050156156e5576152e960a48235018235600401617ba3565b9050156156aa5761530e61530560c48335018335600401617ba3565b905015156179e5565b61532c61532360e48335018335600401617ba3565b905015156179a8565b60043560005260156020526004604060002001549081341061567157600435600052601560205260056040600020018054801561565c5760001901905560043560005260156020526040600020600581015415615648575b600101546040516001600160a01b0390911691906153a181616dc4565b6004823501356001600160401b0381116105d7576153c6906004369185350101616edc565b81526001600160401b038235830135116105d7576153ed3683358085013501600401616edc565b60208201528135604401356001600160401b0381116105d757615417906004369185350101616edc565b60408201528135606401356001600160401b0381116105d757615441906004369185350101616edc565b60608201528135608401356001600160401b0381116105d75761546b906004369185350101616edc565b6080820152813560a401356001600160401b0381116105d757615495906004369185350101616edc565b60a0820152813560c401356001600160401b0381116105d7576154bf906004369185350101616edc565b60c0820152813560e40135906001600160401b0382116105d7576154ed615558926004369186350101616edc565b60e0820152604051906154ff82616dc4565b60043582528560208301528560408301524260608301523360808301528460a0830152600060c083015260e082015233600052601b6020526155458160406000206186b3565b83600052601c60205260406000206186b3565b81600052601a602052604060002080549184830180931161563457505560405182815282602082015242604082015233907f45280c7ac9cec77edd454e39e1641a3e22619146cf074a4239beee86a7c07edc606060043592a46001600954016009556155c48134618603565b80615624575b50600435600052601560205260018060a01b03600160406000200154169060405190815242602082015233907fbe6177108f4df43c5d7be79cb219c969fc97915bbdb4b56d14d391dcdcc16060604060043592a460018055005b61562e903361918f565b816155ca565b634e487b7160e01b60009081526011600452fd5b600f8101805460ff19166001179055615384565b82634e487b7160e01b60005260116004526000fd5b60649060126040519162461bcd60e51b83526020600484015282015271496e73756666696369656e742066756e647360701b6044820152fd5b60649060146040519162461bcd60e51b83526020600484015282015273141bdcdd185b0818dbd919481c995c5d5a5c995960621b6044820152fd5b60649060106040519162461bcd60e51b8352602060048401528201526f10dbdd5b9d1c9e481c995c5d5a5c995960821b6044820152fd5b606490600e6040519162461bcd60e51b8352602060048401528201526d14dd185d19481c995c5d5a5c995960921b6044820152fd5b606490600d6040519162461bcd60e51b8352602060048401528201526c10da5d1e481c995c5d5a5c9959609a1b6044820152fd5b60649060176040519162461bcd60e51b8352602060048401528201527614dd1c99595d081859191c995cdcc81c995c5d5a5c9959604a1b6044820152fd5b60649060126040519162461bcd60e51b83526020600484015282015271119d5b1b081b985b59481c995c5d5a5c995960721b6044820152fd5b606490601b6040519162461bcd60e51b8352602060048401528201527a10d85b9b9bdd08189d5e481e5bdd5c881bdddb881c1c9bd91d58dd602a1b6044820152fd5b606490601a6040519162461bcd60e51b83526020600484015282015279141c9bd91d58dd081a5cc8185b1c9958591e481cdbdb191bdd5d60321b6044820152fd5b60649060176040519162461bcd60e51b8352602060048401528201527650726f64756374206973206f7574206f662073746f636b60481b6044820152fd5b346105d75760203660031901126105d75760206158db600435617461565b6040516001600160a01b039091168152f35b346105d75760203660031901126105d7576001600160a01b0361590e616d7c565b16600052601a6020526020604060002054604051908152f35b346105d75760203660031901126105d7576004356159436173c2565b6064811161595057600d55005b60405162461bcd60e51b8152602060048201526012602482015271496e76616c69642070657263656e7461676560701b6044820152606490fd5b346105d75760003660031901126105d75760405180600e5480835260208093018091600e600052846000209060005b86828210615a185786866159cf82880383616e67565b604051928392818401908285525180915260408401929160005b8281106159f857505050500390f35b83516001600160a01b0316855286955093810193928101926001016159e9565b83546001600160a01b0316855290930192600192830192016159b9565b346105d75760203660031901126105d757600435600f548110156105d757600f60005260008051602061932483398151915201546040516001600160a01b039091168152602090f35b346105d75760203660031901126105d7576001600160a01b03615a9f616d7c565b166000526012602052602060ff604060002054166108b56040518092617221565b346105d7576020806003193601126105d757615ada616d7c565b615ae2617a22565b506001600160a01b03166000818152601383526040902054615b069060ff16617a59565b6000526011815260406000209060ff600660405193615b2485616de0565b604051615b35816103c38185616fa5565b8552604051615b4b816103c38160018601616fa5565b84860152604051615b63816103c38160028601616fa5565b6040860152604051615b7c816103c38160038601616fa5565b6060860152604051615b95816103c38160048601616fa5565b6080860152600581015460a0860152015416151560c08301526103536040519282849384528301906171a1565b346105d757611398615bd336616ef7565b9060405192615be184616e4c565b6000845261750d565b346105d75760003660031901126105d757615c0361865d565b336000526013602052615c1d60ff60406000205416617b59565b33600052601a6020526040600020548015615cb157600d5490818102918183040361142557615ca5615c566064615cab94048093618603565b9133600052601a60205260006040812055604051600081527f8ad64a0ac7700dd8425ab0499f107cb6e2cd1581d803c5b8c1c79dcb8190b1af60203392a26000546001600160a01b031661918f565b3361918f565b60018055005b60405162461bcd60e51b81526020600482015260166024820152754e6f2062616c616e636520746f20776974686472617760501b6044820152606490fd5b346105d7576020806003193601126105d7576001600160a01b039081615d13616d7c565b16600052601c81526040600020805490615d2c82617ed9565b92615d3a6040519485616e67565b82845260009182528082208185015b848410615d5e576040518061035388826170e3565b600e83600192604051615d7081616dc4565b85548152848601548382015260028601546040820152600386015460608201528a600487015416608082015260ff600587015460a08d8216818501521c16151560c0820152615dc160068701617278565b60e0820152815201920193019290615d49565b346105d75760203660031901126105d7576001600160a01b03615df5616d7c565b166000526010602052615e68604060002060405190615e188261324c8184616fa5565b604051615e2c816103c38160018601616fa5565b615e84604051615e43816103c38160028801616fa5565b615e7660ff60046003870154960154169360405197889760a0895260a0890190616a8d565b908782036020890152616a8d565b908582036040870152616a8d565b916060840152151560808301520390f35b346105d757615ea336616f2c565b615eae9291926173c2565b8160005260209260198452615ec9604060002054151561854e565b615ed581511515618482565b60008381526019855260409020815194906001908101906001600160401b03871161143b57615f08876138668454616f6b565b82601f8811600114615f67579680806019959493600080516020619304833981519152999a600093615f5c575b501b916000199060031b1c19161790555b85600052526150ea82600360406000200161776c565b88015192508b615f35565b96601f1981169783600052846000209860005b818110615fc757509882916019969594936000805160206193048339815191529a9b10615fae575b5050811b019055615f46565b87015160001960f88460031b161c191690558980615fa2565b878301518b5599840199918601918601615f7a565b346105d75760403660031901126105d757602480356004356000805b8260005260156020908082526010918260406000200180548510156161f257616022858992618641565b50541461603a57505050616035906183c3565b615ff8565b919350919394600052601d815260ff948560406000205416156161b8578060005282825261606e8585604060002001618641565b50600190810154909690336001600160a01b03918216149081156161aa575b5015616155578160005283835260046160ac8787604060002001618641565b5001541661611857916160cd93916004959360005252604060002001618641565b5001805460ff1916821790555b156160e157005b60649060106040519162461bcd60e51b8352602060048401528201526f14995d9a595dc81b9bdd08199bdd5b9960821b6044820152fd5b60405162461bcd60e51b8152600481018390526016818901527514995d9a595dc8185b1c9958591e4819195b195d195960521b6044820152606490fd5b60405162461bcd60e51b8152600481018490526028818a01527f4f6e6c79207265766965776572206f72206f776e65722063616e2064656c6574604482015267652072657669657760c01b6064820152608490fd5b60005416331490508961608d565b50606491866040519262461bcd60e51b845260048401528201527414995d9a595dc8191bd95cc81b9bdd08195e1a5cdd605a1b6044820152fd5b50505050509150506160da565b346105d75761139861621036616ef7565b9161622361621e84336175a8565b6174ab565b617670565b346105d75760203660031901126105d7576004356162446173c2565b80600052601960205261625d604060002054151561854e565b8060005260196020526000805160206193048339815191526127bb60406000206003810160ff198154169055604051918291604083526001604084019101616fa5565b346105d75760603660031901126105d757602480356004356044356001600160401b0381116105d7576162d7903690600401616edc565b90806000526020916015835260018060a01b036001604060002001541633146164305783151580616425575b156163e1578051156163a35790601592916001600a54019081600a55616327618610565b958287523385880152604087015260608601524260a0860152600052601d82526040600020600160ff198254161790556000525260106040600020018054600160401b8110156147495761638091600182018155618641565b61638e576113989250617ff1565b82634e487b7160e01b60005260006004526000fd5b60405162461bcd60e51b81526004810184905260178187015276436f6d6d656e742063616e6e6f7420626520656d70747960481b6044820152606490fd5b60405162461bcd60e51b815260048101849052601e818701527f526174696e67206d757374206265206265747765656e203120616e64203500006044820152606490fd5b506005841115616303565b60405162461bcd60e51b8152600481018490526026818701527f53656c6c65722063616e6e6f7420726576696577207468656972206f776e20706044820152651c9bd91d58dd60d21b6064820152608490fd5b346105d75760003660031901126105d75761649c6173c2565b33600052601e602052604060002060018060a01b031981541690556000805160206192448339815191526040805133815260006020820152a1005b346105d75760403660031901126105d7576113986164f3616d92565b600435618de9565b346105d75760203660031901126105d7576001600160a01b0361651c616d7c565b166000526014602052602060ff604060002054166040519015158152f35b346105d75760403660031901126105d757616553616d7c565b602435906001600160a01b03808061656a85617461565b1692169180831461666557803314908115616640575b50156165d557600083815260066020526040902080546001600160a01b031916831790556165ad83617461565b167f8c5be1e5ebec7d5bd14f71427d1e84f3dd0314c0f7b2291e5b200ac8c7c3b925600080a4005b60405162461bcd60e51b815260206004820152603d60248201527f4552433732313a20617070726f76652063616c6c6572206973206e6f7420746f60448201527f6b656e206f776e6572206f7220617070726f76656420666f7220616c6c0000006064820152608490fd5b9050600052600760205260406000203360005260205260ff6040600020541684616580565b60405162461bcd60e51b815260206004820152602160248201527f4552433732313a20617070726f76616c20746f2063757272656e74206f776e656044820152603960f91b6064820152608490fd5b346105d75760203660031901126105d75760206158db600435617484565b346105d75760003660031901126105d7576040516000906002546166f581616f6b565b8083526001918083169081156131e0575060011461671d576103538361317281870382616e67565b6002600090815260209450917f405787fa12a823e0f2b7631cc41b3ba8828b3321ca811111fa75cd3aa3bb5ace5b8284106167645750505081019091019061317281613162565b805485850187015292850192810161674b565b346105d75760003660031901126105d75760088054600060015b828111156169b157506167a3906183d2565b9060009260015b828111156167c057604051806103538682616d1a565b80600052602060158152604060002090600f82015460ff926010908483831c1615806167fb575b5050505050506167f6906183c3565b6167aa565b60409a969a519561680b87616da8565b8254875260018301546001600160a01b031686880152604051616835816103c38160028801616fa5565b604088015260405161684e816103c38160038801616fa5565b606088015260048301546080880152600583015460a08801526006946168758685016182fd565b60c0890152616886600785016182fd565b60e08901526168968a85016182fd565b6101008901526040516168b0816103c38160098901616fa5565b6101208901526040516168ca816103c381600a8901616fa5565b610140890152600b8401546101608901526040516168ef816103c381600c8901616fa5565b610180890152604051616909816103c381600d8901616fa5565b6101a0890152600e8401546101c089015281811615156101e0890152891c16151561020087015215610220860152019081549161694583617ed9565b936169536040519586616e67565b8385526000918252808220918186015b8582106169955750505050505091816167f69361024061698994015261052e8288618422565b949086808080806167e7565b84836001926169a387618362565b815201940191019092616963565b80600052601560205260ff600f6040600020015460101c16156169dd575b6169d8906183c3565b616791565b906169ea6169d8916183c3565b9190506169cf565b346105d75760203660031901126105d75760043563ffffffff60e01b81168091036105d7576020906380ac58cd60e01b8114908115616a4f575b8115616a3e575b506040519015158152f35b6301ffc9a760e01b14905082616a33565b635b5e139f60e01b81149150616a2c565b346105d75760203660031901126105d757602090600435600052601d825260ff6040600020541615158152f35b919082519283825260005b848110616ab9575050826000602080949584010152601f8019910116010190565b602081830181015184830182015201616a98565b908082519081815260208091019281808460051b8301019501936000915b848310616afb5750505050505090565b9091929394958480616b19600193601f198682030187528a51616a8d565b9801930193019194939290616aeb565b908082519081815260208091019281808460051b8301019501936000915b848310616b575750505050505090565b9091929394958480600192601f1985820301865289519081518152848060a01b0383830151168382015260408083015190820152616ba46060808401519060c08091850152830190616a8d565b9160808082015115159083015260a0809101519101529801930193019194939290616b47565b90616d17918051825260018060a01b036020820151166020830152616cd1616cbd616c9e616c8a616c76616c62616c50616c2a616c1860408a015160408c61026091829101528c0190616a8d565b60608a01518b820360608d0152616a8d565b608089015160808b015260a089015160a08b015260c08901518a820360c08c0152616acd565b60e088015189820360e08b0152616acd565b6101008088015190898303908a0152616acd565b610120808701519088830390890152616a8d565b610140808601519087830390880152616a8d565b6101608085015190860152610180808501519086830390870152616a8d565b6101a0808401519085830390860152616a8d565b916101c080830151908201526101e08083015115159082015261020080830151151590820152610220808301511515908201526102408092015191818403910152616b29565b90565b602080820190808352835180925260408301928160408460051b8301019501936000915b848310616d4e5750505050505090565b9091929394958480616d6c600193603f198682030187528a51616bca565b9801930193019194939290616d3e565b600435906001600160a01b03821682036105d757565b602435906001600160a01b03821682036105d757565b61026081019081106001600160401b0382111761143b57604052565b61010081019081106001600160401b0382111761143b57604052565b60e081019081106001600160401b0382111761143b57604052565b608081019081106001600160401b0382111761143b57604052565b60a081019081106001600160401b0382111761143b57604052565b60c081019081106001600160401b0382111761143b57604052565b602081019081106001600160401b0382111761143b57604052565b601f909101601f19168101906001600160401b0382119082101761143b57604052565b6001600160401b03811161143b57601f01601f191660200190565b929192616eb182616e8a565b91616ebf6040519384616e67565b8294818452818301116105d7578281602093846000960137010152565b9080601f830112156105d757816020616d1793359101616ea5565b60609060031901126105d7576001600160a01b039060043582811681036105d7579160243590811681036105d7579060443590565b9060606003198301126105d75760043591602435906001600160401b0382116105d757616f5b91600401616edc565b9060443580151581036105d75790565b90600182811c92168015616f9b575b6020831014616f8557565b634e487b7160e01b600052602260045260246000fd5b91607f1691616f7a565b9060009291805491616fb683616f6b565b9182825260019384811690816000146170185750600114616fd8575b50505050565b90919394506000526020928360002092846000945b838610617004575050505001019038808080616fd2565b805485870183015294019385908201616fed565b9294505050602093945060ff191683830152151560051b01019038808080616fd2565b616d179160e06170d26170c06170ae61709c61708a6170786170668951610100808b528a0190616a8d565b60208a015189820360208b0152616a8d565b604089015188820360408a0152616a8d565b60608801518782036060890152616a8d565b60808701518682036080880152616a8d565b60a086015185820360a0870152616a8d565b60c085015184820360c0860152616a8d565b9201519060e0818403910152616a8d565b602080820190808352835180925260409283810182858560051b8401019601946000925b858410617118575050505050505090565b909192939495968580617190600193603f198682030188528b51805182528381015184830152878101518883015260608082015190830152858060a01b0360808181840151169084015260a09081830151169083015260c08082015115159083015260e080910151916101008092820152019061703b565b990194019401929594939190617107565b9060c08061720c6171fa6171e86171d66171c4885160e0895260e0890190616a8d565b602089015188820360208a0152616a8d565b60408801518782036040890152616a8d565b60608701518682036060880152616a8d565b60808601518582036080870152616a8d565b9360a081015160a08501520151151591015290565b90600482101561722e5752565b634e487b7160e01b600052602160045260246000fd5b80548210156122965760005260206000200190600090565b805482101561229657600052600e602060002091020190600090565b90600760e060409361734085519161728f83616dc4565b610625839780516172a4816103c38187616fa5565b855280516172b9816103c38160018801616fa5565b602086015280516172d1816103c38160028801616fa5565b8186015280516172e8816103c38160038801616fa5565b60608601528051617300816103c38160048801616fa5565b60808601528051617318816103c38160058801616fa5565b60a08601528051617330816103c38160068801616fa5565b60c0860152518096819301616fa5565b0152565b95929091616d179897959492875260208701526040860152606085015260018060a01b0380921660808501521660a0830152151560c0820152610100908160e0820152019061703b565b90815180825260208080930193019160005b8281106173ae575050505090565b8351855293810193928101926001016173a0565b6000546001600160a01b031633036173d657565b606460405162461bcd60e51b815260206004820152602060248201527f4f776e61626c653a2063616c6c6572206973206e6f7420746865206f776e65726044820152fd5b1561742157565b60405162461bcd60e51b8152602060048201526018602482015277115490cdcc8c4e881a5b9d985b1a59081d1bdad95b88125160421b6044820152606490fd5b6000908152600460205260409020546001600160a01b0316616d1781151561741a565b6174906127e68261777d565b6000908152600660205260409020546001600160a01b031690565b156174b257565b60405162461bcd60e51b815260206004820152602d60248201527f4552433732313a2063616c6c6572206973206e6f7420746f6b656e206f776e6560448201526c1c881bdc88185c1c1c9bdd9959609a1b6064820152608490fd5b9061753193929161752161621e84336175a8565b61752c838383617670565b6177ca565b1561753857565b60405162461bcd60e51b81528061755160048201617555565b0390fd5b60809060208152603260208201527f4552433732313a207472616e7366657220746f206e6f6e20455243373231526560408201527131b2b4bb32b91034b6b83632b6b2b73a32b960711b60608201520190565b906001600160a01b0380806175bc84617461565b169316918383149384156175ef575b5083156175d9575b50505090565b6175e591929350617484565b16143880806175d3565b909350600052600760205260406000208260005260205260ff6040600020541692386175cb565b1561761d57565b60405162461bcd60e51b815260206004820152602560248201527f4552433732313a207472616e736665722066726f6d20696e636f72726563742060448201526437bbb732b960d91b6064820152608490fd5b906176989161767e84617461565b6001600160a01b0393918416928492909183168414617616565b1691821561771b57816176b5916176ae86617461565b1614617616565b6000805160206192c4833981519152600084815260066020526040812060018060a01b03199081815416905583825260056020526040822060001981540190558482526040822060018154019055858252600460205284604083209182541617905580a4565b60405162461bcd60e51b8152602060048201526024808201527f4552433732313a207472616e7366657220746f20746865207a65726f206164646044820152637265737360e01b6064820152608490fd5b9060ff801983541691151516179055565b6000908152600460205260409020546001600160a01b0316151590565b3d156177c5573d906177ab82616e8a565b916177b96040519384616e67565b82523d6000602084013e565b606090565b91926000929190813b156178bf576020916178209185604051958680958194630a85bd0160e11b9b8c845233600485015260018060a01b0380951660248501526044840152608060648401526084830190616a8d565b0393165af190829082617870575b50506178625761783c61779a565b8051908161785d5760405162461bcd60e51b81528061755160048201617555565b602001fd5b6001600160e01b0319161490565b909192506020813d82116178b7575b8161788c60209383616e67565b810103126178b35751906001600160e01b0319821682036178b0575090388061782e565b80fd5b5080fd5b3d915061787f565b5050505050600190565b156178d057565b60405162461bcd60e51b815260206004820152600f60248201526e496e76616c6964206164647265737360881b6044820152606490fd5b1561790e57565b60405162461bcd60e51b81526020600482015260146024820152734e616d652063616e6e6f7420626520656d70747960601b6044820152606490fd5b818110617955575050565b6000815560010161794a565b9190601f811161797057505050565b61799c926000526020600020906020601f840160051c8301931061799e575b601f0160051c019061794a565b565b909150819061798f565b156179af57565b60405162461bcd60e51b815260206004820152600e60248201526d115b585a5b081c995c5d5a5c995960921b6044820152606490fd5b156179ec57565b60405162461bcd60e51b815260206004820152600e60248201526d141a1bdb99481c995c5d5a5c995960921b6044820152606490fd5b60405190617a2f82616de0565b600060c0836060808252806020830152806040830152808083015260808201528260a08201520152565b15617a6057565b60405162461bcd60e51b815260206004820152601560248201527414d95b1b195c881b9bdd081c9959da5cdd195c9959605a1b6044820152606490fd5b6001600160a01b03908116908115617ad357600054168114617acd57600052601260205260ff6040600020541690565b50600290565b60405162461bcd60e51b8152602060048201526016602482015275496e76616c69642073656c6c6572206164647265737360501b6044820152606490fd5b15617b1857565b60405162461bcd60e51b815260206004820152601960248201527826bab9ba1031329030903932b3b4b9ba32b932b2103ab9b2b960391b6044820152606490fd5b15617b6057565b60405162461bcd60e51b815260206004820152601b60248201527a26bab9ba1031329030903932b3b4b9ba32b932b21039b2b63632b960291b6044820152606490fd5b903590601e19813603018212156105d757018035906001600160401b0382116105d7576020019181360383136105d757565b15617bdc57565b60405162461bcd60e51b815260206004820152601c60248201527b05072696365206d7573742062652067726561746572207468616e20360241b6044820152606490fd5b15617c2757565b60405162461bcd60e51b815260206004820152601c60248201527b053746f636b206d7573742062652067726561746572207468616e20360241b6044820152606490fd5b15617c7257565b60405162461bcd60e51b815260206004820152601d60248201527f576569676874206d7573742062652067726561746572207468616e20300000006044820152606490fd5b15617cbe57565b60405162461bcd60e51b81526020600482015260156024820152744d6f64656c2063616e6e6f7420626520656d70747960581b6044820152606490fd5b15617d0257565b60405162461bcd60e51b81526020600482015260156024820152744272616e642063616e6e6f7420626520656d70747960581b6044820152606490fd5b15617d4657565b60405162461bcd60e51b815260206004820152601a6024820152790534b55206d7573742062652067726561746572207468616e20360341b6044820152606490fd5b903590601e19813603018212156105d757018035906001600160401b0382116105d757602001918160051b360383136105d757565b15617dc457565b60405162461bcd60e51b8152602060048201526016602482015275496d616765732063616e6e6f7420626520656d70747960501b6044820152606490fd5b15617e0957565b60405162461bcd60e51b815260206004820152601c60248201527b496d616765732063616e6e6f74206265206d6f7265207468616e203560201b6044820152606490fd5b60405190617e5a82616da8565b8161024060009182815282602082015260609283604083015283808301528060808301528060a08301528360c08301528360e08301528361010083015283610120830152836101408301528061016083015283610180830152836101a0830152806101c0830152806101e0830152806102008301526102208201520152565b6001600160401b03811161143b5760051b60200190565b92919092617efd84617ed9565b91617f0b6040519384616e67565b829480845260208094019060051b8301928284116105d75780915b848310617f3557505050505050565b82356001600160401b0381116105d7578691617f548684938601616edc565b815201920191617f26565b617f698154616f6b565b9081617f73575050565b81601f60009311600114617f85575055565b908083918252617fa4601f60208420940160051c84016001850161794a565b5555565b90600160401b811161143b57815491818155828210617fc657505050565b600052602060002091820191015b818110617fdf575050565b80617feb600192617f5f565b01617fd4565b81518155602080830151600180840180546001600160a01b0319166001600160a01b03939093169290921790915560408401516002840155606084015180519394909390926003860192906001600160401b03831161143b57618058836142e78654616f6b565b80601f84116001146180b057509180809260a09695946005986000946180a5575b50501b916000199060031b1c19161790555b61809e608082015115156004860161776c565b0151910155565b015192503880618079565b91939495601f1984168660005283600020936000905b828210618108575050916005979593918560a0989694106180ef575b505050811b01905561808b565b015160001960f88460031b161c191690553880806180e2565b8088869782949787015181550196019401906180c6565b8054600160401b81101561143b5761813c91600182018155617244565b819291549060031b91821b91600019901b1916179055565b1561815b57565b60405162461bcd60e51b815260206004820152601c60248201527b115490cdcc8c4e881d1bdad95b88185b1c9958591e481b5a5b9d195960221b6044820152606490fd5b156181a657565b60405162461bcd60e51b8152602060048201526016602482015275141c9bd91d58dd08191bd95cc81b9bdd08195e1a5cdd60521b6044820152606490fd5b156181eb57565b60405162461bcd60e51b8152602060048201526012602482015271141c9bd91d58dd081a5cc819195b195d195960721b6044820152606490fd5b908082146182f9576182378154616f6b565b906001600160401b03821161143b578190618256826142e78654616f6b565b600090601f831160011461828d57600092618282575b50508160011b916000199060031b1c1916179055565b01549050388061826c565b81526020808220858352818320935090601f1985169083905b8282106182e05750509084600195949392106182c7575b505050811b019055565b015460001960f88460031b161c191690553880806182bd565b84958192958501548155600180910196019401906182a6565b5050565b90815461830981617ed9565b9260409361831985519182616e67565b828152809460208092019260005281600020906000935b85851061833f57505050505050565b60018481928451618354816103c3818a616fa5565b815201930194019391618330565b9060405161836f81616e31565b60a06005829480548452600180841b036001820154166020850152600281015460408501526040516183a8816103c38160038601616fa5565b606085015260ff600482015416151560808501520154910152565b60001981146114255760010190565b906183dc82617ed9565b6183e96040519182616e67565b82815280926183fa601f1991617ed9565b019060005b82811061840b57505050565b602090618416617e4d565b828285010152016183ff565b80518210156122965760209160051b010190565b1561843d57565b60405162461bcd60e51b815260206004820152601d60248201527f43617465676f7279206e616d652063616e6e6f7420626520656d7074790000006044820152606490fd5b1561848957565b606460405162461bcd60e51b815260206004820152602060248201527f53756263617465676f7279206e616d652063616e6e6f7420626520656d7074796044820152fd5b90821015612296576184e49160051b810190617ba3565b9091565b156184ef57565b60405162461bcd60e51b815260206004820152601760248201527610d85d1959dbdc9e48191bd95cc81b9bdd08195e1a5cdd604a1b6044820152606490fd5b90618546602091949394604084526040840190616a8d565b931515910152565b1561855557565b60405162461bcd60e51b815260206004820152601a60248201527914dd5898d85d1959dbdc9e48191bd95cc81b9bdd08195e1a5cdd60321b6044820152606490fd5b9060405191828154918282526020928383019160005283600020936000905b8282106185cc5750505061799c92500383616e67565b8554845260019586019588955093810193909101906185b6565b60005b8281106185f557505050565b6060828201526020016185e9565b9190820391821161142557565b6040519061861d82616e31565b600060a0838281528260208201528260408201526060808201528260808201520152565b8054821015612296576000526006602060002091020190600090565b60026001541461866e576002600155565b60405162461bcd60e51b815260206004820152601f60248201527f5265656e7472616e637947756172643a207265656e7472616e742063616c6c006044820152606490fd5b8054600160401b81101561143b576186d290600192838201815561725c565b929092618d795780518355602080820151838501556040820151600285015560608201516003808601919091556080830151600480870180546001600160a01b0319166001600160a01b0393841617905560a08086015160058901805460c08901516001600160a81b0319909116929095169190911793151590911b60ff60a01b169290921790915560e0909301518051805191966001600160401b039593949193926006820190878111618d645761878f816138668454616f6b565b8084601f97888311600114618d0257600092618cf7575b505060001982891b1c191690891b1790555b6007810182890151805190888211618ac15781906187da826142e78654616f6b565b8590888311600114618c9557600092618c8a575b505060001982891b1c191690891b1790555b600881016040890151805190888211618ac1578190618823826142e78654616f6b565b8590888311600114618c2857600092618c1d575b505060001982891b1c191690891b1790555b600981016060890151805190888211618ac157819061886c826142e78654616f6b565b8590888311600114618bbb57600092618bb0575b505060001982891b1c191690891b1790555b600a81016080890151805190888211618ac15781906188b5826142e78654616f6b565b8590888311600114618b4e57600092618b43575b505060001982891b1c191690891b1790555b600b810160a0890151805190888211618ac15781906188fe826142e78654616f6b565b8590888311600114618ae157600092618ad6575b505060001982891b1c191690891b1790555b600c810160c0890151805190888211618ac15761894582611b918554616f6b565b8490878311600114618a54579180600d949260e09694600092618a49575b5050600019828b1b1c1916908b1b1790555b01970151918251958611618a345750618998856189928954616f6b565b89617961565b809285116001146189ce57509383949184926000956189c3575b50501b92600019911b1c1916179055565b0151935038806189b2565b92919084601f1981168860005285600020956000905b89838310618a1a5750505010618a00575b50505050811b019055565b01519060f884600019921b161c19169055388080806189f5565b8587015189559097019694850194889350908101906189e4565b604190634e487b7160e01b6000525260246000fd5b015190503880618963565b8a9291601f1983169185600052876000209260005b89828210618aab5750509160e09795939185600d98969410618a93575b505050811b019055618975565b0151600019838d1b60f8161c19169055388080618a86565b8385015186558f97909501949384019301618a69565b604186634e487b7160e01b6000525260246000fd5b015190503880618912565b908b9350601f1983169185600052876000209260005b89828210618b2d5750508411618b15575b505050811b019055618924565b0151600019838b1b60f8161c19169055388080618b08565b8385015186558f97909501949384019301618af7565b0151905038806188c9565b908b9350601f1983169185600052876000209260005b89828210618b9a5750508411618b82575b505050811b0190556188db565b0151600019838b1b60f8161c19169055388080618b75565b8385015186558f97909501949384019301618b64565b015190503880618880565b908b9350601f1983169185600052876000209260005b89828210618c075750508411618bef575b505050811b019055618892565b0151600019838b1b60f8161c19169055388080618be2565b8385015186558f97909501949384019301618bd1565b015190503880618837565b908b9350601f1983169185600052876000209260005b89828210618c745750508411618c5c575b505050811b019055618849565b0151600019838b1b60f8161c19169055388080618c4f565b8385015186558f97909501949384019301618c3e565b0151905038806187ee565b908b9350601f1983169185600052876000209260005b89828210618ce15750508411618cc9575b505050811b019055618800565b0151600019838b1b60f8161c19169055388080618cbc565b8385015186558f97909501949384019301618cab565b0151905038806187a6565b908b9350601f1983169185600052876000209260005b89828210618d4e5750508411618d36575b505050811b0190556187b8565b0151600019838b1b60f8161c19169055388080618d29565b8385015186558f97909501949384019301618d18565b604185634e487b7160e01b6000525260246000fd5b634e487b7160e01b600052600060045260246000fd5b15618d9657565b60405162461bcd60e51b815260206004820152602560248201527f4f6e6c792076657269666965642073656c6c6572206f72206f776e657220616c6044820152641b1bddd95960da1b6064820152608490fd5b6000805490939291906001600160a01b039081163314618ecc57338552601e60205260408520548116908115618e7657818652601260205260ff6040872054166004811015618e62579161799c9596916002618e509414928315618e55575b505050618d8f565b618ed4565b5416149050388080618e48565b634e487b7160e01b87526021600452602487fd5b9050601260205260ff6040862054166004811015618eb85794618e5091600261799c969714918215618eaa575b5050618d8f565b909150541633143880618ea3565b634e487b7160e01b86526021600452602486fd5b5061799c9293505b600091825b60018060a01b0380831680600052601b602081815260409283600020805487101561918157618f09878a9261725c565b505414618f23575050505050618f1e906183c3565b618ed9565b809192939496979850600052828252618f3f858560002061725c565b509560ff60058098015460a01c1661914157816000528383528087618f67888860002061725c565b500154163314908115619133575b50156190dc5790618f8f949392916000525260002061725c565b5001805460ff60a01b1916600160a01b17905560015b156190a257816000526020916015835260018060a01b039260019384936040828682600020015416866000905b618ff4575b5050600080516020619264833981519152949550519586521693a3565b81600052601c80875283600020805483101561909b57619015838a9261725c565b50541480619076575b619032575061902c906183c3565b87618fd2565b6000805160206192648339815191529798509061905a9160059360005287528360002061725c565b5001805460ff60a01b1916600160a01b17905586959438618fd7565b508260005280875285600461908e848760002061725c565b500154168686161461901e565b5050618fd7565b60405162461bcd60e51b8152602060048201526012602482015271141d5c98da185cd9481b9bdd08199bdd5b9960721b6044820152606490fd5b835162461bcd60e51b815260048101839052602a60248201527f4f6e6c792073656c6c6572206f72206f776e65722063616e206d61726b2061736044820152690819195b1a5d995c995960b21b6064820152608490fd5b600054163314905038618f75565b6064838587519162461bcd60e51b8352600483015260248201527a105b1c9958591e481b585c9ad95908185cc819195b1a5d995c9959602a1b6044820152fd5b505050505050509091618fa5565b6000918291829182916001600160a01b03166191ac8115156178c9565b5af16191b661779a565b50156191be57565b60405162461bcd60e51b815260206004820152600f60248201526e151c985b9cd9995c8819985a5b1959608a1b6044820152606490fd5b600090600e8054925b83811061920e5750505050600090565b6000828152602090208101546001600160a01b0384811691161461923a57619235906183c3565b6191fe565b5050505060019056fe32b449308c94e824ccedd9877932cd82f89a481c06c4643a0cb2914454a8c582f9dc8543b583e01f592678422369b2777e3649761f5808ae432cb1c24ca9438c79d3150b1760cd391f5006c9543aea088e4c9060f3e582ea0a948dc6649b25da8be0079c531659141344cd1fd0a4f28419497f9722a3daafe3b4186f6b6457e0ddf252ad1be2c89b69c2b068fc378daa952ba7f163c4a11628f55a4df523b3ef5a8a989e12f3ce7cf805b73156a361da5d8369f0c37173209308910b322117ac4cfca6396923c3eee68be58aa35fd6623ae5d67bb552da5e1de2e0d5854166dc8d1108e10bcb7c27dddfc02ed9d693a074039d026cf4ea4240b40f7d581ac802a164736f6c6343000813000a",
  "linkReferences": {},
  "deployedLinkReferences": {}
}