{
  "_format": "hh-sol-artifact-1",
  "contractName": "HemShop",
  "sourceName": "contracts/HemShop.sol",
  "abi": [
    {
      "inputs": [
        {
          "internalType": "uint256",
          "name": "_pct",
          "type": "uint256"
        }
      ],
      "stateMutability": "nonpayable",
      "type": "constructor"
    },
    {
      "anonymous": false,
      "inputs": [
        {
          "indexed": true,
          "internalType": "address",
          "name": "owner",
          "type": "address"
        },
        {
          "indexed": true,
          "internalType": "address",
          "name": "approved",
          "type": "address"
        },
        {
          "indexed": true,
          "internalType": "uint256",
          "name": "tokenId",
          "type": "uint256"
        }
      ],
      "name": "Approval",
      "type": "event"
    },
    {
      "anonymous": false,
      "inputs": [
        {
          "indexed": true,
          "internalType": "address",
          "name": "owner",
          "type": "address"
        },
        {
          "indexed": true,
          "internalType": "address",
          "name": "operator",
          "type": "address"
        },
        {
          "indexed": false,
          "internalType": "bool",
          "name": "approved",
          "type": "bool"
        }
      ],
      "name": "ApprovalForAll",
      "type": "event"
    },
    {
      "anonymous": false,
      "inputs": [
        {
          "indexed": true,
          "internalType": "address",
          "name": "previousOwner",
          "type": "address"
        },
        {
          "indexed": true,
          "internalType": "address",
          "name": "newOwner",
          "type": "address"
        }
      ],
      "name": "OwnershipTransferred",
      "type": "event"
    },
    {
      "anonymous": false,
      "inputs": [
        {
          "indexed": true,
          "internalType": "address",
          "name": "from",
          "type": "address"
        },
        {
          "indexed": true,
          "internalType": "address",
          "name": "to",
          "type": "address"
        },
        {
          "indexed": true,
          "internalType": "uint256",
          "name": "tokenId",
          "type": "uint256"
        }
      ],
      "name": "Transfer",
      "type": "event"
    },
    {
      "inputs": [
        {
          "internalType": "address",
          "name": "",
          "type": "address"
        }
      ],
      "name": "adminImpersonating",
      "outputs": [
        {
          "internalType": "address",
          "name": "",
          "type": "address"
        }
      ],
      "stateMutability": "view",
      "type": "function"
    },
    {
      "inputs": [
        {
          "internalType": "address",
          "name": "to",
          "type": "address"
        },
        {
          "internalType": "uint256",
          "name": "tokenId",
          "type": "uint256"
        }
      ],
      "name": "approve",
      "outputs": [],
      "stateMutability": "nonpayable",
      "type": "function"
    },
    {
      "inputs": [
        {
          "internalType": "address",
          "name": "owner",
          "type": "address"
        }
      ],
      "name": "balanceOf",
      "outputs": [
        {
          "internalType": "uint256",
          "name": "",
          "type": "uint256"
        }
      ],
      "stateMutability": "view",
      "type": "function"
    },
    {
      "inputs": [
        {
          "internalType": "uint256",
          "name": "productId",
          "type": "uint256"
        },
        {
          "components": [
            {
              "internalType": "string",
              "name": "fullName",
              "type": "string"
            },
            {
              "internalType": "string",
              "name": "streetAddress",
              "type": "string"
            },
            {
              "internalType": "string",
              "name": "city",
              "type": "string"
            },
            {
              "internalType": "string",
              "name": "state",
              "type": "string"
            },
            {
              "internalType": "string",
              "name": "country",
              "type": "string"
            },
            {
              "internalType": "string",
              "name": "postalCode",
              "type": "string"
            },
            {
              "internalType": "string",
              "name": "phone",
              "type": "string"
            },
            {
              "internalType": "string",
              "name": "email",
              "type": "string"
            }
          ],
          "internalType": "struct HemShop.ShippingDetails",
          "name": "shippingDetails",
          "type": "tuple"
        },
        {
          "internalType": "string",
          "name": "selectedColor",
          "type": "string"
        },
        {
          "internalType": "string",
          "name": "selectedSize",
          "type": "string"
        },
        {
          "internalType": "uint256",
          "name": "quantity",
          "type": "uint256"
        }
      ],
      "name": "buyProduct",
      "outputs": [],
      "stateMutability": "payable",
      "type": "function"
    },
    {
      "inputs": [
        {
          "internalType": "address",
          "name": "",
          "type": "address"
        },
        {
          "internalType": "uint256",
          "name": "",
          "type": "uint256"
        }
      ],
      "name": "buyerPurchaseHistory",
      "outputs": [
        {
          "internalType": "uint256",
          "name": "productId",
          "type": "uint256"
        },
        {
          "internalType": "uint256",
          "name": "totalAmount",
          "type": "uint256"
        },
        {
          "internalType": "uint256",
          "name": "basePrice",
          "type": "uint256"
        },
        {
          "internalType": "uint256",
          "name": "timestamp",
          "type": "uint256"
        },
        {
          "internalType": "uint256",
          "name": "lastUpdated",
          "type": "uint256"
        },
        {
          "internalType": "address",
          "name": "buyer",
          "type": "address"
        },
        {
          "internalType": "address",
          "name": "seller",
          "type": "address"
        },
        {
          "internalType": "bool",
          "name": "isDelivered",
          "type": "bool"
        },
        {
          "components": [
            {
              "internalType": "string",
              "name": "fullName",
              "type": "string"
            },
            {
              "internalType": "string",
              "name": "streetAddress",
              "type": "string"
            },
            {
              "internalType": "string",
              "name": "city",
              "type": "string"
            },
            {
              "internalType": "string",
              "name": "state",
              "type": "string"
            },
            {
              "internalType": "string",
              "name": "country",
              "type": "string"
            },
            {
              "internalType": "string",
              "name": "postalCode",
              "type": "string"
            },
            {
              "internalType": "string",
              "name": "phone",
              "type": "string"
            },
            {
              "internalType": "string",
              "name": "email",
              "type": "string"
            }
          ],
          "internalType": "struct HemShop.ShippingDetails",
          "name": "shippingDetails",
          "type": "tuple"
        },
        {
          "components": [
            {
              "internalType": "string",
              "name": "name",
              "type": "string"
            },
            {
              "internalType": "string[]",
              "name": "images",
              "type": "string[]"
            },
            {
              "internalType": "string",
              "name": "selectedColor",
              "type": "string"
            },
            {
              "internalType": "string",
              "name": "selectedSize",
              "type": "string"
            },
            {
              "internalType": "uint256",
              "name": "quantity",
              "type": "uint256"
            },
            {
              "internalType": "string",
              "name": "category",
              "type": "string"
            },
            {
              "internalType": "string",
              "name": "description",
              "type": "string"
            }
          ],
          "internalType": "struct HemShop.OrderDetails",
          "name": "orderDetails",
          "type": "tuple"
        }
      ],
      "stateMutability": "view",
      "type": "function"
    },
    {
      "inputs": [
        {
          "internalType": "uint256",
          "name": "newPct",
          "type": "uint256"
        }
      ],
      "name": "changeServicePct",
      "outputs": [],
      "stateMutability": "nonpayable",
      "type": "function"
    },
    {
      "inputs": [
        {
          "internalType": "string",
          "name": "_name",
          "type": "string"
        }
      ],
      "name": "createCategory",
      "outputs": [],
      "stateMutability": "nonpayable",
      "type": "function"
    },
    {
      "inputs": [
        {
          "components": [
            {
              "internalType": "string",
              "name": "name",
              "type": "string"
            },
            {
              "internalType": "string",
              "name": "description",
              "type": "string"
            },
            {
              "internalType": "uint256",
              "name": "price",
              "type": "uint256"
            },
            {
              "internalType": "uint256",
              "name": "stock",
              "type": "uint256"
            },
            {
              "internalType": "string[]",
              "name": "colors",
              "type": "string[]"
            },
            {
              "internalType": "string[]",
              "name": "sizes",
              "type": "string[]"
            },
            {
              "internalType": "string[]",
              "name": "images",
              "type": "string[]"
            },
            {
              "internalType": "uint256",
              "name": "categoryId",
              "type": "uint256"
            },
            {
              "internalType": "uint256",
              "name": "subCategoryId",
              "type": "uint256"
            },
            {
              "internalType": "uint256",
              "name": "weight",
              "type": "uint256"
            },
            {
              "internalType": "string",
              "name": "model",
              "type": "string"
            },
            {
              "internalType": "string",
              "name": "brand",
              "type": "string"
            },
            {
              "internalType": "uint256",
              "name": "sku",
              "type": "uint256"
            }
          ],
          "internalType": "struct HemShop.ProductInput",
          "name": "input",
          "type": "tuple"
        }
      ],
      "name": "createProduct",
      "outputs": [],
      "stateMutability": "nonpayable",
      "type": "function"
    },
    {
      "inputs": [
        {
          "internalType": "uint256",
          "name": "productId",
          "type": "uint256"
        },
        {
          "internalType": "uint256",
          "name": "rating",
          "type": "uint256"
        },
        {
          "internalType": "string",
          "name": "comment",
          "type": "string"
        }
      ],
      "name": "createReview",
      "outputs": [],
      "stateMutability": "nonpayable",
      "type": "function"
    },
    {
      "inputs": [
        {
          "internalType": "uint256",
          "name": "parentId",
          "type": "uint256"
        },
        {
          "internalType": "string[]",
          "name": "names",
          "type": "string[]"
        }
      ],
      "name": "createSubCategoriesBulk",
      "outputs": [],
      "stateMutability": "nonpayable",
      "type": "function"
    },
    {
      "inputs": [
        {
          "internalType": "uint256",
          "name": "_parentId",
          "type": "uint256"
        },
        {
          "internalType": "string",
          "name": "_name",
          "type": "string"
        }
      ],
      "name": "createSubCategory",
      "outputs": [],
      "stateMutability": "nonpayable",
      "type": "function"
    },
    {
      "inputs": [],
      "name": "getAllCategories",
      "outputs": [
        {
          "internalType": "uint256[]",
          "name": "ids",
          "type": "uint256[]"
        },
        {
          "internalType": "string[]",
          "name": "names",
          "type": "string[]"
        },
        {
          "internalType": "bool[]",
          "name": "activeStates",
          "type": "bool[]"
        },
        {
          "internalType": "uint256[][]",
          "name": "subCategoryIdArrays",
          "type": "uint256[][]"
        }
      ],
      "stateMutability": "view",
      "type": "function"
    },
    {
      "inputs": [],
      "name": "getAllProducts",
      "outputs": [
        {
          "components": [
            {
              "internalType": "uint256",
              "name": "id",
              "type": "uint256"
            },
            {
              "internalType": "address",
              "name": "seller",
              "type": "address"
            },
            {
              "internalType": "string",
              "name": "name",
              "type": "string"
            },
            {
              "internalType": "string",
              "name": "description",
              "type": "string"
            },
            {
              "internalType": "uint256",
              "name": "price",
              "type": "uint256"
            },
            {
              "internalType": "uint256",
              "name": "stock",
              "type": "uint256"
            },
            {
              "internalType": "string[]",
              "name": "colors",
              "type": "string[]"
            },
            {
              "internalType": "string[]",
              "name": "sizes",
              "type": "string[]"
            },
            {
              "internalType": "string[]",
              "name": "images",
              "type": "string[]"
            },
            {
              "internalType": "string",
              "name": "category",
              "type": "string"
            },
            {
              "internalType": "string",
              "name": "subCategory",
              "type": "string"
            },
            {
              "internalType": "uint256",
              "name": "weight",
              "type": "uint256"
            },
            {
              "internalType": "string",
              "name": "model",
              "type": "string"
            },
            {
              "internalType": "string",
              "name": "brand",
              "type": "string"
            },
            {
              "internalType": "uint256",
              "name": "sku",
              "type": "uint256"
            },
            {
              "internalType": "bool",
              "name": "soldout",
              "type": "bool"
            },
            {
              "internalType": "bool",
              "name": "wishlist",
              "type": "bool"
            },
            {
              "internalType": "bool",
              "name": "deleted",
              "type": "bool"
            },
            {
              "components": [
                {
                  "internalType": "uint256",
                  "name": "reviewId",
                  "type": "uint256"
                },
                {
                  "internalType": "address",
                  "name": "reviewer",
                  "type": "address"
                },
                {
                  "internalType": "uint256",
                  "name": "rating",
                  "type": "uint256"
                },
                {
                  "internalType": "string",
                  "name": "comment",
                  "type": "string"
                },
                {
                  "internalType": "bool",
                  "name": "deleted",
                  "type": "bool"
                },
                {
                  "internalType": "uint256",
                  "name": "timestamp",
                  "type": "uint256"
                }
              ],
              "internalType": "struct HemShop.ReviewStruct[]",
              "name": "reviews",
              "type": "tuple[]"
            }
          ],
          "internalType": "struct HemShop.ProductStruct[]",
          "name": "",
          "type": "tuple[]"
        }
      ],
      "stateMutability": "view",
      "type": "function"
    },
    {
      "inputs": [],
      "name": "getAllRegisteredSellers",
      "outputs": [
        {
          "internalType": "address[]",
          "name": "",
          "type": "address[]"
        }
      ],
      "stateMutability": "view",
      "type": "function"
    },
    {
      "inputs": [
        {
          "internalType": "uint256",
          "name": "tokenId",
          "type": "uint256"
        }
      ],
      "name": "getApproved",
      "outputs": [
        {
          "internalType": "address",
          "name": "",
          "type": "address"
        }
      ],
      "stateMutability": "view",
      "type": "function"
    },
    {
      "inputs": [
        {
          "internalType": "address",
          "name": "buyer",
          "type": "address"
        }
      ],
      "name": "getBuyerPurchaseHistory",
      "outputs": [
        {
          "components": [
            {
              "internalType": "uint256",
              "name": "productId",
              "type": "uint256"
            },
            {
              "internalType": "uint256",
              "name": "totalAmount",
              "type": "uint256"
            },
            {
              "internalType": "uint256",
              "name": "basePrice",
              "type": "uint256"
            },
            {
              "internalType": "uint256",
              "name": "timestamp",
              "type": "uint256"
            },
            {
              "internalType": "uint256",
              "name": "lastUpdated",
              "type": "uint256"
            },
            {
              "internalType": "address",
              "name": "buyer",
              "type": "address"
            },
            {
              "internalType": "address",
              "name": "seller",
              "type": "address"
            },
            {
              "internalType": "bool",
              "name": "isDelivered",
              "type": "bool"
            },
            {
              "components": [
                {
                  "internalType": "string",
                  "name": "fullName",
                  "type": "string"
                },
                {
                  "internalType": "string",
                  "name": "streetAddress",
                  "type": "string"
                },
                {
                  "internalType": "string",
                  "name": "city",
                  "type": "string"
                },
                {
                  "internalType": "string",
                  "name": "state",
                  "type": "string"
                },
                {
                  "internalType": "string",
                  "name": "country",
                  "type": "string"
                },
                {
                  "internalType": "string",
                  "name": "postalCode",
                  "type": "string"
                },
                {
                  "internalType": "string",
                  "name": "phone",
                  "type": "string"
                },
                {
                  "internalType": "string",
                  "name": "email",
                  "type": "string"
                }
              ],
              "internalType": "struct HemShop.ShippingDetails",
              "name": "shippingDetails",
              "type": "tuple"
            },
            {
              "components": [
                {
                  "internalType": "string",
                  "name": "name",
                  "type": "string"
                },
                {
                  "internalType": "string[]",
                  "name": "images",
                  "type": "string[]"
                },
                {
                  "internalType": "string",
                  "name": "selectedColor",
                  "type": "string"
                },
                {
                  "internalType": "string",
                  "name": "selectedSize",
                  "type": "string"
                },
                {
                  "internalType": "uint256",
                  "name": "quantity",
                  "type": "uint256"
                },
                {
                  "internalType": "string",
                  "name": "category",
                  "type": "string"
                },
                {
                  "internalType": "string",
                  "name": "description",
                  "type": "string"
                }
              ],
              "internalType": "struct HemShop.OrderDetails",
              "name": "orderDetails",
              "type": "tuple"
            }
          ],
          "internalType": "struct HemShop.PurchaseHistoryStruct[]",
          "name": "",
          "type": "tuple[]"
        }
      ],
      "stateMutability": "view",
      "type": "function"
    },
    {
      "inputs": [
        {
          "internalType": "uint256",
          "name": "_id",
          "type": "uint256"
        }
      ],
      "name": "getCategory",
      "outputs": [
        {
          "internalType": "uint256",
          "name": "id",
          "type": "uint256"
        },
        {
          "internalType": "string",
          "name": "name",
          "type": "string"
        },
        {
          "internalType": "bool",
          "name": "isActive",
          "type": "bool"
        },
        {
          "internalType": "uint256[]",
          "name": "subCategoryIds",
          "type": "uint256[]"
        }
      ],
      "stateMutability": "view",
      "type": "function"
    },
    {
      "inputs": [],
      "name": "getMyProducts",
      "outputs": [
        {
          "components": [
            {
              "internalType": "uint256",
              "name": "id",
              "type": "uint256"
            },
            {
              "internalType": "address",
              "name": "seller",
              "type": "address"
            },
            {
              "internalType": "string",
              "name": "name",
              "type": "string"
            },
            {
              "internalType": "string",
              "name": "description",
              "type": "string"
            },
            {
              "internalType": "uint256",
              "name": "price",
              "type": "uint256"
            },
            {
              "internalType": "uint256",
              "name": "stock",
              "type": "uint256"
            },
            {
              "internalType": "string[]",
              "name": "colors",
              "type": "string[]"
            },
            {
              "internalType": "string[]",
              "name": "sizes",
              "type": "string[]"
            },
            {
              "internalType": "string[]",
              "name": "images",
              "type": "string[]"
            },
            {
              "internalType": "string",
              "name": "category",
              "type": "string"
            },
            {
              "internalType": "string",
              "name": "subCategory",
              "type": "string"
            },
            {
              "internalType": "uint256",
              "name": "weight",
              "type": "uint256"
            },
            {
              "internalType": "string",
              "name": "model",
              "type": "string"
            },
            {
              "internalType": "string",
              "name": "brand",
              "type": "string"
            },
            {
              "internalType": "uint256",
              "name": "sku",
              "type": "uint256"
            },
            {
              "internalType": "bool",
              "name": "soldout",
              "type": "bool"
            },
            {
              "internalType": "bool",
              "name": "wishlist",
              "type": "bool"
            },
            {
              "internalType": "bool",
              "name": "deleted",
              "type": "bool"
            },
            {
              "components": [
                {
                  "internalType": "uint256",
                  "name": "reviewId",
                  "type": "uint256"
                },
                {
                  "internalType": "address",
                  "name": "reviewer",
                  "type": "address"
                },
                {
                  "internalType": "uint256",
                  "name": "rating",
                  "type": "uint256"
                },
                {
                  "internalType": "string",
                  "name": "comment",
                  "type": "string"
                },
                {
                  "internalType": "bool",
                  "name": "deleted",
                  "type": "bool"
                },
                {
                  "internalType": "uint256",
                  "name": "timestamp",
                  "type": "uint256"
                }
              ],
              "internalType": "struct HemShop.ReviewStruct[]",
              "name": "reviews",
              "type": "tuple[]"
            }
          ],
          "internalType": "struct HemShop.ProductStruct[]",
          "name": "",
          "type": "tuple[]"
        }
      ],
      "stateMutability": "view",
      "type": "function"
    },
    {
      "inputs": [
        {
          "internalType": "uint256",
          "name": "productId",
          "type": "uint256"
        }
      ],
      "name": "getProduct",
      "outputs": [
        {
          "components": [
            {
              "internalType": "uint256",
              "name": "id",
              "type": "uint256"
            },
            {
              "internalType": "address",
              "name": "seller",
              "type": "address"
            },
            {
              "internalType": "string",
              "name": "name",
              "type": "string"
            },
            {
              "internalType": "string",
              "name": "description",
              "type": "string"
            },
            {
              "internalType": "uint256",
              "name": "price",
              "type": "uint256"
            },
            {
              "internalType": "uint256",
              "name": "stock",
              "type": "uint256"
            },
            {
              "internalType": "string[]",
              "name": "colors",
              "type": "string[]"
            },
            {
              "internalType": "string[]",
              "name": "sizes",
              "type": "string[]"
            },
            {
              "internalType": "string[]",
              "name": "images",
              "type": "string[]"
            },
            {
              "internalType": "string",
              "name": "category",
              "type": "string"
            },
            {
              "internalType": "string",
              "name": "subCategory",
              "type": "string"
            },
            {
              "internalType": "uint256",
              "name": "weight",
              "type": "uint256"
            },
            {
              "internalType": "string",
              "name": "model",
              "type": "string"
            },
            {
              "internalType": "string",
              "name": "brand",
              "type": "string"
            },
            {
              "internalType": "uint256",
              "name": "sku",
              "type": "uint256"
            },
            {
              "internalType": "bool",
              "name": "soldout",
              "type": "bool"
            },
            {
              "internalType": "bool",
              "name": "wishlist",
              "type": "bool"
            },
            {
              "internalType": "bool",
              "name": "deleted",
              "type": "bool"
            },
            {
              "components": [
                {
                  "internalType": "uint256",
                  "name": "reviewId",
                  "type": "uint256"
                },
                {
                  "internalType": "address",
                  "name": "reviewer",
                  "type": "address"
                },
                {
                  "internalType": "uint256",
                  "name": "rating",
                  "type": "uint256"
                },
                {
                  "internalType": "string",
                  "name": "comment",
                  "type": "string"
                },
                {
                  "internalType": "bool",
                  "name": "deleted",
                  "type": "bool"
                },
                {
                  "internalType": "uint256",
                  "name": "timestamp",
                  "type": "uint256"
                }
              ],
              "internalType": "struct HemShop.ReviewStruct[]",
              "name": "reviews",
              "type": "tuple[]"
            }
          ],
          "internalType": "struct HemShop.ProductStruct",
          "name": "",
          "type": "tuple"
        }
      ],
      "stateMutability": "view",
      "type": "function"
    },
    {
      "inputs": [
        {
          "internalType": "string",
          "name": "categoryName",
          "type": "string"
        }
      ],
      "name": "getProductsByCategory",
      "outputs": [
        {
          "components": [
            {
              "internalType": "uint256",
              "name": "id",
              "type": "uint256"
            },
            {
              "internalType": "address",
              "name": "seller",
              "type": "address"
            },
            {
              "internalType": "string",
              "name": "name",
              "type": "string"
            },
            {
              "internalType": "string",
              "name": "description",
              "type": "string"
            },
            {
              "internalType": "uint256",
              "name": "price",
              "type": "uint256"
            },
            {
              "internalType": "uint256",
              "name": "stock",
              "type": "uint256"
            },
            {
              "internalType": "string[]",
              "name": "colors",
              "type": "string[]"
            },
            {
              "internalType": "string[]",
              "name": "sizes",
              "type": "string[]"
            },
            {
              "internalType": "string[]",
              "name": "images",
              "type": "string[]"
            },
            {
              "internalType": "string",
              "name": "category",
              "type": "string"
            },
            {
              "internalType": "string",
              "name": "subCategory",
              "type": "string"
            },
            {
              "internalType": "uint256",
              "name": "weight",
              "type": "uint256"
            },
            {
              "internalType": "string",
              "name": "model",
              "type": "string"
            },
            {
              "internalType": "string",
              "name": "brand",
              "type": "string"
            },
            {
              "internalType": "uint256",
              "name": "sku",
              "type": "uint256"
            },
            {
              "internalType": "bool",
              "name": "soldout",
              "type": "bool"
            },
            {
              "internalType": "bool",
              "name": "wishlist",
              "type": "bool"
            },
            {
              "internalType": "bool",
              "name": "deleted",
              "type": "bool"
            },
            {
              "components": [
                {
                  "internalType": "uint256",
                  "name": "reviewId",
                  "type": "uint256"
                },
                {
                  "internalType": "address",
                  "name": "reviewer",
                  "type": "address"
                },
                {
                  "internalType": "uint256",
                  "name": "rating",
                  "type": "uint256"
                },
                {
                  "internalType": "string",
                  "name": "comment",
                  "type": "string"
                },
                {
                  "internalType": "bool",
                  "name": "deleted",
                  "type": "bool"
                },
                {
                  "internalType": "uint256",
                  "name": "timestamp",
                  "type": "uint256"
                }
              ],
              "internalType": "struct HemShop.ReviewStruct[]",
              "name": "reviews",
              "type": "tuple[]"
            }
          ],
          "internalType": "struct HemShop.ProductStruct[]",
          "name": "",
          "type": "tuple[]"
        }
      ],
      "stateMutability": "view",
      "type": "function"
    },
    {
      "inputs": [
        {
          "internalType": "uint256",
          "name": "productId",
          "type": "uint256"
        }
      ],
      "name": "getReviews",
      "outputs": [
        {
          "components": [
            {
              "internalType": "uint256",
              "name": "reviewId",
              "type": "uint256"
            },
            {
              "internalType": "address",
              "name": "reviewer",
              "type": "address"
            },
            {
              "internalType": "uint256",
              "name": "rating",
              "type": "uint256"
            },
            {
              "internalType": "string",
              "name": "comment",
              "type": "string"
            },
            {
              "internalType": "bool",
              "name": "deleted",
              "type": "bool"
            },
            {
              "internalType": "uint256",
              "name": "timestamp",
              "type": "uint256"
            }
          ],
          "internalType": "struct HemShop.ReviewStruct[]",
          "name": "",
          "type": "tuple[]"
        }
      ],
      "stateMutability": "view",
      "type": "function"
    },
    {
      "inputs": [
        {
          "internalType": "address",
          "name": "seller",
          "type": "address"
        }
      ],
      "name": "getSeller",
      "outputs": [
        {
          "components": [
            {
              "internalType": "string",
              "name": "businessName",
              "type": "string"
            },
            {
              "internalType": "string",
              "name": "description",
              "type": "string"
            },
            {
              "internalType": "string",
              "name": "email",
              "type": "string"
            },
            {
              "internalType": "string",
              "name": "phone",
              "type": "string"
            },
            {
              "internalType": "string",
              "name": "logo",
              "type": "string"
            },
            {
              "internalType": "uint256",
              "name": "registeredAt",
              "type": "uint256"
            },
            {
              "internalType": "bool",
              "name": "termsAccepted",
              "type": "bool"
            }
          ],
          "internalType": "struct HemShop.SellerProfile",
          "name": "profile",
          "type": "tuple"
        },
        {
          "internalType": "enum HemShop.SellerStatus",
          "name": "status",
          "type": "uint8"
        },
        {
          "internalType": "uint256",
          "name": "balance",
          "type": "uint256"
        },
        {
          "internalType": "uint256[]",
          "name": "productIds",
          "type": "uint256[]"
        }
      ],
      "stateMutability": "view",
      "type": "function"
    },
    {
      "inputs": [
        {
          "internalType": "address",
          "name": "seller",
          "type": "address"
        }
      ],
      "name": "getSellerBalance",
      "outputs": [
        {
          "internalType": "uint256",
          "name": "",
          "type": "uint256"
        }
      ],
      "stateMutability": "view",
      "type": "function"
    },
    {
      "inputs": [
        {
          "internalType": "address",
          "name": "seller",
          "type": "address"
        }
      ],
      "name": "getSellerProducts",
      "outputs": [
        {
          "components": [
            {
              "internalType": "uint256",
              "name": "id",
              "type": "uint256"
            },
            {
              "internalType": "address",
              "name": "seller",
              "type": "address"
            },
            {
              "internalType": "string",
              "name": "name",
              "type": "string"
            },
            {
              "internalType": "string",
              "name": "description",
              "type": "string"
            },
            {
              "internalType": "uint256",
              "name": "price",
              "type": "uint256"
            },
            {
              "internalType": "uint256",
              "name": "stock",
              "type": "uint256"
            },
            {
              "internalType": "string[]",
              "name": "colors",
              "type": "string[]"
            },
            {
              "internalType": "string[]",
              "name": "sizes",
              "type": "string[]"
            },
            {
              "internalType": "string[]",
              "name": "images",
              "type": "string[]"
            },
            {
              "internalType": "string",
              "name": "category",
              "type": "string"
            },
            {
              "internalType": "string",
              "name": "subCategory",
              "type": "string"
            },
            {
              "internalType": "uint256",
              "name": "weight",
              "type": "uint256"
            },
            {
              "internalType": "string",
              "name": "model",
              "type": "string"
            },
            {
              "internalType": "string",
              "name": "brand",
              "type": "string"
            },
            {
              "internalType": "uint256",
              "name": "sku",
              "type": "uint256"
            },
            {
              "internalType": "bool",
              "name": "soldout",
              "type": "bool"
            },
            {
              "internalType": "bool",
              "name": "wishlist",
              "type": "bool"
            },
            {
              "internalType": "bool",
              "name": "deleted",
              "type": "bool"
            },
            {
              "components": [
                {
                  "internalType": "uint256",
                  "name": "reviewId",
                  "type": "uint256"
                },
                {
                  "internalType": "address",
                  "name": "reviewer",
                  "type": "address"
                },
                {
                  "internalType": "uint256",
                  "name": "rating",
                  "type": "uint256"
                },
                {
                  "internalType": "string",
                  "name": "comment",
                  "type": "string"
                },
                {
                  "internalType": "bool",
                  "name": "deleted",
                  "type": "bool"
                },
                {
                  "internalType": "uint256",
                  "name": "timestamp",
                  "type": "uint256"
                }
              ],
              "internalType": "struct HemShop.ReviewStruct[]",
              "name": "reviews",
              "type": "tuple[]"
            }
          ],
          "internalType": "struct HemShop.ProductStruct[]",
          "name": "",
          "type": "tuple[]"
        }
      ],
      "stateMutability": "view",
      "type": "function"
    },
    {
      "inputs": [
        {
          "internalType": "address",
          "name": "seller",
          "type": "address"
        }
      ],
      "name": "getSellerProfile",
      "outputs": [
        {
          "components": [
            {
              "internalType": "string",
              "name": "businessName",
              "type": "string"
            },
            {
              "internalType": "string",
              "name": "description",
              "type": "string"
            },
            {
              "internalType": "string",
              "name": "email",
              "type": "string"
            },
            {
              "internalType": "string",
              "name": "phone",
              "type": "string"
            },
            {
              "internalType": "string",
              "name": "logo",
              "type": "string"
            },
            {
              "internalType": "uint256",
              "name": "registeredAt",
              "type": "uint256"
            },
            {
              "internalType": "bool",
              "name": "termsAccepted",
              "type": "bool"
            }
          ],
          "internalType": "struct HemShop.SellerProfile",
          "name": "",
          "type": "tuple"
        }
      ],
      "stateMutability": "view",
      "type": "function"
    },
    {
      "inputs": [
        {
          "internalType": "address",
          "name": "seller",
          "type": "address"
        }
      ],
      "name": "getSellerPurchaseHistory",
      "outputs": [
        {
          "components": [
            {
              "internalType": "uint256",
              "name": "productId",
              "type": "uint256"
            },
            {
              "internalType": "uint256",
              "name": "totalAmount",
              "type": "uint256"
            },
            {
              "internalType": "uint256",
              "name": "basePrice",
              "type": "uint256"
            },
            {
              "internalType": "uint256",
              "name": "timestamp",
              "type": "uint256"
            },
            {
              "internalType": "uint256",
              "name": "lastUpdated",
              "type": "uint256"
            },
            {
              "internalType": "address",
              "name": "buyer",
              "type": "address"
            },
            {
              "internalType": "address",
              "name": "seller",
              "type": "address"
            },
            {
              "internalType": "bool",
              "name": "isDelivered",
              "type": "bool"
            },
            {
              "components": [
                {
                  "internalType": "string",
                  "name": "fullName",
                  "type": "string"
                },
                {
                  "internalType": "string",
                  "name": "streetAddress",
                  "type": "string"
                },
                {
                  "internalType": "string",
                  "name": "city",
                  "type": "string"
                },
                {
                  "internalType": "string",
                  "name": "state",
                  "type": "string"
                },
                {
                  "internalType": "string",
                  "name": "country",
                  "type": "string"
                },
                {
                  "internalType": "string",
                  "name": "postalCode",
                  "type": "string"
                },
                {
                  "internalType": "string",
                  "name": "phone",
                  "type": "string"
                },
                {
                  "internalType": "string",
                  "name": "email",
                  "type": "string"
                }
              ],
              "internalType": "struct HemShop.ShippingDetails",
              "name": "shippingDetails",
              "type": "tuple"
            },
            {
              "components": [
                {
                  "internalType": "string",
                  "name": "name",
                  "type": "string"
                },
                {
                  "internalType": "string[]",
                  "name": "images",
                  "type": "string[]"
                },
                {
                  "internalType": "string",
                  "name": "selectedColor",
                  "type": "string"
                },
                {
                  "internalType": "string",
                  "name": "selectedSize",
                  "type": "string"
                },
                {
                  "internalType": "uint256",
                  "name": "quantity",
                  "type": "uint256"
                },
                {
                  "internalType": "string",
                  "name": "category",
                  "type": "string"
                },
                {
                  "internalType": "string",
                  "name": "description",
                  "type": "string"
                }
              ],
              "internalType": "struct HemShop.OrderDetails",
              "name": "orderDetails",
              "type": "tuple"
            }
          ],
          "internalType": "struct HemShop.PurchaseHistoryStruct[]",
          "name": "",
          "type": "tuple[]"
        }
      ],
      "stateMutability": "view",
      "type": "function"
    },
    {
      "inputs": [
        {
          "internalType": "address",
          "name": "seller",
          "type": "address"
        }
      ],
      "name": "getSellerStatus",
      "outputs": [
        {
          "internalType": "enum HemShop.SellerStatus",
          "name": "",
          "type": "uint8"
        }
      ],
      "stateMutability": "view",
      "type": "function"
    },
    {
      "inputs": [
        {
          "internalType": "uint256",
          "name": "_id",
          "type": "uint256"
        }
      ],
      "name": "getSubCategory",
      "outputs": [
        {
          "internalType": "uint256",
          "name": "id",
          "type": "uint256"
        },
        {
          "internalType": "string",
          "name": "name",
          "type": "string"
        },
        {
          "internalType": "uint256",
          "name": "parentCategoryId",
          "type": "uint256"
        },
        {
          "internalType": "bool",
          "name": "isActive",
          "type": "bool"
        }
      ],
      "stateMutability": "view",
      "type": "function"
    },
    {
      "inputs": [
        {
          "internalType": "address",
          "name": "user",
          "type": "address"
        }
      ],
      "name": "getUser",
      "outputs": [
        {
          "internalType": "bool",
          "name": "isRegistered",
          "type": "bool"
        },
        {
          "components": [
            {
              "internalType": "string",
              "name": "name",
              "type": "string"
            },
            {
              "internalType": "string",
              "name": "email",
              "type": "string"
            },
            {
              "internalType": "string",
              "name": "avatar",
              "type": "string"
            },
            {
              "internalType": "uint256",
              "name": "registeredAt",
              "type": "uint256"
            },
            {
              "internalType": "bool",
              "name": "isActive",
              "type": "bool"
            }
          ],
          "internalType": "struct HemShop.UserProfile",
          "name": "profile",
          "type": "tuple"
        },
        {
          "internalType": "bool",
          "name": "isUserSeller",
          "type": "bool"
        },
        {
          "internalType": "enum HemShop.SellerStatus",
          "name": "sellerState",
          "type": "uint8"
        }
      ],
      "stateMutability": "view",
      "type": "function"
    },
    {
      "inputs": [
        {
          "internalType": "address",
          "name": "account",
          "type": "address"
        }
      ],
      "name": "impersonateAccount",
      "outputs": [],
      "stateMutability": "nonpayable",
      "type": "function"
    },
    {
      "inputs": [
        {
          "internalType": "address",
          "name": "owner",
          "type": "address"
        },
        {
          "internalType": "address",
          "name": "operator",
          "type": "address"
        }
      ],
      "name": "isApprovedForAll",
      "outputs": [
        {
          "internalType": "bool",
          "name": "",
          "type": "bool"
        }
      ],
      "stateMutability": "view",
      "type": "function"
    },
    {
      "inputs": [
        {
          "internalType": "uint256",
          "name": "productId",
          "type": "uint256"
        },
        {
          "internalType": "address",
          "name": "buyer",
          "type": "address"
        }
      ],
      "name": "markPurchaseDelivered",
      "outputs": [],
      "stateMutability": "nonpayable",
      "type": "function"
    },
    {
      "inputs": [],
      "name": "name",
      "outputs": [
        {
          "internalType": "string",
          "name": "",
          "type": "string"
        }
      ],
      "stateMutability": "view",
      "type": "function"
    },
    {
      "inputs": [],
      "name": "owner",
      "outputs": [
        {
          "internalType": "address",
          "name": "",
          "type": "address"
        }
      ],
      "stateMutability": "view",
      "type": "function"
    },
    {
      "inputs": [
        {
          "internalType": "uint256",
          "name": "tokenId",
          "type": "uint256"
        }
      ],
      "name": "ownerOf",
      "outputs": [
        {
          "internalType": "address",
          "name": "",
          "type": "address"
        }
      ],
      "stateMutability": "view",
      "type": "function"
    },
    {
      "inputs": [
        {
          "internalType": "uint256",
          "name": "",
          "type": "uint256"
        }
      ],
      "name": "productExists",
      "outputs": [
        {
          "internalType": "bool",
          "name": "",
          "type": "bool"
        }
      ],
      "stateMutability": "view",
      "type": "function"
    },
    {
      "inputs": [
        {
          "internalType": "uint256",
          "name": "",
          "type": "uint256"
        }
      ],
      "name": "products",
      "outputs": [
        {
          "internalType": "uint256",
          "name": "id",
          "type": "uint256"
        },
        {
          "internalType": "address",
          "name": "seller",
          "type": "address"
        },
        {
          "internalType": "string",
          "name": "name",
          "type": "string"
        },
        {
          "internalType": "string",
          "name": "description",
          "type": "string"
        },
        {
          "internalType": "uint256",
          "name": "price",
          "type": "uint256"
        },
        {
          "internalType": "uint256",
          "name": "stock",
          "type": "uint256"
        },
        {
          "internalType": "string",
          "name": "category",
          "type": "string"
        },
        {
          "internalType": "string",
          "name": "subCategory",
          "type": "string"
        },
        {
          "internalType": "uint256",
          "name": "weight",
          "type": "uint256"
        },
        {
          "internalType": "string",
          "name": "model",
          "type": "string"
        },
        {
          "internalType": "string",
          "name": "brand",
          "type": "string"
        },
        {
          "internalType": "uint256",
          "name": "sku",
          "type": "uint256"
        },
        {
          "internalType": "bool",
          "name": "soldout",
          "type": "bool"
        },
        {
          "internalType": "bool",
          "name": "wishlist",
          "type": "bool"
        },
        {
          "internalType": "bool",
          "name": "deleted",
          "type": "bool"
        }
      ],
      "stateMutability": "view",
      "type": "function"
    },
    {
      "inputs": [
        {
          "internalType": "string",
          "name": "businessName",
          "type": "string"
        },
        {
          "internalType": "string",
          "name": "description",
          "type": "string"
        },
        {
          "internalType": "string",
          "name": "email",
          "type": "string"
        },
        {
          "internalType": "string",
          "name": "phone",
          "type": "string"
        },
        {
          "internalType": "string",
          "name": "logo",
          "type": "string"
        }
      ],
      "name": "registerSeller",
      "outputs": [],
      "stateMutability": "nonpayable",
      "type": "function"
    },
    {
      "inputs": [
        {
          "internalType": "string",
          "name": "name",
          "type": "string"
        },
        {
          "internalType": "string",
          "name": "email",
          "type": "string"
        },
        {
          "internalType": "string",
          "name": "avatar",
          "type": "string"
        }
      ],
      "name": "registerUser",
      "outputs": [],
      "stateMutability": "nonpayable",
      "type": "function"
    },
    {
      "inputs": [
        {
          "internalType": "address",
          "name": "",
          "type": "address"
        }
      ],
      "name": "registeredSellers",
      "outputs": [
        {
          "internalType": "bool",
          "name": "",
          "type": "bool"
        }
      ],
      "stateMutability": "view",
      "type": "function"
    },
    {
      "inputs": [
        {
          "internalType": "address",
          "name": "",
          "type": "address"
        }
      ],
      "name": "registeredUsers",
      "outputs": [
        {
          "internalType": "bool",
          "name": "",
          "type": "bool"
        }
      ],
      "stateMutability": "view",
      "type": "function"
    },
    {
      "inputs": [],
      "name": "renounceOwnership",
      "outputs": [],
      "stateMutability": "nonpayable",
      "type": "function"
    },
    {
      "inputs": [
        {
          "internalType": "uint256",
          "name": "",
          "type": "uint256"
        }
      ],
      "name": "reviewExists",
      "outputs": [
        {
          "internalType": "bool",
          "name": "",
          "type": "bool"
        }
      ],
      "stateMutability": "view",
      "type": "function"
    },
    {
      "inputs": [
        {
          "internalType": "address",
          "name": "from",
          "type": "address"
        },
        {
          "internalType": "address",
          "name": "to",
          "type": "address"
        },
        {
          "internalType": "uint256",
          "name": "tokenId",
          "type": "uint256"
        }
      ],
      "name": "safeTransferFrom",
      "outputs": [],
      "stateMutability": "nonpayable",
      "type": "function"
    },
    {
      "inputs": [
        {
          "internalType": "address",
          "name": "from",
          "type": "address"
        },
        {
          "internalType": "address",
          "name": "to",
          "type": "address"
        },
        {
          "internalType": "uint256",
          "name": "tokenId",
          "type": "uint256"
        },
        {
          "internalType": "bytes",
          "name": "data",
          "type": "bytes"
        }
      ],
      "name": "safeTransferFrom",
      "outputs": [],
      "stateMutability": "nonpayable",
      "type": "function"
    },
    {
      "inputs": [
        {
          "internalType": "address",
          "name": "",
          "type": "address"
        }
      ],
      "name": "sellerBalances",
      "outputs": [
        {
          "internalType": "uint256",
          "name": "",
          "type": "uint256"
        }
      ],
      "stateMutability": "view",
      "type": "function"
    },
    {
      "inputs": [
        {
          "internalType": "address",
          "name": "",
          "type": "address"
        },
        {
          "internalType": "uint256",
          "name": "",
          "type": "uint256"
        }
      ],
      "name": "sellerProducts",
      "outputs": [
        {
          "internalType": "uint256",
          "name": "",
          "type": "uint256"
        }
      ],
      "stateMutability": "view",
      "type": "function"
    },
    {
      "inputs": [
        {
          "internalType": "address",
          "name": "",
          "type": "address"
        }
      ],
      "name": "sellerProfiles",
      "outputs": [
        {
          "internalType": "string",
          "name": "businessName",
          "type": "string"
        },
        {
          "internalType": "string",
          "name": "description",
          "type": "string"
        },
        {
          "internalType": "string",
          "name": "email",
          "type": "string"
        },
        {
          "internalType": "string",
          "name": "phone",
          "type": "string"
        },
        {
          "internalType": "string",
          "name": "logo",
          "type": "string"
        },
        {
          "internalType": "uint256",
          "name": "registeredAt",
          "type": "uint256"
        },
        {
          "internalType": "bool",
          "name": "termsAccepted",
          "type": "bool"
        }
      ],
      "stateMutability": "view",
      "type": "function"
    },
    {
      "inputs": [
        {
          "internalType": "address",
          "name": "",
          "type": "address"
        },
        {
          "internalType": "uint256",
          "name": "",
          "type": "uint256"
        }
      ],
      "name": "sellerPurchaseHistory",
      "outputs": [
        {
          "internalType": "uint256",
          "name": "productId",
          "type": "uint256"
        },
        {
          "internalType": "uint256",
          "name": "totalAmount",
          "type": "uint256"
        },
        {
          "internalType": "uint256",
          "name": "basePrice",
          "type": "uint256"
        },
        {
          "internalType": "uint256",
          "name": "timestamp",
          "type": "uint256"
        },
        {
          "internalType": "uint256",
          "name": "lastUpdated",
          "type": "uint256"
        },
        {
          "internalType": "address",
          "name": "buyer",
          "type": "address"
        },
        {
          "internalType": "address",
          "name": "seller",
          "type": "address"
        },
        {
          "internalType": "bool",
          "name": "isDelivered",
          "type": "bool"
        },
        {
          "components": [
            {
              "internalType": "string",
              "name": "fullName",
              "type": "string"
            },
            {
              "internalType": "string",
              "name": "streetAddress",
              "type": "string"
            },
            {
              "internalType": "string",
              "name": "city",
              "type": "string"
            },
            {
              "internalType": "string",
              "name": "state",
              "type": "string"
            },
            {
              "internalType": "string",
              "name": "country",
              "type": "string"
            },
            {
              "internalType": "string",
              "name": "postalCode",
              "type": "string"
            },
            {
              "internalType": "string",
              "name": "phone",
              "type": "string"
            },
            {
              "internalType": "string",
              "name": "email",
              "type": "string"
            }
          ],
          "internalType": "struct HemShop.ShippingDetails",
          "name": "shippingDetails",
          "type": "tuple"
        },
        {
          "components": [
            {
              "internalType": "string",
              "name": "name",
              "type": "string"
            },
            {
              "internalType": "string[]",
              "name": "images",
              "type": "string[]"
            },
            {
              "internalType": "string",
              "name": "selectedColor",
              "type": "string"
            },
            {
              "internalType": "string",
              "name": "selectedSize",
              "type": "string"
            },
            {
              "internalType": "uint256",
              "name": "quantity",
              "type": "uint256"
            },
            {
              "internalType": "string",
              "name": "category",
              "type": "string"
            },
            {
              "internalType": "string",
              "name": "description",
              "type": "string"
            }
          ],
          "internalType": "struct HemShop.OrderDetails",
          "name": "orderDetails",
          "type": "tuple"
        }
      ],
      "stateMutability": "view",
      "type": "function"
    },
    {
      "inputs": [
        {
          "internalType": "address",
          "name": "",
          "type": "address"
        }
      ],
      "name": "sellerStatus",
      "outputs": [
        {
          "internalType": "enum HemShop.SellerStatus",
          "name": "",
          "type": "uint8"
        }
      ],
      "stateMutability": "view",
      "type": "function"
    },
    {
      "inputs": [],
      "name": "servicePct",
      "outputs": [
        {
          "internalType": "uint256",
          "name": "",
          "type": "uint256"
        }
      ],
      "stateMutability": "view",
      "type": "function"
    },
    {
      "inputs": [
        {
          "internalType": "address",
          "name": "operator",
          "type": "address"
        },
        {
          "internalType": "bool",
          "name": "approved",
          "type": "bool"
        }
      ],
      "name": "setApprovalForAll",
      "outputs": [],
      "stateMutability": "nonpayable",
      "type": "function"
    },
    {
      "inputs": [],
      "name": "stopImpersonating",
      "outputs": [],
      "stateMutability": "nonpayable",
      "type": "function"
    },
    {
      "inputs": [
        {
          "internalType": "bytes4",
          "name": "interfaceId",
          "type": "bytes4"
        }
      ],
      "name": "supportsInterface",
      "outputs": [
        {
          "internalType": "bool",
          "name": "",
          "type": "bool"
        }
      ],
      "stateMutability": "view",
      "type": "function"
    },
    {
      "inputs": [],
      "name": "symbol",
      "outputs": [
        {
          "internalType": "string",
          "name": "",
          "type": "string"
        }
      ],
      "stateMutability": "view",
      "type": "function"
    },
    {
      "inputs": [
        {
          "internalType": "uint256",
          "name": "tokenId",
          "type": "uint256"
        }
      ],
      "name": "tokenURI",
      "outputs": [
        {
          "internalType": "string",
          "name": "",
          "type": "string"
        }
      ],
      "stateMutability": "view",
      "type": "function"
    },
    {
      "inputs": [
        {
          "internalType": "address",
          "name": "from",
          "type": "address"
        },
        {
          "internalType": "address",
          "name": "to",
          "type": "address"
        },
        {
          "internalType": "uint256",
          "name": "tokenId",
          "type": "uint256"
        }
      ],
      "name": "transferFrom",
      "outputs": [],
      "stateMutability": "nonpayable",
      "type": "function"
    },
    {
      "inputs": [
        {
          "internalType": "address",
          "name": "newOwner",
          "type": "address"
        }
      ],
      "name": "transferOwnership",
      "outputs": [],
      "stateMutability": "nonpayable",
      "type": "function"
    },
    {
      "inputs": [
        {
          "internalType": "address",
          "name": "seller",
          "type": "address"
        },
        {
          "internalType": "enum HemShop.SellerStatus",
          "name": "newStatus",
          "type": "uint8"
        }
      ],
      "name": "updateSellerStatus",
      "outputs": [],
      "stateMutability": "nonpayable",
      "type": "function"
    },
    {
      "inputs": [
        {
          "internalType": "address",
          "name": "",
          "type": "address"
        }
      ],
      "name": "userProfiles",
      "outputs": [
        {
          "internalType": "string",
          "name": "name",
          "type": "string"
        },
        {
          "internalType": "string",
          "name": "email",
          "type": "string"
        },
        {
          "internalType": "string",
          "name": "avatar",
          "type": "string"
        },
        {
          "internalType": "uint256",
          "name": "registeredAt",
          "type": "uint256"
        },
        {
          "internalType": "bool",
          "name": "isActive",
          "type": "bool"
        }
      ],
      "stateMutability": "view",
      "type": "function"
    },
    {
      "inputs": [
        {
          "internalType": "uint256",
          "name": "",
          "type": "uint256"
        }
      ],
      "name": "usersList",
      "outputs": [
        {
          "internalType": "address",
          "name": "",
          "type": "address"
        }
      ],
      "stateMutability": "view",
      "type": "function"
    },
    {
      "inputs": [],
      "name": "withdraw",
      "outputs": [],
      "stateMutability": "nonpayable",
      "type": "function"
    }
  ],
  "bytecode": "0x6080346200037757601f90601f196001600160401b0362008d7b3881900385810184168501838111868210176200037c57859282916040528339602094859181010312620003775751936200005362000392565b926007845266048656d53686f760cc1b858501526200007162000392565b60038082526204873760ec1b8783015260008054336001600160a01b031982168117835592989394919392906001600160a01b03167f8be0079c531659141344cd1fd0a4f28419497f9722a3daafe3b4186f6b6457e08580a360019687805580519087821162000363576002548981811c9116801562000358575b858210146200034457908188849311620002f0575b5084908883116001146200028e57869262000282575b5050600019828b1b1c191690881b176002555b83519586116200026e5787548781811c9116801562000263575b838210146200024f5785811162000207575b5081948611600114620001a25750509183949184939462000196575b50501b9160001990841b1c19161790555b600d556040516189c89081620003b38239f35b01519250388062000172565b8783528183209493928692918316915b88838310620001ec5750505010620001d3575b505050811b01905562000183565b015160001983861b60f8161c19169055388080620001c5565b858701518855909601959485019487935090810190620001b2565b8884528284208680890160051c820192858a1062000245575b0160051c019088905b8281106200023957505062000156565b85815501889062000229565b9250819262000220565b634e487b7160e01b84526022600452602484fd5b90607f169062000144565b634e487b7160e01b83526041600452602483fd5b01519050388062000117565b90848b9416916002885286882092885b88828210620002d95750508411620002c0575b505050811b016002556200012a565b0151600019838d1b60f8161c19169055388080620002b1565b8385015186558e979095019493840193016200029e565b909150600286528486208880850160051c8201928786106200033a575b918c91869594930160051c01915b8281106200032b57505062000101565b8881558594508c91016200031b565b925081926200030d565b634e487b7160e01b86526022600452602486fd5b90607f1690620000ec565b634e487b7160e01b85526041600452602485fd5b600080fd5b634e487b7160e01b600052604160045260246000fd5b60408051919082016001600160401b038111838210176200037c5760405256fe608080604052600436101561001357600080fd5b60003560e01c908162d64e7614615d475750806301ffc9a714615cd957806302ee3a5214615a5e57806306fdde03146159b9578063081812fc1461599b578063095ea7b3146158215780630e50cee5146157e257806311aa5b34146157be5780631385fd921461578657806316d81b381461558e5780632053fba6146150d35780632148893f14614ad557806323b872dd146150aa578063332d56d714614fe95780633c2575d514614ee55780633ccfd60b14614dd257806342842e0e14614daa5780634293e5ce14614ca857806345de84db14614c66578063502aa3b514614c1d5780635ad6a58014614b725780635be2095914614b0f578063607eb4e414614ad55780636352211e14614aa55780636f2c8599146149bd5780636f77926b1461483357806370a082311461479c578063715018a6146147555780637acc0b20146145965780637d3978db1461433f5780637e8555ed14613b4d5780638da5cb5b14613b245780638f38cc7b146137fe5780639196dfcb146136eb57806395d89b411461360957806397b6f393146134e75780639d4a2255146133545780639fa44dbf1461330c578063a22cb46514613241578063a22fb387146131b0578063a323d29e1461305d578063af55ed641461302c578063b27e169714612f28578063b88d4fde14612ec9578063b95a062814612e8e578063b9db15b414612c74578063c1302b3414612c1c578063c64b8a8f14612bdd578063c87b56dd14612b83578063d2bc9d78146128f2578063d637dcfa146123f9578063dadd0a57146120f9578063dc29868214611ea4578063e01ef6e614611e86578063e40971e514610b28578063e585cb2c14610a85578063e6a93e16146107cb578063e985e9c514610775578063eb11c43414610743578063f2fde38b14610694578063f3052d261461059a5763fdca4ca3146102c857600080fd5b346105955760003660031901126105955760088054600060015b8281111561053457506102f4906173a0565b9060009260015b8281111561031557604051806103118682616001565b0390f35b600081815260156020908152604090912060018101546001600160a01b0316919033831480610522575b610355575b50505061035090617391565b6102fb565b604097939751926103658461608f565b8154845282840152604051610388816103818160028601616296565b038261616a565b60408401526040516103a1816103818160038601616296565b606084015260048101546080840152600581015460a08401526006906103c88282016166e1565b60c08501526103d9600782016166e1565b60e08501526103e98682016166e1565b610100850152604051610403816103818160098601616296565b61012085015260405161041d8161038181600a8601616296565b610140850152600b8101546101608501526040516104428161038181600c8601616296565b61018085015260405161045c8161038181600d8601616296565b6101a0850152600e8101546101c0850152600f81015460ff80821615156101e087015281881c81161515610200870152601091821c16151561022086015201805491906104a8836166ca565b936104b6604051958661616a565b8385526000918252808220918186015b858210610506575050505050509181610350936102406104fd9401526104ec82886173f0565b526104f781876173f0565b50617391565b94903880610344565b848360019261051487617330565b8152019401910190926104c6565b5060ff600f82015460101c161561033f565b600081815260156020526040902060018101546001600160a01b031633149081610582575b5061056d575b61056890617391565b6102e2565b9061057a61056891617391565b91905061055f565b60ff9150600f015460101c161538610559565b600080fd5b3461059557602036600319011261059557600435600052601860205260406000206040516105c7816160fe565b81548152604051906105e7826105e08160018701616296565b038361616a565b6020810191825261060b600360ff6002860154169460408401951515865201617404565b6060820190815281511561065557610311915192519351151590516106426040519586958652608060208701526080860190615d74565b9160408501528382036060850152616845565b60405162461bcd60e51b815260206004820152601760248201527610d85d1959dbdc9e48191bd95cc81b9bdd08195e1a5cdd604a1b6044820152606490fd5b34610595576020366003190112610595576106ad616063565b6106b5616879565b6001600160a01b039081169081156106ef576000548260018060a01b03198216176000551660008051602061895c833981519152600080a3005b60405162461bcd60e51b815260206004820152602660248201527f4f776e61626c653a206e6577206f776e657220697320746865207a65726f206160448201526564647265737360d01b6064820152608490fd5b34610595576020366003190112610595576020610766610761616063565b616e93565b61077360405180926165bd565bf35b346105955760403660031901126105955761078e616063565b610796616079565b9060018060a01b03809116600052600760205260406000209116600052602052602060ff604060002054166040519015158152f35b34610595576020366003190112610595576107e4616063565b600854600060015b82811115610a2157506107fe906173a0565b90600160005b8282111561081a57604051806103118682616001565b600082815260156020526040902060018101546001600160a01b0390811691908716821480610a0f575b61085b575b50509061085590617391565b90610804565b604051916108688361608f565b815483526020830152604051610885816103818160028601616296565b604083015260405161089e816103818160038601616296565b606083015260048101546080830152600581015460a08301526108c3600682016166e1565b60c08301526108d4600782016166e1565b60e08301526108e5600882016166e1565b6101008301526040516108ff816103818160098601616296565b6101208301526040516109198161038181600a8601616296565b610140830152600b81015461016083015260405161093e8161038181600c8601616296565b6101808301526040516109588161038181600d8601616296565b6101a0830152600e8101546101c0830152600f8101549060ff80831615156101e0850152808360081c161515610200850152601092831c161515610220840152018054906109a5826166ca565b916109b3604051938461616a565b808352602083019160005260206000206000925b8284106109f15750505050610240820152610855916109ea916104ec82886173f0565b9086610849565b60066020600192610a0185617330565b8152019201930192906109c7565b5060ff600f82015460101c1615610844565b600081815260156020526040902060018101546001600160a01b038681169116149081610a72575b50610a5d575b610a5890617391565b6107ec565b90610a6a610a5891617391565b919050610a4f565b60ff9150600f015460101c161585610a49565b3461059557604036600319011261059557610a9e616063565b6001600160a01b039081166000908152601c6020526040902080546024359081101561059557610acd916165e2565b5090610311825460018401549360028101549160038201549060048301548660058501541690600685015493610b11600f610b0a600789016165fe565b9701616746565b966040519a8b9a60ff8860a01c169716958b6167e1565b3461059557600319602036820112610595576001600160401b0360043511610595576101a090600435360301126105955733600052601260205260ff604060002054166004811015611e70576002148015611e5c575b15611e1857610b9d610b94600480350180616f07565b90501515616dbe565b610bb1602460043501600435600401616f07565b905015611dd5576044600435013515611d91576064600435013515611d4d57610be4608460043501600435600401616f39565b905015611d0f5760e4600435013515611cbf57610104600435013515611c6c57610124600435013515611c2757610184600435013515611be557610c3260c460043501600435600401616f39565b905015611ba7576005610c4f60c460043501600435600401616f39565b905011611b635760016008540180600855610c68616f6e565b81815233602082015290610c8a610c83600480350180616f07565b36916161a8565b6040830152610ca6610c83602460043501600435600401616f07565b60608301526044600435013560808301526064600435013560a0830152610ce1610cda608460043501600435600401616f39565b3691616ffa565b60c0830152610cfd610cda60a460043501600435600401616f39565b60e0830152610d19610cda60c460043501600435600401616f39565b61010083015260e460043501356000526018602052610381610d48600160406000200160405192838092616296565b61012083015261010460043501356000526019602052610381610d78600160406000200160405192838092616296565b610140830152610d96610c8361014460043501600435600401616f07565b610180830152610db4610c8361016460043501600435600401616f07565b6101a083015260043561012481013561016084015261018401356101c08301523315611b1f57610dec610de682616c34565b1561725f565b610df8610de682616c34565b33600052600560205260406000206001815401905580600052600460205260406000203360018060a01b03198254161790558033600060008051602061897c8339815191528180a46015602052604060002090825182556001820160018060a01b0360208501511660018060a01b0319825416179055604083015192835160018060401b03811161130557610e90600285015461625c565b601f8111611aea575b506020601f8211600114611a7b578192939495600092611a70575b50508160011b916000199060031b1c19161760028401555b606081015180519093906001600160401b03811161130557610ef1600383015461625c565b601f8111611a3b575b506020601f82116001146119cc5781929394956000926119c1575b50508160011b916000199060031b1c19161760038201555b6080820151600482015560a0820151600582015560c0820151805190600160401b821161130557600683015482600685015580831061198e575b5060200190600683016000526020600020916000905b828210611879575050505060e0820151805190600160401b8211611305576007830154826007850155808310611846575b5060200190600783016000526020600020916000905b8282106117315750505050610100820151805190600160401b82116113055760088301548260088501558083106116fe575b5060200190600883016000526020600020916000905b8282106115e9575050505061012082015180519093906001600160401b0381116113055761103d600984015461625c565b601f81116115b4575b506020601f821160011461154557819293949560009261153a575b50508160011b916000199060031b1c19161760098301555b61014083015180519093906001600160401b0381116113055761109f600a85015461625c565b601f8111611505575b506020601f821160011461149657819293949560009261148b575b50508160011b916000199060031b1c191617600a8401555b610160810151600b84015561018081015180519093906001600160401b0381116113055761110c600c83015461625c565b601f8111611456575b506020601f82116001146113e75781929394956000926113dc575b50508160011b916000199060031b1c191617600c8201555b6101a08201518051906001600160401b0382116113055761116c600d84015461625c565b601f811161139c575b50602090601f8311600114611326579180610240949260109460009261131b575b50508160011b916000199060031b1c191617600d8201555b6101c0840151600e820155600f81016111ce6101e0860151151582616c23565b6102008501511515815461ff0062ff00006102208901511515871b169260081b169062ffff001916171790550191015190815191600160401b8311611305578154838355808410611282575b506020019060005260206000206000915b83831061126457611262858060005260176020526040600020600160ff19825416179055336000526016602052604060002061722a565b005b600660208261127660019451866170c6565b0192019201919061122b565b806006029060068204036112ef57836006026006810485036112ef5783600052602060002091820191015b8181106112ba575061121a565b8060006006925560006001820155600060028201556112db6003820161707c565b6000600482015560006005820155016112ad565b634e487b7160e01b600052601160045260246000fd5b634e487b7160e01b600052604160045260246000fd5b015190508780611196565b90600d840160005260206000209160005b601f1985168110611384575092610240949260019260109583601f1981161061136b575b505050811b01600d8201556111ae565b015160001960f88460031b161c1916905587808061135b565b91926020600181928685015181550194019201611337565b6113cc90600d85016000526020600020601f850160051c810191602086106113d2575b601f0160051c0190616e01565b85611175565b90915081906113bf565b015190508580611130565b600c830160005260206000209060005b601f198416811061143e575060019394959683601f19811610611425575b505050811b01600c820155611148565b015160001960f88460031b161c19169055858080611415565b9091602060018192858b0151815501930191016113f7565b61148590600c84016000526020600020601f840160051c810191602085106113d257601f0160051c0190616e01565b85611115565b0151905085806110c3565b600a850160005260206000209060005b601f19841681106114ed575060019394959683601f198116106114d4575b505050811b01600a8401556110db565b015160001960f88460031b161c191690558580806114c4565b9091602060018192858b0151815501930191016114a6565b61153490600a86016000526020600020601f840160051c810191602085106113d257601f0160051c0190616e01565b856110a8565b015190508580611061565b6009840160005260206000209060005b601f198416811061159c575060019394959683601f19811610611583575b505050811b016009830155611079565b015160001960f88460031b161c19169055858080611573565b9091602060018192858b015181550193019101611555565b6115e390600985016000526020600020601f840160051c810191602085106113d257601f0160051c0190616e01565b85611046565b80518051906001600160401b03821161130557611606865461625c565b601f81116116cc575b50602090601f831160011461165c579282600194936020938695600092611651575b5050600019600383901b1c191690841b1787555b0194019101909261100c565b015190508c80611631565b908660005260206000209160005b601f19851681106116b4575083602093600196938796938794601f1981161061169b575b505050811b018755611645565b015160001960f88460031b161c191690558c808061168e565b9192602060018192868501518155019401920161166a565b6116f890876000526020600020601f850160051c810191602086106113d257601f0160051c0190616e01565b8961160f565b600884016000526020600020908382015b818301811061171f575050610ff6565b8061172b60019261707c565b0161170f565b80518051906001600160401b0382116113055761174e865461625c565b601f8111611814575b50602090601f83116001146117a4579282600194936020938695600092611799575b5050600019600383901b1c191690841b1787555b01940191019092610fc4565b015190508c80611779565b908660005260206000209160005b601f19851681106117fc575083602093600196938796938794601f198116106117e3575b505050811b01875561178d565b015160001960f88460031b161c191690558c80806117d6565b919260206001819286850151815501940192016117b2565b61184090876000526020600020601f850160051c810191602086106113d257601f0160051c0190616e01565b89611757565b600784016000526020600020908382015b8183018110611867575050610fae565b8061187360019261707c565b01611857565b80518051906001600160401b03821161130557611896865461625c565b601f811161195c575b50602090601f83116001146118ec5792826001949360209386956000926118e1575b5050600019600383901b1c191690841b1787555b01940191019092610f7d565b015190508c806118c1565b908660005260206000209160005b601f1985168110611944575083602093600196938796938794601f1981161061192b575b505050811b0187556118d5565b015160001960f88460031b161c191690558c808061191e565b919260206001819286850151815501940192016118fa565b61198890876000526020600020601f850160051c810191602086106113d257601f0160051c0190616e01565b8961189f565b600684016000526020600020908382015b81830181106119af575050610f67565b806119bb60019261707c565b0161199f565b015190508580610f15565b6003830160005260206000209060005b601f1984168110611a23575060019394959683601f19811610611a0a575b505050811b016003820155610f2d565b015160001960f88460031b161c191690558580806119fa565b9091602060018192858b0151815501930191016119dc565b611a6a90600384016000526020600020601f840160051c810191602085106113d257601f0160051c0190616e01565b85610efa565b015190508580610eb4565b6002850160005260206000209060005b601f1984168110611ad2575060019394959683601f19811610611ab9575b505050811b016002840155610ecc565b015160001960f88460031b161c19169055858080611aa9565b9091602060018192858b015181550193019101611a8b565b611b1990600286016000526020600020601f840160051c810191602085106113d257601f0160051c0190616e01565b85610e99565b606460405162461bcd60e51b815260206004820152602060248201527f4552433732313a206d696e7420746f20746865207a65726f20616464726573736044820152fd5b60405162461bcd60e51b815260206004820152601c60248201527b496d616765732063616e6e6f74206265206d6f7265207468616e203560201b6044820152606490fd5b60405162461bcd60e51b8152602060048201526016602482015275496d616765732063616e6e6f7420626520656d70747960501b6044820152606490fd5b60405162461bcd60e51b815260206004820152601a6024820152790534b55206d7573742062652067726561746572207468616e20360341b6044820152606490fd5b60405162461bcd60e51b815260206004820152601d60248201527f576569676874206d7573742062652067726561746572207468616e20300000006044820152606490fd5b60405162461bcd60e51b815260206004820152602560248201527f53756243617465676f7279204944206d75737420626520677265617465722074604482015264068616e20360dc1b6064820152608490fd5b60405162461bcd60e51b815260206004820152602260248201527f43617465676f7279204944206d7573742062652067726561746572207468616e604482015261020360f41b6064820152608490fd5b60405162461bcd60e51b8152602060048201526016602482015275436f6c6f72732063616e6e6f7420626520656d70747960501b6044820152606490fd5b60405162461bcd60e51b815260206004820152601c60248201527b053746f636b206d7573742062652067726561746572207468616e20360241b6044820152606490fd5b60405162461bcd60e51b815260206004820152601c60248201527b05072696365206d7573742062652067726561746572207468616e20360241b6044820152606490fd5b60405162461bcd60e51b815260206004820152601b60248201527a4465736372697074696f6e2063616e6e6f7420626520656d70747960281b6044820152606490fd5b606460405162461bcd60e51b815260206004820152602060248201527f4d7573742062652076657269666965642073656c6c6572206f72206f776e65726044820152fd5b506000546001600160a01b03163314610b7e565b634e487b7160e01b600052602160045260246000fd5b34610595576000366003190112610595576020600d54604051908152f35b3461059557602080600319360112610595576001600160401b0360043581811161059557611ed69036906004016161df565b611ede616879565b8051156120b457611ef0600b54617391565b9283600b5560405191611f028361614f565b6000835260405190611f13826160fe565b85825282820190815260408201906001968783526060840195865260005260188452604060002092518355868301905180519087821161130557611f57835461625c565b601f8111612084575b508590601f8311600114612015579180611fa09492600397969460009261200a575b505060001982881b1c1916908a1b1790555b51151560028301616c23565b019151805193841161130557600160401b84116113055781908354858555808610611fed575b5001916000528060002060005b848110611fdc57005b835182820155928201928501611fd3565b612004908560005286846000209182019101616e01565b86611fc6565b015190508b80611f82565b899291601f1983169185600052886000209260005b8a82821061206e575050916003989795939185611fa098969410612056575b505050811b019055611f94565b0151600019838a1b60f8161c191690558b8080612049565b8385015186558e9790950194938401930161202a565b6120ae908460005287600020601f850160051c8101918986106113d257601f0160051c0190616e01565b89611f60565b60405162461bcd60e51b815260048101849052601d60248201527f43617465676f7279206e616d652063616e6e6f7420626520656d7074790000006044820152606490fd5b3461059557600036600319011261059557600b54612116816166ca565b612123604051918261616a565b818152601f19612132836166ca565b01366020830137612142826166ca565b91612150604051938461616a565b80835261216c601f19612162836166ca565b0160208501617453565b612175816166ca565b92612183604051948561616a565b818452601f19612192836166ca565b013660208601376121a2826166ca565b906121b0604051928361616a565b8282526121bc836166ca565b926121cf6020840194601f190185617453565b60015b8181111561230b5750506121f160405194608086526080860190616845565b8481036020860152815180825260208201916020808360051b8301019401926000915b8383106122de57505050505083810360408501526020808651928381520195019060005b8181106122c657505050828403606084015251808452602084019060208160051b86010192916000905b82821061226f5785850386f35b90919293601f19878203018252845190602080835192838152019201906000905b8082106122ae57505050602080600192960192019201909291612262565b90919260208060019286518152019401920190612290565b82511515875260209687019690920191600101612238565b90919293946020806122fc600193601f198682030187528951615d74565b97019301930191939290612214565b80600052601860205260406000209061235e60036040519361232c856160fe565b80548552604051612344816103818160018601616296565b602086015260ff6002820154161515604086015201617404565b60608301528151612379575b6123749150617391565b6121d2565b806000198101116112ef57606082612374935161239a60001985018b6173f0565b5260208101516123ae6000198501886173f0565b526123bd6000198401876173f0565b50604081015115156123d360001985018c6173f0565b5201516123e46000198301876173f0565b526123f36000198201866173f0565b5061236a565b34610595576060366003190112610595576004356001600160401b038111610595576124299036906004016161df565b6024356001600160401b038111610595576124489036906004016161df565b6044356001600160401b038111610595576124679036906004016161df565b90612473331515616d80565b33600052601460205260ff604060002054166128b35761249583511515616dbe565b80511561287657604051926124a984616119565b835260208301526040820152426060820152600160808201523360005260106020526040600020815191825160018060401b038111611305576124ec835461625c565b601f8111612844575b506020601f82116001146127dc57819293946000926127d1575b50508160011b916000199060031b1c19161782555b602081015180519092906001600160401b03811161130557612549600183015461625c565b601f811161279c575b506020601f821160011461272e5781929394600092612723575b50508160011b916000199060031b1c19161760018201555b6040820151805190929060028301906001600160401b038111611305576125ab825461625c565b601f81116126f1575b506020601f82116001146126815791816004949260809461260198600092612676575b50508160011b916000199060031b1c19161790555b60608101516003850155015115159101616c23565b336000908152601460205260409020805460ff19166001179055600f54600160401b811015611305576001810180600f5581101561266057600f60005260008051602061899c8339815191520180546001600160a01b03191633179055005b634e487b7160e01b600052603260045260246000fd5b0151905088806125d7565b601f198216958360005260206000209660005b8181106126d957509261260197608095936001938360049997106126c0575b505050811b0190556125ec565b015160001960f88460031b161c191690558880806126b3565b83830151895560019098019760209384019301612694565b61271d90836000526020600020601f840160051c810191602085106113d257601f0160051c0190616e01565b856125b4565b01519050848061256c565b6001830160005260206000209060005b601f19841681106127845750600193949583601f1981161061276b575b505050811b016001820155612584565b015160001960f88460031b161c1916905584808061275b565b9091602060018192858a01518155019301910161273e565b6127cb90600184016000526020600020601f840160051c810191602085106113d257601f0160051c0190616e01565b84612552565b01519050848061250f565b8360005260206000209060005b601f198416811061282c5750600193949583601f19811610612813575b505050811b018255612524565b015160001960f88460031b161c19169055848080612806565b9091602060018192858a0151815501930191016127e9565b61287090846000526020600020601f840160051c810191602085106113d257601f0160051c0190616e01565b846124f5565b60405162461bcd60e51b8152602060048201526015602482015274456d61696c2063616e6e6f7420626520656d70747960581b6044820152606490fd5b60405162461bcd60e51b8152602060048201526017602482015276155cd95c88185b1c9958591e481c9959da5cdd195c9959604a1b6044820152606490fd5b34610595576040366003190112610595576001600160401b036024351161059557366023602435011215610595576001600160401b0360046024350135116105955736602480356004013560051b813501011161059557600435600052601860205260ff6002604060002001541615612b415760005b60243560040135811061297757005b6129ba90612986600c54617391565b80600c556129a160248360051b813501016024803501616f07565b9390604051946129b0866160fe565b83865236916161a8565b90602084019182526004356040850152600160608501526000526019602052604060002090835182555192835160018060401b03811161130557612a01600184015461625c565b601f8111612b0c575b506020601f8211600114612a9057612a7b939282612a6193606093612a8099600092612a85575b50508160011b916000199060031b1c19161760018501555b60408101516002850155015115156003809301616c23565b6004356000526018602052604060002001600c549061722a565b617391565b612968565b015190508980612a31565b6001840160005260206000209560005b601f1984168110612af4575092600183612a8098606094612a7b9897612a6197601f19811610612adb575b505050811b016001850155612a49565b015160001960f88460031b161c19169055898080612acb565b82820151885560019097019660209283019201612aa0565b612b3b90600185016000526020600020601f840160051c810191602085106113d257601f0160051c0190616e01565b85612a0a565b60405162461bcd60e51b815260206004820152601a602482015279506172656e742063617465676f7279206e6f742061637469766560301b6044820152606490fd5b3461059557602036600319011261059557612ba7612ba2600435616c34565b6168d1565b6000604051612bb58161614f565b52610311604051612bc58161614f565b60008152604051918291602083526020830190615d74565b34610595576020366003190112610595576001600160a01b03612bfe616063565b166000526013602052602060ff604060002054166040519015158152f35b3461059557604036600319011261059557612c35616063565b6001600160a01b031660009081526016602052604090208054602435919082101561059557602091612c66916165ca565b90546040519160031b1c8152f35b346105955760208060031936011261059557600435612c91616f6e565b508060005260158252612cb260ff600f6040600020015460101c16156172aa565b8060005260178252612ccb60ff604060002054166172eb565b6000526015815260406000209060405191612ce58361608f565b805483526001808201546001600160a01b031683850152604051612d10816103818160028701616296565b6040850152604051612d29816103818160038701616296565b606085015260048201546080850152600582015460a08501526010600692612d528482016166e1565b60c0870152612d63600782016166e1565b60e0870152612d74600882016166e1565b610100870152604051612d8e816103818160098601616296565b610120870152604051612da88161038181600a8601616296565b610140870152600b810154610160870152604051612dcd8161038181600c8601616296565b610180870152604051612de78161038181600d8601616296565b6101a0870152600e8101546101c087015260ff600f82015481811615156101e0890152818160081c161515610200890152831c1615156102208701520191825490612e31826166ca565b93612e3f604051958661616a565b8285526000908152858120868087015b858410612e71576102408a01889052604051828152806103118185018d615eb1565b86918591612e7e85617330565b8152019201920191908790612e4f565b346105955760203660031901126105955760206001600160a01b0380612eb2616063565b16600052601e825260406000205416604051908152f35b3461059557608036600319011261059557612ee2616063565b612eea616079565b606435916001600160401b038311610595573660238401121561059557612f1e6112629336906024816004013591016161a8565b91604435916169c4565b3461059557602080600319360112610595576001600160a01b039081612f4c616063565b16600052601b81526040600020805490612f65826166ca565b92612f73604051948561616a565b82845260009182528082208185015b848410612f975760405180610311888261645c565b601683600192604051612fa9816160e2565b85548152848601548382015260028601546040820152600386015460608201526004860154608082015260ff8b60058801541660a090818401526006880154908d821660c08501521c16151560e0820152613006600787016165fe565b610100820152613018600f8701616746565b610120820152815201920193019290612f82565b34610595576020366003190112610595576004356000526017602052602060ff604060002054166040519015158152f35b3461059557602080600319360112610595576131959061031161307e616063565b613086616e18565b5060018060a01b03169182600052601381526130a960ff60406000205416616e4f565b826000526011815260406000209260ff6006604051956130c8876160c7565b6040516130d9816103818185616296565b87526040516130ef816103818160018601616296565b85880152604051613107816103818160028601616296565b6040880152604051613120816103818160038601616296565b6060880152604051613139816103818160048601616296565b6080880152600581015460a0880152015416151560c08501526000526012815260ff60406000205416601a82526040600020546016835261319e6131806040600020617404565b9260405197889760808952608089019061653d565b948701906165bd565b60408501528382036060850152616845565b34610595576020366003190112610595576131c9616063565b6131d1616879565b6001600160a01b0316801561320257336000908152601e6020526040902080546001600160a01b0319169091179055005b60405162461bcd60e51b8152602060048201526017602482015276496e76616c6964206163636f756e74206164647265737360481b6044820152606490fd5b346105955760403660031901126105955761325a616063565b6024359081151590818303610595576001600160a01b0316913383146132cb5761329d903360005260076020526040600020846000526020526040600020616c23565b6040519081527f17307eab39ab6107e8899845ad3d59bd9653f200f220920489ca2b5937696c3160203392a3005b60405162461bcd60e51b815260206004820152601960248201527822a9219b99189d1030b8383937bb32903a379031b0b63632b960391b6044820152606490fd5b3461059557604036600319011261059557613325616063565b6001600160a01b039081166000908152601b6020526040902080546024359081101561059557610acd916165e2565b3461059557602080600319360112610595576004358060005260159081835260ff600f604060002001549161338f82601094851c16156172aa565b80600052601785526133a782604060002054166172eb565b60009260005b826000528587528160406000200180548210156133fe5760046133d18387936174ae565b50015416156133e9575b6133e490617391565b6133ad565b936133f66133e491617391565b9490506133db565b5050848661340b866166ca565b95613419604051978861616a565b808752613428601f19916166ca565b018160005b8281106134d15750505060009360005b816000528383528460406000200180548210156134be576004613461838a936174ae565b5001541615613479575b61347490617391565b61343d565b946134b661347491836000528585526134a161349b89896040600020016174ae565b50617330565b6134ab828c6173f0565b526104f7818b6173f0565b95905061346b565b604051848152806103118187018c615e10565b6134d961747d565b82828b01015201829061342d565b3461059557604036600319011261059557613500616063565b60243590600482101561059557613515616879565b6001600160a01b03166000818152601360205260409020546135399060ff16616e4f565b81156135c45780600052601260205260ff604060002054166004811015611e7057821461357f57600052601260205260406000209060ff80198354169116179055600080f35b60405162461bcd60e51b815260206004820152601e60248201527f53656c6c657220616c72656164792068617320746869732073746174757300006044820152606490fd5b60405162461bcd60e51b815260206004820152601f60248201527f43616e6e6f74207365742073746174757320746f20556e7665726966696564006044820152606490fd5b346105955760003660031901126105955760405160009060035461362c8161625c565b8083526001918083169081156136c35750600114613669575b610311836136558187038261616a565b604051918291602083526020830190615d74565b6003600090815260209450917fc2575a0e9e593c00f959f8c92f12db2869c3395a3b0502d05e2516446f71f85b5b8284106136b05750505081019091019061365581613645565b8054858501870152928501928101613697565b610311955061365593506020915091849260ff191682840152151560051b8201019350613645565b34610595576020366003190112610595576001600160a01b0361370c616063565b1660005260116020526137b560406000206040519061372f826105e08184616296565b604051613743816103818160018601616296565b6137ed60405161375a816103818160028801616296565b6137df604051613771816103818160038a01616296565b6137d160405193613790856137898160048c01616296565b038661616a565b6137c360ff600660058b01549a015416976040519b8c9b60e08d5260e08d0190615d74565b908b820360208d0152615d74565b9089820360408b0152615d74565b908782036060890152615d74565b908582036080870152615d74565b9160a0840152151560c08301520390f35b34610595576020366003190112610595576004356001600160401b0381116105955761382e9036906004016161df565b600854600060015b82811115613aa25750613848906173a0565b90600160005b8282111561386457604051806103118682616001565b8160005260158060205260099061038161388a8360406000200160405192838092616296565b60208151910120875160208901201480613a84575b6138b6575b5050906138b090617391565b9061384e565b836000526020526040600020610381613974604051936138d58561608f565b8354855260018401546001600160a01b03166020860152604051613900816103818160028901616296565b6040860152604051613919816103818160038901616296565b606086015260048401546080860152600584015460a086015261393e600685016166e1565b60c086015261394f600785016166e1565b60e0860152613960600885016166e1565b610100860152604051928380928601616296565b61012083015260405161398e8161038181600a8601616296565b610140830152600b8101546101608301526040516139b38161038181600c8601616296565b6101808301526040516139cd8161038181600d8601616296565b6101a0830152600e8101546101c0830152600f8101549060ff80831615156101e0850152808360081c161515610200850152601092831c16151561022084015201805490613a1a826166ca565b91613a28604051938461616a565b808352602083019160005260206000206000925b828410613a6657505050506102408201526138b091613a5f916104ec82886173f0565b90866138a4565b60066020600192613a7685617330565b815201920193019290613a3c565b50836000528060205260ff600f6040600020015460101c161561389f565b80600052601580602052610381613ac6600960406000200160405192838092616296565b6020815191012085516020870120149081613b05575b50613af0575b613aeb90617391565b613836565b90613afd613aeb91617391565b919050613ae2565b90508160005260205260ff600f6040600020015460101c161585613adc565b34610595576000366003190112610595576000546040516001600160a01b039091168152602090f35b346105955760a0366003190112610595576004356001600160401b03811161059557613b7d9036906004016161df565b6024356001600160401b03811161059557613b9c9036906004016161df565b6044356001600160401b03811161059557613bbb9036906004016161df565b6064356001600160401b03811161059557613bda9036906004016161df565b906084356001600160401b03811161059557613bfa9036906004016161df565b92613c06331515616d80565b33600052601360205260ff604060002054166142fb578451156142bd57815115614287578251156142515760405194613c3e866160c7565b855260208501526040840152606083015260808201524260a0820152600160c08201523360005260116020526040600020815191825160018060401b03811161130557613c8b835461625c565b601f811161421f575b506020601f82116001146141b757819293946000926141ac575b50508160011b916000199060031b1c19161782555b602081015180519092906001600160401b03811161130557613ce8600183015461625c565b601f8111614177575b506020601f821160011461410957819293946000926140fe575b50508160011b916000199060031b1c19161760018201555b604082015180519092906001600160401b03811161130557613d48600284015461625c565b601f81116140c9575b506020601f821160011461405b5781929394600092614050575b50508160011b916000199060031b1c19161760028301555b606081015180519092906001600160401b03811161130557613da8600383015461625c565b601f811161401b575b506020601f8211600114613fad5781929394600092613fa2575b50508160011b916000199060031b1c19161760038201555b6080820151805190929060048301906001600160401b03811161130557613e0a825461625c565b601f8111613f70575b506020601f8211600114613f005791816006949260c094613e6098600092613ef5575b50508160011b916000199060031b1c19161790555b60a08101516005850155015115159101616c23565b336000526013602052604060002060ff199060018282541617905560126020526001604060002091825416179055613e973361890d565b15613e9e57005b600e54600160401b811015611305576001810180600e5581101561266057600e6000527fbb7b4a454dc3493923482f07822329ed19e8244eff582cc204f8554c3620c3fd0180546001600160a01b03191633179055005b015190508880613e36565b601f198216958360005260206000209660005b818110613f58575092613e609760c09593600193836006999710613f3f575b505050811b019055613e4b565b015160001960f88460031b161c19169055888080613f32565b83830151895560019098019760209384019301613f13565b613f9c90836000526020600020601f840160051c810191602085106113d257601f0160051c0190616e01565b85613e13565b015190508480613dcb565b6003830160005260206000209060005b601f19841681106140035750600193949583601f19811610613fea575b505050811b016003820155613de3565b015160001960f88460031b161c19169055848080613fda565b9091602060018192858a015181550193019101613fbd565b61404a90600384016000526020600020601f840160051c810191602085106113d257601f0160051c0190616e01565b84613db1565b015190508480613d6b565b6002840160005260206000209060005b601f19841681106140b15750600193949583601f19811610614098575b505050811b016002830155613d83565b015160001960f88460031b161c19169055848080614088565b9091602060018192858a01518155019301910161406b565b6140f890600285016000526020600020601f840160051c810191602085106113d257601f0160051c0190616e01565b84613d51565b015190508480613d0b565b6001830160005260206000209060005b601f198416811061415f5750600193949583601f19811610614146575b505050811b016001820155613d23565b015160001960f88460031b161c19169055848080614136565b9091602060018192858a015181550193019101614119565b6141a690600184016000526020600020601f840160051c810191602085106113d257601f0160051c0190616e01565b84613cf1565b015190508480613cae565b8360005260206000209060005b601f19841681106142075750600193949583601f198116106141ee575b505050811b018255613cc3565b015160001960f88460031b161c191690558480806141e1565b9091602060018192858a0151815501930191016141c4565b61424b90846000526020600020601f840160051c810191602085106113d257601f0160051c0190616e01565b84613c94565b60405162461bcd60e51b815260206004820152600e60248201526d141a1bdb99481c995c5d5a5c995960921b6044820152606490fd5b60405162461bcd60e51b815260206004820152600e60248201526d115b585a5b081c995c5d5a5c995960921b6044820152606490fd5b60405162461bcd60e51b8152602060048201526016602482015275109d5cda5b995cdcc81b985b59481c995c5d5a5c995960521b6044820152606490fd5b60405162461bcd60e51b815260206004820152601c60248201527b20b63932b0b23c903932b3b4b9ba32b932b21030b99039b2b63632b960211b6044820152606490fd5b34610595576040366003190112610595576004356001600160401b03602435818111610595576143739036906004016161df565b9161437c616879565b8060005260209160188352604060002054156145515783511561450e576143a4600c54617391565b9081600c55604051946143b6866160fe565b828652848601908152604086019184835260608701936001908186526000526019875260406000209751885580880192518051928311611305576143fa845461625c565b601f81116144de575b508790601f841160011461446e5792808060189b97946003979461444b9a97600094614463575b50501b9160001990871b1c19161790555b5160028401555115159101616c23565b600052526112626003604060002001600c549061722a565b015192508d8061442a565b90601f9392931983169185600052896000209260005b8181106144c957509261444b989592859260189d999660039996106144b1575b505050811b01905561443b565b015160001983891b60f8161c191690558b80806144a4565b82840151855593860193928b01928b01614484565b614508908560005289600020601f860160051c8101918b87106113d257601f0160051c0190616e01565b89614403565b6064836040519062461bcd60e51b825280600483015260248201527f53756263617465676f7279206e616d652063616e6e6f7420626520656d7074796044820152fd5b60405162461bcd60e51b815260048101849052601e60248201527f506172656e742063617465676f727920646f6573206e6f7420657869737400006044820152606490fd5b3461059557602036600319011261059557600435600052601560205260406000208054600160a01b6001900360018301541691604051808060028401906145dc91616296565b036145e7908261616a565b604051806145f88160038601616296565b03614603908261616a565b60048301546005840154906040518080600988019061462191616296565b0361462c908261616a565b604051908161463e81600a8a01616296565b03614649908361616a565b600b87015492604051948580600c8b019061466391616296565b0361466e908761616a565b604051968761468081600d8d01616296565b0361468b908961616a565b600e8a015499600f0154986040519c8d9c8d5260208d01528b6101e06040819201528c016146b891615d74565b8b810360608d01526146c991615d74565b9160808b015260a08a015288810360c08a01526146e591615d74565b87810360e08901526146f691615d74565b9061010087015285810361012087015261470f91615d74565b84810361014086015261472191615d74565b9161016084015260ff811615156101808401528060081c60ff1615156101a084015260101c60ff1615156101c08301520390f35b346105955760003660031901126105955761476e616879565b600080546001600160a01b0319811682556001600160a01b031660008051602061895c8339815191528280a3005b34610595576020366003190112610595576001600160a01b036147bd616063565b1680156147dc5760005260056020526020604060002054604051908152f35b60405162461bcd60e51b815260206004820152602960248201527f4552433732313a2061646472657373207a65726f206973206e6f7420612076616044820152683634b21037bbb732b960b91b6064820152608490fd5b34610595576020806003193601126105955761484d616063565b6040519061485a82616119565b6000608060609384815284868201528460408201528285820152015260018060a01b031690816000526014835260ff604060002054169160108452604060002091604051916148a883616119565b6040516148b9816103818188616296565b8352604051906148d0826105e08160018901616296565b868401918252604051916148f2836148eb8160028a01616296565b038461616a565b6040850192835260ff6004600388015497868801988952015416916080860192151583526000526013885260ff6040600020541692836000146149b5576012895260ff60406000205416955b604051998a9915158a52890160809052516080890160a09052610120890161496591615d74565b9151607f1992838a82030160a08b015261497e91615d74565b9051918882030160c089015261499391615d74565b945160e0870152511515610100860152151560408501528301610311916165bd565b60009561493e565b3461059557602036600319011261059557600435600052601960205260406000206040516149ea816160fe565b8154815260405190614a03826105e08160018701616296565b6020810191825260ff60036002850154946040840195865201541690606081019115158252805115614a6357519151925190511515614a546040519485948552608060208601526080850190615d74565b91604084015260608301520390f35b60405162461bcd60e51b815260206004820152601a60248201527914dd5898d85d1959dbdc9e48191bd95cc81b9bdd08195e1a5cdd60321b6044820152606490fd5b34610595576020366003190112610595576020614ac3600435616918565b6040516001600160a01b039091168152f35b34610595576020366003190112610595576001600160a01b03614af6616063565b16600052601a6020526020604060002054604051908152f35b3461059557602036600319011261059557600435614b2b616879565b60648111614b3857600d55005b60405162461bcd60e51b8152602060048201526012602482015271496e76616c69642070657263656e7461676560701b6044820152606490fd5b346105955760003660031901126105955760405180600e5480835260208093018091600e600052846000209060005b86828210614c00578686614bb78288038361616a565b604051928392818401908285525180915260408401929160005b828110614be057505050500390f35b83516001600160a01b031685528695509381019392810192600101614bd1565b83546001600160a01b031685529093019260019283019201614ba1565b3461059557602036600319011261059557600435600f5481101561059557600f60005260008051602061899c83398151915201546040516001600160a01b039091168152602090f35b34610595576020366003190112610595576001600160a01b03614c87616063565b166000526012602052602060ff6040600020541661077360405180926165bd565b346105955760208060031936011261059557614cc2616063565b614cca616e18565b506001600160a01b03166000818152601383526040902054614cee9060ff16616e4f565b6000526011815260406000209060ff600660405193614d0c856160c7565b604051614d1d816103818185616296565b8552604051614d33816103818160018601616296565b84860152604051614d4b816103818160028601616296565b6040860152604051614d64816103818160038601616296565b6060860152604051614d7d816103818160048601616296565b6080860152600581015460a0860152015416151560c083015261031160405192828493845283019061653d565b3461059557611262614dbb36616227565b9060405192614dc98461614f565b600084526169c4565b3461059557600036600319011261059557614deb6174ca565b33600052601360205260ff6040600020541615614ea25733600052601a6020526040600020548015614e6457614e5e90614e58614e376064614e2f600d5485617069565b048093617470565b9133600052601a6020526000604081205560018060a01b03600054166188a7565b336188a7565b60018055005b60405162461bcd60e51b81526020600482015260166024820152754e6f2062616c616e636520746f20776974686472617760501b6044820152606490fd5b60405162461bcd60e51b815260206004820152601b60248201527a26bab9ba1031329030903932b3b4b9ba32b932b21039b2b63632b960291b6044820152606490fd5b3461059557602080600319360112610595576001600160a01b039081614f09616063565b16600052601c81526040600020805490614f22826166ca565b92614f30604051948561616a565b82845260009182528082208185015b848410614f545760405180610311888261645c565b601683600192604051614f66816160e2565b85548152848601548382015260028601546040820152600386015460608201526004860154608082015260ff8b60058801541660a090818401526006880154908d821660c08501521c16151560e0820152614fc3600787016165fe565b610100820152614fd5600f8701616746565b610120820152815201920193019290614f3f565b34610595576020366003190112610595576001600160a01b0361500a616063565b16600052601060205261507d60406000206040519061502d826105e08184616296565b604051615041816103818160018601616296565b615099604051615058816103818160028801616296565b61508b60ff60046003870154960154169360405197889760a0895260a0890190615d74565b908782036020890152615d74565b908582036040870152615d74565b916060840152151560808301520390f35b34610595576112626150bb36616227565b916150ce6150c98433616a5f565b616962565b616b27565b60031960a036820112610595576001600160401b0360243511610595576101009060243536030112610595576044356001600160401b0381116105955761511e9036906004016161fa565b906064356001600160401b0381116105955761513e9036906004016161fa565b6151466174ca565b600435600052601760205260ff6040600020541615615555576004356000526015602052604060002093600f8501549460ff8660101c166155155760058101549060843582106154db576004810154966151a260843589617069565b341061549f576151b86151dc9360843590617470565b8060058401551561548d575b50600101546001600160a01b03169560843590617069565b92604051916151ea836160ab565b600460243501356001600160401b03811161059557615211906004369160243501016161df565b83526001600160401b03602480350135116105955761523c36600460248035013560243501016161df565b60208401526001600160401b0360243560440135116105955761526a366024356044810135016004016161df565b60408401526001600160401b03602435606401351161059557615298366024356064810135016004016161df565b60608401526001600160401b036024356084013511610595576152c6366024356084810135016004016161df565b60808401526001600160401b0360243560a4013511610595576152f43660243560a4810135016004016161df565b60a084015260243560c401356001600160401b03811161059557615320906004369160243501016161df565b60c08401526001600160401b0360243560e40135116105955761537560039261536d61546c986153f59461536136600460e4602435013560243501016161df565b60e089015236916161a8565b9536916161a8565b600435600052601560205260406000209060405195615393876160c7565b6040516153a7816103818160028801616296565b87526153b5600884016166e1565b60208801526040870152606086015260843560808601526040516153e0816103818160098601616296565b60a08601526103816040518094819301616296565b60c083015260405192615407846160e2565b600435845234602085015260408401524260608401524260808401523360a08401528460c0840152600060e084015261010083015261012082015233600052601b602052615459816040600020617520565b82600052601c6020526040600020617520565b600052601a60205260406000208054903482018092116112ef575560018055005b60ff1916600117600f820155876151c4565b60405162461bcd60e51b8152602060048201526014602482015273125b9cdd59999a58da595b9d081c185e5b595b9d60621b6044820152606490fd5b60405162461bcd60e51b8152602060048201526012602482015271496e73756666696369656e742073746f636b60701b6044820152606490fd5b60405162461bcd60e51b8152602060048201526018602482015277141c9bd91d58dd081a185cc81899595b8819195b195d195960421b6044820152606490fd5b60405162461bcd60e51b8152602060048201526011602482015270141c9bd91d58dd081b9bdd08199bdd5b99607a1b6044820152606490fd5b3461059557606036600319011261059557602480356004356044356001600160401b038111610595576155c59036906004016161df565b90806000526020916015835260018060a01b036001604060002001541633146157335783151580615728575b156156e4578051156156a65790601592916001600a54019081600a5561561561747d565b958287523385880152604087015260608601524260a0860152600052601d82526040600020600160ff198254161790556000525260106040600020018054600160401b8110156156915761566e916001820181556174ae565b61567c5761126292506170c6565b82634e487b7160e01b60005260006004526000fd5b83634e487b7160e01b60005260416004526000fd5b60405162461bcd60e51b81526004810184905260178187015276436f6d6d656e742063616e6e6f7420626520656d70747960481b6044820152606490fd5b60405162461bcd60e51b815260048101849052601e818701527f526174696e67206d757374206265206265747765656e203120616e64203500006044820152606490fd5b5060058411156155f1565b60405162461bcd60e51b8152600481018490526026818701527f53656c6c65722063616e6e6f7420726576696577207468656972206f776e20706044820152651c9bd91d58dd60d21b6064820152608490fd5b346105955760003660031901126105955761579f616879565b336000908152601e6020526040902080546001600160a01b0319169055005b34610595576040366003190112610595576112626157da616079565b60043561851b565b34610595576020366003190112610595576001600160a01b03615803616063565b166000526014602052602060ff604060002054166040519015158152f35b346105955760403660031901126105955761583a616063565b602435906001600160a01b03808061585185616918565b1692169180831461594c57803314908115615927575b50156158bc57600083815260066020526040902080546001600160a01b0319168317905561589483616918565b167f8c5be1e5ebec7d5bd14f71427d1e84f3dd0314c0f7b2291e5b200ac8c7c3b925600080a4005b60405162461bcd60e51b815260206004820152603d60248201527f4552433732313a20617070726f76652063616c6c6572206973206e6f7420746f60448201527f6b656e206f776e6572206f7220617070726f76656420666f7220616c6c0000006064820152608490fd5b9050600052600760205260406000203360005260205260ff6040600020541684615867565b60405162461bcd60e51b815260206004820152602160248201527f4552433732313a20617070726f76616c20746f2063757272656e74206f776e656044820152603960f91b6064820152608490fd5b34610595576020366003190112610595576020614ac360043561693b565b34610595576000366003190112610595576040516000906002546159dc8161625c565b8083526001918083169081156136c35750600114615a0457610311836136558187038261616a565b6002600090815260209450917f405787fa12a823e0f2b7631cc41b3ba8828b3321ca811111fa75cd3aa3bb5ace5b828410615a4b5750505081019091019061365581613645565b8054858501870152928501928101615a32565b346105955760003660031901126105955760088054600060015b82811115615c985750615a8a906173a0565b9060009260015b82811115615aa757604051806103118682616001565b80600052602060158152604060002090600f82015460ff926010908483831c161580615ae2575b505050505050615add90617391565b615a91565b60409a969a5195615af28761608f565b8254875260018301546001600160a01b031686880152604051615b1c816103818160028801616296565b6040880152604051615b35816103818160038801616296565b606088015260048301546080880152600583015460a0880152600694615b5c8685016166e1565b60c0890152615b6d600785016166e1565b60e0890152615b7d8a85016166e1565b610100890152604051615b97816103818160098901616296565b610120890152604051615bb18161038181600a8901616296565b610140890152600b840154610160890152604051615bd68161038181600c8901616296565b610180890152604051615bf08161038181600d8901616296565b6101a0890152600e8401546101c089015281811615156101e0890152891c161515610200870152156102208601520190815491615c2c836166ca565b93615c3a604051958661616a565b8385526000918252808220918186015b858210615c7c575050505050509181615add93610240615c709401526104ec82886173f0565b94908680808080615ace565b8483600192615c8a87617330565b815201940191019092615c4a565b80600052601560205260ff600f6040600020015460101c1615615cc4575b615cbf90617391565b615a78565b90615cd1615cbf91617391565b919050615cb6565b346105955760203660031901126105955760043563ffffffff60e01b8116809103610595576020906380ac58cd60e01b8114908115615d36575b8115615d25575b506040519015158152f35b6301ffc9a760e01b14905082615d1a565b635b5e139f60e01b81149150615d13565b3461059557602036600319011261059557602090600435600052601d825260ff6040600020541615158152f35b919082519283825260005b848110615da0575050826000602080949584010152601f8019910116010190565b602081830181015184830182015201615d7f565b908082519081815260208091019281808460051b8301019501936000915b848310615de25750505050505090565b9091929394958480615e00600193601f198682030187528a51615d74565b9801930193019194939290615dd2565b908082519081815260208091019281808460051b8301019501936000915b848310615e3e5750505050505090565b9091929394958480600192601f1985820301865289519081518152848060a01b0383830151168382015260408083015190820152615e8b6060808401519060c08091850152830190615d74565b9160808082015115159083015260a0809101519101529801930193019194939290615e2e565b90615ffe918051825260018060a01b036020820151166020830152615fb8615fa4615f85615f71615f5d615f49615f37615f11615eff60408a015160408c61026091829101528c0190615d74565b60608a01518b820360608d0152615d74565b608089015160808b015260a089015160a08b015260c08901518a820360c08c0152615db4565b60e088015189820360e08b0152615db4565b6101008088015190898303908a0152615db4565b610120808701519088830390890152615d74565b610140808601519087830390880152615d74565b6101608085015190860152610180808501519086830390870152615d74565b6101a0808401519085830390860152615d74565b916101c080830151908201526101e08083015115159082015261020080830151151590820152610220808301511515908201526102408092015191818403910152615e10565b90565b602080820190808352835180925260408301928160408460051b8301019501936000915b8483106160355750505050505090565b9091929394958480616053600193603f198682030187528a51615eb1565b9801930193019194939290616025565b600435906001600160a01b038216820361059557565b602435906001600160a01b038216820361059557565b61026081019081106001600160401b0382111761130557604052565b61010081019081106001600160401b0382111761130557604052565b60e081019081106001600160401b0382111761130557604052565b61014081019081106001600160401b0382111761130557604052565b608081019081106001600160401b0382111761130557604052565b60a081019081106001600160401b0382111761130557604052565b60c081019081106001600160401b0382111761130557604052565b602081019081106001600160401b0382111761130557604052565b601f909101601f19168101906001600160401b0382119082101761130557604052565b6001600160401b03811161130557601f01601f191660200190565b9291926161b48261618d565b916161c2604051938461616a565b829481845281830111610595578281602093846000960137010152565b9080601f8301121561059557816020615ffe933591016161a8565b9181601f84011215610595578235916001600160401b038311610595576020838186019501011161059557565b6060906003190112610595576001600160a01b0390600435828116810361059557916024359081168103610595579060443590565b90600182811c9216801561628c575b602083101461627657565b634e487b7160e01b600052602260045260246000fd5b91607f169161626b565b90600092918054916162a78361625c565b91828252600193848116908160001461630957506001146162c9575b50505050565b90919394506000526020928360002092846000945b8386106162f55750505050010190388080806162c3565b8054858701830152940193859082016162de565b9294505050602093945060ff191683830152151560051b010190388080806162c3565b615ffe9160e06163c36163b161639f61638d61637b6163696163578951610100808b528a0190615d74565b60208a015189820360208b0152615d74565b604089015188820360408a0152615d74565b60608801518782036060890152615d74565b60808701518682036080880152615d74565b60a086015185820360a0870152615d74565b60c085015184820360c0860152615d74565b9201519060e0818403910152615d74565b615ffe9160c061644b61642f61641d61640b6163f9875160e0885260e0880190615d74565b60208801518782036020890152615db4565b60408701518682036040880152615d74565b60608601518582036060870152615d74565b6080850151608085015260a085015184820360a0860152615d74565b9201519060c0818403910152615d74565b602080820190808352835180925260409283810182858560051b8401019601946000925b858410616491575050505050505090565b90919293949596858061652c600193603f198682030188528b5180518252838101518483015287810151888301526060808201519083015260808082015190830152858060a01b0360a08181840151169084015260c09081830151169083015260e0808201511515908301526165186101008083015190610140809186015284019061632c565b9161012080920151918184039101526163d4565b990194019401929594939190616480565b9060c0806165a8616596616584616572616560885160e0895260e0890190615d74565b602089015188820360208a0152615d74565b60408801518782036040890152615d74565b60608701518682036060880152615d74565b60808601518582036080870152615d74565b9360a081015160a08501520151151591015290565b906004821015611e705752565b80548210156126605760005260206000200190600090565b8054821015612660576000526016602060002091020190600090565b90600760e06040936166c6855191616615836160ab565b6148eb8397805161662a816103818187616296565b8552805161663f816103818160018801616296565b60208601528051616657816103818160028801616296565b81860152805161666e816103818160038801616296565b60608601528051616686816103818160048801616296565b6080860152805161669e816103818160058801616296565b60a086015280516166b6816103818160068801616296565b60c0860152518096819301616296565b0152565b6001600160401b0381116113055760051b60200190565b9081546166ed816166ca565b926040936166fd8551918261616a565b828152809460208092019260005281600020906000935b85851061672357505050505050565b6001848192845161673881610381818a616296565b815201930194019391616714565b90600660c06040936166c685519161675d836160c7565b6148eb83978051616772816103818187616296565b8552616780600184016166e1565b60208601528051616798816103818160028801616296565b8186015280516167af816103818160038801616296565b60608601526004830154608086015280516167d1816103818160058801616296565b60a0860152518096819301616296565b9895939092615ffe9a98959261683698948b5260208b015260408a01526060890152608088015260018060a01b0380921660a08801521660c0860152151560e08501526101408061010086015284019061632c565b916101208184039101526163d4565b90815180825260208080930193019160005b828110616865575050505090565b835185529381019392810192600101616857565b6000546001600160a01b0316330361688d57565b606460405162461bcd60e51b815260206004820152602060248201527f4f776e61626c653a2063616c6c6572206973206e6f7420746865206f776e65726044820152fd5b156168d857565b60405162461bcd60e51b8152602060048201526018602482015277115490cdcc8c4e881a5b9d985b1a59081d1bdad95b88125160421b6044820152606490fd5b6000908152600460205260409020546001600160a01b0316615ffe8115156168d1565b616947612ba282616c34565b6000908152600660205260409020546001600160a01b031690565b1561696957565b60405162461bcd60e51b815260206004820152602d60248201527f4552433732313a2063616c6c6572206973206e6f7420746f6b656e206f776e6560448201526c1c881bdc88185c1c1c9bdd9959609a1b6064820152608490fd5b906169e89392916169d86150c98433616a5f565b6169e3838383616b27565b616c81565b156169ef57565b60405162461bcd60e51b815280616a0860048201616a0c565b0390fd5b60809060208152603260208201527f4552433732313a207472616e7366657220746f206e6f6e20455243373231526560408201527131b2b4bb32b91034b6b83632b6b2b73a32b960711b60608201520190565b906001600160a01b038080616a7384616918565b16931691838314938415616aa6575b508315616a90575b50505090565b616a9c9192935061693b565b1614388080616a8a565b909350600052600760205260406000208260005260205260ff604060002054169238616a82565b15616ad457565b60405162461bcd60e51b815260206004820152602560248201527f4552433732313a207472616e736665722066726f6d20696e636f72726563742060448201526437bbb732b960d91b6064820152608490fd5b90616b4f91616b3584616918565b6001600160a01b0393918416928492909183168414616acd565b16918215616bd25781616b6c91616b6586616918565b1614616acd565b60008051602061897c833981519152600084815260066020526040812060018060a01b03199081815416905583825260056020526040822060001981540190558482526040822060018154019055858252600460205284604083209182541617905580a4565b60405162461bcd60e51b8152602060048201526024808201527f4552433732313a207472616e7366657220746f20746865207a65726f206164646044820152637265737360e01b6064820152608490fd5b9060ff801983541691151516179055565b6000908152600460205260409020546001600160a01b0316151590565b3d15616c7c573d90616c628261618d565b91616c70604051938461616a565b82523d6000602084013e565b606090565b91926000929190813b15616d7657602091616cd79185604051958680958194630a85bd0160e11b9b8c845233600485015260018060a01b0380951660248501526044840152608060648401526084830190615d74565b0393165af190829082616d27575b5050616d1957616cf3616c51565b80519081616d145760405162461bcd60e51b815280616a0860048201616a0c565b602001fd5b6001600160e01b0319161490565b909192506020813d8211616d6e575b81616d436020938361616a565b81010312616d6a5751906001600160e01b031982168203616d675750903880616ce5565b80fd5b5080fd5b3d9150616d36565b5050505050600190565b15616d8757565b60405162461bcd60e51b815260206004820152600f60248201526e496e76616c6964206164647265737360881b6044820152606490fd5b15616dc557565b60405162461bcd60e51b81526020600482015260146024820152734e616d652063616e6e6f7420626520656d70747960601b6044820152606490fd5b818110616e0c575050565b60008155600101616e01565b60405190616e25826160c7565b600060c0836060808252806020830152806040830152808083015260808201528260a08201520152565b15616e5657565b60405162461bcd60e51b815260206004820152601560248201527414d95b1b195c881b9bdd081c9959da5cdd195c9959605a1b6044820152606490fd5b6001600160a01b03908116908115616ec957600054168114616ec357600052601260205260ff6040600020541690565b50600290565b60405162461bcd60e51b8152602060048201526016602482015275496e76616c69642073656c6c6572206164647265737360501b6044820152606490fd5b903590601e198136030182121561059557018035906001600160401b0382116105955760200191813603831361059557565b903590601e198136030182121561059557018035906001600160401b03821161059557602001918160051b3603831361059557565b60405190616f7b8261608f565b8161024060009182815282602082015260609283604083015283808301528060808301528060a08301528360c08301528360e08301528361010083015283610120830152836101408301528061016083015283610180830152836101a0830152806101c0830152806101e0830152806102008301526102208201520152565b92919092617007846166ca565b91617015604051938461616a565b829480845260208094019060051b8301928284116105955780915b84831061703f57505050505050565b82356001600160401b03811161059557869161705e86849386016161df565b815201920191617030565b818102929181159184041417156112ef57565b617086815461625c565b9081617090575050565b81601f600093116001146170a35750555b565b9080839182526170c2601f60208420940160051c840160018501616e01565b5555565b81518155602080830151600180840180546001600160a01b0319166001600160a01b03939093169290921790915560408401516002840155606084015180519394909390926003860192906001600160401b03831161130557617129845461625c565b601f81116171fa575b5080601f841160011461718b57509180809260a0969594600598600094617180575b50501b916000199060031b1c19161790555b6171796080820151151560048601616c23565b0151910155565b015192503880617154565b91939495601f1984168660005283600020936000905b8282106171e3575050916005979593918560a0989694106171ca575b505050811b019055617166565b015160001960f88460031b161c191690553880806171bd565b8088869782949787015181550196019401906171a1565b617224908560005282600020601f860160051c8101918487106113d257601f0160051c0190616e01565b38617132565b8054600160401b81101561130557617247916001820181556165ca565b819291549060031b91821b91600019901b1916179055565b1561726657565b60405162461bcd60e51b815260206004820152601c60248201527b115490cdcc8c4e881d1bdad95b88185b1c9958591e481b5a5b9d195960221b6044820152606490fd5b156172b157565b60405162461bcd60e51b8152602060048201526012602482015271141c9bd91d58dd081a5cc819195b195d195960721b6044820152606490fd5b156172f257565b60405162461bcd60e51b8152602060048201526016602482015275141c9bd91d58dd08191bd95cc81b9bdd08195e1a5cdd60521b6044820152606490fd5b9060405161733d81616134565b60a06005829480548452600180841b03600182015416602085015260028101546040850152604051617376816103818160038601616296565b606085015260ff600482015416151560808501520154910152565b60001981146112ef5760010190565b906173aa826166ca565b6173b7604051918261616a565b82815280926173c8601f19916166ca565b019060005b8281106173d957505050565b6020906173e4616f6e565b828285010152016173cd565b80518210156126605760209160051b010190565b9060405191828154918282526020928383019160005283600020936000905b828210617439575050506170a19250038361616a565b855484526001958601958895509381019390910190617423565b60005b82811061746257505050565b606082820152602001617456565b919082039182116112ef57565b6040519061748a82616134565b600060a0838281528260208201528260408201526060808201528260808201520152565b8054821015612660576000526006602060002091020190600090565b6002600154146174db576002600155565b60405162461bcd60e51b815260206004820152601f60248201527f5265656e7472616e637947756172643a207265656e7472616e742063616c6c006044820152606490fd5b8054919291600160401b81101561130557617540916001820181556165e2565b6184ab57825181556020830151600182015560408301516002820155606083015160038201556080830151600482015560a0808401516005830180546001600160a01b0319166001600160a01b0392831617905560c085015160068401805460e08801516001600160a81b0319909116929093169190911791151590921b60ff60a01b161790556101008301518051805160078401916001600160401b0382116113055781906175f0845461625c565b601f8111618479575b50602090601f831160011461841357600092618408575b50508160011b916000199060031b1c19161790555b60208101518051906001600160401b03821161130557819061764a600886015461625c565b601f81116183d3575b50602090601f83116001146183665760009261835b575b50508160011b916000199060031b1c19161760088301555b60408101518051906001600160401b0382116113055781906176a7600986015461625c565b601f8111618326575b50602090601f83116001146182b4576000926182a9575b50508160011b916000199060031b1c19161760098301555b60608101518051906001600160401b038211611305578190617704600a86015461625c565b601f8111618274575b50602090601f8311600114618202576000926181f7575b50508160011b916000199060031b1c191617600a8301555b60808101518051906001600160401b038211611305578190617761600b86015461625c565b601f81116181c2575b50602090601f831160011461815057600092618145575b50508160011b916000199060031b1c191617600b8301555b60a08101518051906001600160401b0382116113055781906177be600c86015461625c565b601f8111618110575b50602090601f831160011461809e57600092618093575b50508160011b916000199060031b1c191617600c8301555b60c08101518051906001600160401b03821161130557819061781b600d86015461625c565b601f811161805e575b50602090601f8311600114617fec57600092617fe1575b50508160011b916000199060031b1c191617600d8301555b60e001518051600e8301916001600160401b038211611305578190617878845461625c565b601f8111617faf575b50602090601f8311600114617f4957600092617f3e575b50508160011b916000199060031b1c19161790555b610120600f820193015192835180519060018060401b0382116113055781906178d6845461625c565b601f8111617f0c575b50602090601f8311600114617ea657600092617e9b575b50508160011b916000199060031b1c19161790555b602083015180516010830191600160401b8211611305578254828455808310617e6c575b50602001916000526020600020916000905b828210617d5757505050506040830151805160118301916001600160401b038211611305578190617972845461625c565b601f8111617d25575b50602090601f8311600114617cbf57600092617cb4575b50508160011b916000199060031b1c19161790555b6060830151805160128301916001600160401b0382116113055781906179cd845461625c565b601f8111617c82575b50602090601f8311600114617c1c57600092617c11575b50508160011b916000199060031b1c19161790555b6080830151601382015560a0830151805160148301916001600160401b03821161130557617a30835461625c565b601f8111617bdf575b50602090601f8311600114617b715791806015949260c09694600092617b66575b50508160011b916000199060031b1c19161790555b0192015191825160018060401b03811161130557617a8d825461625c565b601f8111617b34575b506020601f8211600114617ad15781929394600092617ac6575b50508160011b916000199060031b1c1916179055565b015190503880617ab0565b601f198216908360005260206000209160005b818110617b1c57509583600195969710617b03575b505050811b019055565b015160001960f88460031b161c19169055388080617af9565b9192602060018192868b015181550194019201617ae4565b617b6090836000526020600020601f840160051c810191602085106113d257601f0160051c0190616e01565b38617a96565b015190503880617a5a565b90601f198316918460005260206000209260005b818110617bc7575092600192859260c098966015989610617bae575b505050811b019055617a6f565b015160001960f88460031b161c19169055388080617ba1565b92936020600181928786015181550195019301617b85565b617c0b90846000526020600020601f850160051c810191602086106113d257601f0160051c0190616e01565b38617a39565b0151905038806179ed565b6000858152602081209350601f198516905b818110617c6a5750908460019594939210617c51575b505050811b019055617a02565b015160001960f88460031b161c19169055388080617c44565b92936020600181928786015181550195019301617c2e565b617cae90856000526020600020601f850160051c810191602086106113d257601f0160051c0190616e01565b386179d6565b015190503880617992565b6000858152602081209350601f198516905b818110617d0d5750908460019594939210617cf4575b505050811b0190556179a7565b015160001960f88460031b161c19169055388080617ce7565b92936020600181928786015181550195019301617cd1565b617d5190856000526020600020601f850160051c810191602086106113d257601f0160051c0190616e01565b3861797b565b80518051906001600160401b03821161130557617d74865461625c565b601f8111617e3a575b50602090601f8311600114617dca579282600194936020938695600092617dbf575b5050600019600383901b1c191690841b1787555b01940191019092617941565b015190503880617d9f565b908660005260206000209160005b601f1985168110617e22575083602093600196938796938794601f19811610617e09575b505050811b018755617db3565b015160001960f88460031b161c19169055388080617dfc565b91926020600181928685015181550194019201617dd8565b617e6690876000526020600020601f850160051c810191602086106113d257601f0160051c0190616e01565b38617d7d565b8360005282602060002091820191015b818110617e89575061792f565b80617e9560019261707c565b01617e7c565b0151905038806178f6565b6000858152602081209350601f198516905b818110617ef45750908460019594939210617edb575b505050811b01905561790b565b015160001960f88460031b161c19169055388080617ece565b92936020600181928786015181550195019301617eb8565b617f3890856000526020600020601f850160051c810191602086106113d257601f0160051c0190616e01565b386178df565b015190503880617898565b6000858152602081209350601f198516905b818110617f975750908460019594939210617f7e575b505050811b0190556178ad565b015160001960f88460031b161c19169055388080617f71565b92936020600181928786015181550195019301617f5b565b617fdb90856000526020600020601f850160051c810191602086106113d257601f0160051c0190616e01565b38617881565b01519050388061783b565b9250600d85016000526020600020906000935b601f1984168510618043576001945083601f1981161061802a575b505050811b01600d830155617853565b015160001960f88460031b161c1916905538808061801a565b81810151835560209485019460019093019290910190617fff565b61808d90600d87016000526020600020601f850160051c810191602086106113d257601f0160051c0190616e01565b38617824565b0151905038806177de565b9250600c85016000526020600020906000935b601f19841685106180f5576001945083601f198116106180dc575b505050811b01600c8301556177f6565b015160001960f88460031b161c191690553880806180cc565b818101518355602094850194600190930192909101906180b1565b61813f90600c87016000526020600020601f850160051c810191602086106113d257601f0160051c0190616e01565b386177c7565b015190503880617781565b9250600b85016000526020600020906000935b601f19841685106181a7576001945083601f1981161061818e575b505050811b01600b830155617799565b015160001960f88460031b161c1916905538808061817e565b81810151835560209485019460019093019290910190618163565b6181f190600b87016000526020600020601f850160051c810191602086106113d257601f0160051c0190616e01565b3861776a565b015190503880617724565b9250600a85016000526020600020906000935b601f1984168510618259576001945083601f19811610618240575b505050811b01600a83015561773c565b015160001960f88460031b161c19169055388080618230565b81810151835560209485019460019093019290910190618215565b6182a390600a87016000526020600020601f850160051c810191602086106113d257601f0160051c0190616e01565b3861770d565b0151905038806176c7565b9250600985016000526020600020906000935b601f198416851061830b576001945083601f198116106182f2575b505050811b0160098301556176df565b015160001960f88460031b161c191690553880806182e2565b818101518355602094850194600190930192909101906182c7565b61835590600987016000526020600020601f850160051c810191602086106113d257601f0160051c0190616e01565b386176b0565b01519050388061766a565b600886016000908152602081209350601f198516905b8181106183bb57509084600195949392106183a2575b505050811b016008830155617682565b015160001960f88460031b161c19169055388080618392565b9293602060018192878601518155019501930161837c565b61840290600887016000526020600020601f850160051c810191602086106113d257601f0160051c0190616e01565b38617653565b015190503880617610565b6000858152602081209350601f198516905b8181106184615750908460019594939210618448575b505050811b019055617625565b015160001960f88460031b161c1916905538808061843b565b92936020600181928786015181550195019301618425565b6184a590856000526020600020601f850160051c810191602086106113d257601f0160051c0190616e01565b386175f9565b634e487b7160e01b600052600060045260246000fd5b156184c857565b60405162461bcd60e51b815260206004820152602560248201527f4f6e6c792076657269666965642073656c6c6572206f72206f776e657220616c6044820152641b1bddd95960da1b6064820152608490fd5b6000805490939291906001600160a01b0390811633146185fe57338552601e602052604085205481169081156185a857818652601260205260ff604087205416600481101561859457916170a195969160026185829414928315618587575b5050506184c1565b618606565b541614905038808061857a565b634e487b7160e01b87526021600452602487fd5b9050601260205260ff60408620541660048110156185ea57946185829160026170a19697149182156185dc575b50506184c1565b9091505416331438806185d5565b634e487b7160e01b86526021600452602486fd5b506170a19293505b90600091825b60018060a01b0380841680600052601b60208181526040928360002080548710156188995761863c8789926165e2565b50541461865657505050505061865190617391565b61860c565b80919293949697985060005282825261867285856000206165e2565b509560ff60068098015460a01c166188595781600052838352808761869a88886000206165e2565b50015416331490811561884b575b50156187f457906186c294939291600052526000206165e2565b5001805460ff60a01b1916600160a01b17905560015b156187ba57806000526020906015825260018060a01b039160019360409380868660002001541691866000905b618714575b5050505050505050565b83600052601c8086528760002080548310156187b3576187358389926165e2565b5054148061878e575b618752575061874c90617391565b87618705565b93915094506006965061876e95939150600052526000206165e2565b5001805460ff60a01b1916600160a01b179055388080808080808061870a565b50846000528086528360056187a6848b6000206165e2565b500154168484161461873e565b505061870a565b60405162461bcd60e51b8152602060048201526012602482015271141d5c98da185cd9481b9bdd08199bdd5b9960721b6044820152606490fd5b835162461bcd60e51b815260048101839052602a60248201527f4f6e6c792073656c6c6572206f72206f776e65722063616e206d61726b2061736044820152690819195b1a5d995c995960b21b6064820152608490fd5b6000541633149050386186a8565b6064838587519162461bcd60e51b8352600483015260248201527a105b1c9958591e481b585c9ad95908185cc819195b1a5d995c9959602a1b6044820152fd5b5050505050505090916186d8565b6000918291829182916001600160a01b03166188c4811515616d80565b5af16188ce616c51565b50156188d657565b60405162461bcd60e51b815260206004820152600f60248201526e151c985b9cd9995c8819985a5b1959608a1b6044820152606490fd5b600090600e8054925b8381106189265750505050600090565b6000828152602090208101546001600160a01b038481169116146189525761894d90617391565b618916565b5050505060019056fe8be0079c531659141344cd1fd0a4f28419497f9722a3daafe3b4186f6b6457e0ddf252ad1be2c89b69c2b068fc378daa952ba7f163c4a11628f55a4df523b3ef8d1108e10bcb7c27dddfc02ed9d693a074039d026cf4ea4240b40f7d581ac802a164736f6c6343000813000a",
  "linkReferences": {},
  "deployedLinkReferences": {}
}