{
  "_format": "hh-sol-artifact-1",
  "contractName": "HemShop",
  "sourceName": "contracts/HemShop.sol",
  "abi": [
    {
      "inputs": [
        {
          "internalType": "uint256",
          "name": "_pct",
          "type": "uint256"
        }
      ],
      "stateMutability": "nonpayable",
      "type": "constructor"
    },
    {
      "anonymous": false,
      "inputs": [
        {
          "indexed": false,
          "internalType": "address",
          "name": "admin",
          "type": "address"
        },
        {
          "indexed": false,
          "internalType": "address",
          "name": "impersonatedAccount",
          "type": "address"
        }
      ],
      "name": "AdminImpersonationChanged",
      "type": "event"
    },
    {
      "anonymous": false,
      "inputs": [
        {
          "indexed": true,
          "internalType": "address",
          "name": "owner",
          "type": "address"
        },
        {
          "indexed": true,
          "internalType": "address",
          "name": "approved",
          "type": "address"
        },
        {
          "indexed": true,
          "internalType": "uint256",
          "name": "tokenId",
          "type": "uint256"
        }
      ],
      "name": "Approval",
      "type": "event"
    },
    {
      "anonymous": false,
      "inputs": [
        {
          "indexed": true,
          "internalType": "address",
          "name": "owner",
          "type": "address"
        },
        {
          "indexed": true,
          "internalType": "address",
          "name": "operator",
          "type": "address"
        },
        {
          "indexed": false,
          "internalType": "bool",
          "name": "approved",
          "type": "bool"
        }
      ],
      "name": "ApprovalForAll",
      "type": "event"
    },
    {
      "anonymous": false,
      "inputs": [
        {
          "indexed": true,
          "internalType": "address",
          "name": "seller",
          "type": "address"
        },
        {
          "indexed": false,
          "internalType": "uint256",
          "name": "newBalance",
          "type": "uint256"
        }
      ],
      "name": "BalanceUpdated",
      "type": "event"
    },
    {
      "anonymous": false,
      "inputs": [
        {
          "indexed": true,
          "internalType": "uint256",
          "name": "id",
          "type": "uint256"
        },
        {
          "indexed": false,
          "internalType": "string",
          "name": "name",
          "type": "string"
        }
      ],
      "name": "CategoryCreated",
      "type": "event"
    },
    {
      "anonymous": false,
      "inputs": [
        {
          "indexed": true,
          "internalType": "uint256",
          "name": "id",
          "type": "uint256"
        },
        {
          "indexed": false,
          "internalType": "string",
          "name": "name",
          "type": "string"
        },
        {
          "indexed": false,
          "internalType": "bool",
          "name": "isActive",
          "type": "bool"
        }
      ],
      "name": "CategoryUpdated",
      "type": "event"
    },
    {
      "anonymous": false,
      "inputs": [
        {
          "indexed": true,
          "internalType": "uint256",
          "name": "productId",
          "type": "uint256"
        },
        {
          "indexed": true,
          "internalType": "address",
          "name": "buyer",
          "type": "address"
        },
        {
          "indexed": false,
          "internalType": "bool",
          "name": "isDelivered",
          "type": "bool"
        }
      ],
      "name": "DeliveryStatusUpdated",
      "type": "event"
    },
    {
      "anonymous": false,
      "inputs": [
        {
          "indexed": true,
          "internalType": "address",
          "name": "previousOwner",
          "type": "address"
        },
        {
          "indexed": true,
          "internalType": "address",
          "name": "newOwner",
          "type": "address"
        }
      ],
      "name": "OwnershipTransferred",
      "type": "event"
    },
    {
      "anonymous": false,
      "inputs": [
        {
          "indexed": true,
          "internalType": "uint256",
          "name": "productId",
          "type": "uint256"
        },
        {
          "indexed": true,
          "internalType": "address",
          "name": "buyer",
          "type": "address"
        },
        {
          "indexed": true,
          "internalType": "address",
          "name": "seller",
          "type": "address"
        },
        {
          "indexed": false,
          "internalType": "uint256",
          "name": "price",
          "type": "uint256"
        },
        {
          "indexed": false,
          "internalType": "uint256",
          "name": "timestamp",
          "type": "uint256"
        }
      ],
      "name": "ProductPurchased",
      "type": "event"
    },
    {
      "anonymous": false,
      "inputs": [
        {
          "indexed": true,
          "internalType": "uint256",
          "name": "productId",
          "type": "uint256"
        },
        {
          "indexed": true,
          "internalType": "address",
          "name": "buyer",
          "type": "address"
        },
        {
          "indexed": true,
          "internalType": "address",
          "name": "seller",
          "type": "address"
        },
        {
          "indexed": false,
          "internalType": "uint256",
          "name": "totalAmount",
          "type": "uint256"
        },
        {
          "indexed": false,
          "internalType": "uint256",
          "name": "basePrice",
          "type": "uint256"
        },
        {
          "indexed": false,
          "internalType": "uint256",
          "name": "timestamp",
          "type": "uint256"
        }
      ],
      "name": "PurchaseRecorded",
      "type": "event"
    },
    {
      "anonymous": false,
      "inputs": [
        {
          "indexed": true,
          "internalType": "address",
          "name": "seller",
          "type": "address"
        }
      ],
      "name": "SellerAccessGranted",
      "type": "event"
    },
    {
      "anonymous": false,
      "inputs": [
        {
          "indexed": true,
          "internalType": "address",
          "name": "seller",
          "type": "address"
        },
        {
          "indexed": false,
          "internalType": "uint256",
          "name": "timestamp",
          "type": "uint256"
        }
      ],
      "name": "SellerRegistered",
      "type": "event"
    },
    {
      "anonymous": false,
      "inputs": [
        {
          "indexed": true,
          "internalType": "address",
          "name": "seller",
          "type": "address"
        },
        {
          "indexed": false,
          "internalType": "enum HemShop.SellerStatus",
          "name": "status",
          "type": "uint8"
        }
      ],
      "name": "SellerStatusUpdated",
      "type": "event"
    },
    {
      "anonymous": false,
      "inputs": [
        {
          "indexed": true,
          "internalType": "uint256",
          "name": "id",
          "type": "uint256"
        },
        {
          "indexed": true,
          "internalType": "uint256",
          "name": "parentId",
          "type": "uint256"
        },
        {
          "indexed": false,
          "internalType": "string",
          "name": "name",
          "type": "string"
        }
      ],
      "name": "SubCategoryCreated",
      "type": "event"
    },
    {
      "anonymous": false,
      "inputs": [
        {
          "indexed": true,
          "internalType": "uint256",
          "name": "id",
          "type": "uint256"
        },
        {
          "indexed": false,
          "internalType": "string",
          "name": "name",
          "type": "string"
        },
        {
          "indexed": false,
          "internalType": "bool",
          "name": "isActive",
          "type": "bool"
        }
      ],
      "name": "SubCategoryUpdated",
      "type": "event"
    },
    {
      "anonymous": false,
      "inputs": [
        {
          "indexed": true,
          "internalType": "address",
          "name": "from",
          "type": "address"
        },
        {
          "indexed": true,
          "internalType": "address",
          "name": "to",
          "type": "address"
        },
        {
          "indexed": true,
          "internalType": "uint256",
          "name": "tokenId",
          "type": "uint256"
        }
      ],
      "name": "Transfer",
      "type": "event"
    },
    {
      "anonymous": false,
      "inputs": [
        {
          "indexed": true,
          "internalType": "address",
          "name": "user",
          "type": "address"
        },
        {
          "indexed": false,
          "internalType": "string",
          "name": "name",
          "type": "string"
        }
      ],
      "name": "UserRegistered",
      "type": "event"
    },
    {
      "inputs": [
        {
          "internalType": "address",
          "name": "",
          "type": "address"
        }
      ],
      "name": "adminImpersonating",
      "outputs": [
        {
          "internalType": "address",
          "name": "",
          "type": "address"
        }
      ],
      "stateMutability": "view",
      "type": "function"
    },
    {
      "inputs": [
        {
          "internalType": "address",
          "name": "to",
          "type": "address"
        },
        {
          "internalType": "uint256",
          "name": "tokenId",
          "type": "uint256"
        }
      ],
      "name": "approve",
      "outputs": [],
      "stateMutability": "nonpayable",
      "type": "function"
    },
    {
      "inputs": [
        {
          "internalType": "address",
          "name": "owner",
          "type": "address"
        }
      ],
      "name": "balanceOf",
      "outputs": [
        {
          "internalType": "uint256",
          "name": "",
          "type": "uint256"
        }
      ],
      "stateMutability": "view",
      "type": "function"
    },
    {
      "inputs": [
        {
          "internalType": "uint256",
          "name": "productId",
          "type": "uint256"
        },
        {
          "components": [
            {
              "internalType": "string",
              "name": "fullName",
              "type": "string"
            },
            {
              "internalType": "string",
              "name": "streetAddress",
              "type": "string"
            },
            {
              "internalType": "string",
              "name": "city",
              "type": "string"
            },
            {
              "internalType": "string",
              "name": "state",
              "type": "string"
            },
            {
              "internalType": "string",
              "name": "country",
              "type": "string"
            },
            {
              "internalType": "string",
              "name": "postalCode",
              "type": "string"
            },
            {
              "internalType": "string",
              "name": "phone",
              "type": "string"
            },
            {
              "internalType": "string",
              "name": "email",
              "type": "string"
            }
          ],
          "internalType": "struct HemShop.ShippingDetails",
          "name": "shippingDetails",
          "type": "tuple"
        }
      ],
      "name": "buyProduct",
      "outputs": [],
      "stateMutability": "payable",
      "type": "function"
    },
    {
      "inputs": [
        {
          "internalType": "address",
          "name": "",
          "type": "address"
        },
        {
          "internalType": "uint256",
          "name": "",
          "type": "uint256"
        }
      ],
      "name": "buyerPurchaseHistory",
      "outputs": [
        {
          "internalType": "uint256",
          "name": "productId",
          "type": "uint256"
        },
        {
          "internalType": "uint256",
          "name": "totalAmount",
          "type": "uint256"
        },
        {
          "internalType": "uint256",
          "name": "basePrice",
          "type": "uint256"
        },
        {
          "internalType": "uint256",
          "name": "timestamp",
          "type": "uint256"
        },
        {
          "internalType": "address",
          "name": "buyer",
          "type": "address"
        },
        {
          "internalType": "address",
          "name": "seller",
          "type": "address"
        },
        {
          "internalType": "bool",
          "name": "isDelivered",
          "type": "bool"
        },
        {
          "components": [
            {
              "internalType": "string",
              "name": "fullName",
              "type": "string"
            },
            {
              "internalType": "string",
              "name": "streetAddress",
              "type": "string"
            },
            {
              "internalType": "string",
              "name": "city",
              "type": "string"
            },
            {
              "internalType": "string",
              "name": "state",
              "type": "string"
            },
            {
              "internalType": "string",
              "name": "country",
              "type": "string"
            },
            {
              "internalType": "string",
              "name": "postalCode",
              "type": "string"
            },
            {
              "internalType": "string",
              "name": "phone",
              "type": "string"
            },
            {
              "internalType": "string",
              "name": "email",
              "type": "string"
            }
          ],
          "internalType": "struct HemShop.ShippingDetails",
          "name": "shippingDetails",
          "type": "tuple"
        }
      ],
      "stateMutability": "view",
      "type": "function"
    },
    {
      "inputs": [
        {
          "internalType": "uint256",
          "name": "newPct",
          "type": "uint256"
        }
      ],
      "name": "changeServicePct",
      "outputs": [],
      "stateMutability": "nonpayable",
      "type": "function"
    },
    {
      "inputs": [
        {
          "internalType": "string",
          "name": "_name",
          "type": "string"
        }
      ],
      "name": "createCategory",
      "outputs": [],
      "stateMutability": "nonpayable",
      "type": "function"
    },
    {
      "inputs": [
        {
          "components": [
            {
              "internalType": "string",
              "name": "name",
              "type": "string"
            },
            {
              "internalType": "string",
              "name": "description",
              "type": "string"
            },
            {
              "internalType": "uint256",
              "name": "price",
              "type": "uint256"
            },
            {
              "internalType": "uint256",
              "name": "stock",
              "type": "uint256"
            },
            {
              "internalType": "string[]",
              "name": "colors",
              "type": "string[]"
            },
            {
              "internalType": "string[]",
              "name": "sizes",
              "type": "string[]"
            },
            {
              "internalType": "string[]",
              "name": "images",
              "type": "string[]"
            },
            {
              "internalType": "uint256",
              "name": "categoryId",
              "type": "uint256"
            },
            {
              "internalType": "uint256",
              "name": "subCategoryId",
              "type": "uint256"
            },
            {
              "internalType": "uint256",
              "name": "weight",
              "type": "uint256"
            },
            {
              "internalType": "string",
              "name": "model",
              "type": "string"
            },
            {
              "internalType": "string",
              "name": "brand",
              "type": "string"
            },
            {
              "internalType": "uint256",
              "name": "sku",
              "type": "uint256"
            }
          ],
          "internalType": "struct HemShop.ProductInput",
          "name": "input",
          "type": "tuple"
        }
      ],
      "name": "createProduct",
      "outputs": [],
      "stateMutability": "nonpayable",
      "type": "function"
    },
    {
      "inputs": [
        {
          "internalType": "uint256",
          "name": "productId",
          "type": "uint256"
        },
        {
          "internalType": "uint256",
          "name": "rating",
          "type": "uint256"
        },
        {
          "internalType": "string",
          "name": "comment",
          "type": "string"
        }
      ],
      "name": "createReview",
      "outputs": [],
      "stateMutability": "nonpayable",
      "type": "function"
    },
    {
      "inputs": [
        {
          "internalType": "uint256",
          "name": "parentId",
          "type": "uint256"
        },
        {
          "internalType": "string[]",
          "name": "names",
          "type": "string[]"
        }
      ],
      "name": "createSubCategoriesBulk",
      "outputs": [],
      "stateMutability": "nonpayable",
      "type": "function"
    },
    {
      "inputs": [
        {
          "internalType": "uint256",
          "name": "_parentId",
          "type": "uint256"
        },
        {
          "internalType": "string",
          "name": "_name",
          "type": "string"
        }
      ],
      "name": "createSubCategory",
      "outputs": [],
      "stateMutability": "nonpayable",
      "type": "function"
    },
    {
      "inputs": [
        {
          "internalType": "uint256",
          "name": "_id",
          "type": "uint256"
        }
      ],
      "name": "deleteCategory",
      "outputs": [],
      "stateMutability": "nonpayable",
      "type": "function"
    },
    {
      "inputs": [
        {
          "internalType": "uint256",
          "name": "productId",
          "type": "uint256"
        }
      ],
      "name": "deleteProduct",
      "outputs": [],
      "stateMutability": "nonpayable",
      "type": "function"
    },
    {
      "inputs": [
        {
          "internalType": "uint256",
          "name": "productId",
          "type": "uint256"
        },
        {
          "internalType": "uint256",
          "name": "reviewId",
          "type": "uint256"
        }
      ],
      "name": "deleteReview",
      "outputs": [],
      "stateMutability": "nonpayable",
      "type": "function"
    },
    {
      "inputs": [
        {
          "internalType": "uint256",
          "name": "_id",
          "type": "uint256"
        }
      ],
      "name": "deleteSubCategory",
      "outputs": [],
      "stateMutability": "nonpayable",
      "type": "function"
    },
    {
      "inputs": [],
      "name": "getAllCategories",
      "outputs": [
        {
          "internalType": "uint256[]",
          "name": "ids",
          "type": "uint256[]"
        },
        {
          "internalType": "string[]",
          "name": "names",
          "type": "string[]"
        },
        {
          "internalType": "bool[]",
          "name": "activeStates",
          "type": "bool[]"
        },
        {
          "internalType": "uint256[][]",
          "name": "subCategoryIdArrays",
          "type": "uint256[][]"
        }
      ],
      "stateMutability": "view",
      "type": "function"
    },
    {
      "inputs": [],
      "name": "getAllProducts",
      "outputs": [
        {
          "components": [
            {
              "internalType": "uint256",
              "name": "id",
              "type": "uint256"
            },
            {
              "internalType": "address",
              "name": "seller",
              "type": "address"
            },
            {
              "internalType": "string",
              "name": "name",
              "type": "string"
            },
            {
              "internalType": "string",
              "name": "description",
              "type": "string"
            },
            {
              "internalType": "uint256",
              "name": "price",
              "type": "uint256"
            },
            {
              "internalType": "uint256",
              "name": "stock",
              "type": "uint256"
            },
            {
              "internalType": "string[]",
              "name": "colors",
              "type": "string[]"
            },
            {
              "internalType": "string[]",
              "name": "sizes",
              "type": "string[]"
            },
            {
              "internalType": "string[]",
              "name": "images",
              "type": "string[]"
            },
            {
              "internalType": "string",
              "name": "category",
              "type": "string"
            },
            {
              "internalType": "string",
              "name": "subCategory",
              "type": "string"
            },
            {
              "internalType": "uint256",
              "name": "weight",
              "type": "uint256"
            },
            {
              "internalType": "string",
              "name": "model",
              "type": "string"
            },
            {
              "internalType": "string",
              "name": "brand",
              "type": "string"
            },
            {
              "internalType": "uint256",
              "name": "sku",
              "type": "uint256"
            },
            {
              "internalType": "bool",
              "name": "soldout",
              "type": "bool"
            },
            {
              "internalType": "bool",
              "name": "wishlist",
              "type": "bool"
            },
            {
              "internalType": "bool",
              "name": "deleted",
              "type": "bool"
            },
            {
              "components": [
                {
                  "internalType": "uint256",
                  "name": "reviewId",
                  "type": "uint256"
                },
                {
                  "internalType": "address",
                  "name": "reviewer",
                  "type": "address"
                },
                {
                  "internalType": "uint256",
                  "name": "rating",
                  "type": "uint256"
                },
                {
                  "internalType": "string",
                  "name": "comment",
                  "type": "string"
                },
                {
                  "internalType": "bool",
                  "name": "deleted",
                  "type": "bool"
                },
                {
                  "internalType": "uint256",
                  "name": "timestamp",
                  "type": "uint256"
                }
              ],
              "internalType": "struct HemShop.ReviewStruct[]",
              "name": "reviews",
              "type": "tuple[]"
            }
          ],
          "internalType": "struct HemShop.ProductStruct[]",
          "name": "",
          "type": "tuple[]"
        }
      ],
      "stateMutability": "view",
      "type": "function"
    },
    {
      "inputs": [],
      "name": "getAllRegisteredSellers",
      "outputs": [
        {
          "internalType": "address[]",
          "name": "",
          "type": "address[]"
        }
      ],
      "stateMutability": "view",
      "type": "function"
    },
    {
      "inputs": [
        {
          "internalType": "uint256",
          "name": "tokenId",
          "type": "uint256"
        }
      ],
      "name": "getApproved",
      "outputs": [
        {
          "internalType": "address",
          "name": "",
          "type": "address"
        }
      ],
      "stateMutability": "view",
      "type": "function"
    },
    {
      "inputs": [
        {
          "internalType": "address",
          "name": "buyer",
          "type": "address"
        }
      ],
      "name": "getBuyerPurchaseHistory",
      "outputs": [
        {
          "components": [
            {
              "internalType": "uint256",
              "name": "productId",
              "type": "uint256"
            },
            {
              "internalType": "uint256",
              "name": "totalAmount",
              "type": "uint256"
            },
            {
              "internalType": "uint256",
              "name": "basePrice",
              "type": "uint256"
            },
            {
              "internalType": "uint256",
              "name": "timestamp",
              "type": "uint256"
            },
            {
              "internalType": "address",
              "name": "buyer",
              "type": "address"
            },
            {
              "internalType": "address",
              "name": "seller",
              "type": "address"
            },
            {
              "internalType": "bool",
              "name": "isDelivered",
              "type": "bool"
            },
            {
              "components": [
                {
                  "internalType": "string",
                  "name": "fullName",
                  "type": "string"
                },
                {
                  "internalType": "string",
                  "name": "streetAddress",
                  "type": "string"
                },
                {
                  "internalType": "string",
                  "name": "city",
                  "type": "string"
                },
                {
                  "internalType": "string",
                  "name": "state",
                  "type": "string"
                },
                {
                  "internalType": "string",
                  "name": "country",
                  "type": "string"
                },
                {
                  "internalType": "string",
                  "name": "postalCode",
                  "type": "string"
                },
                {
                  "internalType": "string",
                  "name": "phone",
                  "type": "string"
                },
                {
                  "internalType": "string",
                  "name": "email",
                  "type": "string"
                }
              ],
              "internalType": "struct HemShop.ShippingDetails",
              "name": "shippingDetails",
              "type": "tuple"
            }
          ],
          "internalType": "struct HemShop.PurchaseHistoryStruct[]",
          "name": "",
          "type": "tuple[]"
        }
      ],
      "stateMutability": "view",
      "type": "function"
    },
    {
      "inputs": [
        {
          "internalType": "uint256",
          "name": "_id",
          "type": "uint256"
        }
      ],
      "name": "getCategory",
      "outputs": [
        {
          "internalType": "uint256",
          "name": "id",
          "type": "uint256"
        },
        {
          "internalType": "string",
          "name": "name",
          "type": "string"
        },
        {
          "internalType": "bool",
          "name": "isActive",
          "type": "bool"
        },
        {
          "internalType": "uint256[]",
          "name": "subCategoryIds",
          "type": "uint256[]"
        }
      ],
      "stateMutability": "view",
      "type": "function"
    },
    {
      "inputs": [],
      "name": "getMyProducts",
      "outputs": [
        {
          "components": [
            {
              "internalType": "uint256",
              "name": "id",
              "type": "uint256"
            },
            {
              "internalType": "address",
              "name": "seller",
              "type": "address"
            },
            {
              "internalType": "string",
              "name": "name",
              "type": "string"
            },
            {
              "internalType": "string",
              "name": "description",
              "type": "string"
            },
            {
              "internalType": "uint256",
              "name": "price",
              "type": "uint256"
            },
            {
              "internalType": "uint256",
              "name": "stock",
              "type": "uint256"
            },
            {
              "internalType": "string[]",
              "name": "colors",
              "type": "string[]"
            },
            {
              "internalType": "string[]",
              "name": "sizes",
              "type": "string[]"
            },
            {
              "internalType": "string[]",
              "name": "images",
              "type": "string[]"
            },
            {
              "internalType": "string",
              "name": "category",
              "type": "string"
            },
            {
              "internalType": "string",
              "name": "subCategory",
              "type": "string"
            },
            {
              "internalType": "uint256",
              "name": "weight",
              "type": "uint256"
            },
            {
              "internalType": "string",
              "name": "model",
              "type": "string"
            },
            {
              "internalType": "string",
              "name": "brand",
              "type": "string"
            },
            {
              "internalType": "uint256",
              "name": "sku",
              "type": "uint256"
            },
            {
              "internalType": "bool",
              "name": "soldout",
              "type": "bool"
            },
            {
              "internalType": "bool",
              "name": "wishlist",
              "type": "bool"
            },
            {
              "internalType": "bool",
              "name": "deleted",
              "type": "bool"
            },
            {
              "components": [
                {
                  "internalType": "uint256",
                  "name": "reviewId",
                  "type": "uint256"
                },
                {
                  "internalType": "address",
                  "name": "reviewer",
                  "type": "address"
                },
                {
                  "internalType": "uint256",
                  "name": "rating",
                  "type": "uint256"
                },
                {
                  "internalType": "string",
                  "name": "comment",
                  "type": "string"
                },
                {
                  "internalType": "bool",
                  "name": "deleted",
                  "type": "bool"
                },
                {
                  "internalType": "uint256",
                  "name": "timestamp",
                  "type": "uint256"
                }
              ],
              "internalType": "struct HemShop.ReviewStruct[]",
              "name": "reviews",
              "type": "tuple[]"
            }
          ],
          "internalType": "struct HemShop.ProductStruct[]",
          "name": "",
          "type": "tuple[]"
        }
      ],
      "stateMutability": "view",
      "type": "function"
    },
    {
      "inputs": [],
      "name": "getPendingVerificationUsers",
      "outputs": [
        {
          "internalType": "address[]",
          "name": "",
          "type": "address[]"
        }
      ],
      "stateMutability": "view",
      "type": "function"
    },
    {
      "inputs": [
        {
          "internalType": "uint256",
          "name": "productId",
          "type": "uint256"
        }
      ],
      "name": "getProduct",
      "outputs": [
        {
          "components": [
            {
              "internalType": "uint256",
              "name": "id",
              "type": "uint256"
            },
            {
              "internalType": "address",
              "name": "seller",
              "type": "address"
            },
            {
              "internalType": "string",
              "name": "name",
              "type": "string"
            },
            {
              "internalType": "string",
              "name": "description",
              "type": "string"
            },
            {
              "internalType": "uint256",
              "name": "price",
              "type": "uint256"
            },
            {
              "internalType": "uint256",
              "name": "stock",
              "type": "uint256"
            },
            {
              "internalType": "string[]",
              "name": "colors",
              "type": "string[]"
            },
            {
              "internalType": "string[]",
              "name": "sizes",
              "type": "string[]"
            },
            {
              "internalType": "string[]",
              "name": "images",
              "type": "string[]"
            },
            {
              "internalType": "string",
              "name": "category",
              "type": "string"
            },
            {
              "internalType": "string",
              "name": "subCategory",
              "type": "string"
            },
            {
              "internalType": "uint256",
              "name": "weight",
              "type": "uint256"
            },
            {
              "internalType": "string",
              "name": "model",
              "type": "string"
            },
            {
              "internalType": "string",
              "name": "brand",
              "type": "string"
            },
            {
              "internalType": "uint256",
              "name": "sku",
              "type": "uint256"
            },
            {
              "internalType": "bool",
              "name": "soldout",
              "type": "bool"
            },
            {
              "internalType": "bool",
              "name": "wishlist",
              "type": "bool"
            },
            {
              "internalType": "bool",
              "name": "deleted",
              "type": "bool"
            },
            {
              "components": [
                {
                  "internalType": "uint256",
                  "name": "reviewId",
                  "type": "uint256"
                },
                {
                  "internalType": "address",
                  "name": "reviewer",
                  "type": "address"
                },
                {
                  "internalType": "uint256",
                  "name": "rating",
                  "type": "uint256"
                },
                {
                  "internalType": "string",
                  "name": "comment",
                  "type": "string"
                },
                {
                  "internalType": "bool",
                  "name": "deleted",
                  "type": "bool"
                },
                {
                  "internalType": "uint256",
                  "name": "timestamp",
                  "type": "uint256"
                }
              ],
              "internalType": "struct HemShop.ReviewStruct[]",
              "name": "reviews",
              "type": "tuple[]"
            }
          ],
          "internalType": "struct HemShop.ProductStruct",
          "name": "",
          "type": "tuple"
        }
      ],
      "stateMutability": "view",
      "type": "function"
    },
    {
      "inputs": [
        {
          "internalType": "string",
          "name": "categoryName",
          "type": "string"
        }
      ],
      "name": "getProductsByCategory",
      "outputs": [
        {
          "components": [
            {
              "internalType": "uint256",
              "name": "id",
              "type": "uint256"
            },
            {
              "internalType": "address",
              "name": "seller",
              "type": "address"
            },
            {
              "internalType": "string",
              "name": "name",
              "type": "string"
            },
            {
              "internalType": "string",
              "name": "description",
              "type": "string"
            },
            {
              "internalType": "uint256",
              "name": "price",
              "type": "uint256"
            },
            {
              "internalType": "uint256",
              "name": "stock",
              "type": "uint256"
            },
            {
              "internalType": "string[]",
              "name": "colors",
              "type": "string[]"
            },
            {
              "internalType": "string[]",
              "name": "sizes",
              "type": "string[]"
            },
            {
              "internalType": "string[]",
              "name": "images",
              "type": "string[]"
            },
            {
              "internalType": "string",
              "name": "category",
              "type": "string"
            },
            {
              "internalType": "string",
              "name": "subCategory",
              "type": "string"
            },
            {
              "internalType": "uint256",
              "name": "weight",
              "type": "uint256"
            },
            {
              "internalType": "string",
              "name": "model",
              "type": "string"
            },
            {
              "internalType": "string",
              "name": "brand",
              "type": "string"
            },
            {
              "internalType": "uint256",
              "name": "sku",
              "type": "uint256"
            },
            {
              "internalType": "bool",
              "name": "soldout",
              "type": "bool"
            },
            {
              "internalType": "bool",
              "name": "wishlist",
              "type": "bool"
            },
            {
              "internalType": "bool",
              "name": "deleted",
              "type": "bool"
            },
            {
              "components": [
                {
                  "internalType": "uint256",
                  "name": "reviewId",
                  "type": "uint256"
                },
                {
                  "internalType": "address",
                  "name": "reviewer",
                  "type": "address"
                },
                {
                  "internalType": "uint256",
                  "name": "rating",
                  "type": "uint256"
                },
                {
                  "internalType": "string",
                  "name": "comment",
                  "type": "string"
                },
                {
                  "internalType": "bool",
                  "name": "deleted",
                  "type": "bool"
                },
                {
                  "internalType": "uint256",
                  "name": "timestamp",
                  "type": "uint256"
                }
              ],
              "internalType": "struct HemShop.ReviewStruct[]",
              "name": "reviews",
              "type": "tuple[]"
            }
          ],
          "internalType": "struct HemShop.ProductStruct[]",
          "name": "",
          "type": "tuple[]"
        }
      ],
      "stateMutability": "view",
      "type": "function"
    },
    {
      "inputs": [
        {
          "internalType": "uint256",
          "name": "productId",
          "type": "uint256"
        }
      ],
      "name": "getReviews",
      "outputs": [
        {
          "components": [
            {
              "internalType": "uint256",
              "name": "reviewId",
              "type": "uint256"
            },
            {
              "internalType": "address",
              "name": "reviewer",
              "type": "address"
            },
            {
              "internalType": "uint256",
              "name": "rating",
              "type": "uint256"
            },
            {
              "internalType": "string",
              "name": "comment",
              "type": "string"
            },
            {
              "internalType": "bool",
              "name": "deleted",
              "type": "bool"
            },
            {
              "internalType": "uint256",
              "name": "timestamp",
              "type": "uint256"
            }
          ],
          "internalType": "struct HemShop.ReviewStruct[]",
          "name": "",
          "type": "tuple[]"
        }
      ],
      "stateMutability": "view",
      "type": "function"
    },
    {
      "inputs": [
        {
          "internalType": "address",
          "name": "seller",
          "type": "address"
        }
      ],
      "name": "getSeller",
      "outputs": [
        {
          "components": [
            {
              "internalType": "string",
              "name": "businessName",
              "type": "string"
            },
            {
              "internalType": "string",
              "name": "description",
              "type": "string"
            },
            {
              "internalType": "string",
              "name": "email",
              "type": "string"
            },
            {
              "internalType": "string",
              "name": "phone",
              "type": "string"
            },
            {
              "internalType": "string",
              "name": "logo",
              "type": "string"
            },
            {
              "internalType": "uint256",
              "name": "registeredAt",
              "type": "uint256"
            },
            {
              "internalType": "bool",
              "name": "termsAccepted",
              "type": "bool"
            }
          ],
          "internalType": "struct HemShop.SellerProfile",
          "name": "profile",
          "type": "tuple"
        },
        {
          "internalType": "enum HemShop.SellerStatus",
          "name": "status",
          "type": "uint8"
        },
        {
          "internalType": "uint256",
          "name": "balance",
          "type": "uint256"
        },
        {
          "internalType": "uint256[]",
          "name": "productIds",
          "type": "uint256[]"
        }
      ],
      "stateMutability": "view",
      "type": "function"
    },
    {
      "inputs": [
        {
          "internalType": "address",
          "name": "seller",
          "type": "address"
        }
      ],
      "name": "getSellerBalance",
      "outputs": [
        {
          "internalType": "uint256",
          "name": "",
          "type": "uint256"
        }
      ],
      "stateMutability": "view",
      "type": "function"
    },
    {
      "inputs": [
        {
          "internalType": "address",
          "name": "seller",
          "type": "address"
        }
      ],
      "name": "getSellerProducts",
      "outputs": [
        {
          "components": [
            {
              "internalType": "uint256",
              "name": "id",
              "type": "uint256"
            },
            {
              "internalType": "address",
              "name": "seller",
              "type": "address"
            },
            {
              "internalType": "string",
              "name": "name",
              "type": "string"
            },
            {
              "internalType": "string",
              "name": "description",
              "type": "string"
            },
            {
              "internalType": "uint256",
              "name": "price",
              "type": "uint256"
            },
            {
              "internalType": "uint256",
              "name": "stock",
              "type": "uint256"
            },
            {
              "internalType": "string[]",
              "name": "colors",
              "type": "string[]"
            },
            {
              "internalType": "string[]",
              "name": "sizes",
              "type": "string[]"
            },
            {
              "internalType": "string[]",
              "name": "images",
              "type": "string[]"
            },
            {
              "internalType": "string",
              "name": "category",
              "type": "string"
            },
            {
              "internalType": "string",
              "name": "subCategory",
              "type": "string"
            },
            {
              "internalType": "uint256",
              "name": "weight",
              "type": "uint256"
            },
            {
              "internalType": "string",
              "name": "model",
              "type": "string"
            },
            {
              "internalType": "string",
              "name": "brand",
              "type": "string"
            },
            {
              "internalType": "uint256",
              "name": "sku",
              "type": "uint256"
            },
            {
              "internalType": "bool",
              "name": "soldout",
              "type": "bool"
            },
            {
              "internalType": "bool",
              "name": "wishlist",
              "type": "bool"
            },
            {
              "internalType": "bool",
              "name": "deleted",
              "type": "bool"
            },
            {
              "components": [
                {
                  "internalType": "uint256",
                  "name": "reviewId",
                  "type": "uint256"
                },
                {
                  "internalType": "address",
                  "name": "reviewer",
                  "type": "address"
                },
                {
                  "internalType": "uint256",
                  "name": "rating",
                  "type": "uint256"
                },
                {
                  "internalType": "string",
                  "name": "comment",
                  "type": "string"
                },
                {
                  "internalType": "bool",
                  "name": "deleted",
                  "type": "bool"
                },
                {
                  "internalType": "uint256",
                  "name": "timestamp",
                  "type": "uint256"
                }
              ],
              "internalType": "struct HemShop.ReviewStruct[]",
              "name": "reviews",
              "type": "tuple[]"
            }
          ],
          "internalType": "struct HemShop.ProductStruct[]",
          "name": "",
          "type": "tuple[]"
        }
      ],
      "stateMutability": "view",
      "type": "function"
    },
    {
      "inputs": [
        {
          "internalType": "address",
          "name": "seller",
          "type": "address"
        }
      ],
      "name": "getSellerProfile",
      "outputs": [
        {
          "components": [
            {
              "internalType": "string",
              "name": "businessName",
              "type": "string"
            },
            {
              "internalType": "string",
              "name": "description",
              "type": "string"
            },
            {
              "internalType": "string",
              "name": "email",
              "type": "string"
            },
            {
              "internalType": "string",
              "name": "phone",
              "type": "string"
            },
            {
              "internalType": "string",
              "name": "logo",
              "type": "string"
            },
            {
              "internalType": "uint256",
              "name": "registeredAt",
              "type": "uint256"
            },
            {
              "internalType": "bool",
              "name": "termsAccepted",
              "type": "bool"
            }
          ],
          "internalType": "struct HemShop.SellerProfile",
          "name": "",
          "type": "tuple"
        }
      ],
      "stateMutability": "view",
      "type": "function"
    },
    {
      "inputs": [
        {
          "internalType": "address",
          "name": "seller",
          "type": "address"
        }
      ],
      "name": "getSellerPurchaseHistory",
      "outputs": [
        {
          "components": [
            {
              "internalType": "uint256",
              "name": "productId",
              "type": "uint256"
            },
            {
              "internalType": "uint256",
              "name": "totalAmount",
              "type": "uint256"
            },
            {
              "internalType": "uint256",
              "name": "basePrice",
              "type": "uint256"
            },
            {
              "internalType": "uint256",
              "name": "timestamp",
              "type": "uint256"
            },
            {
              "internalType": "address",
              "name": "buyer",
              "type": "address"
            },
            {
              "internalType": "address",
              "name": "seller",
              "type": "address"
            },
            {
              "internalType": "bool",
              "name": "isDelivered",
              "type": "bool"
            },
            {
              "components": [
                {
                  "internalType": "string",
                  "name": "fullName",
                  "type": "string"
                },
                {
                  "internalType": "string",
                  "name": "streetAddress",
                  "type": "string"
                },
                {
                  "internalType": "string",
                  "name": "city",
                  "type": "string"
                },
                {
                  "internalType": "string",
                  "name": "state",
                  "type": "string"
                },
                {
                  "internalType": "string",
                  "name": "country",
                  "type": "string"
                },
                {
                  "internalType": "string",
                  "name": "postalCode",
                  "type": "string"
                },
                {
                  "internalType": "string",
                  "name": "phone",
                  "type": "string"
                },
                {
                  "internalType": "string",
                  "name": "email",
                  "type": "string"
                }
              ],
              "internalType": "struct HemShop.ShippingDetails",
              "name": "shippingDetails",
              "type": "tuple"
            }
          ],
          "internalType": "struct HemShop.PurchaseHistoryStruct[]",
          "name": "",
          "type": "tuple[]"
        }
      ],
      "stateMutability": "view",
      "type": "function"
    },
    {
      "inputs": [
        {
          "internalType": "address",
          "name": "seller",
          "type": "address"
        }
      ],
      "name": "getSellerStatus",
      "outputs": [
        {
          "internalType": "enum HemShop.SellerStatus",
          "name": "",
          "type": "uint8"
        }
      ],
      "stateMutability": "view",
      "type": "function"
    },
    {
      "inputs": [
        {
          "internalType": "uint256",
          "name": "_id",
          "type": "uint256"
        }
      ],
      "name": "getSubCategory",
      "outputs": [
        {
          "internalType": "uint256",
          "name": "id",
          "type": "uint256"
        },
        {
          "internalType": "string",
          "name": "name",
          "type": "string"
        },
        {
          "internalType": "uint256",
          "name": "parentCategoryId",
          "type": "uint256"
        },
        {
          "internalType": "bool",
          "name": "isActive",
          "type": "bool"
        }
      ],
      "stateMutability": "view",
      "type": "function"
    },
    {
      "inputs": [
        {
          "internalType": "address",
          "name": "user",
          "type": "address"
        }
      ],
      "name": "getUser",
      "outputs": [
        {
          "internalType": "bool",
          "name": "isRegistered",
          "type": "bool"
        },
        {
          "components": [
            {
              "internalType": "string",
              "name": "name",
              "type": "string"
            },
            {
              "internalType": "string",
              "name": "email",
              "type": "string"
            },
            {
              "internalType": "string",
              "name": "avatar",
              "type": "string"
            },
            {
              "internalType": "uint256",
              "name": "registeredAt",
              "type": "uint256"
            },
            {
              "internalType": "bool",
              "name": "isActive",
              "type": "bool"
            }
          ],
          "internalType": "struct HemShop.UserProfile",
          "name": "profile",
          "type": "tuple"
        },
        {
          "internalType": "bool",
          "name": "isUserSeller",
          "type": "bool"
        },
        {
          "internalType": "enum HemShop.SellerStatus",
          "name": "sellerState",
          "type": "uint8"
        }
      ],
      "stateMutability": "view",
      "type": "function"
    },
    {
      "inputs": [],
      "name": "grantOwnerSellerAccess",
      "outputs": [],
      "stateMutability": "nonpayable",
      "type": "function"
    },
    {
      "inputs": [
        {
          "internalType": "address",
          "name": "account",
          "type": "address"
        }
      ],
      "name": "impersonateAccount",
      "outputs": [],
      "stateMutability": "nonpayable",
      "type": "function"
    },
    {
      "inputs": [
        {
          "internalType": "address",
          "name": "owner",
          "type": "address"
        },
        {
          "internalType": "address",
          "name": "operator",
          "type": "address"
        }
      ],
      "name": "isApprovedForAll",
      "outputs": [
        {
          "internalType": "bool",
          "name": "",
          "type": "bool"
        }
      ],
      "stateMutability": "view",
      "type": "function"
    },
    {
      "inputs": [
        {
          "internalType": "address",
          "name": "",
          "type": "address"
        }
      ],
      "name": "isSeller",
      "outputs": [
        {
          "internalType": "bool",
          "name": "",
          "type": "bool"
        }
      ],
      "stateMutability": "view",
      "type": "function"
    },
    {
      "inputs": [
        {
          "internalType": "uint256",
          "name": "productId",
          "type": "uint256"
        },
        {
          "internalType": "address",
          "name": "buyer",
          "type": "address"
        }
      ],
      "name": "markPurchaseDelivered",
      "outputs": [],
      "stateMutability": "nonpayable",
      "type": "function"
    },
    {
      "inputs": [],
      "name": "name",
      "outputs": [
        {
          "internalType": "string",
          "name": "",
          "type": "string"
        }
      ],
      "stateMutability": "view",
      "type": "function"
    },
    {
      "inputs": [],
      "name": "owner",
      "outputs": [
        {
          "internalType": "address",
          "name": "",
          "type": "address"
        }
      ],
      "stateMutability": "view",
      "type": "function"
    },
    {
      "inputs": [
        {
          "internalType": "uint256",
          "name": "tokenId",
          "type": "uint256"
        }
      ],
      "name": "ownerOf",
      "outputs": [
        {
          "internalType": "address",
          "name": "",
          "type": "address"
        }
      ],
      "stateMutability": "view",
      "type": "function"
    },
    {
      "inputs": [
        {
          "internalType": "uint256",
          "name": "",
          "type": "uint256"
        }
      ],
      "name": "productExists",
      "outputs": [
        {
          "internalType": "bool",
          "name": "",
          "type": "bool"
        }
      ],
      "stateMutability": "view",
      "type": "function"
    },
    {
      "inputs": [
        {
          "internalType": "uint256",
          "name": "",
          "type": "uint256"
        }
      ],
      "name": "products",
      "outputs": [
        {
          "internalType": "uint256",
          "name": "id",
          "type": "uint256"
        },
        {
          "internalType": "address",
          "name": "seller",
          "type": "address"
        },
        {
          "internalType": "string",
          "name": "name",
          "type": "string"
        },
        {
          "internalType": "string",
          "name": "description",
          "type": "string"
        },
        {
          "internalType": "uint256",
          "name": "price",
          "type": "uint256"
        },
        {
          "internalType": "uint256",
          "name": "stock",
          "type": "uint256"
        },
        {
          "internalType": "string",
          "name": "category",
          "type": "string"
        },
        {
          "internalType": "string",
          "name": "subCategory",
          "type": "string"
        },
        {
          "internalType": "uint256",
          "name": "weight",
          "type": "uint256"
        },
        {
          "internalType": "string",
          "name": "model",
          "type": "string"
        },
        {
          "internalType": "string",
          "name": "brand",
          "type": "string"
        },
        {
          "internalType": "uint256",
          "name": "sku",
          "type": "uint256"
        },
        {
          "internalType": "bool",
          "name": "soldout",
          "type": "bool"
        },
        {
          "internalType": "bool",
          "name": "wishlist",
          "type": "bool"
        },
        {
          "internalType": "bool",
          "name": "deleted",
          "type": "bool"
        }
      ],
      "stateMutability": "view",
      "type": "function"
    },
    {
      "inputs": [
        {
          "internalType": "string",
          "name": "businessName",
          "type": "string"
        },
        {
          "internalType": "string",
          "name": "description",
          "type": "string"
        },
        {
          "internalType": "string",
          "name": "email",
          "type": "string"
        },
        {
          "internalType": "string",
          "name": "phone",
          "type": "string"
        },
        {
          "internalType": "string",
          "name": "logo",
          "type": "string"
        }
      ],
      "name": "registerSeller",
      "outputs": [],
      "stateMutability": "nonpayable",
      "type": "function"
    },
    {
      "inputs": [
        {
          "internalType": "string",
          "name": "name",
          "type": "string"
        },
        {
          "internalType": "string",
          "name": "email",
          "type": "string"
        },
        {
          "internalType": "string",
          "name": "avatar",
          "type": "string"
        }
      ],
      "name": "registerUser",
      "outputs": [],
      "stateMutability": "nonpayable",
      "type": "function"
    },
    {
      "inputs": [
        {
          "internalType": "address",
          "name": "",
          "type": "address"
        }
      ],
      "name": "registeredSellers",
      "outputs": [
        {
          "internalType": "bool",
          "name": "",
          "type": "bool"
        }
      ],
      "stateMutability": "view",
      "type": "function"
    },
    {
      "inputs": [
        {
          "internalType": "address",
          "name": "",
          "type": "address"
        }
      ],
      "name": "registeredUsers",
      "outputs": [
        {
          "internalType": "bool",
          "name": "",
          "type": "bool"
        }
      ],
      "stateMutability": "view",
      "type": "function"
    },
    {
      "inputs": [],
      "name": "renounceOwnership",
      "outputs": [],
      "stateMutability": "nonpayable",
      "type": "function"
    },
    {
      "inputs": [
        {
          "internalType": "uint256",
          "name": "",
          "type": "uint256"
        }
      ],
      "name": "reviewExists",
      "outputs": [
        {
          "internalType": "bool",
          "name": "",
          "type": "bool"
        }
      ],
      "stateMutability": "view",
      "type": "function"
    },
    {
      "inputs": [
        {
          "internalType": "address",
          "name": "from",
          "type": "address"
        },
        {
          "internalType": "address",
          "name": "to",
          "type": "address"
        },
        {
          "internalType": "uint256",
          "name": "tokenId",
          "type": "uint256"
        }
      ],
      "name": "safeTransferFrom",
      "outputs": [],
      "stateMutability": "nonpayable",
      "type": "function"
    },
    {
      "inputs": [
        {
          "internalType": "address",
          "name": "from",
          "type": "address"
        },
        {
          "internalType": "address",
          "name": "to",
          "type": "address"
        },
        {
          "internalType": "uint256",
          "name": "tokenId",
          "type": "uint256"
        },
        {
          "internalType": "bytes",
          "name": "data",
          "type": "bytes"
        }
      ],
      "name": "safeTransferFrom",
      "outputs": [],
      "stateMutability": "nonpayable",
      "type": "function"
    },
    {
      "inputs": [
        {
          "internalType": "address",
          "name": "",
          "type": "address"
        }
      ],
      "name": "sellerBalances",
      "outputs": [
        {
          "internalType": "uint256",
          "name": "",
          "type": "uint256"
        }
      ],
      "stateMutability": "view",
      "type": "function"
    },
    {
      "inputs": [
        {
          "internalType": "address",
          "name": "",
          "type": "address"
        },
        {
          "internalType": "uint256",
          "name": "",
          "type": "uint256"
        }
      ],
      "name": "sellerProducts",
      "outputs": [
        {
          "internalType": "uint256",
          "name": "",
          "type": "uint256"
        }
      ],
      "stateMutability": "view",
      "type": "function"
    },
    {
      "inputs": [
        {
          "internalType": "address",
          "name": "",
          "type": "address"
        }
      ],
      "name": "sellerProfiles",
      "outputs": [
        {
          "internalType": "string",
          "name": "businessName",
          "type": "string"
        },
        {
          "internalType": "string",
          "name": "description",
          "type": "string"
        },
        {
          "internalType": "string",
          "name": "email",
          "type": "string"
        },
        {
          "internalType": "string",
          "name": "phone",
          "type": "string"
        },
        {
          "internalType": "string",
          "name": "logo",
          "type": "string"
        },
        {
          "internalType": "uint256",
          "name": "registeredAt",
          "type": "uint256"
        },
        {
          "internalType": "bool",
          "name": "termsAccepted",
          "type": "bool"
        }
      ],
      "stateMutability": "view",
      "type": "function"
    },
    {
      "inputs": [
        {
          "internalType": "address",
          "name": "",
          "type": "address"
        },
        {
          "internalType": "uint256",
          "name": "",
          "type": "uint256"
        }
      ],
      "name": "sellerPurchaseHistory",
      "outputs": [
        {
          "internalType": "uint256",
          "name": "productId",
          "type": "uint256"
        },
        {
          "internalType": "uint256",
          "name": "totalAmount",
          "type": "uint256"
        },
        {
          "internalType": "uint256",
          "name": "basePrice",
          "type": "uint256"
        },
        {
          "internalType": "uint256",
          "name": "timestamp",
          "type": "uint256"
        },
        {
          "internalType": "address",
          "name": "buyer",
          "type": "address"
        },
        {
          "internalType": "address",
          "name": "seller",
          "type": "address"
        },
        {
          "internalType": "bool",
          "name": "isDelivered",
          "type": "bool"
        },
        {
          "components": [
            {
              "internalType": "string",
              "name": "fullName",
              "type": "string"
            },
            {
              "internalType": "string",
              "name": "streetAddress",
              "type": "string"
            },
            {
              "internalType": "string",
              "name": "city",
              "type": "string"
            },
            {
              "internalType": "string",
              "name": "state",
              "type": "string"
            },
            {
              "internalType": "string",
              "name": "country",
              "type": "string"
            },
            {
              "internalType": "string",
              "name": "postalCode",
              "type": "string"
            },
            {
              "internalType": "string",
              "name": "phone",
              "type": "string"
            },
            {
              "internalType": "string",
              "name": "email",
              "type": "string"
            }
          ],
          "internalType": "struct HemShop.ShippingDetails",
          "name": "shippingDetails",
          "type": "tuple"
        }
      ],
      "stateMutability": "view",
      "type": "function"
    },
    {
      "inputs": [
        {
          "internalType": "address",
          "name": "",
          "type": "address"
        }
      ],
      "name": "sellerStatus",
      "outputs": [
        {
          "internalType": "enum HemShop.SellerStatus",
          "name": "",
          "type": "uint8"
        }
      ],
      "stateMutability": "view",
      "type": "function"
    },
    {
      "inputs": [],
      "name": "servicePct",
      "outputs": [
        {
          "internalType": "uint256",
          "name": "",
          "type": "uint256"
        }
      ],
      "stateMutability": "view",
      "type": "function"
    },
    {
      "inputs": [
        {
          "internalType": "address",
          "name": "operator",
          "type": "address"
        },
        {
          "internalType": "bool",
          "name": "approved",
          "type": "bool"
        }
      ],
      "name": "setApprovalForAll",
      "outputs": [],
      "stateMutability": "nonpayable",
      "type": "function"
    },
    {
      "inputs": [],
      "name": "stopImpersonating",
      "outputs": [],
      "stateMutability": "nonpayable",
      "type": "function"
    },
    {
      "inputs": [
        {
          "internalType": "bytes4",
          "name": "interfaceId",
          "type": "bytes4"
        }
      ],
      "name": "supportsInterface",
      "outputs": [
        {
          "internalType": "bool",
          "name": "",
          "type": "bool"
        }
      ],
      "stateMutability": "view",
      "type": "function"
    },
    {
      "inputs": [],
      "name": "symbol",
      "outputs": [
        {
          "internalType": "string",
          "name": "",
          "type": "string"
        }
      ],
      "stateMutability": "view",
      "type": "function"
    },
    {
      "inputs": [
        {
          "internalType": "uint256",
          "name": "tokenId",
          "type": "uint256"
        }
      ],
      "name": "tokenURI",
      "outputs": [
        {
          "internalType": "string",
          "name": "",
          "type": "string"
        }
      ],
      "stateMutability": "view",
      "type": "function"
    },
    {
      "inputs": [
        {
          "internalType": "address",
          "name": "from",
          "type": "address"
        },
        {
          "internalType": "address",
          "name": "to",
          "type": "address"
        },
        {
          "internalType": "uint256",
          "name": "tokenId",
          "type": "uint256"
        }
      ],
      "name": "transferFrom",
      "outputs": [],
      "stateMutability": "nonpayable",
      "type": "function"
    },
    {
      "inputs": [
        {
          "internalType": "address",
          "name": "newOwner",
          "type": "address"
        }
      ],
      "name": "transferOwnership",
      "outputs": [],
      "stateMutability": "nonpayable",
      "type": "function"
    },
    {
      "inputs": [
        {
          "internalType": "uint256",
          "name": "_id",
          "type": "uint256"
        },
        {
          "internalType": "string",
          "name": "_name",
          "type": "string"
        },
        {
          "internalType": "bool",
          "name": "_isActive",
          "type": "bool"
        }
      ],
      "name": "updateCategory",
      "outputs": [],
      "stateMutability": "nonpayable",
      "type": "function"
    },
    {
      "inputs": [
        {
          "internalType": "uint256",
          "name": "productId",
          "type": "uint256"
        },
        {
          "components": [
            {
              "internalType": "string",
              "name": "name",
              "type": "string"
            },
            {
              "internalType": "string",
              "name": "description",
              "type": "string"
            },
            {
              "internalType": "uint256",
              "name": "price",
              "type": "uint256"
            },
            {
              "internalType": "uint256",
              "name": "stock",
              "type": "uint256"
            },
            {
              "internalType": "string[]",
              "name": "colors",
              "type": "string[]"
            },
            {
              "internalType": "string[]",
              "name": "sizes",
              "type": "string[]"
            },
            {
              "internalType": "string[]",
              "name": "images",
              "type": "string[]"
            },
            {
              "internalType": "uint256",
              "name": "categoryId",
              "type": "uint256"
            },
            {
              "internalType": "uint256",
              "name": "subCategoryId",
              "type": "uint256"
            },
            {
              "internalType": "uint256",
              "name": "weight",
              "type": "uint256"
            },
            {
              "internalType": "string",
              "name": "model",
              "type": "string"
            },
            {
              "internalType": "string",
              "name": "brand",
              "type": "string"
            },
            {
              "internalType": "uint256",
              "name": "sku",
              "type": "uint256"
            }
          ],
          "internalType": "struct HemShop.ProductInput",
          "name": "input",
          "type": "tuple"
        }
      ],
      "name": "updateProduct",
      "outputs": [],
      "stateMutability": "nonpayable",
      "type": "function"
    },
    {
      "inputs": [
        {
          "internalType": "address",
          "name": "seller",
          "type": "address"
        },
        {
          "internalType": "enum HemShop.SellerStatus",
          "name": "status",
          "type": "uint8"
        }
      ],
      "name": "updateSellerStatus",
      "outputs": [],
      "stateMutability": "nonpayable",
      "type": "function"
    },
    {
      "inputs": [
        {
          "internalType": "uint256",
          "name": "_id",
          "type": "uint256"
        },
        {
          "internalType": "string",
          "name": "_name",
          "type": "string"
        },
        {
          "internalType": "bool",
          "name": "_isActive",
          "type": "bool"
        }
      ],
      "name": "updateSubCategory",
      "outputs": [],
      "stateMutability": "nonpayable",
      "type": "function"
    },
    {
      "inputs": [
        {
          "internalType": "address",
          "name": "",
          "type": "address"
        }
      ],
      "name": "userProfiles",
      "outputs": [
        {
          "internalType": "string",
          "name": "name",
          "type": "string"
        },
        {
          "internalType": "string",
          "name": "email",
          "type": "string"
        },
        {
          "internalType": "string",
          "name": "avatar",
          "type": "string"
        },
        {
          "internalType": "uint256",
          "name": "registeredAt",
          "type": "uint256"
        },
        {
          "internalType": "bool",
          "name": "isActive",
          "type": "bool"
        }
      ],
      "stateMutability": "view",
      "type": "function"
    },
    {
      "inputs": [
        {
          "internalType": "uint256",
          "name": "",
          "type": "uint256"
        }
      ],
      "name": "usersList",
      "outputs": [
        {
          "internalType": "address",
          "name": "",
          "type": "address"
        }
      ],
      "stateMutability": "view",
      "type": "function"
    },
    {
      "inputs": [],
      "name": "withdraw",
      "outputs": [],
      "stateMutability": "nonpayable",
      "type": "function"
    }
  ],
  "bytecode": "0x6080346200037757601f90601f196001600160401b0362009a9f3881900385810184168501838111868210176200037c57859282916040528339602094859181010312620003775751936200005362000392565b926007845266048656d53686f760cc1b858501526200007162000392565b60038082526204873760ec1b8783015260008054336001600160a01b031982168117835592989394919392906001600160a01b03167f8be0079c531659141344cd1fd0a4f28419497f9722a3daafe3b4186f6b6457e08580a360019687805580519087821162000363576002548981811c9116801562000358575b858210146200034457908188849311620002f0575b5084908883116001146200028e57869262000282575b5050600019828b1b1c191690881b176002555b83519586116200026e5787548781811c9116801562000263575b838210146200024f5785811162000207575b5081948611600114620001a25750509183949184939462000196575b50501b9160001990841b1c19161790555b600b556040516196ec9081620003b38239f35b01519250388062000172565b8783528183209493928692918316915b88838310620001ec5750505010620001d3575b505050811b01905562000183565b015160001983861b60f8161c19169055388080620001c5565b858701518855909601959485019487935090810190620001b2565b8884528284208680890160051c820192858a1062000245575b0160051c019088905b8281106200023957505062000156565b85815501889062000229565b9250819262000220565b634e487b7160e01b84526022600452602484fd5b90607f169062000144565b634e487b7160e01b83526041600452602483fd5b01519050388062000117565b90848b9416916002885286882092885b88828210620002d95750508411620002c0575b505050811b016002556200012a565b0151600019838d1b60f8161c19169055388080620002b1565b8385015186558e979095019493840193016200029e565b909150600286528486208880850160051c8201928786106200033a575b918c91869594930160051c01915b8281106200032b57505062000101565b8881558594508c91016200031b565b925081926200030d565b634e487b7160e01b86526022600452602486fd5b90607f1690620000ec565b634e487b7160e01b85526041600452602485fd5b600080fd5b634e487b7160e01b600052604160045260246000fd5b60408051919082016001600160401b038111838210176200037c5760405256fe608080604052600436101561001357600080fd5b60003560e01c908162d64e7614616c7f5750806301ffc9a714616c1157806302ee3a521461699757806306fdde03146168f2578063081812fc146168d4578063095ea7b31461675a5780630e50cee51461671b57806311aa5b34146166f75780631385fd92146166a357806316d81b38146164ab57806317e98548146164335780632148893f14615bb957806323b872dd1461640a57806324d41a03146161ed578063317a0827146160a6578063332d56d714615fe55780633c2575d514615f005780633ccfd60b14615ee757806342842e0e14615ebf5780634293e5ce14615dbd57806345de84db14615d7b5780634e213d2014615d14578063502aa3b514615cd25780635ad6a58014615c565780635be2095914615bf3578063607eb4e414615bb95780636352211e14615b89578063661e17121461538757806366224d8e146152315780636f2c8599146151865780636f68ef3a146150305780636f77926b14614e4c57806370a0823114614db5578063715018a614614d6e5780637acc0b2014614baf5780637d3978db146149915780637e8555ed14614311578063868a5461146138015780638da5cb5b146137d85780638f38cc7b146134b55780639196dfcb1461339b57806395d89b41146132b957806397b6f393146131325780639d4a225514612fa35780639fa44dbf14612f5b578063a22cb46514612e90578063a22fb38714612de5578063a323d29e14612c92578063af55ed6414612c61578063b27e169714612b7c578063b88d4fde14612b1d578063b95a062814612ae2578063b9db15b4146128c8578063c1302b3414612870578063c64b8a8f14612831578063c87b56dd146127d7578063ceca737f14612753578063d2bc9d78146124a6578063d637dcfa14612039578063dadd0a5714611d39578063dc29868214611b18578063e01ef6e614611afa578063e40971e514610ccd578063e585cb2c14610c3d578063e6a93e161461097c578063e985e9c514610926578063eb11c434146108f4578063ed90c7b7146107ba578063ee95feaf1461077b578063f2fde38b146106cc578063f3052d261461060c5763fdca4ca31461033657600080fd5b346106075760003660031901126106075760088054600060015b828111156105a15750610362906185fc565b9060009260015b82811115610383576040518061037f8682616f39565b0390f35b600081815260106020818152604090922060018101546001600160a01b0316929133841480610590575b6103c4575b505050506103bf906185ed565b610369565b604098949851936103d485616fc7565b82548552838501526040516103f7816103f081600287016171c4565b0382617086565b6040850152604051610410816103f081600387016171c4565b606085015260048201546080850152600582015460a0850152600691610437838201618527565b60c086015261044860078201618527565b60e0860152610458878201618527565b610100860152604051610472816103f081600986016171c4565b61012086015260405161048c816103f081600a86016171c4565b610140860152600b8101546101608601526040516104b1816103f081600c86016171c4565b6101808601526040516104cb816103f081600d86016171c4565b6101a0860152600e8101546101c0860152600f81015460ff9081811615156101e088015281818a1c161515610200880152831c1615156102208601520190815491610515836180fd565b936105236040519586617086565b8385526000918252808220918186015b8582106105745750505050505091816103bf9361024061056a940152610559828861864c565b52610564818761864c565b506185ed565b94903880806103b2565b84836001926105828761858c565b815201940191019092610533565b5060ff600f830154821c16156103ad565b600081815260106020819052604090912060018101546001600160a01b031633149190826105f4575b50506105df575b6105da906185ed565b610350565b906105ec6105da916185ed565b9190506105d1565b60ff9250600f0154901c161538806105ca565b600080fd5b3461060757602036600319011261060757600435600052600e60205260406000206040516106398161701a565b8154815261037f6040519161065c8361065581600188016171c4565b0384617086565b60208101928352610680600360ff60028701541695604084019615158752016187c1565b906060810191825261069481511515618712565b5192519351151590516106b96040519586958652608060208701526080860190616cac565b916040850152838203606085015261760c565b34610607576020366003190112610607576106e5616f9b565b6106ed617640565b6001600160a01b03908116908115610727576000548260018060a01b031982161760005516600080516020619660833981519152600080a3005b60405162461bcd60e51b815260206004820152602660248201527f4f776e61626c653a206e6577206f776e657220697320746865207a65726f206160448201526564647265737360d01b6064820152608490fd5b34610607576020366003190112610607576001600160a01b0361079c616f9b565b16600052601d602052602060ff604060002054166040519015158152f35b3461060757602080600319360112610607576004359081600052601781526107e960ff604060002054166183c9565b6000828152601082526040902060010154336001600160a01b03918216149081156108e6575b501561089257816000526010815260ff600f6040600020015460101c166108515760009182526010905260409020600f01805462ff0000191662010000179055005b6064906040519062461bcd60e51b82526004820152601a602482015279141c9bd91d58dd081a5cc8185b1c9958591e4819195b195d195960321b6044820152fd5b6084906040519062461bcd60e51b82526004820152602760248201527f4f6e6c792070726f647563742073656c6c6572206f72206f776e65722063616e6044820152662064656c65746560c81b6064820152fd5b60005416331490508361080f565b34610607576020366003190112610607576020610917610912616f9b565b617d49565b6109246040518092617440565bf35b346106075760403660031901126106075761093f616f9b565b610947616fb1565b9060018060a01b03809116600052600760205260406000209116600052602052602060ff604060002054166040519015158152f35b3461060757602036600319011261060757610995616f9b565b600854600060015b82811115610bd457506109af906185fc565b90600160005b828211156109cb576040518061037f8682616f39565b600082815260106020819052604090912060018101546001600160a01b039081169291908816831480610bc3575b610a11575b50505090610a0b906185ed565b906109b5565b60405192610a1e84616fc7565b815484526020840152604051610a3b816103f081600286016171c4565b6040840152604051610a54816103f081600386016171c4565b606084015260048101546080840152600581015460a0840152610a7960068201618527565b60c0840152610a8a60078201618527565b60e0840152610a9b60088201618527565b610100840152604051610ab5816103f081600986016171c4565b610120840152604051610acf816103f081600a86016171c4565b610140840152600b810154610160840152604051610af4816103f081600c86016171c4565b610180840152604051610b0e816103f081600d86016171c4565b6101a0840152600e8101546101c0840152600f81015460ff9081811615156101e0860152818160081c161515610200860152831c16151561022084015201805490610b58826180fd565b91610b666040519384617086565b808352602083019160005260206000206000925b828410610ba55750505050610240820152610a0b91610b9d91610559828861864c565b9086806109fe565b60066020600192610bb58561858c565b815201920193019290610b7a565b5060ff600f820154831c16156109f9565b600081815260106020819052604090912060018101546001600160a01b03878116911614919082610c2a575b5050610c15575b610c10906185ed565b61099d565b90610c22610c10916185ed565b919050610c07565b60ff9250600f0154901c16158580610c00565b3461060757604036600319011261060757610c56616f9b565b6001600160a01b03908116600090815260156020526040902080546024359081101561060757610c85916174da565b509061037f825460018401549360028101549160038201548560048401541690610cb66006600586015495016174f6565b9460405198899860ff8760a01c16961694896175c2565b3461060757600319602036820112610607576001600160401b0360043511610607576101a0906004353603011261060757610d18610d0f600480350180617d84565b90501515617db6565b610d29604460043501351515617df9565b610d3a606460043501351515617e44565b60e4600435013515611aaa57610104600435013515611a5757610d6561012460043501351515617e8f565b610d86610d7d61014460043501600435600401617d84565b90501515617edb565b610da7610d9e61016460043501600435600401617d84565b90501515617f1f565b610db961018460043501351515617f63565b610dd9610dd060c460043501600435600401617fac565b90501515617fe1565b610dfb6005610df260c460043501600435600401617fac565b90501115618026565b60016008540180600855610e0d618071565b81815233602082015290610e2f610e28600480350180617d84565b36916170c4565b6040830152610e4b610e28602460043501600435600401617d84565b60608301526044600435013560808301526064600435013560a0830152610e86610e7f608460043501600435600401617fac565b3691618114565b60c0830152610ea2610e7f60a460043501600435600401617fac565b60e0830152610ebe610e7f60c460043501600435600401617fac565b61010083015260e46004350135600052600e6020526103f0610eed6001604060002001604051928380926171c4565b6101208301526101046004350135600052600f6020526103f0610f1d6001604060002001604051928380926171c4565b610140830152610f3b610e2861014460043501600435600401617d84565b610180830152610f59610e2861016460043501600435600401617d84565b6101a083015260043561012481013561016084015261018401356101c08301523315611a1357610f91610f8b826179fb565b1561837e565b610f9d610f8b826179fb565b33600052600560205260406000206001815401905580600052600460205260406000203360018060a01b0319825416179055803360006000805160206196808339815191528180a46010602052604060002090825182556001820160018060a01b0360208501511660018060a01b0319825416179055604083015192835160018060401b03811161147d5761104281611039600287015461718a565b60028701617bd8565b6020601f82116001146119a4578192939495600092611999575b50508160011b916000199060031b1c19161760028401555b606081015180519093906001600160401b03811161147d576110a68161109d600385015461718a565b60038501617bd8565b6020601f821160011461192a57819293949560009261191f575b50508160011b916000199060031b1c19161760038201555b6080820151600482015560a082015160058201556006810160c0830151602081519161110483856181cc565b01916000526020600020916000905b82821061184257505050506007810160e0830151602081519161113683856181cc565b01916000526020600020916000905b828210611765575050505060088101610100830151602081519161116983856181cc565b01916000526020600020916000905b828210611682575050505061012082015180519093906001600160401b03811161147d576111b6816111ad600986015461718a565b60098601617bd8565b6020601f8211600114611613578192939495600092611608575b50508160011b916000199060031b1c19161760098301555b61014083015180519093906001600160401b03811161147d5761121b81611212600a87015461718a565b600a8701617bd8565b6020601f821160011461159957819293949560009261158e575b50508160011b916000199060031b1c191617600a8401555b610160810151600b84015561018081015180519093906001600160401b03811161147d5761128b81611282600c85015461718a565b600c8501617bd8565b6020601f821160011461151f578192939495600092611514575b50508160011b916000199060031b1c191617600c8201555b6101a08201518051906001600160401b03821161147d576112ee826112e5600d86015461718a565b600d8601617bd8565b602090601f831160011461149e5791806102409492601094600092611493575b50508160011b916000199060031b1c191617600d8201555b6101c0840151600e820155600f81016113466101e08601511515826179ea565b6102008501511515815461ff0062ff00006102208901511515871b169260081b169062ffff001916171790550191015190815191600160401b831161147d5781548383558084106113fa575b506020019060005260206000206000915b8383106113dc576113da858060005260176020526040600020600160ff198254161790553360005260116020526040600020618349565b005b60066020826113ee6001945186618215565b019201920191906113a3565b8060060290600682040361146757836006026006810485036114675783600052602060002091820191015b8181106114325750611392565b80600060069255600060018201556000600282015561145360038201618183565b600060048201556000600582015501611425565b634e487b7160e01b600052601160045260246000fd5b634e487b7160e01b600052604160045260246000fd5b01519050878061130e565b90600d840160005260206000209160005b601f19851681106114fc575092610240949260019260109583601f198116106114e3575b505050811b01600d820155611326565b015160001960f88460031b161c191690558780806114d3565b919260206001819286850151815501940192016114af565b0151905085806112a5565b600c830160005260206000209060005b601f1984168110611576575060019394959683601f1981161061155d575b505050811b01600c8201556112bd565b015160001960f88460031b161c1916905585808061154d565b9091602060018192858b01518155019301910161152f565b015190508580611235565b600a850160005260206000209060005b601f19841681106115f0575060019394959683601f198116106115d7575b505050811b01600a84015561124d565b015160001960f88460031b161c191690558580806115c7565b9091602060018192858b0151815501930191016115a9565b0151905085806111d0565b6009840160005260206000209060005b601f198416811061166a575060019394959683601f19811610611651575b505050811b0160098301556111e8565b015160001960f88460031b161c19169055858080611641565b9091602060018192858b015181550193019101611623565b80518051906001600160401b03821161147d576116a9826116a3885461718a565b88617bd8565b602090601f83116001146116f55792826001949360209386956000926116ea575b5050600019600383901b1c191690841b1787555b01940191019092611178565b015190508c806116ca565b908660005260206000209160005b601f198516811061174d575083602093600196938796938794601f19811610611734575b505050811b0187556116de565b015160001960f88460031b161c191690558c8080611727565b91926020600181928685015181550194019201611703565b80518051906001600160401b03821161147d57611786826116a3885461718a565b602090601f83116001146117d25792826001949360209386956000926117c7575b5050600019600383901b1c191690841b1787555b01940191019092611145565b015190508c806117a7565b908660005260206000209160005b601f198516811061182a575083602093600196938796938794601f19811610611811575b505050811b0187556117bb565b015160001960f88460031b161c191690558c8080611804565b919260206001819286850151815501940192016117e0565b80518051906001600160401b03821161147d57611863826116a3885461718a565b602090601f83116001146118af5792826001949360209386956000926118a4575b5050600019600383901b1c191690841b1787555b01940191019092611113565b015190508c80611884565b908660005260206000209160005b601f1985168110611907575083602093600196938796938794601f198116106118ee575b505050811b018755611898565b015160001960f88460031b161c191690558c80806118e1565b919260206001819286850151815501940192016118bd565b0151905085806110c0565b6003830160005260206000209060005b601f1984168110611981575060019394959683601f19811610611968575b505050811b0160038201556110d8565b015160001960f88460031b161c19169055858080611958565b9091602060018192858b01518155019301910161193a565b01519050858061105c565b6002850160005260206000209060005b601f19841681106119fb575060019394959683601f198116106119e2575b505050811b016002840155611074565b015160001960f88460031b161c191690558580806119d2565b9091602060018192858b0151815501930191016119b4565b606460405162461bcd60e51b815260206004820152602060248201527f4552433732313a206d696e7420746f20746865207a65726f20616464726573736044820152fd5b60405162461bcd60e51b815260206004820152602560248201527f53756243617465676f7279204944206d75737420626520677265617465722074604482015264068616e20360dc1b6064820152608490fd5b60405162461bcd60e51b815260206004820152602260248201527f43617465676f7279204944206d7573742062652067726561746572207468616e604482015261020360f41b6064820152608490fd5b34610607576000366003190112610607576020600b54604051908152f35b3461060757602080600319360112610607576001600160401b0360043581811161060757611b4a9036906004016170fb565b90611b53617640565b611b5f82511515618660565b611b6a601e546185ed565b9081601e55604051611b7b8161706b565b60008152604051611b8b8161701a565b838152858101858152604082019060019586835260608401948552600052600e8852604060002092518355858301905180519086821161147d57611bd982611bd3855461718a565b85617bd8565b8990601f8311600114611cc8579180611c1894926003979694600092611cbd575b505060001982881b1c191690891b1790555b511515600283016179ea565b019051805192831161147d57600160401b831161147d5785908254848455808510611ca0575b5001906000528460002060005b838110611c8f57601e546040518881527f11c167cc9b439f0ad8bec5588159f1b06b813bc38d50c867a41b23b077be2c1a9080611c8a818c018b616cac565b0390a2005b825182820155918601918401611c4b565b611cb7908460005285846000209182019101617bc1565b87611c3e565b015190508c80611bfa565b889291601f19831691856000528c600020928d6000905b828210611d22575050916003989795939185611c1898969410611d0a575b505050811b019055611c0c565b0151600019838a1b60f8161c191690558c8080611cfd565b8385015186558d979095019493840193018e611cdf565b3461060757600036600319011261060757601e54611d56816180fd565b611d636040519182617086565b818152601f19611d72836180fd565b01366020830137611d82826180fd565b91611d906040519384617086565b808352611dac601f19611da2836180fd565b0160208501618810565b611db5816180fd565b92611dc36040519485617086565b818452601f19611dd2836180fd565b01366020860137611de2826180fd565b90611df06040519283617086565b828252611dfc836180fd565b92611e0f6020840194601f190185618810565b60015b81811115611f4b575050611e316040519460808652608086019061760c565b8481036020860152815180825260208201916020808360051b8301019401926000915b838310611f1e57505050505083810360408501526020808651928381520195019060005b818110611f0657505050828403606084015251808452602084019060208160051b86010192916000905b828210611eaf5785850386f35b90919293601f19878203018252845190602080835192838152019201906000905b808210611eee57505050602080600192960192019201909291611ea2565b90919260208060019286518152019401920190611ed0565b82511515875260209687019690920191600101611e78565b9091929394602080611f3c600193601f198682030187528951616cac565b97019301930191939290611e54565b80600052600e602052604060002090611f9e600360405193611f6c8561701a565b80548552604051611f84816103f081600186016171c4565b602086015260ff60028201541615156040860152016187c1565b60608301528151611fb9575b611fb491506185ed565b611e12565b8060001981011161146757606082611fb49351611fda60001985018b61864c565b526020810151611fee60001985018861864c565b52611ffd60001984018761864c565b506040810151151561201360001985018c61864c565b52015161202460001983018761864c565b5261203360001982018661864c565b50611faa565b34610607576060366003190112610607576004356001600160401b038111610607576120699036906004016170fb565b6024356001600160401b038111610607576120889036906004016170fb565b6044356001600160401b038111610607576120a79036906004016170fb565b33600052601a60205260ff60406000205416612467576120c983511515617db6565b81511561242a57604051916120dd83617035565b838352602083015260408201524260608201526001608082015233600052601b602052604060002091815192835160018060401b03811161147d5761212c81612126845461718a565b84617bd8565b6020601f82116001146123c15781929394956000926123b6575b50508160011b916000199060031b1c19161781555b602083015180519093906001600160401b03811161147d5761218d81612184600186015461718a565b60018601617bd8565b6020601f821160011461234757819293949560009261233c575b50508160011b916000199060031b1c19161760018301555b6040810151805160028401916001600160401b03821161147d576121e782611bd3855461718a565b602090601f83116001146122ca5792826080936122359796936004966000926122bf575b50508160011b916000199060031b1c19161790555b606081015160038501550151151591016179ea565b336000908152601a60205260409020805460ff19166001179055601c54600160401b81101561147d5780600161226e9201601c5561744d565b81549060031b9033821b9160018060a01b03901b19161790557f48cac28ad4dc618e15f4c2dd5e97751182f166de97b25618318b2112aa951a2f6040516020815280611c8a33946020830190616cac565b01519050898061220b565b90601f198316918460005260206000209260005b81811061232457509361223597969360049693600193836080981061230b575b505050811b019055612220565b015160001960f88460031b161c191690558980806122fe565b929360206001819287860151815501950193016122de565b0151905085806121a7565b6001840160005260206000209060005b601f198416811061239e575060019394959683601f19811610612385575b505050811b0160018301556121bf565b015160001960f88460031b161c19169055858080612375565b9091602060018192858b015181550193019101612357565b015190508580612146565b8260005260206000209060005b601f1984168110612412575060019394959683601f198116106123f9575b505050811b01815561215b565b015160001960f88460031b161c191690558580806123ec565b9091602060018192858b0151815501930191016123ce565b60405162461bcd60e51b8152602060048201526015602482015274456d61696c2063616e6e6f7420626520656d70747960581b6044820152606490fd5b60405162461bcd60e51b8152602060048201526017602482015276155cd95c88185b1c9958591e481c9959da5cdd195c9959604a1b6044820152606490fd5b34610607576040366003190112610607576024356001600160401b0381116106075736602382011215610607576001600160401b0360048201351161060757366024826004013560051b8301011161060757600435600052600e60205260ff60026040600020015416156127115760005b8160040135811061252457005b61252f601f546185ed565b80601f55612561612548838560040135602487016186f7565b9190604051926125578461701a565b84845236916170c4565b9160208201928352600435604083015260016060830152600052600f602052604060002091815183555180519060018060401b03821161147d576125b5826125ac600187015461718a565b60018701617bd8565b602090601f831160011461269357612627938361268397969461260d94606094600092612688575b50508160011b916000199060031b1c19161760018501555b604081015160028501550151151560038093016179ea565b600435600052600e602052604060002001601f5490618349565b6000805160206196a0833981519152601f5461264b838660040135602488016186f7565b9290836040519160208352816020840152604083013760006040858301015260408160043595601f80199101168101030190a36185ed565b612517565b015190508a806125dd565b906001850160005260206000209160005b601f19851681106126f957509360018461260d94606094612627986126839b9a98601f198116106126e0575b505050811b0160018501556125f5565b015160001960f88460031b161c191690558a80806126d0565b919260206001819286850151815501940192016126a4565b60405162461bcd60e51b815260206004820152601a602482015279506172656e742063617465676f7279206e6f742061637469766560301b6044820152606490fd5b346106075760203660031901126106075760043561276f617640565b80600052600e6020526127886040600020541515618712565b80600052600e6020526000805160206196408339815191526127cb60406000206002810160ff1981541690556040519182916040835260016040840191016171c4565b600060208301520390a2005b34610607576020366003190112610607576127fb6127f66004356179fb565b617698565b60006040516128098161706b565b5261037f6040516128198161706b565b60008152604051918291602083526020830190616cac565b34610607576020366003190112610607576001600160a01b03612852616f9b565b166000526016602052602060ff604060002054166040519015158152f35b3461060757604036600319011261060757612889616f9b565b6001600160a01b0316600090815260116020526040902080546024359190821015610607576020916128ba9161747e565b90546040519160031b1c8152f35b3461060757602080600319360112610607576004356128e5618071565b50806000526010825261290660ff600f6040600020015460101c161561840e565b806000526017825261291f60ff604060002054166183c9565b600052601081526040600020906040519161293983616fc7565b805483526001808201546001600160a01b031683850152604051612964816103f081600287016171c4565b604085015260405161297d816103f081600387016171c4565b606085015260048201546080850152600582015460a085015260106006926129a6848201618527565b60c08701526129b760078201618527565b60e08701526129c860088201618527565b6101008701526040516129e2816103f081600986016171c4565b6101208701526040516129fc816103f081600a86016171c4565b610140870152600b810154610160870152604051612a21816103f081600c86016171c4565b610180870152604051612a3b816103f081600d86016171c4565b6101a0870152600e8101546101c087015260ff600f82015481811615156101e0890152818160081c161515610200890152831c1615156102208701520191825490612a85826180fd565b93612a936040519586617086565b8285526000908152858120868087015b858410612ac5576102408a018890526040518281528061037f8185018d616de9565b86918591612ad28561858c565b8152019201920191908790612aa3565b346106075760203660031901126106075760206001600160a01b0380612b06616f9b565b166000526019825260406000205416604051908152f35b3461060757608036600319011261060757612b36616f9b565b612b3e616fb1565b606435916001600160401b038311610607573660238401121561060757612b726113da9336906024816004013591016170c4565b916044359161778b565b3461060757602080600319360112610607576001600160a01b039081612ba0616f9b565b16600052601481526040600020805490612bb9826180fd565b92612bc76040519485617086565b82845260009182528082208185015b848410612beb576040518061037f8882617302565b600e83600192604051612bfd81616fe3565b85548152848601548382015260028601546040820152600386015460608201528a600487015416608082015260ff600587015460a08d8216818501521c16151560c0820152612c4e600687016174f6565b60e0820152815201920193019290612bd6565b34610607576020366003190112610607576004356000526017602052602060ff604060002054166040519015158152f35b346106075760208060031936011261060757612dca9061037f612cb3616f9b565b612cbb617d12565b5060018060a01b0316918260005260168152612cde60ff60406000205416617cce565b82600052600d815260406000209260ff600660405195612cfd87616fff565b604051612d0e816103f081856171c4565b8752604051612d24816103f081600186016171c4565b85880152604051612d3c816103f081600286016171c4565b6040880152604051612d55816103f081600386016171c4565b6060880152604051612d6e816103f081600486016171c4565b6080880152600581015460a0880152015416151560c08501526000526013815260ff604060002054166012825260406000205460118352612dd3612db560406000206187c1565b926040519788976080895260808901906173c0565b94870190617440565b6040850152838203606085015261760c565b3461060757602036600319011261060757612dfe616f9b565b612e06617640565b6001600160a01b03168015612e5157604060008051602061960083398151915291336000526019602052816000208160018060a01b03198254161790558151903382526020820152a1005b60405162461bcd60e51b8152602060048201526017602482015276496e76616c6964206163636f756e74206164647265737360481b6044820152606490fd5b3461060757604036600319011261060757612ea9616f9b565b6024359081151590818303610607576001600160a01b031691338314612f1a57612eec9033600052600760205260406000208460005260205260406000206179ea565b6040519081527f17307eab39ab6107e8899845ad3d59bd9653f200f220920489ca2b5937696c3160203392a3005b60405162461bcd60e51b815260206004820152601960248201527822a9219b99189d1030b8383937bb32903a379031b0b63632b960391b6044820152606490fd5b3461060757604036600319011261060757612f74616f9b565b6001600160a01b03908116600090815260146020526040902080546024359081101561060757610c85916174da565b3461060757602080600319360112610607576004358060005260109182815260ff612fda81600f60406000200154861c161561840e565b8260005260178252612ff281604060002054166183c9565b60009160005b8460005285825285604060002001805482101561304957600461301c83869361886b565b5001541615613034575b61302f906185ed565b612ff8565b9261304161302f916185ed565b939050613026565b50508385613056856180fd565b946130646040519687617086565b808652613073601f19916180fd565b018360005b82811061311c5750505060009160005b816000528285528260406000200180548210156131095760046130ac83899361886b565b50015416156130c4575b6130bf906185ed565b613088565b926131016130bf91836000528487526130ec6130e6878760406000200161886b565b5061858c565b6130f6828b61864c565b52610564818a61864c565b9390506130b6565b6040518681528061037f8189018b616d48565b61312461883a565b82828a010152018490613078565b346106075760403660031901126106075761314b616f9b565b60243590600482101561060757613160617640565b6001600160a01b031690613175821515617c89565b816000526020906016825261319160ff60406000205416617cce565b826000526013825260ff60406000205416600481101561326957811461327f5760028114613203575b907fd8f7bcb2c5cffc294a0aaef719685993d7be95273fb8254803a1563510ccefed9183600052601382526131f3816040600020617c1f565b6132006040518092617440565ba2005b826000526013825260ff604060002054166004811015613269576001146131ba5760405162461bcd60e51b815260048101839052601f60248201527f43616e206f6e6c79207665726966792070656e64696e672073656c6c657273006044820152606490fd5b634e487b7160e01b600052602160045260246000fd5b60405162461bcd60e51b815260048101839052601260248201527114dd185d1d5cc8185b1c9958591e481cd95d60721b6044820152606490fd5b34610607576000366003190112610607576040516000906003546132dc8161718a565b8083526001918083169081156133735750600114613319575b61037f8361330581870382617086565b604051918291602083526020830190616cac565b6003600090815260209450917fc2575a0e9e593c00f959f8c92f12db2869c3395a3b0502d05e2516446f71f85b5b82841061336057505050810190910190613305816132f5565b8054858501870152928501928101613347565b61037f955061330593506020915091849260ff191682840152151560051b82010193506132f5565b34610607576020366003190112610607576001600160a01b036133bc616f9b565b16600052600d60205261346c6040600020604051906133e6826133df81846171c4565b0383617086565b6040516133fa816103f081600186016171c4565b6134a4604051613411816103f081600288016171c4565b613496604051613428816103f08160038a016171c4565b61348860405193613447856134408160048c016171c4565b0386617086565b61347a60ff600660058b01549a015416976040519b8c9b60e08d5260e08d0190616cac565b908b820360208d0152616cac565b9089820360408b0152616cac565b908782036060890152616cac565b908582036080870152616cac565b9160a0840152151560c08301520390f35b34610607576020366003190112610607576004356001600160401b038111610607576134e59036906004016170fb565b600854600060015b8281111561375657506134ff906185fc565b90600160005b8282111561351b576040518061037f8682616f39565b816000526010806020526009906103f061354183604060002001604051928380926171c4565b60208151910120875160208901201480613739575b61356d575b505090613567906185ed565b90613505565b836000528060205260406000206103f061362c6040519461358d86616fc7565b8354865260018401546001600160a01b031660208701526040516135b8816103f081600289016171c4565b60408701526040516135d1816103f081600389016171c4565b606087015260048401546080870152600584015460a08701526135f660068501618527565b60c087015261360760078501618527565b60e087015261361860088501618527565b6101008701526040519283809286016171c4565b610120840152604051613646816103f081600a86016171c4565b610140840152600b81015461016084015260405161366b816103f081600c86016171c4565b610180840152604051613685816103f081600d86016171c4565b6101a0840152600e8101546101c0840152600f81015460ff9081811615156101e0860152818160081c161515610200860152831c161515610220840152018054906136cf826180fd565b916136dd6040519384617086565b808352602083019160005260206000206000925b82841061371b57505050506102408201526135679161371491610559828861864c565b908661355b565b6006602060019261372b8561858c565b8152019201930192906136f1565b50836000528060205260ff600f60406000200154821c1615613556565b806000526010806020526103f061377a6009604060002001604051928380926171c4565b60208151910120855160208701201490816137b9575b506137a4575b61379f906185ed565b6134ed565b906137b161379f916185ed565b919050613796565b60ff91508260005280602052600f60406000200154901c161585613790565b34610607576000366003190112610607576000546040516001600160a01b039091168152602090f35b3461060757600319604036820112610607576001600160401b0360243511610607576101a09060243536030112610607576004356000908152601060205260409020600101546001600160a01b031633036142bb57600435600052601760205261387260ff604060002054166183c9565b600435600052601060205261389560ff600f6040600020015460101c161561840e565b6138a7610d0f60046024350180617d84565b6138ba6024803501602435600401617d84565b905015614278576138d2604460243501351515617df9565b6138e3606460243501351515617e44565b6138f7608460243501602435600401617fac565b90501561423a5761391260a460243501602435600401617fac565b9050156141fd57613930610dd060c460243501602435600401617fac565b6139496005610df260c460243501602435600401617fac565b60e46024350135156141bd576101046024350135156141795761397a610d7d61014460243501602435600401617d84565b613992610d9e61016460243501602435600401617d84565b6139a461012460243501351515617e8f565b6139b661018460243501351515617f63565b6139c560046024350180617d84565b6004356000908152601060205260409020600201906001600160401b03811161147d576139f681612126845461718a565b600092601f82116001146141105792819293600092614105575b50508160011b916000199060031b1c19161790555b613a386024803501602435600401617d84565b6004356000908152601060205260409020600301906001600160401b03811161147d57613a6981612126845461718a565b600092601f821160011461409c5792819293600092614091575b50508160011b916000199060031b1c19161790555b600435600052601060205260406000206044602435013560048201556064602435013560058201556006613ad6608460243501602435600401617fac565b9190920191613ae582846181cc565b60009283526020832090805b838510613fae57613b0c60a460243501602435600401617fac565b6004356000526010602052600760406000200191613b2a82846181cc565b60009283526020832090805b838510613ecb57613b5160c460243501602435600401617fac565b6004356000526010602052600860406000200191613b6f82846181cc565b60009283526020832090805b838510613de25760e46024350135600052600e602052613bb460016040600020016004356000526010602052600960406000200161844f565b6101046024350135600052600f602052613be760016040600020016004356000526010602052600a60406000200161844f565b613bfc61014460243501602435600401617d84565b6004356000908152601060205260409020600c01906001600160401b03811161147d57613c2d81612126845461718a565b600092601f8211600114613d795792819293600092613d6e575b50508160011b916000199060031b1c19161790555b613c7161016460243501602435600401617d84565b6004356000908152601060205260409020600d01906001600160401b03811161147d57613ca281612126845461718a565b6000601f8211600114613d0957819293600092613cfe575b50508160011b916000199060031b1c19161790555b600435600052601060205260406000206101246024350135600b820155600e6101846024350135910155600080f35b013590508380613cba565b601f198216938360005260206000209160005b868110613d565750836001959610613d3c575b505050811b019055613ccf565b0135600019600384901b60f8161c19169055838080613d2f565b90926020600181928686013581550194019101613d1c565b013590508380613c47565b826000526020600020906000945b601f1984168610613dca57600194955083601f19811610613db0575b505050811b019055613c5c565b0135600019600384901b60f8161c19169055838080613da3565b91602060018192858501358155019301950194613d87565b613dec8183617d84565b906001600160401b03821161147d57613e0f82613e09875461718a565b87617bd8565b600090601f8311600114613e5b579282600194936020938695600092613e50575b5050600019600383901b1c191690841b1786555b01930194019391613b7b565b013590508a80613e30565b8560005260206000209160005b601f1985168110613eb3575083602093600196938796938794601f19811610613e99575b505050811b018655613e44565b0135600019600384901b60f8161c191690558a8080613e8c565b90926020600181928686013581550194019101613e68565b613ed58183617d84565b906001600160401b03821161147d57613ef282613e09875461718a565b600090601f8311600114613f3e579282600194936020938695600092613f33575b5050600019600383901b1c191690841b1786555b01930194019391613b36565b013590508a80613f13565b8560005260206000209160005b601f1985168110613f96575083602093600196938796938794601f19811610613f7c575b505050811b018655613f27565b0135600019600384901b60f8161c191690558a8080613f6f565b90926020600181928686013581550194019101613f4b565b613fb88183617d84565b906001600160401b03821161147d57613fd582613e09875461718a565b600090601f8311600114614021579282600194936020938695600092614016575b5050600019600383901b1c191690841b1786555b01930194019391613af1565b013590508a80613ff6565b8560005260206000209160005b601f1985168110614079575083602093600196938796938794601f1981161061405f575b505050811b01865561400a565b0135600019600384901b60f8161c191690558a8080614052565b9092602060018192868601358155019401910161402e565b013590508380613a83565b826000526020600020906000945b601f19841686106140ed57600194955083601f198116106140d3575b505050811b019055613a98565b0135600019600384901b60f8161c191690558380806140c6565b916020600181928585013581550193019501946140aa565b013590508380613a10565b826000526020600020906000945b601f198416861061416157600194955083601f19811610614147575b505050811b019055613a25565b0135600019600384901b60f8161c1916905583808061413a565b9160206001819285850135815501930195019461411e565b60405162461bcd60e51b815260206004820152601c60248201527b5375622d63617465676f72792063616e6e6f7420626520656d70747960201b6044820152606490fd5b60405162461bcd60e51b815260206004820152601860248201527743617465676f72792063616e6e6f7420626520656d70747960401b6044820152606490fd5b60405162461bcd60e51b815260206004820152601560248201527453697a65732063616e6e6f7420626520656d70747960581b6044820152606490fd5b60405162461bcd60e51b8152602060048201526016602482015275436f6c6f72732063616e6e6f7420626520656d70747960501b6044820152606490fd5b60405162461bcd60e51b815260206004820152601b60248201527a4465736372697074696f6e2063616e6e6f7420626520656d70747960281b6044820152606490fd5b60405162461bcd60e51b815260206004820152602860248201527f4f6e6c79207468652073656c6c65722063616e20757064617465207468656972604482015267081c1c9bd91d58dd60c21b6064820152608490fd5b346106075760a0366003190112610607576004356001600160401b038111610607576143419036906004016170fb565b6024356001600160401b038111610607576143609036906004016170fb565b6044356001600160401b0381116106075761437f9036906004016170fb565b6064356001600160401b0381116106075761439e9036906004016170fb565b906084356001600160401b038111610607576143be9036906004016170fb565b6000549093906001600160a01b03163303614940575b845115614902576143e782511515617b47565b6143f383511515617b84565b6040519461440086616fff565b855260208501526040840152606083015260808201524260a0820152600160c082015233600052600d6020526040600020815191825160018060401b03811161147d5761445181611bd3855461718a565b6020601f821160011461489a578192939460009261488f575b50508160011b916000199060031b1c19161782555b602081015180519092906001600160401b03811161147d576144b1816144a8600185015461718a565b60018501617bd8565b6020601f82116001146148215781929394600092614816575b50508160011b916000199060031b1c19161760018201555b604082015180519092906001600160401b03811161147d576145148161450b600286015461718a565b60028601617bd8565b6020601f82116001146147a8578192939460009261479d575b50508160011b916000199060031b1c19161760028301555b606081015180519092906001600160401b03811161147d5761456e8161109d600385015461718a565b6020601f821160011461472f5781929394600092614724575b50508160011b916000199060031b1c19161760038201555b6080820151805190929060048301906001600160401b03811161147d576145ca81612126845461718a565b6020601f82116001146146b45791816006949260c094614616986000926146a9575b50508160011b916000199060031b1c19161790555b60a081015160058501550151151591016179ea565b336000818152601660205260408120805460ff19166001179055546001600160a01b03160361469f5761465460025b60136020526040600020617c1f565b61465d33619591565b15614691575b6040514281527fa1a1a78ff3033d5ee8393372052aeb2a16bbb347a29f3780370e9506c109e37260203392a2005b61469a33617c37565b614663565b6146546001614645565b0151905088806145ec565b601f198216958360005260206000209660005b81811061470c5750926146169760c095936001938360069997106146f3575b505050811b019055614601565b015160001960f88460031b161c191690558880806146e6565b838301518955600190980197602093840193016146c7565b015190508480614587565b6003830160005260206000209060005b601f19841681106147855750600193949583601f1981161061476c575b505050811b01600382015561459f565b015160001960f88460031b161c1916905584808061475c565b9091602060018192858a01518155019301910161473f565b01519050848061452d565b6002840160005260206000209060005b601f19841681106147fe5750600193949583601f198116106147e5575b505050811b016002830155614545565b015160001960f88460031b161c191690558480806147d5565b9091602060018192858a0151815501930191016147b8565b0151905084806144ca565b6001830160005260206000209060005b601f19841681106148775750600193949583601f1981161061485e575b505050811b0160018201556144e2565b015160001960f88460031b161c1916905584808061484e565b9091602060018192858a015181550193019101614831565b01519050848061446a565b8360005260206000209060005b601f19841681106148ea5750600193949583601f198116106148d1575b505050811b01825561447f565b015160001960f88460031b161c191690558480806148c4565b9091602060018192858a0151815501930191016148a7565b60405162461bcd60e51b8152602060048201526016602482015275109d5cda5b995cdcc81b985b59481c995c5d5a5c995960521b6044820152606490fd5b33600052601660205260ff60406000205416156143d45760405162461bcd60e51b8152602060048201526012602482015271105b1c9958591e481c9959da5cdd195c995960721b6044820152606490fd5b34610607576040366003190112610607576001600160401b03600435602435828111610607576149c59036906004016170fb565b6149cd617640565b81600052602090600e825260406000205415614b6a576149ef815115156186ac565b6149fa601f546185ed565b80601f5560405190614a0b8261701a565b80825283820183815260408301908682526060840192600190818552600052600f875260406000209451855580850191518051998a1161147d57614a538a611bd3855461718a565b8790601f8b11600114614aed5799808060039694614aa9999896946000805160206196a08339815191529c9d9e600094614ae2575b50501b9160001990871b1c19161790555b51600284015551151591016179ea565b83600052600e8352614ac56003604060002001601f5490618349565b601f5492614add604051928284938452830190616cac565b0390a3005b015192508e80614a88565b9990601f1982169a84600052896000209b60005b818110614b5557509b60039694928492614aa99a9997956000805160206196a08339815191529d9e9f10614b3d575b505050811b019055614a99565b015160001983891b60f8161c191690558c8080614b30565b838301518e559c85019c928b01928b01614b01565b60405162461bcd60e51b815260048101839052601e60248201527f506172656e742063617465676f727920646f6573206e6f7420657869737400006044820152606490fd5b3461060757602036600319011261060757600435600052601060205260406000208054600160a01b600190036001830154169160405180806002840190614bf5916171c4565b03614c009082617086565b60405180614c1181600386016171c4565b03614c1c9082617086565b600483015460058401549060405180806009880190614c3a916171c4565b03614c459082617086565b6040519081614c5781600a8a016171c4565b03614c629083617086565b600b87015492604051948580600c8b0190614c7c916171c4565b03614c879087617086565b6040519687614c9981600d8d016171c4565b03614ca49089617086565b600e8a015499600f0154986040519c8d9c8d5260208d01528b6101e06040819201528c01614cd191616cac565b8b810360608d0152614ce291616cac565b9160808b015260a08a015288810360c08a0152614cfe91616cac565b87810360e0890152614d0f91616cac565b90610100870152858103610120870152614d2891616cac565b848103610140860152614d3a91616cac565b9161016084015260ff811615156101808401528060081c60ff1615156101a084015260101c60ff1615156101c08301520390f35b3461060757600036600319011261060757614d87617640565b600080546001600160a01b0319811682556001600160a01b03166000805160206196608339815191528280a3005b34610607576020366003190112610607576001600160a01b03614dd6616f9b565b168015614df55760005260056020526020604060002054604051908152f35b60405162461bcd60e51b815260206004820152602960248201527f4552433732313a2061646472657373207a65726f206973206e6f7420612076616044820152683634b21037bbb732b960b91b6064820152608490fd5b346106075760208060031936011261060757614e66616f9b565b604051614e7281617035565b61037f6060928383528385840152836040840152600084840152600060808094015260018060a01b03169182600052601a855260ff604060002054169384600014614fd75783600052601b8652604060002060ff600460405192614ed584617035565b604051614ee6816103f081856171c4565b8452604051614efc816103f081600186016171c4565b8a850152604051614f14816103f081600286016171c4565b6040850152600381015485850152015416151583820152935b6000526016865260ff6040600020541680600014614fcf576013875260ff60406000205416925b614fac6040519889981515895282818a0152614f97614f7f895160a0868d01526101208c0190616cac565b9189015191607f1992838c83030160a08d0152616cac565b906040890151908a83030160c08b0152616cac565b958381015160e08901520151151561010087015215156040860152840190617440565b600092614f54565b604051614fe381617035565b604051614fef8161706b565b6000815281526040516150018161706b565b60008152878201526040516150158161706b565b60008152604082015260008282015260008382015293614f2d565b3461060757600036600319011261060757600080601c54905b818110615115575061505a826180fd565b916150686040519384617086565b808352615077601f19916180fd565b01602090368285013760009060005b83811061509b576040518061037f8782617496565b6150a48161744d565b60018060a01b0391549060031b1c1680600052601a835260ff80604060002054169081615101575b506150e1575b506150dc906185ed565b615086565b836150fa916150f46150dc94968961864c565b526185ed565b92906150d2565b9050601684526040600020541615876150cc565b61511e8161744d565b60018060a01b0391549060031b1c166000526020601a815260ff80604060002054169182615171575b505061515c575b615157906185ed565b615049565b91615169615157916185ed565b92905061514e565b60169192505260406000205416158480615147565b3461060757602036600319011261060757600435600052600f60205260406000206040516151b38161701a565b81548152604051906151cc826133df81600187016171c4565b6020810191825260ff600360028501549460408401958652015416906060810191151582526151fd81511515618778565b5191519251905115156152226040519485948552608060208601526080850190616cac565b91604084015260608301520390f35b346106075761523f3661714b565b61524a929192617640565b81600052602092600e84526152656040600020541515618712565b61527181511515618660565b6000838152600e855260409020815194906001908101906001600160401b03871161147d576152a487612126845461718a565b82601f881160011461531257968080600e959493600080516020619640833981519152999a600093615307575b501b916000199060031b1c19161790555b85600052526152f88260026040600020016179ea565b611c8a60405192839283618758565b88015192508b6152d1565b96601f1981169783600052846000209860005b8181106153725750988291600e969594936000805160206196408339815191529a9b10615359575b5050811b0190556152e2565b87015160001960f88460031b161c19169055898061534d565b878301518b5599840199918601918601615325565b600319604036820112610607576024906001600160401b03823511610607576101009082353603011261060757600260015414615b4557600260015560043560005260176020526153df60ff604060002054166183c9565b600435600052601060205261540260ff600f6040600020015460101c161561840e565b600435600052601060205260018060a01b0360016040600020015416600052601360205260ff604060002054166004811015615b3057600203615af357600435600052601060205260056040600020015415615ab557600435600052601060205260ff600f6040600020015416615a7457600435600052601060205260018060a01b03600160406000200154163314615a32576154a3600482350180617d84565b9050156159f9576154bb818035018235600401617d84565b9050156159bb576154d460448235018235600401617d84565b905015615987576154ed60648235018235600401617d84565b9050156159525761550660848235018235600401617d84565b90501561591b5761551f60a48235018235600401617d84565b9050156158e05761554461553b60c48335018335600401617d84565b90501515617b84565b61556261555960e48335018335600401617d84565b90501515617b47565b6004356000526010602052600460406000200154908134106158a7576004356000526010602052600560406000200180548015615892576000190190556004356000526010602052604060002060058101541561587e575b600101546040516001600160a01b0390911691906155d781616fe3565b6004823501356001600160401b038111610607576155fc9060043691853501016170fb565b81526001600160401b038235830135116106075761562336833580850135016004016170fb565b60208201528135604401356001600160401b0381116106075761564d9060043691853501016170fb565b60408201528135606401356001600160401b038111610607576156779060043691853501016170fb565b60608201528135608401356001600160401b038111610607576156a19060043691853501016170fb565b6080820152813560a401356001600160401b038111610607576156cb9060043691853501016170fb565b60a0820152813560c401356001600160401b038111610607576156f59060043691853501016170fb565b60c0820152813560e40135906001600160401b0382116106075761572361578e9260043691863501016170fb565b60e08201526040519061573582616fe3565b60043582528560208301528560408301524260608301523360808301528460a0830152600060c083015260e082015233600052601460205261577b816040600020618887565b8360005260156020526040600020618887565b816000526012602052604060002080549184830180931161586a57505560405182815282602082015242604082015233907f45280c7ac9cec77edd454e39e1641a3e22619146cf074a4239beee86a7c07edc606060043592a46001600954016009556157fa813461882d565b8061585a575b50600435600052601060205260018060a01b03600160406000200154169060405190815242602082015233907fbe6177108f4df43c5d7be79cb219c969fc97915bbdb4b56d14d391dcdcc16060604060043592a460018055005b61586490336194fb565b81615800565b634e487b7160e01b60009081526011600452fd5b600f8101805460ff191660011790556155ba565b82634e487b7160e01b60005260116004526000fd5b60649060126040519162461bcd60e51b83526020600484015282015271496e73756666696369656e742066756e647360701b6044820152fd5b60649060146040519162461bcd60e51b83526020600484015282015273141bdcdd185b0818dbd919481c995c5d5a5c995960621b6044820152fd5b60649060106040519162461bcd60e51b8352602060048401528201526f10dbdd5b9d1c9e481c995c5d5a5c995960821b6044820152fd5b606490600e6040519162461bcd60e51b8352602060048401528201526d14dd185d19481c995c5d5a5c995960921b6044820152fd5b606490600d6040519162461bcd60e51b8352602060048401528201526c10da5d1e481c995c5d5a5c9959609a1b6044820152fd5b60649060176040519162461bcd60e51b8352602060048401528201527614dd1c99595d081859191c995cdcc81c995c5d5a5c9959604a1b6044820152fd5b60649060126040519162461bcd60e51b83526020600484015282015271119d5b1b081b985b59481c995c5d5a5c995960721b6044820152fd5b606490601b6040519162461bcd60e51b8352602060048401528201527a10d85b9b9bdd08189d5e481e5bdd5c881bdddb881c1c9bd91d58dd602a1b6044820152fd5b606490601a6040519162461bcd60e51b83526020600484015282015279141c9bd91d58dd081a5cc8185b1c9958591e481cdbdb191bdd5d60321b6044820152fd5b60649060176040519162461bcd60e51b8352602060048401528201527650726f64756374206973206f7574206f662073746f636b60481b6044820152fd5b60649060166040519162461bcd60e51b8352602060048401528201527514d95b1b195c881a5cc81b9bdd081d995c9a599a595960521b6044820152fd5b50634e487b7160e01b60009081526021600452fd5b606490601f6040519162461bcd60e51b8352602060048401528201527f5265656e7472616e637947756172643a207265656e7472616e742063616c6c006044820152fd5b34610607576020366003190112610607576020615ba76004356176df565b6040516001600160a01b039091168152f35b34610607576020366003190112610607576001600160a01b03615bda616f9b565b1660005260126020526020604060002054604051908152f35b3461060757602036600319011261060757600435615c0f617640565b60648111615c1c57600b55005b60405162461bcd60e51b8152602060048201526012602482015271496e76616c69642070657263656e7461676560701b6044820152606490fd5b3461060757600036600319011261060757604051600c80548083526000918252602080840193926000805160206195e083398151915292915b828210615cb25761037f85615ca681890382617086565b60405191829182617496565b83546001600160a01b031686529485019460019384019390910190615c8f565b3461060757602036600319011261060757600435601c5481101561060757615cfb60209161744d565b905460405160039290921b1c6001600160a01b03168152f35b3461060757600036600319011261060757615d2d617640565b60018060a01b0360005416806000526016602052604060002090815460ff811615615d5457005b6113da92600160ff1980931617905560136020526002604060002091825416179055617c37565b34610607576020366003190112610607576001600160a01b03615d9c616f9b565b166000526013602052602060ff604060002054166109246040518092617440565b346106075760208060031936011261060757615dd7616f9b565b615ddf617d12565b506001600160a01b03166000818152601683526040902054615e039060ff16617cce565b600052600d815260406000209060ff600660405193615e2185616fff565b604051615e32816103f081856171c4565b8552604051615e48816103f081600186016171c4565b84860152604051615e60816103f081600286016171c4565b6040860152604051615e79816103f081600386016171c4565b6060860152604051615e92816103f081600486016171c4565b6080860152600581015460a0860152015416151560c083015261037f6040519282849384528301906173c0565b34610607576113da615ed036617116565b9060405192615ede8461706b565b6000845261778b565b34610607576000366003190112610607576113da618fbd565b3461060757602080600319360112610607576001600160a01b039081615f24616f9b565b16600052601581526040600020805490615f3d826180fd565b92615f4b6040519485617086565b82845260009182528082208185015b848410615f6f576040518061037f8882617302565b600e83600192604051615f8181616fe3565b85548152848601548382015260028601546040820152600386015460608201528a600487015416608082015260ff600587015460a08d8216818501521c16151560c0820152615fd2600687016174f6565b60e0820152815201920193019290615f5a565b34610607576020366003190112610607576001600160a01b03616006616f9b565b16600052601b602052616079604060002060405190616029826133df81846171c4565b60405161603d816103f081600186016171c4565b616095604051616054816103f081600288016171c4565b61608760ff60046003870154960154169360405197889760a0895260a0890190616cac565b908782036020890152616cac565b908582036040870152616cac565b916060840152151560808301520390f35b34610607576160b43661714b565b6160bf929192617640565b81600052602092600f84526160da6040600020541515618778565b6160e6815115156186ac565b6000838152600f855260409020815194906001908101906001600160401b03871161147d5761611987612126845461718a565b82601f881160011461617857968080600f9594936000805160206196c0833981519152999a60009361616d575b501b916000199060031b1c19161790555b85600052526152f88260036040600020016179ea565b88015192508b616146565b96601f1981169783600052846000209860005b8181106161d85750988291600f969594936000805160206196c08339815191529a9b106161bf575b5050811b019055616157565b87015160001960f88460031b161c1916905589806161b3565b878301518b559984019991860191860161618b565b3461060757604036600319011261060757602460006004358235825b82600052601060208181528160406000200180548410156163ff5761622f84869261886b565b505414616246575050616241906185ed565b616209565b91939450916000526018815260ff938460406000205416156163c35780600052828252616279848460406000200161886b565b50600190810154909590336001600160a01b03918216149081156163b5575b5015616360578160005283835260046162b7868660406000200161886b565b50015416616323579180600494926162d8946000525260406000200161886b565b5001805460ff1916821790555b156162ec57005b60649060106040519162461bcd60e51b8352602060048401528201526f14995d9a595dc81b9bdd08199bdd5b9960821b6044820152fd5b60405162461bcd60e51b8152600481018390526016818801527514995d9a595dc8185b1c9958591e4819195b195d195960521b6044820152606490fd5b60405162461bcd60e51b8152600481018490526028818901527f4f6e6c79207265766965776572206f72206f776e65722063616e2064656c6574604482015267652072657669657760c01b6064820152608490fd5b600054163314905088616298565b60405162461bcd60e51b8152600481018390526015818801527414995d9a595dc8191bd95cc81b9bdd08195e1a5cdd605a1b6044820152606490fd5b5050505050506162e5565b34610607576113da61641b36617116565b9161642e6164298433617826565b617729565b6178ee565b346106075760203660031901126106075760043561644f617640565b80600052600f6020526164686040600020541515618778565b80600052600f6020526000805160206196c08339815191526127cb60406000206003810160ff1981541690556040519182916040835260016040840191016171c4565b3461060757606036600319011261060757602480356004356044356001600160401b038111610607576164e29036906004016170fb565b90806000526020916010835260018060a01b036001604060002001541633146166505783151580616645575b15616601578051156165c35790601092916001600a54019081600a5561653261883a565b958287523385880152604087015260608601524260a0860152600052601882526040600020600160ff198254161790556000525260106040600020018054600160401b8110156165ae5761658b9160018201815561886b565b616599576113da9250618215565b82634e487b7160e01b60005260006004526000fd5b83634e487b7160e01b60005260416004526000fd5b60405162461bcd60e51b81526004810184905260178187015276436f6d6d656e742063616e6e6f7420626520656d70747960481b6044820152606490fd5b60405162461bcd60e51b815260048101849052601e818701527f526174696e67206d757374206265206265747765656e203120616e64203500006044820152606490fd5b50600584111561650e565b60405162461bcd60e51b8152600481018490526026818701527f53656c6c65722063616e6e6f7420726576696577207468656972206f776e20706044820152651c9bd91d58dd60d21b6064820152608490fd5b34610607576000366003190112610607576166bc617640565b336000526019602052604060002060018060a01b031981541690556000805160206196008339815191526040805133815260006020820152a1005b34610607576040366003190112610607576113da616713616fb1565b600435619170565b34610607576020366003190112610607576001600160a01b0361673c616f9b565b16600052601a602052602060ff604060002054166040519015158152f35b3461060757604036600319011261060757616773616f9b565b602435906001600160a01b03808061678a856176df565b1692169180831461688557803314908115616860575b50156167f557600083815260066020526040902080546001600160a01b031916831790556167cd836176df565b167f8c5be1e5ebec7d5bd14f71427d1e84f3dd0314c0f7b2291e5b200ac8c7c3b925600080a4005b60405162461bcd60e51b815260206004820152603d60248201527f4552433732313a20617070726f76652063616c6c6572206973206e6f7420746f60448201527f6b656e206f776e6572206f7220617070726f76656420666f7220616c6c0000006064820152608490fd5b9050600052600760205260406000203360005260205260ff60406000205416846167a0565b60405162461bcd60e51b815260206004820152602160248201527f4552433732313a20617070726f76616c20746f2063757272656e74206f776e656044820152603960f91b6064820152608490fd5b34610607576020366003190112610607576020615ba7600435617702565b34610607576000366003190112610607576040516000906002546169158161718a565b808352600191808316908115613373575060011461693d5761037f8361330581870382617086565b6002600090815260209450917f405787fa12a823e0f2b7631cc41b3ba8828b3321ca811111fa75cd3aa3bb5ace5b82841061698457505050810190910190613305816132f5565b805485850187015292850192810161696b565b346106075760003660031901126106075760088054600060015b82811115616bd057506169c3906185fc565b9060009260015b828111156169e0576040518061037f8682616f39565b8060005260106020818152604060002091600f8301549060ff938483831c161580616a1a575b505050505050616a15906185ed565b6169ca565b60409a969a5195616a2a87616fc7565b8254875260018301546001600160a01b031686880152604051616a54816103f081600288016171c4565b6040880152604051616a6d816103f081600388016171c4565b606088015260048301546080880152600583015460a0880152600694616a94868501618527565b60c0890152616aa560078501618527565b60e0890152616ab58a8501618527565b610100890152604051616acf816103f081600989016171c4565b610120890152604051616ae9816103f081600a89016171c4565b610140890152600b840154610160890152604051616b0e816103f081600c89016171c4565b610180890152604051616b28816103f081600d89016171c4565b6101a0890152600e8401546101c089015281811615156101e0890152891c161515610200870152156102208601520190815491616b64836180fd565b93616b726040519586617086565b8385526000918252808220918186015b858210616bb4575050505050509181616a1593610240616ba8940152610559828861864c565b94908680808080616a06565b8483600192616bc28761858c565b815201940191019092616b82565b8060005260ff601080602052600f60406000200154901c1615616bfc575b616bf7906185ed565b6169b1565b90616c09616bf7916185ed565b919050616bee565b346106075760203660031901126106075760043563ffffffff60e01b8116809103610607576020906380ac58cd60e01b8114908115616c6e575b8115616c5d575b506040519015158152f35b6301ffc9a760e01b14905082616c52565b635b5e139f60e01b81149150616c4b565b34610607576020366003190112610607576020906004356000526018825260ff6040600020541615158152f35b919082519283825260005b848110616cd8575050826000602080949584010152601f8019910116010190565b602081830181015184830182015201616cb7565b908082519081815260208091019281808460051b8301019501936000915b848310616d1a5750505050505090565b9091929394958480616d38600193601f198682030187528a51616cac565b9801930193019194939290616d0a565b908082519081815260208091019281808460051b8301019501936000915b848310616d765750505050505090565b9091929394958480600192601f1985820301865289519081518152848060a01b0383830151168382015260408083015190820152616dc36060808401519060c08091850152830190616cac565b9160808082015115159083015260a0809101519101529801930193019194939290616d66565b90616f36918051825260018060a01b036020820151166020830152616ef0616edc616ebd616ea9616e95616e81616e6f616e49616e3760408a015160408c61026091829101528c0190616cac565b60608a01518b820360608d0152616cac565b608089015160808b015260a089015160a08b015260c08901518a820360c08c0152616cec565b60e088015189820360e08b0152616cec565b6101008088015190898303908a0152616cec565b610120808701519088830390890152616cac565b610140808601519087830390880152616cac565b6101608085015190860152610180808501519086830390870152616cac565b6101a0808401519085830390860152616cac565b916101c080830151908201526101e08083015115159082015261020080830151151590820152610220808301511515908201526102408092015191818403910152616d48565b90565b602080820190808352835180925260408301928160408460051b8301019501936000915b848310616f6d5750505050505090565b9091929394958480616f8b600193603f198682030187528a51616de9565b9801930193019194939290616f5d565b600435906001600160a01b038216820361060757565b602435906001600160a01b038216820361060757565b61026081019081106001600160401b0382111761147d57604052565b61010081019081106001600160401b0382111761147d57604052565b60e081019081106001600160401b0382111761147d57604052565b608081019081106001600160401b0382111761147d57604052565b60a081019081106001600160401b0382111761147d57604052565b60c081019081106001600160401b0382111761147d57604052565b602081019081106001600160401b0382111761147d57604052565b601f909101601f19168101906001600160401b0382119082101761147d57604052565b6001600160401b03811161147d57601f01601f191660200190565b9291926170d0826170a9565b916170de6040519384617086565b829481845281830111610607578281602093846000960137010152565b9080601f8301121561060757816020616f36933591016170c4565b6060906003190112610607576001600160a01b0390600435828116810361060757916024359081168103610607579060443590565b9060606003198301126106075760043591602435906001600160401b0382116106075761717a916004016170fb565b9060443580151581036106075790565b90600182811c921680156171ba575b60208310146171a457565b634e487b7160e01b600052602260045260246000fd5b91607f1691617199565b90600092918054916171d58361718a565b91828252600193848116908160001461723757506001146171f7575b50505050565b90919394506000526020928360002092846000945b8386106172235750505050010190388080806171f1565b80548587018301529401938590820161720c565b9294505050602093945060ff191683830152151560051b010190388080806171f1565b616f369160e06172f16172df6172cd6172bb6172a96172976172858951610100808b528a0190616cac565b60208a015189820360208b0152616cac565b604089015188820360408a0152616cac565b60608801518782036060890152616cac565b60808701518682036080880152616cac565b60a086015185820360a0870152616cac565b60c085015184820360c0860152616cac565b9201519060e0818403910152616cac565b602080820190808352835180925260409283810182858560051b8401019601946000925b858410617337575050505050505090565b9091929394959685806173af600193603f198682030188528b51805182528381015184830152878101518883015260608082015190830152858060a01b0360808181840151169084015260a09081830151169083015260c08082015115159083015260e080910151916101008092820152019061725a565b990194019401929594939190617326565b9060c08061742b6174196174076173f56173e3885160e0895260e0890190616cac565b602089015188820360208a0152616cac565b60408801518782036040890152616cac565b60608701518682036060880152616cac565b60808601518582036080870152616cac565b9360a081015160a08501520151151591015290565b9060048210156132695752565b601c5481101561746857601c60005260206000200190600090565b634e487b7160e01b600052603260045260246000fd5b80548210156174685760005260206000200190600090565b6020908160408183019282815285518094520193019160005b8281106174bd575050505090565b83516001600160a01b0316855293810193928101926001016174af565b805482101561746857600052600e602060002091020190600090565b90600760e06040936175be85519161750d83616fe3565b61065583978051617522816103f081876171c4565b85528051617537816103f081600188016171c4565b6020860152805161754f816103f081600288016171c4565b818601528051617566816103f081600388016171c4565b6060860152805161757e816103f081600488016171c4565b60808601528051617596816103f081600588016171c4565b60a086015280516175ae816103f081600688016171c4565b60c08601525180968193016171c4565b0152565b95929091616f369897959492875260208701526040860152606085015260018060a01b0380921660808501521660a0830152151560c0820152610100908160e0820152019061725a565b90815180825260208080930193019160005b82811061762c575050505090565b83518552938101939281019260010161761e565b6000546001600160a01b0316330361765457565b606460405162461bcd60e51b815260206004820152602060248201527f4f776e61626c653a2063616c6c6572206973206e6f7420746865206f776e65726044820152fd5b1561769f57565b60405162461bcd60e51b8152602060048201526018602482015277115490cdcc8c4e881a5b9d985b1a59081d1bdad95b88125160421b6044820152606490fd5b6000908152600460205260409020546001600160a01b0316616f36811515617698565b61770e6127f6826179fb565b6000908152600660205260409020546001600160a01b031690565b1561773057565b60405162461bcd60e51b815260206004820152602d60248201527f4552433732313a2063616c6c6572206973206e6f7420746f6b656e206f776e6560448201526c1c881bdc88185c1c1c9bdd9959609a1b6064820152608490fd5b906177af93929161779f6164298433617826565b6177aa8383836178ee565b617a48565b156177b657565b60405162461bcd60e51b8152806177cf600482016177d3565b0390fd5b60809060208152603260208201527f4552433732313a207472616e7366657220746f206e6f6e20455243373231526560408201527131b2b4bb32b91034b6b83632b6b2b73a32b960711b60608201520190565b906001600160a01b03808061783a846176df565b1693169183831493841561786d575b508315617857575b50505090565b61786391929350617702565b1614388080617851565b909350600052600760205260406000208260005260205260ff604060002054169238617849565b1561789b57565b60405162461bcd60e51b815260206004820152602560248201527f4552433732313a207472616e736665722066726f6d20696e636f72726563742060448201526437bbb732b960d91b6064820152608490fd5b90617916916178fc846176df565b6001600160a01b0393918416928492909183168414617894565b1691821561799957816179339161792c866176df565b1614617894565b600080516020619680833981519152600084815260066020526040812060018060a01b03199081815416905583825260056020526040822060001981540190558482526040822060018154019055858252600460205284604083209182541617905580a4565b60405162461bcd60e51b8152602060048201526024808201527f4552433732313a207472616e7366657220746f20746865207a65726f206164646044820152637265737360e01b6064820152608490fd5b9060ff801983541691151516179055565b6000908152600460205260409020546001600160a01b0316151590565b3d15617a43573d90617a29826170a9565b91617a376040519384617086565b82523d6000602084013e565b606090565b91926000929190813b15617b3d57602091617a9e9185604051958680958194630a85bd0160e11b9b8c845233600485015260018060a01b0380951660248501526044840152608060648401526084830190616cac565b0393165af190829082617aee575b5050617ae057617aba617a18565b80519081617adb5760405162461bcd60e51b8152806177cf600482016177d3565b602001fd5b6001600160e01b0319161490565b909192506020813d8211617b35575b81617b0a60209383617086565b81010312617b315751906001600160e01b031982168203617b2e5750903880617aac565b80fd5b5080fd5b3d9150617afd565b5050505050600190565b15617b4e57565b60405162461bcd60e51b815260206004820152600e60248201526d115b585a5b081c995c5d5a5c995960921b6044820152606490fd5b15617b8b57565b60405162461bcd60e51b815260206004820152600e60248201526d141a1bdb99481c995c5d5a5c995960921b6044820152606490fd5b818110617bcc575050565b60008155600101617bc1565b9190601f8111617be757505050565b617c13926000526020600020906020601f840160051c83019310617c15575b601f0160051c0190617bc1565b565b9091508190617c06565b9060048110156132695760ff80198354169116179055565b600c54600160401b81101561147d576001810180600c5581101561746857600c6000526000805160206195e08339815191520180546001600160a01b0319166001600160a01b03909216919091179055565b15617c9057565b60405162461bcd60e51b8152602060048201526016602482015275496e76616c69642073656c6c6572206164647265737360501b6044820152606490fd5b15617cd557565b60405162461bcd60e51b815260206004820152601560248201527414d95b1b195c881b9bdd081c9959da5cdd195c9959605a1b6044820152606490fd5b60405190617d1f82616fff565b600060c0836060808252806020830152806040830152808083015260808201528260a08201520152565b6001600160a01b0390811690617d60821515617c89565b600054168114617d7e57600052601360205260ff6040600020541690565b50600290565b903590601e198136030182121561060757018035906001600160401b0382116106075760200191813603831361060757565b15617dbd57565b60405162461bcd60e51b81526020600482015260146024820152734e616d652063616e6e6f7420626520656d70747960601b6044820152606490fd5b15617e0057565b60405162461bcd60e51b815260206004820152601c60248201527b05072696365206d7573742062652067726561746572207468616e20360241b6044820152606490fd5b15617e4b57565b60405162461bcd60e51b815260206004820152601c60248201527b053746f636b206d7573742062652067726561746572207468616e20360241b6044820152606490fd5b15617e9657565b60405162461bcd60e51b815260206004820152601d60248201527f576569676874206d7573742062652067726561746572207468616e20300000006044820152606490fd5b15617ee257565b60405162461bcd60e51b81526020600482015260156024820152744d6f64656c2063616e6e6f7420626520656d70747960581b6044820152606490fd5b15617f2657565b60405162461bcd60e51b81526020600482015260156024820152744272616e642063616e6e6f7420626520656d70747960581b6044820152606490fd5b15617f6a57565b60405162461bcd60e51b815260206004820152601a6024820152790534b55206d7573742062652067726561746572207468616e20360341b6044820152606490fd5b903590601e198136030182121561060757018035906001600160401b03821161060757602001918160051b3603831361060757565b15617fe857565b60405162461bcd60e51b8152602060048201526016602482015275496d616765732063616e6e6f7420626520656d70747960501b6044820152606490fd5b1561802d57565b60405162461bcd60e51b815260206004820152601c60248201527b496d616765732063616e6e6f74206265206d6f7265207468616e203560201b6044820152606490fd5b6040519061807e82616fc7565b8161024060009182815282602082015260609283604083015283808301528060808301528060a08301528360c08301528360e08301528361010083015283610120830152836101408301528061016083015283610180830152836101a0830152806101c0830152806101e0830152806102008301526102208201520152565b6001600160401b03811161147d5760051b60200190565b92919092618121846180fd565b9161812f6040519384617086565b829480845260208094019060051b8301928284116106075780915b84831061815957505050505050565b82356001600160401b03811161060757869161817886849386016170fb565b81520192019161814a565b61818d815461718a565b9081618197575050565b81601f600093116001146181a9575055565b9080839182526181c8601f60208420940160051c840160018501617bc1565b5555565b90600160401b811161147d578154918181558282106181ea57505050565b600052602060002091820191015b818110618203575050565b8061820f600192618183565b016181f8565b81518155602080830151600180840180546001600160a01b0319166001600160a01b03939093169290921790915560408401516002840155606084015180519394909390926003860192906001600160401b03831161147d576182828361827c865461718a565b86617bd8565b80601f84116001146182da57509180809260a09695946005986000946182cf575b50501b916000199060031b1c19161790555b6182c860808201511515600486016179ea565b0151910155565b0151925038806182a3565b91939495601f1984168660005283600020936000905b828210618332575050916005979593918560a098969410618319575b505050811b0190556182b5565b015160001960f88460031b161c1916905538808061830c565b8088869782949787015181550196019401906182f0565b8054600160401b81101561147d576183669160018201815561747e565b819291549060031b91821b91600019901b1916179055565b1561838557565b60405162461bcd60e51b815260206004820152601c60248201527b115490cdcc8c4e881d1bdad95b88185b1c9958591e481b5a5b9d195960221b6044820152606490fd5b156183d057565b60405162461bcd60e51b8152602060048201526016602482015275141c9bd91d58dd08191bd95cc81b9bdd08195e1a5cdd60521b6044820152606490fd5b1561841557565b60405162461bcd60e51b8152602060048201526012602482015271141c9bd91d58dd081a5cc819195b195d195960721b6044820152606490fd5b9080821461852357618461815461718a565b906001600160401b03821161147d5781906184808261827c865461718a565b600090601f83116001146184b7576000926184ac575b50508160011b916000199060031b1c1916179055565b015490503880618496565b81526020808220858352818320935090601f1985169083905b82821061850a5750509084600195949392106184f1575b505050811b019055565b015460001960f88460031b161c191690553880806184e7565b84958192958501548155600180910196019401906184d0565b5050565b908154618533816180fd565b9260409361854385519182617086565b828152809460208092019260005281600020906000935b85851061856957505050505050565b6001848192845161857e816103f0818a6171c4565b81520193019401939161855a565b9060405161859981617050565b60a06005829480548452600180841b036001820154166020850152600281015460408501526040516185d2816103f081600386016171c4565b606085015260ff600482015416151560808501520154910152565b60001981146114675760010190565b90618606826180fd565b6186136040519182617086565b8281528092618624601f19916180fd565b019060005b82811061863557505050565b602090618640618071565b82828501015201618629565b80518210156174685760209160051b010190565b1561866757565b60405162461bcd60e51b815260206004820152601d60248201527f43617465676f7279206e616d652063616e6e6f7420626520656d7074790000006044820152606490fd5b156186b357565b606460405162461bcd60e51b815260206004820152602060248201527f53756263617465676f7279206e616d652063616e6e6f7420626520656d7074796044820152fd5b908210156174685761870e9160051b810190617d84565b9091565b1561871957565b60405162461bcd60e51b815260206004820152601760248201527610d85d1959dbdc9e48191bd95cc81b9bdd08195e1a5cdd604a1b6044820152606490fd5b90618770602091949394604084526040840190616cac565b931515910152565b1561877f57565b60405162461bcd60e51b815260206004820152601a60248201527914dd5898d85d1959dbdc9e48191bd95cc81b9bdd08195e1a5cdd60321b6044820152606490fd5b9060405191828154918282526020928383019160005283600020936000905b8282106187f657505050617c1392500383617086565b8554845260019586019588955093810193909101906187e0565b60005b82811061881f57505050565b606082820152602001618813565b9190820391821161146757565b6040519061884782617050565b600060a0838281528260208201528260408201526060808201528260808201520152565b8054821015617468576000526006602060002091020190600090565b8054600160401b81101561147d576188a69060019283820181556174da565b929092618f4d5780518355602080820151838501556040820151600285015560608201516003808601919091556080830151600480870180546001600160a01b0319166001600160a01b0393841617905560a08086015160058901805460c08901516001600160a81b0319909116929095169190911793151590911b60ff60a01b169290921790915560e0909301518051805191966001600160401b039593949193926006820190878111618f385761896381612126845461718a565b8084601f97888311600114618ed657600092618ecb575b505060001982891b1c191690891b1790555b6007810182890151805190888211618c955781906189ae8261827c865461718a565b8590888311600114618e6957600092618e5e575b505060001982891b1c191690891b1790555b600881016040890151805190888211618c955781906189f78261827c865461718a565b8590888311600114618dfc57600092618df1575b505060001982891b1c191690891b1790555b600981016060890151805190888211618c95578190618a408261827c865461718a565b8590888311600114618d8f57600092618d84575b505060001982891b1c191690891b1790555b600a81016080890151805190888211618c95578190618a898261827c865461718a565b8590888311600114618d2257600092618d17575b505060001982891b1c191690891b1790555b600b810160a0890151805190888211618c95578190618ad28261827c865461718a565b8590888311600114618cb557600092618caa575b505060001982891b1c191690891b1790555b600c810160c0890151805190888211618c9557618b1982611bd3855461718a565b8490878311600114618c28579180600d949260e09694600092618c1d575b5050600019828b1b1c1916908b1b1790555b01970151918251958611618c085750618b6c85618b66895461718a565b89617bd8565b80928511600114618ba25750938394918492600095618b97575b50501b92600019911b1c1916179055565b015193503880618b86565b92919084601f1981168860005285600020956000905b89838310618bee5750505010618bd4575b50505050811b019055565b01519060f884600019921b161c1916905538808080618bc9565b858701518955909701969485019488935090810190618bb8565b604190634e487b7160e01b6000525260246000fd5b015190503880618b37565b8a9291601f1983169185600052876000209260005b89828210618c7f5750509160e09795939185600d98969410618c67575b505050811b019055618b49565b0151600019838d1b60f8161c19169055388080618c5a565b8385015186558f97909501949384019301618c3d565b604186634e487b7160e01b6000525260246000fd5b015190503880618ae6565b908b9350601f1983169185600052876000209260005b89828210618d015750508411618ce9575b505050811b019055618af8565b0151600019838b1b60f8161c19169055388080618cdc565b8385015186558f97909501949384019301618ccb565b015190503880618a9d565b908b9350601f1983169185600052876000209260005b89828210618d6e5750508411618d56575b505050811b019055618aaf565b0151600019838b1b60f8161c19169055388080618d49565b8385015186558f97909501949384019301618d38565b015190503880618a54565b908b9350601f1983169185600052876000209260005b89828210618ddb5750508411618dc3575b505050811b019055618a66565b0151600019838b1b60f8161c19169055388080618db6565b8385015186558f97909501949384019301618da5565b015190503880618a0b565b908b9350601f1983169185600052876000209260005b89828210618e485750508411618e30575b505050811b019055618a1d565b0151600019838b1b60f8161c19169055388080618e23565b8385015186558f97909501949384019301618e12565b0151905038806189c2565b908b9350601f1983169185600052876000209260005b89828210618eb55750508411618e9d575b505050811b0190556189d4565b0151600019838b1b60f8161c19169055388080618e90565b8385015186558f97909501949384019301618e7f565b01519050388061897a565b908b9350601f1983169185600052876000209260005b89828210618f225750508411618f0a575b505050811b01905561898c565b0151600019838b1b60f8161c19169055388080618efd565b8385015186558f97909501949384019301618eec565b604185634e487b7160e01b6000525260246000fd5b634e487b7160e01b600052600060045260246000fd5b15618f6a57565b60405162461bcd60e51b815260206004820152602560248201527f4f6e6c792076657269666965642073656c6c6572206f72206f776e657220616c6044820152641b1bddd95960da1b6064820152608490fd5b600080546001600160a01b039291908316331461908857338152601960205260408120548316801561904457808252601360205260ff60408320541693600485101561903057600261901b949514928315619023575b505050618f63565b617c1361908f565b5416149050388080619013565b634e487b7160e01b83526021600452602483fd5b509091601360205260ff60408320541660048110156190305790600261907593921491821561907a575b5050618f63565b61901b565b90915054163314388061906e565b509050617c135b600033815260126020526040812054801561913257600b54808202908282040361911e57906190ea6190c860646190f09404809361882d565b33855260126020526040852085905584549092906001600160a01b03166194fb565b336194fb565b6040519081527f8ad64a0ac7700dd8425ab0499f107cb6e2cd1581d803c5b8c1c79dcb8190b1af60203392a2565b634e487b7160e01b83526011600452602483fd5b60405162461bcd60e51b81526020600482015260166024820152754e6f2062616c616e636520746f20776974686472617760501b6044820152606490fd5b6000805490939291906001600160a01b039081163314619236573385526019602052604085205481169081156191ef57818652601360205260ff60408720541660048110156191db5791617c1395969160026191d6941492831561902357505050618f63565b61923e565b634e487b7160e01b87526021600452602487fd5b9050601360205260ff604086205416600481101561922257946191d6916002617c1396971491821561907a575050618f63565b634e487b7160e01b86526021600452602486fd5b50617c139293505b600091825b60018060a01b0380831680600052601460208181526040928360002080548710156194ed57619273878a926174da565b50541461928d575050505050619288906185ed565b619243565b8091929394969798506000528282526192a985856000206174da565b509560ff60058098015460a01c166194ab578160005283835280876192d188886000206174da565b50015416331490811561949d575b501561944657906192f994939291600052526000206174da565b5001805460ff60a01b1916600160a01b17905560015b1561940c57816000526020916010835260018060a01b039260019384936040828682600020015416866000905b61935e575b5050600080516020619620833981519152949550519586521693a3565b8160005260158087528360002080548310156194055761937f838a926174da565b505414806193e0575b61939c5750619396906185ed565b8761933c565b600080516020619620833981519152979850906193c4916005936000528752836000206174da565b5001805460ff60a01b1916600160a01b17905586959438619341565b50826000528087528560046193f884876000206174da565b5001541686861614619388565b5050619341565b60405162461bcd60e51b8152602060048201526012602482015271141d5c98da185cd9481b9bdd08199bdd5b9960721b6044820152606490fd5b835162461bcd60e51b815260048101839052602a60248201527f4f6e6c792073656c6c6572206f72206f776e65722063616e206d61726b2061736044820152690819195b1a5d995c995960b21b6064820152608490fd5b6000541633149050386192df565b845162461bcd60e51b815260048101849052601b60248201527a105b1c9958591e481b585c9ad95908185cc819195b1a5d995c9959602a1b6044820152606490fd5b50505050505050909161930f565b6001600160a01b0316801561955a57600080809381935af161951b617a18565b501561952357565b60405162461bcd60e51b815260206004820152600f60248201526e151c985b9cd9995c8819985a5b1959608a1b6044820152606490fd5b60405162461bcd60e51b815260206004820152600f60248201526e496e76616c6964206164647265737360881b6044820152606490fd5b600090600c8054925b8381106195aa5750505050600090565b6000828152602090208101546001600160a01b038481169116146195d6576195d1906185ed565b61959a565b5050505060019056fedf6966c971051c3d54ec59162606531493a51404a002842f56009d7e5cf4a8c732b449308c94e824ccedd9877932cd82f89a481c06c4643a0cb2914454a8c582f9dc8543b583e01f592678422369b2777e3649761f5808ae432cb1c24ca9438c79d3150b1760cd391f5006c9543aea088e4c9060f3e582ea0a948dc6649b25da8be0079c531659141344cd1fd0a4f28419497f9722a3daafe3b4186f6b6457e0ddf252ad1be2c89b69c2b068fc378daa952ba7f163c4a11628f55a4df523b3ef5a8a989e12f3ce7cf805b73156a361da5d8369f0c37173209308910b322117ac4cfca6396923c3eee68be58aa35fd6623ae5d67bb552da5e1de2e0d5854166dca164736f6c6343000813000a",
  "linkReferences": {},
  "deployedLinkReferences": {}
}