{
  "_format": "hh-sol-artifact-1",
  "contractName": "HemShop",
  "sourceName": "contracts/HemShop.sol",
  "abi": [
    {
      "inputs": [
        {
          "internalType": "uint256",
          "name": "_pct",
          "type": "uint256"
        }
      ],
      "stateMutability": "nonpayable",
      "type": "constructor"
    },
    {
      "anonymous": false,
      "inputs": [
        {
          "indexed": true,
          "internalType": "address",
          "name": "owner",
          "type": "address"
        },
        {
          "indexed": true,
          "internalType": "address",
          "name": "approved",
          "type": "address"
        },
        {
          "indexed": true,
          "internalType": "uint256",
          "name": "tokenId",
          "type": "uint256"
        }
      ],
      "name": "Approval",
      "type": "event"
    },
    {
      "anonymous": false,
      "inputs": [
        {
          "indexed": true,
          "internalType": "address",
          "name": "owner",
          "type": "address"
        },
        {
          "indexed": true,
          "internalType": "address",
          "name": "operator",
          "type": "address"
        },
        {
          "indexed": false,
          "internalType": "bool",
          "name": "approved",
          "type": "bool"
        }
      ],
      "name": "ApprovalForAll",
      "type": "event"
    },
    {
      "anonymous": false,
      "inputs": [
        {
          "indexed": true,
          "internalType": "address",
          "name": "seller",
          "type": "address"
        },
        {
          "indexed": false,
          "internalType": "uint256",
          "name": "newBalance",
          "type": "uint256"
        }
      ],
      "name": "BalanceUpdated",
      "type": "event"
    },
    {
      "anonymous": false,
      "inputs": [
        {
          "indexed": true,
          "internalType": "uint256",
          "name": "productId",
          "type": "uint256"
        },
        {
          "indexed": true,
          "internalType": "address",
          "name": "buyer",
          "type": "address"
        },
        {
          "indexed": false,
          "internalType": "bool",
          "name": "isDelivered",
          "type": "bool"
        }
      ],
      "name": "DeliveryStatusUpdated",
      "type": "event"
    },
    {
      "anonymous": false,
      "inputs": [
        {
          "indexed": true,
          "internalType": "address",
          "name": "previousOwner",
          "type": "address"
        },
        {
          "indexed": true,
          "internalType": "address",
          "name": "newOwner",
          "type": "address"
        }
      ],
      "name": "OwnershipTransferred",
      "type": "event"
    },
    {
      "anonymous": false,
      "inputs": [
        {
          "indexed": true,
          "internalType": "uint256",
          "name": "productId",
          "type": "uint256"
        },
        {
          "indexed": true,
          "internalType": "address",
          "name": "buyer",
          "type": "address"
        },
        {
          "indexed": true,
          "internalType": "address",
          "name": "seller",
          "type": "address"
        },
        {
          "indexed": false,
          "internalType": "uint256",
          "name": "price",
          "type": "uint256"
        },
        {
          "indexed": false,
          "internalType": "uint256",
          "name": "timestamp",
          "type": "uint256"
        }
      ],
      "name": "ProductPurchased",
      "type": "event"
    },
    {
      "anonymous": false,
      "inputs": [
        {
          "indexed": true,
          "internalType": "uint256",
          "name": "productId",
          "type": "uint256"
        },
        {
          "indexed": true,
          "internalType": "address",
          "name": "buyer",
          "type": "address"
        },
        {
          "indexed": true,
          "internalType": "address",
          "name": "seller",
          "type": "address"
        },
        {
          "indexed": false,
          "internalType": "uint256",
          "name": "totalAmount",
          "type": "uint256"
        },
        {
          "indexed": false,
          "internalType": "uint256",
          "name": "basePrice",
          "type": "uint256"
        },
        {
          "indexed": false,
          "internalType": "uint256",
          "name": "timestamp",
          "type": "uint256"
        }
      ],
      "name": "PurchaseRecorded",
      "type": "event"
    },
    {
      "anonymous": false,
      "inputs": [
        {
          "indexed": true,
          "internalType": "address",
          "name": "seller",
          "type": "address"
        },
        {
          "indexed": false,
          "internalType": "uint256",
          "name": "timestamp",
          "type": "uint256"
        }
      ],
      "name": "SellerRegistered",
      "type": "event"
    },
    {
      "anonymous": false,
      "inputs": [
        {
          "indexed": true,
          "internalType": "address",
          "name": "seller",
          "type": "address"
        },
        {
          "indexed": false,
          "internalType": "enum HemShop.SellerStatus",
          "name": "status",
          "type": "uint8"
        }
      ],
      "name": "SellerStatusUpdated",
      "type": "event"
    },
    {
      "anonymous": false,
      "inputs": [
        {
          "indexed": true,
          "internalType": "address",
          "name": "from",
          "type": "address"
        },
        {
          "indexed": true,
          "internalType": "address",
          "name": "to",
          "type": "address"
        },
        {
          "indexed": true,
          "internalType": "uint256",
          "name": "tokenId",
          "type": "uint256"
        }
      ],
      "name": "Transfer",
      "type": "event"
    },
    {
      "inputs": [
        {
          "internalType": "address",
          "name": "to",
          "type": "address"
        },
        {
          "internalType": "uint256",
          "name": "tokenId",
          "type": "uint256"
        }
      ],
      "name": "approve",
      "outputs": [],
      "stateMutability": "nonpayable",
      "type": "function"
    },
    {
      "inputs": [
        {
          "internalType": "address",
          "name": "owner",
          "type": "address"
        }
      ],
      "name": "balanceOf",
      "outputs": [
        {
          "internalType": "uint256",
          "name": "",
          "type": "uint256"
        }
      ],
      "stateMutability": "view",
      "type": "function"
    },
    {
      "inputs": [
        {
          "internalType": "uint256",
          "name": "productId",
          "type": "uint256"
        }
      ],
      "name": "buyProduct",
      "outputs": [],
      "stateMutability": "payable",
      "type": "function"
    },
    {
      "inputs": [
        {
          "internalType": "address",
          "name": "",
          "type": "address"
        },
        {
          "internalType": "uint256",
          "name": "",
          "type": "uint256"
        }
      ],
      "name": "buyerPurchaseHistory",
      "outputs": [
        {
          "internalType": "uint256",
          "name": "productId",
          "type": "uint256"
        },
        {
          "internalType": "uint256",
          "name": "totalAmount",
          "type": "uint256"
        },
        {
          "internalType": "uint256",
          "name": "basePrice",
          "type": "uint256"
        },
        {
          "internalType": "uint256",
          "name": "timestamp",
          "type": "uint256"
        },
        {
          "internalType": "address",
          "name": "buyer",
          "type": "address"
        },
        {
          "internalType": "address",
          "name": "seller",
          "type": "address"
        },
        {
          "internalType": "bool",
          "name": "isDelivered",
          "type": "bool"
        }
      ],
      "stateMutability": "view",
      "type": "function"
    },
    {
      "inputs": [
        {
          "components": [
            {
              "internalType": "string",
              "name": "name",
              "type": "string"
            },
            {
              "internalType": "string",
              "name": "description",
              "type": "string"
            },
            {
              "internalType": "uint256",
              "name": "price",
              "type": "uint256"
            },
            {
              "internalType": "uint256",
              "name": "stock",
              "type": "uint256"
            },
            {
              "internalType": "string",
              "name": "color",
              "type": "string"
            },
            {
              "internalType": "string",
              "name": "size",
              "type": "string"
            },
            {
              "internalType": "string[]",
              "name": "images",
              "type": "string[]"
            },
            {
              "internalType": "string",
              "name": "category",
              "type": "string"
            },
            {
              "internalType": "string",
              "name": "subCategory",
              "type": "string"
            },
            {
              "internalType": "string",
              "name": "model",
              "type": "string"
            },
            {
              "internalType": "string",
              "name": "brand",
              "type": "string"
            },
            {
              "internalType": "uint256",
              "name": "weight",
              "type": "uint256"
            },
            {
              "internalType": "uint256",
              "name": "sku",
              "type": "uint256"
            }
          ],
          "internalType": "struct HemShop.ProductInput",
          "name": "input",
          "type": "tuple"
        }
      ],
      "name": "createProduct",
      "outputs": [],
      "stateMutability": "nonpayable",
      "type": "function"
    },
    {
      "inputs": [
        {
          "internalType": "uint256",
          "name": "productId",
          "type": "uint256"
        },
        {
          "internalType": "uint256",
          "name": "rating",
          "type": "uint256"
        },
        {
          "internalType": "string",
          "name": "comment",
          "type": "string"
        }
      ],
      "name": "createReview",
      "outputs": [],
      "stateMutability": "nonpayable",
      "type": "function"
    },
    {
      "inputs": [
        {
          "internalType": "uint256",
          "name": "productId",
          "type": "uint256"
        }
      ],
      "name": "deleteProduct",
      "outputs": [],
      "stateMutability": "nonpayable",
      "type": "function"
    },
    {
      "inputs": [
        {
          "internalType": "uint256",
          "name": "productId",
          "type": "uint256"
        },
        {
          "internalType": "uint256",
          "name": "reviewId",
          "type": "uint256"
        }
      ],
      "name": "deleteReview",
      "outputs": [],
      "stateMutability": "nonpayable",
      "type": "function"
    },
    {
      "inputs": [],
      "name": "getAllProducts",
      "outputs": [
        {
          "components": [
            {
              "internalType": "uint256",
              "name": "id",
              "type": "uint256"
            },
            {
              "internalType": "address",
              "name": "seller",
              "type": "address"
            },
            {
              "internalType": "string",
              "name": "name",
              "type": "string"
            },
            {
              "internalType": "string",
              "name": "description",
              "type": "string"
            },
            {
              "internalType": "uint256",
              "name": "price",
              "type": "uint256"
            },
            {
              "internalType": "uint256",
              "name": "stock",
              "type": "uint256"
            },
            {
              "internalType": "string",
              "name": "color",
              "type": "string"
            },
            {
              "internalType": "string",
              "name": "size",
              "type": "string"
            },
            {
              "internalType": "string[]",
              "name": "images",
              "type": "string[]"
            },
            {
              "internalType": "string",
              "name": "category",
              "type": "string"
            },
            {
              "internalType": "string",
              "name": "subCategory",
              "type": "string"
            },
            {
              "internalType": "uint256",
              "name": "weight",
              "type": "uint256"
            },
            {
              "internalType": "string",
              "name": "model",
              "type": "string"
            },
            {
              "internalType": "string",
              "name": "brand",
              "type": "string"
            },
            {
              "internalType": "uint256",
              "name": "sku",
              "type": "uint256"
            },
            {
              "internalType": "bool",
              "name": "soldout",
              "type": "bool"
            },
            {
              "internalType": "bool",
              "name": "wishlist",
              "type": "bool"
            },
            {
              "internalType": "bool",
              "name": "deleted",
              "type": "bool"
            },
            {
              "components": [
                {
                  "internalType": "uint256",
                  "name": "reviewId",
                  "type": "uint256"
                },
                {
                  "internalType": "address",
                  "name": "reviewer",
                  "type": "address"
                },
                {
                  "internalType": "uint256",
                  "name": "rating",
                  "type": "uint256"
                },
                {
                  "internalType": "string",
                  "name": "comment",
                  "type": "string"
                },
                {
                  "internalType": "bool",
                  "name": "deleted",
                  "type": "bool"
                }
              ],
              "internalType": "struct HemShop.ReviewStruct[]",
              "name": "reviews",
              "type": "tuple[]"
            }
          ],
          "internalType": "struct HemShop.ProductStruct[]",
          "name": "",
          "type": "tuple[]"
        }
      ],
      "stateMutability": "view",
      "type": "function"
    },
    {
      "inputs": [
        {
          "internalType": "uint256",
          "name": "tokenId",
          "type": "uint256"
        }
      ],
      "name": "getApproved",
      "outputs": [
        {
          "internalType": "address",
          "name": "",
          "type": "address"
        }
      ],
      "stateMutability": "view",
      "type": "function"
    },
    {
      "inputs": [
        {
          "internalType": "address",
          "name": "buyer",
          "type": "address"
        }
      ],
      "name": "getBuyerPurchaseHistory",
      "outputs": [
        {
          "components": [
            {
              "internalType": "uint256",
              "name": "productId",
              "type": "uint256"
            },
            {
              "internalType": "uint256",
              "name": "totalAmount",
              "type": "uint256"
            },
            {
              "internalType": "uint256",
              "name": "basePrice",
              "type": "uint256"
            },
            {
              "internalType": "uint256",
              "name": "timestamp",
              "type": "uint256"
            },
            {
              "internalType": "address",
              "name": "buyer",
              "type": "address"
            },
            {
              "internalType": "address",
              "name": "seller",
              "type": "address"
            },
            {
              "internalType": "bool",
              "name": "isDelivered",
              "type": "bool"
            }
          ],
          "internalType": "struct HemShop.PurchaseHistoryStruct[]",
          "name": "",
          "type": "tuple[]"
        }
      ],
      "stateMutability": "view",
      "type": "function"
    },
    {
      "inputs": [],
      "name": "getMyProducts",
      "outputs": [
        {
          "components": [
            {
              "internalType": "uint256",
              "name": "id",
              "type": "uint256"
            },
            {
              "internalType": "address",
              "name": "seller",
              "type": "address"
            },
            {
              "internalType": "string",
              "name": "name",
              "type": "string"
            },
            {
              "internalType": "string",
              "name": "description",
              "type": "string"
            },
            {
              "internalType": "uint256",
              "name": "price",
              "type": "uint256"
            },
            {
              "internalType": "uint256",
              "name": "stock",
              "type": "uint256"
            },
            {
              "internalType": "string",
              "name": "color",
              "type": "string"
            },
            {
              "internalType": "string",
              "name": "size",
              "type": "string"
            },
            {
              "internalType": "string[]",
              "name": "images",
              "type": "string[]"
            },
            {
              "internalType": "string",
              "name": "category",
              "type": "string"
            },
            {
              "internalType": "string",
              "name": "subCategory",
              "type": "string"
            },
            {
              "internalType": "uint256",
              "name": "weight",
              "type": "uint256"
            },
            {
              "internalType": "string",
              "name": "model",
              "type": "string"
            },
            {
              "internalType": "string",
              "name": "brand",
              "type": "string"
            },
            {
              "internalType": "uint256",
              "name": "sku",
              "type": "uint256"
            },
            {
              "internalType": "bool",
              "name": "soldout",
              "type": "bool"
            },
            {
              "internalType": "bool",
              "name": "wishlist",
              "type": "bool"
            },
            {
              "internalType": "bool",
              "name": "deleted",
              "type": "bool"
            },
            {
              "components": [
                {
                  "internalType": "uint256",
                  "name": "reviewId",
                  "type": "uint256"
                },
                {
                  "internalType": "address",
                  "name": "reviewer",
                  "type": "address"
                },
                {
                  "internalType": "uint256",
                  "name": "rating",
                  "type": "uint256"
                },
                {
                  "internalType": "string",
                  "name": "comment",
                  "type": "string"
                },
                {
                  "internalType": "bool",
                  "name": "deleted",
                  "type": "bool"
                }
              ],
              "internalType": "struct HemShop.ReviewStruct[]",
              "name": "reviews",
              "type": "tuple[]"
            }
          ],
          "internalType": "struct HemShop.ProductStruct[]",
          "name": "",
          "type": "tuple[]"
        }
      ],
      "stateMutability": "view",
      "type": "function"
    },
    {
      "inputs": [
        {
          "internalType": "uint256",
          "name": "productId",
          "type": "uint256"
        }
      ],
      "name": "getProduct",
      "outputs": [
        {
          "components": [
            {
              "internalType": "uint256",
              "name": "id",
              "type": "uint256"
            },
            {
              "internalType": "address",
              "name": "seller",
              "type": "address"
            },
            {
              "internalType": "string",
              "name": "name",
              "type": "string"
            },
            {
              "internalType": "string",
              "name": "description",
              "type": "string"
            },
            {
              "internalType": "uint256",
              "name": "price",
              "type": "uint256"
            },
            {
              "internalType": "uint256",
              "name": "stock",
              "type": "uint256"
            },
            {
              "internalType": "string",
              "name": "color",
              "type": "string"
            },
            {
              "internalType": "string",
              "name": "size",
              "type": "string"
            },
            {
              "internalType": "string[]",
              "name": "images",
              "type": "string[]"
            },
            {
              "internalType": "string",
              "name": "category",
              "type": "string"
            },
            {
              "internalType": "string",
              "name": "subCategory",
              "type": "string"
            },
            {
              "internalType": "uint256",
              "name": "weight",
              "type": "uint256"
            },
            {
              "internalType": "string",
              "name": "model",
              "type": "string"
            },
            {
              "internalType": "string",
              "name": "brand",
              "type": "string"
            },
            {
              "internalType": "uint256",
              "name": "sku",
              "type": "uint256"
            },
            {
              "internalType": "bool",
              "name": "soldout",
              "type": "bool"
            },
            {
              "internalType": "bool",
              "name": "wishlist",
              "type": "bool"
            },
            {
              "internalType": "bool",
              "name": "deleted",
              "type": "bool"
            },
            {
              "components": [
                {
                  "internalType": "uint256",
                  "name": "reviewId",
                  "type": "uint256"
                },
                {
                  "internalType": "address",
                  "name": "reviewer",
                  "type": "address"
                },
                {
                  "internalType": "uint256",
                  "name": "rating",
                  "type": "uint256"
                },
                {
                  "internalType": "string",
                  "name": "comment",
                  "type": "string"
                },
                {
                  "internalType": "bool",
                  "name": "deleted",
                  "type": "bool"
                }
              ],
              "internalType": "struct HemShop.ReviewStruct[]",
              "name": "reviews",
              "type": "tuple[]"
            }
          ],
          "internalType": "struct HemShop.ProductStruct",
          "name": "",
          "type": "tuple"
        }
      ],
      "stateMutability": "view",
      "type": "function"
    },
    {
      "inputs": [
        {
          "internalType": "uint256",
          "name": "productId",
          "type": "uint256"
        }
      ],
      "name": "getReviews",
      "outputs": [
        {
          "components": [
            {
              "internalType": "uint256",
              "name": "reviewId",
              "type": "uint256"
            },
            {
              "internalType": "address",
              "name": "reviewer",
              "type": "address"
            },
            {
              "internalType": "uint256",
              "name": "rating",
              "type": "uint256"
            },
            {
              "internalType": "string",
              "name": "comment",
              "type": "string"
            },
            {
              "internalType": "bool",
              "name": "deleted",
              "type": "bool"
            }
          ],
          "internalType": "struct HemShop.ReviewStruct[]",
          "name": "",
          "type": "tuple[]"
        }
      ],
      "stateMutability": "view",
      "type": "function"
    },
    {
      "inputs": [
        {
          "internalType": "address",
          "name": "seller",
          "type": "address"
        }
      ],
      "name": "getSellerBalance",
      "outputs": [
        {
          "internalType": "uint256",
          "name": "",
          "type": "uint256"
        }
      ],
      "stateMutability": "view",
      "type": "function"
    },
    {
      "inputs": [
        {
          "internalType": "address",
          "name": "seller",
          "type": "address"
        }
      ],
      "name": "getSellerPurchaseHistory",
      "outputs": [
        {
          "components": [
            {
              "internalType": "uint256",
              "name": "productId",
              "type": "uint256"
            },
            {
              "internalType": "uint256",
              "name": "totalAmount",
              "type": "uint256"
            },
            {
              "internalType": "uint256",
              "name": "basePrice",
              "type": "uint256"
            },
            {
              "internalType": "uint256",
              "name": "timestamp",
              "type": "uint256"
            },
            {
              "internalType": "address",
              "name": "buyer",
              "type": "address"
            },
            {
              "internalType": "address",
              "name": "seller",
              "type": "address"
            },
            {
              "internalType": "bool",
              "name": "isDelivered",
              "type": "bool"
            }
          ],
          "internalType": "struct HemShop.PurchaseHistoryStruct[]",
          "name": "",
          "type": "tuple[]"
        }
      ],
      "stateMutability": "view",
      "type": "function"
    },
    {
      "inputs": [
        {
          "internalType": "address",
          "name": "owner",
          "type": "address"
        },
        {
          "internalType": "address",
          "name": "operator",
          "type": "address"
        }
      ],
      "name": "isApprovedForAll",
      "outputs": [
        {
          "internalType": "bool",
          "name": "",
          "type": "bool"
        }
      ],
      "stateMutability": "view",
      "type": "function"
    },
    {
      "inputs": [
        {
          "internalType": "uint256",
          "name": "productId",
          "type": "uint256"
        },
        {
          "internalType": "address",
          "name": "buyer",
          "type": "address"
        }
      ],
      "name": "markPurchaseDelivered",
      "outputs": [],
      "stateMutability": "nonpayable",
      "type": "function"
    },
    {
      "inputs": [],
      "name": "name",
      "outputs": [
        {
          "internalType": "string",
          "name": "",
          "type": "string"
        }
      ],
      "stateMutability": "view",
      "type": "function"
    },
    {
      "inputs": [],
      "name": "owner",
      "outputs": [
        {
          "internalType": "address",
          "name": "",
          "type": "address"
        }
      ],
      "stateMutability": "view",
      "type": "function"
    },
    {
      "inputs": [
        {
          "internalType": "uint256",
          "name": "tokenId",
          "type": "uint256"
        }
      ],
      "name": "ownerOf",
      "outputs": [
        {
          "internalType": "address",
          "name": "",
          "type": "address"
        }
      ],
      "stateMutability": "view",
      "type": "function"
    },
    {
      "inputs": [
        {
          "internalType": "uint256",
          "name": "",
          "type": "uint256"
        }
      ],
      "name": "productExists",
      "outputs": [
        {
          "internalType": "bool",
          "name": "",
          "type": "bool"
        }
      ],
      "stateMutability": "view",
      "type": "function"
    },
    {
      "inputs": [
        {
          "internalType": "uint256",
          "name": "",
          "type": "uint256"
        }
      ],
      "name": "products",
      "outputs": [
        {
          "internalType": "uint256",
          "name": "id",
          "type": "uint256"
        },
        {
          "internalType": "address",
          "name": "seller",
          "type": "address"
        },
        {
          "internalType": "string",
          "name": "name",
          "type": "string"
        },
        {
          "internalType": "string",
          "name": "description",
          "type": "string"
        },
        {
          "internalType": "uint256",
          "name": "price",
          "type": "uint256"
        },
        {
          "internalType": "uint256",
          "name": "stock",
          "type": "uint256"
        },
        {
          "internalType": "string",
          "name": "color",
          "type": "string"
        },
        {
          "internalType": "string",
          "name": "size",
          "type": "string"
        },
        {
          "internalType": "string",
          "name": "category",
          "type": "string"
        },
        {
          "internalType": "string",
          "name": "subCategory",
          "type": "string"
        },
        {
          "internalType": "uint256",
          "name": "weight",
          "type": "uint256"
        },
        {
          "internalType": "string",
          "name": "model",
          "type": "string"
        },
        {
          "internalType": "string",
          "name": "brand",
          "type": "string"
        },
        {
          "internalType": "uint256",
          "name": "sku",
          "type": "uint256"
        },
        {
          "internalType": "bool",
          "name": "soldout",
          "type": "bool"
        },
        {
          "internalType": "bool",
          "name": "wishlist",
          "type": "bool"
        },
        {
          "internalType": "bool",
          "name": "deleted",
          "type": "bool"
        }
      ],
      "stateMutability": "view",
      "type": "function"
    },
    {
      "inputs": [],
      "name": "registerSeller",
      "outputs": [],
      "stateMutability": "nonpayable",
      "type": "function"
    },
    {
      "inputs": [
        {
          "internalType": "address",
          "name": "",
          "type": "address"
        }
      ],
      "name": "registeredSellers",
      "outputs": [
        {
          "internalType": "bool",
          "name": "",
          "type": "bool"
        }
      ],
      "stateMutability": "view",
      "type": "function"
    },
    {
      "inputs": [],
      "name": "renounceOwnership",
      "outputs": [],
      "stateMutability": "nonpayable",
      "type": "function"
    },
    {
      "inputs": [
        {
          "internalType": "uint256",
          "name": "",
          "type": "uint256"
        }
      ],
      "name": "reviewExists",
      "outputs": [
        {
          "internalType": "bool",
          "name": "",
          "type": "bool"
        }
      ],
      "stateMutability": "view",
      "type": "function"
    },
    {
      "inputs": [
        {
          "internalType": "address",
          "name": "from",
          "type": "address"
        },
        {
          "internalType": "address",
          "name": "to",
          "type": "address"
        },
        {
          "internalType": "uint256",
          "name": "tokenId",
          "type": "uint256"
        }
      ],
      "name": "safeTransferFrom",
      "outputs": [],
      "stateMutability": "nonpayable",
      "type": "function"
    },
    {
      "inputs": [
        {
          "internalType": "address",
          "name": "from",
          "type": "address"
        },
        {
          "internalType": "address",
          "name": "to",
          "type": "address"
        },
        {
          "internalType": "uint256",
          "name": "tokenId",
          "type": "uint256"
        },
        {
          "internalType": "bytes",
          "name": "data",
          "type": "bytes"
        }
      ],
      "name": "safeTransferFrom",
      "outputs": [],
      "stateMutability": "nonpayable",
      "type": "function"
    },
    {
      "inputs": [
        {
          "internalType": "address",
          "name": "",
          "type": "address"
        }
      ],
      "name": "sellerBalances",
      "outputs": [
        {
          "internalType": "uint256",
          "name": "",
          "type": "uint256"
        }
      ],
      "stateMutability": "view",
      "type": "function"
    },
    {
      "inputs": [
        {
          "internalType": "address",
          "name": "",
          "type": "address"
        },
        {
          "internalType": "uint256",
          "name": "",
          "type": "uint256"
        }
      ],
      "name": "sellerProducts",
      "outputs": [
        {
          "internalType": "uint256",
          "name": "",
          "type": "uint256"
        }
      ],
      "stateMutability": "view",
      "type": "function"
    },
    {
      "inputs": [
        {
          "internalType": "address",
          "name": "",
          "type": "address"
        },
        {
          "internalType": "uint256",
          "name": "",
          "type": "uint256"
        }
      ],
      "name": "sellerPurchaseHistory",
      "outputs": [
        {
          "internalType": "uint256",
          "name": "productId",
          "type": "uint256"
        },
        {
          "internalType": "uint256",
          "name": "totalAmount",
          "type": "uint256"
        },
        {
          "internalType": "uint256",
          "name": "basePrice",
          "type": "uint256"
        },
        {
          "internalType": "uint256",
          "name": "timestamp",
          "type": "uint256"
        },
        {
          "internalType": "address",
          "name": "buyer",
          "type": "address"
        },
        {
          "internalType": "address",
          "name": "seller",
          "type": "address"
        },
        {
          "internalType": "bool",
          "name": "isDelivered",
          "type": "bool"
        }
      ],
      "stateMutability": "view",
      "type": "function"
    },
    {
      "inputs": [
        {
          "internalType": "address",
          "name": "",
          "type": "address"
        }
      ],
      "name": "sellerStatus",
      "outputs": [
        {
          "internalType": "enum HemShop.SellerStatus",
          "name": "",
          "type": "uint8"
        }
      ],
      "stateMutability": "view",
      "type": "function"
    },
    {
      "inputs": [],
      "name": "servicePct",
      "outputs": [
        {
          "internalType": "uint256",
          "name": "",
          "type": "uint256"
        }
      ],
      "stateMutability": "view",
      "type": "function"
    },
    {
      "inputs": [
        {
          "internalType": "address",
          "name": "operator",
          "type": "address"
        },
        {
          "internalType": "bool",
          "name": "approved",
          "type": "bool"
        }
      ],
      "name": "setApprovalForAll",
      "outputs": [],
      "stateMutability": "nonpayable",
      "type": "function"
    },
    {
      "inputs": [
        {
          "internalType": "bytes4",
          "name": "interfaceId",
          "type": "bytes4"
        }
      ],
      "name": "supportsInterface",
      "outputs": [
        {
          "internalType": "bool",
          "name": "",
          "type": "bool"
        }
      ],
      "stateMutability": "view",
      "type": "function"
    },
    {
      "inputs": [],
      "name": "symbol",
      "outputs": [
        {
          "internalType": "string",
          "name": "",
          "type": "string"
        }
      ],
      "stateMutability": "view",
      "type": "function"
    },
    {
      "inputs": [
        {
          "internalType": "uint256",
          "name": "tokenId",
          "type": "uint256"
        }
      ],
      "name": "tokenURI",
      "outputs": [
        {
          "internalType": "string",
          "name": "",
          "type": "string"
        }
      ],
      "stateMutability": "view",
      "type": "function"
    },
    {
      "inputs": [
        {
          "internalType": "address",
          "name": "from",
          "type": "address"
        },
        {
          "internalType": "address",
          "name": "to",
          "type": "address"
        },
        {
          "internalType": "uint256",
          "name": "tokenId",
          "type": "uint256"
        }
      ],
      "name": "transferFrom",
      "outputs": [],
      "stateMutability": "nonpayable",
      "type": "function"
    },
    {
      "inputs": [
        {
          "internalType": "address",
          "name": "newOwner",
          "type": "address"
        }
      ],
      "name": "transferOwnership",
      "outputs": [],
      "stateMutability": "nonpayable",
      "type": "function"
    },
    {
      "inputs": [
        {
          "internalType": "uint256",
          "name": "productId",
          "type": "uint256"
        },
        {
          "components": [
            {
              "internalType": "string",
              "name": "name",
              "type": "string"
            },
            {
              "internalType": "string",
              "name": "description",
              "type": "string"
            },
            {
              "internalType": "uint256",
              "name": "price",
              "type": "uint256"
            },
            {
              "internalType": "uint256",
              "name": "stock",
              "type": "uint256"
            },
            {
              "internalType": "string",
              "name": "color",
              "type": "string"
            },
            {
              "internalType": "string",
              "name": "size",
              "type": "string"
            },
            {
              "internalType": "string[]",
              "name": "images",
              "type": "string[]"
            },
            {
              "internalType": "string",
              "name": "category",
              "type": "string"
            },
            {
              "internalType": "string",
              "name": "subCategory",
              "type": "string"
            },
            {
              "internalType": "string",
              "name": "model",
              "type": "string"
            },
            {
              "internalType": "string",
              "name": "brand",
              "type": "string"
            },
            {
              "internalType": "uint256",
              "name": "weight",
              "type": "uint256"
            },
            {
              "internalType": "uint256",
              "name": "sku",
              "type": "uint256"
            }
          ],
          "internalType": "struct HemShop.ProductInput",
          "name": "input",
          "type": "tuple"
        }
      ],
      "name": "updateProduct",
      "outputs": [],
      "stateMutability": "nonpayable",
      "type": "function"
    },
    {
      "inputs": [
        {
          "internalType": "address",
          "name": "seller",
          "type": "address"
        },
        {
          "internalType": "enum HemShop.SellerStatus",
          "name": "status",
          "type": "uint8"
        }
      ],
      "name": "updateSellerStatus",
      "outputs": [],
      "stateMutability": "nonpayable",
      "type": "function"
    },
    {
      "inputs": [],
      "name": "withdraw",
      "outputs": [],
      "stateMutability": "nonpayable",
      "type": "function"
    }
  ],
  "bytecode": "0x6080346200037757601f90601f196001600160401b0362005d423881900385810184168501838111868210176200037c57859282916040528339602094859181010312620003775751936200005362000392565b926007845266048656d53686f760cc1b858501526200007162000392565b60038082526204873760ec1b8783015260008054336001600160a01b031982168117835592989394919392906001600160a01b03167f8be0079c531659141344cd1fd0a4f28419497f9722a3daafe3b4186f6b6457e08580a360019687805580519087821162000363576002548981811c9116801562000358575b858210146200034457908188849311620002f0575b5084908883116001146200028e57869262000282575b5050600019828b1b1c191690881b176002555b83519586116200026e5787548781811c9116801562000263575b838210146200024f5785811162000207575b5081948611600114620001a25750509183949184939462000196575b50501b9160001990841b1c19161790555b600b5560405161598f9081620003b38239f35b01519250388062000172565b8783528183209493928692918316915b88838310620001ec5750505010620001d3575b505050811b01905562000183565b015160001983861b60f8161c19169055388080620001c5565b858701518855909601959485019487935090810190620001b2565b8884528284208680890160051c820192858a1062000245575b0160051c019088905b8281106200023957505062000156565b85815501889062000229565b9250819262000220565b634e487b7160e01b84526022600452602484fd5b90607f169062000144565b634e487b7160e01b83526041600452602483fd5b01519050388062000117565b90848b9416916002885286882092885b88828210620002d95750508411620002c0575b505050811b016002556200012a565b0151600019838d1b60f8161c19169055388080620002b1565b8385015186558e979095019493840193016200029e565b909150600286528486208880850160051c8201928786106200033a575b918c91869594930160051c01915b8281106200032b57505062000101565b8881558594508c91016200031b565b925081926200030d565b634e487b7160e01b86526022600452602486fd5b90607f1690620000ec565b634e487b7160e01b85526041600452602485fd5b600080fd5b634e487b7160e01b600052604160045260246000fd5b60408051919082016001600160401b038111838210176200037c5760405256fe608080604052600436101561001357600080fd5b60003560e01c908162d64e76146143795750806301ffc9a71461430b57806302ee3a521461407257806306fdde0314613fcc578063081812fc14613fae578063095ea7b314613e3457806311aa5b3414613afb57806316d81b38146139185780632148893f1461337557806323b872dd146138ef57806324d41a03146136ca5780633c2575d5146135f65780633ccfd60b146134d657806342842e0e146134ae57806345de84db1461346c57806352c9224c146133af578063607eb4e4146133755780636352211e1461334557806370a08231146132ae578063715018a6146132555780637acc0b20146130bd5780638642269e14612cc25780638da5cb5b14612c9957806395d89b4114612bb757806397b6f393146129bb5780639d4a2255146128285780639fa44dbf146127e0578063a22cb46514612705578063af55ed64146126d4578063b119105214611bad578063b235b4a914610cd2578063b27e169714610bfe578063b88d4fde14610b9d578063b9db15b414610967578063c1302b341461090f578063c64b8a8f146108d0578063c87b56dd14610860578063e01ef6e614610842578063e585cb2c1461078e578063e985e9c514610738578063ed90c7b7146105a4578063f2fde38b146104e05763fdca4ca3146101f757600080fd5b346104db5760003660031901126104db5760088054600060015b8281111561047a5750610223906157b1565b9060009260015b828111156102445760405180610240868261461d565b0390f35b6000818152600c6020818152604090922060018101546001600160a01b031692919033841480610468575b610286575b505050506102819061573e565b61022a565b60409894985193610296856146ab565b81548552838501526102aa600282016148b8565b60408501526102bb600382016148b8565b6060850152600481015460808501526005918282015460a08601526102e2600683016148b8565b60c08601526102f3600783016148b8565b60e08601528682018054610306816153f6565b916103146040519384614718565b818352600090815286812090878085015b84831061044a57505050505061010086015261037190610347600984016148b8565b610120870152610359600a84016148b8565b610140870152600b83015461016087015282016148b8565b610180850152610383600d82016148b8565b6101a0850152600e8101546101c0850152600f81015460ff80821615156101e087015281881c81161515610200870152601091821c16151561022086015201805491906103cf836153f6565b936103dd6040519586614718565b8385526000918252808220918186015b85821061042e57505050505050918161028193610240610424940152610413828861574d565b5261041e818761574d565b5061573e565b9490388080610274565b848360019261043c87615761565b8152019401910190926103ed565b6001918291610458866148b8565b8152019301910190918890610325565b5060ff600f82015460101c161561026f565b6000818152600c6020526040902060018101546001600160a01b0316331490816104c8575b506104b3575b6104ae9061573e565b610211565b906104c06104ae9161573e565b9190506104a5565b60ff9150600f015460101c16153861049f565b600080fd5b346104db5760203660031901126104db576104f961467f565b6105016149a8565b6001600160a01b0390811690811561055057600054826001600160601b0360a01b821617600055167f8be0079c531659141344cd1fd0a4f28419497f9722a3daafe3b4186f6b6457e0600080a3005b60405162461bcd60e51b815260206004820152602660248201527f4f776e61626c653a206e6577206f776e657220697320746865207a65726f206160448201526564647265737360d01b6064820152608490fd5b346104db576020806003193601126104db576004359033600052600f815260ff60406000205416600481101561072257600214801561070e575b6105e790614eb2565b816000526013815261060060ff60406000205416615671565b6000828152600c825260409020600101546001600160a01b039081163314908115610700575b50156106ac5781600052600c815260ff600f6040600020015460101c16610668576000918252600c905260409020600f01805462ff0000191662010000179055005b6064906040519062461bcd60e51b82526004820152601a60248201527f50726f6475637420697320616c72656164792064656c657465640000000000006044820152fd5b6084906040519062461bcd60e51b82526004820152602760248201527f4f6e6c792070726f647563742073656c6c6572206f72206f776e65722063616e6044820152662064656c65746560c81b6064820152fd5b600054163314905083610626565b506000546001600160a01b031633146105de565b634e487b7160e01b600052602160045260246000fd5b346104db5760403660031901126104db5761075161467f565b610759614695565b9060018060a01b03809116600052600760205260406000209116600052602052602060ff604060002054166040519015158152f35b346104db5760403660031901126104db576107a761467f565b6001600160a01b0390811660009081526011602052604090208054602435908110156104db576107d69161495e565b50805460018201546002830154600384015460048501546005909501546040805195865260208601949094529284019190915260608301529183166001600160a01b03908116608083015292821690921660a08084019190915260ff91901c16151560c082015260e090f35b346104db5760003660031901126104db576020600b54604051908152f35b346104db5760203660031901126104db5761089a610895600435600052600460205260018060a01b0360406000205416151590565b614a00565b60006040516108a8816146fd565b526102406040516108b8816146fd565b600081526040519182916020835260208301906143a6565b346104db5760203660031901126104db576001600160a01b036108f161467f565b166000526012602052602060ff604060002054166040519015158152f35b346104db5760403660031901126104db5761092861467f565b6001600160a01b03166000908152600d60205260409020805460243591908210156104db5760209161095991614990565b90546040519160031b1c8152f35b346104db576020806003193601126104db5760043561098461536a565b5080600052600c82526109a560ff600f6040600020015460101c16156156b6565b80600052601382526109be60ff60406000205416615671565b600052600c8152604060002090604051916109d8836146ab565b805483526001808201546001600160a01b0316838501526109fb600283016148b8565b6040850152610a0c600383016148b8565b6060850152600482015460808501526005918281015460a0860152610a33600682016148b8565b60c0860152610a44600782016148b8565b60e0860152600881018054610a58816153f6565b91610a666040519384614718565b818352600090815286812085888086015b858510610b805750888b9260108989610100870152610a98600982016148b8565b610120870152610aaa600a82016148b8565b610140870152600b810154610160870152610ac7600c82016148b8565b610180870152610ad9600d82016148b8565b6101a0870152600e8101546101c087015260ff600f82015481811615156101e0890152818160081c161515610200890152831c1615156102208701520191825490610b23826153f6565b93610b316040519586614718565b8285526000908152858120868087015b858410610b63576102408a01889052604051828152806102408185018d61447d565b86918591610b7085615761565b8152019201920191908790610b41565b908291610b8c856148b8565b815201920192019190888791610a77565b346104db5760803660031901126104db57610bb661467f565b610bbe614695565b606435916001600160401b0383116104db57366023840112156104db57610bf2610bfc933690602481600401359101614754565b9160443591614b0f565b005b346104db576020806003193601126104db576001600160a01b039081610c2261467f565b16600052601081526040600020805490610c3b826153f6565b92610c496040519485614718565b82845260009182528082208185015b848410610c6d576040518061024088826147db565b600683600192604051610c7f816146c7565b85548152848601548382015260028601546040820152600386015460608201528a600487015416608082015260ff600587015460a08d8216818501521c16151560c0820152815201920193019290610c58565b346104db576003196020368201126104db576001600160401b03600435116104db576101a090600435360301126104db5733600052600f60205260ff604060002054166004811015610722576002148015611b99575b610d3190614eb2565b610d4b610d42600480350180614f0c565b90501515614f3e565b6024610d6c610d638260043501600435600401614f0c565b90501515614f81565b610d7d604460043501351515614fcd565b610d8e606460043501351515615019565b610dae610da5608460043501600435600401614f0c565b90501515615065565b610dce610dc560c4600435016004356004016150a9565b905015156150de565b610def6005610de760c4600435016004356004016150a9565b905010615123565b610e0f610e0660a460043501600435600401614f0c565b9050151561516f565b610e2f610e2660e460043501600435600401614f0c565b905015156151b2565b610e50610e4761010460043501600435600401614f0c565b905015156151fe565b610e71610e6861012460043501600435600401614f0c565b9050151561524a565b610e92610e8961014460043501600435600401614f0c565b9050151561528e565b610ea4610164600435013515156152d2565b610eb66101846004350135151561531e565b60016008540180600855610ec861536a565b818152336020820152610ee9610ee2600480350180614f0c565b3691614754565b6040820152610f04610ee28460043501600435600401614f0c565b60608201526044600435013560808201526064600435013560a0820152610f38610ee2608460043501600435600401614f0c565b60c0820152610f54610ee260a460043501600435600401614f0c565b60e0820152610f6d60c4600435016004356004016150a9565b90610f77826153f6565b91610f856040519384614718565b8083526020830191368260051b8201116104db5780925b8260051b82018410611b6e5750505050610100820152610fc9610ee260e460043501600435600401614f0c565b610120820152610fe7610ee261010460043501600435600401614f0c565b610140820152611005610ee261012460043501600435600401614f0c565b610180820152611023610ee261014460043501600435600401614f0c565b6101a082015260043561016481013561016083015261018401356101c08201523315611b2a5760008281526004602052604090205461106e906001600160a01b031615155b15615625565b600082815260046020526040902054611091906001600160a01b03161515611068565b3360005260056020526040600020600181540190558160005260046020526040600020336001600160601b0360a01b825416179055813360007fddf252ad1be2c89b69c2b068fc378daa952ba7f163c4a11628f55a4df523b3ef8180a4600c6020526040600020815181556001810160018060a01b036020840151166001600160601b0360a01b82541617905560408201518051906001600160401b03821161163157819061115082611147600287015461487e565b60028701615424565b602090601f8311600114611ab857600092611aad575b50508160011b916000199060031b1c19161760028201555b60608201518051906001600160401b0382116116315781906111b0826111a7600387015461487e565b60038701615424565b602090601f8311600114611a3b57600092611a30575b50508160011b916000199060031b1c19161760038201555b6080820151600482015560a0820151600582015560c08201518051906001600160401b0382116116315781906112248261121b600687015461487e565b60068701615424565b602090601f83116001146119be576000926119b3575b50508160011b916000199060031b1c19161760068201555b60e08201518051906001600160401b0382116116315781906112848261127b600787015461487e565b60078701615424565b602090601f831160011461194157600092611936575b50508160011b916000199060031b1c19161760078201555b600881016101008301519060208251926112cc84846154b2565b019060005260206000206000915b83831061183e57505050506101208201518051906001600160401b0382116116315781906113188261130f600987015461487e565b60098701615424565b602090601f83116001146117cc576000926117c1575b50508160011b916000199060031b1c19161760098201555b6101408201518051906001600160401b03821161163157819061137982611370600a87015461487e565b600a8701615424565b602090601f831160011461174f57600092611744575b50508160011b916000199060031b1c191617600a8201555b610160820151600b8201556101808201518051906001600160401b0382116116315781906113e5826113dc600c87015461487e565b600c8701615424565b602090601f83116001146116d2576000926116c7575b50508160011b916000199060031b1c191617600c8201555b6101a08201518051906001600160401b038211611631576114448261143b600d86015461487e565b600d8601615424565b602090601f83116001146116515791806102409492601094600092611646575b50508160011b916000199060031b1c191617600d8201555b6101c0840151600e820155600f81016114a86101e08601511515829060ff801983541691151516179055565b6102008501511515815461ff0062ff00006102208901511515871b169260081b169062ffff001916171790550191015190815190600160401b928383116116315781548383558084106115a1575b506020019060005260206000206000915b83831061158357505050508160005260136020526040600020600160ff1982541617905533600052600d602052604060002080549182101561156e579061155391600182018155614990565b819291549060031b91821b91600019901b1916179055600080f35b83634e487b7160e01b60005260416004526000fd5b600560208261159560019451866154fb565b01920192019190611507565b8060050290600582040361161c57836005026005810485036116075783600052602060002091820191015b8181106115d957506114f6565b8060006005925560006001820155600060028201556115fa60038201615469565b60006004820155016115cc565b87634e487b7160e01b60005260116004526000fd5b86634e487b7160e01b60005260116004526000fd5b85634e487b7160e01b60005260416004526000fd5b015190508880611464565b90600d840160005260206000209160005b601f19851681106116af575092610240949260019260109583601f19811610611696575b505050811b01600d82015561147c565b015160001960f88460031b161c19169055888080611686565b91926020600181928685015181550194019201611662565b0151905086806113fb565b9250600c84016000526020600020906000935b601f1984168510611729576001945083601f19811610611710575b505050811b01600c820155611413565b015160001960f88460031b161c19169055868080611700565b818101518355602094850194600190930192909101906116e5565b01519050868061138f565b9250600a84016000526020600020906000935b601f19841685106117a6576001945083601f1981161061178d575b505050811b01600a8201556113a7565b015160001960f88460031b161c1916905586808061177d565b81810151835560209485019460019093019290910190611762565b01519050868061132e565b9250600984016000526020600020906000935b601f1984168510611823576001945083601f1981161061180a575b505050811b016009820155611346565b015160001960f88460031b161c191690558680806117fa565b818101518355602094850194600190930192909101906117df565b80518051906001600160401b038211611921576118658261185f865461487e565b86615424565b602090601f83116001146118b15792826001949360209386956000926118a6575b5050600019600383901b1c191690841b1785555b019201920191906112da565b015190508d80611886565b908460005260206000209160005b601f1985168110611909575083602093600196938796938794601f198116106118f0575b505050811b01855561189a565b015160001960f88460031b161c191690558d80806118e3565b919260206001819286850151815501940192016118bf565b89634e487b7160e01b60005260416004526000fd5b01519050868061129a565b9250600784016000526020600020906000935b601f1984168510611998576001945083601f1981161061197f575b505050811b0160078201556112b2565b015160001960f88460031b161c1916905586808061196f565b81810151835560209485019460019093019290910190611954565b01519050868061123a565b9250600684016000526020600020906000935b601f1984168510611a15576001945083601f198116106119fc575b505050811b016006820155611252565b015160001960f88460031b161c191690558680806119ec565b818101518355602094850194600190930192909101906119d1565b0151905086806111c6565b9250600384016000526020600020906000935b601f1984168510611a92576001945083601f19811610611a79575b505050811b0160038201556111de565b015160001960f88460031b161c19169055868080611a69565b81810151835560209485019460019093019290910190611a4e565b015190508680611166565b9250600284016000526020600020906000935b601f1984168510611b0f576001945083601f19811610611af6575b505050811b01600282015561117e565b015160001960f88460031b161c19169055868080611ae6565b81810151835560209485019460019093019290910190611acb565b60405162461bcd60e51b8152602060048201819052818501527f4552433732313a206d696e7420746f20746865207a65726f20616464726573736044820152606490fd5b6001600160401b038435116104db5760208091611b8e368735860161478b565b815201930192610f9c565b506000546001600160a01b03163314610d28565b346104db576003196040368201126104db576001600160401b03602435116104db576101a090602435360301126104db5733600052600f60205260ff6040600020541660048110156107225760021480156126c0575b611c0c90614eb2565b600435600052600c6020523360018060a01b03600160406000200154160361266a576004356000526013602052611c4a60ff60406000205416615671565b600435600052600c602052611c6d60ff600f6040600020015460101c16156156b6565b611c7f610d4260046024350180614f0c565b611c95610d636024803501602435600401614f0c565b611ca6604460243501351515614fcd565b611cbd610dc560c4602435016024356004016150a9565b611cd66005610de760c4602435016024356004016150a9565b611ce7606460243501351515615019565b611cfe610da5608460243501602435600401614f0c565b611d15610e0660a460243501602435600401614f0c565b611d2c610e2660e460243501602435600401614f0c565b611d44610e4761010460243501602435600401614f0c565b611d5c610e6861012460243501602435600401614f0c565b611d74610e8961014460243501602435600401614f0c565b611d86610164602435013515156152d2565b611d986101846024350135151561531e565b611da760046024350180614f0c565b600435600052600c6020526002604060002001906001600160401b03811161223857611ddd81611dd7845461487e565b84615424565b600092601f821160011461260157928192936000926125f6575b50508160011b916000199060031b1c19161790555b611e1f6024803501602435600401614f0c565b600435600052600c6020526003604060002001906001600160401b03811161223857611e4f81611dd7845461487e565b600092601f821160011461258d5792819293600092612582575b50508160011b916000199060031b1c19161790555b600435600052600c6020526040600020604460243501356004820155606460243501356005820155611eba608460243501602435600401614f0c565b906001600160401b03821161223857611ee382611eda600686015461487e565b60068601615424565b600090601f8311600114612512576006929160009183612507575b50508160011b916000199060031b1c1916179101555b611f2860a460243501602435600401614f0c565b600435600052600c6020526007604060002001906001600160401b03811161223857611f5881611dd7845461487e565b600092601f821160011461249e5792819293600092612493575b50508160011b916000199060031b1c19161790555b611f9b60c4602435016024356004016150a9565b600435600052600c602052600860406000200191611fb982846154b2565b60009283526020832090805b8385106123aa57611fe060e460243501602435600401614f0c565b600435600052600c6020526009604060002001906001600160401b0381116122385761201081611dd7845461487e565b600092601f82116001146123415792819293600092612336575b50508160011b916000199060031b1c19161790555b61205461010460243501602435600401614f0c565b600435600052600c602052600a604060002001906001600160401b0381116122385761208481611dd7845461487e565b600092601f82116001146122cd57928192936000926122c2575b50508160011b916000199060031b1c19161790555b6120c861012460243501602435600401614f0c565b600435600052600c602052600c604060002001906001600160401b038111612238576120f881611dd7845461487e565b600092601f8211600114612259579281929360009261224e575b50508160011b916000199060031b1c19161790555b61213c61014460243501602435600401614f0c565b600435600052600c602052600d604060002001906001600160401b0381116122385761216c81611dd7845461487e565b6000601f82116001146121d3578192936000926121c8575b50508160011b916000199060031b1c19161790555b600435600052600c60205260406000206101646024350135600b820155600e6101846024350135910155600080f35b013590508380612184565b601f198216938360005260206000209160005b8681106122205750836001959610612206575b505050811b019055612199565b0135600019600384901b60f8161c191690558380806121f9565b909260206001819286860135815501940191016121e6565b634e487b7160e01b600052604160045260246000fd5b013590508380612112565b826000526020600020906000945b601f19841686106122aa57600194955083601f19811610612290575b505050811b019055612127565b0135600019600384901b60f8161c19169055838080612283565b91602060018192858501358155019301950194612267565b01359050838061209e565b826000526020600020906000945b601f198416861061231e57600194955083601f19811610612304575b505050811b0190556120b3565b0135600019600384901b60f8161c191690558380806122f7565b916020600181928585013581550193019501946122db565b01359050838061202a565b826000526020600020906000945b601f198416861061239257600194955083601f19811610612378575b505050811b01905561203f565b0135600019600384901b60f8161c1916905583808061236b565b9160206001819285850135815501930195019461234f565b6123b48183614f0c565b906001600160401b038211612238576123d7826123d1875461487e565b87615424565b600090601f8311600114612423579282600194936020938695600092612418575b5050600019600383901b1c191690841b1786555b01930194019391611fc5565b013590508a806123f8565b8560005260206000209160005b601f198516811061247b575083602093600196938796938794601f19811610612461575b505050811b01865561240c565b0135600019600384901b60f8161c191690558a8080612454565b90926020600181928686013581550194019101612430565b013590508380611f72565b826000526020600020906000945b601f19841686106124ef57600194955083601f198116106124d5575b505050811b019055611f87565b0135600019600384901b60f8161c191690558380806124c8565b916020600181928585013581550193019501946124ac565b013590508480611efe565b6006840160005260206000209160005b601f198516811061256a5750918391600193600695601f19811610612550575b505050811b01910155611f14565b0135600019600384901b60f8161c19169055848080612542565b90926020600181928686013581550194019101612522565b013590508380611e69565b826000526020600020906000945b601f19841686106125de57600194955083601f198116106125c4575b505050811b019055611e7e565b0135600019600384901b60f8161c191690558380806125b7565b9160206001819285850135815501930195019461259b565b013590508380611df7565b826000526020600020906000945b601f198416861061265257600194955083601f19811610612638575b505050811b019055611e0c565b0135600019600384901b60f8161c1916905583808061262b565b9160206001819285850135815501930195019461260f565b60405162461bcd60e51b815260206004820152602860248201527f4f6e6c79207468652073656c6c65722063616e20757064617465207468656972604482015267081c1c9bd91d58dd60c21b6064820152608490fd5b506000546001600160a01b03163314611c03565b346104db5760203660031901126104db576004356000526013602052602060ff604060002054166040519015158152f35b346104db5760403660031901126104db5761271e61467f565b60243590811515908183036104db576001600160a01b03169133831461279b5761276d9033600052600760205260406000208460005260205260406000209060ff801983541691151516179055565b6040519081527f17307eab39ab6107e8899845ad3d59bd9653f200f220920489ca2b5937696c3160203392a3005b60405162461bcd60e51b815260206004820152601960248201527f4552433732313a20617070726f766520746f2063616c6c6572000000000000006044820152606490fd5b346104db5760403660031901126104db576127f961467f565b6001600160a01b0390811660009081526010602052604090208054602435908110156104db576107d69161495e565b346104db576020806003193601126104db5760043580600052600c9081835260ff600f604060002001549161286382601094851c16156156b6565b806000526013855261287b8260406000205416615671565b60009260005b826000528587528160406000200180548210156128d25760046128a5838793615722565b50015416156128bd575b6128b89061573e565b612881565b936128ca6128b89161573e565b9490506128af565b505084866128df866153f6565b956128ed6040519788614718565b8087526128fc601f19916153f6565b018160005b8281106129a55750505060009360005b81600052838352846040600020018054821015612992576004612935838a93615722565b500154161561294d575b6129489061573e565b612911565b9461298a612948918360005285855261297561296f8989604060002001615722565b50615761565b61297f828c61574d565b5261041e818b61574d565b95905061293f565b604051848152806102408187018c6143e6565b6129ad6156f7565b82828b010152018290612901565b346104db5760403660031901126104db576129d461467f565b60249081359060048210156104db576129eb6149a8565b6001600160a01b0316918215612b7a57826000526020906012825260ff6040600020541615612b3f5783600052600f825260ff604060002054166004811015612af2578314612b075760028314612a8e575b507fd8f7bcb2c5cffc294a0aaef719685993d7be95273fb8254803a1563510ccefed91600f612a89928560005252604060002060ff1981541660ff83161790556040519182918261486b565b0390a2005b83600052600f825260ff604060002054166004811015612af257600114612a3d5790601f6064926040519262461bcd60e51b845260048401528201527f43616e206f6e6c79207665726966792070656e64696e672073656c6c657273006044820152fd5b50634e487b7160e01b60009081526021600452fd5b9060126064926040519262461bcd60e51b845260048401528201527114dd185d1d5cc8185b1c9958591e481cd95d60721b6044820152fd5b9060156064926040519262461bcd60e51b845260048401528201527414d95b1b195c881b9bdd081c9959da5cdd195c9959605a1b6044820152fd5b60649060166040519162461bcd60e51b83526020600484015282015275496e76616c69642073656c6c6572206164647265737360501b6044820152fd5b346104db5760003660031901126104db576040516000600354612bd98161487e565b80845290600190818116908115612c725750600114612c17575b61024084612c0381860382614718565b6040519182916020835260208301906143a6565b6003600090815292507fc2575a0e9e593c00f959f8c92f12db2869c3395a3b0502d05e2516446f71f85b5b828410612c5a575050508101602001612c0382612bf3565b80546020858701810191909152909301928101612c42565b60ff191660208087019190915292151560051b85019092019250612c039150839050612bf3565b346104db5760003660031901126104db576000546040516001600160a01b039091168152602090f35b6020806003193601126104db5760043590600191600283541461307857600283558060005260138252612cfc60ff60406000205416615671565b80600052600c90818352612d1e60ff600f6040600020015460101c16156156b6565b600081815282845260408082208601546001600160a01b039081168352600f865291205460ff1660048110156107225760020361303a578160005282845260056040600020015415612ff5578160005282845260ff600f6040600020015416612fb05781600052828452808560406000200154163314612f6b578160005282845260046040600020015492833410612f315782600052808552600560406000200180548015612f08576000190190558260005280855281866040600020600581015415612f1e575b015416612e47604051612df8816146c7565b85815286888201528660408201524260608201523360808201528260a0820152600060c08201523360005260108852612e3581604060002061580e565b8260005260118852604060002061580e565b80600052600e86526040600020805490868201809211612f0857556040518581528587820152426040820152847f45280c7ac9cec77edd454e39e1641a3e22619146cf074a4239beee86a7c07edc60603393a48560095401600955612eac8434615801565b80612ef8575b508260005284528460406000200154169260405192835242908301527fbe6177108f4df43c5d7be79cb219c969fc97915bbdb4b56d14d391dcdcc1606060403393a48055005b612f0290336158c3565b86612eb2565b634e487b7160e01b600052601160045260246000fd5b600f8101805460ff191683179055612de6565b60405162461bcd60e51b8152600481018690526012602482015271496e73756666696369656e742066756e647360701b6044820152606490fd5b60405162461bcd60e51b815260048101859052601b60248201527f43616e6e6f742062757920796f7572206f776e2070726f6475637400000000006044820152606490fd5b60405162461bcd60e51b815260048101859052601a60248201527f50726f6475637420697320616c726561647920736f6c646f75740000000000006044820152606490fd5b60405162461bcd60e51b815260048101859052601760248201527f50726f64756374206973206f7574206f662073746f636b0000000000000000006044820152606490fd5b60405162461bcd60e51b815260048101859052601660248201527514d95b1b195c881a5cc81b9bdd081d995c9a599a595960521b6044820152606490fd5b60405162461bcd60e51b815260048101839052601f60248201527f5265656e7472616e637947756172643a207265656e7472616e742063616c6c006044820152606490fd5b346104db5760203660031901126104db576004356000908152600c60205260409020805460018201546001600160a01b0316916130fc600282016148b8565b613108600383016148b8565b600483015460058401549061311f600686016148b8565b61312b600787016148b8565b613137600988016148b8565b90613144600a89016148b8565b92600b89015494600c8a01613158906148b8565b96613165600d8c016148b8565b98600e8c01549b600f01549a6040519e8f9e8f908152602001528d6102209081604082015201613194916143a6565b8d810360608f01526131a5916143a6565b9160808d015260a08c01528a810360c08c01526131c1916143a6565b89810360e08b01526131d2916143a6565b8881036101008a01526131e4916143a6565b8781036101208901526131f6916143a6565b9061014087015285810361016087015261320f916143a6565b848103610180860152613221916143a6565b916101a084015260ff811615156101c08401528060081c60ff1615156101e084015260101c60ff1615156102008301520390f35b346104db5760003660031901126104db5761326e6149a8565b600080546001600160a01b0319811682556001600160a01b03167f8be0079c531659141344cd1fd0a4f28419497f9722a3daafe3b4186f6b6457e08280a3005b346104db5760203660031901126104db576001600160a01b036132cf61467f565b1680156132ee5760005260056020526020604060002054604051908152f35b60405162461bcd60e51b815260206004820152602960248201527f4552433732313a2061646472657373207a65726f206973206e6f7420612076616044820152683634b21037bbb732b960b91b6064820152608490fd5b346104db5760203660031901126104db576020613363600435614a4c565b6040516001600160a01b039091168152f35b346104db5760203660031901126104db576001600160a01b0361339661467f565b16600052600e6020526020604060002054604051908152f35b346104db5760003660031901126104db5733600052601260205260ff6040600020541661343257336000526012602052604060002060ff1990600182825416179055600f60205260016040600020918254161790556040514281527fa1a1a78ff3033d5ee8393372052aeb2a16bbb347a29f3780370e9506c109e37260203392a2005b60405162461bcd60e51b8152602060048201526012602482015271105b1c9958591e481c9959da5cdd195c995960721b6044820152606490fd5b346104db5760203660031901126104db576001600160a01b0361348d61467f565b16600052600f60205261024060ff604060002054166040519182918261486b565b346104db57610bfc6134bf366147a6565b90604051926134cd846146fd565b60008452614b0f565b346104db5760003660031901126104db5733600052600f60205260ff6040600020541660048110156107225760021480156135e2575b61351590614eb2565b33600052600e60205260406000205480156135a457600b54908181029181830403612f085761356f61354e606461357594048093615801565b9133600052600e6020526000604081205560018060a01b03600054166158c3565b336158c3565b604051600081527f8ad64a0ac7700dd8425ab0499f107cb6e2cd1581d803c5b8c1c79dcb8190b1af60203392a2005b60405162461bcd60e51b81526020600482015260166024820152754e6f2062616c616e636520746f20776974686472617760501b6044820152606490fd5b506000546001600160a01b0316331461350c565b346104db576020806003193601126104db576001600160a01b03908161361a61467f565b16600052601181526040600020805490613633826153f6565b926136416040519485614718565b82845260009182528082208185015b848410613665576040518061024088826147db565b600683600192604051613677816146c7565b85548152848601548382015260028601546040820152600386015460608201528a600487015416608082015260ff600587015460a08d8216818501521c16151560c0820152815201920193019290613650565b346104db5760403660031901126104db57602480356004356000805b82600052600c6020908082526010918260406000200180548510156138e257613710858992615722565b505414613728575050506137239061573e565b6136e6565b9193509193946000526014815260ff948560406000205416156138a6578060005282825261375c8585604060002001615722565b50600190810154909690336001600160a01b0391821614908115613898575b50156138435781600052838352600461379a8787604060002001615722565b5001541661380657916137bb93916004959360005252604060002001615722565b5001805460ff1916821790555b156137cf57005b60649060106040519162461bcd60e51b8352602060048401528201526f14995d9a595dc81b9bdd08199bdd5b9960821b6044820152fd5b60405162461bcd60e51b8152600481018390526016818901527514995d9a595dc8185b1c9958591e4819195b195d195960521b6044820152606490fd5b60405162461bcd60e51b8152600481018490526028818a01527f4f6e6c79207265766965776572206f72206f776e65722063616e2064656c6574604482015267652072657669657760c01b6064820152608490fd5b60005416331490508961377b565b60405162461bcd60e51b8152600481018390526015818901527414995d9a595dc8191bd95cc81b9bdd08195e1a5cdd605a1b6044820152606490fd5b50505050509150506137c8565b346104db57610bfc613900366147a6565b9161391361390e8433614baa565b614aad565b614c72565b346104db5760603660031901126104db57602480356004356044356001600160401b0381116104db5761394f90369060040161478b565b9080600052602091600c835260018060a01b03600160406000200154163314613aa85783151580613a9d575b15613a5957805115613a155790600c92916001600a54019081600a5561399f6156f7565b95828752338588015260408701526060860152600052601482526040600020600160ff198254161790556000525260106040600020018054600160401b81101561156e576139f291600182018155615722565b613a0057610bfc92506154fb565b82634e487b7160e01b60005260006004526000fd5b60405162461bcd60e51b8152600481018490526017818701527f436f6d6d656e742063616e6e6f7420626520656d7074790000000000000000006044820152606490fd5b60405162461bcd60e51b815260048101849052601e818701527f526174696e67206d757374206265206265747765656e203120616e64203500006044820152606490fd5b50600584111561397b565b60405162461bcd60e51b8152600481018490526026818701527f53656c6c65722063616e6e6f7420726576696577207468656972206f776e20706044820152651c9bd91d58dd60d21b6064820152608490fd5b346104db5760403660031901126104db57600435613b17614695565b9033600052602091600f835260ff9182604060002054166004811015610722576002148015613e20575b613b4d90949394614eb2565b6001600160a01b039182169360009390845b86600052601080845260406000208054831015613e1457613b8183879261495e565b505414613b975750613b929061573e565b613b5f565b9091929394955086600052808452613bb382604060002061495e565b509260058094015460a01c16613dcf5786600052808452613bd882604060002061495e565b50830154861633148015613dc2575b15613d6a5790613c0191876000528452604060002061495e565b5001805460ff60a01b1916600160a01b17905560015b15613d315781600052600c815260019280846040600020015416846000905b613c6a575b5050507ff9dc8543b583e01f592678422369b2777e3649761f5808ae432cb1c24ca9438c9192604051908152a3005b81600052601180855260406000208054831015613d2a57613c8c83889261495e565b50541480613d06575b613cae575090613ca686939261573e565b909192613c36565b7ff9dc8543b583e01f592678422369b2777e3649761f5808ae432cb1c24ca9438c9596935090613cea916005936000528552604060002061495e565b5001805460ff60a01b1916600160a01b17905592918580613c3b565b508260005280855287846004613d2085604060002061495e565b5001541614613c95565b5050613c3b565b6064906040519062461bcd60e51b825260048201526012602482015271141d5c98da185cd9481b9bdd08199bdd5b9960721b6044820152fd5b60405162461bcd60e51b815260048101859052602a60248201527f4f6e6c792073656c6c6572206f72206f776e65722063616e206d61726b2061736044820152690819195b1a5d995c995960b21b6064820152608490fd5b5033866000541614613be7565b60405162461bcd60e51b815260048101859052601b60248201527f416c7265616479206d61726b65642061732064656c69766572656400000000006044820152606490fd5b50505050909192613c17565b506000546001600160a01b03163314613b41565b346104db5760403660031901126104db57613e4d61467f565b602435906001600160a01b038080613e6485614a4c565b16921691808314613f5f57803314908115613f3a575b5015613ecf57600083815260066020526040902080546001600160a01b03191683179055613ea783614a4c565b167f8c5be1e5ebec7d5bd14f71427d1e84f3dd0314c0f7b2291e5b200ac8c7c3b925600080a4005b60405162461bcd60e51b815260206004820152603d60248201527f4552433732313a20617070726f76652063616c6c6572206973206e6f7420746f60448201527f6b656e206f776e6572206f7220617070726f76656420666f7220616c6c0000006064820152608490fd5b9050600052600760205260406000203360005260205260ff6040600020541684613e7a565b60405162461bcd60e51b815260206004820152602160248201527f4552433732313a20617070726f76616c20746f2063757272656e74206f776e656044820152603960f91b6064820152608490fd5b346104db5760203660031901126104db576020613363600435614a6f565b346104db5760003660031901126104db576040516000600254613fee8161487e565b80845290600190818116908115612c7257506001146140175761024084612c0381860382614718565b6002600090815292507f405787fa12a823e0f2b7631cc41b3ba8828b3321ca811111fa75cd3aa3bb5ace5b82841061405a575050508101602001612c0382612bf3565b80546020858701810191909152909301928101614042565b346104db5760003660031901126104db57600854600060015b828111156142ca575061409d906157b1565b90600160005b828211156140b95760405180610240868261461d565b81600052600c6020526040600020600f8101549060ff8260101c16156140ec575b5050906140e69061573e565b906140a3565b604051916140f9836146ab565b8154835260018201546001600160a01b0316602084015261411c600283016148b8565b604084015261412d600383016148b8565b606084015260048201546080840152600582015460a0840152614152600683016148b8565b60c0840152614163600783016148b8565b60e08401526008820154614176816153f6565b906141846040519283614718565b80825260208201600885016000526020600020906000905b8382106142ad57505050506010929160ff916101008601526141c0600984016148b8565b6101208601526141d2600a84016148b8565b610140860152600b8301546101608601526141ef600c84016148b8565b610180860152614201600d84016148b8565b6101a0860152600e8301546101c086015281811615156101e0860152818160081c161515610200860152831c16151561022084015201805490614243826153f6565b916142516040519384614718565b808352602083019160005260206000206000925b82841061428f57505050506102408201526140e69161428891610413828861574d565b90856140da565b6005602060019261429f85615761565b815201920193019290614265565b6001602081926142bc866148b8565b81520193019101909161419c565b80600052600c60205260ff600f6040600020015460101c16156142f6575b6142f19061573e565b61408b565b906143036142f19161573e565b9190506142e8565b346104db5760203660031901126104db5760043563ffffffff60e01b81168091036104db576020906380ac58cd60e01b8114908115614368575b8115614357575b506040519015158152f35b6301ffc9a760e01b1490508261434c565b635b5e139f60e01b81149150614345565b346104db5760203660031901126104db576020906004356000526014825260ff6040600020541615158152f35b919082519283825260005b8481106143d2575050826000602080949584010152601f8019910116010190565b6020818301810151848301820152016143b1565b908082519081815260208091019281808460051b8301019501936000915b8483106144145750505050505090565b9091929394958480600192601f1985820301865289519081518152848060a01b03838301511683820152604080830151908201526144616060808401519060a080918501528301906143a6565b9160808091015115159101529801930193019194939290614404565b91908251815260209260018060a01b038482015116848301526145026144f06144ca6144b860408501516102608060408901528701906143a6565b606085015186820360608801526143a6565b6080840151608086015260a084015160a086015260c084015185820360c08701526143a6565b60e083015184820360e08601526143a6565b6101009485830151958483039085015285518083528183019180808360051b8601019801926000905b8382106145ed575050505050506145a461459061457161455d6145ea96976101208087015190888303908901526143a6565b6101408086015190878303908801526143a6565b61016080850151908601526101808085015190868303908701526143a6565b6101a08084015190858303908601526143a6565b916101c080830151908201526101e080830151151590820152610200808301511515908201526102208083015115159082015261024080920151918184039101526143e6565b90565b909192939498838061460c6001938d601f1990820301865289516143a6565b9b970195949391909101910161452b565b602080820190808352835180925260408301928160408460051b8301019501936000915b8483106146515750505050505090565b909192939495848061466f600193603f198682030187528a5161447d565b9801930193019194939290614641565b600435906001600160a01b03821682036104db57565b602435906001600160a01b03821682036104db57565b61026081019081106001600160401b0382111761223857604052565b60e081019081106001600160401b0382111761223857604052565b60a081019081106001600160401b0382111761223857604052565b602081019081106001600160401b0382111761223857604052565b90601f801991011681019081106001600160401b0382111761223857604052565b6001600160401b03811161223857601f01601f191660200190565b92919261476082614739565b9161476e6040519384614718565b8294818452818301116104db578281602093846000960137010152565b9080601f830112156104db578160206145ea93359101614754565b60609060031901126104db576001600160a01b039060043582811681036104db579160243590811681036104db579060443590565b60208082019080835283518092528060408094019401926000905b83821061480557505050505090565b84518051875280840151878501528082015187830152606080820151908801526080808201516001600160a01b039081169189019190915260a0808301519091169088015260c09081015115159087015260e090950194938201936001909101906147f6565b9190602083019260048210156107225752565b90600182811c921680156148ae575b602083101461489857565b634e487b7160e01b600052602260045260246000fd5b91607f169161488d565b90604051918260008254926148cc8461487e565b90818452600194858116908160001461493b57506001146148f8575b50506148f692500383614718565b565b9093915060005260209081600020936000915b8183106149235750506148f6935082010138806148e8565b8554888401850152948501948794509183019161490b565b9150506148f694506020925060ff191682840152151560051b82010138806148e8565b805482101561497a576000526006602060002091020190600090565b634e487b7160e01b600052603260045260246000fd5b805482101561497a5760005260206000200190600090565b6000546001600160a01b031633036149bc57565b606460405162461bcd60e51b815260206004820152602060248201527f4f776e61626c653a2063616c6c6572206973206e6f7420746865206f776e65726044820152fd5b15614a0757565b60405162461bcd60e51b815260206004820152601860248201527f4552433732313a20696e76616c696420746f6b656e20494400000000000000006044820152606490fd5b6000908152600460205260409020546001600160a01b03166145ea811515614a00565b600081815260046020526040902054614a92906001600160a01b03161515614a00565b6000908152600660205260409020546001600160a01b031690565b15614ab457565b60405162461bcd60e51b815260206004820152602d60248201527f4552433732313a2063616c6c6572206973206e6f7420746f6b656e206f776e6560448201526c1c881bdc88185c1c1c9bdd9959609a1b6064820152608490fd5b90614b33939291614b2361390e8433614baa565b614b2e838383614c72565b614db3565b15614b3a57565b60405162461bcd60e51b815280614b5360048201614b57565b0390fd5b60809060208152603260208201527f4552433732313a207472616e7366657220746f206e6f6e20455243373231526560408201527131b2b4bb32b91034b6b83632b6b2b73a32b960711b60608201520190565b906001600160a01b038080614bbe84614a4c565b16931691838314938415614bf1575b508315614bdb575b50505090565b614be791929350614a6f565b1614388080614bd5565b909350600052600760205260406000208260005260205260ff604060002054169238614bcd565b15614c1f57565b60405162461bcd60e51b815260206004820152602560248201527f4552433732313a207472616e736665722066726f6d20696e636f72726563742060448201526437bbb732b960d91b6064820152608490fd5b90614c9a91614c8084614a4c565b6001600160a01b0393918416928492909183168414614c18565b16918215614d325781614cb791614cb086614a4c565b1614614c18565b7fddf252ad1be2c89b69c2b068fc378daa952ba7f163c4a11628f55a4df523b3ef60008481526006602052604081206001600160601b0360a01b9081815416905583825260056020526040822060001981540190558482526040822060018154019055858252600460205284604083209182541617905580a4565b60405162461bcd60e51b8152602060048201526024808201527f4552433732313a207472616e7366657220746f20746865207a65726f206164646044820152637265737360e01b6064820152608490fd5b3d15614dae573d90614d9482614739565b91614da26040519384614718565b82523d6000602084013e565b606090565b91926000929190813b15614ea857602091614e099185604051958680958194630a85bd0160e11b9b8c845233600485015260018060a01b03809516602485015260448401526080606484015260848301906143a6565b0393165af190829082614e59575b5050614e4b57614e25614d83565b80519081614e465760405162461bcd60e51b815280614b5360048201614b57565b602001fd5b6001600160e01b0319161490565b909192506020813d8211614ea0575b81614e7560209383614718565b81010312614e9c5751906001600160e01b031982168203614e995750903880614e17565b80fd5b5080fd5b3d9150614e68565b5050505050600190565b15614eb957565b60405162461bcd60e51b815260206004820152602560248201527f4f6e6c792076657269666965642073656c6c6572206f72206f776e657220616c6044820152641b1bddd95960da1b6064820152608490fd5b903590601e19813603018212156104db57018035906001600160401b0382116104db576020019181360383136104db57565b15614f4557565b60405162461bcd60e51b81526020600482015260146024820152734e616d652063616e6e6f7420626520656d70747960601b6044820152606490fd5b15614f8857565b60405162461bcd60e51b815260206004820152601b60248201527f4465736372697074696f6e2063616e6e6f7420626520656d70747900000000006044820152606490fd5b15614fd457565b60405162461bcd60e51b815260206004820152601c60248201527f5072696365206d7573742062652067726561746572207468616e2030000000006044820152606490fd5b1561502057565b60405162461bcd60e51b815260206004820152601c60248201527f53746f636b206d7573742062652067726561746572207468616e2030000000006044820152606490fd5b1561506c57565b60405162461bcd60e51b8152602060048201526015602482015274436f6c6f722063616e6e6f7420626520656d70747960581b6044820152606490fd5b903590601e19813603018212156104db57018035906001600160401b0382116104db57602001918160051b360383136104db57565b156150e557565b60405162461bcd60e51b8152602060048201526016602482015275496d616765732063616e6e6f7420626520656d70747960501b6044820152606490fd5b1561512a57565b60405162461bcd60e51b815260206004820152601c60248201527f496d616765732063616e6e6f74206265206d6f7265207468616e2035000000006044820152606490fd5b1561517657565b60405162461bcd60e51b815260206004820152601460248201527353697a652063616e6e6f7420626520656d70747960601b6044820152606490fd5b156151b957565b60405162461bcd60e51b815260206004820152601860248201527f43617465676f72792063616e6e6f7420626520656d70747900000000000000006044820152606490fd5b1561520557565b60405162461bcd60e51b815260206004820152601c60248201527f5375622d63617465676f72792063616e6e6f7420626520656d707479000000006044820152606490fd5b1561525157565b60405162461bcd60e51b81526020600482015260156024820152744d6f64656c2063616e6e6f7420626520656d70747960581b6044820152606490fd5b1561529557565b60405162461bcd60e51b81526020600482015260156024820152744272616e642063616e6e6f7420626520656d70747960581b6044820152606490fd5b156152d957565b60405162461bcd60e51b815260206004820152601d60248201527f576569676874206d7573742062652067726561746572207468616e20300000006044820152606490fd5b1561532557565b60405162461bcd60e51b815260206004820152601a60248201527f534b55206d7573742062652067726561746572207468616e20300000000000006044820152606490fd5b60405190615377826146ab565b8161024060009182815282602082015260609283604083015283808301528060808301528060a08301528360c08301528360e08301528361010083015283610120830152836101408301528061016083015283610180830152836101a0830152806101c0830152806101e0830152806102008301526102208201520152565b6001600160401b0381116122385760051b60200190565b818110615418575050565b6000815560010161540d565b9190601f811161543357505050565b6148f6926000526020600020906020601f840160051c8301931061545f575b601f0160051c019061540d565b9091508190615452565b615473815461487e565b908161547d575050565b81601f6000931160011461548f575055565b9080839182526154ae601f60208420940160051c84016001850161540d565b5555565b90600160401b8111612238578154918181558282106154d057505050565b600052602060002091820191015b8181106154e9575050565b806154f5600192615469565b016154de565b8151815560019182820160209060018060a01b0382840151166001600160601b0360a01b8254161790556040820151600284015560038301906060830151948551916001600160401b038311612238576155598361185f865461487e565b80601f84116001146155b1575091808060809593600497956148f69a6000946155a6575b50501b916000199060031b1c19161790555b0151151591019060ff801983541691151516179055565b01519250388061557d565b9193949596601f1984168660005283600020936000905b82821061560e575050926080959285926148f69a999660049996106155f5575b505050811b01905561558f565b015160001960f88460031b161c191690553880806155e8565b8088869782949787015181550196019401906155c8565b1561562c57565b60405162461bcd60e51b815260206004820152601c60248201527f4552433732313a20746f6b656e20616c7265616479206d696e746564000000006044820152606490fd5b1561567857565b60405162461bcd60e51b8152602060048201526016602482015275141c9bd91d58dd08191bd95cc81b9bdd08195e1a5cdd60521b6044820152606490fd5b156156bd57565b60405162461bcd60e51b8152602060048201526012602482015271141c9bd91d58dd081a5cc819195b195d195960721b6044820152606490fd5b60405190615704826146e2565b60006080838281528260208201528260408201526060808201520152565b805482101561497a576000526005602060002091020190600090565b6000198114612f085760010190565b805182101561497a5760209160051b010190565b9060405161576e816146e2565b608060ff600483958054855260018060a01b036001820154166020860152600281015460408601526157a2600382016148b8565b60608601520154161515910152565b906157bb826153f6565b6157c86040519182614718565b82815280926157d9601f19916153f6565b019060005b8281106157ea57505050565b6020906157f561536a565b828285010152016157de565b91908203918211612f0857565b8054600160401b8110156122385761582b9160018201815561495e565b9190916158ad57805182556020810151600183015560408101516002830155606081015160038301556005600483019260018060a01b0393846080850151166001600160601b0360a01b825416179055019160a08201511682549160c060ff60a01b910151151560a01b16916affffffffffffffffffffff60a81b1617179055565b634e487b7160e01b600052600060045260246000fd5b6001600160a01b0316801561592257600080809381935af16158e3614d83565b50156158eb57565b60405162461bcd60e51b815260206004820152600f60248201526e151c985b9cd9995c8819985a5b1959608a1b6044820152606490fd5b60405162461bcd60e51b815260206004820152600f60248201526e496e76616c6964206164647265737360881b6044820152606490fdfea2646970667358221220a990f40f7a37c76cdc086d2acbc8370bdd4e81d0109f82a1eed1bf489ebe454264736f6c63430008130033",
  "linkReferences": {},
  "deployedLinkReferences": {}
}