{
  "_format": "hh-sol-artifact-1",
  "contractName": "HemShop",
  "sourceName": "contracts/HemShop.sol",
  "abi": [
    {
      "inputs": [
        {
          "internalType": "uint256",
          "name": "_pct",
          "type": "uint256"
        }
      ],
      "stateMutability": "nonpayable",
      "type": "constructor"
    },
    {
      "anonymous": false,
      "inputs": [
        {
          "indexed": false,
          "internalType": "address",
          "name": "admin",
          "type": "address"
        },
        {
          "indexed": false,
          "internalType": "address",
          "name": "impersonatedAccount",
          "type": "address"
        }
      ],
      "name": "AdminImpersonationChanged",
      "type": "event"
    },
    {
      "anonymous": false,
      "inputs": [
        {
          "indexed": true,
          "internalType": "address",
          "name": "owner",
          "type": "address"
        },
        {
          "indexed": true,
          "internalType": "address",
          "name": "approved",
          "type": "address"
        },
        {
          "indexed": true,
          "internalType": "uint256",
          "name": "tokenId",
          "type": "uint256"
        }
      ],
      "name": "Approval",
      "type": "event"
    },
    {
      "anonymous": false,
      "inputs": [
        {
          "indexed": true,
          "internalType": "address",
          "name": "owner",
          "type": "address"
        },
        {
          "indexed": true,
          "internalType": "address",
          "name": "operator",
          "type": "address"
        },
        {
          "indexed": false,
          "internalType": "bool",
          "name": "approved",
          "type": "bool"
        }
      ],
      "name": "ApprovalForAll",
      "type": "event"
    },
    {
      "anonymous": false,
      "inputs": [
        {
          "indexed": true,
          "internalType": "address",
          "name": "seller",
          "type": "address"
        },
        {
          "indexed": false,
          "internalType": "uint256",
          "name": "newBalance",
          "type": "uint256"
        }
      ],
      "name": "BalanceUpdated",
      "type": "event"
    },
    {
      "anonymous": false,
      "inputs": [
        {
          "indexed": true,
          "internalType": "uint256",
          "name": "id",
          "type": "uint256"
        },
        {
          "indexed": false,
          "internalType": "string",
          "name": "name",
          "type": "string"
        }
      ],
      "name": "CategoryCreated",
      "type": "event"
    },
    {
      "anonymous": false,
      "inputs": [
        {
          "indexed": true,
          "internalType": "uint256",
          "name": "id",
          "type": "uint256"
        },
        {
          "indexed": false,
          "internalType": "string",
          "name": "name",
          "type": "string"
        },
        {
          "indexed": false,
          "internalType": "bool",
          "name": "isActive",
          "type": "bool"
        }
      ],
      "name": "CategoryUpdated",
      "type": "event"
    },
    {
      "anonymous": false,
      "inputs": [
        {
          "indexed": true,
          "internalType": "uint256",
          "name": "productId",
          "type": "uint256"
        },
        {
          "indexed": true,
          "internalType": "address",
          "name": "buyer",
          "type": "address"
        },
        {
          "indexed": false,
          "internalType": "bool",
          "name": "isDelivered",
          "type": "bool"
        }
      ],
      "name": "DeliveryStatusUpdated",
      "type": "event"
    },
    {
      "anonymous": false,
      "inputs": [
        {
          "indexed": true,
          "internalType": "address",
          "name": "previousOwner",
          "type": "address"
        },
        {
          "indexed": true,
          "internalType": "address",
          "name": "newOwner",
          "type": "address"
        }
      ],
      "name": "OwnershipTransferred",
      "type": "event"
    },
    {
      "anonymous": false,
      "inputs": [
        {
          "indexed": true,
          "internalType": "uint256",
          "name": "productId",
          "type": "uint256"
        },
        {
          "indexed": true,
          "internalType": "address",
          "name": "buyer",
          "type": "address"
        },
        {
          "indexed": true,
          "internalType": "address",
          "name": "seller",
          "type": "address"
        },
        {
          "indexed": false,
          "internalType": "uint256",
          "name": "price",
          "type": "uint256"
        },
        {
          "indexed": false,
          "internalType": "uint256",
          "name": "timestamp",
          "type": "uint256"
        }
      ],
      "name": "ProductPurchased",
      "type": "event"
    },
    {
      "anonymous": false,
      "inputs": [
        {
          "indexed": true,
          "internalType": "uint256",
          "name": "productId",
          "type": "uint256"
        },
        {
          "indexed": true,
          "internalType": "address",
          "name": "buyer",
          "type": "address"
        },
        {
          "indexed": true,
          "internalType": "address",
          "name": "seller",
          "type": "address"
        },
        {
          "indexed": false,
          "internalType": "uint256",
          "name": "totalAmount",
          "type": "uint256"
        },
        {
          "indexed": false,
          "internalType": "uint256",
          "name": "basePrice",
          "type": "uint256"
        },
        {
          "indexed": false,
          "internalType": "uint256",
          "name": "timestamp",
          "type": "uint256"
        }
      ],
      "name": "PurchaseRecorded",
      "type": "event"
    },
    {
      "anonymous": false,
      "inputs": [
        {
          "indexed": true,
          "internalType": "address",
          "name": "seller",
          "type": "address"
        },
        {
          "indexed": false,
          "internalType": "uint256",
          "name": "timestamp",
          "type": "uint256"
        }
      ],
      "name": "SellerRegistered",
      "type": "event"
    },
    {
      "anonymous": false,
      "inputs": [
        {
          "indexed": true,
          "internalType": "address",
          "name": "seller",
          "type": "address"
        },
        {
          "indexed": false,
          "internalType": "enum HemShop.SellerStatus",
          "name": "status",
          "type": "uint8"
        }
      ],
      "name": "SellerStatusUpdated",
      "type": "event"
    },
    {
      "anonymous": false,
      "inputs": [
        {
          "indexed": true,
          "internalType": "uint256",
          "name": "id",
          "type": "uint256"
        },
        {
          "indexed": true,
          "internalType": "uint256",
          "name": "parentId",
          "type": "uint256"
        },
        {
          "indexed": false,
          "internalType": "string",
          "name": "name",
          "type": "string"
        }
      ],
      "name": "SubCategoryCreated",
      "type": "event"
    },
    {
      "anonymous": false,
      "inputs": [
        {
          "indexed": true,
          "internalType": "uint256",
          "name": "id",
          "type": "uint256"
        },
        {
          "indexed": false,
          "internalType": "string",
          "name": "name",
          "type": "string"
        },
        {
          "indexed": false,
          "internalType": "bool",
          "name": "isActive",
          "type": "bool"
        }
      ],
      "name": "SubCategoryUpdated",
      "type": "event"
    },
    {
      "anonymous": false,
      "inputs": [
        {
          "indexed": true,
          "internalType": "address",
          "name": "from",
          "type": "address"
        },
        {
          "indexed": true,
          "internalType": "address",
          "name": "to",
          "type": "address"
        },
        {
          "indexed": true,
          "internalType": "uint256",
          "name": "tokenId",
          "type": "uint256"
        }
      ],
      "name": "Transfer",
      "type": "event"
    },
    {
      "inputs": [
        {
          "internalType": "address",
          "name": "",
          "type": "address"
        }
      ],
      "name": "adminImpersonating",
      "outputs": [
        {
          "internalType": "address",
          "name": "",
          "type": "address"
        }
      ],
      "stateMutability": "view",
      "type": "function"
    },
    {
      "inputs": [
        {
          "internalType": "address",
          "name": "to",
          "type": "address"
        },
        {
          "internalType": "uint256",
          "name": "tokenId",
          "type": "uint256"
        }
      ],
      "name": "approve",
      "outputs": [],
      "stateMutability": "nonpayable",
      "type": "function"
    },
    {
      "inputs": [
        {
          "internalType": "address",
          "name": "owner",
          "type": "address"
        }
      ],
      "name": "balanceOf",
      "outputs": [
        {
          "internalType": "uint256",
          "name": "",
          "type": "uint256"
        }
      ],
      "stateMutability": "view",
      "type": "function"
    },
    {
      "inputs": [
        {
          "internalType": "uint256",
          "name": "productId",
          "type": "uint256"
        },
        {
          "components": [
            {
              "internalType": "string",
              "name": "fullName",
              "type": "string"
            },
            {
              "internalType": "string",
              "name": "streetAddress",
              "type": "string"
            },
            {
              "internalType": "string",
              "name": "city",
              "type": "string"
            },
            {
              "internalType": "string",
              "name": "state",
              "type": "string"
            },
            {
              "internalType": "string",
              "name": "country",
              "type": "string"
            },
            {
              "internalType": "string",
              "name": "postalCode",
              "type": "string"
            },
            {
              "internalType": "string",
              "name": "phone",
              "type": "string"
            },
            {
              "internalType": "string",
              "name": "email",
              "type": "string"
            }
          ],
          "internalType": "struct HemShop.ShippingDetails",
          "name": "shippingDetails",
          "type": "tuple"
        }
      ],
      "name": "buyProduct",
      "outputs": [],
      "stateMutability": "payable",
      "type": "function"
    },
    {
      "inputs": [
        {
          "internalType": "address",
          "name": "",
          "type": "address"
        },
        {
          "internalType": "uint256",
          "name": "",
          "type": "uint256"
        }
      ],
      "name": "buyerPurchaseHistory",
      "outputs": [
        {
          "internalType": "uint256",
          "name": "productId",
          "type": "uint256"
        },
        {
          "internalType": "uint256",
          "name": "totalAmount",
          "type": "uint256"
        },
        {
          "internalType": "uint256",
          "name": "basePrice",
          "type": "uint256"
        },
        {
          "internalType": "uint256",
          "name": "timestamp",
          "type": "uint256"
        },
        {
          "internalType": "address",
          "name": "buyer",
          "type": "address"
        },
        {
          "internalType": "address",
          "name": "seller",
          "type": "address"
        },
        {
          "internalType": "bool",
          "name": "isDelivered",
          "type": "bool"
        },
        {
          "components": [
            {
              "internalType": "string",
              "name": "fullName",
              "type": "string"
            },
            {
              "internalType": "string",
              "name": "streetAddress",
              "type": "string"
            },
            {
              "internalType": "string",
              "name": "city",
              "type": "string"
            },
            {
              "internalType": "string",
              "name": "state",
              "type": "string"
            },
            {
              "internalType": "string",
              "name": "country",
              "type": "string"
            },
            {
              "internalType": "string",
              "name": "postalCode",
              "type": "string"
            },
            {
              "internalType": "string",
              "name": "phone",
              "type": "string"
            },
            {
              "internalType": "string",
              "name": "email",
              "type": "string"
            }
          ],
          "internalType": "struct HemShop.ShippingDetails",
          "name": "shippingDetails",
          "type": "tuple"
        }
      ],
      "stateMutability": "view",
      "type": "function"
    },
    {
      "inputs": [
        {
          "internalType": "uint256",
          "name": "newPct",
          "type": "uint256"
        }
      ],
      "name": "changeServicePct",
      "outputs": [],
      "stateMutability": "nonpayable",
      "type": "function"
    },
    {
      "inputs": [
        {
          "internalType": "string",
          "name": "_name",
          "type": "string"
        }
      ],
      "name": "createCategory",
      "outputs": [],
      "stateMutability": "nonpayable",
      "type": "function"
    },
    {
      "inputs": [
        {
          "components": [
            {
              "internalType": "string",
              "name": "name",
              "type": "string"
            },
            {
              "internalType": "string",
              "name": "description",
              "type": "string"
            },
            {
              "internalType": "uint256",
              "name": "price",
              "type": "uint256"
            },
            {
              "internalType": "uint256",
              "name": "stock",
              "type": "uint256"
            },
            {
              "internalType": "string",
              "name": "color",
              "type": "string"
            },
            {
              "internalType": "string",
              "name": "size",
              "type": "string"
            },
            {
              "internalType": "string[]",
              "name": "images",
              "type": "string[]"
            },
            {
              "internalType": "uint256",
              "name": "categoryId",
              "type": "uint256"
            },
            {
              "internalType": "uint256",
              "name": "subCategoryId",
              "type": "uint256"
            },
            {
              "internalType": "string",
              "name": "model",
              "type": "string"
            },
            {
              "internalType": "string",
              "name": "brand",
              "type": "string"
            },
            {
              "internalType": "uint256",
              "name": "weight",
              "type": "uint256"
            },
            {
              "internalType": "uint256",
              "name": "sku",
              "type": "uint256"
            }
          ],
          "internalType": "struct HemShop.ProductInput",
          "name": "input",
          "type": "tuple"
        }
      ],
      "name": "createProduct",
      "outputs": [],
      "stateMutability": "nonpayable",
      "type": "function"
    },
    {
      "inputs": [
        {
          "internalType": "uint256",
          "name": "productId",
          "type": "uint256"
        },
        {
          "internalType": "uint256",
          "name": "rating",
          "type": "uint256"
        },
        {
          "internalType": "string",
          "name": "comment",
          "type": "string"
        }
      ],
      "name": "createReview",
      "outputs": [],
      "stateMutability": "nonpayable",
      "type": "function"
    },
    {
      "inputs": [
        {
          "internalType": "uint256",
          "name": "parentId",
          "type": "uint256"
        },
        {
          "internalType": "string[]",
          "name": "names",
          "type": "string[]"
        }
      ],
      "name": "createSubCategoriesBulk",
      "outputs": [],
      "stateMutability": "nonpayable",
      "type": "function"
    },
    {
      "inputs": [
        {
          "internalType": "uint256",
          "name": "_parentId",
          "type": "uint256"
        },
        {
          "internalType": "string",
          "name": "_name",
          "type": "string"
        }
      ],
      "name": "createSubCategory",
      "outputs": [],
      "stateMutability": "nonpayable",
      "type": "function"
    },
    {
      "inputs": [
        {
          "internalType": "uint256",
          "name": "productId",
          "type": "uint256"
        }
      ],
      "name": "deleteProduct",
      "outputs": [],
      "stateMutability": "nonpayable",
      "type": "function"
    },
    {
      "inputs": [
        {
          "internalType": "uint256",
          "name": "productId",
          "type": "uint256"
        },
        {
          "internalType": "uint256",
          "name": "reviewId",
          "type": "uint256"
        }
      ],
      "name": "deleteReview",
      "outputs": [],
      "stateMutability": "nonpayable",
      "type": "function"
    },
    {
      "inputs": [],
      "name": "getAllCategories",
      "outputs": [
        {
          "internalType": "uint256[]",
          "name": "ids",
          "type": "uint256[]"
        },
        {
          "internalType": "string[]",
          "name": "names",
          "type": "string[]"
        },
        {
          "internalType": "bool[]",
          "name": "activeStates",
          "type": "bool[]"
        },
        {
          "internalType": "uint256[][]",
          "name": "subCategoryIdArrays",
          "type": "uint256[][]"
        }
      ],
      "stateMutability": "view",
      "type": "function"
    },
    {
      "inputs": [],
      "name": "getAllProducts",
      "outputs": [
        {
          "components": [
            {
              "internalType": "uint256",
              "name": "id",
              "type": "uint256"
            },
            {
              "internalType": "address",
              "name": "seller",
              "type": "address"
            },
            {
              "internalType": "string",
              "name": "name",
              "type": "string"
            },
            {
              "internalType": "string",
              "name": "description",
              "type": "string"
            },
            {
              "internalType": "uint256",
              "name": "price",
              "type": "uint256"
            },
            {
              "internalType": "uint256",
              "name": "stock",
              "type": "uint256"
            },
            {
              "internalType": "string",
              "name": "color",
              "type": "string"
            },
            {
              "internalType": "string",
              "name": "size",
              "type": "string"
            },
            {
              "internalType": "string[]",
              "name": "images",
              "type": "string[]"
            },
            {
              "internalType": "string",
              "name": "category",
              "type": "string"
            },
            {
              "internalType": "string",
              "name": "subCategory",
              "type": "string"
            },
            {
              "internalType": "uint256",
              "name": "weight",
              "type": "uint256"
            },
            {
              "internalType": "string",
              "name": "model",
              "type": "string"
            },
            {
              "internalType": "string",
              "name": "brand",
              "type": "string"
            },
            {
              "internalType": "uint256",
              "name": "sku",
              "type": "uint256"
            },
            {
              "internalType": "bool",
              "name": "soldout",
              "type": "bool"
            },
            {
              "internalType": "bool",
              "name": "wishlist",
              "type": "bool"
            },
            {
              "internalType": "bool",
              "name": "deleted",
              "type": "bool"
            },
            {
              "components": [
                {
                  "internalType": "uint256",
                  "name": "reviewId",
                  "type": "uint256"
                },
                {
                  "internalType": "address",
                  "name": "reviewer",
                  "type": "address"
                },
                {
                  "internalType": "uint256",
                  "name": "rating",
                  "type": "uint256"
                },
                {
                  "internalType": "string",
                  "name": "comment",
                  "type": "string"
                },
                {
                  "internalType": "bool",
                  "name": "deleted",
                  "type": "bool"
                }
              ],
              "internalType": "struct HemShop.ReviewStruct[]",
              "name": "reviews",
              "type": "tuple[]"
            }
          ],
          "internalType": "struct HemShop.ProductStruct[]",
          "name": "",
          "type": "tuple[]"
        }
      ],
      "stateMutability": "view",
      "type": "function"
    },
    {
      "inputs": [
        {
          "internalType": "uint256",
          "name": "tokenId",
          "type": "uint256"
        }
      ],
      "name": "getApproved",
      "outputs": [
        {
          "internalType": "address",
          "name": "",
          "type": "address"
        }
      ],
      "stateMutability": "view",
      "type": "function"
    },
    {
      "inputs": [
        {
          "internalType": "address",
          "name": "buyer",
          "type": "address"
        }
      ],
      "name": "getBuyerPurchaseHistory",
      "outputs": [
        {
          "components": [
            {
              "internalType": "uint256",
              "name": "productId",
              "type": "uint256"
            },
            {
              "internalType": "uint256",
              "name": "totalAmount",
              "type": "uint256"
            },
            {
              "internalType": "uint256",
              "name": "basePrice",
              "type": "uint256"
            },
            {
              "internalType": "uint256",
              "name": "timestamp",
              "type": "uint256"
            },
            {
              "internalType": "address",
              "name": "buyer",
              "type": "address"
            },
            {
              "internalType": "address",
              "name": "seller",
              "type": "address"
            },
            {
              "internalType": "bool",
              "name": "isDelivered",
              "type": "bool"
            },
            {
              "components": [
                {
                  "internalType": "string",
                  "name": "fullName",
                  "type": "string"
                },
                {
                  "internalType": "string",
                  "name": "streetAddress",
                  "type": "string"
                },
                {
                  "internalType": "string",
                  "name": "city",
                  "type": "string"
                },
                {
                  "internalType": "string",
                  "name": "state",
                  "type": "string"
                },
                {
                  "internalType": "string",
                  "name": "country",
                  "type": "string"
                },
                {
                  "internalType": "string",
                  "name": "postalCode",
                  "type": "string"
                },
                {
                  "internalType": "string",
                  "name": "phone",
                  "type": "string"
                },
                {
                  "internalType": "string",
                  "name": "email",
                  "type": "string"
                }
              ],
              "internalType": "struct HemShop.ShippingDetails",
              "name": "shippingDetails",
              "type": "tuple"
            }
          ],
          "internalType": "struct HemShop.PurchaseHistoryStruct[]",
          "name": "",
          "type": "tuple[]"
        }
      ],
      "stateMutability": "view",
      "type": "function"
    },
    {
      "inputs": [
        {
          "internalType": "uint256",
          "name": "_id",
          "type": "uint256"
        }
      ],
      "name": "getCategory",
      "outputs": [
        {
          "internalType": "uint256",
          "name": "id",
          "type": "uint256"
        },
        {
          "internalType": "string",
          "name": "name",
          "type": "string"
        },
        {
          "internalType": "bool",
          "name": "isActive",
          "type": "bool"
        },
        {
          "internalType": "uint256[]",
          "name": "subCategoryIds",
          "type": "uint256[]"
        }
      ],
      "stateMutability": "view",
      "type": "function"
    },
    {
      "inputs": [],
      "name": "getMyProducts",
      "outputs": [
        {
          "components": [
            {
              "internalType": "uint256",
              "name": "id",
              "type": "uint256"
            },
            {
              "internalType": "address",
              "name": "seller",
              "type": "address"
            },
            {
              "internalType": "string",
              "name": "name",
              "type": "string"
            },
            {
              "internalType": "string",
              "name": "description",
              "type": "string"
            },
            {
              "internalType": "uint256",
              "name": "price",
              "type": "uint256"
            },
            {
              "internalType": "uint256",
              "name": "stock",
              "type": "uint256"
            },
            {
              "internalType": "string",
              "name": "color",
              "type": "string"
            },
            {
              "internalType": "string",
              "name": "size",
              "type": "string"
            },
            {
              "internalType": "string[]",
              "name": "images",
              "type": "string[]"
            },
            {
              "internalType": "string",
              "name": "category",
              "type": "string"
            },
            {
              "internalType": "string",
              "name": "subCategory",
              "type": "string"
            },
            {
              "internalType": "uint256",
              "name": "weight",
              "type": "uint256"
            },
            {
              "internalType": "string",
              "name": "model",
              "type": "string"
            },
            {
              "internalType": "string",
              "name": "brand",
              "type": "string"
            },
            {
              "internalType": "uint256",
              "name": "sku",
              "type": "uint256"
            },
            {
              "internalType": "bool",
              "name": "soldout",
              "type": "bool"
            },
            {
              "internalType": "bool",
              "name": "wishlist",
              "type": "bool"
            },
            {
              "internalType": "bool",
              "name": "deleted",
              "type": "bool"
            },
            {
              "components": [
                {
                  "internalType": "uint256",
                  "name": "reviewId",
                  "type": "uint256"
                },
                {
                  "internalType": "address",
                  "name": "reviewer",
                  "type": "address"
                },
                {
                  "internalType": "uint256",
                  "name": "rating",
                  "type": "uint256"
                },
                {
                  "internalType": "string",
                  "name": "comment",
                  "type": "string"
                },
                {
                  "internalType": "bool",
                  "name": "deleted",
                  "type": "bool"
                }
              ],
              "internalType": "struct HemShop.ReviewStruct[]",
              "name": "reviews",
              "type": "tuple[]"
            }
          ],
          "internalType": "struct HemShop.ProductStruct[]",
          "name": "",
          "type": "tuple[]"
        }
      ],
      "stateMutability": "view",
      "type": "function"
    },
    {
      "inputs": [
        {
          "internalType": "uint256",
          "name": "productId",
          "type": "uint256"
        }
      ],
      "name": "getProduct",
      "outputs": [
        {
          "components": [
            {
              "internalType": "uint256",
              "name": "id",
              "type": "uint256"
            },
            {
              "internalType": "address",
              "name": "seller",
              "type": "address"
            },
            {
              "internalType": "string",
              "name": "name",
              "type": "string"
            },
            {
              "internalType": "string",
              "name": "description",
              "type": "string"
            },
            {
              "internalType": "uint256",
              "name": "price",
              "type": "uint256"
            },
            {
              "internalType": "uint256",
              "name": "stock",
              "type": "uint256"
            },
            {
              "internalType": "string",
              "name": "color",
              "type": "string"
            },
            {
              "internalType": "string",
              "name": "size",
              "type": "string"
            },
            {
              "internalType": "string[]",
              "name": "images",
              "type": "string[]"
            },
            {
              "internalType": "string",
              "name": "category",
              "type": "string"
            },
            {
              "internalType": "string",
              "name": "subCategory",
              "type": "string"
            },
            {
              "internalType": "uint256",
              "name": "weight",
              "type": "uint256"
            },
            {
              "internalType": "string",
              "name": "model",
              "type": "string"
            },
            {
              "internalType": "string",
              "name": "brand",
              "type": "string"
            },
            {
              "internalType": "uint256",
              "name": "sku",
              "type": "uint256"
            },
            {
              "internalType": "bool",
              "name": "soldout",
              "type": "bool"
            },
            {
              "internalType": "bool",
              "name": "wishlist",
              "type": "bool"
            },
            {
              "internalType": "bool",
              "name": "deleted",
              "type": "bool"
            },
            {
              "components": [
                {
                  "internalType": "uint256",
                  "name": "reviewId",
                  "type": "uint256"
                },
                {
                  "internalType": "address",
                  "name": "reviewer",
                  "type": "address"
                },
                {
                  "internalType": "uint256",
                  "name": "rating",
                  "type": "uint256"
                },
                {
                  "internalType": "string",
                  "name": "comment",
                  "type": "string"
                },
                {
                  "internalType": "bool",
                  "name": "deleted",
                  "type": "bool"
                }
              ],
              "internalType": "struct HemShop.ReviewStruct[]",
              "name": "reviews",
              "type": "tuple[]"
            }
          ],
          "internalType": "struct HemShop.ProductStruct",
          "name": "",
          "type": "tuple"
        }
      ],
      "stateMutability": "view",
      "type": "function"
    },
    {
      "inputs": [
        {
          "internalType": "uint256",
          "name": "productId",
          "type": "uint256"
        }
      ],
      "name": "getReviews",
      "outputs": [
        {
          "components": [
            {
              "internalType": "uint256",
              "name": "reviewId",
              "type": "uint256"
            },
            {
              "internalType": "address",
              "name": "reviewer",
              "type": "address"
            },
            {
              "internalType": "uint256",
              "name": "rating",
              "type": "uint256"
            },
            {
              "internalType": "string",
              "name": "comment",
              "type": "string"
            },
            {
              "internalType": "bool",
              "name": "deleted",
              "type": "bool"
            }
          ],
          "internalType": "struct HemShop.ReviewStruct[]",
          "name": "",
          "type": "tuple[]"
        }
      ],
      "stateMutability": "view",
      "type": "function"
    },
    {
      "inputs": [
        {
          "internalType": "address",
          "name": "seller",
          "type": "address"
        }
      ],
      "name": "getSellerBalance",
      "outputs": [
        {
          "internalType": "uint256",
          "name": "",
          "type": "uint256"
        }
      ],
      "stateMutability": "view",
      "type": "function"
    },
    {
      "inputs": [
        {
          "internalType": "address",
          "name": "seller",
          "type": "address"
        }
      ],
      "name": "getSellerPurchaseHistory",
      "outputs": [
        {
          "components": [
            {
              "internalType": "uint256",
              "name": "productId",
              "type": "uint256"
            },
            {
              "internalType": "uint256",
              "name": "totalAmount",
              "type": "uint256"
            },
            {
              "internalType": "uint256",
              "name": "basePrice",
              "type": "uint256"
            },
            {
              "internalType": "uint256",
              "name": "timestamp",
              "type": "uint256"
            },
            {
              "internalType": "address",
              "name": "buyer",
              "type": "address"
            },
            {
              "internalType": "address",
              "name": "seller",
              "type": "address"
            },
            {
              "internalType": "bool",
              "name": "isDelivered",
              "type": "bool"
            },
            {
              "components": [
                {
                  "internalType": "string",
                  "name": "fullName",
                  "type": "string"
                },
                {
                  "internalType": "string",
                  "name": "streetAddress",
                  "type": "string"
                },
                {
                  "internalType": "string",
                  "name": "city",
                  "type": "string"
                },
                {
                  "internalType": "string",
                  "name": "state",
                  "type": "string"
                },
                {
                  "internalType": "string",
                  "name": "country",
                  "type": "string"
                },
                {
                  "internalType": "string",
                  "name": "postalCode",
                  "type": "string"
                },
                {
                  "internalType": "string",
                  "name": "phone",
                  "type": "string"
                },
                {
                  "internalType": "string",
                  "name": "email",
                  "type": "string"
                }
              ],
              "internalType": "struct HemShop.ShippingDetails",
              "name": "shippingDetails",
              "type": "tuple"
            }
          ],
          "internalType": "struct HemShop.PurchaseHistoryStruct[]",
          "name": "",
          "type": "tuple[]"
        }
      ],
      "stateMutability": "view",
      "type": "function"
    },
    {
      "inputs": [
        {
          "internalType": "uint256",
          "name": "_id",
          "type": "uint256"
        }
      ],
      "name": "getSubCategory",
      "outputs": [
        {
          "internalType": "uint256",
          "name": "id",
          "type": "uint256"
        },
        {
          "internalType": "string",
          "name": "name",
          "type": "string"
        },
        {
          "internalType": "uint256",
          "name": "parentCategoryId",
          "type": "uint256"
        },
        {
          "internalType": "bool",
          "name": "isActive",
          "type": "bool"
        }
      ],
      "stateMutability": "view",
      "type": "function"
    },
    {
      "inputs": [
        {
          "internalType": "address",
          "name": "account",
          "type": "address"
        }
      ],
      "name": "impersonateAccount",
      "outputs": [],
      "stateMutability": "nonpayable",
      "type": "function"
    },
    {
      "inputs": [
        {
          "internalType": "address",
          "name": "owner",
          "type": "address"
        },
        {
          "internalType": "address",
          "name": "operator",
          "type": "address"
        }
      ],
      "name": "isApprovedForAll",
      "outputs": [
        {
          "internalType": "bool",
          "name": "",
          "type": "bool"
        }
      ],
      "stateMutability": "view",
      "type": "function"
    },
    {
      "inputs": [
        {
          "internalType": "uint256",
          "name": "productId",
          "type": "uint256"
        },
        {
          "internalType": "address",
          "name": "buyer",
          "type": "address"
        }
      ],
      "name": "markPurchaseDelivered",
      "outputs": [],
      "stateMutability": "nonpayable",
      "type": "function"
    },
    {
      "inputs": [],
      "name": "name",
      "outputs": [
        {
          "internalType": "string",
          "name": "",
          "type": "string"
        }
      ],
      "stateMutability": "view",
      "type": "function"
    },
    {
      "inputs": [],
      "name": "owner",
      "outputs": [
        {
          "internalType": "address",
          "name": "",
          "type": "address"
        }
      ],
      "stateMutability": "view",
      "type": "function"
    },
    {
      "inputs": [
        {
          "internalType": "uint256",
          "name": "tokenId",
          "type": "uint256"
        }
      ],
      "name": "ownerOf",
      "outputs": [
        {
          "internalType": "address",
          "name": "",
          "type": "address"
        }
      ],
      "stateMutability": "view",
      "type": "function"
    },
    {
      "inputs": [
        {
          "internalType": "uint256",
          "name": "",
          "type": "uint256"
        }
      ],
      "name": "productExists",
      "outputs": [
        {
          "internalType": "bool",
          "name": "",
          "type": "bool"
        }
      ],
      "stateMutability": "view",
      "type": "function"
    },
    {
      "inputs": [
        {
          "internalType": "uint256",
          "name": "",
          "type": "uint256"
        }
      ],
      "name": "products",
      "outputs": [
        {
          "internalType": "uint256",
          "name": "id",
          "type": "uint256"
        },
        {
          "internalType": "address",
          "name": "seller",
          "type": "address"
        },
        {
          "internalType": "string",
          "name": "name",
          "type": "string"
        },
        {
          "internalType": "string",
          "name": "description",
          "type": "string"
        },
        {
          "internalType": "uint256",
          "name": "price",
          "type": "uint256"
        },
        {
          "internalType": "uint256",
          "name": "stock",
          "type": "uint256"
        },
        {
          "internalType": "string",
          "name": "color",
          "type": "string"
        },
        {
          "internalType": "string",
          "name": "size",
          "type": "string"
        },
        {
          "internalType": "string",
          "name": "category",
          "type": "string"
        },
        {
          "internalType": "string",
          "name": "subCategory",
          "type": "string"
        },
        {
          "internalType": "uint256",
          "name": "weight",
          "type": "uint256"
        },
        {
          "internalType": "string",
          "name": "model",
          "type": "string"
        },
        {
          "internalType": "string",
          "name": "brand",
          "type": "string"
        },
        {
          "internalType": "uint256",
          "name": "sku",
          "type": "uint256"
        },
        {
          "internalType": "bool",
          "name": "soldout",
          "type": "bool"
        },
        {
          "internalType": "bool",
          "name": "wishlist",
          "type": "bool"
        },
        {
          "internalType": "bool",
          "name": "deleted",
          "type": "bool"
        }
      ],
      "stateMutability": "view",
      "type": "function"
    },
    {
      "inputs": [],
      "name": "registerSeller",
      "outputs": [],
      "stateMutability": "nonpayable",
      "type": "function"
    },
    {
      "inputs": [
        {
          "internalType": "address",
          "name": "",
          "type": "address"
        }
      ],
      "name": "registeredSellers",
      "outputs": [
        {
          "internalType": "bool",
          "name": "",
          "type": "bool"
        }
      ],
      "stateMutability": "view",
      "type": "function"
    },
    {
      "inputs": [],
      "name": "renounceOwnership",
      "outputs": [],
      "stateMutability": "nonpayable",
      "type": "function"
    },
    {
      "inputs": [
        {
          "internalType": "uint256",
          "name": "",
          "type": "uint256"
        }
      ],
      "name": "reviewExists",
      "outputs": [
        {
          "internalType": "bool",
          "name": "",
          "type": "bool"
        }
      ],
      "stateMutability": "view",
      "type": "function"
    },
    {
      "inputs": [
        {
          "internalType": "address",
          "name": "from",
          "type": "address"
        },
        {
          "internalType": "address",
          "name": "to",
          "type": "address"
        },
        {
          "internalType": "uint256",
          "name": "tokenId",
          "type": "uint256"
        }
      ],
      "name": "safeTransferFrom",
      "outputs": [],
      "stateMutability": "nonpayable",
      "type": "function"
    },
    {
      "inputs": [
        {
          "internalType": "address",
          "name": "from",
          "type": "address"
        },
        {
          "internalType": "address",
          "name": "to",
          "type": "address"
        },
        {
          "internalType": "uint256",
          "name": "tokenId",
          "type": "uint256"
        },
        {
          "internalType": "bytes",
          "name": "data",
          "type": "bytes"
        }
      ],
      "name": "safeTransferFrom",
      "outputs": [],
      "stateMutability": "nonpayable",
      "type": "function"
    },
    {
      "inputs": [
        {
          "internalType": "address",
          "name": "",
          "type": "address"
        }
      ],
      "name": "sellerBalances",
      "outputs": [
        {
          "internalType": "uint256",
          "name": "",
          "type": "uint256"
        }
      ],
      "stateMutability": "view",
      "type": "function"
    },
    {
      "inputs": [
        {
          "internalType": "address",
          "name": "",
          "type": "address"
        },
        {
          "internalType": "uint256",
          "name": "",
          "type": "uint256"
        }
      ],
      "name": "sellerProducts",
      "outputs": [
        {
          "internalType": "uint256",
          "name": "",
          "type": "uint256"
        }
      ],
      "stateMutability": "view",
      "type": "function"
    },
    {
      "inputs": [
        {
          "internalType": "address",
          "name": "",
          "type": "address"
        },
        {
          "internalType": "uint256",
          "name": "",
          "type": "uint256"
        }
      ],
      "name": "sellerPurchaseHistory",
      "outputs": [
        {
          "internalType": "uint256",
          "name": "productId",
          "type": "uint256"
        },
        {
          "internalType": "uint256",
          "name": "totalAmount",
          "type": "uint256"
        },
        {
          "internalType": "uint256",
          "name": "basePrice",
          "type": "uint256"
        },
        {
          "internalType": "uint256",
          "name": "timestamp",
          "type": "uint256"
        },
        {
          "internalType": "address",
          "name": "buyer",
          "type": "address"
        },
        {
          "internalType": "address",
          "name": "seller",
          "type": "address"
        },
        {
          "internalType": "bool",
          "name": "isDelivered",
          "type": "bool"
        },
        {
          "components": [
            {
              "internalType": "string",
              "name": "fullName",
              "type": "string"
            },
            {
              "internalType": "string",
              "name": "streetAddress",
              "type": "string"
            },
            {
              "internalType": "string",
              "name": "city",
              "type": "string"
            },
            {
              "internalType": "string",
              "name": "state",
              "type": "string"
            },
            {
              "internalType": "string",
              "name": "country",
              "type": "string"
            },
            {
              "internalType": "string",
              "name": "postalCode",
              "type": "string"
            },
            {
              "internalType": "string",
              "name": "phone",
              "type": "string"
            },
            {
              "internalType": "string",
              "name": "email",
              "type": "string"
            }
          ],
          "internalType": "struct HemShop.ShippingDetails",
          "name": "shippingDetails",
          "type": "tuple"
        }
      ],
      "stateMutability": "view",
      "type": "function"
    },
    {
      "inputs": [
        {
          "internalType": "address",
          "name": "",
          "type": "address"
        }
      ],
      "name": "sellerStatus",
      "outputs": [
        {
          "internalType": "enum HemShop.SellerStatus",
          "name": "",
          "type": "uint8"
        }
      ],
      "stateMutability": "view",
      "type": "function"
    },
    {
      "inputs": [],
      "name": "servicePct",
      "outputs": [
        {
          "internalType": "uint256",
          "name": "",
          "type": "uint256"
        }
      ],
      "stateMutability": "view",
      "type": "function"
    },
    {
      "inputs": [
        {
          "internalType": "address",
          "name": "operator",
          "type": "address"
        },
        {
          "internalType": "bool",
          "name": "approved",
          "type": "bool"
        }
      ],
      "name": "setApprovalForAll",
      "outputs": [],
      "stateMutability": "nonpayable",
      "type": "function"
    },
    {
      "inputs": [],
      "name": "stopImpersonating",
      "outputs": [],
      "stateMutability": "nonpayable",
      "type": "function"
    },
    {
      "inputs": [
        {
          "internalType": "bytes4",
          "name": "interfaceId",
          "type": "bytes4"
        }
      ],
      "name": "supportsInterface",
      "outputs": [
        {
          "internalType": "bool",
          "name": "",
          "type": "bool"
        }
      ],
      "stateMutability": "view",
      "type": "function"
    },
    {
      "inputs": [],
      "name": "symbol",
      "outputs": [
        {
          "internalType": "string",
          "name": "",
          "type": "string"
        }
      ],
      "stateMutability": "view",
      "type": "function"
    },
    {
      "inputs": [
        {
          "internalType": "uint256",
          "name": "tokenId",
          "type": "uint256"
        }
      ],
      "name": "tokenURI",
      "outputs": [
        {
          "internalType": "string",
          "name": "",
          "type": "string"
        }
      ],
      "stateMutability": "view",
      "type": "function"
    },
    {
      "inputs": [
        {
          "internalType": "address",
          "name": "from",
          "type": "address"
        },
        {
          "internalType": "address",
          "name": "to",
          "type": "address"
        },
        {
          "internalType": "uint256",
          "name": "tokenId",
          "type": "uint256"
        }
      ],
      "name": "transferFrom",
      "outputs": [],
      "stateMutability": "nonpayable",
      "type": "function"
    },
    {
      "inputs": [
        {
          "internalType": "address",
          "name": "newOwner",
          "type": "address"
        }
      ],
      "name": "transferOwnership",
      "outputs": [],
      "stateMutability": "nonpayable",
      "type": "function"
    },
    {
      "inputs": [
        {
          "internalType": "uint256",
          "name": "_id",
          "type": "uint256"
        },
        {
          "internalType": "string",
          "name": "_name",
          "type": "string"
        },
        {
          "internalType": "bool",
          "name": "_isActive",
          "type": "bool"
        }
      ],
      "name": "updateCategory",
      "outputs": [],
      "stateMutability": "nonpayable",
      "type": "function"
    },
    {
      "inputs": [
        {
          "internalType": "uint256",
          "name": "productId",
          "type": "uint256"
        },
        {
          "components": [
            {
              "internalType": "string",
              "name": "name",
              "type": "string"
            },
            {
              "internalType": "string",
              "name": "description",
              "type": "string"
            },
            {
              "internalType": "uint256",
              "name": "price",
              "type": "uint256"
            },
            {
              "internalType": "uint256",
              "name": "stock",
              "type": "uint256"
            },
            {
              "internalType": "string",
              "name": "color",
              "type": "string"
            },
            {
              "internalType": "string",
              "name": "size",
              "type": "string"
            },
            {
              "internalType": "string[]",
              "name": "images",
              "type": "string[]"
            },
            {
              "internalType": "uint256",
              "name": "categoryId",
              "type": "uint256"
            },
            {
              "internalType": "uint256",
              "name": "subCategoryId",
              "type": "uint256"
            },
            {
              "internalType": "string",
              "name": "model",
              "type": "string"
            },
            {
              "internalType": "string",
              "name": "brand",
              "type": "string"
            },
            {
              "internalType": "uint256",
              "name": "weight",
              "type": "uint256"
            },
            {
              "internalType": "uint256",
              "name": "sku",
              "type": "uint256"
            }
          ],
          "internalType": "struct HemShop.ProductInput",
          "name": "input",
          "type": "tuple"
        }
      ],
      "name": "updateProduct",
      "outputs": [],
      "stateMutability": "nonpayable",
      "type": "function"
    },
    {
      "inputs": [
        {
          "internalType": "address",
          "name": "seller",
          "type": "address"
        },
        {
          "internalType": "enum HemShop.SellerStatus",
          "name": "status",
          "type": "uint8"
        }
      ],
      "name": "updateSellerStatus",
      "outputs": [],
      "stateMutability": "nonpayable",
      "type": "function"
    },
    {
      "inputs": [
        {
          "internalType": "uint256",
          "name": "_id",
          "type": "uint256"
        },
        {
          "internalType": "string",
          "name": "_name",
          "type": "string"
        },
        {
          "internalType": "bool",
          "name": "_isActive",
          "type": "bool"
        }
      ],
      "name": "updateSubCategory",
      "outputs": [],
      "stateMutability": "nonpayable",
      "type": "function"
    },
    {
      "inputs": [],
      "name": "withdraw",
      "outputs": [],
      "stateMutability": "nonpayable",
      "type": "function"
    }
  ],
  "bytecode": "0x6080346200037757601f90601f196001600160401b0362007c883881900385810184168501838111868210176200037c57859282916040528339602094859181010312620003775751936200005362000392565b926007845266048656d53686f760cc1b858501526200007162000392565b60038082526204873760ec1b8783015260008054336001600160a01b031982168117835592989394919392906001600160a01b03167f8be0079c531659141344cd1fd0a4f28419497f9722a3daafe3b4186f6b6457e08580a360019687805580519087821162000363576002548981811c9116801562000358575b858210146200034457908188849311620002f0575b5084908883116001146200028e57869262000282575b5050600019828b1b1c191690881b176002555b83519586116200026e5787548781811c9116801562000263575b838210146200024f5785811162000207575b5081948611600114620001a25750509183949184939462000196575b50501b9160001990841b1c19161790555b600b556040516178d59081620003b38239f35b01519250388062000172565b8783528183209493928692918316915b88838310620001ec5750505010620001d3575b505050811b01905562000183565b015160001983861b60f8161c19169055388080620001c5565b858701518855909601959485019487935090810190620001b2565b8884528284208680890160051c820192858a1062000245575b0160051c019088905b8281106200023957505062000156565b85815501889062000229565b9250819262000220565b634e487b7160e01b84526022600452602484fd5b90607f169062000144565b634e487b7160e01b83526041600452602483fd5b01519050388062000117565b90848b9416916002885286882092885b88828210620002d95750508411620002c0575b505050811b016002556200012a565b0151600019838d1b60f8161c19169055388080620002b1565b8385015186558e979095019493840193016200029e565b909150600286528486208880850160051c8201928786106200033a575b918c91869594930160051c01915b8281106200032b57505062000101565b8881558594508c91016200031b565b925081926200030d565b634e487b7160e01b86526022600452602486fd5b90607f1690620000ec565b634e487b7160e01b85526041600452602485fd5b600080fd5b634e487b7160e01b600052604160045260246000fd5b60408051919082016001600160401b038111838210176200037c5760405256fe608080604052600436101561001357600080fd5b60003560e01c908162d64e76146157255750806301ffc9a7146156b757806302ee3a521461542057806306fdde031461537b578063081812fc1461535d578063095ea7b3146151e357806311aa5b3414614e7d5780631385fd9214614e2957806316d81b3814614c375780632148893f1461448f57806323b872dd14614c0e57806324d41a03146149f1578063317a0827146148aa5780633c2575d5146147c55780633ccfd60b1461465357806342842e0e1461462b57806345de84db146145e957806352c9224c1461452c5780635be20959146144c9578063607eb4e41461448f5780636352211e1461445f578063661e171214613c1257806366224d8e14613abc5780636f2c859914613a1957806370a0823114613982578063715018a61461393b5780637acc0b20146137a35780637d3978db146135855780638da5cb5b1461355c57806395d89b411461347a57806397b6f393146132835780639d4a2255146130f45780639fa44dbf146130ac578063a22cb46514612fe1578063a22fb38714612f36578063af55ed6414612f05578063af972fdc146120f0578063b27e16971461200b578063b88d4fde14611faa578063b95a062814611f6f578063b9db15b414611d39578063c1302b3414611ce1578063c64b8a8f14611ca2578063c87b56dd14611c48578063d2bc9d781461199b578063d6b326ca14610f60578063dadd0a5714610c1f578063dc298682146109e8578063e01ef6e6146109ca578063e585cb2c1461093a578063e985e9c5146108e4578063ed90c7b714610702578063f2fde38b14610653578063f3052d26146105665763fdca4ca31461027b57600080fd5b346105615760003660031901126105615760088054600060015b828111156104fb57506102a790617026565b9060009260015b828111156102c857604051806102c486826159c9565b0390f35b600081815260106020818152604090922060018101546001600160a01b03169291338414806104ea575b610309575b5050505061030490616e2d565b6102ae565b6040989498519361031985615a57565b825485528385015261032d60028301615d97565b604085015261033e60038301615d97565b6060850152600482015460808501526005918281015460a086015261036560068201615d97565b60c086015261037660078201615d97565b60e08601528681018054610389816169d4565b916103976040519384615ae0565b818352600090815286812090878085015b8483106104cc5750505050506101008601526103c660098201615d97565b6101208601526103d8600a8201615d97565b610140860152600b8101546101608601526103f5600c8201615d97565b610180860152610407600d8201615d97565b6101a0860152600e8101546101c0860152600f81015460ff9081811615156101e088015281818a1c161515610200880152831c1615156102208601520190815491610451836169d4565b9361045f6040519586615ae0565b8385526000918252808220918186015b8582106104b0575050505050509181610304936102406104a69401526104958288616f7b565b526104a08187616f7b565b50616e2d565b94903880806102f7565b84836001926104be87616fd6565b81520194019101909261046f565b60019182916104da86615d97565b81520193019101909188906103a8565b5060ff600f830154821c16156102f2565b600081815260106020819052604090912060018101546001600160a01b0316331491908261054e575b5050610539575b61053490616e2d565b610295565b9061054661053491616e2d565b91905061052b565b60ff9250600f0154901c16153880610524565b600080fd5b346105615760208060031936011261056157600435600052600c815260406000206040519061059482615a8f565b805482526001906105a6828201615d97565b92848101938452600360ff60028401541692604083019315158452016040518094878354928381520192600052876000209160005b8982821061064057896102c48a8a61062d8b6105f9848d0385615ae0565b6060810193845261060c81511515616ea2565b51945191511515925191608060405197889788528701526080860190615752565b9160408501528382036060850152615f63565b84548652909401939282019282016105db565b346105615760203660031901126105615761066c615a2b565b610674615f97565b6001600160a01b039081169081156106ae576000548260018060a01b031982161760005516600080516020617849833981519152600080a3005b60405162461bcd60e51b815260206004820152602660248201527f4f776e61626c653a206e6577206f776e657220697320746865207a65726f206160448201526564647265737360d01b6064820152608490fd5b34610561576020806003193601126105615733600090815260198252604090205460043591906001600160a01b0390811680156108a857806000526013835260ff604060002054169060048210156108925760026107699214908115610884575b5061649e565b826000526017825261078260ff60406000205416616c83565b826000526010825233816001604060002001541614908115610876575b501561082257816000526010815260ff600f6040600020015460101c166107e15760009182526010905260409020600f01805462ff0000191662010000179055005b6064906040519062461bcd60e51b82526004820152601a602482015279141c9bd91d58dd081a5cc8185b1c9958591e4819195b195d195960321b6044820152fd5b6084906040519062461bcd60e51b82526004820152602760248201527f4f6e6c792070726f647563742073656c6c6572206f72206f776e65722063616e6044820152662064656c65746560c81b6064820152fd5b60005416331490508361079f565b905082600054161485610763565b634e487b7160e01b600052602160045260246000fd5b506013825260ff6040600020541660048110156108925760021480156108d7575b6108d29061649e565b610769565b50600054811633146108c9565b34610561576040366003190112610561576108fd615a2b565b610905615a41565b9060018060a01b03809116600052600760205260406000209116600052602052602060ff604060002054166040519015158152f35b3461056157604036600319011261056157610953615a2b565b6001600160a01b0390811660009081526015602052604090208054602435908110156105615761098291615e3d565b50906102c48254600184015493600281015491600382015485600484015416906109b3600660058601549501615e6f565b9460405198899860ff8760a01c1696169489615f01565b34610561576000366003190112610561576020600b54604051908152f35b3461056157602080600319360112610561576001600160401b0360043581811161056157610a1a903690600401615b55565b90610a23615f97565b610a2f82511515616de1565b610a3a600e54616e2d565b9081600e55604051610a4b81615ac5565b60008152604051610a5b81615a8f565b838152858101858152604082019060019586835260608401948552600052600c88526040600020925183558583019051805190868211610b8d57610aa982610aa38554615d5d565b85616a02565b8990601f8311600114610bae579180610ae894926003979694600092610ba3575b505060001982881b1c191690891b1790555b51151560028301616341565b0190518051928311610b8d57600160401b8311610b8d5785908254848455808510610b70575b5001906000528460002060005b838110610b5f57600e546040518881527f11c167cc9b439f0ad8bec5588159f1b06b813bc38d50c867a41b23b077be2c1a9080610b5a818c018b615752565b0390a2005b825182820155918601918401610b1b565b610b879084600052858460002091820191016169eb565b87610b0e565b634e487b7160e01b600052604160045260246000fd5b015190508c80610aca565b889291601f19831691856000528c600020928d6000905b828210610c08575050916003989795939185610ae898969410610bf0575b505050811b019055610adc565b0151600019838a1b60f8161c191690558c8080610be3565b8385015186558d979095019493840193018e610bc5565b3461056157600036600319011261056157600e54610c3c816169d4565b90610c4a6040519283615ae0565b808252601f19610c59826169d4565b01366020840137610c69816169d4565b610c766040519182615ae0565b818152610c92601f19610c88846169d4565b0160208301616f51565b610c9b826169d4565b90610ca96040519283615ae0565b828252610cb5836169d4565b602083019290601f1901368437610ccb846169d4565b93610cd96040519586615ae0565b808552610cf5601f19610ceb836169d4565b0160208701616f51565b60015b81811115610e1e57610d1c8787878787604051958695608087526080870190615f63565b8581036020870152825180825260208201916020808360051b8301019501926000915b838310610de75750505050506020908583036040870152519182815201919060005b818110610dcc575050508281036060840152815180825260208201916020808360051b8301019401926000915b838310610d9b5786860387f35b919395509193602080610dba600193601f198682030187528951615f63565b97019301930190928695949293610d8e565b82511515845286955060209384019390920191600101610d61565b919396979850919394602080610e09600193601f198682030187528a51615752565b98019301930190928998979695949293610d3f565b80600052600c602052604060002090600360405192610e3c84615a8f565b80548452610e4c60018201615d97565b602085015260ff6002820154161515604085015201604051808260208294549384815201906000526020600020926000905b808210610f44575050610e9392500382615ae0565b60608301528151610eae575b610ea99150616e2d565b610cf8565b80600019810111610f2e57606082610ea99351610ecf60001985018c616f7b565b526020810151610ee3600019850189616f7b565b52610ef2600019840188616f7b565b5060408101511515610f08600019850188616f7b565b520151610f19600019830189616f7b565b52610f28600019820188616f7b565b50610e9f565b634e487b7160e01b600052601160045260246000fd5b9160019193506020829186548152019401920184929391610e7e565b3461056157600319604036820112610561576001600160401b0360243511610561576101a0906024353603011261056157336000908152601960205260409020546001600160a01b03908116801561195e5780600052601360205260ff60406000205416906004821015610892576002610fe29214908115611950575061649e565b6004356000526010602052339060016040600020015416036118fa57600435600052601760205261101a60ff60406000205416616c83565b600435600052601060205261103d60ff600f6040600020015460101c1615616cc8565b61105861104f600460243501806164f8565b9050151561652a565b61107761106e60248035016024356004016164f8565b9050151561656d565b6110886044602435013515156165b7565b6110a861109f60c460243501602435600401616691565b905015156166c6565b6110c960056110c160c460243501602435600401616691565b90501061670b565b6110da606460243501351515616602565b6110fa6110f16084602435016024356004016164f8565b9050151561664d565b61111a61111160a4602435016024356004016164f8565b90501515616756565b61112b60e460243501351515616799565b61113d610104602435013515156167e0565b61115e611155610124602435016024356004016164f8565b9050151561682b565b61117f611176610144602435016024356004016164f8565b9050151561686f565b611191610164602435013515156168b3565b6111a3610184602435013515156168ff565b6111b2600460243501806164f8565b6004356000908152601060205260409020600201906001600160401b038111610b8d576111e9816111e38454615d5d565b84616a02565b600092601f82116001146118915792819293600092611886575b50508160011b916000199060031b1c19161790555b61122b60248035016024356004016164f8565b6004356000908152601060205260409020600301906001600160401b038111610b8d5761125c816111e38454615d5d565b600092601f821160011461181d5792819293600092611812575b50508160011b916000199060031b1c19161790555b600435600052601060205260406000206044602435013560048201556064602435013560058201556112c76084602435016024356004016164f8565b906001600160401b038211610b8d576112f0826112e76006860154615d5d565b60068601616a02565b600090601f83116001146117a2576006929160009183611797575b50508160011b916000199060031b1c1916179101555b61133560a4602435016024356004016164f8565b6004356000908152601060205260409020600701906001600160401b038111610b8d57611366816111e38454615d5d565b600092601f821160011461172e5792819293600092611723575b50508160011b916000199060031b1c19161790555b6113a960c460243501602435600401616691565b60043560005260106020526008604060002001916113c78284616a90565b60009283526020832090805b83851061163a5760e46024350135600052600c60205261140c600160406000200160043560005260106020526009604060002001616d09565b6101046024350135600052600d60205261143f60016040600020016004356000526010602052600a604060002001616d09565b611454610124602435016024356004016164f8565b6004356000908152601060205260409020600c01906001600160401b038111610b8d57611485816111e38454615d5d565b600092601f82116001146115d157928192936000926115c6575b50508160011b916000199060031b1c19161790555b6114c9610144602435016024356004016164f8565b6004356000908152601060205260409020600d01906001600160401b038111610b8d576114fa816111e38454615d5d565b6000601f821160011461156157819293600092611556575b50508160011b916000199060031b1c19161790555b600435600052601060205260406000206101646024350135600b820155600e6101846024350135910155600080f35b013590508380611512565b601f198216938360005260206000209160005b8681106115ae5750836001959610611594575b505050811b019055611527565b0135600019600384901b60f8161c19169055838080611587565b90926020600181928686013581550194019101611574565b01359050838061149f565b826000526020600020906000945b601f198416861061162257600194955083601f19811610611608575b505050811b0190556114b4565b0135600019600384901b60f8161c191690558380806115fb565b916020600181928585013581550193019501946115df565b61164481836164f8565b906001600160401b038211610b8d57611667826116618754615d5d565b87616a02565b600090601f83116001146116b35792826001949360209386956000926116a8575b5050600019600383901b1c191690841b1786555b019301940193916113d3565b013590508a80611688565b8560005260206000209160005b601f198516811061170b575083602093600196938796938794601f198116106116f1575b505050811b01865561169c565b0135600019600384901b60f8161c191690558a80806116e4565b909260206001819286860135815501940191016116c0565b013590508380611380565b826000526020600020906000945b601f198416861061177f57600194955083601f19811610611765575b505050811b019055611395565b0135600019600384901b60f8161c19169055838080611758565b9160206001819285850135815501930195019461173c565b01359050848061130b565b6006840160005260206000209160005b601f19851681106117fa5750918391600193600695601f198116106117e0575b505050811b01910155611321565b0135600019600384901b60f8161c191690558480806117d2565b909260206001819286860135815501940191016117b2565b013590508380611276565b826000526020600020906000945b601f198416861061186e57600194955083601f19811610611854575b505050811b01905561128b565b0135600019600384901b60f8161c19169055838080611847565b9160206001819285850135815501930195019461182b565b013590508380611203565b826000526020600020906000945b601f19841686106118e257600194955083601f198116106118c8575b505050811b019055611218565b0135600019600384901b60f8161c191690558380806118bb565b9160206001819285850135815501930195019461189f565b60405162461bcd60e51b815260206004820152602860248201527f4f6e6c79207468652073656c6c65722063616e20757064617465207468656972604482015267081c1c9bd91d58dd60c21b6064820152608490fd5b905082600054161483610763565b50601360205260ff60406000205416600481101561089257600214801561198e575b6119899061649e565b610fe2565b5060005481163314611980565b34610561576040366003190112610561576024356001600160401b0381116105615736602382011215610561576001600160401b0360048201351161056157366024826004013560051b8301011161056157600435600052600c60205260ff6002604060002001541615611c065760005b81600401358110611a1957005b611a24600f54616e2d565b80600f55611a56611a3d83856004013560248701616e87565b919060405192611a4c84615a8f565b8484523691615b1e565b9160208201928352600435604083015260016060830152600052600d602052604060002091815183555180519060018060401b038211610b8d57611aaa82611aa16001870154615d5d565b60018701616a02565b602090601f8311600114611b8857611b1c9383611b78979694611b0294606094600092611b7d575b50508160011b916000199060031b1c19161760018501555b60408101516002850155015115156003809301616341565b600435600052600c602052604060002001600f5490616c03565b600080516020617889833981519152600f54611b4083866004013560248801616e87565b9290836040519160208352816020840152604083013760006040858301015260408160043595601f80199101168101030190a3616e2d565b611a0c565b015190508a80611ad2565b906001850160005260206000209160005b601f1985168110611bee575093600184611b0294606094611b1c98611b789b9a98601f19811610611bd5575b505050811b016001850155611aea565b015160001960f88460031b161c191690558a8080611bc5565b91926020600181928685015181550194019201611b99565b60405162461bcd60e51b815260206004820152601a602482015279506172656e742063617465676f7279206e6f742061637469766560301b6044820152606490fd5b3461056157602036600319011261056157611c6c611c67600435616352565b615fef565b6000604051611c7a81615ac5565b526102c4604051611c8a81615ac5565b60008152604051918291602083526020830190615752565b34610561576020366003190112610561576001600160a01b03611cc3615a2b565b166000526016602052602060ff604060002054166040519015158152f35b3461056157604036600319011261056157611cfa615a2b565b6001600160a01b031660009081526011602052604090208054602435919082101561056157602091611d2b91615f4b565b90546040519160031b1c8152f35b346105615760208060031936011261056157600435611d56616948565b508060005260108252611d7760ff600f6040600020015460101c1615616cc8565b8060005260178252611d9060ff60406000205416616c83565b6000526010815260406000209060405191611daa83615a57565b805483526001808201546001600160a01b031683850152611dcd60028301615d97565b6040850152611dde60038301615d97565b6060850152600482015460808501526005918281015460a0860152611e0560068201615d97565b60c0860152611e1660078201615d97565b60e0860152600881018054611e2a816169d4565b91611e386040519384615ae0565b818352600090815286812085888086015b858510611f525750888b9260108989610100870152611e6a60098201615d97565b610120870152611e7c600a8201615d97565b610140870152600b810154610160870152611e99600c8201615d97565b610180870152611eab600d8201615d97565b6101a0870152600e8101546101c087015260ff600f82015481811615156101e0890152818160081c161515610200890152831c1615156102208701520191825490611ef5826169d4565b93611f036040519586615ae0565b8285526000908152858120868087015b858410611f35576102408a01889052604051828152806102c48185018d615829565b86918591611f4285616fd6565b8152019201920191908790611f13565b908291611f5e85615d97565b815201920192019190888791611e49565b346105615760203660031901126105615760206001600160a01b0380611f93615a2b565b166000526019825260406000205416604051908152f35b3461056157608036600319011261056157611fc3615a2b565b611fcb615a41565b606435916001600160401b038311610561573660238401121561056157611fff612009933690602481600401359101615b1e565b91604435916160e2565b005b3461056157602080600319360112610561576001600160a01b03908161202f615a2b565b16600052601481526040600020805490612048826169d4565b926120566040519485615ae0565b82845260009182528082208185015b84841061207a57604051806102c48882615c8c565b600e8360019260405161208c81615a73565b85548152848601548382015260028601546040820152600386015460608201528a600487015416608082015260ff600587015460a08d8216818501521c16151560c08201526120dd60068701615e6f565b60e0820152815201920193019290612065565b3461056157600319602036820112610561576001600160401b0360043511610561576101a0906004353603011261056157336000908152601960205260409020546001600160a01b03168015612ec15780600052601360205260ff604060002054169060048210156108925760026121709214908115612eac575061649e565b61218161104f6004803501806164f8565b61219861106e6024600435016004356004016164f8565b6121a96044600435013515156165b7565b6121ba606460043501351515616602565b6121d16110f16084600435016004356004016164f8565b6121e861109f60c460043501600435600401616691565b61220160056110c160c460043501600435600401616691565b61221861111160a4600435016004356004016164f8565b61222960e460043501351515616799565b61223b610104600435013515156167e0565b612253611155610124600435016004356004016164f8565b61226b611176610144600435016004356004016164f8565b61227d610164600435013515156168b3565b61228f610184600435013515156168ff565b600160085401806008556122a1616948565b818152336020820152906122c36122bc6004803501806164f8565b3691615b1e565b60408301526122df6122bc6024600435016004356004016164f8565b60608301526044600435013560808301526064600435013560a08301526123136122bc6084600435016004356004016164f8565b60c083015261232f6122bc60a4600435016004356004016164f8565b60e083015261234860c460043501600435600401616691565b90612352826169d4565b916123606040519384615ae0565b8083526020830191368260051b8201116105615780925b8260051b82018410612e81575050505061010083015260e46004350135600052600c6020526123ac6001604060002001615d97565b6101208301526101046004350135600052600d6020526123d26001604060002001615d97565b6101408301526123f06122bc610124600435016004356004016164f8565b61018083015261240e6122bc610144600435016004356004016164f8565b6101a083015260043561016481013561016084015261018401356101c08301523315612e3d5761244661244082616352565b15616c38565b61245261244082616352565b33600052600560205260406000206001815401905580600052600460205260406000203360018060a01b0319825416179055803360006000805160206178698339815191528180a4601060209081526040600081902084518155918401516001830180546001600160a01b0319166001600160a01b03929092169190911790558301518051909391906001600160401b038111610b8d57612503816124fa6002850154615d5d565b60028501616a02565b6020601f8211600114612dce578192939495600092612dc3575b50508160011b916000199060031b1c19161760028201555b606082015180519093906001600160401b038111610b8d576125678161255e6003860154615d5d565b60038601616a02565b6020601f8211600114612d54578192939495600092612d49575b50508160011b916000199060031b1c19161760038301555b6080830151600483015560a0830151600583015560c083015180519093906001600160401b038111610b8d576125df816125d66006870154615d5d565b60068701616a02565b6020601f8211600114612cda578192939495600092612ccf575b50508160011b916000199060031b1c19161760068401555b60e081015180519093906001600160401b038111610b8d576126438161263a6007850154615d5d565b60078501616a02565b6020601f8211600114612c60578192939495600092612c55575b50508160011b916000199060031b1c19161760078201555b60088101610100830151602081519161268e8385616a90565b01916000526020600020916000905b828210612b72575050505061012082015180519093906001600160401b038111610b8d576126db816126d26009860154615d5d565b60098601616a02565b6020601f8211600114612b03578192939495600092612af8575b50508160011b916000199060031b1c19161760098301555b61014083015180519093906001600160401b038111610b8d5761274081612737600a870154615d5d565b600a8701616a02565b6020601f8211600114612a89578192939495600092612a7e575b50508160011b916000199060031b1c191617600a8401555b610160810151600b84015561018081015180519093906001600160401b038111610b8d576127b0816127a7600c850154615d5d565b600c8501616a02565b6020601f8211600114612a0f578192939495600092612a04575b50508160011b916000199060031b1c191617600c8201555b6101a08201518051906001600160401b038211610b8d576128138261280a600d860154615d5d565b600d8601616a02565b602090601f831160011461298e5791806102409492601094600092612983575b50508160011b916000199060031b1c191617600d8201555b6101c0840151600e820155600f810161286b6101e0860151151582616341565b6102008501511515815461ff0062ff00006102208901511515871b169260081b169062ffff001916171790550191015190815191600160401b8311610b8d57815483835580841061291d575b506020019060005260206000206000915b8383106128ff57612009858060005260176020526040600020600160ff198254161790553360005260116020526040600020616c03565b60056020826129116001945186616ad9565b019201920191906128c8565b80600502906005820403610f2e5783600502600581048503610f2e5783600052602060002091820191015b81811061295557506128b7565b80600060059255600060018201556000600282015561297660038201616a47565b6000600482015501612948565b015190508780612833565b90600d840160005260206000209160005b601f19851681106129ec575092610240949260019260109583601f198116106129d3575b505050811b01600d82015561284b565b015160001960f88460031b161c191690558780806129c3565b9192602060018192868501518155019401920161299f565b0151905085806127ca565b600c830160005260206000209060005b601f1984168110612a66575060019394959683601f19811610612a4d575b505050811b01600c8201556127e2565b015160001960f88460031b161c19169055858080612a3d565b9091602060018192858b015181550193019101612a1f565b01519050858061275a565b600a850160005260206000209060005b601f1984168110612ae0575060019394959683601f19811610612ac7575b505050811b01600a840155612772565b015160001960f88460031b161c19169055858080612ab7565b9091602060018192858b015181550193019101612a99565b0151905085806126f5565b6009840160005260206000209060005b601f1984168110612b5a575060019394959683601f19811610612b41575b505050811b01600983015561270d565b015160001960f88460031b161c19169055858080612b31565b9091602060018192858b015181550193019101612b13565b80518051906001600160401b038211610b8d57612b9982612b938854615d5d565b88616a02565b602090601f8311600114612be5579282600194936020938695600092612bda575b5050600019600383901b1c191690841b1787555b0194019101909261269d565b015190508c80612bba565b908660005260206000209160005b601f1985168110612c3d575083602093600196938796938794601f19811610612c24575b505050811b018755612bce565b015160001960f88460031b161c191690558c8080612c17565b91926020600181928685015181550194019201612bf3565b01519050858061265d565b6007830160005260206000209060005b601f1984168110612cb7575060019394959683601f19811610612c9e575b505050811b016007820155612675565b015160001960f88460031b161c19169055858080612c8e565b9091602060018192858b015181550193019101612c70565b0151905085806125f9565b6006850160005260206000209060005b601f1984168110612d31575060019394959683601f19811610612d18575b505050811b016006840155612611565b015160001960f88460031b161c19169055858080612d08565b9091602060018192858b015181550193019101612cea565b015190508580612581565b6003840160005260206000209060005b601f1984168110612dab575060019394959683601f19811610612d92575b505050811b016003830155612599565b015160001960f88460031b161c19169055858080612d82565b9091602060018192858b015181550193019101612d64565b01519050858061251d565b6002830160005260206000209060005b601f1984168110612e25575060019394959683601f19811610612e0c575b505050811b016002820155612535565b015160001960f88460031b161c19169055858080612dfc565b9091602060018192858b015181550193019101612dde565b606460405162461bcd60e51b815260206004820152602060248201527f4552433732313a206d696e7420746f20746865207a65726f20616464726573736044820152fd5b6001600160401b038435116105615760208091612ea13687358601615b55565b815201930192612377565b6000546001600160a01b031614905082610763565b50601360205260ff604060002054166004811015610892576002148015612ef1575b612eec9061649e565b612170565b506000546001600160a01b03163314612ee3565b34610561576020366003190112610561576004356000526017602052602060ff604060002054166040519015158152f35b3461056157602036600319011261056157612f4f615a2b565b612f57615f97565b6001600160a01b03168015612fa25760406000805160206177e983398151915291336000526019602052816000208160018060a01b03198254161790558151903382526020820152a1005b60405162461bcd60e51b8152602060048201526017602482015276496e76616c6964206163636f756e74206164647265737360481b6044820152606490fd5b3461056157604036600319011261056157612ffa615a2b565b6024359081151590818303610561576001600160a01b03169133831461306b5761303d903360005260076020526040600020846000526020526040600020616341565b6040519081527f17307eab39ab6107e8899845ad3d59bd9653f200f220920489ca2b5937696c3160203392a3005b60405162461bcd60e51b815260206004820152601960248201527822a9219b99189d1030b8383937bb32903a379031b0b63632b960391b6044820152606490fd5b34610561576040366003190112610561576130c5615a2b565b6001600160a01b0390811660009081526014602052604090208054602435908110156105615761098291615e3d565b3461056157602080600319360112610561576004358060005260109182815260ff61312b81600f60406000200154861c1615616cc8565b82600052601782526131438160406000205416616c83565b60009160005b8460005285825285604060002001805482101561319a57600461316d838693616fba565b5001541615613185575b61318090616e2d565b613149565b9261319261318091616e2d565b939050613177565b505083856131a7856169d4565b946131b56040519687615ae0565b8086526131c4601f19916169d4565b018360005b82811061326d5750505060009160005b8160005282855282604060002001805482101561325a5760046131fd838993616fba565b5001541615613215575b61321090616e2d565b6131d9565b92613252613210918360005284875261323d6132378787604060002001616fba565b50616fd6565b613247828b616f7b565b526104a0818a616f7b565b939050613207565b604051868152806102c48189018b615792565b613275616f8f565b82828a0101520184906131c9565b346105615760403660031901126105615761329c615a2b565b6024908135906004821015610561576132b3615f97565b6001600160a01b031691821561343d57826000526020906016825260ff604060002054161561340257836000526013825260ff6040600020541660048110156133b55783146133ca5760028314613351575b507fd8f7bcb2c5cffc294a0aaef719685993d7be95273fb8254803a1563510ccefed916013610b5a928560005252604060002060ff1981541660ff831617905560405191829182615d4a565b836000526013825260ff6040600020541660048110156133b5576001146133055790601f6064926040519262461bcd60e51b845260048401528201527f43616e206f6e6c79207665726966792070656e64696e672073656c6c657273006044820152fd5b50634e487b7160e01b60009081526021600452fd5b9060126064926040519262461bcd60e51b845260048401528201527114dd185d1d5cc8185b1c9958591e481cd95d60721b6044820152fd5b9060156064926040519262461bcd60e51b845260048401528201527414d95b1b195c881b9bdd081c9959da5cdd195c9959605a1b6044820152fd5b60649060166040519162461bcd60e51b83526020600484015282015275496e76616c69642073656c6c6572206164647265737360501b6044820152fd5b346105615760003660031901126105615760405160009060035461349d81615d5d565b80835260019180831690811561353457506001146134da575b6102c4836134c681870382615ae0565b604051918291602083526020830190615752565b6003600090815260209450917fc2575a0e9e593c00f959f8c92f12db2869c3395a3b0502d05e2516446f71f85b5b828410613521575050508101909101906134c6816134b6565b8054858501870152928501928101613508565b6102c495506134c693506020915091849260ff191682840152151560051b82010193506134b6565b34610561576000366003190112610561576000546040516001600160a01b039091168152602090f35b34610561576040366003190112610561576001600160401b03600435602435828111610561576135b9903690600401615b55565b6135c1615f97565b81600052602090600c82526040600020541561375e576135e381511515616e3c565b6135ee600f54616e2d565b80600f55604051906135ff82615a8f565b80825283820183815260408301908682526060840192600190818552600052600d875260406000209451855580850191518051998a11610b8d576136478a610aa38554615d5d565b8790601f8b116001146136e1579980806003969461369d999896946000805160206178898339815191529c9d9e6000946136d6575b50501b9160001990871b1c19161790555b5160028401555115159101616341565b83600052600c83526136b96003604060002001600f5490616c03565b600f54926136d1604051928284938452830190615752565b0390a3005b015192508e8061367c565b9990601f1982169a84600052896000209b60005b81811061374957509b6003969492849261369d9a9997956000805160206178898339815191529d9e9f10613731575b505050811b01905561368d565b015160001983891b60f8161c191690558c8080613724565b838301518e559c85019c928b01928b016136f5565b60405162461bcd60e51b815260048101839052601e60248201527f506172656e742063617465676f727920646f6573206e6f7420657869737400006044820152606490fd5b34610561576020366003190112610561576004356000908152601060205260409020805460018201546001600160a01b0316916137e260028201615d97565b6137ee60038301615d97565b600483015460058401549061380560068601615d97565b61381160078701615d97565b61381d60098801615d97565b9061382a600a8901615d97565b92600b89015494600c8a0161383e90615d97565b9661384b600d8c01615d97565b98600e8c01549b600f01549a6040519e8f9e8f908152602001528d610220908160408201520161387a91615752565b8d810360608f015261388b91615752565b9160808d015260a08c01528a810360c08c01526138a791615752565b89810360e08b01526138b891615752565b8881036101008a01526138ca91615752565b8781036101208901526138dc91615752565b906101408701528581036101608701526138f591615752565b84810361018086015261390791615752565b916101a084015260ff811615156101c08401528060081c60ff1615156101e084015260101c60ff1615156102008301520390f35b3461056157600036600319011261056157613954615f97565b600080546001600160a01b0319811682556001600160a01b03166000805160206178498339815191528280a3005b34610561576020366003190112610561576001600160a01b036139a3615a2b565b1680156139c25760005260056020526020604060002054604051908152f35b60405162461bcd60e51b815260206004820152602960248201527f4552433732313a2061646472657373207a65726f206973206e6f7420612076616044820152683634b21037bbb732b960b91b6064820152608490fd5b3461056157602036600319011261056157600435600052600d6020526040600020604051613a4681615a8f565b81548152613a5660018301615d97565b906020810191825260ff60036002850154946040840195865201541690606081019115158252613a8881511515616f08565b519151925190511515613aad6040519485948552608060208601526080850190615752565b91604084015260608301520390f35b3461056157613aca36615ba5565b613ad5929192615f97565b81600052602092600c8452613af06040600020541515616ea2565b613afc81511515616de1565b6000838152600c855260409020815194906001908101906001600160401b038711610b8d57613b2f876111e38454615d5d565b82601f8811600114613b9d57968080600c959493600080516020617829833981519152999a600093613b92575b501b916000199060031b1c19161790555b8560005252613b83826002604060002001616341565b610b5a60405192839283616ee8565b88015192508b613b5c565b96601f1981169783600052846000209860005b818110613bfd5750988291600c969594936000805160206178298339815191529a9b10613be4575b5050811b019055613b6d565b87015160001960f88460031b161c191690558980613bd8565b878301518b5599840199918601918601613bb0565b600319604036820112610561576024906001600160401b0382351161056157610100908235360301126105615760026001541461441b5760026001556004356000526017602052613c6a60ff60406000205416616c83565b6004356000526010602052613c8d60ff600f6040600020015460101c1615616cc8565b600435600052601060205260018060a01b0360016040600020015416600052601360205260ff6040600020541660048110156133b5576002036143de576004356000526010602052600560406000200154156143a057600435600052601060205260ff600f604060002001541661435f57600435600052601060205260018060a01b0360016040600020015416331461431d57613d2e6004823501806164f8565b9050156142e457613d468180350182356004016164f8565b9050156142a657613d5f604482350182356004016164f8565b90501561427257613d78606482350182356004016164f8565b90501561423d57613d91608482350182356004016164f8565b90501561420657613daa60a482350182356004016164f8565b9050156141cb57613dc360c482350182356004016164f8565b90501561419657613ddc60e482350182356004016164f8565b9050156141615760043560005260106020526004604060002001549081341061412857600435600052601060205260056040600020018054801561411357600019019055600435600052601060205260406000206005810154156140ff575b600101546040516001600160a01b039091169190613e5881615a73565b6004823501356001600160401b03811161056157613e7d906004369185350101615b55565b81526001600160401b0382358301351161056157613ea43683358085013501600401615b55565b60208201528135604401356001600160401b03811161056157613ece906004369185350101615b55565b60408201528135606401356001600160401b03811161056157613ef8906004369185350101615b55565b60608201528135608401356001600160401b03811161056157613f22906004369185350101615b55565b6080820152813560a401356001600160401b03811161056157613f4c906004369185350101615b55565b60a0820152813560c401356001600160401b03811161056157613f76906004369185350101615b55565b60c0820152813560e40135906001600160401b03821161056157613fa461400f926004369186350101615b55565b60e082015260405190613fb682615a73565b60043582528560208301528560408301524260608301523360808301528460a0830152600060c083015260e0820152336000526014602052613ffc816040600020617076565b8360005260156020526040600020617076565b81600052601260205260406000208054918483018093116140eb57505560405182815282602082015242604082015233907f45280c7ac9cec77edd454e39e1641a3e22619146cf074a4239beee86a7c07edc606060043592a460016009540160095561407b8134616f6e565b806140db575b50600435600052601060205260018060a01b03600160406000200154169060405190815242602082015233907fbe6177108f4df43c5d7be79cb219c969fc97915bbdb4b56d14d391dcdcc16060604060043592a460018055005b6140e59033617752565b81614081565b634e487b7160e01b60009081526011600452fd5b600f8101805460ff19166001179055613e3b565b82634e487b7160e01b60005260116004526000fd5b60649060126040519162461bcd60e51b83526020600484015282015271496e73756666696369656e742066756e647360701b6044820152fd5b606490600e6040519162461bcd60e51b8352602060048401528201526d115b585a5b081c995c5d5a5c995960921b6044820152fd5b606490600e6040519162461bcd60e51b8352602060048401528201526d141a1bdb99481c995c5d5a5c995960921b6044820152fd5b60649060146040519162461bcd60e51b83526020600484015282015273141bdcdd185b0818dbd919481c995c5d5a5c995960621b6044820152fd5b60649060106040519162461bcd60e51b8352602060048401528201526f10dbdd5b9d1c9e481c995c5d5a5c995960821b6044820152fd5b606490600e6040519162461bcd60e51b8352602060048401528201526d14dd185d19481c995c5d5a5c995960921b6044820152fd5b606490600d6040519162461bcd60e51b8352602060048401528201526c10da5d1e481c995c5d5a5c9959609a1b6044820152fd5b60649060176040519162461bcd60e51b8352602060048401528201527614dd1c99595d081859191c995cdcc81c995c5d5a5c9959604a1b6044820152fd5b60649060126040519162461bcd60e51b83526020600484015282015271119d5b1b081b985b59481c995c5d5a5c995960721b6044820152fd5b606490601b6040519162461bcd60e51b8352602060048401528201527a10d85b9b9bdd08189d5e481e5bdd5c881bdddb881c1c9bd91d58dd602a1b6044820152fd5b606490601a6040519162461bcd60e51b83526020600484015282015279141c9bd91d58dd081a5cc8185b1c9958591e481cdbdb191bdd5d60321b6044820152fd5b60649060176040519162461bcd60e51b8352602060048401528201527650726f64756374206973206f7574206f662073746f636b60481b6044820152fd5b60649060166040519162461bcd60e51b8352602060048401528201527514d95b1b195c881a5cc81b9bdd081d995c9a599a595960521b6044820152fd5b606490601f6040519162461bcd60e51b8352602060048401528201527f5265656e7472616e637947756172643a207265656e7472616e742063616c6c006044820152fd5b3461056157602036600319011261056157602061447d600435616036565b6040516001600160a01b039091168152f35b34610561576020366003190112610561576001600160a01b036144b0615a2b565b1660005260126020526020604060002054604051908152f35b34610561576020366003190112610561576004356144e5615f97565b606481116144f257600b55005b60405162461bcd60e51b8152602060048201526012602482015271496e76616c69642070657263656e7461676560701b6044820152606490fd5b346105615760003660031901126105615733600052601660205260ff604060002054166145af57336000526016602052604060002060ff1990600182825416179055601360205260016040600020918254161790556040514281527fa1a1a78ff3033d5ee8393372052aeb2a16bbb347a29f3780370e9506c109e37260203392a2005b60405162461bcd60e51b8152602060048201526012602482015271105b1c9958591e481c9959da5cdd195c995960721b6044820152606490fd5b34610561576020366003190112610561576001600160a01b0361460a615a2b565b1660005260136020526102c460ff6040600020541660405191829182615d4a565b346105615761200961463c36615b70565b906040519261464a84615ac5565b600084526160e2565b3461056157600036600319011261056157336000908152601960209081526040909120546001600160a01b03908116801561478957806000526013835260ff604060002054169060048210156108925760026146b7921490811561477b575061649e565b336000526012825260406000205490811561473d57600b548083029083820403610f2e5761470f926146f0606461470993048092616f6e565b9233600052601286526000604081205560005416617752565b33617752565b7f8ad64a0ac7700dd8425ab0499f107cb6e2cd1581d803c5b8c1c79dcb8190b1af60405191600083523392a2005b60405162461bcd60e51b81526004810184905260166024820152754e6f2062616c616e636520746f20776974686472617760501b6044820152606490fd5b905082600054161484610763565b506013825260ff6040600020541660048110156108925760021480156147b8575b6147b39061649e565b6146b7565b50600054811633146147aa565b3461056157602080600319360112610561576001600160a01b0390816147e9615a2b565b16600052601581526040600020805490614802826169d4565b926148106040519485615ae0565b82845260009182528082208185015b84841061483457604051806102c48882615c8c565b600e8360019260405161484681615a73565b85548152848601548382015260028601546040820152600386015460608201528a600487015416608082015260ff600587015460a08d8216818501521c16151560c082015261489760068701615e6f565b60e082015281520192019301929061481f565b34610561576148b836615ba5565b6148c3929192615f97565b81600052602092600d84526148de6040600020541515616f08565b6148ea81511515616e3c565b6000838152600d855260409020815194906001908101906001600160401b038711610b8d5761491d876111e38454615d5d565b82601f881160011461497c57968080600d9594936000805160206178a9833981519152999a600093614971575b501b916000199060031b1c19161790555b8560005252613b83826003604060002001616341565b88015192508b61494a565b96601f1981169783600052846000209860005b8181106149dc5750988291600d969594936000805160206178a98339815191529a9b106149c3575b5050811b01905561495b565b87015160001960f88460031b161c1916905589806149b7565b878301518b559984019991860191860161498f565b3461056157604036600319011261056157602460006004358235825b8260005260106020818152816040600020018054841015614c0357614a33848692616fba565b505414614a4a575050614a4590616e2d565b614a0d565b91939450916000526018815260ff93846040600020541615614bc75780600052828252614a7d8484604060002001616fba565b50600190810154909590336001600160a01b0391821614908115614bb9575b5015614b6457816000528383526004614abb8686604060002001616fba565b50015416614b2757918060049492614adc9460005252604060002001616fba565b5001805460ff1916821790555b15614af057005b60649060106040519162461bcd60e51b8352602060048401528201526f14995d9a595dc81b9bdd08199bdd5b9960821b6044820152fd5b60405162461bcd60e51b8152600481018390526016818801527514995d9a595dc8185b1c9958591e4819195b195d195960521b6044820152606490fd5b60405162461bcd60e51b8152600481018490526028818901527f4f6e6c79207265766965776572206f72206f776e65722063616e2064656c6574604482015267652072657669657760c01b6064820152608490fd5b600054163314905088614a9c565b60405162461bcd60e51b8152600481018390526015818801527414995d9a595dc8191bd95cc81b9bdd08195e1a5cdd605a1b6044820152606490fd5b505050505050614ae9565b3461056157612009614c1f36615b70565b91614c32614c2d843361617d565b616080565b616245565b3461056157606036600319011261056157602480356004356044356001600160401b03811161056157614c6e903690600401615b55565b90806000526020916010835260018060a01b03600160406000200154163314614dd65783151580614dcb575b15614d8757805115614d495790601092916001600a54019081600a55614cbe616f8f565b95828752338588015260408701526060860152600052601882526040600020600160ff198254161790556000525260106040600020018054600160401b811015614d3457614d1191600182018155616fba565b614d1f576120099250616ad9565b82634e487b7160e01b60005260006004526000fd5b83634e487b7160e01b60005260416004526000fd5b60405162461bcd60e51b81526004810184905260178187015276436f6d6d656e742063616e6e6f7420626520656d70747960481b6044820152606490fd5b60405162461bcd60e51b815260048101849052601e818701527f526174696e67206d757374206265206265747765656e203120616e64203500006044820152606490fd5b506005841115614c9a565b60405162461bcd60e51b8152600481018490526026818701527f53656c6c65722063616e6e6f7420726576696577207468656972206f776e20706044820152651c9bd91d58dd60d21b6064820152608490fd5b3461056157600036600319011261056157614e42615f97565b336000526019602052604060002060018060a01b031981541690556000805160206177e98339815191526040805133815260006020820152a1005b3461056157604036600319011261056157600435614e99615a41565b3360009081526019602090815260409091205490926001600160a01b0391821680156151a457806000526013855260ff60406000205416906004821015610892576002614eee9214908115615196575061649e565b9291925b6000928260009516945b8560005260148083526040600020805483101561518b57614f1e838692615e3d565b505414614f345750614f2f90616e2d565b614efc565b919293945085600052818352614f4e816040600020615e3d565b509160ff60058094015460a01c166151485786600052808452614f75826040600020615e3d565b5083015486163314801561513b575b156150e35790614f9e918760005284526040600020615e3d565b5001805460ff60a01b1916600160a01b17905560015b156150aa57816000526010815260019280846040600020015416846000905b614ff5575b5050506000805160206178098339815191529192604051908152a3005b816000526015808552604060002080548310156150a357615017838892615e3d565b5054148061507f575b615039575090615031869392616e2d565b909192614fd3565b60008051602061780983398151915295969350906150639160059360005285526040600020615e3d565b5001805460ff60a01b1916600160a01b17905592918580614fd8565b508260005280855287846004615099856040600020615e3d565b5001541614615020565b5050614fd8565b6064906040519062461bcd60e51b825260048201526012602482015271141d5c98da185cd9481b9bdd08199bdd5b9960721b6044820152fd5b60405162461bcd60e51b815260048101859052602a60248201527f4f6e6c792073656c6c6572206f72206f776e65722063616e206d61726b2061736044820152690819195b1a5d995c995960b21b6064820152608490fd5b5033866000541614614f84565b60405162461bcd60e51b815260048101859052601b60248201527a105b1c9958591e481b585c9ad95908185cc819195b1a5d995c9959602a1b6044820152606490fd5b505050909192614fb4565b905083600054161486610763565b506013845260ff6040600020541660048110156108925760021480156151d6575b6151ce9061649e565b929192614ef2565b50600054821633146151c5565b34610561576040366003190112610561576151fc615a2b565b602435906001600160a01b03808061521385616036565b1692169180831461530e578033149081156152e9575b501561527e57600083815260066020526040902080546001600160a01b0319168317905561525683616036565b167f8c5be1e5ebec7d5bd14f71427d1e84f3dd0314c0f7b2291e5b200ac8c7c3b925600080a4005b60405162461bcd60e51b815260206004820152603d60248201527f4552433732313a20617070726f76652063616c6c6572206973206e6f7420746f60448201527f6b656e206f776e6572206f7220617070726f76656420666f7220616c6c0000006064820152608490fd5b9050600052600760205260406000203360005260205260ff6040600020541684615229565b60405162461bcd60e51b815260206004820152602160248201527f4552433732313a20617070726f76616c20746f2063757272656e74206f776e656044820152603960f91b6064820152608490fd5b3461056157602036600319011261056157602061447d600435616059565b346105615760003660031901126105615760405160009060025461539e81615d5d565b80835260019180831690811561353457506001146153c6576102c4836134c681870382615ae0565b6002600090815260209450917f405787fa12a823e0f2b7631cc41b3ba8828b3321ca811111fa75cd3aa3bb5ace5b82841061540d575050508101909101906134c6816134b6565b80548585018701529285019281016153f4565b3461056157600036600319011261056157600854600060015b82811115615676575061544b90617026565b90600160005b8282111561546757604051806102c486826159c9565b8160005260106020526040600020600f8101549060ff8260101c161561549a575b50509061549490616e2d565b90615451565b604051916154a783615a57565b8154835260018201546001600160a01b031660208401526154ca60028301615d97565b60408401526154db60038301615d97565b606084015260048201546080840152600582015460a084015261550060068301615d97565b60c084015261551160078301615d97565b60e0840152600882018054615525816169d4565b916155336040519384615ae0565b81835260208301906000526020600020906000905b83821061565957505050506010929160ff9161010086015261556c60098401615d97565b61012086015261557e600a8401615d97565b610140860152600b83015461016086015261559b600c8401615d97565b6101808601526155ad600d8401615d97565b6101a0860152600e8301546101c086015281811615156101e0860152818160081c161515610200860152831c161515610220840152018054906155ef826169d4565b916155fd6040519384615ae0565b808352602083019160005260206000206000925b82841061563b575050505061024082015261549491615634916104958288616f7b565b9085615488565b6005602060019261564b85616fd6565b815201920193019290615611565b60016020819261566886615d97565b815201930191019091615548565b8060005260ff601080602052600f60406000200154901c16156156a2575b61569d90616e2d565b615439565b906156af61569d91616e2d565b919050615694565b346105615760203660031901126105615760043563ffffffff60e01b8116809103610561576020906380ac58cd60e01b8114908115615714575b8115615703575b506040519015158152f35b6301ffc9a760e01b149050826156f8565b635b5e139f60e01b811491506156f1565b34610561576020366003190112610561576020906004356000526018825260ff6040600020541615158152f35b919082519283825260005b84811061577e575050826000602080949584010152601f8019910116010190565b60208183018101518483018201520161575d565b908082519081815260208091019281808460051b8301019501936000915b8483106157c05750505050505090565b9091929394958480600192601f1985820301865289519081518152848060a01b038383015116838201526040808301519082015261580d6060808401519060a08091850152830190615752565b91608080910151151591015298019301930191949392906157b0565b91908251815260209260018060a01b038482015116848301526158ae61589c6158766158646040850151610260806040890152870190615752565b60608501518682036060880152615752565b6080840151608086015260a084015160a086015260c084015185820360c0870152615752565b60e083015184820360e0860152615752565b6101009485830151958483039085015285518083528183019180808360051b8601019801926000905b8382106159995750505050505061595061593c61591d6159096159969697610120808701519088830390890152615752565b610140808601519087830390880152615752565b6101608085015190860152610180808501519086830390870152615752565b6101a0808401519085830390860152615752565b916101c080830151908201526101e08083015115159082015261020080830151151590820152610220808301511515908201526102408092015191818403910152615792565b90565b90919293949883806159b86001938d601f199082030186528951615752565b9b97019594939190910191016158d7565b602080820190808352835180925260408301928160408460051b8301019501936000915b8483106159fd5750505050505090565b9091929394958480615a1b600193603f198682030187528a51615829565b98019301930191949392906159ed565b600435906001600160a01b038216820361056157565b602435906001600160a01b038216820361056157565b61026081019081106001600160401b03821117610b8d57604052565b61010081019081106001600160401b03821117610b8d57604052565b608081019081106001600160401b03821117610b8d57604052565b60a081019081106001600160401b03821117610b8d57604052565b602081019081106001600160401b03821117610b8d57604052565b601f909101601f19168101906001600160401b03821190821017610b8d57604052565b6001600160401b038111610b8d57601f01601f191660200190565b929192615b2a82615b03565b91615b386040519384615ae0565b829481845281830111610561578281602093846000960137010152565b9080601f830112156105615781602061599693359101615b1e565b6060906003190112610561576001600160a01b0390600435828116810361056157916024359081168103610561579060443590565b9060606003198301126105615760043591602435906001600160401b03821161056157615bd491600401615b55565b9060443580151581036105615790565b6159969160e0615c7b615c69615c57615c45615c33615c21615c0f8951610100808b528a0190615752565b60208a015189820360208b0152615752565b604089015188820360408a0152615752565b60608801518782036060890152615752565b60808701518682036080880152615752565b60a086015185820360a0870152615752565b60c085015184820360c0860152615752565b9201519060e0818403910152615752565b602080820190808352835180925260409283810182858560051b8401019601946000925b858410615cc1575050505050505090565b909192939495968580615d39600193603f198682030188528b51805182528381015184830152878101518883015260608082015190830152858060a01b0360808181840151169084015260a09081830151169083015260c08082015115159083015260e0809101519161010080928201520190615be4565b990194019401929594939190615cb0565b9190602083019260048210156108925752565b90600182811c92168015615d8d575b6020831014615d7757565b634e487b7160e01b600052602260045260246000fd5b91607f1691615d6c565b9060405191826000825492615dab84615d5d565b908184526001948581169081600014615e1a5750600114615dd7575b5050615dd592500383615ae0565b565b9093915060005260209081600020936000915b818310615e02575050615dd593508201013880615dc7565b85548884018501529485019487945091830191615dea565b915050615dd594506020925060ff191682840152151560051b8201013880615dc7565b8054821015615e5957600052600e602060002091020190600090565b634e487b7160e01b600052603260045260246000fd5b90604051615e7c81615a73565b60e0615efc60078395615e8e81615d97565b8552615e9c60018201615d97565b6020860152615ead60028201615d97565b6040860152615ebe60038201615d97565b6060860152615ecf60048201615d97565b6080860152615ee060058201615d97565b60a0860152615ef160068201615d97565b60c086015201615d97565b910152565b959290916159969897959492875260208701526040860152606085015260018060a01b0380921660808501521660a0830152151560c0820152610100908160e08201520190615be4565b8054821015615e595760005260206000200190600090565b90815180825260208080930193019160005b828110615f83575050505090565b835185529381019392810192600101615f75565b6000546001600160a01b03163303615fab57565b606460405162461bcd60e51b815260206004820152602060248201527f4f776e61626c653a2063616c6c6572206973206e6f7420746865206f776e65726044820152fd5b15615ff657565b60405162461bcd60e51b8152602060048201526018602482015277115490cdcc8c4e881a5b9d985b1a59081d1bdad95b88125160421b6044820152606490fd5b6000908152600460205260409020546001600160a01b0316615996811515615fef565b616065611c6782616352565b6000908152600660205260409020546001600160a01b031690565b1561608757565b60405162461bcd60e51b815260206004820152602d60248201527f4552433732313a2063616c6c6572206973206e6f7420746f6b656e206f776e6560448201526c1c881bdc88185c1c1c9bdd9959609a1b6064820152608490fd5b906161069392916160f6614c2d843361617d565b616101838383616245565b61639f565b1561610d57565b60405162461bcd60e51b8152806161266004820161612a565b0390fd5b60809060208152603260208201527f4552433732313a207472616e7366657220746f206e6f6e20455243373231526560408201527131b2b4bb32b91034b6b83632b6b2b73a32b960711b60608201520190565b906001600160a01b03808061619184616036565b169316918383149384156161c4575b5083156161ae575b50505090565b6161ba91929350616059565b16143880806161a8565b909350600052600760205260406000208260005260205260ff6040600020541692386161a0565b156161f257565b60405162461bcd60e51b815260206004820152602560248201527f4552433732313a207472616e736665722066726f6d20696e636f72726563742060448201526437bbb732b960d91b6064820152608490fd5b9061626d9161625384616036565b6001600160a01b03939184169284929091831684146161eb565b169182156162f0578161628a9161628386616036565b16146161eb565b600080516020617869833981519152600084815260066020526040812060018060a01b03199081815416905583825260056020526040822060001981540190558482526040822060018154019055858252600460205284604083209182541617905580a4565b60405162461bcd60e51b8152602060048201526024808201527f4552433732313a207472616e7366657220746f20746865207a65726f206164646044820152637265737360e01b6064820152608490fd5b9060ff801983541691151516179055565b6000908152600460205260409020546001600160a01b0316151590565b3d1561639a573d9061638082615b03565b9161638e6040519384615ae0565b82523d6000602084013e565b606090565b91926000929190813b15616494576020916163f59185604051958680958194630a85bd0160e11b9b8c845233600485015260018060a01b0380951660248501526044840152608060648401526084830190615752565b0393165af190829082616445575b50506164375761641161636f565b805190816164325760405162461bcd60e51b8152806161266004820161612a565b602001fd5b6001600160e01b0319161490565b909192506020813d821161648c575b8161646160209383615ae0565b810103126164885751906001600160e01b0319821682036164855750903880616403565b80fd5b5080fd5b3d9150616454565b5050505050600190565b156164a557565b60405162461bcd60e51b815260206004820152602560248201527f4f6e6c792076657269666965642073656c6c6572206f72206f776e657220616c6044820152641b1bddd95960da1b6064820152608490fd5b903590601e198136030182121561056157018035906001600160401b0382116105615760200191813603831361056157565b1561653157565b60405162461bcd60e51b81526020600482015260146024820152734e616d652063616e6e6f7420626520656d70747960601b6044820152606490fd5b1561657457565b60405162461bcd60e51b815260206004820152601b60248201527a4465736372697074696f6e2063616e6e6f7420626520656d70747960281b6044820152606490fd5b156165be57565b60405162461bcd60e51b815260206004820152601c60248201527b05072696365206d7573742062652067726561746572207468616e20360241b6044820152606490fd5b1561660957565b60405162461bcd60e51b815260206004820152601c60248201527b053746f636b206d7573742062652067726561746572207468616e20360241b6044820152606490fd5b1561665457565b60405162461bcd60e51b8152602060048201526015602482015274436f6c6f722063616e6e6f7420626520656d70747960581b6044820152606490fd5b903590601e198136030182121561056157018035906001600160401b03821161056157602001918160051b3603831361056157565b156166cd57565b60405162461bcd60e51b8152602060048201526016602482015275496d616765732063616e6e6f7420626520656d70747960501b6044820152606490fd5b1561671257565b60405162461bcd60e51b815260206004820152601c60248201527b496d616765732063616e6e6f74206265206d6f7265207468616e203560201b6044820152606490fd5b1561675d57565b60405162461bcd60e51b815260206004820152601460248201527353697a652063616e6e6f7420626520656d70747960601b6044820152606490fd5b156167a057565b60405162461bcd60e51b815260206004820152601860248201527743617465676f72792063616e6e6f7420626520656d70747960401b6044820152606490fd5b156167e757565b60405162461bcd60e51b815260206004820152601c60248201527b5375622d63617465676f72792063616e6e6f7420626520656d70747960201b6044820152606490fd5b1561683257565b60405162461bcd60e51b81526020600482015260156024820152744d6f64656c2063616e6e6f7420626520656d70747960581b6044820152606490fd5b1561687657565b60405162461bcd60e51b81526020600482015260156024820152744272616e642063616e6e6f7420626520656d70747960581b6044820152606490fd5b156168ba57565b60405162461bcd60e51b815260206004820152601d60248201527f576569676874206d7573742062652067726561746572207468616e20300000006044820152606490fd5b1561690657565b60405162461bcd60e51b815260206004820152601a6024820152790534b55206d7573742062652067726561746572207468616e20360341b6044820152606490fd5b6040519061695582615a57565b8161024060009182815282602082015260609283604083015283808301528060808301528060a08301528360c08301528360e08301528361010083015283610120830152836101408301528061016083015283610180830152836101a0830152806101c0830152806101e0830152806102008301526102208201520152565b6001600160401b038111610b8d5760051b60200190565b8181106169f6575050565b600081556001016169eb565b9190601f8111616a1157505050565b615dd5926000526020600020906020601f840160051c83019310616a3d575b601f0160051c01906169eb565b9091508190616a30565b616a518154615d5d565b9081616a5b575050565b81601f60009311600114616a6d575055565b908083918252616a8c601f60208420940160051c8401600185016169eb565b5555565b90600160401b8111610b8d57815491818155828210616aae57505050565b600052602060002091820191015b818110616ac7575050565b80616ad3600192616a47565b01616abc565b81518155602080830151600180840180546001600160a01b0319166001600160a01b03939093169290921790915560408401516002840155606084015180519094926003850192906001600160401b038311610b8d57616b4383616b3d8654615d5d565b86616a02565b80601f8411600114616b8f57509180806080959360049795615dd59a600094616b84575b50501b916000199060031b1c19161790555b015115159101616341565b015192503880616b67565b9193949596601f1984168660005283600020936000905b828210616bec57505092608095928592615dd59a99966004999610616bd3575b505050811b019055616b79565b015160001960f88460031b161c19169055388080616bc6565b808886978294978701518155019601940190616ba6565b8054600160401b811015610b8d57616c2091600182018155615f4b565b819291549060031b91821b91600019901b1916179055565b15616c3f57565b60405162461bcd60e51b815260206004820152601c60248201527b115490cdcc8c4e881d1bdad95b88185b1c9958591e481b5a5b9d195960221b6044820152606490fd5b15616c8a57565b60405162461bcd60e51b8152602060048201526016602482015275141c9bd91d58dd08191bd95cc81b9bdd08195e1a5cdd60521b6044820152606490fd5b15616ccf57565b60405162461bcd60e51b8152602060048201526012602482015271141c9bd91d58dd081a5cc819195b195d195960721b6044820152606490fd5b90808214616ddd57616d1b8154615d5d565b906001600160401b038211610b8d578190616d3a82616b3d8654615d5d565b600090601f8311600114616d7157600092616d66575b50508160011b916000199060031b1c1916179055565b015490503880616d50565b81526020808220858352818320935090601f1985169083905b828210616dc4575050908460019594939210616dab575b505050811b019055565b015460001960f88460031b161c19169055388080616da1565b8495819295850154815560018091019601940190616d8a565b5050565b15616de857565b60405162461bcd60e51b815260206004820152601d60248201527f43617465676f7279206e616d652063616e6e6f7420626520656d7074790000006044820152606490fd5b6000198114610f2e5760010190565b15616e4357565b606460405162461bcd60e51b815260206004820152602060248201527f53756263617465676f7279206e616d652063616e6e6f7420626520656d7074796044820152fd5b90821015615e5957616e9e9160051b8101906164f8565b9091565b15616ea957565b60405162461bcd60e51b815260206004820152601760248201527610d85d1959dbdc9e48191bd95cc81b9bdd08195e1a5cdd604a1b6044820152606490fd5b90616f00602091949394604084526040840190615752565b931515910152565b15616f0f57565b60405162461bcd60e51b815260206004820152601a60248201527914dd5898d85d1959dbdc9e48191bd95cc81b9bdd08195e1a5cdd60321b6044820152606490fd5b60005b828110616f6057505050565b606082820152602001616f54565b91908203918211610f2e57565b8051821015615e595760209160051b010190565b60405190616f9c82615aaa565b60006080838281528260208201528260408201526060808201520152565b8054821015615e59576000526005602060002091020190600090565b90604051616fe381615aaa565b608060ff600483958054855260018060a01b0360018201541660208601526002810154604086015261701760038201615d97565b60608601520154161515910152565b90617030826169d4565b61703d6040519182615ae0565b828152809261704e601f19916169d4565b019060005b82811061705f57505050565b60209061706a616948565b82828501015201617053565b8054600160401b811015610b8d57617095906001928382018155615e3d565b92909261773c5780518355602080820151838501556040820151600285015560608201516003808601919091556080830151600480870180546001600160a01b0319166001600160a01b0393841617905560a08086015160058901805460c08901516001600160a81b0319909116929095169190911793151590911b60ff60a01b169290921790915560e0909301518051805191966001600160401b03959394919392600682019087811161772757617152816111e38454615d5d565b8084601f978883116001146176c5576000926176ba575b505060001982891b1c191690891b1790555b600781018289015180519088821161748457819061719d82616b3d8654615d5d565b85908883116001146176585760009261764d575b505060001982891b1c191690891b1790555b6008810160408901518051908882116174845781906171e682616b3d8654615d5d565b85908883116001146175eb576000926175e0575b505060001982891b1c191690891b1790555b60098101606089015180519088821161748457819061722f82616b3d8654615d5d565b859088831160011461757e57600092617573575b505060001982891b1c191690891b1790555b600a8101608089015180519088821161748457819061727882616b3d8654615d5d565b859088831160011461751157600092617506575b505060001982891b1c191690891b1790555b600b810160a08901518051908882116174845781906172c182616b3d8654615d5d565b85908883116001146174a457600092617499575b505060001982891b1c191690891b1790555b600c810160c08901518051908882116174845761730882610aa38554615d5d565b8490878311600114617417579180600d949260e0969460009261740c575b5050600019828b1b1c1916908b1b1790555b019701519182519586116173f7575061735b856173558954615d5d565b89616a02565b809285116001146173915750938394918492600095617386575b50501b92600019911b1c1916179055565b015193503880617375565b92919084601f1981168860005285600020956000905b898383106173dd57505050106173c3575b50505050811b019055565b01519060f884600019921b161c19169055388080806173b8565b8587015189559097019694850194889350908101906173a7565b604190634e487b7160e01b6000525260246000fd5b015190503880617326565b8a9291601f1983169185600052876000209260005b8982821061746e5750509160e09795939185600d98969410617456575b505050811b019055617338565b0151600019838d1b60f8161c19169055388080617449565b8385015186558f9790950194938401930161742c565b604186634e487b7160e01b6000525260246000fd5b0151905038806172d5565b908b9350601f1983169185600052876000209260005b898282106174f057505084116174d8575b505050811b0190556172e7565b0151600019838b1b60f8161c191690553880806174cb565b8385015186558f979095019493840193016174ba565b01519050388061728c565b908b9350601f1983169185600052876000209260005b8982821061755d5750508411617545575b505050811b01905561729e565b0151600019838b1b60f8161c19169055388080617538565b8385015186558f97909501949384019301617527565b015190503880617243565b908b9350601f1983169185600052876000209260005b898282106175ca57505084116175b2575b505050811b019055617255565b0151600019838b1b60f8161c191690553880806175a5565b8385015186558f97909501949384019301617594565b0151905038806171fa565b908b9350601f1983169185600052876000209260005b89828210617637575050841161761f575b505050811b01905561720c565b0151600019838b1b60f8161c19169055388080617612565b8385015186558f97909501949384019301617601565b0151905038806171b1565b908b9350601f1983169185600052876000209260005b898282106176a4575050841161768c575b505050811b0190556171c3565b0151600019838b1b60f8161c1916905538808061767f565b8385015186558f9790950194938401930161766e565b015190503880617169565b908b9350601f1983169185600052876000209260005b8982821061771157505084116176f9575b505050811b01905561717b565b0151600019838b1b60f8161c191690553880806176ec565b8385015186558f979095019493840193016176db565b604185634e487b7160e01b6000525260246000fd5b634e487b7160e01b600052600060045260246000fd5b6001600160a01b031680156177b157600080809381935af161777261636f565b501561777a57565b60405162461bcd60e51b815260206004820152600f60248201526e151c985b9cd9995c8819985a5b1959608a1b6044820152606490fd5b60405162461bcd60e51b815260206004820152600f60248201526e496e76616c6964206164647265737360881b6044820152606490fdfe32b449308c94e824ccedd9877932cd82f89a481c06c4643a0cb2914454a8c582f9dc8543b583e01f592678422369b2777e3649761f5808ae432cb1c24ca9438c79d3150b1760cd391f5006c9543aea088e4c9060f3e582ea0a948dc6649b25da8be0079c531659141344cd1fd0a4f28419497f9722a3daafe3b4186f6b6457e0ddf252ad1be2c89b69c2b068fc378daa952ba7f163c4a11628f55a4df523b3ef5a8a989e12f3ce7cf805b73156a361da5d8369f0c37173209308910b322117ac4cfca6396923c3eee68be58aa35fd6623ae5d67bb552da5e1de2e0d5854166dca164736f6c6343000813000a",
  "linkReferences": {},
  "deployedLinkReferences": {}
}