{
  "_format": "hh-sol-artifact-1",
  "contractName": "HemShop",
  "sourceName": "contracts/HemShop.sol",
  "abi": [
    {
      "inputs": [
        {
          "internalType": "uint256",
          "name": "_pct",
          "type": "uint256"
        }
      ],
      "stateMutability": "nonpayable",
      "type": "constructor"
    },
    {
      "anonymous": false,
      "inputs": [
        {
          "indexed": true,
          "internalType": "address",
          "name": "owner",
          "type": "address"
        },
        {
          "indexed": true,
          "internalType": "address",
          "name": "approved",
          "type": "address"
        },
        {
          "indexed": true,
          "internalType": "uint256",
          "name": "tokenId",
          "type": "uint256"
        }
      ],
      "name": "Approval",
      "type": "event"
    },
    {
      "anonymous": false,
      "inputs": [
        {
          "indexed": true,
          "internalType": "address",
          "name": "owner",
          "type": "address"
        },
        {
          "indexed": true,
          "internalType": "address",
          "name": "operator",
          "type": "address"
        },
        {
          "indexed": false,
          "internalType": "bool",
          "name": "approved",
          "type": "bool"
        }
      ],
      "name": "ApprovalForAll",
      "type": "event"
    },
    {
      "anonymous": false,
      "inputs": [
        {
          "indexed": true,
          "internalType": "address",
          "name": "seller",
          "type": "address"
        },
        {
          "indexed": false,
          "internalType": "uint256",
          "name": "newBalance",
          "type": "uint256"
        }
      ],
      "name": "BalanceUpdated",
      "type": "event"
    },
    {
      "anonymous": false,
      "inputs": [
        {
          "indexed": true,
          "internalType": "uint256",
          "name": "productId",
          "type": "uint256"
        },
        {
          "indexed": true,
          "internalType": "address",
          "name": "buyer",
          "type": "address"
        },
        {
          "indexed": false,
          "internalType": "bool",
          "name": "isDelivered",
          "type": "bool"
        }
      ],
      "name": "DeliveryStatusUpdated",
      "type": "event"
    },
    {
      "anonymous": false,
      "inputs": [
        {
          "indexed": true,
          "internalType": "address",
          "name": "previousOwner",
          "type": "address"
        },
        {
          "indexed": true,
          "internalType": "address",
          "name": "newOwner",
          "type": "address"
        }
      ],
      "name": "OwnershipTransferred",
      "type": "event"
    },
    {
      "anonymous": false,
      "inputs": [
        {
          "indexed": true,
          "internalType": "uint256",
          "name": "productId",
          "type": "uint256"
        },
        {
          "indexed": true,
          "internalType": "address",
          "name": "buyer",
          "type": "address"
        },
        {
          "indexed": true,
          "internalType": "address",
          "name": "seller",
          "type": "address"
        },
        {
          "indexed": false,
          "internalType": "uint256",
          "name": "price",
          "type": "uint256"
        },
        {
          "indexed": false,
          "internalType": "uint256",
          "name": "timestamp",
          "type": "uint256"
        }
      ],
      "name": "ProductPurchased",
      "type": "event"
    },
    {
      "anonymous": false,
      "inputs": [
        {
          "indexed": true,
          "internalType": "uint256",
          "name": "productId",
          "type": "uint256"
        },
        {
          "indexed": true,
          "internalType": "address",
          "name": "buyer",
          "type": "address"
        },
        {
          "indexed": true,
          "internalType": "address",
          "name": "seller",
          "type": "address"
        },
        {
          "indexed": false,
          "internalType": "uint256",
          "name": "totalAmount",
          "type": "uint256"
        },
        {
          "indexed": false,
          "internalType": "uint256",
          "name": "basePrice",
          "type": "uint256"
        },
        {
          "indexed": false,
          "internalType": "uint256",
          "name": "timestamp",
          "type": "uint256"
        }
      ],
      "name": "PurchaseRecorded",
      "type": "event"
    },
    {
      "anonymous": false,
      "inputs": [
        {
          "indexed": true,
          "internalType": "address",
          "name": "seller",
          "type": "address"
        },
        {
          "indexed": false,
          "internalType": "uint256",
          "name": "timestamp",
          "type": "uint256"
        }
      ],
      "name": "SellerRegistered",
      "type": "event"
    },
    {
      "anonymous": false,
      "inputs": [
        {
          "indexed": true,
          "internalType": "address",
          "name": "seller",
          "type": "address"
        },
        {
          "indexed": false,
          "internalType": "enum HemShop.SellerStatus",
          "name": "status",
          "type": "uint8"
        }
      ],
      "name": "SellerStatusUpdated",
      "type": "event"
    },
    {
      "anonymous": false,
      "inputs": [
        {
          "indexed": true,
          "internalType": "address",
          "name": "from",
          "type": "address"
        },
        {
          "indexed": true,
          "internalType": "address",
          "name": "to",
          "type": "address"
        },
        {
          "indexed": true,
          "internalType": "uint256",
          "name": "tokenId",
          "type": "uint256"
        }
      ],
      "name": "Transfer",
      "type": "event"
    },
    {
      "inputs": [
        {
          "internalType": "address",
          "name": "to",
          "type": "address"
        },
        {
          "internalType": "uint256",
          "name": "tokenId",
          "type": "uint256"
        }
      ],
      "name": "approve",
      "outputs": [],
      "stateMutability": "nonpayable",
      "type": "function"
    },
    {
      "inputs": [
        {
          "internalType": "address",
          "name": "owner",
          "type": "address"
        }
      ],
      "name": "balanceOf",
      "outputs": [
        {
          "internalType": "uint256",
          "name": "",
          "type": "uint256"
        }
      ],
      "stateMutability": "view",
      "type": "function"
    },
    {
      "inputs": [
        {
          "internalType": "uint256",
          "name": "productId",
          "type": "uint256"
        }
      ],
      "name": "buyProduct",
      "outputs": [],
      "stateMutability": "payable",
      "type": "function"
    },
    {
      "inputs": [
        {
          "internalType": "address",
          "name": "",
          "type": "address"
        },
        {
          "internalType": "uint256",
          "name": "",
          "type": "uint256"
        }
      ],
      "name": "buyerPurchaseHistory",
      "outputs": [
        {
          "internalType": "uint256",
          "name": "productId",
          "type": "uint256"
        },
        {
          "internalType": "uint256",
          "name": "totalAmount",
          "type": "uint256"
        },
        {
          "internalType": "uint256",
          "name": "basePrice",
          "type": "uint256"
        },
        {
          "internalType": "uint256",
          "name": "timestamp",
          "type": "uint256"
        },
        {
          "internalType": "address",
          "name": "buyer",
          "type": "address"
        },
        {
          "internalType": "address",
          "name": "seller",
          "type": "address"
        },
        {
          "internalType": "bool",
          "name": "isDelivered",
          "type": "bool"
        }
      ],
      "stateMutability": "view",
      "type": "function"
    },
    {
      "inputs": [
        {
          "components": [
            {
              "internalType": "string",
              "name": "name",
              "type": "string"
            },
            {
              "internalType": "string",
              "name": "description",
              "type": "string"
            },
            {
              "internalType": "uint256",
              "name": "price",
              "type": "uint256"
            },
            {
              "internalType": "uint256",
              "name": "stock",
              "type": "uint256"
            },
            {
              "internalType": "string",
              "name": "color",
              "type": "string"
            },
            {
              "internalType": "string",
              "name": "size",
              "type": "string"
            },
            {
              "internalType": "string[]",
              "name": "images",
              "type": "string[]"
            },
            {
              "internalType": "string",
              "name": "category",
              "type": "string"
            },
            {
              "internalType": "string",
              "name": "subCategory",
              "type": "string"
            },
            {
              "internalType": "string",
              "name": "model",
              "type": "string"
            },
            {
              "internalType": "string",
              "name": "brand",
              "type": "string"
            },
            {
              "internalType": "uint256",
              "name": "weight",
              "type": "uint256"
            },
            {
              "internalType": "uint256",
              "name": "sku",
              "type": "uint256"
            }
          ],
          "internalType": "struct HemShop.ProductInput",
          "name": "input",
          "type": "tuple"
        }
      ],
      "name": "createProduct",
      "outputs": [],
      "stateMutability": "nonpayable",
      "type": "function"
    },
    {
      "inputs": [
        {
          "internalType": "uint256",
          "name": "productId",
          "type": "uint256"
        },
        {
          "internalType": "uint256",
          "name": "rating",
          "type": "uint256"
        },
        {
          "internalType": "string",
          "name": "comment",
          "type": "string"
        }
      ],
      "name": "createReview",
      "outputs": [],
      "stateMutability": "nonpayable",
      "type": "function"
    },
    {
      "inputs": [
        {
          "internalType": "uint256",
          "name": "productId",
          "type": "uint256"
        }
      ],
      "name": "deleteProduct",
      "outputs": [],
      "stateMutability": "nonpayable",
      "type": "function"
    },
    {
      "inputs": [
        {
          "internalType": "uint256",
          "name": "productId",
          "type": "uint256"
        },
        {
          "internalType": "uint256",
          "name": "reviewId",
          "type": "uint256"
        }
      ],
      "name": "deleteReview",
      "outputs": [],
      "stateMutability": "nonpayable",
      "type": "function"
    },
    {
      "inputs": [],
      "name": "getAllProducts",
      "outputs": [
        {
          "components": [
            {
              "internalType": "uint256",
              "name": "id",
              "type": "uint256"
            },
            {
              "internalType": "address",
              "name": "seller",
              "type": "address"
            },
            {
              "internalType": "string",
              "name": "name",
              "type": "string"
            },
            {
              "internalType": "string",
              "name": "description",
              "type": "string"
            },
            {
              "internalType": "uint256",
              "name": "price",
              "type": "uint256"
            },
            {
              "internalType": "uint256",
              "name": "stock",
              "type": "uint256"
            },
            {
              "internalType": "string",
              "name": "color",
              "type": "string"
            },
            {
              "internalType": "string",
              "name": "size",
              "type": "string"
            },
            {
              "internalType": "string[]",
              "name": "images",
              "type": "string[]"
            },
            {
              "internalType": "string",
              "name": "category",
              "type": "string"
            },
            {
              "internalType": "string",
              "name": "subCategory",
              "type": "string"
            },
            {
              "internalType": "uint256",
              "name": "weight",
              "type": "uint256"
            },
            {
              "internalType": "string",
              "name": "model",
              "type": "string"
            },
            {
              "internalType": "string",
              "name": "brand",
              "type": "string"
            },
            {
              "internalType": "uint256",
              "name": "sku",
              "type": "uint256"
            },
            {
              "internalType": "bool",
              "name": "soldout",
              "type": "bool"
            },
            {
              "internalType": "bool",
              "name": "wishlist",
              "type": "bool"
            },
            {
              "internalType": "bool",
              "name": "deleted",
              "type": "bool"
            },
            {
              "components": [
                {
                  "internalType": "uint256",
                  "name": "reviewId",
                  "type": "uint256"
                },
                {
                  "internalType": "address",
                  "name": "reviewer",
                  "type": "address"
                },
                {
                  "internalType": "uint256",
                  "name": "rating",
                  "type": "uint256"
                },
                {
                  "internalType": "string",
                  "name": "comment",
                  "type": "string"
                },
                {
                  "internalType": "bool",
                  "name": "deleted",
                  "type": "bool"
                }
              ],
              "internalType": "struct HemShop.ReviewStruct[]",
              "name": "reviews",
              "type": "tuple[]"
            }
          ],
          "internalType": "struct HemShop.ProductStruct[]",
          "name": "",
          "type": "tuple[]"
        }
      ],
      "stateMutability": "view",
      "type": "function"
    },
    {
      "inputs": [
        {
          "internalType": "uint256",
          "name": "tokenId",
          "type": "uint256"
        }
      ],
      "name": "getApproved",
      "outputs": [
        {
          "internalType": "address",
          "name": "",
          "type": "address"
        }
      ],
      "stateMutability": "view",
      "type": "function"
    },
    {
      "inputs": [
        {
          "internalType": "address",
          "name": "buyer",
          "type": "address"
        }
      ],
      "name": "getBuyerPurchaseHistory",
      "outputs": [
        {
          "components": [
            {
              "internalType": "uint256",
              "name": "productId",
              "type": "uint256"
            },
            {
              "internalType": "uint256",
              "name": "totalAmount",
              "type": "uint256"
            },
            {
              "internalType": "uint256",
              "name": "basePrice",
              "type": "uint256"
            },
            {
              "internalType": "uint256",
              "name": "timestamp",
              "type": "uint256"
            },
            {
              "internalType": "address",
              "name": "buyer",
              "type": "address"
            },
            {
              "internalType": "address",
              "name": "seller",
              "type": "address"
            },
            {
              "internalType": "bool",
              "name": "isDelivered",
              "type": "bool"
            }
          ],
          "internalType": "struct HemShop.PurchaseHistoryStruct[]",
          "name": "",
          "type": "tuple[]"
        }
      ],
      "stateMutability": "view",
      "type": "function"
    },
    {
      "inputs": [],
      "name": "getMyProducts",
      "outputs": [
        {
          "components": [
            {
              "internalType": "uint256",
              "name": "id",
              "type": "uint256"
            },
            {
              "internalType": "address",
              "name": "seller",
              "type": "address"
            },
            {
              "internalType": "string",
              "name": "name",
              "type": "string"
            },
            {
              "internalType": "string",
              "name": "description",
              "type": "string"
            },
            {
              "internalType": "uint256",
              "name": "price",
              "type": "uint256"
            },
            {
              "internalType": "uint256",
              "name": "stock",
              "type": "uint256"
            },
            {
              "internalType": "string",
              "name": "color",
              "type": "string"
            },
            {
              "internalType": "string",
              "name": "size",
              "type": "string"
            },
            {
              "internalType": "string[]",
              "name": "images",
              "type": "string[]"
            },
            {
              "internalType": "string",
              "name": "category",
              "type": "string"
            },
            {
              "internalType": "string",
              "name": "subCategory",
              "type": "string"
            },
            {
              "internalType": "uint256",
              "name": "weight",
              "type": "uint256"
            },
            {
              "internalType": "string",
              "name": "model",
              "type": "string"
            },
            {
              "internalType": "string",
              "name": "brand",
              "type": "string"
            },
            {
              "internalType": "uint256",
              "name": "sku",
              "type": "uint256"
            },
            {
              "internalType": "bool",
              "name": "soldout",
              "type": "bool"
            },
            {
              "internalType": "bool",
              "name": "wishlist",
              "type": "bool"
            },
            {
              "internalType": "bool",
              "name": "deleted",
              "type": "bool"
            },
            {
              "components": [
                {
                  "internalType": "uint256",
                  "name": "reviewId",
                  "type": "uint256"
                },
                {
                  "internalType": "address",
                  "name": "reviewer",
                  "type": "address"
                },
                {
                  "internalType": "uint256",
                  "name": "rating",
                  "type": "uint256"
                },
                {
                  "internalType": "string",
                  "name": "comment",
                  "type": "string"
                },
                {
                  "internalType": "bool",
                  "name": "deleted",
                  "type": "bool"
                }
              ],
              "internalType": "struct HemShop.ReviewStruct[]",
              "name": "reviews",
              "type": "tuple[]"
            }
          ],
          "internalType": "struct HemShop.ProductStruct[]",
          "name": "",
          "type": "tuple[]"
        }
      ],
      "stateMutability": "view",
      "type": "function"
    },
    {
      "inputs": [
        {
          "internalType": "uint256",
          "name": "productId",
          "type": "uint256"
        }
      ],
      "name": "getProduct",
      "outputs": [
        {
          "components": [
            {
              "internalType": "uint256",
              "name": "id",
              "type": "uint256"
            },
            {
              "internalType": "address",
              "name": "seller",
              "type": "address"
            },
            {
              "internalType": "string",
              "name": "name",
              "type": "string"
            },
            {
              "internalType": "string",
              "name": "description",
              "type": "string"
            },
            {
              "internalType": "uint256",
              "name": "price",
              "type": "uint256"
            },
            {
              "internalType": "uint256",
              "name": "stock",
              "type": "uint256"
            },
            {
              "internalType": "string",
              "name": "color",
              "type": "string"
            },
            {
              "internalType": "string",
              "name": "size",
              "type": "string"
            },
            {
              "internalType": "string[]",
              "name": "images",
              "type": "string[]"
            },
            {
              "internalType": "string",
              "name": "category",
              "type": "string"
            },
            {
              "internalType": "string",
              "name": "subCategory",
              "type": "string"
            },
            {
              "internalType": "uint256",
              "name": "weight",
              "type": "uint256"
            },
            {
              "internalType": "string",
              "name": "model",
              "type": "string"
            },
            {
              "internalType": "string",
              "name": "brand",
              "type": "string"
            },
            {
              "internalType": "uint256",
              "name": "sku",
              "type": "uint256"
            },
            {
              "internalType": "bool",
              "name": "soldout",
              "type": "bool"
            },
            {
              "internalType": "bool",
              "name": "wishlist",
              "type": "bool"
            },
            {
              "internalType": "bool",
              "name": "deleted",
              "type": "bool"
            },
            {
              "components": [
                {
                  "internalType": "uint256",
                  "name": "reviewId",
                  "type": "uint256"
                },
                {
                  "internalType": "address",
                  "name": "reviewer",
                  "type": "address"
                },
                {
                  "internalType": "uint256",
                  "name": "rating",
                  "type": "uint256"
                },
                {
                  "internalType": "string",
                  "name": "comment",
                  "type": "string"
                },
                {
                  "internalType": "bool",
                  "name": "deleted",
                  "type": "bool"
                }
              ],
              "internalType": "struct HemShop.ReviewStruct[]",
              "name": "reviews",
              "type": "tuple[]"
            }
          ],
          "internalType": "struct HemShop.ProductStruct",
          "name": "",
          "type": "tuple"
        }
      ],
      "stateMutability": "view",
      "type": "function"
    },
    {
      "inputs": [
        {
          "internalType": "uint256",
          "name": "productId",
          "type": "uint256"
        }
      ],
      "name": "getReviews",
      "outputs": [
        {
          "components": [
            {
              "internalType": "uint256",
              "name": "reviewId",
              "type": "uint256"
            },
            {
              "internalType": "address",
              "name": "reviewer",
              "type": "address"
            },
            {
              "internalType": "uint256",
              "name": "rating",
              "type": "uint256"
            },
            {
              "internalType": "string",
              "name": "comment",
              "type": "string"
            },
            {
              "internalType": "bool",
              "name": "deleted",
              "type": "bool"
            }
          ],
          "internalType": "struct HemShop.ReviewStruct[]",
          "name": "",
          "type": "tuple[]"
        }
      ],
      "stateMutability": "view",
      "type": "function"
    },
    {
      "inputs": [
        {
          "internalType": "address",
          "name": "seller",
          "type": "address"
        }
      ],
      "name": "getSellerBalance",
      "outputs": [
        {
          "internalType": "uint256",
          "name": "",
          "type": "uint256"
        }
      ],
      "stateMutability": "view",
      "type": "function"
    },
    {
      "inputs": [
        {
          "internalType": "address",
          "name": "seller",
          "type": "address"
        }
      ],
      "name": "getSellerPurchaseHistory",
      "outputs": [
        {
          "components": [
            {
              "internalType": "uint256",
              "name": "productId",
              "type": "uint256"
            },
            {
              "internalType": "uint256",
              "name": "totalAmount",
              "type": "uint256"
            },
            {
              "internalType": "uint256",
              "name": "basePrice",
              "type": "uint256"
            },
            {
              "internalType": "uint256",
              "name": "timestamp",
              "type": "uint256"
            },
            {
              "internalType": "address",
              "name": "buyer",
              "type": "address"
            },
            {
              "internalType": "address",
              "name": "seller",
              "type": "address"
            },
            {
              "internalType": "bool",
              "name": "isDelivered",
              "type": "bool"
            }
          ],
          "internalType": "struct HemShop.PurchaseHistoryStruct[]",
          "name": "",
          "type": "tuple[]"
        }
      ],
      "stateMutability": "view",
      "type": "function"
    },
    {
      "inputs": [
        {
          "internalType": "address",
          "name": "owner",
          "type": "address"
        },
        {
          "internalType": "address",
          "name": "operator",
          "type": "address"
        }
      ],
      "name": "isApprovedForAll",
      "outputs": [
        {
          "internalType": "bool",
          "name": "",
          "type": "bool"
        }
      ],
      "stateMutability": "view",
      "type": "function"
    },
    {
      "inputs": [
        {
          "internalType": "uint256",
          "name": "productId",
          "type": "uint256"
        },
        {
          "internalType": "address",
          "name": "buyer",
          "type": "address"
        }
      ],
      "name": "markPurchaseDelivered",
      "outputs": [],
      "stateMutability": "nonpayable",
      "type": "function"
    },
    {
      "inputs": [],
      "name": "name",
      "outputs": [
        {
          "internalType": "string",
          "name": "",
          "type": "string"
        }
      ],
      "stateMutability": "view",
      "type": "function"
    },
    {
      "inputs": [],
      "name": "owner",
      "outputs": [
        {
          "internalType": "address",
          "name": "",
          "type": "address"
        }
      ],
      "stateMutability": "view",
      "type": "function"
    },
    {
      "inputs": [
        {
          "internalType": "uint256",
          "name": "tokenId",
          "type": "uint256"
        }
      ],
      "name": "ownerOf",
      "outputs": [
        {
          "internalType": "address",
          "name": "",
          "type": "address"
        }
      ],
      "stateMutability": "view",
      "type": "function"
    },
    {
      "inputs": [
        {
          "internalType": "uint256",
          "name": "",
          "type": "uint256"
        }
      ],
      "name": "productExists",
      "outputs": [
        {
          "internalType": "bool",
          "name": "",
          "type": "bool"
        }
      ],
      "stateMutability": "view",
      "type": "function"
    },
    {
      "inputs": [
        {
          "internalType": "uint256",
          "name": "",
          "type": "uint256"
        }
      ],
      "name": "products",
      "outputs": [
        {
          "internalType": "uint256",
          "name": "id",
          "type": "uint256"
        },
        {
          "internalType": "address",
          "name": "seller",
          "type": "address"
        },
        {
          "internalType": "string",
          "name": "name",
          "type": "string"
        },
        {
          "internalType": "string",
          "name": "description",
          "type": "string"
        },
        {
          "internalType": "uint256",
          "name": "price",
          "type": "uint256"
        },
        {
          "internalType": "uint256",
          "name": "stock",
          "type": "uint256"
        },
        {
          "internalType": "string",
          "name": "color",
          "type": "string"
        },
        {
          "internalType": "string",
          "name": "size",
          "type": "string"
        },
        {
          "internalType": "string",
          "name": "category",
          "type": "string"
        },
        {
          "internalType": "string",
          "name": "subCategory",
          "type": "string"
        },
        {
          "internalType": "uint256",
          "name": "weight",
          "type": "uint256"
        },
        {
          "internalType": "string",
          "name": "model",
          "type": "string"
        },
        {
          "internalType": "string",
          "name": "brand",
          "type": "string"
        },
        {
          "internalType": "uint256",
          "name": "sku",
          "type": "uint256"
        },
        {
          "internalType": "bool",
          "name": "soldout",
          "type": "bool"
        },
        {
          "internalType": "bool",
          "name": "wishlist",
          "type": "bool"
        },
        {
          "internalType": "bool",
          "name": "deleted",
          "type": "bool"
        }
      ],
      "stateMutability": "view",
      "type": "function"
    },
    {
      "inputs": [],
      "name": "registerSeller",
      "outputs": [],
      "stateMutability": "nonpayable",
      "type": "function"
    },
    {
      "inputs": [
        {
          "internalType": "address",
          "name": "",
          "type": "address"
        }
      ],
      "name": "registeredSellers",
      "outputs": [
        {
          "internalType": "bool",
          "name": "",
          "type": "bool"
        }
      ],
      "stateMutability": "view",
      "type": "function"
    },
    {
      "inputs": [],
      "name": "renounceOwnership",
      "outputs": [],
      "stateMutability": "nonpayable",
      "type": "function"
    },
    {
      "inputs": [
        {
          "internalType": "uint256",
          "name": "",
          "type": "uint256"
        }
      ],
      "name": "reviewExists",
      "outputs": [
        {
          "internalType": "bool",
          "name": "",
          "type": "bool"
        }
      ],
      "stateMutability": "view",
      "type": "function"
    },
    {
      "inputs": [
        {
          "internalType": "address",
          "name": "from",
          "type": "address"
        },
        {
          "internalType": "address",
          "name": "to",
          "type": "address"
        },
        {
          "internalType": "uint256",
          "name": "tokenId",
          "type": "uint256"
        }
      ],
      "name": "safeTransferFrom",
      "outputs": [],
      "stateMutability": "nonpayable",
      "type": "function"
    },
    {
      "inputs": [
        {
          "internalType": "address",
          "name": "from",
          "type": "address"
        },
        {
          "internalType": "address",
          "name": "to",
          "type": "address"
        },
        {
          "internalType": "uint256",
          "name": "tokenId",
          "type": "uint256"
        },
        {
          "internalType": "bytes",
          "name": "data",
          "type": "bytes"
        }
      ],
      "name": "safeTransferFrom",
      "outputs": [],
      "stateMutability": "nonpayable",
      "type": "function"
    },
    {
      "inputs": [
        {
          "internalType": "address",
          "name": "",
          "type": "address"
        }
      ],
      "name": "sellerBalances",
      "outputs": [
        {
          "internalType": "uint256",
          "name": "",
          "type": "uint256"
        }
      ],
      "stateMutability": "view",
      "type": "function"
    },
    {
      "inputs": [
        {
          "internalType": "address",
          "name": "",
          "type": "address"
        },
        {
          "internalType": "uint256",
          "name": "",
          "type": "uint256"
        }
      ],
      "name": "sellerProducts",
      "outputs": [
        {
          "internalType": "uint256",
          "name": "",
          "type": "uint256"
        }
      ],
      "stateMutability": "view",
      "type": "function"
    },
    {
      "inputs": [
        {
          "internalType": "address",
          "name": "",
          "type": "address"
        },
        {
          "internalType": "uint256",
          "name": "",
          "type": "uint256"
        }
      ],
      "name": "sellerPurchaseHistory",
      "outputs": [
        {
          "internalType": "uint256",
          "name": "productId",
          "type": "uint256"
        },
        {
          "internalType": "uint256",
          "name": "totalAmount",
          "type": "uint256"
        },
        {
          "internalType": "uint256",
          "name": "basePrice",
          "type": "uint256"
        },
        {
          "internalType": "uint256",
          "name": "timestamp",
          "type": "uint256"
        },
        {
          "internalType": "address",
          "name": "buyer",
          "type": "address"
        },
        {
          "internalType": "address",
          "name": "seller",
          "type": "address"
        },
        {
          "internalType": "bool",
          "name": "isDelivered",
          "type": "bool"
        }
      ],
      "stateMutability": "view",
      "type": "function"
    },
    {
      "inputs": [
        {
          "internalType": "address",
          "name": "",
          "type": "address"
        }
      ],
      "name": "sellerStatus",
      "outputs": [
        {
          "internalType": "enum HemShop.SellerStatus",
          "name": "",
          "type": "uint8"
        }
      ],
      "stateMutability": "view",
      "type": "function"
    },
    {
      "inputs": [],
      "name": "servicePct",
      "outputs": [
        {
          "internalType": "uint256",
          "name": "",
          "type": "uint256"
        }
      ],
      "stateMutability": "view",
      "type": "function"
    },
    {
      "inputs": [
        {
          "internalType": "address",
          "name": "operator",
          "type": "address"
        },
        {
          "internalType": "bool",
          "name": "approved",
          "type": "bool"
        }
      ],
      "name": "setApprovalForAll",
      "outputs": [],
      "stateMutability": "nonpayable",
      "type": "function"
    },
    {
      "inputs": [
        {
          "internalType": "bytes4",
          "name": "interfaceId",
          "type": "bytes4"
        }
      ],
      "name": "supportsInterface",
      "outputs": [
        {
          "internalType": "bool",
          "name": "",
          "type": "bool"
        }
      ],
      "stateMutability": "view",
      "type": "function"
    },
    {
      "inputs": [],
      "name": "symbol",
      "outputs": [
        {
          "internalType": "string",
          "name": "",
          "type": "string"
        }
      ],
      "stateMutability": "view",
      "type": "function"
    },
    {
      "inputs": [
        {
          "internalType": "uint256",
          "name": "tokenId",
          "type": "uint256"
        }
      ],
      "name": "tokenURI",
      "outputs": [
        {
          "internalType": "string",
          "name": "",
          "type": "string"
        }
      ],
      "stateMutability": "view",
      "type": "function"
    },
    {
      "inputs": [
        {
          "internalType": "address",
          "name": "from",
          "type": "address"
        },
        {
          "internalType": "address",
          "name": "to",
          "type": "address"
        },
        {
          "internalType": "uint256",
          "name": "tokenId",
          "type": "uint256"
        }
      ],
      "name": "transferFrom",
      "outputs": [],
      "stateMutability": "nonpayable",
      "type": "function"
    },
    {
      "inputs": [
        {
          "internalType": "address",
          "name": "newOwner",
          "type": "address"
        }
      ],
      "name": "transferOwnership",
      "outputs": [],
      "stateMutability": "nonpayable",
      "type": "function"
    },
    {
      "inputs": [
        {
          "internalType": "uint256",
          "name": "productId",
          "type": "uint256"
        },
        {
          "components": [
            {
              "internalType": "string",
              "name": "name",
              "type": "string"
            },
            {
              "internalType": "string",
              "name": "description",
              "type": "string"
            },
            {
              "internalType": "uint256",
              "name": "price",
              "type": "uint256"
            },
            {
              "internalType": "uint256",
              "name": "stock",
              "type": "uint256"
            },
            {
              "internalType": "string",
              "name": "color",
              "type": "string"
            },
            {
              "internalType": "string",
              "name": "size",
              "type": "string"
            },
            {
              "internalType": "string[]",
              "name": "images",
              "type": "string[]"
            },
            {
              "internalType": "string",
              "name": "category",
              "type": "string"
            },
            {
              "internalType": "string",
              "name": "subCategory",
              "type": "string"
            },
            {
              "internalType": "string",
              "name": "model",
              "type": "string"
            },
            {
              "internalType": "string",
              "name": "brand",
              "type": "string"
            },
            {
              "internalType": "uint256",
              "name": "weight",
              "type": "uint256"
            },
            {
              "internalType": "uint256",
              "name": "sku",
              "type": "uint256"
            }
          ],
          "internalType": "struct HemShop.ProductInput",
          "name": "input",
          "type": "tuple"
        }
      ],
      "name": "updateProduct",
      "outputs": [],
      "stateMutability": "nonpayable",
      "type": "function"
    },
    {
      "inputs": [
        {
          "internalType": "address",
          "name": "seller",
          "type": "address"
        },
        {
          "internalType": "enum HemShop.SellerStatus",
          "name": "status",
          "type": "uint8"
        }
      ],
      "name": "updateSellerStatus",
      "outputs": [],
      "stateMutability": "nonpayable",
      "type": "function"
    },
    {
      "inputs": [],
      "name": "withdraw",
      "outputs": [],
      "stateMutability": "nonpayable",
      "type": "function"
    }
  ],
  "bytecode": "0x6080346200037757601f90601f196001600160401b0362005d603881900385810184168501838111868210176200037c57859282916040528339602094859181010312620003775751936200005362000392565b926007845266048656d53686f760cc1b858501526200007162000392565b60038082526204873760ec1b8783015260008054336001600160a01b031982168117835592989394919392906001600160a01b03167f8be0079c531659141344cd1fd0a4f28419497f9722a3daafe3b4186f6b6457e08580a360019687805580519087821162000363576002548981811c9116801562000358575b858210146200034457908188849311620002f0575b5084908883116001146200028e57869262000282575b5050600019828b1b1c191690881b176002555b83519586116200026e5787548781811c9116801562000263575b838210146200024f5785811162000207575b5081948611600114620001a25750509183949184939462000196575b50501b9160001990841b1c19161790555b600b556040516159ad9081620003b38239f35b01519250388062000172565b8783528183209493928692918316915b88838310620001ec5750505010620001d3575b505050811b01905562000183565b015160001983861b60f8161c19169055388080620001c5565b858701518855909601959485019487935090810190620001b2565b8884528284208680890160051c820192858a1062000245575b0160051c019088905b8281106200023957505062000156565b85815501889062000229565b9250819262000220565b634e487b7160e01b84526022600452602484fd5b90607f169062000144565b634e487b7160e01b83526041600452602483fd5b01519050388062000117565b90848b9416916002885286882092885b88828210620002d95750508411620002c0575b505050811b016002556200012a565b0151600019838d1b60f8161c19169055388080620002b1565b8385015186558e979095019493840193016200029e565b909150600286528486208880850160051c8201928786106200033a575b918c91869594930160051c01915b8281106200032b57505062000101565b8881558594508c91016200031b565b925081926200030d565b634e487b7160e01b86526022600452602486fd5b90607f1690620000ec565b634e487b7160e01b85526041600452602485fd5b600080fd5b634e487b7160e01b600052604160045260246000fd5b60408051919082016001600160401b038111838210176200037c5760405256fe608080604052600436101561001357600080fd5b60003560e01c908162d64e76146143555750806301ffc9a7146142e757806302ee3a521461404e57806306fdde0314613fa8578063081812fc14613f8a578063095ea7b314613e1057806311aa5b3414613ad757806316d81b38146138f45780632148893f1461335157806323b872dd146138cb57806324d41a03146136a65780633c2575d5146135d25780633ccfd60b146134b257806342842e0e1461348a57806345de84db1461344857806352c9224c1461338b578063607eb4e4146133515780636352211e1461332157806370a082311461328a578063715018a6146132315780637acc0b20146130995780638642269e14612c9e5780638da5cb5b14612c7557806395d89b4114612b9357806397b6f393146129975780639d4a2255146128045780639fa44dbf146127bc578063a22cb465146126e1578063af55ed64146126b0578063b119105214611ba4578063b235b4a914610cd2578063b27e169714610bfe578063b88d4fde14610b9d578063b9db15b414610967578063c1302b341461090f578063c64b8a8f146108d0578063c87b56dd14610860578063e01ef6e614610842578063e585cb2c1461078e578063e985e9c514610738578063ed90c7b7146105a4578063f2fde38b146104e05763fdca4ca3146101f757600080fd5b346104db5760003660031901126104db5760088054600060015b8281111561047a5750610223906157cf565b9060009260015b82811115610244576040518061024086826145f9565b0390f35b6000818152600c6020818152604090922060018101546001600160a01b031692919033841480610468575b610286575b505050506102819061575c565b61022a565b6040989498519361029685614687565b81548552838501526102aa60028201614894565b60408501526102bb60038201614894565b6060850152600481015460808501526005918282015460a08601526102e260068301614894565b60c08601526102f360078301614894565b60e08601528682018054610306816153ba565b9161031460405193846146f4565b818352600090815286812090878085015b84831061044a5750505050506101008601526103719061034760098401614894565b610120870152610359600a8401614894565b610140870152600b8301546101608701528201614894565b610180850152610383600d8201614894565b6101a0850152600e8101546101c0850152600f81015460ff80821615156101e087015281881c81161515610200870152601091821c16151561022086015201805491906103cf836153ba565b936103dd60405195866146f4565b8385526000918252808220918186015b85821061042e57505050505050918161028193610240610424940152610413828861576b565b5261041e818761576b565b5061575c565b9490388080610274565b848360019261043c8761577f565b8152019401910190926103ed565b600191829161045886614894565b8152019301910190918890610325565b5060ff600f82015460101c161561026f565b6000818152600c6020526040902060018101546001600160a01b0316331490816104c8575b506104b3575b6104ae9061575c565b610211565b906104c06104ae9161575c565b9190506104a5565b60ff9150600f015460101c16153861049f565b600080fd5b346104db5760203660031901126104db576104f961465b565b610501614984565b6001600160a01b0390811690811561055057600054826001600160601b0360a01b821617600055167f8be0079c531659141344cd1fd0a4f28419497f9722a3daafe3b4186f6b6457e0600080a3005b60405162461bcd60e51b815260206004820152602660248201527f4f776e61626c653a206e6577206f776e657220697320746865207a65726f206160448201526564647265737360d01b6064820152608490fd5b346104db576020806003193601126104db576004359033600052600f815260ff60406000205416600481101561072257600214801561070e575b6105e7906156bb565b816000526013815261060060ff60406000205416615635565b6000828152600c825260409020600101546001600160a01b039081163314908115610700575b50156106ac5781600052600c815260ff600f6040600020015460101c16610668576000918252600c905260409020600f01805462ff0000191662010000179055005b6064906040519062461bcd60e51b82526004820152601a60248201527f50726f6475637420697320616c72656164792064656c657465640000000000006044820152fd5b6084906040519062461bcd60e51b82526004820152602760248201527f4f6e6c792070726f647563742073656c6c6572206f72206f776e65722063616e6044820152662064656c65746560c81b6064820152fd5b600054163314905083610626565b506000546001600160a01b031633146105de565b634e487b7160e01b600052602160045260246000fd5b346104db5760403660031901126104db5761075161465b565b610759614671565b9060018060a01b03809116600052600760205260406000209116600052602052602060ff604060002054166040519015158152f35b346104db5760403660031901126104db576107a761465b565b6001600160a01b0390811660009081526011602052604090208054602435908110156104db576107d69161493a565b50805460018201546002830154600384015460048501546005909501546040805195865260208601949094529284019190915260608301529183166001600160a01b03908116608083015292821690921660a08084019190915260ff91901c16151560c082015260e090f35b346104db5760003660031901126104db576020600b54604051908152f35b346104db5760203660031901126104db5761089a610895600435600052600460205260018060a01b0360406000205416151590565b6149dc565b60006040516108a8816146d9565b526102406040516108b8816146d9565b60008152604051918291602083526020830190614382565b346104db5760203660031901126104db576001600160a01b036108f161465b565b166000526012602052602060ff604060002054166040519015158152f35b346104db5760403660031901126104db5761092861465b565b6001600160a01b03166000908152600d60205260409020805460243591908210156104db576020916109599161496c565b90546040519160031b1c8152f35b346104db576020806003193601126104db5760043561098461532e565b5080600052600c82526109a560ff600f6040600020015460101c161561567a565b80600052601382526109be60ff60406000205416615635565b600052600c8152604060002090604051916109d883614687565b805483526001808201546001600160a01b0316838501526109fb60028301614894565b6040850152610a0c60038301614894565b6060850152600482015460808501526005918281015460a0860152610a3360068201614894565b60c0860152610a4460078201614894565b60e0860152600881018054610a58816153ba565b91610a6660405193846146f4565b818352600090815286812085888086015b858510610b805750888b9260108989610100870152610a9860098201614894565b610120870152610aaa600a8201614894565b610140870152600b810154610160870152610ac7600c8201614894565b610180870152610ad9600d8201614894565b6101a0870152600e8101546101c087015260ff600f82015481811615156101e0890152818160081c161515610200890152831c1615156102208701520191825490610b23826153ba565b93610b3160405195866146f4565b8285526000908152858120868087015b858410610b63576102408a01889052604051828152806102408185018d614459565b86918591610b708561577f565b8152019201920191908790610b41565b908291610b8c85614894565b815201920192019190888791610a77565b346104db5760803660031901126104db57610bb661465b565b610bbe614671565b606435916001600160401b0383116104db57366023840112156104db57610bf2610bfc933690602481600401359101614730565b9160443591614aeb565b005b346104db576020806003193601126104db576001600160a01b039081610c2261465b565b16600052601081526040600020805490610c3b826153ba565b92610c4960405194856146f4565b82845260009182528082208185015b848410610c6d576040518061024088826147b7565b600683600192604051610c7f816146a3565b85548152848601548382015260028601546040820152600386015460608201528a600487015416608082015260ff600587015460a08d8216818501521c16151560c0820152815201920193019290610c58565b346104db576003196020368201126104db576001600160401b03600435116104db576101a090600435360301126104db5733600052600f60205260ff604060002054166004811015610722576002610d2a9114614e8e565b610d44610d3b600480350180614ed0565b90501515614f02565b6024610d65610d5c8260043501600435600401614ed0565b90501515614f45565b610d76604460043501351515614f91565b610d87606460043501351515614fdd565b610da7610d9e608460043501600435600401614ed0565b90501515615029565b610dc7610dbe60c46004350160043560040161506d565b905015156150a2565b610de86005610de060c46004350160043560040161506d565b9050106150e7565b610e08610dff60a460043501600435600401614ed0565b90501515615133565b610e28610e1f60e460043501600435600401614ed0565b90501515615176565b610e49610e4061010460043501600435600401614ed0565b905015156151c2565b610e6a610e6161012460043501600435600401614ed0565b9050151561520e565b610e8b610e8261014460043501600435600401614ed0565b90501515615252565b610e9d61016460043501351515615296565b610eaf610184600435013515156152e2565b60016008540180600855610ec161532e565b818152336020820152610ee2610edb600480350180614ed0565b3691614730565b6040820152610efd610edb8460043501600435600401614ed0565b60608201526044600435013560808201526064600435013560a0820152610f31610edb608460043501600435600401614ed0565b60c0820152610f4d610edb60a460043501600435600401614ed0565b60e0820152610f6660c46004350160043560040161506d565b90610f70826153ba565b91610f7e60405193846146f4565b8083526020830191368260051b8201116104db5780925b8260051b82018410611b795750505050610100820152610fc2610edb60e460043501600435600401614ed0565b610120820152610fe0610edb61010460043501600435600401614ed0565b610140820152610ffe610edb61012460043501600435600401614ed0565b61018082015261101c610edb61014460043501600435600401614ed0565b6101a0820152610164600435013561016082015261018460043501356101c082015260006101e082015260006102208201523315611b3557600082815260046020526040902054611079906001600160a01b031615155b156155e9565b60008281526004602052604090205461109c906001600160a01b03161515611073565b3360005260056020526040600020600181540190558160005260046020526040600020336001600160601b0360a01b825416179055813360007fddf252ad1be2c89b69c2b068fc378daa952ba7f163c4a11628f55a4df523b3ef8180a4600c6020526040600020815181556001810160018060a01b036020840151166001600160601b0360a01b82541617905560408201518051906001600160401b03821161163c57819061115b82611152600287015461485a565b600287016153e8565b602090601f8311600114611ac357600092611ab8575b50508160011b916000199060031b1c19161760028201555b60608201518051906001600160401b03821161163c5781906111bb826111b2600387015461485a565b600387016153e8565b602090601f8311600114611a4657600092611a3b575b50508160011b916000199060031b1c19161760038201555b6080820151600482015560a0820151600582015560c08201518051906001600160401b03821161163c57819061122f82611226600687015461485a565b600687016153e8565b602090601f83116001146119c9576000926119be575b50508160011b916000199060031b1c19161760068201555b60e08201518051906001600160401b03821161163c57819061128f82611286600787015461485a565b600787016153e8565b602090601f831160011461194c57600092611941575b50508160011b916000199060031b1c19161760078201555b600881016101008301519060208251926112d78484615476565b019060005260206000206000915b83831061184957505050506101208201518051906001600160401b03821161163c5781906113238261131a600987015461485a565b600987016153e8565b602090601f83116001146117d7576000926117cc575b50508160011b916000199060031b1c19161760098201555b6101408201518051906001600160401b03821161163c5781906113848261137b600a87015461485a565b600a87016153e8565b602090601f831160011461175a5760009261174f575b50508160011b916000199060031b1c191617600a8201555b610160820151600b8201556101808201518051906001600160401b03821161163c5781906113f0826113e7600c87015461485a565b600c87016153e8565b602090601f83116001146116dd576000926116d2575b50508160011b916000199060031b1c191617600c8201555b6101a08201518051906001600160401b03821161163c5761144f82611446600d86015461485a565b600d86016153e8565b602090601f831160011461165c5791806102409492601094600092611651575b50508160011b916000199060031b1c191617600d8201555b6101c0840151600e820155600f81016114b36101e08601511515829060ff801983541691151516179055565b6102008501511515815461ff0062ff00006102208901511515871b169260081b169062ffff001916171790550191015190815190600160401b9283831161163c5781548383558084106115ac575b506020019060005260206000206000915b83831061158e57505050508160005260136020526040600020600160ff1982541617905533600052600d6020526040600020805491821015611579579061155e9160018201815561496c565b819291549060031b91821b91600019901b1916179055600080f35b83634e487b7160e01b60005260416004526000fd5b60056020826115a060019451866154bf565b01920192019190611512565b8060050290600582040361162757836005026005810485036116125783600052602060002091820191015b8181106115e45750611501565b8060006005925560006001820155600060028201556116056003820161542d565b60006004820155016115d7565b87634e487b7160e01b60005260116004526000fd5b86634e487b7160e01b60005260116004526000fd5b85634e487b7160e01b60005260416004526000fd5b01519050888061146f565b90600d840160005260206000209160005b601f19851681106116ba575092610240949260019260109583601f198116106116a1575b505050811b01600d820155611487565b015160001960f88460031b161c19169055888080611691565b9192602060018192868501518155019401920161166d565b015190508680611406565b9250600c84016000526020600020906000935b601f1984168510611734576001945083601f1981161061171b575b505050811b01600c82015561141e565b015160001960f88460031b161c1916905586808061170b565b818101518355602094850194600190930192909101906116f0565b01519050868061139a565b9250600a84016000526020600020906000935b601f19841685106117b1576001945083601f19811610611798575b505050811b01600a8201556113b2565b015160001960f88460031b161c19169055868080611788565b8181015183556020948501946001909301929091019061176d565b015190508680611339565b9250600984016000526020600020906000935b601f198416851061182e576001945083601f19811610611815575b505050811b016009820155611351565b015160001960f88460031b161c19169055868080611805565b818101518355602094850194600190930192909101906117ea565b80518051906001600160401b03821161192c576118708261186a865461485a565b866153e8565b602090601f83116001146118bc5792826001949360209386956000926118b1575b5050600019600383901b1c191690841b1785555b019201920191906112e5565b015190508d80611891565b908460005260206000209160005b601f1985168110611914575083602093600196938796938794601f198116106118fb575b505050811b0185556118a5565b015160001960f88460031b161c191690558d80806118ee565b919260206001819286850151815501940192016118ca565b89634e487b7160e01b60005260416004526000fd5b0151905086806112a5565b9250600784016000526020600020906000935b601f19841685106119a3576001945083601f1981161061198a575b505050811b0160078201556112bd565b015160001960f88460031b161c1916905586808061197a565b8181015183556020948501946001909301929091019061195f565b015190508680611245565b9250600684016000526020600020906000935b601f1984168510611a20576001945083601f19811610611a07575b505050811b01600682015561125d565b015160001960f88460031b161c191690558680806119f7565b818101518355602094850194600190930192909101906119dc565b0151905086806111d1565b9250600384016000526020600020906000935b601f1984168510611a9d576001945083601f19811610611a84575b505050811b0160038201556111e9565b015160001960f88460031b161c19169055868080611a74565b81810151835560209485019460019093019290910190611a59565b015190508680611171565b9250600284016000526020600020906000935b601f1984168510611b1a576001945083601f19811610611b01575b505050811b016002820155611189565b015160001960f88460031b161c19169055868080611af1565b81810151835560209485019460019093019290910190611ad6565b60405162461bcd60e51b8152602060048201819052818501527f4552433732313a206d696e7420746f20746865207a65726f20616464726573736044820152606490fd5b6001600160401b038435116104db5760208091611b993687358601614767565b815201930192610f95565b346104db576003196040368201126104db576001600160401b03602435116104db576101a090602435360301126104db5733600052600f60205260ff604060002054166004811015610722576002611bfc9114614e8e565b600435600052600c6020523360018060a01b03600160406000200154160361265a576004356000526013602052611c3a60ff60406000205416615635565b600435600052600c602052611c5d60ff600f6040600020015460101c161561567a565b611c6f610d3b60046024350180614ed0565b611c85610d5c6024803501602435600401614ed0565b611c96604460243501351515614f91565b611cad610dbe60c46024350160243560040161506d565b611cc66005610de060c46024350160243560040161506d565b611cd7606460243501351515614fdd565b611cee610d9e608460243501602435600401614ed0565b611d05610dff60a460243501602435600401614ed0565b611d1c610e1f60e460243501602435600401614ed0565b611d34610e4061010460243501602435600401614ed0565b611d4c610e6161012460243501602435600401614ed0565b611d64610e8261014460243501602435600401614ed0565b611d7661016460243501351515615296565b611d88610184602435013515156152e2565b611d9760046024350180614ed0565b600435600052600c6020526002604060002001906001600160401b03811161222857611dcd81611dc7845461485a565b846153e8565b600092601f82116001146125f157928192936000926125e6575b50508160011b916000199060031b1c19161790555b611e0f6024803501602435600401614ed0565b600435600052600c6020526003604060002001906001600160401b03811161222857611e3f81611dc7845461485a565b600092601f821160011461257d5792819293600092612572575b50508160011b916000199060031b1c19161790555b600435600052600c6020526040600020604460243501356004820155606460243501356005820155611eaa608460243501602435600401614ed0565b906001600160401b03821161222857611ed382611eca600686015461485a565b600686016153e8565b600090601f83116001146125025760069291600091836124f7575b50508160011b916000199060031b1c1916179101555b611f1860a460243501602435600401614ed0565b600435600052600c6020526007604060002001906001600160401b03811161222857611f4881611dc7845461485a565b600092601f821160011461248e5792819293600092612483575b50508160011b916000199060031b1c19161790555b611f8b60c46024350160243560040161506d565b600435600052600c602052600860406000200191611fa98284615476565b60009283526020832090805b83851061239a57611fd060e460243501602435600401614ed0565b600435600052600c6020526009604060002001906001600160401b0381116122285761200081611dc7845461485a565b600092601f82116001146123315792819293600092612326575b50508160011b916000199060031b1c19161790555b61204461010460243501602435600401614ed0565b600435600052600c602052600a604060002001906001600160401b0381116122285761207481611dc7845461485a565b600092601f82116001146122bd57928192936000926122b2575b50508160011b916000199060031b1c19161790555b6120b861012460243501602435600401614ed0565b600435600052600c602052600c604060002001906001600160401b038111612228576120e881611dc7845461485a565b600092601f8211600114612249579281929360009261223e575b50508160011b916000199060031b1c19161790555b61212c61014460243501602435600401614ed0565b600435600052600c602052600d604060002001906001600160401b0381116122285761215c81611dc7845461485a565b6000601f82116001146121c3578192936000926121b8575b50508160011b916000199060031b1c19161790555b600435600052600c60205260406000206101646024350135600b820155600e6101846024350135910155600080f35b013590508380612174565b601f198216938360005260206000209160005b86811061221057508360019596106121f6575b505050811b019055612189565b0135600019600384901b60f8161c191690558380806121e9565b909260206001819286860135815501940191016121d6565b634e487b7160e01b600052604160045260246000fd5b013590508380612102565b826000526020600020906000945b601f198416861061229a57600194955083601f19811610612280575b505050811b019055612117565b0135600019600384901b60f8161c19169055838080612273565b91602060018192858501358155019301950194612257565b01359050838061208e565b826000526020600020906000945b601f198416861061230e57600194955083601f198116106122f4575b505050811b0190556120a3565b0135600019600384901b60f8161c191690558380806122e7565b916020600181928585013581550193019501946122cb565b01359050838061201a565b826000526020600020906000945b601f198416861061238257600194955083601f19811610612368575b505050811b01905561202f565b0135600019600384901b60f8161c1916905583808061235b565b9160206001819285850135815501930195019461233f565b6123a48183614ed0565b906001600160401b038211612228576123c7826123c1875461485a565b876153e8565b600090601f8311600114612413579282600194936020938695600092612408575b5050600019600383901b1c191690841b1786555b01930194019391611fb5565b013590508a806123e8565b8560005260206000209160005b601f198516811061246b575083602093600196938796938794601f19811610612451575b505050811b0186556123fc565b0135600019600384901b60f8161c191690558a8080612444565b90926020600181928686013581550194019101612420565b013590508380611f62565b826000526020600020906000945b601f19841686106124df57600194955083601f198116106124c5575b505050811b019055611f77565b0135600019600384901b60f8161c191690558380806124b8565b9160206001819285850135815501930195019461249c565b013590508480611eee565b6006840160005260206000209160005b601f198516811061255a5750918391600193600695601f19811610612540575b505050811b01910155611f04565b0135600019600384901b60f8161c19169055848080612532565b90926020600181928686013581550194019101612512565b013590508380611e59565b826000526020600020906000945b601f19841686106125ce57600194955083601f198116106125b4575b505050811b019055611e6e565b0135600019600384901b60f8161c191690558380806125a7565b9160206001819285850135815501930195019461258b565b013590508380611de7565b826000526020600020906000945b601f198416861061264257600194955083601f19811610612628575b505050811b019055611dfc565b0135600019600384901b60f8161c1916905583808061261b565b916020600181928585013581550193019501946125ff565b60405162461bcd60e51b815260206004820152602860248201527f4f6e6c79207468652073656c6c65722063616e20757064617465207468656972604482015267081c1c9bd91d58dd60c21b6064820152608490fd5b346104db5760203660031901126104db576004356000526013602052602060ff604060002054166040519015158152f35b346104db5760403660031901126104db576126fa61465b565b60243590811515908183036104db576001600160a01b031691338314612777576127499033600052600760205260406000208460005260205260406000209060ff801983541691151516179055565b6040519081527f17307eab39ab6107e8899845ad3d59bd9653f200f220920489ca2b5937696c3160203392a3005b60405162461bcd60e51b815260206004820152601960248201527f4552433732313a20617070726f766520746f2063616c6c6572000000000000006044820152606490fd5b346104db5760403660031901126104db576127d561465b565b6001600160a01b0390811660009081526010602052604090208054602435908110156104db576107d69161493a565b346104db576020806003193601126104db5760043580600052600c9081835260ff600f604060002001549161283f82601094851c161561567a565b80600052601385526128578260406000205416615635565b60009260005b826000528587528160406000200180548210156128ae576004612881838793615740565b5001541615612899575b6128949061575c565b61285d565b936128a66128949161575c565b94905061288b565b505084866128bb866153ba565b956128c960405197886146f4565b8087526128d8601f19916153ba565b018160005b8281106129815750505060009360005b8160005283835284604060002001805482101561296e576004612911838a93615740565b5001541615612929575b6129249061575c565b6128ed565b94612966612924918360005285855261295161294b8989604060002001615740565b5061577f565b61295b828c61576b565b5261041e818b61576b565b95905061291b565b604051848152806102408187018c6143c2565b612989615715565b82828b0101520182906128dd565b346104db5760403660031901126104db576129b061465b565b60249081359060048210156104db576129c7614984565b6001600160a01b0316918215612b5657826000526020906012825260ff6040600020541615612b1b5783600052600f825260ff604060002054166004811015612ace578314612ae35760028314612a6a575b507fd8f7bcb2c5cffc294a0aaef719685993d7be95273fb8254803a1563510ccefed91600f612a65928560005252604060002060ff1981541660ff831617905560405191829182614847565b0390a2005b83600052600f825260ff604060002054166004811015612ace57600114612a195790601f6064926040519262461bcd60e51b845260048401528201527f43616e206f6e6c79207665726966792070656e64696e672073656c6c657273006044820152fd5b50634e487b7160e01b60009081526021600452fd5b9060126064926040519262461bcd60e51b845260048401528201527114dd185d1d5cc8185b1c9958591e481cd95d60721b6044820152fd5b9060156064926040519262461bcd60e51b845260048401528201527414d95b1b195c881b9bdd081c9959da5cdd195c9959605a1b6044820152fd5b60649060166040519162461bcd60e51b83526020600484015282015275496e76616c69642073656c6c6572206164647265737360501b6044820152fd5b346104db5760003660031901126104db576040516000600354612bb58161485a565b80845290600190818116908115612c4e5750600114612bf3575b61024084612bdf818603826146f4565b604051918291602083526020830190614382565b6003600090815292507fc2575a0e9e593c00f959f8c92f12db2869c3395a3b0502d05e2516446f71f85b5b828410612c36575050508101602001612bdf82612bcf565b80546020858701810191909152909301928101612c1e565b60ff191660208087019190915292151560051b85019092019250612bdf9150839050612bcf565b346104db5760003660031901126104db576000546040516001600160a01b039091168152602090f35b6020806003193601126104db5760043590600191600283541461305457600283558060005260138252612cd860ff60406000205416615635565b80600052600c90818352612cfa60ff600f6040600020015460101c161561567a565b600081815282845260408082208601546001600160a01b039081168352600f865291205460ff16600481101561072257600203613016578160005282845260056040600020015415612fd1578160005282845260ff600f6040600020015416612f8c5781600052828452808560406000200154163314612f47578160005282845260046040600020015492833410612f0d5782600052808552600560406000200180548015612ee4576000190190558260005280855281866040600020600581015415612efa575b015416612e23604051612dd4816146a3565b85815286888201528660408201524260608201523360808201528260a0820152600060c08201523360005260108852612e1181604060002061582c565b8260005260118852604060002061582c565b80600052600e86526040600020805490868201809211612ee457556040518581528587820152426040820152847f45280c7ac9cec77edd454e39e1641a3e22619146cf074a4239beee86a7c07edc60603393a48560095401600955612e88843461581f565b80612ed4575b508260005284528460406000200154169260405192835242908301527fbe6177108f4df43c5d7be79cb219c969fc97915bbdb4b56d14d391dcdcc1606060403393a48055005b612ede90336158e1565b86612e8e565b634e487b7160e01b600052601160045260246000fd5b600f8101805460ff191683179055612dc2565b60405162461bcd60e51b8152600481018690526012602482015271496e73756666696369656e742066756e647360701b6044820152606490fd5b60405162461bcd60e51b815260048101859052601b60248201527f43616e6e6f742062757920796f7572206f776e2070726f6475637400000000006044820152606490fd5b60405162461bcd60e51b815260048101859052601a60248201527f50726f6475637420697320616c726561647920736f6c646f75740000000000006044820152606490fd5b60405162461bcd60e51b815260048101859052601760248201527f50726f64756374206973206f7574206f662073746f636b0000000000000000006044820152606490fd5b60405162461bcd60e51b815260048101859052601660248201527514d95b1b195c881a5cc81b9bdd081d995c9a599a595960521b6044820152606490fd5b60405162461bcd60e51b815260048101839052601f60248201527f5265656e7472616e637947756172643a207265656e7472616e742063616c6c006044820152606490fd5b346104db5760203660031901126104db576004356000908152600c60205260409020805460018201546001600160a01b0316916130d860028201614894565b6130e460038301614894565b60048301546005840154906130fb60068601614894565b61310760078701614894565b61311360098801614894565b90613120600a8901614894565b92600b89015494600c8a0161313490614894565b96613141600d8c01614894565b98600e8c01549b600f01549a6040519e8f9e8f908152602001528d610220908160408201520161317091614382565b8d810360608f015261318191614382565b9160808d015260a08c01528a810360c08c015261319d91614382565b89810360e08b01526131ae91614382565b8881036101008a01526131c091614382565b8781036101208901526131d291614382565b906101408701528581036101608701526131eb91614382565b8481036101808601526131fd91614382565b916101a084015260ff811615156101c08401528060081c60ff1615156101e084015260101c60ff1615156102008301520390f35b346104db5760003660031901126104db5761324a614984565b600080546001600160a01b0319811682556001600160a01b03167f8be0079c531659141344cd1fd0a4f28419497f9722a3daafe3b4186f6b6457e08280a3005b346104db5760203660031901126104db576001600160a01b036132ab61465b565b1680156132ca5760005260056020526020604060002054604051908152f35b60405162461bcd60e51b815260206004820152602960248201527f4552433732313a2061646472657373207a65726f206973206e6f7420612076616044820152683634b21037bbb732b960b91b6064820152608490fd5b346104db5760203660031901126104db57602061333f600435614a28565b6040516001600160a01b039091168152f35b346104db5760203660031901126104db576001600160a01b0361337261465b565b16600052600e6020526020604060002054604051908152f35b346104db5760003660031901126104db5733600052601260205260ff6040600020541661340e57336000526012602052604060002060ff1990600182825416179055600f60205260016040600020918254161790556040514281527fa1a1a78ff3033d5ee8393372052aeb2a16bbb347a29f3780370e9506c109e37260203392a2005b60405162461bcd60e51b8152602060048201526012602482015271105b1c9958591e481c9959da5cdd195c995960721b6044820152606490fd5b346104db5760203660031901126104db576001600160a01b0361346961465b565b16600052600f60205261024060ff6040600020541660405191829182614847565b346104db57610bfc61349b36614782565b90604051926134a9846146d9565b60008452614aeb565b346104db5760003660031901126104db5733600052600f60205260ff6040600020541660048110156107225760021480156135be575b6134f1906156bb565b33600052600e602052604060002054801561358057600b54908181029181830403612ee45761354b61352a60646135519404809361581f565b9133600052600e6020526000604081205560018060a01b03600054166158e1565b336158e1565b604051600081527f8ad64a0ac7700dd8425ab0499f107cb6e2cd1581d803c5b8c1c79dcb8190b1af60203392a2005b60405162461bcd60e51b81526020600482015260166024820152754e6f2062616c616e636520746f20776974686472617760501b6044820152606490fd5b506000546001600160a01b031633146134e8565b346104db576020806003193601126104db576001600160a01b0390816135f661465b565b1660005260118152604060002080549061360f826153ba565b9261361d60405194856146f4565b82845260009182528082208185015b848410613641576040518061024088826147b7565b600683600192604051613653816146a3565b85548152848601548382015260028601546040820152600386015460608201528a600487015416608082015260ff600587015460a08d8216818501521c16151560c082015281520192019301929061362c565b346104db5760403660031901126104db57602480356004356000805b82600052600c6020908082526010918260406000200180548510156138be576136ec858992615740565b505414613704575050506136ff9061575c565b6136c2565b9193509193946000526014815260ff9485604060002054161561388257806000528282526137388585604060002001615740565b50600190810154909690336001600160a01b0391821614908115613874575b501561381f578160005283835260046137768787604060002001615740565b500154166137e2579161379793916004959360005252604060002001615740565b5001805460ff1916821790555b156137ab57005b60649060106040519162461bcd60e51b8352602060048401528201526f14995d9a595dc81b9bdd08199bdd5b9960821b6044820152fd5b60405162461bcd60e51b8152600481018390526016818901527514995d9a595dc8185b1c9958591e4819195b195d195960521b6044820152606490fd5b60405162461bcd60e51b8152600481018490526028818a01527f4f6e6c79207265766965776572206f72206f776e65722063616e2064656c6574604482015267652072657669657760c01b6064820152608490fd5b600054163314905089613757565b60405162461bcd60e51b8152600481018390526015818901527414995d9a595dc8191bd95cc81b9bdd08195e1a5cdd605a1b6044820152606490fd5b50505050509150506137a4565b346104db57610bfc6138dc36614782565b916138ef6138ea8433614b86565b614a89565b614c4e565b346104db5760603660031901126104db57602480356004356044356001600160401b0381116104db5761392b903690600401614767565b9080600052602091600c835260018060a01b03600160406000200154163314613a845783151580613a79575b15613a35578051156139f15790600c92916001600a54019081600a5561397b615715565b95828752338588015260408701526060860152600052601482526040600020600160ff198254161790556000525260106040600020018054600160401b811015611579576139ce91600182018155615740565b6139dc57610bfc92506154bf565b82634e487b7160e01b60005260006004526000fd5b60405162461bcd60e51b8152600481018490526017818701527f436f6d6d656e742063616e6e6f7420626520656d7074790000000000000000006044820152606490fd5b60405162461bcd60e51b815260048101849052601e818701527f526174696e67206d757374206265206265747765656e203120616e64203500006044820152606490fd5b506005841115613957565b60405162461bcd60e51b8152600481018490526026818701527f53656c6c65722063616e6e6f7420726576696577207468656972206f776e20706044820152651c9bd91d58dd60d21b6064820152608490fd5b346104db5760403660031901126104db57600435613af3614671565b9033600052602091600f835260ff9182604060002054166004811015610722576002148015613dfc575b613b29909493946156bb565b6001600160a01b039182169360009390845b86600052601080845260406000208054831015613df057613b5d83879261493a565b505414613b735750613b6e9061575c565b613b3b565b9091929394955086600052808452613b8f82604060002061493a565b509260058094015460a01c16613dab5786600052808452613bb482604060002061493a565b50830154861633148015613d9e575b15613d465790613bdd91876000528452604060002061493a565b5001805460ff60a01b1916600160a01b17905560015b15613d0d5781600052600c815260019280846040600020015416846000905b613c46575b5050507ff9dc8543b583e01f592678422369b2777e3649761f5808ae432cb1c24ca9438c9192604051908152a3005b81600052601180855260406000208054831015613d0657613c6883889261493a565b50541480613ce2575b613c8a575090613c8286939261575c565b909192613c12565b7ff9dc8543b583e01f592678422369b2777e3649761f5808ae432cb1c24ca9438c9596935090613cc6916005936000528552604060002061493a565b5001805460ff60a01b1916600160a01b17905592918580613c17565b508260005280855287846004613cfc85604060002061493a565b5001541614613c71565b5050613c17565b6064906040519062461bcd60e51b825260048201526012602482015271141d5c98da185cd9481b9bdd08199bdd5b9960721b6044820152fd5b60405162461bcd60e51b815260048101859052602a60248201527f4f6e6c792073656c6c6572206f72206f776e65722063616e206d61726b2061736044820152690819195b1a5d995c995960b21b6064820152608490fd5b5033866000541614613bc3565b60405162461bcd60e51b815260048101859052601b60248201527f416c7265616479206d61726b65642061732064656c69766572656400000000006044820152606490fd5b50505050909192613bf3565b506000546001600160a01b03163314613b1d565b346104db5760403660031901126104db57613e2961465b565b602435906001600160a01b038080613e4085614a28565b16921691808314613f3b57803314908115613f16575b5015613eab57600083815260066020526040902080546001600160a01b03191683179055613e8383614a28565b167f8c5be1e5ebec7d5bd14f71427d1e84f3dd0314c0f7b2291e5b200ac8c7c3b925600080a4005b60405162461bcd60e51b815260206004820152603d60248201527f4552433732313a20617070726f76652063616c6c6572206973206e6f7420746f60448201527f6b656e206f776e6572206f7220617070726f76656420666f7220616c6c0000006064820152608490fd5b9050600052600760205260406000203360005260205260ff6040600020541684613e56565b60405162461bcd60e51b815260206004820152602160248201527f4552433732313a20617070726f76616c20746f2063757272656e74206f776e656044820152603960f91b6064820152608490fd5b346104db5760203660031901126104db57602061333f600435614a4b565b346104db5760003660031901126104db576040516000600254613fca8161485a565b80845290600190818116908115612c4e5750600114613ff35761024084612bdf818603826146f4565b6002600090815292507f405787fa12a823e0f2b7631cc41b3ba8828b3321ca811111fa75cd3aa3bb5ace5b828410614036575050508101602001612bdf82612bcf565b8054602085870181019190915290930192810161401e565b346104db5760003660031901126104db57600854600060015b828111156142a65750614079906157cf565b90600160005b82821115614095576040518061024086826145f9565b81600052600c6020526040600020600f8101549060ff8260101c16156140c8575b5050906140c29061575c565b9061407f565b604051916140d583614687565b8154835260018201546001600160a01b031660208401526140f860028301614894565b604084015261410960038301614894565b606084015260048201546080840152600582015460a084015261412e60068301614894565b60c084015261413f60078301614894565b60e08401526008820154614152816153ba565b9061416060405192836146f4565b80825260208201600885016000526020600020906000905b83821061428957505050506010929160ff9161010086015261419c60098401614894565b6101208601526141ae600a8401614894565b610140860152600b8301546101608601526141cb600c8401614894565b6101808601526141dd600d8401614894565b6101a0860152600e8301546101c086015281811615156101e0860152818160081c161515610200860152831c1615156102208401520180549061421f826153ba565b9161422d60405193846146f4565b808352602083019160005260206000206000925b82841061426b57505050506102408201526140c29161426491610413828861576b565b90856140b6565b6005602060019261427b8561577f565b815201920193019290614241565b60016020819261429886614894565b815201930191019091614178565b80600052600c60205260ff600f6040600020015460101c16156142d2575b6142cd9061575c565b614067565b906142df6142cd9161575c565b9190506142c4565b346104db5760203660031901126104db5760043563ffffffff60e01b81168091036104db576020906380ac58cd60e01b8114908115614344575b8115614333575b506040519015158152f35b6301ffc9a760e01b14905082614328565b635b5e139f60e01b81149150614321565b346104db5760203660031901126104db576020906004356000526014825260ff6040600020541615158152f35b919082519283825260005b8481106143ae575050826000602080949584010152601f8019910116010190565b60208183018101518483018201520161438d565b908082519081815260208091019281808460051b8301019501936000915b8483106143f05750505050505090565b9091929394958480600192601f1985820301865289519081518152848060a01b038383015116838201526040808301519082015261443d6060808401519060a08091850152830190614382565b91608080910151151591015298019301930191949392906143e0565b91908251815260209260018060a01b038482015116848301526144de6144cc6144a66144946040850151610260806040890152870190614382565b60608501518682036060880152614382565b6080840151608086015260a084015160a086015260c084015185820360c0870152614382565b60e083015184820360e0860152614382565b6101009485830151958483039085015285518083528183019180808360051b8601019801926000905b8382106145c95750505050505061458061456c61454d6145396145c69697610120808701519088830390890152614382565b610140808601519087830390880152614382565b6101608085015190860152610180808501519086830390870152614382565b6101a0808401519085830390860152614382565b916101c080830151908201526101e080830151151590820152610200808301511515908201526102208083015115159082015261024080920151918184039101526143c2565b90565b90919293949883806145e86001938d601f199082030186528951614382565b9b9701959493919091019101614507565b602080820190808352835180925260408301928160408460051b8301019501936000915b84831061462d5750505050505090565b909192939495848061464b600193603f198682030187528a51614459565b980193019301919493929061461d565b600435906001600160a01b03821682036104db57565b602435906001600160a01b03821682036104db57565b61026081019081106001600160401b0382111761222857604052565b60e081019081106001600160401b0382111761222857604052565b60a081019081106001600160401b0382111761222857604052565b602081019081106001600160401b0382111761222857604052565b90601f801991011681019081106001600160401b0382111761222857604052565b6001600160401b03811161222857601f01601f191660200190565b92919261473c82614715565b9161474a60405193846146f4565b8294818452818301116104db578281602093846000960137010152565b9080601f830112156104db578160206145c693359101614730565b60609060031901126104db576001600160a01b039060043582811681036104db579160243590811681036104db579060443590565b60208082019080835283518092528060408094019401926000905b8382106147e157505050505090565b84518051875280840151878501528082015187830152606080820151908801526080808201516001600160a01b039081169189019190915260a0808301519091169088015260c09081015115159087015260e090950194938201936001909101906147d2565b9190602083019260048210156107225752565b90600182811c9216801561488a575b602083101461487457565b634e487b7160e01b600052602260045260246000fd5b91607f1691614869565b90604051918260008254926148a88461485a565b90818452600194858116908160001461491757506001146148d4575b50506148d2925003836146f4565b565b9093915060005260209081600020936000915b8183106148ff5750506148d2935082010138806148c4565b855488840185015294850194879450918301916148e7565b9150506148d294506020925060ff191682840152151560051b82010138806148c4565b8054821015614956576000526006602060002091020190600090565b634e487b7160e01b600052603260045260246000fd5b80548210156149565760005260206000200190600090565b6000546001600160a01b0316330361499857565b606460405162461bcd60e51b815260206004820152602060248201527f4f776e61626c653a2063616c6c6572206973206e6f7420746865206f776e65726044820152fd5b156149e357565b60405162461bcd60e51b815260206004820152601860248201527f4552433732313a20696e76616c696420746f6b656e20494400000000000000006044820152606490fd5b6000908152600460205260409020546001600160a01b03166145c68115156149dc565b600081815260046020526040902054614a6e906001600160a01b031615156149dc565b6000908152600660205260409020546001600160a01b031690565b15614a9057565b60405162461bcd60e51b815260206004820152602d60248201527f4552433732313a2063616c6c6572206973206e6f7420746f6b656e206f776e6560448201526c1c881bdc88185c1c1c9bdd9959609a1b6064820152608490fd5b90614b0f939291614aff6138ea8433614b86565b614b0a838383614c4e565b614d8f565b15614b1657565b60405162461bcd60e51b815280614b2f60048201614b33565b0390fd5b60809060208152603260208201527f4552433732313a207472616e7366657220746f206e6f6e20455243373231526560408201527131b2b4bb32b91034b6b83632b6b2b73a32b960711b60608201520190565b906001600160a01b038080614b9a84614a28565b16931691838314938415614bcd575b508315614bb7575b50505090565b614bc391929350614a4b565b1614388080614bb1565b909350600052600760205260406000208260005260205260ff604060002054169238614ba9565b15614bfb57565b60405162461bcd60e51b815260206004820152602560248201527f4552433732313a207472616e736665722066726f6d20696e636f72726563742060448201526437bbb732b960d91b6064820152608490fd5b90614c7691614c5c84614a28565b6001600160a01b0393918416928492909183168414614bf4565b16918215614d0e5781614c9391614c8c86614a28565b1614614bf4565b7fddf252ad1be2c89b69c2b068fc378daa952ba7f163c4a11628f55a4df523b3ef60008481526006602052604081206001600160601b0360a01b9081815416905583825260056020526040822060001981540190558482526040822060018154019055858252600460205284604083209182541617905580a4565b60405162461bcd60e51b8152602060048201526024808201527f4552433732313a207472616e7366657220746f20746865207a65726f206164646044820152637265737360e01b6064820152608490fd5b3d15614d8a573d90614d7082614715565b91614d7e60405193846146f4565b82523d6000602084013e565b606090565b91926000929190813b15614e8457602091614de59185604051958680958194630a85bd0160e11b9b8c845233600485015260018060a01b0380951660248501526044840152608060648401526084830190614382565b0393165af190829082614e35575b5050614e2757614e01614d5f565b80519081614e225760405162461bcd60e51b815280614b2f60048201614b33565b602001fd5b6001600160e01b0319161490565b909192506020813d8211614e7c575b81614e51602093836146f4565b81010312614e785751906001600160e01b031982168203614e755750903880614df3565b80fd5b5080fd5b3d9150614e44565b5050505050600190565b15614e9557565b60405162461bcd60e51b815260206004820152601360248201527214d95b1b195c881b9bdd081d995c9a599a5959606a1b6044820152606490fd5b903590601e19813603018212156104db57018035906001600160401b0382116104db576020019181360383136104db57565b15614f0957565b60405162461bcd60e51b81526020600482015260146024820152734e616d652063616e6e6f7420626520656d70747960601b6044820152606490fd5b15614f4c57565b60405162461bcd60e51b815260206004820152601b60248201527f4465736372697074696f6e2063616e6e6f7420626520656d70747900000000006044820152606490fd5b15614f9857565b60405162461bcd60e51b815260206004820152601c60248201527f5072696365206d7573742062652067726561746572207468616e2030000000006044820152606490fd5b15614fe457565b60405162461bcd60e51b815260206004820152601c60248201527f53746f636b206d7573742062652067726561746572207468616e2030000000006044820152606490fd5b1561503057565b60405162461bcd60e51b8152602060048201526015602482015274436f6c6f722063616e6e6f7420626520656d70747960581b6044820152606490fd5b903590601e19813603018212156104db57018035906001600160401b0382116104db57602001918160051b360383136104db57565b156150a957565b60405162461bcd60e51b8152602060048201526016602482015275496d616765732063616e6e6f7420626520656d70747960501b6044820152606490fd5b156150ee57565b60405162461bcd60e51b815260206004820152601c60248201527f496d616765732063616e6e6f74206265206d6f7265207468616e2035000000006044820152606490fd5b1561513a57565b60405162461bcd60e51b815260206004820152601460248201527353697a652063616e6e6f7420626520656d70747960601b6044820152606490fd5b1561517d57565b60405162461bcd60e51b815260206004820152601860248201527f43617465676f72792063616e6e6f7420626520656d70747900000000000000006044820152606490fd5b156151c957565b60405162461bcd60e51b815260206004820152601c60248201527f5375622d63617465676f72792063616e6e6f7420626520656d707479000000006044820152606490fd5b1561521557565b60405162461bcd60e51b81526020600482015260156024820152744d6f64656c2063616e6e6f7420626520656d70747960581b6044820152606490fd5b1561525957565b60405162461bcd60e51b81526020600482015260156024820152744272616e642063616e6e6f7420626520656d70747960581b6044820152606490fd5b1561529d57565b60405162461bcd60e51b815260206004820152601d60248201527f576569676874206d7573742062652067726561746572207468616e20300000006044820152606490fd5b156152e957565b60405162461bcd60e51b815260206004820152601a60248201527f534b55206d7573742062652067726561746572207468616e20300000000000006044820152606490fd5b6040519061533b82614687565b8161024060009182815282602082015260609283604083015283808301528060808301528060a08301528360c08301528360e08301528361010083015283610120830152836101408301528061016083015283610180830152836101a0830152806101c0830152806101e0830152806102008301526102208201520152565b6001600160401b0381116122285760051b60200190565b8181106153dc575050565b600081556001016153d1565b9190601f81116153f757505050565b6148d2926000526020600020906020601f840160051c83019310615423575b601f0160051c01906153d1565b9091508190615416565b615437815461485a565b9081615441575050565b81601f60009311600114615453575055565b908083918252615472601f60208420940160051c8401600185016153d1565b5555565b90600160401b81116122285781549181815582821061549457505050565b600052602060002091820191015b8181106154ad575050565b806154b960019261542d565b016154a2565b8151815560019182820160209060018060a01b0382840151166001600160601b0360a01b8254161790556040820151600284015560038301906060830151948551916001600160401b0383116122285761551d8361186a865461485a565b80601f8411600114615575575091808060809593600497956148d29a60009461556a575b50501b916000199060031b1c19161790555b0151151591019060ff801983541691151516179055565b015192503880615541565b9193949596601f1984168660005283600020936000905b8282106155d2575050926080959285926148d29a999660049996106155b9575b505050811b019055615553565b015160001960f88460031b161c191690553880806155ac565b80888697829497870151815501960194019061558c565b156155f057565b60405162461bcd60e51b815260206004820152601c60248201527f4552433732313a20746f6b656e20616c7265616479206d696e746564000000006044820152606490fd5b1561563c57565b60405162461bcd60e51b8152602060048201526016602482015275141c9bd91d58dd08191bd95cc81b9bdd08195e1a5cdd60521b6044820152606490fd5b1561568157565b60405162461bcd60e51b8152602060048201526012602482015271141c9bd91d58dd081a5cc819195b195d195960721b6044820152606490fd5b156156c257565b60405162461bcd60e51b815260206004820152602560248201527f4f6e6c792076657269666965642073656c6c6572206f72206f776e657220616c6044820152641b1bddd95960da1b6064820152608490fd5b60405190615722826146be565b60006080838281528260208201528260408201526060808201520152565b8054821015614956576000526005602060002091020190600090565b6000198114612ee45760010190565b80518210156149565760209160051b010190565b9060405161578c816146be565b608060ff600483958054855260018060a01b036001820154166020860152600281015460408601526157c060038201614894565b60608601520154161515910152565b906157d9826153ba565b6157e660405191826146f4565b82815280926157f7601f19916153ba565b019060005b82811061580857505050565b60209061581361532e565b828285010152016157fc565b91908203918211612ee457565b8054600160401b811015612228576158499160018201815561493a565b9190916158cb57805182556020810151600183015560408101516002830155606081015160038301556005600483019260018060a01b0393846080850151166001600160601b0360a01b825416179055019160a08201511682549160c060ff60a01b910151151560a01b16916affffffffffffffffffffff60a81b1617179055565b634e487b7160e01b600052600060045260246000fd5b6001600160a01b0316801561594057600080809381935af1615901614d5f565b501561590957565b60405162461bcd60e51b815260206004820152600f60248201526e151c985b9cd9995c8819985a5b1959608a1b6044820152606490fd5b60405162461bcd60e51b815260206004820152600f60248201526e496e76616c6964206164647265737360881b6044820152606490fdfea2646970667358221220bffd74834bdaeffb6e7b3c662b873eb7374a664186cae1e2e49aed78dcdf366664736f6c63430008130033",
  "linkReferences": {},
  "deployedLinkReferences": {}
}