{
  "_format": "hh-sol-artifact-1",
  "contractName": "HemShop",
  "sourceName": "contracts/HemShop.sol",
  "abi": [
    {
      "inputs": [
        {
          "internalType": "uint256",
          "name": "_pct",
          "type": "uint256"
        }
      ],
      "stateMutability": "nonpayable",
      "type": "constructor"
    },
    {
      "anonymous": false,
      "inputs": [
        {
          "indexed": false,
          "internalType": "address",
          "name": "admin",
          "type": "address"
        },
        {
          "indexed": false,
          "internalType": "address",
          "name": "impersonatedAccount",
          "type": "address"
        }
      ],
      "name": "AdminImpersonationChanged",
      "type": "event"
    },
    {
      "anonymous": false,
      "inputs": [
        {
          "indexed": true,
          "internalType": "address",
          "name": "owner",
          "type": "address"
        },
        {
          "indexed": true,
          "internalType": "address",
          "name": "approved",
          "type": "address"
        },
        {
          "indexed": true,
          "internalType": "uint256",
          "name": "tokenId",
          "type": "uint256"
        }
      ],
      "name": "Approval",
      "type": "event"
    },
    {
      "anonymous": false,
      "inputs": [
        {
          "indexed": true,
          "internalType": "address",
          "name": "owner",
          "type": "address"
        },
        {
          "indexed": true,
          "internalType": "address",
          "name": "operator",
          "type": "address"
        },
        {
          "indexed": false,
          "internalType": "bool",
          "name": "approved",
          "type": "bool"
        }
      ],
      "name": "ApprovalForAll",
      "type": "event"
    },
    {
      "anonymous": false,
      "inputs": [
        {
          "indexed": true,
          "internalType": "address",
          "name": "seller",
          "type": "address"
        },
        {
          "indexed": false,
          "internalType": "uint256",
          "name": "newBalance",
          "type": "uint256"
        }
      ],
      "name": "BalanceUpdated",
      "type": "event"
    },
    {
      "anonymous": false,
      "inputs": [
        {
          "indexed": true,
          "internalType": "uint256",
          "name": "id",
          "type": "uint256"
        },
        {
          "indexed": false,
          "internalType": "string",
          "name": "name",
          "type": "string"
        }
      ],
      "name": "CategoryCreated",
      "type": "event"
    },
    {
      "anonymous": false,
      "inputs": [
        {
          "indexed": true,
          "internalType": "uint256",
          "name": "id",
          "type": "uint256"
        },
        {
          "indexed": false,
          "internalType": "string",
          "name": "name",
          "type": "string"
        },
        {
          "indexed": false,
          "internalType": "bool",
          "name": "isActive",
          "type": "bool"
        }
      ],
      "name": "CategoryUpdated",
      "type": "event"
    },
    {
      "anonymous": false,
      "inputs": [
        {
          "indexed": true,
          "internalType": "uint256",
          "name": "productId",
          "type": "uint256"
        },
        {
          "indexed": true,
          "internalType": "address",
          "name": "buyer",
          "type": "address"
        },
        {
          "indexed": false,
          "internalType": "bool",
          "name": "isDelivered",
          "type": "bool"
        }
      ],
      "name": "DeliveryStatusUpdated",
      "type": "event"
    },
    {
      "anonymous": false,
      "inputs": [
        {
          "indexed": true,
          "internalType": "address",
          "name": "previousOwner",
          "type": "address"
        },
        {
          "indexed": true,
          "internalType": "address",
          "name": "newOwner",
          "type": "address"
        }
      ],
      "name": "OwnershipTransferred",
      "type": "event"
    },
    {
      "anonymous": false,
      "inputs": [
        {
          "indexed": true,
          "internalType": "uint256",
          "name": "productId",
          "type": "uint256"
        },
        {
          "indexed": true,
          "internalType": "address",
          "name": "buyer",
          "type": "address"
        },
        {
          "indexed": true,
          "internalType": "address",
          "name": "seller",
          "type": "address"
        },
        {
          "indexed": false,
          "internalType": "uint256",
          "name": "price",
          "type": "uint256"
        },
        {
          "indexed": false,
          "internalType": "uint256",
          "name": "timestamp",
          "type": "uint256"
        }
      ],
      "name": "ProductPurchased",
      "type": "event"
    },
    {
      "anonymous": false,
      "inputs": [
        {
          "indexed": true,
          "internalType": "uint256",
          "name": "productId",
          "type": "uint256"
        },
        {
          "indexed": true,
          "internalType": "address",
          "name": "buyer",
          "type": "address"
        },
        {
          "indexed": true,
          "internalType": "address",
          "name": "seller",
          "type": "address"
        },
        {
          "indexed": false,
          "internalType": "uint256",
          "name": "totalAmount",
          "type": "uint256"
        },
        {
          "indexed": false,
          "internalType": "uint256",
          "name": "basePrice",
          "type": "uint256"
        },
        {
          "indexed": false,
          "internalType": "uint256",
          "name": "timestamp",
          "type": "uint256"
        }
      ],
      "name": "PurchaseRecorded",
      "type": "event"
    },
    {
      "anonymous": false,
      "inputs": [
        {
          "indexed": true,
          "internalType": "address",
          "name": "seller",
          "type": "address"
        },
        {
          "indexed": false,
          "internalType": "uint256",
          "name": "timestamp",
          "type": "uint256"
        }
      ],
      "name": "SellerRegistered",
      "type": "event"
    },
    {
      "anonymous": false,
      "inputs": [
        {
          "indexed": true,
          "internalType": "address",
          "name": "seller",
          "type": "address"
        },
        {
          "indexed": false,
          "internalType": "enum HemShop.SellerStatus",
          "name": "status",
          "type": "uint8"
        }
      ],
      "name": "SellerStatusUpdated",
      "type": "event"
    },
    {
      "anonymous": false,
      "inputs": [
        {
          "indexed": true,
          "internalType": "uint256",
          "name": "id",
          "type": "uint256"
        },
        {
          "indexed": true,
          "internalType": "uint256",
          "name": "parentId",
          "type": "uint256"
        },
        {
          "indexed": false,
          "internalType": "string",
          "name": "name",
          "type": "string"
        }
      ],
      "name": "SubCategoryCreated",
      "type": "event"
    },
    {
      "anonymous": false,
      "inputs": [
        {
          "indexed": true,
          "internalType": "uint256",
          "name": "id",
          "type": "uint256"
        },
        {
          "indexed": false,
          "internalType": "string",
          "name": "name",
          "type": "string"
        },
        {
          "indexed": false,
          "internalType": "bool",
          "name": "isActive",
          "type": "bool"
        }
      ],
      "name": "SubCategoryUpdated",
      "type": "event"
    },
    {
      "anonymous": false,
      "inputs": [
        {
          "indexed": true,
          "internalType": "address",
          "name": "from",
          "type": "address"
        },
        {
          "indexed": true,
          "internalType": "address",
          "name": "to",
          "type": "address"
        },
        {
          "indexed": true,
          "internalType": "uint256",
          "name": "tokenId",
          "type": "uint256"
        }
      ],
      "name": "Transfer",
      "type": "event"
    },
    {
      "anonymous": false,
      "inputs": [
        {
          "indexed": true,
          "internalType": "address",
          "name": "user",
          "type": "address"
        },
        {
          "indexed": false,
          "internalType": "string",
          "name": "name",
          "type": "string"
        }
      ],
      "name": "UserRegistered",
      "type": "event"
    },
    {
      "inputs": [
        {
          "internalType": "address",
          "name": "",
          "type": "address"
        }
      ],
      "name": "adminImpersonating",
      "outputs": [
        {
          "internalType": "address",
          "name": "",
          "type": "address"
        }
      ],
      "stateMutability": "view",
      "type": "function"
    },
    {
      "inputs": [
        {
          "internalType": "address",
          "name": "to",
          "type": "address"
        },
        {
          "internalType": "uint256",
          "name": "tokenId",
          "type": "uint256"
        }
      ],
      "name": "approve",
      "outputs": [],
      "stateMutability": "nonpayable",
      "type": "function"
    },
    {
      "inputs": [
        {
          "internalType": "address",
          "name": "owner",
          "type": "address"
        }
      ],
      "name": "balanceOf",
      "outputs": [
        {
          "internalType": "uint256",
          "name": "",
          "type": "uint256"
        }
      ],
      "stateMutability": "view",
      "type": "function"
    },
    {
      "inputs": [
        {
          "internalType": "uint256",
          "name": "productId",
          "type": "uint256"
        },
        {
          "components": [
            {
              "internalType": "string",
              "name": "fullName",
              "type": "string"
            },
            {
              "internalType": "string",
              "name": "streetAddress",
              "type": "string"
            },
            {
              "internalType": "string",
              "name": "city",
              "type": "string"
            },
            {
              "internalType": "string",
              "name": "state",
              "type": "string"
            },
            {
              "internalType": "string",
              "name": "country",
              "type": "string"
            },
            {
              "internalType": "string",
              "name": "postalCode",
              "type": "string"
            },
            {
              "internalType": "string",
              "name": "phone",
              "type": "string"
            },
            {
              "internalType": "string",
              "name": "email",
              "type": "string"
            }
          ],
          "internalType": "struct HemShop.ShippingDetails",
          "name": "shippingDetails",
          "type": "tuple"
        }
      ],
      "name": "buyProduct",
      "outputs": [],
      "stateMutability": "payable",
      "type": "function"
    },
    {
      "inputs": [
        {
          "internalType": "address",
          "name": "",
          "type": "address"
        },
        {
          "internalType": "uint256",
          "name": "",
          "type": "uint256"
        }
      ],
      "name": "buyerPurchaseHistory",
      "outputs": [
        {
          "internalType": "uint256",
          "name": "productId",
          "type": "uint256"
        },
        {
          "internalType": "uint256",
          "name": "totalAmount",
          "type": "uint256"
        },
        {
          "internalType": "uint256",
          "name": "basePrice",
          "type": "uint256"
        },
        {
          "internalType": "uint256",
          "name": "timestamp",
          "type": "uint256"
        },
        {
          "internalType": "address",
          "name": "buyer",
          "type": "address"
        },
        {
          "internalType": "address",
          "name": "seller",
          "type": "address"
        },
        {
          "internalType": "bool",
          "name": "isDelivered",
          "type": "bool"
        },
        {
          "components": [
            {
              "internalType": "string",
              "name": "fullName",
              "type": "string"
            },
            {
              "internalType": "string",
              "name": "streetAddress",
              "type": "string"
            },
            {
              "internalType": "string",
              "name": "city",
              "type": "string"
            },
            {
              "internalType": "string",
              "name": "state",
              "type": "string"
            },
            {
              "internalType": "string",
              "name": "country",
              "type": "string"
            },
            {
              "internalType": "string",
              "name": "postalCode",
              "type": "string"
            },
            {
              "internalType": "string",
              "name": "phone",
              "type": "string"
            },
            {
              "internalType": "string",
              "name": "email",
              "type": "string"
            }
          ],
          "internalType": "struct HemShop.ShippingDetails",
          "name": "shippingDetails",
          "type": "tuple"
        }
      ],
      "stateMutability": "view",
      "type": "function"
    },
    {
      "inputs": [
        {
          "internalType": "uint256",
          "name": "newPct",
          "type": "uint256"
        }
      ],
      "name": "changeServicePct",
      "outputs": [],
      "stateMutability": "nonpayable",
      "type": "function"
    },
    {
      "inputs": [
        {
          "internalType": "string",
          "name": "_name",
          "type": "string"
        }
      ],
      "name": "createCategory",
      "outputs": [],
      "stateMutability": "nonpayable",
      "type": "function"
    },
    {
      "inputs": [
        {
          "components": [
            {
              "internalType": "string",
              "name": "name",
              "type": "string"
            },
            {
              "internalType": "string",
              "name": "description",
              "type": "string"
            },
            {
              "internalType": "uint256",
              "name": "price",
              "type": "uint256"
            },
            {
              "internalType": "uint256",
              "name": "stock",
              "type": "uint256"
            },
            {
              "internalType": "string[]",
              "name": "colors",
              "type": "string[]"
            },
            {
              "internalType": "string[]",
              "name": "sizes",
              "type": "string[]"
            },
            {
              "internalType": "string[]",
              "name": "images",
              "type": "string[]"
            },
            {
              "internalType": "uint256",
              "name": "categoryId",
              "type": "uint256"
            },
            {
              "internalType": "uint256",
              "name": "subCategoryId",
              "type": "uint256"
            },
            {
              "internalType": "uint256",
              "name": "weight",
              "type": "uint256"
            },
            {
              "internalType": "string",
              "name": "model",
              "type": "string"
            },
            {
              "internalType": "string",
              "name": "brand",
              "type": "string"
            },
            {
              "internalType": "uint256",
              "name": "sku",
              "type": "uint256"
            }
          ],
          "internalType": "struct HemShop.ProductInput",
          "name": "input",
          "type": "tuple"
        }
      ],
      "name": "createProduct",
      "outputs": [],
      "stateMutability": "nonpayable",
      "type": "function"
    },
    {
      "inputs": [
        {
          "internalType": "uint256",
          "name": "productId",
          "type": "uint256"
        },
        {
          "internalType": "uint256",
          "name": "rating",
          "type": "uint256"
        },
        {
          "internalType": "string",
          "name": "comment",
          "type": "string"
        }
      ],
      "name": "createReview",
      "outputs": [],
      "stateMutability": "nonpayable",
      "type": "function"
    },
    {
      "inputs": [
        {
          "internalType": "uint256",
          "name": "parentId",
          "type": "uint256"
        },
        {
          "internalType": "string[]",
          "name": "names",
          "type": "string[]"
        }
      ],
      "name": "createSubCategoriesBulk",
      "outputs": [],
      "stateMutability": "nonpayable",
      "type": "function"
    },
    {
      "inputs": [
        {
          "internalType": "uint256",
          "name": "_parentId",
          "type": "uint256"
        },
        {
          "internalType": "string",
          "name": "_name",
          "type": "string"
        }
      ],
      "name": "createSubCategory",
      "outputs": [],
      "stateMutability": "nonpayable",
      "type": "function"
    },
    {
      "inputs": [
        {
          "internalType": "uint256",
          "name": "_id",
          "type": "uint256"
        }
      ],
      "name": "deleteCategory",
      "outputs": [],
      "stateMutability": "nonpayable",
      "type": "function"
    },
    {
      "inputs": [
        {
          "internalType": "uint256",
          "name": "productId",
          "type": "uint256"
        }
      ],
      "name": "deleteProduct",
      "outputs": [],
      "stateMutability": "nonpayable",
      "type": "function"
    },
    {
      "inputs": [
        {
          "internalType": "uint256",
          "name": "productId",
          "type": "uint256"
        },
        {
          "internalType": "uint256",
          "name": "reviewId",
          "type": "uint256"
        }
      ],
      "name": "deleteReview",
      "outputs": [],
      "stateMutability": "nonpayable",
      "type": "function"
    },
    {
      "inputs": [
        {
          "internalType": "uint256",
          "name": "_id",
          "type": "uint256"
        }
      ],
      "name": "deleteSubCategory",
      "outputs": [],
      "stateMutability": "nonpayable",
      "type": "function"
    },
    {
      "inputs": [],
      "name": "getAllCategories",
      "outputs": [
        {
          "internalType": "uint256[]",
          "name": "ids",
          "type": "uint256[]"
        },
        {
          "internalType": "string[]",
          "name": "names",
          "type": "string[]"
        },
        {
          "internalType": "bool[]",
          "name": "activeStates",
          "type": "bool[]"
        },
        {
          "internalType": "uint256[][]",
          "name": "subCategoryIdArrays",
          "type": "uint256[][]"
        }
      ],
      "stateMutability": "view",
      "type": "function"
    },
    {
      "inputs": [],
      "name": "getAllProducts",
      "outputs": [
        {
          "components": [
            {
              "internalType": "uint256",
              "name": "id",
              "type": "uint256"
            },
            {
              "internalType": "address",
              "name": "seller",
              "type": "address"
            },
            {
              "internalType": "string",
              "name": "name",
              "type": "string"
            },
            {
              "internalType": "string",
              "name": "description",
              "type": "string"
            },
            {
              "internalType": "uint256",
              "name": "price",
              "type": "uint256"
            },
            {
              "internalType": "uint256",
              "name": "stock",
              "type": "uint256"
            },
            {
              "internalType": "string[]",
              "name": "colors",
              "type": "string[]"
            },
            {
              "internalType": "string[]",
              "name": "sizes",
              "type": "string[]"
            },
            {
              "internalType": "string[]",
              "name": "images",
              "type": "string[]"
            },
            {
              "internalType": "string",
              "name": "category",
              "type": "string"
            },
            {
              "internalType": "string",
              "name": "subCategory",
              "type": "string"
            },
            {
              "internalType": "uint256",
              "name": "weight",
              "type": "uint256"
            },
            {
              "internalType": "string",
              "name": "model",
              "type": "string"
            },
            {
              "internalType": "string",
              "name": "brand",
              "type": "string"
            },
            {
              "internalType": "uint256",
              "name": "sku",
              "type": "uint256"
            },
            {
              "internalType": "bool",
              "name": "soldout",
              "type": "bool"
            },
            {
              "internalType": "bool",
              "name": "wishlist",
              "type": "bool"
            },
            {
              "internalType": "bool",
              "name": "deleted",
              "type": "bool"
            },
            {
              "components": [
                {
                  "internalType": "uint256",
                  "name": "reviewId",
                  "type": "uint256"
                },
                {
                  "internalType": "address",
                  "name": "reviewer",
                  "type": "address"
                },
                {
                  "internalType": "uint256",
                  "name": "rating",
                  "type": "uint256"
                },
                {
                  "internalType": "string",
                  "name": "comment",
                  "type": "string"
                },
                {
                  "internalType": "bool",
                  "name": "deleted",
                  "type": "bool"
                },
                {
                  "internalType": "uint256",
                  "name": "timestamp",
                  "type": "uint256"
                }
              ],
              "internalType": "struct HemShop.ReviewStruct[]",
              "name": "reviews",
              "type": "tuple[]"
            }
          ],
          "internalType": "struct HemShop.ProductStruct[]",
          "name": "",
          "type": "tuple[]"
        }
      ],
      "stateMutability": "view",
      "type": "function"
    },
    {
      "inputs": [],
      "name": "getAllRegisteredSellers",
      "outputs": [
        {
          "internalType": "address[]",
          "name": "",
          "type": "address[]"
        }
      ],
      "stateMutability": "view",
      "type": "function"
    },
    {
      "inputs": [
        {
          "internalType": "uint256",
          "name": "tokenId",
          "type": "uint256"
        }
      ],
      "name": "getApproved",
      "outputs": [
        {
          "internalType": "address",
          "name": "",
          "type": "address"
        }
      ],
      "stateMutability": "view",
      "type": "function"
    },
    {
      "inputs": [
        {
          "internalType": "address",
          "name": "buyer",
          "type": "address"
        }
      ],
      "name": "getBuyerPurchaseHistory",
      "outputs": [
        {
          "components": [
            {
              "internalType": "uint256",
              "name": "productId",
              "type": "uint256"
            },
            {
              "internalType": "uint256",
              "name": "totalAmount",
              "type": "uint256"
            },
            {
              "internalType": "uint256",
              "name": "basePrice",
              "type": "uint256"
            },
            {
              "internalType": "uint256",
              "name": "timestamp",
              "type": "uint256"
            },
            {
              "internalType": "address",
              "name": "buyer",
              "type": "address"
            },
            {
              "internalType": "address",
              "name": "seller",
              "type": "address"
            },
            {
              "internalType": "bool",
              "name": "isDelivered",
              "type": "bool"
            },
            {
              "components": [
                {
                  "internalType": "string",
                  "name": "fullName",
                  "type": "string"
                },
                {
                  "internalType": "string",
                  "name": "streetAddress",
                  "type": "string"
                },
                {
                  "internalType": "string",
                  "name": "city",
                  "type": "string"
                },
                {
                  "internalType": "string",
                  "name": "state",
                  "type": "string"
                },
                {
                  "internalType": "string",
                  "name": "country",
                  "type": "string"
                },
                {
                  "internalType": "string",
                  "name": "postalCode",
                  "type": "string"
                },
                {
                  "internalType": "string",
                  "name": "phone",
                  "type": "string"
                },
                {
                  "internalType": "string",
                  "name": "email",
                  "type": "string"
                }
              ],
              "internalType": "struct HemShop.ShippingDetails",
              "name": "shippingDetails",
              "type": "tuple"
            }
          ],
          "internalType": "struct HemShop.PurchaseHistoryStruct[]",
          "name": "",
          "type": "tuple[]"
        }
      ],
      "stateMutability": "view",
      "type": "function"
    },
    {
      "inputs": [
        {
          "internalType": "uint256",
          "name": "_id",
          "type": "uint256"
        }
      ],
      "name": "getCategory",
      "outputs": [
        {
          "internalType": "uint256",
          "name": "id",
          "type": "uint256"
        },
        {
          "internalType": "string",
          "name": "name",
          "type": "string"
        },
        {
          "internalType": "bool",
          "name": "isActive",
          "type": "bool"
        },
        {
          "internalType": "uint256[]",
          "name": "subCategoryIds",
          "type": "uint256[]"
        }
      ],
      "stateMutability": "view",
      "type": "function"
    },
    {
      "inputs": [],
      "name": "getMyProducts",
      "outputs": [
        {
          "components": [
            {
              "internalType": "uint256",
              "name": "id",
              "type": "uint256"
            },
            {
              "internalType": "address",
              "name": "seller",
              "type": "address"
            },
            {
              "internalType": "string",
              "name": "name",
              "type": "string"
            },
            {
              "internalType": "string",
              "name": "description",
              "type": "string"
            },
            {
              "internalType": "uint256",
              "name": "price",
              "type": "uint256"
            },
            {
              "internalType": "uint256",
              "name": "stock",
              "type": "uint256"
            },
            {
              "internalType": "string[]",
              "name": "colors",
              "type": "string[]"
            },
            {
              "internalType": "string[]",
              "name": "sizes",
              "type": "string[]"
            },
            {
              "internalType": "string[]",
              "name": "images",
              "type": "string[]"
            },
            {
              "internalType": "string",
              "name": "category",
              "type": "string"
            },
            {
              "internalType": "string",
              "name": "subCategory",
              "type": "string"
            },
            {
              "internalType": "uint256",
              "name": "weight",
              "type": "uint256"
            },
            {
              "internalType": "string",
              "name": "model",
              "type": "string"
            },
            {
              "internalType": "string",
              "name": "brand",
              "type": "string"
            },
            {
              "internalType": "uint256",
              "name": "sku",
              "type": "uint256"
            },
            {
              "internalType": "bool",
              "name": "soldout",
              "type": "bool"
            },
            {
              "internalType": "bool",
              "name": "wishlist",
              "type": "bool"
            },
            {
              "internalType": "bool",
              "name": "deleted",
              "type": "bool"
            },
            {
              "components": [
                {
                  "internalType": "uint256",
                  "name": "reviewId",
                  "type": "uint256"
                },
                {
                  "internalType": "address",
                  "name": "reviewer",
                  "type": "address"
                },
                {
                  "internalType": "uint256",
                  "name": "rating",
                  "type": "uint256"
                },
                {
                  "internalType": "string",
                  "name": "comment",
                  "type": "string"
                },
                {
                  "internalType": "bool",
                  "name": "deleted",
                  "type": "bool"
                },
                {
                  "internalType": "uint256",
                  "name": "timestamp",
                  "type": "uint256"
                }
              ],
              "internalType": "struct HemShop.ReviewStruct[]",
              "name": "reviews",
              "type": "tuple[]"
            }
          ],
          "internalType": "struct HemShop.ProductStruct[]",
          "name": "",
          "type": "tuple[]"
        }
      ],
      "stateMutability": "view",
      "type": "function"
    },
    {
      "inputs": [
        {
          "internalType": "uint256",
          "name": "productId",
          "type": "uint256"
        }
      ],
      "name": "getProduct",
      "outputs": [
        {
          "components": [
            {
              "internalType": "uint256",
              "name": "id",
              "type": "uint256"
            },
            {
              "internalType": "address",
              "name": "seller",
              "type": "address"
            },
            {
              "internalType": "string",
              "name": "name",
              "type": "string"
            },
            {
              "internalType": "string",
              "name": "description",
              "type": "string"
            },
            {
              "internalType": "uint256",
              "name": "price",
              "type": "uint256"
            },
            {
              "internalType": "uint256",
              "name": "stock",
              "type": "uint256"
            },
            {
              "internalType": "string[]",
              "name": "colors",
              "type": "string[]"
            },
            {
              "internalType": "string[]",
              "name": "sizes",
              "type": "string[]"
            },
            {
              "internalType": "string[]",
              "name": "images",
              "type": "string[]"
            },
            {
              "internalType": "string",
              "name": "category",
              "type": "string"
            },
            {
              "internalType": "string",
              "name": "subCategory",
              "type": "string"
            },
            {
              "internalType": "uint256",
              "name": "weight",
              "type": "uint256"
            },
            {
              "internalType": "string",
              "name": "model",
              "type": "string"
            },
            {
              "internalType": "string",
              "name": "brand",
              "type": "string"
            },
            {
              "internalType": "uint256",
              "name": "sku",
              "type": "uint256"
            },
            {
              "internalType": "bool",
              "name": "soldout",
              "type": "bool"
            },
            {
              "internalType": "bool",
              "name": "wishlist",
              "type": "bool"
            },
            {
              "internalType": "bool",
              "name": "deleted",
              "type": "bool"
            },
            {
              "components": [
                {
                  "internalType": "uint256",
                  "name": "reviewId",
                  "type": "uint256"
                },
                {
                  "internalType": "address",
                  "name": "reviewer",
                  "type": "address"
                },
                {
                  "internalType": "uint256",
                  "name": "rating",
                  "type": "uint256"
                },
                {
                  "internalType": "string",
                  "name": "comment",
                  "type": "string"
                },
                {
                  "internalType": "bool",
                  "name": "deleted",
                  "type": "bool"
                },
                {
                  "internalType": "uint256",
                  "name": "timestamp",
                  "type": "uint256"
                }
              ],
              "internalType": "struct HemShop.ReviewStruct[]",
              "name": "reviews",
              "type": "tuple[]"
            }
          ],
          "internalType": "struct HemShop.ProductStruct",
          "name": "",
          "type": "tuple"
        }
      ],
      "stateMutability": "view",
      "type": "function"
    },
    {
      "inputs": [
        {
          "internalType": "string",
          "name": "categoryName",
          "type": "string"
        }
      ],
      "name": "getProductsByCategory",
      "outputs": [
        {
          "components": [
            {
              "internalType": "uint256",
              "name": "id",
              "type": "uint256"
            },
            {
              "internalType": "address",
              "name": "seller",
              "type": "address"
            },
            {
              "internalType": "string",
              "name": "name",
              "type": "string"
            },
            {
              "internalType": "string",
              "name": "description",
              "type": "string"
            },
            {
              "internalType": "uint256",
              "name": "price",
              "type": "uint256"
            },
            {
              "internalType": "uint256",
              "name": "stock",
              "type": "uint256"
            },
            {
              "internalType": "string[]",
              "name": "colors",
              "type": "string[]"
            },
            {
              "internalType": "string[]",
              "name": "sizes",
              "type": "string[]"
            },
            {
              "internalType": "string[]",
              "name": "images",
              "type": "string[]"
            },
            {
              "internalType": "string",
              "name": "category",
              "type": "string"
            },
            {
              "internalType": "string",
              "name": "subCategory",
              "type": "string"
            },
            {
              "internalType": "uint256",
              "name": "weight",
              "type": "uint256"
            },
            {
              "internalType": "string",
              "name": "model",
              "type": "string"
            },
            {
              "internalType": "string",
              "name": "brand",
              "type": "string"
            },
            {
              "internalType": "uint256",
              "name": "sku",
              "type": "uint256"
            },
            {
              "internalType": "bool",
              "name": "soldout",
              "type": "bool"
            },
            {
              "internalType": "bool",
              "name": "wishlist",
              "type": "bool"
            },
            {
              "internalType": "bool",
              "name": "deleted",
              "type": "bool"
            },
            {
              "components": [
                {
                  "internalType": "uint256",
                  "name": "reviewId",
                  "type": "uint256"
                },
                {
                  "internalType": "address",
                  "name": "reviewer",
                  "type": "address"
                },
                {
                  "internalType": "uint256",
                  "name": "rating",
                  "type": "uint256"
                },
                {
                  "internalType": "string",
                  "name": "comment",
                  "type": "string"
                },
                {
                  "internalType": "bool",
                  "name": "deleted",
                  "type": "bool"
                },
                {
                  "internalType": "uint256",
                  "name": "timestamp",
                  "type": "uint256"
                }
              ],
              "internalType": "struct HemShop.ReviewStruct[]",
              "name": "reviews",
              "type": "tuple[]"
            }
          ],
          "internalType": "struct HemShop.ProductStruct[]",
          "name": "",
          "type": "tuple[]"
        }
      ],
      "stateMutability": "view",
      "type": "function"
    },
    {
      "inputs": [
        {
          "internalType": "uint256",
          "name": "productId",
          "type": "uint256"
        }
      ],
      "name": "getReviews",
      "outputs": [
        {
          "components": [
            {
              "internalType": "uint256",
              "name": "reviewId",
              "type": "uint256"
            },
            {
              "internalType": "address",
              "name": "reviewer",
              "type": "address"
            },
            {
              "internalType": "uint256",
              "name": "rating",
              "type": "uint256"
            },
            {
              "internalType": "string",
              "name": "comment",
              "type": "string"
            },
            {
              "internalType": "bool",
              "name": "deleted",
              "type": "bool"
            },
            {
              "internalType": "uint256",
              "name": "timestamp",
              "type": "uint256"
            }
          ],
          "internalType": "struct HemShop.ReviewStruct[]",
          "name": "",
          "type": "tuple[]"
        }
      ],
      "stateMutability": "view",
      "type": "function"
    },
    {
      "inputs": [
        {
          "internalType": "address",
          "name": "seller",
          "type": "address"
        }
      ],
      "name": "getSeller",
      "outputs": [
        {
          "components": [
            {
              "internalType": "string",
              "name": "businessName",
              "type": "string"
            },
            {
              "internalType": "string",
              "name": "description",
              "type": "string"
            },
            {
              "internalType": "string",
              "name": "email",
              "type": "string"
            },
            {
              "internalType": "string",
              "name": "phone",
              "type": "string"
            },
            {
              "internalType": "string",
              "name": "logo",
              "type": "string"
            },
            {
              "internalType": "uint256",
              "name": "registeredAt",
              "type": "uint256"
            },
            {
              "internalType": "bool",
              "name": "termsAccepted",
              "type": "bool"
            }
          ],
          "internalType": "struct HemShop.SellerProfile",
          "name": "profile",
          "type": "tuple"
        },
        {
          "internalType": "enum HemShop.SellerStatus",
          "name": "status",
          "type": "uint8"
        },
        {
          "internalType": "uint256",
          "name": "balance",
          "type": "uint256"
        },
        {
          "internalType": "uint256[]",
          "name": "productIds",
          "type": "uint256[]"
        }
      ],
      "stateMutability": "view",
      "type": "function"
    },
    {
      "inputs": [
        {
          "internalType": "address",
          "name": "seller",
          "type": "address"
        }
      ],
      "name": "getSellerBalance",
      "outputs": [
        {
          "internalType": "uint256",
          "name": "",
          "type": "uint256"
        }
      ],
      "stateMutability": "view",
      "type": "function"
    },
    {
      "inputs": [
        {
          "internalType": "address",
          "name": "seller",
          "type": "address"
        }
      ],
      "name": "getSellerProducts",
      "outputs": [
        {
          "components": [
            {
              "internalType": "uint256",
              "name": "id",
              "type": "uint256"
            },
            {
              "internalType": "address",
              "name": "seller",
              "type": "address"
            },
            {
              "internalType": "string",
              "name": "name",
              "type": "string"
            },
            {
              "internalType": "string",
              "name": "description",
              "type": "string"
            },
            {
              "internalType": "uint256",
              "name": "price",
              "type": "uint256"
            },
            {
              "internalType": "uint256",
              "name": "stock",
              "type": "uint256"
            },
            {
              "internalType": "string[]",
              "name": "colors",
              "type": "string[]"
            },
            {
              "internalType": "string[]",
              "name": "sizes",
              "type": "string[]"
            },
            {
              "internalType": "string[]",
              "name": "images",
              "type": "string[]"
            },
            {
              "internalType": "string",
              "name": "category",
              "type": "string"
            },
            {
              "internalType": "string",
              "name": "subCategory",
              "type": "string"
            },
            {
              "internalType": "uint256",
              "name": "weight",
              "type": "uint256"
            },
            {
              "internalType": "string",
              "name": "model",
              "type": "string"
            },
            {
              "internalType": "string",
              "name": "brand",
              "type": "string"
            },
            {
              "internalType": "uint256",
              "name": "sku",
              "type": "uint256"
            },
            {
              "internalType": "bool",
              "name": "soldout",
              "type": "bool"
            },
            {
              "internalType": "bool",
              "name": "wishlist",
              "type": "bool"
            },
            {
              "internalType": "bool",
              "name": "deleted",
              "type": "bool"
            },
            {
              "components": [
                {
                  "internalType": "uint256",
                  "name": "reviewId",
                  "type": "uint256"
                },
                {
                  "internalType": "address",
                  "name": "reviewer",
                  "type": "address"
                },
                {
                  "internalType": "uint256",
                  "name": "rating",
                  "type": "uint256"
                },
                {
                  "internalType": "string",
                  "name": "comment",
                  "type": "string"
                },
                {
                  "internalType": "bool",
                  "name": "deleted",
                  "type": "bool"
                },
                {
                  "internalType": "uint256",
                  "name": "timestamp",
                  "type": "uint256"
                }
              ],
              "internalType": "struct HemShop.ReviewStruct[]",
              "name": "reviews",
              "type": "tuple[]"
            }
          ],
          "internalType": "struct HemShop.ProductStruct[]",
          "name": "",
          "type": "tuple[]"
        }
      ],
      "stateMutability": "view",
      "type": "function"
    },
    {
      "inputs": [
        {
          "internalType": "address",
          "name": "seller",
          "type": "address"
        }
      ],
      "name": "getSellerProfile",
      "outputs": [
        {
          "components": [
            {
              "internalType": "string",
              "name": "businessName",
              "type": "string"
            },
            {
              "internalType": "string",
              "name": "description",
              "type": "string"
            },
            {
              "internalType": "string",
              "name": "email",
              "type": "string"
            },
            {
              "internalType": "string",
              "name": "phone",
              "type": "string"
            },
            {
              "internalType": "string",
              "name": "logo",
              "type": "string"
            },
            {
              "internalType": "uint256",
              "name": "registeredAt",
              "type": "uint256"
            },
            {
              "internalType": "bool",
              "name": "termsAccepted",
              "type": "bool"
            }
          ],
          "internalType": "struct HemShop.SellerProfile",
          "name": "",
          "type": "tuple"
        }
      ],
      "stateMutability": "view",
      "type": "function"
    },
    {
      "inputs": [
        {
          "internalType": "address",
          "name": "seller",
          "type": "address"
        }
      ],
      "name": "getSellerPurchaseHistory",
      "outputs": [
        {
          "components": [
            {
              "internalType": "uint256",
              "name": "productId",
              "type": "uint256"
            },
            {
              "internalType": "uint256",
              "name": "totalAmount",
              "type": "uint256"
            },
            {
              "internalType": "uint256",
              "name": "basePrice",
              "type": "uint256"
            },
            {
              "internalType": "uint256",
              "name": "timestamp",
              "type": "uint256"
            },
            {
              "internalType": "address",
              "name": "buyer",
              "type": "address"
            },
            {
              "internalType": "address",
              "name": "seller",
              "type": "address"
            },
            {
              "internalType": "bool",
              "name": "isDelivered",
              "type": "bool"
            },
            {
              "components": [
                {
                  "internalType": "string",
                  "name": "fullName",
                  "type": "string"
                },
                {
                  "internalType": "string",
                  "name": "streetAddress",
                  "type": "string"
                },
                {
                  "internalType": "string",
                  "name": "city",
                  "type": "string"
                },
                {
                  "internalType": "string",
                  "name": "state",
                  "type": "string"
                },
                {
                  "internalType": "string",
                  "name": "country",
                  "type": "string"
                },
                {
                  "internalType": "string",
                  "name": "postalCode",
                  "type": "string"
                },
                {
                  "internalType": "string",
                  "name": "phone",
                  "type": "string"
                },
                {
                  "internalType": "string",
                  "name": "email",
                  "type": "string"
                }
              ],
              "internalType": "struct HemShop.ShippingDetails",
              "name": "shippingDetails",
              "type": "tuple"
            }
          ],
          "internalType": "struct HemShop.PurchaseHistoryStruct[]",
          "name": "",
          "type": "tuple[]"
        }
      ],
      "stateMutability": "view",
      "type": "function"
    },
    {
      "inputs": [
        {
          "internalType": "address",
          "name": "seller",
          "type": "address"
        }
      ],
      "name": "getSellerStatus",
      "outputs": [
        {
          "internalType": "enum HemShop.SellerStatus",
          "name": "",
          "type": "uint8"
        }
      ],
      "stateMutability": "view",
      "type": "function"
    },
    {
      "inputs": [
        {
          "internalType": "uint256",
          "name": "_id",
          "type": "uint256"
        }
      ],
      "name": "getSubCategory",
      "outputs": [
        {
          "internalType": "uint256",
          "name": "id",
          "type": "uint256"
        },
        {
          "internalType": "string",
          "name": "name",
          "type": "string"
        },
        {
          "internalType": "uint256",
          "name": "parentCategoryId",
          "type": "uint256"
        },
        {
          "internalType": "bool",
          "name": "isActive",
          "type": "bool"
        }
      ],
      "stateMutability": "view",
      "type": "function"
    },
    {
      "inputs": [
        {
          "internalType": "address",
          "name": "user",
          "type": "address"
        }
      ],
      "name": "getUser",
      "outputs": [
        {
          "internalType": "bool",
          "name": "isRegistered",
          "type": "bool"
        },
        {
          "components": [
            {
              "internalType": "string",
              "name": "name",
              "type": "string"
            },
            {
              "internalType": "string",
              "name": "email",
              "type": "string"
            },
            {
              "internalType": "string",
              "name": "avatar",
              "type": "string"
            },
            {
              "internalType": "uint256",
              "name": "registeredAt",
              "type": "uint256"
            },
            {
              "internalType": "bool",
              "name": "isActive",
              "type": "bool"
            }
          ],
          "internalType": "struct HemShop.UserProfile",
          "name": "profile",
          "type": "tuple"
        },
        {
          "internalType": "bool",
          "name": "isUserSeller",
          "type": "bool"
        },
        {
          "internalType": "enum HemShop.SellerStatus",
          "name": "sellerState",
          "type": "uint8"
        }
      ],
      "stateMutability": "view",
      "type": "function"
    },
    {
      "inputs": [
        {
          "internalType": "address",
          "name": "account",
          "type": "address"
        }
      ],
      "name": "impersonateAccount",
      "outputs": [],
      "stateMutability": "nonpayable",
      "type": "function"
    },
    {
      "inputs": [
        {
          "internalType": "address",
          "name": "owner",
          "type": "address"
        },
        {
          "internalType": "address",
          "name": "operator",
          "type": "address"
        }
      ],
      "name": "isApprovedForAll",
      "outputs": [
        {
          "internalType": "bool",
          "name": "",
          "type": "bool"
        }
      ],
      "stateMutability": "view",
      "type": "function"
    },
    {
      "inputs": [
        {
          "internalType": "uint256",
          "name": "productId",
          "type": "uint256"
        },
        {
          "internalType": "address",
          "name": "buyer",
          "type": "address"
        }
      ],
      "name": "markPurchaseDelivered",
      "outputs": [],
      "stateMutability": "nonpayable",
      "type": "function"
    },
    {
      "inputs": [],
      "name": "name",
      "outputs": [
        {
          "internalType": "string",
          "name": "",
          "type": "string"
        }
      ],
      "stateMutability": "view",
      "type": "function"
    },
    {
      "inputs": [],
      "name": "owner",
      "outputs": [
        {
          "internalType": "address",
          "name": "",
          "type": "address"
        }
      ],
      "stateMutability": "view",
      "type": "function"
    },
    {
      "inputs": [
        {
          "internalType": "uint256",
          "name": "tokenId",
          "type": "uint256"
        }
      ],
      "name": "ownerOf",
      "outputs": [
        {
          "internalType": "address",
          "name": "",
          "type": "address"
        }
      ],
      "stateMutability": "view",
      "type": "function"
    },
    {
      "inputs": [
        {
          "internalType": "uint256",
          "name": "",
          "type": "uint256"
        }
      ],
      "name": "productExists",
      "outputs": [
        {
          "internalType": "bool",
          "name": "",
          "type": "bool"
        }
      ],
      "stateMutability": "view",
      "type": "function"
    },
    {
      "inputs": [
        {
          "internalType": "uint256",
          "name": "",
          "type": "uint256"
        }
      ],
      "name": "products",
      "outputs": [
        {
          "internalType": "uint256",
          "name": "id",
          "type": "uint256"
        },
        {
          "internalType": "address",
          "name": "seller",
          "type": "address"
        },
        {
          "internalType": "string",
          "name": "name",
          "type": "string"
        },
        {
          "internalType": "string",
          "name": "description",
          "type": "string"
        },
        {
          "internalType": "uint256",
          "name": "price",
          "type": "uint256"
        },
        {
          "internalType": "uint256",
          "name": "stock",
          "type": "uint256"
        },
        {
          "internalType": "string",
          "name": "category",
          "type": "string"
        },
        {
          "internalType": "string",
          "name": "subCategory",
          "type": "string"
        },
        {
          "internalType": "uint256",
          "name": "weight",
          "type": "uint256"
        },
        {
          "internalType": "string",
          "name": "model",
          "type": "string"
        },
        {
          "internalType": "string",
          "name": "brand",
          "type": "string"
        },
        {
          "internalType": "uint256",
          "name": "sku",
          "type": "uint256"
        },
        {
          "internalType": "bool",
          "name": "soldout",
          "type": "bool"
        },
        {
          "internalType": "bool",
          "name": "wishlist",
          "type": "bool"
        },
        {
          "internalType": "bool",
          "name": "deleted",
          "type": "bool"
        }
      ],
      "stateMutability": "view",
      "type": "function"
    },
    {
      "inputs": [
        {
          "internalType": "string",
          "name": "businessName",
          "type": "string"
        },
        {
          "internalType": "string",
          "name": "description",
          "type": "string"
        },
        {
          "internalType": "string",
          "name": "email",
          "type": "string"
        },
        {
          "internalType": "string",
          "name": "phone",
          "type": "string"
        },
        {
          "internalType": "string",
          "name": "logo",
          "type": "string"
        }
      ],
      "name": "registerSeller",
      "outputs": [],
      "stateMutability": "nonpayable",
      "type": "function"
    },
    {
      "inputs": [
        {
          "internalType": "string",
          "name": "name",
          "type": "string"
        },
        {
          "internalType": "string",
          "name": "email",
          "type": "string"
        },
        {
          "internalType": "string",
          "name": "avatar",
          "type": "string"
        }
      ],
      "name": "registerUser",
      "outputs": [],
      "stateMutability": "nonpayable",
      "type": "function"
    },
    {
      "inputs": [
        {
          "internalType": "address",
          "name": "",
          "type": "address"
        }
      ],
      "name": "registeredSellers",
      "outputs": [
        {
          "internalType": "bool",
          "name": "",
          "type": "bool"
        }
      ],
      "stateMutability": "view",
      "type": "function"
    },
    {
      "inputs": [
        {
          "internalType": "address",
          "name": "",
          "type": "address"
        }
      ],
      "name": "registeredUsers",
      "outputs": [
        {
          "internalType": "bool",
          "name": "",
          "type": "bool"
        }
      ],
      "stateMutability": "view",
      "type": "function"
    },
    {
      "inputs": [],
      "name": "renounceOwnership",
      "outputs": [],
      "stateMutability": "nonpayable",
      "type": "function"
    },
    {
      "inputs": [
        {
          "internalType": "uint256",
          "name": "",
          "type": "uint256"
        }
      ],
      "name": "reviewExists",
      "outputs": [
        {
          "internalType": "bool",
          "name": "",
          "type": "bool"
        }
      ],
      "stateMutability": "view",
      "type": "function"
    },
    {
      "inputs": [
        {
          "internalType": "address",
          "name": "from",
          "type": "address"
        },
        {
          "internalType": "address",
          "name": "to",
          "type": "address"
        },
        {
          "internalType": "uint256",
          "name": "tokenId",
          "type": "uint256"
        }
      ],
      "name": "safeTransferFrom",
      "outputs": [],
      "stateMutability": "nonpayable",
      "type": "function"
    },
    {
      "inputs": [
        {
          "internalType": "address",
          "name": "from",
          "type": "address"
        },
        {
          "internalType": "address",
          "name": "to",
          "type": "address"
        },
        {
          "internalType": "uint256",
          "name": "tokenId",
          "type": "uint256"
        },
        {
          "internalType": "bytes",
          "name": "data",
          "type": "bytes"
        }
      ],
      "name": "safeTransferFrom",
      "outputs": [],
      "stateMutability": "nonpayable",
      "type": "function"
    },
    {
      "inputs": [
        {
          "internalType": "address",
          "name": "",
          "type": "address"
        }
      ],
      "name": "sellerBalances",
      "outputs": [
        {
          "internalType": "uint256",
          "name": "",
          "type": "uint256"
        }
      ],
      "stateMutability": "view",
      "type": "function"
    },
    {
      "inputs": [
        {
          "internalType": "address",
          "name": "",
          "type": "address"
        },
        {
          "internalType": "uint256",
          "name": "",
          "type": "uint256"
        }
      ],
      "name": "sellerProducts",
      "outputs": [
        {
          "internalType": "uint256",
          "name": "",
          "type": "uint256"
        }
      ],
      "stateMutability": "view",
      "type": "function"
    },
    {
      "inputs": [
        {
          "internalType": "address",
          "name": "",
          "type": "address"
        }
      ],
      "name": "sellerProfiles",
      "outputs": [
        {
          "internalType": "string",
          "name": "businessName",
          "type": "string"
        },
        {
          "internalType": "string",
          "name": "description",
          "type": "string"
        },
        {
          "internalType": "string",
          "name": "email",
          "type": "string"
        },
        {
          "internalType": "string",
          "name": "phone",
          "type": "string"
        },
        {
          "internalType": "string",
          "name": "logo",
          "type": "string"
        },
        {
          "internalType": "uint256",
          "name": "registeredAt",
          "type": "uint256"
        },
        {
          "internalType": "bool",
          "name": "termsAccepted",
          "type": "bool"
        }
      ],
      "stateMutability": "view",
      "type": "function"
    },
    {
      "inputs": [
        {
          "internalType": "address",
          "name": "",
          "type": "address"
        },
        {
          "internalType": "uint256",
          "name": "",
          "type": "uint256"
        }
      ],
      "name": "sellerPurchaseHistory",
      "outputs": [
        {
          "internalType": "uint256",
          "name": "productId",
          "type": "uint256"
        },
        {
          "internalType": "uint256",
          "name": "totalAmount",
          "type": "uint256"
        },
        {
          "internalType": "uint256",
          "name": "basePrice",
          "type": "uint256"
        },
        {
          "internalType": "uint256",
          "name": "timestamp",
          "type": "uint256"
        },
        {
          "internalType": "address",
          "name": "buyer",
          "type": "address"
        },
        {
          "internalType": "address",
          "name": "seller",
          "type": "address"
        },
        {
          "internalType": "bool",
          "name": "isDelivered",
          "type": "bool"
        },
        {
          "components": [
            {
              "internalType": "string",
              "name": "fullName",
              "type": "string"
            },
            {
              "internalType": "string",
              "name": "streetAddress",
              "type": "string"
            },
            {
              "internalType": "string",
              "name": "city",
              "type": "string"
            },
            {
              "internalType": "string",
              "name": "state",
              "type": "string"
            },
            {
              "internalType": "string",
              "name": "country",
              "type": "string"
            },
            {
              "internalType": "string",
              "name": "postalCode",
              "type": "string"
            },
            {
              "internalType": "string",
              "name": "phone",
              "type": "string"
            },
            {
              "internalType": "string",
              "name": "email",
              "type": "string"
            }
          ],
          "internalType": "struct HemShop.ShippingDetails",
          "name": "shippingDetails",
          "type": "tuple"
        }
      ],
      "stateMutability": "view",
      "type": "function"
    },
    {
      "inputs": [
        {
          "internalType": "address",
          "name": "",
          "type": "address"
        }
      ],
      "name": "sellerStatus",
      "outputs": [
        {
          "internalType": "enum HemShop.SellerStatus",
          "name": "",
          "type": "uint8"
        }
      ],
      "stateMutability": "view",
      "type": "function"
    },
    {
      "inputs": [],
      "name": "servicePct",
      "outputs": [
        {
          "internalType": "uint256",
          "name": "",
          "type": "uint256"
        }
      ],
      "stateMutability": "view",
      "type": "function"
    },
    {
      "inputs": [
        {
          "internalType": "address",
          "name": "operator",
          "type": "address"
        },
        {
          "internalType": "bool",
          "name": "approved",
          "type": "bool"
        }
      ],
      "name": "setApprovalForAll",
      "outputs": [],
      "stateMutability": "nonpayable",
      "type": "function"
    },
    {
      "inputs": [],
      "name": "stopImpersonating",
      "outputs": [],
      "stateMutability": "nonpayable",
      "type": "function"
    },
    {
      "inputs": [
        {
          "internalType": "bytes4",
          "name": "interfaceId",
          "type": "bytes4"
        }
      ],
      "name": "supportsInterface",
      "outputs": [
        {
          "internalType": "bool",
          "name": "",
          "type": "bool"
        }
      ],
      "stateMutability": "view",
      "type": "function"
    },
    {
      "inputs": [],
      "name": "symbol",
      "outputs": [
        {
          "internalType": "string",
          "name": "",
          "type": "string"
        }
      ],
      "stateMutability": "view",
      "type": "function"
    },
    {
      "inputs": [
        {
          "internalType": "uint256",
          "name": "tokenId",
          "type": "uint256"
        }
      ],
      "name": "tokenURI",
      "outputs": [
        {
          "internalType": "string",
          "name": "",
          "type": "string"
        }
      ],
      "stateMutability": "view",
      "type": "function"
    },
    {
      "inputs": [
        {
          "internalType": "address",
          "name": "from",
          "type": "address"
        },
        {
          "internalType": "address",
          "name": "to",
          "type": "address"
        },
        {
          "internalType": "uint256",
          "name": "tokenId",
          "type": "uint256"
        }
      ],
      "name": "transferFrom",
      "outputs": [],
      "stateMutability": "nonpayable",
      "type": "function"
    },
    {
      "inputs": [
        {
          "internalType": "address",
          "name": "newOwner",
          "type": "address"
        }
      ],
      "name": "transferOwnership",
      "outputs": [],
      "stateMutability": "nonpayable",
      "type": "function"
    },
    {
      "inputs": [
        {
          "internalType": "uint256",
          "name": "_id",
          "type": "uint256"
        },
        {
          "internalType": "string",
          "name": "_name",
          "type": "string"
        },
        {
          "internalType": "bool",
          "name": "_isActive",
          "type": "bool"
        }
      ],
      "name": "updateCategory",
      "outputs": [],
      "stateMutability": "nonpayable",
      "type": "function"
    },
    {
      "inputs": [
        {
          "internalType": "uint256",
          "name": "productId",
          "type": "uint256"
        },
        {
          "components": [
            {
              "internalType": "string",
              "name": "name",
              "type": "string"
            },
            {
              "internalType": "string",
              "name": "description",
              "type": "string"
            },
            {
              "internalType": "uint256",
              "name": "price",
              "type": "uint256"
            },
            {
              "internalType": "uint256",
              "name": "stock",
              "type": "uint256"
            },
            {
              "internalType": "string[]",
              "name": "colors",
              "type": "string[]"
            },
            {
              "internalType": "string[]",
              "name": "sizes",
              "type": "string[]"
            },
            {
              "internalType": "string[]",
              "name": "images",
              "type": "string[]"
            },
            {
              "internalType": "uint256",
              "name": "categoryId",
              "type": "uint256"
            },
            {
              "internalType": "uint256",
              "name": "subCategoryId",
              "type": "uint256"
            },
            {
              "internalType": "uint256",
              "name": "weight",
              "type": "uint256"
            },
            {
              "internalType": "string",
              "name": "model",
              "type": "string"
            },
            {
              "internalType": "string",
              "name": "brand",
              "type": "string"
            },
            {
              "internalType": "uint256",
              "name": "sku",
              "type": "uint256"
            }
          ],
          "internalType": "struct HemShop.ProductInput",
          "name": "input",
          "type": "tuple"
        }
      ],
      "name": "updateProduct",
      "outputs": [],
      "stateMutability": "nonpayable",
      "type": "function"
    },
    {
      "inputs": [
        {
          "internalType": "address",
          "name": "seller",
          "type": "address"
        },
        {
          "internalType": "enum HemShop.SellerStatus",
          "name": "newStatus",
          "type": "uint8"
        }
      ],
      "name": "updateSellerStatus",
      "outputs": [],
      "stateMutability": "nonpayable",
      "type": "function"
    },
    {
      "inputs": [
        {
          "internalType": "uint256",
          "name": "_id",
          "type": "uint256"
        },
        {
          "internalType": "string",
          "name": "_name",
          "type": "string"
        },
        {
          "internalType": "bool",
          "name": "_isActive",
          "type": "bool"
        }
      ],
      "name": "updateSubCategory",
      "outputs": [],
      "stateMutability": "nonpayable",
      "type": "function"
    },
    {
      "inputs": [
        {
          "internalType": "address",
          "name": "",
          "type": "address"
        }
      ],
      "name": "userProfiles",
      "outputs": [
        {
          "internalType": "string",
          "name": "name",
          "type": "string"
        },
        {
          "internalType": "string",
          "name": "email",
          "type": "string"
        },
        {
          "internalType": "string",
          "name": "avatar",
          "type": "string"
        },
        {
          "internalType": "uint256",
          "name": "registeredAt",
          "type": "uint256"
        },
        {
          "internalType": "bool",
          "name": "isActive",
          "type": "bool"
        }
      ],
      "stateMutability": "view",
      "type": "function"
    },
    {
      "inputs": [
        {
          "internalType": "uint256",
          "name": "",
          "type": "uint256"
        }
      ],
      "name": "usersList",
      "outputs": [
        {
          "internalType": "address",
          "name": "",
          "type": "address"
        }
      ],
      "stateMutability": "view",
      "type": "function"
    },
    {
      "inputs": [],
      "name": "withdraw",
      "outputs": [],
      "stateMutability": "nonpayable",
      "type": "function"
    }
  ],
  "bytecode": "0x6080346200037757601f90601f196001600160401b03620097dc3881900385810184168501838111868210176200037c57859282916040528339602094859181010312620003775751936200005362000392565b926007845266048656d53686f760cc1b858501526200007162000392565b60038082526204873760ec1b8783015260008054336001600160a01b031982168117835592989394919392906001600160a01b03167f8be0079c531659141344cd1fd0a4f28419497f9722a3daafe3b4186f6b6457e08580a360019687805580519087821162000363576002548981811c9116801562000358575b858210146200034457908188849311620002f0575b5084908883116001146200028e57869262000282575b5050600019828b1b1c191690881b176002555b83519586116200026e5787548781811c9116801562000263575b838210146200024f5785811162000207575b5081948611600114620001a25750509183949184939462000196575b50501b9160001990841b1c19161790555b600d556040516194299081620003b38239f35b01519250388062000172565b8783528183209493928692918316915b88838310620001ec5750505010620001d3575b505050811b01905562000183565b015160001983861b60f8161c19169055388080620001c5565b858701518855909601959485019487935090810190620001b2565b8884528284208680890160051c820192858a1062000245575b0160051c019088905b8281106200023957505062000156565b85815501889062000229565b9250819262000220565b634e487b7160e01b84526022600452602484fd5b90607f169062000144565b634e487b7160e01b83526041600452602483fd5b01519050388062000117565b90848b9416916002885286882092885b88828210620002d95750508411620002c0575b505050811b016002556200012a565b0151600019838d1b60f8161c19169055388080620002b1565b8385015186558e979095019493840193016200029e565b909150600286528486208880850160051c8201928786106200033a575b918c91869594930160051c01915b8281106200032b57505062000101565b8881558594508c91016200031b565b925081926200030d565b634e487b7160e01b86526022600452602486fd5b90607f1690620000ec565b634e487b7160e01b85526041600452602485fd5b600080fd5b634e487b7160e01b600052604160045260246000fd5b60408051919082016001600160401b038111838210176200037c5760405256fe608080604052600436101561001357600080fd5b60003560e01c908162d64e7614616bc15750806301ffc9a714616b5357806302ee3a52146168d857806306fdde0314616833578063081812fc14616815578063095ea7b31461669b5780630e50cee51461665c57806311aa5b34146166385780631385fd92146165e457806316d81b381461640157806317e98548146163895780632148893f14615a1157806323b872dd1461636057806324d41a031461613d578063317a082714615ff6578063332d56d714615f355780633c2575d514615e505780633ccfd60b14615d0e57806342842e0e14615ce65780634293e5ce14615be457806345de84db14615ba2578063502aa3b514615b595780635ad6a58014615aae5780635be2095914615a4b578063607eb4e414615a115780636352211e146159e1578063661e1712146152b957806366224d8e146151635780636f2c8599146150b85780636f77926b14614f3557806370a0823114614e9e578063715018a614614e575780637acc0b2014614c985780637d3978db14614a7a5780637e8555ed1461432e578063868a54611461381e5780638da5cb5b146137f55780638f38cc7b146134cf5780639196dfcb146133b557806395d89b41146132d357806397b6f393146131955780639d4a2255146130025780639fa44dbf14612fba578063a22cb46514612eef578063a22fb38714612e44578063a323d29e14612cf1578063af55ed6414612cc0578063b27e169714612bdb578063b88d4fde14612b7c578063b95a062814612b41578063b9db15b414612927578063c1302b34146128cf578063c64b8a8f14612890578063c87b56dd14612836578063ceca737f146127b2578063d2bc9d7814612505578063d637dcfa14612066578063dadd0a5714611d66578063dc29868214611b45578063e01ef6e614611b27578063e40971e514610c62578063e585cb2c14610bd2578063e6a93e1614610918578063e985e9c5146108c2578063eb11c43414610890578063ed90c7b714610756578063f2fde38b146106a7578063f3052d26146105e75763fdca4ca31461031557600080fd5b346105e25760003660031901126105e25760088054600060015b8281111561058157506103419061848b565b9060009260015b82811115610362576040518061035e8682616e7b565b0390f35b600081815260156020908152604090912060018101546001600160a01b031691903383148061056f575b6103a2575b50505061039d9061847c565b610348565b604097939751926103b284616f09565b81548452828401526040516103d5816103ce8160028601617106565b0382616fc8565b60408401526040516103ee816103ce8160038601617106565b606084015260048101546080840152600581015460a08401526006906104158282016183b6565b60c0850152610426600782016183b6565b60e08501526104368682016183b6565b610100850152604051610450816103ce8160098601617106565b61012085015260405161046a816103ce81600a8601617106565b610140850152600b81015461016085015260405161048f816103ce81600c8601617106565b6101808501526040516104a9816103ce81600d8601617106565b6101a0850152600e8101546101c0850152600f81015460ff80821615156101e087015281881c81161515610200870152601091821c16151561022086015201805491906104f583617f92565b936105036040519586616fc8565b8385526000918252808220918186015b85821061055357505050505050918161039d9361024061054a94015261053982886184db565b5261054481876184db565b5061847c565b94903880610391565b84836001926105618761841b565b815201940191019092610513565b5060ff600f82015460101c161561038c565b600081815260156020526040902060018101546001600160a01b0316331490816105cf575b506105ba575b6105b59061847c565b61032f565b906105c76105b59161847c565b9190506105ac565b60ff9150600f015460101c1615386105a6565b600080fd5b346105e25760203660031901126105e2576004356000526018602052604060002060405161061481616f5c565b8154815261035e60405191610637836106308160018801617106565b0384616fc8565b6020810192835261065b600360ff6002870154169560408401961515875201618650565b906060810191825261066f815115156185a1565b5192519351151590516106946040519586958652608060208701526080860190616bee565b91604085015283820360608501526174d9565b346105e25760203660031901126105e2576106c0616edd565b6106c861750d565b6001600160a01b03908116908115610702576000548260018060a01b03198216176000551660008051602061935d833981519152600080a3005b60405162461bcd60e51b815260206004820152602660248201527f4f776e61626c653a206e6577206f776e657220697320746865207a65726f206160448201526564647265737360d01b6064820152608490fd5b346105e2576020806003193601126105e25760043590816000526017815261078560ff60406000205416618258565b6000828152601582526040902060010154336001600160a01b0391821614908115610882575b501561082e57816000526015815260ff600f6040600020015460101c166107ed5760009182526015905260409020600f01805462ff0000191662010000179055005b6064906040519062461bcd60e51b82526004820152601a602482015279141c9bd91d58dd081a5cc8185b1c9958591e4819195b195d195960321b6044820152fd5b6084906040519062461bcd60e51b82526004820152602760248201527f4f6e6c792070726f647563742073656c6c6572206f72206f776e65722063616e6044820152662064656c65746560c81b6064820152fd5b6000541633149050836107ab565b346105e25760203660031901126105e25760206108b36108ae616edd565b617be8565b6108c06040518092617382565bf35b346105e25760403660031901126105e2576108db616edd565b6108e3616ef3565b9060018060a01b03809116600052600760205260406000209116600052602052602060ff604060002054166040519015158152f35b346105e25760203660031901126105e257610931616edd565b600854600060015b82811115610b6e575061094b9061848b565b90600160005b82821115610967576040518061035e8682616e7b565b600082815260156020526040902060018101546001600160a01b0390811691908716821480610b5c575b6109a8575b5050906109a29061847c565b90610951565b604051916109b583616f09565b8154835260208301526040516109d2816103ce8160028601617106565b60408301526040516109eb816103ce8160038601617106565b606083015260048101546080830152600581015460a0830152610a10600682016183b6565b60c0830152610a21600782016183b6565b60e0830152610a32600882016183b6565b610100830152604051610a4c816103ce8160098601617106565b610120830152604051610a66816103ce81600a8601617106565b610140830152600b810154610160830152604051610a8b816103ce81600c8601617106565b610180830152604051610aa5816103ce81600d8601617106565b6101a0830152600e8101546101c0830152600f8101549060ff80831615156101e0850152808360081c161515610200850152601092831c16151561022084015201805490610af282617f92565b91610b006040519384616fc8565b808352602083019160005260206000206000925b828410610b3e57505050506102408201526109a291610b379161053982886184db565b9086610996565b60066020600192610b4e8561841b565b815201920193019290610b14565b5060ff600f82015460101c1615610991565b600081815260156020526040902060018101546001600160a01b038681169116149081610bbf575b50610baa575b610ba59061847c565b610939565b90610bb7610ba59161847c565b919050610b9c565b60ff9150600f015460101c161585610b96565b346105e25760403660031901126105e257610beb616edd565b6001600160a01b039081166000908152601c602052604090208054602435908110156105e257610c1a916173a7565b509061035e825460018401549360028101549160038201548560048401541690610c4b6006600586015495016173c3565b9460405198899860ff8760a01c169616948961748f565b346105e2576003196020368201126105e2576001600160401b03600435116105e2576101a090600435360301126105e25733600052601260205260ff604060002054166004811015611b11576002148015611afd575b15611ab957610cd7610cce600480350180617c5c565b90501515617a52565b610ce8604460043501351515617c8e565b610cf9606460043501351515617cd9565b60e4600435013515611a6957610104600435013515611a1657610d2461012460043501351515617d24565b610d45610d3c61014460043501600435600401617c5c565b90501515617d70565b610d66610d5d61016460043501600435600401617c5c565b90501515617db4565b610d7861018460043501351515617df8565b610d98610d8f60c460043501600435600401617e41565b90501515617e76565b610dba6005610db160c460043501600435600401617e41565b90501115617ebb565b60016008540180600855610dcc617f06565b81815233602082015290610dee610de7600480350180617c5c565b3691617006565b6040830152610e0a610de7602460043501600435600401617c5c565b60608301526044600435013560808301526064600435013560a0830152610e45610e3e608460043501600435600401617e41565b3691617fa9565b60c0830152610e61610e3e60a460043501600435600401617e41565b60e0830152610e7d610e3e60c460043501600435600401617e41565b61010083015260e4600435013560005260186020526103ce610eac600160406000200160405192838092617106565b610120830152610104600435013560005260196020526103ce610edc600160406000200160405192838092617106565b610140830152610efa610de761014460043501600435600401617c5c565b610180830152610f18610de761016460043501600435600401617c5c565b6101a083015260043561012481013561016084015261018401356101c083015233156119d257610f50610f4a826178c8565b1561820d565b610f5c610f4a826178c8565b33600052600560205260406000206001815401905580600052600460205260406000203360018060a01b03198254161790558033600060008051602061939d8339815191528180a46015602052604060002090825182556001820160018060a01b0360208501511660018060a01b0319825416179055604083015192835160018060401b03811161143c5761100181610ff860028701546170cc565b60028701617aac565b6020601f8211600114611963578192939495600092611958575b50508160011b916000199060031b1c19161760028401555b606081015180519093906001600160401b03811161143c576110658161105c60038501546170cc565b60038501617aac565b6020601f82116001146118e95781929394956000926118de575b50508160011b916000199060031b1c19161760038201555b6080820151600482015560a082015160058201556006810160c083015160208151916110c38385618061565b01916000526020600020916000905b82821061180157505050506007810160e083015160208151916110f58385618061565b01916000526020600020916000905b82821061172457505050506008810161010083015160208151916111288385618061565b01916000526020600020916000905b828210611641575050505061012082015180519093906001600160401b03811161143c576111758161116c60098601546170cc565b60098601617aac565b6020601f82116001146115d25781929394956000926115c7575b50508160011b916000199060031b1c19161760098301555b61014083015180519093906001600160401b03811161143c576111da816111d1600a8701546170cc565b600a8701617aac565b6020601f821160011461155857819293949560009261154d575b50508160011b916000199060031b1c191617600a8401555b610160810151600b84015561018081015180519093906001600160401b03811161143c5761124a81611241600c8501546170cc565b600c8501617aac565b6020601f82116001146114de5781929394956000926114d3575b50508160011b916000199060031b1c191617600c8201555b6101a08201518051906001600160401b03821161143c576112ad826112a4600d8601546170cc565b600d8601617aac565b602090601f831160011461145d5791806102409492601094600092611452575b50508160011b916000199060031b1c191617600d8201555b6101c0840151600e820155600f81016113056101e08601511515826178b7565b6102008501511515815461ff0062ff00006102208901511515871b169260081b169062ffff001916171790550191015190815191600160401b831161143c5781548383558084106113b9575b506020019060005260206000206000915b83831061139b57611399858060005260176020526040600020600160ff1982541617905533600052601660205260406000206181d8565b005b60066020826113ad60019451866180aa565b01920192019190611362565b8060060290600682040361142657836006026006810485036114265783600052602060002091820191015b8181106113f15750611351565b80600060069255600060018201556000600282015561141260038201618018565b6000600482015560006005820155016113e4565b634e487b7160e01b600052601160045260246000fd5b634e487b7160e01b600052604160045260246000fd5b0151905087806112cd565b90600d840160005260206000209160005b601f19851681106114bb575092610240949260019260109583601f198116106114a2575b505050811b01600d8201556112e5565b015160001960f88460031b161c19169055878080611492565b9192602060018192868501518155019401920161146e565b015190508580611264565b600c830160005260206000209060005b601f1984168110611535575060019394959683601f1981161061151c575b505050811b01600c82015561127c565b015160001960f88460031b161c1916905585808061150c565b9091602060018192858b0151815501930191016114ee565b0151905085806111f4565b600a850160005260206000209060005b601f19841681106115af575060019394959683601f19811610611596575b505050811b01600a84015561120c565b015160001960f88460031b161c19169055858080611586565b9091602060018192858b015181550193019101611568565b01519050858061118f565b6009840160005260206000209060005b601f1984168110611629575060019394959683601f19811610611610575b505050811b0160098301556111a7565b015160001960f88460031b161c19169055858080611600565b9091602060018192858b0151815501930191016115e2565b80518051906001600160401b03821161143c576116688261166288546170cc565b88617aac565b602090601f83116001146116b45792826001949360209386956000926116a9575b5050600019600383901b1c191690841b1787555b01940191019092611137565b015190508c80611689565b908660005260206000209160005b601f198516811061170c575083602093600196938796938794601f198116106116f3575b505050811b01875561169d565b015160001960f88460031b161c191690558c80806116e6565b919260206001819286850151815501940192016116c2565b80518051906001600160401b03821161143c576117458261166288546170cc565b602090601f8311600114611791579282600194936020938695600092611786575b5050600019600383901b1c191690841b1787555b01940191019092611104565b015190508c80611766565b908660005260206000209160005b601f19851681106117e9575083602093600196938796938794601f198116106117d0575b505050811b01875561177a565b015160001960f88460031b161c191690558c80806117c3565b9192602060018192868501518155019401920161179f565b80518051906001600160401b03821161143c576118228261166288546170cc565b602090601f831160011461186e579282600194936020938695600092611863575b5050600019600383901b1c191690841b1787555b019401910190926110d2565b015190508c80611843565b908660005260206000209160005b601f19851681106118c6575083602093600196938796938794601f198116106118ad575b505050811b018755611857565b015160001960f88460031b161c191690558c80806118a0565b9192602060018192868501518155019401920161187c565b01519050858061107f565b6003830160005260206000209060005b601f1984168110611940575060019394959683601f19811610611927575b505050811b016003820155611097565b015160001960f88460031b161c19169055858080611917565b9091602060018192858b0151815501930191016118f9565b01519050858061101b565b6002850160005260206000209060005b601f19841681106119ba575060019394959683601f198116106119a1575b505050811b016002840155611033565b015160001960f88460031b161c19169055858080611991565b9091602060018192858b015181550193019101611973565b606460405162461bcd60e51b815260206004820152602060248201527f4552433732313a206d696e7420746f20746865207a65726f20616464726573736044820152fd5b60405162461bcd60e51b815260206004820152602560248201527f53756243617465676f7279204944206d75737420626520677265617465722074604482015264068616e20360dc1b6064820152608490fd5b60405162461bcd60e51b815260206004820152602260248201527f43617465676f7279204944206d7573742062652067726561746572207468616e604482015261020360f41b6064820152608490fd5b606460405162461bcd60e51b815260206004820152602060248201527f4d7573742062652076657269666965642073656c6c6572206f72206f776e65726044820152fd5b506000546001600160a01b03163314610cb8565b634e487b7160e01b600052602160045260246000fd5b346105e25760003660031901126105e2576020600d54604051908152f35b346105e2576020806003193601126105e2576001600160401b036004358181116105e257611b7790369060040161703d565b90611b8061750d565b611b8c825115156184ef565b611b97600b5461847c565b9081600b55604051611ba881616fad565b60008152604051611bb881616f5c565b83815285810185815260408201906001958683526060840194855260005260188852604060002092518355858301905180519086821161143c57611c0682611c0085546170cc565b85617aac565b8990601f8311600114611cf5579180611c4594926003979694600092611cea575b505060001982881b1c191690891b1790555b511515600283016178b7565b019051805192831161143c57600160401b831161143c5785908254848455808510611ccd575b5001906000528460002060005b838110611cbc57600b546040518881527f11c167cc9b439f0ad8bec5588159f1b06b813bc38d50c867a41b23b077be2c1a9080611cb7818c018b616bee565b0390a2005b825182820155918601918401611c78565b611ce4908460005285846000209182019101617a95565b87611c6b565b015190508c80611c27565b889291601f19831691856000528c600020928d6000905b828210611d4f575050916003989795939185611c4598969410611d37575b505050811b019055611c39565b0151600019838a1b60f8161c191690558c8080611d2a565b8385015186558d979095019493840193018e611d0c565b346105e25760003660031901126105e257600b54611d8381617f92565b611d906040519182616fc8565b818152601f19611d9f83617f92565b01366020830137611daf82617f92565b91611dbd6040519384616fc8565b808352611dd9601f19611dcf83617f92565b016020850161869f565b611de281617f92565b92611df06040519485616fc8565b818452601f19611dff83617f92565b01366020860137611e0f82617f92565b90611e1d6040519283616fc8565b828252611e2983617f92565b92611e3c6020840194601f19018561869f565b60015b81811115611f78575050611e5e604051946080865260808601906174d9565b8481036020860152815180825260208201916020808360051b8301019401926000915b838310611f4b57505050505083810360408501526020808651928381520195019060005b818110611f3357505050828403606084015251808452602084019060208160051b86010192916000905b828210611edc5785850386f35b90919293601f19878203018252845190602080835192838152019201906000905b808210611f1b57505050602080600192960192019201909291611ecf565b90919260208060019286518152019401920190611efd565b82511515875260209687019690920191600101611ea5565b9091929394602080611f69600193601f198682030187528951616bee565b97019301930191939290611e81565b806000526018602052604060002090611fcb600360405193611f9985616f5c565b80548552604051611fb1816103ce8160018601617106565b602086015260ff6002820154161515604086015201618650565b60608301528151611fe6575b611fe1915061847c565b611e3f565b8060001981011161142657606082611fe1935161200760001985018b6184db565b52602081015161201b6000198501886184db565b5261202a6000198401876184db565b506040810151151561204060001985018c6184db565b5201516120516000198301876184db565b526120606000198201866184db565b50611fd7565b346105e25760603660031901126105e2576004356001600160401b0381116105e25761209690369060040161703d565b6024356001600160401b0381116105e2576120b590369060040161703d565b906044356001600160401b0381116105e2576120d590369060040161703d565b916120e1331515617a14565b33600052601460205260ff604060002054166124c65761210382511515617a52565b805115612489576040519261211784616f77565b82845260208401918252604084015242606084015260016080840152336000526010602052604060002090835180519060018060401b03821161143c57819061216a8261216487546170cc565b87617aac565b602090601f831160011461241d57600092612412575b50508160011b916000199060031b1c19161782555b5180519093906001600160401b03811161143c576121c3816121ba60018601546170cc565b60018601617aac565b6020601f82116001146123a3578192939495600092612398575b50508160011b916000199060031b1c19161760018301555b6040810151805160028401916001600160401b03821161143c5761221d82611c0085546170cc565b602090601f831160011461232657928260809361226b97969360049660009261231b575b50508160011b916000199060031b1c19161790555b606081015160038501550151151591016178b7565b336000908152601460205260409020805460ff19166001179055600f54600160401b81101561143c576001810180600f5581101561230557600f6000526000805160206193fd8339815191520180546001600160a01b03191633908117909155604051602080825291927f48cac28ad4dc618e15f4c2dd5e97751182f166de97b25618318b2112aa951a2f928291611cb791830190616bee565b634e487b7160e01b600052603260045260246000fd5b015190508980612241565b90601f198316918460005260206000209260005b81811061238057509361226b979693600496936001938360809810612367575b505050811b019055612256565b015160001960f88460031b161c1916905589808061235a565b9293602060018192878601518155019501930161233a565b0151905085806121dd565b6001840160005260206000209060005b601f19841681106123fa575060019394959683601f198116106123e1575b505050811b0160018301556121f5565b015160001960f88460031b161c191690558580806123d1565b9091602060018192858b0151815501930191016123b3565b015190508680612180565b9250846000526020600020906000935b601f198416851061246e576001945083601f19811610612455575b505050811b018255612195565b015160001960f88460031b161c19169055868080612448565b8181015183556020948501946001909301929091019061242d565b60405162461bcd60e51b8152602060048201526015602482015274456d61696c2063616e6e6f7420626520656d70747960581b6044820152606490fd5b60405162461bcd60e51b8152602060048201526017602482015276155cd95c88185b1c9958591e481c9959da5cdd195c9959604a1b6044820152606490fd5b346105e25760403660031901126105e2576024356001600160401b0381116105e257366023820112156105e2576001600160401b036004820135116105e257366024826004013560051b830101116105e257600435600052601860205260ff60026040600020015416156127705760005b8160040135811061258357005b61258e600c5461847c565b80600c556125c06125a783856004013560248701618586565b9190604051926125b684616f5c565b8484523691617006565b91602082019283526004356040830152600160608301526000526019602052604060002091815183555180519060018060401b03821161143c576126148261260b60018701546170cc565b60018701617aac565b602090601f83116001146126f25761268693836126e297969461266c946060946000926126e7575b50508160011b916000199060031b1c19161760018501555b604081015160028501550151151560038093016178b7565b6004356000526018602052604060002001600c54906181d8565b6000805160206193bd833981519152600c546126aa83866004013560248801618586565b9290836040519160208352816020840152604083013760006040858301015260408160043595601f80199101168101030190a361847c565b612576565b015190508a8061263c565b906001850160005260206000209160005b601f198516811061275857509360018461266c94606094612686986126e29b9a98601f1981161061273f575b505050811b016001850155612654565b015160001960f88460031b161c191690558a808061272f565b91926020600181928685015181550194019201612703565b60405162461bcd60e51b815260206004820152601a602482015279506172656e742063617465676f7279206e6f742061637469766560301b6044820152606490fd5b346105e25760203660031901126105e2576004356127ce61750d565b8060005260186020526127e760406000205415156185a1565b80600052601860205260008051602061933d83398151915261282a60406000206002810160ff198154169055604051918291604083526001604084019101617106565b600060208301520390a2005b346105e25760203660031901126105e25761285a6128556004356178c8565b617565565b600060405161286881616fad565b5261035e60405161287881616fad565b60008152604051918291602083526020830190616bee565b346105e25760203660031901126105e2576001600160a01b036128b1616edd565b166000526013602052602060ff604060002054166040519015158152f35b346105e25760403660031901126105e2576128e8616edd565b6001600160a01b03166000908152601660205260409020805460243591908210156105e2576020916129199161738f565b90546040519160031b1c8152f35b346105e2576020806003193601126105e257600435612944617f06565b50806000526015825261296560ff600f6040600020015460101c161561829d565b806000526017825261297e60ff60406000205416618258565b600052601581526040600020906040519161299883616f09565b805483526001808201546001600160a01b0316838501526040516129c3816103ce8160028701617106565b60408501526040516129dc816103ce8160038701617106565b606085015260048201546080850152600582015460a08501526010600692612a058482016183b6565b60c0870152612a16600782016183b6565b60e0870152612a27600882016183b6565b610100870152604051612a41816103ce8160098601617106565b610120870152604051612a5b816103ce81600a8601617106565b610140870152600b810154610160870152604051612a80816103ce81600c8601617106565b610180870152604051612a9a816103ce81600d8601617106565b6101a0870152600e8101546101c087015260ff600f82015481811615156101e0890152818160081c161515610200890152831c1615156102208701520191825490612ae482617f92565b93612af26040519586616fc8565b8285526000908152858120868087015b858410612b24576102408a018890526040518281528061035e8185018d616d2b565b86918591612b318561841b565b8152019201920191908790612b02565b346105e25760203660031901126105e25760206001600160a01b0380612b65616edd565b16600052601e825260406000205416604051908152f35b346105e25760803660031901126105e257612b95616edd565b612b9d616ef3565b606435916001600160401b0383116105e257366023840112156105e257612bd1611399933690602481600401359101617006565b9160443591617658565b346105e2576020806003193601126105e2576001600160a01b039081612bff616edd565b16600052601b81526040600020805490612c1882617f92565b92612c266040519485616fc8565b82845260009182528082208185015b848410612c4a576040518061035e8882617244565b600e83600192604051612c5c81616f25565b85548152848601548382015260028601546040820152600386015460608201528a600487015416608082015260ff600587015460a08d8216818501521c16151560c0820152612cad600687016173c3565b60e0820152815201920193019290612c35565b346105e25760203660031901126105e2576004356000526017602052602060ff604060002054166040519015158152f35b346105e2576020806003193601126105e257612e299061035e612d12616edd565b612d1a617b6d565b5060018060a01b0316918260005260138152612d3d60ff60406000205416617ba4565b826000526011815260406000209260ff600660405195612d5c87616f41565b604051612d6d816103ce8185617106565b8752604051612d83816103ce8160018601617106565b85880152604051612d9b816103ce8160028601617106565b6040880152604051612db4816103ce8160038601617106565b6060880152604051612dcd816103ce8160048601617106565b6080880152600581015460a0880152015416151560c08501526000526012815260ff60406000205416601a825260406000205460168352612e32612e146040600020618650565b92604051978897608089526080890190617302565b94870190617382565b604085015283820360608501526174d9565b346105e25760203660031901126105e257612e5d616edd565b612e6561750d565b6001600160a01b03168015612eb05760406000805160206192fd8339815191529133600052601e602052816000208160018060a01b03198254161790558151903382526020820152a1005b60405162461bcd60e51b8152602060048201526017602482015276496e76616c6964206163636f756e74206164647265737360481b6044820152606490fd5b346105e25760403660031901126105e257612f08616edd565b60243590811515908183036105e2576001600160a01b031691338314612f7957612f4b9033600052600760205260406000208460005260205260406000206178b7565b6040519081527f17307eab39ab6107e8899845ad3d59bd9653f200f220920489ca2b5937696c3160203392a3005b60405162461bcd60e51b815260206004820152601960248201527822a9219b99189d1030b8383937bb32903a379031b0b63632b960391b6044820152606490fd5b346105e25760403660031901126105e257612fd3616edd565b6001600160a01b039081166000908152601b602052604090208054602435908110156105e257610c1a916173a7565b346105e2576020806003193601126105e2576004358060005260159081835260ff600f604060002001549161303d82601094851c161561829d565b80600052601785526130558260406000205416618258565b60009260005b826000528587528160406000200180548210156130ac57600461307f8387936186fa565b5001541615613097575b6130929061847c565b61305b565b936130a46130929161847c565b949050613089565b505084866130b986617f92565b956130c76040519788616fc8565b8087526130d6601f1991617f92565b018160005b82811061317f5750505060009360005b8160005283835284604060002001805482101561316c57600461310f838a936186fa565b5001541615613127575b6131229061847c565b6130eb565b94613164613122918360005285855261314f61314989896040600020016186fa565b5061841b565b613159828c6184db565b52610544818b6184db565b959050613119565b6040518481528061035e8187018c616c8a565b6131876186c9565b82828b0101520182906130db565b346105e25760403660031901126105e2576131ae616edd565b6024359060048210156105e2576131c361750d565b60018060a01b03169081600052602090601382526131e860ff60406000205416617ba4565b801561328e57826000526012825260ff604060002054166004811015611b11578114613249579060008051602061937d833981519152918360005260128252604060002060ff1981541660ff83161790556132466040518092617382565ba2005b60405162461bcd60e51b815260048101839052601e60248201527f53656c6c657220616c72656164792068617320746869732073746174757300006044820152606490fd5b60405162461bcd60e51b815260048101839052601f60248201527f43616e6e6f74207365742073746174757320746f20556e7665726966696564006044820152606490fd5b346105e25760003660031901126105e2576040516000906003546132f6816170cc565b80835260019180831690811561338d5750600114613333575b61035e8361331f81870382616fc8565b604051918291602083526020830190616bee565b6003600090815260209450917fc2575a0e9e593c00f959f8c92f12db2869c3395a3b0502d05e2516446f71f85b5b82841061337a5750505081019091019061331f8161330f565b8054858501870152928501928101613361565b61035e955061331f93506020915091849260ff191682840152151560051b820101935061330f565b346105e25760203660031901126105e2576001600160a01b036133d6616edd565b166000526011602052613486604060002060405190613400826133f98184617106565b0383616fc8565b604051613414816103ce8160018601617106565b6134be60405161342b816103ce8160028801617106565b6134b0604051613442816103ce8160038a01617106565b6134a2604051936134618561345a8160048c01617106565b0386616fc8565b61349460ff600660058b01549a015416976040519b8c9b60e08d5260e08d0190616bee565b908b820360208d0152616bee565b9089820360408b0152616bee565b908782036060890152616bee565b908582036080870152616bee565b9160a0840152151560c08301520390f35b346105e25760203660031901126105e2576004356001600160401b0381116105e2576134ff90369060040161703d565b600854600060015b8281111561377357506135199061848b565b90600160005b82821115613535576040518061035e8682616e7b565b816000526015806020526009906103ce61355b8360406000200160405192838092617106565b60208151910120875160208901201480613755575b613587575b5050906135819061847c565b9061351f565b8360005260205260406000206103ce613645604051936135a685616f09565b8354855260018401546001600160a01b031660208601526040516135d1816103ce8160028901617106565b60408601526040516135ea816103ce8160038901617106565b606086015260048401546080860152600584015460a086015261360f600685016183b6565b60c0860152613620600785016183b6565b60e0860152613631600885016183b6565b610100860152604051928380928601617106565b61012083015260405161365f816103ce81600a8601617106565b610140830152600b810154610160830152604051613684816103ce81600c8601617106565b61018083015260405161369e816103ce81600d8601617106565b6101a0830152600e8101546101c0830152600f8101549060ff80831615156101e0850152808360081c161515610200850152601092831c161515610220840152018054906136eb82617f92565b916136f96040519384616fc8565b808352602083019160005260206000206000925b8284106137375750505050610240820152613581916137309161053982886184db565b9086613575565b600660206001926137478561841b565b81520192019301929061370d565b50836000528060205260ff600f6040600020015460101c1615613570565b806000526015806020526103ce613797600960406000200160405192838092617106565b60208151910120855160208701201490816137d6575b506137c1575b6137bc9061847c565b613507565b906137ce6137bc9161847c565b9190506137b3565b90508160005260205260ff600f6040600020015460101c1615856137ad565b346105e25760003660031901126105e2576000546040516001600160a01b039091168152602090f35b346105e2576003196040368201126105e2576001600160401b03602435116105e2576101a090602435360301126105e2576004356000908152601560205260409020600101546001600160a01b031633036142d857600435600052601760205261388f60ff60406000205416618258565b60043560005260156020526138b260ff600f6040600020015460101c161561829d565b6138c4610cce60046024350180617c5c565b6138d76024803501602435600401617c5c565b905015614295576138ef604460243501351515617c8e565b613900606460243501351515617cd9565b613914608460243501602435600401617e41565b9050156142575761392f60a460243501602435600401617e41565b90501561421a5761394d610d8f60c460243501602435600401617e41565b6139666005610db160c460243501602435600401617e41565b60e46024350135156141da5761010460243501351561419657613997610d3c61014460243501602435600401617c5c565b6139af610d5d61016460243501602435600401617c5c565b6139c161012460243501351515617d24565b6139d361018460243501351515617df8565b6139e260046024350180617c5c565b6004356000908152601560205260409020600201906001600160401b03811161143c57613a1981613a1384546170cc565b84617aac565b600092601f821160011461412d5792819293600092614122575b50508160011b916000199060031b1c19161790555b613a5b6024803501602435600401617c5c565b6004356000908152601560205260409020600301906001600160401b03811161143c57613a8c81613a1384546170cc565b600092601f82116001146140b957928192936000926140ae575b50508160011b916000199060031b1c19161790555b600435600052601560205260406000206044602435013560048201556064602435013560058201556006613af9608460243501602435600401617e41565b9190920191613b088284618061565b60009283526020832090805b838510613fcb57613b2f60a460243501602435600401617e41565b6004356000526015602052600760406000200191613b4d8284618061565b60009283526020832090805b838510613ee857613b7460c460243501602435600401617e41565b6004356000526015602052600860406000200191613b928284618061565b60009283526020832090805b838510613e055760e460243501356000526018602052613bd76001604060002001600435600052601560205260096040600020016182de565b61010460243501356000526019602052613c0a60016040600020016004356000526015602052600a6040600020016182de565b613c1f61014460243501602435600401617c5c565b6004356000908152601560205260409020600c01906001600160401b03811161143c57613c5081613a1384546170cc565b600092601f8211600114613d9c5792819293600092613d91575b50508160011b916000199060031b1c19161790555b613c9461016460243501602435600401617c5c565b6004356000908152601560205260409020600d01906001600160401b03811161143c57613cc581613a1384546170cc565b6000601f8211600114613d2c57819293600092613d21575b50508160011b916000199060031b1c19161790555b600435600052601560205260406000206101246024350135600b820155600e6101846024350135910155600080f35b013590508380613cdd565b601f198216938360005260206000209160005b868110613d795750836001959610613d5f575b505050811b019055613cf2565b0135600019600384901b60f8161c19169055838080613d52565b90926020600181928686013581550194019101613d3f565b013590508380613c6a565b826000526020600020906000945b601f1984168610613ded57600194955083601f19811610613dd3575b505050811b019055613c7f565b0135600019600384901b60f8161c19169055838080613dc6565b91602060018192858501358155019301950194613daa565b613e0f8183617c5c565b906001600160401b03821161143c57613e2c8261216487546170cc565b600090601f8311600114613e78579282600194936020938695600092613e6d575b5050600019600383901b1c191690841b1786555b01930194019391613b9e565b013590508a80613e4d565b8560005260206000209160005b601f1985168110613ed0575083602093600196938796938794601f19811610613eb6575b505050811b018655613e61565b0135600019600384901b60f8161c191690558a8080613ea9565b90926020600181928686013581550194019101613e85565b613ef28183617c5c565b906001600160401b03821161143c57613f0f8261216487546170cc565b600090601f8311600114613f5b579282600194936020938695600092613f50575b5050600019600383901b1c191690841b1786555b01930194019391613b59565b013590508a80613f30565b8560005260206000209160005b601f1985168110613fb3575083602093600196938796938794601f19811610613f99575b505050811b018655613f44565b0135600019600384901b60f8161c191690558a8080613f8c565b90926020600181928686013581550194019101613f68565b613fd58183617c5c565b906001600160401b03821161143c57613ff28261216487546170cc565b600090601f831160011461403e579282600194936020938695600092614033575b5050600019600383901b1c191690841b1786555b01930194019391613b14565b013590508a80614013565b8560005260206000209160005b601f1985168110614096575083602093600196938796938794601f1981161061407c575b505050811b018655614027565b0135600019600384901b60f8161c191690558a808061406f565b9092602060018192868601358155019401910161404b565b013590508380613aa6565b826000526020600020906000945b601f198416861061410a57600194955083601f198116106140f0575b505050811b019055613abb565b0135600019600384901b60f8161c191690558380806140e3565b916020600181928585013581550193019501946140c7565b013590508380613a33565b826000526020600020906000945b601f198416861061417e57600194955083601f19811610614164575b505050811b019055613a48565b0135600019600384901b60f8161c19169055838080614157565b9160206001819285850135815501930195019461413b565b60405162461bcd60e51b815260206004820152601c60248201527b5375622d63617465676f72792063616e6e6f7420626520656d70747960201b6044820152606490fd5b60405162461bcd60e51b815260206004820152601860248201527743617465676f72792063616e6e6f7420626520656d70747960401b6044820152606490fd5b60405162461bcd60e51b815260206004820152601560248201527453697a65732063616e6e6f7420626520656d70747960581b6044820152606490fd5b60405162461bcd60e51b8152602060048201526016602482015275436f6c6f72732063616e6e6f7420626520656d70747960501b6044820152606490fd5b60405162461bcd60e51b815260206004820152601b60248201527a4465736372697074696f6e2063616e6e6f7420626520656d70747960281b6044820152606490fd5b60405162461bcd60e51b815260206004820152602860248201527f4f6e6c79207468652073656c6c65722063616e20757064617465207468656972604482015267081c1c9bd91d58dd60c21b6064820152608490fd5b346105e25760a03660031901126105e2576004356001600160401b0381116105e25761435e90369060040161703d565b60249081356001600160401b0381116105e25761437f90369060040161703d565b6044356001600160401b0381116105e25761439e90369060040161703d565b6064356001600160401b0381116105e2576143bd90369060040161703d565b906084356001600160401b0381116105e2576143dd90369060040161703d565b926143e9331515617a14565b33600052601360205260ff60406000205416614a37578451156149fa5761441282511515617af3565b61441e83511515617b30565b6040519461442b86616f41565b855260208501526040840152606083015260808201524260a0820152600160c0820152336000526011602052604060002090805192835160018060401b0381116149e5576144838161447d86546170cc565b86617aac565b6020601f821160011461497c578192939495600092614971575b50508160011b916000199060031b1c19161783555b602082015180519093906001600160401b03811161495c576144e4816144db60018501546170cc565b60018501617aac565b6020601f82116001146148ed5781929394956000926148e2575b50508160011b916000199060031b1c19161760018201555b604083015180519093906001600160401b0381116148cd576145488161453f60028601546170cc565b60028601617aac565b6020601f821160011461485e578192939495600092614853575b50508160011b916000199060031b1c19161760028301555b6060810151805160038401916001600160401b0382116147cd5781906145a48261447d86546170cc565b602090601f83116001146147ed576000926147e2575b50508160011b916000199060031b1c19161790555b6080810151805160048401916001600160401b0382116147cd576145f782611c0085546170cc565b602090601f831160011461475b57928260c093614645979693600696600092614750575b50508160011b916000199060031b1c19161790555b60a081015160058501550151151591016178b7565b336000526013602052604060002060ff19906001828254161790556012602052600160406000209182541617905561467c336192ae565b156146cb575b6040514281527fa1a1a78ff3033d5ee8393372052aeb2a16bbb347a29f3780370e9506c109e37260203392a26040516001815260008051602061937d83398151915260203392a2005b600e5490600160401b82101561473c576001820180600e558210156147285750600e6000527fbb7b4a454dc3493923482f07822329ed19e8244eff582cc204f8554c3620c3fd0180546001600160a01b0319163317905580614682565b634e487b7160e01b60009081526032600452fd5b634e487b7160e01b60009081526041600452fd5b01519050898061461b565b90601f198316918460005260206000209260005b8181106147b5575093614645979693600696936001938360c0981061479c575b505050811b019055614630565b015160001960f88460031b161c1916905589808061478f565b9293602060018192878601518155019501930161476f565b85634e487b7160e01b60005260416004526000fd5b0151905086806145ba565b6000858152602081209350601f198516905b81811061483b5750908460019594939210614822575b505050811b0190556145cf565b015160001960f88460031b161c19169055868080614815565b929360206001819287860151815501950193016147ff565b015190508580614562565b6002840160005260206000209060005b601f19841681106148b5575060019394959683601f1981161061489c575b505050811b01600283015561457a565b015160001960f88460031b161c1916905585808061488c565b9091602060018192858b01518155019301910161486e565b83634e487b7160e01b60005260416004526000fd5b0151905085806144fe565b6001830160005260206000209060005b601f1984168110614944575060019394959683601f1981161061492b575b505050811b016001820155614516565b015160001960f88460031b161c1916905585808061491b565b9091602060018192858b0151815501930191016148fd565b82634e487b7160e01b60005260416004526000fd5b01519050858061449d565b8460005260206000209060005b601f19841681106149cd575060019394959683601f198116106149b4575b505050811b0183556144b2565b015160001960f88460031b161c191690558580806149a7565b9091602060018192858b015181550193019101614989565b50634e487b7160e01b60009081526041600452fd5b60405162461bcd60e51b81526020600482015260168188015275109d5cda5b995cdcc81b985b59481c995c5d5a5c995960521b6044820152606490fd5b60405162461bcd60e51b815260206004820152601c818801527b20b63932b0b23c903932b3b4b9ba32b932b21030b99039b2b63632b960211b6044820152606490fd5b346105e25760403660031901126105e2576001600160401b036004356024358281116105e257614aae90369060040161703d565b614ab661750d565b816000526020906018825260406000205415614c5357614ad88151151561853b565b614ae3600c5461847c565b80600c5560405190614af482616f5c565b808252838201838152604083019086825260608401926001908185526000526019875260406000209451855580850191518051998a1161143c57614b3c8a611c0085546170cc565b8790601f8b11600114614bd65799808060039694614b92999896946000805160206193bd8339815191529c9d9e600094614bcb575b50501b9160001990871b1c19161790555b51600284015551151591016178b7565b8360005260188352614bae6003604060002001600c54906181d8565b600c5492614bc6604051928284938452830190616bee565b0390a3005b015192508e80614b71565b9990601f1982169a84600052896000209b60005b818110614c3e57509b60039694928492614b929a9997956000805160206193bd8339815191529d9e9f10614c26575b505050811b019055614b82565b015160001983891b60f8161c191690558c8080614c19565b838301518e559c85019c928b01928b01614bea565b60405162461bcd60e51b815260048101839052601e60248201527f506172656e742063617465676f727920646f6573206e6f7420657869737400006044820152606490fd5b346105e25760203660031901126105e257600435600052601560205260406000208054600160a01b600190036001830154169160405180806002840190614cde91617106565b03614ce99082616fc8565b60405180614cfa8160038601617106565b03614d059082616fc8565b600483015460058401549060405180806009880190614d2391617106565b03614d2e9082616fc8565b6040519081614d4081600a8a01617106565b03614d4b9083616fc8565b600b87015492604051948580600c8b0190614d6591617106565b03614d709087616fc8565b6040519687614d8281600d8d01617106565b03614d8d9089616fc8565b600e8a015499600f0154986040519c8d9c8d5260208d01528b6101e06040819201528c01614dba91616bee565b8b810360608d0152614dcb91616bee565b9160808b015260a08a015288810360c08a0152614de791616bee565b87810360e0890152614df891616bee565b90610100870152858103610120870152614e1191616bee565b848103610140860152614e2391616bee565b9161016084015260ff811615156101808401528060081c60ff1615156101a084015260101c60ff1615156101c08301520390f35b346105e25760003660031901126105e257614e7061750d565b600080546001600160a01b0319811682556001600160a01b031660008051602061935d8339815191528280a3005b346105e25760203660031901126105e2576001600160a01b03614ebf616edd565b168015614ede5760005260056020526020604060002054604051908152f35b60405162461bcd60e51b815260206004820152602960248201527f4552433732313a2061646472657373207a65726f206973206e6f7420612076616044820152683634b21037bbb732b960b91b6064820152608490fd5b346105e2576020806003193601126105e257614f4f616edd565b60405190614f5c82616f77565b6000608060609384815284868201528460408201528285820152015260018060a01b031690816000526014835260ff60406000205416916010845260406000209160405191614faa83616f77565b604051614fbb816103ce8188617106565b835260405190614fd2826133f98160018901617106565b86840191825260405191614fed836106308160028a01617106565b6040850192835260ff6004600388015497868801988952015416916080860192151583526000526013885260ff6040600020541692836000146150b0576012895260ff60406000205416955b604051998a9915158a52890160809052516080890160a09052610120890161506091616bee565b9151607f1992838a82030160a08b015261507991616bee565b9051918882030160c089015261508e91616bee565b945160e087015251151561010086015215156040850152830161035e91617382565b600095615039565b346105e25760203660031901126105e257600435600052601960205260406000206040516150e581616f5c565b81548152604051906150fe826133f98160018701617106565b6020810191825260ff6003600285015494604084019586520154169060608101911515825261512f81511515618607565b5191519251905115156151546040519485948552608060208601526080850190616bee565b91604084015260608301520390f35b346105e2576151713661708d565b61517c92919261750d565b816000526020926018845261519760406000205415156185a1565b6151a3815115156184ef565b60008381526018855260409020815194906001908101906001600160401b03871161143c576151d687613a1384546170cc565b82601f881160011461524457968080601895949360008051602061933d833981519152999a600093615239575b501b916000199060031b1c19161790555b856000525261522a8260026040600020016178b7565b611cb7604051928392836185e7565b88015192508b615203565b96601f1981169783600052846000209860005b8181106152a4575098829160189695949360008051602061933d8339815191529a9b1061528b575b5050811b019055615214565b87015160001960f88460031b161c19169055898061527f565b878301518b5599840199918601918601615257565b6003196040368201126105e2576024906001600160401b038235116105e257610100908235360301126105e2576152ee618716565b600435600052601760205261530a60ff60406000205416618258565b600435600052601560205261532d60ff600f6040600020015460101c161561829d565b6004356000526015602052600560406000200154156159a357600435600052601560205260ff600f604060002001541661596257600435600052601560205260018060a01b0360016040600020015416331461592057615391600482350180617c5c565b9050156158e7576153a9818035018235600401617c5c565b9050156158a9576153c260448235018235600401617c5c565b905015615875576153db60648235018235600401617c5c565b905015615840576153f460848235018235600401617c5c565b9050156158095761540d60a48235018235600401617c5c565b9050156157ce5761543261542960c48335018335600401617c5c565b90501515617b30565b61545061544760e48335018335600401617c5c565b90501515617af3565b600435600052601560205260046040600020015490813410615795576004356000526015602052600560406000200180548015615780576000190190556004356000526015602052604060002060058101541561576c575b600101546040516001600160a01b0390911691906154c581616f25565b6004823501356001600160401b0381116105e2576154ea90600436918535010161703d565b81526001600160401b038235830135116105e257615511368335808501350160040161703d565b60208201528135604401356001600160401b0381116105e25761553b90600436918535010161703d565b60408201528135606401356001600160401b0381116105e25761556590600436918535010161703d565b60608201528135608401356001600160401b0381116105e25761558f90600436918535010161703d565b6080820152813560a401356001600160401b0381116105e2576155b990600436918535010161703d565b60a0820152813560c401356001600160401b0381116105e2576155e390600436918535010161703d565b60c0820152813560e40135906001600160401b0382116105e25761561161567c92600436918635010161703d565b60e08201526040519061562382616f25565b60043582528560208301528560408301524260608301523360808301528460a0830152600060c083015260e082015233600052601b60205261566981604060002061876c565b83600052601c602052604060002061876c565b81600052601a602052604060002080549184830180931161575857505560405182815282602082015242604082015233907f45280c7ac9cec77edd454e39e1641a3e22619146cf074a4239beee86a7c07edc606060043592a46001600954016009556156e881346186bc565b80615748575b50600435600052601560205260018060a01b03600160406000200154169060405190815242602082015233907fbe6177108f4df43c5d7be79cb219c969fc97915bbdb4b56d14d391dcdcc16060604060043592a460018055005b6157529033619248565b816156ee565b634e487b7160e01b60009081526011600452fd5b600f8101805460ff191660011790556154a8565b82634e487b7160e01b60005260116004526000fd5b60649060126040519162461bcd60e51b83526020600484015282015271496e73756666696369656e742066756e647360701b6044820152fd5b60649060146040519162461bcd60e51b83526020600484015282015273141bdcdd185b0818dbd919481c995c5d5a5c995960621b6044820152fd5b60649060106040519162461bcd60e51b8352602060048401528201526f10dbdd5b9d1c9e481c995c5d5a5c995960821b6044820152fd5b606490600e6040519162461bcd60e51b8352602060048401528201526d14dd185d19481c995c5d5a5c995960921b6044820152fd5b606490600d6040519162461bcd60e51b8352602060048401528201526c10da5d1e481c995c5d5a5c9959609a1b6044820152fd5b60649060176040519162461bcd60e51b8352602060048401528201527614dd1c99595d081859191c995cdcc81c995c5d5a5c9959604a1b6044820152fd5b60649060126040519162461bcd60e51b83526020600484015282015271119d5b1b081b985b59481c995c5d5a5c995960721b6044820152fd5b606490601b6040519162461bcd60e51b8352602060048401528201527a10d85b9b9bdd08189d5e481e5bdd5c881bdddb881c1c9bd91d58dd602a1b6044820152fd5b606490601a6040519162461bcd60e51b83526020600484015282015279141c9bd91d58dd081a5cc8185b1c9958591e481cdbdb191bdd5d60321b6044820152fd5b60649060176040519162461bcd60e51b8352602060048401528201527650726f64756374206973206f7574206f662073746f636b60481b6044820152fd5b346105e25760203660031901126105e25760206159ff6004356175ac565b6040516001600160a01b039091168152f35b346105e25760203660031901126105e2576001600160a01b03615a32616edd565b16600052601a6020526020604060002054604051908152f35b346105e25760203660031901126105e257600435615a6761750d565b60648111615a7457600d55005b60405162461bcd60e51b8152602060048201526012602482015271496e76616c69642070657263656e7461676560701b6044820152606490fd5b346105e25760003660031901126105e25760405180600e5480835260208093018091600e600052846000209060005b86828210615b3c578686615af382880383616fc8565b604051928392818401908285525180915260408401929160005b828110615b1c57505050500390f35b83516001600160a01b031685528695509381019392810192600101615b0d565b83546001600160a01b031685529093019260019283019201615add565b346105e25760203660031901126105e257600435600f548110156105e257600f6000526000805160206193fd83398151915201546040516001600160a01b039091168152602090f35b346105e25760203660031901126105e2576001600160a01b03615bc3616edd565b166000526012602052602060ff604060002054166108c06040518092617382565b346105e2576020806003193601126105e257615bfe616edd565b615c06617b6d565b506001600160a01b03166000818152601383526040902054615c2a9060ff16617ba4565b6000526011815260406000209060ff600660405193615c4885616f41565b604051615c59816103ce8185617106565b8552604051615c6f816103ce8160018601617106565b84860152604051615c87816103ce8160028601617106565b6040860152604051615ca0816103ce8160038601617106565b6060860152604051615cb9816103ce8160048601617106565b6080860152600581015460a0860152015416151560c083015261035e604051928284938452830190617302565b346105e257611399615cf736617058565b9060405192615d0584616fad565b60008452617658565b346105e25760003660031901126105e257615d27618716565b3360005260206013815260ff6040600020541615615e0e5733600052601a8152604060002054908115615dd157600d54808302908382040361142657615dcb92615d786064615dc5930480926186bc565b9233600052601a8152600060408120557f8ad64a0ac7700dd8425ab0499f107cb6e2cd1581d803c5b8c1c79dcb8190b1af60405191600083523392a26000546001600160a01b0316619248565b33619248565b60018055005b6064906040519062461bcd60e51b8252600482015260166024820152754e6f2062616c616e636520746f20776974686472617760501b6044820152fd5b6064906040519062461bcd60e51b82526004820152601b60248201527a26bab9ba1031329030903932b3b4b9ba32b932b21039b2b63632b960291b6044820152fd5b346105e2576020806003193601126105e2576001600160a01b039081615e74616edd565b16600052601c81526040600020805490615e8d82617f92565b92615e9b6040519485616fc8565b82845260009182528082208185015b848410615ebf576040518061035e8882617244565b600e83600192604051615ed181616f25565b85548152848601548382015260028601546040820152600386015460608201528a600487015416608082015260ff600587015460a08d8216818501521c16151560c0820152615f22600687016173c3565b60e0820152815201920193019290615eaa565b346105e25760203660031901126105e2576001600160a01b03615f56616edd565b166000526010602052615fc9604060002060405190615f79826133f98184617106565b604051615f8d816103ce8160018601617106565b615fe5604051615fa4816103ce8160028801617106565b615fd760ff60046003870154960154169360405197889760a0895260a0890190616bee565b908782036020890152616bee565b908582036040870152616bee565b916060840152151560808301520390f35b346105e2576160043661708d565b61600f92919261750d565b816000526020926019845261602a6040600020541515618607565b6160368151151561853b565b60008381526019855260409020815194906001908101906001600160401b03871161143c5761606987613a1384546170cc565b82601f88116001146160c85796808060199594936000805160206193dd833981519152999a6000936160bd575b501b916000199060031b1c19161790555b856000525261522a8260036040600020016178b7565b88015192508b616096565b96601f1981169783600052846000209860005b81811061612857509882916019969594936000805160206193dd8339815191529a9b1061610f575b5050811b0190556160a7565b87015160001960f88460031b161c191690558980616103565b878301518b55998401999186019186016160db565b346105e25760403660031901126105e257602480356004356000805b826000526015602090808252601091826040600020018054851015616353576161838589926186fa565b50541461619b575050506161969061847c565b616159565b919350919394600052601d815260ff9485604060002054161561631957806000528282526161cf85856040600020016186fa565b50600190810154909690336001600160a01b039182161490811561630b575b50156162b65781600052838352600461620d87876040600020016186fa565b50015416616279579161622e939160049593600052526040600020016186fa565b5001805460ff1916821790555b1561624257005b60649060106040519162461bcd60e51b8352602060048401528201526f14995d9a595dc81b9bdd08199bdd5b9960821b6044820152fd5b60405162461bcd60e51b8152600481018390526016818901527514995d9a595dc8185b1c9958591e4819195b195d195960521b6044820152606490fd5b60405162461bcd60e51b8152600481018490526028818a01527f4f6e6c79207265766965776572206f72206f776e65722063616e2064656c6574604482015267652072657669657760c01b6064820152608490fd5b6000541633149050896161ee565b50606491866040519262461bcd60e51b845260048401528201527414995d9a595dc8191bd95cc81b9bdd08195e1a5cdd605a1b6044820152fd5b505050505091505061623b565b346105e25761139961637136617058565b9161638461637f84336176f3565b6175f6565b6177bb565b346105e25760203660031901126105e2576004356163a561750d565b8060005260196020526163be6040600020541515618607565b8060005260196020526000805160206193dd83398151915261282a60406000206003810160ff198154169055604051918291604083526001604084019101617106565b346105e25760603660031901126105e257602480356004356044356001600160401b0381116105e25761643890369060040161703d565b90806000526020916015835260018060a01b036001604060002001541633146165915783151580616586575b15616542578051156165045790601592916001600a54019081600a556164886186c9565b958287523385880152604087015260608601524260a0860152600052601d82526040600020600160ff198254161790556000525260106040600020018054600160401b8110156148cd576164e1916001820181556186fa565b6164ef5761139992506180aa565b82634e487b7160e01b60005260006004526000fd5b60405162461bcd60e51b81526004810184905260178187015276436f6d6d656e742063616e6e6f7420626520656d70747960481b6044820152606490fd5b60405162461bcd60e51b815260048101849052601e818701527f526174696e67206d757374206265206265747765656e203120616e64203500006044820152606490fd5b506005841115616464565b60405162461bcd60e51b8152600481018490526026818701527f53656c6c65722063616e6e6f7420726576696577207468656972206f776e20706044820152651c9bd91d58dd60d21b6064820152608490fd5b346105e25760003660031901126105e2576165fd61750d565b33600052601e602052604060002060018060a01b031981541690556000805160206192fd8339815191526040805133815260006020820152a1005b346105e25760403660031901126105e257611399616654616ef3565b600435618ea2565b346105e25760203660031901126105e2576001600160a01b0361667d616edd565b166000526014602052602060ff604060002054166040519015158152f35b346105e25760403660031901126105e2576166b4616edd565b602435906001600160a01b0380806166cb856175ac565b169216918083146167c6578033149081156167a1575b501561673657600083815260066020526040902080546001600160a01b0319168317905561670e836175ac565b167f8c5be1e5ebec7d5bd14f71427d1e84f3dd0314c0f7b2291e5b200ac8c7c3b925600080a4005b60405162461bcd60e51b815260206004820152603d60248201527f4552433732313a20617070726f76652063616c6c6572206973206e6f7420746f60448201527f6b656e206f776e6572206f7220617070726f76656420666f7220616c6c0000006064820152608490fd5b9050600052600760205260406000203360005260205260ff60406000205416846166e1565b60405162461bcd60e51b815260206004820152602160248201527f4552433732313a20617070726f76616c20746f2063757272656e74206f776e656044820152603960f91b6064820152608490fd5b346105e25760203660031901126105e25760206159ff6004356175cf565b346105e25760003660031901126105e257604051600090600254616856816170cc565b80835260019180831690811561338d575060011461687e5761035e8361331f81870382616fc8565b6002600090815260209450917f405787fa12a823e0f2b7631cc41b3ba8828b3321ca811111fa75cd3aa3bb5ace5b8284106168c55750505081019091019061331f8161330f565b80548585018701529285019281016168ac565b346105e25760003660031901126105e25760088054600060015b82811115616b1257506169049061848b565b9060009260015b82811115616921576040518061035e8682616e7b565b80600052602060158152604060002090600f82015460ff926010908483831c16158061695c575b5050505050506169579061847c565b61690b565b60409a969a519561696c87616f09565b8254875260018301546001600160a01b031686880152604051616996816103ce8160028801617106565b60408801526040516169af816103ce8160038801617106565b606088015260048301546080880152600583015460a08801526006946169d68685016183b6565b60c08901526169e7600785016183b6565b60e08901526169f78a85016183b6565b610100890152604051616a11816103ce8160098901617106565b610120890152604051616a2b816103ce81600a8901617106565b610140890152600b840154610160890152604051616a50816103ce81600c8901617106565b610180890152604051616a6a816103ce81600d8901617106565b6101a0890152600e8401546101c089015281811615156101e0890152891c161515610200870152156102208601520190815491616aa683617f92565b93616ab46040519586616fc8565b8385526000918252808220918186015b858210616af657505050505050918161695793610240616aea94015261053982886184db565b94908680808080616948565b8483600192616b048761841b565b815201940191019092616ac4565b80600052601560205260ff600f6040600020015460101c1615616b3e575b616b399061847c565b6168f2565b90616b4b616b399161847c565b919050616b30565b346105e25760203660031901126105e25760043563ffffffff60e01b81168091036105e2576020906380ac58cd60e01b8114908115616bb0575b8115616b9f575b506040519015158152f35b6301ffc9a760e01b14905082616b94565b635b5e139f60e01b81149150616b8d565b346105e25760203660031901126105e257602090600435600052601d825260ff6040600020541615158152f35b919082519283825260005b848110616c1a575050826000602080949584010152601f8019910116010190565b602081830181015184830182015201616bf9565b908082519081815260208091019281808460051b8301019501936000915b848310616c5c5750505050505090565b9091929394958480616c7a600193601f198682030187528a51616bee565b9801930193019194939290616c4c565b908082519081815260208091019281808460051b8301019501936000915b848310616cb85750505050505090565b9091929394958480600192601f1985820301865289519081518152848060a01b0383830151168382015260408083015190820152616d056060808401519060c08091850152830190616bee565b9160808082015115159083015260a0809101519101529801930193019194939290616ca8565b90616e78918051825260018060a01b036020820151166020830152616e32616e1e616dff616deb616dd7616dc3616db1616d8b616d7960408a015160408c61026091829101528c0190616bee565b60608a01518b820360608d0152616bee565b608089015160808b015260a089015160a08b015260c08901518a820360c08c0152616c2e565b60e088015189820360e08b0152616c2e565b6101008088015190898303908a0152616c2e565b610120808701519088830390890152616bee565b610140808601519087830390880152616bee565b6101608085015190860152610180808501519086830390870152616bee565b6101a0808401519085830390860152616bee565b916101c080830151908201526101e08083015115159082015261020080830151151590820152610220808301511515908201526102408092015191818403910152616c8a565b90565b602080820190808352835180925260408301928160408460051b8301019501936000915b848310616eaf5750505050505090565b9091929394958480616ecd600193603f198682030187528a51616d2b565b9801930193019194939290616e9f565b600435906001600160a01b03821682036105e257565b602435906001600160a01b03821682036105e257565b61026081019081106001600160401b0382111761143c57604052565b61010081019081106001600160401b0382111761143c57604052565b60e081019081106001600160401b0382111761143c57604052565b608081019081106001600160401b0382111761143c57604052565b60a081019081106001600160401b0382111761143c57604052565b60c081019081106001600160401b0382111761143c57604052565b602081019081106001600160401b0382111761143c57604052565b601f909101601f19168101906001600160401b0382119082101761143c57604052565b6001600160401b03811161143c57601f01601f191660200190565b92919261701282616feb565b916170206040519384616fc8565b8294818452818301116105e2578281602093846000960137010152565b9080601f830112156105e257816020616e7893359101617006565b60609060031901126105e2576001600160a01b039060043582811681036105e2579160243590811681036105e2579060443590565b9060606003198301126105e25760043591602435906001600160401b0382116105e2576170bc9160040161703d565b9060443580151581036105e25790565b90600182811c921680156170fc575b60208310146170e657565b634e487b7160e01b600052602260045260246000fd5b91607f16916170db565b9060009291805491617117836170cc565b9182825260019384811690816000146171795750600114617139575b50505050565b90919394506000526020928360002092846000945b838610617165575050505001019038808080617133565b80548587018301529401938590820161714e565b9294505050602093945060ff191683830152151560051b01019038808080617133565b616e789160e061723361722161720f6171fd6171eb6171d96171c78951610100808b528a0190616bee565b60208a015189820360208b0152616bee565b604089015188820360408a0152616bee565b60608801518782036060890152616bee565b60808701518682036080880152616bee565b60a086015185820360a0870152616bee565b60c085015184820360c0860152616bee565b9201519060e0818403910152616bee565b602080820190808352835180925260409283810182858560051b8401019601946000925b858410617279575050505050505090565b9091929394959685806172f1600193603f198682030188528b51805182528381015184830152878101518883015260608082015190830152858060a01b0360808181840151169084015260a09081830151169083015260c08082015115159083015260e080910151916101008092820152019061719c565b990194019401929594939190617268565b9060c08061736d61735b617349617337617325885160e0895260e0890190616bee565b602089015188820360208a0152616bee565b60408801518782036040890152616bee565b60608701518682036060880152616bee565b60808601518582036080870152616bee565b9360a081015160a08501520151151591015290565b906004821015611b115752565b80548210156123055760005260206000200190600090565b805482101561230557600052600e602060002091020190600090565b90600760e060409361748b8551916173da83616f25565b610630839780516173ef816103ce8187617106565b85528051617404816103ce8160018801617106565b6020860152805161741c816103ce8160028801617106565b818601528051617433816103ce8160038801617106565b6060860152805161744b816103ce8160048801617106565b60808601528051617463816103ce8160058801617106565b60a0860152805161747b816103ce8160068801617106565b60c0860152518096819301617106565b0152565b95929091616e789897959492875260208701526040860152606085015260018060a01b0380921660808501521660a0830152151560c0820152610100908160e0820152019061719c565b90815180825260208080930193019160005b8281106174f9575050505090565b8351855293810193928101926001016174eb565b6000546001600160a01b0316330361752157565b606460405162461bcd60e51b815260206004820152602060248201527f4f776e61626c653a2063616c6c6572206973206e6f7420746865206f776e65726044820152fd5b1561756c57565b60405162461bcd60e51b8152602060048201526018602482015277115490cdcc8c4e881a5b9d985b1a59081d1bdad95b88125160421b6044820152606490fd5b6000908152600460205260409020546001600160a01b0316616e78811515617565565b6175db612855826178c8565b6000908152600660205260409020546001600160a01b031690565b156175fd57565b60405162461bcd60e51b815260206004820152602d60248201527f4552433732313a2063616c6c6572206973206e6f7420746f6b656e206f776e6560448201526c1c881bdc88185c1c1c9bdd9959609a1b6064820152608490fd5b9061767c93929161766c61637f84336176f3565b6176778383836177bb565b617915565b1561768357565b60405162461bcd60e51b81528061769c600482016176a0565b0390fd5b60809060208152603260208201527f4552433732313a207472616e7366657220746f206e6f6e20455243373231526560408201527131b2b4bb32b91034b6b83632b6b2b73a32b960711b60608201520190565b906001600160a01b038080617707846175ac565b1693169183831493841561773a575b508315617724575b50505090565b617730919293506175cf565b161438808061771e565b909350600052600760205260406000208260005260205260ff604060002054169238617716565b1561776857565b60405162461bcd60e51b815260206004820152602560248201527f4552433732313a207472616e736665722066726f6d20696e636f72726563742060448201526437bbb732b960d91b6064820152608490fd5b906177e3916177c9846175ac565b6001600160a01b0393918416928492909183168414617761565b169182156178665781617800916177f9866175ac565b1614617761565b60008051602061939d833981519152600084815260066020526040812060018060a01b03199081815416905583825260056020526040822060001981540190558482526040822060018154019055858252600460205284604083209182541617905580a4565b60405162461bcd60e51b8152602060048201526024808201527f4552433732313a207472616e7366657220746f20746865207a65726f206164646044820152637265737360e01b6064820152608490fd5b9060ff801983541691151516179055565b6000908152600460205260409020546001600160a01b0316151590565b3d15617910573d906178f682616feb565b916179046040519384616fc8565b82523d6000602084013e565b606090565b91926000929190813b15617a0a5760209161796b9185604051958680958194630a85bd0160e11b9b8c845233600485015260018060a01b0380951660248501526044840152608060648401526084830190616bee565b0393165af1908290826179bb575b50506179ad576179876178e5565b805190816179a85760405162461bcd60e51b81528061769c600482016176a0565b602001fd5b6001600160e01b0319161490565b909192506020813d8211617a02575b816179d760209383616fc8565b810103126179fe5751906001600160e01b0319821682036179fb5750903880617979565b80fd5b5080fd5b3d91506179ca565b5050505050600190565b15617a1b57565b60405162461bcd60e51b815260206004820152600f60248201526e496e76616c6964206164647265737360881b6044820152606490fd5b15617a5957565b60405162461bcd60e51b81526020600482015260146024820152734e616d652063616e6e6f7420626520656d70747960601b6044820152606490fd5b818110617aa0575050565b60008155600101617a95565b9190601f8111617abb57505050565b617ae7926000526020600020906020601f840160051c83019310617ae9575b601f0160051c0190617a95565b565b9091508190617ada565b15617afa57565b60405162461bcd60e51b815260206004820152600e60248201526d115b585a5b081c995c5d5a5c995960921b6044820152606490fd5b15617b3757565b60405162461bcd60e51b815260206004820152600e60248201526d141a1bdb99481c995c5d5a5c995960921b6044820152606490fd5b60405190617b7a82616f41565b600060c0836060808252806020830152806040830152808083015260808201528260a08201520152565b15617bab57565b60405162461bcd60e51b815260206004820152601560248201527414d95b1b195c881b9bdd081c9959da5cdd195c9959605a1b6044820152606490fd5b6001600160a01b03908116908115617c1e57600054168114617c1857600052601260205260ff6040600020541690565b50600290565b60405162461bcd60e51b8152602060048201526016602482015275496e76616c69642073656c6c6572206164647265737360501b6044820152606490fd5b903590601e19813603018212156105e257018035906001600160401b0382116105e2576020019181360383136105e257565b15617c9557565b60405162461bcd60e51b815260206004820152601c60248201527b05072696365206d7573742062652067726561746572207468616e20360241b6044820152606490fd5b15617ce057565b60405162461bcd60e51b815260206004820152601c60248201527b053746f636b206d7573742062652067726561746572207468616e20360241b6044820152606490fd5b15617d2b57565b60405162461bcd60e51b815260206004820152601d60248201527f576569676874206d7573742062652067726561746572207468616e20300000006044820152606490fd5b15617d7757565b60405162461bcd60e51b81526020600482015260156024820152744d6f64656c2063616e6e6f7420626520656d70747960581b6044820152606490fd5b15617dbb57565b60405162461bcd60e51b81526020600482015260156024820152744272616e642063616e6e6f7420626520656d70747960581b6044820152606490fd5b15617dff57565b60405162461bcd60e51b815260206004820152601a6024820152790534b55206d7573742062652067726561746572207468616e20360341b6044820152606490fd5b903590601e19813603018212156105e257018035906001600160401b0382116105e257602001918160051b360383136105e257565b15617e7d57565b60405162461bcd60e51b8152602060048201526016602482015275496d616765732063616e6e6f7420626520656d70747960501b6044820152606490fd5b15617ec257565b60405162461bcd60e51b815260206004820152601c60248201527b496d616765732063616e6e6f74206265206d6f7265207468616e203560201b6044820152606490fd5b60405190617f1382616f09565b8161024060009182815282602082015260609283604083015283808301528060808301528060a08301528360c08301528360e08301528361010083015283610120830152836101408301528061016083015283610180830152836101a0830152806101c0830152806101e0830152806102008301526102208201520152565b6001600160401b03811161143c5760051b60200190565b92919092617fb684617f92565b91617fc46040519384616fc8565b829480845260208094019060051b8301928284116105e25780915b848310617fee57505050505050565b82356001600160401b0381116105e257869161800d868493860161703d565b815201920191617fdf565b61802281546170cc565b908161802c575050565b81601f6000931160011461803e575055565b90808391825261805d601f60208420940160051c840160018501617a95565b5555565b90600160401b811161143c5781549181815582821061807f57505050565b600052602060002091820191015b818110618098575050565b806180a4600192618018565b0161808d565b81518155602080830151600180840180546001600160a01b0319166001600160a01b03939093169290921790915560408401516002840155606084015180519394909390926003860192906001600160401b03831161143c576181118361447d86546170cc565b80601f841160011461816957509180809260a096959460059860009461815e575b50501b916000199060031b1c19161790555b61815760808201511515600486016178b7565b0151910155565b015192503880618132565b91939495601f1984168660005283600020936000905b8282106181c1575050916005979593918560a0989694106181a8575b505050811b019055618144565b015160001960f88460031b161c1916905538808061819b565b80888697829497870151815501960194019061817f565b8054600160401b81101561143c576181f59160018201815561738f565b819291549060031b91821b91600019901b1916179055565b1561821457565b60405162461bcd60e51b815260206004820152601c60248201527b115490cdcc8c4e881d1bdad95b88185b1c9958591e481b5a5b9d195960221b6044820152606490fd5b1561825f57565b60405162461bcd60e51b8152602060048201526016602482015275141c9bd91d58dd08191bd95cc81b9bdd08195e1a5cdd60521b6044820152606490fd5b156182a457565b60405162461bcd60e51b8152602060048201526012602482015271141c9bd91d58dd081a5cc819195b195d195960721b6044820152606490fd5b908082146183b2576182f081546170cc565b906001600160401b03821161143c57819061830f8261447d86546170cc565b600090601f83116001146183465760009261833b575b50508160011b916000199060031b1c1916179055565b015490503880618325565b81526020808220858352818320935090601f1985169083905b828210618399575050908460019594939210618380575b505050811b019055565b015460001960f88460031b161c19169055388080618376565b849581929585015481556001809101960194019061835f565b5050565b9081546183c281617f92565b926040936183d285519182616fc8565b828152809460208092019260005281600020906000935b8585106183f857505050505050565b6001848192845161840d816103ce818a617106565b8152019301940193916183e9565b9060405161842881616f92565b60a06005829480548452600180841b03600182015416602085015260028101546040850152604051618461816103ce8160038601617106565b606085015260ff600482015416151560808501520154910152565b60001981146114265760010190565b9061849582617f92565b6184a26040519182616fc8565b82815280926184b3601f1991617f92565b019060005b8281106184c457505050565b6020906184cf617f06565b828285010152016184b8565b80518210156123055760209160051b010190565b156184f657565b60405162461bcd60e51b815260206004820152601d60248201527f43617465676f7279206e616d652063616e6e6f7420626520656d7074790000006044820152606490fd5b1561854257565b606460405162461bcd60e51b815260206004820152602060248201527f53756263617465676f7279206e616d652063616e6e6f7420626520656d7074796044820152fd5b908210156123055761859d9160051b810190617c5c565b9091565b156185a857565b60405162461bcd60e51b815260206004820152601760248201527610d85d1959dbdc9e48191bd95cc81b9bdd08195e1a5cdd604a1b6044820152606490fd5b906185ff602091949394604084526040840190616bee565b931515910152565b1561860e57565b60405162461bcd60e51b815260206004820152601a60248201527914dd5898d85d1959dbdc9e48191bd95cc81b9bdd08195e1a5cdd60321b6044820152606490fd5b9060405191828154918282526020928383019160005283600020936000905b82821061868557505050617ae792500383616fc8565b85548452600195860195889550938101939091019061866f565b60005b8281106186ae57505050565b6060828201526020016186a2565b9190820391821161142657565b604051906186d682616f92565b600060a0838281528260208201528260408201526060808201528260808201520152565b8054821015612305576000526006602060002091020190600090565b600260015414618727576002600155565b60405162461bcd60e51b815260206004820152601f60248201527f5265656e7472616e637947756172643a207265656e7472616e742063616c6c006044820152606490fd5b8054600160401b81101561143c5761878b9060019283820181556173a7565b929092618e325780518355602080820151838501556040820151600285015560608201516003808601919091556080830151600480870180546001600160a01b0319166001600160a01b0393841617905560a08086015160058901805460c08901516001600160a81b0319909116929095169190911793151590911b60ff60a01b169290921790915560e0909301518051805191966001600160401b039593949193926006820190878111618e1d5761884881613a1384546170cc565b8084601f97888311600114618dbb57600092618db0575b505060001982891b1c191690891b1790555b6007810182890151805190888211618b7a5781906188938261447d86546170cc565b8590888311600114618d4e57600092618d43575b505060001982891b1c191690891b1790555b600881016040890151805190888211618b7a5781906188dc8261447d86546170cc565b8590888311600114618ce157600092618cd6575b505060001982891b1c191690891b1790555b600981016060890151805190888211618b7a5781906189258261447d86546170cc565b8590888311600114618c7457600092618c69575b505060001982891b1c191690891b1790555b600a81016080890151805190888211618b7a57819061896e8261447d86546170cc565b8590888311600114618c0757600092618bfc575b505060001982891b1c191690891b1790555b600b810160a0890151805190888211618b7a5781906189b78261447d86546170cc565b8590888311600114618b9a57600092618b8f575b505060001982891b1c191690891b1790555b600c810160c0890151805190888211618b7a576189fe82611c0085546170cc565b8490878311600114618b0d579180600d949260e09694600092618b02575b5050600019828b1b1c1916908b1b1790555b01970151918251958611618aed5750618a5185618a4b89546170cc565b89617aac565b80928511600114618a875750938394918492600095618a7c575b50501b92600019911b1c1916179055565b015193503880618a6b565b92919084601f1981168860005285600020956000905b89838310618ad35750505010618ab9575b50505050811b019055565b01519060f884600019921b161c1916905538808080618aae565b858701518955909701969485019488935090810190618a9d565b604190634e487b7160e01b6000525260246000fd5b015190503880618a1c565b8a9291601f1983169185600052876000209260005b89828210618b645750509160e09795939185600d98969410618b4c575b505050811b019055618a2e565b0151600019838d1b60f8161c19169055388080618b3f565b8385015186558f97909501949384019301618b22565b604186634e487b7160e01b6000525260246000fd5b0151905038806189cb565b908b9350601f1983169185600052876000209260005b89828210618be65750508411618bce575b505050811b0190556189dd565b0151600019838b1b60f8161c19169055388080618bc1565b8385015186558f97909501949384019301618bb0565b015190503880618982565b908b9350601f1983169185600052876000209260005b89828210618c535750508411618c3b575b505050811b019055618994565b0151600019838b1b60f8161c19169055388080618c2e565b8385015186558f97909501949384019301618c1d565b015190503880618939565b908b9350601f1983169185600052876000209260005b89828210618cc05750508411618ca8575b505050811b01905561894b565b0151600019838b1b60f8161c19169055388080618c9b565b8385015186558f97909501949384019301618c8a565b0151905038806188f0565b908b9350601f1983169185600052876000209260005b89828210618d2d5750508411618d15575b505050811b019055618902565b0151600019838b1b60f8161c19169055388080618d08565b8385015186558f97909501949384019301618cf7565b0151905038806188a7565b908b9350601f1983169185600052876000209260005b89828210618d9a5750508411618d82575b505050811b0190556188b9565b0151600019838b1b60f8161c19169055388080618d75565b8385015186558f97909501949384019301618d64565b01519050388061885f565b908b9350601f1983169185600052876000209260005b89828210618e075750508411618def575b505050811b019055618871565b0151600019838b1b60f8161c19169055388080618de2565b8385015186558f97909501949384019301618dd1565b604185634e487b7160e01b6000525260246000fd5b634e487b7160e01b600052600060045260246000fd5b15618e4f57565b60405162461bcd60e51b815260206004820152602560248201527f4f6e6c792076657269666965642073656c6c6572206f72206f776e657220616c6044820152641b1bddd95960da1b6064820152608490fd5b6000805490939291906001600160a01b039081163314618f8557338552601e60205260408520548116908115618f2f57818652601260205260ff6040872054166004811015618f1b5791617ae79596916002618f099414928315618f0e575b505050618e48565b618f8d565b5416149050388080618f01565b634e487b7160e01b87526021600452602487fd5b9050601260205260ff6040862054166004811015618f715794618f09916002617ae7969714918215618f63575b5050618e48565b909150541633143880618f5c565b634e487b7160e01b86526021600452602486fd5b50617ae79293505b600091825b60018060a01b0380831680600052601b602081815260409283600020805487101561923a57618fc2878a926173a7565b505414618fdc575050505050618fd79061847c565b618f92565b809192939496979850600052828252618ff885856000206173a7565b509560ff60058098015460a01c166191fa5781600052838352808761902088886000206173a7565b5001541633149081156191ec575b5015619195579061904894939291600052526000206173a7565b5001805460ff60a01b1916600160a01b17905560015b1561915b57816000526020916015835260018060a01b039260019384936040828682600020015416866000905b6190ad575b505060008051602061931d833981519152949550519586521693a3565b81600052601c808752836000208054831015619154576190ce838a926173a7565b5054148061912f575b6190eb57506190e59061847c565b8761908b565b60008051602061931d83398151915297985090619113916005936000528752836000206173a7565b5001805460ff60a01b1916600160a01b17905586959438619090565b508260005280875285600461914784876000206173a7565b50015416868616146190d7565b5050619090565b60405162461bcd60e51b8152602060048201526012602482015271141d5c98da185cd9481b9bdd08199bdd5b9960721b6044820152606490fd5b835162461bcd60e51b815260048101839052602a60248201527f4f6e6c792073656c6c6572206f72206f776e65722063616e206d61726b2061736044820152690819195b1a5d995c995960b21b6064820152608490fd5b60005416331490503861902e565b6064838587519162461bcd60e51b8352600483015260248201527a105b1c9958591e481b585c9ad95908185cc819195b1a5d995c9959602a1b6044820152fd5b50505050505050909161905e565b6000918291829182916001600160a01b0316619265811515617a14565b5af161926f6178e5565b501561927757565b60405162461bcd60e51b815260206004820152600f60248201526e151c985b9cd9995c8819985a5b1959608a1b6044820152606490fd5b600090600e8054925b8381106192c75750505050600090565b6000828152602090208101546001600160a01b038481169116146192f3576192ee9061847c565b6192b7565b5050505060019056fe32b449308c94e824ccedd9877932cd82f89a481c06c4643a0cb2914454a8c582f9dc8543b583e01f592678422369b2777e3649761f5808ae432cb1c24ca9438c79d3150b1760cd391f5006c9543aea088e4c9060f3e582ea0a948dc6649b25da8be0079c531659141344cd1fd0a4f28419497f9722a3daafe3b4186f6b6457e0d8f7bcb2c5cffc294a0aaef719685993d7be95273fb8254803a1563510ccefedddf252ad1be2c89b69c2b068fc378daa952ba7f163c4a11628f55a4df523b3ef5a8a989e12f3ce7cf805b73156a361da5d8369f0c37173209308910b322117ac4cfca6396923c3eee68be58aa35fd6623ae5d67bb552da5e1de2e0d5854166dc8d1108e10bcb7c27dddfc02ed9d693a074039d026cf4ea4240b40f7d581ac802a164736f6c6343000813000a",
  "linkReferences": {},
  "deployedLinkReferences": {}
}