{
  "_format": "hh-sol-artifact-1",
  "contractName": "HemShop",
  "sourceName": "contracts/HemShop.sol",
  "abi": [
    {
      "inputs": [
        {
          "internalType": "uint256",
          "name": "_pct",
          "type": "uint256"
        }
      ],
      "stateMutability": "nonpayable",
      "type": "constructor"
    },
    {
      "anonymous": false,
      "inputs": [
        {
          "indexed": false,
          "internalType": "address",
          "name": "admin",
          "type": "address"
        },
        {
          "indexed": false,
          "internalType": "address",
          "name": "impersonatedAccount",
          "type": "address"
        }
      ],
      "name": "AdminImpersonationChanged",
      "type": "event"
    },
    {
      "anonymous": false,
      "inputs": [
        {
          "indexed": true,
          "internalType": "address",
          "name": "owner",
          "type": "address"
        },
        {
          "indexed": true,
          "internalType": "address",
          "name": "approved",
          "type": "address"
        },
        {
          "indexed": true,
          "internalType": "uint256",
          "name": "tokenId",
          "type": "uint256"
        }
      ],
      "name": "Approval",
      "type": "event"
    },
    {
      "anonymous": false,
      "inputs": [
        {
          "indexed": true,
          "internalType": "address",
          "name": "owner",
          "type": "address"
        },
        {
          "indexed": true,
          "internalType": "address",
          "name": "operator",
          "type": "address"
        },
        {
          "indexed": false,
          "internalType": "bool",
          "name": "approved",
          "type": "bool"
        }
      ],
      "name": "ApprovalForAll",
      "type": "event"
    },
    {
      "anonymous": false,
      "inputs": [
        {
          "indexed": true,
          "internalType": "address",
          "name": "seller",
          "type": "address"
        },
        {
          "indexed": false,
          "internalType": "uint256",
          "name": "newBalance",
          "type": "uint256"
        }
      ],
      "name": "BalanceUpdated",
      "type": "event"
    },
    {
      "anonymous": false,
      "inputs": [
        {
          "indexed": true,
          "internalType": "uint256",
          "name": "productId",
          "type": "uint256"
        },
        {
          "indexed": true,
          "internalType": "address",
          "name": "buyer",
          "type": "address"
        },
        {
          "indexed": false,
          "internalType": "bool",
          "name": "isDelivered",
          "type": "bool"
        }
      ],
      "name": "DeliveryStatusUpdated",
      "type": "event"
    },
    {
      "anonymous": false,
      "inputs": [
        {
          "indexed": true,
          "internalType": "address",
          "name": "previousOwner",
          "type": "address"
        },
        {
          "indexed": true,
          "internalType": "address",
          "name": "newOwner",
          "type": "address"
        }
      ],
      "name": "OwnershipTransferred",
      "type": "event"
    },
    {
      "anonymous": false,
      "inputs": [
        {
          "indexed": true,
          "internalType": "uint256",
          "name": "productId",
          "type": "uint256"
        },
        {
          "indexed": true,
          "internalType": "address",
          "name": "buyer",
          "type": "address"
        },
        {
          "indexed": true,
          "internalType": "address",
          "name": "seller",
          "type": "address"
        },
        {
          "indexed": false,
          "internalType": "uint256",
          "name": "price",
          "type": "uint256"
        },
        {
          "indexed": false,
          "internalType": "uint256",
          "name": "timestamp",
          "type": "uint256"
        }
      ],
      "name": "ProductPurchased",
      "type": "event"
    },
    {
      "anonymous": false,
      "inputs": [
        {
          "indexed": true,
          "internalType": "uint256",
          "name": "productId",
          "type": "uint256"
        },
        {
          "indexed": true,
          "internalType": "address",
          "name": "buyer",
          "type": "address"
        },
        {
          "indexed": true,
          "internalType": "address",
          "name": "seller",
          "type": "address"
        },
        {
          "indexed": false,
          "internalType": "uint256",
          "name": "totalAmount",
          "type": "uint256"
        },
        {
          "indexed": false,
          "internalType": "uint256",
          "name": "basePrice",
          "type": "uint256"
        },
        {
          "indexed": false,
          "internalType": "uint256",
          "name": "timestamp",
          "type": "uint256"
        }
      ],
      "name": "PurchaseRecorded",
      "type": "event"
    },
    {
      "anonymous": false,
      "inputs": [
        {
          "indexed": true,
          "internalType": "address",
          "name": "seller",
          "type": "address"
        },
        {
          "indexed": false,
          "internalType": "uint256",
          "name": "timestamp",
          "type": "uint256"
        }
      ],
      "name": "SellerRegistered",
      "type": "event"
    },
    {
      "anonymous": false,
      "inputs": [
        {
          "indexed": true,
          "internalType": "address",
          "name": "seller",
          "type": "address"
        },
        {
          "indexed": false,
          "internalType": "enum HemShop.SellerStatus",
          "name": "status",
          "type": "uint8"
        }
      ],
      "name": "SellerStatusUpdated",
      "type": "event"
    },
    {
      "anonymous": false,
      "inputs": [
        {
          "indexed": true,
          "internalType": "address",
          "name": "from",
          "type": "address"
        },
        {
          "indexed": true,
          "internalType": "address",
          "name": "to",
          "type": "address"
        },
        {
          "indexed": true,
          "internalType": "uint256",
          "name": "tokenId",
          "type": "uint256"
        }
      ],
      "name": "Transfer",
      "type": "event"
    },
    {
      "inputs": [
        {
          "internalType": "address",
          "name": "",
          "type": "address"
        }
      ],
      "name": "adminImpersonating",
      "outputs": [
        {
          "internalType": "address",
          "name": "",
          "type": "address"
        }
      ],
      "stateMutability": "view",
      "type": "function"
    },
    {
      "inputs": [
        {
          "internalType": "address",
          "name": "to",
          "type": "address"
        },
        {
          "internalType": "uint256",
          "name": "tokenId",
          "type": "uint256"
        }
      ],
      "name": "approve",
      "outputs": [],
      "stateMutability": "nonpayable",
      "type": "function"
    },
    {
      "inputs": [
        {
          "internalType": "address",
          "name": "owner",
          "type": "address"
        }
      ],
      "name": "balanceOf",
      "outputs": [
        {
          "internalType": "uint256",
          "name": "",
          "type": "uint256"
        }
      ],
      "stateMutability": "view",
      "type": "function"
    },
    {
      "inputs": [
        {
          "internalType": "uint256",
          "name": "productId",
          "type": "uint256"
        },
        {
          "components": [
            {
              "internalType": "string",
              "name": "fullName",
              "type": "string"
            },
            {
              "internalType": "string",
              "name": "streetAddress",
              "type": "string"
            },
            {
              "internalType": "string",
              "name": "city",
              "type": "string"
            },
            {
              "internalType": "string",
              "name": "state",
              "type": "string"
            },
            {
              "internalType": "string",
              "name": "country",
              "type": "string"
            },
            {
              "internalType": "string",
              "name": "postalCode",
              "type": "string"
            },
            {
              "internalType": "string",
              "name": "phone",
              "type": "string"
            },
            {
              "internalType": "string",
              "name": "email",
              "type": "string"
            }
          ],
          "internalType": "struct HemShop.ShippingDetails",
          "name": "shippingDetails",
          "type": "tuple"
        }
      ],
      "name": "buyProduct",
      "outputs": [],
      "stateMutability": "payable",
      "type": "function"
    },
    {
      "inputs": [
        {
          "internalType": "address",
          "name": "",
          "type": "address"
        },
        {
          "internalType": "uint256",
          "name": "",
          "type": "uint256"
        }
      ],
      "name": "buyerPurchaseHistory",
      "outputs": [
        {
          "internalType": "uint256",
          "name": "productId",
          "type": "uint256"
        },
        {
          "internalType": "uint256",
          "name": "totalAmount",
          "type": "uint256"
        },
        {
          "internalType": "uint256",
          "name": "basePrice",
          "type": "uint256"
        },
        {
          "internalType": "uint256",
          "name": "timestamp",
          "type": "uint256"
        },
        {
          "internalType": "address",
          "name": "buyer",
          "type": "address"
        },
        {
          "internalType": "address",
          "name": "seller",
          "type": "address"
        },
        {
          "internalType": "bool",
          "name": "isDelivered",
          "type": "bool"
        },
        {
          "components": [
            {
              "internalType": "string",
              "name": "fullName",
              "type": "string"
            },
            {
              "internalType": "string",
              "name": "streetAddress",
              "type": "string"
            },
            {
              "internalType": "string",
              "name": "city",
              "type": "string"
            },
            {
              "internalType": "string",
              "name": "state",
              "type": "string"
            },
            {
              "internalType": "string",
              "name": "country",
              "type": "string"
            },
            {
              "internalType": "string",
              "name": "postalCode",
              "type": "string"
            },
            {
              "internalType": "string",
              "name": "phone",
              "type": "string"
            },
            {
              "internalType": "string",
              "name": "email",
              "type": "string"
            }
          ],
          "internalType": "struct HemShop.ShippingDetails",
          "name": "shippingDetails",
          "type": "tuple"
        }
      ],
      "stateMutability": "view",
      "type": "function"
    },
    {
      "inputs": [
        {
          "internalType": "uint256",
          "name": "newPct",
          "type": "uint256"
        }
      ],
      "name": "changeServicePct",
      "outputs": [],
      "stateMutability": "nonpayable",
      "type": "function"
    },
    {
      "inputs": [
        {
          "components": [
            {
              "internalType": "string",
              "name": "name",
              "type": "string"
            },
            {
              "internalType": "string",
              "name": "description",
              "type": "string"
            },
            {
              "internalType": "uint256",
              "name": "price",
              "type": "uint256"
            },
            {
              "internalType": "uint256",
              "name": "stock",
              "type": "uint256"
            },
            {
              "internalType": "string",
              "name": "color",
              "type": "string"
            },
            {
              "internalType": "string",
              "name": "size",
              "type": "string"
            },
            {
              "internalType": "string[]",
              "name": "images",
              "type": "string[]"
            },
            {
              "internalType": "string",
              "name": "category",
              "type": "string"
            },
            {
              "internalType": "string",
              "name": "subCategory",
              "type": "string"
            },
            {
              "internalType": "string",
              "name": "model",
              "type": "string"
            },
            {
              "internalType": "string",
              "name": "brand",
              "type": "string"
            },
            {
              "internalType": "uint256",
              "name": "weight",
              "type": "uint256"
            },
            {
              "internalType": "uint256",
              "name": "sku",
              "type": "uint256"
            }
          ],
          "internalType": "struct HemShop.ProductInput",
          "name": "input",
          "type": "tuple"
        }
      ],
      "name": "createProduct",
      "outputs": [],
      "stateMutability": "nonpayable",
      "type": "function"
    },
    {
      "inputs": [
        {
          "internalType": "uint256",
          "name": "productId",
          "type": "uint256"
        },
        {
          "internalType": "uint256",
          "name": "rating",
          "type": "uint256"
        },
        {
          "internalType": "string",
          "name": "comment",
          "type": "string"
        }
      ],
      "name": "createReview",
      "outputs": [],
      "stateMutability": "nonpayable",
      "type": "function"
    },
    {
      "inputs": [
        {
          "internalType": "uint256",
          "name": "productId",
          "type": "uint256"
        }
      ],
      "name": "deleteProduct",
      "outputs": [],
      "stateMutability": "nonpayable",
      "type": "function"
    },
    {
      "inputs": [
        {
          "internalType": "uint256",
          "name": "productId",
          "type": "uint256"
        },
        {
          "internalType": "uint256",
          "name": "reviewId",
          "type": "uint256"
        }
      ],
      "name": "deleteReview",
      "outputs": [],
      "stateMutability": "nonpayable",
      "type": "function"
    },
    {
      "inputs": [],
      "name": "getAllProducts",
      "outputs": [
        {
          "components": [
            {
              "internalType": "uint256",
              "name": "id",
              "type": "uint256"
            },
            {
              "internalType": "address",
              "name": "seller",
              "type": "address"
            },
            {
              "internalType": "string",
              "name": "name",
              "type": "string"
            },
            {
              "internalType": "string",
              "name": "description",
              "type": "string"
            },
            {
              "internalType": "uint256",
              "name": "price",
              "type": "uint256"
            },
            {
              "internalType": "uint256",
              "name": "stock",
              "type": "uint256"
            },
            {
              "internalType": "string",
              "name": "color",
              "type": "string"
            },
            {
              "internalType": "string",
              "name": "size",
              "type": "string"
            },
            {
              "internalType": "string[]",
              "name": "images",
              "type": "string[]"
            },
            {
              "internalType": "string",
              "name": "category",
              "type": "string"
            },
            {
              "internalType": "string",
              "name": "subCategory",
              "type": "string"
            },
            {
              "internalType": "uint256",
              "name": "weight",
              "type": "uint256"
            },
            {
              "internalType": "string",
              "name": "model",
              "type": "string"
            },
            {
              "internalType": "string",
              "name": "brand",
              "type": "string"
            },
            {
              "internalType": "uint256",
              "name": "sku",
              "type": "uint256"
            },
            {
              "internalType": "bool",
              "name": "soldout",
              "type": "bool"
            },
            {
              "internalType": "bool",
              "name": "wishlist",
              "type": "bool"
            },
            {
              "internalType": "bool",
              "name": "deleted",
              "type": "bool"
            },
            {
              "components": [
                {
                  "internalType": "uint256",
                  "name": "reviewId",
                  "type": "uint256"
                },
                {
                  "internalType": "address",
                  "name": "reviewer",
                  "type": "address"
                },
                {
                  "internalType": "uint256",
                  "name": "rating",
                  "type": "uint256"
                },
                {
                  "internalType": "string",
                  "name": "comment",
                  "type": "string"
                },
                {
                  "internalType": "bool",
                  "name": "deleted",
                  "type": "bool"
                }
              ],
              "internalType": "struct HemShop.ReviewStruct[]",
              "name": "reviews",
              "type": "tuple[]"
            }
          ],
          "internalType": "struct HemShop.ProductStruct[]",
          "name": "",
          "type": "tuple[]"
        }
      ],
      "stateMutability": "view",
      "type": "function"
    },
    {
      "inputs": [
        {
          "internalType": "uint256",
          "name": "tokenId",
          "type": "uint256"
        }
      ],
      "name": "getApproved",
      "outputs": [
        {
          "internalType": "address",
          "name": "",
          "type": "address"
        }
      ],
      "stateMutability": "view",
      "type": "function"
    },
    {
      "inputs": [
        {
          "internalType": "address",
          "name": "buyer",
          "type": "address"
        }
      ],
      "name": "getBuyerPurchaseHistory",
      "outputs": [
        {
          "components": [
            {
              "internalType": "uint256",
              "name": "productId",
              "type": "uint256"
            },
            {
              "internalType": "uint256",
              "name": "totalAmount",
              "type": "uint256"
            },
            {
              "internalType": "uint256",
              "name": "basePrice",
              "type": "uint256"
            },
            {
              "internalType": "uint256",
              "name": "timestamp",
              "type": "uint256"
            },
            {
              "internalType": "address",
              "name": "buyer",
              "type": "address"
            },
            {
              "internalType": "address",
              "name": "seller",
              "type": "address"
            },
            {
              "internalType": "bool",
              "name": "isDelivered",
              "type": "bool"
            },
            {
              "components": [
                {
                  "internalType": "string",
                  "name": "fullName",
                  "type": "string"
                },
                {
                  "internalType": "string",
                  "name": "streetAddress",
                  "type": "string"
                },
                {
                  "internalType": "string",
                  "name": "city",
                  "type": "string"
                },
                {
                  "internalType": "string",
                  "name": "state",
                  "type": "string"
                },
                {
                  "internalType": "string",
                  "name": "country",
                  "type": "string"
                },
                {
                  "internalType": "string",
                  "name": "postalCode",
                  "type": "string"
                },
                {
                  "internalType": "string",
                  "name": "phone",
                  "type": "string"
                },
                {
                  "internalType": "string",
                  "name": "email",
                  "type": "string"
                }
              ],
              "internalType": "struct HemShop.ShippingDetails",
              "name": "shippingDetails",
              "type": "tuple"
            }
          ],
          "internalType": "struct HemShop.PurchaseHistoryStruct[]",
          "name": "",
          "type": "tuple[]"
        }
      ],
      "stateMutability": "view",
      "type": "function"
    },
    {
      "inputs": [],
      "name": "getMyProducts",
      "outputs": [
        {
          "components": [
            {
              "internalType": "uint256",
              "name": "id",
              "type": "uint256"
            },
            {
              "internalType": "address",
              "name": "seller",
              "type": "address"
            },
            {
              "internalType": "string",
              "name": "name",
              "type": "string"
            },
            {
              "internalType": "string",
              "name": "description",
              "type": "string"
            },
            {
              "internalType": "uint256",
              "name": "price",
              "type": "uint256"
            },
            {
              "internalType": "uint256",
              "name": "stock",
              "type": "uint256"
            },
            {
              "internalType": "string",
              "name": "color",
              "type": "string"
            },
            {
              "internalType": "string",
              "name": "size",
              "type": "string"
            },
            {
              "internalType": "string[]",
              "name": "images",
              "type": "string[]"
            },
            {
              "internalType": "string",
              "name": "category",
              "type": "string"
            },
            {
              "internalType": "string",
              "name": "subCategory",
              "type": "string"
            },
            {
              "internalType": "uint256",
              "name": "weight",
              "type": "uint256"
            },
            {
              "internalType": "string",
              "name": "model",
              "type": "string"
            },
            {
              "internalType": "string",
              "name": "brand",
              "type": "string"
            },
            {
              "internalType": "uint256",
              "name": "sku",
              "type": "uint256"
            },
            {
              "internalType": "bool",
              "name": "soldout",
              "type": "bool"
            },
            {
              "internalType": "bool",
              "name": "wishlist",
              "type": "bool"
            },
            {
              "internalType": "bool",
              "name": "deleted",
              "type": "bool"
            },
            {
              "components": [
                {
                  "internalType": "uint256",
                  "name": "reviewId",
                  "type": "uint256"
                },
                {
                  "internalType": "address",
                  "name": "reviewer",
                  "type": "address"
                },
                {
                  "internalType": "uint256",
                  "name": "rating",
                  "type": "uint256"
                },
                {
                  "internalType": "string",
                  "name": "comment",
                  "type": "string"
                },
                {
                  "internalType": "bool",
                  "name": "deleted",
                  "type": "bool"
                }
              ],
              "internalType": "struct HemShop.ReviewStruct[]",
              "name": "reviews",
              "type": "tuple[]"
            }
          ],
          "internalType": "struct HemShop.ProductStruct[]",
          "name": "",
          "type": "tuple[]"
        }
      ],
      "stateMutability": "view",
      "type": "function"
    },
    {
      "inputs": [
        {
          "internalType": "uint256",
          "name": "productId",
          "type": "uint256"
        }
      ],
      "name": "getProduct",
      "outputs": [
        {
          "components": [
            {
              "internalType": "uint256",
              "name": "id",
              "type": "uint256"
            },
            {
              "internalType": "address",
              "name": "seller",
              "type": "address"
            },
            {
              "internalType": "string",
              "name": "name",
              "type": "string"
            },
            {
              "internalType": "string",
              "name": "description",
              "type": "string"
            },
            {
              "internalType": "uint256",
              "name": "price",
              "type": "uint256"
            },
            {
              "internalType": "uint256",
              "name": "stock",
              "type": "uint256"
            },
            {
              "internalType": "string",
              "name": "color",
              "type": "string"
            },
            {
              "internalType": "string",
              "name": "size",
              "type": "string"
            },
            {
              "internalType": "string[]",
              "name": "images",
              "type": "string[]"
            },
            {
              "internalType": "string",
              "name": "category",
              "type": "string"
            },
            {
              "internalType": "string",
              "name": "subCategory",
              "type": "string"
            },
            {
              "internalType": "uint256",
              "name": "weight",
              "type": "uint256"
            },
            {
              "internalType": "string",
              "name": "model",
              "type": "string"
            },
            {
              "internalType": "string",
              "name": "brand",
              "type": "string"
            },
            {
              "internalType": "uint256",
              "name": "sku",
              "type": "uint256"
            },
            {
              "internalType": "bool",
              "name": "soldout",
              "type": "bool"
            },
            {
              "internalType": "bool",
              "name": "wishlist",
              "type": "bool"
            },
            {
              "internalType": "bool",
              "name": "deleted",
              "type": "bool"
            },
            {
              "components": [
                {
                  "internalType": "uint256",
                  "name": "reviewId",
                  "type": "uint256"
                },
                {
                  "internalType": "address",
                  "name": "reviewer",
                  "type": "address"
                },
                {
                  "internalType": "uint256",
                  "name": "rating",
                  "type": "uint256"
                },
                {
                  "internalType": "string",
                  "name": "comment",
                  "type": "string"
                },
                {
                  "internalType": "bool",
                  "name": "deleted",
                  "type": "bool"
                }
              ],
              "internalType": "struct HemShop.ReviewStruct[]",
              "name": "reviews",
              "type": "tuple[]"
            }
          ],
          "internalType": "struct HemShop.ProductStruct",
          "name": "",
          "type": "tuple"
        }
      ],
      "stateMutability": "view",
      "type": "function"
    },
    {
      "inputs": [
        {
          "internalType": "uint256",
          "name": "productId",
          "type": "uint256"
        }
      ],
      "name": "getReviews",
      "outputs": [
        {
          "components": [
            {
              "internalType": "uint256",
              "name": "reviewId",
              "type": "uint256"
            },
            {
              "internalType": "address",
              "name": "reviewer",
              "type": "address"
            },
            {
              "internalType": "uint256",
              "name": "rating",
              "type": "uint256"
            },
            {
              "internalType": "string",
              "name": "comment",
              "type": "string"
            },
            {
              "internalType": "bool",
              "name": "deleted",
              "type": "bool"
            }
          ],
          "internalType": "struct HemShop.ReviewStruct[]",
          "name": "",
          "type": "tuple[]"
        }
      ],
      "stateMutability": "view",
      "type": "function"
    },
    {
      "inputs": [
        {
          "internalType": "address",
          "name": "seller",
          "type": "address"
        }
      ],
      "name": "getSellerBalance",
      "outputs": [
        {
          "internalType": "uint256",
          "name": "",
          "type": "uint256"
        }
      ],
      "stateMutability": "view",
      "type": "function"
    },
    {
      "inputs": [
        {
          "internalType": "address",
          "name": "seller",
          "type": "address"
        }
      ],
      "name": "getSellerPurchaseHistory",
      "outputs": [
        {
          "components": [
            {
              "internalType": "uint256",
              "name": "productId",
              "type": "uint256"
            },
            {
              "internalType": "uint256",
              "name": "totalAmount",
              "type": "uint256"
            },
            {
              "internalType": "uint256",
              "name": "basePrice",
              "type": "uint256"
            },
            {
              "internalType": "uint256",
              "name": "timestamp",
              "type": "uint256"
            },
            {
              "internalType": "address",
              "name": "buyer",
              "type": "address"
            },
            {
              "internalType": "address",
              "name": "seller",
              "type": "address"
            },
            {
              "internalType": "bool",
              "name": "isDelivered",
              "type": "bool"
            },
            {
              "components": [
                {
                  "internalType": "string",
                  "name": "fullName",
                  "type": "string"
                },
                {
                  "internalType": "string",
                  "name": "streetAddress",
                  "type": "string"
                },
                {
                  "internalType": "string",
                  "name": "city",
                  "type": "string"
                },
                {
                  "internalType": "string",
                  "name": "state",
                  "type": "string"
                },
                {
                  "internalType": "string",
                  "name": "country",
                  "type": "string"
                },
                {
                  "internalType": "string",
                  "name": "postalCode",
                  "type": "string"
                },
                {
                  "internalType": "string",
                  "name": "phone",
                  "type": "string"
                },
                {
                  "internalType": "string",
                  "name": "email",
                  "type": "string"
                }
              ],
              "internalType": "struct HemShop.ShippingDetails",
              "name": "shippingDetails",
              "type": "tuple"
            }
          ],
          "internalType": "struct HemShop.PurchaseHistoryStruct[]",
          "name": "",
          "type": "tuple[]"
        }
      ],
      "stateMutability": "view",
      "type": "function"
    },
    {
      "inputs": [
        {
          "internalType": "address",
          "name": "account",
          "type": "address"
        }
      ],
      "name": "impersonateAccount",
      "outputs": [],
      "stateMutability": "nonpayable",
      "type": "function"
    },
    {
      "inputs": [
        {
          "internalType": "address",
          "name": "owner",
          "type": "address"
        },
        {
          "internalType": "address",
          "name": "operator",
          "type": "address"
        }
      ],
      "name": "isApprovedForAll",
      "outputs": [
        {
          "internalType": "bool",
          "name": "",
          "type": "bool"
        }
      ],
      "stateMutability": "view",
      "type": "function"
    },
    {
      "inputs": [
        {
          "internalType": "uint256",
          "name": "productId",
          "type": "uint256"
        },
        {
          "internalType": "address",
          "name": "buyer",
          "type": "address"
        }
      ],
      "name": "markPurchaseDelivered",
      "outputs": [],
      "stateMutability": "nonpayable",
      "type": "function"
    },
    {
      "inputs": [],
      "name": "name",
      "outputs": [
        {
          "internalType": "string",
          "name": "",
          "type": "string"
        }
      ],
      "stateMutability": "view",
      "type": "function"
    },
    {
      "inputs": [],
      "name": "owner",
      "outputs": [
        {
          "internalType": "address",
          "name": "",
          "type": "address"
        }
      ],
      "stateMutability": "view",
      "type": "function"
    },
    {
      "inputs": [
        {
          "internalType": "uint256",
          "name": "tokenId",
          "type": "uint256"
        }
      ],
      "name": "ownerOf",
      "outputs": [
        {
          "internalType": "address",
          "name": "",
          "type": "address"
        }
      ],
      "stateMutability": "view",
      "type": "function"
    },
    {
      "inputs": [
        {
          "internalType": "uint256",
          "name": "",
          "type": "uint256"
        }
      ],
      "name": "productExists",
      "outputs": [
        {
          "internalType": "bool",
          "name": "",
          "type": "bool"
        }
      ],
      "stateMutability": "view",
      "type": "function"
    },
    {
      "inputs": [
        {
          "internalType": "uint256",
          "name": "",
          "type": "uint256"
        }
      ],
      "name": "products",
      "outputs": [
        {
          "internalType": "uint256",
          "name": "id",
          "type": "uint256"
        },
        {
          "internalType": "address",
          "name": "seller",
          "type": "address"
        },
        {
          "internalType": "string",
          "name": "name",
          "type": "string"
        },
        {
          "internalType": "string",
          "name": "description",
          "type": "string"
        },
        {
          "internalType": "uint256",
          "name": "price",
          "type": "uint256"
        },
        {
          "internalType": "uint256",
          "name": "stock",
          "type": "uint256"
        },
        {
          "internalType": "string",
          "name": "color",
          "type": "string"
        },
        {
          "internalType": "string",
          "name": "size",
          "type": "string"
        },
        {
          "internalType": "string",
          "name": "category",
          "type": "string"
        },
        {
          "internalType": "string",
          "name": "subCategory",
          "type": "string"
        },
        {
          "internalType": "uint256",
          "name": "weight",
          "type": "uint256"
        },
        {
          "internalType": "string",
          "name": "model",
          "type": "string"
        },
        {
          "internalType": "string",
          "name": "brand",
          "type": "string"
        },
        {
          "internalType": "uint256",
          "name": "sku",
          "type": "uint256"
        },
        {
          "internalType": "bool",
          "name": "soldout",
          "type": "bool"
        },
        {
          "internalType": "bool",
          "name": "wishlist",
          "type": "bool"
        },
        {
          "internalType": "bool",
          "name": "deleted",
          "type": "bool"
        }
      ],
      "stateMutability": "view",
      "type": "function"
    },
    {
      "inputs": [],
      "name": "registerSeller",
      "outputs": [],
      "stateMutability": "nonpayable",
      "type": "function"
    },
    {
      "inputs": [
        {
          "internalType": "address",
          "name": "",
          "type": "address"
        }
      ],
      "name": "registeredSellers",
      "outputs": [
        {
          "internalType": "bool",
          "name": "",
          "type": "bool"
        }
      ],
      "stateMutability": "view",
      "type": "function"
    },
    {
      "inputs": [],
      "name": "renounceOwnership",
      "outputs": [],
      "stateMutability": "nonpayable",
      "type": "function"
    },
    {
      "inputs": [
        {
          "internalType": "uint256",
          "name": "",
          "type": "uint256"
        }
      ],
      "name": "reviewExists",
      "outputs": [
        {
          "internalType": "bool",
          "name": "",
          "type": "bool"
        }
      ],
      "stateMutability": "view",
      "type": "function"
    },
    {
      "inputs": [
        {
          "internalType": "address",
          "name": "from",
          "type": "address"
        },
        {
          "internalType": "address",
          "name": "to",
          "type": "address"
        },
        {
          "internalType": "uint256",
          "name": "tokenId",
          "type": "uint256"
        }
      ],
      "name": "safeTransferFrom",
      "outputs": [],
      "stateMutability": "nonpayable",
      "type": "function"
    },
    {
      "inputs": [
        {
          "internalType": "address",
          "name": "from",
          "type": "address"
        },
        {
          "internalType": "address",
          "name": "to",
          "type": "address"
        },
        {
          "internalType": "uint256",
          "name": "tokenId",
          "type": "uint256"
        },
        {
          "internalType": "bytes",
          "name": "data",
          "type": "bytes"
        }
      ],
      "name": "safeTransferFrom",
      "outputs": [],
      "stateMutability": "nonpayable",
      "type": "function"
    },
    {
      "inputs": [
        {
          "internalType": "address",
          "name": "",
          "type": "address"
        }
      ],
      "name": "sellerBalances",
      "outputs": [
        {
          "internalType": "uint256",
          "name": "",
          "type": "uint256"
        }
      ],
      "stateMutability": "view",
      "type": "function"
    },
    {
      "inputs": [
        {
          "internalType": "address",
          "name": "",
          "type": "address"
        },
        {
          "internalType": "uint256",
          "name": "",
          "type": "uint256"
        }
      ],
      "name": "sellerProducts",
      "outputs": [
        {
          "internalType": "uint256",
          "name": "",
          "type": "uint256"
        }
      ],
      "stateMutability": "view",
      "type": "function"
    },
    {
      "inputs": [
        {
          "internalType": "address",
          "name": "",
          "type": "address"
        },
        {
          "internalType": "uint256",
          "name": "",
          "type": "uint256"
        }
      ],
      "name": "sellerPurchaseHistory",
      "outputs": [
        {
          "internalType": "uint256",
          "name": "productId",
          "type": "uint256"
        },
        {
          "internalType": "uint256",
          "name": "totalAmount",
          "type": "uint256"
        },
        {
          "internalType": "uint256",
          "name": "basePrice",
          "type": "uint256"
        },
        {
          "internalType": "uint256",
          "name": "timestamp",
          "type": "uint256"
        },
        {
          "internalType": "address",
          "name": "buyer",
          "type": "address"
        },
        {
          "internalType": "address",
          "name": "seller",
          "type": "address"
        },
        {
          "internalType": "bool",
          "name": "isDelivered",
          "type": "bool"
        },
        {
          "components": [
            {
              "internalType": "string",
              "name": "fullName",
              "type": "string"
            },
            {
              "internalType": "string",
              "name": "streetAddress",
              "type": "string"
            },
            {
              "internalType": "string",
              "name": "city",
              "type": "string"
            },
            {
              "internalType": "string",
              "name": "state",
              "type": "string"
            },
            {
              "internalType": "string",
              "name": "country",
              "type": "string"
            },
            {
              "internalType": "string",
              "name": "postalCode",
              "type": "string"
            },
            {
              "internalType": "string",
              "name": "phone",
              "type": "string"
            },
            {
              "internalType": "string",
              "name": "email",
              "type": "string"
            }
          ],
          "internalType": "struct HemShop.ShippingDetails",
          "name": "shippingDetails",
          "type": "tuple"
        }
      ],
      "stateMutability": "view",
      "type": "function"
    },
    {
      "inputs": [
        {
          "internalType": "address",
          "name": "",
          "type": "address"
        }
      ],
      "name": "sellerStatus",
      "outputs": [
        {
          "internalType": "enum HemShop.SellerStatus",
          "name": "",
          "type": "uint8"
        }
      ],
      "stateMutability": "view",
      "type": "function"
    },
    {
      "inputs": [],
      "name": "servicePct",
      "outputs": [
        {
          "internalType": "uint256",
          "name": "",
          "type": "uint256"
        }
      ],
      "stateMutability": "view",
      "type": "function"
    },
    {
      "inputs": [
        {
          "internalType": "address",
          "name": "operator",
          "type": "address"
        },
        {
          "internalType": "bool",
          "name": "approved",
          "type": "bool"
        }
      ],
      "name": "setApprovalForAll",
      "outputs": [],
      "stateMutability": "nonpayable",
      "type": "function"
    },
    {
      "inputs": [],
      "name": "stopImpersonating",
      "outputs": [],
      "stateMutability": "nonpayable",
      "type": "function"
    },
    {
      "inputs": [
        {
          "internalType": "bytes4",
          "name": "interfaceId",
          "type": "bytes4"
        }
      ],
      "name": "supportsInterface",
      "outputs": [
        {
          "internalType": "bool",
          "name": "",
          "type": "bool"
        }
      ],
      "stateMutability": "view",
      "type": "function"
    },
    {
      "inputs": [],
      "name": "symbol",
      "outputs": [
        {
          "internalType": "string",
          "name": "",
          "type": "string"
        }
      ],
      "stateMutability": "view",
      "type": "function"
    },
    {
      "inputs": [
        {
          "internalType": "uint256",
          "name": "tokenId",
          "type": "uint256"
        }
      ],
      "name": "tokenURI",
      "outputs": [
        {
          "internalType": "string",
          "name": "",
          "type": "string"
        }
      ],
      "stateMutability": "view",
      "type": "function"
    },
    {
      "inputs": [
        {
          "internalType": "address",
          "name": "from",
          "type": "address"
        },
        {
          "internalType": "address",
          "name": "to",
          "type": "address"
        },
        {
          "internalType": "uint256",
          "name": "tokenId",
          "type": "uint256"
        }
      ],
      "name": "transferFrom",
      "outputs": [],
      "stateMutability": "nonpayable",
      "type": "function"
    },
    {
      "inputs": [
        {
          "internalType": "address",
          "name": "newOwner",
          "type": "address"
        }
      ],
      "name": "transferOwnership",
      "outputs": [],
      "stateMutability": "nonpayable",
      "type": "function"
    },
    {
      "inputs": [
        {
          "internalType": "uint256",
          "name": "productId",
          "type": "uint256"
        },
        {
          "components": [
            {
              "internalType": "string",
              "name": "name",
              "type": "string"
            },
            {
              "internalType": "string",
              "name": "description",
              "type": "string"
            },
            {
              "internalType": "uint256",
              "name": "price",
              "type": "uint256"
            },
            {
              "internalType": "uint256",
              "name": "stock",
              "type": "uint256"
            },
            {
              "internalType": "string",
              "name": "color",
              "type": "string"
            },
            {
              "internalType": "string",
              "name": "size",
              "type": "string"
            },
            {
              "internalType": "string[]",
              "name": "images",
              "type": "string[]"
            },
            {
              "internalType": "string",
              "name": "category",
              "type": "string"
            },
            {
              "internalType": "string",
              "name": "subCategory",
              "type": "string"
            },
            {
              "internalType": "string",
              "name": "model",
              "type": "string"
            },
            {
              "internalType": "string",
              "name": "brand",
              "type": "string"
            },
            {
              "internalType": "uint256",
              "name": "weight",
              "type": "uint256"
            },
            {
              "internalType": "uint256",
              "name": "sku",
              "type": "uint256"
            }
          ],
          "internalType": "struct HemShop.ProductInput",
          "name": "input",
          "type": "tuple"
        }
      ],
      "name": "updateProduct",
      "outputs": [],
      "stateMutability": "nonpayable",
      "type": "function"
    },
    {
      "inputs": [
        {
          "internalType": "address",
          "name": "seller",
          "type": "address"
        },
        {
          "internalType": "enum HemShop.SellerStatus",
          "name": "status",
          "type": "uint8"
        }
      ],
      "name": "updateSellerStatus",
      "outputs": [],
      "stateMutability": "nonpayable",
      "type": "function"
    },
    {
      "inputs": [],
      "name": "withdraw",
      "outputs": [],
      "stateMutability": "nonpayable",
      "type": "function"
    }
  ],
  "bytecode": "0x6080346200037757601f90601f196001600160401b0362006c853881900385810184168501838111868210176200037c57859282916040528339602094859181010312620003775751936200005362000392565b926007845266048656d53686f760cc1b858501526200007162000392565b60038082526204873760ec1b8783015260008054336001600160a01b031982168117835592989394919392906001600160a01b03167f8be0079c531659141344cd1fd0a4f28419497f9722a3daafe3b4186f6b6457e08580a360019687805580519087821162000363576002548981811c9116801562000358575b858210146200034457908188849311620002f0575b5084908883116001146200028e57869262000282575b5050600019828b1b1c191690881b176002555b83519586116200026e5787548781811c9116801562000263575b838210146200024f5785811162000207575b5081948611600114620001a25750509183949184939462000196575b50501b9160001990841b1c19161790555b600b556040516168d29081620003b38239f35b01519250388062000172565b8783528183209493928692918316915b88838310620001ec5750505010620001d3575b505050811b01905562000183565b015160001983861b60f8161c19169055388080620001c5565b858701518855909601959485019487935090810190620001b2565b8884528284208680890160051c820192858a1062000245575b0160051c019088905b8281106200023957505062000156565b85815501889062000229565b9250819262000220565b634e487b7160e01b84526022600452602484fd5b90607f169062000144565b634e487b7160e01b83526041600452602483fd5b01519050388062000117565b90848b9416916002885286882092885b88828210620002d95750508411620002c0575b505050811b016002556200012a565b0151600019838d1b60f8161c19169055388080620002b1565b8385015186558e979095019493840193016200029e565b909150600286528486208880850160051c8201928786106200033a575b918c91869594930160051c01915b8281106200032b57505062000101565b8881558594508c91016200031b565b925081926200030d565b634e487b7160e01b86526022600452602486fd5b90607f1690620000ec565b634e487b7160e01b85526041600452602485fd5b600080fd5b634e487b7160e01b600052604160045260246000fd5b60408051919082016001600160401b038111838210176200037c5760405256fe608080604052600436101561001357600080fd5b60003560e01c908162d64e7614614a9b5750806301ffc9a714614a2d57806302ee3a521461479457806306fdde03146146ef578063081812fc146146d1578063095ea7b31461455757806311aa5b34146141f15780631385fd921461419d57806316d81b3814613fc05780632148893f1461394157806323b872dd14613f9757806324d41a0314613d725780633c2575d514613c8d5780633ccfd60b14613b0557806342842e0e14613add57806345de84db14613a9b57806352c9224c146139de5780635be209591461397b578063607eb4e4146139415780636352211e14613911578063661e1712146130c457806370a082311461302d578063715018a614612fe65780637acc0b2014612e4e5780638da5cb5b14612e2557806395d89b4114612d4357806397b6f39314612b475780639d4a2255146129b45780639fa44dbf1461296c578063a22cb465146128a1578063a22fb387146127f6578063af55ed64146127c5578063b119105214611c45578063b235b4a914610d49578063b27e169714610c64578063b88d4fde14610c03578063b95a062814610bc8578063b9db15b414610992578063c1302b341461093a578063c64b8a8f146108fb578063c87b56dd146108a1578063e01ef6e614610883578063e585cb2c146107f3578063e985e9c51461079d578063ed90c7b7146105bb578063f2fde38b1461050c5763fdca4ca31461022357600080fd5b346105075760003660031901126105075760088054600060015b828111156104a6575061024f90616070565b9060009260015b82811115610270576040518061026c8682614d3f565b0390f35b6000818152600c6020818152604090922060018101546001600160a01b031692919033841480610494575b6102b2575b505050506102ad90615ffd565b610256565b604098949851936102c285614dcd565b81548552838501526102d6600282016150b3565b60408501526102e7600382016150b3565b6060850152600481015460808501526005918282015460a086015261030e600683016150b3565b60c086015261031f600783016150b3565b60e0860152868201805461033281615cbc565b916103406040519384614e3b565b818352600090815286812090878085015b84831061047657505050505061010086015261039d90610373600984016150b3565b610120870152610385600a84016150b3565b610140870152600b83015461016087015282016150b3565b6101808501526103af600d82016150b3565b6101a0850152600e8101546101c0850152600f81015460ff80821615156101e087015281881c81161515610200870152601091821c16151561022086015201805491906103fb83615cbc565b936104096040519586614e3b565b8385526000918252808220918186015b85821061045a5750505050505091816102ad9361024061045094015261043f828861600c565b5261044a818761600c565b50615ffd565b94903880806102a0565b848360019261046887616020565b815201940191019092610419565b6001918291610484866150b3565b8152019301910190918890610351565b5060ff600f82015460101c161561029b565b6000818152600c6020526040902060018101546001600160a01b0316331490816104f4575b506104df575b6104da90615ffd565b61023d565b906104ec6104da91615ffd565b9190506104d1565b60ff9150600f015460101c1615386104cb565b600080fd5b3461050757602036600319011261050757610525614da1565b61052d61527f565b6001600160a01b03908116908115610567576000548260018060a01b031982161760005516600080516020616886833981519152600080a3005b60405162461bcd60e51b815260206004820152602660248201527f4f776e61626c653a206e6577206f776e657220697320746865207a65726f206160448201526564647265737360d01b6064820152608490fd5b34610507576020806003193601126105075733600090815260158252604090205460043591906001600160a01b0390811680156107615780600052600f835260ff6040600020541690600482101561074b576002610622921490811561073d575b50615786565b826000526013825261063b60ff60406000205416615f30565b82600052600c82523381600160406000200154161490811561072f575b50156106db5781600052600c815260ff600f6040600020015460101c1661069a576000918252600c905260409020600f01805462ff0000191662010000179055005b6064906040519062461bcd60e51b82526004820152601a602482015279141c9bd91d58dd081a5cc8185b1c9958591e4819195b195d195960321b6044820152fd5b6084906040519062461bcd60e51b82526004820152602760248201527f4f6e6c792070726f647563742073656c6c6572206f72206f776e65722063616e6044820152662064656c65746560c81b6064820152fd5b600054163314905083610658565b90508260005416148561061c565b634e487b7160e01b600052602160045260246000fd5b50600f825260ff60406000205416600481101561074b576002148015610790575b61078b90615786565b610622565b5060005481163314610782565b34610507576040366003190112610507576107b6614da1565b6107be614db7565b9060018060a01b03809116600052600760205260406000209116600052602052602060ff604060002054166040519015158152f35b346105075760403660031901126105075761080c614da1565b6001600160a01b0390811660009081526011602052604090208054602435908110156105075761083b91615159565b509061026c82546001840154936002810154916003820154856004840154169061086c60066005860154950161518b565b9460405198899860ff8760a01c169616948961521d565b34610507576000366003190112610507576020600b54604051908152f35b34610507576020366003190112610507576108c56108c060043561563a565b6152d7565b60006040516108d381614e20565b5261026c6040516108e381614e20565b60008152604051918291602083526020830190614ac8565b34610507576020366003190112610507576001600160a01b0361091c614da1565b166000526012602052602060ff604060002054166040519015158152f35b3461050757604036600319011261050757610953614da1565b6001600160a01b03166000908152600d60205260409020805460243591908210156105075760209161098491615267565b90546040519160031b1c8152f35b3461050757602080600319360112610507576004356109af615c30565b5080600052600c82526109d060ff600f6040600020015460101c1615615f75565b80600052601382526109e960ff60406000205416615f30565b600052600c815260406000209060405191610a0383614dcd565b805483526001808201546001600160a01b031683850152610a26600283016150b3565b6040850152610a37600383016150b3565b6060850152600482015460808501526005918281015460a0860152610a5e600682016150b3565b60c0860152610a6f600782016150b3565b60e0860152600881018054610a8381615cbc565b91610a916040519384614e3b565b818352600090815286812085888086015b858510610bab5750888b9260108989610100870152610ac3600982016150b3565b610120870152610ad5600a82016150b3565b610140870152600b810154610160870152610af2600c82016150b3565b610180870152610b04600d82016150b3565b6101a0870152600e8101546101c087015260ff600f82015481811615156101e0890152818160081c161515610200890152831c1615156102208701520191825490610b4e82615cbc565b93610b5c6040519586614e3b565b8285526000908152858120868087015b858410610b8e576102408a018890526040518281528061026c8185018d614b9f565b86918591610b9b85616020565b8152019201920191908790610b6c565b908291610bb7856150b3565b815201920192019190888791610aa2565b346105075760203660031901126105075760206001600160a01b0380610bec614da1565b166000526015825260406000205416604051908152f35b3461050757608036600319011261050757610c1c614da1565b610c24614db7565b606435916001600160401b038311610507573660238401121561050757610c58610c62933690602481600401359101614e79565b91604435916153ca565b005b3461050757602080600319360112610507576001600160a01b039081610c88614da1565b16600052601081526040600020805490610ca182615cbc565b92610caf6040519485614e3b565b82845260009182528082208185015b848410610cd3576040518061026c8882614fa8565b600e83600192604051610ce581614de9565b85548152848601548382015260028601546040820152600386015460608201528a600487015416608082015260ff600587015460a08d8216818501521c16151560c0820152610d366006870161518b565b60e0820152815201920193019290610cbe565b3461050757600319602036820112610507576001600160401b0360043511610507576101a0906004353603011261050757336000908152601560205260409020546001600160a01b03168015611c015780600052600f60205260ff6040600020541690600482101561074b576002610dc99214908115611bec5750615786565b610de3610dda6004803501806157e0565b90501515615812565b6024610e04610dfb82600435016004356004016157e0565b90501515615855565b610e1560446004350135151561589f565b610e266064600435013515156158ea565b610e46610e3d6084600435016004356004016157e0565b90501515615935565b610e66610e5d60c460043501600435600401615979565b905015156159ae565b610e876005610e7f60c460043501600435600401615979565b9050106159f3565b610ea7610e9e60a4600435016004356004016157e0565b90501515615a3e565b610ec7610ebe60e4600435016004356004016157e0565b90501515615a81565b610ee8610edf610104600435016004356004016157e0565b90501515615ac8565b610f09610f00610124600435016004356004016157e0565b90501515615b13565b610f2a610f21610144600435016004356004016157e0565b90501515615b57565b610f3c61016460043501351515615b9b565b610f4e61018460043501351515615be7565b60016008540180600855610f60615c30565b818152336020820152610f81610f7a6004803501806157e0565b3691614e79565b6040820152610f9c610f7a84600435016004356004016157e0565b60608201526044600435013560808201526064600435013560a0820152610fd0610f7a6084600435016004356004016157e0565b60c0820152610fec610f7a60a4600435016004356004016157e0565b60e082015261100560c460043501600435600401615979565b9061100f82615cbc565b9161101d6040519384614e3b565b8083526020830191368260051b8201116105075780925b8260051b82018410611bc15750505050610100820152611061610f7a60e4600435016004356004016157e0565b61012082015261107f610f7a610104600435016004356004016157e0565b61014082015261109d610f7a610124600435016004356004016157e0565b6101808201526110bb610f7a610144600435016004356004016157e0565b6101a082015260043561016481013561016083015261018401356101c08201523315611b7d576110f36110ed8361563a565b15615ee5565b6110ff6110ed8361563a565b33600052600560205260406000206001815401905581600052600460205260406000203360018060a01b0319825416179055813360006000805160206168a68339815191528180a4600c60209081526040600081902083518155918301516001830180546001600160a01b0319166001600160a01b03929092169190911790558201518051906001600160401b0382116116845781906111af826111a66002870154615079565b60028701615cea565b602090601f8311600114611b0b57600092611b00575b50508160011b916000199060031b1c19161760028201555b60608201518051906001600160401b03821161168457819061120f826112066003870154615079565b60038701615cea565b602090601f8311600114611a8e57600092611a83575b50508160011b916000199060031b1c19161760038201555b6080820151600482015560a0820151600582015560c08201518051906001600160401b0382116116845781906112838261127a6006870154615079565b60068701615cea565b602090601f8311600114611a1157600092611a06575b50508160011b916000199060031b1c19161760068201555b60e08201518051906001600160401b0382116116845781906112e3826112da6007870154615079565b60078701615cea565b602090601f831160011461199457600092611989575b50508160011b916000199060031b1c19161760078201555b6008810161010083015190602082519261132b8484615d78565b019060005260206000206000915b83831061189157505050506101208201518051906001600160401b0382116116845781906113778261136e6009870154615079565b60098701615cea565b602090601f831160011461181f57600092611814575b50508160011b916000199060031b1c19161760098201555b6101408201518051906001600160401b0382116116845781906113d8826113cf600a870154615079565b600a8701615cea565b602090601f83116001146117a257600092611797575b50508160011b916000199060031b1c191617600a8201555b610160820151600b8201556101808201518051906001600160401b0382116116845781906114448261143b600c870154615079565b600c8701615cea565b602090601f83116001146117255760009261171a575b50508160011b916000199060031b1c191617600c8201555b6101a08201518051906001600160401b038211611684576114a38261149a600d860154615079565b600d8601615cea565b602090601f83116001146116a45791806102409492601094600092611699575b50508160011b916000199060031b1c191617600d8201555b6101c0840151600e820155600f81016114fb6101e0860151151582615629565b6102008501511515815461ff0062ff00006102208901511515871b169260081b169062ffff001916171790550191015190815190600160401b928383116116845781548383558084106115f4575b506020019060005260206000206000915b8383106115d657505050508160005260136020526040600020600160ff1982541617905533600052600d60205260406000208054918210156115c157906115a691600182018155615267565b819291549060031b91821b91600019901b1916179055600080f35b83634e487b7160e01b60005260416004526000fd5b60056020826115e86001945186615dc1565b0192019201919061155a565b8060050290600582040361166f578360050260058104850361165a5783600052602060002091820191015b81811061162c5750611549565b80600060059255600060018201556000600282015561164d60038201615d2f565b600060048201550161161f565b87634e487b7160e01b60005260116004526000fd5b86634e487b7160e01b60005260116004526000fd5b85634e487b7160e01b60005260416004526000fd5b0151905088806114c3565b90600d840160005260206000209160005b601f1985168110611702575092610240949260019260109583601f198116106116e9575b505050811b01600d8201556114db565b015160001960f88460031b161c191690558880806116d9565b919260206001819286850151815501940192016116b5565b01519050868061145a565b9250600c84016000526020600020906000935b601f198416851061177c576001945083601f19811610611763575b505050811b01600c820155611472565b015160001960f88460031b161c19169055868080611753565b81810151835560209485019460019093019290910190611738565b0151905086806113ee565b9250600a84016000526020600020906000935b601f19841685106117f9576001945083601f198116106117e0575b505050811b01600a820155611406565b015160001960f88460031b161c191690558680806117d0565b818101518355602094850194600190930192909101906117b5565b01519050868061138d565b9250600984016000526020600020906000935b601f1984168510611876576001945083601f1981161061185d575b505050811b0160098201556113a5565b015160001960f88460031b161c1916905586808061184d565b81810151835560209485019460019093019290910190611832565b80518051906001600160401b038211611974576118b8826118b28654615079565b86615cea565b602090601f83116001146119045792826001949360209386956000926118f9575b5050600019600383901b1c191690841b1785555b01920192019190611339565b015190508d806118d9565b908460005260206000209160005b601f198516811061195c575083602093600196938796938794601f19811610611943575b505050811b0185556118ed565b015160001960f88460031b161c191690558d8080611936565b91926020600181928685015181550194019201611912565b89634e487b7160e01b60005260416004526000fd5b0151905086806112f9565b9250600784016000526020600020906000935b601f19841685106119eb576001945083601f198116106119d2575b505050811b016007820155611311565b015160001960f88460031b161c191690558680806119c2565b818101518355602094850194600190930192909101906119a7565b015190508680611299565b9250600684016000526020600020906000935b601f1984168510611a68576001945083601f19811610611a4f575b505050811b0160068201556112b1565b015160001960f88460031b161c19169055868080611a3f565b81810151835560209485019460019093019290910190611a24565b015190508680611225565b9250600384016000526020600020906000935b601f1984168510611ae5576001945083601f19811610611acc575b505050811b01600382015561123d565b015160001960f88460031b161c19169055868080611abc565b81810151835560209485019460019093019290910190611aa1565b0151905086806111c5565b9250600284016000526020600020906000935b601f1984168510611b62576001945083601f19811610611b49575b505050811b0160028201556111dd565b015160001960f88460031b161c19169055868080611b39565b81810151835560209485019460019093019290910190611b1e565b60405162461bcd60e51b8152602060048201819052818501527f4552433732313a206d696e7420746f20746865207a65726f20616464726573736044820152606490fd5b6001600160401b038435116105075760208091611be13687358601614eb0565b815201930192611034565b6000546001600160a01b03161490508261061c565b50600f60205260ff60406000205416600481101561074b576002148015611c31575b611c2c90615786565b610dc9565b506000546001600160a01b03163314611c23565b3461050757600319604036820112610507576001600160401b0360243511610507576101a0906024353603011261050757336000908152601560205260409020546001600160a01b0390811680156127885780600052600f60205260ff6040600020541690600482101561074b576002611cc7921490811561277a5750615786565b600435600052600c60205233906001604060002001541603612724576004356000526013602052611cff60ff60406000205416615f30565b600435600052600c602052611d2260ff600f6040600020015460101c1615615f75565b611d34610dda600460243501806157e0565b611d4a610dfb60248035016024356004016157e0565b611d5b60446024350135151561589f565b611d72610e5d60c460243501602435600401615979565b611d8b6005610e7f60c460243501602435600401615979565b611d9c6064602435013515156158ea565b611db3610e3d6084602435016024356004016157e0565b611dca610e9e60a4602435016024356004016157e0565b611de1610ebe60e4602435016024356004016157e0565b611df9610edf610104602435016024356004016157e0565b611e11610f00610124602435016024356004016157e0565b611e29610f21610144602435016024356004016157e0565b611e3b61016460243501351515615b9b565b611e4d61018460243501351515615be7565b611e5c600460243501806157e0565b6004356000908152600c60205260409020600201906001600160401b0381116122f257611e9381611e8d8454615079565b84615cea565b600092601f82116001146126bb57928192936000926126b0575b50508160011b916000199060031b1c19161790555b611ed560248035016024356004016157e0565b6004356000908152600c60205260409020600301906001600160401b0381116122f257611f0681611e8d8454615079565b600092601f8211600114612647579281929360009261263c575b50508160011b916000199060031b1c19161790555b600435600052600c6020526040600020604460243501356004820155606460243501356005820155611f716084602435016024356004016157e0565b906001600160401b0382116122f257611f9a82611f916006860154615079565b60068601615cea565b600090601f83116001146125cc5760069291600091836125c1575b50508160011b916000199060031b1c1916179101555b611fdf60a4602435016024356004016157e0565b6004356000908152600c60205260409020600701906001600160401b0381116122f25761201081611e8d8454615079565b600092601f8211600114612558579281929360009261254d575b50508160011b916000199060031b1c19161790555b61205360c460243501602435600401615979565b600435600052600c6020526008604060002001916120718284615d78565b60009283526020832090805b8385106124645761209860e4602435016024356004016157e0565b6004356000908152600c60205260409020600901906001600160401b0381116122f2576120c981611e8d8454615079565b600092601f82116001146123fb57928192936000926123f0575b50508160011b916000199060031b1c19161790555b61210d610104602435016024356004016157e0565b6004356000908152600c60205260409020600a01906001600160401b0381116122f25761213e81611e8d8454615079565b600092601f8211600114612387579281929360009261237c575b50508160011b916000199060031b1c19161790555b612182610124602435016024356004016157e0565b600435600052600c602052600c6040600020019060018060401b0381116122f2576121b181611e8d8454615079565b600092601f82116001146123135792819293600092612308575b50508160011b916000199060031b1c19161790555b6121f5610144602435016024356004016157e0565b6004356000908152600c60205260409020600d01906001600160401b0381116122f25761222681611e8d8454615079565b6000601f821160011461228d57819293600092612282575b50508160011b916000199060031b1c19161790555b600435600052600c60205260406000206101646024350135600b820155600e6101846024350135910155600080f35b01359050838061223e565b601f198216938360005260206000209160005b8681106122da57508360019596106122c0575b505050811b019055612253565b0135600019600384901b60f8161c191690558380806122b3565b909260206001819286860135815501940191016122a0565b634e487b7160e01b600052604160045260246000fd5b0135905083806121cb565b826000526020600020906000945b601f198416861061236457600194955083601f1981161061234a575b505050811b0190556121e0565b0135600019600384901b60f8161c1916905583808061233d565b91602060018192858501358155019301950194612321565b013590508380612158565b826000526020600020906000945b601f19841686106123d857600194955083601f198116106123be575b505050811b01905561216d565b0135600019600384901b60f8161c191690558380806123b1565b91602060018192858501358155019301950194612395565b0135905083806120e3565b826000526020600020906000945b601f198416861061244c57600194955083601f19811610612432575b505050811b0190556120f8565b0135600019600384901b60f8161c19169055838080612425565b91602060018192858501358155019301950194612409565b61246e81836157e0565b906001600160401b0382116122f2576124918261248b8754615079565b87615cea565b600090601f83116001146124dd5792826001949360209386956000926124d2575b5050600019600383901b1c191690841b1786555b0193019401939161207d565b013590508a806124b2565b8560005260206000209160005b601f1985168110612535575083602093600196938796938794601f1981161061251b575b505050811b0186556124c6565b0135600019600384901b60f8161c191690558a808061250e565b909260206001819286860135815501940191016124ea565b01359050838061202a565b826000526020600020906000945b601f19841686106125a957600194955083601f1981161061258f575b505050811b01905561203f565b0135600019600384901b60f8161c19169055838080612582565b91602060018192858501358155019301950194612566565b013590508480611fb5565b6006840160005260206000209160005b601f19851681106126245750918391600193600695601f1981161061260a575b505050811b01910155611fcb565b0135600019600384901b60f8161c191690558480806125fc565b909260206001819286860135815501940191016125dc565b013590508380611f20565b826000526020600020906000945b601f198416861061269857600194955083601f1981161061267e575b505050811b019055611f35565b0135600019600384901b60f8161c19169055838080612671565b91602060018192858501358155019301950194612655565b013590508380611ead565b826000526020600020906000945b601f198416861061270c57600194955083601f198116106126f2575b505050811b019055611ec2565b0135600019600384901b60f8161c191690558380806126e5565b916020600181928585013581550193019501946126c9565b60405162461bcd60e51b815260206004820152602860248201527f4f6e6c79207468652073656c6c65722063616e20757064617465207468656972604482015267081c1c9bd91d58dd60c21b6064820152608490fd5b90508260005416148361061c565b50600f60205260ff60406000205416600481101561074b5760021480156127b8575b6127b390615786565b611cc7565b50600054811633146127aa565b34610507576020366003190112610507576004356000526013602052602060ff604060002054166040519015158152f35b346105075760203660031901126105075761280f614da1565b61281761527f565b6001600160a01b0316801561286257604060008051602061684683398151915291336000526015602052816000208160018060a01b03198254161790558151903382526020820152a1005b60405162461bcd60e51b8152602060048201526017602482015276496e76616c6964206163636f756e74206164647265737360481b6044820152606490fd5b34610507576040366003190112610507576128ba614da1565b6024359081151590818303610507576001600160a01b03169133831461292b576128fd903360005260076020526040600020846000526020526040600020615629565b6040519081527f17307eab39ab6107e8899845ad3d59bd9653f200f220920489ca2b5937696c3160203392a3005b60405162461bcd60e51b815260206004820152601960248201527822a9219b99189d1030b8383937bb32903a379031b0b63632b960391b6044820152606490fd5b3461050757604036600319011261050757612985614da1565b6001600160a01b0390811660009081526010602052604090208054602435908110156105075761083b91615159565b34610507576020806003193601126105075760043580600052600c9081835260ff600f60406000200154916129ef82601094851c1615615f75565b8060005260138552612a078260406000205416615f30565b60009260005b82600052858752816040600020018054821015612a5e576004612a31838793615fe1565b5001541615612a49575b612a4490615ffd565b612a0d565b93612a56612a4491615ffd565b949050612a3b565b50508486612a6b86615cbc565b95612a796040519788614e3b565b808752612a88601f1991615cbc565b018160005b828110612b315750505060009360005b81600052838352846040600020018054821015612b1e576004612ac1838a93615fe1565b5001541615612ad9575b612ad490615ffd565b612a9d565b94612b16612ad49183600052858552612b01612afb8989604060002001615fe1565b50616020565b612b0b828c61600c565b5261044a818b61600c565b959050612acb565b6040518481528061026c8187018c614b08565b612b39615fb6565b82828b010152018290612a8d565b3461050757604036600319011261050757612b60614da1565b602490813590600482101561050757612b7761527f565b6001600160a01b0316918215612d0657826000526020906012825260ff6040600020541615612ccb5783600052600f825260ff604060002054166004811015612c7e578314612c935760028314612c1a575b507fd8f7bcb2c5cffc294a0aaef719685993d7be95273fb8254803a1563510ccefed91600f612c15928560005252604060002060ff1981541660ff831617905560405191829182615066565b0390a2005b83600052600f825260ff604060002054166004811015612c7e57600114612bc95790601f6064926040519262461bcd60e51b845260048401528201527f43616e206f6e6c79207665726966792070656e64696e672073656c6c657273006044820152fd5b50634e487b7160e01b60009081526021600452fd5b9060126064926040519262461bcd60e51b845260048401528201527114dd185d1d5cc8185b1c9958591e481cd95d60721b6044820152fd5b9060156064926040519262461bcd60e51b845260048401528201527414d95b1b195c881b9bdd081c9959da5cdd195c9959605a1b6044820152fd5b60649060166040519162461bcd60e51b83526020600484015282015275496e76616c69642073656c6c6572206164647265737360501b6044820152fd5b3461050757600036600319011261050757604051600090600354612d6681615079565b808352600191808316908115612dfd5750600114612da3575b61026c83612d8f81870382614e3b565b604051918291602083526020830190614ac8565b6003600090815260209450917fc2575a0e9e593c00f959f8c92f12db2869c3395a3b0502d05e2516446f71f85b5b828410612dea57505050810190910190612d8f81612d7f565b8054858501870152928501928101612dd1565b61026c9550612d8f93506020915091849260ff191682840152151560051b8201019350612d7f565b34610507576000366003190112610507576000546040516001600160a01b039091168152602090f35b34610507576020366003190112610507576004356000908152600c60205260409020805460018201546001600160a01b031691612e8d600282016150b3565b612e99600383016150b3565b6004830154600584015490612eb0600686016150b3565b612ebc600787016150b3565b612ec8600988016150b3565b90612ed5600a89016150b3565b92600b89015494600c8a01612ee9906150b3565b96612ef6600d8c016150b3565b98600e8c01549b600f01549a6040519e8f9e8f908152602001528d6102209081604082015201612f2591614ac8565b8d810360608f0152612f3691614ac8565b9160808d015260a08c01528a810360c08c0152612f5291614ac8565b89810360e08b0152612f6391614ac8565b8881036101008a0152612f7591614ac8565b878103610120890152612f8791614ac8565b90610140870152858103610160870152612fa091614ac8565b848103610180860152612fb291614ac8565b916101a084015260ff811615156101c08401528060081c60ff1615156101e084015260101c60ff1615156102008301520390f35b3461050757600036600319011261050757612fff61527f565b600080546001600160a01b0319811682556001600160a01b03166000805160206168868339815191528280a3005b34610507576020366003190112610507576001600160a01b0361304e614da1565b16801561306d5760005260056020526020604060002054604051908152f35b60405162461bcd60e51b815260206004820152602960248201527f4552433732313a2061646472657373207a65726f206973206e6f7420612076616044820152683634b21037bbb732b960b91b6064820152608490fd5b600319604036820112610507576024906001600160401b038235116105075761010090823536030112610507576002600154146138cd576002600155600435600052601360205261311c60ff60406000205416615f30565b600435600052600c60205261313f60ff600f6040600020015460101c1615615f75565b600435600052600c60205260018060a01b0360016040600020015416600052600f60205260ff604060002054166004811015612c7e5760020361389057600435600052600c6020526005604060002001541561385257600435600052600c60205260ff600f604060002001541661381157600435600052600c60205260018060a01b036001604060002001541633146137cf576131e06004823501806157e0565b905015613796576131f88180350182356004016157e0565b90501561375857613211604482350182356004016157e0565b9050156137245761322a606482350182356004016157e0565b9050156136ef57613243608482350182356004016157e0565b9050156136b85761325c60a482350182356004016157e0565b90501561367d5761327560c482350182356004016157e0565b9050156136485761328e60e482350182356004016157e0565b90501561361357600435600052600c602052600460406000200154908134106135da57600435600052600c6020526005604060002001805480156135c557600019019055600435600052600c60205260406000206005810154156135b1575b600101546040516001600160a01b03909116919061330a81614de9565b6004823501356001600160401b0381116105075761332f906004369185350101614eb0565b81526001600160401b03823583013511610507576133563683358085013501600401614eb0565b60208201528135604401356001600160401b03811161050757613380906004369185350101614eb0565b60408201528135606401356001600160401b038111610507576133aa906004369185350101614eb0565b60608201528135608401356001600160401b038111610507576133d4906004369185350101614eb0565b6080820152813560a401356001600160401b038111610507576133fe906004369185350101614eb0565b60a0820152813560c401356001600160401b03811161050757613428906004369185350101614eb0565b60c0820152813560e40135906001600160401b038211610507576134566134c1926004369186350101614eb0565b60e08201526040519061346882614de9565b60043582528560208301528560408301524260608301523360808301528460a0830152600060c083015260e08201523360005260106020526134ae8160406000206160cd565b83600052601160205260406000206160cd565b81600052600e602052604060002080549184830180931161359d57505560405182815282602082015242604082015233907f45280c7ac9cec77edd454e39e1641a3e22619146cf074a4239beee86a7c07edc606060043592a460016009540160095561352d81346160c0565b8061358d575b50600435600052600c60205260018060a01b03600160406000200154169060405190815242602082015233907fbe6177108f4df43c5d7be79cb219c969fc97915bbdb4b56d14d391dcdcc16060604060043592a460018055005b61359790336167af565b81613533565b634e487b7160e01b60009081526011600452fd5b600f8101805460ff191660011790556132ed565b82634e487b7160e01b60005260116004526000fd5b60649060126040519162461bcd60e51b83526020600484015282015271496e73756666696369656e742066756e647360701b6044820152fd5b606490600e6040519162461bcd60e51b8352602060048401528201526d115b585a5b081c995c5d5a5c995960921b6044820152fd5b606490600e6040519162461bcd60e51b8352602060048401528201526d141a1bdb99481c995c5d5a5c995960921b6044820152fd5b60649060146040519162461bcd60e51b83526020600484015282015273141bdcdd185b0818dbd919481c995c5d5a5c995960621b6044820152fd5b60649060106040519162461bcd60e51b8352602060048401528201526f10dbdd5b9d1c9e481c995c5d5a5c995960821b6044820152fd5b606490600e6040519162461bcd60e51b8352602060048401528201526d14dd185d19481c995c5d5a5c995960921b6044820152fd5b606490600d6040519162461bcd60e51b8352602060048401528201526c10da5d1e481c995c5d5a5c9959609a1b6044820152fd5b60649060176040519162461bcd60e51b8352602060048401528201527614dd1c99595d081859191c995cdcc81c995c5d5a5c9959604a1b6044820152fd5b60649060126040519162461bcd60e51b83526020600484015282015271119d5b1b081b985b59481c995c5d5a5c995960721b6044820152fd5b606490601b6040519162461bcd60e51b8352602060048401528201527a10d85b9b9bdd08189d5e481e5bdd5c881bdddb881c1c9bd91d58dd602a1b6044820152fd5b606490601a6040519162461bcd60e51b83526020600484015282015279141c9bd91d58dd081a5cc8185b1c9958591e481cdbdb191bdd5d60321b6044820152fd5b60649060176040519162461bcd60e51b8352602060048401528201527650726f64756374206973206f7574206f662073746f636b60481b6044820152fd5b60649060166040519162461bcd60e51b8352602060048401528201527514d95b1b195c881a5cc81b9bdd081d995c9a599a595960521b6044820152fd5b606490601f6040519162461bcd60e51b8352602060048401528201527f5265656e7472616e637947756172643a207265656e7472616e742063616c6c006044820152fd5b3461050757602036600319011261050757602061392f60043561531e565b6040516001600160a01b039091168152f35b34610507576020366003190112610507576001600160a01b03613962614da1565b16600052600e6020526020604060002054604051908152f35b346105075760203660031901126105075760043561399761527f565b606481116139a457600b55005b60405162461bcd60e51b8152602060048201526012602482015271496e76616c69642070657263656e7461676560701b6044820152606490fd5b346105075760003660031901126105075733600052601260205260ff60406000205416613a6157336000526012602052604060002060ff1990600182825416179055600f60205260016040600020918254161790556040514281527fa1a1a78ff3033d5ee8393372052aeb2a16bbb347a29f3780370e9506c109e37260203392a2005b60405162461bcd60e51b8152602060048201526012602482015271105b1c9958591e481c9959da5cdd195c995960721b6044820152606490fd5b34610507576020366003190112610507576001600160a01b03613abc614da1565b16600052600f60205261026c60ff6040600020541660405191829182615066565b3461050757610c62613aee36614ecb565b9060405192613afc84614e20565b600084526153ca565b3461050757600036600319011261050757336000908152601560209081526040909120546001600160a01b039081168015613c515780600052600f835260ff6040600020541690600482101561074b576002613b699214908115613c435750615786565b33600052600e8252604060002054908115613c0557600b548083029083820403613bef57613bc192613ba26064613bbb930480926160c0565b9233600052600e865260006040812055600054166167af565b336167af565b7f8ad64a0ac7700dd8425ab0499f107cb6e2cd1581d803c5b8c1c79dcb8190b1af60405191600083523392a2005b634e487b7160e01b600052601160045260246000fd5b60405162461bcd60e51b81526004810184905260166024820152754e6f2062616c616e636520746f20776974686472617760501b6044820152606490fd5b90508260005416148461061c565b50600f825260ff60406000205416600481101561074b576002148015613c80575b613c7b90615786565b613b69565b5060005481163314613c72565b3461050757602080600319360112610507576001600160a01b039081613cb1614da1565b16600052601181526040600020805490613cca82615cbc565b92613cd86040519485614e3b565b82845260009182528082208185015b848410613cfc576040518061026c8882614fa8565b600e83600192604051613d0e81614de9565b85548152848601548382015260028601546040820152600386015460608201528a600487015416608082015260ff600587015460a08d8216818501521c16151560c0820152613d5f6006870161518b565b60e0820152815201920193019290613ce7565b3461050757604036600319011261050757602480356004356000805b82600052600c602090808252601091826040600020018054851015613f8a57613db8858992615fe1565b505414613dd057505050613dcb90615ffd565b613d8e565b9193509193946000526014815260ff94856040600020541615613f4e5780600052828252613e048585604060002001615fe1565b50600190810154909690336001600160a01b0391821614908115613f40575b5015613eeb57816000528383526004613e428787604060002001615fe1565b50015416613eae5791613e6393916004959360005252604060002001615fe1565b5001805460ff1916821790555b15613e7757005b60649060106040519162461bcd60e51b8352602060048401528201526f14995d9a595dc81b9bdd08199bdd5b9960821b6044820152fd5b60405162461bcd60e51b8152600481018390526016818901527514995d9a595dc8185b1c9958591e4819195b195d195960521b6044820152606490fd5b60405162461bcd60e51b8152600481018490526028818a01527f4f6e6c79207265766965776572206f72206f776e65722063616e2064656c6574604482015267652072657669657760c01b6064820152608490fd5b600054163314905089613e23565b60405162461bcd60e51b8152600481018390526015818901527414995d9a595dc8191bd95cc81b9bdd08195e1a5cdd605a1b6044820152606490fd5b5050505050915050613e70565b3461050757610c62613fa836614ecb565b91613fbb613fb68433615465565b615368565b61552d565b3461050757606036600319011261050757602480356004356044356001600160401b03811161050757613ff7903690600401614eb0565b9080600052602091600c835260018060a01b0360016040600020015416331461414a578315158061413f575b156140fb578051156140bd5790600c92916001600a54019081600a55614047615fb6565b95828752338588015260408701526060860152600052601482526040600020600160ff198254161790556000525260106040600020018054600160401b8110156115c15761409a91600182018155615fe1565b6140a857610c629250615dc1565b82634e487b7160e01b60005260006004526000fd5b60405162461bcd60e51b81526004810184905260178187015276436f6d6d656e742063616e6e6f7420626520656d70747960481b6044820152606490fd5b60405162461bcd60e51b815260048101849052601e818701527f526174696e67206d757374206265206265747765656e203120616e64203500006044820152606490fd5b506005841115614023565b60405162461bcd60e51b8152600481018490526026818701527f53656c6c65722063616e6e6f7420726576696577207468656972206f776e20706044820152651c9bd91d58dd60d21b6064820152608490fd5b34610507576000366003190112610507576141b661527f565b336000526015602052604060002060018060a01b031981541690556000805160206168468339815191526040805133815260006020820152a1005b346105075760403660031901126105075760043561420d614db7565b3360009081526015602090815260409091205490926001600160a01b0391821680156145185780600052600f855260ff6040600020541690600482101561074b576002614262921490811561450a5750615786565b9291925b6000928260009516945b856000526010808352604060002080548310156144ff57614292838692615159565b5054146142a857506142a390615ffd565b614270565b9192939450856000528183526142c2816040600020615159565b509160ff60058094015460a01c166144bc57866000528084526142e9826040600020615159565b508301548616331480156144af575b156144575790614312918760005284526040600020615159565b5001805460ff60a01b1916600160a01b17905560015b1561441e5781600052600c815260019280846040600020015416846000905b614369575b5050506000805160206168668339815191529192604051908152a3005b816000526011808552604060002080548310156144175761438b838892615159565b505414806143f3575b6143ad5750906143a5869392615ffd565b909192614347565b60008051602061686683398151915295969350906143d79160059360005285526040600020615159565b5001805460ff60a01b1916600160a01b1790559291858061434c565b50826000528085528784600461440d856040600020615159565b5001541614614394565b505061434c565b6064906040519062461bcd60e51b825260048201526012602482015271141d5c98da185cd9481b9bdd08199bdd5b9960721b6044820152fd5b60405162461bcd60e51b815260048101859052602a60248201527f4f6e6c792073656c6c6572206f72206f776e65722063616e206d61726b2061736044820152690819195b1a5d995c995960b21b6064820152608490fd5b50338660005416146142f8565b60405162461bcd60e51b815260048101859052601b60248201527a105b1c9958591e481b585c9ad95908185cc819195b1a5d995c9959602a1b6044820152606490fd5b505050909192614328565b90508360005416148661061c565b50600f845260ff60406000205416600481101561074b57600214801561454a575b61454290615786565b929192614266565b5060005482163314614539565b3461050757604036600319011261050757614570614da1565b602435906001600160a01b0380806145878561531e565b169216918083146146825780331490811561465d575b50156145f257600083815260066020526040902080546001600160a01b031916831790556145ca8361531e565b167f8c5be1e5ebec7d5bd14f71427d1e84f3dd0314c0f7b2291e5b200ac8c7c3b925600080a4005b60405162461bcd60e51b815260206004820152603d60248201527f4552433732313a20617070726f76652063616c6c6572206973206e6f7420746f60448201527f6b656e206f776e6572206f7220617070726f76656420666f7220616c6c0000006064820152608490fd5b9050600052600760205260406000203360005260205260ff604060002054168461459d565b60405162461bcd60e51b815260206004820152602160248201527f4552433732313a20617070726f76616c20746f2063757272656e74206f776e656044820152603960f91b6064820152608490fd5b3461050757602036600319011261050757602061392f600435615341565b346105075760003660031901126105075760405160009060025461471281615079565b808352600191808316908115612dfd575060011461473a5761026c83612d8f81870382614e3b565b6002600090815260209450917f405787fa12a823e0f2b7631cc41b3ba8828b3321ca811111fa75cd3aa3bb5ace5b82841061478157505050810190910190612d8f81612d7f565b8054858501870152928501928101614768565b3461050757600036600319011261050757600854600060015b828111156149ec57506147bf90616070565b90600160005b828211156147db576040518061026c8682614d3f565b81600052600c6020526040600020600f8101549060ff8260101c161561480e575b50509061480890615ffd565b906147c5565b6040519161481b83614dcd565b8154835260018201546001600160a01b0316602084015261483e600283016150b3565b604084015261484f600383016150b3565b606084015260048201546080840152600582015460a0840152614874600683016150b3565b60c0840152614885600783016150b3565b60e0840152600882015461489881615cbc565b906148a66040519283614e3b565b80825260208201600885016000526020600020906000905b8382106149cf57505050506010929160ff916101008601526148e2600984016150b3565b6101208601526148f4600a84016150b3565b610140860152600b830154610160860152614911600c84016150b3565b610180860152614923600d84016150b3565b6101a0860152600e8301546101c086015281811615156101e0860152818160081c161515610200860152831c1615156102208401520180549061496582615cbc565b916149736040519384614e3b565b808352602083019160005260206000206000925b8284106149b15750505050610240820152614808916149aa9161043f828861600c565b90856147fc565b600560206001926149c185616020565b815201920193019290614987565b6001602081926149de866150b3565b8152019301910190916148be565b80600052600c60205260ff600f6040600020015460101c1615614a18575b614a1390615ffd565b6147ad565b90614a25614a1391615ffd565b919050614a0a565b346105075760203660031901126105075760043563ffffffff60e01b8116809103610507576020906380ac58cd60e01b8114908115614a8a575b8115614a79575b506040519015158152f35b6301ffc9a760e01b14905082614a6e565b635b5e139f60e01b81149150614a67565b34610507576020366003190112610507576020906004356000526014825260ff6040600020541615158152f35b919082519283825260005b848110614af4575050826000602080949584010152601f8019910116010190565b602081830181015184830182015201614ad3565b908082519081815260208091019281808460051b8301019501936000915b848310614b365750505050505090565b9091929394958480600192601f1985820301865289519081518152848060a01b0383830151168382015260408083015190820152614b836060808401519060a08091850152830190614ac8565b9160808091015115159101529801930193019194939290614b26565b91908251815260209260018060a01b03848201511684830152614c24614c12614bec614bda6040850151610260806040890152870190614ac8565b60608501518682036060880152614ac8565b6080840151608086015260a084015160a086015260c084015185820360c0870152614ac8565b60e083015184820360e0860152614ac8565b6101009485830151958483039085015285518083528183019180808360051b8601019801926000905b838210614d0f57505050505050614cc6614cb2614c93614c7f614d0c9697610120808701519088830390890152614ac8565b610140808601519087830390880152614ac8565b6101608085015190860152610180808501519086830390870152614ac8565b6101a0808401519085830390860152614ac8565b916101c080830151908201526101e08083015115159082015261020080830151151590820152610220808301511515908201526102408092015191818403910152614b08565b90565b9091929394988380614d2e6001938d601f199082030186528951614ac8565b9b9701959493919091019101614c4d565b602080820190808352835180925260408301928160408460051b8301019501936000915b848310614d735750505050505090565b9091929394958480614d91600193603f198682030187528a51614b9f565b9801930193019194939290614d63565b600435906001600160a01b038216820361050757565b602435906001600160a01b038216820361050757565b61026081019081106001600160401b038211176122f257604052565b61010081019081106001600160401b038211176122f257604052565b60a081019081106001600160401b038211176122f257604052565b602081019081106001600160401b038211176122f257604052565b601f909101601f19168101906001600160401b038211908210176122f257604052565b6001600160401b0381116122f257601f01601f191660200190565b929192614e8582614e5e565b91614e936040519384614e3b565b829481845281830111610507578281602093846000960137010152565b9080601f8301121561050757816020614d0c93359101614e79565b6060906003190112610507576001600160a01b0390600435828116810361050757916024359081168103610507579060443590565b614d0c9160e0614f97614f85614f73614f61614f4f614f3d614f2b8951610100808b528a0190614ac8565b60208a015189820360208b0152614ac8565b604089015188820360408a0152614ac8565b60608801518782036060890152614ac8565b60808701518682036080880152614ac8565b60a086015185820360a0870152614ac8565b60c085015184820360c0860152614ac8565b9201519060e0818403910152614ac8565b602080820190808352835180925260409283810182858560051b8401019601946000925b858410614fdd575050505050505090565b909192939495968580615055600193603f198682030188528b51805182528381015184830152878101518883015260608082015190830152858060a01b0360808181840151169084015260a09081830151169083015260c08082015115159083015260e0809101519161010080928201520190614f00565b990194019401929594939190614fcc565b91906020830192600482101561074b5752565b90600182811c921680156150a9575b602083101461509357565b634e487b7160e01b600052602260045260246000fd5b91607f1691615088565b90604051918260008254926150c784615079565b90818452600194858116908160001461513657506001146150f3575b50506150f192500383614e3b565b565b9093915060005260209081600020936000915b81831061511e5750506150f1935082010138806150e3565b85548884018501529485019487945091830191615106565b9150506150f194506020925060ff191682840152151560051b82010138806150e3565b805482101561517557600052600e602060002091020190600090565b634e487b7160e01b600052603260045260246000fd5b9060405161519881614de9565b60e0615218600783956151aa816150b3565b85526151b8600182016150b3565b60208601526151c9600282016150b3565b60408601526151da600382016150b3565b60608601526151eb600482016150b3565b60808601526151fc600582016150b3565b60a086015261520d600682016150b3565b60c0860152016150b3565b910152565b95929091614d0c9897959492875260208701526040860152606085015260018060a01b0380921660808501521660a0830152151560c0820152610100908160e08201520190614f00565b80548210156151755760005260206000200190600090565b6000546001600160a01b0316330361529357565b606460405162461bcd60e51b815260206004820152602060248201527f4f776e61626c653a2063616c6c6572206973206e6f7420746865206f776e65726044820152fd5b156152de57565b60405162461bcd60e51b8152602060048201526018602482015277115490cdcc8c4e881a5b9d985b1a59081d1bdad95b88125160421b6044820152606490fd5b6000908152600460205260409020546001600160a01b0316614d0c8115156152d7565b61534d6108c08261563a565b6000908152600660205260409020546001600160a01b031690565b1561536f57565b60405162461bcd60e51b815260206004820152602d60248201527f4552433732313a2063616c6c6572206973206e6f7420746f6b656e206f776e6560448201526c1c881bdc88185c1c1c9bdd9959609a1b6064820152608490fd5b906153ee9392916153de613fb68433615465565b6153e983838361552d565b615687565b156153f557565b60405162461bcd60e51b81528061540e60048201615412565b0390fd5b60809060208152603260208201527f4552433732313a207472616e7366657220746f206e6f6e20455243373231526560408201527131b2b4bb32b91034b6b83632b6b2b73a32b960711b60608201520190565b906001600160a01b0380806154798461531e565b169316918383149384156154ac575b508315615496575b50505090565b6154a291929350615341565b1614388080615490565b909350600052600760205260406000208260005260205260ff604060002054169238615488565b156154da57565b60405162461bcd60e51b815260206004820152602560248201527f4552433732313a207472616e736665722066726f6d20696e636f72726563742060448201526437bbb732b960d91b6064820152608490fd5b906155559161553b8461531e565b6001600160a01b03939184169284929091831684146154d3565b169182156155d857816155729161556b8661531e565b16146154d3565b6000805160206168a6833981519152600084815260066020526040812060018060a01b03199081815416905583825260056020526040822060001981540190558482526040822060018154019055858252600460205284604083209182541617905580a4565b60405162461bcd60e51b8152602060048201526024808201527f4552433732313a207472616e7366657220746f20746865207a65726f206164646044820152637265737360e01b6064820152608490fd5b9060ff801983541691151516179055565b6000908152600460205260409020546001600160a01b0316151590565b3d15615682573d9061566882614e5e565b916156766040519384614e3b565b82523d6000602084013e565b606090565b91926000929190813b1561577c576020916156dd9185604051958680958194630a85bd0160e11b9b8c845233600485015260018060a01b0380951660248501526044840152608060648401526084830190614ac8565b0393165af19082908261572d575b505061571f576156f9615657565b8051908161571a5760405162461bcd60e51b81528061540e60048201615412565b602001fd5b6001600160e01b0319161490565b909192506020813d8211615774575b8161574960209383614e3b565b810103126157705751906001600160e01b03198216820361576d57509038806156eb565b80fd5b5080fd5b3d915061573c565b5050505050600190565b1561578d57565b60405162461bcd60e51b815260206004820152602560248201527f4f6e6c792076657269666965642073656c6c6572206f72206f776e657220616c6044820152641b1bddd95960da1b6064820152608490fd5b903590601e198136030182121561050757018035906001600160401b0382116105075760200191813603831361050757565b1561581957565b60405162461bcd60e51b81526020600482015260146024820152734e616d652063616e6e6f7420626520656d70747960601b6044820152606490fd5b1561585c57565b60405162461bcd60e51b815260206004820152601b60248201527a4465736372697074696f6e2063616e6e6f7420626520656d70747960281b6044820152606490fd5b156158a657565b60405162461bcd60e51b815260206004820152601c60248201527b05072696365206d7573742062652067726561746572207468616e20360241b6044820152606490fd5b156158f157565b60405162461bcd60e51b815260206004820152601c60248201527b053746f636b206d7573742062652067726561746572207468616e20360241b6044820152606490fd5b1561593c57565b60405162461bcd60e51b8152602060048201526015602482015274436f6c6f722063616e6e6f7420626520656d70747960581b6044820152606490fd5b903590601e198136030182121561050757018035906001600160401b03821161050757602001918160051b3603831361050757565b156159b557565b60405162461bcd60e51b8152602060048201526016602482015275496d616765732063616e6e6f7420626520656d70747960501b6044820152606490fd5b156159fa57565b60405162461bcd60e51b815260206004820152601c60248201527b496d616765732063616e6e6f74206265206d6f7265207468616e203560201b6044820152606490fd5b15615a4557565b60405162461bcd60e51b815260206004820152601460248201527353697a652063616e6e6f7420626520656d70747960601b6044820152606490fd5b15615a8857565b60405162461bcd60e51b815260206004820152601860248201527743617465676f72792063616e6e6f7420626520656d70747960401b6044820152606490fd5b15615acf57565b60405162461bcd60e51b815260206004820152601c60248201527b5375622d63617465676f72792063616e6e6f7420626520656d70747960201b6044820152606490fd5b15615b1a57565b60405162461bcd60e51b81526020600482015260156024820152744d6f64656c2063616e6e6f7420626520656d70747960581b6044820152606490fd5b15615b5e57565b60405162461bcd60e51b81526020600482015260156024820152744272616e642063616e6e6f7420626520656d70747960581b6044820152606490fd5b15615ba257565b60405162461bcd60e51b815260206004820152601d60248201527f576569676874206d7573742062652067726561746572207468616e20300000006044820152606490fd5b15615bee57565b60405162461bcd60e51b815260206004820152601a6024820152790534b55206d7573742062652067726561746572207468616e20360341b6044820152606490fd5b60405190615c3d82614dcd565b8161024060009182815282602082015260609283604083015283808301528060808301528060a08301528360c08301528360e08301528361010083015283610120830152836101408301528061016083015283610180830152836101a0830152806101c0830152806101e0830152806102008301526102208201520152565b6001600160401b0381116122f25760051b60200190565b818110615cde575050565b60008155600101615cd3565b9190601f8111615cf957505050565b6150f1926000526020600020906020601f840160051c83019310615d25575b601f0160051c0190615cd3565b9091508190615d18565b615d398154615079565b9081615d43575050565b81601f60009311600114615d55575055565b908083918252615d74601f60208420940160051c840160018501615cd3565b5555565b90600160401b81116122f257815491818155828210615d9657505050565b600052602060002091820191015b818110615daf575050565b80615dbb600192615d2f565b01615da4565b81518155602080830151600180840180546001600160a01b0319166001600160a01b03939093169290921790915560408401516002840155606084015180519094926003850192906001600160401b0383116122f257615e25836118b28654615079565b80601f8411600114615e71575091808060809593600497956150f19a600094615e66575b50501b916000199060031b1c19161790555b015115159101615629565b015192503880615e49565b9193949596601f1984168660005283600020936000905b828210615ece575050926080959285926150f19a99966004999610615eb5575b505050811b019055615e5b565b015160001960f88460031b161c19169055388080615ea8565b808886978294978701518155019601940190615e88565b15615eec57565b60405162461bcd60e51b815260206004820152601c60248201527b115490cdcc8c4e881d1bdad95b88185b1c9958591e481b5a5b9d195960221b6044820152606490fd5b15615f3757565b60405162461bcd60e51b8152602060048201526016602482015275141c9bd91d58dd08191bd95cc81b9bdd08195e1a5cdd60521b6044820152606490fd5b15615f7c57565b60405162461bcd60e51b8152602060048201526012602482015271141c9bd91d58dd081a5cc819195b195d195960721b6044820152606490fd5b60405190615fc382614e05565b60006080838281528260208201528260408201526060808201520152565b8054821015615175576000526005602060002091020190600090565b6000198114613bef5760010190565b80518210156151755760209160051b010190565b9060405161602d81614e05565b608060ff600483958054855260018060a01b03600182015416602086015260028101546040860152616061600382016150b3565b60608601520154161515910152565b9061607a82615cbc565b6160876040519182614e3b565b8281528092616098601f1991615cbc565b019060005b8281106160a957505050565b6020906160b4615c30565b8282850101520161609d565b91908203918211613bef57565b8054600160401b8110156122f2576160ec906001928382018155615159565b9290926167995780518355602080820151838501556040820151600285015560608201516003808601919091556080830151600480870180546001600160a01b0319166001600160a01b0393841617905560a08086015160058901805460c08901516001600160a81b0319909116929095169190911793151590911b60ff60a01b169290921790915560e0909301518051805191966001600160401b039593949193926006820190878111616784576161a981611e8d8454615079565b8084601f9788831160011461672257600092616717575b505060001982891b1c191690891b1790555b60078101828901518051908882116164e15781906161f4826118b28654615079565b85908883116001146166b5576000926166aa575b505060001982891b1c191690891b1790555b6008810160408901518051908882116164e157819061623d826118b28654615079565b85908883116001146166485760009261663d575b505060001982891b1c191690891b1790555b6009810160608901518051908882116164e1578190616286826118b28654615079565b85908883116001146165db576000926165d0575b505060001982891b1c191690891b1790555b600a810160808901518051908882116164e15781906162cf826118b28654615079565b859088831160011461656e57600092616563575b505060001982891b1c191690891b1790555b600b810160a08901518051908882116164e1578190616318826118b28654615079565b8590888311600114616501576000926164f6575b505060001982891b1c191690891b1790555b600c810160c08901518051908882116164e1576163658261635f8554615079565b85615cea565b8490878311600114616474579180600d949260e09694600092616469575b5050600019828b1b1c1916908b1b1790555b0197015191825195861161645457506163b8856163b28954615079565b89615cea565b809285116001146163ee57509383949184926000956163e3575b50501b92600019911b1c1916179055565b0151935038806163d2565b92919084601f1981168860005285600020956000905b8983831061643a5750505010616420575b50505050811b019055565b01519060f884600019921b161c1916905538808080616415565b858701518955909701969485019488935090810190616404565b604190634e487b7160e01b6000525260246000fd5b015190503880616383565b8a9291601f1983169185600052876000209260005b898282106164cb5750509160e09795939185600d989694106164b3575b505050811b019055616395565b0151600019838d1b60f8161c191690553880806164a6565b8385015186558f97909501949384019301616489565b604186634e487b7160e01b6000525260246000fd5b01519050388061632c565b908b9350601f1983169185600052876000209260005b8982821061654d5750508411616535575b505050811b01905561633e565b0151600019838b1b60f8161c19169055388080616528565b8385015186558f97909501949384019301616517565b0151905038806162e3565b908b9350601f1983169185600052876000209260005b898282106165ba57505084116165a2575b505050811b0190556162f5565b0151600019838b1b60f8161c19169055388080616595565b8385015186558f97909501949384019301616584565b01519050388061629a565b908b9350601f1983169185600052876000209260005b89828210616627575050841161660f575b505050811b0190556162ac565b0151600019838b1b60f8161c19169055388080616602565b8385015186558f979095019493840193016165f1565b015190503880616251565b908b9350601f1983169185600052876000209260005b89828210616694575050841161667c575b505050811b019055616263565b0151600019838b1b60f8161c1916905538808061666f565b8385015186558f9790950194938401930161665e565b015190503880616208565b908b9350601f1983169185600052876000209260005b8982821061670157505084116166e9575b505050811b01905561621a565b0151600019838b1b60f8161c191690553880806166dc565b8385015186558f979095019493840193016166cb565b0151905038806161c0565b908b9350601f1983169185600052876000209260005b8982821061676e5750508411616756575b505050811b0190556161d2565b0151600019838b1b60f8161c19169055388080616749565b8385015186558f97909501949384019301616738565b604185634e487b7160e01b6000525260246000fd5b634e487b7160e01b600052600060045260246000fd5b6001600160a01b0316801561680e57600080809381935af16167cf615657565b50156167d757565b60405162461bcd60e51b815260206004820152600f60248201526e151c985b9cd9995c8819985a5b1959608a1b6044820152606490fd5b60405162461bcd60e51b815260206004820152600f60248201526e496e76616c6964206164647265737360881b6044820152606490fdfe32b449308c94e824ccedd9877932cd82f89a481c06c4643a0cb2914454a8c582f9dc8543b583e01f592678422369b2777e3649761f5808ae432cb1c24ca9438c8be0079c531659141344cd1fd0a4f28419497f9722a3daafe3b4186f6b6457e0ddf252ad1be2c89b69c2b068fc378daa952ba7f163c4a11628f55a4df523b3efa164736f6c6343000813000a",
  "linkReferences": {},
  "deployedLinkReferences": {}
}