{
  "_format": "hh-sol-artifact-1",
  "contractName": "HemShop",
  "sourceName": "contracts/HemShop.sol",
  "abi": [
    {
      "inputs": [
        {
          "internalType": "uint256",
          "name": "_pct",
          "type": "uint256"
        }
      ],
      "stateMutability": "nonpayable",
      "type": "constructor"
    },
    {
      "anonymous": false,
      "inputs": [
        {
          "indexed": false,
          "internalType": "address",
          "name": "admin",
          "type": "address"
        },
        {
          "indexed": false,
          "internalType": "address",
          "name": "impersonatedAccount",
          "type": "address"
        }
      ],
      "name": "AdminImpersonationChanged",
      "type": "event"
    },
    {
      "anonymous": false,
      "inputs": [
        {
          "indexed": true,
          "internalType": "address",
          "name": "owner",
          "type": "address"
        },
        {
          "indexed": true,
          "internalType": "address",
          "name": "approved",
          "type": "address"
        },
        {
          "indexed": true,
          "internalType": "uint256",
          "name": "tokenId",
          "type": "uint256"
        }
      ],
      "name": "Approval",
      "type": "event"
    },
    {
      "anonymous": false,
      "inputs": [
        {
          "indexed": true,
          "internalType": "address",
          "name": "owner",
          "type": "address"
        },
        {
          "indexed": true,
          "internalType": "address",
          "name": "operator",
          "type": "address"
        },
        {
          "indexed": false,
          "internalType": "bool",
          "name": "approved",
          "type": "bool"
        }
      ],
      "name": "ApprovalForAll",
      "type": "event"
    },
    {
      "anonymous": false,
      "inputs": [
        {
          "indexed": true,
          "internalType": "address",
          "name": "seller",
          "type": "address"
        },
        {
          "indexed": false,
          "internalType": "uint256",
          "name": "newBalance",
          "type": "uint256"
        }
      ],
      "name": "BalanceUpdated",
      "type": "event"
    },
    {
      "anonymous": false,
      "inputs": [
        {
          "indexed": true,
          "internalType": "uint256",
          "name": "productId",
          "type": "uint256"
        },
        {
          "indexed": true,
          "internalType": "address",
          "name": "buyer",
          "type": "address"
        },
        {
          "indexed": false,
          "internalType": "bool",
          "name": "isDelivered",
          "type": "bool"
        }
      ],
      "name": "DeliveryStatusUpdated",
      "type": "event"
    },
    {
      "anonymous": false,
      "inputs": [
        {
          "indexed": true,
          "internalType": "address",
          "name": "previousOwner",
          "type": "address"
        },
        {
          "indexed": true,
          "internalType": "address",
          "name": "newOwner",
          "type": "address"
        }
      ],
      "name": "OwnershipTransferred",
      "type": "event"
    },
    {
      "anonymous": false,
      "inputs": [
        {
          "indexed": true,
          "internalType": "uint256",
          "name": "productId",
          "type": "uint256"
        },
        {
          "indexed": true,
          "internalType": "address",
          "name": "buyer",
          "type": "address"
        },
        {
          "indexed": true,
          "internalType": "address",
          "name": "seller",
          "type": "address"
        },
        {
          "indexed": false,
          "internalType": "uint256",
          "name": "price",
          "type": "uint256"
        },
        {
          "indexed": false,
          "internalType": "uint256",
          "name": "timestamp",
          "type": "uint256"
        }
      ],
      "name": "ProductPurchased",
      "type": "event"
    },
    {
      "anonymous": false,
      "inputs": [
        {
          "indexed": true,
          "internalType": "uint256",
          "name": "productId",
          "type": "uint256"
        },
        {
          "indexed": true,
          "internalType": "address",
          "name": "buyer",
          "type": "address"
        },
        {
          "indexed": true,
          "internalType": "address",
          "name": "seller",
          "type": "address"
        },
        {
          "indexed": false,
          "internalType": "uint256",
          "name": "totalAmount",
          "type": "uint256"
        },
        {
          "indexed": false,
          "internalType": "uint256",
          "name": "basePrice",
          "type": "uint256"
        },
        {
          "indexed": false,
          "internalType": "uint256",
          "name": "timestamp",
          "type": "uint256"
        }
      ],
      "name": "PurchaseRecorded",
      "type": "event"
    },
    {
      "anonymous": false,
      "inputs": [
        {
          "indexed": true,
          "internalType": "address",
          "name": "seller",
          "type": "address"
        },
        {
          "indexed": false,
          "internalType": "uint256",
          "name": "timestamp",
          "type": "uint256"
        }
      ],
      "name": "SellerRegistered",
      "type": "event"
    },
    {
      "anonymous": false,
      "inputs": [
        {
          "indexed": true,
          "internalType": "address",
          "name": "seller",
          "type": "address"
        },
        {
          "indexed": false,
          "internalType": "enum HemShopBase.SellerStatus",
          "name": "status",
          "type": "uint8"
        }
      ],
      "name": "SellerStatusUpdated",
      "type": "event"
    },
    {
      "anonymous": false,
      "inputs": [
        {
          "indexed": true,
          "internalType": "address",
          "name": "from",
          "type": "address"
        },
        {
          "indexed": true,
          "internalType": "address",
          "name": "to",
          "type": "address"
        },
        {
          "indexed": true,
          "internalType": "uint256",
          "name": "tokenId",
          "type": "uint256"
        }
      ],
      "name": "Transfer",
      "type": "event"
    },
    {
      "inputs": [
        {
          "internalType": "address",
          "name": "",
          "type": "address"
        }
      ],
      "name": "adminImpersonating",
      "outputs": [
        {
          "internalType": "address",
          "name": "",
          "type": "address"
        }
      ],
      "stateMutability": "view",
      "type": "function"
    },
    {
      "inputs": [
        {
          "internalType": "address",
          "name": "to",
          "type": "address"
        },
        {
          "internalType": "uint256",
          "name": "tokenId",
          "type": "uint256"
        }
      ],
      "name": "approve",
      "outputs": [],
      "stateMutability": "nonpayable",
      "type": "function"
    },
    {
      "inputs": [
        {
          "internalType": "address",
          "name": "owner",
          "type": "address"
        }
      ],
      "name": "balanceOf",
      "outputs": [
        {
          "internalType": "uint256",
          "name": "",
          "type": "uint256"
        }
      ],
      "stateMutability": "view",
      "type": "function"
    },
    {
      "inputs": [
        {
          "internalType": "uint256",
          "name": "productId",
          "type": "uint256"
        },
        {
          "components": [
            {
              "internalType": "string",
              "name": "fullName",
              "type": "string"
            },
            {
              "internalType": "string",
              "name": "streetAddress",
              "type": "string"
            },
            {
              "internalType": "string",
              "name": "city",
              "type": "string"
            },
            {
              "internalType": "string",
              "name": "state",
              "type": "string"
            },
            {
              "internalType": "string",
              "name": "country",
              "type": "string"
            },
            {
              "internalType": "string",
              "name": "postalCode",
              "type": "string"
            },
            {
              "internalType": "string",
              "name": "phone",
              "type": "string"
            },
            {
              "internalType": "string",
              "name": "email",
              "type": "string"
            }
          ],
          "internalType": "struct HemShop.ShippingDetails",
          "name": "shippingDetails",
          "type": "tuple"
        }
      ],
      "name": "buyProduct",
      "outputs": [],
      "stateMutability": "payable",
      "type": "function"
    },
    {
      "inputs": [
        {
          "internalType": "address",
          "name": "",
          "type": "address"
        },
        {
          "internalType": "uint256",
          "name": "",
          "type": "uint256"
        }
      ],
      "name": "buyerPurchaseHistory",
      "outputs": [
        {
          "internalType": "uint256",
          "name": "productId",
          "type": "uint256"
        },
        {
          "internalType": "uint256",
          "name": "totalAmount",
          "type": "uint256"
        },
        {
          "internalType": "uint256",
          "name": "basePrice",
          "type": "uint256"
        },
        {
          "internalType": "uint256",
          "name": "timestamp",
          "type": "uint256"
        },
        {
          "internalType": "address",
          "name": "buyer",
          "type": "address"
        },
        {
          "internalType": "address",
          "name": "seller",
          "type": "address"
        },
        {
          "internalType": "bool",
          "name": "isDelivered",
          "type": "bool"
        },
        {
          "components": [
            {
              "internalType": "string",
              "name": "fullName",
              "type": "string"
            },
            {
              "internalType": "string",
              "name": "streetAddress",
              "type": "string"
            },
            {
              "internalType": "string",
              "name": "city",
              "type": "string"
            },
            {
              "internalType": "string",
              "name": "state",
              "type": "string"
            },
            {
              "internalType": "string",
              "name": "country",
              "type": "string"
            },
            {
              "internalType": "string",
              "name": "postalCode",
              "type": "string"
            },
            {
              "internalType": "string",
              "name": "phone",
              "type": "string"
            },
            {
              "internalType": "string",
              "name": "email",
              "type": "string"
            }
          ],
          "internalType": "struct HemShop.ShippingDetails",
          "name": "shippingDetails",
          "type": "tuple"
        }
      ],
      "stateMutability": "view",
      "type": "function"
    },
    {
      "inputs": [
        {
          "components": [
            {
              "internalType": "string",
              "name": "name",
              "type": "string"
            },
            {
              "internalType": "string",
              "name": "description",
              "type": "string"
            },
            {
              "internalType": "uint256",
              "name": "price",
              "type": "uint256"
            },
            {
              "internalType": "uint256",
              "name": "stock",
              "type": "uint256"
            },
            {
              "internalType": "string",
              "name": "color",
              "type": "string"
            },
            {
              "internalType": "string",
              "name": "size",
              "type": "string"
            },
            {
              "internalType": "string[]",
              "name": "images",
              "type": "string[]"
            },
            {
              "internalType": "string",
              "name": "category",
              "type": "string"
            },
            {
              "internalType": "string",
              "name": "subCategory",
              "type": "string"
            },
            {
              "internalType": "string",
              "name": "model",
              "type": "string"
            },
            {
              "internalType": "string",
              "name": "brand",
              "type": "string"
            },
            {
              "internalType": "uint256",
              "name": "weight",
              "type": "uint256"
            },
            {
              "internalType": "uint256",
              "name": "sku",
              "type": "uint256"
            }
          ],
          "internalType": "struct HemShopProduct.ProductInput",
          "name": "input",
          "type": "tuple"
        }
      ],
      "name": "createProduct",
      "outputs": [],
      "stateMutability": "nonpayable",
      "type": "function"
    },
    {
      "inputs": [
        {
          "internalType": "uint256",
          "name": "productId",
          "type": "uint256"
        },
        {
          "internalType": "uint256",
          "name": "rating",
          "type": "uint256"
        },
        {
          "internalType": "string",
          "name": "comment",
          "type": "string"
        }
      ],
      "name": "createReview",
      "outputs": [],
      "stateMutability": "nonpayable",
      "type": "function"
    },
    {
      "inputs": [
        {
          "internalType": "uint256",
          "name": "productId",
          "type": "uint256"
        }
      ],
      "name": "deleteProduct",
      "outputs": [],
      "stateMutability": "nonpayable",
      "type": "function"
    },
    {
      "inputs": [
        {
          "internalType": "uint256",
          "name": "productId",
          "type": "uint256"
        },
        {
          "internalType": "uint256",
          "name": "reviewId",
          "type": "uint256"
        }
      ],
      "name": "deleteReview",
      "outputs": [],
      "stateMutability": "nonpayable",
      "type": "function"
    },
    {
      "inputs": [],
      "name": "getAllProducts",
      "outputs": [
        {
          "components": [
            {
              "internalType": "uint256",
              "name": "id",
              "type": "uint256"
            },
            {
              "internalType": "address",
              "name": "seller",
              "type": "address"
            },
            {
              "internalType": "string",
              "name": "name",
              "type": "string"
            },
            {
              "internalType": "string",
              "name": "description",
              "type": "string"
            },
            {
              "internalType": "uint256",
              "name": "price",
              "type": "uint256"
            },
            {
              "internalType": "uint256",
              "name": "stock",
              "type": "uint256"
            },
            {
              "internalType": "string",
              "name": "color",
              "type": "string"
            },
            {
              "internalType": "string",
              "name": "size",
              "type": "string"
            },
            {
              "internalType": "string[]",
              "name": "images",
              "type": "string[]"
            },
            {
              "internalType": "string",
              "name": "category",
              "type": "string"
            },
            {
              "internalType": "string",
              "name": "subCategory",
              "type": "string"
            },
            {
              "internalType": "uint256",
              "name": "weight",
              "type": "uint256"
            },
            {
              "internalType": "string",
              "name": "model",
              "type": "string"
            },
            {
              "internalType": "string",
              "name": "brand",
              "type": "string"
            },
            {
              "internalType": "uint256",
              "name": "sku",
              "type": "uint256"
            },
            {
              "internalType": "bool",
              "name": "soldout",
              "type": "bool"
            },
            {
              "internalType": "bool",
              "name": "wishlist",
              "type": "bool"
            },
            {
              "internalType": "bool",
              "name": "deleted",
              "type": "bool"
            },
            {
              "components": [
                {
                  "internalType": "uint256",
                  "name": "reviewId",
                  "type": "uint256"
                },
                {
                  "internalType": "address",
                  "name": "reviewer",
                  "type": "address"
                },
                {
                  "internalType": "uint256",
                  "name": "rating",
                  "type": "uint256"
                },
                {
                  "internalType": "string",
                  "name": "comment",
                  "type": "string"
                },
                {
                  "internalType": "bool",
                  "name": "deleted",
                  "type": "bool"
                }
              ],
              "internalType": "struct HemShopBase.ReviewStruct[]",
              "name": "reviews",
              "type": "tuple[]"
            }
          ],
          "internalType": "struct HemShopProduct.ProductStruct[]",
          "name": "",
          "type": "tuple[]"
        }
      ],
      "stateMutability": "view",
      "type": "function"
    },
    {
      "inputs": [
        {
          "internalType": "uint256",
          "name": "tokenId",
          "type": "uint256"
        }
      ],
      "name": "getApproved",
      "outputs": [
        {
          "internalType": "address",
          "name": "",
          "type": "address"
        }
      ],
      "stateMutability": "view",
      "type": "function"
    },
    {
      "inputs": [
        {
          "internalType": "address",
          "name": "buyer",
          "type": "address"
        }
      ],
      "name": "getBuyerPurchaseHistory",
      "outputs": [
        {
          "components": [
            {
              "internalType": "uint256",
              "name": "productId",
              "type": "uint256"
            },
            {
              "internalType": "uint256",
              "name": "totalAmount",
              "type": "uint256"
            },
            {
              "internalType": "uint256",
              "name": "basePrice",
              "type": "uint256"
            },
            {
              "internalType": "uint256",
              "name": "timestamp",
              "type": "uint256"
            },
            {
              "internalType": "address",
              "name": "buyer",
              "type": "address"
            },
            {
              "internalType": "address",
              "name": "seller",
              "type": "address"
            },
            {
              "internalType": "bool",
              "name": "isDelivered",
              "type": "bool"
            },
            {
              "components": [
                {
                  "internalType": "string",
                  "name": "fullName",
                  "type": "string"
                },
                {
                  "internalType": "string",
                  "name": "streetAddress",
                  "type": "string"
                },
                {
                  "internalType": "string",
                  "name": "city",
                  "type": "string"
                },
                {
                  "internalType": "string",
                  "name": "state",
                  "type": "string"
                },
                {
                  "internalType": "string",
                  "name": "country",
                  "type": "string"
                },
                {
                  "internalType": "string",
                  "name": "postalCode",
                  "type": "string"
                },
                {
                  "internalType": "string",
                  "name": "phone",
                  "type": "string"
                },
                {
                  "internalType": "string",
                  "name": "email",
                  "type": "string"
                }
              ],
              "internalType": "struct HemShop.ShippingDetails",
              "name": "shippingDetails",
              "type": "tuple"
            }
          ],
          "internalType": "struct HemShop.PurchaseHistoryStruct[]",
          "name": "",
          "type": "tuple[]"
        }
      ],
      "stateMutability": "view",
      "type": "function"
    },
    {
      "inputs": [],
      "name": "getMyProducts",
      "outputs": [
        {
          "components": [
            {
              "internalType": "uint256",
              "name": "id",
              "type": "uint256"
            },
            {
              "internalType": "address",
              "name": "seller",
              "type": "address"
            },
            {
              "internalType": "string",
              "name": "name",
              "type": "string"
            },
            {
              "internalType": "string",
              "name": "description",
              "type": "string"
            },
            {
              "internalType": "uint256",
              "name": "price",
              "type": "uint256"
            },
            {
              "internalType": "uint256",
              "name": "stock",
              "type": "uint256"
            },
            {
              "internalType": "string",
              "name": "color",
              "type": "string"
            },
            {
              "internalType": "string",
              "name": "size",
              "type": "string"
            },
            {
              "internalType": "string[]",
              "name": "images",
              "type": "string[]"
            },
            {
              "internalType": "string",
              "name": "category",
              "type": "string"
            },
            {
              "internalType": "string",
              "name": "subCategory",
              "type": "string"
            },
            {
              "internalType": "uint256",
              "name": "weight",
              "type": "uint256"
            },
            {
              "internalType": "string",
              "name": "model",
              "type": "string"
            },
            {
              "internalType": "string",
              "name": "brand",
              "type": "string"
            },
            {
              "internalType": "uint256",
              "name": "sku",
              "type": "uint256"
            },
            {
              "internalType": "bool",
              "name": "soldout",
              "type": "bool"
            },
            {
              "internalType": "bool",
              "name": "wishlist",
              "type": "bool"
            },
            {
              "internalType": "bool",
              "name": "deleted",
              "type": "bool"
            },
            {
              "components": [
                {
                  "internalType": "uint256",
                  "name": "reviewId",
                  "type": "uint256"
                },
                {
                  "internalType": "address",
                  "name": "reviewer",
                  "type": "address"
                },
                {
                  "internalType": "uint256",
                  "name": "rating",
                  "type": "uint256"
                },
                {
                  "internalType": "string",
                  "name": "comment",
                  "type": "string"
                },
                {
                  "internalType": "bool",
                  "name": "deleted",
                  "type": "bool"
                }
              ],
              "internalType": "struct HemShopBase.ReviewStruct[]",
              "name": "reviews",
              "type": "tuple[]"
            }
          ],
          "internalType": "struct HemShopProduct.ProductStruct[]",
          "name": "",
          "type": "tuple[]"
        }
      ],
      "stateMutability": "view",
      "type": "function"
    },
    {
      "inputs": [
        {
          "internalType": "uint256",
          "name": "productId",
          "type": "uint256"
        }
      ],
      "name": "getProduct",
      "outputs": [
        {
          "components": [
            {
              "internalType": "uint256",
              "name": "id",
              "type": "uint256"
            },
            {
              "internalType": "address",
              "name": "seller",
              "type": "address"
            },
            {
              "internalType": "string",
              "name": "name",
              "type": "string"
            },
            {
              "internalType": "string",
              "name": "description",
              "type": "string"
            },
            {
              "internalType": "uint256",
              "name": "price",
              "type": "uint256"
            },
            {
              "internalType": "uint256",
              "name": "stock",
              "type": "uint256"
            },
            {
              "internalType": "string",
              "name": "color",
              "type": "string"
            },
            {
              "internalType": "string",
              "name": "size",
              "type": "string"
            },
            {
              "internalType": "string[]",
              "name": "images",
              "type": "string[]"
            },
            {
              "internalType": "string",
              "name": "category",
              "type": "string"
            },
            {
              "internalType": "string",
              "name": "subCategory",
              "type": "string"
            },
            {
              "internalType": "uint256",
              "name": "weight",
              "type": "uint256"
            },
            {
              "internalType": "string",
              "name": "model",
              "type": "string"
            },
            {
              "internalType": "string",
              "name": "brand",
              "type": "string"
            },
            {
              "internalType": "uint256",
              "name": "sku",
              "type": "uint256"
            },
            {
              "internalType": "bool",
              "name": "soldout",
              "type": "bool"
            },
            {
              "internalType": "bool",
              "name": "wishlist",
              "type": "bool"
            },
            {
              "internalType": "bool",
              "name": "deleted",
              "type": "bool"
            },
            {
              "components": [
                {
                  "internalType": "uint256",
                  "name": "reviewId",
                  "type": "uint256"
                },
                {
                  "internalType": "address",
                  "name": "reviewer",
                  "type": "address"
                },
                {
                  "internalType": "uint256",
                  "name": "rating",
                  "type": "uint256"
                },
                {
                  "internalType": "string",
                  "name": "comment",
                  "type": "string"
                },
                {
                  "internalType": "bool",
                  "name": "deleted",
                  "type": "bool"
                }
              ],
              "internalType": "struct HemShopBase.ReviewStruct[]",
              "name": "reviews",
              "type": "tuple[]"
            }
          ],
          "internalType": "struct HemShopProduct.ProductStruct",
          "name": "",
          "type": "tuple"
        }
      ],
      "stateMutability": "view",
      "type": "function"
    },
    {
      "inputs": [
        {
          "internalType": "uint256",
          "name": "productId",
          "type": "uint256"
        }
      ],
      "name": "getReviews",
      "outputs": [
        {
          "components": [
            {
              "internalType": "uint256",
              "name": "reviewId",
              "type": "uint256"
            },
            {
              "internalType": "address",
              "name": "reviewer",
              "type": "address"
            },
            {
              "internalType": "uint256",
              "name": "rating",
              "type": "uint256"
            },
            {
              "internalType": "string",
              "name": "comment",
              "type": "string"
            },
            {
              "internalType": "bool",
              "name": "deleted",
              "type": "bool"
            }
          ],
          "internalType": "struct HemShopBase.ReviewStruct[]",
          "name": "",
          "type": "tuple[]"
        }
      ],
      "stateMutability": "view",
      "type": "function"
    },
    {
      "inputs": [
        {
          "internalType": "address",
          "name": "seller",
          "type": "address"
        }
      ],
      "name": "getSellerBalance",
      "outputs": [
        {
          "internalType": "uint256",
          "name": "",
          "type": "uint256"
        }
      ],
      "stateMutability": "view",
      "type": "function"
    },
    {
      "inputs": [
        {
          "internalType": "address",
          "name": "seller",
          "type": "address"
        }
      ],
      "name": "getSellerPurchaseHistory",
      "outputs": [
        {
          "components": [
            {
              "internalType": "uint256",
              "name": "productId",
              "type": "uint256"
            },
            {
              "internalType": "uint256",
              "name": "totalAmount",
              "type": "uint256"
            },
            {
              "internalType": "uint256",
              "name": "basePrice",
              "type": "uint256"
            },
            {
              "internalType": "uint256",
              "name": "timestamp",
              "type": "uint256"
            },
            {
              "internalType": "address",
              "name": "buyer",
              "type": "address"
            },
            {
              "internalType": "address",
              "name": "seller",
              "type": "address"
            },
            {
              "internalType": "bool",
              "name": "isDelivered",
              "type": "bool"
            },
            {
              "components": [
                {
                  "internalType": "string",
                  "name": "fullName",
                  "type": "string"
                },
                {
                  "internalType": "string",
                  "name": "streetAddress",
                  "type": "string"
                },
                {
                  "internalType": "string",
                  "name": "city",
                  "type": "string"
                },
                {
                  "internalType": "string",
                  "name": "state",
                  "type": "string"
                },
                {
                  "internalType": "string",
                  "name": "country",
                  "type": "string"
                },
                {
                  "internalType": "string",
                  "name": "postalCode",
                  "type": "string"
                },
                {
                  "internalType": "string",
                  "name": "phone",
                  "type": "string"
                },
                {
                  "internalType": "string",
                  "name": "email",
                  "type": "string"
                }
              ],
              "internalType": "struct HemShop.ShippingDetails",
              "name": "shippingDetails",
              "type": "tuple"
            }
          ],
          "internalType": "struct HemShop.PurchaseHistoryStruct[]",
          "name": "",
          "type": "tuple[]"
        }
      ],
      "stateMutability": "view",
      "type": "function"
    },
    {
      "inputs": [
        {
          "internalType": "address",
          "name": "account",
          "type": "address"
        }
      ],
      "name": "impersonateAccount",
      "outputs": [],
      "stateMutability": "nonpayable",
      "type": "function"
    },
    {
      "inputs": [
        {
          "internalType": "address",
          "name": "owner",
          "type": "address"
        },
        {
          "internalType": "address",
          "name": "operator",
          "type": "address"
        }
      ],
      "name": "isApprovedForAll",
      "outputs": [
        {
          "internalType": "bool",
          "name": "",
          "type": "bool"
        }
      ],
      "stateMutability": "view",
      "type": "function"
    },
    {
      "inputs": [
        {
          "internalType": "uint256",
          "name": "productId",
          "type": "uint256"
        },
        {
          "internalType": "address",
          "name": "buyer",
          "type": "address"
        }
      ],
      "name": "markPurchaseDelivered",
      "outputs": [],
      "stateMutability": "nonpayable",
      "type": "function"
    },
    {
      "inputs": [],
      "name": "name",
      "outputs": [
        {
          "internalType": "string",
          "name": "",
          "type": "string"
        }
      ],
      "stateMutability": "view",
      "type": "function"
    },
    {
      "inputs": [],
      "name": "owner",
      "outputs": [
        {
          "internalType": "address",
          "name": "",
          "type": "address"
        }
      ],
      "stateMutability": "view",
      "type": "function"
    },
    {
      "inputs": [
        {
          "internalType": "uint256",
          "name": "tokenId",
          "type": "uint256"
        }
      ],
      "name": "ownerOf",
      "outputs": [
        {
          "internalType": "address",
          "name": "",
          "type": "address"
        }
      ],
      "stateMutability": "view",
      "type": "function"
    },
    {
      "inputs": [
        {
          "internalType": "uint256",
          "name": "",
          "type": "uint256"
        }
      ],
      "name": "productExists",
      "outputs": [
        {
          "internalType": "bool",
          "name": "",
          "type": "bool"
        }
      ],
      "stateMutability": "view",
      "type": "function"
    },
    {
      "inputs": [
        {
          "internalType": "uint256",
          "name": "",
          "type": "uint256"
        }
      ],
      "name": "products",
      "outputs": [
        {
          "internalType": "uint256",
          "name": "id",
          "type": "uint256"
        },
        {
          "internalType": "address",
          "name": "seller",
          "type": "address"
        },
        {
          "internalType": "string",
          "name": "name",
          "type": "string"
        },
        {
          "internalType": "string",
          "name": "description",
          "type": "string"
        },
        {
          "internalType": "uint256",
          "name": "price",
          "type": "uint256"
        },
        {
          "internalType": "uint256",
          "name": "stock",
          "type": "uint256"
        },
        {
          "internalType": "string",
          "name": "color",
          "type": "string"
        },
        {
          "internalType": "string",
          "name": "size",
          "type": "string"
        },
        {
          "internalType": "string",
          "name": "category",
          "type": "string"
        },
        {
          "internalType": "string",
          "name": "subCategory",
          "type": "string"
        },
        {
          "internalType": "uint256",
          "name": "weight",
          "type": "uint256"
        },
        {
          "internalType": "string",
          "name": "model",
          "type": "string"
        },
        {
          "internalType": "string",
          "name": "brand",
          "type": "string"
        },
        {
          "internalType": "uint256",
          "name": "sku",
          "type": "uint256"
        },
        {
          "internalType": "bool",
          "name": "soldout",
          "type": "bool"
        },
        {
          "internalType": "bool",
          "name": "wishlist",
          "type": "bool"
        },
        {
          "internalType": "bool",
          "name": "deleted",
          "type": "bool"
        }
      ],
      "stateMutability": "view",
      "type": "function"
    },
    {
      "inputs": [],
      "name": "registerSeller",
      "outputs": [],
      "stateMutability": "nonpayable",
      "type": "function"
    },
    {
      "inputs": [
        {
          "internalType": "address",
          "name": "",
          "type": "address"
        }
      ],
      "name": "registeredSellers",
      "outputs": [
        {
          "internalType": "bool",
          "name": "",
          "type": "bool"
        }
      ],
      "stateMutability": "view",
      "type": "function"
    },
    {
      "inputs": [],
      "name": "renounceOwnership",
      "outputs": [],
      "stateMutability": "nonpayable",
      "type": "function"
    },
    {
      "inputs": [
        {
          "internalType": "uint256",
          "name": "",
          "type": "uint256"
        }
      ],
      "name": "reviewExists",
      "outputs": [
        {
          "internalType": "bool",
          "name": "",
          "type": "bool"
        }
      ],
      "stateMutability": "view",
      "type": "function"
    },
    {
      "inputs": [
        {
          "internalType": "address",
          "name": "from",
          "type": "address"
        },
        {
          "internalType": "address",
          "name": "to",
          "type": "address"
        },
        {
          "internalType": "uint256",
          "name": "tokenId",
          "type": "uint256"
        }
      ],
      "name": "safeTransferFrom",
      "outputs": [],
      "stateMutability": "nonpayable",
      "type": "function"
    },
    {
      "inputs": [
        {
          "internalType": "address",
          "name": "from",
          "type": "address"
        },
        {
          "internalType": "address",
          "name": "to",
          "type": "address"
        },
        {
          "internalType": "uint256",
          "name": "tokenId",
          "type": "uint256"
        },
        {
          "internalType": "bytes",
          "name": "data",
          "type": "bytes"
        }
      ],
      "name": "safeTransferFrom",
      "outputs": [],
      "stateMutability": "nonpayable",
      "type": "function"
    },
    {
      "inputs": [
        {
          "internalType": "address",
          "name": "",
          "type": "address"
        }
      ],
      "name": "sellerBalances",
      "outputs": [
        {
          "internalType": "uint256",
          "name": "",
          "type": "uint256"
        }
      ],
      "stateMutability": "view",
      "type": "function"
    },
    {
      "inputs": [
        {
          "internalType": "address",
          "name": "",
          "type": "address"
        },
        {
          "internalType": "uint256",
          "name": "",
          "type": "uint256"
        }
      ],
      "name": "sellerProducts",
      "outputs": [
        {
          "internalType": "uint256",
          "name": "",
          "type": "uint256"
        }
      ],
      "stateMutability": "view",
      "type": "function"
    },
    {
      "inputs": [
        {
          "internalType": "address",
          "name": "",
          "type": "address"
        },
        {
          "internalType": "uint256",
          "name": "",
          "type": "uint256"
        }
      ],
      "name": "sellerPurchaseHistory",
      "outputs": [
        {
          "internalType": "uint256",
          "name": "productId",
          "type": "uint256"
        },
        {
          "internalType": "uint256",
          "name": "totalAmount",
          "type": "uint256"
        },
        {
          "internalType": "uint256",
          "name": "basePrice",
          "type": "uint256"
        },
        {
          "internalType": "uint256",
          "name": "timestamp",
          "type": "uint256"
        },
        {
          "internalType": "address",
          "name": "buyer",
          "type": "address"
        },
        {
          "internalType": "address",
          "name": "seller",
          "type": "address"
        },
        {
          "internalType": "bool",
          "name": "isDelivered",
          "type": "bool"
        },
        {
          "components": [
            {
              "internalType": "string",
              "name": "fullName",
              "type": "string"
            },
            {
              "internalType": "string",
              "name": "streetAddress",
              "type": "string"
            },
            {
              "internalType": "string",
              "name": "city",
              "type": "string"
            },
            {
              "internalType": "string",
              "name": "state",
              "type": "string"
            },
            {
              "internalType": "string",
              "name": "country",
              "type": "string"
            },
            {
              "internalType": "string",
              "name": "postalCode",
              "type": "string"
            },
            {
              "internalType": "string",
              "name": "phone",
              "type": "string"
            },
            {
              "internalType": "string",
              "name": "email",
              "type": "string"
            }
          ],
          "internalType": "struct HemShop.ShippingDetails",
          "name": "shippingDetails",
          "type": "tuple"
        }
      ],
      "stateMutability": "view",
      "type": "function"
    },
    {
      "inputs": [
        {
          "internalType": "address",
          "name": "",
          "type": "address"
        }
      ],
      "name": "sellerStatus",
      "outputs": [
        {
          "internalType": "enum HemShopBase.SellerStatus",
          "name": "",
          "type": "uint8"
        }
      ],
      "stateMutability": "view",
      "type": "function"
    },
    {
      "inputs": [],
      "name": "servicePct",
      "outputs": [
        {
          "internalType": "uint256",
          "name": "",
          "type": "uint256"
        }
      ],
      "stateMutability": "view",
      "type": "function"
    },
    {
      "inputs": [
        {
          "internalType": "address",
          "name": "operator",
          "type": "address"
        },
        {
          "internalType": "bool",
          "name": "approved",
          "type": "bool"
        }
      ],
      "name": "setApprovalForAll",
      "outputs": [],
      "stateMutability": "nonpayable",
      "type": "function"
    },
    {
      "inputs": [],
      "name": "stopImpersonating",
      "outputs": [],
      "stateMutability": "nonpayable",
      "type": "function"
    },
    {
      "inputs": [
        {
          "internalType": "bytes4",
          "name": "interfaceId",
          "type": "bytes4"
        }
      ],
      "name": "supportsInterface",
      "outputs": [
        {
          "internalType": "bool",
          "name": "",
          "type": "bool"
        }
      ],
      "stateMutability": "view",
      "type": "function"
    },
    {
      "inputs": [],
      "name": "symbol",
      "outputs": [
        {
          "internalType": "string",
          "name": "",
          "type": "string"
        }
      ],
      "stateMutability": "view",
      "type": "function"
    },
    {
      "inputs": [
        {
          "internalType": "uint256",
          "name": "tokenId",
          "type": "uint256"
        }
      ],
      "name": "tokenURI",
      "outputs": [
        {
          "internalType": "string",
          "name": "",
          "type": "string"
        }
      ],
      "stateMutability": "view",
      "type": "function"
    },
    {
      "inputs": [
        {
          "internalType": "address",
          "name": "from",
          "type": "address"
        },
        {
          "internalType": "address",
          "name": "to",
          "type": "address"
        },
        {
          "internalType": "uint256",
          "name": "tokenId",
          "type": "uint256"
        }
      ],
      "name": "transferFrom",
      "outputs": [],
      "stateMutability": "nonpayable",
      "type": "function"
    },
    {
      "inputs": [
        {
          "internalType": "address",
          "name": "newOwner",
          "type": "address"
        }
      ],
      "name": "transferOwnership",
      "outputs": [],
      "stateMutability": "nonpayable",
      "type": "function"
    },
    {
      "inputs": [
        {
          "internalType": "uint256",
          "name": "productId",
          "type": "uint256"
        },
        {
          "components": [
            {
              "internalType": "string",
              "name": "name",
              "type": "string"
            },
            {
              "internalType": "string",
              "name": "description",
              "type": "string"
            },
            {
              "internalType": "uint256",
              "name": "price",
              "type": "uint256"
            },
            {
              "internalType": "uint256",
              "name": "stock",
              "type": "uint256"
            },
            {
              "internalType": "string",
              "name": "color",
              "type": "string"
            },
            {
              "internalType": "string",
              "name": "size",
              "type": "string"
            },
            {
              "internalType": "string[]",
              "name": "images",
              "type": "string[]"
            },
            {
              "internalType": "string",
              "name": "category",
              "type": "string"
            },
            {
              "internalType": "string",
              "name": "subCategory",
              "type": "string"
            },
            {
              "internalType": "string",
              "name": "model",
              "type": "string"
            },
            {
              "internalType": "string",
              "name": "brand",
              "type": "string"
            },
            {
              "internalType": "uint256",
              "name": "weight",
              "type": "uint256"
            },
            {
              "internalType": "uint256",
              "name": "sku",
              "type": "uint256"
            }
          ],
          "internalType": "struct HemShopProduct.ProductInput",
          "name": "input",
          "type": "tuple"
        }
      ],
      "name": "updateProduct",
      "outputs": [],
      "stateMutability": "nonpayable",
      "type": "function"
    },
    {
      "inputs": [
        {
          "internalType": "address",
          "name": "seller",
          "type": "address"
        },
        {
          "internalType": "enum HemShopBase.SellerStatus",
          "name": "status",
          "type": "uint8"
        }
      ],
      "name": "updateSellerStatus",
      "outputs": [],
      "stateMutability": "nonpayable",
      "type": "function"
    },
    {
      "inputs": [],
      "name": "withdraw",
      "outputs": [],
      "stateMutability": "nonpayable",
      "type": "function"
    }
  ],
  "bytecode": "0x6080346200037757601f90601f196001600160401b0362006cc73881900385810184168501838111868210176200037c57859282916040528339602094859181010312620003775751936200005362000392565b926007845266048656d53686f760cc1b858501526200007162000392565b60038082526204873760ec1b8783015260008054336001600160a01b031982168117835592989394919392906001600160a01b03167f8be0079c531659141344cd1fd0a4f28419497f9722a3daafe3b4186f6b6457e08580a360019687805580519087821162000363576002548981811c9116801562000358575b858210146200034457908188849311620002f0575b5084908883116001146200028e57869262000282575b5050600019828b1b1c191690881b176002555b83519586116200026e5787548781811c9116801562000263575b838210146200024f5785811162000207575b5081948611600114620001a25750509183949184939462000196575b50501b9160001990841b1c19161790555b600b556040516169149081620003b38239f35b01519250388062000172565b8783528183209493928692918316915b88838310620001ec5750505010620001d3575b505050811b01905562000183565b015160001983861b60f8161c19169055388080620001c5565b858701518855909601959485019487935090810190620001b2565b8884528284208680890160051c820192858a1062000245575b0160051c019088905b8281106200023957505062000156565b85815501889062000229565b9250819262000220565b634e487b7160e01b84526022600452602484fd5b90607f169062000144565b634e487b7160e01b83526041600452602483fd5b01519050388062000117565b90848b9416916002885286882092885b88828210620002d95750508411620002c0575b505050811b016002556200012a565b0151600019838d1b60f8161c19169055388080620002b1565b8385015186558e979095019493840193016200029e565b909150600286528486208880850160051c8201928786106200033a575b918c91869594930160051c01915b8281106200032b57505062000101565b8881558594508c91016200031b565b925081926200030d565b634e487b7160e01b86526022600452602486fd5b90607f1690620000ec565b634e487b7160e01b85526041600452602485fd5b600080fd5b634e487b7160e01b600052604160045260246000fd5b60408051919082016001600160401b038111838210176200037c5760405256fe608080604052600436101561001357600080fd5b60003560e01c908162d64e7614614b285750806301ffc9a714614aba57806302ee3a521461482357806306fdde031461477d578063081812fc1461475f578063095ea7b3146145e557806311aa5b34146142595780631385fd92146141f057806316d81b381461400d5780632148893f146139f157806323b872dd14613fe457806324d41a0314613dbf5780633c2575d514613cda5780633ccfd60b14613b5257806342842e0e14613b2a57806345de84db14613ae857806352c9224c14613a2b578063607eb4e4146139f15780636352211e146139c1578063661e17121461316357806370a08231146130cc578063715018a6146130735780637acc0b2014612edb5780638da5cb5b14612eb257806395d89b4114612dd057806397b6f39314612bd45780639d4a225514612a415780639fa44dbf146129f9578063a22cb4651461291e578063a22fb38714612858578063af55ed6414612827578063b119105214611cac578063b235b4a914610d6b578063b27e169714610c86578063b88d4fde14610c25578063b95a062814610bea578063b9db15b4146109b4578063c1302b341461095c578063c64b8a8f1461091d578063c87b56dd146108ad578063e01ef6e61461088f578063e585cb2c146107ff578063e985e9c5146107a9578063ed90c7b7146105c4578063f2fde38b146105005763fdca4ca31461021857600080fd5b346104fb5760003660031901126104fb5760088054600060015b8281111561049a575061024490616833565b9060009260015b8281111561026557604051806102618682614dcc565b0390f35b6000818152600e6020818152604090922060018101546001600160a01b031692919033841480610488575b6102a7575b505050506102a29061607e565b61024b565b604098949851936102b785614e5a565b81548552838501526102cb6002820161513e565b60408501526102dc6003820161513e565b6060850152600481015460808501526005918282015460a08601526103036006830161513e565b60c08601526103146007830161513e565b60e086015286820180546103278161600d565b916103356040519384614ec8565b818352600090815286812090878085015b84831061046a5750505050506101008601526103646009830161513e565b610120860152610376600a830161513e565b610140860152600b820154610160860152610393600c830161513e565b6101808601526103a5600d830161513e565b6101a08601528101546101c0850152600f81015460ff80821615156101e087015281881c81161515610200870152601091821c16151561022086015201805491906103ef8361600d565b936103fd6040519586614ec8565b8385526000918252808220918186015b85821061044e5750505050505091816102a2936102406104449401526104338288616883565b5261043e8187616883565b5061607e565b9490388080610295565b848360019261045c876167e3565b81520194019101909261040d565b60019182916104788661513e565b8152019301910190918890610346565b5060ff600f82015460101c1615610290565b6000818152600e6020526040902060018101546001600160a01b0316331490816104e8575b506104d3575b6104ce9061607e565b610232565b906104e06104ce9161607e565b9190506104c5565b60ff9150600f015460101c1615386104bf565b600080fd5b346104fb5760203660031901126104fb57610519614e2e565b61052161530a565b6001600160a01b0390811690811561057057600054826001600160601b0360a01b821617600055167f8be0079c531659141344cd1fd0a4f28419497f9722a3daafe3b4186f6b6457e0600080a3005b60405162461bcd60e51b815260206004820152602660248201527f4f776e61626c653a206e6577206f776e657220697320746865207a65726f206160448201526564647265737360d01b6064820152608490fd5b346104fb576020806003193601126104fb57336000908152600d8252604090205460043591906001600160a01b03908116801561076d5780600052600c835260ff6040600020541690600482101561075757600261062b9214908115610749575b50616024565b82600052600f825261064460ff60406000205416615814565b82600052600e82523381600160406000200154161490811561073b575b50156106e75781600052600e815260ff600f6040600020015460101c166106a3576000918252600e905260409020600f01805462ff0000191662010000179055005b6064906040519062461bcd60e51b82526004820152601a60248201527f50726f6475637420697320616c72656164792064656c657465640000000000006044820152fd5b6084906040519062461bcd60e51b82526004820152602760248201527f4f6e6c792070726f647563742073656c6c6572206f72206f776e65722063616e6044820152662064656c65746560c81b6064820152fd5b600054163314905083610661565b905082600054161485610625565b634e487b7160e01b600052602160045260246000fd5b50600c825260ff60406000205416600481101561075757600214801561079c575b61079790616024565b61062b565b506000548116331461078e565b346104fb5760403660031901126104fb576107c2614e2e565b6107ca614e44565b9060018060a01b03809116600052600760205260406000209116600052602052602060ff604060002054166040519015158152f35b346104fb5760403660031901126104fb57610818614e2e565b6001600160a01b0390811660009081526015602052604090208054602435908110156104fb57610847916151e4565b5090610261825460018401549360028101549160038201548560048401541690610878600660058601549501615216565b9460405198899860ff8760a01c16961694896152a8565b346104fb5760003660031901126104fb576020600b54604051908152f35b346104fb5760203660031901126104fb576108e76108e2600435600052600460205260018060a01b0360406000205416151590565b615362565b60006040516108f581614ead565b5261026160405161090581614ead565b60008152604051918291602083526020830190614b55565b346104fb5760203660031901126104fb576001600160a01b0361093e614e2e565b166000526012602052602060ff604060002054166040519015158152f35b346104fb5760403660031901126104fb57610975614e2e565b6001600160a01b03166000908152601060205260409020805460243591908210156104fb576020916109a6916152f2565b90546040519160031b1c8152f35b346104fb576020806003193601126104fb576004356109d161654f565b5080600052600e82526109f260ff600f6040600020015460101c1615615859565b80600052600f8252610a0b60ff60406000205416615814565b600052600e815260406000209060405191610a2583614e5a565b805483526001808201546001600160a01b031683850152610a486002830161513e565b6040850152610a596003830161513e565b6060850152600482015460808501526005918281015460a0860152610a806006820161513e565b60c0860152610a916007820161513e565b60e0860152600881018054610aa58161600d565b91610ab36040519384614ec8565b818352600090815286812085888086015b858510610bcd5750888b9260108989610100870152610ae56009820161513e565b610120870152610af7600a820161513e565b610140870152600b810154610160870152610b14600c820161513e565b610180870152610b26600d820161513e565b6101a0870152600e8101546101c087015260ff600f82015481811615156101e0890152818160081c161515610200890152831c1615156102208701520191825490610b708261600d565b93610b7e6040519586614ec8565b8285526000908152858120868087015b858410610bb0576102408a01889052604051828152806102618185018d614c2c565b86918591610bbd856167e3565b8152019201920191908790610b8e565b908291610bd98561513e565b815201920192019190888791610ac4565b346104fb5760203660031901126104fb5760206001600160a01b0380610c0e614e2e565b16600052600d825260406000205416604051908152f35b346104fb5760803660031901126104fb57610c3e614e2e565b610c46614e44565b606435916001600160401b0383116104fb57366023840112156104fb57610c7a610c84933690602481600401359101614f04565b9160443591615471565b005b346104fb576020806003193601126104fb576001600160a01b039081610caa614e2e565b16600052601481526040600020805490610cc38261600d565b92610cd16040519485614ec8565b82845260009182528082208185015b848410610cf557604051806102618882615033565b600e83600192604051610d0781614e76565b85548152848601548382015260028601546040820152600386015460608201528a600487015416608082015260ff600587015460a08d8216818501521c16151560c0820152610d5860068701615216565b60e0820152815201920193019290610ce0565b346104fb576003196020368201126104fb576001600160401b03600435116104fb576101a090600435360301126104fb57336000908152600d60205260409020546001600160a01b03168015611c685780600052600c60205260ff60406000205416906004821015610757576002610deb9214908115611c535750616024565b610e05610dfc60048035018061589a565b90501515616123565b6024610e26610e1d826004350160043560040161589a565b90501515616166565b610e376044600435013515156161b2565b610e486064600435013515156161fe565b610e68610e5f60846004350160043560040161589a565b9050151561624a565b610e88610e7f60c46004350160043560040161628e565b905015156162c3565b610ea96005610ea160c46004350160043560040161628e565b905010616308565b610ec9610ec060a46004350160043560040161589a565b90501515616354565b610ee9610ee060e46004350160043560040161589a565b90501515616397565b610f0a610f016101046004350160043560040161589a565b905015156163e3565b610f2b610f226101246004350160043560040161589a565b9050151561642f565b610f4c610f436101446004350160043560040161589a565b90501515616473565b610f5e610164600435013515156164b7565b610f7061018460043501351515616503565b60016008540180600855610f8261654f565b818152336020820152610fa3610f9c60048035018061589a565b3691614f04565b6040820152610fbe610f9c846004350160043560040161589a565b60608201526044600435013560808201526064600435013560a0820152610ff2610f9c60846004350160043560040161589a565b60c082015261100e610f9c60a46004350160043560040161589a565b60e082015261102760c46004350160043560040161628e565b906110318261600d565b9161103f6040519384614ec8565b8083526020830191368260051b8201116104fb5780925b8260051b82018410611c285750505050610100820152611083610f9c60e46004350160043560040161589a565b6101208201526110a1610f9c6101046004350160043560040161589a565b6101408201526110bf610f9c6101246004350160043560040161589a565b6101808201526110dd610f9c6101446004350160043560040161589a565b6101a082015260043561016481013561016083015261018401356101c08201523315611be457600082815260046020526040902054611128906001600160a01b031615155b15616797565b60008281526004602052604090205461114b906001600160a01b03161515611122565b3360005260056020526040600020600181540190558160005260046020526040600020336001600160601b0360a01b825416179055813360007fddf252ad1be2c89b69c2b068fc378daa952ba7f163c4a11628f55a4df523b3ef8180a4600e6020526040600020815181556001810160018060a01b036020840151166001600160601b0360a01b82541617905560408201518051906001600160401b0382116116eb57819061120a826112016002870154615104565b600287016158f0565b602090601f8311600114611b7257600092611b67575b50508160011b916000199060031b1c19161760028201555b60608201518051906001600160401b0382116116eb57819061126a826112616003870154615104565b600387016158f0565b602090601f8311600114611af557600092611aea575b50508160011b916000199060031b1c19161760038201555b6080820151600482015560a0820151600582015560c08201518051906001600160401b0382116116eb5781906112de826112d56006870154615104565b600687016158f0565b602090601f8311600114611a7857600092611a6d575b50508160011b916000199060031b1c19161760068201555b60e08201518051906001600160401b0382116116eb57819061133e826113356007870154615104565b600787016158f0565b602090601f83116001146119fb576000926119f0575b50508160011b916000199060031b1c19161760078201555b600881016101008301519060208251926113868484616624565b019060005260206000206000915b8383106118f857505050506101208201518051906001600160401b0382116116eb5781906113d2826113c96009870154615104565b600987016158f0565b602090601f83116001146118865760009261187b575b50508160011b916000199060031b1c19161760098201555b6101408201518051906001600160401b0382116116eb5781906114338261142a600a870154615104565b600a87016158f0565b602090601f8311600114611809576000926117fe575b50508160011b916000199060031b1c191617600a8201555b610160820151600b8201556101808201518051906001600160401b0382116116eb57819061149f82611496600c870154615104565b600c87016158f0565b602090601f831160011461178c57600092611781575b50508160011b916000199060031b1c191617600c8201555b6101a08201518051906001600160401b0382116116eb576114fe826114f5600d860154615104565b600d86016158f0565b602090601f831160011461170b5791806102409492601094600092611700575b50508160011b916000199060031b1c191617600d8201555b6101c0840151600e820155600f81016115626101e08601511515829060ff801983541691151516179055565b6102008501511515815461ff0062ff00006102208901511515871b169260081b169062ffff001916171790550191015190815190600160401b928383116116eb57815483835580841061165b575b506020019060005260206000206000915b83831061163d575050505081600052600f6020526040600020600160ff198254161790553360005260106020526040600020805491821015611628579061160d916001820181556152f2565b819291549060031b91821b91600019901b1916179055600080f35b83634e487b7160e01b60005260416004526000fd5b600560208261164f600194518661666d565b019201920191906115c1565b806005029060058204036116d657836005026005810485036116c15783600052602060002091820191015b81811061169357506115b0565b8060006005925560006001820155600060028201556116b4600382016165db565b6000600482015501611686565b87634e487b7160e01b60005260116004526000fd5b86634e487b7160e01b60005260116004526000fd5b85634e487b7160e01b60005260416004526000fd5b01519050888061151e565b90600d840160005260206000209160005b601f1985168110611769575092610240949260019260109583601f19811610611750575b505050811b01600d820155611536565b015160001960f88460031b161c19169055888080611740565b9192602060018192868501518155019401920161171c565b0151905086806114b5565b9250600c84016000526020600020906000935b601f19841685106117e3576001945083601f198116106117ca575b505050811b01600c8201556114cd565b015160001960f88460031b161c191690558680806117ba565b8181015183556020948501946001909301929091019061179f565b015190508680611449565b9250600a84016000526020600020906000935b601f1984168510611860576001945083601f19811610611847575b505050811b01600a820155611461565b015160001960f88460031b161c19169055868080611837565b8181015183556020948501946001909301929091019061181c565b0151905086806113e8565b9250600984016000526020600020906000935b601f19841685106118dd576001945083601f198116106118c4575b505050811b016009820155611400565b015160001960f88460031b161c191690558680806118b4565b81810151835560209485019460019093019290910190611899565b80518051906001600160401b0382116119db5761191f826119198654615104565b866158f0565b602090601f831160011461196b579282600194936020938695600092611960575b5050600019600383901b1c191690841b1785555b01920192019190611394565b015190508d80611940565b908460005260206000209160005b601f19851681106119c3575083602093600196938796938794601f198116106119aa575b505050811b018555611954565b015160001960f88460031b161c191690558d808061199d565b91926020600181928685015181550194019201611979565b89634e487b7160e01b60005260416004526000fd5b015190508680611354565b9250600784016000526020600020906000935b601f1984168510611a52576001945083601f19811610611a39575b505050811b01600782015561136c565b015160001960f88460031b161c19169055868080611a29565b81810151835560209485019460019093019290910190611a0e565b0151905086806112f4565b9250600684016000526020600020906000935b601f1984168510611acf576001945083601f19811610611ab6575b505050811b01600682015561130c565b015160001960f88460031b161c19169055868080611aa6565b81810151835560209485019460019093019290910190611a8b565b015190508680611280565b9250600384016000526020600020906000935b601f1984168510611b4c576001945083601f19811610611b33575b505050811b016003820155611298565b015160001960f88460031b161c19169055868080611b23565b81810151835560209485019460019093019290910190611b08565b015190508680611220565b9250600284016000526020600020906000935b601f1984168510611bc9576001945083601f19811610611bb0575b505050811b016002820155611238565b015160001960f88460031b161c19169055868080611ba0565b81810151835560209485019460019093019290910190611b85565b60405162461bcd60e51b8152602060048201819052818501527f4552433732313a206d696e7420746f20746865207a65726f20616464726573736044820152606490fd5b6001600160401b038435116104fb5760208091611c483687358601614f3b565b815201930192611056565b6000546001600160a01b031614905082610625565b50600c60205260ff604060002054166004811015610757576002148015611c98575b611c9390616024565b610deb565b506000546001600160a01b03163314611c8a565b346104fb576003196040368201126104fb576001600160401b03602435116104fb576101a090602435360301126104fb57336000908152600d60205260409020546001600160a01b0390811680156127ea5780600052600c60205260ff60406000205416906004821015610757576002611d2e92149081156127dc5750616024565b600435600052600e6020523390600160406000200154160361278657600435600052600f602052611d6660ff60406000205416615814565b600435600052600e602052611d8960ff600f6040600020015460101c1615615859565b611d9b610dfc6004602435018061589a565b611db1610e1d602480350160243560040161589a565b611dc26044602435013515156161b2565b611dd9610e7f60c46024350160243560040161628e565b611df26005610ea160c46024350160243560040161628e565b611e036064602435013515156161fe565b611e1a610e5f60846024350160243560040161589a565b611e31610ec060a46024350160243560040161589a565b611e48610ee060e46024350160243560040161589a565b611e60610f016101046024350160243560040161589a565b611e78610f226101246024350160243560040161589a565b611e90610f436101446024350160243560040161589a565b611ea2610164602435013515156164b7565b611eb461018460243501351515616503565b611ec36004602435018061589a565b600435600052600e6020526002604060002001906001600160401b03811161235457611ef981611ef38454615104565b846158f0565b600092601f821160011461271d5792819293600092612712575b50508160011b916000199060031b1c19161790555b611f3b602480350160243560040161589a565b600435600052600e6020526003604060002001906001600160401b03811161235457611f6b81611ef38454615104565b600092601f82116001146126a9579281929360009261269e575b50508160011b916000199060031b1c19161790555b600435600052600e6020526040600020604460243501356004820155606460243501356005820155611fd660846024350160243560040161589a565b906001600160401b03821161235457611fff82611ff66006860154615104565b600686016158f0565b600090601f831160011461262e576006929160009183612623575b50508160011b916000199060031b1c1916179101555b61204460a46024350160243560040161589a565b600435600052600e6020526007604060002001906001600160401b0381116123545761207481611ef38454615104565b600092601f82116001146125ba57928192936000926125af575b50508160011b916000199060031b1c19161790555b6120b760c46024350160243560040161628e565b600435600052600e6020526008604060002001916120d58284616624565b60009283526020832090805b8385106124c6576120fc60e46024350160243560040161589a565b600435600052600e6020526009604060002001906001600160401b0381116123545761212c81611ef38454615104565b600092601f821160011461245d5792819293600092612452575b50508160011b916000199060031b1c19161790555b6121706101046024350160243560040161589a565b600435600052600e602052600a604060002001906001600160401b038111612354576121a081611ef38454615104565b600092601f82116001146123e957928192936000926123de575b50508160011b916000199060031b1c19161790555b6121e46101246024350160243560040161589a565b600435600052600e602052600c604060002001906001600160401b0381116123545761221481611ef38454615104565b600092601f8211600114612375579281929360009261236a575b50508160011b916000199060031b1c19161790555b6122586101446024350160243560040161589a565b600435600052600e602052600d604060002001906001600160401b0381116123545761228881611ef38454615104565b6000601f82116001146122ef578192936000926122e4575b50508160011b916000199060031b1c19161790555b600435600052600e60205260406000206101646024350135600b820155600e6101846024350135910155600080f35b0135905083806122a0565b601f198216938360005260206000209160005b86811061233c5750836001959610612322575b505050811b0190556122b5565b0135600019600384901b60f8161c19169055838080612315565b90926020600181928686013581550194019101612302565b634e487b7160e01b600052604160045260246000fd5b01359050838061222e565b826000526020600020906000945b601f19841686106123c657600194955083601f198116106123ac575b505050811b019055612243565b0135600019600384901b60f8161c1916905583808061239f565b91602060018192858501358155019301950194612383565b0135905083806121ba565b826000526020600020906000945b601f198416861061243a57600194955083601f19811610612420575b505050811b0190556121cf565b0135600019600384901b60f8161c19169055838080612413565b916020600181928585013581550193019501946123f7565b013590508380612146565b826000526020600020906000945b601f19841686106124ae57600194955083601f19811610612494575b505050811b01905561215b565b0135600019600384901b60f8161c19169055838080612487565b9160206001819285850135815501930195019461246b565b6124d0818361589a565b906001600160401b038211612354576124f3826124ed8754615104565b876158f0565b600090601f831160011461253f579282600194936020938695600092612534575b5050600019600383901b1c191690841b1786555b019301940193916120e1565b013590508a80612514565b8560005260206000209160005b601f1985168110612597575083602093600196938796938794601f1981161061257d575b505050811b018655612528565b0135600019600384901b60f8161c191690558a8080612570565b9092602060018192868601358155019401910161254c565b01359050838061208e565b826000526020600020906000945b601f198416861061260b57600194955083601f198116106125f1575b505050811b0190556120a3565b0135600019600384901b60f8161c191690558380806125e4565b916020600181928585013581550193019501946125c8565b01359050848061201a565b6006840160005260206000209160005b601f19851681106126865750918391600193600695601f1981161061266c575b505050811b01910155612030565b0135600019600384901b60f8161c1916905584808061265e565b9092602060018192868601358155019401910161263e565b013590508380611f85565b826000526020600020906000945b601f19841686106126fa57600194955083601f198116106126e0575b505050811b019055611f9a565b0135600019600384901b60f8161c191690558380806126d3565b916020600181928585013581550193019501946126b7565b013590508380611f13565b826000526020600020906000945b601f198416861061276e57600194955083601f19811610612754575b505050811b019055611f28565b0135600019600384901b60f8161c19169055838080612747565b9160206001819285850135815501930195019461272b565b60405162461bcd60e51b815260206004820152602860248201527f4f6e6c79207468652073656c6c65722063616e20757064617465207468656972604482015267081c1c9bd91d58dd60c21b6064820152608490fd5b905082600054161483610625565b50600c60205260ff60406000205416600481101561075757600214801561281a575b61281590616024565b611d2e565b506000548116331461280c565b346104fb5760203660031901126104fb57600435600052600f602052602060ff604060002054166040519015158152f35b346104fb5760203660031901126104fb57612871614e2e565b61287961530a565b6001600160a01b031680156128d95760407f32b449308c94e824ccedd9877932cd82f89a481c06c4643a0cb2914454a8c5829133600052600d60205281600020816001600160601b0360a01b8254161790558151903382526020820152a1005b60405162461bcd60e51b815260206004820152601760248201527f496e76616c6964206163636f756e7420616464726573730000000000000000006044820152606490fd5b346104fb5760403660031901126104fb57612937614e2e565b60243590811515908183036104fb576001600160a01b0316913383146129b4576129869033600052600760205260406000208460005260205260406000209060ff801983541691151516179055565b6040519081527f17307eab39ab6107e8899845ad3d59bd9653f200f220920489ca2b5937696c3160203392a3005b60405162461bcd60e51b815260206004820152601960248201527f4552433732313a20617070726f766520746f2063616c6c6572000000000000006044820152606490fd5b346104fb5760403660031901126104fb57612a12614e2e565b6001600160a01b0390811660009081526014602052604090208054602435908110156104fb57610847916151e4565b346104fb576020806003193601126104fb5760043580600052600e9081835260ff600f6040600020015491612a7c82601094851c1615615859565b80600052600f8552612a948260406000205416615814565b60009260005b82600052858752816040600020018054821015612aeb576004612abe8387936168c2565b5001541615612ad6575b612ad19061607e565b612a9a565b93612ae3612ad19161607e565b949050612ac8565b50508486612af88661600d565b95612b066040519788614ec8565b808752612b15601f199161600d565b018160005b828110612bbe5750505060009360005b81600052838352846040600020018054821015612bab576004612b4e838a936168c2565b5001541615612b66575b612b619061607e565b612b2a565b94612ba3612b619183600052858552612b8e612b8889896040600020016168c2565b506167e3565b612b98828c616883565b5261043e818b616883565b959050612b58565b604051848152806102618187018c614b95565b612bc6616897565b82828b010152018290612b1a565b346104fb5760403660031901126104fb57612bed614e2e565b60249081359060048210156104fb57612c0461530a565b6001600160a01b0316918215612d9357826000526020906012825260ff6040600020541615612d585783600052600c825260ff604060002054166004811015612d0b578314612d205760028314612ca7575b507fd8f7bcb2c5cffc294a0aaef719685993d7be95273fb8254803a1563510ccefed91600c612ca2928560005252604060002060ff1981541660ff8316179055604051918291826150f1565b0390a2005b83600052600c825260ff604060002054166004811015612d0b57600114612c565790601f6064926040519262461bcd60e51b845260048401528201527f43616e206f6e6c79207665726966792070656e64696e672073656c6c657273006044820152fd5b50634e487b7160e01b60009081526021600452fd5b9060126064926040519262461bcd60e51b845260048401528201527114dd185d1d5cc8185b1c9958591e481cd95d60721b6044820152fd5b9060156064926040519262461bcd60e51b845260048401528201527414d95b1b195c881b9bdd081c9959da5cdd195c9959605a1b6044820152fd5b60649060166040519162461bcd60e51b83526020600484015282015275496e76616c69642073656c6c6572206164647265737360501b6044820152fd5b346104fb5760003660031901126104fb576040516000600354612df281615104565b80845290600190818116908115612e8b5750600114612e30575b61026184612e1c81860382614ec8565b604051918291602083526020830190614b55565b6003600090815292507fc2575a0e9e593c00f959f8c92f12db2869c3395a3b0502d05e2516446f71f85b5b828410612e73575050508101602001612e1c82612e0c565b80546020858701810191909152909301928101612e5b565b60ff191660208087019190915292151560051b85019092019250612e1c9150839050612e0c565b346104fb5760003660031901126104fb576000546040516001600160a01b039091168152602090f35b346104fb5760203660031901126104fb576004356000908152600e60205260409020805460018201546001600160a01b031691612f1a6002820161513e565b612f266003830161513e565b6004830154600584015490612f3d6006860161513e565b612f496007870161513e565b612f556009880161513e565b90612f62600a890161513e565b92600b89015494600c8a01612f769061513e565b96612f83600d8c0161513e565b98600e8c01549b600f01549a6040519e8f9e8f908152602001528d6102209081604082015201612fb291614b55565b8d810360608f0152612fc391614b55565b9160808d015260a08c01528a810360c08c0152612fdf91614b55565b89810360e08b0152612ff091614b55565b8881036101008a015261300291614b55565b87810361012089015261301491614b55565b9061014087015285810361016087015261302d91614b55565b84810361018086015261303f91614b55565b916101a084015260ff811615156101c08401528060081c60ff1615156101e084015260101c60ff1615156102008301520390f35b346104fb5760003660031901126104fb5761308c61530a565b600080546001600160a01b0319811682556001600160a01b03167f8be0079c531659141344cd1fd0a4f28419497f9722a3daafe3b4186f6b6457e08280a3005b346104fb5760203660031901126104fb576001600160a01b036130ed614e2e565b16801561310c5760005260056020526020604060002054604051908152f35b60405162461bcd60e51b815260206004820152602960248201527f4552433732313a2061646472657373207a65726f206973206e6f7420612076616044820152683634b21037bbb732b960b91b6064820152608490fd5b6003196040368201126104fb576024906001600160401b038235116104fb57610100908235360301126104fb5760026001541461397d576002600155600435600052600f6020526131bb60ff60406000205416615814565b600435600052600e6020526131de60ff600f6040600020015460101c1615615859565b600435600052600e60205260018060a01b0360016040600020015416600052600c60205260ff604060002054166004811015612d0b5760020361394057600435600052600e602052600560406000200154156138fc57600435600052600e60205260ff600f60406000200154166138b857600435600052600e60205260018060a01b036001604060002001541633146138745761327f60048235018061589a565b90501561383b5761329781803501823560040161589a565b9050156137f7576132b06044823501823560040161589a565b9050156137c3576132c96064823501823560040161589a565b90501561378e576132e26084823501823560040161589a565b905015613757576132fb60a4823501823560040161589a565b90501561371c5761331460c4823501823560040161589a565b9050156136e75761332d60e4823501823560040161589a565b9050156136b257600435600052600e6020526004604060002001549081341061367957600435600052600e60205260056040600020018054801561366457600019019055600435600052600e6020526040600020600581015415613650575b600101546040516001600160a01b0390911691906133a981614e76565b8135600401356001600160401b0381116104fb576133ce906004369185350101614f3b565b81526001600160401b038280350135116104fb576133f53683358085013501600401614f3b565b60208201526044823501356001600160401b0381116104fb5761341f906004369185350101614f3b565b60408201526064823501356001600160401b0381116104fb57613449906004369185350101614f3b565b60608201526084823501356001600160401b0381116104fb57613473906004369185350101614f3b565b608082015260a4823501356001600160401b0381116104fb5761349d906004369185350101614f3b565b60a082015260c4823501356001600160401b0381116104fb576134c7906004369185350101614f3b565b60c082015260e482350135906001600160401b0382116104fb576134f5613560926004369186350101614f3b565b60e08201526040519061350782614e76565b60043582528560208301528560408301524260608301523360808301528460a0830152600060c083015260e082015233600052601460205261354d816040600020615935565b8360005260156020526040600020615935565b816000526013602052604060002080549184830180931161363c57505560405182815282602082015242604082015233907f45280c7ac9cec77edd454e39e1641a3e22619146cf074a4239beee86a7c07edc606060043592a46001600954016009556135cc81346158cc565b8061362c575b50600435600052600e60205260018060a01b03600160406000200154169060405190815242602082015233907fbe6177108f4df43c5d7be79cb219c969fc97915bbdb4b56d14d391dcdcc16060604060043592a460018055005b613636903361608d565b816135d2565b634e487b7160e01b60009081526011600452fd5b600f8101805460ff1916600117905561338c565b82634e487b7160e01b60005260116004526000fd5b60649060126040519162461bcd60e51b83526020600484015282015271496e73756666696369656e742066756e647360701b6044820152fd5b606490600e6040519162461bcd60e51b8352602060048401528201526d115b585a5b081c995c5d5a5c995960921b6044820152fd5b606490600e6040519162461bcd60e51b8352602060048401528201526d141a1bdb99481c995c5d5a5c995960921b6044820152fd5b60649060146040519162461bcd60e51b83526020600484015282015273141bdcdd185b0818dbd919481c995c5d5a5c995960621b6044820152fd5b60649060106040519162461bcd60e51b8352602060048401528201526f10dbdd5b9d1c9e481c995c5d5a5c995960821b6044820152fd5b606490600e6040519162461bcd60e51b8352602060048401528201526d14dd185d19481c995c5d5a5c995960921b6044820152fd5b606490600d6040519162461bcd60e51b8352602060048401528201526c10da5d1e481c995c5d5a5c9959609a1b6044820152fd5b60649060176040519162461bcd60e51b8352602060048401528201527f53747265657420616464726573732072657175697265640000000000000000006044820152fd5b60649060126040519162461bcd60e51b83526020600484015282015271119d5b1b081b985b59481c995c5d5a5c995960721b6044820152fd5b606490601b6040519162461bcd60e51b8352602060048401528201527f43616e6e6f742062757920796f7572206f776e2070726f6475637400000000006044820152fd5b606490601a6040519162461bcd60e51b8352602060048401528201527f50726f6475637420697320616c726561647920736f6c646f75740000000000006044820152fd5b60649060176040519162461bcd60e51b8352602060048401528201527f50726f64756374206973206f7574206f662073746f636b0000000000000000006044820152fd5b60649060166040519162461bcd60e51b8352602060048401528201527514d95b1b195c881a5cc81b9bdd081d995c9a599a595960521b6044820152fd5b606490601f6040519162461bcd60e51b8352602060048401528201527f5265656e7472616e637947756172643a207265656e7472616e742063616c6c006044820152fd5b346104fb5760203660031901126104fb5760206139df6004356153ae565b6040516001600160a01b039091168152f35b346104fb5760203660031901126104fb576001600160a01b03613a12614e2e565b1660005260136020526020604060002054604051908152f35b346104fb5760003660031901126104fb5733600052601260205260ff60406000205416613aae57336000526012602052604060002060ff1990600182825416179055600c60205260016040600020918254161790556040514281527fa1a1a78ff3033d5ee8393372052aeb2a16bbb347a29f3780370e9506c109e37260203392a2005b60405162461bcd60e51b8152602060048201526012602482015271105b1c9958591e481c9959da5cdd195c995960721b6044820152606490fd5b346104fb5760203660031901126104fb576001600160a01b03613b09614e2e565b16600052600c60205261026160ff60406000205416604051918291826150f1565b346104fb57610c84613b3b36614f56565b9060405192613b4984614ead565b60008452615471565b346104fb5760003660031901126104fb57336000908152600d60209081526040909120546001600160a01b039081168015613c9e5780600052600c835260ff60406000205416906004821015610757576002613bb69214908115613c905750616024565b3360005260138252604060002054908115613c5257600b548083029083820403613c3c57613c0e92613bef6064613c08930480926158cc565b923360005260138652600060408120556000541661608d565b3361608d565b7f8ad64a0ac7700dd8425ab0499f107cb6e2cd1581d803c5b8c1c79dcb8190b1af60405191600083523392a2005b634e487b7160e01b600052601160045260246000fd5b60405162461bcd60e51b81526004810184905260166024820152754e6f2062616c616e636520746f20776974686472617760501b6044820152606490fd5b905082600054161484610625565b50600c825260ff604060002054166004811015610757576002148015613ccd575b613cc890616024565b613bb6565b5060005481163314613cbf565b346104fb576020806003193601126104fb576001600160a01b039081613cfe614e2e565b16600052601581526040600020805490613d178261600d565b92613d256040519485614ec8565b82845260009182528082208185015b848410613d4957604051806102618882615033565b600e83600192604051613d5b81614e76565b85548152848601548382015260028601546040820152600386015460608201528a600487015416608082015260ff600587015460a08d8216818501521c16151560c0820152613dac60068701615216565b60e0820152815201920193019290613d34565b346104fb5760403660031901126104fb57602480356004356000805b82600052600e602090808252601091826040600020018054851015613fd757613e058589926168c2565b505414613e1d57505050613e189061607e565b613ddb565b9193509193946000526011815260ff94856040600020541615613f9b5780600052828252613e5185856040600020016168c2565b50600190810154909690336001600160a01b0391821614908115613f8d575b5015613f3857816000528383526004613e8f87876040600020016168c2565b50015416613efb5791613eb0939160049593600052526040600020016168c2565b5001805460ff1916821790555b15613ec457005b60649060106040519162461bcd60e51b8352602060048401528201526f14995d9a595dc81b9bdd08199bdd5b9960821b6044820152fd5b60405162461bcd60e51b8152600481018390526016818901527514995d9a595dc8185b1c9958591e4819195b195d195960521b6044820152606490fd5b60405162461bcd60e51b8152600481018490526028818a01527f4f6e6c79207265766965776572206f72206f776e65722063616e2064656c6574604482015267652072657669657760c01b6064820152608490fd5b600054163314905089613e70565b60405162461bcd60e51b8152600481018390526015818901527414995d9a595dc8191bd95cc81b9bdd08195e1a5cdd605a1b6044820152606490fd5b5050505050915050613ebd565b346104fb57610c84613ff536614f56565b91614008614003843361550c565b61540f565b6155d4565b346104fb5760603660031901126104fb57602480356004356044356001600160401b0381116104fb57614044903690600401614f3b565b9080600052602091600e835260018060a01b0360016040600020015416331461419d5783151580614192575b1561414e5780511561410a5790600e92916001600a54019081600a55614094616897565b95828752338588015260408701526060860152600052601182526040600020600160ff198254161790556000525260106040600020018054600160401b811015611628576140e7916001820181556168c2565b6140f557610c84925061666d565b82634e487b7160e01b60005260006004526000fd5b60405162461bcd60e51b8152600481018490526017818701527f436f6d6d656e742063616e6e6f7420626520656d7074790000000000000000006044820152606490fd5b60405162461bcd60e51b815260048101849052601e818701527f526174696e67206d757374206265206265747765656e203120616e64203500006044820152606490fd5b506005841115614070565b60405162461bcd60e51b8152600481018490526026818701527f53656c6c65722063616e6e6f7420726576696577207468656972206f776e20706044820152651c9bd91d58dd60d21b6064820152608490fd5b346104fb5760003660031901126104fb5761420961530a565b33600052600d60205260406000206001600160601b0360a01b81541690557f32b449308c94e824ccedd9877932cd82f89a481c06c4643a0cb2914454a8c5826040805133815260006020820152a1005b346104fb5760403660031901126104fb57600435614275614e44565b336000908152600d602090815260409091205490926001600160a01b0391821680156145a65780600052600c855260ff604060002054169060048210156107575760026142ca92149081156145985750616024565b9291925b6000928260009516945b8560005260148083526040600020805483101561458d576142fa8386926151e4565b505414614310575061430b9061607e565b6142d8565b91929394508560005281835261432a8160406000206151e4565b509160ff60058094015460a01c1661454857866000528084526143518260406000206151e4565b5083015486163314801561453b575b156144e3579061437a9187600052845260406000206151e4565b5001805460ff60a01b1916600160a01b17905560015b156144aa5781600052600e815260019280846040600020015416846000905b6143e3575b5050507ff9dc8543b583e01f592678422369b2777e3649761f5808ae432cb1c24ca9438c9192604051908152a3005b816000526015808552604060002080548310156144a3576144058388926151e4565b5054148061447f575b61442757509061441f86939261607e565b9091926143af565b7ff9dc8543b583e01f592678422369b2777e3649761f5808ae432cb1c24ca9438c959693509061446391600593600052855260406000206151e4565b5001805460ff60a01b1916600160a01b179055929185806143b4565b5082600052808552878460046144998560406000206151e4565b500154161461440e565b50506143b4565b6064906040519062461bcd60e51b825260048201526012602482015271141d5c98da185cd9481b9bdd08199bdd5b9960721b6044820152fd5b60405162461bcd60e51b815260048101859052602a60248201527f4f6e6c792073656c6c6572206f72206f776e65722063616e206d61726b2061736044820152690819195b1a5d995c995960b21b6064820152608490fd5b5033866000541614614360565b60405162461bcd60e51b815260048101859052601b60248201527f416c7265616479206d61726b65642061732064656c69766572656400000000006044820152606490fd5b505050909192614390565b905083600054161486610625565b50600c845260ff6040600020541660048110156107575760021480156145d8575b6145d090616024565b9291926142ce565b50600054821633146145c7565b346104fb5760403660031901126104fb576145fe614e2e565b602435906001600160a01b038080614615856153ae565b16921691808314614710578033149081156146eb575b501561468057600083815260066020526040902080546001600160a01b03191683179055614658836153ae565b167f8c5be1e5ebec7d5bd14f71427d1e84f3dd0314c0f7b2291e5b200ac8c7c3b925600080a4005b60405162461bcd60e51b815260206004820152603d60248201527f4552433732313a20617070726f76652063616c6c6572206973206e6f7420746f60448201527f6b656e206f776e6572206f7220617070726f76656420666f7220616c6c0000006064820152608490fd5b9050600052600760205260406000203360005260205260ff604060002054168461462b565b60405162461bcd60e51b815260206004820152602160248201527f4552433732313a20617070726f76616c20746f2063757272656e74206f776e656044820152603960f91b6064820152608490fd5b346104fb5760203660031901126104fb5760206139df6004356153d1565b346104fb5760003660031901126104fb57604051600060025461479f81615104565b80845290600190818116908115612e8b57506001146147c85761026184612e1c81860382614ec8565b6002600090815292507f405787fa12a823e0f2b7631cc41b3ba8828b3321ca811111fa75cd3aa3bb5ace5b82841061480b575050508101602001612e1c82612e0c565b805460208587018101919091529093019281016147f3565b346104fb5760003660031901126104fb57600854600060015b82811115614a79575061484e90616833565b90600160005b8282111561486a57604051806102618682614dcc565b81600052600e6020526040600020600f8101549060ff8260101c161561489d575b5050906148979061607e565b90614854565b604051916148aa83614e5a565b8154835260018201546001600160a01b031660208401526148cd6002830161513e565b60408401526148de6003830161513e565b606084015260048201546080840152600582015460a08401526149036006830161513e565b60c08401526149146007830161513e565b60e08401526008820180546149288161600d565b916149366040519384614ec8565b81835260208301906000526020600020906000905b838210614a5c57505050506010929160ff9161010086015261496f6009840161513e565b610120860152614981600a840161513e565b610140860152600b83015461016086015261499e600c840161513e565b6101808601526149b0600d840161513e565b6101a0860152600e8301546101c086015281811615156101e0860152818160081c161515610200860152831c161515610220840152018054906149f28261600d565b91614a006040519384614ec8565b808352602083019160005260206000206000925b828410614a3e575050505061024082015261489791614a37916104338288616883565b908561488b565b60056020600192614a4e856167e3565b815201920193019290614a14565b600160208192614a6b8661513e565b81520193019101909161494b565b80600052600e60205260ff600f6040600020015460101c1615614aa5575b614aa09061607e565b61483c565b90614ab2614aa09161607e565b919050614a97565b346104fb5760203660031901126104fb5760043563ffffffff60e01b81168091036104fb576020906380ac58cd60e01b8114908115614b17575b8115614b06575b506040519015158152f35b6301ffc9a760e01b14905082614afb565b635b5e139f60e01b81149150614af4565b346104fb5760203660031901126104fb576020906004356000526011825260ff6040600020541615158152f35b919082519283825260005b848110614b81575050826000602080949584010152601f8019910116010190565b602081830181015184830182015201614b60565b908082519081815260208091019281808460051b8301019501936000915b848310614bc35750505050505090565b9091929394958480600192601f1985820301865289519081518152848060a01b0383830151168382015260408083015190820152614c106060808401519060a08091850152830190614b55565b9160808091015115159101529801930193019194939290614bb3565b91908251815260209260018060a01b03848201511684830152614cb1614c9f614c79614c676040850151610260806040890152870190614b55565b60608501518682036060880152614b55565b6080840151608086015260a084015160a086015260c084015185820360c0870152614b55565b60e083015184820360e0860152614b55565b6101009485830151958483039085015285518083528183019180808360051b8601019801926000905b838210614d9c57505050505050614d53614d3f614d20614d0c614d999697610120808701519088830390890152614b55565b610140808601519087830390880152614b55565b6101608085015190860152610180808501519086830390870152614b55565b6101a0808401519085830390860152614b55565b916101c080830151908201526101e08083015115159082015261020080830151151590820152610220808301511515908201526102408092015191818403910152614b95565b90565b9091929394988380614dbb6001938d601f199082030186528951614b55565b9b9701959493919091019101614cda565b602080820190808352835180925260408301928160408460051b8301019501936000915b848310614e005750505050505090565b9091929394958480614e1e600193603f198682030187528a51614c2c565b9801930193019194939290614df0565b600435906001600160a01b03821682036104fb57565b602435906001600160a01b03821682036104fb57565b61026081019081106001600160401b0382111761235457604052565b61010081019081106001600160401b0382111761235457604052565b60a081019081106001600160401b0382111761235457604052565b602081019081106001600160401b0382111761235457604052565b90601f801991011681019081106001600160401b0382111761235457604052565b6001600160401b03811161235457601f01601f191660200190565b929192614f1082614ee9565b91614f1e6040519384614ec8565b8294818452818301116104fb578281602093846000960137010152565b9080601f830112156104fb57816020614d9993359101614f04565b60609060031901126104fb576001600160a01b039060043582811681036104fb579160243590811681036104fb579060443590565b614d999160e0615022615010614ffe614fec614fda614fc8614fb68951610100808b528a0190614b55565b60208a015189820360208b0152614b55565b604089015188820360408a0152614b55565b60608801518782036060890152614b55565b60808701518682036080880152614b55565b60a086015185820360a0870152614b55565b60c085015184820360c0860152614b55565b9201519060e0818403910152614b55565b602080820190808352835180925260409283810182858560051b8401019601946000925b858410615068575050505050505090565b9091929394959685806150e0600193603f198682030188528b51805182528381015184830152878101518883015260608082015190830152858060a01b0360808181840151169084015260a09081830151169083015260c08082015115159083015260e0809101519161010080928201520190614f8b565b990194019401929594939190615057565b9190602083019260048210156107575752565b90600182811c92168015615134575b602083101461511e57565b634e487b7160e01b600052602260045260246000fd5b91607f1691615113565b906040519182600082549261515284615104565b9081845260019485811690816000146151c1575060011461517e575b505061517c92500383614ec8565b565b9093915060005260209081600020936000915b8183106151a957505061517c9350820101388061516e565b85548884018501529485019487945091830191615191565b91505061517c94506020925060ff191682840152151560051b820101388061516e565b805482101561520057600052600e602060002091020190600090565b634e487b7160e01b600052603260045260246000fd5b9060405161522381614e76565b60e06152a3600783956152358161513e565b85526152436001820161513e565b60208601526152546002820161513e565b60408601526152656003820161513e565b60608601526152766004820161513e565b60808601526152876005820161513e565b60a08601526152986006820161513e565b60c08601520161513e565b910152565b95929091614d999897959492875260208701526040860152606085015260018060a01b0380921660808501521660a0830152151560c0820152610100908160e08201520190614f8b565b80548210156152005760005260206000200190600090565b6000546001600160a01b0316330361531e57565b606460405162461bcd60e51b815260206004820152602060248201527f4f776e61626c653a2063616c6c6572206973206e6f7420746865206f776e65726044820152fd5b1561536957565b60405162461bcd60e51b815260206004820152601860248201527f4552433732313a20696e76616c696420746f6b656e20494400000000000000006044820152606490fd5b6000908152600460205260409020546001600160a01b0316614d99811515615362565b6000818152600460205260409020546153f4906001600160a01b03161515615362565b6000908152600660205260409020546001600160a01b031690565b1561541657565b60405162461bcd60e51b815260206004820152602d60248201527f4552433732313a2063616c6c6572206973206e6f7420746f6b656e206f776e6560448201526c1c881bdc88185c1c1c9bdd9959609a1b6064820152608490fd5b90615495939291615485614003843361550c565b6154908383836155d4565b615715565b1561549c57565b60405162461bcd60e51b8152806154b5600482016154b9565b0390fd5b60809060208152603260208201527f4552433732313a207472616e7366657220746f206e6f6e20455243373231526560408201527131b2b4bb32b91034b6b83632b6b2b73a32b960711b60608201520190565b906001600160a01b038080615520846153ae565b16931691838314938415615553575b50831561553d575b50505090565b615549919293506153d1565b1614388080615537565b909350600052600760205260406000208260005260205260ff60406000205416923861552f565b1561558157565b60405162461bcd60e51b815260206004820152602560248201527f4552433732313a207472616e736665722066726f6d20696e636f72726563742060448201526437bbb732b960d91b6064820152608490fd5b906155fc916155e2846153ae565b6001600160a01b039391841692849290918316841461557a565b16918215615694578161561991615612866153ae565b161461557a565b7fddf252ad1be2c89b69c2b068fc378daa952ba7f163c4a11628f55a4df523b3ef60008481526006602052604081206001600160601b0360a01b9081815416905583825260056020526040822060001981540190558482526040822060018154019055858252600460205284604083209182541617905580a4565b60405162461bcd60e51b8152602060048201526024808201527f4552433732313a207472616e7366657220746f20746865207a65726f206164646044820152637265737360e01b6064820152608490fd5b3d15615710573d906156f682614ee9565b916157046040519384614ec8565b82523d6000602084013e565b606090565b91926000929190813b1561580a5760209161576b9185604051958680958194630a85bd0160e11b9b8c845233600485015260018060a01b0380951660248501526044840152608060648401526084830190614b55565b0393165af1908290826157bb575b50506157ad576157876156e5565b805190816157a85760405162461bcd60e51b8152806154b5600482016154b9565b602001fd5b6001600160e01b0319161490565b909192506020813d8211615802575b816157d760209383614ec8565b810103126157fe5751906001600160e01b0319821682036157fb5750903880615779565b80fd5b5080fd5b3d91506157ca565b5050505050600190565b1561581b57565b60405162461bcd60e51b8152602060048201526016602482015275141c9bd91d58dd08191bd95cc81b9bdd08195e1a5cdd60521b6044820152606490fd5b1561586057565b60405162461bcd60e51b8152602060048201526012602482015271141c9bd91d58dd081a5cc819195b195d195960721b6044820152606490fd5b903590601e19813603018212156104fb57018035906001600160401b0382116104fb576020019181360383136104fb57565b91908203918211613c3c57565b8181106158e4575050565b600081556001016158d9565b9190601f81116158ff57505050565b61517c926000526020600020906020601f840160051c8301931061592b575b601f0160051c01906158d9565b909150819061591e565b8054600160401b811015612354576159549060019283820181556151e4565b929092615ff7578051835560209283820151838201556040820151600282015560608201519060039182820155600480820160018060a01b0390816080870151166001600160601b0360a01b825416179055600583019060a08601511681549060ff60a01b60c0880151151560a01b16916affffffffffffffffffffff60a81b161717905560e060068301940151958651928351956001600160401b0396878111615fe257615a0781611ef38454615104565b8084601f97888311600114615f8057600092615f75575b505060001982891b1c191690891b1790555b6007810182890151805190888211615d3f578190615a52826119198654615104565b8590888311600114615f1357600092615f08575b505060001982891b1c191690891b1790555b600881016040890151805190888211615d3f578190615a9b826119198654615104565b8590888311600114615ea657600092615e9b575b505060001982891b1c191690891b1790555b600981016060890151805190888211615d3f578190615ae4826119198654615104565b8590888311600114615e3957600092615e2e575b505060001982891b1c191690891b1790555b600a81016080890151805190888211615d3f578190615b2d826119198654615104565b8590888311600114615dcc57600092615dc1575b505060001982891b1c191690891b1790555b600b810160a0890151805190888211615d3f578190615b76826119198654615104565b8590888311600114615d5f57600092615d54575b505060001982891b1c191690891b1790555b600c810160c0890151805190888211615d3f57615bc382615bbd8554615104565b856158f0565b8490878311600114615cd2579180600d949260e09694600092615cc7575b5050600019828b1b1c1916908b1b1790555b01970151918251958611615cb25750615c1685615c108954615104565b896158f0565b80928511600114615c4c5750938394918492600095615c41575b50501b92600019911b1c1916179055565b015193503880615c30565b92919084601f1981168860005285600020956000905b89838310615c985750505010615c7e575b50505050811b019055565b01519060f884600019921b161c1916905538808080615c73565b858701518955909701969485019488935090810190615c62565b604190634e487b7160e01b6000525260246000fd5b015190503880615be1565b8a9291601f1983169185600052876000209260005b89828210615d295750509160e09795939185600d98969410615d11575b505050811b019055615bf3565b0151600019838d1b60f8161c19169055388080615d04565b8385015186558f97909501949384019301615ce7565b604186634e487b7160e01b6000525260246000fd5b015190503880615b8a565b908b9350601f1983169185600052876000209260005b89828210615dab5750508411615d93575b505050811b019055615b9c565b0151600019838b1b60f8161c19169055388080615d86565b8385015186558f97909501949384019301615d75565b015190503880615b41565b908b9350601f1983169185600052876000209260005b89828210615e185750508411615e00575b505050811b019055615b53565b0151600019838b1b60f8161c19169055388080615df3565b8385015186558f97909501949384019301615de2565b015190503880615af8565b908b9350601f1983169185600052876000209260005b89828210615e855750508411615e6d575b505050811b019055615b0a565b0151600019838b1b60f8161c19169055388080615e60565b8385015186558f97909501949384019301615e4f565b015190503880615aaf565b908b9350601f1983169185600052876000209260005b89828210615ef25750508411615eda575b505050811b019055615ac1565b0151600019838b1b60f8161c19169055388080615ecd565b8385015186558f97909501949384019301615ebc565b015190503880615a66565b908b9350601f1983169185600052876000209260005b89828210615f5f5750508411615f47575b505050811b019055615a78565b0151600019838b1b60f8161c19169055388080615f3a565b8385015186558f97909501949384019301615f29565b015190503880615a1e565b908b9350601f1983169185600052876000209260005b89828210615fcc5750508411615fb4575b505050811b019055615a30565b0151600019838b1b60f8161c19169055388080615fa7565b8385015186558f97909501949384019301615f96565b604185634e487b7160e01b6000525260246000fd5b634e487b7160e01b600052600060045260246000fd5b6001600160401b0381116123545760051b60200190565b1561602b57565b60405162461bcd60e51b815260206004820152602560248201527f4f6e6c792076657269666965642073656c6c6572206f72206f776e657220616c6044820152641b1bddd95960da1b6064820152608490fd5b6000198114613c3c5760010190565b6001600160a01b031680156160ec57600080809381935af16160ad6156e5565b50156160b557565b60405162461bcd60e51b815260206004820152600f60248201526e151c985b9cd9995c8819985a5b1959608a1b6044820152606490fd5b60405162461bcd60e51b815260206004820152600f60248201526e496e76616c6964206164647265737360881b6044820152606490fd5b1561612a57565b60405162461bcd60e51b81526020600482015260146024820152734e616d652063616e6e6f7420626520656d70747960601b6044820152606490fd5b1561616d57565b60405162461bcd60e51b815260206004820152601b60248201527f4465736372697074696f6e2063616e6e6f7420626520656d70747900000000006044820152606490fd5b156161b957565b60405162461bcd60e51b815260206004820152601c60248201527f5072696365206d7573742062652067726561746572207468616e2030000000006044820152606490fd5b1561620557565b60405162461bcd60e51b815260206004820152601c60248201527f53746f636b206d7573742062652067726561746572207468616e2030000000006044820152606490fd5b1561625157565b60405162461bcd60e51b8152602060048201526015602482015274436f6c6f722063616e6e6f7420626520656d70747960581b6044820152606490fd5b903590601e19813603018212156104fb57018035906001600160401b0382116104fb57602001918160051b360383136104fb57565b156162ca57565b60405162461bcd60e51b8152602060048201526016602482015275496d616765732063616e6e6f7420626520656d70747960501b6044820152606490fd5b1561630f57565b60405162461bcd60e51b815260206004820152601c60248201527f496d616765732063616e6e6f74206265206d6f7265207468616e2035000000006044820152606490fd5b1561635b57565b60405162461bcd60e51b815260206004820152601460248201527353697a652063616e6e6f7420626520656d70747960601b6044820152606490fd5b1561639e57565b60405162461bcd60e51b815260206004820152601860248201527f43617465676f72792063616e6e6f7420626520656d70747900000000000000006044820152606490fd5b156163ea57565b60405162461bcd60e51b815260206004820152601c60248201527f5375622d63617465676f72792063616e6e6f7420626520656d707479000000006044820152606490fd5b1561643657565b60405162461bcd60e51b81526020600482015260156024820152744d6f64656c2063616e6e6f7420626520656d70747960581b6044820152606490fd5b1561647a57565b60405162461bcd60e51b81526020600482015260156024820152744272616e642063616e6e6f7420626520656d70747960581b6044820152606490fd5b156164be57565b60405162461bcd60e51b815260206004820152601d60248201527f576569676874206d7573742062652067726561746572207468616e20300000006044820152606490fd5b1561650a57565b60405162461bcd60e51b815260206004820152601a60248201527f534b55206d7573742062652067726561746572207468616e20300000000000006044820152606490fd5b6040519061655c82614e5a565b8161024060009182815282602082015260609283604083015283808301528060808301528060a08301528360c08301528360e08301528361010083015283610120830152836101408301528061016083015283610180830152836101a0830152806101c0830152806101e0830152806102008301526102208201520152565b6165e58154615104565b90816165ef575050565b81601f60009311600114616601575055565b908083918252616620601f60208420940160051c8401600185016158d9565b5555565b90600160401b81116123545781549181815582821061664257505050565b600052602060002091820191015b81811061665b575050565b806166676001926165db565b01616650565b8151815560019182820160209060018060a01b0382840151166001600160601b0360a01b8254161790556040820151600284015560038301906060830151948551916001600160401b038311612354576166cb836119198654615104565b80601f84116001146167235750918080608095936004979561517c9a600094616718575b50501b916000199060031b1c19161790555b0151151591019060ff801983541691151516179055565b0151925038806166ef565b9193949596601f1984168660005283600020936000905b8282106167805750509260809592859261517c9a99966004999610616767575b505050811b019055616701565b015160001960f88460031b161c1916905538808061675a565b80888697829497870151815501960194019061673a565b1561679e57565b60405162461bcd60e51b815260206004820152601c60248201527f4552433732313a20746f6b656e20616c7265616479206d696e746564000000006044820152606490fd5b906040516167f081614e92565b608060ff600483958054855260018060a01b036001820154166020860152600281015460408601526168246003820161513e565b60608601520154161515910152565b9061683d8261600d565b61684a6040519182614ec8565b828152809261685b601f199161600d565b019060005b82811061686c57505050565b60209061687761654f565b82828501015201616860565b80518210156152005760209160051b010190565b604051906168a482614e92565b60006080838281528260208201528260408201526060808201520152565b805482101561520057600052600560206000209102019060009056fea2646970667358221220f3dd6e5d0c2bf02215b1c964612447549c9bb5078f3fb6f109df4edcc5d3b39d64736f6c63430008130033",
  "linkReferences": {},
  "deployedLinkReferences": {}
}