{
  "_format": "hh-sol-artifact-1",
  "contractName": "HemShop",
  "sourceName": "contracts/HemShop.sol",
  "abi": [
    {
      "inputs": [
        {
          "internalType": "uint256",
          "name": "_pct",
          "type": "uint256"
        }
      ],
      "stateMutability": "nonpayable",
      "type": "constructor"
    },
    {
      "anonymous": false,
      "inputs": [
        {
          "indexed": false,
          "internalType": "address",
          "name": "admin",
          "type": "address"
        },
        {
          "indexed": false,
          "internalType": "address",
          "name": "impersonatedAccount",
          "type": "address"
        }
      ],
      "name": "AdminImpersonationChanged",
      "type": "event"
    },
    {
      "anonymous": false,
      "inputs": [
        {
          "indexed": true,
          "internalType": "address",
          "name": "owner",
          "type": "address"
        },
        {
          "indexed": true,
          "internalType": "address",
          "name": "approved",
          "type": "address"
        },
        {
          "indexed": true,
          "internalType": "uint256",
          "name": "tokenId",
          "type": "uint256"
        }
      ],
      "name": "Approval",
      "type": "event"
    },
    {
      "anonymous": false,
      "inputs": [
        {
          "indexed": true,
          "internalType": "address",
          "name": "owner",
          "type": "address"
        },
        {
          "indexed": true,
          "internalType": "address",
          "name": "operator",
          "type": "address"
        },
        {
          "indexed": false,
          "internalType": "bool",
          "name": "approved",
          "type": "bool"
        }
      ],
      "name": "ApprovalForAll",
      "type": "event"
    },
    {
      "anonymous": false,
      "inputs": [
        {
          "indexed": true,
          "internalType": "address",
          "name": "seller",
          "type": "address"
        },
        {
          "indexed": false,
          "internalType": "uint256",
          "name": "newBalance",
          "type": "uint256"
        }
      ],
      "name": "BalanceUpdated",
      "type": "event"
    },
    {
      "anonymous": false,
      "inputs": [
        {
          "indexed": true,
          "internalType": "uint256",
          "name": "id",
          "type": "uint256"
        },
        {
          "indexed": false,
          "internalType": "string",
          "name": "name",
          "type": "string"
        }
      ],
      "name": "CategoryCreated",
      "type": "event"
    },
    {
      "anonymous": false,
      "inputs": [
        {
          "indexed": true,
          "internalType": "uint256",
          "name": "id",
          "type": "uint256"
        },
        {
          "indexed": false,
          "internalType": "string",
          "name": "name",
          "type": "string"
        },
        {
          "indexed": false,
          "internalType": "bool",
          "name": "isActive",
          "type": "bool"
        }
      ],
      "name": "CategoryUpdated",
      "type": "event"
    },
    {
      "anonymous": false,
      "inputs": [
        {
          "indexed": true,
          "internalType": "uint256",
          "name": "productId",
          "type": "uint256"
        },
        {
          "indexed": true,
          "internalType": "address",
          "name": "buyer",
          "type": "address"
        },
        {
          "indexed": false,
          "internalType": "bool",
          "name": "isDelivered",
          "type": "bool"
        }
      ],
      "name": "DeliveryStatusUpdated",
      "type": "event"
    },
    {
      "anonymous": false,
      "inputs": [
        {
          "indexed": true,
          "internalType": "address",
          "name": "previousOwner",
          "type": "address"
        },
        {
          "indexed": true,
          "internalType": "address",
          "name": "newOwner",
          "type": "address"
        }
      ],
      "name": "OwnershipTransferred",
      "type": "event"
    },
    {
      "anonymous": false,
      "inputs": [
        {
          "indexed": true,
          "internalType": "uint256",
          "name": "productId",
          "type": "uint256"
        },
        {
          "indexed": true,
          "internalType": "address",
          "name": "buyer",
          "type": "address"
        },
        {
          "indexed": true,
          "internalType": "address",
          "name": "seller",
          "type": "address"
        },
        {
          "indexed": false,
          "internalType": "uint256",
          "name": "price",
          "type": "uint256"
        },
        {
          "indexed": false,
          "internalType": "uint256",
          "name": "timestamp",
          "type": "uint256"
        }
      ],
      "name": "ProductPurchased",
      "type": "event"
    },
    {
      "anonymous": false,
      "inputs": [
        {
          "indexed": true,
          "internalType": "uint256",
          "name": "productId",
          "type": "uint256"
        },
        {
          "indexed": true,
          "internalType": "address",
          "name": "buyer",
          "type": "address"
        },
        {
          "indexed": true,
          "internalType": "address",
          "name": "seller",
          "type": "address"
        },
        {
          "indexed": false,
          "internalType": "uint256",
          "name": "totalAmount",
          "type": "uint256"
        },
        {
          "indexed": false,
          "internalType": "uint256",
          "name": "basePrice",
          "type": "uint256"
        },
        {
          "indexed": false,
          "internalType": "uint256",
          "name": "timestamp",
          "type": "uint256"
        }
      ],
      "name": "PurchaseRecorded",
      "type": "event"
    },
    {
      "anonymous": false,
      "inputs": [
        {
          "indexed": true,
          "internalType": "address",
          "name": "seller",
          "type": "address"
        }
      ],
      "name": "SellerAccessGranted",
      "type": "event"
    },
    {
      "anonymous": false,
      "inputs": [
        {
          "indexed": true,
          "internalType": "address",
          "name": "seller",
          "type": "address"
        },
        {
          "indexed": false,
          "internalType": "uint256",
          "name": "timestamp",
          "type": "uint256"
        }
      ],
      "name": "SellerRegistered",
      "type": "event"
    },
    {
      "anonymous": false,
      "inputs": [
        {
          "indexed": true,
          "internalType": "address",
          "name": "seller",
          "type": "address"
        },
        {
          "indexed": false,
          "internalType": "enum HemShop.SellerStatus",
          "name": "status",
          "type": "uint8"
        }
      ],
      "name": "SellerStatusUpdated",
      "type": "event"
    },
    {
      "anonymous": false,
      "inputs": [
        {
          "indexed": true,
          "internalType": "uint256",
          "name": "id",
          "type": "uint256"
        },
        {
          "indexed": true,
          "internalType": "uint256",
          "name": "parentId",
          "type": "uint256"
        },
        {
          "indexed": false,
          "internalType": "string",
          "name": "name",
          "type": "string"
        }
      ],
      "name": "SubCategoryCreated",
      "type": "event"
    },
    {
      "anonymous": false,
      "inputs": [
        {
          "indexed": true,
          "internalType": "uint256",
          "name": "id",
          "type": "uint256"
        },
        {
          "indexed": false,
          "internalType": "string",
          "name": "name",
          "type": "string"
        },
        {
          "indexed": false,
          "internalType": "bool",
          "name": "isActive",
          "type": "bool"
        }
      ],
      "name": "SubCategoryUpdated",
      "type": "event"
    },
    {
      "anonymous": false,
      "inputs": [
        {
          "indexed": true,
          "internalType": "address",
          "name": "from",
          "type": "address"
        },
        {
          "indexed": true,
          "internalType": "address",
          "name": "to",
          "type": "address"
        },
        {
          "indexed": true,
          "internalType": "uint256",
          "name": "tokenId",
          "type": "uint256"
        }
      ],
      "name": "Transfer",
      "type": "event"
    },
    {
      "anonymous": false,
      "inputs": [
        {
          "indexed": true,
          "internalType": "address",
          "name": "user",
          "type": "address"
        },
        {
          "indexed": false,
          "internalType": "string",
          "name": "name",
          "type": "string"
        }
      ],
      "name": "UserRegistered",
      "type": "event"
    },
    {
      "inputs": [
        {
          "internalType": "address",
          "name": "",
          "type": "address"
        }
      ],
      "name": "adminImpersonating",
      "outputs": [
        {
          "internalType": "address",
          "name": "",
          "type": "address"
        }
      ],
      "stateMutability": "view",
      "type": "function"
    },
    {
      "inputs": [
        {
          "internalType": "address",
          "name": "to",
          "type": "address"
        },
        {
          "internalType": "uint256",
          "name": "tokenId",
          "type": "uint256"
        }
      ],
      "name": "approve",
      "outputs": [],
      "stateMutability": "nonpayable",
      "type": "function"
    },
    {
      "inputs": [
        {
          "internalType": "address",
          "name": "owner",
          "type": "address"
        }
      ],
      "name": "balanceOf",
      "outputs": [
        {
          "internalType": "uint256",
          "name": "",
          "type": "uint256"
        }
      ],
      "stateMutability": "view",
      "type": "function"
    },
    {
      "inputs": [
        {
          "internalType": "uint256",
          "name": "productId",
          "type": "uint256"
        },
        {
          "components": [
            {
              "internalType": "string",
              "name": "fullName",
              "type": "string"
            },
            {
              "internalType": "string",
              "name": "streetAddress",
              "type": "string"
            },
            {
              "internalType": "string",
              "name": "city",
              "type": "string"
            },
            {
              "internalType": "string",
              "name": "state",
              "type": "string"
            },
            {
              "internalType": "string",
              "name": "country",
              "type": "string"
            },
            {
              "internalType": "string",
              "name": "postalCode",
              "type": "string"
            },
            {
              "internalType": "string",
              "name": "phone",
              "type": "string"
            },
            {
              "internalType": "string",
              "name": "email",
              "type": "string"
            }
          ],
          "internalType": "struct HemShop.ShippingDetails",
          "name": "shippingDetails",
          "type": "tuple"
        }
      ],
      "name": "buyProduct",
      "outputs": [],
      "stateMutability": "payable",
      "type": "function"
    },
    {
      "inputs": [
        {
          "internalType": "address",
          "name": "",
          "type": "address"
        },
        {
          "internalType": "uint256",
          "name": "",
          "type": "uint256"
        }
      ],
      "name": "buyerPurchaseHistory",
      "outputs": [
        {
          "internalType": "uint256",
          "name": "productId",
          "type": "uint256"
        },
        {
          "internalType": "uint256",
          "name": "totalAmount",
          "type": "uint256"
        },
        {
          "internalType": "uint256",
          "name": "basePrice",
          "type": "uint256"
        },
        {
          "internalType": "uint256",
          "name": "timestamp",
          "type": "uint256"
        },
        {
          "internalType": "address",
          "name": "buyer",
          "type": "address"
        },
        {
          "internalType": "address",
          "name": "seller",
          "type": "address"
        },
        {
          "internalType": "bool",
          "name": "isDelivered",
          "type": "bool"
        },
        {
          "components": [
            {
              "internalType": "string",
              "name": "fullName",
              "type": "string"
            },
            {
              "internalType": "string",
              "name": "streetAddress",
              "type": "string"
            },
            {
              "internalType": "string",
              "name": "city",
              "type": "string"
            },
            {
              "internalType": "string",
              "name": "state",
              "type": "string"
            },
            {
              "internalType": "string",
              "name": "country",
              "type": "string"
            },
            {
              "internalType": "string",
              "name": "postalCode",
              "type": "string"
            },
            {
              "internalType": "string",
              "name": "phone",
              "type": "string"
            },
            {
              "internalType": "string",
              "name": "email",
              "type": "string"
            }
          ],
          "internalType": "struct HemShop.ShippingDetails",
          "name": "shippingDetails",
          "type": "tuple"
        }
      ],
      "stateMutability": "view",
      "type": "function"
    },
    {
      "inputs": [
        {
          "internalType": "uint256",
          "name": "newPct",
          "type": "uint256"
        }
      ],
      "name": "changeServicePct",
      "outputs": [],
      "stateMutability": "nonpayable",
      "type": "function"
    },
    {
      "inputs": [
        {
          "internalType": "string",
          "name": "_name",
          "type": "string"
        }
      ],
      "name": "createCategory",
      "outputs": [],
      "stateMutability": "nonpayable",
      "type": "function"
    },
    {
      "inputs": [
        {
          "components": [
            {
              "internalType": "string",
              "name": "name",
              "type": "string"
            },
            {
              "internalType": "string",
              "name": "description",
              "type": "string"
            },
            {
              "internalType": "uint256",
              "name": "price",
              "type": "uint256"
            },
            {
              "internalType": "uint256",
              "name": "stock",
              "type": "uint256"
            },
            {
              "internalType": "string[]",
              "name": "colors",
              "type": "string[]"
            },
            {
              "internalType": "string[]",
              "name": "sizes",
              "type": "string[]"
            },
            {
              "internalType": "string[]",
              "name": "images",
              "type": "string[]"
            },
            {
              "internalType": "uint256",
              "name": "categoryId",
              "type": "uint256"
            },
            {
              "internalType": "uint256",
              "name": "subCategoryId",
              "type": "uint256"
            },
            {
              "internalType": "uint256",
              "name": "weight",
              "type": "uint256"
            },
            {
              "internalType": "string",
              "name": "model",
              "type": "string"
            },
            {
              "internalType": "string",
              "name": "brand",
              "type": "string"
            },
            {
              "internalType": "uint256",
              "name": "sku",
              "type": "uint256"
            }
          ],
          "internalType": "struct HemShop.ProductInput",
          "name": "input",
          "type": "tuple"
        }
      ],
      "name": "createProduct",
      "outputs": [],
      "stateMutability": "nonpayable",
      "type": "function"
    },
    {
      "inputs": [
        {
          "internalType": "uint256",
          "name": "productId",
          "type": "uint256"
        },
        {
          "internalType": "uint256",
          "name": "rating",
          "type": "uint256"
        },
        {
          "internalType": "string",
          "name": "comment",
          "type": "string"
        }
      ],
      "name": "createReview",
      "outputs": [],
      "stateMutability": "nonpayable",
      "type": "function"
    },
    {
      "inputs": [
        {
          "internalType": "uint256",
          "name": "parentId",
          "type": "uint256"
        },
        {
          "internalType": "string[]",
          "name": "names",
          "type": "string[]"
        }
      ],
      "name": "createSubCategoriesBulk",
      "outputs": [],
      "stateMutability": "nonpayable",
      "type": "function"
    },
    {
      "inputs": [
        {
          "internalType": "uint256",
          "name": "_parentId",
          "type": "uint256"
        },
        {
          "internalType": "string",
          "name": "_name",
          "type": "string"
        }
      ],
      "name": "createSubCategory",
      "outputs": [],
      "stateMutability": "nonpayable",
      "type": "function"
    },
    {
      "inputs": [
        {
          "internalType": "uint256",
          "name": "_id",
          "type": "uint256"
        }
      ],
      "name": "deleteCategory",
      "outputs": [],
      "stateMutability": "nonpayable",
      "type": "function"
    },
    {
      "inputs": [
        {
          "internalType": "uint256",
          "name": "productId",
          "type": "uint256"
        }
      ],
      "name": "deleteProduct",
      "outputs": [],
      "stateMutability": "nonpayable",
      "type": "function"
    },
    {
      "inputs": [
        {
          "internalType": "uint256",
          "name": "productId",
          "type": "uint256"
        },
        {
          "internalType": "uint256",
          "name": "reviewId",
          "type": "uint256"
        }
      ],
      "name": "deleteReview",
      "outputs": [],
      "stateMutability": "nonpayable",
      "type": "function"
    },
    {
      "inputs": [
        {
          "internalType": "uint256",
          "name": "_id",
          "type": "uint256"
        }
      ],
      "name": "deleteSubCategory",
      "outputs": [],
      "stateMutability": "nonpayable",
      "type": "function"
    },
    {
      "inputs": [],
      "name": "getAllCategories",
      "outputs": [
        {
          "internalType": "uint256[]",
          "name": "ids",
          "type": "uint256[]"
        },
        {
          "internalType": "string[]",
          "name": "names",
          "type": "string[]"
        },
        {
          "internalType": "bool[]",
          "name": "activeStates",
          "type": "bool[]"
        },
        {
          "internalType": "uint256[][]",
          "name": "subCategoryIdArrays",
          "type": "uint256[][]"
        }
      ],
      "stateMutability": "view",
      "type": "function"
    },
    {
      "inputs": [],
      "name": "getAllProducts",
      "outputs": [
        {
          "components": [
            {
              "internalType": "uint256",
              "name": "id",
              "type": "uint256"
            },
            {
              "internalType": "address",
              "name": "seller",
              "type": "address"
            },
            {
              "internalType": "string",
              "name": "name",
              "type": "string"
            },
            {
              "internalType": "string",
              "name": "description",
              "type": "string"
            },
            {
              "internalType": "uint256",
              "name": "price",
              "type": "uint256"
            },
            {
              "internalType": "uint256",
              "name": "stock",
              "type": "uint256"
            },
            {
              "internalType": "string[]",
              "name": "colors",
              "type": "string[]"
            },
            {
              "internalType": "string[]",
              "name": "sizes",
              "type": "string[]"
            },
            {
              "internalType": "string[]",
              "name": "images",
              "type": "string[]"
            },
            {
              "internalType": "string",
              "name": "category",
              "type": "string"
            },
            {
              "internalType": "string",
              "name": "subCategory",
              "type": "string"
            },
            {
              "internalType": "uint256",
              "name": "weight",
              "type": "uint256"
            },
            {
              "internalType": "string",
              "name": "model",
              "type": "string"
            },
            {
              "internalType": "string",
              "name": "brand",
              "type": "string"
            },
            {
              "internalType": "uint256",
              "name": "sku",
              "type": "uint256"
            },
            {
              "internalType": "bool",
              "name": "soldout",
              "type": "bool"
            },
            {
              "internalType": "bool",
              "name": "wishlist",
              "type": "bool"
            },
            {
              "internalType": "bool",
              "name": "deleted",
              "type": "bool"
            },
            {
              "components": [
                {
                  "internalType": "uint256",
                  "name": "reviewId",
                  "type": "uint256"
                },
                {
                  "internalType": "address",
                  "name": "reviewer",
                  "type": "address"
                },
                {
                  "internalType": "uint256",
                  "name": "rating",
                  "type": "uint256"
                },
                {
                  "internalType": "string",
                  "name": "comment",
                  "type": "string"
                },
                {
                  "internalType": "bool",
                  "name": "deleted",
                  "type": "bool"
                },
                {
                  "internalType": "uint256",
                  "name": "timestamp",
                  "type": "uint256"
                }
              ],
              "internalType": "struct HemShop.ReviewStruct[]",
              "name": "reviews",
              "type": "tuple[]"
            }
          ],
          "internalType": "struct HemShop.ProductStruct[]",
          "name": "",
          "type": "tuple[]"
        }
      ],
      "stateMutability": "view",
      "type": "function"
    },
    {
      "inputs": [],
      "name": "getAllRegisteredSellers",
      "outputs": [
        {
          "internalType": "address[]",
          "name": "",
          "type": "address[]"
        }
      ],
      "stateMutability": "view",
      "type": "function"
    },
    {
      "inputs": [
        {
          "internalType": "uint256",
          "name": "tokenId",
          "type": "uint256"
        }
      ],
      "name": "getApproved",
      "outputs": [
        {
          "internalType": "address",
          "name": "",
          "type": "address"
        }
      ],
      "stateMutability": "view",
      "type": "function"
    },
    {
      "inputs": [
        {
          "internalType": "address",
          "name": "buyer",
          "type": "address"
        }
      ],
      "name": "getBuyerPurchaseHistory",
      "outputs": [
        {
          "components": [
            {
              "internalType": "uint256",
              "name": "productId",
              "type": "uint256"
            },
            {
              "internalType": "uint256",
              "name": "totalAmount",
              "type": "uint256"
            },
            {
              "internalType": "uint256",
              "name": "basePrice",
              "type": "uint256"
            },
            {
              "internalType": "uint256",
              "name": "timestamp",
              "type": "uint256"
            },
            {
              "internalType": "address",
              "name": "buyer",
              "type": "address"
            },
            {
              "internalType": "address",
              "name": "seller",
              "type": "address"
            },
            {
              "internalType": "bool",
              "name": "isDelivered",
              "type": "bool"
            },
            {
              "components": [
                {
                  "internalType": "string",
                  "name": "fullName",
                  "type": "string"
                },
                {
                  "internalType": "string",
                  "name": "streetAddress",
                  "type": "string"
                },
                {
                  "internalType": "string",
                  "name": "city",
                  "type": "string"
                },
                {
                  "internalType": "string",
                  "name": "state",
                  "type": "string"
                },
                {
                  "internalType": "string",
                  "name": "country",
                  "type": "string"
                },
                {
                  "internalType": "string",
                  "name": "postalCode",
                  "type": "string"
                },
                {
                  "internalType": "string",
                  "name": "phone",
                  "type": "string"
                },
                {
                  "internalType": "string",
                  "name": "email",
                  "type": "string"
                }
              ],
              "internalType": "struct HemShop.ShippingDetails",
              "name": "shippingDetails",
              "type": "tuple"
            }
          ],
          "internalType": "struct HemShop.PurchaseHistoryStruct[]",
          "name": "",
          "type": "tuple[]"
        }
      ],
      "stateMutability": "view",
      "type": "function"
    },
    {
      "inputs": [
        {
          "internalType": "uint256",
          "name": "_id",
          "type": "uint256"
        }
      ],
      "name": "getCategory",
      "outputs": [
        {
          "internalType": "uint256",
          "name": "id",
          "type": "uint256"
        },
        {
          "internalType": "string",
          "name": "name",
          "type": "string"
        },
        {
          "internalType": "bool",
          "name": "isActive",
          "type": "bool"
        },
        {
          "internalType": "uint256[]",
          "name": "subCategoryIds",
          "type": "uint256[]"
        }
      ],
      "stateMutability": "view",
      "type": "function"
    },
    {
      "inputs": [],
      "name": "getMyProducts",
      "outputs": [
        {
          "components": [
            {
              "internalType": "uint256",
              "name": "id",
              "type": "uint256"
            },
            {
              "internalType": "address",
              "name": "seller",
              "type": "address"
            },
            {
              "internalType": "string",
              "name": "name",
              "type": "string"
            },
            {
              "internalType": "string",
              "name": "description",
              "type": "string"
            },
            {
              "internalType": "uint256",
              "name": "price",
              "type": "uint256"
            },
            {
              "internalType": "uint256",
              "name": "stock",
              "type": "uint256"
            },
            {
              "internalType": "string[]",
              "name": "colors",
              "type": "string[]"
            },
            {
              "internalType": "string[]",
              "name": "sizes",
              "type": "string[]"
            },
            {
              "internalType": "string[]",
              "name": "images",
              "type": "string[]"
            },
            {
              "internalType": "string",
              "name": "category",
              "type": "string"
            },
            {
              "internalType": "string",
              "name": "subCategory",
              "type": "string"
            },
            {
              "internalType": "uint256",
              "name": "weight",
              "type": "uint256"
            },
            {
              "internalType": "string",
              "name": "model",
              "type": "string"
            },
            {
              "internalType": "string",
              "name": "brand",
              "type": "string"
            },
            {
              "internalType": "uint256",
              "name": "sku",
              "type": "uint256"
            },
            {
              "internalType": "bool",
              "name": "soldout",
              "type": "bool"
            },
            {
              "internalType": "bool",
              "name": "wishlist",
              "type": "bool"
            },
            {
              "internalType": "bool",
              "name": "deleted",
              "type": "bool"
            },
            {
              "components": [
                {
                  "internalType": "uint256",
                  "name": "reviewId",
                  "type": "uint256"
                },
                {
                  "internalType": "address",
                  "name": "reviewer",
                  "type": "address"
                },
                {
                  "internalType": "uint256",
                  "name": "rating",
                  "type": "uint256"
                },
                {
                  "internalType": "string",
                  "name": "comment",
                  "type": "string"
                },
                {
                  "internalType": "bool",
                  "name": "deleted",
                  "type": "bool"
                },
                {
                  "internalType": "uint256",
                  "name": "timestamp",
                  "type": "uint256"
                }
              ],
              "internalType": "struct HemShop.ReviewStruct[]",
              "name": "reviews",
              "type": "tuple[]"
            }
          ],
          "internalType": "struct HemShop.ProductStruct[]",
          "name": "",
          "type": "tuple[]"
        }
      ],
      "stateMutability": "view",
      "type": "function"
    },
    {
      "inputs": [],
      "name": "getPendingVerificationUsers",
      "outputs": [
        {
          "internalType": "address[]",
          "name": "",
          "type": "address[]"
        }
      ],
      "stateMutability": "view",
      "type": "function"
    },
    {
      "inputs": [
        {
          "internalType": "uint256",
          "name": "productId",
          "type": "uint256"
        }
      ],
      "name": "getProduct",
      "outputs": [
        {
          "components": [
            {
              "internalType": "uint256",
              "name": "id",
              "type": "uint256"
            },
            {
              "internalType": "address",
              "name": "seller",
              "type": "address"
            },
            {
              "internalType": "string",
              "name": "name",
              "type": "string"
            },
            {
              "internalType": "string",
              "name": "description",
              "type": "string"
            },
            {
              "internalType": "uint256",
              "name": "price",
              "type": "uint256"
            },
            {
              "internalType": "uint256",
              "name": "stock",
              "type": "uint256"
            },
            {
              "internalType": "string[]",
              "name": "colors",
              "type": "string[]"
            },
            {
              "internalType": "string[]",
              "name": "sizes",
              "type": "string[]"
            },
            {
              "internalType": "string[]",
              "name": "images",
              "type": "string[]"
            },
            {
              "internalType": "string",
              "name": "category",
              "type": "string"
            },
            {
              "internalType": "string",
              "name": "subCategory",
              "type": "string"
            },
            {
              "internalType": "uint256",
              "name": "weight",
              "type": "uint256"
            },
            {
              "internalType": "string",
              "name": "model",
              "type": "string"
            },
            {
              "internalType": "string",
              "name": "brand",
              "type": "string"
            },
            {
              "internalType": "uint256",
              "name": "sku",
              "type": "uint256"
            },
            {
              "internalType": "bool",
              "name": "soldout",
              "type": "bool"
            },
            {
              "internalType": "bool",
              "name": "wishlist",
              "type": "bool"
            },
            {
              "internalType": "bool",
              "name": "deleted",
              "type": "bool"
            },
            {
              "components": [
                {
                  "internalType": "uint256",
                  "name": "reviewId",
                  "type": "uint256"
                },
                {
                  "internalType": "address",
                  "name": "reviewer",
                  "type": "address"
                },
                {
                  "internalType": "uint256",
                  "name": "rating",
                  "type": "uint256"
                },
                {
                  "internalType": "string",
                  "name": "comment",
                  "type": "string"
                },
                {
                  "internalType": "bool",
                  "name": "deleted",
                  "type": "bool"
                },
                {
                  "internalType": "uint256",
                  "name": "timestamp",
                  "type": "uint256"
                }
              ],
              "internalType": "struct HemShop.ReviewStruct[]",
              "name": "reviews",
              "type": "tuple[]"
            }
          ],
          "internalType": "struct HemShop.ProductStruct",
          "name": "",
          "type": "tuple"
        }
      ],
      "stateMutability": "view",
      "type": "function"
    },
    {
      "inputs": [
        {
          "internalType": "string",
          "name": "categoryName",
          "type": "string"
        }
      ],
      "name": "getProductsByCategory",
      "outputs": [
        {
          "components": [
            {
              "internalType": "uint256",
              "name": "id",
              "type": "uint256"
            },
            {
              "internalType": "address",
              "name": "seller",
              "type": "address"
            },
            {
              "internalType": "string",
              "name": "name",
              "type": "string"
            },
            {
              "internalType": "string",
              "name": "description",
              "type": "string"
            },
            {
              "internalType": "uint256",
              "name": "price",
              "type": "uint256"
            },
            {
              "internalType": "uint256",
              "name": "stock",
              "type": "uint256"
            },
            {
              "internalType": "string[]",
              "name": "colors",
              "type": "string[]"
            },
            {
              "internalType": "string[]",
              "name": "sizes",
              "type": "string[]"
            },
            {
              "internalType": "string[]",
              "name": "images",
              "type": "string[]"
            },
            {
              "internalType": "string",
              "name": "category",
              "type": "string"
            },
            {
              "internalType": "string",
              "name": "subCategory",
              "type": "string"
            },
            {
              "internalType": "uint256",
              "name": "weight",
              "type": "uint256"
            },
            {
              "internalType": "string",
              "name": "model",
              "type": "string"
            },
            {
              "internalType": "string",
              "name": "brand",
              "type": "string"
            },
            {
              "internalType": "uint256",
              "name": "sku",
              "type": "uint256"
            },
            {
              "internalType": "bool",
              "name": "soldout",
              "type": "bool"
            },
            {
              "internalType": "bool",
              "name": "wishlist",
              "type": "bool"
            },
            {
              "internalType": "bool",
              "name": "deleted",
              "type": "bool"
            },
            {
              "components": [
                {
                  "internalType": "uint256",
                  "name": "reviewId",
                  "type": "uint256"
                },
                {
                  "internalType": "address",
                  "name": "reviewer",
                  "type": "address"
                },
                {
                  "internalType": "uint256",
                  "name": "rating",
                  "type": "uint256"
                },
                {
                  "internalType": "string",
                  "name": "comment",
                  "type": "string"
                },
                {
                  "internalType": "bool",
                  "name": "deleted",
                  "type": "bool"
                },
                {
                  "internalType": "uint256",
                  "name": "timestamp",
                  "type": "uint256"
                }
              ],
              "internalType": "struct HemShop.ReviewStruct[]",
              "name": "reviews",
              "type": "tuple[]"
            }
          ],
          "internalType": "struct HemShop.ProductStruct[]",
          "name": "",
          "type": "tuple[]"
        }
      ],
      "stateMutability": "view",
      "type": "function"
    },
    {
      "inputs": [
        {
          "internalType": "uint256",
          "name": "productId",
          "type": "uint256"
        }
      ],
      "name": "getReviews",
      "outputs": [
        {
          "components": [
            {
              "internalType": "uint256",
              "name": "reviewId",
              "type": "uint256"
            },
            {
              "internalType": "address",
              "name": "reviewer",
              "type": "address"
            },
            {
              "internalType": "uint256",
              "name": "rating",
              "type": "uint256"
            },
            {
              "internalType": "string",
              "name": "comment",
              "type": "string"
            },
            {
              "internalType": "bool",
              "name": "deleted",
              "type": "bool"
            },
            {
              "internalType": "uint256",
              "name": "timestamp",
              "type": "uint256"
            }
          ],
          "internalType": "struct HemShop.ReviewStruct[]",
          "name": "",
          "type": "tuple[]"
        }
      ],
      "stateMutability": "view",
      "type": "function"
    },
    {
      "inputs": [
        {
          "internalType": "address",
          "name": "seller",
          "type": "address"
        }
      ],
      "name": "getSeller",
      "outputs": [
        {
          "components": [
            {
              "internalType": "string",
              "name": "businessName",
              "type": "string"
            },
            {
              "internalType": "string",
              "name": "description",
              "type": "string"
            },
            {
              "internalType": "string",
              "name": "email",
              "type": "string"
            },
            {
              "internalType": "string",
              "name": "phone",
              "type": "string"
            },
            {
              "internalType": "string",
              "name": "logo",
              "type": "string"
            },
            {
              "internalType": "uint256",
              "name": "registeredAt",
              "type": "uint256"
            },
            {
              "internalType": "bool",
              "name": "termsAccepted",
              "type": "bool"
            }
          ],
          "internalType": "struct HemShop.SellerProfile",
          "name": "profile",
          "type": "tuple"
        },
        {
          "internalType": "enum HemShop.SellerStatus",
          "name": "status",
          "type": "uint8"
        },
        {
          "internalType": "uint256",
          "name": "balance",
          "type": "uint256"
        },
        {
          "internalType": "uint256[]",
          "name": "productIds",
          "type": "uint256[]"
        }
      ],
      "stateMutability": "view",
      "type": "function"
    },
    {
      "inputs": [
        {
          "internalType": "address",
          "name": "seller",
          "type": "address"
        }
      ],
      "name": "getSellerBalance",
      "outputs": [
        {
          "internalType": "uint256",
          "name": "",
          "type": "uint256"
        }
      ],
      "stateMutability": "view",
      "type": "function"
    },
    {
      "inputs": [
        {
          "internalType": "address",
          "name": "seller",
          "type": "address"
        }
      ],
      "name": "getSellerProducts",
      "outputs": [
        {
          "components": [
            {
              "internalType": "uint256",
              "name": "id",
              "type": "uint256"
            },
            {
              "internalType": "address",
              "name": "seller",
              "type": "address"
            },
            {
              "internalType": "string",
              "name": "name",
              "type": "string"
            },
            {
              "internalType": "string",
              "name": "description",
              "type": "string"
            },
            {
              "internalType": "uint256",
              "name": "price",
              "type": "uint256"
            },
            {
              "internalType": "uint256",
              "name": "stock",
              "type": "uint256"
            },
            {
              "internalType": "string[]",
              "name": "colors",
              "type": "string[]"
            },
            {
              "internalType": "string[]",
              "name": "sizes",
              "type": "string[]"
            },
            {
              "internalType": "string[]",
              "name": "images",
              "type": "string[]"
            },
            {
              "internalType": "string",
              "name": "category",
              "type": "string"
            },
            {
              "internalType": "string",
              "name": "subCategory",
              "type": "string"
            },
            {
              "internalType": "uint256",
              "name": "weight",
              "type": "uint256"
            },
            {
              "internalType": "string",
              "name": "model",
              "type": "string"
            },
            {
              "internalType": "string",
              "name": "brand",
              "type": "string"
            },
            {
              "internalType": "uint256",
              "name": "sku",
              "type": "uint256"
            },
            {
              "internalType": "bool",
              "name": "soldout",
              "type": "bool"
            },
            {
              "internalType": "bool",
              "name": "wishlist",
              "type": "bool"
            },
            {
              "internalType": "bool",
              "name": "deleted",
              "type": "bool"
            },
            {
              "components": [
                {
                  "internalType": "uint256",
                  "name": "reviewId",
                  "type": "uint256"
                },
                {
                  "internalType": "address",
                  "name": "reviewer",
                  "type": "address"
                },
                {
                  "internalType": "uint256",
                  "name": "rating",
                  "type": "uint256"
                },
                {
                  "internalType": "string",
                  "name": "comment",
                  "type": "string"
                },
                {
                  "internalType": "bool",
                  "name": "deleted",
                  "type": "bool"
                },
                {
                  "internalType": "uint256",
                  "name": "timestamp",
                  "type": "uint256"
                }
              ],
              "internalType": "struct HemShop.ReviewStruct[]",
              "name": "reviews",
              "type": "tuple[]"
            }
          ],
          "internalType": "struct HemShop.ProductStruct[]",
          "name": "",
          "type": "tuple[]"
        }
      ],
      "stateMutability": "view",
      "type": "function"
    },
    {
      "inputs": [
        {
          "internalType": "address",
          "name": "seller",
          "type": "address"
        }
      ],
      "name": "getSellerProfile",
      "outputs": [
        {
          "components": [
            {
              "internalType": "string",
              "name": "businessName",
              "type": "string"
            },
            {
              "internalType": "string",
              "name": "description",
              "type": "string"
            },
            {
              "internalType": "string",
              "name": "email",
              "type": "string"
            },
            {
              "internalType": "string",
              "name": "phone",
              "type": "string"
            },
            {
              "internalType": "string",
              "name": "logo",
              "type": "string"
            },
            {
              "internalType": "uint256",
              "name": "registeredAt",
              "type": "uint256"
            },
            {
              "internalType": "bool",
              "name": "termsAccepted",
              "type": "bool"
            }
          ],
          "internalType": "struct HemShop.SellerProfile",
          "name": "",
          "type": "tuple"
        }
      ],
      "stateMutability": "view",
      "type": "function"
    },
    {
      "inputs": [
        {
          "internalType": "address",
          "name": "seller",
          "type": "address"
        }
      ],
      "name": "getSellerPurchaseHistory",
      "outputs": [
        {
          "components": [
            {
              "internalType": "uint256",
              "name": "productId",
              "type": "uint256"
            },
            {
              "internalType": "uint256",
              "name": "totalAmount",
              "type": "uint256"
            },
            {
              "internalType": "uint256",
              "name": "basePrice",
              "type": "uint256"
            },
            {
              "internalType": "uint256",
              "name": "timestamp",
              "type": "uint256"
            },
            {
              "internalType": "address",
              "name": "buyer",
              "type": "address"
            },
            {
              "internalType": "address",
              "name": "seller",
              "type": "address"
            },
            {
              "internalType": "bool",
              "name": "isDelivered",
              "type": "bool"
            },
            {
              "components": [
                {
                  "internalType": "string",
                  "name": "fullName",
                  "type": "string"
                },
                {
                  "internalType": "string",
                  "name": "streetAddress",
                  "type": "string"
                },
                {
                  "internalType": "string",
                  "name": "city",
                  "type": "string"
                },
                {
                  "internalType": "string",
                  "name": "state",
                  "type": "string"
                },
                {
                  "internalType": "string",
                  "name": "country",
                  "type": "string"
                },
                {
                  "internalType": "string",
                  "name": "postalCode",
                  "type": "string"
                },
                {
                  "internalType": "string",
                  "name": "phone",
                  "type": "string"
                },
                {
                  "internalType": "string",
                  "name": "email",
                  "type": "string"
                }
              ],
              "internalType": "struct HemShop.ShippingDetails",
              "name": "shippingDetails",
              "type": "tuple"
            }
          ],
          "internalType": "struct HemShop.PurchaseHistoryStruct[]",
          "name": "",
          "type": "tuple[]"
        }
      ],
      "stateMutability": "view",
      "type": "function"
    },
    {
      "inputs": [
        {
          "internalType": "address",
          "name": "seller",
          "type": "address"
        }
      ],
      "name": "getSellerStatus",
      "outputs": [
        {
          "internalType": "enum HemShop.SellerStatus",
          "name": "",
          "type": "uint8"
        }
      ],
      "stateMutability": "view",
      "type": "function"
    },
    {
      "inputs": [
        {
          "internalType": "uint256",
          "name": "_id",
          "type": "uint256"
        }
      ],
      "name": "getSubCategory",
      "outputs": [
        {
          "internalType": "uint256",
          "name": "id",
          "type": "uint256"
        },
        {
          "internalType": "string",
          "name": "name",
          "type": "string"
        },
        {
          "internalType": "uint256",
          "name": "parentCategoryId",
          "type": "uint256"
        },
        {
          "internalType": "bool",
          "name": "isActive",
          "type": "bool"
        }
      ],
      "stateMutability": "view",
      "type": "function"
    },
    {
      "inputs": [
        {
          "internalType": "address",
          "name": "user",
          "type": "address"
        }
      ],
      "name": "getUser",
      "outputs": [
        {
          "internalType": "bool",
          "name": "isRegistered",
          "type": "bool"
        },
        {
          "components": [
            {
              "internalType": "string",
              "name": "name",
              "type": "string"
            },
            {
              "internalType": "string",
              "name": "email",
              "type": "string"
            },
            {
              "internalType": "string",
              "name": "avatar",
              "type": "string"
            },
            {
              "internalType": "uint256",
              "name": "registeredAt",
              "type": "uint256"
            },
            {
              "internalType": "bool",
              "name": "isActive",
              "type": "bool"
            }
          ],
          "internalType": "struct HemShop.UserProfile",
          "name": "profile",
          "type": "tuple"
        },
        {
          "internalType": "bool",
          "name": "isUserSeller",
          "type": "bool"
        },
        {
          "internalType": "enum HemShop.SellerStatus",
          "name": "sellerState",
          "type": "uint8"
        }
      ],
      "stateMutability": "view",
      "type": "function"
    },
    {
      "inputs": [],
      "name": "grantOwnerSellerAccess",
      "outputs": [],
      "stateMutability": "nonpayable",
      "type": "function"
    },
    {
      "inputs": [
        {
          "internalType": "address",
          "name": "seller",
          "type": "address"
        }
      ],
      "name": "grantSellerAccess",
      "outputs": [],
      "stateMutability": "nonpayable",
      "type": "function"
    },
    {
      "inputs": [
        {
          "internalType": "address",
          "name": "account",
          "type": "address"
        }
      ],
      "name": "impersonateAccount",
      "outputs": [],
      "stateMutability": "nonpayable",
      "type": "function"
    },
    {
      "inputs": [
        {
          "internalType": "address",
          "name": "owner",
          "type": "address"
        },
        {
          "internalType": "address",
          "name": "operator",
          "type": "address"
        }
      ],
      "name": "isApprovedForAll",
      "outputs": [
        {
          "internalType": "bool",
          "name": "",
          "type": "bool"
        }
      ],
      "stateMutability": "view",
      "type": "function"
    },
    {
      "inputs": [
        {
          "internalType": "address",
          "name": "",
          "type": "address"
        }
      ],
      "name": "isSeller",
      "outputs": [
        {
          "internalType": "bool",
          "name": "",
          "type": "bool"
        }
      ],
      "stateMutability": "view",
      "type": "function"
    },
    {
      "inputs": [
        {
          "internalType": "uint256",
          "name": "productId",
          "type": "uint256"
        },
        {
          "internalType": "address",
          "name": "buyer",
          "type": "address"
        }
      ],
      "name": "markPurchaseDelivered",
      "outputs": [],
      "stateMutability": "nonpayable",
      "type": "function"
    },
    {
      "inputs": [],
      "name": "name",
      "outputs": [
        {
          "internalType": "string",
          "name": "",
          "type": "string"
        }
      ],
      "stateMutability": "view",
      "type": "function"
    },
    {
      "inputs": [],
      "name": "owner",
      "outputs": [
        {
          "internalType": "address",
          "name": "",
          "type": "address"
        }
      ],
      "stateMutability": "view",
      "type": "function"
    },
    {
      "inputs": [
        {
          "internalType": "uint256",
          "name": "tokenId",
          "type": "uint256"
        }
      ],
      "name": "ownerOf",
      "outputs": [
        {
          "internalType": "address",
          "name": "",
          "type": "address"
        }
      ],
      "stateMutability": "view",
      "type": "function"
    },
    {
      "inputs": [
        {
          "internalType": "uint256",
          "name": "",
          "type": "uint256"
        }
      ],
      "name": "productExists",
      "outputs": [
        {
          "internalType": "bool",
          "name": "",
          "type": "bool"
        }
      ],
      "stateMutability": "view",
      "type": "function"
    },
    {
      "inputs": [
        {
          "internalType": "uint256",
          "name": "",
          "type": "uint256"
        }
      ],
      "name": "products",
      "outputs": [
        {
          "internalType": "uint256",
          "name": "id",
          "type": "uint256"
        },
        {
          "internalType": "address",
          "name": "seller",
          "type": "address"
        },
        {
          "internalType": "string",
          "name": "name",
          "type": "string"
        },
        {
          "internalType": "string",
          "name": "description",
          "type": "string"
        },
        {
          "internalType": "uint256",
          "name": "price",
          "type": "uint256"
        },
        {
          "internalType": "uint256",
          "name": "stock",
          "type": "uint256"
        },
        {
          "internalType": "string",
          "name": "category",
          "type": "string"
        },
        {
          "internalType": "string",
          "name": "subCategory",
          "type": "string"
        },
        {
          "internalType": "uint256",
          "name": "weight",
          "type": "uint256"
        },
        {
          "internalType": "string",
          "name": "model",
          "type": "string"
        },
        {
          "internalType": "string",
          "name": "brand",
          "type": "string"
        },
        {
          "internalType": "uint256",
          "name": "sku",
          "type": "uint256"
        },
        {
          "internalType": "bool",
          "name": "soldout",
          "type": "bool"
        },
        {
          "internalType": "bool",
          "name": "wishlist",
          "type": "bool"
        },
        {
          "internalType": "bool",
          "name": "deleted",
          "type": "bool"
        }
      ],
      "stateMutability": "view",
      "type": "function"
    },
    {
      "inputs": [
        {
          "internalType": "string",
          "name": "businessName",
          "type": "string"
        },
        {
          "internalType": "string",
          "name": "description",
          "type": "string"
        },
        {
          "internalType": "string",
          "name": "email",
          "type": "string"
        },
        {
          "internalType": "string",
          "name": "phone",
          "type": "string"
        },
        {
          "internalType": "string",
          "name": "logo",
          "type": "string"
        }
      ],
      "name": "registerSeller",
      "outputs": [],
      "stateMutability": "nonpayable",
      "type": "function"
    },
    {
      "inputs": [
        {
          "internalType": "string",
          "name": "name",
          "type": "string"
        },
        {
          "internalType": "string",
          "name": "email",
          "type": "string"
        },
        {
          "internalType": "string",
          "name": "avatar",
          "type": "string"
        }
      ],
      "name": "registerUser",
      "outputs": [],
      "stateMutability": "nonpayable",
      "type": "function"
    },
    {
      "inputs": [
        {
          "internalType": "address",
          "name": "",
          "type": "address"
        }
      ],
      "name": "registeredSellers",
      "outputs": [
        {
          "internalType": "bool",
          "name": "",
          "type": "bool"
        }
      ],
      "stateMutability": "view",
      "type": "function"
    },
    {
      "inputs": [
        {
          "internalType": "address",
          "name": "",
          "type": "address"
        }
      ],
      "name": "registeredUsers",
      "outputs": [
        {
          "internalType": "bool",
          "name": "",
          "type": "bool"
        }
      ],
      "stateMutability": "view",
      "type": "function"
    },
    {
      "inputs": [],
      "name": "renounceOwnership",
      "outputs": [],
      "stateMutability": "nonpayable",
      "type": "function"
    },
    {
      "inputs": [
        {
          "internalType": "uint256",
          "name": "",
          "type": "uint256"
        }
      ],
      "name": "reviewExists",
      "outputs": [
        {
          "internalType": "bool",
          "name": "",
          "type": "bool"
        }
      ],
      "stateMutability": "view",
      "type": "function"
    },
    {
      "inputs": [
        {
          "internalType": "address",
          "name": "from",
          "type": "address"
        },
        {
          "internalType": "address",
          "name": "to",
          "type": "address"
        },
        {
          "internalType": "uint256",
          "name": "tokenId",
          "type": "uint256"
        }
      ],
      "name": "safeTransferFrom",
      "outputs": [],
      "stateMutability": "nonpayable",
      "type": "function"
    },
    {
      "inputs": [
        {
          "internalType": "address",
          "name": "from",
          "type": "address"
        },
        {
          "internalType": "address",
          "name": "to",
          "type": "address"
        },
        {
          "internalType": "uint256",
          "name": "tokenId",
          "type": "uint256"
        },
        {
          "internalType": "bytes",
          "name": "data",
          "type": "bytes"
        }
      ],
      "name": "safeTransferFrom",
      "outputs": [],
      "stateMutability": "nonpayable",
      "type": "function"
    },
    {
      "inputs": [
        {
          "internalType": "address",
          "name": "",
          "type": "address"
        }
      ],
      "name": "sellerBalances",
      "outputs": [
        {
          "internalType": "uint256",
          "name": "",
          "type": "uint256"
        }
      ],
      "stateMutability": "view",
      "type": "function"
    },
    {
      "inputs": [
        {
          "internalType": "address",
          "name": "",
          "type": "address"
        },
        {
          "internalType": "uint256",
          "name": "",
          "type": "uint256"
        }
      ],
      "name": "sellerProducts",
      "outputs": [
        {
          "internalType": "uint256",
          "name": "",
          "type": "uint256"
        }
      ],
      "stateMutability": "view",
      "type": "function"
    },
    {
      "inputs": [
        {
          "internalType": "address",
          "name": "",
          "type": "address"
        }
      ],
      "name": "sellerProfiles",
      "outputs": [
        {
          "internalType": "string",
          "name": "businessName",
          "type": "string"
        },
        {
          "internalType": "string",
          "name": "description",
          "type": "string"
        },
        {
          "internalType": "string",
          "name": "email",
          "type": "string"
        },
        {
          "internalType": "string",
          "name": "phone",
          "type": "string"
        },
        {
          "internalType": "string",
          "name": "logo",
          "type": "string"
        },
        {
          "internalType": "uint256",
          "name": "registeredAt",
          "type": "uint256"
        },
        {
          "internalType": "bool",
          "name": "termsAccepted",
          "type": "bool"
        }
      ],
      "stateMutability": "view",
      "type": "function"
    },
    {
      "inputs": [
        {
          "internalType": "address",
          "name": "",
          "type": "address"
        },
        {
          "internalType": "uint256",
          "name": "",
          "type": "uint256"
        }
      ],
      "name": "sellerPurchaseHistory",
      "outputs": [
        {
          "internalType": "uint256",
          "name": "productId",
          "type": "uint256"
        },
        {
          "internalType": "uint256",
          "name": "totalAmount",
          "type": "uint256"
        },
        {
          "internalType": "uint256",
          "name": "basePrice",
          "type": "uint256"
        },
        {
          "internalType": "uint256",
          "name": "timestamp",
          "type": "uint256"
        },
        {
          "internalType": "address",
          "name": "buyer",
          "type": "address"
        },
        {
          "internalType": "address",
          "name": "seller",
          "type": "address"
        },
        {
          "internalType": "bool",
          "name": "isDelivered",
          "type": "bool"
        },
        {
          "components": [
            {
              "internalType": "string",
              "name": "fullName",
              "type": "string"
            },
            {
              "internalType": "string",
              "name": "streetAddress",
              "type": "string"
            },
            {
              "internalType": "string",
              "name": "city",
              "type": "string"
            },
            {
              "internalType": "string",
              "name": "state",
              "type": "string"
            },
            {
              "internalType": "string",
              "name": "country",
              "type": "string"
            },
            {
              "internalType": "string",
              "name": "postalCode",
              "type": "string"
            },
            {
              "internalType": "string",
              "name": "phone",
              "type": "string"
            },
            {
              "internalType": "string",
              "name": "email",
              "type": "string"
            }
          ],
          "internalType": "struct HemShop.ShippingDetails",
          "name": "shippingDetails",
          "type": "tuple"
        }
      ],
      "stateMutability": "view",
      "type": "function"
    },
    {
      "inputs": [
        {
          "internalType": "address",
          "name": "",
          "type": "address"
        }
      ],
      "name": "sellerStatus",
      "outputs": [
        {
          "internalType": "enum HemShop.SellerStatus",
          "name": "",
          "type": "uint8"
        }
      ],
      "stateMutability": "view",
      "type": "function"
    },
    {
      "inputs": [],
      "name": "servicePct",
      "outputs": [
        {
          "internalType": "uint256",
          "name": "",
          "type": "uint256"
        }
      ],
      "stateMutability": "view",
      "type": "function"
    },
    {
      "inputs": [
        {
          "internalType": "address",
          "name": "operator",
          "type": "address"
        },
        {
          "internalType": "bool",
          "name": "approved",
          "type": "bool"
        }
      ],
      "name": "setApprovalForAll",
      "outputs": [],
      "stateMutability": "nonpayable",
      "type": "function"
    },
    {
      "inputs": [],
      "name": "stopImpersonating",
      "outputs": [],
      "stateMutability": "nonpayable",
      "type": "function"
    },
    {
      "inputs": [
        {
          "internalType": "bytes4",
          "name": "interfaceId",
          "type": "bytes4"
        }
      ],
      "name": "supportsInterface",
      "outputs": [
        {
          "internalType": "bool",
          "name": "",
          "type": "bool"
        }
      ],
      "stateMutability": "view",
      "type": "function"
    },
    {
      "inputs": [],
      "name": "symbol",
      "outputs": [
        {
          "internalType": "string",
          "name": "",
          "type": "string"
        }
      ],
      "stateMutability": "view",
      "type": "function"
    },
    {
      "inputs": [
        {
          "internalType": "uint256",
          "name": "tokenId",
          "type": "uint256"
        }
      ],
      "name": "tokenURI",
      "outputs": [
        {
          "internalType": "string",
          "name": "",
          "type": "string"
        }
      ],
      "stateMutability": "view",
      "type": "function"
    },
    {
      "inputs": [
        {
          "internalType": "address",
          "name": "from",
          "type": "address"
        },
        {
          "internalType": "address",
          "name": "to",
          "type": "address"
        },
        {
          "internalType": "uint256",
          "name": "tokenId",
          "type": "uint256"
        }
      ],
      "name": "transferFrom",
      "outputs": [],
      "stateMutability": "nonpayable",
      "type": "function"
    },
    {
      "inputs": [
        {
          "internalType": "address",
          "name": "newOwner",
          "type": "address"
        }
      ],
      "name": "transferOwnership",
      "outputs": [],
      "stateMutability": "nonpayable",
      "type": "function"
    },
    {
      "inputs": [
        {
          "internalType": "uint256",
          "name": "_id",
          "type": "uint256"
        },
        {
          "internalType": "string",
          "name": "_name",
          "type": "string"
        },
        {
          "internalType": "bool",
          "name": "_isActive",
          "type": "bool"
        }
      ],
      "name": "updateCategory",
      "outputs": [],
      "stateMutability": "nonpayable",
      "type": "function"
    },
    {
      "inputs": [
        {
          "internalType": "uint256",
          "name": "productId",
          "type": "uint256"
        },
        {
          "components": [
            {
              "internalType": "string",
              "name": "name",
              "type": "string"
            },
            {
              "internalType": "string",
              "name": "description",
              "type": "string"
            },
            {
              "internalType": "uint256",
              "name": "price",
              "type": "uint256"
            },
            {
              "internalType": "uint256",
              "name": "stock",
              "type": "uint256"
            },
            {
              "internalType": "string[]",
              "name": "colors",
              "type": "string[]"
            },
            {
              "internalType": "string[]",
              "name": "sizes",
              "type": "string[]"
            },
            {
              "internalType": "string[]",
              "name": "images",
              "type": "string[]"
            },
            {
              "internalType": "uint256",
              "name": "categoryId",
              "type": "uint256"
            },
            {
              "internalType": "uint256",
              "name": "subCategoryId",
              "type": "uint256"
            },
            {
              "internalType": "uint256",
              "name": "weight",
              "type": "uint256"
            },
            {
              "internalType": "string",
              "name": "model",
              "type": "string"
            },
            {
              "internalType": "string",
              "name": "brand",
              "type": "string"
            },
            {
              "internalType": "uint256",
              "name": "sku",
              "type": "uint256"
            }
          ],
          "internalType": "struct HemShop.ProductInput",
          "name": "input",
          "type": "tuple"
        }
      ],
      "name": "updateProduct",
      "outputs": [],
      "stateMutability": "nonpayable",
      "type": "function"
    },
    {
      "inputs": [
        {
          "internalType": "address",
          "name": "seller",
          "type": "address"
        },
        {
          "internalType": "enum HemShop.SellerStatus",
          "name": "status",
          "type": "uint8"
        }
      ],
      "name": "updateSellerStatus",
      "outputs": [],
      "stateMutability": "nonpayable",
      "type": "function"
    },
    {
      "inputs": [
        {
          "internalType": "uint256",
          "name": "_id",
          "type": "uint256"
        },
        {
          "internalType": "string",
          "name": "_name",
          "type": "string"
        },
        {
          "internalType": "bool",
          "name": "_isActive",
          "type": "bool"
        }
      ],
      "name": "updateSubCategory",
      "outputs": [],
      "stateMutability": "nonpayable",
      "type": "function"
    },
    {
      "inputs": [
        {
          "internalType": "address",
          "name": "",
          "type": "address"
        }
      ],
      "name": "userProfiles",
      "outputs": [
        {
          "internalType": "string",
          "name": "name",
          "type": "string"
        },
        {
          "internalType": "string",
          "name": "email",
          "type": "string"
        },
        {
          "internalType": "string",
          "name": "avatar",
          "type": "string"
        },
        {
          "internalType": "uint256",
          "name": "registeredAt",
          "type": "uint256"
        },
        {
          "internalType": "bool",
          "name": "isActive",
          "type": "bool"
        }
      ],
      "stateMutability": "view",
      "type": "function"
    },
    {
      "inputs": [
        {
          "internalType": "uint256",
          "name": "",
          "type": "uint256"
        }
      ],
      "name": "usersList",
      "outputs": [
        {
          "internalType": "address",
          "name": "",
          "type": "address"
        }
      ],
      "stateMutability": "view",
      "type": "function"
    },
    {
      "inputs": [],
      "name": "withdraw",
      "outputs": [],
      "stateMutability": "nonpayable",
      "type": "function"
    }
  ],
  "bytecode": "0x6080346200037757601f90601f196001600160401b0362009d153881900385810184168501838111868210176200037c57859282916040528339602094859181010312620003775751936200005362000392565b926007845266048656d53686f760cc1b858501526200007162000392565b60038082526204873760ec1b8783015260008054336001600160a01b031982168117835592989394919392906001600160a01b03167f8be0079c531659141344cd1fd0a4f28419497f9722a3daafe3b4186f6b6457e08580a360019687805580519087821162000363576002548981811c9116801562000358575b858210146200034457908188849311620002f0575b5084908883116001146200028e57869262000282575b5050600019828b1b1c191690881b176002555b83519586116200026e5787548781811c9116801562000263575b838210146200024f5785811162000207575b5081948611600114620001a25750509183949184939462000196575b50501b9160001990841b1c19161790555b600b556040516199629081620003b38239f35b01519250388062000172565b8783528183209493928692918316915b88838310620001ec5750505010620001d3575b505050811b01905562000183565b015160001983861b60f8161c19169055388080620001c5565b858701518855909601959485019487935090810190620001b2565b8884528284208680890160051c820192858a1062000245575b0160051c019088905b8281106200023957505062000156565b85815501889062000229565b9250819262000220565b634e487b7160e01b84526022600452602484fd5b90607f169062000144565b634e487b7160e01b83526041600452602483fd5b01519050388062000117565b90848b9416916002885286882092885b88828210620002d95750508411620002c0575b505050811b016002556200012a565b0151600019838d1b60f8161c19169055388080620002b1565b8385015186558e979095019493840193016200029e565b909150600286528486208880850160051c8201928786106200033a575b918c91869594930160051c01915b8281106200032b57505062000101565b8881558594508c91016200031b565b925081926200030d565b634e487b7160e01b86526022600452602486fd5b90607f1690620000ec565b634e487b7160e01b85526041600452602485fd5b600080fd5b634e487b7160e01b600052604160045260246000fd5b60408051919082016001600160401b038111838210176200037c5760405256fe608080604052600436101561001357600080fd5b60003560e01c908162d64e7614616cdf5750806301ffc9a714616c7157806302ee3a52146169f757806306fdde0314616952578063081812fc14616934578063095ea7b3146167ba5780630e50cee51461677b57806311aa5b34146167575780631385fd921461670357806316d81b381461650b57806317e98548146164935780632148893f14615c1957806323b872dd1461646a57806324d41a031461624d578063317a082714616106578063332d56d7146160455780633c2575d514615f605780633ccfd60b14615f4757806342842e0e14615f1f5780634293e5ce14615e1d57806345de84db14615ddb5780634e213d2014615d74578063502aa3b514615d325780635ad6a58014615cb65780635be2095914615c53578063607eb4e414615c195780636352211e14615be9578063661e1712146153e757806366224d8e146152915780636f2c8599146151e65780636f68ef3a146150905780636f77926b14614eac57806370a0823114614e15578063715018a614614dce5780637acc0b2014614c0f5780637d3978db146149f15780637e8555ed14614371578063868a5461146138105780638da5cb5b146137e75780638f38cc7b146134c45780639196dfcb146133aa57806395d89b41146132c857806397b6f393146131575780639d4a225514612fc85780639fa44dbf14612f80578063a22cb46514612eb5578063a22fb38714612e0a578063a323d29e14612cb7578063af55ed6414612c86578063b27e169714612ba1578063b88d4fde14612b42578063b95a062814612b07578063b9db15b4146128ed578063c1302b3414612895578063c64b8a8f14612856578063c87b56dd146127fc578063ceca737f14612778578063d2bc9d78146124cb578063d637dcfa1461205e578063dadd0a5714611d5e578063dc29868214611b3d578063e01ef6e614611b1f578063e40971e514610c9d578063e585cb2c14610c0d578063e6a93e161461094c578063e985e9c5146108f6578063eb11c434146108c4578063ed90c7b7146108a6578063ee95feaf14610867578063f2fde38b146107b8578063f3052d26146106f8578063f6b22fa7146106175763fdca4ca31461034157600080fd5b346106125760003660031901126106125760088054600060015b828111156105ac575061036d906188fd565b9060009260015b8281111561038e576040518061038a8682616f99565b0390f35b600081815260106020818152604090922060018101546001600160a01b031692913384148061059b575b6103cf575b505050506103ca906188ee565b610374565b604098949851936103df85617027565b8254855283850152604051610402816103fb8160028701617224565b03826170e6565b604085015260405161041b816103fb8160038701617224565b606085015260048201546080850152600582015460a0850152600691610442838201618828565b60c086015261045360078201618828565b60e0860152610463878201618828565b61010086015260405161047d816103fb8160098601617224565b610120860152604051610497816103fb81600a8601617224565b610140860152600b8101546101608601526040516104bc816103fb81600c8601617224565b6101808601526040516104d6816103fb81600d8601617224565b6101a0860152600e8101546101c0860152600f81015460ff9081811615156101e088015281818a1c161515610200880152831c16151561022086015201908154916105208361819a565b9361052e60405195866170e6565b8385526000918252808220918186015b85821061057f5750505050505091816103ca93610240610575940152610564828861894d565b5261056f818761894d565b506188ee565b94903880806103bd565b848360019261058d8761888d565b81520194019101909261053e565b5060ff600f830154821c16156103b8565b600081815260106020819052604090912060018101546001600160a01b031633149190826105ff575b50506105ea575b6105e5906188ee565b61035b565b906105f76105e5916188ee565b9190506105dc565b60ff9250600f0154901c161538806105d5565b600080fd5b3461061257602036600319011261061257610630616ffb565b6106386176a0565b6001600160a01b031660008181526013602052604090205460ff1660048110156106e2576002036106a35780600052601d6020526040600020600160ff198254161790557fd6d6313ffaf8812d569798f401675afaf93c3b25ab54bcca87e1e612ef25c23b600080a2005b60405162461bcd60e51b815260206004820152601760248201527614d95b1b195c881b5d5cdd081899481d995c9a599a5959604a1b6044820152606490fd5b634e487b7160e01b600052602160045260246000fd5b3461061257602036600319011261061257600435600052600e60205260406000206040516107258161707a565b8154815261038a60405191610748836107418160018801617224565b03846170e6565b6020810192835261076c600360ff6002870154169560408401961515875201618ac2565b906060810191825261078081511515618a13565b5192519351151590516107a56040519586958652608060208701526080860190616d0c565b916040850152838203606085015261766c565b34610612576020366003190112610612576107d1616ffb565b6107d96176a0565b6001600160a01b03908116908115610813576000548260018060a01b0319821617600055166000805160206198d6833981519152600080a3005b60405162461bcd60e51b815260206004820152602660248201527f4f776e61626c653a206e6577206f776e657220697320746865207a65726f206160448201526564647265737360d01b6064820152608490fd5b34610612576020366003190112610612576001600160a01b03610888616ffb565b16600052601d602052602060ff604060002054166040519015158152f35b34610612576020366003190112610612576108c260043561861e565b005b346106125760203660031901126106125760206108e76108e2616ffb565b617da9565b6108f460405180926174a0565bf35b346106125760403660031901126106125761090f616ffb565b610917617011565b9060018060a01b03809116600052600760205260406000209116600052602052602060ff604060002054166040519015158152f35b3461061257602036600319011261061257610965616ffb565b600854600060015b82811115610ba4575061097f906188fd565b90600160005b8282111561099b576040518061038a8682616f99565b600082815260106020819052604090912060018101546001600160a01b039081169291908816831480610b93575b6109e1575b505050906109db906188ee565b90610985565b604051926109ee84617027565b815484526020840152604051610a0b816103fb8160028601617224565b6040840152604051610a24816103fb8160038601617224565b606084015260048101546080840152600581015460a0840152610a4960068201618828565b60c0840152610a5a60078201618828565b60e0840152610a6b60088201618828565b610100840152604051610a85816103fb8160098601617224565b610120840152604051610a9f816103fb81600a8601617224565b610140840152600b810154610160840152604051610ac4816103fb81600c8601617224565b610180840152604051610ade816103fb81600d8601617224565b6101a0840152600e8101546101c0840152600f81015460ff9081811615156101e0860152818160081c161515610200860152831c16151561022084015201805490610b288261819a565b91610b3660405193846170e6565b808352602083019160005260206000206000925b828410610b7557505050506102408201526109db91610b6d91610564828861894d565b9086806109ce565b60066020600192610b858561888d565b815201920193019290610b4a565b5060ff600f820154831c16156109c9565b600081815260106020819052604090912060018101546001600160a01b03878116911614919082610bfa575b5050610be5575b610be0906188ee565b61096d565b90610bf2610be0916188ee565b919050610bd7565b60ff9250600f0154901c16158580610bd0565b3461061257604036600319011261061257610c26616ffb565b6001600160a01b03908116600090815260156020526040902080546024359081101561061257610c559161753a565b509061038a825460018401549360028101549160038201548560048401541690610c86600660058601549501617556565b9460405198899860ff8760a01c1696169489617622565b3461061257600319602036820112610612576001600160401b0360043511610612576101a09060043536030112610612576000546001600160a01b031633148015611ae6575b610cec90617de4565b610d06610cfd600480350180617e21565b90501515617e53565b610d17604460043501351515617e96565b610d28606460043501351515617ee1565b60e4600435013515611a9657610104600435013515611a4357610d5361012460043501351515617f2c565b610d74610d6b61014460043501600435600401617e21565b90501515617f78565b610d95610d8c61016460043501600435600401617e21565b90501515617fbc565b610da761018460043501351515618000565b610dc7610dbe60c460043501600435600401618049565b9050151561807e565b610de96005610de060c460043501600435600401618049565b905011156180c3565b60016008540180600855610dfb61810e565b81815233602082015290610e1d610e16600480350180617e21565b3691617124565b6040830152610e39610e16602460043501600435600401617e21565b60608301526044600435013560808301526064600435013560a0830152610e74610e6d608460043501600435600401618049565b36916181b1565b60c0830152610e90610e6d60a460043501600435600401618049565b60e0830152610eac610e6d60c460043501600435600401618049565b61010083015260e46004350135600052600e6020526103fb610edb600160406000200160405192838092617224565b6101208301526101046004350135600052600f6020526103fb610f0b600160406000200160405192838092617224565b610140830152610f29610e1661014460043501600435600401617e21565b610180830152610f47610e1661016460043501600435600401617e21565b6101a083015260043561012481013561016084015261018401356101c083015233156119ff57610f7f610f7982617a5b565b1561841b565b610f8b610f7982617a5b565b33600052600560205260406000206001815401905580600052600460205260406000203360018060a01b0319825416179055803360006000805160206198f68339815191528180a46010602052604060002090825182556001820160018060a01b0360208501511660018060a01b0319825416179055604083015192835160018060401b038111611469576110308161102760028701546171ea565b60028701617c38565b6020601f8211600114611990578192939495600092611985575b50508160011b916000199060031b1c19161760028401555b606081015180519093906001600160401b038111611469576110948161108b60038501546171ea565b60038501617c38565b6020601f821160011461191657819293949560009261190b575b50508160011b916000199060031b1c19161760038201555b6080820151600482015560a082015160058201556006810160c083015160208151916110f28385618269565b01916000526020600020916000905b82821061182e57505050506007810160e083015160208151916111248385618269565b01916000526020600020916000905b82821061175157505050506008810161010083015160208151916111578385618269565b01916000526020600020916000905b82821061166e575050505061012082015180519093906001600160401b038111611469576111a48161119b60098601546171ea565b60098601617c38565b6020601f82116001146115ff5781929394956000926115f4575b50508160011b916000199060031b1c19161760098301555b61014083015180519093906001600160401b0381116114695761120981611200600a8701546171ea565b600a8701617c38565b6020601f821160011461158557819293949560009261157a575b50508160011b916000199060031b1c191617600a8401555b610160810151600b84015561018081015180519093906001600160401b0381116114695761127981611270600c8501546171ea565b600c8501617c38565b6020601f821160011461150b578192939495600092611500575b50508160011b916000199060031b1c191617600c8201555b6101a08201518051906001600160401b038211611469576112dc826112d3600d8601546171ea565b600d8601617c38565b602090601f831160011461148a579180610240949260109460009261147f575b50508160011b916000199060031b1c191617600d8201555b6101c0840151600e820155600f81016113346101e0860151151582617a4a565b6102008501511515815461ff0062ff00006102208901511515871b169260081b169062ffff001916171790550191015190815191600160401b83116114695781548383558084106113e6575b506020019060005260206000206000915b8383106113c8576108c2858060005260176020526040600020600160ff1982541617905533600052601160205260406000206183e6565b60066020826113da60019451866182b2565b01920192019190611391565b8060060290600682040361145357836006026006810485036114535783600052602060002091820191015b81811061141e5750611380565b80600060069255600060018201556000600282015561143f60038201618220565b600060048201556000600582015501611411565b634e487b7160e01b600052601160045260246000fd5b634e487b7160e01b600052604160045260246000fd5b0151905087806112fc565b90600d840160005260206000209160005b601f19851681106114e8575092610240949260019260109583601f198116106114cf575b505050811b01600d820155611314565b015160001960f88460031b161c191690558780806114bf565b9192602060018192868501518155019401920161149b565b015190508580611293565b600c830160005260206000209060005b601f1984168110611562575060019394959683601f19811610611549575b505050811b01600c8201556112ab565b015160001960f88460031b161c19169055858080611539565b9091602060018192858b01518155019301910161151b565b015190508580611223565b600a850160005260206000209060005b601f19841681106115dc575060019394959683601f198116106115c3575b505050811b01600a84015561123b565b015160001960f88460031b161c191690558580806115b3565b9091602060018192858b015181550193019101611595565b0151905085806111be565b6009840160005260206000209060005b601f1984168110611656575060019394959683601f1981161061163d575b505050811b0160098301556111d6565b015160001960f88460031b161c1916905585808061162d565b9091602060018192858b01518155019301910161160f565b80518051906001600160401b038211611469576116958261168f88546171ea565b88617c38565b602090601f83116001146116e15792826001949360209386956000926116d6575b5050600019600383901b1c191690841b1787555b01940191019092611166565b015190508c806116b6565b908660005260206000209160005b601f1985168110611739575083602093600196938796938794601f19811610611720575b505050811b0187556116ca565b015160001960f88460031b161c191690558c8080611713565b919260206001819286850151815501940192016116ef565b80518051906001600160401b038211611469576117728261168f88546171ea565b602090601f83116001146117be5792826001949360209386956000926117b3575b5050600019600383901b1c191690841b1787555b01940191019092611133565b015190508c80611793565b908660005260206000209160005b601f1985168110611816575083602093600196938796938794601f198116106117fd575b505050811b0187556117a7565b015160001960f88460031b161c191690558c80806117f0565b919260206001819286850151815501940192016117cc565b80518051906001600160401b0382116114695761184f8261168f88546171ea565b602090601f831160011461189b579282600194936020938695600092611890575b5050600019600383901b1c191690841b1787555b01940191019092611101565b015190508c80611870565b908660005260206000209160005b601f19851681106118f3575083602093600196938796938794601f198116106118da575b505050811b018755611884565b015160001960f88460031b161c191690558c80806118cd565b919260206001819286850151815501940192016118a9565b0151905085806110ae565b6003830160005260206000209060005b601f198416811061196d575060019394959683601f19811610611954575b505050811b0160038201556110c6565b015160001960f88460031b161c19169055858080611944565b9091602060018192858b015181550193019101611926565b01519050858061104a565b6002850160005260206000209060005b601f19841681106119e7575060019394959683601f198116106119ce575b505050811b016002840155611062565b015160001960f88460031b161c191690558580806119be565b9091602060018192858b0151815501930191016119a0565b606460405162461bcd60e51b815260206004820152602060248201527f4552433732313a206d696e7420746f20746865207a65726f20616464726573736044820152fd5b60405162461bcd60e51b815260206004820152602560248201527f53756243617465676f7279204944206d75737420626520677265617465722074604482015264068616e20360dc1b6064820152608490fd5b60405162461bcd60e51b815260206004820152602260248201527f43617465676f7279204944206d7573742062652067726561746572207468616e604482015261020360f41b6064820152608490fd5b5033600052601660205260ff604060002054168015610ce35750601360205260ff6040600020541660048110156106e257600214610ce3565b34610612576000366003190112610612576020600b54604051908152f35b3461061257602080600319360112610612576001600160401b0360043581811161061257611b6f90369060040161715b565b90611b786176a0565b611b8482511515618961565b611b8f601e546188ee565b9081601e55604051611ba0816170cb565b60008152604051611bb08161707a565b838152858101858152604082019060019586835260608401948552600052600e8852604060002092518355858301905180519086821161146957611bfe82611bf885546171ea565b85617c38565b8990601f8311600114611ced579180611c3d94926003979694600092611ce2575b505060001982881b1c191690891b1790555b51151560028301617a4a565b019051805192831161146957600160401b83116114695785908254848455808510611cc5575b5001906000528460002060005b838110611cb457601e546040518881527f11c167cc9b439f0ad8bec5588159f1b06b813bc38d50c867a41b23b077be2c1a9080611caf818c018b616d0c565b0390a2005b825182820155918601918401611c70565b611cdc908460005285846000209182019101617c21565b87611c63565b015190508c80611c1f565b889291601f19831691856000528c600020928d6000905b828210611d47575050916003989795939185611c3d98969410611d2f575b505050811b019055611c31565b0151600019838a1b60f8161c191690558c8080611d22565b8385015186558d979095019493840193018e611d04565b3461061257600036600319011261061257601e54611d7b8161819a565b611d8860405191826170e6565b818152601f19611d978361819a565b01366020830137611da78261819a565b91611db560405193846170e6565b808352611dd1601f19611dc78361819a565b0160208501618b11565b611dda8161819a565b92611de860405194856170e6565b818452601f19611df78361819a565b01366020860137611e078261819a565b90611e1560405192836170e6565b828252611e218361819a565b92611e346020840194601f190185618b11565b60015b81811115611f70575050611e566040519460808652608086019061766c565b8481036020860152815180825260208201916020808360051b8301019401926000915b838310611f4357505050505083810360408501526020808651928381520195019060005b818110611f2b57505050828403606084015251808452602084019060208160051b86010192916000905b828210611ed45785850386f35b90919293601f19878203018252845190602080835192838152019201906000905b808210611f1357505050602080600192960192019201909291611ec7565b90919260208060019286518152019401920190611ef5565b82511515875260209687019690920191600101611e9d565b9091929394602080611f61600193601f198682030187528951616d0c565b97019301930191939290611e79565b80600052600e602052604060002090611fc3600360405193611f918561707a565b80548552604051611fa9816103fb8160018601617224565b602086015260ff6002820154161515604086015201618ac2565b60608301528151611fde575b611fd991506188ee565b611e37565b8060001981011161145357606082611fd99351611fff60001985018b61894d565b52602081015161201360001985018861894d565b5261202260001984018761894d565b506040810151151561203860001985018c61894d565b52015161204960001983018761894d565b5261205860001982018661894d565b50611fcf565b34610612576060366003190112610612576004356001600160401b0381116106125761208e90369060040161715b565b6024356001600160401b038111610612576120ad90369060040161715b565b6044356001600160401b038111610612576120cc90369060040161715b565b33600052601a60205260ff6040600020541661248c576120ee83511515617e53565b81511561244f576040519161210283617095565b838352602083015260408201524260608201526001608082015233600052601b602052604060002091815192835160018060401b038111611469576121518161214b84546171ea565b84617c38565b6020601f82116001146123e65781929394956000926123db575b50508160011b916000199060031b1c19161781555b602083015180519093906001600160401b038111611469576121b2816121a960018601546171ea565b60018601617c38565b6020601f821160011461236c578192939495600092612361575b50508160011b916000199060031b1c19161760018301555b6040810151805160028401916001600160401b0382116114695761220c82611bf885546171ea565b602090601f83116001146122ef57928260809361225a9796936004966000926122e4575b50508160011b916000199060031b1c19161790555b60608101516003850155015115159101617a4a565b336000908152601a60205260409020805460ff19166001179055601c54600160401b811015611469578060016122939201601c556174ad565b81549060031b9033821b9160018060a01b03901b19161790557f48cac28ad4dc618e15f4c2dd5e97751182f166de97b25618318b2112aa951a2f6040516020815280611caf33946020830190616d0c565b015190508980612230565b90601f198316918460005260206000209260005b81811061234957509361225a979693600496936001938360809810612330575b505050811b019055612245565b015160001960f88460031b161c19169055898080612323565b92936020600181928786015181550195019301612303565b0151905085806121cc565b6001840160005260206000209060005b601f19841681106123c3575060019394959683601f198116106123aa575b505050811b0160018301556121e4565b015160001960f88460031b161c1916905585808061239a565b9091602060018192858b01518155019301910161237c565b01519050858061216b565b8260005260206000209060005b601f1984168110612437575060019394959683601f1981161061241e575b505050811b018155612180565b015160001960f88460031b161c19169055858080612411565b9091602060018192858b0151815501930191016123f3565b60405162461bcd60e51b8152602060048201526015602482015274456d61696c2063616e6e6f7420626520656d70747960581b6044820152606490fd5b60405162461bcd60e51b8152602060048201526017602482015276155cd95c88185b1c9958591e481c9959da5cdd195c9959604a1b6044820152606490fd5b34610612576040366003190112610612576024356001600160401b0381116106125736602382011215610612576001600160401b0360048201351161061257366024826004013560051b8301011161061257600435600052600e60205260ff60026040600020015416156127365760005b8160040135811061254957005b612554601f546188ee565b80601f5561258661256d838560040135602487016189f8565b91906040519261257c8461707a565b8484523691617124565b9160208201928352600435604083015260016060830152600052600f602052604060002091815183555180519060018060401b038211611469576125da826125d160018701546171ea565b60018701617c38565b602090601f83116001146126b85761264c93836126a8979694612632946060946000926126ad575b50508160011b916000199060031b1c19161760018501555b60408101516002850155015115156003809301617a4a565b600435600052600e602052604060002001601f54906183e6565b600080516020619916833981519152601f54612670838660040135602488016189f8565b9290836040519160208352816020840152604083013760006040858301015260408160043595601f80199101168101030190a36188ee565b61253c565b015190508a80612602565b906001850160005260206000209160005b601f198516811061271e5750936001846126329460609461264c986126a89b9a98601f19811610612705575b505050811b01600185015561261a565b015160001960f88460031b161c191690558a80806126f5565b919260206001819286850151815501940192016126c9565b60405162461bcd60e51b815260206004820152601a602482015279506172656e742063617465676f7279206e6f742061637469766560301b6044820152606490fd5b34610612576020366003190112610612576004356127946176a0565b80600052600e6020526127ad6040600020541515618a13565b80600052600e6020526000805160206198b68339815191526127f060406000206002810160ff198154169055604051918291604083526001604084019101617224565b600060208301520390a2005b346106125760203660031901126106125761282061281b600435617a5b565b6176f8565b600060405161282e816170cb565b5261038a60405161283e816170cb565b60008152604051918291602083526020830190616d0c565b34610612576020366003190112610612576001600160a01b03612877616ffb565b166000526016602052602060ff604060002054166040519015158152f35b34610612576040366003190112610612576128ae616ffb565b6001600160a01b0316600090815260116020526040902080546024359190821015610612576020916128df916174de565b90546040519160031b1c8152f35b34610612576020806003193601126106125760043561290a61810e565b50806000526010825261292b60ff600f6040600020015460101c16156184ab565b806000526017825261294460ff60406000205416618466565b600052601081526040600020906040519161295e83617027565b805483526001808201546001600160a01b031683850152604051612989816103fb8160028701617224565b60408501526040516129a2816103fb8160038701617224565b606085015260048201546080850152600582015460a085015260106006926129cb848201618828565b60c08701526129dc60078201618828565b60e08701526129ed60088201618828565b610100870152604051612a07816103fb8160098601617224565b610120870152604051612a21816103fb81600a8601617224565b610140870152600b810154610160870152604051612a46816103fb81600c8601617224565b610180870152604051612a60816103fb81600d8601617224565b6101a0870152600e8101546101c087015260ff600f82015481811615156101e0890152818160081c161515610200890152831c1615156102208701520191825490612aaa8261819a565b93612ab860405195866170e6565b8285526000908152858120868087015b858410612aea576102408a018890526040518281528061038a8185018d616e49565b86918591612af78561888d565b8152019201920191908790612ac8565b346106125760203660031901126106125760206001600160a01b0380612b2b616ffb565b166000526019825260406000205416604051908152f35b3461061257608036600319011261061257612b5b616ffb565b612b63617011565b606435916001600160401b038311610612573660238401121561061257612b976108c2933690602481600401359101617124565b91604435916177eb565b3461061257602080600319360112610612576001600160a01b039081612bc5616ffb565b16600052601481526040600020805490612bde8261819a565b92612bec60405194856170e6565b82845260009182528082208185015b848410612c10576040518061038a8882617362565b600e83600192604051612c2281617043565b85548152848601548382015260028601546040820152600386015460608201528a600487015416608082015260ff600587015460a08d8216818501521c16151560c0820152612c7360068701617556565b60e0820152815201920193019290612bfb565b34610612576020366003190112610612576004356000526017602052602060ff604060002054166040519015158152f35b346106125760208060031936011261061257612def9061038a612cd8616ffb565b612ce0617d72565b5060018060a01b0316918260005260168152612d0360ff60406000205416617d2e565b82600052600d815260406000209260ff600660405195612d228761705f565b604051612d33816103fb8185617224565b8752604051612d49816103fb8160018601617224565b85880152604051612d61816103fb8160028601617224565b6040880152604051612d7a816103fb8160038601617224565b6060880152604051612d93816103fb8160048601617224565b6080880152600581015460a0880152015416151560c08501526000526013815260ff604060002054166012825260406000205460118352612df8612dda6040600020618ac2565b92604051978897608089526080890190617420565b948701906174a0565b6040850152838203606085015261766c565b3461061257602036600319011261061257612e23616ffb565b612e2b6176a0565b6001600160a01b03168015612e7657604060008051602061987683398151915291336000526019602052816000208160018060a01b03198254161790558151903382526020820152a1005b60405162461bcd60e51b8152602060048201526017602482015276496e76616c6964206163636f756e74206164647265737360481b6044820152606490fd5b3461061257604036600319011261061257612ece616ffb565b6024359081151590818303610612576001600160a01b031691338314612f3f57612f11903360005260076020526040600020846000526020526040600020617a4a565b6040519081527f17307eab39ab6107e8899845ad3d59bd9653f200f220920489ca2b5937696c3160203392a3005b60405162461bcd60e51b815260206004820152601960248201527822a9219b99189d1030b8383937bb32903a379031b0b63632b960391b6044820152606490fd5b3461061257604036600319011261061257612f99616ffb565b6001600160a01b03908116600090815260146020526040902080546024359081101561061257610c559161753a565b3461061257602080600319360112610612576004358060005260109182815260ff612fff81600f60406000200154861c16156184ab565b82600052601782526130178160406000205416618466565b60009160005b8460005285825285604060002001805482101561306e576004613041838693618b6c565b5001541615613059575b613054906188ee565b61301d565b92613066613054916188ee565b93905061304b565b5050838561307b8561819a565b9461308960405196876170e6565b808652613098601f199161819a565b018360005b8281106131415750505060009160005b8160005282855282604060002001805482101561312e5760046130d1838993618b6c565b50015416156130e9575b6130e4906188ee565b6130ad565b926131266130e4918360005284875261311161310b8787604060002001618b6c565b5061888d565b61311b828b61894d565b5261056f818a61894d565b9390506130db565b6040518681528061038a8189018b616da8565b613149618b3b565b82828a01015201849061309d565b3461061257604036600319011261061257613170616ffb565b602435906004821015610612576131856176a0565b6001600160a01b03169061319a821515617ce9565b81600052602090601682526131b660ff60406000205416617d2e565b826000526013825260ff6040600020541660048110156106e257811461328e5760028114613228575b907fd8f7bcb2c5cffc294a0aaef719685993d7be95273fb8254803a1563510ccefed918360005260138252613218816040600020617c7f565b61322560405180926174a0565ba2005b826000526013825260ff6040600020541660048110156106e2576001146131df5760405162461bcd60e51b815260048101839052601f60248201527f43616e206f6e6c79207665726966792070656e64696e672073656c6c657273006044820152606490fd5b60405162461bcd60e51b815260048101839052601260248201527114dd185d1d5cc8185b1c9958591e481cd95d60721b6044820152606490fd5b34610612576000366003190112610612576040516000906003546132eb816171ea565b8083526001918083169081156133825750600114613328575b61038a83613314818703826170e6565b604051918291602083526020830190616d0c565b6003600090815260209450917fc2575a0e9e593c00f959f8c92f12db2869c3395a3b0502d05e2516446f71f85b5b82841061336f5750505081019091019061331481613304565b8054858501870152928501928101613356565b61038a955061331493506020915091849260ff191682840152151560051b8201019350613304565b34610612576020366003190112610612576001600160a01b036133cb616ffb565b16600052600d60205261347b6040600020604051906133f5826133ee8184617224565b03836170e6565b604051613409816103fb8160018601617224565b6134b3604051613420816103fb8160028801617224565b6134a5604051613437816103fb8160038a01617224565b613497604051936134568561344f8160048c01617224565b03866170e6565b61348960ff600660058b01549a015416976040519b8c9b60e08d5260e08d0190616d0c565b908b820360208d0152616d0c565b9089820360408b0152616d0c565b908782036060890152616d0c565b908582036080870152616d0c565b9160a0840152151560c08301520390f35b34610612576020366003190112610612576004356001600160401b038111610612576134f490369060040161715b565b600854600060015b82811115613765575061350e906188fd565b90600160005b8282111561352a576040518061038a8682616f99565b816000526010806020526009906103fb6135508360406000200160405192838092617224565b60208151910120875160208901201480613748575b61357c575b505090613576906188ee565b90613514565b836000528060205260406000206103fb61363b6040519461359c86617027565b8354865260018401546001600160a01b031660208701526040516135c7816103fb8160028901617224565b60408701526040516135e0816103fb8160038901617224565b606087015260048401546080870152600584015460a087015261360560068501618828565b60c087015261361660078501618828565b60e087015261362760088501618828565b610100870152604051928380928601617224565b610120840152604051613655816103fb81600a8601617224565b610140840152600b81015461016084015260405161367a816103fb81600c8601617224565b610180840152604051613694816103fb81600d8601617224565b6101a0840152600e8101546101c0840152600f81015460ff9081811615156101e0860152818160081c161515610200860152831c161515610220840152018054906136de8261819a565b916136ec60405193846170e6565b808352602083019160005260206000206000925b82841061372a57505050506102408201526135769161372391610564828861894d565b908661356a565b6006602060019261373a8561888d565b815201920193019290613700565b50836000528060205260ff600f60406000200154821c1615613565565b806000526010806020526103fb613789600960406000200160405192838092617224565b60208151910120855160208701201490816137c8575b506137b3575b6137ae906188ee565b6134fc565b906137c06137ae916188ee565b9190506137a5565b60ff91508260005280602052600f60406000200154901c16158561379f565b34610612576000366003190112610612576000546040516001600160a01b039091168152602090f35b3461061257600319604036820112610612576001600160401b0360243511610612576101a09060243536030112610612576000546001600160a01b0390811633148015614338575b61386190617de4565b6004356000526010602052339060016040600020015416036142e257600435600052601760205261389960ff60406000205416618466565b60043560005260106020526138bc60ff600f6040600020015460101c16156184ab565b6138ce610cfd60046024350180617e21565b6138e16024803501602435600401617e21565b90501561429f576138f9604460243501351515617e96565b61390a606460243501351515617ee1565b61391e608460243501602435600401618049565b9050156142615761393960a460243501602435600401618049565b90501561422457613957610dbe60c460243501602435600401618049565b6139706005610de060c460243501602435600401618049565b60e46024350135156141e4576101046024350135156141a0576139a1610d6b61014460243501602435600401617e21565b6139b9610d8c61016460243501602435600401617e21565b6139cb61012460243501351515617f2c565b6139dd61018460243501351515618000565b6139ec60046024350180617e21565b6004356000908152601060205260409020600201906001600160401b03811161146957613a1d8161214b84546171ea565b600092601f8211600114614137579281929360009261412c575b50508160011b916000199060031b1c19161790555b613a5f6024803501602435600401617e21565b6004356000908152601060205260409020600301906001600160401b03811161146957613a908161214b84546171ea565b600092601f82116001146140c357928192936000926140b8575b50508160011b916000199060031b1c19161790555b600435600052601060205260406000206044602435013560048201556064602435013560058201556006613afd608460243501602435600401618049565b9190920191613b0c8284618269565b60009283526020832090805b838510613fd557613b3360a460243501602435600401618049565b6004356000526010602052600760406000200191613b518284618269565b60009283526020832090805b838510613ef257613b7860c460243501602435600401618049565b6004356000526010602052600860406000200191613b968284618269565b60009283526020832090805b838510613e095760e46024350135600052600e602052613bdb6001604060002001600435600052601060205260096040600020016184ec565b6101046024350135600052600f602052613c0e60016040600020016004356000526010602052600a6040600020016184ec565b613c2361014460243501602435600401617e21565b6004356000908152601060205260409020600c01906001600160401b03811161146957613c548161214b84546171ea565b600092601f8211600114613da05792819293600092613d95575b50508160011b916000199060031b1c19161790555b613c9861016460243501602435600401617e21565b6004356000908152601060205260409020600d01906001600160401b03811161146957613cc98161214b84546171ea565b6000601f8211600114613d3057819293600092613d25575b50508160011b916000199060031b1c19161790555b600435600052601060205260406000206101246024350135600b820155600e6101846024350135910155600080f35b013590508380613ce1565b601f198216938360005260206000209160005b868110613d7d5750836001959610613d63575b505050811b019055613cf6565b0135600019600384901b60f8161c19169055838080613d56565b90926020600181928686013581550194019101613d43565b013590508380613c6e565b826000526020600020906000945b601f1984168610613df157600194955083601f19811610613dd7575b505050811b019055613c83565b0135600019600384901b60f8161c19169055838080613dca565b91602060018192858501358155019301950194613dae565b613e138183617e21565b906001600160401b03821161146957613e3682613e3087546171ea565b87617c38565b600090601f8311600114613e82579282600194936020938695600092613e77575b5050600019600383901b1c191690841b1786555b01930194019391613ba2565b013590508a80613e57565b8560005260206000209160005b601f1985168110613eda575083602093600196938796938794601f19811610613ec0575b505050811b018655613e6b565b0135600019600384901b60f8161c191690558a8080613eb3565b90926020600181928686013581550194019101613e8f565b613efc8183617e21565b906001600160401b03821161146957613f1982613e3087546171ea565b600090601f8311600114613f65579282600194936020938695600092613f5a575b5050600019600383901b1c191690841b1786555b01930194019391613b5d565b013590508a80613f3a565b8560005260206000209160005b601f1985168110613fbd575083602093600196938796938794601f19811610613fa3575b505050811b018655613f4e565b0135600019600384901b60f8161c191690558a8080613f96565b90926020600181928686013581550194019101613f72565b613fdf8183617e21565b906001600160401b03821161146957613ffc82613e3087546171ea565b600090601f831160011461404857928260019493602093869560009261403d575b5050600019600383901b1c191690841b1786555b01930194019391613b18565b013590508a8061401d565b8560005260206000209160005b601f19851681106140a0575083602093600196938796938794601f19811610614086575b505050811b018655614031565b0135600019600384901b60f8161c191690558a8080614079565b90926020600181928686013581550194019101614055565b013590508380613aaa565b826000526020600020906000945b601f198416861061411457600194955083601f198116106140fa575b505050811b019055613abf565b0135600019600384901b60f8161c191690558380806140ed565b916020600181928585013581550193019501946140d1565b013590508380613a37565b826000526020600020906000945b601f198416861061418857600194955083601f1981161061416e575b505050811b019055613a4c565b0135600019600384901b60f8161c19169055838080614161565b91602060018192858501358155019301950194614145565b60405162461bcd60e51b815260206004820152601c60248201527b5375622d63617465676f72792063616e6e6f7420626520656d70747960201b6044820152606490fd5b60405162461bcd60e51b815260206004820152601860248201527743617465676f72792063616e6e6f7420626520656d70747960401b6044820152606490fd5b60405162461bcd60e51b815260206004820152601560248201527453697a65732063616e6e6f7420626520656d70747960581b6044820152606490fd5b60405162461bcd60e51b8152602060048201526016602482015275436f6c6f72732063616e6e6f7420626520656d70747960501b6044820152606490fd5b60405162461bcd60e51b815260206004820152601b60248201527a4465736372697074696f6e2063616e6e6f7420626520656d70747960281b6044820152606490fd5b60405162461bcd60e51b815260206004820152602860248201527f4f6e6c79207468652073656c6c65722063616e20757064617465207468656972604482015267081c1c9bd91d58dd60c21b6064820152608490fd5b5033600052601660205260ff6040600020541680156138585750601360205260ff6040600020541660048110156106e257600214613858565b346106125760a0366003190112610612576004356001600160401b038111610612576143a190369060040161715b565b6024356001600160401b038111610612576143c090369060040161715b565b6044356001600160401b038111610612576143df90369060040161715b565b6064356001600160401b038111610612576143fe90369060040161715b565b906084356001600160401b0381116106125761441e90369060040161715b565b6000549093906001600160a01b031633036149a0575b8451156149625761444782511515617ba7565b61445383511515617be4565b604051946144608661705f565b855260208501526040840152606083015260808201524260a0820152600160c082015233600052600d6020526040600020815191825160018060401b038111611469576144b181611bf885546171ea565b6020601f82116001146148fa57819293946000926148ef575b50508160011b916000199060031b1c19161782555b602081015180519092906001600160401b038111611469576145118161450860018501546171ea565b60018501617c38565b6020601f82116001146148815781929394600092614876575b50508160011b916000199060031b1c19161760018201555b604082015180519092906001600160401b038111611469576145748161456b60028601546171ea565b60028601617c38565b6020601f821160011461480857819293946000926147fd575b50508160011b916000199060031b1c19161760028301555b606081015180519092906001600160401b038111611469576145ce8161108b60038501546171ea565b6020601f821160011461478f5781929394600092614784575b50508160011b916000199060031b1c19161760038201555b6080820151805190929060048301906001600160401b0381116114695761462a8161214b84546171ea565b6020601f82116001146147145791816006949260c09461467698600092614709575b50508160011b916000199060031b1c19161790555b60a08101516005850155015115159101617a4a565b336000818152601660205260408120805460ff19166001179055546001600160a01b0316036146ff576146b460025b60136020526040600020617c7f565b6146bd33619807565b156146f1575b6040514281527fa1a1a78ff3033d5ee8393372052aeb2a16bbb347a29f3780370e9506c109e37260203392a2005b6146fa33617c97565b6146c3565b6146b460016146a5565b01519050888061464c565b601f198216958360005260206000209660005b81811061476c5750926146769760c09593600193836006999710614753575b505050811b019055614661565b015160001960f88460031b161c19169055888080614746565b83830151895560019098019760209384019301614727565b0151905084806145e7565b6003830160005260206000209060005b601f19841681106147e55750600193949583601f198116106147cc575b505050811b0160038201556145ff565b015160001960f88460031b161c191690558480806147bc565b9091602060018192858a01518155019301910161479f565b01519050848061458d565b6002840160005260206000209060005b601f198416811061485e5750600193949583601f19811610614845575b505050811b0160028301556145a5565b015160001960f88460031b161c19169055848080614835565b9091602060018192858a015181550193019101614818565b01519050848061452a565b6001830160005260206000209060005b601f19841681106148d75750600193949583601f198116106148be575b505050811b016001820155614542565b015160001960f88460031b161c191690558480806148ae565b9091602060018192858a015181550193019101614891565b0151905084806144ca565b8360005260206000209060005b601f198416811061494a5750600193949583601f19811610614931575b505050811b0182556144df565b015160001960f88460031b161c19169055848080614924565b9091602060018192858a015181550193019101614907565b60405162461bcd60e51b8152602060048201526016602482015275109d5cda5b995cdcc81b985b59481c995c5d5a5c995960521b6044820152606490fd5b33600052601660205260ff60406000205416156144345760405162461bcd60e51b8152602060048201526012602482015271105b1c9958591e481c9959da5cdd195c995960721b6044820152606490fd5b34610612576040366003190112610612576001600160401b0360043560243582811161061257614a2590369060040161715b565b614a2d6176a0565b81600052602090600e825260406000205415614bca57614a4f815115156189ad565b614a5a601f546188ee565b80601f5560405190614a6b8261707a565b80825283820183815260408301908682526060840192600190818552600052600f875260406000209451855580850191518051998a1161146957614ab38a611bf885546171ea565b8790601f8b11600114614b4d5799808060039694614b09999896946000805160206199168339815191529c9d9e600094614b42575b50501b9160001990871b1c19161790555b5160028401555115159101617a4a565b83600052600e8352614b256003604060002001601f54906183e6565b601f5492614b3d604051928284938452830190616d0c565b0390a3005b015192508e80614ae8565b9990601f1982169a84600052896000209b60005b818110614bb557509b60039694928492614b099a9997956000805160206199168339815191529d9e9f10614b9d575b505050811b019055614af9565b015160001983891b60f8161c191690558c8080614b90565b838301518e559c85019c928b01928b01614b61565b60405162461bcd60e51b815260048101839052601e60248201527f506172656e742063617465676f727920646f6573206e6f7420657869737400006044820152606490fd5b3461061257602036600319011261061257600435600052601060205260406000208054600160a01b600190036001830154169160405180806002840190614c5591617224565b03614c6090826170e6565b60405180614c718160038601617224565b03614c7c90826170e6565b600483015460058401549060405180806009880190614c9a91617224565b03614ca590826170e6565b6040519081614cb781600a8a01617224565b03614cc290836170e6565b600b87015492604051948580600c8b0190614cdc91617224565b03614ce790876170e6565b6040519687614cf981600d8d01617224565b03614d0490896170e6565b600e8a015499600f0154986040519c8d9c8d5260208d01528b6101e06040819201528c01614d3191616d0c565b8b810360608d0152614d4291616d0c565b9160808b015260a08a015288810360c08a0152614d5e91616d0c565b87810360e0890152614d6f91616d0c565b90610100870152858103610120870152614d8891616d0c565b848103610140860152614d9a91616d0c565b9161016084015260ff811615156101808401528060081c60ff1615156101a084015260101c60ff1615156101c08301520390f35b3461061257600036600319011261061257614de76176a0565b600080546001600160a01b0319811682556001600160a01b03166000805160206198d68339815191528280a3005b34610612576020366003190112610612576001600160a01b03614e36616ffb565b168015614e555760005260056020526020604060002054604051908152f35b60405162461bcd60e51b815260206004820152602960248201527f4552433732313a2061646472657373207a65726f206973206e6f7420612076616044820152683634b21037bbb732b960b91b6064820152608490fd5b346106125760208060031936011261061257614ec6616ffb565b604051614ed281617095565b61038a6060928383528385840152836040840152600084840152600060808094015260018060a01b03169182600052601a855260ff6040600020541693846000146150375783600052601b8652604060002060ff600460405192614f3584617095565b604051614f46816103fb8185617224565b8452604051614f5c816103fb8160018601617224565b8a850152604051614f74816103fb8160028601617224565b6040850152600381015485850152015416151583820152935b6000526016865260ff604060002054168060001461502f576013875260ff60406000205416925b61500c6040519889981515895282818a0152614ff7614fdf895160a0868d01526101208c0190616d0c565b9189015191607f1992838c83030160a08d0152616d0c565b906040890151908a83030160c08b0152616d0c565b958381015160e089015201511515610100870152151560408601528401906174a0565b600092614fb4565b60405161504381617095565b60405161504f816170cb565b600081528152604051615061816170cb565b6000815287820152604051615075816170cb565b60008152604082015260008282015260008382015293614f8d565b3461061257600036600319011261061257600080601c54905b81811061517557506150ba8261819a565b916150c860405193846170e6565b8083526150d7601f199161819a565b01602090368285013760009060005b8381106150fb576040518061038a87826174f6565b615104816174ad565b60018060a01b0391549060031b1c1680600052601a835260ff80604060002054169081615161575b50615141575b5061513c906188ee565b6150e6565b8361515a9161515461513c94968961894d565b526188ee565b9290615132565b90506016845260406000205416158761512c565b61517e816174ad565b60018060a01b0391549060031b1c166000526020601a815260ff806040600020541691826151d1575b50506151bc575b6151b7906188ee565b6150a9565b916151c96151b7916188ee565b9290506151ae565b601691925052604060002054161584806151a7565b3461061257602036600319011261061257600435600052600f60205260406000206040516152138161707a565b815481526040519061522c826133ee8160018701617224565b6020810191825260ff6003600285015494604084019586520154169060608101911515825261525d81511515618a79565b5191519251905115156152826040519485948552608060208601526080850190616d0c565b91604084015260608301520390f35b346106125761529f366171ab565b6152aa9291926176a0565b81600052602092600e84526152c56040600020541515618a13565b6152d181511515618961565b6000838152600e855260409020815194906001908101906001600160401b038711611469576153048761214b84546171ea565b82601f881160011461537257968080600e9594936000805160206198b6833981519152999a600093615367575b501b916000199060031b1c19161790555b8560005252615358826002604060002001617a4a565b611caf60405192839283618a59565b88015192508b615331565b96601f1981169783600052846000209860005b8181106153d25750988291600e969594936000805160206198b68339815191529a9b106153b9575b5050811b019055615342565b87015160001960f88460031b161c1916905589806153ad565b878301518b5599840199918601918601615385565b600319604036820112610612576024906001600160401b03823511610612576101009082353603011261061257600260015414615ba5576002600155600435600052601760205261543f60ff60406000205416618466565b600435600052601060205261546260ff600f6040600020015460101c16156184ab565b600435600052601060205260018060a01b0360016040600020015416600052601360205260ff604060002054166004811015615b9057600203615b5357600435600052601060205260056040600020015415615b1557600435600052601060205260ff600f6040600020015416615ad457600435600052601060205260018060a01b03600160406000200154163314615a9257615503600482350180617e21565b905015615a595761551b818035018235600401617e21565b905015615a1b5761553460448235018235600401617e21565b9050156159e75761554d60648235018235600401617e21565b9050156159b25761556660848235018235600401617e21565b90501561597b5761557f60a48235018235600401617e21565b905015615940576155a461559b60c48335018335600401617e21565b90501515617be4565b6155c26155b960e48335018335600401617e21565b90501515617ba7565b6004356000526010602052600460406000200154908134106159075760043560005260106020526005604060002001805480156158f257600019019055600435600052601060205260406000206005810154156158de575b600101546040516001600160a01b03909116919061563781617043565b6004823501356001600160401b0381116106125761565c90600436918535010161715b565b81526001600160401b0382358301351161061257615683368335808501350160040161715b565b60208201528135604401356001600160401b038111610612576156ad90600436918535010161715b565b60408201528135606401356001600160401b038111610612576156d790600436918535010161715b565b60608201528135608401356001600160401b0381116106125761570190600436918535010161715b565b6080820152813560a401356001600160401b0381116106125761572b90600436918535010161715b565b60a0820152813560c401356001600160401b0381116106125761575590600436918535010161715b565b60c0820152813560e40135906001600160401b038211610612576157836157ee92600436918635010161715b565b60e08201526040519061579582617043565b60043582528560208301528560408301524260608301523360808301528460a0830152600060c083015260e08201523360005260146020526157db816040600020618b88565b8360005260156020526040600020618b88565b81600052601260205260406000208054918483018093116158ca57505560405182815282602082015242604082015233907f45280c7ac9cec77edd454e39e1641a3e22619146cf074a4239beee86a7c07edc606060043592a460016009540160095561585a8134618b2e565b806158ba575b50600435600052601060205260018060a01b03600160406000200154169060405190815242602082015233907fbe6177108f4df43c5d7be79cb219c969fc97915bbdb4b56d14d391dcdcc16060604060043592a460018055005b6158c49033619771565b81615860565b634e487b7160e01b60009081526011600452fd5b600f8101805460ff1916600117905561561a565b82634e487b7160e01b60005260116004526000fd5b60649060126040519162461bcd60e51b83526020600484015282015271496e73756666696369656e742066756e647360701b6044820152fd5b60649060146040519162461bcd60e51b83526020600484015282015273141bdcdd185b0818dbd919481c995c5d5a5c995960621b6044820152fd5b60649060106040519162461bcd60e51b8352602060048401528201526f10dbdd5b9d1c9e481c995c5d5a5c995960821b6044820152fd5b606490600e6040519162461bcd60e51b8352602060048401528201526d14dd185d19481c995c5d5a5c995960921b6044820152fd5b606490600d6040519162461bcd60e51b8352602060048401528201526c10da5d1e481c995c5d5a5c9959609a1b6044820152fd5b60649060176040519162461bcd60e51b8352602060048401528201527614dd1c99595d081859191c995cdcc81c995c5d5a5c9959604a1b6044820152fd5b60649060126040519162461bcd60e51b83526020600484015282015271119d5b1b081b985b59481c995c5d5a5c995960721b6044820152fd5b606490601b6040519162461bcd60e51b8352602060048401528201527a10d85b9b9bdd08189d5e481e5bdd5c881bdddb881c1c9bd91d58dd602a1b6044820152fd5b606490601a6040519162461bcd60e51b83526020600484015282015279141c9bd91d58dd081a5cc8185b1c9958591e481cdbdb191bdd5d60321b6044820152fd5b60649060176040519162461bcd60e51b8352602060048401528201527650726f64756374206973206f7574206f662073746f636b60481b6044820152fd5b60649060166040519162461bcd60e51b8352602060048401528201527514d95b1b195c881a5cc81b9bdd081d995c9a599a595960521b6044820152fd5b50634e487b7160e01b60009081526021600452fd5b606490601f6040519162461bcd60e51b8352602060048401528201527f5265656e7472616e637947756172643a207265656e7472616e742063616c6c006044820152fd5b34610612576020366003190112610612576020615c0760043561773f565b6040516001600160a01b039091168152f35b34610612576020366003190112610612576001600160a01b03615c3a616ffb565b1660005260126020526020604060002054604051908152f35b3461061257602036600319011261061257600435615c6f6176a0565b60648111615c7c57600b55005b60405162461bcd60e51b8152602060048201526012602482015271496e76616c69642070657263656e7461676560701b6044820152606490fd5b3461061257600036600319011261061257604051600c805480835260009182526020808401939260008051602061985683398151915292915b828210615d125761038a85615d06818903826170e6565b604051918291826174f6565b83546001600160a01b031686529485019460019384019390910190615cef565b3461061257602036600319011261061257600435601c5481101561061257615d5b6020916174ad565b905460405160039290921b1c6001600160a01b03168152f35b3461061257600036600319011261061257615d8d6176a0565b60018060a01b0360005416806000526016602052604060002090815460ff811615615db457005b6108c292600160ff1980931617905560136020526002604060002091825416179055617c97565b34610612576020366003190112610612576001600160a01b03615dfc616ffb565b166000526013602052602060ff604060002054166108f460405180926174a0565b346106125760208060031936011261061257615e37616ffb565b615e3f617d72565b506001600160a01b03166000818152601683526040902054615e639060ff16617d2e565b600052600d815260406000209060ff600660405193615e818561705f565b604051615e92816103fb8185617224565b8552604051615ea8816103fb8160018601617224565b84860152604051615ec0816103fb8160028601617224565b6040860152604051615ed9816103fb8160038601617224565b6060860152604051615ef2816103fb8160048601617224565b6080860152600581015460a0860152015416151560c083015261038a604051928284938452830190617420565b34610612576108c2615f3036617176565b9060405192615f3e846170cb565b600084526177eb565b34610612576000366003190112610612576108c2619264565b3461061257602080600319360112610612576001600160a01b039081615f84616ffb565b16600052601581526040600020805490615f9d8261819a565b92615fab60405194856170e6565b82845260009182528082208185015b848410615fcf576040518061038a8882617362565b600e83600192604051615fe181617043565b85548152848601548382015260028601546040820152600386015460608201528a600487015416608082015260ff600587015460a08d8216818501521c16151560c082015261603260068701617556565b60e0820152815201920193019290615fba565b34610612576020366003190112610612576001600160a01b03616066616ffb565b16600052601b6020526160d9604060002060405190616089826133ee8184617224565b60405161609d816103fb8160018601617224565b6160f56040516160b4816103fb8160028801617224565b6160e760ff60046003870154960154169360405197889760a0895260a0890190616d0c565b908782036020890152616d0c565b908582036040870152616d0c565b916060840152151560808301520390f35b3461061257616114366171ab565b61611f9291926176a0565b81600052602092600f845261613a6040600020541515618a79565b616146815115156189ad565b6000838152600f855260409020815194906001908101906001600160401b038711611469576161798761214b84546171ea565b82601f88116001146161d857968080600f959493600080516020619936833981519152999a6000936161cd575b501b916000199060031b1c19161790555b8560005252615358826003604060002001617a4a565b88015192508b6161a6565b96601f1981169783600052846000209860005b8181106162385750988291600f969594936000805160206199368339815191529a9b1061621f575b5050811b0190556161b7565b87015160001960f88460031b161c191690558980616213565b878301518b55998401999186019186016161eb565b3461061257604036600319011261061257602460006004358235825b826000526010602081815281604060002001805484101561645f5761628f848692618b6c565b5054146162a65750506162a1906188ee565b616269565b91939450916000526018815260ff9384604060002054161561642357806000528282526162d98484604060002001618b6c565b50600190810154909590336001600160a01b0391821614908115616415575b50156163c0578160005283835260046163178686604060002001618b6c565b50015416616383579180600494926163389460005252604060002001618b6c565b5001805460ff1916821790555b1561634c57005b60649060106040519162461bcd60e51b8352602060048401528201526f14995d9a595dc81b9bdd08199bdd5b9960821b6044820152fd5b60405162461bcd60e51b8152600481018390526016818801527514995d9a595dc8185b1c9958591e4819195b195d195960521b6044820152606490fd5b60405162461bcd60e51b8152600481018490526028818901527f4f6e6c79207265766965776572206f72206f776e65722063616e2064656c6574604482015267652072657669657760c01b6064820152608490fd5b6000541633149050886162f8565b60405162461bcd60e51b8152600481018390526015818801527414995d9a595dc8191bd95cc81b9bdd08195e1a5cdd605a1b6044820152606490fd5b505050505050616345565b34610612576108c261647b36617176565b9161648e6164898433617886565b617789565b61794e565b34610612576020366003190112610612576004356164af6176a0565b80600052600f6020526164c86040600020541515618a79565b80600052600f6020526000805160206199368339815191526127f060406000206003810160ff198154169055604051918291604083526001604084019101617224565b3461061257606036600319011261061257602480356004356044356001600160401b0381116106125761654290369060040161715b565b90806000526020916010835260018060a01b036001604060002001541633146166b057831515806166a5575b15616661578051156166235790601092916001600a54019081600a55616592618b3b565b958287523385880152604087015260608601524260a0860152600052601882526040600020600160ff198254161790556000525260106040600020018054600160401b81101561660e576165eb91600182018155618b6c565b6165f9576108c292506182b2565b82634e487b7160e01b60005260006004526000fd5b83634e487b7160e01b60005260416004526000fd5b60405162461bcd60e51b81526004810184905260178187015276436f6d6d656e742063616e6e6f7420626520656d70747960481b6044820152606490fd5b60405162461bcd60e51b815260048101849052601e818701527f526174696e67206d757374206265206265747765656e203120616e64203500006044820152606490fd5b50600584111561656e565b60405162461bcd60e51b8152600481018490526026818701527f53656c6c65722063616e6e6f7420726576696577207468656972206f776e20706044820152651c9bd91d58dd60d21b6064820152608490fd5b346106125760003660031901126106125761671c6176a0565b336000526019602052604060002060018060a01b031981541690556000805160206198768339815191526040805133815260006020820152a1005b34610612576040366003190112610612576108c2616773617011565b6004356193fa565b34610612576020366003190112610612576001600160a01b0361679c616ffb565b16600052601a602052602060ff604060002054166040519015158152f35b34610612576040366003190112610612576167d3616ffb565b602435906001600160a01b0380806167ea8561773f565b169216918083146168e5578033149081156168c0575b501561685557600083815260066020526040902080546001600160a01b0319168317905561682d8361773f565b167f8c5be1e5ebec7d5bd14f71427d1e84f3dd0314c0f7b2291e5b200ac8c7c3b925600080a4005b60405162461bcd60e51b815260206004820152603d60248201527f4552433732313a20617070726f76652063616c6c6572206973206e6f7420746f60448201527f6b656e206f776e6572206f7220617070726f76656420666f7220616c6c0000006064820152608490fd5b9050600052600760205260406000203360005260205260ff6040600020541684616800565b60405162461bcd60e51b815260206004820152602160248201527f4552433732313a20617070726f76616c20746f2063757272656e74206f776e656044820152603960f91b6064820152608490fd5b34610612576020366003190112610612576020615c07600435617762565b3461061257600036600319011261061257604051600090600254616975816171ea565b808352600191808316908115613382575060011461699d5761038a83613314818703826170e6565b6002600090815260209450917f405787fa12a823e0f2b7631cc41b3ba8828b3321ca811111fa75cd3aa3bb5ace5b8284106169e45750505081019091019061331481613304565b80548585018701529285019281016169cb565b346106125760003660031901126106125760088054600060015b82811115616c305750616a23906188fd565b9060009260015b82811115616a40576040518061038a8682616f99565b8060005260106020818152604060002091600f8301549060ff938483831c161580616a7a575b505050505050616a75906188ee565b616a2a565b60409a969a5195616a8a87617027565b8254875260018301546001600160a01b031686880152604051616ab4816103fb8160028801617224565b6040880152604051616acd816103fb8160038801617224565b606088015260048301546080880152600583015460a0880152600694616af4868501618828565b60c0890152616b0560078501618828565b60e0890152616b158a8501618828565b610100890152604051616b2f816103fb8160098901617224565b610120890152604051616b49816103fb81600a8901617224565b610140890152600b840154610160890152604051616b6e816103fb81600c8901617224565b610180890152604051616b88816103fb81600d8901617224565b6101a0890152600e8401546101c089015281811615156101e0890152891c161515610200870152156102208601520190815491616bc48361819a565b93616bd260405195866170e6565b8385526000918252808220918186015b858210616c14575050505050509181616a7593610240616c08940152610564828861894d565b94908680808080616a66565b8483600192616c228761888d565b815201940191019092616be2565b8060005260ff601080602052600f60406000200154901c1615616c5c575b616c57906188ee565b616a11565b90616c69616c57916188ee565b919050616c4e565b346106125760203660031901126106125760043563ffffffff60e01b8116809103610612576020906380ac58cd60e01b8114908115616cce575b8115616cbd575b506040519015158152f35b6301ffc9a760e01b14905082616cb2565b635b5e139f60e01b81149150616cab565b34610612576020366003190112610612576020906004356000526018825260ff6040600020541615158152f35b919082519283825260005b848110616d38575050826000602080949584010152601f8019910116010190565b602081830181015184830182015201616d17565b908082519081815260208091019281808460051b8301019501936000915b848310616d7a5750505050505090565b9091929394958480616d98600193601f198682030187528a51616d0c565b9801930193019194939290616d6a565b908082519081815260208091019281808460051b8301019501936000915b848310616dd65750505050505090565b9091929394958480600192601f1985820301865289519081518152848060a01b0383830151168382015260408083015190820152616e236060808401519060c08091850152830190616d0c565b9160808082015115159083015260a0809101519101529801930193019194939290616dc6565b90616f96918051825260018060a01b036020820151166020830152616f50616f3c616f1d616f09616ef5616ee1616ecf616ea9616e9760408a015160408c61026091829101528c0190616d0c565b60608a01518b820360608d0152616d0c565b608089015160808b015260a089015160a08b015260c08901518a820360c08c0152616d4c565b60e088015189820360e08b0152616d4c565b6101008088015190898303908a0152616d4c565b610120808701519088830390890152616d0c565b610140808601519087830390880152616d0c565b6101608085015190860152610180808501519086830390870152616d0c565b6101a0808401519085830390860152616d0c565b916101c080830151908201526101e08083015115159082015261020080830151151590820152610220808301511515908201526102408092015191818403910152616da8565b90565b602080820190808352835180925260408301928160408460051b8301019501936000915b848310616fcd5750505050505090565b9091929394958480616feb600193603f198682030187528a51616e49565b9801930193019194939290616fbd565b600435906001600160a01b038216820361061257565b602435906001600160a01b038216820361061257565b61026081019081106001600160401b0382111761146957604052565b61010081019081106001600160401b0382111761146957604052565b60e081019081106001600160401b0382111761146957604052565b608081019081106001600160401b0382111761146957604052565b60a081019081106001600160401b0382111761146957604052565b60c081019081106001600160401b0382111761146957604052565b602081019081106001600160401b0382111761146957604052565b601f909101601f19168101906001600160401b0382119082101761146957604052565b6001600160401b03811161146957601f01601f191660200190565b92919261713082617109565b9161713e60405193846170e6565b829481845281830111610612578281602093846000960137010152565b9080601f8301121561061257816020616f9693359101617124565b6060906003190112610612576001600160a01b0390600435828116810361061257916024359081168103610612579060443590565b9060606003198301126106125760043591602435906001600160401b038211610612576171da9160040161715b565b9060443580151581036106125790565b90600182811c9216801561721a575b602083101461720457565b634e487b7160e01b600052602260045260246000fd5b91607f16916171f9565b9060009291805491617235836171ea565b9182825260019384811690816000146172975750600114617257575b50505050565b90919394506000526020928360002092846000945b838610617283575050505001019038808080617251565b80548587018301529401938590820161726c565b9294505050602093945060ff191683830152151560051b01019038808080617251565b616f969160e061735161733f61732d61731b6173096172f76172e58951610100808b528a0190616d0c565b60208a015189820360208b0152616d0c565b604089015188820360408a0152616d0c565b60608801518782036060890152616d0c565b60808701518682036080880152616d0c565b60a086015185820360a0870152616d0c565b60c085015184820360c0860152616d0c565b9201519060e0818403910152616d0c565b602080820190808352835180925260409283810182858560051b8401019601946000925b858410617397575050505050505090565b90919293949596858061740f600193603f198682030188528b51805182528381015184830152878101518883015260608082015190830152858060a01b0360808181840151169084015260a09081830151169083015260c08082015115159083015260e08091015191610100809282015201906172ba565b990194019401929594939190617386565b9060c08061748b617479617467617455617443885160e0895260e0890190616d0c565b602089015188820360208a0152616d0c565b60408801518782036040890152616d0c565b60608701518682036060880152616d0c565b60808601518582036080870152616d0c565b9360a081015160a08501520151151591015290565b9060048210156106e25752565b601c548110156174c857601c60005260206000200190600090565b634e487b7160e01b600052603260045260246000fd5b80548210156174c85760005260206000200190600090565b6020908160408183019282815285518094520193019160005b82811061751d575050505090565b83516001600160a01b03168552938101939281019260010161750f565b80548210156174c857600052600e602060002091020190600090565b90600760e060409361761e85519161756d83617043565b61074183978051617582816103fb8187617224565b85528051617597816103fb8160018801617224565b602086015280516175af816103fb8160028801617224565b8186015280516175c6816103fb8160038801617224565b606086015280516175de816103fb8160048801617224565b608086015280516175f6816103fb8160058801617224565b60a0860152805161760e816103fb8160068801617224565b60c0860152518096819301617224565b0152565b95929091616f969897959492875260208701526040860152606085015260018060a01b0380921660808501521660a0830152151560c0820152610100908160e082015201906172ba565b90815180825260208080930193019160005b82811061768c575050505090565b83518552938101939281019260010161767e565b6000546001600160a01b031633036176b457565b606460405162461bcd60e51b815260206004820152602060248201527f4f776e61626c653a2063616c6c6572206973206e6f7420746865206f776e65726044820152fd5b156176ff57565b60405162461bcd60e51b8152602060048201526018602482015277115490cdcc8c4e881a5b9d985b1a59081d1bdad95b88125160421b6044820152606490fd5b6000908152600460205260409020546001600160a01b0316616f968115156176f8565b61776e61281b82617a5b565b6000908152600660205260409020546001600160a01b031690565b1561779057565b60405162461bcd60e51b815260206004820152602d60248201527f4552433732313a2063616c6c6572206973206e6f7420746f6b656e206f776e6560448201526c1c881bdc88185c1c1c9bdd9959609a1b6064820152608490fd5b9061780f9392916177ff6164898433617886565b61780a83838361794e565b617aa8565b1561781657565b60405162461bcd60e51b81528061782f60048201617833565b0390fd5b60809060208152603260208201527f4552433732313a207472616e7366657220746f206e6f6e20455243373231526560408201527131b2b4bb32b91034b6b83632b6b2b73a32b960711b60608201520190565b906001600160a01b03808061789a8461773f565b169316918383149384156178cd575b5083156178b7575b50505090565b6178c391929350617762565b16143880806178b1565b909350600052600760205260406000208260005260205260ff6040600020541692386178a9565b156178fb57565b60405162461bcd60e51b815260206004820152602560248201527f4552433732313a207472616e736665722066726f6d20696e636f72726563742060448201526437bbb732b960d91b6064820152608490fd5b906179769161795c8461773f565b6001600160a01b03939184169284929091831684146178f4565b169182156179f957816179939161798c8661773f565b16146178f4565b6000805160206198f6833981519152600084815260066020526040812060018060a01b03199081815416905583825260056020526040822060001981540190558482526040822060018154019055858252600460205284604083209182541617905580a4565b60405162461bcd60e51b8152602060048201526024808201527f4552433732313a207472616e7366657220746f20746865207a65726f206164646044820152637265737360e01b6064820152608490fd5b9060ff801983541691151516179055565b6000908152600460205260409020546001600160a01b0316151590565b3d15617aa3573d90617a8982617109565b91617a9760405193846170e6565b82523d6000602084013e565b606090565b91926000929190813b15617b9d57602091617afe9185604051958680958194630a85bd0160e11b9b8c845233600485015260018060a01b0380951660248501526044840152608060648401526084830190616d0c565b0393165af190829082617b4e575b5050617b4057617b1a617a78565b80519081617b3b5760405162461bcd60e51b81528061782f60048201617833565b602001fd5b6001600160e01b0319161490565b909192506020813d8211617b95575b81617b6a602093836170e6565b81010312617b915751906001600160e01b031982168203617b8e5750903880617b0c565b80fd5b5080fd5b3d9150617b5d565b5050505050600190565b15617bae57565b60405162461bcd60e51b815260206004820152600e60248201526d115b585a5b081c995c5d5a5c995960921b6044820152606490fd5b15617beb57565b60405162461bcd60e51b815260206004820152600e60248201526d141a1bdb99481c995c5d5a5c995960921b6044820152606490fd5b818110617c2c575050565b60008155600101617c21565b9190601f8111617c4757505050565b617c73926000526020600020906020601f840160051c83019310617c75575b601f0160051c0190617c21565b565b9091508190617c66565b9060048110156106e25760ff80198354169116179055565b600c54600160401b811015611469576001810180600c558110156174c857600c6000526000805160206198568339815191520180546001600160a01b0319166001600160a01b03909216919091179055565b15617cf057565b60405162461bcd60e51b8152602060048201526016602482015275496e76616c69642073656c6c6572206164647265737360501b6044820152606490fd5b15617d3557565b60405162461bcd60e51b815260206004820152601560248201527414d95b1b195c881b9bdd081c9959da5cdd195c9959605a1b6044820152606490fd5b60405190617d7f8261705f565b600060c0836060808252806020830152806040830152808083015260808201528260a08201520152565b6001600160a01b0390811690617dc0821515617ce9565b600054168114617dde57600052601360205260ff6040600020541690565b50600290565b15617deb57565b60405162461bcd60e51b815260206004820152600e60248201526d139bdd08185d5d1a1bdc9a5e995960921b6044820152606490fd5b903590601e198136030182121561061257018035906001600160401b0382116106125760200191813603831361061257565b15617e5a57565b60405162461bcd60e51b81526020600482015260146024820152734e616d652063616e6e6f7420626520656d70747960601b6044820152606490fd5b15617e9d57565b60405162461bcd60e51b815260206004820152601c60248201527b05072696365206d7573742062652067726561746572207468616e20360241b6044820152606490fd5b15617ee857565b60405162461bcd60e51b815260206004820152601c60248201527b053746f636b206d7573742062652067726561746572207468616e20360241b6044820152606490fd5b15617f3357565b60405162461bcd60e51b815260206004820152601d60248201527f576569676874206d7573742062652067726561746572207468616e20300000006044820152606490fd5b15617f7f57565b60405162461bcd60e51b81526020600482015260156024820152744d6f64656c2063616e6e6f7420626520656d70747960581b6044820152606490fd5b15617fc357565b60405162461bcd60e51b81526020600482015260156024820152744272616e642063616e6e6f7420626520656d70747960581b6044820152606490fd5b1561800757565b60405162461bcd60e51b815260206004820152601a6024820152790534b55206d7573742062652067726561746572207468616e20360341b6044820152606490fd5b903590601e198136030182121561061257018035906001600160401b03821161061257602001918160051b3603831361061257565b1561808557565b60405162461bcd60e51b8152602060048201526016602482015275496d616765732063616e6e6f7420626520656d70747960501b6044820152606490fd5b156180ca57565b60405162461bcd60e51b815260206004820152601c60248201527b496d616765732063616e6e6f74206265206d6f7265207468616e203560201b6044820152606490fd5b6040519061811b82617027565b8161024060009182815282602082015260609283604083015283808301528060808301528060a08301528360c08301528360e08301528361010083015283610120830152836101408301528061016083015283610180830152836101a0830152806101c0830152806101e0830152806102008301526102208201520152565b6001600160401b0381116114695760051b60200190565b929190926181be8461819a565b916181cc60405193846170e6565b829480845260208094019060051b8301928284116106125780915b8483106181f657505050505050565b82356001600160401b038111610612578691618215868493860161715b565b8152019201916181e7565b61822a81546171ea565b9081618234575050565b81601f60009311600114618246575055565b908083918252618265601f60208420940160051c840160018501617c21565b5555565b90600160401b81116114695781549181815582821061828757505050565b600052602060002091820191015b8181106182a0575050565b806182ac600192618220565b01618295565b81518155602080830151600180840180546001600160a01b0319166001600160a01b03939093169290921790915560408401516002840155606084015180519394909390926003860192906001600160401b0383116114695761831f8361831986546171ea565b86617c38565b80601f841160011461837757509180809260a096959460059860009461836c575b50501b916000199060031b1c19161790555b6183656080820151151560048601617a4a565b0151910155565b015192503880618340565b91939495601f1984168660005283600020936000905b8282106183cf575050916005979593918560a0989694106183b6575b505050811b019055618352565b015160001960f88460031b161c191690553880806183a9565b80888697829497870151815501960194019061838d565b8054600160401b81101561146957618403916001820181556174de565b819291549060031b91821b91600019901b1916179055565b1561842257565b60405162461bcd60e51b815260206004820152601c60248201527b115490cdcc8c4e881d1bdad95b88185b1c9958591e481b5a5b9d195960221b6044820152606490fd5b1561846d57565b60405162461bcd60e51b8152602060048201526016602482015275141c9bd91d58dd08191bd95cc81b9bdd08195e1a5cdd60521b6044820152606490fd5b156184b257565b60405162461bcd60e51b8152602060048201526012602482015271141c9bd91d58dd081a5cc819195b195d195960721b6044820152606490fd5b908082146185c0576184fe81546171ea565b906001600160401b03821161146957819061851d8261831986546171ea565b600090601f831160011461855457600092618549575b50508160011b916000199060031b1c1916179055565b015490503880618533565b81526020808220858352818320935090601f1985169083905b8282106185a757505090846001959493921061858e575b505050811b019055565b015460001960f88460031b161c19169055388080618584565b849581929585015481556001809101960194019061856d565b5050565b156185cb57565b60405162461bcd60e51b815260206004820152602560248201527f4f6e6c792076657269666965642073656c6c6572206f72206f776e657220616c6044820152641b1bddd95960da1b6064820152608490fd5b60008054909291906001600160a01b039081163314618700573384526019602052604084205481169081156186aa57818552601360205260ff60408620541660048110156186965791617c7394959160026186849414928315618689575b5050506185c4565b618708565b541614905038808061867c565b634e487b7160e01b86526021600452602486fd5b9050601360205260ff60408520541660048110156186ec5793618684916002617c739596149182156186de575b50506185c4565b9091505416331438806186d7565b634e487b7160e01b85526021600452602485fd5b50617c739192505b906000918083526020926017845260409161872860ff8484205416618466565b8082526010855282822060010154336001600160a01b039182161490811561881b575b50156187c7578082526010855260ff600f848420015460101c1661878657600f939460109183525220016201000062ff000019825416179055565b825162461bcd60e51b815260048101869052601a602482015279141c9bd91d58dd081a5cc8185b1c9958591e4819195b195d195960321b6044820152606490fd5b825162461bcd60e51b815260048101869052602760248201527f4f6e6c792070726f647563742073656c6c6572206f72206f776e65722063616e6044820152662064656c65746560c81b6064820152608490fd5b835416331490503861874b565b9081546188348161819a565b92604093618844855191826170e6565b828152809460208092019260005281600020906000935b85851061886a57505050505050565b6001848192845161887f816103fb818a617224565b81520193019401939161885b565b9060405161889a816170b0565b60a06005829480548452600180841b036001820154166020850152600281015460408501526040516188d3816103fb8160038601617224565b606085015260ff600482015416151560808501520154910152565b60001981146114535760010190565b906189078261819a565b61891460405191826170e6565b8281528092618925601f199161819a565b019060005b82811061893657505050565b60209061894161810e565b8282850101520161892a565b80518210156174c85760209160051b010190565b1561896857565b60405162461bcd60e51b815260206004820152601d60248201527f43617465676f7279206e616d652063616e6e6f7420626520656d7074790000006044820152606490fd5b156189b457565b606460405162461bcd60e51b815260206004820152602060248201527f53756263617465676f7279206e616d652063616e6e6f7420626520656d7074796044820152fd5b908210156174c857618a0f9160051b810190617e21565b9091565b15618a1a57565b60405162461bcd60e51b815260206004820152601760248201527610d85d1959dbdc9e48191bd95cc81b9bdd08195e1a5cdd604a1b6044820152606490fd5b90618a71602091949394604084526040840190616d0c565b931515910152565b15618a8057565b60405162461bcd60e51b815260206004820152601a60248201527914dd5898d85d1959dbdc9e48191bd95cc81b9bdd08195e1a5cdd60321b6044820152606490fd5b9060405191828154918282526020928383019160005283600020936000905b828210618af757505050617c73925003836170e6565b855484526001958601958895509381019390910190618ae1565b60005b828110618b2057505050565b606082820152602001618b14565b9190820391821161145357565b60405190618b48826170b0565b600060a0838281528260208201528260408201526060808201528260808201520152565b80548210156174c8576000526006602060002091020190600090565b8054600160401b81101561146957618ba790600192838201815561753a565b92909261924e5780518355602080820151838501556040820151600285015560608201516003808601919091556080830151600480870180546001600160a01b0319166001600160a01b0393841617905560a08086015160058901805460c08901516001600160a81b0319909116929095169190911793151590911b60ff60a01b169290921790915560e0909301518051805191966001600160401b03959394919392600682019087811161923957618c648161214b84546171ea565b8084601f978883116001146191d7576000926191cc575b505060001982891b1c191690891b1790555b6007810182890151805190888211618f96578190618caf8261831986546171ea565b859088831160011461916a5760009261915f575b505060001982891b1c191690891b1790555b600881016040890151805190888211618f96578190618cf88261831986546171ea565b85908883116001146190fd576000926190f2575b505060001982891b1c191690891b1790555b600981016060890151805190888211618f96578190618d418261831986546171ea565b859088831160011461909057600092619085575b505060001982891b1c191690891b1790555b600a81016080890151805190888211618f96578190618d8a8261831986546171ea565b859088831160011461902357600092619018575b505060001982891b1c191690891b1790555b600b810160a0890151805190888211618f96578190618dd38261831986546171ea565b8590888311600114618fb657600092618fab575b505060001982891b1c191690891b1790555b600c810160c0890151805190888211618f9657618e1a82611bf885546171ea565b8490878311600114618f29579180600d949260e09694600092618f1e575b5050600019828b1b1c1916908b1b1790555b01970151918251958611618f095750618e6d85618e6789546171ea565b89617c38565b80928511600114618ea35750938394918492600095618e98575b50501b92600019911b1c1916179055565b015193503880618e87565b92919084601f1981168860005285600020956000905b89838310618eef5750505010618ed5575b50505050811b019055565b01519060f884600019921b161c1916905538808080618eca565b858701518955909701969485019488935090810190618eb9565b604190634e487b7160e01b6000525260246000fd5b015190503880618e38565b8a9291601f1983169185600052876000209260005b89828210618f805750509160e09795939185600d98969410618f68575b505050811b019055618e4a565b0151600019838d1b60f8161c19169055388080618f5b565b8385015186558f97909501949384019301618f3e565b604186634e487b7160e01b6000525260246000fd5b015190503880618de7565b908b9350601f1983169185600052876000209260005b898282106190025750508411618fea575b505050811b019055618df9565b0151600019838b1b60f8161c19169055388080618fdd565b8385015186558f97909501949384019301618fcc565b015190503880618d9e565b908b9350601f1983169185600052876000209260005b8982821061906f5750508411619057575b505050811b019055618db0565b0151600019838b1b60f8161c1916905538808061904a565b8385015186558f97909501949384019301619039565b015190503880618d55565b908b9350601f1983169185600052876000209260005b898282106190dc57505084116190c4575b505050811b019055618d67565b0151600019838b1b60f8161c191690553880806190b7565b8385015186558f979095019493840193016190a6565b015190503880618d0c565b908b9350601f1983169185600052876000209260005b898282106191495750508411619131575b505050811b019055618d1e565b0151600019838b1b60f8161c19169055388080619124565b8385015186558f97909501949384019301619113565b015190503880618cc3565b908b9350601f1983169185600052876000209260005b898282106191b6575050841161919e575b505050811b019055618cd5565b0151600019838b1b60f8161c19169055388080619191565b8385015186558f97909501949384019301619180565b015190503880618c7b565b908b9350601f1983169185600052876000209260005b89828210619223575050841161920b575b505050811b019055618c8d565b0151600019838b1b60f8161c191690553880806191fe565b8385015186558f979095019493840193016191ed565b604185634e487b7160e01b6000525260246000fd5b634e487b7160e01b600052600060045260246000fd5b600080546001600160a01b03929190831633146193125733815260196020526040812054831680156192dd57808252601360205260ff6040832054169360048510156192c95760026192c1949514928315618689575050506185c4565b617c73619319565b634e487b7160e01b83526021600452602483fd5b509091601360205260ff60408320541660048110156192c95790600261930d9392149182156186de5750506185c4565b6192c1565b509050617c735b60003381526012602052604081205480156193bc57600b5480820290828204036193a85790619374619352606461937a94048093618b2e565b33855260126020526040852085905584549092906001600160a01b0316619771565b33619771565b6040519081527f8ad64a0ac7700dd8425ab0499f107cb6e2cd1581d803c5b8c1c79dcb8190b1af60203392a2565b634e487b7160e01b83526011600452602483fd5b60405162461bcd60e51b81526020600482015260166024820152754e6f2062616c616e636520746f20776974686472617760501b6044820152606490fd5b6000805490939291906001600160a01b0390811633146194ac5733855260196020526040852054811690811561947957818652601360205260ff60408720541660048110156194655791617c7395969160026194609414928315618689575050506185c4565b6194b4565b634e487b7160e01b87526021600452602487fd5b9050601360205260ff60408620541660048110156186965794619460916002617c739697149182156186de5750506185c4565b50617c739293505b600091825b60018060a01b038083168060005260146020818152604092836000208054871015619763576194e9878a9261753a565b5054146195035750505050506194fe906188ee565b6194b9565b80919293949697985060005282825261951f858560002061753a565b509560ff60058098015460a01c1661972157816000528383528087619547888860002061753a565b500154163314908115619713575b50156196bc579061956f949392916000525260002061753a565b5001805460ff60a01b1916600160a01b17905560015b1561968257816000526020916010835260018060a01b039260019384936040828682600020015416866000905b6195d4575b5050600080516020619896833981519152949550519586521693a3565b81600052601580875283600020805483101561967b576195f5838a9261753a565b50541480619656575b619612575061960c906188ee565b876195b2565b6000805160206198968339815191529798509061963a9160059360005287528360002061753a565b5001805460ff60a01b1916600160a01b179055869594386195b7565b508260005280875285600461966e848760002061753a565b50015416868616146195fe565b50506195b7565b60405162461bcd60e51b8152602060048201526012602482015271141d5c98da185cd9481b9bdd08199bdd5b9960721b6044820152606490fd5b835162461bcd60e51b815260048101839052602a60248201527f4f6e6c792073656c6c6572206f72206f776e65722063616e206d61726b2061736044820152690819195b1a5d995c995960b21b6064820152608490fd5b600054163314905038619555565b845162461bcd60e51b815260048101849052601b60248201527a105b1c9958591e481b585c9ad95908185cc819195b1a5d995c9959602a1b6044820152606490fd5b505050505050509091619585565b6001600160a01b031680156197d057600080809381935af1619791617a78565b501561979957565b60405162461bcd60e51b815260206004820152600f60248201526e151c985b9cd9995c8819985a5b1959608a1b6044820152606490fd5b60405162461bcd60e51b815260206004820152600f60248201526e496e76616c6964206164647265737360881b6044820152606490fd5b600090600c8054925b8381106198205750505050600090565b6000828152602090208101546001600160a01b0384811691161461984c57619847906188ee565b619810565b5050505060019056fedf6966c971051c3d54ec59162606531493a51404a002842f56009d7e5cf4a8c732b449308c94e824ccedd9877932cd82f89a481c06c4643a0cb2914454a8c582f9dc8543b583e01f592678422369b2777e3649761f5808ae432cb1c24ca9438c79d3150b1760cd391f5006c9543aea088e4c9060f3e582ea0a948dc6649b25da8be0079c531659141344cd1fd0a4f28419497f9722a3daafe3b4186f6b6457e0ddf252ad1be2c89b69c2b068fc378daa952ba7f163c4a11628f55a4df523b3ef5a8a989e12f3ce7cf805b73156a361da5d8369f0c37173209308910b322117ac4cfca6396923c3eee68be58aa35fd6623ae5d67bb552da5e1de2e0d5854166dca164736f6c6343000813000a",
  "linkReferences": {},
  "deployedLinkReferences": {}
}