{
  "_format": "hh-sol-artifact-1",
  "contractName": "HemShop",
  "sourceName": "contracts/HemShop.sol",
  "abi": [
    {
      "inputs": [
        {
          "internalType": "uint256",
          "name": "_pct",
          "type": "uint256"
        }
      ],
      "stateMutability": "nonpayable",
      "type": "constructor"
    },
    {
      "anonymous": false,
      "inputs": [
        {
          "indexed": true,
          "internalType": "address",
          "name": "owner",
          "type": "address"
        },
        {
          "indexed": true,
          "internalType": "address",
          "name": "approved",
          "type": "address"
        },
        {
          "indexed": true,
          "internalType": "uint256",
          "name": "tokenId",
          "type": "uint256"
        }
      ],
      "name": "Approval",
      "type": "event"
    },
    {
      "anonymous": false,
      "inputs": [
        {
          "indexed": true,
          "internalType": "address",
          "name": "owner",
          "type": "address"
        },
        {
          "indexed": true,
          "internalType": "address",
          "name": "operator",
          "type": "address"
        },
        {
          "indexed": false,
          "internalType": "bool",
          "name": "approved",
          "type": "bool"
        }
      ],
      "name": "ApprovalForAll",
      "type": "event"
    },
    {
      "anonymous": false,
      "inputs": [
        {
          "indexed": true,
          "internalType": "address",
          "name": "seller",
          "type": "address"
        },
        {
          "indexed": false,
          "internalType": "uint256",
          "name": "newBalance",
          "type": "uint256"
        }
      ],
      "name": "BalanceUpdated",
      "type": "event"
    },
    {
      "anonymous": false,
      "inputs": [
        {
          "indexed": true,
          "internalType": "address",
          "name": "previousOwner",
          "type": "address"
        },
        {
          "indexed": true,
          "internalType": "address",
          "name": "newOwner",
          "type": "address"
        }
      ],
      "name": "OwnershipTransferred",
      "type": "event"
    },
    {
      "anonymous": false,
      "inputs": [
        {
          "indexed": true,
          "internalType": "uint256",
          "name": "productId",
          "type": "uint256"
        },
        {
          "indexed": true,
          "internalType": "address",
          "name": "buyer",
          "type": "address"
        },
        {
          "indexed": true,
          "internalType": "address",
          "name": "seller",
          "type": "address"
        },
        {
          "indexed": false,
          "internalType": "uint256",
          "name": "price",
          "type": "uint256"
        },
        {
          "indexed": false,
          "internalType": "uint256",
          "name": "timestamp",
          "type": "uint256"
        }
      ],
      "name": "ProductPurchased",
      "type": "event"
    },
    {
      "anonymous": false,
      "inputs": [
        {
          "indexed": true,
          "internalType": "uint256",
          "name": "productId",
          "type": "uint256"
        },
        {
          "indexed": true,
          "internalType": "address",
          "name": "buyer",
          "type": "address"
        },
        {
          "indexed": true,
          "internalType": "address",
          "name": "seller",
          "type": "address"
        },
        {
          "indexed": false,
          "internalType": "uint256",
          "name": "totalAmount",
          "type": "uint256"
        },
        {
          "indexed": false,
          "internalType": "uint256",
          "name": "basePrice",
          "type": "uint256"
        },
        {
          "indexed": false,
          "internalType": "uint256",
          "name": "timestamp",
          "type": "uint256"
        }
      ],
      "name": "PurchaseRecorded",
      "type": "event"
    },
    {
      "anonymous": false,
      "inputs": [
        {
          "indexed": true,
          "internalType": "address",
          "name": "seller",
          "type": "address"
        },
        {
          "indexed": false,
          "internalType": "uint256",
          "name": "timestamp",
          "type": "uint256"
        }
      ],
      "name": "SellerRegistered",
      "type": "event"
    },
    {
      "anonymous": false,
      "inputs": [
        {
          "indexed": true,
          "internalType": "address",
          "name": "seller",
          "type": "address"
        },
        {
          "indexed": false,
          "internalType": "enum HemShop.SellerStatus",
          "name": "status",
          "type": "uint8"
        }
      ],
      "name": "SellerStatusUpdated",
      "type": "event"
    },
    {
      "anonymous": false,
      "inputs": [
        {
          "indexed": true,
          "internalType": "address",
          "name": "from",
          "type": "address"
        },
        {
          "indexed": true,
          "internalType": "address",
          "name": "to",
          "type": "address"
        },
        {
          "indexed": true,
          "internalType": "uint256",
          "name": "tokenId",
          "type": "uint256"
        }
      ],
      "name": "Transfer",
      "type": "event"
    },
    {
      "inputs": [
        {
          "internalType": "address",
          "name": "to",
          "type": "address"
        },
        {
          "internalType": "uint256",
          "name": "tokenId",
          "type": "uint256"
        }
      ],
      "name": "approve",
      "outputs": [],
      "stateMutability": "nonpayable",
      "type": "function"
    },
    {
      "inputs": [
        {
          "internalType": "address",
          "name": "owner",
          "type": "address"
        }
      ],
      "name": "balanceOf",
      "outputs": [
        {
          "internalType": "uint256",
          "name": "",
          "type": "uint256"
        }
      ],
      "stateMutability": "view",
      "type": "function"
    },
    {
      "inputs": [
        {
          "internalType": "uint256",
          "name": "productId",
          "type": "uint256"
        }
      ],
      "name": "buyProduct",
      "outputs": [],
      "stateMutability": "payable",
      "type": "function"
    },
    {
      "inputs": [
        {
          "internalType": "address",
          "name": "",
          "type": "address"
        },
        {
          "internalType": "uint256",
          "name": "",
          "type": "uint256"
        }
      ],
      "name": "buyerPurchaseHistory",
      "outputs": [
        {
          "internalType": "uint256",
          "name": "productId",
          "type": "uint256"
        },
        {
          "internalType": "uint256",
          "name": "totalAmount",
          "type": "uint256"
        },
        {
          "internalType": "uint256",
          "name": "basePrice",
          "type": "uint256"
        },
        {
          "internalType": "uint256",
          "name": "timestamp",
          "type": "uint256"
        },
        {
          "internalType": "address",
          "name": "buyer",
          "type": "address"
        },
        {
          "internalType": "address",
          "name": "seller",
          "type": "address"
        },
        {
          "internalType": "bool",
          "name": "isDelivered",
          "type": "bool"
        }
      ],
      "stateMutability": "view",
      "type": "function"
    },
    {
      "inputs": [
        {
          "components": [
            {
              "internalType": "string",
              "name": "name",
              "type": "string"
            },
            {
              "internalType": "string",
              "name": "description",
              "type": "string"
            },
            {
              "internalType": "uint256",
              "name": "price",
              "type": "uint256"
            },
            {
              "internalType": "uint256",
              "name": "stock",
              "type": "uint256"
            },
            {
              "internalType": "string",
              "name": "color",
              "type": "string"
            },
            {
              "internalType": "string",
              "name": "size",
              "type": "string"
            },
            {
              "internalType": "string[]",
              "name": "images",
              "type": "string[]"
            },
            {
              "internalType": "string",
              "name": "category",
              "type": "string"
            },
            {
              "internalType": "string",
              "name": "subCategory",
              "type": "string"
            },
            {
              "internalType": "string",
              "name": "model",
              "type": "string"
            },
            {
              "internalType": "string",
              "name": "brand",
              "type": "string"
            },
            {
              "internalType": "uint256",
              "name": "weight",
              "type": "uint256"
            },
            {
              "internalType": "uint256",
              "name": "sku",
              "type": "uint256"
            }
          ],
          "internalType": "struct HemShop.ProductInput",
          "name": "input",
          "type": "tuple"
        }
      ],
      "name": "createProduct",
      "outputs": [],
      "stateMutability": "nonpayable",
      "type": "function"
    },
    {
      "inputs": [
        {
          "internalType": "uint256",
          "name": "productId",
          "type": "uint256"
        },
        {
          "internalType": "uint256",
          "name": "rating",
          "type": "uint256"
        },
        {
          "internalType": "string",
          "name": "comment",
          "type": "string"
        }
      ],
      "name": "createReview",
      "outputs": [],
      "stateMutability": "nonpayable",
      "type": "function"
    },
    {
      "inputs": [
        {
          "internalType": "uint256",
          "name": "productId",
          "type": "uint256"
        }
      ],
      "name": "deleteProduct",
      "outputs": [],
      "stateMutability": "nonpayable",
      "type": "function"
    },
    {
      "inputs": [
        {
          "internalType": "uint256",
          "name": "productId",
          "type": "uint256"
        },
        {
          "internalType": "uint256",
          "name": "reviewId",
          "type": "uint256"
        }
      ],
      "name": "deleteReview",
      "outputs": [],
      "stateMutability": "nonpayable",
      "type": "function"
    },
    {
      "inputs": [],
      "name": "getAllProducts",
      "outputs": [
        {
          "components": [
            {
              "internalType": "uint256",
              "name": "id",
              "type": "uint256"
            },
            {
              "internalType": "address",
              "name": "seller",
              "type": "address"
            },
            {
              "internalType": "string",
              "name": "name",
              "type": "string"
            },
            {
              "internalType": "string",
              "name": "description",
              "type": "string"
            },
            {
              "internalType": "uint256",
              "name": "price",
              "type": "uint256"
            },
            {
              "internalType": "uint256",
              "name": "stock",
              "type": "uint256"
            },
            {
              "internalType": "string",
              "name": "color",
              "type": "string"
            },
            {
              "internalType": "string",
              "name": "size",
              "type": "string"
            },
            {
              "internalType": "string[]",
              "name": "images",
              "type": "string[]"
            },
            {
              "internalType": "string",
              "name": "category",
              "type": "string"
            },
            {
              "internalType": "string",
              "name": "subCategory",
              "type": "string"
            },
            {
              "internalType": "uint256",
              "name": "weight",
              "type": "uint256"
            },
            {
              "internalType": "string",
              "name": "model",
              "type": "string"
            },
            {
              "internalType": "string",
              "name": "brand",
              "type": "string"
            },
            {
              "internalType": "uint256",
              "name": "sku",
              "type": "uint256"
            },
            {
              "internalType": "bool",
              "name": "soldout",
              "type": "bool"
            },
            {
              "internalType": "bool",
              "name": "wishlist",
              "type": "bool"
            },
            {
              "internalType": "bool",
              "name": "deleted",
              "type": "bool"
            },
            {
              "components": [
                {
                  "internalType": "uint256",
                  "name": "reviewId",
                  "type": "uint256"
                },
                {
                  "internalType": "address",
                  "name": "reviewer",
                  "type": "address"
                },
                {
                  "internalType": "uint256",
                  "name": "rating",
                  "type": "uint256"
                },
                {
                  "internalType": "string",
                  "name": "comment",
                  "type": "string"
                },
                {
                  "internalType": "bool",
                  "name": "deleted",
                  "type": "bool"
                }
              ],
              "internalType": "struct HemShop.ReviewStruct[]",
              "name": "reviews",
              "type": "tuple[]"
            }
          ],
          "internalType": "struct HemShop.ProductStruct[]",
          "name": "",
          "type": "tuple[]"
        }
      ],
      "stateMutability": "view",
      "type": "function"
    },
    {
      "inputs": [
        {
          "internalType": "uint256",
          "name": "tokenId",
          "type": "uint256"
        }
      ],
      "name": "getApproved",
      "outputs": [
        {
          "internalType": "address",
          "name": "",
          "type": "address"
        }
      ],
      "stateMutability": "view",
      "type": "function"
    },
    {
      "inputs": [
        {
          "internalType": "address",
          "name": "buyer",
          "type": "address"
        }
      ],
      "name": "getBuyerPurchaseHistory",
      "outputs": [
        {
          "components": [
            {
              "internalType": "uint256",
              "name": "productId",
              "type": "uint256"
            },
            {
              "internalType": "uint256",
              "name": "totalAmount",
              "type": "uint256"
            },
            {
              "internalType": "uint256",
              "name": "basePrice",
              "type": "uint256"
            },
            {
              "internalType": "uint256",
              "name": "timestamp",
              "type": "uint256"
            },
            {
              "internalType": "address",
              "name": "buyer",
              "type": "address"
            },
            {
              "internalType": "address",
              "name": "seller",
              "type": "address"
            },
            {
              "internalType": "bool",
              "name": "isDelivered",
              "type": "bool"
            }
          ],
          "internalType": "struct HemShop.PurchaseHistoryStruct[]",
          "name": "",
          "type": "tuple[]"
        }
      ],
      "stateMutability": "view",
      "type": "function"
    },
    {
      "inputs": [],
      "name": "getMyProducts",
      "outputs": [
        {
          "components": [
            {
              "internalType": "uint256",
              "name": "id",
              "type": "uint256"
            },
            {
              "internalType": "address",
              "name": "seller",
              "type": "address"
            },
            {
              "internalType": "string",
              "name": "name",
              "type": "string"
            },
            {
              "internalType": "string",
              "name": "description",
              "type": "string"
            },
            {
              "internalType": "uint256",
              "name": "price",
              "type": "uint256"
            },
            {
              "internalType": "uint256",
              "name": "stock",
              "type": "uint256"
            },
            {
              "internalType": "string",
              "name": "color",
              "type": "string"
            },
            {
              "internalType": "string",
              "name": "size",
              "type": "string"
            },
            {
              "internalType": "string[]",
              "name": "images",
              "type": "string[]"
            },
            {
              "internalType": "string",
              "name": "category",
              "type": "string"
            },
            {
              "internalType": "string",
              "name": "subCategory",
              "type": "string"
            },
            {
              "internalType": "uint256",
              "name": "weight",
              "type": "uint256"
            },
            {
              "internalType": "string",
              "name": "model",
              "type": "string"
            },
            {
              "internalType": "string",
              "name": "brand",
              "type": "string"
            },
            {
              "internalType": "uint256",
              "name": "sku",
              "type": "uint256"
            },
            {
              "internalType": "bool",
              "name": "soldout",
              "type": "bool"
            },
            {
              "internalType": "bool",
              "name": "wishlist",
              "type": "bool"
            },
            {
              "internalType": "bool",
              "name": "deleted",
              "type": "bool"
            },
            {
              "components": [
                {
                  "internalType": "uint256",
                  "name": "reviewId",
                  "type": "uint256"
                },
                {
                  "internalType": "address",
                  "name": "reviewer",
                  "type": "address"
                },
                {
                  "internalType": "uint256",
                  "name": "rating",
                  "type": "uint256"
                },
                {
                  "internalType": "string",
                  "name": "comment",
                  "type": "string"
                },
                {
                  "internalType": "bool",
                  "name": "deleted",
                  "type": "bool"
                }
              ],
              "internalType": "struct HemShop.ReviewStruct[]",
              "name": "reviews",
              "type": "tuple[]"
            }
          ],
          "internalType": "struct HemShop.ProductStruct[]",
          "name": "",
          "type": "tuple[]"
        }
      ],
      "stateMutability": "view",
      "type": "function"
    },
    {
      "inputs": [
        {
          "internalType": "uint256",
          "name": "productId",
          "type": "uint256"
        }
      ],
      "name": "getProduct",
      "outputs": [
        {
          "components": [
            {
              "internalType": "uint256",
              "name": "id",
              "type": "uint256"
            },
            {
              "internalType": "address",
              "name": "seller",
              "type": "address"
            },
            {
              "internalType": "string",
              "name": "name",
              "type": "string"
            },
            {
              "internalType": "string",
              "name": "description",
              "type": "string"
            },
            {
              "internalType": "uint256",
              "name": "price",
              "type": "uint256"
            },
            {
              "internalType": "uint256",
              "name": "stock",
              "type": "uint256"
            },
            {
              "internalType": "string",
              "name": "color",
              "type": "string"
            },
            {
              "internalType": "string",
              "name": "size",
              "type": "string"
            },
            {
              "internalType": "string[]",
              "name": "images",
              "type": "string[]"
            },
            {
              "internalType": "string",
              "name": "category",
              "type": "string"
            },
            {
              "internalType": "string",
              "name": "subCategory",
              "type": "string"
            },
            {
              "internalType": "uint256",
              "name": "weight",
              "type": "uint256"
            },
            {
              "internalType": "string",
              "name": "model",
              "type": "string"
            },
            {
              "internalType": "string",
              "name": "brand",
              "type": "string"
            },
            {
              "internalType": "uint256",
              "name": "sku",
              "type": "uint256"
            },
            {
              "internalType": "bool",
              "name": "soldout",
              "type": "bool"
            },
            {
              "internalType": "bool",
              "name": "wishlist",
              "type": "bool"
            },
            {
              "internalType": "bool",
              "name": "deleted",
              "type": "bool"
            },
            {
              "components": [
                {
                  "internalType": "uint256",
                  "name": "reviewId",
                  "type": "uint256"
                },
                {
                  "internalType": "address",
                  "name": "reviewer",
                  "type": "address"
                },
                {
                  "internalType": "uint256",
                  "name": "rating",
                  "type": "uint256"
                },
                {
                  "internalType": "string",
                  "name": "comment",
                  "type": "string"
                },
                {
                  "internalType": "bool",
                  "name": "deleted",
                  "type": "bool"
                }
              ],
              "internalType": "struct HemShop.ReviewStruct[]",
              "name": "reviews",
              "type": "tuple[]"
            }
          ],
          "internalType": "struct HemShop.ProductStruct",
          "name": "",
          "type": "tuple"
        }
      ],
      "stateMutability": "view",
      "type": "function"
    },
    {
      "inputs": [
        {
          "internalType": "uint256",
          "name": "productId",
          "type": "uint256"
        }
      ],
      "name": "getReviews",
      "outputs": [
        {
          "components": [
            {
              "internalType": "uint256",
              "name": "reviewId",
              "type": "uint256"
            },
            {
              "internalType": "address",
              "name": "reviewer",
              "type": "address"
            },
            {
              "internalType": "uint256",
              "name": "rating",
              "type": "uint256"
            },
            {
              "internalType": "string",
              "name": "comment",
              "type": "string"
            },
            {
              "internalType": "bool",
              "name": "deleted",
              "type": "bool"
            }
          ],
          "internalType": "struct HemShop.ReviewStruct[]",
          "name": "",
          "type": "tuple[]"
        }
      ],
      "stateMutability": "view",
      "type": "function"
    },
    {
      "inputs": [
        {
          "internalType": "address",
          "name": "seller",
          "type": "address"
        }
      ],
      "name": "getSellerBalance",
      "outputs": [
        {
          "internalType": "uint256",
          "name": "",
          "type": "uint256"
        }
      ],
      "stateMutability": "view",
      "type": "function"
    },
    {
      "inputs": [
        {
          "internalType": "address",
          "name": "seller",
          "type": "address"
        }
      ],
      "name": "getSellerPurchaseHistory",
      "outputs": [
        {
          "components": [
            {
              "internalType": "uint256",
              "name": "productId",
              "type": "uint256"
            },
            {
              "internalType": "uint256",
              "name": "totalAmount",
              "type": "uint256"
            },
            {
              "internalType": "uint256",
              "name": "basePrice",
              "type": "uint256"
            },
            {
              "internalType": "uint256",
              "name": "timestamp",
              "type": "uint256"
            },
            {
              "internalType": "address",
              "name": "buyer",
              "type": "address"
            },
            {
              "internalType": "address",
              "name": "seller",
              "type": "address"
            },
            {
              "internalType": "bool",
              "name": "isDelivered",
              "type": "bool"
            }
          ],
          "internalType": "struct HemShop.PurchaseHistoryStruct[]",
          "name": "",
          "type": "tuple[]"
        }
      ],
      "stateMutability": "view",
      "type": "function"
    },
    {
      "inputs": [
        {
          "internalType": "address",
          "name": "owner",
          "type": "address"
        },
        {
          "internalType": "address",
          "name": "operator",
          "type": "address"
        }
      ],
      "name": "isApprovedForAll",
      "outputs": [
        {
          "internalType": "bool",
          "name": "",
          "type": "bool"
        }
      ],
      "stateMutability": "view",
      "type": "function"
    },
    {
      "inputs": [],
      "name": "name",
      "outputs": [
        {
          "internalType": "string",
          "name": "",
          "type": "string"
        }
      ],
      "stateMutability": "view",
      "type": "function"
    },
    {
      "inputs": [],
      "name": "owner",
      "outputs": [
        {
          "internalType": "address",
          "name": "",
          "type": "address"
        }
      ],
      "stateMutability": "view",
      "type": "function"
    },
    {
      "inputs": [
        {
          "internalType": "uint256",
          "name": "tokenId",
          "type": "uint256"
        }
      ],
      "name": "ownerOf",
      "outputs": [
        {
          "internalType": "address",
          "name": "",
          "type": "address"
        }
      ],
      "stateMutability": "view",
      "type": "function"
    },
    {
      "inputs": [
        {
          "internalType": "uint256",
          "name": "",
          "type": "uint256"
        }
      ],
      "name": "productExists",
      "outputs": [
        {
          "internalType": "bool",
          "name": "",
          "type": "bool"
        }
      ],
      "stateMutability": "view",
      "type": "function"
    },
    {
      "inputs": [
        {
          "internalType": "uint256",
          "name": "",
          "type": "uint256"
        }
      ],
      "name": "products",
      "outputs": [
        {
          "internalType": "uint256",
          "name": "id",
          "type": "uint256"
        },
        {
          "internalType": "address",
          "name": "seller",
          "type": "address"
        },
        {
          "internalType": "string",
          "name": "name",
          "type": "string"
        },
        {
          "internalType": "string",
          "name": "description",
          "type": "string"
        },
        {
          "internalType": "uint256",
          "name": "price",
          "type": "uint256"
        },
        {
          "internalType": "uint256",
          "name": "stock",
          "type": "uint256"
        },
        {
          "internalType": "string",
          "name": "color",
          "type": "string"
        },
        {
          "internalType": "string",
          "name": "size",
          "type": "string"
        },
        {
          "internalType": "string",
          "name": "category",
          "type": "string"
        },
        {
          "internalType": "string",
          "name": "subCategory",
          "type": "string"
        },
        {
          "internalType": "uint256",
          "name": "weight",
          "type": "uint256"
        },
        {
          "internalType": "string",
          "name": "model",
          "type": "string"
        },
        {
          "internalType": "string",
          "name": "brand",
          "type": "string"
        },
        {
          "internalType": "uint256",
          "name": "sku",
          "type": "uint256"
        },
        {
          "internalType": "bool",
          "name": "soldout",
          "type": "bool"
        },
        {
          "internalType": "bool",
          "name": "wishlist",
          "type": "bool"
        },
        {
          "internalType": "bool",
          "name": "deleted",
          "type": "bool"
        }
      ],
      "stateMutability": "view",
      "type": "function"
    },
    {
      "inputs": [],
      "name": "registerSeller",
      "outputs": [],
      "stateMutability": "nonpayable",
      "type": "function"
    },
    {
      "inputs": [
        {
          "internalType": "address",
          "name": "",
          "type": "address"
        }
      ],
      "name": "registeredSellers",
      "outputs": [
        {
          "internalType": "bool",
          "name": "",
          "type": "bool"
        }
      ],
      "stateMutability": "view",
      "type": "function"
    },
    {
      "inputs": [],
      "name": "renounceOwnership",
      "outputs": [],
      "stateMutability": "nonpayable",
      "type": "function"
    },
    {
      "inputs": [
        {
          "internalType": "uint256",
          "name": "",
          "type": "uint256"
        }
      ],
      "name": "reviewExists",
      "outputs": [
        {
          "internalType": "bool",
          "name": "",
          "type": "bool"
        }
      ],
      "stateMutability": "view",
      "type": "function"
    },
    {
      "inputs": [
        {
          "internalType": "address",
          "name": "from",
          "type": "address"
        },
        {
          "internalType": "address",
          "name": "to",
          "type": "address"
        },
        {
          "internalType": "uint256",
          "name": "tokenId",
          "type": "uint256"
        }
      ],
      "name": "safeTransferFrom",
      "outputs": [],
      "stateMutability": "nonpayable",
      "type": "function"
    },
    {
      "inputs": [
        {
          "internalType": "address",
          "name": "from",
          "type": "address"
        },
        {
          "internalType": "address",
          "name": "to",
          "type": "address"
        },
        {
          "internalType": "uint256",
          "name": "tokenId",
          "type": "uint256"
        },
        {
          "internalType": "bytes",
          "name": "data",
          "type": "bytes"
        }
      ],
      "name": "safeTransferFrom",
      "outputs": [],
      "stateMutability": "nonpayable",
      "type": "function"
    },
    {
      "inputs": [
        {
          "internalType": "address",
          "name": "",
          "type": "address"
        }
      ],
      "name": "sellerBalances",
      "outputs": [
        {
          "internalType": "uint256",
          "name": "",
          "type": "uint256"
        }
      ],
      "stateMutability": "view",
      "type": "function"
    },
    {
      "inputs": [
        {
          "internalType": "address",
          "name": "",
          "type": "address"
        },
        {
          "internalType": "uint256",
          "name": "",
          "type": "uint256"
        }
      ],
      "name": "sellerProducts",
      "outputs": [
        {
          "internalType": "uint256",
          "name": "",
          "type": "uint256"
        }
      ],
      "stateMutability": "view",
      "type": "function"
    },
    {
      "inputs": [
        {
          "internalType": "address",
          "name": "",
          "type": "address"
        },
        {
          "internalType": "uint256",
          "name": "",
          "type": "uint256"
        }
      ],
      "name": "sellerPurchaseHistory",
      "outputs": [
        {
          "internalType": "uint256",
          "name": "productId",
          "type": "uint256"
        },
        {
          "internalType": "uint256",
          "name": "totalAmount",
          "type": "uint256"
        },
        {
          "internalType": "uint256",
          "name": "basePrice",
          "type": "uint256"
        },
        {
          "internalType": "uint256",
          "name": "timestamp",
          "type": "uint256"
        },
        {
          "internalType": "address",
          "name": "buyer",
          "type": "address"
        },
        {
          "internalType": "address",
          "name": "seller",
          "type": "address"
        },
        {
          "internalType": "bool",
          "name": "isDelivered",
          "type": "bool"
        }
      ],
      "stateMutability": "view",
      "type": "function"
    },
    {
      "inputs": [
        {
          "internalType": "address",
          "name": "",
          "type": "address"
        }
      ],
      "name": "sellerStatus",
      "outputs": [
        {
          "internalType": "enum HemShop.SellerStatus",
          "name": "",
          "type": "uint8"
        }
      ],
      "stateMutability": "view",
      "type": "function"
    },
    {
      "inputs": [],
      "name": "servicePct",
      "outputs": [
        {
          "internalType": "uint256",
          "name": "",
          "type": "uint256"
        }
      ],
      "stateMutability": "view",
      "type": "function"
    },
    {
      "inputs": [
        {
          "internalType": "address",
          "name": "operator",
          "type": "address"
        },
        {
          "internalType": "bool",
          "name": "approved",
          "type": "bool"
        }
      ],
      "name": "setApprovalForAll",
      "outputs": [],
      "stateMutability": "nonpayable",
      "type": "function"
    },
    {
      "inputs": [
        {
          "internalType": "bytes4",
          "name": "interfaceId",
          "type": "bytes4"
        }
      ],
      "name": "supportsInterface",
      "outputs": [
        {
          "internalType": "bool",
          "name": "",
          "type": "bool"
        }
      ],
      "stateMutability": "view",
      "type": "function"
    },
    {
      "inputs": [],
      "name": "symbol",
      "outputs": [
        {
          "internalType": "string",
          "name": "",
          "type": "string"
        }
      ],
      "stateMutability": "view",
      "type": "function"
    },
    {
      "inputs": [
        {
          "internalType": "uint256",
          "name": "tokenId",
          "type": "uint256"
        }
      ],
      "name": "tokenURI",
      "outputs": [
        {
          "internalType": "string",
          "name": "",
          "type": "string"
        }
      ],
      "stateMutability": "view",
      "type": "function"
    },
    {
      "inputs": [
        {
          "internalType": "address",
          "name": "from",
          "type": "address"
        },
        {
          "internalType": "address",
          "name": "to",
          "type": "address"
        },
        {
          "internalType": "uint256",
          "name": "tokenId",
          "type": "uint256"
        }
      ],
      "name": "transferFrom",
      "outputs": [],
      "stateMutability": "nonpayable",
      "type": "function"
    },
    {
      "inputs": [
        {
          "internalType": "address",
          "name": "newOwner",
          "type": "address"
        }
      ],
      "name": "transferOwnership",
      "outputs": [],
      "stateMutability": "nonpayable",
      "type": "function"
    },
    {
      "inputs": [
        {
          "internalType": "uint256",
          "name": "productId",
          "type": "uint256"
        },
        {
          "components": [
            {
              "internalType": "string",
              "name": "name",
              "type": "string"
            },
            {
              "internalType": "string",
              "name": "description",
              "type": "string"
            },
            {
              "internalType": "uint256",
              "name": "price",
              "type": "uint256"
            },
            {
              "internalType": "uint256",
              "name": "stock",
              "type": "uint256"
            },
            {
              "internalType": "string",
              "name": "color",
              "type": "string"
            },
            {
              "internalType": "string",
              "name": "size",
              "type": "string"
            },
            {
              "internalType": "string[]",
              "name": "images",
              "type": "string[]"
            },
            {
              "internalType": "string",
              "name": "category",
              "type": "string"
            },
            {
              "internalType": "string",
              "name": "subCategory",
              "type": "string"
            },
            {
              "internalType": "string",
              "name": "model",
              "type": "string"
            },
            {
              "internalType": "string",
              "name": "brand",
              "type": "string"
            },
            {
              "internalType": "uint256",
              "name": "weight",
              "type": "uint256"
            },
            {
              "internalType": "uint256",
              "name": "sku",
              "type": "uint256"
            }
          ],
          "internalType": "struct HemShop.ProductInput",
          "name": "input",
          "type": "tuple"
        }
      ],
      "name": "updateProduct",
      "outputs": [],
      "stateMutability": "nonpayable",
      "type": "function"
    },
    {
      "inputs": [
        {
          "internalType": "address",
          "name": "seller",
          "type": "address"
        },
        {
          "internalType": "enum HemShop.SellerStatus",
          "name": "status",
          "type": "uint8"
        }
      ],
      "name": "updateSellerStatus",
      "outputs": [],
      "stateMutability": "nonpayable",
      "type": "function"
    },
    {
      "inputs": [],
      "name": "withdraw",
      "outputs": [],
      "stateMutability": "nonpayable",
      "type": "function"
    }
  ],
  "bytecode": "0x6080346200037757601f90601f196001600160401b0362005a403881900385810184168501838111868210176200037c57859282916040528339602094859181010312620003775751936200005362000392565b926007845266048656d53686f760cc1b858501526200007162000392565b60038082526204873760ec1b8783015260008054336001600160a01b031982168117835592989394919392906001600160a01b03167f8be0079c531659141344cd1fd0a4f28419497f9722a3daafe3b4186f6b6457e08580a360019687805580519087821162000363576002548981811c9116801562000358575b858210146200034457908188849311620002f0575b5084908883116001146200028e57869262000282575b5050600019828b1b1c191690881b176002555b83519586116200026e5787548781811c9116801562000263575b838210146200024f5785811162000207575b5081948611600114620001a25750509183949184939462000196575b50501b9160001990841b1c19161790555b600b5560405161568d9081620003b38239f35b01519250388062000172565b8783528183209493928692918316915b88838310620001ec5750505010620001d3575b505050811b01905562000183565b015160001983861b60f8161c19169055388080620001c5565b858701518855909601959485019487935090810190620001b2565b8884528284208680890160051c820192858a1062000245575b0160051c019088905b8281106200023957505062000156565b85815501889062000229565b9250819262000220565b634e487b7160e01b84526022600452602484fd5b90607f169062000144565b634e487b7160e01b83526041600452602483fd5b01519050388062000117565b90848b9416916002885286882092885b88828210620002d95750508411620002c0575b505050811b016002556200012a565b0151600019838d1b60f8161c19169055388080620002b1565b8385015186558e979095019493840193016200029e565b909150600286528486208880850160051c8201928786106200033a575b918c91869594930160051c01915b8281106200032b57505062000101565b8881558594508c91016200031b565b925081926200030d565b634e487b7160e01b86526022600452602486fd5b90607f1690620000ec565b634e487b7160e01b85526041600452602485fd5b600080fd5b634e487b7160e01b600052604160045260246000fd5b60408051919082016001600160401b038111838210176200037c5760405256fe608080604052600436101561001357600080fd5b60003560e01c908162d64e76146140325750806301ffc9a714613fc457806302ee3a5214613d2a57806306fdde0314613c84578063081812fc14613c66578063095ea7b314613aec57806316d81b38146139105780632148893f1461335857806323b872dd146138e757806324d41a03146136be5780633c2575d5146135ea5780633ccfd60b146134ca57806342842e0e1461349157806345de84db1461344f57806352c9224c14613392578063607eb4e4146133585780636352211e1461332857806370a0823114613291578063715018a6146132385780637acc0b20146130a05780638642269e14612c9c5780638da5cb5b14612c7357806395d89b4114612b9157806397b6f393146129955780639d4a2255146127f65780639fa44dbf146127ae578063a22cb465146126d3578063af55ed64146126a2578063b119105214611ba3578063b235b4a914610ccf578063b27e169714610bfb578063b88d4fde14610b9a578063b9db15b414610964578063c1302b341461090c578063c64b8a8f146108cd578063c87b56dd1461085d578063e01ef6e61461083f578063e585cb2c1461078b578063e985e9c514610735578063ed90c7b7146105a1578063f2fde38b146104dd5763fdca4ca3146101ec57600080fd5b346104d85760003660031901126104d85760088054600060015b828111156104775750610218906154af565b9060009260015b82811115610239576040518061023586826142d6565b0390f35b80600052600c602081815260018060a01b03913383600160406000200154161480610461575b610275575b5050506102709061543c565b61021f565b60406000989498206040519361028a85614364565b81548552600182015416838501526102a460028201614571565b60408501526102b560038201614571565b6060850152600481015460808501526005918282015460a08601526102dc60068301614571565b60c08601526102ed60078301614571565b60e0860152868201805461030081615097565b9161030e60405193846143d1565b818352600090815286812090878085015b84831061044357505050505061010086015261036b9061034160098401614571565b610120870152610353600a8401614571565b610140870152600b8301546101608701528201614571565b61018085015261037d600d8201614571565b6101a0850152600e8101546101c0850152600f81015460ff80821615156101e087015281881c81161515610200870152601091821c16151561022086015201805491906103c983615097565b936103d760405195866143d1565b8385526000918252808220918186015b8582106104275750505050505091816102709361024061041e94015261040d828861544b565b52610418818761544b565b5061543c565b94903880610264565b84836001926104358761545f565b8152019401910190926103e7565b600191829161045186614571565b815201930191019091889061031f565b5060ff600f6040600020015460101c161561025f565b6000818152600c60205260409020600101546001600160a01b03163314806104c2575b6104ad575b6104a89061543c565b610206565b906104ba6104a89161543c565b91905061049f565b5060ff600f6040600020015460101c161561049a565b600080fd5b346104d85760203660031901126104d8576104f6614338565b6104fe614661565b6001600160a01b0390811690811561054d57600054826001600160601b0360a01b821617600055167f8be0079c531659141344cd1fd0a4f28419497f9722a3daafe3b4186f6b6457e0600080a3005b60405162461bcd60e51b815260206004820152602660248201527f4f776e61626c653a206e6577206f776e657220697320746865207a65726f206160448201526564647265737360d01b6064820152608490fd5b346104d8576020806003193601126104d8576004359033600052600f815260ff60406000205416600481101561071f57600214801561070b575b6105e49061539b565b81600052601381526105fd60ff60406000205416615315565b6000828152600c825260409020600101546001600160a01b0390811633149081156106fd575b50156106a95781600052600c815260ff600f6040600020015460101c16610665576000918252600c905260409020600f01805462ff0000191662010000179055005b6064906040519062461bcd60e51b82526004820152601a60248201527f50726f6475637420697320616c72656164792064656c657465640000000000006044820152fd5b6084906040519062461bcd60e51b82526004820152602760248201527f4f6e6c792070726f647563742073656c6c6572206f72206f776e65722063616e6044820152662064656c65746560c81b6064820152fd5b600054163314905083610623565b506000546001600160a01b031633146105db565b634e487b7160e01b600052602160045260246000fd5b346104d85760403660031901126104d85761074e614338565b61075661434e565b9060018060a01b03809116600052600760205260406000209116600052602052602060ff604060002054166040519015158152f35b346104d85760403660031901126104d8576107a4614338565b6001600160a01b0390811660009081526011602052604090208054602435908110156104d8576107d391614617565b50805460018201546002830154600384015460048501546005909501546040805195865260208601949094529284019190915260608301529183166001600160a01b03908116608083015292821690921660a08084019190915260ff91901c16151560c082015260e090f35b346104d85760003660031901126104d8576020600b54604051908152f35b346104d85760203660031901126104d857610897610892600435600052600460205260018060a01b0360406000205416151590565b6146b9565b60006040516108a5816143b6565b526102356040516108b5816143b6565b6000815260405191829160208352602083019061405f565b346104d85760203660031901126104d8576001600160a01b036108ee614338565b166000526012602052602060ff604060002054166040519015158152f35b346104d85760403660031901126104d857610925614338565b6001600160a01b03166000908152600d60205260409020805460243591908210156104d85760209161095691614649565b90546040519160031b1c8152f35b346104d8576020806003193601126104d85760043561098161500b565b5080600052600c82526109a260ff600f6040600020015460101c161561535a565b80600052601382526109bb60ff60406000205416615315565b600052600c8152604060002090604051916109d583614364565b805483526001808201546001600160a01b0316838501526109f860028301614571565b6040850152610a0960038301614571565b6060850152600482015460808501526005918281015460a0860152610a3060068201614571565b60c0860152610a4160078201614571565b60e0860152600881018054610a5581615097565b91610a6360405193846143d1565b818352600090815286812085888086015b858510610b7d5750888b9260108989610100870152610a9560098201614571565b610120870152610aa7600a8201614571565b610140870152600b810154610160870152610ac4600c8201614571565b610180870152610ad6600d8201614571565b6101a0870152600e8101546101c087015260ff600f82015481811615156101e0890152818160081c161515610200890152831c1615156102208701520191825490610b2082615097565b93610b2e60405195866143d1565b8285526000908152858120868087015b858410610b60576102408a01889052604051828152806102358185018d614136565b86918591610b6d8561545f565b8152019201920191908790610b3e565b908291610b8985614571565b815201920192019190888791610a74565b346104d85760803660031901126104d857610bb3614338565b610bbb61434e565b606435916001600160401b0383116104d857366023840112156104d857610bef610bf993369060248160040135910161440d565b91604435916147c8565b005b346104d8576020806003193601126104d8576001600160a01b039081610c1f614338565b16600052601081526040600020805490610c3882615097565b92610c4660405194856143d1565b82845260009182528082208185015b848410610c6a57604051806102358882614494565b600683600192604051610c7c81614380565b85548152848601548382015260028601546040820152600386015460608201528a600487015416608082015260ff600587015460a08d8216818501521c16151560c0820152815201920193019290610c55565b346104d8576003196020368201126104d8576001600160401b03600435116104d8576101a090600435360301126104d85733600052600f60205260ff60406000205416600481101561071f576002610d279114614b6b565b610d41610d38600480350180614bad565b90501515614bdf565b6024610d62610d598260043501600435600401614bad565b90501515614c22565b610d73604460043501351515614c6e565b610d84606460043501351515614cba565b610da4610d9b608460043501600435600401614bad565b90501515614d06565b610dc4610dbb60c460043501600435600401614d4a565b90501515614d7f565b610de56005610ddd60c460043501600435600401614d4a565b905010614dc4565b610e05610dfc60a460043501600435600401614bad565b90501515614e10565b610e25610e1c60e460043501600435600401614bad565b90501515614e53565b610e46610e3d61010460043501600435600401614bad565b90501515614e9f565b610e67610e5e61012460043501600435600401614bad565b90501515614eeb565b610e88610e7f61014460043501600435600401614bad565b90501515614f2f565b610e9a61016460043501351515614f73565b610eac61018460043501351515614fbf565b60016008540180600855610ebe61500b565b818152336020820152610edf610ed8600480350180614bad565b369161440d565b6040820152610efa610ed88460043501600435600401614bad565b60608201526044600435013560808201526064600435013560a0820152610f2e610ed8608460043501600435600401614bad565b60c0820152610f4a610ed860a460043501600435600401614bad565b60e0820152610f6360c460043501600435600401614d4a565b90610f6d82615097565b91610f7b60405193846143d1565b8083526020830191368260051b8201116104d85780925b8260051b82018410611b785750505050610100820152610fbf610ed860e460043501600435600401614bad565b610120820152610fdd610ed861010460043501600435600401614bad565b610140820152610ffb610ed861012460043501600435600401614bad565b610180820152611019610ed861014460043501600435600401614bad565b6101a0820152610164600435013561016082015261018460043501356101c082015260006101e082015260006102208201523315611b3457600082815260046020526040902054611076906001600160a01b031615155b156152c9565b600082815260046020526040902054611099906001600160a01b03161515611070565b3360005260056020526040600020600181540190558160005260046020526040600020336001600160601b0360a01b825416179055813360007fddf252ad1be2c89b69c2b068fc378daa952ba7f163c4a11628f55a4df523b3ef8180a4600c6020526040600020815181556001810160018060a01b036020840151166001600160601b0360a01b82541617905560408201518051906001600160401b03821161163b5781906111588261114f6002870154614537565b600287016150c5565b602090601f8311600114611ac257600092611ab7575b50508160011b916000199060031b1c19161760028201555b60608201518051906001600160401b03821161163b5781906111b8826111af6003870154614537565b600387016150c5565b602090601f8311600114611a4557600092611a3a575b50508160011b916000199060031b1c19161760038201555b6080820151600482015560a0820151600582015560c08201518051906001600160401b03821161163b57819061122c826112236006870154614537565b600687016150c5565b602090601f83116001146119c8576000926119bd575b50508160011b916000199060031b1c19161760068201555b60e08201518051906001600160401b03821161163b57819061128c826112836007870154614537565b600787016150c5565b602090601f831160011461194b57600092611940575b50508160011b916000199060031b1c19161760078201555b600881016101008301519060208251926112d48484615156565b019060005260206000206000915b83831061184857505050506101208201518051906001600160401b03821161163b578190611320826113176009870154614537565b600987016150c5565b602090601f83116001146117d6576000926117cb575b50508160011b916000199060031b1c19161760098201555b6101408201518051906001600160401b03821161163b57819061138182611378600a870154614537565b600a87016150c5565b602090601f83116001146117595760009261174e575b50508160011b916000199060031b1c191617600a8201555b610160820151600b8201556101808201518051906001600160401b03821161163b5781906113ed826113e4600c870154614537565b600c87016150c5565b602090601f83116001146116dc576000926116d1575b50508160011b916000199060031b1c191617600c8201555b6101a08201518051906001600160401b03821161163b5761144c82611443600d860154614537565b600d86016150c5565b602090601f831160011461165b5791806102409492601094600092611650575b50508160011b916000199060031b1c191617600d8201555b6101c0840151600e820155600f81016114b06101e08601511515829060ff801983541691151516179055565b6102008501511515815461ff0062ff00006102208901511515871b169260081b169062ffff001916171790550191015190815190600160401b9283831161163b5781548383558084106115ab575b506020019060005260206000206000915b83831061158d57505050508160005260136020526040600020600160ff1982541617905533600052600d6020526040600020805491821015611578579061155b91600182018155614649565b819291549060031b600019811b9283911b16911916179055600080f35b83634e487b7160e01b60005260416004526000fd5b600560208261159f600194518661519f565b0192019201919061150f565b8060050290600582040361162657836005026005810485036116115783600052602060002091820191015b8181106115e357506114fe565b8060006005925560006001820155600060028201556116046003820161510a565b60006004820155016115d6565b87634e487b7160e01b60005260116004526000fd5b86634e487b7160e01b60005260116004526000fd5b85634e487b7160e01b60005260416004526000fd5b01519050888061146c565b90600d840160005260206000209160005b601f19851681106116b9575092610240949260019260109583601f198116106116a0575b505050811b01600d820155611484565b015160001960f88460031b161c19169055888080611690565b9192602060018192868501518155019401920161166c565b015190508680611403565b9250600c84016000526020600020906000935b601f1984168510611733576001945083601f1981161061171a575b505050811b01600c82015561141b565b015160001960f88460031b161c1916905586808061170a565b818101518355602094850194600190930192909101906116ef565b015190508680611397565b9250600a84016000526020600020906000935b601f19841685106117b0576001945083601f19811610611797575b505050811b01600a8201556113af565b015160001960f88460031b161c19169055868080611787565b8181015183556020948501946001909301929091019061176c565b015190508680611336565b9250600984016000526020600020906000935b601f198416851061182d576001945083601f19811610611814575b505050811b01600982015561134e565b015160001960f88460031b161c19169055868080611804565b818101518355602094850194600190930192909101906117e9565b80518051906001600160401b03821161192b5761186f826118698654614537565b866150c5565b602090601f83116001146118bb5792826001949360209386956000926118b0575b5050600019600383901b1c191690841b1785555b019201920191906112e2565b015190508d80611890565b908460005260206000209160005b601f1985168110611913575083602093600196938796938794601f198116106118fa575b505050811b0185556118a4565b015160001960f88460031b161c191690558d80806118ed565b919260206001819286850151815501940192016118c9565b89634e487b7160e01b60005260416004526000fd5b0151905086806112a2565b9250600784016000526020600020906000935b601f19841685106119a2576001945083601f19811610611989575b505050811b0160078201556112ba565b015160001960f88460031b161c19169055868080611979565b8181015183556020948501946001909301929091019061195e565b015190508680611242565b9250600684016000526020600020906000935b601f1984168510611a1f576001945083601f19811610611a06575b505050811b01600682015561125a565b015160001960f88460031b161c191690558680806119f6565b818101518355602094850194600190930192909101906119db565b0151905086806111ce565b9250600384016000526020600020906000935b601f1984168510611a9c576001945083601f19811610611a83575b505050811b0160038201556111e6565b015160001960f88460031b161c19169055868080611a73565b81810151835560209485019460019093019290910190611a58565b01519050868061116e565b9250600284016000526020600020906000935b601f1984168510611b19576001945083601f19811610611b00575b505050811b016002820155611186565b015160001960f88460031b161c19169055868080611af0565b81810151835560209485019460019093019290910190611ad5565b60405162461bcd60e51b8152602060048201819052818501527f4552433732313a206d696e7420746f20746865207a65726f20616464726573736044820152606490fd5b6001600160401b038435116104d85760208091611b983687358601614444565b815201930192610f92565b346104d8576003196040368201126104d8576001600160401b03602435116104d8576101a090602435360301126104d85733600052600f60205260ff60406000205416600481101561071f576002611bfb9114614b6b565b600435600052600c6020523360018060a01b03600160406000200154160361264c576004356000526013602052611c3960ff60406000205416615315565b600435600052600c602052611c5c60ff600f6040600020015460101c161561535a565b611c6e610d3860046024350180614bad565b611c84610d596024803501602435600401614bad565b611c95604460243501351515614c6e565b611cac610dbb60c460243501602435600401614d4a565b611cc56005610ddd60c460243501602435600401614d4a565b611cd6606460243501351515614cba565b611ced610d9b608460243501602435600401614bad565b611d04610dfc60a460243501602435600401614bad565b611d1b610e1c60e460243501602435600401614bad565b611d33610e3d61010460243501602435600401614bad565b611d4b610e5e61012460243501602435600401614bad565b611d63610e7f61014460243501602435600401614bad565b611d7561016460243501351515614f73565b611d8761018460243501351515614fbf565b611d9660046024350180614bad565b600435600052600c6020526002604060002001906001600160401b03811161222157611dcc81611dc68454614537565b846150c5565b600092601f82116001146125e357928192936000926125d8575b50508160011b916000199060031b1c19161790555b611e0e6024803501602435600401614bad565b600435600052600c6020526003604060002001906001600160401b03811161222157611e3e81611dc68454614537565b600092601f821160011461256f5792819293600092612564575b50508160011b916000199060031b1c19161790555b600435600052600c6020526044602435013560046040600020015560646024350135600560406000200155611eac608460243501602435600401614bad565b6006604060002001906001600160401b03811161222157611ed181611dc68454614537565b600092601f82116001146124fb57928192936000926124f0575b50508160011b916000199060031b1c19161790555b611f1460a460243501602435600401614bad565b600435600052600c6020526007604060002001906001600160401b03811161222157611f4481611dc68454614537565b600092601f8211600114612487579281929360009261247c575b50508160011b916000199060031b1c19161790555b611f8760c460243501602435600401614d4a565b600435600052600c602052600860406000200191611fa58284615156565b60009283526020832090805b83851061239357611fcc60e460243501602435600401614bad565b600435600052600c6020526009604060002001906001600160401b03811161222157611ffc81611dc68454614537565b600092601f821160011461232a579281929360009261231f575b50508160011b916000199060031b1c19161790555b61204061010460243501602435600401614bad565b600435600052600c602052600a604060002001906001600160401b0381116122215761207081611dc68454614537565b600092601f82116001146122b657928192936000926122ab575b50508160011b916000199060031b1c19161790555b6120b461012460243501602435600401614bad565b600435600052600c602052600c604060002001906001600160401b038111612221576120e481611dc68454614537565b600092601f82116001146122425792819293600092612237575b50508160011b916000199060031b1c19161790555b61212861014460243501602435600401614bad565b600435600052600c602052600d604060002001906001600160401b0381116122215761215881611dc68454614537565b6000601f82116001146121bc578192936000926121b1575b50508160011b916000199060031b1c19161790555b6004356000908152600c60205260409020602435610164810135600b8301556101840135600e90910155005b013590508380612170565b601f198216938360005260206000209160005b86811061220957508360019596106121ef575b505050811b019055612185565b0135600019600384901b60f8161c191690558380806121e2565b909260206001819286860135815501940191016121cf565b634e487b7160e01b600052604160045260246000fd5b0135905083806120fe565b826000526020600020906000945b601f198416861061229357600194955083601f19811610612279575b505050811b019055612113565b0135600019600384901b60f8161c1916905583808061226c565b91602060018192858501358155019301950194612250565b01359050838061208a565b826000526020600020906000945b601f198416861061230757600194955083601f198116106122ed575b505050811b01905561209f565b0135600019600384901b60f8161c191690558380806122e0565b916020600181928585013581550193019501946122c4565b013590508380612016565b826000526020600020906000945b601f198416861061237b57600194955083601f19811610612361575b505050811b01905561202b565b0135600019600384901b60f8161c19169055838080612354565b91602060018192858501358155019301950194612338565b61239d8183614bad565b906001600160401b038211612221576123c0826123ba8754614537565b876150c5565b600090601f831160011461240c579282600194936020938695600092612401575b5050600019600383901b1c191690841b1786555b01930194019391611fb1565b013590508a806123e1565b8560005260206000209160005b601f1985168110612464575083602093600196938796938794601f1981161061244a575b505050811b0186556123f5565b0135600019600384901b60f8161c191690558a808061243d565b90926020600181928686013581550194019101612419565b013590508380611f5e565b826000526020600020906000945b601f19841686106124d857600194955083601f198116106124be575b505050811b019055611f73565b0135600019600384901b60f8161c191690558380806124b1565b91602060018192858501358155019301950194612495565b013590508380611eeb565b826000526020600020906000945b601f198416861061254c57600194955083601f19811610612532575b505050811b019055611f00565b0135600019600384901b60f8161c19169055838080612525565b91602060018192858501358155019301950194612509565b013590508380611e58565b826000526020600020906000945b601f19841686106125c057600194955083601f198116106125a6575b505050811b019055611e6d565b0135600019600384901b60f8161c19169055838080612599565b9160206001819285850135815501930195019461257d565b013590508380611de6565b826000526020600020906000945b601f198416861061263457600194955083601f1981161061261a575b505050811b019055611dfb565b0135600019600384901b60f8161c1916905583808061260d565b916020600181928585013581550193019501946125f1565b60405162461bcd60e51b815260206004820152602860248201527f4f6e6c79207468652073656c6c65722063616e20757064617465207468656972604482015267081c1c9bd91d58dd60c21b6064820152608490fd5b346104d85760203660031901126104d8576004356000526013602052602060ff604060002054166040519015158152f35b346104d85760403660031901126104d8576126ec614338565b60243590811515908183036104d8576001600160a01b0316913383146127695761273b9033600052600760205260406000208460005260205260406000209060ff801983541691151516179055565b6040519081527f17307eab39ab6107e8899845ad3d59bd9653f200f220920489ca2b5937696c3160203392a3005b60405162461bcd60e51b815260206004820152601960248201527f4552433732313a20617070726f766520746f2063616c6c6572000000000000006044820152606490fd5b346104d85760403660031901126104d8576127c7614338565b6001600160a01b0390811660009081526010602052604090208054602435908110156104d8576107d391614617565b346104d8576020806003193601126104d8576004359081600052600c9182825260ff90600f604060002001549061283383601093841c161561535a565b806000526013845261284b8360406000205416615315565b60009460005b8260005281865283604060002001548110156128a75784600461287a8387604060002001615420565b5001541615612892575b61288d9061543c565b612851565b9561289f61288d9161543c565b969050612884565b509092936128b486615097565b956128c260405197886143d1565b8087526128d1601f1991615097565b018160005b82811061297f5750505060009360005b81600052838352846040600020015481101561296c5786600461290f8388604060002001615420565b5001541615612927575b6129229061543c565b6128e6565b94612964612922918360005285855261294f6129498989604060002001615420565b5061545f565b612959828c61544b565b52610418818b61544b565b959050612919565b604051838152806102358186018b61409f565b6129876153f5565b82828b0101520182906128d6565b346104d85760403660031901126104d8576129ae614338565b60249081359060048210156104d8576129c5614661565b6001600160a01b0316918215612b5457826000526020906012825260ff6040600020541615612b195783600052600f825260ff604060002054166004811015612acc578314612ae15760028314612a68575b507fd8f7bcb2c5cffc294a0aaef719685993d7be95273fb8254803a1563510ccefed91600f612a63928560005252604060002060ff1981541660ff831617905560405191829182614524565b0390a2005b83600052600f825260ff604060002054166004811015612acc57600114612a175790601f6064926040519262461bcd60e51b845260048401528201527f43616e206f6e6c79207665726966792070656e64696e672073656c6c657273006044820152fd5b50634e487b7160e01b60009081526021600452fd5b9060126064926040519262461bcd60e51b845260048401528201527114dd185d1d5cc8185b1c9958591e481cd95d60721b6044820152fd5b9060156064926040519262461bcd60e51b845260048401528201527414d95b1b195c881b9bdd081c9959da5cdd195c9959605a1b6044820152fd5b60649060166040519162461bcd60e51b83526020600484015282015275496e76616c69642073656c6c6572206164647265737360501b6044820152fd5b346104d85760003660031901126104d8576040516000600354612bb381614537565b80845290600190818116908115612c4c5750600114612bf1575b61023584612bdd818603826143d1565b60405191829160208352602083019061405f565b6003600090815292507fc2575a0e9e593c00f959f8c92f12db2869c3395a3b0502d05e2516446f71f85b5b828410612c34575050508101602001612bdd82612bcd565b80546020858701810191909152909301928101612c1c565b60ff191660208087019190915292151560051b85019092019250612bdd9150839050612bcd565b346104d85760003660031901126104d8576000546040516001600160a01b039091168152602090f35b6020806003193601126104d85760043590600191600283541461305b576002835580600052600c9081835260018060a01b0380856040600020015416600052600f845260ff60406000205416600481101561071f5760020361301d578160005260138452612d1160ff60406000205416615315565b81600052828452612d3060ff600f6040600020015460101c161561535a565b8160005282845260056040600020015415612fd8578160005282845260ff600f6040600020015416612f935781600052828452808560406000200154163314612f4e578160005282845260046040600020015492833410612f145782600052808552600560406000200180548015612ee7576000190190558260005280855260056040600020015415612efd575b81866040600020015416612e26604051612dd781614380565b85815286888201528660408201524260608201523360808201528260a0820152600060c08201523360005260108852612e1481604060002061550c565b8260005260118852604060002061550c565b80600052600e86526040600020805490868201809211612ee757556040518581528587820152426040820152847f45280c7ac9cec77edd454e39e1641a3e22619146cf074a4239beee86a7c07edc60603393a48560095401600955612e8b84346154ff565b80612ed7575b508260005284528460406000200154169260405192835242908301527fbe6177108f4df43c5d7be79cb219c969fc97915bbdb4b56d14d391dcdcc1606060403393a48055005b612ee190336155c1565b86612e91565b634e487b7160e01b600052601160045260246000fd5b6040600020600f01805460ff191687179055612dbe565b60405162461bcd60e51b8152600481018690526012602482015271496e73756666696369656e742066756e647360701b6044820152606490fd5b60405162461bcd60e51b815260048101859052601b60248201527f43616e6e6f742062757920796f7572206f776e2070726f6475637400000000006044820152606490fd5b60405162461bcd60e51b815260048101859052601a60248201527f50726f6475637420697320616c726561647920736f6c646f75740000000000006044820152606490fd5b60405162461bcd60e51b815260048101859052601760248201527f50726f64756374206973206f7574206f662073746f636b0000000000000000006044820152606490fd5b60405162461bcd60e51b815260048101859052601660248201527514d95b1b195c881a5cc81b9bdd081d995c9a599a595960521b6044820152606490fd5b60405162461bcd60e51b815260048101839052601f60248201527f5265656e7472616e637947756172643a207265656e7472616e742063616c6c006044820152606490fd5b346104d85760203660031901126104d8576004356000908152600c60205260409020805460018201546001600160a01b0316916130df60028201614571565b6130eb60038301614571565b600483015460058401549061310260068601614571565b61310e60078701614571565b61311a60098801614571565b90613127600a8901614571565b92600b89015494600c8a0161313b90614571565b96613148600d8c01614571565b98600e8c01549b600f01549a6040519e8f9e8f908152602001528d61022090816040820152016131779161405f565b8d810360608f01526131889161405f565b9160808d015260a08c01528a810360c08c01526131a49161405f565b89810360e08b01526131b59161405f565b8881036101008a01526131c79161405f565b8781036101208901526131d99161405f565b906101408701528581036101608701526131f29161405f565b8481036101808601526132049161405f565b916101a084015260ff811615156101c08401528060081c60ff1615156101e084015260101c60ff1615156102008301520390f35b346104d85760003660031901126104d857613251614661565b600080546001600160a01b0319811682556001600160a01b03167f8be0079c531659141344cd1fd0a4f28419497f9722a3daafe3b4186f6b6457e08280a3005b346104d85760203660031901126104d8576001600160a01b036132b2614338565b1680156132d15760005260056020526020604060002054604051908152f35b60405162461bcd60e51b815260206004820152602960248201527f4552433732313a2061646472657373207a65726f206973206e6f7420612076616044820152683634b21037bbb732b960b91b6064820152608490fd5b346104d85760203660031901126104d8576020613346600435614705565b6040516001600160a01b039091168152f35b346104d85760203660031901126104d8576001600160a01b03613379614338565b16600052600e6020526020604060002054604051908152f35b346104d85760003660031901126104d85733600052601260205260ff6040600020541661341557336000526012602052604060002060ff1990600182825416179055600f60205260016040600020918254161790556040514281527fa1a1a78ff3033d5ee8393372052aeb2a16bbb347a29f3780370e9506c109e37260203392a2005b60405162461bcd60e51b8152602060048201526012602482015271105b1c9958591e481c9959da5cdd195c995960721b6044820152606490fd5b346104d85760203660031901126104d8576001600160a01b03613470614338565b16600052600f60205261023560ff6040600020541660405191829182614524565b346104d85761349f3661445f565b6040519160208301938385106001600160401b0386111761222157610bf994604052600084526147c8565b346104d85760003660031901126104d85733600052600f60205260ff60406000205416600481101561071f5760021480156135d6575b6135099061539b565b33600052600e602052604060002054801561359857600b54908181029181830403612ee7576135636135426064613569940480936154ff565b9133600052600e6020526000604081205560018060a01b03600054166155c1565b336155c1565b604051600081527f8ad64a0ac7700dd8425ab0499f107cb6e2cd1581d803c5b8c1c79dcb8190b1af60203392a2005b60405162461bcd60e51b81526020600482015260166024820152754e6f2062616c616e636520746f20776974686472617760501b6044820152606490fd5b506000546001600160a01b03163314613500565b346104d8576020806003193601126104d8576001600160a01b03908161360e614338565b1660005260118152604060002080549061362782615097565b9261363560405194856143d1565b82845260009182528082208185015b84841061365957604051806102358882614494565b60068360019260405161366b81614380565b85548152848601548382015260028601546040820152600386015460608201528a600487015416608082015260ff600587015460a08d8216818501521c16151560c0820152815201920193019290613644565b346104d85760403660031901126104d857602480356004356000805b82600052600c60209080825260109182604060002001548410156138db57866137098585604060002001615420565b5054146137215750505061371c9061543c565b6136da565b9193509193946000526014815260ff9485604060002054161561389f57806000528282526137558585604060002001615420565b50600190810154909690336001600160a01b0391821614908115613891575b501561383c578160005283835260046137938787604060002001615420565b500154166137ff57916137b493916004959360005252604060002001615420565b5001805460ff1916821790555b156137c857005b60649060106040519162461bcd60e51b8352602060048401528201526f14995d9a595dc81b9bdd08199bdd5b9960821b6044820152fd5b60405162461bcd60e51b8152600481018390526016818901527514995d9a595dc8185b1c9958591e4819195b195d195960521b6044820152606490fd5b60405162461bcd60e51b8152600481018490526028818a01527f4f6e6c79207265766965776572206f72206f776e65722063616e2064656c6574604482015267652072657669657760c01b6064820152608490fd5b600054163314905089613774565b60405162461bcd60e51b8152600481018390526015818901527414995d9a595dc8191bd95cc81b9bdd08195e1a5cdd605a1b6044820152606490fd5b505050509150506137c1565b346104d857610bf96138f83661445f565b9161390b6139068433614863565b614766565b61492b565b346104d85760603660031901126104d857602460043581356044356001600160401b0381116104d857613947903690600401614444565b9180600052602091600c835260018060a01b03600160406000200154163314613a995780151580613a8e575b15613a4a57835115613a065790600c929161398c6153f5565b94600a5491828752338588015260408701526060860152600052601482526040600020600160ff198254161790556000525260106040600020018054600160401b811015611578576139e391600182018155615420565b6139f157610bf9925061519f565b82634e487b7160e01b60005260006004526000fd5b60405162461bcd60e51b8152600481018490526017818701527f436f6d6d656e742063616e6e6f7420626520656d7074790000000000000000006044820152606490fd5b60405162461bcd60e51b815260048101849052601e818701527f526174696e67206d757374206265206265747765656e203120616e64203500006044820152606490fd5b506005811115613973565b60405162461bcd60e51b8152600481018490526026818701527f53656c6c65722063616e6e6f7420726576696577207468656972206f776e20706044820152651c9bd91d58dd60d21b6064820152608490fd5b346104d85760403660031901126104d857613b05614338565b602435906001600160a01b038080613b1c85614705565b16921691808314613c1757803314908115613bf2575b5015613b8757600083815260066020526040902080546001600160a01b03191683179055613b5f83614705565b167f8c5be1e5ebec7d5bd14f71427d1e84f3dd0314c0f7b2291e5b200ac8c7c3b925600080a4005b60405162461bcd60e51b815260206004820152603d60248201527f4552433732313a20617070726f76652063616c6c6572206973206e6f7420746f60448201527f6b656e206f776e6572206f7220617070726f76656420666f7220616c6c0000006064820152608490fd5b9050600052600760205260406000203360005260205260ff6040600020541684613b32565b60405162461bcd60e51b815260206004820152602160248201527f4552433732313a20617070726f76616c20746f2063757272656e74206f776e656044820152603960f91b6064820152608490fd5b346104d85760203660031901126104d8576020613346600435614728565b346104d85760003660031901126104d8576040516000600254613ca681614537565b80845290600190818116908115612c4c5750600114613ccf5761023584612bdd818603826143d1565b6002600090815292507f405787fa12a823e0f2b7631cc41b3ba8828b3321ca811111fa75cd3aa3bb5ace5b828410613d12575050508101602001612bdd82612bcd565b80546020858701810191909152909301928101613cfa565b346104d85760003660031901126104d857600854600060015b82811115613f835750613d55906154af565b90600060015b82811115613d71576040518061023586826142d6565b80600052600c60205260ff600f6040600020015460101c1615613d9d575b613d989061543c565b613d5b565b90604060002060405190613db082614364565b8054825260018101546001600160a01b03166020830152613dd360028201614571565b6040830152613de460038201614571565b606083015260048101546080830152600581015460a0830152613e0960068201614571565b60c0830152613e1a60078201614571565b60e0830152600881018054613e2e81615097565b91613e3c60405193846143d1565b81835260208301906000526020600020906000905b838210613f665750505050610100830152601090613e7160098201614571565b610120840152613e83600a8201614571565b610140840152600b810154610160840152613ea0600c8201614571565b610180840152613eb2600d8201614571565b6101a0840152600e8101546101c084015260ff600f82015481811615156101e0860152818160081c161515610200860152831c16151561022084015201805490613efb82615097565b91613f0960405193846143d1565b808352602083019160005260206000206000925b828410613f485750505050610240820152613d9891613f409161040d828861544b565b919050613d8f565b60056020600192613f588561545f565b815201920193019290613f1d565b600160208192613f7586614571565b815201930191019091613e51565b80600052600c60205260ff600f6040600020015460101c1615613faf575b613faa9061543c565b613d43565b90613fbc613faa9161543c565b919050613fa1565b346104d85760203660031901126104d85760043563ffffffff60e01b81168091036104d8576020906380ac58cd60e01b8114908115614021575b8115614010575b506040519015158152f35b6301ffc9a760e01b14905082614005565b635b5e139f60e01b81149150613ffe565b346104d85760203660031901126104d8576020906004356000526014825260ff6040600020541615158152f35b919082519283825260005b84811061408b575050826000602080949584010152601f8019910116010190565b60208183018101518483018201520161406a565b908082519081815260208091019281808460051b8301019501936000915b8483106140cd5750505050505090565b9091929394958480600192601f1985820301865289519081518152848060a01b038383015116838201526040808301519082015261411a6060808401519060a0809185015283019061405f565b91608080910151151591015298019301930191949392906140bd565b91908251815260209260018060a01b038482015116848301526141bb6141a9614183614171604085015161026080604089015287019061405f565b6060850151868203606088015261405f565b6080840151608086015260a084015160a086015260c084015185820360c087015261405f565b60e083015184820360e086015261405f565b6101009485830151958483039085015285518083528183019180808360051b8601019801926000905b8382106142a65750505050505061425d61424961422a6142166142a3969761012080870151908883039089015261405f565b61014080860151908783039088015261405f565b610160808501519086015261018080850151908683039087015261405f565b6101a080840151908583039086015261405f565b916101c080830151908201526101e0808301511515908201526102008083015115159082015261022080830151151590820152610240809201519181840391015261409f565b90565b90919293949883806142c56001938d601f19908203018652895161405f565b9b97019594939190910191016141e4565b602080820190808352835180925260408301928160408460051b8301019501936000915b84831061430a5750505050505090565b9091929394958480614328600193603f198682030187528a51614136565b98019301930191949392906142fa565b600435906001600160a01b03821682036104d857565b602435906001600160a01b03821682036104d857565b61026081019081106001600160401b0382111761222157604052565b60e081019081106001600160401b0382111761222157604052565b60a081019081106001600160401b0382111761222157604052565b602081019081106001600160401b0382111761222157604052565b90601f801991011681019081106001600160401b0382111761222157604052565b6001600160401b03811161222157601f01601f191660200190565b929192614419826143f2565b9161442760405193846143d1565b8294818452818301116104d8578281602093846000960137010152565b9080601f830112156104d8578160206142a39335910161440d565b60609060031901126104d8576001600160a01b039060043582811681036104d8579160243590811681036104d8579060443590565b60208082019080835283518092528060408094019401926000905b8382106144be57505050505090565b84518051875280840151878501528082015187830152606080820151908801526080808201516001600160a01b039081169189019190915260a0808301519091169088015260c09081015115159087015260e090950194938201936001909101906144af565b91906020830192600482101561071f5752565b90600182811c92168015614567575b602083101461455157565b634e487b7160e01b600052602260045260246000fd5b91607f1691614546565b906040519182600082549261458584614537565b9081845260019485811690816000146145f457506001146145b1575b50506145af925003836143d1565b565b9093915060005260209081600020936000915b8183106145dc5750506145af935082010138806145a1565b855488840185015294850194879450918301916145c4565b9150506145af94506020925060ff191682840152151560051b82010138806145a1565b8054821015614633576000526006602060002091020190600090565b634e487b7160e01b600052603260045260246000fd5b80548210156146335760005260206000200190600090565b6000546001600160a01b0316330361467557565b606460405162461bcd60e51b815260206004820152602060248201527f4f776e61626c653a2063616c6c6572206973206e6f7420746865206f776e65726044820152fd5b156146c057565b60405162461bcd60e51b815260206004820152601860248201527f4552433732313a20696e76616c696420746f6b656e20494400000000000000006044820152606490fd5b6000908152600460205260409020546001600160a01b03166142a38115156146b9565b60008181526004602052604090205461474b906001600160a01b031615156146b9565b6000908152600660205260409020546001600160a01b031690565b1561476d57565b60405162461bcd60e51b815260206004820152602d60248201527f4552433732313a2063616c6c6572206973206e6f7420746f6b656e206f776e6560448201526c1c881bdc88185c1c1c9bdd9959609a1b6064820152608490fd5b906147ec9392916147dc6139068433614863565b6147e783838361492b565b614a6c565b156147f357565b60405162461bcd60e51b81528061480c60048201614810565b0390fd5b60809060208152603260208201527f4552433732313a207472616e7366657220746f206e6f6e20455243373231526560408201527131b2b4bb32b91034b6b83632b6b2b73a32b960711b60608201520190565b906001600160a01b03808061487784614705565b169316918383149384156148aa575b508315614894575b50505090565b6148a091929350614728565b161438808061488e565b909350600052600760205260406000208260005260205260ff604060002054169238614886565b156148d857565b60405162461bcd60e51b815260206004820152602560248201527f4552433732313a207472616e736665722066726f6d20696e636f72726563742060448201526437bbb732b960d91b6064820152608490fd5b906149539161493984614705565b6001600160a01b03939184169284929091831684146148d1565b169182156149eb57816149709161496986614705565b16146148d1565b7fddf252ad1be2c89b69c2b068fc378daa952ba7f163c4a11628f55a4df523b3ef60008481526006602052604081206001600160601b0360a01b9081815416905583825260056020526040822060001981540190558482526040822060018154019055858252600460205284604083209182541617905580a4565b60405162461bcd60e51b8152602060048201526024808201527f4552433732313a207472616e7366657220746f20746865207a65726f206164646044820152637265737360e01b6064820152608490fd5b3d15614a67573d90614a4d826143f2565b91614a5b60405193846143d1565b82523d6000602084013e565b606090565b91926000929190813b15614b6157602091614ac29185604051958680958194630a85bd0160e11b9b8c845233600485015260018060a01b038095166024850152604484015260806064840152608483019061405f565b0393165af190829082614b12575b5050614b0457614ade614a3c565b80519081614aff5760405162461bcd60e51b81528061480c60048201614810565b602001fd5b6001600160e01b0319161490565b909192506020813d8211614b59575b81614b2e602093836143d1565b81010312614b555751906001600160e01b031982168203614b525750903880614ad0565b80fd5b5080fd5b3d9150614b21565b5050505050600190565b15614b7257565b60405162461bcd60e51b815260206004820152601360248201527214d95b1b195c881b9bdd081d995c9a599a5959606a1b6044820152606490fd5b903590601e19813603018212156104d857018035906001600160401b0382116104d8576020019181360383136104d857565b15614be657565b60405162461bcd60e51b81526020600482015260146024820152734e616d652063616e6e6f7420626520656d70747960601b6044820152606490fd5b15614c2957565b60405162461bcd60e51b815260206004820152601b60248201527f4465736372697074696f6e2063616e6e6f7420626520656d70747900000000006044820152606490fd5b15614c7557565b60405162461bcd60e51b815260206004820152601c60248201527f5072696365206d7573742062652067726561746572207468616e2030000000006044820152606490fd5b15614cc157565b60405162461bcd60e51b815260206004820152601c60248201527f53746f636b206d7573742062652067726561746572207468616e2030000000006044820152606490fd5b15614d0d57565b60405162461bcd60e51b8152602060048201526015602482015274436f6c6f722063616e6e6f7420626520656d70747960581b6044820152606490fd5b903590601e19813603018212156104d857018035906001600160401b0382116104d857602001918160051b360383136104d857565b15614d8657565b60405162461bcd60e51b8152602060048201526016602482015275496d616765732063616e6e6f7420626520656d70747960501b6044820152606490fd5b15614dcb57565b60405162461bcd60e51b815260206004820152601c60248201527f496d616765732063616e6e6f74206265206d6f7265207468616e2035000000006044820152606490fd5b15614e1757565b60405162461bcd60e51b815260206004820152601460248201527353697a652063616e6e6f7420626520656d70747960601b6044820152606490fd5b15614e5a57565b60405162461bcd60e51b815260206004820152601860248201527f43617465676f72792063616e6e6f7420626520656d70747900000000000000006044820152606490fd5b15614ea657565b60405162461bcd60e51b815260206004820152601c60248201527f5375622d63617465676f72792063616e6e6f7420626520656d707479000000006044820152606490fd5b15614ef257565b60405162461bcd60e51b81526020600482015260156024820152744d6f64656c2063616e6e6f7420626520656d70747960581b6044820152606490fd5b15614f3657565b60405162461bcd60e51b81526020600482015260156024820152744272616e642063616e6e6f7420626520656d70747960581b6044820152606490fd5b15614f7a57565b60405162461bcd60e51b815260206004820152601d60248201527f576569676874206d7573742062652067726561746572207468616e20300000006044820152606490fd5b15614fc657565b60405162461bcd60e51b815260206004820152601a60248201527f534b55206d7573742062652067726561746572207468616e20300000000000006044820152606490fd5b6040519061501882614364565b8161024060009182815282602082015260609283604083015283808301528060808301528060a08301528360c08301528360e08301528361010083015283610120830152836101408301528061016083015283610180830152836101a0830152806101c0830152806101e0830152806102008301526102208201520152565b6001600160401b0381116122215760051b60200190565b8181106150b9575050565b600081556001016150ae565b9190601f81116150d457505050565b6145af926000526020600020906020601f840160051c83019310615100575b601f0160051c01906150ae565b90915081906150f3565b6151148154614537565b908161511e575050565b81601f60009311600114615130575055565b8183526020832061514c91601f0160051c8101906001016150ae565b8160208120915555565b90600160401b81116122215781549181815582821061517457505050565b600052602060002091820191015b81811061518d575050565b8061519960019261510a565b01615182565b8151815560019182820160209060018060a01b0382840151166001600160601b0360a01b8254161790556040820151600284015560038301906060830151948551916001600160401b038311612221576151fd836118698654614537565b80601f8411600114615255575091808060809593600497956145af9a60009461524a575b50501b916000199060031b1c19161790555b0151151591019060ff801983541691151516179055565b015192503880615221565b9193949596601f1984168660005283600020936000905b8282106152b2575050926080959285926145af9a99966004999610615299575b505050811b019055615233565b015160001960f88460031b161c1916905538808061528c565b80888697829497870151815501960194019061526c565b156152d057565b60405162461bcd60e51b815260206004820152601c60248201527f4552433732313a20746f6b656e20616c7265616479206d696e746564000000006044820152606490fd5b1561531c57565b60405162461bcd60e51b8152602060048201526016602482015275141c9bd91d58dd08191bd95cc81b9bdd08195e1a5cdd60521b6044820152606490fd5b1561536157565b60405162461bcd60e51b8152602060048201526012602482015271141c9bd91d58dd081a5cc819195b195d195960721b6044820152606490fd5b156153a257565b60405162461bcd60e51b815260206004820152602560248201527f4f6e6c792076657269666965642073656c6c6572206f72206f776e657220616c6044820152641b1bddd95960da1b6064820152608490fd5b604051906154028261439b565b60006080838281528260208201528260408201526060808201520152565b8054821015614633576000526005602060002091020190600090565b6000198114612ee75760010190565b80518210156146335760209160051b010190565b9060405161546c8161439b565b608060ff600483958054855260018060a01b036001820154166020860152600281015460408601526154a060038201614571565b60608601520154161515910152565b906154b982615097565b6154c660405191826143d1565b82815280926154d7601f1991615097565b019060005b8281106154e857505050565b6020906154f361500b565b828285010152016154dc565b91908203918211612ee757565b8054600160401b8110156122215761552991600182018155614617565b9190916155ab57805182556020810151600183015560408101516002830155606081015160038301556005600483019260018060a01b0393846080850151166001600160601b0360a01b825416179055019160a08201511682549160c060ff60a01b910151151560a01b16916affffffffffffffffffffff60a81b1617179055565b634e487b7160e01b600052600060045260246000fd5b6001600160a01b0316801561562057600080809381935af16155e1614a3c565b50156155e957565b60405162461bcd60e51b815260206004820152600f60248201526e151c985b9cd9995c8819985a5b1959608a1b6044820152606490fd5b60405162461bcd60e51b815260206004820152600f60248201526e496e76616c6964206164647265737360881b6044820152606490fdfea26469706673582212200ab6edeef1ba9ab3396ef6e08e649863699db9ed6b6737fbcfae8951a2f9cd1264736f6c63430008110033",
  "linkReferences": {},
  "deployedLinkReferences": {}
}