{
  "_format": "hh-sol-artifact-1",
  "contractName": "HemShop",
  "sourceName": "contracts/HemShop.sol",
  "abi": [
    {
      "inputs": [
        {
          "internalType": "uint256",
          "name": "_pct",
          "type": "uint256"
        }
      ],
      "stateMutability": "nonpayable",
      "type": "constructor"
    },
    {
      "anonymous": false,
      "inputs": [
        {
          "indexed": false,
          "internalType": "address",
          "name": "admin",
          "type": "address"
        },
        {
          "indexed": false,
          "internalType": "address",
          "name": "impersonatedAccount",
          "type": "address"
        }
      ],
      "name": "AdminImpersonationChanged",
      "type": "event"
    },
    {
      "anonymous": false,
      "inputs": [
        {
          "indexed": true,
          "internalType": "address",
          "name": "owner",
          "type": "address"
        },
        {
          "indexed": true,
          "internalType": "address",
          "name": "approved",
          "type": "address"
        },
        {
          "indexed": true,
          "internalType": "uint256",
          "name": "tokenId",
          "type": "uint256"
        }
      ],
      "name": "Approval",
      "type": "event"
    },
    {
      "anonymous": false,
      "inputs": [
        {
          "indexed": true,
          "internalType": "address",
          "name": "owner",
          "type": "address"
        },
        {
          "indexed": true,
          "internalType": "address",
          "name": "operator",
          "type": "address"
        },
        {
          "indexed": false,
          "internalType": "bool",
          "name": "approved",
          "type": "bool"
        }
      ],
      "name": "ApprovalForAll",
      "type": "event"
    },
    {
      "anonymous": false,
      "inputs": [
        {
          "indexed": true,
          "internalType": "address",
          "name": "seller",
          "type": "address"
        },
        {
          "indexed": false,
          "internalType": "uint256",
          "name": "newBalance",
          "type": "uint256"
        }
      ],
      "name": "BalanceUpdated",
      "type": "event"
    },
    {
      "anonymous": false,
      "inputs": [
        {
          "indexed": true,
          "internalType": "uint256",
          "name": "id",
          "type": "uint256"
        },
        {
          "indexed": false,
          "internalType": "string",
          "name": "name",
          "type": "string"
        }
      ],
      "name": "CategoryCreated",
      "type": "event"
    },
    {
      "anonymous": false,
      "inputs": [
        {
          "indexed": true,
          "internalType": "uint256",
          "name": "id",
          "type": "uint256"
        },
        {
          "indexed": false,
          "internalType": "string",
          "name": "name",
          "type": "string"
        },
        {
          "indexed": false,
          "internalType": "bool",
          "name": "isActive",
          "type": "bool"
        }
      ],
      "name": "CategoryUpdated",
      "type": "event"
    },
    {
      "anonymous": false,
      "inputs": [
        {
          "indexed": true,
          "internalType": "uint256",
          "name": "productId",
          "type": "uint256"
        },
        {
          "indexed": true,
          "internalType": "address",
          "name": "buyer",
          "type": "address"
        },
        {
          "indexed": false,
          "internalType": "bool",
          "name": "isDelivered",
          "type": "bool"
        }
      ],
      "name": "DeliveryStatusUpdated",
      "type": "event"
    },
    {
      "anonymous": false,
      "inputs": [
        {
          "indexed": true,
          "internalType": "address",
          "name": "previousOwner",
          "type": "address"
        },
        {
          "indexed": true,
          "internalType": "address",
          "name": "newOwner",
          "type": "address"
        }
      ],
      "name": "OwnershipTransferred",
      "type": "event"
    },
    {
      "anonymous": false,
      "inputs": [
        {
          "indexed": true,
          "internalType": "uint256",
          "name": "productId",
          "type": "uint256"
        },
        {
          "indexed": true,
          "internalType": "address",
          "name": "buyer",
          "type": "address"
        },
        {
          "indexed": true,
          "internalType": "address",
          "name": "seller",
          "type": "address"
        },
        {
          "indexed": false,
          "internalType": "uint256",
          "name": "price",
          "type": "uint256"
        },
        {
          "indexed": false,
          "internalType": "uint256",
          "name": "timestamp",
          "type": "uint256"
        }
      ],
      "name": "ProductPurchased",
      "type": "event"
    },
    {
      "anonymous": false,
      "inputs": [
        {
          "indexed": true,
          "internalType": "uint256",
          "name": "productId",
          "type": "uint256"
        },
        {
          "indexed": true,
          "internalType": "address",
          "name": "buyer",
          "type": "address"
        },
        {
          "indexed": true,
          "internalType": "address",
          "name": "seller",
          "type": "address"
        },
        {
          "indexed": false,
          "internalType": "uint256",
          "name": "totalAmount",
          "type": "uint256"
        },
        {
          "indexed": false,
          "internalType": "uint256",
          "name": "basePrice",
          "type": "uint256"
        },
        {
          "indexed": false,
          "internalType": "uint256",
          "name": "timestamp",
          "type": "uint256"
        }
      ],
      "name": "PurchaseRecorded",
      "type": "event"
    },
    {
      "anonymous": false,
      "inputs": [
        {
          "indexed": true,
          "internalType": "address",
          "name": "seller",
          "type": "address"
        },
        {
          "indexed": false,
          "internalType": "uint256",
          "name": "timestamp",
          "type": "uint256"
        }
      ],
      "name": "SellerRegistered",
      "type": "event"
    },
    {
      "anonymous": false,
      "inputs": [
        {
          "indexed": true,
          "internalType": "address",
          "name": "seller",
          "type": "address"
        },
        {
          "indexed": false,
          "internalType": "enum HemShop.SellerStatus",
          "name": "status",
          "type": "uint8"
        }
      ],
      "name": "SellerStatusUpdated",
      "type": "event"
    },
    {
      "anonymous": false,
      "inputs": [
        {
          "indexed": true,
          "internalType": "uint256",
          "name": "id",
          "type": "uint256"
        },
        {
          "indexed": true,
          "internalType": "uint256",
          "name": "parentId",
          "type": "uint256"
        },
        {
          "indexed": false,
          "internalType": "string",
          "name": "name",
          "type": "string"
        }
      ],
      "name": "SubCategoryCreated",
      "type": "event"
    },
    {
      "anonymous": false,
      "inputs": [
        {
          "indexed": true,
          "internalType": "uint256",
          "name": "id",
          "type": "uint256"
        },
        {
          "indexed": false,
          "internalType": "string",
          "name": "name",
          "type": "string"
        },
        {
          "indexed": false,
          "internalType": "bool",
          "name": "isActive",
          "type": "bool"
        }
      ],
      "name": "SubCategoryUpdated",
      "type": "event"
    },
    {
      "anonymous": false,
      "inputs": [
        {
          "indexed": true,
          "internalType": "address",
          "name": "from",
          "type": "address"
        },
        {
          "indexed": true,
          "internalType": "address",
          "name": "to",
          "type": "address"
        },
        {
          "indexed": true,
          "internalType": "uint256",
          "name": "tokenId",
          "type": "uint256"
        }
      ],
      "name": "Transfer",
      "type": "event"
    },
    {
      "anonymous": false,
      "inputs": [
        {
          "indexed": true,
          "internalType": "address",
          "name": "user",
          "type": "address"
        },
        {
          "indexed": false,
          "internalType": "string",
          "name": "name",
          "type": "string"
        }
      ],
      "name": "UserRegistered",
      "type": "event"
    },
    {
      "inputs": [
        {
          "internalType": "address",
          "name": "",
          "type": "address"
        }
      ],
      "name": "adminImpersonating",
      "outputs": [
        {
          "internalType": "address",
          "name": "",
          "type": "address"
        }
      ],
      "stateMutability": "view",
      "type": "function"
    },
    {
      "inputs": [
        {
          "internalType": "address",
          "name": "to",
          "type": "address"
        },
        {
          "internalType": "uint256",
          "name": "tokenId",
          "type": "uint256"
        }
      ],
      "name": "approve",
      "outputs": [],
      "stateMutability": "nonpayable",
      "type": "function"
    },
    {
      "inputs": [
        {
          "internalType": "address",
          "name": "owner",
          "type": "address"
        }
      ],
      "name": "balanceOf",
      "outputs": [
        {
          "internalType": "uint256",
          "name": "",
          "type": "uint256"
        }
      ],
      "stateMutability": "view",
      "type": "function"
    },
    {
      "inputs": [
        {
          "internalType": "uint256",
          "name": "productId",
          "type": "uint256"
        },
        {
          "components": [
            {
              "internalType": "string",
              "name": "fullName",
              "type": "string"
            },
            {
              "internalType": "string",
              "name": "streetAddress",
              "type": "string"
            },
            {
              "internalType": "string",
              "name": "city",
              "type": "string"
            },
            {
              "internalType": "string",
              "name": "state",
              "type": "string"
            },
            {
              "internalType": "string",
              "name": "country",
              "type": "string"
            },
            {
              "internalType": "string",
              "name": "postalCode",
              "type": "string"
            },
            {
              "internalType": "string",
              "name": "phone",
              "type": "string"
            },
            {
              "internalType": "string",
              "name": "email",
              "type": "string"
            }
          ],
          "internalType": "struct HemShop.ShippingDetails",
          "name": "shippingDetails",
          "type": "tuple"
        }
      ],
      "name": "buyProduct",
      "outputs": [],
      "stateMutability": "payable",
      "type": "function"
    },
    {
      "inputs": [
        {
          "internalType": "address",
          "name": "",
          "type": "address"
        },
        {
          "internalType": "uint256",
          "name": "",
          "type": "uint256"
        }
      ],
      "name": "buyerPurchaseHistory",
      "outputs": [
        {
          "internalType": "uint256",
          "name": "productId",
          "type": "uint256"
        },
        {
          "internalType": "uint256",
          "name": "totalAmount",
          "type": "uint256"
        },
        {
          "internalType": "uint256",
          "name": "basePrice",
          "type": "uint256"
        },
        {
          "internalType": "uint256",
          "name": "timestamp",
          "type": "uint256"
        },
        {
          "internalType": "address",
          "name": "buyer",
          "type": "address"
        },
        {
          "internalType": "address",
          "name": "seller",
          "type": "address"
        },
        {
          "internalType": "bool",
          "name": "isDelivered",
          "type": "bool"
        },
        {
          "components": [
            {
              "internalType": "string",
              "name": "fullName",
              "type": "string"
            },
            {
              "internalType": "string",
              "name": "streetAddress",
              "type": "string"
            },
            {
              "internalType": "string",
              "name": "city",
              "type": "string"
            },
            {
              "internalType": "string",
              "name": "state",
              "type": "string"
            },
            {
              "internalType": "string",
              "name": "country",
              "type": "string"
            },
            {
              "internalType": "string",
              "name": "postalCode",
              "type": "string"
            },
            {
              "internalType": "string",
              "name": "phone",
              "type": "string"
            },
            {
              "internalType": "string",
              "name": "email",
              "type": "string"
            }
          ],
          "internalType": "struct HemShop.ShippingDetails",
          "name": "shippingDetails",
          "type": "tuple"
        }
      ],
      "stateMutability": "view",
      "type": "function"
    },
    {
      "inputs": [
        {
          "internalType": "uint256",
          "name": "newPct",
          "type": "uint256"
        }
      ],
      "name": "changeServicePct",
      "outputs": [],
      "stateMutability": "nonpayable",
      "type": "function"
    },
    {
      "inputs": [
        {
          "internalType": "string",
          "name": "_name",
          "type": "string"
        }
      ],
      "name": "createCategory",
      "outputs": [],
      "stateMutability": "nonpayable",
      "type": "function"
    },
    {
      "inputs": [
        {
          "components": [
            {
              "internalType": "string",
              "name": "name",
              "type": "string"
            },
            {
              "internalType": "string",
              "name": "description",
              "type": "string"
            },
            {
              "internalType": "uint256",
              "name": "price",
              "type": "uint256"
            },
            {
              "internalType": "uint256",
              "name": "stock",
              "type": "uint256"
            },
            {
              "internalType": "string[]",
              "name": "colors",
              "type": "string[]"
            },
            {
              "internalType": "string[]",
              "name": "sizes",
              "type": "string[]"
            },
            {
              "internalType": "string[]",
              "name": "images",
              "type": "string[]"
            },
            {
              "internalType": "uint256",
              "name": "categoryId",
              "type": "uint256"
            },
            {
              "internalType": "uint256",
              "name": "subCategoryId",
              "type": "uint256"
            },
            {
              "internalType": "uint256",
              "name": "weight",
              "type": "uint256"
            },
            {
              "internalType": "string",
              "name": "model",
              "type": "string"
            },
            {
              "internalType": "string",
              "name": "brand",
              "type": "string"
            },
            {
              "internalType": "uint256",
              "name": "sku",
              "type": "uint256"
            }
          ],
          "internalType": "struct HemShop.ProductInput",
          "name": "input",
          "type": "tuple"
        }
      ],
      "name": "createProduct",
      "outputs": [],
      "stateMutability": "nonpayable",
      "type": "function"
    },
    {
      "inputs": [
        {
          "internalType": "uint256",
          "name": "productId",
          "type": "uint256"
        },
        {
          "internalType": "uint256",
          "name": "rating",
          "type": "uint256"
        },
        {
          "internalType": "string",
          "name": "comment",
          "type": "string"
        }
      ],
      "name": "createReview",
      "outputs": [],
      "stateMutability": "nonpayable",
      "type": "function"
    },
    {
      "inputs": [
        {
          "internalType": "uint256",
          "name": "parentId",
          "type": "uint256"
        },
        {
          "internalType": "string[]",
          "name": "names",
          "type": "string[]"
        }
      ],
      "name": "createSubCategoriesBulk",
      "outputs": [],
      "stateMutability": "nonpayable",
      "type": "function"
    },
    {
      "inputs": [
        {
          "internalType": "uint256",
          "name": "_parentId",
          "type": "uint256"
        },
        {
          "internalType": "string",
          "name": "_name",
          "type": "string"
        }
      ],
      "name": "createSubCategory",
      "outputs": [],
      "stateMutability": "nonpayable",
      "type": "function"
    },
    {
      "inputs": [
        {
          "internalType": "uint256",
          "name": "_id",
          "type": "uint256"
        }
      ],
      "name": "deleteCategory",
      "outputs": [],
      "stateMutability": "nonpayable",
      "type": "function"
    },
    {
      "inputs": [
        {
          "internalType": "uint256",
          "name": "productId",
          "type": "uint256"
        }
      ],
      "name": "deleteProduct",
      "outputs": [],
      "stateMutability": "nonpayable",
      "type": "function"
    },
    {
      "inputs": [
        {
          "internalType": "uint256",
          "name": "productId",
          "type": "uint256"
        },
        {
          "internalType": "uint256",
          "name": "reviewId",
          "type": "uint256"
        }
      ],
      "name": "deleteReview",
      "outputs": [],
      "stateMutability": "nonpayable",
      "type": "function"
    },
    {
      "inputs": [
        {
          "internalType": "uint256",
          "name": "_id",
          "type": "uint256"
        }
      ],
      "name": "deleteSubCategory",
      "outputs": [],
      "stateMutability": "nonpayable",
      "type": "function"
    },
    {
      "inputs": [],
      "name": "getAllCategories",
      "outputs": [
        {
          "internalType": "uint256[]",
          "name": "ids",
          "type": "uint256[]"
        },
        {
          "internalType": "string[]",
          "name": "names",
          "type": "string[]"
        },
        {
          "internalType": "bool[]",
          "name": "activeStates",
          "type": "bool[]"
        },
        {
          "internalType": "uint256[][]",
          "name": "subCategoryIdArrays",
          "type": "uint256[][]"
        }
      ],
      "stateMutability": "view",
      "type": "function"
    },
    {
      "inputs": [],
      "name": "getAllProducts",
      "outputs": [
        {
          "components": [
            {
              "internalType": "uint256",
              "name": "id",
              "type": "uint256"
            },
            {
              "internalType": "address",
              "name": "seller",
              "type": "address"
            },
            {
              "internalType": "string",
              "name": "name",
              "type": "string"
            },
            {
              "internalType": "string",
              "name": "description",
              "type": "string"
            },
            {
              "internalType": "uint256",
              "name": "price",
              "type": "uint256"
            },
            {
              "internalType": "uint256",
              "name": "stock",
              "type": "uint256"
            },
            {
              "internalType": "string[]",
              "name": "colors",
              "type": "string[]"
            },
            {
              "internalType": "string[]",
              "name": "sizes",
              "type": "string[]"
            },
            {
              "internalType": "string[]",
              "name": "images",
              "type": "string[]"
            },
            {
              "internalType": "string",
              "name": "category",
              "type": "string"
            },
            {
              "internalType": "string",
              "name": "subCategory",
              "type": "string"
            },
            {
              "internalType": "uint256",
              "name": "weight",
              "type": "uint256"
            },
            {
              "internalType": "string",
              "name": "model",
              "type": "string"
            },
            {
              "internalType": "string",
              "name": "brand",
              "type": "string"
            },
            {
              "internalType": "uint256",
              "name": "sku",
              "type": "uint256"
            },
            {
              "internalType": "bool",
              "name": "soldout",
              "type": "bool"
            },
            {
              "internalType": "bool",
              "name": "wishlist",
              "type": "bool"
            },
            {
              "internalType": "bool",
              "name": "deleted",
              "type": "bool"
            },
            {
              "components": [
                {
                  "internalType": "uint256",
                  "name": "reviewId",
                  "type": "uint256"
                },
                {
                  "internalType": "address",
                  "name": "reviewer",
                  "type": "address"
                },
                {
                  "internalType": "uint256",
                  "name": "rating",
                  "type": "uint256"
                },
                {
                  "internalType": "string",
                  "name": "comment",
                  "type": "string"
                },
                {
                  "internalType": "bool",
                  "name": "deleted",
                  "type": "bool"
                },
                {
                  "internalType": "uint256",
                  "name": "timestamp",
                  "type": "uint256"
                }
              ],
              "internalType": "struct HemShop.ReviewStruct[]",
              "name": "reviews",
              "type": "tuple[]"
            }
          ],
          "internalType": "struct HemShop.ProductStruct[]",
          "name": "",
          "type": "tuple[]"
        }
      ],
      "stateMutability": "view",
      "type": "function"
    },
    {
      "inputs": [],
      "name": "getAllRegisteredSellers",
      "outputs": [
        {
          "internalType": "address[]",
          "name": "",
          "type": "address[]"
        }
      ],
      "stateMutability": "view",
      "type": "function"
    },
    {
      "inputs": [
        {
          "internalType": "uint256",
          "name": "tokenId",
          "type": "uint256"
        }
      ],
      "name": "getApproved",
      "outputs": [
        {
          "internalType": "address",
          "name": "",
          "type": "address"
        }
      ],
      "stateMutability": "view",
      "type": "function"
    },
    {
      "inputs": [
        {
          "internalType": "address",
          "name": "buyer",
          "type": "address"
        }
      ],
      "name": "getBuyerPurchaseHistory",
      "outputs": [
        {
          "components": [
            {
              "internalType": "uint256",
              "name": "productId",
              "type": "uint256"
            },
            {
              "internalType": "uint256",
              "name": "totalAmount",
              "type": "uint256"
            },
            {
              "internalType": "uint256",
              "name": "basePrice",
              "type": "uint256"
            },
            {
              "internalType": "uint256",
              "name": "timestamp",
              "type": "uint256"
            },
            {
              "internalType": "address",
              "name": "buyer",
              "type": "address"
            },
            {
              "internalType": "address",
              "name": "seller",
              "type": "address"
            },
            {
              "internalType": "bool",
              "name": "isDelivered",
              "type": "bool"
            },
            {
              "components": [
                {
                  "internalType": "string",
                  "name": "fullName",
                  "type": "string"
                },
                {
                  "internalType": "string",
                  "name": "streetAddress",
                  "type": "string"
                },
                {
                  "internalType": "string",
                  "name": "city",
                  "type": "string"
                },
                {
                  "internalType": "string",
                  "name": "state",
                  "type": "string"
                },
                {
                  "internalType": "string",
                  "name": "country",
                  "type": "string"
                },
                {
                  "internalType": "string",
                  "name": "postalCode",
                  "type": "string"
                },
                {
                  "internalType": "string",
                  "name": "phone",
                  "type": "string"
                },
                {
                  "internalType": "string",
                  "name": "email",
                  "type": "string"
                }
              ],
              "internalType": "struct HemShop.ShippingDetails",
              "name": "shippingDetails",
              "type": "tuple"
            }
          ],
          "internalType": "struct HemShop.PurchaseHistoryStruct[]",
          "name": "",
          "type": "tuple[]"
        }
      ],
      "stateMutability": "view",
      "type": "function"
    },
    {
      "inputs": [
        {
          "internalType": "uint256",
          "name": "_id",
          "type": "uint256"
        }
      ],
      "name": "getCategory",
      "outputs": [
        {
          "internalType": "uint256",
          "name": "id",
          "type": "uint256"
        },
        {
          "internalType": "string",
          "name": "name",
          "type": "string"
        },
        {
          "internalType": "bool",
          "name": "isActive",
          "type": "bool"
        },
        {
          "internalType": "uint256[]",
          "name": "subCategoryIds",
          "type": "uint256[]"
        }
      ],
      "stateMutability": "view",
      "type": "function"
    },
    {
      "inputs": [],
      "name": "getMyProducts",
      "outputs": [
        {
          "components": [
            {
              "internalType": "uint256",
              "name": "id",
              "type": "uint256"
            },
            {
              "internalType": "address",
              "name": "seller",
              "type": "address"
            },
            {
              "internalType": "string",
              "name": "name",
              "type": "string"
            },
            {
              "internalType": "string",
              "name": "description",
              "type": "string"
            },
            {
              "internalType": "uint256",
              "name": "price",
              "type": "uint256"
            },
            {
              "internalType": "uint256",
              "name": "stock",
              "type": "uint256"
            },
            {
              "internalType": "string[]",
              "name": "colors",
              "type": "string[]"
            },
            {
              "internalType": "string[]",
              "name": "sizes",
              "type": "string[]"
            },
            {
              "internalType": "string[]",
              "name": "images",
              "type": "string[]"
            },
            {
              "internalType": "string",
              "name": "category",
              "type": "string"
            },
            {
              "internalType": "string",
              "name": "subCategory",
              "type": "string"
            },
            {
              "internalType": "uint256",
              "name": "weight",
              "type": "uint256"
            },
            {
              "internalType": "string",
              "name": "model",
              "type": "string"
            },
            {
              "internalType": "string",
              "name": "brand",
              "type": "string"
            },
            {
              "internalType": "uint256",
              "name": "sku",
              "type": "uint256"
            },
            {
              "internalType": "bool",
              "name": "soldout",
              "type": "bool"
            },
            {
              "internalType": "bool",
              "name": "wishlist",
              "type": "bool"
            },
            {
              "internalType": "bool",
              "name": "deleted",
              "type": "bool"
            },
            {
              "components": [
                {
                  "internalType": "uint256",
                  "name": "reviewId",
                  "type": "uint256"
                },
                {
                  "internalType": "address",
                  "name": "reviewer",
                  "type": "address"
                },
                {
                  "internalType": "uint256",
                  "name": "rating",
                  "type": "uint256"
                },
                {
                  "internalType": "string",
                  "name": "comment",
                  "type": "string"
                },
                {
                  "internalType": "bool",
                  "name": "deleted",
                  "type": "bool"
                },
                {
                  "internalType": "uint256",
                  "name": "timestamp",
                  "type": "uint256"
                }
              ],
              "internalType": "struct HemShop.ReviewStruct[]",
              "name": "reviews",
              "type": "tuple[]"
            }
          ],
          "internalType": "struct HemShop.ProductStruct[]",
          "name": "",
          "type": "tuple[]"
        }
      ],
      "stateMutability": "view",
      "type": "function"
    },
    {
      "inputs": [
        {
          "internalType": "uint256",
          "name": "productId",
          "type": "uint256"
        }
      ],
      "name": "getProduct",
      "outputs": [
        {
          "components": [
            {
              "internalType": "uint256",
              "name": "id",
              "type": "uint256"
            },
            {
              "internalType": "address",
              "name": "seller",
              "type": "address"
            },
            {
              "internalType": "string",
              "name": "name",
              "type": "string"
            },
            {
              "internalType": "string",
              "name": "description",
              "type": "string"
            },
            {
              "internalType": "uint256",
              "name": "price",
              "type": "uint256"
            },
            {
              "internalType": "uint256",
              "name": "stock",
              "type": "uint256"
            },
            {
              "internalType": "string[]",
              "name": "colors",
              "type": "string[]"
            },
            {
              "internalType": "string[]",
              "name": "sizes",
              "type": "string[]"
            },
            {
              "internalType": "string[]",
              "name": "images",
              "type": "string[]"
            },
            {
              "internalType": "string",
              "name": "category",
              "type": "string"
            },
            {
              "internalType": "string",
              "name": "subCategory",
              "type": "string"
            },
            {
              "internalType": "uint256",
              "name": "weight",
              "type": "uint256"
            },
            {
              "internalType": "string",
              "name": "model",
              "type": "string"
            },
            {
              "internalType": "string",
              "name": "brand",
              "type": "string"
            },
            {
              "internalType": "uint256",
              "name": "sku",
              "type": "uint256"
            },
            {
              "internalType": "bool",
              "name": "soldout",
              "type": "bool"
            },
            {
              "internalType": "bool",
              "name": "wishlist",
              "type": "bool"
            },
            {
              "internalType": "bool",
              "name": "deleted",
              "type": "bool"
            },
            {
              "components": [
                {
                  "internalType": "uint256",
                  "name": "reviewId",
                  "type": "uint256"
                },
                {
                  "internalType": "address",
                  "name": "reviewer",
                  "type": "address"
                },
                {
                  "internalType": "uint256",
                  "name": "rating",
                  "type": "uint256"
                },
                {
                  "internalType": "string",
                  "name": "comment",
                  "type": "string"
                },
                {
                  "internalType": "bool",
                  "name": "deleted",
                  "type": "bool"
                },
                {
                  "internalType": "uint256",
                  "name": "timestamp",
                  "type": "uint256"
                }
              ],
              "internalType": "struct HemShop.ReviewStruct[]",
              "name": "reviews",
              "type": "tuple[]"
            }
          ],
          "internalType": "struct HemShop.ProductStruct",
          "name": "",
          "type": "tuple"
        }
      ],
      "stateMutability": "view",
      "type": "function"
    },
    {
      "inputs": [
        {
          "internalType": "string",
          "name": "categoryName",
          "type": "string"
        }
      ],
      "name": "getProductsByCategory",
      "outputs": [
        {
          "components": [
            {
              "internalType": "uint256",
              "name": "id",
              "type": "uint256"
            },
            {
              "internalType": "address",
              "name": "seller",
              "type": "address"
            },
            {
              "internalType": "string",
              "name": "name",
              "type": "string"
            },
            {
              "internalType": "string",
              "name": "description",
              "type": "string"
            },
            {
              "internalType": "uint256",
              "name": "price",
              "type": "uint256"
            },
            {
              "internalType": "uint256",
              "name": "stock",
              "type": "uint256"
            },
            {
              "internalType": "string[]",
              "name": "colors",
              "type": "string[]"
            },
            {
              "internalType": "string[]",
              "name": "sizes",
              "type": "string[]"
            },
            {
              "internalType": "string[]",
              "name": "images",
              "type": "string[]"
            },
            {
              "internalType": "string",
              "name": "category",
              "type": "string"
            },
            {
              "internalType": "string",
              "name": "subCategory",
              "type": "string"
            },
            {
              "internalType": "uint256",
              "name": "weight",
              "type": "uint256"
            },
            {
              "internalType": "string",
              "name": "model",
              "type": "string"
            },
            {
              "internalType": "string",
              "name": "brand",
              "type": "string"
            },
            {
              "internalType": "uint256",
              "name": "sku",
              "type": "uint256"
            },
            {
              "internalType": "bool",
              "name": "soldout",
              "type": "bool"
            },
            {
              "internalType": "bool",
              "name": "wishlist",
              "type": "bool"
            },
            {
              "internalType": "bool",
              "name": "deleted",
              "type": "bool"
            },
            {
              "components": [
                {
                  "internalType": "uint256",
                  "name": "reviewId",
                  "type": "uint256"
                },
                {
                  "internalType": "address",
                  "name": "reviewer",
                  "type": "address"
                },
                {
                  "internalType": "uint256",
                  "name": "rating",
                  "type": "uint256"
                },
                {
                  "internalType": "string",
                  "name": "comment",
                  "type": "string"
                },
                {
                  "internalType": "bool",
                  "name": "deleted",
                  "type": "bool"
                },
                {
                  "internalType": "uint256",
                  "name": "timestamp",
                  "type": "uint256"
                }
              ],
              "internalType": "struct HemShop.ReviewStruct[]",
              "name": "reviews",
              "type": "tuple[]"
            }
          ],
          "internalType": "struct HemShop.ProductStruct[]",
          "name": "",
          "type": "tuple[]"
        }
      ],
      "stateMutability": "view",
      "type": "function"
    },
    {
      "inputs": [
        {
          "internalType": "uint256",
          "name": "productId",
          "type": "uint256"
        }
      ],
      "name": "getReviews",
      "outputs": [
        {
          "components": [
            {
              "internalType": "uint256",
              "name": "reviewId",
              "type": "uint256"
            },
            {
              "internalType": "address",
              "name": "reviewer",
              "type": "address"
            },
            {
              "internalType": "uint256",
              "name": "rating",
              "type": "uint256"
            },
            {
              "internalType": "string",
              "name": "comment",
              "type": "string"
            },
            {
              "internalType": "bool",
              "name": "deleted",
              "type": "bool"
            },
            {
              "internalType": "uint256",
              "name": "timestamp",
              "type": "uint256"
            }
          ],
          "internalType": "struct HemShop.ReviewStruct[]",
          "name": "",
          "type": "tuple[]"
        }
      ],
      "stateMutability": "view",
      "type": "function"
    },
    {
      "inputs": [
        {
          "internalType": "address",
          "name": "seller",
          "type": "address"
        }
      ],
      "name": "getSeller",
      "outputs": [
        {
          "components": [
            {
              "internalType": "string",
              "name": "businessName",
              "type": "string"
            },
            {
              "internalType": "string",
              "name": "description",
              "type": "string"
            },
            {
              "internalType": "string",
              "name": "email",
              "type": "string"
            },
            {
              "internalType": "string",
              "name": "phone",
              "type": "string"
            },
            {
              "internalType": "string",
              "name": "logo",
              "type": "string"
            },
            {
              "internalType": "uint256",
              "name": "registeredAt",
              "type": "uint256"
            },
            {
              "internalType": "bool",
              "name": "termsAccepted",
              "type": "bool"
            }
          ],
          "internalType": "struct HemShop.SellerProfile",
          "name": "profile",
          "type": "tuple"
        },
        {
          "internalType": "enum HemShop.SellerStatus",
          "name": "status",
          "type": "uint8"
        },
        {
          "internalType": "uint256",
          "name": "balance",
          "type": "uint256"
        },
        {
          "internalType": "uint256[]",
          "name": "productIds",
          "type": "uint256[]"
        }
      ],
      "stateMutability": "view",
      "type": "function"
    },
    {
      "inputs": [
        {
          "internalType": "address",
          "name": "seller",
          "type": "address"
        }
      ],
      "name": "getSellerBalance",
      "outputs": [
        {
          "internalType": "uint256",
          "name": "",
          "type": "uint256"
        }
      ],
      "stateMutability": "view",
      "type": "function"
    },
    {
      "inputs": [
        {
          "internalType": "address",
          "name": "seller",
          "type": "address"
        }
      ],
      "name": "getSellerProducts",
      "outputs": [
        {
          "components": [
            {
              "internalType": "uint256",
              "name": "id",
              "type": "uint256"
            },
            {
              "internalType": "address",
              "name": "seller",
              "type": "address"
            },
            {
              "internalType": "string",
              "name": "name",
              "type": "string"
            },
            {
              "internalType": "string",
              "name": "description",
              "type": "string"
            },
            {
              "internalType": "uint256",
              "name": "price",
              "type": "uint256"
            },
            {
              "internalType": "uint256",
              "name": "stock",
              "type": "uint256"
            },
            {
              "internalType": "string[]",
              "name": "colors",
              "type": "string[]"
            },
            {
              "internalType": "string[]",
              "name": "sizes",
              "type": "string[]"
            },
            {
              "internalType": "string[]",
              "name": "images",
              "type": "string[]"
            },
            {
              "internalType": "string",
              "name": "category",
              "type": "string"
            },
            {
              "internalType": "string",
              "name": "subCategory",
              "type": "string"
            },
            {
              "internalType": "uint256",
              "name": "weight",
              "type": "uint256"
            },
            {
              "internalType": "string",
              "name": "model",
              "type": "string"
            },
            {
              "internalType": "string",
              "name": "brand",
              "type": "string"
            },
            {
              "internalType": "uint256",
              "name": "sku",
              "type": "uint256"
            },
            {
              "internalType": "bool",
              "name": "soldout",
              "type": "bool"
            },
            {
              "internalType": "bool",
              "name": "wishlist",
              "type": "bool"
            },
            {
              "internalType": "bool",
              "name": "deleted",
              "type": "bool"
            },
            {
              "components": [
                {
                  "internalType": "uint256",
                  "name": "reviewId",
                  "type": "uint256"
                },
                {
                  "internalType": "address",
                  "name": "reviewer",
                  "type": "address"
                },
                {
                  "internalType": "uint256",
                  "name": "rating",
                  "type": "uint256"
                },
                {
                  "internalType": "string",
                  "name": "comment",
                  "type": "string"
                },
                {
                  "internalType": "bool",
                  "name": "deleted",
                  "type": "bool"
                },
                {
                  "internalType": "uint256",
                  "name": "timestamp",
                  "type": "uint256"
                }
              ],
              "internalType": "struct HemShop.ReviewStruct[]",
              "name": "reviews",
              "type": "tuple[]"
            }
          ],
          "internalType": "struct HemShop.ProductStruct[]",
          "name": "",
          "type": "tuple[]"
        }
      ],
      "stateMutability": "view",
      "type": "function"
    },
    {
      "inputs": [
        {
          "internalType": "address",
          "name": "seller",
          "type": "address"
        }
      ],
      "name": "getSellerProfile",
      "outputs": [
        {
          "components": [
            {
              "internalType": "string",
              "name": "businessName",
              "type": "string"
            },
            {
              "internalType": "string",
              "name": "description",
              "type": "string"
            },
            {
              "internalType": "string",
              "name": "email",
              "type": "string"
            },
            {
              "internalType": "string",
              "name": "phone",
              "type": "string"
            },
            {
              "internalType": "string",
              "name": "logo",
              "type": "string"
            },
            {
              "internalType": "uint256",
              "name": "registeredAt",
              "type": "uint256"
            },
            {
              "internalType": "bool",
              "name": "termsAccepted",
              "type": "bool"
            }
          ],
          "internalType": "struct HemShop.SellerProfile",
          "name": "",
          "type": "tuple"
        }
      ],
      "stateMutability": "view",
      "type": "function"
    },
    {
      "inputs": [
        {
          "internalType": "address",
          "name": "seller",
          "type": "address"
        }
      ],
      "name": "getSellerPurchaseHistory",
      "outputs": [
        {
          "components": [
            {
              "internalType": "uint256",
              "name": "productId",
              "type": "uint256"
            },
            {
              "internalType": "uint256",
              "name": "totalAmount",
              "type": "uint256"
            },
            {
              "internalType": "uint256",
              "name": "basePrice",
              "type": "uint256"
            },
            {
              "internalType": "uint256",
              "name": "timestamp",
              "type": "uint256"
            },
            {
              "internalType": "address",
              "name": "buyer",
              "type": "address"
            },
            {
              "internalType": "address",
              "name": "seller",
              "type": "address"
            },
            {
              "internalType": "bool",
              "name": "isDelivered",
              "type": "bool"
            },
            {
              "components": [
                {
                  "internalType": "string",
                  "name": "fullName",
                  "type": "string"
                },
                {
                  "internalType": "string",
                  "name": "streetAddress",
                  "type": "string"
                },
                {
                  "internalType": "string",
                  "name": "city",
                  "type": "string"
                },
                {
                  "internalType": "string",
                  "name": "state",
                  "type": "string"
                },
                {
                  "internalType": "string",
                  "name": "country",
                  "type": "string"
                },
                {
                  "internalType": "string",
                  "name": "postalCode",
                  "type": "string"
                },
                {
                  "internalType": "string",
                  "name": "phone",
                  "type": "string"
                },
                {
                  "internalType": "string",
                  "name": "email",
                  "type": "string"
                }
              ],
              "internalType": "struct HemShop.ShippingDetails",
              "name": "shippingDetails",
              "type": "tuple"
            }
          ],
          "internalType": "struct HemShop.PurchaseHistoryStruct[]",
          "name": "",
          "type": "tuple[]"
        }
      ],
      "stateMutability": "view",
      "type": "function"
    },
    {
      "inputs": [
        {
          "internalType": "address",
          "name": "seller",
          "type": "address"
        }
      ],
      "name": "getSellerStatus",
      "outputs": [
        {
          "internalType": "enum HemShop.SellerStatus",
          "name": "",
          "type": "uint8"
        }
      ],
      "stateMutability": "view",
      "type": "function"
    },
    {
      "inputs": [
        {
          "internalType": "uint256",
          "name": "_id",
          "type": "uint256"
        }
      ],
      "name": "getSubCategory",
      "outputs": [
        {
          "internalType": "uint256",
          "name": "id",
          "type": "uint256"
        },
        {
          "internalType": "string",
          "name": "name",
          "type": "string"
        },
        {
          "internalType": "uint256",
          "name": "parentCategoryId",
          "type": "uint256"
        },
        {
          "internalType": "bool",
          "name": "isActive",
          "type": "bool"
        }
      ],
      "stateMutability": "view",
      "type": "function"
    },
    {
      "inputs": [
        {
          "internalType": "address",
          "name": "user",
          "type": "address"
        }
      ],
      "name": "getUser",
      "outputs": [
        {
          "internalType": "bool",
          "name": "isRegistered",
          "type": "bool"
        },
        {
          "components": [
            {
              "internalType": "string",
              "name": "name",
              "type": "string"
            },
            {
              "internalType": "string",
              "name": "email",
              "type": "string"
            },
            {
              "internalType": "string",
              "name": "avatar",
              "type": "string"
            },
            {
              "internalType": "uint256",
              "name": "registeredAt",
              "type": "uint256"
            },
            {
              "internalType": "bool",
              "name": "isActive",
              "type": "bool"
            }
          ],
          "internalType": "struct HemShop.UserProfile",
          "name": "profile",
          "type": "tuple"
        },
        {
          "internalType": "bool",
          "name": "isUserSeller",
          "type": "bool"
        },
        {
          "internalType": "enum HemShop.SellerStatus",
          "name": "sellerState",
          "type": "uint8"
        }
      ],
      "stateMutability": "view",
      "type": "function"
    },
    {
      "inputs": [
        {
          "internalType": "address",
          "name": "account",
          "type": "address"
        }
      ],
      "name": "impersonateAccount",
      "outputs": [],
      "stateMutability": "nonpayable",
      "type": "function"
    },
    {
      "inputs": [
        {
          "internalType": "address",
          "name": "owner",
          "type": "address"
        },
        {
          "internalType": "address",
          "name": "operator",
          "type": "address"
        }
      ],
      "name": "isApprovedForAll",
      "outputs": [
        {
          "internalType": "bool",
          "name": "",
          "type": "bool"
        }
      ],
      "stateMutability": "view",
      "type": "function"
    },
    {
      "inputs": [
        {
          "internalType": "uint256",
          "name": "productId",
          "type": "uint256"
        },
        {
          "internalType": "address",
          "name": "buyer",
          "type": "address"
        }
      ],
      "name": "markPurchaseDelivered",
      "outputs": [],
      "stateMutability": "nonpayable",
      "type": "function"
    },
    {
      "inputs": [],
      "name": "name",
      "outputs": [
        {
          "internalType": "string",
          "name": "",
          "type": "string"
        }
      ],
      "stateMutability": "view",
      "type": "function"
    },
    {
      "inputs": [],
      "name": "owner",
      "outputs": [
        {
          "internalType": "address",
          "name": "",
          "type": "address"
        }
      ],
      "stateMutability": "view",
      "type": "function"
    },
    {
      "inputs": [
        {
          "internalType": "uint256",
          "name": "tokenId",
          "type": "uint256"
        }
      ],
      "name": "ownerOf",
      "outputs": [
        {
          "internalType": "address",
          "name": "",
          "type": "address"
        }
      ],
      "stateMutability": "view",
      "type": "function"
    },
    {
      "inputs": [
        {
          "internalType": "uint256",
          "name": "",
          "type": "uint256"
        }
      ],
      "name": "productExists",
      "outputs": [
        {
          "internalType": "bool",
          "name": "",
          "type": "bool"
        }
      ],
      "stateMutability": "view",
      "type": "function"
    },
    {
      "inputs": [
        {
          "internalType": "uint256",
          "name": "",
          "type": "uint256"
        }
      ],
      "name": "products",
      "outputs": [
        {
          "internalType": "uint256",
          "name": "id",
          "type": "uint256"
        },
        {
          "internalType": "address",
          "name": "seller",
          "type": "address"
        },
        {
          "internalType": "string",
          "name": "name",
          "type": "string"
        },
        {
          "internalType": "string",
          "name": "description",
          "type": "string"
        },
        {
          "internalType": "uint256",
          "name": "price",
          "type": "uint256"
        },
        {
          "internalType": "uint256",
          "name": "stock",
          "type": "uint256"
        },
        {
          "internalType": "string",
          "name": "category",
          "type": "string"
        },
        {
          "internalType": "string",
          "name": "subCategory",
          "type": "string"
        },
        {
          "internalType": "uint256",
          "name": "weight",
          "type": "uint256"
        },
        {
          "internalType": "string",
          "name": "model",
          "type": "string"
        },
        {
          "internalType": "string",
          "name": "brand",
          "type": "string"
        },
        {
          "internalType": "uint256",
          "name": "sku",
          "type": "uint256"
        },
        {
          "internalType": "bool",
          "name": "soldout",
          "type": "bool"
        },
        {
          "internalType": "bool",
          "name": "wishlist",
          "type": "bool"
        },
        {
          "internalType": "bool",
          "name": "deleted",
          "type": "bool"
        }
      ],
      "stateMutability": "view",
      "type": "function"
    },
    {
      "inputs": [
        {
          "internalType": "string",
          "name": "businessName",
          "type": "string"
        },
        {
          "internalType": "string",
          "name": "description",
          "type": "string"
        },
        {
          "internalType": "string",
          "name": "email",
          "type": "string"
        },
        {
          "internalType": "string",
          "name": "phone",
          "type": "string"
        },
        {
          "internalType": "string",
          "name": "logo",
          "type": "string"
        }
      ],
      "name": "registerSeller",
      "outputs": [],
      "stateMutability": "nonpayable",
      "type": "function"
    },
    {
      "inputs": [
        {
          "internalType": "string",
          "name": "name",
          "type": "string"
        },
        {
          "internalType": "string",
          "name": "email",
          "type": "string"
        },
        {
          "internalType": "string",
          "name": "avatar",
          "type": "string"
        }
      ],
      "name": "registerUser",
      "outputs": [],
      "stateMutability": "nonpayable",
      "type": "function"
    },
    {
      "inputs": [
        {
          "internalType": "address",
          "name": "",
          "type": "address"
        }
      ],
      "name": "registeredSellers",
      "outputs": [
        {
          "internalType": "bool",
          "name": "",
          "type": "bool"
        }
      ],
      "stateMutability": "view",
      "type": "function"
    },
    {
      "inputs": [
        {
          "internalType": "address",
          "name": "",
          "type": "address"
        }
      ],
      "name": "registeredUsers",
      "outputs": [
        {
          "internalType": "bool",
          "name": "",
          "type": "bool"
        }
      ],
      "stateMutability": "view",
      "type": "function"
    },
    {
      "inputs": [],
      "name": "renounceOwnership",
      "outputs": [],
      "stateMutability": "nonpayable",
      "type": "function"
    },
    {
      "inputs": [
        {
          "internalType": "uint256",
          "name": "",
          "type": "uint256"
        }
      ],
      "name": "reviewExists",
      "outputs": [
        {
          "internalType": "bool",
          "name": "",
          "type": "bool"
        }
      ],
      "stateMutability": "view",
      "type": "function"
    },
    {
      "inputs": [
        {
          "internalType": "address",
          "name": "from",
          "type": "address"
        },
        {
          "internalType": "address",
          "name": "to",
          "type": "address"
        },
        {
          "internalType": "uint256",
          "name": "tokenId",
          "type": "uint256"
        }
      ],
      "name": "safeTransferFrom",
      "outputs": [],
      "stateMutability": "nonpayable",
      "type": "function"
    },
    {
      "inputs": [
        {
          "internalType": "address",
          "name": "from",
          "type": "address"
        },
        {
          "internalType": "address",
          "name": "to",
          "type": "address"
        },
        {
          "internalType": "uint256",
          "name": "tokenId",
          "type": "uint256"
        },
        {
          "internalType": "bytes",
          "name": "data",
          "type": "bytes"
        }
      ],
      "name": "safeTransferFrom",
      "outputs": [],
      "stateMutability": "nonpayable",
      "type": "function"
    },
    {
      "inputs": [
        {
          "internalType": "address",
          "name": "",
          "type": "address"
        }
      ],
      "name": "sellerBalances",
      "outputs": [
        {
          "internalType": "uint256",
          "name": "",
          "type": "uint256"
        }
      ],
      "stateMutability": "view",
      "type": "function"
    },
    {
      "inputs": [
        {
          "internalType": "address",
          "name": "",
          "type": "address"
        },
        {
          "internalType": "uint256",
          "name": "",
          "type": "uint256"
        }
      ],
      "name": "sellerProducts",
      "outputs": [
        {
          "internalType": "uint256",
          "name": "",
          "type": "uint256"
        }
      ],
      "stateMutability": "view",
      "type": "function"
    },
    {
      "inputs": [
        {
          "internalType": "address",
          "name": "",
          "type": "address"
        }
      ],
      "name": "sellerProfiles",
      "outputs": [
        {
          "internalType": "string",
          "name": "businessName",
          "type": "string"
        },
        {
          "internalType": "string",
          "name": "description",
          "type": "string"
        },
        {
          "internalType": "string",
          "name": "email",
          "type": "string"
        },
        {
          "internalType": "string",
          "name": "phone",
          "type": "string"
        },
        {
          "internalType": "string",
          "name": "logo",
          "type": "string"
        },
        {
          "internalType": "uint256",
          "name": "registeredAt",
          "type": "uint256"
        },
        {
          "internalType": "bool",
          "name": "termsAccepted",
          "type": "bool"
        }
      ],
      "stateMutability": "view",
      "type": "function"
    },
    {
      "inputs": [
        {
          "internalType": "address",
          "name": "",
          "type": "address"
        },
        {
          "internalType": "uint256",
          "name": "",
          "type": "uint256"
        }
      ],
      "name": "sellerPurchaseHistory",
      "outputs": [
        {
          "internalType": "uint256",
          "name": "productId",
          "type": "uint256"
        },
        {
          "internalType": "uint256",
          "name": "totalAmount",
          "type": "uint256"
        },
        {
          "internalType": "uint256",
          "name": "basePrice",
          "type": "uint256"
        },
        {
          "internalType": "uint256",
          "name": "timestamp",
          "type": "uint256"
        },
        {
          "internalType": "address",
          "name": "buyer",
          "type": "address"
        },
        {
          "internalType": "address",
          "name": "seller",
          "type": "address"
        },
        {
          "internalType": "bool",
          "name": "isDelivered",
          "type": "bool"
        },
        {
          "components": [
            {
              "internalType": "string",
              "name": "fullName",
              "type": "string"
            },
            {
              "internalType": "string",
              "name": "streetAddress",
              "type": "string"
            },
            {
              "internalType": "string",
              "name": "city",
              "type": "string"
            },
            {
              "internalType": "string",
              "name": "state",
              "type": "string"
            },
            {
              "internalType": "string",
              "name": "country",
              "type": "string"
            },
            {
              "internalType": "string",
              "name": "postalCode",
              "type": "string"
            },
            {
              "internalType": "string",
              "name": "phone",
              "type": "string"
            },
            {
              "internalType": "string",
              "name": "email",
              "type": "string"
            }
          ],
          "internalType": "struct HemShop.ShippingDetails",
          "name": "shippingDetails",
          "type": "tuple"
        }
      ],
      "stateMutability": "view",
      "type": "function"
    },
    {
      "inputs": [
        {
          "internalType": "address",
          "name": "",
          "type": "address"
        }
      ],
      "name": "sellerStatus",
      "outputs": [
        {
          "internalType": "enum HemShop.SellerStatus",
          "name": "",
          "type": "uint8"
        }
      ],
      "stateMutability": "view",
      "type": "function"
    },
    {
      "inputs": [],
      "name": "servicePct",
      "outputs": [
        {
          "internalType": "uint256",
          "name": "",
          "type": "uint256"
        }
      ],
      "stateMutability": "view",
      "type": "function"
    },
    {
      "inputs": [
        {
          "internalType": "address",
          "name": "operator",
          "type": "address"
        },
        {
          "internalType": "bool",
          "name": "approved",
          "type": "bool"
        }
      ],
      "name": "setApprovalForAll",
      "outputs": [],
      "stateMutability": "nonpayable",
      "type": "function"
    },
    {
      "inputs": [],
      "name": "stopImpersonating",
      "outputs": [],
      "stateMutability": "nonpayable",
      "type": "function"
    },
    {
      "inputs": [
        {
          "internalType": "bytes4",
          "name": "interfaceId",
          "type": "bytes4"
        }
      ],
      "name": "supportsInterface",
      "outputs": [
        {
          "internalType": "bool",
          "name": "",
          "type": "bool"
        }
      ],
      "stateMutability": "view",
      "type": "function"
    },
    {
      "inputs": [],
      "name": "symbol",
      "outputs": [
        {
          "internalType": "string",
          "name": "",
          "type": "string"
        }
      ],
      "stateMutability": "view",
      "type": "function"
    },
    {
      "inputs": [
        {
          "internalType": "uint256",
          "name": "tokenId",
          "type": "uint256"
        }
      ],
      "name": "tokenURI",
      "outputs": [
        {
          "internalType": "string",
          "name": "",
          "type": "string"
        }
      ],
      "stateMutability": "view",
      "type": "function"
    },
    {
      "inputs": [
        {
          "internalType": "address",
          "name": "from",
          "type": "address"
        },
        {
          "internalType": "address",
          "name": "to",
          "type": "address"
        },
        {
          "internalType": "uint256",
          "name": "tokenId",
          "type": "uint256"
        }
      ],
      "name": "transferFrom",
      "outputs": [],
      "stateMutability": "nonpayable",
      "type": "function"
    },
    {
      "inputs": [
        {
          "internalType": "address",
          "name": "newOwner",
          "type": "address"
        }
      ],
      "name": "transferOwnership",
      "outputs": [],
      "stateMutability": "nonpayable",
      "type": "function"
    },
    {
      "inputs": [
        {
          "internalType": "uint256",
          "name": "_id",
          "type": "uint256"
        },
        {
          "internalType": "string",
          "name": "_name",
          "type": "string"
        },
        {
          "internalType": "bool",
          "name": "_isActive",
          "type": "bool"
        }
      ],
      "name": "updateCategory",
      "outputs": [],
      "stateMutability": "nonpayable",
      "type": "function"
    },
    {
      "inputs": [
        {
          "internalType": "uint256",
          "name": "productId",
          "type": "uint256"
        },
        {
          "components": [
            {
              "internalType": "string",
              "name": "name",
              "type": "string"
            },
            {
              "internalType": "string",
              "name": "description",
              "type": "string"
            },
            {
              "internalType": "uint256",
              "name": "price",
              "type": "uint256"
            },
            {
              "internalType": "uint256",
              "name": "stock",
              "type": "uint256"
            },
            {
              "internalType": "string[]",
              "name": "colors",
              "type": "string[]"
            },
            {
              "internalType": "string[]",
              "name": "sizes",
              "type": "string[]"
            },
            {
              "internalType": "string[]",
              "name": "images",
              "type": "string[]"
            },
            {
              "internalType": "uint256",
              "name": "categoryId",
              "type": "uint256"
            },
            {
              "internalType": "uint256",
              "name": "subCategoryId",
              "type": "uint256"
            },
            {
              "internalType": "uint256",
              "name": "weight",
              "type": "uint256"
            },
            {
              "internalType": "string",
              "name": "model",
              "type": "string"
            },
            {
              "internalType": "string",
              "name": "brand",
              "type": "string"
            },
            {
              "internalType": "uint256",
              "name": "sku",
              "type": "uint256"
            }
          ],
          "internalType": "struct HemShop.ProductInput",
          "name": "input",
          "type": "tuple"
        }
      ],
      "name": "updateProduct",
      "outputs": [],
      "stateMutability": "nonpayable",
      "type": "function"
    },
    {
      "inputs": [
        {
          "internalType": "address",
          "name": "seller",
          "type": "address"
        },
        {
          "internalType": "enum HemShop.SellerStatus",
          "name": "newStatus",
          "type": "uint8"
        }
      ],
      "name": "updateSellerStatus",
      "outputs": [],
      "stateMutability": "nonpayable",
      "type": "function"
    },
    {
      "inputs": [
        {
          "internalType": "uint256",
          "name": "_id",
          "type": "uint256"
        },
        {
          "internalType": "string",
          "name": "_name",
          "type": "string"
        },
        {
          "internalType": "bool",
          "name": "_isActive",
          "type": "bool"
        }
      ],
      "name": "updateSubCategory",
      "outputs": [],
      "stateMutability": "nonpayable",
      "type": "function"
    },
    {
      "inputs": [
        {
          "internalType": "address",
          "name": "",
          "type": "address"
        }
      ],
      "name": "userProfiles",
      "outputs": [
        {
          "internalType": "string",
          "name": "name",
          "type": "string"
        },
        {
          "internalType": "string",
          "name": "email",
          "type": "string"
        },
        {
          "internalType": "string",
          "name": "avatar",
          "type": "string"
        },
        {
          "internalType": "uint256",
          "name": "registeredAt",
          "type": "uint256"
        },
        {
          "internalType": "bool",
          "name": "isActive",
          "type": "bool"
        }
      ],
      "stateMutability": "view",
      "type": "function"
    },
    {
      "inputs": [
        {
          "internalType": "uint256",
          "name": "",
          "type": "uint256"
        }
      ],
      "name": "usersList",
      "outputs": [
        {
          "internalType": "address",
          "name": "",
          "type": "address"
        }
      ],
      "stateMutability": "view",
      "type": "function"
    },
    {
      "inputs": [],
      "name": "withdraw",
      "outputs": [],
      "stateMutability": "nonpayable",
      "type": "function"
    }
  ],
  "bytecode": "0x6080346200037757601f90601f196001600160401b03620097813881900385810184168501838111868210176200037c57859282916040528339602094859181010312620003775751936200005362000392565b926007845266048656d53686f760cc1b858501526200007162000392565b60038082526204873760ec1b8783015260008054336001600160a01b031982168117835592989394919392906001600160a01b03167f8be0079c531659141344cd1fd0a4f28419497f9722a3daafe3b4186f6b6457e08580a360019687805580519087821162000363576002548981811c9116801562000358575b858210146200034457908188849311620002f0575b5084908883116001146200028e57869262000282575b5050600019828b1b1c191690881b176002555b83519586116200026e5787548781811c9116801562000263575b838210146200024f5785811162000207575b5081948611600114620001a25750509183949184939462000196575b50501b9160001990841b1c19161790555b600d556040516193ce9081620003b38239f35b01519250388062000172565b8783528183209493928692918316915b88838310620001ec5750505010620001d3575b505050811b01905562000183565b015160001983861b60f8161c19169055388080620001c5565b858701518855909601959485019487935090810190620001b2565b8884528284208680890160051c820192858a1062000245575b0160051c019088905b8281106200023957505062000156565b85815501889062000229565b9250819262000220565b634e487b7160e01b84526022600452602484fd5b90607f169062000144565b634e487b7160e01b83526041600452602483fd5b01519050388062000117565b90848b9416916002885286882092885b88828210620002d95750508411620002c0575b505050811b016002556200012a565b0151600019838d1b60f8161c19169055388080620002b1565b8385015186558e979095019493840193016200029e565b909150600286528486208880850160051c8201928786106200033a575b918c91869594930160051c01915b8281106200032b57505062000101565b8881558594508c91016200031b565b925081926200030d565b634e487b7160e01b86526022600452602486fd5b90607f1690620000ec565b634e487b7160e01b85526041600452602485fd5b600080fd5b634e487b7160e01b600052604160045260246000fd5b60408051919082016001600160401b038111838210176200037c5760405256fe608080604052600436101561001357600080fd5b60003560e01c908162d64e7614616b1c5750806301ffc9a714616aae57806302ee3a521461683357806306fdde031461678e578063081812fc14616770578063095ea7b3146165f65780630e50cee5146165b757806311aa5b34146165935780631385fd921461653f57806316d81b381461635c57806317e98548146162e45780632148893f146159a957806323b872dd146162bb57806324d41a0314616098578063317a082714615f51578063332d56d714615e905780633c2575d514615dab5780633ccfd60b14615ca657806342842e0e14615c7e5780634293e5ce14615b7c57806345de84db14615b3a578063502aa3b514615af15780635ad6a58014615a465780635be20959146159e3578063607eb4e4146159a95780636352211e14615979578063661e17121461525157806366224d8e146150fb5780636f2c8599146150505780636f77926b14614ecd57806370a0823114614e36578063715018a614614def5780637acc0b2014614c305780637d3978db14614a125780637e8555ed146142c6578063868a5461146137b65780638da5cb5b1461378d5780638f38cc7b146134675780639196dfcb1461334d57806395d89b411461326b57806397b6f393146131175780639d4a225514612f845780639fa44dbf14612f3c578063a22cb46514612e71578063a22fb38714612dc6578063a323d29e14612c73578063af55ed6414612c42578063b27e169714612b5d578063b88d4fde14612afe578063b95a062814612ac3578063b9db15b4146128a9578063c1302b3414612851578063c64b8a8f14612812578063c87b56dd146127b8578063ceca737f14612734578063d2bc9d7814612487578063d637dcfa14611fe8578063dadd0a5714611ce8578063dc29868214611ac7578063e01ef6e614611aa9578063e40971e514610c62578063e585cb2c14610bd2578063e6a93e1614610918578063e985e9c5146108c2578063eb11c43414610890578063ed90c7b714610756578063f2fde38b146106a7578063f3052d26146105e75763fdca4ca31461031557600080fd5b346105e25760003660031901126105e25760088054600060015b82811115610581575061034190618430565b9060009260015b82811115610362576040518061035e8682616dd6565b0390f35b600081815260156020908152604090912060018101546001600160a01b031691903383148061056f575b6103a2575b50505061039d90618421565b610348565b604097939751926103b284616e64565b81548452828401526040516103d5816103ce8160028601617061565b0382616f23565b60408401526040516103ee816103ce8160038601617061565b606084015260048101546080840152600581015460a084015260069061041582820161835b565b60c08501526104266007820161835b565b60e085015261043686820161835b565b610100850152604051610450816103ce8160098601617061565b61012085015260405161046a816103ce81600a8601617061565b610140850152600b81015461016085015260405161048f816103ce81600c8601617061565b6101808501526040516104a9816103ce81600d8601617061565b6101a0850152600e8101546101c0850152600f81015460ff80821615156101e087015281881c81161515610200870152601091821c16151561022086015201805491906104f583617f37565b936105036040519586616f23565b8385526000918252808220918186015b85821061055357505050505050918161039d9361024061054a9401526105398288618480565b526105448187618480565b50618421565b94903880610391565b8483600192610561876183c0565b815201940191019092610513565b5060ff600f82015460101c161561038c565b600081815260156020526040902060018101546001600160a01b0316331490816105cf575b506105ba575b6105b590618421565b61032f565b906105c76105b591618421565b9190506105ac565b60ff9150600f015460101c1615386105a6565b600080fd5b346105e25760203660031901126105e2576004356000526018602052604060002060405161061481616eb7565b8154815261035e60405191610637836106308160018801617061565b0384616f23565b6020810192835261065b600360ff60028701541695604084019615158752016185f5565b906060810191825261066f81511515618546565b5192519351151590516106946040519586958652608060208701526080860190616b49565b9160408501528382036060850152617434565b346105e25760203660031901126105e2576106c0616e38565b6106c8617468565b6001600160a01b03908116908115610702576000548260018060a01b031982161760005516600080516020619302833981519152600080a3005b60405162461bcd60e51b815260206004820152602660248201527f4f776e61626c653a206e6577206f776e657220697320746865207a65726f206160448201526564647265737360d01b6064820152608490fd5b346105e2576020806003193601126105e25760043590816000526017815261078560ff604060002054166181fd565b6000828152601582526040902060010154336001600160a01b0391821614908115610882575b501561082e57816000526015815260ff600f6040600020015460101c166107ed5760009182526015905260409020600f01805462ff0000191662010000179055005b6064906040519062461bcd60e51b82526004820152601a602482015279141c9bd91d58dd081a5cc8185b1c9958591e4819195b195d195960321b6044820152fd5b6084906040519062461bcd60e51b82526004820152602760248201527f4f6e6c792070726f647563742073656c6c6572206f72206f776e65722063616e6044820152662064656c65746560c81b6064820152fd5b6000541633149050836107ab565b346105e25760203660031901126105e25760206108b36108ae616e38565b617b43565b6108c060405180926172dd565bf35b346105e25760403660031901126105e2576108db616e38565b6108e3616e4e565b9060018060a01b03809116600052600760205260406000209116600052602052602060ff604060002054166040519015158152f35b346105e25760203660031901126105e257610931616e38565b600854600060015b82811115610b6e575061094b90618430565b90600160005b82821115610967576040518061035e8682616dd6565b600082815260156020526040902060018101546001600160a01b0390811691908716821480610b5c575b6109a8575b5050906109a290618421565b90610951565b604051916109b583616e64565b8154835260208301526040516109d2816103ce8160028601617061565b60408301526040516109eb816103ce8160038601617061565b606083015260048101546080830152600581015460a0830152610a106006820161835b565b60c0830152610a216007820161835b565b60e0830152610a326008820161835b565b610100830152604051610a4c816103ce8160098601617061565b610120830152604051610a66816103ce81600a8601617061565b610140830152600b810154610160830152604051610a8b816103ce81600c8601617061565b610180830152604051610aa5816103ce81600d8601617061565b6101a0830152600e8101546101c0830152600f8101549060ff80831615156101e0850152808360081c161515610200850152601092831c16151561022084015201805490610af282617f37565b91610b006040519384616f23565b808352602083019160005260206000206000925b828410610b3e57505050506102408201526109a291610b37916105398288618480565b9086610996565b60066020600192610b4e856183c0565b815201920193019290610b14565b5060ff600f82015460101c1615610991565b600081815260156020526040902060018101546001600160a01b038681169116149081610bbf575b50610baa575b610ba590618421565b610939565b90610bb7610ba591618421565b919050610b9c565b60ff9150600f015460101c161585610b96565b346105e25760403660031901126105e257610beb616e38565b6001600160a01b039081166000908152601c602052604090208054602435908110156105e257610c1a91617302565b509061035e825460018401549360028101549160038201548560048401541690610c4b60066005860154950161731e565b9460405198899860ff8760a01c16961694896173ea565b346105e2576003196020368201126105e2576001600160401b03600435116105e2576101a090600435360301126105e257336000526013602052610cad60ff60406000205416617bb7565b610cc7610cbe600480350180617c01565b905015156179ad565b610cd8604460043501351515617c33565b610ce9606460043501351515617c7e565b60e4600435013515611a5957610104600435013515611a0657610d1461012460043501351515617cc9565b610d35610d2c61014460043501600435600401617c01565b90501515617d15565b610d56610d4d61016460043501600435600401617c01565b90501515617d59565b610d6861018460043501351515617d9d565b610d88610d7f60c460043501600435600401617de6565b90501515617e1b565b610daa6005610da160c460043501600435600401617de6565b90501115617e60565b60016008540180600855610dbc617eab565b81815233602082015290610dde610dd7600480350180617c01565b3691616f61565b6040830152610dfa610dd7602460043501600435600401617c01565b60608301526044600435013560808301526064600435013560a0830152610e35610e2e608460043501600435600401617de6565b3691617f4e565b60c0830152610e51610e2e60a460043501600435600401617de6565b60e0830152610e6d610e2e60c460043501600435600401617de6565b61010083015260e4600435013560005260186020526103ce610e9c600160406000200160405192838092617061565b610120830152610104600435013560005260196020526103ce610ecc600160406000200160405192838092617061565b610140830152610eea610dd761014460043501600435600401617c01565b610180830152610f08610dd761016460043501600435600401617c01565b6101a083015260043561012481013561016084015261018401356101c083015233156119c257610f40610f3a82617823565b156181b2565b610f4c610f3a82617823565b33600052600560205260406000206001815401905580600052600460205260406000203360018060a01b0319825416179055803360006000805160206193428339815191528180a46015602052604060002090825182556001820160018060a01b0360208501511660018060a01b0319825416179055604083015192835160018060401b03811161142c57610ff181610fe86002870154617027565b60028701617a07565b6020601f8211600114611953578192939495600092611948575b50508160011b916000199060031b1c19161760028401555b606081015180519093906001600160401b03811161142c576110558161104c6003850154617027565b60038501617a07565b6020601f82116001146118d95781929394956000926118ce575b50508160011b916000199060031b1c19161760038201555b6080820151600482015560a082015160058201556006810160c083015160208151916110b38385618006565b01916000526020600020916000905b8282106117f157505050506007810160e083015160208151916110e58385618006565b01916000526020600020916000905b82821061171457505050506008810161010083015160208151916111188385618006565b01916000526020600020916000905b828210611631575050505061012082015180519093906001600160401b03811161142c576111658161115c6009860154617027565b60098601617a07565b6020601f82116001146115c25781929394956000926115b7575b50508160011b916000199060031b1c19161760098301555b61014083015180519093906001600160401b03811161142c576111ca816111c1600a870154617027565b600a8701617a07565b6020601f821160011461154857819293949560009261153d575b50508160011b916000199060031b1c191617600a8401555b610160810151600b84015561018081015180519093906001600160401b03811161142c5761123a81611231600c850154617027565b600c8501617a07565b6020601f82116001146114ce5781929394956000926114c3575b50508160011b916000199060031b1c191617600c8201555b6101a08201518051906001600160401b03821161142c5761129d82611294600d860154617027565b600d8601617a07565b602090601f831160011461144d5791806102409492601094600092611442575b50508160011b916000199060031b1c191617600d8201555b6101c0840151600e820155600f81016112f56101e0860151151582617812565b6102008501511515815461ff0062ff00006102208901511515871b169260081b169062ffff001916171790550191015190815191600160401b831161142c5781548383558084106113a9575b506020019060005260206000206000915b83831061138b57611389858060005260176020526040600020600160ff19825416179055336000526016602052604060002061817d565b005b600660208261139d600194518661804f565b01920192019190611352565b8060060290600682040361141657836006026006810485036114165783600052602060002091820191015b8181106113e15750611341565b80600060069255600060018201556000600282015561140260038201617fbd565b6000600482015560006005820155016113d4565b634e487b7160e01b600052601160045260246000fd5b634e487b7160e01b600052604160045260246000fd5b0151905087806112bd565b90600d840160005260206000209160005b601f19851681106114ab575092610240949260019260109583601f19811610611492575b505050811b01600d8201556112d5565b015160001960f88460031b161c19169055878080611482565b9192602060018192868501518155019401920161145e565b015190508580611254565b600c830160005260206000209060005b601f1984168110611525575060019394959683601f1981161061150c575b505050811b01600c82015561126c565b015160001960f88460031b161c191690558580806114fc565b9091602060018192858b0151815501930191016114de565b0151905085806111e4565b600a850160005260206000209060005b601f198416811061159f575060019394959683601f19811610611586575b505050811b01600a8401556111fc565b015160001960f88460031b161c19169055858080611576565b9091602060018192858b015181550193019101611558565b01519050858061117f565b6009840160005260206000209060005b601f1984168110611619575060019394959683601f19811610611600575b505050811b016009830155611197565b015160001960f88460031b161c191690558580806115f0565b9091602060018192858b0151815501930191016115d2565b80518051906001600160401b03821161142c57611658826116528854617027565b88617a07565b602090601f83116001146116a4579282600194936020938695600092611699575b5050600019600383901b1c191690841b1787555b01940191019092611127565b015190508c80611679565b908660005260206000209160005b601f19851681106116fc575083602093600196938796938794601f198116106116e3575b505050811b01875561168d565b015160001960f88460031b161c191690558c80806116d6565b919260206001819286850151815501940192016116b2565b80518051906001600160401b03821161142c57611735826116528854617027565b602090601f8311600114611781579282600194936020938695600092611776575b5050600019600383901b1c191690841b1787555b019401910190926110f4565b015190508c80611756565b908660005260206000209160005b601f19851681106117d9575083602093600196938796938794601f198116106117c0575b505050811b01875561176a565b015160001960f88460031b161c191690558c80806117b3565b9192602060018192868501518155019401920161178f565b80518051906001600160401b03821161142c57611812826116528854617027565b602090601f831160011461185e579282600194936020938695600092611853575b5050600019600383901b1c191690841b1787555b019401910190926110c2565b015190508c80611833565b908660005260206000209160005b601f19851681106118b6575083602093600196938796938794601f1981161061189d575b505050811b018755611847565b015160001960f88460031b161c191690558c8080611890565b9192602060018192868501518155019401920161186c565b01519050858061106f565b6003830160005260206000209060005b601f1984168110611930575060019394959683601f19811610611917575b505050811b016003820155611087565b015160001960f88460031b161c19169055858080611907565b9091602060018192858b0151815501930191016118e9565b01519050858061100b565b6002850160005260206000209060005b601f19841681106119aa575060019394959683601f19811610611991575b505050811b016002840155611023565b015160001960f88460031b161c19169055858080611981565b9091602060018192858b015181550193019101611963565b606460405162461bcd60e51b815260206004820152602060248201527f4552433732313a206d696e7420746f20746865207a65726f20616464726573736044820152fd5b60405162461bcd60e51b815260206004820152602560248201527f53756243617465676f7279204944206d75737420626520677265617465722074604482015264068616e20360dc1b6064820152608490fd5b60405162461bcd60e51b815260206004820152602260248201527f43617465676f7279204944206d7573742062652067726561746572207468616e604482015261020360f41b6064820152608490fd5b346105e25760003660031901126105e2576020600d54604051908152f35b346105e2576020806003193601126105e2576001600160401b036004358181116105e257611af9903690600401616f98565b90611b02617468565b611b0e82511515618494565b611b19600b54618421565b9081600b55604051611b2a81616f08565b60008152604051611b3a81616eb7565b83815285810185815260408201906001958683526060840194855260005260188852604060002092518355858301905180519086821161142c57611b8882611b828554617027565b85617a07565b8990601f8311600114611c77579180611bc794926003979694600092611c6c575b505060001982881b1c191690891b1790555b51151560028301617812565b019051805192831161142c57600160401b831161142c5785908254848455808510611c4f575b5001906000528460002060005b838110611c3e57600b546040518881527f11c167cc9b439f0ad8bec5588159f1b06b813bc38d50c867a41b23b077be2c1a9080611c39818c018b616b49565b0390a2005b825182820155918601918401611bfa565b611c669084600052858460002091820191016179f0565b87611bed565b015190508c80611ba9565b889291601f19831691856000528c600020928d6000905b828210611cd1575050916003989795939185611bc798969410611cb9575b505050811b019055611bbb565b0151600019838a1b60f8161c191690558c8080611cac565b8385015186558d979095019493840193018e611c8e565b346105e25760003660031901126105e257600b54611d0581617f37565b611d126040519182616f23565b818152601f19611d2183617f37565b01366020830137611d3182617f37565b91611d3f6040519384616f23565b808352611d5b601f19611d5183617f37565b0160208501618644565b611d6481617f37565b92611d726040519485616f23565b818452601f19611d8183617f37565b01366020860137611d9182617f37565b90611d9f6040519283616f23565b828252611dab83617f37565b92611dbe6020840194601f190185618644565b60015b81811115611efa575050611de060405194608086526080860190617434565b8481036020860152815180825260208201916020808360051b8301019401926000915b838310611ecd57505050505083810360408501526020808651928381520195019060005b818110611eb557505050828403606084015251808452602084019060208160051b86010192916000905b828210611e5e5785850386f35b90919293601f19878203018252845190602080835192838152019201906000905b808210611e9d57505050602080600192960192019201909291611e51565b90919260208060019286518152019401920190611e7f565b82511515875260209687019690920191600101611e27565b9091929394602080611eeb600193601f198682030187528951616b49565b97019301930191939290611e03565b806000526018602052604060002090611f4d600360405193611f1b85616eb7565b80548552604051611f33816103ce8160018601617061565b602086015260ff60028201541615156040860152016185f5565b60608301528151611f68575b611f639150618421565b611dc1565b8060001981011161141657606082611f639351611f8960001985018b618480565b526020810151611f9d600019850188618480565b52611fac600019840187618480565b5060408101511515611fc260001985018c618480565b520151611fd3600019830187618480565b52611fe2600019820186618480565b50611f59565b346105e25760603660031901126105e2576004356001600160401b0381116105e257612018903690600401616f98565b6024356001600160401b0381116105e257612037903690600401616f98565b906044356001600160401b0381116105e257612057903690600401616f98565b9161206333151561796f565b33600052601460205260ff6040600020541661244857612085825115156179ad565b80511561240b576040519261209984616ed2565b82845260208401918252604084015242606084015260016080840152336000526010602052604060002090835180519060018060401b03821161142c5781906120ec826120e68754617027565b87617a07565b602090601f831160011461239f57600092612394575b50508160011b916000199060031b1c19161782555b5180519093906001600160401b03811161142c576121458161213c6001860154617027565b60018601617a07565b6020601f821160011461232557819293949560009261231a575b50508160011b916000199060031b1c19161760018301555b6040810151805160028401916001600160401b03821161142c5761219f82611b828554617027565b602090601f83116001146122a85792826080936121ed97969360049660009261229d575b50508160011b916000199060031b1c19161790555b60608101516003850155015115159101617812565b336000908152601460205260409020805460ff19166001179055600f54600160401b81101561142c576001810180600f5581101561228757600f6000526000805160206193a28339815191520180546001600160a01b03191633908117909155604051602080825291927f48cac28ad4dc618e15f4c2dd5e97751182f166de97b25618318b2112aa951a2f928291611c3991830190616b49565b634e487b7160e01b600052603260045260246000fd5b0151905089806121c3565b90601f198316918460005260206000209260005b8181106123025750936121ed9796936004969360019383608098106122e9575b505050811b0190556121d8565b015160001960f88460031b161c191690558980806122dc565b929360206001819287860151815501950193016122bc565b01519050858061215f565b6001840160005260206000209060005b601f198416811061237c575060019394959683601f19811610612363575b505050811b016001830155612177565b015160001960f88460031b161c19169055858080612353565b9091602060018192858b015181550193019101612335565b015190508680612102565b9250846000526020600020906000935b601f19841685106123f0576001945083601f198116106123d7575b505050811b018255612117565b015160001960f88460031b161c191690558680806123ca565b818101518355602094850194600190930192909101906123af565b60405162461bcd60e51b8152602060048201526015602482015274456d61696c2063616e6e6f7420626520656d70747960581b6044820152606490fd5b60405162461bcd60e51b8152602060048201526017602482015276155cd95c88185b1c9958591e481c9959da5cdd195c9959604a1b6044820152606490fd5b346105e25760403660031901126105e2576024356001600160401b0381116105e257366023820112156105e2576001600160401b036004820135116105e257366024826004013560051b830101116105e257600435600052601860205260ff60026040600020015416156126f25760005b8160040135811061250557005b612510600c54618421565b80600c556125426125298385600401356024870161852b565b91906040519261253884616eb7565b8484523691616f61565b91602082019283526004356040830152600160608301526000526019602052604060002091815183555180519060018060401b03821161142c576125968261258d6001870154617027565b60018701617a07565b602090601f83116001146126745761260893836126649796946125ee94606094600092612669575b50508160011b916000199060031b1c19161760018501555b60408101516002850155015115156003809301617812565b6004356000526018602052604060002001600c549061817d565b600080516020619362833981519152600c5461262c8386600401356024880161852b565b9290836040519160208352816020840152604083013760006040858301015260408160043595601f80199101168101030190a3618421565b6124f8565b015190508a806125be565b906001850160005260206000209160005b601f19851681106126da5750936001846125ee94606094612608986126649b9a98601f198116106126c1575b505050811b0160018501556125d6565b015160001960f88460031b161c191690558a80806126b1565b91926020600181928685015181550194019201612685565b60405162461bcd60e51b815260206004820152601a602482015279506172656e742063617465676f7279206e6f742061637469766560301b6044820152606490fd5b346105e25760203660031901126105e257600435612750617468565b8060005260186020526127696040600020541515618546565b8060005260186020526000805160206192e28339815191526127ac60406000206002810160ff198154169055604051918291604083526001604084019101617061565b600060208301520390a2005b346105e25760203660031901126105e2576127dc6127d7600435617823565b6174c0565b60006040516127ea81616f08565b5261035e6040516127fa81616f08565b60008152604051918291602083526020830190616b49565b346105e25760203660031901126105e2576001600160a01b03612833616e38565b166000526013602052602060ff604060002054166040519015158152f35b346105e25760403660031901126105e25761286a616e38565b6001600160a01b03166000908152601660205260409020805460243591908210156105e25760209161289b916172ea565b90546040519160031b1c8152f35b346105e2576020806003193601126105e2576004356128c6617eab565b5080600052601582526128e760ff600f6040600020015460101c1615618242565b806000526017825261290060ff604060002054166181fd565b600052601581526040600020906040519161291a83616e64565b805483526001808201546001600160a01b031683850152604051612945816103ce8160028701617061565b604085015260405161295e816103ce8160038701617061565b606085015260048201546080850152600582015460a0850152601060069261298784820161835b565b60c08701526129986007820161835b565b60e08701526129a96008820161835b565b6101008701526040516129c3816103ce8160098601617061565b6101208701526040516129dd816103ce81600a8601617061565b610140870152600b810154610160870152604051612a02816103ce81600c8601617061565b610180870152604051612a1c816103ce81600d8601617061565b6101a0870152600e8101546101c087015260ff600f82015481811615156101e0890152818160081c161515610200890152831c1615156102208701520191825490612a6682617f37565b93612a746040519586616f23565b8285526000908152858120868087015b858410612aa6576102408a018890526040518281528061035e8185018d616c86565b86918591612ab3856183c0565b8152019201920191908790612a84565b346105e25760203660031901126105e25760206001600160a01b0380612ae7616e38565b16600052601e825260406000205416604051908152f35b346105e25760803660031901126105e257612b17616e38565b612b1f616e4e565b606435916001600160401b0383116105e257366023840112156105e257612b53611389933690602481600401359101616f61565b91604435916175b3565b346105e2576020806003193601126105e2576001600160a01b039081612b81616e38565b16600052601b81526040600020805490612b9a82617f37565b92612ba86040519485616f23565b82845260009182528082208185015b848410612bcc576040518061035e888261719f565b600e83600192604051612bde81616e80565b85548152848601548382015260028601546040820152600386015460608201528a600487015416608082015260ff600587015460a08d8216818501521c16151560c0820152612c2f6006870161731e565b60e0820152815201920193019290612bb7565b346105e25760203660031901126105e2576004356000526017602052602060ff604060002054166040519015158152f35b346105e2576020806003193601126105e257612dab9061035e612c94616e38565b612c9c617ac8565b5060018060a01b0316918260005260138152612cbf60ff60406000205416617aff565b826000526011815260406000209260ff600660405195612cde87616e9c565b604051612cef816103ce8185617061565b8752604051612d05816103ce8160018601617061565b85880152604051612d1d816103ce8160028601617061565b6040880152604051612d36816103ce8160038601617061565b6060880152604051612d4f816103ce8160048601617061565b6080880152600581015460a0880152015416151560c08501526000526012815260ff60406000205416601a825260406000205460168352612db4612d9660406000206185f5565b9260405197889760808952608089019061725d565b948701906172dd565b60408501528382036060850152617434565b346105e25760203660031901126105e257612ddf616e38565b612de7617468565b6001600160a01b03168015612e325760406000805160206192a28339815191529133600052601e602052816000208160018060a01b03198254161790558151903382526020820152a1005b60405162461bcd60e51b8152602060048201526017602482015276496e76616c6964206163636f756e74206164647265737360481b6044820152606490fd5b346105e25760403660031901126105e257612e8a616e38565b60243590811515908183036105e2576001600160a01b031691338314612efb57612ecd903360005260076020526040600020846000526020526040600020617812565b6040519081527f17307eab39ab6107e8899845ad3d59bd9653f200f220920489ca2b5937696c3160203392a3005b60405162461bcd60e51b815260206004820152601960248201527822a9219b99189d1030b8383937bb32903a379031b0b63632b960391b6044820152606490fd5b346105e25760403660031901126105e257612f55616e38565b6001600160a01b039081166000908152601b602052604090208054602435908110156105e257610c1a91617302565b346105e2576020806003193601126105e2576004358060005260159081835260ff600f6040600020015491612fbf82601094851c1615618242565b8060005260178552612fd782604060002054166181fd565b60009260005b8260005285875281604060002001805482101561302e57600461300183879361869f565b5001541615613019575b61301490618421565b612fdd565b9361302661301491618421565b94905061300b565b5050848661303b86617f37565b956130496040519788616f23565b808752613058601f1991617f37565b018160005b8281106131015750505060009360005b816000528383528460406000200180548210156130ee576004613091838a9361869f565b50015416156130a9575b6130a490618421565b61306d565b946130e66130a491836000528585526130d16130cb898960406000200161869f565b506183c0565b6130db828c618480565b52610544818b618480565b95905061309b565b6040518481528061035e8187018c616be5565b61310961866e565b82828b01015201829061305d565b346105e25760403660031901126105e257613130616e38565b6024359060048210156105e257613145617468565b60018060a01b031690816000526020906013825261316a60ff60406000205416617aff565b801561322657826000526012825260ff6040600020541660048110156132105781146131cb5790600080516020619322833981519152918360005260128252604060002060ff1981541660ff83161790556131c860405180926172dd565ba2005b60405162461bcd60e51b815260048101839052601e60248201527f53656c6c657220616c72656164792068617320746869732073746174757300006044820152606490fd5b634e487b7160e01b600052602160045260246000fd5b60405162461bcd60e51b815260048101839052601f60248201527f43616e6e6f74207365742073746174757320746f20556e7665726966696564006044820152606490fd5b346105e25760003660031901126105e25760405160009060035461328e81617027565b80835260019180831690811561332557506001146132cb575b61035e836132b781870382616f23565b604051918291602083526020830190616b49565b6003600090815260209450917fc2575a0e9e593c00f959f8c92f12db2869c3395a3b0502d05e2516446f71f85b5b828410613312575050508101909101906132b7816132a7565b80548585018701529285019281016132f9565b61035e95506132b793506020915091849260ff191682840152151560051b82010193506132a7565b346105e25760203660031901126105e2576001600160a01b0361336e616e38565b16600052601160205261341e604060002060405190613398826133918184617061565b0383616f23565b6040516133ac816103ce8160018601617061565b6134566040516133c3816103ce8160028801617061565b6134486040516133da816103ce8160038a01617061565b61343a604051936133f9856133f28160048c01617061565b0386616f23565b61342c60ff600660058b01549a015416976040519b8c9b60e08d5260e08d0190616b49565b908b820360208d0152616b49565b9089820360408b0152616b49565b908782036060890152616b49565b908582036080870152616b49565b9160a0840152151560c08301520390f35b346105e25760203660031901126105e2576004356001600160401b0381116105e257613497903690600401616f98565b600854600060015b8281111561370b57506134b190618430565b90600160005b828211156134cd576040518061035e8682616dd6565b816000526015806020526009906103ce6134f38360406000200160405192838092617061565b602081519101208751602089012014806136ed575b61351f575b50509061351990618421565b906134b7565b8360005260205260406000206103ce6135dd6040519361353e85616e64565b8354855260018401546001600160a01b03166020860152604051613569816103ce8160028901617061565b6040860152604051613582816103ce8160038901617061565b606086015260048401546080860152600584015460a08601526135a76006850161835b565b60c08601526135b86007850161835b565b60e08601526135c96008850161835b565b610100860152604051928380928601617061565b6101208301526040516135f7816103ce81600a8601617061565b610140830152600b81015461016083015260405161361c816103ce81600c8601617061565b610180830152604051613636816103ce81600d8601617061565b6101a0830152600e8101546101c0830152600f8101549060ff80831615156101e0850152808360081c161515610200850152601092831c1615156102208401520180549061368382617f37565b916136916040519384616f23565b808352602083019160005260206000206000925b8284106136cf5750505050610240820152613519916136c8916105398288618480565b908661350d565b600660206001926136df856183c0565b8152019201930192906136a5565b50836000528060205260ff600f6040600020015460101c1615613508565b806000526015806020526103ce61372f600960406000200160405192838092617061565b602081519101208551602087012014908161376e575b50613759575b61375490618421565b61349f565b9061376661375491618421565b91905061374b565b90508160005260205260ff600f6040600020015460101c161585613745565b346105e25760003660031901126105e2576000546040516001600160a01b039091168152602090f35b346105e2576003196040368201126105e2576001600160401b03602435116105e2576101a090602435360301126105e2576004356000908152601560205260409020600101546001600160a01b0316330361427057600435600052601760205261382760ff604060002054166181fd565b600435600052601560205261384a60ff600f6040600020015460101c1615618242565b61385c610cbe60046024350180617c01565b61386f6024803501602435600401617c01565b90501561422d57613887604460243501351515617c33565b613898606460243501351515617c7e565b6138ac608460243501602435600401617de6565b9050156141ef576138c760a460243501602435600401617de6565b9050156141b2576138e5610d7f60c460243501602435600401617de6565b6138fe6005610da160c460243501602435600401617de6565b60e46024350135156141725761010460243501351561412e5761392f610d2c61014460243501602435600401617c01565b613947610d4d61016460243501602435600401617c01565b61395961012460243501351515617cc9565b61396b61018460243501351515617d9d565b61397a60046024350180617c01565b6004356000908152601560205260409020600201906001600160401b03811161142c576139b1816139ab8454617027565b84617a07565b600092601f82116001146140c557928192936000926140ba575b50508160011b916000199060031b1c19161790555b6139f36024803501602435600401617c01565b6004356000908152601560205260409020600301906001600160401b03811161142c57613a24816139ab8454617027565b600092601f82116001146140515792819293600092614046575b50508160011b916000199060031b1c19161790555b600435600052601560205260406000206044602435013560048201556064602435013560058201556006613a91608460243501602435600401617de6565b9190920191613aa08284618006565b60009283526020832090805b838510613f6357613ac760a460243501602435600401617de6565b6004356000526015602052600760406000200191613ae58284618006565b60009283526020832090805b838510613e8057613b0c60c460243501602435600401617de6565b6004356000526015602052600860406000200191613b2a8284618006565b60009283526020832090805b838510613d9d5760e460243501356000526018602052613b6f600160406000200160043560005260156020526009604060002001618283565b61010460243501356000526019602052613ba260016040600020016004356000526015602052600a604060002001618283565b613bb761014460243501602435600401617c01565b6004356000908152601560205260409020600c01906001600160401b03811161142c57613be8816139ab8454617027565b600092601f8211600114613d345792819293600092613d29575b50508160011b916000199060031b1c19161790555b613c2c61016460243501602435600401617c01565b6004356000908152601560205260409020600d01906001600160401b03811161142c57613c5d816139ab8454617027565b6000601f8211600114613cc457819293600092613cb9575b50508160011b916000199060031b1c19161790555b600435600052601560205260406000206101246024350135600b820155600e6101846024350135910155600080f35b013590508380613c75565b601f198216938360005260206000209160005b868110613d115750836001959610613cf7575b505050811b019055613c8a565b0135600019600384901b60f8161c19169055838080613cea565b90926020600181928686013581550194019101613cd7565b013590508380613c02565b826000526020600020906000945b601f1984168610613d8557600194955083601f19811610613d6b575b505050811b019055613c17565b0135600019600384901b60f8161c19169055838080613d5e565b91602060018192858501358155019301950194613d42565b613da78183617c01565b906001600160401b03821161142c57613dc4826120e68754617027565b600090601f8311600114613e10579282600194936020938695600092613e05575b5050600019600383901b1c191690841b1786555b01930194019391613b36565b013590508a80613de5565b8560005260206000209160005b601f1985168110613e68575083602093600196938796938794601f19811610613e4e575b505050811b018655613df9565b0135600019600384901b60f8161c191690558a8080613e41565b90926020600181928686013581550194019101613e1d565b613e8a8183617c01565b906001600160401b03821161142c57613ea7826120e68754617027565b600090601f8311600114613ef3579282600194936020938695600092613ee8575b5050600019600383901b1c191690841b1786555b01930194019391613af1565b013590508a80613ec8565b8560005260206000209160005b601f1985168110613f4b575083602093600196938796938794601f19811610613f31575b505050811b018655613edc565b0135600019600384901b60f8161c191690558a8080613f24565b90926020600181928686013581550194019101613f00565b613f6d8183617c01565b906001600160401b03821161142c57613f8a826120e68754617027565b600090601f8311600114613fd6579282600194936020938695600092613fcb575b5050600019600383901b1c191690841b1786555b01930194019391613aac565b013590508a80613fab565b8560005260206000209160005b601f198516811061402e575083602093600196938796938794601f19811610614014575b505050811b018655613fbf565b0135600019600384901b60f8161c191690558a8080614007565b90926020600181928686013581550194019101613fe3565b013590508380613a3e565b826000526020600020906000945b601f19841686106140a257600194955083601f19811610614088575b505050811b019055613a53565b0135600019600384901b60f8161c1916905583808061407b565b9160206001819285850135815501930195019461405f565b0135905083806139cb565b826000526020600020906000945b601f198416861061411657600194955083601f198116106140fc575b505050811b0190556139e0565b0135600019600384901b60f8161c191690558380806140ef565b916020600181928585013581550193019501946140d3565b60405162461bcd60e51b815260206004820152601c60248201527b5375622d63617465676f72792063616e6e6f7420626520656d70747960201b6044820152606490fd5b60405162461bcd60e51b815260206004820152601860248201527743617465676f72792063616e6e6f7420626520656d70747960401b6044820152606490fd5b60405162461bcd60e51b815260206004820152601560248201527453697a65732063616e6e6f7420626520656d70747960581b6044820152606490fd5b60405162461bcd60e51b8152602060048201526016602482015275436f6c6f72732063616e6e6f7420626520656d70747960501b6044820152606490fd5b60405162461bcd60e51b815260206004820152601b60248201527a4465736372697074696f6e2063616e6e6f7420626520656d70747960281b6044820152606490fd5b60405162461bcd60e51b815260206004820152602860248201527f4f6e6c79207468652073656c6c65722063616e20757064617465207468656972604482015267081c1c9bd91d58dd60c21b6064820152608490fd5b346105e25760a03660031901126105e2576004356001600160401b0381116105e2576142f6903690600401616f98565b60249081356001600160401b0381116105e257614317903690600401616f98565b6044356001600160401b0381116105e257614336903690600401616f98565b6064356001600160401b0381116105e257614355903690600401616f98565b906084356001600160401b0381116105e257614375903690600401616f98565b9261438133151561796f565b33600052601360205260ff604060002054166149cf57845115614992576143aa82511515617a4e565b6143b683511515617a8b565b604051946143c386616e9c565b855260208501526040840152606083015260808201524260a0820152600160c0820152336000526011602052604060002090805192835160018060401b03811161497d5761441b816144158654617027565b86617a07565b6020601f8211600114614914578192939495600092614909575b50508160011b916000199060031b1c19161783555b602082015180519093906001600160401b0381116148f45761447c816144736001850154617027565b60018501617a07565b6020601f821160011461488557819293949560009261487a575b50508160011b916000199060031b1c19161760018201555b604083015180519093906001600160401b038111614865576144e0816144d76002860154617027565b60028601617a07565b6020601f82116001146147f65781929394956000926147eb575b50508160011b916000199060031b1c19161760028301555b6060810151805160038401916001600160401b03821161476557819061453c826144158654617027565b602090601f83116001146147855760009261477a575b50508160011b916000199060031b1c19161790555b6080810151805160048401916001600160401b0382116147655761458f82611b828554617027565b602090601f83116001146146f357928260c0936145dd9796936006966000926146e8575b50508160011b916000199060031b1c19161790555b60a08101516005850155015115159101617812565b336000526013602052604060002060ff19906001828254161790556012602052600160406000209182541617905561461433619253565b15614663575b6040514281527fa1a1a78ff3033d5ee8393372052aeb2a16bbb347a29f3780370e9506c109e37260203392a26040516001815260008051602061932283398151915260203392a2005b600e5490600160401b8210156146d4576001820180600e558210156146c05750600e6000527fbb7b4a454dc3493923482f07822329ed19e8244eff582cc204f8554c3620c3fd0180546001600160a01b031916331790558061461a565b634e487b7160e01b60009081526032600452fd5b634e487b7160e01b60009081526041600452fd5b0151905089806145b3565b90601f198316918460005260206000209260005b81811061474d5750936145dd979693600696936001938360c09810614734575b505050811b0190556145c8565b015160001960f88460031b161c19169055898080614727565b92936020600181928786015181550195019301614707565b85634e487b7160e01b60005260416004526000fd5b015190508680614552565b6000858152602081209350601f198516905b8181106147d357509084600195949392106147ba575b505050811b019055614567565b015160001960f88460031b161c191690558680806147ad565b92936020600181928786015181550195019301614797565b0151905085806144fa565b6002840160005260206000209060005b601f198416811061484d575060019394959683601f19811610614834575b505050811b016002830155614512565b015160001960f88460031b161c19169055858080614824565b9091602060018192858b015181550193019101614806565b83634e487b7160e01b60005260416004526000fd5b015190508580614496565b6001830160005260206000209060005b601f19841681106148dc575060019394959683601f198116106148c3575b505050811b0160018201556144ae565b015160001960f88460031b161c191690558580806148b3565b9091602060018192858b015181550193019101614895565b82634e487b7160e01b60005260416004526000fd5b015190508580614435565b8460005260206000209060005b601f1984168110614965575060019394959683601f1981161061494c575b505050811b01835561444a565b015160001960f88460031b161c1916905585808061493f565b9091602060018192858b015181550193019101614921565b50634e487b7160e01b60009081526041600452fd5b60405162461bcd60e51b81526020600482015260168188015275109d5cda5b995cdcc81b985b59481c995c5d5a5c995960521b6044820152606490fd5b60405162461bcd60e51b815260206004820152601c818801527b20b63932b0b23c903932b3b4b9ba32b932b21030b99039b2b63632b960211b6044820152606490fd5b346105e25760403660031901126105e2576001600160401b036004356024358281116105e257614a46903690600401616f98565b614a4e617468565b816000526020906018825260406000205415614beb57614a70815115156184e0565b614a7b600c54618421565b80600c5560405190614a8c82616eb7565b808252838201838152604083019086825260608401926001908185526000526019875260406000209451855580850191518051998a1161142c57614ad48a611b828554617027565b8790601f8b11600114614b6e5799808060039694614b2a999896946000805160206193628339815191529c9d9e600094614b63575b50501b9160001990871b1c19161790555b5160028401555115159101617812565b8360005260188352614b466003604060002001600c549061817d565b600c5492614b5e604051928284938452830190616b49565b0390a3005b015192508e80614b09565b9990601f1982169a84600052896000209b60005b818110614bd657509b60039694928492614b2a9a9997956000805160206193628339815191529d9e9f10614bbe575b505050811b019055614b1a565b015160001983891b60f8161c191690558c8080614bb1565b838301518e559c85019c928b01928b01614b82565b60405162461bcd60e51b815260048101839052601e60248201527f506172656e742063617465676f727920646f6573206e6f7420657869737400006044820152606490fd5b346105e25760203660031901126105e257600435600052601560205260406000208054600160a01b600190036001830154169160405180806002840190614c7691617061565b03614c819082616f23565b60405180614c928160038601617061565b03614c9d9082616f23565b600483015460058401549060405180806009880190614cbb91617061565b03614cc69082616f23565b6040519081614cd881600a8a01617061565b03614ce39083616f23565b600b87015492604051948580600c8b0190614cfd91617061565b03614d089087616f23565b6040519687614d1a81600d8d01617061565b03614d259089616f23565b600e8a015499600f0154986040519c8d9c8d5260208d01528b6101e06040819201528c01614d5291616b49565b8b810360608d0152614d6391616b49565b9160808b015260a08a015288810360c08a0152614d7f91616b49565b87810360e0890152614d9091616b49565b90610100870152858103610120870152614da991616b49565b848103610140860152614dbb91616b49565b9161016084015260ff811615156101808401528060081c60ff1615156101a084015260101c60ff1615156101c08301520390f35b346105e25760003660031901126105e257614e08617468565b600080546001600160a01b0319811682556001600160a01b03166000805160206193028339815191528280a3005b346105e25760203660031901126105e2576001600160a01b03614e57616e38565b168015614e765760005260056020526020604060002054604051908152f35b60405162461bcd60e51b815260206004820152602960248201527f4552433732313a2061646472657373207a65726f206973206e6f7420612076616044820152683634b21037bbb732b960b91b6064820152608490fd5b346105e2576020806003193601126105e257614ee7616e38565b60405190614ef482616ed2565b6000608060609384815284868201528460408201528285820152015260018060a01b031690816000526014835260ff60406000205416916010845260406000209160405191614f4283616ed2565b604051614f53816103ce8188617061565b835260405190614f6a826133918160018901617061565b86840191825260405191614f85836106308160028a01617061565b6040850192835260ff6004600388015497868801988952015416916080860192151583526000526013885260ff604060002054169283600014615048576012895260ff60406000205416955b604051998a9915158a52890160809052516080890160a090526101208901614ff891616b49565b9151607f1992838a82030160a08b015261501191616b49565b9051918882030160c089015261502691616b49565b945160e087015251151561010086015215156040850152830161035e916172dd565b600095614fd1565b346105e25760203660031901126105e2576004356000526019602052604060002060405161507d81616eb7565b8154815260405190615096826133918160018701617061565b6020810191825260ff600360028501549460408401958652015416906060810191151582526150c7815115156185ac565b5191519251905115156150ec6040519485948552608060208601526080850190616b49565b91604084015260608301520390f35b346105e25761510936616fe8565b615114929192617468565b816000526020926018845261512f6040600020541515618546565b61513b81511515618494565b60008381526018855260409020815194906001908101906001600160401b03871161142c5761516e876139ab8454617027565b82601f88116001146151dc5796808060189594936000805160206192e2833981519152999a6000936151d1575b501b916000199060031b1c19161790555b85600052526151c2826002604060002001617812565b611c396040519283928361858c565b88015192508b61519b565b96601f1981169783600052846000209860005b81811061523c57509882916018969594936000805160206192e28339815191529a9b10615223575b5050811b0190556151ac565b87015160001960f88460031b161c191690558980615217565b878301518b55998401999186019186016151ef565b6003196040368201126105e2576024906001600160401b038235116105e257610100908235360301126105e2576152866186bb565b60043560005260176020526152a260ff604060002054166181fd565b60043560005260156020526152c560ff600f6040600020015460101c1615618242565b60043560005260156020526005604060002001541561593b57600435600052601560205260ff600f60406000200154166158fa57600435600052601560205260018060a01b036001604060002001541633146158b857615329600482350180617c01565b90501561587f57615341818035018235600401617c01565b9050156158415761535a60448235018235600401617c01565b90501561580d5761537360648235018235600401617c01565b9050156157d85761538c60848235018235600401617c01565b9050156157a1576153a560a48235018235600401617c01565b905015615766576153ca6153c160c48335018335600401617c01565b90501515617a8b565b6153e86153df60e48335018335600401617c01565b90501515617a4e565b60043560005260156020526004604060002001549081341061572d5760043560005260156020526005604060002001805480156157185760001901905560043560005260156020526040600020600581015415615704575b600101546040516001600160a01b03909116919061545d81616e80565b6004823501356001600160401b0381116105e257615482906004369185350101616f98565b81526001600160401b038235830135116105e2576154a93683358085013501600401616f98565b60208201528135604401356001600160401b0381116105e2576154d3906004369185350101616f98565b60408201528135606401356001600160401b0381116105e2576154fd906004369185350101616f98565b60608201528135608401356001600160401b0381116105e257615527906004369185350101616f98565b6080820152813560a401356001600160401b0381116105e257615551906004369185350101616f98565b60a0820152813560c401356001600160401b0381116105e25761557b906004369185350101616f98565b60c0820152813560e40135906001600160401b0382116105e2576155a9615614926004369186350101616f98565b60e0820152604051906155bb82616e80565b60043582528560208301528560408301524260608301523360808301528460a0830152600060c083015260e082015233600052601b602052615601816040600020618711565b83600052601c6020526040600020618711565b81600052601a60205260406000208054918483018093116156f057505560405182815282602082015242604082015233907f45280c7ac9cec77edd454e39e1641a3e22619146cf074a4239beee86a7c07edc606060043592a46001600954016009556156808134618661565b806156e0575b50600435600052601560205260018060a01b03600160406000200154169060405190815242602082015233907fbe6177108f4df43c5d7be79cb219c969fc97915bbdb4b56d14d391dcdcc16060604060043592a460018055005b6156ea90336191ed565b81615686565b634e487b7160e01b60009081526011600452fd5b600f8101805460ff19166001179055615440565b82634e487b7160e01b60005260116004526000fd5b60649060126040519162461bcd60e51b83526020600484015282015271496e73756666696369656e742066756e647360701b6044820152fd5b60649060146040519162461bcd60e51b83526020600484015282015273141bdcdd185b0818dbd919481c995c5d5a5c995960621b6044820152fd5b60649060106040519162461bcd60e51b8352602060048401528201526f10dbdd5b9d1c9e481c995c5d5a5c995960821b6044820152fd5b606490600e6040519162461bcd60e51b8352602060048401528201526d14dd185d19481c995c5d5a5c995960921b6044820152fd5b606490600d6040519162461bcd60e51b8352602060048401528201526c10da5d1e481c995c5d5a5c9959609a1b6044820152fd5b60649060176040519162461bcd60e51b8352602060048401528201527614dd1c99595d081859191c995cdcc81c995c5d5a5c9959604a1b6044820152fd5b60649060126040519162461bcd60e51b83526020600484015282015271119d5b1b081b985b59481c995c5d5a5c995960721b6044820152fd5b606490601b6040519162461bcd60e51b8352602060048401528201527a10d85b9b9bdd08189d5e481e5bdd5c881bdddb881c1c9bd91d58dd602a1b6044820152fd5b606490601a6040519162461bcd60e51b83526020600484015282015279141c9bd91d58dd081a5cc8185b1c9958591e481cdbdb191bdd5d60321b6044820152fd5b60649060176040519162461bcd60e51b8352602060048401528201527650726f64756374206973206f7574206f662073746f636b60481b6044820152fd5b346105e25760203660031901126105e2576020615997600435617507565b6040516001600160a01b039091168152f35b346105e25760203660031901126105e2576001600160a01b036159ca616e38565b16600052601a6020526020604060002054604051908152f35b346105e25760203660031901126105e2576004356159ff617468565b60648111615a0c57600d55005b60405162461bcd60e51b8152602060048201526012602482015271496e76616c69642070657263656e7461676560701b6044820152606490fd5b346105e25760003660031901126105e25760405180600e5480835260208093018091600e600052846000209060005b86828210615ad4578686615a8b82880383616f23565b604051928392818401908285525180915260408401929160005b828110615ab457505050500390f35b83516001600160a01b031685528695509381019392810192600101615aa5565b83546001600160a01b031685529093019260019283019201615a75565b346105e25760203660031901126105e257600435600f548110156105e257600f6000526000805160206193a283398151915201546040516001600160a01b039091168152602090f35b346105e25760203660031901126105e2576001600160a01b03615b5b616e38565b166000526012602052602060ff604060002054166108c060405180926172dd565b346105e2576020806003193601126105e257615b96616e38565b615b9e617ac8565b506001600160a01b03166000818152601383526040902054615bc29060ff16617aff565b6000526011815260406000209060ff600660405193615be085616e9c565b604051615bf1816103ce8185617061565b8552604051615c07816103ce8160018601617061565b84860152604051615c1f816103ce8160028601617061565b6040860152604051615c38816103ce8160038601617061565b6060860152604051615c51816103ce8160048601617061565b6080860152600581015460a0860152015416151560c083015261035e60405192828493845283019061725d565b346105e257611389615c8f36616fb3565b9060405192615c9d84616f08565b600084526175b3565b346105e25760003660031901126105e257615cbf6186bb565b336000526013602052615cd960ff60406000205416617bb7565b33600052601a6020526040600020548015615d6d57600d5490818102918183040361141657615d61615d126064615d6794048093618661565b9133600052601a60205260006040812055604051600081527f8ad64a0ac7700dd8425ab0499f107cb6e2cd1581d803c5b8c1c79dcb8190b1af60203392a26000546001600160a01b03166191ed565b336191ed565b60018055005b60405162461bcd60e51b81526020600482015260166024820152754e6f2062616c616e636520746f20776974686472617760501b6044820152606490fd5b346105e2576020806003193601126105e2576001600160a01b039081615dcf616e38565b16600052601c81526040600020805490615de882617f37565b92615df66040519485616f23565b82845260009182528082208185015b848410615e1a576040518061035e888261719f565b600e83600192604051615e2c81616e80565b85548152848601548382015260028601546040820152600386015460608201528a600487015416608082015260ff600587015460a08d8216818501521c16151560c0820152615e7d6006870161731e565b60e0820152815201920193019290615e05565b346105e25760203660031901126105e2576001600160a01b03615eb1616e38565b166000526010602052615f24604060002060405190615ed4826133918184617061565b604051615ee8816103ce8160018601617061565b615f40604051615eff816103ce8160028801617061565b615f3260ff60046003870154960154169360405197889760a0895260a0890190616b49565b908782036020890152616b49565b908582036040870152616b49565b916060840152151560808301520390f35b346105e257615f5f36616fe8565b615f6a929192617468565b8160005260209260198452615f8560406000205415156185ac565b615f91815115156184e0565b60008381526019855260409020815194906001908101906001600160401b03871161142c57615fc4876139ab8454617027565b82601f8811600114616023579680806019959493600080516020619382833981519152999a600093616018575b501b916000199060031b1c19161790555b85600052526151c2826003604060002001617812565b88015192508b615ff1565b96601f1981169783600052846000209860005b81811061608357509882916019969594936000805160206193828339815191529a9b1061606a575b5050811b019055616002565b87015160001960f88460031b161c19169055898061605e565b878301518b5599840199918601918601616036565b346105e25760403660031901126105e257602480356004356000805b8260005260156020908082526010918260406000200180548510156162ae576160de85899261869f565b5054146160f6575050506160f190618421565b6160b4565b919350919394600052601d815260ff94856040600020541615616274578060005282825261612a858560406000200161869f565b50600190810154909690336001600160a01b0391821614908115616266575b501561621157816000528383526004616168878760406000200161869f565b500154166161d457916161899391600495936000525260406000200161869f565b5001805460ff1916821790555b1561619d57005b60649060106040519162461bcd60e51b8352602060048401528201526f14995d9a595dc81b9bdd08199bdd5b9960821b6044820152fd5b60405162461bcd60e51b8152600481018390526016818901527514995d9a595dc8185b1c9958591e4819195b195d195960521b6044820152606490fd5b60405162461bcd60e51b8152600481018490526028818a01527f4f6e6c79207265766965776572206f72206f776e65722063616e2064656c6574604482015267652072657669657760c01b6064820152608490fd5b600054163314905089616149565b50606491866040519262461bcd60e51b845260048401528201527414995d9a595dc8191bd95cc81b9bdd08195e1a5cdd605a1b6044820152fd5b5050505050915050616196565b346105e2576113896162cc36616fb3565b916162df6162da843361764e565b617551565b617716565b346105e25760203660031901126105e257600435616300617468565b80600052601960205261631960406000205415156185ac565b8060005260196020526000805160206193828339815191526127ac60406000206003810160ff198154169055604051918291604083526001604084019101617061565b346105e25760603660031901126105e257602480356004356044356001600160401b0381116105e257616393903690600401616f98565b90806000526020916015835260018060a01b036001604060002001541633146164ec57831515806164e1575b1561649d5780511561645f5790601592916001600a54019081600a556163e361866e565b958287523385880152604087015260608601524260a0860152600052601d82526040600020600160ff198254161790556000525260106040600020018054600160401b8110156148655761643c9160018201815561869f565b61644a57611389925061804f565b82634e487b7160e01b60005260006004526000fd5b60405162461bcd60e51b81526004810184905260178187015276436f6d6d656e742063616e6e6f7420626520656d70747960481b6044820152606490fd5b60405162461bcd60e51b815260048101849052601e818701527f526174696e67206d757374206265206265747765656e203120616e64203500006044820152606490fd5b5060058411156163bf565b60405162461bcd60e51b8152600481018490526026818701527f53656c6c65722063616e6e6f7420726576696577207468656972206f776e20706044820152651c9bd91d58dd60d21b6064820152608490fd5b346105e25760003660031901126105e257616558617468565b33600052601e602052604060002060018060a01b031981541690556000805160206192a28339815191526040805133815260006020820152a1005b346105e25760403660031901126105e2576113896165af616e4e565b600435618e47565b346105e25760203660031901126105e2576001600160a01b036165d8616e38565b166000526014602052602060ff604060002054166040519015158152f35b346105e25760403660031901126105e25761660f616e38565b602435906001600160a01b03808061662685617507565b16921691808314616721578033149081156166fc575b501561669157600083815260066020526040902080546001600160a01b0319168317905561666983617507565b167f8c5be1e5ebec7d5bd14f71427d1e84f3dd0314c0f7b2291e5b200ac8c7c3b925600080a4005b60405162461bcd60e51b815260206004820152603d60248201527f4552433732313a20617070726f76652063616c6c6572206973206e6f7420746f60448201527f6b656e206f776e6572206f7220617070726f76656420666f7220616c6c0000006064820152608490fd5b9050600052600760205260406000203360005260205260ff604060002054168461663c565b60405162461bcd60e51b815260206004820152602160248201527f4552433732313a20617070726f76616c20746f2063757272656e74206f776e656044820152603960f91b6064820152608490fd5b346105e25760203660031901126105e257602061599760043561752a565b346105e25760003660031901126105e2576040516000906002546167b181617027565b80835260019180831690811561332557506001146167d95761035e836132b781870382616f23565b6002600090815260209450917f405787fa12a823e0f2b7631cc41b3ba8828b3321ca811111fa75cd3aa3bb5ace5b828410616820575050508101909101906132b7816132a7565b8054858501870152928501928101616807565b346105e25760003660031901126105e25760088054600060015b82811115616a6d575061685f90618430565b9060009260015b8281111561687c576040518061035e8682616dd6565b80600052602060158152604060002090600f82015460ff926010908483831c1615806168b7575b5050505050506168b290618421565b616866565b60409a969a51956168c787616e64565b8254875260018301546001600160a01b0316868801526040516168f1816103ce8160028801617061565b604088015260405161690a816103ce8160038801617061565b606088015260048301546080880152600583015460a088015260069461693186850161835b565b60c08901526169426007850161835b565b60e08901526169528a850161835b565b61010089015260405161696c816103ce8160098901617061565b610120890152604051616986816103ce81600a8901617061565b610140890152600b8401546101608901526040516169ab816103ce81600c8901617061565b6101808901526040516169c5816103ce81600d8901617061565b6101a0890152600e8401546101c089015281811615156101e0890152891c161515610200870152156102208601520190815491616a0183617f37565b93616a0f6040519586616f23565b8385526000918252808220918186015b858210616a515750505050505091816168b293610240616a459401526105398288618480565b949086808080806168a3565b8483600192616a5f876183c0565b815201940191019092616a1f565b80600052601560205260ff600f6040600020015460101c1615616a99575b616a9490618421565b61684d565b90616aa6616a9491618421565b919050616a8b565b346105e25760203660031901126105e25760043563ffffffff60e01b81168091036105e2576020906380ac58cd60e01b8114908115616b0b575b8115616afa575b506040519015158152f35b6301ffc9a760e01b14905082616aef565b635b5e139f60e01b81149150616ae8565b346105e25760203660031901126105e257602090600435600052601d825260ff6040600020541615158152f35b919082519283825260005b848110616b75575050826000602080949584010152601f8019910116010190565b602081830181015184830182015201616b54565b908082519081815260208091019281808460051b8301019501936000915b848310616bb75750505050505090565b9091929394958480616bd5600193601f198682030187528a51616b49565b9801930193019194939290616ba7565b908082519081815260208091019281808460051b8301019501936000915b848310616c135750505050505090565b9091929394958480600192601f1985820301865289519081518152848060a01b0383830151168382015260408083015190820152616c606060808401519060c08091850152830190616b49565b9160808082015115159083015260a0809101519101529801930193019194939290616c03565b90616dd3918051825260018060a01b036020820151166020830152616d8d616d79616d5a616d46616d32616d1e616d0c616ce6616cd460408a015160408c61026091829101528c0190616b49565b60608a01518b820360608d0152616b49565b608089015160808b015260a089015160a08b015260c08901518a820360c08c0152616b89565b60e088015189820360e08b0152616b89565b6101008088015190898303908a0152616b89565b610120808701519088830390890152616b49565b610140808601519087830390880152616b49565b6101608085015190860152610180808501519086830390870152616b49565b6101a0808401519085830390860152616b49565b916101c080830151908201526101e08083015115159082015261020080830151151590820152610220808301511515908201526102408092015191818403910152616be5565b90565b602080820190808352835180925260408301928160408460051b8301019501936000915b848310616e0a5750505050505090565b9091929394958480616e28600193603f198682030187528a51616c86565b9801930193019194939290616dfa565b600435906001600160a01b03821682036105e257565b602435906001600160a01b03821682036105e257565b61026081019081106001600160401b0382111761142c57604052565b61010081019081106001600160401b0382111761142c57604052565b60e081019081106001600160401b0382111761142c57604052565b608081019081106001600160401b0382111761142c57604052565b60a081019081106001600160401b0382111761142c57604052565b60c081019081106001600160401b0382111761142c57604052565b602081019081106001600160401b0382111761142c57604052565b601f909101601f19168101906001600160401b0382119082101761142c57604052565b6001600160401b03811161142c57601f01601f191660200190565b929192616f6d82616f46565b91616f7b6040519384616f23565b8294818452818301116105e2578281602093846000960137010152565b9080601f830112156105e257816020616dd393359101616f61565b60609060031901126105e2576001600160a01b039060043582811681036105e2579160243590811681036105e2579060443590565b9060606003198301126105e25760043591602435906001600160401b0382116105e25761701791600401616f98565b9060443580151581036105e25790565b90600182811c92168015617057575b602083101461704157565b634e487b7160e01b600052602260045260246000fd5b91607f1691617036565b906000929180549161707283617027565b9182825260019384811690816000146170d45750600114617094575b50505050565b90919394506000526020928360002092846000945b8386106170c057505050500101903880808061708e565b8054858701830152940193859082016170a9565b9294505050602093945060ff191683830152151560051b0101903880808061708e565b616dd39160e061718e61717c61716a6171586171466171346171228951610100808b528a0190616b49565b60208a015189820360208b0152616b49565b604089015188820360408a0152616b49565b60608801518782036060890152616b49565b60808701518682036080880152616b49565b60a086015185820360a0870152616b49565b60c085015184820360c0860152616b49565b9201519060e0818403910152616b49565b602080820190808352835180925260409283810182858560051b8401019601946000925b8584106171d4575050505050505090565b90919293949596858061724c600193603f198682030188528b51805182528381015184830152878101518883015260608082015190830152858060a01b0360808181840151169084015260a09081830151169083015260c08082015115159083015260e08091015191610100809282015201906170f7565b9901940194019295949391906171c3565b9060c0806172c86172b66172a4617292617280885160e0895260e0890190616b49565b602089015188820360208a0152616b49565b60408801518782036040890152616b49565b60608701518682036060880152616b49565b60808601518582036080870152616b49565b9360a081015160a08501520151151591015290565b9060048210156132105752565b80548210156122875760005260206000200190600090565b805482101561228757600052600e602060002091020190600090565b90600760e06040936173e685519161733583616e80565b6106308397805161734a816103ce8187617061565b8552805161735f816103ce8160018801617061565b60208601528051617377816103ce8160028801617061565b81860152805161738e816103ce8160038801617061565b606086015280516173a6816103ce8160048801617061565b608086015280516173be816103ce8160058801617061565b60a086015280516173d6816103ce8160068801617061565b60c0860152518096819301617061565b0152565b95929091616dd39897959492875260208701526040860152606085015260018060a01b0380921660808501521660a0830152151560c0820152610100908160e082015201906170f7565b90815180825260208080930193019160005b828110617454575050505090565b835185529381019392810192600101617446565b6000546001600160a01b0316330361747c57565b606460405162461bcd60e51b815260206004820152602060248201527f4f776e61626c653a2063616c6c6572206973206e6f7420746865206f776e65726044820152fd5b156174c757565b60405162461bcd60e51b8152602060048201526018602482015277115490cdcc8c4e881a5b9d985b1a59081d1bdad95b88125160421b6044820152606490fd5b6000908152600460205260409020546001600160a01b0316616dd38115156174c0565b6175366127d782617823565b6000908152600660205260409020546001600160a01b031690565b1561755857565b60405162461bcd60e51b815260206004820152602d60248201527f4552433732313a2063616c6c6572206973206e6f7420746f6b656e206f776e6560448201526c1c881bdc88185c1c1c9bdd9959609a1b6064820152608490fd5b906175d79392916175c76162da843361764e565b6175d2838383617716565b617870565b156175de57565b60405162461bcd60e51b8152806175f7600482016175fb565b0390fd5b60809060208152603260208201527f4552433732313a207472616e7366657220746f206e6f6e20455243373231526560408201527131b2b4bb32b91034b6b83632b6b2b73a32b960711b60608201520190565b906001600160a01b03808061766284617507565b16931691838314938415617695575b50831561767f575b50505090565b61768b9192935061752a565b1614388080617679565b909350600052600760205260406000208260005260205260ff604060002054169238617671565b156176c357565b60405162461bcd60e51b815260206004820152602560248201527f4552433732313a207472616e736665722066726f6d20696e636f72726563742060448201526437bbb732b960d91b6064820152608490fd5b9061773e9161772484617507565b6001600160a01b03939184169284929091831684146176bc565b169182156177c1578161775b9161775486617507565b16146176bc565b600080516020619342833981519152600084815260066020526040812060018060a01b03199081815416905583825260056020526040822060001981540190558482526040822060018154019055858252600460205284604083209182541617905580a4565b60405162461bcd60e51b8152602060048201526024808201527f4552433732313a207472616e7366657220746f20746865207a65726f206164646044820152637265737360e01b6064820152608490fd5b9060ff801983541691151516179055565b6000908152600460205260409020546001600160a01b0316151590565b3d1561786b573d9061785182616f46565b9161785f6040519384616f23565b82523d6000602084013e565b606090565b91926000929190813b15617965576020916178c69185604051958680958194630a85bd0160e11b9b8c845233600485015260018060a01b0380951660248501526044840152608060648401526084830190616b49565b0393165af190829082617916575b5050617908576178e2617840565b805190816179035760405162461bcd60e51b8152806175f7600482016175fb565b602001fd5b6001600160e01b0319161490565b909192506020813d821161795d575b8161793260209383616f23565b810103126179595751906001600160e01b03198216820361795657509038806178d4565b80fd5b5080fd5b3d9150617925565b5050505050600190565b1561797657565b60405162461bcd60e51b815260206004820152600f60248201526e496e76616c6964206164647265737360881b6044820152606490fd5b156179b457565b60405162461bcd60e51b81526020600482015260146024820152734e616d652063616e6e6f7420626520656d70747960601b6044820152606490fd5b8181106179fb575050565b600081556001016179f0565b9190601f8111617a1657505050565b617a42926000526020600020906020601f840160051c83019310617a44575b601f0160051c01906179f0565b565b9091508190617a35565b15617a5557565b60405162461bcd60e51b815260206004820152600e60248201526d115b585a5b081c995c5d5a5c995960921b6044820152606490fd5b15617a9257565b60405162461bcd60e51b815260206004820152600e60248201526d141a1bdb99481c995c5d5a5c995960921b6044820152606490fd5b60405190617ad582616e9c565b600060c0836060808252806020830152806040830152808083015260808201528260a08201520152565b15617b0657565b60405162461bcd60e51b815260206004820152601560248201527414d95b1b195c881b9bdd081c9959da5cdd195c9959605a1b6044820152606490fd5b6001600160a01b03908116908115617b7957600054168114617b7357600052601260205260ff6040600020541690565b50600290565b60405162461bcd60e51b8152602060048201526016602482015275496e76616c69642073656c6c6572206164647265737360501b6044820152606490fd5b15617bbe57565b60405162461bcd60e51b815260206004820152601b60248201527a26bab9ba1031329030903932b3b4b9ba32b932b21039b2b63632b960291b6044820152606490fd5b903590601e19813603018212156105e257018035906001600160401b0382116105e2576020019181360383136105e257565b15617c3a57565b60405162461bcd60e51b815260206004820152601c60248201527b05072696365206d7573742062652067726561746572207468616e20360241b6044820152606490fd5b15617c8557565b60405162461bcd60e51b815260206004820152601c60248201527b053746f636b206d7573742062652067726561746572207468616e20360241b6044820152606490fd5b15617cd057565b60405162461bcd60e51b815260206004820152601d60248201527f576569676874206d7573742062652067726561746572207468616e20300000006044820152606490fd5b15617d1c57565b60405162461bcd60e51b81526020600482015260156024820152744d6f64656c2063616e6e6f7420626520656d70747960581b6044820152606490fd5b15617d6057565b60405162461bcd60e51b81526020600482015260156024820152744272616e642063616e6e6f7420626520656d70747960581b6044820152606490fd5b15617da457565b60405162461bcd60e51b815260206004820152601a6024820152790534b55206d7573742062652067726561746572207468616e20360341b6044820152606490fd5b903590601e19813603018212156105e257018035906001600160401b0382116105e257602001918160051b360383136105e257565b15617e2257565b60405162461bcd60e51b8152602060048201526016602482015275496d616765732063616e6e6f7420626520656d70747960501b6044820152606490fd5b15617e6757565b60405162461bcd60e51b815260206004820152601c60248201527b496d616765732063616e6e6f74206265206d6f7265207468616e203560201b6044820152606490fd5b60405190617eb882616e64565b8161024060009182815282602082015260609283604083015283808301528060808301528060a08301528360c08301528360e08301528361010083015283610120830152836101408301528061016083015283610180830152836101a0830152806101c0830152806101e0830152806102008301526102208201520152565b6001600160401b03811161142c5760051b60200190565b92919092617f5b84617f37565b91617f696040519384616f23565b829480845260208094019060051b8301928284116105e25780915b848310617f9357505050505050565b82356001600160401b0381116105e2578691617fb28684938601616f98565b815201920191617f84565b617fc78154617027565b9081617fd1575050565b81601f60009311600114617fe3575055565b908083918252618002601f60208420940160051c8401600185016179f0565b5555565b90600160401b811161142c5781549181815582821061802457505050565b600052602060002091820191015b81811061803d575050565b80618049600192617fbd565b01618032565b81518155602080830151600180840180546001600160a01b0319166001600160a01b03939093169290921790915560408401516002840155606084015180519394909390926003860192906001600160401b03831161142c576180b6836144158654617027565b80601f841160011461810e57509180809260a0969594600598600094618103575b50501b916000199060031b1c19161790555b6180fc6080820151151560048601617812565b0151910155565b0151925038806180d7565b91939495601f1984168660005283600020936000905b828210618166575050916005979593918560a09896941061814d575b505050811b0190556180e9565b015160001960f88460031b161c19169055388080618140565b808886978294978701518155019601940190618124565b8054600160401b81101561142c5761819a916001820181556172ea565b819291549060031b91821b91600019901b1916179055565b156181b957565b60405162461bcd60e51b815260206004820152601c60248201527b115490cdcc8c4e881d1bdad95b88185b1c9958591e481b5a5b9d195960221b6044820152606490fd5b1561820457565b60405162461bcd60e51b8152602060048201526016602482015275141c9bd91d58dd08191bd95cc81b9bdd08195e1a5cdd60521b6044820152606490fd5b1561824957565b60405162461bcd60e51b8152602060048201526012602482015271141c9bd91d58dd081a5cc819195b195d195960721b6044820152606490fd5b90808214618357576182958154617027565b906001600160401b03821161142c5781906182b4826144158654617027565b600090601f83116001146182eb576000926182e0575b50508160011b916000199060031b1c1916179055565b0154905038806182ca565b81526020808220858352818320935090601f1985169083905b82821061833e575050908460019594939210618325575b505050811b019055565b015460001960f88460031b161c1916905538808061831b565b8495819295850154815560018091019601940190618304565b5050565b90815461836781617f37565b9260409361837785519182616f23565b828152809460208092019260005281600020906000935b85851061839d57505050505050565b600184819284516183b2816103ce818a617061565b81520193019401939161838e565b906040516183cd81616eed565b60a06005829480548452600180841b03600182015416602085015260028101546040850152604051618406816103ce8160038601617061565b606085015260ff600482015416151560808501520154910152565b60001981146114165760010190565b9061843a82617f37565b6184476040519182616f23565b8281528092618458601f1991617f37565b019060005b82811061846957505050565b602090618474617eab565b8282850101520161845d565b80518210156122875760209160051b010190565b1561849b57565b60405162461bcd60e51b815260206004820152601d60248201527f43617465676f7279206e616d652063616e6e6f7420626520656d7074790000006044820152606490fd5b156184e757565b606460405162461bcd60e51b815260206004820152602060248201527f53756263617465676f7279206e616d652063616e6e6f7420626520656d7074796044820152fd5b90821015612287576185429160051b810190617c01565b9091565b1561854d57565b60405162461bcd60e51b815260206004820152601760248201527610d85d1959dbdc9e48191bd95cc81b9bdd08195e1a5cdd604a1b6044820152606490fd5b906185a4602091949394604084526040840190616b49565b931515910152565b156185b357565b60405162461bcd60e51b815260206004820152601a60248201527914dd5898d85d1959dbdc9e48191bd95cc81b9bdd08195e1a5cdd60321b6044820152606490fd5b9060405191828154918282526020928383019160005283600020936000905b82821061862a57505050617a4292500383616f23565b855484526001958601958895509381019390910190618614565b60005b82811061865357505050565b606082820152602001618647565b9190820391821161141657565b6040519061867b82616eed565b600060a0838281528260208201528260408201526060808201528260808201520152565b8054821015612287576000526006602060002091020190600090565b6002600154146186cc576002600155565b60405162461bcd60e51b815260206004820152601f60248201527f5265656e7472616e637947756172643a207265656e7472616e742063616c6c006044820152606490fd5b8054600160401b81101561142c57618730906001928382018155617302565b929092618dd75780518355602080820151838501556040820151600285015560608201516003808601919091556080830151600480870180546001600160a01b0319166001600160a01b0393841617905560a08086015160058901805460c08901516001600160a81b0319909116929095169190911793151590911b60ff60a01b169290921790915560e0909301518051805191966001600160401b039593949193926006820190878111618dc2576187ed816139ab8454617027565b8084601f97888311600114618d6057600092618d55575b505060001982891b1c191690891b1790555b6007810182890151805190888211618b1f578190618838826144158654617027565b8590888311600114618cf357600092618ce8575b505060001982891b1c191690891b1790555b600881016040890151805190888211618b1f578190618881826144158654617027565b8590888311600114618c8657600092618c7b575b505060001982891b1c191690891b1790555b600981016060890151805190888211618b1f5781906188ca826144158654617027565b8590888311600114618c1957600092618c0e575b505060001982891b1c191690891b1790555b600a81016080890151805190888211618b1f578190618913826144158654617027565b8590888311600114618bac57600092618ba1575b505060001982891b1c191690891b1790555b600b810160a0890151805190888211618b1f57819061895c826144158654617027565b8590888311600114618b3f57600092618b34575b505060001982891b1c191690891b1790555b600c810160c0890151805190888211618b1f576189a382611b828554617027565b8490878311600114618ab2579180600d949260e09694600092618aa7575b5050600019828b1b1c1916908b1b1790555b01970151918251958611618a9257506189f6856189f08954617027565b89617a07565b80928511600114618a2c5750938394918492600095618a21575b50501b92600019911b1c1916179055565b015193503880618a10565b92919084601f1981168860005285600020956000905b89838310618a785750505010618a5e575b50505050811b019055565b01519060f884600019921b161c1916905538808080618a53565b858701518955909701969485019488935090810190618a42565b604190634e487b7160e01b6000525260246000fd5b0151905038806189c1565b8a9291601f1983169185600052876000209260005b89828210618b095750509160e09795939185600d98969410618af1575b505050811b0190556189d3565b0151600019838d1b60f8161c19169055388080618ae4565b8385015186558f97909501949384019301618ac7565b604186634e487b7160e01b6000525260246000fd5b015190503880618970565b908b9350601f1983169185600052876000209260005b89828210618b8b5750508411618b73575b505050811b019055618982565b0151600019838b1b60f8161c19169055388080618b66565b8385015186558f97909501949384019301618b55565b015190503880618927565b908b9350601f1983169185600052876000209260005b89828210618bf85750508411618be0575b505050811b019055618939565b0151600019838b1b60f8161c19169055388080618bd3565b8385015186558f97909501949384019301618bc2565b0151905038806188de565b908b9350601f1983169185600052876000209260005b89828210618c655750508411618c4d575b505050811b0190556188f0565b0151600019838b1b60f8161c19169055388080618c40565b8385015186558f97909501949384019301618c2f565b015190503880618895565b908b9350601f1983169185600052876000209260005b89828210618cd25750508411618cba575b505050811b0190556188a7565b0151600019838b1b60f8161c19169055388080618cad565b8385015186558f97909501949384019301618c9c565b01519050388061884c565b908b9350601f1983169185600052876000209260005b89828210618d3f5750508411618d27575b505050811b01905561885e565b0151600019838b1b60f8161c19169055388080618d1a565b8385015186558f97909501949384019301618d09565b015190503880618804565b908b9350601f1983169185600052876000209260005b89828210618dac5750508411618d94575b505050811b019055618816565b0151600019838b1b60f8161c19169055388080618d87565b8385015186558f97909501949384019301618d76565b604185634e487b7160e01b6000525260246000fd5b634e487b7160e01b600052600060045260246000fd5b15618df457565b60405162461bcd60e51b815260206004820152602560248201527f4f6e6c792076657269666965642073656c6c6572206f72206f776e657220616c6044820152641b1bddd95960da1b6064820152608490fd5b6000805490939291906001600160a01b039081163314618f2a57338552601e60205260408520548116908115618ed457818652601260205260ff6040872054166004811015618ec05791617a429596916002618eae9414928315618eb3575b505050618ded565b618f32565b5416149050388080618ea6565b634e487b7160e01b87526021600452602487fd5b9050601260205260ff6040862054166004811015618f165794618eae916002617a42969714918215618f08575b5050618ded565b909150541633143880618f01565b634e487b7160e01b86526021600452602486fd5b50617a429293505b600091825b60018060a01b0380831680600052601b60208181526040928360002080548710156191df57618f67878a92617302565b505414618f81575050505050618f7c90618421565b618f37565b809192939496979850600052828252618f9d8585600020617302565b509560ff60058098015460a01c1661919f57816000528383528087618fc58888600020617302565b500154163314908115619191575b501561913a5790618fed9493929160005252600020617302565b5001805460ff60a01b1916600160a01b17905560015b1561910057816000526020916015835260018060a01b039260019384936040828682600020015416866000905b619052575b50506000805160206192c2833981519152949550519586521693a3565b81600052601c8087528360002080548310156190f957619073838a92617302565b505414806190d4575b619090575061908a90618421565b87619030565b6000805160206192c2833981519152979850906190b891600593600052875283600020617302565b5001805460ff60a01b1916600160a01b17905586959438619035565b50826000528087528560046190ec8487600020617302565b500154168686161461907c565b5050619035565b60405162461bcd60e51b8152602060048201526012602482015271141d5c98da185cd9481b9bdd08199bdd5b9960721b6044820152606490fd5b835162461bcd60e51b815260048101839052602a60248201527f4f6e6c792073656c6c6572206f72206f776e65722063616e206d61726b2061736044820152690819195b1a5d995c995960b21b6064820152608490fd5b600054163314905038618fd3565b6064838587519162461bcd60e51b8352600483015260248201527a105b1c9958591e481b585c9ad95908185cc819195b1a5d995c9959602a1b6044820152fd5b505050505050509091619003565b6000918291829182916001600160a01b031661920a81151561796f565b5af1619214617840565b501561921c57565b60405162461bcd60e51b815260206004820152600f60248201526e151c985b9cd9995c8819985a5b1959608a1b6044820152606490fd5b600090600e8054925b83811061926c5750505050600090565b6000828152602090208101546001600160a01b038481169116146192985761929390618421565b61925c565b5050505060019056fe32b449308c94e824ccedd9877932cd82f89a481c06c4643a0cb2914454a8c582f9dc8543b583e01f592678422369b2777e3649761f5808ae432cb1c24ca9438c79d3150b1760cd391f5006c9543aea088e4c9060f3e582ea0a948dc6649b25da8be0079c531659141344cd1fd0a4f28419497f9722a3daafe3b4186f6b6457e0d8f7bcb2c5cffc294a0aaef719685993d7be95273fb8254803a1563510ccefedddf252ad1be2c89b69c2b068fc378daa952ba7f163c4a11628f55a4df523b3ef5a8a989e12f3ce7cf805b73156a361da5d8369f0c37173209308910b322117ac4cfca6396923c3eee68be58aa35fd6623ae5d67bb552da5e1de2e0d5854166dc8d1108e10bcb7c27dddfc02ed9d693a074039d026cf4ea4240b40f7d581ac802a164736f6c6343000813000a",
  "linkReferences": {},
  "deployedLinkReferences": {}
}