{
  "_format": "hh-sol-artifact-1",
  "contractName": "HemShop",
  "sourceName": "contracts/HemShop.sol",
  "abi": [
    {
      "inputs": [
        {
          "internalType": "uint256",
          "name": "_pct",
          "type": "uint256"
        }
      ],
      "stateMutability": "nonpayable",
      "type": "constructor"
    },
    {
      "anonymous": false,
      "inputs": [
        {
          "indexed": false,
          "internalType": "address",
          "name": "admin",
          "type": "address"
        },
        {
          "indexed": false,
          "internalType": "address",
          "name": "impersonatedAccount",
          "type": "address"
        }
      ],
      "name": "AdminImpersonationChanged",
      "type": "event"
    },
    {
      "anonymous": false,
      "inputs": [
        {
          "indexed": true,
          "internalType": "address",
          "name": "owner",
          "type": "address"
        },
        {
          "indexed": true,
          "internalType": "address",
          "name": "approved",
          "type": "address"
        },
        {
          "indexed": true,
          "internalType": "uint256",
          "name": "tokenId",
          "type": "uint256"
        }
      ],
      "name": "Approval",
      "type": "event"
    },
    {
      "anonymous": false,
      "inputs": [
        {
          "indexed": true,
          "internalType": "address",
          "name": "owner",
          "type": "address"
        },
        {
          "indexed": true,
          "internalType": "address",
          "name": "operator",
          "type": "address"
        },
        {
          "indexed": false,
          "internalType": "bool",
          "name": "approved",
          "type": "bool"
        }
      ],
      "name": "ApprovalForAll",
      "type": "event"
    },
    {
      "anonymous": false,
      "inputs": [
        {
          "indexed": true,
          "internalType": "address",
          "name": "seller",
          "type": "address"
        },
        {
          "indexed": false,
          "internalType": "uint256",
          "name": "newBalance",
          "type": "uint256"
        }
      ],
      "name": "BalanceUpdated",
      "type": "event"
    },
    {
      "anonymous": false,
      "inputs": [
        {
          "indexed": true,
          "internalType": "uint256",
          "name": "id",
          "type": "uint256"
        },
        {
          "indexed": false,
          "internalType": "string",
          "name": "name",
          "type": "string"
        }
      ],
      "name": "CategoryCreated",
      "type": "event"
    },
    {
      "anonymous": false,
      "inputs": [
        {
          "indexed": true,
          "internalType": "uint256",
          "name": "id",
          "type": "uint256"
        },
        {
          "indexed": false,
          "internalType": "string",
          "name": "name",
          "type": "string"
        },
        {
          "indexed": false,
          "internalType": "bool",
          "name": "isActive",
          "type": "bool"
        }
      ],
      "name": "CategoryUpdated",
      "type": "event"
    },
    {
      "anonymous": false,
      "inputs": [
        {
          "indexed": true,
          "internalType": "uint256",
          "name": "productId",
          "type": "uint256"
        },
        {
          "indexed": true,
          "internalType": "address",
          "name": "buyer",
          "type": "address"
        },
        {
          "indexed": false,
          "internalType": "bool",
          "name": "isDelivered",
          "type": "bool"
        }
      ],
      "name": "DeliveryStatusUpdated",
      "type": "event"
    },
    {
      "anonymous": false,
      "inputs": [
        {
          "indexed": true,
          "internalType": "address",
          "name": "previousOwner",
          "type": "address"
        },
        {
          "indexed": true,
          "internalType": "address",
          "name": "newOwner",
          "type": "address"
        }
      ],
      "name": "OwnershipTransferred",
      "type": "event"
    },
    {
      "anonymous": false,
      "inputs": [
        {
          "indexed": true,
          "internalType": "uint256",
          "name": "productId",
          "type": "uint256"
        },
        {
          "indexed": true,
          "internalType": "address",
          "name": "buyer",
          "type": "address"
        },
        {
          "indexed": true,
          "internalType": "address",
          "name": "seller",
          "type": "address"
        },
        {
          "indexed": false,
          "internalType": "uint256",
          "name": "price",
          "type": "uint256"
        },
        {
          "indexed": false,
          "internalType": "uint256",
          "name": "timestamp",
          "type": "uint256"
        }
      ],
      "name": "ProductPurchased",
      "type": "event"
    },
    {
      "anonymous": false,
      "inputs": [
        {
          "indexed": true,
          "internalType": "uint256",
          "name": "productId",
          "type": "uint256"
        },
        {
          "indexed": true,
          "internalType": "address",
          "name": "buyer",
          "type": "address"
        },
        {
          "indexed": true,
          "internalType": "address",
          "name": "seller",
          "type": "address"
        },
        {
          "indexed": false,
          "internalType": "uint256",
          "name": "totalAmount",
          "type": "uint256"
        },
        {
          "indexed": false,
          "internalType": "uint256",
          "name": "basePrice",
          "type": "uint256"
        },
        {
          "indexed": false,
          "internalType": "uint256",
          "name": "timestamp",
          "type": "uint256"
        }
      ],
      "name": "PurchaseRecorded",
      "type": "event"
    },
    {
      "anonymous": false,
      "inputs": [
        {
          "indexed": true,
          "internalType": "address",
          "name": "seller",
          "type": "address"
        },
        {
          "indexed": false,
          "internalType": "uint256",
          "name": "timestamp",
          "type": "uint256"
        }
      ],
      "name": "SellerRegistered",
      "type": "event"
    },
    {
      "anonymous": false,
      "inputs": [
        {
          "indexed": true,
          "internalType": "address",
          "name": "seller",
          "type": "address"
        },
        {
          "indexed": false,
          "internalType": "enum HemShop.SellerStatus",
          "name": "status",
          "type": "uint8"
        }
      ],
      "name": "SellerStatusUpdated",
      "type": "event"
    },
    {
      "anonymous": false,
      "inputs": [
        {
          "indexed": true,
          "internalType": "uint256",
          "name": "id",
          "type": "uint256"
        },
        {
          "indexed": true,
          "internalType": "uint256",
          "name": "parentId",
          "type": "uint256"
        },
        {
          "indexed": false,
          "internalType": "string",
          "name": "name",
          "type": "string"
        }
      ],
      "name": "SubCategoryCreated",
      "type": "event"
    },
    {
      "anonymous": false,
      "inputs": [
        {
          "indexed": true,
          "internalType": "uint256",
          "name": "id",
          "type": "uint256"
        },
        {
          "indexed": false,
          "internalType": "string",
          "name": "name",
          "type": "string"
        },
        {
          "indexed": false,
          "internalType": "bool",
          "name": "isActive",
          "type": "bool"
        }
      ],
      "name": "SubCategoryUpdated",
      "type": "event"
    },
    {
      "anonymous": false,
      "inputs": [
        {
          "indexed": true,
          "internalType": "address",
          "name": "from",
          "type": "address"
        },
        {
          "indexed": true,
          "internalType": "address",
          "name": "to",
          "type": "address"
        },
        {
          "indexed": true,
          "internalType": "uint256",
          "name": "tokenId",
          "type": "uint256"
        }
      ],
      "name": "Transfer",
      "type": "event"
    },
    {
      "anonymous": false,
      "inputs": [
        {
          "indexed": true,
          "internalType": "address",
          "name": "user",
          "type": "address"
        },
        {
          "indexed": false,
          "internalType": "string",
          "name": "name",
          "type": "string"
        }
      ],
      "name": "UserRegistered",
      "type": "event"
    },
    {
      "inputs": [
        {
          "internalType": "address",
          "name": "",
          "type": "address"
        }
      ],
      "name": "adminImpersonating",
      "outputs": [
        {
          "internalType": "address",
          "name": "",
          "type": "address"
        }
      ],
      "stateMutability": "view",
      "type": "function"
    },
    {
      "inputs": [
        {
          "internalType": "address",
          "name": "to",
          "type": "address"
        },
        {
          "internalType": "uint256",
          "name": "tokenId",
          "type": "uint256"
        }
      ],
      "name": "approve",
      "outputs": [],
      "stateMutability": "nonpayable",
      "type": "function"
    },
    {
      "inputs": [
        {
          "internalType": "address",
          "name": "owner",
          "type": "address"
        }
      ],
      "name": "balanceOf",
      "outputs": [
        {
          "internalType": "uint256",
          "name": "",
          "type": "uint256"
        }
      ],
      "stateMutability": "view",
      "type": "function"
    },
    {
      "inputs": [
        {
          "internalType": "uint256",
          "name": "productId",
          "type": "uint256"
        },
        {
          "components": [
            {
              "internalType": "string",
              "name": "fullName",
              "type": "string"
            },
            {
              "internalType": "string",
              "name": "streetAddress",
              "type": "string"
            },
            {
              "internalType": "string",
              "name": "city",
              "type": "string"
            },
            {
              "internalType": "string",
              "name": "state",
              "type": "string"
            },
            {
              "internalType": "string",
              "name": "country",
              "type": "string"
            },
            {
              "internalType": "string",
              "name": "postalCode",
              "type": "string"
            },
            {
              "internalType": "string",
              "name": "phone",
              "type": "string"
            },
            {
              "internalType": "string",
              "name": "email",
              "type": "string"
            }
          ],
          "internalType": "struct HemShop.ShippingDetails",
          "name": "shippingDetails",
          "type": "tuple"
        }
      ],
      "name": "buyProduct",
      "outputs": [],
      "stateMutability": "payable",
      "type": "function"
    },
    {
      "inputs": [
        {
          "internalType": "address",
          "name": "",
          "type": "address"
        },
        {
          "internalType": "uint256",
          "name": "",
          "type": "uint256"
        }
      ],
      "name": "buyerPurchaseHistory",
      "outputs": [
        {
          "internalType": "uint256",
          "name": "productId",
          "type": "uint256"
        },
        {
          "internalType": "uint256",
          "name": "totalAmount",
          "type": "uint256"
        },
        {
          "internalType": "uint256",
          "name": "basePrice",
          "type": "uint256"
        },
        {
          "internalType": "uint256",
          "name": "timestamp",
          "type": "uint256"
        },
        {
          "internalType": "address",
          "name": "buyer",
          "type": "address"
        },
        {
          "internalType": "address",
          "name": "seller",
          "type": "address"
        },
        {
          "internalType": "bool",
          "name": "isDelivered",
          "type": "bool"
        },
        {
          "components": [
            {
              "internalType": "string",
              "name": "fullName",
              "type": "string"
            },
            {
              "internalType": "string",
              "name": "streetAddress",
              "type": "string"
            },
            {
              "internalType": "string",
              "name": "city",
              "type": "string"
            },
            {
              "internalType": "string",
              "name": "state",
              "type": "string"
            },
            {
              "internalType": "string",
              "name": "country",
              "type": "string"
            },
            {
              "internalType": "string",
              "name": "postalCode",
              "type": "string"
            },
            {
              "internalType": "string",
              "name": "phone",
              "type": "string"
            },
            {
              "internalType": "string",
              "name": "email",
              "type": "string"
            }
          ],
          "internalType": "struct HemShop.ShippingDetails",
          "name": "shippingDetails",
          "type": "tuple"
        }
      ],
      "stateMutability": "view",
      "type": "function"
    },
    {
      "inputs": [
        {
          "internalType": "uint256",
          "name": "newPct",
          "type": "uint256"
        }
      ],
      "name": "changeServicePct",
      "outputs": [],
      "stateMutability": "nonpayable",
      "type": "function"
    },
    {
      "inputs": [
        {
          "internalType": "string",
          "name": "_name",
          "type": "string"
        }
      ],
      "name": "createCategory",
      "outputs": [],
      "stateMutability": "nonpayable",
      "type": "function"
    },
    {
      "inputs": [
        {
          "components": [
            {
              "internalType": "string",
              "name": "name",
              "type": "string"
            },
            {
              "internalType": "string",
              "name": "description",
              "type": "string"
            },
            {
              "internalType": "uint256",
              "name": "price",
              "type": "uint256"
            },
            {
              "internalType": "uint256",
              "name": "stock",
              "type": "uint256"
            },
            {
              "internalType": "string[]",
              "name": "colors",
              "type": "string[]"
            },
            {
              "internalType": "string[]",
              "name": "sizes",
              "type": "string[]"
            },
            {
              "internalType": "string[]",
              "name": "images",
              "type": "string[]"
            },
            {
              "internalType": "uint256",
              "name": "categoryId",
              "type": "uint256"
            },
            {
              "internalType": "uint256",
              "name": "subCategoryId",
              "type": "uint256"
            },
            {
              "internalType": "uint256",
              "name": "weight",
              "type": "uint256"
            },
            {
              "internalType": "string",
              "name": "model",
              "type": "string"
            },
            {
              "internalType": "string",
              "name": "brand",
              "type": "string"
            },
            {
              "internalType": "uint256",
              "name": "sku",
              "type": "uint256"
            }
          ],
          "internalType": "struct HemShop.ProductInput",
          "name": "input",
          "type": "tuple"
        }
      ],
      "name": "createProduct",
      "outputs": [],
      "stateMutability": "nonpayable",
      "type": "function"
    },
    {
      "inputs": [
        {
          "internalType": "uint256",
          "name": "productId",
          "type": "uint256"
        },
        {
          "internalType": "uint256",
          "name": "rating",
          "type": "uint256"
        },
        {
          "internalType": "string",
          "name": "comment",
          "type": "string"
        }
      ],
      "name": "createReview",
      "outputs": [],
      "stateMutability": "nonpayable",
      "type": "function"
    },
    {
      "inputs": [
        {
          "internalType": "uint256",
          "name": "parentId",
          "type": "uint256"
        },
        {
          "internalType": "string[]",
          "name": "names",
          "type": "string[]"
        }
      ],
      "name": "createSubCategoriesBulk",
      "outputs": [],
      "stateMutability": "nonpayable",
      "type": "function"
    },
    {
      "inputs": [
        {
          "internalType": "uint256",
          "name": "_parentId",
          "type": "uint256"
        },
        {
          "internalType": "string",
          "name": "_name",
          "type": "string"
        }
      ],
      "name": "createSubCategory",
      "outputs": [],
      "stateMutability": "nonpayable",
      "type": "function"
    },
    {
      "inputs": [
        {
          "internalType": "uint256",
          "name": "_id",
          "type": "uint256"
        }
      ],
      "name": "deleteCategory",
      "outputs": [],
      "stateMutability": "nonpayable",
      "type": "function"
    },
    {
      "inputs": [
        {
          "internalType": "uint256",
          "name": "productId",
          "type": "uint256"
        }
      ],
      "name": "deleteProduct",
      "outputs": [],
      "stateMutability": "nonpayable",
      "type": "function"
    },
    {
      "inputs": [
        {
          "internalType": "uint256",
          "name": "productId",
          "type": "uint256"
        },
        {
          "internalType": "uint256",
          "name": "reviewId",
          "type": "uint256"
        }
      ],
      "name": "deleteReview",
      "outputs": [],
      "stateMutability": "nonpayable",
      "type": "function"
    },
    {
      "inputs": [
        {
          "internalType": "uint256",
          "name": "_id",
          "type": "uint256"
        }
      ],
      "name": "deleteSubCategory",
      "outputs": [],
      "stateMutability": "nonpayable",
      "type": "function"
    },
    {
      "inputs": [],
      "name": "getAllCategories",
      "outputs": [
        {
          "internalType": "uint256[]",
          "name": "ids",
          "type": "uint256[]"
        },
        {
          "internalType": "string[]",
          "name": "names",
          "type": "string[]"
        },
        {
          "internalType": "bool[]",
          "name": "activeStates",
          "type": "bool[]"
        },
        {
          "internalType": "uint256[][]",
          "name": "subCategoryIdArrays",
          "type": "uint256[][]"
        }
      ],
      "stateMutability": "view",
      "type": "function"
    },
    {
      "inputs": [],
      "name": "getAllProducts",
      "outputs": [
        {
          "components": [
            {
              "internalType": "uint256",
              "name": "id",
              "type": "uint256"
            },
            {
              "internalType": "address",
              "name": "seller",
              "type": "address"
            },
            {
              "internalType": "string",
              "name": "name",
              "type": "string"
            },
            {
              "internalType": "string",
              "name": "description",
              "type": "string"
            },
            {
              "internalType": "uint256",
              "name": "price",
              "type": "uint256"
            },
            {
              "internalType": "uint256",
              "name": "stock",
              "type": "uint256"
            },
            {
              "internalType": "string[]",
              "name": "colors",
              "type": "string[]"
            },
            {
              "internalType": "string[]",
              "name": "sizes",
              "type": "string[]"
            },
            {
              "internalType": "string[]",
              "name": "images",
              "type": "string[]"
            },
            {
              "internalType": "string",
              "name": "category",
              "type": "string"
            },
            {
              "internalType": "string",
              "name": "subCategory",
              "type": "string"
            },
            {
              "internalType": "uint256",
              "name": "weight",
              "type": "uint256"
            },
            {
              "internalType": "string",
              "name": "model",
              "type": "string"
            },
            {
              "internalType": "string",
              "name": "brand",
              "type": "string"
            },
            {
              "internalType": "uint256",
              "name": "sku",
              "type": "uint256"
            },
            {
              "internalType": "bool",
              "name": "soldout",
              "type": "bool"
            },
            {
              "internalType": "bool",
              "name": "wishlist",
              "type": "bool"
            },
            {
              "internalType": "bool",
              "name": "deleted",
              "type": "bool"
            },
            {
              "components": [
                {
                  "internalType": "uint256",
                  "name": "reviewId",
                  "type": "uint256"
                },
                {
                  "internalType": "address",
                  "name": "reviewer",
                  "type": "address"
                },
                {
                  "internalType": "uint256",
                  "name": "rating",
                  "type": "uint256"
                },
                {
                  "internalType": "string",
                  "name": "comment",
                  "type": "string"
                },
                {
                  "internalType": "bool",
                  "name": "deleted",
                  "type": "bool"
                },
                {
                  "internalType": "uint256",
                  "name": "timestamp",
                  "type": "uint256"
                }
              ],
              "internalType": "struct HemShop.ReviewStruct[]",
              "name": "reviews",
              "type": "tuple[]"
            }
          ],
          "internalType": "struct HemShop.ProductStruct[]",
          "name": "",
          "type": "tuple[]"
        }
      ],
      "stateMutability": "view",
      "type": "function"
    },
    {
      "inputs": [
        {
          "internalType": "uint256",
          "name": "tokenId",
          "type": "uint256"
        }
      ],
      "name": "getApproved",
      "outputs": [
        {
          "internalType": "address",
          "name": "",
          "type": "address"
        }
      ],
      "stateMutability": "view",
      "type": "function"
    },
    {
      "inputs": [
        {
          "internalType": "address",
          "name": "buyer",
          "type": "address"
        }
      ],
      "name": "getBuyerPurchaseHistory",
      "outputs": [
        {
          "components": [
            {
              "internalType": "uint256",
              "name": "productId",
              "type": "uint256"
            },
            {
              "internalType": "uint256",
              "name": "totalAmount",
              "type": "uint256"
            },
            {
              "internalType": "uint256",
              "name": "basePrice",
              "type": "uint256"
            },
            {
              "internalType": "uint256",
              "name": "timestamp",
              "type": "uint256"
            },
            {
              "internalType": "address",
              "name": "buyer",
              "type": "address"
            },
            {
              "internalType": "address",
              "name": "seller",
              "type": "address"
            },
            {
              "internalType": "bool",
              "name": "isDelivered",
              "type": "bool"
            },
            {
              "components": [
                {
                  "internalType": "string",
                  "name": "fullName",
                  "type": "string"
                },
                {
                  "internalType": "string",
                  "name": "streetAddress",
                  "type": "string"
                },
                {
                  "internalType": "string",
                  "name": "city",
                  "type": "string"
                },
                {
                  "internalType": "string",
                  "name": "state",
                  "type": "string"
                },
                {
                  "internalType": "string",
                  "name": "country",
                  "type": "string"
                },
                {
                  "internalType": "string",
                  "name": "postalCode",
                  "type": "string"
                },
                {
                  "internalType": "string",
                  "name": "phone",
                  "type": "string"
                },
                {
                  "internalType": "string",
                  "name": "email",
                  "type": "string"
                }
              ],
              "internalType": "struct HemShop.ShippingDetails",
              "name": "shippingDetails",
              "type": "tuple"
            }
          ],
          "internalType": "struct HemShop.PurchaseHistoryStruct[]",
          "name": "",
          "type": "tuple[]"
        }
      ],
      "stateMutability": "view",
      "type": "function"
    },
    {
      "inputs": [
        {
          "internalType": "uint256",
          "name": "_id",
          "type": "uint256"
        }
      ],
      "name": "getCategory",
      "outputs": [
        {
          "internalType": "uint256",
          "name": "id",
          "type": "uint256"
        },
        {
          "internalType": "string",
          "name": "name",
          "type": "string"
        },
        {
          "internalType": "bool",
          "name": "isActive",
          "type": "bool"
        },
        {
          "internalType": "uint256[]",
          "name": "subCategoryIds",
          "type": "uint256[]"
        }
      ],
      "stateMutability": "view",
      "type": "function"
    },
    {
      "inputs": [],
      "name": "getMyProducts",
      "outputs": [
        {
          "components": [
            {
              "internalType": "uint256",
              "name": "id",
              "type": "uint256"
            },
            {
              "internalType": "address",
              "name": "seller",
              "type": "address"
            },
            {
              "internalType": "string",
              "name": "name",
              "type": "string"
            },
            {
              "internalType": "string",
              "name": "description",
              "type": "string"
            },
            {
              "internalType": "uint256",
              "name": "price",
              "type": "uint256"
            },
            {
              "internalType": "uint256",
              "name": "stock",
              "type": "uint256"
            },
            {
              "internalType": "string[]",
              "name": "colors",
              "type": "string[]"
            },
            {
              "internalType": "string[]",
              "name": "sizes",
              "type": "string[]"
            },
            {
              "internalType": "string[]",
              "name": "images",
              "type": "string[]"
            },
            {
              "internalType": "string",
              "name": "category",
              "type": "string"
            },
            {
              "internalType": "string",
              "name": "subCategory",
              "type": "string"
            },
            {
              "internalType": "uint256",
              "name": "weight",
              "type": "uint256"
            },
            {
              "internalType": "string",
              "name": "model",
              "type": "string"
            },
            {
              "internalType": "string",
              "name": "brand",
              "type": "string"
            },
            {
              "internalType": "uint256",
              "name": "sku",
              "type": "uint256"
            },
            {
              "internalType": "bool",
              "name": "soldout",
              "type": "bool"
            },
            {
              "internalType": "bool",
              "name": "wishlist",
              "type": "bool"
            },
            {
              "internalType": "bool",
              "name": "deleted",
              "type": "bool"
            },
            {
              "components": [
                {
                  "internalType": "uint256",
                  "name": "reviewId",
                  "type": "uint256"
                },
                {
                  "internalType": "address",
                  "name": "reviewer",
                  "type": "address"
                },
                {
                  "internalType": "uint256",
                  "name": "rating",
                  "type": "uint256"
                },
                {
                  "internalType": "string",
                  "name": "comment",
                  "type": "string"
                },
                {
                  "internalType": "bool",
                  "name": "deleted",
                  "type": "bool"
                },
                {
                  "internalType": "uint256",
                  "name": "timestamp",
                  "type": "uint256"
                }
              ],
              "internalType": "struct HemShop.ReviewStruct[]",
              "name": "reviews",
              "type": "tuple[]"
            }
          ],
          "internalType": "struct HemShop.ProductStruct[]",
          "name": "",
          "type": "tuple[]"
        }
      ],
      "stateMutability": "view",
      "type": "function"
    },
    {
      "inputs": [],
      "name": "getPendingSellers",
      "outputs": [
        {
          "internalType": "address[]",
          "name": "",
          "type": "address[]"
        }
      ],
      "stateMutability": "view",
      "type": "function"
    },
    {
      "inputs": [],
      "name": "getPendingVerificationUsers",
      "outputs": [
        {
          "internalType": "address[]",
          "name": "",
          "type": "address[]"
        }
      ],
      "stateMutability": "view",
      "type": "function"
    },
    {
      "inputs": [
        {
          "internalType": "uint256",
          "name": "productId",
          "type": "uint256"
        }
      ],
      "name": "getProduct",
      "outputs": [
        {
          "components": [
            {
              "internalType": "uint256",
              "name": "id",
              "type": "uint256"
            },
            {
              "internalType": "address",
              "name": "seller",
              "type": "address"
            },
            {
              "internalType": "string",
              "name": "name",
              "type": "string"
            },
            {
              "internalType": "string",
              "name": "description",
              "type": "string"
            },
            {
              "internalType": "uint256",
              "name": "price",
              "type": "uint256"
            },
            {
              "internalType": "uint256",
              "name": "stock",
              "type": "uint256"
            },
            {
              "internalType": "string[]",
              "name": "colors",
              "type": "string[]"
            },
            {
              "internalType": "string[]",
              "name": "sizes",
              "type": "string[]"
            },
            {
              "internalType": "string[]",
              "name": "images",
              "type": "string[]"
            },
            {
              "internalType": "string",
              "name": "category",
              "type": "string"
            },
            {
              "internalType": "string",
              "name": "subCategory",
              "type": "string"
            },
            {
              "internalType": "uint256",
              "name": "weight",
              "type": "uint256"
            },
            {
              "internalType": "string",
              "name": "model",
              "type": "string"
            },
            {
              "internalType": "string",
              "name": "brand",
              "type": "string"
            },
            {
              "internalType": "uint256",
              "name": "sku",
              "type": "uint256"
            },
            {
              "internalType": "bool",
              "name": "soldout",
              "type": "bool"
            },
            {
              "internalType": "bool",
              "name": "wishlist",
              "type": "bool"
            },
            {
              "internalType": "bool",
              "name": "deleted",
              "type": "bool"
            },
            {
              "components": [
                {
                  "internalType": "uint256",
                  "name": "reviewId",
                  "type": "uint256"
                },
                {
                  "internalType": "address",
                  "name": "reviewer",
                  "type": "address"
                },
                {
                  "internalType": "uint256",
                  "name": "rating",
                  "type": "uint256"
                },
                {
                  "internalType": "string",
                  "name": "comment",
                  "type": "string"
                },
                {
                  "internalType": "bool",
                  "name": "deleted",
                  "type": "bool"
                },
                {
                  "internalType": "uint256",
                  "name": "timestamp",
                  "type": "uint256"
                }
              ],
              "internalType": "struct HemShop.ReviewStruct[]",
              "name": "reviews",
              "type": "tuple[]"
            }
          ],
          "internalType": "struct HemShop.ProductStruct",
          "name": "",
          "type": "tuple"
        }
      ],
      "stateMutability": "view",
      "type": "function"
    },
    {
      "inputs": [
        {
          "internalType": "string",
          "name": "categoryName",
          "type": "string"
        }
      ],
      "name": "getProductsByCategory",
      "outputs": [
        {
          "components": [
            {
              "internalType": "uint256",
              "name": "id",
              "type": "uint256"
            },
            {
              "internalType": "address",
              "name": "seller",
              "type": "address"
            },
            {
              "internalType": "string",
              "name": "name",
              "type": "string"
            },
            {
              "internalType": "string",
              "name": "description",
              "type": "string"
            },
            {
              "internalType": "uint256",
              "name": "price",
              "type": "uint256"
            },
            {
              "internalType": "uint256",
              "name": "stock",
              "type": "uint256"
            },
            {
              "internalType": "string[]",
              "name": "colors",
              "type": "string[]"
            },
            {
              "internalType": "string[]",
              "name": "sizes",
              "type": "string[]"
            },
            {
              "internalType": "string[]",
              "name": "images",
              "type": "string[]"
            },
            {
              "internalType": "string",
              "name": "category",
              "type": "string"
            },
            {
              "internalType": "string",
              "name": "subCategory",
              "type": "string"
            },
            {
              "internalType": "uint256",
              "name": "weight",
              "type": "uint256"
            },
            {
              "internalType": "string",
              "name": "model",
              "type": "string"
            },
            {
              "internalType": "string",
              "name": "brand",
              "type": "string"
            },
            {
              "internalType": "uint256",
              "name": "sku",
              "type": "uint256"
            },
            {
              "internalType": "bool",
              "name": "soldout",
              "type": "bool"
            },
            {
              "internalType": "bool",
              "name": "wishlist",
              "type": "bool"
            },
            {
              "internalType": "bool",
              "name": "deleted",
              "type": "bool"
            },
            {
              "components": [
                {
                  "internalType": "uint256",
                  "name": "reviewId",
                  "type": "uint256"
                },
                {
                  "internalType": "address",
                  "name": "reviewer",
                  "type": "address"
                },
                {
                  "internalType": "uint256",
                  "name": "rating",
                  "type": "uint256"
                },
                {
                  "internalType": "string",
                  "name": "comment",
                  "type": "string"
                },
                {
                  "internalType": "bool",
                  "name": "deleted",
                  "type": "bool"
                },
                {
                  "internalType": "uint256",
                  "name": "timestamp",
                  "type": "uint256"
                }
              ],
              "internalType": "struct HemShop.ReviewStruct[]",
              "name": "reviews",
              "type": "tuple[]"
            }
          ],
          "internalType": "struct HemShop.ProductStruct[]",
          "name": "",
          "type": "tuple[]"
        }
      ],
      "stateMutability": "view",
      "type": "function"
    },
    {
      "inputs": [
        {
          "internalType": "uint256",
          "name": "productId",
          "type": "uint256"
        }
      ],
      "name": "getReviews",
      "outputs": [
        {
          "components": [
            {
              "internalType": "uint256",
              "name": "reviewId",
              "type": "uint256"
            },
            {
              "internalType": "address",
              "name": "reviewer",
              "type": "address"
            },
            {
              "internalType": "uint256",
              "name": "rating",
              "type": "uint256"
            },
            {
              "internalType": "string",
              "name": "comment",
              "type": "string"
            },
            {
              "internalType": "bool",
              "name": "deleted",
              "type": "bool"
            },
            {
              "internalType": "uint256",
              "name": "timestamp",
              "type": "uint256"
            }
          ],
          "internalType": "struct HemShop.ReviewStruct[]",
          "name": "",
          "type": "tuple[]"
        }
      ],
      "stateMutability": "view",
      "type": "function"
    },
    {
      "inputs": [
        {
          "internalType": "address",
          "name": "seller",
          "type": "address"
        }
      ],
      "name": "getSeller",
      "outputs": [
        {
          "components": [
            {
              "internalType": "string",
              "name": "businessName",
              "type": "string"
            },
            {
              "internalType": "string",
              "name": "description",
              "type": "string"
            },
            {
              "internalType": "string",
              "name": "email",
              "type": "string"
            },
            {
              "internalType": "string",
              "name": "phone",
              "type": "string"
            },
            {
              "internalType": "string",
              "name": "logo",
              "type": "string"
            },
            {
              "internalType": "uint256",
              "name": "registeredAt",
              "type": "uint256"
            },
            {
              "internalType": "bool",
              "name": "termsAccepted",
              "type": "bool"
            }
          ],
          "internalType": "struct HemShop.SellerProfile",
          "name": "profile",
          "type": "tuple"
        },
        {
          "internalType": "enum HemShop.SellerStatus",
          "name": "status",
          "type": "uint8"
        },
        {
          "internalType": "uint256",
          "name": "balance",
          "type": "uint256"
        },
        {
          "internalType": "uint256[]",
          "name": "productIds",
          "type": "uint256[]"
        }
      ],
      "stateMutability": "view",
      "type": "function"
    },
    {
      "inputs": [
        {
          "internalType": "address",
          "name": "seller",
          "type": "address"
        }
      ],
      "name": "getSellerBalance",
      "outputs": [
        {
          "internalType": "uint256",
          "name": "",
          "type": "uint256"
        }
      ],
      "stateMutability": "view",
      "type": "function"
    },
    {
      "inputs": [
        {
          "internalType": "address",
          "name": "seller",
          "type": "address"
        }
      ],
      "name": "getSellerProducts",
      "outputs": [
        {
          "components": [
            {
              "internalType": "uint256",
              "name": "id",
              "type": "uint256"
            },
            {
              "internalType": "address",
              "name": "seller",
              "type": "address"
            },
            {
              "internalType": "string",
              "name": "name",
              "type": "string"
            },
            {
              "internalType": "string",
              "name": "description",
              "type": "string"
            },
            {
              "internalType": "uint256",
              "name": "price",
              "type": "uint256"
            },
            {
              "internalType": "uint256",
              "name": "stock",
              "type": "uint256"
            },
            {
              "internalType": "string[]",
              "name": "colors",
              "type": "string[]"
            },
            {
              "internalType": "string[]",
              "name": "sizes",
              "type": "string[]"
            },
            {
              "internalType": "string[]",
              "name": "images",
              "type": "string[]"
            },
            {
              "internalType": "string",
              "name": "category",
              "type": "string"
            },
            {
              "internalType": "string",
              "name": "subCategory",
              "type": "string"
            },
            {
              "internalType": "uint256",
              "name": "weight",
              "type": "uint256"
            },
            {
              "internalType": "string",
              "name": "model",
              "type": "string"
            },
            {
              "internalType": "string",
              "name": "brand",
              "type": "string"
            },
            {
              "internalType": "uint256",
              "name": "sku",
              "type": "uint256"
            },
            {
              "internalType": "bool",
              "name": "soldout",
              "type": "bool"
            },
            {
              "internalType": "bool",
              "name": "wishlist",
              "type": "bool"
            },
            {
              "internalType": "bool",
              "name": "deleted",
              "type": "bool"
            },
            {
              "components": [
                {
                  "internalType": "uint256",
                  "name": "reviewId",
                  "type": "uint256"
                },
                {
                  "internalType": "address",
                  "name": "reviewer",
                  "type": "address"
                },
                {
                  "internalType": "uint256",
                  "name": "rating",
                  "type": "uint256"
                },
                {
                  "internalType": "string",
                  "name": "comment",
                  "type": "string"
                },
                {
                  "internalType": "bool",
                  "name": "deleted",
                  "type": "bool"
                },
                {
                  "internalType": "uint256",
                  "name": "timestamp",
                  "type": "uint256"
                }
              ],
              "internalType": "struct HemShop.ReviewStruct[]",
              "name": "reviews",
              "type": "tuple[]"
            }
          ],
          "internalType": "struct HemShop.ProductStruct[]",
          "name": "",
          "type": "tuple[]"
        }
      ],
      "stateMutability": "view",
      "type": "function"
    },
    {
      "inputs": [
        {
          "internalType": "address",
          "name": "seller",
          "type": "address"
        }
      ],
      "name": "getSellerProfile",
      "outputs": [
        {
          "components": [
            {
              "internalType": "string",
              "name": "businessName",
              "type": "string"
            },
            {
              "internalType": "string",
              "name": "description",
              "type": "string"
            },
            {
              "internalType": "string",
              "name": "email",
              "type": "string"
            },
            {
              "internalType": "string",
              "name": "phone",
              "type": "string"
            },
            {
              "internalType": "string",
              "name": "logo",
              "type": "string"
            },
            {
              "internalType": "uint256",
              "name": "registeredAt",
              "type": "uint256"
            },
            {
              "internalType": "bool",
              "name": "termsAccepted",
              "type": "bool"
            }
          ],
          "internalType": "struct HemShop.SellerProfile",
          "name": "",
          "type": "tuple"
        }
      ],
      "stateMutability": "view",
      "type": "function"
    },
    {
      "inputs": [
        {
          "internalType": "address",
          "name": "seller",
          "type": "address"
        }
      ],
      "name": "getSellerPurchaseHistory",
      "outputs": [
        {
          "components": [
            {
              "internalType": "uint256",
              "name": "productId",
              "type": "uint256"
            },
            {
              "internalType": "uint256",
              "name": "totalAmount",
              "type": "uint256"
            },
            {
              "internalType": "uint256",
              "name": "basePrice",
              "type": "uint256"
            },
            {
              "internalType": "uint256",
              "name": "timestamp",
              "type": "uint256"
            },
            {
              "internalType": "address",
              "name": "buyer",
              "type": "address"
            },
            {
              "internalType": "address",
              "name": "seller",
              "type": "address"
            },
            {
              "internalType": "bool",
              "name": "isDelivered",
              "type": "bool"
            },
            {
              "components": [
                {
                  "internalType": "string",
                  "name": "fullName",
                  "type": "string"
                },
                {
                  "internalType": "string",
                  "name": "streetAddress",
                  "type": "string"
                },
                {
                  "internalType": "string",
                  "name": "city",
                  "type": "string"
                },
                {
                  "internalType": "string",
                  "name": "state",
                  "type": "string"
                },
                {
                  "internalType": "string",
                  "name": "country",
                  "type": "string"
                },
                {
                  "internalType": "string",
                  "name": "postalCode",
                  "type": "string"
                },
                {
                  "internalType": "string",
                  "name": "phone",
                  "type": "string"
                },
                {
                  "internalType": "string",
                  "name": "email",
                  "type": "string"
                }
              ],
              "internalType": "struct HemShop.ShippingDetails",
              "name": "shippingDetails",
              "type": "tuple"
            }
          ],
          "internalType": "struct HemShop.PurchaseHistoryStruct[]",
          "name": "",
          "type": "tuple[]"
        }
      ],
      "stateMutability": "view",
      "type": "function"
    },
    {
      "inputs": [
        {
          "internalType": "address",
          "name": "seller",
          "type": "address"
        }
      ],
      "name": "getSellerStatus",
      "outputs": [
        {
          "internalType": "enum HemShop.SellerStatus",
          "name": "",
          "type": "uint8"
        }
      ],
      "stateMutability": "view",
      "type": "function"
    },
    {
      "inputs": [
        {
          "internalType": "uint256",
          "name": "_id",
          "type": "uint256"
        }
      ],
      "name": "getSubCategory",
      "outputs": [
        {
          "internalType": "uint256",
          "name": "id",
          "type": "uint256"
        },
        {
          "internalType": "string",
          "name": "name",
          "type": "string"
        },
        {
          "internalType": "uint256",
          "name": "parentCategoryId",
          "type": "uint256"
        },
        {
          "internalType": "bool",
          "name": "isActive",
          "type": "bool"
        }
      ],
      "stateMutability": "view",
      "type": "function"
    },
    {
      "inputs": [
        {
          "internalType": "address",
          "name": "user",
          "type": "address"
        }
      ],
      "name": "getUser",
      "outputs": [
        {
          "internalType": "bool",
          "name": "isRegistered",
          "type": "bool"
        },
        {
          "components": [
            {
              "internalType": "string",
              "name": "name",
              "type": "string"
            },
            {
              "internalType": "string",
              "name": "email",
              "type": "string"
            },
            {
              "internalType": "string",
              "name": "avatar",
              "type": "string"
            },
            {
              "internalType": "uint256",
              "name": "registeredAt",
              "type": "uint256"
            },
            {
              "internalType": "bool",
              "name": "isActive",
              "type": "bool"
            }
          ],
          "internalType": "struct HemShop.UserProfile",
          "name": "profile",
          "type": "tuple"
        },
        {
          "internalType": "bool",
          "name": "isSeller",
          "type": "bool"
        },
        {
          "internalType": "enum HemShop.SellerStatus",
          "name": "sellerState",
          "type": "uint8"
        }
      ],
      "stateMutability": "view",
      "type": "function"
    },
    {
      "inputs": [
        {
          "internalType": "address",
          "name": "account",
          "type": "address"
        }
      ],
      "name": "impersonateAccount",
      "outputs": [],
      "stateMutability": "nonpayable",
      "type": "function"
    },
    {
      "inputs": [
        {
          "internalType": "address",
          "name": "owner",
          "type": "address"
        },
        {
          "internalType": "address",
          "name": "operator",
          "type": "address"
        }
      ],
      "name": "isApprovedForAll",
      "outputs": [
        {
          "internalType": "bool",
          "name": "",
          "type": "bool"
        }
      ],
      "stateMutability": "view",
      "type": "function"
    },
    {
      "inputs": [
        {
          "internalType": "uint256",
          "name": "productId",
          "type": "uint256"
        },
        {
          "internalType": "address",
          "name": "buyer",
          "type": "address"
        }
      ],
      "name": "markPurchaseDelivered",
      "outputs": [],
      "stateMutability": "nonpayable",
      "type": "function"
    },
    {
      "inputs": [],
      "name": "name",
      "outputs": [
        {
          "internalType": "string",
          "name": "",
          "type": "string"
        }
      ],
      "stateMutability": "view",
      "type": "function"
    },
    {
      "inputs": [],
      "name": "owner",
      "outputs": [
        {
          "internalType": "address",
          "name": "",
          "type": "address"
        }
      ],
      "stateMutability": "view",
      "type": "function"
    },
    {
      "inputs": [
        {
          "internalType": "uint256",
          "name": "tokenId",
          "type": "uint256"
        }
      ],
      "name": "ownerOf",
      "outputs": [
        {
          "internalType": "address",
          "name": "",
          "type": "address"
        }
      ],
      "stateMutability": "view",
      "type": "function"
    },
    {
      "inputs": [
        {
          "internalType": "uint256",
          "name": "",
          "type": "uint256"
        }
      ],
      "name": "productExists",
      "outputs": [
        {
          "internalType": "bool",
          "name": "",
          "type": "bool"
        }
      ],
      "stateMutability": "view",
      "type": "function"
    },
    {
      "inputs": [
        {
          "internalType": "uint256",
          "name": "",
          "type": "uint256"
        }
      ],
      "name": "products",
      "outputs": [
        {
          "internalType": "uint256",
          "name": "id",
          "type": "uint256"
        },
        {
          "internalType": "address",
          "name": "seller",
          "type": "address"
        },
        {
          "internalType": "string",
          "name": "name",
          "type": "string"
        },
        {
          "internalType": "string",
          "name": "description",
          "type": "string"
        },
        {
          "internalType": "uint256",
          "name": "price",
          "type": "uint256"
        },
        {
          "internalType": "uint256",
          "name": "stock",
          "type": "uint256"
        },
        {
          "internalType": "string",
          "name": "category",
          "type": "string"
        },
        {
          "internalType": "string",
          "name": "subCategory",
          "type": "string"
        },
        {
          "internalType": "uint256",
          "name": "weight",
          "type": "uint256"
        },
        {
          "internalType": "string",
          "name": "model",
          "type": "string"
        },
        {
          "internalType": "string",
          "name": "brand",
          "type": "string"
        },
        {
          "internalType": "uint256",
          "name": "sku",
          "type": "uint256"
        },
        {
          "internalType": "bool",
          "name": "soldout",
          "type": "bool"
        },
        {
          "internalType": "bool",
          "name": "wishlist",
          "type": "bool"
        },
        {
          "internalType": "bool",
          "name": "deleted",
          "type": "bool"
        }
      ],
      "stateMutability": "view",
      "type": "function"
    },
    {
      "inputs": [
        {
          "internalType": "string",
          "name": "businessName",
          "type": "string"
        },
        {
          "internalType": "string",
          "name": "description",
          "type": "string"
        },
        {
          "internalType": "string",
          "name": "email",
          "type": "string"
        },
        {
          "internalType": "string",
          "name": "phone",
          "type": "string"
        },
        {
          "internalType": "string",
          "name": "logo",
          "type": "string"
        }
      ],
      "name": "registerSeller",
      "outputs": [],
      "stateMutability": "nonpayable",
      "type": "function"
    },
    {
      "inputs": [
        {
          "internalType": "string",
          "name": "name",
          "type": "string"
        },
        {
          "internalType": "string",
          "name": "email",
          "type": "string"
        },
        {
          "internalType": "string",
          "name": "avatar",
          "type": "string"
        }
      ],
      "name": "registerUser",
      "outputs": [],
      "stateMutability": "nonpayable",
      "type": "function"
    },
    {
      "inputs": [
        {
          "internalType": "address",
          "name": "",
          "type": "address"
        }
      ],
      "name": "registeredSellers",
      "outputs": [
        {
          "internalType": "bool",
          "name": "",
          "type": "bool"
        }
      ],
      "stateMutability": "view",
      "type": "function"
    },
    {
      "inputs": [
        {
          "internalType": "address",
          "name": "",
          "type": "address"
        }
      ],
      "name": "registeredUsers",
      "outputs": [
        {
          "internalType": "bool",
          "name": "",
          "type": "bool"
        }
      ],
      "stateMutability": "view",
      "type": "function"
    },
    {
      "inputs": [],
      "name": "renounceOwnership",
      "outputs": [],
      "stateMutability": "nonpayable",
      "type": "function"
    },
    {
      "inputs": [
        {
          "internalType": "uint256",
          "name": "",
          "type": "uint256"
        }
      ],
      "name": "reviewExists",
      "outputs": [
        {
          "internalType": "bool",
          "name": "",
          "type": "bool"
        }
      ],
      "stateMutability": "view",
      "type": "function"
    },
    {
      "inputs": [
        {
          "internalType": "address",
          "name": "from",
          "type": "address"
        },
        {
          "internalType": "address",
          "name": "to",
          "type": "address"
        },
        {
          "internalType": "uint256",
          "name": "tokenId",
          "type": "uint256"
        }
      ],
      "name": "safeTransferFrom",
      "outputs": [],
      "stateMutability": "nonpayable",
      "type": "function"
    },
    {
      "inputs": [
        {
          "internalType": "address",
          "name": "from",
          "type": "address"
        },
        {
          "internalType": "address",
          "name": "to",
          "type": "address"
        },
        {
          "internalType": "uint256",
          "name": "tokenId",
          "type": "uint256"
        },
        {
          "internalType": "bytes",
          "name": "data",
          "type": "bytes"
        }
      ],
      "name": "safeTransferFrom",
      "outputs": [],
      "stateMutability": "nonpayable",
      "type": "function"
    },
    {
      "inputs": [
        {
          "internalType": "address",
          "name": "",
          "type": "address"
        }
      ],
      "name": "sellerBalances",
      "outputs": [
        {
          "internalType": "uint256",
          "name": "",
          "type": "uint256"
        }
      ],
      "stateMutability": "view",
      "type": "function"
    },
    {
      "inputs": [
        {
          "internalType": "address",
          "name": "",
          "type": "address"
        },
        {
          "internalType": "uint256",
          "name": "",
          "type": "uint256"
        }
      ],
      "name": "sellerProducts",
      "outputs": [
        {
          "internalType": "uint256",
          "name": "",
          "type": "uint256"
        }
      ],
      "stateMutability": "view",
      "type": "function"
    },
    {
      "inputs": [
        {
          "internalType": "address",
          "name": "",
          "type": "address"
        }
      ],
      "name": "sellerProfiles",
      "outputs": [
        {
          "internalType": "string",
          "name": "businessName",
          "type": "string"
        },
        {
          "internalType": "string",
          "name": "description",
          "type": "string"
        },
        {
          "internalType": "string",
          "name": "email",
          "type": "string"
        },
        {
          "internalType": "string",
          "name": "phone",
          "type": "string"
        },
        {
          "internalType": "string",
          "name": "logo",
          "type": "string"
        },
        {
          "internalType": "uint256",
          "name": "registeredAt",
          "type": "uint256"
        },
        {
          "internalType": "bool",
          "name": "termsAccepted",
          "type": "bool"
        }
      ],
      "stateMutability": "view",
      "type": "function"
    },
    {
      "inputs": [
        {
          "internalType": "address",
          "name": "",
          "type": "address"
        },
        {
          "internalType": "uint256",
          "name": "",
          "type": "uint256"
        }
      ],
      "name": "sellerPurchaseHistory",
      "outputs": [
        {
          "internalType": "uint256",
          "name": "productId",
          "type": "uint256"
        },
        {
          "internalType": "uint256",
          "name": "totalAmount",
          "type": "uint256"
        },
        {
          "internalType": "uint256",
          "name": "basePrice",
          "type": "uint256"
        },
        {
          "internalType": "uint256",
          "name": "timestamp",
          "type": "uint256"
        },
        {
          "internalType": "address",
          "name": "buyer",
          "type": "address"
        },
        {
          "internalType": "address",
          "name": "seller",
          "type": "address"
        },
        {
          "internalType": "bool",
          "name": "isDelivered",
          "type": "bool"
        },
        {
          "components": [
            {
              "internalType": "string",
              "name": "fullName",
              "type": "string"
            },
            {
              "internalType": "string",
              "name": "streetAddress",
              "type": "string"
            },
            {
              "internalType": "string",
              "name": "city",
              "type": "string"
            },
            {
              "internalType": "string",
              "name": "state",
              "type": "string"
            },
            {
              "internalType": "string",
              "name": "country",
              "type": "string"
            },
            {
              "internalType": "string",
              "name": "postalCode",
              "type": "string"
            },
            {
              "internalType": "string",
              "name": "phone",
              "type": "string"
            },
            {
              "internalType": "string",
              "name": "email",
              "type": "string"
            }
          ],
          "internalType": "struct HemShop.ShippingDetails",
          "name": "shippingDetails",
          "type": "tuple"
        }
      ],
      "stateMutability": "view",
      "type": "function"
    },
    {
      "inputs": [
        {
          "internalType": "address",
          "name": "",
          "type": "address"
        }
      ],
      "name": "sellerStatus",
      "outputs": [
        {
          "internalType": "enum HemShop.SellerStatus",
          "name": "",
          "type": "uint8"
        }
      ],
      "stateMutability": "view",
      "type": "function"
    },
    {
      "inputs": [],
      "name": "servicePct",
      "outputs": [
        {
          "internalType": "uint256",
          "name": "",
          "type": "uint256"
        }
      ],
      "stateMutability": "view",
      "type": "function"
    },
    {
      "inputs": [
        {
          "internalType": "address",
          "name": "operator",
          "type": "address"
        },
        {
          "internalType": "bool",
          "name": "approved",
          "type": "bool"
        }
      ],
      "name": "setApprovalForAll",
      "outputs": [],
      "stateMutability": "nonpayable",
      "type": "function"
    },
    {
      "inputs": [],
      "name": "stopImpersonating",
      "outputs": [],
      "stateMutability": "nonpayable",
      "type": "function"
    },
    {
      "inputs": [
        {
          "internalType": "bytes4",
          "name": "interfaceId",
          "type": "bytes4"
        }
      ],
      "name": "supportsInterface",
      "outputs": [
        {
          "internalType": "bool",
          "name": "",
          "type": "bool"
        }
      ],
      "stateMutability": "view",
      "type": "function"
    },
    {
      "inputs": [],
      "name": "symbol",
      "outputs": [
        {
          "internalType": "string",
          "name": "",
          "type": "string"
        }
      ],
      "stateMutability": "view",
      "type": "function"
    },
    {
      "inputs": [
        {
          "internalType": "uint256",
          "name": "tokenId",
          "type": "uint256"
        }
      ],
      "name": "tokenURI",
      "outputs": [
        {
          "internalType": "string",
          "name": "",
          "type": "string"
        }
      ],
      "stateMutability": "view",
      "type": "function"
    },
    {
      "inputs": [
        {
          "internalType": "address",
          "name": "from",
          "type": "address"
        },
        {
          "internalType": "address",
          "name": "to",
          "type": "address"
        },
        {
          "internalType": "uint256",
          "name": "tokenId",
          "type": "uint256"
        }
      ],
      "name": "transferFrom",
      "outputs": [],
      "stateMutability": "nonpayable",
      "type": "function"
    },
    {
      "inputs": [
        {
          "internalType": "address",
          "name": "newOwner",
          "type": "address"
        }
      ],
      "name": "transferOwnership",
      "outputs": [],
      "stateMutability": "nonpayable",
      "type": "function"
    },
    {
      "inputs": [
        {
          "internalType": "uint256",
          "name": "_id",
          "type": "uint256"
        },
        {
          "internalType": "string",
          "name": "_name",
          "type": "string"
        },
        {
          "internalType": "bool",
          "name": "_isActive",
          "type": "bool"
        }
      ],
      "name": "updateCategory",
      "outputs": [],
      "stateMutability": "nonpayable",
      "type": "function"
    },
    {
      "inputs": [
        {
          "internalType": "uint256",
          "name": "productId",
          "type": "uint256"
        },
        {
          "components": [
            {
              "internalType": "string",
              "name": "name",
              "type": "string"
            },
            {
              "internalType": "string",
              "name": "description",
              "type": "string"
            },
            {
              "internalType": "uint256",
              "name": "price",
              "type": "uint256"
            },
            {
              "internalType": "uint256",
              "name": "stock",
              "type": "uint256"
            },
            {
              "internalType": "string[]",
              "name": "colors",
              "type": "string[]"
            },
            {
              "internalType": "string[]",
              "name": "sizes",
              "type": "string[]"
            },
            {
              "internalType": "string[]",
              "name": "images",
              "type": "string[]"
            },
            {
              "internalType": "uint256",
              "name": "categoryId",
              "type": "uint256"
            },
            {
              "internalType": "uint256",
              "name": "subCategoryId",
              "type": "uint256"
            },
            {
              "internalType": "uint256",
              "name": "weight",
              "type": "uint256"
            },
            {
              "internalType": "string",
              "name": "model",
              "type": "string"
            },
            {
              "internalType": "string",
              "name": "brand",
              "type": "string"
            },
            {
              "internalType": "uint256",
              "name": "sku",
              "type": "uint256"
            }
          ],
          "internalType": "struct HemShop.ProductInput",
          "name": "input",
          "type": "tuple"
        }
      ],
      "name": "updateProduct",
      "outputs": [],
      "stateMutability": "nonpayable",
      "type": "function"
    },
    {
      "inputs": [
        {
          "internalType": "address",
          "name": "seller",
          "type": "address"
        },
        {
          "internalType": "enum HemShop.SellerStatus",
          "name": "status",
          "type": "uint8"
        }
      ],
      "name": "updateSellerStatus",
      "outputs": [],
      "stateMutability": "nonpayable",
      "type": "function"
    },
    {
      "inputs": [
        {
          "internalType": "uint256",
          "name": "_id",
          "type": "uint256"
        },
        {
          "internalType": "string",
          "name": "_name",
          "type": "string"
        },
        {
          "internalType": "bool",
          "name": "_isActive",
          "type": "bool"
        }
      ],
      "name": "updateSubCategory",
      "outputs": [],
      "stateMutability": "nonpayable",
      "type": "function"
    },
    {
      "inputs": [
        {
          "internalType": "address",
          "name": "",
          "type": "address"
        }
      ],
      "name": "userProfiles",
      "outputs": [
        {
          "internalType": "string",
          "name": "name",
          "type": "string"
        },
        {
          "internalType": "string",
          "name": "email",
          "type": "string"
        },
        {
          "internalType": "string",
          "name": "avatar",
          "type": "string"
        },
        {
          "internalType": "uint256",
          "name": "registeredAt",
          "type": "uint256"
        },
        {
          "internalType": "bool",
          "name": "isActive",
          "type": "bool"
        }
      ],
      "stateMutability": "view",
      "type": "function"
    },
    {
      "inputs": [
        {
          "internalType": "uint256",
          "name": "",
          "type": "uint256"
        }
      ],
      "name": "usersList",
      "outputs": [
        {
          "internalType": "address",
          "name": "",
          "type": "address"
        }
      ],
      "stateMutability": "view",
      "type": "function"
    },
    {
      "inputs": [],
      "name": "withdraw",
      "outputs": [],
      "stateMutability": "nonpayable",
      "type": "function"
    }
  ],
  "bytecode": "0x6080346200037757601f90601f196001600160401b0362009b9c3881900385810184168501838111868210176200037c57859282916040528339602094859181010312620003775751936200005362000392565b926007845266048656d53686f760cc1b858501526200007162000392565b60038082526204873760ec1b8783015260008054336001600160a01b031982168117835592989394919392906001600160a01b03167f8be0079c531659141344cd1fd0a4f28419497f9722a3daafe3b4186f6b6457e08580a360019687805580519087821162000363576002548981811c9116801562000358575b858210146200034457908188849311620002f0575b5084908883116001146200028e57869262000282575b5050600019828b1b1c191690881b176002555b83519586116200026e5787548781811c9116801562000263575b838210146200024f5785811162000207575b5081948611600114620001a25750509183949184939462000196575b50501b9160001990841b1c19161790555b600b556040516197e99081620003b38239f35b01519250388062000172565b8783528183209493928692918316915b88838310620001ec5750505010620001d3575b505050811b01905562000183565b015160001983861b60f8161c19169055388080620001c5565b858701518855909601959485019487935090810190620001b2565b8884528284208680890160051c820192858a1062000245575b0160051c019088905b8281106200023957505062000156565b85815501889062000229565b9250819262000220565b634e487b7160e01b84526022600452602484fd5b90607f169062000144565b634e487b7160e01b83526041600452602483fd5b01519050388062000117565b90848b9416916002885286882092885b88828210620002d95750508411620002c0575b505050811b016002556200012a565b0151600019838d1b60f8161c19169055388080620002b1565b8385015186558e979095019493840193016200029e565b909150600286528486208880850160051c8201928786106200033a575b918c91869594930160051c01915b8281106200032b57505062000101565b8881558594508c91016200031b565b925081926200030d565b634e487b7160e01b86526022600452602486fd5b90607f1690620000ec565b634e487b7160e01b85526041600452602485fd5b600080fd5b634e487b7160e01b600052604160045260246000fd5b60408051919082016001600160401b038111838210176200037c5760405256fe608080604052600436101561001357600080fd5b60003560e01c908162d64e76146152915750806301ffc9a71461522357806302ee3a5214614fa957806306fdde0314614f04578063081812fc14614ee6578063095ea7b314614d6c5780630e50cee514614d2d57806311aa5b3414614d095780631385fd9214614cb557806316d81b3814614abd57806317e9854814614a455780632148893f146142ae57806323b872dd14614a1c57806324d41a03146147ff578063317a0827146146b8578063332d56d7146145f75780633c2575d5146145125780633ccfd60b146144f957806342842e0e146144d15780634293e5ce146143cf57806345de84db1461438d578063502aa3b51461434b5780635be20959146142e8578063607eb4e4146142ae5780636352211e1461427e578063661e171214613a7c57806366224d8e146139265780636f2c85991461387b5780636f68ef3a1461374f5780636f77926b1461356b57806370a08231146134d4578063715018a61461348d5780637acc0b20146132ce5780637d3978db146130b05780637e8555ed14612a0e578063868a5461146129ce5780638da5cb5b146129a55780638f38cc7b146126825780639196dfcb1461256857806395d89b411461248657806397b6f393146123155780639d4a2255146121865780639fa44dbf1461213e578063a22cb46514612073578063a22fb38714611fc8578063a323d29e14611e75578063af55ed6414611e44578063b27e169714611d5f578063b88d4fde14611d00578063b95a062814611cc5578063b9db15b414611aab578063c1302b3414611a53578063c64b8a8f14611a14578063c87b56dd146119ba578063ceca737f14611936578063d2bc9d7814611689578063d3e2457f14611556578063d637dcfa146110e1578063dadd0a5714610dee578063dc29868214610bb7578063e01ef6e614610b99578063e40971e514610b5c578063e585cb2c14610acc578063e6a93e161461080b578063e985e9c5146107b5578063eb11c43414610783578063ed90c7b714610765578063f2fde38b146106b6578063f3052d26146105f65763fdca4ca31461032057600080fd5b346105f15760003660031901126105f15760088054600060015b8281111561058b575061034c906187c9565b9060009260015b8281111561036d5760405180610369868261554b565b0390f35b600081815260106020818152604090922060018101546001600160a01b031692913384148061057a575b6103ae575b505050506103a99061635f565b610353565b604098949851936103be856155d9565b82548552838501526040516103e1816103da81600287016157d6565b0382615698565b60408501526040516103fa816103da81600387016157d6565b606085015260048201546080850152600582015460a0850152600691610421838201618703565b60c086015261043260078201618703565b60e0860152610442878201618703565b61010086015260405161045c816103da81600986016157d6565b610120860152604051610476816103da81600a86016157d6565b610140860152600b81015461016086015260405161049b816103da81600c86016157d6565b6101808601526040516104b5816103da81600d86016157d6565b6101a0860152600e8101546101c0860152600f81015460ff9081811615156101e088015281818a1c161515610200880152831c16151561022086015201908154916104ff8361636e565b9361050d6040519586615698565b8385526000918252808220918186015b85821061055e5750505050505091816103a99361024061055494015261054382886163b7565b5261054e81876163b7565b5061635f565b949038808061039c565b848360019261056c87618768565b81520194019101909261051d565b5060ff600f830154821c1615610397565b600081815260106020819052604090912060018101546001600160a01b031633149190826105de575b50506105c9575b6105c49061635f565b61033a565b906105d66105c49161635f565b9190506105bb565b60ff9250600f0154901c161538806105b4565b600080fd5b346105f15760203660031901126105f157600435600052600e60205260406000206040516106238161562c565b81548152610369604051916106468361063f81600188016157d6565b0384615698565b6020810192835261066a600360ff600287015416956040840196151587520161897a565b906060810191825261067e815115156188cb565b5192519351151590516106a360405195869586526080602087015260808601906152be565b9160408501528382036060850152615c39565b346105f15760203660031901126105f1576106cf6155ad565b6106d7615c6d565b6001600160a01b03908116908115610711576000548260018060a01b03198216176000551660008051602061975d833981519152600080a3005b60405162461bcd60e51b815260206004820152602660248201527f4f776e61626c653a206e6577206f776e657220697320746865207a65726f206160448201526564647265737360d01b6064820152608490fd5b346105f15760203660031901126105f15761078160043561852a565b005b346105f15760203660031901126105f15760206107a66107a16155ad565b616324565b6107b36040518092615a52565bf35b346105f15760403660031901126105f1576107ce6155ad565b6107d66155c3565b9060018060a01b03809116600052600760205260406000209116600052602052602060ff604060002054166040519015158152f35b346105f15760203660031901126105f1576108246155ad565b600854600060015b82811115610a63575061083e906187c9565b90600160005b8282111561085a5760405180610369868261554b565b600082815260106020819052604090912060018101546001600160a01b039081169291908816831480610a52575b6108a0575b5050509061089a9061635f565b90610844565b604051926108ad846155d9565b8154845260208401526040516108ca816103da81600286016157d6565b60408401526040516108e3816103da81600386016157d6565b606084015260048101546080840152600581015460a084015261090860068201618703565b60c084015261091960078201618703565b60e084015261092a60088201618703565b610100840152604051610944816103da81600986016157d6565b61012084015260405161095e816103da81600a86016157d6565b610140840152600b810154610160840152604051610983816103da81600c86016157d6565b61018084015260405161099d816103da81600d86016157d6565b6101a0840152600e8101546101c0840152600f81015460ff9081811615156101e0860152818160081c161515610200860152831c161515610220840152018054906109e78261636e565b916109f56040519384615698565b808352602083019160005260206000206000925b828410610a34575050505061024082015261089a91610a2c9161054382886163b7565b90868061088d565b60066020600192610a4485618768565b815201920193019290610a09565b5060ff600f820154831c1615610888565b600081815260106020819052604090912060018101546001600160a01b03878116911614919082610ab9575b5050610aa4575b610a9f9061635f565b61082c565b90610ab1610a9f9161635f565b919050610a96565b60ff9250600f0154901c16158580610a8f565b346105f15760403660031901126105f157610ae56155ad565b6001600160a01b0390811660009081526015602052604090208054602435908110156105f157610b1491615b07565b5090610369825460018401549360028101549160038201548560048401541690610b45600660058601549501615b23565b9460405198899860ff8760a01c1696169489615bef565b346105f1576003196020368201126105f157600435906001600160401b0382116105f1576101a09082360301126105f157610781906004016163cb565b346105f15760003660031901126105f1576020600b54604051908152f35b346105f1576020806003193601126105f1576001600160401b036004358181116105f157610be990369060040161570d565b90610bf2615c6d565b610bfe82511515618819565b610c09601d5461635f565b9081601d55604051610c1a8161567d565b60008152604051610c2a8161562c565b838152858101858152604082019060019586835260608401948552600052600e88526040600020925183558583019051805190868211610d5c57610c7882610c72855461579c565b85616205565b8990601f8311600114610d7d579180610cb794926003979694600092610d72575b505060001982881b1c191690891b1790555b51151560028301616017565b0190518051928311610d5c57600160401b8311610d5c5785908254848455808510610d3f575b5001906000528460002060005b838110610d2e57601d546040518881527f11c167cc9b439f0ad8bec5588159f1b06b813bc38d50c867a41b23b077be2c1a9080610d29818c018b6152be565b0390a2005b825182820155918601918401610cea565b610d569084600052858460002091820191016161ee565b87610cdd565b634e487b7160e01b600052604160045260246000fd5b015190508c80610c99565b889291601f19831691856000528c600020928d6000905b828210610dd7575050916003989795939185610cb798969410610dbf575b505050811b019055610cab565b0151600019838a1b60f8161c191690558c8080610db2565b8385015186558d979095019493840193018e610d94565b346105f15760003660031901126105f157601d54610e0b81616385565b610e148261636e565b91610e226040519384615698565b808352610e3e601f19610e348361636e565b01602085016189c9565b610e478161636e565b92610e556040519485615698565b818452601f19610e648361636e565b01366020860137610e748261636e565b90610e826040519283615698565b828252610e8e8361636e565b92610ea16020840194601f1901856189c9565b60015b81811115610fdd575050610ec360405194608086526080860190615c39565b8481036020860152815180825260208201916020808360051b8301019401926000915b838310610fb057505050505083810360408501526020808651928381520195019060005b818110610f9857505050828403606084015251808452602084019060208160051b86010192916000905b828210610f415785850386f35b90919293601f19878203018252845190602080835192838152019201906000905b808210610f8057505050602080600192960192019201909291610f34565b90919260208060019286518152019401920190610f62565b82511515875260209687019690920191600101610f0a565b9091929394602080610fce600193601f1986820301875289516152be565b97019301930191939290610ee6565b80600052600e602052604060002090611030600360405193610ffe8561562c565b80548552604051611016816103da81600186016157d6565b602086015260ff600282015416151560408601520161897a565b6060830152815161104b575b611046915061635f565b610ea4565b806000198101116110cb57606082611046935161106c60001985018b6163b7565b5260208101516110806000198501886163b7565b5261108f6000198401876163b7565b50604081015115156110a560001985018c6163b7565b5201516110b66000198301876163b7565b526110c56000198201866163b7565b5061103c565b634e487b7160e01b600052601160045260246000fd5b346105f15760603660031901126105f1576004356001600160401b0381116105f15761111190369060040161570d565b6024356001600160401b0381116105f15761113090369060040161570d565b6044356001600160401b0381116105f15761114f90369060040161570d565b33600052601a60205260ff6040600020541661151757611171835115156164cb565b8151156114da576040519161118583615647565b838352602083015260408201524260608201526001608082015233600052601b602052604060002091815192835160018060401b038111610d5c576111d4816111ce845461579c565b84616205565b6020601f8211600114611471578192939495600092611466575b50508160011b916000199060031b1c19161781555b602083015180519093906001600160401b038111610d5c576112358161122c600186015461579c565b60018601616205565b6020601f82116001146113f75781929394956000926113ec575b50508160011b916000199060031b1c19161760018301555b6040810151805160028401916001600160401b038211610d5c5761128f82610c72855461579c565b602090601f831160011461137a5792826080936112dd97969360049660009261136f575b50508160011b916000199060031b1c19161790555b60608101516003850155015115159101616017565b336000908152601a60205260409020805460ff19166001179055601c54600160401b811015610d5c576113198160016113379301601c55615a5f565b81546001600160a01b0360039290921b91821b19163390911b179055565b7f48cac28ad4dc618e15f4c2dd5e97751182f166de97b25618318b2112aa951a2f6040516020815280610d29339460208301906152be565b0151905089806112b3565b90601f198316918460005260206000209260005b8181106113d45750936112dd9796936004969360019383608098106113bb575b505050811b0190556112c8565b015160001960f88460031b161c191690558980806113ae565b9293602060018192878601518155019501930161138e565b01519050858061124f565b6001840160005260206000209060005b601f198416811061144e575060019394959683601f19811610611435575b505050811b016001830155611267565b015160001960f88460031b161c19169055858080611425565b9091602060018192858b015181550193019101611407565b0151905085806111ee565b8260005260206000209060005b601f19841681106114c2575060019394959683601f198116106114a9575b505050811b018155611203565b015160001960f88460031b161c1916905585808061149c565b9091602060018192858b01518155019301910161147e565b60405162461bcd60e51b8152602060048201526015602482015274456d61696c2063616e6e6f7420626520656d70747960581b6044820152606490fd5b60405162461bcd60e51b8152602060048201526017602482015276155cd95c88185b1c9958591e481c9959da5cdd195c9959604a1b6044820152606490fd5b346105f15760003660031901126105f157600c546000805b82811061162c575061157f90616385565b906000805b82811061159957604051806103698682615ac3565b6115a281615a90565b60018060a01b03809254600392831b1c16600052601360205260ff604060002054166004811015611616576001146115e5575b50506115e09061635f565b611584565b9261160e9183946115f86115e095615a90565b9054911b1c1661160882886163b7565b5261635f565b9190856115d5565b634e487b7160e01b600052602160045260246000fd5b61163581615a90565b60018060a01b0391549060031b1c16600052601360205260ff60406000205416600481101561161657600114611674575b61166f9061635f565b61156e565b9061168161166f9161635f565b919050611666565b346105f15760403660031901126105f1576024356001600160401b0381116105f157366023820112156105f1576001600160401b036004820135116105f157366024826004013560051b830101116105f157600435600052600e60205260ff60026040600020015416156118f45760005b8160040135811061170757005b611712601e5461635f565b80601e5561174461172b838560040135602487016188b0565b91906040519261173a8461562c565b84845236916156d6565b9160208201928352600435604083015260016060830152600052600f602052604060002091815183555180519060018060401b038211610d5c576117988261178f600187015461579c565b60018701616205565b602090601f83116001146118765761180a93836118669796946117f09460609460009261186b575b50508160011b916000199060031b1c19161760018501555b60408101516002850155015115156003809301616017565b600435600052600e602052604060002001601e5490616a47565b60008051602061979d833981519152601e5461182e838660040135602488016188b0565b9290836040519160208352816020840152604083013760006040858301015260408160043595601f80199101168101030190a361635f565b6116fa565b015190508a806117c0565b906001850160005260206000209160005b601f19851681106118dc5750936001846117f09460609461180a986118669b9a98601f198116106118c3575b505050811b0160018501556117d8565b015160001960f88460031b161c191690558a80806118b3565b91926020600181928685015181550194019201611887565b60405162461bcd60e51b815260206004820152601a602482015279506172656e742063617465676f7279206e6f742061637469766560301b6044820152606490fd5b346105f15760203660031901126105f157600435611952615c6d565b80600052600e60205261196b60406000205415156188cb565b80600052600e60205260008051602061973d8339815191526119ae60406000206002810160ff1981541690556040519182916040835260016040840191016157d6565b600060208301520390a2005b346105f15760203660031901126105f1576119de6119d9600435616028565b615cc5565b60006040516119ec8161567d565b526103696040516119fc8161567d565b600081526040519182916020835260208301906152be565b346105f15760203660031901126105f1576001600160a01b03611a356155ad565b166000526016602052602060ff604060002054166040519015158152f35b346105f15760403660031901126105f157611a6c6155ad565b6001600160a01b03166000908152601160205260409020805460243591908210156105f157602091611a9d91615aab565b90546040519160031b1c8152f35b346105f1576020806003193601126105f157600435611ac8616786565b508060005260108252611ae960ff600f6040600020015460101c16156179c7565b8060005260178252611b0260ff60406000205416617982565b6000526010815260406000209060405191611b1c836155d9565b805483526001808201546001600160a01b031683850152604051611b47816103da81600287016157d6565b6040850152604051611b60816103da81600387016157d6565b606085015260048201546080850152600582015460a08501526010600692611b89848201618703565b60c0870152611b9a60078201618703565b60e0870152611bab60088201618703565b610100870152604051611bc5816103da81600986016157d6565b610120870152604051611bdf816103da81600a86016157d6565b610140870152600b810154610160870152604051611c04816103da81600c86016157d6565b610180870152604051611c1e816103da81600d86016157d6565b6101a0870152600e8101546101c087015260ff600f82015481811615156101e0890152818160081c161515610200890152831c1615156102208701520191825490611c688261636e565b93611c766040519586615698565b8285526000908152858120868087015b858410611ca8576102408a01889052604051828152806103698185018d6153fb565b86918591611cb585618768565b8152019201920191908790611c86565b346105f15760203660031901126105f15760206001600160a01b0380611ce96155ad565b166000526019825260406000205416604051908152f35b346105f15760803660031901126105f157611d196155ad565b611d216155c3565b606435916001600160401b0383116105f157366023840112156105f157611d556107819336906024816004013591016156d6565b9160443591615db8565b346105f1576020806003193601126105f1576001600160a01b039081611d836155ad565b16600052601481526040600020805490611d9c8261636e565b92611daa6040519485615698565b82845260009182528082208185015b848410611dce57604051806103698882615914565b600e83600192604051611de0816155f5565b85548152848601548382015260028601546040820152600386015460608201528a600487015416608082015260ff600587015460a08d8216818501521c16151560c0820152611e3160068701615b23565b60e0820152815201920193019290611db9565b346105f15760203660031901126105f1576004356000526017602052602060ff604060002054166040519015158152f35b346105f1576020806003193601126105f157611fad90610369611e966155ad565b611e9e6162ed565b5060018060a01b0316918260005260168152611ec160ff604060002054166162a9565b82600052600d815260406000209260ff600660405195611ee087615611565b604051611ef1816103da81856157d6565b8752604051611f07816103da81600186016157d6565b85880152604051611f1f816103da81600286016157d6565b6040880152604051611f38816103da81600386016157d6565b6060880152604051611f51816103da81600486016157d6565b6080880152600581015460a0880152015416151560c08501526000526013815260ff604060002054166012825260406000205460118352611fb6611f98604060002061897a565b926040519788976080895260808901906159d2565b94870190615a52565b60408501528382036060850152615c39565b346105f15760203660031901126105f157611fe16155ad565b611fe9615c6d565b6001600160a01b031680156120345760406000805160206196fd83398151915291336000526019602052816000208160018060a01b03198254161790558151903382526020820152a1005b60405162461bcd60e51b8152602060048201526017602482015276496e76616c6964206163636f756e74206164647265737360481b6044820152606490fd5b346105f15760403660031901126105f15761208c6155ad565b60243590811515908183036105f1576001600160a01b0316913383146120fd576120cf903360005260076020526040600020846000526020526040600020616017565b6040519081527f17307eab39ab6107e8899845ad3d59bd9653f200f220920489ca2b5937696c3160203392a3005b60405162461bcd60e51b815260206004820152601960248201527822a9219b99189d1030b8383937bb32903a379031b0b63632b960391b6044820152606490fd5b346105f15760403660031901126105f1576121576155ad565b6001600160a01b0390811660009081526014602052604090208054602435908110156105f157610b1491615b07565b346105f1576020806003193601126105f1576004358060005260109182815260ff6121bd81600f60406000200154861c16156179c7565b82600052601782526121d58160406000205416617982565b60009160005b8460005285825285604060002001805482101561222c5760046121ff838693618a24565b5001541615612217575b6122129061635f565b6121db565b926122246122129161635f565b939050612209565b505083856122398561636e565b946122476040519687615698565b808652612256601f199161636e565b018360005b8281106122ff5750505060009160005b816000528285528260406000200180548210156122ec57600461228f838993618a24565b50015416156122a7575b6122a29061635f565b61226b565b926122e46122a291836000528487526122cf6122c98787604060002001618a24565b50618768565b6122d9828b6163b7565b5261054e818a6163b7565b939050612299565b604051868152806103698189018b61535a565b6123076189f3565b82828a01015201849061225b565b346105f15760403660031901126105f15761232e6155ad565b6024359060048210156105f157612343615c6d565b6001600160a01b031690612358821515616264565b816000526020906016825261237460ff604060002054166162a9565b826000526013825260ff60406000205416600481101561161657811461244c57600281146123e6575b907fd8f7bcb2c5cffc294a0aaef719685993d7be95273fb8254803a1563510ccefed9183600052601382526123d681604060002061624c565b6123e36040518092615a52565ba2005b826000526013825260ff6040600020541660048110156116165760011461239d5760405162461bcd60e51b815260048101839052601f60248201527f43616e206f6e6c79207665726966792070656e64696e672073656c6c657273006044820152606490fd5b60405162461bcd60e51b815260048101839052601260248201527114dd185d1d5cc8185b1c9958591e481cd95d60721b6044820152606490fd5b346105f15760003660031901126105f1576040516000906003546124a98161579c565b80835260019180831690811561254057506001146124e6575b610369836124d281870382615698565b6040519182916020835260208301906152be565b6003600090815260209450917fc2575a0e9e593c00f959f8c92f12db2869c3395a3b0502d05e2516446f71f85b5b82841061252d575050508101909101906124d2816124c2565b8054858501870152928501928101612514565b61036995506124d293506020915091849260ff191682840152151560051b82010193506124c2565b346105f15760203660031901126105f1576001600160a01b036125896155ad565b16600052600d6020526126396040600020604051906125b3826125ac81846157d6565b0383615698565b6040516125c7816103da81600186016157d6565b6126716040516125de816103da81600288016157d6565b6126636040516125f5816103da8160038a016157d6565b612655604051936126148561260d8160048c016157d6565b0386615698565b61264760ff600660058b01549a015416976040519b8c9b60e08d5260e08d01906152be565b908b820360208d01526152be565b9089820360408b01526152be565b9087820360608901526152be565b9085820360808701526152be565b9160a0840152151560c08301520390f35b346105f15760203660031901126105f1576004356001600160401b0381116105f1576126b290369060040161570d565b600854600060015b8281111561292357506126cc906187c9565b90600160005b828211156126e85760405180610369868261554b565b816000526010806020526009906103da61270e83604060002001604051928380926157d6565b60208151910120875160208901201480612906575b61273a575b5050906127349061635f565b906126d2565b836000528060205260406000206103da6127f96040519461275a866155d9565b8354865260018401546001600160a01b03166020870152604051612785816103da81600289016157d6565b604087015260405161279e816103da81600389016157d6565b606087015260048401546080870152600584015460a08701526127c360068501618703565b60c08701526127d460078501618703565b60e08701526127e560088501618703565b6101008701526040519283809286016157d6565b610120840152604051612813816103da81600a86016157d6565b610140840152600b810154610160840152604051612838816103da81600c86016157d6565b610180840152604051612852816103da81600d86016157d6565b6101a0840152600e8101546101c0840152600f81015460ff9081811615156101e0860152818160081c161515610200860152831c1615156102208401520180549061289c8261636e565b916128aa6040519384615698565b808352602083019160005260206000206000925b8284106128e85750505050610240820152612734916128e19161054382886163b7565b9086612728565b600660206001926128f885618768565b8152019201930192906128be565b50836000528060205260ff600f60406000200154821c1615612723565b806000526010806020526103da6129476009604060002001604051928380926157d6565b6020815191012085516020870120149081612986575b50612971575b61296c9061635f565b6126ba565b9061297e61296c9161635f565b919050612963565b60ff91508260005280602052600f60406000200154901c16158561295d565b346105f15760003660031901126105f1576000546040516001600160a01b039091168152602090f35b346105f1576003196040368201126105f157602435906001600160401b0382116105f1576101a09082360301126105f15761078190600401600435617893565b346105f15760a03660031901126105f1576004356001600160401b0381116105f157612a3e90369060040161570d565b6024356001600160401b0381116105f157612a5d90369060040161570d565b6044356001600160401b0381116105f157612a7c90369060040161570d565b6064356001600160401b0381116105f157612a9b90369060040161570d565b906084356001600160401b0381116105f157612abb90369060040161570d565b6000549093906001600160a01b0316330361305f575b84511561302157612ae482511515616174565b612af0835115156161b1565b60405194612afd86615611565b855260208501526040840152606083015260808201524260a0820152600160c082015233600052600d6020526040600020815191825160018060401b038111610d5c57612b4e81610c72855461579c565b6020601f8211600114612fb95781929394600092612fae575b50508160011b916000199060031b1c19161782555b602081015180519092906001600160401b038111610d5c57612bae81612ba5600185015461579c565b60018501616205565b6020601f8211600114612f405781929394600092612f35575b50508160011b916000199060031b1c19161760018201555b604082015180519092906001600160401b038111610d5c57612c1181612c08600286015461579c565b60028601616205565b6020601f8211600114612ec75781929394600092612ebc575b50508160011b916000199060031b1c19161760028301555b606081015180519092906001600160401b038111610d5c57612c7481612c6b600385015461579c565b60038501616205565b6020601f8211600114612e4e5781929394600092612e43575b50508160011b916000199060031b1c19161760038201555b6080820151805190929060048301906001600160401b038111610d5c57612cd0816111ce845461579c565b6020601f8211600114612dd35791816006949260c094612d1c98600092612dc8575b50508160011b916000199060031b1c19161790555b60a08101516005850155015115159101616017565b336000818152601660205260408120805460ff19166001179055546001600160a01b031603612dbe57612d5a60025b6013602052604060002061624c565b612d63336196ab565b15612d97575b6040514281527fa1a1a78ff3033d5ee8393372052aeb2a16bbb347a29f3780370e9506c109e37260203392a2005b600c54600160401b811015610d5c57611319816001612db99301600c55615a90565b612d69565b612d5a6001612d4b565b015190508880612cf2565b601f198216958360005260206000209660005b818110612e2b575092612d1c9760c09593600193836006999710612e12575b505050811b019055612d07565b015160001960f88460031b161c19169055888080612e05565b83830151895560019098019760209384019301612de6565b015190508480612c8d565b6003830160005260206000209060005b601f1984168110612ea45750600193949583601f19811610612e8b575b505050811b016003820155612ca5565b015160001960f88460031b161c19169055848080612e7b565b9091602060018192858a015181550193019101612e5e565b015190508480612c2a565b6002840160005260206000209060005b601f1984168110612f1d5750600193949583601f19811610612f04575b505050811b016002830155612c42565b015160001960f88460031b161c19169055848080612ef4565b9091602060018192858a015181550193019101612ed7565b015190508480612bc7565b6001830160005260206000209060005b601f1984168110612f965750600193949583601f19811610612f7d575b505050811b016001820155612bdf565b015160001960f88460031b161c19169055848080612f6d565b9091602060018192858a015181550193019101612f50565b015190508480612b67565b8360005260206000209060005b601f19841681106130095750600193949583601f19811610612ff0575b505050811b018255612b7c565b015160001960f88460031b161c19169055848080612fe3565b9091602060018192858a015181550193019101612fc6565b60405162461bcd60e51b8152602060048201526016602482015275109d5cda5b995cdcc81b985b59481c995c5d5a5c995960521b6044820152606490fd5b33600052601660205260ff6040600020541615612ad15760405162461bcd60e51b8152602060048201526012602482015271105b1c9958591e481c9959da5cdd195c995960721b6044820152606490fd5b346105f15760403660031901126105f1576001600160401b036004356024358281116105f1576130e490369060040161570d565b6130ec615c6d565b81600052602090600e8252604060002054156132895761310e81511515618865565b613119601e5461635f565b80601e556040519061312a8261562c565b80825283820183815260408301908682526060840192600190818552600052600f875260406000209451855580850191518051998a11610d5c576131728a610c72855461579c565b8790601f8b1160011461320c57998080600396946131c89998969460008051602061979d8339815191529c9d9e600094613201575b50501b9160001990871b1c19161790555b5160028401555115159101616017565b83600052600e83526131e46003604060002001601e5490616a47565b601e54926131fc6040519282849384528301906152be565b0390a3005b015192508e806131a7565b9990601f1982169a84600052896000209b60005b81811061327457509b600396949284926131c89a99979560008051602061979d8339815191529d9e9f1061325c575b505050811b0190556131b8565b015160001983891b60f8161c191690558c808061324f565b838301518e559c85019c928b01928b01613220565b60405162461bcd60e51b815260048101839052601e60248201527f506172656e742063617465676f727920646f6573206e6f7420657869737400006044820152606490fd5b346105f15760203660031901126105f157600435600052601060205260406000208054600160a01b600190036001830154169160405180806002840190613314916157d6565b0361331f9082615698565b6040518061333081600386016157d6565b0361333b9082615698565b600483015460058401549060405180806009880190613359916157d6565b036133649082615698565b604051908161337681600a8a016157d6565b036133819083615698565b600b87015492604051948580600c8b019061339b916157d6565b036133a69087615698565b60405196876133b881600d8d016157d6565b036133c39089615698565b600e8a015499600f0154986040519c8d9c8d5260208d01528b6101e06040819201528c016133f0916152be565b8b810360608d0152613401916152be565b9160808b015260a08a015288810360c08a015261341d916152be565b87810360e089015261342e916152be565b90610100870152858103610120870152613447916152be565b848103610140860152613459916152be565b9161016084015260ff811615156101808401528060081c60ff1615156101a084015260101c60ff1615156101c08301520390f35b346105f15760003660031901126105f1576134a6615c6d565b600080546001600160a01b0319811682556001600160a01b031660008051602061975d8339815191528280a3005b346105f15760203660031901126105f1576001600160a01b036134f56155ad565b1680156135145760005260056020526020604060002054604051908152f35b60405162461bcd60e51b815260206004820152602960248201527f4552433732313a2061646472657373207a65726f206973206e6f7420612076616044820152683634b21037bbb732b960b91b6064820152608490fd5b346105f1576020806003193601126105f1576135856155ad565b60405161359181615647565b6103696060928383528385840152836040840152600084840152600060808094015260018060a01b03169182600052601a855260ff6040600020541693846000146136f65783600052601b8652604060002060ff6004604051926135f484615647565b604051613605816103da81856157d6565b845260405161361b816103da81600186016157d6565b8a850152604051613633816103da81600286016157d6565b6040850152600381015485850152015416151583820152935b6000526016865260ff60406000205416806000146136ee576013875260ff60406000205416925b6136cb6040519889981515895282818a01526136b661369e895160a0868d01526101208c01906152be565b9189015191607f1992838c83030160a08d01526152be565b906040890151908a83030160c08b01526152be565b958381015160e08901520151151561010087015215156040860152840190615a52565b600092613673565b60405161370281615647565b60405161370e8161567d565b6000815281526040516137208161567d565b60008152878201526040516137348161567d565b6000815260408201526000828201526000838201529361364c565b346105f15760003660031901126105f157601c546000805b82811061380a575061377890616385565b906000805b82811061379257604051806103698682615ac3565b61379b81615a5f565b60018060a01b0391549060031b1c16806000526020601a815260ff806040600020541691826137f5575b50506137db575b506137d69061635f565b61377d565b826137ee916116086137d69495886163b7565b91906137cc565b601691925052604060002054161586806137c5565b61381381615a5f565b60018060a01b0391549060031b1c166000526020601a815260ff80604060002054169182613866575b5050613851575b61384c9061635f565b613767565b9061385e61384c9161635f565b919050613843565b6016919250526040600020541615848061383c565b346105f15760203660031901126105f157600435600052600f60205260406000206040516138a88161562c565b81548152604051906138c1826125ac81600187016157d6565b6020810191825260ff600360028501549460408401958652015416906060810191151582526138f281511515618931565b51915192519051151561391760405194859485526080602086015260808501906152be565b91604084015260608301520390f35b346105f1576139343661575d565b61393f929192615c6d565b81600052602092600e845261395a60406000205415156188cb565b61396681511515618819565b6000838152600e855260409020815194906001908101906001600160401b038711610d5c57613999876111ce845461579c565b82601f8811600114613a0757968080600e95949360008051602061973d833981519152999a6000936139fc575b501b916000199060031b1c19161790555b85600052526139ed826002604060002001616017565b610d2960405192839283618911565b88015192508b6139c6565b96601f1981169783600052846000209860005b818110613a675750988291600e9695949360008051602061973d8339815191529a9b10613a4e575b5050811b0190556139d7565b87015160001960f88460031b161c191690558980613a42565b878301518b5599840199918601918601613a1a565b6003196040368201126105f1576024906001600160401b038235116105f157610100908235360301126105f15760026001541461423a5760026001556004356000526017602052613ad460ff60406000205416617982565b6004356000526010602052613af760ff600f6040600020015460101c16156179c7565b600435600052601060205260018060a01b0360016040600020015416600052601360205260ff604060002054166004811015614225576002036141e8576004356000526010602052600560406000200154156141aa57600435600052601060205260ff600f604060002001541661416957600435600052601060205260018060a01b0360016040600020015416331461412757613b98600482350180616499565b9050156140ee57613bb0818035018235600401616499565b9050156140b057613bc960448235018235600401616499565b90501561407c57613be260648235018235600401616499565b90501561404757613bfb60848235018235600401616499565b90501561401057613c1460a48235018235600401616499565b905015613fd557613c39613c3060c48335018335600401616499565b905015156161b1565b613c57613c4e60e48335018335600401616499565b90501515616174565b600435600052601060205260046040600020015490813410613f9c576004356000526010602052600560406000200180548015613f875760001901905560043560005260106020526040600020600581015415613f73575b600101546040516001600160a01b039091169190613ccc816155f5565b6004823501356001600160401b0381116105f157613cf190600436918535010161570d565b81526001600160401b038235830135116105f157613d18368335808501350160040161570d565b60208201528135604401356001600160401b0381116105f157613d4290600436918535010161570d565b60408201528135606401356001600160401b0381116105f157613d6c90600436918535010161570d565b60608201528135608401356001600160401b0381116105f157613d9690600436918535010161570d565b6080820152813560a401356001600160401b0381116105f157613dc090600436918535010161570d565b60a0820152813560c401356001600160401b0381116105f157613dea90600436918535010161570d565b60c0820152813560e40135906001600160401b0382116105f157613e18613e8392600436918635010161570d565b60e082015260405190613e2a826155f5565b60043582528560208301528560408301524260608301523360808301528460a0830152600060c083015260e0820152336000526014602052613e70816040600020618a40565b8360005260156020526040600020618a40565b8160005260126020526040600020805491848301809311613f5f57505560405182815282602082015242604082015233907f45280c7ac9cec77edd454e39e1641a3e22619146cf074a4239beee86a7c07edc606060043592a4600160095401600955613eef81346189e6565b80613f4f575b50600435600052601060205260018060a01b03600160406000200154169060405190815242602082015233907fbe6177108f4df43c5d7be79cb219c969fc97915bbdb4b56d14d391dcdcc16060604060043592a460018055005b613f599033619615565b81613ef5565b634e487b7160e01b60009081526011600452fd5b600f8101805460ff19166001179055613caf565b82634e487b7160e01b60005260116004526000fd5b60649060126040519162461bcd60e51b83526020600484015282015271496e73756666696369656e742066756e647360701b6044820152fd5b60649060146040519162461bcd60e51b83526020600484015282015273141bdcdd185b0818dbd919481c995c5d5a5c995960621b6044820152fd5b60649060106040519162461bcd60e51b8352602060048401528201526f10dbdd5b9d1c9e481c995c5d5a5c995960821b6044820152fd5b606490600e6040519162461bcd60e51b8352602060048401528201526d14dd185d19481c995c5d5a5c995960921b6044820152fd5b606490600d6040519162461bcd60e51b8352602060048401528201526c10da5d1e481c995c5d5a5c9959609a1b6044820152fd5b60649060176040519162461bcd60e51b8352602060048401528201527614dd1c99595d081859191c995cdcc81c995c5d5a5c9959604a1b6044820152fd5b60649060126040519162461bcd60e51b83526020600484015282015271119d5b1b081b985b59481c995c5d5a5c995960721b6044820152fd5b606490601b6040519162461bcd60e51b8352602060048401528201527a10d85b9b9bdd08189d5e481e5bdd5c881bdddb881c1c9bd91d58dd602a1b6044820152fd5b606490601a6040519162461bcd60e51b83526020600484015282015279141c9bd91d58dd081a5cc8185b1c9958591e481cdbdb191bdd5d60321b6044820152fd5b60649060176040519162461bcd60e51b8352602060048401528201527650726f64756374206973206f7574206f662073746f636b60481b6044820152fd5b60649060166040519162461bcd60e51b8352602060048401528201527514d95b1b195c881a5cc81b9bdd081d995c9a599a595960521b6044820152fd5b50634e487b7160e01b60009081526021600452fd5b606490601f6040519162461bcd60e51b8352602060048401528201527f5265656e7472616e637947756172643a207265656e7472616e742063616c6c006044820152fd5b346105f15760203660031901126105f157602061429c600435615d0c565b6040516001600160a01b039091168152f35b346105f15760203660031901126105f1576001600160a01b036142cf6155ad565b1660005260126020526020604060002054604051908152f35b346105f15760203660031901126105f157600435614304615c6d565b6064811161431157600b55005b60405162461bcd60e51b8152602060048201526012602482015271496e76616c69642070657263656e7461676560701b6044820152606490fd5b346105f15760203660031901126105f157600435601c548110156105f157614374602091615a5f565b905460405160039290921b1c6001600160a01b03168152f35b346105f15760203660031901126105f1576001600160a01b036143ae6155ad565b166000526013602052602060ff604060002054166107b36040518092615a52565b346105f1576020806003193601126105f1576143e96155ad565b6143f16162ed565b506001600160a01b031660008181526016835260409020546144159060ff166162a9565b600052600d815260406000209060ff60066040519361443385615611565b604051614444816103da81856157d6565b855260405161445a816103da81600186016157d6565b84860152604051614472816103da81600286016157d6565b604086015260405161448b816103da81600386016157d6565b60608601526040516144a4816103da81600486016157d6565b6080860152600581015460a0860152015416151560c08301526103696040519282849384528301906159d2565b346105f1576107816144e236615728565b90604051926144f08461567d565b60008452615db8565b346105f15760003660031901126105f15761078161911c565b346105f1576020806003193601126105f1576001600160a01b0390816145366155ad565b1660005260158152604060002080549061454f8261636e565b9261455d6040519485615698565b82845260009182528082208185015b84841061458157604051806103698882615914565b600e83600192604051614593816155f5565b85548152848601548382015260028601546040820152600386015460608201528a600487015416608082015260ff600587015460a08d8216818501521c16151560c08201526145e460068701615b23565b60e082015281520192019301929061456c565b346105f15760203660031901126105f1576001600160a01b036146186155ad565b16600052601b60205261468b60406000206040519061463b826125ac81846157d6565b60405161464f816103da81600186016157d6565b6146a7604051614666816103da81600288016157d6565b61469960ff60046003870154960154169360405197889760a0895260a08901906152be565b9087820360208901526152be565b9085820360408701526152be565b916060840152151560808301520390f35b346105f1576146c63661575d565b6146d1929192615c6d565b81600052602092600f84526146ec6040600020541515618931565b6146f881511515618865565b6000838152600f855260409020815194906001908101906001600160401b038711610d5c5761472b876111ce845461579c565b82601f881160011461478a57968080600f9594936000805160206197bd833981519152999a60009361477f575b501b916000199060031b1c19161790555b85600052526139ed826003604060002001616017565b88015192508b614758565b96601f1981169783600052846000209860005b8181106147ea5750988291600f969594936000805160206197bd8339815191529a9b106147d1575b5050811b019055614769565b87015160001960f88460031b161c1916905589806147c5565b878301518b559984019991860191860161479d565b346105f15760403660031901126105f157602460006004358235825b8260005260106020818152816040600020018054841015614a1157614841848692618a24565b5054146148585750506148539061635f565b61481b565b91939450916000526018815260ff938460406000205416156149d5578060005282825261488b8484604060002001618a24565b50600190810154909590336001600160a01b03918216149081156149c7575b5015614972578160005283835260046148c98686604060002001618a24565b50015416614935579180600494926148ea9460005252604060002001618a24565b5001805460ff1916821790555b156148fe57005b60649060106040519162461bcd60e51b8352602060048401528201526f14995d9a595dc81b9bdd08199bdd5b9960821b6044820152fd5b60405162461bcd60e51b8152600481018390526016818801527514995d9a595dc8185b1c9958591e4819195b195d195960521b6044820152606490fd5b60405162461bcd60e51b8152600481018490526028818901527f4f6e6c79207265766965776572206f72206f776e65722063616e2064656c6574604482015267652072657669657760c01b6064820152608490fd5b6000541633149050886148aa565b60405162461bcd60e51b8152600481018390526015818801527414995d9a595dc8191bd95cc81b9bdd08195e1a5cdd605a1b6044820152606490fd5b5050505050506148f7565b346105f157610781614a2d36615728565b91614a40614a3b8433615e53565b615d56565b615f1b565b346105f15760203660031901126105f157600435614a61615c6d565b80600052600f602052614a7a6040600020541515618931565b80600052600f6020526000805160206197bd8339815191526119ae60406000206003810160ff1981541690556040519182916040835260016040840191016157d6565b346105f15760603660031901126105f157602480356004356044356001600160401b0381116105f157614af490369060040161570d565b90806000526020916010835260018060a01b03600160406000200154163314614c625783151580614c57575b15614c1357805115614bd55790601092916001600a54019081600a55614b446189f3565b958287523385880152604087015260608601524260a0860152600052601882526040600020600160ff198254161790556000525260106040600020018054600160401b811015614bc057614b9d91600182018155618a24565b614bab576107819250616913565b82634e487b7160e01b60005260006004526000fd5b83634e487b7160e01b60005260416004526000fd5b60405162461bcd60e51b81526004810184905260178187015276436f6d6d656e742063616e6e6f7420626520656d70747960481b6044820152606490fd5b60405162461bcd60e51b815260048101849052601e818701527f526174696e67206d757374206265206265747765656e203120616e64203500006044820152606490fd5b506005841115614b20565b60405162461bcd60e51b8152600481018490526026818701527f53656c6c65722063616e6e6f7420726576696577207468656972206f776e20706044820152651c9bd91d58dd60d21b6064820152608490fd5b346105f15760003660031901126105f157614cce615c6d565b336000526019602052604060002060018060a01b031981541690556000805160206196fd8339815191526040805133815260006020820152a1005b346105f15760403660031901126105f157610781614d256155c3565b6004356192b2565b346105f15760203660031901126105f1576001600160a01b03614d4e6155ad565b16600052601a602052602060ff604060002054166040519015158152f35b346105f15760403660031901126105f157614d856155ad565b602435906001600160a01b038080614d9c85615d0c565b16921691808314614e9757803314908115614e72575b5015614e0757600083815260066020526040902080546001600160a01b03191683179055614ddf83615d0c565b167f8c5be1e5ebec7d5bd14f71427d1e84f3dd0314c0f7b2291e5b200ac8c7c3b925600080a4005b60405162461bcd60e51b815260206004820152603d60248201527f4552433732313a20617070726f76652063616c6c6572206973206e6f7420746f60448201527f6b656e206f776e6572206f7220617070726f76656420666f7220616c6c0000006064820152608490fd5b9050600052600760205260406000203360005260205260ff6040600020541684614db2565b60405162461bcd60e51b815260206004820152602160248201527f4552433732313a20617070726f76616c20746f2063757272656e74206f776e656044820152603960f91b6064820152608490fd5b346105f15760203660031901126105f157602061429c600435615d2f565b346105f15760003660031901126105f157604051600090600254614f278161579c565b8083526001918083169081156125405750600114614f4f57610369836124d281870382615698565b6002600090815260209450917f405787fa12a823e0f2b7631cc41b3ba8828b3321ca811111fa75cd3aa3bb5ace5b828410614f96575050508101909101906124d2816124c2565b8054858501870152928501928101614f7d565b346105f15760003660031901126105f15760088054600060015b828111156151e25750614fd5906187c9565b9060009260015b82811115614ff25760405180610369868261554b565b8060005260106020818152604060002091600f8301549060ff938483831c16158061502c575b5050505050506150279061635f565b614fdc565b60409a969a519561503c876155d9565b8254875260018301546001600160a01b031686880152604051615066816103da81600288016157d6565b604088015260405161507f816103da81600388016157d6565b606088015260048301546080880152600583015460a08801526006946150a6868501618703565b60c08901526150b760078501618703565b60e08901526150c78a8501618703565b6101008901526040516150e1816103da81600989016157d6565b6101208901526040516150fb816103da81600a89016157d6565b610140890152600b840154610160890152604051615120816103da81600c89016157d6565b61018089015260405161513a816103da81600d89016157d6565b6101a0890152600e8401546101c089015281811615156101e0890152891c1615156102008701521561022086015201908154916151768361636e565b936151846040519586615698565b8385526000918252808220918186015b8582106151c6575050505050509181615027936102406151ba94015261054382886163b7565b94908680808080615018565b84836001926151d487618768565b815201940191019092615194565b8060005260ff601080602052600f60406000200154901c161561520e575b6152099061635f565b614fc3565b9061521b6152099161635f565b919050615200565b346105f15760203660031901126105f15760043563ffffffff60e01b81168091036105f1576020906380ac58cd60e01b8114908115615280575b811561526f575b506040519015158152f35b6301ffc9a760e01b14905082615264565b635b5e139f60e01b8114915061525d565b346105f15760203660031901126105f1576020906004356000526018825260ff6040600020541615158152f35b919082519283825260005b8481106152ea575050826000602080949584010152601f8019910116010190565b6020818301810151848301820152016152c9565b908082519081815260208091019281808460051b8301019501936000915b84831061532c5750505050505090565b909192939495848061534a600193601f198682030187528a516152be565b980193019301919493929061531c565b90808183519182825260208080809401958560051b01019501936000915b8483106153885750505050505090565b9091929394958480600192601f1985820301865289519081518152848060a01b03838301511683820152604080830151908201526153d56060808401519060c080918501528301906152be565b9160808082015115159083015260a0809101519101529801930193019194939290615378565b90615548918051825260018060a01b0360208201511660208301526155026154ee6154cf6154bb6154a761549361548161545b61544960408a015160408c61026091829101528c01906152be565b60608a01518b820360608d01526152be565b608089015160808b015260a089015160a08b015260c08901518a820360c08c01526152fe565b60e088015189820360e08b01526152fe565b6101008088015190898303908a01526152fe565b6101208087015190888303908901526152be565b6101408086015190878303908801526152be565b61016080850151908601526101808085015190868303908701526152be565b6101a08084015190858303908601526152be565b916101c080830151908201526101e0808301511515908201526102008083015115159082015261022080830151151590820152610240809201519181840391015261535a565b90565b602080820190808352835180925260408301928160408460051b8301019501936000915b84831061557f5750505050505090565b909192939495848061559d600193603f198682030187528a516153fb565b980193019301919493929061556f565b600435906001600160a01b03821682036105f157565b602435906001600160a01b03821682036105f157565b61026081019081106001600160401b03821117610d5c57604052565b61010081019081106001600160401b03821117610d5c57604052565b60e081019081106001600160401b03821117610d5c57604052565b608081019081106001600160401b03821117610d5c57604052565b60a081019081106001600160401b03821117610d5c57604052565b60c081019081106001600160401b03821117610d5c57604052565b602081019081106001600160401b03821117610d5c57604052565b601f909101601f19168101906001600160401b03821190821017610d5c57604052565b6001600160401b038111610d5c57601f01601f191660200190565b9291926156e2826156bb565b916156f06040519384615698565b8294818452818301116105f1578281602093846000960137010152565b9080601f830112156105f157816020615548933591016156d6565b60609060031901126105f1576001600160a01b039060043582811681036105f1579160243590811681036105f1579060443590565b9060606003198301126105f15760043591602435906001600160401b0382116105f15761578c9160040161570d565b9060443580151581036105f15790565b90600182811c921680156157cc575b60208310146157b657565b634e487b7160e01b600052602260045260246000fd5b91607f16916157ab565b90600092918054916157e78361579c565b9182825260019384811690816000146158495750600114615809575b50505050565b90919394506000526020928360002092846000945b838610615835575050505001019038808080615803565b80548587018301529401938590820161581e565b9294505050602093945060ff191683830152151560051b01019038808080615803565b6155489160e06159036158f16158df6158cd6158bb6158a96158978951610100808b528a01906152be565b60208a015189820360208b01526152be565b604089015188820360408a01526152be565b606088015187820360608901526152be565b608087015186820360808801526152be565b60a086015185820360a08701526152be565b60c085015184820360c08601526152be565b9201519060e08184039101526152be565b602080820190808352835180925260409283810182858560051b8401019601946000925b858410615949575050505050505090565b9091929394959685806159c1600193603f198682030188528b51805182528381015184830152878101518883015260608082015190830152858060a01b0360808181840151169084015260a09081830151169083015260c08082015115159083015260e080910151916101008092820152019061586c565b990194019401929594939190615938565b9060c080615a3d615a2b615a19615a076159f5885160e0895260e08901906152be565b602089015188820360208a01526152be565b604088015187820360408901526152be565b606087015186820360608801526152be565b608086015185820360808701526152be565b9360a081015160a08501520151151591015290565b9060048210156116165752565b601c54811015615a7a57601c60005260206000200190600090565b634e487b7160e01b600052603260045260246000fd5b600c54811015615a7a57600c60005260206000200190600090565b8054821015615a7a5760005260206000200190600090565b6020908160408183019282815285518094520193019160005b828110615aea575050505090565b83516001600160a01b031685529381019392810192600101615adc565b8054821015615a7a57600052600e602060002091020190600090565b90600760e0604093615beb855191615b3a836155f5565b61063f83978051615b4f816103da81876157d6565b85528051615b64816103da81600188016157d6565b60208601528051615b7c816103da81600288016157d6565b818601528051615b93816103da81600388016157d6565b60608601528051615bab816103da81600488016157d6565b60808601528051615bc3816103da81600588016157d6565b60a08601528051615bdb816103da81600688016157d6565b60c08601525180968193016157d6565b0152565b959290916155489897959492875260208701526040860152606085015260018060a01b0380921660808501521660a0830152151560c0820152610100908160e0820152019061586c565b90815180825260208080930193019160005b828110615c59575050505090565b835185529381019392810192600101615c4b565b6000546001600160a01b03163303615c8157565b606460405162461bcd60e51b815260206004820152602060248201527f4f776e61626c653a2063616c6c6572206973206e6f7420746865206f776e65726044820152fd5b15615ccc57565b60405162461bcd60e51b8152602060048201526018602482015277115490cdcc8c4e881a5b9d985b1a59081d1bdad95b88125160421b6044820152606490fd5b6000908152600460205260409020546001600160a01b0316615548811515615cc5565b615d3b6119d982616028565b6000908152600660205260409020546001600160a01b031690565b15615d5d57565b60405162461bcd60e51b815260206004820152602d60248201527f4552433732313a2063616c6c6572206973206e6f7420746f6b656e206f776e6560448201526c1c881bdc88185c1c1c9bdd9959609a1b6064820152608490fd5b90615ddc939291615dcc614a3b8433615e53565b615dd7838383615f1b565b616075565b15615de357565b60405162461bcd60e51b815280615dfc60048201615e00565b0390fd5b60809060208152603260208201527f4552433732313a207472616e7366657220746f206e6f6e20455243373231526560408201527131b2b4bb32b91034b6b83632b6b2b73a32b960711b60608201520190565b906001600160a01b038080615e6784615d0c565b16931691838314938415615e9a575b508315615e84575b50505090565b615e9091929350615d2f565b1614388080615e7e565b909350600052600760205260406000208260005260205260ff604060002054169238615e76565b15615ec857565b60405162461bcd60e51b815260206004820152602560248201527f4552433732313a207472616e736665722066726f6d20696e636f72726563742060448201526437bbb732b960d91b6064820152608490fd5b90615f4391615f2984615d0c565b6001600160a01b0393918416928492909183168414615ec1565b16918215615fc65781615f6091615f5986615d0c565b1614615ec1565b60008051602061977d833981519152600084815260066020526040812060018060a01b03199081815416905583825260056020526040822060001981540190558482526040822060018154019055858252600460205284604083209182541617905580a4565b60405162461bcd60e51b8152602060048201526024808201527f4552433732313a207472616e7366657220746f20746865207a65726f206164646044820152637265737360e01b6064820152608490fd5b9060ff801983541691151516179055565b6000908152600460205260409020546001600160a01b0316151590565b3d15616070573d90616056826156bb565b916160646040519384615698565b82523d6000602084013e565b606090565b91926000929190813b1561616a576020916160cb9185604051958680958194630a85bd0160e11b9b8c845233600485015260018060a01b03809516602485015260448401526080606484015260848301906152be565b0393165af19082908261611b575b505061610d576160e7616045565b805190816161085760405162461bcd60e51b815280615dfc60048201615e00565b602001fd5b6001600160e01b0319161490565b909192506020813d8211616162575b8161613760209383615698565b8101031261615e5751906001600160e01b03198216820361615b57509038806160d9565b80fd5b5080fd5b3d915061612a565b5050505050600190565b1561617b57565b60405162461bcd60e51b815260206004820152600e60248201526d115b585a5b081c995c5d5a5c995960921b6044820152606490fd5b156161b857565b60405162461bcd60e51b815260206004820152600e60248201526d141a1bdb99481c995c5d5a5c995960921b6044820152606490fd5b8181106161f9575050565b600081556001016161ee565b9190601f811161621457505050565b616240926000526020600020906020601f840160051c83019310616242575b601f0160051c01906161ee565b565b9091508190616233565b9060048110156116165760ff80198354169116179055565b1561626b57565b60405162461bcd60e51b8152602060048201526016602482015275496e76616c69642073656c6c6572206164647265737360501b6044820152606490fd5b156162b057565b60405162461bcd60e51b815260206004820152601560248201527414d95b1b195c881b9bdd081c9959da5cdd195c9959605a1b6044820152606490fd5b604051906162fa82615611565b600060c0836060808252806020830152806040830152808083015260808201528260a08201520152565b6001600160a01b039081169061633b821515616264565b60005416811461635957600052601360205260ff6040600020541690565b50600290565b60001981146110cb5760010190565b6001600160401b038111610d5c5760051b60200190565b9061638f8261636e565b61639c6040519182615698565b82815280926163ad601f199161636e565b0190602036910137565b8051821015615a7a5760209160051b010190565b600080546001600160a01b03908116331461648e57338252601960205260408220541661648457338152601360205260ff604082205416906004821015616470575060020361641d5761624090616a7c565b60405162461bcd60e51b815260206004820152602560248201527f4f6e6c792076657269666965642073656c6c6572206f722061646d696e20616c6044820152641b1bddd95960da1b6064820152608490fd5b634e487b7160e01b81526021600452602490fd5b5061624090616a7c565b505061624090616a7c565b903590601e19813603018212156105f157018035906001600160401b0382116105f1576020019181360383136105f157565b156164d257565b60405162461bcd60e51b81526020600482015260146024820152734e616d652063616e6e6f7420626520656d70747960601b6044820152606490fd5b1561651557565b60405162461bcd60e51b815260206004820152601c60248201527b05072696365206d7573742062652067726561746572207468616e20360241b6044820152606490fd5b1561656057565b60405162461bcd60e51b815260206004820152601c60248201527b053746f636b206d7573742062652067726561746572207468616e20360241b6044820152606490fd5b156165ab57565b60405162461bcd60e51b815260206004820152601d60248201527f576569676874206d7573742062652067726561746572207468616e20300000006044820152606490fd5b156165f757565b60405162461bcd60e51b81526020600482015260156024820152744d6f64656c2063616e6e6f7420626520656d70747960581b6044820152606490fd5b1561663b57565b60405162461bcd60e51b81526020600482015260156024820152744272616e642063616e6e6f7420626520656d70747960581b6044820152606490fd5b1561667f57565b60405162461bcd60e51b815260206004820152601a6024820152790534b55206d7573742062652067726561746572207468616e20360341b6044820152606490fd5b903590601e19813603018212156105f157018035906001600160401b0382116105f157602001918160051b360383136105f157565b156166fd57565b60405162461bcd60e51b8152602060048201526016602482015275496d616765732063616e6e6f7420626520656d70747960501b6044820152606490fd5b1561674257565b60405162461bcd60e51b815260206004820152601c60248201527b496d616765732063616e6e6f74206265206d6f7265207468616e203560201b6044820152606490fd5b60405190616793826155d9565b8161024060009182815282602082015260609283604083015283808301528060808301528060a08301528360c08301528360e08301528361010083015283610120830152836101408301528061016083015283610180830152836101a0830152806101c0830152806101e0830152806102008301526102208201520152565b9291909261681f8461636e565b9161682d6040519384615698565b829480845260208094019060051b8301928284116105f15780915b84831061685757505050505050565b82356001600160401b0381116105f1578691616876868493860161570d565b815201920191616848565b61688b815461579c565b9081616895575050565b81601f600093116001146168a7575055565b9080839182526168c6601f60208420940160051c8401600185016161ee565b5555565b90600160401b8111610d5c578154918181558282106168e857505050565b600052602060002091820191015b818110616901575050565b8061690d600192616881565b016168f6565b81518155602080830151600180840180546001600160a01b0319166001600160a01b03939093169290921790915560408401516002840155606084015180519394909390926003860192906001600160401b038311610d5c576169808361697a865461579c565b86616205565b80601f84116001146169d857509180809260a09695946005986000946169cd575b50501b916000199060031b1c19161790555b6169c66080820151151560048601616017565b0151910155565b0151925038806169a1565b91939495601f1984168660005283600020936000905b828210616a30575050916005979593918560a098969410616a17575b505050811b0190556169b3565b015160001960f88460031b161c19169055388080616a0a565b8088869782949787015181550196019401906169ee565b8054600160401b811015610d5c57616a6491600182018155615aab565b819291549060031b91821b91600019901b1916179055565b616a92616a898280616499565b905015156164cb565b616aa16040820135151561650e565b616ab060608201351515616559565b60e08101351561779e576101008101351561774b57616ad561012082013515156165a4565b616aef616ae6610140830183616499565b905015156165f0565b616b09616b00610160830183616499565b90501515616634565b616b196101808201351515616678565b616b32616b2960c08301836166c1565b905015156166f6565b616b4d6005616b4460c08401846166c1565b9050111561673b565b6001600854019081600855610180616b63616786565b91838352336020840152616b81616b7a8280616499565b36916156d6565b6040840152616b96616b7a6020830183616499565b606084015260408101356080840152606081013560a0840152616bc6616bbf60808301836166c1565b3691616812565b60c0840152616bdb616bbf60a08301836166c1565b60e0840152616bf0616bbf60c08301836166c1565b61010084015260e0810135600052600e6020526103da616c1d6001604060002001604051928380926157d6565b610120840152610100810135600052600f6020526103da616c4b6001604060002001604051928380926157d6565b610140840152616c62616b7a610140830183616499565b82840152616c77616b7a610160830183616499565b6101a084015261012081013561016084015201356101c0820152331561770757616ca9616ca383616028565b156177ee565b616cb5616ca383616028565b33600052600560205260406000206001815401905581600052600460205260406000203360018060a01b03198254161790558133600060008051602061977d8339815191528180a4601060209081526040600081902083518155918301516001830180546001600160a01b0319166001600160a01b03929092169190911790558201518051906001600160401b038211610d5c578190616d6582616d5c600287015461579c565b60028701616205565b602090601f83116001146176955760009261768a575b50508160011b916000199060031b1c19161760028201555b60608201518051906001600160401b038211610d5c578190616dc582616dbc600387015461579c565b60038701616205565b602090601f83116001146176185760009261760d575b50508160011b916000199060031b1c19161760038201555b6080820151600482015560a082015160058201556006810160c08301516020815191616e1f83856168ca565b01916000526020600020916000905b82821061753057505050506007810160e08301516020815191616e5183856168ca565b01916000526020600020916000905b8282106174535750505050600881016101008301516020815191616e8483856168ca565b01916000526020600020916000905b82821061737057505050506101208201518051906001600160401b038211610d5c578190616ed182616ec8600987015461579c565b60098701616205565b602090601f83116001146172fe576000926172f3575b50508160011b916000199060031b1c19161760098201555b6101408201518051906001600160401b038211610d5c578190616f3282616f29600a87015461579c565b600a8701616205565b602090601f831160011461728157600092617276575b50508160011b916000199060031b1c191617600a8201555b610160820151600b8201556101808201518051906001600160401b038211610d5c578190616f9e82616f95600c87015461579c565b600c8701616205565b602090601f8311600114617204576000926171f9575b50508160011b916000199060031b1c191617600c8201555b6101a08201518051906001600160401b038211610d5c57616ffd82616ff4600d86015461579c565b600d8601616205565b602090601f83116001146171835791806102409492601094600092617178575b50508160011b916000199060031b1c191617600d8201555b6101c0840151600e820155600f81016170556101e0860151151582616017565b6102008501511515815461ff0062ff00006102208901511515871b169260081b169062ffff001916171790550191015190815191600160401b8311610d5c57815483835580841061710b575b506020019060005260206000206000915b8383106170ed5750505050806162409160005260176020526040600020600160ff198254161790553360005260116020526040600020616a47565b60066020826170ff6001945186616913565b019201920191906170b2565b806006029060068204036110cb57836006026006810485036110cb5783600052602060002091820191015b81811061714357506170a1565b80600060069255600060018201556000600282015561716460038201616881565b600060048201556000600582015501617136565b01519050388061701d565b90600d840160005260206000209160005b601f19851681106171e1575092610240949260019260109583601f198116106171c8575b505050811b01600d820155617035565b015160001960f88460031b161c191690553880806171b8565b91926020600181928685015181550194019201617194565b015190503880616fb4565b9250600c84016000526020600020906000935b601f198416851061725b576001945083601f19811610617242575b505050811b01600c820155616fcc565b015160001960f88460031b161c19169055388080617232565b81810151835560209485019460019093019290910190617217565b015190503880616f48565b9250600a84016000526020600020906000935b601f19841685106172d8576001945083601f198116106172bf575b505050811b01600a820155616f60565b015160001960f88460031b161c191690553880806172af565b81810151835560209485019460019093019290910190617294565b015190503880616ee7565b9250600984016000526020600020906000935b601f1984168510617355576001945083601f1981161061733c575b505050811b016009820155616eff565b015160001960f88460031b161c1916905538808061732c565b81810151835560209485019460019093019290910190617311565b80518051906001600160401b038211610d5c5761739782617391885461579c565b88616205565b602090601f83116001146173e35792826001949360209386956000926173d8575b5050600019600383901b1c191690841b1787555b01940191019092616e93565b0151905038806173b8565b908660005260206000209160005b601f198516811061743b575083602093600196938796938794601f19811610617422575b505050811b0187556173cc565b015160001960f88460031b161c19169055388080617415565b919260206001819286850151815501940192016173f1565b80518051906001600160401b038211610d5c5761747482617391885461579c565b602090601f83116001146174c05792826001949360209386956000926174b5575b5050600019600383901b1c191690841b1787555b01940191019092616e60565b015190503880617495565b908660005260206000209160005b601f1985168110617518575083602093600196938796938794601f198116106174ff575b505050811b0187556174a9565b015160001960f88460031b161c191690553880806174f2565b919260206001819286850151815501940192016174ce565b80518051906001600160401b038211610d5c5761755182617391885461579c565b602090601f831160011461759d579282600194936020938695600092617592575b5050600019600383901b1c191690841b1787555b01940191019092616e2e565b015190503880617572565b908660005260206000209160005b601f19851681106175f5575083602093600196938796938794601f198116106175dc575b505050811b018755617586565b015160001960f88460031b161c191690553880806175cf565b919260206001819286850151815501940192016175ab565b015190503880616ddb565b9250600384016000526020600020906000935b601f198416851061766f576001945083601f19811610617656575b505050811b016003820155616df3565b015160001960f88460031b161c19169055388080617646565b8181015183556020948501946001909301929091019061762b565b015190503880616d7b565b9250600284016000526020600020906000935b601f19841685106176ec576001945083601f198116106176d3575b505050811b016002820155616d93565b015160001960f88460031b161c191690553880806176c3565b818101518355602094850194600190930192909101906176a8565b606460405162461bcd60e51b815260206004820152602060248201527f4552433732313a206d696e7420746f20746865207a65726f20616464726573736044820152fd5b60405162461bcd60e51b815260206004820152602560248201527f53756243617465676f7279204944206d75737420626520677265617465722074604482015264068616e20360dc1b6064820152608490fd5b60405162461bcd60e51b815260206004820152602260248201527f43617465676f7279204944206d7573742062652067726561746572207468616e604482015261020360f41b6064820152608490fd5b156177f557565b60405162461bcd60e51b815260206004820152601c60248201527b115490cdcc8c4e881d1bdad95b88185b1c9958591e481b5a5b9d195960221b6044820152606490fd5b1561784057565b60405162461bcd60e51b815260206004820152602560248201527f4f6e6c792076657269666965642073656c6c6572206f72206f776e657220616c6044820152641b1bddd95960da1b6064820152608490fd5b6000805490939291906001600160a01b0390811633146179765733855260196020526040852054811690811561792057818652601360205260ff604087205416600481101561790c579161624095969160026178fa94149283156178ff575b505050617839565b617ae0565b54161490503880806178f2565b634e487b7160e01b87526021600452602487fd5b9050601360205260ff604086205416600481101561796257946178fa916002616240969714918215617954575b5050617839565b90915054163314388061794d565b634e487b7160e01b86526021600452602486fd5b50616240929350617ae0565b1561798957565b60405162461bcd60e51b8152602060048201526016602482015275141c9bd91d58dd08191bd95cc81b9bdd08195e1a5cdd60521b6044820152606490fd5b156179ce57565b60405162461bcd60e51b8152602060048201526012602482015271141c9bd91d58dd081a5cc819195b195d195960721b6044820152606490fd5b90808214617adc57617a1a815461579c565b906001600160401b038211610d5c578190617a398261697a865461579c565b600090601f8311600114617a7057600092617a65575b50508160011b916000199060031b1c1916179055565b015490503880617a4f565b81526020808220858352818320935090601f1985169083905b828210617ac3575050908460019594939210617aaa575b505050811b019055565b015460001960f88460031b161c19169055388080617aa0565b8495819295850154815560018091019601940190617a89565b5050565b6000818152601060205260409020600101546001600160a01b031633036184d457806000526017602052617b1b60ff60406000205416617982565b806000526010602052617b3c60ff600f6040600020015460101c16156179c7565b617b49616a898380616499565b617b566020830183616499565b90501561849157617b6c6040830135151561650e565b617b7b60608301351515616559565b617b8860808301836166c1565b90501561845357617b9c60a08301836166c1565b90501561841657617bb3616b2960c08401846166c1565b617bc56005616b4460c08501856166c1565b60e0820135156183d6576101008201351561839257617beb616ae6610140840184616499565b617bfc616b00610160840184616499565b617c0c61012083013515156165a4565b617c1c6101808301351515616678565b617c268280616499565b6000838152601060205260409020600201916001600160401b038211610d5c578190617c568261697a865461579c565b600090601f831160011461832a5760009261831f575b50508160011b916000199060031b1c19161790555b617c8e6020830183616499565b6000838152601060205260409020600301916001600160401b038211610d5c578190617cbe8261697a865461579c565b600090601f83116001146182b7576000926182ac575b50508160011b916000199060031b1c19161790555b806000526010602052604060002060408301356004820155606083013560058201556006617d1a60808501856166c1565b9190920191617d2982846168ca565b60009283526020832090805b8385106181c9575050505050617d4e60a08301836166c1565b826000526010602052600760406000200191617d6a82846168ca565b60009283526020832090805b8385106180e6575050505050617d8f60c08301836166c1565b826000526010602052600860406000200191617dab82846168ca565b60009283526020832090805b838510617ffd57505050505060e0820135600052600e602052617df160016040600020018260005260106020526009604060002001617a08565b610100820135600052600f602052617e206001604060002001826000526010602052600a604060002001617a08565b617e2e610140830183616499565b6000838152601060205260409020600c01916001600160401b038211610d5c578190617e5e8261697a865461579c565b600090601f8311600114617f9557600092617f8a575b50508160011b916000199060031b1c19161790555b617e97610160830183616499565b6000838152601060205260409020600d01916001600160401b038211610d5c578190617ec78261697a865461579c565b600090601f8311600114617f2257600092617f17575b50508160011b916000199060031b1c19161790555b6000526010602052600e610180604060002092610120810135600b8501550135910155565b013590503880617edd565b600085815260208120909450915b601f1984168510617f72576001945083601f19811610617f58575b505050811b019055617ef2565b0135600019600384901b60f8161c19169055388080617f4b565b81810135835560209485019460019093019201617f30565b013590503880617e74565b600085815260208120909450915b601f1984168510617fe5576001945083601f19811610617fcb575b505050811b019055617e89565b0135600019600384901b60f8161c19169055388080617fbe565b81810135835560209485019460019093019201617fa3565b6180078183616499565b906001600160401b038211610d5c5761802a82618024875461579c565b87616205565b600090601f831160011461807657928260019493602093869560009261806b575b5050600019600383901b1c191690841b1786555b01930194019391617db7565b01359050388061804b565b8560005260206000209160005b601f19851681106180ce575083602093600196938796938794601f198116106180b4575b505050811b01865561805f565b0135600019600384901b60f8161c191690553880806180a7565b90926020600181928686013581550194019101618083565b6180f08183616499565b906001600160401b038211610d5c5761810d82618024875461579c565b600090601f831160011461815957928260019493602093869560009261814e575b5050600019600383901b1c191690841b1786555b01930194019391617d76565b01359050388061812e565b8560005260206000209160005b601f19851681106181b1575083602093600196938796938794601f19811610618197575b505050811b018655618142565b0135600019600384901b60f8161c1916905538808061818a565b90926020600181928686013581550194019101618166565b6181d38183616499565b906001600160401b038211610d5c576181f082618024875461579c565b600090601f831160011461823c579282600194936020938695600092618231575b5050600019600383901b1c191690841b1786555b01930194019391617d35565b013590503880618211565b8560005260206000209160005b601f1985168110618294575083602093600196938796938794601f1981161061827a575b505050811b018655618225565b0135600019600384901b60f8161c1916905538808061826d565b90926020600181928686013581550194019101618249565b013590503880617cd4565b600085815260208120909450915b601f1984168510618307576001945083601f198116106182ed575b505050811b019055617ce9565b0135600019600384901b60f8161c191690553880806182e0565b818101358355602094850194600190930192016182c5565b013590503880617c6c565b600085815260208120909450915b601f198416851061837a576001945083601f19811610618360575b505050811b019055617c81565b0135600019600384901b60f8161c19169055388080618353565b81810135835560209485019460019093019201618338565b60405162461bcd60e51b815260206004820152601c60248201527b5375622d63617465676f72792063616e6e6f7420626520656d70747960201b6044820152606490fd5b60405162461bcd60e51b815260206004820152601860248201527743617465676f72792063616e6e6f7420626520656d70747960401b6044820152606490fd5b60405162461bcd60e51b815260206004820152601560248201527453697a65732063616e6e6f7420626520656d70747960581b6044820152606490fd5b60405162461bcd60e51b8152602060048201526016602482015275436f6c6f72732063616e6e6f7420626520656d70747960501b6044820152606490fd5b60405162461bcd60e51b815260206004820152601b60248201527a4465736372697074696f6e2063616e6e6f7420626520656d70747960281b6044820152606490fd5b60405162461bcd60e51b815260206004820152602860248201527f4f6e6c79207468652073656c6c65722063616e20757064617465207468656972604482015267081c1c9bd91d58dd60c21b6064820152608490fd5b60008054909291906001600160a01b0390811633146185db5733845260196020526040842054811690811561859457818552601360205260ff60408620541660048110156179625791616240949591600261858f94149283156178ff57505050617839565b6185e3565b9050601360205260ff60408520541660048110156185c7579361858f916002616240959614918215617954575050617839565b634e487b7160e01b85526021600452602485fd5b506162409192505b906000918083526020926017845260409161860360ff8484205416617982565b8082526010855282822060010154336001600160a01b03918216149081156186f6575b50156186a2578082526010855260ff600f848420015460101c1661866157600f939460109183525220016201000062ff000019825416179055565b825162461bcd60e51b815260048101869052601a602482015279141c9bd91d58dd081a5cc8185b1c9958591e4819195b195d195960321b6044820152606490fd5b825162461bcd60e51b815260048101869052602760248201527f4f6e6c792070726f647563742073656c6c6572206f72206f776e65722063616e6044820152662064656c65746560c81b6064820152608490fd5b8354163314905038618626565b90815461870f8161636e565b9260409361871f85519182615698565b828152809460208092019260005281600020906000935b85851061874557505050505050565b6001848192845161875a816103da818a6157d6565b815201930194019391618736565b9060405161877581615662565b60a06005829480548452600180841b036001820154166020850152600281015460408501526040516187ae816103da81600386016157d6565b606085015260ff600482015416151560808501520154910152565b906187d38261636e565b6187e06040519182615698565b82815280926187f1601f199161636e565b019060005b82811061880257505050565b60209061880d616786565b828285010152016187f6565b1561882057565b60405162461bcd60e51b815260206004820152601d60248201527f43617465676f7279206e616d652063616e6e6f7420626520656d7074790000006044820152606490fd5b1561886c57565b606460405162461bcd60e51b815260206004820152602060248201527f53756263617465676f7279206e616d652063616e6e6f7420626520656d7074796044820152fd5b90821015615a7a576188c79160051b810190616499565b9091565b156188d257565b60405162461bcd60e51b815260206004820152601760248201527610d85d1959dbdc9e48191bd95cc81b9bdd08195e1a5cdd604a1b6044820152606490fd5b906189296020919493946040845260408401906152be565b931515910152565b1561893857565b60405162461bcd60e51b815260206004820152601a60248201527914dd5898d85d1959dbdc9e48191bd95cc81b9bdd08195e1a5cdd60321b6044820152606490fd5b9060405191828154918282526020928383019160005283600020936000905b8282106189af5750505061624092500383615698565b855484526001958601958895509381019390910190618999565b60005b8281106189d857505050565b6060828201526020016189cc565b919082039182116110cb57565b60405190618a0082615662565b600060a0838281528260208201528260408201526060808201528260808201520152565b8054821015615a7a576000526006602060002091020190600090565b8054600160401b811015610d5c57618a5f906001928382018155615b07565b9290926191065780518355602080820151838501556040820151600285015560608201516003808601919091556080830151600480870180546001600160a01b0319166001600160a01b0393841617905560a08086015160058901805460c08901516001600160a81b0319909116929095169190911793151590911b60ff60a01b169290921790915560e0909301518051805191966001600160401b0395939491939260068201908781116190f157618b1c816111ce845461579c565b8084601f9788831160011461908f57600092619084575b505060001982891b1c191690891b1790555b6007810182890151805190888211618e4e578190618b678261697a865461579c565b859088831160011461902257600092619017575b505060001982891b1c191690891b1790555b600881016040890151805190888211618e4e578190618bb08261697a865461579c565b8590888311600114618fb557600092618faa575b505060001982891b1c191690891b1790555b600981016060890151805190888211618e4e578190618bf98261697a865461579c565b8590888311600114618f4857600092618f3d575b505060001982891b1c191690891b1790555b600a81016080890151805190888211618e4e578190618c428261697a865461579c565b8590888311600114618edb57600092618ed0575b505060001982891b1c191690891b1790555b600b810160a0890151805190888211618e4e578190618c8b8261697a865461579c565b8590888311600114618e6e57600092618e63575b505060001982891b1c191690891b1790555b600c810160c0890151805190888211618e4e57618cd282610c72855461579c565b8490878311600114618de1579180600d949260e09694600092618dd6575b5050600019828b1b1c1916908b1b1790555b01970151918251958611618dc15750618d2585618d1f895461579c565b89616205565b80928511600114618d5b5750938394918492600095618d50575b50501b92600019911b1c1916179055565b015193503880618d3f565b92919084601f1981168860005285600020956000905b89838310618da75750505010618d8d575b50505050811b019055565b01519060f884600019921b161c1916905538808080618d82565b858701518955909701969485019488935090810190618d71565b604190634e487b7160e01b6000525260246000fd5b015190503880618cf0565b8a9291601f1983169185600052876000209260005b89828210618e385750509160e09795939185600d98969410618e20575b505050811b019055618d02565b0151600019838d1b60f8161c19169055388080618e13565b8385015186558f97909501949384019301618df6565b604186634e487b7160e01b6000525260246000fd5b015190503880618c9f565b908b9350601f1983169185600052876000209260005b89828210618eba5750508411618ea2575b505050811b019055618cb1565b0151600019838b1b60f8161c19169055388080618e95565b8385015186558f97909501949384019301618e84565b015190503880618c56565b908b9350601f1983169185600052876000209260005b89828210618f275750508411618f0f575b505050811b019055618c68565b0151600019838b1b60f8161c19169055388080618f02565b8385015186558f97909501949384019301618ef1565b015190503880618c0d565b908b9350601f1983169185600052876000209260005b89828210618f945750508411618f7c575b505050811b019055618c1f565b0151600019838b1b60f8161c19169055388080618f6f565b8385015186558f97909501949384019301618f5e565b015190503880618bc4565b908b9350601f1983169185600052876000209260005b898282106190015750508411618fe9575b505050811b019055618bd6565b0151600019838b1b60f8161c19169055388080618fdc565b8385015186558f97909501949384019301618fcb565b015190503880618b7b565b908b9350601f1983169185600052876000209260005b8982821061906e5750508411619056575b505050811b019055618b8d565b0151600019838b1b60f8161c19169055388080619049565b8385015186558f97909501949384019301619038565b015190503880618b33565b908b9350601f1983169185600052876000209260005b898282106190db57505084116190c3575b505050811b019055618b45565b0151600019838b1b60f8161c191690553880806190b6565b8385015186558f979095019493840193016190a5565b604185634e487b7160e01b6000525260246000fd5b634e487b7160e01b600052600060045260246000fd5b600080546001600160a01b03929190831633146191ca57338152601960205260408120548316801561919557808252601360205260ff6040832054169360048510156191815760026191799495149283156178ff57505050617839565b6162406191d1565b634e487b7160e01b83526021600452602483fd5b509091601360205260ff6040832054166004811015619181579060026191c5939214918215617954575050617839565b619179565b5090506162405b600033815260126020526040812054801561927457600b548082029082820403619260579061922c61920a6064619232940480936189e6565b33855260126020526040852085905584549092906001600160a01b0316619615565b33619615565b6040519081527f8ad64a0ac7700dd8425ab0499f107cb6e2cd1581d803c5b8c1c79dcb8190b1af60203392a2565b634e487b7160e01b83526011600452602483fd5b60405162461bcd60e51b81526020600482015260166024820152754e6f2062616c616e636520746f20776974686472617760501b6044820152606490fd5b6000805490939291906001600160a01b0390811633146193505733855260196020526040852054811690811561931d57818652601360205260ff604087205416600481101561790c5791616240959691600261931894149283156178ff57505050617839565b619358565b9050601360205260ff60408620541660048110156179625794619318916002616240969714918215617954575050617839565b506162409293505b600091825b60018060a01b0380831680600052601460208181526040928360002080548710156196075761938d878a92615b07565b5054146193a75750505050506193a29061635f565b61935d565b8091929394969798506000528282526193c38585600020615b07565b509560ff60058098015460a01c166195c5578160005283835280876193eb8888600020615b07565b5001541633149081156195b7575b501561956057906194139493929160005252600020615b07565b5001805460ff60a01b1916600160a01b17905560015b1561952657816000526020916010835260018060a01b039260019384936040828682600020015416866000905b619478575b505060008051602061971d833981519152949550519586521693a3565b81600052601580875283600020805483101561951f57619499838a92615b07565b505414806194fa575b6194b657506194b09061635f565b87619456565b60008051602061971d833981519152979850906194de91600593600052875283600020615b07565b5001805460ff60a01b1916600160a01b1790558695943861945b565b50826000528087528560046195128487600020615b07565b50015416868616146194a2565b505061945b565b60405162461bcd60e51b8152602060048201526012602482015271141d5c98da185cd9481b9bdd08199bdd5b9960721b6044820152606490fd5b835162461bcd60e51b815260048101839052602a60248201527f4f6e6c792073656c6c6572206f72206f776e65722063616e206d61726b2061736044820152690819195b1a5d995c995960b21b6064820152608490fd5b6000541633149050386193f9565b845162461bcd60e51b815260048101849052601b60248201527a105b1c9958591e481b585c9ad95908185cc819195b1a5d995c9959602a1b6044820152606490fd5b505050505050509091619429565b6001600160a01b0316801561967457600080809381935af1619635616045565b501561963d57565b60405162461bcd60e51b815260206004820152600f60248201526e151c985b9cd9995c8819985a5b1959608a1b6044820152606490fd5b60405162461bcd60e51b815260206004820152600f60248201526e496e76616c6964206164647265737360881b6044820152606490fd5b600c549060005b8281106196c157505050600090565b6196ca81615a90565b905460039190911b1c6001600160a01b03908116908316146196f4576196ef9061635f565b6196b2565b50505060019056fe32b449308c94e824ccedd9877932cd82f89a481c06c4643a0cb2914454a8c582f9dc8543b583e01f592678422369b2777e3649761f5808ae432cb1c24ca9438c79d3150b1760cd391f5006c9543aea088e4c9060f3e582ea0a948dc6649b25da8be0079c531659141344cd1fd0a4f28419497f9722a3daafe3b4186f6b6457e0ddf252ad1be2c89b69c2b068fc378daa952ba7f163c4a11628f55a4df523b3ef5a8a989e12f3ce7cf805b73156a361da5d8369f0c37173209308910b322117ac4cfca6396923c3eee68be58aa35fd6623ae5d67bb552da5e1de2e0d5854166dca164736f6c6343000813000a",
  "linkReferences": {},
  "deployedLinkReferences": {}
}