{
  "_format": "hh-sol-artifact-1",
  "contractName": "HemShop",
  "sourceName": "contracts/HemShop.sol",
  "abi": [
    {
      "inputs": [
        {
          "internalType": "uint256",
          "name": "_pct",
          "type": "uint256"
        }
      ],
      "stateMutability": "nonpayable",
      "type": "constructor"
    },
    {
      "anonymous": false,
      "inputs": [
        {
          "indexed": false,
          "internalType": "address",
          "name": "admin",
          "type": "address"
        },
        {
          "indexed": false,
          "internalType": "address",
          "name": "impersonatedAccount",
          "type": "address"
        }
      ],
      "name": "AdminImpersonationChanged",
      "type": "event"
    },
    {
      "anonymous": false,
      "inputs": [
        {
          "indexed": true,
          "internalType": "address",
          "name": "owner",
          "type": "address"
        },
        {
          "indexed": true,
          "internalType": "address",
          "name": "approved",
          "type": "address"
        },
        {
          "indexed": true,
          "internalType": "uint256",
          "name": "tokenId",
          "type": "uint256"
        }
      ],
      "name": "Approval",
      "type": "event"
    },
    {
      "anonymous": false,
      "inputs": [
        {
          "indexed": true,
          "internalType": "address",
          "name": "owner",
          "type": "address"
        },
        {
          "indexed": true,
          "internalType": "address",
          "name": "operator",
          "type": "address"
        },
        {
          "indexed": false,
          "internalType": "bool",
          "name": "approved",
          "type": "bool"
        }
      ],
      "name": "ApprovalForAll",
      "type": "event"
    },
    {
      "anonymous": false,
      "inputs": [
        {
          "indexed": true,
          "internalType": "address",
          "name": "seller",
          "type": "address"
        },
        {
          "indexed": false,
          "internalType": "uint256",
          "name": "newBalance",
          "type": "uint256"
        }
      ],
      "name": "BalanceUpdated",
      "type": "event"
    },
    {
      "anonymous": false,
      "inputs": [
        {
          "indexed": true,
          "internalType": "uint256",
          "name": "id",
          "type": "uint256"
        },
        {
          "indexed": false,
          "internalType": "string",
          "name": "name",
          "type": "string"
        }
      ],
      "name": "CategoryCreated",
      "type": "event"
    },
    {
      "anonymous": false,
      "inputs": [
        {
          "indexed": true,
          "internalType": "uint256",
          "name": "id",
          "type": "uint256"
        },
        {
          "indexed": false,
          "internalType": "string",
          "name": "name",
          "type": "string"
        },
        {
          "indexed": false,
          "internalType": "bool",
          "name": "isActive",
          "type": "bool"
        }
      ],
      "name": "CategoryUpdated",
      "type": "event"
    },
    {
      "anonymous": false,
      "inputs": [
        {
          "indexed": true,
          "internalType": "uint256",
          "name": "productId",
          "type": "uint256"
        },
        {
          "indexed": true,
          "internalType": "address",
          "name": "buyer",
          "type": "address"
        },
        {
          "indexed": false,
          "internalType": "bool",
          "name": "isDelivered",
          "type": "bool"
        }
      ],
      "name": "DeliveryStatusUpdated",
      "type": "event"
    },
    {
      "anonymous": false,
      "inputs": [
        {
          "indexed": true,
          "internalType": "address",
          "name": "previousOwner",
          "type": "address"
        },
        {
          "indexed": true,
          "internalType": "address",
          "name": "newOwner",
          "type": "address"
        }
      ],
      "name": "OwnershipTransferred",
      "type": "event"
    },
    {
      "anonymous": false,
      "inputs": [
        {
          "indexed": true,
          "internalType": "uint256",
          "name": "productId",
          "type": "uint256"
        },
        {
          "indexed": true,
          "internalType": "address",
          "name": "buyer",
          "type": "address"
        },
        {
          "indexed": true,
          "internalType": "address",
          "name": "seller",
          "type": "address"
        },
        {
          "indexed": false,
          "internalType": "uint256",
          "name": "price",
          "type": "uint256"
        },
        {
          "indexed": false,
          "internalType": "uint256",
          "name": "timestamp",
          "type": "uint256"
        }
      ],
      "name": "ProductPurchased",
      "type": "event"
    },
    {
      "anonymous": false,
      "inputs": [
        {
          "indexed": true,
          "internalType": "uint256",
          "name": "productId",
          "type": "uint256"
        },
        {
          "indexed": true,
          "internalType": "address",
          "name": "buyer",
          "type": "address"
        },
        {
          "indexed": true,
          "internalType": "address",
          "name": "seller",
          "type": "address"
        },
        {
          "indexed": false,
          "internalType": "uint256",
          "name": "totalAmount",
          "type": "uint256"
        },
        {
          "indexed": false,
          "internalType": "uint256",
          "name": "basePrice",
          "type": "uint256"
        },
        {
          "indexed": false,
          "internalType": "uint256",
          "name": "timestamp",
          "type": "uint256"
        }
      ],
      "name": "PurchaseRecorded",
      "type": "event"
    },
    {
      "anonymous": false,
      "inputs": [
        {
          "indexed": true,
          "internalType": "address",
          "name": "seller",
          "type": "address"
        },
        {
          "indexed": false,
          "internalType": "uint256",
          "name": "timestamp",
          "type": "uint256"
        }
      ],
      "name": "SellerRegistered",
      "type": "event"
    },
    {
      "anonymous": false,
      "inputs": [
        {
          "indexed": true,
          "internalType": "address",
          "name": "seller",
          "type": "address"
        },
        {
          "indexed": false,
          "internalType": "enum HemShop.SellerStatus",
          "name": "status",
          "type": "uint8"
        }
      ],
      "name": "SellerStatusUpdated",
      "type": "event"
    },
    {
      "anonymous": false,
      "inputs": [
        {
          "indexed": true,
          "internalType": "uint256",
          "name": "id",
          "type": "uint256"
        },
        {
          "indexed": true,
          "internalType": "uint256",
          "name": "parentId",
          "type": "uint256"
        },
        {
          "indexed": false,
          "internalType": "string",
          "name": "name",
          "type": "string"
        }
      ],
      "name": "SubCategoryCreated",
      "type": "event"
    },
    {
      "anonymous": false,
      "inputs": [
        {
          "indexed": true,
          "internalType": "uint256",
          "name": "id",
          "type": "uint256"
        },
        {
          "indexed": false,
          "internalType": "string",
          "name": "name",
          "type": "string"
        },
        {
          "indexed": false,
          "internalType": "bool",
          "name": "isActive",
          "type": "bool"
        }
      ],
      "name": "SubCategoryUpdated",
      "type": "event"
    },
    {
      "anonymous": false,
      "inputs": [
        {
          "indexed": true,
          "internalType": "address",
          "name": "from",
          "type": "address"
        },
        {
          "indexed": true,
          "internalType": "address",
          "name": "to",
          "type": "address"
        },
        {
          "indexed": true,
          "internalType": "uint256",
          "name": "tokenId",
          "type": "uint256"
        }
      ],
      "name": "Transfer",
      "type": "event"
    },
    {
      "inputs": [
        {
          "internalType": "address",
          "name": "",
          "type": "address"
        }
      ],
      "name": "adminImpersonating",
      "outputs": [
        {
          "internalType": "address",
          "name": "",
          "type": "address"
        }
      ],
      "stateMutability": "view",
      "type": "function"
    },
    {
      "inputs": [
        {
          "internalType": "address",
          "name": "to",
          "type": "address"
        },
        {
          "internalType": "uint256",
          "name": "tokenId",
          "type": "uint256"
        }
      ],
      "name": "approve",
      "outputs": [],
      "stateMutability": "nonpayable",
      "type": "function"
    },
    {
      "inputs": [
        {
          "internalType": "address",
          "name": "owner",
          "type": "address"
        }
      ],
      "name": "balanceOf",
      "outputs": [
        {
          "internalType": "uint256",
          "name": "",
          "type": "uint256"
        }
      ],
      "stateMutability": "view",
      "type": "function"
    },
    {
      "inputs": [
        {
          "internalType": "uint256",
          "name": "productId",
          "type": "uint256"
        },
        {
          "components": [
            {
              "internalType": "string",
              "name": "fullName",
              "type": "string"
            },
            {
              "internalType": "string",
              "name": "streetAddress",
              "type": "string"
            },
            {
              "internalType": "string",
              "name": "city",
              "type": "string"
            },
            {
              "internalType": "string",
              "name": "state",
              "type": "string"
            },
            {
              "internalType": "string",
              "name": "country",
              "type": "string"
            },
            {
              "internalType": "string",
              "name": "postalCode",
              "type": "string"
            },
            {
              "internalType": "string",
              "name": "phone",
              "type": "string"
            },
            {
              "internalType": "string",
              "name": "email",
              "type": "string"
            }
          ],
          "internalType": "struct HemShop.ShippingDetails",
          "name": "shippingDetails",
          "type": "tuple"
        }
      ],
      "name": "buyProduct",
      "outputs": [],
      "stateMutability": "payable",
      "type": "function"
    },
    {
      "inputs": [
        {
          "internalType": "address",
          "name": "",
          "type": "address"
        },
        {
          "internalType": "uint256",
          "name": "",
          "type": "uint256"
        }
      ],
      "name": "buyerPurchaseHistory",
      "outputs": [
        {
          "internalType": "uint256",
          "name": "productId",
          "type": "uint256"
        },
        {
          "internalType": "uint256",
          "name": "totalAmount",
          "type": "uint256"
        },
        {
          "internalType": "uint256",
          "name": "basePrice",
          "type": "uint256"
        },
        {
          "internalType": "uint256",
          "name": "timestamp",
          "type": "uint256"
        },
        {
          "internalType": "address",
          "name": "buyer",
          "type": "address"
        },
        {
          "internalType": "address",
          "name": "seller",
          "type": "address"
        },
        {
          "internalType": "bool",
          "name": "isDelivered",
          "type": "bool"
        },
        {
          "components": [
            {
              "internalType": "string",
              "name": "fullName",
              "type": "string"
            },
            {
              "internalType": "string",
              "name": "streetAddress",
              "type": "string"
            },
            {
              "internalType": "string",
              "name": "city",
              "type": "string"
            },
            {
              "internalType": "string",
              "name": "state",
              "type": "string"
            },
            {
              "internalType": "string",
              "name": "country",
              "type": "string"
            },
            {
              "internalType": "string",
              "name": "postalCode",
              "type": "string"
            },
            {
              "internalType": "string",
              "name": "phone",
              "type": "string"
            },
            {
              "internalType": "string",
              "name": "email",
              "type": "string"
            }
          ],
          "internalType": "struct HemShop.ShippingDetails",
          "name": "shippingDetails",
          "type": "tuple"
        }
      ],
      "stateMutability": "view",
      "type": "function"
    },
    {
      "inputs": [
        {
          "internalType": "uint256",
          "name": "newPct",
          "type": "uint256"
        }
      ],
      "name": "changeServicePct",
      "outputs": [],
      "stateMutability": "nonpayable",
      "type": "function"
    },
    {
      "inputs": [
        {
          "internalType": "string",
          "name": "_name",
          "type": "string"
        }
      ],
      "name": "createCategory",
      "outputs": [],
      "stateMutability": "nonpayable",
      "type": "function"
    },
    {
      "inputs": [
        {
          "components": [
            {
              "internalType": "string",
              "name": "name",
              "type": "string"
            },
            {
              "internalType": "string",
              "name": "description",
              "type": "string"
            },
            {
              "internalType": "uint256",
              "name": "price",
              "type": "uint256"
            },
            {
              "internalType": "uint256",
              "name": "stock",
              "type": "uint256"
            },
            {
              "internalType": "string[]",
              "name": "colors",
              "type": "string[]"
            },
            {
              "internalType": "string[]",
              "name": "sizes",
              "type": "string[]"
            },
            {
              "internalType": "string[]",
              "name": "images",
              "type": "string[]"
            },
            {
              "internalType": "uint256",
              "name": "categoryId",
              "type": "uint256"
            },
            {
              "internalType": "uint256",
              "name": "subCategoryId",
              "type": "uint256"
            },
            {
              "internalType": "string",
              "name": "model",
              "type": "string"
            },
            {
              "internalType": "string",
              "name": "brand",
              "type": "string"
            },
            {
              "internalType": "uint256",
              "name": "weight",
              "type": "uint256"
            },
            {
              "internalType": "uint256",
              "name": "sku",
              "type": "uint256"
            }
          ],
          "internalType": "struct HemShop.ProductInput",
          "name": "input",
          "type": "tuple"
        }
      ],
      "name": "createProduct",
      "outputs": [],
      "stateMutability": "nonpayable",
      "type": "function"
    },
    {
      "inputs": [
        {
          "internalType": "uint256",
          "name": "productId",
          "type": "uint256"
        },
        {
          "internalType": "uint256",
          "name": "rating",
          "type": "uint256"
        },
        {
          "internalType": "string",
          "name": "comment",
          "type": "string"
        }
      ],
      "name": "createReview",
      "outputs": [],
      "stateMutability": "nonpayable",
      "type": "function"
    },
    {
      "inputs": [
        {
          "internalType": "uint256",
          "name": "parentId",
          "type": "uint256"
        },
        {
          "internalType": "string[]",
          "name": "names",
          "type": "string[]"
        }
      ],
      "name": "createSubCategoriesBulk",
      "outputs": [],
      "stateMutability": "nonpayable",
      "type": "function"
    },
    {
      "inputs": [
        {
          "internalType": "uint256",
          "name": "_parentId",
          "type": "uint256"
        },
        {
          "internalType": "string",
          "name": "_name",
          "type": "string"
        }
      ],
      "name": "createSubCategory",
      "outputs": [],
      "stateMutability": "nonpayable",
      "type": "function"
    },
    {
      "inputs": [
        {
          "internalType": "uint256",
          "name": "productId",
          "type": "uint256"
        }
      ],
      "name": "deleteProduct",
      "outputs": [],
      "stateMutability": "nonpayable",
      "type": "function"
    },
    {
      "inputs": [
        {
          "internalType": "uint256",
          "name": "productId",
          "type": "uint256"
        },
        {
          "internalType": "uint256",
          "name": "reviewId",
          "type": "uint256"
        }
      ],
      "name": "deleteReview",
      "outputs": [],
      "stateMutability": "nonpayable",
      "type": "function"
    },
    {
      "inputs": [],
      "name": "getAllCategories",
      "outputs": [
        {
          "internalType": "uint256[]",
          "name": "ids",
          "type": "uint256[]"
        },
        {
          "internalType": "string[]",
          "name": "names",
          "type": "string[]"
        },
        {
          "internalType": "bool[]",
          "name": "activeStates",
          "type": "bool[]"
        },
        {
          "internalType": "uint256[][]",
          "name": "subCategoryIdArrays",
          "type": "uint256[][]"
        }
      ],
      "stateMutability": "view",
      "type": "function"
    },
    {
      "inputs": [],
      "name": "getAllProducts",
      "outputs": [
        {
          "components": [
            {
              "internalType": "uint256",
              "name": "id",
              "type": "uint256"
            },
            {
              "internalType": "address",
              "name": "seller",
              "type": "address"
            },
            {
              "internalType": "string",
              "name": "name",
              "type": "string"
            },
            {
              "internalType": "string",
              "name": "description",
              "type": "string"
            },
            {
              "internalType": "uint256",
              "name": "price",
              "type": "uint256"
            },
            {
              "internalType": "uint256",
              "name": "stock",
              "type": "uint256"
            },
            {
              "internalType": "string[]",
              "name": "colors",
              "type": "string[]"
            },
            {
              "internalType": "string[]",
              "name": "sizes",
              "type": "string[]"
            },
            {
              "internalType": "string[]",
              "name": "images",
              "type": "string[]"
            },
            {
              "internalType": "string",
              "name": "category",
              "type": "string"
            },
            {
              "internalType": "string",
              "name": "subCategory",
              "type": "string"
            },
            {
              "internalType": "uint256",
              "name": "weight",
              "type": "uint256"
            },
            {
              "internalType": "string",
              "name": "model",
              "type": "string"
            },
            {
              "internalType": "string",
              "name": "brand",
              "type": "string"
            },
            {
              "internalType": "uint256",
              "name": "sku",
              "type": "uint256"
            },
            {
              "internalType": "bool",
              "name": "soldout",
              "type": "bool"
            },
            {
              "internalType": "bool",
              "name": "wishlist",
              "type": "bool"
            },
            {
              "internalType": "bool",
              "name": "deleted",
              "type": "bool"
            },
            {
              "components": [
                {
                  "internalType": "uint256",
                  "name": "reviewId",
                  "type": "uint256"
                },
                {
                  "internalType": "address",
                  "name": "reviewer",
                  "type": "address"
                },
                {
                  "internalType": "uint256",
                  "name": "rating",
                  "type": "uint256"
                },
                {
                  "internalType": "string",
                  "name": "comment",
                  "type": "string"
                },
                {
                  "internalType": "bool",
                  "name": "deleted",
                  "type": "bool"
                }
              ],
              "internalType": "struct HemShop.ReviewStruct[]",
              "name": "reviews",
              "type": "tuple[]"
            }
          ],
          "internalType": "struct HemShop.ProductStruct[]",
          "name": "",
          "type": "tuple[]"
        }
      ],
      "stateMutability": "view",
      "type": "function"
    },
    {
      "inputs": [
        {
          "internalType": "uint256",
          "name": "tokenId",
          "type": "uint256"
        }
      ],
      "name": "getApproved",
      "outputs": [
        {
          "internalType": "address",
          "name": "",
          "type": "address"
        }
      ],
      "stateMutability": "view",
      "type": "function"
    },
    {
      "inputs": [
        {
          "internalType": "address",
          "name": "buyer",
          "type": "address"
        }
      ],
      "name": "getBuyerPurchaseHistory",
      "outputs": [
        {
          "components": [
            {
              "internalType": "uint256",
              "name": "productId",
              "type": "uint256"
            },
            {
              "internalType": "uint256",
              "name": "totalAmount",
              "type": "uint256"
            },
            {
              "internalType": "uint256",
              "name": "basePrice",
              "type": "uint256"
            },
            {
              "internalType": "uint256",
              "name": "timestamp",
              "type": "uint256"
            },
            {
              "internalType": "address",
              "name": "buyer",
              "type": "address"
            },
            {
              "internalType": "address",
              "name": "seller",
              "type": "address"
            },
            {
              "internalType": "bool",
              "name": "isDelivered",
              "type": "bool"
            },
            {
              "components": [
                {
                  "internalType": "string",
                  "name": "fullName",
                  "type": "string"
                },
                {
                  "internalType": "string",
                  "name": "streetAddress",
                  "type": "string"
                },
                {
                  "internalType": "string",
                  "name": "city",
                  "type": "string"
                },
                {
                  "internalType": "string",
                  "name": "state",
                  "type": "string"
                },
                {
                  "internalType": "string",
                  "name": "country",
                  "type": "string"
                },
                {
                  "internalType": "string",
                  "name": "postalCode",
                  "type": "string"
                },
                {
                  "internalType": "string",
                  "name": "phone",
                  "type": "string"
                },
                {
                  "internalType": "string",
                  "name": "email",
                  "type": "string"
                }
              ],
              "internalType": "struct HemShop.ShippingDetails",
              "name": "shippingDetails",
              "type": "tuple"
            }
          ],
          "internalType": "struct HemShop.PurchaseHistoryStruct[]",
          "name": "",
          "type": "tuple[]"
        }
      ],
      "stateMutability": "view",
      "type": "function"
    },
    {
      "inputs": [
        {
          "internalType": "uint256",
          "name": "_id",
          "type": "uint256"
        }
      ],
      "name": "getCategory",
      "outputs": [
        {
          "internalType": "uint256",
          "name": "id",
          "type": "uint256"
        },
        {
          "internalType": "string",
          "name": "name",
          "type": "string"
        },
        {
          "internalType": "bool",
          "name": "isActive",
          "type": "bool"
        },
        {
          "internalType": "uint256[]",
          "name": "subCategoryIds",
          "type": "uint256[]"
        }
      ],
      "stateMutability": "view",
      "type": "function"
    },
    {
      "inputs": [],
      "name": "getMyProducts",
      "outputs": [
        {
          "components": [
            {
              "internalType": "uint256",
              "name": "id",
              "type": "uint256"
            },
            {
              "internalType": "address",
              "name": "seller",
              "type": "address"
            },
            {
              "internalType": "string",
              "name": "name",
              "type": "string"
            },
            {
              "internalType": "string",
              "name": "description",
              "type": "string"
            },
            {
              "internalType": "uint256",
              "name": "price",
              "type": "uint256"
            },
            {
              "internalType": "uint256",
              "name": "stock",
              "type": "uint256"
            },
            {
              "internalType": "string[]",
              "name": "colors",
              "type": "string[]"
            },
            {
              "internalType": "string[]",
              "name": "sizes",
              "type": "string[]"
            },
            {
              "internalType": "string[]",
              "name": "images",
              "type": "string[]"
            },
            {
              "internalType": "string",
              "name": "category",
              "type": "string"
            },
            {
              "internalType": "string",
              "name": "subCategory",
              "type": "string"
            },
            {
              "internalType": "uint256",
              "name": "weight",
              "type": "uint256"
            },
            {
              "internalType": "string",
              "name": "model",
              "type": "string"
            },
            {
              "internalType": "string",
              "name": "brand",
              "type": "string"
            },
            {
              "internalType": "uint256",
              "name": "sku",
              "type": "uint256"
            },
            {
              "internalType": "bool",
              "name": "soldout",
              "type": "bool"
            },
            {
              "internalType": "bool",
              "name": "wishlist",
              "type": "bool"
            },
            {
              "internalType": "bool",
              "name": "deleted",
              "type": "bool"
            },
            {
              "components": [
                {
                  "internalType": "uint256",
                  "name": "reviewId",
                  "type": "uint256"
                },
                {
                  "internalType": "address",
                  "name": "reviewer",
                  "type": "address"
                },
                {
                  "internalType": "uint256",
                  "name": "rating",
                  "type": "uint256"
                },
                {
                  "internalType": "string",
                  "name": "comment",
                  "type": "string"
                },
                {
                  "internalType": "bool",
                  "name": "deleted",
                  "type": "bool"
                }
              ],
              "internalType": "struct HemShop.ReviewStruct[]",
              "name": "reviews",
              "type": "tuple[]"
            }
          ],
          "internalType": "struct HemShop.ProductStruct[]",
          "name": "",
          "type": "tuple[]"
        }
      ],
      "stateMutability": "view",
      "type": "function"
    },
    {
      "inputs": [
        {
          "internalType": "uint256",
          "name": "productId",
          "type": "uint256"
        }
      ],
      "name": "getProduct",
      "outputs": [
        {
          "components": [
            {
              "internalType": "uint256",
              "name": "id",
              "type": "uint256"
            },
            {
              "internalType": "address",
              "name": "seller",
              "type": "address"
            },
            {
              "internalType": "string",
              "name": "name",
              "type": "string"
            },
            {
              "internalType": "string",
              "name": "description",
              "type": "string"
            },
            {
              "internalType": "uint256",
              "name": "price",
              "type": "uint256"
            },
            {
              "internalType": "uint256",
              "name": "stock",
              "type": "uint256"
            },
            {
              "internalType": "string[]",
              "name": "colors",
              "type": "string[]"
            },
            {
              "internalType": "string[]",
              "name": "sizes",
              "type": "string[]"
            },
            {
              "internalType": "string[]",
              "name": "images",
              "type": "string[]"
            },
            {
              "internalType": "string",
              "name": "category",
              "type": "string"
            },
            {
              "internalType": "string",
              "name": "subCategory",
              "type": "string"
            },
            {
              "internalType": "uint256",
              "name": "weight",
              "type": "uint256"
            },
            {
              "internalType": "string",
              "name": "model",
              "type": "string"
            },
            {
              "internalType": "string",
              "name": "brand",
              "type": "string"
            },
            {
              "internalType": "uint256",
              "name": "sku",
              "type": "uint256"
            },
            {
              "internalType": "bool",
              "name": "soldout",
              "type": "bool"
            },
            {
              "internalType": "bool",
              "name": "wishlist",
              "type": "bool"
            },
            {
              "internalType": "bool",
              "name": "deleted",
              "type": "bool"
            },
            {
              "components": [
                {
                  "internalType": "uint256",
                  "name": "reviewId",
                  "type": "uint256"
                },
                {
                  "internalType": "address",
                  "name": "reviewer",
                  "type": "address"
                },
                {
                  "internalType": "uint256",
                  "name": "rating",
                  "type": "uint256"
                },
                {
                  "internalType": "string",
                  "name": "comment",
                  "type": "string"
                },
                {
                  "internalType": "bool",
                  "name": "deleted",
                  "type": "bool"
                }
              ],
              "internalType": "struct HemShop.ReviewStruct[]",
              "name": "reviews",
              "type": "tuple[]"
            }
          ],
          "internalType": "struct HemShop.ProductStruct",
          "name": "",
          "type": "tuple"
        }
      ],
      "stateMutability": "view",
      "type": "function"
    },
    {
      "inputs": [
        {
          "internalType": "uint256",
          "name": "productId",
          "type": "uint256"
        }
      ],
      "name": "getReviews",
      "outputs": [
        {
          "components": [
            {
              "internalType": "uint256",
              "name": "reviewId",
              "type": "uint256"
            },
            {
              "internalType": "address",
              "name": "reviewer",
              "type": "address"
            },
            {
              "internalType": "uint256",
              "name": "rating",
              "type": "uint256"
            },
            {
              "internalType": "string",
              "name": "comment",
              "type": "string"
            },
            {
              "internalType": "bool",
              "name": "deleted",
              "type": "bool"
            }
          ],
          "internalType": "struct HemShop.ReviewStruct[]",
          "name": "",
          "type": "tuple[]"
        }
      ],
      "stateMutability": "view",
      "type": "function"
    },
    {
      "inputs": [
        {
          "internalType": "address",
          "name": "seller",
          "type": "address"
        }
      ],
      "name": "getSellerBalance",
      "outputs": [
        {
          "internalType": "uint256",
          "name": "",
          "type": "uint256"
        }
      ],
      "stateMutability": "view",
      "type": "function"
    },
    {
      "inputs": [
        {
          "internalType": "address",
          "name": "seller",
          "type": "address"
        }
      ],
      "name": "getSellerPurchaseHistory",
      "outputs": [
        {
          "components": [
            {
              "internalType": "uint256",
              "name": "productId",
              "type": "uint256"
            },
            {
              "internalType": "uint256",
              "name": "totalAmount",
              "type": "uint256"
            },
            {
              "internalType": "uint256",
              "name": "basePrice",
              "type": "uint256"
            },
            {
              "internalType": "uint256",
              "name": "timestamp",
              "type": "uint256"
            },
            {
              "internalType": "address",
              "name": "buyer",
              "type": "address"
            },
            {
              "internalType": "address",
              "name": "seller",
              "type": "address"
            },
            {
              "internalType": "bool",
              "name": "isDelivered",
              "type": "bool"
            },
            {
              "components": [
                {
                  "internalType": "string",
                  "name": "fullName",
                  "type": "string"
                },
                {
                  "internalType": "string",
                  "name": "streetAddress",
                  "type": "string"
                },
                {
                  "internalType": "string",
                  "name": "city",
                  "type": "string"
                },
                {
                  "internalType": "string",
                  "name": "state",
                  "type": "string"
                },
                {
                  "internalType": "string",
                  "name": "country",
                  "type": "string"
                },
                {
                  "internalType": "string",
                  "name": "postalCode",
                  "type": "string"
                },
                {
                  "internalType": "string",
                  "name": "phone",
                  "type": "string"
                },
                {
                  "internalType": "string",
                  "name": "email",
                  "type": "string"
                }
              ],
              "internalType": "struct HemShop.ShippingDetails",
              "name": "shippingDetails",
              "type": "tuple"
            }
          ],
          "internalType": "struct HemShop.PurchaseHistoryStruct[]",
          "name": "",
          "type": "tuple[]"
        }
      ],
      "stateMutability": "view",
      "type": "function"
    },
    {
      "inputs": [
        {
          "internalType": "uint256",
          "name": "_id",
          "type": "uint256"
        }
      ],
      "name": "getSubCategory",
      "outputs": [
        {
          "internalType": "uint256",
          "name": "id",
          "type": "uint256"
        },
        {
          "internalType": "string",
          "name": "name",
          "type": "string"
        },
        {
          "internalType": "uint256",
          "name": "parentCategoryId",
          "type": "uint256"
        },
        {
          "internalType": "bool",
          "name": "isActive",
          "type": "bool"
        }
      ],
      "stateMutability": "view",
      "type": "function"
    },
    {
      "inputs": [
        {
          "internalType": "address",
          "name": "account",
          "type": "address"
        }
      ],
      "name": "impersonateAccount",
      "outputs": [],
      "stateMutability": "nonpayable",
      "type": "function"
    },
    {
      "inputs": [
        {
          "internalType": "address",
          "name": "owner",
          "type": "address"
        },
        {
          "internalType": "address",
          "name": "operator",
          "type": "address"
        }
      ],
      "name": "isApprovedForAll",
      "outputs": [
        {
          "internalType": "bool",
          "name": "",
          "type": "bool"
        }
      ],
      "stateMutability": "view",
      "type": "function"
    },
    {
      "inputs": [
        {
          "internalType": "uint256",
          "name": "productId",
          "type": "uint256"
        },
        {
          "internalType": "address",
          "name": "buyer",
          "type": "address"
        }
      ],
      "name": "markPurchaseDelivered",
      "outputs": [],
      "stateMutability": "nonpayable",
      "type": "function"
    },
    {
      "inputs": [],
      "name": "name",
      "outputs": [
        {
          "internalType": "string",
          "name": "",
          "type": "string"
        }
      ],
      "stateMutability": "view",
      "type": "function"
    },
    {
      "inputs": [],
      "name": "owner",
      "outputs": [
        {
          "internalType": "address",
          "name": "",
          "type": "address"
        }
      ],
      "stateMutability": "view",
      "type": "function"
    },
    {
      "inputs": [
        {
          "internalType": "uint256",
          "name": "tokenId",
          "type": "uint256"
        }
      ],
      "name": "ownerOf",
      "outputs": [
        {
          "internalType": "address",
          "name": "",
          "type": "address"
        }
      ],
      "stateMutability": "view",
      "type": "function"
    },
    {
      "inputs": [
        {
          "internalType": "uint256",
          "name": "",
          "type": "uint256"
        }
      ],
      "name": "productExists",
      "outputs": [
        {
          "internalType": "bool",
          "name": "",
          "type": "bool"
        }
      ],
      "stateMutability": "view",
      "type": "function"
    },
    {
      "inputs": [
        {
          "internalType": "uint256",
          "name": "",
          "type": "uint256"
        }
      ],
      "name": "products",
      "outputs": [
        {
          "internalType": "uint256",
          "name": "id",
          "type": "uint256"
        },
        {
          "internalType": "address",
          "name": "seller",
          "type": "address"
        },
        {
          "internalType": "string",
          "name": "name",
          "type": "string"
        },
        {
          "internalType": "string",
          "name": "description",
          "type": "string"
        },
        {
          "internalType": "uint256",
          "name": "price",
          "type": "uint256"
        },
        {
          "internalType": "uint256",
          "name": "stock",
          "type": "uint256"
        },
        {
          "internalType": "string",
          "name": "category",
          "type": "string"
        },
        {
          "internalType": "string",
          "name": "subCategory",
          "type": "string"
        },
        {
          "internalType": "uint256",
          "name": "weight",
          "type": "uint256"
        },
        {
          "internalType": "string",
          "name": "model",
          "type": "string"
        },
        {
          "internalType": "string",
          "name": "brand",
          "type": "string"
        },
        {
          "internalType": "uint256",
          "name": "sku",
          "type": "uint256"
        },
        {
          "internalType": "bool",
          "name": "soldout",
          "type": "bool"
        },
        {
          "internalType": "bool",
          "name": "wishlist",
          "type": "bool"
        },
        {
          "internalType": "bool",
          "name": "deleted",
          "type": "bool"
        }
      ],
      "stateMutability": "view",
      "type": "function"
    },
    {
      "inputs": [],
      "name": "registerSeller",
      "outputs": [],
      "stateMutability": "nonpayable",
      "type": "function"
    },
    {
      "inputs": [
        {
          "internalType": "address",
          "name": "",
          "type": "address"
        }
      ],
      "name": "registeredSellers",
      "outputs": [
        {
          "internalType": "bool",
          "name": "",
          "type": "bool"
        }
      ],
      "stateMutability": "view",
      "type": "function"
    },
    {
      "inputs": [],
      "name": "renounceOwnership",
      "outputs": [],
      "stateMutability": "nonpayable",
      "type": "function"
    },
    {
      "inputs": [
        {
          "internalType": "uint256",
          "name": "",
          "type": "uint256"
        }
      ],
      "name": "reviewExists",
      "outputs": [
        {
          "internalType": "bool",
          "name": "",
          "type": "bool"
        }
      ],
      "stateMutability": "view",
      "type": "function"
    },
    {
      "inputs": [
        {
          "internalType": "address",
          "name": "from",
          "type": "address"
        },
        {
          "internalType": "address",
          "name": "to",
          "type": "address"
        },
        {
          "internalType": "uint256",
          "name": "tokenId",
          "type": "uint256"
        }
      ],
      "name": "safeTransferFrom",
      "outputs": [],
      "stateMutability": "nonpayable",
      "type": "function"
    },
    {
      "inputs": [
        {
          "internalType": "address",
          "name": "from",
          "type": "address"
        },
        {
          "internalType": "address",
          "name": "to",
          "type": "address"
        },
        {
          "internalType": "uint256",
          "name": "tokenId",
          "type": "uint256"
        },
        {
          "internalType": "bytes",
          "name": "data",
          "type": "bytes"
        }
      ],
      "name": "safeTransferFrom",
      "outputs": [],
      "stateMutability": "nonpayable",
      "type": "function"
    },
    {
      "inputs": [
        {
          "internalType": "address",
          "name": "",
          "type": "address"
        }
      ],
      "name": "sellerBalances",
      "outputs": [
        {
          "internalType": "uint256",
          "name": "",
          "type": "uint256"
        }
      ],
      "stateMutability": "view",
      "type": "function"
    },
    {
      "inputs": [
        {
          "internalType": "address",
          "name": "",
          "type": "address"
        },
        {
          "internalType": "uint256",
          "name": "",
          "type": "uint256"
        }
      ],
      "name": "sellerProducts",
      "outputs": [
        {
          "internalType": "uint256",
          "name": "",
          "type": "uint256"
        }
      ],
      "stateMutability": "view",
      "type": "function"
    },
    {
      "inputs": [
        {
          "internalType": "address",
          "name": "",
          "type": "address"
        },
        {
          "internalType": "uint256",
          "name": "",
          "type": "uint256"
        }
      ],
      "name": "sellerPurchaseHistory",
      "outputs": [
        {
          "internalType": "uint256",
          "name": "productId",
          "type": "uint256"
        },
        {
          "internalType": "uint256",
          "name": "totalAmount",
          "type": "uint256"
        },
        {
          "internalType": "uint256",
          "name": "basePrice",
          "type": "uint256"
        },
        {
          "internalType": "uint256",
          "name": "timestamp",
          "type": "uint256"
        },
        {
          "internalType": "address",
          "name": "buyer",
          "type": "address"
        },
        {
          "internalType": "address",
          "name": "seller",
          "type": "address"
        },
        {
          "internalType": "bool",
          "name": "isDelivered",
          "type": "bool"
        },
        {
          "components": [
            {
              "internalType": "string",
              "name": "fullName",
              "type": "string"
            },
            {
              "internalType": "string",
              "name": "streetAddress",
              "type": "string"
            },
            {
              "internalType": "string",
              "name": "city",
              "type": "string"
            },
            {
              "internalType": "string",
              "name": "state",
              "type": "string"
            },
            {
              "internalType": "string",
              "name": "country",
              "type": "string"
            },
            {
              "internalType": "string",
              "name": "postalCode",
              "type": "string"
            },
            {
              "internalType": "string",
              "name": "phone",
              "type": "string"
            },
            {
              "internalType": "string",
              "name": "email",
              "type": "string"
            }
          ],
          "internalType": "struct HemShop.ShippingDetails",
          "name": "shippingDetails",
          "type": "tuple"
        }
      ],
      "stateMutability": "view",
      "type": "function"
    },
    {
      "inputs": [
        {
          "internalType": "address",
          "name": "",
          "type": "address"
        }
      ],
      "name": "sellerStatus",
      "outputs": [
        {
          "internalType": "enum HemShop.SellerStatus",
          "name": "",
          "type": "uint8"
        }
      ],
      "stateMutability": "view",
      "type": "function"
    },
    {
      "inputs": [],
      "name": "servicePct",
      "outputs": [
        {
          "internalType": "uint256",
          "name": "",
          "type": "uint256"
        }
      ],
      "stateMutability": "view",
      "type": "function"
    },
    {
      "inputs": [
        {
          "internalType": "address",
          "name": "operator",
          "type": "address"
        },
        {
          "internalType": "bool",
          "name": "approved",
          "type": "bool"
        }
      ],
      "name": "setApprovalForAll",
      "outputs": [],
      "stateMutability": "nonpayable",
      "type": "function"
    },
    {
      "inputs": [],
      "name": "stopImpersonating",
      "outputs": [],
      "stateMutability": "nonpayable",
      "type": "function"
    },
    {
      "inputs": [
        {
          "internalType": "bytes4",
          "name": "interfaceId",
          "type": "bytes4"
        }
      ],
      "name": "supportsInterface",
      "outputs": [
        {
          "internalType": "bool",
          "name": "",
          "type": "bool"
        }
      ],
      "stateMutability": "view",
      "type": "function"
    },
    {
      "inputs": [],
      "name": "symbol",
      "outputs": [
        {
          "internalType": "string",
          "name": "",
          "type": "string"
        }
      ],
      "stateMutability": "view",
      "type": "function"
    },
    {
      "inputs": [
        {
          "internalType": "uint256",
          "name": "tokenId",
          "type": "uint256"
        }
      ],
      "name": "tokenURI",
      "outputs": [
        {
          "internalType": "string",
          "name": "",
          "type": "string"
        }
      ],
      "stateMutability": "view",
      "type": "function"
    },
    {
      "inputs": [
        {
          "internalType": "address",
          "name": "from",
          "type": "address"
        },
        {
          "internalType": "address",
          "name": "to",
          "type": "address"
        },
        {
          "internalType": "uint256",
          "name": "tokenId",
          "type": "uint256"
        }
      ],
      "name": "transferFrom",
      "outputs": [],
      "stateMutability": "nonpayable",
      "type": "function"
    },
    {
      "inputs": [
        {
          "internalType": "address",
          "name": "newOwner",
          "type": "address"
        }
      ],
      "name": "transferOwnership",
      "outputs": [],
      "stateMutability": "nonpayable",
      "type": "function"
    },
    {
      "inputs": [
        {
          "internalType": "uint256",
          "name": "_id",
          "type": "uint256"
        },
        {
          "internalType": "string",
          "name": "_name",
          "type": "string"
        },
        {
          "internalType": "bool",
          "name": "_isActive",
          "type": "bool"
        }
      ],
      "name": "updateCategory",
      "outputs": [],
      "stateMutability": "nonpayable",
      "type": "function"
    },
    {
      "inputs": [
        {
          "internalType": "uint256",
          "name": "productId",
          "type": "uint256"
        },
        {
          "components": [
            {
              "internalType": "string",
              "name": "name",
              "type": "string"
            },
            {
              "internalType": "string",
              "name": "description",
              "type": "string"
            },
            {
              "internalType": "uint256",
              "name": "price",
              "type": "uint256"
            },
            {
              "internalType": "uint256",
              "name": "stock",
              "type": "uint256"
            },
            {
              "internalType": "string[]",
              "name": "colors",
              "type": "string[]"
            },
            {
              "internalType": "string[]",
              "name": "sizes",
              "type": "string[]"
            },
            {
              "internalType": "string[]",
              "name": "images",
              "type": "string[]"
            },
            {
              "internalType": "uint256",
              "name": "categoryId",
              "type": "uint256"
            },
            {
              "internalType": "uint256",
              "name": "subCategoryId",
              "type": "uint256"
            },
            {
              "internalType": "string",
              "name": "model",
              "type": "string"
            },
            {
              "internalType": "string",
              "name": "brand",
              "type": "string"
            },
            {
              "internalType": "uint256",
              "name": "weight",
              "type": "uint256"
            },
            {
              "internalType": "uint256",
              "name": "sku",
              "type": "uint256"
            }
          ],
          "internalType": "struct HemShop.ProductInput",
          "name": "input",
          "type": "tuple"
        }
      ],
      "name": "updateProduct",
      "outputs": [],
      "stateMutability": "nonpayable",
      "type": "function"
    },
    {
      "inputs": [
        {
          "internalType": "address",
          "name": "seller",
          "type": "address"
        },
        {
          "internalType": "enum HemShop.SellerStatus",
          "name": "status",
          "type": "uint8"
        }
      ],
      "name": "updateSellerStatus",
      "outputs": [],
      "stateMutability": "nonpayable",
      "type": "function"
    },
    {
      "inputs": [
        {
          "internalType": "uint256",
          "name": "_id",
          "type": "uint256"
        },
        {
          "internalType": "string",
          "name": "_name",
          "type": "string"
        },
        {
          "internalType": "bool",
          "name": "_isActive",
          "type": "bool"
        }
      ],
      "name": "updateSubCategory",
      "outputs": [],
      "stateMutability": "nonpayable",
      "type": "function"
    },
    {
      "inputs": [],
      "name": "withdraw",
      "outputs": [],
      "stateMutability": "nonpayable",
      "type": "function"
    }
  ],
  "bytecode": "0x6080346200037757601f90601f196001600160401b0362007bc03881900385810184168501838111868210176200037c57859282916040528339602094859181010312620003775751936200005362000392565b926007845266048656d53686f760cc1b858501526200007162000392565b60038082526204873760ec1b8783015260008054336001600160a01b031982168117835592989394919392906001600160a01b03167f8be0079c531659141344cd1fd0a4f28419497f9722a3daafe3b4186f6b6457e08580a360019687805580519087821162000363576002548981811c9116801562000358575b858210146200034457908188849311620002f0575b5084908883116001146200028e57869262000282575b5050600019828b1b1c191690881b176002555b83519586116200026e5787548781811c9116801562000263575b838210146200024f5785811162000207575b5081948611600114620001a25750509183949184939462000196575b50501b9160001990841b1c19161790555b600b5560405161780d9081620003b38239f35b01519250388062000172565b8783528183209493928692918316915b88838310620001ec5750505010620001d3575b505050811b01905562000183565b015160001983861b60f8161c19169055388080620001c5565b858701518855909601959485019487935090810190620001b2565b8884528284208680890160051c820192858a1062000245575b0160051c019088905b8281106200023957505062000156565b85815501889062000229565b9250819262000220565b634e487b7160e01b84526022600452602484fd5b90607f169062000144565b634e487b7160e01b83526041600452602483fd5b01519050388062000117565b90848b9416916002885286882092885b88828210620002d95750508411620002c0575b505050811b016002556200012a565b0151600019838d1b60f8161c19169055388080620002b1565b8385015186558e979095019493840193016200029e565b909150600286528486208880850160051c8201928786106200033a575b918c91869594930160051c01915b8281106200032b57505062000101565b8881558594508c91016200031b565b925081926200030d565b634e487b7160e01b86526022600452602486fd5b90607f1690620000ec565b634e487b7160e01b85526041600452602485fd5b600080fd5b634e487b7160e01b600052604160045260246000fd5b60408051919082016001600160401b038111838210176200037c5760405256fe608080604052600436101561001357600080fd5b60003560e01c908162d64e76146137d45750806301ffc9a71461376657806302ee3a521461351c57806306fdde0314613477578063081812fc14613459578063095ea7b3146132df57806311aa5b34146132bb5780631385fd921461326757806316d81b38146130755780631700ea2c146130355780632148893f146129e657806323b872dd1461300c57806324d41a0314612def578063317a082714612ca85780633c2575d514612bc35780633ccfd60b14612baa57806342842e0e14612b8257806345de84db14612b4057806352c9224c14612a835780635be2095914612a20578063607eb4e4146129e65780636352211e146129b6578063661e17121461216957806366224d8e1461200d5780636f2c859914611f6a57806370a0823114611ed3578063715018a614611e8c5780637acc0b2014611d325780637d3978db14611b145780638da5cb5b14611aeb57806395d89b4114611a0957806397b6f393146118125780639d4a2255146116835780639fa44dbf1461163b578063a0fa719c146115fe578063a22cb46514611533578063a22fb38714611488578063af55ed6414611457578063b27e169714611372578063b88d4fde14611313578063b95a0628146112d8578063b9db15b4146110ee578063c1302b3414611096578063c64b8a8f14611057578063c87b56dd14610ffd578063d2bc9d7814610d50578063dadd0a5714610a0f578063dc298682146107d8578063e01ef6e6146107ba578063e585cb2c1461072a578063e985e9c5146106d4578063ed90c7b7146106b6578063f2fde38b14610607578063f3052d261461051a5763fdca4ca31461027b57600080fd5b346105155760003660031901126105155760088054600060015b828111156104af57506102a790616aa9565b9060009260015b828111156102c857604051806102c48682613a84565b0390f35b600081815260106020818152604090922060018101546001600160a01b031692913384148061049e575b610309575b505050506103049061685b565b6102ae565b6040989498519361031985613b12565b825485528385015261032d60028301613e68565b604085015261033e60038301613e68565b6060850152600482015460808501526005918281015460a086015261036560068201616a54565b60c086015261037660078201616a54565b60e0860152610386878201616a54565b61010086015261039860098201613e68565b6101208601526103aa600a8201613e68565b610140860152600b8101546101608601526103c7600c8201613e68565b6101808601526103d9600d8201613e68565b6101a0860152600e8101546101c0860152600f81015460ff9081811615156101e088015281818a1c161515610200880152831c161515610220860152019081549161042383614b49565b936104316040519586613b9b565b8385526000918252808220918186015b8582106104825750505050505091816103049361024061047894015261046782886169a9565b5261047281876169a9565b5061685b565b94903880806102f7565b848360019261049087616a04565b815201940191019092610441565b5060ff600f830154821c16156102f2565b600081815260106020819052604090912060018101546001600160a01b03163314919082610502575b50506104ed575b6104e89061685b565b610295565b906104fa6104e89161685b565b9190506104df565b60ff9250600f0154901c161538806104d8565b600080fd5b346105155760208060031936011261051557600435600052600c815260406000206040519061054882613b4a565b8054825260019061055a828201613e68565b92848101938452600360ff60028401541692604083019315158452016040518094878354928381520192600052876000209160005b898282106105f457896102c48a8a6105e18b6105ad848d0385613b9b565b606081019384526105c0815115156168d0565b51945191511515925191608060405197889788528701526080860190613801565b9160408501528382036060850152614034565b845486529094019392820192820161058f565b3461051557602036600319011261051557610620613ae6565b610628614068565b6001600160a01b03908116908115610662576000548260018060a01b031982161760005516600080516020617781833981519152600080a3005b60405162461bcd60e51b815260206004820152602660248201527f4f776e61626c653a206e6577206f776e657220697320746865207a65726f206160448201526564647265737360d01b6064820152608490fd5b34610515576020366003190112610515576106d2600435616665565b005b34610515576040366003190112610515576106ed613ae6565b6106f5613afc565b9060018060a01b03809116600052600760205260406000209116600052602052602060ff604060002054166040519015158152f35b3461051557604036600319011261051557610743613ae6565b6001600160a01b0390811660009081526015602052604090208054602435908110156105155761077291613f0e565b50906102c48254600184015493600281015491600382015485600484015416906107a3600660058601549501613f40565b9460405198899860ff8760a01c1696169489613fd2565b34610515576000366003190112610515576020600b54604051908152f35b3461051557602080600319360112610515576001600160401b036004358181116105155761080a903690600401613c10565b90610813614068565b61081f8251151561680f565b61082a600e5461685b565b9081600e5560405161083b81613b80565b6000815260405161084b81613b4a565b838152858101858152604082019060019586835260608401948552600052600c8852604060002092518355858301905180519086821161097d57610899826108938554613e2e565b85614be6565b8990601f831160011461099e5791806108d894926003979694600092610993575b505060001982881b1c191690891b1790555b51151560028301614412565b019051805192831161097d57600160401b831161097d5785908254848455808510610960575b5001906000528460002060005b83811061094f57600e546040518881527f11c167cc9b439f0ad8bec5588159f1b06b813bc38d50c867a41b23b077be2c1a908061094a818c018b613801565b0390a2005b82518282015591860191840161090b565b610977908460005285846000209182019101614bcf565b876108fe565b634e487b7160e01b600052604160045260246000fd5b015190508c806108ba565b889291601f19831691856000528c600020928d6000905b8282106109f85750509160039897959391856108d8989694106109e0575b505050811b0190556108cc565b0151600019838a1b60f8161c191690558c80806109d3565b8385015186558d979095019493840193018e6109b5565b3461051557600036600319011261051557600e54610a2c81614b49565b90610a3a6040519283613b9b565b808252601f19610a4982614b49565b01366020840137610a5981614b49565b610a666040519182613b9b565b818152610a82601f19610a7884614b49565b016020830161697f565b610a8b82614b49565b90610a996040519283613b9b565b828252610aa583614b49565b602083019290601f1901368437610abb84614b49565b93610ac96040519586613b9b565b808552610ae5601f19610adb83614b49565b016020870161697f565b60015b81811115610c0e57610b0c8787878787604051958695608087526080870190614034565b8581036020870152825180825260208201916020808360051b8301019501926000915b838310610bd75750505050506020908583036040870152519182815201919060005b818110610bbc575050508281036060840152815180825260208201916020808360051b8301019401926000915b838310610b8b5786860387f35b919395509193602080610baa600193601f198682030187528951614034565b97019301930190928695949293610b7e565b82511515845286955060209384019390920191600101610b51565b919396979850919394602080610bf9600193601f198682030187528a51613801565b98019301930190928998979695949293610b2f565b80600052600c602052604060002090600360405192610c2c84613b4a565b80548452610c3c60018201613e68565b602085015260ff6002820154161515604085015201604051808260208294549384815201906000526020600020926000905b808210610d34575050610c8392500382613b9b565b60608301528151610c9e575b610c99915061685b565b610ae8565b80600019810111610d1e57606082610c999351610cbf60001985018c6169a9565b526020810151610cd36000198501896169a9565b52610ce26000198401886169a9565b5060408101511515610cf86000198501886169a9565b520151610d096000198301896169a9565b52610d186000198201886169a9565b50610c8f565b634e487b7160e01b600052601160045260246000fd5b9160019193506020829186548152019401920184929391610c6e565b34610515576040366003190112610515576024356001600160401b0381116105155736602382011215610515576001600160401b0360048201351161051557366024826004013560051b8301011161051557600435600052600c60205260ff6002604060002001541615610fbb5760005b81600401358110610dce57005b610dd9600f5461685b565b80600f55610e0b610df2838560040135602487016168b5565b919060405192610e0184613b4a565b8484523691613bd9565b9160208201928352600435604083015260016060830152600052600d602052604060002091815183555180519060018060401b03821161097d57610e5f82610e566001870154613e2e565b60018701614be6565b602090601f8311600114610f3d57610ed19383610f2d979694610eb794606094600092610f32575b50508160011b916000199060031b1c19161760018501555b60408101516002850155015115156003809301614412565b600435600052600c602052604060002001600f5490614de7565b6000805160206177c1833981519152600f54610ef5838660040135602488016168b5565b9290836040519160208352816020840152604083013760006040858301015260408160043595601f80199101168101030190a361685b565b610dc1565b015190508a80610e87565b906001850160005260206000209160005b601f1985168110610fa3575093600184610eb794606094610ed198610f2d9b9a98601f19811610610f8a575b505050811b016001850155610e9f565b015160001960f88460031b161c191690558a8080610f7a565b91926020600181928685015181550194019201610f4e565b60405162461bcd60e51b815260206004820152601a602482015279506172656e742063617465676f7279206e6f742061637469766560301b6044820152606490fd5b346105155760203660031901126105155761102161101c600435614423565b6140c0565b600060405161102f81613b80565b526102c460405161103f81613b80565b60008152604051918291602083526020830190613801565b34610515576020366003190112610515576001600160a01b03611078613ae6565b166000526016602052602060ff604060002054166040519015158152f35b34610515576040366003190112610515576110af613ae6565b6001600160a01b0316600090815260116020526040902080546024359190821015610515576020916110e09161401c565b90546040519160031b1c8152f35b34610515576020806003193601126105155760043561110b614abd565b50806000526010825261112c60ff600f6040600020015460101c1615615c46565b806000526017825261114560ff60406000205416615c01565b600052601081526040600020906040519161115f83613b12565b805483526001808201546001600160a01b03168385015261118260028301613e68565b604085015261119360038301613e68565b60608501526004820154608085015260106005928381015460a08701526111bc60068201616a54565b60c08701526111cd60078201616a54565b60e08701526111de60088201616a54565b6101008701526111f060098201613e68565b610120870152611202600a8201613e68565b610140870152600b81015461016087015261121f600c8201613e68565b610180870152611231600d8201613e68565b6101a0870152600e8101546101c087015260ff600f82015481811615156101e0890152818160081c161515610200890152831c161515610220870152019182549061127b82614b49565b936112896040519586613b9b565b8285526000908152858120868087015b8584106112bb576102408a01889052604051828152806102c48185018d613934565b869185916112c885616a04565b8152019201920191908790611299565b346105155760203660031901126105155760206001600160a01b03806112fc613ae6565b166000526019825260406000205416604051908152f35b346105155760803660031901126105155761132c613ae6565b611334613afc565b606435916001600160401b0383116105155736602384011215610515576113686106d2933690602481600401359101613bd9565b91604435916141b3565b3461051557602080600319360112610515576001600160a01b039081611396613ae6565b166000526014815260406000208054906113af82614b49565b926113bd6040519485613b9b565b82845260009182528082208185015b8484106113e157604051806102c48882613d47565b600e836001926040516113f381613b2e565b85548152848601548382015260028601546040820152600386015460608201528a600487015416608082015260ff600587015460a08d8216818501521c16151560c082015261144460068701613f40565b60e08201528152019201930192906113cc565b34610515576020366003190112610515576004356000526017602052602060ff604060002054166040519015158152f35b34610515576020366003190112610515576114a1613ae6565b6114a9614068565b6001600160a01b031680156114f457604060008051602061772183398151915291336000526019602052816000208160018060a01b03198254161790558151903382526020820152a1005b60405162461bcd60e51b8152602060048201526017602482015276496e76616c6964206163636f756e74206164647265737360481b6044820152606490fd5b346105155760403660031901126105155761154c613ae6565b6024359081151590818303610515576001600160a01b0316913383146115bd5761158f903360005260076020526040600020846000526020526040600020614412565b6040519081527f17307eab39ab6107e8899845ad3d59bd9653f200f220920489ca2b5937696c3160203392a3005b60405162461bcd60e51b815260206004820152601960248201527822a9219b99189d1030b8383937bb32903a379031b0b63632b960391b6044820152606490fd5b346105155760031960203682011261051557600435906001600160401b038211610515576101a0908236030112610515576106d2906004016145c9565b3461051557604036600319011261051557611654613ae6565b6001600160a01b0390811660009081526014602052604090208054602435908110156105155761077291613f0e565b3461051557602080600319360112610515576004358060005260109182815260ff6116ba81600f60406000200154861c1615615c46565b82600052601782526116d28160406000205416615c01565b60009160005b846000528582528560406000200180548210156117295760046116fc8386936169e8565b5001541615611714575b61170f9061685b565b6116d8565b9261172161170f9161685b565b939050611706565b5050838561173685614b49565b946117446040519687613b9b565b808652611753601f1991614b49565b018360005b8281106117fc5750505060009160005b816000528285528260406000200180548210156117e957600461178c8389936169e8565b50015416156117a4575b61179f9061685b565b611768565b926117e161179f91836000528487526117cc6117c687876040600020016169e8565b50616a04565b6117d6828b6169a9565b52610472818a6169a9565b939050611796565b604051868152806102c48189018b61389d565b6118046169bd565b82828a010152018490611758565b346105155760403660031901126105155761182b613ae6565b602490813590600482101561051557611842614068565b6001600160a01b03169182156119cc57826000526020906016825260ff604060002054161561199157836000526013825260ff60406000205416600481101561194457831461195957600283146118e0575b507fd8f7bcb2c5cffc294a0aaef719685993d7be95273fb8254803a1563510ccefed91601361094a928560005252604060002060ff1981541660ff831617905560405191829182613e05565b836000526013825260ff604060002054166004811015611944576001146118945790601f6064926040519262461bcd60e51b845260048401528201527f43616e206f6e6c79207665726966792070656e64696e672073656c6c657273006044820152fd5b50634e487b7160e01b60009081526021600452fd5b9060126064926040519262461bcd60e51b845260048401528201527114dd185d1d5cc8185b1c9958591e481cd95d60721b6044820152fd5b9060156064926040519262461bcd60e51b845260048401528201527414d95b1b195c881b9bdd081c9959da5cdd195c9959605a1b6044820152fd5b60649060166040519162461bcd60e51b83526020600484015282015275496e76616c69642073656c6c6572206164647265737360501b6044820152fd5b3461051557600036600319011261051557604051600090600354611a2c81613e2e565b808352600191808316908115611ac35750600114611a69575b6102c483611a5581870382613b9b565b604051918291602083526020830190613801565b6003600090815260209450917fc2575a0e9e593c00f959f8c92f12db2869c3395a3b0502d05e2516446f71f85b5b828410611ab057505050810190910190611a5581611a45565b8054858501870152928501928101611a97565b6102c49550611a5593506020915091849260ff191682840152151560051b8201019350611a45565b34610515576000366003190112610515576000546040516001600160a01b039091168152602090f35b34610515576040366003190112610515576001600160401b0360043560243582811161051557611b48903690600401613c10565b611b50614068565b81600052602090600c825260406000205415611ced57611b728151151561686a565b611b7d600f5461685b565b80600f5560405190611b8e82613b4a565b80825283820183815260408301908682526060840192600190818552600052600d875260406000209451855580850191518051998a1161097d57611bd68a6108938554613e2e565b8790601f8b11600114611c705799808060039694611c2c999896946000805160206177c18339815191529c9d9e600094611c65575b50501b9160001990871b1c19161790555b5160028401555115159101614412565b83600052600c8352611c486003604060002001600f5490614de7565b600f5492611c60604051928284938452830190613801565b0390a3005b015192508e80611c0b565b9990601f1982169a84600052896000209b60005b818110611cd857509b60039694928492611c2c9a9997956000805160206177c18339815191529d9e9f10611cc0575b505050811b019055611c1c565b015160001983891b60f8161c191690558c8080611cb3565b838301518e559c85019c928b01928b01611c84565b60405162461bcd60e51b815260048101839052601e60248201527f506172656e742063617465676f727920646f6573206e6f7420657869737400006044820152606490fd5b34610515576020366003190112610515576004356000908152601060205260409020805460018201546001600160a01b031691611d7160028201613e68565b611d7d60038301613e68565b6004830154600584015490611d9460098601613e68565b611da0600a8701613e68565b90600b87015492600c8801611db490613e68565b94611dc1600d8a01613e68565b96600e8a015499600f0154986040519c8d9c8d5260208d01528b6101e06040819201528c01611def91613801565b8b810360608d0152611e0091613801565b9160808b015260a08a015288810360c08a0152611e1c91613801565b87810360e0890152611e2d91613801565b90610100870152858103610120870152611e4691613801565b848103610140860152611e5891613801565b9161016084015260ff811615156101808401528060081c60ff1615156101a084015260101c60ff1615156101c08301520390f35b3461051557600036600319011261051557611ea5614068565b600080546001600160a01b0319811682556001600160a01b03166000805160206177818339815191528280a3005b34610515576020366003190112610515576001600160a01b03611ef4613ae6565b168015611f135760005260056020526020604060002054604051908152f35b60405162461bcd60e51b815260206004820152602960248201527f4552433732313a2061646472657373207a65726f206973206e6f7420612076616044820152683634b21037bbb732b960b91b6064820152608490fd5b3461051557602036600319011261051557600435600052600d6020526040600020604051611f9781613b4a565b81548152611fa760018301613e68565b906020810191825260ff60036002850154946040840195865201541690606081019115158252611fd981511515616936565b519151925190511515611ffe6040519485948552608060208601526080850190613801565b91604084015260608301520390f35b346105155761201b36613c60565b612026929192614068565b81600052602092600c845261204160406000205415156168d0565b61204d8151151561680f565b6000838152600c855260409020815194906001908101906001600160401b03871161097d57612086876120808454613e2e565b84614be6565b82601f88116001146120f457968080600c959493600080516020617761833981519152999a6000936120e9575b501b916000199060031b1c19161790555b85600052526120da826002604060002001614412565b61094a60405192839283616916565b88015192508b6120b3565b96601f1981169783600052846000209860005b8181106121545750988291600c969594936000805160206177618339815191529a9b1061213b575b5050811b0190556120c4565b87015160001960f88460031b161c19169055898061212f565b878301518b5599840199918601918601612107565b600319604036820112610515576024906001600160401b0382351161051557610100908235360301126105155760026001541461297257600260015560043560005260176020526121c160ff60406000205416615c01565b60043560005260106020526121e460ff600f6040600020015460101c1615615c46565b600435600052601060205260018060a01b0360016040600020015416600052601360205260ff60406000205416600481101561194457600203612935576004356000526010602052600560406000200154156128f757600435600052601060205260ff600f60406000200154166128b657600435600052601060205260018060a01b036001604060002001541633146128745761228560048235018061466b565b90501561283b5761229d81803501823560040161466b565b9050156127fd576122b66044823501823560040161466b565b9050156127c9576122cf6064823501823560040161466b565b905015612794576122e86084823501823560040161466b565b90501561275d5761230160a4823501823560040161466b565b9050156127225761231a60c4823501823560040161466b565b9050156126ed5761233360e4823501823560040161466b565b9050156126b85760043560005260106020526004604060002001549081341061267f57600435600052601060205260056040600020018054801561266a5760001901905560043560005260106020526040600020600581015415612656575b600101546040516001600160a01b0390911691906123af81613b2e565b6004823501356001600160401b038111610515576123d4906004369185350101613c10565b81526001600160401b03823583013511610515576123fb3683358085013501600401613c10565b60208201528135604401356001600160401b03811161051557612425906004369185350101613c10565b60408201528135606401356001600160401b0381116105155761244f906004369185350101613c10565b60608201528135608401356001600160401b03811161051557612479906004369185350101613c10565b6080820152813560a401356001600160401b038111610515576124a3906004369185350101613c10565b60a0820152813560c401356001600160401b038111610515576124cd906004369185350101613c10565b60c0820152813560e40135906001600160401b038211610515576124fb612566926004369186350101613c10565b60e08201526040519061250d82613b2e565b60043582528560208301528560408301524260608301523360808301528460a0830152600060c083015260e0820152336000526014602052612553816040600020616af9565b8360005260156020526040600020616af9565b816000526012602052604060002080549184830180931161264257505560405182815282602082015242604082015233907f45280c7ac9cec77edd454e39e1641a3e22619146cf074a4239beee86a7c07edc606060043592a46001600954016009556125d2813461699c565b80612632575b50600435600052601060205260018060a01b03600160406000200154169060405190815242602082015233907fbe6177108f4df43c5d7be79cb219c969fc97915bbdb4b56d14d391dcdcc16060604060043592a460018055005b61263c903361733f565b816125d8565b634e487b7160e01b60009081526011600452fd5b600f8101805460ff19166001179055612392565b82634e487b7160e01b60005260116004526000fd5b60649060126040519162461bcd60e51b83526020600484015282015271496e73756666696369656e742066756e647360701b6044820152fd5b606490600e6040519162461bcd60e51b8352602060048401528201526d115b585a5b081c995c5d5a5c995960921b6044820152fd5b606490600e6040519162461bcd60e51b8352602060048401528201526d141a1bdb99481c995c5d5a5c995960921b6044820152fd5b60649060146040519162461bcd60e51b83526020600484015282015273141bdcdd185b0818dbd919481c995c5d5a5c995960621b6044820152fd5b60649060106040519162461bcd60e51b8352602060048401528201526f10dbdd5b9d1c9e481c995c5d5a5c995960821b6044820152fd5b606490600e6040519162461bcd60e51b8352602060048401528201526d14dd185d19481c995c5d5a5c995960921b6044820152fd5b606490600d6040519162461bcd60e51b8352602060048401528201526c10da5d1e481c995c5d5a5c9959609a1b6044820152fd5b60649060176040519162461bcd60e51b8352602060048401528201527614dd1c99595d081859191c995cdcc81c995c5d5a5c9959604a1b6044820152fd5b60649060126040519162461bcd60e51b83526020600484015282015271119d5b1b081b985b59481c995c5d5a5c995960721b6044820152fd5b606490601b6040519162461bcd60e51b8352602060048401528201527a10d85b9b9bdd08189d5e481e5bdd5c881bdddb881c1c9bd91d58dd602a1b6044820152fd5b606490601a6040519162461bcd60e51b83526020600484015282015279141c9bd91d58dd081a5cc8185b1c9958591e481cdbdb191bdd5d60321b6044820152fd5b60649060176040519162461bcd60e51b8352602060048401528201527650726f64756374206973206f7574206f662073746f636b60481b6044820152fd5b60649060166040519162461bcd60e51b8352602060048401528201527514d95b1b195c881a5cc81b9bdd081d995c9a599a595960521b6044820152fd5b606490601f6040519162461bcd60e51b8352602060048401528201527f5265656e7472616e637947756172643a207265656e7472616e742063616c6c006044820152fd5b346105155760203660031901126105155760206129d4600435614107565b6040516001600160a01b039091168152f35b34610515576020366003190112610515576001600160a01b03612a07613ae6565b1660005260126020526020604060002054604051908152f35b3461051557602036600319011261051557600435612a3c614068565b60648111612a4957600b55005b60405162461bcd60e51b8152602060048201526012602482015271496e76616c69642070657263656e7461676560701b6044820152606490fd5b346105155760003660031901126105155733600052601660205260ff60406000205416612b0657336000526016602052604060002060ff1990600182825416179055601360205260016040600020918254161790556040514281527fa1a1a78ff3033d5ee8393372052aeb2a16bbb347a29f3780370e9506c109e37260203392a2005b60405162461bcd60e51b8152602060048201526012602482015271105b1c9958591e481c9959da5cdd195c995960721b6044820152606490fd5b34610515576020366003190112610515576001600160a01b03612b61613ae6565b1660005260136020526102c460ff6040600020541660405191829182613e05565b34610515576106d2612b9336613c2b565b9060405192612ba184613b80565b600084526141b3565b34610515576000366003190112610515576106d26171d5565b3461051557602080600319360112610515576001600160a01b039081612be7613ae6565b16600052601581526040600020805490612c0082614b49565b92612c0e6040519485613b9b565b82845260009182528082208185015b848410612c3257604051806102c48882613d47565b600e83600192604051612c4481613b2e565b85548152848601548382015260028601546040820152600386015460608201528a600487015416608082015260ff600587015460a08d8216818501521c16151560c0820152612c9560068701613f40565b60e0820152815201920193019290612c1d565b3461051557612cb636613c60565b612cc1929192614068565b81600052602092600d8452612cdc6040600020541515616936565b612ce88151151561686a565b6000838152600d855260409020815194906001908101906001600160401b03871161097d57612d1b876120808454613e2e565b82601f8811600114612d7a57968080600d9594936000805160206177e1833981519152999a600093612d6f575b501b916000199060031b1c19161790555b85600052526120da826003604060002001614412565b88015192508b612d48565b96601f1981169783600052846000209860005b818110612dda5750988291600d969594936000805160206177e18339815191529a9b10612dc1575b5050811b019055612d59565b87015160001960f88460031b161c191690558980612db5565b878301518b5599840199918601918601612d8d565b3461051557604036600319011261051557602460006004358235825b826000526010602081815281604060002001805484101561300157612e318486926169e8565b505414612e48575050612e439061685b565b612e0b565b91939450916000526018815260ff93846040600020541615612fc55780600052828252612e7b84846040600020016169e8565b50600190810154909590336001600160a01b0391821614908115612fb7575b5015612f6257816000528383526004612eb986866040600020016169e8565b50015416612f2557918060049492612eda94600052526040600020016169e8565b5001805460ff1916821790555b15612eee57005b60649060106040519162461bcd60e51b8352602060048401528201526f14995d9a595dc81b9bdd08199bdd5b9960821b6044820152fd5b60405162461bcd60e51b8152600481018390526016818801527514995d9a595dc8185b1c9958591e4819195b195d195960521b6044820152606490fd5b60405162461bcd60e51b8152600481018490526028818901527f4f6e6c79207265766965776572206f72206f776e65722063616e2064656c6574604482015267652072657669657760c01b6064820152608490fd5b600054163314905088612e9a565b60405162461bcd60e51b8152600481018390526015818801527414995d9a595dc8191bd95cc81b9bdd08195e1a5cdd605a1b6044820152606490fd5b505050505050612ee7565b34610515576106d261301d36613c2b565b9161303061302b843361424e565b614151565b614316565b346105155760031960403682011261051557602435906001600160401b038211610515576101a0908236030112610515576106d290600401600435615b6f565b3461051557606036600319011261051557602480356004356044356001600160401b038111610515576130ac903690600401613c10565b90806000526020916010835260018060a01b036001604060002001541633146132145783151580613209575b156131c5578051156131875790601092916001600a54019081600a556130fc6169bd565b95828752338588015260408701526060860152600052601882526040600020600160ff198254161790556000525260106040600020018054600160401b8110156131725761314f916001820181556169e8565b61315d576106d29250614cbd565b82634e487b7160e01b60005260006004526000fd5b83634e487b7160e01b60005260416004526000fd5b60405162461bcd60e51b81526004810184905260178187015276436f6d6d656e742063616e6e6f7420626520656d70747960481b6044820152606490fd5b60405162461bcd60e51b815260048101849052601e818701527f526174696e67206d757374206265206265747765656e203120616e64203500006044820152606490fd5b5060058411156130d8565b60405162461bcd60e51b8152600481018490526026818701527f53656c6c65722063616e6e6f7420726576696577207468656972206f776e20706044820152651c9bd91d58dd60d21b6064820152608490fd5b3461051557600036600319011261051557613280614068565b336000526019602052604060002060018060a01b031981541690556000805160206177218339815191526040805133815260006020820152a1005b34610515576040366003190112610515576106d26132d7613afc565b6004356173d5565b34610515576040366003190112610515576132f8613ae6565b602435906001600160a01b03808061330f85614107565b1692169180831461340a578033149081156133e5575b501561337a57600083815260066020526040902080546001600160a01b0319168317905561335283614107565b167f8c5be1e5ebec7d5bd14f71427d1e84f3dd0314c0f7b2291e5b200ac8c7c3b925600080a4005b60405162461bcd60e51b815260206004820152603d60248201527f4552433732313a20617070726f76652063616c6c6572206973206e6f7420746f60448201527f6b656e206f776e6572206f7220617070726f76656420666f7220616c6c0000006064820152608490fd5b9050600052600760205260406000203360005260205260ff6040600020541684613325565b60405162461bcd60e51b815260206004820152602160248201527f4552433732313a20617070726f76616c20746f2063757272656e74206f776e656044820152603960f91b6064820152608490fd5b346105155760203660031901126105155760206129d460043561412a565b346105155760003660031901126105155760405160009060025461349a81613e2e565b808352600191808316908115611ac357506001146134c2576102c483611a5581870382613b9b565b6002600090815260209450917f405787fa12a823e0f2b7631cc41b3ba8828b3321ca811111fa75cd3aa3bb5ace5b82841061350957505050810190910190611a5581611a45565b80548585018701529285019281016134f0565b346105155760003660031901126105155760088054600060015b82811115613725575061354890616aa9565b9060009260015b8281111561356557604051806102c48682613a84565b8060005260106020818152604060002091600f8301549060ff938483831c16158061359f575b50505050505061359a9061685b565b61354f565b60409a969a51956135af87613b12565b8254875260018301546001600160a01b0316868801526135d160028401613e68565b60408801526135e260038401613e68565b6060880152600483015460808801526005948584015460a089015261360960068501616a54565b60c089015261361a60078501616a54565b60e089015261362a8a8501616a54565b61010089015261363c60098501613e68565b61012089015261364e600a8501613e68565b610140890152600b84015461016089015261366b600c8501613e68565b61018089015261367d600d8501613e68565b6101a0890152600e8401546101c089015281811615156101e0890152891c1615156102008701521561022086015201908154916136b983614b49565b936136c76040519586613b9b565b8385526000918252808220918186015b85821061370957505050505050918161359a936102406136fd94015261046782886169a9565b9490868080808061358b565b848360019261371787616a04565b8152019401910190926136d7565b8060005260ff601080602052600f60406000200154901c1615613751575b61374c9061685b565b613536565b9061375e61374c9161685b565b919050613743565b346105155760203660031901126105155760043563ffffffff60e01b8116809103610515576020906380ac58cd60e01b81149081156137c3575b81156137b2575b506040519015158152f35b6301ffc9a760e01b149050826137a7565b635b5e139f60e01b811491506137a0565b34610515576020366003190112610515576020906004356000526018825260ff6040600020541615158152f35b919082519283825260005b84811061382d575050826000602080949584010152601f8019910116010190565b60208183018101518483018201520161380c565b908082519081815260208091019281808460051b8301019501936000915b84831061386f5750505050505090565b909192939495848061388d600193601f198682030187528a51613801565b980193019301919493929061385f565b908082519081815260208091019281808460051b8301019501936000915b8483106138cb5750505050505090565b9091929394958480600192601f1985820301865289519081518152848060a01b03838301511683820152604080830151908201526139186060808401519060a08091850152830190613801565b91608080910151151591015298019301930191949392906138bb565b90613a81918051825260018060a01b036020820151166020830152613a3b613a27613a086139f46139e06139cc6139ba61399461398260408a015160408c61026091829101528c0190613801565b60608a01518b820360608d0152613801565b608089015160808b015260a089015160a08b015260c08901518a820360c08c0152613841565b60e088015189820360e08b0152613841565b6101008088015190898303908a0152613841565b610120808701519088830390890152613801565b610140808601519087830390880152613801565b6101608085015190860152610180808501519086830390870152613801565b6101a0808401519085830390860152613801565b916101c080830151908201526101e0808301511515908201526102008083015115159082015261022080830151151590820152610240809201519181840391015261389d565b90565b602080820190808352835180925260408301928160408460051b8301019501936000915b848310613ab85750505050505090565b9091929394958480613ad6600193603f198682030187528a51613934565b9801930193019194939290613aa8565b600435906001600160a01b038216820361051557565b602435906001600160a01b038216820361051557565b61026081019081106001600160401b0382111761097d57604052565b61010081019081106001600160401b0382111761097d57604052565b608081019081106001600160401b0382111761097d57604052565b60a081019081106001600160401b0382111761097d57604052565b602081019081106001600160401b0382111761097d57604052565b601f909101601f19168101906001600160401b0382119082101761097d57604052565b6001600160401b03811161097d57601f01601f191660200190565b929192613be582613bbe565b91613bf36040519384613b9b565b829481845281830111610515578281602093846000960137010152565b9080601f8301121561051557816020613a8193359101613bd9565b6060906003190112610515576001600160a01b0390600435828116810361051557916024359081168103610515579060443590565b9060606003198301126105155760043591602435906001600160401b03821161051557613c8f91600401613c10565b9060443580151581036105155790565b613a819160e0613d36613d24613d12613d00613cee613cdc613cca8951610100808b528a0190613801565b60208a015189820360208b0152613801565b604089015188820360408a0152613801565b60608801518782036060890152613801565b60808701518682036080880152613801565b60a086015185820360a0870152613801565b60c085015184820360c0860152613801565b9201519060e0818403910152613801565b602080820190808352835180925260409283810182858560051b8401019601946000925b858410613d7c575050505050505090565b909192939495968580613df4600193603f198682030188528b51805182528381015184830152878101518883015260608082015190830152858060a01b0360808181840151169084015260a09081830151169083015260c08082015115159083015260e0809101519161010080928201520190613c9f565b990194019401929594939190613d6b565b919060208301926004821015613e185752565b634e487b7160e01b600052602160045260246000fd5b90600182811c92168015613e5e575b6020831014613e4857565b634e487b7160e01b600052602260045260246000fd5b91607f1691613e3d565b9060405191826000825492613e7c84613e2e565b908184526001948581169081600014613eeb5750600114613ea8575b5050613ea692500383613b9b565b565b9093915060005260209081600020936000915b818310613ed3575050613ea693508201013880613e98565b85548884018501529485019487945091830191613ebb565b915050613ea694506020925060ff191682840152151560051b8201013880613e98565b8054821015613f2a57600052600e602060002091020190600090565b634e487b7160e01b600052603260045260246000fd5b90604051613f4d81613b2e565b60e0613fcd60078395613f5f81613e68565b8552613f6d60018201613e68565b6020860152613f7e60028201613e68565b6040860152613f8f60038201613e68565b6060860152613fa060048201613e68565b6080860152613fb160058201613e68565b60a0860152613fc260068201613e68565b60c086015201613e68565b910152565b95929091613a819897959492875260208701526040860152606085015260018060a01b0380921660808501521660a0830152151560c0820152610100908160e08201520190613c9f565b8054821015613f2a5760005260206000200190600090565b90815180825260208080930193019160005b828110614054575050505090565b835185529381019392810192600101614046565b6000546001600160a01b0316330361407c57565b606460405162461bcd60e51b815260206004820152602060248201527f4f776e61626c653a2063616c6c6572206973206e6f7420746865206f776e65726044820152fd5b156140c757565b60405162461bcd60e51b8152602060048201526018602482015277115490cdcc8c4e881a5b9d985b1a59081d1bdad95b88125160421b6044820152606490fd5b6000908152600460205260409020546001600160a01b0316613a818115156140c0565b61413661101c82614423565b6000908152600660205260409020546001600160a01b031690565b1561415857565b60405162461bcd60e51b815260206004820152602d60248201527f4552433732313a2063616c6c6572206973206e6f7420746f6b656e206f776e6560448201526c1c881bdc88185c1c1c9bdd9959609a1b6064820152608490fd5b906141d79392916141c761302b843361424e565b6141d2838383614316565b614470565b156141de57565b60405162461bcd60e51b8152806141f7600482016141fb565b0390fd5b60809060208152603260208201527f4552433732313a207472616e7366657220746f206e6f6e20455243373231526560408201527131b2b4bb32b91034b6b83632b6b2b73a32b960711b60608201520190565b906001600160a01b03808061426284614107565b16931691838314938415614295575b50831561427f575b50505090565b61428b9192935061412a565b1614388080614279565b909350600052600760205260406000208260005260205260ff604060002054169238614271565b156142c357565b60405162461bcd60e51b815260206004820152602560248201527f4552433732313a207472616e736665722066726f6d20696e636f72726563742060448201526437bbb732b960d91b6064820152608490fd5b9061433e9161432484614107565b6001600160a01b03939184169284929091831684146142bc565b169182156143c1578161435b9161435486614107565b16146142bc565b6000805160206177a1833981519152600084815260066020526040812060018060a01b03199081815416905583825260056020526040822060001981540190558482526040822060018154019055858252600460205284604083209182541617905580a4565b60405162461bcd60e51b8152602060048201526024808201527f4552433732313a207472616e7366657220746f20746865207a65726f206164646044820152637265737360e01b6064820152608490fd5b9060ff801983541691151516179055565b6000908152600460205260409020546001600160a01b0316151590565b3d1561446b573d9061445182613bbe565b9161445f6040519384613b9b565b82523d6000602084013e565b606090565b91926000929190813b15614565576020916144c69185604051958680958194630a85bd0160e11b9b8c845233600485015260018060a01b0380951660248501526044840152608060648401526084830190613801565b0393165af190829082614516575b5050614508576144e2614440565b805190816145035760405162461bcd60e51b8152806141f7600482016141fb565b602001fd5b6001600160e01b0319161490565b909192506020813d821161455d575b8161453260209383613b9b565b810103126145595751906001600160e01b03198216820361455657509038806144d4565b80fd5b5080fd5b3d9150614525565b5050505050600190565b1561457657565b60405162461bcd60e51b815260206004820152602560248201527f4f6e6c792076657269666965642073656c6c6572206f72206f776e657220616c6044820152641b1bddd95960da1b6064820152608490fd5b6000338152601960205260018060a01b0380604083205416908254163314614660578015614634578152601360205260ff60408220541690600482101561462057509061461b6002613ea6931461456f565b614e1c565b634e487b7160e01b81526021600452602490fd5b50338152601360205260ff60408220541690600482101561462057509061461b6002613ea6931461456f565b5050613ea690614e1c565b903590601e198136030182121561051557018035906001600160401b0382116105155760200191813603831361051557565b156146a457565b60405162461bcd60e51b81526020600482015260146024820152734e616d652063616e6e6f7420626520656d70747960601b6044820152606490fd5b156146e757565b60405162461bcd60e51b815260206004820152601b60248201527a4465736372697074696f6e2063616e6e6f7420626520656d70747960281b6044820152606490fd5b1561473157565b60405162461bcd60e51b815260206004820152601c60248201527b05072696365206d7573742062652067726561746572207468616e20360241b6044820152606490fd5b1561477c57565b60405162461bcd60e51b815260206004820152601c60248201527b053746f636b206d7573742062652067726561746572207468616e20360241b6044820152606490fd5b903590601e198136030182121561051557018035906001600160401b03821161051557602001918160051b3603831361051557565b156147fc57565b60405162461bcd60e51b8152602060048201526016602482015275436f6c6f72732063616e6e6f7420626520656d70747960501b6044820152606490fd5b1561484157565b60405162461bcd60e51b815260206004820152601560248201527453697a65732063616e6e6f7420626520656d70747960581b6044820152606490fd5b1561488557565b60405162461bcd60e51b8152602060048201526016602482015275496d616765732063616e6e6f7420626520656d70747960501b6044820152606490fd5b156148ca57565b60405162461bcd60e51b815260206004820152601c60248201527b496d616765732063616e6e6f74206265206d6f7265207468616e203560201b6044820152606490fd5b1561491557565b60405162461bcd60e51b815260206004820152601860248201527743617465676f72792063616e6e6f7420626520656d70747960401b6044820152606490fd5b1561495c57565b60405162461bcd60e51b815260206004820152601c60248201527b5375622d63617465676f72792063616e6e6f7420626520656d70747960201b6044820152606490fd5b156149a757565b60405162461bcd60e51b81526020600482015260156024820152744d6f64656c2063616e6e6f7420626520656d70747960581b6044820152606490fd5b156149eb57565b60405162461bcd60e51b81526020600482015260156024820152744272616e642063616e6e6f7420626520656d70747960581b6044820152606490fd5b15614a2f57565b60405162461bcd60e51b815260206004820152601d60248201527f576569676874206d7573742062652067726561746572207468616e20300000006044820152606490fd5b15614a7b57565b60405162461bcd60e51b815260206004820152601a6024820152790534b55206d7573742062652067726561746572207468616e20360341b6044820152606490fd5b60405190614aca82613b12565b8161024060009182815282602082015260609283604083015283808301528060808301528060a08301528360c08301528360e08301528361010083015283610120830152836101408301528061016083015283610180830152836101a0830152806101c0830152806101e0830152806102008301526102208201520152565b6001600160401b03811161097d5760051b60200190565b92919092614b6d84614b49565b91614b7b6040519384613b9b565b829480845260208094019060051b8301928284116105155780915b848310614ba557505050505050565b82356001600160401b038111610515578691614bc48684938601613c10565b815201920191614b96565b818110614bda575050565b60008155600101614bcf565b9190601f8111614bf557505050565b613ea6926000526020600020906020601f840160051c83019310614c21575b601f0160051c0190614bcf565b9091508190614c14565b614c358154613e2e565b9081614c3f575050565b81601f60009311600114614c51575055565b908083918252614c70601f60208420940160051c840160018501614bcf565b5555565b90600160401b811161097d57815491818155828210614c9257505050565b600052602060002091820191015b818110614cab575050565b80614cb7600192614c2b565b01614ca0565b81518155602080830151600180840180546001600160a01b0319166001600160a01b03939093169290921790915560408401516002840155606084015180519094926003850192906001600160401b03831161097d57614d2783614d218654613e2e565b86614be6565b80601f8411600114614d7357509180806080959360049795613ea69a600094614d68575b50501b916000199060031b1c19161790555b015115159101614412565b015192503880614d4b565b9193949596601f1984168660005283600020936000905b828210614dd057505092608095928592613ea69a99966004999610614db7575b505050811b019055614d5d565b015160001960f88460031b161c19169055388080614daa565b808886978294978701518155019601940190614d8a565b8054600160401b81101561097d57614e049160018201815561401c565b819291549060031b91821b91600019901b1916179055565b614e32614e29828061466b565b9050151561469d565b614e4b614e42602083018361466b565b905015156146e0565b614e5a6040820135151561472a565b614e6960608201351515614775565b614e82614e7960808301836147c0565b905015156147f5565b614e9b614e9260a08301836147c0565b9050151561483a565b614eb4614eab60c08301836147c0565b9050151561487e565b614ece6005614ec660c08401846147c0565b9050106148c3565b614edd60e0820135151561490e565b614eed6101008201351515614955565b614f07614efe61012083018361466b565b905015156149a0565b614f21614f1861014083018361466b565b905015156149e4565b614f316101608201351515614a28565b614f416101808201351515614a74565b6001600854019081600855610180614f57614abd565b91838352336020840152614f75614f6e828061466b565b3691613bd9565b6040840152614f8a614f6e602083018361466b565b606084015260408101356080840152606081013560a0840152614fba614fb360808301836147c0565b3691614b60565b60c0840152614fcf614fb360a08301836147c0565b60e0840152614fe4614fb360c08301836147c0565b61010084015260e0810135600052600c6020526150076001604060002001613e68565b610120840152610100810135600052600d60205261502b6001604060002001613e68565b610140840152615042614f6e61012083018361466b565b82840152615057614f6e61014083018361466b565b6101a084015261016081013561016084015201356101c08201523315615ae05761508961508383614423565b15615b24565b61509561508383614423565b33600052600560205260406000206001815401905581600052600460205260406000203360018060a01b0319825416179055813360006000805160206177a18339815191528180a4601060209081526040600081902083518155918301516001830180546001600160a01b0319166001600160a01b03929092169190911790558201518051906001600160401b03821161097d5781906151458261513c6002870154613e2e565b60028701614be6565b602090601f8311600114615a6e57600092615a63575b50508160011b916000199060031b1c19161760028201555b60608201518051906001600160401b03821161097d5781906151a58261519c6003870154613e2e565b60038701614be6565b602090601f83116001146159f1576000926159e6575b50508160011b916000199060031b1c19161760038201555b6080820151600482015560a082015160058201556006810160c083015160208151916151ff8385614c74565b01916000526020600020916000905b82821061590957505050506007810160e083015160208151916152318385614c74565b01916000526020600020916000905b82821061582c57505050506008810161010083015160208151916152648385614c74565b01916000526020600020916000905b82821061574957505050506101208201518051906001600160401b03821161097d5781906152b1826152a86009870154613e2e565b60098701614be6565b602090601f83116001146156d7576000926156cc575b50508160011b916000199060031b1c19161760098201555b6101408201518051906001600160401b03821161097d57819061531282615309600a870154613e2e565b600a8701614be6565b602090601f831160011461565a5760009261564f575b50508160011b916000199060031b1c191617600a8201555b610160820151600b8201556101808201518051906001600160401b03821161097d57819061537e82615375600c870154613e2e565b600c8701614be6565b602090601f83116001146155dd576000926155d2575b50508160011b916000199060031b1c191617600c8201555b6101a08201518051906001600160401b03821161097d576153dd826153d4600d860154613e2e565b600d8601614be6565b602090601f831160011461555c5791806102409492601094600092615551575b50508160011b916000199060031b1c191617600d8201555b6101c0840151600e820155600f81016154356101e0860151151582614412565b6102008501511515815461ff0062ff00006102208901511515871b169260081b169062ffff001916171790550191015190815191600160401b831161097d5781548383558084106154eb575b506020019060005260206000206000915b8383106154cd575050505080613ea69160005260176020526040600020600160ff198254161790553360005260116020526040600020614de7565b60056020826154df6001945186614cbd565b01920192019190615492565b80600502906005820403610d1e5783600502600581048503610d1e5783600052602060002091820191015b8181106155235750615481565b80600060059255600060018201556000600282015561554460038201614c2b565b6000600482015501615516565b0151905038806153fd565b90600d840160005260206000209160005b601f19851681106155ba575092610240949260019260109583601f198116106155a1575b505050811b01600d820155615415565b015160001960f88460031b161c19169055388080615591565b9192602060018192868501518155019401920161556d565b015190503880615394565b9250600c84016000526020600020906000935b601f1984168510615634576001945083601f1981161061561b575b505050811b01600c8201556153ac565b015160001960f88460031b161c1916905538808061560b565b818101518355602094850194600190930192909101906155f0565b015190503880615328565b9250600a84016000526020600020906000935b601f19841685106156b1576001945083601f19811610615698575b505050811b01600a820155615340565b015160001960f88460031b161c19169055388080615688565b8181015183556020948501946001909301929091019061566d565b0151905038806152c7565b9250600984016000526020600020906000935b601f198416851061572e576001945083601f19811610615715575b505050811b0160098201556152df565b015160001960f88460031b161c19169055388080615705565b818101518355602094850194600190930192909101906156ea565b80518051906001600160401b03821161097d576157708261576a8854613e2e565b88614be6565b602090601f83116001146157bc5792826001949360209386956000926157b1575b5050600019600383901b1c191690841b1787555b01940191019092615273565b015190503880615791565b908660005260206000209160005b601f1985168110615814575083602093600196938796938794601f198116106157fb575b505050811b0187556157a5565b015160001960f88460031b161c191690553880806157ee565b919260206001819286850151815501940192016157ca565b80518051906001600160401b03821161097d5761584d8261576a8854613e2e565b602090601f831160011461589957928260019493602093869560009261588e575b5050600019600383901b1c191690841b1787555b01940191019092615240565b01519050388061586e565b908660005260206000209160005b601f19851681106158f1575083602093600196938796938794601f198116106158d8575b505050811b018755615882565b015160001960f88460031b161c191690553880806158cb565b919260206001819286850151815501940192016158a7565b80518051906001600160401b03821161097d5761592a8261576a8854613e2e565b602090601f831160011461597657928260019493602093869560009261596b575b5050600019600383901b1c191690841b1787555b0194019101909261520e565b01519050388061594b565b908660005260206000209160005b601f19851681106159ce575083602093600196938796938794601f198116106159b5575b505050811b01875561595f565b015160001960f88460031b161c191690553880806159a8565b91926020600181928685015181550194019201615984565b0151905038806151bb565b9250600384016000526020600020906000935b601f1984168510615a48576001945083601f19811610615a2f575b505050811b0160038201556151d3565b015160001960f88460031b161c19169055388080615a1f565b81810151835560209485019460019093019290910190615a04565b01519050388061515b565b9250600284016000526020600020906000935b601f1984168510615ac5576001945083601f19811610615aac575b505050811b016002820155615173565b015160001960f88460031b161c19169055388080615a9c565b81810151835560209485019460019093019290910190615a81565b606460405162461bcd60e51b815260206004820152602060248201527f4552433732313a206d696e7420746f20746865207a65726f20616464726573736044820152fd5b15615b2b57565b60405162461bcd60e51b815260206004820152601c60248201527b115490cdcc8c4e881d1bdad95b88185b1c9958591e481b5a5b9d195960221b6044820152606490fd5b9190600092338452601960205260018060a01b0380604086205416908554163314615bf5578015615bc9578452601360205260ff6040852054169360048510156146205750615bc46002613ea694951461456f565b615d5f565b50338452601360205260ff6040852054169360048510156146205750615bc46002613ea694951461456f565b50613ea6929350615d5f565b15615c0857565b60405162461bcd60e51b8152602060048201526016602482015275141c9bd91d58dd08191bd95cc81b9bdd08195e1a5cdd60521b6044820152606490fd5b15615c4d57565b60405162461bcd60e51b8152602060048201526012602482015271141c9bd91d58dd081a5cc819195b195d195960721b6044820152606490fd5b90808214615d5b57615c998154613e2e565b906001600160401b03821161097d578190615cb882614d218654613e2e565b600090601f8311600114615cef57600092615ce4575b50508160011b916000199060031b1c1916179055565b015490503880615cce565b81526020808220858352818320935090601f1985169083905b828210615d42575050908460019594939210615d29575b505050811b019055565b015460001960f88460031b161c19169055388080615d1f565b8495819295850154815560018091019601940190615d08565b5050565b6000818152601060205260409020600101546001600160a01b0316330361660f57806000526017602052615d9a60ff60406000205416615c01565b806000526010602052615dbb60ff600f6040600020015460101c1615615c46565b615dc8614e29838061466b565b615dd8614e42602084018461466b565b615de76040830135151561472a565b615df660608301351515614775565b615e06614e7960808401846147c0565b615e16614e9260a08401846147c0565b615e26614eab60c08401846147c0565b615e386005614ec660c08501856147c0565b615e4760e0830135151561490e565b615e576101008301351515614955565b615e68614efe61012084018461466b565b615e79614f1861014084018461466b565b615e896101608301351515614a28565b615e996101808301351515614a74565b615ea3828061466b565b6000838152601060205260409020600201916001600160401b03821161097d578190615ed382614d218654613e2e565b600090601f83116001146165a75760009261659c575b50508160011b916000199060031b1c19161790555b615f0b602083018361466b565b6000838152601060205260409020600301916001600160401b03821161097d578190615f3b82614d218654613e2e565b600090601f831160011461653457600092616529575b50508160011b916000199060031b1c19161790555b806000526010602052604060002060408301356004820155606083013560058201556006615f9760808501856147c0565b9190920191615fa68284614c74565b60009283526020832090805b838510616446575050505050615fcb60a08301836147c0565b826000526010602052600760406000200191615fe78284614c74565b60009283526020832090805b83851061636357505050505061600c60c08301836147c0565b8260005260106020526008604060002001916160288284614c74565b60009283526020832090805b83851061627a57505050505060e0820135600052600c60205261606e60016040600020018260005260106020526009604060002001615c87565b610100820135600052600d60205261609d6001604060002001826000526010602052600a604060002001615c87565b6160ab61012083018361466b565b6000838152601060205260409020600c01916001600160401b03821161097d5781906160db82614d218654613e2e565b600090601f831160011461621257600092616207575b50508160011b916000199060031b1c19161790555b61611461014083018361466b565b6000838152601060205260409020600d01916001600160401b03821161097d57819061614482614d218654613e2e565b600090601f831160011461619f57600092616194575b50508160011b916000199060031b1c19161790555b6000526010602052600e610180604060002092610160810135600b8501550135910155565b01359050388061615a565b600085815260208120909450915b601f19841685106161ef576001945083601f198116106161d5575b505050811b01905561616f565b0135600019600384901b60f8161c191690553880806161c8565b818101358355602094850194600190930192016161ad565b0135905038806160f1565b600085815260208120909450915b601f1984168510616262576001945083601f19811610616248575b505050811b019055616106565b0135600019600384901b60f8161c1916905538808061623b565b81810135835560209485019460019093019201616220565b616284818361466b565b906001600160401b03821161097d576162a7826162a18754613e2e565b87614be6565b600090601f83116001146162f35792826001949360209386956000926162e8575b5050600019600383901b1c191690841b1786555b01930194019391616034565b0135905038806162c8565b8560005260206000209160005b601f198516811061634b575083602093600196938796938794601f19811610616331575b505050811b0186556162dc565b0135600019600384901b60f8161c19169055388080616324565b90926020600181928686013581550194019101616300565b61636d818361466b565b906001600160401b03821161097d5761638a826162a18754613e2e565b600090601f83116001146163d65792826001949360209386956000926163cb575b5050600019600383901b1c191690841b1786555b01930194019391615ff3565b0135905038806163ab565b8560005260206000209160005b601f198516811061642e575083602093600196938796938794601f19811610616414575b505050811b0186556163bf565b0135600019600384901b60f8161c19169055388080616407565b909260206001819286860135815501940191016163e3565b616450818361466b565b906001600160401b03821161097d5761646d826162a18754613e2e565b600090601f83116001146164b95792826001949360209386956000926164ae575b5050600019600383901b1c191690841b1786555b01930194019391615fb2565b01359050388061648e565b8560005260206000209160005b601f1985168110616511575083602093600196938796938794601f198116106164f7575b505050811b0186556164a2565b0135600019600384901b60f8161c191690553880806164ea565b909260206001819286860135815501940191016164c6565b013590503880615f51565b600085815260208120909450915b601f1984168510616584576001945083601f1981161061656a575b505050811b019055615f66565b0135600019600384901b60f8161c1916905538808061655d565b81810135835560209485019460019093019201616542565b013590503880615ee9565b600085815260208120909450915b601f19841685106165f7576001945083601f198116106165dd575b505050811b019055615efe565b0135600019600384901b60f8161c191690553880806165d0565b818101358355602094850194600190930192016165b5565b60405162461bcd60e51b815260206004820152602860248201527f4f6e6c79207468652073656c6c65722063616e20757064617465207468656972604482015267081c1c9bd91d58dd60c21b6064820152608490fd5b6000338152601960205260018060a01b03806040832054169082541633146166e85780156166bc578152601360205260ff6040822054169060048210156146205750906166b76002613ea6931461456f565b6166ef565b50338152601360205260ff6040822054169060048210156146205750906166b76002613ea6931461456f565b5050613ea6905b906000918083526020926017845260409161670f60ff8484205416615c01565b8082526010855282822060010154336001600160a01b0391821614908115616802575b50156167ae578082526010855260ff600f848420015460101c1661676d57600f939460109183525220016201000062ff000019825416179055565b825162461bcd60e51b815260048101869052601a602482015279141c9bd91d58dd081a5cc8185b1c9958591e4819195b195d195960321b6044820152606490fd5b825162461bcd60e51b815260048101869052602760248201527f4f6e6c792070726f647563742073656c6c6572206f72206f776e65722063616e6044820152662064656c65746560c81b6064820152608490fd5b8354163314905038616732565b1561681657565b60405162461bcd60e51b815260206004820152601d60248201527f43617465676f7279206e616d652063616e6e6f7420626520656d7074790000006044820152606490fd5b6000198114610d1e5760010190565b1561687157565b606460405162461bcd60e51b815260206004820152602060248201527f53756263617465676f7279206e616d652063616e6e6f7420626520656d7074796044820152fd5b90821015613f2a576168cc9160051b81019061466b565b9091565b156168d757565b60405162461bcd60e51b815260206004820152601760248201527610d85d1959dbdc9e48191bd95cc81b9bdd08195e1a5cdd604a1b6044820152606490fd5b9061692e602091949394604084526040840190613801565b931515910152565b1561693d57565b60405162461bcd60e51b815260206004820152601a60248201527914dd5898d85d1959dbdc9e48191bd95cc81b9bdd08195e1a5cdd60321b6044820152606490fd5b60005b82811061698e57505050565b606082820152602001616982565b91908203918211610d1e57565b8051821015613f2a5760209160051b010190565b604051906169ca82613b65565b60006080838281528260208201528260408201526060808201520152565b8054821015613f2a576000526005602060002091020190600090565b90604051616a1181613b65565b608060ff600483958054855260018060a01b03600182015416602086015260028101546040860152616a4560038201613e68565b60608601520154161515910152565b908154616a6081614b49565b92616a6e6040519485613b9b565b818452600090815260208082208186015b848410616a8d575050505050565b6001838192616a9b85613e68565b815201920193019290616a7f565b90616ab382614b49565b616ac06040519182613b9b565b8281528092616ad1601f1991614b49565b019060005b828110616ae257505050565b602090616aed614abd565b82828501015201616ad6565b8054600160401b81101561097d57616b18906001928382018155613f0e565b9290926171bf5780518355602080820151838501556040820151600285015560608201516003808601919091556080830151600480870180546001600160a01b0319166001600160a01b0393841617905560a08086015160058901805460c08901516001600160a81b0319909116929095169190911793151590911b60ff60a01b169290921790915560e0909301518051805191966001600160401b0395939491939260068201908781116171aa57616bd5816120808454613e2e565b8084601f978883116001146171485760009261713d575b505060001982891b1c191690891b1790555b6007810182890151805190888211616f07578190616c2082614d218654613e2e565b85908883116001146170db576000926170d0575b505060001982891b1c191690891b1790555b600881016040890151805190888211616f07578190616c6982614d218654613e2e565b859088831160011461706e57600092617063575b505060001982891b1c191690891b1790555b600981016060890151805190888211616f07578190616cb282614d218654613e2e565b859088831160011461700157600092616ff6575b505060001982891b1c191690891b1790555b600a81016080890151805190888211616f07578190616cfb82614d218654613e2e565b8590888311600114616f9457600092616f89575b505060001982891b1c191690891b1790555b600b810160a0890151805190888211616f07578190616d4482614d218654613e2e565b8590888311600114616f2757600092616f1c575b505060001982891b1c191690891b1790555b600c810160c0890151805190888211616f0757616d8b826108938554613e2e565b8490878311600114616e9a579180600d949260e09694600092616e8f575b5050600019828b1b1c1916908b1b1790555b01970151918251958611616e7a5750616dde85616dd88954613e2e565b89614be6565b80928511600114616e145750938394918492600095616e09575b50501b92600019911b1c1916179055565b015193503880616df8565b92919084601f1981168860005285600020956000905b89838310616e605750505010616e46575b50505050811b019055565b01519060f884600019921b161c1916905538808080616e3b565b858701518955909701969485019488935090810190616e2a565b604190634e487b7160e01b6000525260246000fd5b015190503880616da9565b8a9291601f1983169185600052876000209260005b89828210616ef15750509160e09795939185600d98969410616ed9575b505050811b019055616dbb565b0151600019838d1b60f8161c19169055388080616ecc565b8385015186558f97909501949384019301616eaf565b604186634e487b7160e01b6000525260246000fd5b015190503880616d58565b908b9350601f1983169185600052876000209260005b89828210616f735750508411616f5b575b505050811b019055616d6a565b0151600019838b1b60f8161c19169055388080616f4e565b8385015186558f97909501949384019301616f3d565b015190503880616d0f565b908b9350601f1983169185600052876000209260005b89828210616fe05750508411616fc8575b505050811b019055616d21565b0151600019838b1b60f8161c19169055388080616fbb565b8385015186558f97909501949384019301616faa565b015190503880616cc6565b908b9350601f1983169185600052876000209260005b8982821061704d5750508411617035575b505050811b019055616cd8565b0151600019838b1b60f8161c19169055388080617028565b8385015186558f97909501949384019301617017565b015190503880616c7d565b908b9350601f1983169185600052876000209260005b898282106170ba57505084116170a2575b505050811b019055616c8f565b0151600019838b1b60f8161c19169055388080617095565b8385015186558f97909501949384019301617084565b015190503880616c34565b908b9350601f1983169185600052876000209260005b89828210617127575050841161710f575b505050811b019055616c46565b0151600019838b1b60f8161c19169055388080617102565b8385015186558f979095019493840193016170f1565b015190503880616bec565b908b9350601f1983169185600052876000209260005b89828210617194575050841161717c575b505050811b019055616bfe565b0151600019838b1b60f8161c1916905538808061716f565b8385015186558f9790950194938401930161715e565b604185634e487b7160e01b6000525260246000fd5b634e487b7160e01b600052600060045260246000fd5b6000338152601960205260018060a01b038060408320541690825416331461725857801561722b578152601360205260ff60408220541690600482101561462057506002617223911461456f565b613ea661725e565b50338152601360205260ff60408220541690600482101561462057506002617253911461456f565b617223565b5050613ea65b600033815260126020526040812054801561730157600b5480820290828204036172ed57906172b961729760646172bf9404809361699c565b33855260126020526040852085905584549092906001600160a01b031661733f565b3361733f565b6040519081527f8ad64a0ac7700dd8425ab0499f107cb6e2cd1581d803c5b8c1c79dcb8190b1af60203392a2565b634e487b7160e01b83526011600452602483fd5b60405162461bcd60e51b81526020600482015260166024820152754e6f2062616c616e636520746f20776974686472617760501b6044820152606490fd5b6001600160a01b0316801561739e57600080809381935af161735f614440565b501561736757565b60405162461bcd60e51b815260206004820152600f60248201526e151c985b9cd9995c8819985a5b1959608a1b6044820152606490fd5b60405162461bcd60e51b815260206004820152600f60248201526e496e76616c6964206164647265737360881b6044820152606490fd5b9190600092338452601960205260018060a01b038060408620541690855416331461745b57801561742f578452601360205260ff604085205416936004851015614620575061742a6002613ea694951461456f565b617463565b50338452601360205260ff604085205416936004851015614620575061742a6002613ea694951461456f565b50613ea69293505b600091825b60018060a01b03808316806000526014602081815260409283600020805487101561771257617498878a92613f0e565b5054146174b25750505050506174ad9061685b565b617468565b8091929394969798506000528282526174ce8585600020613f0e565b509560ff60058098015460a01c166176d0578160005283835280876174f68888600020613f0e565b5001541633149081156176c2575b501561766b579061751e9493929160005252600020613f0e565b5001805460ff60a01b1916600160a01b17905560015b1561763157816000526020916010835260018060a01b039260019384936040828682600020015416866000905b617583575b5050600080516020617741833981519152949550519586521693a3565b81600052601580875283600020805483101561762a576175a4838a92613f0e565b50541480617605575b6175c157506175bb9061685b565b87617561565b600080516020617741833981519152979850906175e991600593600052875283600020613f0e565b5001805460ff60a01b1916600160a01b17905586959438617566565b508260005280875285600461761d8487600020613f0e565b50015416868616146175ad565b5050617566565b60405162461bcd60e51b8152602060048201526012602482015271141d5c98da185cd9481b9bdd08199bdd5b9960721b6044820152606490fd5b835162461bcd60e51b815260048101839052602a60248201527f4f6e6c792073656c6c6572206f72206f776e65722063616e206d61726b2061736044820152690819195b1a5d995c995960b21b6064820152608490fd5b600054163314905038617504565b845162461bcd60e51b815260048101849052601b60248201527a105b1c9958591e481b585c9ad95908185cc819195b1a5d995c9959602a1b6044820152606490fd5b50505050505050909161753456fe32b449308c94e824ccedd9877932cd82f89a481c06c4643a0cb2914454a8c582f9dc8543b583e01f592678422369b2777e3649761f5808ae432cb1c24ca9438c79d3150b1760cd391f5006c9543aea088e4c9060f3e582ea0a948dc6649b25da8be0079c531659141344cd1fd0a4f28419497f9722a3daafe3b4186f6b6457e0ddf252ad1be2c89b69c2b068fc378daa952ba7f163c4a11628f55a4df523b3ef5a8a989e12f3ce7cf805b73156a361da5d8369f0c37173209308910b322117ac4cfca6396923c3eee68be58aa35fd6623ae5d67bb552da5e1de2e0d5854166dca164736f6c6343000813000a",
  "linkReferences": {},
  "deployedLinkReferences": {}
}