{
  "_format": "hh-sol-artifact-1",
  "contractName": "HemShop",
  "sourceName": "contracts/HemShop.sol",
  "abi": [
    {
      "inputs": [
        {
          "internalType": "uint256",
          "name": "_pct",
          "type": "uint256"
        }
      ],
      "stateMutability": "nonpayable",
      "type": "constructor"
    },
    {
      "anonymous": false,
      "inputs": [
        {
          "indexed": false,
          "internalType": "address",
          "name": "admin",
          "type": "address"
        },
        {
          "indexed": false,
          "internalType": "address",
          "name": "impersonatedAccount",
          "type": "address"
        }
      ],
      "name": "AdminImpersonationChanged",
      "type": "event"
    },
    {
      "anonymous": false,
      "inputs": [
        {
          "indexed": true,
          "internalType": "address",
          "name": "owner",
          "type": "address"
        },
        {
          "indexed": true,
          "internalType": "address",
          "name": "approved",
          "type": "address"
        },
        {
          "indexed": true,
          "internalType": "uint256",
          "name": "tokenId",
          "type": "uint256"
        }
      ],
      "name": "Approval",
      "type": "event"
    },
    {
      "anonymous": false,
      "inputs": [
        {
          "indexed": true,
          "internalType": "address",
          "name": "owner",
          "type": "address"
        },
        {
          "indexed": true,
          "internalType": "address",
          "name": "operator",
          "type": "address"
        },
        {
          "indexed": false,
          "internalType": "bool",
          "name": "approved",
          "type": "bool"
        }
      ],
      "name": "ApprovalForAll",
      "type": "event"
    },
    {
      "anonymous": false,
      "inputs": [
        {
          "indexed": true,
          "internalType": "address",
          "name": "seller",
          "type": "address"
        },
        {
          "indexed": false,
          "internalType": "uint256",
          "name": "newBalance",
          "type": "uint256"
        }
      ],
      "name": "BalanceUpdated",
      "type": "event"
    },
    {
      "anonymous": false,
      "inputs": [
        {
          "indexed": true,
          "internalType": "uint256",
          "name": "id",
          "type": "uint256"
        },
        {
          "indexed": false,
          "internalType": "string",
          "name": "name",
          "type": "string"
        }
      ],
      "name": "CategoryCreated",
      "type": "event"
    },
    {
      "anonymous": false,
      "inputs": [
        {
          "indexed": true,
          "internalType": "uint256",
          "name": "id",
          "type": "uint256"
        },
        {
          "indexed": false,
          "internalType": "string",
          "name": "name",
          "type": "string"
        },
        {
          "indexed": false,
          "internalType": "bool",
          "name": "isActive",
          "type": "bool"
        }
      ],
      "name": "CategoryUpdated",
      "type": "event"
    },
    {
      "anonymous": false,
      "inputs": [
        {
          "indexed": true,
          "internalType": "uint256",
          "name": "productId",
          "type": "uint256"
        },
        {
          "indexed": true,
          "internalType": "address",
          "name": "buyer",
          "type": "address"
        },
        {
          "indexed": false,
          "internalType": "bool",
          "name": "isDelivered",
          "type": "bool"
        }
      ],
      "name": "DeliveryStatusUpdated",
      "type": "event"
    },
    {
      "anonymous": false,
      "inputs": [
        {
          "indexed": true,
          "internalType": "address",
          "name": "previousOwner",
          "type": "address"
        },
        {
          "indexed": true,
          "internalType": "address",
          "name": "newOwner",
          "type": "address"
        }
      ],
      "name": "OwnershipTransferred",
      "type": "event"
    },
    {
      "anonymous": false,
      "inputs": [
        {
          "indexed": true,
          "internalType": "uint256",
          "name": "productId",
          "type": "uint256"
        },
        {
          "indexed": true,
          "internalType": "address",
          "name": "buyer",
          "type": "address"
        },
        {
          "indexed": true,
          "internalType": "address",
          "name": "seller",
          "type": "address"
        },
        {
          "indexed": false,
          "internalType": "uint256",
          "name": "price",
          "type": "uint256"
        },
        {
          "indexed": false,
          "internalType": "uint256",
          "name": "timestamp",
          "type": "uint256"
        }
      ],
      "name": "ProductPurchased",
      "type": "event"
    },
    {
      "anonymous": false,
      "inputs": [
        {
          "indexed": true,
          "internalType": "uint256",
          "name": "productId",
          "type": "uint256"
        },
        {
          "indexed": true,
          "internalType": "address",
          "name": "buyer",
          "type": "address"
        },
        {
          "indexed": true,
          "internalType": "address",
          "name": "seller",
          "type": "address"
        },
        {
          "indexed": false,
          "internalType": "uint256",
          "name": "totalAmount",
          "type": "uint256"
        },
        {
          "indexed": false,
          "internalType": "uint256",
          "name": "basePrice",
          "type": "uint256"
        },
        {
          "indexed": false,
          "internalType": "uint256",
          "name": "timestamp",
          "type": "uint256"
        }
      ],
      "name": "PurchaseRecorded",
      "type": "event"
    },
    {
      "anonymous": false,
      "inputs": [
        {
          "indexed": true,
          "internalType": "address",
          "name": "seller",
          "type": "address"
        },
        {
          "indexed": false,
          "internalType": "uint256",
          "name": "timestamp",
          "type": "uint256"
        }
      ],
      "name": "SellerRegistered",
      "type": "event"
    },
    {
      "anonymous": false,
      "inputs": [
        {
          "indexed": true,
          "internalType": "address",
          "name": "seller",
          "type": "address"
        },
        {
          "indexed": false,
          "internalType": "enum HemShop.SellerStatus",
          "name": "status",
          "type": "uint8"
        }
      ],
      "name": "SellerStatusUpdated",
      "type": "event"
    },
    {
      "anonymous": false,
      "inputs": [
        {
          "indexed": true,
          "internalType": "uint256",
          "name": "id",
          "type": "uint256"
        },
        {
          "indexed": true,
          "internalType": "uint256",
          "name": "parentId",
          "type": "uint256"
        },
        {
          "indexed": false,
          "internalType": "string",
          "name": "name",
          "type": "string"
        }
      ],
      "name": "SubCategoryCreated",
      "type": "event"
    },
    {
      "anonymous": false,
      "inputs": [
        {
          "indexed": true,
          "internalType": "uint256",
          "name": "id",
          "type": "uint256"
        },
        {
          "indexed": false,
          "internalType": "string",
          "name": "name",
          "type": "string"
        },
        {
          "indexed": false,
          "internalType": "bool",
          "name": "isActive",
          "type": "bool"
        }
      ],
      "name": "SubCategoryUpdated",
      "type": "event"
    },
    {
      "anonymous": false,
      "inputs": [
        {
          "indexed": true,
          "internalType": "address",
          "name": "from",
          "type": "address"
        },
        {
          "indexed": true,
          "internalType": "address",
          "name": "to",
          "type": "address"
        },
        {
          "indexed": true,
          "internalType": "uint256",
          "name": "tokenId",
          "type": "uint256"
        }
      ],
      "name": "Transfer",
      "type": "event"
    },
    {
      "anonymous": false,
      "inputs": [
        {
          "indexed": true,
          "internalType": "address",
          "name": "user",
          "type": "address"
        },
        {
          "indexed": false,
          "internalType": "string",
          "name": "name",
          "type": "string"
        }
      ],
      "name": "UserRegistered",
      "type": "event"
    },
    {
      "inputs": [
        {
          "internalType": "address",
          "name": "",
          "type": "address"
        }
      ],
      "name": "adminImpersonating",
      "outputs": [
        {
          "internalType": "address",
          "name": "",
          "type": "address"
        }
      ],
      "stateMutability": "view",
      "type": "function"
    },
    {
      "inputs": [
        {
          "internalType": "address",
          "name": "to",
          "type": "address"
        },
        {
          "internalType": "uint256",
          "name": "tokenId",
          "type": "uint256"
        }
      ],
      "name": "approve",
      "outputs": [],
      "stateMutability": "nonpayable",
      "type": "function"
    },
    {
      "inputs": [
        {
          "internalType": "address",
          "name": "owner",
          "type": "address"
        }
      ],
      "name": "balanceOf",
      "outputs": [
        {
          "internalType": "uint256",
          "name": "",
          "type": "uint256"
        }
      ],
      "stateMutability": "view",
      "type": "function"
    },
    {
      "inputs": [
        {
          "internalType": "uint256",
          "name": "productId",
          "type": "uint256"
        },
        {
          "components": [
            {
              "internalType": "string",
              "name": "fullName",
              "type": "string"
            },
            {
              "internalType": "string",
              "name": "streetAddress",
              "type": "string"
            },
            {
              "internalType": "string",
              "name": "city",
              "type": "string"
            },
            {
              "internalType": "string",
              "name": "state",
              "type": "string"
            },
            {
              "internalType": "string",
              "name": "country",
              "type": "string"
            },
            {
              "internalType": "string",
              "name": "postalCode",
              "type": "string"
            },
            {
              "internalType": "string",
              "name": "phone",
              "type": "string"
            },
            {
              "internalType": "string",
              "name": "email",
              "type": "string"
            }
          ],
          "internalType": "struct HemShop.ShippingDetails",
          "name": "shippingDetails",
          "type": "tuple"
        },
        {
          "internalType": "string",
          "name": "selectedColor",
          "type": "string"
        },
        {
          "internalType": "string",
          "name": "selectedSize",
          "type": "string"
        },
        {
          "internalType": "uint256",
          "name": "quantity",
          "type": "uint256"
        }
      ],
      "name": "buyProduct",
      "outputs": [],
      "stateMutability": "payable",
      "type": "function"
    },
    {
      "inputs": [
        {
          "internalType": "address",
          "name": "",
          "type": "address"
        },
        {
          "internalType": "uint256",
          "name": "",
          "type": "uint256"
        }
      ],
      "name": "buyerPurchaseHistory",
      "outputs": [
        {
          "internalType": "uint256",
          "name": "productId",
          "type": "uint256"
        },
        {
          "internalType": "uint256",
          "name": "totalAmount",
          "type": "uint256"
        },
        {
          "internalType": "uint256",
          "name": "basePrice",
          "type": "uint256"
        },
        {
          "internalType": "uint256",
          "name": "timestamp",
          "type": "uint256"
        },
        {
          "internalType": "uint256",
          "name": "lastUpdated",
          "type": "uint256"
        },
        {
          "internalType": "address",
          "name": "buyer",
          "type": "address"
        },
        {
          "internalType": "address",
          "name": "seller",
          "type": "address"
        },
        {
          "internalType": "bool",
          "name": "isDelivered",
          "type": "bool"
        },
        {
          "components": [
            {
              "internalType": "string",
              "name": "fullName",
              "type": "string"
            },
            {
              "internalType": "string",
              "name": "streetAddress",
              "type": "string"
            },
            {
              "internalType": "string",
              "name": "city",
              "type": "string"
            },
            {
              "internalType": "string",
              "name": "state",
              "type": "string"
            },
            {
              "internalType": "string",
              "name": "country",
              "type": "string"
            },
            {
              "internalType": "string",
              "name": "postalCode",
              "type": "string"
            },
            {
              "internalType": "string",
              "name": "phone",
              "type": "string"
            },
            {
              "internalType": "string",
              "name": "email",
              "type": "string"
            }
          ],
          "internalType": "struct HemShop.ShippingDetails",
          "name": "shippingDetails",
          "type": "tuple"
        },
        {
          "components": [
            {
              "internalType": "string",
              "name": "name",
              "type": "string"
            },
            {
              "internalType": "string[]",
              "name": "images",
              "type": "string[]"
            },
            {
              "internalType": "string",
              "name": "selectedColor",
              "type": "string"
            },
            {
              "internalType": "string",
              "name": "selectedSize",
              "type": "string"
            },
            {
              "internalType": "uint256",
              "name": "quantity",
              "type": "uint256"
            },
            {
              "internalType": "string",
              "name": "category",
              "type": "string"
            },
            {
              "internalType": "string",
              "name": "description",
              "type": "string"
            }
          ],
          "internalType": "struct HemShop.OrderDetails",
          "name": "orderDetails",
          "type": "tuple"
        }
      ],
      "stateMutability": "view",
      "type": "function"
    },
    {
      "inputs": [
        {
          "internalType": "uint256",
          "name": "newPct",
          "type": "uint256"
        }
      ],
      "name": "changeServicePct",
      "outputs": [],
      "stateMutability": "nonpayable",
      "type": "function"
    },
    {
      "inputs": [
        {
          "internalType": "string",
          "name": "_name",
          "type": "string"
        }
      ],
      "name": "createCategory",
      "outputs": [],
      "stateMutability": "nonpayable",
      "type": "function"
    },
    {
      "inputs": [
        {
          "components": [
            {
              "internalType": "string",
              "name": "name",
              "type": "string"
            },
            {
              "internalType": "string",
              "name": "description",
              "type": "string"
            },
            {
              "internalType": "uint256",
              "name": "price",
              "type": "uint256"
            },
            {
              "internalType": "uint256",
              "name": "stock",
              "type": "uint256"
            },
            {
              "internalType": "string[]",
              "name": "colors",
              "type": "string[]"
            },
            {
              "internalType": "string[]",
              "name": "sizes",
              "type": "string[]"
            },
            {
              "internalType": "string[]",
              "name": "images",
              "type": "string[]"
            },
            {
              "internalType": "uint256",
              "name": "categoryId",
              "type": "uint256"
            },
            {
              "internalType": "uint256",
              "name": "subCategoryId",
              "type": "uint256"
            },
            {
              "internalType": "uint256",
              "name": "weight",
              "type": "uint256"
            },
            {
              "internalType": "string",
              "name": "model",
              "type": "string"
            },
            {
              "internalType": "string",
              "name": "brand",
              "type": "string"
            },
            {
              "internalType": "uint256",
              "name": "sku",
              "type": "uint256"
            }
          ],
          "internalType": "struct HemShop.ProductInput",
          "name": "input",
          "type": "tuple"
        }
      ],
      "name": "createProduct",
      "outputs": [],
      "stateMutability": "nonpayable",
      "type": "function"
    },
    {
      "inputs": [
        {
          "internalType": "uint256",
          "name": "productId",
          "type": "uint256"
        },
        {
          "internalType": "uint256",
          "name": "rating",
          "type": "uint256"
        },
        {
          "internalType": "string",
          "name": "comment",
          "type": "string"
        }
      ],
      "name": "createReview",
      "outputs": [],
      "stateMutability": "nonpayable",
      "type": "function"
    },
    {
      "inputs": [
        {
          "internalType": "uint256",
          "name": "parentId",
          "type": "uint256"
        },
        {
          "internalType": "string[]",
          "name": "names",
          "type": "string[]"
        }
      ],
      "name": "createSubCategoriesBulk",
      "outputs": [],
      "stateMutability": "nonpayable",
      "type": "function"
    },
    {
      "inputs": [
        {
          "internalType": "uint256",
          "name": "_parentId",
          "type": "uint256"
        },
        {
          "internalType": "string",
          "name": "_name",
          "type": "string"
        }
      ],
      "name": "createSubCategory",
      "outputs": [],
      "stateMutability": "nonpayable",
      "type": "function"
    },
    {
      "inputs": [
        {
          "internalType": "uint256",
          "name": "_id",
          "type": "uint256"
        }
      ],
      "name": "deleteCategory",
      "outputs": [],
      "stateMutability": "nonpayable",
      "type": "function"
    },
    {
      "inputs": [
        {
          "internalType": "uint256",
          "name": "productId",
          "type": "uint256"
        }
      ],
      "name": "deleteProduct",
      "outputs": [],
      "stateMutability": "nonpayable",
      "type": "function"
    },
    {
      "inputs": [
        {
          "internalType": "uint256",
          "name": "productId",
          "type": "uint256"
        },
        {
          "internalType": "uint256",
          "name": "reviewId",
          "type": "uint256"
        }
      ],
      "name": "deleteReview",
      "outputs": [],
      "stateMutability": "nonpayable",
      "type": "function"
    },
    {
      "inputs": [
        {
          "internalType": "uint256",
          "name": "_id",
          "type": "uint256"
        }
      ],
      "name": "deleteSubCategory",
      "outputs": [],
      "stateMutability": "nonpayable",
      "type": "function"
    },
    {
      "inputs": [],
      "name": "getAllCategories",
      "outputs": [
        {
          "internalType": "uint256[]",
          "name": "ids",
          "type": "uint256[]"
        },
        {
          "internalType": "string[]",
          "name": "names",
          "type": "string[]"
        },
        {
          "internalType": "bool[]",
          "name": "activeStates",
          "type": "bool[]"
        },
        {
          "internalType": "uint256[][]",
          "name": "subCategoryIdArrays",
          "type": "uint256[][]"
        }
      ],
      "stateMutability": "view",
      "type": "function"
    },
    {
      "inputs": [],
      "name": "getAllProducts",
      "outputs": [
        {
          "components": [
            {
              "internalType": "uint256",
              "name": "id",
              "type": "uint256"
            },
            {
              "internalType": "address",
              "name": "seller",
              "type": "address"
            },
            {
              "internalType": "string",
              "name": "name",
              "type": "string"
            },
            {
              "internalType": "string",
              "name": "description",
              "type": "string"
            },
            {
              "internalType": "uint256",
              "name": "price",
              "type": "uint256"
            },
            {
              "internalType": "uint256",
              "name": "stock",
              "type": "uint256"
            },
            {
              "internalType": "string[]",
              "name": "colors",
              "type": "string[]"
            },
            {
              "internalType": "string[]",
              "name": "sizes",
              "type": "string[]"
            },
            {
              "internalType": "string[]",
              "name": "images",
              "type": "string[]"
            },
            {
              "internalType": "string",
              "name": "category",
              "type": "string"
            },
            {
              "internalType": "string",
              "name": "subCategory",
              "type": "string"
            },
            {
              "internalType": "uint256",
              "name": "weight",
              "type": "uint256"
            },
            {
              "internalType": "string",
              "name": "model",
              "type": "string"
            },
            {
              "internalType": "string",
              "name": "brand",
              "type": "string"
            },
            {
              "internalType": "uint256",
              "name": "sku",
              "type": "uint256"
            },
            {
              "internalType": "bool",
              "name": "soldout",
              "type": "bool"
            },
            {
              "internalType": "bool",
              "name": "wishlist",
              "type": "bool"
            },
            {
              "internalType": "bool",
              "name": "deleted",
              "type": "bool"
            },
            {
              "components": [
                {
                  "internalType": "uint256",
                  "name": "reviewId",
                  "type": "uint256"
                },
                {
                  "internalType": "address",
                  "name": "reviewer",
                  "type": "address"
                },
                {
                  "internalType": "uint256",
                  "name": "rating",
                  "type": "uint256"
                },
                {
                  "internalType": "string",
                  "name": "comment",
                  "type": "string"
                },
                {
                  "internalType": "bool",
                  "name": "deleted",
                  "type": "bool"
                },
                {
                  "internalType": "uint256",
                  "name": "timestamp",
                  "type": "uint256"
                }
              ],
              "internalType": "struct HemShop.ReviewStruct[]",
              "name": "reviews",
              "type": "tuple[]"
            }
          ],
          "internalType": "struct HemShop.ProductStruct[]",
          "name": "",
          "type": "tuple[]"
        }
      ],
      "stateMutability": "view",
      "type": "function"
    },
    {
      "inputs": [],
      "name": "getAllRegisteredSellers",
      "outputs": [
        {
          "internalType": "address[]",
          "name": "",
          "type": "address[]"
        }
      ],
      "stateMutability": "view",
      "type": "function"
    },
    {
      "inputs": [
        {
          "internalType": "uint256",
          "name": "tokenId",
          "type": "uint256"
        }
      ],
      "name": "getApproved",
      "outputs": [
        {
          "internalType": "address",
          "name": "",
          "type": "address"
        }
      ],
      "stateMutability": "view",
      "type": "function"
    },
    {
      "inputs": [
        {
          "internalType": "address",
          "name": "buyer",
          "type": "address"
        }
      ],
      "name": "getBuyerPurchaseHistory",
      "outputs": [
        {
          "components": [
            {
              "internalType": "uint256",
              "name": "productId",
              "type": "uint256"
            },
            {
              "internalType": "uint256",
              "name": "totalAmount",
              "type": "uint256"
            },
            {
              "internalType": "uint256",
              "name": "basePrice",
              "type": "uint256"
            },
            {
              "internalType": "uint256",
              "name": "timestamp",
              "type": "uint256"
            },
            {
              "internalType": "uint256",
              "name": "lastUpdated",
              "type": "uint256"
            },
            {
              "internalType": "address",
              "name": "buyer",
              "type": "address"
            },
            {
              "internalType": "address",
              "name": "seller",
              "type": "address"
            },
            {
              "internalType": "bool",
              "name": "isDelivered",
              "type": "bool"
            },
            {
              "components": [
                {
                  "internalType": "string",
                  "name": "fullName",
                  "type": "string"
                },
                {
                  "internalType": "string",
                  "name": "streetAddress",
                  "type": "string"
                },
                {
                  "internalType": "string",
                  "name": "city",
                  "type": "string"
                },
                {
                  "internalType": "string",
                  "name": "state",
                  "type": "string"
                },
                {
                  "internalType": "string",
                  "name": "country",
                  "type": "string"
                },
                {
                  "internalType": "string",
                  "name": "postalCode",
                  "type": "string"
                },
                {
                  "internalType": "string",
                  "name": "phone",
                  "type": "string"
                },
                {
                  "internalType": "string",
                  "name": "email",
                  "type": "string"
                }
              ],
              "internalType": "struct HemShop.ShippingDetails",
              "name": "shippingDetails",
              "type": "tuple"
            },
            {
              "components": [
                {
                  "internalType": "string",
                  "name": "name",
                  "type": "string"
                },
                {
                  "internalType": "string[]",
                  "name": "images",
                  "type": "string[]"
                },
                {
                  "internalType": "string",
                  "name": "selectedColor",
                  "type": "string"
                },
                {
                  "internalType": "string",
                  "name": "selectedSize",
                  "type": "string"
                },
                {
                  "internalType": "uint256",
                  "name": "quantity",
                  "type": "uint256"
                },
                {
                  "internalType": "string",
                  "name": "category",
                  "type": "string"
                },
                {
                  "internalType": "string",
                  "name": "description",
                  "type": "string"
                }
              ],
              "internalType": "struct HemShop.OrderDetails",
              "name": "orderDetails",
              "type": "tuple"
            }
          ],
          "internalType": "struct HemShop.PurchaseHistoryStruct[]",
          "name": "",
          "type": "tuple[]"
        }
      ],
      "stateMutability": "view",
      "type": "function"
    },
    {
      "inputs": [
        {
          "internalType": "uint256",
          "name": "_id",
          "type": "uint256"
        }
      ],
      "name": "getCategory",
      "outputs": [
        {
          "internalType": "uint256",
          "name": "id",
          "type": "uint256"
        },
        {
          "internalType": "string",
          "name": "name",
          "type": "string"
        },
        {
          "internalType": "bool",
          "name": "isActive",
          "type": "bool"
        },
        {
          "internalType": "uint256[]",
          "name": "subCategoryIds",
          "type": "uint256[]"
        }
      ],
      "stateMutability": "view",
      "type": "function"
    },
    {
      "inputs": [],
      "name": "getMyProducts",
      "outputs": [
        {
          "components": [
            {
              "internalType": "uint256",
              "name": "id",
              "type": "uint256"
            },
            {
              "internalType": "address",
              "name": "seller",
              "type": "address"
            },
            {
              "internalType": "string",
              "name": "name",
              "type": "string"
            },
            {
              "internalType": "string",
              "name": "description",
              "type": "string"
            },
            {
              "internalType": "uint256",
              "name": "price",
              "type": "uint256"
            },
            {
              "internalType": "uint256",
              "name": "stock",
              "type": "uint256"
            },
            {
              "internalType": "string[]",
              "name": "colors",
              "type": "string[]"
            },
            {
              "internalType": "string[]",
              "name": "sizes",
              "type": "string[]"
            },
            {
              "internalType": "string[]",
              "name": "images",
              "type": "string[]"
            },
            {
              "internalType": "string",
              "name": "category",
              "type": "string"
            },
            {
              "internalType": "string",
              "name": "subCategory",
              "type": "string"
            },
            {
              "internalType": "uint256",
              "name": "weight",
              "type": "uint256"
            },
            {
              "internalType": "string",
              "name": "model",
              "type": "string"
            },
            {
              "internalType": "string",
              "name": "brand",
              "type": "string"
            },
            {
              "internalType": "uint256",
              "name": "sku",
              "type": "uint256"
            },
            {
              "internalType": "bool",
              "name": "soldout",
              "type": "bool"
            },
            {
              "internalType": "bool",
              "name": "wishlist",
              "type": "bool"
            },
            {
              "internalType": "bool",
              "name": "deleted",
              "type": "bool"
            },
            {
              "components": [
                {
                  "internalType": "uint256",
                  "name": "reviewId",
                  "type": "uint256"
                },
                {
                  "internalType": "address",
                  "name": "reviewer",
                  "type": "address"
                },
                {
                  "internalType": "uint256",
                  "name": "rating",
                  "type": "uint256"
                },
                {
                  "internalType": "string",
                  "name": "comment",
                  "type": "string"
                },
                {
                  "internalType": "bool",
                  "name": "deleted",
                  "type": "bool"
                },
                {
                  "internalType": "uint256",
                  "name": "timestamp",
                  "type": "uint256"
                }
              ],
              "internalType": "struct HemShop.ReviewStruct[]",
              "name": "reviews",
              "type": "tuple[]"
            }
          ],
          "internalType": "struct HemShop.ProductStruct[]",
          "name": "",
          "type": "tuple[]"
        }
      ],
      "stateMutability": "view",
      "type": "function"
    },
    {
      "inputs": [
        {
          "internalType": "uint256",
          "name": "productId",
          "type": "uint256"
        }
      ],
      "name": "getProduct",
      "outputs": [
        {
          "components": [
            {
              "internalType": "uint256",
              "name": "id",
              "type": "uint256"
            },
            {
              "internalType": "address",
              "name": "seller",
              "type": "address"
            },
            {
              "internalType": "string",
              "name": "name",
              "type": "string"
            },
            {
              "internalType": "string",
              "name": "description",
              "type": "string"
            },
            {
              "internalType": "uint256",
              "name": "price",
              "type": "uint256"
            },
            {
              "internalType": "uint256",
              "name": "stock",
              "type": "uint256"
            },
            {
              "internalType": "string[]",
              "name": "colors",
              "type": "string[]"
            },
            {
              "internalType": "string[]",
              "name": "sizes",
              "type": "string[]"
            },
            {
              "internalType": "string[]",
              "name": "images",
              "type": "string[]"
            },
            {
              "internalType": "string",
              "name": "category",
              "type": "string"
            },
            {
              "internalType": "string",
              "name": "subCategory",
              "type": "string"
            },
            {
              "internalType": "uint256",
              "name": "weight",
              "type": "uint256"
            },
            {
              "internalType": "string",
              "name": "model",
              "type": "string"
            },
            {
              "internalType": "string",
              "name": "brand",
              "type": "string"
            },
            {
              "internalType": "uint256",
              "name": "sku",
              "type": "uint256"
            },
            {
              "internalType": "bool",
              "name": "soldout",
              "type": "bool"
            },
            {
              "internalType": "bool",
              "name": "wishlist",
              "type": "bool"
            },
            {
              "internalType": "bool",
              "name": "deleted",
              "type": "bool"
            },
            {
              "components": [
                {
                  "internalType": "uint256",
                  "name": "reviewId",
                  "type": "uint256"
                },
                {
                  "internalType": "address",
                  "name": "reviewer",
                  "type": "address"
                },
                {
                  "internalType": "uint256",
                  "name": "rating",
                  "type": "uint256"
                },
                {
                  "internalType": "string",
                  "name": "comment",
                  "type": "string"
                },
                {
                  "internalType": "bool",
                  "name": "deleted",
                  "type": "bool"
                },
                {
                  "internalType": "uint256",
                  "name": "timestamp",
                  "type": "uint256"
                }
              ],
              "internalType": "struct HemShop.ReviewStruct[]",
              "name": "reviews",
              "type": "tuple[]"
            }
          ],
          "internalType": "struct HemShop.ProductStruct",
          "name": "",
          "type": "tuple"
        }
      ],
      "stateMutability": "view",
      "type": "function"
    },
    {
      "inputs": [
        {
          "internalType": "string",
          "name": "categoryName",
          "type": "string"
        }
      ],
      "name": "getProductsByCategory",
      "outputs": [
        {
          "components": [
            {
              "internalType": "uint256",
              "name": "id",
              "type": "uint256"
            },
            {
              "internalType": "address",
              "name": "seller",
              "type": "address"
            },
            {
              "internalType": "string",
              "name": "name",
              "type": "string"
            },
            {
              "internalType": "string",
              "name": "description",
              "type": "string"
            },
            {
              "internalType": "uint256",
              "name": "price",
              "type": "uint256"
            },
            {
              "internalType": "uint256",
              "name": "stock",
              "type": "uint256"
            },
            {
              "internalType": "string[]",
              "name": "colors",
              "type": "string[]"
            },
            {
              "internalType": "string[]",
              "name": "sizes",
              "type": "string[]"
            },
            {
              "internalType": "string[]",
              "name": "images",
              "type": "string[]"
            },
            {
              "internalType": "string",
              "name": "category",
              "type": "string"
            },
            {
              "internalType": "string",
              "name": "subCategory",
              "type": "string"
            },
            {
              "internalType": "uint256",
              "name": "weight",
              "type": "uint256"
            },
            {
              "internalType": "string",
              "name": "model",
              "type": "string"
            },
            {
              "internalType": "string",
              "name": "brand",
              "type": "string"
            },
            {
              "internalType": "uint256",
              "name": "sku",
              "type": "uint256"
            },
            {
              "internalType": "bool",
              "name": "soldout",
              "type": "bool"
            },
            {
              "internalType": "bool",
              "name": "wishlist",
              "type": "bool"
            },
            {
              "internalType": "bool",
              "name": "deleted",
              "type": "bool"
            },
            {
              "components": [
                {
                  "internalType": "uint256",
                  "name": "reviewId",
                  "type": "uint256"
                },
                {
                  "internalType": "address",
                  "name": "reviewer",
                  "type": "address"
                },
                {
                  "internalType": "uint256",
                  "name": "rating",
                  "type": "uint256"
                },
                {
                  "internalType": "string",
                  "name": "comment",
                  "type": "string"
                },
                {
                  "internalType": "bool",
                  "name": "deleted",
                  "type": "bool"
                },
                {
                  "internalType": "uint256",
                  "name": "timestamp",
                  "type": "uint256"
                }
              ],
              "internalType": "struct HemShop.ReviewStruct[]",
              "name": "reviews",
              "type": "tuple[]"
            }
          ],
          "internalType": "struct HemShop.ProductStruct[]",
          "name": "",
          "type": "tuple[]"
        }
      ],
      "stateMutability": "view",
      "type": "function"
    },
    {
      "inputs": [
        {
          "internalType": "uint256",
          "name": "productId",
          "type": "uint256"
        }
      ],
      "name": "getReviews",
      "outputs": [
        {
          "components": [
            {
              "internalType": "uint256",
              "name": "reviewId",
              "type": "uint256"
            },
            {
              "internalType": "address",
              "name": "reviewer",
              "type": "address"
            },
            {
              "internalType": "uint256",
              "name": "rating",
              "type": "uint256"
            },
            {
              "internalType": "string",
              "name": "comment",
              "type": "string"
            },
            {
              "internalType": "bool",
              "name": "deleted",
              "type": "bool"
            },
            {
              "internalType": "uint256",
              "name": "timestamp",
              "type": "uint256"
            }
          ],
          "internalType": "struct HemShop.ReviewStruct[]",
          "name": "",
          "type": "tuple[]"
        }
      ],
      "stateMutability": "view",
      "type": "function"
    },
    {
      "inputs": [
        {
          "internalType": "address",
          "name": "seller",
          "type": "address"
        }
      ],
      "name": "getSeller",
      "outputs": [
        {
          "components": [
            {
              "internalType": "string",
              "name": "businessName",
              "type": "string"
            },
            {
              "internalType": "string",
              "name": "description",
              "type": "string"
            },
            {
              "internalType": "string",
              "name": "email",
              "type": "string"
            },
            {
              "internalType": "string",
              "name": "phone",
              "type": "string"
            },
            {
              "internalType": "string",
              "name": "logo",
              "type": "string"
            },
            {
              "internalType": "uint256",
              "name": "registeredAt",
              "type": "uint256"
            },
            {
              "internalType": "bool",
              "name": "termsAccepted",
              "type": "bool"
            }
          ],
          "internalType": "struct HemShop.SellerProfile",
          "name": "profile",
          "type": "tuple"
        },
        {
          "internalType": "enum HemShop.SellerStatus",
          "name": "status",
          "type": "uint8"
        },
        {
          "internalType": "uint256",
          "name": "balance",
          "type": "uint256"
        },
        {
          "internalType": "uint256[]",
          "name": "productIds",
          "type": "uint256[]"
        }
      ],
      "stateMutability": "view",
      "type": "function"
    },
    {
      "inputs": [
        {
          "internalType": "address",
          "name": "seller",
          "type": "address"
        }
      ],
      "name": "getSellerBalance",
      "outputs": [
        {
          "internalType": "uint256",
          "name": "",
          "type": "uint256"
        }
      ],
      "stateMutability": "view",
      "type": "function"
    },
    {
      "inputs": [
        {
          "internalType": "address",
          "name": "seller",
          "type": "address"
        }
      ],
      "name": "getSellerProducts",
      "outputs": [
        {
          "components": [
            {
              "internalType": "uint256",
              "name": "id",
              "type": "uint256"
            },
            {
              "internalType": "address",
              "name": "seller",
              "type": "address"
            },
            {
              "internalType": "string",
              "name": "name",
              "type": "string"
            },
            {
              "internalType": "string",
              "name": "description",
              "type": "string"
            },
            {
              "internalType": "uint256",
              "name": "price",
              "type": "uint256"
            },
            {
              "internalType": "uint256",
              "name": "stock",
              "type": "uint256"
            },
            {
              "internalType": "string[]",
              "name": "colors",
              "type": "string[]"
            },
            {
              "internalType": "string[]",
              "name": "sizes",
              "type": "string[]"
            },
            {
              "internalType": "string[]",
              "name": "images",
              "type": "string[]"
            },
            {
              "internalType": "string",
              "name": "category",
              "type": "string"
            },
            {
              "internalType": "string",
              "name": "subCategory",
              "type": "string"
            },
            {
              "internalType": "uint256",
              "name": "weight",
              "type": "uint256"
            },
            {
              "internalType": "string",
              "name": "model",
              "type": "string"
            },
            {
              "internalType": "string",
              "name": "brand",
              "type": "string"
            },
            {
              "internalType": "uint256",
              "name": "sku",
              "type": "uint256"
            },
            {
              "internalType": "bool",
              "name": "soldout",
              "type": "bool"
            },
            {
              "internalType": "bool",
              "name": "wishlist",
              "type": "bool"
            },
            {
              "internalType": "bool",
              "name": "deleted",
              "type": "bool"
            },
            {
              "components": [
                {
                  "internalType": "uint256",
                  "name": "reviewId",
                  "type": "uint256"
                },
                {
                  "internalType": "address",
                  "name": "reviewer",
                  "type": "address"
                },
                {
                  "internalType": "uint256",
                  "name": "rating",
                  "type": "uint256"
                },
                {
                  "internalType": "string",
                  "name": "comment",
                  "type": "string"
                },
                {
                  "internalType": "bool",
                  "name": "deleted",
                  "type": "bool"
                },
                {
                  "internalType": "uint256",
                  "name": "timestamp",
                  "type": "uint256"
                }
              ],
              "internalType": "struct HemShop.ReviewStruct[]",
              "name": "reviews",
              "type": "tuple[]"
            }
          ],
          "internalType": "struct HemShop.ProductStruct[]",
          "name": "",
          "type": "tuple[]"
        }
      ],
      "stateMutability": "view",
      "type": "function"
    },
    {
      "inputs": [
        {
          "internalType": "address",
          "name": "seller",
          "type": "address"
        }
      ],
      "name": "getSellerProfile",
      "outputs": [
        {
          "components": [
            {
              "internalType": "string",
              "name": "businessName",
              "type": "string"
            },
            {
              "internalType": "string",
              "name": "description",
              "type": "string"
            },
            {
              "internalType": "string",
              "name": "email",
              "type": "string"
            },
            {
              "internalType": "string",
              "name": "phone",
              "type": "string"
            },
            {
              "internalType": "string",
              "name": "logo",
              "type": "string"
            },
            {
              "internalType": "uint256",
              "name": "registeredAt",
              "type": "uint256"
            },
            {
              "internalType": "bool",
              "name": "termsAccepted",
              "type": "bool"
            }
          ],
          "internalType": "struct HemShop.SellerProfile",
          "name": "",
          "type": "tuple"
        }
      ],
      "stateMutability": "view",
      "type": "function"
    },
    {
      "inputs": [
        {
          "internalType": "address",
          "name": "seller",
          "type": "address"
        }
      ],
      "name": "getSellerPurchaseHistory",
      "outputs": [
        {
          "components": [
            {
              "internalType": "uint256",
              "name": "productId",
              "type": "uint256"
            },
            {
              "internalType": "uint256",
              "name": "totalAmount",
              "type": "uint256"
            },
            {
              "internalType": "uint256",
              "name": "basePrice",
              "type": "uint256"
            },
            {
              "internalType": "uint256",
              "name": "timestamp",
              "type": "uint256"
            },
            {
              "internalType": "uint256",
              "name": "lastUpdated",
              "type": "uint256"
            },
            {
              "internalType": "address",
              "name": "buyer",
              "type": "address"
            },
            {
              "internalType": "address",
              "name": "seller",
              "type": "address"
            },
            {
              "internalType": "bool",
              "name": "isDelivered",
              "type": "bool"
            },
            {
              "components": [
                {
                  "internalType": "string",
                  "name": "fullName",
                  "type": "string"
                },
                {
                  "internalType": "string",
                  "name": "streetAddress",
                  "type": "string"
                },
                {
                  "internalType": "string",
                  "name": "city",
                  "type": "string"
                },
                {
                  "internalType": "string",
                  "name": "state",
                  "type": "string"
                },
                {
                  "internalType": "string",
                  "name": "country",
                  "type": "string"
                },
                {
                  "internalType": "string",
                  "name": "postalCode",
                  "type": "string"
                },
                {
                  "internalType": "string",
                  "name": "phone",
                  "type": "string"
                },
                {
                  "internalType": "string",
                  "name": "email",
                  "type": "string"
                }
              ],
              "internalType": "struct HemShop.ShippingDetails",
              "name": "shippingDetails",
              "type": "tuple"
            },
            {
              "components": [
                {
                  "internalType": "string",
                  "name": "name",
                  "type": "string"
                },
                {
                  "internalType": "string[]",
                  "name": "images",
                  "type": "string[]"
                },
                {
                  "internalType": "string",
                  "name": "selectedColor",
                  "type": "string"
                },
                {
                  "internalType": "string",
                  "name": "selectedSize",
                  "type": "string"
                },
                {
                  "internalType": "uint256",
                  "name": "quantity",
                  "type": "uint256"
                },
                {
                  "internalType": "string",
                  "name": "category",
                  "type": "string"
                },
                {
                  "internalType": "string",
                  "name": "description",
                  "type": "string"
                }
              ],
              "internalType": "struct HemShop.OrderDetails",
              "name": "orderDetails",
              "type": "tuple"
            }
          ],
          "internalType": "struct HemShop.PurchaseHistoryStruct[]",
          "name": "",
          "type": "tuple[]"
        }
      ],
      "stateMutability": "view",
      "type": "function"
    },
    {
      "inputs": [
        {
          "internalType": "address",
          "name": "seller",
          "type": "address"
        }
      ],
      "name": "getSellerStatus",
      "outputs": [
        {
          "internalType": "enum HemShop.SellerStatus",
          "name": "",
          "type": "uint8"
        }
      ],
      "stateMutability": "view",
      "type": "function"
    },
    {
      "inputs": [
        {
          "internalType": "uint256",
          "name": "_id",
          "type": "uint256"
        }
      ],
      "name": "getSubCategory",
      "outputs": [
        {
          "internalType": "uint256",
          "name": "id",
          "type": "uint256"
        },
        {
          "internalType": "string",
          "name": "name",
          "type": "string"
        },
        {
          "internalType": "uint256",
          "name": "parentCategoryId",
          "type": "uint256"
        },
        {
          "internalType": "bool",
          "name": "isActive",
          "type": "bool"
        }
      ],
      "stateMutability": "view",
      "type": "function"
    },
    {
      "inputs": [
        {
          "internalType": "address",
          "name": "user",
          "type": "address"
        }
      ],
      "name": "getUser",
      "outputs": [
        {
          "internalType": "bool",
          "name": "isRegistered",
          "type": "bool"
        },
        {
          "components": [
            {
              "internalType": "string",
              "name": "name",
              "type": "string"
            },
            {
              "internalType": "string",
              "name": "email",
              "type": "string"
            },
            {
              "internalType": "string",
              "name": "avatar",
              "type": "string"
            },
            {
              "internalType": "uint256",
              "name": "registeredAt",
              "type": "uint256"
            },
            {
              "internalType": "bool",
              "name": "isActive",
              "type": "bool"
            }
          ],
          "internalType": "struct HemShop.UserProfile",
          "name": "profile",
          "type": "tuple"
        },
        {
          "internalType": "bool",
          "name": "isUserSeller",
          "type": "bool"
        },
        {
          "internalType": "enum HemShop.SellerStatus",
          "name": "sellerState",
          "type": "uint8"
        }
      ],
      "stateMutability": "view",
      "type": "function"
    },
    {
      "inputs": [
        {
          "internalType": "address",
          "name": "account",
          "type": "address"
        }
      ],
      "name": "impersonateAccount",
      "outputs": [],
      "stateMutability": "nonpayable",
      "type": "function"
    },
    {
      "inputs": [
        {
          "internalType": "address",
          "name": "owner",
          "type": "address"
        },
        {
          "internalType": "address",
          "name": "operator",
          "type": "address"
        }
      ],
      "name": "isApprovedForAll",
      "outputs": [
        {
          "internalType": "bool",
          "name": "",
          "type": "bool"
        }
      ],
      "stateMutability": "view",
      "type": "function"
    },
    {
      "inputs": [
        {
          "internalType": "uint256",
          "name": "productId",
          "type": "uint256"
        },
        {
          "internalType": "address",
          "name": "buyer",
          "type": "address"
        }
      ],
      "name": "markPurchaseDelivered",
      "outputs": [],
      "stateMutability": "nonpayable",
      "type": "function"
    },
    {
      "inputs": [],
      "name": "name",
      "outputs": [
        {
          "internalType": "string",
          "name": "",
          "type": "string"
        }
      ],
      "stateMutability": "view",
      "type": "function"
    },
    {
      "inputs": [],
      "name": "owner",
      "outputs": [
        {
          "internalType": "address",
          "name": "",
          "type": "address"
        }
      ],
      "stateMutability": "view",
      "type": "function"
    },
    {
      "inputs": [
        {
          "internalType": "uint256",
          "name": "tokenId",
          "type": "uint256"
        }
      ],
      "name": "ownerOf",
      "outputs": [
        {
          "internalType": "address",
          "name": "",
          "type": "address"
        }
      ],
      "stateMutability": "view",
      "type": "function"
    },
    {
      "inputs": [
        {
          "internalType": "uint256",
          "name": "",
          "type": "uint256"
        }
      ],
      "name": "productExists",
      "outputs": [
        {
          "internalType": "bool",
          "name": "",
          "type": "bool"
        }
      ],
      "stateMutability": "view",
      "type": "function"
    },
    {
      "inputs": [
        {
          "internalType": "uint256",
          "name": "",
          "type": "uint256"
        }
      ],
      "name": "products",
      "outputs": [
        {
          "internalType": "uint256",
          "name": "id",
          "type": "uint256"
        },
        {
          "internalType": "address",
          "name": "seller",
          "type": "address"
        },
        {
          "internalType": "string",
          "name": "name",
          "type": "string"
        },
        {
          "internalType": "string",
          "name": "description",
          "type": "string"
        },
        {
          "internalType": "uint256",
          "name": "price",
          "type": "uint256"
        },
        {
          "internalType": "uint256",
          "name": "stock",
          "type": "uint256"
        },
        {
          "internalType": "string",
          "name": "category",
          "type": "string"
        },
        {
          "internalType": "string",
          "name": "subCategory",
          "type": "string"
        },
        {
          "internalType": "uint256",
          "name": "weight",
          "type": "uint256"
        },
        {
          "internalType": "string",
          "name": "model",
          "type": "string"
        },
        {
          "internalType": "string",
          "name": "brand",
          "type": "string"
        },
        {
          "internalType": "uint256",
          "name": "sku",
          "type": "uint256"
        },
        {
          "internalType": "bool",
          "name": "soldout",
          "type": "bool"
        },
        {
          "internalType": "bool",
          "name": "wishlist",
          "type": "bool"
        },
        {
          "internalType": "bool",
          "name": "deleted",
          "type": "bool"
        }
      ],
      "stateMutability": "view",
      "type": "function"
    },
    {
      "inputs": [
        {
          "internalType": "string",
          "name": "businessName",
          "type": "string"
        },
        {
          "internalType": "string",
          "name": "description",
          "type": "string"
        },
        {
          "internalType": "string",
          "name": "email",
          "type": "string"
        },
        {
          "internalType": "string",
          "name": "phone",
          "type": "string"
        },
        {
          "internalType": "string",
          "name": "logo",
          "type": "string"
        }
      ],
      "name": "registerSeller",
      "outputs": [],
      "stateMutability": "nonpayable",
      "type": "function"
    },
    {
      "inputs": [
        {
          "internalType": "string",
          "name": "name",
          "type": "string"
        },
        {
          "internalType": "string",
          "name": "email",
          "type": "string"
        },
        {
          "internalType": "string",
          "name": "avatar",
          "type": "string"
        }
      ],
      "name": "registerUser",
      "outputs": [],
      "stateMutability": "nonpayable",
      "type": "function"
    },
    {
      "inputs": [
        {
          "internalType": "address",
          "name": "",
          "type": "address"
        }
      ],
      "name": "registeredSellers",
      "outputs": [
        {
          "internalType": "bool",
          "name": "",
          "type": "bool"
        }
      ],
      "stateMutability": "view",
      "type": "function"
    },
    {
      "inputs": [
        {
          "internalType": "address",
          "name": "",
          "type": "address"
        }
      ],
      "name": "registeredUsers",
      "outputs": [
        {
          "internalType": "bool",
          "name": "",
          "type": "bool"
        }
      ],
      "stateMutability": "view",
      "type": "function"
    },
    {
      "inputs": [],
      "name": "renounceOwnership",
      "outputs": [],
      "stateMutability": "nonpayable",
      "type": "function"
    },
    {
      "inputs": [
        {
          "internalType": "uint256",
          "name": "",
          "type": "uint256"
        }
      ],
      "name": "reviewExists",
      "outputs": [
        {
          "internalType": "bool",
          "name": "",
          "type": "bool"
        }
      ],
      "stateMutability": "view",
      "type": "function"
    },
    {
      "inputs": [
        {
          "internalType": "address",
          "name": "from",
          "type": "address"
        },
        {
          "internalType": "address",
          "name": "to",
          "type": "address"
        },
        {
          "internalType": "uint256",
          "name": "tokenId",
          "type": "uint256"
        }
      ],
      "name": "safeTransferFrom",
      "outputs": [],
      "stateMutability": "nonpayable",
      "type": "function"
    },
    {
      "inputs": [
        {
          "internalType": "address",
          "name": "from",
          "type": "address"
        },
        {
          "internalType": "address",
          "name": "to",
          "type": "address"
        },
        {
          "internalType": "uint256",
          "name": "tokenId",
          "type": "uint256"
        },
        {
          "internalType": "bytes",
          "name": "data",
          "type": "bytes"
        }
      ],
      "name": "safeTransferFrom",
      "outputs": [],
      "stateMutability": "nonpayable",
      "type": "function"
    },
    {
      "inputs": [
        {
          "internalType": "address",
          "name": "",
          "type": "address"
        }
      ],
      "name": "sellerBalances",
      "outputs": [
        {
          "internalType": "uint256",
          "name": "",
          "type": "uint256"
        }
      ],
      "stateMutability": "view",
      "type": "function"
    },
    {
      "inputs": [
        {
          "internalType": "address",
          "name": "",
          "type": "address"
        },
        {
          "internalType": "uint256",
          "name": "",
          "type": "uint256"
        }
      ],
      "name": "sellerProducts",
      "outputs": [
        {
          "internalType": "uint256",
          "name": "",
          "type": "uint256"
        }
      ],
      "stateMutability": "view",
      "type": "function"
    },
    {
      "inputs": [
        {
          "internalType": "address",
          "name": "",
          "type": "address"
        }
      ],
      "name": "sellerProfiles",
      "outputs": [
        {
          "internalType": "string",
          "name": "businessName",
          "type": "string"
        },
        {
          "internalType": "string",
          "name": "description",
          "type": "string"
        },
        {
          "internalType": "string",
          "name": "email",
          "type": "string"
        },
        {
          "internalType": "string",
          "name": "phone",
          "type": "string"
        },
        {
          "internalType": "string",
          "name": "logo",
          "type": "string"
        },
        {
          "internalType": "uint256",
          "name": "registeredAt",
          "type": "uint256"
        },
        {
          "internalType": "bool",
          "name": "termsAccepted",
          "type": "bool"
        }
      ],
      "stateMutability": "view",
      "type": "function"
    },
    {
      "inputs": [
        {
          "internalType": "address",
          "name": "",
          "type": "address"
        },
        {
          "internalType": "uint256",
          "name": "",
          "type": "uint256"
        }
      ],
      "name": "sellerPurchaseHistory",
      "outputs": [
        {
          "internalType": "uint256",
          "name": "productId",
          "type": "uint256"
        },
        {
          "internalType": "uint256",
          "name": "totalAmount",
          "type": "uint256"
        },
        {
          "internalType": "uint256",
          "name": "basePrice",
          "type": "uint256"
        },
        {
          "internalType": "uint256",
          "name": "timestamp",
          "type": "uint256"
        },
        {
          "internalType": "uint256",
          "name": "lastUpdated",
          "type": "uint256"
        },
        {
          "internalType": "address",
          "name": "buyer",
          "type": "address"
        },
        {
          "internalType": "address",
          "name": "seller",
          "type": "address"
        },
        {
          "internalType": "bool",
          "name": "isDelivered",
          "type": "bool"
        },
        {
          "components": [
            {
              "internalType": "string",
              "name": "fullName",
              "type": "string"
            },
            {
              "internalType": "string",
              "name": "streetAddress",
              "type": "string"
            },
            {
              "internalType": "string",
              "name": "city",
              "type": "string"
            },
            {
              "internalType": "string",
              "name": "state",
              "type": "string"
            },
            {
              "internalType": "string",
              "name": "country",
              "type": "string"
            },
            {
              "internalType": "string",
              "name": "postalCode",
              "type": "string"
            },
            {
              "internalType": "string",
              "name": "phone",
              "type": "string"
            },
            {
              "internalType": "string",
              "name": "email",
              "type": "string"
            }
          ],
          "internalType": "struct HemShop.ShippingDetails",
          "name": "shippingDetails",
          "type": "tuple"
        },
        {
          "components": [
            {
              "internalType": "string",
              "name": "name",
              "type": "string"
            },
            {
              "internalType": "string[]",
              "name": "images",
              "type": "string[]"
            },
            {
              "internalType": "string",
              "name": "selectedColor",
              "type": "string"
            },
            {
              "internalType": "string",
              "name": "selectedSize",
              "type": "string"
            },
            {
              "internalType": "uint256",
              "name": "quantity",
              "type": "uint256"
            },
            {
              "internalType": "string",
              "name": "category",
              "type": "string"
            },
            {
              "internalType": "string",
              "name": "description",
              "type": "string"
            }
          ],
          "internalType": "struct HemShop.OrderDetails",
          "name": "orderDetails",
          "type": "tuple"
        }
      ],
      "stateMutability": "view",
      "type": "function"
    },
    {
      "inputs": [
        {
          "internalType": "address",
          "name": "",
          "type": "address"
        }
      ],
      "name": "sellerStatus",
      "outputs": [
        {
          "internalType": "enum HemShop.SellerStatus",
          "name": "",
          "type": "uint8"
        }
      ],
      "stateMutability": "view",
      "type": "function"
    },
    {
      "inputs": [],
      "name": "servicePct",
      "outputs": [
        {
          "internalType": "uint256",
          "name": "",
          "type": "uint256"
        }
      ],
      "stateMutability": "view",
      "type": "function"
    },
    {
      "inputs": [
        {
          "internalType": "address",
          "name": "operator",
          "type": "address"
        },
        {
          "internalType": "bool",
          "name": "approved",
          "type": "bool"
        }
      ],
      "name": "setApprovalForAll",
      "outputs": [],
      "stateMutability": "nonpayable",
      "type": "function"
    },
    {
      "inputs": [],
      "name": "stopImpersonating",
      "outputs": [],
      "stateMutability": "nonpayable",
      "type": "function"
    },
    {
      "inputs": [
        {
          "internalType": "bytes4",
          "name": "interfaceId",
          "type": "bytes4"
        }
      ],
      "name": "supportsInterface",
      "outputs": [
        {
          "internalType": "bool",
          "name": "",
          "type": "bool"
        }
      ],
      "stateMutability": "view",
      "type": "function"
    },
    {
      "inputs": [],
      "name": "symbol",
      "outputs": [
        {
          "internalType": "string",
          "name": "",
          "type": "string"
        }
      ],
      "stateMutability": "view",
      "type": "function"
    },
    {
      "inputs": [
        {
          "internalType": "uint256",
          "name": "tokenId",
          "type": "uint256"
        }
      ],
      "name": "tokenURI",
      "outputs": [
        {
          "internalType": "string",
          "name": "",
          "type": "string"
        }
      ],
      "stateMutability": "view",
      "type": "function"
    },
    {
      "inputs": [
        {
          "internalType": "address",
          "name": "from",
          "type": "address"
        },
        {
          "internalType": "address",
          "name": "to",
          "type": "address"
        },
        {
          "internalType": "uint256",
          "name": "tokenId",
          "type": "uint256"
        }
      ],
      "name": "transferFrom",
      "outputs": [],
      "stateMutability": "nonpayable",
      "type": "function"
    },
    {
      "inputs": [
        {
          "internalType": "address",
          "name": "newOwner",
          "type": "address"
        }
      ],
      "name": "transferOwnership",
      "outputs": [],
      "stateMutability": "nonpayable",
      "type": "function"
    },
    {
      "inputs": [
        {
          "internalType": "uint256",
          "name": "_id",
          "type": "uint256"
        },
        {
          "internalType": "string",
          "name": "_name",
          "type": "string"
        },
        {
          "internalType": "bool",
          "name": "_isActive",
          "type": "bool"
        }
      ],
      "name": "updateCategory",
      "outputs": [],
      "stateMutability": "nonpayable",
      "type": "function"
    },
    {
      "inputs": [
        {
          "internalType": "uint256",
          "name": "productId",
          "type": "uint256"
        },
        {
          "components": [
            {
              "internalType": "string",
              "name": "name",
              "type": "string"
            },
            {
              "internalType": "string",
              "name": "description",
              "type": "string"
            },
            {
              "internalType": "uint256",
              "name": "price",
              "type": "uint256"
            },
            {
              "internalType": "uint256",
              "name": "stock",
              "type": "uint256"
            },
            {
              "internalType": "string[]",
              "name": "colors",
              "type": "string[]"
            },
            {
              "internalType": "string[]",
              "name": "sizes",
              "type": "string[]"
            },
            {
              "internalType": "string[]",
              "name": "images",
              "type": "string[]"
            },
            {
              "internalType": "uint256",
              "name": "categoryId",
              "type": "uint256"
            },
            {
              "internalType": "uint256",
              "name": "subCategoryId",
              "type": "uint256"
            },
            {
              "internalType": "uint256",
              "name": "weight",
              "type": "uint256"
            },
            {
              "internalType": "string",
              "name": "model",
              "type": "string"
            },
            {
              "internalType": "string",
              "name": "brand",
              "type": "string"
            },
            {
              "internalType": "uint256",
              "name": "sku",
              "type": "uint256"
            }
          ],
          "internalType": "struct HemShop.ProductInput",
          "name": "input",
          "type": "tuple"
        }
      ],
      "name": "updateProduct",
      "outputs": [],
      "stateMutability": "nonpayable",
      "type": "function"
    },
    {
      "inputs": [
        {
          "internalType": "address",
          "name": "seller",
          "type": "address"
        },
        {
          "internalType": "enum HemShop.SellerStatus",
          "name": "newStatus",
          "type": "uint8"
        }
      ],
      "name": "updateSellerStatus",
      "outputs": [],
      "stateMutability": "nonpayable",
      "type": "function"
    },
    {
      "inputs": [
        {
          "internalType": "uint256",
          "name": "_id",
          "type": "uint256"
        },
        {
          "internalType": "string",
          "name": "_name",
          "type": "string"
        },
        {
          "internalType": "bool",
          "name": "_isActive",
          "type": "bool"
        }
      ],
      "name": "updateSubCategory",
      "outputs": [],
      "stateMutability": "nonpayable",
      "type": "function"
    },
    {
      "inputs": [
        {
          "internalType": "address",
          "name": "",
          "type": "address"
        }
      ],
      "name": "userProfiles",
      "outputs": [
        {
          "internalType": "string",
          "name": "name",
          "type": "string"
        },
        {
          "internalType": "string",
          "name": "email",
          "type": "string"
        },
        {
          "internalType": "string",
          "name": "avatar",
          "type": "string"
        },
        {
          "internalType": "uint256",
          "name": "registeredAt",
          "type": "uint256"
        },
        {
          "internalType": "bool",
          "name": "isActive",
          "type": "bool"
        }
      ],
      "stateMutability": "view",
      "type": "function"
    },
    {
      "inputs": [
        {
          "internalType": "uint256",
          "name": "",
          "type": "uint256"
        }
      ],
      "name": "usersList",
      "outputs": [
        {
          "internalType": "address",
          "name": "",
          "type": "address"
        }
      ],
      "stateMutability": "view",
      "type": "function"
    },
    {
      "inputs": [],
      "name": "withdraw",
      "outputs": [],
      "stateMutability": "nonpayable",
      "type": "function"
    }
  ],
  "bytecode": "0x6080346200037757601f90601f196001600160401b0362009d033881900385810184168501838111868210176200037c57859282916040528339602094859181010312620003775751936200005362000392565b926007845266048656d53686f760cc1b858501526200007162000392565b60038082526204873760ec1b8783015260008054336001600160a01b031982168117835592989394919392906001600160a01b03167f8be0079c531659141344cd1fd0a4f28419497f9722a3daafe3b4186f6b6457e08580a360019687805580519087821162000363576002548981811c9116801562000358575b858210146200034457908188849311620002f0575b5084908883116001146200028e57869262000282575b5050600019828b1b1c191690881b176002555b83519586116200026e5787548781811c9116801562000263575b838210146200024f5785811162000207575b5081948611600114620001a25750509183949184939462000196575b50501b9160001990841b1c19161790555b600d556040516199509081620003b38239f35b01519250388062000172565b8783528183209493928692918316915b88838310620001ec5750505010620001d3575b505050811b01905562000183565b015160001983861b60f8161c19169055388080620001c5565b858701518855909601959485019487935090810190620001b2565b8884528284208680890160051c820192858a1062000245575b0160051c019088905b8281106200023957505062000156565b85815501889062000229565b9250819262000220565b634e487b7160e01b84526022600452602484fd5b90607f169062000144565b634e487b7160e01b83526041600452602483fd5b01519050388062000117565b90848b9416916002885286882092885b88828210620002d95750508411620002c0575b505050811b016002556200012a565b0151600019838d1b60f8161c19169055388080620002b1565b8385015186558e979095019493840193016200029e565b909150600286528486208880850160051c8201928786106200033a575b918c91869594930160051c01915b8281106200032b57505062000101565b8881558594508c91016200031b565b925081926200030d565b634e487b7160e01b86526022600452602486fd5b90607f1690620000ec565b634e487b7160e01b85526041600452602485fd5b600080fd5b634e487b7160e01b600052604160045260246000fd5b60408051919082016001600160401b038111838210176200037c5760405256fe608080604052600436101561001357600080fd5b60003560e01c908162d64e7614616a815750806301ffc9a714616a1357806302ee3a521461679857806306fdde03146166f3578063081812fc146166d5578063095ea7b31461655b5780630e50cee51461651c57806311aa5b34146164f85780631385fd92146164a457806316d81b38146162c157806317e98548146162495780632053fba614615d0e5780632148893f1461537b57806323b872dd14615ce557806324d41a0314615ac2578063317a08271461597b578063332d56d7146158ba5780633c2575d5146157b65780633ccfd60b1461567857806342842e0e146156505780634293e5ce1461554e57806345de84db1461550c578063502aa3b5146154c35780635ad6a580146154185780635be20959146153b5578063607eb4e41461537b5780636352211e1461534b57806366224d8e146151f55780636f2c85991461514a5780636f77926b14614fc757806370a0823114614f30578063715018a614614ee95780637acc0b2014614d2a5780637d3978db14614b0c5780637e8555ed14614360578063868a5461146138505780638da5cb5b146138275780638f38cc7b146135015780639196dfcb146133e757806395d89b411461330557806397b6f393146131c75780639d4a2255146130345780639fa44dbf14612fec578063a22cb46514612f21578063a22fb38714612e76578063a323d29e14612d23578063af55ed6414612cf2578063b27e169714612bee578063b88d4fde14612b8f578063b95a062814612b54578063b9db15b41461293a578063c1302b34146128e2578063c64b8a8f146128a3578063c87b56dd14612849578063ceca737f146127c5578063d2bc9d7814612518578063d637dcfa14612079578063dadd0a5714611d79578063dc29868214611b58578063e01ef6e614611b3a578063e40971e514610c75578063e585cb2c14610bd2578063e6a93e1614610918578063e985e9c5146108c2578063eb11c43414610890578063ed90c7b714610756578063f2fde38b146106a7578063f3052d26146105e75763fdca4ca31461031557600080fd5b346105e25760003660031901126105e25760088054600060015b8281111561058157506103419061848d565b9060009260015b82811115610362576040518061035e8682616d3b565b0390f35b600081815260156020908152604090912060018101546001600160a01b031691903383148061056f575b6103a2575b50505061039d9061847e565b610348565b604097939751926103b284616dc9565b81548452828401526040516103d5816103ce816002860161700f565b0382616ea4565b60408401526040516103ee816103ce816003860161700f565b606084015260048101546080840152600581015460a084015260069061041582820161745a565b60c08501526104266007820161745a565b60e085015261043686820161745a565b610100850152604051610450816103ce816009860161700f565b61012085015260405161046a816103ce81600a860161700f565b610140850152600b81015461016085015260405161048f816103ce81600c860161700f565b6101808501526040516104a9816103ce81600d860161700f565b6101a0850152600e8101546101c0850152600f81015460ff80821615156101e087015281881c81161515610200870152601091821c16151561022086015201805491906104f583617443565b936105036040519586616ea4565b8385526000918252808220918186015b85821061055357505050505050918161039d9361024061054a94015261053982886184dd565b5261054481876184dd565b5061847e565b94903880610391565b84836001926105618761841d565b815201940191019092610513565b5060ff600f82015460101c161561038c565b600081815260156020526040902060018101546001600160a01b0316331490816105cf575b506105ba575b6105b59061847e565b61032f565b906105c76105b59161847e565b9190506105ac565b60ff9150600f015460101c1615386105a6565b600080fd5b346105e25760203660031901126105e2576004356000526018602052604060002060405161061481616e38565b8154815261035e6040519161063783610630816001880161700f565b0384616ea4565b6020810192835261065b600360ff6002870154169560408401961515875201618652565b906060810191825261066f815115156185a3565b5192519351151590516106946040519586958652608060208701526080860190616aae565b91604085015283820360608501526175be565b346105e25760203660031901126105e2576106c0616d9d565b6106c86175f2565b6001600160a01b03908116908115610702576000548260018060a01b03198216176000551660008051602061985b833981519152600080a3005b60405162461bcd60e51b815260206004820152602660248201527f4f776e61626c653a206e6577206f776e657220697320746865207a65726f206160448201526564647265737360d01b6064820152608490fd5b346105e2576020806003193601126105e25760043590816000526017815261078560ff604060002054166182bf565b6000828152601582526040902060010154336001600160a01b0391821614908115610882575b501561082e57816000526015815260ff600f6040600020015460101c166107ed5760009182526015905260409020600f01805462ff0000191662010000179055005b6064906040519062461bcd60e51b82526004820152601a602482015279141c9bd91d58dd081a5cc8185b1c9958591e4819195b195d195960321b6044820152fd5b6084906040519062461bcd60e51b82526004820152602760248201527f4f6e6c792070726f647563742073656c6c6572206f72206f776e65722063616e6044820152662064656c65746560c81b6064820152fd5b6000541633149050836107ab565b346105e25760203660031901126105e25760206108b36108ae616d9d565b617c53565b6108c06040518092617336565bf35b346105e25760403660031901126105e2576108db616d9d565b6108e3616db3565b9060018060a01b03809116600052600760205260406000209116600052602052602060ff604060002054166040519015158152f35b346105e25760203660031901126105e257610931616d9d565b600854600060015b82811115610b6e575061094b9061848d565b90600160005b82821115610967576040518061035e8682616d3b565b600082815260156020526040902060018101546001600160a01b0390811691908716821480610b5c575b6109a8575b5050906109a29061847e565b90610951565b604051916109b583616dc9565b8154835260208301526040516109d2816103ce816002860161700f565b60408301526040516109eb816103ce816003860161700f565b606083015260048101546080830152600581015460a0830152610a106006820161745a565b60c0830152610a216007820161745a565b60e0830152610a326008820161745a565b610100830152604051610a4c816103ce816009860161700f565b610120830152604051610a66816103ce81600a860161700f565b610140830152600b810154610160830152604051610a8b816103ce81600c860161700f565b610180830152604051610aa5816103ce81600d860161700f565b6101a0830152600e8101546101c0830152600f8101549060ff80831615156101e0850152808360081c161515610200850152601092831c16151561022084015201805490610af282617443565b91610b006040519384616ea4565b808352602083019160005260206000206000925b828410610b3e57505050506102408201526109a291610b379161053982886184dd565b9086610996565b60066020600192610b4e8561841d565b815201920193019290610b14565b5060ff600f82015460101c1615610991565b600081815260156020526040902060018101546001600160a01b038681169116149081610bbf575b50610baa575b610ba59061847e565b610939565b90610bb7610ba59161847e565b919050610b9c565b60ff9150600f015460101c161585610b96565b346105e25760403660031901126105e257610beb616d9d565b6001600160a01b039081166000908152601c602052604090208054602435908110156105e257610c1a9161735b565b509061035e825460018401549360028101549160038201549060048301548660058501541690600685015493610c5e600f610c5760078901617377565b97016174bf565b966040519a8b9a60ff8860a01c169716958b61755a565b346105e2576003196020368201126105e2576001600160401b03600435116105e2576101a090600435360301126105e25733600052601260205260ff604060002054166004811015611b24576002148015611b10575b15611acc57610cea610ce1600480350180617cc7565b90501515617b37565b610cfb604460043501351515617cf9565b610d0c606460043501351515617d44565b60e4600435013515611a7c57610104600435013515611a2957610d3761012460043501351515617d8f565b610d58610d4f61014460043501600435600401617cc7565b90501515617ddb565b610d79610d7061016460043501600435600401617cc7565b90501515617e1f565b610d8b61018460043501351515617e63565b610dab610da260c460043501600435600401617eac565b90501515617ee1565b610dcd6005610dc460c460043501600435600401617eac565b90501115617f26565b60016008540180600855610ddf617f71565b81815233602082015290610e01610dfa600480350180617cc7565b3691616ee2565b6040830152610e1d610dfa602460043501600435600401617cc7565b60608301526044600435013560808301526064600435013560a0830152610e58610e51608460043501600435600401617eac565b3691617ffd565b60c0830152610e74610e5160a460043501600435600401617eac565b60e0830152610e90610e5160c460043501600435600401617eac565b61010083015260e4600435013560005260186020526103ce610ebf60016040600020016040519283809261700f565b610120830152610104600435013560005260196020526103ce610eef60016040600020016040519283809261700f565b610140830152610f0d610dfa61014460043501600435600401617cc7565b610180830152610f2b610dfa61016460043501600435600401617cc7565b6101a083015260043561012481013561016084015261018401356101c083015233156119e557610f63610f5d826179ad565b15618274565b610f6f610f5d826179ad565b33600052600560205260406000206001815401905580600052600460205260406000203360018060a01b03198254161790558033600060008051602061989b8339815191528180a46015602052604060002090825182556001820160018060a01b0360208501511660018060a01b0319825416179055604083015192835160018060401b03811161144f576110148161100b6002870154616fd5565b60028701617b91565b6020601f821160011461197657819293949560009261196b575b50508160011b916000199060031b1c19161760028401555b606081015180519093906001600160401b03811161144f576110788161106f6003850154616fd5565b60038501617b91565b6020601f82116001146118fc5781929394956000926118f1575b50508160011b916000199060031b1c19161760038201555b6080820151600482015560a082015160058201556006810160c083015160208151916110d683856180c8565b01916000526020600020916000905b82821061181457505050506007810160e0830151602081519161110883856180c8565b01916000526020600020916000905b828210611737575050505060088101610100830151602081519161113b83856180c8565b01916000526020600020916000905b828210611654575050505061012082015180519093906001600160401b03811161144f576111888161117f6009860154616fd5565b60098601617b91565b6020601f82116001146115e55781929394956000926115da575b50508160011b916000199060031b1c19161760098301555b61014083015180519093906001600160401b03811161144f576111ed816111e4600a870154616fd5565b600a8701617b91565b6020601f821160011461156b578192939495600092611560575b50508160011b916000199060031b1c191617600a8401555b610160810151600b84015561018081015180519093906001600160401b03811161144f5761125d81611254600c850154616fd5565b600c8501617b91565b6020601f82116001146114f15781929394956000926114e6575b50508160011b916000199060031b1c191617600c8201555b6101a08201518051906001600160401b03821161144f576112c0826112b7600d860154616fd5565b600d8601617b91565b602090601f83116001146114705791806102409492601094600092611465575b50508160011b916000199060031b1c191617600d8201555b6101c0840151600e820155600f81016113186101e086015115158261799c565b6102008501511515815461ff0062ff00006102208901511515871b169260081b169062ffff001916171790550191015190815191600160401b831161144f5781548383558084106113cc575b506020019060005260206000206000915b8383106113ae576113ac858060005260176020526040600020600160ff19825416179055336000526016602052604060002061823f565b005b60066020826113c06001945186618111565b01920192019190611375565b8060060290600682040361143957836006026006810485036114395783600052602060002091820191015b8181106114045750611364565b8060006006925560006001820155600060028201556114256003820161807f565b6000600482015560006005820155016113f7565b634e487b7160e01b600052601160045260246000fd5b634e487b7160e01b600052604160045260246000fd5b0151905087806112e0565b90600d840160005260206000209160005b601f19851681106114ce575092610240949260019260109583601f198116106114b5575b505050811b01600d8201556112f8565b015160001960f88460031b161c191690558780806114a5565b91926020600181928685015181550194019201611481565b015190508580611277565b600c830160005260206000209060005b601f1984168110611548575060019394959683601f1981161061152f575b505050811b01600c82015561128f565b015160001960f88460031b161c1916905585808061151f565b9091602060018192858b015181550193019101611501565b015190508580611207565b600a850160005260206000209060005b601f19841681106115c2575060019394959683601f198116106115a9575b505050811b01600a84015561121f565b015160001960f88460031b161c19169055858080611599565b9091602060018192858b01518155019301910161157b565b0151905085806111a2565b6009840160005260206000209060005b601f198416811061163c575060019394959683601f19811610611623575b505050811b0160098301556111ba565b015160001960f88460031b161c19169055858080611613565b9091602060018192858b0151815501930191016115f5565b80518051906001600160401b03821161144f5761167b826116758854616fd5565b88617b91565b602090601f83116001146116c75792826001949360209386956000926116bc575b5050600019600383901b1c191690841b1787555b0194019101909261114a565b015190508c8061169c565b908660005260206000209160005b601f198516811061171f575083602093600196938796938794601f19811610611706575b505050811b0187556116b0565b015160001960f88460031b161c191690558c80806116f9565b919260206001819286850151815501940192016116d5565b80518051906001600160401b03821161144f57611758826116758854616fd5565b602090601f83116001146117a4579282600194936020938695600092611799575b5050600019600383901b1c191690841b1787555b01940191019092611117565b015190508c80611779565b908660005260206000209160005b601f19851681106117fc575083602093600196938796938794601f198116106117e3575b505050811b01875561178d565b015160001960f88460031b161c191690558c80806117d6565b919260206001819286850151815501940192016117b2565b80518051906001600160401b03821161144f57611835826116758854616fd5565b602090601f8311600114611881579282600194936020938695600092611876575b5050600019600383901b1c191690841b1787555b019401910190926110e5565b015190508c80611856565b908660005260206000209160005b601f19851681106118d9575083602093600196938796938794601f198116106118c0575b505050811b01875561186a565b015160001960f88460031b161c191690558c80806118b3565b9192602060018192868501518155019401920161188f565b015190508580611092565b6003830160005260206000209060005b601f1984168110611953575060019394959683601f1981161061193a575b505050811b0160038201556110aa565b015160001960f88460031b161c1916905585808061192a565b9091602060018192858b01518155019301910161190c565b01519050858061102e565b6002850160005260206000209060005b601f19841681106119cd575060019394959683601f198116106119b4575b505050811b016002840155611046565b015160001960f88460031b161c191690558580806119a4565b9091602060018192858b015181550193019101611986565b606460405162461bcd60e51b815260206004820152602060248201527f4552433732313a206d696e7420746f20746865207a65726f20616464726573736044820152fd5b60405162461bcd60e51b815260206004820152602560248201527f53756243617465676f7279204944206d75737420626520677265617465722074604482015264068616e20360dc1b6064820152608490fd5b60405162461bcd60e51b815260206004820152602260248201527f43617465676f7279204944206d7573742062652067726561746572207468616e604482015261020360f41b6064820152608490fd5b606460405162461bcd60e51b815260206004820152602060248201527f4d7573742062652076657269666965642073656c6c6572206f72206f776e65726044820152fd5b506000546001600160a01b03163314610ccb565b634e487b7160e01b600052602160045260246000fd5b346105e25760003660031901126105e2576020600d54604051908152f35b346105e2576020806003193601126105e2576001600160401b036004358181116105e257611b8a903690600401616f19565b90611b936175f2565b611b9f825115156184f1565b611baa600b5461847e565b9081600b55604051611bbb81616e89565b60008152604051611bcb81616e38565b83815285810185815260408201906001958683526060840194855260005260188852604060002092518355858301905180519086821161144f57611c1982611c138554616fd5565b85617b91565b8990601f8311600114611d08579180611c5894926003979694600092611cfd575b505060001982881b1c191690891b1790555b5115156002830161799c565b019051805192831161144f57600160401b831161144f5785908254848455808510611ce0575b5001906000528460002060005b838110611ccf57600b546040518881527f11c167cc9b439f0ad8bec5588159f1b06b813bc38d50c867a41b23b077be2c1a9080611cca818c018b616aae565b0390a2005b825182820155918601918401611c8b565b611cf7908460005285846000209182019101617b7a565b87611c7e565b015190508c80611c3a565b889291601f19831691856000528c600020928d6000905b828210611d62575050916003989795939185611c5898969410611d4a575b505050811b019055611c4c565b0151600019838a1b60f8161c191690558c8080611d3d565b8385015186558d979095019493840193018e611d1f565b346105e25760003660031901126105e257600b54611d9681617443565b611da36040519182616ea4565b818152601f19611db283617443565b01366020830137611dc282617443565b91611dd06040519384616ea4565b808352611dec601f19611de283617443565b01602085016186a1565b611df581617443565b92611e036040519485616ea4565b818452601f19611e1283617443565b01366020860137611e2282617443565b90611e306040519283616ea4565b828252611e3c83617443565b92611e4f6020840194601f1901856186a1565b60015b81811115611f8b575050611e71604051946080865260808601906175be565b8481036020860152815180825260208201916020808360051b8301019401926000915b838310611f5e57505050505083810360408501526020808651928381520195019060005b818110611f4657505050828403606084015251808452602084019060208160051b86010192916000905b828210611eef5785850386f35b90919293601f19878203018252845190602080835192838152019201906000905b808210611f2e57505050602080600192960192019201909291611ee2565b90919260208060019286518152019401920190611f10565b82511515875260209687019690920191600101611eb8565b9091929394602080611f7c600193601f198682030187528951616aae565b97019301930191939290611e94565b806000526018602052604060002090611fde600360405193611fac85616e38565b80548552604051611fc4816103ce816001860161700f565b602086015260ff6002820154161515604086015201618652565b60608301528151611ff9575b611ff4915061847e565b611e52565b8060001981011161143957606082611ff4935161201a60001985018b6184dd565b52602081015161202e6000198501886184dd565b5261203d6000198401876184dd565b506040810151151561205360001985018c6184dd565b5201516120646000198301876184dd565b526120736000198201866184dd565b50611fea565b346105e25760603660031901126105e2576004356001600160401b0381116105e2576120a9903690600401616f19565b6024356001600160401b0381116105e2576120c8903690600401616f19565b906044356001600160401b0381116105e2576120e8903690600401616f19565b916120f4331515617af9565b33600052601460205260ff604060002054166124d95761211682511515617b37565b80511561249c576040519261212a84616e53565b82845260208401918252604084015242606084015260016080840152336000526010602052604060002090835180519060018060401b03821161144f57819061217d826121778754616fd5565b87617b91565b602090601f831160011461243057600092612425575b50508160011b916000199060031b1c19161782555b5180519093906001600160401b03811161144f576121d6816121cd6001860154616fd5565b60018601617b91565b6020601f82116001146123b65781929394956000926123ab575b50508160011b916000199060031b1c19161760018301555b6040810151805160028401916001600160401b03821161144f5761223082611c138554616fd5565b602090601f831160011461233957928260809361227e97969360049660009261232e575b50508160011b916000199060031b1c19161790555b6060810151600385015501511515910161799c565b336000908152601460205260409020805460ff19166001179055600f54600160401b81101561144f576001810180600f5581101561231857600f6000526000805160206198fb8339815191520180546001600160a01b03191633908117909155604051602080825291927f48cac28ad4dc618e15f4c2dd5e97751182f166de97b25618318b2112aa951a2f928291611cca91830190616aae565b634e487b7160e01b600052603260045260246000fd5b015190508980612254565b90601f198316918460005260206000209260005b81811061239357509361227e97969360049693600193836080981061237a575b505050811b019055612269565b015160001960f88460031b161c1916905589808061236d565b9293602060018192878601518155019501930161234d565b0151905085806121f0565b6001840160005260206000209060005b601f198416811061240d575060019394959683601f198116106123f4575b505050811b016001830155612208565b015160001960f88460031b161c191690558580806123e4565b9091602060018192858b0151815501930191016123c6565b015190508680612193565b9250846000526020600020906000935b601f1984168510612481576001945083601f19811610612468575b505050811b0182556121a8565b015160001960f88460031b161c1916905586808061245b565b81810151835560209485019460019093019290910190612440565b60405162461bcd60e51b8152602060048201526015602482015274456d61696c2063616e6e6f7420626520656d70747960581b6044820152606490fd5b60405162461bcd60e51b8152602060048201526017602482015276155cd95c88185b1c9958591e481c9959da5cdd195c9959604a1b6044820152606490fd5b346105e25760403660031901126105e2576024356001600160401b0381116105e257366023820112156105e2576001600160401b036004820135116105e257366024826004013560051b830101116105e257600435600052601860205260ff60026040600020015416156127835760005b8160040135811061259657005b6125a1600c5461847e565b80600c556125d36125ba83856004013560248701618588565b9190604051926125c984616e38565b8484523691616ee2565b91602082019283526004356040830152600160608301526000526019602052604060002091815183555180519060018060401b03821161144f576126278261261e6001870154616fd5565b60018701617b91565b602090601f83116001146127055761269993836126f597969461267f946060946000926126fa575b50508160011b916000199060031b1c19161760018501555b6040810151600285015501511515600380930161799c565b6004356000526018602052604060002001600c549061823f565b6000805160206198bb833981519152600c546126bd83866004013560248801618588565b9290836040519160208352816020840152604083013760006040858301015260408160043595601f80199101168101030190a361847e565b612589565b015190508a8061264f565b906001850160005260206000209160005b601f198516811061276b57509360018461267f94606094612699986126f59b9a98601f19811610612752575b505050811b016001850155612667565b015160001960f88460031b161c191690558a8080612742565b91926020600181928685015181550194019201612716565b60405162461bcd60e51b815260206004820152601a602482015279506172656e742063617465676f7279206e6f742061637469766560301b6044820152606490fd5b346105e25760203660031901126105e2576004356127e16175f2565b8060005260186020526127fa60406000205415156185a3565b80600052601860205260008051602061983b83398151915261283d60406000206002810160ff19815416905560405191829160408352600160408401910161700f565b600060208301520390a2005b346105e25760203660031901126105e25761286d6128686004356179ad565b61764a565b600060405161287b81616e89565b5261035e60405161288b81616e89565b60008152604051918291602083526020830190616aae565b346105e25760203660031901126105e2576001600160a01b036128c4616d9d565b166000526013602052602060ff604060002054166040519015158152f35b346105e25760403660031901126105e2576128fb616d9d565b6001600160a01b03166000908152601660205260409020805460243591908210156105e25760209161292c91617343565b90546040519160031b1c8152f35b346105e2576020806003193601126105e257600435612957617f71565b50806000526015825261297860ff600f6040600020015460101c1615618304565b806000526017825261299160ff604060002054166182bf565b60005260158152604060002090604051916129ab83616dc9565b805483526001808201546001600160a01b0316838501526040516129d6816103ce816002870161700f565b60408501526040516129ef816103ce816003870161700f565b606085015260048201546080850152600582015460a08501526010600692612a1884820161745a565b60c0870152612a296007820161745a565b60e0870152612a3a6008820161745a565b610100870152604051612a54816103ce816009860161700f565b610120870152604051612a6e816103ce81600a860161700f565b610140870152600b810154610160870152604051612a93816103ce81600c860161700f565b610180870152604051612aad816103ce81600d860161700f565b6101a0870152600e8101546101c087015260ff600f82015481811615156101e0890152818160081c161515610200890152831c1615156102208701520191825490612af782617443565b93612b056040519586616ea4565b8285526000908152858120868087015b858410612b37576102408a018890526040518281528061035e8185018d616beb565b86918591612b448561841d565b8152019201920191908790612b15565b346105e25760203660031901126105e25760206001600160a01b0380612b78616d9d565b16600052601e825260406000205416604051908152f35b346105e25760803660031901126105e257612ba8616d9d565b612bb0616db3565b606435916001600160401b0383116105e257366023840112156105e257612be46113ac933690602481600401359101616ee2565b916044359161773d565b346105e2576020806003193601126105e2576001600160a01b039081612c12616d9d565b16600052601b81526040600020805490612c2b82617443565b92612c396040519485616ea4565b82845260009182528082208185015b848410612c5d576040518061035e88826171d5565b601683600192604051612c6f81616e1c565b85548152848601548382015260028601546040820152600386015460608201526004860154608082015260ff8b60058801541660a090818401526006880154908d821660c08501521c16151560e0820152612ccc60078701617377565b610100820152612cde600f87016174bf565b610120820152815201920193019290612c48565b346105e25760203660031901126105e2576004356000526017602052602060ff604060002054166040519015158152f35b346105e2576020806003193601126105e257612e5b9061035e612d44616d9d565b612d4c617bd8565b5060018060a01b0316918260005260138152612d6f60ff60406000205416617c0f565b826000526011815260406000209260ff600660405195612d8e87616e01565b604051612d9f816103ce818561700f565b8752604051612db5816103ce816001860161700f565b85880152604051612dcd816103ce816002860161700f565b6040880152604051612de6816103ce816003860161700f565b6060880152604051612dff816103ce816004860161700f565b6080880152600581015460a0880152015416151560c08501526000526012815260ff60406000205416601a825260406000205460168352612e64612e466040600020618652565b926040519788976080895260808901906172b6565b94870190617336565b604085015283820360608501526175be565b346105e25760203660031901126105e257612e8f616d9d565b612e976175f2565b6001600160a01b03168015612ee25760406000805160206197fb8339815191529133600052601e602052816000208160018060a01b03198254161790558151903382526020820152a1005b60405162461bcd60e51b8152602060048201526017602482015276496e76616c6964206163636f756e74206164647265737360481b6044820152606490fd5b346105e25760403660031901126105e257612f3a616d9d565b60243590811515908183036105e2576001600160a01b031691338314612fab57612f7d90336000526007602052604060002084600052602052604060002061799c565b6040519081527f17307eab39ab6107e8899845ad3d59bd9653f200f220920489ca2b5937696c3160203392a3005b60405162461bcd60e51b815260206004820152601960248201527822a9219b99189d1030b8383937bb32903a379031b0b63632b960391b6044820152606490fd5b346105e25760403660031901126105e257613005616d9d565b6001600160a01b039081166000908152601b602052604090208054602435908110156105e257610c1a9161735b565b346105e2576020806003193601126105e2576004358060005260159081835260ff600f604060002001549161306f82601094851c1615618304565b806000526017855261308782604060002054166182bf565b60009260005b826000528587528160406000200180548210156130de5760046130b18387936186fc565b50015416156130c9575b6130c49061847e565b61308d565b936130d66130c49161847e565b9490506130bb565b505084866130eb86617443565b956130f96040519788616ea4565b808752613108601f1991617443565b018160005b8281106131b15750505060009360005b8160005283835284604060002001805482101561319e576004613141838a936186fc565b5001541615613159575b6131549061847e565b61311d565b94613196613154918360005285855261318161317b89896040600020016186fc565b5061841d565b61318b828c6184dd565b52610544818b6184dd565b95905061314b565b6040518481528061035e8187018c616b4a565b6131b96186cb565b82828b01015201829061310d565b346105e25760403660031901126105e2576131e0616d9d565b6024359060048210156105e2576131f56175f2565b60018060a01b031690816000526020906013825261321a60ff60406000205416617c0f565b80156132c057826000526012825260ff604060002054166004811015611b2457811461327b579060008051602061987b833981519152918360005260128252604060002060ff1981541660ff83161790556132786040518092617336565ba2005b60405162461bcd60e51b815260048101839052601e60248201527f53656c6c657220616c72656164792068617320746869732073746174757300006044820152606490fd5b60405162461bcd60e51b815260048101839052601f60248201527f43616e6e6f74207365742073746174757320746f20556e7665726966696564006044820152606490fd5b346105e25760003660031901126105e25760405160009060035461332881616fd5565b8083526001918083169081156133bf5750600114613365575b61035e8361335181870382616ea4565b604051918291602083526020830190616aae565b6003600090815260209450917fc2575a0e9e593c00f959f8c92f12db2869c3395a3b0502d05e2516446f71f85b5b8284106133ac5750505081019091019061335181613341565b8054858501870152928501928101613393565b61035e955061335193506020915091849260ff191682840152151560051b8201019350613341565b346105e25760203660031901126105e2576001600160a01b03613408616d9d565b1660005260116020526134b86040600020604051906134328261342b818461700f565b0383616ea4565b604051613446816103ce816001860161700f565b6134f060405161345d816103ce816002880161700f565b6134e2604051613474816103ce8160038a0161700f565b6134d4604051936134938561348c8160048c0161700f565b0386616ea4565b6134c660ff600660058b01549a015416976040519b8c9b60e08d5260e08d0190616aae565b908b820360208d0152616aae565b9089820360408b0152616aae565b908782036060890152616aae565b908582036080870152616aae565b9160a0840152151560c08301520390f35b346105e25760203660031901126105e2576004356001600160401b0381116105e257613531903690600401616f19565b600854600060015b828111156137a5575061354b9061848d565b90600160005b82821115613567576040518061035e8682616d3b565b816000526015806020526009906103ce61358d836040600020016040519283809261700f565b60208151910120875160208901201480613787575b6135b9575b5050906135b39061847e565b90613551565b8360005260205260406000206103ce613677604051936135d885616dc9565b8354855260018401546001600160a01b03166020860152604051613603816103ce816002890161700f565b604086015260405161361c816103ce816003890161700f565b606086015260048401546080860152600584015460a08601526136416006850161745a565b60c08601526136526007850161745a565b60e08601526136636008850161745a565b61010086015260405192838092860161700f565b610120830152604051613691816103ce81600a860161700f565b610140830152600b8101546101608301526040516136b6816103ce81600c860161700f565b6101808301526040516136d0816103ce81600d860161700f565b6101a0830152600e8101546101c0830152600f8101549060ff80831615156101e0850152808360081c161515610200850152601092831c1615156102208401520180549061371d82617443565b9161372b6040519384616ea4565b808352602083019160005260206000206000925b82841061376957505050506102408201526135b3916137629161053982886184dd565b90866135a7565b600660206001926137798561841d565b81520192019301929061373f565b50836000528060205260ff600f6040600020015460101c16156135a2565b806000526015806020526103ce6137c960096040600020016040519283809261700f565b6020815191012085516020870120149081613808575b506137f3575b6137ee9061847e565b613539565b906138006137ee9161847e565b9190506137e5565b90508160005260205260ff600f6040600020015460101c1615856137df565b346105e25760003660031901126105e2576000546040516001600160a01b039091168152602090f35b346105e2576003196040368201126105e2576001600160401b03602435116105e2576101a090602435360301126105e2576004356000908152601560205260409020600101546001600160a01b0316330361430a5760043560005260176020526138c160ff604060002054166182bf565b60043560005260156020526138e460ff600f6040600020015460101c1615618304565b6138f6610ce160046024350180617cc7565b6139096024803501602435600401617cc7565b9050156142c757613921604460243501351515617cf9565b613932606460243501351515617d44565b613946608460243501602435600401617eac565b9050156142895761396160a460243501602435600401617eac565b90501561424c5761397f610da260c460243501602435600401617eac565b6139986005610dc460c460243501602435600401617eac565b60e460243501351561420c576101046024350135156141c8576139c9610d4f61014460243501602435600401617cc7565b6139e1610d7061016460243501602435600401617cc7565b6139f361012460243501351515617d8f565b613a0561018460243501351515617e63565b613a1460046024350180617cc7565b6004356000908152601560205260409020600201906001600160401b03811161144f57613a4b81613a458454616fd5565b84617b91565b600092601f821160011461415f5792819293600092614154575b50508160011b916000199060031b1c19161790555b613a8d6024803501602435600401617cc7565b6004356000908152601560205260409020600301906001600160401b03811161144f57613abe81613a458454616fd5565b600092601f82116001146140eb57928192936000926140e0575b50508160011b916000199060031b1c19161790555b600435600052601560205260406000206044602435013560048201556064602435013560058201556006613b2b608460243501602435600401617eac565b9190920191613b3a82846180c8565b60009283526020832090805b838510613ffd57613b6160a460243501602435600401617eac565b6004356000526015602052600760406000200191613b7f82846180c8565b60009283526020832090805b838510613f1a57613ba660c460243501602435600401617eac565b6004356000526015602052600860406000200191613bc482846180c8565b60009283526020832090805b838510613e375760e460243501356000526018602052613c09600160406000200160043560005260156020526009604060002001618345565b61010460243501356000526019602052613c3c60016040600020016004356000526015602052600a604060002001618345565b613c5161014460243501602435600401617cc7565b6004356000908152601560205260409020600c01906001600160401b03811161144f57613c8281613a458454616fd5565b600092601f8211600114613dce5792819293600092613dc3575b50508160011b916000199060031b1c19161790555b613cc661016460243501602435600401617cc7565b6004356000908152601560205260409020600d01906001600160401b03811161144f57613cf781613a458454616fd5565b6000601f8211600114613d5e57819293600092613d53575b50508160011b916000199060031b1c19161790555b600435600052601560205260406000206101246024350135600b820155600e6101846024350135910155600080f35b013590508380613d0f565b601f198216938360005260206000209160005b868110613dab5750836001959610613d91575b505050811b019055613d24565b0135600019600384901b60f8161c19169055838080613d84565b90926020600181928686013581550194019101613d71565b013590508380613c9c565b826000526020600020906000945b601f1984168610613e1f57600194955083601f19811610613e05575b505050811b019055613cb1565b0135600019600384901b60f8161c19169055838080613df8565b91602060018192858501358155019301950194613ddc565b613e418183617cc7565b906001600160401b03821161144f57613e5e826121778754616fd5565b600090601f8311600114613eaa579282600194936020938695600092613e9f575b5050600019600383901b1c191690841b1786555b01930194019391613bd0565b013590508a80613e7f565b8560005260206000209160005b601f1985168110613f02575083602093600196938796938794601f19811610613ee8575b505050811b018655613e93565b0135600019600384901b60f8161c191690558a8080613edb565b90926020600181928686013581550194019101613eb7565b613f248183617cc7565b906001600160401b03821161144f57613f41826121778754616fd5565b600090601f8311600114613f8d579282600194936020938695600092613f82575b5050600019600383901b1c191690841b1786555b01930194019391613b8b565b013590508a80613f62565b8560005260206000209160005b601f1985168110613fe5575083602093600196938796938794601f19811610613fcb575b505050811b018655613f76565b0135600019600384901b60f8161c191690558a8080613fbe565b90926020600181928686013581550194019101613f9a565b6140078183617cc7565b906001600160401b03821161144f57614024826121778754616fd5565b600090601f8311600114614070579282600194936020938695600092614065575b5050600019600383901b1c191690841b1786555b01930194019391613b46565b013590508a80614045565b8560005260206000209160005b601f19851681106140c8575083602093600196938796938794601f198116106140ae575b505050811b018655614059565b0135600019600384901b60f8161c191690558a80806140a1565b9092602060018192868601358155019401910161407d565b013590508380613ad8565b826000526020600020906000945b601f198416861061413c57600194955083601f19811610614122575b505050811b019055613aed565b0135600019600384901b60f8161c19169055838080614115565b916020600181928585013581550193019501946140f9565b013590508380613a65565b826000526020600020906000945b601f19841686106141b057600194955083601f19811610614196575b505050811b019055613a7a565b0135600019600384901b60f8161c19169055838080614189565b9160206001819285850135815501930195019461416d565b60405162461bcd60e51b815260206004820152601c60248201527b5375622d63617465676f72792063616e6e6f7420626520656d70747960201b6044820152606490fd5b60405162461bcd60e51b815260206004820152601860248201527743617465676f72792063616e6e6f7420626520656d70747960401b6044820152606490fd5b60405162461bcd60e51b815260206004820152601560248201527453697a65732063616e6e6f7420626520656d70747960581b6044820152606490fd5b60405162461bcd60e51b8152602060048201526016602482015275436f6c6f72732063616e6e6f7420626520656d70747960501b6044820152606490fd5b60405162461bcd60e51b815260206004820152601b60248201527a4465736372697074696f6e2063616e6e6f7420626520656d70747960281b6044820152606490fd5b60405162461bcd60e51b815260206004820152602860248201527f4f6e6c79207468652073656c6c65722063616e20757064617465207468656972604482015267081c1c9bd91d58dd60c21b6064820152608490fd5b346105e25760a03660031901126105e2576004356001600160401b0381116105e257614390903690600401616f19565b60249081356001600160401b0381116105e2576143b1903690600401616f19565b6044356001600160401b0381116105e2576143d0903690600401616f19565b6064356001600160401b0381116105e2576143ef903690600401616f19565b906084356001600160401b0381116105e25761440f903690600401616f19565b9261441b331515617af9565b33600052601360205260ff60406000205416614ac957845115614a8c57815115614a5757825115614a22576040519461445386616e01565b855260208501526040840152606083015260808201524260a0820152600160c0820152336000526011602052604060002090805192835160018060401b038111614a0d576144ab816144a58654616fd5565b86617b91565b6020601f82116001146149a4578192939495600092614999575b50508160011b916000199060031b1c19161783555b602082015180519093906001600160401b0381116149845761450c816145036001850154616fd5565b60018501617b91565b6020601f821160011461491557819293949560009261490a575b50508160011b916000199060031b1c19161760018201555b604083015180519093906001600160401b0381116148f557614570816145676002860154616fd5565b60028601617b91565b6020601f821160011461488657819293949560009261487b575b50508160011b916000199060031b1c19161760028301555b6060810151805160038401916001600160401b0382116147f55781906145cc826144a58654616fd5565b602090601f83116001146148155760009261480a575b50508160011b916000199060031b1c19161790555b6080810151805160048401916001600160401b0382116147f55761461f82611c138554616fd5565b602090601f831160011461478357928260c09361466d979693600696600092614778575b50508160011b916000199060031b1c19161790555b60a0810151600585015501511515910161799c565b336000526013602052604060002060ff1990600182825416179055601260205260016040600020918254161790556146a4336197ac565b156146f3575b6040514281527fa1a1a78ff3033d5ee8393372052aeb2a16bbb347a29f3780370e9506c109e37260203392a26040516001815260008051602061987b83398151915260203392a2005b600e5490600160401b821015614764576001820180600e558210156147505750600e6000527fbb7b4a454dc3493923482f07822329ed19e8244eff582cc204f8554c3620c3fd0180546001600160a01b03191633179055806146aa565b634e487b7160e01b60009081526032600452fd5b634e487b7160e01b60009081526041600452fd5b015190508980614643565b90601f198316918460005260206000209260005b8181106147dd57509361466d979693600696936001938360c098106147c4575b505050811b019055614658565b015160001960f88460031b161c191690558980806147b7565b92936020600181928786015181550195019301614797565b85634e487b7160e01b60005260416004526000fd5b0151905086806145e2565b6000858152602081209350601f198516905b818110614863575090846001959493921061484a575b505050811b0190556145f7565b015160001960f88460031b161c1916905586808061483d565b92936020600181928786015181550195019301614827565b01519050858061458a565b6002840160005260206000209060005b601f19841681106148dd575060019394959683601f198116106148c4575b505050811b0160028301556145a2565b015160001960f88460031b161c191690558580806148b4565b9091602060018192858b015181550193019101614896565b83634e487b7160e01b60005260416004526000fd5b015190508580614526565b6001830160005260206000209060005b601f198416811061496c575060019394959683601f19811610614953575b505050811b01600182015561453e565b015160001960f88460031b161c19169055858080614943565b9091602060018192858b015181550193019101614925565b82634e487b7160e01b60005260416004526000fd5b0151905085806144c5565b8460005260206000209060005b601f19841681106149f5575060019394959683601f198116106149dc575b505050811b0183556144da565b015160001960f88460031b161c191690558580806149cf565b9091602060018192858b0151815501930191016149b1565b50634e487b7160e01b60009081526041600452fd5b60405162461bcd60e51b815260206004820152600e818801526d141a1bdb99481c995c5d5a5c995960921b6044820152606490fd5b60405162461bcd60e51b815260206004820152600e818801526d115b585a5b081c995c5d5a5c995960921b6044820152606490fd5b60405162461bcd60e51b81526020600482015260168188015275109d5cda5b995cdcc81b985b59481c995c5d5a5c995960521b6044820152606490fd5b60405162461bcd60e51b815260206004820152601c818801527b20b63932b0b23c903932b3b4b9ba32b932b21030b99039b2b63632b960211b6044820152606490fd5b346105e25760403660031901126105e2576001600160401b036004356024358281116105e257614b40903690600401616f19565b614b486175f2565b816000526020906018825260406000205415614ce557614b6a8151151561853d565b614b75600c5461847e565b80600c5560405190614b8682616e38565b808252838201838152604083019086825260608401926001908185526000526019875260406000209451855580850191518051998a1161144f57614bce8a611c138554616fd5565b8790601f8b11600114614c685799808060039694614c24999896946000805160206198bb8339815191529c9d9e600094614c5d575b50501b9160001990871b1c19161790555b516002840155511515910161799c565b8360005260188352614c406003604060002001600c549061823f565b600c5492614c58604051928284938452830190616aae565b0390a3005b015192508e80614c03565b9990601f1982169a84600052896000209b60005b818110614cd057509b60039694928492614c249a9997956000805160206198bb8339815191529d9e9f10614cb8575b505050811b019055614c14565b015160001983891b60f8161c191690558c8080614cab565b838301518e559c85019c928b01928b01614c7c565b60405162461bcd60e51b815260048101839052601e60248201527f506172656e742063617465676f727920646f6573206e6f7420657869737400006044820152606490fd5b346105e25760203660031901126105e257600435600052601560205260406000208054600160a01b600190036001830154169160405180806002840190614d709161700f565b03614d7b9082616ea4565b60405180614d8c816003860161700f565b03614d979082616ea4565b600483015460058401549060405180806009880190614db59161700f565b03614dc09082616ea4565b6040519081614dd281600a8a0161700f565b03614ddd9083616ea4565b600b87015492604051948580600c8b0190614df79161700f565b03614e029087616ea4565b6040519687614e1481600d8d0161700f565b03614e1f9089616ea4565b600e8a015499600f0154986040519c8d9c8d5260208d01528b6101e06040819201528c01614e4c91616aae565b8b810360608d0152614e5d91616aae565b9160808b015260a08a015288810360c08a0152614e7991616aae565b87810360e0890152614e8a91616aae565b90610100870152858103610120870152614ea391616aae565b848103610140860152614eb591616aae565b9161016084015260ff811615156101808401528060081c60ff1615156101a084015260101c60ff1615156101c08301520390f35b346105e25760003660031901126105e257614f026175f2565b600080546001600160a01b0319811682556001600160a01b031660008051602061985b8339815191528280a3005b346105e25760203660031901126105e2576001600160a01b03614f51616d9d565b168015614f705760005260056020526020604060002054604051908152f35b60405162461bcd60e51b815260206004820152602960248201527f4552433732313a2061646472657373207a65726f206973206e6f7420612076616044820152683634b21037bbb732b960b91b6064820152608490fd5b346105e2576020806003193601126105e257614fe1616d9d565b60405190614fee82616e53565b6000608060609384815284868201528460408201528285820152015260018060a01b031690816000526014835260ff6040600020541691601084526040600020916040519161503c83616e53565b60405161504d816103ce818861700f565b8352604051906150648261342b816001890161700f565b8684019182526040519161507f836106308160028a0161700f565b6040850192835260ff6004600388015497868801988952015416916080860192151583526000526013885260ff604060002054169283600014615142576012895260ff60406000205416955b604051998a9915158a52890160809052516080890160a0905261012089016150f291616aae565b9151607f1992838a82030160a08b015261510b91616aae565b9051918882030160c089015261512091616aae565b945160e087015251151561010086015215156040850152830161035e91617336565b6000956150cb565b346105e25760203660031901126105e2576004356000526019602052604060002060405161517781616e38565b81548152604051906151908261342b816001870161700f565b6020810191825260ff600360028501549460408401958652015416906060810191151582526151c181511515618609565b5191519251905115156151e66040519485948552608060208601526080850190616aae565b91604084015260608301520390f35b346105e25761520336616f96565b61520e9291926175f2565b816000526020926018845261522960406000205415156185a3565b615235815115156184f1565b60008381526018855260409020815194906001908101906001600160401b03871161144f5761526887613a458454616fd5565b82601f88116001146152d657968080601895949360008051602061983b833981519152999a6000936152cb575b501b916000199060031b1c19161790555b85600052526152bc82600260406000200161799c565b611cca604051928392836185e9565b88015192508b615295565b96601f1981169783600052846000209860005b818110615336575098829160189695949360008051602061983b8339815191529a9b1061531d575b5050811b0190556152a6565b87015160001960f88460031b161c191690558980615311565b878301518b55998401999186019186016152e9565b346105e25760203660031901126105e2576020615369600435617691565b6040516001600160a01b039091168152f35b346105e25760203660031901126105e2576001600160a01b0361539c616d9d565b16600052601a6020526020604060002054604051908152f35b346105e25760203660031901126105e2576004356153d16175f2565b606481116153de57600d55005b60405162461bcd60e51b8152602060048201526012602482015271496e76616c69642070657263656e7461676560701b6044820152606490fd5b346105e25760003660031901126105e25760405180600e5480835260208093018091600e600052846000209060005b868282106154a657868661545d82880383616ea4565b604051928392818401908285525180915260408401929160005b82811061548657505050500390f35b83516001600160a01b031685528695509381019392810192600101615477565b83546001600160a01b031685529093019260019283019201615447565b346105e25760203660031901126105e257600435600f548110156105e257600f6000526000805160206198fb83398151915201546040516001600160a01b039091168152602090f35b346105e25760203660031901126105e2576001600160a01b0361552d616d9d565b166000526012602052602060ff604060002054166108c06040518092617336565b346105e2576020806003193601126105e257615568616d9d565b615570617bd8565b506001600160a01b031660008181526013835260409020546155949060ff16617c0f565b6000526011815260406000209060ff6006604051936155b285616e01565b6040516155c3816103ce818561700f565b85526040516155d9816103ce816001860161700f565b848601526040516155f1816103ce816002860161700f565b604086015260405161560a816103ce816003860161700f565b6060860152604051615623816103ce816004860161700f565b6080860152600581015460a0860152015416151560c083015261035e6040519282849384528301906172b6565b346105e2576113ac61566136616f61565b906040519261566f84616e89565b6000845261773d565b346105e25760003660031901126105e257615691618718565b3360005260206013815260ff60406000205416156157745733600052601a81526040600020549081156157375761572b615731926156de60646156d6600d548461806c565b0480926186be565b9233600052601a8152600060408120557f8ad64a0ac7700dd8425ab0499f107cb6e2cd1581d803c5b8c1c79dcb8190b1af60405191600083523392a26000546001600160a01b0316619746565b33619746565b60018055005b6064906040519062461bcd60e51b8252600482015260166024820152754e6f2062616c616e636520746f20776974686472617760501b6044820152fd5b6064906040519062461bcd60e51b82526004820152601b60248201527a26bab9ba1031329030903932b3b4b9ba32b932b21039b2b63632b960291b6044820152fd5b346105e2576020806003193601126105e2576001600160a01b0390816157da616d9d565b16600052601c815260406000208054906157f382617443565b926158016040519485616ea4565b82845260009182528082208185015b848410615825576040518061035e88826171d5565b60168360019260405161583781616e1c565b85548152848601548382015260028601546040820152600386015460608201526004860154608082015260ff8b60058801541660a090818401526006880154908d821660c08501521c16151560e082015261589460078701617377565b6101008201526158a6600f87016174bf565b610120820152815201920193019290615810565b346105e25760203660031901126105e2576001600160a01b036158db616d9d565b16600052601060205261594e6040600020604051906158fe8261342b818461700f565b604051615912816103ce816001860161700f565b61596a604051615929816103ce816002880161700f565b61595c60ff60046003870154960154169360405197889760a0895260a0890190616aae565b908782036020890152616aae565b908582036040870152616aae565b916060840152151560808301520390f35b346105e25761598936616f96565b6159949291926175f2565b81600052602092601984526159af6040600020541515618609565b6159bb8151151561853d565b60008381526019855260409020815194906001908101906001600160401b03871161144f576159ee87613a458454616fd5565b82601f8811600114615a4d5796808060199594936000805160206198db833981519152999a600093615a42575b501b916000199060031b1c19161790555b85600052526152bc82600360406000200161799c565b88015192508b615a1b565b96601f1981169783600052846000209860005b818110615aad57509882916019969594936000805160206198db8339815191529a9b10615a94575b5050811b019055615a2c565b87015160001960f88460031b161c191690558980615a88565b878301518b5599840199918601918601615a60565b346105e25760403660031901126105e257602480356004356000805b826000526015602090808252601091826040600020018054851015615cd857615b088589926186fc565b505414615b2057505050615b1b9061847e565b615ade565b919350919394600052601d815260ff94856040600020541615615c9e5780600052828252615b5485856040600020016186fc565b50600190810154909690336001600160a01b0391821614908115615c90575b5015615c3b57816000528383526004615b9287876040600020016186fc565b50015416615bfe5791615bb3939160049593600052526040600020016186fc565b5001805460ff1916821790555b15615bc757005b60649060106040519162461bcd60e51b8352602060048401528201526f14995d9a595dc81b9bdd08199bdd5b9960821b6044820152fd5b60405162461bcd60e51b8152600481018390526016818901527514995d9a595dc8185b1c9958591e4819195b195d195960521b6044820152606490fd5b60405162461bcd60e51b8152600481018490526028818a01527f4f6e6c79207265766965776572206f72206f776e65722063616e2064656c6574604482015267652072657669657760c01b6064820152608490fd5b600054163314905089615b73565b50606491866040519262461bcd60e51b845260048401528201527414995d9a595dc8191bd95cc81b9bdd08195e1a5cdd605a1b6044820152fd5b5050505050915050615bc0565b346105e2576113ac615cf636616f61565b91615d09615d0484336177d8565b6176db565b6178a0565b60031960a0368201126105e2576001600160401b03602435116105e25761010090602435360301126105e2576044356001600160401b0381116105e257615d59903690600401616f34565b906064356001600160401b0381116105e257615d79903690600401616f34565b91615d82618718565b600435600052601760205260ff6040600020541615616210576004356000526015602052604060002093600f8501549360ff8560101c166161d057600586015494608435861061619657600487015495615dde6084358861806c565b341061615a57615df190608435906186be565b80600589015515616148575b5060018601546001600160a01b031694615e1a906084359061806c565b9360405192615e2884616de5565b6001600160401b0360046024350135116105e257615e523660046024358101356024350101616f19565b84526001600160401b03602480350135116105e257615e7d3660046024803501356024350101616f19565b60208501526001600160401b0360243560440135116105e257615eab36602435604481013501600401616f19565b6040850152602435606401356001600160401b0381116105e257615ed790600436916024350101616f19565b6060850152602435608401356001600160401b0381116105e257615f0390600436916024350101616f19565b608085015260243560a401356001600160401b0381116105e257615f2f90600436916024350101616f19565b60a085015260243560c401356001600160401b0381116105e257615f5b90600436916024350101616f19565b60c08501526001600160401b0360243560e40135116105e257615fb0600392615fa86160a89761603094615f9c36600460e460243501356024350101616f19565b60e08a01523691616ee2565b943691616ee2565b600435600052601560205260406000209060405194615fce86616e01565b604051615fe2816103ce816002880161700f565b8652615ff06008840161745a565b602087015260408601526060850152608435608085015260405161601b816103ce816009860161700f565b60a08501526103ce604051809481930161700f565b60c08201526040519161604283616e1c565b60043583523460208401528460408401524260608401524260808401523360a08401528560c0840152600060e084015261010083015261012082015233600052601b60205261609581604060002061876e565b83600052601c602052604060002061876e565b81600052601a6020526040600020805490348201809211611439575560405190348252602082015242604082015233907f45280c7ac9cec77edd454e39e1641a3e22619146cf074a4239beee86a7c07edc606060043592a46001808060a01b039101541660405134815242602082015233907fbe6177108f4df43c5d7be79cb219c969fc97915bbdb4b56d14d391dcdcc16060604060043592a460018055005b60ff1916600117600f87015586615dfd565b60405162461bcd60e51b8152602060048201526014602482015273125b9cdd59999a58da595b9d081c185e5b595b9d60621b6044820152606490fd5b60405162461bcd60e51b8152602060048201526012602482015271496e73756666696369656e742073746f636b60701b6044820152606490fd5b60405162461bcd60e51b8152602060048201526018602482015277141c9bd91d58dd081a185cc81899595b8819195b195d195960421b6044820152606490fd5b60405162461bcd60e51b8152602060048201526011602482015270141c9bd91d58dd081b9bdd08199bdd5b99607a1b6044820152606490fd5b346105e25760203660031901126105e2576004356162656175f2565b80600052601960205261627e6040600020541515618609565b8060005260196020526000805160206198db83398151915261283d60406000206003810160ff19815416905560405191829160408352600160408401910161700f565b346105e25760603660031901126105e257602480356004356044356001600160401b0381116105e2576162f8903690600401616f19565b90806000526020916015835260018060a01b036001604060002001541633146164515783151580616446575b15616402578051156163c45790601592916001600a54019081600a556163486186cb565b958287523385880152604087015260608601524260a0860152600052601d82526040600020600160ff198254161790556000525260106040600020018054600160401b8110156148f5576163a1916001820181556186fc565b6163af576113ac9250618111565b82634e487b7160e01b60005260006004526000fd5b60405162461bcd60e51b81526004810184905260178187015276436f6d6d656e742063616e6e6f7420626520656d70747960481b6044820152606490fd5b60405162461bcd60e51b815260048101849052601e818701527f526174696e67206d757374206265206265747765656e203120616e64203500006044820152606490fd5b506005841115616324565b60405162461bcd60e51b8152600481018490526026818701527f53656c6c65722063616e6e6f7420726576696577207468656972206f776e20706044820152651c9bd91d58dd60d21b6064820152608490fd5b346105e25760003660031901126105e2576164bd6175f2565b33600052601e602052604060002060018060a01b031981541690556000805160206197fb8339815191526040805133815260006020820152a1005b346105e25760403660031901126105e2576113ac616514616db3565b6004356193a0565b346105e25760203660031901126105e2576001600160a01b0361653d616d9d565b166000526014602052602060ff604060002054166040519015158152f35b346105e25760403660031901126105e257616574616d9d565b602435906001600160a01b03808061658b85617691565b1692169180831461668657803314908115616661575b50156165f657600083815260066020526040902080546001600160a01b031916831790556165ce83617691565b167f8c5be1e5ebec7d5bd14f71427d1e84f3dd0314c0f7b2291e5b200ac8c7c3b925600080a4005b60405162461bcd60e51b815260206004820152603d60248201527f4552433732313a20617070726f76652063616c6c6572206973206e6f7420746f60448201527f6b656e206f776e6572206f7220617070726f76656420666f7220616c6c0000006064820152608490fd5b9050600052600760205260406000203360005260205260ff60406000205416846165a1565b60405162461bcd60e51b815260206004820152602160248201527f4552433732313a20617070726f76616c20746f2063757272656e74206f776e656044820152603960f91b6064820152608490fd5b346105e25760203660031901126105e25760206153696004356176b4565b346105e25760003660031901126105e25760405160009060025461671681616fd5565b8083526001918083169081156133bf575060011461673e5761035e8361335181870382616ea4565b6002600090815260209450917f405787fa12a823e0f2b7631cc41b3ba8828b3321ca811111fa75cd3aa3bb5ace5b8284106167855750505081019091019061335181613341565b805485850187015292850192810161676c565b346105e25760003660031901126105e25760088054600060015b828111156169d257506167c49061848d565b9060009260015b828111156167e1576040518061035e8682616d3b565b80600052602060158152604060002090600f82015460ff926010908483831c16158061681c575b5050505050506168179061847e565b6167cb565b60409a969a519561682c87616dc9565b8254875260018301546001600160a01b031686880152604051616856816103ce816002880161700f565b604088015260405161686f816103ce816003880161700f565b606088015260048301546080880152600583015460a088015260069461689686850161745a565b60c08901526168a76007850161745a565b60e08901526168b78a850161745a565b6101008901526040516168d1816103ce816009890161700f565b6101208901526040516168eb816103ce81600a890161700f565b610140890152600b840154610160890152604051616910816103ce81600c890161700f565b61018089015260405161692a816103ce81600d890161700f565b6101a0890152600e8401546101c089015281811615156101e0890152891c16151561020087015215610220860152019081549161696683617443565b936169746040519586616ea4565b8385526000918252808220918186015b8582106169b6575050505050509181616817936102406169aa94015261053982886184dd565b94908680808080616808565b84836001926169c48761841d565b815201940191019092616984565b80600052601560205260ff600f6040600020015460101c16156169fe575b6169f99061847e565b6167b2565b90616a0b6169f99161847e565b9190506169f0565b346105e25760203660031901126105e25760043563ffffffff60e01b81168091036105e2576020906380ac58cd60e01b8114908115616a70575b8115616a5f575b506040519015158152f35b6301ffc9a760e01b14905082616a54565b635b5e139f60e01b81149150616a4d565b346105e25760203660031901126105e257602090600435600052601d825260ff6040600020541615158152f35b919082519283825260005b848110616ada575050826000602080949584010152601f8019910116010190565b602081830181015184830182015201616ab9565b908082519081815260208091019281808460051b8301019501936000915b848310616b1c5750505050505090565b9091929394958480616b3a600193601f198682030187528a51616aae565b9801930193019194939290616b0c565b908082519081815260208091019281808460051b8301019501936000915b848310616b785750505050505090565b9091929394958480600192601f1985820301865289519081518152848060a01b0383830151168382015260408083015190820152616bc56060808401519060c08091850152830190616aae565b9160808082015115159083015260a0809101519101529801930193019194939290616b68565b90616d38918051825260018060a01b036020820151166020830152616cf2616cde616cbf616cab616c97616c83616c71616c4b616c3960408a015160408c61026091829101528c0190616aae565b60608a01518b820360608d0152616aae565b608089015160808b015260a089015160a08b015260c08901518a820360c08c0152616aee565b60e088015189820360e08b0152616aee565b6101008088015190898303908a0152616aee565b610120808701519088830390890152616aae565b610140808601519087830390880152616aae565b6101608085015190860152610180808501519086830390870152616aae565b6101a0808401519085830390860152616aae565b916101c080830151908201526101e08083015115159082015261020080830151151590820152610220808301511515908201526102408092015191818403910152616b4a565b90565b602080820190808352835180925260408301928160408460051b8301019501936000915b848310616d6f5750505050505090565b9091929394958480616d8d600193603f198682030187528a51616beb565b9801930193019194939290616d5f565b600435906001600160a01b03821682036105e257565b602435906001600160a01b03821682036105e257565b61026081019081106001600160401b0382111761144f57604052565b61010081019081106001600160401b0382111761144f57604052565b60e081019081106001600160401b0382111761144f57604052565b61014081019081106001600160401b0382111761144f57604052565b608081019081106001600160401b0382111761144f57604052565b60a081019081106001600160401b0382111761144f57604052565b60c081019081106001600160401b0382111761144f57604052565b602081019081106001600160401b0382111761144f57604052565b601f909101601f19168101906001600160401b0382119082101761144f57604052565b6001600160401b03811161144f57601f01601f191660200190565b929192616eee82616ec7565b91616efc6040519384616ea4565b8294818452818301116105e2578281602093846000960137010152565b9080601f830112156105e257816020616d3893359101616ee2565b9181601f840112156105e2578235916001600160401b0383116105e257602083818601950101116105e257565b60609060031901126105e2576001600160a01b039060043582811681036105e2579160243590811681036105e2579060443590565b9060606003198301126105e25760043591602435906001600160401b0382116105e257616fc591600401616f19565b9060443580151581036105e25790565b90600182811c92168015617005575b6020831014616fef57565b634e487b7160e01b600052602260045260246000fd5b91607f1691616fe4565b906000929180549161702083616fd5565b9182825260019384811690816000146170825750600114617042575b50505050565b90919394506000526020928360002092846000945b83861061706e57505050500101903880808061703c565b805485870183015294019385908201617057565b9294505050602093945060ff191683830152151560051b0101903880808061703c565b616d389160e061713c61712a6171186171066170f46170e26170d08951610100808b528a0190616aae565b60208a015189820360208b0152616aae565b604089015188820360408a0152616aae565b60608801518782036060890152616aae565b60808701518682036080880152616aae565b60a086015185820360a0870152616aae565b60c085015184820360c0860152616aae565b9201519060e0818403910152616aae565b616d389160c06171c46171a8617196617184617172875160e0885260e0880190616aae565b60208801518782036020890152616aee565b60408701518682036040880152616aae565b60608601518582036060870152616aae565b6080850151608085015260a085015184820360a0860152616aae565b9201519060c0818403910152616aae565b602080820190808352835180925260409283810182858560051b8401019601946000925b85841061720a575050505050505090565b9091929394959685806172a5600193603f198682030188528b5180518252838101518483015287810151888301526060808201519083015260808082015190830152858060a01b0360a08181840151169084015260c09081830151169083015260e080820151151590830152617291610100808301519061014080918601528401906170a5565b91610120809201519181840391015261714d565b9901940194019295949391906171f9565b9060c08061732161730f6172fd6172eb6172d9885160e0895260e0890190616aae565b602089015188820360208a0152616aae565b60408801518782036040890152616aae565b60608701518682036060880152616aae565b60808601518582036080870152616aae565b9360a081015160a08501520151151591015290565b906004821015611b245752565b80548210156123185760005260206000200190600090565b8054821015612318576000526016602060002091020190600090565b90600760e060409361743f85519161738e83616de5565b610630839780516173a3816103ce818761700f565b855280516173b8816103ce816001880161700f565b602086015280516173d0816103ce816002880161700f565b8186015280516173e7816103ce816003880161700f565b606086015280516173ff816103ce816004880161700f565b60808601528051617417816103ce816005880161700f565b60a0860152805161742f816103ce816006880161700f565b60c086015251809681930161700f565b0152565b6001600160401b03811161144f5760051b60200190565b90815461746681617443565b9260409361747685519182616ea4565b828152809460208092019260005281600020906000935b85851061749c57505050505050565b600184819284516174b1816103ce818a61700f565b81520193019401939161748d565b90600660c060409361743f8551916174d683616e01565b610630839780516174eb816103ce818761700f565b85526174f96001840161745a565b60208601528051617511816103ce816002880161700f565b818601528051617528816103ce816003880161700f565b606086015260048301546080860152805161754a816103ce816005880161700f565b60a086015251809681930161700f565b9895939092616d389a9895926175af98948b5260208b015260408a01526060890152608088015260018060a01b0380921660a08801521660c0860152151560e0850152610140806101008601528401906170a5565b9161012081840391015261714d565b90815180825260208080930193019160005b8281106175de575050505090565b8351855293810193928101926001016175d0565b6000546001600160a01b0316330361760657565b606460405162461bcd60e51b815260206004820152602060248201527f4f776e61626c653a2063616c6c6572206973206e6f7420746865206f776e65726044820152fd5b1561765157565b60405162461bcd60e51b8152602060048201526018602482015277115490cdcc8c4e881a5b9d985b1a59081d1bdad95b88125160421b6044820152606490fd5b6000908152600460205260409020546001600160a01b0316616d3881151561764a565b6176c0612868826179ad565b6000908152600660205260409020546001600160a01b031690565b156176e257565b60405162461bcd60e51b815260206004820152602d60248201527f4552433732313a2063616c6c6572206973206e6f7420746f6b656e206f776e6560448201526c1c881bdc88185c1c1c9bdd9959609a1b6064820152608490fd5b90617761939291617751615d0484336177d8565b61775c8383836178a0565b6179fa565b1561776857565b60405162461bcd60e51b81528061778160048201617785565b0390fd5b60809060208152603260208201527f4552433732313a207472616e7366657220746f206e6f6e20455243373231526560408201527131b2b4bb32b91034b6b83632b6b2b73a32b960711b60608201520190565b906001600160a01b0380806177ec84617691565b1693169183831493841561781f575b508315617809575b50505090565b617815919293506176b4565b1614388080617803565b909350600052600760205260406000208260005260205260ff6040600020541692386177fb565b1561784d57565b60405162461bcd60e51b815260206004820152602560248201527f4552433732313a207472616e736665722066726f6d20696e636f72726563742060448201526437bbb732b960d91b6064820152608490fd5b906178c8916178ae84617691565b6001600160a01b0393918416928492909183168414617846565b1691821561794b57816178e5916178de86617691565b1614617846565b60008051602061989b833981519152600084815260066020526040812060018060a01b03199081815416905583825260056020526040822060001981540190558482526040822060018154019055858252600460205284604083209182541617905580a4565b60405162461bcd60e51b8152602060048201526024808201527f4552433732313a207472616e7366657220746f20746865207a65726f206164646044820152637265737360e01b6064820152608490fd5b9060ff801983541691151516179055565b6000908152600460205260409020546001600160a01b0316151590565b3d156179f5573d906179db82616ec7565b916179e96040519384616ea4565b82523d6000602084013e565b606090565b91926000929190813b15617aef57602091617a509185604051958680958194630a85bd0160e11b9b8c845233600485015260018060a01b0380951660248501526044840152608060648401526084830190616aae565b0393165af190829082617aa0575b5050617a9257617a6c6179ca565b80519081617a8d5760405162461bcd60e51b81528061778160048201617785565b602001fd5b6001600160e01b0319161490565b909192506020813d8211617ae7575b81617abc60209383616ea4565b81010312617ae35751906001600160e01b031982168203617ae05750903880617a5e565b80fd5b5080fd5b3d9150617aaf565b5050505050600190565b15617b0057565b60405162461bcd60e51b815260206004820152600f60248201526e496e76616c6964206164647265737360881b6044820152606490fd5b15617b3e57565b60405162461bcd60e51b81526020600482015260146024820152734e616d652063616e6e6f7420626520656d70747960601b6044820152606490fd5b818110617b85575050565b60008155600101617b7a565b9190601f8111617ba057505050565b617bcc926000526020600020906020601f840160051c83019310617bce575b601f0160051c0190617b7a565b565b9091508190617bbf565b60405190617be582616e01565b600060c0836060808252806020830152806040830152808083015260808201528260a08201520152565b15617c1657565b60405162461bcd60e51b815260206004820152601560248201527414d95b1b195c881b9bdd081c9959da5cdd195c9959605a1b6044820152606490fd5b6001600160a01b03908116908115617c8957600054168114617c8357600052601260205260ff6040600020541690565b50600290565b60405162461bcd60e51b8152602060048201526016602482015275496e76616c69642073656c6c6572206164647265737360501b6044820152606490fd5b903590601e19813603018212156105e257018035906001600160401b0382116105e2576020019181360383136105e257565b15617d0057565b60405162461bcd60e51b815260206004820152601c60248201527b05072696365206d7573742062652067726561746572207468616e20360241b6044820152606490fd5b15617d4b57565b60405162461bcd60e51b815260206004820152601c60248201527b053746f636b206d7573742062652067726561746572207468616e20360241b6044820152606490fd5b15617d9657565b60405162461bcd60e51b815260206004820152601d60248201527f576569676874206d7573742062652067726561746572207468616e20300000006044820152606490fd5b15617de257565b60405162461bcd60e51b81526020600482015260156024820152744d6f64656c2063616e6e6f7420626520656d70747960581b6044820152606490fd5b15617e2657565b60405162461bcd60e51b81526020600482015260156024820152744272616e642063616e6e6f7420626520656d70747960581b6044820152606490fd5b15617e6a57565b60405162461bcd60e51b815260206004820152601a6024820152790534b55206d7573742062652067726561746572207468616e20360341b6044820152606490fd5b903590601e19813603018212156105e257018035906001600160401b0382116105e257602001918160051b360383136105e257565b15617ee857565b60405162461bcd60e51b8152602060048201526016602482015275496d616765732063616e6e6f7420626520656d70747960501b6044820152606490fd5b15617f2d57565b60405162461bcd60e51b815260206004820152601c60248201527b496d616765732063616e6e6f74206265206d6f7265207468616e203560201b6044820152606490fd5b60405190617f7e82616dc9565b8161024060009182815282602082015260609283604083015283808301528060808301528060a08301528360c08301528360e08301528361010083015283610120830152836101408301528061016083015283610180830152836101a0830152806101c0830152806101e0830152806102008301526102208201520152565b9291909261800a84617443565b916180186040519384616ea4565b829480845260208094019060051b8301928284116105e25780915b84831061804257505050505050565b82356001600160401b0381116105e25786916180618684938601616f19565b815201920191618033565b8181029291811591840414171561143957565b6180898154616fd5565b9081618093575050565b81601f600093116001146180a5575055565b9080839182526180c4601f60208420940160051c840160018501617b7a565b5555565b90600160401b811161144f578154918181558282106180e657505050565b600052602060002091820191015b8181106180ff575050565b8061810b60019261807f565b016180f4565b81518155602080830151600180840180546001600160a01b0319166001600160a01b03939093169290921790915560408401516002840155606084015180519394909390926003860192906001600160401b03831161144f57618178836144a58654616fd5565b80601f84116001146181d057509180809260a09695946005986000946181c5575b50501b916000199060031b1c19161790555b6181be608082015115156004860161799c565b0151910155565b015192503880618199565b91939495601f1984168660005283600020936000905b828210618228575050916005979593918560a09896941061820f575b505050811b0190556181ab565b015160001960f88460031b161c19169055388080618202565b8088869782949787015181550196019401906181e6565b8054600160401b81101561144f5761825c91600182018155617343565b819291549060031b91821b91600019901b1916179055565b1561827b57565b60405162461bcd60e51b815260206004820152601c60248201527b115490cdcc8c4e881d1bdad95b88185b1c9958591e481b5a5b9d195960221b6044820152606490fd5b156182c657565b60405162461bcd60e51b8152602060048201526016602482015275141c9bd91d58dd08191bd95cc81b9bdd08195e1a5cdd60521b6044820152606490fd5b1561830b57565b60405162461bcd60e51b8152602060048201526012602482015271141c9bd91d58dd081a5cc819195b195d195960721b6044820152606490fd5b90808214618419576183578154616fd5565b906001600160401b03821161144f578190618376826144a58654616fd5565b600090601f83116001146183ad576000926183a2575b50508160011b916000199060031b1c1916179055565b01549050388061838c565b81526020808220858352818320935090601f1985169083905b8282106184005750509084600195949392106183e7575b505050811b019055565b015460001960f88460031b161c191690553880806183dd565b84958192958501548155600180910196019401906183c6565b5050565b9060405161842a81616e6e565b60a06005829480548452600180841b03600182015416602085015260028101546040850152604051618463816103ce816003860161700f565b606085015260ff600482015416151560808501520154910152565b60001981146114395760010190565b9061849782617443565b6184a46040519182616ea4565b82815280926184b5601f1991617443565b019060005b8281106184c657505050565b6020906184d1617f71565b828285010152016184ba565b80518210156123185760209160051b010190565b156184f857565b60405162461bcd60e51b815260206004820152601d60248201527f43617465676f7279206e616d652063616e6e6f7420626520656d7074790000006044820152606490fd5b1561854457565b606460405162461bcd60e51b815260206004820152602060248201527f53756263617465676f7279206e616d652063616e6e6f7420626520656d7074796044820152fd5b908210156123185761859f9160051b810190617cc7565b9091565b156185aa57565b60405162461bcd60e51b815260206004820152601760248201527610d85d1959dbdc9e48191bd95cc81b9bdd08195e1a5cdd604a1b6044820152606490fd5b90618601602091949394604084526040840190616aae565b931515910152565b1561861057565b60405162461bcd60e51b815260206004820152601a60248201527914dd5898d85d1959dbdc9e48191bd95cc81b9bdd08195e1a5cdd60321b6044820152606490fd5b9060405191828154918282526020928383019160005283600020936000905b82821061868757505050617bcc92500383616ea4565b855484526001958601958895509381019390910190618671565b60005b8281106186b057505050565b6060828201526020016186a4565b9190820391821161143957565b604051906186d882616e6e565b600060a0838281528260208201528260408201526060808201528260808201520152565b8054821015612318576000526006602060002091020190600090565b600260015414618729576002600155565b60405162461bcd60e51b815260206004820152601f60248201527f5265656e7472616e637947756172643a207265656e7472616e742063616c6c006044820152606490fd5b8054600160401b81101561144f5761878d90600192838201815561735b565b619330578251815560208084015183830155604084015160028301556060840151600380840191909155608085015160048085019190915560a0808701516005860180546001600160a01b0319166001600160a01b0392831617905560c088015160068701805460e08b01516001600160a81b0319909116929093169190911791151590921b60ff60a01b16179055610100860151805180516001600160401b0396949591949192906007830190888111618d2b5761885081613a458454616fd5565b8085601f988983116001146192c5576000926192ba575b5050600019828a1b1c1916908a1b1790555b600882018382015180519089821161905757819061889b826144a58654616fd5565b869089831160011461924f57600092619244575b5050600019828a1b1c1916908a1b1790555b6009820160408201518051908982116190575781906188e4826144a58654616fd5565b86908983116001146191d9576000926191ce575b5050600019828a1b1c1916908a1b1790555b600a8201606082015180519089821161905757819061892d826144a58654616fd5565b869089831160011461916357600092619158575b5050600019828a1b1c1916908a1b1790555b600b82016080820151805190898211619057578190618976826144a58654616fd5565b86908983116001146190ed576000926190e2575b5050600019828a1b1c1916908a1b1790555b600c820160a08201518051908982116190575781906189bf826144a58654616fd5565b86908983116001146190775760009261906c575b5050600019828a1b1c1916908a1b1790555b600d820160c0820151805190898211619057578190618a08826144a58654616fd5565b8690898311600114618fec57600092618fe1575b5050600019828a1b1c1916908a1b1790555b60e001518051600e830191888211618d2b578190618a50826144a58654616fd5565b8590888311600114618f7f57600092618f74575b505060001982891b1c191690891b1790555b610120600f8201980151978851805190888211618d2b578190618a9d826144a58654616fd5565b8590888311600114618f1257600092618f07575b505060001982891b1c191690891b1790555b60108101828901519083825192618ada84846180c8565b0190600052836000206000915b838310618e1a5750505050601181016040890151805190888211618d2b578190618b15826144a58654616fd5565b8590888311600114618db857600092618dad575b505060001982891b1c191690891b1790555b601281016060890151805190888211618d2b578190618b5e826144a58654616fd5565b8590888311600114618d4b57600092618d40575b505060001982891b1c191690891b1790555b608088015160138201556014810160a0890151805190888211618d2b57618baf82611c138554616fd5565b8490878311600114618cbe5791806015949260c09694600092618cb3575b5050600019828b1b1c1916908b1b1790555b01970151918251958611618c9e5750618c0285618bfc8954616fd5565b89617b91565b80928511600114618c385750938394918492600095618c2d575b50501b92600019911b1c1916179055565b015193503880618c1c565b92919084601f1981168860005285600020956000905b89838310618c845750505010618c6a575b50505050811b019055565b01519060f884600019921b161c1916905538808080618c5f565b858701518955909701969485019488935090810190618c4e565b604190634e487b7160e01b6000525260246000fd5b015190503880618bcd565b8a9291601f1983169185600052876000209260005b89828210618d155750509160c09795939185601598969410618cfd575b505050811b019055618bdf565b0151600019838d1b60f8161c19169055388080618cf0565b8385015186558f97909501949384019301618cd3565b604186634e487b7160e01b6000525260246000fd5b015190503880618b72565b908b9350601f1983169185600052876000209260005b89828210618d975750508411618d7f575b505050811b019055618b84565b0151600019838b1b60f8161c19169055388080618d72565b8385015186558f97909501949384019301618d61565b015190503880618b29565b908b9350601f1983169185600052876000209260005b89828210618e045750508411618dec575b505050811b019055618b3b565b0151600019838b1b60f8161c19169055388080618ddf565b8385015186558f97909501949384019301618dce565b80519081518b8111618ef2578c9181618e388a936116758854616fd5565b82948c8211600114618e795784958291600092618e6e575b5050600019828f1b1c191690841b1785555b01920192019190618ae7565b015190503880618e50565b8d9587600052846000209160005b601f1985168110618ece57509683929187988895601f19811610618eb4575b50505050811b018555618e62565b01519060f884600019921b161c19169055388e8180618ea6565b949750929585928285979397015181550194019201928f9491928e96938c95618e87565b604189634e487b7160e01b6000525260246000fd5b015190503880618ab1565b908b9350601f1983169185600052876000209260005b89828210618f5e5750508411618f46575b505050811b019055618ac3565b0151600019838b1b60f8161c19169055388080618f39565b8385015186558f97909501949384019301618f28565b015190503880618a64565b908b9350601f1983169185600052876000209260005b89828210618fcb5750508411618fb3575b505050811b019055618a76565b0151600019838b1b60f8161c19169055388080618fa6565b8385015186558f97909501949384019301618f95565b015190503880618a1c565b908c9350601f1983169185600052886000209260005b8a8282106190385750508411619020575b505050811b019055618a2e565b0151600019838c1b60f8161c19169055388080619013565b91929395968291958786015181550195019301908e9594939291619002565b604187634e487b7160e01b6000525260246000fd5b0151905038806189d3565b908c9350601f1983169185600052886000209260005b8a8282106190c357505084116190ab575b505050811b0190556189e5565b0151600019838c1b60f8161c1916905538808061909e565b91929395968291958786015181550195019301908e959493929161908d565b01519050388061898a565b908c9350601f1983169185600052886000209260005b8a8282106191395750508411619121575b505050811b01905561899c565b0151600019838c1b60f8161c19169055388080619114565b91929395968291958786015181550195019301908e9594939291619103565b015190503880618941565b908c9350601f1983169185600052886000209260005b8a8282106191af5750508411619197575b505050811b019055618953565b0151600019838c1b60f8161c1916905538808061918a565b91929395968291958786015181550195019301908e9594939291619179565b0151905038806188f8565b908c9350601f1983169185600052886000209260005b8a828210619225575050841161920d575b505050811b01905561890a565b0151600019838c1b60f8161c19169055388080619200565b91929395968291958786015181550195019301908e95949392916191ef565b0151905038806188af565b908c9350601f1983169185600052886000209260005b8a82821061929b5750508411619283575b505050811b0190556188c1565b0151600019838c1b60f8161c19169055388080619276565b91929395968291958786015181550195019301908e9594939291619265565b015190503880618867565b908c9350601f1983169185600052886000209260005b8a82821061931157505084116192f9575b505050811b019055618879565b0151600019838c1b60f8161c191690553880806192ec565b91929395968291958786015181550195019301908e95949392916192db565b634e487b7160e01b600052600060045260246000fd5b1561934d57565b60405162461bcd60e51b815260206004820152602560248201527f4f6e6c792076657269666965642073656c6c6572206f72206f776e657220616c6044820152641b1bddd95960da1b6064820152608490fd5b6000805490939291906001600160a01b03908116331461948357338552601e6020526040852054811690811561942d57818652601260205260ff60408720541660048110156194195791617bcc9596916002619407941492831561940c575b505050619346565b61948b565b54161490503880806193ff565b634e487b7160e01b87526021600452602487fd5b9050601260205260ff604086205416600481101561946f5794619407916002617bcc969714918215619461575b5050619346565b90915054163314388061945a565b634e487b7160e01b86526021600452602486fd5b50617bcc9293505b600091825b60018060a01b0380831680600052601b6020818152604092836000208054871015619738576194c0878a9261735b565b5054146194da5750505050506194d59061847e565b619490565b8091929394969798506000528282526194f6858560002061735b565b509560ff60068098015460a01c166196f85781600052838352808761951e888860002061735b565b5001541633149081156196ea575b50156196935790619546949392916000525260002061735b565b5001805460ff60a01b1916600160a01b17905560015b1561965957816000526020916015835260018060a01b039260019384936040828682600020015416866000905b6195ab575b505060008051602061981b833981519152949550519586521693a3565b81600052601c808752836000208054831015619652576195cc838a9261735b565b5054148061962d575b6195e957506195e39061847e565b87619589565b60008051602061981b833981519152979850906196119160069360005287528360002061735b565b5001805460ff60a01b1916600160a01b1790558695943861958e565b5082600052808752856005619645848760002061735b565b50015416868616146195d5565b505061958e565b60405162461bcd60e51b8152602060048201526012602482015271141d5c98da185cd9481b9bdd08199bdd5b9960721b6044820152606490fd5b835162461bcd60e51b815260048101839052602a60248201527f4f6e6c792073656c6c6572206f72206f776e65722063616e206d61726b2061736044820152690819195b1a5d995c995960b21b6064820152608490fd5b60005416331490503861952c565b6064838587519162461bcd60e51b8352600483015260248201527a105b1c9958591e481b585c9ad95908185cc819195b1a5d995c9959602a1b6044820152fd5b50505050505050909161955c565b6000918291829182916001600160a01b0316619763811515617af9565b5af161976d6179ca565b501561977557565b60405162461bcd60e51b815260206004820152600f60248201526e151c985b9cd9995c8819985a5b1959608a1b6044820152606490fd5b600090600e8054925b8381106197c55750505050600090565b6000828152602090208101546001600160a01b038481169116146197f1576197ec9061847e565b6197b5565b5050505060019056fe32b449308c94e824ccedd9877932cd82f89a481c06c4643a0cb2914454a8c582f9dc8543b583e01f592678422369b2777e3649761f5808ae432cb1c24ca9438c79d3150b1760cd391f5006c9543aea088e4c9060f3e582ea0a948dc6649b25da8be0079c531659141344cd1fd0a4f28419497f9722a3daafe3b4186f6b6457e0d8f7bcb2c5cffc294a0aaef719685993d7be95273fb8254803a1563510ccefedddf252ad1be2c89b69c2b068fc378daa952ba7f163c4a11628f55a4df523b3ef5a8a989e12f3ce7cf805b73156a361da5d8369f0c37173209308910b322117ac4cfca6396923c3eee68be58aa35fd6623ae5d67bb552da5e1de2e0d5854166dc8d1108e10bcb7c27dddfc02ed9d693a074039d026cf4ea4240b40f7d581ac802a2646970667358221220ba0905edc2b8989f5d279e5fa2180254c004a39aa51189c3fdc118ff8ae2407764736f6c63430008130033",
  "linkReferences": {},
  "deployedLinkReferences": {}
}