{
  "_format": "hh-sol-artifact-1",
  "contractName": "HemShopReview",
  "sourceName": "contracts/HemShopReview.sol",
  "abi": [
    {
      "inputs": [
        {
          "internalType": "uint256",
          "name": "_pct",
          "type": "uint256"
        }
      ],
      "stateMutability": "nonpayable",
      "type": "constructor"
    },
    {
      "anonymous": false,
      "inputs": [
        {
          "indexed": false,
          "internalType": "address",
          "name": "admin",
          "type": "address"
        },
        {
          "indexed": false,
          "internalType": "address",
          "name": "impersonatedAccount",
          "type": "address"
        }
      ],
      "name": "AdminImpersonationChanged",
      "type": "event"
    },
    {
      "anonymous": false,
      "inputs": [
        {
          "indexed": true,
          "internalType": "address",
          "name": "owner",
          "type": "address"
        },
        {
          "indexed": true,
          "internalType": "address",
          "name": "approved",
          "type": "address"
        },
        {
          "indexed": true,
          "internalType": "uint256",
          "name": "tokenId",
          "type": "uint256"
        }
      ],
      "name": "Approval",
      "type": "event"
    },
    {
      "anonymous": false,
      "inputs": [
        {
          "indexed": true,
          "internalType": "address",
          "name": "owner",
          "type": "address"
        },
        {
          "indexed": true,
          "internalType": "address",
          "name": "operator",
          "type": "address"
        },
        {
          "indexed": false,
          "internalType": "bool",
          "name": "approved",
          "type": "bool"
        }
      ],
      "name": "ApprovalForAll",
      "type": "event"
    },
    {
      "anonymous": false,
      "inputs": [
        {
          "indexed": true,
          "internalType": "address",
          "name": "previousOwner",
          "type": "address"
        },
        {
          "indexed": true,
          "internalType": "address",
          "name": "newOwner",
          "type": "address"
        }
      ],
      "name": "OwnershipTransferred",
      "type": "event"
    },
    {
      "anonymous": false,
      "inputs": [
        {
          "indexed": true,
          "internalType": "address",
          "name": "from",
          "type": "address"
        },
        {
          "indexed": true,
          "internalType": "address",
          "name": "to",
          "type": "address"
        },
        {
          "indexed": true,
          "internalType": "uint256",
          "name": "tokenId",
          "type": "uint256"
        }
      ],
      "name": "Transfer",
      "type": "event"
    },
    {
      "inputs": [
        {
          "internalType": "address",
          "name": "",
          "type": "address"
        }
      ],
      "name": "adminImpersonating",
      "outputs": [
        {
          "internalType": "address",
          "name": "",
          "type": "address"
        }
      ],
      "stateMutability": "view",
      "type": "function"
    },
    {
      "inputs": [
        {
          "internalType": "address",
          "name": "to",
          "type": "address"
        },
        {
          "internalType": "uint256",
          "name": "tokenId",
          "type": "uint256"
        }
      ],
      "name": "approve",
      "outputs": [],
      "stateMutability": "nonpayable",
      "type": "function"
    },
    {
      "inputs": [
        {
          "internalType": "address",
          "name": "owner",
          "type": "address"
        }
      ],
      "name": "balanceOf",
      "outputs": [
        {
          "internalType": "uint256",
          "name": "",
          "type": "uint256"
        }
      ],
      "stateMutability": "view",
      "type": "function"
    },
    {
      "inputs": [
        {
          "components": [
            {
              "internalType": "string",
              "name": "name",
              "type": "string"
            },
            {
              "internalType": "string",
              "name": "description",
              "type": "string"
            },
            {
              "internalType": "uint256",
              "name": "price",
              "type": "uint256"
            },
            {
              "internalType": "uint256",
              "name": "stock",
              "type": "uint256"
            },
            {
              "internalType": "string",
              "name": "color",
              "type": "string"
            },
            {
              "internalType": "string",
              "name": "size",
              "type": "string"
            },
            {
              "internalType": "string[]",
              "name": "images",
              "type": "string[]"
            },
            {
              "internalType": "string",
              "name": "category",
              "type": "string"
            },
            {
              "internalType": "string",
              "name": "subCategory",
              "type": "string"
            },
            {
              "internalType": "string",
              "name": "model",
              "type": "string"
            },
            {
              "internalType": "string",
              "name": "brand",
              "type": "string"
            },
            {
              "internalType": "uint256",
              "name": "weight",
              "type": "uint256"
            },
            {
              "internalType": "uint256",
              "name": "sku",
              "type": "uint256"
            }
          ],
          "internalType": "struct HemShopProduct.ProductInput",
          "name": "input",
          "type": "tuple"
        }
      ],
      "name": "createProduct",
      "outputs": [],
      "stateMutability": "nonpayable",
      "type": "function"
    },
    {
      "inputs": [
        {
          "internalType": "uint256",
          "name": "productId",
          "type": "uint256"
        },
        {
          "internalType": "uint256",
          "name": "rating",
          "type": "uint256"
        },
        {
          "internalType": "string",
          "name": "comment",
          "type": "string"
        }
      ],
      "name": "createReview",
      "outputs": [],
      "stateMutability": "nonpayable",
      "type": "function"
    },
    {
      "inputs": [
        {
          "internalType": "uint256",
          "name": "productId",
          "type": "uint256"
        }
      ],
      "name": "deleteProduct",
      "outputs": [],
      "stateMutability": "nonpayable",
      "type": "function"
    },
    {
      "inputs": [
        {
          "internalType": "uint256",
          "name": "productId",
          "type": "uint256"
        },
        {
          "internalType": "uint256",
          "name": "reviewId",
          "type": "uint256"
        }
      ],
      "name": "deleteReview",
      "outputs": [],
      "stateMutability": "nonpayable",
      "type": "function"
    },
    {
      "inputs": [],
      "name": "getAllProducts",
      "outputs": [
        {
          "components": [
            {
              "internalType": "uint256",
              "name": "id",
              "type": "uint256"
            },
            {
              "internalType": "address",
              "name": "seller",
              "type": "address"
            },
            {
              "internalType": "string",
              "name": "name",
              "type": "string"
            },
            {
              "internalType": "string",
              "name": "description",
              "type": "string"
            },
            {
              "internalType": "uint256",
              "name": "price",
              "type": "uint256"
            },
            {
              "internalType": "uint256",
              "name": "stock",
              "type": "uint256"
            },
            {
              "internalType": "string",
              "name": "color",
              "type": "string"
            },
            {
              "internalType": "string",
              "name": "size",
              "type": "string"
            },
            {
              "internalType": "string[]",
              "name": "images",
              "type": "string[]"
            },
            {
              "internalType": "string",
              "name": "category",
              "type": "string"
            },
            {
              "internalType": "string",
              "name": "subCategory",
              "type": "string"
            },
            {
              "internalType": "uint256",
              "name": "weight",
              "type": "uint256"
            },
            {
              "internalType": "string",
              "name": "model",
              "type": "string"
            },
            {
              "internalType": "string",
              "name": "brand",
              "type": "string"
            },
            {
              "internalType": "uint256",
              "name": "sku",
              "type": "uint256"
            },
            {
              "internalType": "bool",
              "name": "soldout",
              "type": "bool"
            },
            {
              "internalType": "bool",
              "name": "wishlist",
              "type": "bool"
            },
            {
              "internalType": "bool",
              "name": "deleted",
              "type": "bool"
            },
            {
              "components": [
                {
                  "internalType": "uint256",
                  "name": "reviewId",
                  "type": "uint256"
                },
                {
                  "internalType": "address",
                  "name": "reviewer",
                  "type": "address"
                },
                {
                  "internalType": "uint256",
                  "name": "rating",
                  "type": "uint256"
                },
                {
                  "internalType": "string",
                  "name": "comment",
                  "type": "string"
                },
                {
                  "internalType": "bool",
                  "name": "deleted",
                  "type": "bool"
                }
              ],
              "internalType": "struct HemShopBase.ReviewStruct[]",
              "name": "reviews",
              "type": "tuple[]"
            }
          ],
          "internalType": "struct HemShopProduct.ProductStruct[]",
          "name": "",
          "type": "tuple[]"
        }
      ],
      "stateMutability": "view",
      "type": "function"
    },
    {
      "inputs": [
        {
          "internalType": "uint256",
          "name": "tokenId",
          "type": "uint256"
        }
      ],
      "name": "getApproved",
      "outputs": [
        {
          "internalType": "address",
          "name": "",
          "type": "address"
        }
      ],
      "stateMutability": "view",
      "type": "function"
    },
    {
      "inputs": [],
      "name": "getMyProducts",
      "outputs": [
        {
          "components": [
            {
              "internalType": "uint256",
              "name": "id",
              "type": "uint256"
            },
            {
              "internalType": "address",
              "name": "seller",
              "type": "address"
            },
            {
              "internalType": "string",
              "name": "name",
              "type": "string"
            },
            {
              "internalType": "string",
              "name": "description",
              "type": "string"
            },
            {
              "internalType": "uint256",
              "name": "price",
              "type": "uint256"
            },
            {
              "internalType": "uint256",
              "name": "stock",
              "type": "uint256"
            },
            {
              "internalType": "string",
              "name": "color",
              "type": "string"
            },
            {
              "internalType": "string",
              "name": "size",
              "type": "string"
            },
            {
              "internalType": "string[]",
              "name": "images",
              "type": "string[]"
            },
            {
              "internalType": "string",
              "name": "category",
              "type": "string"
            },
            {
              "internalType": "string",
              "name": "subCategory",
              "type": "string"
            },
            {
              "internalType": "uint256",
              "name": "weight",
              "type": "uint256"
            },
            {
              "internalType": "string",
              "name": "model",
              "type": "string"
            },
            {
              "internalType": "string",
              "name": "brand",
              "type": "string"
            },
            {
              "internalType": "uint256",
              "name": "sku",
              "type": "uint256"
            },
            {
              "internalType": "bool",
              "name": "soldout",
              "type": "bool"
            },
            {
              "internalType": "bool",
              "name": "wishlist",
              "type": "bool"
            },
            {
              "internalType": "bool",
              "name": "deleted",
              "type": "bool"
            },
            {
              "components": [
                {
                  "internalType": "uint256",
                  "name": "reviewId",
                  "type": "uint256"
                },
                {
                  "internalType": "address",
                  "name": "reviewer",
                  "type": "address"
                },
                {
                  "internalType": "uint256",
                  "name": "rating",
                  "type": "uint256"
                },
                {
                  "internalType": "string",
                  "name": "comment",
                  "type": "string"
                },
                {
                  "internalType": "bool",
                  "name": "deleted",
                  "type": "bool"
                }
              ],
              "internalType": "struct HemShopBase.ReviewStruct[]",
              "name": "reviews",
              "type": "tuple[]"
            }
          ],
          "internalType": "struct HemShopProduct.ProductStruct[]",
          "name": "",
          "type": "tuple[]"
        }
      ],
      "stateMutability": "view",
      "type": "function"
    },
    {
      "inputs": [
        {
          "internalType": "uint256",
          "name": "productId",
          "type": "uint256"
        }
      ],
      "name": "getProduct",
      "outputs": [
        {
          "components": [
            {
              "internalType": "uint256",
              "name": "id",
              "type": "uint256"
            },
            {
              "internalType": "address",
              "name": "seller",
              "type": "address"
            },
            {
              "internalType": "string",
              "name": "name",
              "type": "string"
            },
            {
              "internalType": "string",
              "name": "description",
              "type": "string"
            },
            {
              "internalType": "uint256",
              "name": "price",
              "type": "uint256"
            },
            {
              "internalType": "uint256",
              "name": "stock",
              "type": "uint256"
            },
            {
              "internalType": "string",
              "name": "color",
              "type": "string"
            },
            {
              "internalType": "string",
              "name": "size",
              "type": "string"
            },
            {
              "internalType": "string[]",
              "name": "images",
              "type": "string[]"
            },
            {
              "internalType": "string",
              "name": "category",
              "type": "string"
            },
            {
              "internalType": "string",
              "name": "subCategory",
              "type": "string"
            },
            {
              "internalType": "uint256",
              "name": "weight",
              "type": "uint256"
            },
            {
              "internalType": "string",
              "name": "model",
              "type": "string"
            },
            {
              "internalType": "string",
              "name": "brand",
              "type": "string"
            },
            {
              "internalType": "uint256",
              "name": "sku",
              "type": "uint256"
            },
            {
              "internalType": "bool",
              "name": "soldout",
              "type": "bool"
            },
            {
              "internalType": "bool",
              "name": "wishlist",
              "type": "bool"
            },
            {
              "internalType": "bool",
              "name": "deleted",
              "type": "bool"
            },
            {
              "components": [
                {
                  "internalType": "uint256",
                  "name": "reviewId",
                  "type": "uint256"
                },
                {
                  "internalType": "address",
                  "name": "reviewer",
                  "type": "address"
                },
                {
                  "internalType": "uint256",
                  "name": "rating",
                  "type": "uint256"
                },
                {
                  "internalType": "string",
                  "name": "comment",
                  "type": "string"
                },
                {
                  "internalType": "bool",
                  "name": "deleted",
                  "type": "bool"
                }
              ],
              "internalType": "struct HemShopBase.ReviewStruct[]",
              "name": "reviews",
              "type": "tuple[]"
            }
          ],
          "internalType": "struct HemShopProduct.ProductStruct",
          "name": "",
          "type": "tuple"
        }
      ],
      "stateMutability": "view",
      "type": "function"
    },
    {
      "inputs": [
        {
          "internalType": "uint256",
          "name": "productId",
          "type": "uint256"
        }
      ],
      "name": "getReviews",
      "outputs": [
        {
          "components": [
            {
              "internalType": "uint256",
              "name": "reviewId",
              "type": "uint256"
            },
            {
              "internalType": "address",
              "name": "reviewer",
              "type": "address"
            },
            {
              "internalType": "uint256",
              "name": "rating",
              "type": "uint256"
            },
            {
              "internalType": "string",
              "name": "comment",
              "type": "string"
            },
            {
              "internalType": "bool",
              "name": "deleted",
              "type": "bool"
            }
          ],
          "internalType": "struct HemShopBase.ReviewStruct[]",
          "name": "",
          "type": "tuple[]"
        }
      ],
      "stateMutability": "view",
      "type": "function"
    },
    {
      "inputs": [
        {
          "internalType": "address",
          "name": "account",
          "type": "address"
        }
      ],
      "name": "impersonateAccount",
      "outputs": [],
      "stateMutability": "nonpayable",
      "type": "function"
    },
    {
      "inputs": [
        {
          "internalType": "address",
          "name": "owner",
          "type": "address"
        },
        {
          "internalType": "address",
          "name": "operator",
          "type": "address"
        }
      ],
      "name": "isApprovedForAll",
      "outputs": [
        {
          "internalType": "bool",
          "name": "",
          "type": "bool"
        }
      ],
      "stateMutability": "view",
      "type": "function"
    },
    {
      "inputs": [],
      "name": "name",
      "outputs": [
        {
          "internalType": "string",
          "name": "",
          "type": "string"
        }
      ],
      "stateMutability": "view",
      "type": "function"
    },
    {
      "inputs": [],
      "name": "owner",
      "outputs": [
        {
          "internalType": "address",
          "name": "",
          "type": "address"
        }
      ],
      "stateMutability": "view",
      "type": "function"
    },
    {
      "inputs": [
        {
          "internalType": "uint256",
          "name": "tokenId",
          "type": "uint256"
        }
      ],
      "name": "ownerOf",
      "outputs": [
        {
          "internalType": "address",
          "name": "",
          "type": "address"
        }
      ],
      "stateMutability": "view",
      "type": "function"
    },
    {
      "inputs": [
        {
          "internalType": "uint256",
          "name": "",
          "type": "uint256"
        }
      ],
      "name": "productExists",
      "outputs": [
        {
          "internalType": "bool",
          "name": "",
          "type": "bool"
        }
      ],
      "stateMutability": "view",
      "type": "function"
    },
    {
      "inputs": [
        {
          "internalType": "uint256",
          "name": "",
          "type": "uint256"
        }
      ],
      "name": "products",
      "outputs": [
        {
          "internalType": "uint256",
          "name": "id",
          "type": "uint256"
        },
        {
          "internalType": "address",
          "name": "seller",
          "type": "address"
        },
        {
          "internalType": "string",
          "name": "name",
          "type": "string"
        },
        {
          "internalType": "string",
          "name": "description",
          "type": "string"
        },
        {
          "internalType": "uint256",
          "name": "price",
          "type": "uint256"
        },
        {
          "internalType": "uint256",
          "name": "stock",
          "type": "uint256"
        },
        {
          "internalType": "string",
          "name": "color",
          "type": "string"
        },
        {
          "internalType": "string",
          "name": "size",
          "type": "string"
        },
        {
          "internalType": "string",
          "name": "category",
          "type": "string"
        },
        {
          "internalType": "string",
          "name": "subCategory",
          "type": "string"
        },
        {
          "internalType": "uint256",
          "name": "weight",
          "type": "uint256"
        },
        {
          "internalType": "string",
          "name": "model",
          "type": "string"
        },
        {
          "internalType": "string",
          "name": "brand",
          "type": "string"
        },
        {
          "internalType": "uint256",
          "name": "sku",
          "type": "uint256"
        },
        {
          "internalType": "bool",
          "name": "soldout",
          "type": "bool"
        },
        {
          "internalType": "bool",
          "name": "wishlist",
          "type": "bool"
        },
        {
          "internalType": "bool",
          "name": "deleted",
          "type": "bool"
        }
      ],
      "stateMutability": "view",
      "type": "function"
    },
    {
      "inputs": [],
      "name": "renounceOwnership",
      "outputs": [],
      "stateMutability": "nonpayable",
      "type": "function"
    },
    {
      "inputs": [
        {
          "internalType": "uint256",
          "name": "",
          "type": "uint256"
        }
      ],
      "name": "reviewExists",
      "outputs": [
        {
          "internalType": "bool",
          "name": "",
          "type": "bool"
        }
      ],
      "stateMutability": "view",
      "type": "function"
    },
    {
      "inputs": [
        {
          "internalType": "address",
          "name": "from",
          "type": "address"
        },
        {
          "internalType": "address",
          "name": "to",
          "type": "address"
        },
        {
          "internalType": "uint256",
          "name": "tokenId",
          "type": "uint256"
        }
      ],
      "name": "safeTransferFrom",
      "outputs": [],
      "stateMutability": "nonpayable",
      "type": "function"
    },
    {
      "inputs": [
        {
          "internalType": "address",
          "name": "from",
          "type": "address"
        },
        {
          "internalType": "address",
          "name": "to",
          "type": "address"
        },
        {
          "internalType": "uint256",
          "name": "tokenId",
          "type": "uint256"
        },
        {
          "internalType": "bytes",
          "name": "data",
          "type": "bytes"
        }
      ],
      "name": "safeTransferFrom",
      "outputs": [],
      "stateMutability": "nonpayable",
      "type": "function"
    },
    {
      "inputs": [
        {
          "internalType": "address",
          "name": "",
          "type": "address"
        },
        {
          "internalType": "uint256",
          "name": "",
          "type": "uint256"
        }
      ],
      "name": "sellerProducts",
      "outputs": [
        {
          "internalType": "uint256",
          "name": "",
          "type": "uint256"
        }
      ],
      "stateMutability": "view",
      "type": "function"
    },
    {
      "inputs": [
        {
          "internalType": "address",
          "name": "",
          "type": "address"
        }
      ],
      "name": "sellerStatus",
      "outputs": [
        {
          "internalType": "enum HemShopBase.SellerStatus",
          "name": "",
          "type": "uint8"
        }
      ],
      "stateMutability": "view",
      "type": "function"
    },
    {
      "inputs": [],
      "name": "servicePct",
      "outputs": [
        {
          "internalType": "uint256",
          "name": "",
          "type": "uint256"
        }
      ],
      "stateMutability": "view",
      "type": "function"
    },
    {
      "inputs": [
        {
          "internalType": "address",
          "name": "operator",
          "type": "address"
        },
        {
          "internalType": "bool",
          "name": "approved",
          "type": "bool"
        }
      ],
      "name": "setApprovalForAll",
      "outputs": [],
      "stateMutability": "nonpayable",
      "type": "function"
    },
    {
      "inputs": [],
      "name": "stopImpersonating",
      "outputs": [],
      "stateMutability": "nonpayable",
      "type": "function"
    },
    {
      "inputs": [
        {
          "internalType": "bytes4",
          "name": "interfaceId",
          "type": "bytes4"
        }
      ],
      "name": "supportsInterface",
      "outputs": [
        {
          "internalType": "bool",
          "name": "",
          "type": "bool"
        }
      ],
      "stateMutability": "view",
      "type": "function"
    },
    {
      "inputs": [],
      "name": "symbol",
      "outputs": [
        {
          "internalType": "string",
          "name": "",
          "type": "string"
        }
      ],
      "stateMutability": "view",
      "type": "function"
    },
    {
      "inputs": [
        {
          "internalType": "uint256",
          "name": "tokenId",
          "type": "uint256"
        }
      ],
      "name": "tokenURI",
      "outputs": [
        {
          "internalType": "string",
          "name": "",
          "type": "string"
        }
      ],
      "stateMutability": "view",
      "type": "function"
    },
    {
      "inputs": [
        {
          "internalType": "address",
          "name": "from",
          "type": "address"
        },
        {
          "internalType": "address",
          "name": "to",
          "type": "address"
        },
        {
          "internalType": "uint256",
          "name": "tokenId",
          "type": "uint256"
        }
      ],
      "name": "transferFrom",
      "outputs": [],
      "stateMutability": "nonpayable",
      "type": "function"
    },
    {
      "inputs": [
        {
          "internalType": "address",
          "name": "newOwner",
          "type": "address"
        }
      ],
      "name": "transferOwnership",
      "outputs": [],
      "stateMutability": "nonpayable",
      "type": "function"
    },
    {
      "inputs": [
        {
          "internalType": "uint256",
          "name": "productId",
          "type": "uint256"
        },
        {
          "components": [
            {
              "internalType": "string",
              "name": "name",
              "type": "string"
            },
            {
              "internalType": "string",
              "name": "description",
              "type": "string"
            },
            {
              "internalType": "uint256",
              "name": "price",
              "type": "uint256"
            },
            {
              "internalType": "uint256",
              "name": "stock",
              "type": "uint256"
            },
            {
              "internalType": "string",
              "name": "color",
              "type": "string"
            },
            {
              "internalType": "string",
              "name": "size",
              "type": "string"
            },
            {
              "internalType": "string[]",
              "name": "images",
              "type": "string[]"
            },
            {
              "internalType": "string",
              "name": "category",
              "type": "string"
            },
            {
              "internalType": "string",
              "name": "subCategory",
              "type": "string"
            },
            {
              "internalType": "string",
              "name": "model",
              "type": "string"
            },
            {
              "internalType": "string",
              "name": "brand",
              "type": "string"
            },
            {
              "internalType": "uint256",
              "name": "weight",
              "type": "uint256"
            },
            {
              "internalType": "uint256",
              "name": "sku",
              "type": "uint256"
            }
          ],
          "internalType": "struct HemShopProduct.ProductInput",
          "name": "input",
          "type": "tuple"
        }
      ],
      "name": "updateProduct",
      "outputs": [],
      "stateMutability": "nonpayable",
      "type": "function"
    }
  ],
  "bytecode": "0x6080346200037757601f90601f196001600160401b0362004f053881900385810184168501838111868210176200037c57859282916040528339602094859181010312620003775751936200005362000392565b926007845266048656d53686f760cc1b858501526200007162000392565b60038082526204873760ec1b8783015260008054336001600160a01b031982168117835592989394919392906001600160a01b03167f8be0079c531659141344cd1fd0a4f28419497f9722a3daafe3b4186f6b6457e08580a360019687805580519087821162000363576002548981811c9116801562000358575b858210146200034457908188849311620002f0575b5084908883116001146200028e57869262000282575b5050600019828b1b1c191690881b176002555b83519586116200026e5787548781811c9116801562000263575b838210146200024f5785811162000207575b5081948611600114620001a25750509183949184939462000196575b50501b9160001990841b1c19161790555b600b55604051614b529081620003b38239f35b01519250388062000172565b8783528183209493928692918316915b88838310620001ec5750505010620001d3575b505050811b01905562000183565b015160001983861b60f8161c19169055388080620001c5565b858701518855909601959485019487935090810190620001b2565b8884528284208680890160051c820192858a1062000245575b0160051c019088905b8281106200023957505062000156565b85815501889062000229565b9250819262000220565b634e487b7160e01b84526022600452602484fd5b90607f169062000144565b634e487b7160e01b83526041600452602483fd5b01519050388062000117565b90848b9416916002885286882092885b88828210620002d95750508411620002c0575b505050811b016002556200012a565b0151600019838d1b60f8161c19169055388080620002b1565b8385015186558e979095019493840193016200029e565b909150600286528486208880850160051c8201928786106200033a575b918c91869594930160051c01915b8281106200032b57505062000101565b8881558594508c91016200031b565b925081926200030d565b634e487b7160e01b86526022600452602486fd5b90607f1690620000ec565b634e487b7160e01b85526041600452602485fd5b600080fd5b634e487b7160e01b600052604160045260246000fd5b60408051919082016001600160401b038111838210176200037c5760405256fe608080604052600436101561001357600080fd5b60003560e01c908162d64e76146137625750806301ffc9a7146136f457806302ee3a521461345d57806306fdde03146133b7578063081812fc14613399578063095ea7b31461321f5780631385fd92146131b657806316d81b3814612fd357806323b872dd14612faa57806324d41a0314612d8557806342842e0e14612d5d57806345de84db14612d175780636352211e14612ce757806370a0823114612c50578063715018a614612bf75780637acc0b2014612a5f5780638da5cb5b14612a3657806395d89b41146129545780639d4a2255146127c1578063a22cb465146126e6578063a22fb38714612620578063af55ed64146125ef578063b119105214611a74578063b235b4a914610b33578063b88d4fde14610ad2578063b95a062814610a97578063b9db15b414610861578063c1302b3414610809578063c87b56dd14610799578063e01ef6e61461077b578063e985e9c514610725578063ed90c7b714610540578063f2fde38b1461047c5763fdca4ca31461019457600080fd5b346104775760003660031901126104775760088054600060015b8281111561041657506101c090614a71565b9060009260015b828111156101e157604051806101dd8682613a06565b0390f35b6000818152600e6020818152604090922060018101546001600160a01b031692919033841480610404575b610223575b5050505061021e90614a4c565b6101c7565b6040989498519361023385613a94565b815485528385015261024760028201613be3565b604085015261025860038201613be3565b6060850152600481015460808501526005918282015460a086015261027f60068301613be3565b60c086015261029060078301613be3565b60e086015286820180546102a3816146fb565b916102b16040519384613ae6565b818352600090815286812090878085015b8483106103e65750505050506101008601526102e060098301613be3565b6101208601526102f2600a8301613be3565b610140860152600b82015461016086015261030f600c8301613be3565b610180860152610321600d8301613be3565b6101a08601528101546101c0850152600f81015460ff80821615156101e087015281881c81161515610200870152601091821c161515610220860152018054919061036b836146fb565b936103796040519586613ae6565b8385526000918252808220918186015b8582106103ca57505050505050918161021e936102406103c09401526103af8288614ac1565b526103ba8187614ac1565b50614a4c565b9490388080610211565b84836001926103d8876149fc565b815201940191019092610389565b60019182916103f486613be3565b81520193019101909188906102c2565b5060ff600f82015460101c161561020c565b6000818152600e6020526040902060018101546001600160a01b031633149081610464575b5061044f575b61044a90614a4c565b6101ae565b9061045c61044a91614a4c565b919050610441565b60ff9150600f015460101c16153861043b565b600080fd5b3461047757602036600319011261047757610495613a68565b61049d613cb7565b6001600160a01b039081169081156104ec57600054826001600160601b0360a01b821617600055167f8be0079c531659141344cd1fd0a4f28419497f9722a3daafe3b4186f6b6457e0600080a3005b60405162461bcd60e51b815260206004820152602660248201527f4f776e61626c653a206e6577206f776e657220697320746865207a65726f206160448201526564647265737360d01b6064820152608490fd5b346104775760208060031936011261047757336000908152600d8252604090205460043591906001600160a01b0390811680156106e95780600052600c835260ff604060002054169060048210156106d35760026105a792149081156106c5575b506141b7565b82600052600f82526105c060ff60406000205416614976565b82600052600e8252338160016040600020015416149081156106b7575b50156106635781600052600e815260ff600f6040600020015460101c1661061f576000918252600e905260409020600f01805462ff0000191662010000179055005b6064906040519062461bcd60e51b82526004820152601a60248201527f50726f6475637420697320616c72656164792064656c657465640000000000006044820152fd5b6084906040519062461bcd60e51b82526004820152602760248201527f4f6e6c792070726f647563742073656c6c6572206f72206f776e65722063616e6044820152662064656c65746560c81b6064820152fd5b6000541633149050836105dd565b9050826000541614856105a1565b634e487b7160e01b600052602160045260246000fd5b50600c825260ff6040600020541660048110156106d3576002148015610718575b610713906141b7565b6105a7565b506000548116331461070a565b346104775760403660031901126104775761073e613a68565b610746613a7e565b9060018060a01b03809116600052600760205260406000209116600052602052602060ff604060002054166040519015158152f35b34610477576000366003190112610477576020600b54604051908152f35b34610477576020366003190112610477576107d36107ce600435600052600460205260018060a01b0360406000205416151590565b613d0f565b60006040516107e181613acb565b526101dd6040516107f181613acb565b6000815260405191829160208352602083019061378f565b3461047757604036600319011261047757610822613a68565b6001600160a01b03166000908152601060205260409020805460243591908210156104775760209161085391613c89565b90546040519160031b1c8152f35b34610477576020806003193601126104775760043561087e61466f565b5080600052600e825261089f60ff600f6040600020015460101c16156149bb565b80600052600f82526108b860ff60406000205416614976565b600052600e8152604060002090604051916108d283613a94565b805483526001808201546001600160a01b0316838501526108f560028301613be3565b604085015261090660038301613be3565b6060850152600482015460808501526005918281015460a086015261092d60068201613be3565b60c086015261093e60078201613be3565b60e0860152600881018054610952816146fb565b916109606040519384613ae6565b818352600090815286812085888086015b858510610a7a5750888b926010898961010087015261099260098201613be3565b6101208701526109a4600a8201613be3565b610140870152600b8101546101608701526109c1600c8201613be3565b6101808701526109d3600d8201613be3565b6101a0870152600e8101546101c087015260ff600f82015481811615156101e0890152818160081c161515610200890152831c1615156102208701520191825490610a1d826146fb565b93610a2b6040519586613ae6565b8285526000908152858120868087015b858410610a5d576102408a01889052604051828152806101dd8185018d613866565b86918591610a6a856149fc565b8152019201920191908790610a3b565b908291610a8685613be3565b815201920192019190888791610971565b346104775760203660031901126104775760206001600160a01b0380610abb613a68565b16600052600d825260406000205416604051908152f35b3461047757608036600319011261047757610aeb613a68565b610af3613a7e565b606435916001600160401b038311610477573660238401121561047757610b27610b31933690602481600401359101613b22565b9160443591613e1e565b005b3461047757600319602036820112610477576001600160401b0360043511610477576101a0906004353603011261047757336000908152600d60205260409020546001600160a01b03168015611a305780600052600c60205260ff604060002054169060048210156106d3576002610bb39214908115611a1b57506141b7565b610bcd610bc4600480350180614211565b90501515614243565b6024610bee610be58260043501600435600401614211565b90501515614286565b610bff6044600435013515156142d2565b610c1060646004350135151561431e565b610c30610c27608460043501600435600401614211565b9050151561436a565b610c50610c4760c4600435016004356004016143ae565b905015156143e3565b610c716005610c6960c4600435016004356004016143ae565b905010614428565b610c91610c8860a460043501600435600401614211565b90501515614474565b610cb1610ca860e460043501600435600401614211565b905015156144b7565b610cd2610cc961010460043501600435600401614211565b90501515614503565b610cf3610cea61012460043501600435600401614211565b9050151561454f565b610d14610d0b61014460043501600435600401614211565b90501515614593565b610d26610164600435013515156145d7565b610d3861018460043501351515614623565b60016008540180600855610d4a61466f565b818152336020820152610d6b610d64600480350180614211565b3691613b22565b6040820152610d86610d648460043501600435600401614211565b60608201526044600435013560808201526064600435013560a0820152610dba610d64608460043501600435600401614211565b60c0820152610dd6610d6460a460043501600435600401614211565b60e0820152610def60c4600435016004356004016143ae565b90610df9826146fb565b91610e076040519384613ae6565b8083526020830191368260051b8201116104775780925b8260051b820184106119f05750505050610100820152610e4b610d6460e460043501600435600401614211565b610120820152610e69610d6461010460043501600435600401614211565b610140820152610e87610d6461012460043501600435600401614211565b610180820152610ea5610d6461014460043501600435600401614211565b6101a082015260043561016481013561016083015261018401356101c082015233156119ac57600082815260046020526040902054610ef0906001600160a01b031615155b1561492a565b600082815260046020526040902054610f13906001600160a01b03161515610eea565b3360005260056020526040600020600181540190558160005260046020526040600020336001600160601b0360a01b825416179055813360007fddf252ad1be2c89b69c2b068fc378daa952ba7f163c4a11628f55a4df523b3ef8180a4600e6020526040600020815181556001810160018060a01b036020840151166001600160601b0360a01b82541617905560408201518051906001600160401b0382116114b3578190610fd282610fc96002870154613ba9565b60028701614729565b602090601f831160011461193a5760009261192f575b50508160011b916000199060031b1c19161760028201555b60608201518051906001600160401b0382116114b3578190611032826110296003870154613ba9565b60038701614729565b602090601f83116001146118bd576000926118b2575b50508160011b916000199060031b1c19161760038201555b6080820151600482015560a0820151600582015560c08201518051906001600160401b0382116114b35781906110a68261109d6006870154613ba9565b60068701614729565b602090601f831160011461184057600092611835575b50508160011b916000199060031b1c19161760068201555b60e08201518051906001600160401b0382116114b3578190611106826110fd6007870154613ba9565b60078701614729565b602090601f83116001146117c3576000926117b8575b50508160011b916000199060031b1c19161760078201555b6008810161010083015190602082519261114e84846147b7565b019060005260206000206000915b8383106116c057505050506101208201518051906001600160401b0382116114b357819061119a826111916009870154613ba9565b60098701614729565b602090601f831160011461164e57600092611643575b50508160011b916000199060031b1c19161760098201555b6101408201518051906001600160401b0382116114b35781906111fb826111f2600a870154613ba9565b600a8701614729565b602090601f83116001146115d1576000926115c6575b50508160011b916000199060031b1c191617600a8201555b610160820151600b8201556101808201518051906001600160401b0382116114b35781906112678261125e600c870154613ba9565b600c8701614729565b602090601f831160011461155457600092611549575b50508160011b916000199060031b1c191617600c8201555b6101a08201518051906001600160401b0382116114b3576112c6826112bd600d860154613ba9565b600d8601614729565b602090601f83116001146114d357918061024094926010946000926114c8575b50508160011b916000199060031b1c191617600d8201555b6101c0840151600e820155600f810161132a6101e08601511515829060ff801983541691151516179055565b6102008501511515815461ff0062ff00006102208901511515871b169260081b169062ffff001916171790550191015190815190600160401b928383116114b3578154838355808410611423575b506020019060005260206000206000915b838310611405575050505081600052600f6020526040600020600160ff1982541617905533600052601060205260406000208054918210156113f057906113d591600182018155613c89565b819291549060031b91821b91600019901b1916179055600080f35b83634e487b7160e01b60005260416004526000fd5b60056020826114176001945186614800565b01920192019190611389565b8060050290600582040361149e57836005026005810485036114895783600052602060002091820191015b81811061145b5750611378565b80600060059255600060018201556000600282015561147c6003820161476e565b600060048201550161144e565b87634e487b7160e01b60005260116004526000fd5b86634e487b7160e01b60005260116004526000fd5b85634e487b7160e01b60005260416004526000fd5b0151905088806112e6565b90600d840160005260206000209160005b601f1985168110611531575092610240949260019260109583601f19811610611518575b505050811b01600d8201556112fe565b015160001960f88460031b161c19169055888080611508565b919260206001819286850151815501940192016114e4565b01519050868061127d565b9250600c84016000526020600020906000935b601f19841685106115ab576001945083601f19811610611592575b505050811b01600c820155611295565b015160001960f88460031b161c19169055868080611582565b81810151835560209485019460019093019290910190611567565b015190508680611211565b9250600a84016000526020600020906000935b601f1984168510611628576001945083601f1981161061160f575b505050811b01600a820155611229565b015160001960f88460031b161c191690558680806115ff565b818101518355602094850194600190930192909101906115e4565b0151905086806111b0565b9250600984016000526020600020906000935b601f19841685106116a5576001945083601f1981161061168c575b505050811b0160098201556111c8565b015160001960f88460031b161c1916905586808061167c565b81810151835560209485019460019093019290910190611661565b80518051906001600160401b0382116117a3576116e7826116e18654613ba9565b86614729565b602090601f8311600114611733579282600194936020938695600092611728575b5050600019600383901b1c191690841b1785555b0192019201919061115c565b015190508d80611708565b908460005260206000209160005b601f198516811061178b575083602093600196938796938794601f19811610611772575b505050811b01855561171c565b015160001960f88460031b161c191690558d8080611765565b91926020600181928685015181550194019201611741565b89634e487b7160e01b60005260416004526000fd5b01519050868061111c565b9250600784016000526020600020906000935b601f198416851061181a576001945083601f19811610611801575b505050811b016007820155611134565b015160001960f88460031b161c191690558680806117f1565b818101518355602094850194600190930192909101906117d6565b0151905086806110bc565b9250600684016000526020600020906000935b601f1984168510611897576001945083601f1981161061187e575b505050811b0160068201556110d4565b015160001960f88460031b161c1916905586808061186e565b81810151835560209485019460019093019290910190611853565b015190508680611048565b9250600384016000526020600020906000935b601f1984168510611914576001945083601f198116106118fb575b505050811b016003820155611060565b015160001960f88460031b161c191690558680806118eb565b818101518355602094850194600190930192909101906118d0565b015190508680610fe8565b9250600284016000526020600020906000935b601f1984168510611991576001945083601f19811610611978575b505050811b016002820155611000565b015160001960f88460031b161c19169055868080611968565b8181015183556020948501946001909301929091019061194d565b60405162461bcd60e51b8152602060048201819052818501527f4552433732313a206d696e7420746f20746865207a65726f20616464726573736044820152606490fd5b6001600160401b038435116104775760208091611a103687358601613b59565b815201930192610e1e565b6000546001600160a01b0316149050826105a1565b50600c60205260ff6040600020541660048110156106d3576002148015611a60575b611a5b906141b7565b610bb3565b506000546001600160a01b03163314611a52565b3461047757600319604036820112610477576001600160401b0360243511610477576101a0906024353603011261047757336000908152600d60205260409020546001600160a01b0390811680156125b25780600052600c60205260ff604060002054169060048210156106d3576002611af692149081156125a457506141b7565b600435600052600e6020523390600160406000200154160361254e57600435600052600f602052611b2e60ff60406000205416614976565b600435600052600e602052611b5160ff600f6040600020015460101c16156149bb565b611b63610bc460046024350180614211565b611b79610be56024803501602435600401614211565b611b8a6044602435013515156142d2565b611ba1610c4760c4602435016024356004016143ae565b611bba6005610c6960c4602435016024356004016143ae565b611bcb60646024350135151561431e565b611be2610c27608460243501602435600401614211565b611bf9610c8860a460243501602435600401614211565b611c10610ca860e460243501602435600401614211565b611c28610cc961010460243501602435600401614211565b611c40610cea61012460243501602435600401614211565b611c58610d0b61014460243501602435600401614211565b611c6a610164602435013515156145d7565b611c7c61018460243501351515614623565b611c8b60046024350180614211565b600435600052600e6020526002604060002001906001600160401b03811161211c57611cc181611cbb8454613ba9565b84614729565b600092601f82116001146124e557928192936000926124da575b50508160011b916000199060031b1c19161790555b611d036024803501602435600401614211565b600435600052600e6020526003604060002001906001600160401b03811161211c57611d3381611cbb8454613ba9565b600092601f82116001146124715792819293600092612466575b50508160011b916000199060031b1c19161790555b600435600052600e6020526040600020604460243501356004820155606460243501356005820155611d9e608460243501602435600401614211565b906001600160401b03821161211c57611dc782611dbe6006860154613ba9565b60068601614729565b600090601f83116001146123f65760069291600091836123eb575b50508160011b916000199060031b1c1916179101555b611e0c60a460243501602435600401614211565b600435600052600e6020526007604060002001906001600160401b03811161211c57611e3c81611cbb8454613ba9565b600092601f82116001146123825792819293600092612377575b50508160011b916000199060031b1c19161790555b611e7f60c4602435016024356004016143ae565b600435600052600e602052600860406000200191611e9d82846147b7565b60009283526020832090805b83851061228e57611ec460e460243501602435600401614211565b600435600052600e6020526009604060002001906001600160401b03811161211c57611ef481611cbb8454613ba9565b600092601f8211600114612225579281929360009261221a575b50508160011b916000199060031b1c19161790555b611f3861010460243501602435600401614211565b600435600052600e602052600a604060002001906001600160401b03811161211c57611f6881611cbb8454613ba9565b600092601f82116001146121b157928192936000926121a6575b50508160011b916000199060031b1c19161790555b611fac61012460243501602435600401614211565b600435600052600e602052600c604060002001906001600160401b03811161211c57611fdc81611cbb8454613ba9565b600092601f821160011461213d5792819293600092612132575b50508160011b916000199060031b1c19161790555b61202061014460243501602435600401614211565b600435600052600e602052600d604060002001906001600160401b03811161211c5761205081611cbb8454613ba9565b6000601f82116001146120b7578192936000926120ac575b50508160011b916000199060031b1c19161790555b600435600052600e60205260406000206101646024350135600b820155600e6101846024350135910155600080f35b013590508380612068565b601f198216938360005260206000209160005b86811061210457508360019596106120ea575b505050811b01905561207d565b0135600019600384901b60f8161c191690558380806120dd565b909260206001819286860135815501940191016120ca565b634e487b7160e01b600052604160045260246000fd5b013590508380611ff6565b826000526020600020906000945b601f198416861061218e57600194955083601f19811610612174575b505050811b01905561200b565b0135600019600384901b60f8161c19169055838080612167565b9160206001819285850135815501930195019461214b565b013590508380611f82565b826000526020600020906000945b601f198416861061220257600194955083601f198116106121e8575b505050811b019055611f97565b0135600019600384901b60f8161c191690558380806121db565b916020600181928585013581550193019501946121bf565b013590508380611f0e565b826000526020600020906000945b601f198416861061227657600194955083601f1981161061225c575b505050811b019055611f23565b0135600019600384901b60f8161c1916905583808061224f565b91602060018192858501358155019301950194612233565b6122988183614211565b906001600160401b03821161211c576122bb826122b58754613ba9565b87614729565b600090601f83116001146123075792826001949360209386956000926122fc575b5050600019600383901b1c191690841b1786555b01930194019391611ea9565b013590508a806122dc565b8560005260206000209160005b601f198516811061235f575083602093600196938796938794601f19811610612345575b505050811b0186556122f0565b0135600019600384901b60f8161c191690558a8080612338565b90926020600181928686013581550194019101612314565b013590508380611e56565b826000526020600020906000945b601f19841686106123d357600194955083601f198116106123b9575b505050811b019055611e6b565b0135600019600384901b60f8161c191690558380806123ac565b91602060018192858501358155019301950194612390565b013590508480611de2565b6006840160005260206000209160005b601f198516811061244e5750918391600193600695601f19811610612434575b505050811b01910155611df8565b0135600019600384901b60f8161c19169055848080612426565b90926020600181928686013581550194019101612406565b013590508380611d4d565b826000526020600020906000945b601f19841686106124c257600194955083601f198116106124a8575b505050811b019055611d62565b0135600019600384901b60f8161c1916905583808061249b565b9160206001819285850135815501930195019461247f565b013590508380611cdb565b826000526020600020906000945b601f198416861061253657600194955083601f1981161061251c575b505050811b019055611cf0565b0135600019600384901b60f8161c1916905583808061250f565b916020600181928585013581550193019501946124f3565b60405162461bcd60e51b815260206004820152602860248201527f4f6e6c79207468652073656c6c65722063616e20757064617465207468656972604482015267081c1c9bd91d58dd60c21b6064820152608490fd5b9050826000541614836105a1565b50600c60205260ff6040600020541660048110156106d35760021480156125e2575b6125dd906141b7565b611af6565b50600054811633146125d4565b3461047757602036600319011261047757600435600052600f602052602060ff604060002054166040519015158152f35b3461047757602036600319011261047757612639613a68565b612641613cb7565b6001600160a01b031680156126a15760407f32b449308c94e824ccedd9877932cd82f89a481c06c4643a0cb2914454a8c5829133600052600d60205281600020816001600160601b0360a01b8254161790558151903382526020820152a1005b60405162461bcd60e51b815260206004820152601760248201527f496e76616c6964206163636f756e7420616464726573730000000000000000006044820152606490fd5b34610477576040366003190112610477576126ff613a68565b6024359081151590818303610477576001600160a01b03169133831461277c5761274e9033600052600760205260406000208460005260205260406000209060ff801983541691151516179055565b6040519081527f17307eab39ab6107e8899845ad3d59bd9653f200f220920489ca2b5937696c3160203392a3005b60405162461bcd60e51b815260206004820152601960248201527f4552433732313a20617070726f766520746f2063616c6c6572000000000000006044820152606490fd5b34610477576020806003193601126104775760043580600052600e9081835260ff600f60406000200154916127fc82601094851c16156149bb565b80600052600f85526128148260406000205416614976565b60009260005b8260005285875281604060002001805482101561286b57600461283e838793614b00565b5001541615612856575b61285190614a4c565b61281a565b9361286361285191614a4c565b949050612848565b50508486612878866146fb565b956128866040519788613ae6565b808752612895601f19916146fb565b018160005b82811061293e5750505060009360005b8160005283835284604060002001805482101561292b5760046128ce838a93614b00565b50015416156128e6575b6128e190614a4c565b6128aa565b946129236128e1918360005285855261290e6129088989604060002001614b00565b506149fc565b612918828c614ac1565b526103ba818b614ac1565b9590506128d8565b604051848152806101dd8187018c6137cf565b612946614ad5565b82828b01015201829061289a565b3461047757600036600319011261047757604051600060035461297681613ba9565b80845290600190818116908115612a0f57506001146129b4575b6101dd846129a081860382613ae6565b60405191829160208352602083019061378f565b6003600090815292507fc2575a0e9e593c00f959f8c92f12db2869c3395a3b0502d05e2516446f71f85b5b8284106129f75750505081016020016129a082612990565b805460208587018101919091529093019281016129df565b60ff191660208087019190915292151560051b850190920192506129a09150839050612990565b34610477576000366003190112610477576000546040516001600160a01b039091168152602090f35b34610477576020366003190112610477576004356000908152600e60205260409020805460018201546001600160a01b031691612a9e60028201613be3565b612aaa60038301613be3565b6004830154600584015490612ac160068601613be3565b612acd60078701613be3565b612ad960098801613be3565b90612ae6600a8901613be3565b92600b89015494600c8a01612afa90613be3565b96612b07600d8c01613be3565b98600e8c01549b600f01549a6040519e8f9e8f908152602001528d6102209081604082015201612b369161378f565b8d810360608f0152612b479161378f565b9160808d015260a08c01528a810360c08c0152612b639161378f565b89810360e08b0152612b749161378f565b8881036101008a0152612b869161378f565b878103610120890152612b989161378f565b90610140870152858103610160870152612bb19161378f565b848103610180860152612bc39161378f565b916101a084015260ff811615156101c08401528060081c60ff1615156101e084015260101c60ff1615156102008301520390f35b3461047757600036600319011261047757612c10613cb7565b600080546001600160a01b0319811682556001600160a01b03167f8be0079c531659141344cd1fd0a4f28419497f9722a3daafe3b4186f6b6457e08280a3005b34610477576020366003190112610477576001600160a01b03612c71613a68565b168015612c905760005260056020526020604060002054604051908152f35b60405162461bcd60e51b815260206004820152602960248201527f4552433732313a2061646472657373207a65726f206973206e6f7420612076616044820152683634b21037bbb732b960b91b6064820152608490fd5b34610477576020366003190112610477576020612d05600435613d5b565b6040516001600160a01b039091168152f35b34610477576020366003190112610477576001600160a01b03612d38613a68565b16600052600c60205260ff6040600020541660405160048210156106d3576020918152f35b3461047757610b31612d6e36613b74565b9060405192612d7c84613acb565b60008452613e1e565b3461047757604036600319011261047757602480356004356000805b82600052600e602090808252601091826040600020018054851015612f9d57612dcb858992614b00565b505414612de357505050612dde90614a4c565b612da1565b9193509193946000526011815260ff94856040600020541615612f615780600052828252612e178585604060002001614b00565b50600190810154909690336001600160a01b0391821614908115612f53575b5015612efe57816000528383526004612e558787604060002001614b00565b50015416612ec15791612e7693916004959360005252604060002001614b00565b5001805460ff1916821790555b15612e8a57005b60649060106040519162461bcd60e51b8352602060048401528201526f14995d9a595dc81b9bdd08199bdd5b9960821b6044820152fd5b60405162461bcd60e51b8152600481018390526016818901527514995d9a595dc8185b1c9958591e4819195b195d195960521b6044820152606490fd5b60405162461bcd60e51b8152600481018490526028818a01527f4f6e6c79207265766965776572206f72206f776e65722063616e2064656c6574604482015267652072657669657760c01b6064820152608490fd5b600054163314905089612e36565b60405162461bcd60e51b8152600481018390526015818901527414995d9a595dc8191bd95cc81b9bdd08195e1a5cdd605a1b6044820152606490fd5b5050505050915050612e83565b3461047757610b31612fbb36613b74565b91612fce612fc98433613eb9565b613dbc565b613f81565b3461047757606036600319011261047757602480356004356044356001600160401b0381116104775761300a903690600401613b59565b9080600052602091600e835260018060a01b036001604060002001541633146131635783151580613158575b15613114578051156130d05790600e92916001600a54019081600a5561305a614ad5565b95828752338588015260408701526060860152600052601182526040600020600160ff198254161790556000525260106040600020018054600160401b8110156113f0576130ad91600182018155614b00565b6130bb57610b319250614800565b82634e487b7160e01b60005260006004526000fd5b60405162461bcd60e51b8152600481018490526017818701527f436f6d6d656e742063616e6e6f7420626520656d7074790000000000000000006044820152606490fd5b60405162461bcd60e51b815260048101849052601e818701527f526174696e67206d757374206265206265747765656e203120616e64203500006044820152606490fd5b506005841115613036565b60405162461bcd60e51b8152600481018490526026818701527f53656c6c65722063616e6e6f7420726576696577207468656972206f776e20706044820152651c9bd91d58dd60d21b6064820152608490fd5b34610477576000366003190112610477576131cf613cb7565b33600052600d60205260406000206001600160601b0360a01b81541690557f32b449308c94e824ccedd9877932cd82f89a481c06c4643a0cb2914454a8c5826040805133815260006020820152a1005b3461047757604036600319011261047757613238613a68565b602435906001600160a01b03808061324f85613d5b565b1692169180831461334a57803314908115613325575b50156132ba57600083815260066020526040902080546001600160a01b0319168317905561329283613d5b565b167f8c5be1e5ebec7d5bd14f71427d1e84f3dd0314c0f7b2291e5b200ac8c7c3b925600080a4005b60405162461bcd60e51b815260206004820152603d60248201527f4552433732313a20617070726f76652063616c6c6572206973206e6f7420746f60448201527f6b656e206f776e6572206f7220617070726f76656420666f7220616c6c0000006064820152608490fd5b9050600052600760205260406000203360005260205260ff6040600020541684613265565b60405162461bcd60e51b815260206004820152602160248201527f4552433732313a20617070726f76616c20746f2063757272656e74206f776e656044820152603960f91b6064820152608490fd5b34610477576020366003190112610477576020612d05600435613d7e565b346104775760003660031901126104775760405160006002546133d981613ba9565b80845290600190818116908115612a0f5750600114613402576101dd846129a081860382613ae6565b6002600090815292507f405787fa12a823e0f2b7631cc41b3ba8828b3321ca811111fa75cd3aa3bb5ace5b8284106134455750505081016020016129a082612990565b8054602085870181019190915290930192810161342d565b3461047757600036600319011261047757600854600060015b828111156136b3575061348890614a71565b90600160005b828211156134a457604051806101dd8682613a06565b81600052600e6020526040600020600f8101549060ff8260101c16156134d7575b5050906134d190614a4c565b9061348e565b604051916134e483613a94565b8154835260018201546001600160a01b0316602084015261350760028301613be3565b604084015261351860038301613be3565b606084015260048201546080840152600582015460a084015261353d60068301613be3565b60c084015261354e60078301613be3565b60e0840152600882018054613562816146fb565b916135706040519384613ae6565b81835260208301906000526020600020906000905b83821061369657505050506010929160ff916101008601526135a960098401613be3565b6101208601526135bb600a8401613be3565b610140860152600b8301546101608601526135d8600c8401613be3565b6101808601526135ea600d8401613be3565b6101a0860152600e8301546101c086015281811615156101e0860152818160081c161515610200860152831c1615156102208401520180549061362c826146fb565b9161363a6040519384613ae6565b808352602083019160005260206000206000925b82841061367857505050506102408201526134d191613671916103af8288614ac1565b90856134c5565b60056020600192613688856149fc565b81520192019301929061364e565b6001602081926136a586613be3565b815201930191019091613585565b80600052600e60205260ff600f6040600020015460101c16156136df575b6136da90614a4c565b613476565b906136ec6136da91614a4c565b9190506136d1565b346104775760203660031901126104775760043563ffffffff60e01b8116809103610477576020906380ac58cd60e01b8114908115613751575b8115613740575b506040519015158152f35b6301ffc9a760e01b14905082613735565b635b5e139f60e01b8114915061372e565b34610477576020366003190112610477576020906004356000526011825260ff6040600020541615158152f35b919082519283825260005b8481106137bb575050826000602080949584010152601f8019910116010190565b60208183018101518483018201520161379a565b908082519081815260208091019281808460051b8301019501936000915b8483106137fd5750505050505090565b9091929394958480600192601f1985820301865289519081518152848060a01b038383015116838201526040808301519082015261384a6060808401519060a0809185015283019061378f565b91608080910151151591015298019301930191949392906137ed565b91908251815260209260018060a01b038482015116848301526138eb6138d96138b36138a1604085015161026080604089015287019061378f565b6060850151868203606088015261378f565b6080840151608086015260a084015160a086015260c084015185820360c087015261378f565b60e083015184820360e086015261378f565b6101009485830151958483039085015285518083528183019180808360051b8601019801926000905b8382106139d65750505050505061398d61397961395a6139466139d3969761012080870151908883039089015261378f565b61014080860151908783039088015261378f565b610160808501519086015261018080850151908683039087015261378f565b6101a080840151908583039086015261378f565b916101c080830151908201526101e080830151151590820152610200808301511515908201526102208083015115159082015261024080920151918184039101526137cf565b90565b90919293949883806139f56001938d601f19908203018652895161378f565b9b9701959493919091019101613914565b602080820190808352835180925260408301928160408460051b8301019501936000915b848310613a3a5750505050505090565b9091929394958480613a58600193603f198682030187528a51613866565b9801930193019194939290613a2a565b600435906001600160a01b038216820361047757565b602435906001600160a01b038216820361047757565b61026081019081106001600160401b0382111761211c57604052565b60a081019081106001600160401b0382111761211c57604052565b602081019081106001600160401b0382111761211c57604052565b90601f801991011681019081106001600160401b0382111761211c57604052565b6001600160401b03811161211c57601f01601f191660200190565b929192613b2e82613b07565b91613b3c6040519384613ae6565b829481845281830111610477578281602093846000960137010152565b9080601f83011215610477578160206139d393359101613b22565b6060906003190112610477576001600160a01b0390600435828116810361047757916024359081168103610477579060443590565b90600182811c92168015613bd9575b6020831014613bc357565b634e487b7160e01b600052602260045260246000fd5b91607f1691613bb8565b9060405191826000825492613bf784613ba9565b908184526001948581169081600014613c665750600114613c23575b5050613c2192500383613ae6565b565b9093915060005260209081600020936000915b818310613c4e575050613c2193508201013880613c13565b85548884018501529485019487945091830191613c36565b915050613c2194506020925060ff191682840152151560051b8201013880613c13565b8054821015613ca15760005260206000200190600090565b634e487b7160e01b600052603260045260246000fd5b6000546001600160a01b03163303613ccb57565b606460405162461bcd60e51b815260206004820152602060248201527f4f776e61626c653a2063616c6c6572206973206e6f7420746865206f776e65726044820152fd5b15613d1657565b60405162461bcd60e51b815260206004820152601860248201527f4552433732313a20696e76616c696420746f6b656e20494400000000000000006044820152606490fd5b6000908152600460205260409020546001600160a01b03166139d3811515613d0f565b600081815260046020526040902054613da1906001600160a01b03161515613d0f565b6000908152600660205260409020546001600160a01b031690565b15613dc357565b60405162461bcd60e51b815260206004820152602d60248201527f4552433732313a2063616c6c6572206973206e6f7420746f6b656e206f776e6560448201526c1c881bdc88185c1c1c9bdd9959609a1b6064820152608490fd5b90613e42939291613e32612fc98433613eb9565b613e3d838383613f81565b614092565b15613e4957565b60405162461bcd60e51b815280613e6260048201613e66565b0390fd5b60809060208152603260208201527f4552433732313a207472616e7366657220746f206e6f6e20455243373231526560408201527131b2b4bb32b91034b6b83632b6b2b73a32b960711b60608201520190565b906001600160a01b038080613ecd84613d5b565b16931691838314938415613f00575b508315613eea575b50505090565b613ef691929350613d7e565b1614388080613ee4565b909350600052600760205260406000208260005260205260ff604060002054169238613edc565b15613f2e57565b60405162461bcd60e51b815260206004820152602560248201527f4552433732313a207472616e736665722066726f6d20696e636f72726563742060448201526437bbb732b960d91b6064820152608490fd5b90613fa991613f8f84613d5b565b6001600160a01b0393918416928492909183168414613f27565b169182156140415781613fc691613fbf86613d5b565b1614613f27565b7fddf252ad1be2c89b69c2b068fc378daa952ba7f163c4a11628f55a4df523b3ef60008481526006602052604081206001600160601b0360a01b9081815416905583825260056020526040822060001981540190558482526040822060018154019055858252600460205284604083209182541617905580a4565b60405162461bcd60e51b8152602060048201526024808201527f4552433732313a207472616e7366657220746f20746865207a65726f206164646044820152637265737360e01b6064820152608490fd5b9293600093909291803b156141ac579484916140ec9660405180948193630a85bd0160e11b9788845233600485015260018060a01b0380921660248501526044840152608060648401528260209b8c97608483019061378f565b0393165af1849181614168575b50614157575050503d60001461414f573d61411381613b07565b906141216040519283613ae6565b81528091833d92013e5b8051918261414c5760405162461bcd60e51b815280613e6260048201613e66565b01fd5b50606061412b565b6001600160e01b0319161492509050565b9091508581813d83116141a5575b6141808183613ae6565b810103126141a157516001600160e01b0319811681036141a15790386140f9565b8480fd5b503d614176565b505050915050600190565b156141be57565b60405162461bcd60e51b815260206004820152602560248201527f4f6e6c792076657269666965642073656c6c6572206f72206f776e657220616c6044820152641b1bddd95960da1b6064820152608490fd5b903590601e198136030182121561047757018035906001600160401b0382116104775760200191813603831361047757565b1561424a57565b60405162461bcd60e51b81526020600482015260146024820152734e616d652063616e6e6f7420626520656d70747960601b6044820152606490fd5b1561428d57565b60405162461bcd60e51b815260206004820152601b60248201527f4465736372697074696f6e2063616e6e6f7420626520656d70747900000000006044820152606490fd5b156142d957565b60405162461bcd60e51b815260206004820152601c60248201527f5072696365206d7573742062652067726561746572207468616e2030000000006044820152606490fd5b1561432557565b60405162461bcd60e51b815260206004820152601c60248201527f53746f636b206d7573742062652067726561746572207468616e2030000000006044820152606490fd5b1561437157565b60405162461bcd60e51b8152602060048201526015602482015274436f6c6f722063616e6e6f7420626520656d70747960581b6044820152606490fd5b903590601e198136030182121561047757018035906001600160401b03821161047757602001918160051b3603831361047757565b156143ea57565b60405162461bcd60e51b8152602060048201526016602482015275496d616765732063616e6e6f7420626520656d70747960501b6044820152606490fd5b1561442f57565b60405162461bcd60e51b815260206004820152601c60248201527f496d616765732063616e6e6f74206265206d6f7265207468616e2035000000006044820152606490fd5b1561447b57565b60405162461bcd60e51b815260206004820152601460248201527353697a652063616e6e6f7420626520656d70747960601b6044820152606490fd5b156144be57565b60405162461bcd60e51b815260206004820152601860248201527f43617465676f72792063616e6e6f7420626520656d70747900000000000000006044820152606490fd5b1561450a57565b60405162461bcd60e51b815260206004820152601c60248201527f5375622d63617465676f72792063616e6e6f7420626520656d707479000000006044820152606490fd5b1561455657565b60405162461bcd60e51b81526020600482015260156024820152744d6f64656c2063616e6e6f7420626520656d70747960581b6044820152606490fd5b1561459a57565b60405162461bcd60e51b81526020600482015260156024820152744272616e642063616e6e6f7420626520656d70747960581b6044820152606490fd5b156145de57565b60405162461bcd60e51b815260206004820152601d60248201527f576569676874206d7573742062652067726561746572207468616e20300000006044820152606490fd5b1561462a57565b60405162461bcd60e51b815260206004820152601a60248201527f534b55206d7573742062652067726561746572207468616e20300000000000006044820152606490fd5b6040519061467c82613a94565b8161024060009182815282602082015260609283604083015283808301528060808301528060a08301528360c08301528360e08301528361010083015283610120830152836101408301528061016083015283610180830152836101a0830152806101c0830152806101e0830152806102008301526102208201520152565b6001600160401b03811161211c5760051b60200190565b81811061471d575050565b60008155600101614712565b9190601f811161473857505050565b613c21926000526020600020906020601f840160051c83019310614764575b601f0160051c0190614712565b9091508190614757565b6147788154613ba9565b9081614782575050565b81601f60009311600114614794575055565b9080839182526147b3601f60208420940160051c840160018501614712565b5555565b90600160401b811161211c578154918181558282106147d557505050565b600052602060002091820191015b8181106147ee575050565b806147fa60019261476e565b016147e3565b8151815560019182820160209060018060a01b0382840151166001600160601b0360a01b8254161790556040820151600284015560038301906060830151948551916001600160401b03831161211c5761485e836116e18654613ba9565b80601f84116001146148b657509180806080959360049795613c219a6000946148ab575b50501b916000199060031b1c19161790555b0151151591019060ff801983541691151516179055565b015192503880614882565b9193949596601f1984168660005283600020936000905b82821061491357505092608095928592613c219a999660049996106148fa575b505050811b019055614894565b015160001960f88460031b161c191690553880806148ed565b8088869782949787015181550196019401906148cd565b1561493157565b60405162461bcd60e51b815260206004820152601c60248201527f4552433732313a20746f6b656e20616c7265616479206d696e746564000000006044820152606490fd5b1561497d57565b60405162461bcd60e51b8152602060048201526016602482015275141c9bd91d58dd08191bd95cc81b9bdd08195e1a5cdd60521b6044820152606490fd5b156149c257565b60405162461bcd60e51b8152602060048201526012602482015271141c9bd91d58dd081a5cc819195b195d195960721b6044820152606490fd5b90604051614a0981613ab0565b608060ff600483958054855260018060a01b03600182015416602086015260028101546040860152614a3d60038201613be3565b60608601520154161515910152565b6000198114614a5b5760010190565b634e487b7160e01b600052601160045260246000fd5b90614a7b826146fb565b614a886040519182613ae6565b8281528092614a99601f19916146fb565b019060005b828110614aaa57505050565b602090614ab561466f565b82828501015201614a9e565b8051821015613ca15760209160051b010190565b60405190614ae282613ab0565b60006080838281528260208201528260408201526060808201520152565b8054821015613ca157600052600560206000209102019060009056fea264697066735822122065c6508793adfbfea68585dfe8c71db691b2018d6941eb3dbc61bbfec67c17d564736f6c63430008130033",
  "linkReferences": {},
  "deployedLinkReferences": {}
}