{
  "_format": "hh-sol-artifact-1",
  "contractName": "HemShopSeller",
  "sourceName": "contracts/HemShopSeller.sol",
  "abi": [
    {
      "inputs": [
        {
          "internalType": "uint256",
          "name": "_pct",
          "type": "uint256"
        }
      ],
      "stateMutability": "nonpayable",
      "type": "constructor"
    },
    {
      "anonymous": false,
      "inputs": [
        {
          "indexed": false,
          "internalType": "address",
          "name": "admin",
          "type": "address"
        },
        {
          "indexed": false,
          "internalType": "address",
          "name": "impersonatedAccount",
          "type": "address"
        }
      ],
      "name": "AdminImpersonationChanged",
      "type": "event"
    },
    {
      "anonymous": false,
      "inputs": [
        {
          "indexed": true,
          "internalType": "address",
          "name": "owner",
          "type": "address"
        },
        {
          "indexed": true,
          "internalType": "address",
          "name": "approved",
          "type": "address"
        },
        {
          "indexed": true,
          "internalType": "uint256",
          "name": "tokenId",
          "type": "uint256"
        }
      ],
      "name": "Approval",
      "type": "event"
    },
    {
      "anonymous": false,
      "inputs": [
        {
          "indexed": true,
          "internalType": "address",
          "name": "owner",
          "type": "address"
        },
        {
          "indexed": true,
          "internalType": "address",
          "name": "operator",
          "type": "address"
        },
        {
          "indexed": false,
          "internalType": "bool",
          "name": "approved",
          "type": "bool"
        }
      ],
      "name": "ApprovalForAll",
      "type": "event"
    },
    {
      "anonymous": false,
      "inputs": [
        {
          "indexed": true,
          "internalType": "address",
          "name": "seller",
          "type": "address"
        },
        {
          "indexed": false,
          "internalType": "uint256",
          "name": "newBalance",
          "type": "uint256"
        }
      ],
      "name": "BalanceUpdated",
      "type": "event"
    },
    {
      "anonymous": false,
      "inputs": [
        {
          "indexed": true,
          "internalType": "address",
          "name": "previousOwner",
          "type": "address"
        },
        {
          "indexed": true,
          "internalType": "address",
          "name": "newOwner",
          "type": "address"
        }
      ],
      "name": "OwnershipTransferred",
      "type": "event"
    },
    {
      "anonymous": false,
      "inputs": [
        {
          "indexed": true,
          "internalType": "address",
          "name": "seller",
          "type": "address"
        },
        {
          "indexed": false,
          "internalType": "uint256",
          "name": "timestamp",
          "type": "uint256"
        }
      ],
      "name": "SellerRegistered",
      "type": "event"
    },
    {
      "anonymous": false,
      "inputs": [
        {
          "indexed": true,
          "internalType": "address",
          "name": "seller",
          "type": "address"
        },
        {
          "indexed": false,
          "internalType": "enum HemShopBase.SellerStatus",
          "name": "status",
          "type": "uint8"
        }
      ],
      "name": "SellerStatusUpdated",
      "type": "event"
    },
    {
      "anonymous": false,
      "inputs": [
        {
          "indexed": true,
          "internalType": "address",
          "name": "from",
          "type": "address"
        },
        {
          "indexed": true,
          "internalType": "address",
          "name": "to",
          "type": "address"
        },
        {
          "indexed": true,
          "internalType": "uint256",
          "name": "tokenId",
          "type": "uint256"
        }
      ],
      "name": "Transfer",
      "type": "event"
    },
    {
      "inputs": [
        {
          "internalType": "address",
          "name": "",
          "type": "address"
        }
      ],
      "name": "adminImpersonating",
      "outputs": [
        {
          "internalType": "address",
          "name": "",
          "type": "address"
        }
      ],
      "stateMutability": "view",
      "type": "function"
    },
    {
      "inputs": [
        {
          "internalType": "address",
          "name": "to",
          "type": "address"
        },
        {
          "internalType": "uint256",
          "name": "tokenId",
          "type": "uint256"
        }
      ],
      "name": "approve",
      "outputs": [],
      "stateMutability": "nonpayable",
      "type": "function"
    },
    {
      "inputs": [
        {
          "internalType": "address",
          "name": "owner",
          "type": "address"
        }
      ],
      "name": "balanceOf",
      "outputs": [
        {
          "internalType": "uint256",
          "name": "",
          "type": "uint256"
        }
      ],
      "stateMutability": "view",
      "type": "function"
    },
    {
      "inputs": [
        {
          "components": [
            {
              "internalType": "string",
              "name": "name",
              "type": "string"
            },
            {
              "internalType": "string",
              "name": "description",
              "type": "string"
            },
            {
              "internalType": "uint256",
              "name": "price",
              "type": "uint256"
            },
            {
              "internalType": "uint256",
              "name": "stock",
              "type": "uint256"
            },
            {
              "internalType": "string",
              "name": "color",
              "type": "string"
            },
            {
              "internalType": "string",
              "name": "size",
              "type": "string"
            },
            {
              "internalType": "string[]",
              "name": "images",
              "type": "string[]"
            },
            {
              "internalType": "string",
              "name": "category",
              "type": "string"
            },
            {
              "internalType": "string",
              "name": "subCategory",
              "type": "string"
            },
            {
              "internalType": "string",
              "name": "model",
              "type": "string"
            },
            {
              "internalType": "string",
              "name": "brand",
              "type": "string"
            },
            {
              "internalType": "uint256",
              "name": "weight",
              "type": "uint256"
            },
            {
              "internalType": "uint256",
              "name": "sku",
              "type": "uint256"
            }
          ],
          "internalType": "struct HemShopProduct.ProductInput",
          "name": "input",
          "type": "tuple"
        }
      ],
      "name": "createProduct",
      "outputs": [],
      "stateMutability": "nonpayable",
      "type": "function"
    },
    {
      "inputs": [
        {
          "internalType": "uint256",
          "name": "productId",
          "type": "uint256"
        },
        {
          "internalType": "uint256",
          "name": "rating",
          "type": "uint256"
        },
        {
          "internalType": "string",
          "name": "comment",
          "type": "string"
        }
      ],
      "name": "createReview",
      "outputs": [],
      "stateMutability": "nonpayable",
      "type": "function"
    },
    {
      "inputs": [
        {
          "internalType": "uint256",
          "name": "productId",
          "type": "uint256"
        }
      ],
      "name": "deleteProduct",
      "outputs": [],
      "stateMutability": "nonpayable",
      "type": "function"
    },
    {
      "inputs": [
        {
          "internalType": "uint256",
          "name": "productId",
          "type": "uint256"
        },
        {
          "internalType": "uint256",
          "name": "reviewId",
          "type": "uint256"
        }
      ],
      "name": "deleteReview",
      "outputs": [],
      "stateMutability": "nonpayable",
      "type": "function"
    },
    {
      "inputs": [],
      "name": "getAllProducts",
      "outputs": [
        {
          "components": [
            {
              "internalType": "uint256",
              "name": "id",
              "type": "uint256"
            },
            {
              "internalType": "address",
              "name": "seller",
              "type": "address"
            },
            {
              "internalType": "string",
              "name": "name",
              "type": "string"
            },
            {
              "internalType": "string",
              "name": "description",
              "type": "string"
            },
            {
              "internalType": "uint256",
              "name": "price",
              "type": "uint256"
            },
            {
              "internalType": "uint256",
              "name": "stock",
              "type": "uint256"
            },
            {
              "internalType": "string",
              "name": "color",
              "type": "string"
            },
            {
              "internalType": "string",
              "name": "size",
              "type": "string"
            },
            {
              "internalType": "string[]",
              "name": "images",
              "type": "string[]"
            },
            {
              "internalType": "string",
              "name": "category",
              "type": "string"
            },
            {
              "internalType": "string",
              "name": "subCategory",
              "type": "string"
            },
            {
              "internalType": "uint256",
              "name": "weight",
              "type": "uint256"
            },
            {
              "internalType": "string",
              "name": "model",
              "type": "string"
            },
            {
              "internalType": "string",
              "name": "brand",
              "type": "string"
            },
            {
              "internalType": "uint256",
              "name": "sku",
              "type": "uint256"
            },
            {
              "internalType": "bool",
              "name": "soldout",
              "type": "bool"
            },
            {
              "internalType": "bool",
              "name": "wishlist",
              "type": "bool"
            },
            {
              "internalType": "bool",
              "name": "deleted",
              "type": "bool"
            },
            {
              "components": [
                {
                  "internalType": "uint256",
                  "name": "reviewId",
                  "type": "uint256"
                },
                {
                  "internalType": "address",
                  "name": "reviewer",
                  "type": "address"
                },
                {
                  "internalType": "uint256",
                  "name": "rating",
                  "type": "uint256"
                },
                {
                  "internalType": "string",
                  "name": "comment",
                  "type": "string"
                },
                {
                  "internalType": "bool",
                  "name": "deleted",
                  "type": "bool"
                }
              ],
              "internalType": "struct HemShopBase.ReviewStruct[]",
              "name": "reviews",
              "type": "tuple[]"
            }
          ],
          "internalType": "struct HemShopProduct.ProductStruct[]",
          "name": "",
          "type": "tuple[]"
        }
      ],
      "stateMutability": "view",
      "type": "function"
    },
    {
      "inputs": [
        {
          "internalType": "uint256",
          "name": "tokenId",
          "type": "uint256"
        }
      ],
      "name": "getApproved",
      "outputs": [
        {
          "internalType": "address",
          "name": "",
          "type": "address"
        }
      ],
      "stateMutability": "view",
      "type": "function"
    },
    {
      "inputs": [],
      "name": "getMyProducts",
      "outputs": [
        {
          "components": [
            {
              "internalType": "uint256",
              "name": "id",
              "type": "uint256"
            },
            {
              "internalType": "address",
              "name": "seller",
              "type": "address"
            },
            {
              "internalType": "string",
              "name": "name",
              "type": "string"
            },
            {
              "internalType": "string",
              "name": "description",
              "type": "string"
            },
            {
              "internalType": "uint256",
              "name": "price",
              "type": "uint256"
            },
            {
              "internalType": "uint256",
              "name": "stock",
              "type": "uint256"
            },
            {
              "internalType": "string",
              "name": "color",
              "type": "string"
            },
            {
              "internalType": "string",
              "name": "size",
              "type": "string"
            },
            {
              "internalType": "string[]",
              "name": "images",
              "type": "string[]"
            },
            {
              "internalType": "string",
              "name": "category",
              "type": "string"
            },
            {
              "internalType": "string",
              "name": "subCategory",
              "type": "string"
            },
            {
              "internalType": "uint256",
              "name": "weight",
              "type": "uint256"
            },
            {
              "internalType": "string",
              "name": "model",
              "type": "string"
            },
            {
              "internalType": "string",
              "name": "brand",
              "type": "string"
            },
            {
              "internalType": "uint256",
              "name": "sku",
              "type": "uint256"
            },
            {
              "internalType": "bool",
              "name": "soldout",
              "type": "bool"
            },
            {
              "internalType": "bool",
              "name": "wishlist",
              "type": "bool"
            },
            {
              "internalType": "bool",
              "name": "deleted",
              "type": "bool"
            },
            {
              "components": [
                {
                  "internalType": "uint256",
                  "name": "reviewId",
                  "type": "uint256"
                },
                {
                  "internalType": "address",
                  "name": "reviewer",
                  "type": "address"
                },
                {
                  "internalType": "uint256",
                  "name": "rating",
                  "type": "uint256"
                },
                {
                  "internalType": "string",
                  "name": "comment",
                  "type": "string"
                },
                {
                  "internalType": "bool",
                  "name": "deleted",
                  "type": "bool"
                }
              ],
              "internalType": "struct HemShopBase.ReviewStruct[]",
              "name": "reviews",
              "type": "tuple[]"
            }
          ],
          "internalType": "struct HemShopProduct.ProductStruct[]",
          "name": "",
          "type": "tuple[]"
        }
      ],
      "stateMutability": "view",
      "type": "function"
    },
    {
      "inputs": [
        {
          "internalType": "uint256",
          "name": "productId",
          "type": "uint256"
        }
      ],
      "name": "getProduct",
      "outputs": [
        {
          "components": [
            {
              "internalType": "uint256",
              "name": "id",
              "type": "uint256"
            },
            {
              "internalType": "address",
              "name": "seller",
              "type": "address"
            },
            {
              "internalType": "string",
              "name": "name",
              "type": "string"
            },
            {
              "internalType": "string",
              "name": "description",
              "type": "string"
            },
            {
              "internalType": "uint256",
              "name": "price",
              "type": "uint256"
            },
            {
              "internalType": "uint256",
              "name": "stock",
              "type": "uint256"
            },
            {
              "internalType": "string",
              "name": "color",
              "type": "string"
            },
            {
              "internalType": "string",
              "name": "size",
              "type": "string"
            },
            {
              "internalType": "string[]",
              "name": "images",
              "type": "string[]"
            },
            {
              "internalType": "string",
              "name": "category",
              "type": "string"
            },
            {
              "internalType": "string",
              "name": "subCategory",
              "type": "string"
            },
            {
              "internalType": "uint256",
              "name": "weight",
              "type": "uint256"
            },
            {
              "internalType": "string",
              "name": "model",
              "type": "string"
            },
            {
              "internalType": "string",
              "name": "brand",
              "type": "string"
            },
            {
              "internalType": "uint256",
              "name": "sku",
              "type": "uint256"
            },
            {
              "internalType": "bool",
              "name": "soldout",
              "type": "bool"
            },
            {
              "internalType": "bool",
              "name": "wishlist",
              "type": "bool"
            },
            {
              "internalType": "bool",
              "name": "deleted",
              "type": "bool"
            },
            {
              "components": [
                {
                  "internalType": "uint256",
                  "name": "reviewId",
                  "type": "uint256"
                },
                {
                  "internalType": "address",
                  "name": "reviewer",
                  "type": "address"
                },
                {
                  "internalType": "uint256",
                  "name": "rating",
                  "type": "uint256"
                },
                {
                  "internalType": "string",
                  "name": "comment",
                  "type": "string"
                },
                {
                  "internalType": "bool",
                  "name": "deleted",
                  "type": "bool"
                }
              ],
              "internalType": "struct HemShopBase.ReviewStruct[]",
              "name": "reviews",
              "type": "tuple[]"
            }
          ],
          "internalType": "struct HemShopProduct.ProductStruct",
          "name": "",
          "type": "tuple"
        }
      ],
      "stateMutability": "view",
      "type": "function"
    },
    {
      "inputs": [
        {
          "internalType": "uint256",
          "name": "productId",
          "type": "uint256"
        }
      ],
      "name": "getReviews",
      "outputs": [
        {
          "components": [
            {
              "internalType": "uint256",
              "name": "reviewId",
              "type": "uint256"
            },
            {
              "internalType": "address",
              "name": "reviewer",
              "type": "address"
            },
            {
              "internalType": "uint256",
              "name": "rating",
              "type": "uint256"
            },
            {
              "internalType": "string",
              "name": "comment",
              "type": "string"
            },
            {
              "internalType": "bool",
              "name": "deleted",
              "type": "bool"
            }
          ],
          "internalType": "struct HemShopBase.ReviewStruct[]",
          "name": "",
          "type": "tuple[]"
        }
      ],
      "stateMutability": "view",
      "type": "function"
    },
    {
      "inputs": [
        {
          "internalType": "address",
          "name": "seller",
          "type": "address"
        }
      ],
      "name": "getSellerBalance",
      "outputs": [
        {
          "internalType": "uint256",
          "name": "",
          "type": "uint256"
        }
      ],
      "stateMutability": "view",
      "type": "function"
    },
    {
      "inputs": [
        {
          "internalType": "address",
          "name": "account",
          "type": "address"
        }
      ],
      "name": "impersonateAccount",
      "outputs": [],
      "stateMutability": "nonpayable",
      "type": "function"
    },
    {
      "inputs": [
        {
          "internalType": "address",
          "name": "owner",
          "type": "address"
        },
        {
          "internalType": "address",
          "name": "operator",
          "type": "address"
        }
      ],
      "name": "isApprovedForAll",
      "outputs": [
        {
          "internalType": "bool",
          "name": "",
          "type": "bool"
        }
      ],
      "stateMutability": "view",
      "type": "function"
    },
    {
      "inputs": [],
      "name": "name",
      "outputs": [
        {
          "internalType": "string",
          "name": "",
          "type": "string"
        }
      ],
      "stateMutability": "view",
      "type": "function"
    },
    {
      "inputs": [],
      "name": "owner",
      "outputs": [
        {
          "internalType": "address",
          "name": "",
          "type": "address"
        }
      ],
      "stateMutability": "view",
      "type": "function"
    },
    {
      "inputs": [
        {
          "internalType": "uint256",
          "name": "tokenId",
          "type": "uint256"
        }
      ],
      "name": "ownerOf",
      "outputs": [
        {
          "internalType": "address",
          "name": "",
          "type": "address"
        }
      ],
      "stateMutability": "view",
      "type": "function"
    },
    {
      "inputs": [
        {
          "internalType": "uint256",
          "name": "",
          "type": "uint256"
        }
      ],
      "name": "productExists",
      "outputs": [
        {
          "internalType": "bool",
          "name": "",
          "type": "bool"
        }
      ],
      "stateMutability": "view",
      "type": "function"
    },
    {
      "inputs": [
        {
          "internalType": "uint256",
          "name": "",
          "type": "uint256"
        }
      ],
      "name": "products",
      "outputs": [
        {
          "internalType": "uint256",
          "name": "id",
          "type": "uint256"
        },
        {
          "internalType": "address",
          "name": "seller",
          "type": "address"
        },
        {
          "internalType": "string",
          "name": "name",
          "type": "string"
        },
        {
          "internalType": "string",
          "name": "description",
          "type": "string"
        },
        {
          "internalType": "uint256",
          "name": "price",
          "type": "uint256"
        },
        {
          "internalType": "uint256",
          "name": "stock",
          "type": "uint256"
        },
        {
          "internalType": "string",
          "name": "color",
          "type": "string"
        },
        {
          "internalType": "string",
          "name": "size",
          "type": "string"
        },
        {
          "internalType": "string",
          "name": "category",
          "type": "string"
        },
        {
          "internalType": "string",
          "name": "subCategory",
          "type": "string"
        },
        {
          "internalType": "uint256",
          "name": "weight",
          "type": "uint256"
        },
        {
          "internalType": "string",
          "name": "model",
          "type": "string"
        },
        {
          "internalType": "string",
          "name": "brand",
          "type": "string"
        },
        {
          "internalType": "uint256",
          "name": "sku",
          "type": "uint256"
        },
        {
          "internalType": "bool",
          "name": "soldout",
          "type": "bool"
        },
        {
          "internalType": "bool",
          "name": "wishlist",
          "type": "bool"
        },
        {
          "internalType": "bool",
          "name": "deleted",
          "type": "bool"
        }
      ],
      "stateMutability": "view",
      "type": "function"
    },
    {
      "inputs": [],
      "name": "registerSeller",
      "outputs": [],
      "stateMutability": "nonpayable",
      "type": "function"
    },
    {
      "inputs": [
        {
          "internalType": "address",
          "name": "",
          "type": "address"
        }
      ],
      "name": "registeredSellers",
      "outputs": [
        {
          "internalType": "bool",
          "name": "",
          "type": "bool"
        }
      ],
      "stateMutability": "view",
      "type": "function"
    },
    {
      "inputs": [],
      "name": "renounceOwnership",
      "outputs": [],
      "stateMutability": "nonpayable",
      "type": "function"
    },
    {
      "inputs": [
        {
          "internalType": "uint256",
          "name": "",
          "type": "uint256"
        }
      ],
      "name": "reviewExists",
      "outputs": [
        {
          "internalType": "bool",
          "name": "",
          "type": "bool"
        }
      ],
      "stateMutability": "view",
      "type": "function"
    },
    {
      "inputs": [
        {
          "internalType": "address",
          "name": "from",
          "type": "address"
        },
        {
          "internalType": "address",
          "name": "to",
          "type": "address"
        },
        {
          "internalType": "uint256",
          "name": "tokenId",
          "type": "uint256"
        }
      ],
      "name": "safeTransferFrom",
      "outputs": [],
      "stateMutability": "nonpayable",
      "type": "function"
    },
    {
      "inputs": [
        {
          "internalType": "address",
          "name": "from",
          "type": "address"
        },
        {
          "internalType": "address",
          "name": "to",
          "type": "address"
        },
        {
          "internalType": "uint256",
          "name": "tokenId",
          "type": "uint256"
        },
        {
          "internalType": "bytes",
          "name": "data",
          "type": "bytes"
        }
      ],
      "name": "safeTransferFrom",
      "outputs": [],
      "stateMutability": "nonpayable",
      "type": "function"
    },
    {
      "inputs": [
        {
          "internalType": "address",
          "name": "",
          "type": "address"
        }
      ],
      "name": "sellerBalances",
      "outputs": [
        {
          "internalType": "uint256",
          "name": "",
          "type": "uint256"
        }
      ],
      "stateMutability": "view",
      "type": "function"
    },
    {
      "inputs": [
        {
          "internalType": "address",
          "name": "",
          "type": "address"
        },
        {
          "internalType": "uint256",
          "name": "",
          "type": "uint256"
        }
      ],
      "name": "sellerProducts",
      "outputs": [
        {
          "internalType": "uint256",
          "name": "",
          "type": "uint256"
        }
      ],
      "stateMutability": "view",
      "type": "function"
    },
    {
      "inputs": [
        {
          "internalType": "address",
          "name": "",
          "type": "address"
        }
      ],
      "name": "sellerStatus",
      "outputs": [
        {
          "internalType": "enum HemShopBase.SellerStatus",
          "name": "",
          "type": "uint8"
        }
      ],
      "stateMutability": "view",
      "type": "function"
    },
    {
      "inputs": [],
      "name": "servicePct",
      "outputs": [
        {
          "internalType": "uint256",
          "name": "",
          "type": "uint256"
        }
      ],
      "stateMutability": "view",
      "type": "function"
    },
    {
      "inputs": [
        {
          "internalType": "address",
          "name": "operator",
          "type": "address"
        },
        {
          "internalType": "bool",
          "name": "approved",
          "type": "bool"
        }
      ],
      "name": "setApprovalForAll",
      "outputs": [],
      "stateMutability": "nonpayable",
      "type": "function"
    },
    {
      "inputs": [],
      "name": "stopImpersonating",
      "outputs": [],
      "stateMutability": "nonpayable",
      "type": "function"
    },
    {
      "inputs": [
        {
          "internalType": "bytes4",
          "name": "interfaceId",
          "type": "bytes4"
        }
      ],
      "name": "supportsInterface",
      "outputs": [
        {
          "internalType": "bool",
          "name": "",
          "type": "bool"
        }
      ],
      "stateMutability": "view",
      "type": "function"
    },
    {
      "inputs": [],
      "name": "symbol",
      "outputs": [
        {
          "internalType": "string",
          "name": "",
          "type": "string"
        }
      ],
      "stateMutability": "view",
      "type": "function"
    },
    {
      "inputs": [
        {
          "internalType": "uint256",
          "name": "tokenId",
          "type": "uint256"
        }
      ],
      "name": "tokenURI",
      "outputs": [
        {
          "internalType": "string",
          "name": "",
          "type": "string"
        }
      ],
      "stateMutability": "view",
      "type": "function"
    },
    {
      "inputs": [
        {
          "internalType": "address",
          "name": "from",
          "type": "address"
        },
        {
          "internalType": "address",
          "name": "to",
          "type": "address"
        },
        {
          "internalType": "uint256",
          "name": "tokenId",
          "type": "uint256"
        }
      ],
      "name": "transferFrom",
      "outputs": [],
      "stateMutability": "nonpayable",
      "type": "function"
    },
    {
      "inputs": [
        {
          "internalType": "address",
          "name": "newOwner",
          "type": "address"
        }
      ],
      "name": "transferOwnership",
      "outputs": [],
      "stateMutability": "nonpayable",
      "type": "function"
    },
    {
      "inputs": [
        {
          "internalType": "uint256",
          "name": "productId",
          "type": "uint256"
        },
        {
          "components": [
            {
              "internalType": "string",
              "name": "name",
              "type": "string"
            },
            {
              "internalType": "string",
              "name": "description",
              "type": "string"
            },
            {
              "internalType": "uint256",
              "name": "price",
              "type": "uint256"
            },
            {
              "internalType": "uint256",
              "name": "stock",
              "type": "uint256"
            },
            {
              "internalType": "string",
              "name": "color",
              "type": "string"
            },
            {
              "internalType": "string",
              "name": "size",
              "type": "string"
            },
            {
              "internalType": "string[]",
              "name": "images",
              "type": "string[]"
            },
            {
              "internalType": "string",
              "name": "category",
              "type": "string"
            },
            {
              "internalType": "string",
              "name": "subCategory",
              "type": "string"
            },
            {
              "internalType": "string",
              "name": "model",
              "type": "string"
            },
            {
              "internalType": "string",
              "name": "brand",
              "type": "string"
            },
            {
              "internalType": "uint256",
              "name": "weight",
              "type": "uint256"
            },
            {
              "internalType": "uint256",
              "name": "sku",
              "type": "uint256"
            }
          ],
          "internalType": "struct HemShopProduct.ProductInput",
          "name": "input",
          "type": "tuple"
        }
      ],
      "name": "updateProduct",
      "outputs": [],
      "stateMutability": "nonpayable",
      "type": "function"
    },
    {
      "inputs": [
        {
          "internalType": "address",
          "name": "seller",
          "type": "address"
        },
        {
          "internalType": "enum HemShopBase.SellerStatus",
          "name": "status",
          "type": "uint8"
        }
      ],
      "name": "updateSellerStatus",
      "outputs": [],
      "stateMutability": "nonpayable",
      "type": "function"
    },
    {
      "inputs": [],
      "name": "withdraw",
      "outputs": [],
      "stateMutability": "nonpayable",
      "type": "function"
    }
  ],
  "bytecode": "0x6080346200037757601f90601f196001600160401b036200549a3881900385810184168501838111868210176200037c57859282916040528339602094859181010312620003775751936200005362000392565b926007845266048656d53686f760cc1b858501526200007162000392565b60038082526204873760ec1b8783015260008054336001600160a01b031982168117835592989394919392906001600160a01b03167f8be0079c531659141344cd1fd0a4f28419497f9722a3daafe3b4186f6b6457e08580a360019687805580519087821162000363576002548981811c9116801562000358575b858210146200034457908188849311620002f0575b5084908883116001146200028e57869262000282575b5050600019828b1b1c191690881b176002555b83519586116200026e5787548781811c9116801562000263575b838210146200024f5785811162000207575b5081948611600114620001a25750509183949184939462000196575b50501b9160001990841b1c19161790555b600b556040516150e79081620003b38239f35b01519250388062000172565b8783528183209493928692918316915b88838310620001ec5750505010620001d3575b505050811b01905562000183565b015160001983861b60f8161c19169055388080620001c5565b858701518855909601959485019487935090810190620001b2565b8884528284208680890160051c820192858a1062000245575b0160051c019088905b8281106200023957505062000156565b85815501889062000229565b9250819262000220565b634e487b7160e01b84526022600452602484fd5b90607f169062000144565b634e487b7160e01b83526041600452602483fd5b01519050388062000117565b90848b9416916002885286882092885b88828210620002d95750508411620002c0575b505050811b016002556200012a565b0151600019838d1b60f8161c19169055388080620002b1565b8385015186558e979095019493840193016200029e565b909150600286528486208880850160051c8201928786106200033a575b918c91869594930160051c01915b8281106200032b57505062000101565b8881558594508c91016200031b565b925081926200030d565b634e487b7160e01b86526022600452602486fd5b90607f1690620000ec565b634e487b7160e01b85526041600452602485fd5b600080fd5b634e487b7160e01b600052604160045260246000fd5b60408051919082016001600160401b038111838210176200037c5760405256fe608080604052600436101561001357600080fd5b60003560e01c908162d64e7614613c5a5750806301ffc9a714613bec57806302ee3a521461395557806306fdde03146138af578063081812fc14613891578063095ea7b3146137175780631385fd92146136ae57806316d81b38146134cb5780632148893f14612f9457806323b872dd146134a257806324d41a031461327d5780633ccfd60b146130f557806342842e0e146130cd57806345de84db1461308b57806352c9224c14612fce578063607eb4e414612f945780636352211e14612f6457806370a0823114612ecd578063715018a614612e745780637acc0b2014612cdc5780638da5cb5b14612cb357806395d89b4114612bd157806397b6f393146129d55780639d4a225514612842578063a22cb46514612767578063a22fb387146126a1578063af55ed6414612670578063b119105214611af5578063b235b4a914610bb4578063b88d4fde14610b53578063b95a062814610b18578063b9db15b4146108e2578063c1302b341461088a578063c64b8a8f1461084b578063c87b56dd146107db578063e01ef6e6146107bd578063e985e9c514610767578063ed90c7b714610582578063f2fde38b146104be5763fdca4ca3146101d657600080fd5b346104b95760003660031901126104b95760088054600060015b82811115610458575061020290614f70565b9060009260015b82811115610223576040518061021f8682613efe565b0390f35b6000818152600e6020818152604090922060018101546001600160a01b031692919033841480610446575b610265575b5050505061026090614f61565b610209565b6040989498519361027585613f8c565b8154855283850152610289600282016140ee565b604085015261029a600382016140ee565b6060850152600481015460808501526005918282015460a08601526102c1600683016140ee565b60c08601526102d2600783016140ee565b60e086015286820180546102e581614c10565b916102f36040519384613fde565b818352600090815286812090878085015b848310610428575050505050610100860152610322600983016140ee565b610120860152610334600a83016140ee565b610140860152600b820154610160860152610351600c83016140ee565b610180860152610363600d83016140ee565b6101a08601528101546101c0850152600f81015460ff80821615156101e087015281881c81161515610200870152601091821c16151561022086015201805491906103ad83614c10565b936103bb6040519586613fde565b8385526000918252808220918186015b85821061040c575050505050509181610260936102406104029401526103f18288614fc0565b526103fc8187614fc0565b50614f61565b9490388080610253565b848360019261041a87614f11565b8152019401910190926103cb565b6001918291610436866140ee565b8152019301910190918890610304565b5060ff600f82015460101c161561024e565b6000818152600e6020526040902060018101546001600160a01b0316331490816104a6575b50610491575b61048c90614f61565b6101f0565b9061049e61048c91614f61565b919050610483565b60ff9150600f015460101c16153861047d565b600080fd5b346104b95760203660031901126104b9576104d7613f60565b6104df6141c2565b6001600160a01b0390811690811561052e57600054826001600160601b0360a01b821617600055167f8be0079c531659141344cd1fd0a4f28419497f9722a3daafe3b4186f6b6457e0600080a3005b60405162461bcd60e51b815260206004820152602660248201527f4f776e61626c653a206e6577206f776e657220697320746865207a65726f206160448201526564647265737360d01b6064820152608490fd5b346104b9576020806003193601126104b957336000908152600d8252604090205460043591906001600160a01b03908116801561072b5780600052600c835260ff604060002054169060048210156107155760026105e99214908115610707575b506146cc565b82600052600f825261060260ff60406000205416614e8b565b82600052600e8252338160016040600020015416149081156106f9575b50156106a55781600052600e815260ff600f6040600020015460101c16610661576000918252600e905260409020600f01805462ff0000191662010000179055005b6064906040519062461bcd60e51b82526004820152601a60248201527f50726f6475637420697320616c72656164792064656c657465640000000000006044820152fd5b6084906040519062461bcd60e51b82526004820152602760248201527f4f6e6c792070726f647563742073656c6c6572206f72206f776e65722063616e6044820152662064656c65746560c81b6064820152fd5b60005416331490508361061f565b9050826000541614856105e3565b634e487b7160e01b600052602160045260246000fd5b50600c825260ff60406000205416600481101561071557600214801561075a575b610755906146cc565b6105e9565b506000548116331461074c565b346104b95760403660031901126104b957610780613f60565b610788613f76565b9060018060a01b03809116600052600760205260406000209116600052602052602060ff604060002054166040519015158152f35b346104b95760003660031901126104b9576020600b54604051908152f35b346104b95760203660031901126104b957610815610810600435600052600460205260018060a01b0360406000205416151590565b61421a565b600060405161082381613fc3565b5261021f60405161083381613fc3565b60008152604051918291602083526020830190613c87565b346104b95760203660031901126104b9576001600160a01b0361086c613f60565b166000526012602052602060ff604060002054166040519015158152f35b346104b95760403660031901126104b9576108a3613f60565b6001600160a01b03166000908152601060205260409020805460243591908210156104b9576020916108d491614194565b90546040519160031b1c8152f35b346104b9576020806003193601126104b9576004356108ff614b84565b5080600052600e825261092060ff600f6040600020015460101c1615614ed0565b80600052600f825261093960ff60406000205416614e8b565b600052600e81526040600020906040519161095383613f8c565b805483526001808201546001600160a01b031683850152610976600283016140ee565b6040850152610987600383016140ee565b6060850152600482015460808501526005918281015460a08601526109ae600682016140ee565b60c08601526109bf600782016140ee565b60e08601526008810180546109d381614c10565b916109e16040519384613fde565b818352600090815286812085888086015b858510610afb5750888b9260108989610100870152610a13600982016140ee565b610120870152610a25600a82016140ee565b610140870152600b810154610160870152610a42600c82016140ee565b610180870152610a54600d82016140ee565b6101a0870152600e8101546101c087015260ff600f82015481811615156101e0890152818160081c161515610200890152831c1615156102208701520191825490610a9e82614c10565b93610aac6040519586613fde565b8285526000908152858120868087015b858410610ade576102408a018890526040518281528061021f8185018d613d5e565b86918591610aeb85614f11565b8152019201920191908790610abc565b908291610b07856140ee565b8152019201920191908887916109f2565b346104b95760203660031901126104b95760206001600160a01b0380610b3c613f60565b16600052600d825260406000205416604051908152f35b346104b95760803660031901126104b957610b6c613f60565b610b74613f76565b606435916001600160401b0383116104b957366023840112156104b957610ba8610bb293369060248160040135910161401a565b9160443591614329565b005b346104b9576003196020368201126104b9576001600160401b03600435116104b9576101a090600435360301126104b957336000908152600d60205260409020546001600160a01b03168015611ab15780600052600c60205260ff60406000205416906004821015610715576002610c349214908115611a9c57506146cc565b610c4e610c45600480350180614726565b90501515614758565b6024610c6f610c668260043501600435600401614726565b9050151561479b565b610c806044600435013515156147e7565b610c91606460043501351515614833565b610cb1610ca8608460043501600435600401614726565b9050151561487f565b610cd1610cc860c4600435016004356004016148c3565b905015156148f8565b610cf26005610cea60c4600435016004356004016148c3565b90501061493d565b610d12610d0960a460043501600435600401614726565b90501515614989565b610d32610d2960e460043501600435600401614726565b905015156149cc565b610d53610d4a61010460043501600435600401614726565b90501515614a18565b610d74610d6b61012460043501600435600401614726565b90501515614a64565b610d95610d8c61014460043501600435600401614726565b90501515614aa8565b610da761016460043501351515614aec565b610db961018460043501351515614b38565b60016008540180600855610dcb614b84565b818152336020820152610dec610de5600480350180614726565b369161401a565b6040820152610e07610de58460043501600435600401614726565b60608201526044600435013560808201526064600435013560a0820152610e3b610de5608460043501600435600401614726565b60c0820152610e57610de560a460043501600435600401614726565b60e0820152610e7060c4600435016004356004016148c3565b90610e7a82614c10565b91610e886040519384613fde565b8083526020830191368260051b8201116104b95780925b8260051b82018410611a715750505050610100820152610ecc610de560e460043501600435600401614726565b610120820152610eea610de561010460043501600435600401614726565b610140820152610f08610de561012460043501600435600401614726565b610180820152610f26610de561014460043501600435600401614726565b6101a082015260043561016481013561016083015261018401356101c08201523315611a2d57600082815260046020526040902054610f71906001600160a01b031615155b15614e3f565b600082815260046020526040902054610f94906001600160a01b03161515610f6b565b3360005260056020526040600020600181540190558160005260046020526040600020336001600160601b0360a01b825416179055813360007fddf252ad1be2c89b69c2b068fc378daa952ba7f163c4a11628f55a4df523b3ef8180a4600e6020526040600020815181556001810160018060a01b036020840151166001600160601b0360a01b82541617905560408201518051906001600160401b0382116115345781906110538261104a60028701546140b4565b60028701614c3e565b602090601f83116001146119bb576000926119b0575b50508160011b916000199060031b1c19161760028201555b60608201518051906001600160401b0382116115345781906110b3826110aa60038701546140b4565b60038701614c3e565b602090601f831160011461193e57600092611933575b50508160011b916000199060031b1c19161760038201555b6080820151600482015560a0820151600582015560c08201518051906001600160401b0382116115345781906111278261111e60068701546140b4565b60068701614c3e565b602090601f83116001146118c1576000926118b6575b50508160011b916000199060031b1c19161760068201555b60e08201518051906001600160401b0382116115345781906111878261117e60078701546140b4565b60078701614c3e565b602090601f831160011461184457600092611839575b50508160011b916000199060031b1c19161760078201555b600881016101008301519060208251926111cf8484614ccc565b019060005260206000206000915b83831061174157505050506101208201518051906001600160401b03821161153457819061121b8261121260098701546140b4565b60098701614c3e565b602090601f83116001146116cf576000926116c4575b50508160011b916000199060031b1c19161760098201555b6101408201518051906001600160401b03821161153457819061127c82611273600a8701546140b4565b600a8701614c3e565b602090601f831160011461165257600092611647575b50508160011b916000199060031b1c191617600a8201555b610160820151600b8201556101808201518051906001600160401b0382116115345781906112e8826112df600c8701546140b4565b600c8701614c3e565b602090601f83116001146115d5576000926115ca575b50508160011b916000199060031b1c191617600c8201555b6101a08201518051906001600160401b038211611534576113478261133e600d8601546140b4565b600d8601614c3e565b602090601f83116001146115545791806102409492601094600092611549575b50508160011b916000199060031b1c191617600d8201555b6101c0840151600e820155600f81016113ab6101e08601511515829060ff801983541691151516179055565b6102008501511515815461ff0062ff00006102208901511515871b169260081b169062ffff001916171790550191015190815190600160401b928383116115345781548383558084106114a4575b506020019060005260206000206000915b838310611486575050505081600052600f6020526040600020600160ff198254161790553360005260106020526040600020805491821015611471579061145691600182018155614194565b819291549060031b91821b91600019901b1916179055600080f35b83634e487b7160e01b60005260416004526000fd5b60056020826114986001945186614d15565b0192019201919061140a565b8060050290600582040361151f578360050260058104850361150a5783600052602060002091820191015b8181106114dc57506113f9565b8060006005925560006001820155600060028201556114fd60038201614c83565b60006004820155016114cf565b87634e487b7160e01b60005260116004526000fd5b86634e487b7160e01b60005260116004526000fd5b85634e487b7160e01b60005260416004526000fd5b015190508880611367565b90600d840160005260206000209160005b601f19851681106115b2575092610240949260019260109583601f19811610611599575b505050811b01600d82015561137f565b015160001960f88460031b161c19169055888080611589565b91926020600181928685015181550194019201611565565b0151905086806112fe565b9250600c84016000526020600020906000935b601f198416851061162c576001945083601f19811610611613575b505050811b01600c820155611316565b015160001960f88460031b161c19169055868080611603565b818101518355602094850194600190930192909101906115e8565b015190508680611292565b9250600a84016000526020600020906000935b601f19841685106116a9576001945083601f19811610611690575b505050811b01600a8201556112aa565b015160001960f88460031b161c19169055868080611680565b81810151835560209485019460019093019290910190611665565b015190508680611231565b9250600984016000526020600020906000935b601f1984168510611726576001945083601f1981161061170d575b505050811b016009820155611249565b015160001960f88460031b161c191690558680806116fd565b818101518355602094850194600190930192909101906116e2565b80518051906001600160401b038211611824576117688261176286546140b4565b86614c3e565b602090601f83116001146117b45792826001949360209386956000926117a9575b5050600019600383901b1c191690841b1785555b019201920191906111dd565b015190508d80611789565b908460005260206000209160005b601f198516811061180c575083602093600196938796938794601f198116106117f3575b505050811b01855561179d565b015160001960f88460031b161c191690558d80806117e6565b919260206001819286850151815501940192016117c2565b89634e487b7160e01b60005260416004526000fd5b01519050868061119d565b9250600784016000526020600020906000935b601f198416851061189b576001945083601f19811610611882575b505050811b0160078201556111b5565b015160001960f88460031b161c19169055868080611872565b81810151835560209485019460019093019290910190611857565b01519050868061113d565b9250600684016000526020600020906000935b601f1984168510611918576001945083601f198116106118ff575b505050811b016006820155611155565b015160001960f88460031b161c191690558680806118ef565b818101518355602094850194600190930192909101906118d4565b0151905086806110c9565b9250600384016000526020600020906000935b601f1984168510611995576001945083601f1981161061197c575b505050811b0160038201556110e1565b015160001960f88460031b161c1916905586808061196c565b81810151835560209485019460019093019290910190611951565b015190508680611069565b9250600284016000526020600020906000935b601f1984168510611a12576001945083601f198116106119f9575b505050811b016002820155611081565b015160001960f88460031b161c191690558680806119e9565b818101518355602094850194600190930192909101906119ce565b60405162461bcd60e51b8152602060048201819052818501527f4552433732313a206d696e7420746f20746865207a65726f20616464726573736044820152606490fd5b6001600160401b038435116104b95760208091611a913687358601614051565b815201930192610e9f565b6000546001600160a01b0316149050826105e3565b50600c60205260ff604060002054166004811015610715576002148015611ae1575b611adc906146cc565b610c34565b506000546001600160a01b03163314611ad3565b346104b9576003196040368201126104b9576001600160401b03602435116104b9576101a090602435360301126104b957336000908152600d60205260409020546001600160a01b0390811680156126335780600052600c60205260ff60406000205416906004821015610715576002611b77921490811561262557506146cc565b600435600052600e602052339060016040600020015416036125cf57600435600052600f602052611baf60ff60406000205416614e8b565b600435600052600e602052611bd260ff600f6040600020015460101c1615614ed0565b611be4610c4560046024350180614726565b611bfa610c666024803501602435600401614726565b611c0b6044602435013515156147e7565b611c22610cc860c4602435016024356004016148c3565b611c3b6005610cea60c4602435016024356004016148c3565b611c4c606460243501351515614833565b611c63610ca8608460243501602435600401614726565b611c7a610d0960a460243501602435600401614726565b611c91610d2960e460243501602435600401614726565b611ca9610d4a61010460243501602435600401614726565b611cc1610d6b61012460243501602435600401614726565b611cd9610d8c61014460243501602435600401614726565b611ceb61016460243501351515614aec565b611cfd61018460243501351515614b38565b611d0c60046024350180614726565b600435600052600e6020526002604060002001906001600160401b03811161219d57611d4281611d3c84546140b4565b84614c3e565b600092601f8211600114612566579281929360009261255b575b50508160011b916000199060031b1c19161790555b611d846024803501602435600401614726565b600435600052600e6020526003604060002001906001600160401b03811161219d57611db481611d3c84546140b4565b600092601f82116001146124f257928192936000926124e7575b50508160011b916000199060031b1c19161790555b600435600052600e6020526040600020604460243501356004820155606460243501356005820155611e1f608460243501602435600401614726565b906001600160401b03821161219d57611e4882611e3f60068601546140b4565b60068601614c3e565b600090601f831160011461247757600692916000918361246c575b50508160011b916000199060031b1c1916179101555b611e8d60a460243501602435600401614726565b600435600052600e6020526007604060002001906001600160401b03811161219d57611ebd81611d3c84546140b4565b600092601f821160011461240357928192936000926123f8575b50508160011b916000199060031b1c19161790555b611f0060c4602435016024356004016148c3565b600435600052600e602052600860406000200191611f1e8284614ccc565b60009283526020832090805b83851061230f57611f4560e460243501602435600401614726565b600435600052600e6020526009604060002001906001600160401b03811161219d57611f7581611d3c84546140b4565b600092601f82116001146122a6579281929360009261229b575b50508160011b916000199060031b1c19161790555b611fb961010460243501602435600401614726565b600435600052600e602052600a604060002001906001600160401b03811161219d57611fe981611d3c84546140b4565b600092601f82116001146122325792819293600092612227575b50508160011b916000199060031b1c19161790555b61202d61012460243501602435600401614726565b600435600052600e602052600c604060002001906001600160401b03811161219d5761205d81611d3c84546140b4565b600092601f82116001146121be57928192936000926121b3575b50508160011b916000199060031b1c19161790555b6120a161014460243501602435600401614726565b600435600052600e602052600d604060002001906001600160401b03811161219d576120d181611d3c84546140b4565b6000601f82116001146121385781929360009261212d575b50508160011b916000199060031b1c19161790555b600435600052600e60205260406000206101646024350135600b820155600e6101846024350135910155600080f35b0135905083806120e9565b601f198216938360005260206000209160005b868110612185575083600195961061216b575b505050811b0190556120fe565b0135600019600384901b60f8161c1916905583808061215e565b9092602060018192868601358155019401910161214b565b634e487b7160e01b600052604160045260246000fd5b013590508380612077565b826000526020600020906000945b601f198416861061220f57600194955083601f198116106121f5575b505050811b01905561208c565b0135600019600384901b60f8161c191690558380806121e8565b916020600181928585013581550193019501946121cc565b013590508380612003565b826000526020600020906000945b601f198416861061228357600194955083601f19811610612269575b505050811b019055612018565b0135600019600384901b60f8161c1916905583808061225c565b91602060018192858501358155019301950194612240565b013590508380611f8f565b826000526020600020906000945b601f19841686106122f757600194955083601f198116106122dd575b505050811b019055611fa4565b0135600019600384901b60f8161c191690558380806122d0565b916020600181928585013581550193019501946122b4565b6123198183614726565b906001600160401b03821161219d5761233c8261233687546140b4565b87614c3e565b600090601f831160011461238857928260019493602093869560009261237d575b5050600019600383901b1c191690841b1786555b01930194019391611f2a565b013590508a8061235d565b8560005260206000209160005b601f19851681106123e0575083602093600196938796938794601f198116106123c6575b505050811b018655612371565b0135600019600384901b60f8161c191690558a80806123b9565b90926020600181928686013581550194019101612395565b013590508380611ed7565b826000526020600020906000945b601f198416861061245457600194955083601f1981161061243a575b505050811b019055611eec565b0135600019600384901b60f8161c1916905583808061242d565b91602060018192858501358155019301950194612411565b013590508480611e63565b6006840160005260206000209160005b601f19851681106124cf5750918391600193600695601f198116106124b5575b505050811b01910155611e79565b0135600019600384901b60f8161c191690558480806124a7565b90926020600181928686013581550194019101612487565b013590508380611dce565b826000526020600020906000945b601f198416861061254357600194955083601f19811610612529575b505050811b019055611de3565b0135600019600384901b60f8161c1916905583808061251c565b91602060018192858501358155019301950194612500565b013590508380611d5c565b826000526020600020906000945b601f19841686106125b757600194955083601f1981161061259d575b505050811b019055611d71565b0135600019600384901b60f8161c19169055838080612590565b91602060018192858501358155019301950194612574565b60405162461bcd60e51b815260206004820152602860248201527f4f6e6c79207468652073656c6c65722063616e20757064617465207468656972604482015267081c1c9bd91d58dd60c21b6064820152608490fd5b9050826000541614836105e3565b50600c60205260ff604060002054166004811015610715576002148015612663575b61265e906146cc565b611b77565b5060005481163314612655565b346104b95760203660031901126104b957600435600052600f602052602060ff604060002054166040519015158152f35b346104b95760203660031901126104b9576126ba613f60565b6126c26141c2565b6001600160a01b031680156127225760407f32b449308c94e824ccedd9877932cd82f89a481c06c4643a0cb2914454a8c5829133600052600d60205281600020816001600160601b0360a01b8254161790558151903382526020820152a1005b60405162461bcd60e51b815260206004820152601760248201527f496e76616c6964206163636f756e7420616464726573730000000000000000006044820152606490fd5b346104b95760403660031901126104b957612780613f60565b60243590811515908183036104b9576001600160a01b0316913383146127fd576127cf9033600052600760205260406000208460005260205260406000209060ff801983541691151516179055565b6040519081527f17307eab39ab6107e8899845ad3d59bd9653f200f220920489ca2b5937696c3160203392a3005b60405162461bcd60e51b815260206004820152601960248201527f4552433732313a20617070726f766520746f2063616c6c6572000000000000006044820152606490fd5b346104b9576020806003193601126104b95760043580600052600e9081835260ff600f604060002001549161287d82601094851c1615614ed0565b80600052600f85526128958260406000205416614e8b565b60009260005b826000528587528160406000200180548210156128ec5760046128bf838793614fff565b50015416156128d7575b6128d290614f61565b61289b565b936128e46128d291614f61565b9490506128c9565b505084866128f986614c10565b956129076040519788613fde565b808752612916601f1991614c10565b018160005b8281106129bf5750505060009360005b816000528383528460406000200180548210156129ac57600461294f838a93614fff565b5001541615612967575b61296290614f61565b61292b565b946129a4612962918360005285855261298f6129898989604060002001614fff565b50614f11565b612999828c614fc0565b526103fc818b614fc0565b959050612959565b6040518481528061021f8187018c613cc7565b6129c7614fd4565b82828b01015201829061291b565b346104b95760403660031901126104b9576129ee613f60565b60249081359060048210156104b957612a056141c2565b6001600160a01b0316918215612b9457826000526020906012825260ff6040600020541615612b595783600052600c825260ff604060002054166004811015612b0c578314612b215760028314612aa8575b507fd8f7bcb2c5cffc294a0aaef719685993d7be95273fb8254803a1563510ccefed91600c612aa3928560005252604060002060ff1981541660ff8316179055604051918291826140a1565b0390a2005b83600052600c825260ff604060002054166004811015612b0c57600114612a575790601f6064926040519262461bcd60e51b845260048401528201527f43616e206f6e6c79207665726966792070656e64696e672073656c6c657273006044820152fd5b50634e487b7160e01b60009081526021600452fd5b9060126064926040519262461bcd60e51b845260048401528201527114dd185d1d5cc8185b1c9958591e481cd95d60721b6044820152fd5b9060156064926040519262461bcd60e51b845260048401528201527414d95b1b195c881b9bdd081c9959da5cdd195c9959605a1b6044820152fd5b60649060166040519162461bcd60e51b83526020600484015282015275496e76616c69642073656c6c6572206164647265737360501b6044820152fd5b346104b95760003660031901126104b9576040516000600354612bf3816140b4565b80845290600190818116908115612c8c5750600114612c31575b61021f84612c1d81860382613fde565b604051918291602083526020830190613c87565b6003600090815292507fc2575a0e9e593c00f959f8c92f12db2869c3395a3b0502d05e2516446f71f85b5b828410612c74575050508101602001612c1d82612c0d565b80546020858701810191909152909301928101612c5c565b60ff191660208087019190915292151560051b85019092019250612c1d9150839050612c0d565b346104b95760003660031901126104b9576000546040516001600160a01b039091168152602090f35b346104b95760203660031901126104b9576004356000908152600e60205260409020805460018201546001600160a01b031691612d1b600282016140ee565b612d27600383016140ee565b6004830154600584015490612d3e600686016140ee565b612d4a600787016140ee565b612d56600988016140ee565b90612d63600a89016140ee565b92600b89015494600c8a01612d77906140ee565b96612d84600d8c016140ee565b98600e8c01549b600f01549a6040519e8f9e8f908152602001528d6102209081604082015201612db391613c87565b8d810360608f0152612dc491613c87565b9160808d015260a08c01528a810360c08c0152612de091613c87565b89810360e08b0152612df191613c87565b8881036101008a0152612e0391613c87565b878103610120890152612e1591613c87565b90610140870152858103610160870152612e2e91613c87565b848103610180860152612e4091613c87565b916101a084015260ff811615156101c08401528060081c60ff1615156101e084015260101c60ff1615156102008301520390f35b346104b95760003660031901126104b957612e8d6141c2565b600080546001600160a01b0319811682556001600160a01b03167f8be0079c531659141344cd1fd0a4f28419497f9722a3daafe3b4186f6b6457e08280a3005b346104b95760203660031901126104b9576001600160a01b03612eee613f60565b168015612f0d5760005260056020526020604060002054604051908152f35b60405162461bcd60e51b815260206004820152602960248201527f4552433732313a2061646472657373207a65726f206973206e6f7420612076616044820152683634b21037bbb732b960b91b6064820152608490fd5b346104b95760203660031901126104b9576020612f82600435614266565b6040516001600160a01b039091168152f35b346104b95760203660031901126104b9576001600160a01b03612fb5613f60565b1660005260136020526020604060002054604051908152f35b346104b95760003660031901126104b95733600052601260205260ff6040600020541661305157336000526012602052604060002060ff1990600182825416179055600c60205260016040600020918254161790556040514281527fa1a1a78ff3033d5ee8393372052aeb2a16bbb347a29f3780370e9506c109e37260203392a2005b60405162461bcd60e51b8152602060048201526012602482015271105b1c9958591e481c9959da5cdd195c995960721b6044820152606490fd5b346104b95760203660031901126104b9576001600160a01b036130ac613f60565b16600052600c60205261021f60ff60406000205416604051918291826140a1565b346104b957610bb26130de3661406c565b90604051926130ec84613fc3565b60008452614329565b346104b95760003660031901126104b957336000908152600d60209081526040909120546001600160a01b0390811680156132415780600052600c835260ff60406000205416906004821015610715576002613159921490811561323357506146cc565b336000526013825260406000205480156131f557600b5480820290828204036131df5760649004918282039182116131df576131b1926131ab913360005260138652600060408120556000541661501b565b3361501b565b7f8ad64a0ac7700dd8425ab0499f107cb6e2cd1581d803c5b8c1c79dcb8190b1af60405191600083523392a2005b634e487b7160e01b600052601160045260246000fd5b60405162461bcd60e51b81526004810184905260166024820152754e6f2062616c616e636520746f20776974686472617760501b6044820152606490fd5b9050826000541614846105e3565b50600c825260ff604060002054166004811015610715576002148015613270575b61326b906146cc565b613159565b5060005481163314613262565b346104b95760403660031901126104b957602480356004356000805b82600052600e602090808252601091826040600020018054851015613495576132c3858992614fff565b5054146132db575050506132d690614f61565b613299565b9193509193946000526011815260ff94856040600020541615613459578060005282825261330f8585604060002001614fff565b50600190810154909690336001600160a01b039182161490811561344b575b50156133f65781600052838352600461334d8787604060002001614fff565b500154166133b9579161336e93916004959360005252604060002001614fff565b5001805460ff1916821790555b1561338257005b60649060106040519162461bcd60e51b8352602060048401528201526f14995d9a595dc81b9bdd08199bdd5b9960821b6044820152fd5b60405162461bcd60e51b8152600481018390526016818901527514995d9a595dc8185b1c9958591e4819195b195d195960521b6044820152606490fd5b60405162461bcd60e51b8152600481018490526028818a01527f4f6e6c79207265766965776572206f72206f776e65722063616e2064656c6574604482015267652072657669657760c01b6064820152608490fd5b60005416331490508961332e565b60405162461bcd60e51b8152600481018390526015818901527414995d9a595dc8191bd95cc81b9bdd08195e1a5cdd605a1b6044820152606490fd5b505050505091505061337b565b346104b957610bb26134b33661406c565b916134c66134c184336143c4565b6142c7565b61448c565b346104b95760603660031901126104b957602480356004356044356001600160401b0381116104b957613502903690600401614051565b9080600052602091600e835260018060a01b0360016040600020015416331461365b5783151580613650575b1561360c578051156135c85790600e92916001600a54019081600a55613552614fd4565b95828752338588015260408701526060860152600052601182526040600020600160ff198254161790556000525260106040600020018054600160401b811015611471576135a591600182018155614fff565b6135b357610bb29250614d15565b82634e487b7160e01b60005260006004526000fd5b60405162461bcd60e51b8152600481018490526017818701527f436f6d6d656e742063616e6e6f7420626520656d7074790000000000000000006044820152606490fd5b60405162461bcd60e51b815260048101849052601e818701527f526174696e67206d757374206265206265747765656e203120616e64203500006044820152606490fd5b50600584111561352e565b60405162461bcd60e51b8152600481018490526026818701527f53656c6c65722063616e6e6f7420726576696577207468656972206f776e20706044820152651c9bd91d58dd60d21b6064820152608490fd5b346104b95760003660031901126104b9576136c76141c2565b33600052600d60205260406000206001600160601b0360a01b81541690557f32b449308c94e824ccedd9877932cd82f89a481c06c4643a0cb2914454a8c5826040805133815260006020820152a1005b346104b95760403660031901126104b957613730613f60565b602435906001600160a01b03808061374785614266565b169216918083146138425780331490811561381d575b50156137b257600083815260066020526040902080546001600160a01b0319168317905561378a83614266565b167f8c5be1e5ebec7d5bd14f71427d1e84f3dd0314c0f7b2291e5b200ac8c7c3b925600080a4005b60405162461bcd60e51b815260206004820152603d60248201527f4552433732313a20617070726f76652063616c6c6572206973206e6f7420746f60448201527f6b656e206f776e6572206f7220617070726f76656420666f7220616c6c0000006064820152608490fd5b9050600052600760205260406000203360005260205260ff604060002054168461375d565b60405162461bcd60e51b815260206004820152602160248201527f4552433732313a20617070726f76616c20746f2063757272656e74206f776e656044820152603960f91b6064820152608490fd5b346104b95760203660031901126104b9576020612f82600435614289565b346104b95760003660031901126104b95760405160006002546138d1816140b4565b80845290600190818116908115612c8c57506001146138fa5761021f84612c1d81860382613fde565b6002600090815292507f405787fa12a823e0f2b7631cc41b3ba8828b3321ca811111fa75cd3aa3bb5ace5b82841061393d575050508101602001612c1d82612c0d565b80546020858701810191909152909301928101613925565b346104b95760003660031901126104b957600854600060015b82811115613bab575061398090614f70565b90600160005b8282111561399c576040518061021f8682613efe565b81600052600e6020526040600020600f8101549060ff8260101c16156139cf575b5050906139c990614f61565b90613986565b604051916139dc83613f8c565b8154835260018201546001600160a01b031660208401526139ff600283016140ee565b6040840152613a10600383016140ee565b606084015260048201546080840152600582015460a0840152613a35600683016140ee565b60c0840152613a46600783016140ee565b60e0840152600882018054613a5a81614c10565b91613a686040519384613fde565b81835260208301906000526020600020906000905b838210613b8e57505050506010929160ff91610100860152613aa1600984016140ee565b610120860152613ab3600a84016140ee565b610140860152600b830154610160860152613ad0600c84016140ee565b610180860152613ae2600d84016140ee565b6101a0860152600e8301546101c086015281811615156101e0860152818160081c161515610200860152831c16151561022084015201805490613b2482614c10565b91613b326040519384613fde565b808352602083019160005260206000206000925b828410613b7057505050506102408201526139c991613b69916103f18288614fc0565b90856139bd565b60056020600192613b8085614f11565b815201920193019290613b46565b600160208192613b9d866140ee565b815201930191019091613a7d565b80600052600e60205260ff600f6040600020015460101c1615613bd7575b613bd290614f61565b61396e565b90613be4613bd291614f61565b919050613bc9565b346104b95760203660031901126104b95760043563ffffffff60e01b81168091036104b9576020906380ac58cd60e01b8114908115613c49575b8115613c38575b506040519015158152f35b6301ffc9a760e01b14905082613c2d565b635b5e139f60e01b81149150613c26565b346104b95760203660031901126104b9576020906004356000526011825260ff6040600020541615158152f35b919082519283825260005b848110613cb3575050826000602080949584010152601f8019910116010190565b602081830181015184830182015201613c92565b908082519081815260208091019281808460051b8301019501936000915b848310613cf55750505050505090565b9091929394958480600192601f1985820301865289519081518152848060a01b0383830151168382015260408083015190820152613d426060808401519060a08091850152830190613c87565b9160808091015115159101529801930193019194939290613ce5565b91908251815260209260018060a01b03848201511684830152613de3613dd1613dab613d996040850151610260806040890152870190613c87565b60608501518682036060880152613c87565b6080840151608086015260a084015160a086015260c084015185820360c0870152613c87565b60e083015184820360e0860152613c87565b6101009485830151958483039085015285518083528183019180808360051b8601019801926000905b838210613ece57505050505050613e85613e71613e52613e3e613ecb9697610120808701519088830390890152613c87565b610140808601519087830390880152613c87565b6101608085015190860152610180808501519086830390870152613c87565b6101a0808401519085830390860152613c87565b916101c080830151908201526101e08083015115159082015261020080830151151590820152610220808301511515908201526102408092015191818403910152613cc7565b90565b9091929394988380613eed6001938d601f199082030186528951613c87565b9b9701959493919091019101613e0c565b602080820190808352835180925260408301928160408460051b8301019501936000915b848310613f325750505050505090565b9091929394958480613f50600193603f198682030187528a51613d5e565b9801930193019194939290613f22565b600435906001600160a01b03821682036104b957565b602435906001600160a01b03821682036104b957565b61026081019081106001600160401b0382111761219d57604052565b60a081019081106001600160401b0382111761219d57604052565b602081019081106001600160401b0382111761219d57604052565b90601f801991011681019081106001600160401b0382111761219d57604052565b6001600160401b03811161219d57601f01601f191660200190565b92919261402682613fff565b916140346040519384613fde565b8294818452818301116104b9578281602093846000960137010152565b9080601f830112156104b957816020613ecb9335910161401a565b60609060031901126104b9576001600160a01b039060043582811681036104b9579160243590811681036104b9579060443590565b9190602083019260048210156107155752565b90600182811c921680156140e4575b60208310146140ce57565b634e487b7160e01b600052602260045260246000fd5b91607f16916140c3565b9060405191826000825492614102846140b4565b908184526001948581169081600014614171575060011461412e575b505061412c92500383613fde565b565b9093915060005260209081600020936000915b81831061415957505061412c9350820101388061411e565b85548884018501529485019487945091830191614141565b91505061412c94506020925060ff191682840152151560051b820101388061411e565b80548210156141ac5760005260206000200190600090565b634e487b7160e01b600052603260045260246000fd5b6000546001600160a01b031633036141d657565b606460405162461bcd60e51b815260206004820152602060248201527f4f776e61626c653a2063616c6c6572206973206e6f7420746865206f776e65726044820152fd5b1561422157565b60405162461bcd60e51b815260206004820152601860248201527f4552433732313a20696e76616c696420746f6b656e20494400000000000000006044820152606490fd5b6000908152600460205260409020546001600160a01b0316613ecb81151561421a565b6000818152600460205260409020546142ac906001600160a01b0316151561421a565b6000908152600660205260409020546001600160a01b031690565b156142ce57565b60405162461bcd60e51b815260206004820152602d60248201527f4552433732313a2063616c6c6572206973206e6f7420746f6b656e206f776e6560448201526c1c881bdc88185c1c1c9bdd9959609a1b6064820152608490fd5b9061434d93929161433d6134c184336143c4565b61434883838361448c565b6145cd565b1561435457565b60405162461bcd60e51b81528061436d60048201614371565b0390fd5b60809060208152603260208201527f4552433732313a207472616e7366657220746f206e6f6e20455243373231526560408201527131b2b4bb32b91034b6b83632b6b2b73a32b960711b60608201520190565b906001600160a01b0380806143d884614266565b1693169183831493841561440b575b5083156143f5575b50505090565b61440191929350614289565b16143880806143ef565b909350600052600760205260406000208260005260205260ff6040600020541692386143e7565b1561443957565b60405162461bcd60e51b815260206004820152602560248201527f4552433732313a207472616e736665722066726f6d20696e636f72726563742060448201526437bbb732b960d91b6064820152608490fd5b906144b49161449a84614266565b6001600160a01b0393918416928492909183168414614432565b1691821561454c57816144d1916144ca86614266565b1614614432565b7fddf252ad1be2c89b69c2b068fc378daa952ba7f163c4a11628f55a4df523b3ef60008481526006602052604081206001600160601b0360a01b9081815416905583825260056020526040822060001981540190558482526040822060018154019055858252600460205284604083209182541617905580a4565b60405162461bcd60e51b8152602060048201526024808201527f4552433732313a207472616e7366657220746f20746865207a65726f206164646044820152637265737360e01b6064820152608490fd5b3d156145c8573d906145ae82613fff565b916145bc6040519384613fde565b82523d6000602084013e565b606090565b91926000929190813b156146c2576020916146239185604051958680958194630a85bd0160e11b9b8c845233600485015260018060a01b0380951660248501526044840152608060648401526084830190613c87565b0393165af190829082614673575b50506146655761463f61459d565b805190816146605760405162461bcd60e51b81528061436d60048201614371565b602001fd5b6001600160e01b0319161490565b909192506020813d82116146ba575b8161468f60209383613fde565b810103126146b65751906001600160e01b0319821682036146b35750903880614631565b80fd5b5080fd5b3d9150614682565b5050505050600190565b156146d357565b60405162461bcd60e51b815260206004820152602560248201527f4f6e6c792076657269666965642073656c6c6572206f72206f776e657220616c6044820152641b1bddd95960da1b6064820152608490fd5b903590601e19813603018212156104b957018035906001600160401b0382116104b9576020019181360383136104b957565b1561475f57565b60405162461bcd60e51b81526020600482015260146024820152734e616d652063616e6e6f7420626520656d70747960601b6044820152606490fd5b156147a257565b60405162461bcd60e51b815260206004820152601b60248201527f4465736372697074696f6e2063616e6e6f7420626520656d70747900000000006044820152606490fd5b156147ee57565b60405162461bcd60e51b815260206004820152601c60248201527f5072696365206d7573742062652067726561746572207468616e2030000000006044820152606490fd5b1561483a57565b60405162461bcd60e51b815260206004820152601c60248201527f53746f636b206d7573742062652067726561746572207468616e2030000000006044820152606490fd5b1561488657565b60405162461bcd60e51b8152602060048201526015602482015274436f6c6f722063616e6e6f7420626520656d70747960581b6044820152606490fd5b903590601e19813603018212156104b957018035906001600160401b0382116104b957602001918160051b360383136104b957565b156148ff57565b60405162461bcd60e51b8152602060048201526016602482015275496d616765732063616e6e6f7420626520656d70747960501b6044820152606490fd5b1561494457565b60405162461bcd60e51b815260206004820152601c60248201527f496d616765732063616e6e6f74206265206d6f7265207468616e2035000000006044820152606490fd5b1561499057565b60405162461bcd60e51b815260206004820152601460248201527353697a652063616e6e6f7420626520656d70747960601b6044820152606490fd5b156149d357565b60405162461bcd60e51b815260206004820152601860248201527f43617465676f72792063616e6e6f7420626520656d70747900000000000000006044820152606490fd5b15614a1f57565b60405162461bcd60e51b815260206004820152601c60248201527f5375622d63617465676f72792063616e6e6f7420626520656d707479000000006044820152606490fd5b15614a6b57565b60405162461bcd60e51b81526020600482015260156024820152744d6f64656c2063616e6e6f7420626520656d70747960581b6044820152606490fd5b15614aaf57565b60405162461bcd60e51b81526020600482015260156024820152744272616e642063616e6e6f7420626520656d70747960581b6044820152606490fd5b15614af357565b60405162461bcd60e51b815260206004820152601d60248201527f576569676874206d7573742062652067726561746572207468616e20300000006044820152606490fd5b15614b3f57565b60405162461bcd60e51b815260206004820152601a60248201527f534b55206d7573742062652067726561746572207468616e20300000000000006044820152606490fd5b60405190614b9182613f8c565b8161024060009182815282602082015260609283604083015283808301528060808301528060a08301528360c08301528360e08301528361010083015283610120830152836101408301528061016083015283610180830152836101a0830152806101c0830152806101e0830152806102008301526102208201520152565b6001600160401b03811161219d5760051b60200190565b818110614c32575050565b60008155600101614c27565b9190601f8111614c4d57505050565b61412c926000526020600020906020601f840160051c83019310614c79575b601f0160051c0190614c27565b9091508190614c6c565b614c8d81546140b4565b9081614c97575050565b81601f60009311600114614ca9575055565b908083918252614cc8601f60208420940160051c840160018501614c27565b5555565b90600160401b811161219d57815491818155828210614cea57505050565b600052602060002091820191015b818110614d03575050565b80614d0f600192614c83565b01614cf8565b8151815560019182820160209060018060a01b0382840151166001600160601b0360a01b8254161790556040820151600284015560038301906060830151948551916001600160401b03831161219d57614d738361176286546140b4565b80601f8411600114614dcb5750918080608095936004979561412c9a600094614dc0575b50501b916000199060031b1c19161790555b0151151591019060ff801983541691151516179055565b015192503880614d97565b9193949596601f1984168660005283600020936000905b828210614e285750509260809592859261412c9a99966004999610614e0f575b505050811b019055614da9565b015160001960f88460031b161c19169055388080614e02565b808886978294978701518155019601940190614de2565b15614e4657565b60405162461bcd60e51b815260206004820152601c60248201527f4552433732313a20746f6b656e20616c7265616479206d696e746564000000006044820152606490fd5b15614e9257565b60405162461bcd60e51b8152602060048201526016602482015275141c9bd91d58dd08191bd95cc81b9bdd08195e1a5cdd60521b6044820152606490fd5b15614ed757565b60405162461bcd60e51b8152602060048201526012602482015271141c9bd91d58dd081a5cc819195b195d195960721b6044820152606490fd5b90604051614f1e81613fa8565b608060ff600483958054855260018060a01b03600182015416602086015260028101546040860152614f52600382016140ee565b60608601520154161515910152565b60001981146131df5760010190565b90614f7a82614c10565b614f876040519182613fde565b8281528092614f98601f1991614c10565b019060005b828110614fa957505050565b602090614fb4614b84565b82828501015201614f9d565b80518210156141ac5760209160051b010190565b60405190614fe182613fa8565b60006080838281528260208201528260408201526060808201520152565b80548210156141ac576000526005602060002091020190600090565b6001600160a01b0316801561507a57600080809381935af161503b61459d565b501561504357565b60405162461bcd60e51b815260206004820152600f60248201526e151c985b9cd9995c8819985a5b1959608a1b6044820152606490fd5b60405162461bcd60e51b815260206004820152600f60248201526e496e76616c6964206164647265737360881b6044820152606490fdfea264697066735822122004a708e7b863fdfa916d79e9964d8f8fe2959514c5827c3f59b4d541309963a464736f6c63430008130033",
  "linkReferences": {},
  "deployedLinkReferences": {}
}