{
  "_format": "hh-sol-artifact-1",
  "contractName": "HemShopBase",
  "sourceName": "contracts/HemShopBase.sol",
  "abi": [
    {
      "inputs": [
        {
          "internalType": "uint256",
          "name": "_pct",
          "type": "uint256"
        }
      ],
      "stateMutability": "nonpayable",
      "type": "constructor"
    },
    {
      "anonymous": false,
      "inputs": [
        {
          "indexed": false,
          "internalType": "address",
          "name": "admin",
          "type": "address"
        },
        {
          "indexed": false,
          "internalType": "address",
          "name": "impersonatedAccount",
          "type": "address"
        }
      ],
      "name": "AdminImpersonationChanged",
      "type": "event"
    },
    {
      "anonymous": false,
      "inputs": [
        {
          "indexed": true,
          "internalType": "address",
          "name": "owner",
          "type": "address"
        },
        {
          "indexed": true,
          "internalType": "address",
          "name": "approved",
          "type": "address"
        },
        {
          "indexed": true,
          "internalType": "uint256",
          "name": "tokenId",
          "type": "uint256"
        }
      ],
      "name": "Approval",
      "type": "event"
    },
    {
      "anonymous": false,
      "inputs": [
        {
          "indexed": true,
          "internalType": "address",
          "name": "owner",
          "type": "address"
        },
        {
          "indexed": true,
          "internalType": "address",
          "name": "operator",
          "type": "address"
        },
        {
          "indexed": false,
          "internalType": "bool",
          "name": "approved",
          "type": "bool"
        }
      ],
      "name": "ApprovalForAll",
      "type": "event"
    },
    {
      "anonymous": false,
      "inputs": [
        {
          "indexed": true,
          "internalType": "address",
          "name": "previousOwner",
          "type": "address"
        },
        {
          "indexed": true,
          "internalType": "address",
          "name": "newOwner",
          "type": "address"
        }
      ],
      "name": "OwnershipTransferred",
      "type": "event"
    },
    {
      "anonymous": false,
      "inputs": [
        {
          "indexed": true,
          "internalType": "address",
          "name": "from",
          "type": "address"
        },
        {
          "indexed": true,
          "internalType": "address",
          "name": "to",
          "type": "address"
        },
        {
          "indexed": true,
          "internalType": "uint256",
          "name": "tokenId",
          "type": "uint256"
        }
      ],
      "name": "Transfer",
      "type": "event"
    },
    {
      "inputs": [
        {
          "internalType": "address",
          "name": "",
          "type": "address"
        }
      ],
      "name": "adminImpersonating",
      "outputs": [
        {
          "internalType": "address",
          "name": "",
          "type": "address"
        }
      ],
      "stateMutability": "view",
      "type": "function"
    },
    {
      "inputs": [
        {
          "internalType": "address",
          "name": "to",
          "type": "address"
        },
        {
          "internalType": "uint256",
          "name": "tokenId",
          "type": "uint256"
        }
      ],
      "name": "approve",
      "outputs": [],
      "stateMutability": "nonpayable",
      "type": "function"
    },
    {
      "inputs": [
        {
          "internalType": "address",
          "name": "owner",
          "type": "address"
        }
      ],
      "name": "balanceOf",
      "outputs": [
        {
          "internalType": "uint256",
          "name": "",
          "type": "uint256"
        }
      ],
      "stateMutability": "view",
      "type": "function"
    },
    {
      "inputs": [
        {
          "internalType": "uint256",
          "name": "tokenId",
          "type": "uint256"
        }
      ],
      "name": "getApproved",
      "outputs": [
        {
          "internalType": "address",
          "name": "",
          "type": "address"
        }
      ],
      "stateMutability": "view",
      "type": "function"
    },
    {
      "inputs": [
        {
          "internalType": "address",
          "name": "account",
          "type": "address"
        }
      ],
      "name": "impersonateAccount",
      "outputs": [],
      "stateMutability": "nonpayable",
      "type": "function"
    },
    {
      "inputs": [
        {
          "internalType": "address",
          "name": "owner",
          "type": "address"
        },
        {
          "internalType": "address",
          "name": "operator",
          "type": "address"
        }
      ],
      "name": "isApprovedForAll",
      "outputs": [
        {
          "internalType": "bool",
          "name": "",
          "type": "bool"
        }
      ],
      "stateMutability": "view",
      "type": "function"
    },
    {
      "inputs": [],
      "name": "name",
      "outputs": [
        {
          "internalType": "string",
          "name": "",
          "type": "string"
        }
      ],
      "stateMutability": "view",
      "type": "function"
    },
    {
      "inputs": [],
      "name": "owner",
      "outputs": [
        {
          "internalType": "address",
          "name": "",
          "type": "address"
        }
      ],
      "stateMutability": "view",
      "type": "function"
    },
    {
      "inputs": [
        {
          "internalType": "uint256",
          "name": "tokenId",
          "type": "uint256"
        }
      ],
      "name": "ownerOf",
      "outputs": [
        {
          "internalType": "address",
          "name": "",
          "type": "address"
        }
      ],
      "stateMutability": "view",
      "type": "function"
    },
    {
      "inputs": [],
      "name": "renounceOwnership",
      "outputs": [],
      "stateMutability": "nonpayable",
      "type": "function"
    },
    {
      "inputs": [
        {
          "internalType": "address",
          "name": "from",
          "type": "address"
        },
        {
          "internalType": "address",
          "name": "to",
          "type": "address"
        },
        {
          "internalType": "uint256",
          "name": "tokenId",
          "type": "uint256"
        }
      ],
      "name": "safeTransferFrom",
      "outputs": [],
      "stateMutability": "nonpayable",
      "type": "function"
    },
    {
      "inputs": [
        {
          "internalType": "address",
          "name": "from",
          "type": "address"
        },
        {
          "internalType": "address",
          "name": "to",
          "type": "address"
        },
        {
          "internalType": "uint256",
          "name": "tokenId",
          "type": "uint256"
        },
        {
          "internalType": "bytes",
          "name": "data",
          "type": "bytes"
        }
      ],
      "name": "safeTransferFrom",
      "outputs": [],
      "stateMutability": "nonpayable",
      "type": "function"
    },
    {
      "inputs": [
        {
          "internalType": "address",
          "name": "",
          "type": "address"
        }
      ],
      "name": "sellerStatus",
      "outputs": [
        {
          "internalType": "enum HemShopBase.SellerStatus",
          "name": "",
          "type": "uint8"
        }
      ],
      "stateMutability": "view",
      "type": "function"
    },
    {
      "inputs": [],
      "name": "servicePct",
      "outputs": [
        {
          "internalType": "uint256",
          "name": "",
          "type": "uint256"
        }
      ],
      "stateMutability": "view",
      "type": "function"
    },
    {
      "inputs": [
        {
          "internalType": "address",
          "name": "operator",
          "type": "address"
        },
        {
          "internalType": "bool",
          "name": "approved",
          "type": "bool"
        }
      ],
      "name": "setApprovalForAll",
      "outputs": [],
      "stateMutability": "nonpayable",
      "type": "function"
    },
    {
      "inputs": [],
      "name": "stopImpersonating",
      "outputs": [],
      "stateMutability": "nonpayable",
      "type": "function"
    },
    {
      "inputs": [
        {
          "internalType": "bytes4",
          "name": "interfaceId",
          "type": "bytes4"
        }
      ],
      "name": "supportsInterface",
      "outputs": [
        {
          "internalType": "bool",
          "name": "",
          "type": "bool"
        }
      ],
      "stateMutability": "view",
      "type": "function"
    },
    {
      "inputs": [],
      "name": "symbol",
      "outputs": [
        {
          "internalType": "string",
          "name": "",
          "type": "string"
        }
      ],
      "stateMutability": "view",
      "type": "function"
    },
    {
      "inputs": [
        {
          "internalType": "uint256",
          "name": "tokenId",
          "type": "uint256"
        }
      ],
      "name": "tokenURI",
      "outputs": [
        {
          "internalType": "string",
          "name": "",
          "type": "string"
        }
      ],
      "stateMutability": "view",
      "type": "function"
    },
    {
      "inputs": [
        {
          "internalType": "address",
          "name": "from",
          "type": "address"
        },
        {
          "internalType": "address",
          "name": "to",
          "type": "address"
        },
        {
          "internalType": "uint256",
          "name": "tokenId",
          "type": "uint256"
        }
      ],
      "name": "transferFrom",
      "outputs": [],
      "stateMutability": "nonpayable",
      "type": "function"
    },
    {
      "inputs": [
        {
          "internalType": "address",
          "name": "newOwner",
          "type": "address"
        }
      ],
      "name": "transferOwnership",
      "outputs": [],
      "stateMutability": "nonpayable",
      "type": "function"
    }
  ],
  "bytecode": "0x6080346200037757601f90601f196001600160401b03620015313881900385810184168501838111868210176200037c57859282916040528339602094859181010312620003775751936200005362000392565b926007845266048656d53686f760cc1b858501526200007162000392565b60038082526204873760ec1b8783015260008054336001600160a01b031982168117835592989394919392906001600160a01b03167f8be0079c531659141344cd1fd0a4f28419497f9722a3daafe3b4186f6b6457e08580a360019687805580519087821162000363576002548981811c9116801562000358575b858210146200034457908188849311620002f0575b5084908883116001146200028e57869262000282575b5050600019828b1b1c191690881b176002555b83519586116200026e5787548781811c9116801562000263575b838210146200024f5785811162000207575b5081948611600114620001a25750509183949184939462000196575b50501b9160001990841b1c19161790555b600b5560405161117e9081620003b38239f35b01519250388062000172565b8783528183209493928692918316915b88838310620001ec5750505010620001d3575b505050811b01905562000183565b015160001983861b60f8161c19169055388080620001c5565b858701518855909601959485019487935090810190620001b2565b8884528284208680890160051c820192858a1062000245575b0160051c019088905b8281106200023957505062000156565b85815501889062000229565b9250819262000220565b634e487b7160e01b84526022600452602484fd5b90607f169062000144565b634e487b7160e01b83526041600452602483fd5b01519050388062000117565b90848b9416916002885286882092885b88828210620002d95750508411620002c0575b505050811b016002556200012a565b0151600019838d1b60f8161c19169055388080620002b1565b8385015186558e979095019493840193016200029e565b909150600286528486208880850160051c8201928786106200033a575b918c91869594930160051c01915b8281106200032b57505062000101565b8881558594508c91016200031b565b925081926200030d565b634e487b7160e01b86526022600452602486fd5b90607f1690620000ec565b634e487b7160e01b85526041600452602485fd5b600080fd5b634e487b7160e01b600052604160045260246000fd5b60408051919082016001600160401b038111838210176200037c5760405256fe6080604081815260048036101561001557600080fd5b600092833560e01c90816301ffc9a714610abc5750806306fdde03146109ef578063081812fc146109cf578063095ea7b31461085f5780631385fd92146107f957806323b872dd146107cf57806342842e0e146107a657806345de84db1461074d5780636352211e1461071c57806370a0823114610686578063715018a61461062c5780638da5cb5b1461060457806395d89b41146104ea578063a22cb4651461041b578063a22fb38714610356578063b88d4fde146102cd578063b95a062814610292578063c87b56dd14610240578063e01ef6e614610221578063e985e9c5146101cf5763f2fde38b1461010a57600080fd5b346101cb5760203660031901126101cb57610123610b68565b9061012c610c3e565b6001600160a01b0391821692831561017957505082546001600160a01b0319811683178455167f8be0079c531659141344cd1fd0a4f28419497f9722a3daafe3b4186f6b6457e08380a380f35b906020608492519162461bcd60e51b8352820152602660248201527f4f776e61626c653a206e6577206f776e657220697320746865207a65726f206160448201526564647265737360d01b6064820152fd5b8280fd5b50503461021d578060031936011261021d5760ff816020936101ef610b68565b6101f7610b83565b6001600160a01b0391821683526007875283832091168252855220549151911615158152f35b5080fd5b50503461021d578160031936011261021d57602090600b549051908152f35b5091903461021d57602036600319011261021d5761026161028e9335611002565b81815161026d81610bce565b5280519161027a83610bce565b825251918291602083526020830190610b28565b0390f35b50503461021d57602036600319011261021d576020916001600160a01b03908290826102bc610b68565b168152600d85522054169051908152f35b5090346101cb5760803660031901126101cb576102e8610b68565b6102f0610b83565b846064359467ffffffffffffffff861161021d573660238701121561021d578501359461032861031f87610c22565b95519586610c00565b858552366024878301011161021d578561035396602460209301838801378501015260443591610d8e565b80f35b50346101cb5760203660031901126101cb57610370610b68565b610378610c3e565b6001600160a01b03169081156103d85750907f32b449308c94e824ccedd9877932cd82f89a481c06c4643a0cb2914454a8c58291338452600d602052818420816001600160601b0360a01b8254161790558151903382526020820152a180f35b606490602084519162461bcd60e51b8352820152601760248201527f496e76616c6964206163636f756e7420616464726573730000000000000000006044820152fd5b5090346101cb57806003193601126101cb57610435610b68565b90602435918215158093036104e6576001600160a01b0316923384146104a45750338452600760205280842083855260205280842060ff1981541660ff8416179055519081527f17307eab39ab6107e8899845ad3d59bd9653f200f220920489ca2b5937696c3160203392a380f35b6020606492519162461bcd60e51b8352820152601960248201527f4552433732313a20617070726f766520746f2063616c6c6572000000000000006044820152fd5b8480fd5b5091346106015780600319360112610601578151918160035492600184811c918186169586156105f7575b60209687851081146105e4578899509688969785829a5291826000146105bd575050600114610561575b50505061028e9291610552910385610c00565b51928284938452830190610b28565b9190869350600383527fc2575a0e9e593c00f959f8c92f12db2869c3395a3b0502d05e2516446f71f85b5b8284106105a5575050508201018161055261028e61053f565b8054848a01860152889550879490930192810161058c565b60ff19168782015293151560051b86019093019350849250610552915061028e905061053f565b634e487b7160e01b835260228a52602483fd5b92607f1692610515565b80fd5b50503461021d578160031936011261021d57905490516001600160a01b039091168152602090f35b8334610601578060031936011261060157610645610c3e565b80546001600160a01b03198116825581906001600160a01b03167f8be0079c531659141344cd1fd0a4f28419497f9722a3daafe3b4186f6b6457e08280a380f35b5082903461021d57602036600319011261021d576001600160a01b036106aa610b68565b169081156106c75760208480858581526005845220549051908152f35b608490602085519162461bcd60e51b8352820152602960248201527f4552433732313a2061646472657373207a65726f206973206e6f7420612076616044820152683634b21037bbb732b960b91b6064820152fd5b509134610601576020366003190112610601575061073c60209235610ce2565b90516001600160a01b039091168152f35b5091903461021d57602036600319011261021d576001600160a01b03610771610b68565b168252600c60205260ff81832054169051918382101561079357602083838152f35b634e487b7160e01b815260218452602490fd5b50503461021d57610353906107ba36610b99565b919251926107c784610bce565b858452610d8e565b8334610601576103536107e136610b99565b916107f46107ef8433610e29565b610d2c565b610ef1565b50503461021d578160031936011261021d577f32b449308c94e824ccedd9877932cd82f89a481c06c4643a0cb2914454a8c58290610835610c3e565b338352600d6020528083206001600160601b0360a01b81541690558051338152836020820152a180f35b50346101cb57816003193601126101cb57610878610b68565b6024359290916001600160a01b039190828061089387610ce2565b1694169380851461098257803314908115610963575b50156108fb57508385526006602052842080546001600160a01b031916831790556108d383610ce2565b167f8c5be1e5ebec7d5bd14f71427d1e84f3dd0314c0f7b2291e5b200ac8c7c3b9258480a480f35b6020608492519162461bcd60e51b8352820152603d60248201527f4552433732313a20617070726f76652063616c6c6572206973206e6f7420746f60448201527f6b656e206f776e6572206f7220617070726f76656420666f7220616c6c0000006064820152fd5b90508652600760205281862033875260205260ff8287205416386108a9565b506020608492519162461bcd60e51b8352820152602160248201527f4552433732313a20617070726f76616c20746f2063757272656e74206f776e656044820152603960f91b6064820152fd5b509134610601576020366003190112610601575061073c60209235610d08565b5091346106015780600319360112610601578151918160025492600184811c91818616958615610ab2575b60209687851081146105e4578899509688969785829a5291826000146105bd575050600114610a565750505061028e9291610552910385610c00565b9190869350600283527f405787fa12a823e0f2b7631cc41b3ba8828b3321ca811111fa75cd3aa3bb5ace5b828410610a9a575050508201018161055261028e61053f565b8054848a018601528895508794909301928101610a81565b92607f1692610a1a565b925050346101cb5760203660031901126101cb573563ffffffff60e01b81168091036101cb57602092506380ac58cd60e01b8114908115610b17575b8115610b06575b5015158152f35b6301ffc9a760e01b14905038610aff565b635b5e139f60e01b81149150610af8565b919082519283825260005b848110610b54575050826000602080949584010152601f8019910116010190565b602081830181015184830182015201610b33565b600435906001600160a01b0382168203610b7e57565b600080fd5b602435906001600160a01b0382168203610b7e57565b6060906003190112610b7e576001600160a01b03906004358281168103610b7e57916024359081168103610b7e579060443590565b6020810190811067ffffffffffffffff821117610bea57604052565b634e487b7160e01b600052604160045260246000fd5b90601f8019910116810190811067ffffffffffffffff821117610bea57604052565b67ffffffffffffffff8111610bea57601f01601f191660200190565b6000546001600160a01b03163303610c5257565b606460405162461bcd60e51b815260206004820152602060248201527f4f776e61626c653a2063616c6c6572206973206e6f7420746865206f776e65726044820152fd5b15610c9d57565b60405162461bcd60e51b815260206004820152601860248201527f4552433732313a20696e76616c696420746f6b656e20494400000000000000006044820152606490fd5b6000908152600460205260409020546001600160a01b0316610d05811515610c96565b90565b610d1181611002565b6000908152600660205260409020546001600160a01b031690565b15610d3357565b60405162461bcd60e51b815260206004820152602d60248201527f4552433732313a2063616c6c6572206973206e6f7420746f6b656e206f776e6560448201526c1c881bdc88185c1c1c9bdd9959609a1b6064820152608490fd5b90610db2939291610da26107ef8433610e29565b610dad838383610ef1565b611027565b15610db957565b60405162461bcd60e51b815280610dd260048201610dd6565b0390fd5b60809060208152603260208201527f4552433732313a207472616e7366657220746f206e6f6e20455243373231526560408201527131b2b4bb32b91034b6b83632b6b2b73a32b960711b60608201520190565b906001600160a01b038080610e3d84610ce2565b16931691838314938415610e70575b508315610e5a575b50505090565b610e6691929350610d08565b1614388080610e54565b909350600052600760205260406000208260005260205260ff604060002054169238610e4c565b15610e9e57565b60405162461bcd60e51b815260206004820152602560248201527f4552433732313a207472616e736665722066726f6d20696e636f72726563742060448201526437bbb732b960d91b6064820152608490fd5b90610f1991610eff84610ce2565b6001600160a01b0393918416928492909183168414610e97565b16918215610fb15781610f3691610f2f86610ce2565b1614610e97565b7fddf252ad1be2c89b69c2b068fc378daa952ba7f163c4a11628f55a4df523b3ef60008481526006602052604081206001600160601b0360a01b9081815416905583825260056020526040822060001981540190558482526040822060018154019055858252600460205284604083209182541617905580a4565b60405162461bcd60e51b8152602060048201526024808201527f4552433732313a207472616e7366657220746f20746865207a65726f206164646044820152637265737360e01b6064820152608490fd5b600090815260046020526040902054611025906001600160a01b03161515610c96565b565b9293600093909291803b1561113d579484916110819660405180948193630a85bd0160e11b9788845233600485015260018060a01b0380921660248501526044840152608060648401528260209b8c976084830190610b28565b0393165af18491816110fd575b506110ec575050503d6000146110e4573d6110a881610c22565b906110b66040519283610c00565b81528091833d92013e5b805191826110e15760405162461bcd60e51b815280610dd260048201610dd6565b01fd5b5060606110c0565b6001600160e01b0319161492509050565b9091508581813d8311611136575b6111158183610c00565b810103126104e657516001600160e01b0319811681036104e657903861108e565b503d61110b565b50505091505060019056fea264697066735822122081271ae7597155b94d4a2a2be92f83d3647e22b176dffa7f4574fa3e3dfe102564736f6c63430008130033",
  "linkReferences": {},
  "deployedLinkReferences": {}
}