{
  "_format": "hh-sol-artifact-1",
  "contractName": "HemShopProduct",
  "sourceName": "contracts/HemShopProduct.sol",
  "abi": [
    {
      "inputs": [
        {
          "internalType": "uint256",
          "name": "_pct",
          "type": "uint256"
        }
      ],
      "stateMutability": "nonpayable",
      "type": "constructor"
    },
    {
      "anonymous": false,
      "inputs": [
        {
          "indexed": false,
          "internalType": "address",
          "name": "admin",
          "type": "address"
        },
        {
          "indexed": false,
          "internalType": "address",
          "name": "impersonatedAccount",
          "type": "address"
        }
      ],
      "name": "AdminImpersonationChanged",
      "type": "event"
    },
    {
      "anonymous": false,
      "inputs": [
        {
          "indexed": true,
          "internalType": "address",
          "name": "owner",
          "type": "address"
        },
        {
          "indexed": true,
          "internalType": "address",
          "name": "approved",
          "type": "address"
        },
        {
          "indexed": true,
          "internalType": "uint256",
          "name": "tokenId",
          "type": "uint256"
        }
      ],
      "name": "Approval",
      "type": "event"
    },
    {
      "anonymous": false,
      "inputs": [
        {
          "indexed": true,
          "internalType": "address",
          "name": "owner",
          "type": "address"
        },
        {
          "indexed": true,
          "internalType": "address",
          "name": "operator",
          "type": "address"
        },
        {
          "indexed": false,
          "internalType": "bool",
          "name": "approved",
          "type": "bool"
        }
      ],
      "name": "ApprovalForAll",
      "type": "event"
    },
    {
      "anonymous": false,
      "inputs": [
        {
          "indexed": true,
          "internalType": "address",
          "name": "previousOwner",
          "type": "address"
        },
        {
          "indexed": true,
          "internalType": "address",
          "name": "newOwner",
          "type": "address"
        }
      ],
      "name": "OwnershipTransferred",
      "type": "event"
    },
    {
      "anonymous": false,
      "inputs": [
        {
          "indexed": true,
          "internalType": "address",
          "name": "from",
          "type": "address"
        },
        {
          "indexed": true,
          "internalType": "address",
          "name": "to",
          "type": "address"
        },
        {
          "indexed": true,
          "internalType": "uint256",
          "name": "tokenId",
          "type": "uint256"
        }
      ],
      "name": "Transfer",
      "type": "event"
    },
    {
      "inputs": [
        {
          "internalType": "address",
          "name": "",
          "type": "address"
        }
      ],
      "name": "adminImpersonating",
      "outputs": [
        {
          "internalType": "address",
          "name": "",
          "type": "address"
        }
      ],
      "stateMutability": "view",
      "type": "function"
    },
    {
      "inputs": [
        {
          "internalType": "address",
          "name": "to",
          "type": "address"
        },
        {
          "internalType": "uint256",
          "name": "tokenId",
          "type": "uint256"
        }
      ],
      "name": "approve",
      "outputs": [],
      "stateMutability": "nonpayable",
      "type": "function"
    },
    {
      "inputs": [
        {
          "internalType": "address",
          "name": "owner",
          "type": "address"
        }
      ],
      "name": "balanceOf",
      "outputs": [
        {
          "internalType": "uint256",
          "name": "",
          "type": "uint256"
        }
      ],
      "stateMutability": "view",
      "type": "function"
    },
    {
      "inputs": [
        {
          "components": [
            {
              "internalType": "string",
              "name": "name",
              "type": "string"
            },
            {
              "internalType": "string",
              "name": "description",
              "type": "string"
            },
            {
              "internalType": "uint256",
              "name": "price",
              "type": "uint256"
            },
            {
              "internalType": "uint256",
              "name": "stock",
              "type": "uint256"
            },
            {
              "internalType": "string",
              "name": "color",
              "type": "string"
            },
            {
              "internalType": "string",
              "name": "size",
              "type": "string"
            },
            {
              "internalType": "string[]",
              "name": "images",
              "type": "string[]"
            },
            {
              "internalType": "string",
              "name": "category",
              "type": "string"
            },
            {
              "internalType": "string",
              "name": "subCategory",
              "type": "string"
            },
            {
              "internalType": "string",
              "name": "model",
              "type": "string"
            },
            {
              "internalType": "string",
              "name": "brand",
              "type": "string"
            },
            {
              "internalType": "uint256",
              "name": "weight",
              "type": "uint256"
            },
            {
              "internalType": "uint256",
              "name": "sku",
              "type": "uint256"
            }
          ],
          "internalType": "struct HemShopProduct.ProductInput",
          "name": "input",
          "type": "tuple"
        }
      ],
      "name": "createProduct",
      "outputs": [],
      "stateMutability": "nonpayable",
      "type": "function"
    },
    {
      "inputs": [
        {
          "internalType": "uint256",
          "name": "productId",
          "type": "uint256"
        }
      ],
      "name": "deleteProduct",
      "outputs": [],
      "stateMutability": "nonpayable",
      "type": "function"
    },
    {
      "inputs": [],
      "name": "getAllProducts",
      "outputs": [
        {
          "components": [
            {
              "internalType": "uint256",
              "name": "id",
              "type": "uint256"
            },
            {
              "internalType": "address",
              "name": "seller",
              "type": "address"
            },
            {
              "internalType": "string",
              "name": "name",
              "type": "string"
            },
            {
              "internalType": "string",
              "name": "description",
              "type": "string"
            },
            {
              "internalType": "uint256",
              "name": "price",
              "type": "uint256"
            },
            {
              "internalType": "uint256",
              "name": "stock",
              "type": "uint256"
            },
            {
              "internalType": "string",
              "name": "color",
              "type": "string"
            },
            {
              "internalType": "string",
              "name": "size",
              "type": "string"
            },
            {
              "internalType": "string[]",
              "name": "images",
              "type": "string[]"
            },
            {
              "internalType": "string",
              "name": "category",
              "type": "string"
            },
            {
              "internalType": "string",
              "name": "subCategory",
              "type": "string"
            },
            {
              "internalType": "uint256",
              "name": "weight",
              "type": "uint256"
            },
            {
              "internalType": "string",
              "name": "model",
              "type": "string"
            },
            {
              "internalType": "string",
              "name": "brand",
              "type": "string"
            },
            {
              "internalType": "uint256",
              "name": "sku",
              "type": "uint256"
            },
            {
              "internalType": "bool",
              "name": "soldout",
              "type": "bool"
            },
            {
              "internalType": "bool",
              "name": "wishlist",
              "type": "bool"
            },
            {
              "internalType": "bool",
              "name": "deleted",
              "type": "bool"
            },
            {
              "components": [
                {
                  "internalType": "uint256",
                  "name": "reviewId",
                  "type": "uint256"
                },
                {
                  "internalType": "address",
                  "name": "reviewer",
                  "type": "address"
                },
                {
                  "internalType": "uint256",
                  "name": "rating",
                  "type": "uint256"
                },
                {
                  "internalType": "string",
                  "name": "comment",
                  "type": "string"
                },
                {
                  "internalType": "bool",
                  "name": "deleted",
                  "type": "bool"
                }
              ],
              "internalType": "struct HemShopBase.ReviewStruct[]",
              "name": "reviews",
              "type": "tuple[]"
            }
          ],
          "internalType": "struct HemShopProduct.ProductStruct[]",
          "name": "",
          "type": "tuple[]"
        }
      ],
      "stateMutability": "view",
      "type": "function"
    },
    {
      "inputs": [
        {
          "internalType": "uint256",
          "name": "tokenId",
          "type": "uint256"
        }
      ],
      "name": "getApproved",
      "outputs": [
        {
          "internalType": "address",
          "name": "",
          "type": "address"
        }
      ],
      "stateMutability": "view",
      "type": "function"
    },
    {
      "inputs": [],
      "name": "getMyProducts",
      "outputs": [
        {
          "components": [
            {
              "internalType": "uint256",
              "name": "id",
              "type": "uint256"
            },
            {
              "internalType": "address",
              "name": "seller",
              "type": "address"
            },
            {
              "internalType": "string",
              "name": "name",
              "type": "string"
            },
            {
              "internalType": "string",
              "name": "description",
              "type": "string"
            },
            {
              "internalType": "uint256",
              "name": "price",
              "type": "uint256"
            },
            {
              "internalType": "uint256",
              "name": "stock",
              "type": "uint256"
            },
            {
              "internalType": "string",
              "name": "color",
              "type": "string"
            },
            {
              "internalType": "string",
              "name": "size",
              "type": "string"
            },
            {
              "internalType": "string[]",
              "name": "images",
              "type": "string[]"
            },
            {
              "internalType": "string",
              "name": "category",
              "type": "string"
            },
            {
              "internalType": "string",
              "name": "subCategory",
              "type": "string"
            },
            {
              "internalType": "uint256",
              "name": "weight",
              "type": "uint256"
            },
            {
              "internalType": "string",
              "name": "model",
              "type": "string"
            },
            {
              "internalType": "string",
              "name": "brand",
              "type": "string"
            },
            {
              "internalType": "uint256",
              "name": "sku",
              "type": "uint256"
            },
            {
              "internalType": "bool",
              "name": "soldout",
              "type": "bool"
            },
            {
              "internalType": "bool",
              "name": "wishlist",
              "type": "bool"
            },
            {
              "internalType": "bool",
              "name": "deleted",
              "type": "bool"
            },
            {
              "components": [
                {
                  "internalType": "uint256",
                  "name": "reviewId",
                  "type": "uint256"
                },
                {
                  "internalType": "address",
                  "name": "reviewer",
                  "type": "address"
                },
                {
                  "internalType": "uint256",
                  "name": "rating",
                  "type": "uint256"
                },
                {
                  "internalType": "string",
                  "name": "comment",
                  "type": "string"
                },
                {
                  "internalType": "bool",
                  "name": "deleted",
                  "type": "bool"
                }
              ],
              "internalType": "struct HemShopBase.ReviewStruct[]",
              "name": "reviews",
              "type": "tuple[]"
            }
          ],
          "internalType": "struct HemShopProduct.ProductStruct[]",
          "name": "",
          "type": "tuple[]"
        }
      ],
      "stateMutability": "view",
      "type": "function"
    },
    {
      "inputs": [
        {
          "internalType": "uint256",
          "name": "productId",
          "type": "uint256"
        }
      ],
      "name": "getProduct",
      "outputs": [
        {
          "components": [
            {
              "internalType": "uint256",
              "name": "id",
              "type": "uint256"
            },
            {
              "internalType": "address",
              "name": "seller",
              "type": "address"
            },
            {
              "internalType": "string",
              "name": "name",
              "type": "string"
            },
            {
              "internalType": "string",
              "name": "description",
              "type": "string"
            },
            {
              "internalType": "uint256",
              "name": "price",
              "type": "uint256"
            },
            {
              "internalType": "uint256",
              "name": "stock",
              "type": "uint256"
            },
            {
              "internalType": "string",
              "name": "color",
              "type": "string"
            },
            {
              "internalType": "string",
              "name": "size",
              "type": "string"
            },
            {
              "internalType": "string[]",
              "name": "images",
              "type": "string[]"
            },
            {
              "internalType": "string",
              "name": "category",
              "type": "string"
            },
            {
              "internalType": "string",
              "name": "subCategory",
              "type": "string"
            },
            {
              "internalType": "uint256",
              "name": "weight",
              "type": "uint256"
            },
            {
              "internalType": "string",
              "name": "model",
              "type": "string"
            },
            {
              "internalType": "string",
              "name": "brand",
              "type": "string"
            },
            {
              "internalType": "uint256",
              "name": "sku",
              "type": "uint256"
            },
            {
              "internalType": "bool",
              "name": "soldout",
              "type": "bool"
            },
            {
              "internalType": "bool",
              "name": "wishlist",
              "type": "bool"
            },
            {
              "internalType": "bool",
              "name": "deleted",
              "type": "bool"
            },
            {
              "components": [
                {
                  "internalType": "uint256",
                  "name": "reviewId",
                  "type": "uint256"
                },
                {
                  "internalType": "address",
                  "name": "reviewer",
                  "type": "address"
                },
                {
                  "internalType": "uint256",
                  "name": "rating",
                  "type": "uint256"
                },
                {
                  "internalType": "string",
                  "name": "comment",
                  "type": "string"
                },
                {
                  "internalType": "bool",
                  "name": "deleted",
                  "type": "bool"
                }
              ],
              "internalType": "struct HemShopBase.ReviewStruct[]",
              "name": "reviews",
              "type": "tuple[]"
            }
          ],
          "internalType": "struct HemShopProduct.ProductStruct",
          "name": "",
          "type": "tuple"
        }
      ],
      "stateMutability": "view",
      "type": "function"
    },
    {
      "inputs": [
        {
          "internalType": "address",
          "name": "account",
          "type": "address"
        }
      ],
      "name": "impersonateAccount",
      "outputs": [],
      "stateMutability": "nonpayable",
      "type": "function"
    },
    {
      "inputs": [
        {
          "internalType": "address",
          "name": "owner",
          "type": "address"
        },
        {
          "internalType": "address",
          "name": "operator",
          "type": "address"
        }
      ],
      "name": "isApprovedForAll",
      "outputs": [
        {
          "internalType": "bool",
          "name": "",
          "type": "bool"
        }
      ],
      "stateMutability": "view",
      "type": "function"
    },
    {
      "inputs": [],
      "name": "name",
      "outputs": [
        {
          "internalType": "string",
          "name": "",
          "type": "string"
        }
      ],
      "stateMutability": "view",
      "type": "function"
    },
    {
      "inputs": [],
      "name": "owner",
      "outputs": [
        {
          "internalType": "address",
          "name": "",
          "type": "address"
        }
      ],
      "stateMutability": "view",
      "type": "function"
    },
    {
      "inputs": [
        {
          "internalType": "uint256",
          "name": "tokenId",
          "type": "uint256"
        }
      ],
      "name": "ownerOf",
      "outputs": [
        {
          "internalType": "address",
          "name": "",
          "type": "address"
        }
      ],
      "stateMutability": "view",
      "type": "function"
    },
    {
      "inputs": [
        {
          "internalType": "uint256",
          "name": "",
          "type": "uint256"
        }
      ],
      "name": "productExists",
      "outputs": [
        {
          "internalType": "bool",
          "name": "",
          "type": "bool"
        }
      ],
      "stateMutability": "view",
      "type": "function"
    },
    {
      "inputs": [
        {
          "internalType": "uint256",
          "name": "",
          "type": "uint256"
        }
      ],
      "name": "products",
      "outputs": [
        {
          "internalType": "uint256",
          "name": "id",
          "type": "uint256"
        },
        {
          "internalType": "address",
          "name": "seller",
          "type": "address"
        },
        {
          "internalType": "string",
          "name": "name",
          "type": "string"
        },
        {
          "internalType": "string",
          "name": "description",
          "type": "string"
        },
        {
          "internalType": "uint256",
          "name": "price",
          "type": "uint256"
        },
        {
          "internalType": "uint256",
          "name": "stock",
          "type": "uint256"
        },
        {
          "internalType": "string",
          "name": "color",
          "type": "string"
        },
        {
          "internalType": "string",
          "name": "size",
          "type": "string"
        },
        {
          "internalType": "string",
          "name": "category",
          "type": "string"
        },
        {
          "internalType": "string",
          "name": "subCategory",
          "type": "string"
        },
        {
          "internalType": "uint256",
          "name": "weight",
          "type": "uint256"
        },
        {
          "internalType": "string",
          "name": "model",
          "type": "string"
        },
        {
          "internalType": "string",
          "name": "brand",
          "type": "string"
        },
        {
          "internalType": "uint256",
          "name": "sku",
          "type": "uint256"
        },
        {
          "internalType": "bool",
          "name": "soldout",
          "type": "bool"
        },
        {
          "internalType": "bool",
          "name": "wishlist",
          "type": "bool"
        },
        {
          "internalType": "bool",
          "name": "deleted",
          "type": "bool"
        }
      ],
      "stateMutability": "view",
      "type": "function"
    },
    {
      "inputs": [],
      "name": "renounceOwnership",
      "outputs": [],
      "stateMutability": "nonpayable",
      "type": "function"
    },
    {
      "inputs": [
        {
          "internalType": "address",
          "name": "from",
          "type": "address"
        },
        {
          "internalType": "address",
          "name": "to",
          "type": "address"
        },
        {
          "internalType": "uint256",
          "name": "tokenId",
          "type": "uint256"
        }
      ],
      "name": "safeTransferFrom",
      "outputs": [],
      "stateMutability": "nonpayable",
      "type": "function"
    },
    {
      "inputs": [
        {
          "internalType": "address",
          "name": "from",
          "type": "address"
        },
        {
          "internalType": "address",
          "name": "to",
          "type": "address"
        },
        {
          "internalType": "uint256",
          "name": "tokenId",
          "type": "uint256"
        },
        {
          "internalType": "bytes",
          "name": "data",
          "type": "bytes"
        }
      ],
      "name": "safeTransferFrom",
      "outputs": [],
      "stateMutability": "nonpayable",
      "type": "function"
    },
    {
      "inputs": [
        {
          "internalType": "address",
          "name": "",
          "type": "address"
        },
        {
          "internalType": "uint256",
          "name": "",
          "type": "uint256"
        }
      ],
      "name": "sellerProducts",
      "outputs": [
        {
          "internalType": "uint256",
          "name": "",
          "type": "uint256"
        }
      ],
      "stateMutability": "view",
      "type": "function"
    },
    {
      "inputs": [
        {
          "internalType": "address",
          "name": "",
          "type": "address"
        }
      ],
      "name": "sellerStatus",
      "outputs": [
        {
          "internalType": "enum HemShopBase.SellerStatus",
          "name": "",
          "type": "uint8"
        }
      ],
      "stateMutability": "view",
      "type": "function"
    },
    {
      "inputs": [],
      "name": "servicePct",
      "outputs": [
        {
          "internalType": "uint256",
          "name": "",
          "type": "uint256"
        }
      ],
      "stateMutability": "view",
      "type": "function"
    },
    {
      "inputs": [
        {
          "internalType": "address",
          "name": "operator",
          "type": "address"
        },
        {
          "internalType": "bool",
          "name": "approved",
          "type": "bool"
        }
      ],
      "name": "setApprovalForAll",
      "outputs": [],
      "stateMutability": "nonpayable",
      "type": "function"
    },
    {
      "inputs": [],
      "name": "stopImpersonating",
      "outputs": [],
      "stateMutability": "nonpayable",
      "type": "function"
    },
    {
      "inputs": [
        {
          "internalType": "bytes4",
          "name": "interfaceId",
          "type": "bytes4"
        }
      ],
      "name": "supportsInterface",
      "outputs": [
        {
          "internalType": "bool",
          "name": "",
          "type": "bool"
        }
      ],
      "stateMutability": "view",
      "type": "function"
    },
    {
      "inputs": [],
      "name": "symbol",
      "outputs": [
        {
          "internalType": "string",
          "name": "",
          "type": "string"
        }
      ],
      "stateMutability": "view",
      "type": "function"
    },
    {
      "inputs": [
        {
          "internalType": "uint256",
          "name": "tokenId",
          "type": "uint256"
        }
      ],
      "name": "tokenURI",
      "outputs": [
        {
          "internalType": "string",
          "name": "",
          "type": "string"
        }
      ],
      "stateMutability": "view",
      "type": "function"
    },
    {
      "inputs": [
        {
          "internalType": "address",
          "name": "from",
          "type": "address"
        },
        {
          "internalType": "address",
          "name": "to",
          "type": "address"
        },
        {
          "internalType": "uint256",
          "name": "tokenId",
          "type": "uint256"
        }
      ],
      "name": "transferFrom",
      "outputs": [],
      "stateMutability": "nonpayable",
      "type": "function"
    },
    {
      "inputs": [
        {
          "internalType": "address",
          "name": "newOwner",
          "type": "address"
        }
      ],
      "name": "transferOwnership",
      "outputs": [],
      "stateMutability": "nonpayable",
      "type": "function"
    },
    {
      "inputs": [
        {
          "internalType": "uint256",
          "name": "productId",
          "type": "uint256"
        },
        {
          "components": [
            {
              "internalType": "string",
              "name": "name",
              "type": "string"
            },
            {
              "internalType": "string",
              "name": "description",
              "type": "string"
            },
            {
              "internalType": "uint256",
              "name": "price",
              "type": "uint256"
            },
            {
              "internalType": "uint256",
              "name": "stock",
              "type": "uint256"
            },
            {
              "internalType": "string",
              "name": "color",
              "type": "string"
            },
            {
              "internalType": "string",
              "name": "size",
              "type": "string"
            },
            {
              "internalType": "string[]",
              "name": "images",
              "type": "string[]"
            },
            {
              "internalType": "string",
              "name": "category",
              "type": "string"
            },
            {
              "internalType": "string",
              "name": "subCategory",
              "type": "string"
            },
            {
              "internalType": "string",
              "name": "model",
              "type": "string"
            },
            {
              "internalType": "string",
              "name": "brand",
              "type": "string"
            },
            {
              "internalType": "uint256",
              "name": "weight",
              "type": "uint256"
            },
            {
              "internalType": "uint256",
              "name": "sku",
              "type": "uint256"
            }
          ],
          "internalType": "struct HemShopProduct.ProductInput",
          "name": "input",
          "type": "tuple"
        }
      ],
      "name": "updateProduct",
      "outputs": [],
      "stateMutability": "nonpayable",
      "type": "function"
    }
  ],
  "bytecode": "0x6080346200037757601f90601f196001600160401b03620049523881900385810184168501838111868210176200037c57859282916040528339602094859181010312620003775751936200005362000392565b926007845266048656d53686f760cc1b858501526200007162000392565b60038082526204873760ec1b8783015260008054336001600160a01b031982168117835592989394919392906001600160a01b03167f8be0079c531659141344cd1fd0a4f28419497f9722a3daafe3b4186f6b6457e08580a360019687805580519087821162000363576002548981811c9116801562000358575b858210146200034457908188849311620002f0575b5084908883116001146200028e57869262000282575b5050600019828b1b1c191690881b176002555b83519586116200026e5787548781811c9116801562000263575b838210146200024f5785811162000207575b5081948611600114620001a25750509183949184939462000196575b50501b9160001990841b1c19161790555b600b5560405161459f9081620003b38239f35b01519250388062000172565b8783528183209493928692918316915b88838310620001ec5750505010620001d3575b505050811b01905562000183565b015160001983861b60f8161c19169055388080620001c5565b858701518855909601959485019487935090810190620001b2565b8884528284208680890160051c820192858a1062000245575b0160051c019088905b8281106200023957505062000156565b85815501889062000229565b9250819262000220565b634e487b7160e01b84526022600452602484fd5b90607f169062000144565b634e487b7160e01b83526041600452602483fd5b01519050388062000117565b90848b9416916002885286882092885b88828210620002d95750508411620002c0575b505050811b016002556200012a565b0151600019838d1b60f8161c19169055388080620002b1565b8385015186558e979095019493840193016200029e565b909150600286528486208880850160051c8201928786106200033a575b918c91869594930160051c01915b8281106200032b57505062000101565b8881558594508c91016200031b565b925081926200030d565b634e487b7160e01b86526022600452602486fd5b90607f1690620000ec565b634e487b7160e01b85526041600452602485fd5b600080fd5b634e487b7160e01b600052604160045260246000fd5b60408051919082016001600160401b038111838210176200037c5760405256fe608080604052600436101561001357600080fd5b60003560e01c90816301ffc9a71461334a5750806302ee3a521461307357806306fdde0314612fcd578063081812fc14612faf578063095ea7b314612e355780631385fd9214612dcc57806323b872dd14612da357806342842e0e14612d7b57806345de84db14612d355780636352211e14612d0557806370a0823114612c6e578063715018a614612c155780637acc0b2014612a7d5780638da5cb5b14612a5457806395d89b4114612972578063a22cb46514612897578063a22fb387146127d1578063af55ed64146127a0578063b119105214611c25578063b235b4a914610b8c578063b88d4fde14610b2b578063b95a062814610af0578063b9db15b414610873578063c1302b341461081b578063c87b56dd146107ab578063e01ef6e61461078d578063e985e9c514610737578063ed90c7b714610552578063f2fde38b1461048e5763fdca4ca31461016957600080fd5b3461048957600036600319011261048957600854600060015b82811115610428575061019490614505565b90600160005b828211156101b457604051806101b0868261362c565b0390f35b6000828152600e6020526040902060018101546001600160a01b03169033821480610416575b6101f1575b5050906101eb906144e0565b9061019a565b604051916101fe83613729565b8154835260208301526102136002820161379c565b60408301526102246003820161379c565b606083015260048101546080830152600581015460a08301526102496006820161379c565b60c083015261025a6007820161379c565b60e083015260088101805461026e81614309565b9161027c604051938461377b565b81835260208301906000526020600020906000905b8382106103f957505050506101008301526102ae6009820161379c565b6101208301526102c0600a820161379c565b610140830152600b8101546101608301526102dd600c820161379c565b6101808301526102ef600d820161379c565b6101a0830152600e8101546101c0830152600f8101549060ff821615156101e084015260ff8260081c16151561020084015260ff601092831c1615156102208401520180549061033e82614309565b9161034c604051938461377b565b808352602083019160005260206000206000925b82841061039b57505050506102408201526101eb91610394916103838288614555565b5261038e8187614555565b506144e0565b90386101df565b600560206001926040516103ae81613745565b85548152848060a01b03858701541683820152600286015460408201526103d76003870161379c565b606082015260ff60048701541615156080820152815201920193019290610360565b6001602081926104088661379c565b815201930191019091610291565b5060ff600f82015460101c16156101da565b6000818152600e6020526040902060018101546001600160a01b031633149081610476575b50610461575b61045c906144e0565b610182565b9061046e61045c916144e0565b919050610453565b60ff9150600f015460101c16153861044d565b600080fd5b34610489576020366003190112610489576104a761368e565b6104af6138c2565b6001600160a01b039081169081156104fe57600054826001600160601b0360a01b821617600055167f8be0079c531659141344cd1fd0a4f28419497f9722a3daafe3b4186f6b6457e0600080a3005b60405162461bcd60e51b815260206004820152602660248201527f4f776e61626c653a206e6577206f776e657220697320746865207a65726f206160448201526564647265737360d01b6064820152608490fd5b346104895760208060031936011261048957336000908152600d8252604090205460043591906001600160a01b0390811680156106fb5780600052600c835260ff604060002054169060048210156106e55760026105b992149081156106d7575b50613dc5565b82600052600f82526105d260ff6040600020541661445a565b82600052600e8252338160016040600020015416149081156106c9575b50156106755781600052600e815260ff600f6040600020015460101c16610631576000918252600e905260409020600f01805462ff0000191662010000179055005b6064906040519062461bcd60e51b82526004820152601a60248201527f50726f6475637420697320616c72656164792064656c657465640000000000006044820152fd5b6084906040519062461bcd60e51b82526004820152602760248201527f4f6e6c792070726f647563742073656c6c6572206f72206f776e65722063616e6044820152662064656c65746560c81b6064820152fd5b6000541633149050836105ef565b9050826000541614856105b3565b634e487b7160e01b600052602160045260246000fd5b50600c825260ff6040600020541660048110156106e557600214801561072a575b61072590613dc5565b6105b9565b506000548116331461071c565b346104895760403660031901126104895761075061368e565b6107586136a4565b9060018060a01b03809116600052600760205260406000209116600052602052602060ff604060002054166040519015158152f35b34610489576000366003190112610489576020600b54604051908152f35b34610489576020366003190112610489576107e56107e0600435600052600460205260018060a01b0360406000205416151590565b61391a565b60006040516107f381613760565b526101b060405161080381613760565b600081526040519182916020835260208301906133b5565b346104895760403660031901126104895761083461368e565b6001600160a01b03166000908152601060205260409020805460243591908210156104895760209161086591613894565b90546040519160031b1c8152f35b346104895760203660031901126104895760043561088f61427d565b5080600052600e6020526108b160ff600f6040600020015460101c161561449f565b80600052600f6020526108cb60ff6040600020541661445a565b600052600e6020526040600020604051906108e582613729565b8054825260018101546001600160a01b031660208301526109086002820161379c565b60408301526109196003820161379c565b606083015260048101546080830152600581015460a083015261093e6006820161379c565b60c083015261094f6007820161379c565b60e083015260088101805461096381614309565b91610971604051938461377b565b818352602083019060005260206000206000915b838310610ad35786601087876101008401526109a36009820161379c565b6101208401526109b5600a820161379c565b610140840152600b8101546101608401526109d2600c820161379c565b6101808401526109e4600d820161379c565b6101a0840152600e8101546101c084015260ff600f82015481811615156101e0860152818160081c161515610200860152831c16151561022084015201908154610a2d81614309565b92610a3b604051948561377b565b818452602084019060005260206000206000915b838310610a75576101b085876102408201526040519182916020835260208301906133f5565b60056020600192604051610a8881613745565b85548152848060a01b0385870154168382015260028601546040820152610ab16003870161379c565b606082015260ff60048701541615156080820152815201920192019190610a4f565b600160208192610ae28561379c565b815201920192019190610985565b346104895760203660031901126104895760206001600160a01b0380610b1461368e565b16600052600d825260406000205416604051908152f35b3461048957608036600319011261048957610b4461368e565b610b4c6136a4565b606435916001600160401b038311610489573660238401121561048957610b80610b8a93369060248160040135910161385d565b9160443591613a2c565b005b3461048957600319602036820112610489576001600160401b0360043511610489576101a0906004353603011261048957336000908152600d60205260409020546001600160a01b03168015611be15780600052600c60205260ff604060002054169060048210156106e5576002610c0c9214908115611bcc5750613dc5565b610c26610c1d600480350180613e1f565b90501515613e51565b6024610c47610c3e8260043501600435600401613e1f565b90501515613e94565b610c58604460043501351515613ee0565b610c69606460043501351515613f2c565b610c89610c80608460043501600435600401613e1f565b90501515613f78565b610ca9610ca060c460043501600435600401613fbc565b90501515613ff1565b610cca6005610cc260c460043501600435600401613fbc565b905010614036565b610cea610ce160a460043501600435600401613e1f565b90501515614082565b610d0a610d0160e460043501600435600401613e1f565b905015156140c5565b610d2b610d2261010460043501600435600401613e1f565b90501515614111565b610d4c610d4361012460043501600435600401613e1f565b9050151561415d565b610d6d610d6461014460043501600435600401613e1f565b905015156141a1565b610d7f610164600435013515156141e5565b610d9161018460043501351515614231565b60016008540180600855610da361427d565b818152336020820152610dc4610dbd600480350180613e1f565b369161385d565b6040820152610ddf610dbd8460043501600435600401613e1f565b60608201526044600435013560808201526064600435013560a0820152610e13610dbd608460043501600435600401613e1f565b60c0820152610e2f610dbd60a460043501600435600401613e1f565b60e0820152610e4860c460043501600435600401613fbc565b90610e5282614309565b91610e60604051938461377b565b80835260208301368260051b8401116104895782905b8260051b84018210611b8d5750505050610100820152610ea3610dbd60e460043501600435600401613e1f565b610120820152610ec1610dbd61010460043501600435600401613e1f565b610140820152610edf610dbd61012460043501600435600401613e1f565b610180820152610efd610dbd61014460043501600435600401613e1f565b6101a082015260043561016481013561016083015261018401356101c08201523315611b4957600082815260046020526040902054610f48906001600160a01b031615155b1561440e565b600082815260046020526040902054610f6b906001600160a01b03161515610f42565b3360005260056020526040600020600181540190558160005260046020526040600020336001600160601b0360a01b825416179055813360007fddf252ad1be2c89b69c2b068fc378daa952ba7f163c4a11628f55a4df523b3ef8180a4600e602052604060002090805182556001820160018060a01b036020830151166001600160601b0360a01b82541617905560408101518051906001600160401b0382116116d157819061102b8261102260028801546136ef565b60028801614337565b602090601f8311600114611ad757600092611acc575b50508160011b916000199060031b1c19161760028301555b60608101518051906001600160401b0382116116d157819061108b8261108260038801546136ef565b60038801614337565b602090601f8311600114611a5a57600092611a4f575b50508160011b916000199060031b1c19161760038301555b6080810151600483015560a0810151600583015560c08101518051906001600160401b0382116116d15781906110ff826110f660068801546136ef565b60068801614337565b602090601f83116001146119dd576000926119d2575b50508160011b916000199060031b1c19161760068301555b60e08101518051906001600160401b0382116116d157819061115f8261115660078801546136ef565b60078801614337565b602090601f831160011461196057600092611955575b50508160011b916000199060031b1c19161760078301555b600882016101008201519060208251926111a784846143c5565b019060005260206000206000915b83831061185d57505050506101208101518051906001600160401b0382116116d15781906111f3826111ea60098801546136ef565b60098801614337565b602090601f83116001146117eb576000926117e0575b50508160011b916000199060031b1c19161760098301555b6101408101518051906001600160401b0382116116d15781906112548261124b600a8801546136ef565b600a8801614337565b602090601f831160011461176e57600092611763575b50508160011b916000199060031b1c191617600a8301555b610160810151600b8301556101808101518051906001600160401b0382116116d15781906112c0826112b7600c8801546136ef565b600c8801614337565b602090601f83116001146116f1576000926116e6575b50508160011b916000199060031b1c191617600c8301555b6101a08101518051906001600160401b0382116116d15761131f82611316600d8701546136ef565b600d8701614337565b602090601f831160011461165d5761024093929160009183611652575b50508160011b916000199060031b1c191617600d8401555b6101c0810151600e840155600f83016113806101e08301511515829060ff801983541691151516179055565b6102008201511515815461ff0062ff0000610220860151151560101b169260081b169062ffff001916171790550151805190600160401b821161163d5760108301548260108501558083106115bc575b50602060109101920160005260206000206000925b82841061146457858580600052600f6020526040600020600160ff198254161790553360005260106020526040600020805490600160401b82101561144f579061143491600182018155613894565b819291549060031b91821b91600019901b1916179055600080f35b83634e487b7160e01b60005260416004526000fd5b8051805183556001830160018060a01b036020830151166001600160601b0360a01b8254161790556040810151600284015560608101518051906001600160401b0382116115a7576114bd8261108260038801546136ef565b602090601f831160011461152b576080600594846020956001989561151495600092611520575b505081891b916000199060031b1c19161760038901555b01511515600487019060ff801983541691151516179055565b019201930192906113e5565b015190508e806114e4565b906003860160005260206000209160005b601f198516811061158f575060059460018581989561151495608095602099601f19811610611576575b505050811b0160038901556114fb565b015160001960f88460031b161c191690558e8080611566565b9192602060018192868501518155019401920161153c565b88634e487b7160e01b60005260416004526000fd5b6005818102048103611628576005838102048303611628576010840160005260206000208360050281015b82600502820181106115fa5750506113d0565b80600060059255600060018201556000600282015561161b6003820161437c565b60006004820155016115e7565b85634e487b7160e01b60005260116004526000fd5b84634e487b7160e01b60005260416004526000fd5b01519050878061133c565b90600d850160005260206000209160005b601f19851681106116b957509183916001936102409695601f198116106116a0575b505050811b01600d840155611354565b015160001960f88460031b161c19169055878080611690565b9192602060018192868501518155019401920161166e565b85634e487b7160e01b60005260416004526000fd5b0151905086806112d6565b9250600c85016000526020600020906000935b601f1984168510611748576001945083601f1981161061172f575b505050811b01600c8301556112ee565b015160001960f88460031b161c1916905586808061171f565b81810151835560209485019460019093019290910190611704565b01519050868061126a565b9250600a85016000526020600020906000935b601f19841685106117c5576001945083601f198116106117ac575b505050811b01600a830155611282565b015160001960f88460031b161c1916905586808061179c565b81810151835560209485019460019093019290910190611781565b015190508680611209565b9250600985016000526020600020906000935b601f1984168510611842576001945083601f19811610611829575b505050811b016009830155611221565b015160001960f88460031b161c19169055868080611819565b818101518355602094850194600190930192909101906117fe565b80518051906001600160401b038211611940576118848261187e86546136ef565b86614337565b602090601f83116001146118d05792826001949360209386956000926118c5575b5050600019600383901b1c191690841b1785555b019201920191906111b5565b015190508d806118a5565b908460005260206000209160005b601f1985168110611928575083602093600196938796938794601f1981161061190f575b505050811b0185556118b9565b015160001960f88460031b161c191690558d8080611902565b919260206001819286850151815501940192016118de565b89634e487b7160e01b60005260416004526000fd5b015190508680611175565b9250600785016000526020600020906000935b601f19841685106119b7576001945083601f1981161061199e575b505050811b01600783015561118d565b015160001960f88460031b161c1916905586808061198e565b81810151835560209485019460019093019290910190611973565b015190508680611115565b9250600685016000526020600020906000935b601f1984168510611a34576001945083601f19811610611a1b575b505050811b01600683015561112d565b015160001960f88460031b161c19169055868080611a0b565b818101518355602094850194600190930192909101906119f0565b0151905086806110a1565b9250600385016000526020600020906000935b601f1984168510611ab1576001945083601f19811610611a98575b505050811b0160038301556110b9565b015160001960f88460031b161c19169055868080611a88565b81810151835560209485019460019093019290910190611a6d565b015190508680611041565b9250600285016000526020600020906000935b601f1984168510611b2e576001945083601f19811610611b15575b505050811b016002830155611059565b015160001960f88460031b161c19169055868080611b05565b81810151835560209485019460019093019290910190611aea565b60405162461bcd60e51b8152602060048201819052818501527f4552433732313a206d696e7420746f20746865207a65726f20616464726573736044820152606490fd5b81356001600160401b0381116104895736601f828701011215610489576020918291611bc19036908801803590850161385d565b815201910190610e76565b6000546001600160a01b0316149050826105b3565b50600c60205260ff6040600020541660048110156106e5576002148015611c11575b611c0c90613dc5565b610c0c565b506000546001600160a01b03163314611c03565b3461048957600319604036820112610489576001600160401b0360243511610489576101a0906024353603011261048957336000908152600d60205260409020546001600160a01b0390811680156127635780600052600c60205260ff604060002054169060048210156106e5576002611ca792149081156127555750613dc5565b600435600052600e602052339060016040600020015416036126ff57600435600052600f602052611cdf60ff6040600020541661445a565b600435600052600e602052611d0260ff600f6040600020015460101c161561449f565b611d14610c1d60046024350180613e1f565b611d2a610c3e6024803501602435600401613e1f565b611d3b604460243501351515613ee0565b611d52610ca060c460243501602435600401613fbc565b611d6b6005610cc260c460243501602435600401613fbc565b611d7c606460243501351515613f2c565b611d93610c80608460243501602435600401613e1f565b611daa610ce160a460243501602435600401613e1f565b611dc1610d0160e460243501602435600401613e1f565b611dd9610d2261010460243501602435600401613e1f565b611df1610d4361012460243501602435600401613e1f565b611e09610d6461014460243501602435600401613e1f565b611e1b610164602435013515156141e5565b611e2d61018460243501351515614231565b611e3c60046024350180613e1f565b600435600052600e6020526002604060002001906001600160401b0381116122cd57611e7281611e6c84546136ef565b84614337565b600092601f8211600114612696579281929360009261268b575b50508160011b916000199060031b1c19161790555b611eb46024803501602435600401613e1f565b600435600052600e6020526003604060002001906001600160401b0381116122cd57611ee481611e6c84546136ef565b600092601f82116001146126225792819293600092612617575b50508160011b916000199060031b1c19161790555b600435600052600e6020526040600020604460243501356004820155606460243501356005820155611f4f608460243501602435600401613e1f565b906001600160401b0382116122cd57611f7882611f6f60068601546136ef565b60068601614337565b600090601f83116001146125a757600692916000918361259c575b50508160011b916000199060031b1c1916179101555b611fbd60a460243501602435600401613e1f565b600435600052600e6020526007604060002001906001600160401b0381116122cd57611fed81611e6c84546136ef565b600092601f82116001146125335792819293600092612528575b50508160011b916000199060031b1c19161790555b61203060c460243501602435600401613fbc565b600435600052600e60205260086040600020019161204e82846143c5565b60009283526020832090805b83851061243f5761207560e460243501602435600401613e1f565b600435600052600e6020526009604060002001906001600160401b0381116122cd576120a581611e6c84546136ef565b600092601f82116001146123d657928192936000926123cb575b50508160011b916000199060031b1c19161790555b6120e961010460243501602435600401613e1f565b600435600052600e602052600a604060002001906001600160401b0381116122cd5761211981611e6c84546136ef565b600092601f82116001146123625792819293600092612357575b50508160011b916000199060031b1c19161790555b61215d61012460243501602435600401613e1f565b600435600052600e602052600c604060002001906001600160401b0381116122cd5761218d81611e6c84546136ef565b600092601f82116001146122ee57928192936000926122e3575b50508160011b916000199060031b1c19161790555b6121d161014460243501602435600401613e1f565b600435600052600e602052600d604060002001906001600160401b0381116122cd5761220181611e6c84546136ef565b6000601f82116001146122685781929360009261225d575b50508160011b916000199060031b1c19161790555b600435600052600e60205260406000206101646024350135600b820155600e6101846024350135910155600080f35b013590508380612219565b601f198216938360005260206000209160005b8681106122b5575083600195961061229b575b505050811b01905561222e565b0135600019600384901b60f8161c1916905583808061228e565b9092602060018192868601358155019401910161227b565b634e487b7160e01b600052604160045260246000fd5b0135905083806121a7565b826000526020600020906000945b601f198416861061233f57600194955083601f19811610612325575b505050811b0190556121bc565b0135600019600384901b60f8161c19169055838080612318565b916020600181928585013581550193019501946122fc565b013590508380612133565b826000526020600020906000945b601f19841686106123b357600194955083601f19811610612399575b505050811b019055612148565b0135600019600384901b60f8161c1916905583808061238c565b91602060018192858501358155019301950194612370565b0135905083806120bf565b826000526020600020906000945b601f198416861061242757600194955083601f1981161061240d575b505050811b0190556120d4565b0135600019600384901b60f8161c19169055838080612400565b916020600181928585013581550193019501946123e4565b6124498183613e1f565b906001600160401b0382116122cd5761246c8261246687546136ef565b87614337565b600090601f83116001146124b85792826001949360209386956000926124ad575b5050600019600383901b1c191690841b1786555b0193019401939161205a565b013590508a8061248d565b8560005260206000209160005b601f1985168110612510575083602093600196938796938794601f198116106124f6575b505050811b0186556124a1565b0135600019600384901b60f8161c191690558a80806124e9565b909260206001819286860135815501940191016124c5565b013590508380612007565b826000526020600020906000945b601f198416861061258457600194955083601f1981161061256a575b505050811b01905561201c565b0135600019600384901b60f8161c1916905583808061255d565b91602060018192858501358155019301950194612541565b013590508480611f93565b6006840160005260206000209160005b601f19851681106125ff5750918391600193600695601f198116106125e5575b505050811b01910155611fa9565b0135600019600384901b60f8161c191690558480806125d7565b909260206001819286860135815501940191016125b7565b013590508380611efe565b826000526020600020906000945b601f198416861061267357600194955083601f19811610612659575b505050811b019055611f13565b0135600019600384901b60f8161c1916905583808061264c565b91602060018192858501358155019301950194612630565b013590508380611e8c565b826000526020600020906000945b601f19841686106126e757600194955083601f198116106126cd575b505050811b019055611ea1565b0135600019600384901b60f8161c191690558380806126c0565b916020600181928585013581550193019501946126a4565b60405162461bcd60e51b815260206004820152602860248201527f4f6e6c79207468652073656c6c65722063616e20757064617465207468656972604482015267081c1c9bd91d58dd60c21b6064820152608490fd5b9050826000541614836105b3565b50600c60205260ff6040600020541660048110156106e5576002148015612793575b61278e90613dc5565b611ca7565b5060005481163314612785565b3461048957602036600319011261048957600435600052600f602052602060ff604060002054166040519015158152f35b34610489576020366003190112610489576127ea61368e565b6127f26138c2565b6001600160a01b031680156128525760407f32b449308c94e824ccedd9877932cd82f89a481c06c4643a0cb2914454a8c5829133600052600d60205281600020816001600160601b0360a01b8254161790558151903382526020820152a1005b60405162461bcd60e51b815260206004820152601760248201527f496e76616c6964206163636f756e7420616464726573730000000000000000006044820152606490fd5b34610489576040366003190112610489576128b061368e565b6024359081151590818303610489576001600160a01b03169133831461292d576128ff9033600052600760205260406000208460005260205260406000209060ff801983541691151516179055565b6040519081527f17307eab39ab6107e8899845ad3d59bd9653f200f220920489ca2b5937696c3160203392a3005b60405162461bcd60e51b815260206004820152601960248201527f4552433732313a20617070726f766520746f2063616c6c6572000000000000006044820152606490fd5b34610489576000366003190112610489576040516000600354612994816136ef565b80845290600190818116908115612a2d57506001146129d2575b6101b0846129be8186038261377b565b6040519182916020835260208301906133b5565b6003600090815292507fc2575a0e9e593c00f959f8c92f12db2869c3395a3b0502d05e2516446f71f85b5b828410612a155750505081016020016129be826129ae565b805460208587018101919091529093019281016129fd565b60ff191660208087019190915292151560051b850190920192506129be91508390506129ae565b34610489576000366003190112610489576000546040516001600160a01b039091168152602090f35b34610489576020366003190112610489576004356000908152600e60205260409020805460018201546001600160a01b031691612abc6002820161379c565b612ac86003830161379c565b6004830154600584015490612adf6006860161379c565b612aeb6007870161379c565b612af76009880161379c565b90612b04600a890161379c565b92600b89015494600c8a01612b189061379c565b96612b25600d8c0161379c565b98600e8c01549b600f01549a6040519e8f9e8f908152602001528d6102209081604082015201612b54916133b5565b8d810360608f0152612b65916133b5565b9160808d015260a08c01528a810360c08c0152612b81916133b5565b89810360e08b0152612b92916133b5565b8881036101008a0152612ba4916133b5565b878103610120890152612bb6916133b5565b90610140870152858103610160870152612bcf916133b5565b848103610180860152612be1916133b5565b916101a084015260ff811615156101c08401528060081c60ff1615156101e084015260101c60ff1615156102008301520390f35b3461048957600036600319011261048957612c2e6138c2565b600080546001600160a01b0319811682556001600160a01b03167f8be0079c531659141344cd1fd0a4f28419497f9722a3daafe3b4186f6b6457e08280a3005b34610489576020366003190112610489576001600160a01b03612c8f61368e565b168015612cae5760005260056020526020604060002054604051908152f35b60405162461bcd60e51b815260206004820152602960248201527f4552433732313a2061646472657373207a65726f206973206e6f7420612076616044820152683634b21037bbb732b960b91b6064820152608490fd5b34610489576020366003190112610489576020612d23600435613966565b6040516001600160a01b039091168152f35b34610489576020366003190112610489576001600160a01b03612d5661368e565b16600052600c60205260ff6040600020541660405160048210156106e5576020918152f35b3461048957610b8a612d8c366136ba565b9060405192612d9a84613760565b60008452613a2c565b3461048957610b8a612db4366136ba565b91612dc7612dc28433613ac7565b6139ca565b613b8f565b3461048957600036600319011261048957612de56138c2565b33600052600d60205260406000206001600160601b0360a01b81541690557f32b449308c94e824ccedd9877932cd82f89a481c06c4643a0cb2914454a8c5826040805133815260006020820152a1005b3461048957604036600319011261048957612e4e61368e565b602435906001600160a01b038080612e6585613966565b16921691808314612f6057803314908115612f3b575b5015612ed057600083815260066020526040902080546001600160a01b03191683179055612ea883613966565b167f8c5be1e5ebec7d5bd14f71427d1e84f3dd0314c0f7b2291e5b200ac8c7c3b925600080a4005b60405162461bcd60e51b815260206004820152603d60248201527f4552433732313a20617070726f76652063616c6c6572206973206e6f7420746f60448201527f6b656e206f776e6572206f7220617070726f76656420666f7220616c6c0000006064820152608490fd5b9050600052600760205260406000203360005260205260ff6040600020541684612e7b565b60405162461bcd60e51b815260206004820152602160248201527f4552433732313a20617070726f76616c20746f2063757272656e74206f776e656044820152603960f91b6064820152608490fd5b34610489576020366003190112610489576020612d2360043561398c565b34610489576000366003190112610489576040516000600254612fef816136ef565b80845290600190818116908115612a2d5750600114613018576101b0846129be8186038261377b565b6002600090815292507f405787fa12a823e0f2b7631cc41b3ba8828b3321ca811111fa75cd3aa3bb5ace5b82841061305b5750505081016020016129be826129ae565b80546020858701810191909152909301928101613043565b3461048957600036600319011261048957600854600060015b82811115613309575061309e90614505565b90600160005b828211156130ba57604051806101b0868261362c565b81600052600e6020526040600020600f8101549060ff8260101c16156130ed575b5050906130e7906144e0565b906130a4565b604051916130fa83613729565b8154835260018201546001600160a01b0316602084015261311d6002830161379c565b604084015261312e6003830161379c565b606084015260048201546080840152600582015460a08401526131536006830161379c565b60c08401526131646007830161379c565b60e084015260088201805461317881614309565b91613186604051938461377b565b81835260208301906000526020600020906000905b8382106132ec57505050506010929160ff916101008601526131bf6009840161379c565b6101208601526131d1600a840161379c565b610140860152600b8301546101608601526131ee600c840161379c565b610180860152613200600d840161379c565b6101a0860152600e8301546101c086015281811615156101e0860152818160081c161515610200860152831c1615156102208401520180549061324282614309565b91613250604051938461377b565b808352602083019160005260206000206000925b82841061328e57505050506102408201526130e791613287916103838288614555565b90856130db565b600560206001926040516132a181613745565b85548152848060a01b03858701541683820152600286015460408201526132ca6003870161379c565b606082015260ff60048701541615156080820152815201920193019290613264565b6001602081926132fb8661379c565b81520193019101909161319b565b80600052600e60205260ff600f6040600020015460101c1615613335575b613330906144e0565b61308c565b90613342613330916144e0565b919050613327565b34610489576020366003190112610489576004359063ffffffff60e01b8216809203610489576020916380ac58cd60e01b81149081156133a4575b8115613393575b5015158152f35b6301ffc9a760e01b1490508361338c565b635b5e139f60e01b81149150613385565b919082519283825260005b8481106133e1575050826000602080949584010152601f8019910116010190565b6020818301810151848301820152016133c0565b908151815260018060a01b036020818185015116818401526040926134278486015161026080878501528301906133b5565b9261343e60609485880151848203878601526133b5565b906080808801518185015261347e61346c60a094858b01518688015260c08b015187820360c08901526133b5565b60e08a015186820360e08801526133b5565b61010090818a0151918682039087015281518082528782019188808360051b8301019401926000915b8383106135f25750505050506135086134e96134d561351c938c61012080910151908a8303908b01526133b5565b610140808d015190898303908a01526133b5565b610160808c015190880152610180808c015190888303908901526133b5565b6101a0808b015190878303908801526133b5565b936101c0808a0151908201526101e0808a0151151590820152610200808a0151151590820152610220808a015115159082015261024080990151988186039101528751958685528585019386808960051b8801019a01986000965b89881061358c57505050505050505050505090565b909192939495969798999a89806001928e601f19868303018c525190815181528a838301511683820152868201518782015289806135d58b8501518b8d8601528b8501906133b5565b93015115159101529d019801980196999897959493929190613577565b90919293948a806136169a9e9c9d98999a600193601f1986820301875289516133b5565b970193019301919392909b9796959a999b6134a7565b602080820190808352835180925260408301928160408460051b8301019501936000915b8483106136605750505050505090565b909192939495848061367e600193603f198682030187528a516133f5565b9801930193019194939290613650565b600435906001600160a01b038216820361048957565b602435906001600160a01b038216820361048957565b6060906003190112610489576001600160a01b0390600435828116810361048957916024359081168103610489579060443590565b90600182811c9216801561371f575b602083101461370957565b634e487b7160e01b600052602260045260246000fd5b91607f16916136fe565b61026081019081106001600160401b038211176122cd57604052565b60a081019081106001600160401b038211176122cd57604052565b602081019081106001600160401b038211176122cd57604052565b90601f801991011681019081106001600160401b038211176122cd57604052565b90604051918260008254926137b0846136ef565b90818452600194858116908160001461381f57506001146137dc575b50506137da9250038361377b565b565b9093915060005260209081600020936000915b8183106138075750506137da935082010138806137cc565b855488840185015294850194879450918301916137ef565b9150506137da94506020925060ff191682840152151560051b82010138806137cc565b6001600160401b0381116122cd57601f01601f191660200190565b92919261386982613842565b91613877604051938461377b565b829481845281830111610489578281602093846000960137010152565b80548210156138ac5760005260206000200190600090565b634e487b7160e01b600052603260045260246000fd5b6000546001600160a01b031633036138d657565b606460405162461bcd60e51b815260206004820152602060248201527f4f776e61626c653a2063616c6c6572206973206e6f7420746865206f776e65726044820152fd5b1561392157565b60405162461bcd60e51b815260206004820152601860248201527f4552433732313a20696e76616c696420746f6b656e20494400000000000000006044820152606490fd5b6000908152600460205260409020546001600160a01b031661398981151561391a565b90565b6000818152600460205260409020546139af906001600160a01b0316151561391a565b6000908152600660205260409020546001600160a01b031690565b156139d157565b60405162461bcd60e51b815260206004820152602d60248201527f4552433732313a2063616c6c6572206973206e6f7420746f6b656e206f776e6560448201526c1c881bdc88185c1c1c9bdd9959609a1b6064820152608490fd5b90613a50939291613a40612dc28433613ac7565b613a4b838383613b8f565b613ca0565b15613a5757565b60405162461bcd60e51b815280613a7060048201613a74565b0390fd5b60809060208152603260208201527f4552433732313a207472616e7366657220746f206e6f6e20455243373231526560408201527131b2b4bb32b91034b6b83632b6b2b73a32b960711b60608201520190565b906001600160a01b038080613adb84613966565b16931691838314938415613b0e575b508315613af8575b50505090565b613b049192935061398c565b1614388080613af2565b909350600052600760205260406000208260005260205260ff604060002054169238613aea565b15613b3c57565b60405162461bcd60e51b815260206004820152602560248201527f4552433732313a207472616e736665722066726f6d20696e636f72726563742060448201526437bbb732b960d91b6064820152608490fd5b90613bb791613b9d84613966565b6001600160a01b0393918416928492909183168414613b35565b16918215613c4f5781613bd491613bcd86613966565b1614613b35565b7fddf252ad1be2c89b69c2b068fc378daa952ba7f163c4a11628f55a4df523b3ef60008481526006602052604081206001600160601b0360a01b9081815416905583825260056020526040822060001981540190558482526040822060018154019055858252600460205284604083209182541617905580a4565b60405162461bcd60e51b8152602060048201526024808201527f4552433732313a207472616e7366657220746f20746865207a65726f206164646044820152637265737360e01b6064820152608490fd5b9293600093909291803b15613dba57948491613cfa9660405180948193630a85bd0160e11b9788845233600485015260018060a01b0380921660248501526044840152608060648401528260209b8c9760848301906133b5565b0393165af1849181613d76575b50613d65575050503d600014613d5d573d613d2181613842565b90613d2f604051928361377b565b81528091833d92013e5b80519182613d5a5760405162461bcd60e51b815280613a7060048201613a74565b01fd5b506060613d39565b6001600160e01b0319161492509050565b9091508581813d8311613db3575b613d8e818361377b565b81010312613daf57516001600160e01b031981168103613daf579038613d07565b8480fd5b503d613d84565b505050915050600190565b15613dcc57565b60405162461bcd60e51b815260206004820152602560248201527f4f6e6c792076657269666965642073656c6c6572206f72206f776e657220616c6044820152641b1bddd95960da1b6064820152608490fd5b903590601e198136030182121561048957018035906001600160401b0382116104895760200191813603831361048957565b15613e5857565b60405162461bcd60e51b81526020600482015260146024820152734e616d652063616e6e6f7420626520656d70747960601b6044820152606490fd5b15613e9b57565b60405162461bcd60e51b815260206004820152601b60248201527f4465736372697074696f6e2063616e6e6f7420626520656d70747900000000006044820152606490fd5b15613ee757565b60405162461bcd60e51b815260206004820152601c60248201527f5072696365206d7573742062652067726561746572207468616e2030000000006044820152606490fd5b15613f3357565b60405162461bcd60e51b815260206004820152601c60248201527f53746f636b206d7573742062652067726561746572207468616e2030000000006044820152606490fd5b15613f7f57565b60405162461bcd60e51b8152602060048201526015602482015274436f6c6f722063616e6e6f7420626520656d70747960581b6044820152606490fd5b903590601e198136030182121561048957018035906001600160401b03821161048957602001918160051b3603831361048957565b15613ff857565b60405162461bcd60e51b8152602060048201526016602482015275496d616765732063616e6e6f7420626520656d70747960501b6044820152606490fd5b1561403d57565b60405162461bcd60e51b815260206004820152601c60248201527f496d616765732063616e6e6f74206265206d6f7265207468616e2035000000006044820152606490fd5b1561408957565b60405162461bcd60e51b815260206004820152601460248201527353697a652063616e6e6f7420626520656d70747960601b6044820152606490fd5b156140cc57565b60405162461bcd60e51b815260206004820152601860248201527f43617465676f72792063616e6e6f7420626520656d70747900000000000000006044820152606490fd5b1561411857565b60405162461bcd60e51b815260206004820152601c60248201527f5375622d63617465676f72792063616e6e6f7420626520656d707479000000006044820152606490fd5b1561416457565b60405162461bcd60e51b81526020600482015260156024820152744d6f64656c2063616e6e6f7420626520656d70747960581b6044820152606490fd5b156141a857565b60405162461bcd60e51b81526020600482015260156024820152744272616e642063616e6e6f7420626520656d70747960581b6044820152606490fd5b156141ec57565b60405162461bcd60e51b815260206004820152601d60248201527f576569676874206d7573742062652067726561746572207468616e20300000006044820152606490fd5b1561423857565b60405162461bcd60e51b815260206004820152601a60248201527f534b55206d7573742062652067726561746572207468616e20300000000000006044820152606490fd5b6040519061428a82613729565b8161024060009182815282602082015260609283604083015283808301528060808301528060a08301528360c08301528360e08301528361010083015283610120830152836101408301528061016083015283610180830152836101a0830152806101c0830152806101e0830152806102008301526102208201520152565b6001600160401b0381116122cd5760051b60200190565b81811061432b575050565b60008155600101614320565b9190601f811161434657505050565b6137da926000526020600020906020601f840160051c83019310614372575b601f0160051c0190614320565b9091508190614365565b61438681546136ef565b9081614390575050565b81601f600093116001146143a2575055565b9080839182526143c1601f60208420940160051c840160018501614320565b5555565b90600160401b81116122cd578154918181558282106143e357505050565b600052602060002091820191015b8181106143fc575050565b8061440860019261437c565b016143f1565b1561441557565b60405162461bcd60e51b815260206004820152601c60248201527f4552433732313a20746f6b656e20616c7265616479206d696e746564000000006044820152606490fd5b1561446157565b60405162461bcd60e51b8152602060048201526016602482015275141c9bd91d58dd08191bd95cc81b9bdd08195e1a5cdd60521b6044820152606490fd5b156144a657565b60405162461bcd60e51b8152602060048201526012602482015271141c9bd91d58dd081a5cc819195b195d195960721b6044820152606490fd5b60001981146144ef5760010190565b634e487b7160e01b600052601160045260246000fd5b9061450f82614309565b61451c604051918261377b565b828152809261452d601f1991614309565b019060005b82811061453e57505050565b60209061454961427d565b82828501015201614532565b80518210156138ac5760209160051b01019056fea2646970667358221220dc777af3ccd1b9693660a476c460a96eaef11e838991a24c8b1b111521683c5e64736f6c63430008130033",
  "linkReferences": {},
  "deployedLinkReferences": {}
}